{
    "CallIdentity_1_nonzeroValue_d0g0v0_Byzantium" : {
        "_info" : {
            "comment" : "",
            "filledwith" : "cpp-1.3.0+commit.4e101574.Linux.g++",
            "lllcversion" : "Version: 0.4.18-develop.2017.10.11+commit.81f9f86c.Linux.g++",
            "source" : "src/BlockchainTestsFiller/GeneralStateTests/stPreCompiledContracts2/CallIdentity_1_nonzeroValue_d0g0v0Filler.json",
            "sourceHash" : "29c1330ebcebe983c71aca78515ab4179c5e2c61ee283e99578cddc539306651"
        },
        "blocks" : [
            {
                "blockHeader" : {
                    "bloom" : "0x00000000000000000000000000000000000000000000000000000000000000000000000000000000000000000000000000000000000000000000000000000000000000000000000000000000000000000000000000000000000000000000000000000000000000000000000000000000000000000000000000000000000000000000000000000000000000000000000000000000000000000000000000000000000000000000000000000000000000000000000000000000000000000000000000000000000000000000000000000000000000000000000000000000000000000000000000000000000000000000000000000000000000000000000000000000",
                    "coinbase" : "0x2adc25665018aa1fe0e6bc666dac8fc2697ff9ba",
                    "difficulty" : "0x020000",
                    "extraData" : "",
                    "gasLimit" : "0x05f5e100",
                    "gasUsed" : "0x013273",
                    "hash" : "0xf1ba8d15e62ac27252b0682a27a54bd2a21bc639e7f096de8123898575973057",
                    "mixHash" : "0xf22e37b5e340ab1607f763ba5a50a026a6e78b3aa88ad8514334b4778a476aae",
                    "nonce" : "0x3449c0ae933fe0c8",
                    "number" : "0x01",
                    "parentHash" : "0xbcc1027e9a21ae9b27ea8ba4dabae51d359eb4736cf48fef8d12a0ed7031ec6d",
                    "receiptTrie" : "0x591b6bf0e12841ca1b839b6c5e3b48217ea569a5f1be6e3ce286ce64840f23ac",
                    "stateRoot" : "0xcc434ad98cd5d85962ab5e9e6dda24be3d44b21c08259a30ad26c00695ed3f6e",
                    "timestamp" : "0x03e8",
                    "transactionsTrie" : "0x98fa170d192a6eff341cc8b8392cf1c8256997c28117ae4c20481271ffe00b0b",
                    "uncleHash" : "0x1dcc4de8dec75d7aab85b567b6ccd41ad312451b948a7413f0a142fd40d49347"
                },
                "rlp" : "0xf90264f901f9a0bcc1027e9a21ae9b27ea8ba4dabae51d359eb4736cf48fef8d12a0ed7031ec6da01dcc4de8dec75d7aab85b567b6ccd41ad312451b948a7413f0a142fd40d49347942adc25665018aa1fe0e6bc666dac8fc2697ff9baa0cc434ad98cd5d85962ab5e9e6dda24be3d44b21c08259a30ad26c00695ed3f6ea098fa170d192a6eff341cc8b8392cf1c8256997c28117ae4c20481271ffe00b0ba0591b6bf0e12841ca1b839b6c5e3b48217ea569a5f1be6e3ce286ce64840f23acb901000000000000000000000000000000000000000000000000000000000000000000000000000000000000000000000000000000000000000000000000000000000000000000000000000000000000000000000000000000000000000000000000000000000000000000000000000000000000000000000000000000000000000000000000000000000000000000000000000000000000000000000000000000000000000000000000000000000000000000000000000000000000000000000000000000000000000000000000000000000000000000000000000000000000000000000000000000000000000000000000000000000000000000000000000000000083020000018405f5e100830132738203e880a0f22e37b5e340ab1607f763ba5a50a026a6e78b3aa88ad8514334b4778a476aae883449c0ae933fe0c8f865f8638001830592a894095e7baea6a6c7c4c2dfeb977efac326af552d87830186a0801ca082cfe09a590896d5e895674505c40f1701ab05245f9f568bf506b9558e61c67fa04a98fee75f6fbf3fa4b3e104a9bb7283a6e076670719bac8af481531151b7b3cc0",
                "transactions" : [
                    {
                        "data" : "",
                        "gasLimit" : "0x0592a8",
                        "gasPrice" : "0x01",
                        "nonce" : "0x00",
                        "r" : "0x82cfe09a590896d5e895674505c40f1701ab05245f9f568bf506b9558e61c67f",
                        "s" : "0x4a98fee75f6fbf3fa4b3e104a9bb7283a6e076670719bac8af481531151b7b3c",
                        "to" : "0x095e7baea6a6c7c4c2dfeb977efac326af552d87",
                        "v" : "0x1c",
                        "value" : "0x0186a0"
                    }
                ],
                "uncleHeaders" : [
                ]
            }
        ],
        "genesisBlockHeader" : {
            "bloom" : "0x00000000000000000000000000000000000000000000000000000000000000000000000000000000000000000000000000000000000000000000000000000000000000000000000000000000000000000000000000000000000000000000000000000000000000000000000000000000000000000000000000000000000000000000000000000000000000000000000000000000000000000000000000000000000000000000000000000000000000000000000000000000000000000000000000000000000000000000000000000000000000000000000000000000000000000000000000000000000000000000000000000000000000000000000000000000",
            "coinbase" : "0x2adc25665018aa1fe0e6bc666dac8fc2697ff9ba",
            "difficulty" : "0x020000",
            "extraData" : "0x42",
            "gasLimit" : "0x05f5e100",
            "gasUsed" : "0x00",
            "hash" : "0xbcc1027e9a21ae9b27ea8ba4dabae51d359eb4736cf48fef8d12a0ed7031ec6d",
            "mixHash" : "0x56e81f171bcc55a6ff8345e692c0f86e5b48e01b996cadc001622fb5e363b421",
            "nonce" : "0x0102030405060708",
            "number" : "0x00",
            "parentHash" : "0x0000000000000000000000000000000000000000000000000000000000000000",
            "receiptTrie" : "0x56e81f171bcc55a6ff8345e692c0f86e5b48e01b996cadc001622fb5e363b421",
            "stateRoot" : "0xddf6eb4597dfbcc2ffb1532fc992bf9eafad19c995de756ce44b3be502069bc6",
            "timestamp" : "0x03b6",
            "transactionsTrie" : "0x56e81f171bcc55a6ff8345e692c0f86e5b48e01b996cadc001622fb5e363b421",
            "uncleHash" : "0x1dcc4de8dec75d7aab85b567b6ccd41ad312451b948a7413f0a142fd40d49347"
        },
        "genesisRLP" : "0xf901fbf901f6a00000000000000000000000000000000000000000000000000000000000000000a01dcc4de8dec75d7aab85b567b6ccd41ad312451b948a7413f0a142fd40d49347942adc25665018aa1fe0e6bc666dac8fc2697ff9baa0ddf6eb4597dfbcc2ffb1532fc992bf9eafad19c995de756ce44b3be502069bc6a056e81f171bcc55a6ff8345e692c0f86e5b48e01b996cadc001622fb5e363b421a056e81f171bcc55a6ff8345e692c0f86e5b48e01b996cadc001622fb5e363b421b901000000000000000000000000000000000000000000000000000000000000000000000000000000000000000000000000000000000000000000000000000000000000000000000000000000000000000000000000000000000000000000000000000000000000000000000000000000000000000000000000000000000000000000000000000000000000000000000000000000000000000000000000000000000000000000000000000000000000000000000000000000000000000000000000000000000000000000000000000000000000000000000000000000000000000000000000000000000000000000000000000000000000000000000000000000000083020000808405f5e100808203b642a056e81f171bcc55a6ff8345e692c0f86e5b48e01b996cadc001622fb5e363b421880102030405060708c0c0",
        "lastblockhash" : "0xf1ba8d15e62ac27252b0682a27a54bd2a21bc639e7f096de8123898575973057",
        "network" : "Byzantium",
        "postState" : {
            "0x0000000000000000000000000000000000000004" : {
                "balance" : "0x13",
                "code" : "",
                "nonce" : "0x00",
                "storage" : {
                }
            },
            "0x095e7baea6a6c7c4c2dfeb977efac326af552d87" : {
                "balance" : "0x0bed488d",
                "code" : "0x60206000600060006013600462030d40f1600255600051600055",
                "nonce" : "0x00",
                "storage" : {
                    "0x02" : "0x01"
                }
            },
            "0x2adc25665018aa1fe0e6bc666dac8fc2697ff9ba" : {
                "balance" : "0x29a2241af62d3273",
                "code" : "",
                "nonce" : "0x00",
                "storage" : {
                }
            },
            "0xa94f5374fce5edbc8e2a8697c15331677e6ebf0b" : {
                "balance" : "0x0de0b6b3a76146ed",
                "code" : "",
                "nonce" : "0x01",
                "storage" : {
                }
            }
        },
        "pre" : {
            "0x095e7baea6a6c7c4c2dfeb977efac326af552d87" : {
                "balance" : "0x0bebc200",
                "code" : "0x60206000600060006013600462030d40f1600255600051600055",
                "nonce" : "0x00",
                "storage" : {
                }
            },
            "0xa94f5374fce5edbc8e2a8697c15331677e6ebf0b" : {
                "balance" : "0x0de0b6b3a7640000",
                "code" : "",
                "nonce" : "0x00",
                "storage" : {
                }
            }
        }
    },
    "CallIdentity_1_nonzeroValue_d0g0v0_EIP150" : {
        "_info" : {
            "comment" : "",
            "filledwith" : "cpp-1.3.0+commit.4e101574.Linux.g++",
            "lllcversion" : "Version: 0.4.18-develop.2017.10.11+commit.81f9f86c.Linux.g++",
            "source" : "src/BlockchainTestsFiller/GeneralStateTests/stPreCompiledContracts2/CallIdentity_1_nonzeroValue_d0g0v0Filler.json",
            "sourceHash" : "29c1330ebcebe983c71aca78515ab4179c5e2c61ee283e99578cddc539306651"
        },
        "blocks" : [
            {
                "blockHeader" : {
                    "bloom" : "0x00000000000000000000000000000000000000000000000000000000000000000000000000000000000000000000000000000000000000000000000000000000000000000000000000000000000000000000000000000000000000000000000000000000000000000000000000000000000000000000000000000000000000000000000000000000000000000000000000000000000000000000000000000000000000000000000000000000000000000000000000000000000000000000000000000000000000000000000000000000000000000000000000000000000000000000000000000000000000000000000000000000000000000000000000000000",
                    "coinbase" : "0x2adc25665018aa1fe0e6bc666dac8fc2697ff9ba",
                    "difficulty" : "0x020000",
                    "extraData" : "",
                    "gasLimit" : "0x05f5e100",
                    "gasUsed" : "0x013273",
                    "hash" : "0xb5de72d459da1e39b9a0aef59c6a1c4776d0d53a138a9a037c9bbd79c900acc9",
                    "mixHash" : "0x7d29d8e181858a2f35434d9a1467506e3f8c3ed1355fe6e83643a3c5c33a0c85",
                    "nonce" : "0x15033bb814affe2d",
                    "number" : "0x01",
                    "parentHash" : "0xbcc1027e9a21ae9b27ea8ba4dabae51d359eb4736cf48fef8d12a0ed7031ec6d",
                    "receiptTrie" : "0x2b8bfe670d7b0e8c246caeb57f581bc079c8d5191b25b083c20b4d95f9da70c5",
                    "stateRoot" : "0x1f9b886d62fd941083e2f911840ae2e9a9cc3261df5bebfdf373cdff84c27d1b",
                    "timestamp" : "0x03e8",
                    "transactionsTrie" : "0x98fa170d192a6eff341cc8b8392cf1c8256997c28117ae4c20481271ffe00b0b",
                    "uncleHash" : "0x1dcc4de8dec75d7aab85b567b6ccd41ad312451b948a7413f0a142fd40d49347"
                },
                "rlp" : "0xf90264f901f9a0bcc1027e9a21ae9b27ea8ba4dabae51d359eb4736cf48fef8d12a0ed7031ec6da01dcc4de8dec75d7aab85b567b6ccd41ad312451b948a7413f0a142fd40d49347942adc25665018aa1fe0e6bc666dac8fc2697ff9baa01f9b886d62fd941083e2f911840ae2e9a9cc3261df5bebfdf373cdff84c27d1ba098fa170d192a6eff341cc8b8392cf1c8256997c28117ae4c20481271ffe00b0ba02b8bfe670d7b0e8c246caeb57f581bc079c8d5191b25b083c20b4d95f9da70c5b901000000000000000000000000000000000000000000000000000000000000000000000000000000000000000000000000000000000000000000000000000000000000000000000000000000000000000000000000000000000000000000000000000000000000000000000000000000000000000000000000000000000000000000000000000000000000000000000000000000000000000000000000000000000000000000000000000000000000000000000000000000000000000000000000000000000000000000000000000000000000000000000000000000000000000000000000000000000000000000000000000000000000000000000000000000000083020000018405f5e100830132738203e880a07d29d8e181858a2f35434d9a1467506e3f8c3ed1355fe6e83643a3c5c33a0c858815033bb814affe2df865f8638001830592a894095e7baea6a6c7c4c2dfeb977efac326af552d87830186a0801ca082cfe09a590896d5e895674505c40f1701ab05245f9f568bf506b9558e61c67fa04a98fee75f6fbf3fa4b3e104a9bb7283a6e076670719bac8af481531151b7b3cc0",
                "transactions" : [
                    {
                        "data" : "",
                        "gasLimit" : "0x0592a8",
                        "gasPrice" : "0x01",
                        "nonce" : "0x00",
                        "r" : "0x82cfe09a590896d5e895674505c40f1701ab05245f9f568bf506b9558e61c67f",
                        "s" : "0x4a98fee75f6fbf3fa4b3e104a9bb7283a6e076670719bac8af481531151b7b3c",
                        "to" : "0x095e7baea6a6c7c4c2dfeb977efac326af552d87",
                        "v" : "0x1c",
                        "value" : "0x0186a0"
                    }
                ],
                "uncleHeaders" : [
                ]
            }
        ],
        "genesisBlockHeader" : {
            "bloom" : "0x00000000000000000000000000000000000000000000000000000000000000000000000000000000000000000000000000000000000000000000000000000000000000000000000000000000000000000000000000000000000000000000000000000000000000000000000000000000000000000000000000000000000000000000000000000000000000000000000000000000000000000000000000000000000000000000000000000000000000000000000000000000000000000000000000000000000000000000000000000000000000000000000000000000000000000000000000000000000000000000000000000000000000000000000000000000",
            "coinbase" : "0x2adc25665018aa1fe0e6bc666dac8fc2697ff9ba",
            "difficulty" : "0x020000",
            "extraData" : "0x42",
            "gasLimit" : "0x05f5e100",
            "gasUsed" : "0x00",
            "hash" : "0xbcc1027e9a21ae9b27ea8ba4dabae51d359eb4736cf48fef8d12a0ed7031ec6d",
            "mixHash" : "0x56e81f171bcc55a6ff8345e692c0f86e5b48e01b996cadc001622fb5e363b421",
            "nonce" : "0x0102030405060708",
            "number" : "0x00",
            "parentHash" : "0x0000000000000000000000000000000000000000000000000000000000000000",
            "receiptTrie" : "0x56e81f171bcc55a6ff8345e692c0f86e5b48e01b996cadc001622fb5e363b421",
            "stateRoot" : "0xddf6eb4597dfbcc2ffb1532fc992bf9eafad19c995de756ce44b3be502069bc6",
            "timestamp" : "0x03b6",
            "transactionsTrie" : "0x56e81f171bcc55a6ff8345e692c0f86e5b48e01b996cadc001622fb5e363b421",
            "uncleHash" : "0x1dcc4de8dec75d7aab85b567b6ccd41ad312451b948a7413f0a142fd40d49347"
        },
        "genesisRLP" : "0xf901fbf901f6a00000000000000000000000000000000000000000000000000000000000000000a01dcc4de8dec75d7aab85b567b6ccd41ad312451b948a7413f0a142fd40d49347942adc25665018aa1fe0e6bc666dac8fc2697ff9baa0ddf6eb4597dfbcc2ffb1532fc992bf9eafad19c995de756ce44b3be502069bc6a056e81f171bcc55a6ff8345e692c0f86e5b48e01b996cadc001622fb5e363b421a056e81f171bcc55a6ff8345e692c0f86e5b48e01b996cadc001622fb5e363b421b901000000000000000000000000000000000000000000000000000000000000000000000000000000000000000000000000000000000000000000000000000000000000000000000000000000000000000000000000000000000000000000000000000000000000000000000000000000000000000000000000000000000000000000000000000000000000000000000000000000000000000000000000000000000000000000000000000000000000000000000000000000000000000000000000000000000000000000000000000000000000000000000000000000000000000000000000000000000000000000000000000000000000000000000000000000000083020000808405f5e100808203b642a056e81f171bcc55a6ff8345e692c0f86e5b48e01b996cadc001622fb5e363b421880102030405060708c0c0",
        "lastblockhash" : "0xb5de72d459da1e39b9a0aef59c6a1c4776d0d53a138a9a037c9bbd79c900acc9",
        "network" : "EIP150",
        "postState" : {
            "0x0000000000000000000000000000000000000004" : {
                "balance" : "0x13",
                "code" : "",
                "nonce" : "0x00",
                "storage" : {
                }
            },
            "0x095e7baea6a6c7c4c2dfeb977efac326af552d87" : {
                "balance" : "0x0bed488d",
                "code" : "0x60206000600060006013600462030d40f1600255600051600055",
                "nonce" : "0x00",
                "storage" : {
                    "0x02" : "0x01"
                }
            },
            "0x2adc25665018aa1fe0e6bc666dac8fc2697ff9ba" : {
                "balance" : "0x4563918244f53273",
                "code" : "",
                "nonce" : "0x00",
                "storage" : {
                }
            },
            "0xa94f5374fce5edbc8e2a8697c15331677e6ebf0b" : {
                "balance" : "0x0de0b6b3a76146ed",
                "code" : "",
                "nonce" : "0x01",
                "storage" : {
                }
            }
        },
        "pre" : {
            "0x095e7baea6a6c7c4c2dfeb977efac326af552d87" : {
                "balance" : "0x0bebc200",
                "code" : "0x60206000600060006013600462030d40f1600255600051600055",
                "nonce" : "0x00",
                "storage" : {
                }
            },
            "0xa94f5374fce5edbc8e2a8697c15331677e6ebf0b" : {
                "balance" : "0x0de0b6b3a7640000",
                "code" : "",
                "nonce" : "0x00",
                "storage" : {
                }
            }
        }
    },
    "CallIdentity_1_nonzeroValue_d0g0v0_EIP158" : {
        "_info" : {
            "comment" : "",
            "filledwith" : "cpp-1.3.0+commit.4e101574.Linux.g++",
            "lllcversion" : "Version: 0.4.18-develop.2017.10.11+commit.81f9f86c.Linux.g++",
            "source" : "src/BlockchainTestsFiller/GeneralStateTests/stPreCompiledContracts2/CallIdentity_1_nonzeroValue_d0g0v0Filler.json",
            "sourceHash" : "29c1330ebcebe983c71aca78515ab4179c5e2c61ee283e99578cddc539306651"
        },
        "blocks" : [
            {
                "blockHeader" : {
                    "bloom" : "0x00000000000000000000000000000000000000000000000000000000000000000000000000000000000000000000000000000000000000000000000000000000000000000000000000000000000000000000000000000000000000000000000000000000000000000000000000000000000000000000000000000000000000000000000000000000000000000000000000000000000000000000000000000000000000000000000000000000000000000000000000000000000000000000000000000000000000000000000000000000000000000000000000000000000000000000000000000000000000000000000000000000000000000000000000000000",
                    "coinbase" : "0x2adc25665018aa1fe0e6bc666dac8fc2697ff9ba",
                    "difficulty" : "0x020000",
                    "extraData" : "",
                    "gasLimit" : "0x05f5e100",
                    "gasUsed" : "0x013273",
                    "hash" : "0xbe753c7852af1e70a01d2e8bbac04a003bfd0b062ac8ead0382b48446cee2b99",
                    "mixHash" : "0xb3ac395dd54432c9873402c7913f697d60d2f024e0cf647a06d1c67ab7c01e22",
                    "nonce" : "0x55819dd8bdcee831",
                    "number" : "0x01",
                    "parentHash" : "0xbcc1027e9a21ae9b27ea8ba4dabae51d359eb4736cf48fef8d12a0ed7031ec6d",
                    "receiptTrie" : "0x2b8bfe670d7b0e8c246caeb57f581bc079c8d5191b25b083c20b4d95f9da70c5",
                    "stateRoot" : "0x1f9b886d62fd941083e2f911840ae2e9a9cc3261df5bebfdf373cdff84c27d1b",
                    "timestamp" : "0x03e8",
                    "transactionsTrie" : "0x98fa170d192a6eff341cc8b8392cf1c8256997c28117ae4c20481271ffe00b0b",
                    "uncleHash" : "0x1dcc4de8dec75d7aab85b567b6ccd41ad312451b948a7413f0a142fd40d49347"
                },
                "rlp" : "0xf90264f901f9a0bcc1027e9a21ae9b27ea8ba4dabae51d359eb4736cf48fef8d12a0ed7031ec6da01dcc4de8dec75d7aab85b567b6ccd41ad312451b948a7413f0a142fd40d49347942adc25665018aa1fe0e6bc666dac8fc2697ff9baa01f9b886d62fd941083e2f911840ae2e9a9cc3261df5bebfdf373cdff84c27d1ba098fa170d192a6eff341cc8b8392cf1c8256997c28117ae4c20481271ffe00b0ba02b8bfe670d7b0e8c246caeb57f581bc079c8d5191b25b083c20b4d95f9da70c5b901000000000000000000000000000000000000000000000000000000000000000000000000000000000000000000000000000000000000000000000000000000000000000000000000000000000000000000000000000000000000000000000000000000000000000000000000000000000000000000000000000000000000000000000000000000000000000000000000000000000000000000000000000000000000000000000000000000000000000000000000000000000000000000000000000000000000000000000000000000000000000000000000000000000000000000000000000000000000000000000000000000000000000000000000000000000083020000018405f5e100830132738203e880a0b3ac395dd54432c9873402c7913f697d60d2f024e0cf647a06d1c67ab7c01e228855819dd8bdcee831f865f8638001830592a894095e7baea6a6c7c4c2dfeb977efac326af552d87830186a0801ca082cfe09a590896d5e895674505c40f1701ab05245f9f568bf506b9558e61c67fa04a98fee75f6fbf3fa4b3e104a9bb7283a6e076670719bac8af481531151b7b3cc0",
                "transactions" : [
                    {
                        "data" : "",
                        "gasLimit" : "0x0592a8",
                        "gasPrice" : "0x01",
                        "nonce" : "0x00",
                        "r" : "0x82cfe09a590896d5e895674505c40f1701ab05245f9f568bf506b9558e61c67f",
                        "s" : "0x4a98fee75f6fbf3fa4b3e104a9bb7283a6e076670719bac8af481531151b7b3c",
                        "to" : "0x095e7baea6a6c7c4c2dfeb977efac326af552d87",
                        "v" : "0x1c",
                        "value" : "0x0186a0"
                    }
                ],
                "uncleHeaders" : [
                ]
            }
        ],
        "genesisBlockHeader" : {
            "bloom" : "0x00000000000000000000000000000000000000000000000000000000000000000000000000000000000000000000000000000000000000000000000000000000000000000000000000000000000000000000000000000000000000000000000000000000000000000000000000000000000000000000000000000000000000000000000000000000000000000000000000000000000000000000000000000000000000000000000000000000000000000000000000000000000000000000000000000000000000000000000000000000000000000000000000000000000000000000000000000000000000000000000000000000000000000000000000000000",
            "coinbase" : "0x2adc25665018aa1fe0e6bc666dac8fc2697ff9ba",
            "difficulty" : "0x020000",
            "extraData" : "0x42",
            "gasLimit" : "0x05f5e100",
            "gasUsed" : "0x00",
            "hash" : "0xbcc1027e9a21ae9b27ea8ba4dabae51d359eb4736cf48fef8d12a0ed7031ec6d",
            "mixHash" : "0x56e81f171bcc55a6ff8345e692c0f86e5b48e01b996cadc001622fb5e363b421",
            "nonce" : "0x0102030405060708",
            "number" : "0x00",
            "parentHash" : "0x0000000000000000000000000000000000000000000000000000000000000000",
            "receiptTrie" : "0x56e81f171bcc55a6ff8345e692c0f86e5b48e01b996cadc001622fb5e363b421",
            "stateRoot" : "0xddf6eb4597dfbcc2ffb1532fc992bf9eafad19c995de756ce44b3be502069bc6",
            "timestamp" : "0x03b6",
            "transactionsTrie" : "0x56e81f171bcc55a6ff8345e692c0f86e5b48e01b996cadc001622fb5e363b421",
            "uncleHash" : "0x1dcc4de8dec75d7aab85b567b6ccd41ad312451b948a7413f0a142fd40d49347"
        },
        "genesisRLP" : "0xf901fbf901f6a00000000000000000000000000000000000000000000000000000000000000000a01dcc4de8dec75d7aab85b567b6ccd41ad312451b948a7413f0a142fd40d49347942adc25665018aa1fe0e6bc666dac8fc2697ff9baa0ddf6eb4597dfbcc2ffb1532fc992bf9eafad19c995de756ce44b3be502069bc6a056e81f171bcc55a6ff8345e692c0f86e5b48e01b996cadc001622fb5e363b421a056e81f171bcc55a6ff8345e692c0f86e5b48e01b996cadc001622fb5e363b421b901000000000000000000000000000000000000000000000000000000000000000000000000000000000000000000000000000000000000000000000000000000000000000000000000000000000000000000000000000000000000000000000000000000000000000000000000000000000000000000000000000000000000000000000000000000000000000000000000000000000000000000000000000000000000000000000000000000000000000000000000000000000000000000000000000000000000000000000000000000000000000000000000000000000000000000000000000000000000000000000000000000000000000000000000000000000083020000808405f5e100808203b642a056e81f171bcc55a6ff8345e692c0f86e5b48e01b996cadc001622fb5e363b421880102030405060708c0c0",
        "lastblockhash" : "0xbe753c7852af1e70a01d2e8bbac04a003bfd0b062ac8ead0382b48446cee2b99",
        "network" : "EIP158",
        "postState" : {
            "0x0000000000000000000000000000000000000004" : {
                "balance" : "0x13",
                "code" : "",
                "nonce" : "0x00",
                "storage" : {
                }
            },
            "0x095e7baea6a6c7c4c2dfeb977efac326af552d87" : {
                "balance" : "0x0bed488d",
                "code" : "0x60206000600060006013600462030d40f1600255600051600055",
                "nonce" : "0x00",
                "storage" : {
                    "0x02" : "0x01"
                }
            },
            "0x2adc25665018aa1fe0e6bc666dac8fc2697ff9ba" : {
                "balance" : "0x4563918244f53273",
                "code" : "",
                "nonce" : "0x00",
                "storage" : {
                }
            },
            "0xa94f5374fce5edbc8e2a8697c15331677e6ebf0b" : {
                "balance" : "0x0de0b6b3a76146ed",
                "code" : "",
                "nonce" : "0x01",
                "storage" : {
                }
            }
        },
        "pre" : {
            "0x095e7baea6a6c7c4c2dfeb977efac326af552d87" : {
                "balance" : "0x0bebc200",
                "code" : "0x60206000600060006013600462030d40f1600255600051600055",
                "nonce" : "0x00",
                "storage" : {
                }
            },
            "0xa94f5374fce5edbc8e2a8697c15331677e6ebf0b" : {
                "balance" : "0x0de0b6b3a7640000",
                "code" : "",
                "nonce" : "0x00",
                "storage" : {
                }
            }
        }
    },
    "CallIdentity_1_nonzeroValue_d0g0v0_Frontier" : {
        "_info" : {
            "comment" : "",
            "filledwith" : "cpp-1.3.0+commit.4e101574.Linux.g++",
            "lllcversion" : "Version: 0.4.18-develop.2017.10.11+commit.81f9f86c.Linux.g++",
            "source" : "src/BlockchainTestsFiller/GeneralStateTests/stPreCompiledContracts2/CallIdentity_1_nonzeroValue_d0g0v0Filler.json",
            "sourceHash" : "29c1330ebcebe983c71aca78515ab4179c5e2c61ee283e99578cddc539306651"
        },
        "blocks" : [
            {
                "blockHeader" : {
                    "bloom" : "0x00000000000000000000000000000000000000000000000000000000000000000000000000000000000000000000000000000000000000000000000000000000000000000000000000000000000000000000000000000000000000000000000000000000000000000000000000000000000000000000000000000000000000000000000000000000000000000000000000000000000000000000000000000000000000000000000000000000000000000000000000000000000000000000000000000000000000000000000000000000000000000000000000000000000000000000000000000000000000000000000000000000000000000000000000000000",
                    "coinbase" : "0x2adc25665018aa1fe0e6bc666dac8fc2697ff9ba",
                    "difficulty" : "0x020000",
                    "extraData" : "",
                    "gasLimit" : "0x05f5e100",
                    "gasUsed" : "0x012fdf",
                    "hash" : "0x99b586f1dcafd289133931234d1795c11aa955eb7b98ba220ab7c0a9b05039b3",
                    "mixHash" : "0x586aaf81cfe58520356552962ffc54faae75991b54d5ad805c34210b90d66efc",
                    "nonce" : "0x0a877b05f9a26665",
                    "number" : "0x01",
                    "parentHash" : "0xbcc1027e9a21ae9b27ea8ba4dabae51d359eb4736cf48fef8d12a0ed7031ec6d",
                    "receiptTrie" : "0xe41fbcbf5cd493ec24d1a2e83a107a0055e85edc4c18516397b3e010456b70ba",
                    "stateRoot" : "0x9b41fa1f025e36a5025c4b0bf29d9997ac5ecfe5ea7f37e7d5f44a8da500bc71",
                    "timestamp" : "0x03e8",
                    "transactionsTrie" : "0x98fa170d192a6eff341cc8b8392cf1c8256997c28117ae4c20481271ffe00b0b",
                    "uncleHash" : "0x1dcc4de8dec75d7aab85b567b6ccd41ad312451b948a7413f0a142fd40d49347"
                },
                "rlp" : "0xf90264f901f9a0bcc1027e9a21ae9b27ea8ba4dabae51d359eb4736cf48fef8d12a0ed7031ec6da01dcc4de8dec75d7aab85b567b6ccd41ad312451b948a7413f0a142fd40d49347942adc25665018aa1fe0e6bc666dac8fc2697ff9baa09b41fa1f025e36a5025c4b0bf29d9997ac5ecfe5ea7f37e7d5f44a8da500bc71a098fa170d192a6eff341cc8b8392cf1c8256997c28117ae4c20481271ffe00b0ba0e41fbcbf5cd493ec24d1a2e83a107a0055e85edc4c18516397b3e010456b70bab901000000000000000000000000000000000000000000000000000000000000000000000000000000000000000000000000000000000000000000000000000000000000000000000000000000000000000000000000000000000000000000000000000000000000000000000000000000000000000000000000000000000000000000000000000000000000000000000000000000000000000000000000000000000000000000000000000000000000000000000000000000000000000000000000000000000000000000000000000000000000000000000000000000000000000000000000000000000000000000000000000000000000000000000000000000000083020000018405f5e10083012fdf8203e880a0586aaf81cfe58520356552962ffc54faae75991b54d5ad805c34210b90d66efc880a877b05f9a26665f865f8638001830592a894095e7baea6a6c7c4c2dfeb977efac326af552d87830186a0801ca082cfe09a590896d5e895674505c40f1701ab05245f9f568bf506b9558e61c67fa04a98fee75f6fbf3fa4b3e104a9bb7283a6e076670719bac8af481531151b7b3cc0",
                "transactions" : [
                    {
                        "data" : "",
                        "gasLimit" : "0x0592a8",
                        "gasPrice" : "0x01",
                        "nonce" : "0x00",
                        "r" : "0x82cfe09a590896d5e895674505c40f1701ab05245f9f568bf506b9558e61c67f",
                        "s" : "0x4a98fee75f6fbf3fa4b3e104a9bb7283a6e076670719bac8af481531151b7b3c",
                        "to" : "0x095e7baea6a6c7c4c2dfeb977efac326af552d87",
                        "v" : "0x1c",
                        "value" : "0x0186a0"
                    }
                ],
                "uncleHeaders" : [
                ]
            }
        ],
        "genesisBlockHeader" : {
            "bloom" : "0x00000000000000000000000000000000000000000000000000000000000000000000000000000000000000000000000000000000000000000000000000000000000000000000000000000000000000000000000000000000000000000000000000000000000000000000000000000000000000000000000000000000000000000000000000000000000000000000000000000000000000000000000000000000000000000000000000000000000000000000000000000000000000000000000000000000000000000000000000000000000000000000000000000000000000000000000000000000000000000000000000000000000000000000000000000000",
            "coinbase" : "0x2adc25665018aa1fe0e6bc666dac8fc2697ff9ba",
            "difficulty" : "0x020000",
            "extraData" : "0x42",
            "gasLimit" : "0x05f5e100",
            "gasUsed" : "0x00",
            "hash" : "0xbcc1027e9a21ae9b27ea8ba4dabae51d359eb4736cf48fef8d12a0ed7031ec6d",
            "mixHash" : "0x56e81f171bcc55a6ff8345e692c0f86e5b48e01b996cadc001622fb5e363b421",
            "nonce" : "0x0102030405060708",
            "number" : "0x00",
            "parentHash" : "0x0000000000000000000000000000000000000000000000000000000000000000",
            "receiptTrie" : "0x56e81f171bcc55a6ff8345e692c0f86e5b48e01b996cadc001622fb5e363b421",
            "stateRoot" : "0xddf6eb4597dfbcc2ffb1532fc992bf9eafad19c995de756ce44b3be502069bc6",
            "timestamp" : "0x03b6",
            "transactionsTrie" : "0x56e81f171bcc55a6ff8345e692c0f86e5b48e01b996cadc001622fb5e363b421",
            "uncleHash" : "0x1dcc4de8dec75d7aab85b567b6ccd41ad312451b948a7413f0a142fd40d49347"
        },
        "genesisRLP" : "0xf901fbf901f6a00000000000000000000000000000000000000000000000000000000000000000a01dcc4de8dec75d7aab85b567b6ccd41ad312451b948a7413f0a142fd40d49347942adc25665018aa1fe0e6bc666dac8fc2697ff9baa0ddf6eb4597dfbcc2ffb1532fc992bf9eafad19c995de756ce44b3be502069bc6a056e81f171bcc55a6ff8345e692c0f86e5b48e01b996cadc001622fb5e363b421a056e81f171bcc55a6ff8345e692c0f86e5b48e01b996cadc001622fb5e363b421b901000000000000000000000000000000000000000000000000000000000000000000000000000000000000000000000000000000000000000000000000000000000000000000000000000000000000000000000000000000000000000000000000000000000000000000000000000000000000000000000000000000000000000000000000000000000000000000000000000000000000000000000000000000000000000000000000000000000000000000000000000000000000000000000000000000000000000000000000000000000000000000000000000000000000000000000000000000000000000000000000000000000000000000000000000000000083020000808405f5e100808203b642a056e81f171bcc55a6ff8345e692c0f86e5b48e01b996cadc001622fb5e363b421880102030405060708c0c0",
        "lastblockhash" : "0x99b586f1dcafd289133931234d1795c11aa955eb7b98ba220ab7c0a9b05039b3",
        "network" : "Frontier",
        "postState" : {
            "0x0000000000000000000000000000000000000004" : {
                "balance" : "0x13",
                "code" : "",
                "nonce" : "0x00",
                "storage" : {
                }
            },
            "0x095e7baea6a6c7c4c2dfeb977efac326af552d87" : {
                "balance" : "0x0bed488d",
                "code" : "0x60206000600060006013600462030d40f1600255600051600055",
                "nonce" : "0x00",
                "storage" : {
                    "0x02" : "0x01"
                }
            },
            "0x2adc25665018aa1fe0e6bc666dac8fc2697ff9ba" : {
                "balance" : "0x4563918244f52fdf",
                "code" : "",
                "nonce" : "0x00",
                "storage" : {
                }
            },
            "0xa94f5374fce5edbc8e2a8697c15331677e6ebf0b" : {
                "balance" : "0x0de0b6b3a7614981",
                "code" : "",
                "nonce" : "0x01",
                "storage" : {
                }
            }
        },
        "pre" : {
            "0x095e7baea6a6c7c4c2dfeb977efac326af552d87" : {
                "balance" : "0x0bebc200",
                "code" : "0x60206000600060006013600462030d40f1600255600051600055",
                "nonce" : "0x00",
                "storage" : {
                }
            },
            "0xa94f5374fce5edbc8e2a8697c15331677e6ebf0b" : {
                "balance" : "0x0de0b6b3a7640000",
                "code" : "",
                "nonce" : "0x00",
                "storage" : {
                }
            }
        }
    },
    "CallIdentity_1_nonzeroValue_d0g0v0_Homestead" : {
        "_info" : {
            "comment" : "",
            "filledwith" : "cpp-1.3.0+commit.4e101574.Linux.g++",
            "lllcversion" : "Version: 0.4.18-develop.2017.10.11+commit.81f9f86c.Linux.g++",
            "source" : "src/BlockchainTestsFiller/GeneralStateTests/stPreCompiledContracts2/CallIdentity_1_nonzeroValue_d0g0v0Filler.json",
            "sourceHash" : "29c1330ebcebe983c71aca78515ab4179c5e2c61ee283e99578cddc539306651"
        },
        "blocks" : [
            {
                "blockHeader" : {
                    "bloom" : "0x00000000000000000000000000000000000000000000000000000000000000000000000000000000000000000000000000000000000000000000000000000000000000000000000000000000000000000000000000000000000000000000000000000000000000000000000000000000000000000000000000000000000000000000000000000000000000000000000000000000000000000000000000000000000000000000000000000000000000000000000000000000000000000000000000000000000000000000000000000000000000000000000000000000000000000000000000000000000000000000000000000000000000000000000000000000",
                    "coinbase" : "0x2adc25665018aa1fe0e6bc666dac8fc2697ff9ba",
                    "difficulty" : "0x020000",
                    "extraData" : "",
                    "gasLimit" : "0x05f5e100",
                    "gasUsed" : "0x012fdf",
                    "hash" : "0x4861940de2cbb31cd3235e48deb8895685cbda53c18b048e8848084d9c55cad6",
                    "mixHash" : "0x9f3dc6ff17d3604c2a8fc57670b42ac2ee1607302c7c257cc687ff764a349311",
                    "nonce" : "0x885aca24702a95ec",
                    "number" : "0x01",
                    "parentHash" : "0xbcc1027e9a21ae9b27ea8ba4dabae51d359eb4736cf48fef8d12a0ed7031ec6d",
                    "receiptTrie" : "0xe41fbcbf5cd493ec24d1a2e83a107a0055e85edc4c18516397b3e010456b70ba",
                    "stateRoot" : "0x9b41fa1f025e36a5025c4b0bf29d9997ac5ecfe5ea7f37e7d5f44a8da500bc71",
                    "timestamp" : "0x03e8",
                    "transactionsTrie" : "0x98fa170d192a6eff341cc8b8392cf1c8256997c28117ae4c20481271ffe00b0b",
                    "uncleHash" : "0x1dcc4de8dec75d7aab85b567b6ccd41ad312451b948a7413f0a142fd40d49347"
                },
                "rlp" : "0xf90264f901f9a0bcc1027e9a21ae9b27ea8ba4dabae51d359eb4736cf48fef8d12a0ed7031ec6da01dcc4de8dec75d7aab85b567b6ccd41ad312451b948a7413f0a142fd40d49347942adc25665018aa1fe0e6bc666dac8fc2697ff9baa09b41fa1f025e36a5025c4b0bf29d9997ac5ecfe5ea7f37e7d5f44a8da500bc71a098fa170d192a6eff341cc8b8392cf1c8256997c28117ae4c20481271ffe00b0ba0e41fbcbf5cd493ec24d1a2e83a107a0055e85edc4c18516397b3e010456b70bab901000000000000000000000000000000000000000000000000000000000000000000000000000000000000000000000000000000000000000000000000000000000000000000000000000000000000000000000000000000000000000000000000000000000000000000000000000000000000000000000000000000000000000000000000000000000000000000000000000000000000000000000000000000000000000000000000000000000000000000000000000000000000000000000000000000000000000000000000000000000000000000000000000000000000000000000000000000000000000000000000000000000000000000000000000000000083020000018405f5e10083012fdf8203e880a09f3dc6ff17d3604c2a8fc57670b42ac2ee1607302c7c257cc687ff764a34931188885aca24702a95ecf865f8638001830592a894095e7baea6a6c7c4c2dfeb977efac326af552d87830186a0801ca082cfe09a590896d5e895674505c40f1701ab05245f9f568bf506b9558e61c67fa04a98fee75f6fbf3fa4b3e104a9bb7283a6e076670719bac8af481531151b7b3cc0",
                "transactions" : [
                    {
                        "data" : "",
                        "gasLimit" : "0x0592a8",
                        "gasPrice" : "0x01",
                        "nonce" : "0x00",
                        "r" : "0x82cfe09a590896d5e895674505c40f1701ab05245f9f568bf506b9558e61c67f",
                        "s" : "0x4a98fee75f6fbf3fa4b3e104a9bb7283a6e076670719bac8af481531151b7b3c",
                        "to" : "0x095e7baea6a6c7c4c2dfeb977efac326af552d87",
                        "v" : "0x1c",
                        "value" : "0x0186a0"
                    }
                ],
                "uncleHeaders" : [
                ]
            }
        ],
        "genesisBlockHeader" : {
            "bloom" : "0x00000000000000000000000000000000000000000000000000000000000000000000000000000000000000000000000000000000000000000000000000000000000000000000000000000000000000000000000000000000000000000000000000000000000000000000000000000000000000000000000000000000000000000000000000000000000000000000000000000000000000000000000000000000000000000000000000000000000000000000000000000000000000000000000000000000000000000000000000000000000000000000000000000000000000000000000000000000000000000000000000000000000000000000000000000000",
            "coinbase" : "0x2adc25665018aa1fe0e6bc666dac8fc2697ff9ba",
            "difficulty" : "0x020000",
            "extraData" : "0x42",
            "gasLimit" : "0x05f5e100",
            "gasUsed" : "0x00",
            "hash" : "0xbcc1027e9a21ae9b27ea8ba4dabae51d359eb4736cf48fef8d12a0ed7031ec6d",
            "mixHash" : "0x56e81f171bcc55a6ff8345e692c0f86e5b48e01b996cadc001622fb5e363b421",
            "nonce" : "0x0102030405060708",
            "number" : "0x00",
            "parentHash" : "0x0000000000000000000000000000000000000000000000000000000000000000",
            "receiptTrie" : "0x56e81f171bcc55a6ff8345e692c0f86e5b48e01b996cadc001622fb5e363b421",
            "stateRoot" : "0xddf6eb4597dfbcc2ffb1532fc992bf9eafad19c995de756ce44b3be502069bc6",
            "timestamp" : "0x03b6",
            "transactionsTrie" : "0x56e81f171bcc55a6ff8345e692c0f86e5b48e01b996cadc001622fb5e363b421",
            "uncleHash" : "0x1dcc4de8dec75d7aab85b567b6ccd41ad312451b948a7413f0a142fd40d49347"
        },
        "genesisRLP" : "0xf901fbf901f6a00000000000000000000000000000000000000000000000000000000000000000a01dcc4de8dec75d7aab85b567b6ccd41ad312451b948a7413f0a142fd40d49347942adc25665018aa1fe0e6bc666dac8fc2697ff9baa0ddf6eb4597dfbcc2ffb1532fc992bf9eafad19c995de756ce44b3be502069bc6a056e81f171bcc55a6ff8345e692c0f86e5b48e01b996cadc001622fb5e363b421a056e81f171bcc55a6ff8345e692c0f86e5b48e01b996cadc001622fb5e363b421b901000000000000000000000000000000000000000000000000000000000000000000000000000000000000000000000000000000000000000000000000000000000000000000000000000000000000000000000000000000000000000000000000000000000000000000000000000000000000000000000000000000000000000000000000000000000000000000000000000000000000000000000000000000000000000000000000000000000000000000000000000000000000000000000000000000000000000000000000000000000000000000000000000000000000000000000000000000000000000000000000000000000000000000000000000000000083020000808405f5e100808203b642a056e81f171bcc55a6ff8345e692c0f86e5b48e01b996cadc001622fb5e363b421880102030405060708c0c0",
        "lastblockhash" : "0x4861940de2cbb31cd3235e48deb8895685cbda53c18b048e8848084d9c55cad6",
        "network" : "Homestead",
        "postState" : {
            "0x0000000000000000000000000000000000000004" : {
                "balance" : "0x13",
                "code" : "",
                "nonce" : "0x00",
                "storage" : {
                }
            },
            "0x095e7baea6a6c7c4c2dfeb977efac326af552d87" : {
                "balance" : "0x0bed488d",
                "code" : "0x60206000600060006013600462030d40f1600255600051600055",
                "nonce" : "0x00",
                "storage" : {
                    "0x02" : "0x01"
                }
            },
            "0x2adc25665018aa1fe0e6bc666dac8fc2697ff9ba" : {
                "balance" : "0x4563918244f52fdf",
                "code" : "",
                "nonce" : "0x00",
                "storage" : {
                }
            },
            "0xa94f5374fce5edbc8e2a8697c15331677e6ebf0b" : {
                "balance" : "0x0de0b6b3a7614981",
                "code" : "",
                "nonce" : "0x01",
                "storage" : {
                }
            }
        },
        "pre" : {
            "0x095e7baea6a6c7c4c2dfeb977efac326af552d87" : {
                "balance" : "0x0bebc200",
                "code" : "0x60206000600060006013600462030d40f1600255600051600055",
                "nonce" : "0x00",
                "storage" : {
                }
            },
            "0xa94f5374fce5edbc8e2a8697c15331677e6ebf0b" : {
                "balance" : "0x0de0b6b3a7640000",
                "code" : "",
                "nonce" : "0x00",
                "storage" : {
                }
            }
        }
    }
}