{
    "CALLCODESha256_4_d0g0v0_Byzantium" : {
        "_info" : {
            "comment" : "",
            "filledwith" : "cpp-1.3.0+commit.4e101574.Linux.g++",
            "lllcversion" : "Version: 0.4.18-develop.2017.10.11+commit.81f9f86c.Linux.g++",
            "source" : "src/BlockchainTestsFiller/GeneralStateTests/stPreCompiledContracts2/CALLCODESha256_4_d0g0v0Filler.json",
            "sourceHash" : "b6bc0eeccb62321ddedd6f6783d0d1e83f11a5d9d79599d3939985ba55445241"
        },
        "blocks" : [
            {
                "blockHeader" : {
                    "bloom" : "0x00000000000000000000000000000000000000000000000000000000000000000000000000000000000000000000000000000000000000000000000000000000000000000000000000000000000000000000000000000000000000000000000000000000000000000000000000000000000000000000000000000000000000000000000000000000000000000000000000000000000000000000000000000000000000000000000000000000000000000000000000000000000000000000000000000000000000000000000000000000000000000000000000000000000000000000000000000000000000000000000000000000000000000000000000000000",
                    "coinbase" : "0x2adc25665018aa1fe0e6bc666dac8fc2697ff9ba",
                    "difficulty" : "0x020000",
                    "extraData" : "",
                    "gasLimit" : "0x989680",
                    "gasUsed" : "0xf179",
                    "hash" : "0x50e7de0e72a584d8863b74b3951b57f494ea2629140b2b40eefa6467ccf3afb2",
                    "mixHash" : "0x1d2a39931b45f190cad209ef80e2cbb5a5c0febe51732c7a3c1df6c162520726",
                    "nonce" : "0x62b96300b0f4aca8",
                    "number" : "0x01",
                    "parentHash" : "0x3100e213ef72d7fa68f6b7cc7c84fa23dfe3e0e0ebac59e5ce1266047b9f2f2e",
                    "receiptTrie" : "0x4fa2a763ccfd26598c5f12740346f13d07d54016f4293314d4e4480c9a32ccbf",
                    "stateRoot" : "0xabcb64b71fdaa466ece34d8f1731b78b7a45592c2d2f05f44b3fd06257b0ee32",
                    "timestamp" : "0x03e8",
                    "transactionsTrie" : "0x98fa170d192a6eff341cc8b8392cf1c8256997c28117ae4c20481271ffe00b0b",
                    "uncleHash" : "0x1dcc4de8dec75d7aab85b567b6ccd41ad312451b948a7413f0a142fd40d49347"
                },
                "rlp" : "0xf90262f901f7a03100e213ef72d7fa68f6b7cc7c84fa23dfe3e0e0ebac59e5ce1266047b9f2f2ea01dcc4de8dec75d7aab85b567b6ccd41ad312451b948a7413f0a142fd40d49347942adc25665018aa1fe0e6bc666dac8fc2697ff9baa0abcb64b71fdaa466ece34d8f1731b78b7a45592c2d2f05f44b3fd06257b0ee32a098fa170d192a6eff341cc8b8392cf1c8256997c28117ae4c20481271ffe00b0ba04fa2a763ccfd26598c5f12740346f13d07d54016f4293314d4e4480c9a32ccbfb901000000000000000000000000000000000000000000000000000000000000000000000000000000000000000000000000000000000000000000000000000000000000000000000000000000000000000000000000000000000000000000000000000000000000000000000000000000000000000000000000000000000000000000000000000000000000000000000000000000000000000000000000000000000000000000000000000000000000000000000000000000000000000000000000000000000000000000000000000000000000000000000000000000000000000000000000000000000000000000000000000000000000000000000000000000000083020000018398968082f1798203e880a01d2a39931b45f190cad209ef80e2cbb5a5c0febe51732c7a3c1df6c1625207268862b96300b0f4aca8f865f8638001830592a894095e7baea6a6c7c4c2dfeb977efac326af552d87830186a0801ca082cfe09a590896d5e895674505c40f1701ab05245f9f568bf506b9558e61c67fa04a98fee75f6fbf3fa4b3e104a9bb7283a6e076670719bac8af481531151b7b3cc0",
                "transactions" : [
                    {
                        "data" : "",
                        "gasLimit" : "0x0592a8",
                        "gasPrice" : "0x01",
                        "nonce" : "0x00",
                        "r" : "0x82cfe09a590896d5e895674505c40f1701ab05245f9f568bf506b9558e61c67f",
                        "s" : "0x4a98fee75f6fbf3fa4b3e104a9bb7283a6e076670719bac8af481531151b7b3c",
                        "to" : "0x095e7baea6a6c7c4c2dfeb977efac326af552d87",
                        "v" : "0x1c",
                        "value" : "0x0186a0"
                    }
                ],
                "uncleHeaders" : [
                ]
            }
        ],
        "genesisBlockHeader" : {
            "bloom" : "0x00000000000000000000000000000000000000000000000000000000000000000000000000000000000000000000000000000000000000000000000000000000000000000000000000000000000000000000000000000000000000000000000000000000000000000000000000000000000000000000000000000000000000000000000000000000000000000000000000000000000000000000000000000000000000000000000000000000000000000000000000000000000000000000000000000000000000000000000000000000000000000000000000000000000000000000000000000000000000000000000000000000000000000000000000000000",
            "coinbase" : "0x2adc25665018aa1fe0e6bc666dac8fc2697ff9ba",
            "difficulty" : "0x020000",
            "extraData" : "0x42",
            "gasLimit" : "0x989680",
            "gasUsed" : "0x00",
            "hash" : "0x3100e213ef72d7fa68f6b7cc7c84fa23dfe3e0e0ebac59e5ce1266047b9f2f2e",
            "mixHash" : "0x56e81f171bcc55a6ff8345e692c0f86e5b48e01b996cadc001622fb5e363b421",
            "nonce" : "0x0102030405060708",
            "number" : "0x00",
            "parentHash" : "0x0000000000000000000000000000000000000000000000000000000000000000",
            "receiptTrie" : "0x56e81f171bcc55a6ff8345e692c0f86e5b48e01b996cadc001622fb5e363b421",
            "stateRoot" : "0x86dbdf030c5b24ac5e311932c78fd9ee817bb4355d95214b005be069b19f2c5f",
            "timestamp" : "0x03b6",
            "transactionsTrie" : "0x56e81f171bcc55a6ff8345e692c0f86e5b48e01b996cadc001622fb5e363b421",
            "uncleHash" : "0x1dcc4de8dec75d7aab85b567b6ccd41ad312451b948a7413f0a142fd40d49347"
        },
        "genesisRLP" : "0xf901faf901f5a00000000000000000000000000000000000000000000000000000000000000000a01dcc4de8dec75d7aab85b567b6ccd41ad312451b948a7413f0a142fd40d49347942adc25665018aa1fe0e6bc666dac8fc2697ff9baa086dbdf030c5b24ac5e311932c78fd9ee817bb4355d95214b005be069b19f2c5fa056e81f171bcc55a6ff8345e692c0f86e5b48e01b996cadc001622fb5e363b421a056e81f171bcc55a6ff8345e692c0f86e5b48e01b996cadc001622fb5e363b421b9010000000000000000000000000000000000000000000000000000000000000000000000000000000000000000000000000000000000000000000000000000000000000000000000000000000000000000000000000000000000000000000000000000000000000000000000000000000000000000000000000000000000000000000000000000000000000000000000000000000000000000000000000000000000000000000000000000000000000000000000000000000000000000000000000000000000000000000000000000000000000000000000000000000000000000000000000000000000000000000000000000000000000000000000000000000000830200008083989680808203b642a056e81f171bcc55a6ff8345e692c0f86e5b48e01b996cadc001622fb5e363b421880102030405060708c0c0",
        "lastblockhash" : "0x50e7de0e72a584d8863b74b3951b57f494ea2629140b2b40eefa6467ccf3afb2",
        "network" : "Byzantium",
        "postState" : {
            "0x095e7baea6a6c7c4c2dfeb977efac326af552d87" : {
                "balance" : "0x0132b3a0",
                "code" : "0x7fffffffffffffffffffffffffffffffffffffffffffffffffffffffffffffffff6000526020600060206000600060026064f2600255600051600055",
                "nonce" : "0x00",
                "storage" : {
                    "0x00" : "0xaf9613760f72635fbdb44a5a0a63c39f12af30f950a6ee5c971be188e89c4051",
                    "0x02" : "0x01"
                }
            },
            "0x2adc25665018aa1fe0e6bc666dac8fc2697ff9ba" : {
                "balance" : "0x29a2241af62cf179",
                "code" : "",
                "nonce" : "0x00",
                "storage" : {
                }
            },
            "0xa94f5374fce5edbc8e2a8697c15331677e6ebf0b" : {
                "balance" : "0x0de0b6b3a76187e7",
                "code" : "",
                "nonce" : "0x01",
                "storage" : {
                }
            }
        },
        "pre" : {
            "0x095e7baea6a6c7c4c2dfeb977efac326af552d87" : {
                "balance" : "0x01312d00",
                "code" : "0x7fffffffffffffffffffffffffffffffffffffffffffffffffffffffffffffffff6000526020600060206000600060026064f2600255600051600055",
                "nonce" : "0x00",
                "storage" : {
                }
            },
            "0xa94f5374fce5edbc8e2a8697c15331677e6ebf0b" : {
                "balance" : "0x0de0b6b3a7640000",
                "code" : "",
                "nonce" : "0x00",
                "storage" : {
                }
            }
        }
    },
    "CALLCODESha256_4_d0g0v0_EIP150" : {
        "_info" : {
            "comment" : "",
            "filledwith" : "cpp-1.3.0+commit.4e101574.Linux.g++",
            "lllcversion" : "Version: 0.4.18-develop.2017.10.11+commit.81f9f86c.Linux.g++",
            "source" : "src/BlockchainTestsFiller/GeneralStateTests/stPreCompiledContracts2/CALLCODESha256_4_d0g0v0Filler.json",
            "sourceHash" : "b6bc0eeccb62321ddedd6f6783d0d1e83f11a5d9d79599d3939985ba55445241"
        },
        "blocks" : [
            {
                "blockHeader" : {
                    "bloom" : "0x00000000000000000000000000000000000000000000000000000000000000000000000000000000000000000000000000000000000000000000000000000000000000000000000000000000000000000000000000000000000000000000000000000000000000000000000000000000000000000000000000000000000000000000000000000000000000000000000000000000000000000000000000000000000000000000000000000000000000000000000000000000000000000000000000000000000000000000000000000000000000000000000000000000000000000000000000000000000000000000000000000000000000000000000000000000",
                    "coinbase" : "0x2adc25665018aa1fe0e6bc666dac8fc2697ff9ba",
                    "difficulty" : "0x020000",
                    "extraData" : "",
                    "gasLimit" : "0x989680",
                    "gasUsed" : "0xf179",
                    "hash" : "0x015e60c76369adad97089a786ac0a8013d3588b1235b044c91dda6f34ff892d9",
                    "mixHash" : "0x8a9397eec5e6e44d8de45901d4c4b19c2ef39da6cc0758e5821748020d94c262",
                    "nonce" : "0xfeac9180a3238e00",
                    "number" : "0x01",
                    "parentHash" : "0x3100e213ef72d7fa68f6b7cc7c84fa23dfe3e0e0ebac59e5ce1266047b9f2f2e",
                    "receiptTrie" : "0x73a933ca87d59813eae3703a42ebab60a1cd8589f8d5e2b4038acc8aa624f2a2",
                    "stateRoot" : "0x9c3e3d7fd6f88b0f28fcd3eb171247299e052a5512e559ca65c446864e6d738c",
                    "timestamp" : "0x03e8",
                    "transactionsTrie" : "0x98fa170d192a6eff341cc8b8392cf1c8256997c28117ae4c20481271ffe00b0b",
                    "uncleHash" : "0x1dcc4de8dec75d7aab85b567b6ccd41ad312451b948a7413f0a142fd40d49347"
                },
                "rlp" : "0xf90262f901f7a03100e213ef72d7fa68f6b7cc7c84fa23dfe3e0e0ebac59e5ce1266047b9f2f2ea01dcc4de8dec75d7aab85b567b6ccd41ad312451b948a7413f0a142fd40d49347942adc25665018aa1fe0e6bc666dac8fc2697ff9baa09c3e3d7fd6f88b0f28fcd3eb171247299e052a5512e559ca65c446864e6d738ca098fa170d192a6eff341cc8b8392cf1c8256997c28117ae4c20481271ffe00b0ba073a933ca87d59813eae3703a42ebab60a1cd8589f8d5e2b4038acc8aa624f2a2b901000000000000000000000000000000000000000000000000000000000000000000000000000000000000000000000000000000000000000000000000000000000000000000000000000000000000000000000000000000000000000000000000000000000000000000000000000000000000000000000000000000000000000000000000000000000000000000000000000000000000000000000000000000000000000000000000000000000000000000000000000000000000000000000000000000000000000000000000000000000000000000000000000000000000000000000000000000000000000000000000000000000000000000000000000000000083020000018398968082f1798203e880a08a9397eec5e6e44d8de45901d4c4b19c2ef39da6cc0758e5821748020d94c26288feac9180a3238e00f865f8638001830592a894095e7baea6a6c7c4c2dfeb977efac326af552d87830186a0801ca082cfe09a590896d5e895674505c40f1701ab05245f9f568bf506b9558e61c67fa04a98fee75f6fbf3fa4b3e104a9bb7283a6e076670719bac8af481531151b7b3cc0",
                "transactions" : [
                    {
                        "data" : "",
                        "gasLimit" : "0x0592a8",
                        "gasPrice" : "0x01",
                        "nonce" : "0x00",
                        "r" : "0x82cfe09a590896d5e895674505c40f1701ab05245f9f568bf506b9558e61c67f",
                        "s" : "0x4a98fee75f6fbf3fa4b3e104a9bb7283a6e076670719bac8af481531151b7b3c",
                        "to" : "0x095e7baea6a6c7c4c2dfeb977efac326af552d87",
                        "v" : "0x1c",
                        "value" : "0x0186a0"
                    }
                ],
                "uncleHeaders" : [
                ]
            }
        ],
        "genesisBlockHeader" : {
            "bloom" : "0x00000000000000000000000000000000000000000000000000000000000000000000000000000000000000000000000000000000000000000000000000000000000000000000000000000000000000000000000000000000000000000000000000000000000000000000000000000000000000000000000000000000000000000000000000000000000000000000000000000000000000000000000000000000000000000000000000000000000000000000000000000000000000000000000000000000000000000000000000000000000000000000000000000000000000000000000000000000000000000000000000000000000000000000000000000000",
            "coinbase" : "0x2adc25665018aa1fe0e6bc666dac8fc2697ff9ba",
            "difficulty" : "0x020000",
            "extraData" : "0x42",
            "gasLimit" : "0x989680",
            "gasUsed" : "0x00",
            "hash" : "0x3100e213ef72d7fa68f6b7cc7c84fa23dfe3e0e0ebac59e5ce1266047b9f2f2e",
            "mixHash" : "0x56e81f171bcc55a6ff8345e692c0f86e5b48e01b996cadc001622fb5e363b421",
            "nonce" : "0x0102030405060708",
            "number" : "0x00",
            "parentHash" : "0x0000000000000000000000000000000000000000000000000000000000000000",
            "receiptTrie" : "0x56e81f171bcc55a6ff8345e692c0f86e5b48e01b996cadc001622fb5e363b421",
            "stateRoot" : "0x86dbdf030c5b24ac5e311932c78fd9ee817bb4355d95214b005be069b19f2c5f",
            "timestamp" : "0x03b6",
            "transactionsTrie" : "0x56e81f171bcc55a6ff8345e692c0f86e5b48e01b996cadc001622fb5e363b421",
            "uncleHash" : "0x1dcc4de8dec75d7aab85b567b6ccd41ad312451b948a7413f0a142fd40d49347"
        },
        "genesisRLP" : "0xf901faf901f5a00000000000000000000000000000000000000000000000000000000000000000a01dcc4de8dec75d7aab85b567b6ccd41ad312451b948a7413f0a142fd40d49347942adc25665018aa1fe0e6bc666dac8fc2697ff9baa086dbdf030c5b24ac5e311932c78fd9ee817bb4355d95214b005be069b19f2c5fa056e81f171bcc55a6ff8345e692c0f86e5b48e01b996cadc001622fb5e363b421a056e81f171bcc55a6ff8345e692c0f86e5b48e01b996cadc001622fb5e363b421b9010000000000000000000000000000000000000000000000000000000000000000000000000000000000000000000000000000000000000000000000000000000000000000000000000000000000000000000000000000000000000000000000000000000000000000000000000000000000000000000000000000000000000000000000000000000000000000000000000000000000000000000000000000000000000000000000000000000000000000000000000000000000000000000000000000000000000000000000000000000000000000000000000000000000000000000000000000000000000000000000000000000000000000000000000000000000830200008083989680808203b642a056e81f171bcc55a6ff8345e692c0f86e5b48e01b996cadc001622fb5e363b421880102030405060708c0c0",
        "lastblockhash" : "0x015e60c76369adad97089a786ac0a8013d3588b1235b044c91dda6f34ff892d9",
        "network" : "EIP150",
        "postState" : {
            "0x095e7baea6a6c7c4c2dfeb977efac326af552d87" : {
                "balance" : "0x0132b3a0",
                "code" : "0x7fffffffffffffffffffffffffffffffffffffffffffffffffffffffffffffffff6000526020600060206000600060026064f2600255600051600055",
                "nonce" : "0x00",
                "storage" : {
                    "0x00" : "0xaf9613760f72635fbdb44a5a0a63c39f12af30f950a6ee5c971be188e89c4051",
                    "0x02" : "0x01"
                }
            },
            "0x2adc25665018aa1fe0e6bc666dac8fc2697ff9ba" : {
                "balance" : "0x4563918244f4f179",
                "code" : "",
                "nonce" : "0x00",
                "storage" : {
                }
            },
            "0xa94f5374fce5edbc8e2a8697c15331677e6ebf0b" : {
                "balance" : "0x0de0b6b3a76187e7",
                "code" : "",
                "nonce" : "0x01",
                "storage" : {
                }
            }
        },
        "pre" : {
            "0x095e7baea6a6c7c4c2dfeb977efac326af552d87" : {
                "balance" : "0x01312d00",
                "code" : "0x7fffffffffffffffffffffffffffffffffffffffffffffffffffffffffffffffff6000526020600060206000600060026064f2600255600051600055",
                "nonce" : "0x00",
                "storage" : {
                }
            },
            "0xa94f5374fce5edbc8e2a8697c15331677e6ebf0b" : {
                "balance" : "0x0de0b6b3a7640000",
                "code" : "",
                "nonce" : "0x00",
                "storage" : {
                }
            }
        }
    },
    "CALLCODESha256_4_d0g0v0_EIP158" : {
        "_info" : {
            "comment" : "",
            "filledwith" : "cpp-1.3.0+commit.4e101574.Linux.g++",
            "lllcversion" : "Version: 0.4.18-develop.2017.10.11+commit.81f9f86c.Linux.g++",
            "source" : "src/BlockchainTestsFiller/GeneralStateTests/stPreCompiledContracts2/CALLCODESha256_4_d0g0v0Filler.json",
            "sourceHash" : "b6bc0eeccb62321ddedd6f6783d0d1e83f11a5d9d79599d3939985ba55445241"
        },
        "blocks" : [
            {
                "blockHeader" : {
                    "bloom" : "0x00000000000000000000000000000000000000000000000000000000000000000000000000000000000000000000000000000000000000000000000000000000000000000000000000000000000000000000000000000000000000000000000000000000000000000000000000000000000000000000000000000000000000000000000000000000000000000000000000000000000000000000000000000000000000000000000000000000000000000000000000000000000000000000000000000000000000000000000000000000000000000000000000000000000000000000000000000000000000000000000000000000000000000000000000000000",
                    "coinbase" : "0x2adc25665018aa1fe0e6bc666dac8fc2697ff9ba",
                    "difficulty" : "0x020000",
                    "extraData" : "",
                    "gasLimit" : "0x989680",
                    "gasUsed" : "0xf179",
                    "hash" : "0x2ebb73b59a4c122d7e8fbc7b71612ed9d7de03e20af1f9866096abc8c0b1045e",
                    "mixHash" : "0xd11051428680f4eaf60f248524faa5ef1aa17a6a24501616e3aa13ca06872eff",
                    "nonce" : "0x08b856de91ae76ad",
                    "number" : "0x01",
                    "parentHash" : "0x3100e213ef72d7fa68f6b7cc7c84fa23dfe3e0e0ebac59e5ce1266047b9f2f2e",
                    "receiptTrie" : "0x73a933ca87d59813eae3703a42ebab60a1cd8589f8d5e2b4038acc8aa624f2a2",
                    "stateRoot" : "0x9c3e3d7fd6f88b0f28fcd3eb171247299e052a5512e559ca65c446864e6d738c",
                    "timestamp" : "0x03e8",
                    "transactionsTrie" : "0x98fa170d192a6eff341cc8b8392cf1c8256997c28117ae4c20481271ffe00b0b",
                    "uncleHash" : "0x1dcc4de8dec75d7aab85b567b6ccd41ad312451b948a7413f0a142fd40d49347"
                },
                "rlp" : "0xf90262f901f7a03100e213ef72d7fa68f6b7cc7c84fa23dfe3e0e0ebac59e5ce1266047b9f2f2ea01dcc4de8dec75d7aab85b567b6ccd41ad312451b948a7413f0a142fd40d49347942adc25665018aa1fe0e6bc666dac8fc2697ff9baa09c3e3d7fd6f88b0f28fcd3eb171247299e052a5512e559ca65c446864e6d738ca098fa170d192a6eff341cc8b8392cf1c8256997c28117ae4c20481271ffe00b0ba073a933ca87d59813eae3703a42ebab60a1cd8589f8d5e2b4038acc8aa624f2a2b901000000000000000000000000000000000000000000000000000000000000000000000000000000000000000000000000000000000000000000000000000000000000000000000000000000000000000000000000000000000000000000000000000000000000000000000000000000000000000000000000000000000000000000000000000000000000000000000000000000000000000000000000000000000000000000000000000000000000000000000000000000000000000000000000000000000000000000000000000000000000000000000000000000000000000000000000000000000000000000000000000000000000000000000000000000000083020000018398968082f1798203e880a0d11051428680f4eaf60f248524faa5ef1aa17a6a24501616e3aa13ca06872eff8808b856de91ae76adf865f8638001830592a894095e7baea6a6c7c4c2dfeb977efac326af552d87830186a0801ca082cfe09a590896d5e895674505c40f1701ab05245f9f568bf506b9558e61c67fa04a98fee75f6fbf3fa4b3e104a9bb7283a6e076670719bac8af481531151b7b3cc0",
                "transactions" : [
                    {
                        "data" : "",
                        "gasLimit" : "0x0592a8",
                        "gasPrice" : "0x01",
                        "nonce" : "0x00",
                        "r" : "0x82cfe09a590896d5e895674505c40f1701ab05245f9f568bf506b9558e61c67f",
                        "s" : "0x4a98fee75f6fbf3fa4b3e104a9bb7283a6e076670719bac8af481531151b7b3c",
                        "to" : "0x095e7baea6a6c7c4c2dfeb977efac326af552d87",
                        "v" : "0x1c",
                        "value" : "0x0186a0"
                    }
                ],
                "uncleHeaders" : [
                ]
            }
        ],
        "genesisBlockHeader" : {
            "bloom" : "0x00000000000000000000000000000000000000000000000000000000000000000000000000000000000000000000000000000000000000000000000000000000000000000000000000000000000000000000000000000000000000000000000000000000000000000000000000000000000000000000000000000000000000000000000000000000000000000000000000000000000000000000000000000000000000000000000000000000000000000000000000000000000000000000000000000000000000000000000000000000000000000000000000000000000000000000000000000000000000000000000000000000000000000000000000000000",
            "coinbase" : "0x2adc25665018aa1fe0e6bc666dac8fc2697ff9ba",
            "difficulty" : "0x020000",
            "extraData" : "0x42",
            "gasLimit" : "0x989680",
            "gasUsed" : "0x00",
            "hash" : "0x3100e213ef72d7fa68f6b7cc7c84fa23dfe3e0e0ebac59e5ce1266047b9f2f2e",
            "mixHash" : "0x56e81f171bcc55a6ff8345e692c0f86e5b48e01b996cadc001622fb5e363b421",
            "nonce" : "0x0102030405060708",
            "number" : "0x00",
            "parentHash" : "0x0000000000000000000000000000000000000000000000000000000000000000",
            "receiptTrie" : "0x56e81f171bcc55a6ff8345e692c0f86e5b48e01b996cadc001622fb5e363b421",
            "stateRoot" : "0x86dbdf030c5b24ac5e311932c78fd9ee817bb4355d95214b005be069b19f2c5f",
            "timestamp" : "0x03b6",
            "transactionsTrie" : "0x56e81f171bcc55a6ff8345e692c0f86e5b48e01b996cadc001622fb5e363b421",
            "uncleHash" : "0x1dcc4de8dec75d7aab85b567b6ccd41ad312451b948a7413f0a142fd40d49347"
        },
        "genesisRLP" : "0xf901faf901f5a00000000000000000000000000000000000000000000000000000000000000000a01dcc4de8dec75d7aab85b567b6ccd41ad312451b948a7413f0a142fd40d49347942adc25665018aa1fe0e6bc666dac8fc2697ff9baa086dbdf030c5b24ac5e311932c78fd9ee817bb4355d95214b005be069b19f2c5fa056e81f171bcc55a6ff8345e692c0f86e5b48e01b996cadc001622fb5e363b421a056e81f171bcc55a6ff8345e692c0f86e5b48e01b996cadc001622fb5e363b421b9010000000000000000000000000000000000000000000000000000000000000000000000000000000000000000000000000000000000000000000000000000000000000000000000000000000000000000000000000000000000000000000000000000000000000000000000000000000000000000000000000000000000000000000000000000000000000000000000000000000000000000000000000000000000000000000000000000000000000000000000000000000000000000000000000000000000000000000000000000000000000000000000000000000000000000000000000000000000000000000000000000000000000000000000000000000000830200008083989680808203b642a056e81f171bcc55a6ff8345e692c0f86e5b48e01b996cadc001622fb5e363b421880102030405060708c0c0",
        "lastblockhash" : "0x2ebb73b59a4c122d7e8fbc7b71612ed9d7de03e20af1f9866096abc8c0b1045e",
        "network" : "EIP158",
        "postState" : {
            "0x095e7baea6a6c7c4c2dfeb977efac326af552d87" : {
                "balance" : "0x0132b3a0",
                "code" : "0x7fffffffffffffffffffffffffffffffffffffffffffffffffffffffffffffffff6000526020600060206000600060026064f2600255600051600055",
                "nonce" : "0x00",
                "storage" : {
                    "0x00" : "0xaf9613760f72635fbdb44a5a0a63c39f12af30f950a6ee5c971be188e89c4051",
                    "0x02" : "0x01"
                }
            },
            "0x2adc25665018aa1fe0e6bc666dac8fc2697ff9ba" : {
                "balance" : "0x4563918244f4f179",
                "code" : "",
                "nonce" : "0x00",
                "storage" : {
                }
            },
            "0xa94f5374fce5edbc8e2a8697c15331677e6ebf0b" : {
                "balance" : "0x0de0b6b3a76187e7",
                "code" : "",
                "nonce" : "0x01",
                "storage" : {
                }
            }
        },
        "pre" : {
            "0x095e7baea6a6c7c4c2dfeb977efac326af552d87" : {
                "balance" : "0x01312d00",
                "code" : "0x7fffffffffffffffffffffffffffffffffffffffffffffffffffffffffffffffff6000526020600060206000600060026064f2600255600051600055",
                "nonce" : "0x00",
                "storage" : {
                }
            },
            "0xa94f5374fce5edbc8e2a8697c15331677e6ebf0b" : {
                "balance" : "0x0de0b6b3a7640000",
                "code" : "",
                "nonce" : "0x00",
                "storage" : {
                }
            }
        }
    },
    "CALLCODESha256_4_d0g0v0_Frontier" : {
        "_info" : {
            "comment" : "",
            "filledwith" : "cpp-1.3.0+commit.4e101574.Linux.g++",
            "lllcversion" : "Version: 0.4.18-develop.2017.10.11+commit.81f9f86c.Linux.g++",
            "source" : "src/BlockchainTestsFiller/GeneralStateTests/stPreCompiledContracts2/CALLCODESha256_4_d0g0v0Filler.json",
            "sourceHash" : "b6bc0eeccb62321ddedd6f6783d0d1e83f11a5d9d79599d3939985ba55445241"
        },
        "blocks" : [
            {
                "blockHeader" : {
                    "bloom" : "0x00000000000000000000000000000000000000000000000000000000000000000000000000000000000000000000000000000000000000000000000000000000000000000000000000000000000000000000000000000000000000000000000000000000000000000000000000000000000000000000000000000000000000000000000000000000000000000000000000000000000000000000000000000000000000000000000000000000000000000000000000000000000000000000000000000000000000000000000000000000000000000000000000000000000000000000000000000000000000000000000000000000000000000000000000000000",
                    "coinbase" : "0x2adc25665018aa1fe0e6bc666dac8fc2697ff9ba",
                    "difficulty" : "0x020000",
                    "extraData" : "",
                    "gasLimit" : "0x989680",
                    "gasUsed" : "0xeee5",
                    "hash" : "0x14ac5d23ed06a44185369d2c6ed6484ed739a815730d870b016303b96327d05e",
                    "mixHash" : "0x51cb1567443846c23640fe9db0068a6d0999c3f32164fb38f0f91f62a6fc91cf",
                    "nonce" : "0xb878a827440d8ee5",
                    "number" : "0x01",
                    "parentHash" : "0x3100e213ef72d7fa68f6b7cc7c84fa23dfe3e0e0ebac59e5ce1266047b9f2f2e",
                    "receiptTrie" : "0xe4146223ef65db4336241e7b0569f243a37c32943b9f7ea59cdf487ccc32afd5",
                    "stateRoot" : "0x8bdd3e4d3cec7bbc433dc562d6b71751f956503387ef2eb6804879b0ba289075",
                    "timestamp" : "0x03e8",
                    "transactionsTrie" : "0x98fa170d192a6eff341cc8b8392cf1c8256997c28117ae4c20481271ffe00b0b",
                    "uncleHash" : "0x1dcc4de8dec75d7aab85b567b6ccd41ad312451b948a7413f0a142fd40d49347"
                },
                "rlp" : "0xf90262f901f7a03100e213ef72d7fa68f6b7cc7c84fa23dfe3e0e0ebac59e5ce1266047b9f2f2ea01dcc4de8dec75d7aab85b567b6ccd41ad312451b948a7413f0a142fd40d49347942adc25665018aa1fe0e6bc666dac8fc2697ff9baa08bdd3e4d3cec7bbc433dc562d6b71751f956503387ef2eb6804879b0ba289075a098fa170d192a6eff341cc8b8392cf1c8256997c28117ae4c20481271ffe00b0ba0e4146223ef65db4336241e7b0569f243a37c32943b9f7ea59cdf487ccc32afd5b901000000000000000000000000000000000000000000000000000000000000000000000000000000000000000000000000000000000000000000000000000000000000000000000000000000000000000000000000000000000000000000000000000000000000000000000000000000000000000000000000000000000000000000000000000000000000000000000000000000000000000000000000000000000000000000000000000000000000000000000000000000000000000000000000000000000000000000000000000000000000000000000000000000000000000000000000000000000000000000000000000000000000000000000000000000000083020000018398968082eee58203e880a051cb1567443846c23640fe9db0068a6d0999c3f32164fb38f0f91f62a6fc91cf88b878a827440d8ee5f865f8638001830592a894095e7baea6a6c7c4c2dfeb977efac326af552d87830186a0801ca082cfe09a590896d5e895674505c40f1701ab05245f9f568bf506b9558e61c67fa04a98fee75f6fbf3fa4b3e104a9bb7283a6e076670719bac8af481531151b7b3cc0",
                "transactions" : [
                    {
                        "data" : "",
                        "gasLimit" : "0x0592a8",
                        "gasPrice" : "0x01",
                        "nonce" : "0x00",
                        "r" : "0x82cfe09a590896d5e895674505c40f1701ab05245f9f568bf506b9558e61c67f",
                        "s" : "0x4a98fee75f6fbf3fa4b3e104a9bb7283a6e076670719bac8af481531151b7b3c",
                        "to" : "0x095e7baea6a6c7c4c2dfeb977efac326af552d87",
                        "v" : "0x1c",
                        "value" : "0x0186a0"
                    }
                ],
                "uncleHeaders" : [
                ]
            }
        ],
        "genesisBlockHeader" : {
            "bloom" : "0x00000000000000000000000000000000000000000000000000000000000000000000000000000000000000000000000000000000000000000000000000000000000000000000000000000000000000000000000000000000000000000000000000000000000000000000000000000000000000000000000000000000000000000000000000000000000000000000000000000000000000000000000000000000000000000000000000000000000000000000000000000000000000000000000000000000000000000000000000000000000000000000000000000000000000000000000000000000000000000000000000000000000000000000000000000000",
            "coinbase" : "0x2adc25665018aa1fe0e6bc666dac8fc2697ff9ba",
            "difficulty" : "0x020000",
            "extraData" : "0x42",
            "gasLimit" : "0x989680",
            "gasUsed" : "0x00",
            "hash" : "0x3100e213ef72d7fa68f6b7cc7c84fa23dfe3e0e0ebac59e5ce1266047b9f2f2e",
            "mixHash" : "0x56e81f171bcc55a6ff8345e692c0f86e5b48e01b996cadc001622fb5e363b421",
            "nonce" : "0x0102030405060708",
            "number" : "0x00",
            "parentHash" : "0x0000000000000000000000000000000000000000000000000000000000000000",
            "receiptTrie" : "0x56e81f171bcc55a6ff8345e692c0f86e5b48e01b996cadc001622fb5e363b421",
            "stateRoot" : "0x86dbdf030c5b24ac5e311932c78fd9ee817bb4355d95214b005be069b19f2c5f",
            "timestamp" : "0x03b6",
            "transactionsTrie" : "0x56e81f171bcc55a6ff8345e692c0f86e5b48e01b996cadc001622fb5e363b421",
            "uncleHash" : "0x1dcc4de8dec75d7aab85b567b6ccd41ad312451b948a7413f0a142fd40d49347"
        },
        "genesisRLP" : "0xf901faf901f5a00000000000000000000000000000000000000000000000000000000000000000a01dcc4de8dec75d7aab85b567b6ccd41ad312451b948a7413f0a142fd40d49347942adc25665018aa1fe0e6bc666dac8fc2697ff9baa086dbdf030c5b24ac5e311932c78fd9ee817bb4355d95214b005be069b19f2c5fa056e81f171bcc55a6ff8345e692c0f86e5b48e01b996cadc001622fb5e363b421a056e81f171bcc55a6ff8345e692c0f86e5b48e01b996cadc001622fb5e363b421b9010000000000000000000000000000000000000000000000000000000000000000000000000000000000000000000000000000000000000000000000000000000000000000000000000000000000000000000000000000000000000000000000000000000000000000000000000000000000000000000000000000000000000000000000000000000000000000000000000000000000000000000000000000000000000000000000000000000000000000000000000000000000000000000000000000000000000000000000000000000000000000000000000000000000000000000000000000000000000000000000000000000000000000000000000000000000830200008083989680808203b642a056e81f171bcc55a6ff8345e692c0f86e5b48e01b996cadc001622fb5e363b421880102030405060708c0c0",
        "lastblockhash" : "0x14ac5d23ed06a44185369d2c6ed6484ed739a815730d870b016303b96327d05e",
        "network" : "Frontier",
        "postState" : {
            "0x095e7baea6a6c7c4c2dfeb977efac326af552d87" : {
                "balance" : "0x0132b3a0",
                "code" : "0x7fffffffffffffffffffffffffffffffffffffffffffffffffffffffffffffffff6000526020600060206000600060026064f2600255600051600055",
                "nonce" : "0x00",
                "storage" : {
                    "0x00" : "0xaf9613760f72635fbdb44a5a0a63c39f12af30f950a6ee5c971be188e89c4051",
                    "0x02" : "0x01"
                }
            },
            "0x2adc25665018aa1fe0e6bc666dac8fc2697ff9ba" : {
                "balance" : "0x4563918244f4eee5",
                "code" : "",
                "nonce" : "0x00",
                "storage" : {
                }
            },
            "0xa94f5374fce5edbc8e2a8697c15331677e6ebf0b" : {
                "balance" : "0x0de0b6b3a7618a7b",
                "code" : "",
                "nonce" : "0x01",
                "storage" : {
                }
            }
        },
        "pre" : {
            "0x095e7baea6a6c7c4c2dfeb977efac326af552d87" : {
                "balance" : "0x01312d00",
                "code" : "0x7fffffffffffffffffffffffffffffffffffffffffffffffffffffffffffffffff6000526020600060206000600060026064f2600255600051600055",
                "nonce" : "0x00",
                "storage" : {
                }
            },
            "0xa94f5374fce5edbc8e2a8697c15331677e6ebf0b" : {
                "balance" : "0x0de0b6b3a7640000",
                "code" : "",
                "nonce" : "0x00",
                "storage" : {
                }
            }
        }
    },
    "CALLCODESha256_4_d0g0v0_Homestead" : {
        "_info" : {
            "comment" : "",
            "filledwith" : "cpp-1.3.0+commit.4e101574.Linux.g++",
            "lllcversion" : "Version: 0.4.18-develop.2017.10.11+commit.81f9f86c.Linux.g++",
            "source" : "src/BlockchainTestsFiller/GeneralStateTests/stPreCompiledContracts2/CALLCODESha256_4_d0g0v0Filler.json",
            "sourceHash" : "b6bc0eeccb62321ddedd6f6783d0d1e83f11a5d9d79599d3939985ba55445241"
        },
        "blocks" : [
            {
                "blockHeader" : {
                    "bloom" : "0x00000000000000000000000000000000000000000000000000000000000000000000000000000000000000000000000000000000000000000000000000000000000000000000000000000000000000000000000000000000000000000000000000000000000000000000000000000000000000000000000000000000000000000000000000000000000000000000000000000000000000000000000000000000000000000000000000000000000000000000000000000000000000000000000000000000000000000000000000000000000000000000000000000000000000000000000000000000000000000000000000000000000000000000000000000000",
                    "coinbase" : "0x2adc25665018aa1fe0e6bc666dac8fc2697ff9ba",
                    "difficulty" : "0x020000",
                    "extraData" : "",
                    "gasLimit" : "0x989680",
                    "gasUsed" : "0xeee5",
                    "hash" : "0xe64a7fe4fa81db3733257e3cae53a9c706ee0bd4eb124afc3e4ccdfbd6d34028",
                    "mixHash" : "0x0864339b75c7d60c4456034c3414c3f3bf5b2afe7417a3dee48d9be74ac14b5a",
                    "nonce" : "0x231167540e9504af",
                    "number" : "0x01",
                    "parentHash" : "0x3100e213ef72d7fa68f6b7cc7c84fa23dfe3e0e0ebac59e5ce1266047b9f2f2e",
                    "receiptTrie" : "0xe4146223ef65db4336241e7b0569f243a37c32943b9f7ea59cdf487ccc32afd5",
                    "stateRoot" : "0x8bdd3e4d3cec7bbc433dc562d6b71751f956503387ef2eb6804879b0ba289075",
                    "timestamp" : "0x03e8",
                    "transactionsTrie" : "0x98fa170d192a6eff341cc8b8392cf1c8256997c28117ae4c20481271ffe00b0b",
                    "uncleHash" : "0x1dcc4de8dec75d7aab85b567b6ccd41ad312451b948a7413f0a142fd40d49347"
                },
                "rlp" : "0xf90262f901f7a03100e213ef72d7fa68f6b7cc7c84fa23dfe3e0e0ebac59e5ce1266047b9f2f2ea01dcc4de8dec75d7aab85b567b6ccd41ad312451b948a7413f0a142fd40d49347942adc25665018aa1fe0e6bc666dac8fc2697ff9baa08bdd3e4d3cec7bbc433dc562d6b71751f956503387ef2eb6804879b0ba289075a098fa170d192a6eff341cc8b8392cf1c8256997c28117ae4c20481271ffe00b0ba0e4146223ef65db4336241e7b0569f243a37c32943b9f7ea59cdf487ccc32afd5b901000000000000000000000000000000000000000000000000000000000000000000000000000000000000000000000000000000000000000000000000000000000000000000000000000000000000000000000000000000000000000000000000000000000000000000000000000000000000000000000000000000000000000000000000000000000000000000000000000000000000000000000000000000000000000000000000000000000000000000000000000000000000000000000000000000000000000000000000000000000000000000000000000000000000000000000000000000000000000000000000000000000000000000000000000000000083020000018398968082eee58203e880a00864339b75c7d60c4456034c3414c3f3bf5b2afe7417a3dee48d9be74ac14b5a88231167540e9504aff865f8638001830592a894095e7baea6a6c7c4c2dfeb977efac326af552d87830186a0801ca082cfe09a590896d5e895674505c40f1701ab05245f9f568bf506b9558e61c67fa04a98fee75f6fbf3fa4b3e104a9bb7283a6e076670719bac8af481531151b7b3cc0",
                "transactions" : [
                    {
                        "data" : "",
                        "gasLimit" : "0x0592a8",
                        "gasPrice" : "0x01",
                        "nonce" : "0x00",
                        "r" : "0x82cfe09a590896d5e895674505c40f1701ab05245f9f568bf506b9558e61c67f",
                        "s" : "0x4a98fee75f6fbf3fa4b3e104a9bb7283a6e076670719bac8af481531151b7b3c",
                        "to" : "0x095e7baea6a6c7c4c2dfeb977efac326af552d87",
                        "v" : "0x1c",
                        "value" : "0x0186a0"
                    }
                ],
                "uncleHeaders" : [
                ]
            }
        ],
        "genesisBlockHeader" : {
            "bloom" : "0x00000000000000000000000000000000000000000000000000000000000000000000000000000000000000000000000000000000000000000000000000000000000000000000000000000000000000000000000000000000000000000000000000000000000000000000000000000000000000000000000000000000000000000000000000000000000000000000000000000000000000000000000000000000000000000000000000000000000000000000000000000000000000000000000000000000000000000000000000000000000000000000000000000000000000000000000000000000000000000000000000000000000000000000000000000000",
            "coinbase" : "0x2adc25665018aa1fe0e6bc666dac8fc2697ff9ba",
            "difficulty" : "0x020000",
            "extraData" : "0x42",
            "gasLimit" : "0x989680",
            "gasUsed" : "0x00",
            "hash" : "0x3100e213ef72d7fa68f6b7cc7c84fa23dfe3e0e0ebac59e5ce1266047b9f2f2e",
            "mixHash" : "0x56e81f171bcc55a6ff8345e692c0f86e5b48e01b996cadc001622fb5e363b421",
            "nonce" : "0x0102030405060708",
            "number" : "0x00",
            "parentHash" : "0x0000000000000000000000000000000000000000000000000000000000000000",
            "receiptTrie" : "0x56e81f171bcc55a6ff8345e692c0f86e5b48e01b996cadc001622fb5e363b421",
            "stateRoot" : "0x86dbdf030c5b24ac5e311932c78fd9ee817bb4355d95214b005be069b19f2c5f",
            "timestamp" : "0x03b6",
            "transactionsTrie" : "0x56e81f171bcc55a6ff8345e692c0f86e5b48e01b996cadc001622fb5e363b421",
            "uncleHash" : "0x1dcc4de8dec75d7aab85b567b6ccd41ad312451b948a7413f0a142fd40d49347"
        },
        "genesisRLP" : "0xf901faf901f5a00000000000000000000000000000000000000000000000000000000000000000a01dcc4de8dec75d7aab85b567b6ccd41ad312451b948a7413f0a142fd40d49347942adc25665018aa1fe0e6bc666dac8fc2697ff9baa086dbdf030c5b24ac5e311932c78fd9ee817bb4355d95214b005be069b19f2c5fa056e81f171bcc55a6ff8345e692c0f86e5b48e01b996cadc001622fb5e363b421a056e81f171bcc55a6ff8345e692c0f86e5b48e01b996cadc001622fb5e363b421b9010000000000000000000000000000000000000000000000000000000000000000000000000000000000000000000000000000000000000000000000000000000000000000000000000000000000000000000000000000000000000000000000000000000000000000000000000000000000000000000000000000000000000000000000000000000000000000000000000000000000000000000000000000000000000000000000000000000000000000000000000000000000000000000000000000000000000000000000000000000000000000000000000000000000000000000000000000000000000000000000000000000000000000000000000000000000830200008083989680808203b642a056e81f171bcc55a6ff8345e692c0f86e5b48e01b996cadc001622fb5e363b421880102030405060708c0c0",
        "lastblockhash" : "0xe64a7fe4fa81db3733257e3cae53a9c706ee0bd4eb124afc3e4ccdfbd6d34028",
        "network" : "Homestead",
        "postState" : {
            "0x095e7baea6a6c7c4c2dfeb977efac326af552d87" : {
                "balance" : "0x0132b3a0",
                "code" : "0x7fffffffffffffffffffffffffffffffffffffffffffffffffffffffffffffffff6000526020600060206000600060026064f2600255600051600055",
                "nonce" : "0x00",
                "storage" : {
                    "0x00" : "0xaf9613760f72635fbdb44a5a0a63c39f12af30f950a6ee5c971be188e89c4051",
                    "0x02" : "0x01"
                }
            },
            "0x2adc25665018aa1fe0e6bc666dac8fc2697ff9ba" : {
                "balance" : "0x4563918244f4eee5",
                "code" : "",
                "nonce" : "0x00",
                "storage" : {
                }
            },
            "0xa94f5374fce5edbc8e2a8697c15331677e6ebf0b" : {
                "balance" : "0x0de0b6b3a7618a7b",
                "code" : "",
                "nonce" : "0x01",
                "storage" : {
                }
            }
        },
        "pre" : {
            "0x095e7baea6a6c7c4c2dfeb977efac326af552d87" : {
                "balance" : "0x01312d00",
                "code" : "0x7fffffffffffffffffffffffffffffffffffffffffffffffffffffffffffffffff6000526020600060206000600060026064f2600255600051600055",
                "nonce" : "0x00",
                "storage" : {
                }
            },
            "0xa94f5374fce5edbc8e2a8697c15331677e6ebf0b" : {
                "balance" : "0x0de0b6b3a7640000",
                "code" : "",
                "nonce" : "0x00",
                "storage" : {
                }
            }
        }
    }
}