{
    "CALLCODERipemd160_5_d0g0v0_Byzantium" : {
        "_info" : {
            "comment" : "",
            "filledwith" : "cpp-1.3.0+commit.4e101574.Linux.g++",
            "lllcversion" : "Version: 0.4.18-develop.2017.10.11+commit.81f9f86c.Linux.g++",
            "source" : "src/BlockchainTestsFiller/GeneralStateTests/stPreCompiledContracts2/CALLCODERipemd160_5_d0g0v0Filler.json",
            "sourceHash" : "3a724c5aaf844593a2531ca422df10e01f376447b5e8477baf9fb2d302585097"
        },
        "blocks" : [
            {
                "blockHeader" : {
                    "bloom" : "0x00000000000000000000000000000000000000000000000000000000000000000000000000000000000000000000000000000000000000000000000000000000000000000000000000000000000000000000000000000000000000000000000000000000000000000000000000000000000000000000000000000000000000000000000000000000000000000000000000000000000000000000000000000000000000000000000000000000000000000000000000000000000000000000000000000000000000000000000000000000000000000000000000000000000000000000000000000000000000000000000000000000000000000000000000000000",
                    "coinbase" : "0x2adc25665018aa1fe0e6bc666dac8fc2697ff9ba",
                    "difficulty" : "0x020000",
                    "extraData" : "",
                    "gasLimit" : "0x989680",
                    "gasUsed" : "0x1f56d0",
                    "hash" : "0x7b4f353e8b96d5513a5461c5ed794606074d21a364f1e76c7441627be63e08bf",
                    "mixHash" : "0x6015a135b685e3e407399d8365062c7b67f088fbb4bc7e6d614a746ec5ff9f17",
                    "nonce" : "0x1aba77a518277266",
                    "number" : "0x01",
                    "parentHash" : "0xb1176917a17d4f7f8a75810044be5c0ba8140b3be824ab3e9ecf82151d3d058c",
                    "receiptTrie" : "0xcf8e81ab80b6e4e2bbe3f36b604253cf40e69690bb992f3999c83925ef2bc22d",
                    "stateRoot" : "0x34c7b49d052624deaa41d3e120c8756b666489dc3f75dfa33208cad7229206b5",
                    "timestamp" : "0x03e8",
                    "transactionsTrie" : "0x138e622ff34e8a4bed7c2631ee946b094d23bd208e8285e710fc5fa254318627",
                    "uncleHash" : "0x1dcc4de8dec75d7aab85b567b6ccd41ad312451b948a7413f0a142fd40d49347"
                },
                "rlp" : "0xf90263f901f8a0b1176917a17d4f7f8a75810044be5c0ba8140b3be824ab3e9ecf82151d3d058ca01dcc4de8dec75d7aab85b567b6ccd41ad312451b948a7413f0a142fd40d49347942adc25665018aa1fe0e6bc666dac8fc2697ff9baa034c7b49d052624deaa41d3e120c8756b666489dc3f75dfa33208cad7229206b5a0138e622ff34e8a4bed7c2631ee946b094d23bd208e8285e710fc5fa254318627a0cf8e81ab80b6e4e2bbe3f36b604253cf40e69690bb992f3999c83925ef2bc22db9010000000000000000000000000000000000000000000000000000000000000000000000000000000000000000000000000000000000000000000000000000000000000000000000000000000000000000000000000000000000000000000000000000000000000000000000000000000000000000000000000000000000000000000000000000000000000000000000000000000000000000000000000000000000000000000000000000000000000000000000000000000000000000000000000000000000000000000000000000000000000000000000000000000000000000000000000000000000000000000000000000000000000000000000000000000000830200000183989680831f56d08203e880a06015a135b685e3e407399d8365062c7b67f088fbb4bc7e6d614a746ec5ff9f17881aba77a518277266f865f86380018398968094095e7baea6a6c7c4c2dfeb977efac326af552d87830186a0801ca0c8c5469bcab2d89c9083cecdf26c9d3a9e40597d1d82744bc0e5e582f9dc48a4a0433eb07127e317522d4e08b89cd3824eee8bf1c75a2871db940e0c54d0dd09d2c0",
                "transactions" : [
                    {
                        "data" : "",
                        "gasLimit" : "0x989680",
                        "gasPrice" : "0x01",
                        "nonce" : "0x00",
                        "r" : "0xc8c5469bcab2d89c9083cecdf26c9d3a9e40597d1d82744bc0e5e582f9dc48a4",
                        "s" : "0x433eb07127e317522d4e08b89cd3824eee8bf1c75a2871db940e0c54d0dd09d2",
                        "to" : "0x095e7baea6a6c7c4c2dfeb977efac326af552d87",
                        "v" : "0x1c",
                        "value" : "0x0186a0"
                    }
                ],
                "uncleHeaders" : [
                ]
            }
        ],
        "genesisBlockHeader" : {
            "bloom" : "0x00000000000000000000000000000000000000000000000000000000000000000000000000000000000000000000000000000000000000000000000000000000000000000000000000000000000000000000000000000000000000000000000000000000000000000000000000000000000000000000000000000000000000000000000000000000000000000000000000000000000000000000000000000000000000000000000000000000000000000000000000000000000000000000000000000000000000000000000000000000000000000000000000000000000000000000000000000000000000000000000000000000000000000000000000000000",
            "coinbase" : "0x2adc25665018aa1fe0e6bc666dac8fc2697ff9ba",
            "difficulty" : "0x020000",
            "extraData" : "0x42",
            "gasLimit" : "0x989680",
            "gasUsed" : "0x00",
            "hash" : "0xb1176917a17d4f7f8a75810044be5c0ba8140b3be824ab3e9ecf82151d3d058c",
            "mixHash" : "0x56e81f171bcc55a6ff8345e692c0f86e5b48e01b996cadc001622fb5e363b421",
            "nonce" : "0x0102030405060708",
            "number" : "0x00",
            "parentHash" : "0x0000000000000000000000000000000000000000000000000000000000000000",
            "receiptTrie" : "0x56e81f171bcc55a6ff8345e692c0f86e5b48e01b996cadc001622fb5e363b421",
            "stateRoot" : "0x2d15ed9217f5c9b0b5f6110f2c8264aef25d16f0e1fae3f1078f2fbb74e6266f",
            "timestamp" : "0x03b6",
            "transactionsTrie" : "0x56e81f171bcc55a6ff8345e692c0f86e5b48e01b996cadc001622fb5e363b421",
            "uncleHash" : "0x1dcc4de8dec75d7aab85b567b6ccd41ad312451b948a7413f0a142fd40d49347"
        },
        "genesisRLP" : "0xf901faf901f5a00000000000000000000000000000000000000000000000000000000000000000a01dcc4de8dec75d7aab85b567b6ccd41ad312451b948a7413f0a142fd40d49347942adc25665018aa1fe0e6bc666dac8fc2697ff9baa02d15ed9217f5c9b0b5f6110f2c8264aef25d16f0e1fae3f1078f2fbb74e6266fa056e81f171bcc55a6ff8345e692c0f86e5b48e01b996cadc001622fb5e363b421a056e81f171bcc55a6ff8345e692c0f86e5b48e01b996cadc001622fb5e363b421b9010000000000000000000000000000000000000000000000000000000000000000000000000000000000000000000000000000000000000000000000000000000000000000000000000000000000000000000000000000000000000000000000000000000000000000000000000000000000000000000000000000000000000000000000000000000000000000000000000000000000000000000000000000000000000000000000000000000000000000000000000000000000000000000000000000000000000000000000000000000000000000000000000000000000000000000000000000000000000000000000000000000000000000000000000000000000830200008083989680808203b642a056e81f171bcc55a6ff8345e692c0f86e5b48e01b996cadc001622fb5e363b421880102030405060708c0c0",
        "lastblockhash" : "0x7b4f353e8b96d5513a5461c5ed794606074d21a364f1e76c7441627be63e08bf",
        "network" : "Byzantium",
        "postState" : {
            "0x095e7baea6a6c7c4c2dfeb977efac326af552d87" : {
                "balance" : "0x0132b3a0",
                "code" : "0x7fffffffffffffffffffffffffffffffffffffffffffffffffffffffffffffffff60005260206000620f4240600060006003611770f2600255600051600055",
                "nonce" : "0x00",
                "storage" : {
                    "0x00" : "0xffffffffffffffffffffffffffffffffffffffffffffffffffffffffffffffff"
                }
            },
            "0x2adc25665018aa1fe0e6bc666dac8fc2697ff9ba" : {
                "balance" : "0x29a2241af64b56d0",
                "code" : "",
                "nonce" : "0x00",
                "storage" : {
                }
            },
            "0xa94f5374fce5edbc8e2a8697c15331677e6ebf0b" : {
                "balance" : "0x0de0b6b3a7432290",
                "code" : "",
                "nonce" : "0x01",
                "storage" : {
                }
            }
        },
        "pre" : {
            "0x095e7baea6a6c7c4c2dfeb977efac326af552d87" : {
                "balance" : "0x01312d00",
                "code" : "0x7fffffffffffffffffffffffffffffffffffffffffffffffffffffffffffffffff60005260206000620f4240600060006003611770f2600255600051600055",
                "nonce" : "0x00",
                "storage" : {
                }
            },
            "0xa94f5374fce5edbc8e2a8697c15331677e6ebf0b" : {
                "balance" : "0x0de0b6b3a7640000",
                "code" : "",
                "nonce" : "0x00",
                "storage" : {
                }
            }
        }
    },
    "CALLCODERipemd160_5_d0g0v0_EIP150" : {
        "_info" : {
            "comment" : "",
            "filledwith" : "cpp-1.3.0+commit.4e101574.Linux.g++",
            "lllcversion" : "Version: 0.4.18-develop.2017.10.11+commit.81f9f86c.Linux.g++",
            "source" : "src/BlockchainTestsFiller/GeneralStateTests/stPreCompiledContracts2/CALLCODERipemd160_5_d0g0v0Filler.json",
            "sourceHash" : "3a724c5aaf844593a2531ca422df10e01f376447b5e8477baf9fb2d302585097"
        },
        "blocks" : [
            {
                "blockHeader" : {
                    "bloom" : "0x00000000000000000000000000000000000000000000000000000000000000000000000000000000000000000000000000000000000000000000000000000000000000000000000000000000000000000000000000000000000000000000000000000000000000000000000000000000000000000000000000000000000000000000000000000000000000000000000000000000000000000000000000000000000000000000000000000000000000000000000000000000000000000000000000000000000000000000000000000000000000000000000000000000000000000000000000000000000000000000000000000000000000000000000000000000",
                    "coinbase" : "0x2adc25665018aa1fe0e6bc666dac8fc2697ff9ba",
                    "difficulty" : "0x020000",
                    "extraData" : "",
                    "gasLimit" : "0x989680",
                    "gasUsed" : "0x1f56d0",
                    "hash" : "0x34ce67e7ff44e208935c893ebf8553cb79d4ac5851aead7b3bdbfd1d07dc37f9",
                    "mixHash" : "0x9fbbadee70928253068b6adf55b87f42ef1cdda546dcf7cc86571bd15d11a056",
                    "nonce" : "0x2d7f353f79eb6b55",
                    "number" : "0x01",
                    "parentHash" : "0xb1176917a17d4f7f8a75810044be5c0ba8140b3be824ab3e9ecf82151d3d058c",
                    "receiptTrie" : "0xdfbf5f97a7a7733384e487997ea3051fc7d307f94d8413063e6ef8243b4898ad",
                    "stateRoot" : "0xebc32cdd5afd8e722f473fbf10417a5d2b0169a36d5f13e22a6f61642f3377b8",
                    "timestamp" : "0x03e8",
                    "transactionsTrie" : "0x138e622ff34e8a4bed7c2631ee946b094d23bd208e8285e710fc5fa254318627",
                    "uncleHash" : "0x1dcc4de8dec75d7aab85b567b6ccd41ad312451b948a7413f0a142fd40d49347"
                },
                "rlp" : "0xf90263f901f8a0b1176917a17d4f7f8a75810044be5c0ba8140b3be824ab3e9ecf82151d3d058ca01dcc4de8dec75d7aab85b567b6ccd41ad312451b948a7413f0a142fd40d49347942adc25665018aa1fe0e6bc666dac8fc2697ff9baa0ebc32cdd5afd8e722f473fbf10417a5d2b0169a36d5f13e22a6f61642f3377b8a0138e622ff34e8a4bed7c2631ee946b094d23bd208e8285e710fc5fa254318627a0dfbf5f97a7a7733384e487997ea3051fc7d307f94d8413063e6ef8243b4898adb9010000000000000000000000000000000000000000000000000000000000000000000000000000000000000000000000000000000000000000000000000000000000000000000000000000000000000000000000000000000000000000000000000000000000000000000000000000000000000000000000000000000000000000000000000000000000000000000000000000000000000000000000000000000000000000000000000000000000000000000000000000000000000000000000000000000000000000000000000000000000000000000000000000000000000000000000000000000000000000000000000000000000000000000000000000000000830200000183989680831f56d08203e880a09fbbadee70928253068b6adf55b87f42ef1cdda546dcf7cc86571bd15d11a056882d7f353f79eb6b55f865f86380018398968094095e7baea6a6c7c4c2dfeb977efac326af552d87830186a0801ca0c8c5469bcab2d89c9083cecdf26c9d3a9e40597d1d82744bc0e5e582f9dc48a4a0433eb07127e317522d4e08b89cd3824eee8bf1c75a2871db940e0c54d0dd09d2c0",
                "transactions" : [
                    {
                        "data" : "",
                        "gasLimit" : "0x989680",
                        "gasPrice" : "0x01",
                        "nonce" : "0x00",
                        "r" : "0xc8c5469bcab2d89c9083cecdf26c9d3a9e40597d1d82744bc0e5e582f9dc48a4",
                        "s" : "0x433eb07127e317522d4e08b89cd3824eee8bf1c75a2871db940e0c54d0dd09d2",
                        "to" : "0x095e7baea6a6c7c4c2dfeb977efac326af552d87",
                        "v" : "0x1c",
                        "value" : "0x0186a0"
                    }
                ],
                "uncleHeaders" : [
                ]
            }
        ],
        "genesisBlockHeader" : {
            "bloom" : "0x00000000000000000000000000000000000000000000000000000000000000000000000000000000000000000000000000000000000000000000000000000000000000000000000000000000000000000000000000000000000000000000000000000000000000000000000000000000000000000000000000000000000000000000000000000000000000000000000000000000000000000000000000000000000000000000000000000000000000000000000000000000000000000000000000000000000000000000000000000000000000000000000000000000000000000000000000000000000000000000000000000000000000000000000000000000",
            "coinbase" : "0x2adc25665018aa1fe0e6bc666dac8fc2697ff9ba",
            "difficulty" : "0x020000",
            "extraData" : "0x42",
            "gasLimit" : "0x989680",
            "gasUsed" : "0x00",
            "hash" : "0xb1176917a17d4f7f8a75810044be5c0ba8140b3be824ab3e9ecf82151d3d058c",
            "mixHash" : "0x56e81f171bcc55a6ff8345e692c0f86e5b48e01b996cadc001622fb5e363b421",
            "nonce" : "0x0102030405060708",
            "number" : "0x00",
            "parentHash" : "0x0000000000000000000000000000000000000000000000000000000000000000",
            "receiptTrie" : "0x56e81f171bcc55a6ff8345e692c0f86e5b48e01b996cadc001622fb5e363b421",
            "stateRoot" : "0x2d15ed9217f5c9b0b5f6110f2c8264aef25d16f0e1fae3f1078f2fbb74e6266f",
            "timestamp" : "0x03b6",
            "transactionsTrie" : "0x56e81f171bcc55a6ff8345e692c0f86e5b48e01b996cadc001622fb5e363b421",
            "uncleHash" : "0x1dcc4de8dec75d7aab85b567b6ccd41ad312451b948a7413f0a142fd40d49347"
        },
        "genesisRLP" : "0xf901faf901f5a00000000000000000000000000000000000000000000000000000000000000000a01dcc4de8dec75d7aab85b567b6ccd41ad312451b948a7413f0a142fd40d49347942adc25665018aa1fe0e6bc666dac8fc2697ff9baa02d15ed9217f5c9b0b5f6110f2c8264aef25d16f0e1fae3f1078f2fbb74e6266fa056e81f171bcc55a6ff8345e692c0f86e5b48e01b996cadc001622fb5e363b421a056e81f171bcc55a6ff8345e692c0f86e5b48e01b996cadc001622fb5e363b421b9010000000000000000000000000000000000000000000000000000000000000000000000000000000000000000000000000000000000000000000000000000000000000000000000000000000000000000000000000000000000000000000000000000000000000000000000000000000000000000000000000000000000000000000000000000000000000000000000000000000000000000000000000000000000000000000000000000000000000000000000000000000000000000000000000000000000000000000000000000000000000000000000000000000000000000000000000000000000000000000000000000000000000000000000000000000000830200008083989680808203b642a056e81f171bcc55a6ff8345e692c0f86e5b48e01b996cadc001622fb5e363b421880102030405060708c0c0",
        "lastblockhash" : "0x34ce67e7ff44e208935c893ebf8553cb79d4ac5851aead7b3bdbfd1d07dc37f9",
        "network" : "EIP150",
        "postState" : {
            "0x095e7baea6a6c7c4c2dfeb977efac326af552d87" : {
                "balance" : "0x0132b3a0",
                "code" : "0x7fffffffffffffffffffffffffffffffffffffffffffffffffffffffffffffffff60005260206000620f4240600060006003611770f2600255600051600055",
                "nonce" : "0x00",
                "storage" : {
                    "0x00" : "0xffffffffffffffffffffffffffffffffffffffffffffffffffffffffffffffff"
                }
            },
            "0x2adc25665018aa1fe0e6bc666dac8fc2697ff9ba" : {
                "balance" : "0x45639182451356d0",
                "code" : "",
                "nonce" : "0x00",
                "storage" : {
                }
            },
            "0xa94f5374fce5edbc8e2a8697c15331677e6ebf0b" : {
                "balance" : "0x0de0b6b3a7432290",
                "code" : "",
                "nonce" : "0x01",
                "storage" : {
                }
            }
        },
        "pre" : {
            "0x095e7baea6a6c7c4c2dfeb977efac326af552d87" : {
                "balance" : "0x01312d00",
                "code" : "0x7fffffffffffffffffffffffffffffffffffffffffffffffffffffffffffffffff60005260206000620f4240600060006003611770f2600255600051600055",
                "nonce" : "0x00",
                "storage" : {
                }
            },
            "0xa94f5374fce5edbc8e2a8697c15331677e6ebf0b" : {
                "balance" : "0x0de0b6b3a7640000",
                "code" : "",
                "nonce" : "0x00",
                "storage" : {
                }
            }
        }
    },
    "CALLCODERipemd160_5_d0g0v0_EIP158" : {
        "_info" : {
            "comment" : "",
            "filledwith" : "cpp-1.3.0+commit.4e101574.Linux.g++",
            "lllcversion" : "Version: 0.4.18-develop.2017.10.11+commit.81f9f86c.Linux.g++",
            "source" : "src/BlockchainTestsFiller/GeneralStateTests/stPreCompiledContracts2/CALLCODERipemd160_5_d0g0v0Filler.json",
            "sourceHash" : "3a724c5aaf844593a2531ca422df10e01f376447b5e8477baf9fb2d302585097"
        },
        "blocks" : [
            {
                "blockHeader" : {
                    "bloom" : "0x00000000000000000000000000000000000000000000000000000000000000000000000000000000000000000000000000000000000000000000000000000000000000000000000000000000000000000000000000000000000000000000000000000000000000000000000000000000000000000000000000000000000000000000000000000000000000000000000000000000000000000000000000000000000000000000000000000000000000000000000000000000000000000000000000000000000000000000000000000000000000000000000000000000000000000000000000000000000000000000000000000000000000000000000000000000",
                    "coinbase" : "0x2adc25665018aa1fe0e6bc666dac8fc2697ff9ba",
                    "difficulty" : "0x020000",
                    "extraData" : "",
                    "gasLimit" : "0x989680",
                    "gasUsed" : "0x1f56d0",
                    "hash" : "0x899e07fdb2e929942cb2edaf2c8ce7ee7e59dcb3cf9ebd30445b31bc01934823",
                    "mixHash" : "0x0a06549a904638659847401ceee22d17be0804b8e2d2f19709c7bbf7073ab7e4",
                    "nonce" : "0x7d842dd42e1f8519",
                    "number" : "0x01",
                    "parentHash" : "0xb1176917a17d4f7f8a75810044be5c0ba8140b3be824ab3e9ecf82151d3d058c",
                    "receiptTrie" : "0xdfbf5f97a7a7733384e487997ea3051fc7d307f94d8413063e6ef8243b4898ad",
                    "stateRoot" : "0xebc32cdd5afd8e722f473fbf10417a5d2b0169a36d5f13e22a6f61642f3377b8",
                    "timestamp" : "0x03e8",
                    "transactionsTrie" : "0x138e622ff34e8a4bed7c2631ee946b094d23bd208e8285e710fc5fa254318627",
                    "uncleHash" : "0x1dcc4de8dec75d7aab85b567b6ccd41ad312451b948a7413f0a142fd40d49347"
                },
                "rlp" : "0xf90263f901f8a0b1176917a17d4f7f8a75810044be5c0ba8140b3be824ab3e9ecf82151d3d058ca01dcc4de8dec75d7aab85b567b6ccd41ad312451b948a7413f0a142fd40d49347942adc25665018aa1fe0e6bc666dac8fc2697ff9baa0ebc32cdd5afd8e722f473fbf10417a5d2b0169a36d5f13e22a6f61642f3377b8a0138e622ff34e8a4bed7c2631ee946b094d23bd208e8285e710fc5fa254318627a0dfbf5f97a7a7733384e487997ea3051fc7d307f94d8413063e6ef8243b4898adb9010000000000000000000000000000000000000000000000000000000000000000000000000000000000000000000000000000000000000000000000000000000000000000000000000000000000000000000000000000000000000000000000000000000000000000000000000000000000000000000000000000000000000000000000000000000000000000000000000000000000000000000000000000000000000000000000000000000000000000000000000000000000000000000000000000000000000000000000000000000000000000000000000000000000000000000000000000000000000000000000000000000000000000000000000000000000830200000183989680831f56d08203e880a00a06549a904638659847401ceee22d17be0804b8e2d2f19709c7bbf7073ab7e4887d842dd42e1f8519f865f86380018398968094095e7baea6a6c7c4c2dfeb977efac326af552d87830186a0801ca0c8c5469bcab2d89c9083cecdf26c9d3a9e40597d1d82744bc0e5e582f9dc48a4a0433eb07127e317522d4e08b89cd3824eee8bf1c75a2871db940e0c54d0dd09d2c0",
                "transactions" : [
                    {
                        "data" : "",
                        "gasLimit" : "0x989680",
                        "gasPrice" : "0x01",
                        "nonce" : "0x00",
                        "r" : "0xc8c5469bcab2d89c9083cecdf26c9d3a9e40597d1d82744bc0e5e582f9dc48a4",
                        "s" : "0x433eb07127e317522d4e08b89cd3824eee8bf1c75a2871db940e0c54d0dd09d2",
                        "to" : "0x095e7baea6a6c7c4c2dfeb977efac326af552d87",
                        "v" : "0x1c",
                        "value" : "0x0186a0"
                    }
                ],
                "uncleHeaders" : [
                ]
            }
        ],
        "genesisBlockHeader" : {
            "bloom" : "0x00000000000000000000000000000000000000000000000000000000000000000000000000000000000000000000000000000000000000000000000000000000000000000000000000000000000000000000000000000000000000000000000000000000000000000000000000000000000000000000000000000000000000000000000000000000000000000000000000000000000000000000000000000000000000000000000000000000000000000000000000000000000000000000000000000000000000000000000000000000000000000000000000000000000000000000000000000000000000000000000000000000000000000000000000000000",
            "coinbase" : "0x2adc25665018aa1fe0e6bc666dac8fc2697ff9ba",
            "difficulty" : "0x020000",
            "extraData" : "0x42",
            "gasLimit" : "0x989680",
            "gasUsed" : "0x00",
            "hash" : "0xb1176917a17d4f7f8a75810044be5c0ba8140b3be824ab3e9ecf82151d3d058c",
            "mixHash" : "0x56e81f171bcc55a6ff8345e692c0f86e5b48e01b996cadc001622fb5e363b421",
            "nonce" : "0x0102030405060708",
            "number" : "0x00",
            "parentHash" : "0x0000000000000000000000000000000000000000000000000000000000000000",
            "receiptTrie" : "0x56e81f171bcc55a6ff8345e692c0f86e5b48e01b996cadc001622fb5e363b421",
            "stateRoot" : "0x2d15ed9217f5c9b0b5f6110f2c8264aef25d16f0e1fae3f1078f2fbb74e6266f",
            "timestamp" : "0x03b6",
            "transactionsTrie" : "0x56e81f171bcc55a6ff8345e692c0f86e5b48e01b996cadc001622fb5e363b421",
            "uncleHash" : "0x1dcc4de8dec75d7aab85b567b6ccd41ad312451b948a7413f0a142fd40d49347"
        },
        "genesisRLP" : "0xf901faf901f5a00000000000000000000000000000000000000000000000000000000000000000a01dcc4de8dec75d7aab85b567b6ccd41ad312451b948a7413f0a142fd40d49347942adc25665018aa1fe0e6bc666dac8fc2697ff9baa02d15ed9217f5c9b0b5f6110f2c8264aef25d16f0e1fae3f1078f2fbb74e6266fa056e81f171bcc55a6ff8345e692c0f86e5b48e01b996cadc001622fb5e363b421a056e81f171bcc55a6ff8345e692c0f86e5b48e01b996cadc001622fb5e363b421b9010000000000000000000000000000000000000000000000000000000000000000000000000000000000000000000000000000000000000000000000000000000000000000000000000000000000000000000000000000000000000000000000000000000000000000000000000000000000000000000000000000000000000000000000000000000000000000000000000000000000000000000000000000000000000000000000000000000000000000000000000000000000000000000000000000000000000000000000000000000000000000000000000000000000000000000000000000000000000000000000000000000000000000000000000000000000830200008083989680808203b642a056e81f171bcc55a6ff8345e692c0f86e5b48e01b996cadc001622fb5e363b421880102030405060708c0c0",
        "lastblockhash" : "0x899e07fdb2e929942cb2edaf2c8ce7ee7e59dcb3cf9ebd30445b31bc01934823",
        "network" : "EIP158",
        "postState" : {
            "0x095e7baea6a6c7c4c2dfeb977efac326af552d87" : {
                "balance" : "0x0132b3a0",
                "code" : "0x7fffffffffffffffffffffffffffffffffffffffffffffffffffffffffffffffff60005260206000620f4240600060006003611770f2600255600051600055",
                "nonce" : "0x00",
                "storage" : {
                    "0x00" : "0xffffffffffffffffffffffffffffffffffffffffffffffffffffffffffffffff"
                }
            },
            "0x2adc25665018aa1fe0e6bc666dac8fc2697ff9ba" : {
                "balance" : "0x45639182451356d0",
                "code" : "",
                "nonce" : "0x00",
                "storage" : {
                }
            },
            "0xa94f5374fce5edbc8e2a8697c15331677e6ebf0b" : {
                "balance" : "0x0de0b6b3a7432290",
                "code" : "",
                "nonce" : "0x01",
                "storage" : {
                }
            }
        },
        "pre" : {
            "0x095e7baea6a6c7c4c2dfeb977efac326af552d87" : {
                "balance" : "0x01312d00",
                "code" : "0x7fffffffffffffffffffffffffffffffffffffffffffffffffffffffffffffffff60005260206000620f4240600060006003611770f2600255600051600055",
                "nonce" : "0x00",
                "storage" : {
                }
            },
            "0xa94f5374fce5edbc8e2a8697c15331677e6ebf0b" : {
                "balance" : "0x0de0b6b3a7640000",
                "code" : "",
                "nonce" : "0x00",
                "storage" : {
                }
            }
        }
    },
    "CALLCODERipemd160_5_d0g0v0_Frontier" : {
        "_info" : {
            "comment" : "",
            "filledwith" : "cpp-1.3.0+commit.4e101574.Linux.g++",
            "lllcversion" : "Version: 0.4.18-develop.2017.10.11+commit.81f9f86c.Linux.g++",
            "source" : "src/BlockchainTestsFiller/GeneralStateTests/stPreCompiledContracts2/CALLCODERipemd160_5_d0g0v0Filler.json",
            "sourceHash" : "3a724c5aaf844593a2531ca422df10e01f376447b5e8477baf9fb2d302585097"
        },
        "blocks" : [
            {
                "blockHeader" : {
                    "bloom" : "0x00000000000000000000000000000000000000000000000000000000000000000000000000000000000000000000000000000000000000000000000000000000000000000000000000000000000000000000000000000000000000000000000000000000000000000000000000000000000000000000000000000000000000000000000000000000000000000000000000000000000000000000000000000000000000000000000000000000000000000000000000000000000000000000000000000000000000000000000000000000000000000000000000000000000000000000000000000000000000000000000000000000000000000000000000000000",
                    "coinbase" : "0x2adc25665018aa1fe0e6bc666dac8fc2697ff9ba",
                    "difficulty" : "0x020000",
                    "extraData" : "",
                    "gasLimit" : "0x989680",
                    "gasUsed" : "0x1f543c",
                    "hash" : "0xd850240023cdf5612b6204dcf4c39d2aff36b493828e9da6089a925be8359bf1",
                    "mixHash" : "0x705e2647ce635750ba1608c0666f74096eea74fa5186b6ed886111d909dc42e0",
                    "nonce" : "0xa14452aeb47d04bb",
                    "number" : "0x01",
                    "parentHash" : "0xb1176917a17d4f7f8a75810044be5c0ba8140b3be824ab3e9ecf82151d3d058c",
                    "receiptTrie" : "0x231f4f7d14ebf14e207eeaf539095c1bb8ebbbb284ed8265c61058277fbd0dc5",
                    "stateRoot" : "0x89d056036038c883135802dfd1ad31b8fb5acdfacfae06aa2d2531a585c3e58f",
                    "timestamp" : "0x03e8",
                    "transactionsTrie" : "0x138e622ff34e8a4bed7c2631ee946b094d23bd208e8285e710fc5fa254318627",
                    "uncleHash" : "0x1dcc4de8dec75d7aab85b567b6ccd41ad312451b948a7413f0a142fd40d49347"
                },
                "rlp" : "0xf90263f901f8a0b1176917a17d4f7f8a75810044be5c0ba8140b3be824ab3e9ecf82151d3d058ca01dcc4de8dec75d7aab85b567b6ccd41ad312451b948a7413f0a142fd40d49347942adc25665018aa1fe0e6bc666dac8fc2697ff9baa089d056036038c883135802dfd1ad31b8fb5acdfacfae06aa2d2531a585c3e58fa0138e622ff34e8a4bed7c2631ee946b094d23bd208e8285e710fc5fa254318627a0231f4f7d14ebf14e207eeaf539095c1bb8ebbbb284ed8265c61058277fbd0dc5b9010000000000000000000000000000000000000000000000000000000000000000000000000000000000000000000000000000000000000000000000000000000000000000000000000000000000000000000000000000000000000000000000000000000000000000000000000000000000000000000000000000000000000000000000000000000000000000000000000000000000000000000000000000000000000000000000000000000000000000000000000000000000000000000000000000000000000000000000000000000000000000000000000000000000000000000000000000000000000000000000000000000000000000000000000000000000830200000183989680831f543c8203e880a0705e2647ce635750ba1608c0666f74096eea74fa5186b6ed886111d909dc42e088a14452aeb47d04bbf865f86380018398968094095e7baea6a6c7c4c2dfeb977efac326af552d87830186a0801ca0c8c5469bcab2d89c9083cecdf26c9d3a9e40597d1d82744bc0e5e582f9dc48a4a0433eb07127e317522d4e08b89cd3824eee8bf1c75a2871db940e0c54d0dd09d2c0",
                "transactions" : [
                    {
                        "data" : "",
                        "gasLimit" : "0x989680",
                        "gasPrice" : "0x01",
                        "nonce" : "0x00",
                        "r" : "0xc8c5469bcab2d89c9083cecdf26c9d3a9e40597d1d82744bc0e5e582f9dc48a4",
                        "s" : "0x433eb07127e317522d4e08b89cd3824eee8bf1c75a2871db940e0c54d0dd09d2",
                        "to" : "0x095e7baea6a6c7c4c2dfeb977efac326af552d87",
                        "v" : "0x1c",
                        "value" : "0x0186a0"
                    }
                ],
                "uncleHeaders" : [
                ]
            }
        ],
        "genesisBlockHeader" : {
            "bloom" : "0x00000000000000000000000000000000000000000000000000000000000000000000000000000000000000000000000000000000000000000000000000000000000000000000000000000000000000000000000000000000000000000000000000000000000000000000000000000000000000000000000000000000000000000000000000000000000000000000000000000000000000000000000000000000000000000000000000000000000000000000000000000000000000000000000000000000000000000000000000000000000000000000000000000000000000000000000000000000000000000000000000000000000000000000000000000000",
            "coinbase" : "0x2adc25665018aa1fe0e6bc666dac8fc2697ff9ba",
            "difficulty" : "0x020000",
            "extraData" : "0x42",
            "gasLimit" : "0x989680",
            "gasUsed" : "0x00",
            "hash" : "0xb1176917a17d4f7f8a75810044be5c0ba8140b3be824ab3e9ecf82151d3d058c",
            "mixHash" : "0x56e81f171bcc55a6ff8345e692c0f86e5b48e01b996cadc001622fb5e363b421",
            "nonce" : "0x0102030405060708",
            "number" : "0x00",
            "parentHash" : "0x0000000000000000000000000000000000000000000000000000000000000000",
            "receiptTrie" : "0x56e81f171bcc55a6ff8345e692c0f86e5b48e01b996cadc001622fb5e363b421",
            "stateRoot" : "0x2d15ed9217f5c9b0b5f6110f2c8264aef25d16f0e1fae3f1078f2fbb74e6266f",
            "timestamp" : "0x03b6",
            "transactionsTrie" : "0x56e81f171bcc55a6ff8345e692c0f86e5b48e01b996cadc001622fb5e363b421",
            "uncleHash" : "0x1dcc4de8dec75d7aab85b567b6ccd41ad312451b948a7413f0a142fd40d49347"
        },
        "genesisRLP" : "0xf901faf901f5a00000000000000000000000000000000000000000000000000000000000000000a01dcc4de8dec75d7aab85b567b6ccd41ad312451b948a7413f0a142fd40d49347942adc25665018aa1fe0e6bc666dac8fc2697ff9baa02d15ed9217f5c9b0b5f6110f2c8264aef25d16f0e1fae3f1078f2fbb74e6266fa056e81f171bcc55a6ff8345e692c0f86e5b48e01b996cadc001622fb5e363b421a056e81f171bcc55a6ff8345e692c0f86e5b48e01b996cadc001622fb5e363b421b9010000000000000000000000000000000000000000000000000000000000000000000000000000000000000000000000000000000000000000000000000000000000000000000000000000000000000000000000000000000000000000000000000000000000000000000000000000000000000000000000000000000000000000000000000000000000000000000000000000000000000000000000000000000000000000000000000000000000000000000000000000000000000000000000000000000000000000000000000000000000000000000000000000000000000000000000000000000000000000000000000000000000000000000000000000000000830200008083989680808203b642a056e81f171bcc55a6ff8345e692c0f86e5b48e01b996cadc001622fb5e363b421880102030405060708c0c0",
        "lastblockhash" : "0xd850240023cdf5612b6204dcf4c39d2aff36b493828e9da6089a925be8359bf1",
        "network" : "Frontier",
        "postState" : {
            "0x095e7baea6a6c7c4c2dfeb977efac326af552d87" : {
                "balance" : "0x0132b3a0",
                "code" : "0x7fffffffffffffffffffffffffffffffffffffffffffffffffffffffffffffffff60005260206000620f4240600060006003611770f2600255600051600055",
                "nonce" : "0x00",
                "storage" : {
                    "0x00" : "0xffffffffffffffffffffffffffffffffffffffffffffffffffffffffffffffff"
                }
            },
            "0x2adc25665018aa1fe0e6bc666dac8fc2697ff9ba" : {
                "balance" : "0x456391824513543c",
                "code" : "",
                "nonce" : "0x00",
                "storage" : {
                }
            },
            "0xa94f5374fce5edbc8e2a8697c15331677e6ebf0b" : {
                "balance" : "0x0de0b6b3a7432524",
                "code" : "",
                "nonce" : "0x01",
                "storage" : {
                }
            }
        },
        "pre" : {
            "0x095e7baea6a6c7c4c2dfeb977efac326af552d87" : {
                "balance" : "0x01312d00",
                "code" : "0x7fffffffffffffffffffffffffffffffffffffffffffffffffffffffffffffffff60005260206000620f4240600060006003611770f2600255600051600055",
                "nonce" : "0x00",
                "storage" : {
                }
            },
            "0xa94f5374fce5edbc8e2a8697c15331677e6ebf0b" : {
                "balance" : "0x0de0b6b3a7640000",
                "code" : "",
                "nonce" : "0x00",
                "storage" : {
                }
            }
        }
    },
    "CALLCODERipemd160_5_d0g0v0_Homestead" : {
        "_info" : {
            "comment" : "",
            "filledwith" : "cpp-1.3.0+commit.4e101574.Linux.g++",
            "lllcversion" : "Version: 0.4.18-develop.2017.10.11+commit.81f9f86c.Linux.g++",
            "source" : "src/BlockchainTestsFiller/GeneralStateTests/stPreCompiledContracts2/CALLCODERipemd160_5_d0g0v0Filler.json",
            "sourceHash" : "3a724c5aaf844593a2531ca422df10e01f376447b5e8477baf9fb2d302585097"
        },
        "blocks" : [
            {
                "blockHeader" : {
                    "bloom" : "0x00000000000000000000000000000000000000000000000000000000000000000000000000000000000000000000000000000000000000000000000000000000000000000000000000000000000000000000000000000000000000000000000000000000000000000000000000000000000000000000000000000000000000000000000000000000000000000000000000000000000000000000000000000000000000000000000000000000000000000000000000000000000000000000000000000000000000000000000000000000000000000000000000000000000000000000000000000000000000000000000000000000000000000000000000000000",
                    "coinbase" : "0x2adc25665018aa1fe0e6bc666dac8fc2697ff9ba",
                    "difficulty" : "0x020000",
                    "extraData" : "",
                    "gasLimit" : "0x989680",
                    "gasUsed" : "0x1f543c",
                    "hash" : "0xbfe7417ff5a118a7f9f1a11141107f4bdd424430d72e104fba43e6e2422ca9e0",
                    "mixHash" : "0xbf15e36c3fa5dada95bfe3e2601162544689735ab4b897ce70300153f24226b5",
                    "nonce" : "0x1e3c8c9363d9eac3",
                    "number" : "0x01",
                    "parentHash" : "0xb1176917a17d4f7f8a75810044be5c0ba8140b3be824ab3e9ecf82151d3d058c",
                    "receiptTrie" : "0x231f4f7d14ebf14e207eeaf539095c1bb8ebbbb284ed8265c61058277fbd0dc5",
                    "stateRoot" : "0x89d056036038c883135802dfd1ad31b8fb5acdfacfae06aa2d2531a585c3e58f",
                    "timestamp" : "0x03e8",
                    "transactionsTrie" : "0x138e622ff34e8a4bed7c2631ee946b094d23bd208e8285e710fc5fa254318627",
                    "uncleHash" : "0x1dcc4de8dec75d7aab85b567b6ccd41ad312451b948a7413f0a142fd40d49347"
                },
                "rlp" : "0xf90263f901f8a0b1176917a17d4f7f8a75810044be5c0ba8140b3be824ab3e9ecf82151d3d058ca01dcc4de8dec75d7aab85b567b6ccd41ad312451b948a7413f0a142fd40d49347942adc25665018aa1fe0e6bc666dac8fc2697ff9baa089d056036038c883135802dfd1ad31b8fb5acdfacfae06aa2d2531a585c3e58fa0138e622ff34e8a4bed7c2631ee946b094d23bd208e8285e710fc5fa254318627a0231f4f7d14ebf14e207eeaf539095c1bb8ebbbb284ed8265c61058277fbd0dc5b9010000000000000000000000000000000000000000000000000000000000000000000000000000000000000000000000000000000000000000000000000000000000000000000000000000000000000000000000000000000000000000000000000000000000000000000000000000000000000000000000000000000000000000000000000000000000000000000000000000000000000000000000000000000000000000000000000000000000000000000000000000000000000000000000000000000000000000000000000000000000000000000000000000000000000000000000000000000000000000000000000000000000000000000000000000000000830200000183989680831f543c8203e880a0bf15e36c3fa5dada95bfe3e2601162544689735ab4b897ce70300153f24226b5881e3c8c9363d9eac3f865f86380018398968094095e7baea6a6c7c4c2dfeb977efac326af552d87830186a0801ca0c8c5469bcab2d89c9083cecdf26c9d3a9e40597d1d82744bc0e5e582f9dc48a4a0433eb07127e317522d4e08b89cd3824eee8bf1c75a2871db940e0c54d0dd09d2c0",
                "transactions" : [
                    {
                        "data" : "",
                        "gasLimit" : "0x989680",
                        "gasPrice" : "0x01",
                        "nonce" : "0x00",
                        "r" : "0xc8c5469bcab2d89c9083cecdf26c9d3a9e40597d1d82744bc0e5e582f9dc48a4",
                        "s" : "0x433eb07127e317522d4e08b89cd3824eee8bf1c75a2871db940e0c54d0dd09d2",
                        "to" : "0x095e7baea6a6c7c4c2dfeb977efac326af552d87",
                        "v" : "0x1c",
                        "value" : "0x0186a0"
                    }
                ],
                "uncleHeaders" : [
                ]
            }
        ],
        "genesisBlockHeader" : {
            "bloom" : "0x00000000000000000000000000000000000000000000000000000000000000000000000000000000000000000000000000000000000000000000000000000000000000000000000000000000000000000000000000000000000000000000000000000000000000000000000000000000000000000000000000000000000000000000000000000000000000000000000000000000000000000000000000000000000000000000000000000000000000000000000000000000000000000000000000000000000000000000000000000000000000000000000000000000000000000000000000000000000000000000000000000000000000000000000000000000",
            "coinbase" : "0x2adc25665018aa1fe0e6bc666dac8fc2697ff9ba",
            "difficulty" : "0x020000",
            "extraData" : "0x42",
            "gasLimit" : "0x989680",
            "gasUsed" : "0x00",
            "hash" : "0xb1176917a17d4f7f8a75810044be5c0ba8140b3be824ab3e9ecf82151d3d058c",
            "mixHash" : "0x56e81f171bcc55a6ff8345e692c0f86e5b48e01b996cadc001622fb5e363b421",
            "nonce" : "0x0102030405060708",
            "number" : "0x00",
            "parentHash" : "0x0000000000000000000000000000000000000000000000000000000000000000",
            "receiptTrie" : "0x56e81f171bcc55a6ff8345e692c0f86e5b48e01b996cadc001622fb5e363b421",
            "stateRoot" : "0x2d15ed9217f5c9b0b5f6110f2c8264aef25d16f0e1fae3f1078f2fbb74e6266f",
            "timestamp" : "0x03b6",
            "transactionsTrie" : "0x56e81f171bcc55a6ff8345e692c0f86e5b48e01b996cadc001622fb5e363b421",
            "uncleHash" : "0x1dcc4de8dec75d7aab85b567b6ccd41ad312451b948a7413f0a142fd40d49347"
        },
        "genesisRLP" : "0xf901faf901f5a00000000000000000000000000000000000000000000000000000000000000000a01dcc4de8dec75d7aab85b567b6ccd41ad312451b948a7413f0a142fd40d49347942adc25665018aa1fe0e6bc666dac8fc2697ff9baa02d15ed9217f5c9b0b5f6110f2c8264aef25d16f0e1fae3f1078f2fbb74e6266fa056e81f171bcc55a6ff8345e692c0f86e5b48e01b996cadc001622fb5e363b421a056e81f171bcc55a6ff8345e692c0f86e5b48e01b996cadc001622fb5e363b421b9010000000000000000000000000000000000000000000000000000000000000000000000000000000000000000000000000000000000000000000000000000000000000000000000000000000000000000000000000000000000000000000000000000000000000000000000000000000000000000000000000000000000000000000000000000000000000000000000000000000000000000000000000000000000000000000000000000000000000000000000000000000000000000000000000000000000000000000000000000000000000000000000000000000000000000000000000000000000000000000000000000000000000000000000000000000000830200008083989680808203b642a056e81f171bcc55a6ff8345e692c0f86e5b48e01b996cadc001622fb5e363b421880102030405060708c0c0",
        "lastblockhash" : "0xbfe7417ff5a118a7f9f1a11141107f4bdd424430d72e104fba43e6e2422ca9e0",
        "network" : "Homestead",
        "postState" : {
            "0x095e7baea6a6c7c4c2dfeb977efac326af552d87" : {
                "balance" : "0x0132b3a0",
                "code" : "0x7fffffffffffffffffffffffffffffffffffffffffffffffffffffffffffffffff60005260206000620f4240600060006003611770f2600255600051600055",
                "nonce" : "0x00",
                "storage" : {
                    "0x00" : "0xffffffffffffffffffffffffffffffffffffffffffffffffffffffffffffffff"
                }
            },
            "0x2adc25665018aa1fe0e6bc666dac8fc2697ff9ba" : {
                "balance" : "0x456391824513543c",
                "code" : "",
                "nonce" : "0x00",
                "storage" : {
                }
            },
            "0xa94f5374fce5edbc8e2a8697c15331677e6ebf0b" : {
                "balance" : "0x0de0b6b3a7432524",
                "code" : "",
                "nonce" : "0x01",
                "storage" : {
                }
            }
        },
        "pre" : {
            "0x095e7baea6a6c7c4c2dfeb977efac326af552d87" : {
                "balance" : "0x01312d00",
                "code" : "0x7fffffffffffffffffffffffffffffffffffffffffffffffffffffffffffffffff60005260206000620f4240600060006003611770f2600255600051600055",
                "nonce" : "0x00",
                "storage" : {
                }
            },
            "0xa94f5374fce5edbc8e2a8697c15331677e6ebf0b" : {
                "balance" : "0x0de0b6b3a7640000",
                "code" : "",
                "nonce" : "0x00",
                "storage" : {
                }
            }
        }
    }
}