{
    "modexpRandomInput_d0g0v0_Byzantium" : {
        "_info" : {
            "comment" : "",
            "filledwith" : "cpp-1.3.0+commit.72502df4.Linux.g++",
            "lllcversion" : "Version: 0.4.18-develop.2017.10.11+commit.81f9f86c.Linux.g++",
            "source" : "src/BlockchainTestsFiller/GeneralStateTests/stPreCompiledContracts2/modexpRandomInput_d0g0v0Filler.json",
            "sourceHash" : "ee4521043fe99bb55fd3319b7025738e715303681c77f7b3dfcd7fa5bbf14b79"
        },
        "blocks" : [
            {
                "blockHeader" : {
                    "bloom" : "0x00000000000000000000000000000000000000000000000000000000000000000000000000000000000000000000000000000000000000000000000000000000000000000000000000000000000000000000000000000000000000000000000000000000000000000000000000000000000000000000000000000000000000000000000000000000000000000000000000000000000000000000000000000000000000000000000000000000000000000000000000000000000000000000000000000000000000000000000000000000000000000000000000000000000000000000000000000000000000000000000000000000000000000000000000000000",
                    "coinbase" : "0x3535353535353535353535353535353535353535",
                    "difficulty" : "0x020000",
                    "extraData" : "",
                    "gasLimit" : "0x05f5e100",
                    "gasUsed" : "0x5958",
                    "hash" : "0xd07f90796e67ebb0468a0eeb941893aa48600140ea737367777419db0519f1e4",
                    "mixHash" : "0x63ea1f452822d3f8f4ce495ca233b9811ba51ffd83ac6f0c478d4a8b8bf2b1b2",
                    "nonce" : "0x53a1c4f74817fb72",
                    "number" : "0x01",
                    "parentHash" : "0x4b56dd4fada98cf6fd1120843082bf1765b4d9e183bb9f233d01033f2baf851c",
                    "receiptTrie" : "0xf1098edc18bb71db4ebed7b64e8376f33d37ea4bca940e6803ba4a2adb15f20e",
                    "stateRoot" : "0x51cefcefcfea4dd46f8aa0bbb556a6a7fc6709273a6f773bdc3e63bd8b8fbb1d",
                    "timestamp" : "0x03e8",
                    "transactionsTrie" : "0xee8f80741f9e3be1e78bc6188bcfcde55b9c9d7fc41a5861a4c43cb8734e841c",
                    "uncleHash" : "0x1dcc4de8dec75d7aab85b567b6ccd41ad312451b948a7413f0a142fd40d49347"
                },
                "rlp" : "0xf9029af901f8a04b56dd4fada98cf6fd1120843082bf1765b4d9e183bb9f233d01033f2baf851ca01dcc4de8dec75d7aab85b567b6ccd41ad312451b948a7413f0a142fd40d49347943535353535353535353535353535353535353535a051cefcefcfea4dd46f8aa0bbb556a6a7fc6709273a6f773bdc3e63bd8b8fbb1da0ee8f80741f9e3be1e78bc6188bcfcde55b9c9d7fc41a5861a4c43cb8734e841ca0f1098edc18bb71db4ebed7b64e8376f33d37ea4bca940e6803ba4a2adb15f20eb901000000000000000000000000000000000000000000000000000000000000000000000000000000000000000000000000000000000000000000000000000000000000000000000000000000000000000000000000000000000000000000000000000000000000000000000000000000000000000000000000000000000000000000000000000000000000000000000000000000000000000000000000000000000000000000000000000000000000000000000000000000000000000000000000000000000000000000000000000000000000000000000000000000000000000000000000000000000000000000000000000000000000000000000000000000000083020000018405f5e1008259588203e880a063ea1f452822d3f8f4ce495ca233b9811ba51ffd83ac6f0c478d4a8b8bf2b1b28853a1c4f74817fb72f89cf89a8001830ad57094000000000000000000000000000000000000000580b83900000000000000000000000000000000000000000000000000000000000000e3000000000000000000000000000000000000000000000000001ba041fd5511dbb403047bc5498f30d75f2dd2fdeac98a103807c31900eb17bc10efa00bb0349ba6a48b040494133fba7cdcf86ab4ab130f0a570fea91569622e9612fc0",
                "transactions" : [
                    {
                        "data" : "0x00000000000000000000000000000000000000000000000000000000000000e300000000000000000000000000000000000000000000000000",
                        "gasLimit" : "0x0ad570",
                        "gasPrice" : "0x01",
                        "nonce" : "0x00",
                        "r" : "0x41fd5511dbb403047bc5498f30d75f2dd2fdeac98a103807c31900eb17bc10ef",
                        "s" : "0x0bb0349ba6a48b040494133fba7cdcf86ab4ab130f0a570fea91569622e9612f",
                        "to" : "0x0000000000000000000000000000000000000005",
                        "v" : "0x1b",
                        "value" : "0x00"
                    }
                ],
                "uncleHeaders" : [
                ]
            }
        ],
        "genesisBlockHeader" : {
            "bloom" : "0x00000000000000000000000000000000000000000000000000000000000000000000000000000000000000000000000000000000000000000000000000000000000000000000000000000000000000000000000000000000000000000000000000000000000000000000000000000000000000000000000000000000000000000000000000000000000000000000000000000000000000000000000000000000000000000000000000000000000000000000000000000000000000000000000000000000000000000000000000000000000000000000000000000000000000000000000000000000000000000000000000000000000000000000000000000000",
            "coinbase" : "0x3535353535353535353535353535353535353535",
            "difficulty" : "0x020000",
            "extraData" : "0x42",
            "gasLimit" : "0x05f5e100",
            "gasUsed" : "0x00",
            "hash" : "0x4b56dd4fada98cf6fd1120843082bf1765b4d9e183bb9f233d01033f2baf851c",
            "mixHash" : "0x56e81f171bcc55a6ff8345e692c0f86e5b48e01b996cadc001622fb5e363b421",
            "nonce" : "0x0102030405060708",
            "number" : "0x00",
            "parentHash" : "0x0000000000000000000000000000000000000000000000000000000000000000",
            "receiptTrie" : "0x56e81f171bcc55a6ff8345e692c0f86e5b48e01b996cadc001622fb5e363b421",
            "stateRoot" : "0x70c42824108fafccadbfce71e6e22660c4fad89be18be324cd15ef351969a8c8",
            "timestamp" : "0x03b6",
            "transactionsTrie" : "0x56e81f171bcc55a6ff8345e692c0f86e5b48e01b996cadc001622fb5e363b421",
            "uncleHash" : "0x1dcc4de8dec75d7aab85b567b6ccd41ad312451b948a7413f0a142fd40d49347"
        },
        "genesisRLP" : "0xf901fbf901f6a00000000000000000000000000000000000000000000000000000000000000000a01dcc4de8dec75d7aab85b567b6ccd41ad312451b948a7413f0a142fd40d49347943535353535353535353535353535353535353535a070c42824108fafccadbfce71e6e22660c4fad89be18be324cd15ef351969a8c8a056e81f171bcc55a6ff8345e692c0f86e5b48e01b996cadc001622fb5e363b421a056e81f171bcc55a6ff8345e692c0f86e5b48e01b996cadc001622fb5e363b421b901000000000000000000000000000000000000000000000000000000000000000000000000000000000000000000000000000000000000000000000000000000000000000000000000000000000000000000000000000000000000000000000000000000000000000000000000000000000000000000000000000000000000000000000000000000000000000000000000000000000000000000000000000000000000000000000000000000000000000000000000000000000000000000000000000000000000000000000000000000000000000000000000000000000000000000000000000000000000000000000000000000000000000000000000000000000083020000808405f5e100808203b642a056e81f171bcc55a6ff8345e692c0f86e5b48e01b996cadc001622fb5e363b421880102030405060708c0c0",
        "lastblockhash" : "0xd07f90796e67ebb0468a0eeb941893aa48600140ea737367777419db0519f1e4",
        "network" : "Byzantium",
        "postState" : {
            "0x3535353535353535353535353535353535353535" : {
                "balance" : "0x29a2241af62c5958",
                "code" : "",
                "nonce" : "0x00",
                "storage" : {
                }
            },
            "0xa94f5374fce5edbc8e2a8697c15331677e6ebf0b" : {
                "balance" : "0x3635c9adc5de9fa6a8",
                "code" : "",
                "nonce" : "0x01",
                "storage" : {
                }
            }
        },
        "pre" : {
            "0xa94f5374fce5edbc8e2a8697c15331677e6ebf0b" : {
                "balance" : "0x3635c9adc5dea00000",
                "code" : "",
                "nonce" : "0x00",
                "storage" : {
                }
            }
        }
    },
    "modexpRandomInput_d0g0v0_Constantinople" : {
        "_info" : {
            "comment" : "",
            "filledwith" : "cpp-1.3.0+commit.72502df4.Linux.g++",
            "lllcversion" : "Version: 0.4.18-develop.2017.10.11+commit.81f9f86c.Linux.g++",
            "source" : "src/BlockchainTestsFiller/GeneralStateTests/stPreCompiledContracts2/modexpRandomInput_d0g0v0Filler.json",
            "sourceHash" : "ee4521043fe99bb55fd3319b7025738e715303681c77f7b3dfcd7fa5bbf14b79"
        },
        "blocks" : [
            {
                "blockHeader" : {
                    "bloom" : "0x00000000000000000000000000000000000000000000000000000000000000000000000000000000000000000000000000000000000000000000000000000000000000000000000000000000000000000000000000000000000000000000000000000000000000000000000000000000000000000000000000000000000000000000000000000000000000000000000000000000000000000000000000000000000000000000000000000000000000000000000000000000000000000000000000000000000000000000000000000000000000000000000000000000000000000000000000000000000000000000000000000000000000000000000000000000",
                    "coinbase" : "0x3535353535353535353535353535353535353535",
                    "difficulty" : "0x020000",
                    "extraData" : "",
                    "gasLimit" : "0x05f5e100",
                    "gasUsed" : "0x5958",
                    "hash" : "0xfb25aba63f054c9af4fdecd536e140193f27dc271b932d06513ef070b3ad9cbb",
                    "mixHash" : "0x09ee708723211bfe688842ca36df55a3e226109c50c858d03df356598ce5ffe0",
                    "nonce" : "0xc01d109d476370a8",
                    "number" : "0x01",
                    "parentHash" : "0x4b56dd4fada98cf6fd1120843082bf1765b4d9e183bb9f233d01033f2baf851c",
                    "receiptTrie" : "0xf1098edc18bb71db4ebed7b64e8376f33d37ea4bca940e6803ba4a2adb15f20e",
                    "stateRoot" : "0x51cefcefcfea4dd46f8aa0bbb556a6a7fc6709273a6f773bdc3e63bd8b8fbb1d",
                    "timestamp" : "0x03e8",
                    "transactionsTrie" : "0xee8f80741f9e3be1e78bc6188bcfcde55b9c9d7fc41a5861a4c43cb8734e841c",
                    "uncleHash" : "0x1dcc4de8dec75d7aab85b567b6ccd41ad312451b948a7413f0a142fd40d49347"
                },
                "rlp" : "0xf9029af901f8a04b56dd4fada98cf6fd1120843082bf1765b4d9e183bb9f233d01033f2baf851ca01dcc4de8dec75d7aab85b567b6ccd41ad312451b948a7413f0a142fd40d49347943535353535353535353535353535353535353535a051cefcefcfea4dd46f8aa0bbb556a6a7fc6709273a6f773bdc3e63bd8b8fbb1da0ee8f80741f9e3be1e78bc6188bcfcde55b9c9d7fc41a5861a4c43cb8734e841ca0f1098edc18bb71db4ebed7b64e8376f33d37ea4bca940e6803ba4a2adb15f20eb901000000000000000000000000000000000000000000000000000000000000000000000000000000000000000000000000000000000000000000000000000000000000000000000000000000000000000000000000000000000000000000000000000000000000000000000000000000000000000000000000000000000000000000000000000000000000000000000000000000000000000000000000000000000000000000000000000000000000000000000000000000000000000000000000000000000000000000000000000000000000000000000000000000000000000000000000000000000000000000000000000000000000000000000000000000000083020000018405f5e1008259588203e880a009ee708723211bfe688842ca36df55a3e226109c50c858d03df356598ce5ffe088c01d109d476370a8f89cf89a8001830ad57094000000000000000000000000000000000000000580b83900000000000000000000000000000000000000000000000000000000000000e3000000000000000000000000000000000000000000000000001ba041fd5511dbb403047bc5498f30d75f2dd2fdeac98a103807c31900eb17bc10efa00bb0349ba6a48b040494133fba7cdcf86ab4ab130f0a570fea91569622e9612fc0",
                "transactions" : [
                    {
                        "data" : "0x00000000000000000000000000000000000000000000000000000000000000e300000000000000000000000000000000000000000000000000",
                        "gasLimit" : "0x0ad570",
                        "gasPrice" : "0x01",
                        "nonce" : "0x00",
                        "r" : "0x41fd5511dbb403047bc5498f30d75f2dd2fdeac98a103807c31900eb17bc10ef",
                        "s" : "0x0bb0349ba6a48b040494133fba7cdcf86ab4ab130f0a570fea91569622e9612f",
                        "to" : "0x0000000000000000000000000000000000000005",
                        "v" : "0x1b",
                        "value" : "0x00"
                    }
                ],
                "uncleHeaders" : [
                ]
            }
        ],
        "genesisBlockHeader" : {
            "bloom" : "0x00000000000000000000000000000000000000000000000000000000000000000000000000000000000000000000000000000000000000000000000000000000000000000000000000000000000000000000000000000000000000000000000000000000000000000000000000000000000000000000000000000000000000000000000000000000000000000000000000000000000000000000000000000000000000000000000000000000000000000000000000000000000000000000000000000000000000000000000000000000000000000000000000000000000000000000000000000000000000000000000000000000000000000000000000000000",
            "coinbase" : "0x3535353535353535353535353535353535353535",
            "difficulty" : "0x020000",
            "extraData" : "0x42",
            "gasLimit" : "0x05f5e100",
            "gasUsed" : "0x00",
            "hash" : "0x4b56dd4fada98cf6fd1120843082bf1765b4d9e183bb9f233d01033f2baf851c",
            "mixHash" : "0x56e81f171bcc55a6ff8345e692c0f86e5b48e01b996cadc001622fb5e363b421",
            "nonce" : "0x0102030405060708",
            "number" : "0x00",
            "parentHash" : "0x0000000000000000000000000000000000000000000000000000000000000000",
            "receiptTrie" : "0x56e81f171bcc55a6ff8345e692c0f86e5b48e01b996cadc001622fb5e363b421",
            "stateRoot" : "0x70c42824108fafccadbfce71e6e22660c4fad89be18be324cd15ef351969a8c8",
            "timestamp" : "0x03b6",
            "transactionsTrie" : "0x56e81f171bcc55a6ff8345e692c0f86e5b48e01b996cadc001622fb5e363b421",
            "uncleHash" : "0x1dcc4de8dec75d7aab85b567b6ccd41ad312451b948a7413f0a142fd40d49347"
        },
        "genesisRLP" : "0xf901fbf901f6a00000000000000000000000000000000000000000000000000000000000000000a01dcc4de8dec75d7aab85b567b6ccd41ad312451b948a7413f0a142fd40d49347943535353535353535353535353535353535353535a070c42824108fafccadbfce71e6e22660c4fad89be18be324cd15ef351969a8c8a056e81f171bcc55a6ff8345e692c0f86e5b48e01b996cadc001622fb5e363b421a056e81f171bcc55a6ff8345e692c0f86e5b48e01b996cadc001622fb5e363b421b901000000000000000000000000000000000000000000000000000000000000000000000000000000000000000000000000000000000000000000000000000000000000000000000000000000000000000000000000000000000000000000000000000000000000000000000000000000000000000000000000000000000000000000000000000000000000000000000000000000000000000000000000000000000000000000000000000000000000000000000000000000000000000000000000000000000000000000000000000000000000000000000000000000000000000000000000000000000000000000000000000000000000000000000000000000000083020000808405f5e100808203b642a056e81f171bcc55a6ff8345e692c0f86e5b48e01b996cadc001622fb5e363b421880102030405060708c0c0",
        "lastblockhash" : "0xfb25aba63f054c9af4fdecd536e140193f27dc271b932d06513ef070b3ad9cbb",
        "network" : "Constantinople",
        "postState" : {
            "0x3535353535353535353535353535353535353535" : {
                "balance" : "0x29a2241af62c5958",
                "code" : "",
                "nonce" : "0x00",
                "storage" : {
                }
            },
            "0xa94f5374fce5edbc8e2a8697c15331677e6ebf0b" : {
                "balance" : "0x3635c9adc5de9fa6a8",
                "code" : "",
                "nonce" : "0x01",
                "storage" : {
                }
            }
        },
        "pre" : {
            "0xa94f5374fce5edbc8e2a8697c15331677e6ebf0b" : {
                "balance" : "0x3635c9adc5dea00000",
                "code" : "",
                "nonce" : "0x00",
                "storage" : {
                }
            }
        }
    },
    "modexpRandomInput_d0g0v0_EIP150" : {
        "_info" : {
            "comment" : "",
            "filledwith" : "cpp-1.3.0+commit.72502df4.Linux.g++",
            "lllcversion" : "Version: 0.4.18-develop.2017.10.11+commit.81f9f86c.Linux.g++",
            "source" : "src/BlockchainTestsFiller/GeneralStateTests/stPreCompiledContracts2/modexpRandomInput_d0g0v0Filler.json",
            "sourceHash" : "ee4521043fe99bb55fd3319b7025738e715303681c77f7b3dfcd7fa5bbf14b79"
        },
        "blocks" : [
            {
                "blockHeader" : {
                    "bloom" : "0x00000000000000000000000000000000000000000000000000000000000000000000000000000000000000000000000000000000000000000000000000000000000000000000000000000000000000000000000000000000000000000000000000000000000000000000000000000000000000000000000000000000000000000000000000000000000000000000000000000000000000000000000000000000000000000000000000000000000000000000000000000000000000000000000000000000000000000000000000000000000000000000000000000000000000000000000000000000000000000000000000000000000000000000000000000000",
                    "coinbase" : "0x3535353535353535353535353535353535353535",
                    "difficulty" : "0x020000",
                    "extraData" : "",
                    "gasLimit" : "0x05f5e100",
                    "gasUsed" : "0x532c",
                    "hash" : "0x31108cc8295bc723a033b4c32a637bf8677180768f1cb63e29dea726fe5a3e5c",
                    "mixHash" : "0x9cb4ddb893b91b3b1faa5025683a05b3e22fa1be21aecec562082af1b3883d54",
                    "nonce" : "0xbd48afd35aa5bb94",
                    "number" : "0x01",
                    "parentHash" : "0x4b56dd4fada98cf6fd1120843082bf1765b4d9e183bb9f233d01033f2baf851c",
                    "receiptTrie" : "0x6f8f390d099bfe2947d93f4e1d803c1f9aacfeec5224111dba783618be02c218",
                    "stateRoot" : "0x517c142b4dee10ffe0a995b3b2f624fda66fb4703e492b553d49826ef05ad901",
                    "timestamp" : "0x03e8",
                    "transactionsTrie" : "0xee8f80741f9e3be1e78bc6188bcfcde55b9c9d7fc41a5861a4c43cb8734e841c",
                    "uncleHash" : "0x1dcc4de8dec75d7aab85b567b6ccd41ad312451b948a7413f0a142fd40d49347"
                },
                "rlp" : "0xf9029af901f8a04b56dd4fada98cf6fd1120843082bf1765b4d9e183bb9f233d01033f2baf851ca01dcc4de8dec75d7aab85b567b6ccd41ad312451b948a7413f0a142fd40d49347943535353535353535353535353535353535353535a0517c142b4dee10ffe0a995b3b2f624fda66fb4703e492b553d49826ef05ad901a0ee8f80741f9e3be1e78bc6188bcfcde55b9c9d7fc41a5861a4c43cb8734e841ca06f8f390d099bfe2947d93f4e1d803c1f9aacfeec5224111dba783618be02c218b901000000000000000000000000000000000000000000000000000000000000000000000000000000000000000000000000000000000000000000000000000000000000000000000000000000000000000000000000000000000000000000000000000000000000000000000000000000000000000000000000000000000000000000000000000000000000000000000000000000000000000000000000000000000000000000000000000000000000000000000000000000000000000000000000000000000000000000000000000000000000000000000000000000000000000000000000000000000000000000000000000000000000000000000000000000000083020000018405f5e10082532c8203e880a09cb4ddb893b91b3b1faa5025683a05b3e22fa1be21aecec562082af1b3883d5488bd48afd35aa5bb94f89cf89a8001830ad57094000000000000000000000000000000000000000580b83900000000000000000000000000000000000000000000000000000000000000e3000000000000000000000000000000000000000000000000001ba041fd5511dbb403047bc5498f30d75f2dd2fdeac98a103807c31900eb17bc10efa00bb0349ba6a48b040494133fba7cdcf86ab4ab130f0a570fea91569622e9612fc0",
                "transactions" : [
                    {
                        "data" : "0x00000000000000000000000000000000000000000000000000000000000000e300000000000000000000000000000000000000000000000000",
                        "gasLimit" : "0x0ad570",
                        "gasPrice" : "0x01",
                        "nonce" : "0x00",
                        "r" : "0x41fd5511dbb403047bc5498f30d75f2dd2fdeac98a103807c31900eb17bc10ef",
                        "s" : "0x0bb0349ba6a48b040494133fba7cdcf86ab4ab130f0a570fea91569622e9612f",
                        "to" : "0x0000000000000000000000000000000000000005",
                        "v" : "0x1b",
                        "value" : "0x00"
                    }
                ],
                "uncleHeaders" : [
                ]
            }
        ],
        "genesisBlockHeader" : {
            "bloom" : "0x00000000000000000000000000000000000000000000000000000000000000000000000000000000000000000000000000000000000000000000000000000000000000000000000000000000000000000000000000000000000000000000000000000000000000000000000000000000000000000000000000000000000000000000000000000000000000000000000000000000000000000000000000000000000000000000000000000000000000000000000000000000000000000000000000000000000000000000000000000000000000000000000000000000000000000000000000000000000000000000000000000000000000000000000000000000",
            "coinbase" : "0x3535353535353535353535353535353535353535",
            "difficulty" : "0x020000",
            "extraData" : "0x42",
            "gasLimit" : "0x05f5e100",
            "gasUsed" : "0x00",
            "hash" : "0x4b56dd4fada98cf6fd1120843082bf1765b4d9e183bb9f233d01033f2baf851c",
            "mixHash" : "0x56e81f171bcc55a6ff8345e692c0f86e5b48e01b996cadc001622fb5e363b421",
            "nonce" : "0x0102030405060708",
            "number" : "0x00",
            "parentHash" : "0x0000000000000000000000000000000000000000000000000000000000000000",
            "receiptTrie" : "0x56e81f171bcc55a6ff8345e692c0f86e5b48e01b996cadc001622fb5e363b421",
            "stateRoot" : "0x70c42824108fafccadbfce71e6e22660c4fad89be18be324cd15ef351969a8c8",
            "timestamp" : "0x03b6",
            "transactionsTrie" : "0x56e81f171bcc55a6ff8345e692c0f86e5b48e01b996cadc001622fb5e363b421",
            "uncleHash" : "0x1dcc4de8dec75d7aab85b567b6ccd41ad312451b948a7413f0a142fd40d49347"
        },
        "genesisRLP" : "0xf901fbf901f6a00000000000000000000000000000000000000000000000000000000000000000a01dcc4de8dec75d7aab85b567b6ccd41ad312451b948a7413f0a142fd40d49347943535353535353535353535353535353535353535a070c42824108fafccadbfce71e6e22660c4fad89be18be324cd15ef351969a8c8a056e81f171bcc55a6ff8345e692c0f86e5b48e01b996cadc001622fb5e363b421a056e81f171bcc55a6ff8345e692c0f86e5b48e01b996cadc001622fb5e363b421b901000000000000000000000000000000000000000000000000000000000000000000000000000000000000000000000000000000000000000000000000000000000000000000000000000000000000000000000000000000000000000000000000000000000000000000000000000000000000000000000000000000000000000000000000000000000000000000000000000000000000000000000000000000000000000000000000000000000000000000000000000000000000000000000000000000000000000000000000000000000000000000000000000000000000000000000000000000000000000000000000000000000000000000000000000000000083020000808405f5e100808203b642a056e81f171bcc55a6ff8345e692c0f86e5b48e01b996cadc001622fb5e363b421880102030405060708c0c0",
        "lastblockhash" : "0x31108cc8295bc723a033b4c32a637bf8677180768f1cb63e29dea726fe5a3e5c",
        "network" : "EIP150",
        "postState" : {
            "0x0000000000000000000000000000000000000005" : {
                "balance" : "0x00",
                "code" : "",
                "nonce" : "0x00",
                "storage" : {
                }
            },
            "0x3535353535353535353535353535353535353535" : {
                "balance" : "0x4563918244f4532c",
                "code" : "",
                "nonce" : "0x00",
                "storage" : {
                }
            },
            "0xa94f5374fce5edbc8e2a8697c15331677e6ebf0b" : {
                "balance" : "0x3635c9adc5de9facd4",
                "code" : "",
                "nonce" : "0x01",
                "storage" : {
                }
            }
        },
        "pre" : {
            "0xa94f5374fce5edbc8e2a8697c15331677e6ebf0b" : {
                "balance" : "0x3635c9adc5dea00000",
                "code" : "",
                "nonce" : "0x00",
                "storage" : {
                }
            }
        }
    },
    "modexpRandomInput_d0g0v0_EIP158" : {
        "_info" : {
            "comment" : "",
            "filledwith" : "cpp-1.3.0+commit.72502df4.Linux.g++",
            "lllcversion" : "Version: 0.4.18-develop.2017.10.11+commit.81f9f86c.Linux.g++",
            "source" : "src/BlockchainTestsFiller/GeneralStateTests/stPreCompiledContracts2/modexpRandomInput_d0g0v0Filler.json",
            "sourceHash" : "ee4521043fe99bb55fd3319b7025738e715303681c77f7b3dfcd7fa5bbf14b79"
        },
        "blocks" : [
            {
                "blockHeader" : {
                    "bloom" : "0x00000000000000000000000000000000000000000000000000000000000000000000000000000000000000000000000000000000000000000000000000000000000000000000000000000000000000000000000000000000000000000000000000000000000000000000000000000000000000000000000000000000000000000000000000000000000000000000000000000000000000000000000000000000000000000000000000000000000000000000000000000000000000000000000000000000000000000000000000000000000000000000000000000000000000000000000000000000000000000000000000000000000000000000000000000000",
                    "coinbase" : "0x3535353535353535353535353535353535353535",
                    "difficulty" : "0x020000",
                    "extraData" : "",
                    "gasLimit" : "0x05f5e100",
                    "gasUsed" : "0x532c",
                    "hash" : "0xb632364a969d78b3e76cb2dbf4654ac242c0fd1e2c139c5123b4fc55cc64f96d",
                    "mixHash" : "0xff8550ff7f87e887a6110930044c1b6f3a1adb4a60455765b7709d99fde264ee",
                    "nonce" : "0x4ea863c78f9cfb1b",
                    "number" : "0x01",
                    "parentHash" : "0x4b56dd4fada98cf6fd1120843082bf1765b4d9e183bb9f233d01033f2baf851c",
                    "receiptTrie" : "0x0e6832bc9b6017350e4ad728b83fa6c0d2ae825dd7e6278435a65cf1d94e13bf",
                    "stateRoot" : "0xedd656043a22dc6ec3c481395858d8c8463e911a3c3394d1192ffffbb33c56ba",
                    "timestamp" : "0x03e8",
                    "transactionsTrie" : "0xee8f80741f9e3be1e78bc6188bcfcde55b9c9d7fc41a5861a4c43cb8734e841c",
                    "uncleHash" : "0x1dcc4de8dec75d7aab85b567b6ccd41ad312451b948a7413f0a142fd40d49347"
                },
                "rlp" : "0xf9029af901f8a04b56dd4fada98cf6fd1120843082bf1765b4d9e183bb9f233d01033f2baf851ca01dcc4de8dec75d7aab85b567b6ccd41ad312451b948a7413f0a142fd40d49347943535353535353535353535353535353535353535a0edd656043a22dc6ec3c481395858d8c8463e911a3c3394d1192ffffbb33c56baa0ee8f80741f9e3be1e78bc6188bcfcde55b9c9d7fc41a5861a4c43cb8734e841ca00e6832bc9b6017350e4ad728b83fa6c0d2ae825dd7e6278435a65cf1d94e13bfb901000000000000000000000000000000000000000000000000000000000000000000000000000000000000000000000000000000000000000000000000000000000000000000000000000000000000000000000000000000000000000000000000000000000000000000000000000000000000000000000000000000000000000000000000000000000000000000000000000000000000000000000000000000000000000000000000000000000000000000000000000000000000000000000000000000000000000000000000000000000000000000000000000000000000000000000000000000000000000000000000000000000000000000000000000000000083020000018405f5e10082532c8203e880a0ff8550ff7f87e887a6110930044c1b6f3a1adb4a60455765b7709d99fde264ee884ea863c78f9cfb1bf89cf89a8001830ad57094000000000000000000000000000000000000000580b83900000000000000000000000000000000000000000000000000000000000000e3000000000000000000000000000000000000000000000000001ba041fd5511dbb403047bc5498f30d75f2dd2fdeac98a103807c31900eb17bc10efa00bb0349ba6a48b040494133fba7cdcf86ab4ab130f0a570fea91569622e9612fc0",
                "transactions" : [
                    {
                        "data" : "0x00000000000000000000000000000000000000000000000000000000000000e300000000000000000000000000000000000000000000000000",
                        "gasLimit" : "0x0ad570",
                        "gasPrice" : "0x01",
                        "nonce" : "0x00",
                        "r" : "0x41fd5511dbb403047bc5498f30d75f2dd2fdeac98a103807c31900eb17bc10ef",
                        "s" : "0x0bb0349ba6a48b040494133fba7cdcf86ab4ab130f0a570fea91569622e9612f",
                        "to" : "0x0000000000000000000000000000000000000005",
                        "v" : "0x1b",
                        "value" : "0x00"
                    }
                ],
                "uncleHeaders" : [
                ]
            }
        ],
        "genesisBlockHeader" : {
            "bloom" : "0x00000000000000000000000000000000000000000000000000000000000000000000000000000000000000000000000000000000000000000000000000000000000000000000000000000000000000000000000000000000000000000000000000000000000000000000000000000000000000000000000000000000000000000000000000000000000000000000000000000000000000000000000000000000000000000000000000000000000000000000000000000000000000000000000000000000000000000000000000000000000000000000000000000000000000000000000000000000000000000000000000000000000000000000000000000000",
            "coinbase" : "0x3535353535353535353535353535353535353535",
            "difficulty" : "0x020000",
            "extraData" : "0x42",
            "gasLimit" : "0x05f5e100",
            "gasUsed" : "0x00",
            "hash" : "0x4b56dd4fada98cf6fd1120843082bf1765b4d9e183bb9f233d01033f2baf851c",
            "mixHash" : "0x56e81f171bcc55a6ff8345e692c0f86e5b48e01b996cadc001622fb5e363b421",
            "nonce" : "0x0102030405060708",
            "number" : "0x00",
            "parentHash" : "0x0000000000000000000000000000000000000000000000000000000000000000",
            "receiptTrie" : "0x56e81f171bcc55a6ff8345e692c0f86e5b48e01b996cadc001622fb5e363b421",
            "stateRoot" : "0x70c42824108fafccadbfce71e6e22660c4fad89be18be324cd15ef351969a8c8",
            "timestamp" : "0x03b6",
            "transactionsTrie" : "0x56e81f171bcc55a6ff8345e692c0f86e5b48e01b996cadc001622fb5e363b421",
            "uncleHash" : "0x1dcc4de8dec75d7aab85b567b6ccd41ad312451b948a7413f0a142fd40d49347"
        },
        "genesisRLP" : "0xf901fbf901f6a00000000000000000000000000000000000000000000000000000000000000000a01dcc4de8dec75d7aab85b567b6ccd41ad312451b948a7413f0a142fd40d49347943535353535353535353535353535353535353535a070c42824108fafccadbfce71e6e22660c4fad89be18be324cd15ef351969a8c8a056e81f171bcc55a6ff8345e692c0f86e5b48e01b996cadc001622fb5e363b421a056e81f171bcc55a6ff8345e692c0f86e5b48e01b996cadc001622fb5e363b421b901000000000000000000000000000000000000000000000000000000000000000000000000000000000000000000000000000000000000000000000000000000000000000000000000000000000000000000000000000000000000000000000000000000000000000000000000000000000000000000000000000000000000000000000000000000000000000000000000000000000000000000000000000000000000000000000000000000000000000000000000000000000000000000000000000000000000000000000000000000000000000000000000000000000000000000000000000000000000000000000000000000000000000000000000000000000083020000808405f5e100808203b642a056e81f171bcc55a6ff8345e692c0f86e5b48e01b996cadc001622fb5e363b421880102030405060708c0c0",
        "lastblockhash" : "0xb632364a969d78b3e76cb2dbf4654ac242c0fd1e2c139c5123b4fc55cc64f96d",
        "network" : "EIP158",
        "postState" : {
            "0x3535353535353535353535353535353535353535" : {
                "balance" : "0x4563918244f4532c",
                "code" : "",
                "nonce" : "0x00",
                "storage" : {
                }
            },
            "0xa94f5374fce5edbc8e2a8697c15331677e6ebf0b" : {
                "balance" : "0x3635c9adc5de9facd4",
                "code" : "",
                "nonce" : "0x01",
                "storage" : {
                }
            }
        },
        "pre" : {
            "0xa94f5374fce5edbc8e2a8697c15331677e6ebf0b" : {
                "balance" : "0x3635c9adc5dea00000",
                "code" : "",
                "nonce" : "0x00",
                "storage" : {
                }
            }
        }
    },
    "modexpRandomInput_d0g0v0_Frontier" : {
        "_info" : {
            "comment" : "",
            "filledwith" : "cpp-1.3.0+commit.72502df4.Linux.g++",
            "lllcversion" : "Version: 0.4.18-develop.2017.10.11+commit.81f9f86c.Linux.g++",
            "source" : "src/BlockchainTestsFiller/GeneralStateTests/stPreCompiledContracts2/modexpRandomInput_d0g0v0Filler.json",
            "sourceHash" : "ee4521043fe99bb55fd3319b7025738e715303681c77f7b3dfcd7fa5bbf14b79"
        },
        "blocks" : [
            {
                "blockHeader" : {
                    "bloom" : "0x00000000000000000000000000000000000000000000000000000000000000000000000000000000000000000000000000000000000000000000000000000000000000000000000000000000000000000000000000000000000000000000000000000000000000000000000000000000000000000000000000000000000000000000000000000000000000000000000000000000000000000000000000000000000000000000000000000000000000000000000000000000000000000000000000000000000000000000000000000000000000000000000000000000000000000000000000000000000000000000000000000000000000000000000000000000",
                    "coinbase" : "0x3535353535353535353535353535353535353535",
                    "difficulty" : "0x020000",
                    "extraData" : "",
                    "gasLimit" : "0x05f5e100",
                    "gasUsed" : "0x532c",
                    "hash" : "0xb9c03dbecd69238e39fdaf1d8b65566df05ab8cfbe70c150ed229593fc2477f4",
                    "mixHash" : "0x02f73595d337142f91b0388e08e6a4432f33c0d4537426e29c064d0bdb73506a",
                    "nonce" : "0xa467fc4bd2ae1773",
                    "number" : "0x01",
                    "parentHash" : "0x4b56dd4fada98cf6fd1120843082bf1765b4d9e183bb9f233d01033f2baf851c",
                    "receiptTrie" : "0x6f8f390d099bfe2947d93f4e1d803c1f9aacfeec5224111dba783618be02c218",
                    "stateRoot" : "0x517c142b4dee10ffe0a995b3b2f624fda66fb4703e492b553d49826ef05ad901",
                    "timestamp" : "0x03e8",
                    "transactionsTrie" : "0xee8f80741f9e3be1e78bc6188bcfcde55b9c9d7fc41a5861a4c43cb8734e841c",
                    "uncleHash" : "0x1dcc4de8dec75d7aab85b567b6ccd41ad312451b948a7413f0a142fd40d49347"
                },
                "rlp" : "0xf9029af901f8a04b56dd4fada98cf6fd1120843082bf1765b4d9e183bb9f233d01033f2baf851ca01dcc4de8dec75d7aab85b567b6ccd41ad312451b948a7413f0a142fd40d49347943535353535353535353535353535353535353535a0517c142b4dee10ffe0a995b3b2f624fda66fb4703e492b553d49826ef05ad901a0ee8f80741f9e3be1e78bc6188bcfcde55b9c9d7fc41a5861a4c43cb8734e841ca06f8f390d099bfe2947d93f4e1d803c1f9aacfeec5224111dba783618be02c218b901000000000000000000000000000000000000000000000000000000000000000000000000000000000000000000000000000000000000000000000000000000000000000000000000000000000000000000000000000000000000000000000000000000000000000000000000000000000000000000000000000000000000000000000000000000000000000000000000000000000000000000000000000000000000000000000000000000000000000000000000000000000000000000000000000000000000000000000000000000000000000000000000000000000000000000000000000000000000000000000000000000000000000000000000000000000083020000018405f5e10082532c8203e880a002f73595d337142f91b0388e08e6a4432f33c0d4537426e29c064d0bdb73506a88a467fc4bd2ae1773f89cf89a8001830ad57094000000000000000000000000000000000000000580b83900000000000000000000000000000000000000000000000000000000000000e3000000000000000000000000000000000000000000000000001ba041fd5511dbb403047bc5498f30d75f2dd2fdeac98a103807c31900eb17bc10efa00bb0349ba6a48b040494133fba7cdcf86ab4ab130f0a570fea91569622e9612fc0",
                "transactions" : [
                    {
                        "data" : "0x00000000000000000000000000000000000000000000000000000000000000e300000000000000000000000000000000000000000000000000",
                        "gasLimit" : "0x0ad570",
                        "gasPrice" : "0x01",
                        "nonce" : "0x00",
                        "r" : "0x41fd5511dbb403047bc5498f30d75f2dd2fdeac98a103807c31900eb17bc10ef",
                        "s" : "0x0bb0349ba6a48b040494133fba7cdcf86ab4ab130f0a570fea91569622e9612f",
                        "to" : "0x0000000000000000000000000000000000000005",
                        "v" : "0x1b",
                        "value" : "0x00"
                    }
                ],
                "uncleHeaders" : [
                ]
            }
        ],
        "genesisBlockHeader" : {
            "bloom" : "0x00000000000000000000000000000000000000000000000000000000000000000000000000000000000000000000000000000000000000000000000000000000000000000000000000000000000000000000000000000000000000000000000000000000000000000000000000000000000000000000000000000000000000000000000000000000000000000000000000000000000000000000000000000000000000000000000000000000000000000000000000000000000000000000000000000000000000000000000000000000000000000000000000000000000000000000000000000000000000000000000000000000000000000000000000000000",
            "coinbase" : "0x3535353535353535353535353535353535353535",
            "difficulty" : "0x020000",
            "extraData" : "0x42",
            "gasLimit" : "0x05f5e100",
            "gasUsed" : "0x00",
            "hash" : "0x4b56dd4fada98cf6fd1120843082bf1765b4d9e183bb9f233d01033f2baf851c",
            "mixHash" : "0x56e81f171bcc55a6ff8345e692c0f86e5b48e01b996cadc001622fb5e363b421",
            "nonce" : "0x0102030405060708",
            "number" : "0x00",
            "parentHash" : "0x0000000000000000000000000000000000000000000000000000000000000000",
            "receiptTrie" : "0x56e81f171bcc55a6ff8345e692c0f86e5b48e01b996cadc001622fb5e363b421",
            "stateRoot" : "0x70c42824108fafccadbfce71e6e22660c4fad89be18be324cd15ef351969a8c8",
            "timestamp" : "0x03b6",
            "transactionsTrie" : "0x56e81f171bcc55a6ff8345e692c0f86e5b48e01b996cadc001622fb5e363b421",
            "uncleHash" : "0x1dcc4de8dec75d7aab85b567b6ccd41ad312451b948a7413f0a142fd40d49347"
        },
        "genesisRLP" : "0xf901fbf901f6a00000000000000000000000000000000000000000000000000000000000000000a01dcc4de8dec75d7aab85b567b6ccd41ad312451b948a7413f0a142fd40d49347943535353535353535353535353535353535353535a070c42824108fafccadbfce71e6e22660c4fad89be18be324cd15ef351969a8c8a056e81f171bcc55a6ff8345e692c0f86e5b48e01b996cadc001622fb5e363b421a056e81f171bcc55a6ff8345e692c0f86e5b48e01b996cadc001622fb5e363b421b901000000000000000000000000000000000000000000000000000000000000000000000000000000000000000000000000000000000000000000000000000000000000000000000000000000000000000000000000000000000000000000000000000000000000000000000000000000000000000000000000000000000000000000000000000000000000000000000000000000000000000000000000000000000000000000000000000000000000000000000000000000000000000000000000000000000000000000000000000000000000000000000000000000000000000000000000000000000000000000000000000000000000000000000000000000000083020000808405f5e100808203b642a056e81f171bcc55a6ff8345e692c0f86e5b48e01b996cadc001622fb5e363b421880102030405060708c0c0",
        "lastblockhash" : "0xb9c03dbecd69238e39fdaf1d8b65566df05ab8cfbe70c150ed229593fc2477f4",
        "network" : "Frontier",
        "postState" : {
            "0x0000000000000000000000000000000000000005" : {
                "balance" : "0x00",
                "code" : "",
                "nonce" : "0x00",
                "storage" : {
                }
            },
            "0x3535353535353535353535353535353535353535" : {
                "balance" : "0x4563918244f4532c",
                "code" : "",
                "nonce" : "0x00",
                "storage" : {
                }
            },
            "0xa94f5374fce5edbc8e2a8697c15331677e6ebf0b" : {
                "balance" : "0x3635c9adc5de9facd4",
                "code" : "",
                "nonce" : "0x01",
                "storage" : {
                }
            }
        },
        "pre" : {
            "0xa94f5374fce5edbc8e2a8697c15331677e6ebf0b" : {
                "balance" : "0x3635c9adc5dea00000",
                "code" : "",
                "nonce" : "0x00",
                "storage" : {
                }
            }
        }
    },
    "modexpRandomInput_d0g0v0_Homestead" : {
        "_info" : {
            "comment" : "",
            "filledwith" : "cpp-1.3.0+commit.72502df4.Linux.g++",
            "lllcversion" : "Version: 0.4.18-develop.2017.10.11+commit.81f9f86c.Linux.g++",
            "source" : "src/BlockchainTestsFiller/GeneralStateTests/stPreCompiledContracts2/modexpRandomInput_d0g0v0Filler.json",
            "sourceHash" : "ee4521043fe99bb55fd3319b7025738e715303681c77f7b3dfcd7fa5bbf14b79"
        },
        "blocks" : [
            {
                "blockHeader" : {
                    "bloom" : "0x00000000000000000000000000000000000000000000000000000000000000000000000000000000000000000000000000000000000000000000000000000000000000000000000000000000000000000000000000000000000000000000000000000000000000000000000000000000000000000000000000000000000000000000000000000000000000000000000000000000000000000000000000000000000000000000000000000000000000000000000000000000000000000000000000000000000000000000000000000000000000000000000000000000000000000000000000000000000000000000000000000000000000000000000000000000",
                    "coinbase" : "0x3535353535353535353535353535353535353535",
                    "difficulty" : "0x020000",
                    "extraData" : "",
                    "gasLimit" : "0x05f5e100",
                    "gasUsed" : "0x532c",
                    "hash" : "0x852ef9df4ac02b4487862fbefd87ff198b05ab0f50cff121e771079e07698ef9",
                    "mixHash" : "0xb6ba3f695e545a6891085ba068e34a0c57d53af1b660e22311744bd37a9a98f6",
                    "nonce" : "0x261f0aa4cb3a993a",
                    "number" : "0x01",
                    "parentHash" : "0x4b56dd4fada98cf6fd1120843082bf1765b4d9e183bb9f233d01033f2baf851c",
                    "receiptTrie" : "0x6f8f390d099bfe2947d93f4e1d803c1f9aacfeec5224111dba783618be02c218",
                    "stateRoot" : "0x517c142b4dee10ffe0a995b3b2f624fda66fb4703e492b553d49826ef05ad901",
                    "timestamp" : "0x03e8",
                    "transactionsTrie" : "0xee8f80741f9e3be1e78bc6188bcfcde55b9c9d7fc41a5861a4c43cb8734e841c",
                    "uncleHash" : "0x1dcc4de8dec75d7aab85b567b6ccd41ad312451b948a7413f0a142fd40d49347"
                },
                "rlp" : "0xf9029af901f8a04b56dd4fada98cf6fd1120843082bf1765b4d9e183bb9f233d01033f2baf851ca01dcc4de8dec75d7aab85b567b6ccd41ad312451b948a7413f0a142fd40d49347943535353535353535353535353535353535353535a0517c142b4dee10ffe0a995b3b2f624fda66fb4703e492b553d49826ef05ad901a0ee8f80741f9e3be1e78bc6188bcfcde55b9c9d7fc41a5861a4c43cb8734e841ca06f8f390d099bfe2947d93f4e1d803c1f9aacfeec5224111dba783618be02c218b901000000000000000000000000000000000000000000000000000000000000000000000000000000000000000000000000000000000000000000000000000000000000000000000000000000000000000000000000000000000000000000000000000000000000000000000000000000000000000000000000000000000000000000000000000000000000000000000000000000000000000000000000000000000000000000000000000000000000000000000000000000000000000000000000000000000000000000000000000000000000000000000000000000000000000000000000000000000000000000000000000000000000000000000000000000000083020000018405f5e10082532c8203e880a0b6ba3f695e545a6891085ba068e34a0c57d53af1b660e22311744bd37a9a98f688261f0aa4cb3a993af89cf89a8001830ad57094000000000000000000000000000000000000000580b83900000000000000000000000000000000000000000000000000000000000000e3000000000000000000000000000000000000000000000000001ba041fd5511dbb403047bc5498f30d75f2dd2fdeac98a103807c31900eb17bc10efa00bb0349ba6a48b040494133fba7cdcf86ab4ab130f0a570fea91569622e9612fc0",
                "transactions" : [
                    {
                        "data" : "0x00000000000000000000000000000000000000000000000000000000000000e300000000000000000000000000000000000000000000000000",
                        "gasLimit" : "0x0ad570",
                        "gasPrice" : "0x01",
                        "nonce" : "0x00",
                        "r" : "0x41fd5511dbb403047bc5498f30d75f2dd2fdeac98a103807c31900eb17bc10ef",
                        "s" : "0x0bb0349ba6a48b040494133fba7cdcf86ab4ab130f0a570fea91569622e9612f",
                        "to" : "0x0000000000000000000000000000000000000005",
                        "v" : "0x1b",
                        "value" : "0x00"
                    }
                ],
                "uncleHeaders" : [
                ]
            }
        ],
        "genesisBlockHeader" : {
            "bloom" : "0x00000000000000000000000000000000000000000000000000000000000000000000000000000000000000000000000000000000000000000000000000000000000000000000000000000000000000000000000000000000000000000000000000000000000000000000000000000000000000000000000000000000000000000000000000000000000000000000000000000000000000000000000000000000000000000000000000000000000000000000000000000000000000000000000000000000000000000000000000000000000000000000000000000000000000000000000000000000000000000000000000000000000000000000000000000000",
            "coinbase" : "0x3535353535353535353535353535353535353535",
            "difficulty" : "0x020000",
            "extraData" : "0x42",
            "gasLimit" : "0x05f5e100",
            "gasUsed" : "0x00",
            "hash" : "0x4b56dd4fada98cf6fd1120843082bf1765b4d9e183bb9f233d01033f2baf851c",
            "mixHash" : "0x56e81f171bcc55a6ff8345e692c0f86e5b48e01b996cadc001622fb5e363b421",
            "nonce" : "0x0102030405060708",
            "number" : "0x00",
            "parentHash" : "0x0000000000000000000000000000000000000000000000000000000000000000",
            "receiptTrie" : "0x56e81f171bcc55a6ff8345e692c0f86e5b48e01b996cadc001622fb5e363b421",
            "stateRoot" : "0x70c42824108fafccadbfce71e6e22660c4fad89be18be324cd15ef351969a8c8",
            "timestamp" : "0x03b6",
            "transactionsTrie" : "0x56e81f171bcc55a6ff8345e692c0f86e5b48e01b996cadc001622fb5e363b421",
            "uncleHash" : "0x1dcc4de8dec75d7aab85b567b6ccd41ad312451b948a7413f0a142fd40d49347"
        },
        "genesisRLP" : "0xf901fbf901f6a00000000000000000000000000000000000000000000000000000000000000000a01dcc4de8dec75d7aab85b567b6ccd41ad312451b948a7413f0a142fd40d49347943535353535353535353535353535353535353535a070c42824108fafccadbfce71e6e22660c4fad89be18be324cd15ef351969a8c8a056e81f171bcc55a6ff8345e692c0f86e5b48e01b996cadc001622fb5e363b421a056e81f171bcc55a6ff8345e692c0f86e5b48e01b996cadc001622fb5e363b421b901000000000000000000000000000000000000000000000000000000000000000000000000000000000000000000000000000000000000000000000000000000000000000000000000000000000000000000000000000000000000000000000000000000000000000000000000000000000000000000000000000000000000000000000000000000000000000000000000000000000000000000000000000000000000000000000000000000000000000000000000000000000000000000000000000000000000000000000000000000000000000000000000000000000000000000000000000000000000000000000000000000000000000000000000000000000083020000808405f5e100808203b642a056e81f171bcc55a6ff8345e692c0f86e5b48e01b996cadc001622fb5e363b421880102030405060708c0c0",
        "lastblockhash" : "0x852ef9df4ac02b4487862fbefd87ff198b05ab0f50cff121e771079e07698ef9",
        "network" : "Homestead",
        "postState" : {
            "0x0000000000000000000000000000000000000005" : {
                "balance" : "0x00",
                "code" : "",
                "nonce" : "0x00",
                "storage" : {
                }
            },
            "0x3535353535353535353535353535353535353535" : {
                "balance" : "0x4563918244f4532c",
                "code" : "",
                "nonce" : "0x00",
                "storage" : {
                }
            },
            "0xa94f5374fce5edbc8e2a8697c15331677e6ebf0b" : {
                "balance" : "0x3635c9adc5de9facd4",
                "code" : "",
                "nonce" : "0x01",
                "storage" : {
                }
            }
        },
        "pre" : {
            "0xa94f5374fce5edbc8e2a8697c15331677e6ebf0b" : {
                "balance" : "0x3635c9adc5dea00000",
                "code" : "",
                "nonce" : "0x00",
                "storage" : {
                }
            }
        }
    }
}