{
    "modexpRandomInput_d1g0v0_Byzantium" : {
        "_info" : {
            "comment" : "",
            "filledwith" : "cpp-1.3.0+commit.72502df4.Linux.g++",
            "lllcversion" : "Version: 0.4.18-develop.2017.10.11+commit.81f9f86c.Linux.g++",
            "source" : "src/BlockchainTestsFiller/GeneralStateTests/stPreCompiledContracts2/modexpRandomInput_d1g0v0Filler.json",
            "sourceHash" : "8db7d23295b5eccac1c251d1551b50757c591b62a7585952def48834c6c6d322"
        },
        "blocks" : [
            {
                "blockHeader" : {
                    "bloom" : "0x00000000000000000000000000000000000000000000000000000000000000000000000000000000000000000000000000000000000000000000000000000000000000000000000000000000000000000000000000000000000000000000000000000000000000000000000000000000000000000000000000000000000000000000000000000000000000000000000000000000000000000000000000000000000000000000000000000000000000000000000000000000000000000000000000000000000000000000000000000000000000000000000000000000000000000000000000000000000000000000000000000000000000000000000000000000",
                    "coinbase" : "0x3535353535353535353535353535353535353535",
                    "difficulty" : "0x020000",
                    "extraData" : "",
                    "gasLimit" : "0x05f5e100",
                    "gasUsed" : "0x0ad570",
                    "hash" : "0x3955c41f29a3feb31b7640262e16091a0afe31e8444a32b600069fdf68aa2334",
                    "mixHash" : "0x18b28c1e78865be9de3f2128793f7f509e80ab78ed81d5fb72bcce98aba1b67e",
                    "nonce" : "0x9d9b5658f4459927",
                    "number" : "0x01",
                    "parentHash" : "0x4b56dd4fada98cf6fd1120843082bf1765b4d9e183bb9f233d01033f2baf851c",
                    "receiptTrie" : "0x8dfd9d049e0456bf94a974667d609e5c56576d7aafa33db7ec255242954592fe",
                    "stateRoot" : "0x8983bb5de7507ef024cd1a21ce0aaa7e459d07c5bd49ca9cf7a768103f94fa5e",
                    "timestamp" : "0x03e8",
                    "transactionsTrie" : "0x6392afb63ed1734cd3a3037e0e37e4571727f5f375098de8f4e3a5c751574ef2",
                    "uncleHash" : "0x1dcc4de8dec75d7aab85b567b6ccd41ad312451b948a7413f0a142fd40d49347"
                },
                "rlp" : "0xf90291f901f9a04b56dd4fada98cf6fd1120843082bf1765b4d9e183bb9f233d01033f2baf851ca01dcc4de8dec75d7aab85b567b6ccd41ad312451b948a7413f0a142fd40d49347943535353535353535353535353535353535353535a08983bb5de7507ef024cd1a21ce0aaa7e459d07c5bd49ca9cf7a768103f94fa5ea06392afb63ed1734cd3a3037e0e37e4571727f5f375098de8f4e3a5c751574ef2a08dfd9d049e0456bf94a974667d609e5c56576d7aafa33db7ec255242954592feb901000000000000000000000000000000000000000000000000000000000000000000000000000000000000000000000000000000000000000000000000000000000000000000000000000000000000000000000000000000000000000000000000000000000000000000000000000000000000000000000000000000000000000000000000000000000000000000000000000000000000000000000000000000000000000000000000000000000000000000000000000000000000000000000000000000000000000000000000000000000000000000000000000000000000000000000000000000000000000000000000000000000000000000000000000000000083020000018405f5e100830ad5708203e880a018b28c1e78865be9de3f2128793f7f509e80ab78ed81d5fb72bcce98aba1b67e889d9b5658f4459927f892f8908001830ad57094000000000000000000000000000000000000000580b000000000008000000000000000000000000000000000000000000000000000000000000400000000000000000000000a1ba07f92f6c87aa5aae5de02f4fef7b8625a4705dcc83101f5064e85d0451d6f7061a017646ae6179dc3564553aa73ff108c14e72d191c147bfa38b4885b7b88548c23c0",
                "transactions" : [
                    {
                        "data" : "0x00000000008000000000000000000000000000000000000000000000000000000000000400000000000000000000000a",
                        "gasLimit" : "0x0ad570",
                        "gasPrice" : "0x01",
                        "nonce" : "0x00",
                        "r" : "0x7f92f6c87aa5aae5de02f4fef7b8625a4705dcc83101f5064e85d0451d6f7061",
                        "s" : "0x17646ae6179dc3564553aa73ff108c14e72d191c147bfa38b4885b7b88548c23",
                        "to" : "0x0000000000000000000000000000000000000005",
                        "v" : "0x1b",
                        "value" : "0x00"
                    }
                ],
                "uncleHeaders" : [
                ]
            }
        ],
        "genesisBlockHeader" : {
            "bloom" : "0x00000000000000000000000000000000000000000000000000000000000000000000000000000000000000000000000000000000000000000000000000000000000000000000000000000000000000000000000000000000000000000000000000000000000000000000000000000000000000000000000000000000000000000000000000000000000000000000000000000000000000000000000000000000000000000000000000000000000000000000000000000000000000000000000000000000000000000000000000000000000000000000000000000000000000000000000000000000000000000000000000000000000000000000000000000000",
            "coinbase" : "0x3535353535353535353535353535353535353535",
            "difficulty" : "0x020000",
            "extraData" : "0x42",
            "gasLimit" : "0x05f5e100",
            "gasUsed" : "0x00",
            "hash" : "0x4b56dd4fada98cf6fd1120843082bf1765b4d9e183bb9f233d01033f2baf851c",
            "mixHash" : "0x56e81f171bcc55a6ff8345e692c0f86e5b48e01b996cadc001622fb5e363b421",
            "nonce" : "0x0102030405060708",
            "number" : "0x00",
            "parentHash" : "0x0000000000000000000000000000000000000000000000000000000000000000",
            "receiptTrie" : "0x56e81f171bcc55a6ff8345e692c0f86e5b48e01b996cadc001622fb5e363b421",
            "stateRoot" : "0x70c42824108fafccadbfce71e6e22660c4fad89be18be324cd15ef351969a8c8",
            "timestamp" : "0x03b6",
            "transactionsTrie" : "0x56e81f171bcc55a6ff8345e692c0f86e5b48e01b996cadc001622fb5e363b421",
            "uncleHash" : "0x1dcc4de8dec75d7aab85b567b6ccd41ad312451b948a7413f0a142fd40d49347"
        },
        "genesisRLP" : "0xf901fbf901f6a00000000000000000000000000000000000000000000000000000000000000000a01dcc4de8dec75d7aab85b567b6ccd41ad312451b948a7413f0a142fd40d49347943535353535353535353535353535353535353535a070c42824108fafccadbfce71e6e22660c4fad89be18be324cd15ef351969a8c8a056e81f171bcc55a6ff8345e692c0f86e5b48e01b996cadc001622fb5e363b421a056e81f171bcc55a6ff8345e692c0f86e5b48e01b996cadc001622fb5e363b421b901000000000000000000000000000000000000000000000000000000000000000000000000000000000000000000000000000000000000000000000000000000000000000000000000000000000000000000000000000000000000000000000000000000000000000000000000000000000000000000000000000000000000000000000000000000000000000000000000000000000000000000000000000000000000000000000000000000000000000000000000000000000000000000000000000000000000000000000000000000000000000000000000000000000000000000000000000000000000000000000000000000000000000000000000000000000083020000808405f5e100808203b642a056e81f171bcc55a6ff8345e692c0f86e5b48e01b996cadc001622fb5e363b421880102030405060708c0c0",
        "lastblockhash" : "0x3955c41f29a3feb31b7640262e16091a0afe31e8444a32b600069fdf68aa2334",
        "network" : "Byzantium",
        "postState" : {
            "0x3535353535353535353535353535353535353535" : {
                "balance" : "0x29a2241af636d570",
                "code" : "",
                "nonce" : "0x00",
                "storage" : {
                }
            },
            "0xa94f5374fce5edbc8e2a8697c15331677e6ebf0b" : {
                "balance" : "0x3635c9adc5de952a90",
                "code" : "",
                "nonce" : "0x01",
                "storage" : {
                }
            }
        },
        "pre" : {
            "0xa94f5374fce5edbc8e2a8697c15331677e6ebf0b" : {
                "balance" : "0x3635c9adc5dea00000",
                "code" : "",
                "nonce" : "0x00",
                "storage" : {
                }
            }
        }
    },
    "modexpRandomInput_d1g0v0_Constantinople" : {
        "_info" : {
            "comment" : "",
            "filledwith" : "cpp-1.3.0+commit.72502df4.Linux.g++",
            "lllcversion" : "Version: 0.4.18-develop.2017.10.11+commit.81f9f86c.Linux.g++",
            "source" : "src/BlockchainTestsFiller/GeneralStateTests/stPreCompiledContracts2/modexpRandomInput_d1g0v0Filler.json",
            "sourceHash" : "8db7d23295b5eccac1c251d1551b50757c591b62a7585952def48834c6c6d322"
        },
        "blocks" : [
            {
                "blockHeader" : {
                    "bloom" : "0x00000000000000000000000000000000000000000000000000000000000000000000000000000000000000000000000000000000000000000000000000000000000000000000000000000000000000000000000000000000000000000000000000000000000000000000000000000000000000000000000000000000000000000000000000000000000000000000000000000000000000000000000000000000000000000000000000000000000000000000000000000000000000000000000000000000000000000000000000000000000000000000000000000000000000000000000000000000000000000000000000000000000000000000000000000000",
                    "coinbase" : "0x3535353535353535353535353535353535353535",
                    "difficulty" : "0x020000",
                    "extraData" : "",
                    "gasLimit" : "0x05f5e100",
                    "gasUsed" : "0x0ad570",
                    "hash" : "0x8b71968fbb8a71e1b26d779f348a8c81bda7cd266ba536bc93bd993c8acd5901",
                    "mixHash" : "0x44a21f3e420155b5aa9b632baba0aaf0630cd17db2f675fa62c6b2cee0d5bfc4",
                    "nonce" : "0xed39b0c79deb7a6f",
                    "number" : "0x01",
                    "parentHash" : "0x4b56dd4fada98cf6fd1120843082bf1765b4d9e183bb9f233d01033f2baf851c",
                    "receiptTrie" : "0x8dfd9d049e0456bf94a974667d609e5c56576d7aafa33db7ec255242954592fe",
                    "stateRoot" : "0x8983bb5de7507ef024cd1a21ce0aaa7e459d07c5bd49ca9cf7a768103f94fa5e",
                    "timestamp" : "0x03e8",
                    "transactionsTrie" : "0x6392afb63ed1734cd3a3037e0e37e4571727f5f375098de8f4e3a5c751574ef2",
                    "uncleHash" : "0x1dcc4de8dec75d7aab85b567b6ccd41ad312451b948a7413f0a142fd40d49347"
                },
                "rlp" : "0xf90291f901f9a04b56dd4fada98cf6fd1120843082bf1765b4d9e183bb9f233d01033f2baf851ca01dcc4de8dec75d7aab85b567b6ccd41ad312451b948a7413f0a142fd40d49347943535353535353535353535353535353535353535a08983bb5de7507ef024cd1a21ce0aaa7e459d07c5bd49ca9cf7a768103f94fa5ea06392afb63ed1734cd3a3037e0e37e4571727f5f375098de8f4e3a5c751574ef2a08dfd9d049e0456bf94a974667d609e5c56576d7aafa33db7ec255242954592feb901000000000000000000000000000000000000000000000000000000000000000000000000000000000000000000000000000000000000000000000000000000000000000000000000000000000000000000000000000000000000000000000000000000000000000000000000000000000000000000000000000000000000000000000000000000000000000000000000000000000000000000000000000000000000000000000000000000000000000000000000000000000000000000000000000000000000000000000000000000000000000000000000000000000000000000000000000000000000000000000000000000000000000000000000000000000083020000018405f5e100830ad5708203e880a044a21f3e420155b5aa9b632baba0aaf0630cd17db2f675fa62c6b2cee0d5bfc488ed39b0c79deb7a6ff892f8908001830ad57094000000000000000000000000000000000000000580b000000000008000000000000000000000000000000000000000000000000000000000000400000000000000000000000a1ba07f92f6c87aa5aae5de02f4fef7b8625a4705dcc83101f5064e85d0451d6f7061a017646ae6179dc3564553aa73ff108c14e72d191c147bfa38b4885b7b88548c23c0",
                "transactions" : [
                    {
                        "data" : "0x00000000008000000000000000000000000000000000000000000000000000000000000400000000000000000000000a",
                        "gasLimit" : "0x0ad570",
                        "gasPrice" : "0x01",
                        "nonce" : "0x00",
                        "r" : "0x7f92f6c87aa5aae5de02f4fef7b8625a4705dcc83101f5064e85d0451d6f7061",
                        "s" : "0x17646ae6179dc3564553aa73ff108c14e72d191c147bfa38b4885b7b88548c23",
                        "to" : "0x0000000000000000000000000000000000000005",
                        "v" : "0x1b",
                        "value" : "0x00"
                    }
                ],
                "uncleHeaders" : [
                ]
            }
        ],
        "genesisBlockHeader" : {
            "bloom" : "0x00000000000000000000000000000000000000000000000000000000000000000000000000000000000000000000000000000000000000000000000000000000000000000000000000000000000000000000000000000000000000000000000000000000000000000000000000000000000000000000000000000000000000000000000000000000000000000000000000000000000000000000000000000000000000000000000000000000000000000000000000000000000000000000000000000000000000000000000000000000000000000000000000000000000000000000000000000000000000000000000000000000000000000000000000000000",
            "coinbase" : "0x3535353535353535353535353535353535353535",
            "difficulty" : "0x020000",
            "extraData" : "0x42",
            "gasLimit" : "0x05f5e100",
            "gasUsed" : "0x00",
            "hash" : "0x4b56dd4fada98cf6fd1120843082bf1765b4d9e183bb9f233d01033f2baf851c",
            "mixHash" : "0x56e81f171bcc55a6ff8345e692c0f86e5b48e01b996cadc001622fb5e363b421",
            "nonce" : "0x0102030405060708",
            "number" : "0x00",
            "parentHash" : "0x0000000000000000000000000000000000000000000000000000000000000000",
            "receiptTrie" : "0x56e81f171bcc55a6ff8345e692c0f86e5b48e01b996cadc001622fb5e363b421",
            "stateRoot" : "0x70c42824108fafccadbfce71e6e22660c4fad89be18be324cd15ef351969a8c8",
            "timestamp" : "0x03b6",
            "transactionsTrie" : "0x56e81f171bcc55a6ff8345e692c0f86e5b48e01b996cadc001622fb5e363b421",
            "uncleHash" : "0x1dcc4de8dec75d7aab85b567b6ccd41ad312451b948a7413f0a142fd40d49347"
        },
        "genesisRLP" : "0xf901fbf901f6a00000000000000000000000000000000000000000000000000000000000000000a01dcc4de8dec75d7aab85b567b6ccd41ad312451b948a7413f0a142fd40d49347943535353535353535353535353535353535353535a070c42824108fafccadbfce71e6e22660c4fad89be18be324cd15ef351969a8c8a056e81f171bcc55a6ff8345e692c0f86e5b48e01b996cadc001622fb5e363b421a056e81f171bcc55a6ff8345e692c0f86e5b48e01b996cadc001622fb5e363b421b901000000000000000000000000000000000000000000000000000000000000000000000000000000000000000000000000000000000000000000000000000000000000000000000000000000000000000000000000000000000000000000000000000000000000000000000000000000000000000000000000000000000000000000000000000000000000000000000000000000000000000000000000000000000000000000000000000000000000000000000000000000000000000000000000000000000000000000000000000000000000000000000000000000000000000000000000000000000000000000000000000000000000000000000000000000000083020000808405f5e100808203b642a056e81f171bcc55a6ff8345e692c0f86e5b48e01b996cadc001622fb5e363b421880102030405060708c0c0",
        "lastblockhash" : "0x8b71968fbb8a71e1b26d779f348a8c81bda7cd266ba536bc93bd993c8acd5901",
        "network" : "Constantinople",
        "postState" : {
            "0x3535353535353535353535353535353535353535" : {
                "balance" : "0x29a2241af636d570",
                "code" : "",
                "nonce" : "0x00",
                "storage" : {
                }
            },
            "0xa94f5374fce5edbc8e2a8697c15331677e6ebf0b" : {
                "balance" : "0x3635c9adc5de952a90",
                "code" : "",
                "nonce" : "0x01",
                "storage" : {
                }
            }
        },
        "pre" : {
            "0xa94f5374fce5edbc8e2a8697c15331677e6ebf0b" : {
                "balance" : "0x3635c9adc5dea00000",
                "code" : "",
                "nonce" : "0x00",
                "storage" : {
                }
            }
        }
    },
    "modexpRandomInput_d1g0v0_EIP150" : {
        "_info" : {
            "comment" : "",
            "filledwith" : "cpp-1.3.0+commit.72502df4.Linux.g++",
            "lllcversion" : "Version: 0.4.18-develop.2017.10.11+commit.81f9f86c.Linux.g++",
            "source" : "src/BlockchainTestsFiller/GeneralStateTests/stPreCompiledContracts2/modexpRandomInput_d1g0v0Filler.json",
            "sourceHash" : "8db7d23295b5eccac1c251d1551b50757c591b62a7585952def48834c6c6d322"
        },
        "blocks" : [
            {
                "blockHeader" : {
                    "bloom" : "0x00000000000000000000000000000000000000000000000000000000000000000000000000000000000000000000000000000000000000000000000000000000000000000000000000000000000000000000000000000000000000000000000000000000000000000000000000000000000000000000000000000000000000000000000000000000000000000000000000000000000000000000000000000000000000000000000000000000000000000000000000000000000000000000000000000000000000000000000000000000000000000000000000000000000000000000000000000000000000000000000000000000000000000000000000000000",
                    "coinbase" : "0x3535353535353535353535353535353535353535",
                    "difficulty" : "0x020000",
                    "extraData" : "",
                    "gasLimit" : "0x05f5e100",
                    "gasUsed" : "0x5388",
                    "hash" : "0x983ca9726f20fa770141845cb1055536a7736656e1178687f81c7d304bf5685b",
                    "mixHash" : "0x46795038009d34397974f23c2108b2742b350c66e0e4d3023ba79a52be20cbde",
                    "nonce" : "0x862a8c696968773b",
                    "number" : "0x01",
                    "parentHash" : "0x4b56dd4fada98cf6fd1120843082bf1765b4d9e183bb9f233d01033f2baf851c",
                    "receiptTrie" : "0xf40e7114a62bf61eb3673105fd0fbf395cd32329c725e62f37af0c46f767ad6a",
                    "stateRoot" : "0xff14718d756d7e7b099ab0a98925acfd8a7e1d7e4e7e4628cf4cf3e166d7162b",
                    "timestamp" : "0x03e8",
                    "transactionsTrie" : "0x6392afb63ed1734cd3a3037e0e37e4571727f5f375098de8f4e3a5c751574ef2",
                    "uncleHash" : "0x1dcc4de8dec75d7aab85b567b6ccd41ad312451b948a7413f0a142fd40d49347"
                },
                "rlp" : "0xf90290f901f8a04b56dd4fada98cf6fd1120843082bf1765b4d9e183bb9f233d01033f2baf851ca01dcc4de8dec75d7aab85b567b6ccd41ad312451b948a7413f0a142fd40d49347943535353535353535353535353535353535353535a0ff14718d756d7e7b099ab0a98925acfd8a7e1d7e4e7e4628cf4cf3e166d7162ba06392afb63ed1734cd3a3037e0e37e4571727f5f375098de8f4e3a5c751574ef2a0f40e7114a62bf61eb3673105fd0fbf395cd32329c725e62f37af0c46f767ad6ab901000000000000000000000000000000000000000000000000000000000000000000000000000000000000000000000000000000000000000000000000000000000000000000000000000000000000000000000000000000000000000000000000000000000000000000000000000000000000000000000000000000000000000000000000000000000000000000000000000000000000000000000000000000000000000000000000000000000000000000000000000000000000000000000000000000000000000000000000000000000000000000000000000000000000000000000000000000000000000000000000000000000000000000000000000000000083020000018405f5e1008253888203e880a046795038009d34397974f23c2108b2742b350c66e0e4d3023ba79a52be20cbde88862a8c696968773bf892f8908001830ad57094000000000000000000000000000000000000000580b000000000008000000000000000000000000000000000000000000000000000000000000400000000000000000000000a1ba07f92f6c87aa5aae5de02f4fef7b8625a4705dcc83101f5064e85d0451d6f7061a017646ae6179dc3564553aa73ff108c14e72d191c147bfa38b4885b7b88548c23c0",
                "transactions" : [
                    {
                        "data" : "0x00000000008000000000000000000000000000000000000000000000000000000000000400000000000000000000000a",
                        "gasLimit" : "0x0ad570",
                        "gasPrice" : "0x01",
                        "nonce" : "0x00",
                        "r" : "0x7f92f6c87aa5aae5de02f4fef7b8625a4705dcc83101f5064e85d0451d6f7061",
                        "s" : "0x17646ae6179dc3564553aa73ff108c14e72d191c147bfa38b4885b7b88548c23",
                        "to" : "0x0000000000000000000000000000000000000005",
                        "v" : "0x1b",
                        "value" : "0x00"
                    }
                ],
                "uncleHeaders" : [
                ]
            }
        ],
        "genesisBlockHeader" : {
            "bloom" : "0x00000000000000000000000000000000000000000000000000000000000000000000000000000000000000000000000000000000000000000000000000000000000000000000000000000000000000000000000000000000000000000000000000000000000000000000000000000000000000000000000000000000000000000000000000000000000000000000000000000000000000000000000000000000000000000000000000000000000000000000000000000000000000000000000000000000000000000000000000000000000000000000000000000000000000000000000000000000000000000000000000000000000000000000000000000000",
            "coinbase" : "0x3535353535353535353535353535353535353535",
            "difficulty" : "0x020000",
            "extraData" : "0x42",
            "gasLimit" : "0x05f5e100",
            "gasUsed" : "0x00",
            "hash" : "0x4b56dd4fada98cf6fd1120843082bf1765b4d9e183bb9f233d01033f2baf851c",
            "mixHash" : "0x56e81f171bcc55a6ff8345e692c0f86e5b48e01b996cadc001622fb5e363b421",
            "nonce" : "0x0102030405060708",
            "number" : "0x00",
            "parentHash" : "0x0000000000000000000000000000000000000000000000000000000000000000",
            "receiptTrie" : "0x56e81f171bcc55a6ff8345e692c0f86e5b48e01b996cadc001622fb5e363b421",
            "stateRoot" : "0x70c42824108fafccadbfce71e6e22660c4fad89be18be324cd15ef351969a8c8",
            "timestamp" : "0x03b6",
            "transactionsTrie" : "0x56e81f171bcc55a6ff8345e692c0f86e5b48e01b996cadc001622fb5e363b421",
            "uncleHash" : "0x1dcc4de8dec75d7aab85b567b6ccd41ad312451b948a7413f0a142fd40d49347"
        },
        "genesisRLP" : "0xf901fbf901f6a00000000000000000000000000000000000000000000000000000000000000000a01dcc4de8dec75d7aab85b567b6ccd41ad312451b948a7413f0a142fd40d49347943535353535353535353535353535353535353535a070c42824108fafccadbfce71e6e22660c4fad89be18be324cd15ef351969a8c8a056e81f171bcc55a6ff8345e692c0f86e5b48e01b996cadc001622fb5e363b421a056e81f171bcc55a6ff8345e692c0f86e5b48e01b996cadc001622fb5e363b421b901000000000000000000000000000000000000000000000000000000000000000000000000000000000000000000000000000000000000000000000000000000000000000000000000000000000000000000000000000000000000000000000000000000000000000000000000000000000000000000000000000000000000000000000000000000000000000000000000000000000000000000000000000000000000000000000000000000000000000000000000000000000000000000000000000000000000000000000000000000000000000000000000000000000000000000000000000000000000000000000000000000000000000000000000000000000083020000808405f5e100808203b642a056e81f171bcc55a6ff8345e692c0f86e5b48e01b996cadc001622fb5e363b421880102030405060708c0c0",
        "lastblockhash" : "0x983ca9726f20fa770141845cb1055536a7736656e1178687f81c7d304bf5685b",
        "network" : "EIP150",
        "postState" : {
            "0x0000000000000000000000000000000000000005" : {
                "balance" : "0x00",
                "code" : "",
                "nonce" : "0x00",
                "storage" : {
                }
            },
            "0x3535353535353535353535353535353535353535" : {
                "balance" : "0x4563918244f45388",
                "code" : "",
                "nonce" : "0x00",
                "storage" : {
                }
            },
            "0xa94f5374fce5edbc8e2a8697c15331677e6ebf0b" : {
                "balance" : "0x3635c9adc5de9fac78",
                "code" : "",
                "nonce" : "0x01",
                "storage" : {
                }
            }
        },
        "pre" : {
            "0xa94f5374fce5edbc8e2a8697c15331677e6ebf0b" : {
                "balance" : "0x3635c9adc5dea00000",
                "code" : "",
                "nonce" : "0x00",
                "storage" : {
                }
            }
        }
    },
    "modexpRandomInput_d1g0v0_EIP158" : {
        "_info" : {
            "comment" : "",
            "filledwith" : "cpp-1.3.0+commit.72502df4.Linux.g++",
            "lllcversion" : "Version: 0.4.18-develop.2017.10.11+commit.81f9f86c.Linux.g++",
            "source" : "src/BlockchainTestsFiller/GeneralStateTests/stPreCompiledContracts2/modexpRandomInput_d1g0v0Filler.json",
            "sourceHash" : "8db7d23295b5eccac1c251d1551b50757c591b62a7585952def48834c6c6d322"
        },
        "blocks" : [
            {
                "blockHeader" : {
                    "bloom" : "0x00000000000000000000000000000000000000000000000000000000000000000000000000000000000000000000000000000000000000000000000000000000000000000000000000000000000000000000000000000000000000000000000000000000000000000000000000000000000000000000000000000000000000000000000000000000000000000000000000000000000000000000000000000000000000000000000000000000000000000000000000000000000000000000000000000000000000000000000000000000000000000000000000000000000000000000000000000000000000000000000000000000000000000000000000000000",
                    "coinbase" : "0x3535353535353535353535353535353535353535",
                    "difficulty" : "0x020000",
                    "extraData" : "",
                    "gasLimit" : "0x05f5e100",
                    "gasUsed" : "0x5388",
                    "hash" : "0x58dbdba2b8d8f3e6a85f73295197b11abaf21240b5f8734b268bcf24347d5549",
                    "mixHash" : "0xd7a54430f9cf3a51b17387452ba3a1f874bec84cb5c6d05cdce4bf7cbd190bb5",
                    "nonce" : "0xf0c839afd2685e4f",
                    "number" : "0x01",
                    "parentHash" : "0x4b56dd4fada98cf6fd1120843082bf1765b4d9e183bb9f233d01033f2baf851c",
                    "receiptTrie" : "0xd29f5620f6b41ee33c4d52fee8764cce025d085b64764d693b694c19ccd6d234",
                    "stateRoot" : "0x27b20044e1d1f9761a7c0e31119efbb0e821c68f08ef21b5bbceb67d191c9a3a",
                    "timestamp" : "0x03e8",
                    "transactionsTrie" : "0x6392afb63ed1734cd3a3037e0e37e4571727f5f375098de8f4e3a5c751574ef2",
                    "uncleHash" : "0x1dcc4de8dec75d7aab85b567b6ccd41ad312451b948a7413f0a142fd40d49347"
                },
                "rlp" : "0xf90290f901f8a04b56dd4fada98cf6fd1120843082bf1765b4d9e183bb9f233d01033f2baf851ca01dcc4de8dec75d7aab85b567b6ccd41ad312451b948a7413f0a142fd40d49347943535353535353535353535353535353535353535a027b20044e1d1f9761a7c0e31119efbb0e821c68f08ef21b5bbceb67d191c9a3aa06392afb63ed1734cd3a3037e0e37e4571727f5f375098de8f4e3a5c751574ef2a0d29f5620f6b41ee33c4d52fee8764cce025d085b64764d693b694c19ccd6d234b901000000000000000000000000000000000000000000000000000000000000000000000000000000000000000000000000000000000000000000000000000000000000000000000000000000000000000000000000000000000000000000000000000000000000000000000000000000000000000000000000000000000000000000000000000000000000000000000000000000000000000000000000000000000000000000000000000000000000000000000000000000000000000000000000000000000000000000000000000000000000000000000000000000000000000000000000000000000000000000000000000000000000000000000000000000000083020000018405f5e1008253888203e880a0d7a54430f9cf3a51b17387452ba3a1f874bec84cb5c6d05cdce4bf7cbd190bb588f0c839afd2685e4ff892f8908001830ad57094000000000000000000000000000000000000000580b000000000008000000000000000000000000000000000000000000000000000000000000400000000000000000000000a1ba07f92f6c87aa5aae5de02f4fef7b8625a4705dcc83101f5064e85d0451d6f7061a017646ae6179dc3564553aa73ff108c14e72d191c147bfa38b4885b7b88548c23c0",
                "transactions" : [
                    {
                        "data" : "0x00000000008000000000000000000000000000000000000000000000000000000000000400000000000000000000000a",
                        "gasLimit" : "0x0ad570",
                        "gasPrice" : "0x01",
                        "nonce" : "0x00",
                        "r" : "0x7f92f6c87aa5aae5de02f4fef7b8625a4705dcc83101f5064e85d0451d6f7061",
                        "s" : "0x17646ae6179dc3564553aa73ff108c14e72d191c147bfa38b4885b7b88548c23",
                        "to" : "0x0000000000000000000000000000000000000005",
                        "v" : "0x1b",
                        "value" : "0x00"
                    }
                ],
                "uncleHeaders" : [
                ]
            }
        ],
        "genesisBlockHeader" : {
            "bloom" : "0x00000000000000000000000000000000000000000000000000000000000000000000000000000000000000000000000000000000000000000000000000000000000000000000000000000000000000000000000000000000000000000000000000000000000000000000000000000000000000000000000000000000000000000000000000000000000000000000000000000000000000000000000000000000000000000000000000000000000000000000000000000000000000000000000000000000000000000000000000000000000000000000000000000000000000000000000000000000000000000000000000000000000000000000000000000000",
            "coinbase" : "0x3535353535353535353535353535353535353535",
            "difficulty" : "0x020000",
            "extraData" : "0x42",
            "gasLimit" : "0x05f5e100",
            "gasUsed" : "0x00",
            "hash" : "0x4b56dd4fada98cf6fd1120843082bf1765b4d9e183bb9f233d01033f2baf851c",
            "mixHash" : "0x56e81f171bcc55a6ff8345e692c0f86e5b48e01b996cadc001622fb5e363b421",
            "nonce" : "0x0102030405060708",
            "number" : "0x00",
            "parentHash" : "0x0000000000000000000000000000000000000000000000000000000000000000",
            "receiptTrie" : "0x56e81f171bcc55a6ff8345e692c0f86e5b48e01b996cadc001622fb5e363b421",
            "stateRoot" : "0x70c42824108fafccadbfce71e6e22660c4fad89be18be324cd15ef351969a8c8",
            "timestamp" : "0x03b6",
            "transactionsTrie" : "0x56e81f171bcc55a6ff8345e692c0f86e5b48e01b996cadc001622fb5e363b421",
            "uncleHash" : "0x1dcc4de8dec75d7aab85b567b6ccd41ad312451b948a7413f0a142fd40d49347"
        },
        "genesisRLP" : "0xf901fbf901f6a00000000000000000000000000000000000000000000000000000000000000000a01dcc4de8dec75d7aab85b567b6ccd41ad312451b948a7413f0a142fd40d49347943535353535353535353535353535353535353535a070c42824108fafccadbfce71e6e22660c4fad89be18be324cd15ef351969a8c8a056e81f171bcc55a6ff8345e692c0f86e5b48e01b996cadc001622fb5e363b421a056e81f171bcc55a6ff8345e692c0f86e5b48e01b996cadc001622fb5e363b421b901000000000000000000000000000000000000000000000000000000000000000000000000000000000000000000000000000000000000000000000000000000000000000000000000000000000000000000000000000000000000000000000000000000000000000000000000000000000000000000000000000000000000000000000000000000000000000000000000000000000000000000000000000000000000000000000000000000000000000000000000000000000000000000000000000000000000000000000000000000000000000000000000000000000000000000000000000000000000000000000000000000000000000000000000000000000083020000808405f5e100808203b642a056e81f171bcc55a6ff8345e692c0f86e5b48e01b996cadc001622fb5e363b421880102030405060708c0c0",
        "lastblockhash" : "0x58dbdba2b8d8f3e6a85f73295197b11abaf21240b5f8734b268bcf24347d5549",
        "network" : "EIP158",
        "postState" : {
            "0x3535353535353535353535353535353535353535" : {
                "balance" : "0x4563918244f45388",
                "code" : "",
                "nonce" : "0x00",
                "storage" : {
                }
            },
            "0xa94f5374fce5edbc8e2a8697c15331677e6ebf0b" : {
                "balance" : "0x3635c9adc5de9fac78",
                "code" : "",
                "nonce" : "0x01",
                "storage" : {
                }
            }
        },
        "pre" : {
            "0xa94f5374fce5edbc8e2a8697c15331677e6ebf0b" : {
                "balance" : "0x3635c9adc5dea00000",
                "code" : "",
                "nonce" : "0x00",
                "storage" : {
                }
            }
        }
    },
    "modexpRandomInput_d1g0v0_Frontier" : {
        "_info" : {
            "comment" : "",
            "filledwith" : "cpp-1.3.0+commit.72502df4.Linux.g++",
            "lllcversion" : "Version: 0.4.18-develop.2017.10.11+commit.81f9f86c.Linux.g++",
            "source" : "src/BlockchainTestsFiller/GeneralStateTests/stPreCompiledContracts2/modexpRandomInput_d1g0v0Filler.json",
            "sourceHash" : "8db7d23295b5eccac1c251d1551b50757c591b62a7585952def48834c6c6d322"
        },
        "blocks" : [
            {
                "blockHeader" : {
                    "bloom" : "0x00000000000000000000000000000000000000000000000000000000000000000000000000000000000000000000000000000000000000000000000000000000000000000000000000000000000000000000000000000000000000000000000000000000000000000000000000000000000000000000000000000000000000000000000000000000000000000000000000000000000000000000000000000000000000000000000000000000000000000000000000000000000000000000000000000000000000000000000000000000000000000000000000000000000000000000000000000000000000000000000000000000000000000000000000000000",
                    "coinbase" : "0x3535353535353535353535353535353535353535",
                    "difficulty" : "0x020000",
                    "extraData" : "",
                    "gasLimit" : "0x05f5e100",
                    "gasUsed" : "0x5388",
                    "hash" : "0xb68b686017e6d4b4a14975f6e44a1778364fc38786b21b490f8bcfaa1f9554b4",
                    "mixHash" : "0x922629f6cf8f91620729137782397605281f052d8d1681faf3997ae5efa2e4be",
                    "nonce" : "0xb0396d62bfbf3459",
                    "number" : "0x01",
                    "parentHash" : "0x4b56dd4fada98cf6fd1120843082bf1765b4d9e183bb9f233d01033f2baf851c",
                    "receiptTrie" : "0xf40e7114a62bf61eb3673105fd0fbf395cd32329c725e62f37af0c46f767ad6a",
                    "stateRoot" : "0xff14718d756d7e7b099ab0a98925acfd8a7e1d7e4e7e4628cf4cf3e166d7162b",
                    "timestamp" : "0x03e8",
                    "transactionsTrie" : "0x6392afb63ed1734cd3a3037e0e37e4571727f5f375098de8f4e3a5c751574ef2",
                    "uncleHash" : "0x1dcc4de8dec75d7aab85b567b6ccd41ad312451b948a7413f0a142fd40d49347"
                },
                "rlp" : "0xf90290f901f8a04b56dd4fada98cf6fd1120843082bf1765b4d9e183bb9f233d01033f2baf851ca01dcc4de8dec75d7aab85b567b6ccd41ad312451b948a7413f0a142fd40d49347943535353535353535353535353535353535353535a0ff14718d756d7e7b099ab0a98925acfd8a7e1d7e4e7e4628cf4cf3e166d7162ba06392afb63ed1734cd3a3037e0e37e4571727f5f375098de8f4e3a5c751574ef2a0f40e7114a62bf61eb3673105fd0fbf395cd32329c725e62f37af0c46f767ad6ab901000000000000000000000000000000000000000000000000000000000000000000000000000000000000000000000000000000000000000000000000000000000000000000000000000000000000000000000000000000000000000000000000000000000000000000000000000000000000000000000000000000000000000000000000000000000000000000000000000000000000000000000000000000000000000000000000000000000000000000000000000000000000000000000000000000000000000000000000000000000000000000000000000000000000000000000000000000000000000000000000000000000000000000000000000000000083020000018405f5e1008253888203e880a0922629f6cf8f91620729137782397605281f052d8d1681faf3997ae5efa2e4be88b0396d62bfbf3459f892f8908001830ad57094000000000000000000000000000000000000000580b000000000008000000000000000000000000000000000000000000000000000000000000400000000000000000000000a1ba07f92f6c87aa5aae5de02f4fef7b8625a4705dcc83101f5064e85d0451d6f7061a017646ae6179dc3564553aa73ff108c14e72d191c147bfa38b4885b7b88548c23c0",
                "transactions" : [
                    {
                        "data" : "0x00000000008000000000000000000000000000000000000000000000000000000000000400000000000000000000000a",
                        "gasLimit" : "0x0ad570",
                        "gasPrice" : "0x01",
                        "nonce" : "0x00",
                        "r" : "0x7f92f6c87aa5aae5de02f4fef7b8625a4705dcc83101f5064e85d0451d6f7061",
                        "s" : "0x17646ae6179dc3564553aa73ff108c14e72d191c147bfa38b4885b7b88548c23",
                        "to" : "0x0000000000000000000000000000000000000005",
                        "v" : "0x1b",
                        "value" : "0x00"
                    }
                ],
                "uncleHeaders" : [
                ]
            }
        ],
        "genesisBlockHeader" : {
            "bloom" : "0x00000000000000000000000000000000000000000000000000000000000000000000000000000000000000000000000000000000000000000000000000000000000000000000000000000000000000000000000000000000000000000000000000000000000000000000000000000000000000000000000000000000000000000000000000000000000000000000000000000000000000000000000000000000000000000000000000000000000000000000000000000000000000000000000000000000000000000000000000000000000000000000000000000000000000000000000000000000000000000000000000000000000000000000000000000000",
            "coinbase" : "0x3535353535353535353535353535353535353535",
            "difficulty" : "0x020000",
            "extraData" : "0x42",
            "gasLimit" : "0x05f5e100",
            "gasUsed" : "0x00",
            "hash" : "0x4b56dd4fada98cf6fd1120843082bf1765b4d9e183bb9f233d01033f2baf851c",
            "mixHash" : "0x56e81f171bcc55a6ff8345e692c0f86e5b48e01b996cadc001622fb5e363b421",
            "nonce" : "0x0102030405060708",
            "number" : "0x00",
            "parentHash" : "0x0000000000000000000000000000000000000000000000000000000000000000",
            "receiptTrie" : "0x56e81f171bcc55a6ff8345e692c0f86e5b48e01b996cadc001622fb5e363b421",
            "stateRoot" : "0x70c42824108fafccadbfce71e6e22660c4fad89be18be324cd15ef351969a8c8",
            "timestamp" : "0x03b6",
            "transactionsTrie" : "0x56e81f171bcc55a6ff8345e692c0f86e5b48e01b996cadc001622fb5e363b421",
            "uncleHash" : "0x1dcc4de8dec75d7aab85b567b6ccd41ad312451b948a7413f0a142fd40d49347"
        },
        "genesisRLP" : "0xf901fbf901f6a00000000000000000000000000000000000000000000000000000000000000000a01dcc4de8dec75d7aab85b567b6ccd41ad312451b948a7413f0a142fd40d49347943535353535353535353535353535353535353535a070c42824108fafccadbfce71e6e22660c4fad89be18be324cd15ef351969a8c8a056e81f171bcc55a6ff8345e692c0f86e5b48e01b996cadc001622fb5e363b421a056e81f171bcc55a6ff8345e692c0f86e5b48e01b996cadc001622fb5e363b421b901000000000000000000000000000000000000000000000000000000000000000000000000000000000000000000000000000000000000000000000000000000000000000000000000000000000000000000000000000000000000000000000000000000000000000000000000000000000000000000000000000000000000000000000000000000000000000000000000000000000000000000000000000000000000000000000000000000000000000000000000000000000000000000000000000000000000000000000000000000000000000000000000000000000000000000000000000000000000000000000000000000000000000000000000000000000083020000808405f5e100808203b642a056e81f171bcc55a6ff8345e692c0f86e5b48e01b996cadc001622fb5e363b421880102030405060708c0c0",
        "lastblockhash" : "0xb68b686017e6d4b4a14975f6e44a1778364fc38786b21b490f8bcfaa1f9554b4",
        "network" : "Frontier",
        "postState" : {
            "0x0000000000000000000000000000000000000005" : {
                "balance" : "0x00",
                "code" : "",
                "nonce" : "0x00",
                "storage" : {
                }
            },
            "0x3535353535353535353535353535353535353535" : {
                "balance" : "0x4563918244f45388",
                "code" : "",
                "nonce" : "0x00",
                "storage" : {
                }
            },
            "0xa94f5374fce5edbc8e2a8697c15331677e6ebf0b" : {
                "balance" : "0x3635c9adc5de9fac78",
                "code" : "",
                "nonce" : "0x01",
                "storage" : {
                }
            }
        },
        "pre" : {
            "0xa94f5374fce5edbc8e2a8697c15331677e6ebf0b" : {
                "balance" : "0x3635c9adc5dea00000",
                "code" : "",
                "nonce" : "0x00",
                "storage" : {
                }
            }
        }
    },
    "modexpRandomInput_d1g0v0_Homestead" : {
        "_info" : {
            "comment" : "",
            "filledwith" : "cpp-1.3.0+commit.72502df4.Linux.g++",
            "lllcversion" : "Version: 0.4.18-develop.2017.10.11+commit.81f9f86c.Linux.g++",
            "source" : "src/BlockchainTestsFiller/GeneralStateTests/stPreCompiledContracts2/modexpRandomInput_d1g0v0Filler.json",
            "sourceHash" : "8db7d23295b5eccac1c251d1551b50757c591b62a7585952def48834c6c6d322"
        },
        "blocks" : [
            {
                "blockHeader" : {
                    "bloom" : "0x00000000000000000000000000000000000000000000000000000000000000000000000000000000000000000000000000000000000000000000000000000000000000000000000000000000000000000000000000000000000000000000000000000000000000000000000000000000000000000000000000000000000000000000000000000000000000000000000000000000000000000000000000000000000000000000000000000000000000000000000000000000000000000000000000000000000000000000000000000000000000000000000000000000000000000000000000000000000000000000000000000000000000000000000000000000",
                    "coinbase" : "0x3535353535353535353535353535353535353535",
                    "difficulty" : "0x020000",
                    "extraData" : "",
                    "gasLimit" : "0x05f5e100",
                    "gasUsed" : "0x5388",
                    "hash" : "0x455e3e9de89ab70fca6cc5a88e8fd930fed4256ed27648af9345189cd97efc87",
                    "mixHash" : "0x6d2325c5a8cc0d2dda48377700ba35dac2b7265cbb7abd894f78398fbed362d8",
                    "nonce" : "0xedf2e338cd70eb01",
                    "number" : "0x01",
                    "parentHash" : "0x4b56dd4fada98cf6fd1120843082bf1765b4d9e183bb9f233d01033f2baf851c",
                    "receiptTrie" : "0xf40e7114a62bf61eb3673105fd0fbf395cd32329c725e62f37af0c46f767ad6a",
                    "stateRoot" : "0xff14718d756d7e7b099ab0a98925acfd8a7e1d7e4e7e4628cf4cf3e166d7162b",
                    "timestamp" : "0x03e8",
                    "transactionsTrie" : "0x6392afb63ed1734cd3a3037e0e37e4571727f5f375098de8f4e3a5c751574ef2",
                    "uncleHash" : "0x1dcc4de8dec75d7aab85b567b6ccd41ad312451b948a7413f0a142fd40d49347"
                },
                "rlp" : "0xf90290f901f8a04b56dd4fada98cf6fd1120843082bf1765b4d9e183bb9f233d01033f2baf851ca01dcc4de8dec75d7aab85b567b6ccd41ad312451b948a7413f0a142fd40d49347943535353535353535353535353535353535353535a0ff14718d756d7e7b099ab0a98925acfd8a7e1d7e4e7e4628cf4cf3e166d7162ba06392afb63ed1734cd3a3037e0e37e4571727f5f375098de8f4e3a5c751574ef2a0f40e7114a62bf61eb3673105fd0fbf395cd32329c725e62f37af0c46f767ad6ab901000000000000000000000000000000000000000000000000000000000000000000000000000000000000000000000000000000000000000000000000000000000000000000000000000000000000000000000000000000000000000000000000000000000000000000000000000000000000000000000000000000000000000000000000000000000000000000000000000000000000000000000000000000000000000000000000000000000000000000000000000000000000000000000000000000000000000000000000000000000000000000000000000000000000000000000000000000000000000000000000000000000000000000000000000000000083020000018405f5e1008253888203e880a06d2325c5a8cc0d2dda48377700ba35dac2b7265cbb7abd894f78398fbed362d888edf2e338cd70eb01f892f8908001830ad57094000000000000000000000000000000000000000580b000000000008000000000000000000000000000000000000000000000000000000000000400000000000000000000000a1ba07f92f6c87aa5aae5de02f4fef7b8625a4705dcc83101f5064e85d0451d6f7061a017646ae6179dc3564553aa73ff108c14e72d191c147bfa38b4885b7b88548c23c0",
                "transactions" : [
                    {
                        "data" : "0x00000000008000000000000000000000000000000000000000000000000000000000000400000000000000000000000a",
                        "gasLimit" : "0x0ad570",
                        "gasPrice" : "0x01",
                        "nonce" : "0x00",
                        "r" : "0x7f92f6c87aa5aae5de02f4fef7b8625a4705dcc83101f5064e85d0451d6f7061",
                        "s" : "0x17646ae6179dc3564553aa73ff108c14e72d191c147bfa38b4885b7b88548c23",
                        "to" : "0x0000000000000000000000000000000000000005",
                        "v" : "0x1b",
                        "value" : "0x00"
                    }
                ],
                "uncleHeaders" : [
                ]
            }
        ],
        "genesisBlockHeader" : {
            "bloom" : "0x00000000000000000000000000000000000000000000000000000000000000000000000000000000000000000000000000000000000000000000000000000000000000000000000000000000000000000000000000000000000000000000000000000000000000000000000000000000000000000000000000000000000000000000000000000000000000000000000000000000000000000000000000000000000000000000000000000000000000000000000000000000000000000000000000000000000000000000000000000000000000000000000000000000000000000000000000000000000000000000000000000000000000000000000000000000",
            "coinbase" : "0x3535353535353535353535353535353535353535",
            "difficulty" : "0x020000",
            "extraData" : "0x42",
            "gasLimit" : "0x05f5e100",
            "gasUsed" : "0x00",
            "hash" : "0x4b56dd4fada98cf6fd1120843082bf1765b4d9e183bb9f233d01033f2baf851c",
            "mixHash" : "0x56e81f171bcc55a6ff8345e692c0f86e5b48e01b996cadc001622fb5e363b421",
            "nonce" : "0x0102030405060708",
            "number" : "0x00",
            "parentHash" : "0x0000000000000000000000000000000000000000000000000000000000000000",
            "receiptTrie" : "0x56e81f171bcc55a6ff8345e692c0f86e5b48e01b996cadc001622fb5e363b421",
            "stateRoot" : "0x70c42824108fafccadbfce71e6e22660c4fad89be18be324cd15ef351969a8c8",
            "timestamp" : "0x03b6",
            "transactionsTrie" : "0x56e81f171bcc55a6ff8345e692c0f86e5b48e01b996cadc001622fb5e363b421",
            "uncleHash" : "0x1dcc4de8dec75d7aab85b567b6ccd41ad312451b948a7413f0a142fd40d49347"
        },
        "genesisRLP" : "0xf901fbf901f6a00000000000000000000000000000000000000000000000000000000000000000a01dcc4de8dec75d7aab85b567b6ccd41ad312451b948a7413f0a142fd40d49347943535353535353535353535353535353535353535a070c42824108fafccadbfce71e6e22660c4fad89be18be324cd15ef351969a8c8a056e81f171bcc55a6ff8345e692c0f86e5b48e01b996cadc001622fb5e363b421a056e81f171bcc55a6ff8345e692c0f86e5b48e01b996cadc001622fb5e363b421b901000000000000000000000000000000000000000000000000000000000000000000000000000000000000000000000000000000000000000000000000000000000000000000000000000000000000000000000000000000000000000000000000000000000000000000000000000000000000000000000000000000000000000000000000000000000000000000000000000000000000000000000000000000000000000000000000000000000000000000000000000000000000000000000000000000000000000000000000000000000000000000000000000000000000000000000000000000000000000000000000000000000000000000000000000000000083020000808405f5e100808203b642a056e81f171bcc55a6ff8345e692c0f86e5b48e01b996cadc001622fb5e363b421880102030405060708c0c0",
        "lastblockhash" : "0x455e3e9de89ab70fca6cc5a88e8fd930fed4256ed27648af9345189cd97efc87",
        "network" : "Homestead",
        "postState" : {
            "0x0000000000000000000000000000000000000005" : {
                "balance" : "0x00",
                "code" : "",
                "nonce" : "0x00",
                "storage" : {
                }
            },
            "0x3535353535353535353535353535353535353535" : {
                "balance" : "0x4563918244f45388",
                "code" : "",
                "nonce" : "0x00",
                "storage" : {
                }
            },
            "0xa94f5374fce5edbc8e2a8697c15331677e6ebf0b" : {
                "balance" : "0x3635c9adc5de9fac78",
                "code" : "",
                "nonce" : "0x01",
                "storage" : {
                }
            }
        },
        "pre" : {
            "0xa94f5374fce5edbc8e2a8697c15331677e6ebf0b" : {
                "balance" : "0x3635c9adc5dea00000",
                "code" : "",
                "nonce" : "0x00",
                "storage" : {
                }
            }
        }
    }
}