{
    "modexpRandomInput_d0g1v0_Byzantium" : {
        "_info" : {
            "comment" : "",
            "filledwith" : "cpp-1.3.0+commit.72502df4.Linux.g++",
            "lllcversion" : "Version: 0.4.18-develop.2017.10.11+commit.81f9f86c.Linux.g++",
            "source" : "src/BlockchainTestsFiller/GeneralStateTests/stPreCompiledContracts2/modexpRandomInput_d0g1v0Filler.json",
            "sourceHash" : "cdaea10825487305a55fc9e24302bfeebf3b3edacd4e22c7b98d82ef1161aafa"
        },
        "blocks" : [
            {
                "blockHeader" : {
                    "bloom" : "0x00000000000000000000000000000000000000000000000000000000000000000000000000000000000000000000000000000000000000000000000000000000000000000000000000000000000000000000000000000000000000000000000000000000000000000000000000000000000000000000000000000000000000000000000000000000000000000000000000000000000000000000000000000000000000000000000000000000000000000000000000000000000000000000000000000000000000000000000000000000000000000000000000000000000000000000000000000000000000000000000000000000000000000000000000000000",
                    "coinbase" : "0x3535353535353535353535353535353535353535",
                    "difficulty" : "0x020000",
                    "extraData" : "",
                    "gasLimit" : "0x05f5e100",
                    "gasUsed" : "0x5958",
                    "hash" : "0x54e574d6af4c93ce7f8a035cd5d7ee0bd440be3f5131979ac7954b8646de3c1b",
                    "mixHash" : "0x614c23733d29a382652250c6eb7891f1710333def3bc167437a701936e519402",
                    "nonce" : "0xac6ce4156345fecd",
                    "number" : "0x01",
                    "parentHash" : "0x4b56dd4fada98cf6fd1120843082bf1765b4d9e183bb9f233d01033f2baf851c",
                    "receiptTrie" : "0xf1098edc18bb71db4ebed7b64e8376f33d37ea4bca940e6803ba4a2adb15f20e",
                    "stateRoot" : "0x51cefcefcfea4dd46f8aa0bbb556a6a7fc6709273a6f773bdc3e63bd8b8fbb1d",
                    "timestamp" : "0x03e8",
                    "transactionsTrie" : "0x5db033e231491127337a966ec6d70208ebec077c5a9b55db36753120d1c542ac",
                    "uncleHash" : "0x1dcc4de8dec75d7aab85b567b6ccd41ad312451b948a7413f0a142fd40d49347"
                },
                "rlp" : "0xf9029af901f8a04b56dd4fada98cf6fd1120843082bf1765b4d9e183bb9f233d01033f2baf851ca01dcc4de8dec75d7aab85b567b6ccd41ad312451b948a7413f0a142fd40d49347943535353535353535353535353535353535353535a051cefcefcfea4dd46f8aa0bbb556a6a7fc6709273a6f773bdc3e63bd8b8fbb1da05db033e231491127337a966ec6d70208ebec077c5a9b55db36753120d1c542aca0f1098edc18bb71db4ebed7b64e8376f33d37ea4bca940e6803ba4a2adb15f20eb901000000000000000000000000000000000000000000000000000000000000000000000000000000000000000000000000000000000000000000000000000000000000000000000000000000000000000000000000000000000000000000000000000000000000000000000000000000000000000000000000000000000000000000000000000000000000000000000000000000000000000000000000000000000000000000000000000000000000000000000000000000000000000000000000000000000000000000000000000000000000000000000000000000000000000000000000000000000000000000000000000000000000000000000000000000000083020000018405f5e1008259588203e880a0614c23733d29a382652250c6eb7891f1710333def3bc167437a701936e51940288ac6ce4156345fecdf89cf89a8001836acfc094000000000000000000000000000000000000000580b83900000000000000000000000000000000000000000000000000000000000000e3000000000000000000000000000000000000000000000000001ca0b0f96af4a341d9a1346fdd37f633eb5017ff95d6312b4cbd7533a21dfecb3302a01b4b565910d9767b232e0d39d3bd997fa95a02093269bb15d22239d4135fefebc0",
                "transactions" : [
                    {
                        "data" : "0x00000000000000000000000000000000000000000000000000000000000000e300000000000000000000000000000000000000000000000000",
                        "gasLimit" : "0x6acfc0",
                        "gasPrice" : "0x01",
                        "nonce" : "0x00",
                        "r" : "0xb0f96af4a341d9a1346fdd37f633eb5017ff95d6312b4cbd7533a21dfecb3302",
                        "s" : "0x1b4b565910d9767b232e0d39d3bd997fa95a02093269bb15d22239d4135fefeb",
                        "to" : "0x0000000000000000000000000000000000000005",
                        "v" : "0x1c",
                        "value" : "0x00"
                    }
                ],
                "uncleHeaders" : [
                ]
            }
        ],
        "genesisBlockHeader" : {
            "bloom" : "0x00000000000000000000000000000000000000000000000000000000000000000000000000000000000000000000000000000000000000000000000000000000000000000000000000000000000000000000000000000000000000000000000000000000000000000000000000000000000000000000000000000000000000000000000000000000000000000000000000000000000000000000000000000000000000000000000000000000000000000000000000000000000000000000000000000000000000000000000000000000000000000000000000000000000000000000000000000000000000000000000000000000000000000000000000000000",
            "coinbase" : "0x3535353535353535353535353535353535353535",
            "difficulty" : "0x020000",
            "extraData" : "0x42",
            "gasLimit" : "0x05f5e100",
            "gasUsed" : "0x00",
            "hash" : "0x4b56dd4fada98cf6fd1120843082bf1765b4d9e183bb9f233d01033f2baf851c",
            "mixHash" : "0x56e81f171bcc55a6ff8345e692c0f86e5b48e01b996cadc001622fb5e363b421",
            "nonce" : "0x0102030405060708",
            "number" : "0x00",
            "parentHash" : "0x0000000000000000000000000000000000000000000000000000000000000000",
            "receiptTrie" : "0x56e81f171bcc55a6ff8345e692c0f86e5b48e01b996cadc001622fb5e363b421",
            "stateRoot" : "0x70c42824108fafccadbfce71e6e22660c4fad89be18be324cd15ef351969a8c8",
            "timestamp" : "0x03b6",
            "transactionsTrie" : "0x56e81f171bcc55a6ff8345e692c0f86e5b48e01b996cadc001622fb5e363b421",
            "uncleHash" : "0x1dcc4de8dec75d7aab85b567b6ccd41ad312451b948a7413f0a142fd40d49347"
        },
        "genesisRLP" : "0xf901fbf901f6a00000000000000000000000000000000000000000000000000000000000000000a01dcc4de8dec75d7aab85b567b6ccd41ad312451b948a7413f0a142fd40d49347943535353535353535353535353535353535353535a070c42824108fafccadbfce71e6e22660c4fad89be18be324cd15ef351969a8c8a056e81f171bcc55a6ff8345e692c0f86e5b48e01b996cadc001622fb5e363b421a056e81f171bcc55a6ff8345e692c0f86e5b48e01b996cadc001622fb5e363b421b901000000000000000000000000000000000000000000000000000000000000000000000000000000000000000000000000000000000000000000000000000000000000000000000000000000000000000000000000000000000000000000000000000000000000000000000000000000000000000000000000000000000000000000000000000000000000000000000000000000000000000000000000000000000000000000000000000000000000000000000000000000000000000000000000000000000000000000000000000000000000000000000000000000000000000000000000000000000000000000000000000000000000000000000000000000000083020000808405f5e100808203b642a056e81f171bcc55a6ff8345e692c0f86e5b48e01b996cadc001622fb5e363b421880102030405060708c0c0",
        "lastblockhash" : "0x54e574d6af4c93ce7f8a035cd5d7ee0bd440be3f5131979ac7954b8646de3c1b",
        "network" : "Byzantium",
        "postState" : {
            "0x3535353535353535353535353535353535353535" : {
                "balance" : "0x29a2241af62c5958",
                "code" : "",
                "nonce" : "0x00",
                "storage" : {
                }
            },
            "0xa94f5374fce5edbc8e2a8697c15331677e6ebf0b" : {
                "balance" : "0x3635c9adc5de9fa6a8",
                "code" : "",
                "nonce" : "0x01",
                "storage" : {
                }
            }
        },
        "pre" : {
            "0xa94f5374fce5edbc8e2a8697c15331677e6ebf0b" : {
                "balance" : "0x3635c9adc5dea00000",
                "code" : "",
                "nonce" : "0x00",
                "storage" : {
                }
            }
        }
    },
    "modexpRandomInput_d0g1v0_Constantinople" : {
        "_info" : {
            "comment" : "",
            "filledwith" : "cpp-1.3.0+commit.72502df4.Linux.g++",
            "lllcversion" : "Version: 0.4.18-develop.2017.10.11+commit.81f9f86c.Linux.g++",
            "source" : "src/BlockchainTestsFiller/GeneralStateTests/stPreCompiledContracts2/modexpRandomInput_d0g1v0Filler.json",
            "sourceHash" : "cdaea10825487305a55fc9e24302bfeebf3b3edacd4e22c7b98d82ef1161aafa"
        },
        "blocks" : [
            {
                "blockHeader" : {
                    "bloom" : "0x00000000000000000000000000000000000000000000000000000000000000000000000000000000000000000000000000000000000000000000000000000000000000000000000000000000000000000000000000000000000000000000000000000000000000000000000000000000000000000000000000000000000000000000000000000000000000000000000000000000000000000000000000000000000000000000000000000000000000000000000000000000000000000000000000000000000000000000000000000000000000000000000000000000000000000000000000000000000000000000000000000000000000000000000000000000",
                    "coinbase" : "0x3535353535353535353535353535353535353535",
                    "difficulty" : "0x020000",
                    "extraData" : "",
                    "gasLimit" : "0x05f5e100",
                    "gasUsed" : "0x5958",
                    "hash" : "0x58b1faf70a270e19e27d21038d68f6e51b90c1b6806f5b3e4831475d3830eca5",
                    "mixHash" : "0x7790681241769f41c4c67daab3926198d65b3952b3640d2e2a8a35a991bfedb6",
                    "nonce" : "0x7f0ea7412e6b9acc",
                    "number" : "0x01",
                    "parentHash" : "0x4b56dd4fada98cf6fd1120843082bf1765b4d9e183bb9f233d01033f2baf851c",
                    "receiptTrie" : "0xf1098edc18bb71db4ebed7b64e8376f33d37ea4bca940e6803ba4a2adb15f20e",
                    "stateRoot" : "0x51cefcefcfea4dd46f8aa0bbb556a6a7fc6709273a6f773bdc3e63bd8b8fbb1d",
                    "timestamp" : "0x03e8",
                    "transactionsTrie" : "0x5db033e231491127337a966ec6d70208ebec077c5a9b55db36753120d1c542ac",
                    "uncleHash" : "0x1dcc4de8dec75d7aab85b567b6ccd41ad312451b948a7413f0a142fd40d49347"
                },
                "rlp" : "0xf9029af901f8a04b56dd4fada98cf6fd1120843082bf1765b4d9e183bb9f233d01033f2baf851ca01dcc4de8dec75d7aab85b567b6ccd41ad312451b948a7413f0a142fd40d49347943535353535353535353535353535353535353535a051cefcefcfea4dd46f8aa0bbb556a6a7fc6709273a6f773bdc3e63bd8b8fbb1da05db033e231491127337a966ec6d70208ebec077c5a9b55db36753120d1c542aca0f1098edc18bb71db4ebed7b64e8376f33d37ea4bca940e6803ba4a2adb15f20eb901000000000000000000000000000000000000000000000000000000000000000000000000000000000000000000000000000000000000000000000000000000000000000000000000000000000000000000000000000000000000000000000000000000000000000000000000000000000000000000000000000000000000000000000000000000000000000000000000000000000000000000000000000000000000000000000000000000000000000000000000000000000000000000000000000000000000000000000000000000000000000000000000000000000000000000000000000000000000000000000000000000000000000000000000000000000083020000018405f5e1008259588203e880a07790681241769f41c4c67daab3926198d65b3952b3640d2e2a8a35a991bfedb6887f0ea7412e6b9accf89cf89a8001836acfc094000000000000000000000000000000000000000580b83900000000000000000000000000000000000000000000000000000000000000e3000000000000000000000000000000000000000000000000001ca0b0f96af4a341d9a1346fdd37f633eb5017ff95d6312b4cbd7533a21dfecb3302a01b4b565910d9767b232e0d39d3bd997fa95a02093269bb15d22239d4135fefebc0",
                "transactions" : [
                    {
                        "data" : "0x00000000000000000000000000000000000000000000000000000000000000e300000000000000000000000000000000000000000000000000",
                        "gasLimit" : "0x6acfc0",
                        "gasPrice" : "0x01",
                        "nonce" : "0x00",
                        "r" : "0xb0f96af4a341d9a1346fdd37f633eb5017ff95d6312b4cbd7533a21dfecb3302",
                        "s" : "0x1b4b565910d9767b232e0d39d3bd997fa95a02093269bb15d22239d4135fefeb",
                        "to" : "0x0000000000000000000000000000000000000005",
                        "v" : "0x1c",
                        "value" : "0x00"
                    }
                ],
                "uncleHeaders" : [
                ]
            }
        ],
        "genesisBlockHeader" : {
            "bloom" : "0x00000000000000000000000000000000000000000000000000000000000000000000000000000000000000000000000000000000000000000000000000000000000000000000000000000000000000000000000000000000000000000000000000000000000000000000000000000000000000000000000000000000000000000000000000000000000000000000000000000000000000000000000000000000000000000000000000000000000000000000000000000000000000000000000000000000000000000000000000000000000000000000000000000000000000000000000000000000000000000000000000000000000000000000000000000000",
            "coinbase" : "0x3535353535353535353535353535353535353535",
            "difficulty" : "0x020000",
            "extraData" : "0x42",
            "gasLimit" : "0x05f5e100",
            "gasUsed" : "0x00",
            "hash" : "0x4b56dd4fada98cf6fd1120843082bf1765b4d9e183bb9f233d01033f2baf851c",
            "mixHash" : "0x56e81f171bcc55a6ff8345e692c0f86e5b48e01b996cadc001622fb5e363b421",
            "nonce" : "0x0102030405060708",
            "number" : "0x00",
            "parentHash" : "0x0000000000000000000000000000000000000000000000000000000000000000",
            "receiptTrie" : "0x56e81f171bcc55a6ff8345e692c0f86e5b48e01b996cadc001622fb5e363b421",
            "stateRoot" : "0x70c42824108fafccadbfce71e6e22660c4fad89be18be324cd15ef351969a8c8",
            "timestamp" : "0x03b6",
            "transactionsTrie" : "0x56e81f171bcc55a6ff8345e692c0f86e5b48e01b996cadc001622fb5e363b421",
            "uncleHash" : "0x1dcc4de8dec75d7aab85b567b6ccd41ad312451b948a7413f0a142fd40d49347"
        },
        "genesisRLP" : "0xf901fbf901f6a00000000000000000000000000000000000000000000000000000000000000000a01dcc4de8dec75d7aab85b567b6ccd41ad312451b948a7413f0a142fd40d49347943535353535353535353535353535353535353535a070c42824108fafccadbfce71e6e22660c4fad89be18be324cd15ef351969a8c8a056e81f171bcc55a6ff8345e692c0f86e5b48e01b996cadc001622fb5e363b421a056e81f171bcc55a6ff8345e692c0f86e5b48e01b996cadc001622fb5e363b421b901000000000000000000000000000000000000000000000000000000000000000000000000000000000000000000000000000000000000000000000000000000000000000000000000000000000000000000000000000000000000000000000000000000000000000000000000000000000000000000000000000000000000000000000000000000000000000000000000000000000000000000000000000000000000000000000000000000000000000000000000000000000000000000000000000000000000000000000000000000000000000000000000000000000000000000000000000000000000000000000000000000000000000000000000000000000083020000808405f5e100808203b642a056e81f171bcc55a6ff8345e692c0f86e5b48e01b996cadc001622fb5e363b421880102030405060708c0c0",
        "lastblockhash" : "0x58b1faf70a270e19e27d21038d68f6e51b90c1b6806f5b3e4831475d3830eca5",
        "network" : "Constantinople",
        "postState" : {
            "0x3535353535353535353535353535353535353535" : {
                "balance" : "0x29a2241af62c5958",
                "code" : "",
                "nonce" : "0x00",
                "storage" : {
                }
            },
            "0xa94f5374fce5edbc8e2a8697c15331677e6ebf0b" : {
                "balance" : "0x3635c9adc5de9fa6a8",
                "code" : "",
                "nonce" : "0x01",
                "storage" : {
                }
            }
        },
        "pre" : {
            "0xa94f5374fce5edbc8e2a8697c15331677e6ebf0b" : {
                "balance" : "0x3635c9adc5dea00000",
                "code" : "",
                "nonce" : "0x00",
                "storage" : {
                }
            }
        }
    },
    "modexpRandomInput_d0g1v0_EIP150" : {
        "_info" : {
            "comment" : "",
            "filledwith" : "cpp-1.3.0+commit.72502df4.Linux.g++",
            "lllcversion" : "Version: 0.4.18-develop.2017.10.11+commit.81f9f86c.Linux.g++",
            "source" : "src/BlockchainTestsFiller/GeneralStateTests/stPreCompiledContracts2/modexpRandomInput_d0g1v0Filler.json",
            "sourceHash" : "cdaea10825487305a55fc9e24302bfeebf3b3edacd4e22c7b98d82ef1161aafa"
        },
        "blocks" : [
            {
                "blockHeader" : {
                    "bloom" : "0x00000000000000000000000000000000000000000000000000000000000000000000000000000000000000000000000000000000000000000000000000000000000000000000000000000000000000000000000000000000000000000000000000000000000000000000000000000000000000000000000000000000000000000000000000000000000000000000000000000000000000000000000000000000000000000000000000000000000000000000000000000000000000000000000000000000000000000000000000000000000000000000000000000000000000000000000000000000000000000000000000000000000000000000000000000000",
                    "coinbase" : "0x3535353535353535353535353535353535353535",
                    "difficulty" : "0x020000",
                    "extraData" : "",
                    "gasLimit" : "0x05f5e100",
                    "gasUsed" : "0x532c",
                    "hash" : "0x19fa1c0ac861d39b421466fa1e855d426fe7d35a615b2f79f0ac9ba3044b989f",
                    "mixHash" : "0x258c309bf3f2f95e3d1a12573fa762648edca7b4ec87a23c166920f441116e0e",
                    "nonce" : "0xbf7789c941194e5b",
                    "number" : "0x01",
                    "parentHash" : "0x4b56dd4fada98cf6fd1120843082bf1765b4d9e183bb9f233d01033f2baf851c",
                    "receiptTrie" : "0x6f8f390d099bfe2947d93f4e1d803c1f9aacfeec5224111dba783618be02c218",
                    "stateRoot" : "0x517c142b4dee10ffe0a995b3b2f624fda66fb4703e492b553d49826ef05ad901",
                    "timestamp" : "0x03e8",
                    "transactionsTrie" : "0x5db033e231491127337a966ec6d70208ebec077c5a9b55db36753120d1c542ac",
                    "uncleHash" : "0x1dcc4de8dec75d7aab85b567b6ccd41ad312451b948a7413f0a142fd40d49347"
                },
                "rlp" : "0xf9029af901f8a04b56dd4fada98cf6fd1120843082bf1765b4d9e183bb9f233d01033f2baf851ca01dcc4de8dec75d7aab85b567b6ccd41ad312451b948a7413f0a142fd40d49347943535353535353535353535353535353535353535a0517c142b4dee10ffe0a995b3b2f624fda66fb4703e492b553d49826ef05ad901a05db033e231491127337a966ec6d70208ebec077c5a9b55db36753120d1c542aca06f8f390d099bfe2947d93f4e1d803c1f9aacfeec5224111dba783618be02c218b901000000000000000000000000000000000000000000000000000000000000000000000000000000000000000000000000000000000000000000000000000000000000000000000000000000000000000000000000000000000000000000000000000000000000000000000000000000000000000000000000000000000000000000000000000000000000000000000000000000000000000000000000000000000000000000000000000000000000000000000000000000000000000000000000000000000000000000000000000000000000000000000000000000000000000000000000000000000000000000000000000000000000000000000000000000000083020000018405f5e10082532c8203e880a0258c309bf3f2f95e3d1a12573fa762648edca7b4ec87a23c166920f441116e0e88bf7789c941194e5bf89cf89a8001836acfc094000000000000000000000000000000000000000580b83900000000000000000000000000000000000000000000000000000000000000e3000000000000000000000000000000000000000000000000001ca0b0f96af4a341d9a1346fdd37f633eb5017ff95d6312b4cbd7533a21dfecb3302a01b4b565910d9767b232e0d39d3bd997fa95a02093269bb15d22239d4135fefebc0",
                "transactions" : [
                    {
                        "data" : "0x00000000000000000000000000000000000000000000000000000000000000e300000000000000000000000000000000000000000000000000",
                        "gasLimit" : "0x6acfc0",
                        "gasPrice" : "0x01",
                        "nonce" : "0x00",
                        "r" : "0xb0f96af4a341d9a1346fdd37f633eb5017ff95d6312b4cbd7533a21dfecb3302",
                        "s" : "0x1b4b565910d9767b232e0d39d3bd997fa95a02093269bb15d22239d4135fefeb",
                        "to" : "0x0000000000000000000000000000000000000005",
                        "v" : "0x1c",
                        "value" : "0x00"
                    }
                ],
                "uncleHeaders" : [
                ]
            }
        ],
        "genesisBlockHeader" : {
            "bloom" : "0x00000000000000000000000000000000000000000000000000000000000000000000000000000000000000000000000000000000000000000000000000000000000000000000000000000000000000000000000000000000000000000000000000000000000000000000000000000000000000000000000000000000000000000000000000000000000000000000000000000000000000000000000000000000000000000000000000000000000000000000000000000000000000000000000000000000000000000000000000000000000000000000000000000000000000000000000000000000000000000000000000000000000000000000000000000000",
            "coinbase" : "0x3535353535353535353535353535353535353535",
            "difficulty" : "0x020000",
            "extraData" : "0x42",
            "gasLimit" : "0x05f5e100",
            "gasUsed" : "0x00",
            "hash" : "0x4b56dd4fada98cf6fd1120843082bf1765b4d9e183bb9f233d01033f2baf851c",
            "mixHash" : "0x56e81f171bcc55a6ff8345e692c0f86e5b48e01b996cadc001622fb5e363b421",
            "nonce" : "0x0102030405060708",
            "number" : "0x00",
            "parentHash" : "0x0000000000000000000000000000000000000000000000000000000000000000",
            "receiptTrie" : "0x56e81f171bcc55a6ff8345e692c0f86e5b48e01b996cadc001622fb5e363b421",
            "stateRoot" : "0x70c42824108fafccadbfce71e6e22660c4fad89be18be324cd15ef351969a8c8",
            "timestamp" : "0x03b6",
            "transactionsTrie" : "0x56e81f171bcc55a6ff8345e692c0f86e5b48e01b996cadc001622fb5e363b421",
            "uncleHash" : "0x1dcc4de8dec75d7aab85b567b6ccd41ad312451b948a7413f0a142fd40d49347"
        },
        "genesisRLP" : "0xf901fbf901f6a00000000000000000000000000000000000000000000000000000000000000000a01dcc4de8dec75d7aab85b567b6ccd41ad312451b948a7413f0a142fd40d49347943535353535353535353535353535353535353535a070c42824108fafccadbfce71e6e22660c4fad89be18be324cd15ef351969a8c8a056e81f171bcc55a6ff8345e692c0f86e5b48e01b996cadc001622fb5e363b421a056e81f171bcc55a6ff8345e692c0f86e5b48e01b996cadc001622fb5e363b421b901000000000000000000000000000000000000000000000000000000000000000000000000000000000000000000000000000000000000000000000000000000000000000000000000000000000000000000000000000000000000000000000000000000000000000000000000000000000000000000000000000000000000000000000000000000000000000000000000000000000000000000000000000000000000000000000000000000000000000000000000000000000000000000000000000000000000000000000000000000000000000000000000000000000000000000000000000000000000000000000000000000000000000000000000000000000083020000808405f5e100808203b642a056e81f171bcc55a6ff8345e692c0f86e5b48e01b996cadc001622fb5e363b421880102030405060708c0c0",
        "lastblockhash" : "0x19fa1c0ac861d39b421466fa1e855d426fe7d35a615b2f79f0ac9ba3044b989f",
        "network" : "EIP150",
        "postState" : {
            "0x0000000000000000000000000000000000000005" : {
                "balance" : "0x00",
                "code" : "",
                "nonce" : "0x00",
                "storage" : {
                }
            },
            "0x3535353535353535353535353535353535353535" : {
                "balance" : "0x4563918244f4532c",
                "code" : "",
                "nonce" : "0x00",
                "storage" : {
                }
            },
            "0xa94f5374fce5edbc8e2a8697c15331677e6ebf0b" : {
                "balance" : "0x3635c9adc5de9facd4",
                "code" : "",
                "nonce" : "0x01",
                "storage" : {
                }
            }
        },
        "pre" : {
            "0xa94f5374fce5edbc8e2a8697c15331677e6ebf0b" : {
                "balance" : "0x3635c9adc5dea00000",
                "code" : "",
                "nonce" : "0x00",
                "storage" : {
                }
            }
        }
    },
    "modexpRandomInput_d0g1v0_EIP158" : {
        "_info" : {
            "comment" : "",
            "filledwith" : "cpp-1.3.0+commit.72502df4.Linux.g++",
            "lllcversion" : "Version: 0.4.18-develop.2017.10.11+commit.81f9f86c.Linux.g++",
            "source" : "src/BlockchainTestsFiller/GeneralStateTests/stPreCompiledContracts2/modexpRandomInput_d0g1v0Filler.json",
            "sourceHash" : "cdaea10825487305a55fc9e24302bfeebf3b3edacd4e22c7b98d82ef1161aafa"
        },
        "blocks" : [
            {
                "blockHeader" : {
                    "bloom" : "0x00000000000000000000000000000000000000000000000000000000000000000000000000000000000000000000000000000000000000000000000000000000000000000000000000000000000000000000000000000000000000000000000000000000000000000000000000000000000000000000000000000000000000000000000000000000000000000000000000000000000000000000000000000000000000000000000000000000000000000000000000000000000000000000000000000000000000000000000000000000000000000000000000000000000000000000000000000000000000000000000000000000000000000000000000000000",
                    "coinbase" : "0x3535353535353535353535353535353535353535",
                    "difficulty" : "0x020000",
                    "extraData" : "",
                    "gasLimit" : "0x05f5e100",
                    "gasUsed" : "0x532c",
                    "hash" : "0x7d47d324ae425f7a98d37adf143a6db54ee2787bccd874c2e434b366d9ad763d",
                    "mixHash" : "0x121cdf4dd912ee3b2a9b75e465882e468610dc20a25a0556f25fc29221fa2afe",
                    "nonce" : "0xe629c0f89a56f6c8",
                    "number" : "0x01",
                    "parentHash" : "0x4b56dd4fada98cf6fd1120843082bf1765b4d9e183bb9f233d01033f2baf851c",
                    "receiptTrie" : "0x0e6832bc9b6017350e4ad728b83fa6c0d2ae825dd7e6278435a65cf1d94e13bf",
                    "stateRoot" : "0xedd656043a22dc6ec3c481395858d8c8463e911a3c3394d1192ffffbb33c56ba",
                    "timestamp" : "0x03e8",
                    "transactionsTrie" : "0x5db033e231491127337a966ec6d70208ebec077c5a9b55db36753120d1c542ac",
                    "uncleHash" : "0x1dcc4de8dec75d7aab85b567b6ccd41ad312451b948a7413f0a142fd40d49347"
                },
                "rlp" : "0xf9029af901f8a04b56dd4fada98cf6fd1120843082bf1765b4d9e183bb9f233d01033f2baf851ca01dcc4de8dec75d7aab85b567b6ccd41ad312451b948a7413f0a142fd40d49347943535353535353535353535353535353535353535a0edd656043a22dc6ec3c481395858d8c8463e911a3c3394d1192ffffbb33c56baa05db033e231491127337a966ec6d70208ebec077c5a9b55db36753120d1c542aca00e6832bc9b6017350e4ad728b83fa6c0d2ae825dd7e6278435a65cf1d94e13bfb901000000000000000000000000000000000000000000000000000000000000000000000000000000000000000000000000000000000000000000000000000000000000000000000000000000000000000000000000000000000000000000000000000000000000000000000000000000000000000000000000000000000000000000000000000000000000000000000000000000000000000000000000000000000000000000000000000000000000000000000000000000000000000000000000000000000000000000000000000000000000000000000000000000000000000000000000000000000000000000000000000000000000000000000000000000000083020000018405f5e10082532c8203e880a0121cdf4dd912ee3b2a9b75e465882e468610dc20a25a0556f25fc29221fa2afe88e629c0f89a56f6c8f89cf89a8001836acfc094000000000000000000000000000000000000000580b83900000000000000000000000000000000000000000000000000000000000000e3000000000000000000000000000000000000000000000000001ca0b0f96af4a341d9a1346fdd37f633eb5017ff95d6312b4cbd7533a21dfecb3302a01b4b565910d9767b232e0d39d3bd997fa95a02093269bb15d22239d4135fefebc0",
                "transactions" : [
                    {
                        "data" : "0x00000000000000000000000000000000000000000000000000000000000000e300000000000000000000000000000000000000000000000000",
                        "gasLimit" : "0x6acfc0",
                        "gasPrice" : "0x01",
                        "nonce" : "0x00",
                        "r" : "0xb0f96af4a341d9a1346fdd37f633eb5017ff95d6312b4cbd7533a21dfecb3302",
                        "s" : "0x1b4b565910d9767b232e0d39d3bd997fa95a02093269bb15d22239d4135fefeb",
                        "to" : "0x0000000000000000000000000000000000000005",
                        "v" : "0x1c",
                        "value" : "0x00"
                    }
                ],
                "uncleHeaders" : [
                ]
            }
        ],
        "genesisBlockHeader" : {
            "bloom" : "0x00000000000000000000000000000000000000000000000000000000000000000000000000000000000000000000000000000000000000000000000000000000000000000000000000000000000000000000000000000000000000000000000000000000000000000000000000000000000000000000000000000000000000000000000000000000000000000000000000000000000000000000000000000000000000000000000000000000000000000000000000000000000000000000000000000000000000000000000000000000000000000000000000000000000000000000000000000000000000000000000000000000000000000000000000000000",
            "coinbase" : "0x3535353535353535353535353535353535353535",
            "difficulty" : "0x020000",
            "extraData" : "0x42",
            "gasLimit" : "0x05f5e100",
            "gasUsed" : "0x00",
            "hash" : "0x4b56dd4fada98cf6fd1120843082bf1765b4d9e183bb9f233d01033f2baf851c",
            "mixHash" : "0x56e81f171bcc55a6ff8345e692c0f86e5b48e01b996cadc001622fb5e363b421",
            "nonce" : "0x0102030405060708",
            "number" : "0x00",
            "parentHash" : "0x0000000000000000000000000000000000000000000000000000000000000000",
            "receiptTrie" : "0x56e81f171bcc55a6ff8345e692c0f86e5b48e01b996cadc001622fb5e363b421",
            "stateRoot" : "0x70c42824108fafccadbfce71e6e22660c4fad89be18be324cd15ef351969a8c8",
            "timestamp" : "0x03b6",
            "transactionsTrie" : "0x56e81f171bcc55a6ff8345e692c0f86e5b48e01b996cadc001622fb5e363b421",
            "uncleHash" : "0x1dcc4de8dec75d7aab85b567b6ccd41ad312451b948a7413f0a142fd40d49347"
        },
        "genesisRLP" : "0xf901fbf901f6a00000000000000000000000000000000000000000000000000000000000000000a01dcc4de8dec75d7aab85b567b6ccd41ad312451b948a7413f0a142fd40d49347943535353535353535353535353535353535353535a070c42824108fafccadbfce71e6e22660c4fad89be18be324cd15ef351969a8c8a056e81f171bcc55a6ff8345e692c0f86e5b48e01b996cadc001622fb5e363b421a056e81f171bcc55a6ff8345e692c0f86e5b48e01b996cadc001622fb5e363b421b901000000000000000000000000000000000000000000000000000000000000000000000000000000000000000000000000000000000000000000000000000000000000000000000000000000000000000000000000000000000000000000000000000000000000000000000000000000000000000000000000000000000000000000000000000000000000000000000000000000000000000000000000000000000000000000000000000000000000000000000000000000000000000000000000000000000000000000000000000000000000000000000000000000000000000000000000000000000000000000000000000000000000000000000000000000000083020000808405f5e100808203b642a056e81f171bcc55a6ff8345e692c0f86e5b48e01b996cadc001622fb5e363b421880102030405060708c0c0",
        "lastblockhash" : "0x7d47d324ae425f7a98d37adf143a6db54ee2787bccd874c2e434b366d9ad763d",
        "network" : "EIP158",
        "postState" : {
            "0x3535353535353535353535353535353535353535" : {
                "balance" : "0x4563918244f4532c",
                "code" : "",
                "nonce" : "0x00",
                "storage" : {
                }
            },
            "0xa94f5374fce5edbc8e2a8697c15331677e6ebf0b" : {
                "balance" : "0x3635c9adc5de9facd4",
                "code" : "",
                "nonce" : "0x01",
                "storage" : {
                }
            }
        },
        "pre" : {
            "0xa94f5374fce5edbc8e2a8697c15331677e6ebf0b" : {
                "balance" : "0x3635c9adc5dea00000",
                "code" : "",
                "nonce" : "0x00",
                "storage" : {
                }
            }
        }
    },
    "modexpRandomInput_d0g1v0_Frontier" : {
        "_info" : {
            "comment" : "",
            "filledwith" : "cpp-1.3.0+commit.72502df4.Linux.g++",
            "lllcversion" : "Version: 0.4.18-develop.2017.10.11+commit.81f9f86c.Linux.g++",
            "source" : "src/BlockchainTestsFiller/GeneralStateTests/stPreCompiledContracts2/modexpRandomInput_d0g1v0Filler.json",
            "sourceHash" : "cdaea10825487305a55fc9e24302bfeebf3b3edacd4e22c7b98d82ef1161aafa"
        },
        "blocks" : [
            {
                "blockHeader" : {
                    "bloom" : "0x00000000000000000000000000000000000000000000000000000000000000000000000000000000000000000000000000000000000000000000000000000000000000000000000000000000000000000000000000000000000000000000000000000000000000000000000000000000000000000000000000000000000000000000000000000000000000000000000000000000000000000000000000000000000000000000000000000000000000000000000000000000000000000000000000000000000000000000000000000000000000000000000000000000000000000000000000000000000000000000000000000000000000000000000000000000",
                    "coinbase" : "0x3535353535353535353535353535353535353535",
                    "difficulty" : "0x020000",
                    "extraData" : "",
                    "gasLimit" : "0x05f5e100",
                    "gasUsed" : "0x532c",
                    "hash" : "0x1c137db0d9753d3dd8f6db94e46833fe00183c69bb841aafdb873e443ebe49a7",
                    "mixHash" : "0x337f5c4cfe578d0ac9c581e9262799144ab2bb968bdec422b9eb03e5a6f9ad02",
                    "nonce" : "0xc2e6145652c73d45",
                    "number" : "0x01",
                    "parentHash" : "0x4b56dd4fada98cf6fd1120843082bf1765b4d9e183bb9f233d01033f2baf851c",
                    "receiptTrie" : "0x6f8f390d099bfe2947d93f4e1d803c1f9aacfeec5224111dba783618be02c218",
                    "stateRoot" : "0x517c142b4dee10ffe0a995b3b2f624fda66fb4703e492b553d49826ef05ad901",
                    "timestamp" : "0x03e8",
                    "transactionsTrie" : "0x5db033e231491127337a966ec6d70208ebec077c5a9b55db36753120d1c542ac",
                    "uncleHash" : "0x1dcc4de8dec75d7aab85b567b6ccd41ad312451b948a7413f0a142fd40d49347"
                },
                "rlp" : "0xf9029af901f8a04b56dd4fada98cf6fd1120843082bf1765b4d9e183bb9f233d01033f2baf851ca01dcc4de8dec75d7aab85b567b6ccd41ad312451b948a7413f0a142fd40d49347943535353535353535353535353535353535353535a0517c142b4dee10ffe0a995b3b2f624fda66fb4703e492b553d49826ef05ad901a05db033e231491127337a966ec6d70208ebec077c5a9b55db36753120d1c542aca06f8f390d099bfe2947d93f4e1d803c1f9aacfeec5224111dba783618be02c218b901000000000000000000000000000000000000000000000000000000000000000000000000000000000000000000000000000000000000000000000000000000000000000000000000000000000000000000000000000000000000000000000000000000000000000000000000000000000000000000000000000000000000000000000000000000000000000000000000000000000000000000000000000000000000000000000000000000000000000000000000000000000000000000000000000000000000000000000000000000000000000000000000000000000000000000000000000000000000000000000000000000000000000000000000000000000083020000018405f5e10082532c8203e880a0337f5c4cfe578d0ac9c581e9262799144ab2bb968bdec422b9eb03e5a6f9ad0288c2e6145652c73d45f89cf89a8001836acfc094000000000000000000000000000000000000000580b83900000000000000000000000000000000000000000000000000000000000000e3000000000000000000000000000000000000000000000000001ca0b0f96af4a341d9a1346fdd37f633eb5017ff95d6312b4cbd7533a21dfecb3302a01b4b565910d9767b232e0d39d3bd997fa95a02093269bb15d22239d4135fefebc0",
                "transactions" : [
                    {
                        "data" : "0x00000000000000000000000000000000000000000000000000000000000000e300000000000000000000000000000000000000000000000000",
                        "gasLimit" : "0x6acfc0",
                        "gasPrice" : "0x01",
                        "nonce" : "0x00",
                        "r" : "0xb0f96af4a341d9a1346fdd37f633eb5017ff95d6312b4cbd7533a21dfecb3302",
                        "s" : "0x1b4b565910d9767b232e0d39d3bd997fa95a02093269bb15d22239d4135fefeb",
                        "to" : "0x0000000000000000000000000000000000000005",
                        "v" : "0x1c",
                        "value" : "0x00"
                    }
                ],
                "uncleHeaders" : [
                ]
            }
        ],
        "genesisBlockHeader" : {
            "bloom" : "0x00000000000000000000000000000000000000000000000000000000000000000000000000000000000000000000000000000000000000000000000000000000000000000000000000000000000000000000000000000000000000000000000000000000000000000000000000000000000000000000000000000000000000000000000000000000000000000000000000000000000000000000000000000000000000000000000000000000000000000000000000000000000000000000000000000000000000000000000000000000000000000000000000000000000000000000000000000000000000000000000000000000000000000000000000000000",
            "coinbase" : "0x3535353535353535353535353535353535353535",
            "difficulty" : "0x020000",
            "extraData" : "0x42",
            "gasLimit" : "0x05f5e100",
            "gasUsed" : "0x00",
            "hash" : "0x4b56dd4fada98cf6fd1120843082bf1765b4d9e183bb9f233d01033f2baf851c",
            "mixHash" : "0x56e81f171bcc55a6ff8345e692c0f86e5b48e01b996cadc001622fb5e363b421",
            "nonce" : "0x0102030405060708",
            "number" : "0x00",
            "parentHash" : "0x0000000000000000000000000000000000000000000000000000000000000000",
            "receiptTrie" : "0x56e81f171bcc55a6ff8345e692c0f86e5b48e01b996cadc001622fb5e363b421",
            "stateRoot" : "0x70c42824108fafccadbfce71e6e22660c4fad89be18be324cd15ef351969a8c8",
            "timestamp" : "0x03b6",
            "transactionsTrie" : "0x56e81f171bcc55a6ff8345e692c0f86e5b48e01b996cadc001622fb5e363b421",
            "uncleHash" : "0x1dcc4de8dec75d7aab85b567b6ccd41ad312451b948a7413f0a142fd40d49347"
        },
        "genesisRLP" : "0xf901fbf901f6a00000000000000000000000000000000000000000000000000000000000000000a01dcc4de8dec75d7aab85b567b6ccd41ad312451b948a7413f0a142fd40d49347943535353535353535353535353535353535353535a070c42824108fafccadbfce71e6e22660c4fad89be18be324cd15ef351969a8c8a056e81f171bcc55a6ff8345e692c0f86e5b48e01b996cadc001622fb5e363b421a056e81f171bcc55a6ff8345e692c0f86e5b48e01b996cadc001622fb5e363b421b901000000000000000000000000000000000000000000000000000000000000000000000000000000000000000000000000000000000000000000000000000000000000000000000000000000000000000000000000000000000000000000000000000000000000000000000000000000000000000000000000000000000000000000000000000000000000000000000000000000000000000000000000000000000000000000000000000000000000000000000000000000000000000000000000000000000000000000000000000000000000000000000000000000000000000000000000000000000000000000000000000000000000000000000000000000000083020000808405f5e100808203b642a056e81f171bcc55a6ff8345e692c0f86e5b48e01b996cadc001622fb5e363b421880102030405060708c0c0",
        "lastblockhash" : "0x1c137db0d9753d3dd8f6db94e46833fe00183c69bb841aafdb873e443ebe49a7",
        "network" : "Frontier",
        "postState" : {
            "0x0000000000000000000000000000000000000005" : {
                "balance" : "0x00",
                "code" : "",
                "nonce" : "0x00",
                "storage" : {
                }
            },
            "0x3535353535353535353535353535353535353535" : {
                "balance" : "0x4563918244f4532c",
                "code" : "",
                "nonce" : "0x00",
                "storage" : {
                }
            },
            "0xa94f5374fce5edbc8e2a8697c15331677e6ebf0b" : {
                "balance" : "0x3635c9adc5de9facd4",
                "code" : "",
                "nonce" : "0x01",
                "storage" : {
                }
            }
        },
        "pre" : {
            "0xa94f5374fce5edbc8e2a8697c15331677e6ebf0b" : {
                "balance" : "0x3635c9adc5dea00000",
                "code" : "",
                "nonce" : "0x00",
                "storage" : {
                }
            }
        }
    },
    "modexpRandomInput_d0g1v0_Homestead" : {
        "_info" : {
            "comment" : "",
            "filledwith" : "cpp-1.3.0+commit.72502df4.Linux.g++",
            "lllcversion" : "Version: 0.4.18-develop.2017.10.11+commit.81f9f86c.Linux.g++",
            "source" : "src/BlockchainTestsFiller/GeneralStateTests/stPreCompiledContracts2/modexpRandomInput_d0g1v0Filler.json",
            "sourceHash" : "cdaea10825487305a55fc9e24302bfeebf3b3edacd4e22c7b98d82ef1161aafa"
        },
        "blocks" : [
            {
                "blockHeader" : {
                    "bloom" : "0x00000000000000000000000000000000000000000000000000000000000000000000000000000000000000000000000000000000000000000000000000000000000000000000000000000000000000000000000000000000000000000000000000000000000000000000000000000000000000000000000000000000000000000000000000000000000000000000000000000000000000000000000000000000000000000000000000000000000000000000000000000000000000000000000000000000000000000000000000000000000000000000000000000000000000000000000000000000000000000000000000000000000000000000000000000000",
                    "coinbase" : "0x3535353535353535353535353535353535353535",
                    "difficulty" : "0x020000",
                    "extraData" : "",
                    "gasLimit" : "0x05f5e100",
                    "gasUsed" : "0x532c",
                    "hash" : "0x003b844642fc17580fe10ea2dc8070cc0cf59d588cdd54449917a6cd3d45f081",
                    "mixHash" : "0x091cad862242647f4b67e891f9f7d10d2b5796f630397de8568e203dd023cb46",
                    "nonce" : "0x1eff1f785ed564a7",
                    "number" : "0x01",
                    "parentHash" : "0x4b56dd4fada98cf6fd1120843082bf1765b4d9e183bb9f233d01033f2baf851c",
                    "receiptTrie" : "0x6f8f390d099bfe2947d93f4e1d803c1f9aacfeec5224111dba783618be02c218",
                    "stateRoot" : "0x517c142b4dee10ffe0a995b3b2f624fda66fb4703e492b553d49826ef05ad901",
                    "timestamp" : "0x03e8",
                    "transactionsTrie" : "0x5db033e231491127337a966ec6d70208ebec077c5a9b55db36753120d1c542ac",
                    "uncleHash" : "0x1dcc4de8dec75d7aab85b567b6ccd41ad312451b948a7413f0a142fd40d49347"
                },
                "rlp" : "0xf9029af901f8a04b56dd4fada98cf6fd1120843082bf1765b4d9e183bb9f233d01033f2baf851ca01dcc4de8dec75d7aab85b567b6ccd41ad312451b948a7413f0a142fd40d49347943535353535353535353535353535353535353535a0517c142b4dee10ffe0a995b3b2f624fda66fb4703e492b553d49826ef05ad901a05db033e231491127337a966ec6d70208ebec077c5a9b55db36753120d1c542aca06f8f390d099bfe2947d93f4e1d803c1f9aacfeec5224111dba783618be02c218b901000000000000000000000000000000000000000000000000000000000000000000000000000000000000000000000000000000000000000000000000000000000000000000000000000000000000000000000000000000000000000000000000000000000000000000000000000000000000000000000000000000000000000000000000000000000000000000000000000000000000000000000000000000000000000000000000000000000000000000000000000000000000000000000000000000000000000000000000000000000000000000000000000000000000000000000000000000000000000000000000000000000000000000000000000000000083020000018405f5e10082532c8203e880a0091cad862242647f4b67e891f9f7d10d2b5796f630397de8568e203dd023cb46881eff1f785ed564a7f89cf89a8001836acfc094000000000000000000000000000000000000000580b83900000000000000000000000000000000000000000000000000000000000000e3000000000000000000000000000000000000000000000000001ca0b0f96af4a341d9a1346fdd37f633eb5017ff95d6312b4cbd7533a21dfecb3302a01b4b565910d9767b232e0d39d3bd997fa95a02093269bb15d22239d4135fefebc0",
                "transactions" : [
                    {
                        "data" : "0x00000000000000000000000000000000000000000000000000000000000000e300000000000000000000000000000000000000000000000000",
                        "gasLimit" : "0x6acfc0",
                        "gasPrice" : "0x01",
                        "nonce" : "0x00",
                        "r" : "0xb0f96af4a341d9a1346fdd37f633eb5017ff95d6312b4cbd7533a21dfecb3302",
                        "s" : "0x1b4b565910d9767b232e0d39d3bd997fa95a02093269bb15d22239d4135fefeb",
                        "to" : "0x0000000000000000000000000000000000000005",
                        "v" : "0x1c",
                        "value" : "0x00"
                    }
                ],
                "uncleHeaders" : [
                ]
            }
        ],
        "genesisBlockHeader" : {
            "bloom" : "0x00000000000000000000000000000000000000000000000000000000000000000000000000000000000000000000000000000000000000000000000000000000000000000000000000000000000000000000000000000000000000000000000000000000000000000000000000000000000000000000000000000000000000000000000000000000000000000000000000000000000000000000000000000000000000000000000000000000000000000000000000000000000000000000000000000000000000000000000000000000000000000000000000000000000000000000000000000000000000000000000000000000000000000000000000000000",
            "coinbase" : "0x3535353535353535353535353535353535353535",
            "difficulty" : "0x020000",
            "extraData" : "0x42",
            "gasLimit" : "0x05f5e100",
            "gasUsed" : "0x00",
            "hash" : "0x4b56dd4fada98cf6fd1120843082bf1765b4d9e183bb9f233d01033f2baf851c",
            "mixHash" : "0x56e81f171bcc55a6ff8345e692c0f86e5b48e01b996cadc001622fb5e363b421",
            "nonce" : "0x0102030405060708",
            "number" : "0x00",
            "parentHash" : "0x0000000000000000000000000000000000000000000000000000000000000000",
            "receiptTrie" : "0x56e81f171bcc55a6ff8345e692c0f86e5b48e01b996cadc001622fb5e363b421",
            "stateRoot" : "0x70c42824108fafccadbfce71e6e22660c4fad89be18be324cd15ef351969a8c8",
            "timestamp" : "0x03b6",
            "transactionsTrie" : "0x56e81f171bcc55a6ff8345e692c0f86e5b48e01b996cadc001622fb5e363b421",
            "uncleHash" : "0x1dcc4de8dec75d7aab85b567b6ccd41ad312451b948a7413f0a142fd40d49347"
        },
        "genesisRLP" : "0xf901fbf901f6a00000000000000000000000000000000000000000000000000000000000000000a01dcc4de8dec75d7aab85b567b6ccd41ad312451b948a7413f0a142fd40d49347943535353535353535353535353535353535353535a070c42824108fafccadbfce71e6e22660c4fad89be18be324cd15ef351969a8c8a056e81f171bcc55a6ff8345e692c0f86e5b48e01b996cadc001622fb5e363b421a056e81f171bcc55a6ff8345e692c0f86e5b48e01b996cadc001622fb5e363b421b901000000000000000000000000000000000000000000000000000000000000000000000000000000000000000000000000000000000000000000000000000000000000000000000000000000000000000000000000000000000000000000000000000000000000000000000000000000000000000000000000000000000000000000000000000000000000000000000000000000000000000000000000000000000000000000000000000000000000000000000000000000000000000000000000000000000000000000000000000000000000000000000000000000000000000000000000000000000000000000000000000000000000000000000000000000000083020000808405f5e100808203b642a056e81f171bcc55a6ff8345e692c0f86e5b48e01b996cadc001622fb5e363b421880102030405060708c0c0",
        "lastblockhash" : "0x003b844642fc17580fe10ea2dc8070cc0cf59d588cdd54449917a6cd3d45f081",
        "network" : "Homestead",
        "postState" : {
            "0x0000000000000000000000000000000000000005" : {
                "balance" : "0x00",
                "code" : "",
                "nonce" : "0x00",
                "storage" : {
                }
            },
            "0x3535353535353535353535353535353535353535" : {
                "balance" : "0x4563918244f4532c",
                "code" : "",
                "nonce" : "0x00",
                "storage" : {
                }
            },
            "0xa94f5374fce5edbc8e2a8697c15331677e6ebf0b" : {
                "balance" : "0x3635c9adc5de9facd4",
                "code" : "",
                "nonce" : "0x01",
                "storage" : {
                }
            }
        },
        "pre" : {
            "0xa94f5374fce5edbc8e2a8697c15331677e6ebf0b" : {
                "balance" : "0x3635c9adc5dea00000",
                "code" : "",
                "nonce" : "0x00",
                "storage" : {
                }
            }
        }
    }
}