{
    "createNameRegistratorPerTxsAfter_d0g0v0_Byzantium" : {
        "_info" : {
            "comment" : "",
            "filledwith" : "cpp-1.3.0+commit.6e0ce939.Linux.g++",
            "lllcversion" : "Version: 0.4.18-develop.2017.9.25+commit.a72237f2.Linux.g++",
            "source" : "src/BlockchainTestsFiller/GeneralStateTests/stTransitionTest/createNameRegistratorPerTxsAfter_d0g0v0Filler.json",
            "sourceHash" : "e16f6943845822e445fd8b94e365a694b3d9cd9500c686522093f43a889868df"
        },
        "blocks" : [
            {
                "blockHeader" : {
                    "bloom" : "0x00000000000000000000000000000000000000000000000000000000000000000000000000000000000000000000000000000000000000000000000000000000000000000000000000000000000000000000000000000000000000000000000000000000000000000000000000000000000000000000000000000000000000000000000000000000000000000000000000000000000000000000000000000000000000000000000000000000000000000000000000000000000000000000000000000000000000000000000000000000000000000000000000000000000000000000000000000000000000000000000000000000000000000000000000000000",
                    "coinbase" : "0x2adc25665018aa1fe0e6bc666dac8fc2697ff9ba",
                    "difficulty" : "0x020000",
                    "extraData" : "",
                    "gasLimit" : "0x02540be400",
                    "gasUsed" : "0x01314e",
                    "hash" : "0xe1d98b7cd497683874264814327b649125970e959801749cc2bb2b466e1ce4a1",
                    "mixHash" : "0xfec18e6ca6a22059591b3533dd04b73931f5bee841c9608c722c2ad4630601c7",
                    "nonce" : "0x165f0f6fd64e4ba1",
                    "number" : "0x01",
                    "parentHash" : "0x1e6079f699d6f5cfe4eccf0985ac19d908b030e5cb8bfb5aa8a6b216b95e0be0",
                    "receiptTrie" : "0x3880809c6523d6d1f445d29969f2cf2917d82e9f5087823d866800e538400e52",
                    "stateRoot" : "0x51ecc163dc3b84c73f0539ed502d8f8f132ef442d5051497c4aeec8b87be6377",
                    "timestamp" : "0x03e8",
                    "transactionsTrie" : "0x57e145e810fd4e0699f320f49dedc139a87d8567921868842c93b3cd2c432ea5",
                    "uncleHash" : "0x1dcc4de8dec75d7aab85b567b6ccd41ad312451b948a7413f0a142fd40d49347"
                },
                "rlp" : "0xf90273f901faa01e6079f699d6f5cfe4eccf0985ac19d908b030e5cb8bfb5aa8a6b216b95e0be0a01dcc4de8dec75d7aab85b567b6ccd41ad312451b948a7413f0a142fd40d49347942adc25665018aa1fe0e6bc666dac8fc2697ff9baa051ecc163dc3b84c73f0539ed502d8f8f132ef442d5051497c4aeec8b87be6377a057e145e810fd4e0699f320f49dedc139a87d8567921868842c93b3cd2c432ea5a03880809c6523d6d1f445d29969f2cf2917d82e9f5087823d866800e538400e52b901000000000000000000000000000000000000000000000000000000000000000000000000000000000000000000000000000000000000000000000000000000000000000000000000000000000000000000000000000000000000000000000000000000000000000000000000000000000000000000000000000000000000000000000000000000000000000000000000000000000000000000000000000000000000000000000000000000000000000000000000000000000000000000000000000000000000000000000000000000000000000000000000000000000000000000000000000000000000000000000000000000000000000000000000000000000083020000018502540be4008301314e8203e880a0fec18e6ca6a22059591b3533dd04b73931f5bee841c9608c722c2ad4630601c788165f0f6fd64e4ba1f873f87180018301314e80830186a0a26001600155601080600c6000396000f3006000355415600957005b602035600035551ba09389a7ae1b7f964e5a9f59f8ac38ac3ed6e4465e345999c8b36b5ba0845fea57a00e110cde0059ae2a62be4283754c4143deac61954deaa17310c157b9849a42c4c0",
                "transactions" : [
                    {
                        "data" : "0x6001600155601080600c6000396000f3006000355415600957005b60203560003555",
                        "gasLimit" : "0x01314e",
                        "gasPrice" : "0x01",
                        "nonce" : "0x00",
                        "r" : "0x9389a7ae1b7f964e5a9f59f8ac38ac3ed6e4465e345999c8b36b5ba0845fea57",
                        "s" : "0x0e110cde0059ae2a62be4283754c4143deac61954deaa17310c157b9849a42c4",
                        "to" : "",
                        "v" : "0x1b",
                        "value" : "0x0186a0"
                    }
                ],
                "uncleHeaders" : [
                ]
            }
        ],
        "genesisBlockHeader" : {
            "bloom" : "0x00000000000000000000000000000000000000000000000000000000000000000000000000000000000000000000000000000000000000000000000000000000000000000000000000000000000000000000000000000000000000000000000000000000000000000000000000000000000000000000000000000000000000000000000000000000000000000000000000000000000000000000000000000000000000000000000000000000000000000000000000000000000000000000000000000000000000000000000000000000000000000000000000000000000000000000000000000000000000000000000000000000000000000000000000000000",
            "coinbase" : "0x2adc25665018aa1fe0e6bc666dac8fc2697ff9ba",
            "difficulty" : "0x020000",
            "extraData" : "0x42",
            "gasLimit" : "0x02540be400",
            "gasUsed" : "0x00",
            "hash" : "0x1e6079f699d6f5cfe4eccf0985ac19d908b030e5cb8bfb5aa8a6b216b95e0be0",
            "mixHash" : "0x56e81f171bcc55a6ff8345e692c0f86e5b48e01b996cadc001622fb5e363b421",
            "nonce" : "0x0102030405060708",
            "number" : "0x00",
            "parentHash" : "0x0000000000000000000000000000000000000000000000000000000000000000",
            "receiptTrie" : "0x56e81f171bcc55a6ff8345e692c0f86e5b48e01b996cadc001622fb5e363b421",
            "stateRoot" : "0x517f2cdf6adb1a644878c390ffab4e130f1bed4b498ef7ce58c5addd98d61018",
            "timestamp" : "0x03b6",
            "transactionsTrie" : "0x56e81f171bcc55a6ff8345e692c0f86e5b48e01b996cadc001622fb5e363b421",
            "uncleHash" : "0x1dcc4de8dec75d7aab85b567b6ccd41ad312451b948a7413f0a142fd40d49347"
        },
        "genesisRLP" : "0xf901fcf901f7a00000000000000000000000000000000000000000000000000000000000000000a01dcc4de8dec75d7aab85b567b6ccd41ad312451b948a7413f0a142fd40d49347942adc25665018aa1fe0e6bc666dac8fc2697ff9baa0517f2cdf6adb1a644878c390ffab4e130f1bed4b498ef7ce58c5addd98d61018a056e81f171bcc55a6ff8345e692c0f86e5b48e01b996cadc001622fb5e363b421a056e81f171bcc55a6ff8345e692c0f86e5b48e01b996cadc001622fb5e363b421b901000000000000000000000000000000000000000000000000000000000000000000000000000000000000000000000000000000000000000000000000000000000000000000000000000000000000000000000000000000000000000000000000000000000000000000000000000000000000000000000000000000000000000000000000000000000000000000000000000000000000000000000000000000000000000000000000000000000000000000000000000000000000000000000000000000000000000000000000000000000000000000000000000000000000000000000000000000000000000000000000000000000000000000000000000000000083020000808502540be400808203b642a056e81f171bcc55a6ff8345e692c0f86e5b48e01b996cadc001622fb5e363b421880102030405060708c0c0",
        "lastblockhash" : "0xe1d98b7cd497683874264814327b649125970e959801749cc2bb2b466e1ce4a1",
        "network" : "Byzantium",
        "postState" : {
            "0x2adc25665018aa1fe0e6bc666dac8fc2697ff9ba" : {
                "balance" : "0x29a2241af62d314e",
                "code" : "",
                "nonce" : "0x00",
                "storage" : {
                }
            },
            "0x6295ee1b4f6dd65047762f924ecd367c17eabf8f" : {
                "balance" : "0x0186a0",
                "code" : "0x396000f3006000355415600957005b60",
                "nonce" : "0x01",
                "storage" : {
                    "0x01" : "0x01"
                }
            },
            "0xa94f5374fce5edbc8e2a8697c15331677e6ebf0b" : {
                "balance" : "0x0de0b6b3a7614812",
                "code" : "",
                "nonce" : "0x01",
                "storage" : {
                }
            }
        },
        "pre" : {
            "0xa94f5374fce5edbc8e2a8697c15331677e6ebf0b" : {
                "balance" : "0x0de0b6b3a7640000",
                "code" : "",
                "nonce" : "0x00",
                "storage" : {
                }
            }
        }
    },
    "createNameRegistratorPerTxsAfter_d0g0v0_EIP150" : {
        "_info" : {
            "comment" : "",
            "filledwith" : "cpp-1.3.0+commit.6e0ce939.Linux.g++",
            "lllcversion" : "Version: 0.4.18-develop.2017.9.25+commit.a72237f2.Linux.g++",
            "source" : "src/BlockchainTestsFiller/GeneralStateTests/stTransitionTest/createNameRegistratorPerTxsAfter_d0g0v0Filler.json",
            "sourceHash" : "e16f6943845822e445fd8b94e365a694b3d9cd9500c686522093f43a889868df"
        },
        "blocks" : [
            {
                "blockHeader" : {
                    "bloom" : "0x00000000000000000000000000000000000000000000000000000000000000000000000000000000000000000000000000000000000000000000000000000000000000000000000000000000000000000000000000000000000000000000000000000000000000000000000000000000000000000000000000000000000000000000000000000000000000000000000000000000000000000000000000000000000000000000000000000000000000000000000000000000000000000000000000000000000000000000000000000000000000000000000000000000000000000000000000000000000000000000000000000000000000000000000000000000",
                    "coinbase" : "0x2adc25665018aa1fe0e6bc666dac8fc2697ff9ba",
                    "difficulty" : "0x020000",
                    "extraData" : "",
                    "gasLimit" : "0x02540be400",
                    "gasUsed" : "0x01314e",
                    "hash" : "0x74da6c9316f921e6f2b23df2287206829709facc6438f06bfe0f454c7f22d2c9",
                    "mixHash" : "0x1b9b62a52e143acdf88dde661d6b92aa02c7d713c2342e42547f3e3cfc27a416",
                    "nonce" : "0x8d323ba6e9705f36",
                    "number" : "0x01",
                    "parentHash" : "0x1e6079f699d6f5cfe4eccf0985ac19d908b030e5cb8bfb5aa8a6b216b95e0be0",
                    "receiptTrie" : "0xda18e22670b3b488e71415878b2138a33b8e9182c3d701c1588d4131b7d7edf8",
                    "stateRoot" : "0xb098b73a4b4a76bf20290c827ac95f616235cd130bb8c7784c4feda1553d16e9",
                    "timestamp" : "0x03e8",
                    "transactionsTrie" : "0x57e145e810fd4e0699f320f49dedc139a87d8567921868842c93b3cd2c432ea5",
                    "uncleHash" : "0x1dcc4de8dec75d7aab85b567b6ccd41ad312451b948a7413f0a142fd40d49347"
                },
                "rlp" : "0xf90273f901faa01e6079f699d6f5cfe4eccf0985ac19d908b030e5cb8bfb5aa8a6b216b95e0be0a01dcc4de8dec75d7aab85b567b6ccd41ad312451b948a7413f0a142fd40d49347942adc25665018aa1fe0e6bc666dac8fc2697ff9baa0b098b73a4b4a76bf20290c827ac95f616235cd130bb8c7784c4feda1553d16e9a057e145e810fd4e0699f320f49dedc139a87d8567921868842c93b3cd2c432ea5a0da18e22670b3b488e71415878b2138a33b8e9182c3d701c1588d4131b7d7edf8b901000000000000000000000000000000000000000000000000000000000000000000000000000000000000000000000000000000000000000000000000000000000000000000000000000000000000000000000000000000000000000000000000000000000000000000000000000000000000000000000000000000000000000000000000000000000000000000000000000000000000000000000000000000000000000000000000000000000000000000000000000000000000000000000000000000000000000000000000000000000000000000000000000000000000000000000000000000000000000000000000000000000000000000000000000000000083020000018502540be4008301314e8203e880a01b9b62a52e143acdf88dde661d6b92aa02c7d713c2342e42547f3e3cfc27a416888d323ba6e9705f36f873f87180018301314e80830186a0a26001600155601080600c6000396000f3006000355415600957005b602035600035551ba09389a7ae1b7f964e5a9f59f8ac38ac3ed6e4465e345999c8b36b5ba0845fea57a00e110cde0059ae2a62be4283754c4143deac61954deaa17310c157b9849a42c4c0",
                "transactions" : [
                    {
                        "data" : "0x6001600155601080600c6000396000f3006000355415600957005b60203560003555",
                        "gasLimit" : "0x01314e",
                        "gasPrice" : "0x01",
                        "nonce" : "0x00",
                        "r" : "0x9389a7ae1b7f964e5a9f59f8ac38ac3ed6e4465e345999c8b36b5ba0845fea57",
                        "s" : "0x0e110cde0059ae2a62be4283754c4143deac61954deaa17310c157b9849a42c4",
                        "to" : "",
                        "v" : "0x1b",
                        "value" : "0x0186a0"
                    }
                ],
                "uncleHeaders" : [
                ]
            }
        ],
        "genesisBlockHeader" : {
            "bloom" : "0x00000000000000000000000000000000000000000000000000000000000000000000000000000000000000000000000000000000000000000000000000000000000000000000000000000000000000000000000000000000000000000000000000000000000000000000000000000000000000000000000000000000000000000000000000000000000000000000000000000000000000000000000000000000000000000000000000000000000000000000000000000000000000000000000000000000000000000000000000000000000000000000000000000000000000000000000000000000000000000000000000000000000000000000000000000000",
            "coinbase" : "0x2adc25665018aa1fe0e6bc666dac8fc2697ff9ba",
            "difficulty" : "0x020000",
            "extraData" : "0x42",
            "gasLimit" : "0x02540be400",
            "gasUsed" : "0x00",
            "hash" : "0x1e6079f699d6f5cfe4eccf0985ac19d908b030e5cb8bfb5aa8a6b216b95e0be0",
            "mixHash" : "0x56e81f171bcc55a6ff8345e692c0f86e5b48e01b996cadc001622fb5e363b421",
            "nonce" : "0x0102030405060708",
            "number" : "0x00",
            "parentHash" : "0x0000000000000000000000000000000000000000000000000000000000000000",
            "receiptTrie" : "0x56e81f171bcc55a6ff8345e692c0f86e5b48e01b996cadc001622fb5e363b421",
            "stateRoot" : "0x517f2cdf6adb1a644878c390ffab4e130f1bed4b498ef7ce58c5addd98d61018",
            "timestamp" : "0x03b6",
            "transactionsTrie" : "0x56e81f171bcc55a6ff8345e692c0f86e5b48e01b996cadc001622fb5e363b421",
            "uncleHash" : "0x1dcc4de8dec75d7aab85b567b6ccd41ad312451b948a7413f0a142fd40d49347"
        },
        "genesisRLP" : "0xf901fcf901f7a00000000000000000000000000000000000000000000000000000000000000000a01dcc4de8dec75d7aab85b567b6ccd41ad312451b948a7413f0a142fd40d49347942adc25665018aa1fe0e6bc666dac8fc2697ff9baa0517f2cdf6adb1a644878c390ffab4e130f1bed4b498ef7ce58c5addd98d61018a056e81f171bcc55a6ff8345e692c0f86e5b48e01b996cadc001622fb5e363b421a056e81f171bcc55a6ff8345e692c0f86e5b48e01b996cadc001622fb5e363b421b901000000000000000000000000000000000000000000000000000000000000000000000000000000000000000000000000000000000000000000000000000000000000000000000000000000000000000000000000000000000000000000000000000000000000000000000000000000000000000000000000000000000000000000000000000000000000000000000000000000000000000000000000000000000000000000000000000000000000000000000000000000000000000000000000000000000000000000000000000000000000000000000000000000000000000000000000000000000000000000000000000000000000000000000000000000000083020000808502540be400808203b642a056e81f171bcc55a6ff8345e692c0f86e5b48e01b996cadc001622fb5e363b421880102030405060708c0c0",
        "lastblockhash" : "0x74da6c9316f921e6f2b23df2287206829709facc6438f06bfe0f454c7f22d2c9",
        "network" : "EIP150",
        "postState" : {
            "0x2adc25665018aa1fe0e6bc666dac8fc2697ff9ba" : {
                "balance" : "0x4563918244f5314e",
                "code" : "",
                "nonce" : "0x00",
                "storage" : {
                }
            },
            "0x6295ee1b4f6dd65047762f924ecd367c17eabf8f" : {
                "balance" : "0x0186a0",
                "code" : "0x396000f3006000355415600957005b60",
                "nonce" : "0x00",
                "storage" : {
                    "0x01" : "0x01"
                }
            },
            "0xa94f5374fce5edbc8e2a8697c15331677e6ebf0b" : {
                "balance" : "0x0de0b6b3a7614812",
                "code" : "",
                "nonce" : "0x01",
                "storage" : {
                }
            }
        },
        "pre" : {
            "0xa94f5374fce5edbc8e2a8697c15331677e6ebf0b" : {
                "balance" : "0x0de0b6b3a7640000",
                "code" : "",
                "nonce" : "0x00",
                "storage" : {
                }
            }
        }
    },
    "createNameRegistratorPerTxsAfter_d0g0v0_EIP158" : {
        "_info" : {
            "comment" : "",
            "filledwith" : "cpp-1.3.0+commit.6e0ce939.Linux.g++",
            "lllcversion" : "Version: 0.4.18-develop.2017.9.25+commit.a72237f2.Linux.g++",
            "source" : "src/BlockchainTestsFiller/GeneralStateTests/stTransitionTest/createNameRegistratorPerTxsAfter_d0g0v0Filler.json",
            "sourceHash" : "e16f6943845822e445fd8b94e365a694b3d9cd9500c686522093f43a889868df"
        },
        "blocks" : [
            {
                "blockHeader" : {
                    "bloom" : "0x00000000000000000000000000000000000000000000000000000000000000000000000000000000000000000000000000000000000000000000000000000000000000000000000000000000000000000000000000000000000000000000000000000000000000000000000000000000000000000000000000000000000000000000000000000000000000000000000000000000000000000000000000000000000000000000000000000000000000000000000000000000000000000000000000000000000000000000000000000000000000000000000000000000000000000000000000000000000000000000000000000000000000000000000000000000",
                    "coinbase" : "0x2adc25665018aa1fe0e6bc666dac8fc2697ff9ba",
                    "difficulty" : "0x020000",
                    "extraData" : "",
                    "gasLimit" : "0x02540be400",
                    "gasUsed" : "0x01314e",
                    "hash" : "0x5679a2cae70c4b4d47007d01232bcfcffbde123b8d89d04266829e1f08439007",
                    "mixHash" : "0x707656d8faa88faaacdd8cd20725873537c23327a8642561af13dcab8886282b",
                    "nonce" : "0x87d4b573e0625048",
                    "number" : "0x01",
                    "parentHash" : "0x1e6079f699d6f5cfe4eccf0985ac19d908b030e5cb8bfb5aa8a6b216b95e0be0",
                    "receiptTrie" : "0x4a190f7f74fdd98462ee33cfbf15c57c7535970ac95641b4787099561b54eb9a",
                    "stateRoot" : "0x9c38432c5980221464014278315d03c85de325d3e97cf4efd5d77ec181c9b19e",
                    "timestamp" : "0x03e8",
                    "transactionsTrie" : "0x57e145e810fd4e0699f320f49dedc139a87d8567921868842c93b3cd2c432ea5",
                    "uncleHash" : "0x1dcc4de8dec75d7aab85b567b6ccd41ad312451b948a7413f0a142fd40d49347"
                },
                "rlp" : "0xf90273f901faa01e6079f699d6f5cfe4eccf0985ac19d908b030e5cb8bfb5aa8a6b216b95e0be0a01dcc4de8dec75d7aab85b567b6ccd41ad312451b948a7413f0a142fd40d49347942adc25665018aa1fe0e6bc666dac8fc2697ff9baa09c38432c5980221464014278315d03c85de325d3e97cf4efd5d77ec181c9b19ea057e145e810fd4e0699f320f49dedc139a87d8567921868842c93b3cd2c432ea5a04a190f7f74fdd98462ee33cfbf15c57c7535970ac95641b4787099561b54eb9ab901000000000000000000000000000000000000000000000000000000000000000000000000000000000000000000000000000000000000000000000000000000000000000000000000000000000000000000000000000000000000000000000000000000000000000000000000000000000000000000000000000000000000000000000000000000000000000000000000000000000000000000000000000000000000000000000000000000000000000000000000000000000000000000000000000000000000000000000000000000000000000000000000000000000000000000000000000000000000000000000000000000000000000000000000000000000083020000018502540be4008301314e8203e880a0707656d8faa88faaacdd8cd20725873537c23327a8642561af13dcab8886282b8887d4b573e0625048f873f87180018301314e80830186a0a26001600155601080600c6000396000f3006000355415600957005b602035600035551ba09389a7ae1b7f964e5a9f59f8ac38ac3ed6e4465e345999c8b36b5ba0845fea57a00e110cde0059ae2a62be4283754c4143deac61954deaa17310c157b9849a42c4c0",
                "transactions" : [
                    {
                        "data" : "0x6001600155601080600c6000396000f3006000355415600957005b60203560003555",
                        "gasLimit" : "0x01314e",
                        "gasPrice" : "0x01",
                        "nonce" : "0x00",
                        "r" : "0x9389a7ae1b7f964e5a9f59f8ac38ac3ed6e4465e345999c8b36b5ba0845fea57",
                        "s" : "0x0e110cde0059ae2a62be4283754c4143deac61954deaa17310c157b9849a42c4",
                        "to" : "",
                        "v" : "0x1b",
                        "value" : "0x0186a0"
                    }
                ],
                "uncleHeaders" : [
                ]
            }
        ],
        "genesisBlockHeader" : {
            "bloom" : "0x00000000000000000000000000000000000000000000000000000000000000000000000000000000000000000000000000000000000000000000000000000000000000000000000000000000000000000000000000000000000000000000000000000000000000000000000000000000000000000000000000000000000000000000000000000000000000000000000000000000000000000000000000000000000000000000000000000000000000000000000000000000000000000000000000000000000000000000000000000000000000000000000000000000000000000000000000000000000000000000000000000000000000000000000000000000",
            "coinbase" : "0x2adc25665018aa1fe0e6bc666dac8fc2697ff9ba",
            "difficulty" : "0x020000",
            "extraData" : "0x42",
            "gasLimit" : "0x02540be400",
            "gasUsed" : "0x00",
            "hash" : "0x1e6079f699d6f5cfe4eccf0985ac19d908b030e5cb8bfb5aa8a6b216b95e0be0",
            "mixHash" : "0x56e81f171bcc55a6ff8345e692c0f86e5b48e01b996cadc001622fb5e363b421",
            "nonce" : "0x0102030405060708",
            "number" : "0x00",
            "parentHash" : "0x0000000000000000000000000000000000000000000000000000000000000000",
            "receiptTrie" : "0x56e81f171bcc55a6ff8345e692c0f86e5b48e01b996cadc001622fb5e363b421",
            "stateRoot" : "0x517f2cdf6adb1a644878c390ffab4e130f1bed4b498ef7ce58c5addd98d61018",
            "timestamp" : "0x03b6",
            "transactionsTrie" : "0x56e81f171bcc55a6ff8345e692c0f86e5b48e01b996cadc001622fb5e363b421",
            "uncleHash" : "0x1dcc4de8dec75d7aab85b567b6ccd41ad312451b948a7413f0a142fd40d49347"
        },
        "genesisRLP" : "0xf901fcf901f7a00000000000000000000000000000000000000000000000000000000000000000a01dcc4de8dec75d7aab85b567b6ccd41ad312451b948a7413f0a142fd40d49347942adc25665018aa1fe0e6bc666dac8fc2697ff9baa0517f2cdf6adb1a644878c390ffab4e130f1bed4b498ef7ce58c5addd98d61018a056e81f171bcc55a6ff8345e692c0f86e5b48e01b996cadc001622fb5e363b421a056e81f171bcc55a6ff8345e692c0f86e5b48e01b996cadc001622fb5e363b421b901000000000000000000000000000000000000000000000000000000000000000000000000000000000000000000000000000000000000000000000000000000000000000000000000000000000000000000000000000000000000000000000000000000000000000000000000000000000000000000000000000000000000000000000000000000000000000000000000000000000000000000000000000000000000000000000000000000000000000000000000000000000000000000000000000000000000000000000000000000000000000000000000000000000000000000000000000000000000000000000000000000000000000000000000000000000083020000808502540be400808203b642a056e81f171bcc55a6ff8345e692c0f86e5b48e01b996cadc001622fb5e363b421880102030405060708c0c0",
        "lastblockhash" : "0x5679a2cae70c4b4d47007d01232bcfcffbde123b8d89d04266829e1f08439007",
        "network" : "EIP158",
        "postState" : {
            "0x2adc25665018aa1fe0e6bc666dac8fc2697ff9ba" : {
                "balance" : "0x4563918244f5314e",
                "code" : "",
                "nonce" : "0x00",
                "storage" : {
                }
            },
            "0x6295ee1b4f6dd65047762f924ecd367c17eabf8f" : {
                "balance" : "0x0186a0",
                "code" : "0x396000f3006000355415600957005b60",
                "nonce" : "0x01",
                "storage" : {
                    "0x01" : "0x01"
                }
            },
            "0xa94f5374fce5edbc8e2a8697c15331677e6ebf0b" : {
                "balance" : "0x0de0b6b3a7614812",
                "code" : "",
                "nonce" : "0x01",
                "storage" : {
                }
            }
        },
        "pre" : {
            "0xa94f5374fce5edbc8e2a8697c15331677e6ebf0b" : {
                "balance" : "0x0de0b6b3a7640000",
                "code" : "",
                "nonce" : "0x00",
                "storage" : {
                }
            }
        }
    },
    "createNameRegistratorPerTxsAfter_d0g0v0_Frontier" : {
        "_info" : {
            "comment" : "",
            "filledwith" : "cpp-1.3.0+commit.6e0ce939.Linux.g++",
            "lllcversion" : "Version: 0.4.18-develop.2017.9.25+commit.a72237f2.Linux.g++",
            "source" : "src/BlockchainTestsFiller/GeneralStateTests/stTransitionTest/createNameRegistratorPerTxsAfter_d0g0v0Filler.json",
            "sourceHash" : "e16f6943845822e445fd8b94e365a694b3d9cd9500c686522093f43a889868df"
        },
        "blocks" : [
            {
                "blockHeader" : {
                    "bloom" : "0x00000000000000000000000000000000000000000000000000000000000000000000000000000000000000000000000000000000000000000000000000000000000000000000000000000000000000000000000000000000000000000000000000000000000000000000000000000000000000000000000000000000000000000000000000000000000000000000000000000000000000000000000000000000000000000000000000000000000000000000000000000000000000000000000000000000000000000000000000000000000000000000000000000000000000000000000000000000000000000000000000000000000000000000000000000000",
                    "coinbase" : "0x2adc25665018aa1fe0e6bc666dac8fc2697ff9ba",
                    "difficulty" : "0x020000",
                    "extraData" : "",
                    "gasLimit" : "0x02540be400",
                    "gasUsed" : "0xb44e",
                    "hash" : "0x49b2710300f1897d3a044995b5c9a4ec3f844004a5d50826abfbb039b5f2aa0b",
                    "mixHash" : "0x66cdb8f983d804fea13a950781c8e8b23a366a18853ae3b2f469609b30f393c4",
                    "nonce" : "0xd57dbcc3c0054145",
                    "number" : "0x01",
                    "parentHash" : "0x1e6079f699d6f5cfe4eccf0985ac19d908b030e5cb8bfb5aa8a6b216b95e0be0",
                    "receiptTrie" : "0xf2885e0771bd8fca92c52d28f79ae103b6d7006a56f6d13ac3eb40d927b1cdcd",
                    "stateRoot" : "0x2cd982564eedf2969c4dec1ec04330452a12fb4e40e80e6483685b1f054516a0",
                    "timestamp" : "0x03e8",
                    "transactionsTrie" : "0x57e145e810fd4e0699f320f49dedc139a87d8567921868842c93b3cd2c432ea5",
                    "uncleHash" : "0x1dcc4de8dec75d7aab85b567b6ccd41ad312451b948a7413f0a142fd40d49347"
                },
                "rlp" : "0xf90272f901f9a01e6079f699d6f5cfe4eccf0985ac19d908b030e5cb8bfb5aa8a6b216b95e0be0a01dcc4de8dec75d7aab85b567b6ccd41ad312451b948a7413f0a142fd40d49347942adc25665018aa1fe0e6bc666dac8fc2697ff9baa02cd982564eedf2969c4dec1ec04330452a12fb4e40e80e6483685b1f054516a0a057e145e810fd4e0699f320f49dedc139a87d8567921868842c93b3cd2c432ea5a0f2885e0771bd8fca92c52d28f79ae103b6d7006a56f6d13ac3eb40d927b1cdcdb901000000000000000000000000000000000000000000000000000000000000000000000000000000000000000000000000000000000000000000000000000000000000000000000000000000000000000000000000000000000000000000000000000000000000000000000000000000000000000000000000000000000000000000000000000000000000000000000000000000000000000000000000000000000000000000000000000000000000000000000000000000000000000000000000000000000000000000000000000000000000000000000000000000000000000000000000000000000000000000000000000000000000000000000000000000000083020000018502540be40082b44e8203e880a066cdb8f983d804fea13a950781c8e8b23a366a18853ae3b2f469609b30f393c488d57dbcc3c0054145f873f87180018301314e80830186a0a26001600155601080600c6000396000f3006000355415600957005b602035600035551ba09389a7ae1b7f964e5a9f59f8ac38ac3ed6e4465e345999c8b36b5ba0845fea57a00e110cde0059ae2a62be4283754c4143deac61954deaa17310c157b9849a42c4c0",
                "transactions" : [
                    {
                        "data" : "0x6001600155601080600c6000396000f3006000355415600957005b60203560003555",
                        "gasLimit" : "0x01314e",
                        "gasPrice" : "0x01",
                        "nonce" : "0x00",
                        "r" : "0x9389a7ae1b7f964e5a9f59f8ac38ac3ed6e4465e345999c8b36b5ba0845fea57",
                        "s" : "0x0e110cde0059ae2a62be4283754c4143deac61954deaa17310c157b9849a42c4",
                        "to" : "",
                        "v" : "0x1b",
                        "value" : "0x0186a0"
                    }
                ],
                "uncleHeaders" : [
                ]
            }
        ],
        "genesisBlockHeader" : {
            "bloom" : "0x00000000000000000000000000000000000000000000000000000000000000000000000000000000000000000000000000000000000000000000000000000000000000000000000000000000000000000000000000000000000000000000000000000000000000000000000000000000000000000000000000000000000000000000000000000000000000000000000000000000000000000000000000000000000000000000000000000000000000000000000000000000000000000000000000000000000000000000000000000000000000000000000000000000000000000000000000000000000000000000000000000000000000000000000000000000",
            "coinbase" : "0x2adc25665018aa1fe0e6bc666dac8fc2697ff9ba",
            "difficulty" : "0x020000",
            "extraData" : "0x42",
            "gasLimit" : "0x02540be400",
            "gasUsed" : "0x00",
            "hash" : "0x1e6079f699d6f5cfe4eccf0985ac19d908b030e5cb8bfb5aa8a6b216b95e0be0",
            "mixHash" : "0x56e81f171bcc55a6ff8345e692c0f86e5b48e01b996cadc001622fb5e363b421",
            "nonce" : "0x0102030405060708",
            "number" : "0x00",
            "parentHash" : "0x0000000000000000000000000000000000000000000000000000000000000000",
            "receiptTrie" : "0x56e81f171bcc55a6ff8345e692c0f86e5b48e01b996cadc001622fb5e363b421",
            "stateRoot" : "0x517f2cdf6adb1a644878c390ffab4e130f1bed4b498ef7ce58c5addd98d61018",
            "timestamp" : "0x03b6",
            "transactionsTrie" : "0x56e81f171bcc55a6ff8345e692c0f86e5b48e01b996cadc001622fb5e363b421",
            "uncleHash" : "0x1dcc4de8dec75d7aab85b567b6ccd41ad312451b948a7413f0a142fd40d49347"
        },
        "genesisRLP" : "0xf901fcf901f7a00000000000000000000000000000000000000000000000000000000000000000a01dcc4de8dec75d7aab85b567b6ccd41ad312451b948a7413f0a142fd40d49347942adc25665018aa1fe0e6bc666dac8fc2697ff9baa0517f2cdf6adb1a644878c390ffab4e130f1bed4b498ef7ce58c5addd98d61018a056e81f171bcc55a6ff8345e692c0f86e5b48e01b996cadc001622fb5e363b421a056e81f171bcc55a6ff8345e692c0f86e5b48e01b996cadc001622fb5e363b421b901000000000000000000000000000000000000000000000000000000000000000000000000000000000000000000000000000000000000000000000000000000000000000000000000000000000000000000000000000000000000000000000000000000000000000000000000000000000000000000000000000000000000000000000000000000000000000000000000000000000000000000000000000000000000000000000000000000000000000000000000000000000000000000000000000000000000000000000000000000000000000000000000000000000000000000000000000000000000000000000000000000000000000000000000000000000083020000808502540be400808203b642a056e81f171bcc55a6ff8345e692c0f86e5b48e01b996cadc001622fb5e363b421880102030405060708c0c0",
        "lastblockhash" : "0x49b2710300f1897d3a044995b5c9a4ec3f844004a5d50826abfbb039b5f2aa0b",
        "network" : "Frontier",
        "postState" : {
            "0x2adc25665018aa1fe0e6bc666dac8fc2697ff9ba" : {
                "balance" : "0x4563918244f4b44e",
                "code" : "",
                "nonce" : "0x00",
                "storage" : {
                }
            },
            "0x6295ee1b4f6dd65047762f924ecd367c17eabf8f" : {
                "balance" : "0x0186a0",
                "code" : "0x396000f3006000355415600957005b60",
                "nonce" : "0x00",
                "storage" : {
                    "0x01" : "0x01"
                }
            },
            "0xa94f5374fce5edbc8e2a8697c15331677e6ebf0b" : {
                "balance" : "0x0de0b6b3a761c512",
                "code" : "",
                "nonce" : "0x01",
                "storage" : {
                }
            }
        },
        "pre" : {
            "0xa94f5374fce5edbc8e2a8697c15331677e6ebf0b" : {
                "balance" : "0x0de0b6b3a7640000",
                "code" : "",
                "nonce" : "0x00",
                "storage" : {
                }
            }
        }
    },
    "createNameRegistratorPerTxsAfter_d0g0v0_Homestead" : {
        "_info" : {
            "comment" : "",
            "filledwith" : "cpp-1.3.0+commit.6e0ce939.Linux.g++",
            "lllcversion" : "Version: 0.4.18-develop.2017.9.25+commit.a72237f2.Linux.g++",
            "source" : "src/BlockchainTestsFiller/GeneralStateTests/stTransitionTest/createNameRegistratorPerTxsAfter_d0g0v0Filler.json",
            "sourceHash" : "e16f6943845822e445fd8b94e365a694b3d9cd9500c686522093f43a889868df"
        },
        "blocks" : [
            {
                "blockHeader" : {
                    "bloom" : "0x00000000000000000000000000000000000000000000000000000000000000000000000000000000000000000000000000000000000000000000000000000000000000000000000000000000000000000000000000000000000000000000000000000000000000000000000000000000000000000000000000000000000000000000000000000000000000000000000000000000000000000000000000000000000000000000000000000000000000000000000000000000000000000000000000000000000000000000000000000000000000000000000000000000000000000000000000000000000000000000000000000000000000000000000000000000",
                    "coinbase" : "0x2adc25665018aa1fe0e6bc666dac8fc2697ff9ba",
                    "difficulty" : "0x020000",
                    "extraData" : "",
                    "gasLimit" : "0x02540be400",
                    "gasUsed" : "0x01314e",
                    "hash" : "0xc1c133424411bb6bf8b1b41cb45e31026629d3b4c092a0f8d46e034e54704bbe",
                    "mixHash" : "0x9b3da4278717c0f44067286b6b52d13b8418f27adc11eeb554d7db6e6ba7bdbb",
                    "nonce" : "0x99b19a66ec1c155b",
                    "number" : "0x01",
                    "parentHash" : "0x1e6079f699d6f5cfe4eccf0985ac19d908b030e5cb8bfb5aa8a6b216b95e0be0",
                    "receiptTrie" : "0xda18e22670b3b488e71415878b2138a33b8e9182c3d701c1588d4131b7d7edf8",
                    "stateRoot" : "0xb098b73a4b4a76bf20290c827ac95f616235cd130bb8c7784c4feda1553d16e9",
                    "timestamp" : "0x03e8",
                    "transactionsTrie" : "0x57e145e810fd4e0699f320f49dedc139a87d8567921868842c93b3cd2c432ea5",
                    "uncleHash" : "0x1dcc4de8dec75d7aab85b567b6ccd41ad312451b948a7413f0a142fd40d49347"
                },
                "rlp" : "0xf90273f901faa01e6079f699d6f5cfe4eccf0985ac19d908b030e5cb8bfb5aa8a6b216b95e0be0a01dcc4de8dec75d7aab85b567b6ccd41ad312451b948a7413f0a142fd40d49347942adc25665018aa1fe0e6bc666dac8fc2697ff9baa0b098b73a4b4a76bf20290c827ac95f616235cd130bb8c7784c4feda1553d16e9a057e145e810fd4e0699f320f49dedc139a87d8567921868842c93b3cd2c432ea5a0da18e22670b3b488e71415878b2138a33b8e9182c3d701c1588d4131b7d7edf8b901000000000000000000000000000000000000000000000000000000000000000000000000000000000000000000000000000000000000000000000000000000000000000000000000000000000000000000000000000000000000000000000000000000000000000000000000000000000000000000000000000000000000000000000000000000000000000000000000000000000000000000000000000000000000000000000000000000000000000000000000000000000000000000000000000000000000000000000000000000000000000000000000000000000000000000000000000000000000000000000000000000000000000000000000000000000083020000018502540be4008301314e8203e880a09b3da4278717c0f44067286b6b52d13b8418f27adc11eeb554d7db6e6ba7bdbb8899b19a66ec1c155bf873f87180018301314e80830186a0a26001600155601080600c6000396000f3006000355415600957005b602035600035551ba09389a7ae1b7f964e5a9f59f8ac38ac3ed6e4465e345999c8b36b5ba0845fea57a00e110cde0059ae2a62be4283754c4143deac61954deaa17310c157b9849a42c4c0",
                "transactions" : [
                    {
                        "data" : "0x6001600155601080600c6000396000f3006000355415600957005b60203560003555",
                        "gasLimit" : "0x01314e",
                        "gasPrice" : "0x01",
                        "nonce" : "0x00",
                        "r" : "0x9389a7ae1b7f964e5a9f59f8ac38ac3ed6e4465e345999c8b36b5ba0845fea57",
                        "s" : "0x0e110cde0059ae2a62be4283754c4143deac61954deaa17310c157b9849a42c4",
                        "to" : "",
                        "v" : "0x1b",
                        "value" : "0x0186a0"
                    }
                ],
                "uncleHeaders" : [
                ]
            }
        ],
        "genesisBlockHeader" : {
            "bloom" : "0x00000000000000000000000000000000000000000000000000000000000000000000000000000000000000000000000000000000000000000000000000000000000000000000000000000000000000000000000000000000000000000000000000000000000000000000000000000000000000000000000000000000000000000000000000000000000000000000000000000000000000000000000000000000000000000000000000000000000000000000000000000000000000000000000000000000000000000000000000000000000000000000000000000000000000000000000000000000000000000000000000000000000000000000000000000000",
            "coinbase" : "0x2adc25665018aa1fe0e6bc666dac8fc2697ff9ba",
            "difficulty" : "0x020000",
            "extraData" : "0x42",
            "gasLimit" : "0x02540be400",
            "gasUsed" : "0x00",
            "hash" : "0x1e6079f699d6f5cfe4eccf0985ac19d908b030e5cb8bfb5aa8a6b216b95e0be0",
            "mixHash" : "0x56e81f171bcc55a6ff8345e692c0f86e5b48e01b996cadc001622fb5e363b421",
            "nonce" : "0x0102030405060708",
            "number" : "0x00",
            "parentHash" : "0x0000000000000000000000000000000000000000000000000000000000000000",
            "receiptTrie" : "0x56e81f171bcc55a6ff8345e692c0f86e5b48e01b996cadc001622fb5e363b421",
            "stateRoot" : "0x517f2cdf6adb1a644878c390ffab4e130f1bed4b498ef7ce58c5addd98d61018",
            "timestamp" : "0x03b6",
            "transactionsTrie" : "0x56e81f171bcc55a6ff8345e692c0f86e5b48e01b996cadc001622fb5e363b421",
            "uncleHash" : "0x1dcc4de8dec75d7aab85b567b6ccd41ad312451b948a7413f0a142fd40d49347"
        },
        "genesisRLP" : "0xf901fcf901f7a00000000000000000000000000000000000000000000000000000000000000000a01dcc4de8dec75d7aab85b567b6ccd41ad312451b948a7413f0a142fd40d49347942adc25665018aa1fe0e6bc666dac8fc2697ff9baa0517f2cdf6adb1a644878c390ffab4e130f1bed4b498ef7ce58c5addd98d61018a056e81f171bcc55a6ff8345e692c0f86e5b48e01b996cadc001622fb5e363b421a056e81f171bcc55a6ff8345e692c0f86e5b48e01b996cadc001622fb5e363b421b901000000000000000000000000000000000000000000000000000000000000000000000000000000000000000000000000000000000000000000000000000000000000000000000000000000000000000000000000000000000000000000000000000000000000000000000000000000000000000000000000000000000000000000000000000000000000000000000000000000000000000000000000000000000000000000000000000000000000000000000000000000000000000000000000000000000000000000000000000000000000000000000000000000000000000000000000000000000000000000000000000000000000000000000000000000000083020000808502540be400808203b642a056e81f171bcc55a6ff8345e692c0f86e5b48e01b996cadc001622fb5e363b421880102030405060708c0c0",
        "lastblockhash" : "0xc1c133424411bb6bf8b1b41cb45e31026629d3b4c092a0f8d46e034e54704bbe",
        "network" : "Homestead",
        "postState" : {
            "0x2adc25665018aa1fe0e6bc666dac8fc2697ff9ba" : {
                "balance" : "0x4563918244f5314e",
                "code" : "",
                "nonce" : "0x00",
                "storage" : {
                }
            },
            "0x6295ee1b4f6dd65047762f924ecd367c17eabf8f" : {
                "balance" : "0x0186a0",
                "code" : "0x396000f3006000355415600957005b60",
                "nonce" : "0x00",
                "storage" : {
                    "0x01" : "0x01"
                }
            },
            "0xa94f5374fce5edbc8e2a8697c15331677e6ebf0b" : {
                "balance" : "0x0de0b6b3a7614812",
                "code" : "",
                "nonce" : "0x01",
                "storage" : {
                }
            }
        },
        "pre" : {
            "0xa94f5374fce5edbc8e2a8697c15331677e6ebf0b" : {
                "balance" : "0x0de0b6b3a7640000",
                "code" : "",
                "nonce" : "0x00",
                "storage" : {
                }
            }
        }
    }
}