{
    "createNameRegistratorPerTxsAt_d0g0v0_Byzantium" : {
        "_info" : {
            "comment" : "",
            "filledwith" : "cpp-1.3.0+commit.6e0ce939.Linux.g++",
            "lllcversion" : "Version: 0.4.18-develop.2017.9.25+commit.a72237f2.Linux.g++",
            "source" : "src/BlockchainTestsFiller/GeneralStateTests/stTransitionTest/createNameRegistratorPerTxsAt_d0g0v0Filler.json",
            "sourceHash" : "3a4241cdaf192803ad52afdc291f9d64bd26b2b8c6773a2a93d9aac60b8df5b1"
        },
        "blocks" : [
            {
                "blockHeader" : {
                    "bloom" : "0x00000000000000000000000000000000000000000000000000000000000000000000000000000000000000000000000000000000000000000000000000000000000000000000000000000000000000000000000000000000000000000000000000000000000000000000000000000000000000000000000000000000000000000000000000000000000000000000000000000000000000000000000000000000000000000000000000000000000000000000000000000000000000000000000000000000000000000000000000000000000000000000000000000000000000000000000000000000000000000000000000000000000000000000000000000000",
                    "coinbase" : "0x2adc25665018aa1fe0e6bc666dac8fc2697ff9ba",
                    "difficulty" : "0x020000",
                    "extraData" : "",
                    "gasLimit" : "0x02540be400",
                    "gasUsed" : "0x01314e",
                    "hash" : "0xa6d145941d6d3ab3288cf812f154784f216c8fc73c6028e558ff15c0ab5eabe1",
                    "mixHash" : "0x8b0aade9e9f085082c5855aded1c2a9bc2e008606f0c5febe969c766b1aa8947",
                    "nonce" : "0xf5a39fabaf31f520",
                    "number" : "0x01",
                    "parentHash" : "0x1e6079f699d6f5cfe4eccf0985ac19d908b030e5cb8bfb5aa8a6b216b95e0be0",
                    "receiptTrie" : "0x3880809c6523d6d1f445d29969f2cf2917d82e9f5087823d866800e538400e52",
                    "stateRoot" : "0x51ecc163dc3b84c73f0539ed502d8f8f132ef442d5051497c4aeec8b87be6377",
                    "timestamp" : "0x03e8",
                    "transactionsTrie" : "0x57e145e810fd4e0699f320f49dedc139a87d8567921868842c93b3cd2c432ea5",
                    "uncleHash" : "0x1dcc4de8dec75d7aab85b567b6ccd41ad312451b948a7413f0a142fd40d49347"
                },
                "rlp" : "0xf90273f901faa01e6079f699d6f5cfe4eccf0985ac19d908b030e5cb8bfb5aa8a6b216b95e0be0a01dcc4de8dec75d7aab85b567b6ccd41ad312451b948a7413f0a142fd40d49347942adc25665018aa1fe0e6bc666dac8fc2697ff9baa051ecc163dc3b84c73f0539ed502d8f8f132ef442d5051497c4aeec8b87be6377a057e145e810fd4e0699f320f49dedc139a87d8567921868842c93b3cd2c432ea5a03880809c6523d6d1f445d29969f2cf2917d82e9f5087823d866800e538400e52b901000000000000000000000000000000000000000000000000000000000000000000000000000000000000000000000000000000000000000000000000000000000000000000000000000000000000000000000000000000000000000000000000000000000000000000000000000000000000000000000000000000000000000000000000000000000000000000000000000000000000000000000000000000000000000000000000000000000000000000000000000000000000000000000000000000000000000000000000000000000000000000000000000000000000000000000000000000000000000000000000000000000000000000000000000000000083020000018502540be4008301314e8203e880a08b0aade9e9f085082c5855aded1c2a9bc2e008606f0c5febe969c766b1aa894788f5a39fabaf31f520f873f87180018301314e80830186a0a26001600155601080600c6000396000f3006000355415600957005b602035600035551ba09389a7ae1b7f964e5a9f59f8ac38ac3ed6e4465e345999c8b36b5ba0845fea57a00e110cde0059ae2a62be4283754c4143deac61954deaa17310c157b9849a42c4c0",
                "transactions" : [
                    {
                        "data" : "0x6001600155601080600c6000396000f3006000355415600957005b60203560003555",
                        "gasLimit" : "0x01314e",
                        "gasPrice" : "0x01",
                        "nonce" : "0x00",
                        "r" : "0x9389a7ae1b7f964e5a9f59f8ac38ac3ed6e4465e345999c8b36b5ba0845fea57",
                        "s" : "0x0e110cde0059ae2a62be4283754c4143deac61954deaa17310c157b9849a42c4",
                        "to" : "",
                        "v" : "0x1b",
                        "value" : "0x0186a0"
                    }
                ],
                "uncleHeaders" : [
                ]
            }
        ],
        "genesisBlockHeader" : {
            "bloom" : "0x00000000000000000000000000000000000000000000000000000000000000000000000000000000000000000000000000000000000000000000000000000000000000000000000000000000000000000000000000000000000000000000000000000000000000000000000000000000000000000000000000000000000000000000000000000000000000000000000000000000000000000000000000000000000000000000000000000000000000000000000000000000000000000000000000000000000000000000000000000000000000000000000000000000000000000000000000000000000000000000000000000000000000000000000000000000",
            "coinbase" : "0x2adc25665018aa1fe0e6bc666dac8fc2697ff9ba",
            "difficulty" : "0x020000",
            "extraData" : "0x42",
            "gasLimit" : "0x02540be400",
            "gasUsed" : "0x00",
            "hash" : "0x1e6079f699d6f5cfe4eccf0985ac19d908b030e5cb8bfb5aa8a6b216b95e0be0",
            "mixHash" : "0x56e81f171bcc55a6ff8345e692c0f86e5b48e01b996cadc001622fb5e363b421",
            "nonce" : "0x0102030405060708",
            "number" : "0x00",
            "parentHash" : "0x0000000000000000000000000000000000000000000000000000000000000000",
            "receiptTrie" : "0x56e81f171bcc55a6ff8345e692c0f86e5b48e01b996cadc001622fb5e363b421",
            "stateRoot" : "0x517f2cdf6adb1a644878c390ffab4e130f1bed4b498ef7ce58c5addd98d61018",
            "timestamp" : "0x03b6",
            "transactionsTrie" : "0x56e81f171bcc55a6ff8345e692c0f86e5b48e01b996cadc001622fb5e363b421",
            "uncleHash" : "0x1dcc4de8dec75d7aab85b567b6ccd41ad312451b948a7413f0a142fd40d49347"
        },
        "genesisRLP" : "0xf901fcf901f7a00000000000000000000000000000000000000000000000000000000000000000a01dcc4de8dec75d7aab85b567b6ccd41ad312451b948a7413f0a142fd40d49347942adc25665018aa1fe0e6bc666dac8fc2697ff9baa0517f2cdf6adb1a644878c390ffab4e130f1bed4b498ef7ce58c5addd98d61018a056e81f171bcc55a6ff8345e692c0f86e5b48e01b996cadc001622fb5e363b421a056e81f171bcc55a6ff8345e692c0f86e5b48e01b996cadc001622fb5e363b421b901000000000000000000000000000000000000000000000000000000000000000000000000000000000000000000000000000000000000000000000000000000000000000000000000000000000000000000000000000000000000000000000000000000000000000000000000000000000000000000000000000000000000000000000000000000000000000000000000000000000000000000000000000000000000000000000000000000000000000000000000000000000000000000000000000000000000000000000000000000000000000000000000000000000000000000000000000000000000000000000000000000000000000000000000000000000083020000808502540be400808203b642a056e81f171bcc55a6ff8345e692c0f86e5b48e01b996cadc001622fb5e363b421880102030405060708c0c0",
        "lastblockhash" : "0xa6d145941d6d3ab3288cf812f154784f216c8fc73c6028e558ff15c0ab5eabe1",
        "network" : "Byzantium",
        "postState" : {
            "0x2adc25665018aa1fe0e6bc666dac8fc2697ff9ba" : {
                "balance" : "0x29a2241af62d314e",
                "code" : "",
                "nonce" : "0x00",
                "storage" : {
                }
            },
            "0x6295ee1b4f6dd65047762f924ecd367c17eabf8f" : {
                "balance" : "0x0186a0",
                "code" : "0x396000f3006000355415600957005b60",
                "nonce" : "0x01",
                "storage" : {
                    "0x01" : "0x01"
                }
            },
            "0xa94f5374fce5edbc8e2a8697c15331677e6ebf0b" : {
                "balance" : "0x0de0b6b3a7614812",
                "code" : "",
                "nonce" : "0x01",
                "storage" : {
                }
            }
        },
        "pre" : {
            "0xa94f5374fce5edbc8e2a8697c15331677e6ebf0b" : {
                "balance" : "0x0de0b6b3a7640000",
                "code" : "",
                "nonce" : "0x00",
                "storage" : {
                }
            }
        }
    },
    "createNameRegistratorPerTxsAt_d0g0v0_EIP150" : {
        "_info" : {
            "comment" : "",
            "filledwith" : "cpp-1.3.0+commit.6e0ce939.Linux.g++",
            "lllcversion" : "Version: 0.4.18-develop.2017.9.25+commit.a72237f2.Linux.g++",
            "source" : "src/BlockchainTestsFiller/GeneralStateTests/stTransitionTest/createNameRegistratorPerTxsAt_d0g0v0Filler.json",
            "sourceHash" : "3a4241cdaf192803ad52afdc291f9d64bd26b2b8c6773a2a93d9aac60b8df5b1"
        },
        "blocks" : [
            {
                "blockHeader" : {
                    "bloom" : "0x00000000000000000000000000000000000000000000000000000000000000000000000000000000000000000000000000000000000000000000000000000000000000000000000000000000000000000000000000000000000000000000000000000000000000000000000000000000000000000000000000000000000000000000000000000000000000000000000000000000000000000000000000000000000000000000000000000000000000000000000000000000000000000000000000000000000000000000000000000000000000000000000000000000000000000000000000000000000000000000000000000000000000000000000000000000",
                    "coinbase" : "0x2adc25665018aa1fe0e6bc666dac8fc2697ff9ba",
                    "difficulty" : "0x020000",
                    "extraData" : "",
                    "gasLimit" : "0x02540be400",
                    "gasUsed" : "0x01314e",
                    "hash" : "0xf3dc8a2a89b0557d3597eb2ffc96ff2a9680f81cbecc2685e9d29841084268a8",
                    "mixHash" : "0x79bf58c41a0b8128582a6fdc50c494777192be72a6ac1d811323c9ad0fa3f028",
                    "nonce" : "0xad1ebaf0d1b871f9",
                    "number" : "0x01",
                    "parentHash" : "0x1e6079f699d6f5cfe4eccf0985ac19d908b030e5cb8bfb5aa8a6b216b95e0be0",
                    "receiptTrie" : "0xda18e22670b3b488e71415878b2138a33b8e9182c3d701c1588d4131b7d7edf8",
                    "stateRoot" : "0xb098b73a4b4a76bf20290c827ac95f616235cd130bb8c7784c4feda1553d16e9",
                    "timestamp" : "0x03e8",
                    "transactionsTrie" : "0x57e145e810fd4e0699f320f49dedc139a87d8567921868842c93b3cd2c432ea5",
                    "uncleHash" : "0x1dcc4de8dec75d7aab85b567b6ccd41ad312451b948a7413f0a142fd40d49347"
                },
                "rlp" : "0xf90273f901faa01e6079f699d6f5cfe4eccf0985ac19d908b030e5cb8bfb5aa8a6b216b95e0be0a01dcc4de8dec75d7aab85b567b6ccd41ad312451b948a7413f0a142fd40d49347942adc25665018aa1fe0e6bc666dac8fc2697ff9baa0b098b73a4b4a76bf20290c827ac95f616235cd130bb8c7784c4feda1553d16e9a057e145e810fd4e0699f320f49dedc139a87d8567921868842c93b3cd2c432ea5a0da18e22670b3b488e71415878b2138a33b8e9182c3d701c1588d4131b7d7edf8b901000000000000000000000000000000000000000000000000000000000000000000000000000000000000000000000000000000000000000000000000000000000000000000000000000000000000000000000000000000000000000000000000000000000000000000000000000000000000000000000000000000000000000000000000000000000000000000000000000000000000000000000000000000000000000000000000000000000000000000000000000000000000000000000000000000000000000000000000000000000000000000000000000000000000000000000000000000000000000000000000000000000000000000000000000000000083020000018502540be4008301314e8203e880a079bf58c41a0b8128582a6fdc50c494777192be72a6ac1d811323c9ad0fa3f02888ad1ebaf0d1b871f9f873f87180018301314e80830186a0a26001600155601080600c6000396000f3006000355415600957005b602035600035551ba09389a7ae1b7f964e5a9f59f8ac38ac3ed6e4465e345999c8b36b5ba0845fea57a00e110cde0059ae2a62be4283754c4143deac61954deaa17310c157b9849a42c4c0",
                "transactions" : [
                    {
                        "data" : "0x6001600155601080600c6000396000f3006000355415600957005b60203560003555",
                        "gasLimit" : "0x01314e",
                        "gasPrice" : "0x01",
                        "nonce" : "0x00",
                        "r" : "0x9389a7ae1b7f964e5a9f59f8ac38ac3ed6e4465e345999c8b36b5ba0845fea57",
                        "s" : "0x0e110cde0059ae2a62be4283754c4143deac61954deaa17310c157b9849a42c4",
                        "to" : "",
                        "v" : "0x1b",
                        "value" : "0x0186a0"
                    }
                ],
                "uncleHeaders" : [
                ]
            }
        ],
        "genesisBlockHeader" : {
            "bloom" : "0x00000000000000000000000000000000000000000000000000000000000000000000000000000000000000000000000000000000000000000000000000000000000000000000000000000000000000000000000000000000000000000000000000000000000000000000000000000000000000000000000000000000000000000000000000000000000000000000000000000000000000000000000000000000000000000000000000000000000000000000000000000000000000000000000000000000000000000000000000000000000000000000000000000000000000000000000000000000000000000000000000000000000000000000000000000000",
            "coinbase" : "0x2adc25665018aa1fe0e6bc666dac8fc2697ff9ba",
            "difficulty" : "0x020000",
            "extraData" : "0x42",
            "gasLimit" : "0x02540be400",
            "gasUsed" : "0x00",
            "hash" : "0x1e6079f699d6f5cfe4eccf0985ac19d908b030e5cb8bfb5aa8a6b216b95e0be0",
            "mixHash" : "0x56e81f171bcc55a6ff8345e692c0f86e5b48e01b996cadc001622fb5e363b421",
            "nonce" : "0x0102030405060708",
            "number" : "0x00",
            "parentHash" : "0x0000000000000000000000000000000000000000000000000000000000000000",
            "receiptTrie" : "0x56e81f171bcc55a6ff8345e692c0f86e5b48e01b996cadc001622fb5e363b421",
            "stateRoot" : "0x517f2cdf6adb1a644878c390ffab4e130f1bed4b498ef7ce58c5addd98d61018",
            "timestamp" : "0x03b6",
            "transactionsTrie" : "0x56e81f171bcc55a6ff8345e692c0f86e5b48e01b996cadc001622fb5e363b421",
            "uncleHash" : "0x1dcc4de8dec75d7aab85b567b6ccd41ad312451b948a7413f0a142fd40d49347"
        },
        "genesisRLP" : "0xf901fcf901f7a00000000000000000000000000000000000000000000000000000000000000000a01dcc4de8dec75d7aab85b567b6ccd41ad312451b948a7413f0a142fd40d49347942adc25665018aa1fe0e6bc666dac8fc2697ff9baa0517f2cdf6adb1a644878c390ffab4e130f1bed4b498ef7ce58c5addd98d61018a056e81f171bcc55a6ff8345e692c0f86e5b48e01b996cadc001622fb5e363b421a056e81f171bcc55a6ff8345e692c0f86e5b48e01b996cadc001622fb5e363b421b901000000000000000000000000000000000000000000000000000000000000000000000000000000000000000000000000000000000000000000000000000000000000000000000000000000000000000000000000000000000000000000000000000000000000000000000000000000000000000000000000000000000000000000000000000000000000000000000000000000000000000000000000000000000000000000000000000000000000000000000000000000000000000000000000000000000000000000000000000000000000000000000000000000000000000000000000000000000000000000000000000000000000000000000000000000000083020000808502540be400808203b642a056e81f171bcc55a6ff8345e692c0f86e5b48e01b996cadc001622fb5e363b421880102030405060708c0c0",
        "lastblockhash" : "0xf3dc8a2a89b0557d3597eb2ffc96ff2a9680f81cbecc2685e9d29841084268a8",
        "network" : "EIP150",
        "postState" : {
            "0x2adc25665018aa1fe0e6bc666dac8fc2697ff9ba" : {
                "balance" : "0x4563918244f5314e",
                "code" : "",
                "nonce" : "0x00",
                "storage" : {
                }
            },
            "0x6295ee1b4f6dd65047762f924ecd367c17eabf8f" : {
                "balance" : "0x0186a0",
                "code" : "0x396000f3006000355415600957005b60",
                "nonce" : "0x00",
                "storage" : {
                    "0x01" : "0x01"
                }
            },
            "0xa94f5374fce5edbc8e2a8697c15331677e6ebf0b" : {
                "balance" : "0x0de0b6b3a7614812",
                "code" : "",
                "nonce" : "0x01",
                "storage" : {
                }
            }
        },
        "pre" : {
            "0xa94f5374fce5edbc8e2a8697c15331677e6ebf0b" : {
                "balance" : "0x0de0b6b3a7640000",
                "code" : "",
                "nonce" : "0x00",
                "storage" : {
                }
            }
        }
    },
    "createNameRegistratorPerTxsAt_d0g0v0_EIP158" : {
        "_info" : {
            "comment" : "",
            "filledwith" : "cpp-1.3.0+commit.6e0ce939.Linux.g++",
            "lllcversion" : "Version: 0.4.18-develop.2017.9.25+commit.a72237f2.Linux.g++",
            "source" : "src/BlockchainTestsFiller/GeneralStateTests/stTransitionTest/createNameRegistratorPerTxsAt_d0g0v0Filler.json",
            "sourceHash" : "3a4241cdaf192803ad52afdc291f9d64bd26b2b8c6773a2a93d9aac60b8df5b1"
        },
        "blocks" : [
            {
                "blockHeader" : {
                    "bloom" : "0x00000000000000000000000000000000000000000000000000000000000000000000000000000000000000000000000000000000000000000000000000000000000000000000000000000000000000000000000000000000000000000000000000000000000000000000000000000000000000000000000000000000000000000000000000000000000000000000000000000000000000000000000000000000000000000000000000000000000000000000000000000000000000000000000000000000000000000000000000000000000000000000000000000000000000000000000000000000000000000000000000000000000000000000000000000000",
                    "coinbase" : "0x2adc25665018aa1fe0e6bc666dac8fc2697ff9ba",
                    "difficulty" : "0x020000",
                    "extraData" : "",
                    "gasLimit" : "0x02540be400",
                    "gasUsed" : "0x01314e",
                    "hash" : "0x176043a940eeaa50ddc1bd28a269fe11203ef775aa1603f07a3c86ac45f48ea1",
                    "mixHash" : "0x2dad68d6b637b5b7af4b9ec4d6057a9063f45ccef4c46476b8b9156bb9ca0d8a",
                    "nonce" : "0x26cd01f1872c2cb6",
                    "number" : "0x01",
                    "parentHash" : "0x1e6079f699d6f5cfe4eccf0985ac19d908b030e5cb8bfb5aa8a6b216b95e0be0",
                    "receiptTrie" : "0x4a190f7f74fdd98462ee33cfbf15c57c7535970ac95641b4787099561b54eb9a",
                    "stateRoot" : "0x9c38432c5980221464014278315d03c85de325d3e97cf4efd5d77ec181c9b19e",
                    "timestamp" : "0x03e8",
                    "transactionsTrie" : "0x57e145e810fd4e0699f320f49dedc139a87d8567921868842c93b3cd2c432ea5",
                    "uncleHash" : "0x1dcc4de8dec75d7aab85b567b6ccd41ad312451b948a7413f0a142fd40d49347"
                },
                "rlp" : "0xf90273f901faa01e6079f699d6f5cfe4eccf0985ac19d908b030e5cb8bfb5aa8a6b216b95e0be0a01dcc4de8dec75d7aab85b567b6ccd41ad312451b948a7413f0a142fd40d49347942adc25665018aa1fe0e6bc666dac8fc2697ff9baa09c38432c5980221464014278315d03c85de325d3e97cf4efd5d77ec181c9b19ea057e145e810fd4e0699f320f49dedc139a87d8567921868842c93b3cd2c432ea5a04a190f7f74fdd98462ee33cfbf15c57c7535970ac95641b4787099561b54eb9ab901000000000000000000000000000000000000000000000000000000000000000000000000000000000000000000000000000000000000000000000000000000000000000000000000000000000000000000000000000000000000000000000000000000000000000000000000000000000000000000000000000000000000000000000000000000000000000000000000000000000000000000000000000000000000000000000000000000000000000000000000000000000000000000000000000000000000000000000000000000000000000000000000000000000000000000000000000000000000000000000000000000000000000000000000000000000083020000018502540be4008301314e8203e880a02dad68d6b637b5b7af4b9ec4d6057a9063f45ccef4c46476b8b9156bb9ca0d8a8826cd01f1872c2cb6f873f87180018301314e80830186a0a26001600155601080600c6000396000f3006000355415600957005b602035600035551ba09389a7ae1b7f964e5a9f59f8ac38ac3ed6e4465e345999c8b36b5ba0845fea57a00e110cde0059ae2a62be4283754c4143deac61954deaa17310c157b9849a42c4c0",
                "transactions" : [
                    {
                        "data" : "0x6001600155601080600c6000396000f3006000355415600957005b60203560003555",
                        "gasLimit" : "0x01314e",
                        "gasPrice" : "0x01",
                        "nonce" : "0x00",
                        "r" : "0x9389a7ae1b7f964e5a9f59f8ac38ac3ed6e4465e345999c8b36b5ba0845fea57",
                        "s" : "0x0e110cde0059ae2a62be4283754c4143deac61954deaa17310c157b9849a42c4",
                        "to" : "",
                        "v" : "0x1b",
                        "value" : "0x0186a0"
                    }
                ],
                "uncleHeaders" : [
                ]
            }
        ],
        "genesisBlockHeader" : {
            "bloom" : "0x00000000000000000000000000000000000000000000000000000000000000000000000000000000000000000000000000000000000000000000000000000000000000000000000000000000000000000000000000000000000000000000000000000000000000000000000000000000000000000000000000000000000000000000000000000000000000000000000000000000000000000000000000000000000000000000000000000000000000000000000000000000000000000000000000000000000000000000000000000000000000000000000000000000000000000000000000000000000000000000000000000000000000000000000000000000",
            "coinbase" : "0x2adc25665018aa1fe0e6bc666dac8fc2697ff9ba",
            "difficulty" : "0x020000",
            "extraData" : "0x42",
            "gasLimit" : "0x02540be400",
            "gasUsed" : "0x00",
            "hash" : "0x1e6079f699d6f5cfe4eccf0985ac19d908b030e5cb8bfb5aa8a6b216b95e0be0",
            "mixHash" : "0x56e81f171bcc55a6ff8345e692c0f86e5b48e01b996cadc001622fb5e363b421",
            "nonce" : "0x0102030405060708",
            "number" : "0x00",
            "parentHash" : "0x0000000000000000000000000000000000000000000000000000000000000000",
            "receiptTrie" : "0x56e81f171bcc55a6ff8345e692c0f86e5b48e01b996cadc001622fb5e363b421",
            "stateRoot" : "0x517f2cdf6adb1a644878c390ffab4e130f1bed4b498ef7ce58c5addd98d61018",
            "timestamp" : "0x03b6",
            "transactionsTrie" : "0x56e81f171bcc55a6ff8345e692c0f86e5b48e01b996cadc001622fb5e363b421",
            "uncleHash" : "0x1dcc4de8dec75d7aab85b567b6ccd41ad312451b948a7413f0a142fd40d49347"
        },
        "genesisRLP" : "0xf901fcf901f7a00000000000000000000000000000000000000000000000000000000000000000a01dcc4de8dec75d7aab85b567b6ccd41ad312451b948a7413f0a142fd40d49347942adc25665018aa1fe0e6bc666dac8fc2697ff9baa0517f2cdf6adb1a644878c390ffab4e130f1bed4b498ef7ce58c5addd98d61018a056e81f171bcc55a6ff8345e692c0f86e5b48e01b996cadc001622fb5e363b421a056e81f171bcc55a6ff8345e692c0f86e5b48e01b996cadc001622fb5e363b421b901000000000000000000000000000000000000000000000000000000000000000000000000000000000000000000000000000000000000000000000000000000000000000000000000000000000000000000000000000000000000000000000000000000000000000000000000000000000000000000000000000000000000000000000000000000000000000000000000000000000000000000000000000000000000000000000000000000000000000000000000000000000000000000000000000000000000000000000000000000000000000000000000000000000000000000000000000000000000000000000000000000000000000000000000000000000083020000808502540be400808203b642a056e81f171bcc55a6ff8345e692c0f86e5b48e01b996cadc001622fb5e363b421880102030405060708c0c0",
        "lastblockhash" : "0x176043a940eeaa50ddc1bd28a269fe11203ef775aa1603f07a3c86ac45f48ea1",
        "network" : "EIP158",
        "postState" : {
            "0x2adc25665018aa1fe0e6bc666dac8fc2697ff9ba" : {
                "balance" : "0x4563918244f5314e",
                "code" : "",
                "nonce" : "0x00",
                "storage" : {
                }
            },
            "0x6295ee1b4f6dd65047762f924ecd367c17eabf8f" : {
                "balance" : "0x0186a0",
                "code" : "0x396000f3006000355415600957005b60",
                "nonce" : "0x01",
                "storage" : {
                    "0x01" : "0x01"
                }
            },
            "0xa94f5374fce5edbc8e2a8697c15331677e6ebf0b" : {
                "balance" : "0x0de0b6b3a7614812",
                "code" : "",
                "nonce" : "0x01",
                "storage" : {
                }
            }
        },
        "pre" : {
            "0xa94f5374fce5edbc8e2a8697c15331677e6ebf0b" : {
                "balance" : "0x0de0b6b3a7640000",
                "code" : "",
                "nonce" : "0x00",
                "storage" : {
                }
            }
        }
    },
    "createNameRegistratorPerTxsAt_d0g0v0_Frontier" : {
        "_info" : {
            "comment" : "",
            "filledwith" : "cpp-1.3.0+commit.6e0ce939.Linux.g++",
            "lllcversion" : "Version: 0.4.18-develop.2017.9.25+commit.a72237f2.Linux.g++",
            "source" : "src/BlockchainTestsFiller/GeneralStateTests/stTransitionTest/createNameRegistratorPerTxsAt_d0g0v0Filler.json",
            "sourceHash" : "3a4241cdaf192803ad52afdc291f9d64bd26b2b8c6773a2a93d9aac60b8df5b1"
        },
        "blocks" : [
            {
                "blockHeader" : {
                    "bloom" : "0x00000000000000000000000000000000000000000000000000000000000000000000000000000000000000000000000000000000000000000000000000000000000000000000000000000000000000000000000000000000000000000000000000000000000000000000000000000000000000000000000000000000000000000000000000000000000000000000000000000000000000000000000000000000000000000000000000000000000000000000000000000000000000000000000000000000000000000000000000000000000000000000000000000000000000000000000000000000000000000000000000000000000000000000000000000000",
                    "coinbase" : "0x2adc25665018aa1fe0e6bc666dac8fc2697ff9ba",
                    "difficulty" : "0x020000",
                    "extraData" : "",
                    "gasLimit" : "0x02540be400",
                    "gasUsed" : "0xb44e",
                    "hash" : "0xcaac52e0b110c985f3ec9e0ccbafa34647ed67a29b5c6613225ad4e906dff3d9",
                    "mixHash" : "0xe09b614b46256e8a8f8d1f3ef4d0ec57b608f2993e59106f7b9727bdee00a04f",
                    "nonce" : "0xc286368cabce521a",
                    "number" : "0x01",
                    "parentHash" : "0x1e6079f699d6f5cfe4eccf0985ac19d908b030e5cb8bfb5aa8a6b216b95e0be0",
                    "receiptTrie" : "0xf2885e0771bd8fca92c52d28f79ae103b6d7006a56f6d13ac3eb40d927b1cdcd",
                    "stateRoot" : "0x2cd982564eedf2969c4dec1ec04330452a12fb4e40e80e6483685b1f054516a0",
                    "timestamp" : "0x03e8",
                    "transactionsTrie" : "0x57e145e810fd4e0699f320f49dedc139a87d8567921868842c93b3cd2c432ea5",
                    "uncleHash" : "0x1dcc4de8dec75d7aab85b567b6ccd41ad312451b948a7413f0a142fd40d49347"
                },
                "rlp" : "0xf90272f901f9a01e6079f699d6f5cfe4eccf0985ac19d908b030e5cb8bfb5aa8a6b216b95e0be0a01dcc4de8dec75d7aab85b567b6ccd41ad312451b948a7413f0a142fd40d49347942adc25665018aa1fe0e6bc666dac8fc2697ff9baa02cd982564eedf2969c4dec1ec04330452a12fb4e40e80e6483685b1f054516a0a057e145e810fd4e0699f320f49dedc139a87d8567921868842c93b3cd2c432ea5a0f2885e0771bd8fca92c52d28f79ae103b6d7006a56f6d13ac3eb40d927b1cdcdb901000000000000000000000000000000000000000000000000000000000000000000000000000000000000000000000000000000000000000000000000000000000000000000000000000000000000000000000000000000000000000000000000000000000000000000000000000000000000000000000000000000000000000000000000000000000000000000000000000000000000000000000000000000000000000000000000000000000000000000000000000000000000000000000000000000000000000000000000000000000000000000000000000000000000000000000000000000000000000000000000000000000000000000000000000000000083020000018502540be40082b44e8203e880a0e09b614b46256e8a8f8d1f3ef4d0ec57b608f2993e59106f7b9727bdee00a04f88c286368cabce521af873f87180018301314e80830186a0a26001600155601080600c6000396000f3006000355415600957005b602035600035551ba09389a7ae1b7f964e5a9f59f8ac38ac3ed6e4465e345999c8b36b5ba0845fea57a00e110cde0059ae2a62be4283754c4143deac61954deaa17310c157b9849a42c4c0",
                "transactions" : [
                    {
                        "data" : "0x6001600155601080600c6000396000f3006000355415600957005b60203560003555",
                        "gasLimit" : "0x01314e",
                        "gasPrice" : "0x01",
                        "nonce" : "0x00",
                        "r" : "0x9389a7ae1b7f964e5a9f59f8ac38ac3ed6e4465e345999c8b36b5ba0845fea57",
                        "s" : "0x0e110cde0059ae2a62be4283754c4143deac61954deaa17310c157b9849a42c4",
                        "to" : "",
                        "v" : "0x1b",
                        "value" : "0x0186a0"
                    }
                ],
                "uncleHeaders" : [
                ]
            }
        ],
        "genesisBlockHeader" : {
            "bloom" : "0x00000000000000000000000000000000000000000000000000000000000000000000000000000000000000000000000000000000000000000000000000000000000000000000000000000000000000000000000000000000000000000000000000000000000000000000000000000000000000000000000000000000000000000000000000000000000000000000000000000000000000000000000000000000000000000000000000000000000000000000000000000000000000000000000000000000000000000000000000000000000000000000000000000000000000000000000000000000000000000000000000000000000000000000000000000000",
            "coinbase" : "0x2adc25665018aa1fe0e6bc666dac8fc2697ff9ba",
            "difficulty" : "0x020000",
            "extraData" : "0x42",
            "gasLimit" : "0x02540be400",
            "gasUsed" : "0x00",
            "hash" : "0x1e6079f699d6f5cfe4eccf0985ac19d908b030e5cb8bfb5aa8a6b216b95e0be0",
            "mixHash" : "0x56e81f171bcc55a6ff8345e692c0f86e5b48e01b996cadc001622fb5e363b421",
            "nonce" : "0x0102030405060708",
            "number" : "0x00",
            "parentHash" : "0x0000000000000000000000000000000000000000000000000000000000000000",
            "receiptTrie" : "0x56e81f171bcc55a6ff8345e692c0f86e5b48e01b996cadc001622fb5e363b421",
            "stateRoot" : "0x517f2cdf6adb1a644878c390ffab4e130f1bed4b498ef7ce58c5addd98d61018",
            "timestamp" : "0x03b6",
            "transactionsTrie" : "0x56e81f171bcc55a6ff8345e692c0f86e5b48e01b996cadc001622fb5e363b421",
            "uncleHash" : "0x1dcc4de8dec75d7aab85b567b6ccd41ad312451b948a7413f0a142fd40d49347"
        },
        "genesisRLP" : "0xf901fcf901f7a00000000000000000000000000000000000000000000000000000000000000000a01dcc4de8dec75d7aab85b567b6ccd41ad312451b948a7413f0a142fd40d49347942adc25665018aa1fe0e6bc666dac8fc2697ff9baa0517f2cdf6adb1a644878c390ffab4e130f1bed4b498ef7ce58c5addd98d61018a056e81f171bcc55a6ff8345e692c0f86e5b48e01b996cadc001622fb5e363b421a056e81f171bcc55a6ff8345e692c0f86e5b48e01b996cadc001622fb5e363b421b901000000000000000000000000000000000000000000000000000000000000000000000000000000000000000000000000000000000000000000000000000000000000000000000000000000000000000000000000000000000000000000000000000000000000000000000000000000000000000000000000000000000000000000000000000000000000000000000000000000000000000000000000000000000000000000000000000000000000000000000000000000000000000000000000000000000000000000000000000000000000000000000000000000000000000000000000000000000000000000000000000000000000000000000000000000000083020000808502540be400808203b642a056e81f171bcc55a6ff8345e692c0f86e5b48e01b996cadc001622fb5e363b421880102030405060708c0c0",
        "lastblockhash" : "0xcaac52e0b110c985f3ec9e0ccbafa34647ed67a29b5c6613225ad4e906dff3d9",
        "network" : "Frontier",
        "postState" : {
            "0x2adc25665018aa1fe0e6bc666dac8fc2697ff9ba" : {
                "balance" : "0x4563918244f4b44e",
                "code" : "",
                "nonce" : "0x00",
                "storage" : {
                }
            },
            "0x6295ee1b4f6dd65047762f924ecd367c17eabf8f" : {
                "balance" : "0x0186a0",
                "code" : "0x396000f3006000355415600957005b60",
                "nonce" : "0x00",
                "storage" : {
                    "0x01" : "0x01"
                }
            },
            "0xa94f5374fce5edbc8e2a8697c15331677e6ebf0b" : {
                "balance" : "0x0de0b6b3a761c512",
                "code" : "",
                "nonce" : "0x01",
                "storage" : {
                }
            }
        },
        "pre" : {
            "0xa94f5374fce5edbc8e2a8697c15331677e6ebf0b" : {
                "balance" : "0x0de0b6b3a7640000",
                "code" : "",
                "nonce" : "0x00",
                "storage" : {
                }
            }
        }
    },
    "createNameRegistratorPerTxsAt_d0g0v0_Homestead" : {
        "_info" : {
            "comment" : "",
            "filledwith" : "cpp-1.3.0+commit.6e0ce939.Linux.g++",
            "lllcversion" : "Version: 0.4.18-develop.2017.9.25+commit.a72237f2.Linux.g++",
            "source" : "src/BlockchainTestsFiller/GeneralStateTests/stTransitionTest/createNameRegistratorPerTxsAt_d0g0v0Filler.json",
            "sourceHash" : "3a4241cdaf192803ad52afdc291f9d64bd26b2b8c6773a2a93d9aac60b8df5b1"
        },
        "blocks" : [
            {
                "blockHeader" : {
                    "bloom" : "0x00000000000000000000000000000000000000000000000000000000000000000000000000000000000000000000000000000000000000000000000000000000000000000000000000000000000000000000000000000000000000000000000000000000000000000000000000000000000000000000000000000000000000000000000000000000000000000000000000000000000000000000000000000000000000000000000000000000000000000000000000000000000000000000000000000000000000000000000000000000000000000000000000000000000000000000000000000000000000000000000000000000000000000000000000000000",
                    "coinbase" : "0x2adc25665018aa1fe0e6bc666dac8fc2697ff9ba",
                    "difficulty" : "0x020000",
                    "extraData" : "",
                    "gasLimit" : "0x02540be400",
                    "gasUsed" : "0x01314e",
                    "hash" : "0x62591d4fddb9e83d5577a60da1e056428ba5edecfcb7de08e2add4d885ae8a25",
                    "mixHash" : "0x0a9d8d415d3f8689aaf8e624826769bbac219efcb234f13af7434401f4db1b08",
                    "nonce" : "0x6dffc43e6c13706d",
                    "number" : "0x01",
                    "parentHash" : "0x1e6079f699d6f5cfe4eccf0985ac19d908b030e5cb8bfb5aa8a6b216b95e0be0",
                    "receiptTrie" : "0xda18e22670b3b488e71415878b2138a33b8e9182c3d701c1588d4131b7d7edf8",
                    "stateRoot" : "0xb098b73a4b4a76bf20290c827ac95f616235cd130bb8c7784c4feda1553d16e9",
                    "timestamp" : "0x03e8",
                    "transactionsTrie" : "0x57e145e810fd4e0699f320f49dedc139a87d8567921868842c93b3cd2c432ea5",
                    "uncleHash" : "0x1dcc4de8dec75d7aab85b567b6ccd41ad312451b948a7413f0a142fd40d49347"
                },
                "rlp" : "0xf90273f901faa01e6079f699d6f5cfe4eccf0985ac19d908b030e5cb8bfb5aa8a6b216b95e0be0a01dcc4de8dec75d7aab85b567b6ccd41ad312451b948a7413f0a142fd40d49347942adc25665018aa1fe0e6bc666dac8fc2697ff9baa0b098b73a4b4a76bf20290c827ac95f616235cd130bb8c7784c4feda1553d16e9a057e145e810fd4e0699f320f49dedc139a87d8567921868842c93b3cd2c432ea5a0da18e22670b3b488e71415878b2138a33b8e9182c3d701c1588d4131b7d7edf8b901000000000000000000000000000000000000000000000000000000000000000000000000000000000000000000000000000000000000000000000000000000000000000000000000000000000000000000000000000000000000000000000000000000000000000000000000000000000000000000000000000000000000000000000000000000000000000000000000000000000000000000000000000000000000000000000000000000000000000000000000000000000000000000000000000000000000000000000000000000000000000000000000000000000000000000000000000000000000000000000000000000000000000000000000000000000083020000018502540be4008301314e8203e880a00a9d8d415d3f8689aaf8e624826769bbac219efcb234f13af7434401f4db1b08886dffc43e6c13706df873f87180018301314e80830186a0a26001600155601080600c6000396000f3006000355415600957005b602035600035551ba09389a7ae1b7f964e5a9f59f8ac38ac3ed6e4465e345999c8b36b5ba0845fea57a00e110cde0059ae2a62be4283754c4143deac61954deaa17310c157b9849a42c4c0",
                "transactions" : [
                    {
                        "data" : "0x6001600155601080600c6000396000f3006000355415600957005b60203560003555",
                        "gasLimit" : "0x01314e",
                        "gasPrice" : "0x01",
                        "nonce" : "0x00",
                        "r" : "0x9389a7ae1b7f964e5a9f59f8ac38ac3ed6e4465e345999c8b36b5ba0845fea57",
                        "s" : "0x0e110cde0059ae2a62be4283754c4143deac61954deaa17310c157b9849a42c4",
                        "to" : "",
                        "v" : "0x1b",
                        "value" : "0x0186a0"
                    }
                ],
                "uncleHeaders" : [
                ]
            }
        ],
        "genesisBlockHeader" : {
            "bloom" : "0x00000000000000000000000000000000000000000000000000000000000000000000000000000000000000000000000000000000000000000000000000000000000000000000000000000000000000000000000000000000000000000000000000000000000000000000000000000000000000000000000000000000000000000000000000000000000000000000000000000000000000000000000000000000000000000000000000000000000000000000000000000000000000000000000000000000000000000000000000000000000000000000000000000000000000000000000000000000000000000000000000000000000000000000000000000000",
            "coinbase" : "0x2adc25665018aa1fe0e6bc666dac8fc2697ff9ba",
            "difficulty" : "0x020000",
            "extraData" : "0x42",
            "gasLimit" : "0x02540be400",
            "gasUsed" : "0x00",
            "hash" : "0x1e6079f699d6f5cfe4eccf0985ac19d908b030e5cb8bfb5aa8a6b216b95e0be0",
            "mixHash" : "0x56e81f171bcc55a6ff8345e692c0f86e5b48e01b996cadc001622fb5e363b421",
            "nonce" : "0x0102030405060708",
            "number" : "0x00",
            "parentHash" : "0x0000000000000000000000000000000000000000000000000000000000000000",
            "receiptTrie" : "0x56e81f171bcc55a6ff8345e692c0f86e5b48e01b996cadc001622fb5e363b421",
            "stateRoot" : "0x517f2cdf6adb1a644878c390ffab4e130f1bed4b498ef7ce58c5addd98d61018",
            "timestamp" : "0x03b6",
            "transactionsTrie" : "0x56e81f171bcc55a6ff8345e692c0f86e5b48e01b996cadc001622fb5e363b421",
            "uncleHash" : "0x1dcc4de8dec75d7aab85b567b6ccd41ad312451b948a7413f0a142fd40d49347"
        },
        "genesisRLP" : "0xf901fcf901f7a00000000000000000000000000000000000000000000000000000000000000000a01dcc4de8dec75d7aab85b567b6ccd41ad312451b948a7413f0a142fd40d49347942adc25665018aa1fe0e6bc666dac8fc2697ff9baa0517f2cdf6adb1a644878c390ffab4e130f1bed4b498ef7ce58c5addd98d61018a056e81f171bcc55a6ff8345e692c0f86e5b48e01b996cadc001622fb5e363b421a056e81f171bcc55a6ff8345e692c0f86e5b48e01b996cadc001622fb5e363b421b901000000000000000000000000000000000000000000000000000000000000000000000000000000000000000000000000000000000000000000000000000000000000000000000000000000000000000000000000000000000000000000000000000000000000000000000000000000000000000000000000000000000000000000000000000000000000000000000000000000000000000000000000000000000000000000000000000000000000000000000000000000000000000000000000000000000000000000000000000000000000000000000000000000000000000000000000000000000000000000000000000000000000000000000000000000000083020000808502540be400808203b642a056e81f171bcc55a6ff8345e692c0f86e5b48e01b996cadc001622fb5e363b421880102030405060708c0c0",
        "lastblockhash" : "0x62591d4fddb9e83d5577a60da1e056428ba5edecfcb7de08e2add4d885ae8a25",
        "network" : "Homestead",
        "postState" : {
            "0x2adc25665018aa1fe0e6bc666dac8fc2697ff9ba" : {
                "balance" : "0x4563918244f5314e",
                "code" : "",
                "nonce" : "0x00",
                "storage" : {
                }
            },
            "0x6295ee1b4f6dd65047762f924ecd367c17eabf8f" : {
                "balance" : "0x0186a0",
                "code" : "0x396000f3006000355415600957005b60",
                "nonce" : "0x00",
                "storage" : {
                    "0x01" : "0x01"
                }
            },
            "0xa94f5374fce5edbc8e2a8697c15331677e6ebf0b" : {
                "balance" : "0x0de0b6b3a7614812",
                "code" : "",
                "nonce" : "0x01",
                "storage" : {
                }
            }
        },
        "pre" : {
            "0xa94f5374fce5edbc8e2a8697c15331677e6ebf0b" : {
                "balance" : "0x0de0b6b3a7640000",
                "code" : "",
                "nonce" : "0x00",
                "storage" : {
                }
            }
        }
    }
}