{
    "pointAddTrunc_d4g2v0_Byzantium" : {
        "_info" : {
            "comment" : "",
            "filledwith" : "cpp-1.3.0+commit.4e101574.Linux.g++",
            "lllcversion" : "Version: 0.4.18-develop.2017.10.11+commit.81f9f86c.Linux.g++",
            "source" : "src/BlockchainTestsFiller/GeneralStateTests/stZeroKnowledge/pointAddTrunc_d4g2v0Filler.json",
            "sourceHash" : "da2a04c9800d750840b8cab7b070fb04d8ec67b6c867caa7fe8ea047c87ec860"
        },
        "blocks" : [
            {
                "blockHeader" : {
                    "bloom" : "0x00000000000000000000000000000000000000000000000000000000000000000000000000000000000000000000000000000000000000000000000000000000000000000000000000000000000000000000000000000000000000000000000000000000000000000000000000000000000000000000000000000000000000000000000000000000000000000000000000000000000000000000000000000000000000000000000000000000000000000000000000000000000000000000000000000000000000000000000000000000000000000000000000000000000000000000000000000000000000000000000000000000000000000000000000000000",
                    "coinbase" : "0x68795c4aa09d6f4ed3e5deddf8c2ad3049a601da",
                    "difficulty" : "0x020000",
                    "extraData" : "",
                    "gasLimit" : "0x3d37ef",
                    "gasUsed" : "0xde5d",
                    "hash" : "0x70c38a7ac4db30b442ced2f0dff51891600c774369c92bfdc63ffd12c8a12bb6",
                    "mixHash" : "0x6c5991e3d6e20f070413a8f1715ad1a6bd841189863220fa859c90fa3b10adcf",
                    "nonce" : "0xd97b65260821b685",
                    "number" : "0x01",
                    "parentHash" : "0xea87c5d24ed82ffb68c0521efc71e3a600ee9c9dfd47066a830a4374be4b22c3",
                    "receiptTrie" : "0x7b91dffee835c73c13bdbe9dc035b25c95cea21ede9594d027ea333d435033e3",
                    "stateRoot" : "0x2222ed17696673f6b2c7fcdc84c80a3ac17ad3b7e360238191888fe575858f03",
                    "timestamp" : "0x03e8",
                    "transactionsTrie" : "0x1e83db3fb445c7a686b3f313f968e185d066412a83a0c28a13b25985eacec010",
                    "uncleHash" : "0x1dcc4de8dec75d7aab85b567b6ccd41ad312451b948a7413f0a142fd40d49347"
                },
                "rlp" : "0xf902e0f901f7a0ea87c5d24ed82ffb68c0521efc71e3a600ee9c9dfd47066a830a4374be4b22c3a01dcc4de8dec75d7aab85b567b6ccd41ad312451b948a7413f0a142fd40d493479468795c4aa09d6f4ed3e5deddf8c2ad3049a601daa02222ed17696673f6b2c7fcdc84c80a3ac17ad3b7e360238191888fe575858f03a01e83db3fb445c7a686b3f313f968e185d066412a83a0c28a13b25985eacec010a07b91dffee835c73c13bdbe9dc035b25c95cea21ede9594d027ea333d435033e3b90100000000000000000000000000000000000000000000000000000000000000000000000000000000000000000000000000000000000000000000000000000000000000000000000000000000000000000000000000000000000000000000000000000000000000000000000000000000000000000000000000000000000000000000000000000000000000000000000000000000000000000000000000000000000000000000000000000000000000000000000000000000000000000000000000000000000000000000000000000000000000000000000000000000000000000000000000000000000000000000000000000000000000000000000000000000008302000001833d37ef82de5d8203e880a06c5991e3d6e20f070413a8f1715ad1a6bd841189863220fa859c90fa3b10adcf88d97b65260821b685f8e3f8e101018301adb094b94f5374fce5edbc8e2a8697c15331677e6ebf0b80b880000000000000000000000000000000000000000000000000000000000000000000000000000000000000000000000000000000000000000000000000000000000f25929bcb43d5a57391564615c9e70a992b10eafa4db109709649cf48c50dd216da2f5cb6be7a0aa72c440c53c9bbdfec6c36c7d515536431b3a865468acbba1ca01449e78670b521ac547946317dea4e1a3ec3aa79eb41e27bfcfedba7f7e5bfa5a012e427e61ce8841294a67a379f21618352edd9e5db56f2d479ed59766c46503dc0",
                "transactions" : [
                    {
                        "data" : "0x000000000000000000000000000000000000000000000000000000000000000000000000000000000000000000000000000000000000000000000000000000000f25929bcb43d5a57391564615c9e70a992b10eafa4db109709649cf48c50dd216da2f5cb6be7a0aa72c440c53c9bbdfec6c36c7d515536431b3a865468acbba",
                        "gasLimit" : "0x01adb0",
                        "gasPrice" : "0x01",
                        "nonce" : "0x01",
                        "r" : "0x1449e78670b521ac547946317dea4e1a3ec3aa79eb41e27bfcfedba7f7e5bfa5",
                        "s" : "0x12e427e61ce8841294a67a379f21618352edd9e5db56f2d479ed59766c46503d",
                        "to" : "0xb94f5374fce5edbc8e2a8697c15331677e6ebf0b",
                        "v" : "0x1c",
                        "value" : "0x00"
                    }
                ],
                "uncleHeaders" : [
                ]
            }
        ],
        "genesisBlockHeader" : {
            "bloom" : "0x00000000000000000000000000000000000000000000000000000000000000000000000000000000000000000000000000000000000000000000000000000000000000000000000000000000000000000000000000000000000000000000000000000000000000000000000000000000000000000000000000000000000000000000000000000000000000000000000000000000000000000000000000000000000000000000000000000000000000000000000000000000000000000000000000000000000000000000000000000000000000000000000000000000000000000000000000000000000000000000000000000000000000000000000000000000",
            "coinbase" : "0x68795c4aa09d6f4ed3e5deddf8c2ad3049a601da",
            "difficulty" : "0x020000",
            "extraData" : "0x42",
            "gasLimit" : "0x3d37ef",
            "gasUsed" : "0x00",
            "hash" : "0xea87c5d24ed82ffb68c0521efc71e3a600ee9c9dfd47066a830a4374be4b22c3",
            "mixHash" : "0x56e81f171bcc55a6ff8345e692c0f86e5b48e01b996cadc001622fb5e363b421",
            "nonce" : "0x0102030405060708",
            "number" : "0x00",
            "parentHash" : "0x0000000000000000000000000000000000000000000000000000000000000000",
            "receiptTrie" : "0x56e81f171bcc55a6ff8345e692c0f86e5b48e01b996cadc001622fb5e363b421",
            "stateRoot" : "0xb95c9f862133abb4f20233da59c5516c6044c64bdc703a511eefc55a13164877",
            "timestamp" : "0x03b6",
            "transactionsTrie" : "0x56e81f171bcc55a6ff8345e692c0f86e5b48e01b996cadc001622fb5e363b421",
            "uncleHash" : "0x1dcc4de8dec75d7aab85b567b6ccd41ad312451b948a7413f0a142fd40d49347"
        },
        "genesisRLP" : "0xf901faf901f5a00000000000000000000000000000000000000000000000000000000000000000a01dcc4de8dec75d7aab85b567b6ccd41ad312451b948a7413f0a142fd40d493479468795c4aa09d6f4ed3e5deddf8c2ad3049a601daa0b95c9f862133abb4f20233da59c5516c6044c64bdc703a511eefc55a13164877a056e81f171bcc55a6ff8345e692c0f86e5b48e01b996cadc001622fb5e363b421a056e81f171bcc55a6ff8345e692c0f86e5b48e01b996cadc001622fb5e363b421b90100000000000000000000000000000000000000000000000000000000000000000000000000000000000000000000000000000000000000000000000000000000000000000000000000000000000000000000000000000000000000000000000000000000000000000000000000000000000000000000000000000000000000000000000000000000000000000000000000000000000000000000000000000000000000000000000000000000000000000000000000000000000000000000000000000000000000000000000000000000000000000000000000000000000000000000000000000000000000000000000000000000000000000000000000000000008302000080833d37ef808203b642a056e81f171bcc55a6ff8345e692c0f86e5b48e01b996cadc001622fb5e363b421880102030405060708c0c0",
        "lastblockhash" : "0x70c38a7ac4db30b442ced2f0dff51891600c774369c92bfdc63ffd12c8a12bb6",
        "network" : "Byzantium",
        "postState" : {
            "0x68795c4aa09d6f4ed3e5deddf8c2ad3049a601da" : {
                "balance" : "0x29a2241af62cde5d",
                "code" : "",
                "nonce" : "0x00",
                "storage" : {
                }
            },
            "0xa94f5374fce5edbc8e2a8697c15331677e6ebf0b" : {
                "balance" : "0x0de0b6b3a76321a3",
                "code" : "",
                "nonce" : "0x02",
                "storage" : {
                }
            },
            "0xb94f5374fce5edbc8e2a8697c15331677e6ebf0b" : {
                "balance" : "0x00",
                "code" : "0x600035600052602035602052604035604052606035606052604060c860406000600060066207a120f260005560c85160015560e851600255",
                "nonce" : "0x00",
                "storage" : {
                    "0x00" : "0x01"
                }
            }
        },
        "pre" : {
            "0xa94f5374fce5edbc8e2a8697c15331677e6ebf0b" : {
                "balance" : "0x0de0b6b3a7640000",
                "code" : "",
                "nonce" : "0x01",
                "storage" : {
                }
            },
            "0xb94f5374fce5edbc8e2a8697c15331677e6ebf0b" : {
                "balance" : "0x00",
                "code" : "0x600035600052602035602052604035604052606035606052604060c860406000600060066207a120f260005560c85160015560e851600255",
                "nonce" : "0x00",
                "storage" : {
                }
            }
        }
    },
    "pointAddTrunc_d4g2v0_EIP150" : {
        "_info" : {
            "comment" : "",
            "filledwith" : "cpp-1.3.0+commit.4e101574.Linux.g++",
            "lllcversion" : "Version: 0.4.18-develop.2017.10.11+commit.81f9f86c.Linux.g++",
            "source" : "src/BlockchainTestsFiller/GeneralStateTests/stZeroKnowledge/pointAddTrunc_d4g2v0Filler.json",
            "sourceHash" : "da2a04c9800d750840b8cab7b070fb04d8ec67b6c867caa7fe8ea047c87ec860"
        },
        "blocks" : [
            {
                "blockHeader" : {
                    "bloom" : "0x00000000000000000000000000000000000000000000000000000000000000000000000000000000000000000000000000000000000000000000000000000000000000000000000000000000000000000000000000000000000000000000000000000000000000000000000000000000000000000000000000000000000000000000000000000000000000000000000000000000000000000000000000000000000000000000000000000000000000000000000000000000000000000000000000000000000000000000000000000000000000000000000000000000000000000000000000000000000000000000000000000000000000000000000000000000",
                    "coinbase" : "0x68795c4aa09d6f4ed3e5deddf8c2ad3049a601da",
                    "difficulty" : "0x020000",
                    "extraData" : "",
                    "gasLimit" : "0x3d37ef",
                    "gasUsed" : "0xdc69",
                    "hash" : "0xaac9123821dff093bb2daefdc82c13c2030ce8be93ed3230907d0abd24e1a01f",
                    "mixHash" : "0xc073437454c406ae0d579ebdb962ae07b0fe71ddae113fe2cdd5a775f27c7b5c",
                    "nonce" : "0x885515b21b48a631",
                    "number" : "0x01",
                    "parentHash" : "0xea87c5d24ed82ffb68c0521efc71e3a600ee9c9dfd47066a830a4374be4b22c3",
                    "receiptTrie" : "0xee64e801b0792ba0b90e2c9927d83cb6bef899c63c5fe0d0d2b99281ff2ebee8",
                    "stateRoot" : "0xd05681b4ecc6d1bf5b063a71dcfca48633a450d827cc601df498c719aad75530",
                    "timestamp" : "0x03e8",
                    "transactionsTrie" : "0x1e83db3fb445c7a686b3f313f968e185d066412a83a0c28a13b25985eacec010",
                    "uncleHash" : "0x1dcc4de8dec75d7aab85b567b6ccd41ad312451b948a7413f0a142fd40d49347"
                },
                "rlp" : "0xf902e0f901f7a0ea87c5d24ed82ffb68c0521efc71e3a600ee9c9dfd47066a830a4374be4b22c3a01dcc4de8dec75d7aab85b567b6ccd41ad312451b948a7413f0a142fd40d493479468795c4aa09d6f4ed3e5deddf8c2ad3049a601daa0d05681b4ecc6d1bf5b063a71dcfca48633a450d827cc601df498c719aad75530a01e83db3fb445c7a686b3f313f968e185d066412a83a0c28a13b25985eacec010a0ee64e801b0792ba0b90e2c9927d83cb6bef899c63c5fe0d0d2b99281ff2ebee8b90100000000000000000000000000000000000000000000000000000000000000000000000000000000000000000000000000000000000000000000000000000000000000000000000000000000000000000000000000000000000000000000000000000000000000000000000000000000000000000000000000000000000000000000000000000000000000000000000000000000000000000000000000000000000000000000000000000000000000000000000000000000000000000000000000000000000000000000000000000000000000000000000000000000000000000000000000000000000000000000000000000000000000000000000000000000008302000001833d37ef82dc698203e880a0c073437454c406ae0d579ebdb962ae07b0fe71ddae113fe2cdd5a775f27c7b5c88885515b21b48a631f8e3f8e101018301adb094b94f5374fce5edbc8e2a8697c15331677e6ebf0b80b880000000000000000000000000000000000000000000000000000000000000000000000000000000000000000000000000000000000000000000000000000000000f25929bcb43d5a57391564615c9e70a992b10eafa4db109709649cf48c50dd216da2f5cb6be7a0aa72c440c53c9bbdfec6c36c7d515536431b3a865468acbba1ca01449e78670b521ac547946317dea4e1a3ec3aa79eb41e27bfcfedba7f7e5bfa5a012e427e61ce8841294a67a379f21618352edd9e5db56f2d479ed59766c46503dc0",
                "transactions" : [
                    {
                        "data" : "0x000000000000000000000000000000000000000000000000000000000000000000000000000000000000000000000000000000000000000000000000000000000f25929bcb43d5a57391564615c9e70a992b10eafa4db109709649cf48c50dd216da2f5cb6be7a0aa72c440c53c9bbdfec6c36c7d515536431b3a865468acbba",
                        "gasLimit" : "0x01adb0",
                        "gasPrice" : "0x01",
                        "nonce" : "0x01",
                        "r" : "0x1449e78670b521ac547946317dea4e1a3ec3aa79eb41e27bfcfedba7f7e5bfa5",
                        "s" : "0x12e427e61ce8841294a67a379f21618352edd9e5db56f2d479ed59766c46503d",
                        "to" : "0xb94f5374fce5edbc8e2a8697c15331677e6ebf0b",
                        "v" : "0x1c",
                        "value" : "0x00"
                    }
                ],
                "uncleHeaders" : [
                ]
            }
        ],
        "genesisBlockHeader" : {
            "bloom" : "0x00000000000000000000000000000000000000000000000000000000000000000000000000000000000000000000000000000000000000000000000000000000000000000000000000000000000000000000000000000000000000000000000000000000000000000000000000000000000000000000000000000000000000000000000000000000000000000000000000000000000000000000000000000000000000000000000000000000000000000000000000000000000000000000000000000000000000000000000000000000000000000000000000000000000000000000000000000000000000000000000000000000000000000000000000000000",
            "coinbase" : "0x68795c4aa09d6f4ed3e5deddf8c2ad3049a601da",
            "difficulty" : "0x020000",
            "extraData" : "0x42",
            "gasLimit" : "0x3d37ef",
            "gasUsed" : "0x00",
            "hash" : "0xea87c5d24ed82ffb68c0521efc71e3a600ee9c9dfd47066a830a4374be4b22c3",
            "mixHash" : "0x56e81f171bcc55a6ff8345e692c0f86e5b48e01b996cadc001622fb5e363b421",
            "nonce" : "0x0102030405060708",
            "number" : "0x00",
            "parentHash" : "0x0000000000000000000000000000000000000000000000000000000000000000",
            "receiptTrie" : "0x56e81f171bcc55a6ff8345e692c0f86e5b48e01b996cadc001622fb5e363b421",
            "stateRoot" : "0xb95c9f862133abb4f20233da59c5516c6044c64bdc703a511eefc55a13164877",
            "timestamp" : "0x03b6",
            "transactionsTrie" : "0x56e81f171bcc55a6ff8345e692c0f86e5b48e01b996cadc001622fb5e363b421",
            "uncleHash" : "0x1dcc4de8dec75d7aab85b567b6ccd41ad312451b948a7413f0a142fd40d49347"
        },
        "genesisRLP" : "0xf901faf901f5a00000000000000000000000000000000000000000000000000000000000000000a01dcc4de8dec75d7aab85b567b6ccd41ad312451b948a7413f0a142fd40d493479468795c4aa09d6f4ed3e5deddf8c2ad3049a601daa0b95c9f862133abb4f20233da59c5516c6044c64bdc703a511eefc55a13164877a056e81f171bcc55a6ff8345e692c0f86e5b48e01b996cadc001622fb5e363b421a056e81f171bcc55a6ff8345e692c0f86e5b48e01b996cadc001622fb5e363b421b90100000000000000000000000000000000000000000000000000000000000000000000000000000000000000000000000000000000000000000000000000000000000000000000000000000000000000000000000000000000000000000000000000000000000000000000000000000000000000000000000000000000000000000000000000000000000000000000000000000000000000000000000000000000000000000000000000000000000000000000000000000000000000000000000000000000000000000000000000000000000000000000000000000000000000000000000000000000000000000000000000000000000000000000000000000000008302000080833d37ef808203b642a056e81f171bcc55a6ff8345e692c0f86e5b48e01b996cadc001622fb5e363b421880102030405060708c0c0",
        "lastblockhash" : "0xaac9123821dff093bb2daefdc82c13c2030ce8be93ed3230907d0abd24e1a01f",
        "network" : "EIP150",
        "postState" : {
            "0x68795c4aa09d6f4ed3e5deddf8c2ad3049a601da" : {
                "balance" : "0x4563918244f4dc69",
                "code" : "",
                "nonce" : "0x00",
                "storage" : {
                }
            },
            "0xa94f5374fce5edbc8e2a8697c15331677e6ebf0b" : {
                "balance" : "0x0de0b6b3a7632397",
                "code" : "",
                "nonce" : "0x02",
                "storage" : {
                }
            },
            "0xb94f5374fce5edbc8e2a8697c15331677e6ebf0b" : {
                "balance" : "0x00",
                "code" : "0x600035600052602035602052604035604052606035606052604060c860406000600060066207a120f260005560c85160015560e851600255",
                "nonce" : "0x00",
                "storage" : {
                    "0x00" : "0x01"
                }
            }
        },
        "pre" : {
            "0xa94f5374fce5edbc8e2a8697c15331677e6ebf0b" : {
                "balance" : "0x0de0b6b3a7640000",
                "code" : "",
                "nonce" : "0x01",
                "storage" : {
                }
            },
            "0xb94f5374fce5edbc8e2a8697c15331677e6ebf0b" : {
                "balance" : "0x00",
                "code" : "0x600035600052602035602052604035604052606035606052604060c860406000600060066207a120f260005560c85160015560e851600255",
                "nonce" : "0x00",
                "storage" : {
                }
            }
        }
    },
    "pointAddTrunc_d4g2v0_EIP158" : {
        "_info" : {
            "comment" : "",
            "filledwith" : "cpp-1.3.0+commit.4e101574.Linux.g++",
            "lllcversion" : "Version: 0.4.18-develop.2017.10.11+commit.81f9f86c.Linux.g++",
            "source" : "src/BlockchainTestsFiller/GeneralStateTests/stZeroKnowledge/pointAddTrunc_d4g2v0Filler.json",
            "sourceHash" : "da2a04c9800d750840b8cab7b070fb04d8ec67b6c867caa7fe8ea047c87ec860"
        },
        "blocks" : [
            {
                "blockHeader" : {
                    "bloom" : "0x00000000000000000000000000000000000000000000000000000000000000000000000000000000000000000000000000000000000000000000000000000000000000000000000000000000000000000000000000000000000000000000000000000000000000000000000000000000000000000000000000000000000000000000000000000000000000000000000000000000000000000000000000000000000000000000000000000000000000000000000000000000000000000000000000000000000000000000000000000000000000000000000000000000000000000000000000000000000000000000000000000000000000000000000000000000",
                    "coinbase" : "0x68795c4aa09d6f4ed3e5deddf8c2ad3049a601da",
                    "difficulty" : "0x020000",
                    "extraData" : "",
                    "gasLimit" : "0x3d37ef",
                    "gasUsed" : "0xdc69",
                    "hash" : "0x87cae91e41d903faf09a00650946265cfdc3ae2b6d487889b78f96ed4fff2916",
                    "mixHash" : "0x05e1dcee0d33db0b22e2395e119cb98570ed816f0a907bf0af51069e4ef72032",
                    "nonce" : "0xfc1358ecc0dc095f",
                    "number" : "0x01",
                    "parentHash" : "0xea87c5d24ed82ffb68c0521efc71e3a600ee9c9dfd47066a830a4374be4b22c3",
                    "receiptTrie" : "0xee64e801b0792ba0b90e2c9927d83cb6bef899c63c5fe0d0d2b99281ff2ebee8",
                    "stateRoot" : "0xd05681b4ecc6d1bf5b063a71dcfca48633a450d827cc601df498c719aad75530",
                    "timestamp" : "0x03e8",
                    "transactionsTrie" : "0x1e83db3fb445c7a686b3f313f968e185d066412a83a0c28a13b25985eacec010",
                    "uncleHash" : "0x1dcc4de8dec75d7aab85b567b6ccd41ad312451b948a7413f0a142fd40d49347"
                },
                "rlp" : "0xf902e0f901f7a0ea87c5d24ed82ffb68c0521efc71e3a600ee9c9dfd47066a830a4374be4b22c3a01dcc4de8dec75d7aab85b567b6ccd41ad312451b948a7413f0a142fd40d493479468795c4aa09d6f4ed3e5deddf8c2ad3049a601daa0d05681b4ecc6d1bf5b063a71dcfca48633a450d827cc601df498c719aad75530a01e83db3fb445c7a686b3f313f968e185d066412a83a0c28a13b25985eacec010a0ee64e801b0792ba0b90e2c9927d83cb6bef899c63c5fe0d0d2b99281ff2ebee8b90100000000000000000000000000000000000000000000000000000000000000000000000000000000000000000000000000000000000000000000000000000000000000000000000000000000000000000000000000000000000000000000000000000000000000000000000000000000000000000000000000000000000000000000000000000000000000000000000000000000000000000000000000000000000000000000000000000000000000000000000000000000000000000000000000000000000000000000000000000000000000000000000000000000000000000000000000000000000000000000000000000000000000000000000000000000008302000001833d37ef82dc698203e880a005e1dcee0d33db0b22e2395e119cb98570ed816f0a907bf0af51069e4ef7203288fc1358ecc0dc095ff8e3f8e101018301adb094b94f5374fce5edbc8e2a8697c15331677e6ebf0b80b880000000000000000000000000000000000000000000000000000000000000000000000000000000000000000000000000000000000000000000000000000000000f25929bcb43d5a57391564615c9e70a992b10eafa4db109709649cf48c50dd216da2f5cb6be7a0aa72c440c53c9bbdfec6c36c7d515536431b3a865468acbba1ca01449e78670b521ac547946317dea4e1a3ec3aa79eb41e27bfcfedba7f7e5bfa5a012e427e61ce8841294a67a379f21618352edd9e5db56f2d479ed59766c46503dc0",
                "transactions" : [
                    {
                        "data" : "0x000000000000000000000000000000000000000000000000000000000000000000000000000000000000000000000000000000000000000000000000000000000f25929bcb43d5a57391564615c9e70a992b10eafa4db109709649cf48c50dd216da2f5cb6be7a0aa72c440c53c9bbdfec6c36c7d515536431b3a865468acbba",
                        "gasLimit" : "0x01adb0",
                        "gasPrice" : "0x01",
                        "nonce" : "0x01",
                        "r" : "0x1449e78670b521ac547946317dea4e1a3ec3aa79eb41e27bfcfedba7f7e5bfa5",
                        "s" : "0x12e427e61ce8841294a67a379f21618352edd9e5db56f2d479ed59766c46503d",
                        "to" : "0xb94f5374fce5edbc8e2a8697c15331677e6ebf0b",
                        "v" : "0x1c",
                        "value" : "0x00"
                    }
                ],
                "uncleHeaders" : [
                ]
            }
        ],
        "genesisBlockHeader" : {
            "bloom" : "0x00000000000000000000000000000000000000000000000000000000000000000000000000000000000000000000000000000000000000000000000000000000000000000000000000000000000000000000000000000000000000000000000000000000000000000000000000000000000000000000000000000000000000000000000000000000000000000000000000000000000000000000000000000000000000000000000000000000000000000000000000000000000000000000000000000000000000000000000000000000000000000000000000000000000000000000000000000000000000000000000000000000000000000000000000000000",
            "coinbase" : "0x68795c4aa09d6f4ed3e5deddf8c2ad3049a601da",
            "difficulty" : "0x020000",
            "extraData" : "0x42",
            "gasLimit" : "0x3d37ef",
            "gasUsed" : "0x00",
            "hash" : "0xea87c5d24ed82ffb68c0521efc71e3a600ee9c9dfd47066a830a4374be4b22c3",
            "mixHash" : "0x56e81f171bcc55a6ff8345e692c0f86e5b48e01b996cadc001622fb5e363b421",
            "nonce" : "0x0102030405060708",
            "number" : "0x00",
            "parentHash" : "0x0000000000000000000000000000000000000000000000000000000000000000",
            "receiptTrie" : "0x56e81f171bcc55a6ff8345e692c0f86e5b48e01b996cadc001622fb5e363b421",
            "stateRoot" : "0xb95c9f862133abb4f20233da59c5516c6044c64bdc703a511eefc55a13164877",
            "timestamp" : "0x03b6",
            "transactionsTrie" : "0x56e81f171bcc55a6ff8345e692c0f86e5b48e01b996cadc001622fb5e363b421",
            "uncleHash" : "0x1dcc4de8dec75d7aab85b567b6ccd41ad312451b948a7413f0a142fd40d49347"
        },
        "genesisRLP" : "0xf901faf901f5a00000000000000000000000000000000000000000000000000000000000000000a01dcc4de8dec75d7aab85b567b6ccd41ad312451b948a7413f0a142fd40d493479468795c4aa09d6f4ed3e5deddf8c2ad3049a601daa0b95c9f862133abb4f20233da59c5516c6044c64bdc703a511eefc55a13164877a056e81f171bcc55a6ff8345e692c0f86e5b48e01b996cadc001622fb5e363b421a056e81f171bcc55a6ff8345e692c0f86e5b48e01b996cadc001622fb5e363b421b90100000000000000000000000000000000000000000000000000000000000000000000000000000000000000000000000000000000000000000000000000000000000000000000000000000000000000000000000000000000000000000000000000000000000000000000000000000000000000000000000000000000000000000000000000000000000000000000000000000000000000000000000000000000000000000000000000000000000000000000000000000000000000000000000000000000000000000000000000000000000000000000000000000000000000000000000000000000000000000000000000000000000000000000000000000000008302000080833d37ef808203b642a056e81f171bcc55a6ff8345e692c0f86e5b48e01b996cadc001622fb5e363b421880102030405060708c0c0",
        "lastblockhash" : "0x87cae91e41d903faf09a00650946265cfdc3ae2b6d487889b78f96ed4fff2916",
        "network" : "EIP158",
        "postState" : {
            "0x68795c4aa09d6f4ed3e5deddf8c2ad3049a601da" : {
                "balance" : "0x4563918244f4dc69",
                "code" : "",
                "nonce" : "0x00",
                "storage" : {
                }
            },
            "0xa94f5374fce5edbc8e2a8697c15331677e6ebf0b" : {
                "balance" : "0x0de0b6b3a7632397",
                "code" : "",
                "nonce" : "0x02",
                "storage" : {
                }
            },
            "0xb94f5374fce5edbc8e2a8697c15331677e6ebf0b" : {
                "balance" : "0x00",
                "code" : "0x600035600052602035602052604035604052606035606052604060c860406000600060066207a120f260005560c85160015560e851600255",
                "nonce" : "0x00",
                "storage" : {
                    "0x00" : "0x01"
                }
            }
        },
        "pre" : {
            "0xa94f5374fce5edbc8e2a8697c15331677e6ebf0b" : {
                "balance" : "0x0de0b6b3a7640000",
                "code" : "",
                "nonce" : "0x01",
                "storage" : {
                }
            },
            "0xb94f5374fce5edbc8e2a8697c15331677e6ebf0b" : {
                "balance" : "0x00",
                "code" : "0x600035600052602035602052604035604052606035606052604060c860406000600060066207a120f260005560c85160015560e851600255",
                "nonce" : "0x00",
                "storage" : {
                }
            }
        }
    },
    "pointAddTrunc_d4g2v0_Frontier" : {
        "_info" : {
            "comment" : "",
            "filledwith" : "cpp-1.3.0+commit.4e101574.Linux.g++",
            "lllcversion" : "Version: 0.4.18-develop.2017.10.11+commit.81f9f86c.Linux.g++",
            "source" : "src/BlockchainTestsFiller/GeneralStateTests/stZeroKnowledge/pointAddTrunc_d4g2v0Filler.json",
            "sourceHash" : "da2a04c9800d750840b8cab7b070fb04d8ec67b6c867caa7fe8ea047c87ec860"
        },
        "blocks" : [
            {
                "blockHeader" : {
                    "bloom" : "0x00000000000000000000000000000000000000000000000000000000000000000000000000000000000000000000000000000000000000000000000000000000000000000000000000000000000000000000000000000000000000000000000000000000000000000000000000000000000000000000000000000000000000000000000000000000000000000000000000000000000000000000000000000000000000000000000000000000000000000000000000000000000000000000000000000000000000000000000000000000000000000000000000000000000000000000000000000000000000000000000000000000000000000000000000000000",
                    "coinbase" : "0x68795c4aa09d6f4ed3e5deddf8c2ad3049a601da",
                    "difficulty" : "0x020000",
                    "extraData" : "",
                    "gasLimit" : "0x3d37ef",
                    "gasUsed" : "0x01adb0",
                    "hash" : "0xfaef058e4529edda23dd97c7893053c9a898e23e188b5e96a87b5afff128ccfa",
                    "mixHash" : "0x97255121805042ae2a1afc852c6138137f9f9bd0e8077add237f96e5d654eab1",
                    "nonce" : "0xe89c64a5ac8803d0",
                    "number" : "0x01",
                    "parentHash" : "0xea87c5d24ed82ffb68c0521efc71e3a600ee9c9dfd47066a830a4374be4b22c3",
                    "receiptTrie" : "0xd2865d911e9bd7dd82af311bc7b69454e7c5bb61e30268924075101f97224bcb",
                    "stateRoot" : "0x20f4d56c022f180928296668991e52903c50aa141951855c118a7f2a48dc3475",
                    "timestamp" : "0x03e8",
                    "transactionsTrie" : "0x1e83db3fb445c7a686b3f313f968e185d066412a83a0c28a13b25985eacec010",
                    "uncleHash" : "0x1dcc4de8dec75d7aab85b567b6ccd41ad312451b948a7413f0a142fd40d49347"
                },
                "rlp" : "0xf902e1f901f8a0ea87c5d24ed82ffb68c0521efc71e3a600ee9c9dfd47066a830a4374be4b22c3a01dcc4de8dec75d7aab85b567b6ccd41ad312451b948a7413f0a142fd40d493479468795c4aa09d6f4ed3e5deddf8c2ad3049a601daa020f4d56c022f180928296668991e52903c50aa141951855c118a7f2a48dc3475a01e83db3fb445c7a686b3f313f968e185d066412a83a0c28a13b25985eacec010a0d2865d911e9bd7dd82af311bc7b69454e7c5bb61e30268924075101f97224bcbb90100000000000000000000000000000000000000000000000000000000000000000000000000000000000000000000000000000000000000000000000000000000000000000000000000000000000000000000000000000000000000000000000000000000000000000000000000000000000000000000000000000000000000000000000000000000000000000000000000000000000000000000000000000000000000000000000000000000000000000000000000000000000000000000000000000000000000000000000000000000000000000000000000000000000000000000000000000000000000000000000000000000000000000000000000000000008302000001833d37ef8301adb08203e880a097255121805042ae2a1afc852c6138137f9f9bd0e8077add237f96e5d654eab188e89c64a5ac8803d0f8e3f8e101018301adb094b94f5374fce5edbc8e2a8697c15331677e6ebf0b80b880000000000000000000000000000000000000000000000000000000000000000000000000000000000000000000000000000000000000000000000000000000000f25929bcb43d5a57391564615c9e70a992b10eafa4db109709649cf48c50dd216da2f5cb6be7a0aa72c440c53c9bbdfec6c36c7d515536431b3a865468acbba1ca01449e78670b521ac547946317dea4e1a3ec3aa79eb41e27bfcfedba7f7e5bfa5a012e427e61ce8841294a67a379f21618352edd9e5db56f2d479ed59766c46503dc0",
                "transactions" : [
                    {
                        "data" : "0x000000000000000000000000000000000000000000000000000000000000000000000000000000000000000000000000000000000000000000000000000000000f25929bcb43d5a57391564615c9e70a992b10eafa4db109709649cf48c50dd216da2f5cb6be7a0aa72c440c53c9bbdfec6c36c7d515536431b3a865468acbba",
                        "gasLimit" : "0x01adb0",
                        "gasPrice" : "0x01",
                        "nonce" : "0x01",
                        "r" : "0x1449e78670b521ac547946317dea4e1a3ec3aa79eb41e27bfcfedba7f7e5bfa5",
                        "s" : "0x12e427e61ce8841294a67a379f21618352edd9e5db56f2d479ed59766c46503d",
                        "to" : "0xb94f5374fce5edbc8e2a8697c15331677e6ebf0b",
                        "v" : "0x1c",
                        "value" : "0x00"
                    }
                ],
                "uncleHeaders" : [
                ]
            }
        ],
        "genesisBlockHeader" : {
            "bloom" : "0x00000000000000000000000000000000000000000000000000000000000000000000000000000000000000000000000000000000000000000000000000000000000000000000000000000000000000000000000000000000000000000000000000000000000000000000000000000000000000000000000000000000000000000000000000000000000000000000000000000000000000000000000000000000000000000000000000000000000000000000000000000000000000000000000000000000000000000000000000000000000000000000000000000000000000000000000000000000000000000000000000000000000000000000000000000000",
            "coinbase" : "0x68795c4aa09d6f4ed3e5deddf8c2ad3049a601da",
            "difficulty" : "0x020000",
            "extraData" : "0x42",
            "gasLimit" : "0x3d37ef",
            "gasUsed" : "0x00",
            "hash" : "0xea87c5d24ed82ffb68c0521efc71e3a600ee9c9dfd47066a830a4374be4b22c3",
            "mixHash" : "0x56e81f171bcc55a6ff8345e692c0f86e5b48e01b996cadc001622fb5e363b421",
            "nonce" : "0x0102030405060708",
            "number" : "0x00",
            "parentHash" : "0x0000000000000000000000000000000000000000000000000000000000000000",
            "receiptTrie" : "0x56e81f171bcc55a6ff8345e692c0f86e5b48e01b996cadc001622fb5e363b421",
            "stateRoot" : "0xb95c9f862133abb4f20233da59c5516c6044c64bdc703a511eefc55a13164877",
            "timestamp" : "0x03b6",
            "transactionsTrie" : "0x56e81f171bcc55a6ff8345e692c0f86e5b48e01b996cadc001622fb5e363b421",
            "uncleHash" : "0x1dcc4de8dec75d7aab85b567b6ccd41ad312451b948a7413f0a142fd40d49347"
        },
        "genesisRLP" : "0xf901faf901f5a00000000000000000000000000000000000000000000000000000000000000000a01dcc4de8dec75d7aab85b567b6ccd41ad312451b948a7413f0a142fd40d493479468795c4aa09d6f4ed3e5deddf8c2ad3049a601daa0b95c9f862133abb4f20233da59c5516c6044c64bdc703a511eefc55a13164877a056e81f171bcc55a6ff8345e692c0f86e5b48e01b996cadc001622fb5e363b421a056e81f171bcc55a6ff8345e692c0f86e5b48e01b996cadc001622fb5e363b421b90100000000000000000000000000000000000000000000000000000000000000000000000000000000000000000000000000000000000000000000000000000000000000000000000000000000000000000000000000000000000000000000000000000000000000000000000000000000000000000000000000000000000000000000000000000000000000000000000000000000000000000000000000000000000000000000000000000000000000000000000000000000000000000000000000000000000000000000000000000000000000000000000000000000000000000000000000000000000000000000000000000000000000000000000000000000008302000080833d37ef808203b642a056e81f171bcc55a6ff8345e692c0f86e5b48e01b996cadc001622fb5e363b421880102030405060708c0c0",
        "lastblockhash" : "0xfaef058e4529edda23dd97c7893053c9a898e23e188b5e96a87b5afff128ccfa",
        "network" : "Frontier",
        "postState" : {
            "0x68795c4aa09d6f4ed3e5deddf8c2ad3049a601da" : {
                "balance" : "0x4563918244f5adb0",
                "code" : "",
                "nonce" : "0x00",
                "storage" : {
                }
            },
            "0xa94f5374fce5edbc8e2a8697c15331677e6ebf0b" : {
                "balance" : "0x0de0b6b3a7625250",
                "code" : "",
                "nonce" : "0x02",
                "storage" : {
                }
            },
            "0xb94f5374fce5edbc8e2a8697c15331677e6ebf0b" : {
                "balance" : "0x00",
                "code" : "0x600035600052602035602052604035604052606035606052604060c860406000600060066207a120f260005560c85160015560e851600255",
                "nonce" : "0x00",
                "storage" : {
                }
            }
        },
        "pre" : {
            "0xa94f5374fce5edbc8e2a8697c15331677e6ebf0b" : {
                "balance" : "0x0de0b6b3a7640000",
                "code" : "",
                "nonce" : "0x01",
                "storage" : {
                }
            },
            "0xb94f5374fce5edbc8e2a8697c15331677e6ebf0b" : {
                "balance" : "0x00",
                "code" : "0x600035600052602035602052604035604052606035606052604060c860406000600060066207a120f260005560c85160015560e851600255",
                "nonce" : "0x00",
                "storage" : {
                }
            }
        }
    },
    "pointAddTrunc_d4g2v0_Homestead" : {
        "_info" : {
            "comment" : "",
            "filledwith" : "cpp-1.3.0+commit.4e101574.Linux.g++",
            "lllcversion" : "Version: 0.4.18-develop.2017.10.11+commit.81f9f86c.Linux.g++",
            "source" : "src/BlockchainTestsFiller/GeneralStateTests/stZeroKnowledge/pointAddTrunc_d4g2v0Filler.json",
            "sourceHash" : "da2a04c9800d750840b8cab7b070fb04d8ec67b6c867caa7fe8ea047c87ec860"
        },
        "blocks" : [
            {
                "blockHeader" : {
                    "bloom" : "0x00000000000000000000000000000000000000000000000000000000000000000000000000000000000000000000000000000000000000000000000000000000000000000000000000000000000000000000000000000000000000000000000000000000000000000000000000000000000000000000000000000000000000000000000000000000000000000000000000000000000000000000000000000000000000000000000000000000000000000000000000000000000000000000000000000000000000000000000000000000000000000000000000000000000000000000000000000000000000000000000000000000000000000000000000000000",
                    "coinbase" : "0x68795c4aa09d6f4ed3e5deddf8c2ad3049a601da",
                    "difficulty" : "0x020000",
                    "extraData" : "",
                    "gasLimit" : "0x3d37ef",
                    "gasUsed" : "0x01adb0",
                    "hash" : "0xa0fd9b238eccc9daeea411be5f0a9e140fe8bb211caeb2bba66ac8d73aaaf43a",
                    "mixHash" : "0x30c610c14885afd9b19d1cc814af204f1537cd2559667184d88840c89b1dafdc",
                    "nonce" : "0xd2284b7136455e5e",
                    "number" : "0x01",
                    "parentHash" : "0xea87c5d24ed82ffb68c0521efc71e3a600ee9c9dfd47066a830a4374be4b22c3",
                    "receiptTrie" : "0xd2865d911e9bd7dd82af311bc7b69454e7c5bb61e30268924075101f97224bcb",
                    "stateRoot" : "0x20f4d56c022f180928296668991e52903c50aa141951855c118a7f2a48dc3475",
                    "timestamp" : "0x03e8",
                    "transactionsTrie" : "0x1e83db3fb445c7a686b3f313f968e185d066412a83a0c28a13b25985eacec010",
                    "uncleHash" : "0x1dcc4de8dec75d7aab85b567b6ccd41ad312451b948a7413f0a142fd40d49347"
                },
                "rlp" : "0xf902e1f901f8a0ea87c5d24ed82ffb68c0521efc71e3a600ee9c9dfd47066a830a4374be4b22c3a01dcc4de8dec75d7aab85b567b6ccd41ad312451b948a7413f0a142fd40d493479468795c4aa09d6f4ed3e5deddf8c2ad3049a601daa020f4d56c022f180928296668991e52903c50aa141951855c118a7f2a48dc3475a01e83db3fb445c7a686b3f313f968e185d066412a83a0c28a13b25985eacec010a0d2865d911e9bd7dd82af311bc7b69454e7c5bb61e30268924075101f97224bcbb90100000000000000000000000000000000000000000000000000000000000000000000000000000000000000000000000000000000000000000000000000000000000000000000000000000000000000000000000000000000000000000000000000000000000000000000000000000000000000000000000000000000000000000000000000000000000000000000000000000000000000000000000000000000000000000000000000000000000000000000000000000000000000000000000000000000000000000000000000000000000000000000000000000000000000000000000000000000000000000000000000000000000000000000000000000000008302000001833d37ef8301adb08203e880a030c610c14885afd9b19d1cc814af204f1537cd2559667184d88840c89b1dafdc88d2284b7136455e5ef8e3f8e101018301adb094b94f5374fce5edbc8e2a8697c15331677e6ebf0b80b880000000000000000000000000000000000000000000000000000000000000000000000000000000000000000000000000000000000000000000000000000000000f25929bcb43d5a57391564615c9e70a992b10eafa4db109709649cf48c50dd216da2f5cb6be7a0aa72c440c53c9bbdfec6c36c7d515536431b3a865468acbba1ca01449e78670b521ac547946317dea4e1a3ec3aa79eb41e27bfcfedba7f7e5bfa5a012e427e61ce8841294a67a379f21618352edd9e5db56f2d479ed59766c46503dc0",
                "transactions" : [
                    {
                        "data" : "0x000000000000000000000000000000000000000000000000000000000000000000000000000000000000000000000000000000000000000000000000000000000f25929bcb43d5a57391564615c9e70a992b10eafa4db109709649cf48c50dd216da2f5cb6be7a0aa72c440c53c9bbdfec6c36c7d515536431b3a865468acbba",
                        "gasLimit" : "0x01adb0",
                        "gasPrice" : "0x01",
                        "nonce" : "0x01",
                        "r" : "0x1449e78670b521ac547946317dea4e1a3ec3aa79eb41e27bfcfedba7f7e5bfa5",
                        "s" : "0x12e427e61ce8841294a67a379f21618352edd9e5db56f2d479ed59766c46503d",
                        "to" : "0xb94f5374fce5edbc8e2a8697c15331677e6ebf0b",
                        "v" : "0x1c",
                        "value" : "0x00"
                    }
                ],
                "uncleHeaders" : [
                ]
            }
        ],
        "genesisBlockHeader" : {
            "bloom" : "0x00000000000000000000000000000000000000000000000000000000000000000000000000000000000000000000000000000000000000000000000000000000000000000000000000000000000000000000000000000000000000000000000000000000000000000000000000000000000000000000000000000000000000000000000000000000000000000000000000000000000000000000000000000000000000000000000000000000000000000000000000000000000000000000000000000000000000000000000000000000000000000000000000000000000000000000000000000000000000000000000000000000000000000000000000000000",
            "coinbase" : "0x68795c4aa09d6f4ed3e5deddf8c2ad3049a601da",
            "difficulty" : "0x020000",
            "extraData" : "0x42",
            "gasLimit" : "0x3d37ef",
            "gasUsed" : "0x00",
            "hash" : "0xea87c5d24ed82ffb68c0521efc71e3a600ee9c9dfd47066a830a4374be4b22c3",
            "mixHash" : "0x56e81f171bcc55a6ff8345e692c0f86e5b48e01b996cadc001622fb5e363b421",
            "nonce" : "0x0102030405060708",
            "number" : "0x00",
            "parentHash" : "0x0000000000000000000000000000000000000000000000000000000000000000",
            "receiptTrie" : "0x56e81f171bcc55a6ff8345e692c0f86e5b48e01b996cadc001622fb5e363b421",
            "stateRoot" : "0xb95c9f862133abb4f20233da59c5516c6044c64bdc703a511eefc55a13164877",
            "timestamp" : "0x03b6",
            "transactionsTrie" : "0x56e81f171bcc55a6ff8345e692c0f86e5b48e01b996cadc001622fb5e363b421",
            "uncleHash" : "0x1dcc4de8dec75d7aab85b567b6ccd41ad312451b948a7413f0a142fd40d49347"
        },
        "genesisRLP" : "0xf901faf901f5a00000000000000000000000000000000000000000000000000000000000000000a01dcc4de8dec75d7aab85b567b6ccd41ad312451b948a7413f0a142fd40d493479468795c4aa09d6f4ed3e5deddf8c2ad3049a601daa0b95c9f862133abb4f20233da59c5516c6044c64bdc703a511eefc55a13164877a056e81f171bcc55a6ff8345e692c0f86e5b48e01b996cadc001622fb5e363b421a056e81f171bcc55a6ff8345e692c0f86e5b48e01b996cadc001622fb5e363b421b90100000000000000000000000000000000000000000000000000000000000000000000000000000000000000000000000000000000000000000000000000000000000000000000000000000000000000000000000000000000000000000000000000000000000000000000000000000000000000000000000000000000000000000000000000000000000000000000000000000000000000000000000000000000000000000000000000000000000000000000000000000000000000000000000000000000000000000000000000000000000000000000000000000000000000000000000000000000000000000000000000000000000000000000000000000000008302000080833d37ef808203b642a056e81f171bcc55a6ff8345e692c0f86e5b48e01b996cadc001622fb5e363b421880102030405060708c0c0",
        "lastblockhash" : "0xa0fd9b238eccc9daeea411be5f0a9e140fe8bb211caeb2bba66ac8d73aaaf43a",
        "network" : "Homestead",
        "postState" : {
            "0x68795c4aa09d6f4ed3e5deddf8c2ad3049a601da" : {
                "balance" : "0x4563918244f5adb0",
                "code" : "",
                "nonce" : "0x00",
                "storage" : {
                }
            },
            "0xa94f5374fce5edbc8e2a8697c15331677e6ebf0b" : {
                "balance" : "0x0de0b6b3a7625250",
                "code" : "",
                "nonce" : "0x02",
                "storage" : {
                }
            },
            "0xb94f5374fce5edbc8e2a8697c15331677e6ebf0b" : {
                "balance" : "0x00",
                "code" : "0x600035600052602035602052604035604052606035606052604060c860406000600060066207a120f260005560c85160015560e851600255",
                "nonce" : "0x00",
                "storage" : {
                }
            }
        },
        "pre" : {
            "0xa94f5374fce5edbc8e2a8697c15331677e6ebf0b" : {
                "balance" : "0x0de0b6b3a7640000",
                "code" : "",
                "nonce" : "0x01",
                "storage" : {
                }
            },
            "0xb94f5374fce5edbc8e2a8697c15331677e6ebf0b" : {
                "balance" : "0x00",
                "code" : "0x600035600052602035602052604035604052606035606052604060c860406000600060066207a120f260005560c85160015560e851600255",
                "nonce" : "0x00",
                "storage" : {
                }
            }
        }
    }
}