{
    "pointMulAdd_d5g0v0_Byzantium" : {
        "_info" : {
            "comment" : "",
            "filledwith" : "cpp-1.3.0+commit.4e101574.Linux.g++",
            "lllcversion" : "Version: 0.4.18-develop.2017.10.11+commit.81f9f86c.Linux.g++",
            "source" : "src/BlockchainTestsFiller/GeneralStateTests/stZeroKnowledge/pointMulAdd_d5g0v0Filler.json",
            "sourceHash" : "7f7db4e054b1d180555ead74176f9cdb8d3af7a25e590c09daf62bd0bdf4ec17"
        },
        "blocks" : [
            {
                "blockHeader" : {
                    "bloom" : "0x00000000000000000000000000000000000000000000000000000000000000000000000000000000000000000000000000000000000000000000000000000000000000000000000000000000000000000000000000000000000000000000000000000000000000000000000000000000000000000000000000000000000000000000000000000000000000000000000000000000000000000000000000000000000000000000000000000000000000000000000000000000000000000000000000000000000000000000000000000000000000000000000000000000000000000000000000000000000000000000000000000000000000000000000000000000",
                    "coinbase" : "0x68795c4aa09d6f4ed3e5deddf8c2ad3049a601da",
                    "difficulty" : "0x020000",
                    "extraData" : "",
                    "gasLimit" : "0x3d37ef",
                    "gasUsed" : "0x03a5c1",
                    "hash" : "0xcfe851df47c29ccc11d6c09627a0b443d1d7379ecd4b7daac5b74e3192f6d2ec",
                    "mixHash" : "0x4087364c1ae5f3f8a83ce9b2728966e77437037bce403e64656cab8488197c33",
                    "nonce" : "0xcab9d32301609dd9",
                    "number" : "0x01",
                    "parentHash" : "0x9b25016c45ce0e295a463681361471a29c00aea06cba17cbc22894ce6d2c1def",
                    "receiptTrie" : "0xd1546df62fb101bbfbacdc7dc043b9af5ca6a6f4c6d1653f015a9e8bf578244b",
                    "stateRoot" : "0x581525dd2172aa274c9c912989360c84d640ab6ffd8e414922a35957e0f585fc",
                    "timestamp" : "0x03e8",
                    "transactionsTrie" : "0xc42767bb4fa33c4fb0e183cc33751c4c63e434e28bd042b134678f8cc3398cce",
                    "uncleHash" : "0x1dcc4de8dec75d7aab85b567b6ccd41ad312451b948a7413f0a142fd40d49347"
                },
                "rlp" : "0xf90343f901f8a09b25016c45ce0e295a463681361471a29c00aea06cba17cbc22894ce6d2c1defa01dcc4de8dec75d7aab85b567b6ccd41ad312451b948a7413f0a142fd40d493479468795c4aa09d6f4ed3e5deddf8c2ad3049a601daa0581525dd2172aa274c9c912989360c84d640ab6ffd8e414922a35957e0f585fca0c42767bb4fa33c4fb0e183cc33751c4c63e434e28bd042b134678f8cc3398ccea0d1546df62fb101bbfbacdc7dc043b9af5ca6a6f4c6d1653f015a9e8bf578244bb90100000000000000000000000000000000000000000000000000000000000000000000000000000000000000000000000000000000000000000000000000000000000000000000000000000000000000000000000000000000000000000000000000000000000000000000000000000000000000000000000000000000000000000000000000000000000000000000000000000000000000000000000000000000000000000000000000000000000000000000000000000000000000000000000000000000000000000000000000000000000000000000000000000000000000000000000000000000000000000000000000000000000000000000000000000000008302000001833d37ef8303a5c18203e880a04087364c1ae5f3f8a83ce9b2728966e77437037bce403e64656cab8488197c3388cab9d32301609dd9f90144f901410101831e848094b94f5374fce5edbc8e2a8697c15331677e6ebf0b80b8e01f4d1d80177b1377743d1901f70d7389be7f7a35a35bfd234a8aaee615b88c492eddcb59a6517e86bfbe35c9691479fffc6e0580000ca2706c983ff7afcb1db81f4d1d80177b1377743d1901f70d7389be7f7a35a35bfd234a8aaee615b88c492eddcb59a6517e86bfbe35c9691479fffc6e0580000ca2706c983ff7afcb1db81f4d1d80177b1377743d1901f70d7389be7f7a35a35bfd234a8aaee615b88c49018683193ae021a2f8920fed186cde5d9b1365116865281ccf884c1f28b1df8f30644e72e131a029b85045b68181585d2833e84879b9709143e1f593efffffff1ca04f1aae49a40dd2ae10f014a5ec240a261fbf78fa914b44cc4d2679af49653622a0376b188f796f35e58e086f0b833e77b82bc188176169fad4ac3cb3fd06e84dc2c0",
                "transactions" : [
                    {
                        "data" : "0x1f4d1d80177b1377743d1901f70d7389be7f7a35a35bfd234a8aaee615b88c492eddcb59a6517e86bfbe35c9691479fffc6e0580000ca2706c983ff7afcb1db81f4d1d80177b1377743d1901f70d7389be7f7a35a35bfd234a8aaee615b88c492eddcb59a6517e86bfbe35c9691479fffc6e0580000ca2706c983ff7afcb1db81f4d1d80177b1377743d1901f70d7389be7f7a35a35bfd234a8aaee615b88c49018683193ae021a2f8920fed186cde5d9b1365116865281ccf884c1f28b1df8f30644e72e131a029b85045b68181585d2833e84879b9709143e1f593efffffff",
                        "gasLimit" : "0x1e8480",
                        "gasPrice" : "0x01",
                        "nonce" : "0x01",
                        "r" : "0x4f1aae49a40dd2ae10f014a5ec240a261fbf78fa914b44cc4d2679af49653622",
                        "s" : "0x376b188f796f35e58e086f0b833e77b82bc188176169fad4ac3cb3fd06e84dc2",
                        "to" : "0xb94f5374fce5edbc8e2a8697c15331677e6ebf0b",
                        "v" : "0x1c",
                        "value" : "0x00"
                    }
                ],
                "uncleHeaders" : [
                ]
            }
        ],
        "genesisBlockHeader" : {
            "bloom" : "0x00000000000000000000000000000000000000000000000000000000000000000000000000000000000000000000000000000000000000000000000000000000000000000000000000000000000000000000000000000000000000000000000000000000000000000000000000000000000000000000000000000000000000000000000000000000000000000000000000000000000000000000000000000000000000000000000000000000000000000000000000000000000000000000000000000000000000000000000000000000000000000000000000000000000000000000000000000000000000000000000000000000000000000000000000000000",
            "coinbase" : "0x68795c4aa09d6f4ed3e5deddf8c2ad3049a601da",
            "difficulty" : "0x020000",
            "extraData" : "0x42",
            "gasLimit" : "0x3d37ef",
            "gasUsed" : "0x00",
            "hash" : "0x9b25016c45ce0e295a463681361471a29c00aea06cba17cbc22894ce6d2c1def",
            "mixHash" : "0x56e81f171bcc55a6ff8345e692c0f86e5b48e01b996cadc001622fb5e363b421",
            "nonce" : "0x0102030405060708",
            "number" : "0x00",
            "parentHash" : "0x0000000000000000000000000000000000000000000000000000000000000000",
            "receiptTrie" : "0x56e81f171bcc55a6ff8345e692c0f86e5b48e01b996cadc001622fb5e363b421",
            "stateRoot" : "0xa4db92ceb60668ffcb9642d55fa7fe34cc341b53029d31394d82f0c61462bd99",
            "timestamp" : "0x03b6",
            "transactionsTrie" : "0x56e81f171bcc55a6ff8345e692c0f86e5b48e01b996cadc001622fb5e363b421",
            "uncleHash" : "0x1dcc4de8dec75d7aab85b567b6ccd41ad312451b948a7413f0a142fd40d49347"
        },
        "genesisRLP" : "0xf901faf901f5a00000000000000000000000000000000000000000000000000000000000000000a01dcc4de8dec75d7aab85b567b6ccd41ad312451b948a7413f0a142fd40d493479468795c4aa09d6f4ed3e5deddf8c2ad3049a601daa0a4db92ceb60668ffcb9642d55fa7fe34cc341b53029d31394d82f0c61462bd99a056e81f171bcc55a6ff8345e692c0f86e5b48e01b996cadc001622fb5e363b421a056e81f171bcc55a6ff8345e692c0f86e5b48e01b996cadc001622fb5e363b421b90100000000000000000000000000000000000000000000000000000000000000000000000000000000000000000000000000000000000000000000000000000000000000000000000000000000000000000000000000000000000000000000000000000000000000000000000000000000000000000000000000000000000000000000000000000000000000000000000000000000000000000000000000000000000000000000000000000000000000000000000000000000000000000000000000000000000000000000000000000000000000000000000000000000000000000000000000000000000000000000000000000000000000000000000000000000008302000080833d37ef808203b642a056e81f171bcc55a6ff8345e692c0f86e5b48e01b996cadc001622fb5e363b421880102030405060708c0c0",
        "lastblockhash" : "0xcfe851df47c29ccc11d6c09627a0b443d1d7379ecd4b7daac5b74e3192f6d2ec",
        "network" : "Byzantium",
        "postState" : {
            "0x68795c4aa09d6f4ed3e5deddf8c2ad3049a601da" : {
                "balance" : "0x29a2241af62fa5c1",
                "code" : "",
                "nonce" : "0x00",
                "storage" : {
                }
            },
            "0xa94f5374fce5edbc8e2a8697c15331677e6ebf0b" : {
                "balance" : "0x0de0b6b3a7605a3f",
                "code" : "",
                "nonce" : "0x02",
                "storage" : {
                }
            },
            "0xb94f5374fce5edbc8e2a8697c15331677e6ebf0b" : {
                "balance" : "0x00",
                "code" : "0x60003560005260203560205260403560405260603560605260803560805260a03560a05260c03560c052604061012c60806000600060066207a120f2600055604061019060606080600060076207a120f260015561012c51600a5561014c51600b55610190516014556101b051601555601454600a5414600255601554600b5414600355",
                "nonce" : "0x00",
                "storage" : {
                    "0x00" : "0x01",
                    "0x01" : "0x01",
                    "0x02" : "0x01",
                    "0x03" : "0x01",
                    "0x0a" : "0x255e468453d7636cc1563e43f7521755f95e6c56043c7321b4ae04e772945fb0",
                    "0x0b" : "0x0225c5f1623620fd84bfbab2d861a9d1e570f7727c540f403085998ebaf407c4",
                    "0x14" : "0x255e468453d7636cc1563e43f7521755f95e6c56043c7321b4ae04e772945fb0",
                    "0x15" : "0x0225c5f1623620fd84bfbab2d861a9d1e570f7727c540f403085998ebaf407c4"
                }
            }
        },
        "pre" : {
            "0xa94f5374fce5edbc8e2a8697c15331677e6ebf0b" : {
                "balance" : "0x0de0b6b3a7640000",
                "code" : "",
                "nonce" : "0x01",
                "storage" : {
                }
            },
            "0xb94f5374fce5edbc8e2a8697c15331677e6ebf0b" : {
                "balance" : "0x00",
                "code" : "0x60003560005260203560205260403560405260603560605260803560805260a03560a05260c03560c052604061012c60806000600060066207a120f2600055604061019060606080600060076207a120f260015561012c51600a5561014c51600b55610190516014556101b051601555601454600a5414600255601554600b5414600355",
                "nonce" : "0x00",
                "storage" : {
                }
            }
        }
    },
    "pointMulAdd_d5g0v0_EIP150" : {
        "_info" : {
            "comment" : "",
            "filledwith" : "cpp-1.3.0+commit.4e101574.Linux.g++",
            "lllcversion" : "Version: 0.4.18-develop.2017.10.11+commit.81f9f86c.Linux.g++",
            "source" : "src/BlockchainTestsFiller/GeneralStateTests/stZeroKnowledge/pointMulAdd_d5g0v0Filler.json",
            "sourceHash" : "7f7db4e054b1d180555ead74176f9cdb8d3af7a25e590c09daf62bd0bdf4ec17"
        },
        "blocks" : [
            {
                "blockHeader" : {
                    "bloom" : "0x00000000000000000000000000000000000000000000000000000000000000000000000000000000000000000000000000000000000000000000000000000000000000000000000000000000000000000000000000000000000000000000000000000000000000000000000000000000000000000000000000000000000000000000000000000000000000000000000000000000000000000000000000000000000000000000000000000000000000000000000000000000000000000000000000000000000000000000000000000000000000000000000000000000000000000000000000000000000000000000000000000000000000000000000000000000",
                    "coinbase" : "0x68795c4aa09d6f4ed3e5deddf8c2ad3049a601da",
                    "difficulty" : "0x020000",
                    "extraData" : "",
                    "gasLimit" : "0x3d37ef",
                    "gasUsed" : "0x021d2d",
                    "hash" : "0x8eb2fdd192293813192081d33051940998a6d84288a0084a4845e4651b41af79",
                    "mixHash" : "0xda172f62811fb8d52b00a13015071eec97c8565fe417cd0f0b681b8ecd04c995",
                    "nonce" : "0xebdb98198081ad16",
                    "number" : "0x01",
                    "parentHash" : "0x9b25016c45ce0e295a463681361471a29c00aea06cba17cbc22894ce6d2c1def",
                    "receiptTrie" : "0x4bf69e736722f3fbeacfb9d650b64edde9edfb74f78d2ab5d9b93ec6d08d6fd1",
                    "stateRoot" : "0x7b690cb2f3540517440d1e281d3e8633009749a5ffb5ff1e97b30119dff9ac36",
                    "timestamp" : "0x03e8",
                    "transactionsTrie" : "0xc42767bb4fa33c4fb0e183cc33751c4c63e434e28bd042b134678f8cc3398cce",
                    "uncleHash" : "0x1dcc4de8dec75d7aab85b567b6ccd41ad312451b948a7413f0a142fd40d49347"
                },
                "rlp" : "0xf90343f901f8a09b25016c45ce0e295a463681361471a29c00aea06cba17cbc22894ce6d2c1defa01dcc4de8dec75d7aab85b567b6ccd41ad312451b948a7413f0a142fd40d493479468795c4aa09d6f4ed3e5deddf8c2ad3049a601daa07b690cb2f3540517440d1e281d3e8633009749a5ffb5ff1e97b30119dff9ac36a0c42767bb4fa33c4fb0e183cc33751c4c63e434e28bd042b134678f8cc3398ccea04bf69e736722f3fbeacfb9d650b64edde9edfb74f78d2ab5d9b93ec6d08d6fd1b90100000000000000000000000000000000000000000000000000000000000000000000000000000000000000000000000000000000000000000000000000000000000000000000000000000000000000000000000000000000000000000000000000000000000000000000000000000000000000000000000000000000000000000000000000000000000000000000000000000000000000000000000000000000000000000000000000000000000000000000000000000000000000000000000000000000000000000000000000000000000000000000000000000000000000000000000000000000000000000000000000000000000000000000000000000000008302000001833d37ef83021d2d8203e880a0da172f62811fb8d52b00a13015071eec97c8565fe417cd0f0b681b8ecd04c99588ebdb98198081ad16f90144f901410101831e848094b94f5374fce5edbc8e2a8697c15331677e6ebf0b80b8e01f4d1d80177b1377743d1901f70d7389be7f7a35a35bfd234a8aaee615b88c492eddcb59a6517e86bfbe35c9691479fffc6e0580000ca2706c983ff7afcb1db81f4d1d80177b1377743d1901f70d7389be7f7a35a35bfd234a8aaee615b88c492eddcb59a6517e86bfbe35c9691479fffc6e0580000ca2706c983ff7afcb1db81f4d1d80177b1377743d1901f70d7389be7f7a35a35bfd234a8aaee615b88c49018683193ae021a2f8920fed186cde5d9b1365116865281ccf884c1f28b1df8f30644e72e131a029b85045b68181585d2833e84879b9709143e1f593efffffff1ca04f1aae49a40dd2ae10f014a5ec240a261fbf78fa914b44cc4d2679af49653622a0376b188f796f35e58e086f0b833e77b82bc188176169fad4ac3cb3fd06e84dc2c0",
                "transactions" : [
                    {
                        "data" : "0x1f4d1d80177b1377743d1901f70d7389be7f7a35a35bfd234a8aaee615b88c492eddcb59a6517e86bfbe35c9691479fffc6e0580000ca2706c983ff7afcb1db81f4d1d80177b1377743d1901f70d7389be7f7a35a35bfd234a8aaee615b88c492eddcb59a6517e86bfbe35c9691479fffc6e0580000ca2706c983ff7afcb1db81f4d1d80177b1377743d1901f70d7389be7f7a35a35bfd234a8aaee615b88c49018683193ae021a2f8920fed186cde5d9b1365116865281ccf884c1f28b1df8f30644e72e131a029b85045b68181585d2833e84879b9709143e1f593efffffff",
                        "gasLimit" : "0x1e8480",
                        "gasPrice" : "0x01",
                        "nonce" : "0x01",
                        "r" : "0x4f1aae49a40dd2ae10f014a5ec240a261fbf78fa914b44cc4d2679af49653622",
                        "s" : "0x376b188f796f35e58e086f0b833e77b82bc188176169fad4ac3cb3fd06e84dc2",
                        "to" : "0xb94f5374fce5edbc8e2a8697c15331677e6ebf0b",
                        "v" : "0x1c",
                        "value" : "0x00"
                    }
                ],
                "uncleHeaders" : [
                ]
            }
        ],
        "genesisBlockHeader" : {
            "bloom" : "0x00000000000000000000000000000000000000000000000000000000000000000000000000000000000000000000000000000000000000000000000000000000000000000000000000000000000000000000000000000000000000000000000000000000000000000000000000000000000000000000000000000000000000000000000000000000000000000000000000000000000000000000000000000000000000000000000000000000000000000000000000000000000000000000000000000000000000000000000000000000000000000000000000000000000000000000000000000000000000000000000000000000000000000000000000000000",
            "coinbase" : "0x68795c4aa09d6f4ed3e5deddf8c2ad3049a601da",
            "difficulty" : "0x020000",
            "extraData" : "0x42",
            "gasLimit" : "0x3d37ef",
            "gasUsed" : "0x00",
            "hash" : "0x9b25016c45ce0e295a463681361471a29c00aea06cba17cbc22894ce6d2c1def",
            "mixHash" : "0x56e81f171bcc55a6ff8345e692c0f86e5b48e01b996cadc001622fb5e363b421",
            "nonce" : "0x0102030405060708",
            "number" : "0x00",
            "parentHash" : "0x0000000000000000000000000000000000000000000000000000000000000000",
            "receiptTrie" : "0x56e81f171bcc55a6ff8345e692c0f86e5b48e01b996cadc001622fb5e363b421",
            "stateRoot" : "0xa4db92ceb60668ffcb9642d55fa7fe34cc341b53029d31394d82f0c61462bd99",
            "timestamp" : "0x03b6",
            "transactionsTrie" : "0x56e81f171bcc55a6ff8345e692c0f86e5b48e01b996cadc001622fb5e363b421",
            "uncleHash" : "0x1dcc4de8dec75d7aab85b567b6ccd41ad312451b948a7413f0a142fd40d49347"
        },
        "genesisRLP" : "0xf901faf901f5a00000000000000000000000000000000000000000000000000000000000000000a01dcc4de8dec75d7aab85b567b6ccd41ad312451b948a7413f0a142fd40d493479468795c4aa09d6f4ed3e5deddf8c2ad3049a601daa0a4db92ceb60668ffcb9642d55fa7fe34cc341b53029d31394d82f0c61462bd99a056e81f171bcc55a6ff8345e692c0f86e5b48e01b996cadc001622fb5e363b421a056e81f171bcc55a6ff8345e692c0f86e5b48e01b996cadc001622fb5e363b421b90100000000000000000000000000000000000000000000000000000000000000000000000000000000000000000000000000000000000000000000000000000000000000000000000000000000000000000000000000000000000000000000000000000000000000000000000000000000000000000000000000000000000000000000000000000000000000000000000000000000000000000000000000000000000000000000000000000000000000000000000000000000000000000000000000000000000000000000000000000000000000000000000000000000000000000000000000000000000000000000000000000000000000000000000000000000008302000080833d37ef808203b642a056e81f171bcc55a6ff8345e692c0f86e5b48e01b996cadc001622fb5e363b421880102030405060708c0c0",
        "lastblockhash" : "0x8eb2fdd192293813192081d33051940998a6d84288a0084a4845e4651b41af79",
        "network" : "EIP150",
        "postState" : {
            "0x68795c4aa09d6f4ed3e5deddf8c2ad3049a601da" : {
                "balance" : "0x4563918244f61d2d",
                "code" : "",
                "nonce" : "0x00",
                "storage" : {
                }
            },
            "0xa94f5374fce5edbc8e2a8697c15331677e6ebf0b" : {
                "balance" : "0x0de0b6b3a761e2d3",
                "code" : "",
                "nonce" : "0x02",
                "storage" : {
                }
            },
            "0xb94f5374fce5edbc8e2a8697c15331677e6ebf0b" : {
                "balance" : "0x00",
                "code" : "0x60003560005260203560205260403560405260603560605260803560805260a03560a05260c03560c052604061012c60806000600060066207a120f2600055604061019060606080600060076207a120f260015561012c51600a5561014c51600b55610190516014556101b051601555601454600a5414600255601554600b5414600355",
                "nonce" : "0x00",
                "storage" : {
                    "0x00" : "0x01",
                    "0x01" : "0x01",
                    "0x02" : "0x01",
                    "0x03" : "0x01"
                }
            }
        },
        "pre" : {
            "0xa94f5374fce5edbc8e2a8697c15331677e6ebf0b" : {
                "balance" : "0x0de0b6b3a7640000",
                "code" : "",
                "nonce" : "0x01",
                "storage" : {
                }
            },
            "0xb94f5374fce5edbc8e2a8697c15331677e6ebf0b" : {
                "balance" : "0x00",
                "code" : "0x60003560005260203560205260403560405260603560605260803560805260a03560a05260c03560c052604061012c60806000600060066207a120f2600055604061019060606080600060076207a120f260015561012c51600a5561014c51600b55610190516014556101b051601555601454600a5414600255601554600b5414600355",
                "nonce" : "0x00",
                "storage" : {
                }
            }
        }
    },
    "pointMulAdd_d5g0v0_EIP158" : {
        "_info" : {
            "comment" : "",
            "filledwith" : "cpp-1.3.0+commit.4e101574.Linux.g++",
            "lllcversion" : "Version: 0.4.18-develop.2017.10.11+commit.81f9f86c.Linux.g++",
            "source" : "src/BlockchainTestsFiller/GeneralStateTests/stZeroKnowledge/pointMulAdd_d5g0v0Filler.json",
            "sourceHash" : "7f7db4e054b1d180555ead74176f9cdb8d3af7a25e590c09daf62bd0bdf4ec17"
        },
        "blocks" : [
            {
                "blockHeader" : {
                    "bloom" : "0x00000000000000000000000000000000000000000000000000000000000000000000000000000000000000000000000000000000000000000000000000000000000000000000000000000000000000000000000000000000000000000000000000000000000000000000000000000000000000000000000000000000000000000000000000000000000000000000000000000000000000000000000000000000000000000000000000000000000000000000000000000000000000000000000000000000000000000000000000000000000000000000000000000000000000000000000000000000000000000000000000000000000000000000000000000000",
                    "coinbase" : "0x68795c4aa09d6f4ed3e5deddf8c2ad3049a601da",
                    "difficulty" : "0x020000",
                    "extraData" : "",
                    "gasLimit" : "0x3d37ef",
                    "gasUsed" : "0x021d2d",
                    "hash" : "0xa1f39eadb56869ad50353eb36de23df8efd2a5660c82ec5fbaae5ac442890b11",
                    "mixHash" : "0x65f24ed6eb3c4969b3ada99b0f5c55d6682be6c6bd056a964394351861abe8cd",
                    "nonce" : "0xc8c41b6ca3e7e1c2",
                    "number" : "0x01",
                    "parentHash" : "0x9b25016c45ce0e295a463681361471a29c00aea06cba17cbc22894ce6d2c1def",
                    "receiptTrie" : "0x4bf69e736722f3fbeacfb9d650b64edde9edfb74f78d2ab5d9b93ec6d08d6fd1",
                    "stateRoot" : "0x7b690cb2f3540517440d1e281d3e8633009749a5ffb5ff1e97b30119dff9ac36",
                    "timestamp" : "0x03e8",
                    "transactionsTrie" : "0xc42767bb4fa33c4fb0e183cc33751c4c63e434e28bd042b134678f8cc3398cce",
                    "uncleHash" : "0x1dcc4de8dec75d7aab85b567b6ccd41ad312451b948a7413f0a142fd40d49347"
                },
                "rlp" : "0xf90343f901f8a09b25016c45ce0e295a463681361471a29c00aea06cba17cbc22894ce6d2c1defa01dcc4de8dec75d7aab85b567b6ccd41ad312451b948a7413f0a142fd40d493479468795c4aa09d6f4ed3e5deddf8c2ad3049a601daa07b690cb2f3540517440d1e281d3e8633009749a5ffb5ff1e97b30119dff9ac36a0c42767bb4fa33c4fb0e183cc33751c4c63e434e28bd042b134678f8cc3398ccea04bf69e736722f3fbeacfb9d650b64edde9edfb74f78d2ab5d9b93ec6d08d6fd1b90100000000000000000000000000000000000000000000000000000000000000000000000000000000000000000000000000000000000000000000000000000000000000000000000000000000000000000000000000000000000000000000000000000000000000000000000000000000000000000000000000000000000000000000000000000000000000000000000000000000000000000000000000000000000000000000000000000000000000000000000000000000000000000000000000000000000000000000000000000000000000000000000000000000000000000000000000000000000000000000000000000000000000000000000000000000008302000001833d37ef83021d2d8203e880a065f24ed6eb3c4969b3ada99b0f5c55d6682be6c6bd056a964394351861abe8cd88c8c41b6ca3e7e1c2f90144f901410101831e848094b94f5374fce5edbc8e2a8697c15331677e6ebf0b80b8e01f4d1d80177b1377743d1901f70d7389be7f7a35a35bfd234a8aaee615b88c492eddcb59a6517e86bfbe35c9691479fffc6e0580000ca2706c983ff7afcb1db81f4d1d80177b1377743d1901f70d7389be7f7a35a35bfd234a8aaee615b88c492eddcb59a6517e86bfbe35c9691479fffc6e0580000ca2706c983ff7afcb1db81f4d1d80177b1377743d1901f70d7389be7f7a35a35bfd234a8aaee615b88c49018683193ae021a2f8920fed186cde5d9b1365116865281ccf884c1f28b1df8f30644e72e131a029b85045b68181585d2833e84879b9709143e1f593efffffff1ca04f1aae49a40dd2ae10f014a5ec240a261fbf78fa914b44cc4d2679af49653622a0376b188f796f35e58e086f0b833e77b82bc188176169fad4ac3cb3fd06e84dc2c0",
                "transactions" : [
                    {
                        "data" : "0x1f4d1d80177b1377743d1901f70d7389be7f7a35a35bfd234a8aaee615b88c492eddcb59a6517e86bfbe35c9691479fffc6e0580000ca2706c983ff7afcb1db81f4d1d80177b1377743d1901f70d7389be7f7a35a35bfd234a8aaee615b88c492eddcb59a6517e86bfbe35c9691479fffc6e0580000ca2706c983ff7afcb1db81f4d1d80177b1377743d1901f70d7389be7f7a35a35bfd234a8aaee615b88c49018683193ae021a2f8920fed186cde5d9b1365116865281ccf884c1f28b1df8f30644e72e131a029b85045b68181585d2833e84879b9709143e1f593efffffff",
                        "gasLimit" : "0x1e8480",
                        "gasPrice" : "0x01",
                        "nonce" : "0x01",
                        "r" : "0x4f1aae49a40dd2ae10f014a5ec240a261fbf78fa914b44cc4d2679af49653622",
                        "s" : "0x376b188f796f35e58e086f0b833e77b82bc188176169fad4ac3cb3fd06e84dc2",
                        "to" : "0xb94f5374fce5edbc8e2a8697c15331677e6ebf0b",
                        "v" : "0x1c",
                        "value" : "0x00"
                    }
                ],
                "uncleHeaders" : [
                ]
            }
        ],
        "genesisBlockHeader" : {
            "bloom" : "0x00000000000000000000000000000000000000000000000000000000000000000000000000000000000000000000000000000000000000000000000000000000000000000000000000000000000000000000000000000000000000000000000000000000000000000000000000000000000000000000000000000000000000000000000000000000000000000000000000000000000000000000000000000000000000000000000000000000000000000000000000000000000000000000000000000000000000000000000000000000000000000000000000000000000000000000000000000000000000000000000000000000000000000000000000000000",
            "coinbase" : "0x68795c4aa09d6f4ed3e5deddf8c2ad3049a601da",
            "difficulty" : "0x020000",
            "extraData" : "0x42",
            "gasLimit" : "0x3d37ef",
            "gasUsed" : "0x00",
            "hash" : "0x9b25016c45ce0e295a463681361471a29c00aea06cba17cbc22894ce6d2c1def",
            "mixHash" : "0x56e81f171bcc55a6ff8345e692c0f86e5b48e01b996cadc001622fb5e363b421",
            "nonce" : "0x0102030405060708",
            "number" : "0x00",
            "parentHash" : "0x0000000000000000000000000000000000000000000000000000000000000000",
            "receiptTrie" : "0x56e81f171bcc55a6ff8345e692c0f86e5b48e01b996cadc001622fb5e363b421",
            "stateRoot" : "0xa4db92ceb60668ffcb9642d55fa7fe34cc341b53029d31394d82f0c61462bd99",
            "timestamp" : "0x03b6",
            "transactionsTrie" : "0x56e81f171bcc55a6ff8345e692c0f86e5b48e01b996cadc001622fb5e363b421",
            "uncleHash" : "0x1dcc4de8dec75d7aab85b567b6ccd41ad312451b948a7413f0a142fd40d49347"
        },
        "genesisRLP" : "0xf901faf901f5a00000000000000000000000000000000000000000000000000000000000000000a01dcc4de8dec75d7aab85b567b6ccd41ad312451b948a7413f0a142fd40d493479468795c4aa09d6f4ed3e5deddf8c2ad3049a601daa0a4db92ceb60668ffcb9642d55fa7fe34cc341b53029d31394d82f0c61462bd99a056e81f171bcc55a6ff8345e692c0f86e5b48e01b996cadc001622fb5e363b421a056e81f171bcc55a6ff8345e692c0f86e5b48e01b996cadc001622fb5e363b421b90100000000000000000000000000000000000000000000000000000000000000000000000000000000000000000000000000000000000000000000000000000000000000000000000000000000000000000000000000000000000000000000000000000000000000000000000000000000000000000000000000000000000000000000000000000000000000000000000000000000000000000000000000000000000000000000000000000000000000000000000000000000000000000000000000000000000000000000000000000000000000000000000000000000000000000000000000000000000000000000000000000000000000000000000000000000008302000080833d37ef808203b642a056e81f171bcc55a6ff8345e692c0f86e5b48e01b996cadc001622fb5e363b421880102030405060708c0c0",
        "lastblockhash" : "0xa1f39eadb56869ad50353eb36de23df8efd2a5660c82ec5fbaae5ac442890b11",
        "network" : "EIP158",
        "postState" : {
            "0x68795c4aa09d6f4ed3e5deddf8c2ad3049a601da" : {
                "balance" : "0x4563918244f61d2d",
                "code" : "",
                "nonce" : "0x00",
                "storage" : {
                }
            },
            "0xa94f5374fce5edbc8e2a8697c15331677e6ebf0b" : {
                "balance" : "0x0de0b6b3a761e2d3",
                "code" : "",
                "nonce" : "0x02",
                "storage" : {
                }
            },
            "0xb94f5374fce5edbc8e2a8697c15331677e6ebf0b" : {
                "balance" : "0x00",
                "code" : "0x60003560005260203560205260403560405260603560605260803560805260a03560a05260c03560c052604061012c60806000600060066207a120f2600055604061019060606080600060076207a120f260015561012c51600a5561014c51600b55610190516014556101b051601555601454600a5414600255601554600b5414600355",
                "nonce" : "0x00",
                "storage" : {
                    "0x00" : "0x01",
                    "0x01" : "0x01",
                    "0x02" : "0x01",
                    "0x03" : "0x01"
                }
            }
        },
        "pre" : {
            "0xa94f5374fce5edbc8e2a8697c15331677e6ebf0b" : {
                "balance" : "0x0de0b6b3a7640000",
                "code" : "",
                "nonce" : "0x01",
                "storage" : {
                }
            },
            "0xb94f5374fce5edbc8e2a8697c15331677e6ebf0b" : {
                "balance" : "0x00",
                "code" : "0x60003560005260203560205260403560405260603560605260803560805260a03560a05260c03560c052604061012c60806000600060066207a120f2600055604061019060606080600060076207a120f260015561012c51600a5561014c51600b55610190516014556101b051601555601454600a5414600255601554600b5414600355",
                "nonce" : "0x00",
                "storage" : {
                }
            }
        }
    },
    "pointMulAdd_d5g0v0_Frontier" : {
        "_info" : {
            "comment" : "",
            "filledwith" : "cpp-1.3.0+commit.4e101574.Linux.g++",
            "lllcversion" : "Version: 0.4.18-develop.2017.10.11+commit.81f9f86c.Linux.g++",
            "source" : "src/BlockchainTestsFiller/GeneralStateTests/stZeroKnowledge/pointMulAdd_d5g0v0Filler.json",
            "sourceHash" : "7f7db4e054b1d180555ead74176f9cdb8d3af7a25e590c09daf62bd0bdf4ec17"
        },
        "blocks" : [
            {
                "blockHeader" : {
                    "bloom" : "0x00000000000000000000000000000000000000000000000000000000000000000000000000000000000000000000000000000000000000000000000000000000000000000000000000000000000000000000000000000000000000000000000000000000000000000000000000000000000000000000000000000000000000000000000000000000000000000000000000000000000000000000000000000000000000000000000000000000000000000000000000000000000000000000000000000000000000000000000000000000000000000000000000000000000000000000000000000000000000000000000000000000000000000000000000000000",
                    "coinbase" : "0x68795c4aa09d6f4ed3e5deddf8c2ad3049a601da",
                    "difficulty" : "0x020000",
                    "extraData" : "",
                    "gasLimit" : "0x3d37ef",
                    "gasUsed" : "0x0215ad",
                    "hash" : "0xb3079784dd3ead176dc599c08b9f703f92ae0e15a1215ab558f118f8307f9cd4",
                    "mixHash" : "0x0e5657bd860fa2b1ca6f2f2027c0f3757f8e165e59e3a82d9cae08fe580e3a1a",
                    "nonce" : "0xa52f393b3a6d4491",
                    "number" : "0x01",
                    "parentHash" : "0x9b25016c45ce0e295a463681361471a29c00aea06cba17cbc22894ce6d2c1def",
                    "receiptTrie" : "0x85b39933201689ab9d51250e84c7a668004eaf9ef32aa86edb68257abc666883",
                    "stateRoot" : "0xcd4f4f0c102168d024f0defd4d8139b85f5f586a50227ab7fcf547900584b9c2",
                    "timestamp" : "0x03e8",
                    "transactionsTrie" : "0xc42767bb4fa33c4fb0e183cc33751c4c63e434e28bd042b134678f8cc3398cce",
                    "uncleHash" : "0x1dcc4de8dec75d7aab85b567b6ccd41ad312451b948a7413f0a142fd40d49347"
                },
                "rlp" : "0xf90343f901f8a09b25016c45ce0e295a463681361471a29c00aea06cba17cbc22894ce6d2c1defa01dcc4de8dec75d7aab85b567b6ccd41ad312451b948a7413f0a142fd40d493479468795c4aa09d6f4ed3e5deddf8c2ad3049a601daa0cd4f4f0c102168d024f0defd4d8139b85f5f586a50227ab7fcf547900584b9c2a0c42767bb4fa33c4fb0e183cc33751c4c63e434e28bd042b134678f8cc3398ccea085b39933201689ab9d51250e84c7a668004eaf9ef32aa86edb68257abc666883b90100000000000000000000000000000000000000000000000000000000000000000000000000000000000000000000000000000000000000000000000000000000000000000000000000000000000000000000000000000000000000000000000000000000000000000000000000000000000000000000000000000000000000000000000000000000000000000000000000000000000000000000000000000000000000000000000000000000000000000000000000000000000000000000000000000000000000000000000000000000000000000000000000000000000000000000000000000000000000000000000000000000000000000000000000000000008302000001833d37ef830215ad8203e880a00e5657bd860fa2b1ca6f2f2027c0f3757f8e165e59e3a82d9cae08fe580e3a1a88a52f393b3a6d4491f90144f901410101831e848094b94f5374fce5edbc8e2a8697c15331677e6ebf0b80b8e01f4d1d80177b1377743d1901f70d7389be7f7a35a35bfd234a8aaee615b88c492eddcb59a6517e86bfbe35c9691479fffc6e0580000ca2706c983ff7afcb1db81f4d1d80177b1377743d1901f70d7389be7f7a35a35bfd234a8aaee615b88c492eddcb59a6517e86bfbe35c9691479fffc6e0580000ca2706c983ff7afcb1db81f4d1d80177b1377743d1901f70d7389be7f7a35a35bfd234a8aaee615b88c49018683193ae021a2f8920fed186cde5d9b1365116865281ccf884c1f28b1df8f30644e72e131a029b85045b68181585d2833e84879b9709143e1f593efffffff1ca04f1aae49a40dd2ae10f014a5ec240a261fbf78fa914b44cc4d2679af49653622a0376b188f796f35e58e086f0b833e77b82bc188176169fad4ac3cb3fd06e84dc2c0",
                "transactions" : [
                    {
                        "data" : "0x1f4d1d80177b1377743d1901f70d7389be7f7a35a35bfd234a8aaee615b88c492eddcb59a6517e86bfbe35c9691479fffc6e0580000ca2706c983ff7afcb1db81f4d1d80177b1377743d1901f70d7389be7f7a35a35bfd234a8aaee615b88c492eddcb59a6517e86bfbe35c9691479fffc6e0580000ca2706c983ff7afcb1db81f4d1d80177b1377743d1901f70d7389be7f7a35a35bfd234a8aaee615b88c49018683193ae021a2f8920fed186cde5d9b1365116865281ccf884c1f28b1df8f30644e72e131a029b85045b68181585d2833e84879b9709143e1f593efffffff",
                        "gasLimit" : "0x1e8480",
                        "gasPrice" : "0x01",
                        "nonce" : "0x01",
                        "r" : "0x4f1aae49a40dd2ae10f014a5ec240a261fbf78fa914b44cc4d2679af49653622",
                        "s" : "0x376b188f796f35e58e086f0b833e77b82bc188176169fad4ac3cb3fd06e84dc2",
                        "to" : "0xb94f5374fce5edbc8e2a8697c15331677e6ebf0b",
                        "v" : "0x1c",
                        "value" : "0x00"
                    }
                ],
                "uncleHeaders" : [
                ]
            }
        ],
        "genesisBlockHeader" : {
            "bloom" : "0x00000000000000000000000000000000000000000000000000000000000000000000000000000000000000000000000000000000000000000000000000000000000000000000000000000000000000000000000000000000000000000000000000000000000000000000000000000000000000000000000000000000000000000000000000000000000000000000000000000000000000000000000000000000000000000000000000000000000000000000000000000000000000000000000000000000000000000000000000000000000000000000000000000000000000000000000000000000000000000000000000000000000000000000000000000000",
            "coinbase" : "0x68795c4aa09d6f4ed3e5deddf8c2ad3049a601da",
            "difficulty" : "0x020000",
            "extraData" : "0x42",
            "gasLimit" : "0x3d37ef",
            "gasUsed" : "0x00",
            "hash" : "0x9b25016c45ce0e295a463681361471a29c00aea06cba17cbc22894ce6d2c1def",
            "mixHash" : "0x56e81f171bcc55a6ff8345e692c0f86e5b48e01b996cadc001622fb5e363b421",
            "nonce" : "0x0102030405060708",
            "number" : "0x00",
            "parentHash" : "0x0000000000000000000000000000000000000000000000000000000000000000",
            "receiptTrie" : "0x56e81f171bcc55a6ff8345e692c0f86e5b48e01b996cadc001622fb5e363b421",
            "stateRoot" : "0xa4db92ceb60668ffcb9642d55fa7fe34cc341b53029d31394d82f0c61462bd99",
            "timestamp" : "0x03b6",
            "transactionsTrie" : "0x56e81f171bcc55a6ff8345e692c0f86e5b48e01b996cadc001622fb5e363b421",
            "uncleHash" : "0x1dcc4de8dec75d7aab85b567b6ccd41ad312451b948a7413f0a142fd40d49347"
        },
        "genesisRLP" : "0xf901faf901f5a00000000000000000000000000000000000000000000000000000000000000000a01dcc4de8dec75d7aab85b567b6ccd41ad312451b948a7413f0a142fd40d493479468795c4aa09d6f4ed3e5deddf8c2ad3049a601daa0a4db92ceb60668ffcb9642d55fa7fe34cc341b53029d31394d82f0c61462bd99a056e81f171bcc55a6ff8345e692c0f86e5b48e01b996cadc001622fb5e363b421a056e81f171bcc55a6ff8345e692c0f86e5b48e01b996cadc001622fb5e363b421b90100000000000000000000000000000000000000000000000000000000000000000000000000000000000000000000000000000000000000000000000000000000000000000000000000000000000000000000000000000000000000000000000000000000000000000000000000000000000000000000000000000000000000000000000000000000000000000000000000000000000000000000000000000000000000000000000000000000000000000000000000000000000000000000000000000000000000000000000000000000000000000000000000000000000000000000000000000000000000000000000000000000000000000000000000000000008302000080833d37ef808203b642a056e81f171bcc55a6ff8345e692c0f86e5b48e01b996cadc001622fb5e363b421880102030405060708c0c0",
        "lastblockhash" : "0xb3079784dd3ead176dc599c08b9f703f92ae0e15a1215ab558f118f8307f9cd4",
        "network" : "Frontier",
        "postState" : {
            "0x68795c4aa09d6f4ed3e5deddf8c2ad3049a601da" : {
                "balance" : "0x4563918244f615ad",
                "code" : "",
                "nonce" : "0x00",
                "storage" : {
                }
            },
            "0xa94f5374fce5edbc8e2a8697c15331677e6ebf0b" : {
                "balance" : "0x0de0b6b3a761ea53",
                "code" : "",
                "nonce" : "0x02",
                "storage" : {
                }
            },
            "0xb94f5374fce5edbc8e2a8697c15331677e6ebf0b" : {
                "balance" : "0x00",
                "code" : "0x60003560005260203560205260403560405260603560605260803560805260a03560a05260c03560c052604061012c60806000600060066207a120f2600055604061019060606080600060076207a120f260015561012c51600a5561014c51600b55610190516014556101b051601555601454600a5414600255601554600b5414600355",
                "nonce" : "0x00",
                "storage" : {
                    "0x00" : "0x01",
                    "0x01" : "0x01",
                    "0x02" : "0x01",
                    "0x03" : "0x01"
                }
            }
        },
        "pre" : {
            "0xa94f5374fce5edbc8e2a8697c15331677e6ebf0b" : {
                "balance" : "0x0de0b6b3a7640000",
                "code" : "",
                "nonce" : "0x01",
                "storage" : {
                }
            },
            "0xb94f5374fce5edbc8e2a8697c15331677e6ebf0b" : {
                "balance" : "0x00",
                "code" : "0x60003560005260203560205260403560405260603560605260803560805260a03560a05260c03560c052604061012c60806000600060066207a120f2600055604061019060606080600060076207a120f260015561012c51600a5561014c51600b55610190516014556101b051601555601454600a5414600255601554600b5414600355",
                "nonce" : "0x00",
                "storage" : {
                }
            }
        }
    },
    "pointMulAdd_d5g0v0_Homestead" : {
        "_info" : {
            "comment" : "",
            "filledwith" : "cpp-1.3.0+commit.4e101574.Linux.g++",
            "lllcversion" : "Version: 0.4.18-develop.2017.10.11+commit.81f9f86c.Linux.g++",
            "source" : "src/BlockchainTestsFiller/GeneralStateTests/stZeroKnowledge/pointMulAdd_d5g0v0Filler.json",
            "sourceHash" : "7f7db4e054b1d180555ead74176f9cdb8d3af7a25e590c09daf62bd0bdf4ec17"
        },
        "blocks" : [
            {
                "blockHeader" : {
                    "bloom" : "0x00000000000000000000000000000000000000000000000000000000000000000000000000000000000000000000000000000000000000000000000000000000000000000000000000000000000000000000000000000000000000000000000000000000000000000000000000000000000000000000000000000000000000000000000000000000000000000000000000000000000000000000000000000000000000000000000000000000000000000000000000000000000000000000000000000000000000000000000000000000000000000000000000000000000000000000000000000000000000000000000000000000000000000000000000000000",
                    "coinbase" : "0x68795c4aa09d6f4ed3e5deddf8c2ad3049a601da",
                    "difficulty" : "0x020000",
                    "extraData" : "",
                    "gasLimit" : "0x3d37ef",
                    "gasUsed" : "0x0215ad",
                    "hash" : "0x775309903aecb855a45923b0623d65bbc45d8b8bfbcef9d6539338636a0df9e9",
                    "mixHash" : "0x222549d523aff3fc7934dc3d1c351f85485164de37fab1c8795f90ecbb3af34b",
                    "nonce" : "0x4290ee6ce8dd6ea7",
                    "number" : "0x01",
                    "parentHash" : "0x9b25016c45ce0e295a463681361471a29c00aea06cba17cbc22894ce6d2c1def",
                    "receiptTrie" : "0x85b39933201689ab9d51250e84c7a668004eaf9ef32aa86edb68257abc666883",
                    "stateRoot" : "0xcd4f4f0c102168d024f0defd4d8139b85f5f586a50227ab7fcf547900584b9c2",
                    "timestamp" : "0x03e8",
                    "transactionsTrie" : "0xc42767bb4fa33c4fb0e183cc33751c4c63e434e28bd042b134678f8cc3398cce",
                    "uncleHash" : "0x1dcc4de8dec75d7aab85b567b6ccd41ad312451b948a7413f0a142fd40d49347"
                },
                "rlp" : "0xf90343f901f8a09b25016c45ce0e295a463681361471a29c00aea06cba17cbc22894ce6d2c1defa01dcc4de8dec75d7aab85b567b6ccd41ad312451b948a7413f0a142fd40d493479468795c4aa09d6f4ed3e5deddf8c2ad3049a601daa0cd4f4f0c102168d024f0defd4d8139b85f5f586a50227ab7fcf547900584b9c2a0c42767bb4fa33c4fb0e183cc33751c4c63e434e28bd042b134678f8cc3398ccea085b39933201689ab9d51250e84c7a668004eaf9ef32aa86edb68257abc666883b90100000000000000000000000000000000000000000000000000000000000000000000000000000000000000000000000000000000000000000000000000000000000000000000000000000000000000000000000000000000000000000000000000000000000000000000000000000000000000000000000000000000000000000000000000000000000000000000000000000000000000000000000000000000000000000000000000000000000000000000000000000000000000000000000000000000000000000000000000000000000000000000000000000000000000000000000000000000000000000000000000000000000000000000000000000000008302000001833d37ef830215ad8203e880a0222549d523aff3fc7934dc3d1c351f85485164de37fab1c8795f90ecbb3af34b884290ee6ce8dd6ea7f90144f901410101831e848094b94f5374fce5edbc8e2a8697c15331677e6ebf0b80b8e01f4d1d80177b1377743d1901f70d7389be7f7a35a35bfd234a8aaee615b88c492eddcb59a6517e86bfbe35c9691479fffc6e0580000ca2706c983ff7afcb1db81f4d1d80177b1377743d1901f70d7389be7f7a35a35bfd234a8aaee615b88c492eddcb59a6517e86bfbe35c9691479fffc6e0580000ca2706c983ff7afcb1db81f4d1d80177b1377743d1901f70d7389be7f7a35a35bfd234a8aaee615b88c49018683193ae021a2f8920fed186cde5d9b1365116865281ccf884c1f28b1df8f30644e72e131a029b85045b68181585d2833e84879b9709143e1f593efffffff1ca04f1aae49a40dd2ae10f014a5ec240a261fbf78fa914b44cc4d2679af49653622a0376b188f796f35e58e086f0b833e77b82bc188176169fad4ac3cb3fd06e84dc2c0",
                "transactions" : [
                    {
                        "data" : "0x1f4d1d80177b1377743d1901f70d7389be7f7a35a35bfd234a8aaee615b88c492eddcb59a6517e86bfbe35c9691479fffc6e0580000ca2706c983ff7afcb1db81f4d1d80177b1377743d1901f70d7389be7f7a35a35bfd234a8aaee615b88c492eddcb59a6517e86bfbe35c9691479fffc6e0580000ca2706c983ff7afcb1db81f4d1d80177b1377743d1901f70d7389be7f7a35a35bfd234a8aaee615b88c49018683193ae021a2f8920fed186cde5d9b1365116865281ccf884c1f28b1df8f30644e72e131a029b85045b68181585d2833e84879b9709143e1f593efffffff",
                        "gasLimit" : "0x1e8480",
                        "gasPrice" : "0x01",
                        "nonce" : "0x01",
                        "r" : "0x4f1aae49a40dd2ae10f014a5ec240a261fbf78fa914b44cc4d2679af49653622",
                        "s" : "0x376b188f796f35e58e086f0b833e77b82bc188176169fad4ac3cb3fd06e84dc2",
                        "to" : "0xb94f5374fce5edbc8e2a8697c15331677e6ebf0b",
                        "v" : "0x1c",
                        "value" : "0x00"
                    }
                ],
                "uncleHeaders" : [
                ]
            }
        ],
        "genesisBlockHeader" : {
            "bloom" : "0x00000000000000000000000000000000000000000000000000000000000000000000000000000000000000000000000000000000000000000000000000000000000000000000000000000000000000000000000000000000000000000000000000000000000000000000000000000000000000000000000000000000000000000000000000000000000000000000000000000000000000000000000000000000000000000000000000000000000000000000000000000000000000000000000000000000000000000000000000000000000000000000000000000000000000000000000000000000000000000000000000000000000000000000000000000000",
            "coinbase" : "0x68795c4aa09d6f4ed3e5deddf8c2ad3049a601da",
            "difficulty" : "0x020000",
            "extraData" : "0x42",
            "gasLimit" : "0x3d37ef",
            "gasUsed" : "0x00",
            "hash" : "0x9b25016c45ce0e295a463681361471a29c00aea06cba17cbc22894ce6d2c1def",
            "mixHash" : "0x56e81f171bcc55a6ff8345e692c0f86e5b48e01b996cadc001622fb5e363b421",
            "nonce" : "0x0102030405060708",
            "number" : "0x00",
            "parentHash" : "0x0000000000000000000000000000000000000000000000000000000000000000",
            "receiptTrie" : "0x56e81f171bcc55a6ff8345e692c0f86e5b48e01b996cadc001622fb5e363b421",
            "stateRoot" : "0xa4db92ceb60668ffcb9642d55fa7fe34cc341b53029d31394d82f0c61462bd99",
            "timestamp" : "0x03b6",
            "transactionsTrie" : "0x56e81f171bcc55a6ff8345e692c0f86e5b48e01b996cadc001622fb5e363b421",
            "uncleHash" : "0x1dcc4de8dec75d7aab85b567b6ccd41ad312451b948a7413f0a142fd40d49347"
        },
        "genesisRLP" : "0xf901faf901f5a00000000000000000000000000000000000000000000000000000000000000000a01dcc4de8dec75d7aab85b567b6ccd41ad312451b948a7413f0a142fd40d493479468795c4aa09d6f4ed3e5deddf8c2ad3049a601daa0a4db92ceb60668ffcb9642d55fa7fe34cc341b53029d31394d82f0c61462bd99a056e81f171bcc55a6ff8345e692c0f86e5b48e01b996cadc001622fb5e363b421a056e81f171bcc55a6ff8345e692c0f86e5b48e01b996cadc001622fb5e363b421b90100000000000000000000000000000000000000000000000000000000000000000000000000000000000000000000000000000000000000000000000000000000000000000000000000000000000000000000000000000000000000000000000000000000000000000000000000000000000000000000000000000000000000000000000000000000000000000000000000000000000000000000000000000000000000000000000000000000000000000000000000000000000000000000000000000000000000000000000000000000000000000000000000000000000000000000000000000000000000000000000000000000000000000000000000000000008302000080833d37ef808203b642a056e81f171bcc55a6ff8345e692c0f86e5b48e01b996cadc001622fb5e363b421880102030405060708c0c0",
        "lastblockhash" : "0x775309903aecb855a45923b0623d65bbc45d8b8bfbcef9d6539338636a0df9e9",
        "network" : "Homestead",
        "postState" : {
            "0x68795c4aa09d6f4ed3e5deddf8c2ad3049a601da" : {
                "balance" : "0x4563918244f615ad",
                "code" : "",
                "nonce" : "0x00",
                "storage" : {
                }
            },
            "0xa94f5374fce5edbc8e2a8697c15331677e6ebf0b" : {
                "balance" : "0x0de0b6b3a761ea53",
                "code" : "",
                "nonce" : "0x02",
                "storage" : {
                }
            },
            "0xb94f5374fce5edbc8e2a8697c15331677e6ebf0b" : {
                "balance" : "0x00",
                "code" : "0x60003560005260203560205260403560405260603560605260803560805260a03560a05260c03560c052604061012c60806000600060066207a120f2600055604061019060606080600060076207a120f260015561012c51600a5561014c51600b55610190516014556101b051601555601454600a5414600255601554600b5414600355",
                "nonce" : "0x00",
                "storage" : {
                    "0x00" : "0x01",
                    "0x01" : "0x01",
                    "0x02" : "0x01",
                    "0x03" : "0x01"
                }
            }
        },
        "pre" : {
            "0xa94f5374fce5edbc8e2a8697c15331677e6ebf0b" : {
                "balance" : "0x0de0b6b3a7640000",
                "code" : "",
                "nonce" : "0x01",
                "storage" : {
                }
            },
            "0xb94f5374fce5edbc8e2a8697c15331677e6ebf0b" : {
                "balance" : "0x00",
                "code" : "0x60003560005260203560205260403560405260603560605260803560805260a03560a05260c03560c052604061012c60806000600060066207a120f2600055604061019060606080600060076207a120f260015561012c51600a5561014c51600b55610190516014556101b051601555601454600a5414600255601554600b5414600355",
                "nonce" : "0x00",
                "storage" : {
                }
            }
        }
    }
}