{
    "pointAddTrunc_d6g2v0_Byzantium" : {
        "_info" : {
            "comment" : "",
            "filledwith" : "cpp-1.3.0+commit.4e101574.Linux.g++",
            "lllcversion" : "Version: 0.4.18-develop.2017.10.11+commit.81f9f86c.Linux.g++",
            "source" : "src/BlockchainTestsFiller/GeneralStateTests/stZeroKnowledge/pointAddTrunc_d6g2v0Filler.json",
            "sourceHash" : "fc8c4ed0e7b303fbe15ccfab06694f1373f545df9bbde288172b272065141bdc"
        },
        "blocks" : [
            {
                "blockHeader" : {
                    "bloom" : "0x00000000000000000000000000000000000000000000000000000000000000000000000000000000000000000000000000000000000000000000000000000000000000000000000000000000000000000000000000000000000000000000000000000000000000000000000000000000000000000000000000000000000000000000000000000000000000000000000000000000000000000000000000000000000000000000000000000000000000000000000000000000000000000000000000000000000000000000000000000000000000000000000000000000000000000000000000000000000000000000000000000000000000000000000000000000",
                    "coinbase" : "0x68795c4aa09d6f4ed3e5deddf8c2ad3049a601da",
                    "difficulty" : "0x020000",
                    "extraData" : "",
                    "gasLimit" : "0x3d37ef",
                    "gasUsed" : "0x01adb0",
                    "hash" : "0xf31bc5a12c5f77ecadbc82656bf086cf6b28fab8e697d9fa1bcf072c313f89fd",
                    "mixHash" : "0x644b61883a7bcb01fbefe164e72677c3032bdc8aee95b9f1cb59a6db02a6afd3",
                    "nonce" : "0x061a66cf8e8bb170",
                    "number" : "0x01",
                    "parentHash" : "0xea87c5d24ed82ffb68c0521efc71e3a600ee9c9dfd47066a830a4374be4b22c3",
                    "receiptTrie" : "0xfd21849a7839c2c75da6c5f2828e953f017b356f3e968aba1a97ac6f6c5b31f3",
                    "stateRoot" : "0x1a6ef9d35949c97bc236ab452fc3a31482942b28eb14a09aa19e432b07c8bfb7",
                    "timestamp" : "0x03e8",
                    "transactionsTrie" : "0x554ffc5b1186ec41d87bad3f18dd42e89a30c7d300879a4010f20e713d40b281",
                    "uncleHash" : "0x1dcc4de8dec75d7aab85b567b6ccd41ad312451b948a7413f0a142fd40d49347"
                },
                "rlp" : "0xf902e1f901f8a0ea87c5d24ed82ffb68c0521efc71e3a600ee9c9dfd47066a830a4374be4b22c3a01dcc4de8dec75d7aab85b567b6ccd41ad312451b948a7413f0a142fd40d493479468795c4aa09d6f4ed3e5deddf8c2ad3049a601daa01a6ef9d35949c97bc236ab452fc3a31482942b28eb14a09aa19e432b07c8bfb7a0554ffc5b1186ec41d87bad3f18dd42e89a30c7d300879a4010f20e713d40b281a0fd21849a7839c2c75da6c5f2828e953f017b356f3e968aba1a97ac6f6c5b31f3b90100000000000000000000000000000000000000000000000000000000000000000000000000000000000000000000000000000000000000000000000000000000000000000000000000000000000000000000000000000000000000000000000000000000000000000000000000000000000000000000000000000000000000000000000000000000000000000000000000000000000000000000000000000000000000000000000000000000000000000000000000000000000000000000000000000000000000000000000000000000000000000000000000000000000000000000000000000000000000000000000000000000000000000000000000000000008302000001833d37ef8301adb08203e880a0644b61883a7bcb01fbefe164e72677c3032bdc8aee95b9f1cb59a6db02a6afd388061a66cf8e8bb170f8e3f8e101018301adb094b94f5374fce5edbc8e2a8697c15331677e6ebf0b80b8800f25919bcb43d5a57391564615c9e70a992b10eafa4db109709649cf48c50dd216da2f5cb6be7a0aa72c440c53c9bbdfec6c36c7d515536431b3a865468acbba0f25919bcb43d5a57391564615c9e70a992b10eafa4db109709649cf48c50dd216da2f5cb6be7a0aa72c440c53c9bbdfec6c36c7d515536431b3a865468acbba1ba0f76f7013b5f3f04f038e5aa814810db6c26ee6c4815b9d3b7c00877906c1c96ba00b174af0fc69b3e7e6cdbc35d07159728d5425932bef867f98a9e042d16e651dc0",
                "transactions" : [
                    {
                        "data" : "0x0f25919bcb43d5a57391564615c9e70a992b10eafa4db109709649cf48c50dd216da2f5cb6be7a0aa72c440c53c9bbdfec6c36c7d515536431b3a865468acbba0f25919bcb43d5a57391564615c9e70a992b10eafa4db109709649cf48c50dd216da2f5cb6be7a0aa72c440c53c9bbdfec6c36c7d515536431b3a865468acbba",
                        "gasLimit" : "0x01adb0",
                        "gasPrice" : "0x01",
                        "nonce" : "0x01",
                        "r" : "0xf76f7013b5f3f04f038e5aa814810db6c26ee6c4815b9d3b7c00877906c1c96b",
                        "s" : "0x0b174af0fc69b3e7e6cdbc35d07159728d5425932bef867f98a9e042d16e651d",
                        "to" : "0xb94f5374fce5edbc8e2a8697c15331677e6ebf0b",
                        "v" : "0x1b",
                        "value" : "0x00"
                    }
                ],
                "uncleHeaders" : [
                ]
            }
        ],
        "genesisBlockHeader" : {
            "bloom" : "0x00000000000000000000000000000000000000000000000000000000000000000000000000000000000000000000000000000000000000000000000000000000000000000000000000000000000000000000000000000000000000000000000000000000000000000000000000000000000000000000000000000000000000000000000000000000000000000000000000000000000000000000000000000000000000000000000000000000000000000000000000000000000000000000000000000000000000000000000000000000000000000000000000000000000000000000000000000000000000000000000000000000000000000000000000000000",
            "coinbase" : "0x68795c4aa09d6f4ed3e5deddf8c2ad3049a601da",
            "difficulty" : "0x020000",
            "extraData" : "0x42",
            "gasLimit" : "0x3d37ef",
            "gasUsed" : "0x00",
            "hash" : "0xea87c5d24ed82ffb68c0521efc71e3a600ee9c9dfd47066a830a4374be4b22c3",
            "mixHash" : "0x56e81f171bcc55a6ff8345e692c0f86e5b48e01b996cadc001622fb5e363b421",
            "nonce" : "0x0102030405060708",
            "number" : "0x00",
            "parentHash" : "0x0000000000000000000000000000000000000000000000000000000000000000",
            "receiptTrie" : "0x56e81f171bcc55a6ff8345e692c0f86e5b48e01b996cadc001622fb5e363b421",
            "stateRoot" : "0xb95c9f862133abb4f20233da59c5516c6044c64bdc703a511eefc55a13164877",
            "timestamp" : "0x03b6",
            "transactionsTrie" : "0x56e81f171bcc55a6ff8345e692c0f86e5b48e01b996cadc001622fb5e363b421",
            "uncleHash" : "0x1dcc4de8dec75d7aab85b567b6ccd41ad312451b948a7413f0a142fd40d49347"
        },
        "genesisRLP" : "0xf901faf901f5a00000000000000000000000000000000000000000000000000000000000000000a01dcc4de8dec75d7aab85b567b6ccd41ad312451b948a7413f0a142fd40d493479468795c4aa09d6f4ed3e5deddf8c2ad3049a601daa0b95c9f862133abb4f20233da59c5516c6044c64bdc703a511eefc55a13164877a056e81f171bcc55a6ff8345e692c0f86e5b48e01b996cadc001622fb5e363b421a056e81f171bcc55a6ff8345e692c0f86e5b48e01b996cadc001622fb5e363b421b90100000000000000000000000000000000000000000000000000000000000000000000000000000000000000000000000000000000000000000000000000000000000000000000000000000000000000000000000000000000000000000000000000000000000000000000000000000000000000000000000000000000000000000000000000000000000000000000000000000000000000000000000000000000000000000000000000000000000000000000000000000000000000000000000000000000000000000000000000000000000000000000000000000000000000000000000000000000000000000000000000000000000000000000000000000000008302000080833d37ef808203b642a056e81f171bcc55a6ff8345e692c0f86e5b48e01b996cadc001622fb5e363b421880102030405060708c0c0",
        "lastblockhash" : "0xf31bc5a12c5f77ecadbc82656bf086cf6b28fab8e697d9fa1bcf072c313f89fd",
        "network" : "Byzantium",
        "postState" : {
            "0x68795c4aa09d6f4ed3e5deddf8c2ad3049a601da" : {
                "balance" : "0x29a2241af62dadb0",
                "code" : "",
                "nonce" : "0x00",
                "storage" : {
                }
            },
            "0xa94f5374fce5edbc8e2a8697c15331677e6ebf0b" : {
                "balance" : "0x0de0b6b3a7625250",
                "code" : "",
                "nonce" : "0x02",
                "storage" : {
                }
            },
            "0xb94f5374fce5edbc8e2a8697c15331677e6ebf0b" : {
                "balance" : "0x00",
                "code" : "0x600035600052602035602052604035604052606035606052604060c860406000600060066207a120f260005560c85160015560e851600255",
                "nonce" : "0x00",
                "storage" : {
                }
            }
        },
        "pre" : {
            "0xa94f5374fce5edbc8e2a8697c15331677e6ebf0b" : {
                "balance" : "0x0de0b6b3a7640000",
                "code" : "",
                "nonce" : "0x01",
                "storage" : {
                }
            },
            "0xb94f5374fce5edbc8e2a8697c15331677e6ebf0b" : {
                "balance" : "0x00",
                "code" : "0x600035600052602035602052604035604052606035606052604060c860406000600060066207a120f260005560c85160015560e851600255",
                "nonce" : "0x00",
                "storage" : {
                }
            }
        }
    },
    "pointAddTrunc_d6g2v0_EIP150" : {
        "_info" : {
            "comment" : "",
            "filledwith" : "cpp-1.3.0+commit.4e101574.Linux.g++",
            "lllcversion" : "Version: 0.4.18-develop.2017.10.11+commit.81f9f86c.Linux.g++",
            "source" : "src/BlockchainTestsFiller/GeneralStateTests/stZeroKnowledge/pointAddTrunc_d6g2v0Filler.json",
            "sourceHash" : "fc8c4ed0e7b303fbe15ccfab06694f1373f545df9bbde288172b272065141bdc"
        },
        "blocks" : [
            {
                "blockHeader" : {
                    "bloom" : "0x00000000000000000000000000000000000000000000000000000000000000000000000000000000000000000000000000000000000000000000000000000000000000000000000000000000000000000000000000000000000000000000000000000000000000000000000000000000000000000000000000000000000000000000000000000000000000000000000000000000000000000000000000000000000000000000000000000000000000000000000000000000000000000000000000000000000000000000000000000000000000000000000000000000000000000000000000000000000000000000000000000000000000000000000000000000",
                    "coinbase" : "0x68795c4aa09d6f4ed3e5deddf8c2ad3049a601da",
                    "difficulty" : "0x020000",
                    "extraData" : "",
                    "gasLimit" : "0x3d37ef",
                    "gasUsed" : "0xec69",
                    "hash" : "0xa15442f541e3d7677cc90a7f3b4a2bb28abebe621156603ae2d67e411a9a77a8",
                    "mixHash" : "0x385daf386a4f3c4231eed2ecd735bf0cf251e8f7e0a8aaf4e95463505c3bd566",
                    "nonce" : "0xb61fcad1b29ff393",
                    "number" : "0x01",
                    "parentHash" : "0xea87c5d24ed82ffb68c0521efc71e3a600ee9c9dfd47066a830a4374be4b22c3",
                    "receiptTrie" : "0x0bebe29a4fec43d2d7d924451f6b52d96713fd242efebf148155b69eadd6c6a5",
                    "stateRoot" : "0x8c6282872927f3ccc1c14421ac7d3739e1401cae8995a7f0717e83487fb396a0",
                    "timestamp" : "0x03e8",
                    "transactionsTrie" : "0x554ffc5b1186ec41d87bad3f18dd42e89a30c7d300879a4010f20e713d40b281",
                    "uncleHash" : "0x1dcc4de8dec75d7aab85b567b6ccd41ad312451b948a7413f0a142fd40d49347"
                },
                "rlp" : "0xf902e0f901f7a0ea87c5d24ed82ffb68c0521efc71e3a600ee9c9dfd47066a830a4374be4b22c3a01dcc4de8dec75d7aab85b567b6ccd41ad312451b948a7413f0a142fd40d493479468795c4aa09d6f4ed3e5deddf8c2ad3049a601daa08c6282872927f3ccc1c14421ac7d3739e1401cae8995a7f0717e83487fb396a0a0554ffc5b1186ec41d87bad3f18dd42e89a30c7d300879a4010f20e713d40b281a00bebe29a4fec43d2d7d924451f6b52d96713fd242efebf148155b69eadd6c6a5b90100000000000000000000000000000000000000000000000000000000000000000000000000000000000000000000000000000000000000000000000000000000000000000000000000000000000000000000000000000000000000000000000000000000000000000000000000000000000000000000000000000000000000000000000000000000000000000000000000000000000000000000000000000000000000000000000000000000000000000000000000000000000000000000000000000000000000000000000000000000000000000000000000000000000000000000000000000000000000000000000000000000000000000000000000000000008302000001833d37ef82ec698203e880a0385daf386a4f3c4231eed2ecd735bf0cf251e8f7e0a8aaf4e95463505c3bd56688b61fcad1b29ff393f8e3f8e101018301adb094b94f5374fce5edbc8e2a8697c15331677e6ebf0b80b8800f25919bcb43d5a57391564615c9e70a992b10eafa4db109709649cf48c50dd216da2f5cb6be7a0aa72c440c53c9bbdfec6c36c7d515536431b3a865468acbba0f25919bcb43d5a57391564615c9e70a992b10eafa4db109709649cf48c50dd216da2f5cb6be7a0aa72c440c53c9bbdfec6c36c7d515536431b3a865468acbba1ba0f76f7013b5f3f04f038e5aa814810db6c26ee6c4815b9d3b7c00877906c1c96ba00b174af0fc69b3e7e6cdbc35d07159728d5425932bef867f98a9e042d16e651dc0",
                "transactions" : [
                    {
                        "data" : "0x0f25919bcb43d5a57391564615c9e70a992b10eafa4db109709649cf48c50dd216da2f5cb6be7a0aa72c440c53c9bbdfec6c36c7d515536431b3a865468acbba0f25919bcb43d5a57391564615c9e70a992b10eafa4db109709649cf48c50dd216da2f5cb6be7a0aa72c440c53c9bbdfec6c36c7d515536431b3a865468acbba",
                        "gasLimit" : "0x01adb0",
                        "gasPrice" : "0x01",
                        "nonce" : "0x01",
                        "r" : "0xf76f7013b5f3f04f038e5aa814810db6c26ee6c4815b9d3b7c00877906c1c96b",
                        "s" : "0x0b174af0fc69b3e7e6cdbc35d07159728d5425932bef867f98a9e042d16e651d",
                        "to" : "0xb94f5374fce5edbc8e2a8697c15331677e6ebf0b",
                        "v" : "0x1b",
                        "value" : "0x00"
                    }
                ],
                "uncleHeaders" : [
                ]
            }
        ],
        "genesisBlockHeader" : {
            "bloom" : "0x00000000000000000000000000000000000000000000000000000000000000000000000000000000000000000000000000000000000000000000000000000000000000000000000000000000000000000000000000000000000000000000000000000000000000000000000000000000000000000000000000000000000000000000000000000000000000000000000000000000000000000000000000000000000000000000000000000000000000000000000000000000000000000000000000000000000000000000000000000000000000000000000000000000000000000000000000000000000000000000000000000000000000000000000000000000",
            "coinbase" : "0x68795c4aa09d6f4ed3e5deddf8c2ad3049a601da",
            "difficulty" : "0x020000",
            "extraData" : "0x42",
            "gasLimit" : "0x3d37ef",
            "gasUsed" : "0x00",
            "hash" : "0xea87c5d24ed82ffb68c0521efc71e3a600ee9c9dfd47066a830a4374be4b22c3",
            "mixHash" : "0x56e81f171bcc55a6ff8345e692c0f86e5b48e01b996cadc001622fb5e363b421",
            "nonce" : "0x0102030405060708",
            "number" : "0x00",
            "parentHash" : "0x0000000000000000000000000000000000000000000000000000000000000000",
            "receiptTrie" : "0x56e81f171bcc55a6ff8345e692c0f86e5b48e01b996cadc001622fb5e363b421",
            "stateRoot" : "0xb95c9f862133abb4f20233da59c5516c6044c64bdc703a511eefc55a13164877",
            "timestamp" : "0x03b6",
            "transactionsTrie" : "0x56e81f171bcc55a6ff8345e692c0f86e5b48e01b996cadc001622fb5e363b421",
            "uncleHash" : "0x1dcc4de8dec75d7aab85b567b6ccd41ad312451b948a7413f0a142fd40d49347"
        },
        "genesisRLP" : "0xf901faf901f5a00000000000000000000000000000000000000000000000000000000000000000a01dcc4de8dec75d7aab85b567b6ccd41ad312451b948a7413f0a142fd40d493479468795c4aa09d6f4ed3e5deddf8c2ad3049a601daa0b95c9f862133abb4f20233da59c5516c6044c64bdc703a511eefc55a13164877a056e81f171bcc55a6ff8345e692c0f86e5b48e01b996cadc001622fb5e363b421a056e81f171bcc55a6ff8345e692c0f86e5b48e01b996cadc001622fb5e363b421b90100000000000000000000000000000000000000000000000000000000000000000000000000000000000000000000000000000000000000000000000000000000000000000000000000000000000000000000000000000000000000000000000000000000000000000000000000000000000000000000000000000000000000000000000000000000000000000000000000000000000000000000000000000000000000000000000000000000000000000000000000000000000000000000000000000000000000000000000000000000000000000000000000000000000000000000000000000000000000000000000000000000000000000000000000000000008302000080833d37ef808203b642a056e81f171bcc55a6ff8345e692c0f86e5b48e01b996cadc001622fb5e363b421880102030405060708c0c0",
        "lastblockhash" : "0xa15442f541e3d7677cc90a7f3b4a2bb28abebe621156603ae2d67e411a9a77a8",
        "network" : "EIP150",
        "postState" : {
            "0x68795c4aa09d6f4ed3e5deddf8c2ad3049a601da" : {
                "balance" : "0x4563918244f4ec69",
                "code" : "",
                "nonce" : "0x00",
                "storage" : {
                }
            },
            "0xa94f5374fce5edbc8e2a8697c15331677e6ebf0b" : {
                "balance" : "0x0de0b6b3a7631397",
                "code" : "",
                "nonce" : "0x02",
                "storage" : {
                }
            },
            "0xb94f5374fce5edbc8e2a8697c15331677e6ebf0b" : {
                "balance" : "0x00",
                "code" : "0x600035600052602035602052604035604052606035606052604060c860406000600060066207a120f260005560c85160015560e851600255",
                "nonce" : "0x00",
                "storage" : {
                    "0x00" : "0x01"
                }
            }
        },
        "pre" : {
            "0xa94f5374fce5edbc8e2a8697c15331677e6ebf0b" : {
                "balance" : "0x0de0b6b3a7640000",
                "code" : "",
                "nonce" : "0x01",
                "storage" : {
                }
            },
            "0xb94f5374fce5edbc8e2a8697c15331677e6ebf0b" : {
                "balance" : "0x00",
                "code" : "0x600035600052602035602052604035604052606035606052604060c860406000600060066207a120f260005560c85160015560e851600255",
                "nonce" : "0x00",
                "storage" : {
                }
            }
        }
    },
    "pointAddTrunc_d6g2v0_EIP158" : {
        "_info" : {
            "comment" : "",
            "filledwith" : "cpp-1.3.0+commit.4e101574.Linux.g++",
            "lllcversion" : "Version: 0.4.18-develop.2017.10.11+commit.81f9f86c.Linux.g++",
            "source" : "src/BlockchainTestsFiller/GeneralStateTests/stZeroKnowledge/pointAddTrunc_d6g2v0Filler.json",
            "sourceHash" : "fc8c4ed0e7b303fbe15ccfab06694f1373f545df9bbde288172b272065141bdc"
        },
        "blocks" : [
            {
                "blockHeader" : {
                    "bloom" : "0x00000000000000000000000000000000000000000000000000000000000000000000000000000000000000000000000000000000000000000000000000000000000000000000000000000000000000000000000000000000000000000000000000000000000000000000000000000000000000000000000000000000000000000000000000000000000000000000000000000000000000000000000000000000000000000000000000000000000000000000000000000000000000000000000000000000000000000000000000000000000000000000000000000000000000000000000000000000000000000000000000000000000000000000000000000000",
                    "coinbase" : "0x68795c4aa09d6f4ed3e5deddf8c2ad3049a601da",
                    "difficulty" : "0x020000",
                    "extraData" : "",
                    "gasLimit" : "0x3d37ef",
                    "gasUsed" : "0xec69",
                    "hash" : "0x66943d426c04b9591d9a76f632875b9fcc75643b7abdf18699ad5616bda1421c",
                    "mixHash" : "0x6de413c129c6c031ced19c1665832d5cb8880b404bd3cf31d35248b8832edc84",
                    "nonce" : "0xef42be5e0031f513",
                    "number" : "0x01",
                    "parentHash" : "0xea87c5d24ed82ffb68c0521efc71e3a600ee9c9dfd47066a830a4374be4b22c3",
                    "receiptTrie" : "0x0bebe29a4fec43d2d7d924451f6b52d96713fd242efebf148155b69eadd6c6a5",
                    "stateRoot" : "0x8c6282872927f3ccc1c14421ac7d3739e1401cae8995a7f0717e83487fb396a0",
                    "timestamp" : "0x03e8",
                    "transactionsTrie" : "0x554ffc5b1186ec41d87bad3f18dd42e89a30c7d300879a4010f20e713d40b281",
                    "uncleHash" : "0x1dcc4de8dec75d7aab85b567b6ccd41ad312451b948a7413f0a142fd40d49347"
                },
                "rlp" : "0xf902e0f901f7a0ea87c5d24ed82ffb68c0521efc71e3a600ee9c9dfd47066a830a4374be4b22c3a01dcc4de8dec75d7aab85b567b6ccd41ad312451b948a7413f0a142fd40d493479468795c4aa09d6f4ed3e5deddf8c2ad3049a601daa08c6282872927f3ccc1c14421ac7d3739e1401cae8995a7f0717e83487fb396a0a0554ffc5b1186ec41d87bad3f18dd42e89a30c7d300879a4010f20e713d40b281a00bebe29a4fec43d2d7d924451f6b52d96713fd242efebf148155b69eadd6c6a5b90100000000000000000000000000000000000000000000000000000000000000000000000000000000000000000000000000000000000000000000000000000000000000000000000000000000000000000000000000000000000000000000000000000000000000000000000000000000000000000000000000000000000000000000000000000000000000000000000000000000000000000000000000000000000000000000000000000000000000000000000000000000000000000000000000000000000000000000000000000000000000000000000000000000000000000000000000000000000000000000000000000000000000000000000000000000008302000001833d37ef82ec698203e880a06de413c129c6c031ced19c1665832d5cb8880b404bd3cf31d35248b8832edc8488ef42be5e0031f513f8e3f8e101018301adb094b94f5374fce5edbc8e2a8697c15331677e6ebf0b80b8800f25919bcb43d5a57391564615c9e70a992b10eafa4db109709649cf48c50dd216da2f5cb6be7a0aa72c440c53c9bbdfec6c36c7d515536431b3a865468acbba0f25919bcb43d5a57391564615c9e70a992b10eafa4db109709649cf48c50dd216da2f5cb6be7a0aa72c440c53c9bbdfec6c36c7d515536431b3a865468acbba1ba0f76f7013b5f3f04f038e5aa814810db6c26ee6c4815b9d3b7c00877906c1c96ba00b174af0fc69b3e7e6cdbc35d07159728d5425932bef867f98a9e042d16e651dc0",
                "transactions" : [
                    {
                        "data" : "0x0f25919bcb43d5a57391564615c9e70a992b10eafa4db109709649cf48c50dd216da2f5cb6be7a0aa72c440c53c9bbdfec6c36c7d515536431b3a865468acbba0f25919bcb43d5a57391564615c9e70a992b10eafa4db109709649cf48c50dd216da2f5cb6be7a0aa72c440c53c9bbdfec6c36c7d515536431b3a865468acbba",
                        "gasLimit" : "0x01adb0",
                        "gasPrice" : "0x01",
                        "nonce" : "0x01",
                        "r" : "0xf76f7013b5f3f04f038e5aa814810db6c26ee6c4815b9d3b7c00877906c1c96b",
                        "s" : "0x0b174af0fc69b3e7e6cdbc35d07159728d5425932bef867f98a9e042d16e651d",
                        "to" : "0xb94f5374fce5edbc8e2a8697c15331677e6ebf0b",
                        "v" : "0x1b",
                        "value" : "0x00"
                    }
                ],
                "uncleHeaders" : [
                ]
            }
        ],
        "genesisBlockHeader" : {
            "bloom" : "0x00000000000000000000000000000000000000000000000000000000000000000000000000000000000000000000000000000000000000000000000000000000000000000000000000000000000000000000000000000000000000000000000000000000000000000000000000000000000000000000000000000000000000000000000000000000000000000000000000000000000000000000000000000000000000000000000000000000000000000000000000000000000000000000000000000000000000000000000000000000000000000000000000000000000000000000000000000000000000000000000000000000000000000000000000000000",
            "coinbase" : "0x68795c4aa09d6f4ed3e5deddf8c2ad3049a601da",
            "difficulty" : "0x020000",
            "extraData" : "0x42",
            "gasLimit" : "0x3d37ef",
            "gasUsed" : "0x00",
            "hash" : "0xea87c5d24ed82ffb68c0521efc71e3a600ee9c9dfd47066a830a4374be4b22c3",
            "mixHash" : "0x56e81f171bcc55a6ff8345e692c0f86e5b48e01b996cadc001622fb5e363b421",
            "nonce" : "0x0102030405060708",
            "number" : "0x00",
            "parentHash" : "0x0000000000000000000000000000000000000000000000000000000000000000",
            "receiptTrie" : "0x56e81f171bcc55a6ff8345e692c0f86e5b48e01b996cadc001622fb5e363b421",
            "stateRoot" : "0xb95c9f862133abb4f20233da59c5516c6044c64bdc703a511eefc55a13164877",
            "timestamp" : "0x03b6",
            "transactionsTrie" : "0x56e81f171bcc55a6ff8345e692c0f86e5b48e01b996cadc001622fb5e363b421",
            "uncleHash" : "0x1dcc4de8dec75d7aab85b567b6ccd41ad312451b948a7413f0a142fd40d49347"
        },
        "genesisRLP" : "0xf901faf901f5a00000000000000000000000000000000000000000000000000000000000000000a01dcc4de8dec75d7aab85b567b6ccd41ad312451b948a7413f0a142fd40d493479468795c4aa09d6f4ed3e5deddf8c2ad3049a601daa0b95c9f862133abb4f20233da59c5516c6044c64bdc703a511eefc55a13164877a056e81f171bcc55a6ff8345e692c0f86e5b48e01b996cadc001622fb5e363b421a056e81f171bcc55a6ff8345e692c0f86e5b48e01b996cadc001622fb5e363b421b90100000000000000000000000000000000000000000000000000000000000000000000000000000000000000000000000000000000000000000000000000000000000000000000000000000000000000000000000000000000000000000000000000000000000000000000000000000000000000000000000000000000000000000000000000000000000000000000000000000000000000000000000000000000000000000000000000000000000000000000000000000000000000000000000000000000000000000000000000000000000000000000000000000000000000000000000000000000000000000000000000000000000000000000000000000000008302000080833d37ef808203b642a056e81f171bcc55a6ff8345e692c0f86e5b48e01b996cadc001622fb5e363b421880102030405060708c0c0",
        "lastblockhash" : "0x66943d426c04b9591d9a76f632875b9fcc75643b7abdf18699ad5616bda1421c",
        "network" : "EIP158",
        "postState" : {
            "0x68795c4aa09d6f4ed3e5deddf8c2ad3049a601da" : {
                "balance" : "0x4563918244f4ec69",
                "code" : "",
                "nonce" : "0x00",
                "storage" : {
                }
            },
            "0xa94f5374fce5edbc8e2a8697c15331677e6ebf0b" : {
                "balance" : "0x0de0b6b3a7631397",
                "code" : "",
                "nonce" : "0x02",
                "storage" : {
                }
            },
            "0xb94f5374fce5edbc8e2a8697c15331677e6ebf0b" : {
                "balance" : "0x00",
                "code" : "0x600035600052602035602052604035604052606035606052604060c860406000600060066207a120f260005560c85160015560e851600255",
                "nonce" : "0x00",
                "storage" : {
                    "0x00" : "0x01"
                }
            }
        },
        "pre" : {
            "0xa94f5374fce5edbc8e2a8697c15331677e6ebf0b" : {
                "balance" : "0x0de0b6b3a7640000",
                "code" : "",
                "nonce" : "0x01",
                "storage" : {
                }
            },
            "0xb94f5374fce5edbc8e2a8697c15331677e6ebf0b" : {
                "balance" : "0x00",
                "code" : "0x600035600052602035602052604035604052606035606052604060c860406000600060066207a120f260005560c85160015560e851600255",
                "nonce" : "0x00",
                "storage" : {
                }
            }
        }
    },
    "pointAddTrunc_d6g2v0_Frontier" : {
        "_info" : {
            "comment" : "",
            "filledwith" : "cpp-1.3.0+commit.4e101574.Linux.g++",
            "lllcversion" : "Version: 0.4.18-develop.2017.10.11+commit.81f9f86c.Linux.g++",
            "source" : "src/BlockchainTestsFiller/GeneralStateTests/stZeroKnowledge/pointAddTrunc_d6g2v0Filler.json",
            "sourceHash" : "fc8c4ed0e7b303fbe15ccfab06694f1373f545df9bbde288172b272065141bdc"
        },
        "blocks" : [
            {
                "blockHeader" : {
                    "bloom" : "0x00000000000000000000000000000000000000000000000000000000000000000000000000000000000000000000000000000000000000000000000000000000000000000000000000000000000000000000000000000000000000000000000000000000000000000000000000000000000000000000000000000000000000000000000000000000000000000000000000000000000000000000000000000000000000000000000000000000000000000000000000000000000000000000000000000000000000000000000000000000000000000000000000000000000000000000000000000000000000000000000000000000000000000000000000000000",
                    "coinbase" : "0x68795c4aa09d6f4ed3e5deddf8c2ad3049a601da",
                    "difficulty" : "0x020000",
                    "extraData" : "",
                    "gasLimit" : "0x3d37ef",
                    "gasUsed" : "0x01adb0",
                    "hash" : "0x9bcb88a3466711c7ef84e379d6ec1ff3fe269509d7c6eb3db862a112c0651dd4",
                    "mixHash" : "0x3f7415fb4e193f116693332d26b1748319c19d2675aa4080055a4beb2f8b155c",
                    "nonce" : "0x642e2bb90ba529ee",
                    "number" : "0x01",
                    "parentHash" : "0xea87c5d24ed82ffb68c0521efc71e3a600ee9c9dfd47066a830a4374be4b22c3",
                    "receiptTrie" : "0xd2865d911e9bd7dd82af311bc7b69454e7c5bb61e30268924075101f97224bcb",
                    "stateRoot" : "0x20f4d56c022f180928296668991e52903c50aa141951855c118a7f2a48dc3475",
                    "timestamp" : "0x03e8",
                    "transactionsTrie" : "0x554ffc5b1186ec41d87bad3f18dd42e89a30c7d300879a4010f20e713d40b281",
                    "uncleHash" : "0x1dcc4de8dec75d7aab85b567b6ccd41ad312451b948a7413f0a142fd40d49347"
                },
                "rlp" : "0xf902e1f901f8a0ea87c5d24ed82ffb68c0521efc71e3a600ee9c9dfd47066a830a4374be4b22c3a01dcc4de8dec75d7aab85b567b6ccd41ad312451b948a7413f0a142fd40d493479468795c4aa09d6f4ed3e5deddf8c2ad3049a601daa020f4d56c022f180928296668991e52903c50aa141951855c118a7f2a48dc3475a0554ffc5b1186ec41d87bad3f18dd42e89a30c7d300879a4010f20e713d40b281a0d2865d911e9bd7dd82af311bc7b69454e7c5bb61e30268924075101f97224bcbb90100000000000000000000000000000000000000000000000000000000000000000000000000000000000000000000000000000000000000000000000000000000000000000000000000000000000000000000000000000000000000000000000000000000000000000000000000000000000000000000000000000000000000000000000000000000000000000000000000000000000000000000000000000000000000000000000000000000000000000000000000000000000000000000000000000000000000000000000000000000000000000000000000000000000000000000000000000000000000000000000000000000000000000000000000000000008302000001833d37ef8301adb08203e880a03f7415fb4e193f116693332d26b1748319c19d2675aa4080055a4beb2f8b155c88642e2bb90ba529eef8e3f8e101018301adb094b94f5374fce5edbc8e2a8697c15331677e6ebf0b80b8800f25919bcb43d5a57391564615c9e70a992b10eafa4db109709649cf48c50dd216da2f5cb6be7a0aa72c440c53c9bbdfec6c36c7d515536431b3a865468acbba0f25919bcb43d5a57391564615c9e70a992b10eafa4db109709649cf48c50dd216da2f5cb6be7a0aa72c440c53c9bbdfec6c36c7d515536431b3a865468acbba1ba0f76f7013b5f3f04f038e5aa814810db6c26ee6c4815b9d3b7c00877906c1c96ba00b174af0fc69b3e7e6cdbc35d07159728d5425932bef867f98a9e042d16e651dc0",
                "transactions" : [
                    {
                        "data" : "0x0f25919bcb43d5a57391564615c9e70a992b10eafa4db109709649cf48c50dd216da2f5cb6be7a0aa72c440c53c9bbdfec6c36c7d515536431b3a865468acbba0f25919bcb43d5a57391564615c9e70a992b10eafa4db109709649cf48c50dd216da2f5cb6be7a0aa72c440c53c9bbdfec6c36c7d515536431b3a865468acbba",
                        "gasLimit" : "0x01adb0",
                        "gasPrice" : "0x01",
                        "nonce" : "0x01",
                        "r" : "0xf76f7013b5f3f04f038e5aa814810db6c26ee6c4815b9d3b7c00877906c1c96b",
                        "s" : "0x0b174af0fc69b3e7e6cdbc35d07159728d5425932bef867f98a9e042d16e651d",
                        "to" : "0xb94f5374fce5edbc8e2a8697c15331677e6ebf0b",
                        "v" : "0x1b",
                        "value" : "0x00"
                    }
                ],
                "uncleHeaders" : [
                ]
            }
        ],
        "genesisBlockHeader" : {
            "bloom" : "0x00000000000000000000000000000000000000000000000000000000000000000000000000000000000000000000000000000000000000000000000000000000000000000000000000000000000000000000000000000000000000000000000000000000000000000000000000000000000000000000000000000000000000000000000000000000000000000000000000000000000000000000000000000000000000000000000000000000000000000000000000000000000000000000000000000000000000000000000000000000000000000000000000000000000000000000000000000000000000000000000000000000000000000000000000000000",
            "coinbase" : "0x68795c4aa09d6f4ed3e5deddf8c2ad3049a601da",
            "difficulty" : "0x020000",
            "extraData" : "0x42",
            "gasLimit" : "0x3d37ef",
            "gasUsed" : "0x00",
            "hash" : "0xea87c5d24ed82ffb68c0521efc71e3a600ee9c9dfd47066a830a4374be4b22c3",
            "mixHash" : "0x56e81f171bcc55a6ff8345e692c0f86e5b48e01b996cadc001622fb5e363b421",
            "nonce" : "0x0102030405060708",
            "number" : "0x00",
            "parentHash" : "0x0000000000000000000000000000000000000000000000000000000000000000",
            "receiptTrie" : "0x56e81f171bcc55a6ff8345e692c0f86e5b48e01b996cadc001622fb5e363b421",
            "stateRoot" : "0xb95c9f862133abb4f20233da59c5516c6044c64bdc703a511eefc55a13164877",
            "timestamp" : "0x03b6",
            "transactionsTrie" : "0x56e81f171bcc55a6ff8345e692c0f86e5b48e01b996cadc001622fb5e363b421",
            "uncleHash" : "0x1dcc4de8dec75d7aab85b567b6ccd41ad312451b948a7413f0a142fd40d49347"
        },
        "genesisRLP" : "0xf901faf901f5a00000000000000000000000000000000000000000000000000000000000000000a01dcc4de8dec75d7aab85b567b6ccd41ad312451b948a7413f0a142fd40d493479468795c4aa09d6f4ed3e5deddf8c2ad3049a601daa0b95c9f862133abb4f20233da59c5516c6044c64bdc703a511eefc55a13164877a056e81f171bcc55a6ff8345e692c0f86e5b48e01b996cadc001622fb5e363b421a056e81f171bcc55a6ff8345e692c0f86e5b48e01b996cadc001622fb5e363b421b90100000000000000000000000000000000000000000000000000000000000000000000000000000000000000000000000000000000000000000000000000000000000000000000000000000000000000000000000000000000000000000000000000000000000000000000000000000000000000000000000000000000000000000000000000000000000000000000000000000000000000000000000000000000000000000000000000000000000000000000000000000000000000000000000000000000000000000000000000000000000000000000000000000000000000000000000000000000000000000000000000000000000000000000000000000000008302000080833d37ef808203b642a056e81f171bcc55a6ff8345e692c0f86e5b48e01b996cadc001622fb5e363b421880102030405060708c0c0",
        "lastblockhash" : "0x9bcb88a3466711c7ef84e379d6ec1ff3fe269509d7c6eb3db862a112c0651dd4",
        "network" : "Frontier",
        "postState" : {
            "0x68795c4aa09d6f4ed3e5deddf8c2ad3049a601da" : {
                "balance" : "0x4563918244f5adb0",
                "code" : "",
                "nonce" : "0x00",
                "storage" : {
                }
            },
            "0xa94f5374fce5edbc8e2a8697c15331677e6ebf0b" : {
                "balance" : "0x0de0b6b3a7625250",
                "code" : "",
                "nonce" : "0x02",
                "storage" : {
                }
            },
            "0xb94f5374fce5edbc8e2a8697c15331677e6ebf0b" : {
                "balance" : "0x00",
                "code" : "0x600035600052602035602052604035604052606035606052604060c860406000600060066207a120f260005560c85160015560e851600255",
                "nonce" : "0x00",
                "storage" : {
                }
            }
        },
        "pre" : {
            "0xa94f5374fce5edbc8e2a8697c15331677e6ebf0b" : {
                "balance" : "0x0de0b6b3a7640000",
                "code" : "",
                "nonce" : "0x01",
                "storage" : {
                }
            },
            "0xb94f5374fce5edbc8e2a8697c15331677e6ebf0b" : {
                "balance" : "0x00",
                "code" : "0x600035600052602035602052604035604052606035606052604060c860406000600060066207a120f260005560c85160015560e851600255",
                "nonce" : "0x00",
                "storage" : {
                }
            }
        }
    },
    "pointAddTrunc_d6g2v0_Homestead" : {
        "_info" : {
            "comment" : "",
            "filledwith" : "cpp-1.3.0+commit.4e101574.Linux.g++",
            "lllcversion" : "Version: 0.4.18-develop.2017.10.11+commit.81f9f86c.Linux.g++",
            "source" : "src/BlockchainTestsFiller/GeneralStateTests/stZeroKnowledge/pointAddTrunc_d6g2v0Filler.json",
            "sourceHash" : "fc8c4ed0e7b303fbe15ccfab06694f1373f545df9bbde288172b272065141bdc"
        },
        "blocks" : [
            {
                "blockHeader" : {
                    "bloom" : "0x00000000000000000000000000000000000000000000000000000000000000000000000000000000000000000000000000000000000000000000000000000000000000000000000000000000000000000000000000000000000000000000000000000000000000000000000000000000000000000000000000000000000000000000000000000000000000000000000000000000000000000000000000000000000000000000000000000000000000000000000000000000000000000000000000000000000000000000000000000000000000000000000000000000000000000000000000000000000000000000000000000000000000000000000000000000",
                    "coinbase" : "0x68795c4aa09d6f4ed3e5deddf8c2ad3049a601da",
                    "difficulty" : "0x020000",
                    "extraData" : "",
                    "gasLimit" : "0x3d37ef",
                    "gasUsed" : "0x01adb0",
                    "hash" : "0xd4dc691ed8f297763bac8b2d08ef966f6b0e2a7ed85a5f9582ef029a7de9b509",
                    "mixHash" : "0x43fac8c2033012d72b11ba8ea1698cae5604f5135050f2fc82bb69457c205684",
                    "nonce" : "0xe87a4435df503107",
                    "number" : "0x01",
                    "parentHash" : "0xea87c5d24ed82ffb68c0521efc71e3a600ee9c9dfd47066a830a4374be4b22c3",
                    "receiptTrie" : "0xd2865d911e9bd7dd82af311bc7b69454e7c5bb61e30268924075101f97224bcb",
                    "stateRoot" : "0x20f4d56c022f180928296668991e52903c50aa141951855c118a7f2a48dc3475",
                    "timestamp" : "0x03e8",
                    "transactionsTrie" : "0x554ffc5b1186ec41d87bad3f18dd42e89a30c7d300879a4010f20e713d40b281",
                    "uncleHash" : "0x1dcc4de8dec75d7aab85b567b6ccd41ad312451b948a7413f0a142fd40d49347"
                },
                "rlp" : "0xf902e1f901f8a0ea87c5d24ed82ffb68c0521efc71e3a600ee9c9dfd47066a830a4374be4b22c3a01dcc4de8dec75d7aab85b567b6ccd41ad312451b948a7413f0a142fd40d493479468795c4aa09d6f4ed3e5deddf8c2ad3049a601daa020f4d56c022f180928296668991e52903c50aa141951855c118a7f2a48dc3475a0554ffc5b1186ec41d87bad3f18dd42e89a30c7d300879a4010f20e713d40b281a0d2865d911e9bd7dd82af311bc7b69454e7c5bb61e30268924075101f97224bcbb90100000000000000000000000000000000000000000000000000000000000000000000000000000000000000000000000000000000000000000000000000000000000000000000000000000000000000000000000000000000000000000000000000000000000000000000000000000000000000000000000000000000000000000000000000000000000000000000000000000000000000000000000000000000000000000000000000000000000000000000000000000000000000000000000000000000000000000000000000000000000000000000000000000000000000000000000000000000000000000000000000000000000000000000000000000000008302000001833d37ef8301adb08203e880a043fac8c2033012d72b11ba8ea1698cae5604f5135050f2fc82bb69457c20568488e87a4435df503107f8e3f8e101018301adb094b94f5374fce5edbc8e2a8697c15331677e6ebf0b80b8800f25919bcb43d5a57391564615c9e70a992b10eafa4db109709649cf48c50dd216da2f5cb6be7a0aa72c440c53c9bbdfec6c36c7d515536431b3a865468acbba0f25919bcb43d5a57391564615c9e70a992b10eafa4db109709649cf48c50dd216da2f5cb6be7a0aa72c440c53c9bbdfec6c36c7d515536431b3a865468acbba1ba0f76f7013b5f3f04f038e5aa814810db6c26ee6c4815b9d3b7c00877906c1c96ba00b174af0fc69b3e7e6cdbc35d07159728d5425932bef867f98a9e042d16e651dc0",
                "transactions" : [
                    {
                        "data" : "0x0f25919bcb43d5a57391564615c9e70a992b10eafa4db109709649cf48c50dd216da2f5cb6be7a0aa72c440c53c9bbdfec6c36c7d515536431b3a865468acbba0f25919bcb43d5a57391564615c9e70a992b10eafa4db109709649cf48c50dd216da2f5cb6be7a0aa72c440c53c9bbdfec6c36c7d515536431b3a865468acbba",
                        "gasLimit" : "0x01adb0",
                        "gasPrice" : "0x01",
                        "nonce" : "0x01",
                        "r" : "0xf76f7013b5f3f04f038e5aa814810db6c26ee6c4815b9d3b7c00877906c1c96b",
                        "s" : "0x0b174af0fc69b3e7e6cdbc35d07159728d5425932bef867f98a9e042d16e651d",
                        "to" : "0xb94f5374fce5edbc8e2a8697c15331677e6ebf0b",
                        "v" : "0x1b",
                        "value" : "0x00"
                    }
                ],
                "uncleHeaders" : [
                ]
            }
        ],
        "genesisBlockHeader" : {
            "bloom" : "0x00000000000000000000000000000000000000000000000000000000000000000000000000000000000000000000000000000000000000000000000000000000000000000000000000000000000000000000000000000000000000000000000000000000000000000000000000000000000000000000000000000000000000000000000000000000000000000000000000000000000000000000000000000000000000000000000000000000000000000000000000000000000000000000000000000000000000000000000000000000000000000000000000000000000000000000000000000000000000000000000000000000000000000000000000000000",
            "coinbase" : "0x68795c4aa09d6f4ed3e5deddf8c2ad3049a601da",
            "difficulty" : "0x020000",
            "extraData" : "0x42",
            "gasLimit" : "0x3d37ef",
            "gasUsed" : "0x00",
            "hash" : "0xea87c5d24ed82ffb68c0521efc71e3a600ee9c9dfd47066a830a4374be4b22c3",
            "mixHash" : "0x56e81f171bcc55a6ff8345e692c0f86e5b48e01b996cadc001622fb5e363b421",
            "nonce" : "0x0102030405060708",
            "number" : "0x00",
            "parentHash" : "0x0000000000000000000000000000000000000000000000000000000000000000",
            "receiptTrie" : "0x56e81f171bcc55a6ff8345e692c0f86e5b48e01b996cadc001622fb5e363b421",
            "stateRoot" : "0xb95c9f862133abb4f20233da59c5516c6044c64bdc703a511eefc55a13164877",
            "timestamp" : "0x03b6",
            "transactionsTrie" : "0x56e81f171bcc55a6ff8345e692c0f86e5b48e01b996cadc001622fb5e363b421",
            "uncleHash" : "0x1dcc4de8dec75d7aab85b567b6ccd41ad312451b948a7413f0a142fd40d49347"
        },
        "genesisRLP" : "0xf901faf901f5a00000000000000000000000000000000000000000000000000000000000000000a01dcc4de8dec75d7aab85b567b6ccd41ad312451b948a7413f0a142fd40d493479468795c4aa09d6f4ed3e5deddf8c2ad3049a601daa0b95c9f862133abb4f20233da59c5516c6044c64bdc703a511eefc55a13164877a056e81f171bcc55a6ff8345e692c0f86e5b48e01b996cadc001622fb5e363b421a056e81f171bcc55a6ff8345e692c0f86e5b48e01b996cadc001622fb5e363b421b90100000000000000000000000000000000000000000000000000000000000000000000000000000000000000000000000000000000000000000000000000000000000000000000000000000000000000000000000000000000000000000000000000000000000000000000000000000000000000000000000000000000000000000000000000000000000000000000000000000000000000000000000000000000000000000000000000000000000000000000000000000000000000000000000000000000000000000000000000000000000000000000000000000000000000000000000000000000000000000000000000000000000000000000000000000000008302000080833d37ef808203b642a056e81f171bcc55a6ff8345e692c0f86e5b48e01b996cadc001622fb5e363b421880102030405060708c0c0",
        "lastblockhash" : "0xd4dc691ed8f297763bac8b2d08ef966f6b0e2a7ed85a5f9582ef029a7de9b509",
        "network" : "Homestead",
        "postState" : {
            "0x68795c4aa09d6f4ed3e5deddf8c2ad3049a601da" : {
                "balance" : "0x4563918244f5adb0",
                "code" : "",
                "nonce" : "0x00",
                "storage" : {
                }
            },
            "0xa94f5374fce5edbc8e2a8697c15331677e6ebf0b" : {
                "balance" : "0x0de0b6b3a7625250",
                "code" : "",
                "nonce" : "0x02",
                "storage" : {
                }
            },
            "0xb94f5374fce5edbc8e2a8697c15331677e6ebf0b" : {
                "balance" : "0x00",
                "code" : "0x600035600052602035602052604035604052606035606052604060c860406000600060066207a120f260005560c85160015560e851600255",
                "nonce" : "0x00",
                "storage" : {
                }
            }
        },
        "pre" : {
            "0xa94f5374fce5edbc8e2a8697c15331677e6ebf0b" : {
                "balance" : "0x0de0b6b3a7640000",
                "code" : "",
                "nonce" : "0x01",
                "storage" : {
                }
            },
            "0xb94f5374fce5edbc8e2a8697c15331677e6ebf0b" : {
                "balance" : "0x00",
                "code" : "0x600035600052602035602052604035604052606035606052604060c860406000600060066207a120f260005560c85160015560e851600255",
                "nonce" : "0x00",
                "storage" : {
                }
            }
        }
    }
}