{
    "pointMulAdd2_d6g2v0_Byzantium" : {
        "_info" : {
            "comment" : "",
            "filledwith" : "cpp-1.3.0+commit.4e101574.Linux.g++",
            "lllcversion" : "Version: 0.4.18-develop.2017.10.11+commit.81f9f86c.Linux.g++",
            "source" : "src/BlockchainTestsFiller/GeneralStateTests/stZeroKnowledge/pointMulAdd2_d6g2v0Filler.json",
            "sourceHash" : "7f7ec94c63c04b34184715af837a2367b7e9a9f2f0bc80015c4d000c388bca42"
        },
        "blocks" : [
            {
                "blockHeader" : {
                    "bloom" : "0x00000000000000000000000000000000000000000000000000000000000000000000000000000000000000000000000000000000000000000000000000000000000000000000000000000000000000000000000000000000000000000000000000000000000000000000000000000000000000000000000000000000000000000000000000000000000000000000000000000000000000000000000000000000000000000000000000000000000000000000000000000000000000000000000000000000000000000000000000000000000000000000000000000000000000000000000000000000000000000000000000000000000000000000000000000000",
                    "coinbase" : "0x68795c4aa09d6f4ed3e5deddf8c2ad3049a601da",
                    "difficulty" : "0x020000",
                    "extraData" : "",
                    "gasLimit" : "0x3d37ef",
                    "gasUsed" : "0x01adb0",
                    "hash" : "0x9df8cdcb01a95a699ce9dadb092c542b2692b3e82be4fdaaa2b2832cbacbe61e",
                    "mixHash" : "0x7b1d40b373ed05d63a6eb7f38c48758564e8733ae757fac0635cac4f2c49e159",
                    "nonce" : "0xf33868d62ebdf796",
                    "number" : "0x01",
                    "parentHash" : "0x9b25016c45ce0e295a463681361471a29c00aea06cba17cbc22894ce6d2c1def",
                    "receiptTrie" : "0xfd21849a7839c2c75da6c5f2828e953f017b356f3e968aba1a97ac6f6c5b31f3",
                    "stateRoot" : "0x4eadb2351475b64993b4a793b3208877f4d487cb87a13159d0090169a5350009",
                    "timestamp" : "0x03e8",
                    "transactionsTrie" : "0x88feec760fb9f6a4620ae80c2d737002f38d5fd6e5e53c400b2189e0b5ed57f8",
                    "uncleHash" : "0x1dcc4de8dec75d7aab85b567b6ccd41ad312451b948a7413f0a142fd40d49347"
                },
                "rlp" : "0xf90343f901f8a09b25016c45ce0e295a463681361471a29c00aea06cba17cbc22894ce6d2c1defa01dcc4de8dec75d7aab85b567b6ccd41ad312451b948a7413f0a142fd40d493479468795c4aa09d6f4ed3e5deddf8c2ad3049a601daa04eadb2351475b64993b4a793b3208877f4d487cb87a13159d0090169a5350009a088feec760fb9f6a4620ae80c2d737002f38d5fd6e5e53c400b2189e0b5ed57f8a0fd21849a7839c2c75da6c5f2828e953f017b356f3e968aba1a97ac6f6c5b31f3b90100000000000000000000000000000000000000000000000000000000000000000000000000000000000000000000000000000000000000000000000000000000000000000000000000000000000000000000000000000000000000000000000000000000000000000000000000000000000000000000000000000000000000000000000000000000000000000000000000000000000000000000000000000000000000000000000000000000000000000000000000000000000000000000000000000000000000000000000000000000000000000000000000000000000000000000000000000000000000000000000000000000000000000000000000000000008302000001833d37ef8301adb08203e880a07b1d40b373ed05d63a6eb7f38c48758564e8733ae757fac0635cac4f2c49e15988f33868d62ebdf796f90144f9014101018301adb094b94f5374fce5edbc8e2a8697c15331677e6ebf0b80b8e000000000000000000000000000000000000000000000000000000000000000000000000000000000000000000000000000000000000000000000000000000000000000000000000000000000000000000000000000000000000000000000000000000000000000000000000000000000000000000000000000000000000000000000000000000000000000000000000000000000000000000000000000000000000000000000000000000000000000000000000000000000000000000000000030644e72e131a029b85045b68181585d97816a916871ca8d3c208c16d87cfd461ba031e3e84b9e8acf2c9b811352d2627e1e484caacff722ba7394aad219bb542dbda04369e49cea9bae3c1fbda06264248f27fa15850e2f54b987f4f8145f1038cc93c0",
                "transactions" : [
                    {
                        "data" : "0x00000000000000000000000000000000000000000000000000000000000000000000000000000000000000000000000000000000000000000000000000000000000000000000000000000000000000000000000000000000000000000000000000000000000000000000000000000000000000000000000000000000000000000000000000000000000000000000000000000000000000000000000000000000000000000000000000000000000000000000000000000000000000000000000030644e72e131a029b85045b68181585d97816a916871ca8d3c208c16d87cfd46",
                        "gasLimit" : "0x01adb0",
                        "gasPrice" : "0x01",
                        "nonce" : "0x01",
                        "r" : "0x31e3e84b9e8acf2c9b811352d2627e1e484caacff722ba7394aad219bb542dbd",
                        "s" : "0x4369e49cea9bae3c1fbda06264248f27fa15850e2f54b987f4f8145f1038cc93",
                        "to" : "0xb94f5374fce5edbc8e2a8697c15331677e6ebf0b",
                        "v" : "0x1b",
                        "value" : "0x00"
                    }
                ],
                "uncleHeaders" : [
                ]
            }
        ],
        "genesisBlockHeader" : {
            "bloom" : "0x00000000000000000000000000000000000000000000000000000000000000000000000000000000000000000000000000000000000000000000000000000000000000000000000000000000000000000000000000000000000000000000000000000000000000000000000000000000000000000000000000000000000000000000000000000000000000000000000000000000000000000000000000000000000000000000000000000000000000000000000000000000000000000000000000000000000000000000000000000000000000000000000000000000000000000000000000000000000000000000000000000000000000000000000000000000",
            "coinbase" : "0x68795c4aa09d6f4ed3e5deddf8c2ad3049a601da",
            "difficulty" : "0x020000",
            "extraData" : "0x42",
            "gasLimit" : "0x3d37ef",
            "gasUsed" : "0x00",
            "hash" : "0x9b25016c45ce0e295a463681361471a29c00aea06cba17cbc22894ce6d2c1def",
            "mixHash" : "0x56e81f171bcc55a6ff8345e692c0f86e5b48e01b996cadc001622fb5e363b421",
            "nonce" : "0x0102030405060708",
            "number" : "0x00",
            "parentHash" : "0x0000000000000000000000000000000000000000000000000000000000000000",
            "receiptTrie" : "0x56e81f171bcc55a6ff8345e692c0f86e5b48e01b996cadc001622fb5e363b421",
            "stateRoot" : "0xa4db92ceb60668ffcb9642d55fa7fe34cc341b53029d31394d82f0c61462bd99",
            "timestamp" : "0x03b6",
            "transactionsTrie" : "0x56e81f171bcc55a6ff8345e692c0f86e5b48e01b996cadc001622fb5e363b421",
            "uncleHash" : "0x1dcc4de8dec75d7aab85b567b6ccd41ad312451b948a7413f0a142fd40d49347"
        },
        "genesisRLP" : "0xf901faf901f5a00000000000000000000000000000000000000000000000000000000000000000a01dcc4de8dec75d7aab85b567b6ccd41ad312451b948a7413f0a142fd40d493479468795c4aa09d6f4ed3e5deddf8c2ad3049a601daa0a4db92ceb60668ffcb9642d55fa7fe34cc341b53029d31394d82f0c61462bd99a056e81f171bcc55a6ff8345e692c0f86e5b48e01b996cadc001622fb5e363b421a056e81f171bcc55a6ff8345e692c0f86e5b48e01b996cadc001622fb5e363b421b90100000000000000000000000000000000000000000000000000000000000000000000000000000000000000000000000000000000000000000000000000000000000000000000000000000000000000000000000000000000000000000000000000000000000000000000000000000000000000000000000000000000000000000000000000000000000000000000000000000000000000000000000000000000000000000000000000000000000000000000000000000000000000000000000000000000000000000000000000000000000000000000000000000000000000000000000000000000000000000000000000000000000000000000000000000000008302000080833d37ef808203b642a056e81f171bcc55a6ff8345e692c0f86e5b48e01b996cadc001622fb5e363b421880102030405060708c0c0",
        "lastblockhash" : "0x9df8cdcb01a95a699ce9dadb092c542b2692b3e82be4fdaaa2b2832cbacbe61e",
        "network" : "Byzantium",
        "postState" : {
            "0x68795c4aa09d6f4ed3e5deddf8c2ad3049a601da" : {
                "balance" : "0x29a2241af62dadb0",
                "code" : "",
                "nonce" : "0x00",
                "storage" : {
                }
            },
            "0xa94f5374fce5edbc8e2a8697c15331677e6ebf0b" : {
                "balance" : "0x0de0b6b3a7625250",
                "code" : "",
                "nonce" : "0x02",
                "storage" : {
                }
            },
            "0xb94f5374fce5edbc8e2a8697c15331677e6ebf0b" : {
                "balance" : "0x00",
                "code" : "0x60003560005260203560205260403560405260603560605260803560805260a03560a05260c03560c052604061012c60806000600060066207a120f2600055604061019060606080600060076207a120f260015561012c51600a5561014c51600b55610190516014556101b051601555601454600a5414600255601554600b5414600355",
                "nonce" : "0x00",
                "storage" : {
                }
            }
        },
        "pre" : {
            "0xa94f5374fce5edbc8e2a8697c15331677e6ebf0b" : {
                "balance" : "0x0de0b6b3a7640000",
                "code" : "",
                "nonce" : "0x01",
                "storage" : {
                }
            },
            "0xb94f5374fce5edbc8e2a8697c15331677e6ebf0b" : {
                "balance" : "0x00",
                "code" : "0x60003560005260203560205260403560405260603560605260803560805260a03560a05260c03560c052604061012c60806000600060066207a120f2600055604061019060606080600060076207a120f260015561012c51600a5561014c51600b55610190516014556101b051601555601454600a5414600255601554600b5414600355",
                "nonce" : "0x00",
                "storage" : {
                }
            }
        }
    },
    "pointMulAdd2_d6g2v0_EIP150" : {
        "_info" : {
            "comment" : "",
            "filledwith" : "cpp-1.3.0+commit.4e101574.Linux.g++",
            "lllcversion" : "Version: 0.4.18-develop.2017.10.11+commit.81f9f86c.Linux.g++",
            "source" : "src/BlockchainTestsFiller/GeneralStateTests/stZeroKnowledge/pointMulAdd2_d6g2v0Filler.json",
            "sourceHash" : "7f7ec94c63c04b34184715af837a2367b7e9a9f2f0bc80015c4d000c388bca42"
        },
        "blocks" : [
            {
                "blockHeader" : {
                    "bloom" : "0x00000000000000000000000000000000000000000000000000000000000000000000000000000000000000000000000000000000000000000000000000000000000000000000000000000000000000000000000000000000000000000000000000000000000000000000000000000000000000000000000000000000000000000000000000000000000000000000000000000000000000000000000000000000000000000000000000000000000000000000000000000000000000000000000000000000000000000000000000000000000000000000000000000000000000000000000000000000000000000000000000000000000000000000000000000000",
                    "coinbase" : "0x68795c4aa09d6f4ed3e5deddf8c2ad3049a601da",
                    "difficulty" : "0x020000",
                    "extraData" : "",
                    "gasLimit" : "0x3d37ef",
                    "gasUsed" : "0x01adb0",
                    "hash" : "0xdf8ea91354ff5daf6cdc23da7abcd5aa4217968975b4e7fe0f213ce2bfd0c8b5",
                    "mixHash" : "0x1b055cbe684fa6566c6daf64f78c91ea36a8e8398421522f175fda3ede67816b",
                    "nonce" : "0xaf446f407efc4836",
                    "number" : "0x01",
                    "parentHash" : "0x9b25016c45ce0e295a463681361471a29c00aea06cba17cbc22894ce6d2c1def",
                    "receiptTrie" : "0x0c0528a910b50648e6ca29e49363bc6409f64e46af03049d6eeccd8613a69a41",
                    "stateRoot" : "0x523915750ed47108704d08b2a0bfc7af37131077403e24a49406235ad478cbe5",
                    "timestamp" : "0x03e8",
                    "transactionsTrie" : "0x88feec760fb9f6a4620ae80c2d737002f38d5fd6e5e53c400b2189e0b5ed57f8",
                    "uncleHash" : "0x1dcc4de8dec75d7aab85b567b6ccd41ad312451b948a7413f0a142fd40d49347"
                },
                "rlp" : "0xf90343f901f8a09b25016c45ce0e295a463681361471a29c00aea06cba17cbc22894ce6d2c1defa01dcc4de8dec75d7aab85b567b6ccd41ad312451b948a7413f0a142fd40d493479468795c4aa09d6f4ed3e5deddf8c2ad3049a601daa0523915750ed47108704d08b2a0bfc7af37131077403e24a49406235ad478cbe5a088feec760fb9f6a4620ae80c2d737002f38d5fd6e5e53c400b2189e0b5ed57f8a00c0528a910b50648e6ca29e49363bc6409f64e46af03049d6eeccd8613a69a41b90100000000000000000000000000000000000000000000000000000000000000000000000000000000000000000000000000000000000000000000000000000000000000000000000000000000000000000000000000000000000000000000000000000000000000000000000000000000000000000000000000000000000000000000000000000000000000000000000000000000000000000000000000000000000000000000000000000000000000000000000000000000000000000000000000000000000000000000000000000000000000000000000000000000000000000000000000000000000000000000000000000000000000000000000000000000008302000001833d37ef8301adb08203e880a01b055cbe684fa6566c6daf64f78c91ea36a8e8398421522f175fda3ede67816b88af446f407efc4836f90144f9014101018301adb094b94f5374fce5edbc8e2a8697c15331677e6ebf0b80b8e000000000000000000000000000000000000000000000000000000000000000000000000000000000000000000000000000000000000000000000000000000000000000000000000000000000000000000000000000000000000000000000000000000000000000000000000000000000000000000000000000000000000000000000000000000000000000000000000000000000000000000000000000000000000000000000000000000000000000000000000000000000000000000000000030644e72e131a029b85045b68181585d97816a916871ca8d3c208c16d87cfd461ba031e3e84b9e8acf2c9b811352d2627e1e484caacff722ba7394aad219bb542dbda04369e49cea9bae3c1fbda06264248f27fa15850e2f54b987f4f8145f1038cc93c0",
                "transactions" : [
                    {
                        "data" : "0x00000000000000000000000000000000000000000000000000000000000000000000000000000000000000000000000000000000000000000000000000000000000000000000000000000000000000000000000000000000000000000000000000000000000000000000000000000000000000000000000000000000000000000000000000000000000000000000000000000000000000000000000000000000000000000000000000000000000000000000000000000000000000000000000030644e72e131a029b85045b68181585d97816a916871ca8d3c208c16d87cfd46",
                        "gasLimit" : "0x01adb0",
                        "gasPrice" : "0x01",
                        "nonce" : "0x01",
                        "r" : "0x31e3e84b9e8acf2c9b811352d2627e1e484caacff722ba7394aad219bb542dbd",
                        "s" : "0x4369e49cea9bae3c1fbda06264248f27fa15850e2f54b987f4f8145f1038cc93",
                        "to" : "0xb94f5374fce5edbc8e2a8697c15331677e6ebf0b",
                        "v" : "0x1b",
                        "value" : "0x00"
                    }
                ],
                "uncleHeaders" : [
                ]
            }
        ],
        "genesisBlockHeader" : {
            "bloom" : "0x00000000000000000000000000000000000000000000000000000000000000000000000000000000000000000000000000000000000000000000000000000000000000000000000000000000000000000000000000000000000000000000000000000000000000000000000000000000000000000000000000000000000000000000000000000000000000000000000000000000000000000000000000000000000000000000000000000000000000000000000000000000000000000000000000000000000000000000000000000000000000000000000000000000000000000000000000000000000000000000000000000000000000000000000000000000",
            "coinbase" : "0x68795c4aa09d6f4ed3e5deddf8c2ad3049a601da",
            "difficulty" : "0x020000",
            "extraData" : "0x42",
            "gasLimit" : "0x3d37ef",
            "gasUsed" : "0x00",
            "hash" : "0x9b25016c45ce0e295a463681361471a29c00aea06cba17cbc22894ce6d2c1def",
            "mixHash" : "0x56e81f171bcc55a6ff8345e692c0f86e5b48e01b996cadc001622fb5e363b421",
            "nonce" : "0x0102030405060708",
            "number" : "0x00",
            "parentHash" : "0x0000000000000000000000000000000000000000000000000000000000000000",
            "receiptTrie" : "0x56e81f171bcc55a6ff8345e692c0f86e5b48e01b996cadc001622fb5e363b421",
            "stateRoot" : "0xa4db92ceb60668ffcb9642d55fa7fe34cc341b53029d31394d82f0c61462bd99",
            "timestamp" : "0x03b6",
            "transactionsTrie" : "0x56e81f171bcc55a6ff8345e692c0f86e5b48e01b996cadc001622fb5e363b421",
            "uncleHash" : "0x1dcc4de8dec75d7aab85b567b6ccd41ad312451b948a7413f0a142fd40d49347"
        },
        "genesisRLP" : "0xf901faf901f5a00000000000000000000000000000000000000000000000000000000000000000a01dcc4de8dec75d7aab85b567b6ccd41ad312451b948a7413f0a142fd40d493479468795c4aa09d6f4ed3e5deddf8c2ad3049a601daa0a4db92ceb60668ffcb9642d55fa7fe34cc341b53029d31394d82f0c61462bd99a056e81f171bcc55a6ff8345e692c0f86e5b48e01b996cadc001622fb5e363b421a056e81f171bcc55a6ff8345e692c0f86e5b48e01b996cadc001622fb5e363b421b90100000000000000000000000000000000000000000000000000000000000000000000000000000000000000000000000000000000000000000000000000000000000000000000000000000000000000000000000000000000000000000000000000000000000000000000000000000000000000000000000000000000000000000000000000000000000000000000000000000000000000000000000000000000000000000000000000000000000000000000000000000000000000000000000000000000000000000000000000000000000000000000000000000000000000000000000000000000000000000000000000000000000000000000000000000000008302000080833d37ef808203b642a056e81f171bcc55a6ff8345e692c0f86e5b48e01b996cadc001622fb5e363b421880102030405060708c0c0",
        "lastblockhash" : "0xdf8ea91354ff5daf6cdc23da7abcd5aa4217968975b4e7fe0f213ce2bfd0c8b5",
        "network" : "EIP150",
        "postState" : {
            "0x68795c4aa09d6f4ed3e5deddf8c2ad3049a601da" : {
                "balance" : "0x4563918244f5adb0",
                "code" : "",
                "nonce" : "0x00",
                "storage" : {
                }
            },
            "0xa94f5374fce5edbc8e2a8697c15331677e6ebf0b" : {
                "balance" : "0x0de0b6b3a7625250",
                "code" : "",
                "nonce" : "0x02",
                "storage" : {
                }
            },
            "0xb94f5374fce5edbc8e2a8697c15331677e6ebf0b" : {
                "balance" : "0x00",
                "code" : "0x60003560005260203560205260403560405260603560605260803560805260a03560a05260c03560c052604061012c60806000600060066207a120f2600055604061019060606080600060076207a120f260015561012c51600a5561014c51600b55610190516014556101b051601555601454600a5414600255601554600b5414600355",
                "nonce" : "0x00",
                "storage" : {
                }
            }
        },
        "pre" : {
            "0xa94f5374fce5edbc8e2a8697c15331677e6ebf0b" : {
                "balance" : "0x0de0b6b3a7640000",
                "code" : "",
                "nonce" : "0x01",
                "storage" : {
                }
            },
            "0xb94f5374fce5edbc8e2a8697c15331677e6ebf0b" : {
                "balance" : "0x00",
                "code" : "0x60003560005260203560205260403560405260603560605260803560805260a03560a05260c03560c052604061012c60806000600060066207a120f2600055604061019060606080600060076207a120f260015561012c51600a5561014c51600b55610190516014556101b051601555601454600a5414600255601554600b5414600355",
                "nonce" : "0x00",
                "storage" : {
                }
            }
        }
    },
    "pointMulAdd2_d6g2v0_EIP158" : {
        "_info" : {
            "comment" : "",
            "filledwith" : "cpp-1.3.0+commit.4e101574.Linux.g++",
            "lllcversion" : "Version: 0.4.18-develop.2017.10.11+commit.81f9f86c.Linux.g++",
            "source" : "src/BlockchainTestsFiller/GeneralStateTests/stZeroKnowledge/pointMulAdd2_d6g2v0Filler.json",
            "sourceHash" : "7f7ec94c63c04b34184715af837a2367b7e9a9f2f0bc80015c4d000c388bca42"
        },
        "blocks" : [
            {
                "blockHeader" : {
                    "bloom" : "0x00000000000000000000000000000000000000000000000000000000000000000000000000000000000000000000000000000000000000000000000000000000000000000000000000000000000000000000000000000000000000000000000000000000000000000000000000000000000000000000000000000000000000000000000000000000000000000000000000000000000000000000000000000000000000000000000000000000000000000000000000000000000000000000000000000000000000000000000000000000000000000000000000000000000000000000000000000000000000000000000000000000000000000000000000000000",
                    "coinbase" : "0x68795c4aa09d6f4ed3e5deddf8c2ad3049a601da",
                    "difficulty" : "0x020000",
                    "extraData" : "",
                    "gasLimit" : "0x3d37ef",
                    "gasUsed" : "0x01adb0",
                    "hash" : "0x9708b454f1b6efa0c748c0243f114817dacc142c8fe5e5fdf63caaca2af00fa2",
                    "mixHash" : "0x9b6c44c5182719eca1640dfba6cc1a841b9937f03cc3a32a8874f3feeba06367",
                    "nonce" : "0x21d9ecb54f522bdc",
                    "number" : "0x01",
                    "parentHash" : "0x9b25016c45ce0e295a463681361471a29c00aea06cba17cbc22894ce6d2c1def",
                    "receiptTrie" : "0x0c0528a910b50648e6ca29e49363bc6409f64e46af03049d6eeccd8613a69a41",
                    "stateRoot" : "0x523915750ed47108704d08b2a0bfc7af37131077403e24a49406235ad478cbe5",
                    "timestamp" : "0x03e8",
                    "transactionsTrie" : "0x88feec760fb9f6a4620ae80c2d737002f38d5fd6e5e53c400b2189e0b5ed57f8",
                    "uncleHash" : "0x1dcc4de8dec75d7aab85b567b6ccd41ad312451b948a7413f0a142fd40d49347"
                },
                "rlp" : "0xf90343f901f8a09b25016c45ce0e295a463681361471a29c00aea06cba17cbc22894ce6d2c1defa01dcc4de8dec75d7aab85b567b6ccd41ad312451b948a7413f0a142fd40d493479468795c4aa09d6f4ed3e5deddf8c2ad3049a601daa0523915750ed47108704d08b2a0bfc7af37131077403e24a49406235ad478cbe5a088feec760fb9f6a4620ae80c2d737002f38d5fd6e5e53c400b2189e0b5ed57f8a00c0528a910b50648e6ca29e49363bc6409f64e46af03049d6eeccd8613a69a41b90100000000000000000000000000000000000000000000000000000000000000000000000000000000000000000000000000000000000000000000000000000000000000000000000000000000000000000000000000000000000000000000000000000000000000000000000000000000000000000000000000000000000000000000000000000000000000000000000000000000000000000000000000000000000000000000000000000000000000000000000000000000000000000000000000000000000000000000000000000000000000000000000000000000000000000000000000000000000000000000000000000000000000000000000000000000008302000001833d37ef8301adb08203e880a09b6c44c5182719eca1640dfba6cc1a841b9937f03cc3a32a8874f3feeba063678821d9ecb54f522bdcf90144f9014101018301adb094b94f5374fce5edbc8e2a8697c15331677e6ebf0b80b8e000000000000000000000000000000000000000000000000000000000000000000000000000000000000000000000000000000000000000000000000000000000000000000000000000000000000000000000000000000000000000000000000000000000000000000000000000000000000000000000000000000000000000000000000000000000000000000000000000000000000000000000000000000000000000000000000000000000000000000000000000000000000000000000000030644e72e131a029b85045b68181585d97816a916871ca8d3c208c16d87cfd461ba031e3e84b9e8acf2c9b811352d2627e1e484caacff722ba7394aad219bb542dbda04369e49cea9bae3c1fbda06264248f27fa15850e2f54b987f4f8145f1038cc93c0",
                "transactions" : [
                    {
                        "data" : "0x00000000000000000000000000000000000000000000000000000000000000000000000000000000000000000000000000000000000000000000000000000000000000000000000000000000000000000000000000000000000000000000000000000000000000000000000000000000000000000000000000000000000000000000000000000000000000000000000000000000000000000000000000000000000000000000000000000000000000000000000000000000000000000000000030644e72e131a029b85045b68181585d97816a916871ca8d3c208c16d87cfd46",
                        "gasLimit" : "0x01adb0",
                        "gasPrice" : "0x01",
                        "nonce" : "0x01",
                        "r" : "0x31e3e84b9e8acf2c9b811352d2627e1e484caacff722ba7394aad219bb542dbd",
                        "s" : "0x4369e49cea9bae3c1fbda06264248f27fa15850e2f54b987f4f8145f1038cc93",
                        "to" : "0xb94f5374fce5edbc8e2a8697c15331677e6ebf0b",
                        "v" : "0x1b",
                        "value" : "0x00"
                    }
                ],
                "uncleHeaders" : [
                ]
            }
        ],
        "genesisBlockHeader" : {
            "bloom" : "0x00000000000000000000000000000000000000000000000000000000000000000000000000000000000000000000000000000000000000000000000000000000000000000000000000000000000000000000000000000000000000000000000000000000000000000000000000000000000000000000000000000000000000000000000000000000000000000000000000000000000000000000000000000000000000000000000000000000000000000000000000000000000000000000000000000000000000000000000000000000000000000000000000000000000000000000000000000000000000000000000000000000000000000000000000000000",
            "coinbase" : "0x68795c4aa09d6f4ed3e5deddf8c2ad3049a601da",
            "difficulty" : "0x020000",
            "extraData" : "0x42",
            "gasLimit" : "0x3d37ef",
            "gasUsed" : "0x00",
            "hash" : "0x9b25016c45ce0e295a463681361471a29c00aea06cba17cbc22894ce6d2c1def",
            "mixHash" : "0x56e81f171bcc55a6ff8345e692c0f86e5b48e01b996cadc001622fb5e363b421",
            "nonce" : "0x0102030405060708",
            "number" : "0x00",
            "parentHash" : "0x0000000000000000000000000000000000000000000000000000000000000000",
            "receiptTrie" : "0x56e81f171bcc55a6ff8345e692c0f86e5b48e01b996cadc001622fb5e363b421",
            "stateRoot" : "0xa4db92ceb60668ffcb9642d55fa7fe34cc341b53029d31394d82f0c61462bd99",
            "timestamp" : "0x03b6",
            "transactionsTrie" : "0x56e81f171bcc55a6ff8345e692c0f86e5b48e01b996cadc001622fb5e363b421",
            "uncleHash" : "0x1dcc4de8dec75d7aab85b567b6ccd41ad312451b948a7413f0a142fd40d49347"
        },
        "genesisRLP" : "0xf901faf901f5a00000000000000000000000000000000000000000000000000000000000000000a01dcc4de8dec75d7aab85b567b6ccd41ad312451b948a7413f0a142fd40d493479468795c4aa09d6f4ed3e5deddf8c2ad3049a601daa0a4db92ceb60668ffcb9642d55fa7fe34cc341b53029d31394d82f0c61462bd99a056e81f171bcc55a6ff8345e692c0f86e5b48e01b996cadc001622fb5e363b421a056e81f171bcc55a6ff8345e692c0f86e5b48e01b996cadc001622fb5e363b421b90100000000000000000000000000000000000000000000000000000000000000000000000000000000000000000000000000000000000000000000000000000000000000000000000000000000000000000000000000000000000000000000000000000000000000000000000000000000000000000000000000000000000000000000000000000000000000000000000000000000000000000000000000000000000000000000000000000000000000000000000000000000000000000000000000000000000000000000000000000000000000000000000000000000000000000000000000000000000000000000000000000000000000000000000000000000008302000080833d37ef808203b642a056e81f171bcc55a6ff8345e692c0f86e5b48e01b996cadc001622fb5e363b421880102030405060708c0c0",
        "lastblockhash" : "0x9708b454f1b6efa0c748c0243f114817dacc142c8fe5e5fdf63caaca2af00fa2",
        "network" : "EIP158",
        "postState" : {
            "0x68795c4aa09d6f4ed3e5deddf8c2ad3049a601da" : {
                "balance" : "0x4563918244f5adb0",
                "code" : "",
                "nonce" : "0x00",
                "storage" : {
                }
            },
            "0xa94f5374fce5edbc8e2a8697c15331677e6ebf0b" : {
                "balance" : "0x0de0b6b3a7625250",
                "code" : "",
                "nonce" : "0x02",
                "storage" : {
                }
            },
            "0xb94f5374fce5edbc8e2a8697c15331677e6ebf0b" : {
                "balance" : "0x00",
                "code" : "0x60003560005260203560205260403560405260603560605260803560805260a03560a05260c03560c052604061012c60806000600060066207a120f2600055604061019060606080600060076207a120f260015561012c51600a5561014c51600b55610190516014556101b051601555601454600a5414600255601554600b5414600355",
                "nonce" : "0x00",
                "storage" : {
                }
            }
        },
        "pre" : {
            "0xa94f5374fce5edbc8e2a8697c15331677e6ebf0b" : {
                "balance" : "0x0de0b6b3a7640000",
                "code" : "",
                "nonce" : "0x01",
                "storage" : {
                }
            },
            "0xb94f5374fce5edbc8e2a8697c15331677e6ebf0b" : {
                "balance" : "0x00",
                "code" : "0x60003560005260203560205260403560405260603560605260803560805260a03560a05260c03560c052604061012c60806000600060066207a120f2600055604061019060606080600060076207a120f260015561012c51600a5561014c51600b55610190516014556101b051601555601454600a5414600255601554600b5414600355",
                "nonce" : "0x00",
                "storage" : {
                }
            }
        }
    },
    "pointMulAdd2_d6g2v0_Frontier" : {
        "_info" : {
            "comment" : "",
            "filledwith" : "cpp-1.3.0+commit.4e101574.Linux.g++",
            "lllcversion" : "Version: 0.4.18-develop.2017.10.11+commit.81f9f86c.Linux.g++",
            "source" : "src/BlockchainTestsFiller/GeneralStateTests/stZeroKnowledge/pointMulAdd2_d6g2v0Filler.json",
            "sourceHash" : "7f7ec94c63c04b34184715af837a2367b7e9a9f2f0bc80015c4d000c388bca42"
        },
        "blocks" : [
            {
                "blockHeader" : {
                    "bloom" : "0x00000000000000000000000000000000000000000000000000000000000000000000000000000000000000000000000000000000000000000000000000000000000000000000000000000000000000000000000000000000000000000000000000000000000000000000000000000000000000000000000000000000000000000000000000000000000000000000000000000000000000000000000000000000000000000000000000000000000000000000000000000000000000000000000000000000000000000000000000000000000000000000000000000000000000000000000000000000000000000000000000000000000000000000000000000000",
                    "coinbase" : "0x68795c4aa09d6f4ed3e5deddf8c2ad3049a601da",
                    "difficulty" : "0x020000",
                    "extraData" : "",
                    "gasLimit" : "0x3d37ef",
                    "gasUsed" : "0x01adb0",
                    "hash" : "0xa20d317e18da80559610b7457f32fdbe00c62218c4a19907ac6decdd20623bb7",
                    "mixHash" : "0xb72b75e93ad770582849782278ec12c1a0de7656612f1d88ef57a19f733faf60",
                    "nonce" : "0x25235f966b8986cd",
                    "number" : "0x01",
                    "parentHash" : "0x9b25016c45ce0e295a463681361471a29c00aea06cba17cbc22894ce6d2c1def",
                    "receiptTrie" : "0x0c0528a910b50648e6ca29e49363bc6409f64e46af03049d6eeccd8613a69a41",
                    "stateRoot" : "0x523915750ed47108704d08b2a0bfc7af37131077403e24a49406235ad478cbe5",
                    "timestamp" : "0x03e8",
                    "transactionsTrie" : "0x88feec760fb9f6a4620ae80c2d737002f38d5fd6e5e53c400b2189e0b5ed57f8",
                    "uncleHash" : "0x1dcc4de8dec75d7aab85b567b6ccd41ad312451b948a7413f0a142fd40d49347"
                },
                "rlp" : "0xf90343f901f8a09b25016c45ce0e295a463681361471a29c00aea06cba17cbc22894ce6d2c1defa01dcc4de8dec75d7aab85b567b6ccd41ad312451b948a7413f0a142fd40d493479468795c4aa09d6f4ed3e5deddf8c2ad3049a601daa0523915750ed47108704d08b2a0bfc7af37131077403e24a49406235ad478cbe5a088feec760fb9f6a4620ae80c2d737002f38d5fd6e5e53c400b2189e0b5ed57f8a00c0528a910b50648e6ca29e49363bc6409f64e46af03049d6eeccd8613a69a41b90100000000000000000000000000000000000000000000000000000000000000000000000000000000000000000000000000000000000000000000000000000000000000000000000000000000000000000000000000000000000000000000000000000000000000000000000000000000000000000000000000000000000000000000000000000000000000000000000000000000000000000000000000000000000000000000000000000000000000000000000000000000000000000000000000000000000000000000000000000000000000000000000000000000000000000000000000000000000000000000000000000000000000000000000000000000008302000001833d37ef8301adb08203e880a0b72b75e93ad770582849782278ec12c1a0de7656612f1d88ef57a19f733faf608825235f966b8986cdf90144f9014101018301adb094b94f5374fce5edbc8e2a8697c15331677e6ebf0b80b8e000000000000000000000000000000000000000000000000000000000000000000000000000000000000000000000000000000000000000000000000000000000000000000000000000000000000000000000000000000000000000000000000000000000000000000000000000000000000000000000000000000000000000000000000000000000000000000000000000000000000000000000000000000000000000000000000000000000000000000000000000000000000000000000000030644e72e131a029b85045b68181585d97816a916871ca8d3c208c16d87cfd461ba031e3e84b9e8acf2c9b811352d2627e1e484caacff722ba7394aad219bb542dbda04369e49cea9bae3c1fbda06264248f27fa15850e2f54b987f4f8145f1038cc93c0",
                "transactions" : [
                    {
                        "data" : "0x00000000000000000000000000000000000000000000000000000000000000000000000000000000000000000000000000000000000000000000000000000000000000000000000000000000000000000000000000000000000000000000000000000000000000000000000000000000000000000000000000000000000000000000000000000000000000000000000000000000000000000000000000000000000000000000000000000000000000000000000000000000000000000000000030644e72e131a029b85045b68181585d97816a916871ca8d3c208c16d87cfd46",
                        "gasLimit" : "0x01adb0",
                        "gasPrice" : "0x01",
                        "nonce" : "0x01",
                        "r" : "0x31e3e84b9e8acf2c9b811352d2627e1e484caacff722ba7394aad219bb542dbd",
                        "s" : "0x4369e49cea9bae3c1fbda06264248f27fa15850e2f54b987f4f8145f1038cc93",
                        "to" : "0xb94f5374fce5edbc8e2a8697c15331677e6ebf0b",
                        "v" : "0x1b",
                        "value" : "0x00"
                    }
                ],
                "uncleHeaders" : [
                ]
            }
        ],
        "genesisBlockHeader" : {
            "bloom" : "0x00000000000000000000000000000000000000000000000000000000000000000000000000000000000000000000000000000000000000000000000000000000000000000000000000000000000000000000000000000000000000000000000000000000000000000000000000000000000000000000000000000000000000000000000000000000000000000000000000000000000000000000000000000000000000000000000000000000000000000000000000000000000000000000000000000000000000000000000000000000000000000000000000000000000000000000000000000000000000000000000000000000000000000000000000000000",
            "coinbase" : "0x68795c4aa09d6f4ed3e5deddf8c2ad3049a601da",
            "difficulty" : "0x020000",
            "extraData" : "0x42",
            "gasLimit" : "0x3d37ef",
            "gasUsed" : "0x00",
            "hash" : "0x9b25016c45ce0e295a463681361471a29c00aea06cba17cbc22894ce6d2c1def",
            "mixHash" : "0x56e81f171bcc55a6ff8345e692c0f86e5b48e01b996cadc001622fb5e363b421",
            "nonce" : "0x0102030405060708",
            "number" : "0x00",
            "parentHash" : "0x0000000000000000000000000000000000000000000000000000000000000000",
            "receiptTrie" : "0x56e81f171bcc55a6ff8345e692c0f86e5b48e01b996cadc001622fb5e363b421",
            "stateRoot" : "0xa4db92ceb60668ffcb9642d55fa7fe34cc341b53029d31394d82f0c61462bd99",
            "timestamp" : "0x03b6",
            "transactionsTrie" : "0x56e81f171bcc55a6ff8345e692c0f86e5b48e01b996cadc001622fb5e363b421",
            "uncleHash" : "0x1dcc4de8dec75d7aab85b567b6ccd41ad312451b948a7413f0a142fd40d49347"
        },
        "genesisRLP" : "0xf901faf901f5a00000000000000000000000000000000000000000000000000000000000000000a01dcc4de8dec75d7aab85b567b6ccd41ad312451b948a7413f0a142fd40d493479468795c4aa09d6f4ed3e5deddf8c2ad3049a601daa0a4db92ceb60668ffcb9642d55fa7fe34cc341b53029d31394d82f0c61462bd99a056e81f171bcc55a6ff8345e692c0f86e5b48e01b996cadc001622fb5e363b421a056e81f171bcc55a6ff8345e692c0f86e5b48e01b996cadc001622fb5e363b421b90100000000000000000000000000000000000000000000000000000000000000000000000000000000000000000000000000000000000000000000000000000000000000000000000000000000000000000000000000000000000000000000000000000000000000000000000000000000000000000000000000000000000000000000000000000000000000000000000000000000000000000000000000000000000000000000000000000000000000000000000000000000000000000000000000000000000000000000000000000000000000000000000000000000000000000000000000000000000000000000000000000000000000000000000000000000008302000080833d37ef808203b642a056e81f171bcc55a6ff8345e692c0f86e5b48e01b996cadc001622fb5e363b421880102030405060708c0c0",
        "lastblockhash" : "0xa20d317e18da80559610b7457f32fdbe00c62218c4a19907ac6decdd20623bb7",
        "network" : "Frontier",
        "postState" : {
            "0x68795c4aa09d6f4ed3e5deddf8c2ad3049a601da" : {
                "balance" : "0x4563918244f5adb0",
                "code" : "",
                "nonce" : "0x00",
                "storage" : {
                }
            },
            "0xa94f5374fce5edbc8e2a8697c15331677e6ebf0b" : {
                "balance" : "0x0de0b6b3a7625250",
                "code" : "",
                "nonce" : "0x02",
                "storage" : {
                }
            },
            "0xb94f5374fce5edbc8e2a8697c15331677e6ebf0b" : {
                "balance" : "0x00",
                "code" : "0x60003560005260203560205260403560405260603560605260803560805260a03560a05260c03560c052604061012c60806000600060066207a120f2600055604061019060606080600060076207a120f260015561012c51600a5561014c51600b55610190516014556101b051601555601454600a5414600255601554600b5414600355",
                "nonce" : "0x00",
                "storage" : {
                }
            }
        },
        "pre" : {
            "0xa94f5374fce5edbc8e2a8697c15331677e6ebf0b" : {
                "balance" : "0x0de0b6b3a7640000",
                "code" : "",
                "nonce" : "0x01",
                "storage" : {
                }
            },
            "0xb94f5374fce5edbc8e2a8697c15331677e6ebf0b" : {
                "balance" : "0x00",
                "code" : "0x60003560005260203560205260403560405260603560605260803560805260a03560a05260c03560c052604061012c60806000600060066207a120f2600055604061019060606080600060076207a120f260015561012c51600a5561014c51600b55610190516014556101b051601555601454600a5414600255601554600b5414600355",
                "nonce" : "0x00",
                "storage" : {
                }
            }
        }
    },
    "pointMulAdd2_d6g2v0_Homestead" : {
        "_info" : {
            "comment" : "",
            "filledwith" : "cpp-1.3.0+commit.4e101574.Linux.g++",
            "lllcversion" : "Version: 0.4.18-develop.2017.10.11+commit.81f9f86c.Linux.g++",
            "source" : "src/BlockchainTestsFiller/GeneralStateTests/stZeroKnowledge/pointMulAdd2_d6g2v0Filler.json",
            "sourceHash" : "7f7ec94c63c04b34184715af837a2367b7e9a9f2f0bc80015c4d000c388bca42"
        },
        "blocks" : [
            {
                "blockHeader" : {
                    "bloom" : "0x00000000000000000000000000000000000000000000000000000000000000000000000000000000000000000000000000000000000000000000000000000000000000000000000000000000000000000000000000000000000000000000000000000000000000000000000000000000000000000000000000000000000000000000000000000000000000000000000000000000000000000000000000000000000000000000000000000000000000000000000000000000000000000000000000000000000000000000000000000000000000000000000000000000000000000000000000000000000000000000000000000000000000000000000000000000",
                    "coinbase" : "0x68795c4aa09d6f4ed3e5deddf8c2ad3049a601da",
                    "difficulty" : "0x020000",
                    "extraData" : "",
                    "gasLimit" : "0x3d37ef",
                    "gasUsed" : "0x01adb0",
                    "hash" : "0xd0faad3c88c21cae45c715feec59a2144ed3dd21362f22a8095af732908fe054",
                    "mixHash" : "0xf0ad3bf42a56d6de4deb19312af34c55fdc418038ca749ff57df297d9e5c2b4c",
                    "nonce" : "0x6e4a29c9f2214e54",
                    "number" : "0x01",
                    "parentHash" : "0x9b25016c45ce0e295a463681361471a29c00aea06cba17cbc22894ce6d2c1def",
                    "receiptTrie" : "0x0c0528a910b50648e6ca29e49363bc6409f64e46af03049d6eeccd8613a69a41",
                    "stateRoot" : "0x523915750ed47108704d08b2a0bfc7af37131077403e24a49406235ad478cbe5",
                    "timestamp" : "0x03e8",
                    "transactionsTrie" : "0x88feec760fb9f6a4620ae80c2d737002f38d5fd6e5e53c400b2189e0b5ed57f8",
                    "uncleHash" : "0x1dcc4de8dec75d7aab85b567b6ccd41ad312451b948a7413f0a142fd40d49347"
                },
                "rlp" : "0xf90343f901f8a09b25016c45ce0e295a463681361471a29c00aea06cba17cbc22894ce6d2c1defa01dcc4de8dec75d7aab85b567b6ccd41ad312451b948a7413f0a142fd40d493479468795c4aa09d6f4ed3e5deddf8c2ad3049a601daa0523915750ed47108704d08b2a0bfc7af37131077403e24a49406235ad478cbe5a088feec760fb9f6a4620ae80c2d737002f38d5fd6e5e53c400b2189e0b5ed57f8a00c0528a910b50648e6ca29e49363bc6409f64e46af03049d6eeccd8613a69a41b90100000000000000000000000000000000000000000000000000000000000000000000000000000000000000000000000000000000000000000000000000000000000000000000000000000000000000000000000000000000000000000000000000000000000000000000000000000000000000000000000000000000000000000000000000000000000000000000000000000000000000000000000000000000000000000000000000000000000000000000000000000000000000000000000000000000000000000000000000000000000000000000000000000000000000000000000000000000000000000000000000000000000000000000000000000000008302000001833d37ef8301adb08203e880a0f0ad3bf42a56d6de4deb19312af34c55fdc418038ca749ff57df297d9e5c2b4c886e4a29c9f2214e54f90144f9014101018301adb094b94f5374fce5edbc8e2a8697c15331677e6ebf0b80b8e000000000000000000000000000000000000000000000000000000000000000000000000000000000000000000000000000000000000000000000000000000000000000000000000000000000000000000000000000000000000000000000000000000000000000000000000000000000000000000000000000000000000000000000000000000000000000000000000000000000000000000000000000000000000000000000000000000000000000000000000000000000000000000000000030644e72e131a029b85045b68181585d97816a916871ca8d3c208c16d87cfd461ba031e3e84b9e8acf2c9b811352d2627e1e484caacff722ba7394aad219bb542dbda04369e49cea9bae3c1fbda06264248f27fa15850e2f54b987f4f8145f1038cc93c0",
                "transactions" : [
                    {
                        "data" : "0x00000000000000000000000000000000000000000000000000000000000000000000000000000000000000000000000000000000000000000000000000000000000000000000000000000000000000000000000000000000000000000000000000000000000000000000000000000000000000000000000000000000000000000000000000000000000000000000000000000000000000000000000000000000000000000000000000000000000000000000000000000000000000000000000030644e72e131a029b85045b68181585d97816a916871ca8d3c208c16d87cfd46",
                        "gasLimit" : "0x01adb0",
                        "gasPrice" : "0x01",
                        "nonce" : "0x01",
                        "r" : "0x31e3e84b9e8acf2c9b811352d2627e1e484caacff722ba7394aad219bb542dbd",
                        "s" : "0x4369e49cea9bae3c1fbda06264248f27fa15850e2f54b987f4f8145f1038cc93",
                        "to" : "0xb94f5374fce5edbc8e2a8697c15331677e6ebf0b",
                        "v" : "0x1b",
                        "value" : "0x00"
                    }
                ],
                "uncleHeaders" : [
                ]
            }
        ],
        "genesisBlockHeader" : {
            "bloom" : "0x00000000000000000000000000000000000000000000000000000000000000000000000000000000000000000000000000000000000000000000000000000000000000000000000000000000000000000000000000000000000000000000000000000000000000000000000000000000000000000000000000000000000000000000000000000000000000000000000000000000000000000000000000000000000000000000000000000000000000000000000000000000000000000000000000000000000000000000000000000000000000000000000000000000000000000000000000000000000000000000000000000000000000000000000000000000",
            "coinbase" : "0x68795c4aa09d6f4ed3e5deddf8c2ad3049a601da",
            "difficulty" : "0x020000",
            "extraData" : "0x42",
            "gasLimit" : "0x3d37ef",
            "gasUsed" : "0x00",
            "hash" : "0x9b25016c45ce0e295a463681361471a29c00aea06cba17cbc22894ce6d2c1def",
            "mixHash" : "0x56e81f171bcc55a6ff8345e692c0f86e5b48e01b996cadc001622fb5e363b421",
            "nonce" : "0x0102030405060708",
            "number" : "0x00",
            "parentHash" : "0x0000000000000000000000000000000000000000000000000000000000000000",
            "receiptTrie" : "0x56e81f171bcc55a6ff8345e692c0f86e5b48e01b996cadc001622fb5e363b421",
            "stateRoot" : "0xa4db92ceb60668ffcb9642d55fa7fe34cc341b53029d31394d82f0c61462bd99",
            "timestamp" : "0x03b6",
            "transactionsTrie" : "0x56e81f171bcc55a6ff8345e692c0f86e5b48e01b996cadc001622fb5e363b421",
            "uncleHash" : "0x1dcc4de8dec75d7aab85b567b6ccd41ad312451b948a7413f0a142fd40d49347"
        },
        "genesisRLP" : "0xf901faf901f5a00000000000000000000000000000000000000000000000000000000000000000a01dcc4de8dec75d7aab85b567b6ccd41ad312451b948a7413f0a142fd40d493479468795c4aa09d6f4ed3e5deddf8c2ad3049a601daa0a4db92ceb60668ffcb9642d55fa7fe34cc341b53029d31394d82f0c61462bd99a056e81f171bcc55a6ff8345e692c0f86e5b48e01b996cadc001622fb5e363b421a056e81f171bcc55a6ff8345e692c0f86e5b48e01b996cadc001622fb5e363b421b90100000000000000000000000000000000000000000000000000000000000000000000000000000000000000000000000000000000000000000000000000000000000000000000000000000000000000000000000000000000000000000000000000000000000000000000000000000000000000000000000000000000000000000000000000000000000000000000000000000000000000000000000000000000000000000000000000000000000000000000000000000000000000000000000000000000000000000000000000000000000000000000000000000000000000000000000000000000000000000000000000000000000000000000000000000000008302000080833d37ef808203b642a056e81f171bcc55a6ff8345e692c0f86e5b48e01b996cadc001622fb5e363b421880102030405060708c0c0",
        "lastblockhash" : "0xd0faad3c88c21cae45c715feec59a2144ed3dd21362f22a8095af732908fe054",
        "network" : "Homestead",
        "postState" : {
            "0x68795c4aa09d6f4ed3e5deddf8c2ad3049a601da" : {
                "balance" : "0x4563918244f5adb0",
                "code" : "",
                "nonce" : "0x00",
                "storage" : {
                }
            },
            "0xa94f5374fce5edbc8e2a8697c15331677e6ebf0b" : {
                "balance" : "0x0de0b6b3a7625250",
                "code" : "",
                "nonce" : "0x02",
                "storage" : {
                }
            },
            "0xb94f5374fce5edbc8e2a8697c15331677e6ebf0b" : {
                "balance" : "0x00",
                "code" : "0x60003560005260203560205260403560405260603560605260803560805260a03560a05260c03560c052604061012c60806000600060066207a120f2600055604061019060606080600060076207a120f260015561012c51600a5561014c51600b55610190516014556101b051601555601454600a5414600255601554600b5414600355",
                "nonce" : "0x00",
                "storage" : {
                }
            }
        },
        "pre" : {
            "0xa94f5374fce5edbc8e2a8697c15331677e6ebf0b" : {
                "balance" : "0x0de0b6b3a7640000",
                "code" : "",
                "nonce" : "0x01",
                "storage" : {
                }
            },
            "0xb94f5374fce5edbc8e2a8697c15331677e6ebf0b" : {
                "balance" : "0x00",
                "code" : "0x60003560005260203560205260403560405260603560605260803560805260a03560a05260c03560c052604061012c60806000600060066207a120f2600055604061019060606080600060076207a120f260015561012c51600a5561014c51600b55610190516014556101b051601555601454600a5414600255601554600b5414600355",
                "nonce" : "0x00",
                "storage" : {
                }
            }
        }
    }
}