{
    "pointAddTrunc_d9g3v0_Byzantium" : {
        "_info" : {
            "comment" : "",
            "filledwith" : "cpp-1.3.0+commit.4e101574.Linux.g++",
            "lllcversion" : "Version: 0.4.18-develop.2017.10.11+commit.81f9f86c.Linux.g++",
            "source" : "src/BlockchainTestsFiller/GeneralStateTests/stZeroKnowledge/pointAddTrunc_d9g3v0Filler.json",
            "sourceHash" : "0d9fc62b2f6ae1b915085901fe777f9e7855bda2ce259746db7dc7a4fdd02cbf"
        },
        "blocks" : [
            {
                "blockHeader" : {
                    "bloom" : "0x00000000000000000000000000000000000000000000000000000000000000000000000000000000000000000000000000000000000000000000000000000000000000000000000000000000000000000000000000000000000000000000000000000000000000000000000000000000000000000000000000000000000000000000000000000000000000000000000000000000000000000000000000000000000000000000000000000000000000000000000000000000000000000000000000000000000000000000000000000000000000000000000000000000000000000000000000000000000000000000000000000000000000000000000000000000",
                    "coinbase" : "0x68795c4aa09d6f4ed3e5deddf8c2ad3049a601da",
                    "difficulty" : "0x020000",
                    "extraData" : "",
                    "gasLimit" : "0x3d37ef",
                    "gasUsed" : "0x01540d",
                    "hash" : "0xb9340660799a8d9fa9acf3e3e3f66f1a7b739b31a0ee3ff3f349f6249391d75d",
                    "mixHash" : "0x0fc9e4d60d151c2018fab75a8fa452836220c5369f73f4af5e9fac8ecd5bb928",
                    "nonce" : "0x1f42a03576fa71ce",
                    "number" : "0x01",
                    "parentHash" : "0xea87c5d24ed82ffb68c0521efc71e3a600ee9c9dfd47066a830a4374be4b22c3",
                    "receiptTrie" : "0x17e41dfcbf3e5a9ba792077e10d1bd88899035ff30649035ac49a4d455f52498",
                    "stateRoot" : "0x0e4417586e3358afa2ec805e7141a1e222c9069bc6d68afd5326c3fd3bdd53f7",
                    "timestamp" : "0x03e8",
                    "transactionsTrie" : "0xf075fb39fe842bdc58f258520dd497e5367f4b43ea587d12d4457416715b55c6",
                    "uncleHash" : "0x1dcc4de8dec75d7aab85b567b6ccd41ad312451b948a7413f0a142fd40d49347"
                },
                "rlp" : "0xf902e1f901f8a0ea87c5d24ed82ffb68c0521efc71e3a600ee9c9dfd47066a830a4374be4b22c3a01dcc4de8dec75d7aab85b567b6ccd41ad312451b948a7413f0a142fd40d493479468795c4aa09d6f4ed3e5deddf8c2ad3049a601daa00e4417586e3358afa2ec805e7141a1e222c9069bc6d68afd5326c3fd3bdd53f7a0f075fb39fe842bdc58f258520dd497e5367f4b43ea587d12d4457416715b55c6a017e41dfcbf3e5a9ba792077e10d1bd88899035ff30649035ac49a4d455f52498b90100000000000000000000000000000000000000000000000000000000000000000000000000000000000000000000000000000000000000000000000000000000000000000000000000000000000000000000000000000000000000000000000000000000000000000000000000000000000000000000000000000000000000000000000000000000000000000000000000000000000000000000000000000000000000000000000000000000000000000000000000000000000000000000000000000000000000000000000000000000000000000000000000000000000000000000000000000000000000000000000000000000000000000000000000000000008302000001833d37ef8301540d8203e880a00fc9e4d60d151c2018fab75a8fa452836220c5369f73f4af5e9fac8ecd5bb928881f42a03576fa71cef8e3f8e1010183030d4094b94f5374fce5edbc8e2a8697c15331677e6ebf0b80b8800f25929bcb43d5a57391564615c9e70a992b10eafa4db109709649cf48c50dd216da2f5cb6be7a0aa72c440c53c9bbdfec6c36c7d515536431b3a865468acbba000000000000000000000000000000000000000000000000000000000000000100000000000000000000000000000000000000000000000000000000000000021ca05a615f827212e17aceee8abb0616e01941dfe6077e2e5fbae5047153d3571073a054039e1a4a7415d716f03d30d6752e39c56e4b3bfe0cd0dffa466c8600910191c0",
                "transactions" : [
                    {
                        "data" : "0x0f25929bcb43d5a57391564615c9e70a992b10eafa4db109709649cf48c50dd216da2f5cb6be7a0aa72c440c53c9bbdfec6c36c7d515536431b3a865468acbba00000000000000000000000000000000000000000000000000000000000000010000000000000000000000000000000000000000000000000000000000000002",
                        "gasLimit" : "0x030d40",
                        "gasPrice" : "0x01",
                        "nonce" : "0x01",
                        "r" : "0x5a615f827212e17aceee8abb0616e01941dfe6077e2e5fbae5047153d3571073",
                        "s" : "0x54039e1a4a7415d716f03d30d6752e39c56e4b3bfe0cd0dffa466c8600910191",
                        "to" : "0xb94f5374fce5edbc8e2a8697c15331677e6ebf0b",
                        "v" : "0x1c",
                        "value" : "0x00"
                    }
                ],
                "uncleHeaders" : [
                ]
            }
        ],
        "genesisBlockHeader" : {
            "bloom" : "0x00000000000000000000000000000000000000000000000000000000000000000000000000000000000000000000000000000000000000000000000000000000000000000000000000000000000000000000000000000000000000000000000000000000000000000000000000000000000000000000000000000000000000000000000000000000000000000000000000000000000000000000000000000000000000000000000000000000000000000000000000000000000000000000000000000000000000000000000000000000000000000000000000000000000000000000000000000000000000000000000000000000000000000000000000000000",
            "coinbase" : "0x68795c4aa09d6f4ed3e5deddf8c2ad3049a601da",
            "difficulty" : "0x020000",
            "extraData" : "0x42",
            "gasLimit" : "0x3d37ef",
            "gasUsed" : "0x00",
            "hash" : "0xea87c5d24ed82ffb68c0521efc71e3a600ee9c9dfd47066a830a4374be4b22c3",
            "mixHash" : "0x56e81f171bcc55a6ff8345e692c0f86e5b48e01b996cadc001622fb5e363b421",
            "nonce" : "0x0102030405060708",
            "number" : "0x00",
            "parentHash" : "0x0000000000000000000000000000000000000000000000000000000000000000",
            "receiptTrie" : "0x56e81f171bcc55a6ff8345e692c0f86e5b48e01b996cadc001622fb5e363b421",
            "stateRoot" : "0xb95c9f862133abb4f20233da59c5516c6044c64bdc703a511eefc55a13164877",
            "timestamp" : "0x03b6",
            "transactionsTrie" : "0x56e81f171bcc55a6ff8345e692c0f86e5b48e01b996cadc001622fb5e363b421",
            "uncleHash" : "0x1dcc4de8dec75d7aab85b567b6ccd41ad312451b948a7413f0a142fd40d49347"
        },
        "genesisRLP" : "0xf901faf901f5a00000000000000000000000000000000000000000000000000000000000000000a01dcc4de8dec75d7aab85b567b6ccd41ad312451b948a7413f0a142fd40d493479468795c4aa09d6f4ed3e5deddf8c2ad3049a601daa0b95c9f862133abb4f20233da59c5516c6044c64bdc703a511eefc55a13164877a056e81f171bcc55a6ff8345e692c0f86e5b48e01b996cadc001622fb5e363b421a056e81f171bcc55a6ff8345e692c0f86e5b48e01b996cadc001622fb5e363b421b90100000000000000000000000000000000000000000000000000000000000000000000000000000000000000000000000000000000000000000000000000000000000000000000000000000000000000000000000000000000000000000000000000000000000000000000000000000000000000000000000000000000000000000000000000000000000000000000000000000000000000000000000000000000000000000000000000000000000000000000000000000000000000000000000000000000000000000000000000000000000000000000000000000000000000000000000000000000000000000000000000000000000000000000000000000000008302000080833d37ef808203b642a056e81f171bcc55a6ff8345e692c0f86e5b48e01b996cadc001622fb5e363b421880102030405060708c0c0",
        "lastblockhash" : "0xb9340660799a8d9fa9acf3e3e3f66f1a7b739b31a0ee3ff3f349f6249391d75d",
        "network" : "Byzantium",
        "postState" : {
            "0x68795c4aa09d6f4ed3e5deddf8c2ad3049a601da" : {
                "balance" : "0x29a2241af62d540d",
                "code" : "",
                "nonce" : "0x00",
                "storage" : {
                }
            },
            "0xa94f5374fce5edbc8e2a8697c15331677e6ebf0b" : {
                "balance" : "0x0de0b6b3a762abf3",
                "code" : "",
                "nonce" : "0x02",
                "storage" : {
                }
            },
            "0xb94f5374fce5edbc8e2a8697c15331677e6ebf0b" : {
                "balance" : "0x00",
                "code" : "0x600035600052602035602052604035604052606035606052604060c860406000600060066207a120f260005560c85160015560e851600255",
                "nonce" : "0x00",
                "storage" : {
                    "0x00" : "0x01",
                    "0x01" : "0x0f25929bcb43d5a57391564615c9e70a992b10eafa4db109709649cf48c50dd2",
                    "0x02" : "0x16da2f5cb6be7a0aa72c440c53c9bbdfec6c36c7d515536431b3a865468acbba"
                }
            }
        },
        "pre" : {
            "0xa94f5374fce5edbc8e2a8697c15331677e6ebf0b" : {
                "balance" : "0x0de0b6b3a7640000",
                "code" : "",
                "nonce" : "0x01",
                "storage" : {
                }
            },
            "0xb94f5374fce5edbc8e2a8697c15331677e6ebf0b" : {
                "balance" : "0x00",
                "code" : "0x600035600052602035602052604035604052606035606052604060c860406000600060066207a120f260005560c85160015560e851600255",
                "nonce" : "0x00",
                "storage" : {
                }
            }
        }
    },
    "pointAddTrunc_d9g3v0_EIP150" : {
        "_info" : {
            "comment" : "",
            "filledwith" : "cpp-1.3.0+commit.4e101574.Linux.g++",
            "lllcversion" : "Version: 0.4.18-develop.2017.10.11+commit.81f9f86c.Linux.g++",
            "source" : "src/BlockchainTestsFiller/GeneralStateTests/stZeroKnowledge/pointAddTrunc_d9g3v0Filler.json",
            "sourceHash" : "0d9fc62b2f6ae1b915085901fe777f9e7855bda2ce259746db7dc7a4fdd02cbf"
        },
        "blocks" : [
            {
                "blockHeader" : {
                    "bloom" : "0x00000000000000000000000000000000000000000000000000000000000000000000000000000000000000000000000000000000000000000000000000000000000000000000000000000000000000000000000000000000000000000000000000000000000000000000000000000000000000000000000000000000000000000000000000000000000000000000000000000000000000000000000000000000000000000000000000000000000000000000000000000000000000000000000000000000000000000000000000000000000000000000000000000000000000000000000000000000000000000000000000000000000000000000000000000000",
                    "coinbase" : "0x68795c4aa09d6f4ed3e5deddf8c2ad3049a601da",
                    "difficulty" : "0x020000",
                    "extraData" : "",
                    "gasLimit" : "0x3d37ef",
                    "gasUsed" : "0xdce9",
                    "hash" : "0x61284a67bb45df59be7dff197d3c1c8160a2eb6259cd2e9355af58996f13bd08",
                    "mixHash" : "0x9e2195924a197dc10e22e65464ce2bd1ba48b333bdb84ce63ad1899001aee75c",
                    "nonce" : "0xf1a4741f03d847ab",
                    "number" : "0x01",
                    "parentHash" : "0xea87c5d24ed82ffb68c0521efc71e3a600ee9c9dfd47066a830a4374be4b22c3",
                    "receiptTrie" : "0x6a8e5905a49cd1ffc0caebd6930db2abbb75a64e3d21dddd00d3988317ac7b45",
                    "stateRoot" : "0x2e4e447e2e104c7027a0d1d4840a87a57cf333d73b9113a7009e365537f35ce7",
                    "timestamp" : "0x03e8",
                    "transactionsTrie" : "0xf075fb39fe842bdc58f258520dd497e5367f4b43ea587d12d4457416715b55c6",
                    "uncleHash" : "0x1dcc4de8dec75d7aab85b567b6ccd41ad312451b948a7413f0a142fd40d49347"
                },
                "rlp" : "0xf902e0f901f7a0ea87c5d24ed82ffb68c0521efc71e3a600ee9c9dfd47066a830a4374be4b22c3a01dcc4de8dec75d7aab85b567b6ccd41ad312451b948a7413f0a142fd40d493479468795c4aa09d6f4ed3e5deddf8c2ad3049a601daa02e4e447e2e104c7027a0d1d4840a87a57cf333d73b9113a7009e365537f35ce7a0f075fb39fe842bdc58f258520dd497e5367f4b43ea587d12d4457416715b55c6a06a8e5905a49cd1ffc0caebd6930db2abbb75a64e3d21dddd00d3988317ac7b45b90100000000000000000000000000000000000000000000000000000000000000000000000000000000000000000000000000000000000000000000000000000000000000000000000000000000000000000000000000000000000000000000000000000000000000000000000000000000000000000000000000000000000000000000000000000000000000000000000000000000000000000000000000000000000000000000000000000000000000000000000000000000000000000000000000000000000000000000000000000000000000000000000000000000000000000000000000000000000000000000000000000000000000000000000000000000008302000001833d37ef82dce98203e880a09e2195924a197dc10e22e65464ce2bd1ba48b333bdb84ce63ad1899001aee75c88f1a4741f03d847abf8e3f8e1010183030d4094b94f5374fce5edbc8e2a8697c15331677e6ebf0b80b8800f25929bcb43d5a57391564615c9e70a992b10eafa4db109709649cf48c50dd216da2f5cb6be7a0aa72c440c53c9bbdfec6c36c7d515536431b3a865468acbba000000000000000000000000000000000000000000000000000000000000000100000000000000000000000000000000000000000000000000000000000000021ca05a615f827212e17aceee8abb0616e01941dfe6077e2e5fbae5047153d3571073a054039e1a4a7415d716f03d30d6752e39c56e4b3bfe0cd0dffa466c8600910191c0",
                "transactions" : [
                    {
                        "data" : "0x0f25929bcb43d5a57391564615c9e70a992b10eafa4db109709649cf48c50dd216da2f5cb6be7a0aa72c440c53c9bbdfec6c36c7d515536431b3a865468acbba00000000000000000000000000000000000000000000000000000000000000010000000000000000000000000000000000000000000000000000000000000002",
                        "gasLimit" : "0x030d40",
                        "gasPrice" : "0x01",
                        "nonce" : "0x01",
                        "r" : "0x5a615f827212e17aceee8abb0616e01941dfe6077e2e5fbae5047153d3571073",
                        "s" : "0x54039e1a4a7415d716f03d30d6752e39c56e4b3bfe0cd0dffa466c8600910191",
                        "to" : "0xb94f5374fce5edbc8e2a8697c15331677e6ebf0b",
                        "v" : "0x1c",
                        "value" : "0x00"
                    }
                ],
                "uncleHeaders" : [
                ]
            }
        ],
        "genesisBlockHeader" : {
            "bloom" : "0x00000000000000000000000000000000000000000000000000000000000000000000000000000000000000000000000000000000000000000000000000000000000000000000000000000000000000000000000000000000000000000000000000000000000000000000000000000000000000000000000000000000000000000000000000000000000000000000000000000000000000000000000000000000000000000000000000000000000000000000000000000000000000000000000000000000000000000000000000000000000000000000000000000000000000000000000000000000000000000000000000000000000000000000000000000000",
            "coinbase" : "0x68795c4aa09d6f4ed3e5deddf8c2ad3049a601da",
            "difficulty" : "0x020000",
            "extraData" : "0x42",
            "gasLimit" : "0x3d37ef",
            "gasUsed" : "0x00",
            "hash" : "0xea87c5d24ed82ffb68c0521efc71e3a600ee9c9dfd47066a830a4374be4b22c3",
            "mixHash" : "0x56e81f171bcc55a6ff8345e692c0f86e5b48e01b996cadc001622fb5e363b421",
            "nonce" : "0x0102030405060708",
            "number" : "0x00",
            "parentHash" : "0x0000000000000000000000000000000000000000000000000000000000000000",
            "receiptTrie" : "0x56e81f171bcc55a6ff8345e692c0f86e5b48e01b996cadc001622fb5e363b421",
            "stateRoot" : "0xb95c9f862133abb4f20233da59c5516c6044c64bdc703a511eefc55a13164877",
            "timestamp" : "0x03b6",
            "transactionsTrie" : "0x56e81f171bcc55a6ff8345e692c0f86e5b48e01b996cadc001622fb5e363b421",
            "uncleHash" : "0x1dcc4de8dec75d7aab85b567b6ccd41ad312451b948a7413f0a142fd40d49347"
        },
        "genesisRLP" : "0xf901faf901f5a00000000000000000000000000000000000000000000000000000000000000000a01dcc4de8dec75d7aab85b567b6ccd41ad312451b948a7413f0a142fd40d493479468795c4aa09d6f4ed3e5deddf8c2ad3049a601daa0b95c9f862133abb4f20233da59c5516c6044c64bdc703a511eefc55a13164877a056e81f171bcc55a6ff8345e692c0f86e5b48e01b996cadc001622fb5e363b421a056e81f171bcc55a6ff8345e692c0f86e5b48e01b996cadc001622fb5e363b421b90100000000000000000000000000000000000000000000000000000000000000000000000000000000000000000000000000000000000000000000000000000000000000000000000000000000000000000000000000000000000000000000000000000000000000000000000000000000000000000000000000000000000000000000000000000000000000000000000000000000000000000000000000000000000000000000000000000000000000000000000000000000000000000000000000000000000000000000000000000000000000000000000000000000000000000000000000000000000000000000000000000000000000000000000000000000008302000080833d37ef808203b642a056e81f171bcc55a6ff8345e692c0f86e5b48e01b996cadc001622fb5e363b421880102030405060708c0c0",
        "lastblockhash" : "0x61284a67bb45df59be7dff197d3c1c8160a2eb6259cd2e9355af58996f13bd08",
        "network" : "EIP150",
        "postState" : {
            "0x68795c4aa09d6f4ed3e5deddf8c2ad3049a601da" : {
                "balance" : "0x4563918244f4dce9",
                "code" : "",
                "nonce" : "0x00",
                "storage" : {
                }
            },
            "0xa94f5374fce5edbc8e2a8697c15331677e6ebf0b" : {
                "balance" : "0x0de0b6b3a7632317",
                "code" : "",
                "nonce" : "0x02",
                "storage" : {
                }
            },
            "0xb94f5374fce5edbc8e2a8697c15331677e6ebf0b" : {
                "balance" : "0x00",
                "code" : "0x600035600052602035602052604035604052606035606052604060c860406000600060066207a120f260005560c85160015560e851600255",
                "nonce" : "0x00",
                "storage" : {
                    "0x00" : "0x01"
                }
            }
        },
        "pre" : {
            "0xa94f5374fce5edbc8e2a8697c15331677e6ebf0b" : {
                "balance" : "0x0de0b6b3a7640000",
                "code" : "",
                "nonce" : "0x01",
                "storage" : {
                }
            },
            "0xb94f5374fce5edbc8e2a8697c15331677e6ebf0b" : {
                "balance" : "0x00",
                "code" : "0x600035600052602035602052604035604052606035606052604060c860406000600060066207a120f260005560c85160015560e851600255",
                "nonce" : "0x00",
                "storage" : {
                }
            }
        }
    },
    "pointAddTrunc_d9g3v0_EIP158" : {
        "_info" : {
            "comment" : "",
            "filledwith" : "cpp-1.3.0+commit.4e101574.Linux.g++",
            "lllcversion" : "Version: 0.4.18-develop.2017.10.11+commit.81f9f86c.Linux.g++",
            "source" : "src/BlockchainTestsFiller/GeneralStateTests/stZeroKnowledge/pointAddTrunc_d9g3v0Filler.json",
            "sourceHash" : "0d9fc62b2f6ae1b915085901fe777f9e7855bda2ce259746db7dc7a4fdd02cbf"
        },
        "blocks" : [
            {
                "blockHeader" : {
                    "bloom" : "0x00000000000000000000000000000000000000000000000000000000000000000000000000000000000000000000000000000000000000000000000000000000000000000000000000000000000000000000000000000000000000000000000000000000000000000000000000000000000000000000000000000000000000000000000000000000000000000000000000000000000000000000000000000000000000000000000000000000000000000000000000000000000000000000000000000000000000000000000000000000000000000000000000000000000000000000000000000000000000000000000000000000000000000000000000000000",
                    "coinbase" : "0x68795c4aa09d6f4ed3e5deddf8c2ad3049a601da",
                    "difficulty" : "0x020000",
                    "extraData" : "",
                    "gasLimit" : "0x3d37ef",
                    "gasUsed" : "0xdce9",
                    "hash" : "0xfddec419712707daaea5b07d77e65fbdaa35e043def4225e484c8d758f19aefe",
                    "mixHash" : "0x23528fe6ff4639809be94b93ed404fa266109b9b7754c35c80e5bda1afb9f2c8",
                    "nonce" : "0xed977b1491710b38",
                    "number" : "0x01",
                    "parentHash" : "0xea87c5d24ed82ffb68c0521efc71e3a600ee9c9dfd47066a830a4374be4b22c3",
                    "receiptTrie" : "0x6a8e5905a49cd1ffc0caebd6930db2abbb75a64e3d21dddd00d3988317ac7b45",
                    "stateRoot" : "0x2e4e447e2e104c7027a0d1d4840a87a57cf333d73b9113a7009e365537f35ce7",
                    "timestamp" : "0x03e8",
                    "transactionsTrie" : "0xf075fb39fe842bdc58f258520dd497e5367f4b43ea587d12d4457416715b55c6",
                    "uncleHash" : "0x1dcc4de8dec75d7aab85b567b6ccd41ad312451b948a7413f0a142fd40d49347"
                },
                "rlp" : "0xf902e0f901f7a0ea87c5d24ed82ffb68c0521efc71e3a600ee9c9dfd47066a830a4374be4b22c3a01dcc4de8dec75d7aab85b567b6ccd41ad312451b948a7413f0a142fd40d493479468795c4aa09d6f4ed3e5deddf8c2ad3049a601daa02e4e447e2e104c7027a0d1d4840a87a57cf333d73b9113a7009e365537f35ce7a0f075fb39fe842bdc58f258520dd497e5367f4b43ea587d12d4457416715b55c6a06a8e5905a49cd1ffc0caebd6930db2abbb75a64e3d21dddd00d3988317ac7b45b90100000000000000000000000000000000000000000000000000000000000000000000000000000000000000000000000000000000000000000000000000000000000000000000000000000000000000000000000000000000000000000000000000000000000000000000000000000000000000000000000000000000000000000000000000000000000000000000000000000000000000000000000000000000000000000000000000000000000000000000000000000000000000000000000000000000000000000000000000000000000000000000000000000000000000000000000000000000000000000000000000000000000000000000000000000000008302000001833d37ef82dce98203e880a023528fe6ff4639809be94b93ed404fa266109b9b7754c35c80e5bda1afb9f2c888ed977b1491710b38f8e3f8e1010183030d4094b94f5374fce5edbc8e2a8697c15331677e6ebf0b80b8800f25929bcb43d5a57391564615c9e70a992b10eafa4db109709649cf48c50dd216da2f5cb6be7a0aa72c440c53c9bbdfec6c36c7d515536431b3a865468acbba000000000000000000000000000000000000000000000000000000000000000100000000000000000000000000000000000000000000000000000000000000021ca05a615f827212e17aceee8abb0616e01941dfe6077e2e5fbae5047153d3571073a054039e1a4a7415d716f03d30d6752e39c56e4b3bfe0cd0dffa466c8600910191c0",
                "transactions" : [
                    {
                        "data" : "0x0f25929bcb43d5a57391564615c9e70a992b10eafa4db109709649cf48c50dd216da2f5cb6be7a0aa72c440c53c9bbdfec6c36c7d515536431b3a865468acbba00000000000000000000000000000000000000000000000000000000000000010000000000000000000000000000000000000000000000000000000000000002",
                        "gasLimit" : "0x030d40",
                        "gasPrice" : "0x01",
                        "nonce" : "0x01",
                        "r" : "0x5a615f827212e17aceee8abb0616e01941dfe6077e2e5fbae5047153d3571073",
                        "s" : "0x54039e1a4a7415d716f03d30d6752e39c56e4b3bfe0cd0dffa466c8600910191",
                        "to" : "0xb94f5374fce5edbc8e2a8697c15331677e6ebf0b",
                        "v" : "0x1c",
                        "value" : "0x00"
                    }
                ],
                "uncleHeaders" : [
                ]
            }
        ],
        "genesisBlockHeader" : {
            "bloom" : "0x00000000000000000000000000000000000000000000000000000000000000000000000000000000000000000000000000000000000000000000000000000000000000000000000000000000000000000000000000000000000000000000000000000000000000000000000000000000000000000000000000000000000000000000000000000000000000000000000000000000000000000000000000000000000000000000000000000000000000000000000000000000000000000000000000000000000000000000000000000000000000000000000000000000000000000000000000000000000000000000000000000000000000000000000000000000",
            "coinbase" : "0x68795c4aa09d6f4ed3e5deddf8c2ad3049a601da",
            "difficulty" : "0x020000",
            "extraData" : "0x42",
            "gasLimit" : "0x3d37ef",
            "gasUsed" : "0x00",
            "hash" : "0xea87c5d24ed82ffb68c0521efc71e3a600ee9c9dfd47066a830a4374be4b22c3",
            "mixHash" : "0x56e81f171bcc55a6ff8345e692c0f86e5b48e01b996cadc001622fb5e363b421",
            "nonce" : "0x0102030405060708",
            "number" : "0x00",
            "parentHash" : "0x0000000000000000000000000000000000000000000000000000000000000000",
            "receiptTrie" : "0x56e81f171bcc55a6ff8345e692c0f86e5b48e01b996cadc001622fb5e363b421",
            "stateRoot" : "0xb95c9f862133abb4f20233da59c5516c6044c64bdc703a511eefc55a13164877",
            "timestamp" : "0x03b6",
            "transactionsTrie" : "0x56e81f171bcc55a6ff8345e692c0f86e5b48e01b996cadc001622fb5e363b421",
            "uncleHash" : "0x1dcc4de8dec75d7aab85b567b6ccd41ad312451b948a7413f0a142fd40d49347"
        },
        "genesisRLP" : "0xf901faf901f5a00000000000000000000000000000000000000000000000000000000000000000a01dcc4de8dec75d7aab85b567b6ccd41ad312451b948a7413f0a142fd40d493479468795c4aa09d6f4ed3e5deddf8c2ad3049a601daa0b95c9f862133abb4f20233da59c5516c6044c64bdc703a511eefc55a13164877a056e81f171bcc55a6ff8345e692c0f86e5b48e01b996cadc001622fb5e363b421a056e81f171bcc55a6ff8345e692c0f86e5b48e01b996cadc001622fb5e363b421b90100000000000000000000000000000000000000000000000000000000000000000000000000000000000000000000000000000000000000000000000000000000000000000000000000000000000000000000000000000000000000000000000000000000000000000000000000000000000000000000000000000000000000000000000000000000000000000000000000000000000000000000000000000000000000000000000000000000000000000000000000000000000000000000000000000000000000000000000000000000000000000000000000000000000000000000000000000000000000000000000000000000000000000000000000000000008302000080833d37ef808203b642a056e81f171bcc55a6ff8345e692c0f86e5b48e01b996cadc001622fb5e363b421880102030405060708c0c0",
        "lastblockhash" : "0xfddec419712707daaea5b07d77e65fbdaa35e043def4225e484c8d758f19aefe",
        "network" : "EIP158",
        "postState" : {
            "0x68795c4aa09d6f4ed3e5deddf8c2ad3049a601da" : {
                "balance" : "0x4563918244f4dce9",
                "code" : "",
                "nonce" : "0x00",
                "storage" : {
                }
            },
            "0xa94f5374fce5edbc8e2a8697c15331677e6ebf0b" : {
                "balance" : "0x0de0b6b3a7632317",
                "code" : "",
                "nonce" : "0x02",
                "storage" : {
                }
            },
            "0xb94f5374fce5edbc8e2a8697c15331677e6ebf0b" : {
                "balance" : "0x00",
                "code" : "0x600035600052602035602052604035604052606035606052604060c860406000600060066207a120f260005560c85160015560e851600255",
                "nonce" : "0x00",
                "storage" : {
                    "0x00" : "0x01"
                }
            }
        },
        "pre" : {
            "0xa94f5374fce5edbc8e2a8697c15331677e6ebf0b" : {
                "balance" : "0x0de0b6b3a7640000",
                "code" : "",
                "nonce" : "0x01",
                "storage" : {
                }
            },
            "0xb94f5374fce5edbc8e2a8697c15331677e6ebf0b" : {
                "balance" : "0x00",
                "code" : "0x600035600052602035602052604035604052606035606052604060c860406000600060066207a120f260005560c85160015560e851600255",
                "nonce" : "0x00",
                "storage" : {
                }
            }
        }
    },
    "pointAddTrunc_d9g3v0_Frontier" : {
        "_info" : {
            "comment" : "",
            "filledwith" : "cpp-1.3.0+commit.4e101574.Linux.g++",
            "lllcversion" : "Version: 0.4.18-develop.2017.10.11+commit.81f9f86c.Linux.g++",
            "source" : "src/BlockchainTestsFiller/GeneralStateTests/stZeroKnowledge/pointAddTrunc_d9g3v0Filler.json",
            "sourceHash" : "0d9fc62b2f6ae1b915085901fe777f9e7855bda2ce259746db7dc7a4fdd02cbf"
        },
        "blocks" : [
            {
                "blockHeader" : {
                    "bloom" : "0x00000000000000000000000000000000000000000000000000000000000000000000000000000000000000000000000000000000000000000000000000000000000000000000000000000000000000000000000000000000000000000000000000000000000000000000000000000000000000000000000000000000000000000000000000000000000000000000000000000000000000000000000000000000000000000000000000000000000000000000000000000000000000000000000000000000000000000000000000000000000000000000000000000000000000000000000000000000000000000000000000000000000000000000000000000000",
                    "coinbase" : "0x68795c4aa09d6f4ed3e5deddf8c2ad3049a601da",
                    "difficulty" : "0x020000",
                    "extraData" : "",
                    "gasLimit" : "0x3d37ef",
                    "gasUsed" : "0x030d40",
                    "hash" : "0x5f9661b6610822d2d77ace52ac1cad7008d21a4a88dd81f6efc97cbf8e5d0ff3",
                    "mixHash" : "0xa3cd2deea06e2feac76315f1eb7e54cb0f5b2c358ce00528ef91115369b341b6",
                    "nonce" : "0x87719354189bc967",
                    "number" : "0x01",
                    "parentHash" : "0xea87c5d24ed82ffb68c0521efc71e3a600ee9c9dfd47066a830a4374be4b22c3",
                    "receiptTrie" : "0xe7cd495d83d3e3d4505d76578e66542d950fecf9434ee957a2b17818ea66565b",
                    "stateRoot" : "0xe3ab9f65d1e63a8c4135ee13ffa6d5af7fa2150d93c140bf7f5e2d4c2b8728b4",
                    "timestamp" : "0x03e8",
                    "transactionsTrie" : "0xf075fb39fe842bdc58f258520dd497e5367f4b43ea587d12d4457416715b55c6",
                    "uncleHash" : "0x1dcc4de8dec75d7aab85b567b6ccd41ad312451b948a7413f0a142fd40d49347"
                },
                "rlp" : "0xf902e1f901f8a0ea87c5d24ed82ffb68c0521efc71e3a600ee9c9dfd47066a830a4374be4b22c3a01dcc4de8dec75d7aab85b567b6ccd41ad312451b948a7413f0a142fd40d493479468795c4aa09d6f4ed3e5deddf8c2ad3049a601daa0e3ab9f65d1e63a8c4135ee13ffa6d5af7fa2150d93c140bf7f5e2d4c2b8728b4a0f075fb39fe842bdc58f258520dd497e5367f4b43ea587d12d4457416715b55c6a0e7cd495d83d3e3d4505d76578e66542d950fecf9434ee957a2b17818ea66565bb90100000000000000000000000000000000000000000000000000000000000000000000000000000000000000000000000000000000000000000000000000000000000000000000000000000000000000000000000000000000000000000000000000000000000000000000000000000000000000000000000000000000000000000000000000000000000000000000000000000000000000000000000000000000000000000000000000000000000000000000000000000000000000000000000000000000000000000000000000000000000000000000000000000000000000000000000000000000000000000000000000000000000000000000000000000000008302000001833d37ef83030d408203e880a0a3cd2deea06e2feac76315f1eb7e54cb0f5b2c358ce00528ef91115369b341b68887719354189bc967f8e3f8e1010183030d4094b94f5374fce5edbc8e2a8697c15331677e6ebf0b80b8800f25929bcb43d5a57391564615c9e70a992b10eafa4db109709649cf48c50dd216da2f5cb6be7a0aa72c440c53c9bbdfec6c36c7d515536431b3a865468acbba000000000000000000000000000000000000000000000000000000000000000100000000000000000000000000000000000000000000000000000000000000021ca05a615f827212e17aceee8abb0616e01941dfe6077e2e5fbae5047153d3571073a054039e1a4a7415d716f03d30d6752e39c56e4b3bfe0cd0dffa466c8600910191c0",
                "transactions" : [
                    {
                        "data" : "0x0f25929bcb43d5a57391564615c9e70a992b10eafa4db109709649cf48c50dd216da2f5cb6be7a0aa72c440c53c9bbdfec6c36c7d515536431b3a865468acbba00000000000000000000000000000000000000000000000000000000000000010000000000000000000000000000000000000000000000000000000000000002",
                        "gasLimit" : "0x030d40",
                        "gasPrice" : "0x01",
                        "nonce" : "0x01",
                        "r" : "0x5a615f827212e17aceee8abb0616e01941dfe6077e2e5fbae5047153d3571073",
                        "s" : "0x54039e1a4a7415d716f03d30d6752e39c56e4b3bfe0cd0dffa466c8600910191",
                        "to" : "0xb94f5374fce5edbc8e2a8697c15331677e6ebf0b",
                        "v" : "0x1c",
                        "value" : "0x00"
                    }
                ],
                "uncleHeaders" : [
                ]
            }
        ],
        "genesisBlockHeader" : {
            "bloom" : "0x00000000000000000000000000000000000000000000000000000000000000000000000000000000000000000000000000000000000000000000000000000000000000000000000000000000000000000000000000000000000000000000000000000000000000000000000000000000000000000000000000000000000000000000000000000000000000000000000000000000000000000000000000000000000000000000000000000000000000000000000000000000000000000000000000000000000000000000000000000000000000000000000000000000000000000000000000000000000000000000000000000000000000000000000000000000",
            "coinbase" : "0x68795c4aa09d6f4ed3e5deddf8c2ad3049a601da",
            "difficulty" : "0x020000",
            "extraData" : "0x42",
            "gasLimit" : "0x3d37ef",
            "gasUsed" : "0x00",
            "hash" : "0xea87c5d24ed82ffb68c0521efc71e3a600ee9c9dfd47066a830a4374be4b22c3",
            "mixHash" : "0x56e81f171bcc55a6ff8345e692c0f86e5b48e01b996cadc001622fb5e363b421",
            "nonce" : "0x0102030405060708",
            "number" : "0x00",
            "parentHash" : "0x0000000000000000000000000000000000000000000000000000000000000000",
            "receiptTrie" : "0x56e81f171bcc55a6ff8345e692c0f86e5b48e01b996cadc001622fb5e363b421",
            "stateRoot" : "0xb95c9f862133abb4f20233da59c5516c6044c64bdc703a511eefc55a13164877",
            "timestamp" : "0x03b6",
            "transactionsTrie" : "0x56e81f171bcc55a6ff8345e692c0f86e5b48e01b996cadc001622fb5e363b421",
            "uncleHash" : "0x1dcc4de8dec75d7aab85b567b6ccd41ad312451b948a7413f0a142fd40d49347"
        },
        "genesisRLP" : "0xf901faf901f5a00000000000000000000000000000000000000000000000000000000000000000a01dcc4de8dec75d7aab85b567b6ccd41ad312451b948a7413f0a142fd40d493479468795c4aa09d6f4ed3e5deddf8c2ad3049a601daa0b95c9f862133abb4f20233da59c5516c6044c64bdc703a511eefc55a13164877a056e81f171bcc55a6ff8345e692c0f86e5b48e01b996cadc001622fb5e363b421a056e81f171bcc55a6ff8345e692c0f86e5b48e01b996cadc001622fb5e363b421b90100000000000000000000000000000000000000000000000000000000000000000000000000000000000000000000000000000000000000000000000000000000000000000000000000000000000000000000000000000000000000000000000000000000000000000000000000000000000000000000000000000000000000000000000000000000000000000000000000000000000000000000000000000000000000000000000000000000000000000000000000000000000000000000000000000000000000000000000000000000000000000000000000000000000000000000000000000000000000000000000000000000000000000000000000000000008302000080833d37ef808203b642a056e81f171bcc55a6ff8345e692c0f86e5b48e01b996cadc001622fb5e363b421880102030405060708c0c0",
        "lastblockhash" : "0x5f9661b6610822d2d77ace52ac1cad7008d21a4a88dd81f6efc97cbf8e5d0ff3",
        "network" : "Frontier",
        "postState" : {
            "0x68795c4aa09d6f4ed3e5deddf8c2ad3049a601da" : {
                "balance" : "0x4563918244f70d40",
                "code" : "",
                "nonce" : "0x00",
                "storage" : {
                }
            },
            "0xa94f5374fce5edbc8e2a8697c15331677e6ebf0b" : {
                "balance" : "0x0de0b6b3a760f2c0",
                "code" : "",
                "nonce" : "0x02",
                "storage" : {
                }
            },
            "0xb94f5374fce5edbc8e2a8697c15331677e6ebf0b" : {
                "balance" : "0x00",
                "code" : "0x600035600052602035602052604035604052606035606052604060c860406000600060066207a120f260005560c85160015560e851600255",
                "nonce" : "0x00",
                "storage" : {
                }
            }
        },
        "pre" : {
            "0xa94f5374fce5edbc8e2a8697c15331677e6ebf0b" : {
                "balance" : "0x0de0b6b3a7640000",
                "code" : "",
                "nonce" : "0x01",
                "storage" : {
                }
            },
            "0xb94f5374fce5edbc8e2a8697c15331677e6ebf0b" : {
                "balance" : "0x00",
                "code" : "0x600035600052602035602052604035604052606035606052604060c860406000600060066207a120f260005560c85160015560e851600255",
                "nonce" : "0x00",
                "storage" : {
                }
            }
        }
    },
    "pointAddTrunc_d9g3v0_Homestead" : {
        "_info" : {
            "comment" : "",
            "filledwith" : "cpp-1.3.0+commit.4e101574.Linux.g++",
            "lllcversion" : "Version: 0.4.18-develop.2017.10.11+commit.81f9f86c.Linux.g++",
            "source" : "src/BlockchainTestsFiller/GeneralStateTests/stZeroKnowledge/pointAddTrunc_d9g3v0Filler.json",
            "sourceHash" : "0d9fc62b2f6ae1b915085901fe777f9e7855bda2ce259746db7dc7a4fdd02cbf"
        },
        "blocks" : [
            {
                "blockHeader" : {
                    "bloom" : "0x00000000000000000000000000000000000000000000000000000000000000000000000000000000000000000000000000000000000000000000000000000000000000000000000000000000000000000000000000000000000000000000000000000000000000000000000000000000000000000000000000000000000000000000000000000000000000000000000000000000000000000000000000000000000000000000000000000000000000000000000000000000000000000000000000000000000000000000000000000000000000000000000000000000000000000000000000000000000000000000000000000000000000000000000000000000",
                    "coinbase" : "0x68795c4aa09d6f4ed3e5deddf8c2ad3049a601da",
                    "difficulty" : "0x020000",
                    "extraData" : "",
                    "gasLimit" : "0x3d37ef",
                    "gasUsed" : "0x030d40",
                    "hash" : "0xdfbea2b7018def89c1b51c5ff6897ee088647e0bb0788a4b629765286ba646a1",
                    "mixHash" : "0xd4994602a6714482724213954012cf4aa308b4b4ff89d6485b8349c5b33436ca",
                    "nonce" : "0x7920e19105f29602",
                    "number" : "0x01",
                    "parentHash" : "0xea87c5d24ed82ffb68c0521efc71e3a600ee9c9dfd47066a830a4374be4b22c3",
                    "receiptTrie" : "0xe7cd495d83d3e3d4505d76578e66542d950fecf9434ee957a2b17818ea66565b",
                    "stateRoot" : "0xe3ab9f65d1e63a8c4135ee13ffa6d5af7fa2150d93c140bf7f5e2d4c2b8728b4",
                    "timestamp" : "0x03e8",
                    "transactionsTrie" : "0xf075fb39fe842bdc58f258520dd497e5367f4b43ea587d12d4457416715b55c6",
                    "uncleHash" : "0x1dcc4de8dec75d7aab85b567b6ccd41ad312451b948a7413f0a142fd40d49347"
                },
                "rlp" : "0xf902e1f901f8a0ea87c5d24ed82ffb68c0521efc71e3a600ee9c9dfd47066a830a4374be4b22c3a01dcc4de8dec75d7aab85b567b6ccd41ad312451b948a7413f0a142fd40d493479468795c4aa09d6f4ed3e5deddf8c2ad3049a601daa0e3ab9f65d1e63a8c4135ee13ffa6d5af7fa2150d93c140bf7f5e2d4c2b8728b4a0f075fb39fe842bdc58f258520dd497e5367f4b43ea587d12d4457416715b55c6a0e7cd495d83d3e3d4505d76578e66542d950fecf9434ee957a2b17818ea66565bb90100000000000000000000000000000000000000000000000000000000000000000000000000000000000000000000000000000000000000000000000000000000000000000000000000000000000000000000000000000000000000000000000000000000000000000000000000000000000000000000000000000000000000000000000000000000000000000000000000000000000000000000000000000000000000000000000000000000000000000000000000000000000000000000000000000000000000000000000000000000000000000000000000000000000000000000000000000000000000000000000000000000000000000000000000000000008302000001833d37ef83030d408203e880a0d4994602a6714482724213954012cf4aa308b4b4ff89d6485b8349c5b33436ca887920e19105f29602f8e3f8e1010183030d4094b94f5374fce5edbc8e2a8697c15331677e6ebf0b80b8800f25929bcb43d5a57391564615c9e70a992b10eafa4db109709649cf48c50dd216da2f5cb6be7a0aa72c440c53c9bbdfec6c36c7d515536431b3a865468acbba000000000000000000000000000000000000000000000000000000000000000100000000000000000000000000000000000000000000000000000000000000021ca05a615f827212e17aceee8abb0616e01941dfe6077e2e5fbae5047153d3571073a054039e1a4a7415d716f03d30d6752e39c56e4b3bfe0cd0dffa466c8600910191c0",
                "transactions" : [
                    {
                        "data" : "0x0f25929bcb43d5a57391564615c9e70a992b10eafa4db109709649cf48c50dd216da2f5cb6be7a0aa72c440c53c9bbdfec6c36c7d515536431b3a865468acbba00000000000000000000000000000000000000000000000000000000000000010000000000000000000000000000000000000000000000000000000000000002",
                        "gasLimit" : "0x030d40",
                        "gasPrice" : "0x01",
                        "nonce" : "0x01",
                        "r" : "0x5a615f827212e17aceee8abb0616e01941dfe6077e2e5fbae5047153d3571073",
                        "s" : "0x54039e1a4a7415d716f03d30d6752e39c56e4b3bfe0cd0dffa466c8600910191",
                        "to" : "0xb94f5374fce5edbc8e2a8697c15331677e6ebf0b",
                        "v" : "0x1c",
                        "value" : "0x00"
                    }
                ],
                "uncleHeaders" : [
                ]
            }
        ],
        "genesisBlockHeader" : {
            "bloom" : "0x00000000000000000000000000000000000000000000000000000000000000000000000000000000000000000000000000000000000000000000000000000000000000000000000000000000000000000000000000000000000000000000000000000000000000000000000000000000000000000000000000000000000000000000000000000000000000000000000000000000000000000000000000000000000000000000000000000000000000000000000000000000000000000000000000000000000000000000000000000000000000000000000000000000000000000000000000000000000000000000000000000000000000000000000000000000",
            "coinbase" : "0x68795c4aa09d6f4ed3e5deddf8c2ad3049a601da",
            "difficulty" : "0x020000",
            "extraData" : "0x42",
            "gasLimit" : "0x3d37ef",
            "gasUsed" : "0x00",
            "hash" : "0xea87c5d24ed82ffb68c0521efc71e3a600ee9c9dfd47066a830a4374be4b22c3",
            "mixHash" : "0x56e81f171bcc55a6ff8345e692c0f86e5b48e01b996cadc001622fb5e363b421",
            "nonce" : "0x0102030405060708",
            "number" : "0x00",
            "parentHash" : "0x0000000000000000000000000000000000000000000000000000000000000000",
            "receiptTrie" : "0x56e81f171bcc55a6ff8345e692c0f86e5b48e01b996cadc001622fb5e363b421",
            "stateRoot" : "0xb95c9f862133abb4f20233da59c5516c6044c64bdc703a511eefc55a13164877",
            "timestamp" : "0x03b6",
            "transactionsTrie" : "0x56e81f171bcc55a6ff8345e692c0f86e5b48e01b996cadc001622fb5e363b421",
            "uncleHash" : "0x1dcc4de8dec75d7aab85b567b6ccd41ad312451b948a7413f0a142fd40d49347"
        },
        "genesisRLP" : "0xf901faf901f5a00000000000000000000000000000000000000000000000000000000000000000a01dcc4de8dec75d7aab85b567b6ccd41ad312451b948a7413f0a142fd40d493479468795c4aa09d6f4ed3e5deddf8c2ad3049a601daa0b95c9f862133abb4f20233da59c5516c6044c64bdc703a511eefc55a13164877a056e81f171bcc55a6ff8345e692c0f86e5b48e01b996cadc001622fb5e363b421a056e81f171bcc55a6ff8345e692c0f86e5b48e01b996cadc001622fb5e363b421b90100000000000000000000000000000000000000000000000000000000000000000000000000000000000000000000000000000000000000000000000000000000000000000000000000000000000000000000000000000000000000000000000000000000000000000000000000000000000000000000000000000000000000000000000000000000000000000000000000000000000000000000000000000000000000000000000000000000000000000000000000000000000000000000000000000000000000000000000000000000000000000000000000000000000000000000000000000000000000000000000000000000000000000000000000000000008302000080833d37ef808203b642a056e81f171bcc55a6ff8345e692c0f86e5b48e01b996cadc001622fb5e363b421880102030405060708c0c0",
        "lastblockhash" : "0xdfbea2b7018def89c1b51c5ff6897ee088647e0bb0788a4b629765286ba646a1",
        "network" : "Homestead",
        "postState" : {
            "0x68795c4aa09d6f4ed3e5deddf8c2ad3049a601da" : {
                "balance" : "0x4563918244f70d40",
                "code" : "",
                "nonce" : "0x00",
                "storage" : {
                }
            },
            "0xa94f5374fce5edbc8e2a8697c15331677e6ebf0b" : {
                "balance" : "0x0de0b6b3a760f2c0",
                "code" : "",
                "nonce" : "0x02",
                "storage" : {
                }
            },
            "0xb94f5374fce5edbc8e2a8697c15331677e6ebf0b" : {
                "balance" : "0x00",
                "code" : "0x600035600052602035602052604035604052606035606052604060c860406000600060066207a120f260005560c85160015560e851600255",
                "nonce" : "0x00",
                "storage" : {
                }
            }
        },
        "pre" : {
            "0xa94f5374fce5edbc8e2a8697c15331677e6ebf0b" : {
                "balance" : "0x0de0b6b3a7640000",
                "code" : "",
                "nonce" : "0x01",
                "storage" : {
                }
            },
            "0xb94f5374fce5edbc8e2a8697c15331677e6ebf0b" : {
                "balance" : "0x00",
                "code" : "0x600035600052602035602052604035604052606035606052604060c860406000600060066207a120f260005560c85160015560e851600255",
                "nonce" : "0x00",
                "storage" : {
                }
            }
        }
    }
}