{
    "pointAdd_d0g3v0_Byzantium" : {
        "_info" : {
            "comment" : "",
            "filledwith" : "cpp-1.3.0+commit.4e101574.Linux.g++",
            "lllcversion" : "Version: 0.4.18-develop.2017.10.11+commit.81f9f86c.Linux.g++",
            "source" : "src/BlockchainTestsFiller/GeneralStateTests/stZeroKnowledge/pointAdd_d0g3v0Filler.json",
            "sourceHash" : "cdd100f69568d71227490269bfafb13a8d810e1ca8c0e84cfb68d0c34b525b3b"
        },
        "blocks" : [
            {
                "blockHeader" : {
                    "bloom" : "0x00000000000000000000000000000000000000000000000000000000000000000000000000000000000000000000000000000000000000000000000000000000000000000000000000000000000000000000000000000000000000000000000000000000000000000000000000000000000000000000000000000000000000000000000000000000000000000000000000000000000000000000000000000000000000000000000000000000000000000000000000000000000000000000000000000000000000000000000000000000000000000000000000000000000000000000000000000000000000000000000000000000000000000000000000000000",
                    "coinbase" : "0x68795c4aa09d6f4ed3e5deddf8c2ad3049a601da",
                    "difficulty" : "0x020000",
                    "extraData" : "",
                    "gasLimit" : "0x3d37ef",
                    "gasUsed" : "0x01448d",
                    "hash" : "0x6af9aebea2a2a3c0c99f79ddd3f1667bd099c430144ff569f9448eb2714239ff",
                    "mixHash" : "0x5b52eb2d9e5caa0c0a04163b212f5c0b633122e27e4b9c49d1d3b143f9061a47",
                    "nonce" : "0x8d5578387d04521c",
                    "number" : "0x01",
                    "parentHash" : "0x2118829a9759bb62ed2abe42ed2598a8e3d842cb41576be1c436b9f6dbd9cedc",
                    "receiptTrie" : "0xf1b4101d95003d4336a01079e3798b44935c3713cacd9400005c39bbc777013d",
                    "stateRoot" : "0x403e6a09d87e73ed4a622ee27964d4c79913d6993e65429ebb92fec7953494e9",
                    "timestamp" : "0x03e8",
                    "transactionsTrie" : "0x606a9f325a3546451bb8272668794b4a84a67e1b8b617b14221fea573a979dcd",
                    "uncleHash" : "0x1dcc4de8dec75d7aab85b567b6ccd41ad312451b948a7413f0a142fd40d49347"
                },
                "rlp" : "0xf902e1f901f8a02118829a9759bb62ed2abe42ed2598a8e3d842cb41576be1c436b9f6dbd9cedca01dcc4de8dec75d7aab85b567b6ccd41ad312451b948a7413f0a142fd40d493479468795c4aa09d6f4ed3e5deddf8c2ad3049a601daa0403e6a09d87e73ed4a622ee27964d4c79913d6993e65429ebb92fec7953494e9a0606a9f325a3546451bb8272668794b4a84a67e1b8b617b14221fea573a979dcda0f1b4101d95003d4336a01079e3798b44935c3713cacd9400005c39bbc777013db90100000000000000000000000000000000000000000000000000000000000000000000000000000000000000000000000000000000000000000000000000000000000000000000000000000000000000000000000000000000000000000000000000000000000000000000000000000000000000000000000000000000000000000000000000000000000000000000000000000000000000000000000000000000000000000000000000000000000000000000000000000000000000000000000000000000000000000000000000000000000000000000000000000000000000000000000000000000000000000000000000000000000000000000000000000000008302000001833d37ef8301448d8203e880a05b52eb2d9e5caa0c0a04163b212f5c0b633122e27e4b9c49d1d3b143f9061a47888d5578387d04521cf8e3f8e1010183030d4094b94f5374fce5edbc8e2a8697c15331677e6ebf0b80b88000000000000000000000000000000000000000000000000000000000000000010000000000000000000000000000000000000000000000000000000000000002000000000000000000000000000000000000000000000000000000000000000100000000000000000000000000000000000000000000000000000000000000021ba0a2ba9eb81d717e78f4bf8fd751c2d01bf634385091f00769659720e656f9c0a7a05e924309b6ed7e3f08251d258c6e10a8f1b33b34011c6e45de9999c06a42b609c0",
                "transactions" : [
                    {
                        "data" : "0x0000000000000000000000000000000000000000000000000000000000000001000000000000000000000000000000000000000000000000000000000000000200000000000000000000000000000000000000000000000000000000000000010000000000000000000000000000000000000000000000000000000000000002",
                        "gasLimit" : "0x030d40",
                        "gasPrice" : "0x01",
                        "nonce" : "0x01",
                        "r" : "0xa2ba9eb81d717e78f4bf8fd751c2d01bf634385091f00769659720e656f9c0a7",
                        "s" : "0x5e924309b6ed7e3f08251d258c6e10a8f1b33b34011c6e45de9999c06a42b609",
                        "to" : "0xb94f5374fce5edbc8e2a8697c15331677e6ebf0b",
                        "v" : "0x1b",
                        "value" : "0x00"
                    }
                ],
                "uncleHeaders" : [
                ]
            }
        ],
        "genesisBlockHeader" : {
            "bloom" : "0x00000000000000000000000000000000000000000000000000000000000000000000000000000000000000000000000000000000000000000000000000000000000000000000000000000000000000000000000000000000000000000000000000000000000000000000000000000000000000000000000000000000000000000000000000000000000000000000000000000000000000000000000000000000000000000000000000000000000000000000000000000000000000000000000000000000000000000000000000000000000000000000000000000000000000000000000000000000000000000000000000000000000000000000000000000000",
            "coinbase" : "0x68795c4aa09d6f4ed3e5deddf8c2ad3049a601da",
            "difficulty" : "0x020000",
            "extraData" : "0x42",
            "gasLimit" : "0x3d37ef",
            "gasUsed" : "0x00",
            "hash" : "0x2118829a9759bb62ed2abe42ed2598a8e3d842cb41576be1c436b9f6dbd9cedc",
            "mixHash" : "0x56e81f171bcc55a6ff8345e692c0f86e5b48e01b996cadc001622fb5e363b421",
            "nonce" : "0x0102030405060708",
            "number" : "0x00",
            "parentHash" : "0x0000000000000000000000000000000000000000000000000000000000000000",
            "receiptTrie" : "0x56e81f171bcc55a6ff8345e692c0f86e5b48e01b996cadc001622fb5e363b421",
            "stateRoot" : "0x95a0fc3312fd9e68d98cef6cb2a346c69bc7f2cd87d6c9b2dffdf4b49262223f",
            "timestamp" : "0x03b6",
            "transactionsTrie" : "0x56e81f171bcc55a6ff8345e692c0f86e5b48e01b996cadc001622fb5e363b421",
            "uncleHash" : "0x1dcc4de8dec75d7aab85b567b6ccd41ad312451b948a7413f0a142fd40d49347"
        },
        "genesisRLP" : "0xf901faf901f5a00000000000000000000000000000000000000000000000000000000000000000a01dcc4de8dec75d7aab85b567b6ccd41ad312451b948a7413f0a142fd40d493479468795c4aa09d6f4ed3e5deddf8c2ad3049a601daa095a0fc3312fd9e68d98cef6cb2a346c69bc7f2cd87d6c9b2dffdf4b49262223fa056e81f171bcc55a6ff8345e692c0f86e5b48e01b996cadc001622fb5e363b421a056e81f171bcc55a6ff8345e692c0f86e5b48e01b996cadc001622fb5e363b421b90100000000000000000000000000000000000000000000000000000000000000000000000000000000000000000000000000000000000000000000000000000000000000000000000000000000000000000000000000000000000000000000000000000000000000000000000000000000000000000000000000000000000000000000000000000000000000000000000000000000000000000000000000000000000000000000000000000000000000000000000000000000000000000000000000000000000000000000000000000000000000000000000000000000000000000000000000000000000000000000000000000000000000000000000000000000008302000080833d37ef808203b642a056e81f171bcc55a6ff8345e692c0f86e5b48e01b996cadc001622fb5e363b421880102030405060708c0c0",
        "lastblockhash" : "0x6af9aebea2a2a3c0c99f79ddd3f1667bd099c430144ff569f9448eb2714239ff",
        "network" : "Byzantium",
        "postState" : {
            "0x68795c4aa09d6f4ed3e5deddf8c2ad3049a601da" : {
                "balance" : "0x29a2241af62d448d",
                "code" : "",
                "nonce" : "0x00",
                "storage" : {
                }
            },
            "0xa94f5374fce5edbc8e2a8697c15331677e6ebf0b" : {
                "balance" : "0x0de0b6b3a762bb73",
                "code" : "",
                "nonce" : "0x02",
                "storage" : {
                }
            },
            "0xb94f5374fce5edbc8e2a8697c15331677e6ebf0b" : {
                "balance" : "0x00",
                "code" : "0x600035600052602035602052604035604052606035606052604060c860806000600060066207a120f260005560c85160015560e851600255",
                "nonce" : "0x00",
                "storage" : {
                    "0x00" : "0x01",
                    "0x01" : "0x030644e72e131a029b85045b68181585d97816a916871ca8d3c208c16d87cfd3",
                    "0x02" : "0x15ed738c0e0a7c92e7845f96b2ae9c0a68a6a449e3538fc7ff3ebf7a5a18a2c4"
                }
            }
        },
        "pre" : {
            "0xa94f5374fce5edbc8e2a8697c15331677e6ebf0b" : {
                "balance" : "0x0de0b6b3a7640000",
                "code" : "",
                "nonce" : "0x01",
                "storage" : {
                }
            },
            "0xb94f5374fce5edbc8e2a8697c15331677e6ebf0b" : {
                "balance" : "0x00",
                "code" : "0x600035600052602035602052604035604052606035606052604060c860806000600060066207a120f260005560c85160015560e851600255",
                "nonce" : "0x00",
                "storage" : {
                }
            }
        }
    },
    "pointAdd_d0g3v0_EIP150" : {
        "_info" : {
            "comment" : "",
            "filledwith" : "cpp-1.3.0+commit.4e101574.Linux.g++",
            "lllcversion" : "Version: 0.4.18-develop.2017.10.11+commit.81f9f86c.Linux.g++",
            "source" : "src/BlockchainTestsFiller/GeneralStateTests/stZeroKnowledge/pointAdd_d0g3v0Filler.json",
            "sourceHash" : "cdd100f69568d71227490269bfafb13a8d810e1ca8c0e84cfb68d0c34b525b3b"
        },
        "blocks" : [
            {
                "blockHeader" : {
                    "bloom" : "0x00000000000000000000000000000000000000000000000000000000000000000000000000000000000000000000000000000000000000000000000000000000000000000000000000000000000000000000000000000000000000000000000000000000000000000000000000000000000000000000000000000000000000000000000000000000000000000000000000000000000000000000000000000000000000000000000000000000000000000000000000000000000000000000000000000000000000000000000000000000000000000000000000000000000000000000000000000000000000000000000000000000000000000000000000000000",
                    "coinbase" : "0x68795c4aa09d6f4ed3e5deddf8c2ad3049a601da",
                    "difficulty" : "0x020000",
                    "extraData" : "",
                    "gasLimit" : "0x3d37ef",
                    "gasUsed" : "0xcd69",
                    "hash" : "0x588547c8c0332cbef2864c119a9079c506684c3fe9c6787bda91994083d0ceea",
                    "mixHash" : "0x5e817d2b6a77035ac0681a06885618db31ec9e0097c044aa5729b6f584fb7f08",
                    "nonce" : "0x356b3b88155584f0",
                    "number" : "0x01",
                    "parentHash" : "0x2118829a9759bb62ed2abe42ed2598a8e3d842cb41576be1c436b9f6dbd9cedc",
                    "receiptTrie" : "0xafc9be6f9c1f0b452db147b579fe58d34197c677abf63dbb03d3d4a407b2813d",
                    "stateRoot" : "0x9d4ce541b9fa851c8f29b1a738d053bff85f7c415c85c1893886c9484006b59a",
                    "timestamp" : "0x03e8",
                    "transactionsTrie" : "0x606a9f325a3546451bb8272668794b4a84a67e1b8b617b14221fea573a979dcd",
                    "uncleHash" : "0x1dcc4de8dec75d7aab85b567b6ccd41ad312451b948a7413f0a142fd40d49347"
                },
                "rlp" : "0xf902e0f901f7a02118829a9759bb62ed2abe42ed2598a8e3d842cb41576be1c436b9f6dbd9cedca01dcc4de8dec75d7aab85b567b6ccd41ad312451b948a7413f0a142fd40d493479468795c4aa09d6f4ed3e5deddf8c2ad3049a601daa09d4ce541b9fa851c8f29b1a738d053bff85f7c415c85c1893886c9484006b59aa0606a9f325a3546451bb8272668794b4a84a67e1b8b617b14221fea573a979dcda0afc9be6f9c1f0b452db147b579fe58d34197c677abf63dbb03d3d4a407b2813db90100000000000000000000000000000000000000000000000000000000000000000000000000000000000000000000000000000000000000000000000000000000000000000000000000000000000000000000000000000000000000000000000000000000000000000000000000000000000000000000000000000000000000000000000000000000000000000000000000000000000000000000000000000000000000000000000000000000000000000000000000000000000000000000000000000000000000000000000000000000000000000000000000000000000000000000000000000000000000000000000000000000000000000000000000000000008302000001833d37ef82cd698203e880a05e817d2b6a77035ac0681a06885618db31ec9e0097c044aa5729b6f584fb7f0888356b3b88155584f0f8e3f8e1010183030d4094b94f5374fce5edbc8e2a8697c15331677e6ebf0b80b88000000000000000000000000000000000000000000000000000000000000000010000000000000000000000000000000000000000000000000000000000000002000000000000000000000000000000000000000000000000000000000000000100000000000000000000000000000000000000000000000000000000000000021ba0a2ba9eb81d717e78f4bf8fd751c2d01bf634385091f00769659720e656f9c0a7a05e924309b6ed7e3f08251d258c6e10a8f1b33b34011c6e45de9999c06a42b609c0",
                "transactions" : [
                    {
                        "data" : "0x0000000000000000000000000000000000000000000000000000000000000001000000000000000000000000000000000000000000000000000000000000000200000000000000000000000000000000000000000000000000000000000000010000000000000000000000000000000000000000000000000000000000000002",
                        "gasLimit" : "0x030d40",
                        "gasPrice" : "0x01",
                        "nonce" : "0x01",
                        "r" : "0xa2ba9eb81d717e78f4bf8fd751c2d01bf634385091f00769659720e656f9c0a7",
                        "s" : "0x5e924309b6ed7e3f08251d258c6e10a8f1b33b34011c6e45de9999c06a42b609",
                        "to" : "0xb94f5374fce5edbc8e2a8697c15331677e6ebf0b",
                        "v" : "0x1b",
                        "value" : "0x00"
                    }
                ],
                "uncleHeaders" : [
                ]
            }
        ],
        "genesisBlockHeader" : {
            "bloom" : "0x00000000000000000000000000000000000000000000000000000000000000000000000000000000000000000000000000000000000000000000000000000000000000000000000000000000000000000000000000000000000000000000000000000000000000000000000000000000000000000000000000000000000000000000000000000000000000000000000000000000000000000000000000000000000000000000000000000000000000000000000000000000000000000000000000000000000000000000000000000000000000000000000000000000000000000000000000000000000000000000000000000000000000000000000000000000",
            "coinbase" : "0x68795c4aa09d6f4ed3e5deddf8c2ad3049a601da",
            "difficulty" : "0x020000",
            "extraData" : "0x42",
            "gasLimit" : "0x3d37ef",
            "gasUsed" : "0x00",
            "hash" : "0x2118829a9759bb62ed2abe42ed2598a8e3d842cb41576be1c436b9f6dbd9cedc",
            "mixHash" : "0x56e81f171bcc55a6ff8345e692c0f86e5b48e01b996cadc001622fb5e363b421",
            "nonce" : "0x0102030405060708",
            "number" : "0x00",
            "parentHash" : "0x0000000000000000000000000000000000000000000000000000000000000000",
            "receiptTrie" : "0x56e81f171bcc55a6ff8345e692c0f86e5b48e01b996cadc001622fb5e363b421",
            "stateRoot" : "0x95a0fc3312fd9e68d98cef6cb2a346c69bc7f2cd87d6c9b2dffdf4b49262223f",
            "timestamp" : "0x03b6",
            "transactionsTrie" : "0x56e81f171bcc55a6ff8345e692c0f86e5b48e01b996cadc001622fb5e363b421",
            "uncleHash" : "0x1dcc4de8dec75d7aab85b567b6ccd41ad312451b948a7413f0a142fd40d49347"
        },
        "genesisRLP" : "0xf901faf901f5a00000000000000000000000000000000000000000000000000000000000000000a01dcc4de8dec75d7aab85b567b6ccd41ad312451b948a7413f0a142fd40d493479468795c4aa09d6f4ed3e5deddf8c2ad3049a601daa095a0fc3312fd9e68d98cef6cb2a346c69bc7f2cd87d6c9b2dffdf4b49262223fa056e81f171bcc55a6ff8345e692c0f86e5b48e01b996cadc001622fb5e363b421a056e81f171bcc55a6ff8345e692c0f86e5b48e01b996cadc001622fb5e363b421b90100000000000000000000000000000000000000000000000000000000000000000000000000000000000000000000000000000000000000000000000000000000000000000000000000000000000000000000000000000000000000000000000000000000000000000000000000000000000000000000000000000000000000000000000000000000000000000000000000000000000000000000000000000000000000000000000000000000000000000000000000000000000000000000000000000000000000000000000000000000000000000000000000000000000000000000000000000000000000000000000000000000000000000000000000000000008302000080833d37ef808203b642a056e81f171bcc55a6ff8345e692c0f86e5b48e01b996cadc001622fb5e363b421880102030405060708c0c0",
        "lastblockhash" : "0x588547c8c0332cbef2864c119a9079c506684c3fe9c6787bda91994083d0ceea",
        "network" : "EIP150",
        "postState" : {
            "0x68795c4aa09d6f4ed3e5deddf8c2ad3049a601da" : {
                "balance" : "0x4563918244f4cd69",
                "code" : "",
                "nonce" : "0x00",
                "storage" : {
                }
            },
            "0xa94f5374fce5edbc8e2a8697c15331677e6ebf0b" : {
                "balance" : "0x0de0b6b3a7633297",
                "code" : "",
                "nonce" : "0x02",
                "storage" : {
                }
            },
            "0xb94f5374fce5edbc8e2a8697c15331677e6ebf0b" : {
                "balance" : "0x00",
                "code" : "0x600035600052602035602052604035604052606035606052604060c860806000600060066207a120f260005560c85160015560e851600255",
                "nonce" : "0x00",
                "storage" : {
                    "0x00" : "0x01"
                }
            }
        },
        "pre" : {
            "0xa94f5374fce5edbc8e2a8697c15331677e6ebf0b" : {
                "balance" : "0x0de0b6b3a7640000",
                "code" : "",
                "nonce" : "0x01",
                "storage" : {
                }
            },
            "0xb94f5374fce5edbc8e2a8697c15331677e6ebf0b" : {
                "balance" : "0x00",
                "code" : "0x600035600052602035602052604035604052606035606052604060c860806000600060066207a120f260005560c85160015560e851600255",
                "nonce" : "0x00",
                "storage" : {
                }
            }
        }
    },
    "pointAdd_d0g3v0_EIP158" : {
        "_info" : {
            "comment" : "",
            "filledwith" : "cpp-1.3.0+commit.4e101574.Linux.g++",
            "lllcversion" : "Version: 0.4.18-develop.2017.10.11+commit.81f9f86c.Linux.g++",
            "source" : "src/BlockchainTestsFiller/GeneralStateTests/stZeroKnowledge/pointAdd_d0g3v0Filler.json",
            "sourceHash" : "cdd100f69568d71227490269bfafb13a8d810e1ca8c0e84cfb68d0c34b525b3b"
        },
        "blocks" : [
            {
                "blockHeader" : {
                    "bloom" : "0x00000000000000000000000000000000000000000000000000000000000000000000000000000000000000000000000000000000000000000000000000000000000000000000000000000000000000000000000000000000000000000000000000000000000000000000000000000000000000000000000000000000000000000000000000000000000000000000000000000000000000000000000000000000000000000000000000000000000000000000000000000000000000000000000000000000000000000000000000000000000000000000000000000000000000000000000000000000000000000000000000000000000000000000000000000000",
                    "coinbase" : "0x68795c4aa09d6f4ed3e5deddf8c2ad3049a601da",
                    "difficulty" : "0x020000",
                    "extraData" : "",
                    "gasLimit" : "0x3d37ef",
                    "gasUsed" : "0xcd69",
                    "hash" : "0x873a512aced67ae8add8878e85048e2a2c1b5c63a405446f283a445cf1976c6c",
                    "mixHash" : "0x1ce979d9165746dede7a29253782c66dd9e6d3a96d3b4d414356f96209f96d5a",
                    "nonce" : "0xf578471e75694aa7",
                    "number" : "0x01",
                    "parentHash" : "0x2118829a9759bb62ed2abe42ed2598a8e3d842cb41576be1c436b9f6dbd9cedc",
                    "receiptTrie" : "0xafc9be6f9c1f0b452db147b579fe58d34197c677abf63dbb03d3d4a407b2813d",
                    "stateRoot" : "0x9d4ce541b9fa851c8f29b1a738d053bff85f7c415c85c1893886c9484006b59a",
                    "timestamp" : "0x03e8",
                    "transactionsTrie" : "0x606a9f325a3546451bb8272668794b4a84a67e1b8b617b14221fea573a979dcd",
                    "uncleHash" : "0x1dcc4de8dec75d7aab85b567b6ccd41ad312451b948a7413f0a142fd40d49347"
                },
                "rlp" : "0xf902e0f901f7a02118829a9759bb62ed2abe42ed2598a8e3d842cb41576be1c436b9f6dbd9cedca01dcc4de8dec75d7aab85b567b6ccd41ad312451b948a7413f0a142fd40d493479468795c4aa09d6f4ed3e5deddf8c2ad3049a601daa09d4ce541b9fa851c8f29b1a738d053bff85f7c415c85c1893886c9484006b59aa0606a9f325a3546451bb8272668794b4a84a67e1b8b617b14221fea573a979dcda0afc9be6f9c1f0b452db147b579fe58d34197c677abf63dbb03d3d4a407b2813db90100000000000000000000000000000000000000000000000000000000000000000000000000000000000000000000000000000000000000000000000000000000000000000000000000000000000000000000000000000000000000000000000000000000000000000000000000000000000000000000000000000000000000000000000000000000000000000000000000000000000000000000000000000000000000000000000000000000000000000000000000000000000000000000000000000000000000000000000000000000000000000000000000000000000000000000000000000000000000000000000000000000000000000000000000000000008302000001833d37ef82cd698203e880a01ce979d9165746dede7a29253782c66dd9e6d3a96d3b4d414356f96209f96d5a88f578471e75694aa7f8e3f8e1010183030d4094b94f5374fce5edbc8e2a8697c15331677e6ebf0b80b88000000000000000000000000000000000000000000000000000000000000000010000000000000000000000000000000000000000000000000000000000000002000000000000000000000000000000000000000000000000000000000000000100000000000000000000000000000000000000000000000000000000000000021ba0a2ba9eb81d717e78f4bf8fd751c2d01bf634385091f00769659720e656f9c0a7a05e924309b6ed7e3f08251d258c6e10a8f1b33b34011c6e45de9999c06a42b609c0",
                "transactions" : [
                    {
                        "data" : "0x0000000000000000000000000000000000000000000000000000000000000001000000000000000000000000000000000000000000000000000000000000000200000000000000000000000000000000000000000000000000000000000000010000000000000000000000000000000000000000000000000000000000000002",
                        "gasLimit" : "0x030d40",
                        "gasPrice" : "0x01",
                        "nonce" : "0x01",
                        "r" : "0xa2ba9eb81d717e78f4bf8fd751c2d01bf634385091f00769659720e656f9c0a7",
                        "s" : "0x5e924309b6ed7e3f08251d258c6e10a8f1b33b34011c6e45de9999c06a42b609",
                        "to" : "0xb94f5374fce5edbc8e2a8697c15331677e6ebf0b",
                        "v" : "0x1b",
                        "value" : "0x00"
                    }
                ],
                "uncleHeaders" : [
                ]
            }
        ],
        "genesisBlockHeader" : {
            "bloom" : "0x00000000000000000000000000000000000000000000000000000000000000000000000000000000000000000000000000000000000000000000000000000000000000000000000000000000000000000000000000000000000000000000000000000000000000000000000000000000000000000000000000000000000000000000000000000000000000000000000000000000000000000000000000000000000000000000000000000000000000000000000000000000000000000000000000000000000000000000000000000000000000000000000000000000000000000000000000000000000000000000000000000000000000000000000000000000",
            "coinbase" : "0x68795c4aa09d6f4ed3e5deddf8c2ad3049a601da",
            "difficulty" : "0x020000",
            "extraData" : "0x42",
            "gasLimit" : "0x3d37ef",
            "gasUsed" : "0x00",
            "hash" : "0x2118829a9759bb62ed2abe42ed2598a8e3d842cb41576be1c436b9f6dbd9cedc",
            "mixHash" : "0x56e81f171bcc55a6ff8345e692c0f86e5b48e01b996cadc001622fb5e363b421",
            "nonce" : "0x0102030405060708",
            "number" : "0x00",
            "parentHash" : "0x0000000000000000000000000000000000000000000000000000000000000000",
            "receiptTrie" : "0x56e81f171bcc55a6ff8345e692c0f86e5b48e01b996cadc001622fb5e363b421",
            "stateRoot" : "0x95a0fc3312fd9e68d98cef6cb2a346c69bc7f2cd87d6c9b2dffdf4b49262223f",
            "timestamp" : "0x03b6",
            "transactionsTrie" : "0x56e81f171bcc55a6ff8345e692c0f86e5b48e01b996cadc001622fb5e363b421",
            "uncleHash" : "0x1dcc4de8dec75d7aab85b567b6ccd41ad312451b948a7413f0a142fd40d49347"
        },
        "genesisRLP" : "0xf901faf901f5a00000000000000000000000000000000000000000000000000000000000000000a01dcc4de8dec75d7aab85b567b6ccd41ad312451b948a7413f0a142fd40d493479468795c4aa09d6f4ed3e5deddf8c2ad3049a601daa095a0fc3312fd9e68d98cef6cb2a346c69bc7f2cd87d6c9b2dffdf4b49262223fa056e81f171bcc55a6ff8345e692c0f86e5b48e01b996cadc001622fb5e363b421a056e81f171bcc55a6ff8345e692c0f86e5b48e01b996cadc001622fb5e363b421b90100000000000000000000000000000000000000000000000000000000000000000000000000000000000000000000000000000000000000000000000000000000000000000000000000000000000000000000000000000000000000000000000000000000000000000000000000000000000000000000000000000000000000000000000000000000000000000000000000000000000000000000000000000000000000000000000000000000000000000000000000000000000000000000000000000000000000000000000000000000000000000000000000000000000000000000000000000000000000000000000000000000000000000000000000000000008302000080833d37ef808203b642a056e81f171bcc55a6ff8345e692c0f86e5b48e01b996cadc001622fb5e363b421880102030405060708c0c0",
        "lastblockhash" : "0x873a512aced67ae8add8878e85048e2a2c1b5c63a405446f283a445cf1976c6c",
        "network" : "EIP158",
        "postState" : {
            "0x68795c4aa09d6f4ed3e5deddf8c2ad3049a601da" : {
                "balance" : "0x4563918244f4cd69",
                "code" : "",
                "nonce" : "0x00",
                "storage" : {
                }
            },
            "0xa94f5374fce5edbc8e2a8697c15331677e6ebf0b" : {
                "balance" : "0x0de0b6b3a7633297",
                "code" : "",
                "nonce" : "0x02",
                "storage" : {
                }
            },
            "0xb94f5374fce5edbc8e2a8697c15331677e6ebf0b" : {
                "balance" : "0x00",
                "code" : "0x600035600052602035602052604035604052606035606052604060c860806000600060066207a120f260005560c85160015560e851600255",
                "nonce" : "0x00",
                "storage" : {
                    "0x00" : "0x01"
                }
            }
        },
        "pre" : {
            "0xa94f5374fce5edbc8e2a8697c15331677e6ebf0b" : {
                "balance" : "0x0de0b6b3a7640000",
                "code" : "",
                "nonce" : "0x01",
                "storage" : {
                }
            },
            "0xb94f5374fce5edbc8e2a8697c15331677e6ebf0b" : {
                "balance" : "0x00",
                "code" : "0x600035600052602035602052604035604052606035606052604060c860806000600060066207a120f260005560c85160015560e851600255",
                "nonce" : "0x00",
                "storage" : {
                }
            }
        }
    },
    "pointAdd_d0g3v0_Frontier" : {
        "_info" : {
            "comment" : "",
            "filledwith" : "cpp-1.3.0+commit.4e101574.Linux.g++",
            "lllcversion" : "Version: 0.4.18-develop.2017.10.11+commit.81f9f86c.Linux.g++",
            "source" : "src/BlockchainTestsFiller/GeneralStateTests/stZeroKnowledge/pointAdd_d0g3v0Filler.json",
            "sourceHash" : "cdd100f69568d71227490269bfafb13a8d810e1ca8c0e84cfb68d0c34b525b3b"
        },
        "blocks" : [
            {
                "blockHeader" : {
                    "bloom" : "0x00000000000000000000000000000000000000000000000000000000000000000000000000000000000000000000000000000000000000000000000000000000000000000000000000000000000000000000000000000000000000000000000000000000000000000000000000000000000000000000000000000000000000000000000000000000000000000000000000000000000000000000000000000000000000000000000000000000000000000000000000000000000000000000000000000000000000000000000000000000000000000000000000000000000000000000000000000000000000000000000000000000000000000000000000000000",
                    "coinbase" : "0x68795c4aa09d6f4ed3e5deddf8c2ad3049a601da",
                    "difficulty" : "0x020000",
                    "extraData" : "",
                    "gasLimit" : "0x3d37ef",
                    "gasUsed" : "0x030d40",
                    "hash" : "0xa0839bf358c4db9a7b9035ecd33a785ded70b2b666bbe9720b1109353f05f6a8",
                    "mixHash" : "0x98ed22637f018e04df45d2a6ae887e50d43624bceb8195f4694ad18dea1b4da4",
                    "nonce" : "0x2a2f82ed6eeeb2c2",
                    "number" : "0x01",
                    "parentHash" : "0x2118829a9759bb62ed2abe42ed2598a8e3d842cb41576be1c436b9f6dbd9cedc",
                    "receiptTrie" : "0xd4ec042b0861d5f82a8f2fb5eebee2af69f5c7f4acd2b81ecde07ea0d2deaf04",
                    "stateRoot" : "0x89f4dfa4c7380a9f6a30f4fa4172f3be2d14d0ce0943c1edb575213417a9ae5a",
                    "timestamp" : "0x03e8",
                    "transactionsTrie" : "0x606a9f325a3546451bb8272668794b4a84a67e1b8b617b14221fea573a979dcd",
                    "uncleHash" : "0x1dcc4de8dec75d7aab85b567b6ccd41ad312451b948a7413f0a142fd40d49347"
                },
                "rlp" : "0xf902e1f901f8a02118829a9759bb62ed2abe42ed2598a8e3d842cb41576be1c436b9f6dbd9cedca01dcc4de8dec75d7aab85b567b6ccd41ad312451b948a7413f0a142fd40d493479468795c4aa09d6f4ed3e5deddf8c2ad3049a601daa089f4dfa4c7380a9f6a30f4fa4172f3be2d14d0ce0943c1edb575213417a9ae5aa0606a9f325a3546451bb8272668794b4a84a67e1b8b617b14221fea573a979dcda0d4ec042b0861d5f82a8f2fb5eebee2af69f5c7f4acd2b81ecde07ea0d2deaf04b90100000000000000000000000000000000000000000000000000000000000000000000000000000000000000000000000000000000000000000000000000000000000000000000000000000000000000000000000000000000000000000000000000000000000000000000000000000000000000000000000000000000000000000000000000000000000000000000000000000000000000000000000000000000000000000000000000000000000000000000000000000000000000000000000000000000000000000000000000000000000000000000000000000000000000000000000000000000000000000000000000000000000000000000000000000000008302000001833d37ef83030d408203e880a098ed22637f018e04df45d2a6ae887e50d43624bceb8195f4694ad18dea1b4da4882a2f82ed6eeeb2c2f8e3f8e1010183030d4094b94f5374fce5edbc8e2a8697c15331677e6ebf0b80b88000000000000000000000000000000000000000000000000000000000000000010000000000000000000000000000000000000000000000000000000000000002000000000000000000000000000000000000000000000000000000000000000100000000000000000000000000000000000000000000000000000000000000021ba0a2ba9eb81d717e78f4bf8fd751c2d01bf634385091f00769659720e656f9c0a7a05e924309b6ed7e3f08251d258c6e10a8f1b33b34011c6e45de9999c06a42b609c0",
                "transactions" : [
                    {
                        "data" : "0x0000000000000000000000000000000000000000000000000000000000000001000000000000000000000000000000000000000000000000000000000000000200000000000000000000000000000000000000000000000000000000000000010000000000000000000000000000000000000000000000000000000000000002",
                        "gasLimit" : "0x030d40",
                        "gasPrice" : "0x01",
                        "nonce" : "0x01",
                        "r" : "0xa2ba9eb81d717e78f4bf8fd751c2d01bf634385091f00769659720e656f9c0a7",
                        "s" : "0x5e924309b6ed7e3f08251d258c6e10a8f1b33b34011c6e45de9999c06a42b609",
                        "to" : "0xb94f5374fce5edbc8e2a8697c15331677e6ebf0b",
                        "v" : "0x1b",
                        "value" : "0x00"
                    }
                ],
                "uncleHeaders" : [
                ]
            }
        ],
        "genesisBlockHeader" : {
            "bloom" : "0x00000000000000000000000000000000000000000000000000000000000000000000000000000000000000000000000000000000000000000000000000000000000000000000000000000000000000000000000000000000000000000000000000000000000000000000000000000000000000000000000000000000000000000000000000000000000000000000000000000000000000000000000000000000000000000000000000000000000000000000000000000000000000000000000000000000000000000000000000000000000000000000000000000000000000000000000000000000000000000000000000000000000000000000000000000000",
            "coinbase" : "0x68795c4aa09d6f4ed3e5deddf8c2ad3049a601da",
            "difficulty" : "0x020000",
            "extraData" : "0x42",
            "gasLimit" : "0x3d37ef",
            "gasUsed" : "0x00",
            "hash" : "0x2118829a9759bb62ed2abe42ed2598a8e3d842cb41576be1c436b9f6dbd9cedc",
            "mixHash" : "0x56e81f171bcc55a6ff8345e692c0f86e5b48e01b996cadc001622fb5e363b421",
            "nonce" : "0x0102030405060708",
            "number" : "0x00",
            "parentHash" : "0x0000000000000000000000000000000000000000000000000000000000000000",
            "receiptTrie" : "0x56e81f171bcc55a6ff8345e692c0f86e5b48e01b996cadc001622fb5e363b421",
            "stateRoot" : "0x95a0fc3312fd9e68d98cef6cb2a346c69bc7f2cd87d6c9b2dffdf4b49262223f",
            "timestamp" : "0x03b6",
            "transactionsTrie" : "0x56e81f171bcc55a6ff8345e692c0f86e5b48e01b996cadc001622fb5e363b421",
            "uncleHash" : "0x1dcc4de8dec75d7aab85b567b6ccd41ad312451b948a7413f0a142fd40d49347"
        },
        "genesisRLP" : "0xf901faf901f5a00000000000000000000000000000000000000000000000000000000000000000a01dcc4de8dec75d7aab85b567b6ccd41ad312451b948a7413f0a142fd40d493479468795c4aa09d6f4ed3e5deddf8c2ad3049a601daa095a0fc3312fd9e68d98cef6cb2a346c69bc7f2cd87d6c9b2dffdf4b49262223fa056e81f171bcc55a6ff8345e692c0f86e5b48e01b996cadc001622fb5e363b421a056e81f171bcc55a6ff8345e692c0f86e5b48e01b996cadc001622fb5e363b421b90100000000000000000000000000000000000000000000000000000000000000000000000000000000000000000000000000000000000000000000000000000000000000000000000000000000000000000000000000000000000000000000000000000000000000000000000000000000000000000000000000000000000000000000000000000000000000000000000000000000000000000000000000000000000000000000000000000000000000000000000000000000000000000000000000000000000000000000000000000000000000000000000000000000000000000000000000000000000000000000000000000000000000000000000000000000008302000080833d37ef808203b642a056e81f171bcc55a6ff8345e692c0f86e5b48e01b996cadc001622fb5e363b421880102030405060708c0c0",
        "lastblockhash" : "0xa0839bf358c4db9a7b9035ecd33a785ded70b2b666bbe9720b1109353f05f6a8",
        "network" : "Frontier",
        "postState" : {
            "0x68795c4aa09d6f4ed3e5deddf8c2ad3049a601da" : {
                "balance" : "0x4563918244f70d40",
                "code" : "",
                "nonce" : "0x00",
                "storage" : {
                }
            },
            "0xa94f5374fce5edbc8e2a8697c15331677e6ebf0b" : {
                "balance" : "0x0de0b6b3a760f2c0",
                "code" : "",
                "nonce" : "0x02",
                "storage" : {
                }
            },
            "0xb94f5374fce5edbc8e2a8697c15331677e6ebf0b" : {
                "balance" : "0x00",
                "code" : "0x600035600052602035602052604035604052606035606052604060c860806000600060066207a120f260005560c85160015560e851600255",
                "nonce" : "0x00",
                "storage" : {
                }
            }
        },
        "pre" : {
            "0xa94f5374fce5edbc8e2a8697c15331677e6ebf0b" : {
                "balance" : "0x0de0b6b3a7640000",
                "code" : "",
                "nonce" : "0x01",
                "storage" : {
                }
            },
            "0xb94f5374fce5edbc8e2a8697c15331677e6ebf0b" : {
                "balance" : "0x00",
                "code" : "0x600035600052602035602052604035604052606035606052604060c860806000600060066207a120f260005560c85160015560e851600255",
                "nonce" : "0x00",
                "storage" : {
                }
            }
        }
    },
    "pointAdd_d0g3v0_Homestead" : {
        "_info" : {
            "comment" : "",
            "filledwith" : "cpp-1.3.0+commit.4e101574.Linux.g++",
            "lllcversion" : "Version: 0.4.18-develop.2017.10.11+commit.81f9f86c.Linux.g++",
            "source" : "src/BlockchainTestsFiller/GeneralStateTests/stZeroKnowledge/pointAdd_d0g3v0Filler.json",
            "sourceHash" : "cdd100f69568d71227490269bfafb13a8d810e1ca8c0e84cfb68d0c34b525b3b"
        },
        "blocks" : [
            {
                "blockHeader" : {
                    "bloom" : "0x00000000000000000000000000000000000000000000000000000000000000000000000000000000000000000000000000000000000000000000000000000000000000000000000000000000000000000000000000000000000000000000000000000000000000000000000000000000000000000000000000000000000000000000000000000000000000000000000000000000000000000000000000000000000000000000000000000000000000000000000000000000000000000000000000000000000000000000000000000000000000000000000000000000000000000000000000000000000000000000000000000000000000000000000000000000",
                    "coinbase" : "0x68795c4aa09d6f4ed3e5deddf8c2ad3049a601da",
                    "difficulty" : "0x020000",
                    "extraData" : "",
                    "gasLimit" : "0x3d37ef",
                    "gasUsed" : "0x030d40",
                    "hash" : "0xf6d04e0ac2c076994c023f6102f94f740994b9099717bdd4ddb9051b2f065065",
                    "mixHash" : "0x9f7435c58c1160c77e5d8e7076a09ccc22e279a12daa9fa94f47de683ef8e4d0",
                    "nonce" : "0xce42aea03472b56b",
                    "number" : "0x01",
                    "parentHash" : "0x2118829a9759bb62ed2abe42ed2598a8e3d842cb41576be1c436b9f6dbd9cedc",
                    "receiptTrie" : "0xd4ec042b0861d5f82a8f2fb5eebee2af69f5c7f4acd2b81ecde07ea0d2deaf04",
                    "stateRoot" : "0x89f4dfa4c7380a9f6a30f4fa4172f3be2d14d0ce0943c1edb575213417a9ae5a",
                    "timestamp" : "0x03e8",
                    "transactionsTrie" : "0x606a9f325a3546451bb8272668794b4a84a67e1b8b617b14221fea573a979dcd",
                    "uncleHash" : "0x1dcc4de8dec75d7aab85b567b6ccd41ad312451b948a7413f0a142fd40d49347"
                },
                "rlp" : "0xf902e1f901f8a02118829a9759bb62ed2abe42ed2598a8e3d842cb41576be1c436b9f6dbd9cedca01dcc4de8dec75d7aab85b567b6ccd41ad312451b948a7413f0a142fd40d493479468795c4aa09d6f4ed3e5deddf8c2ad3049a601daa089f4dfa4c7380a9f6a30f4fa4172f3be2d14d0ce0943c1edb575213417a9ae5aa0606a9f325a3546451bb8272668794b4a84a67e1b8b617b14221fea573a979dcda0d4ec042b0861d5f82a8f2fb5eebee2af69f5c7f4acd2b81ecde07ea0d2deaf04b90100000000000000000000000000000000000000000000000000000000000000000000000000000000000000000000000000000000000000000000000000000000000000000000000000000000000000000000000000000000000000000000000000000000000000000000000000000000000000000000000000000000000000000000000000000000000000000000000000000000000000000000000000000000000000000000000000000000000000000000000000000000000000000000000000000000000000000000000000000000000000000000000000000000000000000000000000000000000000000000000000000000000000000000000000000000008302000001833d37ef83030d408203e880a09f7435c58c1160c77e5d8e7076a09ccc22e279a12daa9fa94f47de683ef8e4d088ce42aea03472b56bf8e3f8e1010183030d4094b94f5374fce5edbc8e2a8697c15331677e6ebf0b80b88000000000000000000000000000000000000000000000000000000000000000010000000000000000000000000000000000000000000000000000000000000002000000000000000000000000000000000000000000000000000000000000000100000000000000000000000000000000000000000000000000000000000000021ba0a2ba9eb81d717e78f4bf8fd751c2d01bf634385091f00769659720e656f9c0a7a05e924309b6ed7e3f08251d258c6e10a8f1b33b34011c6e45de9999c06a42b609c0",
                "transactions" : [
                    {
                        "data" : "0x0000000000000000000000000000000000000000000000000000000000000001000000000000000000000000000000000000000000000000000000000000000200000000000000000000000000000000000000000000000000000000000000010000000000000000000000000000000000000000000000000000000000000002",
                        "gasLimit" : "0x030d40",
                        "gasPrice" : "0x01",
                        "nonce" : "0x01",
                        "r" : "0xa2ba9eb81d717e78f4bf8fd751c2d01bf634385091f00769659720e656f9c0a7",
                        "s" : "0x5e924309b6ed7e3f08251d258c6e10a8f1b33b34011c6e45de9999c06a42b609",
                        "to" : "0xb94f5374fce5edbc8e2a8697c15331677e6ebf0b",
                        "v" : "0x1b",
                        "value" : "0x00"
                    }
                ],
                "uncleHeaders" : [
                ]
            }
        ],
        "genesisBlockHeader" : {
            "bloom" : "0x00000000000000000000000000000000000000000000000000000000000000000000000000000000000000000000000000000000000000000000000000000000000000000000000000000000000000000000000000000000000000000000000000000000000000000000000000000000000000000000000000000000000000000000000000000000000000000000000000000000000000000000000000000000000000000000000000000000000000000000000000000000000000000000000000000000000000000000000000000000000000000000000000000000000000000000000000000000000000000000000000000000000000000000000000000000",
            "coinbase" : "0x68795c4aa09d6f4ed3e5deddf8c2ad3049a601da",
            "difficulty" : "0x020000",
            "extraData" : "0x42",
            "gasLimit" : "0x3d37ef",
            "gasUsed" : "0x00",
            "hash" : "0x2118829a9759bb62ed2abe42ed2598a8e3d842cb41576be1c436b9f6dbd9cedc",
            "mixHash" : "0x56e81f171bcc55a6ff8345e692c0f86e5b48e01b996cadc001622fb5e363b421",
            "nonce" : "0x0102030405060708",
            "number" : "0x00",
            "parentHash" : "0x0000000000000000000000000000000000000000000000000000000000000000",
            "receiptTrie" : "0x56e81f171bcc55a6ff8345e692c0f86e5b48e01b996cadc001622fb5e363b421",
            "stateRoot" : "0x95a0fc3312fd9e68d98cef6cb2a346c69bc7f2cd87d6c9b2dffdf4b49262223f",
            "timestamp" : "0x03b6",
            "transactionsTrie" : "0x56e81f171bcc55a6ff8345e692c0f86e5b48e01b996cadc001622fb5e363b421",
            "uncleHash" : "0x1dcc4de8dec75d7aab85b567b6ccd41ad312451b948a7413f0a142fd40d49347"
        },
        "genesisRLP" : "0xf901faf901f5a00000000000000000000000000000000000000000000000000000000000000000a01dcc4de8dec75d7aab85b567b6ccd41ad312451b948a7413f0a142fd40d493479468795c4aa09d6f4ed3e5deddf8c2ad3049a601daa095a0fc3312fd9e68d98cef6cb2a346c69bc7f2cd87d6c9b2dffdf4b49262223fa056e81f171bcc55a6ff8345e692c0f86e5b48e01b996cadc001622fb5e363b421a056e81f171bcc55a6ff8345e692c0f86e5b48e01b996cadc001622fb5e363b421b90100000000000000000000000000000000000000000000000000000000000000000000000000000000000000000000000000000000000000000000000000000000000000000000000000000000000000000000000000000000000000000000000000000000000000000000000000000000000000000000000000000000000000000000000000000000000000000000000000000000000000000000000000000000000000000000000000000000000000000000000000000000000000000000000000000000000000000000000000000000000000000000000000000000000000000000000000000000000000000000000000000000000000000000000000000000008302000080833d37ef808203b642a056e81f171bcc55a6ff8345e692c0f86e5b48e01b996cadc001622fb5e363b421880102030405060708c0c0",
        "lastblockhash" : "0xf6d04e0ac2c076994c023f6102f94f740994b9099717bdd4ddb9051b2f065065",
        "network" : "Homestead",
        "postState" : {
            "0x68795c4aa09d6f4ed3e5deddf8c2ad3049a601da" : {
                "balance" : "0x4563918244f70d40",
                "code" : "",
                "nonce" : "0x00",
                "storage" : {
                }
            },
            "0xa94f5374fce5edbc8e2a8697c15331677e6ebf0b" : {
                "balance" : "0x0de0b6b3a760f2c0",
                "code" : "",
                "nonce" : "0x02",
                "storage" : {
                }
            },
            "0xb94f5374fce5edbc8e2a8697c15331677e6ebf0b" : {
                "balance" : "0x00",
                "code" : "0x600035600052602035602052604035604052606035606052604060c860806000600060066207a120f260005560c85160015560e851600255",
                "nonce" : "0x00",
                "storage" : {
                }
            }
        },
        "pre" : {
            "0xa94f5374fce5edbc8e2a8697c15331677e6ebf0b" : {
                "balance" : "0x0de0b6b3a7640000",
                "code" : "",
                "nonce" : "0x01",
                "storage" : {
                }
            },
            "0xb94f5374fce5edbc8e2a8697c15331677e6ebf0b" : {
                "balance" : "0x00",
                "code" : "0x600035600052602035602052604035604052606035606052604060c860806000600060066207a120f260005560c85160015560e851600255",
                "nonce" : "0x00",
                "storage" : {
                }
            }
        }
    }
}