{
    "pointMulAdd2_d22g0v0_Byzantium" : {
        "_info" : {
            "comment" : "",
            "filledwith" : "cpp-1.3.0+commit.4e101574.Linux.g++",
            "lllcversion" : "Version: 0.4.18-develop.2017.10.11+commit.81f9f86c.Linux.g++",
            "source" : "src/BlockchainTestsFiller/GeneralStateTests/stZeroKnowledge/pointMulAdd2_d22g0v0Filler.json",
            "sourceHash" : "7ca58773873f0e0a0b24a9323f29e06f25b8ddc5ccc8e1fa19606c186373c422"
        },
        "blocks" : [
            {
                "blockHeader" : {
                    "bloom" : "0x00000000000000000000000000000000000000000000000000000000000000000000000000000000000000000000000000000000000000000000000000000000000000000000000000000000000000000000000000000000000000000000000000000000000000000000000000000000000000000000000000000000000000000000000000000000000000000000000000000000000000000000000000000000000000000000000000000000000000000000000000000000000000000000000000000000000000000000000000000000000000000000000000000000000000000000000000000000000000000000000000000000000000000000000000000000",
                    "coinbase" : "0x68795c4aa09d6f4ed3e5deddf8c2ad3049a601da",
                    "difficulty" : "0x020000",
                    "extraData" : "",
                    "gasLimit" : "0x3d37ef",
                    "gasUsed" : "0x039e81",
                    "hash" : "0x17d28e322152b79604bd708824a0997819eb9e99352e3b525399657cb528d187",
                    "mixHash" : "0x8555f4feafb26930518338f0e0f94b23842b8dce76ff75f2b65e3e44179ff167",
                    "nonce" : "0xef73d4ee3a22d376",
                    "number" : "0x01",
                    "parentHash" : "0x9b25016c45ce0e295a463681361471a29c00aea06cba17cbc22894ce6d2c1def",
                    "receiptTrie" : "0xef3cda8ba933830ffcf973cd5a745567668cba68c7575115f83b32b0ba45baf6",
                    "stateRoot" : "0xbc29ac013472b95bc5b93822d4586d61dbf084f98adcff9f4a8a2122d5481158",
                    "timestamp" : "0x03e8",
                    "transactionsTrie" : "0x730093a2bd757abcd3e2cbb071fcb606c62fc646a300060b2244777df1496a4e",
                    "uncleHash" : "0x1dcc4de8dec75d7aab85b567b6ccd41ad312451b948a7413f0a142fd40d49347"
                },
                "rlp" : "0xf90343f901f8a09b25016c45ce0e295a463681361471a29c00aea06cba17cbc22894ce6d2c1defa01dcc4de8dec75d7aab85b567b6ccd41ad312451b948a7413f0a142fd40d493479468795c4aa09d6f4ed3e5deddf8c2ad3049a601daa0bc29ac013472b95bc5b93822d4586d61dbf084f98adcff9f4a8a2122d5481158a0730093a2bd757abcd3e2cbb071fcb606c62fc646a300060b2244777df1496a4ea0ef3cda8ba933830ffcf973cd5a745567668cba68c7575115f83b32b0ba45baf6b90100000000000000000000000000000000000000000000000000000000000000000000000000000000000000000000000000000000000000000000000000000000000000000000000000000000000000000000000000000000000000000000000000000000000000000000000000000000000000000000000000000000000000000000000000000000000000000000000000000000000000000000000000000000000000000000000000000000000000000000000000000000000000000000000000000000000000000000000000000000000000000000000000000000000000000000000000000000000000000000000000000000000000000000000000000000008302000001833d37ef83039e818203e880a08555f4feafb26930518338f0e0f94b23842b8dce76ff75f2b65e3e44179ff16788ef73d4ee3a22d376f90144f901410101831e848094b94f5374fce5edbc8e2a8697c15331677e6ebf0b80b8e02f588cffe99db877a4434b598ab28f81e0522910ea52b45f0adaa772b2d5d3521d701ec9e3fca50e84777f0f68caff5bff48cf6a6bd4428462ae9366cf0582b02f588cffe99db877a4434b598ab28f81e0522910ea52b45f0adaa772b2d5d3521d701ec9e3fca50e84777f0f68caff5bff48cf6a6bd4428462ae9366cf0582b02f588cffe99db877a4434b598ab28f81e0522910ea52b45f0adaa772b2d5d3521d701ec9e3fca50e84777f0f68caff5bff48cf6a6bd4428462ae9366cf0582b000000000000000000000000000000000000000000000000000000000000000021ca00f178bbbacd2b5ef57fa76128ad17fa02f199e3dd399a225c4adea37da7194d7a058b245dc39e7a7b185635769c0912c94aa7a3305bd610f2e05134aa928f88a49c0",
                "transactions" : [
                    {
                        "data" : "0x2f588cffe99db877a4434b598ab28f81e0522910ea52b45f0adaa772b2d5d3521d701ec9e3fca50e84777f0f68caff5bff48cf6a6bd4428462ae9366cf0582b02f588cffe99db877a4434b598ab28f81e0522910ea52b45f0adaa772b2d5d3521d701ec9e3fca50e84777f0f68caff5bff48cf6a6bd4428462ae9366cf0582b02f588cffe99db877a4434b598ab28f81e0522910ea52b45f0adaa772b2d5d3521d701ec9e3fca50e84777f0f68caff5bff48cf6a6bd4428462ae9366cf0582b00000000000000000000000000000000000000000000000000000000000000002",
                        "gasLimit" : "0x1e8480",
                        "gasPrice" : "0x01",
                        "nonce" : "0x01",
                        "r" : "0x0f178bbbacd2b5ef57fa76128ad17fa02f199e3dd399a225c4adea37da7194d7",
                        "s" : "0x58b245dc39e7a7b185635769c0912c94aa7a3305bd610f2e05134aa928f88a49",
                        "to" : "0xb94f5374fce5edbc8e2a8697c15331677e6ebf0b",
                        "v" : "0x1c",
                        "value" : "0x00"
                    }
                ],
                "uncleHeaders" : [
                ]
            }
        ],
        "genesisBlockHeader" : {
            "bloom" : "0x00000000000000000000000000000000000000000000000000000000000000000000000000000000000000000000000000000000000000000000000000000000000000000000000000000000000000000000000000000000000000000000000000000000000000000000000000000000000000000000000000000000000000000000000000000000000000000000000000000000000000000000000000000000000000000000000000000000000000000000000000000000000000000000000000000000000000000000000000000000000000000000000000000000000000000000000000000000000000000000000000000000000000000000000000000000",
            "coinbase" : "0x68795c4aa09d6f4ed3e5deddf8c2ad3049a601da",
            "difficulty" : "0x020000",
            "extraData" : "0x42",
            "gasLimit" : "0x3d37ef",
            "gasUsed" : "0x00",
            "hash" : "0x9b25016c45ce0e295a463681361471a29c00aea06cba17cbc22894ce6d2c1def",
            "mixHash" : "0x56e81f171bcc55a6ff8345e692c0f86e5b48e01b996cadc001622fb5e363b421",
            "nonce" : "0x0102030405060708",
            "number" : "0x00",
            "parentHash" : "0x0000000000000000000000000000000000000000000000000000000000000000",
            "receiptTrie" : "0x56e81f171bcc55a6ff8345e692c0f86e5b48e01b996cadc001622fb5e363b421",
            "stateRoot" : "0xa4db92ceb60668ffcb9642d55fa7fe34cc341b53029d31394d82f0c61462bd99",
            "timestamp" : "0x03b6",
            "transactionsTrie" : "0x56e81f171bcc55a6ff8345e692c0f86e5b48e01b996cadc001622fb5e363b421",
            "uncleHash" : "0x1dcc4de8dec75d7aab85b567b6ccd41ad312451b948a7413f0a142fd40d49347"
        },
        "genesisRLP" : "0xf901faf901f5a00000000000000000000000000000000000000000000000000000000000000000a01dcc4de8dec75d7aab85b567b6ccd41ad312451b948a7413f0a142fd40d493479468795c4aa09d6f4ed3e5deddf8c2ad3049a601daa0a4db92ceb60668ffcb9642d55fa7fe34cc341b53029d31394d82f0c61462bd99a056e81f171bcc55a6ff8345e692c0f86e5b48e01b996cadc001622fb5e363b421a056e81f171bcc55a6ff8345e692c0f86e5b48e01b996cadc001622fb5e363b421b90100000000000000000000000000000000000000000000000000000000000000000000000000000000000000000000000000000000000000000000000000000000000000000000000000000000000000000000000000000000000000000000000000000000000000000000000000000000000000000000000000000000000000000000000000000000000000000000000000000000000000000000000000000000000000000000000000000000000000000000000000000000000000000000000000000000000000000000000000000000000000000000000000000000000000000000000000000000000000000000000000000000000000000000000000000000008302000080833d37ef808203b642a056e81f171bcc55a6ff8345e692c0f86e5b48e01b996cadc001622fb5e363b421880102030405060708c0c0",
        "lastblockhash" : "0x17d28e322152b79604bd708824a0997819eb9e99352e3b525399657cb528d187",
        "network" : "Byzantium",
        "postState" : {
            "0x68795c4aa09d6f4ed3e5deddf8c2ad3049a601da" : {
                "balance" : "0x29a2241af62f9e81",
                "code" : "",
                "nonce" : "0x00",
                "storage" : {
                }
            },
            "0xa94f5374fce5edbc8e2a8697c15331677e6ebf0b" : {
                "balance" : "0x0de0b6b3a760617f",
                "code" : "",
                "nonce" : "0x02",
                "storage" : {
                }
            },
            "0xb94f5374fce5edbc8e2a8697c15331677e6ebf0b" : {
                "balance" : "0x00",
                "code" : "0x60003560005260203560205260403560405260603560605260803560805260a03560a05260c03560c052604061012c60806000600060066207a120f2600055604061019060606080600060076207a120f260015561012c51600a5561014c51600b55610190516014556101b051601555601454600a5414600255601554600b5414600355",
                "nonce" : "0x00",
                "storage" : {
                    "0x00" : "0x01",
                    "0x01" : "0x01",
                    "0x02" : "0x01",
                    "0x03" : "0x01",
                    "0x0a" : "0x2fa739d4cde056d8fd75427345cbb34159856e06a4ffad64159c4773f23fbf4b",
                    "0x0b" : "0x1eed5d5325c31fc89dd541a13d7f63b981fae8d4bf78a6b08a38a601fcfea97b",
                    "0x14" : "0x2fa739d4cde056d8fd75427345cbb34159856e06a4ffad64159c4773f23fbf4b",
                    "0x15" : "0x1eed5d5325c31fc89dd541a13d7f63b981fae8d4bf78a6b08a38a601fcfea97b"
                }
            }
        },
        "pre" : {
            "0xa94f5374fce5edbc8e2a8697c15331677e6ebf0b" : {
                "balance" : "0x0de0b6b3a7640000",
                "code" : "",
                "nonce" : "0x01",
                "storage" : {
                }
            },
            "0xb94f5374fce5edbc8e2a8697c15331677e6ebf0b" : {
                "balance" : "0x00",
                "code" : "0x60003560005260203560205260403560405260603560605260803560805260a03560a05260c03560c052604061012c60806000600060066207a120f2600055604061019060606080600060076207a120f260015561012c51600a5561014c51600b55610190516014556101b051601555601454600a5414600255601554600b5414600355",
                "nonce" : "0x00",
                "storage" : {
                }
            }
        }
    },
    "pointMulAdd2_d22g0v0_EIP150" : {
        "_info" : {
            "comment" : "",
            "filledwith" : "cpp-1.3.0+commit.4e101574.Linux.g++",
            "lllcversion" : "Version: 0.4.18-develop.2017.10.11+commit.81f9f86c.Linux.g++",
            "source" : "src/BlockchainTestsFiller/GeneralStateTests/stZeroKnowledge/pointMulAdd2_d22g0v0Filler.json",
            "sourceHash" : "7ca58773873f0e0a0b24a9323f29e06f25b8ddc5ccc8e1fa19606c186373c422"
        },
        "blocks" : [
            {
                "blockHeader" : {
                    "bloom" : "0x00000000000000000000000000000000000000000000000000000000000000000000000000000000000000000000000000000000000000000000000000000000000000000000000000000000000000000000000000000000000000000000000000000000000000000000000000000000000000000000000000000000000000000000000000000000000000000000000000000000000000000000000000000000000000000000000000000000000000000000000000000000000000000000000000000000000000000000000000000000000000000000000000000000000000000000000000000000000000000000000000000000000000000000000000000000",
                    "coinbase" : "0x68795c4aa09d6f4ed3e5deddf8c2ad3049a601da",
                    "difficulty" : "0x020000",
                    "extraData" : "",
                    "gasLimit" : "0x3d37ef",
                    "gasUsed" : "0x0215ed",
                    "hash" : "0x9527bf23f7433c72ef99e1d2e7d8d0a243adc667181e590d4536a71b8edf6e3e",
                    "mixHash" : "0xa30ccaf58fbc46da49bcf3ab862768ce5e1e4ea90fbaff047d04b83b1e6b7f43",
                    "nonce" : "0x1acc9571e43288ed",
                    "number" : "0x01",
                    "parentHash" : "0x9b25016c45ce0e295a463681361471a29c00aea06cba17cbc22894ce6d2c1def",
                    "receiptTrie" : "0xa30edcf22c59f80a85e1531125a0d5a46187defc4a4d0d2eff38da41ce626e83",
                    "stateRoot" : "0xdaea7445043807ef19677fe220b738fadd6a0af474609ed39b4fdca85622cf9f",
                    "timestamp" : "0x03e8",
                    "transactionsTrie" : "0x730093a2bd757abcd3e2cbb071fcb606c62fc646a300060b2244777df1496a4e",
                    "uncleHash" : "0x1dcc4de8dec75d7aab85b567b6ccd41ad312451b948a7413f0a142fd40d49347"
                },
                "rlp" : "0xf90343f901f8a09b25016c45ce0e295a463681361471a29c00aea06cba17cbc22894ce6d2c1defa01dcc4de8dec75d7aab85b567b6ccd41ad312451b948a7413f0a142fd40d493479468795c4aa09d6f4ed3e5deddf8c2ad3049a601daa0daea7445043807ef19677fe220b738fadd6a0af474609ed39b4fdca85622cf9fa0730093a2bd757abcd3e2cbb071fcb606c62fc646a300060b2244777df1496a4ea0a30edcf22c59f80a85e1531125a0d5a46187defc4a4d0d2eff38da41ce626e83b90100000000000000000000000000000000000000000000000000000000000000000000000000000000000000000000000000000000000000000000000000000000000000000000000000000000000000000000000000000000000000000000000000000000000000000000000000000000000000000000000000000000000000000000000000000000000000000000000000000000000000000000000000000000000000000000000000000000000000000000000000000000000000000000000000000000000000000000000000000000000000000000000000000000000000000000000000000000000000000000000000000000000000000000000000000000008302000001833d37ef830215ed8203e880a0a30ccaf58fbc46da49bcf3ab862768ce5e1e4ea90fbaff047d04b83b1e6b7f43881acc9571e43288edf90144f901410101831e848094b94f5374fce5edbc8e2a8697c15331677e6ebf0b80b8e02f588cffe99db877a4434b598ab28f81e0522910ea52b45f0adaa772b2d5d3521d701ec9e3fca50e84777f0f68caff5bff48cf6a6bd4428462ae9366cf0582b02f588cffe99db877a4434b598ab28f81e0522910ea52b45f0adaa772b2d5d3521d701ec9e3fca50e84777f0f68caff5bff48cf6a6bd4428462ae9366cf0582b02f588cffe99db877a4434b598ab28f81e0522910ea52b45f0adaa772b2d5d3521d701ec9e3fca50e84777f0f68caff5bff48cf6a6bd4428462ae9366cf0582b000000000000000000000000000000000000000000000000000000000000000021ca00f178bbbacd2b5ef57fa76128ad17fa02f199e3dd399a225c4adea37da7194d7a058b245dc39e7a7b185635769c0912c94aa7a3305bd610f2e05134aa928f88a49c0",
                "transactions" : [
                    {
                        "data" : "0x2f588cffe99db877a4434b598ab28f81e0522910ea52b45f0adaa772b2d5d3521d701ec9e3fca50e84777f0f68caff5bff48cf6a6bd4428462ae9366cf0582b02f588cffe99db877a4434b598ab28f81e0522910ea52b45f0adaa772b2d5d3521d701ec9e3fca50e84777f0f68caff5bff48cf6a6bd4428462ae9366cf0582b02f588cffe99db877a4434b598ab28f81e0522910ea52b45f0adaa772b2d5d3521d701ec9e3fca50e84777f0f68caff5bff48cf6a6bd4428462ae9366cf0582b00000000000000000000000000000000000000000000000000000000000000002",
                        "gasLimit" : "0x1e8480",
                        "gasPrice" : "0x01",
                        "nonce" : "0x01",
                        "r" : "0x0f178bbbacd2b5ef57fa76128ad17fa02f199e3dd399a225c4adea37da7194d7",
                        "s" : "0x58b245dc39e7a7b185635769c0912c94aa7a3305bd610f2e05134aa928f88a49",
                        "to" : "0xb94f5374fce5edbc8e2a8697c15331677e6ebf0b",
                        "v" : "0x1c",
                        "value" : "0x00"
                    }
                ],
                "uncleHeaders" : [
                ]
            }
        ],
        "genesisBlockHeader" : {
            "bloom" : "0x00000000000000000000000000000000000000000000000000000000000000000000000000000000000000000000000000000000000000000000000000000000000000000000000000000000000000000000000000000000000000000000000000000000000000000000000000000000000000000000000000000000000000000000000000000000000000000000000000000000000000000000000000000000000000000000000000000000000000000000000000000000000000000000000000000000000000000000000000000000000000000000000000000000000000000000000000000000000000000000000000000000000000000000000000000000",
            "coinbase" : "0x68795c4aa09d6f4ed3e5deddf8c2ad3049a601da",
            "difficulty" : "0x020000",
            "extraData" : "0x42",
            "gasLimit" : "0x3d37ef",
            "gasUsed" : "0x00",
            "hash" : "0x9b25016c45ce0e295a463681361471a29c00aea06cba17cbc22894ce6d2c1def",
            "mixHash" : "0x56e81f171bcc55a6ff8345e692c0f86e5b48e01b996cadc001622fb5e363b421",
            "nonce" : "0x0102030405060708",
            "number" : "0x00",
            "parentHash" : "0x0000000000000000000000000000000000000000000000000000000000000000",
            "receiptTrie" : "0x56e81f171bcc55a6ff8345e692c0f86e5b48e01b996cadc001622fb5e363b421",
            "stateRoot" : "0xa4db92ceb60668ffcb9642d55fa7fe34cc341b53029d31394d82f0c61462bd99",
            "timestamp" : "0x03b6",
            "transactionsTrie" : "0x56e81f171bcc55a6ff8345e692c0f86e5b48e01b996cadc001622fb5e363b421",
            "uncleHash" : "0x1dcc4de8dec75d7aab85b567b6ccd41ad312451b948a7413f0a142fd40d49347"
        },
        "genesisRLP" : "0xf901faf901f5a00000000000000000000000000000000000000000000000000000000000000000a01dcc4de8dec75d7aab85b567b6ccd41ad312451b948a7413f0a142fd40d493479468795c4aa09d6f4ed3e5deddf8c2ad3049a601daa0a4db92ceb60668ffcb9642d55fa7fe34cc341b53029d31394d82f0c61462bd99a056e81f171bcc55a6ff8345e692c0f86e5b48e01b996cadc001622fb5e363b421a056e81f171bcc55a6ff8345e692c0f86e5b48e01b996cadc001622fb5e363b421b90100000000000000000000000000000000000000000000000000000000000000000000000000000000000000000000000000000000000000000000000000000000000000000000000000000000000000000000000000000000000000000000000000000000000000000000000000000000000000000000000000000000000000000000000000000000000000000000000000000000000000000000000000000000000000000000000000000000000000000000000000000000000000000000000000000000000000000000000000000000000000000000000000000000000000000000000000000000000000000000000000000000000000000000000000000000008302000080833d37ef808203b642a056e81f171bcc55a6ff8345e692c0f86e5b48e01b996cadc001622fb5e363b421880102030405060708c0c0",
        "lastblockhash" : "0x9527bf23f7433c72ef99e1d2e7d8d0a243adc667181e590d4536a71b8edf6e3e",
        "network" : "EIP150",
        "postState" : {
            "0x68795c4aa09d6f4ed3e5deddf8c2ad3049a601da" : {
                "balance" : "0x4563918244f615ed",
                "code" : "",
                "nonce" : "0x00",
                "storage" : {
                }
            },
            "0xa94f5374fce5edbc8e2a8697c15331677e6ebf0b" : {
                "balance" : "0x0de0b6b3a761ea13",
                "code" : "",
                "nonce" : "0x02",
                "storage" : {
                }
            },
            "0xb94f5374fce5edbc8e2a8697c15331677e6ebf0b" : {
                "balance" : "0x00",
                "code" : "0x60003560005260203560205260403560405260603560605260803560805260a03560a05260c03560c052604061012c60806000600060066207a120f2600055604061019060606080600060076207a120f260015561012c51600a5561014c51600b55610190516014556101b051601555601454600a5414600255601554600b5414600355",
                "nonce" : "0x00",
                "storage" : {
                    "0x00" : "0x01",
                    "0x01" : "0x01",
                    "0x02" : "0x01",
                    "0x03" : "0x01"
                }
            }
        },
        "pre" : {
            "0xa94f5374fce5edbc8e2a8697c15331677e6ebf0b" : {
                "balance" : "0x0de0b6b3a7640000",
                "code" : "",
                "nonce" : "0x01",
                "storage" : {
                }
            },
            "0xb94f5374fce5edbc8e2a8697c15331677e6ebf0b" : {
                "balance" : "0x00",
                "code" : "0x60003560005260203560205260403560405260603560605260803560805260a03560a05260c03560c052604061012c60806000600060066207a120f2600055604061019060606080600060076207a120f260015561012c51600a5561014c51600b55610190516014556101b051601555601454600a5414600255601554600b5414600355",
                "nonce" : "0x00",
                "storage" : {
                }
            }
        }
    },
    "pointMulAdd2_d22g0v0_EIP158" : {
        "_info" : {
            "comment" : "",
            "filledwith" : "cpp-1.3.0+commit.4e101574.Linux.g++",
            "lllcversion" : "Version: 0.4.18-develop.2017.10.11+commit.81f9f86c.Linux.g++",
            "source" : "src/BlockchainTestsFiller/GeneralStateTests/stZeroKnowledge/pointMulAdd2_d22g0v0Filler.json",
            "sourceHash" : "7ca58773873f0e0a0b24a9323f29e06f25b8ddc5ccc8e1fa19606c186373c422"
        },
        "blocks" : [
            {
                "blockHeader" : {
                    "bloom" : "0x00000000000000000000000000000000000000000000000000000000000000000000000000000000000000000000000000000000000000000000000000000000000000000000000000000000000000000000000000000000000000000000000000000000000000000000000000000000000000000000000000000000000000000000000000000000000000000000000000000000000000000000000000000000000000000000000000000000000000000000000000000000000000000000000000000000000000000000000000000000000000000000000000000000000000000000000000000000000000000000000000000000000000000000000000000000",
                    "coinbase" : "0x68795c4aa09d6f4ed3e5deddf8c2ad3049a601da",
                    "difficulty" : "0x020000",
                    "extraData" : "",
                    "gasLimit" : "0x3d37ef",
                    "gasUsed" : "0x0215ed",
                    "hash" : "0xd2e6a3e27915a7b8193e201405bf90722d0e4f2d624f30560a4a9922ed6fa2b7",
                    "mixHash" : "0x55ac203b8b289491ca8cec3f8c8a1d83ac064ef945e28c92de6461035baeafc7",
                    "nonce" : "0x4099cf0cef57a926",
                    "number" : "0x01",
                    "parentHash" : "0x9b25016c45ce0e295a463681361471a29c00aea06cba17cbc22894ce6d2c1def",
                    "receiptTrie" : "0xa30edcf22c59f80a85e1531125a0d5a46187defc4a4d0d2eff38da41ce626e83",
                    "stateRoot" : "0xdaea7445043807ef19677fe220b738fadd6a0af474609ed39b4fdca85622cf9f",
                    "timestamp" : "0x03e8",
                    "transactionsTrie" : "0x730093a2bd757abcd3e2cbb071fcb606c62fc646a300060b2244777df1496a4e",
                    "uncleHash" : "0x1dcc4de8dec75d7aab85b567b6ccd41ad312451b948a7413f0a142fd40d49347"
                },
                "rlp" : "0xf90343f901f8a09b25016c45ce0e295a463681361471a29c00aea06cba17cbc22894ce6d2c1defa01dcc4de8dec75d7aab85b567b6ccd41ad312451b948a7413f0a142fd40d493479468795c4aa09d6f4ed3e5deddf8c2ad3049a601daa0daea7445043807ef19677fe220b738fadd6a0af474609ed39b4fdca85622cf9fa0730093a2bd757abcd3e2cbb071fcb606c62fc646a300060b2244777df1496a4ea0a30edcf22c59f80a85e1531125a0d5a46187defc4a4d0d2eff38da41ce626e83b90100000000000000000000000000000000000000000000000000000000000000000000000000000000000000000000000000000000000000000000000000000000000000000000000000000000000000000000000000000000000000000000000000000000000000000000000000000000000000000000000000000000000000000000000000000000000000000000000000000000000000000000000000000000000000000000000000000000000000000000000000000000000000000000000000000000000000000000000000000000000000000000000000000000000000000000000000000000000000000000000000000000000000000000000000000000008302000001833d37ef830215ed8203e880a055ac203b8b289491ca8cec3f8c8a1d83ac064ef945e28c92de6461035baeafc7884099cf0cef57a926f90144f901410101831e848094b94f5374fce5edbc8e2a8697c15331677e6ebf0b80b8e02f588cffe99db877a4434b598ab28f81e0522910ea52b45f0adaa772b2d5d3521d701ec9e3fca50e84777f0f68caff5bff48cf6a6bd4428462ae9366cf0582b02f588cffe99db877a4434b598ab28f81e0522910ea52b45f0adaa772b2d5d3521d701ec9e3fca50e84777f0f68caff5bff48cf6a6bd4428462ae9366cf0582b02f588cffe99db877a4434b598ab28f81e0522910ea52b45f0adaa772b2d5d3521d701ec9e3fca50e84777f0f68caff5bff48cf6a6bd4428462ae9366cf0582b000000000000000000000000000000000000000000000000000000000000000021ca00f178bbbacd2b5ef57fa76128ad17fa02f199e3dd399a225c4adea37da7194d7a058b245dc39e7a7b185635769c0912c94aa7a3305bd610f2e05134aa928f88a49c0",
                "transactions" : [
                    {
                        "data" : "0x2f588cffe99db877a4434b598ab28f81e0522910ea52b45f0adaa772b2d5d3521d701ec9e3fca50e84777f0f68caff5bff48cf6a6bd4428462ae9366cf0582b02f588cffe99db877a4434b598ab28f81e0522910ea52b45f0adaa772b2d5d3521d701ec9e3fca50e84777f0f68caff5bff48cf6a6bd4428462ae9366cf0582b02f588cffe99db877a4434b598ab28f81e0522910ea52b45f0adaa772b2d5d3521d701ec9e3fca50e84777f0f68caff5bff48cf6a6bd4428462ae9366cf0582b00000000000000000000000000000000000000000000000000000000000000002",
                        "gasLimit" : "0x1e8480",
                        "gasPrice" : "0x01",
                        "nonce" : "0x01",
                        "r" : "0x0f178bbbacd2b5ef57fa76128ad17fa02f199e3dd399a225c4adea37da7194d7",
                        "s" : "0x58b245dc39e7a7b185635769c0912c94aa7a3305bd610f2e05134aa928f88a49",
                        "to" : "0xb94f5374fce5edbc8e2a8697c15331677e6ebf0b",
                        "v" : "0x1c",
                        "value" : "0x00"
                    }
                ],
                "uncleHeaders" : [
                ]
            }
        ],
        "genesisBlockHeader" : {
            "bloom" : "0x00000000000000000000000000000000000000000000000000000000000000000000000000000000000000000000000000000000000000000000000000000000000000000000000000000000000000000000000000000000000000000000000000000000000000000000000000000000000000000000000000000000000000000000000000000000000000000000000000000000000000000000000000000000000000000000000000000000000000000000000000000000000000000000000000000000000000000000000000000000000000000000000000000000000000000000000000000000000000000000000000000000000000000000000000000000",
            "coinbase" : "0x68795c4aa09d6f4ed3e5deddf8c2ad3049a601da",
            "difficulty" : "0x020000",
            "extraData" : "0x42",
            "gasLimit" : "0x3d37ef",
            "gasUsed" : "0x00",
            "hash" : "0x9b25016c45ce0e295a463681361471a29c00aea06cba17cbc22894ce6d2c1def",
            "mixHash" : "0x56e81f171bcc55a6ff8345e692c0f86e5b48e01b996cadc001622fb5e363b421",
            "nonce" : "0x0102030405060708",
            "number" : "0x00",
            "parentHash" : "0x0000000000000000000000000000000000000000000000000000000000000000",
            "receiptTrie" : "0x56e81f171bcc55a6ff8345e692c0f86e5b48e01b996cadc001622fb5e363b421",
            "stateRoot" : "0xa4db92ceb60668ffcb9642d55fa7fe34cc341b53029d31394d82f0c61462bd99",
            "timestamp" : "0x03b6",
            "transactionsTrie" : "0x56e81f171bcc55a6ff8345e692c0f86e5b48e01b996cadc001622fb5e363b421",
            "uncleHash" : "0x1dcc4de8dec75d7aab85b567b6ccd41ad312451b948a7413f0a142fd40d49347"
        },
        "genesisRLP" : "0xf901faf901f5a00000000000000000000000000000000000000000000000000000000000000000a01dcc4de8dec75d7aab85b567b6ccd41ad312451b948a7413f0a142fd40d493479468795c4aa09d6f4ed3e5deddf8c2ad3049a601daa0a4db92ceb60668ffcb9642d55fa7fe34cc341b53029d31394d82f0c61462bd99a056e81f171bcc55a6ff8345e692c0f86e5b48e01b996cadc001622fb5e363b421a056e81f171bcc55a6ff8345e692c0f86e5b48e01b996cadc001622fb5e363b421b90100000000000000000000000000000000000000000000000000000000000000000000000000000000000000000000000000000000000000000000000000000000000000000000000000000000000000000000000000000000000000000000000000000000000000000000000000000000000000000000000000000000000000000000000000000000000000000000000000000000000000000000000000000000000000000000000000000000000000000000000000000000000000000000000000000000000000000000000000000000000000000000000000000000000000000000000000000000000000000000000000000000000000000000000000000000008302000080833d37ef808203b642a056e81f171bcc55a6ff8345e692c0f86e5b48e01b996cadc001622fb5e363b421880102030405060708c0c0",
        "lastblockhash" : "0xd2e6a3e27915a7b8193e201405bf90722d0e4f2d624f30560a4a9922ed6fa2b7",
        "network" : "EIP158",
        "postState" : {
            "0x68795c4aa09d6f4ed3e5deddf8c2ad3049a601da" : {
                "balance" : "0x4563918244f615ed",
                "code" : "",
                "nonce" : "0x00",
                "storage" : {
                }
            },
            "0xa94f5374fce5edbc8e2a8697c15331677e6ebf0b" : {
                "balance" : "0x0de0b6b3a761ea13",
                "code" : "",
                "nonce" : "0x02",
                "storage" : {
                }
            },
            "0xb94f5374fce5edbc8e2a8697c15331677e6ebf0b" : {
                "balance" : "0x00",
                "code" : "0x60003560005260203560205260403560405260603560605260803560805260a03560a05260c03560c052604061012c60806000600060066207a120f2600055604061019060606080600060076207a120f260015561012c51600a5561014c51600b55610190516014556101b051601555601454600a5414600255601554600b5414600355",
                "nonce" : "0x00",
                "storage" : {
                    "0x00" : "0x01",
                    "0x01" : "0x01",
                    "0x02" : "0x01",
                    "0x03" : "0x01"
                }
            }
        },
        "pre" : {
            "0xa94f5374fce5edbc8e2a8697c15331677e6ebf0b" : {
                "balance" : "0x0de0b6b3a7640000",
                "code" : "",
                "nonce" : "0x01",
                "storage" : {
                }
            },
            "0xb94f5374fce5edbc8e2a8697c15331677e6ebf0b" : {
                "balance" : "0x00",
                "code" : "0x60003560005260203560205260403560405260603560605260803560805260a03560a05260c03560c052604061012c60806000600060066207a120f2600055604061019060606080600060076207a120f260015561012c51600a5561014c51600b55610190516014556101b051601555601454600a5414600255601554600b5414600355",
                "nonce" : "0x00",
                "storage" : {
                }
            }
        }
    },
    "pointMulAdd2_d22g0v0_Frontier" : {
        "_info" : {
            "comment" : "",
            "filledwith" : "cpp-1.3.0+commit.4e101574.Linux.g++",
            "lllcversion" : "Version: 0.4.18-develop.2017.10.11+commit.81f9f86c.Linux.g++",
            "source" : "src/BlockchainTestsFiller/GeneralStateTests/stZeroKnowledge/pointMulAdd2_d22g0v0Filler.json",
            "sourceHash" : "7ca58773873f0e0a0b24a9323f29e06f25b8ddc5ccc8e1fa19606c186373c422"
        },
        "blocks" : [
            {
                "blockHeader" : {
                    "bloom" : "0x00000000000000000000000000000000000000000000000000000000000000000000000000000000000000000000000000000000000000000000000000000000000000000000000000000000000000000000000000000000000000000000000000000000000000000000000000000000000000000000000000000000000000000000000000000000000000000000000000000000000000000000000000000000000000000000000000000000000000000000000000000000000000000000000000000000000000000000000000000000000000000000000000000000000000000000000000000000000000000000000000000000000000000000000000000000",
                    "coinbase" : "0x68795c4aa09d6f4ed3e5deddf8c2ad3049a601da",
                    "difficulty" : "0x020000",
                    "extraData" : "",
                    "gasLimit" : "0x3d37ef",
                    "gasUsed" : "0x020e6d",
                    "hash" : "0x078293f6178195652862f2f8f080f310547338e19fd273f73259b922a1816348",
                    "mixHash" : "0x3225e195e52a15dd852ccee86113cf990909309f22622b19dd23fc06b0db6730",
                    "nonce" : "0x1ea10085513663bb",
                    "number" : "0x01",
                    "parentHash" : "0x9b25016c45ce0e295a463681361471a29c00aea06cba17cbc22894ce6d2c1def",
                    "receiptTrie" : "0xf8d655bb2ce3f0a094ef7783de44e74484ffe6763bf83d04c7785a132834b9c6",
                    "stateRoot" : "0x9af6a6d7bb86e93b6c70b7839ec338cfffad57ca45fe8a727f02dbdfe81346d4",
                    "timestamp" : "0x03e8",
                    "transactionsTrie" : "0x730093a2bd757abcd3e2cbb071fcb606c62fc646a300060b2244777df1496a4e",
                    "uncleHash" : "0x1dcc4de8dec75d7aab85b567b6ccd41ad312451b948a7413f0a142fd40d49347"
                },
                "rlp" : "0xf90343f901f8a09b25016c45ce0e295a463681361471a29c00aea06cba17cbc22894ce6d2c1defa01dcc4de8dec75d7aab85b567b6ccd41ad312451b948a7413f0a142fd40d493479468795c4aa09d6f4ed3e5deddf8c2ad3049a601daa09af6a6d7bb86e93b6c70b7839ec338cfffad57ca45fe8a727f02dbdfe81346d4a0730093a2bd757abcd3e2cbb071fcb606c62fc646a300060b2244777df1496a4ea0f8d655bb2ce3f0a094ef7783de44e74484ffe6763bf83d04c7785a132834b9c6b90100000000000000000000000000000000000000000000000000000000000000000000000000000000000000000000000000000000000000000000000000000000000000000000000000000000000000000000000000000000000000000000000000000000000000000000000000000000000000000000000000000000000000000000000000000000000000000000000000000000000000000000000000000000000000000000000000000000000000000000000000000000000000000000000000000000000000000000000000000000000000000000000000000000000000000000000000000000000000000000000000000000000000000000000000000000008302000001833d37ef83020e6d8203e880a03225e195e52a15dd852ccee86113cf990909309f22622b19dd23fc06b0db6730881ea10085513663bbf90144f901410101831e848094b94f5374fce5edbc8e2a8697c15331677e6ebf0b80b8e02f588cffe99db877a4434b598ab28f81e0522910ea52b45f0adaa772b2d5d3521d701ec9e3fca50e84777f0f68caff5bff48cf6a6bd4428462ae9366cf0582b02f588cffe99db877a4434b598ab28f81e0522910ea52b45f0adaa772b2d5d3521d701ec9e3fca50e84777f0f68caff5bff48cf6a6bd4428462ae9366cf0582b02f588cffe99db877a4434b598ab28f81e0522910ea52b45f0adaa772b2d5d3521d701ec9e3fca50e84777f0f68caff5bff48cf6a6bd4428462ae9366cf0582b000000000000000000000000000000000000000000000000000000000000000021ca00f178bbbacd2b5ef57fa76128ad17fa02f199e3dd399a225c4adea37da7194d7a058b245dc39e7a7b185635769c0912c94aa7a3305bd610f2e05134aa928f88a49c0",
                "transactions" : [
                    {
                        "data" : "0x2f588cffe99db877a4434b598ab28f81e0522910ea52b45f0adaa772b2d5d3521d701ec9e3fca50e84777f0f68caff5bff48cf6a6bd4428462ae9366cf0582b02f588cffe99db877a4434b598ab28f81e0522910ea52b45f0adaa772b2d5d3521d701ec9e3fca50e84777f0f68caff5bff48cf6a6bd4428462ae9366cf0582b02f588cffe99db877a4434b598ab28f81e0522910ea52b45f0adaa772b2d5d3521d701ec9e3fca50e84777f0f68caff5bff48cf6a6bd4428462ae9366cf0582b00000000000000000000000000000000000000000000000000000000000000002",
                        "gasLimit" : "0x1e8480",
                        "gasPrice" : "0x01",
                        "nonce" : "0x01",
                        "r" : "0x0f178bbbacd2b5ef57fa76128ad17fa02f199e3dd399a225c4adea37da7194d7",
                        "s" : "0x58b245dc39e7a7b185635769c0912c94aa7a3305bd610f2e05134aa928f88a49",
                        "to" : "0xb94f5374fce5edbc8e2a8697c15331677e6ebf0b",
                        "v" : "0x1c",
                        "value" : "0x00"
                    }
                ],
                "uncleHeaders" : [
                ]
            }
        ],
        "genesisBlockHeader" : {
            "bloom" : "0x00000000000000000000000000000000000000000000000000000000000000000000000000000000000000000000000000000000000000000000000000000000000000000000000000000000000000000000000000000000000000000000000000000000000000000000000000000000000000000000000000000000000000000000000000000000000000000000000000000000000000000000000000000000000000000000000000000000000000000000000000000000000000000000000000000000000000000000000000000000000000000000000000000000000000000000000000000000000000000000000000000000000000000000000000000000",
            "coinbase" : "0x68795c4aa09d6f4ed3e5deddf8c2ad3049a601da",
            "difficulty" : "0x020000",
            "extraData" : "0x42",
            "gasLimit" : "0x3d37ef",
            "gasUsed" : "0x00",
            "hash" : "0x9b25016c45ce0e295a463681361471a29c00aea06cba17cbc22894ce6d2c1def",
            "mixHash" : "0x56e81f171bcc55a6ff8345e692c0f86e5b48e01b996cadc001622fb5e363b421",
            "nonce" : "0x0102030405060708",
            "number" : "0x00",
            "parentHash" : "0x0000000000000000000000000000000000000000000000000000000000000000",
            "receiptTrie" : "0x56e81f171bcc55a6ff8345e692c0f86e5b48e01b996cadc001622fb5e363b421",
            "stateRoot" : "0xa4db92ceb60668ffcb9642d55fa7fe34cc341b53029d31394d82f0c61462bd99",
            "timestamp" : "0x03b6",
            "transactionsTrie" : "0x56e81f171bcc55a6ff8345e692c0f86e5b48e01b996cadc001622fb5e363b421",
            "uncleHash" : "0x1dcc4de8dec75d7aab85b567b6ccd41ad312451b948a7413f0a142fd40d49347"
        },
        "genesisRLP" : "0xf901faf901f5a00000000000000000000000000000000000000000000000000000000000000000a01dcc4de8dec75d7aab85b567b6ccd41ad312451b948a7413f0a142fd40d493479468795c4aa09d6f4ed3e5deddf8c2ad3049a601daa0a4db92ceb60668ffcb9642d55fa7fe34cc341b53029d31394d82f0c61462bd99a056e81f171bcc55a6ff8345e692c0f86e5b48e01b996cadc001622fb5e363b421a056e81f171bcc55a6ff8345e692c0f86e5b48e01b996cadc001622fb5e363b421b90100000000000000000000000000000000000000000000000000000000000000000000000000000000000000000000000000000000000000000000000000000000000000000000000000000000000000000000000000000000000000000000000000000000000000000000000000000000000000000000000000000000000000000000000000000000000000000000000000000000000000000000000000000000000000000000000000000000000000000000000000000000000000000000000000000000000000000000000000000000000000000000000000000000000000000000000000000000000000000000000000000000000000000000000000000000008302000080833d37ef808203b642a056e81f171bcc55a6ff8345e692c0f86e5b48e01b996cadc001622fb5e363b421880102030405060708c0c0",
        "lastblockhash" : "0x078293f6178195652862f2f8f080f310547338e19fd273f73259b922a1816348",
        "network" : "Frontier",
        "postState" : {
            "0x68795c4aa09d6f4ed3e5deddf8c2ad3049a601da" : {
                "balance" : "0x4563918244f60e6d",
                "code" : "",
                "nonce" : "0x00",
                "storage" : {
                }
            },
            "0xa94f5374fce5edbc8e2a8697c15331677e6ebf0b" : {
                "balance" : "0x0de0b6b3a761f193",
                "code" : "",
                "nonce" : "0x02",
                "storage" : {
                }
            },
            "0xb94f5374fce5edbc8e2a8697c15331677e6ebf0b" : {
                "balance" : "0x00",
                "code" : "0x60003560005260203560205260403560405260603560605260803560805260a03560a05260c03560c052604061012c60806000600060066207a120f2600055604061019060606080600060076207a120f260015561012c51600a5561014c51600b55610190516014556101b051601555601454600a5414600255601554600b5414600355",
                "nonce" : "0x00",
                "storage" : {
                    "0x00" : "0x01",
                    "0x01" : "0x01",
                    "0x02" : "0x01",
                    "0x03" : "0x01"
                }
            }
        },
        "pre" : {
            "0xa94f5374fce5edbc8e2a8697c15331677e6ebf0b" : {
                "balance" : "0x0de0b6b3a7640000",
                "code" : "",
                "nonce" : "0x01",
                "storage" : {
                }
            },
            "0xb94f5374fce5edbc8e2a8697c15331677e6ebf0b" : {
                "balance" : "0x00",
                "code" : "0x60003560005260203560205260403560405260603560605260803560805260a03560a05260c03560c052604061012c60806000600060066207a120f2600055604061019060606080600060076207a120f260015561012c51600a5561014c51600b55610190516014556101b051601555601454600a5414600255601554600b5414600355",
                "nonce" : "0x00",
                "storage" : {
                }
            }
        }
    },
    "pointMulAdd2_d22g0v0_Homestead" : {
        "_info" : {
            "comment" : "",
            "filledwith" : "cpp-1.3.0+commit.4e101574.Linux.g++",
            "lllcversion" : "Version: 0.4.18-develop.2017.10.11+commit.81f9f86c.Linux.g++",
            "source" : "src/BlockchainTestsFiller/GeneralStateTests/stZeroKnowledge/pointMulAdd2_d22g0v0Filler.json",
            "sourceHash" : "7ca58773873f0e0a0b24a9323f29e06f25b8ddc5ccc8e1fa19606c186373c422"
        },
        "blocks" : [
            {
                "blockHeader" : {
                    "bloom" : "0x00000000000000000000000000000000000000000000000000000000000000000000000000000000000000000000000000000000000000000000000000000000000000000000000000000000000000000000000000000000000000000000000000000000000000000000000000000000000000000000000000000000000000000000000000000000000000000000000000000000000000000000000000000000000000000000000000000000000000000000000000000000000000000000000000000000000000000000000000000000000000000000000000000000000000000000000000000000000000000000000000000000000000000000000000000000",
                    "coinbase" : "0x68795c4aa09d6f4ed3e5deddf8c2ad3049a601da",
                    "difficulty" : "0x020000",
                    "extraData" : "",
                    "gasLimit" : "0x3d37ef",
                    "gasUsed" : "0x020e6d",
                    "hash" : "0x0ce633855abd41e08a490f59531212ce66c75a84d1e3a7a3b4140da3667bc39b",
                    "mixHash" : "0x4ce363b455c2faae1b2a61f8865cb5a32caec6333f9dd119b7d6cea51fbb6b1a",
                    "nonce" : "0xf3b5da3576b5488a",
                    "number" : "0x01",
                    "parentHash" : "0x9b25016c45ce0e295a463681361471a29c00aea06cba17cbc22894ce6d2c1def",
                    "receiptTrie" : "0xf8d655bb2ce3f0a094ef7783de44e74484ffe6763bf83d04c7785a132834b9c6",
                    "stateRoot" : "0x9af6a6d7bb86e93b6c70b7839ec338cfffad57ca45fe8a727f02dbdfe81346d4",
                    "timestamp" : "0x03e8",
                    "transactionsTrie" : "0x730093a2bd757abcd3e2cbb071fcb606c62fc646a300060b2244777df1496a4e",
                    "uncleHash" : "0x1dcc4de8dec75d7aab85b567b6ccd41ad312451b948a7413f0a142fd40d49347"
                },
                "rlp" : "0xf90343f901f8a09b25016c45ce0e295a463681361471a29c00aea06cba17cbc22894ce6d2c1defa01dcc4de8dec75d7aab85b567b6ccd41ad312451b948a7413f0a142fd40d493479468795c4aa09d6f4ed3e5deddf8c2ad3049a601daa09af6a6d7bb86e93b6c70b7839ec338cfffad57ca45fe8a727f02dbdfe81346d4a0730093a2bd757abcd3e2cbb071fcb606c62fc646a300060b2244777df1496a4ea0f8d655bb2ce3f0a094ef7783de44e74484ffe6763bf83d04c7785a132834b9c6b90100000000000000000000000000000000000000000000000000000000000000000000000000000000000000000000000000000000000000000000000000000000000000000000000000000000000000000000000000000000000000000000000000000000000000000000000000000000000000000000000000000000000000000000000000000000000000000000000000000000000000000000000000000000000000000000000000000000000000000000000000000000000000000000000000000000000000000000000000000000000000000000000000000000000000000000000000000000000000000000000000000000000000000000000000000000008302000001833d37ef83020e6d8203e880a04ce363b455c2faae1b2a61f8865cb5a32caec6333f9dd119b7d6cea51fbb6b1a88f3b5da3576b5488af90144f901410101831e848094b94f5374fce5edbc8e2a8697c15331677e6ebf0b80b8e02f588cffe99db877a4434b598ab28f81e0522910ea52b45f0adaa772b2d5d3521d701ec9e3fca50e84777f0f68caff5bff48cf6a6bd4428462ae9366cf0582b02f588cffe99db877a4434b598ab28f81e0522910ea52b45f0adaa772b2d5d3521d701ec9e3fca50e84777f0f68caff5bff48cf6a6bd4428462ae9366cf0582b02f588cffe99db877a4434b598ab28f81e0522910ea52b45f0adaa772b2d5d3521d701ec9e3fca50e84777f0f68caff5bff48cf6a6bd4428462ae9366cf0582b000000000000000000000000000000000000000000000000000000000000000021ca00f178bbbacd2b5ef57fa76128ad17fa02f199e3dd399a225c4adea37da7194d7a058b245dc39e7a7b185635769c0912c94aa7a3305bd610f2e05134aa928f88a49c0",
                "transactions" : [
                    {
                        "data" : "0x2f588cffe99db877a4434b598ab28f81e0522910ea52b45f0adaa772b2d5d3521d701ec9e3fca50e84777f0f68caff5bff48cf6a6bd4428462ae9366cf0582b02f588cffe99db877a4434b598ab28f81e0522910ea52b45f0adaa772b2d5d3521d701ec9e3fca50e84777f0f68caff5bff48cf6a6bd4428462ae9366cf0582b02f588cffe99db877a4434b598ab28f81e0522910ea52b45f0adaa772b2d5d3521d701ec9e3fca50e84777f0f68caff5bff48cf6a6bd4428462ae9366cf0582b00000000000000000000000000000000000000000000000000000000000000002",
                        "gasLimit" : "0x1e8480",
                        "gasPrice" : "0x01",
                        "nonce" : "0x01",
                        "r" : "0x0f178bbbacd2b5ef57fa76128ad17fa02f199e3dd399a225c4adea37da7194d7",
                        "s" : "0x58b245dc39e7a7b185635769c0912c94aa7a3305bd610f2e05134aa928f88a49",
                        "to" : "0xb94f5374fce5edbc8e2a8697c15331677e6ebf0b",
                        "v" : "0x1c",
                        "value" : "0x00"
                    }
                ],
                "uncleHeaders" : [
                ]
            }
        ],
        "genesisBlockHeader" : {
            "bloom" : "0x00000000000000000000000000000000000000000000000000000000000000000000000000000000000000000000000000000000000000000000000000000000000000000000000000000000000000000000000000000000000000000000000000000000000000000000000000000000000000000000000000000000000000000000000000000000000000000000000000000000000000000000000000000000000000000000000000000000000000000000000000000000000000000000000000000000000000000000000000000000000000000000000000000000000000000000000000000000000000000000000000000000000000000000000000000000",
            "coinbase" : "0x68795c4aa09d6f4ed3e5deddf8c2ad3049a601da",
            "difficulty" : "0x020000",
            "extraData" : "0x42",
            "gasLimit" : "0x3d37ef",
            "gasUsed" : "0x00",
            "hash" : "0x9b25016c45ce0e295a463681361471a29c00aea06cba17cbc22894ce6d2c1def",
            "mixHash" : "0x56e81f171bcc55a6ff8345e692c0f86e5b48e01b996cadc001622fb5e363b421",
            "nonce" : "0x0102030405060708",
            "number" : "0x00",
            "parentHash" : "0x0000000000000000000000000000000000000000000000000000000000000000",
            "receiptTrie" : "0x56e81f171bcc55a6ff8345e692c0f86e5b48e01b996cadc001622fb5e363b421",
            "stateRoot" : "0xa4db92ceb60668ffcb9642d55fa7fe34cc341b53029d31394d82f0c61462bd99",
            "timestamp" : "0x03b6",
            "transactionsTrie" : "0x56e81f171bcc55a6ff8345e692c0f86e5b48e01b996cadc001622fb5e363b421",
            "uncleHash" : "0x1dcc4de8dec75d7aab85b567b6ccd41ad312451b948a7413f0a142fd40d49347"
        },
        "genesisRLP" : "0xf901faf901f5a00000000000000000000000000000000000000000000000000000000000000000a01dcc4de8dec75d7aab85b567b6ccd41ad312451b948a7413f0a142fd40d493479468795c4aa09d6f4ed3e5deddf8c2ad3049a601daa0a4db92ceb60668ffcb9642d55fa7fe34cc341b53029d31394d82f0c61462bd99a056e81f171bcc55a6ff8345e692c0f86e5b48e01b996cadc001622fb5e363b421a056e81f171bcc55a6ff8345e692c0f86e5b48e01b996cadc001622fb5e363b421b90100000000000000000000000000000000000000000000000000000000000000000000000000000000000000000000000000000000000000000000000000000000000000000000000000000000000000000000000000000000000000000000000000000000000000000000000000000000000000000000000000000000000000000000000000000000000000000000000000000000000000000000000000000000000000000000000000000000000000000000000000000000000000000000000000000000000000000000000000000000000000000000000000000000000000000000000000000000000000000000000000000000000000000000000000000000008302000080833d37ef808203b642a056e81f171bcc55a6ff8345e692c0f86e5b48e01b996cadc001622fb5e363b421880102030405060708c0c0",
        "lastblockhash" : "0x0ce633855abd41e08a490f59531212ce66c75a84d1e3a7a3b4140da3667bc39b",
        "network" : "Homestead",
        "postState" : {
            "0x68795c4aa09d6f4ed3e5deddf8c2ad3049a601da" : {
                "balance" : "0x4563918244f60e6d",
                "code" : "",
                "nonce" : "0x00",
                "storage" : {
                }
            },
            "0xa94f5374fce5edbc8e2a8697c15331677e6ebf0b" : {
                "balance" : "0x0de0b6b3a761f193",
                "code" : "",
                "nonce" : "0x02",
                "storage" : {
                }
            },
            "0xb94f5374fce5edbc8e2a8697c15331677e6ebf0b" : {
                "balance" : "0x00",
                "code" : "0x60003560005260203560205260403560405260603560605260803560805260a03560a05260c03560c052604061012c60806000600060066207a120f2600055604061019060606080600060076207a120f260015561012c51600a5561014c51600b55610190516014556101b051601555601454600a5414600255601554600b5414600355",
                "nonce" : "0x00",
                "storage" : {
                    "0x00" : "0x01",
                    "0x01" : "0x01",
                    "0x02" : "0x01",
                    "0x03" : "0x01"
                }
            }
        },
        "pre" : {
            "0xa94f5374fce5edbc8e2a8697c15331677e6ebf0b" : {
                "balance" : "0x0de0b6b3a7640000",
                "code" : "",
                "nonce" : "0x01",
                "storage" : {
                }
            },
            "0xb94f5374fce5edbc8e2a8697c15331677e6ebf0b" : {
                "balance" : "0x00",
                "code" : "0x60003560005260203560205260403560405260603560605260803560805260a03560a05260c03560c052604061012c60806000600060066207a120f2600055604061019060606080600060076207a120f260015561012c51600a5561014c51600b55610190516014556101b051601555601454600a5414600255601554600b5414600355",
                "nonce" : "0x00",
                "storage" : {
                }
            }
        }
    }
}