{
    "pointMulAdd_d6g0v0_Byzantium" : {
        "_info" : {
            "comment" : "",
            "filledwith" : "cpp-1.3.0+commit.4e101574.Linux.g++",
            "lllcversion" : "Version: 0.4.18-develop.2017.10.11+commit.81f9f86c.Linux.g++",
            "source" : "src/BlockchainTestsFiller/GeneralStateTests/stZeroKnowledge/pointMulAdd_d6g0v0Filler.json",
            "sourceHash" : "c9f1cea9c06d5f4ae8d62d2eb08b34b89717a3b042a82b79c2e38b55bc93a6ff"
        },
        "blocks" : [
            {
                "blockHeader" : {
                    "bloom" : "0x00000000000000000000000000000000000000000000000000000000000000000000000000000000000000000000000000000000000000000000000000000000000000000000000000000000000000000000000000000000000000000000000000000000000000000000000000000000000000000000000000000000000000000000000000000000000000000000000000000000000000000000000000000000000000000000000000000000000000000000000000000000000000000000000000000000000000000000000000000000000000000000000000000000000000000000000000000000000000000000000000000000000000000000000000000000",
                    "coinbase" : "0x68795c4aa09d6f4ed3e5deddf8c2ad3049a601da",
                    "difficulty" : "0x020000",
                    "extraData" : "",
                    "gasLimit" : "0x3d37ef",
                    "gasUsed" : "0x038e01",
                    "hash" : "0x94eb0037e9dee393130932b6801ee73c35b827466a9774cea9e01adc2b3891af",
                    "mixHash" : "0x30a6ea5a2f797c1ff52a13d347b6f3187e45d06cb2f35bd8a29f61dfe20d20ed",
                    "nonce" : "0x2533b5dd0872fac3",
                    "number" : "0x01",
                    "parentHash" : "0x9b25016c45ce0e295a463681361471a29c00aea06cba17cbc22894ce6d2c1def",
                    "receiptTrie" : "0x24406d55c8380e2203fdb6e741c7adda53ec28564795ccaf46f77f0fb8efe0ed",
                    "stateRoot" : "0x2dc5bacddbb67c9915d516f442b1fd804b5f782701efb96b93f96ad87e01bab9",
                    "timestamp" : "0x03e8",
                    "transactionsTrie" : "0x925e07bb2a6b88414a9381eb987b2e7371877264383ca69a94b640be5a77a89f",
                    "uncleHash" : "0x1dcc4de8dec75d7aab85b567b6ccd41ad312451b948a7413f0a142fd40d49347"
                },
                "rlp" : "0xf90343f901f8a09b25016c45ce0e295a463681361471a29c00aea06cba17cbc22894ce6d2c1defa01dcc4de8dec75d7aab85b567b6ccd41ad312451b948a7413f0a142fd40d493479468795c4aa09d6f4ed3e5deddf8c2ad3049a601daa02dc5bacddbb67c9915d516f442b1fd804b5f782701efb96b93f96ad87e01bab9a0925e07bb2a6b88414a9381eb987b2e7371877264383ca69a94b640be5a77a89fa024406d55c8380e2203fdb6e741c7adda53ec28564795ccaf46f77f0fb8efe0edb90100000000000000000000000000000000000000000000000000000000000000000000000000000000000000000000000000000000000000000000000000000000000000000000000000000000000000000000000000000000000000000000000000000000000000000000000000000000000000000000000000000000000000000000000000000000000000000000000000000000000000000000000000000000000000000000000000000000000000000000000000000000000000000000000000000000000000000000000000000000000000000000000000000000000000000000000000000000000000000000000000000000000000000000000000000000008302000001833d37ef83038e018203e880a030a6ea5a2f797c1ff52a13d347b6f3187e45d06cb2f35bd8a29f61dfe20d20ed882533b5dd0872fac3f90144f901410101831e848094b94f5374fce5edbc8e2a8697c15331677e6ebf0b80b8e01de49a4b0233273bba8146af82042d004f2085ec982397db0d97da17204cc2860217327ffc463919bef80cc166d09c6172639d8589799928761bcd9f22c903d4000000000000000000000000000000000000000000000000000000000000000000000000000000000000000000000000000000000000000000000000000000001de49a4b0233273bba8146af82042d004f2085ec982397db0d97da17204cc2860217327ffc463919bef80cc166d09c6172639d8589799928761bcd9f22c903d400000000000000000000000000000000000000000000000000000000000000011ba0cb7a59eb7084f4029f3149a2d39a72f7bec1824f872119b55fcd044d16232039a00c8b7f07481e3304a3ccea3b839a168615ddea90afd2a9e27cf4d155be75fc0cc0",
                "transactions" : [
                    {
                        "data" : "0x1de49a4b0233273bba8146af82042d004f2085ec982397db0d97da17204cc2860217327ffc463919bef80cc166d09c6172639d8589799928761bcd9f22c903d4000000000000000000000000000000000000000000000000000000000000000000000000000000000000000000000000000000000000000000000000000000001de49a4b0233273bba8146af82042d004f2085ec982397db0d97da17204cc2860217327ffc463919bef80cc166d09c6172639d8589799928761bcd9f22c903d40000000000000000000000000000000000000000000000000000000000000001",
                        "gasLimit" : "0x1e8480",
                        "gasPrice" : "0x01",
                        "nonce" : "0x01",
                        "r" : "0xcb7a59eb7084f4029f3149a2d39a72f7bec1824f872119b55fcd044d16232039",
                        "s" : "0x0c8b7f07481e3304a3ccea3b839a168615ddea90afd2a9e27cf4d155be75fc0c",
                        "to" : "0xb94f5374fce5edbc8e2a8697c15331677e6ebf0b",
                        "v" : "0x1b",
                        "value" : "0x00"
                    }
                ],
                "uncleHeaders" : [
                ]
            }
        ],
        "genesisBlockHeader" : {
            "bloom" : "0x00000000000000000000000000000000000000000000000000000000000000000000000000000000000000000000000000000000000000000000000000000000000000000000000000000000000000000000000000000000000000000000000000000000000000000000000000000000000000000000000000000000000000000000000000000000000000000000000000000000000000000000000000000000000000000000000000000000000000000000000000000000000000000000000000000000000000000000000000000000000000000000000000000000000000000000000000000000000000000000000000000000000000000000000000000000",
            "coinbase" : "0x68795c4aa09d6f4ed3e5deddf8c2ad3049a601da",
            "difficulty" : "0x020000",
            "extraData" : "0x42",
            "gasLimit" : "0x3d37ef",
            "gasUsed" : "0x00",
            "hash" : "0x9b25016c45ce0e295a463681361471a29c00aea06cba17cbc22894ce6d2c1def",
            "mixHash" : "0x56e81f171bcc55a6ff8345e692c0f86e5b48e01b996cadc001622fb5e363b421",
            "nonce" : "0x0102030405060708",
            "number" : "0x00",
            "parentHash" : "0x0000000000000000000000000000000000000000000000000000000000000000",
            "receiptTrie" : "0x56e81f171bcc55a6ff8345e692c0f86e5b48e01b996cadc001622fb5e363b421",
            "stateRoot" : "0xa4db92ceb60668ffcb9642d55fa7fe34cc341b53029d31394d82f0c61462bd99",
            "timestamp" : "0x03b6",
            "transactionsTrie" : "0x56e81f171bcc55a6ff8345e692c0f86e5b48e01b996cadc001622fb5e363b421",
            "uncleHash" : "0x1dcc4de8dec75d7aab85b567b6ccd41ad312451b948a7413f0a142fd40d49347"
        },
        "genesisRLP" : "0xf901faf901f5a00000000000000000000000000000000000000000000000000000000000000000a01dcc4de8dec75d7aab85b567b6ccd41ad312451b948a7413f0a142fd40d493479468795c4aa09d6f4ed3e5deddf8c2ad3049a601daa0a4db92ceb60668ffcb9642d55fa7fe34cc341b53029d31394d82f0c61462bd99a056e81f171bcc55a6ff8345e692c0f86e5b48e01b996cadc001622fb5e363b421a056e81f171bcc55a6ff8345e692c0f86e5b48e01b996cadc001622fb5e363b421b90100000000000000000000000000000000000000000000000000000000000000000000000000000000000000000000000000000000000000000000000000000000000000000000000000000000000000000000000000000000000000000000000000000000000000000000000000000000000000000000000000000000000000000000000000000000000000000000000000000000000000000000000000000000000000000000000000000000000000000000000000000000000000000000000000000000000000000000000000000000000000000000000000000000000000000000000000000000000000000000000000000000000000000000000000000000008302000080833d37ef808203b642a056e81f171bcc55a6ff8345e692c0f86e5b48e01b996cadc001622fb5e363b421880102030405060708c0c0",
        "lastblockhash" : "0x94eb0037e9dee393130932b6801ee73c35b827466a9774cea9e01adc2b3891af",
        "network" : "Byzantium",
        "postState" : {
            "0x68795c4aa09d6f4ed3e5deddf8c2ad3049a601da" : {
                "balance" : "0x29a2241af62f8e01",
                "code" : "",
                "nonce" : "0x00",
                "storage" : {
                }
            },
            "0xa94f5374fce5edbc8e2a8697c15331677e6ebf0b" : {
                "balance" : "0x0de0b6b3a76071ff",
                "code" : "",
                "nonce" : "0x02",
                "storage" : {
                }
            },
            "0xb94f5374fce5edbc8e2a8697c15331677e6ebf0b" : {
                "balance" : "0x00",
                "code" : "0x60003560005260203560205260403560405260603560605260803560805260a03560a05260c03560c052604061012c60806000600060066207a120f2600055604061019060606080600060076207a120f260015561012c51600a5561014c51600b55610190516014556101b051601555601454600a5414600255601554600b5414600355",
                "nonce" : "0x00",
                "storage" : {
                    "0x00" : "0x01",
                    "0x01" : "0x01",
                    "0x02" : "0x01",
                    "0x03" : "0x01",
                    "0x0a" : "0x1de49a4b0233273bba8146af82042d004f2085ec982397db0d97da17204cc286",
                    "0x0b" : "0x0217327ffc463919bef80cc166d09c6172639d8589799928761bcd9f22c903d4",
                    "0x14" : "0x1de49a4b0233273bba8146af82042d004f2085ec982397db0d97da17204cc286",
                    "0x15" : "0x0217327ffc463919bef80cc166d09c6172639d8589799928761bcd9f22c903d4"
                }
            }
        },
        "pre" : {
            "0xa94f5374fce5edbc8e2a8697c15331677e6ebf0b" : {
                "balance" : "0x0de0b6b3a7640000",
                "code" : "",
                "nonce" : "0x01",
                "storage" : {
                }
            },
            "0xb94f5374fce5edbc8e2a8697c15331677e6ebf0b" : {
                "balance" : "0x00",
                "code" : "0x60003560005260203560205260403560405260603560605260803560805260a03560a05260c03560c052604061012c60806000600060066207a120f2600055604061019060606080600060076207a120f260015561012c51600a5561014c51600b55610190516014556101b051601555601454600a5414600255601554600b5414600355",
                "nonce" : "0x00",
                "storage" : {
                }
            }
        }
    },
    "pointMulAdd_d6g0v0_EIP150" : {
        "_info" : {
            "comment" : "",
            "filledwith" : "cpp-1.3.0+commit.4e101574.Linux.g++",
            "lllcversion" : "Version: 0.4.18-develop.2017.10.11+commit.81f9f86c.Linux.g++",
            "source" : "src/BlockchainTestsFiller/GeneralStateTests/stZeroKnowledge/pointMulAdd_d6g0v0Filler.json",
            "sourceHash" : "c9f1cea9c06d5f4ae8d62d2eb08b34b89717a3b042a82b79c2e38b55bc93a6ff"
        },
        "blocks" : [
            {
                "blockHeader" : {
                    "bloom" : "0x00000000000000000000000000000000000000000000000000000000000000000000000000000000000000000000000000000000000000000000000000000000000000000000000000000000000000000000000000000000000000000000000000000000000000000000000000000000000000000000000000000000000000000000000000000000000000000000000000000000000000000000000000000000000000000000000000000000000000000000000000000000000000000000000000000000000000000000000000000000000000000000000000000000000000000000000000000000000000000000000000000000000000000000000000000000",
                    "coinbase" : "0x68795c4aa09d6f4ed3e5deddf8c2ad3049a601da",
                    "difficulty" : "0x020000",
                    "extraData" : "",
                    "gasLimit" : "0x3d37ef",
                    "gasUsed" : "0x02056d",
                    "hash" : "0xef2a2ee4124f1823638f1da4c39f8a3d674fb1c544832133a7fee4af92df7d99",
                    "mixHash" : "0x6afcc2cd83f112da3c4f271fab607613516618f96cbb17dc2c1dd8cfa7b4da1f",
                    "nonce" : "0xfe5845693c7f29cd",
                    "number" : "0x01",
                    "parentHash" : "0x9b25016c45ce0e295a463681361471a29c00aea06cba17cbc22894ce6d2c1def",
                    "receiptTrie" : "0x92ebd4767329cccd9f14ea8ea552c3a97ee66f2f90778b7bb685adfabdf07c43",
                    "stateRoot" : "0xdb421d98fbbccff9ad57a45a4b1721e29951386e51b8eab327e1c9d0c233e9e5",
                    "timestamp" : "0x03e8",
                    "transactionsTrie" : "0x925e07bb2a6b88414a9381eb987b2e7371877264383ca69a94b640be5a77a89f",
                    "uncleHash" : "0x1dcc4de8dec75d7aab85b567b6ccd41ad312451b948a7413f0a142fd40d49347"
                },
                "rlp" : "0xf90343f901f8a09b25016c45ce0e295a463681361471a29c00aea06cba17cbc22894ce6d2c1defa01dcc4de8dec75d7aab85b567b6ccd41ad312451b948a7413f0a142fd40d493479468795c4aa09d6f4ed3e5deddf8c2ad3049a601daa0db421d98fbbccff9ad57a45a4b1721e29951386e51b8eab327e1c9d0c233e9e5a0925e07bb2a6b88414a9381eb987b2e7371877264383ca69a94b640be5a77a89fa092ebd4767329cccd9f14ea8ea552c3a97ee66f2f90778b7bb685adfabdf07c43b90100000000000000000000000000000000000000000000000000000000000000000000000000000000000000000000000000000000000000000000000000000000000000000000000000000000000000000000000000000000000000000000000000000000000000000000000000000000000000000000000000000000000000000000000000000000000000000000000000000000000000000000000000000000000000000000000000000000000000000000000000000000000000000000000000000000000000000000000000000000000000000000000000000000000000000000000000000000000000000000000000000000000000000000000000000000008302000001833d37ef8302056d8203e880a06afcc2cd83f112da3c4f271fab607613516618f96cbb17dc2c1dd8cfa7b4da1f88fe5845693c7f29cdf90144f901410101831e848094b94f5374fce5edbc8e2a8697c15331677e6ebf0b80b8e01de49a4b0233273bba8146af82042d004f2085ec982397db0d97da17204cc2860217327ffc463919bef80cc166d09c6172639d8589799928761bcd9f22c903d4000000000000000000000000000000000000000000000000000000000000000000000000000000000000000000000000000000000000000000000000000000001de49a4b0233273bba8146af82042d004f2085ec982397db0d97da17204cc2860217327ffc463919bef80cc166d09c6172639d8589799928761bcd9f22c903d400000000000000000000000000000000000000000000000000000000000000011ba0cb7a59eb7084f4029f3149a2d39a72f7bec1824f872119b55fcd044d16232039a00c8b7f07481e3304a3ccea3b839a168615ddea90afd2a9e27cf4d155be75fc0cc0",
                "transactions" : [
                    {
                        "data" : "0x1de49a4b0233273bba8146af82042d004f2085ec982397db0d97da17204cc2860217327ffc463919bef80cc166d09c6172639d8589799928761bcd9f22c903d4000000000000000000000000000000000000000000000000000000000000000000000000000000000000000000000000000000000000000000000000000000001de49a4b0233273bba8146af82042d004f2085ec982397db0d97da17204cc2860217327ffc463919bef80cc166d09c6172639d8589799928761bcd9f22c903d40000000000000000000000000000000000000000000000000000000000000001",
                        "gasLimit" : "0x1e8480",
                        "gasPrice" : "0x01",
                        "nonce" : "0x01",
                        "r" : "0xcb7a59eb7084f4029f3149a2d39a72f7bec1824f872119b55fcd044d16232039",
                        "s" : "0x0c8b7f07481e3304a3ccea3b839a168615ddea90afd2a9e27cf4d155be75fc0c",
                        "to" : "0xb94f5374fce5edbc8e2a8697c15331677e6ebf0b",
                        "v" : "0x1b",
                        "value" : "0x00"
                    }
                ],
                "uncleHeaders" : [
                ]
            }
        ],
        "genesisBlockHeader" : {
            "bloom" : "0x00000000000000000000000000000000000000000000000000000000000000000000000000000000000000000000000000000000000000000000000000000000000000000000000000000000000000000000000000000000000000000000000000000000000000000000000000000000000000000000000000000000000000000000000000000000000000000000000000000000000000000000000000000000000000000000000000000000000000000000000000000000000000000000000000000000000000000000000000000000000000000000000000000000000000000000000000000000000000000000000000000000000000000000000000000000",
            "coinbase" : "0x68795c4aa09d6f4ed3e5deddf8c2ad3049a601da",
            "difficulty" : "0x020000",
            "extraData" : "0x42",
            "gasLimit" : "0x3d37ef",
            "gasUsed" : "0x00",
            "hash" : "0x9b25016c45ce0e295a463681361471a29c00aea06cba17cbc22894ce6d2c1def",
            "mixHash" : "0x56e81f171bcc55a6ff8345e692c0f86e5b48e01b996cadc001622fb5e363b421",
            "nonce" : "0x0102030405060708",
            "number" : "0x00",
            "parentHash" : "0x0000000000000000000000000000000000000000000000000000000000000000",
            "receiptTrie" : "0x56e81f171bcc55a6ff8345e692c0f86e5b48e01b996cadc001622fb5e363b421",
            "stateRoot" : "0xa4db92ceb60668ffcb9642d55fa7fe34cc341b53029d31394d82f0c61462bd99",
            "timestamp" : "0x03b6",
            "transactionsTrie" : "0x56e81f171bcc55a6ff8345e692c0f86e5b48e01b996cadc001622fb5e363b421",
            "uncleHash" : "0x1dcc4de8dec75d7aab85b567b6ccd41ad312451b948a7413f0a142fd40d49347"
        },
        "genesisRLP" : "0xf901faf901f5a00000000000000000000000000000000000000000000000000000000000000000a01dcc4de8dec75d7aab85b567b6ccd41ad312451b948a7413f0a142fd40d493479468795c4aa09d6f4ed3e5deddf8c2ad3049a601daa0a4db92ceb60668ffcb9642d55fa7fe34cc341b53029d31394d82f0c61462bd99a056e81f171bcc55a6ff8345e692c0f86e5b48e01b996cadc001622fb5e363b421a056e81f171bcc55a6ff8345e692c0f86e5b48e01b996cadc001622fb5e363b421b90100000000000000000000000000000000000000000000000000000000000000000000000000000000000000000000000000000000000000000000000000000000000000000000000000000000000000000000000000000000000000000000000000000000000000000000000000000000000000000000000000000000000000000000000000000000000000000000000000000000000000000000000000000000000000000000000000000000000000000000000000000000000000000000000000000000000000000000000000000000000000000000000000000000000000000000000000000000000000000000000000000000000000000000000000000000008302000080833d37ef808203b642a056e81f171bcc55a6ff8345e692c0f86e5b48e01b996cadc001622fb5e363b421880102030405060708c0c0",
        "lastblockhash" : "0xef2a2ee4124f1823638f1da4c39f8a3d674fb1c544832133a7fee4af92df7d99",
        "network" : "EIP150",
        "postState" : {
            "0x68795c4aa09d6f4ed3e5deddf8c2ad3049a601da" : {
                "balance" : "0x4563918244f6056d",
                "code" : "",
                "nonce" : "0x00",
                "storage" : {
                }
            },
            "0xa94f5374fce5edbc8e2a8697c15331677e6ebf0b" : {
                "balance" : "0x0de0b6b3a761fa93",
                "code" : "",
                "nonce" : "0x02",
                "storage" : {
                }
            },
            "0xb94f5374fce5edbc8e2a8697c15331677e6ebf0b" : {
                "balance" : "0x00",
                "code" : "0x60003560005260203560205260403560405260603560605260803560805260a03560a05260c03560c052604061012c60806000600060066207a120f2600055604061019060606080600060076207a120f260015561012c51600a5561014c51600b55610190516014556101b051601555601454600a5414600255601554600b5414600355",
                "nonce" : "0x00",
                "storage" : {
                    "0x00" : "0x01",
                    "0x01" : "0x01",
                    "0x02" : "0x01",
                    "0x03" : "0x01"
                }
            }
        },
        "pre" : {
            "0xa94f5374fce5edbc8e2a8697c15331677e6ebf0b" : {
                "balance" : "0x0de0b6b3a7640000",
                "code" : "",
                "nonce" : "0x01",
                "storage" : {
                }
            },
            "0xb94f5374fce5edbc8e2a8697c15331677e6ebf0b" : {
                "balance" : "0x00",
                "code" : "0x60003560005260203560205260403560405260603560605260803560805260a03560a05260c03560c052604061012c60806000600060066207a120f2600055604061019060606080600060076207a120f260015561012c51600a5561014c51600b55610190516014556101b051601555601454600a5414600255601554600b5414600355",
                "nonce" : "0x00",
                "storage" : {
                }
            }
        }
    },
    "pointMulAdd_d6g0v0_EIP158" : {
        "_info" : {
            "comment" : "",
            "filledwith" : "cpp-1.3.0+commit.4e101574.Linux.g++",
            "lllcversion" : "Version: 0.4.18-develop.2017.10.11+commit.81f9f86c.Linux.g++",
            "source" : "src/BlockchainTestsFiller/GeneralStateTests/stZeroKnowledge/pointMulAdd_d6g0v0Filler.json",
            "sourceHash" : "c9f1cea9c06d5f4ae8d62d2eb08b34b89717a3b042a82b79c2e38b55bc93a6ff"
        },
        "blocks" : [
            {
                "blockHeader" : {
                    "bloom" : "0x00000000000000000000000000000000000000000000000000000000000000000000000000000000000000000000000000000000000000000000000000000000000000000000000000000000000000000000000000000000000000000000000000000000000000000000000000000000000000000000000000000000000000000000000000000000000000000000000000000000000000000000000000000000000000000000000000000000000000000000000000000000000000000000000000000000000000000000000000000000000000000000000000000000000000000000000000000000000000000000000000000000000000000000000000000000",
                    "coinbase" : "0x68795c4aa09d6f4ed3e5deddf8c2ad3049a601da",
                    "difficulty" : "0x020000",
                    "extraData" : "",
                    "gasLimit" : "0x3d37ef",
                    "gasUsed" : "0x02056d",
                    "hash" : "0x2666de9ae0b98d8ebb46bf034bc0dddd9a052255dbe370b36c013d1e956a7bf2",
                    "mixHash" : "0x3c61cdcb473a28c17e38ccb7912a2fdfd87b1c5917420ce569eac7be75da71c0",
                    "nonce" : "0xf2733f04f74b606f",
                    "number" : "0x01",
                    "parentHash" : "0x9b25016c45ce0e295a463681361471a29c00aea06cba17cbc22894ce6d2c1def",
                    "receiptTrie" : "0x92ebd4767329cccd9f14ea8ea552c3a97ee66f2f90778b7bb685adfabdf07c43",
                    "stateRoot" : "0xdb421d98fbbccff9ad57a45a4b1721e29951386e51b8eab327e1c9d0c233e9e5",
                    "timestamp" : "0x03e8",
                    "transactionsTrie" : "0x925e07bb2a6b88414a9381eb987b2e7371877264383ca69a94b640be5a77a89f",
                    "uncleHash" : "0x1dcc4de8dec75d7aab85b567b6ccd41ad312451b948a7413f0a142fd40d49347"
                },
                "rlp" : "0xf90343f901f8a09b25016c45ce0e295a463681361471a29c00aea06cba17cbc22894ce6d2c1defa01dcc4de8dec75d7aab85b567b6ccd41ad312451b948a7413f0a142fd40d493479468795c4aa09d6f4ed3e5deddf8c2ad3049a601daa0db421d98fbbccff9ad57a45a4b1721e29951386e51b8eab327e1c9d0c233e9e5a0925e07bb2a6b88414a9381eb987b2e7371877264383ca69a94b640be5a77a89fa092ebd4767329cccd9f14ea8ea552c3a97ee66f2f90778b7bb685adfabdf07c43b90100000000000000000000000000000000000000000000000000000000000000000000000000000000000000000000000000000000000000000000000000000000000000000000000000000000000000000000000000000000000000000000000000000000000000000000000000000000000000000000000000000000000000000000000000000000000000000000000000000000000000000000000000000000000000000000000000000000000000000000000000000000000000000000000000000000000000000000000000000000000000000000000000000000000000000000000000000000000000000000000000000000000000000000000000000000008302000001833d37ef8302056d8203e880a03c61cdcb473a28c17e38ccb7912a2fdfd87b1c5917420ce569eac7be75da71c088f2733f04f74b606ff90144f901410101831e848094b94f5374fce5edbc8e2a8697c15331677e6ebf0b80b8e01de49a4b0233273bba8146af82042d004f2085ec982397db0d97da17204cc2860217327ffc463919bef80cc166d09c6172639d8589799928761bcd9f22c903d4000000000000000000000000000000000000000000000000000000000000000000000000000000000000000000000000000000000000000000000000000000001de49a4b0233273bba8146af82042d004f2085ec982397db0d97da17204cc2860217327ffc463919bef80cc166d09c6172639d8589799928761bcd9f22c903d400000000000000000000000000000000000000000000000000000000000000011ba0cb7a59eb7084f4029f3149a2d39a72f7bec1824f872119b55fcd044d16232039a00c8b7f07481e3304a3ccea3b839a168615ddea90afd2a9e27cf4d155be75fc0cc0",
                "transactions" : [
                    {
                        "data" : "0x1de49a4b0233273bba8146af82042d004f2085ec982397db0d97da17204cc2860217327ffc463919bef80cc166d09c6172639d8589799928761bcd9f22c903d4000000000000000000000000000000000000000000000000000000000000000000000000000000000000000000000000000000000000000000000000000000001de49a4b0233273bba8146af82042d004f2085ec982397db0d97da17204cc2860217327ffc463919bef80cc166d09c6172639d8589799928761bcd9f22c903d40000000000000000000000000000000000000000000000000000000000000001",
                        "gasLimit" : "0x1e8480",
                        "gasPrice" : "0x01",
                        "nonce" : "0x01",
                        "r" : "0xcb7a59eb7084f4029f3149a2d39a72f7bec1824f872119b55fcd044d16232039",
                        "s" : "0x0c8b7f07481e3304a3ccea3b839a168615ddea90afd2a9e27cf4d155be75fc0c",
                        "to" : "0xb94f5374fce5edbc8e2a8697c15331677e6ebf0b",
                        "v" : "0x1b",
                        "value" : "0x00"
                    }
                ],
                "uncleHeaders" : [
                ]
            }
        ],
        "genesisBlockHeader" : {
            "bloom" : "0x00000000000000000000000000000000000000000000000000000000000000000000000000000000000000000000000000000000000000000000000000000000000000000000000000000000000000000000000000000000000000000000000000000000000000000000000000000000000000000000000000000000000000000000000000000000000000000000000000000000000000000000000000000000000000000000000000000000000000000000000000000000000000000000000000000000000000000000000000000000000000000000000000000000000000000000000000000000000000000000000000000000000000000000000000000000",
            "coinbase" : "0x68795c4aa09d6f4ed3e5deddf8c2ad3049a601da",
            "difficulty" : "0x020000",
            "extraData" : "0x42",
            "gasLimit" : "0x3d37ef",
            "gasUsed" : "0x00",
            "hash" : "0x9b25016c45ce0e295a463681361471a29c00aea06cba17cbc22894ce6d2c1def",
            "mixHash" : "0x56e81f171bcc55a6ff8345e692c0f86e5b48e01b996cadc001622fb5e363b421",
            "nonce" : "0x0102030405060708",
            "number" : "0x00",
            "parentHash" : "0x0000000000000000000000000000000000000000000000000000000000000000",
            "receiptTrie" : "0x56e81f171bcc55a6ff8345e692c0f86e5b48e01b996cadc001622fb5e363b421",
            "stateRoot" : "0xa4db92ceb60668ffcb9642d55fa7fe34cc341b53029d31394d82f0c61462bd99",
            "timestamp" : "0x03b6",
            "transactionsTrie" : "0x56e81f171bcc55a6ff8345e692c0f86e5b48e01b996cadc001622fb5e363b421",
            "uncleHash" : "0x1dcc4de8dec75d7aab85b567b6ccd41ad312451b948a7413f0a142fd40d49347"
        },
        "genesisRLP" : "0xf901faf901f5a00000000000000000000000000000000000000000000000000000000000000000a01dcc4de8dec75d7aab85b567b6ccd41ad312451b948a7413f0a142fd40d493479468795c4aa09d6f4ed3e5deddf8c2ad3049a601daa0a4db92ceb60668ffcb9642d55fa7fe34cc341b53029d31394d82f0c61462bd99a056e81f171bcc55a6ff8345e692c0f86e5b48e01b996cadc001622fb5e363b421a056e81f171bcc55a6ff8345e692c0f86e5b48e01b996cadc001622fb5e363b421b90100000000000000000000000000000000000000000000000000000000000000000000000000000000000000000000000000000000000000000000000000000000000000000000000000000000000000000000000000000000000000000000000000000000000000000000000000000000000000000000000000000000000000000000000000000000000000000000000000000000000000000000000000000000000000000000000000000000000000000000000000000000000000000000000000000000000000000000000000000000000000000000000000000000000000000000000000000000000000000000000000000000000000000000000000000000008302000080833d37ef808203b642a056e81f171bcc55a6ff8345e692c0f86e5b48e01b996cadc001622fb5e363b421880102030405060708c0c0",
        "lastblockhash" : "0x2666de9ae0b98d8ebb46bf034bc0dddd9a052255dbe370b36c013d1e956a7bf2",
        "network" : "EIP158",
        "postState" : {
            "0x68795c4aa09d6f4ed3e5deddf8c2ad3049a601da" : {
                "balance" : "0x4563918244f6056d",
                "code" : "",
                "nonce" : "0x00",
                "storage" : {
                }
            },
            "0xa94f5374fce5edbc8e2a8697c15331677e6ebf0b" : {
                "balance" : "0x0de0b6b3a761fa93",
                "code" : "",
                "nonce" : "0x02",
                "storage" : {
                }
            },
            "0xb94f5374fce5edbc8e2a8697c15331677e6ebf0b" : {
                "balance" : "0x00",
                "code" : "0x60003560005260203560205260403560405260603560605260803560805260a03560a05260c03560c052604061012c60806000600060066207a120f2600055604061019060606080600060076207a120f260015561012c51600a5561014c51600b55610190516014556101b051601555601454600a5414600255601554600b5414600355",
                "nonce" : "0x00",
                "storage" : {
                    "0x00" : "0x01",
                    "0x01" : "0x01",
                    "0x02" : "0x01",
                    "0x03" : "0x01"
                }
            }
        },
        "pre" : {
            "0xa94f5374fce5edbc8e2a8697c15331677e6ebf0b" : {
                "balance" : "0x0de0b6b3a7640000",
                "code" : "",
                "nonce" : "0x01",
                "storage" : {
                }
            },
            "0xb94f5374fce5edbc8e2a8697c15331677e6ebf0b" : {
                "balance" : "0x00",
                "code" : "0x60003560005260203560205260403560405260603560605260803560805260a03560a05260c03560c052604061012c60806000600060066207a120f2600055604061019060606080600060076207a120f260015561012c51600a5561014c51600b55610190516014556101b051601555601454600a5414600255601554600b5414600355",
                "nonce" : "0x00",
                "storage" : {
                }
            }
        }
    },
    "pointMulAdd_d6g0v0_Frontier" : {
        "_info" : {
            "comment" : "",
            "filledwith" : "cpp-1.3.0+commit.4e101574.Linux.g++",
            "lllcversion" : "Version: 0.4.18-develop.2017.10.11+commit.81f9f86c.Linux.g++",
            "source" : "src/BlockchainTestsFiller/GeneralStateTests/stZeroKnowledge/pointMulAdd_d6g0v0Filler.json",
            "sourceHash" : "c9f1cea9c06d5f4ae8d62d2eb08b34b89717a3b042a82b79c2e38b55bc93a6ff"
        },
        "blocks" : [
            {
                "blockHeader" : {
                    "bloom" : "0x00000000000000000000000000000000000000000000000000000000000000000000000000000000000000000000000000000000000000000000000000000000000000000000000000000000000000000000000000000000000000000000000000000000000000000000000000000000000000000000000000000000000000000000000000000000000000000000000000000000000000000000000000000000000000000000000000000000000000000000000000000000000000000000000000000000000000000000000000000000000000000000000000000000000000000000000000000000000000000000000000000000000000000000000000000000",
                    "coinbase" : "0x68795c4aa09d6f4ed3e5deddf8c2ad3049a601da",
                    "difficulty" : "0x020000",
                    "extraData" : "",
                    "gasLimit" : "0x3d37ef",
                    "gasUsed" : "0x01fded",
                    "hash" : "0x281e88371ff248bc4a3d7835abda132871951657626cb514c3bf8fb8365ebea7",
                    "mixHash" : "0x33b2d1bed1cccd5969cb7340a6cbd832c4bb96dd95bbd5061abd16564eec9b58",
                    "nonce" : "0x91055a28f11e24e9",
                    "number" : "0x01",
                    "parentHash" : "0x9b25016c45ce0e295a463681361471a29c00aea06cba17cbc22894ce6d2c1def",
                    "receiptTrie" : "0x0de07e42922e74b5d936a922c40ad86b8861ed5582ce6df41302aea1df26a30e",
                    "stateRoot" : "0x83f1b35601795479d82cdbd636c31c32d31a3c3f0112f09c4b1c69915885b749",
                    "timestamp" : "0x03e8",
                    "transactionsTrie" : "0x925e07bb2a6b88414a9381eb987b2e7371877264383ca69a94b640be5a77a89f",
                    "uncleHash" : "0x1dcc4de8dec75d7aab85b567b6ccd41ad312451b948a7413f0a142fd40d49347"
                },
                "rlp" : "0xf90343f901f8a09b25016c45ce0e295a463681361471a29c00aea06cba17cbc22894ce6d2c1defa01dcc4de8dec75d7aab85b567b6ccd41ad312451b948a7413f0a142fd40d493479468795c4aa09d6f4ed3e5deddf8c2ad3049a601daa083f1b35601795479d82cdbd636c31c32d31a3c3f0112f09c4b1c69915885b749a0925e07bb2a6b88414a9381eb987b2e7371877264383ca69a94b640be5a77a89fa00de07e42922e74b5d936a922c40ad86b8861ed5582ce6df41302aea1df26a30eb90100000000000000000000000000000000000000000000000000000000000000000000000000000000000000000000000000000000000000000000000000000000000000000000000000000000000000000000000000000000000000000000000000000000000000000000000000000000000000000000000000000000000000000000000000000000000000000000000000000000000000000000000000000000000000000000000000000000000000000000000000000000000000000000000000000000000000000000000000000000000000000000000000000000000000000000000000000000000000000000000000000000000000000000000000000000008302000001833d37ef8301fded8203e880a033b2d1bed1cccd5969cb7340a6cbd832c4bb96dd95bbd5061abd16564eec9b588891055a28f11e24e9f90144f901410101831e848094b94f5374fce5edbc8e2a8697c15331677e6ebf0b80b8e01de49a4b0233273bba8146af82042d004f2085ec982397db0d97da17204cc2860217327ffc463919bef80cc166d09c6172639d8589799928761bcd9f22c903d4000000000000000000000000000000000000000000000000000000000000000000000000000000000000000000000000000000000000000000000000000000001de49a4b0233273bba8146af82042d004f2085ec982397db0d97da17204cc2860217327ffc463919bef80cc166d09c6172639d8589799928761bcd9f22c903d400000000000000000000000000000000000000000000000000000000000000011ba0cb7a59eb7084f4029f3149a2d39a72f7bec1824f872119b55fcd044d16232039a00c8b7f07481e3304a3ccea3b839a168615ddea90afd2a9e27cf4d155be75fc0cc0",
                "transactions" : [
                    {
                        "data" : "0x1de49a4b0233273bba8146af82042d004f2085ec982397db0d97da17204cc2860217327ffc463919bef80cc166d09c6172639d8589799928761bcd9f22c903d4000000000000000000000000000000000000000000000000000000000000000000000000000000000000000000000000000000000000000000000000000000001de49a4b0233273bba8146af82042d004f2085ec982397db0d97da17204cc2860217327ffc463919bef80cc166d09c6172639d8589799928761bcd9f22c903d40000000000000000000000000000000000000000000000000000000000000001",
                        "gasLimit" : "0x1e8480",
                        "gasPrice" : "0x01",
                        "nonce" : "0x01",
                        "r" : "0xcb7a59eb7084f4029f3149a2d39a72f7bec1824f872119b55fcd044d16232039",
                        "s" : "0x0c8b7f07481e3304a3ccea3b839a168615ddea90afd2a9e27cf4d155be75fc0c",
                        "to" : "0xb94f5374fce5edbc8e2a8697c15331677e6ebf0b",
                        "v" : "0x1b",
                        "value" : "0x00"
                    }
                ],
                "uncleHeaders" : [
                ]
            }
        ],
        "genesisBlockHeader" : {
            "bloom" : "0x00000000000000000000000000000000000000000000000000000000000000000000000000000000000000000000000000000000000000000000000000000000000000000000000000000000000000000000000000000000000000000000000000000000000000000000000000000000000000000000000000000000000000000000000000000000000000000000000000000000000000000000000000000000000000000000000000000000000000000000000000000000000000000000000000000000000000000000000000000000000000000000000000000000000000000000000000000000000000000000000000000000000000000000000000000000",
            "coinbase" : "0x68795c4aa09d6f4ed3e5deddf8c2ad3049a601da",
            "difficulty" : "0x020000",
            "extraData" : "0x42",
            "gasLimit" : "0x3d37ef",
            "gasUsed" : "0x00",
            "hash" : "0x9b25016c45ce0e295a463681361471a29c00aea06cba17cbc22894ce6d2c1def",
            "mixHash" : "0x56e81f171bcc55a6ff8345e692c0f86e5b48e01b996cadc001622fb5e363b421",
            "nonce" : "0x0102030405060708",
            "number" : "0x00",
            "parentHash" : "0x0000000000000000000000000000000000000000000000000000000000000000",
            "receiptTrie" : "0x56e81f171bcc55a6ff8345e692c0f86e5b48e01b996cadc001622fb5e363b421",
            "stateRoot" : "0xa4db92ceb60668ffcb9642d55fa7fe34cc341b53029d31394d82f0c61462bd99",
            "timestamp" : "0x03b6",
            "transactionsTrie" : "0x56e81f171bcc55a6ff8345e692c0f86e5b48e01b996cadc001622fb5e363b421",
            "uncleHash" : "0x1dcc4de8dec75d7aab85b567b6ccd41ad312451b948a7413f0a142fd40d49347"
        },
        "genesisRLP" : "0xf901faf901f5a00000000000000000000000000000000000000000000000000000000000000000a01dcc4de8dec75d7aab85b567b6ccd41ad312451b948a7413f0a142fd40d493479468795c4aa09d6f4ed3e5deddf8c2ad3049a601daa0a4db92ceb60668ffcb9642d55fa7fe34cc341b53029d31394d82f0c61462bd99a056e81f171bcc55a6ff8345e692c0f86e5b48e01b996cadc001622fb5e363b421a056e81f171bcc55a6ff8345e692c0f86e5b48e01b996cadc001622fb5e363b421b90100000000000000000000000000000000000000000000000000000000000000000000000000000000000000000000000000000000000000000000000000000000000000000000000000000000000000000000000000000000000000000000000000000000000000000000000000000000000000000000000000000000000000000000000000000000000000000000000000000000000000000000000000000000000000000000000000000000000000000000000000000000000000000000000000000000000000000000000000000000000000000000000000000000000000000000000000000000000000000000000000000000000000000000000000000000008302000080833d37ef808203b642a056e81f171bcc55a6ff8345e692c0f86e5b48e01b996cadc001622fb5e363b421880102030405060708c0c0",
        "lastblockhash" : "0x281e88371ff248bc4a3d7835abda132871951657626cb514c3bf8fb8365ebea7",
        "network" : "Frontier",
        "postState" : {
            "0x68795c4aa09d6f4ed3e5deddf8c2ad3049a601da" : {
                "balance" : "0x4563918244f5fded",
                "code" : "",
                "nonce" : "0x00",
                "storage" : {
                }
            },
            "0xa94f5374fce5edbc8e2a8697c15331677e6ebf0b" : {
                "balance" : "0x0de0b6b3a7620213",
                "code" : "",
                "nonce" : "0x02",
                "storage" : {
                }
            },
            "0xb94f5374fce5edbc8e2a8697c15331677e6ebf0b" : {
                "balance" : "0x00",
                "code" : "0x60003560005260203560205260403560405260603560605260803560805260a03560a05260c03560c052604061012c60806000600060066207a120f2600055604061019060606080600060076207a120f260015561012c51600a5561014c51600b55610190516014556101b051601555601454600a5414600255601554600b5414600355",
                "nonce" : "0x00",
                "storage" : {
                    "0x00" : "0x01",
                    "0x01" : "0x01",
                    "0x02" : "0x01",
                    "0x03" : "0x01"
                }
            }
        },
        "pre" : {
            "0xa94f5374fce5edbc8e2a8697c15331677e6ebf0b" : {
                "balance" : "0x0de0b6b3a7640000",
                "code" : "",
                "nonce" : "0x01",
                "storage" : {
                }
            },
            "0xb94f5374fce5edbc8e2a8697c15331677e6ebf0b" : {
                "balance" : "0x00",
                "code" : "0x60003560005260203560205260403560405260603560605260803560805260a03560a05260c03560c052604061012c60806000600060066207a120f2600055604061019060606080600060076207a120f260015561012c51600a5561014c51600b55610190516014556101b051601555601454600a5414600255601554600b5414600355",
                "nonce" : "0x00",
                "storage" : {
                }
            }
        }
    },
    "pointMulAdd_d6g0v0_Homestead" : {
        "_info" : {
            "comment" : "",
            "filledwith" : "cpp-1.3.0+commit.4e101574.Linux.g++",
            "lllcversion" : "Version: 0.4.18-develop.2017.10.11+commit.81f9f86c.Linux.g++",
            "source" : "src/BlockchainTestsFiller/GeneralStateTests/stZeroKnowledge/pointMulAdd_d6g0v0Filler.json",
            "sourceHash" : "c9f1cea9c06d5f4ae8d62d2eb08b34b89717a3b042a82b79c2e38b55bc93a6ff"
        },
        "blocks" : [
            {
                "blockHeader" : {
                    "bloom" : "0x00000000000000000000000000000000000000000000000000000000000000000000000000000000000000000000000000000000000000000000000000000000000000000000000000000000000000000000000000000000000000000000000000000000000000000000000000000000000000000000000000000000000000000000000000000000000000000000000000000000000000000000000000000000000000000000000000000000000000000000000000000000000000000000000000000000000000000000000000000000000000000000000000000000000000000000000000000000000000000000000000000000000000000000000000000000",
                    "coinbase" : "0x68795c4aa09d6f4ed3e5deddf8c2ad3049a601da",
                    "difficulty" : "0x020000",
                    "extraData" : "",
                    "gasLimit" : "0x3d37ef",
                    "gasUsed" : "0x01fded",
                    "hash" : "0x3c5b1c447636ad2ddac02a5f57fa30a0e5c37852887131b94c2664341ca902a7",
                    "mixHash" : "0xc876ff7e3d9b36a7110f959db68733cb32e2a70219b9f85826f0ddc5c13bc578",
                    "nonce" : "0x4ab4dbc7b95379a1",
                    "number" : "0x01",
                    "parentHash" : "0x9b25016c45ce0e295a463681361471a29c00aea06cba17cbc22894ce6d2c1def",
                    "receiptTrie" : "0x0de07e42922e74b5d936a922c40ad86b8861ed5582ce6df41302aea1df26a30e",
                    "stateRoot" : "0x83f1b35601795479d82cdbd636c31c32d31a3c3f0112f09c4b1c69915885b749",
                    "timestamp" : "0x03e8",
                    "transactionsTrie" : "0x925e07bb2a6b88414a9381eb987b2e7371877264383ca69a94b640be5a77a89f",
                    "uncleHash" : "0x1dcc4de8dec75d7aab85b567b6ccd41ad312451b948a7413f0a142fd40d49347"
                },
                "rlp" : "0xf90343f901f8a09b25016c45ce0e295a463681361471a29c00aea06cba17cbc22894ce6d2c1defa01dcc4de8dec75d7aab85b567b6ccd41ad312451b948a7413f0a142fd40d493479468795c4aa09d6f4ed3e5deddf8c2ad3049a601daa083f1b35601795479d82cdbd636c31c32d31a3c3f0112f09c4b1c69915885b749a0925e07bb2a6b88414a9381eb987b2e7371877264383ca69a94b640be5a77a89fa00de07e42922e74b5d936a922c40ad86b8861ed5582ce6df41302aea1df26a30eb90100000000000000000000000000000000000000000000000000000000000000000000000000000000000000000000000000000000000000000000000000000000000000000000000000000000000000000000000000000000000000000000000000000000000000000000000000000000000000000000000000000000000000000000000000000000000000000000000000000000000000000000000000000000000000000000000000000000000000000000000000000000000000000000000000000000000000000000000000000000000000000000000000000000000000000000000000000000000000000000000000000000000000000000000000000000008302000001833d37ef8301fded8203e880a0c876ff7e3d9b36a7110f959db68733cb32e2a70219b9f85826f0ddc5c13bc578884ab4dbc7b95379a1f90144f901410101831e848094b94f5374fce5edbc8e2a8697c15331677e6ebf0b80b8e01de49a4b0233273bba8146af82042d004f2085ec982397db0d97da17204cc2860217327ffc463919bef80cc166d09c6172639d8589799928761bcd9f22c903d4000000000000000000000000000000000000000000000000000000000000000000000000000000000000000000000000000000000000000000000000000000001de49a4b0233273bba8146af82042d004f2085ec982397db0d97da17204cc2860217327ffc463919bef80cc166d09c6172639d8589799928761bcd9f22c903d400000000000000000000000000000000000000000000000000000000000000011ba0cb7a59eb7084f4029f3149a2d39a72f7bec1824f872119b55fcd044d16232039a00c8b7f07481e3304a3ccea3b839a168615ddea90afd2a9e27cf4d155be75fc0cc0",
                "transactions" : [
                    {
                        "data" : "0x1de49a4b0233273bba8146af82042d004f2085ec982397db0d97da17204cc2860217327ffc463919bef80cc166d09c6172639d8589799928761bcd9f22c903d4000000000000000000000000000000000000000000000000000000000000000000000000000000000000000000000000000000000000000000000000000000001de49a4b0233273bba8146af82042d004f2085ec982397db0d97da17204cc2860217327ffc463919bef80cc166d09c6172639d8589799928761bcd9f22c903d40000000000000000000000000000000000000000000000000000000000000001",
                        "gasLimit" : "0x1e8480",
                        "gasPrice" : "0x01",
                        "nonce" : "0x01",
                        "r" : "0xcb7a59eb7084f4029f3149a2d39a72f7bec1824f872119b55fcd044d16232039",
                        "s" : "0x0c8b7f07481e3304a3ccea3b839a168615ddea90afd2a9e27cf4d155be75fc0c",
                        "to" : "0xb94f5374fce5edbc8e2a8697c15331677e6ebf0b",
                        "v" : "0x1b",
                        "value" : "0x00"
                    }
                ],
                "uncleHeaders" : [
                ]
            }
        ],
        "genesisBlockHeader" : {
            "bloom" : "0x00000000000000000000000000000000000000000000000000000000000000000000000000000000000000000000000000000000000000000000000000000000000000000000000000000000000000000000000000000000000000000000000000000000000000000000000000000000000000000000000000000000000000000000000000000000000000000000000000000000000000000000000000000000000000000000000000000000000000000000000000000000000000000000000000000000000000000000000000000000000000000000000000000000000000000000000000000000000000000000000000000000000000000000000000000000",
            "coinbase" : "0x68795c4aa09d6f4ed3e5deddf8c2ad3049a601da",
            "difficulty" : "0x020000",
            "extraData" : "0x42",
            "gasLimit" : "0x3d37ef",
            "gasUsed" : "0x00",
            "hash" : "0x9b25016c45ce0e295a463681361471a29c00aea06cba17cbc22894ce6d2c1def",
            "mixHash" : "0x56e81f171bcc55a6ff8345e692c0f86e5b48e01b996cadc001622fb5e363b421",
            "nonce" : "0x0102030405060708",
            "number" : "0x00",
            "parentHash" : "0x0000000000000000000000000000000000000000000000000000000000000000",
            "receiptTrie" : "0x56e81f171bcc55a6ff8345e692c0f86e5b48e01b996cadc001622fb5e363b421",
            "stateRoot" : "0xa4db92ceb60668ffcb9642d55fa7fe34cc341b53029d31394d82f0c61462bd99",
            "timestamp" : "0x03b6",
            "transactionsTrie" : "0x56e81f171bcc55a6ff8345e692c0f86e5b48e01b996cadc001622fb5e363b421",
            "uncleHash" : "0x1dcc4de8dec75d7aab85b567b6ccd41ad312451b948a7413f0a142fd40d49347"
        },
        "genesisRLP" : "0xf901faf901f5a00000000000000000000000000000000000000000000000000000000000000000a01dcc4de8dec75d7aab85b567b6ccd41ad312451b948a7413f0a142fd40d493479468795c4aa09d6f4ed3e5deddf8c2ad3049a601daa0a4db92ceb60668ffcb9642d55fa7fe34cc341b53029d31394d82f0c61462bd99a056e81f171bcc55a6ff8345e692c0f86e5b48e01b996cadc001622fb5e363b421a056e81f171bcc55a6ff8345e692c0f86e5b48e01b996cadc001622fb5e363b421b90100000000000000000000000000000000000000000000000000000000000000000000000000000000000000000000000000000000000000000000000000000000000000000000000000000000000000000000000000000000000000000000000000000000000000000000000000000000000000000000000000000000000000000000000000000000000000000000000000000000000000000000000000000000000000000000000000000000000000000000000000000000000000000000000000000000000000000000000000000000000000000000000000000000000000000000000000000000000000000000000000000000000000000000000000000000008302000080833d37ef808203b642a056e81f171bcc55a6ff8345e692c0f86e5b48e01b996cadc001622fb5e363b421880102030405060708c0c0",
        "lastblockhash" : "0x3c5b1c447636ad2ddac02a5f57fa30a0e5c37852887131b94c2664341ca902a7",
        "network" : "Homestead",
        "postState" : {
            "0x68795c4aa09d6f4ed3e5deddf8c2ad3049a601da" : {
                "balance" : "0x4563918244f5fded",
                "code" : "",
                "nonce" : "0x00",
                "storage" : {
                }
            },
            "0xa94f5374fce5edbc8e2a8697c15331677e6ebf0b" : {
                "balance" : "0x0de0b6b3a7620213",
                "code" : "",
                "nonce" : "0x02",
                "storage" : {
                }
            },
            "0xb94f5374fce5edbc8e2a8697c15331677e6ebf0b" : {
                "balance" : "0x00",
                "code" : "0x60003560005260203560205260403560405260603560605260803560805260a03560a05260c03560c052604061012c60806000600060066207a120f2600055604061019060606080600060076207a120f260015561012c51600a5561014c51600b55610190516014556101b051601555601454600a5414600255601554600b5414600355",
                "nonce" : "0x00",
                "storage" : {
                    "0x00" : "0x01",
                    "0x01" : "0x01",
                    "0x02" : "0x01",
                    "0x03" : "0x01"
                }
            }
        },
        "pre" : {
            "0xa94f5374fce5edbc8e2a8697c15331677e6ebf0b" : {
                "balance" : "0x0de0b6b3a7640000",
                "code" : "",
                "nonce" : "0x01",
                "storage" : {
                }
            },
            "0xb94f5374fce5edbc8e2a8697c15331677e6ebf0b" : {
                "balance" : "0x00",
                "code" : "0x60003560005260203560205260403560405260603560605260803560805260a03560a05260c03560c052604061012c60806000600060066207a120f2600055604061019060606080600060076207a120f260015561012c51600a5561014c51600b55610190516014556101b051601555601454600a5414600255601554600b5414600355",
                "nonce" : "0x00",
                "storage" : {
                }
            }
        }
    }
}