{
    "pointMulAdd2_d20g1v0_Byzantium" : {
        "_info" : {
            "comment" : "",
            "filledwith" : "cpp-1.3.0+commit.4e101574.Linux.g++",
            "lllcversion" : "Version: 0.4.18-develop.2017.10.11+commit.81f9f86c.Linux.g++",
            "source" : "src/BlockchainTestsFiller/GeneralStateTests/stZeroKnowledge/pointMulAdd2_d20g1v0Filler.json",
            "sourceHash" : "a47d8b3c08a6c825a2a49b9edaf4d887841c150b9a82ab2ab7ceaeff12059428"
        },
        "blocks" : [
            {
                "blockHeader" : {
                    "bloom" : "0x00000000000000000000000000000000000000000000000000000000000000000000000000000000000000000000000000000000000000000000000000000000000000000000000000000000000000000000000000000000000000000000000000000000000000000000000000000000000000000000000000000000000000000000000000000000000000000000000000000000000000000000000000000000000000000000000000000000000000000000000000000000000000000000000000000000000000000000000000000000000000000000000000000000000000000000000000000000000000000000000000000000000000000000000000000000",
                    "coinbase" : "0x68795c4aa09d6f4ed3e5deddf8c2ad3049a601da",
                    "difficulty" : "0x020000",
                    "extraData" : "",
                    "gasLimit" : "0x3d37ef",
                    "gasUsed" : "0x015f90",
                    "hash" : "0xb9dd9840c9042b6e4eb87b9ad7197e10bed8f8147efbe77b7e48d363ac0b8558",
                    "mixHash" : "0x77359f10869735ac3b807b89281a536cf62887d8e0da32dbc98f44584e1d246b",
                    "nonce" : "0x0f244dec267bacf8",
                    "number" : "0x01",
                    "parentHash" : "0x9b25016c45ce0e295a463681361471a29c00aea06cba17cbc22894ce6d2c1def",
                    "receiptTrie" : "0x22140012d7300d5a027646b3c3f97683d4af689c0ab818cf01a532204bcb4a59",
                    "stateRoot" : "0x7dd3f92c2e61bc5ad94852df60ae0a519b1387b05ab262bd3fdc47219b24aab9",
                    "timestamp" : "0x03e8",
                    "transactionsTrie" : "0xbb3ab1e239f72261199d8968afa676d8578fc3a44880b97de9281e88935f707b",
                    "uncleHash" : "0x1dcc4de8dec75d7aab85b567b6ccd41ad312451b948a7413f0a142fd40d49347"
                },
                "rlp" : "0xf90342f901f8a09b25016c45ce0e295a463681361471a29c00aea06cba17cbc22894ce6d2c1defa01dcc4de8dec75d7aab85b567b6ccd41ad312451b948a7413f0a142fd40d493479468795c4aa09d6f4ed3e5deddf8c2ad3049a601daa07dd3f92c2e61bc5ad94852df60ae0a519b1387b05ab262bd3fdc47219b24aab9a0bb3ab1e239f72261199d8968afa676d8578fc3a44880b97de9281e88935f707ba022140012d7300d5a027646b3c3f97683d4af689c0ab818cf01a532204bcb4a59b90100000000000000000000000000000000000000000000000000000000000000000000000000000000000000000000000000000000000000000000000000000000000000000000000000000000000000000000000000000000000000000000000000000000000000000000000000000000000000000000000000000000000000000000000000000000000000000000000000000000000000000000000000000000000000000000000000000000000000000000000000000000000000000000000000000000000000000000000000000000000000000000000000000000000000000000000000000000000000000000000000000000000000000000000000000000008302000001833d37ef83015f908203e880a077359f10869735ac3b807b89281a536cf62887d8e0da32dbc98f44584e1d246b880f244dec267bacf8f90143f90140010183015f9094b94f5374fce5edbc8e2a8697c15331677e6ebf0b80b8e00ccbec17235f5b9cc5e42f3df6364a76ecdd0101ddda8fc5dc0ba0b59c0e5628069ef5e376c0a1ea82f9dfc2e0001a7f385d655eef9a6f976c7a5d2c493ea3ad0ccbec17235f5b9cc5e42f3df6364a76ecdd0101ddda8fc5dc0ba0b59c0e5628069ef5e376c0a1ea82f9dfc2e0001a7f385d655eef9a6f976c7a5d2c493ea3ad000000000000000000000000000000000000000000000000000000000000000130644e72e131a029b85045b68181585d97816a916871ca8d3c208c16d87cfd4530644e72e131a029b85045b68181585d97816a916871ca8d3c208c16d87cfd451b9f80bf3f1db1b4c87639f86ef49a8f52e4ca596aa3636b24c0ba5a29ee695f7ba017d123dc918891cef41597b101bc59cad5398e0f57b497ce8679f692a537368fc0",
                "transactions" : [
                    {
                        "data" : "0x0ccbec17235f5b9cc5e42f3df6364a76ecdd0101ddda8fc5dc0ba0b59c0e5628069ef5e376c0a1ea82f9dfc2e0001a7f385d655eef9a6f976c7a5d2c493ea3ad0ccbec17235f5b9cc5e42f3df6364a76ecdd0101ddda8fc5dc0ba0b59c0e5628069ef5e376c0a1ea82f9dfc2e0001a7f385d655eef9a6f976c7a5d2c493ea3ad000000000000000000000000000000000000000000000000000000000000000130644e72e131a029b85045b68181585d97816a916871ca8d3c208c16d87cfd4530644e72e131a029b85045b68181585d97816a916871ca8d3c208c16d87cfd45",
                        "gasLimit" : "0x015f90",
                        "gasPrice" : "0x01",
                        "nonce" : "0x01",
                        "r" : "0x80bf3f1db1b4c87639f86ef49a8f52e4ca596aa3636b24c0ba5a29ee695f7b",
                        "s" : "0x17d123dc918891cef41597b101bc59cad5398e0f57b497ce8679f692a537368f",
                        "to" : "0xb94f5374fce5edbc8e2a8697c15331677e6ebf0b",
                        "v" : "0x1b",
                        "value" : "0x00"
                    }
                ],
                "uncleHeaders" : [
                ]
            }
        ],
        "genesisBlockHeader" : {
            "bloom" : "0x00000000000000000000000000000000000000000000000000000000000000000000000000000000000000000000000000000000000000000000000000000000000000000000000000000000000000000000000000000000000000000000000000000000000000000000000000000000000000000000000000000000000000000000000000000000000000000000000000000000000000000000000000000000000000000000000000000000000000000000000000000000000000000000000000000000000000000000000000000000000000000000000000000000000000000000000000000000000000000000000000000000000000000000000000000000",
            "coinbase" : "0x68795c4aa09d6f4ed3e5deddf8c2ad3049a601da",
            "difficulty" : "0x020000",
            "extraData" : "0x42",
            "gasLimit" : "0x3d37ef",
            "gasUsed" : "0x00",
            "hash" : "0x9b25016c45ce0e295a463681361471a29c00aea06cba17cbc22894ce6d2c1def",
            "mixHash" : "0x56e81f171bcc55a6ff8345e692c0f86e5b48e01b996cadc001622fb5e363b421",
            "nonce" : "0x0102030405060708",
            "number" : "0x00",
            "parentHash" : "0x0000000000000000000000000000000000000000000000000000000000000000",
            "receiptTrie" : "0x56e81f171bcc55a6ff8345e692c0f86e5b48e01b996cadc001622fb5e363b421",
            "stateRoot" : "0xa4db92ceb60668ffcb9642d55fa7fe34cc341b53029d31394d82f0c61462bd99",
            "timestamp" : "0x03b6",
            "transactionsTrie" : "0x56e81f171bcc55a6ff8345e692c0f86e5b48e01b996cadc001622fb5e363b421",
            "uncleHash" : "0x1dcc4de8dec75d7aab85b567b6ccd41ad312451b948a7413f0a142fd40d49347"
        },
        "genesisRLP" : "0xf901faf901f5a00000000000000000000000000000000000000000000000000000000000000000a01dcc4de8dec75d7aab85b567b6ccd41ad312451b948a7413f0a142fd40d493479468795c4aa09d6f4ed3e5deddf8c2ad3049a601daa0a4db92ceb60668ffcb9642d55fa7fe34cc341b53029d31394d82f0c61462bd99a056e81f171bcc55a6ff8345e692c0f86e5b48e01b996cadc001622fb5e363b421a056e81f171bcc55a6ff8345e692c0f86e5b48e01b996cadc001622fb5e363b421b90100000000000000000000000000000000000000000000000000000000000000000000000000000000000000000000000000000000000000000000000000000000000000000000000000000000000000000000000000000000000000000000000000000000000000000000000000000000000000000000000000000000000000000000000000000000000000000000000000000000000000000000000000000000000000000000000000000000000000000000000000000000000000000000000000000000000000000000000000000000000000000000000000000000000000000000000000000000000000000000000000000000000000000000000000000000008302000080833d37ef808203b642a056e81f171bcc55a6ff8345e692c0f86e5b48e01b996cadc001622fb5e363b421880102030405060708c0c0",
        "lastblockhash" : "0xb9dd9840c9042b6e4eb87b9ad7197e10bed8f8147efbe77b7e48d363ac0b8558",
        "network" : "Byzantium",
        "postState" : {
            "0x68795c4aa09d6f4ed3e5deddf8c2ad3049a601da" : {
                "balance" : "0x29a2241af62d5f90",
                "code" : "",
                "nonce" : "0x00",
                "storage" : {
                }
            },
            "0xa94f5374fce5edbc8e2a8697c15331677e6ebf0b" : {
                "balance" : "0x0de0b6b3a762a070",
                "code" : "",
                "nonce" : "0x02",
                "storage" : {
                }
            },
            "0xb94f5374fce5edbc8e2a8697c15331677e6ebf0b" : {
                "balance" : "0x00",
                "code" : "0x60003560005260203560205260403560405260603560605260803560805260a03560a05260c03560c052604061012c60806000600060066207a120f2600055604061019060606080600060076207a120f260015561012c51600a5561014c51600b55610190516014556101b051601555601454600a5414600255601554600b5414600355",
                "nonce" : "0x00",
                "storage" : {
                }
            }
        },
        "pre" : {
            "0xa94f5374fce5edbc8e2a8697c15331677e6ebf0b" : {
                "balance" : "0x0de0b6b3a7640000",
                "code" : "",
                "nonce" : "0x01",
                "storage" : {
                }
            },
            "0xb94f5374fce5edbc8e2a8697c15331677e6ebf0b" : {
                "balance" : "0x00",
                "code" : "0x60003560005260203560205260403560405260603560605260803560805260a03560a05260c03560c052604061012c60806000600060066207a120f2600055604061019060606080600060076207a120f260015561012c51600a5561014c51600b55610190516014556101b051601555601454600a5414600255601554600b5414600355",
                "nonce" : "0x00",
                "storage" : {
                }
            }
        }
    },
    "pointMulAdd2_d20g1v0_EIP150" : {
        "_info" : {
            "comment" : "",
            "filledwith" : "cpp-1.3.0+commit.4e101574.Linux.g++",
            "lllcversion" : "Version: 0.4.18-develop.2017.10.11+commit.81f9f86c.Linux.g++",
            "source" : "src/BlockchainTestsFiller/GeneralStateTests/stZeroKnowledge/pointMulAdd2_d20g1v0Filler.json",
            "sourceHash" : "a47d8b3c08a6c825a2a49b9edaf4d887841c150b9a82ab2ab7ceaeff12059428"
        },
        "blocks" : [
            {
                "blockHeader" : {
                    "bloom" : "0x00000000000000000000000000000000000000000000000000000000000000000000000000000000000000000000000000000000000000000000000000000000000000000000000000000000000000000000000000000000000000000000000000000000000000000000000000000000000000000000000000000000000000000000000000000000000000000000000000000000000000000000000000000000000000000000000000000000000000000000000000000000000000000000000000000000000000000000000000000000000000000000000000000000000000000000000000000000000000000000000000000000000000000000000000000000",
                    "coinbase" : "0x68795c4aa09d6f4ed3e5deddf8c2ad3049a601da",
                    "difficulty" : "0x020000",
                    "extraData" : "",
                    "gasLimit" : "0x3d37ef",
                    "gasUsed" : "0x015f90",
                    "hash" : "0x891640632cd2142e2b1d3952cb1d5a8b240bf608c0af94440c99e24216d892ae",
                    "mixHash" : "0x5d092d6caf2f5c3055017bb720ac378b6c3f072d43bf017f06d8320c03811d8c",
                    "nonce" : "0x3827f9db8a380ae1",
                    "number" : "0x01",
                    "parentHash" : "0x9b25016c45ce0e295a463681361471a29c00aea06cba17cbc22894ce6d2c1def",
                    "receiptTrie" : "0xbd73743a7c10079149c4ee1549130bf2f532c79e9b8a8fbd5bb043095b8e2749",
                    "stateRoot" : "0x24067da1eb357ca49d5e739c0d042e08f89068da24f664fb3508b3668c49ff5c",
                    "timestamp" : "0x03e8",
                    "transactionsTrie" : "0xbb3ab1e239f72261199d8968afa676d8578fc3a44880b97de9281e88935f707b",
                    "uncleHash" : "0x1dcc4de8dec75d7aab85b567b6ccd41ad312451b948a7413f0a142fd40d49347"
                },
                "rlp" : "0xf90342f901f8a09b25016c45ce0e295a463681361471a29c00aea06cba17cbc22894ce6d2c1defa01dcc4de8dec75d7aab85b567b6ccd41ad312451b948a7413f0a142fd40d493479468795c4aa09d6f4ed3e5deddf8c2ad3049a601daa024067da1eb357ca49d5e739c0d042e08f89068da24f664fb3508b3668c49ff5ca0bb3ab1e239f72261199d8968afa676d8578fc3a44880b97de9281e88935f707ba0bd73743a7c10079149c4ee1549130bf2f532c79e9b8a8fbd5bb043095b8e2749b90100000000000000000000000000000000000000000000000000000000000000000000000000000000000000000000000000000000000000000000000000000000000000000000000000000000000000000000000000000000000000000000000000000000000000000000000000000000000000000000000000000000000000000000000000000000000000000000000000000000000000000000000000000000000000000000000000000000000000000000000000000000000000000000000000000000000000000000000000000000000000000000000000000000000000000000000000000000000000000000000000000000000000000000000000000000008302000001833d37ef83015f908203e880a05d092d6caf2f5c3055017bb720ac378b6c3f072d43bf017f06d8320c03811d8c883827f9db8a380ae1f90143f90140010183015f9094b94f5374fce5edbc8e2a8697c15331677e6ebf0b80b8e00ccbec17235f5b9cc5e42f3df6364a76ecdd0101ddda8fc5dc0ba0b59c0e5628069ef5e376c0a1ea82f9dfc2e0001a7f385d655eef9a6f976c7a5d2c493ea3ad0ccbec17235f5b9cc5e42f3df6364a76ecdd0101ddda8fc5dc0ba0b59c0e5628069ef5e376c0a1ea82f9dfc2e0001a7f385d655eef9a6f976c7a5d2c493ea3ad000000000000000000000000000000000000000000000000000000000000000130644e72e131a029b85045b68181585d97816a916871ca8d3c208c16d87cfd4530644e72e131a029b85045b68181585d97816a916871ca8d3c208c16d87cfd451b9f80bf3f1db1b4c87639f86ef49a8f52e4ca596aa3636b24c0ba5a29ee695f7ba017d123dc918891cef41597b101bc59cad5398e0f57b497ce8679f692a537368fc0",
                "transactions" : [
                    {
                        "data" : "0x0ccbec17235f5b9cc5e42f3df6364a76ecdd0101ddda8fc5dc0ba0b59c0e5628069ef5e376c0a1ea82f9dfc2e0001a7f385d655eef9a6f976c7a5d2c493ea3ad0ccbec17235f5b9cc5e42f3df6364a76ecdd0101ddda8fc5dc0ba0b59c0e5628069ef5e376c0a1ea82f9dfc2e0001a7f385d655eef9a6f976c7a5d2c493ea3ad000000000000000000000000000000000000000000000000000000000000000130644e72e131a029b85045b68181585d97816a916871ca8d3c208c16d87cfd4530644e72e131a029b85045b68181585d97816a916871ca8d3c208c16d87cfd45",
                        "gasLimit" : "0x015f90",
                        "gasPrice" : "0x01",
                        "nonce" : "0x01",
                        "r" : "0x80bf3f1db1b4c87639f86ef49a8f52e4ca596aa3636b24c0ba5a29ee695f7b",
                        "s" : "0x17d123dc918891cef41597b101bc59cad5398e0f57b497ce8679f692a537368f",
                        "to" : "0xb94f5374fce5edbc8e2a8697c15331677e6ebf0b",
                        "v" : "0x1b",
                        "value" : "0x00"
                    }
                ],
                "uncleHeaders" : [
                ]
            }
        ],
        "genesisBlockHeader" : {
            "bloom" : "0x00000000000000000000000000000000000000000000000000000000000000000000000000000000000000000000000000000000000000000000000000000000000000000000000000000000000000000000000000000000000000000000000000000000000000000000000000000000000000000000000000000000000000000000000000000000000000000000000000000000000000000000000000000000000000000000000000000000000000000000000000000000000000000000000000000000000000000000000000000000000000000000000000000000000000000000000000000000000000000000000000000000000000000000000000000000",
            "coinbase" : "0x68795c4aa09d6f4ed3e5deddf8c2ad3049a601da",
            "difficulty" : "0x020000",
            "extraData" : "0x42",
            "gasLimit" : "0x3d37ef",
            "gasUsed" : "0x00",
            "hash" : "0x9b25016c45ce0e295a463681361471a29c00aea06cba17cbc22894ce6d2c1def",
            "mixHash" : "0x56e81f171bcc55a6ff8345e692c0f86e5b48e01b996cadc001622fb5e363b421",
            "nonce" : "0x0102030405060708",
            "number" : "0x00",
            "parentHash" : "0x0000000000000000000000000000000000000000000000000000000000000000",
            "receiptTrie" : "0x56e81f171bcc55a6ff8345e692c0f86e5b48e01b996cadc001622fb5e363b421",
            "stateRoot" : "0xa4db92ceb60668ffcb9642d55fa7fe34cc341b53029d31394d82f0c61462bd99",
            "timestamp" : "0x03b6",
            "transactionsTrie" : "0x56e81f171bcc55a6ff8345e692c0f86e5b48e01b996cadc001622fb5e363b421",
            "uncleHash" : "0x1dcc4de8dec75d7aab85b567b6ccd41ad312451b948a7413f0a142fd40d49347"
        },
        "genesisRLP" : "0xf901faf901f5a00000000000000000000000000000000000000000000000000000000000000000a01dcc4de8dec75d7aab85b567b6ccd41ad312451b948a7413f0a142fd40d493479468795c4aa09d6f4ed3e5deddf8c2ad3049a601daa0a4db92ceb60668ffcb9642d55fa7fe34cc341b53029d31394d82f0c61462bd99a056e81f171bcc55a6ff8345e692c0f86e5b48e01b996cadc001622fb5e363b421a056e81f171bcc55a6ff8345e692c0f86e5b48e01b996cadc001622fb5e363b421b90100000000000000000000000000000000000000000000000000000000000000000000000000000000000000000000000000000000000000000000000000000000000000000000000000000000000000000000000000000000000000000000000000000000000000000000000000000000000000000000000000000000000000000000000000000000000000000000000000000000000000000000000000000000000000000000000000000000000000000000000000000000000000000000000000000000000000000000000000000000000000000000000000000000000000000000000000000000000000000000000000000000000000000000000000000000008302000080833d37ef808203b642a056e81f171bcc55a6ff8345e692c0f86e5b48e01b996cadc001622fb5e363b421880102030405060708c0c0",
        "lastblockhash" : "0x891640632cd2142e2b1d3952cb1d5a8b240bf608c0af94440c99e24216d892ae",
        "network" : "EIP150",
        "postState" : {
            "0x68795c4aa09d6f4ed3e5deddf8c2ad3049a601da" : {
                "balance" : "0x4563918244f55f90",
                "code" : "",
                "nonce" : "0x00",
                "storage" : {
                }
            },
            "0xa94f5374fce5edbc8e2a8697c15331677e6ebf0b" : {
                "balance" : "0x0de0b6b3a762a070",
                "code" : "",
                "nonce" : "0x02",
                "storage" : {
                }
            },
            "0xb94f5374fce5edbc8e2a8697c15331677e6ebf0b" : {
                "balance" : "0x00",
                "code" : "0x60003560005260203560205260403560405260603560605260803560805260a03560a05260c03560c052604061012c60806000600060066207a120f2600055604061019060606080600060076207a120f260015561012c51600a5561014c51600b55610190516014556101b051601555601454600a5414600255601554600b5414600355",
                "nonce" : "0x00",
                "storage" : {
                }
            }
        },
        "pre" : {
            "0xa94f5374fce5edbc8e2a8697c15331677e6ebf0b" : {
                "balance" : "0x0de0b6b3a7640000",
                "code" : "",
                "nonce" : "0x01",
                "storage" : {
                }
            },
            "0xb94f5374fce5edbc8e2a8697c15331677e6ebf0b" : {
                "balance" : "0x00",
                "code" : "0x60003560005260203560205260403560405260603560605260803560805260a03560a05260c03560c052604061012c60806000600060066207a120f2600055604061019060606080600060076207a120f260015561012c51600a5561014c51600b55610190516014556101b051601555601454600a5414600255601554600b5414600355",
                "nonce" : "0x00",
                "storage" : {
                }
            }
        }
    },
    "pointMulAdd2_d20g1v0_EIP158" : {
        "_info" : {
            "comment" : "",
            "filledwith" : "cpp-1.3.0+commit.4e101574.Linux.g++",
            "lllcversion" : "Version: 0.4.18-develop.2017.10.11+commit.81f9f86c.Linux.g++",
            "source" : "src/BlockchainTestsFiller/GeneralStateTests/stZeroKnowledge/pointMulAdd2_d20g1v0Filler.json",
            "sourceHash" : "a47d8b3c08a6c825a2a49b9edaf4d887841c150b9a82ab2ab7ceaeff12059428"
        },
        "blocks" : [
            {
                "blockHeader" : {
                    "bloom" : "0x00000000000000000000000000000000000000000000000000000000000000000000000000000000000000000000000000000000000000000000000000000000000000000000000000000000000000000000000000000000000000000000000000000000000000000000000000000000000000000000000000000000000000000000000000000000000000000000000000000000000000000000000000000000000000000000000000000000000000000000000000000000000000000000000000000000000000000000000000000000000000000000000000000000000000000000000000000000000000000000000000000000000000000000000000000000",
                    "coinbase" : "0x68795c4aa09d6f4ed3e5deddf8c2ad3049a601da",
                    "difficulty" : "0x020000",
                    "extraData" : "",
                    "gasLimit" : "0x3d37ef",
                    "gasUsed" : "0x015f90",
                    "hash" : "0x08dac369bb97a3e091453a62465cf28e4769388e430028939e2e1ea5e6015a7f",
                    "mixHash" : "0xefd9b217d2b8d2228283590fd07364935b21550e45fdc7bfd5b3344b8478308f",
                    "nonce" : "0x2fdc40dc681ef89a",
                    "number" : "0x01",
                    "parentHash" : "0x9b25016c45ce0e295a463681361471a29c00aea06cba17cbc22894ce6d2c1def",
                    "receiptTrie" : "0xbd73743a7c10079149c4ee1549130bf2f532c79e9b8a8fbd5bb043095b8e2749",
                    "stateRoot" : "0x24067da1eb357ca49d5e739c0d042e08f89068da24f664fb3508b3668c49ff5c",
                    "timestamp" : "0x03e8",
                    "transactionsTrie" : "0xbb3ab1e239f72261199d8968afa676d8578fc3a44880b97de9281e88935f707b",
                    "uncleHash" : "0x1dcc4de8dec75d7aab85b567b6ccd41ad312451b948a7413f0a142fd40d49347"
                },
                "rlp" : "0xf90342f901f8a09b25016c45ce0e295a463681361471a29c00aea06cba17cbc22894ce6d2c1defa01dcc4de8dec75d7aab85b567b6ccd41ad312451b948a7413f0a142fd40d493479468795c4aa09d6f4ed3e5deddf8c2ad3049a601daa024067da1eb357ca49d5e739c0d042e08f89068da24f664fb3508b3668c49ff5ca0bb3ab1e239f72261199d8968afa676d8578fc3a44880b97de9281e88935f707ba0bd73743a7c10079149c4ee1549130bf2f532c79e9b8a8fbd5bb043095b8e2749b90100000000000000000000000000000000000000000000000000000000000000000000000000000000000000000000000000000000000000000000000000000000000000000000000000000000000000000000000000000000000000000000000000000000000000000000000000000000000000000000000000000000000000000000000000000000000000000000000000000000000000000000000000000000000000000000000000000000000000000000000000000000000000000000000000000000000000000000000000000000000000000000000000000000000000000000000000000000000000000000000000000000000000000000000000000000008302000001833d37ef83015f908203e880a0efd9b217d2b8d2228283590fd07364935b21550e45fdc7bfd5b3344b8478308f882fdc40dc681ef89af90143f90140010183015f9094b94f5374fce5edbc8e2a8697c15331677e6ebf0b80b8e00ccbec17235f5b9cc5e42f3df6364a76ecdd0101ddda8fc5dc0ba0b59c0e5628069ef5e376c0a1ea82f9dfc2e0001a7f385d655eef9a6f976c7a5d2c493ea3ad0ccbec17235f5b9cc5e42f3df6364a76ecdd0101ddda8fc5dc0ba0b59c0e5628069ef5e376c0a1ea82f9dfc2e0001a7f385d655eef9a6f976c7a5d2c493ea3ad000000000000000000000000000000000000000000000000000000000000000130644e72e131a029b85045b68181585d97816a916871ca8d3c208c16d87cfd4530644e72e131a029b85045b68181585d97816a916871ca8d3c208c16d87cfd451b9f80bf3f1db1b4c87639f86ef49a8f52e4ca596aa3636b24c0ba5a29ee695f7ba017d123dc918891cef41597b101bc59cad5398e0f57b497ce8679f692a537368fc0",
                "transactions" : [
                    {
                        "data" : "0x0ccbec17235f5b9cc5e42f3df6364a76ecdd0101ddda8fc5dc0ba0b59c0e5628069ef5e376c0a1ea82f9dfc2e0001a7f385d655eef9a6f976c7a5d2c493ea3ad0ccbec17235f5b9cc5e42f3df6364a76ecdd0101ddda8fc5dc0ba0b59c0e5628069ef5e376c0a1ea82f9dfc2e0001a7f385d655eef9a6f976c7a5d2c493ea3ad000000000000000000000000000000000000000000000000000000000000000130644e72e131a029b85045b68181585d97816a916871ca8d3c208c16d87cfd4530644e72e131a029b85045b68181585d97816a916871ca8d3c208c16d87cfd45",
                        "gasLimit" : "0x015f90",
                        "gasPrice" : "0x01",
                        "nonce" : "0x01",
                        "r" : "0x80bf3f1db1b4c87639f86ef49a8f52e4ca596aa3636b24c0ba5a29ee695f7b",
                        "s" : "0x17d123dc918891cef41597b101bc59cad5398e0f57b497ce8679f692a537368f",
                        "to" : "0xb94f5374fce5edbc8e2a8697c15331677e6ebf0b",
                        "v" : "0x1b",
                        "value" : "0x00"
                    }
                ],
                "uncleHeaders" : [
                ]
            }
        ],
        "genesisBlockHeader" : {
            "bloom" : "0x00000000000000000000000000000000000000000000000000000000000000000000000000000000000000000000000000000000000000000000000000000000000000000000000000000000000000000000000000000000000000000000000000000000000000000000000000000000000000000000000000000000000000000000000000000000000000000000000000000000000000000000000000000000000000000000000000000000000000000000000000000000000000000000000000000000000000000000000000000000000000000000000000000000000000000000000000000000000000000000000000000000000000000000000000000000",
            "coinbase" : "0x68795c4aa09d6f4ed3e5deddf8c2ad3049a601da",
            "difficulty" : "0x020000",
            "extraData" : "0x42",
            "gasLimit" : "0x3d37ef",
            "gasUsed" : "0x00",
            "hash" : "0x9b25016c45ce0e295a463681361471a29c00aea06cba17cbc22894ce6d2c1def",
            "mixHash" : "0x56e81f171bcc55a6ff8345e692c0f86e5b48e01b996cadc001622fb5e363b421",
            "nonce" : "0x0102030405060708",
            "number" : "0x00",
            "parentHash" : "0x0000000000000000000000000000000000000000000000000000000000000000",
            "receiptTrie" : "0x56e81f171bcc55a6ff8345e692c0f86e5b48e01b996cadc001622fb5e363b421",
            "stateRoot" : "0xa4db92ceb60668ffcb9642d55fa7fe34cc341b53029d31394d82f0c61462bd99",
            "timestamp" : "0x03b6",
            "transactionsTrie" : "0x56e81f171bcc55a6ff8345e692c0f86e5b48e01b996cadc001622fb5e363b421",
            "uncleHash" : "0x1dcc4de8dec75d7aab85b567b6ccd41ad312451b948a7413f0a142fd40d49347"
        },
        "genesisRLP" : "0xf901faf901f5a00000000000000000000000000000000000000000000000000000000000000000a01dcc4de8dec75d7aab85b567b6ccd41ad312451b948a7413f0a142fd40d493479468795c4aa09d6f4ed3e5deddf8c2ad3049a601daa0a4db92ceb60668ffcb9642d55fa7fe34cc341b53029d31394d82f0c61462bd99a056e81f171bcc55a6ff8345e692c0f86e5b48e01b996cadc001622fb5e363b421a056e81f171bcc55a6ff8345e692c0f86e5b48e01b996cadc001622fb5e363b421b90100000000000000000000000000000000000000000000000000000000000000000000000000000000000000000000000000000000000000000000000000000000000000000000000000000000000000000000000000000000000000000000000000000000000000000000000000000000000000000000000000000000000000000000000000000000000000000000000000000000000000000000000000000000000000000000000000000000000000000000000000000000000000000000000000000000000000000000000000000000000000000000000000000000000000000000000000000000000000000000000000000000000000000000000000000000008302000080833d37ef808203b642a056e81f171bcc55a6ff8345e692c0f86e5b48e01b996cadc001622fb5e363b421880102030405060708c0c0",
        "lastblockhash" : "0x08dac369bb97a3e091453a62465cf28e4769388e430028939e2e1ea5e6015a7f",
        "network" : "EIP158",
        "postState" : {
            "0x68795c4aa09d6f4ed3e5deddf8c2ad3049a601da" : {
                "balance" : "0x4563918244f55f90",
                "code" : "",
                "nonce" : "0x00",
                "storage" : {
                }
            },
            "0xa94f5374fce5edbc8e2a8697c15331677e6ebf0b" : {
                "balance" : "0x0de0b6b3a762a070",
                "code" : "",
                "nonce" : "0x02",
                "storage" : {
                }
            },
            "0xb94f5374fce5edbc8e2a8697c15331677e6ebf0b" : {
                "balance" : "0x00",
                "code" : "0x60003560005260203560205260403560405260603560605260803560805260a03560a05260c03560c052604061012c60806000600060066207a120f2600055604061019060606080600060076207a120f260015561012c51600a5561014c51600b55610190516014556101b051601555601454600a5414600255601554600b5414600355",
                "nonce" : "0x00",
                "storage" : {
                }
            }
        },
        "pre" : {
            "0xa94f5374fce5edbc8e2a8697c15331677e6ebf0b" : {
                "balance" : "0x0de0b6b3a7640000",
                "code" : "",
                "nonce" : "0x01",
                "storage" : {
                }
            },
            "0xb94f5374fce5edbc8e2a8697c15331677e6ebf0b" : {
                "balance" : "0x00",
                "code" : "0x60003560005260203560205260403560405260603560605260803560805260a03560a05260c03560c052604061012c60806000600060066207a120f2600055604061019060606080600060076207a120f260015561012c51600a5561014c51600b55610190516014556101b051601555601454600a5414600255601554600b5414600355",
                "nonce" : "0x00",
                "storage" : {
                }
            }
        }
    },
    "pointMulAdd2_d20g1v0_Frontier" : {
        "_info" : {
            "comment" : "",
            "filledwith" : "cpp-1.3.0+commit.4e101574.Linux.g++",
            "lllcversion" : "Version: 0.4.18-develop.2017.10.11+commit.81f9f86c.Linux.g++",
            "source" : "src/BlockchainTestsFiller/GeneralStateTests/stZeroKnowledge/pointMulAdd2_d20g1v0Filler.json",
            "sourceHash" : "a47d8b3c08a6c825a2a49b9edaf4d887841c150b9a82ab2ab7ceaeff12059428"
        },
        "blocks" : [
            {
                "blockHeader" : {
                    "bloom" : "0x00000000000000000000000000000000000000000000000000000000000000000000000000000000000000000000000000000000000000000000000000000000000000000000000000000000000000000000000000000000000000000000000000000000000000000000000000000000000000000000000000000000000000000000000000000000000000000000000000000000000000000000000000000000000000000000000000000000000000000000000000000000000000000000000000000000000000000000000000000000000000000000000000000000000000000000000000000000000000000000000000000000000000000000000000000000",
                    "coinbase" : "0x68795c4aa09d6f4ed3e5deddf8c2ad3049a601da",
                    "difficulty" : "0x020000",
                    "extraData" : "",
                    "gasLimit" : "0x3d37ef",
                    "gasUsed" : "0x015f90",
                    "hash" : "0x0519770fc928b7f4c51c4e71daf52744c31fa8641c0a8db5c4865bd060df190f",
                    "mixHash" : "0xc6490b17dd0483c6f70efb62d41d7e1b61191df08ce55439a011be15893c349d",
                    "nonce" : "0x071c681b5bfb43a7",
                    "number" : "0x01",
                    "parentHash" : "0x9b25016c45ce0e295a463681361471a29c00aea06cba17cbc22894ce6d2c1def",
                    "receiptTrie" : "0xbd73743a7c10079149c4ee1549130bf2f532c79e9b8a8fbd5bb043095b8e2749",
                    "stateRoot" : "0x24067da1eb357ca49d5e739c0d042e08f89068da24f664fb3508b3668c49ff5c",
                    "timestamp" : "0x03e8",
                    "transactionsTrie" : "0xbb3ab1e239f72261199d8968afa676d8578fc3a44880b97de9281e88935f707b",
                    "uncleHash" : "0x1dcc4de8dec75d7aab85b567b6ccd41ad312451b948a7413f0a142fd40d49347"
                },
                "rlp" : "0xf90342f901f8a09b25016c45ce0e295a463681361471a29c00aea06cba17cbc22894ce6d2c1defa01dcc4de8dec75d7aab85b567b6ccd41ad312451b948a7413f0a142fd40d493479468795c4aa09d6f4ed3e5deddf8c2ad3049a601daa024067da1eb357ca49d5e739c0d042e08f89068da24f664fb3508b3668c49ff5ca0bb3ab1e239f72261199d8968afa676d8578fc3a44880b97de9281e88935f707ba0bd73743a7c10079149c4ee1549130bf2f532c79e9b8a8fbd5bb043095b8e2749b90100000000000000000000000000000000000000000000000000000000000000000000000000000000000000000000000000000000000000000000000000000000000000000000000000000000000000000000000000000000000000000000000000000000000000000000000000000000000000000000000000000000000000000000000000000000000000000000000000000000000000000000000000000000000000000000000000000000000000000000000000000000000000000000000000000000000000000000000000000000000000000000000000000000000000000000000000000000000000000000000000000000000000000000000000000000008302000001833d37ef83015f908203e880a0c6490b17dd0483c6f70efb62d41d7e1b61191df08ce55439a011be15893c349d88071c681b5bfb43a7f90143f90140010183015f9094b94f5374fce5edbc8e2a8697c15331677e6ebf0b80b8e00ccbec17235f5b9cc5e42f3df6364a76ecdd0101ddda8fc5dc0ba0b59c0e5628069ef5e376c0a1ea82f9dfc2e0001a7f385d655eef9a6f976c7a5d2c493ea3ad0ccbec17235f5b9cc5e42f3df6364a76ecdd0101ddda8fc5dc0ba0b59c0e5628069ef5e376c0a1ea82f9dfc2e0001a7f385d655eef9a6f976c7a5d2c493ea3ad000000000000000000000000000000000000000000000000000000000000000130644e72e131a029b85045b68181585d97816a916871ca8d3c208c16d87cfd4530644e72e131a029b85045b68181585d97816a916871ca8d3c208c16d87cfd451b9f80bf3f1db1b4c87639f86ef49a8f52e4ca596aa3636b24c0ba5a29ee695f7ba017d123dc918891cef41597b101bc59cad5398e0f57b497ce8679f692a537368fc0",
                "transactions" : [
                    {
                        "data" : "0x0ccbec17235f5b9cc5e42f3df6364a76ecdd0101ddda8fc5dc0ba0b59c0e5628069ef5e376c0a1ea82f9dfc2e0001a7f385d655eef9a6f976c7a5d2c493ea3ad0ccbec17235f5b9cc5e42f3df6364a76ecdd0101ddda8fc5dc0ba0b59c0e5628069ef5e376c0a1ea82f9dfc2e0001a7f385d655eef9a6f976c7a5d2c493ea3ad000000000000000000000000000000000000000000000000000000000000000130644e72e131a029b85045b68181585d97816a916871ca8d3c208c16d87cfd4530644e72e131a029b85045b68181585d97816a916871ca8d3c208c16d87cfd45",
                        "gasLimit" : "0x015f90",
                        "gasPrice" : "0x01",
                        "nonce" : "0x01",
                        "r" : "0x80bf3f1db1b4c87639f86ef49a8f52e4ca596aa3636b24c0ba5a29ee695f7b",
                        "s" : "0x17d123dc918891cef41597b101bc59cad5398e0f57b497ce8679f692a537368f",
                        "to" : "0xb94f5374fce5edbc8e2a8697c15331677e6ebf0b",
                        "v" : "0x1b",
                        "value" : "0x00"
                    }
                ],
                "uncleHeaders" : [
                ]
            }
        ],
        "genesisBlockHeader" : {
            "bloom" : "0x00000000000000000000000000000000000000000000000000000000000000000000000000000000000000000000000000000000000000000000000000000000000000000000000000000000000000000000000000000000000000000000000000000000000000000000000000000000000000000000000000000000000000000000000000000000000000000000000000000000000000000000000000000000000000000000000000000000000000000000000000000000000000000000000000000000000000000000000000000000000000000000000000000000000000000000000000000000000000000000000000000000000000000000000000000000",
            "coinbase" : "0x68795c4aa09d6f4ed3e5deddf8c2ad3049a601da",
            "difficulty" : "0x020000",
            "extraData" : "0x42",
            "gasLimit" : "0x3d37ef",
            "gasUsed" : "0x00",
            "hash" : "0x9b25016c45ce0e295a463681361471a29c00aea06cba17cbc22894ce6d2c1def",
            "mixHash" : "0x56e81f171bcc55a6ff8345e692c0f86e5b48e01b996cadc001622fb5e363b421",
            "nonce" : "0x0102030405060708",
            "number" : "0x00",
            "parentHash" : "0x0000000000000000000000000000000000000000000000000000000000000000",
            "receiptTrie" : "0x56e81f171bcc55a6ff8345e692c0f86e5b48e01b996cadc001622fb5e363b421",
            "stateRoot" : "0xa4db92ceb60668ffcb9642d55fa7fe34cc341b53029d31394d82f0c61462bd99",
            "timestamp" : "0x03b6",
            "transactionsTrie" : "0x56e81f171bcc55a6ff8345e692c0f86e5b48e01b996cadc001622fb5e363b421",
            "uncleHash" : "0x1dcc4de8dec75d7aab85b567b6ccd41ad312451b948a7413f0a142fd40d49347"
        },
        "genesisRLP" : "0xf901faf901f5a00000000000000000000000000000000000000000000000000000000000000000a01dcc4de8dec75d7aab85b567b6ccd41ad312451b948a7413f0a142fd40d493479468795c4aa09d6f4ed3e5deddf8c2ad3049a601daa0a4db92ceb60668ffcb9642d55fa7fe34cc341b53029d31394d82f0c61462bd99a056e81f171bcc55a6ff8345e692c0f86e5b48e01b996cadc001622fb5e363b421a056e81f171bcc55a6ff8345e692c0f86e5b48e01b996cadc001622fb5e363b421b90100000000000000000000000000000000000000000000000000000000000000000000000000000000000000000000000000000000000000000000000000000000000000000000000000000000000000000000000000000000000000000000000000000000000000000000000000000000000000000000000000000000000000000000000000000000000000000000000000000000000000000000000000000000000000000000000000000000000000000000000000000000000000000000000000000000000000000000000000000000000000000000000000000000000000000000000000000000000000000000000000000000000000000000000000000000008302000080833d37ef808203b642a056e81f171bcc55a6ff8345e692c0f86e5b48e01b996cadc001622fb5e363b421880102030405060708c0c0",
        "lastblockhash" : "0x0519770fc928b7f4c51c4e71daf52744c31fa8641c0a8db5c4865bd060df190f",
        "network" : "Frontier",
        "postState" : {
            "0x68795c4aa09d6f4ed3e5deddf8c2ad3049a601da" : {
                "balance" : "0x4563918244f55f90",
                "code" : "",
                "nonce" : "0x00",
                "storage" : {
                }
            },
            "0xa94f5374fce5edbc8e2a8697c15331677e6ebf0b" : {
                "balance" : "0x0de0b6b3a762a070",
                "code" : "",
                "nonce" : "0x02",
                "storage" : {
                }
            },
            "0xb94f5374fce5edbc8e2a8697c15331677e6ebf0b" : {
                "balance" : "0x00",
                "code" : "0x60003560005260203560205260403560405260603560605260803560805260a03560a05260c03560c052604061012c60806000600060066207a120f2600055604061019060606080600060076207a120f260015561012c51600a5561014c51600b55610190516014556101b051601555601454600a5414600255601554600b5414600355",
                "nonce" : "0x00",
                "storage" : {
                }
            }
        },
        "pre" : {
            "0xa94f5374fce5edbc8e2a8697c15331677e6ebf0b" : {
                "balance" : "0x0de0b6b3a7640000",
                "code" : "",
                "nonce" : "0x01",
                "storage" : {
                }
            },
            "0xb94f5374fce5edbc8e2a8697c15331677e6ebf0b" : {
                "balance" : "0x00",
                "code" : "0x60003560005260203560205260403560405260603560605260803560805260a03560a05260c03560c052604061012c60806000600060066207a120f2600055604061019060606080600060076207a120f260015561012c51600a5561014c51600b55610190516014556101b051601555601454600a5414600255601554600b5414600355",
                "nonce" : "0x00",
                "storage" : {
                }
            }
        }
    },
    "pointMulAdd2_d20g1v0_Homestead" : {
        "_info" : {
            "comment" : "",
            "filledwith" : "cpp-1.3.0+commit.4e101574.Linux.g++",
            "lllcversion" : "Version: 0.4.18-develop.2017.10.11+commit.81f9f86c.Linux.g++",
            "source" : "src/BlockchainTestsFiller/GeneralStateTests/stZeroKnowledge/pointMulAdd2_d20g1v0Filler.json",
            "sourceHash" : "a47d8b3c08a6c825a2a49b9edaf4d887841c150b9a82ab2ab7ceaeff12059428"
        },
        "blocks" : [
            {
                "blockHeader" : {
                    "bloom" : "0x00000000000000000000000000000000000000000000000000000000000000000000000000000000000000000000000000000000000000000000000000000000000000000000000000000000000000000000000000000000000000000000000000000000000000000000000000000000000000000000000000000000000000000000000000000000000000000000000000000000000000000000000000000000000000000000000000000000000000000000000000000000000000000000000000000000000000000000000000000000000000000000000000000000000000000000000000000000000000000000000000000000000000000000000000000000",
                    "coinbase" : "0x68795c4aa09d6f4ed3e5deddf8c2ad3049a601da",
                    "difficulty" : "0x020000",
                    "extraData" : "",
                    "gasLimit" : "0x3d37ef",
                    "gasUsed" : "0x015f90",
                    "hash" : "0xdbfd53ebe4a301bd6afade3d3403a86807bc1edc424fcb6b72feaf82a661efff",
                    "mixHash" : "0x677a2591331c031e36f7fa612546090a37a81250b052f8995265a89e6d6e3b2f",
                    "nonce" : "0xd46188695fc4ffdd",
                    "number" : "0x01",
                    "parentHash" : "0x9b25016c45ce0e295a463681361471a29c00aea06cba17cbc22894ce6d2c1def",
                    "receiptTrie" : "0xbd73743a7c10079149c4ee1549130bf2f532c79e9b8a8fbd5bb043095b8e2749",
                    "stateRoot" : "0x24067da1eb357ca49d5e739c0d042e08f89068da24f664fb3508b3668c49ff5c",
                    "timestamp" : "0x03e8",
                    "transactionsTrie" : "0xbb3ab1e239f72261199d8968afa676d8578fc3a44880b97de9281e88935f707b",
                    "uncleHash" : "0x1dcc4de8dec75d7aab85b567b6ccd41ad312451b948a7413f0a142fd40d49347"
                },
                "rlp" : "0xf90342f901f8a09b25016c45ce0e295a463681361471a29c00aea06cba17cbc22894ce6d2c1defa01dcc4de8dec75d7aab85b567b6ccd41ad312451b948a7413f0a142fd40d493479468795c4aa09d6f4ed3e5deddf8c2ad3049a601daa024067da1eb357ca49d5e739c0d042e08f89068da24f664fb3508b3668c49ff5ca0bb3ab1e239f72261199d8968afa676d8578fc3a44880b97de9281e88935f707ba0bd73743a7c10079149c4ee1549130bf2f532c79e9b8a8fbd5bb043095b8e2749b90100000000000000000000000000000000000000000000000000000000000000000000000000000000000000000000000000000000000000000000000000000000000000000000000000000000000000000000000000000000000000000000000000000000000000000000000000000000000000000000000000000000000000000000000000000000000000000000000000000000000000000000000000000000000000000000000000000000000000000000000000000000000000000000000000000000000000000000000000000000000000000000000000000000000000000000000000000000000000000000000000000000000000000000000000000000008302000001833d37ef83015f908203e880a0677a2591331c031e36f7fa612546090a37a81250b052f8995265a89e6d6e3b2f88d46188695fc4ffddf90143f90140010183015f9094b94f5374fce5edbc8e2a8697c15331677e6ebf0b80b8e00ccbec17235f5b9cc5e42f3df6364a76ecdd0101ddda8fc5dc0ba0b59c0e5628069ef5e376c0a1ea82f9dfc2e0001a7f385d655eef9a6f976c7a5d2c493ea3ad0ccbec17235f5b9cc5e42f3df6364a76ecdd0101ddda8fc5dc0ba0b59c0e5628069ef5e376c0a1ea82f9dfc2e0001a7f385d655eef9a6f976c7a5d2c493ea3ad000000000000000000000000000000000000000000000000000000000000000130644e72e131a029b85045b68181585d97816a916871ca8d3c208c16d87cfd4530644e72e131a029b85045b68181585d97816a916871ca8d3c208c16d87cfd451b9f80bf3f1db1b4c87639f86ef49a8f52e4ca596aa3636b24c0ba5a29ee695f7ba017d123dc918891cef41597b101bc59cad5398e0f57b497ce8679f692a537368fc0",
                "transactions" : [
                    {
                        "data" : "0x0ccbec17235f5b9cc5e42f3df6364a76ecdd0101ddda8fc5dc0ba0b59c0e5628069ef5e376c0a1ea82f9dfc2e0001a7f385d655eef9a6f976c7a5d2c493ea3ad0ccbec17235f5b9cc5e42f3df6364a76ecdd0101ddda8fc5dc0ba0b59c0e5628069ef5e376c0a1ea82f9dfc2e0001a7f385d655eef9a6f976c7a5d2c493ea3ad000000000000000000000000000000000000000000000000000000000000000130644e72e131a029b85045b68181585d97816a916871ca8d3c208c16d87cfd4530644e72e131a029b85045b68181585d97816a916871ca8d3c208c16d87cfd45",
                        "gasLimit" : "0x015f90",
                        "gasPrice" : "0x01",
                        "nonce" : "0x01",
                        "r" : "0x80bf3f1db1b4c87639f86ef49a8f52e4ca596aa3636b24c0ba5a29ee695f7b",
                        "s" : "0x17d123dc918891cef41597b101bc59cad5398e0f57b497ce8679f692a537368f",
                        "to" : "0xb94f5374fce5edbc8e2a8697c15331677e6ebf0b",
                        "v" : "0x1b",
                        "value" : "0x00"
                    }
                ],
                "uncleHeaders" : [
                ]
            }
        ],
        "genesisBlockHeader" : {
            "bloom" : "0x00000000000000000000000000000000000000000000000000000000000000000000000000000000000000000000000000000000000000000000000000000000000000000000000000000000000000000000000000000000000000000000000000000000000000000000000000000000000000000000000000000000000000000000000000000000000000000000000000000000000000000000000000000000000000000000000000000000000000000000000000000000000000000000000000000000000000000000000000000000000000000000000000000000000000000000000000000000000000000000000000000000000000000000000000000000",
            "coinbase" : "0x68795c4aa09d6f4ed3e5deddf8c2ad3049a601da",
            "difficulty" : "0x020000",
            "extraData" : "0x42",
            "gasLimit" : "0x3d37ef",
            "gasUsed" : "0x00",
            "hash" : "0x9b25016c45ce0e295a463681361471a29c00aea06cba17cbc22894ce6d2c1def",
            "mixHash" : "0x56e81f171bcc55a6ff8345e692c0f86e5b48e01b996cadc001622fb5e363b421",
            "nonce" : "0x0102030405060708",
            "number" : "0x00",
            "parentHash" : "0x0000000000000000000000000000000000000000000000000000000000000000",
            "receiptTrie" : "0x56e81f171bcc55a6ff8345e692c0f86e5b48e01b996cadc001622fb5e363b421",
            "stateRoot" : "0xa4db92ceb60668ffcb9642d55fa7fe34cc341b53029d31394d82f0c61462bd99",
            "timestamp" : "0x03b6",
            "transactionsTrie" : "0x56e81f171bcc55a6ff8345e692c0f86e5b48e01b996cadc001622fb5e363b421",
            "uncleHash" : "0x1dcc4de8dec75d7aab85b567b6ccd41ad312451b948a7413f0a142fd40d49347"
        },
        "genesisRLP" : "0xf901faf901f5a00000000000000000000000000000000000000000000000000000000000000000a01dcc4de8dec75d7aab85b567b6ccd41ad312451b948a7413f0a142fd40d493479468795c4aa09d6f4ed3e5deddf8c2ad3049a601daa0a4db92ceb60668ffcb9642d55fa7fe34cc341b53029d31394d82f0c61462bd99a056e81f171bcc55a6ff8345e692c0f86e5b48e01b996cadc001622fb5e363b421a056e81f171bcc55a6ff8345e692c0f86e5b48e01b996cadc001622fb5e363b421b90100000000000000000000000000000000000000000000000000000000000000000000000000000000000000000000000000000000000000000000000000000000000000000000000000000000000000000000000000000000000000000000000000000000000000000000000000000000000000000000000000000000000000000000000000000000000000000000000000000000000000000000000000000000000000000000000000000000000000000000000000000000000000000000000000000000000000000000000000000000000000000000000000000000000000000000000000000000000000000000000000000000000000000000000000000000008302000080833d37ef808203b642a056e81f171bcc55a6ff8345e692c0f86e5b48e01b996cadc001622fb5e363b421880102030405060708c0c0",
        "lastblockhash" : "0xdbfd53ebe4a301bd6afade3d3403a86807bc1edc424fcb6b72feaf82a661efff",
        "network" : "Homestead",
        "postState" : {
            "0x68795c4aa09d6f4ed3e5deddf8c2ad3049a601da" : {
                "balance" : "0x4563918244f55f90",
                "code" : "",
                "nonce" : "0x00",
                "storage" : {
                }
            },
            "0xa94f5374fce5edbc8e2a8697c15331677e6ebf0b" : {
                "balance" : "0x0de0b6b3a762a070",
                "code" : "",
                "nonce" : "0x02",
                "storage" : {
                }
            },
            "0xb94f5374fce5edbc8e2a8697c15331677e6ebf0b" : {
                "balance" : "0x00",
                "code" : "0x60003560005260203560205260403560405260603560605260803560805260a03560a05260c03560c052604061012c60806000600060066207a120f2600055604061019060606080600060076207a120f260015561012c51600a5561014c51600b55610190516014556101b051601555601454600a5414600255601554600b5414600355",
                "nonce" : "0x00",
                "storage" : {
                }
            }
        },
        "pre" : {
            "0xa94f5374fce5edbc8e2a8697c15331677e6ebf0b" : {
                "balance" : "0x0de0b6b3a7640000",
                "code" : "",
                "nonce" : "0x01",
                "storage" : {
                }
            },
            "0xb94f5374fce5edbc8e2a8697c15331677e6ebf0b" : {
                "balance" : "0x00",
                "code" : "0x60003560005260203560205260403560405260603560605260803560805260a03560a05260c03560c052604061012c60806000600060066207a120f2600055604061019060606080600060076207a120f260015561012c51600a5561014c51600b55610190516014556101b051601555601454600a5414600255601554600b5414600355",
                "nonce" : "0x00",
                "storage" : {
                }
            }
        }
    }
}