{
  "genesis": {
    "difficulty": "5697691613344",
    "extraData": "0xd783010202844765746887676f312e342e32856c696e7578",
    "gasLimit": "3141592",
    "hash": "0x2004021ae3545cf8abba1ec97a7e401157cee9e847131e2f4c75ce38610040cc",
    "miner": "0x52bc44d5378309ee2abf1539bf71de1b7d7be3b5",
    "mixHash": "0x651f01d13fb801c602e1544ab80b3bc32888ea40ef298efa52ec3df983b558ee",
    "nonce": "0xdf23f0da925518a6",
    "number": "422908",
    "stateRoot": "0xd914c6440edf9f4a6f997a9b3ecb6e1a9ca2310f74b0b6890c0d0d4a3c28e4d3",
    "timestamp": "1445530335",
    "alloc": {
      "0x2861bf89b6c640c79040d357c1e9513693ef5d3f": {
        "balance": "0x0",
        "code": "0x606060405236156100825760e060020a600035046312055e8f8114610084578063185061da146100b157806322beb9b9146100d5578063245a03ec146101865780633fa4f245146102a657806341c0e1b5146102af578063890eba68146102cb578063b29f0835146102de578063d6b4485914610308578063dd012a15146103b9575b005b6001805474ff0000000000000000000000000000000000000000191660a060020a60043502179055610082565b6100826001805475ff00000000000000000000000000000000000000000019169055565b61008260043560015460e060020a6352afbc3302606090815230600160a060020a039081166064527fb29f0835000000000000000000000000000000000000000000000000000000006084527fc5d2460186f7233c927e7db2dcc703c0e500b653ca82273b7bfad8045d85a47060a45243840160c490815260ff60a060020a85041660e452600061010481905291909316926352afbc339261012492918183876161da5a03f1156100025750505050565b6100826004356024356001547fb0f07e440000000000000000000000000000000000000000000000000000000060609081526064839052600160a060020a039091169063b0f07e449060849060009060248183876161da5a03f150604080516001547f73657449742875696e74323536290000000000000000000000000000000000008252825191829003600e018220878352835192839003602001832060e060020a6352afbc33028452600160a060020a03308116600486015260e060020a9283900490920260248501526044840152438901606484015260a060020a820460ff1694830194909452600060a483018190529251931694506352afbc33935060c48181019391829003018183876161da5a03f115610002575050505050565b6103c460025481565b61008260005433600160a060020a039081169116146103ce575b565b6103c460015460a860020a900460ff1681565b6100826001805475ff000000000000000000000000000000000000000000191660a860020a179055565b61008260043560015460e060020a6352afbc3302606090815230600160a060020a039081166064527f185061da000000000000000000000000000000000000000000000000000000006084527fc5d2460186f7233c927e7db2dcc703c0e500b653ca82273b7bfad8045d85a47060a45243840160c490815260ff60a060020a85041660e452600061010481905291909316926352afbc339261012492918183876161da5a03f1156100025750505050565b600435600255610082565b6060908152602090f35b6001547f6ff96d17000000000000000000000000000000000000000000000000000000006060908152600160a060020a0330811660645290911690632e1a7d4d908290636ff96d17906084906020906024816000876161da5a03f1156100025750506040805180517f2e1a7d4d0000000000000000000000000000000000000000000000000000000082526004820152905160248281019350600092829003018183876161da5a03f115610002575050600054600160a060020a03169050ff",
        "storage": {
          "0x0000000000000000000000000000000000000000000000000000000000000000": "0x000000000000000000000000d3cda913deb6f67967b99d67acdfa1712c293601",
          "0x0000000000000000000000000000000000000000000000000000000000000001": "0x0000000000000000000000ff30c9e568f133adce1f1ea91e189613223fc461b9"
        }
      },
      "0x2a65aca4d5fc5b5c859090a6c34d164135398226": {
        "balance": "0x326601cc6cf364f6b9",
        "nonce": "12122",
        "code": "0x"
      },
      "0x30c9e568f133adce1f1ea91e189613223fc461b9": {
        "balance": "0x8b83c417dd78000",
        "nonce": "2",
        "code": "0x606060405236156102ea5760e060020a6000350463022bc71f81146102f757806303d6d7b61461037f578063086ae9e4146103ec57806309c975df146104595780631145a20f146104c657806312d67c5f146104e75780631302188c146104f15780631ae460e5146104fc57806323306ed614610573578063234917d4146105ca57806329917954146106375780632a472ae81461071d5780632e1a7d4d1461078a578063306b031d1461087f57806333613cbe1461089d57806334c19b93146108c257806335b281531461092f5780633664a0ea146109b85780633c941423146109c35780633cbfed7414610a3b57806350a3bd3914610a4957806352afbc3314610a735780635539d40014610c2a5780635a5383ac14610c3e57806360b831e514610cb55780636164947214610d7f578063685c234a14610d8a5780636ffc089614610de0578063741b3c3914610e4d5780637542861514610ed25780637772a38014610f5557806377b19cd514610ff057806378bc64601461105d5780638b37e656146110ca5780638baced64146111375780638dd5e298146111b157806393423e9c146111de57806394d2b21b1461120257806394f3f81d1461121657806398e00e54146112665780639f927be7146112bc578063a502aae81461136a578063a6c01cfd146113e8578063a9743c68146113fa578063aa4cc01f14611467578063b010d94a146114d4578063b0171fa41461154e578063b0ac4c8c146115cc578063b0f07e4414611635578063b35594601461171c578063c0f6885914611739578063c3daab961461178f578063c630f92b146117bb578063c831391d146117e5578063cd062734146117f0578063d0e30db01461185d578063db681e5414611865578063e40986551461190c578063e850f3ae14611979578063ed2b8e0b146119e6578063f340fa01146119f1578063f828c3fa14611ae8578063f8b1185314611b07578063f9f447eb14611b24578063fc30052214611b91578063fcf3691814611bfe575b6112645b611c86336119f8565b611c88600435604080517fc4144b260000000000000000000000000000000000000000000000000000000081526010600482015260248101839052905160009173ce642b6a82e72147ceade0e72c786ba8eaeb31d79163c4144b26916044818101926020929091908290030181878760325a03f2156100025750506040515191506108989050565b611c8860043560007327b1b436e4699a012cc8698e33c8f3e1c035c28b637d613b346000600050846040518360e060020a028152600401808381526020018281526020019250505060206040518083038160008760325a03f2156100025750506040515191506108989050565b611c8860043560007327b1b436e4699a012cc8698e33c8f3e1c035c28b63da40fd616000600050846040518360e060020a028152600401808381526020018281526020019250505060206040518083038160008760325a03f2156100025750506040515191506108989050565b611c9a60043560007327b1b436e4699a012cc8698e33c8f3e1c035c28b63c68efc486000600050846040518360e060020a028152600401808381526020018281526020019250505060206040518083038160008760325a03f2156100025750506040515191506108989050565b61126460043560243560443560643560843561200185858585856000610a89565b611c886004545b90565b611c886005546104ee565b611c886040805160e160020a6333f8a36702815260066004820152600160a060020a0333166024820152905160009173c895c144d0b0f88417cf9e14e03e6abc82c0af3f916367f146ce916044818101926020929091908290030181878760325a03f2156100025750506040515191506104ee9050565b611c885b60007327b1b436e4699a012cc8698e33c8f3e1c035c28b6323306ed66040518160e060020a02815260040180905060206040518083038160008760325a03f2156100025750506040515191506104ee9050565b611c8860043560007327b1b436e4699a012cc8698e33c8f3e1c035c28b63e99a66856000600050846040518360e060020a028152600401808381526020018281526020019250505060206040518083038160008760325a03f2156100025750506040515191506108989050565b611264604080517f317c152d00000000000000000000000000000000000000000000000000000000815260066004820152600160a060020a0333166024820152905160009173c895c144d0b0f88417cf9e14e03e6abc82c0af3f9163317c152d916044818101926020929091908290030181878760325a03f2156100025750506040805180517ff1173928000000000000000000000000000000000000000000000000000000008252600160a060020a0333166004830152602482018190529151919363f1173928926044838101938290030181838760325a03f2156100025750505050565b611c8860043560007327b1b436e4699a012cc8698e33c8f3e1c035c28b63707378396000600050846040518360e060020a028152600401808381526020018281526020019250505060206040518083038160008760325a03f2156100025750506040515191506108989050565b611264600435604080517fb5bc6dbb00000000000000000000000000000000000000000000000000000000815260126004820152600160a060020a033316602482015260448101839052905173d3cb18959b0435864ff33010fa83be60afc04b229163b5bc6dbb916064828101926020929190829003018160008760325a03f21561000257505060405151159050611d255773d3cb18959b0435864ff33010fa83be60afc04b22637fcf532c33836040518360e060020a0281526004018083600160a060020a031681526020018281526020019250505060006040518083038160008760325a03f21561000257505050611ae5565b611c886004356000818152600e60205260409020600201545b919050565b611c886004355b600160a060020a0381166000908152600f6020526040902054610898565b611c8860043560007327b1b436e4699a012cc8698e33c8f3e1c035c28b63fc4730126000600050846040518360e060020a028152600401808381526020018281526020019250505060206040518083038160008760325a03f2156100025750506040515191506108989050565b611264600435604080517fa95d3e76000000000000000000000000000000000000000000000000000000008152600060048201819052600160a060020a0384811660248401523316604483015291517327b1b436e4699a012cc8698e33c8f3e1c035c28b9263a95d3e7692606481810193918290030181838760325a03f2156100025750505050565b611c886002546104ee565b611c9a60043560243560007327b1b436e4699a012cc8698e33c8f3e1c035c28b6398213db6600060005085856040518460e060020a02815260040180848152602001838152602001828152602001935050505060206040518083038160008760325a03f215610002575050604051519150610dda9050565b611c886000611e0a336108a4565b611264600073c895c144d0b0f88417cf9e14e03e6abc82c0af3f635748147e600633611ec2610577565b61126460043560243560443560643560843560a4355b604080517ff1924efb000000000000000000000000000000000000000000000000000000008152600060048201819052600160a060020a03338116602484015289166044830152606482018890526084820187905260a4820186905260ff851660c483015260e48201849052915182917327b1b436e4699a012cc8698e33c8f3e1c035c28b9163f1924efb91610104818101926020929091908290030181878760325a03f2156100025750506040805180517f5a1230bf000000000000000000000000000000000000000000000000000000008252600160a060020a0333811660048401528c166024830152604482018b9052606482018a90526084820189905260ff881660a483015260c482018790529151919450635a1230bf9160e48083019260209291908290030181878760325a03f215610002575050604051519183149050612008577327b1b436e4699a012cc8698e33c8f3e1c035c28b6318b753ab82846040518360e060020a028152600401808381526020018281526020019250505060006040518083038160008760325a03f21561000257505050612056565b611c9a600154600160a060020a03166104ee565b611c886040805160e560020a6304b47bb902815260066004820152600160a060020a0333166024820152905160009173c895c144d0b0f88417cf9e14e03e6abc82c0af3f9163968f7720916044818101926020929091908290030181878760325a03f2156100025750506040515191506104ee9050565b6112646004357327b1b436e4699a012cc8698e33c8f3e1c035c28b637e853f3d600060005083336040518460e060020a0281526004018084815260200183815260200182600160a060020a03168152602001935050505060206040518083038160008760325a03f21561000257505060405151159050611ae5577327b1b436e4699a012cc8698e33c8f3e1c035c28b63ab2af349826040518260e060020a0281526004018082815260200191505060006040518083038160008760325a03f2156100025750505050565b611c886008546104ee565b611c88600435602435604080516c01000000000000000000000000600160a060020a03858116820283528416026014820152815160289181900391909101902060009081526015602052205460ff165b92915050565b611c8860043560007327b1b436e4699a012cc8698e33c8f3e1c035c28b63b506054f6000600050846040518360e060020a028152600401808381526020018281526020019250505060206040518083038160008760325a03f2156100025750506040515191506108989050565b611264604080517f068e3ef100000000000000000000000000000000000000000000000000000000815260066004820152600160a060020a0333166024820152346044820152905173c895c144d0b0f88417cf9e14e03e6abc82c0af3f9163068e3ef19160648281019260009291908290030181838760325a03f21561000257505050565b611cb76004356040805160208181018352600080835284815260138252838120600d0154815260148252835190849020805460026001821615610100026000190190911604601f81018490048402830184019095528482529293909291830182828015611fb85780601f10611f8d57610100808354040283529160200191611fb8565b611c886004356024355b604080517fa163a32500000000000000000000000000000000000000000000000000000000815260066004820152600160a060020a038416602482015260448101839052905160009173c895c144d0b0f88417cf9e14e03e6abc82c0af3f9163a163a325916064818101926020929091908290030181878760325a03f215610002575050604051519150610dda9050565b611c8860043560007327b1b436e4699a012cc8698e33c8f3e1c035c28b63775f20f96000600050846040518360e060020a028152600401808381526020018281526020019250505060206040518083038160008760325a03f2156100025750506040515191506108989050565b611c8860043560007327b1b436e4699a012cc8698e33c8f3e1c035c28b637517a7c96000600050846040518360e060020a028152600401808381526020018281526020019250505060206040518083038160008760325a03f2156100025750506040515191506108989050565b611c9a60043560007327b1b436e4699a012cc8698e33c8f3e1c035c28b63250687836000600050846040518360e060020a028152600401808381526020018281526020019250505060206040518083038160008760325a03f2156100025750506040515191506108989050565b611c886004356040805160e160020a6333f8a36702815260066004820152600160a060020a0383166024820152905160009173c895c144d0b0f88417cf9e14e03e6abc82c0af3f916367f146ce916044818101926020929091908290030181878760325a03f2156100025750506040515191506108989050565b611c88600435600073c895c144d0b0f88417cf9e14e03e6abc82c0af3f6354e37911600684611e6d610577565b611c88600435600160a060020a038116600090815260126020526040902054610898565b611c9a600054600160a060020a03166104ee565b604080516c01000000000000000000000000600435600160a060020a0390811682028352331602601482015281516028918190039190910190206000908152601560205220805460ff191690555b005b611c8860007327b1b436e4699a012cc8698e33c8f3e1c035c28b6398e00e546040518160e060020a02815260040180905060206040518083038160008760325a03f2156100025750506040515191506104ee9050565b611c88600435604080517fe6ce3a6a000000000000000000000000000000000000000000000000000000008152601060048201527f3e3d000000000000000000000000000000000000000000000000000000000000602482015260448101839052905160009173ce642b6a82e72147ceade0e72c786ba8eaeb31d79163e6ce3a6a916064818101926020929091908290030181878760325a03f2156100025750506040515191506108989050565b611c88604080517f8f00e61a00000000000000000000000000000000000000000000000000000000815260066004820152905160009173c895c144d0b0f88417cf9e14e03e6abc82c0af3f91638f00e61a916024818101926020929091908290030181878760325a03f2156100025750506040515191506104ee9050565b611c886004356000611e113383610f5f565b611c8860043560007327b1b436e4699a012cc8698e33c8f3e1c035c28b63dd382dd36000600050846040518360e060020a028152600401808381526020018281526020019250505060206040518083038160008760325a03f2156100025750506040515191506108989050565b611c8860043560007327b1b436e4699a012cc8698e33c8f3e1c035c28b63aebd65476000600050846040518360e060020a028152600401808381526020018281526020019250505060206040518083038160008760325a03f2156100025750506040515191506108989050565b611c886004356040805160e560020a6304b47bb902815260066004820152600160a060020a0383166024820152905160009173c895c144d0b0f88417cf9e14e03e6abc82c0af3f9163968f7720916044818101926020929091908290030181878760325a03f2156100025750506040515191506108989050565b611c88604080517fc75e8f8800000000000000000000000000000000000000000000000000000000815260066004820152905160009173c895c144d0b0f88417cf9e14e03e6abc82c0af3f9163c75e8f88916024818101926020929091908290030181878760325a03f2156100025750506040515191506104ee9050565b611cb760408051602081810183526000825282516003805460026000196001831615610100020190911604601f81018490048402830184019095528482529293909291830182828015611fef5780601f10611fc457610100808354040283529160200191611fef565b611264604080517fa89713750000000000000000000000000000000000000000000000000000000081526000600482018181526024830193845236604484018190527327b1b436e4699a012cc8698e33c8f3e1c035c28b9463a89713759484939190606401848480828437820191505094505050505060006040518083038160008760325a03f215610002575050604080516005547f321f45840000000000000000000000000000000000000000000000000000000082526004820152905163321f4584916024818101926000929091908290030181838760325a03f21561000257505050565b611c886004356000818152600e6020526040902060030154610898565b611c8860007327b1b436e4699a012cc8698e33c8f3e1c035c28b63c0f688596040518160e060020a02815260040180905060206040518083038160008760325a03f2156100025750506040515191506104ee9050565b61126460043573c895c144d0b0f88417cf9e14e03e6abc82c0af3f63dd8abb6c60063384611db7610577565b611c88600073c895c144d0b0f88417cf9e14e03e6abc82c0af3f6354e37911600633611e18610577565b611c886007546104ee565b611c8860043560007327b1b436e4699a012cc8698e33c8f3e1c035c28b63125935846000600050846040518360e060020a028152600401808381526020018281526020019250505060206040518083038160008760325a03f2156100025750506040515191506108989050565b6112646102ee565b611c886004356000818152601360209081526040805181842060038101546004828101547f38f4c9eb0000000000000000000000000000000000000000000000000000000085526006918501919091526024840182905260ff160160448301529151919273c895c144d0b0f88417cf9e14e03e6abc82c0af3f926338f4c9eb9260648181019392918290030181888760325a03f21561000257505060405151949350505050565b611c8860043560007327b1b436e4699a012cc8698e33c8f3e1c035c28b63fae644646000600050846040518360e060020a028152600401808381526020018281526020019250505060206040518083038160008760325a03f2156100025750506040515191506108989050565b611c8860043560007327b1b436e4699a012cc8698e33c8f3e1c035c28b63b3a5e2556000600050846040518360e060020a028152600401808381526020018281526020019250505060206040518083038160008760325a03f2156100025750506040515191506108989050565b611c886006546104ee565b6112646004355b604080517fb1df3d8000000000000000000000000000000000000000000000000000000000815260126004820152600160a060020a0383166024820152346044820152905173d3cb18959b0435864ff33010fa83be60afc04b229163b1df3d80916064828101926020929190829003018160008760325a03f215610002575050604080517f5548c837000000000000000000000000000000000000000000000000000000008152600160a060020a033381166004830152841660248201523460448201529051635548c837916064818101926000929091908290030181838760325a03f215610002575050505b50565b611264600435602435604435606435611ffb8484848460ff6000610a89565b611c886004356000818152600e6020526040902060010154610898565b611c8860043560007327b1b436e4699a012cc8698e33c8f3e1c035c28b63c9abdb7c6000600050846040518360e060020a028152600401808381526020018281526020019250505060206040518083038160008760325a03f2156100025750506040515191506108989050565b611c8860043560007327b1b436e4699a012cc8698e33c8f3e1c035c28b6386b0aac96000600050846040518360e060020a028152600401808381526020018281526020019250505060206040518083038160008760325a03f2156100025750506040515191506108989050565b611264600435604080517f25fea09900000000000000000000000000000000000000000000000000000000815260006004820181905260248201849052600160a060020a033316604483015291517327b1b436e4699a012cc8698e33c8f3e1c035c28b926325fea09992606481810193918290030181838760325a03f2156100025750505050565b565b60408051918252519081900360200190f35b60408051600160a060020a03929092168252519081900360200190f35b60405180806020018281038252838181518152602001915080519060200190808383829060006004602084601f0104600302600f01f150905090810190601f168015611d175780820380516001836020036101000a031916815260200191505b509250505060405180910390f35b600160a060020a0333166000818152601260205260408051818320547f5c54305e00000000000000000000000000000000000000000000000000000000825260048201949094526024810185905260448101939093525173d3cb18959b0435864ff33010fa83be60afc04b2292635c54305e9260648281019391928290030181838760325a03f2156100025750505050565b6040518560e060020a0281526004018085815260200184600160a060020a0316815260200183815260200182815260200194505050505060006040518083038160008760325a03f2156100025750505050565b90506104ee565b9050610898565b6040518460e060020a0281526004018084815260200183600160a060020a03168152602001828152602001935050505060206040518083038160008760325a03f2156100025750506040515191506104ee9050565b6040518460e060020a0281526004018084815260200183600160a060020a03168152602001828152602001935050505060206040518083038160008760325a03f2156100025750506040515191506108989050565b6040518460e060020a0281526004018084815260200183600160a060020a03168152602001828152602001935050505060206040518083038160008760325a03f2156100025750506040805180517f6a704d7b000000000000000000000000000000000000000000000000000000008252600160a060020a033316600483015260248201819052915191935073c895c144d0b0f88417cf9e14e03e6abc82c0af3f9250636a704d7b9160448281019260009291908290030181838760325a03f2156100025750505050565b820191906000526020600020905b815481529060010190602001808311611f9b57829003601f168201915b50505050509050610898565b820191906000526020600020905b815481529060010190602001808311611fd257829003601f168201915b505050505090506104ee565b50505050565b5050505050565b7327b1b436e4699a012cc8698e33c8f3e1c035c28b635ca1bad5826040518260e060020a0281526004018082815260200191505060006040518083038160008760325a03f215610002575050505b505050505050505056",
        "storage": {
          "0x18b039f13c5f33908f0960616cb3e44029c716366508c54d555096d6e1fa5145": "0x00000000000000000000000000000000000000000000000008b83c417dd78000"
        }
      },
      "0xd3cb18959b0435864ff33010fa83be60afc04b22": {
        "balance": "0x0",
        "code": "0x650105e11e10f850606060405236156100695760e060020a60003504635548c837811461006e5780635c54305e146100ca5780636b1039661461011e5780637fcf532c14610152578063b1df3d801461019e578063b5bc6dbb146101b7578063e62af6c1146101ee575b610007565b61022060043560243560443581600160a060020a031683600160a060020a03167f47a08955ce2b7f21ea62ff0024e1ea0ad87430953554a87e6bc65d777f18e639836040518082815260200191505060405180910390a3505050565b61022060043560243560443560408051838152602081018390528151600160a060020a038616927f9b24879829bed3003de08d5c5d7e18dcbb8dc76faebd95cafc5d4dec8c61a3a5928290030190a2505050565b6102206004356024356044355b600160a060020a038216600090815260208490526040902054808201101561023457610007565b610220600435602435604080518281529051600160a060020a038416917fd0c5cf41ee8ebf084ad0bce53de7cbc6e4693d9b53a4019ca36a2f91cdc20b3a919081900360200190a25050565b610222600435602435604435600061025784848461012b565b610222600435602435604435600160a060020a0382166000908152602084905260408120548290106102865761028e8484846101fb565b6102206004356024356044355b600160a060020a03821660009081526020849052604090205481111561026257610007565b005b60408051918252519081900360200190f35b600160a060020a0382166000908152602084905260409020805482019055505050565b5060015b9392505050565b600160a060020a038216600090815260208490526040902080548290039055505050565b50600061025b565b604051600160a060020a03841690600090849082818181858883f19350505050151561025757604051600160a060020a038416908390600081818185876185025a03f19250505015156102575761000756"
      },
      "0xd3cda913deb6f67967b99d67acdfa1712c293601": {
        "balance": "0x1ff0509d9d6821e26",
        "nonce": "138",
        "code": "0x"
      }
    },
    "config": {
      "chainId": 1,
      "homesteadBlock": 1150000,
      "daoForkBlock": 1920000,
      "daoForkSupport": true,
      "eip150Block": 2463000,
      "eip150Hash": "0x2086799aeebeae135c246c65021c82b4e15a2c451340993aacfd2751886514f0",
      "eip155Block": 2675000,
      "eip158Block": 2675000,
      "byzantiumBlock": 4370000,
      "constantinopleBlock": 7280000,
      "petersburgBlock": 7280000,
      "istanbulBlock": 9069000,
      "muirGlacierBlock": 9200000,
      "berlinBlock": 12244000,
      "londonBlock": 12965000,
      "arrowGlacierBlock": 13773000,
      "grayGlacierBlock": 15050000,
      "ethash": {}
    }
  },
  "context": {
    "number": "422909",
    "difficulty": "5694909537365",
    "timestamp": "1445530357",
    "gasLimit": "3141592",
    "miner": "0x2a65aca4d5fc5b5c859090a6c34d164135398226"
  },
  "input": "0xf86a818a850ba43b7400832d8a40942861bf89b6c640c79040d357c1e9513693ef5d3f808441c0e1b51ca0b8de64a9a04d699f5938efa5431ca7c80500f6accb329da43aadabd4eab84f17a035b969c198f694be991a2a5b287250e19e852efd0ccba30bd50707277bfbc9aa",
  "tracerConfig": {
    "diffMode": true
  },
  "result": {
    "pre": {
      "0x2861bf89b6c640c79040d357c1e9513693ef5d3f": {
        "balance": "0x0",
        "code": "0x606060405236156100825760e060020a600035046312055e8f8114610084578063185061da146100b157806322beb9b9146100d5578063245a03ec146101865780633fa4f245146102a657806341c0e1b5146102af578063890eba68146102cb578063b29f0835146102de578063d6b4485914610308578063dd012a15146103b9575b005b6001805474ff0000000000000000000000000000000000000000191660a060020a60043502179055610082565b6100826001805475ff00000000000000000000000000000000000000000019169055565b61008260043560015460e060020a6352afbc3302606090815230600160a060020a039081166064527fb29f0835000000000000000000000000000000000000000000000000000000006084527fc5d2460186f7233c927e7db2dcc703c0e500b653ca82273b7bfad8045d85a47060a45243840160c490815260ff60a060020a85041660e452600061010481905291909316926352afbc339261012492918183876161da5a03f1156100025750505050565b6100826004356024356001547fb0f07e440000000000000000000000000000000000000000000000000000000060609081526064839052600160a060020a039091169063b0f07e449060849060009060248183876161da5a03f150604080516001547f73657449742875696e74323536290000000000000000000000000000000000008252825191829003600e018220878352835192839003602001832060e060020a6352afbc33028452600160a060020a03308116600486015260e060020a9283900490920260248501526044840152438901606484015260a060020a820460ff1694830194909452600060a483018190529251931694506352afbc33935060c48181019391829003018183876161da5a03f115610002575050505050565b6103c460025481565b61008260005433600160a060020a039081169116146103ce575b565b6103c460015460a860020a900460ff1681565b6100826001805475ff000000000000000000000000000000000000000000191660a860020a179055565b61008260043560015460e060020a6352afbc3302606090815230600160a060020a039081166064527f185061da000000000000000000000000000000000000000000000000000000006084527fc5d2460186f7233c927e7db2dcc703c0e500b653ca82273b7bfad8045d85a47060a45243840160c490815260ff60a060020a85041660e452600061010481905291909316926352afbc339261012492918183876161da5a03f1156100025750505050565b600435600255610082565b6060908152602090f35b6001547f6ff96d17000000000000000000000000000000000000000000000000000000006060908152600160a060020a0330811660645290911690632e1a7d4d908290636ff96d17906084906020906024816000876161da5a03f1156100025750506040805180517f2e1a7d4d0000000000000000000000000000000000000000000000000000000082526004820152905160248281019350600092829003018183876161da5a03f115610002575050600054600160a060020a03169050ff",
        "storage": {
          "0x0000000000000000000000000000000000000000000000000000000000000000": "0x000000000000000000000000d3cda913deb6f67967b99d67acdfa1712c293601",
          "0x0000000000000000000000000000000000000000000000000000000000000001": "0x0000000000000000000000ff30c9e568f133adce1f1ea91e189613223fc461b9"
        }
      },
      "0x2a65aca4d5fc5b5c859090a6c34d164135398226": {
        "balance": "0x326601cc6cf364f6b9",
        "nonce": 12122
      },
      "0xd3cda913deb6f67967b99d67acdfa1712c293601": {
        "balance": "0x1ff0509d9d6821e26",
        "nonce": 138
      }
    },
    "post": {
      "0x2a65aca4d5fc5b5c859090a6c34d164135398226": {
        "balance": "0x326604ee5f5eecd2b9"
      },
      "0xd3cda913deb6f67967b99d67acdfa1712c293601": {
        "balance": "0x1ff01e7e76afa4226",
        "nonce": 139
      }
    }
  }
}
