{
    "returndatacopy_following_failing_call_d0g0v0_Byzantium" : {
        "_info" : {
            "comment" : "",
            "filledwith" : "cpp-1.3.0+commit.6e0ce939.Linux.g++",
            "lllcversion" : "Version: 0.4.18-develop.2017.9.25+commit.a72237f2.Linux.g++",
            "source" : "src/BlockchainTestsFiller/GeneralStateTests/stReturnDataTest/returndatacopy_following_failing_call_d0g0v0Filler.json",
            "sourceHash" : "8aa650d1cdd779889109db47089c19e12bf5070b5b8e76f5cb80c819d91d0fdb"
        },
        "blocks" : [
            {
                "blockHeader" : {
                    "bloom" : "0x00000000000000000000000000000000000000000000000000000000000000000000000000000000000000000000000000000000000000000000000000000000000000000000000000000000000000000000000000000000000000000000000000000000000000000000000000000000000000000000000000000000000000000000000000000000000000000000000000000000000000000000000000000000000000000000000000000000000000000000000000000000000000000000000000000000000000000000000000000000000000000000000000000000000000000000000000000000000000000000000000000000000000000000000000000000",
                    "coinbase" : "0x2adc25665018aa1fe0e6bc666dac8fc2697ff9ba",
                    "difficulty" : "0x020000",
                    "extraData" : "",
                    "gasLimit" : "0x0a00000000",
                    "gasUsed" : "0x0a00000000",
                    "hash" : "0x8e7e960f2769e3252a84d5d3f6535942206d5b356fd14fb4fa0ad4830779a45a",
                    "mixHash" : "0x97d5db2f267b761b182ff8851c1fd7ce181b3cd9161f062badf0b23e0054d61e",
                    "nonce" : "0x45a6ae0ae3ad225b",
                    "number" : "0x01",
                    "parentHash" : "0xfce3a19c4129332ccd514c37f867e372c46015054f42fa64215b812c6e85ee23",
                    "receiptTrie" : "0x97fe59b8004de685658f61c2939be1892eb8593c1ce622c392dd985946712e06",
                    "stateRoot" : "0x2bf83c383a426f1b11714f246009bc47cb3fcb5368c3a0715318dcf26804e67a",
                    "timestamp" : "0x03e8",
                    "transactionsTrie" : "0xde317ba0085ad3bc6f64da920500c40ceb94789c007f8c54b3e766eae29616ab",
                    "uncleHash" : "0x1dcc4de8dec75d7aab85b567b6ccd41ad312451b948a7413f0a142fd40d49347"
                },
                "rlp" : "0xf90266f901fca0fce3a19c4129332ccd514c37f867e372c46015054f42fa64215b812c6e85ee23a01dcc4de8dec75d7aab85b567b6ccd41ad312451b948a7413f0a142fd40d49347942adc25665018aa1fe0e6bc666dac8fc2697ff9baa02bf83c383a426f1b11714f246009bc47cb3fcb5368c3a0715318dcf26804e67aa0de317ba0085ad3bc6f64da920500c40ceb94789c007f8c54b3e766eae29616aba097fe59b8004de685658f61c2939be1892eb8593c1ce622c392dd985946712e06b90100000000000000000000000000000000000000000000000000000000000000000000000000000000000000000000000000000000000000000000000000000000000000000000000000000000000000000000000000000000000000000000000000000000000000000000000000000000000000000000000000000000000000000000000000000000000000000000000000000000000000000000000000000000000000000000000000000000000000000000000000000000000000000000000000000000000000000000000000000000000000000000000000000000000000000000000000000000000000000000000000000000000000000000000000000000008302000001850a00000000850a000000008203e880a097d5db2f267b761b182ff8851c1fd7ce181b3cd9161f062badf0b23e0054d61e8845a6ae0ae3ad225bf864f8628001850a00000000940f572e5295c57f15886f9b263e2f6d2d6c7b5ec680801ba03b6c2d4d0d9d0abf4d624a6f2930e213789e9c00f679a9afa996fb4bd27cb507a024a40d7f4cf44278ac739ecf9eeba61554646709142d968ed1c555be138a3ea2c0",
                "transactions" : [
                    {
                        "data" : "",
                        "gasLimit" : "0x0a00000000",
                        "gasPrice" : "0x01",
                        "nonce" : "0x00",
                        "r" : "0x3b6c2d4d0d9d0abf4d624a6f2930e213789e9c00f679a9afa996fb4bd27cb507",
                        "s" : "0x24a40d7f4cf44278ac739ecf9eeba61554646709142d968ed1c555be138a3ea2",
                        "to" : "0x0f572e5295c57f15886f9b263e2f6d2d6c7b5ec6",
                        "v" : "0x1b",
                        "value" : "0x00"
                    }
                ],
                "uncleHeaders" : [
                ]
            }
        ],
        "genesisBlockHeader" : {
            "bloom" : "0x00000000000000000000000000000000000000000000000000000000000000000000000000000000000000000000000000000000000000000000000000000000000000000000000000000000000000000000000000000000000000000000000000000000000000000000000000000000000000000000000000000000000000000000000000000000000000000000000000000000000000000000000000000000000000000000000000000000000000000000000000000000000000000000000000000000000000000000000000000000000000000000000000000000000000000000000000000000000000000000000000000000000000000000000000000000",
            "coinbase" : "0x2adc25665018aa1fe0e6bc666dac8fc2697ff9ba",
            "difficulty" : "0x020000",
            "extraData" : "0x42",
            "gasLimit" : "0x0a00000000",
            "gasUsed" : "0x00",
            "hash" : "0xfce3a19c4129332ccd514c37f867e372c46015054f42fa64215b812c6e85ee23",
            "mixHash" : "0x56e81f171bcc55a6ff8345e692c0f86e5b48e01b996cadc001622fb5e363b421",
            "nonce" : "0x0102030405060708",
            "number" : "0x00",
            "parentHash" : "0x0000000000000000000000000000000000000000000000000000000000000000",
            "receiptTrie" : "0x56e81f171bcc55a6ff8345e692c0f86e5b48e01b996cadc001622fb5e363b421",
            "stateRoot" : "0xd47c2b8a35a7e8d1177aa60fcd9ea58ea6fd6ac9c08cef18c23d061228c97f6c",
            "timestamp" : "0x03b6",
            "transactionsTrie" : "0x56e81f171bcc55a6ff8345e692c0f86e5b48e01b996cadc001622fb5e363b421",
            "uncleHash" : "0x1dcc4de8dec75d7aab85b567b6ccd41ad312451b948a7413f0a142fd40d49347"
        },
        "genesisRLP" : "0xf901fcf901f7a00000000000000000000000000000000000000000000000000000000000000000a01dcc4de8dec75d7aab85b567b6ccd41ad312451b948a7413f0a142fd40d49347942adc25665018aa1fe0e6bc666dac8fc2697ff9baa0d47c2b8a35a7e8d1177aa60fcd9ea58ea6fd6ac9c08cef18c23d061228c97f6ca056e81f171bcc55a6ff8345e692c0f86e5b48e01b996cadc001622fb5e363b421a056e81f171bcc55a6ff8345e692c0f86e5b48e01b996cadc001622fb5e363b421b90100000000000000000000000000000000000000000000000000000000000000000000000000000000000000000000000000000000000000000000000000000000000000000000000000000000000000000000000000000000000000000000000000000000000000000000000000000000000000000000000000000000000000000000000000000000000000000000000000000000000000000000000000000000000000000000000000000000000000000000000000000000000000000000000000000000000000000000000000000000000000000000000000000000000000000000000000000000000000000000000000000000000000000000000000000000008302000080850a00000000808203b642a056e81f171bcc55a6ff8345e692c0f86e5b48e01b996cadc001622fb5e363b421880102030405060708c0c0",
        "lastblockhash" : "0x8e7e960f2769e3252a84d5d3f6535942206d5b356fd14fb4fa0ad4830779a45a",
        "network" : "Byzantium",
        "postState" : {
            "0x0aabbccdd5c57f15886f9b263e2f6d2d6c7b5ec6" : {
                "balance" : "0x00",
                "code" : "0xfd",
                "nonce" : "0x00",
                "storage" : {
                }
            },
            "0x0f572e5295c57f15886f9b263e2f6d2d6c7b5ec6" : {
                "balance" : "0x00",
                "code" : "0x60006000600060006000730aabbccdd5c57f15886f9b263e2f6d2d6c7b5ec6640900000000f1506020600160003e600051600055",
                "nonce" : "0x00",
                "storage" : {
                    "0x00" : "0x01"
                }
            },
            "0x2adc25665018aa1fe0e6bc666dac8fc2697ff9ba" : {
                "balance" : "0x29a22424f62c0000",
                "code" : "",
                "nonce" : "0x00",
                "storage" : {
                }
            },
            "0xa94f5374fce5edbc8e2a8697c15331677e6ebf0b" : {
                "balance" : "0x5a00000000",
                "code" : "",
                "nonce" : "0x01",
                "storage" : {
                }
            }
        },
        "pre" : {
            "0x0aabbccdd5c57f15886f9b263e2f6d2d6c7b5ec6" : {
                "balance" : "0x00",
                "code" : "0xfd",
                "nonce" : "0x00",
                "storage" : {
                }
            },
            "0x0f572e5295c57f15886f9b263e2f6d2d6c7b5ec6" : {
                "balance" : "0x00",
                "code" : "0x60006000600060006000730aabbccdd5c57f15886f9b263e2f6d2d6c7b5ec6640900000000f1506020600160003e600051600055",
                "nonce" : "0x00",
                "storage" : {
                    "0x00" : "0x01"
                }
            },
            "0xa94f5374fce5edbc8e2a8697c15331677e6ebf0b" : {
                "balance" : "0x6400000000",
                "code" : "",
                "nonce" : "0x00",
                "storage" : {
                }
            }
        }
    },
    "returndatacopy_following_failing_call_d0g0v0_EIP150" : {
        "_info" : {
            "comment" : "",
            "filledwith" : "cpp-1.3.0+commit.6e0ce939.Linux.g++",
            "lllcversion" : "Version: 0.4.18-develop.2017.9.25+commit.a72237f2.Linux.g++",
            "source" : "src/BlockchainTestsFiller/GeneralStateTests/stReturnDataTest/returndatacopy_following_failing_call_d0g0v0Filler.json",
            "sourceHash" : "8aa650d1cdd779889109db47089c19e12bf5070b5b8e76f5cb80c819d91d0fdb"
        },
        "blocks" : [
            {
                "blockHeader" : {
                    "bloom" : "0x00000000000000000000000000000000000000000000000000000000000000000000000000000000000000000000000000000000000000000000000000000000000000000000000000000000000000000000000000000000000000000000000000000000000000000000000000000000000000000000000000000000000000000000000000000000000000000000000000000000000000000000000000000000000000000000000000000000000000000000000000000000000000000000000000000000000000000000000000000000000000000000000000000000000000000000000000000000000000000000000000000000000000000000000000000000",
                    "coinbase" : "0x2adc25665018aa1fe0e6bc666dac8fc2697ff9ba",
                    "difficulty" : "0x020000",
                    "extraData" : "",
                    "gasLimit" : "0x0a00000000",
                    "gasUsed" : "0x0a00000000",
                    "hash" : "0x9609b37541fbe54f927b19c9376f87c0d19c08e22692938a0f70f7367f602382",
                    "mixHash" : "0xde868ad67172ee572a338c570183ae8489eaeaffd8221db957d025e801c263fe",
                    "nonce" : "0x5afb58d9e8bc44bd",
                    "number" : "0x01",
                    "parentHash" : "0xfce3a19c4129332ccd514c37f867e372c46015054f42fa64215b812c6e85ee23",
                    "receiptTrie" : "0x97023e2ac02f924a2f3a30836d7095f4800db721fbfd6c892d215be6e40b7461",
                    "stateRoot" : "0x5a7a1b0f900700da3dcc57257e938471080da541dba776be71dbbfa877a7570f",
                    "timestamp" : "0x03e8",
                    "transactionsTrie" : "0xde317ba0085ad3bc6f64da920500c40ceb94789c007f8c54b3e766eae29616ab",
                    "uncleHash" : "0x1dcc4de8dec75d7aab85b567b6ccd41ad312451b948a7413f0a142fd40d49347"
                },
                "rlp" : "0xf90266f901fca0fce3a19c4129332ccd514c37f867e372c46015054f42fa64215b812c6e85ee23a01dcc4de8dec75d7aab85b567b6ccd41ad312451b948a7413f0a142fd40d49347942adc25665018aa1fe0e6bc666dac8fc2697ff9baa05a7a1b0f900700da3dcc57257e938471080da541dba776be71dbbfa877a7570fa0de317ba0085ad3bc6f64da920500c40ceb94789c007f8c54b3e766eae29616aba097023e2ac02f924a2f3a30836d7095f4800db721fbfd6c892d215be6e40b7461b90100000000000000000000000000000000000000000000000000000000000000000000000000000000000000000000000000000000000000000000000000000000000000000000000000000000000000000000000000000000000000000000000000000000000000000000000000000000000000000000000000000000000000000000000000000000000000000000000000000000000000000000000000000000000000000000000000000000000000000000000000000000000000000000000000000000000000000000000000000000000000000000000000000000000000000000000000000000000000000000000000000000000000000000000000000000008302000001850a00000000850a000000008203e880a0de868ad67172ee572a338c570183ae8489eaeaffd8221db957d025e801c263fe885afb58d9e8bc44bdf864f8628001850a00000000940f572e5295c57f15886f9b263e2f6d2d6c7b5ec680801ba03b6c2d4d0d9d0abf4d624a6f2930e213789e9c00f679a9afa996fb4bd27cb507a024a40d7f4cf44278ac739ecf9eeba61554646709142d968ed1c555be138a3ea2c0",
                "transactions" : [
                    {
                        "data" : "",
                        "gasLimit" : "0x0a00000000",
                        "gasPrice" : "0x01",
                        "nonce" : "0x00",
                        "r" : "0x3b6c2d4d0d9d0abf4d624a6f2930e213789e9c00f679a9afa996fb4bd27cb507",
                        "s" : "0x24a40d7f4cf44278ac739ecf9eeba61554646709142d968ed1c555be138a3ea2",
                        "to" : "0x0f572e5295c57f15886f9b263e2f6d2d6c7b5ec6",
                        "v" : "0x1b",
                        "value" : "0x00"
                    }
                ],
                "uncleHeaders" : [
                ]
            }
        ],
        "genesisBlockHeader" : {
            "bloom" : "0x00000000000000000000000000000000000000000000000000000000000000000000000000000000000000000000000000000000000000000000000000000000000000000000000000000000000000000000000000000000000000000000000000000000000000000000000000000000000000000000000000000000000000000000000000000000000000000000000000000000000000000000000000000000000000000000000000000000000000000000000000000000000000000000000000000000000000000000000000000000000000000000000000000000000000000000000000000000000000000000000000000000000000000000000000000000",
            "coinbase" : "0x2adc25665018aa1fe0e6bc666dac8fc2697ff9ba",
            "difficulty" : "0x020000",
            "extraData" : "0x42",
            "gasLimit" : "0x0a00000000",
            "gasUsed" : "0x00",
            "hash" : "0xfce3a19c4129332ccd514c37f867e372c46015054f42fa64215b812c6e85ee23",
            "mixHash" : "0x56e81f171bcc55a6ff8345e692c0f86e5b48e01b996cadc001622fb5e363b421",
            "nonce" : "0x0102030405060708",
            "number" : "0x00",
            "parentHash" : "0x0000000000000000000000000000000000000000000000000000000000000000",
            "receiptTrie" : "0x56e81f171bcc55a6ff8345e692c0f86e5b48e01b996cadc001622fb5e363b421",
            "stateRoot" : "0xd47c2b8a35a7e8d1177aa60fcd9ea58ea6fd6ac9c08cef18c23d061228c97f6c",
            "timestamp" : "0x03b6",
            "transactionsTrie" : "0x56e81f171bcc55a6ff8345e692c0f86e5b48e01b996cadc001622fb5e363b421",
            "uncleHash" : "0x1dcc4de8dec75d7aab85b567b6ccd41ad312451b948a7413f0a142fd40d49347"
        },
        "genesisRLP" : "0xf901fcf901f7a00000000000000000000000000000000000000000000000000000000000000000a01dcc4de8dec75d7aab85b567b6ccd41ad312451b948a7413f0a142fd40d49347942adc25665018aa1fe0e6bc666dac8fc2697ff9baa0d47c2b8a35a7e8d1177aa60fcd9ea58ea6fd6ac9c08cef18c23d061228c97f6ca056e81f171bcc55a6ff8345e692c0f86e5b48e01b996cadc001622fb5e363b421a056e81f171bcc55a6ff8345e692c0f86e5b48e01b996cadc001622fb5e363b421b90100000000000000000000000000000000000000000000000000000000000000000000000000000000000000000000000000000000000000000000000000000000000000000000000000000000000000000000000000000000000000000000000000000000000000000000000000000000000000000000000000000000000000000000000000000000000000000000000000000000000000000000000000000000000000000000000000000000000000000000000000000000000000000000000000000000000000000000000000000000000000000000000000000000000000000000000000000000000000000000000000000000000000000000000000000000008302000080850a00000000808203b642a056e81f171bcc55a6ff8345e692c0f86e5b48e01b996cadc001622fb5e363b421880102030405060708c0c0",
        "lastblockhash" : "0x9609b37541fbe54f927b19c9376f87c0d19c08e22692938a0f70f7367f602382",
        "network" : "EIP150",
        "postState" : {
            "0x0aabbccdd5c57f15886f9b263e2f6d2d6c7b5ec6" : {
                "balance" : "0x00",
                "code" : "0xfd",
                "nonce" : "0x00",
                "storage" : {
                }
            },
            "0x0f572e5295c57f15886f9b263e2f6d2d6c7b5ec6" : {
                "balance" : "0x00",
                "code" : "0x60006000600060006000730aabbccdd5c57f15886f9b263e2f6d2d6c7b5ec6640900000000f1506020600160003e600051600055",
                "nonce" : "0x00",
                "storage" : {
                    "0x00" : "0x01"
                }
            },
            "0x2adc25665018aa1fe0e6bc666dac8fc2697ff9ba" : {
                "balance" : "0x4563918c44f40000",
                "code" : "",
                "nonce" : "0x00",
                "storage" : {
                }
            },
            "0xa94f5374fce5edbc8e2a8697c15331677e6ebf0b" : {
                "balance" : "0x5a00000000",
                "code" : "",
                "nonce" : "0x01",
                "storage" : {
                }
            }
        },
        "pre" : {
            "0x0aabbccdd5c57f15886f9b263e2f6d2d6c7b5ec6" : {
                "balance" : "0x00",
                "code" : "0xfd",
                "nonce" : "0x00",
                "storage" : {
                }
            },
            "0x0f572e5295c57f15886f9b263e2f6d2d6c7b5ec6" : {
                "balance" : "0x00",
                "code" : "0x60006000600060006000730aabbccdd5c57f15886f9b263e2f6d2d6c7b5ec6640900000000f1506020600160003e600051600055",
                "nonce" : "0x00",
                "storage" : {
                    "0x00" : "0x01"
                }
            },
            "0xa94f5374fce5edbc8e2a8697c15331677e6ebf0b" : {
                "balance" : "0x6400000000",
                "code" : "",
                "nonce" : "0x00",
                "storage" : {
                }
            }
        }
    },
    "returndatacopy_following_failing_call_d0g0v0_EIP158" : {
        "_info" : {
            "comment" : "",
            "filledwith" : "cpp-1.3.0+commit.6e0ce939.Linux.g++",
            "lllcversion" : "Version: 0.4.18-develop.2017.9.25+commit.a72237f2.Linux.g++",
            "source" : "src/BlockchainTestsFiller/GeneralStateTests/stReturnDataTest/returndatacopy_following_failing_call_d0g0v0Filler.json",
            "sourceHash" : "8aa650d1cdd779889109db47089c19e12bf5070b5b8e76f5cb80c819d91d0fdb"
        },
        "blocks" : [
            {
                "blockHeader" : {
                    "bloom" : "0x00000000000000000000000000000000000000000000000000000000000000000000000000000000000000000000000000000000000000000000000000000000000000000000000000000000000000000000000000000000000000000000000000000000000000000000000000000000000000000000000000000000000000000000000000000000000000000000000000000000000000000000000000000000000000000000000000000000000000000000000000000000000000000000000000000000000000000000000000000000000000000000000000000000000000000000000000000000000000000000000000000000000000000000000000000000",
                    "coinbase" : "0x2adc25665018aa1fe0e6bc666dac8fc2697ff9ba",
                    "difficulty" : "0x020000",
                    "extraData" : "",
                    "gasLimit" : "0x0a00000000",
                    "gasUsed" : "0x0a00000000",
                    "hash" : "0xfbdfffcb98b87a7d258b7ab8659efbfbb5ce75f8913280daedc315329643a834",
                    "mixHash" : "0xbd94086b1270699a8785e6b55bb5f105c224387e7dd161a5704bc9e689b93c9c",
                    "nonce" : "0x559da4a48809348c",
                    "number" : "0x01",
                    "parentHash" : "0xfce3a19c4129332ccd514c37f867e372c46015054f42fa64215b812c6e85ee23",
                    "receiptTrie" : "0x97023e2ac02f924a2f3a30836d7095f4800db721fbfd6c892d215be6e40b7461",
                    "stateRoot" : "0x5a7a1b0f900700da3dcc57257e938471080da541dba776be71dbbfa877a7570f",
                    "timestamp" : "0x03e8",
                    "transactionsTrie" : "0xde317ba0085ad3bc6f64da920500c40ceb94789c007f8c54b3e766eae29616ab",
                    "uncleHash" : "0x1dcc4de8dec75d7aab85b567b6ccd41ad312451b948a7413f0a142fd40d49347"
                },
                "rlp" : "0xf90266f901fca0fce3a19c4129332ccd514c37f867e372c46015054f42fa64215b812c6e85ee23a01dcc4de8dec75d7aab85b567b6ccd41ad312451b948a7413f0a142fd40d49347942adc25665018aa1fe0e6bc666dac8fc2697ff9baa05a7a1b0f900700da3dcc57257e938471080da541dba776be71dbbfa877a7570fa0de317ba0085ad3bc6f64da920500c40ceb94789c007f8c54b3e766eae29616aba097023e2ac02f924a2f3a30836d7095f4800db721fbfd6c892d215be6e40b7461b90100000000000000000000000000000000000000000000000000000000000000000000000000000000000000000000000000000000000000000000000000000000000000000000000000000000000000000000000000000000000000000000000000000000000000000000000000000000000000000000000000000000000000000000000000000000000000000000000000000000000000000000000000000000000000000000000000000000000000000000000000000000000000000000000000000000000000000000000000000000000000000000000000000000000000000000000000000000000000000000000000000000000000000000000000000000008302000001850a00000000850a000000008203e880a0bd94086b1270699a8785e6b55bb5f105c224387e7dd161a5704bc9e689b93c9c88559da4a48809348cf864f8628001850a00000000940f572e5295c57f15886f9b263e2f6d2d6c7b5ec680801ba03b6c2d4d0d9d0abf4d624a6f2930e213789e9c00f679a9afa996fb4bd27cb507a024a40d7f4cf44278ac739ecf9eeba61554646709142d968ed1c555be138a3ea2c0",
                "transactions" : [
                    {
                        "data" : "",
                        "gasLimit" : "0x0a00000000",
                        "gasPrice" : "0x01",
                        "nonce" : "0x00",
                        "r" : "0x3b6c2d4d0d9d0abf4d624a6f2930e213789e9c00f679a9afa996fb4bd27cb507",
                        "s" : "0x24a40d7f4cf44278ac739ecf9eeba61554646709142d968ed1c555be138a3ea2",
                        "to" : "0x0f572e5295c57f15886f9b263e2f6d2d6c7b5ec6",
                        "v" : "0x1b",
                        "value" : "0x00"
                    }
                ],
                "uncleHeaders" : [
                ]
            }
        ],
        "genesisBlockHeader" : {
            "bloom" : "0x00000000000000000000000000000000000000000000000000000000000000000000000000000000000000000000000000000000000000000000000000000000000000000000000000000000000000000000000000000000000000000000000000000000000000000000000000000000000000000000000000000000000000000000000000000000000000000000000000000000000000000000000000000000000000000000000000000000000000000000000000000000000000000000000000000000000000000000000000000000000000000000000000000000000000000000000000000000000000000000000000000000000000000000000000000000",
            "coinbase" : "0x2adc25665018aa1fe0e6bc666dac8fc2697ff9ba",
            "difficulty" : "0x020000",
            "extraData" : "0x42",
            "gasLimit" : "0x0a00000000",
            "gasUsed" : "0x00",
            "hash" : "0xfce3a19c4129332ccd514c37f867e372c46015054f42fa64215b812c6e85ee23",
            "mixHash" : "0x56e81f171bcc55a6ff8345e692c0f86e5b48e01b996cadc001622fb5e363b421",
            "nonce" : "0x0102030405060708",
            "number" : "0x00",
            "parentHash" : "0x0000000000000000000000000000000000000000000000000000000000000000",
            "receiptTrie" : "0x56e81f171bcc55a6ff8345e692c0f86e5b48e01b996cadc001622fb5e363b421",
            "stateRoot" : "0xd47c2b8a35a7e8d1177aa60fcd9ea58ea6fd6ac9c08cef18c23d061228c97f6c",
            "timestamp" : "0x03b6",
            "transactionsTrie" : "0x56e81f171bcc55a6ff8345e692c0f86e5b48e01b996cadc001622fb5e363b421",
            "uncleHash" : "0x1dcc4de8dec75d7aab85b567b6ccd41ad312451b948a7413f0a142fd40d49347"
        },
        "genesisRLP" : "0xf901fcf901f7a00000000000000000000000000000000000000000000000000000000000000000a01dcc4de8dec75d7aab85b567b6ccd41ad312451b948a7413f0a142fd40d49347942adc25665018aa1fe0e6bc666dac8fc2697ff9baa0d47c2b8a35a7e8d1177aa60fcd9ea58ea6fd6ac9c08cef18c23d061228c97f6ca056e81f171bcc55a6ff8345e692c0f86e5b48e01b996cadc001622fb5e363b421a056e81f171bcc55a6ff8345e692c0f86e5b48e01b996cadc001622fb5e363b421b90100000000000000000000000000000000000000000000000000000000000000000000000000000000000000000000000000000000000000000000000000000000000000000000000000000000000000000000000000000000000000000000000000000000000000000000000000000000000000000000000000000000000000000000000000000000000000000000000000000000000000000000000000000000000000000000000000000000000000000000000000000000000000000000000000000000000000000000000000000000000000000000000000000000000000000000000000000000000000000000000000000000000000000000000000000000008302000080850a00000000808203b642a056e81f171bcc55a6ff8345e692c0f86e5b48e01b996cadc001622fb5e363b421880102030405060708c0c0",
        "lastblockhash" : "0xfbdfffcb98b87a7d258b7ab8659efbfbb5ce75f8913280daedc315329643a834",
        "network" : "EIP158",
        "postState" : {
            "0x0aabbccdd5c57f15886f9b263e2f6d2d6c7b5ec6" : {
                "balance" : "0x00",
                "code" : "0xfd",
                "nonce" : "0x00",
                "storage" : {
                }
            },
            "0x0f572e5295c57f15886f9b263e2f6d2d6c7b5ec6" : {
                "balance" : "0x00",
                "code" : "0x60006000600060006000730aabbccdd5c57f15886f9b263e2f6d2d6c7b5ec6640900000000f1506020600160003e600051600055",
                "nonce" : "0x00",
                "storage" : {
                    "0x00" : "0x01"
                }
            },
            "0x2adc25665018aa1fe0e6bc666dac8fc2697ff9ba" : {
                "balance" : "0x4563918c44f40000",
                "code" : "",
                "nonce" : "0x00",
                "storage" : {
                }
            },
            "0xa94f5374fce5edbc8e2a8697c15331677e6ebf0b" : {
                "balance" : "0x5a00000000",
                "code" : "",
                "nonce" : "0x01",
                "storage" : {
                }
            }
        },
        "pre" : {
            "0x0aabbccdd5c57f15886f9b263e2f6d2d6c7b5ec6" : {
                "balance" : "0x00",
                "code" : "0xfd",
                "nonce" : "0x00",
                "storage" : {
                }
            },
            "0x0f572e5295c57f15886f9b263e2f6d2d6c7b5ec6" : {
                "balance" : "0x00",
                "code" : "0x60006000600060006000730aabbccdd5c57f15886f9b263e2f6d2d6c7b5ec6640900000000f1506020600160003e600051600055",
                "nonce" : "0x00",
                "storage" : {
                    "0x00" : "0x01"
                }
            },
            "0xa94f5374fce5edbc8e2a8697c15331677e6ebf0b" : {
                "balance" : "0x6400000000",
                "code" : "",
                "nonce" : "0x00",
                "storage" : {
                }
            }
        }
    },
    "returndatacopy_following_failing_call_d0g0v0_Frontier" : {
        "_info" : {
            "comment" : "",
            "filledwith" : "cpp-1.3.0+commit.6e0ce939.Linux.g++",
            "lllcversion" : "Version: 0.4.18-develop.2017.9.25+commit.a72237f2.Linux.g++",
            "source" : "src/BlockchainTestsFiller/GeneralStateTests/stReturnDataTest/returndatacopy_following_failing_call_d0g0v0Filler.json",
            "sourceHash" : "8aa650d1cdd779889109db47089c19e12bf5070b5b8e76f5cb80c819d91d0fdb"
        },
        "blocks" : [
            {
                "blockHeader" : {
                    "bloom" : "0x00000000000000000000000000000000000000000000000000000000000000000000000000000000000000000000000000000000000000000000000000000000000000000000000000000000000000000000000000000000000000000000000000000000000000000000000000000000000000000000000000000000000000000000000000000000000000000000000000000000000000000000000000000000000000000000000000000000000000000000000000000000000000000000000000000000000000000000000000000000000000000000000000000000000000000000000000000000000000000000000000000000000000000000000000000000",
                    "coinbase" : "0x2adc25665018aa1fe0e6bc666dac8fc2697ff9ba",
                    "difficulty" : "0x020000",
                    "extraData" : "",
                    "gasLimit" : "0x0a00000000",
                    "gasUsed" : "0x0a00000000",
                    "hash" : "0xd2fbb98a35b4752ca3e1cd460b3b445501fc066c748756cf10627b85b7a4ec00",
                    "mixHash" : "0x8fa9c631e4a5dd6bf9a864dc744742f645359abba394971bf56b07fd436d6e42",
                    "nonce" : "0x37a751072d96b35f",
                    "number" : "0x01",
                    "parentHash" : "0xfce3a19c4129332ccd514c37f867e372c46015054f42fa64215b812c6e85ee23",
                    "receiptTrie" : "0x97023e2ac02f924a2f3a30836d7095f4800db721fbfd6c892d215be6e40b7461",
                    "stateRoot" : "0x5a7a1b0f900700da3dcc57257e938471080da541dba776be71dbbfa877a7570f",
                    "timestamp" : "0x03e8",
                    "transactionsTrie" : "0xde317ba0085ad3bc6f64da920500c40ceb94789c007f8c54b3e766eae29616ab",
                    "uncleHash" : "0x1dcc4de8dec75d7aab85b567b6ccd41ad312451b948a7413f0a142fd40d49347"
                },
                "rlp" : "0xf90266f901fca0fce3a19c4129332ccd514c37f867e372c46015054f42fa64215b812c6e85ee23a01dcc4de8dec75d7aab85b567b6ccd41ad312451b948a7413f0a142fd40d49347942adc25665018aa1fe0e6bc666dac8fc2697ff9baa05a7a1b0f900700da3dcc57257e938471080da541dba776be71dbbfa877a7570fa0de317ba0085ad3bc6f64da920500c40ceb94789c007f8c54b3e766eae29616aba097023e2ac02f924a2f3a30836d7095f4800db721fbfd6c892d215be6e40b7461b90100000000000000000000000000000000000000000000000000000000000000000000000000000000000000000000000000000000000000000000000000000000000000000000000000000000000000000000000000000000000000000000000000000000000000000000000000000000000000000000000000000000000000000000000000000000000000000000000000000000000000000000000000000000000000000000000000000000000000000000000000000000000000000000000000000000000000000000000000000000000000000000000000000000000000000000000000000000000000000000000000000000000000000000000000000000008302000001850a00000000850a000000008203e880a08fa9c631e4a5dd6bf9a864dc744742f645359abba394971bf56b07fd436d6e428837a751072d96b35ff864f8628001850a00000000940f572e5295c57f15886f9b263e2f6d2d6c7b5ec680801ba03b6c2d4d0d9d0abf4d624a6f2930e213789e9c00f679a9afa996fb4bd27cb507a024a40d7f4cf44278ac739ecf9eeba61554646709142d968ed1c555be138a3ea2c0",
                "transactions" : [
                    {
                        "data" : "",
                        "gasLimit" : "0x0a00000000",
                        "gasPrice" : "0x01",
                        "nonce" : "0x00",
                        "r" : "0x3b6c2d4d0d9d0abf4d624a6f2930e213789e9c00f679a9afa996fb4bd27cb507",
                        "s" : "0x24a40d7f4cf44278ac739ecf9eeba61554646709142d968ed1c555be138a3ea2",
                        "to" : "0x0f572e5295c57f15886f9b263e2f6d2d6c7b5ec6",
                        "v" : "0x1b",
                        "value" : "0x00"
                    }
                ],
                "uncleHeaders" : [
                ]
            }
        ],
        "genesisBlockHeader" : {
            "bloom" : "0x00000000000000000000000000000000000000000000000000000000000000000000000000000000000000000000000000000000000000000000000000000000000000000000000000000000000000000000000000000000000000000000000000000000000000000000000000000000000000000000000000000000000000000000000000000000000000000000000000000000000000000000000000000000000000000000000000000000000000000000000000000000000000000000000000000000000000000000000000000000000000000000000000000000000000000000000000000000000000000000000000000000000000000000000000000000",
            "coinbase" : "0x2adc25665018aa1fe0e6bc666dac8fc2697ff9ba",
            "difficulty" : "0x020000",
            "extraData" : "0x42",
            "gasLimit" : "0x0a00000000",
            "gasUsed" : "0x00",
            "hash" : "0xfce3a19c4129332ccd514c37f867e372c46015054f42fa64215b812c6e85ee23",
            "mixHash" : "0x56e81f171bcc55a6ff8345e692c0f86e5b48e01b996cadc001622fb5e363b421",
            "nonce" : "0x0102030405060708",
            "number" : "0x00",
            "parentHash" : "0x0000000000000000000000000000000000000000000000000000000000000000",
            "receiptTrie" : "0x56e81f171bcc55a6ff8345e692c0f86e5b48e01b996cadc001622fb5e363b421",
            "stateRoot" : "0xd47c2b8a35a7e8d1177aa60fcd9ea58ea6fd6ac9c08cef18c23d061228c97f6c",
            "timestamp" : "0x03b6",
            "transactionsTrie" : "0x56e81f171bcc55a6ff8345e692c0f86e5b48e01b996cadc001622fb5e363b421",
            "uncleHash" : "0x1dcc4de8dec75d7aab85b567b6ccd41ad312451b948a7413f0a142fd40d49347"
        },
        "genesisRLP" : "0xf901fcf901f7a00000000000000000000000000000000000000000000000000000000000000000a01dcc4de8dec75d7aab85b567b6ccd41ad312451b948a7413f0a142fd40d49347942adc25665018aa1fe0e6bc666dac8fc2697ff9baa0d47c2b8a35a7e8d1177aa60fcd9ea58ea6fd6ac9c08cef18c23d061228c97f6ca056e81f171bcc55a6ff8345e692c0f86e5b48e01b996cadc001622fb5e363b421a056e81f171bcc55a6ff8345e692c0f86e5b48e01b996cadc001622fb5e363b421b90100000000000000000000000000000000000000000000000000000000000000000000000000000000000000000000000000000000000000000000000000000000000000000000000000000000000000000000000000000000000000000000000000000000000000000000000000000000000000000000000000000000000000000000000000000000000000000000000000000000000000000000000000000000000000000000000000000000000000000000000000000000000000000000000000000000000000000000000000000000000000000000000000000000000000000000000000000000000000000000000000000000000000000000000000000000008302000080850a00000000808203b642a056e81f171bcc55a6ff8345e692c0f86e5b48e01b996cadc001622fb5e363b421880102030405060708c0c0",
        "lastblockhash" : "0xd2fbb98a35b4752ca3e1cd460b3b445501fc066c748756cf10627b85b7a4ec00",
        "network" : "Frontier",
        "postState" : {
            "0x0aabbccdd5c57f15886f9b263e2f6d2d6c7b5ec6" : {
                "balance" : "0x00",
                "code" : "0xfd",
                "nonce" : "0x00",
                "storage" : {
                }
            },
            "0x0f572e5295c57f15886f9b263e2f6d2d6c7b5ec6" : {
                "balance" : "0x00",
                "code" : "0x60006000600060006000730aabbccdd5c57f15886f9b263e2f6d2d6c7b5ec6640900000000f1506020600160003e600051600055",
                "nonce" : "0x00",
                "storage" : {
                    "0x00" : "0x01"
                }
            },
            "0x2adc25665018aa1fe0e6bc666dac8fc2697ff9ba" : {
                "balance" : "0x4563918c44f40000",
                "code" : "",
                "nonce" : "0x00",
                "storage" : {
                }
            },
            "0xa94f5374fce5edbc8e2a8697c15331677e6ebf0b" : {
                "balance" : "0x5a00000000",
                "code" : "",
                "nonce" : "0x01",
                "storage" : {
                }
            }
        },
        "pre" : {
            "0x0aabbccdd5c57f15886f9b263e2f6d2d6c7b5ec6" : {
                "balance" : "0x00",
                "code" : "0xfd",
                "nonce" : "0x00",
                "storage" : {
                }
            },
            "0x0f572e5295c57f15886f9b263e2f6d2d6c7b5ec6" : {
                "balance" : "0x00",
                "code" : "0x60006000600060006000730aabbccdd5c57f15886f9b263e2f6d2d6c7b5ec6640900000000f1506020600160003e600051600055",
                "nonce" : "0x00",
                "storage" : {
                    "0x00" : "0x01"
                }
            },
            "0xa94f5374fce5edbc8e2a8697c15331677e6ebf0b" : {
                "balance" : "0x6400000000",
                "code" : "",
                "nonce" : "0x00",
                "storage" : {
                }
            }
        }
    },
    "returndatacopy_following_failing_call_d0g0v0_Homestead" : {
        "_info" : {
            "comment" : "",
            "filledwith" : "cpp-1.3.0+commit.6e0ce939.Linux.g++",
            "lllcversion" : "Version: 0.4.18-develop.2017.9.25+commit.a72237f2.Linux.g++",
            "source" : "src/BlockchainTestsFiller/GeneralStateTests/stReturnDataTest/returndatacopy_following_failing_call_d0g0v0Filler.json",
            "sourceHash" : "8aa650d1cdd779889109db47089c19e12bf5070b5b8e76f5cb80c819d91d0fdb"
        },
        "blocks" : [
            {
                "blockHeader" : {
                    "bloom" : "0x00000000000000000000000000000000000000000000000000000000000000000000000000000000000000000000000000000000000000000000000000000000000000000000000000000000000000000000000000000000000000000000000000000000000000000000000000000000000000000000000000000000000000000000000000000000000000000000000000000000000000000000000000000000000000000000000000000000000000000000000000000000000000000000000000000000000000000000000000000000000000000000000000000000000000000000000000000000000000000000000000000000000000000000000000000000",
                    "coinbase" : "0x2adc25665018aa1fe0e6bc666dac8fc2697ff9ba",
                    "difficulty" : "0x020000",
                    "extraData" : "",
                    "gasLimit" : "0x0a00000000",
                    "gasUsed" : "0x0a00000000",
                    "hash" : "0x04d0d1c884e1cca738f0ab8d47a80b39dc23efc27db719f58dd05df7ee872b5c",
                    "mixHash" : "0x4b0b88915a167ca38cdbf7213044a8838c38e3ecdf599baa3d18bca1d363f75c",
                    "nonce" : "0x7b632c91a8be527e",
                    "number" : "0x01",
                    "parentHash" : "0xfce3a19c4129332ccd514c37f867e372c46015054f42fa64215b812c6e85ee23",
                    "receiptTrie" : "0x97023e2ac02f924a2f3a30836d7095f4800db721fbfd6c892d215be6e40b7461",
                    "stateRoot" : "0x5a7a1b0f900700da3dcc57257e938471080da541dba776be71dbbfa877a7570f",
                    "timestamp" : "0x03e8",
                    "transactionsTrie" : "0xde317ba0085ad3bc6f64da920500c40ceb94789c007f8c54b3e766eae29616ab",
                    "uncleHash" : "0x1dcc4de8dec75d7aab85b567b6ccd41ad312451b948a7413f0a142fd40d49347"
                },
                "rlp" : "0xf90266f901fca0fce3a19c4129332ccd514c37f867e372c46015054f42fa64215b812c6e85ee23a01dcc4de8dec75d7aab85b567b6ccd41ad312451b948a7413f0a142fd40d49347942adc25665018aa1fe0e6bc666dac8fc2697ff9baa05a7a1b0f900700da3dcc57257e938471080da541dba776be71dbbfa877a7570fa0de317ba0085ad3bc6f64da920500c40ceb94789c007f8c54b3e766eae29616aba097023e2ac02f924a2f3a30836d7095f4800db721fbfd6c892d215be6e40b7461b90100000000000000000000000000000000000000000000000000000000000000000000000000000000000000000000000000000000000000000000000000000000000000000000000000000000000000000000000000000000000000000000000000000000000000000000000000000000000000000000000000000000000000000000000000000000000000000000000000000000000000000000000000000000000000000000000000000000000000000000000000000000000000000000000000000000000000000000000000000000000000000000000000000000000000000000000000000000000000000000000000000000000000000000000000000000008302000001850a00000000850a000000008203e880a04b0b88915a167ca38cdbf7213044a8838c38e3ecdf599baa3d18bca1d363f75c887b632c91a8be527ef864f8628001850a00000000940f572e5295c57f15886f9b263e2f6d2d6c7b5ec680801ba03b6c2d4d0d9d0abf4d624a6f2930e213789e9c00f679a9afa996fb4bd27cb507a024a40d7f4cf44278ac739ecf9eeba61554646709142d968ed1c555be138a3ea2c0",
                "transactions" : [
                    {
                        "data" : "",
                        "gasLimit" : "0x0a00000000",
                        "gasPrice" : "0x01",
                        "nonce" : "0x00",
                        "r" : "0x3b6c2d4d0d9d0abf4d624a6f2930e213789e9c00f679a9afa996fb4bd27cb507",
                        "s" : "0x24a40d7f4cf44278ac739ecf9eeba61554646709142d968ed1c555be138a3ea2",
                        "to" : "0x0f572e5295c57f15886f9b263e2f6d2d6c7b5ec6",
                        "v" : "0x1b",
                        "value" : "0x00"
                    }
                ],
                "uncleHeaders" : [
                ]
            }
        ],
        "genesisBlockHeader" : {
            "bloom" : "0x00000000000000000000000000000000000000000000000000000000000000000000000000000000000000000000000000000000000000000000000000000000000000000000000000000000000000000000000000000000000000000000000000000000000000000000000000000000000000000000000000000000000000000000000000000000000000000000000000000000000000000000000000000000000000000000000000000000000000000000000000000000000000000000000000000000000000000000000000000000000000000000000000000000000000000000000000000000000000000000000000000000000000000000000000000000",
            "coinbase" : "0x2adc25665018aa1fe0e6bc666dac8fc2697ff9ba",
            "difficulty" : "0x020000",
            "extraData" : "0x42",
            "gasLimit" : "0x0a00000000",
            "gasUsed" : "0x00",
            "hash" : "0xfce3a19c4129332ccd514c37f867e372c46015054f42fa64215b812c6e85ee23",
            "mixHash" : "0x56e81f171bcc55a6ff8345e692c0f86e5b48e01b996cadc001622fb5e363b421",
            "nonce" : "0x0102030405060708",
            "number" : "0x00",
            "parentHash" : "0x0000000000000000000000000000000000000000000000000000000000000000",
            "receiptTrie" : "0x56e81f171bcc55a6ff8345e692c0f86e5b48e01b996cadc001622fb5e363b421",
            "stateRoot" : "0xd47c2b8a35a7e8d1177aa60fcd9ea58ea6fd6ac9c08cef18c23d061228c97f6c",
            "timestamp" : "0x03b6",
            "transactionsTrie" : "0x56e81f171bcc55a6ff8345e692c0f86e5b48e01b996cadc001622fb5e363b421",
            "uncleHash" : "0x1dcc4de8dec75d7aab85b567b6ccd41ad312451b948a7413f0a142fd40d49347"
        },
        "genesisRLP" : "0xf901fcf901f7a00000000000000000000000000000000000000000000000000000000000000000a01dcc4de8dec75d7aab85b567b6ccd41ad312451b948a7413f0a142fd40d49347942adc25665018aa1fe0e6bc666dac8fc2697ff9baa0d47c2b8a35a7e8d1177aa60fcd9ea58ea6fd6ac9c08cef18c23d061228c97f6ca056e81f171bcc55a6ff8345e692c0f86e5b48e01b996cadc001622fb5e363b421a056e81f171bcc55a6ff8345e692c0f86e5b48e01b996cadc001622fb5e363b421b90100000000000000000000000000000000000000000000000000000000000000000000000000000000000000000000000000000000000000000000000000000000000000000000000000000000000000000000000000000000000000000000000000000000000000000000000000000000000000000000000000000000000000000000000000000000000000000000000000000000000000000000000000000000000000000000000000000000000000000000000000000000000000000000000000000000000000000000000000000000000000000000000000000000000000000000000000000000000000000000000000000000000000000000000000000000008302000080850a00000000808203b642a056e81f171bcc55a6ff8345e692c0f86e5b48e01b996cadc001622fb5e363b421880102030405060708c0c0",
        "lastblockhash" : "0x04d0d1c884e1cca738f0ab8d47a80b39dc23efc27db719f58dd05df7ee872b5c",
        "network" : "Homestead",
        "postState" : {
            "0x0aabbccdd5c57f15886f9b263e2f6d2d6c7b5ec6" : {
                "balance" : "0x00",
                "code" : "0xfd",
                "nonce" : "0x00",
                "storage" : {
                }
            },
            "0x0f572e5295c57f15886f9b263e2f6d2d6c7b5ec6" : {
                "balance" : "0x00",
                "code" : "0x60006000600060006000730aabbccdd5c57f15886f9b263e2f6d2d6c7b5ec6640900000000f1506020600160003e600051600055",
                "nonce" : "0x00",
                "storage" : {
                    "0x00" : "0x01"
                }
            },
            "0x2adc25665018aa1fe0e6bc666dac8fc2697ff9ba" : {
                "balance" : "0x4563918c44f40000",
                "code" : "",
                "nonce" : "0x00",
                "storage" : {
                }
            },
            "0xa94f5374fce5edbc8e2a8697c15331677e6ebf0b" : {
                "balance" : "0x5a00000000",
                "code" : "",
                "nonce" : "0x01",
                "storage" : {
                }
            }
        },
        "pre" : {
            "0x0aabbccdd5c57f15886f9b263e2f6d2d6c7b5ec6" : {
                "balance" : "0x00",
                "code" : "0xfd",
                "nonce" : "0x00",
                "storage" : {
                }
            },
            "0x0f572e5295c57f15886f9b263e2f6d2d6c7b5ec6" : {
                "balance" : "0x00",
                "code" : "0x60006000600060006000730aabbccdd5c57f15886f9b263e2f6d2d6c7b5ec6640900000000f1506020600160003e600051600055",
                "nonce" : "0x00",
                "storage" : {
                    "0x00" : "0x01"
                }
            },
            "0xa94f5374fce5edbc8e2a8697c15331677e6ebf0b" : {
                "balance" : "0x6400000000",
                "code" : "",
                "nonce" : "0x00",
                "storage" : {
                }
            }
        }
    }
}