{
    "returndatacopy_after_failing_staticcall_d0g0v0_Byzantium" : {
        "_info" : {
            "comment" : "",
            "filledwith" : "cpp-1.3.0+commit.6e0ce939.Linux.g++",
            "lllcversion" : "Version: 0.4.18-develop.2017.9.25+commit.a72237f2.Linux.g++",
            "source" : "src/BlockchainTestsFiller/GeneralStateTests/stReturnDataTest/returndatacopy_after_failing_staticcall_d0g0v0Filler.json",
            "sourceHash" : "a3208955c911af799e1c1d9ab8b688386e369f9c1829347194b27cfe075c1936"
        },
        "blocks" : [
            {
                "blockHeader" : {
                    "bloom" : "0x00000000000000000000000000000000000000000000000000000000000000000000000000000000000000000000000000000000000000000000000000000000000000000000000000000000000000000000000000000000000000000000000000000000000000000000000000000000000000000000000000000000000000000000000000000000000000000000000000000000000000000000000000000000000000000000000000000000000000000000000000000000000000000000000000000000000000000000000000000000000000000000000000000000000000000000000000000000000000000000000000000000000000000000000000000000",
                    "coinbase" : "0x2adc25665018aa1fe0e6bc666dac8fc2697ff9ba",
                    "difficulty" : "0x020000",
                    "extraData" : "",
                    "gasLimit" : "0x0a00000000",
                    "gasUsed" : "0x0a00000000",
                    "hash" : "0x8dc1ec839a547e7f28cb8951bed257b23573470c01c459fd54fe147a68a316cb",
                    "mixHash" : "0x3db30453c75ac0beb67fb43b24e9f87da927f71d32bcb138063091ff3af411aa",
                    "nonce" : "0x470721a2cafc78f6",
                    "number" : "0x01",
                    "parentHash" : "0xb6ee36ad34351a8ea051af6a517d3e4ea2eb96d084f066ca78b9c579dc50beb9",
                    "receiptTrie" : "0x97fe59b8004de685658f61c2939be1892eb8593c1ce622c392dd985946712e06",
                    "stateRoot" : "0x2ef6f95a1897985720cc8d2de5828552207011416cb77e9848da0387d9494c40",
                    "timestamp" : "0x03e8",
                    "transactionsTrie" : "0x942a5626ebc24a913758d77ab9d72c3563724d8a433d611b1bf05ca4a3cf5c3b",
                    "uncleHash" : "0x1dcc4de8dec75d7aab85b567b6ccd41ad312451b948a7413f0a142fd40d49347"
                },
                "rlp" : "0xf90266f901fca0b6ee36ad34351a8ea051af6a517d3e4ea2eb96d084f066ca78b9c579dc50beb9a01dcc4de8dec75d7aab85b567b6ccd41ad312451b948a7413f0a142fd40d49347942adc25665018aa1fe0e6bc666dac8fc2697ff9baa02ef6f95a1897985720cc8d2de5828552207011416cb77e9848da0387d9494c40a0942a5626ebc24a913758d77ab9d72c3563724d8a433d611b1bf05ca4a3cf5c3ba097fe59b8004de685658f61c2939be1892eb8593c1ce622c392dd985946712e06b90100000000000000000000000000000000000000000000000000000000000000000000000000000000000000000000000000000000000000000000000000000000000000000000000000000000000000000000000000000000000000000000000000000000000000000000000000000000000000000000000000000000000000000000000000000000000000000000000000000000000000000000000000000000000000000000000000000000000000000000000000000000000000000000000000000000000000000000000000000000000000000000000000000000000000000000000000000000000000000000000000000000000000000000000000000000008302000001850a00000000850a000000008203e880a03db30453c75ac0beb67fb43b24e9f87da927f71d32bcb138063091ff3af411aa88470721a2cafc78f6f864f8628001850a0000000094100000000000000000000000000000000000000180801ba0d645bcff7a04b34bc1f20889cffafd8bf9764818e4eff2556c4513c3e6aa4426a0758a2988d8cdfe9eebdf3e6d1d2c63bd9718c956af62e21af76f52e047ace5e8c0",
                "transactions" : [
                    {
                        "data" : "",
                        "gasLimit" : "0x0a00000000",
                        "gasPrice" : "0x01",
                        "nonce" : "0x00",
                        "r" : "0xd645bcff7a04b34bc1f20889cffafd8bf9764818e4eff2556c4513c3e6aa4426",
                        "s" : "0x758a2988d8cdfe9eebdf3e6d1d2c63bd9718c956af62e21af76f52e047ace5e8",
                        "to" : "0x1000000000000000000000000000000000000001",
                        "v" : "0x1b",
                        "value" : "0x00"
                    }
                ],
                "uncleHeaders" : [
                ]
            }
        ],
        "genesisBlockHeader" : {
            "bloom" : "0x00000000000000000000000000000000000000000000000000000000000000000000000000000000000000000000000000000000000000000000000000000000000000000000000000000000000000000000000000000000000000000000000000000000000000000000000000000000000000000000000000000000000000000000000000000000000000000000000000000000000000000000000000000000000000000000000000000000000000000000000000000000000000000000000000000000000000000000000000000000000000000000000000000000000000000000000000000000000000000000000000000000000000000000000000000000",
            "coinbase" : "0x2adc25665018aa1fe0e6bc666dac8fc2697ff9ba",
            "difficulty" : "0x020000",
            "extraData" : "0x42",
            "gasLimit" : "0x0a00000000",
            "gasUsed" : "0x00",
            "hash" : "0xb6ee36ad34351a8ea051af6a517d3e4ea2eb96d084f066ca78b9c579dc50beb9",
            "mixHash" : "0x56e81f171bcc55a6ff8345e692c0f86e5b48e01b996cadc001622fb5e363b421",
            "nonce" : "0x0102030405060708",
            "number" : "0x00",
            "parentHash" : "0x0000000000000000000000000000000000000000000000000000000000000000",
            "receiptTrie" : "0x56e81f171bcc55a6ff8345e692c0f86e5b48e01b996cadc001622fb5e363b421",
            "stateRoot" : "0x65ada48ff3804e42fd9ae55f223ac4e873a0be20369a4e2356af3e30efe1a53a",
            "timestamp" : "0x03b6",
            "transactionsTrie" : "0x56e81f171bcc55a6ff8345e692c0f86e5b48e01b996cadc001622fb5e363b421",
            "uncleHash" : "0x1dcc4de8dec75d7aab85b567b6ccd41ad312451b948a7413f0a142fd40d49347"
        },
        "genesisRLP" : "0xf901fcf901f7a00000000000000000000000000000000000000000000000000000000000000000a01dcc4de8dec75d7aab85b567b6ccd41ad312451b948a7413f0a142fd40d49347942adc25665018aa1fe0e6bc666dac8fc2697ff9baa065ada48ff3804e42fd9ae55f223ac4e873a0be20369a4e2356af3e30efe1a53aa056e81f171bcc55a6ff8345e692c0f86e5b48e01b996cadc001622fb5e363b421a056e81f171bcc55a6ff8345e692c0f86e5b48e01b996cadc001622fb5e363b421b90100000000000000000000000000000000000000000000000000000000000000000000000000000000000000000000000000000000000000000000000000000000000000000000000000000000000000000000000000000000000000000000000000000000000000000000000000000000000000000000000000000000000000000000000000000000000000000000000000000000000000000000000000000000000000000000000000000000000000000000000000000000000000000000000000000000000000000000000000000000000000000000000000000000000000000000000000000000000000000000000000000000000000000000000000000000008302000080850a00000000808203b642a056e81f171bcc55a6ff8345e692c0f86e5b48e01b996cadc001622fb5e363b421880102030405060708c0c0",
        "lastblockhash" : "0x8dc1ec839a547e7f28cb8951bed257b23573470c01c459fd54fe147a68a316cb",
        "network" : "Byzantium",
        "postState" : {
            "0x0f572e5295c57f15886f9b263e2f6d2d6c7b5ec6" : {
                "balance" : "0x100000",
                "code" : "",
                "nonce" : "0x00",
                "storage" : {
                }
            },
            "0x1000000000000000000000000000000000000001" : {
                "balance" : "0x00",
                "code" : "0x600060006000600073a94f5374fce5edbc8e2a8697c15331677e6ebf0b6000fa506020600060003e600051600055",
                "nonce" : "0x00",
                "storage" : {
                    "0x00" : "0xffffffffffffffffffffffffffffffffffffffffffffffffffffffffffffffff"
                }
            },
            "0x2adc25665018aa1fe0e6bc666dac8fc2697ff9ba" : {
                "balance" : "0x29a22424f62c0000",
                "code" : "",
                "nonce" : "0x00",
                "storage" : {
                }
            },
            "0xa94f5374fce5edbc8e2a8697c15331677e6ebf0b" : {
                "balance" : "0x5a00000000",
                "code" : "0x3360005260206000f3",
                "nonce" : "0x01",
                "storage" : {
                }
            }
        },
        "pre" : {
            "0x0f572e5295c57f15886f9b263e2f6d2d6c7b5ec6" : {
                "balance" : "0x100000",
                "code" : "",
                "nonce" : "0x00",
                "storage" : {
                }
            },
            "0x1000000000000000000000000000000000000001" : {
                "balance" : "0x00",
                "code" : "0x600060006000600073a94f5374fce5edbc8e2a8697c15331677e6ebf0b6000fa506020600060003e600051600055",
                "nonce" : "0x00",
                "storage" : {
                    "0x00" : "0xffffffffffffffffffffffffffffffffffffffffffffffffffffffffffffffff"
                }
            },
            "0xa94f5374fce5edbc8e2a8697c15331677e6ebf0b" : {
                "balance" : "0x6400000000",
                "code" : "0x3360005260206000f3",
                "nonce" : "0x00",
                "storage" : {
                }
            }
        }
    },
    "returndatacopy_after_failing_staticcall_d0g0v0_EIP150" : {
        "_info" : {
            "comment" : "",
            "filledwith" : "cpp-1.3.0+commit.6e0ce939.Linux.g++",
            "lllcversion" : "Version: 0.4.18-develop.2017.9.25+commit.a72237f2.Linux.g++",
            "source" : "src/BlockchainTestsFiller/GeneralStateTests/stReturnDataTest/returndatacopy_after_failing_staticcall_d0g0v0Filler.json",
            "sourceHash" : "a3208955c911af799e1c1d9ab8b688386e369f9c1829347194b27cfe075c1936"
        },
        "blocks" : [
            {
                "blockHeader" : {
                    "bloom" : "0x00000000000000000000000000000000000000000000000000000000000000000000000000000000000000000000000000000000000000000000000000000000000000000000000000000000000000000000000000000000000000000000000000000000000000000000000000000000000000000000000000000000000000000000000000000000000000000000000000000000000000000000000000000000000000000000000000000000000000000000000000000000000000000000000000000000000000000000000000000000000000000000000000000000000000000000000000000000000000000000000000000000000000000000000000000000",
                    "coinbase" : "0x2adc25665018aa1fe0e6bc666dac8fc2697ff9ba",
                    "difficulty" : "0x020000",
                    "extraData" : "",
                    "gasLimit" : "0x0a00000000",
                    "gasUsed" : "0x0a00000000",
                    "hash" : "0x2c5a0f1855664e7c932ecec754de8955267f2826afe5f55cde0c392ae71c2f0d",
                    "mixHash" : "0x2005aade8dbeb2b8f2cd7bc8c9fbd01b3cd1ef90bffadbe0eaa6ecabbf8cca53",
                    "nonce" : "0xa6a5b1d7fb6b4881",
                    "number" : "0x01",
                    "parentHash" : "0xb6ee36ad34351a8ea051af6a517d3e4ea2eb96d084f066ca78b9c579dc50beb9",
                    "receiptTrie" : "0xd3a2361a1799dc0e37e29c370805d0a89d91866b3ff1489819dbc9f03a74bb40",
                    "stateRoot" : "0x94522e57ba7d320e51dfcdd425ceba7b3b4cecdd9d9bbaa9d57a02c45e9785e2",
                    "timestamp" : "0x03e8",
                    "transactionsTrie" : "0x942a5626ebc24a913758d77ab9d72c3563724d8a433d611b1bf05ca4a3cf5c3b",
                    "uncleHash" : "0x1dcc4de8dec75d7aab85b567b6ccd41ad312451b948a7413f0a142fd40d49347"
                },
                "rlp" : "0xf90266f901fca0b6ee36ad34351a8ea051af6a517d3e4ea2eb96d084f066ca78b9c579dc50beb9a01dcc4de8dec75d7aab85b567b6ccd41ad312451b948a7413f0a142fd40d49347942adc25665018aa1fe0e6bc666dac8fc2697ff9baa094522e57ba7d320e51dfcdd425ceba7b3b4cecdd9d9bbaa9d57a02c45e9785e2a0942a5626ebc24a913758d77ab9d72c3563724d8a433d611b1bf05ca4a3cf5c3ba0d3a2361a1799dc0e37e29c370805d0a89d91866b3ff1489819dbc9f03a74bb40b90100000000000000000000000000000000000000000000000000000000000000000000000000000000000000000000000000000000000000000000000000000000000000000000000000000000000000000000000000000000000000000000000000000000000000000000000000000000000000000000000000000000000000000000000000000000000000000000000000000000000000000000000000000000000000000000000000000000000000000000000000000000000000000000000000000000000000000000000000000000000000000000000000000000000000000000000000000000000000000000000000000000000000000000000000000000008302000001850a00000000850a000000008203e880a02005aade8dbeb2b8f2cd7bc8c9fbd01b3cd1ef90bffadbe0eaa6ecabbf8cca5388a6a5b1d7fb6b4881f864f8628001850a0000000094100000000000000000000000000000000000000180801ba0d645bcff7a04b34bc1f20889cffafd8bf9764818e4eff2556c4513c3e6aa4426a0758a2988d8cdfe9eebdf3e6d1d2c63bd9718c956af62e21af76f52e047ace5e8c0",
                "transactions" : [
                    {
                        "data" : "",
                        "gasLimit" : "0x0a00000000",
                        "gasPrice" : "0x01",
                        "nonce" : "0x00",
                        "r" : "0xd645bcff7a04b34bc1f20889cffafd8bf9764818e4eff2556c4513c3e6aa4426",
                        "s" : "0x758a2988d8cdfe9eebdf3e6d1d2c63bd9718c956af62e21af76f52e047ace5e8",
                        "to" : "0x1000000000000000000000000000000000000001",
                        "v" : "0x1b",
                        "value" : "0x00"
                    }
                ],
                "uncleHeaders" : [
                ]
            }
        ],
        "genesisBlockHeader" : {
            "bloom" : "0x00000000000000000000000000000000000000000000000000000000000000000000000000000000000000000000000000000000000000000000000000000000000000000000000000000000000000000000000000000000000000000000000000000000000000000000000000000000000000000000000000000000000000000000000000000000000000000000000000000000000000000000000000000000000000000000000000000000000000000000000000000000000000000000000000000000000000000000000000000000000000000000000000000000000000000000000000000000000000000000000000000000000000000000000000000000",
            "coinbase" : "0x2adc25665018aa1fe0e6bc666dac8fc2697ff9ba",
            "difficulty" : "0x020000",
            "extraData" : "0x42",
            "gasLimit" : "0x0a00000000",
            "gasUsed" : "0x00",
            "hash" : "0xb6ee36ad34351a8ea051af6a517d3e4ea2eb96d084f066ca78b9c579dc50beb9",
            "mixHash" : "0x56e81f171bcc55a6ff8345e692c0f86e5b48e01b996cadc001622fb5e363b421",
            "nonce" : "0x0102030405060708",
            "number" : "0x00",
            "parentHash" : "0x0000000000000000000000000000000000000000000000000000000000000000",
            "receiptTrie" : "0x56e81f171bcc55a6ff8345e692c0f86e5b48e01b996cadc001622fb5e363b421",
            "stateRoot" : "0x65ada48ff3804e42fd9ae55f223ac4e873a0be20369a4e2356af3e30efe1a53a",
            "timestamp" : "0x03b6",
            "transactionsTrie" : "0x56e81f171bcc55a6ff8345e692c0f86e5b48e01b996cadc001622fb5e363b421",
            "uncleHash" : "0x1dcc4de8dec75d7aab85b567b6ccd41ad312451b948a7413f0a142fd40d49347"
        },
        "genesisRLP" : "0xf901fcf901f7a00000000000000000000000000000000000000000000000000000000000000000a01dcc4de8dec75d7aab85b567b6ccd41ad312451b948a7413f0a142fd40d49347942adc25665018aa1fe0e6bc666dac8fc2697ff9baa065ada48ff3804e42fd9ae55f223ac4e873a0be20369a4e2356af3e30efe1a53aa056e81f171bcc55a6ff8345e692c0f86e5b48e01b996cadc001622fb5e363b421a056e81f171bcc55a6ff8345e692c0f86e5b48e01b996cadc001622fb5e363b421b90100000000000000000000000000000000000000000000000000000000000000000000000000000000000000000000000000000000000000000000000000000000000000000000000000000000000000000000000000000000000000000000000000000000000000000000000000000000000000000000000000000000000000000000000000000000000000000000000000000000000000000000000000000000000000000000000000000000000000000000000000000000000000000000000000000000000000000000000000000000000000000000000000000000000000000000000000000000000000000000000000000000000000000000000000000000008302000080850a00000000808203b642a056e81f171bcc55a6ff8345e692c0f86e5b48e01b996cadc001622fb5e363b421880102030405060708c0c0",
        "lastblockhash" : "0x2c5a0f1855664e7c932ecec754de8955267f2826afe5f55cde0c392ae71c2f0d",
        "network" : "EIP150",
        "postState" : {
            "0x0f572e5295c57f15886f9b263e2f6d2d6c7b5ec6" : {
                "balance" : "0x100000",
                "code" : "",
                "nonce" : "0x00",
                "storage" : {
                }
            },
            "0x1000000000000000000000000000000000000001" : {
                "balance" : "0x00",
                "code" : "0x600060006000600073a94f5374fce5edbc8e2a8697c15331677e6ebf0b6000fa506020600060003e600051600055",
                "nonce" : "0x00",
                "storage" : {
                    "0x00" : "0xffffffffffffffffffffffffffffffffffffffffffffffffffffffffffffffff"
                }
            },
            "0x2adc25665018aa1fe0e6bc666dac8fc2697ff9ba" : {
                "balance" : "0x4563918c44f40000",
                "code" : "",
                "nonce" : "0x00",
                "storage" : {
                }
            },
            "0xa94f5374fce5edbc8e2a8697c15331677e6ebf0b" : {
                "balance" : "0x5a00000000",
                "code" : "0x3360005260206000f3",
                "nonce" : "0x01",
                "storage" : {
                }
            }
        },
        "pre" : {
            "0x0f572e5295c57f15886f9b263e2f6d2d6c7b5ec6" : {
                "balance" : "0x100000",
                "code" : "",
                "nonce" : "0x00",
                "storage" : {
                }
            },
            "0x1000000000000000000000000000000000000001" : {
                "balance" : "0x00",
                "code" : "0x600060006000600073a94f5374fce5edbc8e2a8697c15331677e6ebf0b6000fa506020600060003e600051600055",
                "nonce" : "0x00",
                "storage" : {
                    "0x00" : "0xffffffffffffffffffffffffffffffffffffffffffffffffffffffffffffffff"
                }
            },
            "0xa94f5374fce5edbc8e2a8697c15331677e6ebf0b" : {
                "balance" : "0x6400000000",
                "code" : "0x3360005260206000f3",
                "nonce" : "0x00",
                "storage" : {
                }
            }
        }
    },
    "returndatacopy_after_failing_staticcall_d0g0v0_EIP158" : {
        "_info" : {
            "comment" : "",
            "filledwith" : "cpp-1.3.0+commit.6e0ce939.Linux.g++",
            "lllcversion" : "Version: 0.4.18-develop.2017.9.25+commit.a72237f2.Linux.g++",
            "source" : "src/BlockchainTestsFiller/GeneralStateTests/stReturnDataTest/returndatacopy_after_failing_staticcall_d0g0v0Filler.json",
            "sourceHash" : "a3208955c911af799e1c1d9ab8b688386e369f9c1829347194b27cfe075c1936"
        },
        "blocks" : [
            {
                "blockHeader" : {
                    "bloom" : "0x00000000000000000000000000000000000000000000000000000000000000000000000000000000000000000000000000000000000000000000000000000000000000000000000000000000000000000000000000000000000000000000000000000000000000000000000000000000000000000000000000000000000000000000000000000000000000000000000000000000000000000000000000000000000000000000000000000000000000000000000000000000000000000000000000000000000000000000000000000000000000000000000000000000000000000000000000000000000000000000000000000000000000000000000000000000",
                    "coinbase" : "0x2adc25665018aa1fe0e6bc666dac8fc2697ff9ba",
                    "difficulty" : "0x020000",
                    "extraData" : "",
                    "gasLimit" : "0x0a00000000",
                    "gasUsed" : "0x0a00000000",
                    "hash" : "0x7f838d9d633da40dc1051f111797969fa1241ca975795da4f75869aea1f505e7",
                    "mixHash" : "0x63a957313f3552f7a99d5409a34be9a92509870734c83dec68946e5272e701df",
                    "nonce" : "0x997903a10fb22dcc",
                    "number" : "0x01",
                    "parentHash" : "0xb6ee36ad34351a8ea051af6a517d3e4ea2eb96d084f066ca78b9c579dc50beb9",
                    "receiptTrie" : "0xd3a2361a1799dc0e37e29c370805d0a89d91866b3ff1489819dbc9f03a74bb40",
                    "stateRoot" : "0x94522e57ba7d320e51dfcdd425ceba7b3b4cecdd9d9bbaa9d57a02c45e9785e2",
                    "timestamp" : "0x03e8",
                    "transactionsTrie" : "0x942a5626ebc24a913758d77ab9d72c3563724d8a433d611b1bf05ca4a3cf5c3b",
                    "uncleHash" : "0x1dcc4de8dec75d7aab85b567b6ccd41ad312451b948a7413f0a142fd40d49347"
                },
                "rlp" : "0xf90266f901fca0b6ee36ad34351a8ea051af6a517d3e4ea2eb96d084f066ca78b9c579dc50beb9a01dcc4de8dec75d7aab85b567b6ccd41ad312451b948a7413f0a142fd40d49347942adc25665018aa1fe0e6bc666dac8fc2697ff9baa094522e57ba7d320e51dfcdd425ceba7b3b4cecdd9d9bbaa9d57a02c45e9785e2a0942a5626ebc24a913758d77ab9d72c3563724d8a433d611b1bf05ca4a3cf5c3ba0d3a2361a1799dc0e37e29c370805d0a89d91866b3ff1489819dbc9f03a74bb40b90100000000000000000000000000000000000000000000000000000000000000000000000000000000000000000000000000000000000000000000000000000000000000000000000000000000000000000000000000000000000000000000000000000000000000000000000000000000000000000000000000000000000000000000000000000000000000000000000000000000000000000000000000000000000000000000000000000000000000000000000000000000000000000000000000000000000000000000000000000000000000000000000000000000000000000000000000000000000000000000000000000000000000000000000000000000008302000001850a00000000850a000000008203e880a063a957313f3552f7a99d5409a34be9a92509870734c83dec68946e5272e701df88997903a10fb22dccf864f8628001850a0000000094100000000000000000000000000000000000000180801ba0d645bcff7a04b34bc1f20889cffafd8bf9764818e4eff2556c4513c3e6aa4426a0758a2988d8cdfe9eebdf3e6d1d2c63bd9718c956af62e21af76f52e047ace5e8c0",
                "transactions" : [
                    {
                        "data" : "",
                        "gasLimit" : "0x0a00000000",
                        "gasPrice" : "0x01",
                        "nonce" : "0x00",
                        "r" : "0xd645bcff7a04b34bc1f20889cffafd8bf9764818e4eff2556c4513c3e6aa4426",
                        "s" : "0x758a2988d8cdfe9eebdf3e6d1d2c63bd9718c956af62e21af76f52e047ace5e8",
                        "to" : "0x1000000000000000000000000000000000000001",
                        "v" : "0x1b",
                        "value" : "0x00"
                    }
                ],
                "uncleHeaders" : [
                ]
            }
        ],
        "genesisBlockHeader" : {
            "bloom" : "0x00000000000000000000000000000000000000000000000000000000000000000000000000000000000000000000000000000000000000000000000000000000000000000000000000000000000000000000000000000000000000000000000000000000000000000000000000000000000000000000000000000000000000000000000000000000000000000000000000000000000000000000000000000000000000000000000000000000000000000000000000000000000000000000000000000000000000000000000000000000000000000000000000000000000000000000000000000000000000000000000000000000000000000000000000000000",
            "coinbase" : "0x2adc25665018aa1fe0e6bc666dac8fc2697ff9ba",
            "difficulty" : "0x020000",
            "extraData" : "0x42",
            "gasLimit" : "0x0a00000000",
            "gasUsed" : "0x00",
            "hash" : "0xb6ee36ad34351a8ea051af6a517d3e4ea2eb96d084f066ca78b9c579dc50beb9",
            "mixHash" : "0x56e81f171bcc55a6ff8345e692c0f86e5b48e01b996cadc001622fb5e363b421",
            "nonce" : "0x0102030405060708",
            "number" : "0x00",
            "parentHash" : "0x0000000000000000000000000000000000000000000000000000000000000000",
            "receiptTrie" : "0x56e81f171bcc55a6ff8345e692c0f86e5b48e01b996cadc001622fb5e363b421",
            "stateRoot" : "0x65ada48ff3804e42fd9ae55f223ac4e873a0be20369a4e2356af3e30efe1a53a",
            "timestamp" : "0x03b6",
            "transactionsTrie" : "0x56e81f171bcc55a6ff8345e692c0f86e5b48e01b996cadc001622fb5e363b421",
            "uncleHash" : "0x1dcc4de8dec75d7aab85b567b6ccd41ad312451b948a7413f0a142fd40d49347"
        },
        "genesisRLP" : "0xf901fcf901f7a00000000000000000000000000000000000000000000000000000000000000000a01dcc4de8dec75d7aab85b567b6ccd41ad312451b948a7413f0a142fd40d49347942adc25665018aa1fe0e6bc666dac8fc2697ff9baa065ada48ff3804e42fd9ae55f223ac4e873a0be20369a4e2356af3e30efe1a53aa056e81f171bcc55a6ff8345e692c0f86e5b48e01b996cadc001622fb5e363b421a056e81f171bcc55a6ff8345e692c0f86e5b48e01b996cadc001622fb5e363b421b90100000000000000000000000000000000000000000000000000000000000000000000000000000000000000000000000000000000000000000000000000000000000000000000000000000000000000000000000000000000000000000000000000000000000000000000000000000000000000000000000000000000000000000000000000000000000000000000000000000000000000000000000000000000000000000000000000000000000000000000000000000000000000000000000000000000000000000000000000000000000000000000000000000000000000000000000000000000000000000000000000000000000000000000000000000000008302000080850a00000000808203b642a056e81f171bcc55a6ff8345e692c0f86e5b48e01b996cadc001622fb5e363b421880102030405060708c0c0",
        "lastblockhash" : "0x7f838d9d633da40dc1051f111797969fa1241ca975795da4f75869aea1f505e7",
        "network" : "EIP158",
        "postState" : {
            "0x0f572e5295c57f15886f9b263e2f6d2d6c7b5ec6" : {
                "balance" : "0x100000",
                "code" : "",
                "nonce" : "0x00",
                "storage" : {
                }
            },
            "0x1000000000000000000000000000000000000001" : {
                "balance" : "0x00",
                "code" : "0x600060006000600073a94f5374fce5edbc8e2a8697c15331677e6ebf0b6000fa506020600060003e600051600055",
                "nonce" : "0x00",
                "storage" : {
                    "0x00" : "0xffffffffffffffffffffffffffffffffffffffffffffffffffffffffffffffff"
                }
            },
            "0x2adc25665018aa1fe0e6bc666dac8fc2697ff9ba" : {
                "balance" : "0x4563918c44f40000",
                "code" : "",
                "nonce" : "0x00",
                "storage" : {
                }
            },
            "0xa94f5374fce5edbc8e2a8697c15331677e6ebf0b" : {
                "balance" : "0x5a00000000",
                "code" : "0x3360005260206000f3",
                "nonce" : "0x01",
                "storage" : {
                }
            }
        },
        "pre" : {
            "0x0f572e5295c57f15886f9b263e2f6d2d6c7b5ec6" : {
                "balance" : "0x100000",
                "code" : "",
                "nonce" : "0x00",
                "storage" : {
                }
            },
            "0x1000000000000000000000000000000000000001" : {
                "balance" : "0x00",
                "code" : "0x600060006000600073a94f5374fce5edbc8e2a8697c15331677e6ebf0b6000fa506020600060003e600051600055",
                "nonce" : "0x00",
                "storage" : {
                    "0x00" : "0xffffffffffffffffffffffffffffffffffffffffffffffffffffffffffffffff"
                }
            },
            "0xa94f5374fce5edbc8e2a8697c15331677e6ebf0b" : {
                "balance" : "0x6400000000",
                "code" : "0x3360005260206000f3",
                "nonce" : "0x00",
                "storage" : {
                }
            }
        }
    },
    "returndatacopy_after_failing_staticcall_d0g0v0_Frontier" : {
        "_info" : {
            "comment" : "",
            "filledwith" : "cpp-1.3.0+commit.6e0ce939.Linux.g++",
            "lllcversion" : "Version: 0.4.18-develop.2017.9.25+commit.a72237f2.Linux.g++",
            "source" : "src/BlockchainTestsFiller/GeneralStateTests/stReturnDataTest/returndatacopy_after_failing_staticcall_d0g0v0Filler.json",
            "sourceHash" : "a3208955c911af799e1c1d9ab8b688386e369f9c1829347194b27cfe075c1936"
        },
        "blocks" : [
            {
                "blockHeader" : {
                    "bloom" : "0x00000000000000000000000000000000000000000000000000000000000000000000000000000000000000000000000000000000000000000000000000000000000000000000000000000000000000000000000000000000000000000000000000000000000000000000000000000000000000000000000000000000000000000000000000000000000000000000000000000000000000000000000000000000000000000000000000000000000000000000000000000000000000000000000000000000000000000000000000000000000000000000000000000000000000000000000000000000000000000000000000000000000000000000000000000000",
                    "coinbase" : "0x2adc25665018aa1fe0e6bc666dac8fc2697ff9ba",
                    "difficulty" : "0x020000",
                    "extraData" : "",
                    "gasLimit" : "0x0a00000000",
                    "gasUsed" : "0x0a00000000",
                    "hash" : "0x9cf0586a20afdf95a730a0e82555172171fe462aec8e62ff2dd7e85ebfbba66a",
                    "mixHash" : "0xa744d07369541e72896d0937f83ce666d8d798ab6802761a35da2a854cff0ec9",
                    "nonce" : "0x23c11ec436100ad4",
                    "number" : "0x01",
                    "parentHash" : "0xb6ee36ad34351a8ea051af6a517d3e4ea2eb96d084f066ca78b9c579dc50beb9",
                    "receiptTrie" : "0xd3a2361a1799dc0e37e29c370805d0a89d91866b3ff1489819dbc9f03a74bb40",
                    "stateRoot" : "0x94522e57ba7d320e51dfcdd425ceba7b3b4cecdd9d9bbaa9d57a02c45e9785e2",
                    "timestamp" : "0x03e8",
                    "transactionsTrie" : "0x942a5626ebc24a913758d77ab9d72c3563724d8a433d611b1bf05ca4a3cf5c3b",
                    "uncleHash" : "0x1dcc4de8dec75d7aab85b567b6ccd41ad312451b948a7413f0a142fd40d49347"
                },
                "rlp" : "0xf90266f901fca0b6ee36ad34351a8ea051af6a517d3e4ea2eb96d084f066ca78b9c579dc50beb9a01dcc4de8dec75d7aab85b567b6ccd41ad312451b948a7413f0a142fd40d49347942adc25665018aa1fe0e6bc666dac8fc2697ff9baa094522e57ba7d320e51dfcdd425ceba7b3b4cecdd9d9bbaa9d57a02c45e9785e2a0942a5626ebc24a913758d77ab9d72c3563724d8a433d611b1bf05ca4a3cf5c3ba0d3a2361a1799dc0e37e29c370805d0a89d91866b3ff1489819dbc9f03a74bb40b90100000000000000000000000000000000000000000000000000000000000000000000000000000000000000000000000000000000000000000000000000000000000000000000000000000000000000000000000000000000000000000000000000000000000000000000000000000000000000000000000000000000000000000000000000000000000000000000000000000000000000000000000000000000000000000000000000000000000000000000000000000000000000000000000000000000000000000000000000000000000000000000000000000000000000000000000000000000000000000000000000000000000000000000000000000000008302000001850a00000000850a000000008203e880a0a744d07369541e72896d0937f83ce666d8d798ab6802761a35da2a854cff0ec98823c11ec436100ad4f864f8628001850a0000000094100000000000000000000000000000000000000180801ba0d645bcff7a04b34bc1f20889cffafd8bf9764818e4eff2556c4513c3e6aa4426a0758a2988d8cdfe9eebdf3e6d1d2c63bd9718c956af62e21af76f52e047ace5e8c0",
                "transactions" : [
                    {
                        "data" : "",
                        "gasLimit" : "0x0a00000000",
                        "gasPrice" : "0x01",
                        "nonce" : "0x00",
                        "r" : "0xd645bcff7a04b34bc1f20889cffafd8bf9764818e4eff2556c4513c3e6aa4426",
                        "s" : "0x758a2988d8cdfe9eebdf3e6d1d2c63bd9718c956af62e21af76f52e047ace5e8",
                        "to" : "0x1000000000000000000000000000000000000001",
                        "v" : "0x1b",
                        "value" : "0x00"
                    }
                ],
                "uncleHeaders" : [
                ]
            }
        ],
        "genesisBlockHeader" : {
            "bloom" : "0x00000000000000000000000000000000000000000000000000000000000000000000000000000000000000000000000000000000000000000000000000000000000000000000000000000000000000000000000000000000000000000000000000000000000000000000000000000000000000000000000000000000000000000000000000000000000000000000000000000000000000000000000000000000000000000000000000000000000000000000000000000000000000000000000000000000000000000000000000000000000000000000000000000000000000000000000000000000000000000000000000000000000000000000000000000000",
            "coinbase" : "0x2adc25665018aa1fe0e6bc666dac8fc2697ff9ba",
            "difficulty" : "0x020000",
            "extraData" : "0x42",
            "gasLimit" : "0x0a00000000",
            "gasUsed" : "0x00",
            "hash" : "0xb6ee36ad34351a8ea051af6a517d3e4ea2eb96d084f066ca78b9c579dc50beb9",
            "mixHash" : "0x56e81f171bcc55a6ff8345e692c0f86e5b48e01b996cadc001622fb5e363b421",
            "nonce" : "0x0102030405060708",
            "number" : "0x00",
            "parentHash" : "0x0000000000000000000000000000000000000000000000000000000000000000",
            "receiptTrie" : "0x56e81f171bcc55a6ff8345e692c0f86e5b48e01b996cadc001622fb5e363b421",
            "stateRoot" : "0x65ada48ff3804e42fd9ae55f223ac4e873a0be20369a4e2356af3e30efe1a53a",
            "timestamp" : "0x03b6",
            "transactionsTrie" : "0x56e81f171bcc55a6ff8345e692c0f86e5b48e01b996cadc001622fb5e363b421",
            "uncleHash" : "0x1dcc4de8dec75d7aab85b567b6ccd41ad312451b948a7413f0a142fd40d49347"
        },
        "genesisRLP" : "0xf901fcf901f7a00000000000000000000000000000000000000000000000000000000000000000a01dcc4de8dec75d7aab85b567b6ccd41ad312451b948a7413f0a142fd40d49347942adc25665018aa1fe0e6bc666dac8fc2697ff9baa065ada48ff3804e42fd9ae55f223ac4e873a0be20369a4e2356af3e30efe1a53aa056e81f171bcc55a6ff8345e692c0f86e5b48e01b996cadc001622fb5e363b421a056e81f171bcc55a6ff8345e692c0f86e5b48e01b996cadc001622fb5e363b421b90100000000000000000000000000000000000000000000000000000000000000000000000000000000000000000000000000000000000000000000000000000000000000000000000000000000000000000000000000000000000000000000000000000000000000000000000000000000000000000000000000000000000000000000000000000000000000000000000000000000000000000000000000000000000000000000000000000000000000000000000000000000000000000000000000000000000000000000000000000000000000000000000000000000000000000000000000000000000000000000000000000000000000000000000000000000008302000080850a00000000808203b642a056e81f171bcc55a6ff8345e692c0f86e5b48e01b996cadc001622fb5e363b421880102030405060708c0c0",
        "lastblockhash" : "0x9cf0586a20afdf95a730a0e82555172171fe462aec8e62ff2dd7e85ebfbba66a",
        "network" : "Frontier",
        "postState" : {
            "0x0f572e5295c57f15886f9b263e2f6d2d6c7b5ec6" : {
                "balance" : "0x100000",
                "code" : "",
                "nonce" : "0x00",
                "storage" : {
                }
            },
            "0x1000000000000000000000000000000000000001" : {
                "balance" : "0x00",
                "code" : "0x600060006000600073a94f5374fce5edbc8e2a8697c15331677e6ebf0b6000fa506020600060003e600051600055",
                "nonce" : "0x00",
                "storage" : {
                    "0x00" : "0xffffffffffffffffffffffffffffffffffffffffffffffffffffffffffffffff"
                }
            },
            "0x2adc25665018aa1fe0e6bc666dac8fc2697ff9ba" : {
                "balance" : "0x4563918c44f40000",
                "code" : "",
                "nonce" : "0x00",
                "storage" : {
                }
            },
            "0xa94f5374fce5edbc8e2a8697c15331677e6ebf0b" : {
                "balance" : "0x5a00000000",
                "code" : "0x3360005260206000f3",
                "nonce" : "0x01",
                "storage" : {
                }
            }
        },
        "pre" : {
            "0x0f572e5295c57f15886f9b263e2f6d2d6c7b5ec6" : {
                "balance" : "0x100000",
                "code" : "",
                "nonce" : "0x00",
                "storage" : {
                }
            },
            "0x1000000000000000000000000000000000000001" : {
                "balance" : "0x00",
                "code" : "0x600060006000600073a94f5374fce5edbc8e2a8697c15331677e6ebf0b6000fa506020600060003e600051600055",
                "nonce" : "0x00",
                "storage" : {
                    "0x00" : "0xffffffffffffffffffffffffffffffffffffffffffffffffffffffffffffffff"
                }
            },
            "0xa94f5374fce5edbc8e2a8697c15331677e6ebf0b" : {
                "balance" : "0x6400000000",
                "code" : "0x3360005260206000f3",
                "nonce" : "0x00",
                "storage" : {
                }
            }
        }
    },
    "returndatacopy_after_failing_staticcall_d0g0v0_Homestead" : {
        "_info" : {
            "comment" : "",
            "filledwith" : "cpp-1.3.0+commit.6e0ce939.Linux.g++",
            "lllcversion" : "Version: 0.4.18-develop.2017.9.25+commit.a72237f2.Linux.g++",
            "source" : "src/BlockchainTestsFiller/GeneralStateTests/stReturnDataTest/returndatacopy_after_failing_staticcall_d0g0v0Filler.json",
            "sourceHash" : "a3208955c911af799e1c1d9ab8b688386e369f9c1829347194b27cfe075c1936"
        },
        "blocks" : [
            {
                "blockHeader" : {
                    "bloom" : "0x00000000000000000000000000000000000000000000000000000000000000000000000000000000000000000000000000000000000000000000000000000000000000000000000000000000000000000000000000000000000000000000000000000000000000000000000000000000000000000000000000000000000000000000000000000000000000000000000000000000000000000000000000000000000000000000000000000000000000000000000000000000000000000000000000000000000000000000000000000000000000000000000000000000000000000000000000000000000000000000000000000000000000000000000000000000",
                    "coinbase" : "0x2adc25665018aa1fe0e6bc666dac8fc2697ff9ba",
                    "difficulty" : "0x020000",
                    "extraData" : "",
                    "gasLimit" : "0x0a00000000",
                    "gasUsed" : "0x0a00000000",
                    "hash" : "0xf152e15e4ff1035169047c8b2850d77edb4c33b8a12b25e01dbfda4d9503da1b",
                    "mixHash" : "0xf52cadd6883d90c4815da4266b21cf2c19095be1374693837fe4deed202a4023",
                    "nonce" : "0xc5a8de801e43d219",
                    "number" : "0x01",
                    "parentHash" : "0xb6ee36ad34351a8ea051af6a517d3e4ea2eb96d084f066ca78b9c579dc50beb9",
                    "receiptTrie" : "0xd3a2361a1799dc0e37e29c370805d0a89d91866b3ff1489819dbc9f03a74bb40",
                    "stateRoot" : "0x94522e57ba7d320e51dfcdd425ceba7b3b4cecdd9d9bbaa9d57a02c45e9785e2",
                    "timestamp" : "0x03e8",
                    "transactionsTrie" : "0x942a5626ebc24a913758d77ab9d72c3563724d8a433d611b1bf05ca4a3cf5c3b",
                    "uncleHash" : "0x1dcc4de8dec75d7aab85b567b6ccd41ad312451b948a7413f0a142fd40d49347"
                },
                "rlp" : "0xf90266f901fca0b6ee36ad34351a8ea051af6a517d3e4ea2eb96d084f066ca78b9c579dc50beb9a01dcc4de8dec75d7aab85b567b6ccd41ad312451b948a7413f0a142fd40d49347942adc25665018aa1fe0e6bc666dac8fc2697ff9baa094522e57ba7d320e51dfcdd425ceba7b3b4cecdd9d9bbaa9d57a02c45e9785e2a0942a5626ebc24a913758d77ab9d72c3563724d8a433d611b1bf05ca4a3cf5c3ba0d3a2361a1799dc0e37e29c370805d0a89d91866b3ff1489819dbc9f03a74bb40b90100000000000000000000000000000000000000000000000000000000000000000000000000000000000000000000000000000000000000000000000000000000000000000000000000000000000000000000000000000000000000000000000000000000000000000000000000000000000000000000000000000000000000000000000000000000000000000000000000000000000000000000000000000000000000000000000000000000000000000000000000000000000000000000000000000000000000000000000000000000000000000000000000000000000000000000000000000000000000000000000000000000000000000000000000000000008302000001850a00000000850a000000008203e880a0f52cadd6883d90c4815da4266b21cf2c19095be1374693837fe4deed202a402388c5a8de801e43d219f864f8628001850a0000000094100000000000000000000000000000000000000180801ba0d645bcff7a04b34bc1f20889cffafd8bf9764818e4eff2556c4513c3e6aa4426a0758a2988d8cdfe9eebdf3e6d1d2c63bd9718c956af62e21af76f52e047ace5e8c0",
                "transactions" : [
                    {
                        "data" : "",
                        "gasLimit" : "0x0a00000000",
                        "gasPrice" : "0x01",
                        "nonce" : "0x00",
                        "r" : "0xd645bcff7a04b34bc1f20889cffafd8bf9764818e4eff2556c4513c3e6aa4426",
                        "s" : "0x758a2988d8cdfe9eebdf3e6d1d2c63bd9718c956af62e21af76f52e047ace5e8",
                        "to" : "0x1000000000000000000000000000000000000001",
                        "v" : "0x1b",
                        "value" : "0x00"
                    }
                ],
                "uncleHeaders" : [
                ]
            }
        ],
        "genesisBlockHeader" : {
            "bloom" : "0x00000000000000000000000000000000000000000000000000000000000000000000000000000000000000000000000000000000000000000000000000000000000000000000000000000000000000000000000000000000000000000000000000000000000000000000000000000000000000000000000000000000000000000000000000000000000000000000000000000000000000000000000000000000000000000000000000000000000000000000000000000000000000000000000000000000000000000000000000000000000000000000000000000000000000000000000000000000000000000000000000000000000000000000000000000000",
            "coinbase" : "0x2adc25665018aa1fe0e6bc666dac8fc2697ff9ba",
            "difficulty" : "0x020000",
            "extraData" : "0x42",
            "gasLimit" : "0x0a00000000",
            "gasUsed" : "0x00",
            "hash" : "0xb6ee36ad34351a8ea051af6a517d3e4ea2eb96d084f066ca78b9c579dc50beb9",
            "mixHash" : "0x56e81f171bcc55a6ff8345e692c0f86e5b48e01b996cadc001622fb5e363b421",
            "nonce" : "0x0102030405060708",
            "number" : "0x00",
            "parentHash" : "0x0000000000000000000000000000000000000000000000000000000000000000",
            "receiptTrie" : "0x56e81f171bcc55a6ff8345e692c0f86e5b48e01b996cadc001622fb5e363b421",
            "stateRoot" : "0x65ada48ff3804e42fd9ae55f223ac4e873a0be20369a4e2356af3e30efe1a53a",
            "timestamp" : "0x03b6",
            "transactionsTrie" : "0x56e81f171bcc55a6ff8345e692c0f86e5b48e01b996cadc001622fb5e363b421",
            "uncleHash" : "0x1dcc4de8dec75d7aab85b567b6ccd41ad312451b948a7413f0a142fd40d49347"
        },
        "genesisRLP" : "0xf901fcf901f7a00000000000000000000000000000000000000000000000000000000000000000a01dcc4de8dec75d7aab85b567b6ccd41ad312451b948a7413f0a142fd40d49347942adc25665018aa1fe0e6bc666dac8fc2697ff9baa065ada48ff3804e42fd9ae55f223ac4e873a0be20369a4e2356af3e30efe1a53aa056e81f171bcc55a6ff8345e692c0f86e5b48e01b996cadc001622fb5e363b421a056e81f171bcc55a6ff8345e692c0f86e5b48e01b996cadc001622fb5e363b421b90100000000000000000000000000000000000000000000000000000000000000000000000000000000000000000000000000000000000000000000000000000000000000000000000000000000000000000000000000000000000000000000000000000000000000000000000000000000000000000000000000000000000000000000000000000000000000000000000000000000000000000000000000000000000000000000000000000000000000000000000000000000000000000000000000000000000000000000000000000000000000000000000000000000000000000000000000000000000000000000000000000000000000000000000000000000008302000080850a00000000808203b642a056e81f171bcc55a6ff8345e692c0f86e5b48e01b996cadc001622fb5e363b421880102030405060708c0c0",
        "lastblockhash" : "0xf152e15e4ff1035169047c8b2850d77edb4c33b8a12b25e01dbfda4d9503da1b",
        "network" : "Homestead",
        "postState" : {
            "0x0f572e5295c57f15886f9b263e2f6d2d6c7b5ec6" : {
                "balance" : "0x100000",
                "code" : "",
                "nonce" : "0x00",
                "storage" : {
                }
            },
            "0x1000000000000000000000000000000000000001" : {
                "balance" : "0x00",
                "code" : "0x600060006000600073a94f5374fce5edbc8e2a8697c15331677e6ebf0b6000fa506020600060003e600051600055",
                "nonce" : "0x00",
                "storage" : {
                    "0x00" : "0xffffffffffffffffffffffffffffffffffffffffffffffffffffffffffffffff"
                }
            },
            "0x2adc25665018aa1fe0e6bc666dac8fc2697ff9ba" : {
                "balance" : "0x4563918c44f40000",
                "code" : "",
                "nonce" : "0x00",
                "storage" : {
                }
            },
            "0xa94f5374fce5edbc8e2a8697c15331677e6ebf0b" : {
                "balance" : "0x5a00000000",
                "code" : "0x3360005260206000f3",
                "nonce" : "0x01",
                "storage" : {
                }
            }
        },
        "pre" : {
            "0x0f572e5295c57f15886f9b263e2f6d2d6c7b5ec6" : {
                "balance" : "0x100000",
                "code" : "",
                "nonce" : "0x00",
                "storage" : {
                }
            },
            "0x1000000000000000000000000000000000000001" : {
                "balance" : "0x00",
                "code" : "0x600060006000600073a94f5374fce5edbc8e2a8697c15331677e6ebf0b6000fa506020600060003e600051600055",
                "nonce" : "0x00",
                "storage" : {
                    "0x00" : "0xffffffffffffffffffffffffffffffffffffffffffffffffffffffffffffffff"
                }
            },
            "0xa94f5374fce5edbc8e2a8697c15331677e6ebf0b" : {
                "balance" : "0x6400000000",
                "code" : "0x3360005260206000f3",
                "nonce" : "0x00",
                "storage" : {
                }
            }
        }
    }
}