{
    "callcodecallcall_100_SuicideMiddle_d0g0v0_Byzantium" : {
        "_info" : {
            "comment" : "",
            "filledwith" : "cpp-1.3.0+commit.6e0ce939.Linux.g++",
            "lllcversion" : "Version: 0.4.18-develop.2017.9.25+commit.a72237f2.Linux.g++",
            "source" : "src/BlockchainTestsFiller/GeneralStateTests/stCallCodes/callcodecallcall_100_SuicideMiddle_d0g0v0Filler.json",
            "sourceHash" : "5dbba242175f5ad6f6d48856a4d4b11093aca95c713cf0e75d4fadfcc159d3a5"
        },
        "blocks" : [
            {
                "blockHeader" : {
                    "bloom" : "0x00000000000000000000000000000000000000000000000000000000000000000000000000000000000000000000000000000000000000000000000000000000000000000000000000000000000000000000000000000000000000000000000000000000000000000000000000000000000000000000000000000000000000000000000000000000000000000000000000000000000000000000000000000000000000000000000000000000000000000000000000000000000000000000000000000000000000000000000000000000000000000000000000000000000000000000000000000000000000000000000000000000000000000000000000000000",
                    "coinbase" : "0x2adc25665018aa1fe0e6bc666dac8fc2697ff9ba",
                    "difficulty" : "0x020000",
                    "extraData" : "",
                    "gasLimit" : "0x01c9c380",
                    "gasUsed" : "0xa9c7",
                    "hash" : "0xfc151c52c031b2403f8a73d869c457daa3cc0a527e79a091c8f28cefb3bfe285",
                    "mixHash" : "0x188cb4fa782f4cec90b323dc868efd44f33ededaf8f39993d1353029ca258d3f",
                    "nonce" : "0xef91640b598128fb",
                    "number" : "0x01",
                    "parentHash" : "0x5c9e0e34157a921b90472106047aaaeffc15f879f2ba117adddc0cff51601277",
                    "receiptTrie" : "0x09430c47ad57170f4a897ec85dfeb6757301084dd1b8169f5e0a0712a40057c0",
                    "stateRoot" : "0x931466fabd962cb1afde6d8fb3cd6a9590ded9bc8e4afbe7b22859a1ae041bfc",
                    "timestamp" : "0x03e8",
                    "transactionsTrie" : "0x5d88595a2b9f129f2901f79a207ca2d95f38ac387707e6cb1de43679d06079d4",
                    "uncleHash" : "0x1dcc4de8dec75d7aab85b567b6ccd41ad312451b948a7413f0a142fd40d49347"
                },
                "rlp" : "0xf90260f901f8a05c9e0e34157a921b90472106047aaaeffc15f879f2ba117adddc0cff51601277a01dcc4de8dec75d7aab85b567b6ccd41ad312451b948a7413f0a142fd40d49347942adc25665018aa1fe0e6bc666dac8fc2697ff9baa0931466fabd962cb1afde6d8fb3cd6a9590ded9bc8e4afbe7b22859a1ae041bfca05d88595a2b9f129f2901f79a207ca2d95f38ac387707e6cb1de43679d06079d4a009430c47ad57170f4a897ec85dfeb6757301084dd1b8169f5e0a0712a40057c0b901000000000000000000000000000000000000000000000000000000000000000000000000000000000000000000000000000000000000000000000000000000000000000000000000000000000000000000000000000000000000000000000000000000000000000000000000000000000000000000000000000000000000000000000000000000000000000000000000000000000000000000000000000000000000000000000000000000000000000000000000000000000000000000000000000000000000000000000000000000000000000000000000000000000000000000000000000000000000000000000000000000000000000000000000000000000083020000018401c9c38082a9c78203e880a0188cb4fa782f4cec90b323dc868efd44f33ededaf8f39993d1353029ca258d3f88ef91640b598128fbf862f8608001832dc6c094100000000000000000000000000000000000000080801ba0bc3f717090c5b3d46550833ec05cc91a3c352bd18be2c0eed5ed3e54e8af58f9a03a7d01021289eca372726c91175e4f422da3147bd3961cd66ca95f1cf3619fb2c0",
                "transactions" : [
                    {
                        "data" : "",
                        "gasLimit" : "0x2dc6c0",
                        "gasPrice" : "0x01",
                        "nonce" : "0x00",
                        "r" : "0xbc3f717090c5b3d46550833ec05cc91a3c352bd18be2c0eed5ed3e54e8af58f9",
                        "s" : "0x3a7d01021289eca372726c91175e4f422da3147bd3961cd66ca95f1cf3619fb2",
                        "to" : "0x1000000000000000000000000000000000000000",
                        "v" : "0x1b",
                        "value" : "0x00"
                    }
                ],
                "uncleHeaders" : [
                ]
            }
        ],
        "genesisBlockHeader" : {
            "bloom" : "0x00000000000000000000000000000000000000000000000000000000000000000000000000000000000000000000000000000000000000000000000000000000000000000000000000000000000000000000000000000000000000000000000000000000000000000000000000000000000000000000000000000000000000000000000000000000000000000000000000000000000000000000000000000000000000000000000000000000000000000000000000000000000000000000000000000000000000000000000000000000000000000000000000000000000000000000000000000000000000000000000000000000000000000000000000000000",
            "coinbase" : "0x2adc25665018aa1fe0e6bc666dac8fc2697ff9ba",
            "difficulty" : "0x020000",
            "extraData" : "0x42",
            "gasLimit" : "0x01c9c380",
            "gasUsed" : "0x00",
            "hash" : "0x5c9e0e34157a921b90472106047aaaeffc15f879f2ba117adddc0cff51601277",
            "mixHash" : "0x56e81f171bcc55a6ff8345e692c0f86e5b48e01b996cadc001622fb5e363b421",
            "nonce" : "0x0102030405060708",
            "number" : "0x00",
            "parentHash" : "0x0000000000000000000000000000000000000000000000000000000000000000",
            "receiptTrie" : "0x56e81f171bcc55a6ff8345e692c0f86e5b48e01b996cadc001622fb5e363b421",
            "stateRoot" : "0x95a3c33a7f0eda324fedf1fa2a4abacdc79514cfa023d409d9b2a8531965a377",
            "timestamp" : "0x03b6",
            "transactionsTrie" : "0x56e81f171bcc55a6ff8345e692c0f86e5b48e01b996cadc001622fb5e363b421",
            "uncleHash" : "0x1dcc4de8dec75d7aab85b567b6ccd41ad312451b948a7413f0a142fd40d49347"
        },
        "genesisRLP" : "0xf901fbf901f6a00000000000000000000000000000000000000000000000000000000000000000a01dcc4de8dec75d7aab85b567b6ccd41ad312451b948a7413f0a142fd40d49347942adc25665018aa1fe0e6bc666dac8fc2697ff9baa095a3c33a7f0eda324fedf1fa2a4abacdc79514cfa023d409d9b2a8531965a377a056e81f171bcc55a6ff8345e692c0f86e5b48e01b996cadc001622fb5e363b421a056e81f171bcc55a6ff8345e692c0f86e5b48e01b996cadc001622fb5e363b421b901000000000000000000000000000000000000000000000000000000000000000000000000000000000000000000000000000000000000000000000000000000000000000000000000000000000000000000000000000000000000000000000000000000000000000000000000000000000000000000000000000000000000000000000000000000000000000000000000000000000000000000000000000000000000000000000000000000000000000000000000000000000000000000000000000000000000000000000000000000000000000000000000000000000000000000000000000000000000000000000000000000000000000000000000000000000083020000808401c9c380808203b642a056e81f171bcc55a6ff8345e692c0f86e5b48e01b996cadc001622fb5e363b421880102030405060708c0c0",
        "lastblockhash" : "0xfc151c52c031b2403f8a73d869c457daa3cc0a527e79a091c8f28cefb3bfe285",
        "network" : "Byzantium",
        "postState" : {
            "0x1000000000000000000000000000000000000000" : {
                "balance" : "0x0de0b6b5fb6fe400",
                "code" : "0x60406000604060006000731000000000000000000000000000000000000001620249f0f2600055",
                "nonce" : "0x00",
                "storage" : {
                    "0x00" : "0x01",
                    "0x01" : "0x01"
                }
            },
            "0x1000000000000000000000000000000000000001" : {
                "balance" : "0x02540be400",
                "code" : "0x60406000604060006000731000000000000000000000000000000000000002620186a0f1600155",
                "nonce" : "0x00",
                "storage" : {
                }
            },
            "0x1000000000000000000000000000000000000003" : {
                "balance" : "0x02540be400",
                "code" : "0x6001600355",
                "nonce" : "0x00",
                "storage" : {
                }
            },
            "0x2adc25665018aa1fe0e6bc666dac8fc2697ff9ba" : {
                "balance" : "0x29a2241af62ca9c7",
                "code" : "",
                "nonce" : "0x00",
                "storage" : {
                }
            },
            "0xa94f5374fce5edbc8e2a8697c15331677e6ebf0b" : {
                "balance" : "0x0de0b6b3a7635639",
                "code" : "",
                "nonce" : "0x01",
                "storage" : {
                }
            }
        },
        "pre" : {
            "0x1000000000000000000000000000000000000000" : {
                "balance" : "0x0de0b6b3a7640000",
                "code" : "0x60406000604060006000731000000000000000000000000000000000000001620249f0f2600055",
                "nonce" : "0x00",
                "storage" : {
                }
            },
            "0x1000000000000000000000000000000000000001" : {
                "balance" : "0x02540be400",
                "code" : "0x60406000604060006000731000000000000000000000000000000000000002620186a0f1600155",
                "nonce" : "0x00",
                "storage" : {
                }
            },
            "0x1000000000000000000000000000000000000002" : {
                "balance" : "0x02540be400",
                "code" : "0x731000000000000000000000000000000000000000ff6040600060406000600073100000000000000000000000000000000000000361c350f1600255",
                "nonce" : "0x00",
                "storage" : {
                }
            },
            "0x1000000000000000000000000000000000000003" : {
                "balance" : "0x02540be400",
                "code" : "0x6001600355",
                "nonce" : "0x00",
                "storage" : {
                }
            },
            "0xa94f5374fce5edbc8e2a8697c15331677e6ebf0b" : {
                "balance" : "0x0de0b6b3a7640000",
                "code" : "",
                "nonce" : "0x00",
                "storage" : {
                }
            }
        }
    },
    "callcodecallcall_100_SuicideMiddle_d0g0v0_EIP150" : {
        "_info" : {
            "comment" : "",
            "filledwith" : "cpp-1.3.0+commit.6e0ce939.Linux.g++",
            "lllcversion" : "Version: 0.4.18-develop.2017.9.25+commit.a72237f2.Linux.g++",
            "source" : "src/BlockchainTestsFiller/GeneralStateTests/stCallCodes/callcodecallcall_100_SuicideMiddle_d0g0v0Filler.json",
            "sourceHash" : "5dbba242175f5ad6f6d48856a4d4b11093aca95c713cf0e75d4fadfcc159d3a5"
        },
        "blocks" : [
            {
                "blockHeader" : {
                    "bloom" : "0x00000000000000000000000000000000000000000000000000000000000000000000000000000000000000000000000000000000000000000000000000000000000000000000000000000000000000000000000000000000000000000000000000000000000000000000000000000000000000000000000000000000000000000000000000000000000000000000000000000000000000000000000000000000000000000000000000000000000000000000000000000000000000000000000000000000000000000000000000000000000000000000000000000000000000000000000000000000000000000000000000000000000000000000000000000000",
                    "coinbase" : "0x2adc25665018aa1fe0e6bc666dac8fc2697ff9ba",
                    "difficulty" : "0x020000",
                    "extraData" : "",
                    "gasLimit" : "0x01c9c380",
                    "gasUsed" : "0xa9c7",
                    "hash" : "0x78cad478a3562baa4a16e0734e0cc8b723065ce848208c64ba53447ee509fb51",
                    "mixHash" : "0x16d820b43a0fceb8781e5db1680409e06177ca90dc36a83b6ff19f2899e725be",
                    "nonce" : "0x589245a7451d3afa",
                    "number" : "0x01",
                    "parentHash" : "0x5c9e0e34157a921b90472106047aaaeffc15f879f2ba117adddc0cff51601277",
                    "receiptTrie" : "0x5b2d90f05193d9583afc47c6a2eb38968c96c315018390d6e942ca7ecc8d06c1",
                    "stateRoot" : "0xc8f95b8d1e76c9c905cd471dde60f60fcde38bab4875e5216ac68bc51e28fd71",
                    "timestamp" : "0x03e8",
                    "transactionsTrie" : "0x5d88595a2b9f129f2901f79a207ca2d95f38ac387707e6cb1de43679d06079d4",
                    "uncleHash" : "0x1dcc4de8dec75d7aab85b567b6ccd41ad312451b948a7413f0a142fd40d49347"
                },
                "rlp" : "0xf90260f901f8a05c9e0e34157a921b90472106047aaaeffc15f879f2ba117adddc0cff51601277a01dcc4de8dec75d7aab85b567b6ccd41ad312451b948a7413f0a142fd40d49347942adc25665018aa1fe0e6bc666dac8fc2697ff9baa0c8f95b8d1e76c9c905cd471dde60f60fcde38bab4875e5216ac68bc51e28fd71a05d88595a2b9f129f2901f79a207ca2d95f38ac387707e6cb1de43679d06079d4a05b2d90f05193d9583afc47c6a2eb38968c96c315018390d6e942ca7ecc8d06c1b901000000000000000000000000000000000000000000000000000000000000000000000000000000000000000000000000000000000000000000000000000000000000000000000000000000000000000000000000000000000000000000000000000000000000000000000000000000000000000000000000000000000000000000000000000000000000000000000000000000000000000000000000000000000000000000000000000000000000000000000000000000000000000000000000000000000000000000000000000000000000000000000000000000000000000000000000000000000000000000000000000000000000000000000000000000000083020000018401c9c38082a9c78203e880a016d820b43a0fceb8781e5db1680409e06177ca90dc36a83b6ff19f2899e725be88589245a7451d3afaf862f8608001832dc6c094100000000000000000000000000000000000000080801ba0bc3f717090c5b3d46550833ec05cc91a3c352bd18be2c0eed5ed3e54e8af58f9a03a7d01021289eca372726c91175e4f422da3147bd3961cd66ca95f1cf3619fb2c0",
                "transactions" : [
                    {
                        "data" : "",
                        "gasLimit" : "0x2dc6c0",
                        "gasPrice" : "0x01",
                        "nonce" : "0x00",
                        "r" : "0xbc3f717090c5b3d46550833ec05cc91a3c352bd18be2c0eed5ed3e54e8af58f9",
                        "s" : "0x3a7d01021289eca372726c91175e4f422da3147bd3961cd66ca95f1cf3619fb2",
                        "to" : "0x1000000000000000000000000000000000000000",
                        "v" : "0x1b",
                        "value" : "0x00"
                    }
                ],
                "uncleHeaders" : [
                ]
            }
        ],
        "genesisBlockHeader" : {
            "bloom" : "0x00000000000000000000000000000000000000000000000000000000000000000000000000000000000000000000000000000000000000000000000000000000000000000000000000000000000000000000000000000000000000000000000000000000000000000000000000000000000000000000000000000000000000000000000000000000000000000000000000000000000000000000000000000000000000000000000000000000000000000000000000000000000000000000000000000000000000000000000000000000000000000000000000000000000000000000000000000000000000000000000000000000000000000000000000000000",
            "coinbase" : "0x2adc25665018aa1fe0e6bc666dac8fc2697ff9ba",
            "difficulty" : "0x020000",
            "extraData" : "0x42",
            "gasLimit" : "0x01c9c380",
            "gasUsed" : "0x00",
            "hash" : "0x5c9e0e34157a921b90472106047aaaeffc15f879f2ba117adddc0cff51601277",
            "mixHash" : "0x56e81f171bcc55a6ff8345e692c0f86e5b48e01b996cadc001622fb5e363b421",
            "nonce" : "0x0102030405060708",
            "number" : "0x00",
            "parentHash" : "0x0000000000000000000000000000000000000000000000000000000000000000",
            "receiptTrie" : "0x56e81f171bcc55a6ff8345e692c0f86e5b48e01b996cadc001622fb5e363b421",
            "stateRoot" : "0x95a3c33a7f0eda324fedf1fa2a4abacdc79514cfa023d409d9b2a8531965a377",
            "timestamp" : "0x03b6",
            "transactionsTrie" : "0x56e81f171bcc55a6ff8345e692c0f86e5b48e01b996cadc001622fb5e363b421",
            "uncleHash" : "0x1dcc4de8dec75d7aab85b567b6ccd41ad312451b948a7413f0a142fd40d49347"
        },
        "genesisRLP" : "0xf901fbf901f6a00000000000000000000000000000000000000000000000000000000000000000a01dcc4de8dec75d7aab85b567b6ccd41ad312451b948a7413f0a142fd40d49347942adc25665018aa1fe0e6bc666dac8fc2697ff9baa095a3c33a7f0eda324fedf1fa2a4abacdc79514cfa023d409d9b2a8531965a377a056e81f171bcc55a6ff8345e692c0f86e5b48e01b996cadc001622fb5e363b421a056e81f171bcc55a6ff8345e692c0f86e5b48e01b996cadc001622fb5e363b421b901000000000000000000000000000000000000000000000000000000000000000000000000000000000000000000000000000000000000000000000000000000000000000000000000000000000000000000000000000000000000000000000000000000000000000000000000000000000000000000000000000000000000000000000000000000000000000000000000000000000000000000000000000000000000000000000000000000000000000000000000000000000000000000000000000000000000000000000000000000000000000000000000000000000000000000000000000000000000000000000000000000000000000000000000000000000083020000808401c9c380808203b642a056e81f171bcc55a6ff8345e692c0f86e5b48e01b996cadc001622fb5e363b421880102030405060708c0c0",
        "lastblockhash" : "0x78cad478a3562baa4a16e0734e0cc8b723065ce848208c64ba53447ee509fb51",
        "network" : "EIP150",
        "postState" : {
            "0x1000000000000000000000000000000000000000" : {
                "balance" : "0x0de0b6b5fb6fe400",
                "code" : "0x60406000604060006000731000000000000000000000000000000000000001620249f0f2600055",
                "nonce" : "0x00",
                "storage" : {
                    "0x00" : "0x01",
                    "0x01" : "0x01"
                }
            },
            "0x1000000000000000000000000000000000000001" : {
                "balance" : "0x02540be400",
                "code" : "0x60406000604060006000731000000000000000000000000000000000000002620186a0f1600155",
                "nonce" : "0x00",
                "storage" : {
                }
            },
            "0x1000000000000000000000000000000000000003" : {
                "balance" : "0x02540be400",
                "code" : "0x6001600355",
                "nonce" : "0x00",
                "storage" : {
                }
            },
            "0x2adc25665018aa1fe0e6bc666dac8fc2697ff9ba" : {
                "balance" : "0x4563918244f4a9c7",
                "code" : "",
                "nonce" : "0x00",
                "storage" : {
                }
            },
            "0xa94f5374fce5edbc8e2a8697c15331677e6ebf0b" : {
                "balance" : "0x0de0b6b3a7635639",
                "code" : "",
                "nonce" : "0x01",
                "storage" : {
                }
            }
        },
        "pre" : {
            "0x1000000000000000000000000000000000000000" : {
                "balance" : "0x0de0b6b3a7640000",
                "code" : "0x60406000604060006000731000000000000000000000000000000000000001620249f0f2600055",
                "nonce" : "0x00",
                "storage" : {
                }
            },
            "0x1000000000000000000000000000000000000001" : {
                "balance" : "0x02540be400",
                "code" : "0x60406000604060006000731000000000000000000000000000000000000002620186a0f1600155",
                "nonce" : "0x00",
                "storage" : {
                }
            },
            "0x1000000000000000000000000000000000000002" : {
                "balance" : "0x02540be400",
                "code" : "0x731000000000000000000000000000000000000000ff6040600060406000600073100000000000000000000000000000000000000361c350f1600255",
                "nonce" : "0x00",
                "storage" : {
                }
            },
            "0x1000000000000000000000000000000000000003" : {
                "balance" : "0x02540be400",
                "code" : "0x6001600355",
                "nonce" : "0x00",
                "storage" : {
                }
            },
            "0xa94f5374fce5edbc8e2a8697c15331677e6ebf0b" : {
                "balance" : "0x0de0b6b3a7640000",
                "code" : "",
                "nonce" : "0x00",
                "storage" : {
                }
            }
        }
    },
    "callcodecallcall_100_SuicideMiddle_d0g0v0_EIP158" : {
        "_info" : {
            "comment" : "",
            "filledwith" : "cpp-1.3.0+commit.6e0ce939.Linux.g++",
            "lllcversion" : "Version: 0.4.18-develop.2017.9.25+commit.a72237f2.Linux.g++",
            "source" : "src/BlockchainTestsFiller/GeneralStateTests/stCallCodes/callcodecallcall_100_SuicideMiddle_d0g0v0Filler.json",
            "sourceHash" : "5dbba242175f5ad6f6d48856a4d4b11093aca95c713cf0e75d4fadfcc159d3a5"
        },
        "blocks" : [
            {
                "blockHeader" : {
                    "bloom" : "0x00000000000000000000000000000000000000000000000000000000000000000000000000000000000000000000000000000000000000000000000000000000000000000000000000000000000000000000000000000000000000000000000000000000000000000000000000000000000000000000000000000000000000000000000000000000000000000000000000000000000000000000000000000000000000000000000000000000000000000000000000000000000000000000000000000000000000000000000000000000000000000000000000000000000000000000000000000000000000000000000000000000000000000000000000000000",
                    "coinbase" : "0x2adc25665018aa1fe0e6bc666dac8fc2697ff9ba",
                    "difficulty" : "0x020000",
                    "extraData" : "",
                    "gasLimit" : "0x01c9c380",
                    "gasUsed" : "0xa9c7",
                    "hash" : "0x8af387bf22e1f1e017c36224f739b8f6e7f7dbf6da909c26f2b8ccbd30f80afe",
                    "mixHash" : "0x1c2200ffda90ddee345f603ece9c53c5bc2c35e3ece037f498faa6f430c6c044",
                    "nonce" : "0x8bdfd09d238dcbe4",
                    "number" : "0x01",
                    "parentHash" : "0x5c9e0e34157a921b90472106047aaaeffc15f879f2ba117adddc0cff51601277",
                    "receiptTrie" : "0x5b2d90f05193d9583afc47c6a2eb38968c96c315018390d6e942ca7ecc8d06c1",
                    "stateRoot" : "0xc8f95b8d1e76c9c905cd471dde60f60fcde38bab4875e5216ac68bc51e28fd71",
                    "timestamp" : "0x03e8",
                    "transactionsTrie" : "0x5d88595a2b9f129f2901f79a207ca2d95f38ac387707e6cb1de43679d06079d4",
                    "uncleHash" : "0x1dcc4de8dec75d7aab85b567b6ccd41ad312451b948a7413f0a142fd40d49347"
                },
                "rlp" : "0xf90260f901f8a05c9e0e34157a921b90472106047aaaeffc15f879f2ba117adddc0cff51601277a01dcc4de8dec75d7aab85b567b6ccd41ad312451b948a7413f0a142fd40d49347942adc25665018aa1fe0e6bc666dac8fc2697ff9baa0c8f95b8d1e76c9c905cd471dde60f60fcde38bab4875e5216ac68bc51e28fd71a05d88595a2b9f129f2901f79a207ca2d95f38ac387707e6cb1de43679d06079d4a05b2d90f05193d9583afc47c6a2eb38968c96c315018390d6e942ca7ecc8d06c1b901000000000000000000000000000000000000000000000000000000000000000000000000000000000000000000000000000000000000000000000000000000000000000000000000000000000000000000000000000000000000000000000000000000000000000000000000000000000000000000000000000000000000000000000000000000000000000000000000000000000000000000000000000000000000000000000000000000000000000000000000000000000000000000000000000000000000000000000000000000000000000000000000000000000000000000000000000000000000000000000000000000000000000000000000000000000083020000018401c9c38082a9c78203e880a01c2200ffda90ddee345f603ece9c53c5bc2c35e3ece037f498faa6f430c6c044888bdfd09d238dcbe4f862f8608001832dc6c094100000000000000000000000000000000000000080801ba0bc3f717090c5b3d46550833ec05cc91a3c352bd18be2c0eed5ed3e54e8af58f9a03a7d01021289eca372726c91175e4f422da3147bd3961cd66ca95f1cf3619fb2c0",
                "transactions" : [
                    {
                        "data" : "",
                        "gasLimit" : "0x2dc6c0",
                        "gasPrice" : "0x01",
                        "nonce" : "0x00",
                        "r" : "0xbc3f717090c5b3d46550833ec05cc91a3c352bd18be2c0eed5ed3e54e8af58f9",
                        "s" : "0x3a7d01021289eca372726c91175e4f422da3147bd3961cd66ca95f1cf3619fb2",
                        "to" : "0x1000000000000000000000000000000000000000",
                        "v" : "0x1b",
                        "value" : "0x00"
                    }
                ],
                "uncleHeaders" : [
                ]
            }
        ],
        "genesisBlockHeader" : {
            "bloom" : "0x00000000000000000000000000000000000000000000000000000000000000000000000000000000000000000000000000000000000000000000000000000000000000000000000000000000000000000000000000000000000000000000000000000000000000000000000000000000000000000000000000000000000000000000000000000000000000000000000000000000000000000000000000000000000000000000000000000000000000000000000000000000000000000000000000000000000000000000000000000000000000000000000000000000000000000000000000000000000000000000000000000000000000000000000000000000",
            "coinbase" : "0x2adc25665018aa1fe0e6bc666dac8fc2697ff9ba",
            "difficulty" : "0x020000",
            "extraData" : "0x42",
            "gasLimit" : "0x01c9c380",
            "gasUsed" : "0x00",
            "hash" : "0x5c9e0e34157a921b90472106047aaaeffc15f879f2ba117adddc0cff51601277",
            "mixHash" : "0x56e81f171bcc55a6ff8345e692c0f86e5b48e01b996cadc001622fb5e363b421",
            "nonce" : "0x0102030405060708",
            "number" : "0x00",
            "parentHash" : "0x0000000000000000000000000000000000000000000000000000000000000000",
            "receiptTrie" : "0x56e81f171bcc55a6ff8345e692c0f86e5b48e01b996cadc001622fb5e363b421",
            "stateRoot" : "0x95a3c33a7f0eda324fedf1fa2a4abacdc79514cfa023d409d9b2a8531965a377",
            "timestamp" : "0x03b6",
            "transactionsTrie" : "0x56e81f171bcc55a6ff8345e692c0f86e5b48e01b996cadc001622fb5e363b421",
            "uncleHash" : "0x1dcc4de8dec75d7aab85b567b6ccd41ad312451b948a7413f0a142fd40d49347"
        },
        "genesisRLP" : "0xf901fbf901f6a00000000000000000000000000000000000000000000000000000000000000000a01dcc4de8dec75d7aab85b567b6ccd41ad312451b948a7413f0a142fd40d49347942adc25665018aa1fe0e6bc666dac8fc2697ff9baa095a3c33a7f0eda324fedf1fa2a4abacdc79514cfa023d409d9b2a8531965a377a056e81f171bcc55a6ff8345e692c0f86e5b48e01b996cadc001622fb5e363b421a056e81f171bcc55a6ff8345e692c0f86e5b48e01b996cadc001622fb5e363b421b901000000000000000000000000000000000000000000000000000000000000000000000000000000000000000000000000000000000000000000000000000000000000000000000000000000000000000000000000000000000000000000000000000000000000000000000000000000000000000000000000000000000000000000000000000000000000000000000000000000000000000000000000000000000000000000000000000000000000000000000000000000000000000000000000000000000000000000000000000000000000000000000000000000000000000000000000000000000000000000000000000000000000000000000000000000000083020000808401c9c380808203b642a056e81f171bcc55a6ff8345e692c0f86e5b48e01b996cadc001622fb5e363b421880102030405060708c0c0",
        "lastblockhash" : "0x8af387bf22e1f1e017c36224f739b8f6e7f7dbf6da909c26f2b8ccbd30f80afe",
        "network" : "EIP158",
        "postState" : {
            "0x1000000000000000000000000000000000000000" : {
                "balance" : "0x0de0b6b5fb6fe400",
                "code" : "0x60406000604060006000731000000000000000000000000000000000000001620249f0f2600055",
                "nonce" : "0x00",
                "storage" : {
                    "0x00" : "0x01",
                    "0x01" : "0x01"
                }
            },
            "0x1000000000000000000000000000000000000001" : {
                "balance" : "0x02540be400",
                "code" : "0x60406000604060006000731000000000000000000000000000000000000002620186a0f1600155",
                "nonce" : "0x00",
                "storage" : {
                }
            },
            "0x1000000000000000000000000000000000000003" : {
                "balance" : "0x02540be400",
                "code" : "0x6001600355",
                "nonce" : "0x00",
                "storage" : {
                }
            },
            "0x2adc25665018aa1fe0e6bc666dac8fc2697ff9ba" : {
                "balance" : "0x4563918244f4a9c7",
                "code" : "",
                "nonce" : "0x00",
                "storage" : {
                }
            },
            "0xa94f5374fce5edbc8e2a8697c15331677e6ebf0b" : {
                "balance" : "0x0de0b6b3a7635639",
                "code" : "",
                "nonce" : "0x01",
                "storage" : {
                }
            }
        },
        "pre" : {
            "0x1000000000000000000000000000000000000000" : {
                "balance" : "0x0de0b6b3a7640000",
                "code" : "0x60406000604060006000731000000000000000000000000000000000000001620249f0f2600055",
                "nonce" : "0x00",
                "storage" : {
                }
            },
            "0x1000000000000000000000000000000000000001" : {
                "balance" : "0x02540be400",
                "code" : "0x60406000604060006000731000000000000000000000000000000000000002620186a0f1600155",
                "nonce" : "0x00",
                "storage" : {
                }
            },
            "0x1000000000000000000000000000000000000002" : {
                "balance" : "0x02540be400",
                "code" : "0x731000000000000000000000000000000000000000ff6040600060406000600073100000000000000000000000000000000000000361c350f1600255",
                "nonce" : "0x00",
                "storage" : {
                }
            },
            "0x1000000000000000000000000000000000000003" : {
                "balance" : "0x02540be400",
                "code" : "0x6001600355",
                "nonce" : "0x00",
                "storage" : {
                }
            },
            "0xa94f5374fce5edbc8e2a8697c15331677e6ebf0b" : {
                "balance" : "0x0de0b6b3a7640000",
                "code" : "",
                "nonce" : "0x00",
                "storage" : {
                }
            }
        }
    },
    "callcodecallcall_100_SuicideMiddle_d0g0v0_Frontier" : {
        "_info" : {
            "comment" : "",
            "filledwith" : "cpp-1.3.0+commit.6e0ce939.Linux.g++",
            "lllcversion" : "Version: 0.4.18-develop.2017.9.25+commit.a72237f2.Linux.g++",
            "source" : "src/BlockchainTestsFiller/GeneralStateTests/stCallCodes/callcodecallcall_100_SuicideMiddle_d0g0v0Filler.json",
            "sourceHash" : "5dbba242175f5ad6f6d48856a4d4b11093aca95c713cf0e75d4fadfcc159d3a5"
        },
        "blocks" : [
            {
                "blockHeader" : {
                    "bloom" : "0x00000000000000000000000000000000000000000000000000000000000000000000000000000000000000000000000000000000000000000000000000000000000000000000000000000000000000000000000000000000000000000000000000000000000000000000000000000000000000000000000000000000000000000000000000000000000000000000000000000000000000000000000000000000000000000000000000000000000000000000000000000000000000000000000000000000000000000000000000000000000000000000000000000000000000000000000000000000000000000000000000000000000000000000000000000000",
                    "coinbase" : "0x2adc25665018aa1fe0e6bc666dac8fc2697ff9ba",
                    "difficulty" : "0x020000",
                    "extraData" : "",
                    "gasLimit" : "0x01c9c380",
                    "gasUsed" : "0x9117",
                    "hash" : "0xa4c4ac1eb4ba7eb99e70f5eda0a23b9ec30030ec0b7630259eb709b99e073b50",
                    "mixHash" : "0xc21abc0fd73a6494b725d18c3e046f424bae49be28fa88f930729704825d6113",
                    "nonce" : "0xad3d07237cdf45fa",
                    "number" : "0x01",
                    "parentHash" : "0x5c9e0e34157a921b90472106047aaaeffc15f879f2ba117adddc0cff51601277",
                    "receiptTrie" : "0xeec8cda126c8c4c3d36d6fe6e22238746389e1ba2ca2ff78ca071fff194c3dd6",
                    "stateRoot" : "0x9803dcf2f868c40ef5f1f78fcef90b9bbad648aa51f773e8ac3cec56edd2306e",
                    "timestamp" : "0x03e8",
                    "transactionsTrie" : "0x5d88595a2b9f129f2901f79a207ca2d95f38ac387707e6cb1de43679d06079d4",
                    "uncleHash" : "0x1dcc4de8dec75d7aab85b567b6ccd41ad312451b948a7413f0a142fd40d49347"
                },
                "rlp" : "0xf90260f901f8a05c9e0e34157a921b90472106047aaaeffc15f879f2ba117adddc0cff51601277a01dcc4de8dec75d7aab85b567b6ccd41ad312451b948a7413f0a142fd40d49347942adc25665018aa1fe0e6bc666dac8fc2697ff9baa09803dcf2f868c40ef5f1f78fcef90b9bbad648aa51f773e8ac3cec56edd2306ea05d88595a2b9f129f2901f79a207ca2d95f38ac387707e6cb1de43679d06079d4a0eec8cda126c8c4c3d36d6fe6e22238746389e1ba2ca2ff78ca071fff194c3dd6b901000000000000000000000000000000000000000000000000000000000000000000000000000000000000000000000000000000000000000000000000000000000000000000000000000000000000000000000000000000000000000000000000000000000000000000000000000000000000000000000000000000000000000000000000000000000000000000000000000000000000000000000000000000000000000000000000000000000000000000000000000000000000000000000000000000000000000000000000000000000000000000000000000000000000000000000000000000000000000000000000000000000000000000000000000000000083020000018401c9c3808291178203e880a0c21abc0fd73a6494b725d18c3e046f424bae49be28fa88f930729704825d611388ad3d07237cdf45faf862f8608001832dc6c094100000000000000000000000000000000000000080801ba0bc3f717090c5b3d46550833ec05cc91a3c352bd18be2c0eed5ed3e54e8af58f9a03a7d01021289eca372726c91175e4f422da3147bd3961cd66ca95f1cf3619fb2c0",
                "transactions" : [
                    {
                        "data" : "",
                        "gasLimit" : "0x2dc6c0",
                        "gasPrice" : "0x01",
                        "nonce" : "0x00",
                        "r" : "0xbc3f717090c5b3d46550833ec05cc91a3c352bd18be2c0eed5ed3e54e8af58f9",
                        "s" : "0x3a7d01021289eca372726c91175e4f422da3147bd3961cd66ca95f1cf3619fb2",
                        "to" : "0x1000000000000000000000000000000000000000",
                        "v" : "0x1b",
                        "value" : "0x00"
                    }
                ],
                "uncleHeaders" : [
                ]
            }
        ],
        "genesisBlockHeader" : {
            "bloom" : "0x00000000000000000000000000000000000000000000000000000000000000000000000000000000000000000000000000000000000000000000000000000000000000000000000000000000000000000000000000000000000000000000000000000000000000000000000000000000000000000000000000000000000000000000000000000000000000000000000000000000000000000000000000000000000000000000000000000000000000000000000000000000000000000000000000000000000000000000000000000000000000000000000000000000000000000000000000000000000000000000000000000000000000000000000000000000",
            "coinbase" : "0x2adc25665018aa1fe0e6bc666dac8fc2697ff9ba",
            "difficulty" : "0x020000",
            "extraData" : "0x42",
            "gasLimit" : "0x01c9c380",
            "gasUsed" : "0x00",
            "hash" : "0x5c9e0e34157a921b90472106047aaaeffc15f879f2ba117adddc0cff51601277",
            "mixHash" : "0x56e81f171bcc55a6ff8345e692c0f86e5b48e01b996cadc001622fb5e363b421",
            "nonce" : "0x0102030405060708",
            "number" : "0x00",
            "parentHash" : "0x0000000000000000000000000000000000000000000000000000000000000000",
            "receiptTrie" : "0x56e81f171bcc55a6ff8345e692c0f86e5b48e01b996cadc001622fb5e363b421",
            "stateRoot" : "0x95a3c33a7f0eda324fedf1fa2a4abacdc79514cfa023d409d9b2a8531965a377",
            "timestamp" : "0x03b6",
            "transactionsTrie" : "0x56e81f171bcc55a6ff8345e692c0f86e5b48e01b996cadc001622fb5e363b421",
            "uncleHash" : "0x1dcc4de8dec75d7aab85b567b6ccd41ad312451b948a7413f0a142fd40d49347"
        },
        "genesisRLP" : "0xf901fbf901f6a00000000000000000000000000000000000000000000000000000000000000000a01dcc4de8dec75d7aab85b567b6ccd41ad312451b948a7413f0a142fd40d49347942adc25665018aa1fe0e6bc666dac8fc2697ff9baa095a3c33a7f0eda324fedf1fa2a4abacdc79514cfa023d409d9b2a8531965a377a056e81f171bcc55a6ff8345e692c0f86e5b48e01b996cadc001622fb5e363b421a056e81f171bcc55a6ff8345e692c0f86e5b48e01b996cadc001622fb5e363b421b901000000000000000000000000000000000000000000000000000000000000000000000000000000000000000000000000000000000000000000000000000000000000000000000000000000000000000000000000000000000000000000000000000000000000000000000000000000000000000000000000000000000000000000000000000000000000000000000000000000000000000000000000000000000000000000000000000000000000000000000000000000000000000000000000000000000000000000000000000000000000000000000000000000000000000000000000000000000000000000000000000000000000000000000000000000000083020000808401c9c380808203b642a056e81f171bcc55a6ff8345e692c0f86e5b48e01b996cadc001622fb5e363b421880102030405060708c0c0",
        "lastblockhash" : "0xa4c4ac1eb4ba7eb99e70f5eda0a23b9ec30030ec0b7630259eb709b99e073b50",
        "network" : "Frontier",
        "postState" : {
            "0x1000000000000000000000000000000000000000" : {
                "balance" : "0x0de0b6b5fb6fe400",
                "code" : "0x60406000604060006000731000000000000000000000000000000000000001620249f0f2600055",
                "nonce" : "0x00",
                "storage" : {
                    "0x00" : "0x01",
                    "0x01" : "0x01"
                }
            },
            "0x1000000000000000000000000000000000000001" : {
                "balance" : "0x02540be400",
                "code" : "0x60406000604060006000731000000000000000000000000000000000000002620186a0f1600155",
                "nonce" : "0x00",
                "storage" : {
                }
            },
            "0x1000000000000000000000000000000000000003" : {
                "balance" : "0x02540be400",
                "code" : "0x6001600355",
                "nonce" : "0x00",
                "storage" : {
                }
            },
            "0x2adc25665018aa1fe0e6bc666dac8fc2697ff9ba" : {
                "balance" : "0x4563918244f49117",
                "code" : "",
                "nonce" : "0x00",
                "storage" : {
                }
            },
            "0xa94f5374fce5edbc8e2a8697c15331677e6ebf0b" : {
                "balance" : "0x0de0b6b3a7636ee9",
                "code" : "",
                "nonce" : "0x01",
                "storage" : {
                }
            }
        },
        "pre" : {
            "0x1000000000000000000000000000000000000000" : {
                "balance" : "0x0de0b6b3a7640000",
                "code" : "0x60406000604060006000731000000000000000000000000000000000000001620249f0f2600055",
                "nonce" : "0x00",
                "storage" : {
                }
            },
            "0x1000000000000000000000000000000000000001" : {
                "balance" : "0x02540be400",
                "code" : "0x60406000604060006000731000000000000000000000000000000000000002620186a0f1600155",
                "nonce" : "0x00",
                "storage" : {
                }
            },
            "0x1000000000000000000000000000000000000002" : {
                "balance" : "0x02540be400",
                "code" : "0x731000000000000000000000000000000000000000ff6040600060406000600073100000000000000000000000000000000000000361c350f1600255",
                "nonce" : "0x00",
                "storage" : {
                }
            },
            "0x1000000000000000000000000000000000000003" : {
                "balance" : "0x02540be400",
                "code" : "0x6001600355",
                "nonce" : "0x00",
                "storage" : {
                }
            },
            "0xa94f5374fce5edbc8e2a8697c15331677e6ebf0b" : {
                "balance" : "0x0de0b6b3a7640000",
                "code" : "",
                "nonce" : "0x00",
                "storage" : {
                }
            }
        }
    },
    "callcodecallcall_100_SuicideMiddle_d0g0v0_Homestead" : {
        "_info" : {
            "comment" : "",
            "filledwith" : "cpp-1.3.0+commit.6e0ce939.Linux.g++",
            "lllcversion" : "Version: 0.4.18-develop.2017.9.25+commit.a72237f2.Linux.g++",
            "source" : "src/BlockchainTestsFiller/GeneralStateTests/stCallCodes/callcodecallcall_100_SuicideMiddle_d0g0v0Filler.json",
            "sourceHash" : "5dbba242175f5ad6f6d48856a4d4b11093aca95c713cf0e75d4fadfcc159d3a5"
        },
        "blocks" : [
            {
                "blockHeader" : {
                    "bloom" : "0x00000000000000000000000000000000000000000000000000000000000000000000000000000000000000000000000000000000000000000000000000000000000000000000000000000000000000000000000000000000000000000000000000000000000000000000000000000000000000000000000000000000000000000000000000000000000000000000000000000000000000000000000000000000000000000000000000000000000000000000000000000000000000000000000000000000000000000000000000000000000000000000000000000000000000000000000000000000000000000000000000000000000000000000000000000000",
                    "coinbase" : "0x2adc25665018aa1fe0e6bc666dac8fc2697ff9ba",
                    "difficulty" : "0x020000",
                    "extraData" : "",
                    "gasLimit" : "0x01c9c380",
                    "gasUsed" : "0x9117",
                    "hash" : "0x61211494524f989cf791ffe04f1c38902da9b2107b9bf82f5139b48e1b57ac23",
                    "mixHash" : "0x3214804f50b80183ebaa9662b088455f090bea5e216bc7a5ebb420a38483a15d",
                    "nonce" : "0x7b3501b4811991be",
                    "number" : "0x01",
                    "parentHash" : "0x5c9e0e34157a921b90472106047aaaeffc15f879f2ba117adddc0cff51601277",
                    "receiptTrie" : "0xeec8cda126c8c4c3d36d6fe6e22238746389e1ba2ca2ff78ca071fff194c3dd6",
                    "stateRoot" : "0x9803dcf2f868c40ef5f1f78fcef90b9bbad648aa51f773e8ac3cec56edd2306e",
                    "timestamp" : "0x03e8",
                    "transactionsTrie" : "0x5d88595a2b9f129f2901f79a207ca2d95f38ac387707e6cb1de43679d06079d4",
                    "uncleHash" : "0x1dcc4de8dec75d7aab85b567b6ccd41ad312451b948a7413f0a142fd40d49347"
                },
                "rlp" : "0xf90260f901f8a05c9e0e34157a921b90472106047aaaeffc15f879f2ba117adddc0cff51601277a01dcc4de8dec75d7aab85b567b6ccd41ad312451b948a7413f0a142fd40d49347942adc25665018aa1fe0e6bc666dac8fc2697ff9baa09803dcf2f868c40ef5f1f78fcef90b9bbad648aa51f773e8ac3cec56edd2306ea05d88595a2b9f129f2901f79a207ca2d95f38ac387707e6cb1de43679d06079d4a0eec8cda126c8c4c3d36d6fe6e22238746389e1ba2ca2ff78ca071fff194c3dd6b901000000000000000000000000000000000000000000000000000000000000000000000000000000000000000000000000000000000000000000000000000000000000000000000000000000000000000000000000000000000000000000000000000000000000000000000000000000000000000000000000000000000000000000000000000000000000000000000000000000000000000000000000000000000000000000000000000000000000000000000000000000000000000000000000000000000000000000000000000000000000000000000000000000000000000000000000000000000000000000000000000000000000000000000000000000000083020000018401c9c3808291178203e880a03214804f50b80183ebaa9662b088455f090bea5e216bc7a5ebb420a38483a15d887b3501b4811991bef862f8608001832dc6c094100000000000000000000000000000000000000080801ba0bc3f717090c5b3d46550833ec05cc91a3c352bd18be2c0eed5ed3e54e8af58f9a03a7d01021289eca372726c91175e4f422da3147bd3961cd66ca95f1cf3619fb2c0",
                "transactions" : [
                    {
                        "data" : "",
                        "gasLimit" : "0x2dc6c0",
                        "gasPrice" : "0x01",
                        "nonce" : "0x00",
                        "r" : "0xbc3f717090c5b3d46550833ec05cc91a3c352bd18be2c0eed5ed3e54e8af58f9",
                        "s" : "0x3a7d01021289eca372726c91175e4f422da3147bd3961cd66ca95f1cf3619fb2",
                        "to" : "0x1000000000000000000000000000000000000000",
                        "v" : "0x1b",
                        "value" : "0x00"
                    }
                ],
                "uncleHeaders" : [
                ]
            }
        ],
        "genesisBlockHeader" : {
            "bloom" : "0x00000000000000000000000000000000000000000000000000000000000000000000000000000000000000000000000000000000000000000000000000000000000000000000000000000000000000000000000000000000000000000000000000000000000000000000000000000000000000000000000000000000000000000000000000000000000000000000000000000000000000000000000000000000000000000000000000000000000000000000000000000000000000000000000000000000000000000000000000000000000000000000000000000000000000000000000000000000000000000000000000000000000000000000000000000000",
            "coinbase" : "0x2adc25665018aa1fe0e6bc666dac8fc2697ff9ba",
            "difficulty" : "0x020000",
            "extraData" : "0x42",
            "gasLimit" : "0x01c9c380",
            "gasUsed" : "0x00",
            "hash" : "0x5c9e0e34157a921b90472106047aaaeffc15f879f2ba117adddc0cff51601277",
            "mixHash" : "0x56e81f171bcc55a6ff8345e692c0f86e5b48e01b996cadc001622fb5e363b421",
            "nonce" : "0x0102030405060708",
            "number" : "0x00",
            "parentHash" : "0x0000000000000000000000000000000000000000000000000000000000000000",
            "receiptTrie" : "0x56e81f171bcc55a6ff8345e692c0f86e5b48e01b996cadc001622fb5e363b421",
            "stateRoot" : "0x95a3c33a7f0eda324fedf1fa2a4abacdc79514cfa023d409d9b2a8531965a377",
            "timestamp" : "0x03b6",
            "transactionsTrie" : "0x56e81f171bcc55a6ff8345e692c0f86e5b48e01b996cadc001622fb5e363b421",
            "uncleHash" : "0x1dcc4de8dec75d7aab85b567b6ccd41ad312451b948a7413f0a142fd40d49347"
        },
        "genesisRLP" : "0xf901fbf901f6a00000000000000000000000000000000000000000000000000000000000000000a01dcc4de8dec75d7aab85b567b6ccd41ad312451b948a7413f0a142fd40d49347942adc25665018aa1fe0e6bc666dac8fc2697ff9baa095a3c33a7f0eda324fedf1fa2a4abacdc79514cfa023d409d9b2a8531965a377a056e81f171bcc55a6ff8345e692c0f86e5b48e01b996cadc001622fb5e363b421a056e81f171bcc55a6ff8345e692c0f86e5b48e01b996cadc001622fb5e363b421b901000000000000000000000000000000000000000000000000000000000000000000000000000000000000000000000000000000000000000000000000000000000000000000000000000000000000000000000000000000000000000000000000000000000000000000000000000000000000000000000000000000000000000000000000000000000000000000000000000000000000000000000000000000000000000000000000000000000000000000000000000000000000000000000000000000000000000000000000000000000000000000000000000000000000000000000000000000000000000000000000000000000000000000000000000000000083020000808401c9c380808203b642a056e81f171bcc55a6ff8345e692c0f86e5b48e01b996cadc001622fb5e363b421880102030405060708c0c0",
        "lastblockhash" : "0x61211494524f989cf791ffe04f1c38902da9b2107b9bf82f5139b48e1b57ac23",
        "network" : "Homestead",
        "postState" : {
            "0x1000000000000000000000000000000000000000" : {
                "balance" : "0x0de0b6b5fb6fe400",
                "code" : "0x60406000604060006000731000000000000000000000000000000000000001620249f0f2600055",
                "nonce" : "0x00",
                "storage" : {
                    "0x00" : "0x01",
                    "0x01" : "0x01"
                }
            },
            "0x1000000000000000000000000000000000000001" : {
                "balance" : "0x02540be400",
                "code" : "0x60406000604060006000731000000000000000000000000000000000000002620186a0f1600155",
                "nonce" : "0x00",
                "storage" : {
                }
            },
            "0x1000000000000000000000000000000000000003" : {
                "balance" : "0x02540be400",
                "code" : "0x6001600355",
                "nonce" : "0x00",
                "storage" : {
                }
            },
            "0x2adc25665018aa1fe0e6bc666dac8fc2697ff9ba" : {
                "balance" : "0x4563918244f49117",
                "code" : "",
                "nonce" : "0x00",
                "storage" : {
                }
            },
            "0xa94f5374fce5edbc8e2a8697c15331677e6ebf0b" : {
                "balance" : "0x0de0b6b3a7636ee9",
                "code" : "",
                "nonce" : "0x01",
                "storage" : {
                }
            }
        },
        "pre" : {
            "0x1000000000000000000000000000000000000000" : {
                "balance" : "0x0de0b6b3a7640000",
                "code" : "0x60406000604060006000731000000000000000000000000000000000000001620249f0f2600055",
                "nonce" : "0x00",
                "storage" : {
                }
            },
            "0x1000000000000000000000000000000000000001" : {
                "balance" : "0x02540be400",
                "code" : "0x60406000604060006000731000000000000000000000000000000000000002620186a0f1600155",
                "nonce" : "0x00",
                "storage" : {
                }
            },
            "0x1000000000000000000000000000000000000002" : {
                "balance" : "0x02540be400",
                "code" : "0x731000000000000000000000000000000000000000ff6040600060406000600073100000000000000000000000000000000000000361c350f1600255",
                "nonce" : "0x00",
                "storage" : {
                }
            },
            "0x1000000000000000000000000000000000000003" : {
                "balance" : "0x02540be400",
                "code" : "0x6001600355",
                "nonce" : "0x00",
                "storage" : {
                }
            },
            "0xa94f5374fce5edbc8e2a8697c15331677e6ebf0b" : {
                "balance" : "0x0de0b6b3a7640000",
                "code" : "",
                "nonce" : "0x00",
                "storage" : {
                }
            }
        }
    }
}