{
    "call_OOG_additionalGasCosts2_d0g0v0_Byzantium" : {
        "_info" : {
            "comment" : "",
            "filledwith" : "cpp-1.3.0+commit.6e0ce939.Linux.g++",
            "lllcversion" : "Version: 0.4.18-develop.2017.9.25+commit.a72237f2.Linux.g++",
            "source" : "src/BlockchainTestsFiller/GeneralStateTests/stCallCodes/call_OOG_additionalGasCosts2_d0g0v0Filler.json",
            "sourceHash" : "3d962a56218e5f32ad351c1525613e7540fbfc3363bb55a835f99ff81bb7aa7b"
        },
        "blocks" : [
            {
                "blockHeader" : {
                    "bloom" : "0x00000000000000000000000000000000000000000000000000000000000000000000000000000000000000000000000000000000000000000000000000000000000000000000000000000000000000000000000000000000000000000000000000000000000000000000000000000000000000000000000000000000000000000000000000000000000000000000000000000000000000000000000000000000000000000000000000000000000000000000000000000000000000000000000000000000000000000000000000000000000000000000000000000000000000000000000000000000000000000000000000000000000000000000000000000000",
                    "coinbase" : "0x2adc25665018aa1fe0e6bc666dac8fc2697ff9ba",
                    "difficulty" : "0x020000",
                    "extraData" : "",
                    "gasLimit" : "0xb2d05e00",
                    "gasUsed" : "0x7530",
                    "hash" : "0xaa2f9aae414fea796cf9d3f25ab9a49de5785ead37b6227bd18e2a0460d16d58",
                    "mixHash" : "0xcc3a870db4b70b9e8e3e7b6cd61125591cf69d930b14cddf906fd9257b0773a6",
                    "nonce" : "0x20cd9f841f1da205",
                    "number" : "0x01",
                    "parentHash" : "0xeda5185e6da695988ad7b28e814d1635bb885e7efc71af1bb043939663cc24bb",
                    "receiptTrie" : "0x534bc8a8ee133a0149a231d40d07e2c48f12f5efa5a83b4384664950ad49de0b",
                    "stateRoot" : "0x1c72f88253a921216202b7f42aafce030385873bbe193106287ff625863a94ec",
                    "timestamp" : "0x03e8",
                    "transactionsTrie" : "0x2502bb435e833b0f29e4796c5b1d9afaf66fa21ccfa2666d6b2814d6ae43fc01",
                    "uncleHash" : "0x1dcc4de8dec75d7aab85b567b6ccd41ad312451b948a7413f0a142fd40d49347"
                },
                "rlp" : "0xf9025ff901f8a0eda5185e6da695988ad7b28e814d1635bb885e7efc71af1bb043939663cc24bba01dcc4de8dec75d7aab85b567b6ccd41ad312451b948a7413f0a142fd40d49347942adc25665018aa1fe0e6bc666dac8fc2697ff9baa01c72f88253a921216202b7f42aafce030385873bbe193106287ff625863a94eca02502bb435e833b0f29e4796c5b1d9afaf66fa21ccfa2666d6b2814d6ae43fc01a0534bc8a8ee133a0149a231d40d07e2c48f12f5efa5a83b4384664950ad49de0bb9010000000000000000000000000000000000000000000000000000000000000000000000000000000000000000000000000000000000000000000000000000000000000000000000000000000000000000000000000000000000000000000000000000000000000000000000000000000000000000000000000000000000000000000000000000000000000000000000000000000000000000000000000000000000000000000000000000000000000000000000000000000000000000000000000000000000000000000000000000000000000000000000000000000000000000000000000000000000000000000000000000000000000000000000000000000000830200000184b2d05e008275308203e880a0cc3a870db4b70b9e8e3e7b6cd61125591cf69d930b14cddf906fd9257b0773a68820cd9f841f1da205f861f85f800182753094100000000000000000000000000000000000000080801ba06f7662bd87cd5f4859e87e9e35b1f1428809c2b7e5dc96bcb18f1e1ecb3578bfa053a364d78ab6b27e1cd11be8a164e5060798ca450f06ad4c48b4e134d9d8b1dbc0",
                "transactions" : [
                    {
                        "data" : "",
                        "gasLimit" : "0x7530",
                        "gasPrice" : "0x01",
                        "nonce" : "0x00",
                        "r" : "0x6f7662bd87cd5f4859e87e9e35b1f1428809c2b7e5dc96bcb18f1e1ecb3578bf",
                        "s" : "0x53a364d78ab6b27e1cd11be8a164e5060798ca450f06ad4c48b4e134d9d8b1db",
                        "to" : "0x1000000000000000000000000000000000000000",
                        "v" : "0x1b",
                        "value" : "0x00"
                    }
                ],
                "uncleHeaders" : [
                ]
            }
        ],
        "genesisBlockHeader" : {
            "bloom" : "0x00000000000000000000000000000000000000000000000000000000000000000000000000000000000000000000000000000000000000000000000000000000000000000000000000000000000000000000000000000000000000000000000000000000000000000000000000000000000000000000000000000000000000000000000000000000000000000000000000000000000000000000000000000000000000000000000000000000000000000000000000000000000000000000000000000000000000000000000000000000000000000000000000000000000000000000000000000000000000000000000000000000000000000000000000000000",
            "coinbase" : "0x2adc25665018aa1fe0e6bc666dac8fc2697ff9ba",
            "difficulty" : "0x020000",
            "extraData" : "0x42",
            "gasLimit" : "0xb2d05e00",
            "gasUsed" : "0x00",
            "hash" : "0xeda5185e6da695988ad7b28e814d1635bb885e7efc71af1bb043939663cc24bb",
            "mixHash" : "0x56e81f171bcc55a6ff8345e692c0f86e5b48e01b996cadc001622fb5e363b421",
            "nonce" : "0x0102030405060708",
            "number" : "0x00",
            "parentHash" : "0x0000000000000000000000000000000000000000000000000000000000000000",
            "receiptTrie" : "0x56e81f171bcc55a6ff8345e692c0f86e5b48e01b996cadc001622fb5e363b421",
            "stateRoot" : "0xb56d1a76a25f077d43f44ca752497f331f82701dadb09151660529dfd2464a1c",
            "timestamp" : "0x03b6",
            "transactionsTrie" : "0x56e81f171bcc55a6ff8345e692c0f86e5b48e01b996cadc001622fb5e363b421",
            "uncleHash" : "0x1dcc4de8dec75d7aab85b567b6ccd41ad312451b948a7413f0a142fd40d49347"
        },
        "genesisRLP" : "0xf901fbf901f6a00000000000000000000000000000000000000000000000000000000000000000a01dcc4de8dec75d7aab85b567b6ccd41ad312451b948a7413f0a142fd40d49347942adc25665018aa1fe0e6bc666dac8fc2697ff9baa0b56d1a76a25f077d43f44ca752497f331f82701dadb09151660529dfd2464a1ca056e81f171bcc55a6ff8345e692c0f86e5b48e01b996cadc001622fb5e363b421a056e81f171bcc55a6ff8345e692c0f86e5b48e01b996cadc001622fb5e363b421b9010000000000000000000000000000000000000000000000000000000000000000000000000000000000000000000000000000000000000000000000000000000000000000000000000000000000000000000000000000000000000000000000000000000000000000000000000000000000000000000000000000000000000000000000000000000000000000000000000000000000000000000000000000000000000000000000000000000000000000000000000000000000000000000000000000000000000000000000000000000000000000000000000000000000000000000000000000000000000000000000000000000000000000000000000000000000830200008084b2d05e00808203b642a056e81f171bcc55a6ff8345e692c0f86e5b48e01b996cadc001622fb5e363b421880102030405060708c0c0",
        "lastblockhash" : "0xaa2f9aae414fea796cf9d3f25ab9a49de5785ead37b6227bd18e2a0460d16d58",
        "network" : "Byzantium",
        "postState" : {
            "0x1000000000000000000000000000000000000000" : {
                "balance" : "0x0de0b6b3a7640000",
                "code" : "0x60406000604060006001731000000000000000000000000000000000000001611770f1",
                "nonce" : "0x00",
                "storage" : {
                }
            },
            "0x1000000000000000000000000000000000000001" : {
                "balance" : "0x00",
                "code" : "",
                "nonce" : "0x00",
                "storage" : {
                }
            },
            "0x2adc25665018aa1fe0e6bc666dac8fc2697ff9ba" : {
                "balance" : "0x29a2241af62c7530",
                "code" : "",
                "nonce" : "0x00",
                "storage" : {
                }
            },
            "0xa94f5374fce5edbc8e2a8697c15331677e6ebf0b" : {
                "balance" : "0x0de0b6b3a7638ad0",
                "code" : "",
                "nonce" : "0x01",
                "storage" : {
                }
            }
        },
        "pre" : {
            "0x1000000000000000000000000000000000000000" : {
                "balance" : "0x0de0b6b3a7640000",
                "code" : "0x60406000604060006001731000000000000000000000000000000000000001611770f1",
                "nonce" : "0x00",
                "storage" : {
                }
            },
            "0x1000000000000000000000000000000000000001" : {
                "balance" : "0x00",
                "code" : "",
                "nonce" : "0x00",
                "storage" : {
                }
            },
            "0xa94f5374fce5edbc8e2a8697c15331677e6ebf0b" : {
                "balance" : "0x0de0b6b3a7640000",
                "code" : "",
                "nonce" : "0x00",
                "storage" : {
                }
            }
        }
    },
    "call_OOG_additionalGasCosts2_d0g0v0_EIP150" : {
        "_info" : {
            "comment" : "",
            "filledwith" : "cpp-1.3.0+commit.6e0ce939.Linux.g++",
            "lllcversion" : "Version: 0.4.18-develop.2017.9.25+commit.a72237f2.Linux.g++",
            "source" : "src/BlockchainTestsFiller/GeneralStateTests/stCallCodes/call_OOG_additionalGasCosts2_d0g0v0Filler.json",
            "sourceHash" : "3d962a56218e5f32ad351c1525613e7540fbfc3363bb55a835f99ff81bb7aa7b"
        },
        "blocks" : [
            {
                "blockHeader" : {
                    "bloom" : "0x00000000000000000000000000000000000000000000000000000000000000000000000000000000000000000000000000000000000000000000000000000000000000000000000000000000000000000000000000000000000000000000000000000000000000000000000000000000000000000000000000000000000000000000000000000000000000000000000000000000000000000000000000000000000000000000000000000000000000000000000000000000000000000000000000000000000000000000000000000000000000000000000000000000000000000000000000000000000000000000000000000000000000000000000000000000",
                    "coinbase" : "0x2adc25665018aa1fe0e6bc666dac8fc2697ff9ba",
                    "difficulty" : "0x020000",
                    "extraData" : "",
                    "gasLimit" : "0xb2d05e00",
                    "gasUsed" : "0x7530",
                    "hash" : "0x8da2f3fa66176306945d42ec80935b1c4ac3fb6c25f131b5a7afb11409b5e7cc",
                    "mixHash" : "0x607b722eb12862decc3dac57c2900480305bdb7e66af5b1cf74cdc355ede6db6",
                    "nonce" : "0x8ec364f30ecf189a",
                    "number" : "0x01",
                    "parentHash" : "0xeda5185e6da695988ad7b28e814d1635bb885e7efc71af1bb043939663cc24bb",
                    "receiptTrie" : "0x7f4f310f5f85841c927ba069a5b6215624ad7c8bd577d726cd0dfbec59b92bbb",
                    "stateRoot" : "0x43446c2351380e5218693b6e1cddcd8cfa2fc5cd19e58d7fa833876a6707671a",
                    "timestamp" : "0x03e8",
                    "transactionsTrie" : "0x2502bb435e833b0f29e4796c5b1d9afaf66fa21ccfa2666d6b2814d6ae43fc01",
                    "uncleHash" : "0x1dcc4de8dec75d7aab85b567b6ccd41ad312451b948a7413f0a142fd40d49347"
                },
                "rlp" : "0xf9025ff901f8a0eda5185e6da695988ad7b28e814d1635bb885e7efc71af1bb043939663cc24bba01dcc4de8dec75d7aab85b567b6ccd41ad312451b948a7413f0a142fd40d49347942adc25665018aa1fe0e6bc666dac8fc2697ff9baa043446c2351380e5218693b6e1cddcd8cfa2fc5cd19e58d7fa833876a6707671aa02502bb435e833b0f29e4796c5b1d9afaf66fa21ccfa2666d6b2814d6ae43fc01a07f4f310f5f85841c927ba069a5b6215624ad7c8bd577d726cd0dfbec59b92bbbb9010000000000000000000000000000000000000000000000000000000000000000000000000000000000000000000000000000000000000000000000000000000000000000000000000000000000000000000000000000000000000000000000000000000000000000000000000000000000000000000000000000000000000000000000000000000000000000000000000000000000000000000000000000000000000000000000000000000000000000000000000000000000000000000000000000000000000000000000000000000000000000000000000000000000000000000000000000000000000000000000000000000000000000000000000000000000830200000184b2d05e008275308203e880a0607b722eb12862decc3dac57c2900480305bdb7e66af5b1cf74cdc355ede6db6888ec364f30ecf189af861f85f800182753094100000000000000000000000000000000000000080801ba06f7662bd87cd5f4859e87e9e35b1f1428809c2b7e5dc96bcb18f1e1ecb3578bfa053a364d78ab6b27e1cd11be8a164e5060798ca450f06ad4c48b4e134d9d8b1dbc0",
                "transactions" : [
                    {
                        "data" : "",
                        "gasLimit" : "0x7530",
                        "gasPrice" : "0x01",
                        "nonce" : "0x00",
                        "r" : "0x6f7662bd87cd5f4859e87e9e35b1f1428809c2b7e5dc96bcb18f1e1ecb3578bf",
                        "s" : "0x53a364d78ab6b27e1cd11be8a164e5060798ca450f06ad4c48b4e134d9d8b1db",
                        "to" : "0x1000000000000000000000000000000000000000",
                        "v" : "0x1b",
                        "value" : "0x00"
                    }
                ],
                "uncleHeaders" : [
                ]
            }
        ],
        "genesisBlockHeader" : {
            "bloom" : "0x00000000000000000000000000000000000000000000000000000000000000000000000000000000000000000000000000000000000000000000000000000000000000000000000000000000000000000000000000000000000000000000000000000000000000000000000000000000000000000000000000000000000000000000000000000000000000000000000000000000000000000000000000000000000000000000000000000000000000000000000000000000000000000000000000000000000000000000000000000000000000000000000000000000000000000000000000000000000000000000000000000000000000000000000000000000",
            "coinbase" : "0x2adc25665018aa1fe0e6bc666dac8fc2697ff9ba",
            "difficulty" : "0x020000",
            "extraData" : "0x42",
            "gasLimit" : "0xb2d05e00",
            "gasUsed" : "0x00",
            "hash" : "0xeda5185e6da695988ad7b28e814d1635bb885e7efc71af1bb043939663cc24bb",
            "mixHash" : "0x56e81f171bcc55a6ff8345e692c0f86e5b48e01b996cadc001622fb5e363b421",
            "nonce" : "0x0102030405060708",
            "number" : "0x00",
            "parentHash" : "0x0000000000000000000000000000000000000000000000000000000000000000",
            "receiptTrie" : "0x56e81f171bcc55a6ff8345e692c0f86e5b48e01b996cadc001622fb5e363b421",
            "stateRoot" : "0xb56d1a76a25f077d43f44ca752497f331f82701dadb09151660529dfd2464a1c",
            "timestamp" : "0x03b6",
            "transactionsTrie" : "0x56e81f171bcc55a6ff8345e692c0f86e5b48e01b996cadc001622fb5e363b421",
            "uncleHash" : "0x1dcc4de8dec75d7aab85b567b6ccd41ad312451b948a7413f0a142fd40d49347"
        },
        "genesisRLP" : "0xf901fbf901f6a00000000000000000000000000000000000000000000000000000000000000000a01dcc4de8dec75d7aab85b567b6ccd41ad312451b948a7413f0a142fd40d49347942adc25665018aa1fe0e6bc666dac8fc2697ff9baa0b56d1a76a25f077d43f44ca752497f331f82701dadb09151660529dfd2464a1ca056e81f171bcc55a6ff8345e692c0f86e5b48e01b996cadc001622fb5e363b421a056e81f171bcc55a6ff8345e692c0f86e5b48e01b996cadc001622fb5e363b421b9010000000000000000000000000000000000000000000000000000000000000000000000000000000000000000000000000000000000000000000000000000000000000000000000000000000000000000000000000000000000000000000000000000000000000000000000000000000000000000000000000000000000000000000000000000000000000000000000000000000000000000000000000000000000000000000000000000000000000000000000000000000000000000000000000000000000000000000000000000000000000000000000000000000000000000000000000000000000000000000000000000000000000000000000000000000000830200008084b2d05e00808203b642a056e81f171bcc55a6ff8345e692c0f86e5b48e01b996cadc001622fb5e363b421880102030405060708c0c0",
        "lastblockhash" : "0x8da2f3fa66176306945d42ec80935b1c4ac3fb6c25f131b5a7afb11409b5e7cc",
        "network" : "EIP150",
        "postState" : {
            "0x1000000000000000000000000000000000000000" : {
                "balance" : "0x0de0b6b3a7640000",
                "code" : "0x60406000604060006001731000000000000000000000000000000000000001611770f1",
                "nonce" : "0x00",
                "storage" : {
                }
            },
            "0x1000000000000000000000000000000000000001" : {
                "balance" : "0x00",
                "code" : "",
                "nonce" : "0x00",
                "storage" : {
                }
            },
            "0x2adc25665018aa1fe0e6bc666dac8fc2697ff9ba" : {
                "balance" : "0x4563918244f47530",
                "code" : "",
                "nonce" : "0x00",
                "storage" : {
                }
            },
            "0xa94f5374fce5edbc8e2a8697c15331677e6ebf0b" : {
                "balance" : "0x0de0b6b3a7638ad0",
                "code" : "",
                "nonce" : "0x01",
                "storage" : {
                }
            }
        },
        "pre" : {
            "0x1000000000000000000000000000000000000000" : {
                "balance" : "0x0de0b6b3a7640000",
                "code" : "0x60406000604060006001731000000000000000000000000000000000000001611770f1",
                "nonce" : "0x00",
                "storage" : {
                }
            },
            "0x1000000000000000000000000000000000000001" : {
                "balance" : "0x00",
                "code" : "",
                "nonce" : "0x00",
                "storage" : {
                }
            },
            "0xa94f5374fce5edbc8e2a8697c15331677e6ebf0b" : {
                "balance" : "0x0de0b6b3a7640000",
                "code" : "",
                "nonce" : "0x00",
                "storage" : {
                }
            }
        }
    },
    "call_OOG_additionalGasCosts2_d0g0v0_EIP158" : {
        "_info" : {
            "comment" : "",
            "filledwith" : "cpp-1.3.0+commit.6e0ce939.Linux.g++",
            "lllcversion" : "Version: 0.4.18-develop.2017.9.25+commit.a72237f2.Linux.g++",
            "source" : "src/BlockchainTestsFiller/GeneralStateTests/stCallCodes/call_OOG_additionalGasCosts2_d0g0v0Filler.json",
            "sourceHash" : "3d962a56218e5f32ad351c1525613e7540fbfc3363bb55a835f99ff81bb7aa7b"
        },
        "blocks" : [
            {
                "blockHeader" : {
                    "bloom" : "0x00000000000000000000000000000000000000000000000000000000000000000000000000000000000000000000000000000000000000000000000000000000000000000000000000000000000000000000000000000000000000000000000000000000000000000000000000000000000000000000000000000000000000000000000000000000000000000000000000000000000000000000000000000000000000000000000000000000000000000000000000000000000000000000000000000000000000000000000000000000000000000000000000000000000000000000000000000000000000000000000000000000000000000000000000000000",
                    "coinbase" : "0x2adc25665018aa1fe0e6bc666dac8fc2697ff9ba",
                    "difficulty" : "0x020000",
                    "extraData" : "",
                    "gasLimit" : "0xb2d05e00",
                    "gasUsed" : "0x7530",
                    "hash" : "0xdcc917b2d883f4a4838fc6cbb5f203b4dca4f09e75bc4f1f9237a4a25fb191ba",
                    "mixHash" : "0x24fd2c9fda72bc3470c421efdc4a60a1532a420e0499c23cf8803b4461d8da4a",
                    "nonce" : "0x6486bc3e82268324",
                    "number" : "0x01",
                    "parentHash" : "0xeda5185e6da695988ad7b28e814d1635bb885e7efc71af1bb043939663cc24bb",
                    "receiptTrie" : "0x7f4f310f5f85841c927ba069a5b6215624ad7c8bd577d726cd0dfbec59b92bbb",
                    "stateRoot" : "0x43446c2351380e5218693b6e1cddcd8cfa2fc5cd19e58d7fa833876a6707671a",
                    "timestamp" : "0x03e8",
                    "transactionsTrie" : "0x2502bb435e833b0f29e4796c5b1d9afaf66fa21ccfa2666d6b2814d6ae43fc01",
                    "uncleHash" : "0x1dcc4de8dec75d7aab85b567b6ccd41ad312451b948a7413f0a142fd40d49347"
                },
                "rlp" : "0xf9025ff901f8a0eda5185e6da695988ad7b28e814d1635bb885e7efc71af1bb043939663cc24bba01dcc4de8dec75d7aab85b567b6ccd41ad312451b948a7413f0a142fd40d49347942adc25665018aa1fe0e6bc666dac8fc2697ff9baa043446c2351380e5218693b6e1cddcd8cfa2fc5cd19e58d7fa833876a6707671aa02502bb435e833b0f29e4796c5b1d9afaf66fa21ccfa2666d6b2814d6ae43fc01a07f4f310f5f85841c927ba069a5b6215624ad7c8bd577d726cd0dfbec59b92bbbb9010000000000000000000000000000000000000000000000000000000000000000000000000000000000000000000000000000000000000000000000000000000000000000000000000000000000000000000000000000000000000000000000000000000000000000000000000000000000000000000000000000000000000000000000000000000000000000000000000000000000000000000000000000000000000000000000000000000000000000000000000000000000000000000000000000000000000000000000000000000000000000000000000000000000000000000000000000000000000000000000000000000000000000000000000000000000830200000184b2d05e008275308203e880a024fd2c9fda72bc3470c421efdc4a60a1532a420e0499c23cf8803b4461d8da4a886486bc3e82268324f861f85f800182753094100000000000000000000000000000000000000080801ba06f7662bd87cd5f4859e87e9e35b1f1428809c2b7e5dc96bcb18f1e1ecb3578bfa053a364d78ab6b27e1cd11be8a164e5060798ca450f06ad4c48b4e134d9d8b1dbc0",
                "transactions" : [
                    {
                        "data" : "",
                        "gasLimit" : "0x7530",
                        "gasPrice" : "0x01",
                        "nonce" : "0x00",
                        "r" : "0x6f7662bd87cd5f4859e87e9e35b1f1428809c2b7e5dc96bcb18f1e1ecb3578bf",
                        "s" : "0x53a364d78ab6b27e1cd11be8a164e5060798ca450f06ad4c48b4e134d9d8b1db",
                        "to" : "0x1000000000000000000000000000000000000000",
                        "v" : "0x1b",
                        "value" : "0x00"
                    }
                ],
                "uncleHeaders" : [
                ]
            }
        ],
        "genesisBlockHeader" : {
            "bloom" : "0x00000000000000000000000000000000000000000000000000000000000000000000000000000000000000000000000000000000000000000000000000000000000000000000000000000000000000000000000000000000000000000000000000000000000000000000000000000000000000000000000000000000000000000000000000000000000000000000000000000000000000000000000000000000000000000000000000000000000000000000000000000000000000000000000000000000000000000000000000000000000000000000000000000000000000000000000000000000000000000000000000000000000000000000000000000000",
            "coinbase" : "0x2adc25665018aa1fe0e6bc666dac8fc2697ff9ba",
            "difficulty" : "0x020000",
            "extraData" : "0x42",
            "gasLimit" : "0xb2d05e00",
            "gasUsed" : "0x00",
            "hash" : "0xeda5185e6da695988ad7b28e814d1635bb885e7efc71af1bb043939663cc24bb",
            "mixHash" : "0x56e81f171bcc55a6ff8345e692c0f86e5b48e01b996cadc001622fb5e363b421",
            "nonce" : "0x0102030405060708",
            "number" : "0x00",
            "parentHash" : "0x0000000000000000000000000000000000000000000000000000000000000000",
            "receiptTrie" : "0x56e81f171bcc55a6ff8345e692c0f86e5b48e01b996cadc001622fb5e363b421",
            "stateRoot" : "0xb56d1a76a25f077d43f44ca752497f331f82701dadb09151660529dfd2464a1c",
            "timestamp" : "0x03b6",
            "transactionsTrie" : "0x56e81f171bcc55a6ff8345e692c0f86e5b48e01b996cadc001622fb5e363b421",
            "uncleHash" : "0x1dcc4de8dec75d7aab85b567b6ccd41ad312451b948a7413f0a142fd40d49347"
        },
        "genesisRLP" : "0xf901fbf901f6a00000000000000000000000000000000000000000000000000000000000000000a01dcc4de8dec75d7aab85b567b6ccd41ad312451b948a7413f0a142fd40d49347942adc25665018aa1fe0e6bc666dac8fc2697ff9baa0b56d1a76a25f077d43f44ca752497f331f82701dadb09151660529dfd2464a1ca056e81f171bcc55a6ff8345e692c0f86e5b48e01b996cadc001622fb5e363b421a056e81f171bcc55a6ff8345e692c0f86e5b48e01b996cadc001622fb5e363b421b9010000000000000000000000000000000000000000000000000000000000000000000000000000000000000000000000000000000000000000000000000000000000000000000000000000000000000000000000000000000000000000000000000000000000000000000000000000000000000000000000000000000000000000000000000000000000000000000000000000000000000000000000000000000000000000000000000000000000000000000000000000000000000000000000000000000000000000000000000000000000000000000000000000000000000000000000000000000000000000000000000000000000000000000000000000000000830200008084b2d05e00808203b642a056e81f171bcc55a6ff8345e692c0f86e5b48e01b996cadc001622fb5e363b421880102030405060708c0c0",
        "lastblockhash" : "0xdcc917b2d883f4a4838fc6cbb5f203b4dca4f09e75bc4f1f9237a4a25fb191ba",
        "network" : "EIP158",
        "postState" : {
            "0x1000000000000000000000000000000000000000" : {
                "balance" : "0x0de0b6b3a7640000",
                "code" : "0x60406000604060006001731000000000000000000000000000000000000001611770f1",
                "nonce" : "0x00",
                "storage" : {
                }
            },
            "0x1000000000000000000000000000000000000001" : {
                "balance" : "0x00",
                "code" : "",
                "nonce" : "0x00",
                "storage" : {
                }
            },
            "0x2adc25665018aa1fe0e6bc666dac8fc2697ff9ba" : {
                "balance" : "0x4563918244f47530",
                "code" : "",
                "nonce" : "0x00",
                "storage" : {
                }
            },
            "0xa94f5374fce5edbc8e2a8697c15331677e6ebf0b" : {
                "balance" : "0x0de0b6b3a7638ad0",
                "code" : "",
                "nonce" : "0x01",
                "storage" : {
                }
            }
        },
        "pre" : {
            "0x1000000000000000000000000000000000000000" : {
                "balance" : "0x0de0b6b3a7640000",
                "code" : "0x60406000604060006001731000000000000000000000000000000000000001611770f1",
                "nonce" : "0x00",
                "storage" : {
                }
            },
            "0x1000000000000000000000000000000000000001" : {
                "balance" : "0x00",
                "code" : "",
                "nonce" : "0x00",
                "storage" : {
                }
            },
            "0xa94f5374fce5edbc8e2a8697c15331677e6ebf0b" : {
                "balance" : "0x0de0b6b3a7640000",
                "code" : "",
                "nonce" : "0x00",
                "storage" : {
                }
            }
        }
    },
    "call_OOG_additionalGasCosts2_d0g0v0_Frontier" : {
        "_info" : {
            "comment" : "",
            "filledwith" : "cpp-1.3.0+commit.6e0ce939.Linux.g++",
            "lllcversion" : "Version: 0.4.18-develop.2017.9.25+commit.a72237f2.Linux.g++",
            "source" : "src/BlockchainTestsFiller/GeneralStateTests/stCallCodes/call_OOG_additionalGasCosts2_d0g0v0Filler.json",
            "sourceHash" : "3d962a56218e5f32ad351c1525613e7540fbfc3363bb55a835f99ff81bb7aa7b"
        },
        "blocks" : [
            {
                "blockHeader" : {
                    "bloom" : "0x00000000000000000000000000000000000000000000000000000000000000000000000000000000000000000000000000000000000000000000000000000000000000000000000000000000000000000000000000000000000000000000000000000000000000000000000000000000000000000000000000000000000000000000000000000000000000000000000000000000000000000000000000000000000000000000000000000000000000000000000000000000000000000000000000000000000000000000000000000000000000000000000000000000000000000000000000000000000000000000000000000000000000000000000000000000",
                    "coinbase" : "0x2adc25665018aa1fe0e6bc666dac8fc2697ff9ba",
                    "difficulty" : "0x020000",
                    "extraData" : "",
                    "gasLimit" : "0xb2d05e00",
                    "gasUsed" : "0x7530",
                    "hash" : "0xf2189312f573fad2db5c8b710fd540ec9e75efd0a10065ae0dc8ffbd7e7048d9",
                    "mixHash" : "0xb16cb0aae39d00f8fc3047dcad568b6a05a964054ebecc3cc849ab0e53640eb1",
                    "nonce" : "0x9c0a75b8d8455581",
                    "number" : "0x01",
                    "parentHash" : "0xeda5185e6da695988ad7b28e814d1635bb885e7efc71af1bb043939663cc24bb",
                    "receiptTrie" : "0x7f4f310f5f85841c927ba069a5b6215624ad7c8bd577d726cd0dfbec59b92bbb",
                    "stateRoot" : "0x43446c2351380e5218693b6e1cddcd8cfa2fc5cd19e58d7fa833876a6707671a",
                    "timestamp" : "0x03e8",
                    "transactionsTrie" : "0x2502bb435e833b0f29e4796c5b1d9afaf66fa21ccfa2666d6b2814d6ae43fc01",
                    "uncleHash" : "0x1dcc4de8dec75d7aab85b567b6ccd41ad312451b948a7413f0a142fd40d49347"
                },
                "rlp" : "0xf9025ff901f8a0eda5185e6da695988ad7b28e814d1635bb885e7efc71af1bb043939663cc24bba01dcc4de8dec75d7aab85b567b6ccd41ad312451b948a7413f0a142fd40d49347942adc25665018aa1fe0e6bc666dac8fc2697ff9baa043446c2351380e5218693b6e1cddcd8cfa2fc5cd19e58d7fa833876a6707671aa02502bb435e833b0f29e4796c5b1d9afaf66fa21ccfa2666d6b2814d6ae43fc01a07f4f310f5f85841c927ba069a5b6215624ad7c8bd577d726cd0dfbec59b92bbbb9010000000000000000000000000000000000000000000000000000000000000000000000000000000000000000000000000000000000000000000000000000000000000000000000000000000000000000000000000000000000000000000000000000000000000000000000000000000000000000000000000000000000000000000000000000000000000000000000000000000000000000000000000000000000000000000000000000000000000000000000000000000000000000000000000000000000000000000000000000000000000000000000000000000000000000000000000000000000000000000000000000000000000000000000000000000000830200000184b2d05e008275308203e880a0b16cb0aae39d00f8fc3047dcad568b6a05a964054ebecc3cc849ab0e53640eb1889c0a75b8d8455581f861f85f800182753094100000000000000000000000000000000000000080801ba06f7662bd87cd5f4859e87e9e35b1f1428809c2b7e5dc96bcb18f1e1ecb3578bfa053a364d78ab6b27e1cd11be8a164e5060798ca450f06ad4c48b4e134d9d8b1dbc0",
                "transactions" : [
                    {
                        "data" : "",
                        "gasLimit" : "0x7530",
                        "gasPrice" : "0x01",
                        "nonce" : "0x00",
                        "r" : "0x6f7662bd87cd5f4859e87e9e35b1f1428809c2b7e5dc96bcb18f1e1ecb3578bf",
                        "s" : "0x53a364d78ab6b27e1cd11be8a164e5060798ca450f06ad4c48b4e134d9d8b1db",
                        "to" : "0x1000000000000000000000000000000000000000",
                        "v" : "0x1b",
                        "value" : "0x00"
                    }
                ],
                "uncleHeaders" : [
                ]
            }
        ],
        "genesisBlockHeader" : {
            "bloom" : "0x00000000000000000000000000000000000000000000000000000000000000000000000000000000000000000000000000000000000000000000000000000000000000000000000000000000000000000000000000000000000000000000000000000000000000000000000000000000000000000000000000000000000000000000000000000000000000000000000000000000000000000000000000000000000000000000000000000000000000000000000000000000000000000000000000000000000000000000000000000000000000000000000000000000000000000000000000000000000000000000000000000000000000000000000000000000",
            "coinbase" : "0x2adc25665018aa1fe0e6bc666dac8fc2697ff9ba",
            "difficulty" : "0x020000",
            "extraData" : "0x42",
            "gasLimit" : "0xb2d05e00",
            "gasUsed" : "0x00",
            "hash" : "0xeda5185e6da695988ad7b28e814d1635bb885e7efc71af1bb043939663cc24bb",
            "mixHash" : "0x56e81f171bcc55a6ff8345e692c0f86e5b48e01b996cadc001622fb5e363b421",
            "nonce" : "0x0102030405060708",
            "number" : "0x00",
            "parentHash" : "0x0000000000000000000000000000000000000000000000000000000000000000",
            "receiptTrie" : "0x56e81f171bcc55a6ff8345e692c0f86e5b48e01b996cadc001622fb5e363b421",
            "stateRoot" : "0xb56d1a76a25f077d43f44ca752497f331f82701dadb09151660529dfd2464a1c",
            "timestamp" : "0x03b6",
            "transactionsTrie" : "0x56e81f171bcc55a6ff8345e692c0f86e5b48e01b996cadc001622fb5e363b421",
            "uncleHash" : "0x1dcc4de8dec75d7aab85b567b6ccd41ad312451b948a7413f0a142fd40d49347"
        },
        "genesisRLP" : "0xf901fbf901f6a00000000000000000000000000000000000000000000000000000000000000000a01dcc4de8dec75d7aab85b567b6ccd41ad312451b948a7413f0a142fd40d49347942adc25665018aa1fe0e6bc666dac8fc2697ff9baa0b56d1a76a25f077d43f44ca752497f331f82701dadb09151660529dfd2464a1ca056e81f171bcc55a6ff8345e692c0f86e5b48e01b996cadc001622fb5e363b421a056e81f171bcc55a6ff8345e692c0f86e5b48e01b996cadc001622fb5e363b421b9010000000000000000000000000000000000000000000000000000000000000000000000000000000000000000000000000000000000000000000000000000000000000000000000000000000000000000000000000000000000000000000000000000000000000000000000000000000000000000000000000000000000000000000000000000000000000000000000000000000000000000000000000000000000000000000000000000000000000000000000000000000000000000000000000000000000000000000000000000000000000000000000000000000000000000000000000000000000000000000000000000000000000000000000000000000000830200008084b2d05e00808203b642a056e81f171bcc55a6ff8345e692c0f86e5b48e01b996cadc001622fb5e363b421880102030405060708c0c0",
        "lastblockhash" : "0xf2189312f573fad2db5c8b710fd540ec9e75efd0a10065ae0dc8ffbd7e7048d9",
        "network" : "Frontier",
        "postState" : {
            "0x1000000000000000000000000000000000000000" : {
                "balance" : "0x0de0b6b3a7640000",
                "code" : "0x60406000604060006001731000000000000000000000000000000000000001611770f1",
                "nonce" : "0x00",
                "storage" : {
                }
            },
            "0x1000000000000000000000000000000000000001" : {
                "balance" : "0x00",
                "code" : "",
                "nonce" : "0x00",
                "storage" : {
                }
            },
            "0x2adc25665018aa1fe0e6bc666dac8fc2697ff9ba" : {
                "balance" : "0x4563918244f47530",
                "code" : "",
                "nonce" : "0x00",
                "storage" : {
                }
            },
            "0xa94f5374fce5edbc8e2a8697c15331677e6ebf0b" : {
                "balance" : "0x0de0b6b3a7638ad0",
                "code" : "",
                "nonce" : "0x01",
                "storage" : {
                }
            }
        },
        "pre" : {
            "0x1000000000000000000000000000000000000000" : {
                "balance" : "0x0de0b6b3a7640000",
                "code" : "0x60406000604060006001731000000000000000000000000000000000000001611770f1",
                "nonce" : "0x00",
                "storage" : {
                }
            },
            "0x1000000000000000000000000000000000000001" : {
                "balance" : "0x00",
                "code" : "",
                "nonce" : "0x00",
                "storage" : {
                }
            },
            "0xa94f5374fce5edbc8e2a8697c15331677e6ebf0b" : {
                "balance" : "0x0de0b6b3a7640000",
                "code" : "",
                "nonce" : "0x00",
                "storage" : {
                }
            }
        }
    },
    "call_OOG_additionalGasCosts2_d0g0v0_Homestead" : {
        "_info" : {
            "comment" : "",
            "filledwith" : "cpp-1.3.0+commit.6e0ce939.Linux.g++",
            "lllcversion" : "Version: 0.4.18-develop.2017.9.25+commit.a72237f2.Linux.g++",
            "source" : "src/BlockchainTestsFiller/GeneralStateTests/stCallCodes/call_OOG_additionalGasCosts2_d0g0v0Filler.json",
            "sourceHash" : "3d962a56218e5f32ad351c1525613e7540fbfc3363bb55a835f99ff81bb7aa7b"
        },
        "blocks" : [
            {
                "blockHeader" : {
                    "bloom" : "0x00000000000000000000000000000000000000000000000000000000000000000000000000000000000000000000000000000000000000000000000000000000000000000000000000000000000000000000000000000000000000000000000000000000000000000000000000000000000000000000000000000000000000000000000000000000000000000000000000000000000000000000000000000000000000000000000000000000000000000000000000000000000000000000000000000000000000000000000000000000000000000000000000000000000000000000000000000000000000000000000000000000000000000000000000000000",
                    "coinbase" : "0x2adc25665018aa1fe0e6bc666dac8fc2697ff9ba",
                    "difficulty" : "0x020000",
                    "extraData" : "",
                    "gasLimit" : "0xb2d05e00",
                    "gasUsed" : "0x7530",
                    "hash" : "0x9b8047e71cbc7697044a748214911c44db037b392fef8d7bf70f85f5ca0347e2",
                    "mixHash" : "0x921ce53b0ca782190c20668c390d23d01378e06073bc56874ea406e9f1edfe34",
                    "nonce" : "0xe16e31687e4f0900",
                    "number" : "0x01",
                    "parentHash" : "0xeda5185e6da695988ad7b28e814d1635bb885e7efc71af1bb043939663cc24bb",
                    "receiptTrie" : "0x7f4f310f5f85841c927ba069a5b6215624ad7c8bd577d726cd0dfbec59b92bbb",
                    "stateRoot" : "0x43446c2351380e5218693b6e1cddcd8cfa2fc5cd19e58d7fa833876a6707671a",
                    "timestamp" : "0x03e8",
                    "transactionsTrie" : "0x2502bb435e833b0f29e4796c5b1d9afaf66fa21ccfa2666d6b2814d6ae43fc01",
                    "uncleHash" : "0x1dcc4de8dec75d7aab85b567b6ccd41ad312451b948a7413f0a142fd40d49347"
                },
                "rlp" : "0xf9025ff901f8a0eda5185e6da695988ad7b28e814d1635bb885e7efc71af1bb043939663cc24bba01dcc4de8dec75d7aab85b567b6ccd41ad312451b948a7413f0a142fd40d49347942adc25665018aa1fe0e6bc666dac8fc2697ff9baa043446c2351380e5218693b6e1cddcd8cfa2fc5cd19e58d7fa833876a6707671aa02502bb435e833b0f29e4796c5b1d9afaf66fa21ccfa2666d6b2814d6ae43fc01a07f4f310f5f85841c927ba069a5b6215624ad7c8bd577d726cd0dfbec59b92bbbb9010000000000000000000000000000000000000000000000000000000000000000000000000000000000000000000000000000000000000000000000000000000000000000000000000000000000000000000000000000000000000000000000000000000000000000000000000000000000000000000000000000000000000000000000000000000000000000000000000000000000000000000000000000000000000000000000000000000000000000000000000000000000000000000000000000000000000000000000000000000000000000000000000000000000000000000000000000000000000000000000000000000000000000000000000000000000830200000184b2d05e008275308203e880a0921ce53b0ca782190c20668c390d23d01378e06073bc56874ea406e9f1edfe3488e16e31687e4f0900f861f85f800182753094100000000000000000000000000000000000000080801ba06f7662bd87cd5f4859e87e9e35b1f1428809c2b7e5dc96bcb18f1e1ecb3578bfa053a364d78ab6b27e1cd11be8a164e5060798ca450f06ad4c48b4e134d9d8b1dbc0",
                "transactions" : [
                    {
                        "data" : "",
                        "gasLimit" : "0x7530",
                        "gasPrice" : "0x01",
                        "nonce" : "0x00",
                        "r" : "0x6f7662bd87cd5f4859e87e9e35b1f1428809c2b7e5dc96bcb18f1e1ecb3578bf",
                        "s" : "0x53a364d78ab6b27e1cd11be8a164e5060798ca450f06ad4c48b4e134d9d8b1db",
                        "to" : "0x1000000000000000000000000000000000000000",
                        "v" : "0x1b",
                        "value" : "0x00"
                    }
                ],
                "uncleHeaders" : [
                ]
            }
        ],
        "genesisBlockHeader" : {
            "bloom" : "0x00000000000000000000000000000000000000000000000000000000000000000000000000000000000000000000000000000000000000000000000000000000000000000000000000000000000000000000000000000000000000000000000000000000000000000000000000000000000000000000000000000000000000000000000000000000000000000000000000000000000000000000000000000000000000000000000000000000000000000000000000000000000000000000000000000000000000000000000000000000000000000000000000000000000000000000000000000000000000000000000000000000000000000000000000000000",
            "coinbase" : "0x2adc25665018aa1fe0e6bc666dac8fc2697ff9ba",
            "difficulty" : "0x020000",
            "extraData" : "0x42",
            "gasLimit" : "0xb2d05e00",
            "gasUsed" : "0x00",
            "hash" : "0xeda5185e6da695988ad7b28e814d1635bb885e7efc71af1bb043939663cc24bb",
            "mixHash" : "0x56e81f171bcc55a6ff8345e692c0f86e5b48e01b996cadc001622fb5e363b421",
            "nonce" : "0x0102030405060708",
            "number" : "0x00",
            "parentHash" : "0x0000000000000000000000000000000000000000000000000000000000000000",
            "receiptTrie" : "0x56e81f171bcc55a6ff8345e692c0f86e5b48e01b996cadc001622fb5e363b421",
            "stateRoot" : "0xb56d1a76a25f077d43f44ca752497f331f82701dadb09151660529dfd2464a1c",
            "timestamp" : "0x03b6",
            "transactionsTrie" : "0x56e81f171bcc55a6ff8345e692c0f86e5b48e01b996cadc001622fb5e363b421",
            "uncleHash" : "0x1dcc4de8dec75d7aab85b567b6ccd41ad312451b948a7413f0a142fd40d49347"
        },
        "genesisRLP" : "0xf901fbf901f6a00000000000000000000000000000000000000000000000000000000000000000a01dcc4de8dec75d7aab85b567b6ccd41ad312451b948a7413f0a142fd40d49347942adc25665018aa1fe0e6bc666dac8fc2697ff9baa0b56d1a76a25f077d43f44ca752497f331f82701dadb09151660529dfd2464a1ca056e81f171bcc55a6ff8345e692c0f86e5b48e01b996cadc001622fb5e363b421a056e81f171bcc55a6ff8345e692c0f86e5b48e01b996cadc001622fb5e363b421b9010000000000000000000000000000000000000000000000000000000000000000000000000000000000000000000000000000000000000000000000000000000000000000000000000000000000000000000000000000000000000000000000000000000000000000000000000000000000000000000000000000000000000000000000000000000000000000000000000000000000000000000000000000000000000000000000000000000000000000000000000000000000000000000000000000000000000000000000000000000000000000000000000000000000000000000000000000000000000000000000000000000000000000000000000000000000830200008084b2d05e00808203b642a056e81f171bcc55a6ff8345e692c0f86e5b48e01b996cadc001622fb5e363b421880102030405060708c0c0",
        "lastblockhash" : "0x9b8047e71cbc7697044a748214911c44db037b392fef8d7bf70f85f5ca0347e2",
        "network" : "Homestead",
        "postState" : {
            "0x1000000000000000000000000000000000000000" : {
                "balance" : "0x0de0b6b3a7640000",
                "code" : "0x60406000604060006001731000000000000000000000000000000000000001611770f1",
                "nonce" : "0x00",
                "storage" : {
                }
            },
            "0x1000000000000000000000000000000000000001" : {
                "balance" : "0x00",
                "code" : "",
                "nonce" : "0x00",
                "storage" : {
                }
            },
            "0x2adc25665018aa1fe0e6bc666dac8fc2697ff9ba" : {
                "balance" : "0x4563918244f47530",
                "code" : "",
                "nonce" : "0x00",
                "storage" : {
                }
            },
            "0xa94f5374fce5edbc8e2a8697c15331677e6ebf0b" : {
                "balance" : "0x0de0b6b3a7638ad0",
                "code" : "",
                "nonce" : "0x01",
                "storage" : {
                }
            }
        },
        "pre" : {
            "0x1000000000000000000000000000000000000000" : {
                "balance" : "0x0de0b6b3a7640000",
                "code" : "0x60406000604060006001731000000000000000000000000000000000000001611770f1",
                "nonce" : "0x00",
                "storage" : {
                }
            },
            "0x1000000000000000000000000000000000000001" : {
                "balance" : "0x00",
                "code" : "",
                "nonce" : "0x00",
                "storage" : {
                }
            },
            "0xa94f5374fce5edbc8e2a8697c15331677e6ebf0b" : {
                "balance" : "0x0de0b6b3a7640000",
                "code" : "",
                "nonce" : "0x00",
                "storage" : {
                }
            }
        }
    }
}