{
    "callcodeInInitcodeToExisContractWithVTransferNEMoney_d0g0v0_Byzantium" : {
        "_info" : {
            "comment" : "",
            "filledwith" : "cpp-1.3.0+commit.6e0ce939.Linux.g++",
            "lllcversion" : "Version: 0.4.18-develop.2017.9.25+commit.a72237f2.Linux.g++",
            "source" : "src/BlockchainTestsFiller/GeneralStateTests/stCallCodes/callcodeInInitcodeToExisContractWithVTransferNEMoney_d0g0v0Filler.json",
            "sourceHash" : "4384b9bfff3769e623bdb72f85d31a5ce42e078f5c1505c4bb64e9295caa0c9c"
        },
        "blocks" : [
            {
                "blockHeader" : {
                    "bloom" : "0x00000000000000000000000000000000000000000000000000000000000000000000000000000000000000000000000000000000000000000000000000000000000000000000000000000000000000000000000000000000000000000000000000000000000000000000000000000000000000000000000000000000000000000000000000000000000000000000000000000000000000000000000000000000000000000000000000000000000000000000000000000000000000000000000000000000000000000000000000000000000000000000000000000000000000000000000000000000000000000000000000000000000000000000000000000000",
                    "coinbase" : "0x2adc25665018aa1fe0e6bc666dac8fc2697ff9ba",
                    "difficulty" : "0x020000",
                    "extraData" : "",
                    "gasLimit" : "0x0f4240",
                    "gasUsed" : "0xffb7",
                    "hash" : "0x1033458b626898042f9d664a1d05791b6b8da696012c55c5d2233caf08911cb6",
                    "mixHash" : "0x619f1e152e7689a0df9da5625db9647e59e8a9e785ae6f5a682815e9fd092e7b",
                    "nonce" : "0x43aff60f65745aee",
                    "number" : "0x01",
                    "parentHash" : "0x72a3052fbd2c5dc406dd747e1ed2e7ded4a0ba56e90549789363f84176328d2c",
                    "receiptTrie" : "0xbcc60625b4191bafc73d74ed615797f4f8f2d27f95f9a1e6d39719e245b5912d",
                    "stateRoot" : "0x1f54f949b4aa7c138e6b1caf466c746db4c814e70ae19fc49144a04b2197cbd9",
                    "timestamp" : "0x03e8",
                    "transactionsTrie" : "0x74b39e73f0c67b78fff4eb82226142222765b09c97c66d83d2aa030ec81c4f68",
                    "uncleHash" : "0x1dcc4de8dec75d7aab85b567b6ccd41ad312451b948a7413f0a142fd40d49347"
                },
                "rlp" : "0xf9025ff901f7a072a3052fbd2c5dc406dd747e1ed2e7ded4a0ba56e90549789363f84176328d2ca01dcc4de8dec75d7aab85b567b6ccd41ad312451b948a7413f0a142fd40d49347942adc25665018aa1fe0e6bc666dac8fc2697ff9baa01f54f949b4aa7c138e6b1caf466c746db4c814e70ae19fc49144a04b2197cbd9a074b39e73f0c67b78fff4eb82226142222765b09c97c66d83d2aa030ec81c4f68a0bcc60625b4191bafc73d74ed615797f4f8f2d27f95f9a1e6d39719e245b5912db90100000000000000000000000000000000000000000000000000000000000000000000000000000000000000000000000000000000000000000000000000000000000000000000000000000000000000000000000000000000000000000000000000000000000000000000000000000000000000000000000000000000000000000000000000000000000000000000000000000000000000000000000000000000000000000000000000000000000000000000000000000000000000000000000000000000000000000000000000000000000000000000000000000000000000000000000000000000000000000000000000000000000000000000000000000000008302000001830f424082ffb78203e880a0619f1e152e7689a0df9da5625db9647e59e8a9e785ae6f5a682815e9fd092e7b8843aff60f65745aeef862f86080018306e9d994100000000000000000000000000000000000000080801ba0f3800914fa5a27a13dc5a4119f11c1ae1c6874ad1e299f13e9f43e96c8bdaa0ea0332b1e65d433906232fbb38ec187498f66c29f6127864d94788d7de5bc1d4d32c0",
                "transactions" : [
                    {
                        "data" : "",
                        "gasLimit" : "0x06e9d9",
                        "gasPrice" : "0x01",
                        "nonce" : "0x00",
                        "r" : "0xf3800914fa5a27a13dc5a4119f11c1ae1c6874ad1e299f13e9f43e96c8bdaa0e",
                        "s" : "0x332b1e65d433906232fbb38ec187498f66c29f6127864d94788d7de5bc1d4d32",
                        "to" : "0x1000000000000000000000000000000000000000",
                        "v" : "0x1b",
                        "value" : "0x00"
                    }
                ],
                "uncleHeaders" : [
                ]
            }
        ],
        "genesisBlockHeader" : {
            "bloom" : "0x00000000000000000000000000000000000000000000000000000000000000000000000000000000000000000000000000000000000000000000000000000000000000000000000000000000000000000000000000000000000000000000000000000000000000000000000000000000000000000000000000000000000000000000000000000000000000000000000000000000000000000000000000000000000000000000000000000000000000000000000000000000000000000000000000000000000000000000000000000000000000000000000000000000000000000000000000000000000000000000000000000000000000000000000000000000",
            "coinbase" : "0x2adc25665018aa1fe0e6bc666dac8fc2697ff9ba",
            "difficulty" : "0x020000",
            "extraData" : "0x42",
            "gasLimit" : "0x0f4240",
            "gasUsed" : "0x00",
            "hash" : "0x72a3052fbd2c5dc406dd747e1ed2e7ded4a0ba56e90549789363f84176328d2c",
            "mixHash" : "0x56e81f171bcc55a6ff8345e692c0f86e5b48e01b996cadc001622fb5e363b421",
            "nonce" : "0x0102030405060708",
            "number" : "0x00",
            "parentHash" : "0x0000000000000000000000000000000000000000000000000000000000000000",
            "receiptTrie" : "0x56e81f171bcc55a6ff8345e692c0f86e5b48e01b996cadc001622fb5e363b421",
            "stateRoot" : "0x040c4fb84b0dea181a27ac441122a4bf819bc6d8e758797c3a5b1361d3dad220",
            "timestamp" : "0x03b6",
            "transactionsTrie" : "0x56e81f171bcc55a6ff8345e692c0f86e5b48e01b996cadc001622fb5e363b421",
            "uncleHash" : "0x1dcc4de8dec75d7aab85b567b6ccd41ad312451b948a7413f0a142fd40d49347"
        },
        "genesisRLP" : "0xf901faf901f5a00000000000000000000000000000000000000000000000000000000000000000a01dcc4de8dec75d7aab85b567b6ccd41ad312451b948a7413f0a142fd40d49347942adc25665018aa1fe0e6bc666dac8fc2697ff9baa0040c4fb84b0dea181a27ac441122a4bf819bc6d8e758797c3a5b1361d3dad220a056e81f171bcc55a6ff8345e692c0f86e5b48e01b996cadc001622fb5e363b421a056e81f171bcc55a6ff8345e692c0f86e5b48e01b996cadc001622fb5e363b421b90100000000000000000000000000000000000000000000000000000000000000000000000000000000000000000000000000000000000000000000000000000000000000000000000000000000000000000000000000000000000000000000000000000000000000000000000000000000000000000000000000000000000000000000000000000000000000000000000000000000000000000000000000000000000000000000000000000000000000000000000000000000000000000000000000000000000000000000000000000000000000000000000000000000000000000000000000000000000000000000000000000000000000000000000000000000008302000080830f4240808203b642a056e81f171bcc55a6ff8345e692c0f86e5b48e01b996cadc001622fb5e363b421880102030405060708c0c0",
        "lastblockhash" : "0x1033458b626898042f9d664a1d05791b6b8da696012c55c5d2233caf08911cb6",
        "network" : "Byzantium",
        "postState" : {
            "0x1000000000000000000000000000000000000000" : {
                "balance" : "0x270f",
                "code" : "0x7f6040600060406000600573945304eb96065b2a98b57a48a06ae28d285a71b5626000527f0186a0f260005500000000000000000000000000000000000000000000000000602052604060006001f0",
                "nonce" : "0x01",
                "storage" : {
                }
            },
            "0x13136008b64ff592819b2fa6d43f2835c452020e" : {
                "balance" : "0x01",
                "code" : "",
                "nonce" : "0x01",
                "storage" : {
                }
            },
            "0x2adc25665018aa1fe0e6bc666dac8fc2697ff9ba" : {
                "balance" : "0x29a2241af62cffb7",
                "code" : "",
                "nonce" : "0x00",
                "storage" : {
                }
            },
            "0x945304eb96065b2a98b57a48a06ae28d285a71b5" : {
                "balance" : "0x00",
                "code" : "0x6001600255",
                "nonce" : "0x00",
                "storage" : {
                }
            },
            "0xa94f5374fce5edbc8e2a8697c15331677e6ebf0b" : {
                "balance" : "0x2386f26fc00049",
                "code" : "",
                "nonce" : "0x01",
                "storage" : {
                }
            }
        },
        "pre" : {
            "0x1000000000000000000000000000000000000000" : {
                "balance" : "0x2710",
                "code" : "0x7f6040600060406000600573945304eb96065b2a98b57a48a06ae28d285a71b5626000527f0186a0f260005500000000000000000000000000000000000000000000000000602052604060006001f0",
                "nonce" : "0x00",
                "storage" : {
                }
            },
            "0x945304eb96065b2a98b57a48a06ae28d285a71b5" : {
                "balance" : "0x00",
                "code" : "0x6001600255",
                "nonce" : "0x00",
                "storage" : {
                }
            },
            "0xa94f5374fce5edbc8e2a8697c15331677e6ebf0b" : {
                "balance" : "0x2386f26fc10000",
                "code" : "",
                "nonce" : "0x00",
                "storage" : {
                }
            }
        }
    },
    "callcodeInInitcodeToExisContractWithVTransferNEMoney_d0g0v0_EIP150" : {
        "_info" : {
            "comment" : "",
            "filledwith" : "cpp-1.3.0+commit.6e0ce939.Linux.g++",
            "lllcversion" : "Version: 0.4.18-develop.2017.9.25+commit.a72237f2.Linux.g++",
            "source" : "src/BlockchainTestsFiller/GeneralStateTests/stCallCodes/callcodeInInitcodeToExisContractWithVTransferNEMoney_d0g0v0Filler.json",
            "sourceHash" : "4384b9bfff3769e623bdb72f85d31a5ce42e078f5c1505c4bb64e9295caa0c9c"
        },
        "blocks" : [
            {
                "blockHeader" : {
                    "bloom" : "0x00000000000000000000000000000000000000000000000000000000000000000000000000000000000000000000000000000000000000000000000000000000000000000000000000000000000000000000000000000000000000000000000000000000000000000000000000000000000000000000000000000000000000000000000000000000000000000000000000000000000000000000000000000000000000000000000000000000000000000000000000000000000000000000000000000000000000000000000000000000000000000000000000000000000000000000000000000000000000000000000000000000000000000000000000000000",
                    "coinbase" : "0x2adc25665018aa1fe0e6bc666dac8fc2697ff9ba",
                    "difficulty" : "0x020000",
                    "extraData" : "",
                    "gasLimit" : "0x0f4240",
                    "gasUsed" : "0xffb7",
                    "hash" : "0x17c0434b04ea17fa67b71fd33d26ae6e2e2e55faf8d5579811fd247f1a9ee646",
                    "mixHash" : "0x21b0f65048dcec81469d1a835e0cdff7953dbb96db5c820a94d79e9a29ab0305",
                    "nonce" : "0xa20e61842b2c64ab",
                    "number" : "0x01",
                    "parentHash" : "0x72a3052fbd2c5dc406dd747e1ed2e7ded4a0ba56e90549789363f84176328d2c",
                    "receiptTrie" : "0x6ca84d40495dfb42ccaed73f28c678d656273f355baacceaafd6c40ea55fe220",
                    "stateRoot" : "0x3c7a62bd45dc30d80b1553d1a558bfdb96c68bd9b0141a65badd266fb77ddb2f",
                    "timestamp" : "0x03e8",
                    "transactionsTrie" : "0x74b39e73f0c67b78fff4eb82226142222765b09c97c66d83d2aa030ec81c4f68",
                    "uncleHash" : "0x1dcc4de8dec75d7aab85b567b6ccd41ad312451b948a7413f0a142fd40d49347"
                },
                "rlp" : "0xf9025ff901f7a072a3052fbd2c5dc406dd747e1ed2e7ded4a0ba56e90549789363f84176328d2ca01dcc4de8dec75d7aab85b567b6ccd41ad312451b948a7413f0a142fd40d49347942adc25665018aa1fe0e6bc666dac8fc2697ff9baa03c7a62bd45dc30d80b1553d1a558bfdb96c68bd9b0141a65badd266fb77ddb2fa074b39e73f0c67b78fff4eb82226142222765b09c97c66d83d2aa030ec81c4f68a06ca84d40495dfb42ccaed73f28c678d656273f355baacceaafd6c40ea55fe220b90100000000000000000000000000000000000000000000000000000000000000000000000000000000000000000000000000000000000000000000000000000000000000000000000000000000000000000000000000000000000000000000000000000000000000000000000000000000000000000000000000000000000000000000000000000000000000000000000000000000000000000000000000000000000000000000000000000000000000000000000000000000000000000000000000000000000000000000000000000000000000000000000000000000000000000000000000000000000000000000000000000000000000000000000000000000008302000001830f424082ffb78203e880a021b0f65048dcec81469d1a835e0cdff7953dbb96db5c820a94d79e9a29ab030588a20e61842b2c64abf862f86080018306e9d994100000000000000000000000000000000000000080801ba0f3800914fa5a27a13dc5a4119f11c1ae1c6874ad1e299f13e9f43e96c8bdaa0ea0332b1e65d433906232fbb38ec187498f66c29f6127864d94788d7de5bc1d4d32c0",
                "transactions" : [
                    {
                        "data" : "",
                        "gasLimit" : "0x06e9d9",
                        "gasPrice" : "0x01",
                        "nonce" : "0x00",
                        "r" : "0xf3800914fa5a27a13dc5a4119f11c1ae1c6874ad1e299f13e9f43e96c8bdaa0e",
                        "s" : "0x332b1e65d433906232fbb38ec187498f66c29f6127864d94788d7de5bc1d4d32",
                        "to" : "0x1000000000000000000000000000000000000000",
                        "v" : "0x1b",
                        "value" : "0x00"
                    }
                ],
                "uncleHeaders" : [
                ]
            }
        ],
        "genesisBlockHeader" : {
            "bloom" : "0x00000000000000000000000000000000000000000000000000000000000000000000000000000000000000000000000000000000000000000000000000000000000000000000000000000000000000000000000000000000000000000000000000000000000000000000000000000000000000000000000000000000000000000000000000000000000000000000000000000000000000000000000000000000000000000000000000000000000000000000000000000000000000000000000000000000000000000000000000000000000000000000000000000000000000000000000000000000000000000000000000000000000000000000000000000000",
            "coinbase" : "0x2adc25665018aa1fe0e6bc666dac8fc2697ff9ba",
            "difficulty" : "0x020000",
            "extraData" : "0x42",
            "gasLimit" : "0x0f4240",
            "gasUsed" : "0x00",
            "hash" : "0x72a3052fbd2c5dc406dd747e1ed2e7ded4a0ba56e90549789363f84176328d2c",
            "mixHash" : "0x56e81f171bcc55a6ff8345e692c0f86e5b48e01b996cadc001622fb5e363b421",
            "nonce" : "0x0102030405060708",
            "number" : "0x00",
            "parentHash" : "0x0000000000000000000000000000000000000000000000000000000000000000",
            "receiptTrie" : "0x56e81f171bcc55a6ff8345e692c0f86e5b48e01b996cadc001622fb5e363b421",
            "stateRoot" : "0x040c4fb84b0dea181a27ac441122a4bf819bc6d8e758797c3a5b1361d3dad220",
            "timestamp" : "0x03b6",
            "transactionsTrie" : "0x56e81f171bcc55a6ff8345e692c0f86e5b48e01b996cadc001622fb5e363b421",
            "uncleHash" : "0x1dcc4de8dec75d7aab85b567b6ccd41ad312451b948a7413f0a142fd40d49347"
        },
        "genesisRLP" : "0xf901faf901f5a00000000000000000000000000000000000000000000000000000000000000000a01dcc4de8dec75d7aab85b567b6ccd41ad312451b948a7413f0a142fd40d49347942adc25665018aa1fe0e6bc666dac8fc2697ff9baa0040c4fb84b0dea181a27ac441122a4bf819bc6d8e758797c3a5b1361d3dad220a056e81f171bcc55a6ff8345e692c0f86e5b48e01b996cadc001622fb5e363b421a056e81f171bcc55a6ff8345e692c0f86e5b48e01b996cadc001622fb5e363b421b90100000000000000000000000000000000000000000000000000000000000000000000000000000000000000000000000000000000000000000000000000000000000000000000000000000000000000000000000000000000000000000000000000000000000000000000000000000000000000000000000000000000000000000000000000000000000000000000000000000000000000000000000000000000000000000000000000000000000000000000000000000000000000000000000000000000000000000000000000000000000000000000000000000000000000000000000000000000000000000000000000000000000000000000000000000000008302000080830f4240808203b642a056e81f171bcc55a6ff8345e692c0f86e5b48e01b996cadc001622fb5e363b421880102030405060708c0c0",
        "lastblockhash" : "0x17c0434b04ea17fa67b71fd33d26ae6e2e2e55faf8d5579811fd247f1a9ee646",
        "network" : "EIP150",
        "postState" : {
            "0x1000000000000000000000000000000000000000" : {
                "balance" : "0x270f",
                "code" : "0x7f6040600060406000600573945304eb96065b2a98b57a48a06ae28d285a71b5626000527f0186a0f260005500000000000000000000000000000000000000000000000000602052604060006001f0",
                "nonce" : "0x01",
                "storage" : {
                }
            },
            "0x13136008b64ff592819b2fa6d43f2835c452020e" : {
                "balance" : "0x01",
                "code" : "",
                "nonce" : "0x00",
                "storage" : {
                }
            },
            "0x2adc25665018aa1fe0e6bc666dac8fc2697ff9ba" : {
                "balance" : "0x4563918244f4ffb7",
                "code" : "",
                "nonce" : "0x00",
                "storage" : {
                }
            },
            "0x945304eb96065b2a98b57a48a06ae28d285a71b5" : {
                "balance" : "0x00",
                "code" : "0x6001600255",
                "nonce" : "0x00",
                "storage" : {
                }
            },
            "0xa94f5374fce5edbc8e2a8697c15331677e6ebf0b" : {
                "balance" : "0x2386f26fc00049",
                "code" : "",
                "nonce" : "0x01",
                "storage" : {
                }
            }
        },
        "pre" : {
            "0x1000000000000000000000000000000000000000" : {
                "balance" : "0x2710",
                "code" : "0x7f6040600060406000600573945304eb96065b2a98b57a48a06ae28d285a71b5626000527f0186a0f260005500000000000000000000000000000000000000000000000000602052604060006001f0",
                "nonce" : "0x00",
                "storage" : {
                }
            },
            "0x945304eb96065b2a98b57a48a06ae28d285a71b5" : {
                "balance" : "0x00",
                "code" : "0x6001600255",
                "nonce" : "0x00",
                "storage" : {
                }
            },
            "0xa94f5374fce5edbc8e2a8697c15331677e6ebf0b" : {
                "balance" : "0x2386f26fc10000",
                "code" : "",
                "nonce" : "0x00",
                "storage" : {
                }
            }
        }
    },
    "callcodeInInitcodeToExisContractWithVTransferNEMoney_d0g0v0_EIP158" : {
        "_info" : {
            "comment" : "",
            "filledwith" : "cpp-1.3.0+commit.6e0ce939.Linux.g++",
            "lllcversion" : "Version: 0.4.18-develop.2017.9.25+commit.a72237f2.Linux.g++",
            "source" : "src/BlockchainTestsFiller/GeneralStateTests/stCallCodes/callcodeInInitcodeToExisContractWithVTransferNEMoney_d0g0v0Filler.json",
            "sourceHash" : "4384b9bfff3769e623bdb72f85d31a5ce42e078f5c1505c4bb64e9295caa0c9c"
        },
        "blocks" : [
            {
                "blockHeader" : {
                    "bloom" : "0x00000000000000000000000000000000000000000000000000000000000000000000000000000000000000000000000000000000000000000000000000000000000000000000000000000000000000000000000000000000000000000000000000000000000000000000000000000000000000000000000000000000000000000000000000000000000000000000000000000000000000000000000000000000000000000000000000000000000000000000000000000000000000000000000000000000000000000000000000000000000000000000000000000000000000000000000000000000000000000000000000000000000000000000000000000000",
                    "coinbase" : "0x2adc25665018aa1fe0e6bc666dac8fc2697ff9ba",
                    "difficulty" : "0x020000",
                    "extraData" : "",
                    "gasLimit" : "0x0f4240",
                    "gasUsed" : "0xffb7",
                    "hash" : "0x49be75505f4826f45ecfb2a0cd76122f3d459731444525a4c9a0a8c761ec90aa",
                    "mixHash" : "0x8132d7af3309b9dee18032e6d1a95051eb94f4622cf30e95635496fcb359311c",
                    "nonce" : "0x672b987d422d3340",
                    "number" : "0x01",
                    "parentHash" : "0x72a3052fbd2c5dc406dd747e1ed2e7ded4a0ba56e90549789363f84176328d2c",
                    "receiptTrie" : "0x5ec054dceda0108e7188e1966bb2adbac4ba41c7ffa27471229689caa563499b",
                    "stateRoot" : "0xb81ad6358e612451ce81044e1d3f54d0ef1ced101052fc38dd5b763d6704a3a1",
                    "timestamp" : "0x03e8",
                    "transactionsTrie" : "0x74b39e73f0c67b78fff4eb82226142222765b09c97c66d83d2aa030ec81c4f68",
                    "uncleHash" : "0x1dcc4de8dec75d7aab85b567b6ccd41ad312451b948a7413f0a142fd40d49347"
                },
                "rlp" : "0xf9025ff901f7a072a3052fbd2c5dc406dd747e1ed2e7ded4a0ba56e90549789363f84176328d2ca01dcc4de8dec75d7aab85b567b6ccd41ad312451b948a7413f0a142fd40d49347942adc25665018aa1fe0e6bc666dac8fc2697ff9baa0b81ad6358e612451ce81044e1d3f54d0ef1ced101052fc38dd5b763d6704a3a1a074b39e73f0c67b78fff4eb82226142222765b09c97c66d83d2aa030ec81c4f68a05ec054dceda0108e7188e1966bb2adbac4ba41c7ffa27471229689caa563499bb90100000000000000000000000000000000000000000000000000000000000000000000000000000000000000000000000000000000000000000000000000000000000000000000000000000000000000000000000000000000000000000000000000000000000000000000000000000000000000000000000000000000000000000000000000000000000000000000000000000000000000000000000000000000000000000000000000000000000000000000000000000000000000000000000000000000000000000000000000000000000000000000000000000000000000000000000000000000000000000000000000000000000000000000000000000000008302000001830f424082ffb78203e880a08132d7af3309b9dee18032e6d1a95051eb94f4622cf30e95635496fcb359311c88672b987d422d3340f862f86080018306e9d994100000000000000000000000000000000000000080801ba0f3800914fa5a27a13dc5a4119f11c1ae1c6874ad1e299f13e9f43e96c8bdaa0ea0332b1e65d433906232fbb38ec187498f66c29f6127864d94788d7de5bc1d4d32c0",
                "transactions" : [
                    {
                        "data" : "",
                        "gasLimit" : "0x06e9d9",
                        "gasPrice" : "0x01",
                        "nonce" : "0x00",
                        "r" : "0xf3800914fa5a27a13dc5a4119f11c1ae1c6874ad1e299f13e9f43e96c8bdaa0e",
                        "s" : "0x332b1e65d433906232fbb38ec187498f66c29f6127864d94788d7de5bc1d4d32",
                        "to" : "0x1000000000000000000000000000000000000000",
                        "v" : "0x1b",
                        "value" : "0x00"
                    }
                ],
                "uncleHeaders" : [
                ]
            }
        ],
        "genesisBlockHeader" : {
            "bloom" : "0x00000000000000000000000000000000000000000000000000000000000000000000000000000000000000000000000000000000000000000000000000000000000000000000000000000000000000000000000000000000000000000000000000000000000000000000000000000000000000000000000000000000000000000000000000000000000000000000000000000000000000000000000000000000000000000000000000000000000000000000000000000000000000000000000000000000000000000000000000000000000000000000000000000000000000000000000000000000000000000000000000000000000000000000000000000000",
            "coinbase" : "0x2adc25665018aa1fe0e6bc666dac8fc2697ff9ba",
            "difficulty" : "0x020000",
            "extraData" : "0x42",
            "gasLimit" : "0x0f4240",
            "gasUsed" : "0x00",
            "hash" : "0x72a3052fbd2c5dc406dd747e1ed2e7ded4a0ba56e90549789363f84176328d2c",
            "mixHash" : "0x56e81f171bcc55a6ff8345e692c0f86e5b48e01b996cadc001622fb5e363b421",
            "nonce" : "0x0102030405060708",
            "number" : "0x00",
            "parentHash" : "0x0000000000000000000000000000000000000000000000000000000000000000",
            "receiptTrie" : "0x56e81f171bcc55a6ff8345e692c0f86e5b48e01b996cadc001622fb5e363b421",
            "stateRoot" : "0x040c4fb84b0dea181a27ac441122a4bf819bc6d8e758797c3a5b1361d3dad220",
            "timestamp" : "0x03b6",
            "transactionsTrie" : "0x56e81f171bcc55a6ff8345e692c0f86e5b48e01b996cadc001622fb5e363b421",
            "uncleHash" : "0x1dcc4de8dec75d7aab85b567b6ccd41ad312451b948a7413f0a142fd40d49347"
        },
        "genesisRLP" : "0xf901faf901f5a00000000000000000000000000000000000000000000000000000000000000000a01dcc4de8dec75d7aab85b567b6ccd41ad312451b948a7413f0a142fd40d49347942adc25665018aa1fe0e6bc666dac8fc2697ff9baa0040c4fb84b0dea181a27ac441122a4bf819bc6d8e758797c3a5b1361d3dad220a056e81f171bcc55a6ff8345e692c0f86e5b48e01b996cadc001622fb5e363b421a056e81f171bcc55a6ff8345e692c0f86e5b48e01b996cadc001622fb5e363b421b90100000000000000000000000000000000000000000000000000000000000000000000000000000000000000000000000000000000000000000000000000000000000000000000000000000000000000000000000000000000000000000000000000000000000000000000000000000000000000000000000000000000000000000000000000000000000000000000000000000000000000000000000000000000000000000000000000000000000000000000000000000000000000000000000000000000000000000000000000000000000000000000000000000000000000000000000000000000000000000000000000000000000000000000000000000000008302000080830f4240808203b642a056e81f171bcc55a6ff8345e692c0f86e5b48e01b996cadc001622fb5e363b421880102030405060708c0c0",
        "lastblockhash" : "0x49be75505f4826f45ecfb2a0cd76122f3d459731444525a4c9a0a8c761ec90aa",
        "network" : "EIP158",
        "postState" : {
            "0x1000000000000000000000000000000000000000" : {
                "balance" : "0x270f",
                "code" : "0x7f6040600060406000600573945304eb96065b2a98b57a48a06ae28d285a71b5626000527f0186a0f260005500000000000000000000000000000000000000000000000000602052604060006001f0",
                "nonce" : "0x01",
                "storage" : {
                }
            },
            "0x13136008b64ff592819b2fa6d43f2835c452020e" : {
                "balance" : "0x01",
                "code" : "",
                "nonce" : "0x01",
                "storage" : {
                }
            },
            "0x2adc25665018aa1fe0e6bc666dac8fc2697ff9ba" : {
                "balance" : "0x4563918244f4ffb7",
                "code" : "",
                "nonce" : "0x00",
                "storage" : {
                }
            },
            "0x945304eb96065b2a98b57a48a06ae28d285a71b5" : {
                "balance" : "0x00",
                "code" : "0x6001600255",
                "nonce" : "0x00",
                "storage" : {
                }
            },
            "0xa94f5374fce5edbc8e2a8697c15331677e6ebf0b" : {
                "balance" : "0x2386f26fc00049",
                "code" : "",
                "nonce" : "0x01",
                "storage" : {
                }
            }
        },
        "pre" : {
            "0x1000000000000000000000000000000000000000" : {
                "balance" : "0x2710",
                "code" : "0x7f6040600060406000600573945304eb96065b2a98b57a48a06ae28d285a71b5626000527f0186a0f260005500000000000000000000000000000000000000000000000000602052604060006001f0",
                "nonce" : "0x00",
                "storage" : {
                }
            },
            "0x945304eb96065b2a98b57a48a06ae28d285a71b5" : {
                "balance" : "0x00",
                "code" : "0x6001600255",
                "nonce" : "0x00",
                "storage" : {
                }
            },
            "0xa94f5374fce5edbc8e2a8697c15331677e6ebf0b" : {
                "balance" : "0x2386f26fc10000",
                "code" : "",
                "nonce" : "0x00",
                "storage" : {
                }
            }
        }
    },
    "callcodeInInitcodeToExisContractWithVTransferNEMoney_d0g0v0_Frontier" : {
        "_info" : {
            "comment" : "",
            "filledwith" : "cpp-1.3.0+commit.6e0ce939.Linux.g++",
            "lllcversion" : "Version: 0.4.18-develop.2017.9.25+commit.a72237f2.Linux.g++",
            "source" : "src/BlockchainTestsFiller/GeneralStateTests/stCallCodes/callcodeInInitcodeToExisContractWithVTransferNEMoney_d0g0v0Filler.json",
            "sourceHash" : "4384b9bfff3769e623bdb72f85d31a5ce42e078f5c1505c4bb64e9295caa0c9c"
        },
        "blocks" : [
            {
                "blockHeader" : {
                    "bloom" : "0x00000000000000000000000000000000000000000000000000000000000000000000000000000000000000000000000000000000000000000000000000000000000000000000000000000000000000000000000000000000000000000000000000000000000000000000000000000000000000000000000000000000000000000000000000000000000000000000000000000000000000000000000000000000000000000000000000000000000000000000000000000000000000000000000000000000000000000000000000000000000000000000000000000000000000000000000000000000000000000000000000000000000000000000000000000000",
                    "coinbase" : "0x2adc25665018aa1fe0e6bc666dac8fc2697ff9ba",
                    "difficulty" : "0x020000",
                    "extraData" : "",
                    "gasLimit" : "0x0f4240",
                    "gasUsed" : "0xfd23",
                    "hash" : "0xc99c3d26ddc14f8dbe9b01a8f14c3aa65035031edf69852a7af781a1523eb7a1",
                    "mixHash" : "0xefa41ab40c3aa5e0cdc785352b0a261e0f42f105178b83eb80a141e5fad922a1",
                    "nonce" : "0x1efc8b21948c50eb",
                    "number" : "0x01",
                    "parentHash" : "0x72a3052fbd2c5dc406dd747e1ed2e7ded4a0ba56e90549789363f84176328d2c",
                    "receiptTrie" : "0x780da83fe09e228d95a03bd299fc6f7c10f71b8b15c508b444a345a69a4efca4",
                    "stateRoot" : "0x3621f0fee436564f2861a45c5f242f0c3d90aafd8cac445e9af4b4a30ed98ba3",
                    "timestamp" : "0x03e8",
                    "transactionsTrie" : "0x74b39e73f0c67b78fff4eb82226142222765b09c97c66d83d2aa030ec81c4f68",
                    "uncleHash" : "0x1dcc4de8dec75d7aab85b567b6ccd41ad312451b948a7413f0a142fd40d49347"
                },
                "rlp" : "0xf9025ff901f7a072a3052fbd2c5dc406dd747e1ed2e7ded4a0ba56e90549789363f84176328d2ca01dcc4de8dec75d7aab85b567b6ccd41ad312451b948a7413f0a142fd40d49347942adc25665018aa1fe0e6bc666dac8fc2697ff9baa03621f0fee436564f2861a45c5f242f0c3d90aafd8cac445e9af4b4a30ed98ba3a074b39e73f0c67b78fff4eb82226142222765b09c97c66d83d2aa030ec81c4f68a0780da83fe09e228d95a03bd299fc6f7c10f71b8b15c508b444a345a69a4efca4b90100000000000000000000000000000000000000000000000000000000000000000000000000000000000000000000000000000000000000000000000000000000000000000000000000000000000000000000000000000000000000000000000000000000000000000000000000000000000000000000000000000000000000000000000000000000000000000000000000000000000000000000000000000000000000000000000000000000000000000000000000000000000000000000000000000000000000000000000000000000000000000000000000000000000000000000000000000000000000000000000000000000000000000000000000000000008302000001830f424082fd238203e880a0efa41ab40c3aa5e0cdc785352b0a261e0f42f105178b83eb80a141e5fad922a1881efc8b21948c50ebf862f86080018306e9d994100000000000000000000000000000000000000080801ba0f3800914fa5a27a13dc5a4119f11c1ae1c6874ad1e299f13e9f43e96c8bdaa0ea0332b1e65d433906232fbb38ec187498f66c29f6127864d94788d7de5bc1d4d32c0",
                "transactions" : [
                    {
                        "data" : "",
                        "gasLimit" : "0x06e9d9",
                        "gasPrice" : "0x01",
                        "nonce" : "0x00",
                        "r" : "0xf3800914fa5a27a13dc5a4119f11c1ae1c6874ad1e299f13e9f43e96c8bdaa0e",
                        "s" : "0x332b1e65d433906232fbb38ec187498f66c29f6127864d94788d7de5bc1d4d32",
                        "to" : "0x1000000000000000000000000000000000000000",
                        "v" : "0x1b",
                        "value" : "0x00"
                    }
                ],
                "uncleHeaders" : [
                ]
            }
        ],
        "genesisBlockHeader" : {
            "bloom" : "0x00000000000000000000000000000000000000000000000000000000000000000000000000000000000000000000000000000000000000000000000000000000000000000000000000000000000000000000000000000000000000000000000000000000000000000000000000000000000000000000000000000000000000000000000000000000000000000000000000000000000000000000000000000000000000000000000000000000000000000000000000000000000000000000000000000000000000000000000000000000000000000000000000000000000000000000000000000000000000000000000000000000000000000000000000000000",
            "coinbase" : "0x2adc25665018aa1fe0e6bc666dac8fc2697ff9ba",
            "difficulty" : "0x020000",
            "extraData" : "0x42",
            "gasLimit" : "0x0f4240",
            "gasUsed" : "0x00",
            "hash" : "0x72a3052fbd2c5dc406dd747e1ed2e7ded4a0ba56e90549789363f84176328d2c",
            "mixHash" : "0x56e81f171bcc55a6ff8345e692c0f86e5b48e01b996cadc001622fb5e363b421",
            "nonce" : "0x0102030405060708",
            "number" : "0x00",
            "parentHash" : "0x0000000000000000000000000000000000000000000000000000000000000000",
            "receiptTrie" : "0x56e81f171bcc55a6ff8345e692c0f86e5b48e01b996cadc001622fb5e363b421",
            "stateRoot" : "0x040c4fb84b0dea181a27ac441122a4bf819bc6d8e758797c3a5b1361d3dad220",
            "timestamp" : "0x03b6",
            "transactionsTrie" : "0x56e81f171bcc55a6ff8345e692c0f86e5b48e01b996cadc001622fb5e363b421",
            "uncleHash" : "0x1dcc4de8dec75d7aab85b567b6ccd41ad312451b948a7413f0a142fd40d49347"
        },
        "genesisRLP" : "0xf901faf901f5a00000000000000000000000000000000000000000000000000000000000000000a01dcc4de8dec75d7aab85b567b6ccd41ad312451b948a7413f0a142fd40d49347942adc25665018aa1fe0e6bc666dac8fc2697ff9baa0040c4fb84b0dea181a27ac441122a4bf819bc6d8e758797c3a5b1361d3dad220a056e81f171bcc55a6ff8345e692c0f86e5b48e01b996cadc001622fb5e363b421a056e81f171bcc55a6ff8345e692c0f86e5b48e01b996cadc001622fb5e363b421b90100000000000000000000000000000000000000000000000000000000000000000000000000000000000000000000000000000000000000000000000000000000000000000000000000000000000000000000000000000000000000000000000000000000000000000000000000000000000000000000000000000000000000000000000000000000000000000000000000000000000000000000000000000000000000000000000000000000000000000000000000000000000000000000000000000000000000000000000000000000000000000000000000000000000000000000000000000000000000000000000000000000000000000000000000000000008302000080830f4240808203b642a056e81f171bcc55a6ff8345e692c0f86e5b48e01b996cadc001622fb5e363b421880102030405060708c0c0",
        "lastblockhash" : "0xc99c3d26ddc14f8dbe9b01a8f14c3aa65035031edf69852a7af781a1523eb7a1",
        "network" : "Frontier",
        "postState" : {
            "0x1000000000000000000000000000000000000000" : {
                "balance" : "0x270f",
                "code" : "0x7f6040600060406000600573945304eb96065b2a98b57a48a06ae28d285a71b5626000527f0186a0f260005500000000000000000000000000000000000000000000000000602052604060006001f0",
                "nonce" : "0x01",
                "storage" : {
                }
            },
            "0x13136008b64ff592819b2fa6d43f2835c452020e" : {
                "balance" : "0x01",
                "code" : "",
                "nonce" : "0x00",
                "storage" : {
                }
            },
            "0x2adc25665018aa1fe0e6bc666dac8fc2697ff9ba" : {
                "balance" : "0x4563918244f4fd23",
                "code" : "",
                "nonce" : "0x00",
                "storage" : {
                }
            },
            "0x945304eb96065b2a98b57a48a06ae28d285a71b5" : {
                "balance" : "0x00",
                "code" : "0x6001600255",
                "nonce" : "0x00",
                "storage" : {
                }
            },
            "0xa94f5374fce5edbc8e2a8697c15331677e6ebf0b" : {
                "balance" : "0x2386f26fc002dd",
                "code" : "",
                "nonce" : "0x01",
                "storage" : {
                }
            }
        },
        "pre" : {
            "0x1000000000000000000000000000000000000000" : {
                "balance" : "0x2710",
                "code" : "0x7f6040600060406000600573945304eb96065b2a98b57a48a06ae28d285a71b5626000527f0186a0f260005500000000000000000000000000000000000000000000000000602052604060006001f0",
                "nonce" : "0x00",
                "storage" : {
                }
            },
            "0x945304eb96065b2a98b57a48a06ae28d285a71b5" : {
                "balance" : "0x00",
                "code" : "0x6001600255",
                "nonce" : "0x00",
                "storage" : {
                }
            },
            "0xa94f5374fce5edbc8e2a8697c15331677e6ebf0b" : {
                "balance" : "0x2386f26fc10000",
                "code" : "",
                "nonce" : "0x00",
                "storage" : {
                }
            }
        }
    },
    "callcodeInInitcodeToExisContractWithVTransferNEMoney_d0g0v0_Homestead" : {
        "_info" : {
            "comment" : "",
            "filledwith" : "cpp-1.3.0+commit.6e0ce939.Linux.g++",
            "lllcversion" : "Version: 0.4.18-develop.2017.9.25+commit.a72237f2.Linux.g++",
            "source" : "src/BlockchainTestsFiller/GeneralStateTests/stCallCodes/callcodeInInitcodeToExisContractWithVTransferNEMoney_d0g0v0Filler.json",
            "sourceHash" : "4384b9bfff3769e623bdb72f85d31a5ce42e078f5c1505c4bb64e9295caa0c9c"
        },
        "blocks" : [
            {
                "blockHeader" : {
                    "bloom" : "0x00000000000000000000000000000000000000000000000000000000000000000000000000000000000000000000000000000000000000000000000000000000000000000000000000000000000000000000000000000000000000000000000000000000000000000000000000000000000000000000000000000000000000000000000000000000000000000000000000000000000000000000000000000000000000000000000000000000000000000000000000000000000000000000000000000000000000000000000000000000000000000000000000000000000000000000000000000000000000000000000000000000000000000000000000000000",
                    "coinbase" : "0x2adc25665018aa1fe0e6bc666dac8fc2697ff9ba",
                    "difficulty" : "0x020000",
                    "extraData" : "",
                    "gasLimit" : "0x0f4240",
                    "gasUsed" : "0xfd23",
                    "hash" : "0x6a970b1620ecaf25ed1f94486f42676aecaa2277b7380ca3546947f802b42bec",
                    "mixHash" : "0xd4764c4e017ffd10cf07290c78594db6166acf8506c9aadef8cddcf26bde1385",
                    "nonce" : "0x8b90112d26a4d59b",
                    "number" : "0x01",
                    "parentHash" : "0x72a3052fbd2c5dc406dd747e1ed2e7ded4a0ba56e90549789363f84176328d2c",
                    "receiptTrie" : "0x780da83fe09e228d95a03bd299fc6f7c10f71b8b15c508b444a345a69a4efca4",
                    "stateRoot" : "0x3621f0fee436564f2861a45c5f242f0c3d90aafd8cac445e9af4b4a30ed98ba3",
                    "timestamp" : "0x03e8",
                    "transactionsTrie" : "0x74b39e73f0c67b78fff4eb82226142222765b09c97c66d83d2aa030ec81c4f68",
                    "uncleHash" : "0x1dcc4de8dec75d7aab85b567b6ccd41ad312451b948a7413f0a142fd40d49347"
                },
                "rlp" : "0xf9025ff901f7a072a3052fbd2c5dc406dd747e1ed2e7ded4a0ba56e90549789363f84176328d2ca01dcc4de8dec75d7aab85b567b6ccd41ad312451b948a7413f0a142fd40d49347942adc25665018aa1fe0e6bc666dac8fc2697ff9baa03621f0fee436564f2861a45c5f242f0c3d90aafd8cac445e9af4b4a30ed98ba3a074b39e73f0c67b78fff4eb82226142222765b09c97c66d83d2aa030ec81c4f68a0780da83fe09e228d95a03bd299fc6f7c10f71b8b15c508b444a345a69a4efca4b90100000000000000000000000000000000000000000000000000000000000000000000000000000000000000000000000000000000000000000000000000000000000000000000000000000000000000000000000000000000000000000000000000000000000000000000000000000000000000000000000000000000000000000000000000000000000000000000000000000000000000000000000000000000000000000000000000000000000000000000000000000000000000000000000000000000000000000000000000000000000000000000000000000000000000000000000000000000000000000000000000000000000000000000000000000000008302000001830f424082fd238203e880a0d4764c4e017ffd10cf07290c78594db6166acf8506c9aadef8cddcf26bde1385888b90112d26a4d59bf862f86080018306e9d994100000000000000000000000000000000000000080801ba0f3800914fa5a27a13dc5a4119f11c1ae1c6874ad1e299f13e9f43e96c8bdaa0ea0332b1e65d433906232fbb38ec187498f66c29f6127864d94788d7de5bc1d4d32c0",
                "transactions" : [
                    {
                        "data" : "",
                        "gasLimit" : "0x06e9d9",
                        "gasPrice" : "0x01",
                        "nonce" : "0x00",
                        "r" : "0xf3800914fa5a27a13dc5a4119f11c1ae1c6874ad1e299f13e9f43e96c8bdaa0e",
                        "s" : "0x332b1e65d433906232fbb38ec187498f66c29f6127864d94788d7de5bc1d4d32",
                        "to" : "0x1000000000000000000000000000000000000000",
                        "v" : "0x1b",
                        "value" : "0x00"
                    }
                ],
                "uncleHeaders" : [
                ]
            }
        ],
        "genesisBlockHeader" : {
            "bloom" : "0x00000000000000000000000000000000000000000000000000000000000000000000000000000000000000000000000000000000000000000000000000000000000000000000000000000000000000000000000000000000000000000000000000000000000000000000000000000000000000000000000000000000000000000000000000000000000000000000000000000000000000000000000000000000000000000000000000000000000000000000000000000000000000000000000000000000000000000000000000000000000000000000000000000000000000000000000000000000000000000000000000000000000000000000000000000000",
            "coinbase" : "0x2adc25665018aa1fe0e6bc666dac8fc2697ff9ba",
            "difficulty" : "0x020000",
            "extraData" : "0x42",
            "gasLimit" : "0x0f4240",
            "gasUsed" : "0x00",
            "hash" : "0x72a3052fbd2c5dc406dd747e1ed2e7ded4a0ba56e90549789363f84176328d2c",
            "mixHash" : "0x56e81f171bcc55a6ff8345e692c0f86e5b48e01b996cadc001622fb5e363b421",
            "nonce" : "0x0102030405060708",
            "number" : "0x00",
            "parentHash" : "0x0000000000000000000000000000000000000000000000000000000000000000",
            "receiptTrie" : "0x56e81f171bcc55a6ff8345e692c0f86e5b48e01b996cadc001622fb5e363b421",
            "stateRoot" : "0x040c4fb84b0dea181a27ac441122a4bf819bc6d8e758797c3a5b1361d3dad220",
            "timestamp" : "0x03b6",
            "transactionsTrie" : "0x56e81f171bcc55a6ff8345e692c0f86e5b48e01b996cadc001622fb5e363b421",
            "uncleHash" : "0x1dcc4de8dec75d7aab85b567b6ccd41ad312451b948a7413f0a142fd40d49347"
        },
        "genesisRLP" : "0xf901faf901f5a00000000000000000000000000000000000000000000000000000000000000000a01dcc4de8dec75d7aab85b567b6ccd41ad312451b948a7413f0a142fd40d49347942adc25665018aa1fe0e6bc666dac8fc2697ff9baa0040c4fb84b0dea181a27ac441122a4bf819bc6d8e758797c3a5b1361d3dad220a056e81f171bcc55a6ff8345e692c0f86e5b48e01b996cadc001622fb5e363b421a056e81f171bcc55a6ff8345e692c0f86e5b48e01b996cadc001622fb5e363b421b90100000000000000000000000000000000000000000000000000000000000000000000000000000000000000000000000000000000000000000000000000000000000000000000000000000000000000000000000000000000000000000000000000000000000000000000000000000000000000000000000000000000000000000000000000000000000000000000000000000000000000000000000000000000000000000000000000000000000000000000000000000000000000000000000000000000000000000000000000000000000000000000000000000000000000000000000000000000000000000000000000000000000000000000000000000000008302000080830f4240808203b642a056e81f171bcc55a6ff8345e692c0f86e5b48e01b996cadc001622fb5e363b421880102030405060708c0c0",
        "lastblockhash" : "0x6a970b1620ecaf25ed1f94486f42676aecaa2277b7380ca3546947f802b42bec",
        "network" : "Homestead",
        "postState" : {
            "0x1000000000000000000000000000000000000000" : {
                "balance" : "0x270f",
                "code" : "0x7f6040600060406000600573945304eb96065b2a98b57a48a06ae28d285a71b5626000527f0186a0f260005500000000000000000000000000000000000000000000000000602052604060006001f0",
                "nonce" : "0x01",
                "storage" : {
                }
            },
            "0x13136008b64ff592819b2fa6d43f2835c452020e" : {
                "balance" : "0x01",
                "code" : "",
                "nonce" : "0x00",
                "storage" : {
                }
            },
            "0x2adc25665018aa1fe0e6bc666dac8fc2697ff9ba" : {
                "balance" : "0x4563918244f4fd23",
                "code" : "",
                "nonce" : "0x00",
                "storage" : {
                }
            },
            "0x945304eb96065b2a98b57a48a06ae28d285a71b5" : {
                "balance" : "0x00",
                "code" : "0x6001600255",
                "nonce" : "0x00",
                "storage" : {
                }
            },
            "0xa94f5374fce5edbc8e2a8697c15331677e6ebf0b" : {
                "balance" : "0x2386f26fc002dd",
                "code" : "",
                "nonce" : "0x01",
                "storage" : {
                }
            }
        },
        "pre" : {
            "0x1000000000000000000000000000000000000000" : {
                "balance" : "0x2710",
                "code" : "0x7f6040600060406000600573945304eb96065b2a98b57a48a06ae28d285a71b5626000527f0186a0f260005500000000000000000000000000000000000000000000000000602052604060006001f0",
                "nonce" : "0x00",
                "storage" : {
                }
            },
            "0x945304eb96065b2a98b57a48a06ae28d285a71b5" : {
                "balance" : "0x00",
                "code" : "0x6001600255",
                "nonce" : "0x00",
                "storage" : {
                }
            },
            "0xa94f5374fce5edbc8e2a8697c15331677e6ebf0b" : {
                "balance" : "0x2386f26fc10000",
                "code" : "",
                "nonce" : "0x00",
                "storage" : {
                }
            }
        }
    }
}