{
    "callcall_00_SuicideEnd_d0g0v0_Byzantium" : {
        "_info" : {
            "comment" : "",
            "filledwith" : "cpp-1.3.0+commit.6e0ce939.Linux.g++",
            "lllcversion" : "Version: 0.4.18-develop.2017.9.25+commit.a72237f2.Linux.g++",
            "source" : "src/BlockchainTestsFiller/GeneralStateTests/stCallCodes/callcall_00_SuicideEnd_d0g0v0Filler.json",
            "sourceHash" : "2dc9c1bf9655e4ec8f67322b6c0d928147a5a3bacfaac4a722437dda48ab0827"
        },
        "blocks" : [
            {
                "blockHeader" : {
                    "bloom" : "0x00000000000000000000000000000000000000000000000000000000000000000000000000000000000000000000000000000000000000000000000000000000000000000000000000000000000000000000000000000000000000000000000000000000000000000000000000000000000000000000000000000000000000000000000000000000000000000000000000000000000000000000000000000000000000000000000000000000000000000000000000000000000000000000000000000000000000000000000000000000000000000000000000000000000000000000000000000000000000000000000000000000000000000000000000000000",
                    "coinbase" : "0x2adc25665018aa1fe0e6bc666dac8fc2697ff9ba",
                    "difficulty" : "0x020000",
                    "extraData" : "",
                    "gasLimit" : "0x01c9c380",
                    "gasUsed" : "0xf7ed",
                    "hash" : "0x3ee019a1980b5f1d4e85994f935bb9a129836056f538581e6e5d93216cd40556",
                    "mixHash" : "0x6ca7ef4440e75dd29673bc46ee9def154143930e448533360f31834c102c0f44",
                    "nonce" : "0x83468b36e4b9aa80",
                    "number" : "0x01",
                    "parentHash" : "0x391a078a9d04ac17dcc4d23a91170015383a97024d25b7d85d234ef1cf3eb9dc",
                    "receiptTrie" : "0xd2f0f725c26ae5285a16e9dfbde95c51f2ea36c4582b6d5233da72f5592849e6",
                    "stateRoot" : "0xe551f2d874f04b1150f078a3516918be9e535216c0e75e1bf0e1537828eee6a6",
                    "timestamp" : "0x03e8",
                    "transactionsTrie" : "0x5d88595a2b9f129f2901f79a207ca2d95f38ac387707e6cb1de43679d06079d4",
                    "uncleHash" : "0x1dcc4de8dec75d7aab85b567b6ccd41ad312451b948a7413f0a142fd40d49347"
                },
                "rlp" : "0xf90260f901f8a0391a078a9d04ac17dcc4d23a91170015383a97024d25b7d85d234ef1cf3eb9dca01dcc4de8dec75d7aab85b567b6ccd41ad312451b948a7413f0a142fd40d49347942adc25665018aa1fe0e6bc666dac8fc2697ff9baa0e551f2d874f04b1150f078a3516918be9e535216c0e75e1bf0e1537828eee6a6a05d88595a2b9f129f2901f79a207ca2d95f38ac387707e6cb1de43679d06079d4a0d2f0f725c26ae5285a16e9dfbde95c51f2ea36c4582b6d5233da72f5592849e6b901000000000000000000000000000000000000000000000000000000000000000000000000000000000000000000000000000000000000000000000000000000000000000000000000000000000000000000000000000000000000000000000000000000000000000000000000000000000000000000000000000000000000000000000000000000000000000000000000000000000000000000000000000000000000000000000000000000000000000000000000000000000000000000000000000000000000000000000000000000000000000000000000000000000000000000000000000000000000000000000000000000000000000000000000000000000083020000018401c9c38082f7ed8203e880a06ca7ef4440e75dd29673bc46ee9def154143930e448533360f31834c102c0f448883468b36e4b9aa80f862f8608001832dc6c094100000000000000000000000000000000000000080801ba0bc3f717090c5b3d46550833ec05cc91a3c352bd18be2c0eed5ed3e54e8af58f9a03a7d01021289eca372726c91175e4f422da3147bd3961cd66ca95f1cf3619fb2c0",
                "transactions" : [
                    {
                        "data" : "",
                        "gasLimit" : "0x2dc6c0",
                        "gasPrice" : "0x01",
                        "nonce" : "0x00",
                        "r" : "0xbc3f717090c5b3d46550833ec05cc91a3c352bd18be2c0eed5ed3e54e8af58f9",
                        "s" : "0x3a7d01021289eca372726c91175e4f422da3147bd3961cd66ca95f1cf3619fb2",
                        "to" : "0x1000000000000000000000000000000000000000",
                        "v" : "0x1b",
                        "value" : "0x00"
                    }
                ],
                "uncleHeaders" : [
                ]
            }
        ],
        "genesisBlockHeader" : {
            "bloom" : "0x00000000000000000000000000000000000000000000000000000000000000000000000000000000000000000000000000000000000000000000000000000000000000000000000000000000000000000000000000000000000000000000000000000000000000000000000000000000000000000000000000000000000000000000000000000000000000000000000000000000000000000000000000000000000000000000000000000000000000000000000000000000000000000000000000000000000000000000000000000000000000000000000000000000000000000000000000000000000000000000000000000000000000000000000000000000",
            "coinbase" : "0x2adc25665018aa1fe0e6bc666dac8fc2697ff9ba",
            "difficulty" : "0x020000",
            "extraData" : "0x42",
            "gasLimit" : "0x01c9c380",
            "gasUsed" : "0x00",
            "hash" : "0x391a078a9d04ac17dcc4d23a91170015383a97024d25b7d85d234ef1cf3eb9dc",
            "mixHash" : "0x56e81f171bcc55a6ff8345e692c0f86e5b48e01b996cadc001622fb5e363b421",
            "nonce" : "0x0102030405060708",
            "number" : "0x00",
            "parentHash" : "0x0000000000000000000000000000000000000000000000000000000000000000",
            "receiptTrie" : "0x56e81f171bcc55a6ff8345e692c0f86e5b48e01b996cadc001622fb5e363b421",
            "stateRoot" : "0x41d82e1089e4c9ec64dd5d823e47b695a5f902ba87dd993e6b3558360ff54828",
            "timestamp" : "0x03b6",
            "transactionsTrie" : "0x56e81f171bcc55a6ff8345e692c0f86e5b48e01b996cadc001622fb5e363b421",
            "uncleHash" : "0x1dcc4de8dec75d7aab85b567b6ccd41ad312451b948a7413f0a142fd40d49347"
        },
        "genesisRLP" : "0xf901fbf901f6a00000000000000000000000000000000000000000000000000000000000000000a01dcc4de8dec75d7aab85b567b6ccd41ad312451b948a7413f0a142fd40d49347942adc25665018aa1fe0e6bc666dac8fc2697ff9baa041d82e1089e4c9ec64dd5d823e47b695a5f902ba87dd993e6b3558360ff54828a056e81f171bcc55a6ff8345e692c0f86e5b48e01b996cadc001622fb5e363b421a056e81f171bcc55a6ff8345e692c0f86e5b48e01b996cadc001622fb5e363b421b901000000000000000000000000000000000000000000000000000000000000000000000000000000000000000000000000000000000000000000000000000000000000000000000000000000000000000000000000000000000000000000000000000000000000000000000000000000000000000000000000000000000000000000000000000000000000000000000000000000000000000000000000000000000000000000000000000000000000000000000000000000000000000000000000000000000000000000000000000000000000000000000000000000000000000000000000000000000000000000000000000000000000000000000000000000000083020000808401c9c380808203b642a056e81f171bcc55a6ff8345e692c0f86e5b48e01b996cadc001622fb5e363b421880102030405060708c0c0",
        "lastblockhash" : "0x3ee019a1980b5f1d4e85994f935bb9a129836056f538581e6e5d93216cd40556",
        "network" : "Byzantium",
        "postState" : {
            "0x1000000000000000000000000000000000000000" : {
                "balance" : "0x0de0b6b5fb6fe400",
                "code" : "0x60406000604060006000731000000000000000000000000000000000000001620249f0f1600055",
                "nonce" : "0x00",
                "storage" : {
                    "0x00" : "0x01"
                }
            },
            "0x1000000000000000000000000000000000000002" : {
                "balance" : "0x02540be400",
                "code" : "0x6001600255",
                "nonce" : "0x00",
                "storage" : {
                    "0x02" : "0x01"
                }
            },
            "0x2adc25665018aa1fe0e6bc666dac8fc2697ff9ba" : {
                "balance" : "0x29a2241af62cf7ed",
                "code" : "",
                "nonce" : "0x00",
                "storage" : {
                }
            },
            "0xa94f5374fce5edbc8e2a8697c15331677e6ebf0b" : {
                "balance" : "0x0de0b6b3a7630813",
                "code" : "",
                "nonce" : "0x01",
                "storage" : {
                }
            }
        },
        "pre" : {
            "0x1000000000000000000000000000000000000000" : {
                "balance" : "0x0de0b6b3a7640000",
                "code" : "0x60406000604060006000731000000000000000000000000000000000000001620249f0f1600055",
                "nonce" : "0x00",
                "storage" : {
                }
            },
            "0x1000000000000000000000000000000000000001" : {
                "balance" : "0x02540be400",
                "code" : "0x6040600060406000600073100000000000000000000000000000000000000261c350f1600155731000000000000000000000000000000000000000ff",
                "nonce" : "0x00",
                "storage" : {
                }
            },
            "0x1000000000000000000000000000000000000002" : {
                "balance" : "0x02540be400",
                "code" : "0x6001600255",
                "nonce" : "0x00",
                "storage" : {
                }
            },
            "0xa94f5374fce5edbc8e2a8697c15331677e6ebf0b" : {
                "balance" : "0x0de0b6b3a7640000",
                "code" : "",
                "nonce" : "0x00",
                "storage" : {
                }
            }
        }
    },
    "callcall_00_SuicideEnd_d0g0v0_EIP150" : {
        "_info" : {
            "comment" : "",
            "filledwith" : "cpp-1.3.0+commit.6e0ce939.Linux.g++",
            "lllcversion" : "Version: 0.4.18-develop.2017.9.25+commit.a72237f2.Linux.g++",
            "source" : "src/BlockchainTestsFiller/GeneralStateTests/stCallCodes/callcall_00_SuicideEnd_d0g0v0Filler.json",
            "sourceHash" : "2dc9c1bf9655e4ec8f67322b6c0d928147a5a3bacfaac4a722437dda48ab0827"
        },
        "blocks" : [
            {
                "blockHeader" : {
                    "bloom" : "0x00000000000000000000000000000000000000000000000000000000000000000000000000000000000000000000000000000000000000000000000000000000000000000000000000000000000000000000000000000000000000000000000000000000000000000000000000000000000000000000000000000000000000000000000000000000000000000000000000000000000000000000000000000000000000000000000000000000000000000000000000000000000000000000000000000000000000000000000000000000000000000000000000000000000000000000000000000000000000000000000000000000000000000000000000000000",
                    "coinbase" : "0x2adc25665018aa1fe0e6bc666dac8fc2697ff9ba",
                    "difficulty" : "0x020000",
                    "extraData" : "",
                    "gasLimit" : "0x01c9c380",
                    "gasUsed" : "0xf7ed",
                    "hash" : "0x659d20725ae4240f817693eb2d805a784097e1fdb5a8b69a74807b8719b32cdb",
                    "mixHash" : "0x0b44672ab77ed7ced5dd5c0d49029fa92f1472608d4e5ee3d927c7e4b07dcd4f",
                    "nonce" : "0x92b6ead5a88465e7",
                    "number" : "0x01",
                    "parentHash" : "0x391a078a9d04ac17dcc4d23a91170015383a97024d25b7d85d234ef1cf3eb9dc",
                    "receiptTrie" : "0x117a0bd18ef857f4bc8d3e62765e755224a5492606c5de588722dd19a5cad892",
                    "stateRoot" : "0x591d0d5e39176a8456e9694a7fd368315fc36f532628a0ac9738300e15952245",
                    "timestamp" : "0x03e8",
                    "transactionsTrie" : "0x5d88595a2b9f129f2901f79a207ca2d95f38ac387707e6cb1de43679d06079d4",
                    "uncleHash" : "0x1dcc4de8dec75d7aab85b567b6ccd41ad312451b948a7413f0a142fd40d49347"
                },
                "rlp" : "0xf90260f901f8a0391a078a9d04ac17dcc4d23a91170015383a97024d25b7d85d234ef1cf3eb9dca01dcc4de8dec75d7aab85b567b6ccd41ad312451b948a7413f0a142fd40d49347942adc25665018aa1fe0e6bc666dac8fc2697ff9baa0591d0d5e39176a8456e9694a7fd368315fc36f532628a0ac9738300e15952245a05d88595a2b9f129f2901f79a207ca2d95f38ac387707e6cb1de43679d06079d4a0117a0bd18ef857f4bc8d3e62765e755224a5492606c5de588722dd19a5cad892b901000000000000000000000000000000000000000000000000000000000000000000000000000000000000000000000000000000000000000000000000000000000000000000000000000000000000000000000000000000000000000000000000000000000000000000000000000000000000000000000000000000000000000000000000000000000000000000000000000000000000000000000000000000000000000000000000000000000000000000000000000000000000000000000000000000000000000000000000000000000000000000000000000000000000000000000000000000000000000000000000000000000000000000000000000000000083020000018401c9c38082f7ed8203e880a00b44672ab77ed7ced5dd5c0d49029fa92f1472608d4e5ee3d927c7e4b07dcd4f8892b6ead5a88465e7f862f8608001832dc6c094100000000000000000000000000000000000000080801ba0bc3f717090c5b3d46550833ec05cc91a3c352bd18be2c0eed5ed3e54e8af58f9a03a7d01021289eca372726c91175e4f422da3147bd3961cd66ca95f1cf3619fb2c0",
                "transactions" : [
                    {
                        "data" : "",
                        "gasLimit" : "0x2dc6c0",
                        "gasPrice" : "0x01",
                        "nonce" : "0x00",
                        "r" : "0xbc3f717090c5b3d46550833ec05cc91a3c352bd18be2c0eed5ed3e54e8af58f9",
                        "s" : "0x3a7d01021289eca372726c91175e4f422da3147bd3961cd66ca95f1cf3619fb2",
                        "to" : "0x1000000000000000000000000000000000000000",
                        "v" : "0x1b",
                        "value" : "0x00"
                    }
                ],
                "uncleHeaders" : [
                ]
            }
        ],
        "genesisBlockHeader" : {
            "bloom" : "0x00000000000000000000000000000000000000000000000000000000000000000000000000000000000000000000000000000000000000000000000000000000000000000000000000000000000000000000000000000000000000000000000000000000000000000000000000000000000000000000000000000000000000000000000000000000000000000000000000000000000000000000000000000000000000000000000000000000000000000000000000000000000000000000000000000000000000000000000000000000000000000000000000000000000000000000000000000000000000000000000000000000000000000000000000000000",
            "coinbase" : "0x2adc25665018aa1fe0e6bc666dac8fc2697ff9ba",
            "difficulty" : "0x020000",
            "extraData" : "0x42",
            "gasLimit" : "0x01c9c380",
            "gasUsed" : "0x00",
            "hash" : "0x391a078a9d04ac17dcc4d23a91170015383a97024d25b7d85d234ef1cf3eb9dc",
            "mixHash" : "0x56e81f171bcc55a6ff8345e692c0f86e5b48e01b996cadc001622fb5e363b421",
            "nonce" : "0x0102030405060708",
            "number" : "0x00",
            "parentHash" : "0x0000000000000000000000000000000000000000000000000000000000000000",
            "receiptTrie" : "0x56e81f171bcc55a6ff8345e692c0f86e5b48e01b996cadc001622fb5e363b421",
            "stateRoot" : "0x41d82e1089e4c9ec64dd5d823e47b695a5f902ba87dd993e6b3558360ff54828",
            "timestamp" : "0x03b6",
            "transactionsTrie" : "0x56e81f171bcc55a6ff8345e692c0f86e5b48e01b996cadc001622fb5e363b421",
            "uncleHash" : "0x1dcc4de8dec75d7aab85b567b6ccd41ad312451b948a7413f0a142fd40d49347"
        },
        "genesisRLP" : "0xf901fbf901f6a00000000000000000000000000000000000000000000000000000000000000000a01dcc4de8dec75d7aab85b567b6ccd41ad312451b948a7413f0a142fd40d49347942adc25665018aa1fe0e6bc666dac8fc2697ff9baa041d82e1089e4c9ec64dd5d823e47b695a5f902ba87dd993e6b3558360ff54828a056e81f171bcc55a6ff8345e692c0f86e5b48e01b996cadc001622fb5e363b421a056e81f171bcc55a6ff8345e692c0f86e5b48e01b996cadc001622fb5e363b421b901000000000000000000000000000000000000000000000000000000000000000000000000000000000000000000000000000000000000000000000000000000000000000000000000000000000000000000000000000000000000000000000000000000000000000000000000000000000000000000000000000000000000000000000000000000000000000000000000000000000000000000000000000000000000000000000000000000000000000000000000000000000000000000000000000000000000000000000000000000000000000000000000000000000000000000000000000000000000000000000000000000000000000000000000000000000083020000808401c9c380808203b642a056e81f171bcc55a6ff8345e692c0f86e5b48e01b996cadc001622fb5e363b421880102030405060708c0c0",
        "lastblockhash" : "0x659d20725ae4240f817693eb2d805a784097e1fdb5a8b69a74807b8719b32cdb",
        "network" : "EIP150",
        "postState" : {
            "0x1000000000000000000000000000000000000000" : {
                "balance" : "0x0de0b6b5fb6fe400",
                "code" : "0x60406000604060006000731000000000000000000000000000000000000001620249f0f1600055",
                "nonce" : "0x00",
                "storage" : {
                    "0x00" : "0x01"
                }
            },
            "0x1000000000000000000000000000000000000002" : {
                "balance" : "0x02540be400",
                "code" : "0x6001600255",
                "nonce" : "0x00",
                "storage" : {
                    "0x02" : "0x01"
                }
            },
            "0x2adc25665018aa1fe0e6bc666dac8fc2697ff9ba" : {
                "balance" : "0x4563918244f4f7ed",
                "code" : "",
                "nonce" : "0x00",
                "storage" : {
                }
            },
            "0xa94f5374fce5edbc8e2a8697c15331677e6ebf0b" : {
                "balance" : "0x0de0b6b3a7630813",
                "code" : "",
                "nonce" : "0x01",
                "storage" : {
                }
            }
        },
        "pre" : {
            "0x1000000000000000000000000000000000000000" : {
                "balance" : "0x0de0b6b3a7640000",
                "code" : "0x60406000604060006000731000000000000000000000000000000000000001620249f0f1600055",
                "nonce" : "0x00",
                "storage" : {
                }
            },
            "0x1000000000000000000000000000000000000001" : {
                "balance" : "0x02540be400",
                "code" : "0x6040600060406000600073100000000000000000000000000000000000000261c350f1600155731000000000000000000000000000000000000000ff",
                "nonce" : "0x00",
                "storage" : {
                }
            },
            "0x1000000000000000000000000000000000000002" : {
                "balance" : "0x02540be400",
                "code" : "0x6001600255",
                "nonce" : "0x00",
                "storage" : {
                }
            },
            "0xa94f5374fce5edbc8e2a8697c15331677e6ebf0b" : {
                "balance" : "0x0de0b6b3a7640000",
                "code" : "",
                "nonce" : "0x00",
                "storage" : {
                }
            }
        }
    },
    "callcall_00_SuicideEnd_d0g0v0_EIP158" : {
        "_info" : {
            "comment" : "",
            "filledwith" : "cpp-1.3.0+commit.6e0ce939.Linux.g++",
            "lllcversion" : "Version: 0.4.18-develop.2017.9.25+commit.a72237f2.Linux.g++",
            "source" : "src/BlockchainTestsFiller/GeneralStateTests/stCallCodes/callcall_00_SuicideEnd_d0g0v0Filler.json",
            "sourceHash" : "2dc9c1bf9655e4ec8f67322b6c0d928147a5a3bacfaac4a722437dda48ab0827"
        },
        "blocks" : [
            {
                "blockHeader" : {
                    "bloom" : "0x00000000000000000000000000000000000000000000000000000000000000000000000000000000000000000000000000000000000000000000000000000000000000000000000000000000000000000000000000000000000000000000000000000000000000000000000000000000000000000000000000000000000000000000000000000000000000000000000000000000000000000000000000000000000000000000000000000000000000000000000000000000000000000000000000000000000000000000000000000000000000000000000000000000000000000000000000000000000000000000000000000000000000000000000000000000",
                    "coinbase" : "0x2adc25665018aa1fe0e6bc666dac8fc2697ff9ba",
                    "difficulty" : "0x020000",
                    "extraData" : "",
                    "gasLimit" : "0x01c9c380",
                    "gasUsed" : "0xf7ed",
                    "hash" : "0x519ddcfb80f4ec31dbff897cd8b196039056555fa2bd33a147f5e5a61852242a",
                    "mixHash" : "0x7d833b32dded6cf74d3b15fc2db638c90917bb783eeebd4521e9f19b0b52df6a",
                    "nonce" : "0x266956dc1793efad",
                    "number" : "0x01",
                    "parentHash" : "0x391a078a9d04ac17dcc4d23a91170015383a97024d25b7d85d234ef1cf3eb9dc",
                    "receiptTrie" : "0x117a0bd18ef857f4bc8d3e62765e755224a5492606c5de588722dd19a5cad892",
                    "stateRoot" : "0x591d0d5e39176a8456e9694a7fd368315fc36f532628a0ac9738300e15952245",
                    "timestamp" : "0x03e8",
                    "transactionsTrie" : "0x5d88595a2b9f129f2901f79a207ca2d95f38ac387707e6cb1de43679d06079d4",
                    "uncleHash" : "0x1dcc4de8dec75d7aab85b567b6ccd41ad312451b948a7413f0a142fd40d49347"
                },
                "rlp" : "0xf90260f901f8a0391a078a9d04ac17dcc4d23a91170015383a97024d25b7d85d234ef1cf3eb9dca01dcc4de8dec75d7aab85b567b6ccd41ad312451b948a7413f0a142fd40d49347942adc25665018aa1fe0e6bc666dac8fc2697ff9baa0591d0d5e39176a8456e9694a7fd368315fc36f532628a0ac9738300e15952245a05d88595a2b9f129f2901f79a207ca2d95f38ac387707e6cb1de43679d06079d4a0117a0bd18ef857f4bc8d3e62765e755224a5492606c5de588722dd19a5cad892b901000000000000000000000000000000000000000000000000000000000000000000000000000000000000000000000000000000000000000000000000000000000000000000000000000000000000000000000000000000000000000000000000000000000000000000000000000000000000000000000000000000000000000000000000000000000000000000000000000000000000000000000000000000000000000000000000000000000000000000000000000000000000000000000000000000000000000000000000000000000000000000000000000000000000000000000000000000000000000000000000000000000000000000000000000000000083020000018401c9c38082f7ed8203e880a07d833b32dded6cf74d3b15fc2db638c90917bb783eeebd4521e9f19b0b52df6a88266956dc1793efadf862f8608001832dc6c094100000000000000000000000000000000000000080801ba0bc3f717090c5b3d46550833ec05cc91a3c352bd18be2c0eed5ed3e54e8af58f9a03a7d01021289eca372726c91175e4f422da3147bd3961cd66ca95f1cf3619fb2c0",
                "transactions" : [
                    {
                        "data" : "",
                        "gasLimit" : "0x2dc6c0",
                        "gasPrice" : "0x01",
                        "nonce" : "0x00",
                        "r" : "0xbc3f717090c5b3d46550833ec05cc91a3c352bd18be2c0eed5ed3e54e8af58f9",
                        "s" : "0x3a7d01021289eca372726c91175e4f422da3147bd3961cd66ca95f1cf3619fb2",
                        "to" : "0x1000000000000000000000000000000000000000",
                        "v" : "0x1b",
                        "value" : "0x00"
                    }
                ],
                "uncleHeaders" : [
                ]
            }
        ],
        "genesisBlockHeader" : {
            "bloom" : "0x00000000000000000000000000000000000000000000000000000000000000000000000000000000000000000000000000000000000000000000000000000000000000000000000000000000000000000000000000000000000000000000000000000000000000000000000000000000000000000000000000000000000000000000000000000000000000000000000000000000000000000000000000000000000000000000000000000000000000000000000000000000000000000000000000000000000000000000000000000000000000000000000000000000000000000000000000000000000000000000000000000000000000000000000000000000",
            "coinbase" : "0x2adc25665018aa1fe0e6bc666dac8fc2697ff9ba",
            "difficulty" : "0x020000",
            "extraData" : "0x42",
            "gasLimit" : "0x01c9c380",
            "gasUsed" : "0x00",
            "hash" : "0x391a078a9d04ac17dcc4d23a91170015383a97024d25b7d85d234ef1cf3eb9dc",
            "mixHash" : "0x56e81f171bcc55a6ff8345e692c0f86e5b48e01b996cadc001622fb5e363b421",
            "nonce" : "0x0102030405060708",
            "number" : "0x00",
            "parentHash" : "0x0000000000000000000000000000000000000000000000000000000000000000",
            "receiptTrie" : "0x56e81f171bcc55a6ff8345e692c0f86e5b48e01b996cadc001622fb5e363b421",
            "stateRoot" : "0x41d82e1089e4c9ec64dd5d823e47b695a5f902ba87dd993e6b3558360ff54828",
            "timestamp" : "0x03b6",
            "transactionsTrie" : "0x56e81f171bcc55a6ff8345e692c0f86e5b48e01b996cadc001622fb5e363b421",
            "uncleHash" : "0x1dcc4de8dec75d7aab85b567b6ccd41ad312451b948a7413f0a142fd40d49347"
        },
        "genesisRLP" : "0xf901fbf901f6a00000000000000000000000000000000000000000000000000000000000000000a01dcc4de8dec75d7aab85b567b6ccd41ad312451b948a7413f0a142fd40d49347942adc25665018aa1fe0e6bc666dac8fc2697ff9baa041d82e1089e4c9ec64dd5d823e47b695a5f902ba87dd993e6b3558360ff54828a056e81f171bcc55a6ff8345e692c0f86e5b48e01b996cadc001622fb5e363b421a056e81f171bcc55a6ff8345e692c0f86e5b48e01b996cadc001622fb5e363b421b901000000000000000000000000000000000000000000000000000000000000000000000000000000000000000000000000000000000000000000000000000000000000000000000000000000000000000000000000000000000000000000000000000000000000000000000000000000000000000000000000000000000000000000000000000000000000000000000000000000000000000000000000000000000000000000000000000000000000000000000000000000000000000000000000000000000000000000000000000000000000000000000000000000000000000000000000000000000000000000000000000000000000000000000000000000000083020000808401c9c380808203b642a056e81f171bcc55a6ff8345e692c0f86e5b48e01b996cadc001622fb5e363b421880102030405060708c0c0",
        "lastblockhash" : "0x519ddcfb80f4ec31dbff897cd8b196039056555fa2bd33a147f5e5a61852242a",
        "network" : "EIP158",
        "postState" : {
            "0x1000000000000000000000000000000000000000" : {
                "balance" : "0x0de0b6b5fb6fe400",
                "code" : "0x60406000604060006000731000000000000000000000000000000000000001620249f0f1600055",
                "nonce" : "0x00",
                "storage" : {
                    "0x00" : "0x01"
                }
            },
            "0x1000000000000000000000000000000000000002" : {
                "balance" : "0x02540be400",
                "code" : "0x6001600255",
                "nonce" : "0x00",
                "storage" : {
                    "0x02" : "0x01"
                }
            },
            "0x2adc25665018aa1fe0e6bc666dac8fc2697ff9ba" : {
                "balance" : "0x4563918244f4f7ed",
                "code" : "",
                "nonce" : "0x00",
                "storage" : {
                }
            },
            "0xa94f5374fce5edbc8e2a8697c15331677e6ebf0b" : {
                "balance" : "0x0de0b6b3a7630813",
                "code" : "",
                "nonce" : "0x01",
                "storage" : {
                }
            }
        },
        "pre" : {
            "0x1000000000000000000000000000000000000000" : {
                "balance" : "0x0de0b6b3a7640000",
                "code" : "0x60406000604060006000731000000000000000000000000000000000000001620249f0f1600055",
                "nonce" : "0x00",
                "storage" : {
                }
            },
            "0x1000000000000000000000000000000000000001" : {
                "balance" : "0x02540be400",
                "code" : "0x6040600060406000600073100000000000000000000000000000000000000261c350f1600155731000000000000000000000000000000000000000ff",
                "nonce" : "0x00",
                "storage" : {
                }
            },
            "0x1000000000000000000000000000000000000002" : {
                "balance" : "0x02540be400",
                "code" : "0x6001600255",
                "nonce" : "0x00",
                "storage" : {
                }
            },
            "0xa94f5374fce5edbc8e2a8697c15331677e6ebf0b" : {
                "balance" : "0x0de0b6b3a7640000",
                "code" : "",
                "nonce" : "0x00",
                "storage" : {
                }
            }
        }
    },
    "callcall_00_SuicideEnd_d0g0v0_Frontier" : {
        "_info" : {
            "comment" : "",
            "filledwith" : "cpp-1.3.0+commit.6e0ce939.Linux.g++",
            "lllcversion" : "Version: 0.4.18-develop.2017.9.25+commit.a72237f2.Linux.g++",
            "source" : "src/BlockchainTestsFiller/GeneralStateTests/stCallCodes/callcall_00_SuicideEnd_d0g0v0Filler.json",
            "sourceHash" : "2dc9c1bf9655e4ec8f67322b6c0d928147a5a3bacfaac4a722437dda48ab0827"
        },
        "blocks" : [
            {
                "blockHeader" : {
                    "bloom" : "0x00000000000000000000000000000000000000000000000000000000000000000000000000000000000000000000000000000000000000000000000000000000000000000000000000000000000000000000000000000000000000000000000000000000000000000000000000000000000000000000000000000000000000000000000000000000000000000000000000000000000000000000000000000000000000000000000000000000000000000000000000000000000000000000000000000000000000000000000000000000000000000000000000000000000000000000000000000000000000000000000000000000000000000000000000000000",
                    "coinbase" : "0x2adc25665018aa1fe0e6bc666dac8fc2697ff9ba",
                    "difficulty" : "0x020000",
                    "extraData" : "",
                    "gasLimit" : "0x01c9c380",
                    "gasUsed" : "0xdf3d",
                    "hash" : "0xbbe9f0fcb4ca87d9d75624c60e7884a9f0bc2fc6643a93225752e055ab21ae10",
                    "mixHash" : "0xf7fb6bfb4fb5d637efa7b82761404468d1a25bf3a386631694f52ac4ab3ffcdb",
                    "nonce" : "0x00752e17f67d807c",
                    "number" : "0x01",
                    "parentHash" : "0x391a078a9d04ac17dcc4d23a91170015383a97024d25b7d85d234ef1cf3eb9dc",
                    "receiptTrie" : "0xbe59586357b9d68d781cbac1e64fe87b72b8a3c959c9ada4cb444bfc7c0b2352",
                    "stateRoot" : "0xd4c4d1dac9d144065b58906afd684273b19e05e6ca44b1884e1126e50ec0aac6",
                    "timestamp" : "0x03e8",
                    "transactionsTrie" : "0x5d88595a2b9f129f2901f79a207ca2d95f38ac387707e6cb1de43679d06079d4",
                    "uncleHash" : "0x1dcc4de8dec75d7aab85b567b6ccd41ad312451b948a7413f0a142fd40d49347"
                },
                "rlp" : "0xf90260f901f8a0391a078a9d04ac17dcc4d23a91170015383a97024d25b7d85d234ef1cf3eb9dca01dcc4de8dec75d7aab85b567b6ccd41ad312451b948a7413f0a142fd40d49347942adc25665018aa1fe0e6bc666dac8fc2697ff9baa0d4c4d1dac9d144065b58906afd684273b19e05e6ca44b1884e1126e50ec0aac6a05d88595a2b9f129f2901f79a207ca2d95f38ac387707e6cb1de43679d06079d4a0be59586357b9d68d781cbac1e64fe87b72b8a3c959c9ada4cb444bfc7c0b2352b901000000000000000000000000000000000000000000000000000000000000000000000000000000000000000000000000000000000000000000000000000000000000000000000000000000000000000000000000000000000000000000000000000000000000000000000000000000000000000000000000000000000000000000000000000000000000000000000000000000000000000000000000000000000000000000000000000000000000000000000000000000000000000000000000000000000000000000000000000000000000000000000000000000000000000000000000000000000000000000000000000000000000000000000000000000000083020000018401c9c38082df3d8203e880a0f7fb6bfb4fb5d637efa7b82761404468d1a25bf3a386631694f52ac4ab3ffcdb8800752e17f67d807cf862f8608001832dc6c094100000000000000000000000000000000000000080801ba0bc3f717090c5b3d46550833ec05cc91a3c352bd18be2c0eed5ed3e54e8af58f9a03a7d01021289eca372726c91175e4f422da3147bd3961cd66ca95f1cf3619fb2c0",
                "transactions" : [
                    {
                        "data" : "",
                        "gasLimit" : "0x2dc6c0",
                        "gasPrice" : "0x01",
                        "nonce" : "0x00",
                        "r" : "0xbc3f717090c5b3d46550833ec05cc91a3c352bd18be2c0eed5ed3e54e8af58f9",
                        "s" : "0x3a7d01021289eca372726c91175e4f422da3147bd3961cd66ca95f1cf3619fb2",
                        "to" : "0x1000000000000000000000000000000000000000",
                        "v" : "0x1b",
                        "value" : "0x00"
                    }
                ],
                "uncleHeaders" : [
                ]
            }
        ],
        "genesisBlockHeader" : {
            "bloom" : "0x00000000000000000000000000000000000000000000000000000000000000000000000000000000000000000000000000000000000000000000000000000000000000000000000000000000000000000000000000000000000000000000000000000000000000000000000000000000000000000000000000000000000000000000000000000000000000000000000000000000000000000000000000000000000000000000000000000000000000000000000000000000000000000000000000000000000000000000000000000000000000000000000000000000000000000000000000000000000000000000000000000000000000000000000000000000",
            "coinbase" : "0x2adc25665018aa1fe0e6bc666dac8fc2697ff9ba",
            "difficulty" : "0x020000",
            "extraData" : "0x42",
            "gasLimit" : "0x01c9c380",
            "gasUsed" : "0x00",
            "hash" : "0x391a078a9d04ac17dcc4d23a91170015383a97024d25b7d85d234ef1cf3eb9dc",
            "mixHash" : "0x56e81f171bcc55a6ff8345e692c0f86e5b48e01b996cadc001622fb5e363b421",
            "nonce" : "0x0102030405060708",
            "number" : "0x00",
            "parentHash" : "0x0000000000000000000000000000000000000000000000000000000000000000",
            "receiptTrie" : "0x56e81f171bcc55a6ff8345e692c0f86e5b48e01b996cadc001622fb5e363b421",
            "stateRoot" : "0x41d82e1089e4c9ec64dd5d823e47b695a5f902ba87dd993e6b3558360ff54828",
            "timestamp" : "0x03b6",
            "transactionsTrie" : "0x56e81f171bcc55a6ff8345e692c0f86e5b48e01b996cadc001622fb5e363b421",
            "uncleHash" : "0x1dcc4de8dec75d7aab85b567b6ccd41ad312451b948a7413f0a142fd40d49347"
        },
        "genesisRLP" : "0xf901fbf901f6a00000000000000000000000000000000000000000000000000000000000000000a01dcc4de8dec75d7aab85b567b6ccd41ad312451b948a7413f0a142fd40d49347942adc25665018aa1fe0e6bc666dac8fc2697ff9baa041d82e1089e4c9ec64dd5d823e47b695a5f902ba87dd993e6b3558360ff54828a056e81f171bcc55a6ff8345e692c0f86e5b48e01b996cadc001622fb5e363b421a056e81f171bcc55a6ff8345e692c0f86e5b48e01b996cadc001622fb5e363b421b901000000000000000000000000000000000000000000000000000000000000000000000000000000000000000000000000000000000000000000000000000000000000000000000000000000000000000000000000000000000000000000000000000000000000000000000000000000000000000000000000000000000000000000000000000000000000000000000000000000000000000000000000000000000000000000000000000000000000000000000000000000000000000000000000000000000000000000000000000000000000000000000000000000000000000000000000000000000000000000000000000000000000000000000000000000000083020000808401c9c380808203b642a056e81f171bcc55a6ff8345e692c0f86e5b48e01b996cadc001622fb5e363b421880102030405060708c0c0",
        "lastblockhash" : "0xbbe9f0fcb4ca87d9d75624c60e7884a9f0bc2fc6643a93225752e055ab21ae10",
        "network" : "Frontier",
        "postState" : {
            "0x1000000000000000000000000000000000000000" : {
                "balance" : "0x0de0b6b5fb6fe400",
                "code" : "0x60406000604060006000731000000000000000000000000000000000000001620249f0f1600055",
                "nonce" : "0x00",
                "storage" : {
                    "0x00" : "0x01"
                }
            },
            "0x1000000000000000000000000000000000000002" : {
                "balance" : "0x02540be400",
                "code" : "0x6001600255",
                "nonce" : "0x00",
                "storage" : {
                    "0x02" : "0x01"
                }
            },
            "0x2adc25665018aa1fe0e6bc666dac8fc2697ff9ba" : {
                "balance" : "0x4563918244f4df3d",
                "code" : "",
                "nonce" : "0x00",
                "storage" : {
                }
            },
            "0xa94f5374fce5edbc8e2a8697c15331677e6ebf0b" : {
                "balance" : "0x0de0b6b3a76320c3",
                "code" : "",
                "nonce" : "0x01",
                "storage" : {
                }
            }
        },
        "pre" : {
            "0x1000000000000000000000000000000000000000" : {
                "balance" : "0x0de0b6b3a7640000",
                "code" : "0x60406000604060006000731000000000000000000000000000000000000001620249f0f1600055",
                "nonce" : "0x00",
                "storage" : {
                }
            },
            "0x1000000000000000000000000000000000000001" : {
                "balance" : "0x02540be400",
                "code" : "0x6040600060406000600073100000000000000000000000000000000000000261c350f1600155731000000000000000000000000000000000000000ff",
                "nonce" : "0x00",
                "storage" : {
                }
            },
            "0x1000000000000000000000000000000000000002" : {
                "balance" : "0x02540be400",
                "code" : "0x6001600255",
                "nonce" : "0x00",
                "storage" : {
                }
            },
            "0xa94f5374fce5edbc8e2a8697c15331677e6ebf0b" : {
                "balance" : "0x0de0b6b3a7640000",
                "code" : "",
                "nonce" : "0x00",
                "storage" : {
                }
            }
        }
    },
    "callcall_00_SuicideEnd_d0g0v0_Homestead" : {
        "_info" : {
            "comment" : "",
            "filledwith" : "cpp-1.3.0+commit.6e0ce939.Linux.g++",
            "lllcversion" : "Version: 0.4.18-develop.2017.9.25+commit.a72237f2.Linux.g++",
            "source" : "src/BlockchainTestsFiller/GeneralStateTests/stCallCodes/callcall_00_SuicideEnd_d0g0v0Filler.json",
            "sourceHash" : "2dc9c1bf9655e4ec8f67322b6c0d928147a5a3bacfaac4a722437dda48ab0827"
        },
        "blocks" : [
            {
                "blockHeader" : {
                    "bloom" : "0x00000000000000000000000000000000000000000000000000000000000000000000000000000000000000000000000000000000000000000000000000000000000000000000000000000000000000000000000000000000000000000000000000000000000000000000000000000000000000000000000000000000000000000000000000000000000000000000000000000000000000000000000000000000000000000000000000000000000000000000000000000000000000000000000000000000000000000000000000000000000000000000000000000000000000000000000000000000000000000000000000000000000000000000000000000000",
                    "coinbase" : "0x2adc25665018aa1fe0e6bc666dac8fc2697ff9ba",
                    "difficulty" : "0x020000",
                    "extraData" : "",
                    "gasLimit" : "0x01c9c380",
                    "gasUsed" : "0xdf3d",
                    "hash" : "0x0c5cf84d089185bbf69997ec3b23b0d6dc379b4084a552fa531dee380597eeb2",
                    "mixHash" : "0x05d09b43a6c186be583dccf53bb7f5d83798e8730a296f884a6a13fc17aea6c4",
                    "nonce" : "0x8f5d48c26c1982ff",
                    "number" : "0x01",
                    "parentHash" : "0x391a078a9d04ac17dcc4d23a91170015383a97024d25b7d85d234ef1cf3eb9dc",
                    "receiptTrie" : "0xbe59586357b9d68d781cbac1e64fe87b72b8a3c959c9ada4cb444bfc7c0b2352",
                    "stateRoot" : "0xd4c4d1dac9d144065b58906afd684273b19e05e6ca44b1884e1126e50ec0aac6",
                    "timestamp" : "0x03e8",
                    "transactionsTrie" : "0x5d88595a2b9f129f2901f79a207ca2d95f38ac387707e6cb1de43679d06079d4",
                    "uncleHash" : "0x1dcc4de8dec75d7aab85b567b6ccd41ad312451b948a7413f0a142fd40d49347"
                },
                "rlp" : "0xf90260f901f8a0391a078a9d04ac17dcc4d23a91170015383a97024d25b7d85d234ef1cf3eb9dca01dcc4de8dec75d7aab85b567b6ccd41ad312451b948a7413f0a142fd40d49347942adc25665018aa1fe0e6bc666dac8fc2697ff9baa0d4c4d1dac9d144065b58906afd684273b19e05e6ca44b1884e1126e50ec0aac6a05d88595a2b9f129f2901f79a207ca2d95f38ac387707e6cb1de43679d06079d4a0be59586357b9d68d781cbac1e64fe87b72b8a3c959c9ada4cb444bfc7c0b2352b901000000000000000000000000000000000000000000000000000000000000000000000000000000000000000000000000000000000000000000000000000000000000000000000000000000000000000000000000000000000000000000000000000000000000000000000000000000000000000000000000000000000000000000000000000000000000000000000000000000000000000000000000000000000000000000000000000000000000000000000000000000000000000000000000000000000000000000000000000000000000000000000000000000000000000000000000000000000000000000000000000000000000000000000000000000000083020000018401c9c38082df3d8203e880a005d09b43a6c186be583dccf53bb7f5d83798e8730a296f884a6a13fc17aea6c4888f5d48c26c1982fff862f8608001832dc6c094100000000000000000000000000000000000000080801ba0bc3f717090c5b3d46550833ec05cc91a3c352bd18be2c0eed5ed3e54e8af58f9a03a7d01021289eca372726c91175e4f422da3147bd3961cd66ca95f1cf3619fb2c0",
                "transactions" : [
                    {
                        "data" : "",
                        "gasLimit" : "0x2dc6c0",
                        "gasPrice" : "0x01",
                        "nonce" : "0x00",
                        "r" : "0xbc3f717090c5b3d46550833ec05cc91a3c352bd18be2c0eed5ed3e54e8af58f9",
                        "s" : "0x3a7d01021289eca372726c91175e4f422da3147bd3961cd66ca95f1cf3619fb2",
                        "to" : "0x1000000000000000000000000000000000000000",
                        "v" : "0x1b",
                        "value" : "0x00"
                    }
                ],
                "uncleHeaders" : [
                ]
            }
        ],
        "genesisBlockHeader" : {
            "bloom" : "0x00000000000000000000000000000000000000000000000000000000000000000000000000000000000000000000000000000000000000000000000000000000000000000000000000000000000000000000000000000000000000000000000000000000000000000000000000000000000000000000000000000000000000000000000000000000000000000000000000000000000000000000000000000000000000000000000000000000000000000000000000000000000000000000000000000000000000000000000000000000000000000000000000000000000000000000000000000000000000000000000000000000000000000000000000000000",
            "coinbase" : "0x2adc25665018aa1fe0e6bc666dac8fc2697ff9ba",
            "difficulty" : "0x020000",
            "extraData" : "0x42",
            "gasLimit" : "0x01c9c380",
            "gasUsed" : "0x00",
            "hash" : "0x391a078a9d04ac17dcc4d23a91170015383a97024d25b7d85d234ef1cf3eb9dc",
            "mixHash" : "0x56e81f171bcc55a6ff8345e692c0f86e5b48e01b996cadc001622fb5e363b421",
            "nonce" : "0x0102030405060708",
            "number" : "0x00",
            "parentHash" : "0x0000000000000000000000000000000000000000000000000000000000000000",
            "receiptTrie" : "0x56e81f171bcc55a6ff8345e692c0f86e5b48e01b996cadc001622fb5e363b421",
            "stateRoot" : "0x41d82e1089e4c9ec64dd5d823e47b695a5f902ba87dd993e6b3558360ff54828",
            "timestamp" : "0x03b6",
            "transactionsTrie" : "0x56e81f171bcc55a6ff8345e692c0f86e5b48e01b996cadc001622fb5e363b421",
            "uncleHash" : "0x1dcc4de8dec75d7aab85b567b6ccd41ad312451b948a7413f0a142fd40d49347"
        },
        "genesisRLP" : "0xf901fbf901f6a00000000000000000000000000000000000000000000000000000000000000000a01dcc4de8dec75d7aab85b567b6ccd41ad312451b948a7413f0a142fd40d49347942adc25665018aa1fe0e6bc666dac8fc2697ff9baa041d82e1089e4c9ec64dd5d823e47b695a5f902ba87dd993e6b3558360ff54828a056e81f171bcc55a6ff8345e692c0f86e5b48e01b996cadc001622fb5e363b421a056e81f171bcc55a6ff8345e692c0f86e5b48e01b996cadc001622fb5e363b421b901000000000000000000000000000000000000000000000000000000000000000000000000000000000000000000000000000000000000000000000000000000000000000000000000000000000000000000000000000000000000000000000000000000000000000000000000000000000000000000000000000000000000000000000000000000000000000000000000000000000000000000000000000000000000000000000000000000000000000000000000000000000000000000000000000000000000000000000000000000000000000000000000000000000000000000000000000000000000000000000000000000000000000000000000000000000083020000808401c9c380808203b642a056e81f171bcc55a6ff8345e692c0f86e5b48e01b996cadc001622fb5e363b421880102030405060708c0c0",
        "lastblockhash" : "0x0c5cf84d089185bbf69997ec3b23b0d6dc379b4084a552fa531dee380597eeb2",
        "network" : "Homestead",
        "postState" : {
            "0x1000000000000000000000000000000000000000" : {
                "balance" : "0x0de0b6b5fb6fe400",
                "code" : "0x60406000604060006000731000000000000000000000000000000000000001620249f0f1600055",
                "nonce" : "0x00",
                "storage" : {
                    "0x00" : "0x01"
                }
            },
            "0x1000000000000000000000000000000000000002" : {
                "balance" : "0x02540be400",
                "code" : "0x6001600255",
                "nonce" : "0x00",
                "storage" : {
                    "0x02" : "0x01"
                }
            },
            "0x2adc25665018aa1fe0e6bc666dac8fc2697ff9ba" : {
                "balance" : "0x4563918244f4df3d",
                "code" : "",
                "nonce" : "0x00",
                "storage" : {
                }
            },
            "0xa94f5374fce5edbc8e2a8697c15331677e6ebf0b" : {
                "balance" : "0x0de0b6b3a76320c3",
                "code" : "",
                "nonce" : "0x01",
                "storage" : {
                }
            }
        },
        "pre" : {
            "0x1000000000000000000000000000000000000000" : {
                "balance" : "0x0de0b6b3a7640000",
                "code" : "0x60406000604060006000731000000000000000000000000000000000000001620249f0f1600055",
                "nonce" : "0x00",
                "storage" : {
                }
            },
            "0x1000000000000000000000000000000000000001" : {
                "balance" : "0x02540be400",
                "code" : "0x6040600060406000600073100000000000000000000000000000000000000261c350f1600155731000000000000000000000000000000000000000ff",
                "nonce" : "0x00",
                "storage" : {
                }
            },
            "0x1000000000000000000000000000000000000002" : {
                "balance" : "0x02540be400",
                "code" : "0x6001600255",
                "nonce" : "0x00",
                "storage" : {
                }
            },
            "0xa94f5374fce5edbc8e2a8697c15331677e6ebf0b" : {
                "balance" : "0x0de0b6b3a7640000",
                "code" : "",
                "nonce" : "0x00",
                "storage" : {
                }
            }
        }
    }
}