{
  "rlp": "f906f3f90216a00000000000000000000000000000000000000000000000000000000000000000a01dcc4de8dec75d7aab85b567b6ccd41ad312451b948a7413f0a142fd40d49347940000000000000000000000000000000000000000a00000000000000000000000000000000000000000000000000000000000000000a0c97a657cc81f237cb9439b479e1e2c4e870ebf3360b0cf6d8b0dbe2b8db6bc0aa03c2614a0d17d0f70946f13f6bf4f6ada3afb99510e73ddf01d0f92cbc1205e42b90100000000000000000000000000000000000000000000000000000000000000000000000000000000000000000000000000000000000000000000000000000000000000000000000000000000000000000000000000000000000000000000000000000000000000000000000000000000000000000000000000000000000000000000000000000000000000000000000000000000000000000000000000000000000000000000000000000000000000000000000000000000000000000000000000000000000000000000000000000000000000000000000000000000000000000000000000000000000000000000000000000000000000000000000000000000008302000003830186a0830186a001a00000000000000000000000000000000000000000000000000000000000000000a00000000000000000000000000000000000000000000000000000000000000000880000000000000000f904d6b9017901f9017501800a8301e24194095e7baea6a6c7c4c2dfeb977efac326af552d878080f90111f859940000000000000000000000000000000000000000f842a00000000000000000000000000000000000000000000000000000000000000000a00000000000000000000000000000000000000000000000000000000000000000f859940100000000000000000000000000000000000000f842a00000000000000000000000000000000000000000000000000000000000000000a00100000000000000000000000000000000000000000000000000000000000000f859940200000000000000000000000000000000000000f842a00000000000000000000000000000000000000000000000000000000000000000a0020000000000000000000000000000000000000000000000000000000000000001a01648ffb90d688fa9801cecc9370f1d95c3320db27df865f5192157d11b16eba2a07e468726d94bcaf6d148c8ec89ba8a18cf50aa3ce3ed506d2ab9bbed9e240420b9017901f9017501800a8301e24194095e7baea6a6c7c4c2dfeb977efac326af552d878080f90111f859940000000000000000000000000000000000000000f842a00000000000000000000000000000000000000000000000000000000000000000a00000000000000000000000000000000000000000000000000000000000000000f859940100000000000000000000000000000000000000f842a00000000000000000000000000000000000000000000000000000000000000000a00100000000000000000000000000000000000000000000000000000000000000f859940200000000000000000000000000000000000000f842a00000000000000000000000000000000000000000000000000000000000000000a0020000000000000000000000000000000000000000000000000000000000000001a01648ffb90d688fa9801cecc9370f1d95c3320db27df865f5192157d11b16eba2a07e468726d94bcaf6d148c8ec89ba8a18cf50aa3ce3ed506d2ab9bbed9e240420b9017901f9017501800a8301e24194095e7baea6a6c7c4c2dfeb977efac326af552d878080f90111f859940000000000000000000000000000000000000000f842a00000000000000000000000000000000000000000000000000000000000000000a00000000000000000000000000000000000000000000000000000000000000000f859940100000000000000000000000000000000000000f842a00000000000000000000000000000000000000000000000000000000000000000a00100000000000000000000000000000000000000000000000000000000000000f859940200000000000000000000000000000000000000f842a00000000000000000000000000000000000000000000000000000000000000000a0020000000000000000000000000000000000000000000000000000000000000001a01648ffb90d688fa9801cecc9370f1d95c3320db27df865f5192157d11b16eba2a07e468726d94bcaf6d148c8ec89ba8a18cf50aa3ce3ed506d2ab9bbed9e240420f860800a8301e24194095e7baea6a6c7c4c2dfeb977efac326af552d87808025a036b1f62214438c796ed92a0f1fb9f8c098695cb1cde01455f9b751e3d89d2a2aa03f7280305b49dbecb3fec3468a4301a90ffbc613ee5e8f3a82a52324a63e8ee9c0",
  "json": {
    "header": {
      "parentHash": "0x0000000000000000000000000000000000000000000000000000000000000000",
      "sha3Uncles": "0x1dcc4de8dec75d7aab85b567b6ccd41ad312451b948a7413f0a142fd40d49347",
      "miner": "0x0000000000000000000000000000000000000000",
      "stateRoot": "0x0000000000000000000000000000000000000000000000000000000000000000",
      "transactionsRoot": "0xc97a657cc81f237cb9439b479e1e2c4e870ebf3360b0cf6d8b0dbe2b8db6bc0a",
      "receiptsRoot": "0x3c2614a0d17d0f70946f13f6bf4f6ada3afb99510e73ddf01d0f92cbc1205e42",
      "logsBloom": "0x00000000000000000000000000000000000000000000000000000000000000000000000000000000000000000000000000000000000000000000000000000000000000000000000000000000000000000000000000000000000000000000000000000000000000000000000000000000000000000000000000000000000000000000000000000000000000000000000000000000000000000000000000000000000000000000000000000000000000000000000000000000000000000000000000000000000000000000000000000000000000000000000000000000000000000000000000000000000000000000000000000000000000000000000000000000",
      "difficulty": "0x20000",
      "number": "0x3",
      "gasLimit": "0x186a0",
      "gasUsed": "0x186a0",
      "timestamp": "0x1",
      "extraData": "0x0000000000000000000000000000000000000000000000000000000000000000",
      "mixHash": "0x0000000000000000000000000000000000000000000000000000000000000000",
      "nonce": "0x0000000000000000",
      "hash": "0xaffd112338d38d7678e66b940a9fcae88ab85719e66e1327d3d44b5688fd6db3"
    },
    "transactions": [
      {
        "type": "0x1",
        "chainId": "0x1",
        "nonce": "0x0",
        "gasPrice": "0xa",
        "gas": "0x1e241",
        "to": "0x095e7baea6a6c7c4c2dfeb977efac326af552d87",
        "value": "0x0",
        "input": "0x",
        "accessList": [
          {
            "address": "0x0000000000000000000000000000000000000000",
            "storageKeys": [
              "0x0000000000000000000000000000000000000000000000000000000000000000",
              "0x0000000000000000000000000000000000000000000000000000000000000000"
            ]
          },
          {
            "address": "0x0100000000000000000000000000000000000000",
            "storageKeys": [
              "0x0000000000000000000000000000000000000000000000000000000000000000",
              "0x0100000000000000000000000000000000000000000000000000000000000000"
            ]
          },
          {
            "address": "0x0200000000000000000000000000000000000000",
            "storageKeys": [
              "0x0000000000000000000000000000000000000000000000000000000000000000",
              "0x0200000000000000000000000000000000000000000000000000000000000000"
            ]
          }
        ],
        "v": "0x1",
        "r": "0x1648ffb90d688fa9801cecc9370f1d95c3320db27df865f5192157d11b16eba2",
        "s": "0x7e468726d94bcaf6d148c8ec89ba8a18cf50aa3ce3ed506d2ab9bbed9e240420",
        "hash": "0xbe99d3b94cd60f85ef318071f1e5119f2097aba3b86e28495b53ea2c45e6ddf7"
      },
      {
        "type": "0x1",
        "chainId": "0x1",
        "nonce": "0x0",
        "gasPrice": "0xa",
        "gas": "0x1e241",
        "to": "0x095e7baea6a6c7c4c2dfeb977efac326af552d87",
        "value": "0x0",
        "input": "0x",
        "accessList": [
          {
            "address": "0x0000000000000000000000000000000000000000",
            "storageKeys": [
              "0x0000000000000000000000000000000000000000000000000000000000000000",
              "0x0000000000000000000000000000000000000000000000000000000000000000"
            ]
          },
          {
            "address": "0x0100000000000000000000000000000000000000",
            "storageKeys": [
              "0x0000000000000000000000000000000000000000000000000000000000000000",
              "0x0100000000000000000000000000000000000000000000000000000000000000"
            ]
          },
          {
            "address": "0x0200000000000000000000000000000000000000",
            "storageKeys": [
              "0x0000000000000000000000000000000000000000000000000000000000000000",
              "0x0200000000000000000000000000000000000000000000000000000000000000"
            ]
          }
        ],
        "v": "0x1",
        "r": "0x1648ffb90d688fa9801cecc9370f1d95c3320db27df865f5192157d11b16eba2",
        "s": "0x7e468726d94bcaf6d148c8ec89ba8a18cf50aa3ce3ed506d2ab9bbed9e240420",
        "hash": "0xbe99d3b94cd60f85ef318071f1e5119f2097aba3b86e28495b53ea2c45e6ddf7"
      },
      {
        "type": "0x1",
        "chainId": "0x1",
        "nonce": "0x0",
        "gasPrice": "0xa",
        "gas": "0x1e241",
        "to": "0x095e7baea6a6c7c4c2dfeb977efac326af552d87",
        "value": "0x0",
        "input": "0x",
        "accessList": [
          {
            "address": "0x0000000000000000000000000000000000000000",
            "storageKeys": [
              "0x0000000000000000000000000000000000000000000000000000000000000000",
              "0x0000000000000000000000000000000000000000000000000000000000000000"
            ]
          },
          {
            "address": "0x0100000000000000000000000000000000000000",
            "storageKeys": [
              "0x0000000000000000000000000000000000000000000000000000000000000000",
              "0x0100000000000000000000000000000000000000000000000000000000000000"
            ]
          },
          {
            "address": "0x0200000000000000000000000000000000000000",
            "storageKeys": [
              "0x0000000000000000000000000000000000000000000000000000000000000000",
              "0x0200000000000000000000000000000000000000000000000000000000000000"
            ]
          }
        ],
        "v": "0x1",
        "r": "0x1648ffb90d688fa9801cecc9370f1d95c3320db27df865f5192157d11b16eba2",
        "s": "0x7e468726d94bcaf6d148c8ec89ba8a18cf50aa3ce3ed506d2ab9bbed9e240420",
        "hash": "0xbe99d3b94cd60f85ef318071f1e5119f2097aba3b86e28495b53ea2c45e6ddf7"
      },
      {
        "type": "0x0",
        "chainId": null,
        "nonce": "0x0",
        "gasPrice": "0xa",
        "gas": "0x1e241",
        "to": "0x095e7baea6a6c7c4c2dfeb977efac326af552d87",
        "value": "0x0",
        "input": "0x",
        "accessList": null,
        "v": "0x25",
        "r": "0x36b1f62214438c796ed92a0f1fb9f8c098695cb1cde01455f9b751e3d89d2a2a",
        "s": "0x3f7280305b49dbecb3fec3468a4301a90ffbc613ee5e8f3a82a52324a63e8ee9",
        "hash": "0x1082ed4f9c6c6218f29888e724640cb00119668db89c550f053056d755ea96eb"
      }
    ],
    "uncles": null,
    "receipts": [
      {
        "type": 1,
        "root": "0x0000000000000000000000000000000000000000000000000000000000000000",
        "status": "0x1",
        "cumulativeGasUsed": "0x1e241",
        "logsBloom": "0x00000000000000000000000000000000000000000000000000000000000000000000000000000000000000000000000000000000000000000000000000000000000000000000000000000000000000000000000000000000000000000000000000000000000000000000000000000000000000000000000000000000000000000000000000000000000000000000000000000000000000000000000000000000000000000000000000000000000000000000000000000000000000000000000000000000000000000000000000000000000000000000000000000000000000000000000000000000000000000000000000000000000000000000000000000000",
        "logs": [],
        "transactionHash": "0xbe99d3b94cd60f85ef318071f1e5119f2097aba3b86e28495b53ea2c45e6ddf7",
        "contractAddress": "0x0000000000000000000000000000000000000000",
        "gasUsed": "0x1e241",
        "blockHash": "0x0000000000000000000000000000000000000000000000000000000000000000",
        "transactionIndex": "0x0"
      },
      {
        "type": 1,
        "root": "0x0000000000000000000000000000000000000000000000000000000000000000",
        "status": "0x1",
        "cumulativeGasUsed": "0x1e241",
        "logsBloom": "0x00000000000000000000000000000000000000000000000000000000000000000000000000000000000000000000000000000000000000000000000000000000000000000000000000000000000000000000000000000000000000000000000000000000000000000000000000000000000000000000000000000000000000000000000000000000000000000000000000000000000000000000000000000000000000000000000000000000000000000000000000000000000000000000000000000000000000000000000000000000000000000000000000000000000000000000000000000000000000000000000000000000000000000000000000000000",
        "logs": [],
        "transactionHash": "0xbe99d3b94cd60f85ef318071f1e5119f2097aba3b86e28495b53ea2c45e6ddf7",
        "contractAddress": "0x0000000000000000000000000000000000000000",
        "gasUsed": "0x1e241",
        "blockHash": "0x0000000000000000000000000000000000000000000000000000000000000000",
        "transactionIndex": "0x1"
      },
      {
        "type": 1,
        "root": "0x0000000000000000000000000000000000000000000000000000000000000000",
        "status": "0x1",
        "cumulativeGasUsed": "0x1e241",
        "logsBloom": "0x00000000000000000000000000000000000000000000000000000000000000000000000000000000000000000000000000000000000000000000000000000000000000000000000000000000000000000000000000000000000000000000000000000000000000000000000000000000000000000000000000000000000000000000000000000000000000000000000000000000000000000000000000000000000000000000000000000000000000000000000000000000000000000000000000000000000000000000000000000000000000000000000000000000000000000000000000000000000000000000000000000000000000000000000000000000",
        "logs": [],
        "transactionHash": "0xbe99d3b94cd60f85ef318071f1e5119f2097aba3b86e28495b53ea2c45e6ddf7",
        "contractAddress": "0x0000000000000000000000000000000000000000",
        "gasUsed": "0x1e241",
        "blockHash": "0x0000000000000000000000000000000000000000000000000000000000000000",
        "transactionIndex": "0x2"
      },
      {
        "root": "0x0000000000000000000000000000000000000000000000000000000000000000",
        "status": "0x1",
        "cumulativeGasUsed": "0x1e241",
        "logsBloom": "0x00000000000000000000000000000000000000000000000000000000000000000000000000000000000000000000000000000000000000000000000000000000000000000000000000000000000000000000000000000000000000000000000000000000000000000000000000000000000000000000000000000000000000000000000000000000000000000000000000000000000000000000000000000000000000000000000000000000000000000000000000000000000000000000000000000000000000000000000000000000000000000000000000000000000000000000000000000000000000000000000000000000000000000000000000000000",
        "logs": [],
        "transactionHash": "0x1082ed4f9c6c6218f29888e724640cb00119668db89c550f053056d755ea96eb",
        "contractAddress": "0x0000000000000000000000000000000000000000",
        "gasUsed": "0x1e241",
        "blockHash": "0x0000000000000000000000000000000000000000000000000000000000000000",
        "transactionIndex": "0x3"
      }
    ]
  }
}