{
  "rlp": "f91675f90216a00000000000000000000000000000000000000000000000000000000000000000a01dcc4de8dec75d7aab85b567b6ccd41ad312451b948a7413f0a142fd40d49347940000000000000000000000000000000000000000a00000000000000000000000000000000000000000000000000000000000000000a06b87d4f4cc95949231c4fb0356bf031f758b081483bd5b189108781706acbd9da02b8222455b6c717555b823f42cfa898b4acc807923afec61bb52784432168112b90100000000000000000000000000000000000000000000000000000000000000000000000000000000000000000000000000000000000000000000000000000000000000000000000000000000000000000000000000000000000000000000000000000000000000000000000000000000000000000000000000000000000000000000000000000000000000000000000000000000000000000000000000000000000000000000000000000000000000000000000000000000000000000000000000000000000000000000000000000000000000000000000000000000000000000000000000000000000000000000000000000000000000000000000000000000008302000007830186a0830186a001a00000000000000000000000000000000000000000000000000000000000000000a00000000000000000000000000000000000000000000000000000000000000000880000000000000000f91458b902e501f902e101800a8301e24194095e7baea6a6c7c4c2dfeb977efac326af552d878080f9027df859940000000000000000000000000000000000000000f842a00000000000000000000000000000000000000000000000000000000000000000a00000000000000000000000000000000000000000000000000000000000000000f859940100000000000000000000000000000000000000f842a00000000000000000000000000000000000000000000000000000000000000000a00100000000000000000000000000000000000000000000000000000000000000f859940200000000000000000000000000000000000000f842a00000000000000000000000000000000000000000000000000000000000000000a00200000000000000000000000000000000000000000000000000000000000000f859940300000000000000000000000000000000000000f842a00000000000000000000000000000000000000000000000000000000000000000a00300000000000000000000000000000000000000000000000000000000000000f859940400000000000000000000000000000000000000f842a00000000000000000000000000000000000000000000000000000000000000000a00400000000000000000000000000000000000000000000000000000000000000f859940500000000000000000000000000000000000000f842a00000000000000000000000000000000000000000000000000000000000000000a00500000000000000000000000000000000000000000000000000000000000000f859940600000000000000000000000000000000000000f842a00000000000000000000000000000000000000000000000000000000000000000a0060000000000000000000000000000000000000000000000000000000000000080a01f94f591abf29ce2d790b637d689cd2264514bd2a395d29b73f6bb08b3af37cda01ea4de58e09cb2c969b59c296e40aa419a04130fa1e29d1c795563f646188312b902e501f902e101800a8301e24194095e7baea6a6c7c4c2dfeb977efac326af552d878080f9027df859940000000000000000000000000000000000000000f842a00000000000000000000000000000000000000000000000000000000000000000a00000000000000000000000000000000000000000000000000000000000000000f859940100000000000000000000000000000000000000f842a00000000000000000000000000000000000000000000000000000000000000000a00100000000000000000000000000000000000000000000000000000000000000f859940200000000000000000000000000000000000000f842a00000000000000000000000000000000000000000000000000000000000000000a00200000000000000000000000000000000000000000000000000000000000000f859940300000000000000000000000000000000000000f842a00000000000000000000000000000000000000000000000000000000000000000a00300000000000000000000000000000000000000000000000000000000000000f859940400000000000000000000000000000000000000f842a00000000000000000000000000000000000000000000000000000000000000000a00400000000000000000000000000000000000000000000000000000000000000f859940500000000000000000000000000000000000000f842a00000000000000000000000000000000000000000000000000000000000000000a00500000000000000000000000000000000000000000000000000000000000000f859940600000000000000000000000000000000000000f842a00000000000000000000000000000000000000000000000000000000000000000a0060000000000000000000000000000000000000000000000000000000000000080a01f94f591abf29ce2d790b637d689cd2264514bd2a395d29b73f6bb08b3af37cda01ea4de58e09cb2c969b59c296e40aa419a04130fa1e29d1c795563f646188312b902e501f902e101800a8301e24194095e7baea6a6c7c4c2dfeb977efac326af552d878080f9027df859940000000000000000000000000000000000000000f842a00000000000000000000000000000000000000000000000000000000000000000a00000000000000000000000000000000000000000000000000000000000000000f859940100000000000000000000000000000000000000f842a00000000000000000000000000000000000000000000000000000000000000000a00100000000000000000000000000000000000000000000000000000000000000f859940200000000000000000000000000000000000000f842a00000000000000000000000000000000000000000000000000000000000000000a00200000000000000000000000000000000000000000000000000000000000000f859940300000000000000000000000000000000000000f842a00000000000000000000000000000000000000000000000000000000000000000a00300000000000000000000000000000000000000000000000000000000000000f859940400000000000000000000000000000000000000f842a00000000000000000000000000000000000000000000000000000000000000000a00400000000000000000000000000000000000000000000000000000000000000f859940500000000000000000000000000000000000000f842a00000000000000000000000000000000000000000000000000000000000000000a00500000000000000000000000000000000000000000000000000000000000000f859940600000000000000000000000000000000000000f842a00000000000000000000000000000000000000000000000000000000000000000a0060000000000000000000000000000000000000000000000000000000000000080a01f94f591abf29ce2d790b637d689cd2264514bd2a395d29b73f6bb08b3af37cda01ea4de58e09cb2c969b59c296e40aa419a04130fa1e29d1c795563f646188312b902e501f902e101800a8301e24194095e7baea6a6c7c4c2dfeb977efac326af552d878080f9027df859940000000000000000000000000000000000000000f842a00000000000000000000000000000000000000000000000000000000000000000a00000000000000000000000000000000000000000000000000000000000000000f859940100000000000000000000000000000000000000f842a00000000000000000000000000000000000000000000000000000000000000000a00100000000000000000000000000000000000000000000000000000000000000f859940200000000000000000000000000000000000000f842a00000000000000000000000000000000000000000000000000000000000000000a00200000000000000000000000000000000000000000000000000000000000000f859940300000000000000000000000000000000000000f842a00000000000000000000000000000000000000000000000000000000000000000a00300000000000000000000000000000000000000000000000000000000000000f859940400000000000000000000000000000000000000f842a00000000000000000000000000000000000000000000000000000000000000000a00400000000000000000000000000000000000000000000000000000000000000f859940500000000000000000000000000000000000000f842a00000000000000000000000000000000000000000000000000000000000000000a00500000000000000000000000000000000000000000000000000000000000000f859940600000000000000000000000000000000000000f842a00000000000000000000000000000000000000000000000000000000000000000a0060000000000000000000000000000000000000000000000000000000000000080a01f94f591abf29ce2d790b637d689cd2264514bd2a395d29b73f6bb08b3af37cda01ea4de58e09cb2c969b59c296e40aa419a04130fa1e29d1c795563f646188312b902e501f902e101800a8301e24194095e7baea6a6c7c4c2dfeb977efac326af552d878080f9027df859940000000000000000000000000000000000000000f842a00000000000000000000000000000000000000000000000000000000000000000a00000000000000000000000000000000000000000000000000000000000000000f859940100000000000000000000000000000000000000f842a00000000000000000000000000000000000000000000000000000000000000000a00100000000000000000000000000000000000000000000000000000000000000f859940200000000000000000000000000000000000000f842a00000000000000000000000000000000000000000000000000000000000000000a00200000000000000000000000000000000000000000000000000000000000000f859940300000000000000000000000000000000000000f842a00000000000000000000000000000000000000000000000000000000000000000a00300000000000000000000000000000000000000000000000000000000000000f859940400000000000000000000000000000000000000f842a00000000000000000000000000000000000000000000000000000000000000000a00400000000000000000000000000000000000000000000000000000000000000f859940500000000000000000000000000000000000000f842a00000000000000000000000000000000000000000000000000000000000000000a00500000000000000000000000000000000000000000000000000000000000000f859940600000000000000000000000000000000000000f842a00000000000000000000000000000000000000000000000000000000000000000a0060000000000000000000000000000000000000000000000000000000000000080a01f94f591abf29ce2d790b637d689cd2264514bd2a395d29b73f6bb08b3af37cda01ea4de58e09cb2c969b59c296e40aa419a04130fa1e29d1c795563f646188312b902e501f902e101800a8301e24194095e7baea6a6c7c4c2dfeb977efac326af552d878080f9027df859940000000000000000000000000000000000000000f842a00000000000000000000000000000000000000000000000000000000000000000a00000000000000000000000000000000000000000000000000000000000000000f859940100000000000000000000000000000000000000f842a00000000000000000000000000000000000000000000000000000000000000000a00100000000000000000000000000000000000000000000000000000000000000f859940200000000000000000000000000000000000000f842a00000000000000000000000000000000000000000000000000000000000000000a00200000000000000000000000000000000000000000000000000000000000000f859940300000000000000000000000000000000000000f842a00000000000000000000000000000000000000000000000000000000000000000a00300000000000000000000000000000000000000000000000000000000000000f859940400000000000000000000000000000000000000f842a00000000000000000000000000000000000000000000000000000000000000000a00400000000000000000000000000000000000000000000000000000000000000f859940500000000000000000000000000000000000000f842a00000000000000000000000000000000000000000000000000000000000000000a00500000000000000000000000000000000000000000000000000000000000000f859940600000000000000000000000000000000000000f842a00000000000000000000000000000000000000000000000000000000000000000a0060000000000000000000000000000000000000000000000000000000000000080a01f94f591abf29ce2d790b637d689cd2264514bd2a395d29b73f6bb08b3af37cda01ea4de58e09cb2c969b59c296e40aa419a04130fa1e29d1c795563f646188312b902e501f902e101800a8301e24194095e7baea6a6c7c4c2dfeb977efac326af552d878080f9027df859940000000000000000000000000000000000000000f842a00000000000000000000000000000000000000000000000000000000000000000a00000000000000000000000000000000000000000000000000000000000000000f859940100000000000000000000000000000000000000f842a00000000000000000000000000000000000000000000000000000000000000000a00100000000000000000000000000000000000000000000000000000000000000f859940200000000000000000000000000000000000000f842a00000000000000000000000000000000000000000000000000000000000000000a00200000000000000000000000000000000000000000000000000000000000000f859940300000000000000000000000000000000000000f842a00000000000000000000000000000000000000000000000000000000000000000a00300000000000000000000000000000000000000000000000000000000000000f859940400000000000000000000000000000000000000f842a00000000000000000000000000000000000000000000000000000000000000000a00400000000000000000000000000000000000000000000000000000000000000f859940500000000000000000000000000000000000000f842a00000000000000000000000000000000000000000000000000000000000000000a00500000000000000000000000000000000000000000000000000000000000000f859940600000000000000000000000000000000000000f842a00000000000000000000000000000000000000000000000000000000000000000a0060000000000000000000000000000000000000000000000000000000000000080a01f94f591abf29ce2d790b637d689cd2264514bd2a395d29b73f6bb08b3af37cda01ea4de58e09cb2c969b59c296e40aa419a04130fa1e29d1c795563f646188312c0",
  "json": {
    "Header": {
      "parentHash": "0x0000000000000000000000000000000000000000000000000000000000000000",
      "sha3Uncles": "0x1dcc4de8dec75d7aab85b567b6ccd41ad312451b948a7413f0a142fd40d49347",
      "miner": "0x0000000000000000000000000000000000000000",
      "stateRoot": "0x0000000000000000000000000000000000000000000000000000000000000000",
      "transactionsRoot": "0x6b87d4f4cc95949231c4fb0356bf031f758b081483bd5b189108781706acbd9d",
      "receiptsRoot": "0x2b8222455b6c717555b823f42cfa898b4acc807923afec61bb52784432168112",
      "logsBloom": "0x00000000000000000000000000000000000000000000000000000000000000000000000000000000000000000000000000000000000000000000000000000000000000000000000000000000000000000000000000000000000000000000000000000000000000000000000000000000000000000000000000000000000000000000000000000000000000000000000000000000000000000000000000000000000000000000000000000000000000000000000000000000000000000000000000000000000000000000000000000000000000000000000000000000000000000000000000000000000000000000000000000000000000000000000000000000",
      "difficulty": "0x20000",
      "number": "0x7",
      "gasLimit": "0x186a0",
      "gasUsed": "0x186a0",
      "timestamp": "0x1",
      "extraData": "0x0000000000000000000000000000000000000000000000000000000000000000",
      "mixHash": "0x0000000000000000000000000000000000000000000000000000000000000000",
      "nonce": "0x0000000000000000",
      "hash": "0xad33a94a3d73b4b58df9fec7f7e71ef7091482978467881b36ee3d782ecf4398"
    },
    "Txs": [
      {
        "type": "0x1",
        "chainId": "0x1",
        "nonce": "0x0",
        "gasPrice": "0xa",
        "gas": "0x1e241",
        "to": "0x095e7baea6a6c7c4c2dfeb977efac326af552d87",
        "value": "0x0",
        "input": "0x",
        "accessList": [
          {
            "address": "0x0000000000000000000000000000000000000000",
            "storageKeys": [
              "0x0000000000000000000000000000000000000000000000000000000000000000",
              "0x0000000000000000000000000000000000000000000000000000000000000000"
            ]
          },
          {
            "address": "0x0100000000000000000000000000000000000000",
            "storageKeys": [
              "0x0000000000000000000000000000000000000000000000000000000000000000",
              "0x0100000000000000000000000000000000000000000000000000000000000000"
            ]
          },
          {
            "address": "0x0200000000000000000000000000000000000000",
            "storageKeys": [
              "0x0000000000000000000000000000000000000000000000000000000000000000",
              "0x0200000000000000000000000000000000000000000000000000000000000000"
            ]
          },
          {
            "address": "0x0300000000000000000000000000000000000000",
            "storageKeys": [
              "0x0000000000000000000000000000000000000000000000000000000000000000",
              "0x0300000000000000000000000000000000000000000000000000000000000000"
            ]
          },
          {
            "address": "0x0400000000000000000000000000000000000000",
            "storageKeys": [
              "0x0000000000000000000000000000000000000000000000000000000000000000",
              "0x0400000000000000000000000000000000000000000000000000000000000000"
            ]
          },
          {
            "address": "0x0500000000000000000000000000000000000000",
            "storageKeys": [
              "0x0000000000000000000000000000000000000000000000000000000000000000",
              "0x0500000000000000000000000000000000000000000000000000000000000000"
            ]
          },
          {
            "address": "0x0600000000000000000000000000000000000000",
            "storageKeys": [
              "0x0000000000000000000000000000000000000000000000000000000000000000",
              "0x0600000000000000000000000000000000000000000000000000000000000000"
            ]
          }
        ],
        "v": "0x0",
        "r": "0x1f94f591abf29ce2d790b637d689cd2264514bd2a395d29b73f6bb08b3af37cd",
        "s": "0x1ea4de58e09cb2c969b59c296e40aa419a04130fa1e29d1c795563f646188312",
        "hash": "0xf24dd6321ddd33a2d8cee787333a39e06ce09d51e3c0d58082a49807da03b83d"
      },
      {
        "type": "0x1",
        "chainId": "0x1",
        "nonce": "0x0",
        "gasPrice": "0xa",
        "gas": "0x1e241",
        "to": "0x095e7baea6a6c7c4c2dfeb977efac326af552d87",
        "value": "0x0",
        "input": "0x",
        "accessList": [
          {
            "address": "0x0000000000000000000000000000000000000000",
            "storageKeys": [
              "0x0000000000000000000000000000000000000000000000000000000000000000",
              "0x0000000000000000000000000000000000000000000000000000000000000000"
            ]
          },
          {
            "address": "0x0100000000000000000000000000000000000000",
            "storageKeys": [
              "0x0000000000000000000000000000000000000000000000000000000000000000",
              "0x0100000000000000000000000000000000000000000000000000000000000000"
            ]
          },
          {
            "address": "0x0200000000000000000000000000000000000000",
            "storageKeys": [
              "0x0000000000000000000000000000000000000000000000000000000000000000",
              "0x0200000000000000000000000000000000000000000000000000000000000000"
            ]
          },
          {
            "address": "0x0300000000000000000000000000000000000000",
            "storageKeys": [
              "0x0000000000000000000000000000000000000000000000000000000000000000",
              "0x0300000000000000000000000000000000000000000000000000000000000000"
            ]
          },
          {
            "address": "0x0400000000000000000000000000000000000000",
            "storageKeys": [
              "0x0000000000000000000000000000000000000000000000000000000000000000",
              "0x0400000000000000000000000000000000000000000000000000000000000000"
            ]
          },
          {
            "address": "0x0500000000000000000000000000000000000000",
            "storageKeys": [
              "0x0000000000000000000000000000000000000000000000000000000000000000",
              "0x0500000000000000000000000000000000000000000000000000000000000000"
            ]
          },
          {
            "address": "0x0600000000000000000000000000000000000000",
            "storageKeys": [
              "0x0000000000000000000000000000000000000000000000000000000000000000",
              "0x0600000000000000000000000000000000000000000000000000000000000000"
            ]
          }
        ],
        "v": "0x0",
        "r": "0x1f94f591abf29ce2d790b637d689cd2264514bd2a395d29b73f6bb08b3af37cd",
        "s": "0x1ea4de58e09cb2c969b59c296e40aa419a04130fa1e29d1c795563f646188312",
        "hash": "0xf24dd6321ddd33a2d8cee787333a39e06ce09d51e3c0d58082a49807da03b83d"
      },
      {
        "type": "0x1",
        "chainId": "0x1",
        "nonce": "0x0",
        "gasPrice": "0xa",
        "gas": "0x1e241",
        "to": "0x095e7baea6a6c7c4c2dfeb977efac326af552d87",
        "value": "0x0",
        "input": "0x",
        "accessList": [
          {
            "address": "0x0000000000000000000000000000000000000000",
            "storageKeys": [
              "0x0000000000000000000000000000000000000000000000000000000000000000",
              "0x0000000000000000000000000000000000000000000000000000000000000000"
            ]
          },
          {
            "address": "0x0100000000000000000000000000000000000000",
            "storageKeys": [
              "0x0000000000000000000000000000000000000000000000000000000000000000",
              "0x0100000000000000000000000000000000000000000000000000000000000000"
            ]
          },
          {
            "address": "0x0200000000000000000000000000000000000000",
            "storageKeys": [
              "0x0000000000000000000000000000000000000000000000000000000000000000",
              "0x0200000000000000000000000000000000000000000000000000000000000000"
            ]
          },
          {
            "address": "0x0300000000000000000000000000000000000000",
            "storageKeys": [
              "0x0000000000000000000000000000000000000000000000000000000000000000",
              "0x0300000000000000000000000000000000000000000000000000000000000000"
            ]
          },
          {
            "address": "0x0400000000000000000000000000000000000000",
            "storageKeys": [
              "0x0000000000000000000000000000000000000000000000000000000000000000",
              "0x0400000000000000000000000000000000000000000000000000000000000000"
            ]
          },
          {
            "address": "0x0500000000000000000000000000000000000000",
            "storageKeys": [
              "0x0000000000000000000000000000000000000000000000000000000000000000",
              "0x0500000000000000000000000000000000000000000000000000000000000000"
            ]
          },
          {
            "address": "0x0600000000000000000000000000000000000000",
            "storageKeys": [
              "0x0000000000000000000000000000000000000000000000000000000000000000",
              "0x0600000000000000000000000000000000000000000000000000000000000000"
            ]
          }
        ],
        "v": "0x0",
        "r": "0x1f94f591abf29ce2d790b637d689cd2264514bd2a395d29b73f6bb08b3af37cd",
        "s": "0x1ea4de58e09cb2c969b59c296e40aa419a04130fa1e29d1c795563f646188312",
        "hash": "0xf24dd6321ddd33a2d8cee787333a39e06ce09d51e3c0d58082a49807da03b83d"
      },
      {
        "type": "0x1",
        "chainId": "0x1",
        "nonce": "0x0",
        "gasPrice": "0xa",
        "gas": "0x1e241",
        "to": "0x095e7baea6a6c7c4c2dfeb977efac326af552d87",
        "value": "0x0",
        "input": "0x",
        "accessList": [
          {
            "address": "0x0000000000000000000000000000000000000000",
            "storageKeys": [
              "0x0000000000000000000000000000000000000000000000000000000000000000",
              "0x0000000000000000000000000000000000000000000000000000000000000000"
            ]
          },
          {
            "address": "0x0100000000000000000000000000000000000000",
            "storageKeys": [
              "0x0000000000000000000000000000000000000000000000000000000000000000",
              "0x0100000000000000000000000000000000000000000000000000000000000000"
            ]
          },
          {
            "address": "0x0200000000000000000000000000000000000000",
            "storageKeys": [
              "0x0000000000000000000000000000000000000000000000000000000000000000",
              "0x0200000000000000000000000000000000000000000000000000000000000000"
            ]
          },
          {
            "address": "0x0300000000000000000000000000000000000000",
            "storageKeys": [
              "0x0000000000000000000000000000000000000000000000000000000000000000",
              "0x0300000000000000000000000000000000000000000000000000000000000000"
            ]
          },
          {
            "address": "0x0400000000000000000000000000000000000000",
            "storageKeys": [
              "0x0000000000000000000000000000000000000000000000000000000000000000",
              "0x0400000000000000000000000000000000000000000000000000000000000000"
            ]
          },
          {
            "address": "0x0500000000000000000000000000000000000000",
            "storageKeys": [
              "0x0000000000000000000000000000000000000000000000000000000000000000",
              "0x0500000000000000000000000000000000000000000000000000000000000000"
            ]
          },
          {
            "address": "0x0600000000000000000000000000000000000000",
            "storageKeys": [
              "0x0000000000000000000000000000000000000000000000000000000000000000",
              "0x0600000000000000000000000000000000000000000000000000000000000000"
            ]
          }
        ],
        "v": "0x0",
        "r": "0x1f94f591abf29ce2d790b637d689cd2264514bd2a395d29b73f6bb08b3af37cd",
        "s": "0x1ea4de58e09cb2c969b59c296e40aa419a04130fa1e29d1c795563f646188312",
        "hash": "0xf24dd6321ddd33a2d8cee787333a39e06ce09d51e3c0d58082a49807da03b83d"
      },
      {
        "type": "0x1",
        "chainId": "0x1",
        "nonce": "0x0",
        "gasPrice": "0xa",
        "gas": "0x1e241",
        "to": "0x095e7baea6a6c7c4c2dfeb977efac326af552d87",
        "value": "0x0",
        "input": "0x",
        "accessList": [
          {
            "address": "0x0000000000000000000000000000000000000000",
            "storageKeys": [
              "0x0000000000000000000000000000000000000000000000000000000000000000",
              "0x0000000000000000000000000000000000000000000000000000000000000000"
            ]
          },
          {
            "address": "0x0100000000000000000000000000000000000000",
            "storageKeys": [
              "0x0000000000000000000000000000000000000000000000000000000000000000",
              "0x0100000000000000000000000000000000000000000000000000000000000000"
            ]
          },
          {
            "address": "0x0200000000000000000000000000000000000000",
            "storageKeys": [
              "0x0000000000000000000000000000000000000000000000000000000000000000",
              "0x0200000000000000000000000000000000000000000000000000000000000000"
            ]
          },
          {
            "address": "0x0300000000000000000000000000000000000000",
            "storageKeys": [
              "0x0000000000000000000000000000000000000000000000000000000000000000",
              "0x0300000000000000000000000000000000000000000000000000000000000000"
            ]
          },
          {
            "address": "0x0400000000000000000000000000000000000000",
            "storageKeys": [
              "0x0000000000000000000000000000000000000000000000000000000000000000",
              "0x0400000000000000000000000000000000000000000000000000000000000000"
            ]
          },
          {
            "address": "0x0500000000000000000000000000000000000000",
            "storageKeys": [
              "0x0000000000000000000000000000000000000000000000000000000000000000",
              "0x0500000000000000000000000000000000000000000000000000000000000000"
            ]
          },
          {
            "address": "0x0600000000000000000000000000000000000000",
            "storageKeys": [
              "0x0000000000000000000000000000000000000000000000000000000000000000",
              "0x0600000000000000000000000000000000000000000000000000000000000000"
            ]
          }
        ],
        "v": "0x0",
        "r": "0x1f94f591abf29ce2d790b637d689cd2264514bd2a395d29b73f6bb08b3af37cd",
        "s": "0x1ea4de58e09cb2c969b59c296e40aa419a04130fa1e29d1c795563f646188312",
        "hash": "0xf24dd6321ddd33a2d8cee787333a39e06ce09d51e3c0d58082a49807da03b83d"
      },
      {
        "type": "0x1",
        "chainId": "0x1",
        "nonce": "0x0",
        "gasPrice": "0xa",
        "gas": "0x1e241",
        "to": "0x095e7baea6a6c7c4c2dfeb977efac326af552d87",
        "value": "0x0",
        "input": "0x",
        "accessList": [
          {
            "address": "0x0000000000000000000000000000000000000000",
            "storageKeys": [
              "0x0000000000000000000000000000000000000000000000000000000000000000",
              "0x0000000000000000000000000000000000000000000000000000000000000000"
            ]
          },
          {
            "address": "0x0100000000000000000000000000000000000000",
            "storageKeys": [
              "0x0000000000000000000000000000000000000000000000000000000000000000",
              "0x0100000000000000000000000000000000000000000000000000000000000000"
            ]
          },
          {
            "address": "0x0200000000000000000000000000000000000000",
            "storageKeys": [
              "0x0000000000000000000000000000000000000000000000000000000000000000",
              "0x0200000000000000000000000000000000000000000000000000000000000000"
            ]
          },
          {
            "address": "0x0300000000000000000000000000000000000000",
            "storageKeys": [
              "0x0000000000000000000000000000000000000000000000000000000000000000",
              "0x0300000000000000000000000000000000000000000000000000000000000000"
            ]
          },
          {
            "address": "0x0400000000000000000000000000000000000000",
            "storageKeys": [
              "0x0000000000000000000000000000000000000000000000000000000000000000",
              "0x0400000000000000000000000000000000000000000000000000000000000000"
            ]
          },
          {
            "address": "0x0500000000000000000000000000000000000000",
            "storageKeys": [
              "0x0000000000000000000000000000000000000000000000000000000000000000",
              "0x0500000000000000000000000000000000000000000000000000000000000000"
            ]
          },
          {
            "address": "0x0600000000000000000000000000000000000000",
            "storageKeys": [
              "0x0000000000000000000000000000000000000000000000000000000000000000",
              "0x0600000000000000000000000000000000000000000000000000000000000000"
            ]
          }
        ],
        "v": "0x0",
        "r": "0x1f94f591abf29ce2d790b637d689cd2264514bd2a395d29b73f6bb08b3af37cd",
        "s": "0x1ea4de58e09cb2c969b59c296e40aa419a04130fa1e29d1c795563f646188312",
        "hash": "0xf24dd6321ddd33a2d8cee787333a39e06ce09d51e3c0d58082a49807da03b83d"
      },
      {
        "type": "0x1",
        "chainId": "0x1",
        "nonce": "0x0",
        "gasPrice": "0xa",
        "gas": "0x1e241",
        "to": "0x095e7baea6a6c7c4c2dfeb977efac326af552d87",
        "value": "0x0",
        "input": "0x",
        "accessList": [
          {
            "address": "0x0000000000000000000000000000000000000000",
            "storageKeys": [
              "0x0000000000000000000000000000000000000000000000000000000000000000",
              "0x0000000000000000000000000000000000000000000000000000000000000000"
            ]
          },
          {
            "address": "0x0100000000000000000000000000000000000000",
            "storageKeys": [
              "0x0000000000000000000000000000000000000000000000000000000000000000",
              "0x0100000000000000000000000000000000000000000000000000000000000000"
            ]
          },
          {
            "address": "0x0200000000000000000000000000000000000000",
            "storageKeys": [
              "0x0000000000000000000000000000000000000000000000000000000000000000",
              "0x0200000000000000000000000000000000000000000000000000000000000000"
            ]
          },
          {
            "address": "0x0300000000000000000000000000000000000000",
            "storageKeys": [
              "0x0000000000000000000000000000000000000000000000000000000000000000",
              "0x0300000000000000000000000000000000000000000000000000000000000000"
            ]
          },
          {
            "address": "0x0400000000000000000000000000000000000000",
            "storageKeys": [
              "0x0000000000000000000000000000000000000000000000000000000000000000",
              "0x0400000000000000000000000000000000000000000000000000000000000000"
            ]
          },
          {
            "address": "0x0500000000000000000000000000000000000000",
            "storageKeys": [
              "0x0000000000000000000000000000000000000000000000000000000000000000",
              "0x0500000000000000000000000000000000000000000000000000000000000000"
            ]
          },
          {
            "address": "0x0600000000000000000000000000000000000000",
            "storageKeys": [
              "0x0000000000000000000000000000000000000000000000000000000000000000",
              "0x0600000000000000000000000000000000000000000000000000000000000000"
            ]
          }
        ],
        "v": "0x0",
        "r": "0x1f94f591abf29ce2d790b637d689cd2264514bd2a395d29b73f6bb08b3af37cd",
        "s": "0x1ea4de58e09cb2c969b59c296e40aa419a04130fa1e29d1c795563f646188312",
        "hash": "0xf24dd6321ddd33a2d8cee787333a39e06ce09d51e3c0d58082a49807da03b83d"
      }
    ],
    "Uncles": null
  }
}