{
  "rlp": "f902dff90216a00000000000000000000000000000000000000000000000000000000000000000a01dcc4de8dec75d7aab85b567b6ccd41ad312451b948a7413f0a142fd40d49347940000000000000000000000000000000000000000a00000000000000000000000000000000000000000000000000000000000000000a050b69a088c14abef9a45e76e8fa80b3425a08e543144cd26b73084890eec9d9ca047aa18b09c6baf3768802156b2aa811734a73a2d27ca48eb6446b06212297375b90100000000000000000000000000000000000000000000000000000000000000000000000000000000000000000000000000000000000000000000000000000000000000000000000000000000000000000000000000000000000000000000000000000000000000000000000000000000000000000000000000000000000000000000000000000000000000000000000000000000000000000000000000000000000000000000000000000000000000000000000000000000000000000000000000000000000000000000000000000000000000000000000000000000000000000000000000000000000000000000000000000000000000000000000000000000008302000001830186a0830186a001a00000000000000000000000000000000000000000000000000000000000000000a00000000000000000000000000000000000000000000000000000000000000000880000000000000000f8c3b8c101f8be01800a8301e24194095e7baea6a6c7c4c2dfeb977efac326af552d878080f85bf859940000000000000000000000000000000000000000f842a00000000000000000000000000000000000000000000000000000000000000000a0000000000000000000000000000000000000000000000000000000000000000080a09a7d5268a36e1e2ebe5dbc0bc96f4ec9c55a26b6d823f9037b36225715296cf7a013108799b2179f1d5a5c7753a079a4b12ace532d80eb9b8340248a90d112abfac0",
  "json": {
    "Header": {
      "parentHash": "0x0000000000000000000000000000000000000000000000000000000000000000",
      "sha3Uncles": "0x1dcc4de8dec75d7aab85b567b6ccd41ad312451b948a7413f0a142fd40d49347",
      "miner": "0x0000000000000000000000000000000000000000",
      "stateRoot": "0x0000000000000000000000000000000000000000000000000000000000000000",
      "transactionsRoot": "0x50b69a088c14abef9a45e76e8fa80b3425a08e543144cd26b73084890eec9d9c",
      "receiptsRoot": "0x47aa18b09c6baf3768802156b2aa811734a73a2d27ca48eb6446b06212297375",
      "logsBloom": "0x00000000000000000000000000000000000000000000000000000000000000000000000000000000000000000000000000000000000000000000000000000000000000000000000000000000000000000000000000000000000000000000000000000000000000000000000000000000000000000000000000000000000000000000000000000000000000000000000000000000000000000000000000000000000000000000000000000000000000000000000000000000000000000000000000000000000000000000000000000000000000000000000000000000000000000000000000000000000000000000000000000000000000000000000000000000",
      "difficulty": "0x20000",
      "number": "0x1",
      "gasLimit": "0x186a0",
      "gasUsed": "0x186a0",
      "timestamp": "0x1",
      "extraData": "0x0000000000000000000000000000000000000000000000000000000000000000",
      "mixHash": "0x0000000000000000000000000000000000000000000000000000000000000000",
      "nonce": "0x0000000000000000",
      "hash": "0x1da562523ae827ae06f9aa62b0318f409d6267d9daeee988540efa3402f02e6c"
    },
    "Txs": [
      {
        "type": "0x1",
        "chainId": "0x1",
        "nonce": "0x0",
        "gasPrice": "0xa",
        "gas": "0x1e241",
        "to": "0x095e7baea6a6c7c4c2dfeb977efac326af552d87",
        "value": "0x0",
        "input": "0x",
        "accessList": [
          {
            "address": "0x0000000000000000000000000000000000000000",
            "storageKeys": [
              "0x0000000000000000000000000000000000000000000000000000000000000000",
              "0x0000000000000000000000000000000000000000000000000000000000000000"
            ]
          }
        ],
        "v": "0x0",
        "r": "0x9a7d5268a36e1e2ebe5dbc0bc96f4ec9c55a26b6d823f9037b36225715296cf7",
        "s": "0x13108799b2179f1d5a5c7753a079a4b12ace532d80eb9b8340248a90d112abfa",
        "hash": "0x6bee5de07e0af527cea7df6b81240ecd7e42dff950b3f11d46b60f2bb354f96d"
      }
    ],
    "Uncles": null
  }
}