{
  "rlp": "f9045df90216a00000000000000000000000000000000000000000000000000000000000000000a01dcc4de8dec75d7aab85b567b6ccd41ad312451b948a7413f0a142fd40d49347940000000000000000000000000000000000000000a00000000000000000000000000000000000000000000000000000000000000000a0ad2f8ff374cb7815a26fe178c0c52f1199d70a8fea1da707e43e9c43df79fc08a01c3786f2e403bf36e2d28f5b4a64bc39a33de881cbdde61dec6ecc6e34772310b90100000000000000000000000000000000000000000000000000000000000000000000000000000000000000000000000000000000000000000000000000000000000000000000000000000000000000000000000000000000000000000000000000000000000000000000000000000000000000000000000000000000000000000000000000000000000000000000000000000000000000000000000000000000000000000000000000000000000000000000000000000000000000000000000000000000000000000000000000000000000000000000000000000000000000000000000000000000000000000000000000000000000000000000000000000000008302000002830186a0830186a001a00000000000000000000000000000000000000000000000000000000000000000a00000000000000000000000000000000000000000000000000000000000000000880000000000000000f90240b9011d01f9011901800a8301e24194095e7baea6a6c7c4c2dfeb977efac326af552d878080f8b6f859940000000000000000000000000000000000000000f842a00000000000000000000000000000000000000000000000000000000000000000a00000000000000000000000000000000000000000000000000000000000000000f859940100000000000000000000000000000000000000f842a00000000000000000000000000000000000000000000000000000000000000000a0010000000000000000000000000000000000000000000000000000000000000001a0ee9ac1494c7d6e6c7a5346faa8e379034c7367ca11fb6ec2edadb88a4fe946b4a03f0e90aecf95bb66fce1390e621c2e3120de9e08a2b9205cd062de6db2155081b9011d01f9011901800a8301e24194095e7baea6a6c7c4c2dfeb977efac326af552d878080f8b6f859940000000000000000000000000000000000000000f842a00000000000000000000000000000000000000000000000000000000000000000a00000000000000000000000000000000000000000000000000000000000000000f859940100000000000000000000000000000000000000f842a00000000000000000000000000000000000000000000000000000000000000000a0010000000000000000000000000000000000000000000000000000000000000001a0ee9ac1494c7d6e6c7a5346faa8e379034c7367ca11fb6ec2edadb88a4fe946b4a03f0e90aecf95bb66fce1390e621c2e3120de9e08a2b9205cd062de6db2155081c0",
  "json": {
    "Header": {
      "parentHash": "0x0000000000000000000000000000000000000000000000000000000000000000",
      "sha3Uncles": "0x1dcc4de8dec75d7aab85b567b6ccd41ad312451b948a7413f0a142fd40d49347",
      "miner": "0x0000000000000000000000000000000000000000",
      "stateRoot": "0x0000000000000000000000000000000000000000000000000000000000000000",
      "transactionsRoot": "0xad2f8ff374cb7815a26fe178c0c52f1199d70a8fea1da707e43e9c43df79fc08",
      "receiptsRoot": "0x1c3786f2e403bf36e2d28f5b4a64bc39a33de881cbdde61dec6ecc6e34772310",
      "logsBloom": "0x00000000000000000000000000000000000000000000000000000000000000000000000000000000000000000000000000000000000000000000000000000000000000000000000000000000000000000000000000000000000000000000000000000000000000000000000000000000000000000000000000000000000000000000000000000000000000000000000000000000000000000000000000000000000000000000000000000000000000000000000000000000000000000000000000000000000000000000000000000000000000000000000000000000000000000000000000000000000000000000000000000000000000000000000000000000",
      "difficulty": "0x20000",
      "number": "0x2",
      "gasLimit": "0x186a0",
      "gasUsed": "0x186a0",
      "timestamp": "0x1",
      "extraData": "0x0000000000000000000000000000000000000000000000000000000000000000",
      "mixHash": "0x0000000000000000000000000000000000000000000000000000000000000000",
      "nonce": "0x0000000000000000",
      "hash": "0xa995cf8945dbf156032479b25e26d6b4e9495d09f853e75e567d5b27585d871a"
    },
    "Txs": [
      {
        "type": "0x1",
        "chainId": "0x1",
        "nonce": "0x0",
        "gasPrice": "0xa",
        "gas": "0x1e241",
        "to": "0x095e7baea6a6c7c4c2dfeb977efac326af552d87",
        "value": "0x0",
        "input": "0x",
        "accessList": [
          {
            "address": "0x0000000000000000000000000000000000000000",
            "storageKeys": [
              "0x0000000000000000000000000000000000000000000000000000000000000000",
              "0x0000000000000000000000000000000000000000000000000000000000000000"
            ]
          },
          {
            "address": "0x0100000000000000000000000000000000000000",
            "storageKeys": [
              "0x0000000000000000000000000000000000000000000000000000000000000000",
              "0x0100000000000000000000000000000000000000000000000000000000000000"
            ]
          }
        ],
        "v": "0x1",
        "r": "0xee9ac1494c7d6e6c7a5346faa8e379034c7367ca11fb6ec2edadb88a4fe946b4",
        "s": "0x3f0e90aecf95bb66fce1390e621c2e3120de9e08a2b9205cd062de6db2155081",
        "hash": "0x90d257628795e342cf84e426c2cce030f5b459e47ac1cefb326c2482b2f4daad"
      },
      {
        "type": "0x1",
        "chainId": "0x1",
        "nonce": "0x0",
        "gasPrice": "0xa",
        "gas": "0x1e241",
        "to": "0x095e7baea6a6c7c4c2dfeb977efac326af552d87",
        "value": "0x0",
        "input": "0x",
        "accessList": [
          {
            "address": "0x0000000000000000000000000000000000000000",
            "storageKeys": [
              "0x0000000000000000000000000000000000000000000000000000000000000000",
              "0x0000000000000000000000000000000000000000000000000000000000000000"
            ]
          },
          {
            "address": "0x0100000000000000000000000000000000000000",
            "storageKeys": [
              "0x0000000000000000000000000000000000000000000000000000000000000000",
              "0x0100000000000000000000000000000000000000000000000000000000000000"
            ]
          }
        ],
        "v": "0x1",
        "r": "0xee9ac1494c7d6e6c7a5346faa8e379034c7367ca11fb6ec2edadb88a4fe946b4",
        "s": "0x3f0e90aecf95bb66fce1390e621c2e3120de9e08a2b9205cd062de6db2155081",
        "hash": "0x90d257628795e342cf84e426c2cce030f5b459e47ac1cefb326c2482b2f4daad"
      }
    ],
    "Uncles": null
  }
}