{
  "rlp": "f90d79f90216a00000000000000000000000000000000000000000000000000000000000000000a01dcc4de8dec75d7aab85b567b6ccd41ad312451b948a7413f0a142fd40d49347940000000000000000000000000000000000000000a00000000000000000000000000000000000000000000000000000000000000000a0dcd31dfa52a7a0418705b134f773bbfa8e53e53d7b7b06410a64b8abeed18550a03dfd7296de30d199831a3960fb9d0807a7a983908bdb68e44b24c59d5964c38ab90100000000000000000000000000000000000000000000000000000000000000000000000000000000000000000000000000000000000000000000000000000000000000000000000000000000000000000000000000000000000000000000000000000000000000000000000000000000000000000000000000000000000000000000000000000000000000000000000000000000000000000000000000000000000000000000000000000000000000000000000000000000000000000000000000000000000000000000000000000000000000000000000000000000000000000000000000000000000000000000000000000000000000000000000000000000008302000005830186a0830186a001a00000000000000000000000000000000000000000000000000000000000000000a00000000000000000000000000000000000000000000000000000000000000000880000000000000000f90b5cb9022f01f9022b01800a8301e24194095e7baea6a6c7c4c2dfeb977efac326af552d878080f901c7f859940000000000000000000000000000000000000000f842a00000000000000000000000000000000000000000000000000000000000000000a00000000000000000000000000000000000000000000000000000000000000000f859940100000000000000000000000000000000000000f842a00000000000000000000000000000000000000000000000000000000000000000a00100000000000000000000000000000000000000000000000000000000000000f859940200000000000000000000000000000000000000f842a00000000000000000000000000000000000000000000000000000000000000000a00200000000000000000000000000000000000000000000000000000000000000f859940300000000000000000000000000000000000000f842a00000000000000000000000000000000000000000000000000000000000000000a00300000000000000000000000000000000000000000000000000000000000000f859940400000000000000000000000000000000000000f842a00000000000000000000000000000000000000000000000000000000000000000a0040000000000000000000000000000000000000000000000000000000000000080a01c81ab84f2f825306b6b1a9859d08ba2fb78ab060e18be9760c28ae22acf705aa058fa5673d68f084e439202c6291b536b7255ddf3ffe165350bc774762e50032ab9022f01f9022b01800a8301e24194095e7baea6a6c7c4c2dfeb977efac326af552d878080f901c7f859940000000000000000000000000000000000000000f842a00000000000000000000000000000000000000000000000000000000000000000a00000000000000000000000000000000000000000000000000000000000000000f859940100000000000000000000000000000000000000f842a00000000000000000000000000000000000000000000000000000000000000000a00100000000000000000000000000000000000000000000000000000000000000f859940200000000000000000000000000000000000000f842a00000000000000000000000000000000000000000000000000000000000000000a00200000000000000000000000000000000000000000000000000000000000000f859940300000000000000000000000000000000000000f842a00000000000000000000000000000000000000000000000000000000000000000a00300000000000000000000000000000000000000000000000000000000000000f859940400000000000000000000000000000000000000f842a00000000000000000000000000000000000000000000000000000000000000000a0040000000000000000000000000000000000000000000000000000000000000080a01c81ab84f2f825306b6b1a9859d08ba2fb78ab060e18be9760c28ae22acf705aa058fa5673d68f084e439202c6291b536b7255ddf3ffe165350bc774762e50032ab9022f01f9022b01800a8301e24194095e7baea6a6c7c4c2dfeb977efac326af552d878080f901c7f859940000000000000000000000000000000000000000f842a00000000000000000000000000000000000000000000000000000000000000000a00000000000000000000000000000000000000000000000000000000000000000f859940100000000000000000000000000000000000000f842a00000000000000000000000000000000000000000000000000000000000000000a00100000000000000000000000000000000000000000000000000000000000000f859940200000000000000000000000000000000000000f842a00000000000000000000000000000000000000000000000000000000000000000a00200000000000000000000000000000000000000000000000000000000000000f859940300000000000000000000000000000000000000f842a00000000000000000000000000000000000000000000000000000000000000000a00300000000000000000000000000000000000000000000000000000000000000f859940400000000000000000000000000000000000000f842a00000000000000000000000000000000000000000000000000000000000000000a0040000000000000000000000000000000000000000000000000000000000000080a01c81ab84f2f825306b6b1a9859d08ba2fb78ab060e18be9760c28ae22acf705aa058fa5673d68f084e439202c6291b536b7255ddf3ffe165350bc774762e50032ab9022f01f9022b01800a8301e24194095e7baea6a6c7c4c2dfeb977efac326af552d878080f901c7f859940000000000000000000000000000000000000000f842a00000000000000000000000000000000000000000000000000000000000000000a00000000000000000000000000000000000000000000000000000000000000000f859940100000000000000000000000000000000000000f842a00000000000000000000000000000000000000000000000000000000000000000a00100000000000000000000000000000000000000000000000000000000000000f859940200000000000000000000000000000000000000f842a00000000000000000000000000000000000000000000000000000000000000000a00200000000000000000000000000000000000000000000000000000000000000f859940300000000000000000000000000000000000000f842a00000000000000000000000000000000000000000000000000000000000000000a00300000000000000000000000000000000000000000000000000000000000000f859940400000000000000000000000000000000000000f842a00000000000000000000000000000000000000000000000000000000000000000a0040000000000000000000000000000000000000000000000000000000000000080a01c81ab84f2f825306b6b1a9859d08ba2fb78ab060e18be9760c28ae22acf705aa058fa5673d68f084e439202c6291b536b7255ddf3ffe165350bc774762e50032ab9022f01f9022b01800a8301e24194095e7baea6a6c7c4c2dfeb977efac326af552d878080f901c7f859940000000000000000000000000000000000000000f842a00000000000000000000000000000000000000000000000000000000000000000a00000000000000000000000000000000000000000000000000000000000000000f859940100000000000000000000000000000000000000f842a00000000000000000000000000000000000000000000000000000000000000000a00100000000000000000000000000000000000000000000000000000000000000f859940200000000000000000000000000000000000000f842a00000000000000000000000000000000000000000000000000000000000000000a00200000000000000000000000000000000000000000000000000000000000000f859940300000000000000000000000000000000000000f842a00000000000000000000000000000000000000000000000000000000000000000a00300000000000000000000000000000000000000000000000000000000000000f859940400000000000000000000000000000000000000f842a00000000000000000000000000000000000000000000000000000000000000000a0040000000000000000000000000000000000000000000000000000000000000080a01c81ab84f2f825306b6b1a9859d08ba2fb78ab060e18be9760c28ae22acf705aa058fa5673d68f084e439202c6291b536b7255ddf3ffe165350bc774762e50032af860800a8301e24194095e7baea6a6c7c4c2dfeb977efac326af552d87808025a036b1f62214438c796ed92a0f1fb9f8c098695cb1cde01455f9b751e3d89d2a2aa03f7280305b49dbecb3fec3468a4301a90ffbc613ee5e8f3a82a52324a63e8ee9c0",
  "json": {
    "header": {
      "parentHash": "0x0000000000000000000000000000000000000000000000000000000000000000",
      "sha3Uncles": "0x1dcc4de8dec75d7aab85b567b6ccd41ad312451b948a7413f0a142fd40d49347",
      "miner": "0x0000000000000000000000000000000000000000",
      "stateRoot": "0x0000000000000000000000000000000000000000000000000000000000000000",
      "transactionsRoot": "0xdcd31dfa52a7a0418705b134f773bbfa8e53e53d7b7b06410a64b8abeed18550",
      "receiptsRoot": "0x3dfd7296de30d199831a3960fb9d0807a7a983908bdb68e44b24c59d5964c38a",
      "logsBloom": "0x00000000000000000000000000000000000000000000000000000000000000000000000000000000000000000000000000000000000000000000000000000000000000000000000000000000000000000000000000000000000000000000000000000000000000000000000000000000000000000000000000000000000000000000000000000000000000000000000000000000000000000000000000000000000000000000000000000000000000000000000000000000000000000000000000000000000000000000000000000000000000000000000000000000000000000000000000000000000000000000000000000000000000000000000000000000",
      "difficulty": "0x20000",
      "number": "0x5",
      "gasLimit": "0x186a0",
      "gasUsed": "0x186a0",
      "timestamp": "0x1",
      "extraData": "0x0000000000000000000000000000000000000000000000000000000000000000",
      "mixHash": "0x0000000000000000000000000000000000000000000000000000000000000000",
      "nonce": "0x0000000000000000",
      "hash": "0xc701181e85e1ff0fb0966bd59e7595ae721d026c6862fa2b116a033d816b7b4c"
    },
    "transactions": [
      {
        "type": "0x1",
        "chainId": "0x1",
        "nonce": "0x0",
        "gasPrice": "0xa",
        "gas": "0x1e241",
        "to": "0x095e7baea6a6c7c4c2dfeb977efac326af552d87",
        "value": "0x0",
        "input": "0x",
        "accessList": [
          {
            "address": "0x0000000000000000000000000000000000000000",
            "storageKeys": [
              "0x0000000000000000000000000000000000000000000000000000000000000000",
              "0x0000000000000000000000000000000000000000000000000000000000000000"
            ]
          },
          {
            "address": "0x0100000000000000000000000000000000000000",
            "storageKeys": [
              "0x0000000000000000000000000000000000000000000000000000000000000000",
              "0x0100000000000000000000000000000000000000000000000000000000000000"
            ]
          },
          {
            "address": "0x0200000000000000000000000000000000000000",
            "storageKeys": [
              "0x0000000000000000000000000000000000000000000000000000000000000000",
              "0x0200000000000000000000000000000000000000000000000000000000000000"
            ]
          },
          {
            "address": "0x0300000000000000000000000000000000000000",
            "storageKeys": [
              "0x0000000000000000000000000000000000000000000000000000000000000000",
              "0x0300000000000000000000000000000000000000000000000000000000000000"
            ]
          },
          {
            "address": "0x0400000000000000000000000000000000000000",
            "storageKeys": [
              "0x0000000000000000000000000000000000000000000000000000000000000000",
              "0x0400000000000000000000000000000000000000000000000000000000000000"
            ]
          }
        ],
        "v": "0x0",
        "r": "0x1c81ab84f2f825306b6b1a9859d08ba2fb78ab060e18be9760c28ae22acf705a",
        "s": "0x58fa5673d68f084e439202c6291b536b7255ddf3ffe165350bc774762e50032a",
        "hash": "0xbfeac06f72ed53aca6e4406a5bb24acde4095fa6d4b23b0ed6edae49346ab6d4"
      },
      {
        "type": "0x1",
        "chainId": "0x1",
        "nonce": "0x0",
        "gasPrice": "0xa",
        "gas": "0x1e241",
        "to": "0x095e7baea6a6c7c4c2dfeb977efac326af552d87",
        "value": "0x0",
        "input": "0x",
        "accessList": [
          {
            "address": "0x0000000000000000000000000000000000000000",
            "storageKeys": [
              "0x0000000000000000000000000000000000000000000000000000000000000000",
              "0x0000000000000000000000000000000000000000000000000000000000000000"
            ]
          },
          {
            "address": "0x0100000000000000000000000000000000000000",
            "storageKeys": [
              "0x0000000000000000000000000000000000000000000000000000000000000000",
              "0x0100000000000000000000000000000000000000000000000000000000000000"
            ]
          },
          {
            "address": "0x0200000000000000000000000000000000000000",
            "storageKeys": [
              "0x0000000000000000000000000000000000000000000000000000000000000000",
              "0x0200000000000000000000000000000000000000000000000000000000000000"
            ]
          },
          {
            "address": "0x0300000000000000000000000000000000000000",
            "storageKeys": [
              "0x0000000000000000000000000000000000000000000000000000000000000000",
              "0x0300000000000000000000000000000000000000000000000000000000000000"
            ]
          },
          {
            "address": "0x0400000000000000000000000000000000000000",
            "storageKeys": [
              "0x0000000000000000000000000000000000000000000000000000000000000000",
              "0x0400000000000000000000000000000000000000000000000000000000000000"
            ]
          }
        ],
        "v": "0x0",
        "r": "0x1c81ab84f2f825306b6b1a9859d08ba2fb78ab060e18be9760c28ae22acf705a",
        "s": "0x58fa5673d68f084e439202c6291b536b7255ddf3ffe165350bc774762e50032a",
        "hash": "0xbfeac06f72ed53aca6e4406a5bb24acde4095fa6d4b23b0ed6edae49346ab6d4"
      },
      {
        "type": "0x1",
        "chainId": "0x1",
        "nonce": "0x0",
        "gasPrice": "0xa",
        "gas": "0x1e241",
        "to": "0x095e7baea6a6c7c4c2dfeb977efac326af552d87",
        "value": "0x0",
        "input": "0x",
        "accessList": [
          {
            "address": "0x0000000000000000000000000000000000000000",
            "storageKeys": [
              "0x0000000000000000000000000000000000000000000000000000000000000000",
              "0x0000000000000000000000000000000000000000000000000000000000000000"
            ]
          },
          {
            "address": "0x0100000000000000000000000000000000000000",
            "storageKeys": [
              "0x0000000000000000000000000000000000000000000000000000000000000000",
              "0x0100000000000000000000000000000000000000000000000000000000000000"
            ]
          },
          {
            "address": "0x0200000000000000000000000000000000000000",
            "storageKeys": [
              "0x0000000000000000000000000000000000000000000000000000000000000000",
              "0x0200000000000000000000000000000000000000000000000000000000000000"
            ]
          },
          {
            "address": "0x0300000000000000000000000000000000000000",
            "storageKeys": [
              "0x0000000000000000000000000000000000000000000000000000000000000000",
              "0x0300000000000000000000000000000000000000000000000000000000000000"
            ]
          },
          {
            "address": "0x0400000000000000000000000000000000000000",
            "storageKeys": [
              "0x0000000000000000000000000000000000000000000000000000000000000000",
              "0x0400000000000000000000000000000000000000000000000000000000000000"
            ]
          }
        ],
        "v": "0x0",
        "r": "0x1c81ab84f2f825306b6b1a9859d08ba2fb78ab060e18be9760c28ae22acf705a",
        "s": "0x58fa5673d68f084e439202c6291b536b7255ddf3ffe165350bc774762e50032a",
        "hash": "0xbfeac06f72ed53aca6e4406a5bb24acde4095fa6d4b23b0ed6edae49346ab6d4"
      },
      {
        "type": "0x1",
        "chainId": "0x1",
        "nonce": "0x0",
        "gasPrice": "0xa",
        "gas": "0x1e241",
        "to": "0x095e7baea6a6c7c4c2dfeb977efac326af552d87",
        "value": "0x0",
        "input": "0x",
        "accessList": [
          {
            "address": "0x0000000000000000000000000000000000000000",
            "storageKeys": [
              "0x0000000000000000000000000000000000000000000000000000000000000000",
              "0x0000000000000000000000000000000000000000000000000000000000000000"
            ]
          },
          {
            "address": "0x0100000000000000000000000000000000000000",
            "storageKeys": [
              "0x0000000000000000000000000000000000000000000000000000000000000000",
              "0x0100000000000000000000000000000000000000000000000000000000000000"
            ]
          },
          {
            "address": "0x0200000000000000000000000000000000000000",
            "storageKeys": [
              "0x0000000000000000000000000000000000000000000000000000000000000000",
              "0x0200000000000000000000000000000000000000000000000000000000000000"
            ]
          },
          {
            "address": "0x0300000000000000000000000000000000000000",
            "storageKeys": [
              "0x0000000000000000000000000000000000000000000000000000000000000000",
              "0x0300000000000000000000000000000000000000000000000000000000000000"
            ]
          },
          {
            "address": "0x0400000000000000000000000000000000000000",
            "storageKeys": [
              "0x0000000000000000000000000000000000000000000000000000000000000000",
              "0x0400000000000000000000000000000000000000000000000000000000000000"
            ]
          }
        ],
        "v": "0x0",
        "r": "0x1c81ab84f2f825306b6b1a9859d08ba2fb78ab060e18be9760c28ae22acf705a",
        "s": "0x58fa5673d68f084e439202c6291b536b7255ddf3ffe165350bc774762e50032a",
        "hash": "0xbfeac06f72ed53aca6e4406a5bb24acde4095fa6d4b23b0ed6edae49346ab6d4"
      },
      {
        "type": "0x1",
        "chainId": "0x1",
        "nonce": "0x0",
        "gasPrice": "0xa",
        "gas": "0x1e241",
        "to": "0x095e7baea6a6c7c4c2dfeb977efac326af552d87",
        "value": "0x0",
        "input": "0x",
        "accessList": [
          {
            "address": "0x0000000000000000000000000000000000000000",
            "storageKeys": [
              "0x0000000000000000000000000000000000000000000000000000000000000000",
              "0x0000000000000000000000000000000000000000000000000000000000000000"
            ]
          },
          {
            "address": "0x0100000000000000000000000000000000000000",
            "storageKeys": [
              "0x0000000000000000000000000000000000000000000000000000000000000000",
              "0x0100000000000000000000000000000000000000000000000000000000000000"
            ]
          },
          {
            "address": "0x0200000000000000000000000000000000000000",
            "storageKeys": [
              "0x0000000000000000000000000000000000000000000000000000000000000000",
              "0x0200000000000000000000000000000000000000000000000000000000000000"
            ]
          },
          {
            "address": "0x0300000000000000000000000000000000000000",
            "storageKeys": [
              "0x0000000000000000000000000000000000000000000000000000000000000000",
              "0x0300000000000000000000000000000000000000000000000000000000000000"
            ]
          },
          {
            "address": "0x0400000000000000000000000000000000000000",
            "storageKeys": [
              "0x0000000000000000000000000000000000000000000000000000000000000000",
              "0x0400000000000000000000000000000000000000000000000000000000000000"
            ]
          }
        ],
        "v": "0x0",
        "r": "0x1c81ab84f2f825306b6b1a9859d08ba2fb78ab060e18be9760c28ae22acf705a",
        "s": "0x58fa5673d68f084e439202c6291b536b7255ddf3ffe165350bc774762e50032a",
        "hash": "0xbfeac06f72ed53aca6e4406a5bb24acde4095fa6d4b23b0ed6edae49346ab6d4"
      },
      {
        "type": "0x0",
        "chainId": null,
        "nonce": "0x0",
        "gasPrice": "0xa",
        "gas": "0x1e241",
        "to": "0x095e7baea6a6c7c4c2dfeb977efac326af552d87",
        "value": "0x0",
        "input": "0x",
        "accessList": null,
        "v": "0x25",
        "r": "0x36b1f62214438c796ed92a0f1fb9f8c098695cb1cde01455f9b751e3d89d2a2a",
        "s": "0x3f7280305b49dbecb3fec3468a4301a90ffbc613ee5e8f3a82a52324a63e8ee9",
        "hash": "0x1082ed4f9c6c6218f29888e724640cb00119668db89c550f053056d755ea96eb"
      }
    ],
    "uncles": null,
    "receipts": [
      {
        "type": 1,
        "root": "0x0000000000000000000000000000000000000000000000000000000000000000",
        "status": "0x1",
        "cumulativeGasUsed": "0x1e241",
        "logsBloom": "0x00000000000000000000000000000000000000000000000000000000000000000000000000000000000000000000000000000000000000000000000000000000000000000000000000000000000000000000000000000000000000000000000000000000000000000000000000000000000000000000000000000000000000000000000000000000000000000000000000000000000000000000000000000000000000000000000000000000000000000000000000000000000000000000000000000000000000000000000000000000000000000000000000000000000000000000000000000000000000000000000000000000000000000000000000000000",
        "logs": [],
        "transactionHash": "0xbfeac06f72ed53aca6e4406a5bb24acde4095fa6d4b23b0ed6edae49346ab6d4",
        "contractAddress": "0x0000000000000000000000000000000000000000",
        "gasUsed": "0x1e241",
        "blockHash": "0x0000000000000000000000000000000000000000000000000000000000000000",
        "transactionIndex": "0x0"
      },
      {
        "type": 1,
        "root": "0x0000000000000000000000000000000000000000000000000000000000000000",
        "status": "0x1",
        "cumulativeGasUsed": "0x1e241",
        "logsBloom": "0x00000000000000000000000000000000000000000000000000000000000000000000000000000000000000000000000000000000000000000000000000000000000000000000000000000000000000000000000000000000000000000000000000000000000000000000000000000000000000000000000000000000000000000000000000000000000000000000000000000000000000000000000000000000000000000000000000000000000000000000000000000000000000000000000000000000000000000000000000000000000000000000000000000000000000000000000000000000000000000000000000000000000000000000000000000000",
        "logs": [],
        "transactionHash": "0xbfeac06f72ed53aca6e4406a5bb24acde4095fa6d4b23b0ed6edae49346ab6d4",
        "contractAddress": "0x0000000000000000000000000000000000000000",
        "gasUsed": "0x1e241",
        "blockHash": "0x0000000000000000000000000000000000000000000000000000000000000000",
        "transactionIndex": "0x1"
      },
      {
        "type": 1,
        "root": "0x0000000000000000000000000000000000000000000000000000000000000000",
        "status": "0x1",
        "cumulativeGasUsed": "0x1e241",
        "logsBloom": "0x00000000000000000000000000000000000000000000000000000000000000000000000000000000000000000000000000000000000000000000000000000000000000000000000000000000000000000000000000000000000000000000000000000000000000000000000000000000000000000000000000000000000000000000000000000000000000000000000000000000000000000000000000000000000000000000000000000000000000000000000000000000000000000000000000000000000000000000000000000000000000000000000000000000000000000000000000000000000000000000000000000000000000000000000000000000",
        "logs": [],
        "transactionHash": "0xbfeac06f72ed53aca6e4406a5bb24acde4095fa6d4b23b0ed6edae49346ab6d4",
        "contractAddress": "0x0000000000000000000000000000000000000000",
        "gasUsed": "0x1e241",
        "blockHash": "0x0000000000000000000000000000000000000000000000000000000000000000",
        "transactionIndex": "0x2"
      },
      {
        "type": 1,
        "root": "0x0000000000000000000000000000000000000000000000000000000000000000",
        "status": "0x1",
        "cumulativeGasUsed": "0x1e241",
        "logsBloom": "0x00000000000000000000000000000000000000000000000000000000000000000000000000000000000000000000000000000000000000000000000000000000000000000000000000000000000000000000000000000000000000000000000000000000000000000000000000000000000000000000000000000000000000000000000000000000000000000000000000000000000000000000000000000000000000000000000000000000000000000000000000000000000000000000000000000000000000000000000000000000000000000000000000000000000000000000000000000000000000000000000000000000000000000000000000000000",
        "logs": [],
        "transactionHash": "0xbfeac06f72ed53aca6e4406a5bb24acde4095fa6d4b23b0ed6edae49346ab6d4",
        "contractAddress": "0x0000000000000000000000000000000000000000",
        "gasUsed": "0x1e241",
        "blockHash": "0x0000000000000000000000000000000000000000000000000000000000000000",
        "transactionIndex": "0x3"
      },
      {
        "type": 1,
        "root": "0x0000000000000000000000000000000000000000000000000000000000000000",
        "status": "0x1",
        "cumulativeGasUsed": "0x1e241",
        "logsBloom": "0x00000000000000000000000000000000000000000000000000000000000000000000000000000000000000000000000000000000000000000000000000000000000000000000000000000000000000000000000000000000000000000000000000000000000000000000000000000000000000000000000000000000000000000000000000000000000000000000000000000000000000000000000000000000000000000000000000000000000000000000000000000000000000000000000000000000000000000000000000000000000000000000000000000000000000000000000000000000000000000000000000000000000000000000000000000000",
        "logs": [],
        "transactionHash": "0xbfeac06f72ed53aca6e4406a5bb24acde4095fa6d4b23b0ed6edae49346ab6d4",
        "contractAddress": "0x0000000000000000000000000000000000000000",
        "gasUsed": "0x1e241",
        "blockHash": "0x0000000000000000000000000000000000000000000000000000000000000000",
        "transactionIndex": "0x4"
      },
      {
        "root": "0x0000000000000000000000000000000000000000000000000000000000000000",
        "status": "0x1",
        "cumulativeGasUsed": "0x1e241",
        "logsBloom": "0x00000000000000000000000000000000000000000000000000000000000000000000000000000000000000000000000000000000000000000000000000000000000000000000000000000000000000000000000000000000000000000000000000000000000000000000000000000000000000000000000000000000000000000000000000000000000000000000000000000000000000000000000000000000000000000000000000000000000000000000000000000000000000000000000000000000000000000000000000000000000000000000000000000000000000000000000000000000000000000000000000000000000000000000000000000000",
        "logs": [],
        "transactionHash": "0x1082ed4f9c6c6218f29888e724640cb00119668db89c550f053056d755ea96eb",
        "contractAddress": "0x0000000000000000000000000000000000000000",
        "gasUsed": "0x1e241",
        "blockHash": "0x0000000000000000000000000000000000000000000000000000000000000000",
        "transactionIndex": "0x5"
      }
    ]
  }
}