{
  "rlp": "f909dbf90216a00000000000000000000000000000000000000000000000000000000000000000a01dcc4de8dec75d7aab85b567b6ccd41ad312451b948a7413f0a142fd40d49347940000000000000000000000000000000000000000a00000000000000000000000000000000000000000000000000000000000000000a0d64be7f6b90fd3f3700fbd9cfe1b22250792817c2942f70aa746b6a1daf5ccdca07d6f654024d26ec9fff2d6f2733e9e1c4c3449fd83ef1e0ee8ff0c2886c57adeb90100000000000000000000000000000000000000000000000000000000000000000000000000000000000000000000000000000000000000000000000000000000000000000000000000000000000000000000000000000000000000000000000000000000000000000000000000000000000000000000000000000000000000000000000000000000000000000000000000000000000000000000000000000000000000000000000000000000000000000000000000000000000000000000000000000000000000000000000000000000000000000000000000000000000000000000000000000000000000000000000000000000000000000000000000000000008302000004830186a0830186a001a00000000000000000000000000000000000000000000000000000000000000000a00000000000000000000000000000000000000000000000000000000000000000880000000000000000f907beb901d401f901d001800a8301e24194095e7baea6a6c7c4c2dfeb977efac326af552d878080f9016cf859940000000000000000000000000000000000000000f842a00000000000000000000000000000000000000000000000000000000000000000a00000000000000000000000000000000000000000000000000000000000000000f859940100000000000000000000000000000000000000f842a00000000000000000000000000000000000000000000000000000000000000000a00100000000000000000000000000000000000000000000000000000000000000f859940200000000000000000000000000000000000000f842a00000000000000000000000000000000000000000000000000000000000000000a00200000000000000000000000000000000000000000000000000000000000000f859940300000000000000000000000000000000000000f842a00000000000000000000000000000000000000000000000000000000000000000a0030000000000000000000000000000000000000000000000000000000000000080a07640265bcbe8f17a6d7ceaa1a21f99a8c87a9551127fcc159ee1311028834699a065c1ca1a911f220162e8bdefe22c56bfb4b1a6346b3b02d54d0509efac774119b901d401f901d001800a8301e24194095e7baea6a6c7c4c2dfeb977efac326af552d878080f9016cf859940000000000000000000000000000000000000000f842a00000000000000000000000000000000000000000000000000000000000000000a00000000000000000000000000000000000000000000000000000000000000000f859940100000000000000000000000000000000000000f842a00000000000000000000000000000000000000000000000000000000000000000a00100000000000000000000000000000000000000000000000000000000000000f859940200000000000000000000000000000000000000f842a00000000000000000000000000000000000000000000000000000000000000000a00200000000000000000000000000000000000000000000000000000000000000f859940300000000000000000000000000000000000000f842a00000000000000000000000000000000000000000000000000000000000000000a0030000000000000000000000000000000000000000000000000000000000000080a07640265bcbe8f17a6d7ceaa1a21f99a8c87a9551127fcc159ee1311028834699a065c1ca1a911f220162e8bdefe22c56bfb4b1a6346b3b02d54d0509efac774119b901d401f901d001800a8301e24194095e7baea6a6c7c4c2dfeb977efac326af552d878080f9016cf859940000000000000000000000000000000000000000f842a00000000000000000000000000000000000000000000000000000000000000000a00000000000000000000000000000000000000000000000000000000000000000f859940100000000000000000000000000000000000000f842a00000000000000000000000000000000000000000000000000000000000000000a00100000000000000000000000000000000000000000000000000000000000000f859940200000000000000000000000000000000000000f842a00000000000000000000000000000000000000000000000000000000000000000a00200000000000000000000000000000000000000000000000000000000000000f859940300000000000000000000000000000000000000f842a00000000000000000000000000000000000000000000000000000000000000000a0030000000000000000000000000000000000000000000000000000000000000080a07640265bcbe8f17a6d7ceaa1a21f99a8c87a9551127fcc159ee1311028834699a065c1ca1a911f220162e8bdefe22c56bfb4b1a6346b3b02d54d0509efac774119b901d401f901d001800a8301e24194095e7baea6a6c7c4c2dfeb977efac326af552d878080f9016cf859940000000000000000000000000000000000000000f842a00000000000000000000000000000000000000000000000000000000000000000a00000000000000000000000000000000000000000000000000000000000000000f859940100000000000000000000000000000000000000f842a00000000000000000000000000000000000000000000000000000000000000000a00100000000000000000000000000000000000000000000000000000000000000f859940200000000000000000000000000000000000000f842a00000000000000000000000000000000000000000000000000000000000000000a00200000000000000000000000000000000000000000000000000000000000000f859940300000000000000000000000000000000000000f842a00000000000000000000000000000000000000000000000000000000000000000a0030000000000000000000000000000000000000000000000000000000000000080a07640265bcbe8f17a6d7ceaa1a21f99a8c87a9551127fcc159ee1311028834699a065c1ca1a911f220162e8bdefe22c56bfb4b1a6346b3b02d54d0509efac774119f860800a8301e24194095e7baea6a6c7c4c2dfeb977efac326af552d87808025a036b1f62214438c796ed92a0f1fb9f8c098695cb1cde01455f9b751e3d89d2a2aa03f7280305b49dbecb3fec3468a4301a90ffbc613ee5e8f3a82a52324a63e8ee9c0",
  "json": {
    "header": {
      "parentHash": "0x0000000000000000000000000000000000000000000000000000000000000000",
      "sha3Uncles": "0x1dcc4de8dec75d7aab85b567b6ccd41ad312451b948a7413f0a142fd40d49347",
      "miner": "0x0000000000000000000000000000000000000000",
      "stateRoot": "0x0000000000000000000000000000000000000000000000000000000000000000",
      "transactionsRoot": "0xd64be7f6b90fd3f3700fbd9cfe1b22250792817c2942f70aa746b6a1daf5ccdc",
      "receiptsRoot": "0x7d6f654024d26ec9fff2d6f2733e9e1c4c3449fd83ef1e0ee8ff0c2886c57ade",
      "logsBloom": "0x00000000000000000000000000000000000000000000000000000000000000000000000000000000000000000000000000000000000000000000000000000000000000000000000000000000000000000000000000000000000000000000000000000000000000000000000000000000000000000000000000000000000000000000000000000000000000000000000000000000000000000000000000000000000000000000000000000000000000000000000000000000000000000000000000000000000000000000000000000000000000000000000000000000000000000000000000000000000000000000000000000000000000000000000000000000",
      "difficulty": "0x20000",
      "number": "0x4",
      "gasLimit": "0x186a0",
      "gasUsed": "0x186a0",
      "timestamp": "0x1",
      "extraData": "0x0000000000000000000000000000000000000000000000000000000000000000",
      "mixHash": "0x0000000000000000000000000000000000000000000000000000000000000000",
      "nonce": "0x0000000000000000",
      "hash": "0x6c68e7f97246595f2fd5b525fb747122b8d29ff25b99db285bbce5e5bb4df615"
    },
    "transactions": [
      {
        "type": "0x1",
        "chainId": "0x1",
        "nonce": "0x0",
        "gasPrice": "0xa",
        "gas": "0x1e241",
        "to": "0x095e7baea6a6c7c4c2dfeb977efac326af552d87",
        "value": "0x0",
        "input": "0x",
        "accessList": [
          {
            "address": "0x0000000000000000000000000000000000000000",
            "storageKeys": [
              "0x0000000000000000000000000000000000000000000000000000000000000000",
              "0x0000000000000000000000000000000000000000000000000000000000000000"
            ]
          },
          {
            "address": "0x0100000000000000000000000000000000000000",
            "storageKeys": [
              "0x0000000000000000000000000000000000000000000000000000000000000000",
              "0x0100000000000000000000000000000000000000000000000000000000000000"
            ]
          },
          {
            "address": "0x0200000000000000000000000000000000000000",
            "storageKeys": [
              "0x0000000000000000000000000000000000000000000000000000000000000000",
              "0x0200000000000000000000000000000000000000000000000000000000000000"
            ]
          },
          {
            "address": "0x0300000000000000000000000000000000000000",
            "storageKeys": [
              "0x0000000000000000000000000000000000000000000000000000000000000000",
              "0x0300000000000000000000000000000000000000000000000000000000000000"
            ]
          }
        ],
        "v": "0x0",
        "r": "0x7640265bcbe8f17a6d7ceaa1a21f99a8c87a9551127fcc159ee1311028834699",
        "s": "0x65c1ca1a911f220162e8bdefe22c56bfb4b1a6346b3b02d54d0509efac774119",
        "hash": "0xd839c887230abb764430040a93d32c716440120fb52418aa370523f6f9c02440"
      },
      {
        "type": "0x1",
        "chainId": "0x1",
        "nonce": "0x0",
        "gasPrice": "0xa",
        "gas": "0x1e241",
        "to": "0x095e7baea6a6c7c4c2dfeb977efac326af552d87",
        "value": "0x0",
        "input": "0x",
        "accessList": [
          {
            "address": "0x0000000000000000000000000000000000000000",
            "storageKeys": [
              "0x0000000000000000000000000000000000000000000000000000000000000000",
              "0x0000000000000000000000000000000000000000000000000000000000000000"
            ]
          },
          {
            "address": "0x0100000000000000000000000000000000000000",
            "storageKeys": [
              "0x0000000000000000000000000000000000000000000000000000000000000000",
              "0x0100000000000000000000000000000000000000000000000000000000000000"
            ]
          },
          {
            "address": "0x0200000000000000000000000000000000000000",
            "storageKeys": [
              "0x0000000000000000000000000000000000000000000000000000000000000000",
              "0x0200000000000000000000000000000000000000000000000000000000000000"
            ]
          },
          {
            "address": "0x0300000000000000000000000000000000000000",
            "storageKeys": [
              "0x0000000000000000000000000000000000000000000000000000000000000000",
              "0x0300000000000000000000000000000000000000000000000000000000000000"
            ]
          }
        ],
        "v": "0x0",
        "r": "0x7640265bcbe8f17a6d7ceaa1a21f99a8c87a9551127fcc159ee1311028834699",
        "s": "0x65c1ca1a911f220162e8bdefe22c56bfb4b1a6346b3b02d54d0509efac774119",
        "hash": "0xd839c887230abb764430040a93d32c716440120fb52418aa370523f6f9c02440"
      },
      {
        "type": "0x1",
        "chainId": "0x1",
        "nonce": "0x0",
        "gasPrice": "0xa",
        "gas": "0x1e241",
        "to": "0x095e7baea6a6c7c4c2dfeb977efac326af552d87",
        "value": "0x0",
        "input": "0x",
        "accessList": [
          {
            "address": "0x0000000000000000000000000000000000000000",
            "storageKeys": [
              "0x0000000000000000000000000000000000000000000000000000000000000000",
              "0x0000000000000000000000000000000000000000000000000000000000000000"
            ]
          },
          {
            "address": "0x0100000000000000000000000000000000000000",
            "storageKeys": [
              "0x0000000000000000000000000000000000000000000000000000000000000000",
              "0x0100000000000000000000000000000000000000000000000000000000000000"
            ]
          },
          {
            "address": "0x0200000000000000000000000000000000000000",
            "storageKeys": [
              "0x0000000000000000000000000000000000000000000000000000000000000000",
              "0x0200000000000000000000000000000000000000000000000000000000000000"
            ]
          },
          {
            "address": "0x0300000000000000000000000000000000000000",
            "storageKeys": [
              "0x0000000000000000000000000000000000000000000000000000000000000000",
              "0x0300000000000000000000000000000000000000000000000000000000000000"
            ]
          }
        ],
        "v": "0x0",
        "r": "0x7640265bcbe8f17a6d7ceaa1a21f99a8c87a9551127fcc159ee1311028834699",
        "s": "0x65c1ca1a911f220162e8bdefe22c56bfb4b1a6346b3b02d54d0509efac774119",
        "hash": "0xd839c887230abb764430040a93d32c716440120fb52418aa370523f6f9c02440"
      },
      {
        "type": "0x1",
        "chainId": "0x1",
        "nonce": "0x0",
        "gasPrice": "0xa",
        "gas": "0x1e241",
        "to": "0x095e7baea6a6c7c4c2dfeb977efac326af552d87",
        "value": "0x0",
        "input": "0x",
        "accessList": [
          {
            "address": "0x0000000000000000000000000000000000000000",
            "storageKeys": [
              "0x0000000000000000000000000000000000000000000000000000000000000000",
              "0x0000000000000000000000000000000000000000000000000000000000000000"
            ]
          },
          {
            "address": "0x0100000000000000000000000000000000000000",
            "storageKeys": [
              "0x0000000000000000000000000000000000000000000000000000000000000000",
              "0x0100000000000000000000000000000000000000000000000000000000000000"
            ]
          },
          {
            "address": "0x0200000000000000000000000000000000000000",
            "storageKeys": [
              "0x0000000000000000000000000000000000000000000000000000000000000000",
              "0x0200000000000000000000000000000000000000000000000000000000000000"
            ]
          },
          {
            "address": "0x0300000000000000000000000000000000000000",
            "storageKeys": [
              "0x0000000000000000000000000000000000000000000000000000000000000000",
              "0x0300000000000000000000000000000000000000000000000000000000000000"
            ]
          }
        ],
        "v": "0x0",
        "r": "0x7640265bcbe8f17a6d7ceaa1a21f99a8c87a9551127fcc159ee1311028834699",
        "s": "0x65c1ca1a911f220162e8bdefe22c56bfb4b1a6346b3b02d54d0509efac774119",
        "hash": "0xd839c887230abb764430040a93d32c716440120fb52418aa370523f6f9c02440"
      },
      {
        "type": "0x0",
        "chainId": null,
        "nonce": "0x0",
        "gasPrice": "0xa",
        "gas": "0x1e241",
        "to": "0x095e7baea6a6c7c4c2dfeb977efac326af552d87",
        "value": "0x0",
        "input": "0x",
        "accessList": null,
        "v": "0x25",
        "r": "0x36b1f62214438c796ed92a0f1fb9f8c098695cb1cde01455f9b751e3d89d2a2a",
        "s": "0x3f7280305b49dbecb3fec3468a4301a90ffbc613ee5e8f3a82a52324a63e8ee9",
        "hash": "0x1082ed4f9c6c6218f29888e724640cb00119668db89c550f053056d755ea96eb"
      }
    ],
    "uncles": null,
    "receipts": [
      {
        "type": 1,
        "root": "0x0000000000000000000000000000000000000000000000000000000000000000",
        "status": "0x1",
        "cumulativeGasUsed": "0x1e241",
        "logsBloom": "0x00000000000000000000000000000000000000000000000000000000000000000000000000000000000000000000000000000000000000000000000000000000000000000000000000000000000000000000000000000000000000000000000000000000000000000000000000000000000000000000000000000000000000000000000000000000000000000000000000000000000000000000000000000000000000000000000000000000000000000000000000000000000000000000000000000000000000000000000000000000000000000000000000000000000000000000000000000000000000000000000000000000000000000000000000000000",
        "logs": [],
        "transactionHash": "0xd839c887230abb764430040a93d32c716440120fb52418aa370523f6f9c02440",
        "contractAddress": "0x0000000000000000000000000000000000000000",
        "gasUsed": "0x1e241",
        "blockHash": "0x0000000000000000000000000000000000000000000000000000000000000000",
        "transactionIndex": "0x0"
      },
      {
        "type": 1,
        "root": "0x0000000000000000000000000000000000000000000000000000000000000000",
        "status": "0x1",
        "cumulativeGasUsed": "0x1e241",
        "logsBloom": "0x00000000000000000000000000000000000000000000000000000000000000000000000000000000000000000000000000000000000000000000000000000000000000000000000000000000000000000000000000000000000000000000000000000000000000000000000000000000000000000000000000000000000000000000000000000000000000000000000000000000000000000000000000000000000000000000000000000000000000000000000000000000000000000000000000000000000000000000000000000000000000000000000000000000000000000000000000000000000000000000000000000000000000000000000000000000",
        "logs": [],
        "transactionHash": "0xd839c887230abb764430040a93d32c716440120fb52418aa370523f6f9c02440",
        "contractAddress": "0x0000000000000000000000000000000000000000",
        "gasUsed": "0x1e241",
        "blockHash": "0x0000000000000000000000000000000000000000000000000000000000000000",
        "transactionIndex": "0x1"
      },
      {
        "type": 1,
        "root": "0x0000000000000000000000000000000000000000000000000000000000000000",
        "status": "0x1",
        "cumulativeGasUsed": "0x1e241",
        "logsBloom": "0x00000000000000000000000000000000000000000000000000000000000000000000000000000000000000000000000000000000000000000000000000000000000000000000000000000000000000000000000000000000000000000000000000000000000000000000000000000000000000000000000000000000000000000000000000000000000000000000000000000000000000000000000000000000000000000000000000000000000000000000000000000000000000000000000000000000000000000000000000000000000000000000000000000000000000000000000000000000000000000000000000000000000000000000000000000000",
        "logs": [],
        "transactionHash": "0xd839c887230abb764430040a93d32c716440120fb52418aa370523f6f9c02440",
        "contractAddress": "0x0000000000000000000000000000000000000000",
        "gasUsed": "0x1e241",
        "blockHash": "0x0000000000000000000000000000000000000000000000000000000000000000",
        "transactionIndex": "0x2"
      },
      {
        "type": 1,
        "root": "0x0000000000000000000000000000000000000000000000000000000000000000",
        "status": "0x1",
        "cumulativeGasUsed": "0x1e241",
        "logsBloom": "0x00000000000000000000000000000000000000000000000000000000000000000000000000000000000000000000000000000000000000000000000000000000000000000000000000000000000000000000000000000000000000000000000000000000000000000000000000000000000000000000000000000000000000000000000000000000000000000000000000000000000000000000000000000000000000000000000000000000000000000000000000000000000000000000000000000000000000000000000000000000000000000000000000000000000000000000000000000000000000000000000000000000000000000000000000000000",
        "logs": [],
        "transactionHash": "0xd839c887230abb764430040a93d32c716440120fb52418aa370523f6f9c02440",
        "contractAddress": "0x0000000000000000000000000000000000000000",
        "gasUsed": "0x1e241",
        "blockHash": "0x0000000000000000000000000000000000000000000000000000000000000000",
        "transactionIndex": "0x3"
      },
      {
        "root": "0x0000000000000000000000000000000000000000000000000000000000000000",
        "status": "0x1",
        "cumulativeGasUsed": "0x1e241",
        "logsBloom": "0x00000000000000000000000000000000000000000000000000000000000000000000000000000000000000000000000000000000000000000000000000000000000000000000000000000000000000000000000000000000000000000000000000000000000000000000000000000000000000000000000000000000000000000000000000000000000000000000000000000000000000000000000000000000000000000000000000000000000000000000000000000000000000000000000000000000000000000000000000000000000000000000000000000000000000000000000000000000000000000000000000000000000000000000000000000000",
        "logs": [],
        "transactionHash": "0x1082ed4f9c6c6218f29888e724640cb00119668db89c550f053056d755ea96eb",
        "contractAddress": "0x0000000000000000000000000000000000000000",
        "gasUsed": "0x1e241",
        "blockHash": "0x0000000000000000000000000000000000000000000000000000000000000000",
        "transactionIndex": "0x4"
      }
    ]
  }
}