{
  "rlp": "f9045df90216a00000000000000000000000000000000000000000000000000000000000000000a01dcc4de8dec75d7aab85b567b6ccd41ad312451b948a7413f0a142fd40d49347940000000000000000000000000000000000000000a00000000000000000000000000000000000000000000000000000000000000000a084d95cda256af5c2ef72c2ac9ec0324e0875d5d3222459c2b678dad73e7ca710a01c3786f2e403bf36e2d28f5b4a64bc39a33de881cbdde61dec6ecc6e34772310b90100000000000000000000000000000000000000000000000000000000000000000000000000000000000000000000000000000000000000000000000000000000000000000000000000000000000000000000000000000000000000000000000000000000000000000000000000000000000000000000000000000000000000000000000000000000000000000000000000000000000000000000000000000000000000000000000000000000000000000000000000000000000000000000000000000000000000000000000000000000000000000000000000000000000000000000000000000000000000000000000000000000000000000000000000000000008302000002830186a0830186a001a00000000000000000000000000000000000000000000000000000000000000000a00000000000000000000000000000000000000000000000000000000000000000880000000000000000f90240b9011d01f9011901800a8301e24194095e7baea6a6c7c4c2dfeb977efac326af552d878080f8b6f859940000000000000000000000000000000000000000f842a00000000000000000000000000000000000000000000000000000000000000000a00000000000000000000000000000000000000000000000000000000000000000f859940100000000000000000000000000000000000000f842a00000000000000000000000000000000000000000000000000000000000000000a0010000000000000000000000000000000000000000000000000000000000000080a0f99a810dd0d4b343c08628d79401c88698457312d268707b9d86570ee6baa742a002dc3d47ebbb569e21c0a5cff1330c286dab9997a9a22f3516942c70456a5bd2b9011d01f9011901800a8301e24194095e7baea6a6c7c4c2dfeb977efac326af552d878080f8b6f859940000000000000000000000000000000000000000f842a00000000000000000000000000000000000000000000000000000000000000000a00000000000000000000000000000000000000000000000000000000000000000f859940100000000000000000000000000000000000000f842a00000000000000000000000000000000000000000000000000000000000000000a0010000000000000000000000000000000000000000000000000000000000000080a0f99a810dd0d4b343c08628d79401c88698457312d268707b9d86570ee6baa742a002dc3d47ebbb569e21c0a5cff1330c286dab9997a9a22f3516942c70456a5bd2c0",
  "json": {
    "Header": {
      "parentHash": "0x0000000000000000000000000000000000000000000000000000000000000000",
      "sha3Uncles": "0x1dcc4de8dec75d7aab85b567b6ccd41ad312451b948a7413f0a142fd40d49347",
      "miner": "0x0000000000000000000000000000000000000000",
      "stateRoot": "0x0000000000000000000000000000000000000000000000000000000000000000",
      "transactionsRoot": "0x84d95cda256af5c2ef72c2ac9ec0324e0875d5d3222459c2b678dad73e7ca710",
      "receiptsRoot": "0x1c3786f2e403bf36e2d28f5b4a64bc39a33de881cbdde61dec6ecc6e34772310",
      "logsBloom": "0x00000000000000000000000000000000000000000000000000000000000000000000000000000000000000000000000000000000000000000000000000000000000000000000000000000000000000000000000000000000000000000000000000000000000000000000000000000000000000000000000000000000000000000000000000000000000000000000000000000000000000000000000000000000000000000000000000000000000000000000000000000000000000000000000000000000000000000000000000000000000000000000000000000000000000000000000000000000000000000000000000000000000000000000000000000000",
      "difficulty": "0x20000",
      "number": "0x2",
      "gasLimit": "0x186a0",
      "gasUsed": "0x186a0",
      "timestamp": "0x1",
      "extraData": "0x0000000000000000000000000000000000000000000000000000000000000000",
      "mixHash": "0x0000000000000000000000000000000000000000000000000000000000000000",
      "nonce": "0x0000000000000000",
      "hash": "0x773f4ce4510d9ae9bf89119e55aa2da645b268aca882170d418a168b195eb063"
    },
    "Txs": [
      {
        "type": "0x1",
        "chainId": "0x1",
        "nonce": "0x0",
        "gasPrice": "0xa",
        "gas": "0x1e241",
        "to": "0x095e7baea6a6c7c4c2dfeb977efac326af552d87",
        "value": "0x0",
        "input": "0x",
        "accessList": [
          {
            "address": "0x0000000000000000000000000000000000000000",
            "storageKeys": [
              "0x0000000000000000000000000000000000000000000000000000000000000000",
              "0x0000000000000000000000000000000000000000000000000000000000000000"
            ]
          },
          {
            "address": "0x0100000000000000000000000000000000000000",
            "storageKeys": [
              "0x0000000000000000000000000000000000000000000000000000000000000000",
              "0x0100000000000000000000000000000000000000000000000000000000000000"
            ]
          }
        ],
        "v": "0x0",
        "r": "0xf99a810dd0d4b343c08628d79401c88698457312d268707b9d86570ee6baa742",
        "s": "0x2dc3d47ebbb569e21c0a5cff1330c286dab9997a9a22f3516942c70456a5bd2",
        "hash": "0x3062953938f7ecde1a0a8ac921584c8d313f6fdd22b23258ad9e774a164d11aa"
      },
      {
        "type": "0x1",
        "chainId": "0x1",
        "nonce": "0x0",
        "gasPrice": "0xa",
        "gas": "0x1e241",
        "to": "0x095e7baea6a6c7c4c2dfeb977efac326af552d87",
        "value": "0x0",
        "input": "0x",
        "accessList": [
          {
            "address": "0x0000000000000000000000000000000000000000",
            "storageKeys": [
              "0x0000000000000000000000000000000000000000000000000000000000000000",
              "0x0000000000000000000000000000000000000000000000000000000000000000"
            ]
          },
          {
            "address": "0x0100000000000000000000000000000000000000",
            "storageKeys": [
              "0x0000000000000000000000000000000000000000000000000000000000000000",
              "0x0100000000000000000000000000000000000000000000000000000000000000"
            ]
          }
        ],
        "v": "0x0",
        "r": "0xf99a810dd0d4b343c08628d79401c88698457312d268707b9d86570ee6baa742",
        "s": "0x2dc3d47ebbb569e21c0a5cff1330c286dab9997a9a22f3516942c70456a5bd2",
        "hash": "0x3062953938f7ecde1a0a8ac921584c8d313f6fdd22b23258ad9e774a164d11aa"
      }
    ],
    "Uncles": null
  }
}