{
  "rlp": "f9027ef90216a00000000000000000000000000000000000000000000000000000000000000000a01dcc4de8dec75d7aab85b567b6ccd41ad312451b948a7413f0a142fd40d49347940000000000000000000000000000000000000000a00000000000000000000000000000000000000000000000000000000000000000a03b7a2608ef4f9cbf632d55c5fd702aebb0f466071a563901f572d5d890c01c56a047aa18b09c6baf3768802156b2aa811734a73a2d27ca48eb6446b06212297375b90100000000000000000000000000000000000000000000000000000000000000000000000000000000000000000000000000000000000000000000000000000000000000000000000000000000000000000000000000000000000000000000000000000000000000000000000000000000000000000000000000000000000000000000000000000000000000000000000000000000000000000000000000000000000000000000000000000000000000000000000000000000000000000000000000000000000000000000000000000000000000000000000000000000000000000000000000000000000000000000000000000000000000000000000000000000008302000080830186a0830186a001a00000000000000000000000000000000000000000000000000000000000000000a00000000000000000000000000000000000000000000000000000000000000000880000000000000000f862f860800a8301e24194095e7baea6a6c7c4c2dfeb977efac326af552d87808025a036b1f62214438c796ed92a0f1fb9f8c098695cb1cde01455f9b751e3d89d2a2aa03f7280305b49dbecb3fec3468a4301a90ffbc613ee5e8f3a82a52324a63e8ee9c0",
  "json": {
    "header": {
      "parentHash": "0x0000000000000000000000000000000000000000000000000000000000000000",
      "sha3Uncles": "0x1dcc4de8dec75d7aab85b567b6ccd41ad312451b948a7413f0a142fd40d49347",
      "miner": "0x0000000000000000000000000000000000000000",
      "stateRoot": "0x0000000000000000000000000000000000000000000000000000000000000000",
      "transactionsRoot": "0x3b7a2608ef4f9cbf632d55c5fd702aebb0f466071a563901f572d5d890c01c56",
      "receiptsRoot": "0x47aa18b09c6baf3768802156b2aa811734a73a2d27ca48eb6446b06212297375",
      "logsBloom": "0x00000000000000000000000000000000000000000000000000000000000000000000000000000000000000000000000000000000000000000000000000000000000000000000000000000000000000000000000000000000000000000000000000000000000000000000000000000000000000000000000000000000000000000000000000000000000000000000000000000000000000000000000000000000000000000000000000000000000000000000000000000000000000000000000000000000000000000000000000000000000000000000000000000000000000000000000000000000000000000000000000000000000000000000000000000000",
      "difficulty": "0x20000",
      "number": "0x0",
      "gasLimit": "0x186a0",
      "gasUsed": "0x186a0",
      "timestamp": "0x1",
      "extraData": "0x0000000000000000000000000000000000000000000000000000000000000000",
      "mixHash": "0x0000000000000000000000000000000000000000000000000000000000000000",
      "nonce": "0x0000000000000000",
      "hash": "0x2126b7608dc0fa0669730df03d248c146e75a64ba3c099f3c306ffbce119d8ca"
    },
    "transactions": [
      {
        "type": "0x0",
        "chainId": null,
        "nonce": "0x0",
        "gasPrice": "0xa",
        "gas": "0x1e241",
        "to": "0x095e7baea6a6c7c4c2dfeb977efac326af552d87",
        "value": "0x0",
        "input": "0x",
        "accessList": null,
        "v": "0x25",
        "r": "0x36b1f62214438c796ed92a0f1fb9f8c098695cb1cde01455f9b751e3d89d2a2a",
        "s": "0x3f7280305b49dbecb3fec3468a4301a90ffbc613ee5e8f3a82a52324a63e8ee9",
        "hash": "0x1082ed4f9c6c6218f29888e724640cb00119668db89c550f053056d755ea96eb"
      }
    ],
    "uncles": null,
    "receipts": [
      {
        "root": "0x0000000000000000000000000000000000000000000000000000000000000000",
        "status": "0x1",
        "cumulativeGasUsed": "0x1e241",
        "logsBloom": "0x00000000000000000000000000000000000000000000000000000000000000000000000000000000000000000000000000000000000000000000000000000000000000000000000000000000000000000000000000000000000000000000000000000000000000000000000000000000000000000000000000000000000000000000000000000000000000000000000000000000000000000000000000000000000000000000000000000000000000000000000000000000000000000000000000000000000000000000000000000000000000000000000000000000000000000000000000000000000000000000000000000000000000000000000000000000",
        "logs": [],
        "transactionHash": "0x1082ed4f9c6c6218f29888e724640cb00119668db89c550f053056d755ea96eb",
        "contractAddress": "0x0000000000000000000000000000000000000000",
        "gasUsed": "0x1e241",
        "blockHash": "0x0000000000000000000000000000000000000000000000000000000000000000",
        "transactionIndex": "0x0"
      }
    ]
  }
}