{
  "rlp": "f916d7f90216a00000000000000000000000000000000000000000000000000000000000000000a01dcc4de8dec75d7aab85b567b6ccd41ad312451b948a7413f0a142fd40d49347940000000000000000000000000000000000000000a00000000000000000000000000000000000000000000000000000000000000000a00fc6fa058aaeea56135ea1c7bbe0666d995b8b6784b2f031ffe5c9e379e09064a0e325bbd14efb86bcb43063c759a08c45efd29f277ed866fe0c764eed5a4cb4cfb90100000000000000000000000000000000000000000000000000000000000000000000000000000000000000000000000000000000000000000000000000000000000000000000000000000000000000000000000000000000000000000000000000000000000000000000000000000000000000000000000000000000000000000000000000000000000000000000000000000000000000000000000000000000000000000000000000000000000000000000000000000000000000000000000000000000000000000000000000000000000000000000000000000000000000000000000000000000000000000000000000000000000000000000000000000000008302000007830186a0830186a001a00000000000000000000000000000000000000000000000000000000000000000a00000000000000000000000000000000000000000000000000000000000000000880000000000000000f914bab902e501f902e101800a8301e24194095e7baea6a6c7c4c2dfeb977efac326af552d878080f9027df859940000000000000000000000000000000000000000f842a00000000000000000000000000000000000000000000000000000000000000000a00000000000000000000000000000000000000000000000000000000000000000f859940100000000000000000000000000000000000000f842a00000000000000000000000000000000000000000000000000000000000000000a00100000000000000000000000000000000000000000000000000000000000000f859940200000000000000000000000000000000000000f842a00000000000000000000000000000000000000000000000000000000000000000a00200000000000000000000000000000000000000000000000000000000000000f859940300000000000000000000000000000000000000f842a00000000000000000000000000000000000000000000000000000000000000000a00300000000000000000000000000000000000000000000000000000000000000f859940400000000000000000000000000000000000000f842a00000000000000000000000000000000000000000000000000000000000000000a00400000000000000000000000000000000000000000000000000000000000000f859940500000000000000000000000000000000000000f842a00000000000000000000000000000000000000000000000000000000000000000a00500000000000000000000000000000000000000000000000000000000000000f859940600000000000000000000000000000000000000f842a00000000000000000000000000000000000000000000000000000000000000000a0060000000000000000000000000000000000000000000000000000000000000001a08a9b3098d8de795e709d44828411be0521026428e87b2349afb89aa421e45f26a0247591e049fa6eaa5be07c45c01e86f4f6eca2809d7ac091e17e20dce154f71ab902e501f902e101800a8301e24194095e7baea6a6c7c4c2dfeb977efac326af552d878080f9027df859940000000000000000000000000000000000000000f842a00000000000000000000000000000000000000000000000000000000000000000a00000000000000000000000000000000000000000000000000000000000000000f859940100000000000000000000000000000000000000f842a00000000000000000000000000000000000000000000000000000000000000000a00100000000000000000000000000000000000000000000000000000000000000f859940200000000000000000000000000000000000000f842a00000000000000000000000000000000000000000000000000000000000000000a00200000000000000000000000000000000000000000000000000000000000000f859940300000000000000000000000000000000000000f842a00000000000000000000000000000000000000000000000000000000000000000a00300000000000000000000000000000000000000000000000000000000000000f859940400000000000000000000000000000000000000f842a00000000000000000000000000000000000000000000000000000000000000000a00400000000000000000000000000000000000000000000000000000000000000f859940500000000000000000000000000000000000000f842a00000000000000000000000000000000000000000000000000000000000000000a00500000000000000000000000000000000000000000000000000000000000000f859940600000000000000000000000000000000000000f842a00000000000000000000000000000000000000000000000000000000000000000a0060000000000000000000000000000000000000000000000000000000000000001a08a9b3098d8de795e709d44828411be0521026428e87b2349afb89aa421e45f26a0247591e049fa6eaa5be07c45c01e86f4f6eca2809d7ac091e17e20dce154f71ab902e501f902e101800a8301e24194095e7baea6a6c7c4c2dfeb977efac326af552d878080f9027df859940000000000000000000000000000000000000000f842a00000000000000000000000000000000000000000000000000000000000000000a00000000000000000000000000000000000000000000000000000000000000000f859940100000000000000000000000000000000000000f842a00000000000000000000000000000000000000000000000000000000000000000a00100000000000000000000000000000000000000000000000000000000000000f859940200000000000000000000000000000000000000f842a00000000000000000000000000000000000000000000000000000000000000000a00200000000000000000000000000000000000000000000000000000000000000f859940300000000000000000000000000000000000000f842a00000000000000000000000000000000000000000000000000000000000000000a00300000000000000000000000000000000000000000000000000000000000000f859940400000000000000000000000000000000000000f842a00000000000000000000000000000000000000000000000000000000000000000a00400000000000000000000000000000000000000000000000000000000000000f859940500000000000000000000000000000000000000f842a00000000000000000000000000000000000000000000000000000000000000000a00500000000000000000000000000000000000000000000000000000000000000f859940600000000000000000000000000000000000000f842a00000000000000000000000000000000000000000000000000000000000000000a0060000000000000000000000000000000000000000000000000000000000000001a08a9b3098d8de795e709d44828411be0521026428e87b2349afb89aa421e45f26a0247591e049fa6eaa5be07c45c01e86f4f6eca2809d7ac091e17e20dce154f71ab902e501f902e101800a8301e24194095e7baea6a6c7c4c2dfeb977efac326af552d878080f9027df859940000000000000000000000000000000000000000f842a00000000000000000000000000000000000000000000000000000000000000000a00000000000000000000000000000000000000000000000000000000000000000f859940100000000000000000000000000000000000000f842a00000000000000000000000000000000000000000000000000000000000000000a00100000000000000000000000000000000000000000000000000000000000000f859940200000000000000000000000000000000000000f842a00000000000000000000000000000000000000000000000000000000000000000a00200000000000000000000000000000000000000000000000000000000000000f859940300000000000000000000000000000000000000f842a00000000000000000000000000000000000000000000000000000000000000000a00300000000000000000000000000000000000000000000000000000000000000f859940400000000000000000000000000000000000000f842a00000000000000000000000000000000000000000000000000000000000000000a00400000000000000000000000000000000000000000000000000000000000000f859940500000000000000000000000000000000000000f842a00000000000000000000000000000000000000000000000000000000000000000a00500000000000000000000000000000000000000000000000000000000000000f859940600000000000000000000000000000000000000f842a00000000000000000000000000000000000000000000000000000000000000000a0060000000000000000000000000000000000000000000000000000000000000001a08a9b3098d8de795e709d44828411be0521026428e87b2349afb89aa421e45f26a0247591e049fa6eaa5be07c45c01e86f4f6eca2809d7ac091e17e20dce154f71ab902e501f902e101800a8301e24194095e7baea6a6c7c4c2dfeb977efac326af552d878080f9027df859940000000000000000000000000000000000000000f842a00000000000000000000000000000000000000000000000000000000000000000a00000000000000000000000000000000000000000000000000000000000000000f859940100000000000000000000000000000000000000f842a00000000000000000000000000000000000000000000000000000000000000000a00100000000000000000000000000000000000000000000000000000000000000f859940200000000000000000000000000000000000000f842a00000000000000000000000000000000000000000000000000000000000000000a00200000000000000000000000000000000000000000000000000000000000000f859940300000000000000000000000000000000000000f842a00000000000000000000000000000000000000000000000000000000000000000a00300000000000000000000000000000000000000000000000000000000000000f859940400000000000000000000000000000000000000f842a00000000000000000000000000000000000000000000000000000000000000000a00400000000000000000000000000000000000000000000000000000000000000f859940500000000000000000000000000000000000000f842a00000000000000000000000000000000000000000000000000000000000000000a00500000000000000000000000000000000000000000000000000000000000000f859940600000000000000000000000000000000000000f842a00000000000000000000000000000000000000000000000000000000000000000a0060000000000000000000000000000000000000000000000000000000000000001a08a9b3098d8de795e709d44828411be0521026428e87b2349afb89aa421e45f26a0247591e049fa6eaa5be07c45c01e86f4f6eca2809d7ac091e17e20dce154f71ab902e501f902e101800a8301e24194095e7baea6a6c7c4c2dfeb977efac326af552d878080f9027df859940000000000000000000000000000000000000000f842a00000000000000000000000000000000000000000000000000000000000000000a00000000000000000000000000000000000000000000000000000000000000000f859940100000000000000000000000000000000000000f842a00000000000000000000000000000000000000000000000000000000000000000a00100000000000000000000000000000000000000000000000000000000000000f859940200000000000000000000000000000000000000f842a00000000000000000000000000000000000000000000000000000000000000000a00200000000000000000000000000000000000000000000000000000000000000f859940300000000000000000000000000000000000000f842a00000000000000000000000000000000000000000000000000000000000000000a00300000000000000000000000000000000000000000000000000000000000000f859940400000000000000000000000000000000000000f842a00000000000000000000000000000000000000000000000000000000000000000a00400000000000000000000000000000000000000000000000000000000000000f859940500000000000000000000000000000000000000f842a00000000000000000000000000000000000000000000000000000000000000000a00500000000000000000000000000000000000000000000000000000000000000f859940600000000000000000000000000000000000000f842a00000000000000000000000000000000000000000000000000000000000000000a0060000000000000000000000000000000000000000000000000000000000000001a08a9b3098d8de795e709d44828411be0521026428e87b2349afb89aa421e45f26a0247591e049fa6eaa5be07c45c01e86f4f6eca2809d7ac091e17e20dce154f71ab902e501f902e101800a8301e24194095e7baea6a6c7c4c2dfeb977efac326af552d878080f9027df859940000000000000000000000000000000000000000f842a00000000000000000000000000000000000000000000000000000000000000000a00000000000000000000000000000000000000000000000000000000000000000f859940100000000000000000000000000000000000000f842a00000000000000000000000000000000000000000000000000000000000000000a00100000000000000000000000000000000000000000000000000000000000000f859940200000000000000000000000000000000000000f842a00000000000000000000000000000000000000000000000000000000000000000a00200000000000000000000000000000000000000000000000000000000000000f859940300000000000000000000000000000000000000f842a00000000000000000000000000000000000000000000000000000000000000000a00300000000000000000000000000000000000000000000000000000000000000f859940400000000000000000000000000000000000000f842a00000000000000000000000000000000000000000000000000000000000000000a00400000000000000000000000000000000000000000000000000000000000000f859940500000000000000000000000000000000000000f842a00000000000000000000000000000000000000000000000000000000000000000a00500000000000000000000000000000000000000000000000000000000000000f859940600000000000000000000000000000000000000f842a00000000000000000000000000000000000000000000000000000000000000000a0060000000000000000000000000000000000000000000000000000000000000001a08a9b3098d8de795e709d44828411be0521026428e87b2349afb89aa421e45f26a0247591e049fa6eaa5be07c45c01e86f4f6eca2809d7ac091e17e20dce154f71af860800a8301e24194095e7baea6a6c7c4c2dfeb977efac326af552d87808025a036b1f62214438c796ed92a0f1fb9f8c098695cb1cde01455f9b751e3d89d2a2aa03f7280305b49dbecb3fec3468a4301a90ffbc613ee5e8f3a82a52324a63e8ee9c0",
  "json": {
    "header": {
      "parentHash": "0x0000000000000000000000000000000000000000000000000000000000000000",
      "sha3Uncles": "0x1dcc4de8dec75d7aab85b567b6ccd41ad312451b948a7413f0a142fd40d49347",
      "miner": "0x0000000000000000000000000000000000000000",
      "stateRoot": "0x0000000000000000000000000000000000000000000000000000000000000000",
      "transactionsRoot": "0x0fc6fa058aaeea56135ea1c7bbe0666d995b8b6784b2f031ffe5c9e379e09064",
      "receiptsRoot": "0xe325bbd14efb86bcb43063c759a08c45efd29f277ed866fe0c764eed5a4cb4cf",
      "logsBloom": "0x00000000000000000000000000000000000000000000000000000000000000000000000000000000000000000000000000000000000000000000000000000000000000000000000000000000000000000000000000000000000000000000000000000000000000000000000000000000000000000000000000000000000000000000000000000000000000000000000000000000000000000000000000000000000000000000000000000000000000000000000000000000000000000000000000000000000000000000000000000000000000000000000000000000000000000000000000000000000000000000000000000000000000000000000000000000",
      "difficulty": "0x20000",
      "number": "0x7",
      "gasLimit": "0x186a0",
      "gasUsed": "0x186a0",
      "timestamp": "0x1",
      "extraData": "0x0000000000000000000000000000000000000000000000000000000000000000",
      "mixHash": "0x0000000000000000000000000000000000000000000000000000000000000000",
      "nonce": "0x0000000000000000",
      "hash": "0x1246dfccfd44212a7b7c39676bfdfbde5c7b03e21143fc7cc63e84c57fc1436e"
    },
    "transactions": [
      {
        "type": "0x1",
        "chainId": "0x1",
        "nonce": "0x0",
        "gasPrice": "0xa",
        "gas": "0x1e241",
        "to": "0x095e7baea6a6c7c4c2dfeb977efac326af552d87",
        "value": "0x0",
        "input": "0x",
        "accessList": [
          {
            "address": "0x0000000000000000000000000000000000000000",
            "storageKeys": [
              "0x0000000000000000000000000000000000000000000000000000000000000000",
              "0x0000000000000000000000000000000000000000000000000000000000000000"
            ]
          },
          {
            "address": "0x0100000000000000000000000000000000000000",
            "storageKeys": [
              "0x0000000000000000000000000000000000000000000000000000000000000000",
              "0x0100000000000000000000000000000000000000000000000000000000000000"
            ]
          },
          {
            "address": "0x0200000000000000000000000000000000000000",
            "storageKeys": [
              "0x0000000000000000000000000000000000000000000000000000000000000000",
              "0x0200000000000000000000000000000000000000000000000000000000000000"
            ]
          },
          {
            "address": "0x0300000000000000000000000000000000000000",
            "storageKeys": [
              "0x0000000000000000000000000000000000000000000000000000000000000000",
              "0x0300000000000000000000000000000000000000000000000000000000000000"
            ]
          },
          {
            "address": "0x0400000000000000000000000000000000000000",
            "storageKeys": [
              "0x0000000000000000000000000000000000000000000000000000000000000000",
              "0x0400000000000000000000000000000000000000000000000000000000000000"
            ]
          },
          {
            "address": "0x0500000000000000000000000000000000000000",
            "storageKeys": [
              "0x0000000000000000000000000000000000000000000000000000000000000000",
              "0x0500000000000000000000000000000000000000000000000000000000000000"
            ]
          },
          {
            "address": "0x0600000000000000000000000000000000000000",
            "storageKeys": [
              "0x0000000000000000000000000000000000000000000000000000000000000000",
              "0x0600000000000000000000000000000000000000000000000000000000000000"
            ]
          }
        ],
        "v": "0x1",
        "r": "0x8a9b3098d8de795e709d44828411be0521026428e87b2349afb89aa421e45f26",
        "s": "0x247591e049fa6eaa5be07c45c01e86f4f6eca2809d7ac091e17e20dce154f71a",
        "hash": "0xa59e0560ead1f6005e1672eaf46f602e8ea18c0ecf7417c342a4b4a740f41673"
      },
      {
        "type": "0x1",
        "chainId": "0x1",
        "nonce": "0x0",
        "gasPrice": "0xa",
        "gas": "0x1e241",
        "to": "0x095e7baea6a6c7c4c2dfeb977efac326af552d87",
        "value": "0x0",
        "input": "0x",
        "accessList": [
          {
            "address": "0x0000000000000000000000000000000000000000",
            "storageKeys": [
              "0x0000000000000000000000000000000000000000000000000000000000000000",
              "0x0000000000000000000000000000000000000000000000000000000000000000"
            ]
          },
          {
            "address": "0x0100000000000000000000000000000000000000",
            "storageKeys": [
              "0x0000000000000000000000000000000000000000000000000000000000000000",
              "0x0100000000000000000000000000000000000000000000000000000000000000"
            ]
          },
          {
            "address": "0x0200000000000000000000000000000000000000",
            "storageKeys": [
              "0x0000000000000000000000000000000000000000000000000000000000000000",
              "0x0200000000000000000000000000000000000000000000000000000000000000"
            ]
          },
          {
            "address": "0x0300000000000000000000000000000000000000",
            "storageKeys": [
              "0x0000000000000000000000000000000000000000000000000000000000000000",
              "0x0300000000000000000000000000000000000000000000000000000000000000"
            ]
          },
          {
            "address": "0x0400000000000000000000000000000000000000",
            "storageKeys": [
              "0x0000000000000000000000000000000000000000000000000000000000000000",
              "0x0400000000000000000000000000000000000000000000000000000000000000"
            ]
          },
          {
            "address": "0x0500000000000000000000000000000000000000",
            "storageKeys": [
              "0x0000000000000000000000000000000000000000000000000000000000000000",
              "0x0500000000000000000000000000000000000000000000000000000000000000"
            ]
          },
          {
            "address": "0x0600000000000000000000000000000000000000",
            "storageKeys": [
              "0x0000000000000000000000000000000000000000000000000000000000000000",
              "0x0600000000000000000000000000000000000000000000000000000000000000"
            ]
          }
        ],
        "v": "0x1",
        "r": "0x8a9b3098d8de795e709d44828411be0521026428e87b2349afb89aa421e45f26",
        "s": "0x247591e049fa6eaa5be07c45c01e86f4f6eca2809d7ac091e17e20dce154f71a",
        "hash": "0xa59e0560ead1f6005e1672eaf46f602e8ea18c0ecf7417c342a4b4a740f41673"
      },
      {
        "type": "0x1",
        "chainId": "0x1",
        "nonce": "0x0",
        "gasPrice": "0xa",
        "gas": "0x1e241",
        "to": "0x095e7baea6a6c7c4c2dfeb977efac326af552d87",
        "value": "0x0",
        "input": "0x",
        "accessList": [
          {
            "address": "0x0000000000000000000000000000000000000000",
            "storageKeys": [
              "0x0000000000000000000000000000000000000000000000000000000000000000",
              "0x0000000000000000000000000000000000000000000000000000000000000000"
            ]
          },
          {
            "address": "0x0100000000000000000000000000000000000000",
            "storageKeys": [
              "0x0000000000000000000000000000000000000000000000000000000000000000",
              "0x0100000000000000000000000000000000000000000000000000000000000000"
            ]
          },
          {
            "address": "0x0200000000000000000000000000000000000000",
            "storageKeys": [
              "0x0000000000000000000000000000000000000000000000000000000000000000",
              "0x0200000000000000000000000000000000000000000000000000000000000000"
            ]
          },
          {
            "address": "0x0300000000000000000000000000000000000000",
            "storageKeys": [
              "0x0000000000000000000000000000000000000000000000000000000000000000",
              "0x0300000000000000000000000000000000000000000000000000000000000000"
            ]
          },
          {
            "address": "0x0400000000000000000000000000000000000000",
            "storageKeys": [
              "0x0000000000000000000000000000000000000000000000000000000000000000",
              "0x0400000000000000000000000000000000000000000000000000000000000000"
            ]
          },
          {
            "address": "0x0500000000000000000000000000000000000000",
            "storageKeys": [
              "0x0000000000000000000000000000000000000000000000000000000000000000",
              "0x0500000000000000000000000000000000000000000000000000000000000000"
            ]
          },
          {
            "address": "0x0600000000000000000000000000000000000000",
            "storageKeys": [
              "0x0000000000000000000000000000000000000000000000000000000000000000",
              "0x0600000000000000000000000000000000000000000000000000000000000000"
            ]
          }
        ],
        "v": "0x1",
        "r": "0x8a9b3098d8de795e709d44828411be0521026428e87b2349afb89aa421e45f26",
        "s": "0x247591e049fa6eaa5be07c45c01e86f4f6eca2809d7ac091e17e20dce154f71a",
        "hash": "0xa59e0560ead1f6005e1672eaf46f602e8ea18c0ecf7417c342a4b4a740f41673"
      },
      {
        "type": "0x1",
        "chainId": "0x1",
        "nonce": "0x0",
        "gasPrice": "0xa",
        "gas": "0x1e241",
        "to": "0x095e7baea6a6c7c4c2dfeb977efac326af552d87",
        "value": "0x0",
        "input": "0x",
        "accessList": [
          {
            "address": "0x0000000000000000000000000000000000000000",
            "storageKeys": [
              "0x0000000000000000000000000000000000000000000000000000000000000000",
              "0x0000000000000000000000000000000000000000000000000000000000000000"
            ]
          },
          {
            "address": "0x0100000000000000000000000000000000000000",
            "storageKeys": [
              "0x0000000000000000000000000000000000000000000000000000000000000000",
              "0x0100000000000000000000000000000000000000000000000000000000000000"
            ]
          },
          {
            "address": "0x0200000000000000000000000000000000000000",
            "storageKeys": [
              "0x0000000000000000000000000000000000000000000000000000000000000000",
              "0x0200000000000000000000000000000000000000000000000000000000000000"
            ]
          },
          {
            "address": "0x0300000000000000000000000000000000000000",
            "storageKeys": [
              "0x0000000000000000000000000000000000000000000000000000000000000000",
              "0x0300000000000000000000000000000000000000000000000000000000000000"
            ]
          },
          {
            "address": "0x0400000000000000000000000000000000000000",
            "storageKeys": [
              "0x0000000000000000000000000000000000000000000000000000000000000000",
              "0x0400000000000000000000000000000000000000000000000000000000000000"
            ]
          },
          {
            "address": "0x0500000000000000000000000000000000000000",
            "storageKeys": [
              "0x0000000000000000000000000000000000000000000000000000000000000000",
              "0x0500000000000000000000000000000000000000000000000000000000000000"
            ]
          },
          {
            "address": "0x0600000000000000000000000000000000000000",
            "storageKeys": [
              "0x0000000000000000000000000000000000000000000000000000000000000000",
              "0x0600000000000000000000000000000000000000000000000000000000000000"
            ]
          }
        ],
        "v": "0x1",
        "r": "0x8a9b3098d8de795e709d44828411be0521026428e87b2349afb89aa421e45f26",
        "s": "0x247591e049fa6eaa5be07c45c01e86f4f6eca2809d7ac091e17e20dce154f71a",
        "hash": "0xa59e0560ead1f6005e1672eaf46f602e8ea18c0ecf7417c342a4b4a740f41673"
      },
      {
        "type": "0x1",
        "chainId": "0x1",
        "nonce": "0x0",
        "gasPrice": "0xa",
        "gas": "0x1e241",
        "to": "0x095e7baea6a6c7c4c2dfeb977efac326af552d87",
        "value": "0x0",
        "input": "0x",
        "accessList": [
          {
            "address": "0x0000000000000000000000000000000000000000",
            "storageKeys": [
              "0x0000000000000000000000000000000000000000000000000000000000000000",
              "0x0000000000000000000000000000000000000000000000000000000000000000"
            ]
          },
          {
            "address": "0x0100000000000000000000000000000000000000",
            "storageKeys": [
              "0x0000000000000000000000000000000000000000000000000000000000000000",
              "0x0100000000000000000000000000000000000000000000000000000000000000"
            ]
          },
          {
            "address": "0x0200000000000000000000000000000000000000",
            "storageKeys": [
              "0x0000000000000000000000000000000000000000000000000000000000000000",
              "0x0200000000000000000000000000000000000000000000000000000000000000"
            ]
          },
          {
            "address": "0x0300000000000000000000000000000000000000",
            "storageKeys": [
              "0x0000000000000000000000000000000000000000000000000000000000000000",
              "0x0300000000000000000000000000000000000000000000000000000000000000"
            ]
          },
          {
            "address": "0x0400000000000000000000000000000000000000",
            "storageKeys": [
              "0x0000000000000000000000000000000000000000000000000000000000000000",
              "0x0400000000000000000000000000000000000000000000000000000000000000"
            ]
          },
          {
            "address": "0x0500000000000000000000000000000000000000",
            "storageKeys": [
              "0x0000000000000000000000000000000000000000000000000000000000000000",
              "0x0500000000000000000000000000000000000000000000000000000000000000"
            ]
          },
          {
            "address": "0x0600000000000000000000000000000000000000",
            "storageKeys": [
              "0x0000000000000000000000000000000000000000000000000000000000000000",
              "0x0600000000000000000000000000000000000000000000000000000000000000"
            ]
          }
        ],
        "v": "0x1",
        "r": "0x8a9b3098d8de795e709d44828411be0521026428e87b2349afb89aa421e45f26",
        "s": "0x247591e049fa6eaa5be07c45c01e86f4f6eca2809d7ac091e17e20dce154f71a",
        "hash": "0xa59e0560ead1f6005e1672eaf46f602e8ea18c0ecf7417c342a4b4a740f41673"
      },
      {
        "type": "0x1",
        "chainId": "0x1",
        "nonce": "0x0",
        "gasPrice": "0xa",
        "gas": "0x1e241",
        "to": "0x095e7baea6a6c7c4c2dfeb977efac326af552d87",
        "value": "0x0",
        "input": "0x",
        "accessList": [
          {
            "address": "0x0000000000000000000000000000000000000000",
            "storageKeys": [
              "0x0000000000000000000000000000000000000000000000000000000000000000",
              "0x0000000000000000000000000000000000000000000000000000000000000000"
            ]
          },
          {
            "address": "0x0100000000000000000000000000000000000000",
            "storageKeys": [
              "0x0000000000000000000000000000000000000000000000000000000000000000",
              "0x0100000000000000000000000000000000000000000000000000000000000000"
            ]
          },
          {
            "address": "0x0200000000000000000000000000000000000000",
            "storageKeys": [
              "0x0000000000000000000000000000000000000000000000000000000000000000",
              "0x0200000000000000000000000000000000000000000000000000000000000000"
            ]
          },
          {
            "address": "0x0300000000000000000000000000000000000000",
            "storageKeys": [
              "0x0000000000000000000000000000000000000000000000000000000000000000",
              "0x0300000000000000000000000000000000000000000000000000000000000000"
            ]
          },
          {
            "address": "0x0400000000000000000000000000000000000000",
            "storageKeys": [
              "0x0000000000000000000000000000000000000000000000000000000000000000",
              "0x0400000000000000000000000000000000000000000000000000000000000000"
            ]
          },
          {
            "address": "0x0500000000000000000000000000000000000000",
            "storageKeys": [
              "0x0000000000000000000000000000000000000000000000000000000000000000",
              "0x0500000000000000000000000000000000000000000000000000000000000000"
            ]
          },
          {
            "address": "0x0600000000000000000000000000000000000000",
            "storageKeys": [
              "0x0000000000000000000000000000000000000000000000000000000000000000",
              "0x0600000000000000000000000000000000000000000000000000000000000000"
            ]
          }
        ],
        "v": "0x1",
        "r": "0x8a9b3098d8de795e709d44828411be0521026428e87b2349afb89aa421e45f26",
        "s": "0x247591e049fa6eaa5be07c45c01e86f4f6eca2809d7ac091e17e20dce154f71a",
        "hash": "0xa59e0560ead1f6005e1672eaf46f602e8ea18c0ecf7417c342a4b4a740f41673"
      },
      {
        "type": "0x1",
        "chainId": "0x1",
        "nonce": "0x0",
        "gasPrice": "0xa",
        "gas": "0x1e241",
        "to": "0x095e7baea6a6c7c4c2dfeb977efac326af552d87",
        "value": "0x0",
        "input": "0x",
        "accessList": [
          {
            "address": "0x0000000000000000000000000000000000000000",
            "storageKeys": [
              "0x0000000000000000000000000000000000000000000000000000000000000000",
              "0x0000000000000000000000000000000000000000000000000000000000000000"
            ]
          },
          {
            "address": "0x0100000000000000000000000000000000000000",
            "storageKeys": [
              "0x0000000000000000000000000000000000000000000000000000000000000000",
              "0x0100000000000000000000000000000000000000000000000000000000000000"
            ]
          },
          {
            "address": "0x0200000000000000000000000000000000000000",
            "storageKeys": [
              "0x0000000000000000000000000000000000000000000000000000000000000000",
              "0x0200000000000000000000000000000000000000000000000000000000000000"
            ]
          },
          {
            "address": "0x0300000000000000000000000000000000000000",
            "storageKeys": [
              "0x0000000000000000000000000000000000000000000000000000000000000000",
              "0x0300000000000000000000000000000000000000000000000000000000000000"
            ]
          },
          {
            "address": "0x0400000000000000000000000000000000000000",
            "storageKeys": [
              "0x0000000000000000000000000000000000000000000000000000000000000000",
              "0x0400000000000000000000000000000000000000000000000000000000000000"
            ]
          },
          {
            "address": "0x0500000000000000000000000000000000000000",
            "storageKeys": [
              "0x0000000000000000000000000000000000000000000000000000000000000000",
              "0x0500000000000000000000000000000000000000000000000000000000000000"
            ]
          },
          {
            "address": "0x0600000000000000000000000000000000000000",
            "storageKeys": [
              "0x0000000000000000000000000000000000000000000000000000000000000000",
              "0x0600000000000000000000000000000000000000000000000000000000000000"
            ]
          }
        ],
        "v": "0x1",
        "r": "0x8a9b3098d8de795e709d44828411be0521026428e87b2349afb89aa421e45f26",
        "s": "0x247591e049fa6eaa5be07c45c01e86f4f6eca2809d7ac091e17e20dce154f71a",
        "hash": "0xa59e0560ead1f6005e1672eaf46f602e8ea18c0ecf7417c342a4b4a740f41673"
      },
      {
        "type": "0x0",
        "chainId": null,
        "nonce": "0x0",
        "gasPrice": "0xa",
        "gas": "0x1e241",
        "to": "0x095e7baea6a6c7c4c2dfeb977efac326af552d87",
        "value": "0x0",
        "input": "0x",
        "accessList": null,
        "v": "0x25",
        "r": "0x36b1f62214438c796ed92a0f1fb9f8c098695cb1cde01455f9b751e3d89d2a2a",
        "s": "0x3f7280305b49dbecb3fec3468a4301a90ffbc613ee5e8f3a82a52324a63e8ee9",
        "hash": "0x1082ed4f9c6c6218f29888e724640cb00119668db89c550f053056d755ea96eb"
      }
    ],
    "uncles": null,
    "receipts": [
      {
        "type": 1,
        "root": "0x0000000000000000000000000000000000000000000000000000000000000000",
        "status": "0x1",
        "cumulativeGasUsed": "0x1e241",
        "logsBloom": "0x00000000000000000000000000000000000000000000000000000000000000000000000000000000000000000000000000000000000000000000000000000000000000000000000000000000000000000000000000000000000000000000000000000000000000000000000000000000000000000000000000000000000000000000000000000000000000000000000000000000000000000000000000000000000000000000000000000000000000000000000000000000000000000000000000000000000000000000000000000000000000000000000000000000000000000000000000000000000000000000000000000000000000000000000000000000",
        "logs": [],
        "transactionHash": "0xa59e0560ead1f6005e1672eaf46f602e8ea18c0ecf7417c342a4b4a740f41673",
        "contractAddress": "0x0000000000000000000000000000000000000000",
        "gasUsed": "0x1e241",
        "blockHash": "0x0000000000000000000000000000000000000000000000000000000000000000",
        "transactionIndex": "0x0"
      },
      {
        "type": 1,
        "root": "0x0000000000000000000000000000000000000000000000000000000000000000",
        "status": "0x1",
        "cumulativeGasUsed": "0x1e241",
        "logsBloom": "0x00000000000000000000000000000000000000000000000000000000000000000000000000000000000000000000000000000000000000000000000000000000000000000000000000000000000000000000000000000000000000000000000000000000000000000000000000000000000000000000000000000000000000000000000000000000000000000000000000000000000000000000000000000000000000000000000000000000000000000000000000000000000000000000000000000000000000000000000000000000000000000000000000000000000000000000000000000000000000000000000000000000000000000000000000000000",
        "logs": [],
        "transactionHash": "0xa59e0560ead1f6005e1672eaf46f602e8ea18c0ecf7417c342a4b4a740f41673",
        "contractAddress": "0x0000000000000000000000000000000000000000",
        "gasUsed": "0x1e241",
        "blockHash": "0x0000000000000000000000000000000000000000000000000000000000000000",
        "transactionIndex": "0x1"
      },
      {
        "type": 1,
        "root": "0x0000000000000000000000000000000000000000000000000000000000000000",
        "status": "0x1",
        "cumulativeGasUsed": "0x1e241",
        "logsBloom": "0x00000000000000000000000000000000000000000000000000000000000000000000000000000000000000000000000000000000000000000000000000000000000000000000000000000000000000000000000000000000000000000000000000000000000000000000000000000000000000000000000000000000000000000000000000000000000000000000000000000000000000000000000000000000000000000000000000000000000000000000000000000000000000000000000000000000000000000000000000000000000000000000000000000000000000000000000000000000000000000000000000000000000000000000000000000000",
        "logs": [],
        "transactionHash": "0xa59e0560ead1f6005e1672eaf46f602e8ea18c0ecf7417c342a4b4a740f41673",
        "contractAddress": "0x0000000000000000000000000000000000000000",
        "gasUsed": "0x1e241",
        "blockHash": "0x0000000000000000000000000000000000000000000000000000000000000000",
        "transactionIndex": "0x2"
      },
      {
        "type": 1,
        "root": "0x0000000000000000000000000000000000000000000000000000000000000000",
        "status": "0x1",
        "cumulativeGasUsed": "0x1e241",
        "logsBloom": "0x00000000000000000000000000000000000000000000000000000000000000000000000000000000000000000000000000000000000000000000000000000000000000000000000000000000000000000000000000000000000000000000000000000000000000000000000000000000000000000000000000000000000000000000000000000000000000000000000000000000000000000000000000000000000000000000000000000000000000000000000000000000000000000000000000000000000000000000000000000000000000000000000000000000000000000000000000000000000000000000000000000000000000000000000000000000",
        "logs": [],
        "transactionHash": "0xa59e0560ead1f6005e1672eaf46f602e8ea18c0ecf7417c342a4b4a740f41673",
        "contractAddress": "0x0000000000000000000000000000000000000000",
        "gasUsed": "0x1e241",
        "blockHash": "0x0000000000000000000000000000000000000000000000000000000000000000",
        "transactionIndex": "0x3"
      },
      {
        "type": 1,
        "root": "0x0000000000000000000000000000000000000000000000000000000000000000",
        "status": "0x1",
        "cumulativeGasUsed": "0x1e241",
        "logsBloom": "0x00000000000000000000000000000000000000000000000000000000000000000000000000000000000000000000000000000000000000000000000000000000000000000000000000000000000000000000000000000000000000000000000000000000000000000000000000000000000000000000000000000000000000000000000000000000000000000000000000000000000000000000000000000000000000000000000000000000000000000000000000000000000000000000000000000000000000000000000000000000000000000000000000000000000000000000000000000000000000000000000000000000000000000000000000000000",
        "logs": [],
        "transactionHash": "0xa59e0560ead1f6005e1672eaf46f602e8ea18c0ecf7417c342a4b4a740f41673",
        "contractAddress": "0x0000000000000000000000000000000000000000",
        "gasUsed": "0x1e241",
        "blockHash": "0x0000000000000000000000000000000000000000000000000000000000000000",
        "transactionIndex": "0x4"
      },
      {
        "type": 1,
        "root": "0x0000000000000000000000000000000000000000000000000000000000000000",
        "status": "0x1",
        "cumulativeGasUsed": "0x1e241",
        "logsBloom": "0x00000000000000000000000000000000000000000000000000000000000000000000000000000000000000000000000000000000000000000000000000000000000000000000000000000000000000000000000000000000000000000000000000000000000000000000000000000000000000000000000000000000000000000000000000000000000000000000000000000000000000000000000000000000000000000000000000000000000000000000000000000000000000000000000000000000000000000000000000000000000000000000000000000000000000000000000000000000000000000000000000000000000000000000000000000000",
        "logs": [],
        "transactionHash": "0xa59e0560ead1f6005e1672eaf46f602e8ea18c0ecf7417c342a4b4a740f41673",
        "contractAddress": "0x0000000000000000000000000000000000000000",
        "gasUsed": "0x1e241",
        "blockHash": "0x0000000000000000000000000000000000000000000000000000000000000000",
        "transactionIndex": "0x5"
      },
      {
        "type": 1,
        "root": "0x0000000000000000000000000000000000000000000000000000000000000000",
        "status": "0x1",
        "cumulativeGasUsed": "0x1e241",
        "logsBloom": "0x00000000000000000000000000000000000000000000000000000000000000000000000000000000000000000000000000000000000000000000000000000000000000000000000000000000000000000000000000000000000000000000000000000000000000000000000000000000000000000000000000000000000000000000000000000000000000000000000000000000000000000000000000000000000000000000000000000000000000000000000000000000000000000000000000000000000000000000000000000000000000000000000000000000000000000000000000000000000000000000000000000000000000000000000000000000",
        "logs": [],
        "transactionHash": "0xa59e0560ead1f6005e1672eaf46f602e8ea18c0ecf7417c342a4b4a740f41673",
        "contractAddress": "0x0000000000000000000000000000000000000000",
        "gasUsed": "0x1e241",
        "blockHash": "0x0000000000000000000000000000000000000000000000000000000000000000",
        "transactionIndex": "0x6"
      },
      {
        "root": "0x0000000000000000000000000000000000000000000000000000000000000000",
        "status": "0x1",
        "cumulativeGasUsed": "0x1e241",
        "logsBloom": "0x00000000000000000000000000000000000000000000000000000000000000000000000000000000000000000000000000000000000000000000000000000000000000000000000000000000000000000000000000000000000000000000000000000000000000000000000000000000000000000000000000000000000000000000000000000000000000000000000000000000000000000000000000000000000000000000000000000000000000000000000000000000000000000000000000000000000000000000000000000000000000000000000000000000000000000000000000000000000000000000000000000000000000000000000000000000",
        "logs": [],
        "transactionHash": "0x1082ed4f9c6c6218f29888e724640cb00119668db89c550f053056d755ea96eb",
        "contractAddress": "0x0000000000000000000000000000000000000000",
        "gasUsed": "0x1e241",
        "blockHash": "0x0000000000000000000000000000000000000000000000000000000000000000",
        "transactionIndex": "0x7"
      }
    ]
  }
}