{
  "rlp": "f902dff90216a00000000000000000000000000000000000000000000000000000000000000000a01dcc4de8dec75d7aab85b567b6ccd41ad312451b948a7413f0a142fd40d49347940000000000000000000000000000000000000000a00000000000000000000000000000000000000000000000000000000000000000a0621712a382dcf7e57a94e72c56ef80dd2bbecd151bd71d371523d43cb72e9725a047aa18b09c6baf3768802156b2aa811734a73a2d27ca48eb6446b06212297375b90100000000000000000000000000000000000000000000000000000000000000000000000000000000000000000000000000000000000000000000000000000000000000000000000000000000000000000000000000000000000000000000000000000000000000000000000000000000000000000000000000000000000000000000000000000000000000000000000000000000000000000000000000000000000000000000000000000000000000000000000000000000000000000000000000000000000000000000000000000000000000000000000000000000000000000000000000000000000000000000000000000000000000000000000000000000008302000001830186a0830186a001a00000000000000000000000000000000000000000000000000000000000000000a00000000000000000000000000000000000000000000000000000000000000000880000000000000000f8c3b8c101f8be01800a8301e24194095e7baea6a6c7c4c2dfeb977efac326af552d878080f85bf859940000000000000000000000000000000000000000f842a00000000000000000000000000000000000000000000000000000000000000000a0000000000000000000000000000000000000000000000000000000000000000080a04aebdf0e9c82872bbc1860195f5acb8c88d8a4bbfea08d420cf8977350a064bfa05c526ad7b803c663ec570a42aede0fc1b95b20fa81a9f47cf0960fd49ccbd1d2c0",
  "json": {
    "Header": {
      "parentHash": "0x0000000000000000000000000000000000000000000000000000000000000000",
      "sha3Uncles": "0x1dcc4de8dec75d7aab85b567b6ccd41ad312451b948a7413f0a142fd40d49347",
      "miner": "0x0000000000000000000000000000000000000000",
      "stateRoot": "0x0000000000000000000000000000000000000000000000000000000000000000",
      "transactionsRoot": "0x621712a382dcf7e57a94e72c56ef80dd2bbecd151bd71d371523d43cb72e9725",
      "receiptsRoot": "0x47aa18b09c6baf3768802156b2aa811734a73a2d27ca48eb6446b06212297375",
      "logsBloom": "0x00000000000000000000000000000000000000000000000000000000000000000000000000000000000000000000000000000000000000000000000000000000000000000000000000000000000000000000000000000000000000000000000000000000000000000000000000000000000000000000000000000000000000000000000000000000000000000000000000000000000000000000000000000000000000000000000000000000000000000000000000000000000000000000000000000000000000000000000000000000000000000000000000000000000000000000000000000000000000000000000000000000000000000000000000000000",
      "difficulty": "0x20000",
      "number": "0x1",
      "gasLimit": "0x186a0",
      "gasUsed": "0x186a0",
      "timestamp": "0x1",
      "extraData": "0x0000000000000000000000000000000000000000000000000000000000000000",
      "mixHash": "0x0000000000000000000000000000000000000000000000000000000000000000",
      "nonce": "0x0000000000000000",
      "hash": "0x7b5472643c5c20fb1e50b3c845d3cde8d37567df09b967988aeb15c6604957cd"
    },
    "Txs": [
      {
        "type": "0x1",
        "chainId": "0x1",
        "nonce": "0x0",
        "gasPrice": "0xa",
        "gas": "0x1e241",
        "to": "0x095e7baea6a6c7c4c2dfeb977efac326af552d87",
        "value": "0x0",
        "input": "0x",
        "accessList": [
          {
            "address": "0x0000000000000000000000000000000000000000",
            "storageKeys": [
              "0x0000000000000000000000000000000000000000000000000000000000000000",
              "0x0000000000000000000000000000000000000000000000000000000000000000"
            ]
          }
        ],
        "v": "0x0",
        "r": "0x4aebdf0e9c82872bbc1860195f5acb8c88d8a4bbfea08d420cf8977350a064bf",
        "s": "0x5c526ad7b803c663ec570a42aede0fc1b95b20fa81a9f47cf0960fd49ccbd1d2",
        "hash": "0x99a4667e3886ef906706e80315ba16b71495f8b2c49ec8dc1f4c827bb83b046f"
      }
    ],
    "Uncles": null
  }
}