{
  "rlp": "f90691f90216a00000000000000000000000000000000000000000000000000000000000000000a01dcc4de8dec75d7aab85b567b6ccd41ad312451b948a7413f0a142fd40d49347940000000000000000000000000000000000000000a00000000000000000000000000000000000000000000000000000000000000000a00b8372d821a9affbb26c1142bc959cfc2700baa614c6b198652a92bbc63d7eaea0b2da32db8b67c9e0e87b3d67ca5fa098947f0def751748af680b15c28a9d1e59b90100000000000000000000000000000000000000000000000000000000000000000000000000000000000000000000000000000000000000000000000000000000000000000000000000000000000000000000000000000000000000000000000000000000000000000000000000000000000000000000000000000000000000000000000000000000000000000000000000000000000000000000000000000000000000000000000000000000000000000000000000000000000000000000000000000000000000000000000000000000000000000000000000000000000000000000000000000000000000000000000000000000000000000000000000000000008302000003830186a0830186a001a00000000000000000000000000000000000000000000000000000000000000000a00000000000000000000000000000000000000000000000000000000000000000880000000000000000f90474b9017901f9017501800a8301e24194095e7baea6a6c7c4c2dfeb977efac326af552d878080f90111f859940000000000000000000000000000000000000000f842a00000000000000000000000000000000000000000000000000000000000000000a00000000000000000000000000000000000000000000000000000000000000000f859940100000000000000000000000000000000000000f842a00000000000000000000000000000000000000000000000000000000000000000a00100000000000000000000000000000000000000000000000000000000000000f859940200000000000000000000000000000000000000f842a00000000000000000000000000000000000000000000000000000000000000000a0020000000000000000000000000000000000000000000000000000000000000001a06ae2ea36c0d3a6279a123ac6129aa39b366724873e2d685d5e303dc638c36419a01a2272de24b30aee38a506538bc901a99597994a5f7ade251c386569bf38d832b9017901f9017501800a8301e24194095e7baea6a6c7c4c2dfeb977efac326af552d878080f90111f859940000000000000000000000000000000000000000f842a00000000000000000000000000000000000000000000000000000000000000000a00000000000000000000000000000000000000000000000000000000000000000f859940100000000000000000000000000000000000000f842a00000000000000000000000000000000000000000000000000000000000000000a00100000000000000000000000000000000000000000000000000000000000000f859940200000000000000000000000000000000000000f842a00000000000000000000000000000000000000000000000000000000000000000a0020000000000000000000000000000000000000000000000000000000000000001a06ae2ea36c0d3a6279a123ac6129aa39b366724873e2d685d5e303dc638c36419a01a2272de24b30aee38a506538bc901a99597994a5f7ade251c386569bf38d832b9017901f9017501800a8301e24194095e7baea6a6c7c4c2dfeb977efac326af552d878080f90111f859940000000000000000000000000000000000000000f842a00000000000000000000000000000000000000000000000000000000000000000a00000000000000000000000000000000000000000000000000000000000000000f859940100000000000000000000000000000000000000f842a00000000000000000000000000000000000000000000000000000000000000000a00100000000000000000000000000000000000000000000000000000000000000f859940200000000000000000000000000000000000000f842a00000000000000000000000000000000000000000000000000000000000000000a0020000000000000000000000000000000000000000000000000000000000000001a06ae2ea36c0d3a6279a123ac6129aa39b366724873e2d685d5e303dc638c36419a01a2272de24b30aee38a506538bc901a99597994a5f7ade251c386569bf38d832c0",
  "json": {
    "Header": {
      "parentHash": "0x0000000000000000000000000000000000000000000000000000000000000000",
      "sha3Uncles": "0x1dcc4de8dec75d7aab85b567b6ccd41ad312451b948a7413f0a142fd40d49347",
      "miner": "0x0000000000000000000000000000000000000000",
      "stateRoot": "0x0000000000000000000000000000000000000000000000000000000000000000",
      "transactionsRoot": "0x0b8372d821a9affbb26c1142bc959cfc2700baa614c6b198652a92bbc63d7eae",
      "receiptsRoot": "0xb2da32db8b67c9e0e87b3d67ca5fa098947f0def751748af680b15c28a9d1e59",
      "logsBloom": "0x00000000000000000000000000000000000000000000000000000000000000000000000000000000000000000000000000000000000000000000000000000000000000000000000000000000000000000000000000000000000000000000000000000000000000000000000000000000000000000000000000000000000000000000000000000000000000000000000000000000000000000000000000000000000000000000000000000000000000000000000000000000000000000000000000000000000000000000000000000000000000000000000000000000000000000000000000000000000000000000000000000000000000000000000000000000",
      "difficulty": "0x20000",
      "number": "0x3",
      "gasLimit": "0x186a0",
      "gasUsed": "0x186a0",
      "timestamp": "0x1",
      "extraData": "0x0000000000000000000000000000000000000000000000000000000000000000",
      "mixHash": "0x0000000000000000000000000000000000000000000000000000000000000000",
      "nonce": "0x0000000000000000",
      "hash": "0xd85626b50770d4f867667aa47676cfa26591f7877d3efc3227a7d7ad6963ab42"
    },
    "Txs": [
      {
        "type": "0x1",
        "chainId": "0x1",
        "nonce": "0x0",
        "gasPrice": "0xa",
        "gas": "0x1e241",
        "to": "0x095e7baea6a6c7c4c2dfeb977efac326af552d87",
        "value": "0x0",
        "input": "0x",
        "accessList": [
          {
            "address": "0x0000000000000000000000000000000000000000",
            "storageKeys": [
              "0x0000000000000000000000000000000000000000000000000000000000000000",
              "0x0000000000000000000000000000000000000000000000000000000000000000"
            ]
          },
          {
            "address": "0x0100000000000000000000000000000000000000",
            "storageKeys": [
              "0x0000000000000000000000000000000000000000000000000000000000000000",
              "0x0100000000000000000000000000000000000000000000000000000000000000"
            ]
          },
          {
            "address": "0x0200000000000000000000000000000000000000",
            "storageKeys": [
              "0x0000000000000000000000000000000000000000000000000000000000000000",
              "0x0200000000000000000000000000000000000000000000000000000000000000"
            ]
          }
        ],
        "v": "0x1",
        "r": "0x6ae2ea36c0d3a6279a123ac6129aa39b366724873e2d685d5e303dc638c36419",
        "s": "0x1a2272de24b30aee38a506538bc901a99597994a5f7ade251c386569bf38d832",
        "hash": "0x778d70794c6965b7462940ac4926b58b08a54d77923d6ac7f54f7bc1bb169e22"
      },
      {
        "type": "0x1",
        "chainId": "0x1",
        "nonce": "0x0",
        "gasPrice": "0xa",
        "gas": "0x1e241",
        "to": "0x095e7baea6a6c7c4c2dfeb977efac326af552d87",
        "value": "0x0",
        "input": "0x",
        "accessList": [
          {
            "address": "0x0000000000000000000000000000000000000000",
            "storageKeys": [
              "0x0000000000000000000000000000000000000000000000000000000000000000",
              "0x0000000000000000000000000000000000000000000000000000000000000000"
            ]
          },
          {
            "address": "0x0100000000000000000000000000000000000000",
            "storageKeys": [
              "0x0000000000000000000000000000000000000000000000000000000000000000",
              "0x0100000000000000000000000000000000000000000000000000000000000000"
            ]
          },
          {
            "address": "0x0200000000000000000000000000000000000000",
            "storageKeys": [
              "0x0000000000000000000000000000000000000000000000000000000000000000",
              "0x0200000000000000000000000000000000000000000000000000000000000000"
            ]
          }
        ],
        "v": "0x1",
        "r": "0x6ae2ea36c0d3a6279a123ac6129aa39b366724873e2d685d5e303dc638c36419",
        "s": "0x1a2272de24b30aee38a506538bc901a99597994a5f7ade251c386569bf38d832",
        "hash": "0x778d70794c6965b7462940ac4926b58b08a54d77923d6ac7f54f7bc1bb169e22"
      },
      {
        "type": "0x1",
        "chainId": "0x1",
        "nonce": "0x0",
        "gasPrice": "0xa",
        "gas": "0x1e241",
        "to": "0x095e7baea6a6c7c4c2dfeb977efac326af552d87",
        "value": "0x0",
        "input": "0x",
        "accessList": [
          {
            "address": "0x0000000000000000000000000000000000000000",
            "storageKeys": [
              "0x0000000000000000000000000000000000000000000000000000000000000000",
              "0x0000000000000000000000000000000000000000000000000000000000000000"
            ]
          },
          {
            "address": "0x0100000000000000000000000000000000000000",
            "storageKeys": [
              "0x0000000000000000000000000000000000000000000000000000000000000000",
              "0x0100000000000000000000000000000000000000000000000000000000000000"
            ]
          },
          {
            "address": "0x0200000000000000000000000000000000000000",
            "storageKeys": [
              "0x0000000000000000000000000000000000000000000000000000000000000000",
              "0x0200000000000000000000000000000000000000000000000000000000000000"
            ]
          }
        ],
        "v": "0x1",
        "r": "0x6ae2ea36c0d3a6279a123ac6129aa39b366724873e2d685d5e303dc638c36419",
        "s": "0x1a2272de24b30aee38a506538bc901a99597994a5f7ade251c386569bf38d832",
        "hash": "0x778d70794c6965b7462940ac4926b58b08a54d77923d6ac7f54f7bc1bb169e22"
      }
    ],
    "Uncles": null
  }
}