{
  "genesis": {
    "baseFeePerGas": "15276637384",
    "difficulty": "0",
    "extraData": "0x6275696c64657230783639",
    "gasLimit": "30000000",
    "hash": "0xa48101caa15c1488d382bd22f4cef0afc98ff9b631d03fd7612635cb4dbb7ffc",
    "miner": "0x690b9a9e9aa1c9db991c7721a92d351db4fac990",
    "mixHash": "0x572668f17a2e0a384117e5ae5f062b1ab2bbb25213e509d1f95dce2f6f90c0f9",
    "nonce": "0x0000000000000000",
    "number": "16446455",
    "stateRoot": "0x7f5d8fb15f40127f7cfd6c3f49e76153f485d30d01a651d487d132b06d8e553b",
    "timestamp": "1674198911",
    "totalDifficulty": "5.8750003716598352816469e+22",
    "alloc": {
      "0x0000000000000000000000000000000000012345": {
        "balance": "0x0",
        "nonce": "1",
        "code": "0x608060405234801561001057600080fd5b506004361061002b5760003560e01c8063f8a8fd6d14610030575b600080fd5b61003861003a565b005b600080600190507f5ffff5aa3e0a66a83bde15e0a8efc982ff049624ee93d8fff87b3e0f927e58648282600260036004600560066040516100819796959493929190610277565b60405180910390a18173ffffffffffffffffffffffffffffffffffffffff167f3397e4e6b33e976786073ecb99d0cbbfdd31a16c3150f760fb4005cdc0f40a4d82600260036004600560066040516100de969594939291906102e6565b60405180910390a28073ffffffffffffffffffffffffffffffffffffffff168273ffffffffffffffffffffffffffffffffffffffff167fedc8ba098cf5f3498410eae83eb28db13824ac6db01d2aeb12db7eecd12fbbe360026003600460056006604051610150959493929190610347565b60405180910390a360028173ffffffffffffffffffffffffffffffffffffffff168373ffffffffffffffffffffffffffffffffffffffff167f70bfe9ccf1427417b233e5faeab8793f8484f77b3ef964182d7592574bbb876960036004600560066040516101c1949392919061039a565b60405180910390a460028173ffffffffffffffffffffffffffffffffffffffff168373ffffffffffffffffffffffffffffffffffffffff166003600460056006604051610211949392919061039a565b60405180910390a35050565b610226816103df565b82525050565b61023581610444565b82525050565b61024481610456565b82525050565b61025381610468565b82525050565b6102628161047a565b82525050565b6102718161048c565b82525050565b600060e08201905061028c600083018a61021d565b610299602083018961021d565b6102a6604083018861022c565b6102b3606083018761023b565b6102c0608083018661024a565b6102cd60a0830185610259565b6102da60c0830184610268565b98975050505050505050565b600060c0820190506102fb600083018961021d565b610308602083018861022c565b610315604083018761023b565b610322606083018661024a565b61032f6080830185610259565b61033c60a0830184610268565b979650505050505050565b600060a08201905061035c600083018861022c565b610369602083018761023b565b610376604083018661024a565b6103836060830185610259565b6103906080830184610268565b9695505050505050565b60006080820190506103af600083018761023b565b6103bc602083018661024a565b6103c96040830185610259565b6103d66060830184610268565b95945050505050565b60006103ea8261041a565b9050919050565b60008160020b9050919050565b60006fffffffffffffffffffffffffffffffff82169050919050565b600073ffffffffffffffffffffffffffffffffffffffff82169050919050565b6000819050919050565b600061044f826103f1565b9050919050565b6000610461826103f1565b9050919050565b6000610473826103fe565b9050919050565b60006104858261043a565b9050919050565b60006104978261043a565b905091905056fea2646970667358221220d0ac7cfff98a744cfe0b48218f7324e1c0aea49e4164432e0564dc022d8e4c2e64736f6c63430008070033"
      },
      "0x317771cdcdb4E53975576B5c0EDA373fa6Ec661E": {
        "balance": "0xDE0B6B3A7640000",
        "nonce": "0"
      }
    },
    "tracerConfig": {
      "logs": true
    },
    "config": {
      "constantinopleBlock": 1700001,
      "byzantiumBlock": 1700000,
      "chainId": 1,
      "daoForkSupport": true,
      "eip150Block": 0,
      "eip150Hash": "0x41941023680923e0fe4d74a34bdac8141f2540e3ae90623718e47d66d1ca4a2d",
      "eip155Block": 10,
      "eip158Block": 10,
      "ethash": {},
      "homesteadBlock": 0
    }
  },
  "tracerConfig": {
    "logs": true
  },
  "context": {
    "number": "16446456",
    "difficulty": "0",
    "timestamp": "1674198923",
    "gasLimit": "30000000",
    "miner": "0x199d5ed7f45f4ee35960cf22eade2076e95b253f"
  },
  "input": "0xf866800a865af3107a40009400000000000000000000000000000000000123458084f8a8fd6d259fbedeb3da36f0de09dc4a41692e7da128f49802a0536fed78ffa2a35c638c36a021d23a1ec7f54a5cbf632a1f88879ec1100466eb87c0275376d17bed1e251a8a",
  "result": {
    "type": "CALL",
    "from": "0x317771cdcdb4e53975576b5c0eda373fa6ec661e",
    "to": "0x0000000000000000000000000000000000012345",
    "value": "0x0",
    "gas": "0x5af31079ece8",
    "gasUsed": "0x45c5",
    "input": "0xf8a8fd6d",
    "output": "0x",
    "logs": [
      {
        "address": "0x0000000000000000000000000000000000012345",
        "data": "0x0000000000000000000000000000000000000000000000000000000000000000000000000000000000000000000000000000000000000000000000000000000100000000000000000000000000000000000000000000000000000000000000020000000000000000000000000000000000000000000000000000000000000003000000000000000000000000000000000000000000000000000000000000000400000000000000000000000000000000000000000000000000000000000000050000000000000000000000000000000000000000000000000000000000000006",
        "topics": [
          "0x5ffff5aa3e0a66a83bde15e0a8efc982ff049624ee93d8fff87b3e0f927e5864"
        ]
      },
      {
        "address": "0x0000000000000000000000000000000000012345",
        "data": "0x000000000000000000000000000000000000000000000000000000000000000100000000000000000000000000000000000000000000000000000000000000020000000000000000000000000000000000000000000000000000000000000003000000000000000000000000000000000000000000000000000000000000000400000000000000000000000000000000000000000000000000000000000000050000000000000000000000000000000000000000000000000000000000000006",
        "topics": [
          "0x3397e4e6b33e976786073ecb99d0cbbfdd31a16c3150f760fb4005cdc0f40a4d",
          "0x0000000000000000000000000000000000000000000000000000000000000000"
        ]
      },
      {
        "address": "0x0000000000000000000000000000000000012345",
        "data": "0x00000000000000000000000000000000000000000000000000000000000000020000000000000000000000000000000000000000000000000000000000000003000000000000000000000000000000000000000000000000000000000000000400000000000000000000000000000000000000000000000000000000000000050000000000000000000000000000000000000000000000000000000000000006",
        "topics": [
          "0xedc8ba098cf5f3498410eae83eb28db13824ac6db01d2aeb12db7eecd12fbbe3",
          "0x0000000000000000000000000000000000000000000000000000000000000000",
          "0x0000000000000000000000000000000000000000000000000000000000000001"
        ]
      },
      {
        "address": "0x0000000000000000000000000000000000012345",
        "data": "0x0000000000000000000000000000000000000000000000000000000000000003000000000000000000000000000000000000000000000000000000000000000400000000000000000000000000000000000000000000000000000000000000050000000000000000000000000000000000000000000000000000000000000006",
        "topics": [
          "0x70bfe9ccf1427417b233e5faeab8793f8484f77b3ef964182d7592574bbb8769",
          "0x0000000000000000000000000000000000000000000000000000000000000000",
          "0x0000000000000000000000000000000000000000000000000000000000000001",
          "0x0000000000000000000000000000000000000000000000000000000000000002"
        ]
      },
      {
        "address": "0x0000000000000000000000000000000000012345",
        "data": "0x0000000000000000000000000000000000000000000000000000000000000003000000000000000000000000000000000000000000000000000000000000000400000000000000000000000000000000000000000000000000000000000000050000000000000000000000000000000000000000000000000000000000000006",
        "topics": [
          "0x0000000000000000000000000000000000000000000000000000000000000000",
          "0x0000000000000000000000000000000000000000000000000000000000000001",
          "0x0000000000000000000000000000000000000000000000000000000000000002"
        ]
      }
    ]
  }
}