{
    "CallToNameRegistratorNotMuchMemory1_d0g0v0_Byzantium" : {
        "_info" : {
            "comment" : "",
            "filledwith" : "cpp-1.3.0+commit.6e0ce939.Linux.g++",
            "lllcversion" : "Version: 0.4.18-develop.2017.9.25+commit.a72237f2.Linux.g++",
            "source" : "src/BlockchainTestsFiller/GeneralStateTests/stSystemOperationsTest/CallToNameRegistratorNotMuchMemory1_d0g0v0Filler.json",
            "sourceHash" : "c0c91c2e49f387c43237c7d1e9eff4068957e333a2206402d312872f1e6c236a"
        },
        "blocks" : [
            {
                "blockHeader" : {
                    "bloom" : "0x00000000000000000000000000000000000000000000000000000000000000000000000000000000000000000000000000000000000000000000000000000000000000000000000000000000000000000000000000000000000000000000000000000000000000000000000000000000000000000000000000000000000000000000000000000000000000000000000000000000000000000000000000000000000000000000000000000000000000000000000000000000000000000000000000000000000000000000000000000000000000000000000000000000000000000000000000000000000000000000000000000000000000000000000000000000",
                    "coinbase" : "0x2adc25665018aa1fe0e6bc666dac8fc2697ff9ba",
                    "difficulty" : "0x020000",
                    "extraData" : "",
                    "gasLimit" : "0x989680",
                    "gasUsed" : "0x8d98",
                    "hash" : "0xbbb186b4904ba9e8a193b3acb0e3f33e82d31a2e74bc6dee0968d497619b12d7",
                    "mixHash" : "0xa5b60e515638bc71f95ef27928ce625d5dcb617082a66d4804c9e48394dc1974",
                    "nonce" : "0x34f6cf10fb22d1c9",
                    "number" : "0x01",
                    "parentHash" : "0xdb34430888b807a6c3ec82dded0cf0c32ba7a0f567580f989946c460d2fa7609",
                    "receiptTrie" : "0x7bea2a0ab68a4d423d42e61022964ce69b049b28ead4f865156db79dd121cb2e",
                    "stateRoot" : "0x229de119fb0916562623ee7bdba223ca58e77888f346e45bb982ab055de40359",
                    "timestamp" : "0x03e8",
                    "transactionsTrie" : "0x4c5d9bb466add019c254559eb55e402a66b7a663b97d86eeb12deae7631cbd0b",
                    "uncleHash" : "0x1dcc4de8dec75d7aab85b567b6ccd41ad312451b948a7413f0a142fd40d49347"
                },
                "rlp" : "0xf90262f901f7a0db34430888b807a6c3ec82dded0cf0c32ba7a0f567580f989946c460d2fa7609a01dcc4de8dec75d7aab85b567b6ccd41ad312451b948a7413f0a142fd40d49347942adc25665018aa1fe0e6bc666dac8fc2697ff9baa0229de119fb0916562623ee7bdba223ca58e77888f346e45bb982ab055de40359a04c5d9bb466add019c254559eb55e402a66b7a663b97d86eeb12deae7631cbd0ba07bea2a0ab68a4d423d42e61022964ce69b049b28ead4f865156db79dd121cb2eb9010000000000000000000000000000000000000000000000000000000000000000000000000000000000000000000000000000000000000000000000000000000000000000000000000000000000000000000000000000000000000000000000000000000000000000000000000000000000000000000000000000000000000000000000000000000000000000000000000000000000000000000000000000000000000000000000000000000000000000000000000000000000000000000000000000000000000000000000000000000000000000000000000000000000000000000000000000000000000000000000000000000000000000000000000000000000830200000183989680828d988203e880a0a5b60e515638bc71f95ef27928ce625d5dcb617082a66d4804c9e48394dc19748834f6cf10fb22d1c9f865f8638001830493e094095e7baea6a6c7c4c2dfeb977efac326af552d87830186a0801ca0b7b326b8747eeaff9ae985a58e503e301493c7ab2856c9b20784c4f037922ecaa053780225776bc2a5f72cc94db55b70f378ffb5e0fb4354ab276437f7be3e6ec1c0",
                "transactions" : [
                    {
                        "data" : "",
                        "gasLimit" : "0x0493e0",
                        "gasPrice" : "0x01",
                        "nonce" : "0x00",
                        "r" : "0xb7b326b8747eeaff9ae985a58e503e301493c7ab2856c9b20784c4f037922eca",
                        "s" : "0x53780225776bc2a5f72cc94db55b70f378ffb5e0fb4354ab276437f7be3e6ec1",
                        "to" : "0x095e7baea6a6c7c4c2dfeb977efac326af552d87",
                        "v" : "0x1c",
                        "value" : "0x0186a0"
                    }
                ],
                "uncleHeaders" : [
                ]
            }
        ],
        "genesisBlockHeader" : {
            "bloom" : "0x00000000000000000000000000000000000000000000000000000000000000000000000000000000000000000000000000000000000000000000000000000000000000000000000000000000000000000000000000000000000000000000000000000000000000000000000000000000000000000000000000000000000000000000000000000000000000000000000000000000000000000000000000000000000000000000000000000000000000000000000000000000000000000000000000000000000000000000000000000000000000000000000000000000000000000000000000000000000000000000000000000000000000000000000000000000",
            "coinbase" : "0x2adc25665018aa1fe0e6bc666dac8fc2697ff9ba",
            "difficulty" : "0x020000",
            "extraData" : "0x42",
            "gasLimit" : "0x989680",
            "gasUsed" : "0x00",
            "hash" : "0xdb34430888b807a6c3ec82dded0cf0c32ba7a0f567580f989946c460d2fa7609",
            "mixHash" : "0x56e81f171bcc55a6ff8345e692c0f86e5b48e01b996cadc001622fb5e363b421",
            "nonce" : "0x0102030405060708",
            "number" : "0x00",
            "parentHash" : "0x0000000000000000000000000000000000000000000000000000000000000000",
            "receiptTrie" : "0x56e81f171bcc55a6ff8345e692c0f86e5b48e01b996cadc001622fb5e363b421",
            "stateRoot" : "0x433467a049714d3b5a6f729efefa34446dee63a7ce9932bbcd943ee1366105e4",
            "timestamp" : "0x03b6",
            "transactionsTrie" : "0x56e81f171bcc55a6ff8345e692c0f86e5b48e01b996cadc001622fb5e363b421",
            "uncleHash" : "0x1dcc4de8dec75d7aab85b567b6ccd41ad312451b948a7413f0a142fd40d49347"
        },
        "genesisRLP" : "0xf901faf901f5a00000000000000000000000000000000000000000000000000000000000000000a01dcc4de8dec75d7aab85b567b6ccd41ad312451b948a7413f0a142fd40d49347942adc25665018aa1fe0e6bc666dac8fc2697ff9baa0433467a049714d3b5a6f729efefa34446dee63a7ce9932bbcd943ee1366105e4a056e81f171bcc55a6ff8345e692c0f86e5b48e01b996cadc001622fb5e363b421a056e81f171bcc55a6ff8345e692c0f86e5b48e01b996cadc001622fb5e363b421b9010000000000000000000000000000000000000000000000000000000000000000000000000000000000000000000000000000000000000000000000000000000000000000000000000000000000000000000000000000000000000000000000000000000000000000000000000000000000000000000000000000000000000000000000000000000000000000000000000000000000000000000000000000000000000000000000000000000000000000000000000000000000000000000000000000000000000000000000000000000000000000000000000000000000000000000000000000000000000000000000000000000000000000000000000000000000830200008083989680808203b642a056e81f171bcc55a6ff8345e692c0f86e5b48e01b996cadc001622fb5e363b421880102030405060708c0c0",
        "lastblockhash" : "0xbbb186b4904ba9e8a193b3acb0e3f33e82d31a2e74bc6dee0968d497619b12d7",
        "network" : "Byzantium",
        "postState" : {
            "0x095e7baea6a6c7c4c2dfeb977efac326af552d87" : {
                "balance" : "0x0de0b6b3a76586a0",
                "code" : "0x7feeffffffffffffffffffffffffffffffffffffffffffffffffffffffffffff006000527faaffffffffffffffffffffffffffffffffffffffffffffffffffffffffffffaa602052600060406000620f1206601773945304eb96065b2a98b57a48a06ae28d285a71b56101f4f1600055",
                "nonce" : "0x00",
                "storage" : {
                }
            },
            "0x2adc25665018aa1fe0e6bc666dac8fc2697ff9ba" : {
                "balance" : "0x29a2241af62c8d98",
                "code" : "",
                "nonce" : "0x00",
                "storage" : {
                }
            },
            "0x945304eb96065b2a98b57a48a06ae28d285a71b5" : {
                "balance" : "0x17",
                "code" : "0x6000355415600957005b60203560003555",
                "nonce" : "0x00",
                "storage" : {
                }
            },
            "0xa94f5374fce5edbc8e2a8697c15331677e6ebf0b" : {
                "balance" : "0x0de0b6b3a761ebc8",
                "code" : "",
                "nonce" : "0x01",
                "storage" : {
                }
            }
        },
        "pre" : {
            "0x095e7baea6a6c7c4c2dfeb977efac326af552d87" : {
                "balance" : "0x0de0b6b3a7640000",
                "code" : "0x7feeffffffffffffffffffffffffffffffffffffffffffffffffffffffffffff006000527faaffffffffffffffffffffffffffffffffffffffffffffffffffffffffffffaa602052600060406000620f1206601773945304eb96065b2a98b57a48a06ae28d285a71b56101f4f1600055",
                "nonce" : "0x00",
                "storage" : {
                }
            },
            "0x945304eb96065b2a98b57a48a06ae28d285a71b5" : {
                "balance" : "0x17",
                "code" : "0x6000355415600957005b60203560003555",
                "nonce" : "0x00",
                "storage" : {
                }
            },
            "0xa94f5374fce5edbc8e2a8697c15331677e6ebf0b" : {
                "balance" : "0x0de0b6b3a7640000",
                "code" : "",
                "nonce" : "0x00",
                "storage" : {
                }
            }
        }
    },
    "CallToNameRegistratorNotMuchMemory1_d0g0v0_EIP150" : {
        "_info" : {
            "comment" : "",
            "filledwith" : "cpp-1.3.0+commit.6e0ce939.Linux.g++",
            "lllcversion" : "Version: 0.4.18-develop.2017.9.25+commit.a72237f2.Linux.g++",
            "source" : "src/BlockchainTestsFiller/GeneralStateTests/stSystemOperationsTest/CallToNameRegistratorNotMuchMemory1_d0g0v0Filler.json",
            "sourceHash" : "c0c91c2e49f387c43237c7d1e9eff4068957e333a2206402d312872f1e6c236a"
        },
        "blocks" : [
            {
                "blockHeader" : {
                    "bloom" : "0x00000000000000000000000000000000000000000000000000000000000000000000000000000000000000000000000000000000000000000000000000000000000000000000000000000000000000000000000000000000000000000000000000000000000000000000000000000000000000000000000000000000000000000000000000000000000000000000000000000000000000000000000000000000000000000000000000000000000000000000000000000000000000000000000000000000000000000000000000000000000000000000000000000000000000000000000000000000000000000000000000000000000000000000000000000000",
                    "coinbase" : "0x2adc25665018aa1fe0e6bc666dac8fc2697ff9ba",
                    "difficulty" : "0x020000",
                    "extraData" : "",
                    "gasLimit" : "0x989680",
                    "gasUsed" : "0x8d98",
                    "hash" : "0x2fe5051895ed70fa6feb54937f50e6b8ab4043c5f080b647907a2c2a0c7fdcf2",
                    "mixHash" : "0xf8e924da11db4ec27746192977e12145be24d6c957c01c74bc41bf0d2c7b6e91",
                    "nonce" : "0xae6cff4b8aedae35",
                    "number" : "0x01",
                    "parentHash" : "0xdb34430888b807a6c3ec82dded0cf0c32ba7a0f567580f989946c460d2fa7609",
                    "receiptTrie" : "0x080f86951102af3a5fcefaed52b2c0614663346b56cc8e0bed05bcacad823b09",
                    "stateRoot" : "0x8bdae06999ccafa2141778d41843579bfc940a1364db197d2897a6b1787fa378",
                    "timestamp" : "0x03e8",
                    "transactionsTrie" : "0x4c5d9bb466add019c254559eb55e402a66b7a663b97d86eeb12deae7631cbd0b",
                    "uncleHash" : "0x1dcc4de8dec75d7aab85b567b6ccd41ad312451b948a7413f0a142fd40d49347"
                },
                "rlp" : "0xf90262f901f7a0db34430888b807a6c3ec82dded0cf0c32ba7a0f567580f989946c460d2fa7609a01dcc4de8dec75d7aab85b567b6ccd41ad312451b948a7413f0a142fd40d49347942adc25665018aa1fe0e6bc666dac8fc2697ff9baa08bdae06999ccafa2141778d41843579bfc940a1364db197d2897a6b1787fa378a04c5d9bb466add019c254559eb55e402a66b7a663b97d86eeb12deae7631cbd0ba0080f86951102af3a5fcefaed52b2c0614663346b56cc8e0bed05bcacad823b09b9010000000000000000000000000000000000000000000000000000000000000000000000000000000000000000000000000000000000000000000000000000000000000000000000000000000000000000000000000000000000000000000000000000000000000000000000000000000000000000000000000000000000000000000000000000000000000000000000000000000000000000000000000000000000000000000000000000000000000000000000000000000000000000000000000000000000000000000000000000000000000000000000000000000000000000000000000000000000000000000000000000000000000000000000000000000000830200000183989680828d988203e880a0f8e924da11db4ec27746192977e12145be24d6c957c01c74bc41bf0d2c7b6e9188ae6cff4b8aedae35f865f8638001830493e094095e7baea6a6c7c4c2dfeb977efac326af552d87830186a0801ca0b7b326b8747eeaff9ae985a58e503e301493c7ab2856c9b20784c4f037922ecaa053780225776bc2a5f72cc94db55b70f378ffb5e0fb4354ab276437f7be3e6ec1c0",
                "transactions" : [
                    {
                        "data" : "",
                        "gasLimit" : "0x0493e0",
                        "gasPrice" : "0x01",
                        "nonce" : "0x00",
                        "r" : "0xb7b326b8747eeaff9ae985a58e503e301493c7ab2856c9b20784c4f037922eca",
                        "s" : "0x53780225776bc2a5f72cc94db55b70f378ffb5e0fb4354ab276437f7be3e6ec1",
                        "to" : "0x095e7baea6a6c7c4c2dfeb977efac326af552d87",
                        "v" : "0x1c",
                        "value" : "0x0186a0"
                    }
                ],
                "uncleHeaders" : [
                ]
            }
        ],
        "genesisBlockHeader" : {
            "bloom" : "0x00000000000000000000000000000000000000000000000000000000000000000000000000000000000000000000000000000000000000000000000000000000000000000000000000000000000000000000000000000000000000000000000000000000000000000000000000000000000000000000000000000000000000000000000000000000000000000000000000000000000000000000000000000000000000000000000000000000000000000000000000000000000000000000000000000000000000000000000000000000000000000000000000000000000000000000000000000000000000000000000000000000000000000000000000000000",
            "coinbase" : "0x2adc25665018aa1fe0e6bc666dac8fc2697ff9ba",
            "difficulty" : "0x020000",
            "extraData" : "0x42",
            "gasLimit" : "0x989680",
            "gasUsed" : "0x00",
            "hash" : "0xdb34430888b807a6c3ec82dded0cf0c32ba7a0f567580f989946c460d2fa7609",
            "mixHash" : "0x56e81f171bcc55a6ff8345e692c0f86e5b48e01b996cadc001622fb5e363b421",
            "nonce" : "0x0102030405060708",
            "number" : "0x00",
            "parentHash" : "0x0000000000000000000000000000000000000000000000000000000000000000",
            "receiptTrie" : "0x56e81f171bcc55a6ff8345e692c0f86e5b48e01b996cadc001622fb5e363b421",
            "stateRoot" : "0x433467a049714d3b5a6f729efefa34446dee63a7ce9932bbcd943ee1366105e4",
            "timestamp" : "0x03b6",
            "transactionsTrie" : "0x56e81f171bcc55a6ff8345e692c0f86e5b48e01b996cadc001622fb5e363b421",
            "uncleHash" : "0x1dcc4de8dec75d7aab85b567b6ccd41ad312451b948a7413f0a142fd40d49347"
        },
        "genesisRLP" : "0xf901faf901f5a00000000000000000000000000000000000000000000000000000000000000000a01dcc4de8dec75d7aab85b567b6ccd41ad312451b948a7413f0a142fd40d49347942adc25665018aa1fe0e6bc666dac8fc2697ff9baa0433467a049714d3b5a6f729efefa34446dee63a7ce9932bbcd943ee1366105e4a056e81f171bcc55a6ff8345e692c0f86e5b48e01b996cadc001622fb5e363b421a056e81f171bcc55a6ff8345e692c0f86e5b48e01b996cadc001622fb5e363b421b9010000000000000000000000000000000000000000000000000000000000000000000000000000000000000000000000000000000000000000000000000000000000000000000000000000000000000000000000000000000000000000000000000000000000000000000000000000000000000000000000000000000000000000000000000000000000000000000000000000000000000000000000000000000000000000000000000000000000000000000000000000000000000000000000000000000000000000000000000000000000000000000000000000000000000000000000000000000000000000000000000000000000000000000000000000000000830200008083989680808203b642a056e81f171bcc55a6ff8345e692c0f86e5b48e01b996cadc001622fb5e363b421880102030405060708c0c0",
        "lastblockhash" : "0x2fe5051895ed70fa6feb54937f50e6b8ab4043c5f080b647907a2c2a0c7fdcf2",
        "network" : "EIP150",
        "postState" : {
            "0x095e7baea6a6c7c4c2dfeb977efac326af552d87" : {
                "balance" : "0x0de0b6b3a76586a0",
                "code" : "0x7feeffffffffffffffffffffffffffffffffffffffffffffffffffffffffffff006000527faaffffffffffffffffffffffffffffffffffffffffffffffffffffffffffffaa602052600060406000620f1206601773945304eb96065b2a98b57a48a06ae28d285a71b56101f4f1600055",
                "nonce" : "0x00",
                "storage" : {
                }
            },
            "0x2adc25665018aa1fe0e6bc666dac8fc2697ff9ba" : {
                "balance" : "0x4563918244f48d98",
                "code" : "",
                "nonce" : "0x00",
                "storage" : {
                }
            },
            "0x945304eb96065b2a98b57a48a06ae28d285a71b5" : {
                "balance" : "0x17",
                "code" : "0x6000355415600957005b60203560003555",
                "nonce" : "0x00",
                "storage" : {
                }
            },
            "0xa94f5374fce5edbc8e2a8697c15331677e6ebf0b" : {
                "balance" : "0x0de0b6b3a761ebc8",
                "code" : "",
                "nonce" : "0x01",
                "storage" : {
                }
            }
        },
        "pre" : {
            "0x095e7baea6a6c7c4c2dfeb977efac326af552d87" : {
                "balance" : "0x0de0b6b3a7640000",
                "code" : "0x7feeffffffffffffffffffffffffffffffffffffffffffffffffffffffffffff006000527faaffffffffffffffffffffffffffffffffffffffffffffffffffffffffffffaa602052600060406000620f1206601773945304eb96065b2a98b57a48a06ae28d285a71b56101f4f1600055",
                "nonce" : "0x00",
                "storage" : {
                }
            },
            "0x945304eb96065b2a98b57a48a06ae28d285a71b5" : {
                "balance" : "0x17",
                "code" : "0x6000355415600957005b60203560003555",
                "nonce" : "0x00",
                "storage" : {
                }
            },
            "0xa94f5374fce5edbc8e2a8697c15331677e6ebf0b" : {
                "balance" : "0x0de0b6b3a7640000",
                "code" : "",
                "nonce" : "0x00",
                "storage" : {
                }
            }
        }
    },
    "CallToNameRegistratorNotMuchMemory1_d0g0v0_EIP158" : {
        "_info" : {
            "comment" : "",
            "filledwith" : "cpp-1.3.0+commit.6e0ce939.Linux.g++",
            "lllcversion" : "Version: 0.4.18-develop.2017.9.25+commit.a72237f2.Linux.g++",
            "source" : "src/BlockchainTestsFiller/GeneralStateTests/stSystemOperationsTest/CallToNameRegistratorNotMuchMemory1_d0g0v0Filler.json",
            "sourceHash" : "c0c91c2e49f387c43237c7d1e9eff4068957e333a2206402d312872f1e6c236a"
        },
        "blocks" : [
            {
                "blockHeader" : {
                    "bloom" : "0x00000000000000000000000000000000000000000000000000000000000000000000000000000000000000000000000000000000000000000000000000000000000000000000000000000000000000000000000000000000000000000000000000000000000000000000000000000000000000000000000000000000000000000000000000000000000000000000000000000000000000000000000000000000000000000000000000000000000000000000000000000000000000000000000000000000000000000000000000000000000000000000000000000000000000000000000000000000000000000000000000000000000000000000000000000000",
                    "coinbase" : "0x2adc25665018aa1fe0e6bc666dac8fc2697ff9ba",
                    "difficulty" : "0x020000",
                    "extraData" : "",
                    "gasLimit" : "0x989680",
                    "gasUsed" : "0x8d98",
                    "hash" : "0x4eb23f5f0301471fb2a470ff965dc233147d61c2851b796c7741511a14397d42",
                    "mixHash" : "0xae9c435874e0af22949f3082a26ac255f411ab9287bccbb436175eeda699d018",
                    "nonce" : "0xba57f015cfaf61ae",
                    "number" : "0x01",
                    "parentHash" : "0xdb34430888b807a6c3ec82dded0cf0c32ba7a0f567580f989946c460d2fa7609",
                    "receiptTrie" : "0x080f86951102af3a5fcefaed52b2c0614663346b56cc8e0bed05bcacad823b09",
                    "stateRoot" : "0x8bdae06999ccafa2141778d41843579bfc940a1364db197d2897a6b1787fa378",
                    "timestamp" : "0x03e8",
                    "transactionsTrie" : "0x4c5d9bb466add019c254559eb55e402a66b7a663b97d86eeb12deae7631cbd0b",
                    "uncleHash" : "0x1dcc4de8dec75d7aab85b567b6ccd41ad312451b948a7413f0a142fd40d49347"
                },
                "rlp" : "0xf90262f901f7a0db34430888b807a6c3ec82dded0cf0c32ba7a0f567580f989946c460d2fa7609a01dcc4de8dec75d7aab85b567b6ccd41ad312451b948a7413f0a142fd40d49347942adc25665018aa1fe0e6bc666dac8fc2697ff9baa08bdae06999ccafa2141778d41843579bfc940a1364db197d2897a6b1787fa378a04c5d9bb466add019c254559eb55e402a66b7a663b97d86eeb12deae7631cbd0ba0080f86951102af3a5fcefaed52b2c0614663346b56cc8e0bed05bcacad823b09b9010000000000000000000000000000000000000000000000000000000000000000000000000000000000000000000000000000000000000000000000000000000000000000000000000000000000000000000000000000000000000000000000000000000000000000000000000000000000000000000000000000000000000000000000000000000000000000000000000000000000000000000000000000000000000000000000000000000000000000000000000000000000000000000000000000000000000000000000000000000000000000000000000000000000000000000000000000000000000000000000000000000000000000000000000000000000830200000183989680828d988203e880a0ae9c435874e0af22949f3082a26ac255f411ab9287bccbb436175eeda699d01888ba57f015cfaf61aef865f8638001830493e094095e7baea6a6c7c4c2dfeb977efac326af552d87830186a0801ca0b7b326b8747eeaff9ae985a58e503e301493c7ab2856c9b20784c4f037922ecaa053780225776bc2a5f72cc94db55b70f378ffb5e0fb4354ab276437f7be3e6ec1c0",
                "transactions" : [
                    {
                        "data" : "",
                        "gasLimit" : "0x0493e0",
                        "gasPrice" : "0x01",
                        "nonce" : "0x00",
                        "r" : "0xb7b326b8747eeaff9ae985a58e503e301493c7ab2856c9b20784c4f037922eca",
                        "s" : "0x53780225776bc2a5f72cc94db55b70f378ffb5e0fb4354ab276437f7be3e6ec1",
                        "to" : "0x095e7baea6a6c7c4c2dfeb977efac326af552d87",
                        "v" : "0x1c",
                        "value" : "0x0186a0"
                    }
                ],
                "uncleHeaders" : [
                ]
            }
        ],
        "genesisBlockHeader" : {
            "bloom" : "0x00000000000000000000000000000000000000000000000000000000000000000000000000000000000000000000000000000000000000000000000000000000000000000000000000000000000000000000000000000000000000000000000000000000000000000000000000000000000000000000000000000000000000000000000000000000000000000000000000000000000000000000000000000000000000000000000000000000000000000000000000000000000000000000000000000000000000000000000000000000000000000000000000000000000000000000000000000000000000000000000000000000000000000000000000000000",
            "coinbase" : "0x2adc25665018aa1fe0e6bc666dac8fc2697ff9ba",
            "difficulty" : "0x020000",
            "extraData" : "0x42",
            "gasLimit" : "0x989680",
            "gasUsed" : "0x00",
            "hash" : "0xdb34430888b807a6c3ec82dded0cf0c32ba7a0f567580f989946c460d2fa7609",
            "mixHash" : "0x56e81f171bcc55a6ff8345e692c0f86e5b48e01b996cadc001622fb5e363b421",
            "nonce" : "0x0102030405060708",
            "number" : "0x00",
            "parentHash" : "0x0000000000000000000000000000000000000000000000000000000000000000",
            "receiptTrie" : "0x56e81f171bcc55a6ff8345e692c0f86e5b48e01b996cadc001622fb5e363b421",
            "stateRoot" : "0x433467a049714d3b5a6f729efefa34446dee63a7ce9932bbcd943ee1366105e4",
            "timestamp" : "0x03b6",
            "transactionsTrie" : "0x56e81f171bcc55a6ff8345e692c0f86e5b48e01b996cadc001622fb5e363b421",
            "uncleHash" : "0x1dcc4de8dec75d7aab85b567b6ccd41ad312451b948a7413f0a142fd40d49347"
        },
        "genesisRLP" : "0xf901faf901f5a00000000000000000000000000000000000000000000000000000000000000000a01dcc4de8dec75d7aab85b567b6ccd41ad312451b948a7413f0a142fd40d49347942adc25665018aa1fe0e6bc666dac8fc2697ff9baa0433467a049714d3b5a6f729efefa34446dee63a7ce9932bbcd943ee1366105e4a056e81f171bcc55a6ff8345e692c0f86e5b48e01b996cadc001622fb5e363b421a056e81f171bcc55a6ff8345e692c0f86e5b48e01b996cadc001622fb5e363b421b9010000000000000000000000000000000000000000000000000000000000000000000000000000000000000000000000000000000000000000000000000000000000000000000000000000000000000000000000000000000000000000000000000000000000000000000000000000000000000000000000000000000000000000000000000000000000000000000000000000000000000000000000000000000000000000000000000000000000000000000000000000000000000000000000000000000000000000000000000000000000000000000000000000000000000000000000000000000000000000000000000000000000000000000000000000000000830200008083989680808203b642a056e81f171bcc55a6ff8345e692c0f86e5b48e01b996cadc001622fb5e363b421880102030405060708c0c0",
        "lastblockhash" : "0x4eb23f5f0301471fb2a470ff965dc233147d61c2851b796c7741511a14397d42",
        "network" : "EIP158",
        "postState" : {
            "0x095e7baea6a6c7c4c2dfeb977efac326af552d87" : {
                "balance" : "0x0de0b6b3a76586a0",
                "code" : "0x7feeffffffffffffffffffffffffffffffffffffffffffffffffffffffffffff006000527faaffffffffffffffffffffffffffffffffffffffffffffffffffffffffffffaa602052600060406000620f1206601773945304eb96065b2a98b57a48a06ae28d285a71b56101f4f1600055",
                "nonce" : "0x00",
                "storage" : {
                }
            },
            "0x2adc25665018aa1fe0e6bc666dac8fc2697ff9ba" : {
                "balance" : "0x4563918244f48d98",
                "code" : "",
                "nonce" : "0x00",
                "storage" : {
                }
            },
            "0x945304eb96065b2a98b57a48a06ae28d285a71b5" : {
                "balance" : "0x17",
                "code" : "0x6000355415600957005b60203560003555",
                "nonce" : "0x00",
                "storage" : {
                }
            },
            "0xa94f5374fce5edbc8e2a8697c15331677e6ebf0b" : {
                "balance" : "0x0de0b6b3a761ebc8",
                "code" : "",
                "nonce" : "0x01",
                "storage" : {
                }
            }
        },
        "pre" : {
            "0x095e7baea6a6c7c4c2dfeb977efac326af552d87" : {
                "balance" : "0x0de0b6b3a7640000",
                "code" : "0x7feeffffffffffffffffffffffffffffffffffffffffffffffffffffffffffff006000527faaffffffffffffffffffffffffffffffffffffffffffffffffffffffffffffaa602052600060406000620f1206601773945304eb96065b2a98b57a48a06ae28d285a71b56101f4f1600055",
                "nonce" : "0x00",
                "storage" : {
                }
            },
            "0x945304eb96065b2a98b57a48a06ae28d285a71b5" : {
                "balance" : "0x17",
                "code" : "0x6000355415600957005b60203560003555",
                "nonce" : "0x00",
                "storage" : {
                }
            },
            "0xa94f5374fce5edbc8e2a8697c15331677e6ebf0b" : {
                "balance" : "0x0de0b6b3a7640000",
                "code" : "",
                "nonce" : "0x00",
                "storage" : {
                }
            }
        }
    },
    "CallToNameRegistratorNotMuchMemory1_d0g0v0_Frontier" : {
        "_info" : {
            "comment" : "",
            "filledwith" : "cpp-1.3.0+commit.6e0ce939.Linux.g++",
            "lllcversion" : "Version: 0.4.18-develop.2017.9.25+commit.a72237f2.Linux.g++",
            "source" : "src/BlockchainTestsFiller/GeneralStateTests/stSystemOperationsTest/CallToNameRegistratorNotMuchMemory1_d0g0v0Filler.json",
            "sourceHash" : "c0c91c2e49f387c43237c7d1e9eff4068957e333a2206402d312872f1e6c236a"
        },
        "blocks" : [
            {
                "blockHeader" : {
                    "bloom" : "0x00000000000000000000000000000000000000000000000000000000000000000000000000000000000000000000000000000000000000000000000000000000000000000000000000000000000000000000000000000000000000000000000000000000000000000000000000000000000000000000000000000000000000000000000000000000000000000000000000000000000000000000000000000000000000000000000000000000000000000000000000000000000000000000000000000000000000000000000000000000000000000000000000000000000000000000000000000000000000000000000000000000000000000000000000000000",
                    "coinbase" : "0x2adc25665018aa1fe0e6bc666dac8fc2697ff9ba",
                    "difficulty" : "0x020000",
                    "extraData" : "",
                    "gasLimit" : "0x989680",
                    "gasUsed" : "0x8b04",
                    "hash" : "0x0e1a2aa2476d13bda60a3c49165c7dfff0def652b677fc908574a33577830af1",
                    "mixHash" : "0x4b4044f412b8d273dda054f27263fe0add14587132edfb103fcbf2fe3fde541c",
                    "nonce" : "0xbbc1fb3add78113e",
                    "number" : "0x01",
                    "parentHash" : "0xdb34430888b807a6c3ec82dded0cf0c32ba7a0f567580f989946c460d2fa7609",
                    "receiptTrie" : "0x56c38a7807398658af1fa63f3073c9e134fd3735fb601e30a37f9896f3668ca3",
                    "stateRoot" : "0x73295dd8b008dfa2a494af5254d44fa2af958ddca1339b5ed6eb6779de851bb6",
                    "timestamp" : "0x03e8",
                    "transactionsTrie" : "0x4c5d9bb466add019c254559eb55e402a66b7a663b97d86eeb12deae7631cbd0b",
                    "uncleHash" : "0x1dcc4de8dec75d7aab85b567b6ccd41ad312451b948a7413f0a142fd40d49347"
                },
                "rlp" : "0xf90262f901f7a0db34430888b807a6c3ec82dded0cf0c32ba7a0f567580f989946c460d2fa7609a01dcc4de8dec75d7aab85b567b6ccd41ad312451b948a7413f0a142fd40d49347942adc25665018aa1fe0e6bc666dac8fc2697ff9baa073295dd8b008dfa2a494af5254d44fa2af958ddca1339b5ed6eb6779de851bb6a04c5d9bb466add019c254559eb55e402a66b7a663b97d86eeb12deae7631cbd0ba056c38a7807398658af1fa63f3073c9e134fd3735fb601e30a37f9896f3668ca3b9010000000000000000000000000000000000000000000000000000000000000000000000000000000000000000000000000000000000000000000000000000000000000000000000000000000000000000000000000000000000000000000000000000000000000000000000000000000000000000000000000000000000000000000000000000000000000000000000000000000000000000000000000000000000000000000000000000000000000000000000000000000000000000000000000000000000000000000000000000000000000000000000000000000000000000000000000000000000000000000000000000000000000000000000000000000000830200000183989680828b048203e880a04b4044f412b8d273dda054f27263fe0add14587132edfb103fcbf2fe3fde541c88bbc1fb3add78113ef865f8638001830493e094095e7baea6a6c7c4c2dfeb977efac326af552d87830186a0801ca0b7b326b8747eeaff9ae985a58e503e301493c7ab2856c9b20784c4f037922ecaa053780225776bc2a5f72cc94db55b70f378ffb5e0fb4354ab276437f7be3e6ec1c0",
                "transactions" : [
                    {
                        "data" : "",
                        "gasLimit" : "0x0493e0",
                        "gasPrice" : "0x01",
                        "nonce" : "0x00",
                        "r" : "0xb7b326b8747eeaff9ae985a58e503e301493c7ab2856c9b20784c4f037922eca",
                        "s" : "0x53780225776bc2a5f72cc94db55b70f378ffb5e0fb4354ab276437f7be3e6ec1",
                        "to" : "0x095e7baea6a6c7c4c2dfeb977efac326af552d87",
                        "v" : "0x1c",
                        "value" : "0x0186a0"
                    }
                ],
                "uncleHeaders" : [
                ]
            }
        ],
        "genesisBlockHeader" : {
            "bloom" : "0x00000000000000000000000000000000000000000000000000000000000000000000000000000000000000000000000000000000000000000000000000000000000000000000000000000000000000000000000000000000000000000000000000000000000000000000000000000000000000000000000000000000000000000000000000000000000000000000000000000000000000000000000000000000000000000000000000000000000000000000000000000000000000000000000000000000000000000000000000000000000000000000000000000000000000000000000000000000000000000000000000000000000000000000000000000000",
            "coinbase" : "0x2adc25665018aa1fe0e6bc666dac8fc2697ff9ba",
            "difficulty" : "0x020000",
            "extraData" : "0x42",
            "gasLimit" : "0x989680",
            "gasUsed" : "0x00",
            "hash" : "0xdb34430888b807a6c3ec82dded0cf0c32ba7a0f567580f989946c460d2fa7609",
            "mixHash" : "0x56e81f171bcc55a6ff8345e692c0f86e5b48e01b996cadc001622fb5e363b421",
            "nonce" : "0x0102030405060708",
            "number" : "0x00",
            "parentHash" : "0x0000000000000000000000000000000000000000000000000000000000000000",
            "receiptTrie" : "0x56e81f171bcc55a6ff8345e692c0f86e5b48e01b996cadc001622fb5e363b421",
            "stateRoot" : "0x433467a049714d3b5a6f729efefa34446dee63a7ce9932bbcd943ee1366105e4",
            "timestamp" : "0x03b6",
            "transactionsTrie" : "0x56e81f171bcc55a6ff8345e692c0f86e5b48e01b996cadc001622fb5e363b421",
            "uncleHash" : "0x1dcc4de8dec75d7aab85b567b6ccd41ad312451b948a7413f0a142fd40d49347"
        },
        "genesisRLP" : "0xf901faf901f5a00000000000000000000000000000000000000000000000000000000000000000a01dcc4de8dec75d7aab85b567b6ccd41ad312451b948a7413f0a142fd40d49347942adc25665018aa1fe0e6bc666dac8fc2697ff9baa0433467a049714d3b5a6f729efefa34446dee63a7ce9932bbcd943ee1366105e4a056e81f171bcc55a6ff8345e692c0f86e5b48e01b996cadc001622fb5e363b421a056e81f171bcc55a6ff8345e692c0f86e5b48e01b996cadc001622fb5e363b421b9010000000000000000000000000000000000000000000000000000000000000000000000000000000000000000000000000000000000000000000000000000000000000000000000000000000000000000000000000000000000000000000000000000000000000000000000000000000000000000000000000000000000000000000000000000000000000000000000000000000000000000000000000000000000000000000000000000000000000000000000000000000000000000000000000000000000000000000000000000000000000000000000000000000000000000000000000000000000000000000000000000000000000000000000000000000000830200008083989680808203b642a056e81f171bcc55a6ff8345e692c0f86e5b48e01b996cadc001622fb5e363b421880102030405060708c0c0",
        "lastblockhash" : "0x0e1a2aa2476d13bda60a3c49165c7dfff0def652b677fc908574a33577830af1",
        "network" : "Frontier",
        "postState" : {
            "0x095e7baea6a6c7c4c2dfeb977efac326af552d87" : {
                "balance" : "0x0de0b6b3a76586a0",
                "code" : "0x7feeffffffffffffffffffffffffffffffffffffffffffffffffffffffffffff006000527faaffffffffffffffffffffffffffffffffffffffffffffffffffffffffffffaa602052600060406000620f1206601773945304eb96065b2a98b57a48a06ae28d285a71b56101f4f1600055",
                "nonce" : "0x00",
                "storage" : {
                }
            },
            "0x2adc25665018aa1fe0e6bc666dac8fc2697ff9ba" : {
                "balance" : "0x4563918244f48b04",
                "code" : "",
                "nonce" : "0x00",
                "storage" : {
                }
            },
            "0x945304eb96065b2a98b57a48a06ae28d285a71b5" : {
                "balance" : "0x17",
                "code" : "0x6000355415600957005b60203560003555",
                "nonce" : "0x00",
                "storage" : {
                }
            },
            "0xa94f5374fce5edbc8e2a8697c15331677e6ebf0b" : {
                "balance" : "0x0de0b6b3a761ee5c",
                "code" : "",
                "nonce" : "0x01",
                "storage" : {
                }
            }
        },
        "pre" : {
            "0x095e7baea6a6c7c4c2dfeb977efac326af552d87" : {
                "balance" : "0x0de0b6b3a7640000",
                "code" : "0x7feeffffffffffffffffffffffffffffffffffffffffffffffffffffffffffff006000527faaffffffffffffffffffffffffffffffffffffffffffffffffffffffffffffaa602052600060406000620f1206601773945304eb96065b2a98b57a48a06ae28d285a71b56101f4f1600055",
                "nonce" : "0x00",
                "storage" : {
                }
            },
            "0x945304eb96065b2a98b57a48a06ae28d285a71b5" : {
                "balance" : "0x17",
                "code" : "0x6000355415600957005b60203560003555",
                "nonce" : "0x00",
                "storage" : {
                }
            },
            "0xa94f5374fce5edbc8e2a8697c15331677e6ebf0b" : {
                "balance" : "0x0de0b6b3a7640000",
                "code" : "",
                "nonce" : "0x00",
                "storage" : {
                }
            }
        }
    },
    "CallToNameRegistratorNotMuchMemory1_d0g0v0_Homestead" : {
        "_info" : {
            "comment" : "",
            "filledwith" : "cpp-1.3.0+commit.6e0ce939.Linux.g++",
            "lllcversion" : "Version: 0.4.18-develop.2017.9.25+commit.a72237f2.Linux.g++",
            "source" : "src/BlockchainTestsFiller/GeneralStateTests/stSystemOperationsTest/CallToNameRegistratorNotMuchMemory1_d0g0v0Filler.json",
            "sourceHash" : "c0c91c2e49f387c43237c7d1e9eff4068957e333a2206402d312872f1e6c236a"
        },
        "blocks" : [
            {
                "blockHeader" : {
                    "bloom" : "0x00000000000000000000000000000000000000000000000000000000000000000000000000000000000000000000000000000000000000000000000000000000000000000000000000000000000000000000000000000000000000000000000000000000000000000000000000000000000000000000000000000000000000000000000000000000000000000000000000000000000000000000000000000000000000000000000000000000000000000000000000000000000000000000000000000000000000000000000000000000000000000000000000000000000000000000000000000000000000000000000000000000000000000000000000000000",
                    "coinbase" : "0x2adc25665018aa1fe0e6bc666dac8fc2697ff9ba",
                    "difficulty" : "0x020000",
                    "extraData" : "",
                    "gasLimit" : "0x989680",
                    "gasUsed" : "0x8b04",
                    "hash" : "0x77cc06380aa9adc63908ad4b45d45a5f395cf1473dd1bf437701bb0882659d7c",
                    "mixHash" : "0x12f5bb2f75dfe5627253650c6ce0b7582895a246572034f97868ddc2f1811a45",
                    "nonce" : "0x0fcf2928d5c48ef2",
                    "number" : "0x01",
                    "parentHash" : "0xdb34430888b807a6c3ec82dded0cf0c32ba7a0f567580f989946c460d2fa7609",
                    "receiptTrie" : "0x56c38a7807398658af1fa63f3073c9e134fd3735fb601e30a37f9896f3668ca3",
                    "stateRoot" : "0x73295dd8b008dfa2a494af5254d44fa2af958ddca1339b5ed6eb6779de851bb6",
                    "timestamp" : "0x03e8",
                    "transactionsTrie" : "0x4c5d9bb466add019c254559eb55e402a66b7a663b97d86eeb12deae7631cbd0b",
                    "uncleHash" : "0x1dcc4de8dec75d7aab85b567b6ccd41ad312451b948a7413f0a142fd40d49347"
                },
                "rlp" : "0xf90262f901f7a0db34430888b807a6c3ec82dded0cf0c32ba7a0f567580f989946c460d2fa7609a01dcc4de8dec75d7aab85b567b6ccd41ad312451b948a7413f0a142fd40d49347942adc25665018aa1fe0e6bc666dac8fc2697ff9baa073295dd8b008dfa2a494af5254d44fa2af958ddca1339b5ed6eb6779de851bb6a04c5d9bb466add019c254559eb55e402a66b7a663b97d86eeb12deae7631cbd0ba056c38a7807398658af1fa63f3073c9e134fd3735fb601e30a37f9896f3668ca3b9010000000000000000000000000000000000000000000000000000000000000000000000000000000000000000000000000000000000000000000000000000000000000000000000000000000000000000000000000000000000000000000000000000000000000000000000000000000000000000000000000000000000000000000000000000000000000000000000000000000000000000000000000000000000000000000000000000000000000000000000000000000000000000000000000000000000000000000000000000000000000000000000000000000000000000000000000000000000000000000000000000000000000000000000000000000000830200000183989680828b048203e880a012f5bb2f75dfe5627253650c6ce0b7582895a246572034f97868ddc2f1811a45880fcf2928d5c48ef2f865f8638001830493e094095e7baea6a6c7c4c2dfeb977efac326af552d87830186a0801ca0b7b326b8747eeaff9ae985a58e503e301493c7ab2856c9b20784c4f037922ecaa053780225776bc2a5f72cc94db55b70f378ffb5e0fb4354ab276437f7be3e6ec1c0",
                "transactions" : [
                    {
                        "data" : "",
                        "gasLimit" : "0x0493e0",
                        "gasPrice" : "0x01",
                        "nonce" : "0x00",
                        "r" : "0xb7b326b8747eeaff9ae985a58e503e301493c7ab2856c9b20784c4f037922eca",
                        "s" : "0x53780225776bc2a5f72cc94db55b70f378ffb5e0fb4354ab276437f7be3e6ec1",
                        "to" : "0x095e7baea6a6c7c4c2dfeb977efac326af552d87",
                        "v" : "0x1c",
                        "value" : "0x0186a0"
                    }
                ],
                "uncleHeaders" : [
                ]
            }
        ],
        "genesisBlockHeader" : {
            "bloom" : "0x00000000000000000000000000000000000000000000000000000000000000000000000000000000000000000000000000000000000000000000000000000000000000000000000000000000000000000000000000000000000000000000000000000000000000000000000000000000000000000000000000000000000000000000000000000000000000000000000000000000000000000000000000000000000000000000000000000000000000000000000000000000000000000000000000000000000000000000000000000000000000000000000000000000000000000000000000000000000000000000000000000000000000000000000000000000",
            "coinbase" : "0x2adc25665018aa1fe0e6bc666dac8fc2697ff9ba",
            "difficulty" : "0x020000",
            "extraData" : "0x42",
            "gasLimit" : "0x989680",
            "gasUsed" : "0x00",
            "hash" : "0xdb34430888b807a6c3ec82dded0cf0c32ba7a0f567580f989946c460d2fa7609",
            "mixHash" : "0x56e81f171bcc55a6ff8345e692c0f86e5b48e01b996cadc001622fb5e363b421",
            "nonce" : "0x0102030405060708",
            "number" : "0x00",
            "parentHash" : "0x0000000000000000000000000000000000000000000000000000000000000000",
            "receiptTrie" : "0x56e81f171bcc55a6ff8345e692c0f86e5b48e01b996cadc001622fb5e363b421",
            "stateRoot" : "0x433467a049714d3b5a6f729efefa34446dee63a7ce9932bbcd943ee1366105e4",
            "timestamp" : "0x03b6",
            "transactionsTrie" : "0x56e81f171bcc55a6ff8345e692c0f86e5b48e01b996cadc001622fb5e363b421",
            "uncleHash" : "0x1dcc4de8dec75d7aab85b567b6ccd41ad312451b948a7413f0a142fd40d49347"
        },
        "genesisRLP" : "0xf901faf901f5a00000000000000000000000000000000000000000000000000000000000000000a01dcc4de8dec75d7aab85b567b6ccd41ad312451b948a7413f0a142fd40d49347942adc25665018aa1fe0e6bc666dac8fc2697ff9baa0433467a049714d3b5a6f729efefa34446dee63a7ce9932bbcd943ee1366105e4a056e81f171bcc55a6ff8345e692c0f86e5b48e01b996cadc001622fb5e363b421a056e81f171bcc55a6ff8345e692c0f86e5b48e01b996cadc001622fb5e363b421b9010000000000000000000000000000000000000000000000000000000000000000000000000000000000000000000000000000000000000000000000000000000000000000000000000000000000000000000000000000000000000000000000000000000000000000000000000000000000000000000000000000000000000000000000000000000000000000000000000000000000000000000000000000000000000000000000000000000000000000000000000000000000000000000000000000000000000000000000000000000000000000000000000000000000000000000000000000000000000000000000000000000000000000000000000000000000830200008083989680808203b642a056e81f171bcc55a6ff8345e692c0f86e5b48e01b996cadc001622fb5e363b421880102030405060708c0c0",
        "lastblockhash" : "0x77cc06380aa9adc63908ad4b45d45a5f395cf1473dd1bf437701bb0882659d7c",
        "network" : "Homestead",
        "postState" : {
            "0x095e7baea6a6c7c4c2dfeb977efac326af552d87" : {
                "balance" : "0x0de0b6b3a76586a0",
                "code" : "0x7feeffffffffffffffffffffffffffffffffffffffffffffffffffffffffffff006000527faaffffffffffffffffffffffffffffffffffffffffffffffffffffffffffffaa602052600060406000620f1206601773945304eb96065b2a98b57a48a06ae28d285a71b56101f4f1600055",
                "nonce" : "0x00",
                "storage" : {
                }
            },
            "0x2adc25665018aa1fe0e6bc666dac8fc2697ff9ba" : {
                "balance" : "0x4563918244f48b04",
                "code" : "",
                "nonce" : "0x00",
                "storage" : {
                }
            },
            "0x945304eb96065b2a98b57a48a06ae28d285a71b5" : {
                "balance" : "0x17",
                "code" : "0x6000355415600957005b60203560003555",
                "nonce" : "0x00",
                "storage" : {
                }
            },
            "0xa94f5374fce5edbc8e2a8697c15331677e6ebf0b" : {
                "balance" : "0x0de0b6b3a761ee5c",
                "code" : "",
                "nonce" : "0x01",
                "storage" : {
                }
            }
        },
        "pre" : {
            "0x095e7baea6a6c7c4c2dfeb977efac326af552d87" : {
                "balance" : "0x0de0b6b3a7640000",
                "code" : "0x7feeffffffffffffffffffffffffffffffffffffffffffffffffffffffffffff006000527faaffffffffffffffffffffffffffffffffffffffffffffffffffffffffffffaa602052600060406000620f1206601773945304eb96065b2a98b57a48a06ae28d285a71b56101f4f1600055",
                "nonce" : "0x00",
                "storage" : {
                }
            },
            "0x945304eb96065b2a98b57a48a06ae28d285a71b5" : {
                "balance" : "0x17",
                "code" : "0x6000355415600957005b60203560003555",
                "nonce" : "0x00",
                "storage" : {
                }
            },
            "0xa94f5374fce5edbc8e2a8697c15331677e6ebf0b" : {
                "balance" : "0x0de0b6b3a7640000",
                "code" : "",
                "nonce" : "0x00",
                "storage" : {
                }
            }
        }
    }
}