{
    "CallToNameRegistratorZeorSizeMemExpansion_d0g0v0_Byzantium" : {
        "_info" : {
            "comment" : "",
            "filledwith" : "cpp-1.3.0+commit.6e0ce939.Linux.g++",
            "lllcversion" : "Version: 0.4.18-develop.2017.9.25+commit.a72237f2.Linux.g++",
            "source" : "src/BlockchainTestsFiller/GeneralStateTests/stSystemOperationsTest/CallToNameRegistratorZeorSizeMemExpansion_d0g0v0Filler.json",
            "sourceHash" : "9c2e1e91c112fd14c801a4a26370e305deda1a7d63ae4f02975e3a4ea2dcde15"
        },
        "blocks" : [
            {
                "blockHeader" : {
                    "bloom" : "0x00000000000000000000000000000000000000000000000000000000000000000000000000000000000000000000000000000000000000000000000000000000000000000000000000000000000000000000000000000000000000000000000000000000000000000000000000000000000000000000000000000000000000000000000000000000000000000000000000000000000000000000000000000000000000000000000000000000000000000000000000000000000000000000000000000000000000000000000000000000000000000000000000000000000000000000000000000000000000000000000000000000000000000000000000000000",
                    "coinbase" : "0x2adc25665018aa1fe0e6bc666dac8fc2697ff9ba",
                    "difficulty" : "0x020000",
                    "extraData" : "",
                    "gasLimit" : "0x989680",
                    "gasUsed" : "0x8f8c",
                    "hash" : "0x6b6b2135efa8e290122a76f61a4781b8d42b3c9bb0719c0a74203ee78a7a530b",
                    "mixHash" : "0xf3187a303027776ae3b1a284ae35d5b38b83fab6e7f257314b5bf37fcd4b629f",
                    "nonce" : "0x0795b5b1c7601b34",
                    "number" : "0x01",
                    "parentHash" : "0x3c7ffc12aa9e0a5d88da83ad51a1c4b728475a42442043fe63ef97fd19940b3c",
                    "receiptTrie" : "0xb4291cc57b1c4d3861e5d3799d5ed076ef1acbfddd31fc0dd3f8d3ef79f4aee2",
                    "stateRoot" : "0x1b08cfbc1dd2ceef17d9c7ef5878dfc4609952dd8577c8d9828dc104b6af771d",
                    "timestamp" : "0x03e8",
                    "transactionsTrie" : "0x4c5d9bb466add019c254559eb55e402a66b7a663b97d86eeb12deae7631cbd0b",
                    "uncleHash" : "0x1dcc4de8dec75d7aab85b567b6ccd41ad312451b948a7413f0a142fd40d49347"
                },
                "rlp" : "0xf90262f901f7a03c7ffc12aa9e0a5d88da83ad51a1c4b728475a42442043fe63ef97fd19940b3ca01dcc4de8dec75d7aab85b567b6ccd41ad312451b948a7413f0a142fd40d49347942adc25665018aa1fe0e6bc666dac8fc2697ff9baa01b08cfbc1dd2ceef17d9c7ef5878dfc4609952dd8577c8d9828dc104b6af771da04c5d9bb466add019c254559eb55e402a66b7a663b97d86eeb12deae7631cbd0ba0b4291cc57b1c4d3861e5d3799d5ed076ef1acbfddd31fc0dd3f8d3ef79f4aee2b9010000000000000000000000000000000000000000000000000000000000000000000000000000000000000000000000000000000000000000000000000000000000000000000000000000000000000000000000000000000000000000000000000000000000000000000000000000000000000000000000000000000000000000000000000000000000000000000000000000000000000000000000000000000000000000000000000000000000000000000000000000000000000000000000000000000000000000000000000000000000000000000000000000000000000000000000000000000000000000000000000000000000000000000000000000000000830200000183989680828f8c8203e880a0f3187a303027776ae3b1a284ae35d5b38b83fab6e7f257314b5bf37fcd4b629f880795b5b1c7601b34f865f8638001830493e094095e7baea6a6c7c4c2dfeb977efac326af552d87830186a0801ca0b7b326b8747eeaff9ae985a58e503e301493c7ab2856c9b20784c4f037922ecaa053780225776bc2a5f72cc94db55b70f378ffb5e0fb4354ab276437f7be3e6ec1c0",
                "transactions" : [
                    {
                        "data" : "",
                        "gasLimit" : "0x0493e0",
                        "gasPrice" : "0x01",
                        "nonce" : "0x00",
                        "r" : "0xb7b326b8747eeaff9ae985a58e503e301493c7ab2856c9b20784c4f037922eca",
                        "s" : "0x53780225776bc2a5f72cc94db55b70f378ffb5e0fb4354ab276437f7be3e6ec1",
                        "to" : "0x095e7baea6a6c7c4c2dfeb977efac326af552d87",
                        "v" : "0x1c",
                        "value" : "0x0186a0"
                    }
                ],
                "uncleHeaders" : [
                ]
            }
        ],
        "genesisBlockHeader" : {
            "bloom" : "0x00000000000000000000000000000000000000000000000000000000000000000000000000000000000000000000000000000000000000000000000000000000000000000000000000000000000000000000000000000000000000000000000000000000000000000000000000000000000000000000000000000000000000000000000000000000000000000000000000000000000000000000000000000000000000000000000000000000000000000000000000000000000000000000000000000000000000000000000000000000000000000000000000000000000000000000000000000000000000000000000000000000000000000000000000000000",
            "coinbase" : "0x2adc25665018aa1fe0e6bc666dac8fc2697ff9ba",
            "difficulty" : "0x020000",
            "extraData" : "0x42",
            "gasLimit" : "0x989680",
            "gasUsed" : "0x00",
            "hash" : "0x3c7ffc12aa9e0a5d88da83ad51a1c4b728475a42442043fe63ef97fd19940b3c",
            "mixHash" : "0x56e81f171bcc55a6ff8345e692c0f86e5b48e01b996cadc001622fb5e363b421",
            "nonce" : "0x0102030405060708",
            "number" : "0x00",
            "parentHash" : "0x0000000000000000000000000000000000000000000000000000000000000000",
            "receiptTrie" : "0x56e81f171bcc55a6ff8345e692c0f86e5b48e01b996cadc001622fb5e363b421",
            "stateRoot" : "0x4178032bda1050ff2a3a095c601378ee19d5cb05cc3d20f74953f09b9f05d2f1",
            "timestamp" : "0x03b6",
            "transactionsTrie" : "0x56e81f171bcc55a6ff8345e692c0f86e5b48e01b996cadc001622fb5e363b421",
            "uncleHash" : "0x1dcc4de8dec75d7aab85b567b6ccd41ad312451b948a7413f0a142fd40d49347"
        },
        "genesisRLP" : "0xf901faf901f5a00000000000000000000000000000000000000000000000000000000000000000a01dcc4de8dec75d7aab85b567b6ccd41ad312451b948a7413f0a142fd40d49347942adc25665018aa1fe0e6bc666dac8fc2697ff9baa04178032bda1050ff2a3a095c601378ee19d5cb05cc3d20f74953f09b9f05d2f1a056e81f171bcc55a6ff8345e692c0f86e5b48e01b996cadc001622fb5e363b421a056e81f171bcc55a6ff8345e692c0f86e5b48e01b996cadc001622fb5e363b421b9010000000000000000000000000000000000000000000000000000000000000000000000000000000000000000000000000000000000000000000000000000000000000000000000000000000000000000000000000000000000000000000000000000000000000000000000000000000000000000000000000000000000000000000000000000000000000000000000000000000000000000000000000000000000000000000000000000000000000000000000000000000000000000000000000000000000000000000000000000000000000000000000000000000000000000000000000000000000000000000000000000000000000000000000000000000000830200008083989680808203b642a056e81f171bcc55a6ff8345e692c0f86e5b48e01b996cadc001622fb5e363b421880102030405060708c0c0",
        "lastblockhash" : "0x6b6b2135efa8e290122a76f61a4781b8d42b3c9bb0719c0a74203ee78a7a530b",
        "network" : "Byzantium",
        "postState" : {
            "0x095e7baea6a6c7c4c2dfeb977efac326af552d87" : {
                "balance" : "0x0de0b6b3a76586a0",
                "code" : "0x7fffffffffffffffffffffffffffffffffffffffffffffffffffffffffffffffff6000527faaffffffffffffffffffffffffffffffffffffffffffffffffffffffffffffaa6020526000600060006000601773945304eb96065b2a98b57a48a06ae28d285a71b56103e8f1600055",
                "nonce" : "0x00",
                "storage" : {
                }
            },
            "0x2adc25665018aa1fe0e6bc666dac8fc2697ff9ba" : {
                "balance" : "0x29a2241af62c8f8c",
                "code" : "",
                "nonce" : "0x00",
                "storage" : {
                }
            },
            "0x945304eb96065b2a98b57a48a06ae28d285a71b5" : {
                "balance" : "0x17",
                "code" : "0x6000355415600957005b60203560003555",
                "nonce" : "0x00",
                "storage" : {
                }
            },
            "0xa94f5374fce5edbc8e2a8697c15331677e6ebf0b" : {
                "balance" : "0x0de0b6b3a761e9d4",
                "code" : "",
                "nonce" : "0x01",
                "storage" : {
                }
            }
        },
        "pre" : {
            "0x095e7baea6a6c7c4c2dfeb977efac326af552d87" : {
                "balance" : "0x0de0b6b3a7640000",
                "code" : "0x7fffffffffffffffffffffffffffffffffffffffffffffffffffffffffffffffff6000527faaffffffffffffffffffffffffffffffffffffffffffffffffffffffffffffaa6020526000600060006000601773945304eb96065b2a98b57a48a06ae28d285a71b56103e8f1600055",
                "nonce" : "0x00",
                "storage" : {
                }
            },
            "0x945304eb96065b2a98b57a48a06ae28d285a71b5" : {
                "balance" : "0x17",
                "code" : "0x6000355415600957005b60203560003555",
                "nonce" : "0x00",
                "storage" : {
                }
            },
            "0xa94f5374fce5edbc8e2a8697c15331677e6ebf0b" : {
                "balance" : "0x0de0b6b3a7640000",
                "code" : "",
                "nonce" : "0x00",
                "storage" : {
                }
            }
        }
    },
    "CallToNameRegistratorZeorSizeMemExpansion_d0g0v0_EIP150" : {
        "_info" : {
            "comment" : "",
            "filledwith" : "cpp-1.3.0+commit.6e0ce939.Linux.g++",
            "lllcversion" : "Version: 0.4.18-develop.2017.9.25+commit.a72237f2.Linux.g++",
            "source" : "src/BlockchainTestsFiller/GeneralStateTests/stSystemOperationsTest/CallToNameRegistratorZeorSizeMemExpansion_d0g0v0Filler.json",
            "sourceHash" : "9c2e1e91c112fd14c801a4a26370e305deda1a7d63ae4f02975e3a4ea2dcde15"
        },
        "blocks" : [
            {
                "blockHeader" : {
                    "bloom" : "0x00000000000000000000000000000000000000000000000000000000000000000000000000000000000000000000000000000000000000000000000000000000000000000000000000000000000000000000000000000000000000000000000000000000000000000000000000000000000000000000000000000000000000000000000000000000000000000000000000000000000000000000000000000000000000000000000000000000000000000000000000000000000000000000000000000000000000000000000000000000000000000000000000000000000000000000000000000000000000000000000000000000000000000000000000000000",
                    "coinbase" : "0x2adc25665018aa1fe0e6bc666dac8fc2697ff9ba",
                    "difficulty" : "0x020000",
                    "extraData" : "",
                    "gasLimit" : "0x989680",
                    "gasUsed" : "0x8f8c",
                    "hash" : "0x9d2b758d3da415f234cb5202e8fcde5ceca4259a796e0b4df325f6bcdbcb78b2",
                    "mixHash" : "0x8db4a826c9ed089f1863ab12a0e650e867f2cff2113244bd02fb87898af66672",
                    "nonce" : "0x68407c7caf319180",
                    "number" : "0x01",
                    "parentHash" : "0x3c7ffc12aa9e0a5d88da83ad51a1c4b728475a42442043fe63ef97fd19940b3c",
                    "receiptTrie" : "0x0f8f684dae5e7fb4aa060ea3f74e55aacd6cdf5645d21ac7d3b2231b04ccfff3",
                    "stateRoot" : "0x5db6f9661b4b2175acb58fffc2e458ead4839421912abf273c067b763b589071",
                    "timestamp" : "0x03e8",
                    "transactionsTrie" : "0x4c5d9bb466add019c254559eb55e402a66b7a663b97d86eeb12deae7631cbd0b",
                    "uncleHash" : "0x1dcc4de8dec75d7aab85b567b6ccd41ad312451b948a7413f0a142fd40d49347"
                },
                "rlp" : "0xf90262f901f7a03c7ffc12aa9e0a5d88da83ad51a1c4b728475a42442043fe63ef97fd19940b3ca01dcc4de8dec75d7aab85b567b6ccd41ad312451b948a7413f0a142fd40d49347942adc25665018aa1fe0e6bc666dac8fc2697ff9baa05db6f9661b4b2175acb58fffc2e458ead4839421912abf273c067b763b589071a04c5d9bb466add019c254559eb55e402a66b7a663b97d86eeb12deae7631cbd0ba00f8f684dae5e7fb4aa060ea3f74e55aacd6cdf5645d21ac7d3b2231b04ccfff3b9010000000000000000000000000000000000000000000000000000000000000000000000000000000000000000000000000000000000000000000000000000000000000000000000000000000000000000000000000000000000000000000000000000000000000000000000000000000000000000000000000000000000000000000000000000000000000000000000000000000000000000000000000000000000000000000000000000000000000000000000000000000000000000000000000000000000000000000000000000000000000000000000000000000000000000000000000000000000000000000000000000000000000000000000000000000000830200000183989680828f8c8203e880a08db4a826c9ed089f1863ab12a0e650e867f2cff2113244bd02fb87898af666728868407c7caf319180f865f8638001830493e094095e7baea6a6c7c4c2dfeb977efac326af552d87830186a0801ca0b7b326b8747eeaff9ae985a58e503e301493c7ab2856c9b20784c4f037922ecaa053780225776bc2a5f72cc94db55b70f378ffb5e0fb4354ab276437f7be3e6ec1c0",
                "transactions" : [
                    {
                        "data" : "",
                        "gasLimit" : "0x0493e0",
                        "gasPrice" : "0x01",
                        "nonce" : "0x00",
                        "r" : "0xb7b326b8747eeaff9ae985a58e503e301493c7ab2856c9b20784c4f037922eca",
                        "s" : "0x53780225776bc2a5f72cc94db55b70f378ffb5e0fb4354ab276437f7be3e6ec1",
                        "to" : "0x095e7baea6a6c7c4c2dfeb977efac326af552d87",
                        "v" : "0x1c",
                        "value" : "0x0186a0"
                    }
                ],
                "uncleHeaders" : [
                ]
            }
        ],
        "genesisBlockHeader" : {
            "bloom" : "0x00000000000000000000000000000000000000000000000000000000000000000000000000000000000000000000000000000000000000000000000000000000000000000000000000000000000000000000000000000000000000000000000000000000000000000000000000000000000000000000000000000000000000000000000000000000000000000000000000000000000000000000000000000000000000000000000000000000000000000000000000000000000000000000000000000000000000000000000000000000000000000000000000000000000000000000000000000000000000000000000000000000000000000000000000000000",
            "coinbase" : "0x2adc25665018aa1fe0e6bc666dac8fc2697ff9ba",
            "difficulty" : "0x020000",
            "extraData" : "0x42",
            "gasLimit" : "0x989680",
            "gasUsed" : "0x00",
            "hash" : "0x3c7ffc12aa9e0a5d88da83ad51a1c4b728475a42442043fe63ef97fd19940b3c",
            "mixHash" : "0x56e81f171bcc55a6ff8345e692c0f86e5b48e01b996cadc001622fb5e363b421",
            "nonce" : "0x0102030405060708",
            "number" : "0x00",
            "parentHash" : "0x0000000000000000000000000000000000000000000000000000000000000000",
            "receiptTrie" : "0x56e81f171bcc55a6ff8345e692c0f86e5b48e01b996cadc001622fb5e363b421",
            "stateRoot" : "0x4178032bda1050ff2a3a095c601378ee19d5cb05cc3d20f74953f09b9f05d2f1",
            "timestamp" : "0x03b6",
            "transactionsTrie" : "0x56e81f171bcc55a6ff8345e692c0f86e5b48e01b996cadc001622fb5e363b421",
            "uncleHash" : "0x1dcc4de8dec75d7aab85b567b6ccd41ad312451b948a7413f0a142fd40d49347"
        },
        "genesisRLP" : "0xf901faf901f5a00000000000000000000000000000000000000000000000000000000000000000a01dcc4de8dec75d7aab85b567b6ccd41ad312451b948a7413f0a142fd40d49347942adc25665018aa1fe0e6bc666dac8fc2697ff9baa04178032bda1050ff2a3a095c601378ee19d5cb05cc3d20f74953f09b9f05d2f1a056e81f171bcc55a6ff8345e692c0f86e5b48e01b996cadc001622fb5e363b421a056e81f171bcc55a6ff8345e692c0f86e5b48e01b996cadc001622fb5e363b421b9010000000000000000000000000000000000000000000000000000000000000000000000000000000000000000000000000000000000000000000000000000000000000000000000000000000000000000000000000000000000000000000000000000000000000000000000000000000000000000000000000000000000000000000000000000000000000000000000000000000000000000000000000000000000000000000000000000000000000000000000000000000000000000000000000000000000000000000000000000000000000000000000000000000000000000000000000000000000000000000000000000000000000000000000000000000000830200008083989680808203b642a056e81f171bcc55a6ff8345e692c0f86e5b48e01b996cadc001622fb5e363b421880102030405060708c0c0",
        "lastblockhash" : "0x9d2b758d3da415f234cb5202e8fcde5ceca4259a796e0b4df325f6bcdbcb78b2",
        "network" : "EIP150",
        "postState" : {
            "0x095e7baea6a6c7c4c2dfeb977efac326af552d87" : {
                "balance" : "0x0de0b6b3a76586a0",
                "code" : "0x7fffffffffffffffffffffffffffffffffffffffffffffffffffffffffffffffff6000527faaffffffffffffffffffffffffffffffffffffffffffffffffffffffffffffaa6020526000600060006000601773945304eb96065b2a98b57a48a06ae28d285a71b56103e8f1600055",
                "nonce" : "0x00",
                "storage" : {
                }
            },
            "0x2adc25665018aa1fe0e6bc666dac8fc2697ff9ba" : {
                "balance" : "0x4563918244f48f8c",
                "code" : "",
                "nonce" : "0x00",
                "storage" : {
                }
            },
            "0x945304eb96065b2a98b57a48a06ae28d285a71b5" : {
                "balance" : "0x17",
                "code" : "0x6000355415600957005b60203560003555",
                "nonce" : "0x00",
                "storage" : {
                }
            },
            "0xa94f5374fce5edbc8e2a8697c15331677e6ebf0b" : {
                "balance" : "0x0de0b6b3a761e9d4",
                "code" : "",
                "nonce" : "0x01",
                "storage" : {
                }
            }
        },
        "pre" : {
            "0x095e7baea6a6c7c4c2dfeb977efac326af552d87" : {
                "balance" : "0x0de0b6b3a7640000",
                "code" : "0x7fffffffffffffffffffffffffffffffffffffffffffffffffffffffffffffffff6000527faaffffffffffffffffffffffffffffffffffffffffffffffffffffffffffffaa6020526000600060006000601773945304eb96065b2a98b57a48a06ae28d285a71b56103e8f1600055",
                "nonce" : "0x00",
                "storage" : {
                }
            },
            "0x945304eb96065b2a98b57a48a06ae28d285a71b5" : {
                "balance" : "0x17",
                "code" : "0x6000355415600957005b60203560003555",
                "nonce" : "0x00",
                "storage" : {
                }
            },
            "0xa94f5374fce5edbc8e2a8697c15331677e6ebf0b" : {
                "balance" : "0x0de0b6b3a7640000",
                "code" : "",
                "nonce" : "0x00",
                "storage" : {
                }
            }
        }
    },
    "CallToNameRegistratorZeorSizeMemExpansion_d0g0v0_EIP158" : {
        "_info" : {
            "comment" : "",
            "filledwith" : "cpp-1.3.0+commit.6e0ce939.Linux.g++",
            "lllcversion" : "Version: 0.4.18-develop.2017.9.25+commit.a72237f2.Linux.g++",
            "source" : "src/BlockchainTestsFiller/GeneralStateTests/stSystemOperationsTest/CallToNameRegistratorZeorSizeMemExpansion_d0g0v0Filler.json",
            "sourceHash" : "9c2e1e91c112fd14c801a4a26370e305deda1a7d63ae4f02975e3a4ea2dcde15"
        },
        "blocks" : [
            {
                "blockHeader" : {
                    "bloom" : "0x00000000000000000000000000000000000000000000000000000000000000000000000000000000000000000000000000000000000000000000000000000000000000000000000000000000000000000000000000000000000000000000000000000000000000000000000000000000000000000000000000000000000000000000000000000000000000000000000000000000000000000000000000000000000000000000000000000000000000000000000000000000000000000000000000000000000000000000000000000000000000000000000000000000000000000000000000000000000000000000000000000000000000000000000000000000",
                    "coinbase" : "0x2adc25665018aa1fe0e6bc666dac8fc2697ff9ba",
                    "difficulty" : "0x020000",
                    "extraData" : "",
                    "gasLimit" : "0x989680",
                    "gasUsed" : "0x8f8c",
                    "hash" : "0x2bb0f45ca5c93f4bd566df1a13f3b722d076f2f2584a2d32aa59f9e091129df0",
                    "mixHash" : "0x3933c01e73de62b81ef2d844e26396a0062bd1260c6aa7e05a69b8401f321bf4",
                    "nonce" : "0xd33c5f69a8cd05ae",
                    "number" : "0x01",
                    "parentHash" : "0x3c7ffc12aa9e0a5d88da83ad51a1c4b728475a42442043fe63ef97fd19940b3c",
                    "receiptTrie" : "0x0f8f684dae5e7fb4aa060ea3f74e55aacd6cdf5645d21ac7d3b2231b04ccfff3",
                    "stateRoot" : "0x5db6f9661b4b2175acb58fffc2e458ead4839421912abf273c067b763b589071",
                    "timestamp" : "0x03e8",
                    "transactionsTrie" : "0x4c5d9bb466add019c254559eb55e402a66b7a663b97d86eeb12deae7631cbd0b",
                    "uncleHash" : "0x1dcc4de8dec75d7aab85b567b6ccd41ad312451b948a7413f0a142fd40d49347"
                },
                "rlp" : "0xf90262f901f7a03c7ffc12aa9e0a5d88da83ad51a1c4b728475a42442043fe63ef97fd19940b3ca01dcc4de8dec75d7aab85b567b6ccd41ad312451b948a7413f0a142fd40d49347942adc25665018aa1fe0e6bc666dac8fc2697ff9baa05db6f9661b4b2175acb58fffc2e458ead4839421912abf273c067b763b589071a04c5d9bb466add019c254559eb55e402a66b7a663b97d86eeb12deae7631cbd0ba00f8f684dae5e7fb4aa060ea3f74e55aacd6cdf5645d21ac7d3b2231b04ccfff3b9010000000000000000000000000000000000000000000000000000000000000000000000000000000000000000000000000000000000000000000000000000000000000000000000000000000000000000000000000000000000000000000000000000000000000000000000000000000000000000000000000000000000000000000000000000000000000000000000000000000000000000000000000000000000000000000000000000000000000000000000000000000000000000000000000000000000000000000000000000000000000000000000000000000000000000000000000000000000000000000000000000000000000000000000000000000000830200000183989680828f8c8203e880a03933c01e73de62b81ef2d844e26396a0062bd1260c6aa7e05a69b8401f321bf488d33c5f69a8cd05aef865f8638001830493e094095e7baea6a6c7c4c2dfeb977efac326af552d87830186a0801ca0b7b326b8747eeaff9ae985a58e503e301493c7ab2856c9b20784c4f037922ecaa053780225776bc2a5f72cc94db55b70f378ffb5e0fb4354ab276437f7be3e6ec1c0",
                "transactions" : [
                    {
                        "data" : "",
                        "gasLimit" : "0x0493e0",
                        "gasPrice" : "0x01",
                        "nonce" : "0x00",
                        "r" : "0xb7b326b8747eeaff9ae985a58e503e301493c7ab2856c9b20784c4f037922eca",
                        "s" : "0x53780225776bc2a5f72cc94db55b70f378ffb5e0fb4354ab276437f7be3e6ec1",
                        "to" : "0x095e7baea6a6c7c4c2dfeb977efac326af552d87",
                        "v" : "0x1c",
                        "value" : "0x0186a0"
                    }
                ],
                "uncleHeaders" : [
                ]
            }
        ],
        "genesisBlockHeader" : {
            "bloom" : "0x00000000000000000000000000000000000000000000000000000000000000000000000000000000000000000000000000000000000000000000000000000000000000000000000000000000000000000000000000000000000000000000000000000000000000000000000000000000000000000000000000000000000000000000000000000000000000000000000000000000000000000000000000000000000000000000000000000000000000000000000000000000000000000000000000000000000000000000000000000000000000000000000000000000000000000000000000000000000000000000000000000000000000000000000000000000",
            "coinbase" : "0x2adc25665018aa1fe0e6bc666dac8fc2697ff9ba",
            "difficulty" : "0x020000",
            "extraData" : "0x42",
            "gasLimit" : "0x989680",
            "gasUsed" : "0x00",
            "hash" : "0x3c7ffc12aa9e0a5d88da83ad51a1c4b728475a42442043fe63ef97fd19940b3c",
            "mixHash" : "0x56e81f171bcc55a6ff8345e692c0f86e5b48e01b996cadc001622fb5e363b421",
            "nonce" : "0x0102030405060708",
            "number" : "0x00",
            "parentHash" : "0x0000000000000000000000000000000000000000000000000000000000000000",
            "receiptTrie" : "0x56e81f171bcc55a6ff8345e692c0f86e5b48e01b996cadc001622fb5e363b421",
            "stateRoot" : "0x4178032bda1050ff2a3a095c601378ee19d5cb05cc3d20f74953f09b9f05d2f1",
            "timestamp" : "0x03b6",
            "transactionsTrie" : "0x56e81f171bcc55a6ff8345e692c0f86e5b48e01b996cadc001622fb5e363b421",
            "uncleHash" : "0x1dcc4de8dec75d7aab85b567b6ccd41ad312451b948a7413f0a142fd40d49347"
        },
        "genesisRLP" : "0xf901faf901f5a00000000000000000000000000000000000000000000000000000000000000000a01dcc4de8dec75d7aab85b567b6ccd41ad312451b948a7413f0a142fd40d49347942adc25665018aa1fe0e6bc666dac8fc2697ff9baa04178032bda1050ff2a3a095c601378ee19d5cb05cc3d20f74953f09b9f05d2f1a056e81f171bcc55a6ff8345e692c0f86e5b48e01b996cadc001622fb5e363b421a056e81f171bcc55a6ff8345e692c0f86e5b48e01b996cadc001622fb5e363b421b9010000000000000000000000000000000000000000000000000000000000000000000000000000000000000000000000000000000000000000000000000000000000000000000000000000000000000000000000000000000000000000000000000000000000000000000000000000000000000000000000000000000000000000000000000000000000000000000000000000000000000000000000000000000000000000000000000000000000000000000000000000000000000000000000000000000000000000000000000000000000000000000000000000000000000000000000000000000000000000000000000000000000000000000000000000000000830200008083989680808203b642a056e81f171bcc55a6ff8345e692c0f86e5b48e01b996cadc001622fb5e363b421880102030405060708c0c0",
        "lastblockhash" : "0x2bb0f45ca5c93f4bd566df1a13f3b722d076f2f2584a2d32aa59f9e091129df0",
        "network" : "EIP158",
        "postState" : {
            "0x095e7baea6a6c7c4c2dfeb977efac326af552d87" : {
                "balance" : "0x0de0b6b3a76586a0",
                "code" : "0x7fffffffffffffffffffffffffffffffffffffffffffffffffffffffffffffffff6000527faaffffffffffffffffffffffffffffffffffffffffffffffffffffffffffffaa6020526000600060006000601773945304eb96065b2a98b57a48a06ae28d285a71b56103e8f1600055",
                "nonce" : "0x00",
                "storage" : {
                }
            },
            "0x2adc25665018aa1fe0e6bc666dac8fc2697ff9ba" : {
                "balance" : "0x4563918244f48f8c",
                "code" : "",
                "nonce" : "0x00",
                "storage" : {
                }
            },
            "0x945304eb96065b2a98b57a48a06ae28d285a71b5" : {
                "balance" : "0x17",
                "code" : "0x6000355415600957005b60203560003555",
                "nonce" : "0x00",
                "storage" : {
                }
            },
            "0xa94f5374fce5edbc8e2a8697c15331677e6ebf0b" : {
                "balance" : "0x0de0b6b3a761e9d4",
                "code" : "",
                "nonce" : "0x01",
                "storage" : {
                }
            }
        },
        "pre" : {
            "0x095e7baea6a6c7c4c2dfeb977efac326af552d87" : {
                "balance" : "0x0de0b6b3a7640000",
                "code" : "0x7fffffffffffffffffffffffffffffffffffffffffffffffffffffffffffffffff6000527faaffffffffffffffffffffffffffffffffffffffffffffffffffffffffffffaa6020526000600060006000601773945304eb96065b2a98b57a48a06ae28d285a71b56103e8f1600055",
                "nonce" : "0x00",
                "storage" : {
                }
            },
            "0x945304eb96065b2a98b57a48a06ae28d285a71b5" : {
                "balance" : "0x17",
                "code" : "0x6000355415600957005b60203560003555",
                "nonce" : "0x00",
                "storage" : {
                }
            },
            "0xa94f5374fce5edbc8e2a8697c15331677e6ebf0b" : {
                "balance" : "0x0de0b6b3a7640000",
                "code" : "",
                "nonce" : "0x00",
                "storage" : {
                }
            }
        }
    },
    "CallToNameRegistratorZeorSizeMemExpansion_d0g0v0_Frontier" : {
        "_info" : {
            "comment" : "",
            "filledwith" : "cpp-1.3.0+commit.6e0ce939.Linux.g++",
            "lllcversion" : "Version: 0.4.18-develop.2017.9.25+commit.a72237f2.Linux.g++",
            "source" : "src/BlockchainTestsFiller/GeneralStateTests/stSystemOperationsTest/CallToNameRegistratorZeorSizeMemExpansion_d0g0v0Filler.json",
            "sourceHash" : "9c2e1e91c112fd14c801a4a26370e305deda1a7d63ae4f02975e3a4ea2dcde15"
        },
        "blocks" : [
            {
                "blockHeader" : {
                    "bloom" : "0x00000000000000000000000000000000000000000000000000000000000000000000000000000000000000000000000000000000000000000000000000000000000000000000000000000000000000000000000000000000000000000000000000000000000000000000000000000000000000000000000000000000000000000000000000000000000000000000000000000000000000000000000000000000000000000000000000000000000000000000000000000000000000000000000000000000000000000000000000000000000000000000000000000000000000000000000000000000000000000000000000000000000000000000000000000000",
                    "coinbase" : "0x2adc25665018aa1fe0e6bc666dac8fc2697ff9ba",
                    "difficulty" : "0x020000",
                    "extraData" : "",
                    "gasLimit" : "0x989680",
                    "gasUsed" : "0x8cf8",
                    "hash" : "0x8d25ff413e8e51f74b721be06055ed903aa4cb14a93bf2f659fd1f7f24fdad81",
                    "mixHash" : "0x95ecbcc083e6f9e13eecf2d16e151cb713224048ba3f6ef3a688c579a1743556",
                    "nonce" : "0xebdc4faa6f6ea77c",
                    "number" : "0x01",
                    "parentHash" : "0x3c7ffc12aa9e0a5d88da83ad51a1c4b728475a42442043fe63ef97fd19940b3c",
                    "receiptTrie" : "0x121b60ae3dc872e186b0866d82b60d61f1a4d937b3b55a7887c2daf654d7ae27",
                    "stateRoot" : "0x98a6419e284b18c7e19c42f0ddd19ff787b78f4ce550b309fa81deb6c9e35618",
                    "timestamp" : "0x03e8",
                    "transactionsTrie" : "0x4c5d9bb466add019c254559eb55e402a66b7a663b97d86eeb12deae7631cbd0b",
                    "uncleHash" : "0x1dcc4de8dec75d7aab85b567b6ccd41ad312451b948a7413f0a142fd40d49347"
                },
                "rlp" : "0xf90262f901f7a03c7ffc12aa9e0a5d88da83ad51a1c4b728475a42442043fe63ef97fd19940b3ca01dcc4de8dec75d7aab85b567b6ccd41ad312451b948a7413f0a142fd40d49347942adc25665018aa1fe0e6bc666dac8fc2697ff9baa098a6419e284b18c7e19c42f0ddd19ff787b78f4ce550b309fa81deb6c9e35618a04c5d9bb466add019c254559eb55e402a66b7a663b97d86eeb12deae7631cbd0ba0121b60ae3dc872e186b0866d82b60d61f1a4d937b3b55a7887c2daf654d7ae27b9010000000000000000000000000000000000000000000000000000000000000000000000000000000000000000000000000000000000000000000000000000000000000000000000000000000000000000000000000000000000000000000000000000000000000000000000000000000000000000000000000000000000000000000000000000000000000000000000000000000000000000000000000000000000000000000000000000000000000000000000000000000000000000000000000000000000000000000000000000000000000000000000000000000000000000000000000000000000000000000000000000000000000000000000000000000000830200000183989680828cf88203e880a095ecbcc083e6f9e13eecf2d16e151cb713224048ba3f6ef3a688c579a174355688ebdc4faa6f6ea77cf865f8638001830493e094095e7baea6a6c7c4c2dfeb977efac326af552d87830186a0801ca0b7b326b8747eeaff9ae985a58e503e301493c7ab2856c9b20784c4f037922ecaa053780225776bc2a5f72cc94db55b70f378ffb5e0fb4354ab276437f7be3e6ec1c0",
                "transactions" : [
                    {
                        "data" : "",
                        "gasLimit" : "0x0493e0",
                        "gasPrice" : "0x01",
                        "nonce" : "0x00",
                        "r" : "0xb7b326b8747eeaff9ae985a58e503e301493c7ab2856c9b20784c4f037922eca",
                        "s" : "0x53780225776bc2a5f72cc94db55b70f378ffb5e0fb4354ab276437f7be3e6ec1",
                        "to" : "0x095e7baea6a6c7c4c2dfeb977efac326af552d87",
                        "v" : "0x1c",
                        "value" : "0x0186a0"
                    }
                ],
                "uncleHeaders" : [
                ]
            }
        ],
        "genesisBlockHeader" : {
            "bloom" : "0x00000000000000000000000000000000000000000000000000000000000000000000000000000000000000000000000000000000000000000000000000000000000000000000000000000000000000000000000000000000000000000000000000000000000000000000000000000000000000000000000000000000000000000000000000000000000000000000000000000000000000000000000000000000000000000000000000000000000000000000000000000000000000000000000000000000000000000000000000000000000000000000000000000000000000000000000000000000000000000000000000000000000000000000000000000000",
            "coinbase" : "0x2adc25665018aa1fe0e6bc666dac8fc2697ff9ba",
            "difficulty" : "0x020000",
            "extraData" : "0x42",
            "gasLimit" : "0x989680",
            "gasUsed" : "0x00",
            "hash" : "0x3c7ffc12aa9e0a5d88da83ad51a1c4b728475a42442043fe63ef97fd19940b3c",
            "mixHash" : "0x56e81f171bcc55a6ff8345e692c0f86e5b48e01b996cadc001622fb5e363b421",
            "nonce" : "0x0102030405060708",
            "number" : "0x00",
            "parentHash" : "0x0000000000000000000000000000000000000000000000000000000000000000",
            "receiptTrie" : "0x56e81f171bcc55a6ff8345e692c0f86e5b48e01b996cadc001622fb5e363b421",
            "stateRoot" : "0x4178032bda1050ff2a3a095c601378ee19d5cb05cc3d20f74953f09b9f05d2f1",
            "timestamp" : "0x03b6",
            "transactionsTrie" : "0x56e81f171bcc55a6ff8345e692c0f86e5b48e01b996cadc001622fb5e363b421",
            "uncleHash" : "0x1dcc4de8dec75d7aab85b567b6ccd41ad312451b948a7413f0a142fd40d49347"
        },
        "genesisRLP" : "0xf901faf901f5a00000000000000000000000000000000000000000000000000000000000000000a01dcc4de8dec75d7aab85b567b6ccd41ad312451b948a7413f0a142fd40d49347942adc25665018aa1fe0e6bc666dac8fc2697ff9baa04178032bda1050ff2a3a095c601378ee19d5cb05cc3d20f74953f09b9f05d2f1a056e81f171bcc55a6ff8345e692c0f86e5b48e01b996cadc001622fb5e363b421a056e81f171bcc55a6ff8345e692c0f86e5b48e01b996cadc001622fb5e363b421b9010000000000000000000000000000000000000000000000000000000000000000000000000000000000000000000000000000000000000000000000000000000000000000000000000000000000000000000000000000000000000000000000000000000000000000000000000000000000000000000000000000000000000000000000000000000000000000000000000000000000000000000000000000000000000000000000000000000000000000000000000000000000000000000000000000000000000000000000000000000000000000000000000000000000000000000000000000000000000000000000000000000000000000000000000000000000830200008083989680808203b642a056e81f171bcc55a6ff8345e692c0f86e5b48e01b996cadc001622fb5e363b421880102030405060708c0c0",
        "lastblockhash" : "0x8d25ff413e8e51f74b721be06055ed903aa4cb14a93bf2f659fd1f7f24fdad81",
        "network" : "Frontier",
        "postState" : {
            "0x095e7baea6a6c7c4c2dfeb977efac326af552d87" : {
                "balance" : "0x0de0b6b3a76586a0",
                "code" : "0x7fffffffffffffffffffffffffffffffffffffffffffffffffffffffffffffffff6000527faaffffffffffffffffffffffffffffffffffffffffffffffffffffffffffffaa6020526000600060006000601773945304eb96065b2a98b57a48a06ae28d285a71b56103e8f1600055",
                "nonce" : "0x00",
                "storage" : {
                }
            },
            "0x2adc25665018aa1fe0e6bc666dac8fc2697ff9ba" : {
                "balance" : "0x4563918244f48cf8",
                "code" : "",
                "nonce" : "0x00",
                "storage" : {
                }
            },
            "0x945304eb96065b2a98b57a48a06ae28d285a71b5" : {
                "balance" : "0x17",
                "code" : "0x6000355415600957005b60203560003555",
                "nonce" : "0x00",
                "storage" : {
                }
            },
            "0xa94f5374fce5edbc8e2a8697c15331677e6ebf0b" : {
                "balance" : "0x0de0b6b3a761ec68",
                "code" : "",
                "nonce" : "0x01",
                "storage" : {
                }
            }
        },
        "pre" : {
            "0x095e7baea6a6c7c4c2dfeb977efac326af552d87" : {
                "balance" : "0x0de0b6b3a7640000",
                "code" : "0x7fffffffffffffffffffffffffffffffffffffffffffffffffffffffffffffffff6000527faaffffffffffffffffffffffffffffffffffffffffffffffffffffffffffffaa6020526000600060006000601773945304eb96065b2a98b57a48a06ae28d285a71b56103e8f1600055",
                "nonce" : "0x00",
                "storage" : {
                }
            },
            "0x945304eb96065b2a98b57a48a06ae28d285a71b5" : {
                "balance" : "0x17",
                "code" : "0x6000355415600957005b60203560003555",
                "nonce" : "0x00",
                "storage" : {
                }
            },
            "0xa94f5374fce5edbc8e2a8697c15331677e6ebf0b" : {
                "balance" : "0x0de0b6b3a7640000",
                "code" : "",
                "nonce" : "0x00",
                "storage" : {
                }
            }
        }
    },
    "CallToNameRegistratorZeorSizeMemExpansion_d0g0v0_Homestead" : {
        "_info" : {
            "comment" : "",
            "filledwith" : "cpp-1.3.0+commit.6e0ce939.Linux.g++",
            "lllcversion" : "Version: 0.4.18-develop.2017.9.25+commit.a72237f2.Linux.g++",
            "source" : "src/BlockchainTestsFiller/GeneralStateTests/stSystemOperationsTest/CallToNameRegistratorZeorSizeMemExpansion_d0g0v0Filler.json",
            "sourceHash" : "9c2e1e91c112fd14c801a4a26370e305deda1a7d63ae4f02975e3a4ea2dcde15"
        },
        "blocks" : [
            {
                "blockHeader" : {
                    "bloom" : "0x00000000000000000000000000000000000000000000000000000000000000000000000000000000000000000000000000000000000000000000000000000000000000000000000000000000000000000000000000000000000000000000000000000000000000000000000000000000000000000000000000000000000000000000000000000000000000000000000000000000000000000000000000000000000000000000000000000000000000000000000000000000000000000000000000000000000000000000000000000000000000000000000000000000000000000000000000000000000000000000000000000000000000000000000000000000",
                    "coinbase" : "0x2adc25665018aa1fe0e6bc666dac8fc2697ff9ba",
                    "difficulty" : "0x020000",
                    "extraData" : "",
                    "gasLimit" : "0x989680",
                    "gasUsed" : "0x8cf8",
                    "hash" : "0xc86a5cac4b5a857c6f3202255791b7a8a9c7ca870195ea1393e83a7a9bbc87b0",
                    "mixHash" : "0xfca2b8e3aa0278e608bffd15de70591cd2e4359271f3b65a861867ce39ae569b",
                    "nonce" : "0x694eca80209e72f4",
                    "number" : "0x01",
                    "parentHash" : "0x3c7ffc12aa9e0a5d88da83ad51a1c4b728475a42442043fe63ef97fd19940b3c",
                    "receiptTrie" : "0x121b60ae3dc872e186b0866d82b60d61f1a4d937b3b55a7887c2daf654d7ae27",
                    "stateRoot" : "0x98a6419e284b18c7e19c42f0ddd19ff787b78f4ce550b309fa81deb6c9e35618",
                    "timestamp" : "0x03e8",
                    "transactionsTrie" : "0x4c5d9bb466add019c254559eb55e402a66b7a663b97d86eeb12deae7631cbd0b",
                    "uncleHash" : "0x1dcc4de8dec75d7aab85b567b6ccd41ad312451b948a7413f0a142fd40d49347"
                },
                "rlp" : "0xf90262f901f7a03c7ffc12aa9e0a5d88da83ad51a1c4b728475a42442043fe63ef97fd19940b3ca01dcc4de8dec75d7aab85b567b6ccd41ad312451b948a7413f0a142fd40d49347942adc25665018aa1fe0e6bc666dac8fc2697ff9baa098a6419e284b18c7e19c42f0ddd19ff787b78f4ce550b309fa81deb6c9e35618a04c5d9bb466add019c254559eb55e402a66b7a663b97d86eeb12deae7631cbd0ba0121b60ae3dc872e186b0866d82b60d61f1a4d937b3b55a7887c2daf654d7ae27b9010000000000000000000000000000000000000000000000000000000000000000000000000000000000000000000000000000000000000000000000000000000000000000000000000000000000000000000000000000000000000000000000000000000000000000000000000000000000000000000000000000000000000000000000000000000000000000000000000000000000000000000000000000000000000000000000000000000000000000000000000000000000000000000000000000000000000000000000000000000000000000000000000000000000000000000000000000000000000000000000000000000000000000000000000000000000830200000183989680828cf88203e880a0fca2b8e3aa0278e608bffd15de70591cd2e4359271f3b65a861867ce39ae569b88694eca80209e72f4f865f8638001830493e094095e7baea6a6c7c4c2dfeb977efac326af552d87830186a0801ca0b7b326b8747eeaff9ae985a58e503e301493c7ab2856c9b20784c4f037922ecaa053780225776bc2a5f72cc94db55b70f378ffb5e0fb4354ab276437f7be3e6ec1c0",
                "transactions" : [
                    {
                        "data" : "",
                        "gasLimit" : "0x0493e0",
                        "gasPrice" : "0x01",
                        "nonce" : "0x00",
                        "r" : "0xb7b326b8747eeaff9ae985a58e503e301493c7ab2856c9b20784c4f037922eca",
                        "s" : "0x53780225776bc2a5f72cc94db55b70f378ffb5e0fb4354ab276437f7be3e6ec1",
                        "to" : "0x095e7baea6a6c7c4c2dfeb977efac326af552d87",
                        "v" : "0x1c",
                        "value" : "0x0186a0"
                    }
                ],
                "uncleHeaders" : [
                ]
            }
        ],
        "genesisBlockHeader" : {
            "bloom" : "0x00000000000000000000000000000000000000000000000000000000000000000000000000000000000000000000000000000000000000000000000000000000000000000000000000000000000000000000000000000000000000000000000000000000000000000000000000000000000000000000000000000000000000000000000000000000000000000000000000000000000000000000000000000000000000000000000000000000000000000000000000000000000000000000000000000000000000000000000000000000000000000000000000000000000000000000000000000000000000000000000000000000000000000000000000000000",
            "coinbase" : "0x2adc25665018aa1fe0e6bc666dac8fc2697ff9ba",
            "difficulty" : "0x020000",
            "extraData" : "0x42",
            "gasLimit" : "0x989680",
            "gasUsed" : "0x00",
            "hash" : "0x3c7ffc12aa9e0a5d88da83ad51a1c4b728475a42442043fe63ef97fd19940b3c",
            "mixHash" : "0x56e81f171bcc55a6ff8345e692c0f86e5b48e01b996cadc001622fb5e363b421",
            "nonce" : "0x0102030405060708",
            "number" : "0x00",
            "parentHash" : "0x0000000000000000000000000000000000000000000000000000000000000000",
            "receiptTrie" : "0x56e81f171bcc55a6ff8345e692c0f86e5b48e01b996cadc001622fb5e363b421",
            "stateRoot" : "0x4178032bda1050ff2a3a095c601378ee19d5cb05cc3d20f74953f09b9f05d2f1",
            "timestamp" : "0x03b6",
            "transactionsTrie" : "0x56e81f171bcc55a6ff8345e692c0f86e5b48e01b996cadc001622fb5e363b421",
            "uncleHash" : "0x1dcc4de8dec75d7aab85b567b6ccd41ad312451b948a7413f0a142fd40d49347"
        },
        "genesisRLP" : "0xf901faf901f5a00000000000000000000000000000000000000000000000000000000000000000a01dcc4de8dec75d7aab85b567b6ccd41ad312451b948a7413f0a142fd40d49347942adc25665018aa1fe0e6bc666dac8fc2697ff9baa04178032bda1050ff2a3a095c601378ee19d5cb05cc3d20f74953f09b9f05d2f1a056e81f171bcc55a6ff8345e692c0f86e5b48e01b996cadc001622fb5e363b421a056e81f171bcc55a6ff8345e692c0f86e5b48e01b996cadc001622fb5e363b421b9010000000000000000000000000000000000000000000000000000000000000000000000000000000000000000000000000000000000000000000000000000000000000000000000000000000000000000000000000000000000000000000000000000000000000000000000000000000000000000000000000000000000000000000000000000000000000000000000000000000000000000000000000000000000000000000000000000000000000000000000000000000000000000000000000000000000000000000000000000000000000000000000000000000000000000000000000000000000000000000000000000000000000000000000000000000000830200008083989680808203b642a056e81f171bcc55a6ff8345e692c0f86e5b48e01b996cadc001622fb5e363b421880102030405060708c0c0",
        "lastblockhash" : "0xc86a5cac4b5a857c6f3202255791b7a8a9c7ca870195ea1393e83a7a9bbc87b0",
        "network" : "Homestead",
        "postState" : {
            "0x095e7baea6a6c7c4c2dfeb977efac326af552d87" : {
                "balance" : "0x0de0b6b3a76586a0",
                "code" : "0x7fffffffffffffffffffffffffffffffffffffffffffffffffffffffffffffffff6000527faaffffffffffffffffffffffffffffffffffffffffffffffffffffffffffffaa6020526000600060006000601773945304eb96065b2a98b57a48a06ae28d285a71b56103e8f1600055",
                "nonce" : "0x00",
                "storage" : {
                }
            },
            "0x2adc25665018aa1fe0e6bc666dac8fc2697ff9ba" : {
                "balance" : "0x4563918244f48cf8",
                "code" : "",
                "nonce" : "0x00",
                "storage" : {
                }
            },
            "0x945304eb96065b2a98b57a48a06ae28d285a71b5" : {
                "balance" : "0x17",
                "code" : "0x6000355415600957005b60203560003555",
                "nonce" : "0x00",
                "storage" : {
                }
            },
            "0xa94f5374fce5edbc8e2a8697c15331677e6ebf0b" : {
                "balance" : "0x0de0b6b3a761ec68",
                "code" : "",
                "nonce" : "0x01",
                "storage" : {
                }
            }
        },
        "pre" : {
            "0x095e7baea6a6c7c4c2dfeb977efac326af552d87" : {
                "balance" : "0x0de0b6b3a7640000",
                "code" : "0x7fffffffffffffffffffffffffffffffffffffffffffffffffffffffffffffffff6000527faaffffffffffffffffffffffffffffffffffffffffffffffffffffffffffffaa6020526000600060006000601773945304eb96065b2a98b57a48a06ae28d285a71b56103e8f1600055",
                "nonce" : "0x00",
                "storage" : {
                }
            },
            "0x945304eb96065b2a98b57a48a06ae28d285a71b5" : {
                "balance" : "0x17",
                "code" : "0x6000355415600957005b60203560003555",
                "nonce" : "0x00",
                "storage" : {
                }
            },
            "0xa94f5374fce5edbc8e2a8697c15331677e6ebf0b" : {
                "balance" : "0x0de0b6b3a7640000",
                "code" : "",
                "nonce" : "0x00",
                "storage" : {
                }
            }
        }
    }
}