{
    "CallRecursiveBombLog_d0g0v0_Byzantium" : {
        "_info" : {
            "comment" : "",
            "filledwith" : "cpp-1.3.0+commit.6e0ce939.Linux.g++",
            "lllcversion" : "Version: 0.4.18-develop.2017.9.25+commit.a72237f2.Linux.g++",
            "source" : "src/BlockchainTestsFiller/GeneralStateTests/stSystemOperationsTest/CallRecursiveBombLog_d0g0v0Filler.json",
            "sourceHash" : "319e6d17fa37fbe05f4850f2e83ea49a702351891b2c613989f3d12bdfe3a6e4"
        },
        "blocks" : [
            {
                "blockHeader" : {
                    "bloom" : "0x00000000000000000000000000010000000000800000000000000000000000000000000000000000000000000000000000000000000000000000000000000000000000000000000400000000000000000000000000000000000000000000000000000000000000000000000000000000000000000000000000000000000000000000000000000000000000000000000000000000000000000000000000000000000000000000000000000000000000000000000000000000000000000000000000000000000000000000000000000000000000000000000000000000000000000000000000000000000000000000000000000000000000000000000000000000",
                    "coinbase" : "0x2adc25665018aa1fe0e6bc666dac8fc2697ff9ba",
                    "difficulty" : "0x020000",
                    "extraData" : "",
                    "gasLimit" : "0x02540be400",
                    "gasUsed" : "0x3639b1",
                    "hash" : "0x71c51c1037091fc2f639e868b3732a4c66d1cbe1955f5ec00e3d9709259bbae1",
                    "mixHash" : "0xe5a9f67e76ca7c1519f625d7a6d285239d7591ddd2414a79aa7c3e28645f5047",
                    "nonce" : "0x92a99cb4b9ba3df6",
                    "number" : "0x01",
                    "parentHash" : "0xf130a971538ec621fe52f800011f511453d2b341511494c01c45dff411884e32",
                    "receiptTrie" : "0x9fab5ee44479dc39afe8c0680e1db4178f701058a4a1edc131eb49a2f703a5a5",
                    "stateRoot" : "0x3ae4b447f26aa6d8eaa5d4b0cc6f8588300d90434458e2277dee9697f13db5c1",
                    "timestamp" : "0x03e8",
                    "transactionsTrie" : "0x0af7b181de6f4a1f154aa23eb601a797bb2289b039c5756fbe0cbf66a3132e9b",
                    "uncleHash" : "0x1dcc4de8dec75d7aab85b567b6ccd41ad312451b948a7413f0a142fd40d49347"
                },
                "rlp" : "0xf90267f901faa0f130a971538ec621fe52f800011f511453d2b341511494c01c45dff411884e32a01dcc4de8dec75d7aab85b567b6ccd41ad312451b948a7413f0a142fd40d49347942adc25665018aa1fe0e6bc666dac8fc2697ff9baa03ae4b447f26aa6d8eaa5d4b0cc6f8588300d90434458e2277dee9697f13db5c1a00af7b181de6f4a1f154aa23eb601a797bb2289b039c5756fbe0cbf66a3132e9ba09fab5ee44479dc39afe8c0680e1db4178f701058a4a1edc131eb49a2f703a5a5b901000000000000000000000000000001000000000080000000000000000000000000000000000000000000000000000000000000000000000000000000000000000000000000000000040000000000000000000000000000000000000000000000000000000000000000000000000000000000000000000000000000000000000000000000000000000000000000000000000000000000000000000000000000000000000000000000000000000000000000000000000000000000000000000000000000000000000000000000000000000000000000000000000000000000000000000000000000000000000000000000000000000000000000000000000000000083020000018502540be400833639b18203e880a0e5a9f67e76ca7c1519f625d7a6d285239d7591ddd2414a79aa7c3e28645f50478892a99cb4b9ba3df6f867f86580018502540be40094095e7baea6a6c7c4c2dfeb977efac326af552d87830186a0801ba03874910128913e29e0a4feea2af012d8269da44cc1bfacad5d847a8707399affa069ae4529ef229bdb5d99ec7af5293277639304e6eedd39bddbe0a0199ce2783dc0",
                "transactions" : [
                    {
                        "data" : "",
                        "gasLimit" : "0x02540be400",
                        "gasPrice" : "0x01",
                        "nonce" : "0x00",
                        "r" : "0x3874910128913e29e0a4feea2af012d8269da44cc1bfacad5d847a8707399aff",
                        "s" : "0x69ae4529ef229bdb5d99ec7af5293277639304e6eedd39bddbe0a0199ce2783d",
                        "to" : "0x095e7baea6a6c7c4c2dfeb977efac326af552d87",
                        "v" : "0x1b",
                        "value" : "0x0186a0"
                    }
                ],
                "uncleHeaders" : [
                ]
            }
        ],
        "genesisBlockHeader" : {
            "bloom" : "0x00000000000000000000000000000000000000000000000000000000000000000000000000000000000000000000000000000000000000000000000000000000000000000000000000000000000000000000000000000000000000000000000000000000000000000000000000000000000000000000000000000000000000000000000000000000000000000000000000000000000000000000000000000000000000000000000000000000000000000000000000000000000000000000000000000000000000000000000000000000000000000000000000000000000000000000000000000000000000000000000000000000000000000000000000000000",
            "coinbase" : "0x2adc25665018aa1fe0e6bc666dac8fc2697ff9ba",
            "difficulty" : "0x020000",
            "extraData" : "0x42",
            "gasLimit" : "0x02540be400",
            "gasUsed" : "0x00",
            "hash" : "0xf130a971538ec621fe52f800011f511453d2b341511494c01c45dff411884e32",
            "mixHash" : "0x56e81f171bcc55a6ff8345e692c0f86e5b48e01b996cadc001622fb5e363b421",
            "nonce" : "0x0102030405060708",
            "number" : "0x00",
            "parentHash" : "0x0000000000000000000000000000000000000000000000000000000000000000",
            "receiptTrie" : "0x56e81f171bcc55a6ff8345e692c0f86e5b48e01b996cadc001622fb5e363b421",
            "stateRoot" : "0x581f77339d8a092dbe5fe6f702e9ff753c84bdcd301aedacf2b32eb34e149a9e",
            "timestamp" : "0x03b6",
            "transactionsTrie" : "0x56e81f171bcc55a6ff8345e692c0f86e5b48e01b996cadc001622fb5e363b421",
            "uncleHash" : "0x1dcc4de8dec75d7aab85b567b6ccd41ad312451b948a7413f0a142fd40d49347"
        },
        "genesisRLP" : "0xf901fcf901f7a00000000000000000000000000000000000000000000000000000000000000000a01dcc4de8dec75d7aab85b567b6ccd41ad312451b948a7413f0a142fd40d49347942adc25665018aa1fe0e6bc666dac8fc2697ff9baa0581f77339d8a092dbe5fe6f702e9ff753c84bdcd301aedacf2b32eb34e149a9ea056e81f171bcc55a6ff8345e692c0f86e5b48e01b996cadc001622fb5e363b421a056e81f171bcc55a6ff8345e692c0f86e5b48e01b996cadc001622fb5e363b421b901000000000000000000000000000000000000000000000000000000000000000000000000000000000000000000000000000000000000000000000000000000000000000000000000000000000000000000000000000000000000000000000000000000000000000000000000000000000000000000000000000000000000000000000000000000000000000000000000000000000000000000000000000000000000000000000000000000000000000000000000000000000000000000000000000000000000000000000000000000000000000000000000000000000000000000000000000000000000000000000000000000000000000000000000000000000083020000808502540be400808203b642a056e81f171bcc55a6ff8345e692c0f86e5b48e01b996cadc001622fb5e363b421880102030405060708c0c0",
        "lastblockhash" : "0x71c51c1037091fc2f639e868b3732a4c66d1cbe1955f5ec00e3d9709259bbae1",
        "network" : "Byzantium",
        "postState" : {
            "0x095e7baea6a6c7c4c2dfeb977efac326af552d87" : {
                "balance" : "0x0132b389",
                "code" : "0x6000600060006000601773945304eb96065b2a98b57a48a06ae28d285a71b56305f5e100f1",
                "nonce" : "0x00",
                "storage" : {
                }
            },
            "0x2adc25665018aa1fe0e6bc666dac8fc2697ff9ba" : {
                "balance" : "0x29a2241af66239b1",
                "code" : "",
                "nonce" : "0x00",
                "storage" : {
                }
            },
            "0x945304eb96065b2a98b57a48a06ae28d285a71b5" : {
                "balance" : "0x0de0b6b3a7640017",
                "code" : "0x7fffffffffffffffffffffffffffffffffffffffffffffffffffffffffffffffff60005260206000a060016000540160005560006000600060006000306161a85a03f1600155",
                "nonce" : "0x00",
                "storage" : {
                    "0x00" : "0x012b",
                    "0x01" : "0x01"
                }
            },
            "0xa94f5374fce5edbc8e2a8697c15331677e6ebf0b" : {
                "balance" : "0x0de0b6b3a72c3faf",
                "code" : "",
                "nonce" : "0x01",
                "storage" : {
                }
            }
        },
        "pre" : {
            "0x095e7baea6a6c7c4c2dfeb977efac326af552d87" : {
                "balance" : "0x01312d00",
                "code" : "0x6000600060006000601773945304eb96065b2a98b57a48a06ae28d285a71b56305f5e100f1",
                "nonce" : "0x00",
                "storage" : {
                }
            },
            "0x945304eb96065b2a98b57a48a06ae28d285a71b5" : {
                "balance" : "0x0de0b6b3a7640000",
                "code" : "0x7fffffffffffffffffffffffffffffffffffffffffffffffffffffffffffffffff60005260206000a060016000540160005560006000600060006000306161a85a03f1600155",
                "nonce" : "0x00",
                "storage" : {
                }
            },
            "0xa94f5374fce5edbc8e2a8697c15331677e6ebf0b" : {
                "balance" : "0x0de0b6b3a7640000",
                "code" : "",
                "nonce" : "0x00",
                "storage" : {
                }
            }
        }
    },
    "CallRecursiveBombLog_d0g0v0_EIP150" : {
        "_info" : {
            "comment" : "",
            "filledwith" : "cpp-1.3.0+commit.6e0ce939.Linux.g++",
            "lllcversion" : "Version: 0.4.18-develop.2017.9.25+commit.a72237f2.Linux.g++",
            "source" : "src/BlockchainTestsFiller/GeneralStateTests/stSystemOperationsTest/CallRecursiveBombLog_d0g0v0Filler.json",
            "sourceHash" : "319e6d17fa37fbe05f4850f2e83ea49a702351891b2c613989f3d12bdfe3a6e4"
        },
        "blocks" : [
            {
                "blockHeader" : {
                    "bloom" : "0x00000000000000000000000000010000000000800000000000000000000000000000000000000000000000000000000000000000000000000000000000000000000000000000000400000000000000000000000000000000000000000000000000000000000000000000000000000000000000000000000000000000000000000000000000000000000000000000000000000000000000000000000000000000000000000000000000000000000000000000000000000000000000000000000000000000000000000000000000000000000000000000000000000000000000000000000000000000000000000000000000000000000000000000000000000000",
                    "coinbase" : "0x2adc25665018aa1fe0e6bc666dac8fc2697ff9ba",
                    "difficulty" : "0x020000",
                    "extraData" : "",
                    "gasLimit" : "0x02540be400",
                    "gasUsed" : "0x3639b1",
                    "hash" : "0xdf525b1bd913ac8cc0b688832bde285bcad9296023442e19307ddf1b8e83c9f6",
                    "mixHash" : "0x9e53242e011130a0c47cc72691d7ecc4b49ba577044b18eab8a8a3402d913842",
                    "nonce" : "0xb409890f38c4217e",
                    "number" : "0x01",
                    "parentHash" : "0xf130a971538ec621fe52f800011f511453d2b341511494c01c45dff411884e32",
                    "receiptTrie" : "0xce5a1609c6d0324706a430af21df0095bb295f357e55c44a5c7dbb15ff667464",
                    "stateRoot" : "0x1c4893da9833c10818456cca3df2620c62c11e0a140b29868b412927f8d2943e",
                    "timestamp" : "0x03e8",
                    "transactionsTrie" : "0x0af7b181de6f4a1f154aa23eb601a797bb2289b039c5756fbe0cbf66a3132e9b",
                    "uncleHash" : "0x1dcc4de8dec75d7aab85b567b6ccd41ad312451b948a7413f0a142fd40d49347"
                },
                "rlp" : "0xf90267f901faa0f130a971538ec621fe52f800011f511453d2b341511494c01c45dff411884e32a01dcc4de8dec75d7aab85b567b6ccd41ad312451b948a7413f0a142fd40d49347942adc25665018aa1fe0e6bc666dac8fc2697ff9baa01c4893da9833c10818456cca3df2620c62c11e0a140b29868b412927f8d2943ea00af7b181de6f4a1f154aa23eb601a797bb2289b039c5756fbe0cbf66a3132e9ba0ce5a1609c6d0324706a430af21df0095bb295f357e55c44a5c7dbb15ff667464b901000000000000000000000000000001000000000080000000000000000000000000000000000000000000000000000000000000000000000000000000000000000000000000000000040000000000000000000000000000000000000000000000000000000000000000000000000000000000000000000000000000000000000000000000000000000000000000000000000000000000000000000000000000000000000000000000000000000000000000000000000000000000000000000000000000000000000000000000000000000000000000000000000000000000000000000000000000000000000000000000000000000000000000000000000000000083020000018502540be400833639b18203e880a09e53242e011130a0c47cc72691d7ecc4b49ba577044b18eab8a8a3402d91384288b409890f38c4217ef867f86580018502540be40094095e7baea6a6c7c4c2dfeb977efac326af552d87830186a0801ba03874910128913e29e0a4feea2af012d8269da44cc1bfacad5d847a8707399affa069ae4529ef229bdb5d99ec7af5293277639304e6eedd39bddbe0a0199ce2783dc0",
                "transactions" : [
                    {
                        "data" : "",
                        "gasLimit" : "0x02540be400",
                        "gasPrice" : "0x01",
                        "nonce" : "0x00",
                        "r" : "0x3874910128913e29e0a4feea2af012d8269da44cc1bfacad5d847a8707399aff",
                        "s" : "0x69ae4529ef229bdb5d99ec7af5293277639304e6eedd39bddbe0a0199ce2783d",
                        "to" : "0x095e7baea6a6c7c4c2dfeb977efac326af552d87",
                        "v" : "0x1b",
                        "value" : "0x0186a0"
                    }
                ],
                "uncleHeaders" : [
                ]
            }
        ],
        "genesisBlockHeader" : {
            "bloom" : "0x00000000000000000000000000000000000000000000000000000000000000000000000000000000000000000000000000000000000000000000000000000000000000000000000000000000000000000000000000000000000000000000000000000000000000000000000000000000000000000000000000000000000000000000000000000000000000000000000000000000000000000000000000000000000000000000000000000000000000000000000000000000000000000000000000000000000000000000000000000000000000000000000000000000000000000000000000000000000000000000000000000000000000000000000000000000",
            "coinbase" : "0x2adc25665018aa1fe0e6bc666dac8fc2697ff9ba",
            "difficulty" : "0x020000",
            "extraData" : "0x42",
            "gasLimit" : "0x02540be400",
            "gasUsed" : "0x00",
            "hash" : "0xf130a971538ec621fe52f800011f511453d2b341511494c01c45dff411884e32",
            "mixHash" : "0x56e81f171bcc55a6ff8345e692c0f86e5b48e01b996cadc001622fb5e363b421",
            "nonce" : "0x0102030405060708",
            "number" : "0x00",
            "parentHash" : "0x0000000000000000000000000000000000000000000000000000000000000000",
            "receiptTrie" : "0x56e81f171bcc55a6ff8345e692c0f86e5b48e01b996cadc001622fb5e363b421",
            "stateRoot" : "0x581f77339d8a092dbe5fe6f702e9ff753c84bdcd301aedacf2b32eb34e149a9e",
            "timestamp" : "0x03b6",
            "transactionsTrie" : "0x56e81f171bcc55a6ff8345e692c0f86e5b48e01b996cadc001622fb5e363b421",
            "uncleHash" : "0x1dcc4de8dec75d7aab85b567b6ccd41ad312451b948a7413f0a142fd40d49347"
        },
        "genesisRLP" : "0xf901fcf901f7a00000000000000000000000000000000000000000000000000000000000000000a01dcc4de8dec75d7aab85b567b6ccd41ad312451b948a7413f0a142fd40d49347942adc25665018aa1fe0e6bc666dac8fc2697ff9baa0581f77339d8a092dbe5fe6f702e9ff753c84bdcd301aedacf2b32eb34e149a9ea056e81f171bcc55a6ff8345e692c0f86e5b48e01b996cadc001622fb5e363b421a056e81f171bcc55a6ff8345e692c0f86e5b48e01b996cadc001622fb5e363b421b901000000000000000000000000000000000000000000000000000000000000000000000000000000000000000000000000000000000000000000000000000000000000000000000000000000000000000000000000000000000000000000000000000000000000000000000000000000000000000000000000000000000000000000000000000000000000000000000000000000000000000000000000000000000000000000000000000000000000000000000000000000000000000000000000000000000000000000000000000000000000000000000000000000000000000000000000000000000000000000000000000000000000000000000000000000000083020000808502540be400808203b642a056e81f171bcc55a6ff8345e692c0f86e5b48e01b996cadc001622fb5e363b421880102030405060708c0c0",
        "lastblockhash" : "0xdf525b1bd913ac8cc0b688832bde285bcad9296023442e19307ddf1b8e83c9f6",
        "network" : "EIP150",
        "postState" : {
            "0x095e7baea6a6c7c4c2dfeb977efac326af552d87" : {
                "balance" : "0x0132b389",
                "code" : "0x6000600060006000601773945304eb96065b2a98b57a48a06ae28d285a71b56305f5e100f1",
                "nonce" : "0x00",
                "storage" : {
                }
            },
            "0x2adc25665018aa1fe0e6bc666dac8fc2697ff9ba" : {
                "balance" : "0x45639182452a39b1",
                "code" : "",
                "nonce" : "0x00",
                "storage" : {
                }
            },
            "0x945304eb96065b2a98b57a48a06ae28d285a71b5" : {
                "balance" : "0x0de0b6b3a7640017",
                "code" : "0x7fffffffffffffffffffffffffffffffffffffffffffffffffffffffffffffffff60005260206000a060016000540160005560006000600060006000306161a85a03f1600155",
                "nonce" : "0x00",
                "storage" : {
                    "0x00" : "0x012b",
                    "0x01" : "0x01"
                }
            },
            "0xa94f5374fce5edbc8e2a8697c15331677e6ebf0b" : {
                "balance" : "0x0de0b6b3a72c3faf",
                "code" : "",
                "nonce" : "0x01",
                "storage" : {
                }
            }
        },
        "pre" : {
            "0x095e7baea6a6c7c4c2dfeb977efac326af552d87" : {
                "balance" : "0x01312d00",
                "code" : "0x6000600060006000601773945304eb96065b2a98b57a48a06ae28d285a71b56305f5e100f1",
                "nonce" : "0x00",
                "storage" : {
                }
            },
            "0x945304eb96065b2a98b57a48a06ae28d285a71b5" : {
                "balance" : "0x0de0b6b3a7640000",
                "code" : "0x7fffffffffffffffffffffffffffffffffffffffffffffffffffffffffffffffff60005260206000a060016000540160005560006000600060006000306161a85a03f1600155",
                "nonce" : "0x00",
                "storage" : {
                }
            },
            "0xa94f5374fce5edbc8e2a8697c15331677e6ebf0b" : {
                "balance" : "0x0de0b6b3a7640000",
                "code" : "",
                "nonce" : "0x00",
                "storage" : {
                }
            }
        }
    },
    "CallRecursiveBombLog_d0g0v0_EIP158" : {
        "_info" : {
            "comment" : "",
            "filledwith" : "cpp-1.3.0+commit.6e0ce939.Linux.g++",
            "lllcversion" : "Version: 0.4.18-develop.2017.9.25+commit.a72237f2.Linux.g++",
            "source" : "src/BlockchainTestsFiller/GeneralStateTests/stSystemOperationsTest/CallRecursiveBombLog_d0g0v0Filler.json",
            "sourceHash" : "319e6d17fa37fbe05f4850f2e83ea49a702351891b2c613989f3d12bdfe3a6e4"
        },
        "blocks" : [
            {
                "blockHeader" : {
                    "bloom" : "0x00000000000000000000000000010000000000800000000000000000000000000000000000000000000000000000000000000000000000000000000000000000000000000000000400000000000000000000000000000000000000000000000000000000000000000000000000000000000000000000000000000000000000000000000000000000000000000000000000000000000000000000000000000000000000000000000000000000000000000000000000000000000000000000000000000000000000000000000000000000000000000000000000000000000000000000000000000000000000000000000000000000000000000000000000000000",
                    "coinbase" : "0x2adc25665018aa1fe0e6bc666dac8fc2697ff9ba",
                    "difficulty" : "0x020000",
                    "extraData" : "",
                    "gasLimit" : "0x02540be400",
                    "gasUsed" : "0x3639b1",
                    "hash" : "0x54d0d96ce046bab7757b42e6e5be33b818463440376dc4032e50ee08b3e05a7e",
                    "mixHash" : "0x9456b20f2fd6b73239146e205881c30549b79b7d5f7ec6e0fbbe5130c6a0c194",
                    "nonce" : "0x534e234ff1b3cb22",
                    "number" : "0x01",
                    "parentHash" : "0xf130a971538ec621fe52f800011f511453d2b341511494c01c45dff411884e32",
                    "receiptTrie" : "0xce5a1609c6d0324706a430af21df0095bb295f357e55c44a5c7dbb15ff667464",
                    "stateRoot" : "0x1c4893da9833c10818456cca3df2620c62c11e0a140b29868b412927f8d2943e",
                    "timestamp" : "0x03e8",
                    "transactionsTrie" : "0x0af7b181de6f4a1f154aa23eb601a797bb2289b039c5756fbe0cbf66a3132e9b",
                    "uncleHash" : "0x1dcc4de8dec75d7aab85b567b6ccd41ad312451b948a7413f0a142fd40d49347"
                },
                "rlp" : "0xf90267f901faa0f130a971538ec621fe52f800011f511453d2b341511494c01c45dff411884e32a01dcc4de8dec75d7aab85b567b6ccd41ad312451b948a7413f0a142fd40d49347942adc25665018aa1fe0e6bc666dac8fc2697ff9baa01c4893da9833c10818456cca3df2620c62c11e0a140b29868b412927f8d2943ea00af7b181de6f4a1f154aa23eb601a797bb2289b039c5756fbe0cbf66a3132e9ba0ce5a1609c6d0324706a430af21df0095bb295f357e55c44a5c7dbb15ff667464b901000000000000000000000000000001000000000080000000000000000000000000000000000000000000000000000000000000000000000000000000000000000000000000000000040000000000000000000000000000000000000000000000000000000000000000000000000000000000000000000000000000000000000000000000000000000000000000000000000000000000000000000000000000000000000000000000000000000000000000000000000000000000000000000000000000000000000000000000000000000000000000000000000000000000000000000000000000000000000000000000000000000000000000000000000000000083020000018502540be400833639b18203e880a09456b20f2fd6b73239146e205881c30549b79b7d5f7ec6e0fbbe5130c6a0c19488534e234ff1b3cb22f867f86580018502540be40094095e7baea6a6c7c4c2dfeb977efac326af552d87830186a0801ba03874910128913e29e0a4feea2af012d8269da44cc1bfacad5d847a8707399affa069ae4529ef229bdb5d99ec7af5293277639304e6eedd39bddbe0a0199ce2783dc0",
                "transactions" : [
                    {
                        "data" : "",
                        "gasLimit" : "0x02540be400",
                        "gasPrice" : "0x01",
                        "nonce" : "0x00",
                        "r" : "0x3874910128913e29e0a4feea2af012d8269da44cc1bfacad5d847a8707399aff",
                        "s" : "0x69ae4529ef229bdb5d99ec7af5293277639304e6eedd39bddbe0a0199ce2783d",
                        "to" : "0x095e7baea6a6c7c4c2dfeb977efac326af552d87",
                        "v" : "0x1b",
                        "value" : "0x0186a0"
                    }
                ],
                "uncleHeaders" : [
                ]
            }
        ],
        "genesisBlockHeader" : {
            "bloom" : "0x00000000000000000000000000000000000000000000000000000000000000000000000000000000000000000000000000000000000000000000000000000000000000000000000000000000000000000000000000000000000000000000000000000000000000000000000000000000000000000000000000000000000000000000000000000000000000000000000000000000000000000000000000000000000000000000000000000000000000000000000000000000000000000000000000000000000000000000000000000000000000000000000000000000000000000000000000000000000000000000000000000000000000000000000000000000",
            "coinbase" : "0x2adc25665018aa1fe0e6bc666dac8fc2697ff9ba",
            "difficulty" : "0x020000",
            "extraData" : "0x42",
            "gasLimit" : "0x02540be400",
            "gasUsed" : "0x00",
            "hash" : "0xf130a971538ec621fe52f800011f511453d2b341511494c01c45dff411884e32",
            "mixHash" : "0x56e81f171bcc55a6ff8345e692c0f86e5b48e01b996cadc001622fb5e363b421",
            "nonce" : "0x0102030405060708",
            "number" : "0x00",
            "parentHash" : "0x0000000000000000000000000000000000000000000000000000000000000000",
            "receiptTrie" : "0x56e81f171bcc55a6ff8345e692c0f86e5b48e01b996cadc001622fb5e363b421",
            "stateRoot" : "0x581f77339d8a092dbe5fe6f702e9ff753c84bdcd301aedacf2b32eb34e149a9e",
            "timestamp" : "0x03b6",
            "transactionsTrie" : "0x56e81f171bcc55a6ff8345e692c0f86e5b48e01b996cadc001622fb5e363b421",
            "uncleHash" : "0x1dcc4de8dec75d7aab85b567b6ccd41ad312451b948a7413f0a142fd40d49347"
        },
        "genesisRLP" : "0xf901fcf901f7a00000000000000000000000000000000000000000000000000000000000000000a01dcc4de8dec75d7aab85b567b6ccd41ad312451b948a7413f0a142fd40d49347942adc25665018aa1fe0e6bc666dac8fc2697ff9baa0581f77339d8a092dbe5fe6f702e9ff753c84bdcd301aedacf2b32eb34e149a9ea056e81f171bcc55a6ff8345e692c0f86e5b48e01b996cadc001622fb5e363b421a056e81f171bcc55a6ff8345e692c0f86e5b48e01b996cadc001622fb5e363b421b901000000000000000000000000000000000000000000000000000000000000000000000000000000000000000000000000000000000000000000000000000000000000000000000000000000000000000000000000000000000000000000000000000000000000000000000000000000000000000000000000000000000000000000000000000000000000000000000000000000000000000000000000000000000000000000000000000000000000000000000000000000000000000000000000000000000000000000000000000000000000000000000000000000000000000000000000000000000000000000000000000000000000000000000000000000000083020000808502540be400808203b642a056e81f171bcc55a6ff8345e692c0f86e5b48e01b996cadc001622fb5e363b421880102030405060708c0c0",
        "lastblockhash" : "0x54d0d96ce046bab7757b42e6e5be33b818463440376dc4032e50ee08b3e05a7e",
        "network" : "EIP158",
        "postState" : {
            "0x095e7baea6a6c7c4c2dfeb977efac326af552d87" : {
                "balance" : "0x0132b389",
                "code" : "0x6000600060006000601773945304eb96065b2a98b57a48a06ae28d285a71b56305f5e100f1",
                "nonce" : "0x00",
                "storage" : {
                }
            },
            "0x2adc25665018aa1fe0e6bc666dac8fc2697ff9ba" : {
                "balance" : "0x45639182452a39b1",
                "code" : "",
                "nonce" : "0x00",
                "storage" : {
                }
            },
            "0x945304eb96065b2a98b57a48a06ae28d285a71b5" : {
                "balance" : "0x0de0b6b3a7640017",
                "code" : "0x7fffffffffffffffffffffffffffffffffffffffffffffffffffffffffffffffff60005260206000a060016000540160005560006000600060006000306161a85a03f1600155",
                "nonce" : "0x00",
                "storage" : {
                    "0x00" : "0x012b",
                    "0x01" : "0x01"
                }
            },
            "0xa94f5374fce5edbc8e2a8697c15331677e6ebf0b" : {
                "balance" : "0x0de0b6b3a72c3faf",
                "code" : "",
                "nonce" : "0x01",
                "storage" : {
                }
            }
        },
        "pre" : {
            "0x095e7baea6a6c7c4c2dfeb977efac326af552d87" : {
                "balance" : "0x01312d00",
                "code" : "0x6000600060006000601773945304eb96065b2a98b57a48a06ae28d285a71b56305f5e100f1",
                "nonce" : "0x00",
                "storage" : {
                }
            },
            "0x945304eb96065b2a98b57a48a06ae28d285a71b5" : {
                "balance" : "0x0de0b6b3a7640000",
                "code" : "0x7fffffffffffffffffffffffffffffffffffffffffffffffffffffffffffffffff60005260206000a060016000540160005560006000600060006000306161a85a03f1600155",
                "nonce" : "0x00",
                "storage" : {
                }
            },
            "0xa94f5374fce5edbc8e2a8697c15331677e6ebf0b" : {
                "balance" : "0x0de0b6b3a7640000",
                "code" : "",
                "nonce" : "0x00",
                "storage" : {
                }
            }
        }
    },
    "CallRecursiveBombLog_d0g0v0_Frontier" : {
        "_info" : {
            "comment" : "",
            "filledwith" : "cpp-1.3.0+commit.6e0ce939.Linux.g++",
            "lllcversion" : "Version: 0.4.18-develop.2017.9.25+commit.a72237f2.Linux.g++",
            "source" : "src/BlockchainTestsFiller/GeneralStateTests/stSystemOperationsTest/CallRecursiveBombLog_d0g0v0Filler.json",
            "sourceHash" : "319e6d17fa37fbe05f4850f2e83ea49a702351891b2c613989f3d12bdfe3a6e4"
        },
        "blocks" : [
            {
                "blockHeader" : {
                    "bloom" : "0x00000000000000000000000000010000000000800000000000000000000000000000000000000000000000000000000000000000000000000000000000000000000000000000000400000000000000000000000000000000000000000000000000000000000000000000000000000000000000000000000000000000000000000000000000000000000000000000000000000000000000000000000000000000000000000000000000000000000000000000000000000000000000000000000000000000000000000000000000000000000000000000000000000000000000000000000000000000000000000000000000000000000000000000000000000000",
                    "coinbase" : "0x2adc25665018aa1fe0e6bc666dac8fc2697ff9ba",
                    "difficulty" : "0x020000",
                    "extraData" : "",
                    "gasLimit" : "0x02540be400",
                    "gasUsed" : "0xa94da1",
                    "hash" : "0x190a66f2adce33b857453405f4ffdc595f4ccefc00f885d5e056e5f085a1f5bc",
                    "mixHash" : "0x5fb93a707169e31946570229975aa38c427e7ffb4e870bbe4dce00ded88f1865",
                    "nonce" : "0xa0b78790a6dfaf34",
                    "number" : "0x01",
                    "parentHash" : "0xf130a971538ec621fe52f800011f511453d2b341511494c01c45dff411884e32",
                    "receiptTrie" : "0xaa94b5243f1a4f5fd13a7bcfa5240b4fe8fc2626ad05d0684663fb4315c0a1a5",
                    "stateRoot" : "0x29155a9a3dd41e25c651a94f077b1afa51ffb5e207aa99658fcbfa8a39e16c7d",
                    "timestamp" : "0x03e8",
                    "transactionsTrie" : "0x0af7b181de6f4a1f154aa23eb601a797bb2289b039c5756fbe0cbf66a3132e9b",
                    "uncleHash" : "0x1dcc4de8dec75d7aab85b567b6ccd41ad312451b948a7413f0a142fd40d49347"
                },
                "rlp" : "0xf90267f901faa0f130a971538ec621fe52f800011f511453d2b341511494c01c45dff411884e32a01dcc4de8dec75d7aab85b567b6ccd41ad312451b948a7413f0a142fd40d49347942adc25665018aa1fe0e6bc666dac8fc2697ff9baa029155a9a3dd41e25c651a94f077b1afa51ffb5e207aa99658fcbfa8a39e16c7da00af7b181de6f4a1f154aa23eb601a797bb2289b039c5756fbe0cbf66a3132e9ba0aa94b5243f1a4f5fd13a7bcfa5240b4fe8fc2626ad05d0684663fb4315c0a1a5b901000000000000000000000000000001000000000080000000000000000000000000000000000000000000000000000000000000000000000000000000000000000000000000000000040000000000000000000000000000000000000000000000000000000000000000000000000000000000000000000000000000000000000000000000000000000000000000000000000000000000000000000000000000000000000000000000000000000000000000000000000000000000000000000000000000000000000000000000000000000000000000000000000000000000000000000000000000000000000000000000000000000000000000000000000000000083020000018502540be40083a94da18203e880a05fb93a707169e31946570229975aa38c427e7ffb4e870bbe4dce00ded88f186588a0b78790a6dfaf34f867f86580018502540be40094095e7baea6a6c7c4c2dfeb977efac326af552d87830186a0801ba03874910128913e29e0a4feea2af012d8269da44cc1bfacad5d847a8707399affa069ae4529ef229bdb5d99ec7af5293277639304e6eedd39bddbe0a0199ce2783dc0",
                "transactions" : [
                    {
                        "data" : "",
                        "gasLimit" : "0x02540be400",
                        "gasPrice" : "0x01",
                        "nonce" : "0x00",
                        "r" : "0x3874910128913e29e0a4feea2af012d8269da44cc1bfacad5d847a8707399aff",
                        "s" : "0x69ae4529ef229bdb5d99ec7af5293277639304e6eedd39bddbe0a0199ce2783d",
                        "to" : "0x095e7baea6a6c7c4c2dfeb977efac326af552d87",
                        "v" : "0x1b",
                        "value" : "0x0186a0"
                    }
                ],
                "uncleHeaders" : [
                ]
            }
        ],
        "genesisBlockHeader" : {
            "bloom" : "0x00000000000000000000000000000000000000000000000000000000000000000000000000000000000000000000000000000000000000000000000000000000000000000000000000000000000000000000000000000000000000000000000000000000000000000000000000000000000000000000000000000000000000000000000000000000000000000000000000000000000000000000000000000000000000000000000000000000000000000000000000000000000000000000000000000000000000000000000000000000000000000000000000000000000000000000000000000000000000000000000000000000000000000000000000000000",
            "coinbase" : "0x2adc25665018aa1fe0e6bc666dac8fc2697ff9ba",
            "difficulty" : "0x020000",
            "extraData" : "0x42",
            "gasLimit" : "0x02540be400",
            "gasUsed" : "0x00",
            "hash" : "0xf130a971538ec621fe52f800011f511453d2b341511494c01c45dff411884e32",
            "mixHash" : "0x56e81f171bcc55a6ff8345e692c0f86e5b48e01b996cadc001622fb5e363b421",
            "nonce" : "0x0102030405060708",
            "number" : "0x00",
            "parentHash" : "0x0000000000000000000000000000000000000000000000000000000000000000",
            "receiptTrie" : "0x56e81f171bcc55a6ff8345e692c0f86e5b48e01b996cadc001622fb5e363b421",
            "stateRoot" : "0x581f77339d8a092dbe5fe6f702e9ff753c84bdcd301aedacf2b32eb34e149a9e",
            "timestamp" : "0x03b6",
            "transactionsTrie" : "0x56e81f171bcc55a6ff8345e692c0f86e5b48e01b996cadc001622fb5e363b421",
            "uncleHash" : "0x1dcc4de8dec75d7aab85b567b6ccd41ad312451b948a7413f0a142fd40d49347"
        },
        "genesisRLP" : "0xf901fcf901f7a00000000000000000000000000000000000000000000000000000000000000000a01dcc4de8dec75d7aab85b567b6ccd41ad312451b948a7413f0a142fd40d49347942adc25665018aa1fe0e6bc666dac8fc2697ff9baa0581f77339d8a092dbe5fe6f702e9ff753c84bdcd301aedacf2b32eb34e149a9ea056e81f171bcc55a6ff8345e692c0f86e5b48e01b996cadc001622fb5e363b421a056e81f171bcc55a6ff8345e692c0f86e5b48e01b996cadc001622fb5e363b421b901000000000000000000000000000000000000000000000000000000000000000000000000000000000000000000000000000000000000000000000000000000000000000000000000000000000000000000000000000000000000000000000000000000000000000000000000000000000000000000000000000000000000000000000000000000000000000000000000000000000000000000000000000000000000000000000000000000000000000000000000000000000000000000000000000000000000000000000000000000000000000000000000000000000000000000000000000000000000000000000000000000000000000000000000000000000083020000808502540be400808203b642a056e81f171bcc55a6ff8345e692c0f86e5b48e01b996cadc001622fb5e363b421880102030405060708c0c0",
        "lastblockhash" : "0x190a66f2adce33b857453405f4ffdc595f4ccefc00f885d5e056e5f085a1f5bc",
        "network" : "Frontier",
        "postState" : {
            "0x095e7baea6a6c7c4c2dfeb977efac326af552d87" : {
                "balance" : "0x0132b389",
                "code" : "0x6000600060006000601773945304eb96065b2a98b57a48a06ae28d285a71b56305f5e100f1",
                "nonce" : "0x00",
                "storage" : {
                }
            },
            "0x2adc25665018aa1fe0e6bc666dac8fc2697ff9ba" : {
                "balance" : "0x45639182459d4da1",
                "code" : "",
                "nonce" : "0x00",
                "storage" : {
                }
            },
            "0x945304eb96065b2a98b57a48a06ae28d285a71b5" : {
                "balance" : "0x0de0b6b3a7640017",
                "code" : "0x7fffffffffffffffffffffffffffffffffffffffffffffffffffffffffffffffff60005260206000a060016000540160005560006000600060006000306161a85a03f1600155",
                "nonce" : "0x00",
                "storage" : {
                    "0x00" : "0x0400",
                    "0x01" : "0x01"
                }
            },
            "0xa94f5374fce5edbc8e2a8697c15331677e6ebf0b" : {
                "balance" : "0x0de0b6b3a6b92bbf",
                "code" : "",
                "nonce" : "0x01",
                "storage" : {
                }
            }
        },
        "pre" : {
            "0x095e7baea6a6c7c4c2dfeb977efac326af552d87" : {
                "balance" : "0x01312d00",
                "code" : "0x6000600060006000601773945304eb96065b2a98b57a48a06ae28d285a71b56305f5e100f1",
                "nonce" : "0x00",
                "storage" : {
                }
            },
            "0x945304eb96065b2a98b57a48a06ae28d285a71b5" : {
                "balance" : "0x0de0b6b3a7640000",
                "code" : "0x7fffffffffffffffffffffffffffffffffffffffffffffffffffffffffffffffff60005260206000a060016000540160005560006000600060006000306161a85a03f1600155",
                "nonce" : "0x00",
                "storage" : {
                }
            },
            "0xa94f5374fce5edbc8e2a8697c15331677e6ebf0b" : {
                "balance" : "0x0de0b6b3a7640000",
                "code" : "",
                "nonce" : "0x00",
                "storage" : {
                }
            }
        }
    },
    "CallRecursiveBombLog_d0g0v0_Homestead" : {
        "_info" : {
            "comment" : "",
            "filledwith" : "cpp-1.3.0+commit.6e0ce939.Linux.g++",
            "lllcversion" : "Version: 0.4.18-develop.2017.9.25+commit.a72237f2.Linux.g++",
            "source" : "src/BlockchainTestsFiller/GeneralStateTests/stSystemOperationsTest/CallRecursiveBombLog_d0g0v0Filler.json",
            "sourceHash" : "319e6d17fa37fbe05f4850f2e83ea49a702351891b2c613989f3d12bdfe3a6e4"
        },
        "blocks" : [
            {
                "blockHeader" : {
                    "bloom" : "0x00000000000000000000000000010000000000800000000000000000000000000000000000000000000000000000000000000000000000000000000000000000000000000000000400000000000000000000000000000000000000000000000000000000000000000000000000000000000000000000000000000000000000000000000000000000000000000000000000000000000000000000000000000000000000000000000000000000000000000000000000000000000000000000000000000000000000000000000000000000000000000000000000000000000000000000000000000000000000000000000000000000000000000000000000000000",
                    "coinbase" : "0x2adc25665018aa1fe0e6bc666dac8fc2697ff9ba",
                    "difficulty" : "0x020000",
                    "extraData" : "",
                    "gasLimit" : "0x02540be400",
                    "gasUsed" : "0xa94da1",
                    "hash" : "0xcdcf5eaa365e44509efdcab1ad35a1f4f93cc7dd1c7abd7165ef40f82e4c02ea",
                    "mixHash" : "0x5445c3cf0905a3bd0e9dc59c1ae92414123993b7cc106dc5b5d7d3c83b9856fb",
                    "nonce" : "0x9efbd0b602aa6cad",
                    "number" : "0x01",
                    "parentHash" : "0xf130a971538ec621fe52f800011f511453d2b341511494c01c45dff411884e32",
                    "receiptTrie" : "0xaa94b5243f1a4f5fd13a7bcfa5240b4fe8fc2626ad05d0684663fb4315c0a1a5",
                    "stateRoot" : "0x29155a9a3dd41e25c651a94f077b1afa51ffb5e207aa99658fcbfa8a39e16c7d",
                    "timestamp" : "0x03e8",
                    "transactionsTrie" : "0x0af7b181de6f4a1f154aa23eb601a797bb2289b039c5756fbe0cbf66a3132e9b",
                    "uncleHash" : "0x1dcc4de8dec75d7aab85b567b6ccd41ad312451b948a7413f0a142fd40d49347"
                },
                "rlp" : "0xf90267f901faa0f130a971538ec621fe52f800011f511453d2b341511494c01c45dff411884e32a01dcc4de8dec75d7aab85b567b6ccd41ad312451b948a7413f0a142fd40d49347942adc25665018aa1fe0e6bc666dac8fc2697ff9baa029155a9a3dd41e25c651a94f077b1afa51ffb5e207aa99658fcbfa8a39e16c7da00af7b181de6f4a1f154aa23eb601a797bb2289b039c5756fbe0cbf66a3132e9ba0aa94b5243f1a4f5fd13a7bcfa5240b4fe8fc2626ad05d0684663fb4315c0a1a5b901000000000000000000000000000001000000000080000000000000000000000000000000000000000000000000000000000000000000000000000000000000000000000000000000040000000000000000000000000000000000000000000000000000000000000000000000000000000000000000000000000000000000000000000000000000000000000000000000000000000000000000000000000000000000000000000000000000000000000000000000000000000000000000000000000000000000000000000000000000000000000000000000000000000000000000000000000000000000000000000000000000000000000000000000000000000083020000018502540be40083a94da18203e880a05445c3cf0905a3bd0e9dc59c1ae92414123993b7cc106dc5b5d7d3c83b9856fb889efbd0b602aa6cadf867f86580018502540be40094095e7baea6a6c7c4c2dfeb977efac326af552d87830186a0801ba03874910128913e29e0a4feea2af012d8269da44cc1bfacad5d847a8707399affa069ae4529ef229bdb5d99ec7af5293277639304e6eedd39bddbe0a0199ce2783dc0",
                "transactions" : [
                    {
                        "data" : "",
                        "gasLimit" : "0x02540be400",
                        "gasPrice" : "0x01",
                        "nonce" : "0x00",
                        "r" : "0x3874910128913e29e0a4feea2af012d8269da44cc1bfacad5d847a8707399aff",
                        "s" : "0x69ae4529ef229bdb5d99ec7af5293277639304e6eedd39bddbe0a0199ce2783d",
                        "to" : "0x095e7baea6a6c7c4c2dfeb977efac326af552d87",
                        "v" : "0x1b",
                        "value" : "0x0186a0"
                    }
                ],
                "uncleHeaders" : [
                ]
            }
        ],
        "genesisBlockHeader" : {
            "bloom" : "0x00000000000000000000000000000000000000000000000000000000000000000000000000000000000000000000000000000000000000000000000000000000000000000000000000000000000000000000000000000000000000000000000000000000000000000000000000000000000000000000000000000000000000000000000000000000000000000000000000000000000000000000000000000000000000000000000000000000000000000000000000000000000000000000000000000000000000000000000000000000000000000000000000000000000000000000000000000000000000000000000000000000000000000000000000000000",
            "coinbase" : "0x2adc25665018aa1fe0e6bc666dac8fc2697ff9ba",
            "difficulty" : "0x020000",
            "extraData" : "0x42",
            "gasLimit" : "0x02540be400",
            "gasUsed" : "0x00",
            "hash" : "0xf130a971538ec621fe52f800011f511453d2b341511494c01c45dff411884e32",
            "mixHash" : "0x56e81f171bcc55a6ff8345e692c0f86e5b48e01b996cadc001622fb5e363b421",
            "nonce" : "0x0102030405060708",
            "number" : "0x00",
            "parentHash" : "0x0000000000000000000000000000000000000000000000000000000000000000",
            "receiptTrie" : "0x56e81f171bcc55a6ff8345e692c0f86e5b48e01b996cadc001622fb5e363b421",
            "stateRoot" : "0x581f77339d8a092dbe5fe6f702e9ff753c84bdcd301aedacf2b32eb34e149a9e",
            "timestamp" : "0x03b6",
            "transactionsTrie" : "0x56e81f171bcc55a6ff8345e692c0f86e5b48e01b996cadc001622fb5e363b421",
            "uncleHash" : "0x1dcc4de8dec75d7aab85b567b6ccd41ad312451b948a7413f0a142fd40d49347"
        },
        "genesisRLP" : "0xf901fcf901f7a00000000000000000000000000000000000000000000000000000000000000000a01dcc4de8dec75d7aab85b567b6ccd41ad312451b948a7413f0a142fd40d49347942adc25665018aa1fe0e6bc666dac8fc2697ff9baa0581f77339d8a092dbe5fe6f702e9ff753c84bdcd301aedacf2b32eb34e149a9ea056e81f171bcc55a6ff8345e692c0f86e5b48e01b996cadc001622fb5e363b421a056e81f171bcc55a6ff8345e692c0f86e5b48e01b996cadc001622fb5e363b421b901000000000000000000000000000000000000000000000000000000000000000000000000000000000000000000000000000000000000000000000000000000000000000000000000000000000000000000000000000000000000000000000000000000000000000000000000000000000000000000000000000000000000000000000000000000000000000000000000000000000000000000000000000000000000000000000000000000000000000000000000000000000000000000000000000000000000000000000000000000000000000000000000000000000000000000000000000000000000000000000000000000000000000000000000000000000083020000808502540be400808203b642a056e81f171bcc55a6ff8345e692c0f86e5b48e01b996cadc001622fb5e363b421880102030405060708c0c0",
        "lastblockhash" : "0xcdcf5eaa365e44509efdcab1ad35a1f4f93cc7dd1c7abd7165ef40f82e4c02ea",
        "network" : "Homestead",
        "postState" : {
            "0x095e7baea6a6c7c4c2dfeb977efac326af552d87" : {
                "balance" : "0x0132b389",
                "code" : "0x6000600060006000601773945304eb96065b2a98b57a48a06ae28d285a71b56305f5e100f1",
                "nonce" : "0x00",
                "storage" : {
                }
            },
            "0x2adc25665018aa1fe0e6bc666dac8fc2697ff9ba" : {
                "balance" : "0x45639182459d4da1",
                "code" : "",
                "nonce" : "0x00",
                "storage" : {
                }
            },
            "0x945304eb96065b2a98b57a48a06ae28d285a71b5" : {
                "balance" : "0x0de0b6b3a7640017",
                "code" : "0x7fffffffffffffffffffffffffffffffffffffffffffffffffffffffffffffffff60005260206000a060016000540160005560006000600060006000306161a85a03f1600155",
                "nonce" : "0x00",
                "storage" : {
                    "0x00" : "0x0400",
                    "0x01" : "0x01"
                }
            },
            "0xa94f5374fce5edbc8e2a8697c15331677e6ebf0b" : {
                "balance" : "0x0de0b6b3a6b92bbf",
                "code" : "",
                "nonce" : "0x01",
                "storage" : {
                }
            }
        },
        "pre" : {
            "0x095e7baea6a6c7c4c2dfeb977efac326af552d87" : {
                "balance" : "0x01312d00",
                "code" : "0x6000600060006000601773945304eb96065b2a98b57a48a06ae28d285a71b56305f5e100f1",
                "nonce" : "0x00",
                "storage" : {
                }
            },
            "0x945304eb96065b2a98b57a48a06ae28d285a71b5" : {
                "balance" : "0x0de0b6b3a7640000",
                "code" : "0x7fffffffffffffffffffffffffffffffffffffffffffffffffffffffffffffffff60005260206000a060016000540160005560006000600060006000306161a85a03f1600155",
                "nonce" : "0x00",
                "storage" : {
                }
            },
            "0xa94f5374fce5edbc8e2a8697c15331677e6ebf0b" : {
                "balance" : "0x0de0b6b3a7640000",
                "code" : "",
                "nonce" : "0x00",
                "storage" : {
                }
            }
        }
    }
}