{
    "suicideSendEtherPostDeath_d0g0v0_Byzantium" : {
        "_info" : {
            "comment" : "",
            "filledwith" : "cpp-1.3.0+commit.6e0ce939.Linux.g++",
            "lllcversion" : "Version: 0.4.18-develop.2017.9.25+commit.a72237f2.Linux.g++",
            "source" : "src/BlockchainTestsFiller/GeneralStateTests/stSystemOperationsTest/suicideSendEtherPostDeath_d0g0v0Filler.json",
            "sourceHash" : "872fed0d8c78e8a187847046205371a9c66fc4479039ece1470478d6608e0a3c"
        },
        "blocks" : [
            {
                "blockHeader" : {
                    "bloom" : "0x00000000000000000000000000000000000000000000000000000000000000000000000000000000000000000000000000000000000000000000000000000000000000000000000000000000000000000000000000000000000000000000000000000000000000000000000000000000000000000000000000000000000000000000000000000000000000000000000000000000000000000000000000000000000000000000000000000000000000000000000000000000000000000000000000000000000000000000000000000000000000000000000000000000000000000000000000000000000000000000000000000000000000000000000000000000",
                    "coinbase" : "0x2adc25665018aa1fe0e6bc666dac8fc2697ff9ba",
                    "difficulty" : "0x020000",
                    "extraData" : "",
                    "gasLimit" : "0x989680",
                    "gasUsed" : "0x37be",
                    "hash" : "0x694daf68518d62dc20c04fdd36d565a7a2c2f1fb09d4e0d6ea3b0008a926e531",
                    "mixHash" : "0x18334a3a11e206a28b2d8d7fff9163c05b33de80f756a8218fe849c6a90af67a",
                    "nonce" : "0xddba6246b401b98e",
                    "number" : "0x01",
                    "parentHash" : "0x677559a443bebaea54345653130a198422feb16c8bbaa968d6aad13d4b9c57e7",
                    "receiptTrie" : "0x2a0242b0fea8fc3d8985fc969278a1685e78f1644eca38aa9bf594bd9b242acd",
                    "stateRoot" : "0xb1433157f1099f9aa6a52778bff83008d71b4d3adbc8eaf7a9a9ac6729746848",
                    "timestamp" : "0x03e8",
                    "transactionsTrie" : "0xc12a5e930733d9466c2e7c64f52a7254ccc51cd72b9216f9d8d59def78a4a00d",
                    "uncleHash" : "0x1dcc4de8dec75d7aab85b567b6ccd41ad312451b948a7413f0a142fd40d49347"
                },
                "rlp" : "0xf90266f901f7a0677559a443bebaea54345653130a198422feb16c8bbaa968d6aad13d4b9c57e7a01dcc4de8dec75d7aab85b567b6ccd41ad312451b948a7413f0a142fd40d49347942adc25665018aa1fe0e6bc666dac8fc2697ff9baa0b1433157f1099f9aa6a52778bff83008d71b4d3adbc8eaf7a9a9ac6729746848a0c12a5e930733d9466c2e7c64f52a7254ccc51cd72b9216f9d8d59def78a4a00da02a0242b0fea8fc3d8985fc969278a1685e78f1644eca38aa9bf594bd9b242acdb90100000000000000000000000000000000000000000000000000000000000000000000000000000000000000000000000000000000000000000000000000000000000000000000000000000000000000000000000000000000000000000000000000000000000000000000000000000000000000000000000000000000000000000000000000000000000000000000000000000000000000000000000000000000000000000000000000000000000000000000000000000000000000000000000000000000000000000000000000000000000000000000000000000000000000000000000000000000000000000000000000000000000000000000000000000000008302000001839896808237be8203e880a018334a3a11e206a28b2d8d7fff9163c05b33de80f756a8218fe849c6a90af67a88ddba6246b401b98ef869f8678001832dc6c094095e7baea6a6c7c4c2dfeb977efac326af552d87830186a0844d536fe31ca049a9f64355ac77855a3b55dbff4641731274683f4ebd27317d235c052ad17a5ca0486736d73963f6c8958852d2a240f31f0cb1dde0c100a6f52aeb6e470717391bc0",
                "transactions" : [
                    {
                        "data" : "0x4d536fe3",
                        "gasLimit" : "0x2dc6c0",
                        "gasPrice" : "0x01",
                        "nonce" : "0x00",
                        "r" : "0x49a9f64355ac77855a3b55dbff4641731274683f4ebd27317d235c052ad17a5c",
                        "s" : "0x486736d73963f6c8958852d2a240f31f0cb1dde0c100a6f52aeb6e470717391b",
                        "to" : "0x095e7baea6a6c7c4c2dfeb977efac326af552d87",
                        "v" : "0x1c",
                        "value" : "0x0186a0"
                    }
                ],
                "uncleHeaders" : [
                ]
            }
        ],
        "genesisBlockHeader" : {
            "bloom" : "0x00000000000000000000000000000000000000000000000000000000000000000000000000000000000000000000000000000000000000000000000000000000000000000000000000000000000000000000000000000000000000000000000000000000000000000000000000000000000000000000000000000000000000000000000000000000000000000000000000000000000000000000000000000000000000000000000000000000000000000000000000000000000000000000000000000000000000000000000000000000000000000000000000000000000000000000000000000000000000000000000000000000000000000000000000000000",
            "coinbase" : "0x2adc25665018aa1fe0e6bc666dac8fc2697ff9ba",
            "difficulty" : "0x020000",
            "extraData" : "0x42",
            "gasLimit" : "0x989680",
            "gasUsed" : "0x00",
            "hash" : "0x677559a443bebaea54345653130a198422feb16c8bbaa968d6aad13d4b9c57e7",
            "mixHash" : "0x56e81f171bcc55a6ff8345e692c0f86e5b48e01b996cadc001622fb5e363b421",
            "nonce" : "0x0102030405060708",
            "number" : "0x00",
            "parentHash" : "0x0000000000000000000000000000000000000000000000000000000000000000",
            "receiptTrie" : "0x56e81f171bcc55a6ff8345e692c0f86e5b48e01b996cadc001622fb5e363b421",
            "stateRoot" : "0x18ff7fab80690a2b3700814ed7faa99ffc1322ea00efe5d9338b16ec80c1ffbd",
            "timestamp" : "0x03b6",
            "transactionsTrie" : "0x56e81f171bcc55a6ff8345e692c0f86e5b48e01b996cadc001622fb5e363b421",
            "uncleHash" : "0x1dcc4de8dec75d7aab85b567b6ccd41ad312451b948a7413f0a142fd40d49347"
        },
        "genesisRLP" : "0xf901faf901f5a00000000000000000000000000000000000000000000000000000000000000000a01dcc4de8dec75d7aab85b567b6ccd41ad312451b948a7413f0a142fd40d49347942adc25665018aa1fe0e6bc666dac8fc2697ff9baa018ff7fab80690a2b3700814ed7faa99ffc1322ea00efe5d9338b16ec80c1ffbda056e81f171bcc55a6ff8345e692c0f86e5b48e01b996cadc001622fb5e363b421a056e81f171bcc55a6ff8345e692c0f86e5b48e01b996cadc001622fb5e363b421b9010000000000000000000000000000000000000000000000000000000000000000000000000000000000000000000000000000000000000000000000000000000000000000000000000000000000000000000000000000000000000000000000000000000000000000000000000000000000000000000000000000000000000000000000000000000000000000000000000000000000000000000000000000000000000000000000000000000000000000000000000000000000000000000000000000000000000000000000000000000000000000000000000000000000000000000000000000000000000000000000000000000000000000000000000000000000830200008083989680808203b642a056e81f171bcc55a6ff8345e692c0f86e5b48e01b996cadc001622fb5e363b421880102030405060708c0c0",
        "lastblockhash" : "0x694daf68518d62dc20c04fdd36d565a7a2c2f1fb09d4e0d6ea3b0008a926e531",
        "network" : "Byzantium",
        "postState" : {
            "0x2adc25665018aa1fe0e6bc666dac8fc2697ff9ba" : {
                "balance" : "0x29a2241af62c37be",
                "code" : "",
                "nonce" : "0x00",
                "storage" : {
                }
            },
            "0xa94f5374fce5edbc8e2a8697c15331677e6ebf0b" : {
                "balance" : "0x0de0b6b3a76241a2",
                "code" : "",
                "nonce" : "0x01",
                "storage" : {
                }
            }
        },
        "pre" : {
            "0x095e7baea6a6c7c4c2dfeb977efac326af552d87" : {
                "balance" : "0x0de0b6b3a7640000",
                "code" : "0x60606040526000357c01000000000000000000000000000000000000000000000000000000009004806335f46994146100445780634d536fe31461005157610042565b005b61004f600450610072565b005b61005c60045061008d565b6040518082815260200191505060405180910390f35b3073ffffffffffffffffffffffffffffffffffffffff16ff5b565b600060003073ffffffffffffffffffffffffffffffffffffffff166335f46994604051817c01000000000000000000000000000000000000000000000000000000000281526004018090506000604051808303816000876161da5a03f115610002575050503073ffffffffffffffffffffffffffffffffffffffff163190503373ffffffffffffffffffffffffffffffffffffffff16600082604051809050600060405180830381858888f1935050505050809150610147565b509056",
                "nonce" : "0x00",
                "storage" : {
                }
            },
            "0xa94f5374fce5edbc8e2a8697c15331677e6ebf0b" : {
                "balance" : "0x0de0b6b3a7640000",
                "code" : "",
                "nonce" : "0x00",
                "storage" : {
                }
            }
        }
    },
    "suicideSendEtherPostDeath_d0g0v0_EIP150" : {
        "_info" : {
            "comment" : "",
            "filledwith" : "cpp-1.3.0+commit.6e0ce939.Linux.g++",
            "lllcversion" : "Version: 0.4.18-develop.2017.9.25+commit.a72237f2.Linux.g++",
            "source" : "src/BlockchainTestsFiller/GeneralStateTests/stSystemOperationsTest/suicideSendEtherPostDeath_d0g0v0Filler.json",
            "sourceHash" : "872fed0d8c78e8a187847046205371a9c66fc4479039ece1470478d6608e0a3c"
        },
        "blocks" : [
            {
                "blockHeader" : {
                    "bloom" : "0x00000000000000000000000000000000000000000000000000000000000000000000000000000000000000000000000000000000000000000000000000000000000000000000000000000000000000000000000000000000000000000000000000000000000000000000000000000000000000000000000000000000000000000000000000000000000000000000000000000000000000000000000000000000000000000000000000000000000000000000000000000000000000000000000000000000000000000000000000000000000000000000000000000000000000000000000000000000000000000000000000000000000000000000000000000000",
                    "coinbase" : "0x2adc25665018aa1fe0e6bc666dac8fc2697ff9ba",
                    "difficulty" : "0x020000",
                    "extraData" : "",
                    "gasLimit" : "0x989680",
                    "gasUsed" : "0x37be",
                    "hash" : "0xd258af87908dc5c5f2ebc6d58818759c496de97cee234c21325cfa591a4f2ccb",
                    "mixHash" : "0x9788afec9156b2af52475584f27f64aaacf655c9788c6f55029e2fb7fb8aa576",
                    "nonce" : "0x28544dacd5513314",
                    "number" : "0x01",
                    "parentHash" : "0x677559a443bebaea54345653130a198422feb16c8bbaa968d6aad13d4b9c57e7",
                    "receiptTrie" : "0xe80cd4773217107a40f44cf33846e8092fb3019374de6231f6172be7af3d30c5",
                    "stateRoot" : "0x4749316b13b2263835f9e96172ec3fefbcce70079b6cad48c367b9ac9f0f01c8",
                    "timestamp" : "0x03e8",
                    "transactionsTrie" : "0xc12a5e930733d9466c2e7c64f52a7254ccc51cd72b9216f9d8d59def78a4a00d",
                    "uncleHash" : "0x1dcc4de8dec75d7aab85b567b6ccd41ad312451b948a7413f0a142fd40d49347"
                },
                "rlp" : "0xf90266f901f7a0677559a443bebaea54345653130a198422feb16c8bbaa968d6aad13d4b9c57e7a01dcc4de8dec75d7aab85b567b6ccd41ad312451b948a7413f0a142fd40d49347942adc25665018aa1fe0e6bc666dac8fc2697ff9baa04749316b13b2263835f9e96172ec3fefbcce70079b6cad48c367b9ac9f0f01c8a0c12a5e930733d9466c2e7c64f52a7254ccc51cd72b9216f9d8d59def78a4a00da0e80cd4773217107a40f44cf33846e8092fb3019374de6231f6172be7af3d30c5b90100000000000000000000000000000000000000000000000000000000000000000000000000000000000000000000000000000000000000000000000000000000000000000000000000000000000000000000000000000000000000000000000000000000000000000000000000000000000000000000000000000000000000000000000000000000000000000000000000000000000000000000000000000000000000000000000000000000000000000000000000000000000000000000000000000000000000000000000000000000000000000000000000000000000000000000000000000000000000000000000000000000000000000000000000000000008302000001839896808237be8203e880a09788afec9156b2af52475584f27f64aaacf655c9788c6f55029e2fb7fb8aa5768828544dacd5513314f869f8678001832dc6c094095e7baea6a6c7c4c2dfeb977efac326af552d87830186a0844d536fe31ca049a9f64355ac77855a3b55dbff4641731274683f4ebd27317d235c052ad17a5ca0486736d73963f6c8958852d2a240f31f0cb1dde0c100a6f52aeb6e470717391bc0",
                "transactions" : [
                    {
                        "data" : "0x4d536fe3",
                        "gasLimit" : "0x2dc6c0",
                        "gasPrice" : "0x01",
                        "nonce" : "0x00",
                        "r" : "0x49a9f64355ac77855a3b55dbff4641731274683f4ebd27317d235c052ad17a5c",
                        "s" : "0x486736d73963f6c8958852d2a240f31f0cb1dde0c100a6f52aeb6e470717391b",
                        "to" : "0x095e7baea6a6c7c4c2dfeb977efac326af552d87",
                        "v" : "0x1c",
                        "value" : "0x0186a0"
                    }
                ],
                "uncleHeaders" : [
                ]
            }
        ],
        "genesisBlockHeader" : {
            "bloom" : "0x00000000000000000000000000000000000000000000000000000000000000000000000000000000000000000000000000000000000000000000000000000000000000000000000000000000000000000000000000000000000000000000000000000000000000000000000000000000000000000000000000000000000000000000000000000000000000000000000000000000000000000000000000000000000000000000000000000000000000000000000000000000000000000000000000000000000000000000000000000000000000000000000000000000000000000000000000000000000000000000000000000000000000000000000000000000",
            "coinbase" : "0x2adc25665018aa1fe0e6bc666dac8fc2697ff9ba",
            "difficulty" : "0x020000",
            "extraData" : "0x42",
            "gasLimit" : "0x989680",
            "gasUsed" : "0x00",
            "hash" : "0x677559a443bebaea54345653130a198422feb16c8bbaa968d6aad13d4b9c57e7",
            "mixHash" : "0x56e81f171bcc55a6ff8345e692c0f86e5b48e01b996cadc001622fb5e363b421",
            "nonce" : "0x0102030405060708",
            "number" : "0x00",
            "parentHash" : "0x0000000000000000000000000000000000000000000000000000000000000000",
            "receiptTrie" : "0x56e81f171bcc55a6ff8345e692c0f86e5b48e01b996cadc001622fb5e363b421",
            "stateRoot" : "0x18ff7fab80690a2b3700814ed7faa99ffc1322ea00efe5d9338b16ec80c1ffbd",
            "timestamp" : "0x03b6",
            "transactionsTrie" : "0x56e81f171bcc55a6ff8345e692c0f86e5b48e01b996cadc001622fb5e363b421",
            "uncleHash" : "0x1dcc4de8dec75d7aab85b567b6ccd41ad312451b948a7413f0a142fd40d49347"
        },
        "genesisRLP" : "0xf901faf901f5a00000000000000000000000000000000000000000000000000000000000000000a01dcc4de8dec75d7aab85b567b6ccd41ad312451b948a7413f0a142fd40d49347942adc25665018aa1fe0e6bc666dac8fc2697ff9baa018ff7fab80690a2b3700814ed7faa99ffc1322ea00efe5d9338b16ec80c1ffbda056e81f171bcc55a6ff8345e692c0f86e5b48e01b996cadc001622fb5e363b421a056e81f171bcc55a6ff8345e692c0f86e5b48e01b996cadc001622fb5e363b421b9010000000000000000000000000000000000000000000000000000000000000000000000000000000000000000000000000000000000000000000000000000000000000000000000000000000000000000000000000000000000000000000000000000000000000000000000000000000000000000000000000000000000000000000000000000000000000000000000000000000000000000000000000000000000000000000000000000000000000000000000000000000000000000000000000000000000000000000000000000000000000000000000000000000000000000000000000000000000000000000000000000000000000000000000000000000000830200008083989680808203b642a056e81f171bcc55a6ff8345e692c0f86e5b48e01b996cadc001622fb5e363b421880102030405060708c0c0",
        "lastblockhash" : "0xd258af87908dc5c5f2ebc6d58818759c496de97cee234c21325cfa591a4f2ccb",
        "network" : "EIP150",
        "postState" : {
            "0x2adc25665018aa1fe0e6bc666dac8fc2697ff9ba" : {
                "balance" : "0x4563918244f437be",
                "code" : "",
                "nonce" : "0x00",
                "storage" : {
                }
            },
            "0xa94f5374fce5edbc8e2a8697c15331677e6ebf0b" : {
                "balance" : "0x0de0b6b3a76241a2",
                "code" : "",
                "nonce" : "0x01",
                "storage" : {
                }
            }
        },
        "pre" : {
            "0x095e7baea6a6c7c4c2dfeb977efac326af552d87" : {
                "balance" : "0x0de0b6b3a7640000",
                "code" : "0x60606040526000357c01000000000000000000000000000000000000000000000000000000009004806335f46994146100445780634d536fe31461005157610042565b005b61004f600450610072565b005b61005c60045061008d565b6040518082815260200191505060405180910390f35b3073ffffffffffffffffffffffffffffffffffffffff16ff5b565b600060003073ffffffffffffffffffffffffffffffffffffffff166335f46994604051817c01000000000000000000000000000000000000000000000000000000000281526004018090506000604051808303816000876161da5a03f115610002575050503073ffffffffffffffffffffffffffffffffffffffff163190503373ffffffffffffffffffffffffffffffffffffffff16600082604051809050600060405180830381858888f1935050505050809150610147565b509056",
                "nonce" : "0x00",
                "storage" : {
                }
            },
            "0xa94f5374fce5edbc8e2a8697c15331677e6ebf0b" : {
                "balance" : "0x0de0b6b3a7640000",
                "code" : "",
                "nonce" : "0x00",
                "storage" : {
                }
            }
        }
    },
    "suicideSendEtherPostDeath_d0g0v0_EIP158" : {
        "_info" : {
            "comment" : "",
            "filledwith" : "cpp-1.3.0+commit.6e0ce939.Linux.g++",
            "lllcversion" : "Version: 0.4.18-develop.2017.9.25+commit.a72237f2.Linux.g++",
            "source" : "src/BlockchainTestsFiller/GeneralStateTests/stSystemOperationsTest/suicideSendEtherPostDeath_d0g0v0Filler.json",
            "sourceHash" : "872fed0d8c78e8a187847046205371a9c66fc4479039ece1470478d6608e0a3c"
        },
        "blocks" : [
            {
                "blockHeader" : {
                    "bloom" : "0x00000000000000000000000000000000000000000000000000000000000000000000000000000000000000000000000000000000000000000000000000000000000000000000000000000000000000000000000000000000000000000000000000000000000000000000000000000000000000000000000000000000000000000000000000000000000000000000000000000000000000000000000000000000000000000000000000000000000000000000000000000000000000000000000000000000000000000000000000000000000000000000000000000000000000000000000000000000000000000000000000000000000000000000000000000000",
                    "coinbase" : "0x2adc25665018aa1fe0e6bc666dac8fc2697ff9ba",
                    "difficulty" : "0x020000",
                    "extraData" : "",
                    "gasLimit" : "0x989680",
                    "gasUsed" : "0x37be",
                    "hash" : "0x82fbf9252e7e7fefbd8cd48a7c842556550680bc961296e74df472f4fcbb0210",
                    "mixHash" : "0x16efbb300d9ed3f168153094a2ecf38a318b2307be860f45c39a793d9479fb23",
                    "nonce" : "0x87dd7d4ad51b6ac3",
                    "number" : "0x01",
                    "parentHash" : "0x677559a443bebaea54345653130a198422feb16c8bbaa968d6aad13d4b9c57e7",
                    "receiptTrie" : "0xe80cd4773217107a40f44cf33846e8092fb3019374de6231f6172be7af3d30c5",
                    "stateRoot" : "0x4749316b13b2263835f9e96172ec3fefbcce70079b6cad48c367b9ac9f0f01c8",
                    "timestamp" : "0x03e8",
                    "transactionsTrie" : "0xc12a5e930733d9466c2e7c64f52a7254ccc51cd72b9216f9d8d59def78a4a00d",
                    "uncleHash" : "0x1dcc4de8dec75d7aab85b567b6ccd41ad312451b948a7413f0a142fd40d49347"
                },
                "rlp" : "0xf90266f901f7a0677559a443bebaea54345653130a198422feb16c8bbaa968d6aad13d4b9c57e7a01dcc4de8dec75d7aab85b567b6ccd41ad312451b948a7413f0a142fd40d49347942adc25665018aa1fe0e6bc666dac8fc2697ff9baa04749316b13b2263835f9e96172ec3fefbcce70079b6cad48c367b9ac9f0f01c8a0c12a5e930733d9466c2e7c64f52a7254ccc51cd72b9216f9d8d59def78a4a00da0e80cd4773217107a40f44cf33846e8092fb3019374de6231f6172be7af3d30c5b90100000000000000000000000000000000000000000000000000000000000000000000000000000000000000000000000000000000000000000000000000000000000000000000000000000000000000000000000000000000000000000000000000000000000000000000000000000000000000000000000000000000000000000000000000000000000000000000000000000000000000000000000000000000000000000000000000000000000000000000000000000000000000000000000000000000000000000000000000000000000000000000000000000000000000000000000000000000000000000000000000000000000000000000000000000000008302000001839896808237be8203e880a016efbb300d9ed3f168153094a2ecf38a318b2307be860f45c39a793d9479fb238887dd7d4ad51b6ac3f869f8678001832dc6c094095e7baea6a6c7c4c2dfeb977efac326af552d87830186a0844d536fe31ca049a9f64355ac77855a3b55dbff4641731274683f4ebd27317d235c052ad17a5ca0486736d73963f6c8958852d2a240f31f0cb1dde0c100a6f52aeb6e470717391bc0",
                "transactions" : [
                    {
                        "data" : "0x4d536fe3",
                        "gasLimit" : "0x2dc6c0",
                        "gasPrice" : "0x01",
                        "nonce" : "0x00",
                        "r" : "0x49a9f64355ac77855a3b55dbff4641731274683f4ebd27317d235c052ad17a5c",
                        "s" : "0x486736d73963f6c8958852d2a240f31f0cb1dde0c100a6f52aeb6e470717391b",
                        "to" : "0x095e7baea6a6c7c4c2dfeb977efac326af552d87",
                        "v" : "0x1c",
                        "value" : "0x0186a0"
                    }
                ],
                "uncleHeaders" : [
                ]
            }
        ],
        "genesisBlockHeader" : {
            "bloom" : "0x00000000000000000000000000000000000000000000000000000000000000000000000000000000000000000000000000000000000000000000000000000000000000000000000000000000000000000000000000000000000000000000000000000000000000000000000000000000000000000000000000000000000000000000000000000000000000000000000000000000000000000000000000000000000000000000000000000000000000000000000000000000000000000000000000000000000000000000000000000000000000000000000000000000000000000000000000000000000000000000000000000000000000000000000000000000",
            "coinbase" : "0x2adc25665018aa1fe0e6bc666dac8fc2697ff9ba",
            "difficulty" : "0x020000",
            "extraData" : "0x42",
            "gasLimit" : "0x989680",
            "gasUsed" : "0x00",
            "hash" : "0x677559a443bebaea54345653130a198422feb16c8bbaa968d6aad13d4b9c57e7",
            "mixHash" : "0x56e81f171bcc55a6ff8345e692c0f86e5b48e01b996cadc001622fb5e363b421",
            "nonce" : "0x0102030405060708",
            "number" : "0x00",
            "parentHash" : "0x0000000000000000000000000000000000000000000000000000000000000000",
            "receiptTrie" : "0x56e81f171bcc55a6ff8345e692c0f86e5b48e01b996cadc001622fb5e363b421",
            "stateRoot" : "0x18ff7fab80690a2b3700814ed7faa99ffc1322ea00efe5d9338b16ec80c1ffbd",
            "timestamp" : "0x03b6",
            "transactionsTrie" : "0x56e81f171bcc55a6ff8345e692c0f86e5b48e01b996cadc001622fb5e363b421",
            "uncleHash" : "0x1dcc4de8dec75d7aab85b567b6ccd41ad312451b948a7413f0a142fd40d49347"
        },
        "genesisRLP" : "0xf901faf901f5a00000000000000000000000000000000000000000000000000000000000000000a01dcc4de8dec75d7aab85b567b6ccd41ad312451b948a7413f0a142fd40d49347942adc25665018aa1fe0e6bc666dac8fc2697ff9baa018ff7fab80690a2b3700814ed7faa99ffc1322ea00efe5d9338b16ec80c1ffbda056e81f171bcc55a6ff8345e692c0f86e5b48e01b996cadc001622fb5e363b421a056e81f171bcc55a6ff8345e692c0f86e5b48e01b996cadc001622fb5e363b421b9010000000000000000000000000000000000000000000000000000000000000000000000000000000000000000000000000000000000000000000000000000000000000000000000000000000000000000000000000000000000000000000000000000000000000000000000000000000000000000000000000000000000000000000000000000000000000000000000000000000000000000000000000000000000000000000000000000000000000000000000000000000000000000000000000000000000000000000000000000000000000000000000000000000000000000000000000000000000000000000000000000000000000000000000000000000000830200008083989680808203b642a056e81f171bcc55a6ff8345e692c0f86e5b48e01b996cadc001622fb5e363b421880102030405060708c0c0",
        "lastblockhash" : "0x82fbf9252e7e7fefbd8cd48a7c842556550680bc961296e74df472f4fcbb0210",
        "network" : "EIP158",
        "postState" : {
            "0x2adc25665018aa1fe0e6bc666dac8fc2697ff9ba" : {
                "balance" : "0x4563918244f437be",
                "code" : "",
                "nonce" : "0x00",
                "storage" : {
                }
            },
            "0xa94f5374fce5edbc8e2a8697c15331677e6ebf0b" : {
                "balance" : "0x0de0b6b3a76241a2",
                "code" : "",
                "nonce" : "0x01",
                "storage" : {
                }
            }
        },
        "pre" : {
            "0x095e7baea6a6c7c4c2dfeb977efac326af552d87" : {
                "balance" : "0x0de0b6b3a7640000",
                "code" : "0x60606040526000357c01000000000000000000000000000000000000000000000000000000009004806335f46994146100445780634d536fe31461005157610042565b005b61004f600450610072565b005b61005c60045061008d565b6040518082815260200191505060405180910390f35b3073ffffffffffffffffffffffffffffffffffffffff16ff5b565b600060003073ffffffffffffffffffffffffffffffffffffffff166335f46994604051817c01000000000000000000000000000000000000000000000000000000000281526004018090506000604051808303816000876161da5a03f115610002575050503073ffffffffffffffffffffffffffffffffffffffff163190503373ffffffffffffffffffffffffffffffffffffffff16600082604051809050600060405180830381858888f1935050505050809150610147565b509056",
                "nonce" : "0x00",
                "storage" : {
                }
            },
            "0xa94f5374fce5edbc8e2a8697c15331677e6ebf0b" : {
                "balance" : "0x0de0b6b3a7640000",
                "code" : "",
                "nonce" : "0x00",
                "storage" : {
                }
            }
        }
    },
    "suicideSendEtherPostDeath_d0g0v0_Frontier" : {
        "_info" : {
            "comment" : "",
            "filledwith" : "cpp-1.3.0+commit.6e0ce939.Linux.g++",
            "lllcversion" : "Version: 0.4.18-develop.2017.9.25+commit.a72237f2.Linux.g++",
            "source" : "src/BlockchainTestsFiller/GeneralStateTests/stSystemOperationsTest/suicideSendEtherPostDeath_d0g0v0Filler.json",
            "sourceHash" : "872fed0d8c78e8a187847046205371a9c66fc4479039ece1470478d6608e0a3c"
        },
        "blocks" : [
            {
                "blockHeader" : {
                    "bloom" : "0x00000000000000000000000000000000000000000000000000000000000000000000000000000000000000000000000000000000000000000000000000000000000000000000000000000000000000000000000000000000000000000000000000000000000000000000000000000000000000000000000000000000000000000000000000000000000000000000000000000000000000000000000000000000000000000000000000000000000000000000000000000000000000000000000000000000000000000000000000000000000000000000000000000000000000000000000000000000000000000000000000000000000000000000000000000000",
                    "coinbase" : "0x2adc25665018aa1fe0e6bc666dac8fc2697ff9ba",
                    "difficulty" : "0x020000",
                    "extraData" : "",
                    "gasLimit" : "0x989680",
                    "gasUsed" : "0x2aa8",
                    "hash" : "0xb2e1368c908ae8f7e18f1c1b1433303843cbc1697a453ad1fd43ce737feed080",
                    "mixHash" : "0x5102c057a5536633ddc67d048dcef62964ffd292f8005c9b8c396613b50f21f5",
                    "nonce" : "0x00da0e3980a851ab",
                    "number" : "0x01",
                    "parentHash" : "0x677559a443bebaea54345653130a198422feb16c8bbaa968d6aad13d4b9c57e7",
                    "receiptTrie" : "0xb0fc6274e17b84d8a65701bcf1236c7f722282f3684ea7d8e76706b8cfe96ecc",
                    "stateRoot" : "0x2dc4e1cd69f7620e15c24e567e877824a371b64db44ff04477dec8aef733bfd6",
                    "timestamp" : "0x03e8",
                    "transactionsTrie" : "0xc12a5e930733d9466c2e7c64f52a7254ccc51cd72b9216f9d8d59def78a4a00d",
                    "uncleHash" : "0x1dcc4de8dec75d7aab85b567b6ccd41ad312451b948a7413f0a142fd40d49347"
                },
                "rlp" : "0xf90266f901f7a0677559a443bebaea54345653130a198422feb16c8bbaa968d6aad13d4b9c57e7a01dcc4de8dec75d7aab85b567b6ccd41ad312451b948a7413f0a142fd40d49347942adc25665018aa1fe0e6bc666dac8fc2697ff9baa02dc4e1cd69f7620e15c24e567e877824a371b64db44ff04477dec8aef733bfd6a0c12a5e930733d9466c2e7c64f52a7254ccc51cd72b9216f9d8d59def78a4a00da0b0fc6274e17b84d8a65701bcf1236c7f722282f3684ea7d8e76706b8cfe96eccb9010000000000000000000000000000000000000000000000000000000000000000000000000000000000000000000000000000000000000000000000000000000000000000000000000000000000000000000000000000000000000000000000000000000000000000000000000000000000000000000000000000000000000000000000000000000000000000000000000000000000000000000000000000000000000000000000000000000000000000000000000000000000000000000000000000000000000000000000000000000000000000000000000000000000000000000000000000000000000000000000000000000000000000000000000000000000830200000183989680822aa88203e880a05102c057a5536633ddc67d048dcef62964ffd292f8005c9b8c396613b50f21f58800da0e3980a851abf869f8678001832dc6c094095e7baea6a6c7c4c2dfeb977efac326af552d87830186a0844d536fe31ca049a9f64355ac77855a3b55dbff4641731274683f4ebd27317d235c052ad17a5ca0486736d73963f6c8958852d2a240f31f0cb1dde0c100a6f52aeb6e470717391bc0",
                "transactions" : [
                    {
                        "data" : "0x4d536fe3",
                        "gasLimit" : "0x2dc6c0",
                        "gasPrice" : "0x01",
                        "nonce" : "0x00",
                        "r" : "0x49a9f64355ac77855a3b55dbff4641731274683f4ebd27317d235c052ad17a5c",
                        "s" : "0x486736d73963f6c8958852d2a240f31f0cb1dde0c100a6f52aeb6e470717391b",
                        "to" : "0x095e7baea6a6c7c4c2dfeb977efac326af552d87",
                        "v" : "0x1c",
                        "value" : "0x0186a0"
                    }
                ],
                "uncleHeaders" : [
                ]
            }
        ],
        "genesisBlockHeader" : {
            "bloom" : "0x00000000000000000000000000000000000000000000000000000000000000000000000000000000000000000000000000000000000000000000000000000000000000000000000000000000000000000000000000000000000000000000000000000000000000000000000000000000000000000000000000000000000000000000000000000000000000000000000000000000000000000000000000000000000000000000000000000000000000000000000000000000000000000000000000000000000000000000000000000000000000000000000000000000000000000000000000000000000000000000000000000000000000000000000000000000",
            "coinbase" : "0x2adc25665018aa1fe0e6bc666dac8fc2697ff9ba",
            "difficulty" : "0x020000",
            "extraData" : "0x42",
            "gasLimit" : "0x989680",
            "gasUsed" : "0x00",
            "hash" : "0x677559a443bebaea54345653130a198422feb16c8bbaa968d6aad13d4b9c57e7",
            "mixHash" : "0x56e81f171bcc55a6ff8345e692c0f86e5b48e01b996cadc001622fb5e363b421",
            "nonce" : "0x0102030405060708",
            "number" : "0x00",
            "parentHash" : "0x0000000000000000000000000000000000000000000000000000000000000000",
            "receiptTrie" : "0x56e81f171bcc55a6ff8345e692c0f86e5b48e01b996cadc001622fb5e363b421",
            "stateRoot" : "0x18ff7fab80690a2b3700814ed7faa99ffc1322ea00efe5d9338b16ec80c1ffbd",
            "timestamp" : "0x03b6",
            "transactionsTrie" : "0x56e81f171bcc55a6ff8345e692c0f86e5b48e01b996cadc001622fb5e363b421",
            "uncleHash" : "0x1dcc4de8dec75d7aab85b567b6ccd41ad312451b948a7413f0a142fd40d49347"
        },
        "genesisRLP" : "0xf901faf901f5a00000000000000000000000000000000000000000000000000000000000000000a01dcc4de8dec75d7aab85b567b6ccd41ad312451b948a7413f0a142fd40d49347942adc25665018aa1fe0e6bc666dac8fc2697ff9baa018ff7fab80690a2b3700814ed7faa99ffc1322ea00efe5d9338b16ec80c1ffbda056e81f171bcc55a6ff8345e692c0f86e5b48e01b996cadc001622fb5e363b421a056e81f171bcc55a6ff8345e692c0f86e5b48e01b996cadc001622fb5e363b421b9010000000000000000000000000000000000000000000000000000000000000000000000000000000000000000000000000000000000000000000000000000000000000000000000000000000000000000000000000000000000000000000000000000000000000000000000000000000000000000000000000000000000000000000000000000000000000000000000000000000000000000000000000000000000000000000000000000000000000000000000000000000000000000000000000000000000000000000000000000000000000000000000000000000000000000000000000000000000000000000000000000000000000000000000000000000000830200008083989680808203b642a056e81f171bcc55a6ff8345e692c0f86e5b48e01b996cadc001622fb5e363b421880102030405060708c0c0",
        "lastblockhash" : "0xb2e1368c908ae8f7e18f1c1b1433303843cbc1697a453ad1fd43ce737feed080",
        "network" : "Frontier",
        "postState" : {
            "0x2adc25665018aa1fe0e6bc666dac8fc2697ff9ba" : {
                "balance" : "0x4563918244f42aa8",
                "code" : "",
                "nonce" : "0x00",
                "storage" : {
                }
            },
            "0xa94f5374fce5edbc8e2a8697c15331677e6ebf0b" : {
                "balance" : "0x0de0b6b3a7624eb8",
                "code" : "",
                "nonce" : "0x01",
                "storage" : {
                }
            }
        },
        "pre" : {
            "0x095e7baea6a6c7c4c2dfeb977efac326af552d87" : {
                "balance" : "0x0de0b6b3a7640000",
                "code" : "0x60606040526000357c01000000000000000000000000000000000000000000000000000000009004806335f46994146100445780634d536fe31461005157610042565b005b61004f600450610072565b005b61005c60045061008d565b6040518082815260200191505060405180910390f35b3073ffffffffffffffffffffffffffffffffffffffff16ff5b565b600060003073ffffffffffffffffffffffffffffffffffffffff166335f46994604051817c01000000000000000000000000000000000000000000000000000000000281526004018090506000604051808303816000876161da5a03f115610002575050503073ffffffffffffffffffffffffffffffffffffffff163190503373ffffffffffffffffffffffffffffffffffffffff16600082604051809050600060405180830381858888f1935050505050809150610147565b509056",
                "nonce" : "0x00",
                "storage" : {
                }
            },
            "0xa94f5374fce5edbc8e2a8697c15331677e6ebf0b" : {
                "balance" : "0x0de0b6b3a7640000",
                "code" : "",
                "nonce" : "0x00",
                "storage" : {
                }
            }
        }
    },
    "suicideSendEtherPostDeath_d0g0v0_Homestead" : {
        "_info" : {
            "comment" : "",
            "filledwith" : "cpp-1.3.0+commit.6e0ce939.Linux.g++",
            "lllcversion" : "Version: 0.4.18-develop.2017.9.25+commit.a72237f2.Linux.g++",
            "source" : "src/BlockchainTestsFiller/GeneralStateTests/stSystemOperationsTest/suicideSendEtherPostDeath_d0g0v0Filler.json",
            "sourceHash" : "872fed0d8c78e8a187847046205371a9c66fc4479039ece1470478d6608e0a3c"
        },
        "blocks" : [
            {
                "blockHeader" : {
                    "bloom" : "0x00000000000000000000000000000000000000000000000000000000000000000000000000000000000000000000000000000000000000000000000000000000000000000000000000000000000000000000000000000000000000000000000000000000000000000000000000000000000000000000000000000000000000000000000000000000000000000000000000000000000000000000000000000000000000000000000000000000000000000000000000000000000000000000000000000000000000000000000000000000000000000000000000000000000000000000000000000000000000000000000000000000000000000000000000000000",
                    "coinbase" : "0x2adc25665018aa1fe0e6bc666dac8fc2697ff9ba",
                    "difficulty" : "0x020000",
                    "extraData" : "",
                    "gasLimit" : "0x989680",
                    "gasUsed" : "0x2aa8",
                    "hash" : "0xd9d2d9f55fe0ece4e8a7ab1c14c27cf16b4d23f5f6bb870447139451524dac33",
                    "mixHash" : "0x11bfce0142f68396e4a3d512818572afcfab7c686b0c10f6962a66efd45ef2d3",
                    "nonce" : "0xea706e020796cf20",
                    "number" : "0x01",
                    "parentHash" : "0x677559a443bebaea54345653130a198422feb16c8bbaa968d6aad13d4b9c57e7",
                    "receiptTrie" : "0xb0fc6274e17b84d8a65701bcf1236c7f722282f3684ea7d8e76706b8cfe96ecc",
                    "stateRoot" : "0x2dc4e1cd69f7620e15c24e567e877824a371b64db44ff04477dec8aef733bfd6",
                    "timestamp" : "0x03e8",
                    "transactionsTrie" : "0xc12a5e930733d9466c2e7c64f52a7254ccc51cd72b9216f9d8d59def78a4a00d",
                    "uncleHash" : "0x1dcc4de8dec75d7aab85b567b6ccd41ad312451b948a7413f0a142fd40d49347"
                },
                "rlp" : "0xf90266f901f7a0677559a443bebaea54345653130a198422feb16c8bbaa968d6aad13d4b9c57e7a01dcc4de8dec75d7aab85b567b6ccd41ad312451b948a7413f0a142fd40d49347942adc25665018aa1fe0e6bc666dac8fc2697ff9baa02dc4e1cd69f7620e15c24e567e877824a371b64db44ff04477dec8aef733bfd6a0c12a5e930733d9466c2e7c64f52a7254ccc51cd72b9216f9d8d59def78a4a00da0b0fc6274e17b84d8a65701bcf1236c7f722282f3684ea7d8e76706b8cfe96eccb9010000000000000000000000000000000000000000000000000000000000000000000000000000000000000000000000000000000000000000000000000000000000000000000000000000000000000000000000000000000000000000000000000000000000000000000000000000000000000000000000000000000000000000000000000000000000000000000000000000000000000000000000000000000000000000000000000000000000000000000000000000000000000000000000000000000000000000000000000000000000000000000000000000000000000000000000000000000000000000000000000000000000000000000000000000000000830200000183989680822aa88203e880a011bfce0142f68396e4a3d512818572afcfab7c686b0c10f6962a66efd45ef2d388ea706e020796cf20f869f8678001832dc6c094095e7baea6a6c7c4c2dfeb977efac326af552d87830186a0844d536fe31ca049a9f64355ac77855a3b55dbff4641731274683f4ebd27317d235c052ad17a5ca0486736d73963f6c8958852d2a240f31f0cb1dde0c100a6f52aeb6e470717391bc0",
                "transactions" : [
                    {
                        "data" : "0x4d536fe3",
                        "gasLimit" : "0x2dc6c0",
                        "gasPrice" : "0x01",
                        "nonce" : "0x00",
                        "r" : "0x49a9f64355ac77855a3b55dbff4641731274683f4ebd27317d235c052ad17a5c",
                        "s" : "0x486736d73963f6c8958852d2a240f31f0cb1dde0c100a6f52aeb6e470717391b",
                        "to" : "0x095e7baea6a6c7c4c2dfeb977efac326af552d87",
                        "v" : "0x1c",
                        "value" : "0x0186a0"
                    }
                ],
                "uncleHeaders" : [
                ]
            }
        ],
        "genesisBlockHeader" : {
            "bloom" : "0x00000000000000000000000000000000000000000000000000000000000000000000000000000000000000000000000000000000000000000000000000000000000000000000000000000000000000000000000000000000000000000000000000000000000000000000000000000000000000000000000000000000000000000000000000000000000000000000000000000000000000000000000000000000000000000000000000000000000000000000000000000000000000000000000000000000000000000000000000000000000000000000000000000000000000000000000000000000000000000000000000000000000000000000000000000000",
            "coinbase" : "0x2adc25665018aa1fe0e6bc666dac8fc2697ff9ba",
            "difficulty" : "0x020000",
            "extraData" : "0x42",
            "gasLimit" : "0x989680",
            "gasUsed" : "0x00",
            "hash" : "0x677559a443bebaea54345653130a198422feb16c8bbaa968d6aad13d4b9c57e7",
            "mixHash" : "0x56e81f171bcc55a6ff8345e692c0f86e5b48e01b996cadc001622fb5e363b421",
            "nonce" : "0x0102030405060708",
            "number" : "0x00",
            "parentHash" : "0x0000000000000000000000000000000000000000000000000000000000000000",
            "receiptTrie" : "0x56e81f171bcc55a6ff8345e692c0f86e5b48e01b996cadc001622fb5e363b421",
            "stateRoot" : "0x18ff7fab80690a2b3700814ed7faa99ffc1322ea00efe5d9338b16ec80c1ffbd",
            "timestamp" : "0x03b6",
            "transactionsTrie" : "0x56e81f171bcc55a6ff8345e692c0f86e5b48e01b996cadc001622fb5e363b421",
            "uncleHash" : "0x1dcc4de8dec75d7aab85b567b6ccd41ad312451b948a7413f0a142fd40d49347"
        },
        "genesisRLP" : "0xf901faf901f5a00000000000000000000000000000000000000000000000000000000000000000a01dcc4de8dec75d7aab85b567b6ccd41ad312451b948a7413f0a142fd40d49347942adc25665018aa1fe0e6bc666dac8fc2697ff9baa018ff7fab80690a2b3700814ed7faa99ffc1322ea00efe5d9338b16ec80c1ffbda056e81f171bcc55a6ff8345e692c0f86e5b48e01b996cadc001622fb5e363b421a056e81f171bcc55a6ff8345e692c0f86e5b48e01b996cadc001622fb5e363b421b9010000000000000000000000000000000000000000000000000000000000000000000000000000000000000000000000000000000000000000000000000000000000000000000000000000000000000000000000000000000000000000000000000000000000000000000000000000000000000000000000000000000000000000000000000000000000000000000000000000000000000000000000000000000000000000000000000000000000000000000000000000000000000000000000000000000000000000000000000000000000000000000000000000000000000000000000000000000000000000000000000000000000000000000000000000000000830200008083989680808203b642a056e81f171bcc55a6ff8345e692c0f86e5b48e01b996cadc001622fb5e363b421880102030405060708c0c0",
        "lastblockhash" : "0xd9d2d9f55fe0ece4e8a7ab1c14c27cf16b4d23f5f6bb870447139451524dac33",
        "network" : "Homestead",
        "postState" : {
            "0x2adc25665018aa1fe0e6bc666dac8fc2697ff9ba" : {
                "balance" : "0x4563918244f42aa8",
                "code" : "",
                "nonce" : "0x00",
                "storage" : {
                }
            },
            "0xa94f5374fce5edbc8e2a8697c15331677e6ebf0b" : {
                "balance" : "0x0de0b6b3a7624eb8",
                "code" : "",
                "nonce" : "0x01",
                "storage" : {
                }
            }
        },
        "pre" : {
            "0x095e7baea6a6c7c4c2dfeb977efac326af552d87" : {
                "balance" : "0x0de0b6b3a7640000",
                "code" : "0x60606040526000357c01000000000000000000000000000000000000000000000000000000009004806335f46994146100445780634d536fe31461005157610042565b005b61004f600450610072565b005b61005c60045061008d565b6040518082815260200191505060405180910390f35b3073ffffffffffffffffffffffffffffffffffffffff16ff5b565b600060003073ffffffffffffffffffffffffffffffffffffffff166335f46994604051817c01000000000000000000000000000000000000000000000000000000000281526004018090506000604051808303816000876161da5a03f115610002575050503073ffffffffffffffffffffffffffffffffffffffff163190503373ffffffffffffffffffffffffffffffffffffffff16600082604051809050600060405180830381858888f1935050505050809150610147565b509056",
                "nonce" : "0x00",
                "storage" : {
                }
            },
            "0xa94f5374fce5edbc8e2a8697c15331677e6ebf0b" : {
                "balance" : "0x0de0b6b3a7640000",
                "code" : "",
                "nonce" : "0x00",
                "storage" : {
                }
            }
        }
    }
}