{
    "TestNameRegistrator_d0g0v0_Byzantium" : {
        "_info" : {
            "comment" : "",
            "filledwith" : "cpp-1.3.0+commit.6e0ce939.Linux.g++",
            "lllcversion" : "Version: 0.4.18-develop.2017.9.25+commit.a72237f2.Linux.g++",
            "source" : "src/BlockchainTestsFiller/GeneralStateTests/stSystemOperationsTest/TestNameRegistrator_d0g0v0Filler.json",
            "sourceHash" : "d4143f24a97bd8f56fd9f6fdfaf79c103095e2c2c760c8e3ca0335b71cb9b566"
        },
        "blocks" : [
            {
                "blockHeader" : {
                    "bloom" : "0x00000000000000000000000000000000000000000000000000000000000000000000000000000000000000000000000000000000000000000000000000000000000000000000000000000000000000000000000000000000000000000000000000000000000000000000000000000000000000000000000000000000000000000000000000000000000000000000000000000000000000000000000000000000000000000000000000000000000000000000000000000000000000000000000000000000000000000000000000000000000000000000000000000000000000000000000000000000000000000000000000000000000000000000000000000000",
                    "coinbase" : "0x2adc25665018aa1fe0e6bc666dac8fc2697ff9ba",
                    "difficulty" : "0x020000",
                    "extraData" : "",
                    "gasLimit" : "0x0f4240",
                    "gasUsed" : "0xb213",
                    "hash" : "0x72b3cf7504f2954688bc79952b570d1b084a8549c3d47b0b55354f5f3b039898",
                    "mixHash" : "0x0d2061b6503519a3413aa09ad676a088a2712f72ab9501dd4a764d48bd4ab371",
                    "nonce" : "0x033420c5729dd19d",
                    "number" : "0x01",
                    "parentHash" : "0xaeb1f6550287255af8c23f447b00ddbf653dac0f40a1db78a09e8ceee83505d1",
                    "receiptTrie" : "0xb6213c085d958e7f4471b63b7538e8d188ed09863f2de6b6361aa2370b6743ad",
                    "stateRoot" : "0xc4d4a771379488c377888cc2d4dbabbe6047e0f5c8e12298ee8da8df30656266",
                    "timestamp" : "0x03e8",
                    "transactionsTrie" : "0x8325e3af7e587198457d001c06fc1efe234fe465743ef95bc534ad09c04c84ef",
                    "uncleHash" : "0x1dcc4de8dec75d7aab85b567b6ccd41ad312451b948a7413f0a142fd40d49347"
                },
                "rlp" : "0xf902a3f901f7a0aeb1f6550287255af8c23f447b00ddbf653dac0f40a1db78a09e8ceee83505d1a01dcc4de8dec75d7aab85b567b6ccd41ad312451b948a7413f0a142fd40d49347942adc25665018aa1fe0e6bc666dac8fc2697ff9baa0c4d4a771379488c377888cc2d4dbabbe6047e0f5c8e12298ee8da8df30656266a08325e3af7e587198457d001c06fc1efe234fe465743ef95bc534ad09c04c84efa0b6213c085d958e7f4471b63b7538e8d188ed09863f2de6b6361aa2370b6743adb90100000000000000000000000000000000000000000000000000000000000000000000000000000000000000000000000000000000000000000000000000000000000000000000000000000000000000000000000000000000000000000000000000000000000000000000000000000000000000000000000000000000000000000000000000000000000000000000000000000000000000000000000000000000000000000000000000000000000000000000000000000000000000000000000000000000000000000000000000000000000000000000000000000000000000000000000000000000000000000000000000000000000000000000000000000000008302000001830f424082b2138203e880a00d2061b6503519a3413aa09ad676a088a2712f72ab9501dd4a764d48bd4ab37188033420c5729dd19df8a6f8a48001830f424094095e7baea6a6c7c4c2dfeb977efac326af552d87830186a0b840fffffffffffffffffffffffffffffffffffffffffffffffffffffffffffffffafffffffffffffffffffffffffffffffffffffffffffffffffffffffffffffffa1ba0c5d4ad7f568fcfaf1c9b68c53c1425471e17ff8cbfba86591b06845b31249b43a02e5108c3eb9a4334d65617e41d00d30d7622e9192eba18c752d6c3cf89040107c0",
                "transactions" : [
                    {
                        "data" : "0xfffffffffffffffffffffffffffffffffffffffffffffffffffffffffffffffafffffffffffffffffffffffffffffffffffffffffffffffffffffffffffffffa",
                        "gasLimit" : "0x0f4240",
                        "gasPrice" : "0x01",
                        "nonce" : "0x00",
                        "r" : "0xc5d4ad7f568fcfaf1c9b68c53c1425471e17ff8cbfba86591b06845b31249b43",
                        "s" : "0x2e5108c3eb9a4334d65617e41d00d30d7622e9192eba18c752d6c3cf89040107",
                        "to" : "0x095e7baea6a6c7c4c2dfeb977efac326af552d87",
                        "v" : "0x1b",
                        "value" : "0x0186a0"
                    }
                ],
                "uncleHeaders" : [
                ]
            }
        ],
        "genesisBlockHeader" : {
            "bloom" : "0x00000000000000000000000000000000000000000000000000000000000000000000000000000000000000000000000000000000000000000000000000000000000000000000000000000000000000000000000000000000000000000000000000000000000000000000000000000000000000000000000000000000000000000000000000000000000000000000000000000000000000000000000000000000000000000000000000000000000000000000000000000000000000000000000000000000000000000000000000000000000000000000000000000000000000000000000000000000000000000000000000000000000000000000000000000000",
            "coinbase" : "0x2adc25665018aa1fe0e6bc666dac8fc2697ff9ba",
            "difficulty" : "0x020000",
            "extraData" : "0x42",
            "gasLimit" : "0x0f4240",
            "gasUsed" : "0x00",
            "hash" : "0xaeb1f6550287255af8c23f447b00ddbf653dac0f40a1db78a09e8ceee83505d1",
            "mixHash" : "0x56e81f171bcc55a6ff8345e692c0f86e5b48e01b996cadc001622fb5e363b421",
            "nonce" : "0x0102030405060708",
            "number" : "0x00",
            "parentHash" : "0x0000000000000000000000000000000000000000000000000000000000000000",
            "receiptTrie" : "0x56e81f171bcc55a6ff8345e692c0f86e5b48e01b996cadc001622fb5e363b421",
            "stateRoot" : "0x96a3de4b7267e755724f2423e36a17b47333b3bf2f3996ea2f77a5be23f00939",
            "timestamp" : "0x03b6",
            "transactionsTrie" : "0x56e81f171bcc55a6ff8345e692c0f86e5b48e01b996cadc001622fb5e363b421",
            "uncleHash" : "0x1dcc4de8dec75d7aab85b567b6ccd41ad312451b948a7413f0a142fd40d49347"
        },
        "genesisRLP" : "0xf901faf901f5a00000000000000000000000000000000000000000000000000000000000000000a01dcc4de8dec75d7aab85b567b6ccd41ad312451b948a7413f0a142fd40d49347942adc25665018aa1fe0e6bc666dac8fc2697ff9baa096a3de4b7267e755724f2423e36a17b47333b3bf2f3996ea2f77a5be23f00939a056e81f171bcc55a6ff8345e692c0f86e5b48e01b996cadc001622fb5e363b421a056e81f171bcc55a6ff8345e692c0f86e5b48e01b996cadc001622fb5e363b421b90100000000000000000000000000000000000000000000000000000000000000000000000000000000000000000000000000000000000000000000000000000000000000000000000000000000000000000000000000000000000000000000000000000000000000000000000000000000000000000000000000000000000000000000000000000000000000000000000000000000000000000000000000000000000000000000000000000000000000000000000000000000000000000000000000000000000000000000000000000000000000000000000000000000000000000000000000000000000000000000000000000000000000000000000000000000008302000080830f4240808203b642a056e81f171bcc55a6ff8345e692c0f86e5b48e01b996cadc001622fb5e363b421880102030405060708c0c0",
        "lastblockhash" : "0x72b3cf7504f2954688bc79952b570d1b084a8549c3d47b0b55354f5f3b039898",
        "network" : "Byzantium",
        "postState" : {
            "0x095e7baea6a6c7c4c2dfeb977efac326af552d87" : {
                "balance" : "0x0de0b6b3a76586a0",
                "code" : "0x6000355415600957005b60203560003555",
                "nonce" : "0x00",
                "storage" : {
                    "0xfffffffffffffffffffffffffffffffffffffffffffffffffffffffffffffffa" : "0xfffffffffffffffffffffffffffffffffffffffffffffffffffffffffffffffa"
                }
            },
            "0x2adc25665018aa1fe0e6bc666dac8fc2697ff9ba" : {
                "balance" : "0x29a2241af62cb213",
                "code" : "",
                "nonce" : "0x00",
                "storage" : {
                }
            },
            "0xa94f5374fce5edbc8e2a8697c15331677e6ebf0b" : {
                "balance" : "0x0de0b6b3a761c74d",
                "code" : "",
                "nonce" : "0x01",
                "storage" : {
                }
            }
        },
        "pre" : {
            "0x095e7baea6a6c7c4c2dfeb977efac326af552d87" : {
                "balance" : "0x0de0b6b3a7640000",
                "code" : "0x6000355415600957005b60203560003555",
                "nonce" : "0x00",
                "storage" : {
                }
            },
            "0xa94f5374fce5edbc8e2a8697c15331677e6ebf0b" : {
                "balance" : "0x0de0b6b3a7640000",
                "code" : "",
                "nonce" : "0x00",
                "storage" : {
                }
            }
        }
    },
    "TestNameRegistrator_d0g0v0_EIP150" : {
        "_info" : {
            "comment" : "",
            "filledwith" : "cpp-1.3.0+commit.6e0ce939.Linux.g++",
            "lllcversion" : "Version: 0.4.18-develop.2017.9.25+commit.a72237f2.Linux.g++",
            "source" : "src/BlockchainTestsFiller/GeneralStateTests/stSystemOperationsTest/TestNameRegistrator_d0g0v0Filler.json",
            "sourceHash" : "d4143f24a97bd8f56fd9f6fdfaf79c103095e2c2c760c8e3ca0335b71cb9b566"
        },
        "blocks" : [
            {
                "blockHeader" : {
                    "bloom" : "0x00000000000000000000000000000000000000000000000000000000000000000000000000000000000000000000000000000000000000000000000000000000000000000000000000000000000000000000000000000000000000000000000000000000000000000000000000000000000000000000000000000000000000000000000000000000000000000000000000000000000000000000000000000000000000000000000000000000000000000000000000000000000000000000000000000000000000000000000000000000000000000000000000000000000000000000000000000000000000000000000000000000000000000000000000000000",
                    "coinbase" : "0x2adc25665018aa1fe0e6bc666dac8fc2697ff9ba",
                    "difficulty" : "0x020000",
                    "extraData" : "",
                    "gasLimit" : "0x0f4240",
                    "gasUsed" : "0xb213",
                    "hash" : "0xa18e479386e34292387decf27d03caa393226a0da1dae5f60913bcc7597a52c2",
                    "mixHash" : "0x24d64393d98ef4c5aaf6902a67445956dacc5163d7cf32f8d4b881311de87193",
                    "nonce" : "0xfeb197069ab8b3d3",
                    "number" : "0x01",
                    "parentHash" : "0xaeb1f6550287255af8c23f447b00ddbf653dac0f40a1db78a09e8ceee83505d1",
                    "receiptTrie" : "0x7c2e5cb85390c5c2fe452b386b2829aba8f8e18a850c0009a3ffd56e886ca45c",
                    "stateRoot" : "0xdebd92225f1f71650e04071df2997904bb1ae5b97a5a6def6c9cf945795350f5",
                    "timestamp" : "0x03e8",
                    "transactionsTrie" : "0x8325e3af7e587198457d001c06fc1efe234fe465743ef95bc534ad09c04c84ef",
                    "uncleHash" : "0x1dcc4de8dec75d7aab85b567b6ccd41ad312451b948a7413f0a142fd40d49347"
                },
                "rlp" : "0xf902a3f901f7a0aeb1f6550287255af8c23f447b00ddbf653dac0f40a1db78a09e8ceee83505d1a01dcc4de8dec75d7aab85b567b6ccd41ad312451b948a7413f0a142fd40d49347942adc25665018aa1fe0e6bc666dac8fc2697ff9baa0debd92225f1f71650e04071df2997904bb1ae5b97a5a6def6c9cf945795350f5a08325e3af7e587198457d001c06fc1efe234fe465743ef95bc534ad09c04c84efa07c2e5cb85390c5c2fe452b386b2829aba8f8e18a850c0009a3ffd56e886ca45cb90100000000000000000000000000000000000000000000000000000000000000000000000000000000000000000000000000000000000000000000000000000000000000000000000000000000000000000000000000000000000000000000000000000000000000000000000000000000000000000000000000000000000000000000000000000000000000000000000000000000000000000000000000000000000000000000000000000000000000000000000000000000000000000000000000000000000000000000000000000000000000000000000000000000000000000000000000000000000000000000000000000000000000000000000000000000008302000001830f424082b2138203e880a024d64393d98ef4c5aaf6902a67445956dacc5163d7cf32f8d4b881311de8719388feb197069ab8b3d3f8a6f8a48001830f424094095e7baea6a6c7c4c2dfeb977efac326af552d87830186a0b840fffffffffffffffffffffffffffffffffffffffffffffffffffffffffffffffafffffffffffffffffffffffffffffffffffffffffffffffffffffffffffffffa1ba0c5d4ad7f568fcfaf1c9b68c53c1425471e17ff8cbfba86591b06845b31249b43a02e5108c3eb9a4334d65617e41d00d30d7622e9192eba18c752d6c3cf89040107c0",
                "transactions" : [
                    {
                        "data" : "0xfffffffffffffffffffffffffffffffffffffffffffffffffffffffffffffffafffffffffffffffffffffffffffffffffffffffffffffffffffffffffffffffa",
                        "gasLimit" : "0x0f4240",
                        "gasPrice" : "0x01",
                        "nonce" : "0x00",
                        "r" : "0xc5d4ad7f568fcfaf1c9b68c53c1425471e17ff8cbfba86591b06845b31249b43",
                        "s" : "0x2e5108c3eb9a4334d65617e41d00d30d7622e9192eba18c752d6c3cf89040107",
                        "to" : "0x095e7baea6a6c7c4c2dfeb977efac326af552d87",
                        "v" : "0x1b",
                        "value" : "0x0186a0"
                    }
                ],
                "uncleHeaders" : [
                ]
            }
        ],
        "genesisBlockHeader" : {
            "bloom" : "0x00000000000000000000000000000000000000000000000000000000000000000000000000000000000000000000000000000000000000000000000000000000000000000000000000000000000000000000000000000000000000000000000000000000000000000000000000000000000000000000000000000000000000000000000000000000000000000000000000000000000000000000000000000000000000000000000000000000000000000000000000000000000000000000000000000000000000000000000000000000000000000000000000000000000000000000000000000000000000000000000000000000000000000000000000000000",
            "coinbase" : "0x2adc25665018aa1fe0e6bc666dac8fc2697ff9ba",
            "difficulty" : "0x020000",
            "extraData" : "0x42",
            "gasLimit" : "0x0f4240",
            "gasUsed" : "0x00",
            "hash" : "0xaeb1f6550287255af8c23f447b00ddbf653dac0f40a1db78a09e8ceee83505d1",
            "mixHash" : "0x56e81f171bcc55a6ff8345e692c0f86e5b48e01b996cadc001622fb5e363b421",
            "nonce" : "0x0102030405060708",
            "number" : "0x00",
            "parentHash" : "0x0000000000000000000000000000000000000000000000000000000000000000",
            "receiptTrie" : "0x56e81f171bcc55a6ff8345e692c0f86e5b48e01b996cadc001622fb5e363b421",
            "stateRoot" : "0x96a3de4b7267e755724f2423e36a17b47333b3bf2f3996ea2f77a5be23f00939",
            "timestamp" : "0x03b6",
            "transactionsTrie" : "0x56e81f171bcc55a6ff8345e692c0f86e5b48e01b996cadc001622fb5e363b421",
            "uncleHash" : "0x1dcc4de8dec75d7aab85b567b6ccd41ad312451b948a7413f0a142fd40d49347"
        },
        "genesisRLP" : "0xf901faf901f5a00000000000000000000000000000000000000000000000000000000000000000a01dcc4de8dec75d7aab85b567b6ccd41ad312451b948a7413f0a142fd40d49347942adc25665018aa1fe0e6bc666dac8fc2697ff9baa096a3de4b7267e755724f2423e36a17b47333b3bf2f3996ea2f77a5be23f00939a056e81f171bcc55a6ff8345e692c0f86e5b48e01b996cadc001622fb5e363b421a056e81f171bcc55a6ff8345e692c0f86e5b48e01b996cadc001622fb5e363b421b90100000000000000000000000000000000000000000000000000000000000000000000000000000000000000000000000000000000000000000000000000000000000000000000000000000000000000000000000000000000000000000000000000000000000000000000000000000000000000000000000000000000000000000000000000000000000000000000000000000000000000000000000000000000000000000000000000000000000000000000000000000000000000000000000000000000000000000000000000000000000000000000000000000000000000000000000000000000000000000000000000000000000000000000000000000000008302000080830f4240808203b642a056e81f171bcc55a6ff8345e692c0f86e5b48e01b996cadc001622fb5e363b421880102030405060708c0c0",
        "lastblockhash" : "0xa18e479386e34292387decf27d03caa393226a0da1dae5f60913bcc7597a52c2",
        "network" : "EIP150",
        "postState" : {
            "0x095e7baea6a6c7c4c2dfeb977efac326af552d87" : {
                "balance" : "0x0de0b6b3a76586a0",
                "code" : "0x6000355415600957005b60203560003555",
                "nonce" : "0x00",
                "storage" : {
                    "0xfffffffffffffffffffffffffffffffffffffffffffffffffffffffffffffffa" : "0xfffffffffffffffffffffffffffffffffffffffffffffffffffffffffffffffa"
                }
            },
            "0x2adc25665018aa1fe0e6bc666dac8fc2697ff9ba" : {
                "balance" : "0x4563918244f4b213",
                "code" : "",
                "nonce" : "0x00",
                "storage" : {
                }
            },
            "0xa94f5374fce5edbc8e2a8697c15331677e6ebf0b" : {
                "balance" : "0x0de0b6b3a761c74d",
                "code" : "",
                "nonce" : "0x01",
                "storage" : {
                }
            }
        },
        "pre" : {
            "0x095e7baea6a6c7c4c2dfeb977efac326af552d87" : {
                "balance" : "0x0de0b6b3a7640000",
                "code" : "0x6000355415600957005b60203560003555",
                "nonce" : "0x00",
                "storage" : {
                }
            },
            "0xa94f5374fce5edbc8e2a8697c15331677e6ebf0b" : {
                "balance" : "0x0de0b6b3a7640000",
                "code" : "",
                "nonce" : "0x00",
                "storage" : {
                }
            }
        }
    },
    "TestNameRegistrator_d0g0v0_EIP158" : {
        "_info" : {
            "comment" : "",
            "filledwith" : "cpp-1.3.0+commit.6e0ce939.Linux.g++",
            "lllcversion" : "Version: 0.4.18-develop.2017.9.25+commit.a72237f2.Linux.g++",
            "source" : "src/BlockchainTestsFiller/GeneralStateTests/stSystemOperationsTest/TestNameRegistrator_d0g0v0Filler.json",
            "sourceHash" : "d4143f24a97bd8f56fd9f6fdfaf79c103095e2c2c760c8e3ca0335b71cb9b566"
        },
        "blocks" : [
            {
                "blockHeader" : {
                    "bloom" : "0x00000000000000000000000000000000000000000000000000000000000000000000000000000000000000000000000000000000000000000000000000000000000000000000000000000000000000000000000000000000000000000000000000000000000000000000000000000000000000000000000000000000000000000000000000000000000000000000000000000000000000000000000000000000000000000000000000000000000000000000000000000000000000000000000000000000000000000000000000000000000000000000000000000000000000000000000000000000000000000000000000000000000000000000000000000000",
                    "coinbase" : "0x2adc25665018aa1fe0e6bc666dac8fc2697ff9ba",
                    "difficulty" : "0x020000",
                    "extraData" : "",
                    "gasLimit" : "0x0f4240",
                    "gasUsed" : "0xb213",
                    "hash" : "0xbad17e0a89bb6841b2df7d7a70dd2128f26e8cb252449e6564a13b7aa11c014f",
                    "mixHash" : "0xf61d8890df599ad3532a0a7cf98f2387e357c60e9628a7e3ba583bee9d3519b5",
                    "nonce" : "0x23cc3c24f10f7f86",
                    "number" : "0x01",
                    "parentHash" : "0xaeb1f6550287255af8c23f447b00ddbf653dac0f40a1db78a09e8ceee83505d1",
                    "receiptTrie" : "0x7c2e5cb85390c5c2fe452b386b2829aba8f8e18a850c0009a3ffd56e886ca45c",
                    "stateRoot" : "0xdebd92225f1f71650e04071df2997904bb1ae5b97a5a6def6c9cf945795350f5",
                    "timestamp" : "0x03e8",
                    "transactionsTrie" : "0x8325e3af7e587198457d001c06fc1efe234fe465743ef95bc534ad09c04c84ef",
                    "uncleHash" : "0x1dcc4de8dec75d7aab85b567b6ccd41ad312451b948a7413f0a142fd40d49347"
                },
                "rlp" : "0xf902a3f901f7a0aeb1f6550287255af8c23f447b00ddbf653dac0f40a1db78a09e8ceee83505d1a01dcc4de8dec75d7aab85b567b6ccd41ad312451b948a7413f0a142fd40d49347942adc25665018aa1fe0e6bc666dac8fc2697ff9baa0debd92225f1f71650e04071df2997904bb1ae5b97a5a6def6c9cf945795350f5a08325e3af7e587198457d001c06fc1efe234fe465743ef95bc534ad09c04c84efa07c2e5cb85390c5c2fe452b386b2829aba8f8e18a850c0009a3ffd56e886ca45cb90100000000000000000000000000000000000000000000000000000000000000000000000000000000000000000000000000000000000000000000000000000000000000000000000000000000000000000000000000000000000000000000000000000000000000000000000000000000000000000000000000000000000000000000000000000000000000000000000000000000000000000000000000000000000000000000000000000000000000000000000000000000000000000000000000000000000000000000000000000000000000000000000000000000000000000000000000000000000000000000000000000000000000000000000000000000008302000001830f424082b2138203e880a0f61d8890df599ad3532a0a7cf98f2387e357c60e9628a7e3ba583bee9d3519b58823cc3c24f10f7f86f8a6f8a48001830f424094095e7baea6a6c7c4c2dfeb977efac326af552d87830186a0b840fffffffffffffffffffffffffffffffffffffffffffffffffffffffffffffffafffffffffffffffffffffffffffffffffffffffffffffffffffffffffffffffa1ba0c5d4ad7f568fcfaf1c9b68c53c1425471e17ff8cbfba86591b06845b31249b43a02e5108c3eb9a4334d65617e41d00d30d7622e9192eba18c752d6c3cf89040107c0",
                "transactions" : [
                    {
                        "data" : "0xfffffffffffffffffffffffffffffffffffffffffffffffffffffffffffffffafffffffffffffffffffffffffffffffffffffffffffffffffffffffffffffffa",
                        "gasLimit" : "0x0f4240",
                        "gasPrice" : "0x01",
                        "nonce" : "0x00",
                        "r" : "0xc5d4ad7f568fcfaf1c9b68c53c1425471e17ff8cbfba86591b06845b31249b43",
                        "s" : "0x2e5108c3eb9a4334d65617e41d00d30d7622e9192eba18c752d6c3cf89040107",
                        "to" : "0x095e7baea6a6c7c4c2dfeb977efac326af552d87",
                        "v" : "0x1b",
                        "value" : "0x0186a0"
                    }
                ],
                "uncleHeaders" : [
                ]
            }
        ],
        "genesisBlockHeader" : {
            "bloom" : "0x00000000000000000000000000000000000000000000000000000000000000000000000000000000000000000000000000000000000000000000000000000000000000000000000000000000000000000000000000000000000000000000000000000000000000000000000000000000000000000000000000000000000000000000000000000000000000000000000000000000000000000000000000000000000000000000000000000000000000000000000000000000000000000000000000000000000000000000000000000000000000000000000000000000000000000000000000000000000000000000000000000000000000000000000000000000",
            "coinbase" : "0x2adc25665018aa1fe0e6bc666dac8fc2697ff9ba",
            "difficulty" : "0x020000",
            "extraData" : "0x42",
            "gasLimit" : "0x0f4240",
            "gasUsed" : "0x00",
            "hash" : "0xaeb1f6550287255af8c23f447b00ddbf653dac0f40a1db78a09e8ceee83505d1",
            "mixHash" : "0x56e81f171bcc55a6ff8345e692c0f86e5b48e01b996cadc001622fb5e363b421",
            "nonce" : "0x0102030405060708",
            "number" : "0x00",
            "parentHash" : "0x0000000000000000000000000000000000000000000000000000000000000000",
            "receiptTrie" : "0x56e81f171bcc55a6ff8345e692c0f86e5b48e01b996cadc001622fb5e363b421",
            "stateRoot" : "0x96a3de4b7267e755724f2423e36a17b47333b3bf2f3996ea2f77a5be23f00939",
            "timestamp" : "0x03b6",
            "transactionsTrie" : "0x56e81f171bcc55a6ff8345e692c0f86e5b48e01b996cadc001622fb5e363b421",
            "uncleHash" : "0x1dcc4de8dec75d7aab85b567b6ccd41ad312451b948a7413f0a142fd40d49347"
        },
        "genesisRLP" : "0xf901faf901f5a00000000000000000000000000000000000000000000000000000000000000000a01dcc4de8dec75d7aab85b567b6ccd41ad312451b948a7413f0a142fd40d49347942adc25665018aa1fe0e6bc666dac8fc2697ff9baa096a3de4b7267e755724f2423e36a17b47333b3bf2f3996ea2f77a5be23f00939a056e81f171bcc55a6ff8345e692c0f86e5b48e01b996cadc001622fb5e363b421a056e81f171bcc55a6ff8345e692c0f86e5b48e01b996cadc001622fb5e363b421b90100000000000000000000000000000000000000000000000000000000000000000000000000000000000000000000000000000000000000000000000000000000000000000000000000000000000000000000000000000000000000000000000000000000000000000000000000000000000000000000000000000000000000000000000000000000000000000000000000000000000000000000000000000000000000000000000000000000000000000000000000000000000000000000000000000000000000000000000000000000000000000000000000000000000000000000000000000000000000000000000000000000000000000000000000000000008302000080830f4240808203b642a056e81f171bcc55a6ff8345e692c0f86e5b48e01b996cadc001622fb5e363b421880102030405060708c0c0",
        "lastblockhash" : "0xbad17e0a89bb6841b2df7d7a70dd2128f26e8cb252449e6564a13b7aa11c014f",
        "network" : "EIP158",
        "postState" : {
            "0x095e7baea6a6c7c4c2dfeb977efac326af552d87" : {
                "balance" : "0x0de0b6b3a76586a0",
                "code" : "0x6000355415600957005b60203560003555",
                "nonce" : "0x00",
                "storage" : {
                    "0xfffffffffffffffffffffffffffffffffffffffffffffffffffffffffffffffa" : "0xfffffffffffffffffffffffffffffffffffffffffffffffffffffffffffffffa"
                }
            },
            "0x2adc25665018aa1fe0e6bc666dac8fc2697ff9ba" : {
                "balance" : "0x4563918244f4b213",
                "code" : "",
                "nonce" : "0x00",
                "storage" : {
                }
            },
            "0xa94f5374fce5edbc8e2a8697c15331677e6ebf0b" : {
                "balance" : "0x0de0b6b3a761c74d",
                "code" : "",
                "nonce" : "0x01",
                "storage" : {
                }
            }
        },
        "pre" : {
            "0x095e7baea6a6c7c4c2dfeb977efac326af552d87" : {
                "balance" : "0x0de0b6b3a7640000",
                "code" : "0x6000355415600957005b60203560003555",
                "nonce" : "0x00",
                "storage" : {
                }
            },
            "0xa94f5374fce5edbc8e2a8697c15331677e6ebf0b" : {
                "balance" : "0x0de0b6b3a7640000",
                "code" : "",
                "nonce" : "0x00",
                "storage" : {
                }
            }
        }
    },
    "TestNameRegistrator_d0g0v0_Frontier" : {
        "_info" : {
            "comment" : "",
            "filledwith" : "cpp-1.3.0+commit.6e0ce939.Linux.g++",
            "lllcversion" : "Version: 0.4.18-develop.2017.9.25+commit.a72237f2.Linux.g++",
            "source" : "src/BlockchainTestsFiller/GeneralStateTests/stSystemOperationsTest/TestNameRegistrator_d0g0v0Filler.json",
            "sourceHash" : "d4143f24a97bd8f56fd9f6fdfaf79c103095e2c2c760c8e3ca0335b71cb9b566"
        },
        "blocks" : [
            {
                "blockHeader" : {
                    "bloom" : "0x00000000000000000000000000000000000000000000000000000000000000000000000000000000000000000000000000000000000000000000000000000000000000000000000000000000000000000000000000000000000000000000000000000000000000000000000000000000000000000000000000000000000000000000000000000000000000000000000000000000000000000000000000000000000000000000000000000000000000000000000000000000000000000000000000000000000000000000000000000000000000000000000000000000000000000000000000000000000000000000000000000000000000000000000000000000",
                    "coinbase" : "0x2adc25665018aa1fe0e6bc666dac8fc2697ff9ba",
                    "difficulty" : "0x020000",
                    "extraData" : "",
                    "gasLimit" : "0x0f4240",
                    "gasUsed" : "0xb17d",
                    "hash" : "0xf17ede3c3122525561e650a1cb00771316165341873147064cd52e38ad2bf36d",
                    "mixHash" : "0x662f68c3a1917c6395c017503ee86a45b95326ccd28fda34a9081088c0761bac",
                    "nonce" : "0x39658b4315f6a07e",
                    "number" : "0x01",
                    "parentHash" : "0xaeb1f6550287255af8c23f447b00ddbf653dac0f40a1db78a09e8ceee83505d1",
                    "receiptTrie" : "0x5f777354aef5429b0127c8db458f2956d2f4eab4373aa80fe95c79d8604e8c81",
                    "stateRoot" : "0xf1005f169c02e95ea5be1079003baa3338513a61d0ff9ee86260be78e421c3c0",
                    "timestamp" : "0x03e8",
                    "transactionsTrie" : "0x8325e3af7e587198457d001c06fc1efe234fe465743ef95bc534ad09c04c84ef",
                    "uncleHash" : "0x1dcc4de8dec75d7aab85b567b6ccd41ad312451b948a7413f0a142fd40d49347"
                },
                "rlp" : "0xf902a3f901f7a0aeb1f6550287255af8c23f447b00ddbf653dac0f40a1db78a09e8ceee83505d1a01dcc4de8dec75d7aab85b567b6ccd41ad312451b948a7413f0a142fd40d49347942adc25665018aa1fe0e6bc666dac8fc2697ff9baa0f1005f169c02e95ea5be1079003baa3338513a61d0ff9ee86260be78e421c3c0a08325e3af7e587198457d001c06fc1efe234fe465743ef95bc534ad09c04c84efa05f777354aef5429b0127c8db458f2956d2f4eab4373aa80fe95c79d8604e8c81b90100000000000000000000000000000000000000000000000000000000000000000000000000000000000000000000000000000000000000000000000000000000000000000000000000000000000000000000000000000000000000000000000000000000000000000000000000000000000000000000000000000000000000000000000000000000000000000000000000000000000000000000000000000000000000000000000000000000000000000000000000000000000000000000000000000000000000000000000000000000000000000000000000000000000000000000000000000000000000000000000000000000000000000000000000000000008302000001830f424082b17d8203e880a0662f68c3a1917c6395c017503ee86a45b95326ccd28fda34a9081088c0761bac8839658b4315f6a07ef8a6f8a48001830f424094095e7baea6a6c7c4c2dfeb977efac326af552d87830186a0b840fffffffffffffffffffffffffffffffffffffffffffffffffffffffffffffffafffffffffffffffffffffffffffffffffffffffffffffffffffffffffffffffa1ba0c5d4ad7f568fcfaf1c9b68c53c1425471e17ff8cbfba86591b06845b31249b43a02e5108c3eb9a4334d65617e41d00d30d7622e9192eba18c752d6c3cf89040107c0",
                "transactions" : [
                    {
                        "data" : "0xfffffffffffffffffffffffffffffffffffffffffffffffffffffffffffffffafffffffffffffffffffffffffffffffffffffffffffffffffffffffffffffffa",
                        "gasLimit" : "0x0f4240",
                        "gasPrice" : "0x01",
                        "nonce" : "0x00",
                        "r" : "0xc5d4ad7f568fcfaf1c9b68c53c1425471e17ff8cbfba86591b06845b31249b43",
                        "s" : "0x2e5108c3eb9a4334d65617e41d00d30d7622e9192eba18c752d6c3cf89040107",
                        "to" : "0x095e7baea6a6c7c4c2dfeb977efac326af552d87",
                        "v" : "0x1b",
                        "value" : "0x0186a0"
                    }
                ],
                "uncleHeaders" : [
                ]
            }
        ],
        "genesisBlockHeader" : {
            "bloom" : "0x00000000000000000000000000000000000000000000000000000000000000000000000000000000000000000000000000000000000000000000000000000000000000000000000000000000000000000000000000000000000000000000000000000000000000000000000000000000000000000000000000000000000000000000000000000000000000000000000000000000000000000000000000000000000000000000000000000000000000000000000000000000000000000000000000000000000000000000000000000000000000000000000000000000000000000000000000000000000000000000000000000000000000000000000000000000",
            "coinbase" : "0x2adc25665018aa1fe0e6bc666dac8fc2697ff9ba",
            "difficulty" : "0x020000",
            "extraData" : "0x42",
            "gasLimit" : "0x0f4240",
            "gasUsed" : "0x00",
            "hash" : "0xaeb1f6550287255af8c23f447b00ddbf653dac0f40a1db78a09e8ceee83505d1",
            "mixHash" : "0x56e81f171bcc55a6ff8345e692c0f86e5b48e01b996cadc001622fb5e363b421",
            "nonce" : "0x0102030405060708",
            "number" : "0x00",
            "parentHash" : "0x0000000000000000000000000000000000000000000000000000000000000000",
            "receiptTrie" : "0x56e81f171bcc55a6ff8345e692c0f86e5b48e01b996cadc001622fb5e363b421",
            "stateRoot" : "0x96a3de4b7267e755724f2423e36a17b47333b3bf2f3996ea2f77a5be23f00939",
            "timestamp" : "0x03b6",
            "transactionsTrie" : "0x56e81f171bcc55a6ff8345e692c0f86e5b48e01b996cadc001622fb5e363b421",
            "uncleHash" : "0x1dcc4de8dec75d7aab85b567b6ccd41ad312451b948a7413f0a142fd40d49347"
        },
        "genesisRLP" : "0xf901faf901f5a00000000000000000000000000000000000000000000000000000000000000000a01dcc4de8dec75d7aab85b567b6ccd41ad312451b948a7413f0a142fd40d49347942adc25665018aa1fe0e6bc666dac8fc2697ff9baa096a3de4b7267e755724f2423e36a17b47333b3bf2f3996ea2f77a5be23f00939a056e81f171bcc55a6ff8345e692c0f86e5b48e01b996cadc001622fb5e363b421a056e81f171bcc55a6ff8345e692c0f86e5b48e01b996cadc001622fb5e363b421b90100000000000000000000000000000000000000000000000000000000000000000000000000000000000000000000000000000000000000000000000000000000000000000000000000000000000000000000000000000000000000000000000000000000000000000000000000000000000000000000000000000000000000000000000000000000000000000000000000000000000000000000000000000000000000000000000000000000000000000000000000000000000000000000000000000000000000000000000000000000000000000000000000000000000000000000000000000000000000000000000000000000000000000000000000000000008302000080830f4240808203b642a056e81f171bcc55a6ff8345e692c0f86e5b48e01b996cadc001622fb5e363b421880102030405060708c0c0",
        "lastblockhash" : "0xf17ede3c3122525561e650a1cb00771316165341873147064cd52e38ad2bf36d",
        "network" : "Frontier",
        "postState" : {
            "0x095e7baea6a6c7c4c2dfeb977efac326af552d87" : {
                "balance" : "0x0de0b6b3a76586a0",
                "code" : "0x6000355415600957005b60203560003555",
                "nonce" : "0x00",
                "storage" : {
                    "0xfffffffffffffffffffffffffffffffffffffffffffffffffffffffffffffffa" : "0xfffffffffffffffffffffffffffffffffffffffffffffffffffffffffffffffa"
                }
            },
            "0x2adc25665018aa1fe0e6bc666dac8fc2697ff9ba" : {
                "balance" : "0x4563918244f4b17d",
                "code" : "",
                "nonce" : "0x00",
                "storage" : {
                }
            },
            "0xa94f5374fce5edbc8e2a8697c15331677e6ebf0b" : {
                "balance" : "0x0de0b6b3a761c7e3",
                "code" : "",
                "nonce" : "0x01",
                "storage" : {
                }
            }
        },
        "pre" : {
            "0x095e7baea6a6c7c4c2dfeb977efac326af552d87" : {
                "balance" : "0x0de0b6b3a7640000",
                "code" : "0x6000355415600957005b60203560003555",
                "nonce" : "0x00",
                "storage" : {
                }
            },
            "0xa94f5374fce5edbc8e2a8697c15331677e6ebf0b" : {
                "balance" : "0x0de0b6b3a7640000",
                "code" : "",
                "nonce" : "0x00",
                "storage" : {
                }
            }
        }
    },
    "TestNameRegistrator_d0g0v0_Homestead" : {
        "_info" : {
            "comment" : "",
            "filledwith" : "cpp-1.3.0+commit.6e0ce939.Linux.g++",
            "lllcversion" : "Version: 0.4.18-develop.2017.9.25+commit.a72237f2.Linux.g++",
            "source" : "src/BlockchainTestsFiller/GeneralStateTests/stSystemOperationsTest/TestNameRegistrator_d0g0v0Filler.json",
            "sourceHash" : "d4143f24a97bd8f56fd9f6fdfaf79c103095e2c2c760c8e3ca0335b71cb9b566"
        },
        "blocks" : [
            {
                "blockHeader" : {
                    "bloom" : "0x00000000000000000000000000000000000000000000000000000000000000000000000000000000000000000000000000000000000000000000000000000000000000000000000000000000000000000000000000000000000000000000000000000000000000000000000000000000000000000000000000000000000000000000000000000000000000000000000000000000000000000000000000000000000000000000000000000000000000000000000000000000000000000000000000000000000000000000000000000000000000000000000000000000000000000000000000000000000000000000000000000000000000000000000000000000",
                    "coinbase" : "0x2adc25665018aa1fe0e6bc666dac8fc2697ff9ba",
                    "difficulty" : "0x020000",
                    "extraData" : "",
                    "gasLimit" : "0x0f4240",
                    "gasUsed" : "0xb17d",
                    "hash" : "0x81af70f2497fd9e39a5068e83d24fbe220c69809c01334bd6a566dbd444010f1",
                    "mixHash" : "0xfd6b47cae079d5f6963024bada94b94cf975a43c36ada5fd645481342a93a216",
                    "nonce" : "0xf9353f9a68f07a47",
                    "number" : "0x01",
                    "parentHash" : "0xaeb1f6550287255af8c23f447b00ddbf653dac0f40a1db78a09e8ceee83505d1",
                    "receiptTrie" : "0x5f777354aef5429b0127c8db458f2956d2f4eab4373aa80fe95c79d8604e8c81",
                    "stateRoot" : "0xf1005f169c02e95ea5be1079003baa3338513a61d0ff9ee86260be78e421c3c0",
                    "timestamp" : "0x03e8",
                    "transactionsTrie" : "0x8325e3af7e587198457d001c06fc1efe234fe465743ef95bc534ad09c04c84ef",
                    "uncleHash" : "0x1dcc4de8dec75d7aab85b567b6ccd41ad312451b948a7413f0a142fd40d49347"
                },
                "rlp" : "0xf902a3f901f7a0aeb1f6550287255af8c23f447b00ddbf653dac0f40a1db78a09e8ceee83505d1a01dcc4de8dec75d7aab85b567b6ccd41ad312451b948a7413f0a142fd40d49347942adc25665018aa1fe0e6bc666dac8fc2697ff9baa0f1005f169c02e95ea5be1079003baa3338513a61d0ff9ee86260be78e421c3c0a08325e3af7e587198457d001c06fc1efe234fe465743ef95bc534ad09c04c84efa05f777354aef5429b0127c8db458f2956d2f4eab4373aa80fe95c79d8604e8c81b90100000000000000000000000000000000000000000000000000000000000000000000000000000000000000000000000000000000000000000000000000000000000000000000000000000000000000000000000000000000000000000000000000000000000000000000000000000000000000000000000000000000000000000000000000000000000000000000000000000000000000000000000000000000000000000000000000000000000000000000000000000000000000000000000000000000000000000000000000000000000000000000000000000000000000000000000000000000000000000000000000000000000000000000000000000000008302000001830f424082b17d8203e880a0fd6b47cae079d5f6963024bada94b94cf975a43c36ada5fd645481342a93a21688f9353f9a68f07a47f8a6f8a48001830f424094095e7baea6a6c7c4c2dfeb977efac326af552d87830186a0b840fffffffffffffffffffffffffffffffffffffffffffffffffffffffffffffffafffffffffffffffffffffffffffffffffffffffffffffffffffffffffffffffa1ba0c5d4ad7f568fcfaf1c9b68c53c1425471e17ff8cbfba86591b06845b31249b43a02e5108c3eb9a4334d65617e41d00d30d7622e9192eba18c752d6c3cf89040107c0",
                "transactions" : [
                    {
                        "data" : "0xfffffffffffffffffffffffffffffffffffffffffffffffffffffffffffffffafffffffffffffffffffffffffffffffffffffffffffffffffffffffffffffffa",
                        "gasLimit" : "0x0f4240",
                        "gasPrice" : "0x01",
                        "nonce" : "0x00",
                        "r" : "0xc5d4ad7f568fcfaf1c9b68c53c1425471e17ff8cbfba86591b06845b31249b43",
                        "s" : "0x2e5108c3eb9a4334d65617e41d00d30d7622e9192eba18c752d6c3cf89040107",
                        "to" : "0x095e7baea6a6c7c4c2dfeb977efac326af552d87",
                        "v" : "0x1b",
                        "value" : "0x0186a0"
                    }
                ],
                "uncleHeaders" : [
                ]
            }
        ],
        "genesisBlockHeader" : {
            "bloom" : "0x00000000000000000000000000000000000000000000000000000000000000000000000000000000000000000000000000000000000000000000000000000000000000000000000000000000000000000000000000000000000000000000000000000000000000000000000000000000000000000000000000000000000000000000000000000000000000000000000000000000000000000000000000000000000000000000000000000000000000000000000000000000000000000000000000000000000000000000000000000000000000000000000000000000000000000000000000000000000000000000000000000000000000000000000000000000",
            "coinbase" : "0x2adc25665018aa1fe0e6bc666dac8fc2697ff9ba",
            "difficulty" : "0x020000",
            "extraData" : "0x42",
            "gasLimit" : "0x0f4240",
            "gasUsed" : "0x00",
            "hash" : "0xaeb1f6550287255af8c23f447b00ddbf653dac0f40a1db78a09e8ceee83505d1",
            "mixHash" : "0x56e81f171bcc55a6ff8345e692c0f86e5b48e01b996cadc001622fb5e363b421",
            "nonce" : "0x0102030405060708",
            "number" : "0x00",
            "parentHash" : "0x0000000000000000000000000000000000000000000000000000000000000000",
            "receiptTrie" : "0x56e81f171bcc55a6ff8345e692c0f86e5b48e01b996cadc001622fb5e363b421",
            "stateRoot" : "0x96a3de4b7267e755724f2423e36a17b47333b3bf2f3996ea2f77a5be23f00939",
            "timestamp" : "0x03b6",
            "transactionsTrie" : "0x56e81f171bcc55a6ff8345e692c0f86e5b48e01b996cadc001622fb5e363b421",
            "uncleHash" : "0x1dcc4de8dec75d7aab85b567b6ccd41ad312451b948a7413f0a142fd40d49347"
        },
        "genesisRLP" : "0xf901faf901f5a00000000000000000000000000000000000000000000000000000000000000000a01dcc4de8dec75d7aab85b567b6ccd41ad312451b948a7413f0a142fd40d49347942adc25665018aa1fe0e6bc666dac8fc2697ff9baa096a3de4b7267e755724f2423e36a17b47333b3bf2f3996ea2f77a5be23f00939a056e81f171bcc55a6ff8345e692c0f86e5b48e01b996cadc001622fb5e363b421a056e81f171bcc55a6ff8345e692c0f86e5b48e01b996cadc001622fb5e363b421b90100000000000000000000000000000000000000000000000000000000000000000000000000000000000000000000000000000000000000000000000000000000000000000000000000000000000000000000000000000000000000000000000000000000000000000000000000000000000000000000000000000000000000000000000000000000000000000000000000000000000000000000000000000000000000000000000000000000000000000000000000000000000000000000000000000000000000000000000000000000000000000000000000000000000000000000000000000000000000000000000000000000000000000000000000000000008302000080830f4240808203b642a056e81f171bcc55a6ff8345e692c0f86e5b48e01b996cadc001622fb5e363b421880102030405060708c0c0",
        "lastblockhash" : "0x81af70f2497fd9e39a5068e83d24fbe220c69809c01334bd6a566dbd444010f1",
        "network" : "Homestead",
        "postState" : {
            "0x095e7baea6a6c7c4c2dfeb977efac326af552d87" : {
                "balance" : "0x0de0b6b3a76586a0",
                "code" : "0x6000355415600957005b60203560003555",
                "nonce" : "0x00",
                "storage" : {
                    "0xfffffffffffffffffffffffffffffffffffffffffffffffffffffffffffffffa" : "0xfffffffffffffffffffffffffffffffffffffffffffffffffffffffffffffffa"
                }
            },
            "0x2adc25665018aa1fe0e6bc666dac8fc2697ff9ba" : {
                "balance" : "0x4563918244f4b17d",
                "code" : "",
                "nonce" : "0x00",
                "storage" : {
                }
            },
            "0xa94f5374fce5edbc8e2a8697c15331677e6ebf0b" : {
                "balance" : "0x0de0b6b3a761c7e3",
                "code" : "",
                "nonce" : "0x01",
                "storage" : {
                }
            }
        },
        "pre" : {
            "0x095e7baea6a6c7c4c2dfeb977efac326af552d87" : {
                "balance" : "0x0de0b6b3a7640000",
                "code" : "0x6000355415600957005b60203560003555",
                "nonce" : "0x00",
                "storage" : {
                }
            },
            "0xa94f5374fce5edbc8e2a8697c15331677e6ebf0b" : {
                "balance" : "0x0de0b6b3a7640000",
                "code" : "",
                "nonce" : "0x00",
                "storage" : {
                }
            }
        }
    }
}