{
    "CallcodeLoseGasOOG_d0g0v0_Byzantium" : {
        "_info" : {
            "comment" : "",
            "filledwith" : "cpp-1.3.0+commit.6e0ce939.Linux.g++",
            "lllcversion" : "Version: 0.4.18-develop.2017.9.25+commit.a72237f2.Linux.g++",
            "source" : "src/BlockchainTestsFiller/GeneralStateTests/stCallCreateCallCodeTest/CallcodeLoseGasOOG_d0g0v0Filler.json",
            "sourceHash" : "e8aff02c85a0eef9f78e9495705e2fca1a0f47943867923e0a6b82133b8a8f73"
        },
        "blocks" : [
            {
                "blockHeader" : {
                    "bloom" : "0x00000000000000000000000000000000000000000000000000000000000000000000000000000000000000000000000000000000000000000000000000000000000000000000000000000000000000000000000000000000000000000000000000000000000000000000000000000000000000000000000000000000000000000000000000000000000000000000000000000000000000000000000000000000000000000000000000000000000000000000000000000000000000000000000000000000000000000000000000000000000000000000000000000000000000000000000000000000000000000000000000000000000000000000000000000000",
                    "coinbase" : "0xb94f5374fce5edbc8e2a8697c15331677e6ebf0b",
                    "difficulty" : "0x020000",
                    "extraData" : "",
                    "gasLimit" : "0x7fffffffffffffff",
                    "gasUsed" : "0x028976",
                    "hash" : "0x85b3bf421e9ddd8cc3f8bec92e8c1d871c65b032c20adfef00abafe581e92183",
                    "mixHash" : "0x61e6eda6f49c1372367ce4164a7a24e352e8efea217ce2ae39ccb0fbaa99d78a",
                    "nonce" : "0xeeab2111b35da961",
                    "number" : "0x01",
                    "parentHash" : "0x794985f53fdfd478f13fe31b4a5fad3097768e7e7db36fd8ce2f99a1c5510a18",
                    "receiptTrie" : "0x714b0110d8b76b59fb269d77acb37c1ed6943cca7b0dab5f8576ffc1d1ac61ab",
                    "stateRoot" : "0xd1cde9cd4dcec0c7155293182a68ad1ccc144fb405db5adc4437d0fd28f3cdf6",
                    "timestamp" : "0x03e8",
                    "transactionsTrie" : "0x930b96e51a2ecd5435a7297b94143f9d14526ce3aac5667bb06c29b263b34511",
                    "uncleHash" : "0x1dcc4de8dec75d7aab85b567b6ccd41ad312451b948a7413f0a142fd40d49347"
                },
                "rlp" : "0xf90265f901fda0794985f53fdfd478f13fe31b4a5fad3097768e7e7db36fd8ce2f99a1c5510a18a01dcc4de8dec75d7aab85b567b6ccd41ad312451b948a7413f0a142fd40d4934794b94f5374fce5edbc8e2a8697c15331677e6ebf0ba0d1cde9cd4dcec0c7155293182a68ad1ccc144fb405db5adc4437d0fd28f3cdf6a0930b96e51a2ecd5435a7297b94143f9d14526ce3aac5667bb06c29b263b34511a0714b0110d8b76b59fb269d77acb37c1ed6943cca7b0dab5f8576ffc1d1ac61abb90100000000000000000000000000000000000000000000000000000000000000000000000000000000000000000000000000000000000000000000000000000000000000000000000000000000000000000000000000000000000000000000000000000000000000000000000000000000000000000000000000000000000000000000000000000000000000000000000000000000000000000000000000000000000000000000000000000000000000000000000000000000000000000000000000000000000000000000000000000000000000000000000000000000000000000000000000000000000000000000000000000000000000000000000000000000008302000001887fffffffffffffff830289768203e880a061e6eda6f49c1372367ce4164a7a24e352e8efea217ce2ae39ccb0fbaa99d78a88eeab2111b35da961f862f86080018302897694bbbf5374fce5edbc8e2a8697c15331677e6ebf0b0a801ba0cd600f2ae2ff3787336c74911d1d25e053b81ae72dd849703c712558be496f7fa006d28736b0f78feb5c662d1fd09efcda95a090c2df24897cbbecd3c993bbf316c0",
                "transactions" : [
                    {
                        "data" : "",
                        "gasLimit" : "0x028976",
                        "gasPrice" : "0x01",
                        "nonce" : "0x00",
                        "r" : "0xcd600f2ae2ff3787336c74911d1d25e053b81ae72dd849703c712558be496f7f",
                        "s" : "0x06d28736b0f78feb5c662d1fd09efcda95a090c2df24897cbbecd3c993bbf316",
                        "to" : "0xbbbf5374fce5edbc8e2a8697c15331677e6ebf0b",
                        "v" : "0x1b",
                        "value" : "0x0a"
                    }
                ],
                "uncleHeaders" : [
                ]
            }
        ],
        "genesisBlockHeader" : {
            "bloom" : "0x00000000000000000000000000000000000000000000000000000000000000000000000000000000000000000000000000000000000000000000000000000000000000000000000000000000000000000000000000000000000000000000000000000000000000000000000000000000000000000000000000000000000000000000000000000000000000000000000000000000000000000000000000000000000000000000000000000000000000000000000000000000000000000000000000000000000000000000000000000000000000000000000000000000000000000000000000000000000000000000000000000000000000000000000000000000",
            "coinbase" : "0xb94f5374fce5edbc8e2a8697c15331677e6ebf0b",
            "difficulty" : "0x020000",
            "extraData" : "0x42",
            "gasLimit" : "0x7fffffffffffffff",
            "gasUsed" : "0x00",
            "hash" : "0x794985f53fdfd478f13fe31b4a5fad3097768e7e7db36fd8ce2f99a1c5510a18",
            "mixHash" : "0x56e81f171bcc55a6ff8345e692c0f86e5b48e01b996cadc001622fb5e363b421",
            "nonce" : "0x0102030405060708",
            "number" : "0x00",
            "parentHash" : "0x0000000000000000000000000000000000000000000000000000000000000000",
            "receiptTrie" : "0x56e81f171bcc55a6ff8345e692c0f86e5b48e01b996cadc001622fb5e363b421",
            "stateRoot" : "0xd1c36f61b4b956287b89b816523b4ea0ac62681f2ee03d0479118fc6db3690b9",
            "timestamp" : "0x03b6",
            "transactionsTrie" : "0x56e81f171bcc55a6ff8345e692c0f86e5b48e01b996cadc001622fb5e363b421",
            "uncleHash" : "0x1dcc4de8dec75d7aab85b567b6ccd41ad312451b948a7413f0a142fd40d49347"
        },
        "genesisRLP" : "0xf901fff901faa00000000000000000000000000000000000000000000000000000000000000000a01dcc4de8dec75d7aab85b567b6ccd41ad312451b948a7413f0a142fd40d4934794b94f5374fce5edbc8e2a8697c15331677e6ebf0ba0d1c36f61b4b956287b89b816523b4ea0ac62681f2ee03d0479118fc6db3690b9a056e81f171bcc55a6ff8345e692c0f86e5b48e01b996cadc001622fb5e363b421a056e81f171bcc55a6ff8345e692c0f86e5b48e01b996cadc001622fb5e363b421b90100000000000000000000000000000000000000000000000000000000000000000000000000000000000000000000000000000000000000000000000000000000000000000000000000000000000000000000000000000000000000000000000000000000000000000000000000000000000000000000000000000000000000000000000000000000000000000000000000000000000000000000000000000000000000000000000000000000000000000000000000000000000000000000000000000000000000000000000000000000000000000000000000000000000000000000000000000000000000000000000000000000000000000000000000000000008302000080887fffffffffffffff808203b642a056e81f171bcc55a6ff8345e692c0f86e5b48e01b996cadc001622fb5e363b421880102030405060708c0c0",
        "lastblockhash" : "0x85b3bf421e9ddd8cc3f8bec92e8c1d871c65b032c20adfef00abafe581e92183",
        "network" : "Byzantium",
        "postState" : {
            "0xa94f5374fce5edbc8e2a8697c15331677e6ebf0b" : {
                "balance" : "0xfffffffffffffffffffffffffffd7689",
                "code" : "",
                "nonce" : "0x01",
                "storage" : {
                }
            },
            "0xaaaf5374fce5edbc8e2a8697c15331677e6ebf0b" : {
                "balance" : "0x1b58",
                "code" : "",
                "nonce" : "0x00",
                "storage" : {
                }
            },
            "0xb94f5374fce5edbc8e2a8697c15331677e6ebf0b" : {
                "balance" : "0x29a2241af62e8976",
                "code" : "",
                "nonce" : "0x00",
                "storage" : {
                }
            },
            "0xbbbf5374fce5edbc8e2a8697c15331677e6ebf0b" : {
                "balance" : "0x0400",
                "code" : "0x6001600054016000556000600060006000600073bbbf5374fce5edbc8e2a8697c15331677e6ebf0b620186a060005402600101f26001556103e860005402600101600255",
                "nonce" : "0x00",
                "storage" : {
                }
            }
        },
        "pre" : {
            "0xa94f5374fce5edbc8e2a8697c15331677e6ebf0b" : {
                "balance" : "0xffffffffffffffffffffffffffffffff",
                "code" : "",
                "nonce" : "0x00",
                "storage" : {
                }
            },
            "0xaaaf5374fce5edbc8e2a8697c15331677e6ebf0b" : {
                "balance" : "0x1b58",
                "code" : "",
                "nonce" : "0x00",
                "storage" : {
                }
            },
            "0xbbbf5374fce5edbc8e2a8697c15331677e6ebf0b" : {
                "balance" : "0x0400",
                "code" : "0x6001600054016000556000600060006000600073bbbf5374fce5edbc8e2a8697c15331677e6ebf0b620186a060005402600101f26001556103e860005402600101600255",
                "nonce" : "0x00",
                "storage" : {
                }
            }
        }
    },
    "CallcodeLoseGasOOG_d0g0v0_EIP150" : {
        "_info" : {
            "comment" : "",
            "filledwith" : "cpp-1.3.0+commit.6e0ce939.Linux.g++",
            "lllcversion" : "Version: 0.4.18-develop.2017.9.25+commit.a72237f2.Linux.g++",
            "source" : "src/BlockchainTestsFiller/GeneralStateTests/stCallCreateCallCodeTest/CallcodeLoseGasOOG_d0g0v0Filler.json",
            "sourceHash" : "e8aff02c85a0eef9f78e9495705e2fca1a0f47943867923e0a6b82133b8a8f73"
        },
        "blocks" : [
            {
                "blockHeader" : {
                    "bloom" : "0x00000000000000000000000000000000000000000000000000000000000000000000000000000000000000000000000000000000000000000000000000000000000000000000000000000000000000000000000000000000000000000000000000000000000000000000000000000000000000000000000000000000000000000000000000000000000000000000000000000000000000000000000000000000000000000000000000000000000000000000000000000000000000000000000000000000000000000000000000000000000000000000000000000000000000000000000000000000000000000000000000000000000000000000000000000000",
                    "coinbase" : "0xb94f5374fce5edbc8e2a8697c15331677e6ebf0b",
                    "difficulty" : "0x020000",
                    "extraData" : "",
                    "gasLimit" : "0x7fffffffffffffff",
                    "gasUsed" : "0x028976",
                    "hash" : "0x49719dfc1c1fc254a39766f8d545b3ae8f68273650472d48e52252768017e7d5",
                    "mixHash" : "0x5aaa4651e3938558715f111338b60b9ee2f4de5f20d258bd65d29e693c064921",
                    "nonce" : "0x98722535cd203da9",
                    "number" : "0x01",
                    "parentHash" : "0x794985f53fdfd478f13fe31b4a5fad3097768e7e7db36fd8ce2f99a1c5510a18",
                    "receiptTrie" : "0xaa9e4e0eb3c84bc88a1166ec9f1764cbf5a6b51f68d7c4665e2ac72bc8cdb593",
                    "stateRoot" : "0xfdc29f19d567970102f5f6bff32d560b744ad74bd575e524a930a61c720cae16",
                    "timestamp" : "0x03e8",
                    "transactionsTrie" : "0x930b96e51a2ecd5435a7297b94143f9d14526ce3aac5667bb06c29b263b34511",
                    "uncleHash" : "0x1dcc4de8dec75d7aab85b567b6ccd41ad312451b948a7413f0a142fd40d49347"
                },
                "rlp" : "0xf90265f901fda0794985f53fdfd478f13fe31b4a5fad3097768e7e7db36fd8ce2f99a1c5510a18a01dcc4de8dec75d7aab85b567b6ccd41ad312451b948a7413f0a142fd40d4934794b94f5374fce5edbc8e2a8697c15331677e6ebf0ba0fdc29f19d567970102f5f6bff32d560b744ad74bd575e524a930a61c720cae16a0930b96e51a2ecd5435a7297b94143f9d14526ce3aac5667bb06c29b263b34511a0aa9e4e0eb3c84bc88a1166ec9f1764cbf5a6b51f68d7c4665e2ac72bc8cdb593b90100000000000000000000000000000000000000000000000000000000000000000000000000000000000000000000000000000000000000000000000000000000000000000000000000000000000000000000000000000000000000000000000000000000000000000000000000000000000000000000000000000000000000000000000000000000000000000000000000000000000000000000000000000000000000000000000000000000000000000000000000000000000000000000000000000000000000000000000000000000000000000000000000000000000000000000000000000000000000000000000000000000000000000000000000000000008302000001887fffffffffffffff830289768203e880a05aaa4651e3938558715f111338b60b9ee2f4de5f20d258bd65d29e693c0649218898722535cd203da9f862f86080018302897694bbbf5374fce5edbc8e2a8697c15331677e6ebf0b0a801ba0cd600f2ae2ff3787336c74911d1d25e053b81ae72dd849703c712558be496f7fa006d28736b0f78feb5c662d1fd09efcda95a090c2df24897cbbecd3c993bbf316c0",
                "transactions" : [
                    {
                        "data" : "",
                        "gasLimit" : "0x028976",
                        "gasPrice" : "0x01",
                        "nonce" : "0x00",
                        "r" : "0xcd600f2ae2ff3787336c74911d1d25e053b81ae72dd849703c712558be496f7f",
                        "s" : "0x06d28736b0f78feb5c662d1fd09efcda95a090c2df24897cbbecd3c993bbf316",
                        "to" : "0xbbbf5374fce5edbc8e2a8697c15331677e6ebf0b",
                        "v" : "0x1b",
                        "value" : "0x0a"
                    }
                ],
                "uncleHeaders" : [
                ]
            }
        ],
        "genesisBlockHeader" : {
            "bloom" : "0x00000000000000000000000000000000000000000000000000000000000000000000000000000000000000000000000000000000000000000000000000000000000000000000000000000000000000000000000000000000000000000000000000000000000000000000000000000000000000000000000000000000000000000000000000000000000000000000000000000000000000000000000000000000000000000000000000000000000000000000000000000000000000000000000000000000000000000000000000000000000000000000000000000000000000000000000000000000000000000000000000000000000000000000000000000000",
            "coinbase" : "0xb94f5374fce5edbc8e2a8697c15331677e6ebf0b",
            "difficulty" : "0x020000",
            "extraData" : "0x42",
            "gasLimit" : "0x7fffffffffffffff",
            "gasUsed" : "0x00",
            "hash" : "0x794985f53fdfd478f13fe31b4a5fad3097768e7e7db36fd8ce2f99a1c5510a18",
            "mixHash" : "0x56e81f171bcc55a6ff8345e692c0f86e5b48e01b996cadc001622fb5e363b421",
            "nonce" : "0x0102030405060708",
            "number" : "0x00",
            "parentHash" : "0x0000000000000000000000000000000000000000000000000000000000000000",
            "receiptTrie" : "0x56e81f171bcc55a6ff8345e692c0f86e5b48e01b996cadc001622fb5e363b421",
            "stateRoot" : "0xd1c36f61b4b956287b89b816523b4ea0ac62681f2ee03d0479118fc6db3690b9",
            "timestamp" : "0x03b6",
            "transactionsTrie" : "0x56e81f171bcc55a6ff8345e692c0f86e5b48e01b996cadc001622fb5e363b421",
            "uncleHash" : "0x1dcc4de8dec75d7aab85b567b6ccd41ad312451b948a7413f0a142fd40d49347"
        },
        "genesisRLP" : "0xf901fff901faa00000000000000000000000000000000000000000000000000000000000000000a01dcc4de8dec75d7aab85b567b6ccd41ad312451b948a7413f0a142fd40d4934794b94f5374fce5edbc8e2a8697c15331677e6ebf0ba0d1c36f61b4b956287b89b816523b4ea0ac62681f2ee03d0479118fc6db3690b9a056e81f171bcc55a6ff8345e692c0f86e5b48e01b996cadc001622fb5e363b421a056e81f171bcc55a6ff8345e692c0f86e5b48e01b996cadc001622fb5e363b421b90100000000000000000000000000000000000000000000000000000000000000000000000000000000000000000000000000000000000000000000000000000000000000000000000000000000000000000000000000000000000000000000000000000000000000000000000000000000000000000000000000000000000000000000000000000000000000000000000000000000000000000000000000000000000000000000000000000000000000000000000000000000000000000000000000000000000000000000000000000000000000000000000000000000000000000000000000000000000000000000000000000000000000000000000000000000008302000080887fffffffffffffff808203b642a056e81f171bcc55a6ff8345e692c0f86e5b48e01b996cadc001622fb5e363b421880102030405060708c0c0",
        "lastblockhash" : "0x49719dfc1c1fc254a39766f8d545b3ae8f68273650472d48e52252768017e7d5",
        "network" : "EIP150",
        "postState" : {
            "0xa94f5374fce5edbc8e2a8697c15331677e6ebf0b" : {
                "balance" : "0xfffffffffffffffffffffffffffd7689",
                "code" : "",
                "nonce" : "0x01",
                "storage" : {
                }
            },
            "0xaaaf5374fce5edbc8e2a8697c15331677e6ebf0b" : {
                "balance" : "0x1b58",
                "code" : "",
                "nonce" : "0x00",
                "storage" : {
                }
            },
            "0xb94f5374fce5edbc8e2a8697c15331677e6ebf0b" : {
                "balance" : "0x4563918244f68976",
                "code" : "",
                "nonce" : "0x00",
                "storage" : {
                }
            },
            "0xbbbf5374fce5edbc8e2a8697c15331677e6ebf0b" : {
                "balance" : "0x0400",
                "code" : "0x6001600054016000556000600060006000600073bbbf5374fce5edbc8e2a8697c15331677e6ebf0b620186a060005402600101f26001556103e860005402600101600255",
                "nonce" : "0x00",
                "storage" : {
                }
            }
        },
        "pre" : {
            "0xa94f5374fce5edbc8e2a8697c15331677e6ebf0b" : {
                "balance" : "0xffffffffffffffffffffffffffffffff",
                "code" : "",
                "nonce" : "0x00",
                "storage" : {
                }
            },
            "0xaaaf5374fce5edbc8e2a8697c15331677e6ebf0b" : {
                "balance" : "0x1b58",
                "code" : "",
                "nonce" : "0x00",
                "storage" : {
                }
            },
            "0xbbbf5374fce5edbc8e2a8697c15331677e6ebf0b" : {
                "balance" : "0x0400",
                "code" : "0x6001600054016000556000600060006000600073bbbf5374fce5edbc8e2a8697c15331677e6ebf0b620186a060005402600101f26001556103e860005402600101600255",
                "nonce" : "0x00",
                "storage" : {
                }
            }
        }
    },
    "CallcodeLoseGasOOG_d0g0v0_EIP158" : {
        "_info" : {
            "comment" : "",
            "filledwith" : "cpp-1.3.0+commit.6e0ce939.Linux.g++",
            "lllcversion" : "Version: 0.4.18-develop.2017.9.25+commit.a72237f2.Linux.g++",
            "source" : "src/BlockchainTestsFiller/GeneralStateTests/stCallCreateCallCodeTest/CallcodeLoseGasOOG_d0g0v0Filler.json",
            "sourceHash" : "e8aff02c85a0eef9f78e9495705e2fca1a0f47943867923e0a6b82133b8a8f73"
        },
        "blocks" : [
            {
                "blockHeader" : {
                    "bloom" : "0x00000000000000000000000000000000000000000000000000000000000000000000000000000000000000000000000000000000000000000000000000000000000000000000000000000000000000000000000000000000000000000000000000000000000000000000000000000000000000000000000000000000000000000000000000000000000000000000000000000000000000000000000000000000000000000000000000000000000000000000000000000000000000000000000000000000000000000000000000000000000000000000000000000000000000000000000000000000000000000000000000000000000000000000000000000000",
                    "coinbase" : "0xb94f5374fce5edbc8e2a8697c15331677e6ebf0b",
                    "difficulty" : "0x020000",
                    "extraData" : "",
                    "gasLimit" : "0x7fffffffffffffff",
                    "gasUsed" : "0x028976",
                    "hash" : "0xcd6a0bc0832745c9f392345ea4e98ab60d3d137e7d2db3324fe99c82fcb68c72",
                    "mixHash" : "0xd93877535392541b86799e2977d1b628139bb19abb5078c268cc006bd35803f1",
                    "nonce" : "0x3480b57fa55c61b6",
                    "number" : "0x01",
                    "parentHash" : "0x794985f53fdfd478f13fe31b4a5fad3097768e7e7db36fd8ce2f99a1c5510a18",
                    "receiptTrie" : "0xaa9e4e0eb3c84bc88a1166ec9f1764cbf5a6b51f68d7c4665e2ac72bc8cdb593",
                    "stateRoot" : "0xfdc29f19d567970102f5f6bff32d560b744ad74bd575e524a930a61c720cae16",
                    "timestamp" : "0x03e8",
                    "transactionsTrie" : "0x930b96e51a2ecd5435a7297b94143f9d14526ce3aac5667bb06c29b263b34511",
                    "uncleHash" : "0x1dcc4de8dec75d7aab85b567b6ccd41ad312451b948a7413f0a142fd40d49347"
                },
                "rlp" : "0xf90265f901fda0794985f53fdfd478f13fe31b4a5fad3097768e7e7db36fd8ce2f99a1c5510a18a01dcc4de8dec75d7aab85b567b6ccd41ad312451b948a7413f0a142fd40d4934794b94f5374fce5edbc8e2a8697c15331677e6ebf0ba0fdc29f19d567970102f5f6bff32d560b744ad74bd575e524a930a61c720cae16a0930b96e51a2ecd5435a7297b94143f9d14526ce3aac5667bb06c29b263b34511a0aa9e4e0eb3c84bc88a1166ec9f1764cbf5a6b51f68d7c4665e2ac72bc8cdb593b90100000000000000000000000000000000000000000000000000000000000000000000000000000000000000000000000000000000000000000000000000000000000000000000000000000000000000000000000000000000000000000000000000000000000000000000000000000000000000000000000000000000000000000000000000000000000000000000000000000000000000000000000000000000000000000000000000000000000000000000000000000000000000000000000000000000000000000000000000000000000000000000000000000000000000000000000000000000000000000000000000000000000000000000000000000000008302000001887fffffffffffffff830289768203e880a0d93877535392541b86799e2977d1b628139bb19abb5078c268cc006bd35803f1883480b57fa55c61b6f862f86080018302897694bbbf5374fce5edbc8e2a8697c15331677e6ebf0b0a801ba0cd600f2ae2ff3787336c74911d1d25e053b81ae72dd849703c712558be496f7fa006d28736b0f78feb5c662d1fd09efcda95a090c2df24897cbbecd3c993bbf316c0",
                "transactions" : [
                    {
                        "data" : "",
                        "gasLimit" : "0x028976",
                        "gasPrice" : "0x01",
                        "nonce" : "0x00",
                        "r" : "0xcd600f2ae2ff3787336c74911d1d25e053b81ae72dd849703c712558be496f7f",
                        "s" : "0x06d28736b0f78feb5c662d1fd09efcda95a090c2df24897cbbecd3c993bbf316",
                        "to" : "0xbbbf5374fce5edbc8e2a8697c15331677e6ebf0b",
                        "v" : "0x1b",
                        "value" : "0x0a"
                    }
                ],
                "uncleHeaders" : [
                ]
            }
        ],
        "genesisBlockHeader" : {
            "bloom" : "0x00000000000000000000000000000000000000000000000000000000000000000000000000000000000000000000000000000000000000000000000000000000000000000000000000000000000000000000000000000000000000000000000000000000000000000000000000000000000000000000000000000000000000000000000000000000000000000000000000000000000000000000000000000000000000000000000000000000000000000000000000000000000000000000000000000000000000000000000000000000000000000000000000000000000000000000000000000000000000000000000000000000000000000000000000000000",
            "coinbase" : "0xb94f5374fce5edbc8e2a8697c15331677e6ebf0b",
            "difficulty" : "0x020000",
            "extraData" : "0x42",
            "gasLimit" : "0x7fffffffffffffff",
            "gasUsed" : "0x00",
            "hash" : "0x794985f53fdfd478f13fe31b4a5fad3097768e7e7db36fd8ce2f99a1c5510a18",
            "mixHash" : "0x56e81f171bcc55a6ff8345e692c0f86e5b48e01b996cadc001622fb5e363b421",
            "nonce" : "0x0102030405060708",
            "number" : "0x00",
            "parentHash" : "0x0000000000000000000000000000000000000000000000000000000000000000",
            "receiptTrie" : "0x56e81f171bcc55a6ff8345e692c0f86e5b48e01b996cadc001622fb5e363b421",
            "stateRoot" : "0xd1c36f61b4b956287b89b816523b4ea0ac62681f2ee03d0479118fc6db3690b9",
            "timestamp" : "0x03b6",
            "transactionsTrie" : "0x56e81f171bcc55a6ff8345e692c0f86e5b48e01b996cadc001622fb5e363b421",
            "uncleHash" : "0x1dcc4de8dec75d7aab85b567b6ccd41ad312451b948a7413f0a142fd40d49347"
        },
        "genesisRLP" : "0xf901fff901faa00000000000000000000000000000000000000000000000000000000000000000a01dcc4de8dec75d7aab85b567b6ccd41ad312451b948a7413f0a142fd40d4934794b94f5374fce5edbc8e2a8697c15331677e6ebf0ba0d1c36f61b4b956287b89b816523b4ea0ac62681f2ee03d0479118fc6db3690b9a056e81f171bcc55a6ff8345e692c0f86e5b48e01b996cadc001622fb5e363b421a056e81f171bcc55a6ff8345e692c0f86e5b48e01b996cadc001622fb5e363b421b90100000000000000000000000000000000000000000000000000000000000000000000000000000000000000000000000000000000000000000000000000000000000000000000000000000000000000000000000000000000000000000000000000000000000000000000000000000000000000000000000000000000000000000000000000000000000000000000000000000000000000000000000000000000000000000000000000000000000000000000000000000000000000000000000000000000000000000000000000000000000000000000000000000000000000000000000000000000000000000000000000000000000000000000000000000000008302000080887fffffffffffffff808203b642a056e81f171bcc55a6ff8345e692c0f86e5b48e01b996cadc001622fb5e363b421880102030405060708c0c0",
        "lastblockhash" : "0xcd6a0bc0832745c9f392345ea4e98ab60d3d137e7d2db3324fe99c82fcb68c72",
        "network" : "EIP158",
        "postState" : {
            "0xa94f5374fce5edbc8e2a8697c15331677e6ebf0b" : {
                "balance" : "0xfffffffffffffffffffffffffffd7689",
                "code" : "",
                "nonce" : "0x01",
                "storage" : {
                }
            },
            "0xaaaf5374fce5edbc8e2a8697c15331677e6ebf0b" : {
                "balance" : "0x1b58",
                "code" : "",
                "nonce" : "0x00",
                "storage" : {
                }
            },
            "0xb94f5374fce5edbc8e2a8697c15331677e6ebf0b" : {
                "balance" : "0x4563918244f68976",
                "code" : "",
                "nonce" : "0x00",
                "storage" : {
                }
            },
            "0xbbbf5374fce5edbc8e2a8697c15331677e6ebf0b" : {
                "balance" : "0x0400",
                "code" : "0x6001600054016000556000600060006000600073bbbf5374fce5edbc8e2a8697c15331677e6ebf0b620186a060005402600101f26001556103e860005402600101600255",
                "nonce" : "0x00",
                "storage" : {
                }
            }
        },
        "pre" : {
            "0xa94f5374fce5edbc8e2a8697c15331677e6ebf0b" : {
                "balance" : "0xffffffffffffffffffffffffffffffff",
                "code" : "",
                "nonce" : "0x00",
                "storage" : {
                }
            },
            "0xaaaf5374fce5edbc8e2a8697c15331677e6ebf0b" : {
                "balance" : "0x1b58",
                "code" : "",
                "nonce" : "0x00",
                "storage" : {
                }
            },
            "0xbbbf5374fce5edbc8e2a8697c15331677e6ebf0b" : {
                "balance" : "0x0400",
                "code" : "0x6001600054016000556000600060006000600073bbbf5374fce5edbc8e2a8697c15331677e6ebf0b620186a060005402600101f26001556103e860005402600101600255",
                "nonce" : "0x00",
                "storage" : {
                }
            }
        }
    },
    "CallcodeLoseGasOOG_d0g0v0_Frontier" : {
        "_info" : {
            "comment" : "",
            "filledwith" : "cpp-1.3.0+commit.6e0ce939.Linux.g++",
            "lllcversion" : "Version: 0.4.18-develop.2017.9.25+commit.a72237f2.Linux.g++",
            "source" : "src/BlockchainTestsFiller/GeneralStateTests/stCallCreateCallCodeTest/CallcodeLoseGasOOG_d0g0v0Filler.json",
            "sourceHash" : "e8aff02c85a0eef9f78e9495705e2fca1a0f47943867923e0a6b82133b8a8f73"
        },
        "blocks" : [
            {
                "blockHeader" : {
                    "bloom" : "0x00000000000000000000000000000000000000000000000000000000000000000000000000000000000000000000000000000000000000000000000000000000000000000000000000000000000000000000000000000000000000000000000000000000000000000000000000000000000000000000000000000000000000000000000000000000000000000000000000000000000000000000000000000000000000000000000000000000000000000000000000000000000000000000000000000000000000000000000000000000000000000000000000000000000000000000000000000000000000000000000000000000000000000000000000000000",
                    "coinbase" : "0xb94f5374fce5edbc8e2a8697c15331677e6ebf0b",
                    "difficulty" : "0x020000",
                    "extraData" : "",
                    "gasLimit" : "0x7fffffffffffffff",
                    "gasUsed" : "0x028975",
                    "hash" : "0xd44e5847b8f0e852f20d54b86ee61b8d6131662f6d77302035e69bc3c0cac214",
                    "mixHash" : "0x1c20b3f04bb8e75c494c2806d6e456915217dfd0d2fe1d98c26e7a3e87362959",
                    "nonce" : "0x72dcc5397144e985",
                    "number" : "0x01",
                    "parentHash" : "0x794985f53fdfd478f13fe31b4a5fad3097768e7e7db36fd8ce2f99a1c5510a18",
                    "receiptTrie" : "0x7c727398d64b0d559c225b783cf514430fc60849ab1de4812d1e7b3f52a76117",
                    "stateRoot" : "0xe7d2f1636f028a937c16594cff5924fee6be72023553e0865180b692293a3f43",
                    "timestamp" : "0x03e8",
                    "transactionsTrie" : "0x930b96e51a2ecd5435a7297b94143f9d14526ce3aac5667bb06c29b263b34511",
                    "uncleHash" : "0x1dcc4de8dec75d7aab85b567b6ccd41ad312451b948a7413f0a142fd40d49347"
                },
                "rlp" : "0xf90265f901fda0794985f53fdfd478f13fe31b4a5fad3097768e7e7db36fd8ce2f99a1c5510a18a01dcc4de8dec75d7aab85b567b6ccd41ad312451b948a7413f0a142fd40d4934794b94f5374fce5edbc8e2a8697c15331677e6ebf0ba0e7d2f1636f028a937c16594cff5924fee6be72023553e0865180b692293a3f43a0930b96e51a2ecd5435a7297b94143f9d14526ce3aac5667bb06c29b263b34511a07c727398d64b0d559c225b783cf514430fc60849ab1de4812d1e7b3f52a76117b90100000000000000000000000000000000000000000000000000000000000000000000000000000000000000000000000000000000000000000000000000000000000000000000000000000000000000000000000000000000000000000000000000000000000000000000000000000000000000000000000000000000000000000000000000000000000000000000000000000000000000000000000000000000000000000000000000000000000000000000000000000000000000000000000000000000000000000000000000000000000000000000000000000000000000000000000000000000000000000000000000000000000000000000000000000000008302000001887fffffffffffffff830289758203e880a01c20b3f04bb8e75c494c2806d6e456915217dfd0d2fe1d98c26e7a3e873629598872dcc5397144e985f862f86080018302897694bbbf5374fce5edbc8e2a8697c15331677e6ebf0b0a801ba0cd600f2ae2ff3787336c74911d1d25e053b81ae72dd849703c712558be496f7fa006d28736b0f78feb5c662d1fd09efcda95a090c2df24897cbbecd3c993bbf316c0",
                "transactions" : [
                    {
                        "data" : "",
                        "gasLimit" : "0x028976",
                        "gasPrice" : "0x01",
                        "nonce" : "0x00",
                        "r" : "0xcd600f2ae2ff3787336c74911d1d25e053b81ae72dd849703c712558be496f7f",
                        "s" : "0x06d28736b0f78feb5c662d1fd09efcda95a090c2df24897cbbecd3c993bbf316",
                        "to" : "0xbbbf5374fce5edbc8e2a8697c15331677e6ebf0b",
                        "v" : "0x1b",
                        "value" : "0x0a"
                    }
                ],
                "uncleHeaders" : [
                ]
            }
        ],
        "genesisBlockHeader" : {
            "bloom" : "0x00000000000000000000000000000000000000000000000000000000000000000000000000000000000000000000000000000000000000000000000000000000000000000000000000000000000000000000000000000000000000000000000000000000000000000000000000000000000000000000000000000000000000000000000000000000000000000000000000000000000000000000000000000000000000000000000000000000000000000000000000000000000000000000000000000000000000000000000000000000000000000000000000000000000000000000000000000000000000000000000000000000000000000000000000000000",
            "coinbase" : "0xb94f5374fce5edbc8e2a8697c15331677e6ebf0b",
            "difficulty" : "0x020000",
            "extraData" : "0x42",
            "gasLimit" : "0x7fffffffffffffff",
            "gasUsed" : "0x00",
            "hash" : "0x794985f53fdfd478f13fe31b4a5fad3097768e7e7db36fd8ce2f99a1c5510a18",
            "mixHash" : "0x56e81f171bcc55a6ff8345e692c0f86e5b48e01b996cadc001622fb5e363b421",
            "nonce" : "0x0102030405060708",
            "number" : "0x00",
            "parentHash" : "0x0000000000000000000000000000000000000000000000000000000000000000",
            "receiptTrie" : "0x56e81f171bcc55a6ff8345e692c0f86e5b48e01b996cadc001622fb5e363b421",
            "stateRoot" : "0xd1c36f61b4b956287b89b816523b4ea0ac62681f2ee03d0479118fc6db3690b9",
            "timestamp" : "0x03b6",
            "transactionsTrie" : "0x56e81f171bcc55a6ff8345e692c0f86e5b48e01b996cadc001622fb5e363b421",
            "uncleHash" : "0x1dcc4de8dec75d7aab85b567b6ccd41ad312451b948a7413f0a142fd40d49347"
        },
        "genesisRLP" : "0xf901fff901faa00000000000000000000000000000000000000000000000000000000000000000a01dcc4de8dec75d7aab85b567b6ccd41ad312451b948a7413f0a142fd40d4934794b94f5374fce5edbc8e2a8697c15331677e6ebf0ba0d1c36f61b4b956287b89b816523b4ea0ac62681f2ee03d0479118fc6db3690b9a056e81f171bcc55a6ff8345e692c0f86e5b48e01b996cadc001622fb5e363b421a056e81f171bcc55a6ff8345e692c0f86e5b48e01b996cadc001622fb5e363b421b90100000000000000000000000000000000000000000000000000000000000000000000000000000000000000000000000000000000000000000000000000000000000000000000000000000000000000000000000000000000000000000000000000000000000000000000000000000000000000000000000000000000000000000000000000000000000000000000000000000000000000000000000000000000000000000000000000000000000000000000000000000000000000000000000000000000000000000000000000000000000000000000000000000000000000000000000000000000000000000000000000000000000000000000000000000000008302000080887fffffffffffffff808203b642a056e81f171bcc55a6ff8345e692c0f86e5b48e01b996cadc001622fb5e363b421880102030405060708c0c0",
        "lastblockhash" : "0xd44e5847b8f0e852f20d54b86ee61b8d6131662f6d77302035e69bc3c0cac214",
        "network" : "Frontier",
        "postState" : {
            "0xa94f5374fce5edbc8e2a8697c15331677e6ebf0b" : {
                "balance" : "0xfffffffffffffffffffffffffffd7680",
                "code" : "",
                "nonce" : "0x01",
                "storage" : {
                }
            },
            "0xaaaf5374fce5edbc8e2a8697c15331677e6ebf0b" : {
                "balance" : "0x1b58",
                "code" : "",
                "nonce" : "0x00",
                "storage" : {
                }
            },
            "0xb94f5374fce5edbc8e2a8697c15331677e6ebf0b" : {
                "balance" : "0x4563918244f68975",
                "code" : "",
                "nonce" : "0x00",
                "storage" : {
                }
            },
            "0xbbbf5374fce5edbc8e2a8697c15331677e6ebf0b" : {
                "balance" : "0x040a",
                "code" : "0x6001600054016000556000600060006000600073bbbf5374fce5edbc8e2a8697c15331677e6ebf0b620186a060005402600101f26001556103e860005402600101600255",
                "nonce" : "0x00",
                "storage" : {
                    "0x00" : "0x01",
                    "0x02" : "0x03e9"
                }
            }
        },
        "pre" : {
            "0xa94f5374fce5edbc8e2a8697c15331677e6ebf0b" : {
                "balance" : "0xffffffffffffffffffffffffffffffff",
                "code" : "",
                "nonce" : "0x00",
                "storage" : {
                }
            },
            "0xaaaf5374fce5edbc8e2a8697c15331677e6ebf0b" : {
                "balance" : "0x1b58",
                "code" : "",
                "nonce" : "0x00",
                "storage" : {
                }
            },
            "0xbbbf5374fce5edbc8e2a8697c15331677e6ebf0b" : {
                "balance" : "0x0400",
                "code" : "0x6001600054016000556000600060006000600073bbbf5374fce5edbc8e2a8697c15331677e6ebf0b620186a060005402600101f26001556103e860005402600101600255",
                "nonce" : "0x00",
                "storage" : {
                }
            }
        }
    },
    "CallcodeLoseGasOOG_d0g0v0_Homestead" : {
        "_info" : {
            "comment" : "",
            "filledwith" : "cpp-1.3.0+commit.6e0ce939.Linux.g++",
            "lllcversion" : "Version: 0.4.18-develop.2017.9.25+commit.a72237f2.Linux.g++",
            "source" : "src/BlockchainTestsFiller/GeneralStateTests/stCallCreateCallCodeTest/CallcodeLoseGasOOG_d0g0v0Filler.json",
            "sourceHash" : "e8aff02c85a0eef9f78e9495705e2fca1a0f47943867923e0a6b82133b8a8f73"
        },
        "blocks" : [
            {
                "blockHeader" : {
                    "bloom" : "0x00000000000000000000000000000000000000000000000000000000000000000000000000000000000000000000000000000000000000000000000000000000000000000000000000000000000000000000000000000000000000000000000000000000000000000000000000000000000000000000000000000000000000000000000000000000000000000000000000000000000000000000000000000000000000000000000000000000000000000000000000000000000000000000000000000000000000000000000000000000000000000000000000000000000000000000000000000000000000000000000000000000000000000000000000000000",
                    "coinbase" : "0xb94f5374fce5edbc8e2a8697c15331677e6ebf0b",
                    "difficulty" : "0x020000",
                    "extraData" : "",
                    "gasLimit" : "0x7fffffffffffffff",
                    "gasUsed" : "0x028975",
                    "hash" : "0xbf498abcfa96e1fa6a1bca764ba208a3a48c1a39bd1a9e1e273fd02136e2a765",
                    "mixHash" : "0x155d7391a4b948b48cbaa0224a8713a4b06082681018cfc7e0f9c70975c896f2",
                    "nonce" : "0xdfd1df7a8d9277ea",
                    "number" : "0x01",
                    "parentHash" : "0x794985f53fdfd478f13fe31b4a5fad3097768e7e7db36fd8ce2f99a1c5510a18",
                    "receiptTrie" : "0x7c727398d64b0d559c225b783cf514430fc60849ab1de4812d1e7b3f52a76117",
                    "stateRoot" : "0xe7d2f1636f028a937c16594cff5924fee6be72023553e0865180b692293a3f43",
                    "timestamp" : "0x03e8",
                    "transactionsTrie" : "0x930b96e51a2ecd5435a7297b94143f9d14526ce3aac5667bb06c29b263b34511",
                    "uncleHash" : "0x1dcc4de8dec75d7aab85b567b6ccd41ad312451b948a7413f0a142fd40d49347"
                },
                "rlp" : "0xf90265f901fda0794985f53fdfd478f13fe31b4a5fad3097768e7e7db36fd8ce2f99a1c5510a18a01dcc4de8dec75d7aab85b567b6ccd41ad312451b948a7413f0a142fd40d4934794b94f5374fce5edbc8e2a8697c15331677e6ebf0ba0e7d2f1636f028a937c16594cff5924fee6be72023553e0865180b692293a3f43a0930b96e51a2ecd5435a7297b94143f9d14526ce3aac5667bb06c29b263b34511a07c727398d64b0d559c225b783cf514430fc60849ab1de4812d1e7b3f52a76117b90100000000000000000000000000000000000000000000000000000000000000000000000000000000000000000000000000000000000000000000000000000000000000000000000000000000000000000000000000000000000000000000000000000000000000000000000000000000000000000000000000000000000000000000000000000000000000000000000000000000000000000000000000000000000000000000000000000000000000000000000000000000000000000000000000000000000000000000000000000000000000000000000000000000000000000000000000000000000000000000000000000000000000000000000000000000008302000001887fffffffffffffff830289758203e880a0155d7391a4b948b48cbaa0224a8713a4b06082681018cfc7e0f9c70975c896f288dfd1df7a8d9277eaf862f86080018302897694bbbf5374fce5edbc8e2a8697c15331677e6ebf0b0a801ba0cd600f2ae2ff3787336c74911d1d25e053b81ae72dd849703c712558be496f7fa006d28736b0f78feb5c662d1fd09efcda95a090c2df24897cbbecd3c993bbf316c0",
                "transactions" : [
                    {
                        "data" : "",
                        "gasLimit" : "0x028976",
                        "gasPrice" : "0x01",
                        "nonce" : "0x00",
                        "r" : "0xcd600f2ae2ff3787336c74911d1d25e053b81ae72dd849703c712558be496f7f",
                        "s" : "0x06d28736b0f78feb5c662d1fd09efcda95a090c2df24897cbbecd3c993bbf316",
                        "to" : "0xbbbf5374fce5edbc8e2a8697c15331677e6ebf0b",
                        "v" : "0x1b",
                        "value" : "0x0a"
                    }
                ],
                "uncleHeaders" : [
                ]
            }
        ],
        "genesisBlockHeader" : {
            "bloom" : "0x00000000000000000000000000000000000000000000000000000000000000000000000000000000000000000000000000000000000000000000000000000000000000000000000000000000000000000000000000000000000000000000000000000000000000000000000000000000000000000000000000000000000000000000000000000000000000000000000000000000000000000000000000000000000000000000000000000000000000000000000000000000000000000000000000000000000000000000000000000000000000000000000000000000000000000000000000000000000000000000000000000000000000000000000000000000",
            "coinbase" : "0xb94f5374fce5edbc8e2a8697c15331677e6ebf0b",
            "difficulty" : "0x020000",
            "extraData" : "0x42",
            "gasLimit" : "0x7fffffffffffffff",
            "gasUsed" : "0x00",
            "hash" : "0x794985f53fdfd478f13fe31b4a5fad3097768e7e7db36fd8ce2f99a1c5510a18",
            "mixHash" : "0x56e81f171bcc55a6ff8345e692c0f86e5b48e01b996cadc001622fb5e363b421",
            "nonce" : "0x0102030405060708",
            "number" : "0x00",
            "parentHash" : "0x0000000000000000000000000000000000000000000000000000000000000000",
            "receiptTrie" : "0x56e81f171bcc55a6ff8345e692c0f86e5b48e01b996cadc001622fb5e363b421",
            "stateRoot" : "0xd1c36f61b4b956287b89b816523b4ea0ac62681f2ee03d0479118fc6db3690b9",
            "timestamp" : "0x03b6",
            "transactionsTrie" : "0x56e81f171bcc55a6ff8345e692c0f86e5b48e01b996cadc001622fb5e363b421",
            "uncleHash" : "0x1dcc4de8dec75d7aab85b567b6ccd41ad312451b948a7413f0a142fd40d49347"
        },
        "genesisRLP" : "0xf901fff901faa00000000000000000000000000000000000000000000000000000000000000000a01dcc4de8dec75d7aab85b567b6ccd41ad312451b948a7413f0a142fd40d4934794b94f5374fce5edbc8e2a8697c15331677e6ebf0ba0d1c36f61b4b956287b89b816523b4ea0ac62681f2ee03d0479118fc6db3690b9a056e81f171bcc55a6ff8345e692c0f86e5b48e01b996cadc001622fb5e363b421a056e81f171bcc55a6ff8345e692c0f86e5b48e01b996cadc001622fb5e363b421b90100000000000000000000000000000000000000000000000000000000000000000000000000000000000000000000000000000000000000000000000000000000000000000000000000000000000000000000000000000000000000000000000000000000000000000000000000000000000000000000000000000000000000000000000000000000000000000000000000000000000000000000000000000000000000000000000000000000000000000000000000000000000000000000000000000000000000000000000000000000000000000000000000000000000000000000000000000000000000000000000000000000000000000000000000000000008302000080887fffffffffffffff808203b642a056e81f171bcc55a6ff8345e692c0f86e5b48e01b996cadc001622fb5e363b421880102030405060708c0c0",
        "lastblockhash" : "0xbf498abcfa96e1fa6a1bca764ba208a3a48c1a39bd1a9e1e273fd02136e2a765",
        "network" : "Homestead",
        "postState" : {
            "0xa94f5374fce5edbc8e2a8697c15331677e6ebf0b" : {
                "balance" : "0xfffffffffffffffffffffffffffd7680",
                "code" : "",
                "nonce" : "0x01",
                "storage" : {
                }
            },
            "0xaaaf5374fce5edbc8e2a8697c15331677e6ebf0b" : {
                "balance" : "0x1b58",
                "code" : "",
                "nonce" : "0x00",
                "storage" : {
                }
            },
            "0xb94f5374fce5edbc8e2a8697c15331677e6ebf0b" : {
                "balance" : "0x4563918244f68975",
                "code" : "",
                "nonce" : "0x00",
                "storage" : {
                }
            },
            "0xbbbf5374fce5edbc8e2a8697c15331677e6ebf0b" : {
                "balance" : "0x040a",
                "code" : "0x6001600054016000556000600060006000600073bbbf5374fce5edbc8e2a8697c15331677e6ebf0b620186a060005402600101f26001556103e860005402600101600255",
                "nonce" : "0x00",
                "storage" : {
                    "0x00" : "0x01",
                    "0x02" : "0x03e9"
                }
            }
        },
        "pre" : {
            "0xa94f5374fce5edbc8e2a8697c15331677e6ebf0b" : {
                "balance" : "0xffffffffffffffffffffffffffffffff",
                "code" : "",
                "nonce" : "0x00",
                "storage" : {
                }
            },
            "0xaaaf5374fce5edbc8e2a8697c15331677e6ebf0b" : {
                "balance" : "0x1b58",
                "code" : "",
                "nonce" : "0x00",
                "storage" : {
                }
            },
            "0xbbbf5374fce5edbc8e2a8697c15331677e6ebf0b" : {
                "balance" : "0x0400",
                "code" : "0x6001600054016000556000600060006000600073bbbf5374fce5edbc8e2a8697c15331677e6ebf0b620186a060005402600101f26001556103e860005402600101600255",
                "nonce" : "0x00",
                "storage" : {
                }
            }
        }
    }
}