{
    "callOutput3partial_d0g0v0_Byzantium" : {
        "_info" : {
            "comment" : "",
            "filledwith" : "cpp-1.3.0+commit.6e0ce939.Linux.g++",
            "lllcversion" : "Version: 0.4.18-develop.2017.9.25+commit.a72237f2.Linux.g++",
            "source" : "src/BlockchainTestsFiller/GeneralStateTests/stCallCreateCallCodeTest/callOutput3partial_d0g0v0Filler.json",
            "sourceHash" : "7d8df19cc9d4e716baaee479382043377d691f602447d4c2f565e7a6fd7adf50"
        },
        "blocks" : [
            {
                "blockHeader" : {
                    "bloom" : "0x00000000000000000000000000000000000000000000000000000000000000000000000000000000000000000000000000000000000000000000000000000000000000000000000000000000000000000000000000000000000000000000000000000000000000000000000000000000000000000000000000000000000000000000000000000000000000000000000000000000000000000000000000000000000000000000000000000000000000000000000000000000000000000000000000000000000000000000000000000000000000000000000000000000000000000000000000000000000000000000000000000000000000000000000000000000",
                    "coinbase" : "0x2adc25665018aa1fe0e6bc666dac8fc2697ff9ba",
                    "difficulty" : "0x020000",
                    "extraData" : "",
                    "gasLimit" : "0x0f4240",
                    "gasUsed" : "0xf13c",
                    "hash" : "0x2ce4e341fb77e4b185b60458943fb26e06ee2ba241605652f631634d0c7c39eb",
                    "mixHash" : "0xaa2fc5f4469d7050d77e0b92c1f526d1adbc6f6ccbe49ad7b6e707034322541c",
                    "nonce" : "0x680865be1c20cbfd",
                    "number" : "0x01",
                    "parentHash" : "0x0c82c34ba7a5573906b7900c1556a80dcc05487bad1acfc60ac0b170b21b31fa",
                    "receiptTrie" : "0x143c91f4bf6e97def5e94de631eb2dd8f8543c693923c19abd5f763190d95b7c",
                    "stateRoot" : "0x54f20d3dbae9e00dd7c4f5b5957c3a7fdfb2353b6783aa0453c099e9683bfb4d",
                    "timestamp" : "0x03e8",
                    "transactionsTrie" : "0x7f85854b8b30dcca56f94318c7332e05eafa1635dafc57e2abe1fac35c7efa8d",
                    "uncleHash" : "0x1dcc4de8dec75d7aab85b567b6ccd41ad312451b948a7413f0a142fd40d49347"
                },
                "rlp" : "0xf90262f901f7a00c82c34ba7a5573906b7900c1556a80dcc05487bad1acfc60ac0b170b21b31faa01dcc4de8dec75d7aab85b567b6ccd41ad312451b948a7413f0a142fd40d49347942adc25665018aa1fe0e6bc666dac8fc2697ff9baa054f20d3dbae9e00dd7c4f5b5957c3a7fdfb2353b6783aa0453c099e9683bfb4da07f85854b8b30dcca56f94318c7332e05eafa1635dafc57e2abe1fac35c7efa8da0143c91f4bf6e97def5e94de631eb2dd8f8543c693923c19abd5f763190d95b7cb90100000000000000000000000000000000000000000000000000000000000000000000000000000000000000000000000000000000000000000000000000000000000000000000000000000000000000000000000000000000000000000000000000000000000000000000000000000000000000000000000000000000000000000000000000000000000000000000000000000000000000000000000000000000000000000000000000000000000000000000000000000000000000000000000000000000000000000000000000000000000000000000000000000000000000000000000000000000000000000000000000000000000000000000000000000000008302000001830f424082f13c8203e880a0aa2fc5f4469d7050d77e0b92c1f526d1adbc6f6ccbe49ad7b6e707034322541c88680865be1c20cbfdf865f8638080830f424094095e7baea6a6c7c4c2dfeb977efac326af552d87830186a0801ba0c15d34d194f0b39f15741df45c99593bf0cb642d4ca50088d1f8a289c430c9d4a005478f3b062fccb0c87482a930aa211a8dcfdcc00cafbfbb5b60995fe7b15e7bc0",
                "transactions" : [
                    {
                        "data" : "",
                        "gasLimit" : "0x0f4240",
                        "gasPrice" : "0x00",
                        "nonce" : "0x00",
                        "r" : "0xc15d34d194f0b39f15741df45c99593bf0cb642d4ca50088d1f8a289c430c9d4",
                        "s" : "0x05478f3b062fccb0c87482a930aa211a8dcfdcc00cafbfbb5b60995fe7b15e7b",
                        "to" : "0x095e7baea6a6c7c4c2dfeb977efac326af552d87",
                        "v" : "0x1b",
                        "value" : "0x0186a0"
                    }
                ],
                "uncleHeaders" : [
                ]
            }
        ],
        "genesisBlockHeader" : {
            "bloom" : "0x00000000000000000000000000000000000000000000000000000000000000000000000000000000000000000000000000000000000000000000000000000000000000000000000000000000000000000000000000000000000000000000000000000000000000000000000000000000000000000000000000000000000000000000000000000000000000000000000000000000000000000000000000000000000000000000000000000000000000000000000000000000000000000000000000000000000000000000000000000000000000000000000000000000000000000000000000000000000000000000000000000000000000000000000000000000",
            "coinbase" : "0x2adc25665018aa1fe0e6bc666dac8fc2697ff9ba",
            "difficulty" : "0x020000",
            "extraData" : "0x42",
            "gasLimit" : "0x0f4240",
            "gasUsed" : "0x00",
            "hash" : "0x0c82c34ba7a5573906b7900c1556a80dcc05487bad1acfc60ac0b170b21b31fa",
            "mixHash" : "0x56e81f171bcc55a6ff8345e692c0f86e5b48e01b996cadc001622fb5e363b421",
            "nonce" : "0x0102030405060708",
            "number" : "0x00",
            "parentHash" : "0x0000000000000000000000000000000000000000000000000000000000000000",
            "receiptTrie" : "0x56e81f171bcc55a6ff8345e692c0f86e5b48e01b996cadc001622fb5e363b421",
            "stateRoot" : "0x004b6eec7dc45aaba2e4c546d46e3e8e9c5c1b9de31d73885c851d6c41a4edb2",
            "timestamp" : "0x03b6",
            "transactionsTrie" : "0x56e81f171bcc55a6ff8345e692c0f86e5b48e01b996cadc001622fb5e363b421",
            "uncleHash" : "0x1dcc4de8dec75d7aab85b567b6ccd41ad312451b948a7413f0a142fd40d49347"
        },
        "genesisRLP" : "0xf901faf901f5a00000000000000000000000000000000000000000000000000000000000000000a01dcc4de8dec75d7aab85b567b6ccd41ad312451b948a7413f0a142fd40d49347942adc25665018aa1fe0e6bc666dac8fc2697ff9baa0004b6eec7dc45aaba2e4c546d46e3e8e9c5c1b9de31d73885c851d6c41a4edb2a056e81f171bcc55a6ff8345e692c0f86e5b48e01b996cadc001622fb5e363b421a056e81f171bcc55a6ff8345e692c0f86e5b48e01b996cadc001622fb5e363b421b90100000000000000000000000000000000000000000000000000000000000000000000000000000000000000000000000000000000000000000000000000000000000000000000000000000000000000000000000000000000000000000000000000000000000000000000000000000000000000000000000000000000000000000000000000000000000000000000000000000000000000000000000000000000000000000000000000000000000000000000000000000000000000000000000000000000000000000000000000000000000000000000000000000000000000000000000000000000000000000000000000000000000000000000000000000000008302000080830f4240808203b642a056e81f171bcc55a6ff8345e692c0f86e5b48e01b996cadc001622fb5e363b421880102030405060708c0c0",
        "lastblockhash" : "0x2ce4e341fb77e4b185b60458943fb26e06ee2ba241605652f631634d0c7c39eb",
        "network" : "Byzantium",
        "postState" : {
            "0x095e7baea6a6c7c4c2dfeb977efac326af552d87" : {
                "balance" : "0x0de0b6b3a76586a0",
                "code" : "0x7f5e20a0453cecd065ea59c37ac63e079ee08998b6045136a8ce6635c7912ec0b6600052600a600060006000600073aaae7baea6a6c7c4c2dfeb977efac326af552d8761c350f150600051600055",
                "nonce" : "0x00",
                "storage" : {
                    "0x00" : "0x5e20a0453cecd065ea59c37ac63e079ee08998b6045136a8ce6635c7912ec0b6"
                }
            },
            "0x2adc25665018aa1fe0e6bc666dac8fc2697ff9ba" : {
                "balance" : "0x29a2241af62c0000",
                "code" : "",
                "nonce" : "0x00",
                "storage" : {
                }
            },
            "0xa94f5374fce5edbc8e2a8697c15331677e6ebf0b" : {
                "balance" : "0x0de0b6b3a7627960",
                "code" : "",
                "nonce" : "0x01",
                "storage" : {
                }
            },
            "0xaaae7baea6a6c7c4c2dfeb977efac326af552d87" : {
                "balance" : "0x0de0b6b3a7640000",
                "code" : "0x6001600101600055",
                "nonce" : "0x00",
                "storage" : {
                    "0x00" : "0x02"
                }
            }
        },
        "pre" : {
            "0x095e7baea6a6c7c4c2dfeb977efac326af552d87" : {
                "balance" : "0x0de0b6b3a7640000",
                "code" : "0x7f5e20a0453cecd065ea59c37ac63e079ee08998b6045136a8ce6635c7912ec0b6600052600a600060006000600073aaae7baea6a6c7c4c2dfeb977efac326af552d8761c350f150600051600055",
                "nonce" : "0x00",
                "storage" : {
                }
            },
            "0xa94f5374fce5edbc8e2a8697c15331677e6ebf0b" : {
                "balance" : "0x0de0b6b3a7640000",
                "code" : "",
                "nonce" : "0x00",
                "storage" : {
                }
            },
            "0xaaae7baea6a6c7c4c2dfeb977efac326af552d87" : {
                "balance" : "0x0de0b6b3a7640000",
                "code" : "0x6001600101600055",
                "nonce" : "0x00",
                "storage" : {
                }
            }
        }
    },
    "callOutput3partial_d0g0v0_EIP150" : {
        "_info" : {
            "comment" : "",
            "filledwith" : "cpp-1.3.0+commit.6e0ce939.Linux.g++",
            "lllcversion" : "Version: 0.4.18-develop.2017.9.25+commit.a72237f2.Linux.g++",
            "source" : "src/BlockchainTestsFiller/GeneralStateTests/stCallCreateCallCodeTest/callOutput3partial_d0g0v0Filler.json",
            "sourceHash" : "7d8df19cc9d4e716baaee479382043377d691f602447d4c2f565e7a6fd7adf50"
        },
        "blocks" : [
            {
                "blockHeader" : {
                    "bloom" : "0x00000000000000000000000000000000000000000000000000000000000000000000000000000000000000000000000000000000000000000000000000000000000000000000000000000000000000000000000000000000000000000000000000000000000000000000000000000000000000000000000000000000000000000000000000000000000000000000000000000000000000000000000000000000000000000000000000000000000000000000000000000000000000000000000000000000000000000000000000000000000000000000000000000000000000000000000000000000000000000000000000000000000000000000000000000000",
                    "coinbase" : "0x2adc25665018aa1fe0e6bc666dac8fc2697ff9ba",
                    "difficulty" : "0x020000",
                    "extraData" : "",
                    "gasLimit" : "0x0f4240",
                    "gasUsed" : "0xf13c",
                    "hash" : "0x035cccc88307f322599501481de61f866c55c897059409e7373ec0175afef580",
                    "mixHash" : "0x3175ddc8563250bab4a96b848a256bb30be9890e3ca6a42cf58586db527bfb3a",
                    "nonce" : "0x680c3776945224e0",
                    "number" : "0x01",
                    "parentHash" : "0x0c82c34ba7a5573906b7900c1556a80dcc05487bad1acfc60ac0b170b21b31fa",
                    "receiptTrie" : "0x2e086b15eeeeda9343f91fb92c7506d29a848eecc412e39366a91073554cb7d6",
                    "stateRoot" : "0xd77136f383fab45a806a5029933433056e84a1ff190e07fedc6fa3cf3c2b1487",
                    "timestamp" : "0x03e8",
                    "transactionsTrie" : "0x7f85854b8b30dcca56f94318c7332e05eafa1635dafc57e2abe1fac35c7efa8d",
                    "uncleHash" : "0x1dcc4de8dec75d7aab85b567b6ccd41ad312451b948a7413f0a142fd40d49347"
                },
                "rlp" : "0xf90262f901f7a00c82c34ba7a5573906b7900c1556a80dcc05487bad1acfc60ac0b170b21b31faa01dcc4de8dec75d7aab85b567b6ccd41ad312451b948a7413f0a142fd40d49347942adc25665018aa1fe0e6bc666dac8fc2697ff9baa0d77136f383fab45a806a5029933433056e84a1ff190e07fedc6fa3cf3c2b1487a07f85854b8b30dcca56f94318c7332e05eafa1635dafc57e2abe1fac35c7efa8da02e086b15eeeeda9343f91fb92c7506d29a848eecc412e39366a91073554cb7d6b90100000000000000000000000000000000000000000000000000000000000000000000000000000000000000000000000000000000000000000000000000000000000000000000000000000000000000000000000000000000000000000000000000000000000000000000000000000000000000000000000000000000000000000000000000000000000000000000000000000000000000000000000000000000000000000000000000000000000000000000000000000000000000000000000000000000000000000000000000000000000000000000000000000000000000000000000000000000000000000000000000000000000000000000000000000000008302000001830f424082f13c8203e880a03175ddc8563250bab4a96b848a256bb30be9890e3ca6a42cf58586db527bfb3a88680c3776945224e0f865f8638080830f424094095e7baea6a6c7c4c2dfeb977efac326af552d87830186a0801ba0c15d34d194f0b39f15741df45c99593bf0cb642d4ca50088d1f8a289c430c9d4a005478f3b062fccb0c87482a930aa211a8dcfdcc00cafbfbb5b60995fe7b15e7bc0",
                "transactions" : [
                    {
                        "data" : "",
                        "gasLimit" : "0x0f4240",
                        "gasPrice" : "0x00",
                        "nonce" : "0x00",
                        "r" : "0xc15d34d194f0b39f15741df45c99593bf0cb642d4ca50088d1f8a289c430c9d4",
                        "s" : "0x05478f3b062fccb0c87482a930aa211a8dcfdcc00cafbfbb5b60995fe7b15e7b",
                        "to" : "0x095e7baea6a6c7c4c2dfeb977efac326af552d87",
                        "v" : "0x1b",
                        "value" : "0x0186a0"
                    }
                ],
                "uncleHeaders" : [
                ]
            }
        ],
        "genesisBlockHeader" : {
            "bloom" : "0x00000000000000000000000000000000000000000000000000000000000000000000000000000000000000000000000000000000000000000000000000000000000000000000000000000000000000000000000000000000000000000000000000000000000000000000000000000000000000000000000000000000000000000000000000000000000000000000000000000000000000000000000000000000000000000000000000000000000000000000000000000000000000000000000000000000000000000000000000000000000000000000000000000000000000000000000000000000000000000000000000000000000000000000000000000000",
            "coinbase" : "0x2adc25665018aa1fe0e6bc666dac8fc2697ff9ba",
            "difficulty" : "0x020000",
            "extraData" : "0x42",
            "gasLimit" : "0x0f4240",
            "gasUsed" : "0x00",
            "hash" : "0x0c82c34ba7a5573906b7900c1556a80dcc05487bad1acfc60ac0b170b21b31fa",
            "mixHash" : "0x56e81f171bcc55a6ff8345e692c0f86e5b48e01b996cadc001622fb5e363b421",
            "nonce" : "0x0102030405060708",
            "number" : "0x00",
            "parentHash" : "0x0000000000000000000000000000000000000000000000000000000000000000",
            "receiptTrie" : "0x56e81f171bcc55a6ff8345e692c0f86e5b48e01b996cadc001622fb5e363b421",
            "stateRoot" : "0x004b6eec7dc45aaba2e4c546d46e3e8e9c5c1b9de31d73885c851d6c41a4edb2",
            "timestamp" : "0x03b6",
            "transactionsTrie" : "0x56e81f171bcc55a6ff8345e692c0f86e5b48e01b996cadc001622fb5e363b421",
            "uncleHash" : "0x1dcc4de8dec75d7aab85b567b6ccd41ad312451b948a7413f0a142fd40d49347"
        },
        "genesisRLP" : "0xf901faf901f5a00000000000000000000000000000000000000000000000000000000000000000a01dcc4de8dec75d7aab85b567b6ccd41ad312451b948a7413f0a142fd40d49347942adc25665018aa1fe0e6bc666dac8fc2697ff9baa0004b6eec7dc45aaba2e4c546d46e3e8e9c5c1b9de31d73885c851d6c41a4edb2a056e81f171bcc55a6ff8345e692c0f86e5b48e01b996cadc001622fb5e363b421a056e81f171bcc55a6ff8345e692c0f86e5b48e01b996cadc001622fb5e363b421b90100000000000000000000000000000000000000000000000000000000000000000000000000000000000000000000000000000000000000000000000000000000000000000000000000000000000000000000000000000000000000000000000000000000000000000000000000000000000000000000000000000000000000000000000000000000000000000000000000000000000000000000000000000000000000000000000000000000000000000000000000000000000000000000000000000000000000000000000000000000000000000000000000000000000000000000000000000000000000000000000000000000000000000000000000000000008302000080830f4240808203b642a056e81f171bcc55a6ff8345e692c0f86e5b48e01b996cadc001622fb5e363b421880102030405060708c0c0",
        "lastblockhash" : "0x035cccc88307f322599501481de61f866c55c897059409e7373ec0175afef580",
        "network" : "EIP150",
        "postState" : {
            "0x095e7baea6a6c7c4c2dfeb977efac326af552d87" : {
                "balance" : "0x0de0b6b3a76586a0",
                "code" : "0x7f5e20a0453cecd065ea59c37ac63e079ee08998b6045136a8ce6635c7912ec0b6600052600a600060006000600073aaae7baea6a6c7c4c2dfeb977efac326af552d8761c350f150600051600055",
                "nonce" : "0x00",
                "storage" : {
                    "0x00" : "0x5e20a0453cecd065ea59c37ac63e079ee08998b6045136a8ce6635c7912ec0b6"
                }
            },
            "0x2adc25665018aa1fe0e6bc666dac8fc2697ff9ba" : {
                "balance" : "0x4563918244f40000",
                "code" : "",
                "nonce" : "0x00",
                "storage" : {
                }
            },
            "0xa94f5374fce5edbc8e2a8697c15331677e6ebf0b" : {
                "balance" : "0x0de0b6b3a7627960",
                "code" : "",
                "nonce" : "0x01",
                "storage" : {
                }
            },
            "0xaaae7baea6a6c7c4c2dfeb977efac326af552d87" : {
                "balance" : "0x0de0b6b3a7640000",
                "code" : "0x6001600101600055",
                "nonce" : "0x00",
                "storage" : {
                    "0x00" : "0x02"
                }
            }
        },
        "pre" : {
            "0x095e7baea6a6c7c4c2dfeb977efac326af552d87" : {
                "balance" : "0x0de0b6b3a7640000",
                "code" : "0x7f5e20a0453cecd065ea59c37ac63e079ee08998b6045136a8ce6635c7912ec0b6600052600a600060006000600073aaae7baea6a6c7c4c2dfeb977efac326af552d8761c350f150600051600055",
                "nonce" : "0x00",
                "storage" : {
                }
            },
            "0xa94f5374fce5edbc8e2a8697c15331677e6ebf0b" : {
                "balance" : "0x0de0b6b3a7640000",
                "code" : "",
                "nonce" : "0x00",
                "storage" : {
                }
            },
            "0xaaae7baea6a6c7c4c2dfeb977efac326af552d87" : {
                "balance" : "0x0de0b6b3a7640000",
                "code" : "0x6001600101600055",
                "nonce" : "0x00",
                "storage" : {
                }
            }
        }
    },
    "callOutput3partial_d0g0v0_EIP158" : {
        "_info" : {
            "comment" : "",
            "filledwith" : "cpp-1.3.0+commit.6e0ce939.Linux.g++",
            "lllcversion" : "Version: 0.4.18-develop.2017.9.25+commit.a72237f2.Linux.g++",
            "source" : "src/BlockchainTestsFiller/GeneralStateTests/stCallCreateCallCodeTest/callOutput3partial_d0g0v0Filler.json",
            "sourceHash" : "7d8df19cc9d4e716baaee479382043377d691f602447d4c2f565e7a6fd7adf50"
        },
        "blocks" : [
            {
                "blockHeader" : {
                    "bloom" : "0x00000000000000000000000000000000000000000000000000000000000000000000000000000000000000000000000000000000000000000000000000000000000000000000000000000000000000000000000000000000000000000000000000000000000000000000000000000000000000000000000000000000000000000000000000000000000000000000000000000000000000000000000000000000000000000000000000000000000000000000000000000000000000000000000000000000000000000000000000000000000000000000000000000000000000000000000000000000000000000000000000000000000000000000000000000000",
                    "coinbase" : "0x2adc25665018aa1fe0e6bc666dac8fc2697ff9ba",
                    "difficulty" : "0x020000",
                    "extraData" : "",
                    "gasLimit" : "0x0f4240",
                    "gasUsed" : "0xf13c",
                    "hash" : "0xc2e391a682b65ace4d9d76b148a199ad0fd8b7aeb9e27984e0bed8680f385856",
                    "mixHash" : "0xa29d85143bef46678bd364dae6472f60af0c443a949fa656e419a21bdb85c54d",
                    "nonce" : "0xa8a391c6bf99862c",
                    "number" : "0x01",
                    "parentHash" : "0x0c82c34ba7a5573906b7900c1556a80dcc05487bad1acfc60ac0b170b21b31fa",
                    "receiptTrie" : "0x304913ebb690e75f791e3189ab67abfd934035ba1bcd01a56918b0ae76aee45c",
                    "stateRoot" : "0xd77136f383fab45a806a5029933433056e84a1ff190e07fedc6fa3cf3c2b1487",
                    "timestamp" : "0x03e8",
                    "transactionsTrie" : "0x7f85854b8b30dcca56f94318c7332e05eafa1635dafc57e2abe1fac35c7efa8d",
                    "uncleHash" : "0x1dcc4de8dec75d7aab85b567b6ccd41ad312451b948a7413f0a142fd40d49347"
                },
                "rlp" : "0xf90262f901f7a00c82c34ba7a5573906b7900c1556a80dcc05487bad1acfc60ac0b170b21b31faa01dcc4de8dec75d7aab85b567b6ccd41ad312451b948a7413f0a142fd40d49347942adc25665018aa1fe0e6bc666dac8fc2697ff9baa0d77136f383fab45a806a5029933433056e84a1ff190e07fedc6fa3cf3c2b1487a07f85854b8b30dcca56f94318c7332e05eafa1635dafc57e2abe1fac35c7efa8da0304913ebb690e75f791e3189ab67abfd934035ba1bcd01a56918b0ae76aee45cb90100000000000000000000000000000000000000000000000000000000000000000000000000000000000000000000000000000000000000000000000000000000000000000000000000000000000000000000000000000000000000000000000000000000000000000000000000000000000000000000000000000000000000000000000000000000000000000000000000000000000000000000000000000000000000000000000000000000000000000000000000000000000000000000000000000000000000000000000000000000000000000000000000000000000000000000000000000000000000000000000000000000000000000000000000000000008302000001830f424082f13c8203e880a0a29d85143bef46678bd364dae6472f60af0c443a949fa656e419a21bdb85c54d88a8a391c6bf99862cf865f8638080830f424094095e7baea6a6c7c4c2dfeb977efac326af552d87830186a0801ba0c15d34d194f0b39f15741df45c99593bf0cb642d4ca50088d1f8a289c430c9d4a005478f3b062fccb0c87482a930aa211a8dcfdcc00cafbfbb5b60995fe7b15e7bc0",
                "transactions" : [
                    {
                        "data" : "",
                        "gasLimit" : "0x0f4240",
                        "gasPrice" : "0x00",
                        "nonce" : "0x00",
                        "r" : "0xc15d34d194f0b39f15741df45c99593bf0cb642d4ca50088d1f8a289c430c9d4",
                        "s" : "0x05478f3b062fccb0c87482a930aa211a8dcfdcc00cafbfbb5b60995fe7b15e7b",
                        "to" : "0x095e7baea6a6c7c4c2dfeb977efac326af552d87",
                        "v" : "0x1b",
                        "value" : "0x0186a0"
                    }
                ],
                "uncleHeaders" : [
                ]
            }
        ],
        "genesisBlockHeader" : {
            "bloom" : "0x00000000000000000000000000000000000000000000000000000000000000000000000000000000000000000000000000000000000000000000000000000000000000000000000000000000000000000000000000000000000000000000000000000000000000000000000000000000000000000000000000000000000000000000000000000000000000000000000000000000000000000000000000000000000000000000000000000000000000000000000000000000000000000000000000000000000000000000000000000000000000000000000000000000000000000000000000000000000000000000000000000000000000000000000000000000",
            "coinbase" : "0x2adc25665018aa1fe0e6bc666dac8fc2697ff9ba",
            "difficulty" : "0x020000",
            "extraData" : "0x42",
            "gasLimit" : "0x0f4240",
            "gasUsed" : "0x00",
            "hash" : "0x0c82c34ba7a5573906b7900c1556a80dcc05487bad1acfc60ac0b170b21b31fa",
            "mixHash" : "0x56e81f171bcc55a6ff8345e692c0f86e5b48e01b996cadc001622fb5e363b421",
            "nonce" : "0x0102030405060708",
            "number" : "0x00",
            "parentHash" : "0x0000000000000000000000000000000000000000000000000000000000000000",
            "receiptTrie" : "0x56e81f171bcc55a6ff8345e692c0f86e5b48e01b996cadc001622fb5e363b421",
            "stateRoot" : "0x004b6eec7dc45aaba2e4c546d46e3e8e9c5c1b9de31d73885c851d6c41a4edb2",
            "timestamp" : "0x03b6",
            "transactionsTrie" : "0x56e81f171bcc55a6ff8345e692c0f86e5b48e01b996cadc001622fb5e363b421",
            "uncleHash" : "0x1dcc4de8dec75d7aab85b567b6ccd41ad312451b948a7413f0a142fd40d49347"
        },
        "genesisRLP" : "0xf901faf901f5a00000000000000000000000000000000000000000000000000000000000000000a01dcc4de8dec75d7aab85b567b6ccd41ad312451b948a7413f0a142fd40d49347942adc25665018aa1fe0e6bc666dac8fc2697ff9baa0004b6eec7dc45aaba2e4c546d46e3e8e9c5c1b9de31d73885c851d6c41a4edb2a056e81f171bcc55a6ff8345e692c0f86e5b48e01b996cadc001622fb5e363b421a056e81f171bcc55a6ff8345e692c0f86e5b48e01b996cadc001622fb5e363b421b90100000000000000000000000000000000000000000000000000000000000000000000000000000000000000000000000000000000000000000000000000000000000000000000000000000000000000000000000000000000000000000000000000000000000000000000000000000000000000000000000000000000000000000000000000000000000000000000000000000000000000000000000000000000000000000000000000000000000000000000000000000000000000000000000000000000000000000000000000000000000000000000000000000000000000000000000000000000000000000000000000000000000000000000000000000000008302000080830f4240808203b642a056e81f171bcc55a6ff8345e692c0f86e5b48e01b996cadc001622fb5e363b421880102030405060708c0c0",
        "lastblockhash" : "0xc2e391a682b65ace4d9d76b148a199ad0fd8b7aeb9e27984e0bed8680f385856",
        "network" : "EIP158",
        "postState" : {
            "0x095e7baea6a6c7c4c2dfeb977efac326af552d87" : {
                "balance" : "0x0de0b6b3a76586a0",
                "code" : "0x7f5e20a0453cecd065ea59c37ac63e079ee08998b6045136a8ce6635c7912ec0b6600052600a600060006000600073aaae7baea6a6c7c4c2dfeb977efac326af552d8761c350f150600051600055",
                "nonce" : "0x00",
                "storage" : {
                    "0x00" : "0x5e20a0453cecd065ea59c37ac63e079ee08998b6045136a8ce6635c7912ec0b6"
                }
            },
            "0x2adc25665018aa1fe0e6bc666dac8fc2697ff9ba" : {
                "balance" : "0x4563918244f40000",
                "code" : "",
                "nonce" : "0x00",
                "storage" : {
                }
            },
            "0xa94f5374fce5edbc8e2a8697c15331677e6ebf0b" : {
                "balance" : "0x0de0b6b3a7627960",
                "code" : "",
                "nonce" : "0x01",
                "storage" : {
                }
            },
            "0xaaae7baea6a6c7c4c2dfeb977efac326af552d87" : {
                "balance" : "0x0de0b6b3a7640000",
                "code" : "0x6001600101600055",
                "nonce" : "0x00",
                "storage" : {
                    "0x00" : "0x02"
                }
            }
        },
        "pre" : {
            "0x095e7baea6a6c7c4c2dfeb977efac326af552d87" : {
                "balance" : "0x0de0b6b3a7640000",
                "code" : "0x7f5e20a0453cecd065ea59c37ac63e079ee08998b6045136a8ce6635c7912ec0b6600052600a600060006000600073aaae7baea6a6c7c4c2dfeb977efac326af552d8761c350f150600051600055",
                "nonce" : "0x00",
                "storage" : {
                }
            },
            "0xa94f5374fce5edbc8e2a8697c15331677e6ebf0b" : {
                "balance" : "0x0de0b6b3a7640000",
                "code" : "",
                "nonce" : "0x00",
                "storage" : {
                }
            },
            "0xaaae7baea6a6c7c4c2dfeb977efac326af552d87" : {
                "balance" : "0x0de0b6b3a7640000",
                "code" : "0x6001600101600055",
                "nonce" : "0x00",
                "storage" : {
                }
            }
        }
    },
    "callOutput3partial_d0g0v0_Frontier" : {
        "_info" : {
            "comment" : "",
            "filledwith" : "cpp-1.3.0+commit.6e0ce939.Linux.g++",
            "lllcversion" : "Version: 0.4.18-develop.2017.9.25+commit.a72237f2.Linux.g++",
            "source" : "src/BlockchainTestsFiller/GeneralStateTests/stCallCreateCallCodeTest/callOutput3partial_d0g0v0Filler.json",
            "sourceHash" : "7d8df19cc9d4e716baaee479382043377d691f602447d4c2f565e7a6fd7adf50"
        },
        "blocks" : [
            {
                "blockHeader" : {
                    "bloom" : "0x00000000000000000000000000000000000000000000000000000000000000000000000000000000000000000000000000000000000000000000000000000000000000000000000000000000000000000000000000000000000000000000000000000000000000000000000000000000000000000000000000000000000000000000000000000000000000000000000000000000000000000000000000000000000000000000000000000000000000000000000000000000000000000000000000000000000000000000000000000000000000000000000000000000000000000000000000000000000000000000000000000000000000000000000000000000",
                    "coinbase" : "0x2adc25665018aa1fe0e6bc666dac8fc2697ff9ba",
                    "difficulty" : "0x020000",
                    "extraData" : "",
                    "gasLimit" : "0x0f4240",
                    "gasUsed" : "0xeea8",
                    "hash" : "0xbaf1e573c033bf3ff8949c280803bc1ea78cf57d0e7f5f56f7c03075110efe66",
                    "mixHash" : "0x8db9e3f2787f027c4467b876ff49cf65cb7fc34d04bd04daaf4916d0918ce11c",
                    "nonce" : "0xcb3b9963fe7c0dc2",
                    "number" : "0x01",
                    "parentHash" : "0x0c82c34ba7a5573906b7900c1556a80dcc05487bad1acfc60ac0b170b21b31fa",
                    "receiptTrie" : "0x984ca971fb26b32fc07cf794fbfb43ddf3c39a1c7fb7b12245bddc3819dc5ddc",
                    "stateRoot" : "0xd77136f383fab45a806a5029933433056e84a1ff190e07fedc6fa3cf3c2b1487",
                    "timestamp" : "0x03e8",
                    "transactionsTrie" : "0x7f85854b8b30dcca56f94318c7332e05eafa1635dafc57e2abe1fac35c7efa8d",
                    "uncleHash" : "0x1dcc4de8dec75d7aab85b567b6ccd41ad312451b948a7413f0a142fd40d49347"
                },
                "rlp" : "0xf90262f901f7a00c82c34ba7a5573906b7900c1556a80dcc05487bad1acfc60ac0b170b21b31faa01dcc4de8dec75d7aab85b567b6ccd41ad312451b948a7413f0a142fd40d49347942adc25665018aa1fe0e6bc666dac8fc2697ff9baa0d77136f383fab45a806a5029933433056e84a1ff190e07fedc6fa3cf3c2b1487a07f85854b8b30dcca56f94318c7332e05eafa1635dafc57e2abe1fac35c7efa8da0984ca971fb26b32fc07cf794fbfb43ddf3c39a1c7fb7b12245bddc3819dc5ddcb90100000000000000000000000000000000000000000000000000000000000000000000000000000000000000000000000000000000000000000000000000000000000000000000000000000000000000000000000000000000000000000000000000000000000000000000000000000000000000000000000000000000000000000000000000000000000000000000000000000000000000000000000000000000000000000000000000000000000000000000000000000000000000000000000000000000000000000000000000000000000000000000000000000000000000000000000000000000000000000000000000000000000000000000000000000000008302000001830f424082eea88203e880a08db9e3f2787f027c4467b876ff49cf65cb7fc34d04bd04daaf4916d0918ce11c88cb3b9963fe7c0dc2f865f8638080830f424094095e7baea6a6c7c4c2dfeb977efac326af552d87830186a0801ba0c15d34d194f0b39f15741df45c99593bf0cb642d4ca50088d1f8a289c430c9d4a005478f3b062fccb0c87482a930aa211a8dcfdcc00cafbfbb5b60995fe7b15e7bc0",
                "transactions" : [
                    {
                        "data" : "",
                        "gasLimit" : "0x0f4240",
                        "gasPrice" : "0x00",
                        "nonce" : "0x00",
                        "r" : "0xc15d34d194f0b39f15741df45c99593bf0cb642d4ca50088d1f8a289c430c9d4",
                        "s" : "0x05478f3b062fccb0c87482a930aa211a8dcfdcc00cafbfbb5b60995fe7b15e7b",
                        "to" : "0x095e7baea6a6c7c4c2dfeb977efac326af552d87",
                        "v" : "0x1b",
                        "value" : "0x0186a0"
                    }
                ],
                "uncleHeaders" : [
                ]
            }
        ],
        "genesisBlockHeader" : {
            "bloom" : "0x00000000000000000000000000000000000000000000000000000000000000000000000000000000000000000000000000000000000000000000000000000000000000000000000000000000000000000000000000000000000000000000000000000000000000000000000000000000000000000000000000000000000000000000000000000000000000000000000000000000000000000000000000000000000000000000000000000000000000000000000000000000000000000000000000000000000000000000000000000000000000000000000000000000000000000000000000000000000000000000000000000000000000000000000000000000",
            "coinbase" : "0x2adc25665018aa1fe0e6bc666dac8fc2697ff9ba",
            "difficulty" : "0x020000",
            "extraData" : "0x42",
            "gasLimit" : "0x0f4240",
            "gasUsed" : "0x00",
            "hash" : "0x0c82c34ba7a5573906b7900c1556a80dcc05487bad1acfc60ac0b170b21b31fa",
            "mixHash" : "0x56e81f171bcc55a6ff8345e692c0f86e5b48e01b996cadc001622fb5e363b421",
            "nonce" : "0x0102030405060708",
            "number" : "0x00",
            "parentHash" : "0x0000000000000000000000000000000000000000000000000000000000000000",
            "receiptTrie" : "0x56e81f171bcc55a6ff8345e692c0f86e5b48e01b996cadc001622fb5e363b421",
            "stateRoot" : "0x004b6eec7dc45aaba2e4c546d46e3e8e9c5c1b9de31d73885c851d6c41a4edb2",
            "timestamp" : "0x03b6",
            "transactionsTrie" : "0x56e81f171bcc55a6ff8345e692c0f86e5b48e01b996cadc001622fb5e363b421",
            "uncleHash" : "0x1dcc4de8dec75d7aab85b567b6ccd41ad312451b948a7413f0a142fd40d49347"
        },
        "genesisRLP" : "0xf901faf901f5a00000000000000000000000000000000000000000000000000000000000000000a01dcc4de8dec75d7aab85b567b6ccd41ad312451b948a7413f0a142fd40d49347942adc25665018aa1fe0e6bc666dac8fc2697ff9baa0004b6eec7dc45aaba2e4c546d46e3e8e9c5c1b9de31d73885c851d6c41a4edb2a056e81f171bcc55a6ff8345e692c0f86e5b48e01b996cadc001622fb5e363b421a056e81f171bcc55a6ff8345e692c0f86e5b48e01b996cadc001622fb5e363b421b90100000000000000000000000000000000000000000000000000000000000000000000000000000000000000000000000000000000000000000000000000000000000000000000000000000000000000000000000000000000000000000000000000000000000000000000000000000000000000000000000000000000000000000000000000000000000000000000000000000000000000000000000000000000000000000000000000000000000000000000000000000000000000000000000000000000000000000000000000000000000000000000000000000000000000000000000000000000000000000000000000000000000000000000000000000000008302000080830f4240808203b642a056e81f171bcc55a6ff8345e692c0f86e5b48e01b996cadc001622fb5e363b421880102030405060708c0c0",
        "lastblockhash" : "0xbaf1e573c033bf3ff8949c280803bc1ea78cf57d0e7f5f56f7c03075110efe66",
        "network" : "Frontier",
        "postState" : {
            "0x095e7baea6a6c7c4c2dfeb977efac326af552d87" : {
                "balance" : "0x0de0b6b3a76586a0",
                "code" : "0x7f5e20a0453cecd065ea59c37ac63e079ee08998b6045136a8ce6635c7912ec0b6600052600a600060006000600073aaae7baea6a6c7c4c2dfeb977efac326af552d8761c350f150600051600055",
                "nonce" : "0x00",
                "storage" : {
                    "0x00" : "0x5e20a0453cecd065ea59c37ac63e079ee08998b6045136a8ce6635c7912ec0b6"
                }
            },
            "0x2adc25665018aa1fe0e6bc666dac8fc2697ff9ba" : {
                "balance" : "0x4563918244f40000",
                "code" : "",
                "nonce" : "0x00",
                "storage" : {
                }
            },
            "0xa94f5374fce5edbc8e2a8697c15331677e6ebf0b" : {
                "balance" : "0x0de0b6b3a7627960",
                "code" : "",
                "nonce" : "0x01",
                "storage" : {
                }
            },
            "0xaaae7baea6a6c7c4c2dfeb977efac326af552d87" : {
                "balance" : "0x0de0b6b3a7640000",
                "code" : "0x6001600101600055",
                "nonce" : "0x00",
                "storage" : {
                    "0x00" : "0x02"
                }
            }
        },
        "pre" : {
            "0x095e7baea6a6c7c4c2dfeb977efac326af552d87" : {
                "balance" : "0x0de0b6b3a7640000",
                "code" : "0x7f5e20a0453cecd065ea59c37ac63e079ee08998b6045136a8ce6635c7912ec0b6600052600a600060006000600073aaae7baea6a6c7c4c2dfeb977efac326af552d8761c350f150600051600055",
                "nonce" : "0x00",
                "storage" : {
                }
            },
            "0xa94f5374fce5edbc8e2a8697c15331677e6ebf0b" : {
                "balance" : "0x0de0b6b3a7640000",
                "code" : "",
                "nonce" : "0x00",
                "storage" : {
                }
            },
            "0xaaae7baea6a6c7c4c2dfeb977efac326af552d87" : {
                "balance" : "0x0de0b6b3a7640000",
                "code" : "0x6001600101600055",
                "nonce" : "0x00",
                "storage" : {
                }
            }
        }
    },
    "callOutput3partial_d0g0v0_Homestead" : {
        "_info" : {
            "comment" : "",
            "filledwith" : "cpp-1.3.0+commit.6e0ce939.Linux.g++",
            "lllcversion" : "Version: 0.4.18-develop.2017.9.25+commit.a72237f2.Linux.g++",
            "source" : "src/BlockchainTestsFiller/GeneralStateTests/stCallCreateCallCodeTest/callOutput3partial_d0g0v0Filler.json",
            "sourceHash" : "7d8df19cc9d4e716baaee479382043377d691f602447d4c2f565e7a6fd7adf50"
        },
        "blocks" : [
            {
                "blockHeader" : {
                    "bloom" : "0x00000000000000000000000000000000000000000000000000000000000000000000000000000000000000000000000000000000000000000000000000000000000000000000000000000000000000000000000000000000000000000000000000000000000000000000000000000000000000000000000000000000000000000000000000000000000000000000000000000000000000000000000000000000000000000000000000000000000000000000000000000000000000000000000000000000000000000000000000000000000000000000000000000000000000000000000000000000000000000000000000000000000000000000000000000000",
                    "coinbase" : "0x2adc25665018aa1fe0e6bc666dac8fc2697ff9ba",
                    "difficulty" : "0x020000",
                    "extraData" : "",
                    "gasLimit" : "0x0f4240",
                    "gasUsed" : "0xeea8",
                    "hash" : "0xdada2378ecd04bc0202f9a9203bb193b5ae743709023e93a7a31269e2f73e017",
                    "mixHash" : "0xe960ebc1305db9622fb91bef2afab42aab6415b39b6f59ef2a63a23afeaaddb4",
                    "nonce" : "0xaa2884b6043849c7",
                    "number" : "0x01",
                    "parentHash" : "0x0c82c34ba7a5573906b7900c1556a80dcc05487bad1acfc60ac0b170b21b31fa",
                    "receiptTrie" : "0x984ca971fb26b32fc07cf794fbfb43ddf3c39a1c7fb7b12245bddc3819dc5ddc",
                    "stateRoot" : "0xd77136f383fab45a806a5029933433056e84a1ff190e07fedc6fa3cf3c2b1487",
                    "timestamp" : "0x03e8",
                    "transactionsTrie" : "0x7f85854b8b30dcca56f94318c7332e05eafa1635dafc57e2abe1fac35c7efa8d",
                    "uncleHash" : "0x1dcc4de8dec75d7aab85b567b6ccd41ad312451b948a7413f0a142fd40d49347"
                },
                "rlp" : "0xf90262f901f7a00c82c34ba7a5573906b7900c1556a80dcc05487bad1acfc60ac0b170b21b31faa01dcc4de8dec75d7aab85b567b6ccd41ad312451b948a7413f0a142fd40d49347942adc25665018aa1fe0e6bc666dac8fc2697ff9baa0d77136f383fab45a806a5029933433056e84a1ff190e07fedc6fa3cf3c2b1487a07f85854b8b30dcca56f94318c7332e05eafa1635dafc57e2abe1fac35c7efa8da0984ca971fb26b32fc07cf794fbfb43ddf3c39a1c7fb7b12245bddc3819dc5ddcb90100000000000000000000000000000000000000000000000000000000000000000000000000000000000000000000000000000000000000000000000000000000000000000000000000000000000000000000000000000000000000000000000000000000000000000000000000000000000000000000000000000000000000000000000000000000000000000000000000000000000000000000000000000000000000000000000000000000000000000000000000000000000000000000000000000000000000000000000000000000000000000000000000000000000000000000000000000000000000000000000000000000000000000000000000000000008302000001830f424082eea88203e880a0e960ebc1305db9622fb91bef2afab42aab6415b39b6f59ef2a63a23afeaaddb488aa2884b6043849c7f865f8638080830f424094095e7baea6a6c7c4c2dfeb977efac326af552d87830186a0801ba0c15d34d194f0b39f15741df45c99593bf0cb642d4ca50088d1f8a289c430c9d4a005478f3b062fccb0c87482a930aa211a8dcfdcc00cafbfbb5b60995fe7b15e7bc0",
                "transactions" : [
                    {
                        "data" : "",
                        "gasLimit" : "0x0f4240",
                        "gasPrice" : "0x00",
                        "nonce" : "0x00",
                        "r" : "0xc15d34d194f0b39f15741df45c99593bf0cb642d4ca50088d1f8a289c430c9d4",
                        "s" : "0x05478f3b062fccb0c87482a930aa211a8dcfdcc00cafbfbb5b60995fe7b15e7b",
                        "to" : "0x095e7baea6a6c7c4c2dfeb977efac326af552d87",
                        "v" : "0x1b",
                        "value" : "0x0186a0"
                    }
                ],
                "uncleHeaders" : [
                ]
            }
        ],
        "genesisBlockHeader" : {
            "bloom" : "0x00000000000000000000000000000000000000000000000000000000000000000000000000000000000000000000000000000000000000000000000000000000000000000000000000000000000000000000000000000000000000000000000000000000000000000000000000000000000000000000000000000000000000000000000000000000000000000000000000000000000000000000000000000000000000000000000000000000000000000000000000000000000000000000000000000000000000000000000000000000000000000000000000000000000000000000000000000000000000000000000000000000000000000000000000000000",
            "coinbase" : "0x2adc25665018aa1fe0e6bc666dac8fc2697ff9ba",
            "difficulty" : "0x020000",
            "extraData" : "0x42",
            "gasLimit" : "0x0f4240",
            "gasUsed" : "0x00",
            "hash" : "0x0c82c34ba7a5573906b7900c1556a80dcc05487bad1acfc60ac0b170b21b31fa",
            "mixHash" : "0x56e81f171bcc55a6ff8345e692c0f86e5b48e01b996cadc001622fb5e363b421",
            "nonce" : "0x0102030405060708",
            "number" : "0x00",
            "parentHash" : "0x0000000000000000000000000000000000000000000000000000000000000000",
            "receiptTrie" : "0x56e81f171bcc55a6ff8345e692c0f86e5b48e01b996cadc001622fb5e363b421",
            "stateRoot" : "0x004b6eec7dc45aaba2e4c546d46e3e8e9c5c1b9de31d73885c851d6c41a4edb2",
            "timestamp" : "0x03b6",
            "transactionsTrie" : "0x56e81f171bcc55a6ff8345e692c0f86e5b48e01b996cadc001622fb5e363b421",
            "uncleHash" : "0x1dcc4de8dec75d7aab85b567b6ccd41ad312451b948a7413f0a142fd40d49347"
        },
        "genesisRLP" : "0xf901faf901f5a00000000000000000000000000000000000000000000000000000000000000000a01dcc4de8dec75d7aab85b567b6ccd41ad312451b948a7413f0a142fd40d49347942adc25665018aa1fe0e6bc666dac8fc2697ff9baa0004b6eec7dc45aaba2e4c546d46e3e8e9c5c1b9de31d73885c851d6c41a4edb2a056e81f171bcc55a6ff8345e692c0f86e5b48e01b996cadc001622fb5e363b421a056e81f171bcc55a6ff8345e692c0f86e5b48e01b996cadc001622fb5e363b421b90100000000000000000000000000000000000000000000000000000000000000000000000000000000000000000000000000000000000000000000000000000000000000000000000000000000000000000000000000000000000000000000000000000000000000000000000000000000000000000000000000000000000000000000000000000000000000000000000000000000000000000000000000000000000000000000000000000000000000000000000000000000000000000000000000000000000000000000000000000000000000000000000000000000000000000000000000000000000000000000000000000000000000000000000000000000008302000080830f4240808203b642a056e81f171bcc55a6ff8345e692c0f86e5b48e01b996cadc001622fb5e363b421880102030405060708c0c0",
        "lastblockhash" : "0xdada2378ecd04bc0202f9a9203bb193b5ae743709023e93a7a31269e2f73e017",
        "network" : "Homestead",
        "postState" : {
            "0x095e7baea6a6c7c4c2dfeb977efac326af552d87" : {
                "balance" : "0x0de0b6b3a76586a0",
                "code" : "0x7f5e20a0453cecd065ea59c37ac63e079ee08998b6045136a8ce6635c7912ec0b6600052600a600060006000600073aaae7baea6a6c7c4c2dfeb977efac326af552d8761c350f150600051600055",
                "nonce" : "0x00",
                "storage" : {
                    "0x00" : "0x5e20a0453cecd065ea59c37ac63e079ee08998b6045136a8ce6635c7912ec0b6"
                }
            },
            "0x2adc25665018aa1fe0e6bc666dac8fc2697ff9ba" : {
                "balance" : "0x4563918244f40000",
                "code" : "",
                "nonce" : "0x00",
                "storage" : {
                }
            },
            "0xa94f5374fce5edbc8e2a8697c15331677e6ebf0b" : {
                "balance" : "0x0de0b6b3a7627960",
                "code" : "",
                "nonce" : "0x01",
                "storage" : {
                }
            },
            "0xaaae7baea6a6c7c4c2dfeb977efac326af552d87" : {
                "balance" : "0x0de0b6b3a7640000",
                "code" : "0x6001600101600055",
                "nonce" : "0x00",
                "storage" : {
                    "0x00" : "0x02"
                }
            }
        },
        "pre" : {
            "0x095e7baea6a6c7c4c2dfeb977efac326af552d87" : {
                "balance" : "0x0de0b6b3a7640000",
                "code" : "0x7f5e20a0453cecd065ea59c37ac63e079ee08998b6045136a8ce6635c7912ec0b6600052600a600060006000600073aaae7baea6a6c7c4c2dfeb977efac326af552d8761c350f150600051600055",
                "nonce" : "0x00",
                "storage" : {
                }
            },
            "0xa94f5374fce5edbc8e2a8697c15331677e6ebf0b" : {
                "balance" : "0x0de0b6b3a7640000",
                "code" : "",
                "nonce" : "0x00",
                "storage" : {
                }
            },
            "0xaaae7baea6a6c7c4c2dfeb977efac326af552d87" : {
                "balance" : "0x0de0b6b3a7640000",
                "code" : "0x6001600101600055",
                "nonce" : "0x00",
                "storage" : {
                }
            }
        }
    }
}