{
    "callOutput1_d0g0v0_Byzantium" : {
        "_info" : {
            "comment" : "",
            "filledwith" : "cpp-1.3.0+commit.6e0ce939.Linux.g++",
            "lllcversion" : "Version: 0.4.18-develop.2017.9.25+commit.a72237f2.Linux.g++",
            "source" : "src/BlockchainTestsFiller/GeneralStateTests/stCallCreateCallCodeTest/callOutput1_d0g0v0Filler.json",
            "sourceHash" : "98b40da5d88eb159dfc9bb080de54d5958ba9e38469f534bca370ac25fa73e03"
        },
        "blocks" : [
            {
                "blockHeader" : {
                    "bloom" : "0x00000000000000000000000000000000000000000000000000000000000000000000000000000000000000000000000000000000000000000000000000000000000000000000000000000000000000000000000000000000000000000000000000000000000000000000000000000000000000000000000000000000000000000000000000000000000000000000000000000000000000000000000000000000000000000000000000000000000000000000000000000000000000000000000000000000000000000000000000000000000000000000000000000000000000000000000000000000000000000000000000000000000000000000000000000000",
                    "coinbase" : "0x2adc25665018aa1fe0e6bc666dac8fc2697ff9ba",
                    "difficulty" : "0x020000",
                    "extraData" : "",
                    "gasLimit" : "0x0f4240",
                    "gasUsed" : "0xf13c",
                    "hash" : "0x662c3c6229dbd6d155f96a37bcc2db6dc440cd7e1db4cc6600084a0cf3a5b7d1",
                    "mixHash" : "0x0fda9c42571f266907320ee5a31e9ea5d5edd9f757508446b31dcc5c27936849",
                    "nonce" : "0xfe49df3969158be3",
                    "number" : "0x01",
                    "parentHash" : "0x615efc960c7fcad59fcdcb7b80afced47d9bf82571fe6e288d901a9c88ebe0eb",
                    "receiptTrie" : "0x143c91f4bf6e97def5e94de631eb2dd8f8543c693923c19abd5f763190d95b7c",
                    "stateRoot" : "0xfab45635f93e4a8eff3d41e097729cc3e7b3cbd28b1c399c22c32d2b1fc98c20",
                    "timestamp" : "0x03e8",
                    "transactionsTrie" : "0x7f85854b8b30dcca56f94318c7332e05eafa1635dafc57e2abe1fac35c7efa8d",
                    "uncleHash" : "0x1dcc4de8dec75d7aab85b567b6ccd41ad312451b948a7413f0a142fd40d49347"
                },
                "rlp" : "0xf90262f901f7a0615efc960c7fcad59fcdcb7b80afced47d9bf82571fe6e288d901a9c88ebe0eba01dcc4de8dec75d7aab85b567b6ccd41ad312451b948a7413f0a142fd40d49347942adc25665018aa1fe0e6bc666dac8fc2697ff9baa0fab45635f93e4a8eff3d41e097729cc3e7b3cbd28b1c399c22c32d2b1fc98c20a07f85854b8b30dcca56f94318c7332e05eafa1635dafc57e2abe1fac35c7efa8da0143c91f4bf6e97def5e94de631eb2dd8f8543c693923c19abd5f763190d95b7cb90100000000000000000000000000000000000000000000000000000000000000000000000000000000000000000000000000000000000000000000000000000000000000000000000000000000000000000000000000000000000000000000000000000000000000000000000000000000000000000000000000000000000000000000000000000000000000000000000000000000000000000000000000000000000000000000000000000000000000000000000000000000000000000000000000000000000000000000000000000000000000000000000000000000000000000000000000000000000000000000000000000000000000000000000000000000008302000001830f424082f13c8203e880a00fda9c42571f266907320ee5a31e9ea5d5edd9f757508446b31dcc5c2793684988fe49df3969158be3f865f8638080830f424094095e7baea6a6c7c4c2dfeb977efac326af552d87830186a0801ba0c15d34d194f0b39f15741df45c99593bf0cb642d4ca50088d1f8a289c430c9d4a005478f3b062fccb0c87482a930aa211a8dcfdcc00cafbfbb5b60995fe7b15e7bc0",
                "transactions" : [
                    {
                        "data" : "",
                        "gasLimit" : "0x0f4240",
                        "gasPrice" : "0x00",
                        "nonce" : "0x00",
                        "r" : "0xc15d34d194f0b39f15741df45c99593bf0cb642d4ca50088d1f8a289c430c9d4",
                        "s" : "0x05478f3b062fccb0c87482a930aa211a8dcfdcc00cafbfbb5b60995fe7b15e7b",
                        "to" : "0x095e7baea6a6c7c4c2dfeb977efac326af552d87",
                        "v" : "0x1b",
                        "value" : "0x0186a0"
                    }
                ],
                "uncleHeaders" : [
                ]
            }
        ],
        "genesisBlockHeader" : {
            "bloom" : "0x00000000000000000000000000000000000000000000000000000000000000000000000000000000000000000000000000000000000000000000000000000000000000000000000000000000000000000000000000000000000000000000000000000000000000000000000000000000000000000000000000000000000000000000000000000000000000000000000000000000000000000000000000000000000000000000000000000000000000000000000000000000000000000000000000000000000000000000000000000000000000000000000000000000000000000000000000000000000000000000000000000000000000000000000000000000",
            "coinbase" : "0x2adc25665018aa1fe0e6bc666dac8fc2697ff9ba",
            "difficulty" : "0x020000",
            "extraData" : "0x42",
            "gasLimit" : "0x0f4240",
            "gasUsed" : "0x00",
            "hash" : "0x615efc960c7fcad59fcdcb7b80afced47d9bf82571fe6e288d901a9c88ebe0eb",
            "mixHash" : "0x56e81f171bcc55a6ff8345e692c0f86e5b48e01b996cadc001622fb5e363b421",
            "nonce" : "0x0102030405060708",
            "number" : "0x00",
            "parentHash" : "0x0000000000000000000000000000000000000000000000000000000000000000",
            "receiptTrie" : "0x56e81f171bcc55a6ff8345e692c0f86e5b48e01b996cadc001622fb5e363b421",
            "stateRoot" : "0x936be9bc63557c0df30be6427cefa335f8695e4aeff6237ac190d1fd33f01c54",
            "timestamp" : "0x03b6",
            "transactionsTrie" : "0x56e81f171bcc55a6ff8345e692c0f86e5b48e01b996cadc001622fb5e363b421",
            "uncleHash" : "0x1dcc4de8dec75d7aab85b567b6ccd41ad312451b948a7413f0a142fd40d49347"
        },
        "genesisRLP" : "0xf901faf901f5a00000000000000000000000000000000000000000000000000000000000000000a01dcc4de8dec75d7aab85b567b6ccd41ad312451b948a7413f0a142fd40d49347942adc25665018aa1fe0e6bc666dac8fc2697ff9baa0936be9bc63557c0df30be6427cefa335f8695e4aeff6237ac190d1fd33f01c54a056e81f171bcc55a6ff8345e692c0f86e5b48e01b996cadc001622fb5e363b421a056e81f171bcc55a6ff8345e692c0f86e5b48e01b996cadc001622fb5e363b421b90100000000000000000000000000000000000000000000000000000000000000000000000000000000000000000000000000000000000000000000000000000000000000000000000000000000000000000000000000000000000000000000000000000000000000000000000000000000000000000000000000000000000000000000000000000000000000000000000000000000000000000000000000000000000000000000000000000000000000000000000000000000000000000000000000000000000000000000000000000000000000000000000000000000000000000000000000000000000000000000000000000000000000000000000000000000008302000080830f4240808203b642a056e81f171bcc55a6ff8345e692c0f86e5b48e01b996cadc001622fb5e363b421880102030405060708c0c0",
        "lastblockhash" : "0x662c3c6229dbd6d155f96a37bcc2db6dc440cd7e1db4cc6600084a0cf3a5b7d1",
        "network" : "Byzantium",
        "postState" : {
            "0x095e7baea6a6c7c4c2dfeb977efac326af552d87" : {
                "balance" : "0x0de0b6b3a76586a0",
                "code" : "0x7f5e20a0453cecd065ea59c37ac63e079ee08998b6045136a8ce6635c7912ec0b66000526000600060006000600073aaae7baea6a6c7c4c2dfeb977efac326af552d8761c350f150600051600055",
                "nonce" : "0x00",
                "storage" : {
                    "0x00" : "0x5e20a0453cecd065ea59c37ac63e079ee08998b6045136a8ce6635c7912ec0b6"
                }
            },
            "0x2adc25665018aa1fe0e6bc666dac8fc2697ff9ba" : {
                "balance" : "0x29a2241af62c0000",
                "code" : "",
                "nonce" : "0x00",
                "storage" : {
                }
            },
            "0xa94f5374fce5edbc8e2a8697c15331677e6ebf0b" : {
                "balance" : "0x0de0b6b3a7627960",
                "code" : "",
                "nonce" : "0x01",
                "storage" : {
                }
            },
            "0xaaae7baea6a6c7c4c2dfeb977efac326af552d87" : {
                "balance" : "0x0de0b6b3a7640000",
                "code" : "0x6001600101600055",
                "nonce" : "0x00",
                "storage" : {
                    "0x00" : "0x02"
                }
            }
        },
        "pre" : {
            "0x095e7baea6a6c7c4c2dfeb977efac326af552d87" : {
                "balance" : "0x0de0b6b3a7640000",
                "code" : "0x7f5e20a0453cecd065ea59c37ac63e079ee08998b6045136a8ce6635c7912ec0b66000526000600060006000600073aaae7baea6a6c7c4c2dfeb977efac326af552d8761c350f150600051600055",
                "nonce" : "0x00",
                "storage" : {
                }
            },
            "0xa94f5374fce5edbc8e2a8697c15331677e6ebf0b" : {
                "balance" : "0x0de0b6b3a7640000",
                "code" : "",
                "nonce" : "0x00",
                "storage" : {
                }
            },
            "0xaaae7baea6a6c7c4c2dfeb977efac326af552d87" : {
                "balance" : "0x0de0b6b3a7640000",
                "code" : "0x6001600101600055",
                "nonce" : "0x00",
                "storage" : {
                }
            }
        }
    },
    "callOutput1_d0g0v0_EIP150" : {
        "_info" : {
            "comment" : "",
            "filledwith" : "cpp-1.3.0+commit.6e0ce939.Linux.g++",
            "lllcversion" : "Version: 0.4.18-develop.2017.9.25+commit.a72237f2.Linux.g++",
            "source" : "src/BlockchainTestsFiller/GeneralStateTests/stCallCreateCallCodeTest/callOutput1_d0g0v0Filler.json",
            "sourceHash" : "98b40da5d88eb159dfc9bb080de54d5958ba9e38469f534bca370ac25fa73e03"
        },
        "blocks" : [
            {
                "blockHeader" : {
                    "bloom" : "0x00000000000000000000000000000000000000000000000000000000000000000000000000000000000000000000000000000000000000000000000000000000000000000000000000000000000000000000000000000000000000000000000000000000000000000000000000000000000000000000000000000000000000000000000000000000000000000000000000000000000000000000000000000000000000000000000000000000000000000000000000000000000000000000000000000000000000000000000000000000000000000000000000000000000000000000000000000000000000000000000000000000000000000000000000000000",
                    "coinbase" : "0x2adc25665018aa1fe0e6bc666dac8fc2697ff9ba",
                    "difficulty" : "0x020000",
                    "extraData" : "",
                    "gasLimit" : "0x0f4240",
                    "gasUsed" : "0xf13c",
                    "hash" : "0x2e3c9ad05c7ae69a988ff5f13865b81a4df3944e5e4f133fe68cdc74476a4b6e",
                    "mixHash" : "0xa0ae65f9e53aa2546c999e957fb03e51f94bbeb40e67b5a237f735a0236c772a",
                    "nonce" : "0xeccca1ded63d1b77",
                    "number" : "0x01",
                    "parentHash" : "0x615efc960c7fcad59fcdcb7b80afced47d9bf82571fe6e288d901a9c88ebe0eb",
                    "receiptTrie" : "0x0d23857864339c40918576ea958635fae4485aaee193504bf10f41a542969907",
                    "stateRoot" : "0xb695bd468ba9568791e46602d3381bd43ade7fa5259885cdff3f05388453dd75",
                    "timestamp" : "0x03e8",
                    "transactionsTrie" : "0x7f85854b8b30dcca56f94318c7332e05eafa1635dafc57e2abe1fac35c7efa8d",
                    "uncleHash" : "0x1dcc4de8dec75d7aab85b567b6ccd41ad312451b948a7413f0a142fd40d49347"
                },
                "rlp" : "0xf90262f901f7a0615efc960c7fcad59fcdcb7b80afced47d9bf82571fe6e288d901a9c88ebe0eba01dcc4de8dec75d7aab85b567b6ccd41ad312451b948a7413f0a142fd40d49347942adc25665018aa1fe0e6bc666dac8fc2697ff9baa0b695bd468ba9568791e46602d3381bd43ade7fa5259885cdff3f05388453dd75a07f85854b8b30dcca56f94318c7332e05eafa1635dafc57e2abe1fac35c7efa8da00d23857864339c40918576ea958635fae4485aaee193504bf10f41a542969907b90100000000000000000000000000000000000000000000000000000000000000000000000000000000000000000000000000000000000000000000000000000000000000000000000000000000000000000000000000000000000000000000000000000000000000000000000000000000000000000000000000000000000000000000000000000000000000000000000000000000000000000000000000000000000000000000000000000000000000000000000000000000000000000000000000000000000000000000000000000000000000000000000000000000000000000000000000000000000000000000000000000000000000000000000000000000008302000001830f424082f13c8203e880a0a0ae65f9e53aa2546c999e957fb03e51f94bbeb40e67b5a237f735a0236c772a88eccca1ded63d1b77f865f8638080830f424094095e7baea6a6c7c4c2dfeb977efac326af552d87830186a0801ba0c15d34d194f0b39f15741df45c99593bf0cb642d4ca50088d1f8a289c430c9d4a005478f3b062fccb0c87482a930aa211a8dcfdcc00cafbfbb5b60995fe7b15e7bc0",
                "transactions" : [
                    {
                        "data" : "",
                        "gasLimit" : "0x0f4240",
                        "gasPrice" : "0x00",
                        "nonce" : "0x00",
                        "r" : "0xc15d34d194f0b39f15741df45c99593bf0cb642d4ca50088d1f8a289c430c9d4",
                        "s" : "0x05478f3b062fccb0c87482a930aa211a8dcfdcc00cafbfbb5b60995fe7b15e7b",
                        "to" : "0x095e7baea6a6c7c4c2dfeb977efac326af552d87",
                        "v" : "0x1b",
                        "value" : "0x0186a0"
                    }
                ],
                "uncleHeaders" : [
                ]
            }
        ],
        "genesisBlockHeader" : {
            "bloom" : "0x00000000000000000000000000000000000000000000000000000000000000000000000000000000000000000000000000000000000000000000000000000000000000000000000000000000000000000000000000000000000000000000000000000000000000000000000000000000000000000000000000000000000000000000000000000000000000000000000000000000000000000000000000000000000000000000000000000000000000000000000000000000000000000000000000000000000000000000000000000000000000000000000000000000000000000000000000000000000000000000000000000000000000000000000000000000",
            "coinbase" : "0x2adc25665018aa1fe0e6bc666dac8fc2697ff9ba",
            "difficulty" : "0x020000",
            "extraData" : "0x42",
            "gasLimit" : "0x0f4240",
            "gasUsed" : "0x00",
            "hash" : "0x615efc960c7fcad59fcdcb7b80afced47d9bf82571fe6e288d901a9c88ebe0eb",
            "mixHash" : "0x56e81f171bcc55a6ff8345e692c0f86e5b48e01b996cadc001622fb5e363b421",
            "nonce" : "0x0102030405060708",
            "number" : "0x00",
            "parentHash" : "0x0000000000000000000000000000000000000000000000000000000000000000",
            "receiptTrie" : "0x56e81f171bcc55a6ff8345e692c0f86e5b48e01b996cadc001622fb5e363b421",
            "stateRoot" : "0x936be9bc63557c0df30be6427cefa335f8695e4aeff6237ac190d1fd33f01c54",
            "timestamp" : "0x03b6",
            "transactionsTrie" : "0x56e81f171bcc55a6ff8345e692c0f86e5b48e01b996cadc001622fb5e363b421",
            "uncleHash" : "0x1dcc4de8dec75d7aab85b567b6ccd41ad312451b948a7413f0a142fd40d49347"
        },
        "genesisRLP" : "0xf901faf901f5a00000000000000000000000000000000000000000000000000000000000000000a01dcc4de8dec75d7aab85b567b6ccd41ad312451b948a7413f0a142fd40d49347942adc25665018aa1fe0e6bc666dac8fc2697ff9baa0936be9bc63557c0df30be6427cefa335f8695e4aeff6237ac190d1fd33f01c54a056e81f171bcc55a6ff8345e692c0f86e5b48e01b996cadc001622fb5e363b421a056e81f171bcc55a6ff8345e692c0f86e5b48e01b996cadc001622fb5e363b421b90100000000000000000000000000000000000000000000000000000000000000000000000000000000000000000000000000000000000000000000000000000000000000000000000000000000000000000000000000000000000000000000000000000000000000000000000000000000000000000000000000000000000000000000000000000000000000000000000000000000000000000000000000000000000000000000000000000000000000000000000000000000000000000000000000000000000000000000000000000000000000000000000000000000000000000000000000000000000000000000000000000000000000000000000000000000008302000080830f4240808203b642a056e81f171bcc55a6ff8345e692c0f86e5b48e01b996cadc001622fb5e363b421880102030405060708c0c0",
        "lastblockhash" : "0x2e3c9ad05c7ae69a988ff5f13865b81a4df3944e5e4f133fe68cdc74476a4b6e",
        "network" : "EIP150",
        "postState" : {
            "0x095e7baea6a6c7c4c2dfeb977efac326af552d87" : {
                "balance" : "0x0de0b6b3a76586a0",
                "code" : "0x7f5e20a0453cecd065ea59c37ac63e079ee08998b6045136a8ce6635c7912ec0b66000526000600060006000600073aaae7baea6a6c7c4c2dfeb977efac326af552d8761c350f150600051600055",
                "nonce" : "0x00",
                "storage" : {
                    "0x00" : "0x5e20a0453cecd065ea59c37ac63e079ee08998b6045136a8ce6635c7912ec0b6"
                }
            },
            "0x2adc25665018aa1fe0e6bc666dac8fc2697ff9ba" : {
                "balance" : "0x4563918244f40000",
                "code" : "",
                "nonce" : "0x00",
                "storage" : {
                }
            },
            "0xa94f5374fce5edbc8e2a8697c15331677e6ebf0b" : {
                "balance" : "0x0de0b6b3a7627960",
                "code" : "",
                "nonce" : "0x01",
                "storage" : {
                }
            },
            "0xaaae7baea6a6c7c4c2dfeb977efac326af552d87" : {
                "balance" : "0x0de0b6b3a7640000",
                "code" : "0x6001600101600055",
                "nonce" : "0x00",
                "storage" : {
                    "0x00" : "0x02"
                }
            }
        },
        "pre" : {
            "0x095e7baea6a6c7c4c2dfeb977efac326af552d87" : {
                "balance" : "0x0de0b6b3a7640000",
                "code" : "0x7f5e20a0453cecd065ea59c37ac63e079ee08998b6045136a8ce6635c7912ec0b66000526000600060006000600073aaae7baea6a6c7c4c2dfeb977efac326af552d8761c350f150600051600055",
                "nonce" : "0x00",
                "storage" : {
                }
            },
            "0xa94f5374fce5edbc8e2a8697c15331677e6ebf0b" : {
                "balance" : "0x0de0b6b3a7640000",
                "code" : "",
                "nonce" : "0x00",
                "storage" : {
                }
            },
            "0xaaae7baea6a6c7c4c2dfeb977efac326af552d87" : {
                "balance" : "0x0de0b6b3a7640000",
                "code" : "0x6001600101600055",
                "nonce" : "0x00",
                "storage" : {
                }
            }
        }
    },
    "callOutput1_d0g0v0_EIP158" : {
        "_info" : {
            "comment" : "",
            "filledwith" : "cpp-1.3.0+commit.6e0ce939.Linux.g++",
            "lllcversion" : "Version: 0.4.18-develop.2017.9.25+commit.a72237f2.Linux.g++",
            "source" : "src/BlockchainTestsFiller/GeneralStateTests/stCallCreateCallCodeTest/callOutput1_d0g0v0Filler.json",
            "sourceHash" : "98b40da5d88eb159dfc9bb080de54d5958ba9e38469f534bca370ac25fa73e03"
        },
        "blocks" : [
            {
                "blockHeader" : {
                    "bloom" : "0x00000000000000000000000000000000000000000000000000000000000000000000000000000000000000000000000000000000000000000000000000000000000000000000000000000000000000000000000000000000000000000000000000000000000000000000000000000000000000000000000000000000000000000000000000000000000000000000000000000000000000000000000000000000000000000000000000000000000000000000000000000000000000000000000000000000000000000000000000000000000000000000000000000000000000000000000000000000000000000000000000000000000000000000000000000000",
                    "coinbase" : "0x2adc25665018aa1fe0e6bc666dac8fc2697ff9ba",
                    "difficulty" : "0x020000",
                    "extraData" : "",
                    "gasLimit" : "0x0f4240",
                    "gasUsed" : "0xf13c",
                    "hash" : "0xa776927598ac1e2940f7f2ad7b5381a873478843b93c8dafac52d5e180e0c94e",
                    "mixHash" : "0x98a24eab48e1fd5736194f6b001f820e33ffe2654351f783eda7b5928f0f9c87",
                    "nonce" : "0x3ccb39f021e0b400",
                    "number" : "0x01",
                    "parentHash" : "0x615efc960c7fcad59fcdcb7b80afced47d9bf82571fe6e288d901a9c88ebe0eb",
                    "receiptTrie" : "0xdc5875be6b91f070a926ce915191a757acd33546654bc5969617efe742bd30ba",
                    "stateRoot" : "0xb695bd468ba9568791e46602d3381bd43ade7fa5259885cdff3f05388453dd75",
                    "timestamp" : "0x03e8",
                    "transactionsTrie" : "0x7f85854b8b30dcca56f94318c7332e05eafa1635dafc57e2abe1fac35c7efa8d",
                    "uncleHash" : "0x1dcc4de8dec75d7aab85b567b6ccd41ad312451b948a7413f0a142fd40d49347"
                },
                "rlp" : "0xf90262f901f7a0615efc960c7fcad59fcdcb7b80afced47d9bf82571fe6e288d901a9c88ebe0eba01dcc4de8dec75d7aab85b567b6ccd41ad312451b948a7413f0a142fd40d49347942adc25665018aa1fe0e6bc666dac8fc2697ff9baa0b695bd468ba9568791e46602d3381bd43ade7fa5259885cdff3f05388453dd75a07f85854b8b30dcca56f94318c7332e05eafa1635dafc57e2abe1fac35c7efa8da0dc5875be6b91f070a926ce915191a757acd33546654bc5969617efe742bd30bab90100000000000000000000000000000000000000000000000000000000000000000000000000000000000000000000000000000000000000000000000000000000000000000000000000000000000000000000000000000000000000000000000000000000000000000000000000000000000000000000000000000000000000000000000000000000000000000000000000000000000000000000000000000000000000000000000000000000000000000000000000000000000000000000000000000000000000000000000000000000000000000000000000000000000000000000000000000000000000000000000000000000000000000000000000000000008302000001830f424082f13c8203e880a098a24eab48e1fd5736194f6b001f820e33ffe2654351f783eda7b5928f0f9c87883ccb39f021e0b400f865f8638080830f424094095e7baea6a6c7c4c2dfeb977efac326af552d87830186a0801ba0c15d34d194f0b39f15741df45c99593bf0cb642d4ca50088d1f8a289c430c9d4a005478f3b062fccb0c87482a930aa211a8dcfdcc00cafbfbb5b60995fe7b15e7bc0",
                "transactions" : [
                    {
                        "data" : "",
                        "gasLimit" : "0x0f4240",
                        "gasPrice" : "0x00",
                        "nonce" : "0x00",
                        "r" : "0xc15d34d194f0b39f15741df45c99593bf0cb642d4ca50088d1f8a289c430c9d4",
                        "s" : "0x05478f3b062fccb0c87482a930aa211a8dcfdcc00cafbfbb5b60995fe7b15e7b",
                        "to" : "0x095e7baea6a6c7c4c2dfeb977efac326af552d87",
                        "v" : "0x1b",
                        "value" : "0x0186a0"
                    }
                ],
                "uncleHeaders" : [
                ]
            }
        ],
        "genesisBlockHeader" : {
            "bloom" : "0x00000000000000000000000000000000000000000000000000000000000000000000000000000000000000000000000000000000000000000000000000000000000000000000000000000000000000000000000000000000000000000000000000000000000000000000000000000000000000000000000000000000000000000000000000000000000000000000000000000000000000000000000000000000000000000000000000000000000000000000000000000000000000000000000000000000000000000000000000000000000000000000000000000000000000000000000000000000000000000000000000000000000000000000000000000000",
            "coinbase" : "0x2adc25665018aa1fe0e6bc666dac8fc2697ff9ba",
            "difficulty" : "0x020000",
            "extraData" : "0x42",
            "gasLimit" : "0x0f4240",
            "gasUsed" : "0x00",
            "hash" : "0x615efc960c7fcad59fcdcb7b80afced47d9bf82571fe6e288d901a9c88ebe0eb",
            "mixHash" : "0x56e81f171bcc55a6ff8345e692c0f86e5b48e01b996cadc001622fb5e363b421",
            "nonce" : "0x0102030405060708",
            "number" : "0x00",
            "parentHash" : "0x0000000000000000000000000000000000000000000000000000000000000000",
            "receiptTrie" : "0x56e81f171bcc55a6ff8345e692c0f86e5b48e01b996cadc001622fb5e363b421",
            "stateRoot" : "0x936be9bc63557c0df30be6427cefa335f8695e4aeff6237ac190d1fd33f01c54",
            "timestamp" : "0x03b6",
            "transactionsTrie" : "0x56e81f171bcc55a6ff8345e692c0f86e5b48e01b996cadc001622fb5e363b421",
            "uncleHash" : "0x1dcc4de8dec75d7aab85b567b6ccd41ad312451b948a7413f0a142fd40d49347"
        },
        "genesisRLP" : "0xf901faf901f5a00000000000000000000000000000000000000000000000000000000000000000a01dcc4de8dec75d7aab85b567b6ccd41ad312451b948a7413f0a142fd40d49347942adc25665018aa1fe0e6bc666dac8fc2697ff9baa0936be9bc63557c0df30be6427cefa335f8695e4aeff6237ac190d1fd33f01c54a056e81f171bcc55a6ff8345e692c0f86e5b48e01b996cadc001622fb5e363b421a056e81f171bcc55a6ff8345e692c0f86e5b48e01b996cadc001622fb5e363b421b90100000000000000000000000000000000000000000000000000000000000000000000000000000000000000000000000000000000000000000000000000000000000000000000000000000000000000000000000000000000000000000000000000000000000000000000000000000000000000000000000000000000000000000000000000000000000000000000000000000000000000000000000000000000000000000000000000000000000000000000000000000000000000000000000000000000000000000000000000000000000000000000000000000000000000000000000000000000000000000000000000000000000000000000000000000000008302000080830f4240808203b642a056e81f171bcc55a6ff8345e692c0f86e5b48e01b996cadc001622fb5e363b421880102030405060708c0c0",
        "lastblockhash" : "0xa776927598ac1e2940f7f2ad7b5381a873478843b93c8dafac52d5e180e0c94e",
        "network" : "EIP158",
        "postState" : {
            "0x095e7baea6a6c7c4c2dfeb977efac326af552d87" : {
                "balance" : "0x0de0b6b3a76586a0",
                "code" : "0x7f5e20a0453cecd065ea59c37ac63e079ee08998b6045136a8ce6635c7912ec0b66000526000600060006000600073aaae7baea6a6c7c4c2dfeb977efac326af552d8761c350f150600051600055",
                "nonce" : "0x00",
                "storage" : {
                    "0x00" : "0x5e20a0453cecd065ea59c37ac63e079ee08998b6045136a8ce6635c7912ec0b6"
                }
            },
            "0x2adc25665018aa1fe0e6bc666dac8fc2697ff9ba" : {
                "balance" : "0x4563918244f40000",
                "code" : "",
                "nonce" : "0x00",
                "storage" : {
                }
            },
            "0xa94f5374fce5edbc8e2a8697c15331677e6ebf0b" : {
                "balance" : "0x0de0b6b3a7627960",
                "code" : "",
                "nonce" : "0x01",
                "storage" : {
                }
            },
            "0xaaae7baea6a6c7c4c2dfeb977efac326af552d87" : {
                "balance" : "0x0de0b6b3a7640000",
                "code" : "0x6001600101600055",
                "nonce" : "0x00",
                "storage" : {
                    "0x00" : "0x02"
                }
            }
        },
        "pre" : {
            "0x095e7baea6a6c7c4c2dfeb977efac326af552d87" : {
                "balance" : "0x0de0b6b3a7640000",
                "code" : "0x7f5e20a0453cecd065ea59c37ac63e079ee08998b6045136a8ce6635c7912ec0b66000526000600060006000600073aaae7baea6a6c7c4c2dfeb977efac326af552d8761c350f150600051600055",
                "nonce" : "0x00",
                "storage" : {
                }
            },
            "0xa94f5374fce5edbc8e2a8697c15331677e6ebf0b" : {
                "balance" : "0x0de0b6b3a7640000",
                "code" : "",
                "nonce" : "0x00",
                "storage" : {
                }
            },
            "0xaaae7baea6a6c7c4c2dfeb977efac326af552d87" : {
                "balance" : "0x0de0b6b3a7640000",
                "code" : "0x6001600101600055",
                "nonce" : "0x00",
                "storage" : {
                }
            }
        }
    },
    "callOutput1_d0g0v0_Frontier" : {
        "_info" : {
            "comment" : "",
            "filledwith" : "cpp-1.3.0+commit.6e0ce939.Linux.g++",
            "lllcversion" : "Version: 0.4.18-develop.2017.9.25+commit.a72237f2.Linux.g++",
            "source" : "src/BlockchainTestsFiller/GeneralStateTests/stCallCreateCallCodeTest/callOutput1_d0g0v0Filler.json",
            "sourceHash" : "98b40da5d88eb159dfc9bb080de54d5958ba9e38469f534bca370ac25fa73e03"
        },
        "blocks" : [
            {
                "blockHeader" : {
                    "bloom" : "0x00000000000000000000000000000000000000000000000000000000000000000000000000000000000000000000000000000000000000000000000000000000000000000000000000000000000000000000000000000000000000000000000000000000000000000000000000000000000000000000000000000000000000000000000000000000000000000000000000000000000000000000000000000000000000000000000000000000000000000000000000000000000000000000000000000000000000000000000000000000000000000000000000000000000000000000000000000000000000000000000000000000000000000000000000000000",
                    "coinbase" : "0x2adc25665018aa1fe0e6bc666dac8fc2697ff9ba",
                    "difficulty" : "0x020000",
                    "extraData" : "",
                    "gasLimit" : "0x0f4240",
                    "gasUsed" : "0xeea8",
                    "hash" : "0x6811089d3d68492d78951a50c3bb4242002b33d85c78efc209237603d0969a90",
                    "mixHash" : "0xbca32ebad2f1eb7de1a0b32e2684b00a86f62eca18245fc2590aa0ef2abe4f2f",
                    "nonce" : "0x08496e4002c54124",
                    "number" : "0x01",
                    "parentHash" : "0x615efc960c7fcad59fcdcb7b80afced47d9bf82571fe6e288d901a9c88ebe0eb",
                    "receiptTrie" : "0x49a9bf20d4f146960783f3141b0ac6a24d205735391c511dd5775e02e424e5ce",
                    "stateRoot" : "0xb695bd468ba9568791e46602d3381bd43ade7fa5259885cdff3f05388453dd75",
                    "timestamp" : "0x03e8",
                    "transactionsTrie" : "0x7f85854b8b30dcca56f94318c7332e05eafa1635dafc57e2abe1fac35c7efa8d",
                    "uncleHash" : "0x1dcc4de8dec75d7aab85b567b6ccd41ad312451b948a7413f0a142fd40d49347"
                },
                "rlp" : "0xf90262f901f7a0615efc960c7fcad59fcdcb7b80afced47d9bf82571fe6e288d901a9c88ebe0eba01dcc4de8dec75d7aab85b567b6ccd41ad312451b948a7413f0a142fd40d49347942adc25665018aa1fe0e6bc666dac8fc2697ff9baa0b695bd468ba9568791e46602d3381bd43ade7fa5259885cdff3f05388453dd75a07f85854b8b30dcca56f94318c7332e05eafa1635dafc57e2abe1fac35c7efa8da049a9bf20d4f146960783f3141b0ac6a24d205735391c511dd5775e02e424e5ceb90100000000000000000000000000000000000000000000000000000000000000000000000000000000000000000000000000000000000000000000000000000000000000000000000000000000000000000000000000000000000000000000000000000000000000000000000000000000000000000000000000000000000000000000000000000000000000000000000000000000000000000000000000000000000000000000000000000000000000000000000000000000000000000000000000000000000000000000000000000000000000000000000000000000000000000000000000000000000000000000000000000000000000000000000000000000008302000001830f424082eea88203e880a0bca32ebad2f1eb7de1a0b32e2684b00a86f62eca18245fc2590aa0ef2abe4f2f8808496e4002c54124f865f8638080830f424094095e7baea6a6c7c4c2dfeb977efac326af552d87830186a0801ba0c15d34d194f0b39f15741df45c99593bf0cb642d4ca50088d1f8a289c430c9d4a005478f3b062fccb0c87482a930aa211a8dcfdcc00cafbfbb5b60995fe7b15e7bc0",
                "transactions" : [
                    {
                        "data" : "",
                        "gasLimit" : "0x0f4240",
                        "gasPrice" : "0x00",
                        "nonce" : "0x00",
                        "r" : "0xc15d34d194f0b39f15741df45c99593bf0cb642d4ca50088d1f8a289c430c9d4",
                        "s" : "0x05478f3b062fccb0c87482a930aa211a8dcfdcc00cafbfbb5b60995fe7b15e7b",
                        "to" : "0x095e7baea6a6c7c4c2dfeb977efac326af552d87",
                        "v" : "0x1b",
                        "value" : "0x0186a0"
                    }
                ],
                "uncleHeaders" : [
                ]
            }
        ],
        "genesisBlockHeader" : {
            "bloom" : "0x00000000000000000000000000000000000000000000000000000000000000000000000000000000000000000000000000000000000000000000000000000000000000000000000000000000000000000000000000000000000000000000000000000000000000000000000000000000000000000000000000000000000000000000000000000000000000000000000000000000000000000000000000000000000000000000000000000000000000000000000000000000000000000000000000000000000000000000000000000000000000000000000000000000000000000000000000000000000000000000000000000000000000000000000000000000",
            "coinbase" : "0x2adc25665018aa1fe0e6bc666dac8fc2697ff9ba",
            "difficulty" : "0x020000",
            "extraData" : "0x42",
            "gasLimit" : "0x0f4240",
            "gasUsed" : "0x00",
            "hash" : "0x615efc960c7fcad59fcdcb7b80afced47d9bf82571fe6e288d901a9c88ebe0eb",
            "mixHash" : "0x56e81f171bcc55a6ff8345e692c0f86e5b48e01b996cadc001622fb5e363b421",
            "nonce" : "0x0102030405060708",
            "number" : "0x00",
            "parentHash" : "0x0000000000000000000000000000000000000000000000000000000000000000",
            "receiptTrie" : "0x56e81f171bcc55a6ff8345e692c0f86e5b48e01b996cadc001622fb5e363b421",
            "stateRoot" : "0x936be9bc63557c0df30be6427cefa335f8695e4aeff6237ac190d1fd33f01c54",
            "timestamp" : "0x03b6",
            "transactionsTrie" : "0x56e81f171bcc55a6ff8345e692c0f86e5b48e01b996cadc001622fb5e363b421",
            "uncleHash" : "0x1dcc4de8dec75d7aab85b567b6ccd41ad312451b948a7413f0a142fd40d49347"
        },
        "genesisRLP" : "0xf901faf901f5a00000000000000000000000000000000000000000000000000000000000000000a01dcc4de8dec75d7aab85b567b6ccd41ad312451b948a7413f0a142fd40d49347942adc25665018aa1fe0e6bc666dac8fc2697ff9baa0936be9bc63557c0df30be6427cefa335f8695e4aeff6237ac190d1fd33f01c54a056e81f171bcc55a6ff8345e692c0f86e5b48e01b996cadc001622fb5e363b421a056e81f171bcc55a6ff8345e692c0f86e5b48e01b996cadc001622fb5e363b421b90100000000000000000000000000000000000000000000000000000000000000000000000000000000000000000000000000000000000000000000000000000000000000000000000000000000000000000000000000000000000000000000000000000000000000000000000000000000000000000000000000000000000000000000000000000000000000000000000000000000000000000000000000000000000000000000000000000000000000000000000000000000000000000000000000000000000000000000000000000000000000000000000000000000000000000000000000000000000000000000000000000000000000000000000000000000008302000080830f4240808203b642a056e81f171bcc55a6ff8345e692c0f86e5b48e01b996cadc001622fb5e363b421880102030405060708c0c0",
        "lastblockhash" : "0x6811089d3d68492d78951a50c3bb4242002b33d85c78efc209237603d0969a90",
        "network" : "Frontier",
        "postState" : {
            "0x095e7baea6a6c7c4c2dfeb977efac326af552d87" : {
                "balance" : "0x0de0b6b3a76586a0",
                "code" : "0x7f5e20a0453cecd065ea59c37ac63e079ee08998b6045136a8ce6635c7912ec0b66000526000600060006000600073aaae7baea6a6c7c4c2dfeb977efac326af552d8761c350f150600051600055",
                "nonce" : "0x00",
                "storage" : {
                    "0x00" : "0x5e20a0453cecd065ea59c37ac63e079ee08998b6045136a8ce6635c7912ec0b6"
                }
            },
            "0x2adc25665018aa1fe0e6bc666dac8fc2697ff9ba" : {
                "balance" : "0x4563918244f40000",
                "code" : "",
                "nonce" : "0x00",
                "storage" : {
                }
            },
            "0xa94f5374fce5edbc8e2a8697c15331677e6ebf0b" : {
                "balance" : "0x0de0b6b3a7627960",
                "code" : "",
                "nonce" : "0x01",
                "storage" : {
                }
            },
            "0xaaae7baea6a6c7c4c2dfeb977efac326af552d87" : {
                "balance" : "0x0de0b6b3a7640000",
                "code" : "0x6001600101600055",
                "nonce" : "0x00",
                "storage" : {
                    "0x00" : "0x02"
                }
            }
        },
        "pre" : {
            "0x095e7baea6a6c7c4c2dfeb977efac326af552d87" : {
                "balance" : "0x0de0b6b3a7640000",
                "code" : "0x7f5e20a0453cecd065ea59c37ac63e079ee08998b6045136a8ce6635c7912ec0b66000526000600060006000600073aaae7baea6a6c7c4c2dfeb977efac326af552d8761c350f150600051600055",
                "nonce" : "0x00",
                "storage" : {
                }
            },
            "0xa94f5374fce5edbc8e2a8697c15331677e6ebf0b" : {
                "balance" : "0x0de0b6b3a7640000",
                "code" : "",
                "nonce" : "0x00",
                "storage" : {
                }
            },
            "0xaaae7baea6a6c7c4c2dfeb977efac326af552d87" : {
                "balance" : "0x0de0b6b3a7640000",
                "code" : "0x6001600101600055",
                "nonce" : "0x00",
                "storage" : {
                }
            }
        }
    },
    "callOutput1_d0g0v0_Homestead" : {
        "_info" : {
            "comment" : "",
            "filledwith" : "cpp-1.3.0+commit.6e0ce939.Linux.g++",
            "lllcversion" : "Version: 0.4.18-develop.2017.9.25+commit.a72237f2.Linux.g++",
            "source" : "src/BlockchainTestsFiller/GeneralStateTests/stCallCreateCallCodeTest/callOutput1_d0g0v0Filler.json",
            "sourceHash" : "98b40da5d88eb159dfc9bb080de54d5958ba9e38469f534bca370ac25fa73e03"
        },
        "blocks" : [
            {
                "blockHeader" : {
                    "bloom" : "0x00000000000000000000000000000000000000000000000000000000000000000000000000000000000000000000000000000000000000000000000000000000000000000000000000000000000000000000000000000000000000000000000000000000000000000000000000000000000000000000000000000000000000000000000000000000000000000000000000000000000000000000000000000000000000000000000000000000000000000000000000000000000000000000000000000000000000000000000000000000000000000000000000000000000000000000000000000000000000000000000000000000000000000000000000000000",
                    "coinbase" : "0x2adc25665018aa1fe0e6bc666dac8fc2697ff9ba",
                    "difficulty" : "0x020000",
                    "extraData" : "",
                    "gasLimit" : "0x0f4240",
                    "gasUsed" : "0xeea8",
                    "hash" : "0xdaa84e8f6416a3b1a8bc019f432e73ef0f8ef2d7fa550d45d96d09715317d979",
                    "mixHash" : "0x78bd746f2375a3b950686a7ef409305441a0d768ab14a73bb7102b4040c90dfe",
                    "nonce" : "0x5f8c22923b2c548d",
                    "number" : "0x01",
                    "parentHash" : "0x615efc960c7fcad59fcdcb7b80afced47d9bf82571fe6e288d901a9c88ebe0eb",
                    "receiptTrie" : "0x49a9bf20d4f146960783f3141b0ac6a24d205735391c511dd5775e02e424e5ce",
                    "stateRoot" : "0xb695bd468ba9568791e46602d3381bd43ade7fa5259885cdff3f05388453dd75",
                    "timestamp" : "0x03e8",
                    "transactionsTrie" : "0x7f85854b8b30dcca56f94318c7332e05eafa1635dafc57e2abe1fac35c7efa8d",
                    "uncleHash" : "0x1dcc4de8dec75d7aab85b567b6ccd41ad312451b948a7413f0a142fd40d49347"
                },
                "rlp" : "0xf90262f901f7a0615efc960c7fcad59fcdcb7b80afced47d9bf82571fe6e288d901a9c88ebe0eba01dcc4de8dec75d7aab85b567b6ccd41ad312451b948a7413f0a142fd40d49347942adc25665018aa1fe0e6bc666dac8fc2697ff9baa0b695bd468ba9568791e46602d3381bd43ade7fa5259885cdff3f05388453dd75a07f85854b8b30dcca56f94318c7332e05eafa1635dafc57e2abe1fac35c7efa8da049a9bf20d4f146960783f3141b0ac6a24d205735391c511dd5775e02e424e5ceb90100000000000000000000000000000000000000000000000000000000000000000000000000000000000000000000000000000000000000000000000000000000000000000000000000000000000000000000000000000000000000000000000000000000000000000000000000000000000000000000000000000000000000000000000000000000000000000000000000000000000000000000000000000000000000000000000000000000000000000000000000000000000000000000000000000000000000000000000000000000000000000000000000000000000000000000000000000000000000000000000000000000000000000000000000000000008302000001830f424082eea88203e880a078bd746f2375a3b950686a7ef409305441a0d768ab14a73bb7102b4040c90dfe885f8c22923b2c548df865f8638080830f424094095e7baea6a6c7c4c2dfeb977efac326af552d87830186a0801ba0c15d34d194f0b39f15741df45c99593bf0cb642d4ca50088d1f8a289c430c9d4a005478f3b062fccb0c87482a930aa211a8dcfdcc00cafbfbb5b60995fe7b15e7bc0",
                "transactions" : [
                    {
                        "data" : "",
                        "gasLimit" : "0x0f4240",
                        "gasPrice" : "0x00",
                        "nonce" : "0x00",
                        "r" : "0xc15d34d194f0b39f15741df45c99593bf0cb642d4ca50088d1f8a289c430c9d4",
                        "s" : "0x05478f3b062fccb0c87482a930aa211a8dcfdcc00cafbfbb5b60995fe7b15e7b",
                        "to" : "0x095e7baea6a6c7c4c2dfeb977efac326af552d87",
                        "v" : "0x1b",
                        "value" : "0x0186a0"
                    }
                ],
                "uncleHeaders" : [
                ]
            }
        ],
        "genesisBlockHeader" : {
            "bloom" : "0x00000000000000000000000000000000000000000000000000000000000000000000000000000000000000000000000000000000000000000000000000000000000000000000000000000000000000000000000000000000000000000000000000000000000000000000000000000000000000000000000000000000000000000000000000000000000000000000000000000000000000000000000000000000000000000000000000000000000000000000000000000000000000000000000000000000000000000000000000000000000000000000000000000000000000000000000000000000000000000000000000000000000000000000000000000000",
            "coinbase" : "0x2adc25665018aa1fe0e6bc666dac8fc2697ff9ba",
            "difficulty" : "0x020000",
            "extraData" : "0x42",
            "gasLimit" : "0x0f4240",
            "gasUsed" : "0x00",
            "hash" : "0x615efc960c7fcad59fcdcb7b80afced47d9bf82571fe6e288d901a9c88ebe0eb",
            "mixHash" : "0x56e81f171bcc55a6ff8345e692c0f86e5b48e01b996cadc001622fb5e363b421",
            "nonce" : "0x0102030405060708",
            "number" : "0x00",
            "parentHash" : "0x0000000000000000000000000000000000000000000000000000000000000000",
            "receiptTrie" : "0x56e81f171bcc55a6ff8345e692c0f86e5b48e01b996cadc001622fb5e363b421",
            "stateRoot" : "0x936be9bc63557c0df30be6427cefa335f8695e4aeff6237ac190d1fd33f01c54",
            "timestamp" : "0x03b6",
            "transactionsTrie" : "0x56e81f171bcc55a6ff8345e692c0f86e5b48e01b996cadc001622fb5e363b421",
            "uncleHash" : "0x1dcc4de8dec75d7aab85b567b6ccd41ad312451b948a7413f0a142fd40d49347"
        },
        "genesisRLP" : "0xf901faf901f5a00000000000000000000000000000000000000000000000000000000000000000a01dcc4de8dec75d7aab85b567b6ccd41ad312451b948a7413f0a142fd40d49347942adc25665018aa1fe0e6bc666dac8fc2697ff9baa0936be9bc63557c0df30be6427cefa335f8695e4aeff6237ac190d1fd33f01c54a056e81f171bcc55a6ff8345e692c0f86e5b48e01b996cadc001622fb5e363b421a056e81f171bcc55a6ff8345e692c0f86e5b48e01b996cadc001622fb5e363b421b90100000000000000000000000000000000000000000000000000000000000000000000000000000000000000000000000000000000000000000000000000000000000000000000000000000000000000000000000000000000000000000000000000000000000000000000000000000000000000000000000000000000000000000000000000000000000000000000000000000000000000000000000000000000000000000000000000000000000000000000000000000000000000000000000000000000000000000000000000000000000000000000000000000000000000000000000000000000000000000000000000000000000000000000000000000000008302000080830f4240808203b642a056e81f171bcc55a6ff8345e692c0f86e5b48e01b996cadc001622fb5e363b421880102030405060708c0c0",
        "lastblockhash" : "0xdaa84e8f6416a3b1a8bc019f432e73ef0f8ef2d7fa550d45d96d09715317d979",
        "network" : "Homestead",
        "postState" : {
            "0x095e7baea6a6c7c4c2dfeb977efac326af552d87" : {
                "balance" : "0x0de0b6b3a76586a0",
                "code" : "0x7f5e20a0453cecd065ea59c37ac63e079ee08998b6045136a8ce6635c7912ec0b66000526000600060006000600073aaae7baea6a6c7c4c2dfeb977efac326af552d8761c350f150600051600055",
                "nonce" : "0x00",
                "storage" : {
                    "0x00" : "0x5e20a0453cecd065ea59c37ac63e079ee08998b6045136a8ce6635c7912ec0b6"
                }
            },
            "0x2adc25665018aa1fe0e6bc666dac8fc2697ff9ba" : {
                "balance" : "0x4563918244f40000",
                "code" : "",
                "nonce" : "0x00",
                "storage" : {
                }
            },
            "0xa94f5374fce5edbc8e2a8697c15331677e6ebf0b" : {
                "balance" : "0x0de0b6b3a7627960",
                "code" : "",
                "nonce" : "0x01",
                "storage" : {
                }
            },
            "0xaaae7baea6a6c7c4c2dfeb977efac326af552d87" : {
                "balance" : "0x0de0b6b3a7640000",
                "code" : "0x6001600101600055",
                "nonce" : "0x00",
                "storage" : {
                    "0x00" : "0x02"
                }
            }
        },
        "pre" : {
            "0x095e7baea6a6c7c4c2dfeb977efac326af552d87" : {
                "balance" : "0x0de0b6b3a7640000",
                "code" : "0x7f5e20a0453cecd065ea59c37ac63e079ee08998b6045136a8ce6635c7912ec0b66000526000600060006000600073aaae7baea6a6c7c4c2dfeb977efac326af552d8761c350f150600051600055",
                "nonce" : "0x00",
                "storage" : {
                }
            },
            "0xa94f5374fce5edbc8e2a8697c15331677e6ebf0b" : {
                "balance" : "0x0de0b6b3a7640000",
                "code" : "",
                "nonce" : "0x00",
                "storage" : {
                }
            },
            "0xaaae7baea6a6c7c4c2dfeb977efac326af552d87" : {
                "balance" : "0x0de0b6b3a7640000",
                "code" : "0x6001600101600055",
                "nonce" : "0x00",
                "storage" : {
                }
            }
        }
    }
}