{
    "CallLoseGasOOG_d0g0v0_Byzantium" : {
        "_info" : {
            "comment" : "",
            "filledwith" : "cpp-1.3.0+commit.6e0ce939.Linux.g++",
            "lllcversion" : "Version: 0.4.18-develop.2017.9.25+commit.a72237f2.Linux.g++",
            "source" : "src/BlockchainTestsFiller/GeneralStateTests/stCallCreateCallCodeTest/CallLoseGasOOG_d0g0v0Filler.json",
            "sourceHash" : "353798a3c4ffa6658b4422296e7b2f947bf8f10b29c2b52515a25f3ddadef680"
        },
        "blocks" : [
            {
                "blockHeader" : {
                    "bloom" : "0x00000000000000000000000000000000000000000000000000000000000000000000000000000000000000000000000000000000000000000000000000000000000000000000000000000000000000000000000000000000000000000000000000000000000000000000000000000000000000000000000000000000000000000000000000000000000000000000000000000000000000000000000000000000000000000000000000000000000000000000000000000000000000000000000000000000000000000000000000000000000000000000000000000000000000000000000000000000000000000000000000000000000000000000000000000000",
                    "coinbase" : "0xb94f5374fce5edbc8e2a8697c15331677e6ebf0b",
                    "difficulty" : "0x020000",
                    "extraData" : "",
                    "gasLimit" : "0x7fffffffffffffff",
                    "gasUsed" : "0x028dcb",
                    "hash" : "0x2b5da41df59d7f2681366cf3df19f281a5c4a616eeafb0e32dd029b29e36af9d",
                    "mixHash" : "0xd3457a78cccf18bd08f191f437ebbe72d482321fb9b9e517c622c0f0ec4490aa",
                    "nonce" : "0x538ecec8a276fa1b",
                    "number" : "0x01",
                    "parentHash" : "0xeccee847cf727082ca35a74cf60b43c58acf0a050b9012529d5d6ed3ab753d63",
                    "receiptTrie" : "0x8082cf6bd49c8ccb443c8537c42f533fc1071ac7e89c0d344765ff74c3a90cfa",
                    "stateRoot" : "0xa516ab3b5224a57f9055e55cffbd7f45283da42141699438e8dec63adba65a7c",
                    "timestamp" : "0x03e8",
                    "transactionsTrie" : "0x6225be0edd688cfb6cd0ce8477be236f0d21173b3d261f955a48e3c7c1552d86",
                    "uncleHash" : "0x1dcc4de8dec75d7aab85b567b6ccd41ad312451b948a7413f0a142fd40d49347"
                },
                "rlp" : "0xf9026af901fda0eccee847cf727082ca35a74cf60b43c58acf0a050b9012529d5d6ed3ab753d63a01dcc4de8dec75d7aab85b567b6ccd41ad312451b948a7413f0a142fd40d4934794b94f5374fce5edbc8e2a8697c15331677e6ebf0ba0a516ab3b5224a57f9055e55cffbd7f45283da42141699438e8dec63adba65a7ca06225be0edd688cfb6cd0ce8477be236f0d21173b3d261f955a48e3c7c1552d86a08082cf6bd49c8ccb443c8537c42f533fc1071ac7e89c0d344765ff74c3a90cfab90100000000000000000000000000000000000000000000000000000000000000000000000000000000000000000000000000000000000000000000000000000000000000000000000000000000000000000000000000000000000000000000000000000000000000000000000000000000000000000000000000000000000000000000000000000000000000000000000000000000000000000000000000000000000000000000000000000000000000000000000000000000000000000000000000000000000000000000000000000000000000000000000000000000000000000000000000000000000000000000000000000000000000000000000000000000008302000001887fffffffffffffff83028dcb8203e880a0d3457a78cccf18bd08f191f437ebbe72d482321fb9b9e517c622c0f0ec4490aa88538ecec8a276fa1bf867f8658001887fffffffffffffff94bbbf5374fce5edbc8e2a8697c15331677e6ebf0b0a801ca07c8b2f6209dca21f5254e6ed96210edcd5cfcf486c323728021ecfb3f281284aa00e439853dadcc15c198e9849f635b6ec8f308f58bae809b84245ccb2d5afa4ecc0",
                "transactions" : [
                    {
                        "data" : "",
                        "gasLimit" : "0x7fffffffffffffff",
                        "gasPrice" : "0x01",
                        "nonce" : "0x00",
                        "r" : "0x7c8b2f6209dca21f5254e6ed96210edcd5cfcf486c323728021ecfb3f281284a",
                        "s" : "0x0e439853dadcc15c198e9849f635b6ec8f308f58bae809b84245ccb2d5afa4ec",
                        "to" : "0xbbbf5374fce5edbc8e2a8697c15331677e6ebf0b",
                        "v" : "0x1c",
                        "value" : "0x0a"
                    }
                ],
                "uncleHeaders" : [
                ]
            }
        ],
        "genesisBlockHeader" : {
            "bloom" : "0x00000000000000000000000000000000000000000000000000000000000000000000000000000000000000000000000000000000000000000000000000000000000000000000000000000000000000000000000000000000000000000000000000000000000000000000000000000000000000000000000000000000000000000000000000000000000000000000000000000000000000000000000000000000000000000000000000000000000000000000000000000000000000000000000000000000000000000000000000000000000000000000000000000000000000000000000000000000000000000000000000000000000000000000000000000000",
            "coinbase" : "0xb94f5374fce5edbc8e2a8697c15331677e6ebf0b",
            "difficulty" : "0x020000",
            "extraData" : "0x42",
            "gasLimit" : "0x7fffffffffffffff",
            "gasUsed" : "0x00",
            "hash" : "0xeccee847cf727082ca35a74cf60b43c58acf0a050b9012529d5d6ed3ab753d63",
            "mixHash" : "0x56e81f171bcc55a6ff8345e692c0f86e5b48e01b996cadc001622fb5e363b421",
            "nonce" : "0x0102030405060708",
            "number" : "0x00",
            "parentHash" : "0x0000000000000000000000000000000000000000000000000000000000000000",
            "receiptTrie" : "0x56e81f171bcc55a6ff8345e692c0f86e5b48e01b996cadc001622fb5e363b421",
            "stateRoot" : "0x3774f9a9e90022b813780077ec2d1464983b5ffe74c332103f9b89b823554618",
            "timestamp" : "0x03b6",
            "transactionsTrie" : "0x56e81f171bcc55a6ff8345e692c0f86e5b48e01b996cadc001622fb5e363b421",
            "uncleHash" : "0x1dcc4de8dec75d7aab85b567b6ccd41ad312451b948a7413f0a142fd40d49347"
        },
        "genesisRLP" : "0xf901fff901faa00000000000000000000000000000000000000000000000000000000000000000a01dcc4de8dec75d7aab85b567b6ccd41ad312451b948a7413f0a142fd40d4934794b94f5374fce5edbc8e2a8697c15331677e6ebf0ba03774f9a9e90022b813780077ec2d1464983b5ffe74c332103f9b89b823554618a056e81f171bcc55a6ff8345e692c0f86e5b48e01b996cadc001622fb5e363b421a056e81f171bcc55a6ff8345e692c0f86e5b48e01b996cadc001622fb5e363b421b90100000000000000000000000000000000000000000000000000000000000000000000000000000000000000000000000000000000000000000000000000000000000000000000000000000000000000000000000000000000000000000000000000000000000000000000000000000000000000000000000000000000000000000000000000000000000000000000000000000000000000000000000000000000000000000000000000000000000000000000000000000000000000000000000000000000000000000000000000000000000000000000000000000000000000000000000000000000000000000000000000000000000000000000000000000000008302000080887fffffffffffffff808203b642a056e81f171bcc55a6ff8345e692c0f86e5b48e01b996cadc001622fb5e363b421880102030405060708c0c0",
        "lastblockhash" : "0x2b5da41df59d7f2681366cf3df19f281a5c4a616eeafb0e32dd029b29e36af9d",
        "network" : "Byzantium",
        "postState" : {
            "0xa94f5374fce5edbc8e2a8697c15331677e6ebf0b" : {
                "balance" : "0xfffffffffffffffffffffffffffd722a",
                "code" : "",
                "nonce" : "0x01",
                "storage" : {
                }
            },
            "0xaaaf5374fce5edbc8e2a8697c15331677e6ebf0b" : {
                "balance" : "0x1b58",
                "code" : "",
                "nonce" : "0x00",
                "storage" : {
                }
            },
            "0xb94f5374fce5edbc8e2a8697c15331677e6ebf0b" : {
                "balance" : "0x29a2241af62e8dcb",
                "code" : "",
                "nonce" : "0x00",
                "storage" : {
                }
            },
            "0xbbbf5374fce5edbc8e2a8697c15331677e6ebf0b" : {
                "balance" : "0x040a",
                "code" : "0x6001600054016000556000600060006000600073bbbf5374fce5edbc8e2a8697c15331677e6ebf0b620186a060005402600101f16001556103e860005402600101600255",
                "nonce" : "0x00",
                "storage" : {
                    "0x00" : "0x01",
                    "0x02" : "0x03e9"
                }
            }
        },
        "pre" : {
            "0xa94f5374fce5edbc8e2a8697c15331677e6ebf0b" : {
                "balance" : "0xffffffffffffffffffffffffffffffff",
                "code" : "",
                "nonce" : "0x00",
                "storage" : {
                }
            },
            "0xaaaf5374fce5edbc8e2a8697c15331677e6ebf0b" : {
                "balance" : "0x1b58",
                "code" : "",
                "nonce" : "0x00",
                "storage" : {
                }
            },
            "0xbbbf5374fce5edbc8e2a8697c15331677e6ebf0b" : {
                "balance" : "0x0400",
                "code" : "0x6001600054016000556000600060006000600073bbbf5374fce5edbc8e2a8697c15331677e6ebf0b620186a060005402600101f16001556103e860005402600101600255",
                "nonce" : "0x00",
                "storage" : {
                }
            }
        }
    },
    "CallLoseGasOOG_d0g0v0_EIP150" : {
        "_info" : {
            "comment" : "",
            "filledwith" : "cpp-1.3.0+commit.6e0ce939.Linux.g++",
            "lllcversion" : "Version: 0.4.18-develop.2017.9.25+commit.a72237f2.Linux.g++",
            "source" : "src/BlockchainTestsFiller/GeneralStateTests/stCallCreateCallCodeTest/CallLoseGasOOG_d0g0v0Filler.json",
            "sourceHash" : "353798a3c4ffa6658b4422296e7b2f947bf8f10b29c2b52515a25f3ddadef680"
        },
        "blocks" : [
            {
                "blockHeader" : {
                    "bloom" : "0x00000000000000000000000000000000000000000000000000000000000000000000000000000000000000000000000000000000000000000000000000000000000000000000000000000000000000000000000000000000000000000000000000000000000000000000000000000000000000000000000000000000000000000000000000000000000000000000000000000000000000000000000000000000000000000000000000000000000000000000000000000000000000000000000000000000000000000000000000000000000000000000000000000000000000000000000000000000000000000000000000000000000000000000000000000000",
                    "coinbase" : "0xb94f5374fce5edbc8e2a8697c15331677e6ebf0b",
                    "difficulty" : "0x020000",
                    "extraData" : "",
                    "gasLimit" : "0x7fffffffffffffff",
                    "gasUsed" : "0x028dcb",
                    "hash" : "0x165ed4db1ad86639928009c1cd5efe987dd4d3116993952e2e6cd31a89a13308",
                    "mixHash" : "0x2aa938943b3500c7261d5008a53aa1441a7facffacdfd2ccb1aa02bbdee834c4",
                    "nonce" : "0x14e56e56bde12893",
                    "number" : "0x01",
                    "parentHash" : "0xeccee847cf727082ca35a74cf60b43c58acf0a050b9012529d5d6ed3ab753d63",
                    "receiptTrie" : "0xa792a8b70cd03f7b3d4ddfc9b517111388c35a0f8d04f14ae770e3870b49e317",
                    "stateRoot" : "0xd8d21394408c42a87702d4f36623bdbe1c5ec8374f312d87154a23a8ae65ca34",
                    "timestamp" : "0x03e8",
                    "transactionsTrie" : "0x6225be0edd688cfb6cd0ce8477be236f0d21173b3d261f955a48e3c7c1552d86",
                    "uncleHash" : "0x1dcc4de8dec75d7aab85b567b6ccd41ad312451b948a7413f0a142fd40d49347"
                },
                "rlp" : "0xf9026af901fda0eccee847cf727082ca35a74cf60b43c58acf0a050b9012529d5d6ed3ab753d63a01dcc4de8dec75d7aab85b567b6ccd41ad312451b948a7413f0a142fd40d4934794b94f5374fce5edbc8e2a8697c15331677e6ebf0ba0d8d21394408c42a87702d4f36623bdbe1c5ec8374f312d87154a23a8ae65ca34a06225be0edd688cfb6cd0ce8477be236f0d21173b3d261f955a48e3c7c1552d86a0a792a8b70cd03f7b3d4ddfc9b517111388c35a0f8d04f14ae770e3870b49e317b90100000000000000000000000000000000000000000000000000000000000000000000000000000000000000000000000000000000000000000000000000000000000000000000000000000000000000000000000000000000000000000000000000000000000000000000000000000000000000000000000000000000000000000000000000000000000000000000000000000000000000000000000000000000000000000000000000000000000000000000000000000000000000000000000000000000000000000000000000000000000000000000000000000000000000000000000000000000000000000000000000000000000000000000000000000000008302000001887fffffffffffffff83028dcb8203e880a02aa938943b3500c7261d5008a53aa1441a7facffacdfd2ccb1aa02bbdee834c48814e56e56bde12893f867f8658001887fffffffffffffff94bbbf5374fce5edbc8e2a8697c15331677e6ebf0b0a801ca07c8b2f6209dca21f5254e6ed96210edcd5cfcf486c323728021ecfb3f281284aa00e439853dadcc15c198e9849f635b6ec8f308f58bae809b84245ccb2d5afa4ecc0",
                "transactions" : [
                    {
                        "data" : "",
                        "gasLimit" : "0x7fffffffffffffff",
                        "gasPrice" : "0x01",
                        "nonce" : "0x00",
                        "r" : "0x7c8b2f6209dca21f5254e6ed96210edcd5cfcf486c323728021ecfb3f281284a",
                        "s" : "0x0e439853dadcc15c198e9849f635b6ec8f308f58bae809b84245ccb2d5afa4ec",
                        "to" : "0xbbbf5374fce5edbc8e2a8697c15331677e6ebf0b",
                        "v" : "0x1c",
                        "value" : "0x0a"
                    }
                ],
                "uncleHeaders" : [
                ]
            }
        ],
        "genesisBlockHeader" : {
            "bloom" : "0x00000000000000000000000000000000000000000000000000000000000000000000000000000000000000000000000000000000000000000000000000000000000000000000000000000000000000000000000000000000000000000000000000000000000000000000000000000000000000000000000000000000000000000000000000000000000000000000000000000000000000000000000000000000000000000000000000000000000000000000000000000000000000000000000000000000000000000000000000000000000000000000000000000000000000000000000000000000000000000000000000000000000000000000000000000000",
            "coinbase" : "0xb94f5374fce5edbc8e2a8697c15331677e6ebf0b",
            "difficulty" : "0x020000",
            "extraData" : "0x42",
            "gasLimit" : "0x7fffffffffffffff",
            "gasUsed" : "0x00",
            "hash" : "0xeccee847cf727082ca35a74cf60b43c58acf0a050b9012529d5d6ed3ab753d63",
            "mixHash" : "0x56e81f171bcc55a6ff8345e692c0f86e5b48e01b996cadc001622fb5e363b421",
            "nonce" : "0x0102030405060708",
            "number" : "0x00",
            "parentHash" : "0x0000000000000000000000000000000000000000000000000000000000000000",
            "receiptTrie" : "0x56e81f171bcc55a6ff8345e692c0f86e5b48e01b996cadc001622fb5e363b421",
            "stateRoot" : "0x3774f9a9e90022b813780077ec2d1464983b5ffe74c332103f9b89b823554618",
            "timestamp" : "0x03b6",
            "transactionsTrie" : "0x56e81f171bcc55a6ff8345e692c0f86e5b48e01b996cadc001622fb5e363b421",
            "uncleHash" : "0x1dcc4de8dec75d7aab85b567b6ccd41ad312451b948a7413f0a142fd40d49347"
        },
        "genesisRLP" : "0xf901fff901faa00000000000000000000000000000000000000000000000000000000000000000a01dcc4de8dec75d7aab85b567b6ccd41ad312451b948a7413f0a142fd40d4934794b94f5374fce5edbc8e2a8697c15331677e6ebf0ba03774f9a9e90022b813780077ec2d1464983b5ffe74c332103f9b89b823554618a056e81f171bcc55a6ff8345e692c0f86e5b48e01b996cadc001622fb5e363b421a056e81f171bcc55a6ff8345e692c0f86e5b48e01b996cadc001622fb5e363b421b90100000000000000000000000000000000000000000000000000000000000000000000000000000000000000000000000000000000000000000000000000000000000000000000000000000000000000000000000000000000000000000000000000000000000000000000000000000000000000000000000000000000000000000000000000000000000000000000000000000000000000000000000000000000000000000000000000000000000000000000000000000000000000000000000000000000000000000000000000000000000000000000000000000000000000000000000000000000000000000000000000000000000000000000000000000000008302000080887fffffffffffffff808203b642a056e81f171bcc55a6ff8345e692c0f86e5b48e01b996cadc001622fb5e363b421880102030405060708c0c0",
        "lastblockhash" : "0x165ed4db1ad86639928009c1cd5efe987dd4d3116993952e2e6cd31a89a13308",
        "network" : "EIP150",
        "postState" : {
            "0xa94f5374fce5edbc8e2a8697c15331677e6ebf0b" : {
                "balance" : "0xfffffffffffffffffffffffffffd722a",
                "code" : "",
                "nonce" : "0x01",
                "storage" : {
                }
            },
            "0xaaaf5374fce5edbc8e2a8697c15331677e6ebf0b" : {
                "balance" : "0x1b58",
                "code" : "",
                "nonce" : "0x00",
                "storage" : {
                }
            },
            "0xb94f5374fce5edbc8e2a8697c15331677e6ebf0b" : {
                "balance" : "0x4563918244f68dcb",
                "code" : "",
                "nonce" : "0x00",
                "storage" : {
                }
            },
            "0xbbbf5374fce5edbc8e2a8697c15331677e6ebf0b" : {
                "balance" : "0x040a",
                "code" : "0x6001600054016000556000600060006000600073bbbf5374fce5edbc8e2a8697c15331677e6ebf0b620186a060005402600101f16001556103e860005402600101600255",
                "nonce" : "0x00",
                "storage" : {
                    "0x00" : "0x01",
                    "0x02" : "0x03e9"
                }
            }
        },
        "pre" : {
            "0xa94f5374fce5edbc8e2a8697c15331677e6ebf0b" : {
                "balance" : "0xffffffffffffffffffffffffffffffff",
                "code" : "",
                "nonce" : "0x00",
                "storage" : {
                }
            },
            "0xaaaf5374fce5edbc8e2a8697c15331677e6ebf0b" : {
                "balance" : "0x1b58",
                "code" : "",
                "nonce" : "0x00",
                "storage" : {
                }
            },
            "0xbbbf5374fce5edbc8e2a8697c15331677e6ebf0b" : {
                "balance" : "0x0400",
                "code" : "0x6001600054016000556000600060006000600073bbbf5374fce5edbc8e2a8697c15331677e6ebf0b620186a060005402600101f16001556103e860005402600101600255",
                "nonce" : "0x00",
                "storage" : {
                }
            }
        }
    },
    "CallLoseGasOOG_d0g0v0_EIP158" : {
        "_info" : {
            "comment" : "",
            "filledwith" : "cpp-1.3.0+commit.6e0ce939.Linux.g++",
            "lllcversion" : "Version: 0.4.18-develop.2017.9.25+commit.a72237f2.Linux.g++",
            "source" : "src/BlockchainTestsFiller/GeneralStateTests/stCallCreateCallCodeTest/CallLoseGasOOG_d0g0v0Filler.json",
            "sourceHash" : "353798a3c4ffa6658b4422296e7b2f947bf8f10b29c2b52515a25f3ddadef680"
        },
        "blocks" : [
            {
                "blockHeader" : {
                    "bloom" : "0x00000000000000000000000000000000000000000000000000000000000000000000000000000000000000000000000000000000000000000000000000000000000000000000000000000000000000000000000000000000000000000000000000000000000000000000000000000000000000000000000000000000000000000000000000000000000000000000000000000000000000000000000000000000000000000000000000000000000000000000000000000000000000000000000000000000000000000000000000000000000000000000000000000000000000000000000000000000000000000000000000000000000000000000000000000000",
                    "coinbase" : "0xb94f5374fce5edbc8e2a8697c15331677e6ebf0b",
                    "difficulty" : "0x020000",
                    "extraData" : "",
                    "gasLimit" : "0x7fffffffffffffff",
                    "gasUsed" : "0x028dcb",
                    "hash" : "0x581f5449bc6585e20153f8f7f315e42305dbfada4199e77f189432035c8930ca",
                    "mixHash" : "0x6ab8dae34d38d330d77476953db5cd2b1c49b37ed0583c1fb159582fde6d88ee",
                    "nonce" : "0x9e6f8c7b8c073d71",
                    "number" : "0x01",
                    "parentHash" : "0xeccee847cf727082ca35a74cf60b43c58acf0a050b9012529d5d6ed3ab753d63",
                    "receiptTrie" : "0xa792a8b70cd03f7b3d4ddfc9b517111388c35a0f8d04f14ae770e3870b49e317",
                    "stateRoot" : "0xd8d21394408c42a87702d4f36623bdbe1c5ec8374f312d87154a23a8ae65ca34",
                    "timestamp" : "0x03e8",
                    "transactionsTrie" : "0x6225be0edd688cfb6cd0ce8477be236f0d21173b3d261f955a48e3c7c1552d86",
                    "uncleHash" : "0x1dcc4de8dec75d7aab85b567b6ccd41ad312451b948a7413f0a142fd40d49347"
                },
                "rlp" : "0xf9026af901fda0eccee847cf727082ca35a74cf60b43c58acf0a050b9012529d5d6ed3ab753d63a01dcc4de8dec75d7aab85b567b6ccd41ad312451b948a7413f0a142fd40d4934794b94f5374fce5edbc8e2a8697c15331677e6ebf0ba0d8d21394408c42a87702d4f36623bdbe1c5ec8374f312d87154a23a8ae65ca34a06225be0edd688cfb6cd0ce8477be236f0d21173b3d261f955a48e3c7c1552d86a0a792a8b70cd03f7b3d4ddfc9b517111388c35a0f8d04f14ae770e3870b49e317b90100000000000000000000000000000000000000000000000000000000000000000000000000000000000000000000000000000000000000000000000000000000000000000000000000000000000000000000000000000000000000000000000000000000000000000000000000000000000000000000000000000000000000000000000000000000000000000000000000000000000000000000000000000000000000000000000000000000000000000000000000000000000000000000000000000000000000000000000000000000000000000000000000000000000000000000000000000000000000000000000000000000000000000000000000000000008302000001887fffffffffffffff83028dcb8203e880a06ab8dae34d38d330d77476953db5cd2b1c49b37ed0583c1fb159582fde6d88ee889e6f8c7b8c073d71f867f8658001887fffffffffffffff94bbbf5374fce5edbc8e2a8697c15331677e6ebf0b0a801ca07c8b2f6209dca21f5254e6ed96210edcd5cfcf486c323728021ecfb3f281284aa00e439853dadcc15c198e9849f635b6ec8f308f58bae809b84245ccb2d5afa4ecc0",
                "transactions" : [
                    {
                        "data" : "",
                        "gasLimit" : "0x7fffffffffffffff",
                        "gasPrice" : "0x01",
                        "nonce" : "0x00",
                        "r" : "0x7c8b2f6209dca21f5254e6ed96210edcd5cfcf486c323728021ecfb3f281284a",
                        "s" : "0x0e439853dadcc15c198e9849f635b6ec8f308f58bae809b84245ccb2d5afa4ec",
                        "to" : "0xbbbf5374fce5edbc8e2a8697c15331677e6ebf0b",
                        "v" : "0x1c",
                        "value" : "0x0a"
                    }
                ],
                "uncleHeaders" : [
                ]
            }
        ],
        "genesisBlockHeader" : {
            "bloom" : "0x00000000000000000000000000000000000000000000000000000000000000000000000000000000000000000000000000000000000000000000000000000000000000000000000000000000000000000000000000000000000000000000000000000000000000000000000000000000000000000000000000000000000000000000000000000000000000000000000000000000000000000000000000000000000000000000000000000000000000000000000000000000000000000000000000000000000000000000000000000000000000000000000000000000000000000000000000000000000000000000000000000000000000000000000000000000",
            "coinbase" : "0xb94f5374fce5edbc8e2a8697c15331677e6ebf0b",
            "difficulty" : "0x020000",
            "extraData" : "0x42",
            "gasLimit" : "0x7fffffffffffffff",
            "gasUsed" : "0x00",
            "hash" : "0xeccee847cf727082ca35a74cf60b43c58acf0a050b9012529d5d6ed3ab753d63",
            "mixHash" : "0x56e81f171bcc55a6ff8345e692c0f86e5b48e01b996cadc001622fb5e363b421",
            "nonce" : "0x0102030405060708",
            "number" : "0x00",
            "parentHash" : "0x0000000000000000000000000000000000000000000000000000000000000000",
            "receiptTrie" : "0x56e81f171bcc55a6ff8345e692c0f86e5b48e01b996cadc001622fb5e363b421",
            "stateRoot" : "0x3774f9a9e90022b813780077ec2d1464983b5ffe74c332103f9b89b823554618",
            "timestamp" : "0x03b6",
            "transactionsTrie" : "0x56e81f171bcc55a6ff8345e692c0f86e5b48e01b996cadc001622fb5e363b421",
            "uncleHash" : "0x1dcc4de8dec75d7aab85b567b6ccd41ad312451b948a7413f0a142fd40d49347"
        },
        "genesisRLP" : "0xf901fff901faa00000000000000000000000000000000000000000000000000000000000000000a01dcc4de8dec75d7aab85b567b6ccd41ad312451b948a7413f0a142fd40d4934794b94f5374fce5edbc8e2a8697c15331677e6ebf0ba03774f9a9e90022b813780077ec2d1464983b5ffe74c332103f9b89b823554618a056e81f171bcc55a6ff8345e692c0f86e5b48e01b996cadc001622fb5e363b421a056e81f171bcc55a6ff8345e692c0f86e5b48e01b996cadc001622fb5e363b421b90100000000000000000000000000000000000000000000000000000000000000000000000000000000000000000000000000000000000000000000000000000000000000000000000000000000000000000000000000000000000000000000000000000000000000000000000000000000000000000000000000000000000000000000000000000000000000000000000000000000000000000000000000000000000000000000000000000000000000000000000000000000000000000000000000000000000000000000000000000000000000000000000000000000000000000000000000000000000000000000000000000000000000000000000000000000008302000080887fffffffffffffff808203b642a056e81f171bcc55a6ff8345e692c0f86e5b48e01b996cadc001622fb5e363b421880102030405060708c0c0",
        "lastblockhash" : "0x581f5449bc6585e20153f8f7f315e42305dbfada4199e77f189432035c8930ca",
        "network" : "EIP158",
        "postState" : {
            "0xa94f5374fce5edbc8e2a8697c15331677e6ebf0b" : {
                "balance" : "0xfffffffffffffffffffffffffffd722a",
                "code" : "",
                "nonce" : "0x01",
                "storage" : {
                }
            },
            "0xaaaf5374fce5edbc8e2a8697c15331677e6ebf0b" : {
                "balance" : "0x1b58",
                "code" : "",
                "nonce" : "0x00",
                "storage" : {
                }
            },
            "0xb94f5374fce5edbc8e2a8697c15331677e6ebf0b" : {
                "balance" : "0x4563918244f68dcb",
                "code" : "",
                "nonce" : "0x00",
                "storage" : {
                }
            },
            "0xbbbf5374fce5edbc8e2a8697c15331677e6ebf0b" : {
                "balance" : "0x040a",
                "code" : "0x6001600054016000556000600060006000600073bbbf5374fce5edbc8e2a8697c15331677e6ebf0b620186a060005402600101f16001556103e860005402600101600255",
                "nonce" : "0x00",
                "storage" : {
                    "0x00" : "0x01",
                    "0x02" : "0x03e9"
                }
            }
        },
        "pre" : {
            "0xa94f5374fce5edbc8e2a8697c15331677e6ebf0b" : {
                "balance" : "0xffffffffffffffffffffffffffffffff",
                "code" : "",
                "nonce" : "0x00",
                "storage" : {
                }
            },
            "0xaaaf5374fce5edbc8e2a8697c15331677e6ebf0b" : {
                "balance" : "0x1b58",
                "code" : "",
                "nonce" : "0x00",
                "storage" : {
                }
            },
            "0xbbbf5374fce5edbc8e2a8697c15331677e6ebf0b" : {
                "balance" : "0x0400",
                "code" : "0x6001600054016000556000600060006000600073bbbf5374fce5edbc8e2a8697c15331677e6ebf0b620186a060005402600101f16001556103e860005402600101600255",
                "nonce" : "0x00",
                "storage" : {
                }
            }
        }
    },
    "CallLoseGasOOG_d0g0v0_Frontier" : {
        "_info" : {
            "comment" : "",
            "filledwith" : "cpp-1.3.0+commit.6e0ce939.Linux.g++",
            "lllcversion" : "Version: 0.4.18-develop.2017.9.25+commit.a72237f2.Linux.g++",
            "source" : "src/BlockchainTestsFiller/GeneralStateTests/stCallCreateCallCodeTest/CallLoseGasOOG_d0g0v0Filler.json",
            "sourceHash" : "353798a3c4ffa6658b4422296e7b2f947bf8f10b29c2b52515a25f3ddadef680"
        },
        "blocks" : [
            {
                "blockHeader" : {
                    "bloom" : "0x00000000000000000000000000000000000000000000000000000000000000000000000000000000000000000000000000000000000000000000000000000000000000000000000000000000000000000000000000000000000000000000000000000000000000000000000000000000000000000000000000000000000000000000000000000000000000000000000000000000000000000000000000000000000000000000000000000000000000000000000000000000000000000000000000000000000000000000000000000000000000000000000000000000000000000000000000000000000000000000000000000000000000000000000000000000",
                    "coinbase" : "0xb94f5374fce5edbc8e2a8697c15331677e6ebf0b",
                    "difficulty" : "0x020000",
                    "extraData" : "",
                    "gasLimit" : "0x7fffffffffffffff",
                    "gasUsed" : "0x028975",
                    "hash" : "0xc15993a1782d8c7c143cf9b0a64059445c8cbbc3245cf634842406a2c3d4f99e",
                    "mixHash" : "0x5cd6d3f179f7c7c6374efa66afdb2064840a87d53d754a1f88042f6d5a0dde3e",
                    "nonce" : "0x2c6bbff48aad6ebe",
                    "number" : "0x01",
                    "parentHash" : "0xeccee847cf727082ca35a74cf60b43c58acf0a050b9012529d5d6ed3ab753d63",
                    "receiptTrie" : "0x6efccba8b9b67d77a0296a0b37203bd902246f6315ee52f187b2d5220e588544",
                    "stateRoot" : "0xda1bce285ec7accdaf98351d982af95ee0d659b055eb924756747749540ec2f6",
                    "timestamp" : "0x03e8",
                    "transactionsTrie" : "0x6225be0edd688cfb6cd0ce8477be236f0d21173b3d261f955a48e3c7c1552d86",
                    "uncleHash" : "0x1dcc4de8dec75d7aab85b567b6ccd41ad312451b948a7413f0a142fd40d49347"
                },
                "rlp" : "0xf9026af901fda0eccee847cf727082ca35a74cf60b43c58acf0a050b9012529d5d6ed3ab753d63a01dcc4de8dec75d7aab85b567b6ccd41ad312451b948a7413f0a142fd40d4934794b94f5374fce5edbc8e2a8697c15331677e6ebf0ba0da1bce285ec7accdaf98351d982af95ee0d659b055eb924756747749540ec2f6a06225be0edd688cfb6cd0ce8477be236f0d21173b3d261f955a48e3c7c1552d86a06efccba8b9b67d77a0296a0b37203bd902246f6315ee52f187b2d5220e588544b90100000000000000000000000000000000000000000000000000000000000000000000000000000000000000000000000000000000000000000000000000000000000000000000000000000000000000000000000000000000000000000000000000000000000000000000000000000000000000000000000000000000000000000000000000000000000000000000000000000000000000000000000000000000000000000000000000000000000000000000000000000000000000000000000000000000000000000000000000000000000000000000000000000000000000000000000000000000000000000000000000000000000000000000000000000000008302000001887fffffffffffffff830289758203e880a05cd6d3f179f7c7c6374efa66afdb2064840a87d53d754a1f88042f6d5a0dde3e882c6bbff48aad6ebef867f8658001887fffffffffffffff94bbbf5374fce5edbc8e2a8697c15331677e6ebf0b0a801ca07c8b2f6209dca21f5254e6ed96210edcd5cfcf486c323728021ecfb3f281284aa00e439853dadcc15c198e9849f635b6ec8f308f58bae809b84245ccb2d5afa4ecc0",
                "transactions" : [
                    {
                        "data" : "",
                        "gasLimit" : "0x7fffffffffffffff",
                        "gasPrice" : "0x01",
                        "nonce" : "0x00",
                        "r" : "0x7c8b2f6209dca21f5254e6ed96210edcd5cfcf486c323728021ecfb3f281284a",
                        "s" : "0x0e439853dadcc15c198e9849f635b6ec8f308f58bae809b84245ccb2d5afa4ec",
                        "to" : "0xbbbf5374fce5edbc8e2a8697c15331677e6ebf0b",
                        "v" : "0x1c",
                        "value" : "0x0a"
                    }
                ],
                "uncleHeaders" : [
                ]
            }
        ],
        "genesisBlockHeader" : {
            "bloom" : "0x00000000000000000000000000000000000000000000000000000000000000000000000000000000000000000000000000000000000000000000000000000000000000000000000000000000000000000000000000000000000000000000000000000000000000000000000000000000000000000000000000000000000000000000000000000000000000000000000000000000000000000000000000000000000000000000000000000000000000000000000000000000000000000000000000000000000000000000000000000000000000000000000000000000000000000000000000000000000000000000000000000000000000000000000000000000",
            "coinbase" : "0xb94f5374fce5edbc8e2a8697c15331677e6ebf0b",
            "difficulty" : "0x020000",
            "extraData" : "0x42",
            "gasLimit" : "0x7fffffffffffffff",
            "gasUsed" : "0x00",
            "hash" : "0xeccee847cf727082ca35a74cf60b43c58acf0a050b9012529d5d6ed3ab753d63",
            "mixHash" : "0x56e81f171bcc55a6ff8345e692c0f86e5b48e01b996cadc001622fb5e363b421",
            "nonce" : "0x0102030405060708",
            "number" : "0x00",
            "parentHash" : "0x0000000000000000000000000000000000000000000000000000000000000000",
            "receiptTrie" : "0x56e81f171bcc55a6ff8345e692c0f86e5b48e01b996cadc001622fb5e363b421",
            "stateRoot" : "0x3774f9a9e90022b813780077ec2d1464983b5ffe74c332103f9b89b823554618",
            "timestamp" : "0x03b6",
            "transactionsTrie" : "0x56e81f171bcc55a6ff8345e692c0f86e5b48e01b996cadc001622fb5e363b421",
            "uncleHash" : "0x1dcc4de8dec75d7aab85b567b6ccd41ad312451b948a7413f0a142fd40d49347"
        },
        "genesisRLP" : "0xf901fff901faa00000000000000000000000000000000000000000000000000000000000000000a01dcc4de8dec75d7aab85b567b6ccd41ad312451b948a7413f0a142fd40d4934794b94f5374fce5edbc8e2a8697c15331677e6ebf0ba03774f9a9e90022b813780077ec2d1464983b5ffe74c332103f9b89b823554618a056e81f171bcc55a6ff8345e692c0f86e5b48e01b996cadc001622fb5e363b421a056e81f171bcc55a6ff8345e692c0f86e5b48e01b996cadc001622fb5e363b421b90100000000000000000000000000000000000000000000000000000000000000000000000000000000000000000000000000000000000000000000000000000000000000000000000000000000000000000000000000000000000000000000000000000000000000000000000000000000000000000000000000000000000000000000000000000000000000000000000000000000000000000000000000000000000000000000000000000000000000000000000000000000000000000000000000000000000000000000000000000000000000000000000000000000000000000000000000000000000000000000000000000000000000000000000000000000008302000080887fffffffffffffff808203b642a056e81f171bcc55a6ff8345e692c0f86e5b48e01b996cadc001622fb5e363b421880102030405060708c0c0",
        "lastblockhash" : "0xc15993a1782d8c7c143cf9b0a64059445c8cbbc3245cf634842406a2c3d4f99e",
        "network" : "Frontier",
        "postState" : {
            "0xa94f5374fce5edbc8e2a8697c15331677e6ebf0b" : {
                "balance" : "0xfffffffffffffffffffffffffffd7680",
                "code" : "",
                "nonce" : "0x01",
                "storage" : {
                }
            },
            "0xaaaf5374fce5edbc8e2a8697c15331677e6ebf0b" : {
                "balance" : "0x1b58",
                "code" : "",
                "nonce" : "0x00",
                "storage" : {
                }
            },
            "0xb94f5374fce5edbc8e2a8697c15331677e6ebf0b" : {
                "balance" : "0x4563918244f68975",
                "code" : "",
                "nonce" : "0x00",
                "storage" : {
                }
            },
            "0xbbbf5374fce5edbc8e2a8697c15331677e6ebf0b" : {
                "balance" : "0x040a",
                "code" : "0x6001600054016000556000600060006000600073bbbf5374fce5edbc8e2a8697c15331677e6ebf0b620186a060005402600101f16001556103e860005402600101600255",
                "nonce" : "0x00",
                "storage" : {
                    "0x00" : "0x01",
                    "0x02" : "0x03e9"
                }
            }
        },
        "pre" : {
            "0xa94f5374fce5edbc8e2a8697c15331677e6ebf0b" : {
                "balance" : "0xffffffffffffffffffffffffffffffff",
                "code" : "",
                "nonce" : "0x00",
                "storage" : {
                }
            },
            "0xaaaf5374fce5edbc8e2a8697c15331677e6ebf0b" : {
                "balance" : "0x1b58",
                "code" : "",
                "nonce" : "0x00",
                "storage" : {
                }
            },
            "0xbbbf5374fce5edbc8e2a8697c15331677e6ebf0b" : {
                "balance" : "0x0400",
                "code" : "0x6001600054016000556000600060006000600073bbbf5374fce5edbc8e2a8697c15331677e6ebf0b620186a060005402600101f16001556103e860005402600101600255",
                "nonce" : "0x00",
                "storage" : {
                }
            }
        }
    },
    "CallLoseGasOOG_d0g0v0_Homestead" : {
        "_info" : {
            "comment" : "",
            "filledwith" : "cpp-1.3.0+commit.6e0ce939.Linux.g++",
            "lllcversion" : "Version: 0.4.18-develop.2017.9.25+commit.a72237f2.Linux.g++",
            "source" : "src/BlockchainTestsFiller/GeneralStateTests/stCallCreateCallCodeTest/CallLoseGasOOG_d0g0v0Filler.json",
            "sourceHash" : "353798a3c4ffa6658b4422296e7b2f947bf8f10b29c2b52515a25f3ddadef680"
        },
        "blocks" : [
            {
                "blockHeader" : {
                    "bloom" : "0x00000000000000000000000000000000000000000000000000000000000000000000000000000000000000000000000000000000000000000000000000000000000000000000000000000000000000000000000000000000000000000000000000000000000000000000000000000000000000000000000000000000000000000000000000000000000000000000000000000000000000000000000000000000000000000000000000000000000000000000000000000000000000000000000000000000000000000000000000000000000000000000000000000000000000000000000000000000000000000000000000000000000000000000000000000000",
                    "coinbase" : "0xb94f5374fce5edbc8e2a8697c15331677e6ebf0b",
                    "difficulty" : "0x020000",
                    "extraData" : "",
                    "gasLimit" : "0x7fffffffffffffff",
                    "gasUsed" : "0x028975",
                    "hash" : "0x474294ef74b8612bec183e248442cd1f08c162255349b890fac7cda8de6942db",
                    "mixHash" : "0x4c4293386ccf74dcacfcca11f47d0e4788e298790cf8492d9c85aaa8abb507b3",
                    "nonce" : "0x66401df09c427a22",
                    "number" : "0x01",
                    "parentHash" : "0xeccee847cf727082ca35a74cf60b43c58acf0a050b9012529d5d6ed3ab753d63",
                    "receiptTrie" : "0x6efccba8b9b67d77a0296a0b37203bd902246f6315ee52f187b2d5220e588544",
                    "stateRoot" : "0xda1bce285ec7accdaf98351d982af95ee0d659b055eb924756747749540ec2f6",
                    "timestamp" : "0x03e8",
                    "transactionsTrie" : "0x6225be0edd688cfb6cd0ce8477be236f0d21173b3d261f955a48e3c7c1552d86",
                    "uncleHash" : "0x1dcc4de8dec75d7aab85b567b6ccd41ad312451b948a7413f0a142fd40d49347"
                },
                "rlp" : "0xf9026af901fda0eccee847cf727082ca35a74cf60b43c58acf0a050b9012529d5d6ed3ab753d63a01dcc4de8dec75d7aab85b567b6ccd41ad312451b948a7413f0a142fd40d4934794b94f5374fce5edbc8e2a8697c15331677e6ebf0ba0da1bce285ec7accdaf98351d982af95ee0d659b055eb924756747749540ec2f6a06225be0edd688cfb6cd0ce8477be236f0d21173b3d261f955a48e3c7c1552d86a06efccba8b9b67d77a0296a0b37203bd902246f6315ee52f187b2d5220e588544b90100000000000000000000000000000000000000000000000000000000000000000000000000000000000000000000000000000000000000000000000000000000000000000000000000000000000000000000000000000000000000000000000000000000000000000000000000000000000000000000000000000000000000000000000000000000000000000000000000000000000000000000000000000000000000000000000000000000000000000000000000000000000000000000000000000000000000000000000000000000000000000000000000000000000000000000000000000000000000000000000000000000000000000000000000000000008302000001887fffffffffffffff830289758203e880a04c4293386ccf74dcacfcca11f47d0e4788e298790cf8492d9c85aaa8abb507b38866401df09c427a22f867f8658001887fffffffffffffff94bbbf5374fce5edbc8e2a8697c15331677e6ebf0b0a801ca07c8b2f6209dca21f5254e6ed96210edcd5cfcf486c323728021ecfb3f281284aa00e439853dadcc15c198e9849f635b6ec8f308f58bae809b84245ccb2d5afa4ecc0",
                "transactions" : [
                    {
                        "data" : "",
                        "gasLimit" : "0x7fffffffffffffff",
                        "gasPrice" : "0x01",
                        "nonce" : "0x00",
                        "r" : "0x7c8b2f6209dca21f5254e6ed96210edcd5cfcf486c323728021ecfb3f281284a",
                        "s" : "0x0e439853dadcc15c198e9849f635b6ec8f308f58bae809b84245ccb2d5afa4ec",
                        "to" : "0xbbbf5374fce5edbc8e2a8697c15331677e6ebf0b",
                        "v" : "0x1c",
                        "value" : "0x0a"
                    }
                ],
                "uncleHeaders" : [
                ]
            }
        ],
        "genesisBlockHeader" : {
            "bloom" : "0x00000000000000000000000000000000000000000000000000000000000000000000000000000000000000000000000000000000000000000000000000000000000000000000000000000000000000000000000000000000000000000000000000000000000000000000000000000000000000000000000000000000000000000000000000000000000000000000000000000000000000000000000000000000000000000000000000000000000000000000000000000000000000000000000000000000000000000000000000000000000000000000000000000000000000000000000000000000000000000000000000000000000000000000000000000000",
            "coinbase" : "0xb94f5374fce5edbc8e2a8697c15331677e6ebf0b",
            "difficulty" : "0x020000",
            "extraData" : "0x42",
            "gasLimit" : "0x7fffffffffffffff",
            "gasUsed" : "0x00",
            "hash" : "0xeccee847cf727082ca35a74cf60b43c58acf0a050b9012529d5d6ed3ab753d63",
            "mixHash" : "0x56e81f171bcc55a6ff8345e692c0f86e5b48e01b996cadc001622fb5e363b421",
            "nonce" : "0x0102030405060708",
            "number" : "0x00",
            "parentHash" : "0x0000000000000000000000000000000000000000000000000000000000000000",
            "receiptTrie" : "0x56e81f171bcc55a6ff8345e692c0f86e5b48e01b996cadc001622fb5e363b421",
            "stateRoot" : "0x3774f9a9e90022b813780077ec2d1464983b5ffe74c332103f9b89b823554618",
            "timestamp" : "0x03b6",
            "transactionsTrie" : "0x56e81f171bcc55a6ff8345e692c0f86e5b48e01b996cadc001622fb5e363b421",
            "uncleHash" : "0x1dcc4de8dec75d7aab85b567b6ccd41ad312451b948a7413f0a142fd40d49347"
        },
        "genesisRLP" : "0xf901fff901faa00000000000000000000000000000000000000000000000000000000000000000a01dcc4de8dec75d7aab85b567b6ccd41ad312451b948a7413f0a142fd40d4934794b94f5374fce5edbc8e2a8697c15331677e6ebf0ba03774f9a9e90022b813780077ec2d1464983b5ffe74c332103f9b89b823554618a056e81f171bcc55a6ff8345e692c0f86e5b48e01b996cadc001622fb5e363b421a056e81f171bcc55a6ff8345e692c0f86e5b48e01b996cadc001622fb5e363b421b90100000000000000000000000000000000000000000000000000000000000000000000000000000000000000000000000000000000000000000000000000000000000000000000000000000000000000000000000000000000000000000000000000000000000000000000000000000000000000000000000000000000000000000000000000000000000000000000000000000000000000000000000000000000000000000000000000000000000000000000000000000000000000000000000000000000000000000000000000000000000000000000000000000000000000000000000000000000000000000000000000000000000000000000000000000000008302000080887fffffffffffffff808203b642a056e81f171bcc55a6ff8345e692c0f86e5b48e01b996cadc001622fb5e363b421880102030405060708c0c0",
        "lastblockhash" : "0x474294ef74b8612bec183e248442cd1f08c162255349b890fac7cda8de6942db",
        "network" : "Homestead",
        "postState" : {
            "0xa94f5374fce5edbc8e2a8697c15331677e6ebf0b" : {
                "balance" : "0xfffffffffffffffffffffffffffd7680",
                "code" : "",
                "nonce" : "0x01",
                "storage" : {
                }
            },
            "0xaaaf5374fce5edbc8e2a8697c15331677e6ebf0b" : {
                "balance" : "0x1b58",
                "code" : "",
                "nonce" : "0x00",
                "storage" : {
                }
            },
            "0xb94f5374fce5edbc8e2a8697c15331677e6ebf0b" : {
                "balance" : "0x4563918244f68975",
                "code" : "",
                "nonce" : "0x00",
                "storage" : {
                }
            },
            "0xbbbf5374fce5edbc8e2a8697c15331677e6ebf0b" : {
                "balance" : "0x040a",
                "code" : "0x6001600054016000556000600060006000600073bbbf5374fce5edbc8e2a8697c15331677e6ebf0b620186a060005402600101f16001556103e860005402600101600255",
                "nonce" : "0x00",
                "storage" : {
                    "0x00" : "0x01",
                    "0x02" : "0x03e9"
                }
            }
        },
        "pre" : {
            "0xa94f5374fce5edbc8e2a8697c15331677e6ebf0b" : {
                "balance" : "0xffffffffffffffffffffffffffffffff",
                "code" : "",
                "nonce" : "0x00",
                "storage" : {
                }
            },
            "0xaaaf5374fce5edbc8e2a8697c15331677e6ebf0b" : {
                "balance" : "0x1b58",
                "code" : "",
                "nonce" : "0x00",
                "storage" : {
                }
            },
            "0xbbbf5374fce5edbc8e2a8697c15331677e6ebf0b" : {
                "balance" : "0x0400",
                "code" : "0x6001600054016000556000600060006000600073bbbf5374fce5edbc8e2a8697c15331677e6ebf0b620186a060005402600101f16001556103e860005402600101600255",
                "nonce" : "0x00",
                "storage" : {
                }
            }
        }
    }
}