{
    "createInitFail_OOGduringInit_d0g0v0_Byzantium" : {
        "_info" : {
            "comment" : "",
            "filledwith" : "cpp-1.3.0+commit.6e0ce939.Linux.g++",
            "lllcversion" : "Version: 0.4.18-develop.2017.9.25+commit.a72237f2.Linux.g++",
            "source" : "src/BlockchainTestsFiller/GeneralStateTests/stCallCreateCallCodeTest/createInitFail_OOGduringInit_d0g0v0Filler.json",
            "sourceHash" : "7b13bbbbd3ba94f7010246c98f06f24eeeab2890946066e1fa464795d50b302a"
        },
        "blocks" : [
            {
                "blockHeader" : {
                    "bloom" : "0x00000000000000000000000000000000000000000000000000000000000000000000000000000000000000000000000000000000000000000000000000000000000000000000000000000000000000000000000000000000000000000000000000000000000000000000000000000000000000000000000000000000000000000000000000000000000000000000000000000000000000000000000000000000000000000000000000000000000000000000000000000000000000000000000000000000000000000000000000000000000000000000000000000000000000000000000000000000000000000000000000000000000000000000000000000000",
                    "coinbase" : "0x2adc25665018aa1fe0e6bc666dac8fc2697ff9ba",
                    "difficulty" : "0x020000",
                    "extraData" : "",
                    "gasLimit" : "0x05f5e100",
                    "gasUsed" : "0xcf1d",
                    "hash" : "0x94bee91014f425ba51109bf0fbf46d5e10696aa88d161ada9ba63c0ee478501d",
                    "mixHash" : "0x85df4014958c062cd5807f88efc89132378b72cb5ff1bd56dfa3a775728d898d",
                    "nonce" : "0xd9d7c43fcd9730e8",
                    "number" : "0x01",
                    "parentHash" : "0x65ba0d89bc11a28186a4936b2babe8bc795caa700301fd4296408405169b4c2a",
                    "receiptTrie" : "0x00b8495dc39a1867756b3962d9316b90d7e98079aaa353df03c564f919ea4e81",
                    "stateRoot" : "0x6e2350a2158d4d013402ff76c151589280abd0727fb63d479dde3d9980bf8ce5",
                    "timestamp" : "0x03e8",
                    "transactionsTrie" : "0x11309db4993a5bca401d57cba6c8935a76825b48bf92f92c2ec8c6abd49145c3",
                    "uncleHash" : "0x1dcc4de8dec75d7aab85b567b6ccd41ad312451b948a7413f0a142fd40d49347"
                },
                "rlp" : "0xf90262f901f8a065ba0d89bc11a28186a4936b2babe8bc795caa700301fd4296408405169b4c2aa01dcc4de8dec75d7aab85b567b6ccd41ad312451b948a7413f0a142fd40d49347942adc25665018aa1fe0e6bc666dac8fc2697ff9baa06e2350a2158d4d013402ff76c151589280abd0727fb63d479dde3d9980bf8ce5a011309db4993a5bca401d57cba6c8935a76825b48bf92f92c2ec8c6abd49145c3a000b8495dc39a1867756b3962d9316b90d7e98079aaa353df03c564f919ea4e81b901000000000000000000000000000000000000000000000000000000000000000000000000000000000000000000000000000000000000000000000000000000000000000000000000000000000000000000000000000000000000000000000000000000000000000000000000000000000000000000000000000000000000000000000000000000000000000000000000000000000000000000000000000000000000000000000000000000000000000000000000000000000000000000000000000000000000000000000000000000000000000000000000000000000000000000000000000000000000000000000000000000000000000000000000000000000083020000018405f5e10082cf1d8203e880a085df4014958c062cd5807f88efc89132378b72cb5ff1bd56dfa3a775728d898d88d9d7c43fcd9730e8f864f862800182cf1d94095e7baea6a6c7c4c2dfeb977efac326af552d87830186a0801ca058292c95326dc6aa9439a010f5575311223728663a1e4e0fd0ae2774803557e7a0022b400032039b0f8d7454cdad95f811a1218468d216d8706c4a46297eb43a75c0",
                "transactions" : [
                    {
                        "data" : "",
                        "gasLimit" : "0xcf1d",
                        "gasPrice" : "0x01",
                        "nonce" : "0x00",
                        "r" : "0x58292c95326dc6aa9439a010f5575311223728663a1e4e0fd0ae2774803557e7",
                        "s" : "0x022b400032039b0f8d7454cdad95f811a1218468d216d8706c4a46297eb43a75",
                        "to" : "0x095e7baea6a6c7c4c2dfeb977efac326af552d87",
                        "v" : "0x1c",
                        "value" : "0x0186a0"
                    }
                ],
                "uncleHeaders" : [
                ]
            }
        ],
        "genesisBlockHeader" : {
            "bloom" : "0x00000000000000000000000000000000000000000000000000000000000000000000000000000000000000000000000000000000000000000000000000000000000000000000000000000000000000000000000000000000000000000000000000000000000000000000000000000000000000000000000000000000000000000000000000000000000000000000000000000000000000000000000000000000000000000000000000000000000000000000000000000000000000000000000000000000000000000000000000000000000000000000000000000000000000000000000000000000000000000000000000000000000000000000000000000000",
            "coinbase" : "0x2adc25665018aa1fe0e6bc666dac8fc2697ff9ba",
            "difficulty" : "0x020000",
            "extraData" : "0x42",
            "gasLimit" : "0x05f5e100",
            "gasUsed" : "0x00",
            "hash" : "0x65ba0d89bc11a28186a4936b2babe8bc795caa700301fd4296408405169b4c2a",
            "mixHash" : "0x56e81f171bcc55a6ff8345e692c0f86e5b48e01b996cadc001622fb5e363b421",
            "nonce" : "0x0102030405060708",
            "number" : "0x00",
            "parentHash" : "0x0000000000000000000000000000000000000000000000000000000000000000",
            "receiptTrie" : "0x56e81f171bcc55a6ff8345e692c0f86e5b48e01b996cadc001622fb5e363b421",
            "stateRoot" : "0xba26be8603c7a8dbae832d738290e9bcdbc83fadeea20a51073d09e51d4d3de9",
            "timestamp" : "0x03b6",
            "transactionsTrie" : "0x56e81f171bcc55a6ff8345e692c0f86e5b48e01b996cadc001622fb5e363b421",
            "uncleHash" : "0x1dcc4de8dec75d7aab85b567b6ccd41ad312451b948a7413f0a142fd40d49347"
        },
        "genesisRLP" : "0xf901fbf901f6a00000000000000000000000000000000000000000000000000000000000000000a01dcc4de8dec75d7aab85b567b6ccd41ad312451b948a7413f0a142fd40d49347942adc25665018aa1fe0e6bc666dac8fc2697ff9baa0ba26be8603c7a8dbae832d738290e9bcdbc83fadeea20a51073d09e51d4d3de9a056e81f171bcc55a6ff8345e692c0f86e5b48e01b996cadc001622fb5e363b421a056e81f171bcc55a6ff8345e692c0f86e5b48e01b996cadc001622fb5e363b421b901000000000000000000000000000000000000000000000000000000000000000000000000000000000000000000000000000000000000000000000000000000000000000000000000000000000000000000000000000000000000000000000000000000000000000000000000000000000000000000000000000000000000000000000000000000000000000000000000000000000000000000000000000000000000000000000000000000000000000000000000000000000000000000000000000000000000000000000000000000000000000000000000000000000000000000000000000000000000000000000000000000000000000000000000000000000083020000808405f5e100808203b642a056e81f171bcc55a6ff8345e692c0f86e5b48e01b996cadc001622fb5e363b421880102030405060708c0c0",
        "lastblockhash" : "0x94bee91014f425ba51109bf0fbf46d5e10696aa88d161ada9ba63c0ee478501d",
        "network" : "Byzantium",
        "postState" : {
            "0x095e7baea6a6c7c4c2dfeb977efac326af552d87" : {
                "balance" : "0x0de0b6b3a7640000",
                "code" : "0x605a600053600160006001f0ff",
                "nonce" : "0x00",
                "storage" : {
                }
            },
            "0x2adc25665018aa1fe0e6bc666dac8fc2697ff9ba" : {
                "balance" : "0x29a2241af62ccf1d",
                "code" : "",
                "nonce" : "0x00",
                "storage" : {
                }
            },
            "0xa94f5374fce5edbc8e2a8697c15331677e6ebf0b" : {
                "balance" : "0x0de0b6b3a76330e3",
                "code" : "",
                "nonce" : "0x01",
                "storage" : {
                }
            }
        },
        "pre" : {
            "0x095e7baea6a6c7c4c2dfeb977efac326af552d87" : {
                "balance" : "0x0de0b6b3a7640000",
                "code" : "0x605a600053600160006001f0ff",
                "nonce" : "0x00",
                "storage" : {
                }
            },
            "0xa94f5374fce5edbc8e2a8697c15331677e6ebf0b" : {
                "balance" : "0x0de0b6b3a7640000",
                "code" : "",
                "nonce" : "0x00",
                "storage" : {
                }
            }
        }
    },
    "createInitFail_OOGduringInit_d0g0v0_EIP150" : {
        "_info" : {
            "comment" : "",
            "filledwith" : "cpp-1.3.0+commit.6e0ce939.Linux.g++",
            "lllcversion" : "Version: 0.4.18-develop.2017.9.25+commit.a72237f2.Linux.g++",
            "source" : "src/BlockchainTestsFiller/GeneralStateTests/stCallCreateCallCodeTest/createInitFail_OOGduringInit_d0g0v0Filler.json",
            "sourceHash" : "7b13bbbbd3ba94f7010246c98f06f24eeeab2890946066e1fa464795d50b302a"
        },
        "blocks" : [
            {
                "blockHeader" : {
                    "bloom" : "0x00000000000000000000000000000000000000000000000000000000000000000000000000000000000000000000000000000000000000000000000000000000000000000000000000000000000000000000000000000000000000000000000000000000000000000000000000000000000000000000000000000000000000000000000000000000000000000000000000000000000000000000000000000000000000000000000000000000000000000000000000000000000000000000000000000000000000000000000000000000000000000000000000000000000000000000000000000000000000000000000000000000000000000000000000000000",
                    "coinbase" : "0x2adc25665018aa1fe0e6bc666dac8fc2697ff9ba",
                    "difficulty" : "0x020000",
                    "extraData" : "",
                    "gasLimit" : "0x05f5e100",
                    "gasUsed" : "0xcf1d",
                    "hash" : "0xccd05ab3a37e5fc60c5752e8583db12499672bb4f4879b940a69ef21862fb0b9",
                    "mixHash" : "0x004e9b18e1c8d4836879f3a01b15e4242baca4ca6833658afbfaa2615f964177",
                    "nonce" : "0x8f8825183aca2508",
                    "number" : "0x01",
                    "parentHash" : "0x65ba0d89bc11a28186a4936b2babe8bc795caa700301fd4296408405169b4c2a",
                    "receiptTrie" : "0x737a5dbc3c18897a7f7e9206228fae99838c01e328d6f2f3a6a62c7ff1788451",
                    "stateRoot" : "0x4b4e4993a4524e8ce1b5fa19bd4fe532d9cc4437a9213260d64fa350203b0bf2",
                    "timestamp" : "0x03e8",
                    "transactionsTrie" : "0x11309db4993a5bca401d57cba6c8935a76825b48bf92f92c2ec8c6abd49145c3",
                    "uncleHash" : "0x1dcc4de8dec75d7aab85b567b6ccd41ad312451b948a7413f0a142fd40d49347"
                },
                "rlp" : "0xf90262f901f8a065ba0d89bc11a28186a4936b2babe8bc795caa700301fd4296408405169b4c2aa01dcc4de8dec75d7aab85b567b6ccd41ad312451b948a7413f0a142fd40d49347942adc25665018aa1fe0e6bc666dac8fc2697ff9baa04b4e4993a4524e8ce1b5fa19bd4fe532d9cc4437a9213260d64fa350203b0bf2a011309db4993a5bca401d57cba6c8935a76825b48bf92f92c2ec8c6abd49145c3a0737a5dbc3c18897a7f7e9206228fae99838c01e328d6f2f3a6a62c7ff1788451b901000000000000000000000000000000000000000000000000000000000000000000000000000000000000000000000000000000000000000000000000000000000000000000000000000000000000000000000000000000000000000000000000000000000000000000000000000000000000000000000000000000000000000000000000000000000000000000000000000000000000000000000000000000000000000000000000000000000000000000000000000000000000000000000000000000000000000000000000000000000000000000000000000000000000000000000000000000000000000000000000000000000000000000000000000000000083020000018405f5e10082cf1d8203e880a0004e9b18e1c8d4836879f3a01b15e4242baca4ca6833658afbfaa2615f964177888f8825183aca2508f864f862800182cf1d94095e7baea6a6c7c4c2dfeb977efac326af552d87830186a0801ca058292c95326dc6aa9439a010f5575311223728663a1e4e0fd0ae2774803557e7a0022b400032039b0f8d7454cdad95f811a1218468d216d8706c4a46297eb43a75c0",
                "transactions" : [
                    {
                        "data" : "",
                        "gasLimit" : "0xcf1d",
                        "gasPrice" : "0x01",
                        "nonce" : "0x00",
                        "r" : "0x58292c95326dc6aa9439a010f5575311223728663a1e4e0fd0ae2774803557e7",
                        "s" : "0x022b400032039b0f8d7454cdad95f811a1218468d216d8706c4a46297eb43a75",
                        "to" : "0x095e7baea6a6c7c4c2dfeb977efac326af552d87",
                        "v" : "0x1c",
                        "value" : "0x0186a0"
                    }
                ],
                "uncleHeaders" : [
                ]
            }
        ],
        "genesisBlockHeader" : {
            "bloom" : "0x00000000000000000000000000000000000000000000000000000000000000000000000000000000000000000000000000000000000000000000000000000000000000000000000000000000000000000000000000000000000000000000000000000000000000000000000000000000000000000000000000000000000000000000000000000000000000000000000000000000000000000000000000000000000000000000000000000000000000000000000000000000000000000000000000000000000000000000000000000000000000000000000000000000000000000000000000000000000000000000000000000000000000000000000000000000",
            "coinbase" : "0x2adc25665018aa1fe0e6bc666dac8fc2697ff9ba",
            "difficulty" : "0x020000",
            "extraData" : "0x42",
            "gasLimit" : "0x05f5e100",
            "gasUsed" : "0x00",
            "hash" : "0x65ba0d89bc11a28186a4936b2babe8bc795caa700301fd4296408405169b4c2a",
            "mixHash" : "0x56e81f171bcc55a6ff8345e692c0f86e5b48e01b996cadc001622fb5e363b421",
            "nonce" : "0x0102030405060708",
            "number" : "0x00",
            "parentHash" : "0x0000000000000000000000000000000000000000000000000000000000000000",
            "receiptTrie" : "0x56e81f171bcc55a6ff8345e692c0f86e5b48e01b996cadc001622fb5e363b421",
            "stateRoot" : "0xba26be8603c7a8dbae832d738290e9bcdbc83fadeea20a51073d09e51d4d3de9",
            "timestamp" : "0x03b6",
            "transactionsTrie" : "0x56e81f171bcc55a6ff8345e692c0f86e5b48e01b996cadc001622fb5e363b421",
            "uncleHash" : "0x1dcc4de8dec75d7aab85b567b6ccd41ad312451b948a7413f0a142fd40d49347"
        },
        "genesisRLP" : "0xf901fbf901f6a00000000000000000000000000000000000000000000000000000000000000000a01dcc4de8dec75d7aab85b567b6ccd41ad312451b948a7413f0a142fd40d49347942adc25665018aa1fe0e6bc666dac8fc2697ff9baa0ba26be8603c7a8dbae832d738290e9bcdbc83fadeea20a51073d09e51d4d3de9a056e81f171bcc55a6ff8345e692c0f86e5b48e01b996cadc001622fb5e363b421a056e81f171bcc55a6ff8345e692c0f86e5b48e01b996cadc001622fb5e363b421b901000000000000000000000000000000000000000000000000000000000000000000000000000000000000000000000000000000000000000000000000000000000000000000000000000000000000000000000000000000000000000000000000000000000000000000000000000000000000000000000000000000000000000000000000000000000000000000000000000000000000000000000000000000000000000000000000000000000000000000000000000000000000000000000000000000000000000000000000000000000000000000000000000000000000000000000000000000000000000000000000000000000000000000000000000000000083020000808405f5e100808203b642a056e81f171bcc55a6ff8345e692c0f86e5b48e01b996cadc001622fb5e363b421880102030405060708c0c0",
        "lastblockhash" : "0xccd05ab3a37e5fc60c5752e8583db12499672bb4f4879b940a69ef21862fb0b9",
        "network" : "EIP150",
        "postState" : {
            "0x095e7baea6a6c7c4c2dfeb977efac326af552d87" : {
                "balance" : "0x0de0b6b3a7640000",
                "code" : "0x605a600053600160006001f0ff",
                "nonce" : "0x00",
                "storage" : {
                }
            },
            "0x2adc25665018aa1fe0e6bc666dac8fc2697ff9ba" : {
                "balance" : "0x4563918244f4cf1d",
                "code" : "",
                "nonce" : "0x00",
                "storage" : {
                }
            },
            "0xa94f5374fce5edbc8e2a8697c15331677e6ebf0b" : {
                "balance" : "0x0de0b6b3a76330e3",
                "code" : "",
                "nonce" : "0x01",
                "storage" : {
                }
            }
        },
        "pre" : {
            "0x095e7baea6a6c7c4c2dfeb977efac326af552d87" : {
                "balance" : "0x0de0b6b3a7640000",
                "code" : "0x605a600053600160006001f0ff",
                "nonce" : "0x00",
                "storage" : {
                }
            },
            "0xa94f5374fce5edbc8e2a8697c15331677e6ebf0b" : {
                "balance" : "0x0de0b6b3a7640000",
                "code" : "",
                "nonce" : "0x00",
                "storage" : {
                }
            }
        }
    },
    "createInitFail_OOGduringInit_d0g0v0_EIP158" : {
        "_info" : {
            "comment" : "",
            "filledwith" : "cpp-1.3.0+commit.6e0ce939.Linux.g++",
            "lllcversion" : "Version: 0.4.18-develop.2017.9.25+commit.a72237f2.Linux.g++",
            "source" : "src/BlockchainTestsFiller/GeneralStateTests/stCallCreateCallCodeTest/createInitFail_OOGduringInit_d0g0v0Filler.json",
            "sourceHash" : "7b13bbbbd3ba94f7010246c98f06f24eeeab2890946066e1fa464795d50b302a"
        },
        "blocks" : [
            {
                "blockHeader" : {
                    "bloom" : "0x00000000000000000000000000000000000000000000000000000000000000000000000000000000000000000000000000000000000000000000000000000000000000000000000000000000000000000000000000000000000000000000000000000000000000000000000000000000000000000000000000000000000000000000000000000000000000000000000000000000000000000000000000000000000000000000000000000000000000000000000000000000000000000000000000000000000000000000000000000000000000000000000000000000000000000000000000000000000000000000000000000000000000000000000000000000",
                    "coinbase" : "0x2adc25665018aa1fe0e6bc666dac8fc2697ff9ba",
                    "difficulty" : "0x020000",
                    "extraData" : "",
                    "gasLimit" : "0x05f5e100",
                    "gasUsed" : "0xcf1d",
                    "hash" : "0x93091d335ee1b3c8411286209939862081eeeec647fee34c4359a5c81ad5720e",
                    "mixHash" : "0x75ec9e004578582ee8d9fcb467efa01ed4b80ea489aa89cb41f968d49a76e2e1",
                    "nonce" : "0x31d44bffab03d135",
                    "number" : "0x01",
                    "parentHash" : "0x65ba0d89bc11a28186a4936b2babe8bc795caa700301fd4296408405169b4c2a",
                    "receiptTrie" : "0x737a5dbc3c18897a7f7e9206228fae99838c01e328d6f2f3a6a62c7ff1788451",
                    "stateRoot" : "0x4b4e4993a4524e8ce1b5fa19bd4fe532d9cc4437a9213260d64fa350203b0bf2",
                    "timestamp" : "0x03e8",
                    "transactionsTrie" : "0x11309db4993a5bca401d57cba6c8935a76825b48bf92f92c2ec8c6abd49145c3",
                    "uncleHash" : "0x1dcc4de8dec75d7aab85b567b6ccd41ad312451b948a7413f0a142fd40d49347"
                },
                "rlp" : "0xf90262f901f8a065ba0d89bc11a28186a4936b2babe8bc795caa700301fd4296408405169b4c2aa01dcc4de8dec75d7aab85b567b6ccd41ad312451b948a7413f0a142fd40d49347942adc25665018aa1fe0e6bc666dac8fc2697ff9baa04b4e4993a4524e8ce1b5fa19bd4fe532d9cc4437a9213260d64fa350203b0bf2a011309db4993a5bca401d57cba6c8935a76825b48bf92f92c2ec8c6abd49145c3a0737a5dbc3c18897a7f7e9206228fae99838c01e328d6f2f3a6a62c7ff1788451b901000000000000000000000000000000000000000000000000000000000000000000000000000000000000000000000000000000000000000000000000000000000000000000000000000000000000000000000000000000000000000000000000000000000000000000000000000000000000000000000000000000000000000000000000000000000000000000000000000000000000000000000000000000000000000000000000000000000000000000000000000000000000000000000000000000000000000000000000000000000000000000000000000000000000000000000000000000000000000000000000000000000000000000000000000000000083020000018405f5e10082cf1d8203e880a075ec9e004578582ee8d9fcb467efa01ed4b80ea489aa89cb41f968d49a76e2e18831d44bffab03d135f864f862800182cf1d94095e7baea6a6c7c4c2dfeb977efac326af552d87830186a0801ca058292c95326dc6aa9439a010f5575311223728663a1e4e0fd0ae2774803557e7a0022b400032039b0f8d7454cdad95f811a1218468d216d8706c4a46297eb43a75c0",
                "transactions" : [
                    {
                        "data" : "",
                        "gasLimit" : "0xcf1d",
                        "gasPrice" : "0x01",
                        "nonce" : "0x00",
                        "r" : "0x58292c95326dc6aa9439a010f5575311223728663a1e4e0fd0ae2774803557e7",
                        "s" : "0x022b400032039b0f8d7454cdad95f811a1218468d216d8706c4a46297eb43a75",
                        "to" : "0x095e7baea6a6c7c4c2dfeb977efac326af552d87",
                        "v" : "0x1c",
                        "value" : "0x0186a0"
                    }
                ],
                "uncleHeaders" : [
                ]
            }
        ],
        "genesisBlockHeader" : {
            "bloom" : "0x00000000000000000000000000000000000000000000000000000000000000000000000000000000000000000000000000000000000000000000000000000000000000000000000000000000000000000000000000000000000000000000000000000000000000000000000000000000000000000000000000000000000000000000000000000000000000000000000000000000000000000000000000000000000000000000000000000000000000000000000000000000000000000000000000000000000000000000000000000000000000000000000000000000000000000000000000000000000000000000000000000000000000000000000000000000",
            "coinbase" : "0x2adc25665018aa1fe0e6bc666dac8fc2697ff9ba",
            "difficulty" : "0x020000",
            "extraData" : "0x42",
            "gasLimit" : "0x05f5e100",
            "gasUsed" : "0x00",
            "hash" : "0x65ba0d89bc11a28186a4936b2babe8bc795caa700301fd4296408405169b4c2a",
            "mixHash" : "0x56e81f171bcc55a6ff8345e692c0f86e5b48e01b996cadc001622fb5e363b421",
            "nonce" : "0x0102030405060708",
            "number" : "0x00",
            "parentHash" : "0x0000000000000000000000000000000000000000000000000000000000000000",
            "receiptTrie" : "0x56e81f171bcc55a6ff8345e692c0f86e5b48e01b996cadc001622fb5e363b421",
            "stateRoot" : "0xba26be8603c7a8dbae832d738290e9bcdbc83fadeea20a51073d09e51d4d3de9",
            "timestamp" : "0x03b6",
            "transactionsTrie" : "0x56e81f171bcc55a6ff8345e692c0f86e5b48e01b996cadc001622fb5e363b421",
            "uncleHash" : "0x1dcc4de8dec75d7aab85b567b6ccd41ad312451b948a7413f0a142fd40d49347"
        },
        "genesisRLP" : "0xf901fbf901f6a00000000000000000000000000000000000000000000000000000000000000000a01dcc4de8dec75d7aab85b567b6ccd41ad312451b948a7413f0a142fd40d49347942adc25665018aa1fe0e6bc666dac8fc2697ff9baa0ba26be8603c7a8dbae832d738290e9bcdbc83fadeea20a51073d09e51d4d3de9a056e81f171bcc55a6ff8345e692c0f86e5b48e01b996cadc001622fb5e363b421a056e81f171bcc55a6ff8345e692c0f86e5b48e01b996cadc001622fb5e363b421b901000000000000000000000000000000000000000000000000000000000000000000000000000000000000000000000000000000000000000000000000000000000000000000000000000000000000000000000000000000000000000000000000000000000000000000000000000000000000000000000000000000000000000000000000000000000000000000000000000000000000000000000000000000000000000000000000000000000000000000000000000000000000000000000000000000000000000000000000000000000000000000000000000000000000000000000000000000000000000000000000000000000000000000000000000000000083020000808405f5e100808203b642a056e81f171bcc55a6ff8345e692c0f86e5b48e01b996cadc001622fb5e363b421880102030405060708c0c0",
        "lastblockhash" : "0x93091d335ee1b3c8411286209939862081eeeec647fee34c4359a5c81ad5720e",
        "network" : "EIP158",
        "postState" : {
            "0x095e7baea6a6c7c4c2dfeb977efac326af552d87" : {
                "balance" : "0x0de0b6b3a7640000",
                "code" : "0x605a600053600160006001f0ff",
                "nonce" : "0x00",
                "storage" : {
                }
            },
            "0x2adc25665018aa1fe0e6bc666dac8fc2697ff9ba" : {
                "balance" : "0x4563918244f4cf1d",
                "code" : "",
                "nonce" : "0x00",
                "storage" : {
                }
            },
            "0xa94f5374fce5edbc8e2a8697c15331677e6ebf0b" : {
                "balance" : "0x0de0b6b3a76330e3",
                "code" : "",
                "nonce" : "0x01",
                "storage" : {
                }
            }
        },
        "pre" : {
            "0x095e7baea6a6c7c4c2dfeb977efac326af552d87" : {
                "balance" : "0x0de0b6b3a7640000",
                "code" : "0x605a600053600160006001f0ff",
                "nonce" : "0x00",
                "storage" : {
                }
            },
            "0xa94f5374fce5edbc8e2a8697c15331677e6ebf0b" : {
                "balance" : "0x0de0b6b3a7640000",
                "code" : "",
                "nonce" : "0x00",
                "storage" : {
                }
            }
        }
    },
    "createInitFail_OOGduringInit_d0g0v0_Frontier" : {
        "_info" : {
            "comment" : "",
            "filledwith" : "cpp-1.3.0+commit.6e0ce939.Linux.g++",
            "lllcversion" : "Version: 0.4.18-develop.2017.9.25+commit.a72237f2.Linux.g++",
            "source" : "src/BlockchainTestsFiller/GeneralStateTests/stCallCreateCallCodeTest/createInitFail_OOGduringInit_d0g0v0Filler.json",
            "sourceHash" : "7b13bbbbd3ba94f7010246c98f06f24eeeab2890946066e1fa464795d50b302a"
        },
        "blocks" : [
            {
                "blockHeader" : {
                    "bloom" : "0x00000000000000000000000000000000000000000000000000000000000000000000000000000000000000000000000000000000000000000000000000000000000000000000000000000000000000000000000000000000000000000000000000000000000000000000000000000000000000000000000000000000000000000000000000000000000000000000000000000000000000000000000000000000000000000000000000000000000000000000000000000000000000000000000000000000000000000000000000000000000000000000000000000000000000000000000000000000000000000000000000000000000000000000000000000000",
                    "coinbase" : "0x2adc25665018aa1fe0e6bc666dac8fc2697ff9ba",
                    "difficulty" : "0x020000",
                    "extraData" : "",
                    "gasLimit" : "0x05f5e100",
                    "gasUsed" : "0x715d",
                    "hash" : "0x785afcf3fabe06b998dc734f53769735e0f916225812d9b8f6d3584d9898727a",
                    "mixHash" : "0xb4c88bb9e7030a73aa025ff9d74f3b2eb8677bbbe8e0419518988fdcb731b574",
                    "nonce" : "0x5abdfd61ed2ce578",
                    "number" : "0x01",
                    "parentHash" : "0x65ba0d89bc11a28186a4936b2babe8bc795caa700301fd4296408405169b4c2a",
                    "receiptTrie" : "0xd0f55599081d2ee531dc1264e609cc7ab8f994a9ad6879997b8a632182c10b6c",
                    "stateRoot" : "0x6eba190c9e0e6cf68e7b13933856519a137f92e80511777ececea8898104e6b8",
                    "timestamp" : "0x03e8",
                    "transactionsTrie" : "0x11309db4993a5bca401d57cba6c8935a76825b48bf92f92c2ec8c6abd49145c3",
                    "uncleHash" : "0x1dcc4de8dec75d7aab85b567b6ccd41ad312451b948a7413f0a142fd40d49347"
                },
                "rlp" : "0xf90262f901f8a065ba0d89bc11a28186a4936b2babe8bc795caa700301fd4296408405169b4c2aa01dcc4de8dec75d7aab85b567b6ccd41ad312451b948a7413f0a142fd40d49347942adc25665018aa1fe0e6bc666dac8fc2697ff9baa06eba190c9e0e6cf68e7b13933856519a137f92e80511777ececea8898104e6b8a011309db4993a5bca401d57cba6c8935a76825b48bf92f92c2ec8c6abd49145c3a0d0f55599081d2ee531dc1264e609cc7ab8f994a9ad6879997b8a632182c10b6cb901000000000000000000000000000000000000000000000000000000000000000000000000000000000000000000000000000000000000000000000000000000000000000000000000000000000000000000000000000000000000000000000000000000000000000000000000000000000000000000000000000000000000000000000000000000000000000000000000000000000000000000000000000000000000000000000000000000000000000000000000000000000000000000000000000000000000000000000000000000000000000000000000000000000000000000000000000000000000000000000000000000000000000000000000000000000083020000018405f5e10082715d8203e880a0b4c88bb9e7030a73aa025ff9d74f3b2eb8677bbbe8e0419518988fdcb731b574885abdfd61ed2ce578f864f862800182cf1d94095e7baea6a6c7c4c2dfeb977efac326af552d87830186a0801ca058292c95326dc6aa9439a010f5575311223728663a1e4e0fd0ae2774803557e7a0022b400032039b0f8d7454cdad95f811a1218468d216d8706c4a46297eb43a75c0",
                "transactions" : [
                    {
                        "data" : "",
                        "gasLimit" : "0xcf1d",
                        "gasPrice" : "0x01",
                        "nonce" : "0x00",
                        "r" : "0x58292c95326dc6aa9439a010f5575311223728663a1e4e0fd0ae2774803557e7",
                        "s" : "0x022b400032039b0f8d7454cdad95f811a1218468d216d8706c4a46297eb43a75",
                        "to" : "0x095e7baea6a6c7c4c2dfeb977efac326af552d87",
                        "v" : "0x1c",
                        "value" : "0x0186a0"
                    }
                ],
                "uncleHeaders" : [
                ]
            }
        ],
        "genesisBlockHeader" : {
            "bloom" : "0x00000000000000000000000000000000000000000000000000000000000000000000000000000000000000000000000000000000000000000000000000000000000000000000000000000000000000000000000000000000000000000000000000000000000000000000000000000000000000000000000000000000000000000000000000000000000000000000000000000000000000000000000000000000000000000000000000000000000000000000000000000000000000000000000000000000000000000000000000000000000000000000000000000000000000000000000000000000000000000000000000000000000000000000000000000000",
            "coinbase" : "0x2adc25665018aa1fe0e6bc666dac8fc2697ff9ba",
            "difficulty" : "0x020000",
            "extraData" : "0x42",
            "gasLimit" : "0x05f5e100",
            "gasUsed" : "0x00",
            "hash" : "0x65ba0d89bc11a28186a4936b2babe8bc795caa700301fd4296408405169b4c2a",
            "mixHash" : "0x56e81f171bcc55a6ff8345e692c0f86e5b48e01b996cadc001622fb5e363b421",
            "nonce" : "0x0102030405060708",
            "number" : "0x00",
            "parentHash" : "0x0000000000000000000000000000000000000000000000000000000000000000",
            "receiptTrie" : "0x56e81f171bcc55a6ff8345e692c0f86e5b48e01b996cadc001622fb5e363b421",
            "stateRoot" : "0xba26be8603c7a8dbae832d738290e9bcdbc83fadeea20a51073d09e51d4d3de9",
            "timestamp" : "0x03b6",
            "transactionsTrie" : "0x56e81f171bcc55a6ff8345e692c0f86e5b48e01b996cadc001622fb5e363b421",
            "uncleHash" : "0x1dcc4de8dec75d7aab85b567b6ccd41ad312451b948a7413f0a142fd40d49347"
        },
        "genesisRLP" : "0xf901fbf901f6a00000000000000000000000000000000000000000000000000000000000000000a01dcc4de8dec75d7aab85b567b6ccd41ad312451b948a7413f0a142fd40d49347942adc25665018aa1fe0e6bc666dac8fc2697ff9baa0ba26be8603c7a8dbae832d738290e9bcdbc83fadeea20a51073d09e51d4d3de9a056e81f171bcc55a6ff8345e692c0f86e5b48e01b996cadc001622fb5e363b421a056e81f171bcc55a6ff8345e692c0f86e5b48e01b996cadc001622fb5e363b421b901000000000000000000000000000000000000000000000000000000000000000000000000000000000000000000000000000000000000000000000000000000000000000000000000000000000000000000000000000000000000000000000000000000000000000000000000000000000000000000000000000000000000000000000000000000000000000000000000000000000000000000000000000000000000000000000000000000000000000000000000000000000000000000000000000000000000000000000000000000000000000000000000000000000000000000000000000000000000000000000000000000000000000000000000000000000083020000808405f5e100808203b642a056e81f171bcc55a6ff8345e692c0f86e5b48e01b996cadc001622fb5e363b421880102030405060708c0c0",
        "lastblockhash" : "0x785afcf3fabe06b998dc734f53769735e0f916225812d9b8f6d3584d9898727a",
        "network" : "Frontier",
        "postState" : {
            "0x0000000000000000000000000000000000000000" : {
                "balance" : "0x0de0b6b3a76586a0",
                "code" : "",
                "nonce" : "0x00",
                "storage" : {
                }
            },
            "0x2adc25665018aa1fe0e6bc666dac8fc2697ff9ba" : {
                "balance" : "0x4563918244f4715d",
                "code" : "",
                "nonce" : "0x00",
                "storage" : {
                }
            },
            "0xa94f5374fce5edbc8e2a8697c15331677e6ebf0b" : {
                "balance" : "0x0de0b6b3a7620803",
                "code" : "",
                "nonce" : "0x01",
                "storage" : {
                }
            }
        },
        "pre" : {
            "0x095e7baea6a6c7c4c2dfeb977efac326af552d87" : {
                "balance" : "0x0de0b6b3a7640000",
                "code" : "0x605a600053600160006001f0ff",
                "nonce" : "0x00",
                "storage" : {
                }
            },
            "0xa94f5374fce5edbc8e2a8697c15331677e6ebf0b" : {
                "balance" : "0x0de0b6b3a7640000",
                "code" : "",
                "nonce" : "0x00",
                "storage" : {
                }
            }
        }
    },
    "createInitFail_OOGduringInit_d0g0v0_Homestead" : {
        "_info" : {
            "comment" : "",
            "filledwith" : "cpp-1.3.0+commit.6e0ce939.Linux.g++",
            "lllcversion" : "Version: 0.4.18-develop.2017.9.25+commit.a72237f2.Linux.g++",
            "source" : "src/BlockchainTestsFiller/GeneralStateTests/stCallCreateCallCodeTest/createInitFail_OOGduringInit_d0g0v0Filler.json",
            "sourceHash" : "7b13bbbbd3ba94f7010246c98f06f24eeeab2890946066e1fa464795d50b302a"
        },
        "blocks" : [
            {
                "blockHeader" : {
                    "bloom" : "0x00000000000000000000000000000000000000000000000000000000000000000000000000000000000000000000000000000000000000000000000000000000000000000000000000000000000000000000000000000000000000000000000000000000000000000000000000000000000000000000000000000000000000000000000000000000000000000000000000000000000000000000000000000000000000000000000000000000000000000000000000000000000000000000000000000000000000000000000000000000000000000000000000000000000000000000000000000000000000000000000000000000000000000000000000000000",
                    "coinbase" : "0x2adc25665018aa1fe0e6bc666dac8fc2697ff9ba",
                    "difficulty" : "0x020000",
                    "extraData" : "",
                    "gasLimit" : "0x05f5e100",
                    "gasUsed" : "0x715d",
                    "hash" : "0xf49cd80da721fb68840810bef34b1b17822b1a5d8134b933b5e16c84099369c7",
                    "mixHash" : "0x3edd394aacf4df52a51eb9807ef5064beacbd82ef68343856187296e55c62c69",
                    "nonce" : "0x868aabdcaf0fa176",
                    "number" : "0x01",
                    "parentHash" : "0x65ba0d89bc11a28186a4936b2babe8bc795caa700301fd4296408405169b4c2a",
                    "receiptTrie" : "0xd0f55599081d2ee531dc1264e609cc7ab8f994a9ad6879997b8a632182c10b6c",
                    "stateRoot" : "0x6eba190c9e0e6cf68e7b13933856519a137f92e80511777ececea8898104e6b8",
                    "timestamp" : "0x03e8",
                    "transactionsTrie" : "0x11309db4993a5bca401d57cba6c8935a76825b48bf92f92c2ec8c6abd49145c3",
                    "uncleHash" : "0x1dcc4de8dec75d7aab85b567b6ccd41ad312451b948a7413f0a142fd40d49347"
                },
                "rlp" : "0xf90262f901f8a065ba0d89bc11a28186a4936b2babe8bc795caa700301fd4296408405169b4c2aa01dcc4de8dec75d7aab85b567b6ccd41ad312451b948a7413f0a142fd40d49347942adc25665018aa1fe0e6bc666dac8fc2697ff9baa06eba190c9e0e6cf68e7b13933856519a137f92e80511777ececea8898104e6b8a011309db4993a5bca401d57cba6c8935a76825b48bf92f92c2ec8c6abd49145c3a0d0f55599081d2ee531dc1264e609cc7ab8f994a9ad6879997b8a632182c10b6cb901000000000000000000000000000000000000000000000000000000000000000000000000000000000000000000000000000000000000000000000000000000000000000000000000000000000000000000000000000000000000000000000000000000000000000000000000000000000000000000000000000000000000000000000000000000000000000000000000000000000000000000000000000000000000000000000000000000000000000000000000000000000000000000000000000000000000000000000000000000000000000000000000000000000000000000000000000000000000000000000000000000000000000000000000000000000083020000018405f5e10082715d8203e880a03edd394aacf4df52a51eb9807ef5064beacbd82ef68343856187296e55c62c6988868aabdcaf0fa176f864f862800182cf1d94095e7baea6a6c7c4c2dfeb977efac326af552d87830186a0801ca058292c95326dc6aa9439a010f5575311223728663a1e4e0fd0ae2774803557e7a0022b400032039b0f8d7454cdad95f811a1218468d216d8706c4a46297eb43a75c0",
                "transactions" : [
                    {
                        "data" : "",
                        "gasLimit" : "0xcf1d",
                        "gasPrice" : "0x01",
                        "nonce" : "0x00",
                        "r" : "0x58292c95326dc6aa9439a010f5575311223728663a1e4e0fd0ae2774803557e7",
                        "s" : "0x022b400032039b0f8d7454cdad95f811a1218468d216d8706c4a46297eb43a75",
                        "to" : "0x095e7baea6a6c7c4c2dfeb977efac326af552d87",
                        "v" : "0x1c",
                        "value" : "0x0186a0"
                    }
                ],
                "uncleHeaders" : [
                ]
            }
        ],
        "genesisBlockHeader" : {
            "bloom" : "0x00000000000000000000000000000000000000000000000000000000000000000000000000000000000000000000000000000000000000000000000000000000000000000000000000000000000000000000000000000000000000000000000000000000000000000000000000000000000000000000000000000000000000000000000000000000000000000000000000000000000000000000000000000000000000000000000000000000000000000000000000000000000000000000000000000000000000000000000000000000000000000000000000000000000000000000000000000000000000000000000000000000000000000000000000000000",
            "coinbase" : "0x2adc25665018aa1fe0e6bc666dac8fc2697ff9ba",
            "difficulty" : "0x020000",
            "extraData" : "0x42",
            "gasLimit" : "0x05f5e100",
            "gasUsed" : "0x00",
            "hash" : "0x65ba0d89bc11a28186a4936b2babe8bc795caa700301fd4296408405169b4c2a",
            "mixHash" : "0x56e81f171bcc55a6ff8345e692c0f86e5b48e01b996cadc001622fb5e363b421",
            "nonce" : "0x0102030405060708",
            "number" : "0x00",
            "parentHash" : "0x0000000000000000000000000000000000000000000000000000000000000000",
            "receiptTrie" : "0x56e81f171bcc55a6ff8345e692c0f86e5b48e01b996cadc001622fb5e363b421",
            "stateRoot" : "0xba26be8603c7a8dbae832d738290e9bcdbc83fadeea20a51073d09e51d4d3de9",
            "timestamp" : "0x03b6",
            "transactionsTrie" : "0x56e81f171bcc55a6ff8345e692c0f86e5b48e01b996cadc001622fb5e363b421",
            "uncleHash" : "0x1dcc4de8dec75d7aab85b567b6ccd41ad312451b948a7413f0a142fd40d49347"
        },
        "genesisRLP" : "0xf901fbf901f6a00000000000000000000000000000000000000000000000000000000000000000a01dcc4de8dec75d7aab85b567b6ccd41ad312451b948a7413f0a142fd40d49347942adc25665018aa1fe0e6bc666dac8fc2697ff9baa0ba26be8603c7a8dbae832d738290e9bcdbc83fadeea20a51073d09e51d4d3de9a056e81f171bcc55a6ff8345e692c0f86e5b48e01b996cadc001622fb5e363b421a056e81f171bcc55a6ff8345e692c0f86e5b48e01b996cadc001622fb5e363b421b901000000000000000000000000000000000000000000000000000000000000000000000000000000000000000000000000000000000000000000000000000000000000000000000000000000000000000000000000000000000000000000000000000000000000000000000000000000000000000000000000000000000000000000000000000000000000000000000000000000000000000000000000000000000000000000000000000000000000000000000000000000000000000000000000000000000000000000000000000000000000000000000000000000000000000000000000000000000000000000000000000000000000000000000000000000000083020000808405f5e100808203b642a056e81f171bcc55a6ff8345e692c0f86e5b48e01b996cadc001622fb5e363b421880102030405060708c0c0",
        "lastblockhash" : "0xf49cd80da721fb68840810bef34b1b17822b1a5d8134b933b5e16c84099369c7",
        "network" : "Homestead",
        "postState" : {
            "0x0000000000000000000000000000000000000000" : {
                "balance" : "0x0de0b6b3a76586a0",
                "code" : "",
                "nonce" : "0x00",
                "storage" : {
                }
            },
            "0x2adc25665018aa1fe0e6bc666dac8fc2697ff9ba" : {
                "balance" : "0x4563918244f4715d",
                "code" : "",
                "nonce" : "0x00",
                "storage" : {
                }
            },
            "0xa94f5374fce5edbc8e2a8697c15331677e6ebf0b" : {
                "balance" : "0x0de0b6b3a7620803",
                "code" : "",
                "nonce" : "0x01",
                "storage" : {
                }
            }
        },
        "pre" : {
            "0x095e7baea6a6c7c4c2dfeb977efac326af552d87" : {
                "balance" : "0x0de0b6b3a7640000",
                "code" : "0x605a600053600160006001f0ff",
                "nonce" : "0x00",
                "storage" : {
                }
            },
            "0xa94f5374fce5edbc8e2a8697c15331677e6ebf0b" : {
                "balance" : "0x0de0b6b3a7640000",
                "code" : "",
                "nonce" : "0x00",
                "storage" : {
                }
            }
        }
    }
}