{
    "createInitFailUndefinedInstruction_d0g0v0_Byzantium" : {
        "_info" : {
            "comment" : "",
            "filledwith" : "cpp-1.3.0+commit.6e0ce939.Linux.g++",
            "lllcversion" : "Version: 0.4.18-develop.2017.9.25+commit.a72237f2.Linux.g++",
            "source" : "src/BlockchainTestsFiller/GeneralStateTests/stCallCreateCallCodeTest/createInitFailUndefinedInstruction_d0g0v0Filler.json",
            "sourceHash" : "a15e16ae129fe11396c2c8c18244fef66146c90fad138ea82d607f775d64598a"
        },
        "blocks" : [
            {
                "blockHeader" : {
                    "bloom" : "0x00000000000000000000000000000000000000000000000000000000000000000000000000000000000000000000000000000000000000000000000000000000000000000000000000000000000000000000000000000000000000000000000000000000000000000000000000000000000000000000000000000000000000000000000000000000000000000000000000000000000000000000000000000000000000000000000000000000000000000000000000000000000000000000000000000000000000000000000000000000000000000000000000000000000000000000000000000000000000000000000000000000000000000000000000000000",
                    "coinbase" : "0x2adc25665018aa1fe0e6bc666dac8fc2697ff9ba",
                    "difficulty" : "0x020000",
                    "extraData" : "",
                    "gasLimit" : "0x05f5e100",
                    "gasUsed" : "0x05de2429",
                    "hash" : "0x6f2812d5db71a6cdc0845072b58f06b6c4869cdee6ea8a36f39cf5eec2279459",
                    "mixHash" : "0xac41823bc9931bcd3a00b48e90f132129c197c6026e66c8f32187464529da7d4",
                    "nonce" : "0x2e6ffb87fab1ca2f",
                    "number" : "0x01",
                    "parentHash" : "0xcbff487273a0530d8baf340d76584e5102451c615f470f41b37fc634509ff7d6",
                    "receiptTrie" : "0x4abc455ea42b05ee31f1ac1b48a2be9059b37a20378ac71515b5c3b33be685d0",
                    "stateRoot" : "0x5e506925dbe96d14428c93dabd3b9bf0d1aa7d397c06b32b3434bee57c0ee175",
                    "timestamp" : "0x03e8",
                    "transactionsTrie" : "0x75e61774a2ff58cbe32653420256c7f44bc715715a423b0b746d5c622979af6b",
                    "uncleHash" : "0x1dcc4de8dec75d7aab85b567b6ccd41ad312451b948a7413f0a142fd40d49347"
                },
                "rlp" : "0xf90266f901faa0cbff487273a0530d8baf340d76584e5102451c615f470f41b37fc634509ff7d6a01dcc4de8dec75d7aab85b567b6ccd41ad312451b948a7413f0a142fd40d49347942adc25665018aa1fe0e6bc666dac8fc2697ff9baa05e506925dbe96d14428c93dabd3b9bf0d1aa7d397c06b32b3434bee57c0ee175a075e61774a2ff58cbe32653420256c7f44bc715715a423b0b746d5c622979af6ba04abc455ea42b05ee31f1ac1b48a2be9059b37a20378ac71515b5c3b33be685d0b901000000000000000000000000000000000000000000000000000000000000000000000000000000000000000000000000000000000000000000000000000000000000000000000000000000000000000000000000000000000000000000000000000000000000000000000000000000000000000000000000000000000000000000000000000000000000000000000000000000000000000000000000000000000000000000000000000000000000000000000000000000000000000000000000000000000000000000000000000000000000000000000000000000000000000000000000000000000000000000000000000000000000000000000000000000000083020000018405f5e1008405de24298203e880a0ac41823bc9931bcd3a00b48e90f132129c197c6026e66c8f32187464529da7d4882e6ffb87fab1ca2ff866f86480018405f5e10094095e7baea6a6c7c4c2dfeb977efac326af552d87830186a0801ba088544c93a564b4c28d2ffac2074a0c55fdd4658fe0d215596ed2e32e3ef7f56ba07fb4075d54190f825d7c47bb820284757b34fd6293904a93cddb1d3aa961ac28c0",
                "transactions" : [
                    {
                        "data" : "",
                        "gasLimit" : "0x05f5e100",
                        "gasPrice" : "0x01",
                        "nonce" : "0x00",
                        "r" : "0x88544c93a564b4c28d2ffac2074a0c55fdd4658fe0d215596ed2e32e3ef7f56b",
                        "s" : "0x7fb4075d54190f825d7c47bb820284757b34fd6293904a93cddb1d3aa961ac28",
                        "to" : "0x095e7baea6a6c7c4c2dfeb977efac326af552d87",
                        "v" : "0x1b",
                        "value" : "0x0186a0"
                    }
                ],
                "uncleHeaders" : [
                ]
            }
        ],
        "genesisBlockHeader" : {
            "bloom" : "0x00000000000000000000000000000000000000000000000000000000000000000000000000000000000000000000000000000000000000000000000000000000000000000000000000000000000000000000000000000000000000000000000000000000000000000000000000000000000000000000000000000000000000000000000000000000000000000000000000000000000000000000000000000000000000000000000000000000000000000000000000000000000000000000000000000000000000000000000000000000000000000000000000000000000000000000000000000000000000000000000000000000000000000000000000000000",
            "coinbase" : "0x2adc25665018aa1fe0e6bc666dac8fc2697ff9ba",
            "difficulty" : "0x020000",
            "extraData" : "0x42",
            "gasLimit" : "0x05f5e100",
            "gasUsed" : "0x00",
            "hash" : "0xcbff487273a0530d8baf340d76584e5102451c615f470f41b37fc634509ff7d6",
            "mixHash" : "0x56e81f171bcc55a6ff8345e692c0f86e5b48e01b996cadc001622fb5e363b421",
            "nonce" : "0x0102030405060708",
            "number" : "0x00",
            "parentHash" : "0x0000000000000000000000000000000000000000000000000000000000000000",
            "receiptTrie" : "0x56e81f171bcc55a6ff8345e692c0f86e5b48e01b996cadc001622fb5e363b421",
            "stateRoot" : "0x0028a671f4b1a1255d40c41e1285c80b0707c3d574be68568f5e7d31a3dc7d60",
            "timestamp" : "0x03b6",
            "transactionsTrie" : "0x56e81f171bcc55a6ff8345e692c0f86e5b48e01b996cadc001622fb5e363b421",
            "uncleHash" : "0x1dcc4de8dec75d7aab85b567b6ccd41ad312451b948a7413f0a142fd40d49347"
        },
        "genesisRLP" : "0xf901fbf901f6a00000000000000000000000000000000000000000000000000000000000000000a01dcc4de8dec75d7aab85b567b6ccd41ad312451b948a7413f0a142fd40d49347942adc25665018aa1fe0e6bc666dac8fc2697ff9baa00028a671f4b1a1255d40c41e1285c80b0707c3d574be68568f5e7d31a3dc7d60a056e81f171bcc55a6ff8345e692c0f86e5b48e01b996cadc001622fb5e363b421a056e81f171bcc55a6ff8345e692c0f86e5b48e01b996cadc001622fb5e363b421b901000000000000000000000000000000000000000000000000000000000000000000000000000000000000000000000000000000000000000000000000000000000000000000000000000000000000000000000000000000000000000000000000000000000000000000000000000000000000000000000000000000000000000000000000000000000000000000000000000000000000000000000000000000000000000000000000000000000000000000000000000000000000000000000000000000000000000000000000000000000000000000000000000000000000000000000000000000000000000000000000000000000000000000000000000000000083020000808405f5e100808203b642a056e81f171bcc55a6ff8345e692c0f86e5b48e01b996cadc001622fb5e363b421880102030405060708c0c0",
        "lastblockhash" : "0x6f2812d5db71a6cdc0845072b58f06b6c4869cdee6ea8a36f39cf5eec2279459",
        "network" : "Byzantium",
        "postState" : {
            "0x0000000000000000000000000000000000000000" : {
                "balance" : "0x0de0b6b3a76586a0",
                "code" : "",
                "nonce" : "0x00",
                "storage" : {
                }
            },
            "0x2adc25665018aa1fe0e6bc666dac8fc2697ff9ba" : {
                "balance" : "0x29a2241afc0a2429",
                "code" : "",
                "nonce" : "0x00",
                "storage" : {
                }
            },
            "0xa94f5374fce5edbc8e2a8697c15331677e6ebf0b" : {
                "balance" : "0x0de0b6b3a1845537",
                "code" : "",
                "nonce" : "0x01",
                "storage" : {
                }
            }
        },
        "pre" : {
            "0x095e7baea6a6c7c4c2dfeb977efac326af552d87" : {
                "balance" : "0x0de0b6b3a7640000",
                "code" : "0x60f4600053600160006001f0ff",
                "nonce" : "0x00",
                "storage" : {
                }
            },
            "0xa94f5374fce5edbc8e2a8697c15331677e6ebf0b" : {
                "balance" : "0x0de0b6b3a7640000",
                "code" : "",
                "nonce" : "0x00",
                "storage" : {
                }
            }
        }
    },
    "createInitFailUndefinedInstruction_d0g0v0_EIP150" : {
        "_info" : {
            "comment" : "",
            "filledwith" : "cpp-1.3.0+commit.6e0ce939.Linux.g++",
            "lllcversion" : "Version: 0.4.18-develop.2017.9.25+commit.a72237f2.Linux.g++",
            "source" : "src/BlockchainTestsFiller/GeneralStateTests/stCallCreateCallCodeTest/createInitFailUndefinedInstruction_d0g0v0Filler.json",
            "sourceHash" : "a15e16ae129fe11396c2c8c18244fef66146c90fad138ea82d607f775d64598a"
        },
        "blocks" : [
            {
                "blockHeader" : {
                    "bloom" : "0x00000000000000000000000000000000000000000000000000000000000000000000000000000000000000000000000000000000000000000000000000000000000000000000000000000000000000000000000000000000000000000000000000000000000000000000000000000000000000000000000000000000000000000000000000000000000000000000000000000000000000000000000000000000000000000000000000000000000000000000000000000000000000000000000000000000000000000000000000000000000000000000000000000000000000000000000000000000000000000000000000000000000000000000000000000000",
                    "coinbase" : "0x2adc25665018aa1fe0e6bc666dac8fc2697ff9ba",
                    "difficulty" : "0x020000",
                    "extraData" : "",
                    "gasLimit" : "0x05f5e100",
                    "gasUsed" : "0x05de2429",
                    "hash" : "0x74f8836d3f162826ca473f0d4ddecb3980af70a61965daf00cc87ae4cb0e66ac",
                    "mixHash" : "0xfa06365e6a34ccc4c8890aff76200e1944276a5eb349389f6f3bcc12fc72a72f",
                    "nonce" : "0x5617dcafd8a7a08c",
                    "number" : "0x01",
                    "parentHash" : "0xcbff487273a0530d8baf340d76584e5102451c615f470f41b37fc634509ff7d6",
                    "receiptTrie" : "0x492104097be561ae597c4bfec7059fddccf05363171ee3fca75bf372cb1adf03",
                    "stateRoot" : "0xbf5e9b6997b323ff0a2cecda3ddb667c966fccbd5e75d0c2c5a81af7df1e6400",
                    "timestamp" : "0x03e8",
                    "transactionsTrie" : "0x75e61774a2ff58cbe32653420256c7f44bc715715a423b0b746d5c622979af6b",
                    "uncleHash" : "0x1dcc4de8dec75d7aab85b567b6ccd41ad312451b948a7413f0a142fd40d49347"
                },
                "rlp" : "0xf90266f901faa0cbff487273a0530d8baf340d76584e5102451c615f470f41b37fc634509ff7d6a01dcc4de8dec75d7aab85b567b6ccd41ad312451b948a7413f0a142fd40d49347942adc25665018aa1fe0e6bc666dac8fc2697ff9baa0bf5e9b6997b323ff0a2cecda3ddb667c966fccbd5e75d0c2c5a81af7df1e6400a075e61774a2ff58cbe32653420256c7f44bc715715a423b0b746d5c622979af6ba0492104097be561ae597c4bfec7059fddccf05363171ee3fca75bf372cb1adf03b901000000000000000000000000000000000000000000000000000000000000000000000000000000000000000000000000000000000000000000000000000000000000000000000000000000000000000000000000000000000000000000000000000000000000000000000000000000000000000000000000000000000000000000000000000000000000000000000000000000000000000000000000000000000000000000000000000000000000000000000000000000000000000000000000000000000000000000000000000000000000000000000000000000000000000000000000000000000000000000000000000000000000000000000000000000000083020000018405f5e1008405de24298203e880a0fa06365e6a34ccc4c8890aff76200e1944276a5eb349389f6f3bcc12fc72a72f885617dcafd8a7a08cf866f86480018405f5e10094095e7baea6a6c7c4c2dfeb977efac326af552d87830186a0801ba088544c93a564b4c28d2ffac2074a0c55fdd4658fe0d215596ed2e32e3ef7f56ba07fb4075d54190f825d7c47bb820284757b34fd6293904a93cddb1d3aa961ac28c0",
                "transactions" : [
                    {
                        "data" : "",
                        "gasLimit" : "0x05f5e100",
                        "gasPrice" : "0x01",
                        "nonce" : "0x00",
                        "r" : "0x88544c93a564b4c28d2ffac2074a0c55fdd4658fe0d215596ed2e32e3ef7f56b",
                        "s" : "0x7fb4075d54190f825d7c47bb820284757b34fd6293904a93cddb1d3aa961ac28",
                        "to" : "0x095e7baea6a6c7c4c2dfeb977efac326af552d87",
                        "v" : "0x1b",
                        "value" : "0x0186a0"
                    }
                ],
                "uncleHeaders" : [
                ]
            }
        ],
        "genesisBlockHeader" : {
            "bloom" : "0x00000000000000000000000000000000000000000000000000000000000000000000000000000000000000000000000000000000000000000000000000000000000000000000000000000000000000000000000000000000000000000000000000000000000000000000000000000000000000000000000000000000000000000000000000000000000000000000000000000000000000000000000000000000000000000000000000000000000000000000000000000000000000000000000000000000000000000000000000000000000000000000000000000000000000000000000000000000000000000000000000000000000000000000000000000000",
            "coinbase" : "0x2adc25665018aa1fe0e6bc666dac8fc2697ff9ba",
            "difficulty" : "0x020000",
            "extraData" : "0x42",
            "gasLimit" : "0x05f5e100",
            "gasUsed" : "0x00",
            "hash" : "0xcbff487273a0530d8baf340d76584e5102451c615f470f41b37fc634509ff7d6",
            "mixHash" : "0x56e81f171bcc55a6ff8345e692c0f86e5b48e01b996cadc001622fb5e363b421",
            "nonce" : "0x0102030405060708",
            "number" : "0x00",
            "parentHash" : "0x0000000000000000000000000000000000000000000000000000000000000000",
            "receiptTrie" : "0x56e81f171bcc55a6ff8345e692c0f86e5b48e01b996cadc001622fb5e363b421",
            "stateRoot" : "0x0028a671f4b1a1255d40c41e1285c80b0707c3d574be68568f5e7d31a3dc7d60",
            "timestamp" : "0x03b6",
            "transactionsTrie" : "0x56e81f171bcc55a6ff8345e692c0f86e5b48e01b996cadc001622fb5e363b421",
            "uncleHash" : "0x1dcc4de8dec75d7aab85b567b6ccd41ad312451b948a7413f0a142fd40d49347"
        },
        "genesisRLP" : "0xf901fbf901f6a00000000000000000000000000000000000000000000000000000000000000000a01dcc4de8dec75d7aab85b567b6ccd41ad312451b948a7413f0a142fd40d49347942adc25665018aa1fe0e6bc666dac8fc2697ff9baa00028a671f4b1a1255d40c41e1285c80b0707c3d574be68568f5e7d31a3dc7d60a056e81f171bcc55a6ff8345e692c0f86e5b48e01b996cadc001622fb5e363b421a056e81f171bcc55a6ff8345e692c0f86e5b48e01b996cadc001622fb5e363b421b901000000000000000000000000000000000000000000000000000000000000000000000000000000000000000000000000000000000000000000000000000000000000000000000000000000000000000000000000000000000000000000000000000000000000000000000000000000000000000000000000000000000000000000000000000000000000000000000000000000000000000000000000000000000000000000000000000000000000000000000000000000000000000000000000000000000000000000000000000000000000000000000000000000000000000000000000000000000000000000000000000000000000000000000000000000000083020000808405f5e100808203b642a056e81f171bcc55a6ff8345e692c0f86e5b48e01b996cadc001622fb5e363b421880102030405060708c0c0",
        "lastblockhash" : "0x74f8836d3f162826ca473f0d4ddecb3980af70a61965daf00cc87ae4cb0e66ac",
        "network" : "EIP150",
        "postState" : {
            "0x0000000000000000000000000000000000000000" : {
                "balance" : "0x0de0b6b3a76586a0",
                "code" : "",
                "nonce" : "0x00",
                "storage" : {
                }
            },
            "0x2adc25665018aa1fe0e6bc666dac8fc2697ff9ba" : {
                "balance" : "0x456391824ad22429",
                "code" : "",
                "nonce" : "0x00",
                "storage" : {
                }
            },
            "0xa94f5374fce5edbc8e2a8697c15331677e6ebf0b" : {
                "balance" : "0x0de0b6b3a1845537",
                "code" : "",
                "nonce" : "0x01",
                "storage" : {
                }
            }
        },
        "pre" : {
            "0x095e7baea6a6c7c4c2dfeb977efac326af552d87" : {
                "balance" : "0x0de0b6b3a7640000",
                "code" : "0x60f4600053600160006001f0ff",
                "nonce" : "0x00",
                "storage" : {
                }
            },
            "0xa94f5374fce5edbc8e2a8697c15331677e6ebf0b" : {
                "balance" : "0x0de0b6b3a7640000",
                "code" : "",
                "nonce" : "0x00",
                "storage" : {
                }
            }
        }
    },
    "createInitFailUndefinedInstruction_d0g0v0_EIP158" : {
        "_info" : {
            "comment" : "",
            "filledwith" : "cpp-1.3.0+commit.6e0ce939.Linux.g++",
            "lllcversion" : "Version: 0.4.18-develop.2017.9.25+commit.a72237f2.Linux.g++",
            "source" : "src/BlockchainTestsFiller/GeneralStateTests/stCallCreateCallCodeTest/createInitFailUndefinedInstruction_d0g0v0Filler.json",
            "sourceHash" : "a15e16ae129fe11396c2c8c18244fef66146c90fad138ea82d607f775d64598a"
        },
        "blocks" : [
            {
                "blockHeader" : {
                    "bloom" : "0x00000000000000000000000000000000000000000000000000000000000000000000000000000000000000000000000000000000000000000000000000000000000000000000000000000000000000000000000000000000000000000000000000000000000000000000000000000000000000000000000000000000000000000000000000000000000000000000000000000000000000000000000000000000000000000000000000000000000000000000000000000000000000000000000000000000000000000000000000000000000000000000000000000000000000000000000000000000000000000000000000000000000000000000000000000000",
                    "coinbase" : "0x2adc25665018aa1fe0e6bc666dac8fc2697ff9ba",
                    "difficulty" : "0x020000",
                    "extraData" : "",
                    "gasLimit" : "0x05f5e100",
                    "gasUsed" : "0x05de2429",
                    "hash" : "0xb7a4ddced6ff6522c4b91b86a85f18aff7f0e84586161ca3de0aaf118023eac3",
                    "mixHash" : "0xc0f7fb49e6632da4f3a1abe72911c27ace07eb1ad79f1560052663d623ea1041",
                    "nonce" : "0xf58c80de4691232d",
                    "number" : "0x01",
                    "parentHash" : "0xcbff487273a0530d8baf340d76584e5102451c615f470f41b37fc634509ff7d6",
                    "receiptTrie" : "0x492104097be561ae597c4bfec7059fddccf05363171ee3fca75bf372cb1adf03",
                    "stateRoot" : "0xbf5e9b6997b323ff0a2cecda3ddb667c966fccbd5e75d0c2c5a81af7df1e6400",
                    "timestamp" : "0x03e8",
                    "transactionsTrie" : "0x75e61774a2ff58cbe32653420256c7f44bc715715a423b0b746d5c622979af6b",
                    "uncleHash" : "0x1dcc4de8dec75d7aab85b567b6ccd41ad312451b948a7413f0a142fd40d49347"
                },
                "rlp" : "0xf90266f901faa0cbff487273a0530d8baf340d76584e5102451c615f470f41b37fc634509ff7d6a01dcc4de8dec75d7aab85b567b6ccd41ad312451b948a7413f0a142fd40d49347942adc25665018aa1fe0e6bc666dac8fc2697ff9baa0bf5e9b6997b323ff0a2cecda3ddb667c966fccbd5e75d0c2c5a81af7df1e6400a075e61774a2ff58cbe32653420256c7f44bc715715a423b0b746d5c622979af6ba0492104097be561ae597c4bfec7059fddccf05363171ee3fca75bf372cb1adf03b901000000000000000000000000000000000000000000000000000000000000000000000000000000000000000000000000000000000000000000000000000000000000000000000000000000000000000000000000000000000000000000000000000000000000000000000000000000000000000000000000000000000000000000000000000000000000000000000000000000000000000000000000000000000000000000000000000000000000000000000000000000000000000000000000000000000000000000000000000000000000000000000000000000000000000000000000000000000000000000000000000000000000000000000000000000000083020000018405f5e1008405de24298203e880a0c0f7fb49e6632da4f3a1abe72911c27ace07eb1ad79f1560052663d623ea104188f58c80de4691232df866f86480018405f5e10094095e7baea6a6c7c4c2dfeb977efac326af552d87830186a0801ba088544c93a564b4c28d2ffac2074a0c55fdd4658fe0d215596ed2e32e3ef7f56ba07fb4075d54190f825d7c47bb820284757b34fd6293904a93cddb1d3aa961ac28c0",
                "transactions" : [
                    {
                        "data" : "",
                        "gasLimit" : "0x05f5e100",
                        "gasPrice" : "0x01",
                        "nonce" : "0x00",
                        "r" : "0x88544c93a564b4c28d2ffac2074a0c55fdd4658fe0d215596ed2e32e3ef7f56b",
                        "s" : "0x7fb4075d54190f825d7c47bb820284757b34fd6293904a93cddb1d3aa961ac28",
                        "to" : "0x095e7baea6a6c7c4c2dfeb977efac326af552d87",
                        "v" : "0x1b",
                        "value" : "0x0186a0"
                    }
                ],
                "uncleHeaders" : [
                ]
            }
        ],
        "genesisBlockHeader" : {
            "bloom" : "0x00000000000000000000000000000000000000000000000000000000000000000000000000000000000000000000000000000000000000000000000000000000000000000000000000000000000000000000000000000000000000000000000000000000000000000000000000000000000000000000000000000000000000000000000000000000000000000000000000000000000000000000000000000000000000000000000000000000000000000000000000000000000000000000000000000000000000000000000000000000000000000000000000000000000000000000000000000000000000000000000000000000000000000000000000000000",
            "coinbase" : "0x2adc25665018aa1fe0e6bc666dac8fc2697ff9ba",
            "difficulty" : "0x020000",
            "extraData" : "0x42",
            "gasLimit" : "0x05f5e100",
            "gasUsed" : "0x00",
            "hash" : "0xcbff487273a0530d8baf340d76584e5102451c615f470f41b37fc634509ff7d6",
            "mixHash" : "0x56e81f171bcc55a6ff8345e692c0f86e5b48e01b996cadc001622fb5e363b421",
            "nonce" : "0x0102030405060708",
            "number" : "0x00",
            "parentHash" : "0x0000000000000000000000000000000000000000000000000000000000000000",
            "receiptTrie" : "0x56e81f171bcc55a6ff8345e692c0f86e5b48e01b996cadc001622fb5e363b421",
            "stateRoot" : "0x0028a671f4b1a1255d40c41e1285c80b0707c3d574be68568f5e7d31a3dc7d60",
            "timestamp" : "0x03b6",
            "transactionsTrie" : "0x56e81f171bcc55a6ff8345e692c0f86e5b48e01b996cadc001622fb5e363b421",
            "uncleHash" : "0x1dcc4de8dec75d7aab85b567b6ccd41ad312451b948a7413f0a142fd40d49347"
        },
        "genesisRLP" : "0xf901fbf901f6a00000000000000000000000000000000000000000000000000000000000000000a01dcc4de8dec75d7aab85b567b6ccd41ad312451b948a7413f0a142fd40d49347942adc25665018aa1fe0e6bc666dac8fc2697ff9baa00028a671f4b1a1255d40c41e1285c80b0707c3d574be68568f5e7d31a3dc7d60a056e81f171bcc55a6ff8345e692c0f86e5b48e01b996cadc001622fb5e363b421a056e81f171bcc55a6ff8345e692c0f86e5b48e01b996cadc001622fb5e363b421b901000000000000000000000000000000000000000000000000000000000000000000000000000000000000000000000000000000000000000000000000000000000000000000000000000000000000000000000000000000000000000000000000000000000000000000000000000000000000000000000000000000000000000000000000000000000000000000000000000000000000000000000000000000000000000000000000000000000000000000000000000000000000000000000000000000000000000000000000000000000000000000000000000000000000000000000000000000000000000000000000000000000000000000000000000000000083020000808405f5e100808203b642a056e81f171bcc55a6ff8345e692c0f86e5b48e01b996cadc001622fb5e363b421880102030405060708c0c0",
        "lastblockhash" : "0xb7a4ddced6ff6522c4b91b86a85f18aff7f0e84586161ca3de0aaf118023eac3",
        "network" : "EIP158",
        "postState" : {
            "0x0000000000000000000000000000000000000000" : {
                "balance" : "0x0de0b6b3a76586a0",
                "code" : "",
                "nonce" : "0x00",
                "storage" : {
                }
            },
            "0x2adc25665018aa1fe0e6bc666dac8fc2697ff9ba" : {
                "balance" : "0x456391824ad22429",
                "code" : "",
                "nonce" : "0x00",
                "storage" : {
                }
            },
            "0xa94f5374fce5edbc8e2a8697c15331677e6ebf0b" : {
                "balance" : "0x0de0b6b3a1845537",
                "code" : "",
                "nonce" : "0x01",
                "storage" : {
                }
            }
        },
        "pre" : {
            "0x095e7baea6a6c7c4c2dfeb977efac326af552d87" : {
                "balance" : "0x0de0b6b3a7640000",
                "code" : "0x60f4600053600160006001f0ff",
                "nonce" : "0x00",
                "storage" : {
                }
            },
            "0xa94f5374fce5edbc8e2a8697c15331677e6ebf0b" : {
                "balance" : "0x0de0b6b3a7640000",
                "code" : "",
                "nonce" : "0x00",
                "storage" : {
                }
            }
        }
    },
    "createInitFailUndefinedInstruction_d0g0v0_Frontier" : {
        "_info" : {
            "comment" : "",
            "filledwith" : "cpp-1.3.0+commit.6e0ce939.Linux.g++",
            "lllcversion" : "Version: 0.4.18-develop.2017.9.25+commit.a72237f2.Linux.g++",
            "source" : "src/BlockchainTestsFiller/GeneralStateTests/stCallCreateCallCodeTest/createInitFailUndefinedInstruction_d0g0v0Filler.json",
            "sourceHash" : "a15e16ae129fe11396c2c8c18244fef66146c90fad138ea82d607f775d64598a"
        },
        "blocks" : [
            {
                "blockHeader" : {
                    "bloom" : "0x00000000000000000000000000000000000000000000000000000000000000000000000000000000000000000000000000000000000000000000000000000000000000000000000000000000000000000000000000000000000000000000000000000000000000000000000000000000000000000000000000000000000000000000000000000000000000000000000000000000000000000000000000000000000000000000000000000000000000000000000000000000000000000000000000000000000000000000000000000000000000000000000000000000000000000000000000000000000000000000000000000000000000000000000000000000",
                    "coinbase" : "0x2adc25665018aa1fe0e6bc666dac8fc2697ff9ba",
                    "difficulty" : "0x020000",
                    "extraData" : "",
                    "gasLimit" : "0x05f5e100",
                    "gasUsed" : "0x05f58340",
                    "hash" : "0x314ed70502e3ec80b14011f3926941bdf4603b9e5baa13178758c38fe7693d12",
                    "mixHash" : "0x026409d9472650b41d27a457955889ff6b401084a3ea8150dd04fbf38ca76cda",
                    "nonce" : "0x7061a57ee9901eb3",
                    "number" : "0x01",
                    "parentHash" : "0xcbff487273a0530d8baf340d76584e5102451c615f470f41b37fc634509ff7d6",
                    "receiptTrie" : "0x297434bb102fde84e1334f2767855669b51b075f8aad50f0fec7ed27a9c2033a",
                    "stateRoot" : "0xf8ab0473a58752f3916b4bda129c722c25ba74e5bed67805d622c55fbdbc6d7d",
                    "timestamp" : "0x03e8",
                    "transactionsTrie" : "0x75e61774a2ff58cbe32653420256c7f44bc715715a423b0b746d5c622979af6b",
                    "uncleHash" : "0x1dcc4de8dec75d7aab85b567b6ccd41ad312451b948a7413f0a142fd40d49347"
                },
                "rlp" : "0xf90266f901faa0cbff487273a0530d8baf340d76584e5102451c615f470f41b37fc634509ff7d6a01dcc4de8dec75d7aab85b567b6ccd41ad312451b948a7413f0a142fd40d49347942adc25665018aa1fe0e6bc666dac8fc2697ff9baa0f8ab0473a58752f3916b4bda129c722c25ba74e5bed67805d622c55fbdbc6d7da075e61774a2ff58cbe32653420256c7f44bc715715a423b0b746d5c622979af6ba0297434bb102fde84e1334f2767855669b51b075f8aad50f0fec7ed27a9c2033ab901000000000000000000000000000000000000000000000000000000000000000000000000000000000000000000000000000000000000000000000000000000000000000000000000000000000000000000000000000000000000000000000000000000000000000000000000000000000000000000000000000000000000000000000000000000000000000000000000000000000000000000000000000000000000000000000000000000000000000000000000000000000000000000000000000000000000000000000000000000000000000000000000000000000000000000000000000000000000000000000000000000000000000000000000000000000083020000018405f5e1008405f583408203e880a0026409d9472650b41d27a457955889ff6b401084a3ea8150dd04fbf38ca76cda887061a57ee9901eb3f866f86480018405f5e10094095e7baea6a6c7c4c2dfeb977efac326af552d87830186a0801ba088544c93a564b4c28d2ffac2074a0c55fdd4658fe0d215596ed2e32e3ef7f56ba07fb4075d54190f825d7c47bb820284757b34fd6293904a93cddb1d3aa961ac28c0",
                "transactions" : [
                    {
                        "data" : "",
                        "gasLimit" : "0x05f5e100",
                        "gasPrice" : "0x01",
                        "nonce" : "0x00",
                        "r" : "0x88544c93a564b4c28d2ffac2074a0c55fdd4658fe0d215596ed2e32e3ef7f56b",
                        "s" : "0x7fb4075d54190f825d7c47bb820284757b34fd6293904a93cddb1d3aa961ac28",
                        "to" : "0x095e7baea6a6c7c4c2dfeb977efac326af552d87",
                        "v" : "0x1b",
                        "value" : "0x0186a0"
                    }
                ],
                "uncleHeaders" : [
                ]
            }
        ],
        "genesisBlockHeader" : {
            "bloom" : "0x00000000000000000000000000000000000000000000000000000000000000000000000000000000000000000000000000000000000000000000000000000000000000000000000000000000000000000000000000000000000000000000000000000000000000000000000000000000000000000000000000000000000000000000000000000000000000000000000000000000000000000000000000000000000000000000000000000000000000000000000000000000000000000000000000000000000000000000000000000000000000000000000000000000000000000000000000000000000000000000000000000000000000000000000000000000",
            "coinbase" : "0x2adc25665018aa1fe0e6bc666dac8fc2697ff9ba",
            "difficulty" : "0x020000",
            "extraData" : "0x42",
            "gasLimit" : "0x05f5e100",
            "gasUsed" : "0x00",
            "hash" : "0xcbff487273a0530d8baf340d76584e5102451c615f470f41b37fc634509ff7d6",
            "mixHash" : "0x56e81f171bcc55a6ff8345e692c0f86e5b48e01b996cadc001622fb5e363b421",
            "nonce" : "0x0102030405060708",
            "number" : "0x00",
            "parentHash" : "0x0000000000000000000000000000000000000000000000000000000000000000",
            "receiptTrie" : "0x56e81f171bcc55a6ff8345e692c0f86e5b48e01b996cadc001622fb5e363b421",
            "stateRoot" : "0x0028a671f4b1a1255d40c41e1285c80b0707c3d574be68568f5e7d31a3dc7d60",
            "timestamp" : "0x03b6",
            "transactionsTrie" : "0x56e81f171bcc55a6ff8345e692c0f86e5b48e01b996cadc001622fb5e363b421",
            "uncleHash" : "0x1dcc4de8dec75d7aab85b567b6ccd41ad312451b948a7413f0a142fd40d49347"
        },
        "genesisRLP" : "0xf901fbf901f6a00000000000000000000000000000000000000000000000000000000000000000a01dcc4de8dec75d7aab85b567b6ccd41ad312451b948a7413f0a142fd40d49347942adc25665018aa1fe0e6bc666dac8fc2697ff9baa00028a671f4b1a1255d40c41e1285c80b0707c3d574be68568f5e7d31a3dc7d60a056e81f171bcc55a6ff8345e692c0f86e5b48e01b996cadc001622fb5e363b421a056e81f171bcc55a6ff8345e692c0f86e5b48e01b996cadc001622fb5e363b421b901000000000000000000000000000000000000000000000000000000000000000000000000000000000000000000000000000000000000000000000000000000000000000000000000000000000000000000000000000000000000000000000000000000000000000000000000000000000000000000000000000000000000000000000000000000000000000000000000000000000000000000000000000000000000000000000000000000000000000000000000000000000000000000000000000000000000000000000000000000000000000000000000000000000000000000000000000000000000000000000000000000000000000000000000000000000083020000808405f5e100808203b642a056e81f171bcc55a6ff8345e692c0f86e5b48e01b996cadc001622fb5e363b421880102030405060708c0c0",
        "lastblockhash" : "0x314ed70502e3ec80b14011f3926941bdf4603b9e5baa13178758c38fe7693d12",
        "network" : "Frontier",
        "postState" : {
            "0x0000000000000000000000000000000000000000" : {
                "balance" : "0x0de0b6b3a76586a0",
                "code" : "",
                "nonce" : "0x00",
                "storage" : {
                }
            },
            "0x2adc25665018aa1fe0e6bc666dac8fc2697ff9ba" : {
                "balance" : "0x456391824ae98340",
                "code" : "",
                "nonce" : "0x00",
                "storage" : {
                }
            },
            "0xa94f5374fce5edbc8e2a8697c15331677e6ebf0b" : {
                "balance" : "0x0de0b6b3a16cf620",
                "code" : "",
                "nonce" : "0x01",
                "storage" : {
                }
            }
        },
        "pre" : {
            "0x095e7baea6a6c7c4c2dfeb977efac326af552d87" : {
                "balance" : "0x0de0b6b3a7640000",
                "code" : "0x60f4600053600160006001f0ff",
                "nonce" : "0x00",
                "storage" : {
                }
            },
            "0xa94f5374fce5edbc8e2a8697c15331677e6ebf0b" : {
                "balance" : "0x0de0b6b3a7640000",
                "code" : "",
                "nonce" : "0x00",
                "storage" : {
                }
            }
        }
    },
    "createInitFailUndefinedInstruction_d0g0v0_Homestead" : {
        "_info" : {
            "comment" : "",
            "filledwith" : "cpp-1.3.0+commit.6e0ce939.Linux.g++",
            "lllcversion" : "Version: 0.4.18-develop.2017.9.25+commit.a72237f2.Linux.g++",
            "source" : "src/BlockchainTestsFiller/GeneralStateTests/stCallCreateCallCodeTest/createInitFailUndefinedInstruction_d0g0v0Filler.json",
            "sourceHash" : "a15e16ae129fe11396c2c8c18244fef66146c90fad138ea82d607f775d64598a"
        },
        "blocks" : [
            {
                "blockHeader" : {
                    "bloom" : "0x00000000000000000000000000000000000000000000000000000000000000000000000000000000000000000000000000000000000000000000000000000000000000000000000000000000000000000000000000000000000000000000000000000000000000000000000000000000000000000000000000000000000000000000000000000000000000000000000000000000000000000000000000000000000000000000000000000000000000000000000000000000000000000000000000000000000000000000000000000000000000000000000000000000000000000000000000000000000000000000000000000000000000000000000000000000",
                    "coinbase" : "0x2adc25665018aa1fe0e6bc666dac8fc2697ff9ba",
                    "difficulty" : "0x020000",
                    "extraData" : "",
                    "gasLimit" : "0x05f5e100",
                    "gasUsed" : "0x05f58340",
                    "hash" : "0xc16bb53a62e97dc1d015cb69e34c4905fb775896aa6be4d1a20f5b725db69d00",
                    "mixHash" : "0x6dc689e2142789972ce8580ede5a83708535f54f22e6f86670cda556f84a16c8",
                    "nonce" : "0x5266586012768849",
                    "number" : "0x01",
                    "parentHash" : "0xcbff487273a0530d8baf340d76584e5102451c615f470f41b37fc634509ff7d6",
                    "receiptTrie" : "0x297434bb102fde84e1334f2767855669b51b075f8aad50f0fec7ed27a9c2033a",
                    "stateRoot" : "0xf8ab0473a58752f3916b4bda129c722c25ba74e5bed67805d622c55fbdbc6d7d",
                    "timestamp" : "0x03e8",
                    "transactionsTrie" : "0x75e61774a2ff58cbe32653420256c7f44bc715715a423b0b746d5c622979af6b",
                    "uncleHash" : "0x1dcc4de8dec75d7aab85b567b6ccd41ad312451b948a7413f0a142fd40d49347"
                },
                "rlp" : "0xf90266f901faa0cbff487273a0530d8baf340d76584e5102451c615f470f41b37fc634509ff7d6a01dcc4de8dec75d7aab85b567b6ccd41ad312451b948a7413f0a142fd40d49347942adc25665018aa1fe0e6bc666dac8fc2697ff9baa0f8ab0473a58752f3916b4bda129c722c25ba74e5bed67805d622c55fbdbc6d7da075e61774a2ff58cbe32653420256c7f44bc715715a423b0b746d5c622979af6ba0297434bb102fde84e1334f2767855669b51b075f8aad50f0fec7ed27a9c2033ab901000000000000000000000000000000000000000000000000000000000000000000000000000000000000000000000000000000000000000000000000000000000000000000000000000000000000000000000000000000000000000000000000000000000000000000000000000000000000000000000000000000000000000000000000000000000000000000000000000000000000000000000000000000000000000000000000000000000000000000000000000000000000000000000000000000000000000000000000000000000000000000000000000000000000000000000000000000000000000000000000000000000000000000000000000000000083020000018405f5e1008405f583408203e880a06dc689e2142789972ce8580ede5a83708535f54f22e6f86670cda556f84a16c8885266586012768849f866f86480018405f5e10094095e7baea6a6c7c4c2dfeb977efac326af552d87830186a0801ba088544c93a564b4c28d2ffac2074a0c55fdd4658fe0d215596ed2e32e3ef7f56ba07fb4075d54190f825d7c47bb820284757b34fd6293904a93cddb1d3aa961ac28c0",
                "transactions" : [
                    {
                        "data" : "",
                        "gasLimit" : "0x05f5e100",
                        "gasPrice" : "0x01",
                        "nonce" : "0x00",
                        "r" : "0x88544c93a564b4c28d2ffac2074a0c55fdd4658fe0d215596ed2e32e3ef7f56b",
                        "s" : "0x7fb4075d54190f825d7c47bb820284757b34fd6293904a93cddb1d3aa961ac28",
                        "to" : "0x095e7baea6a6c7c4c2dfeb977efac326af552d87",
                        "v" : "0x1b",
                        "value" : "0x0186a0"
                    }
                ],
                "uncleHeaders" : [
                ]
            }
        ],
        "genesisBlockHeader" : {
            "bloom" : "0x00000000000000000000000000000000000000000000000000000000000000000000000000000000000000000000000000000000000000000000000000000000000000000000000000000000000000000000000000000000000000000000000000000000000000000000000000000000000000000000000000000000000000000000000000000000000000000000000000000000000000000000000000000000000000000000000000000000000000000000000000000000000000000000000000000000000000000000000000000000000000000000000000000000000000000000000000000000000000000000000000000000000000000000000000000000",
            "coinbase" : "0x2adc25665018aa1fe0e6bc666dac8fc2697ff9ba",
            "difficulty" : "0x020000",
            "extraData" : "0x42",
            "gasLimit" : "0x05f5e100",
            "gasUsed" : "0x00",
            "hash" : "0xcbff487273a0530d8baf340d76584e5102451c615f470f41b37fc634509ff7d6",
            "mixHash" : "0x56e81f171bcc55a6ff8345e692c0f86e5b48e01b996cadc001622fb5e363b421",
            "nonce" : "0x0102030405060708",
            "number" : "0x00",
            "parentHash" : "0x0000000000000000000000000000000000000000000000000000000000000000",
            "receiptTrie" : "0x56e81f171bcc55a6ff8345e692c0f86e5b48e01b996cadc001622fb5e363b421",
            "stateRoot" : "0x0028a671f4b1a1255d40c41e1285c80b0707c3d574be68568f5e7d31a3dc7d60",
            "timestamp" : "0x03b6",
            "transactionsTrie" : "0x56e81f171bcc55a6ff8345e692c0f86e5b48e01b996cadc001622fb5e363b421",
            "uncleHash" : "0x1dcc4de8dec75d7aab85b567b6ccd41ad312451b948a7413f0a142fd40d49347"
        },
        "genesisRLP" : "0xf901fbf901f6a00000000000000000000000000000000000000000000000000000000000000000a01dcc4de8dec75d7aab85b567b6ccd41ad312451b948a7413f0a142fd40d49347942adc25665018aa1fe0e6bc666dac8fc2697ff9baa00028a671f4b1a1255d40c41e1285c80b0707c3d574be68568f5e7d31a3dc7d60a056e81f171bcc55a6ff8345e692c0f86e5b48e01b996cadc001622fb5e363b421a056e81f171bcc55a6ff8345e692c0f86e5b48e01b996cadc001622fb5e363b421b901000000000000000000000000000000000000000000000000000000000000000000000000000000000000000000000000000000000000000000000000000000000000000000000000000000000000000000000000000000000000000000000000000000000000000000000000000000000000000000000000000000000000000000000000000000000000000000000000000000000000000000000000000000000000000000000000000000000000000000000000000000000000000000000000000000000000000000000000000000000000000000000000000000000000000000000000000000000000000000000000000000000000000000000000000000000083020000808405f5e100808203b642a056e81f171bcc55a6ff8345e692c0f86e5b48e01b996cadc001622fb5e363b421880102030405060708c0c0",
        "lastblockhash" : "0xc16bb53a62e97dc1d015cb69e34c4905fb775896aa6be4d1a20f5b725db69d00",
        "network" : "Homestead",
        "postState" : {
            "0x0000000000000000000000000000000000000000" : {
                "balance" : "0x0de0b6b3a76586a0",
                "code" : "",
                "nonce" : "0x00",
                "storage" : {
                }
            },
            "0x2adc25665018aa1fe0e6bc666dac8fc2697ff9ba" : {
                "balance" : "0x456391824ae98340",
                "code" : "",
                "nonce" : "0x00",
                "storage" : {
                }
            },
            "0xa94f5374fce5edbc8e2a8697c15331677e6ebf0b" : {
                "balance" : "0x0de0b6b3a16cf620",
                "code" : "",
                "nonce" : "0x01",
                "storage" : {
                }
            }
        },
        "pre" : {
            "0x095e7baea6a6c7c4c2dfeb977efac326af552d87" : {
                "balance" : "0x0de0b6b3a7640000",
                "code" : "0x60f4600053600160006001f0ff",
                "nonce" : "0x00",
                "storage" : {
                }
            },
            "0xa94f5374fce5edbc8e2a8697c15331677e6ebf0b" : {
                "balance" : "0x0de0b6b3a7640000",
                "code" : "",
                "nonce" : "0x00",
                "storage" : {
                }
            }
        }
    }
}