{
    "createInitFailStackUnderflow_d0g0v0_Byzantium" : {
        "_info" : {
            "comment" : "",
            "filledwith" : "cpp-1.3.0+commit.6e0ce939.Linux.g++",
            "lllcversion" : "Version: 0.4.18-develop.2017.9.25+commit.a72237f2.Linux.g++",
            "source" : "src/BlockchainTestsFiller/GeneralStateTests/stCallCreateCallCodeTest/createInitFailStackUnderflow_d0g0v0Filler.json",
            "sourceHash" : "61a7de423154b3baefb67f4aa44f4676aa8c3b675e63c0febc6b58d11cd03ee4"
        },
        "blocks" : [
            {
                "blockHeader" : {
                    "bloom" : "0x00000000000000000000000000000000000000000000000000000000000000000000000000000000000000000000000000000000000000000000000000000000000000000000000000000000000000000000000000000000000000000000000000000000000000000000000000000000000000000000000000000000000000000000000000000000000000000000000000000000000000000000000000000000000000000000000000000000000000000000000000000000000000000000000000000000000000000000000000000000000000000000000000000000000000000000000000000000000000000000000000000000000000000000000000000000",
                    "coinbase" : "0x2adc25665018aa1fe0e6bc666dac8fc2697ff9ba",
                    "difficulty" : "0x020000",
                    "extraData" : "",
                    "gasLimit" : "0x05f5e100",
                    "gasUsed" : "0x05de2429",
                    "hash" : "0xf1fb0192e22b9ef556fa4bf8c414f032970439681e3c2aa10a37915368f7ca1b",
                    "mixHash" : "0x459ac83fd128b19f6b06321a9c84ca30a69057b08620bd216f7c520ec709214e",
                    "nonce" : "0x16f55d336b96adbb",
                    "number" : "0x01",
                    "parentHash" : "0xd43a3fd22ea197ec691954d8c2b1cf0d69f99b7a68a2e690f551496e5a5107c8",
                    "receiptTrie" : "0x4abc455ea42b05ee31f1ac1b48a2be9059b37a20378ac71515b5c3b33be685d0",
                    "stateRoot" : "0x5e506925dbe96d14428c93dabd3b9bf0d1aa7d397c06b32b3434bee57c0ee175",
                    "timestamp" : "0x03e8",
                    "transactionsTrie" : "0x75e61774a2ff58cbe32653420256c7f44bc715715a423b0b746d5c622979af6b",
                    "uncleHash" : "0x1dcc4de8dec75d7aab85b567b6ccd41ad312451b948a7413f0a142fd40d49347"
                },
                "rlp" : "0xf90266f901faa0d43a3fd22ea197ec691954d8c2b1cf0d69f99b7a68a2e690f551496e5a5107c8a01dcc4de8dec75d7aab85b567b6ccd41ad312451b948a7413f0a142fd40d49347942adc25665018aa1fe0e6bc666dac8fc2697ff9baa05e506925dbe96d14428c93dabd3b9bf0d1aa7d397c06b32b3434bee57c0ee175a075e61774a2ff58cbe32653420256c7f44bc715715a423b0b746d5c622979af6ba04abc455ea42b05ee31f1ac1b48a2be9059b37a20378ac71515b5c3b33be685d0b901000000000000000000000000000000000000000000000000000000000000000000000000000000000000000000000000000000000000000000000000000000000000000000000000000000000000000000000000000000000000000000000000000000000000000000000000000000000000000000000000000000000000000000000000000000000000000000000000000000000000000000000000000000000000000000000000000000000000000000000000000000000000000000000000000000000000000000000000000000000000000000000000000000000000000000000000000000000000000000000000000000000000000000000000000000000083020000018405f5e1008405de24298203e880a0459ac83fd128b19f6b06321a9c84ca30a69057b08620bd216f7c520ec709214e8816f55d336b96adbbf866f86480018405f5e10094095e7baea6a6c7c4c2dfeb977efac326af552d87830186a0801ba088544c93a564b4c28d2ffac2074a0c55fdd4658fe0d215596ed2e32e3ef7f56ba07fb4075d54190f825d7c47bb820284757b34fd6293904a93cddb1d3aa961ac28c0",
                "transactions" : [
                    {
                        "data" : "",
                        "gasLimit" : "0x05f5e100",
                        "gasPrice" : "0x01",
                        "nonce" : "0x00",
                        "r" : "0x88544c93a564b4c28d2ffac2074a0c55fdd4658fe0d215596ed2e32e3ef7f56b",
                        "s" : "0x7fb4075d54190f825d7c47bb820284757b34fd6293904a93cddb1d3aa961ac28",
                        "to" : "0x095e7baea6a6c7c4c2dfeb977efac326af552d87",
                        "v" : "0x1b",
                        "value" : "0x0186a0"
                    }
                ],
                "uncleHeaders" : [
                ]
            }
        ],
        "genesisBlockHeader" : {
            "bloom" : "0x00000000000000000000000000000000000000000000000000000000000000000000000000000000000000000000000000000000000000000000000000000000000000000000000000000000000000000000000000000000000000000000000000000000000000000000000000000000000000000000000000000000000000000000000000000000000000000000000000000000000000000000000000000000000000000000000000000000000000000000000000000000000000000000000000000000000000000000000000000000000000000000000000000000000000000000000000000000000000000000000000000000000000000000000000000000",
            "coinbase" : "0x2adc25665018aa1fe0e6bc666dac8fc2697ff9ba",
            "difficulty" : "0x020000",
            "extraData" : "0x42",
            "gasLimit" : "0x05f5e100",
            "gasUsed" : "0x00",
            "hash" : "0xd43a3fd22ea197ec691954d8c2b1cf0d69f99b7a68a2e690f551496e5a5107c8",
            "mixHash" : "0x56e81f171bcc55a6ff8345e692c0f86e5b48e01b996cadc001622fb5e363b421",
            "nonce" : "0x0102030405060708",
            "number" : "0x00",
            "parentHash" : "0x0000000000000000000000000000000000000000000000000000000000000000",
            "receiptTrie" : "0x56e81f171bcc55a6ff8345e692c0f86e5b48e01b996cadc001622fb5e363b421",
            "stateRoot" : "0x22d5b6bc4b2b8227d523b6bf1e97a70614ab33fd53f6408472a7911a3568027e",
            "timestamp" : "0x03b6",
            "transactionsTrie" : "0x56e81f171bcc55a6ff8345e692c0f86e5b48e01b996cadc001622fb5e363b421",
            "uncleHash" : "0x1dcc4de8dec75d7aab85b567b6ccd41ad312451b948a7413f0a142fd40d49347"
        },
        "genesisRLP" : "0xf901fbf901f6a00000000000000000000000000000000000000000000000000000000000000000a01dcc4de8dec75d7aab85b567b6ccd41ad312451b948a7413f0a142fd40d49347942adc25665018aa1fe0e6bc666dac8fc2697ff9baa022d5b6bc4b2b8227d523b6bf1e97a70614ab33fd53f6408472a7911a3568027ea056e81f171bcc55a6ff8345e692c0f86e5b48e01b996cadc001622fb5e363b421a056e81f171bcc55a6ff8345e692c0f86e5b48e01b996cadc001622fb5e363b421b901000000000000000000000000000000000000000000000000000000000000000000000000000000000000000000000000000000000000000000000000000000000000000000000000000000000000000000000000000000000000000000000000000000000000000000000000000000000000000000000000000000000000000000000000000000000000000000000000000000000000000000000000000000000000000000000000000000000000000000000000000000000000000000000000000000000000000000000000000000000000000000000000000000000000000000000000000000000000000000000000000000000000000000000000000000000083020000808405f5e100808203b642a056e81f171bcc55a6ff8345e692c0f86e5b48e01b996cadc001622fb5e363b421880102030405060708c0c0",
        "lastblockhash" : "0xf1fb0192e22b9ef556fa4bf8c414f032970439681e3c2aa10a37915368f7ca1b",
        "network" : "Byzantium",
        "postState" : {
            "0x0000000000000000000000000000000000000000" : {
                "balance" : "0x0de0b6b3a76586a0",
                "code" : "",
                "nonce" : "0x00",
                "storage" : {
                }
            },
            "0x2adc25665018aa1fe0e6bc666dac8fc2697ff9ba" : {
                "balance" : "0x29a2241afc0a2429",
                "code" : "",
                "nonce" : "0x00",
                "storage" : {
                }
            },
            "0xa94f5374fce5edbc8e2a8697c15331677e6ebf0b" : {
                "balance" : "0x0de0b6b3a1845537",
                "code" : "",
                "nonce" : "0x01",
                "storage" : {
                }
            }
        },
        "pre" : {
            "0x095e7baea6a6c7c4c2dfeb977efac326af552d87" : {
                "balance" : "0x0de0b6b3a7640000",
                "code" : "0x6001600053600160006001f0ff",
                "nonce" : "0x00",
                "storage" : {
                }
            },
            "0xa94f5374fce5edbc8e2a8697c15331677e6ebf0b" : {
                "balance" : "0x0de0b6b3a7640000",
                "code" : "",
                "nonce" : "0x00",
                "storage" : {
                }
            }
        }
    },
    "createInitFailStackUnderflow_d0g0v0_EIP150" : {
        "_info" : {
            "comment" : "",
            "filledwith" : "cpp-1.3.0+commit.6e0ce939.Linux.g++",
            "lllcversion" : "Version: 0.4.18-develop.2017.9.25+commit.a72237f2.Linux.g++",
            "source" : "src/BlockchainTestsFiller/GeneralStateTests/stCallCreateCallCodeTest/createInitFailStackUnderflow_d0g0v0Filler.json",
            "sourceHash" : "61a7de423154b3baefb67f4aa44f4676aa8c3b675e63c0febc6b58d11cd03ee4"
        },
        "blocks" : [
            {
                "blockHeader" : {
                    "bloom" : "0x00000000000000000000000000000000000000000000000000000000000000000000000000000000000000000000000000000000000000000000000000000000000000000000000000000000000000000000000000000000000000000000000000000000000000000000000000000000000000000000000000000000000000000000000000000000000000000000000000000000000000000000000000000000000000000000000000000000000000000000000000000000000000000000000000000000000000000000000000000000000000000000000000000000000000000000000000000000000000000000000000000000000000000000000000000000",
                    "coinbase" : "0x2adc25665018aa1fe0e6bc666dac8fc2697ff9ba",
                    "difficulty" : "0x020000",
                    "extraData" : "",
                    "gasLimit" : "0x05f5e100",
                    "gasUsed" : "0x05de2429",
                    "hash" : "0xfaf1222cdd9ca8dfc65c48ca91eb3d2220d1e9e2606bb22b301963b4533ab2b9",
                    "mixHash" : "0x802456ba9a8ecfdafcbeabd365e69dc1f22b4d05ab4f9682dc143206d00da54b",
                    "nonce" : "0xaceabfc4618a76e4",
                    "number" : "0x01",
                    "parentHash" : "0xd43a3fd22ea197ec691954d8c2b1cf0d69f99b7a68a2e690f551496e5a5107c8",
                    "receiptTrie" : "0x492104097be561ae597c4bfec7059fddccf05363171ee3fca75bf372cb1adf03",
                    "stateRoot" : "0xbf5e9b6997b323ff0a2cecda3ddb667c966fccbd5e75d0c2c5a81af7df1e6400",
                    "timestamp" : "0x03e8",
                    "transactionsTrie" : "0x75e61774a2ff58cbe32653420256c7f44bc715715a423b0b746d5c622979af6b",
                    "uncleHash" : "0x1dcc4de8dec75d7aab85b567b6ccd41ad312451b948a7413f0a142fd40d49347"
                },
                "rlp" : "0xf90266f901faa0d43a3fd22ea197ec691954d8c2b1cf0d69f99b7a68a2e690f551496e5a5107c8a01dcc4de8dec75d7aab85b567b6ccd41ad312451b948a7413f0a142fd40d49347942adc25665018aa1fe0e6bc666dac8fc2697ff9baa0bf5e9b6997b323ff0a2cecda3ddb667c966fccbd5e75d0c2c5a81af7df1e6400a075e61774a2ff58cbe32653420256c7f44bc715715a423b0b746d5c622979af6ba0492104097be561ae597c4bfec7059fddccf05363171ee3fca75bf372cb1adf03b901000000000000000000000000000000000000000000000000000000000000000000000000000000000000000000000000000000000000000000000000000000000000000000000000000000000000000000000000000000000000000000000000000000000000000000000000000000000000000000000000000000000000000000000000000000000000000000000000000000000000000000000000000000000000000000000000000000000000000000000000000000000000000000000000000000000000000000000000000000000000000000000000000000000000000000000000000000000000000000000000000000000000000000000000000000000083020000018405f5e1008405de24298203e880a0802456ba9a8ecfdafcbeabd365e69dc1f22b4d05ab4f9682dc143206d00da54b88aceabfc4618a76e4f866f86480018405f5e10094095e7baea6a6c7c4c2dfeb977efac326af552d87830186a0801ba088544c93a564b4c28d2ffac2074a0c55fdd4658fe0d215596ed2e32e3ef7f56ba07fb4075d54190f825d7c47bb820284757b34fd6293904a93cddb1d3aa961ac28c0",
                "transactions" : [
                    {
                        "data" : "",
                        "gasLimit" : "0x05f5e100",
                        "gasPrice" : "0x01",
                        "nonce" : "0x00",
                        "r" : "0x88544c93a564b4c28d2ffac2074a0c55fdd4658fe0d215596ed2e32e3ef7f56b",
                        "s" : "0x7fb4075d54190f825d7c47bb820284757b34fd6293904a93cddb1d3aa961ac28",
                        "to" : "0x095e7baea6a6c7c4c2dfeb977efac326af552d87",
                        "v" : "0x1b",
                        "value" : "0x0186a0"
                    }
                ],
                "uncleHeaders" : [
                ]
            }
        ],
        "genesisBlockHeader" : {
            "bloom" : "0x00000000000000000000000000000000000000000000000000000000000000000000000000000000000000000000000000000000000000000000000000000000000000000000000000000000000000000000000000000000000000000000000000000000000000000000000000000000000000000000000000000000000000000000000000000000000000000000000000000000000000000000000000000000000000000000000000000000000000000000000000000000000000000000000000000000000000000000000000000000000000000000000000000000000000000000000000000000000000000000000000000000000000000000000000000000",
            "coinbase" : "0x2adc25665018aa1fe0e6bc666dac8fc2697ff9ba",
            "difficulty" : "0x020000",
            "extraData" : "0x42",
            "gasLimit" : "0x05f5e100",
            "gasUsed" : "0x00",
            "hash" : "0xd43a3fd22ea197ec691954d8c2b1cf0d69f99b7a68a2e690f551496e5a5107c8",
            "mixHash" : "0x56e81f171bcc55a6ff8345e692c0f86e5b48e01b996cadc001622fb5e363b421",
            "nonce" : "0x0102030405060708",
            "number" : "0x00",
            "parentHash" : "0x0000000000000000000000000000000000000000000000000000000000000000",
            "receiptTrie" : "0x56e81f171bcc55a6ff8345e692c0f86e5b48e01b996cadc001622fb5e363b421",
            "stateRoot" : "0x22d5b6bc4b2b8227d523b6bf1e97a70614ab33fd53f6408472a7911a3568027e",
            "timestamp" : "0x03b6",
            "transactionsTrie" : "0x56e81f171bcc55a6ff8345e692c0f86e5b48e01b996cadc001622fb5e363b421",
            "uncleHash" : "0x1dcc4de8dec75d7aab85b567b6ccd41ad312451b948a7413f0a142fd40d49347"
        },
        "genesisRLP" : "0xf901fbf901f6a00000000000000000000000000000000000000000000000000000000000000000a01dcc4de8dec75d7aab85b567b6ccd41ad312451b948a7413f0a142fd40d49347942adc25665018aa1fe0e6bc666dac8fc2697ff9baa022d5b6bc4b2b8227d523b6bf1e97a70614ab33fd53f6408472a7911a3568027ea056e81f171bcc55a6ff8345e692c0f86e5b48e01b996cadc001622fb5e363b421a056e81f171bcc55a6ff8345e692c0f86e5b48e01b996cadc001622fb5e363b421b901000000000000000000000000000000000000000000000000000000000000000000000000000000000000000000000000000000000000000000000000000000000000000000000000000000000000000000000000000000000000000000000000000000000000000000000000000000000000000000000000000000000000000000000000000000000000000000000000000000000000000000000000000000000000000000000000000000000000000000000000000000000000000000000000000000000000000000000000000000000000000000000000000000000000000000000000000000000000000000000000000000000000000000000000000000000083020000808405f5e100808203b642a056e81f171bcc55a6ff8345e692c0f86e5b48e01b996cadc001622fb5e363b421880102030405060708c0c0",
        "lastblockhash" : "0xfaf1222cdd9ca8dfc65c48ca91eb3d2220d1e9e2606bb22b301963b4533ab2b9",
        "network" : "EIP150",
        "postState" : {
            "0x0000000000000000000000000000000000000000" : {
                "balance" : "0x0de0b6b3a76586a0",
                "code" : "",
                "nonce" : "0x00",
                "storage" : {
                }
            },
            "0x2adc25665018aa1fe0e6bc666dac8fc2697ff9ba" : {
                "balance" : "0x456391824ad22429",
                "code" : "",
                "nonce" : "0x00",
                "storage" : {
                }
            },
            "0xa94f5374fce5edbc8e2a8697c15331677e6ebf0b" : {
                "balance" : "0x0de0b6b3a1845537",
                "code" : "",
                "nonce" : "0x01",
                "storage" : {
                }
            }
        },
        "pre" : {
            "0x095e7baea6a6c7c4c2dfeb977efac326af552d87" : {
                "balance" : "0x0de0b6b3a7640000",
                "code" : "0x6001600053600160006001f0ff",
                "nonce" : "0x00",
                "storage" : {
                }
            },
            "0xa94f5374fce5edbc8e2a8697c15331677e6ebf0b" : {
                "balance" : "0x0de0b6b3a7640000",
                "code" : "",
                "nonce" : "0x00",
                "storage" : {
                }
            }
        }
    },
    "createInitFailStackUnderflow_d0g0v0_EIP158" : {
        "_info" : {
            "comment" : "",
            "filledwith" : "cpp-1.3.0+commit.6e0ce939.Linux.g++",
            "lllcversion" : "Version: 0.4.18-develop.2017.9.25+commit.a72237f2.Linux.g++",
            "source" : "src/BlockchainTestsFiller/GeneralStateTests/stCallCreateCallCodeTest/createInitFailStackUnderflow_d0g0v0Filler.json",
            "sourceHash" : "61a7de423154b3baefb67f4aa44f4676aa8c3b675e63c0febc6b58d11cd03ee4"
        },
        "blocks" : [
            {
                "blockHeader" : {
                    "bloom" : "0x00000000000000000000000000000000000000000000000000000000000000000000000000000000000000000000000000000000000000000000000000000000000000000000000000000000000000000000000000000000000000000000000000000000000000000000000000000000000000000000000000000000000000000000000000000000000000000000000000000000000000000000000000000000000000000000000000000000000000000000000000000000000000000000000000000000000000000000000000000000000000000000000000000000000000000000000000000000000000000000000000000000000000000000000000000000",
                    "coinbase" : "0x2adc25665018aa1fe0e6bc666dac8fc2697ff9ba",
                    "difficulty" : "0x020000",
                    "extraData" : "",
                    "gasLimit" : "0x05f5e100",
                    "gasUsed" : "0x05de2429",
                    "hash" : "0x7d5b5723eb15291131a55c38974e731d08814ee14571934f36359753be9f5df6",
                    "mixHash" : "0x04f236d5c6ac6e8b56fc0ca11279802e8b3547d86264c7a0f772eea14e9771b2",
                    "nonce" : "0x6573124e0c41137a",
                    "number" : "0x01",
                    "parentHash" : "0xd43a3fd22ea197ec691954d8c2b1cf0d69f99b7a68a2e690f551496e5a5107c8",
                    "receiptTrie" : "0x492104097be561ae597c4bfec7059fddccf05363171ee3fca75bf372cb1adf03",
                    "stateRoot" : "0xbf5e9b6997b323ff0a2cecda3ddb667c966fccbd5e75d0c2c5a81af7df1e6400",
                    "timestamp" : "0x03e8",
                    "transactionsTrie" : "0x75e61774a2ff58cbe32653420256c7f44bc715715a423b0b746d5c622979af6b",
                    "uncleHash" : "0x1dcc4de8dec75d7aab85b567b6ccd41ad312451b948a7413f0a142fd40d49347"
                },
                "rlp" : "0xf90266f901faa0d43a3fd22ea197ec691954d8c2b1cf0d69f99b7a68a2e690f551496e5a5107c8a01dcc4de8dec75d7aab85b567b6ccd41ad312451b948a7413f0a142fd40d49347942adc25665018aa1fe0e6bc666dac8fc2697ff9baa0bf5e9b6997b323ff0a2cecda3ddb667c966fccbd5e75d0c2c5a81af7df1e6400a075e61774a2ff58cbe32653420256c7f44bc715715a423b0b746d5c622979af6ba0492104097be561ae597c4bfec7059fddccf05363171ee3fca75bf372cb1adf03b901000000000000000000000000000000000000000000000000000000000000000000000000000000000000000000000000000000000000000000000000000000000000000000000000000000000000000000000000000000000000000000000000000000000000000000000000000000000000000000000000000000000000000000000000000000000000000000000000000000000000000000000000000000000000000000000000000000000000000000000000000000000000000000000000000000000000000000000000000000000000000000000000000000000000000000000000000000000000000000000000000000000000000000000000000000000083020000018405f5e1008405de24298203e880a004f236d5c6ac6e8b56fc0ca11279802e8b3547d86264c7a0f772eea14e9771b2886573124e0c41137af866f86480018405f5e10094095e7baea6a6c7c4c2dfeb977efac326af552d87830186a0801ba088544c93a564b4c28d2ffac2074a0c55fdd4658fe0d215596ed2e32e3ef7f56ba07fb4075d54190f825d7c47bb820284757b34fd6293904a93cddb1d3aa961ac28c0",
                "transactions" : [
                    {
                        "data" : "",
                        "gasLimit" : "0x05f5e100",
                        "gasPrice" : "0x01",
                        "nonce" : "0x00",
                        "r" : "0x88544c93a564b4c28d2ffac2074a0c55fdd4658fe0d215596ed2e32e3ef7f56b",
                        "s" : "0x7fb4075d54190f825d7c47bb820284757b34fd6293904a93cddb1d3aa961ac28",
                        "to" : "0x095e7baea6a6c7c4c2dfeb977efac326af552d87",
                        "v" : "0x1b",
                        "value" : "0x0186a0"
                    }
                ],
                "uncleHeaders" : [
                ]
            }
        ],
        "genesisBlockHeader" : {
            "bloom" : "0x00000000000000000000000000000000000000000000000000000000000000000000000000000000000000000000000000000000000000000000000000000000000000000000000000000000000000000000000000000000000000000000000000000000000000000000000000000000000000000000000000000000000000000000000000000000000000000000000000000000000000000000000000000000000000000000000000000000000000000000000000000000000000000000000000000000000000000000000000000000000000000000000000000000000000000000000000000000000000000000000000000000000000000000000000000000",
            "coinbase" : "0x2adc25665018aa1fe0e6bc666dac8fc2697ff9ba",
            "difficulty" : "0x020000",
            "extraData" : "0x42",
            "gasLimit" : "0x05f5e100",
            "gasUsed" : "0x00",
            "hash" : "0xd43a3fd22ea197ec691954d8c2b1cf0d69f99b7a68a2e690f551496e5a5107c8",
            "mixHash" : "0x56e81f171bcc55a6ff8345e692c0f86e5b48e01b996cadc001622fb5e363b421",
            "nonce" : "0x0102030405060708",
            "number" : "0x00",
            "parentHash" : "0x0000000000000000000000000000000000000000000000000000000000000000",
            "receiptTrie" : "0x56e81f171bcc55a6ff8345e692c0f86e5b48e01b996cadc001622fb5e363b421",
            "stateRoot" : "0x22d5b6bc4b2b8227d523b6bf1e97a70614ab33fd53f6408472a7911a3568027e",
            "timestamp" : "0x03b6",
            "transactionsTrie" : "0x56e81f171bcc55a6ff8345e692c0f86e5b48e01b996cadc001622fb5e363b421",
            "uncleHash" : "0x1dcc4de8dec75d7aab85b567b6ccd41ad312451b948a7413f0a142fd40d49347"
        },
        "genesisRLP" : "0xf901fbf901f6a00000000000000000000000000000000000000000000000000000000000000000a01dcc4de8dec75d7aab85b567b6ccd41ad312451b948a7413f0a142fd40d49347942adc25665018aa1fe0e6bc666dac8fc2697ff9baa022d5b6bc4b2b8227d523b6bf1e97a70614ab33fd53f6408472a7911a3568027ea056e81f171bcc55a6ff8345e692c0f86e5b48e01b996cadc001622fb5e363b421a056e81f171bcc55a6ff8345e692c0f86e5b48e01b996cadc001622fb5e363b421b901000000000000000000000000000000000000000000000000000000000000000000000000000000000000000000000000000000000000000000000000000000000000000000000000000000000000000000000000000000000000000000000000000000000000000000000000000000000000000000000000000000000000000000000000000000000000000000000000000000000000000000000000000000000000000000000000000000000000000000000000000000000000000000000000000000000000000000000000000000000000000000000000000000000000000000000000000000000000000000000000000000000000000000000000000000000083020000808405f5e100808203b642a056e81f171bcc55a6ff8345e692c0f86e5b48e01b996cadc001622fb5e363b421880102030405060708c0c0",
        "lastblockhash" : "0x7d5b5723eb15291131a55c38974e731d08814ee14571934f36359753be9f5df6",
        "network" : "EIP158",
        "postState" : {
            "0x0000000000000000000000000000000000000000" : {
                "balance" : "0x0de0b6b3a76586a0",
                "code" : "",
                "nonce" : "0x00",
                "storage" : {
                }
            },
            "0x2adc25665018aa1fe0e6bc666dac8fc2697ff9ba" : {
                "balance" : "0x456391824ad22429",
                "code" : "",
                "nonce" : "0x00",
                "storage" : {
                }
            },
            "0xa94f5374fce5edbc8e2a8697c15331677e6ebf0b" : {
                "balance" : "0x0de0b6b3a1845537",
                "code" : "",
                "nonce" : "0x01",
                "storage" : {
                }
            }
        },
        "pre" : {
            "0x095e7baea6a6c7c4c2dfeb977efac326af552d87" : {
                "balance" : "0x0de0b6b3a7640000",
                "code" : "0x6001600053600160006001f0ff",
                "nonce" : "0x00",
                "storage" : {
                }
            },
            "0xa94f5374fce5edbc8e2a8697c15331677e6ebf0b" : {
                "balance" : "0x0de0b6b3a7640000",
                "code" : "",
                "nonce" : "0x00",
                "storage" : {
                }
            }
        }
    },
    "createInitFailStackUnderflow_d0g0v0_Frontier" : {
        "_info" : {
            "comment" : "",
            "filledwith" : "cpp-1.3.0+commit.6e0ce939.Linux.g++",
            "lllcversion" : "Version: 0.4.18-develop.2017.9.25+commit.a72237f2.Linux.g++",
            "source" : "src/BlockchainTestsFiller/GeneralStateTests/stCallCreateCallCodeTest/createInitFailStackUnderflow_d0g0v0Filler.json",
            "sourceHash" : "61a7de423154b3baefb67f4aa44f4676aa8c3b675e63c0febc6b58d11cd03ee4"
        },
        "blocks" : [
            {
                "blockHeader" : {
                    "bloom" : "0x00000000000000000000000000000000000000000000000000000000000000000000000000000000000000000000000000000000000000000000000000000000000000000000000000000000000000000000000000000000000000000000000000000000000000000000000000000000000000000000000000000000000000000000000000000000000000000000000000000000000000000000000000000000000000000000000000000000000000000000000000000000000000000000000000000000000000000000000000000000000000000000000000000000000000000000000000000000000000000000000000000000000000000000000000000000",
                    "coinbase" : "0x2adc25665018aa1fe0e6bc666dac8fc2697ff9ba",
                    "difficulty" : "0x020000",
                    "extraData" : "",
                    "gasLimit" : "0x05f5e100",
                    "gasUsed" : "0x05f58340",
                    "hash" : "0xdf7a9e0ee4abd6c61054c99dbeeb149d0c4cb8b8a60fcc52f1750f17025dee8e",
                    "mixHash" : "0x99a7af71f5ef2d0a19e52872f3f76fe91c07e8485e876b8b294a44a7565355b5",
                    "nonce" : "0xfa0351a1fa87bbdc",
                    "number" : "0x01",
                    "parentHash" : "0xd43a3fd22ea197ec691954d8c2b1cf0d69f99b7a68a2e690f551496e5a5107c8",
                    "receiptTrie" : "0x297434bb102fde84e1334f2767855669b51b075f8aad50f0fec7ed27a9c2033a",
                    "stateRoot" : "0xf8ab0473a58752f3916b4bda129c722c25ba74e5bed67805d622c55fbdbc6d7d",
                    "timestamp" : "0x03e8",
                    "transactionsTrie" : "0x75e61774a2ff58cbe32653420256c7f44bc715715a423b0b746d5c622979af6b",
                    "uncleHash" : "0x1dcc4de8dec75d7aab85b567b6ccd41ad312451b948a7413f0a142fd40d49347"
                },
                "rlp" : "0xf90266f901faa0d43a3fd22ea197ec691954d8c2b1cf0d69f99b7a68a2e690f551496e5a5107c8a01dcc4de8dec75d7aab85b567b6ccd41ad312451b948a7413f0a142fd40d49347942adc25665018aa1fe0e6bc666dac8fc2697ff9baa0f8ab0473a58752f3916b4bda129c722c25ba74e5bed67805d622c55fbdbc6d7da075e61774a2ff58cbe32653420256c7f44bc715715a423b0b746d5c622979af6ba0297434bb102fde84e1334f2767855669b51b075f8aad50f0fec7ed27a9c2033ab901000000000000000000000000000000000000000000000000000000000000000000000000000000000000000000000000000000000000000000000000000000000000000000000000000000000000000000000000000000000000000000000000000000000000000000000000000000000000000000000000000000000000000000000000000000000000000000000000000000000000000000000000000000000000000000000000000000000000000000000000000000000000000000000000000000000000000000000000000000000000000000000000000000000000000000000000000000000000000000000000000000000000000000000000000000000083020000018405f5e1008405f583408203e880a099a7af71f5ef2d0a19e52872f3f76fe91c07e8485e876b8b294a44a7565355b588fa0351a1fa87bbdcf866f86480018405f5e10094095e7baea6a6c7c4c2dfeb977efac326af552d87830186a0801ba088544c93a564b4c28d2ffac2074a0c55fdd4658fe0d215596ed2e32e3ef7f56ba07fb4075d54190f825d7c47bb820284757b34fd6293904a93cddb1d3aa961ac28c0",
                "transactions" : [
                    {
                        "data" : "",
                        "gasLimit" : "0x05f5e100",
                        "gasPrice" : "0x01",
                        "nonce" : "0x00",
                        "r" : "0x88544c93a564b4c28d2ffac2074a0c55fdd4658fe0d215596ed2e32e3ef7f56b",
                        "s" : "0x7fb4075d54190f825d7c47bb820284757b34fd6293904a93cddb1d3aa961ac28",
                        "to" : "0x095e7baea6a6c7c4c2dfeb977efac326af552d87",
                        "v" : "0x1b",
                        "value" : "0x0186a0"
                    }
                ],
                "uncleHeaders" : [
                ]
            }
        ],
        "genesisBlockHeader" : {
            "bloom" : "0x00000000000000000000000000000000000000000000000000000000000000000000000000000000000000000000000000000000000000000000000000000000000000000000000000000000000000000000000000000000000000000000000000000000000000000000000000000000000000000000000000000000000000000000000000000000000000000000000000000000000000000000000000000000000000000000000000000000000000000000000000000000000000000000000000000000000000000000000000000000000000000000000000000000000000000000000000000000000000000000000000000000000000000000000000000000",
            "coinbase" : "0x2adc25665018aa1fe0e6bc666dac8fc2697ff9ba",
            "difficulty" : "0x020000",
            "extraData" : "0x42",
            "gasLimit" : "0x05f5e100",
            "gasUsed" : "0x00",
            "hash" : "0xd43a3fd22ea197ec691954d8c2b1cf0d69f99b7a68a2e690f551496e5a5107c8",
            "mixHash" : "0x56e81f171bcc55a6ff8345e692c0f86e5b48e01b996cadc001622fb5e363b421",
            "nonce" : "0x0102030405060708",
            "number" : "0x00",
            "parentHash" : "0x0000000000000000000000000000000000000000000000000000000000000000",
            "receiptTrie" : "0x56e81f171bcc55a6ff8345e692c0f86e5b48e01b996cadc001622fb5e363b421",
            "stateRoot" : "0x22d5b6bc4b2b8227d523b6bf1e97a70614ab33fd53f6408472a7911a3568027e",
            "timestamp" : "0x03b6",
            "transactionsTrie" : "0x56e81f171bcc55a6ff8345e692c0f86e5b48e01b996cadc001622fb5e363b421",
            "uncleHash" : "0x1dcc4de8dec75d7aab85b567b6ccd41ad312451b948a7413f0a142fd40d49347"
        },
        "genesisRLP" : "0xf901fbf901f6a00000000000000000000000000000000000000000000000000000000000000000a01dcc4de8dec75d7aab85b567b6ccd41ad312451b948a7413f0a142fd40d49347942adc25665018aa1fe0e6bc666dac8fc2697ff9baa022d5b6bc4b2b8227d523b6bf1e97a70614ab33fd53f6408472a7911a3568027ea056e81f171bcc55a6ff8345e692c0f86e5b48e01b996cadc001622fb5e363b421a056e81f171bcc55a6ff8345e692c0f86e5b48e01b996cadc001622fb5e363b421b901000000000000000000000000000000000000000000000000000000000000000000000000000000000000000000000000000000000000000000000000000000000000000000000000000000000000000000000000000000000000000000000000000000000000000000000000000000000000000000000000000000000000000000000000000000000000000000000000000000000000000000000000000000000000000000000000000000000000000000000000000000000000000000000000000000000000000000000000000000000000000000000000000000000000000000000000000000000000000000000000000000000000000000000000000000000083020000808405f5e100808203b642a056e81f171bcc55a6ff8345e692c0f86e5b48e01b996cadc001622fb5e363b421880102030405060708c0c0",
        "lastblockhash" : "0xdf7a9e0ee4abd6c61054c99dbeeb149d0c4cb8b8a60fcc52f1750f17025dee8e",
        "network" : "Frontier",
        "postState" : {
            "0x0000000000000000000000000000000000000000" : {
                "balance" : "0x0de0b6b3a76586a0",
                "code" : "",
                "nonce" : "0x00",
                "storage" : {
                }
            },
            "0x2adc25665018aa1fe0e6bc666dac8fc2697ff9ba" : {
                "balance" : "0x456391824ae98340",
                "code" : "",
                "nonce" : "0x00",
                "storage" : {
                }
            },
            "0xa94f5374fce5edbc8e2a8697c15331677e6ebf0b" : {
                "balance" : "0x0de0b6b3a16cf620",
                "code" : "",
                "nonce" : "0x01",
                "storage" : {
                }
            }
        },
        "pre" : {
            "0x095e7baea6a6c7c4c2dfeb977efac326af552d87" : {
                "balance" : "0x0de0b6b3a7640000",
                "code" : "0x6001600053600160006001f0ff",
                "nonce" : "0x00",
                "storage" : {
                }
            },
            "0xa94f5374fce5edbc8e2a8697c15331677e6ebf0b" : {
                "balance" : "0x0de0b6b3a7640000",
                "code" : "",
                "nonce" : "0x00",
                "storage" : {
                }
            }
        }
    },
    "createInitFailStackUnderflow_d0g0v0_Homestead" : {
        "_info" : {
            "comment" : "",
            "filledwith" : "cpp-1.3.0+commit.6e0ce939.Linux.g++",
            "lllcversion" : "Version: 0.4.18-develop.2017.9.25+commit.a72237f2.Linux.g++",
            "source" : "src/BlockchainTestsFiller/GeneralStateTests/stCallCreateCallCodeTest/createInitFailStackUnderflow_d0g0v0Filler.json",
            "sourceHash" : "61a7de423154b3baefb67f4aa44f4676aa8c3b675e63c0febc6b58d11cd03ee4"
        },
        "blocks" : [
            {
                "blockHeader" : {
                    "bloom" : "0x00000000000000000000000000000000000000000000000000000000000000000000000000000000000000000000000000000000000000000000000000000000000000000000000000000000000000000000000000000000000000000000000000000000000000000000000000000000000000000000000000000000000000000000000000000000000000000000000000000000000000000000000000000000000000000000000000000000000000000000000000000000000000000000000000000000000000000000000000000000000000000000000000000000000000000000000000000000000000000000000000000000000000000000000000000000",
                    "coinbase" : "0x2adc25665018aa1fe0e6bc666dac8fc2697ff9ba",
                    "difficulty" : "0x020000",
                    "extraData" : "",
                    "gasLimit" : "0x05f5e100",
                    "gasUsed" : "0x05f58340",
                    "hash" : "0xd8f250340aa86e48ba41d3c6b977754d6384f79bc81654eb50c7ba0ea0a12f8e",
                    "mixHash" : "0xe94dc450a1436423b3adbc637aec30691092a351e6aafdbdf8c405dc86cb292e",
                    "nonce" : "0x239e358163b0ce00",
                    "number" : "0x01",
                    "parentHash" : "0xd43a3fd22ea197ec691954d8c2b1cf0d69f99b7a68a2e690f551496e5a5107c8",
                    "receiptTrie" : "0x297434bb102fde84e1334f2767855669b51b075f8aad50f0fec7ed27a9c2033a",
                    "stateRoot" : "0xf8ab0473a58752f3916b4bda129c722c25ba74e5bed67805d622c55fbdbc6d7d",
                    "timestamp" : "0x03e8",
                    "transactionsTrie" : "0x75e61774a2ff58cbe32653420256c7f44bc715715a423b0b746d5c622979af6b",
                    "uncleHash" : "0x1dcc4de8dec75d7aab85b567b6ccd41ad312451b948a7413f0a142fd40d49347"
                },
                "rlp" : "0xf90266f901faa0d43a3fd22ea197ec691954d8c2b1cf0d69f99b7a68a2e690f551496e5a5107c8a01dcc4de8dec75d7aab85b567b6ccd41ad312451b948a7413f0a142fd40d49347942adc25665018aa1fe0e6bc666dac8fc2697ff9baa0f8ab0473a58752f3916b4bda129c722c25ba74e5bed67805d622c55fbdbc6d7da075e61774a2ff58cbe32653420256c7f44bc715715a423b0b746d5c622979af6ba0297434bb102fde84e1334f2767855669b51b075f8aad50f0fec7ed27a9c2033ab901000000000000000000000000000000000000000000000000000000000000000000000000000000000000000000000000000000000000000000000000000000000000000000000000000000000000000000000000000000000000000000000000000000000000000000000000000000000000000000000000000000000000000000000000000000000000000000000000000000000000000000000000000000000000000000000000000000000000000000000000000000000000000000000000000000000000000000000000000000000000000000000000000000000000000000000000000000000000000000000000000000000000000000000000000000000083020000018405f5e1008405f583408203e880a0e94dc450a1436423b3adbc637aec30691092a351e6aafdbdf8c405dc86cb292e88239e358163b0ce00f866f86480018405f5e10094095e7baea6a6c7c4c2dfeb977efac326af552d87830186a0801ba088544c93a564b4c28d2ffac2074a0c55fdd4658fe0d215596ed2e32e3ef7f56ba07fb4075d54190f825d7c47bb820284757b34fd6293904a93cddb1d3aa961ac28c0",
                "transactions" : [
                    {
                        "data" : "",
                        "gasLimit" : "0x05f5e100",
                        "gasPrice" : "0x01",
                        "nonce" : "0x00",
                        "r" : "0x88544c93a564b4c28d2ffac2074a0c55fdd4658fe0d215596ed2e32e3ef7f56b",
                        "s" : "0x7fb4075d54190f825d7c47bb820284757b34fd6293904a93cddb1d3aa961ac28",
                        "to" : "0x095e7baea6a6c7c4c2dfeb977efac326af552d87",
                        "v" : "0x1b",
                        "value" : "0x0186a0"
                    }
                ],
                "uncleHeaders" : [
                ]
            }
        ],
        "genesisBlockHeader" : {
            "bloom" : "0x00000000000000000000000000000000000000000000000000000000000000000000000000000000000000000000000000000000000000000000000000000000000000000000000000000000000000000000000000000000000000000000000000000000000000000000000000000000000000000000000000000000000000000000000000000000000000000000000000000000000000000000000000000000000000000000000000000000000000000000000000000000000000000000000000000000000000000000000000000000000000000000000000000000000000000000000000000000000000000000000000000000000000000000000000000000",
            "coinbase" : "0x2adc25665018aa1fe0e6bc666dac8fc2697ff9ba",
            "difficulty" : "0x020000",
            "extraData" : "0x42",
            "gasLimit" : "0x05f5e100",
            "gasUsed" : "0x00",
            "hash" : "0xd43a3fd22ea197ec691954d8c2b1cf0d69f99b7a68a2e690f551496e5a5107c8",
            "mixHash" : "0x56e81f171bcc55a6ff8345e692c0f86e5b48e01b996cadc001622fb5e363b421",
            "nonce" : "0x0102030405060708",
            "number" : "0x00",
            "parentHash" : "0x0000000000000000000000000000000000000000000000000000000000000000",
            "receiptTrie" : "0x56e81f171bcc55a6ff8345e692c0f86e5b48e01b996cadc001622fb5e363b421",
            "stateRoot" : "0x22d5b6bc4b2b8227d523b6bf1e97a70614ab33fd53f6408472a7911a3568027e",
            "timestamp" : "0x03b6",
            "transactionsTrie" : "0x56e81f171bcc55a6ff8345e692c0f86e5b48e01b996cadc001622fb5e363b421",
            "uncleHash" : "0x1dcc4de8dec75d7aab85b567b6ccd41ad312451b948a7413f0a142fd40d49347"
        },
        "genesisRLP" : "0xf901fbf901f6a00000000000000000000000000000000000000000000000000000000000000000a01dcc4de8dec75d7aab85b567b6ccd41ad312451b948a7413f0a142fd40d49347942adc25665018aa1fe0e6bc666dac8fc2697ff9baa022d5b6bc4b2b8227d523b6bf1e97a70614ab33fd53f6408472a7911a3568027ea056e81f171bcc55a6ff8345e692c0f86e5b48e01b996cadc001622fb5e363b421a056e81f171bcc55a6ff8345e692c0f86e5b48e01b996cadc001622fb5e363b421b901000000000000000000000000000000000000000000000000000000000000000000000000000000000000000000000000000000000000000000000000000000000000000000000000000000000000000000000000000000000000000000000000000000000000000000000000000000000000000000000000000000000000000000000000000000000000000000000000000000000000000000000000000000000000000000000000000000000000000000000000000000000000000000000000000000000000000000000000000000000000000000000000000000000000000000000000000000000000000000000000000000000000000000000000000000000083020000808405f5e100808203b642a056e81f171bcc55a6ff8345e692c0f86e5b48e01b996cadc001622fb5e363b421880102030405060708c0c0",
        "lastblockhash" : "0xd8f250340aa86e48ba41d3c6b977754d6384f79bc81654eb50c7ba0ea0a12f8e",
        "network" : "Homestead",
        "postState" : {
            "0x0000000000000000000000000000000000000000" : {
                "balance" : "0x0de0b6b3a76586a0",
                "code" : "",
                "nonce" : "0x00",
                "storage" : {
                }
            },
            "0x2adc25665018aa1fe0e6bc666dac8fc2697ff9ba" : {
                "balance" : "0x456391824ae98340",
                "code" : "",
                "nonce" : "0x00",
                "storage" : {
                }
            },
            "0xa94f5374fce5edbc8e2a8697c15331677e6ebf0b" : {
                "balance" : "0x0de0b6b3a16cf620",
                "code" : "",
                "nonce" : "0x01",
                "storage" : {
                }
            }
        },
        "pre" : {
            "0x095e7baea6a6c7c4c2dfeb977efac326af552d87" : {
                "balance" : "0x0de0b6b3a7640000",
                "code" : "0x6001600053600160006001f0ff",
                "nonce" : "0x00",
                "storage" : {
                }
            },
            "0xa94f5374fce5edbc8e2a8697c15331677e6ebf0b" : {
                "balance" : "0x0de0b6b3a7640000",
                "code" : "",
                "nonce" : "0x00",
                "storage" : {
                }
            }
        }
    }
}