{
    "CallContractToCreateContractNoCash_d0g0v0_Byzantium" : {
        "_info" : {
            "comment" : "",
            "filledwith" : "cpp-1.3.0+commit.6e0ce939.Linux.g++",
            "lllcversion" : "Version: 0.4.18-develop.2017.9.25+commit.a72237f2.Linux.g++",
            "source" : "src/BlockchainTestsFiller/GeneralStateTests/stInitCodeTest/CallContractToCreateContractNoCash_d0g0v0Filler.json",
            "sourceHash" : "e2a5f99a68f484d994e0fc89a4a649a3bb4b3c32bed59df75b3f77aef7c41e07"
        },
        "blocks" : [
            {
                "blockHeader" : {
                    "bloom" : "0x00000000000000000000000000000000000000000000000000000000000000000000000000000000000000000000000000000000000000000000000000000000000000000000000000000000000000000000000000000000000000000000000000000000000000000000000000000000000000000000000000000000000000000000000000000000000000000000000000000000000000000000000000000000000000000000000000000000000000000000000000000000000000000000000000000000000000000000000000000000000000000000000000000000000000000000000000000000000000000000000000000000000000000000000000000000",
                    "coinbase" : "0x2adc25665018aa1fe0e6bc666dac8fc2697ff9ba",
                    "difficulty" : "0x020000",
                    "extraData" : "",
                    "gasLimit" : "0x05f5e100",
                    "gasUsed" : "0xe2ac",
                    "hash" : "0x22327d091c04e13c0a5c4587f3228e690e5c4d0293e82536b9b8b317eb9a8a5a",
                    "mixHash" : "0xe22390da457794f564b859adb6defd2e58d0d94cd4ab1b5ff2572788e9d123f3",
                    "nonce" : "0x68480a5cbfe18838",
                    "number" : "0x01",
                    "parentHash" : "0xbc06bf689d79c7b72fd952f319fd5f95ea6b84a71b5560c3f06cd5a3c5cc5659",
                    "receiptTrie" : "0xc8bc98f9a7d4124d67e2833a6112bcafdaccadb314a6663e2eb48b495499f59f",
                    "stateRoot" : "0xcac0fca8f8df83b6f698ede3e66bc85bd29d72045a1eef1070e6cc83c9b8c3da",
                    "timestamp" : "0x03e8",
                    "transactionsTrie" : "0xc9736bc50603440b31ff3f23c73baaab17b407a5db2b2aea4ea53a58a970ee0b",
                    "uncleHash" : "0x1dcc4de8dec75d7aab85b567b6ccd41ad312451b948a7413f0a142fd40d49347"
                },
                "rlp" : "0xf90261f901f8a0bc06bf689d79c7b72fd952f319fd5f95ea6b84a71b5560c3f06cd5a3c5cc5659a01dcc4de8dec75d7aab85b567b6ccd41ad312451b948a7413f0a142fd40d49347942adc25665018aa1fe0e6bc666dac8fc2697ff9baa0cac0fca8f8df83b6f698ede3e66bc85bd29d72045a1eef1070e6cc83c9b8c3daa0c9736bc50603440b31ff3f23c73baaab17b407a5db2b2aea4ea53a58a970ee0ba0c8bc98f9a7d4124d67e2833a6112bcafdaccadb314a6663e2eb48b495499f59fb901000000000000000000000000000000000000000000000000000000000000000000000000000000000000000000000000000000000000000000000000000000000000000000000000000000000000000000000000000000000000000000000000000000000000000000000000000000000000000000000000000000000000000000000000000000000000000000000000000000000000000000000000000000000000000000000000000000000000000000000000000000000000000000000000000000000000000000000000000000000000000000000000000000000000000000000000000000000000000000000000000000000000000000000000000000000083020000018405f5e10082e2ac8203e880a0e22390da457794f564b859adb6defd2e58d0d94cd4ab1b5ff2572788e9d123f38868480a5cbfe18838f863f86180018401312d0094095e7baea6a6c7c4c2dfeb977efac326af552d8780001ca0a5babdfe77e19c1014d3aa0b7f949c3b47c9beb0beaadd25f81f121f7852d700a079cdf46c2587c800f8d808ab682546ae36b37d05dfa55e3f8c9d36859386dabfc0",
                "transactions" : [
                    {
                        "data" : "0x00",
                        "gasLimit" : "0x01312d00",
                        "gasPrice" : "0x01",
                        "nonce" : "0x00",
                        "r" : "0xa5babdfe77e19c1014d3aa0b7f949c3b47c9beb0beaadd25f81f121f7852d700",
                        "s" : "0x79cdf46c2587c800f8d808ab682546ae36b37d05dfa55e3f8c9d36859386dabf",
                        "to" : "0x095e7baea6a6c7c4c2dfeb977efac326af552d87",
                        "v" : "0x1c",
                        "value" : "0x00"
                    }
                ],
                "uncleHeaders" : [
                ]
            }
        ],
        "genesisBlockHeader" : {
            "bloom" : "0x00000000000000000000000000000000000000000000000000000000000000000000000000000000000000000000000000000000000000000000000000000000000000000000000000000000000000000000000000000000000000000000000000000000000000000000000000000000000000000000000000000000000000000000000000000000000000000000000000000000000000000000000000000000000000000000000000000000000000000000000000000000000000000000000000000000000000000000000000000000000000000000000000000000000000000000000000000000000000000000000000000000000000000000000000000000",
            "coinbase" : "0x2adc25665018aa1fe0e6bc666dac8fc2697ff9ba",
            "difficulty" : "0x020000",
            "extraData" : "0x42",
            "gasLimit" : "0x05f5e100",
            "gasUsed" : "0x00",
            "hash" : "0xbc06bf689d79c7b72fd952f319fd5f95ea6b84a71b5560c3f06cd5a3c5cc5659",
            "mixHash" : "0x56e81f171bcc55a6ff8345e692c0f86e5b48e01b996cadc001622fb5e363b421",
            "nonce" : "0x0102030405060708",
            "number" : "0x00",
            "parentHash" : "0x0000000000000000000000000000000000000000000000000000000000000000",
            "receiptTrie" : "0x56e81f171bcc55a6ff8345e692c0f86e5b48e01b996cadc001622fb5e363b421",
            "stateRoot" : "0x971b6b9053c66f3283e93f3fda3df98ef152022d76a0881c1aa29c1261ab372a",
            "timestamp" : "0x03b6",
            "transactionsTrie" : "0x56e81f171bcc55a6ff8345e692c0f86e5b48e01b996cadc001622fb5e363b421",
            "uncleHash" : "0x1dcc4de8dec75d7aab85b567b6ccd41ad312451b948a7413f0a142fd40d49347"
        },
        "genesisRLP" : "0xf901fbf901f6a00000000000000000000000000000000000000000000000000000000000000000a01dcc4de8dec75d7aab85b567b6ccd41ad312451b948a7413f0a142fd40d49347942adc25665018aa1fe0e6bc666dac8fc2697ff9baa0971b6b9053c66f3283e93f3fda3df98ef152022d76a0881c1aa29c1261ab372aa056e81f171bcc55a6ff8345e692c0f86e5b48e01b996cadc001622fb5e363b421a056e81f171bcc55a6ff8345e692c0f86e5b48e01b996cadc001622fb5e363b421b901000000000000000000000000000000000000000000000000000000000000000000000000000000000000000000000000000000000000000000000000000000000000000000000000000000000000000000000000000000000000000000000000000000000000000000000000000000000000000000000000000000000000000000000000000000000000000000000000000000000000000000000000000000000000000000000000000000000000000000000000000000000000000000000000000000000000000000000000000000000000000000000000000000000000000000000000000000000000000000000000000000000000000000000000000000000083020000808405f5e100808203b642a056e81f171bcc55a6ff8345e692c0f86e5b48e01b996cadc001622fb5e363b421880102030405060708c0c0",
        "lastblockhash" : "0x22327d091c04e13c0a5c4587f3228e690e5c4d0293e82536b9b8b317eb9a8a5a",
        "network" : "Byzantium",
        "postState" : {
            "0x095e7baea6a6c7c4c2dfeb977efac326af552d87" : {
                "balance" : "0x2710",
                "code" : "0x74600c60005566602060406000f060205260076039f36000526015600b620186a0f0600055",
                "nonce" : "0x00",
                "storage" : {
                }
            },
            "0x2adc25665018aa1fe0e6bc666dac8fc2697ff9ba" : {
                "balance" : "0x29a2241af62ce2ac",
                "code" : "",
                "nonce" : "0x00",
                "storage" : {
                }
            },
            "0xa94f5374fce5edbc8e2a8697c15331677e6ebf0b" : {
                "balance" : "0x05f4fe54",
                "code" : "",
                "nonce" : "0x01",
                "storage" : {
                }
            }
        },
        "pre" : {
            "0x095e7baea6a6c7c4c2dfeb977efac326af552d87" : {
                "balance" : "0x2710",
                "code" : "0x74600c60005566602060406000f060205260076039f36000526015600b620186a0f0600055",
                "nonce" : "0x00",
                "storage" : {
                }
            },
            "0xa94f5374fce5edbc8e2a8697c15331677e6ebf0b" : {
                "balance" : "0x05f5e100",
                "code" : "",
                "nonce" : "0x00",
                "storage" : {
                }
            }
        }
    },
    "CallContractToCreateContractNoCash_d0g0v0_EIP150" : {
        "_info" : {
            "comment" : "",
            "filledwith" : "cpp-1.3.0+commit.6e0ce939.Linux.g++",
            "lllcversion" : "Version: 0.4.18-develop.2017.9.25+commit.a72237f2.Linux.g++",
            "source" : "src/BlockchainTestsFiller/GeneralStateTests/stInitCodeTest/CallContractToCreateContractNoCash_d0g0v0Filler.json",
            "sourceHash" : "e2a5f99a68f484d994e0fc89a4a649a3bb4b3c32bed59df75b3f77aef7c41e07"
        },
        "blocks" : [
            {
                "blockHeader" : {
                    "bloom" : "0x00000000000000000000000000000000000000000000000000000000000000000000000000000000000000000000000000000000000000000000000000000000000000000000000000000000000000000000000000000000000000000000000000000000000000000000000000000000000000000000000000000000000000000000000000000000000000000000000000000000000000000000000000000000000000000000000000000000000000000000000000000000000000000000000000000000000000000000000000000000000000000000000000000000000000000000000000000000000000000000000000000000000000000000000000000000",
                    "coinbase" : "0x2adc25665018aa1fe0e6bc666dac8fc2697ff9ba",
                    "difficulty" : "0x020000",
                    "extraData" : "",
                    "gasLimit" : "0x05f5e100",
                    "gasUsed" : "0xe2ac",
                    "hash" : "0x27871a868172c19f6b2f5d7178abb05d905aa12d4a246cf354ff11babe621352",
                    "mixHash" : "0x18b401858631ede5c8808b4977dcf6bd2687c431150e0bac750166d2ebe2ee02",
                    "nonce" : "0xd228c9b45f8eddfb",
                    "number" : "0x01",
                    "parentHash" : "0xbc06bf689d79c7b72fd952f319fd5f95ea6b84a71b5560c3f06cd5a3c5cc5659",
                    "receiptTrie" : "0x9c189254a2bde6f29e978f6cb6a4c75dfdd5ec21071a1be944f0ec42077e25e4",
                    "stateRoot" : "0x6ce3d68bac2a89bb8c5ec663f0605a87a6d86d1b28c817a5a456d8afd9ddc99e",
                    "timestamp" : "0x03e8",
                    "transactionsTrie" : "0xc9736bc50603440b31ff3f23c73baaab17b407a5db2b2aea4ea53a58a970ee0b",
                    "uncleHash" : "0x1dcc4de8dec75d7aab85b567b6ccd41ad312451b948a7413f0a142fd40d49347"
                },
                "rlp" : "0xf90261f901f8a0bc06bf689d79c7b72fd952f319fd5f95ea6b84a71b5560c3f06cd5a3c5cc5659a01dcc4de8dec75d7aab85b567b6ccd41ad312451b948a7413f0a142fd40d49347942adc25665018aa1fe0e6bc666dac8fc2697ff9baa06ce3d68bac2a89bb8c5ec663f0605a87a6d86d1b28c817a5a456d8afd9ddc99ea0c9736bc50603440b31ff3f23c73baaab17b407a5db2b2aea4ea53a58a970ee0ba09c189254a2bde6f29e978f6cb6a4c75dfdd5ec21071a1be944f0ec42077e25e4b901000000000000000000000000000000000000000000000000000000000000000000000000000000000000000000000000000000000000000000000000000000000000000000000000000000000000000000000000000000000000000000000000000000000000000000000000000000000000000000000000000000000000000000000000000000000000000000000000000000000000000000000000000000000000000000000000000000000000000000000000000000000000000000000000000000000000000000000000000000000000000000000000000000000000000000000000000000000000000000000000000000000000000000000000000000000083020000018405f5e10082e2ac8203e880a018b401858631ede5c8808b4977dcf6bd2687c431150e0bac750166d2ebe2ee0288d228c9b45f8eddfbf863f86180018401312d0094095e7baea6a6c7c4c2dfeb977efac326af552d8780001ca0a5babdfe77e19c1014d3aa0b7f949c3b47c9beb0beaadd25f81f121f7852d700a079cdf46c2587c800f8d808ab682546ae36b37d05dfa55e3f8c9d36859386dabfc0",
                "transactions" : [
                    {
                        "data" : "0x00",
                        "gasLimit" : "0x01312d00",
                        "gasPrice" : "0x01",
                        "nonce" : "0x00",
                        "r" : "0xa5babdfe77e19c1014d3aa0b7f949c3b47c9beb0beaadd25f81f121f7852d700",
                        "s" : "0x79cdf46c2587c800f8d808ab682546ae36b37d05dfa55e3f8c9d36859386dabf",
                        "to" : "0x095e7baea6a6c7c4c2dfeb977efac326af552d87",
                        "v" : "0x1c",
                        "value" : "0x00"
                    }
                ],
                "uncleHeaders" : [
                ]
            }
        ],
        "genesisBlockHeader" : {
            "bloom" : "0x00000000000000000000000000000000000000000000000000000000000000000000000000000000000000000000000000000000000000000000000000000000000000000000000000000000000000000000000000000000000000000000000000000000000000000000000000000000000000000000000000000000000000000000000000000000000000000000000000000000000000000000000000000000000000000000000000000000000000000000000000000000000000000000000000000000000000000000000000000000000000000000000000000000000000000000000000000000000000000000000000000000000000000000000000000000",
            "coinbase" : "0x2adc25665018aa1fe0e6bc666dac8fc2697ff9ba",
            "difficulty" : "0x020000",
            "extraData" : "0x42",
            "gasLimit" : "0x05f5e100",
            "gasUsed" : "0x00",
            "hash" : "0xbc06bf689d79c7b72fd952f319fd5f95ea6b84a71b5560c3f06cd5a3c5cc5659",
            "mixHash" : "0x56e81f171bcc55a6ff8345e692c0f86e5b48e01b996cadc001622fb5e363b421",
            "nonce" : "0x0102030405060708",
            "number" : "0x00",
            "parentHash" : "0x0000000000000000000000000000000000000000000000000000000000000000",
            "receiptTrie" : "0x56e81f171bcc55a6ff8345e692c0f86e5b48e01b996cadc001622fb5e363b421",
            "stateRoot" : "0x971b6b9053c66f3283e93f3fda3df98ef152022d76a0881c1aa29c1261ab372a",
            "timestamp" : "0x03b6",
            "transactionsTrie" : "0x56e81f171bcc55a6ff8345e692c0f86e5b48e01b996cadc001622fb5e363b421",
            "uncleHash" : "0x1dcc4de8dec75d7aab85b567b6ccd41ad312451b948a7413f0a142fd40d49347"
        },
        "genesisRLP" : "0xf901fbf901f6a00000000000000000000000000000000000000000000000000000000000000000a01dcc4de8dec75d7aab85b567b6ccd41ad312451b948a7413f0a142fd40d49347942adc25665018aa1fe0e6bc666dac8fc2697ff9baa0971b6b9053c66f3283e93f3fda3df98ef152022d76a0881c1aa29c1261ab372aa056e81f171bcc55a6ff8345e692c0f86e5b48e01b996cadc001622fb5e363b421a056e81f171bcc55a6ff8345e692c0f86e5b48e01b996cadc001622fb5e363b421b901000000000000000000000000000000000000000000000000000000000000000000000000000000000000000000000000000000000000000000000000000000000000000000000000000000000000000000000000000000000000000000000000000000000000000000000000000000000000000000000000000000000000000000000000000000000000000000000000000000000000000000000000000000000000000000000000000000000000000000000000000000000000000000000000000000000000000000000000000000000000000000000000000000000000000000000000000000000000000000000000000000000000000000000000000000000083020000808405f5e100808203b642a056e81f171bcc55a6ff8345e692c0f86e5b48e01b996cadc001622fb5e363b421880102030405060708c0c0",
        "lastblockhash" : "0x27871a868172c19f6b2f5d7178abb05d905aa12d4a246cf354ff11babe621352",
        "network" : "EIP150",
        "postState" : {
            "0x095e7baea6a6c7c4c2dfeb977efac326af552d87" : {
                "balance" : "0x2710",
                "code" : "0x74600c60005566602060406000f060205260076039f36000526015600b620186a0f0600055",
                "nonce" : "0x00",
                "storage" : {
                }
            },
            "0x2adc25665018aa1fe0e6bc666dac8fc2697ff9ba" : {
                "balance" : "0x4563918244f4e2ac",
                "code" : "",
                "nonce" : "0x00",
                "storage" : {
                }
            },
            "0xa94f5374fce5edbc8e2a8697c15331677e6ebf0b" : {
                "balance" : "0x05f4fe54",
                "code" : "",
                "nonce" : "0x01",
                "storage" : {
                }
            }
        },
        "pre" : {
            "0x095e7baea6a6c7c4c2dfeb977efac326af552d87" : {
                "balance" : "0x2710",
                "code" : "0x74600c60005566602060406000f060205260076039f36000526015600b620186a0f0600055",
                "nonce" : "0x00",
                "storage" : {
                }
            },
            "0xa94f5374fce5edbc8e2a8697c15331677e6ebf0b" : {
                "balance" : "0x05f5e100",
                "code" : "",
                "nonce" : "0x00",
                "storage" : {
                }
            }
        }
    },
    "CallContractToCreateContractNoCash_d0g0v0_EIP158" : {
        "_info" : {
            "comment" : "",
            "filledwith" : "cpp-1.3.0+commit.6e0ce939.Linux.g++",
            "lllcversion" : "Version: 0.4.18-develop.2017.9.25+commit.a72237f2.Linux.g++",
            "source" : "src/BlockchainTestsFiller/GeneralStateTests/stInitCodeTest/CallContractToCreateContractNoCash_d0g0v0Filler.json",
            "sourceHash" : "e2a5f99a68f484d994e0fc89a4a649a3bb4b3c32bed59df75b3f77aef7c41e07"
        },
        "blocks" : [
            {
                "blockHeader" : {
                    "bloom" : "0x00000000000000000000000000000000000000000000000000000000000000000000000000000000000000000000000000000000000000000000000000000000000000000000000000000000000000000000000000000000000000000000000000000000000000000000000000000000000000000000000000000000000000000000000000000000000000000000000000000000000000000000000000000000000000000000000000000000000000000000000000000000000000000000000000000000000000000000000000000000000000000000000000000000000000000000000000000000000000000000000000000000000000000000000000000000",
                    "coinbase" : "0x2adc25665018aa1fe0e6bc666dac8fc2697ff9ba",
                    "difficulty" : "0x020000",
                    "extraData" : "",
                    "gasLimit" : "0x05f5e100",
                    "gasUsed" : "0xe2ac",
                    "hash" : "0x294f2111407c3be58c5f27a11b03d3168d4656bc17beae780e931fb3864f1d5c",
                    "mixHash" : "0x4b2299ae42bf5886bc45259fb16091922871ec8e9ce2fa9d445530c1410bc348",
                    "nonce" : "0xab8b5bcf400d6480",
                    "number" : "0x01",
                    "parentHash" : "0xbc06bf689d79c7b72fd952f319fd5f95ea6b84a71b5560c3f06cd5a3c5cc5659",
                    "receiptTrie" : "0x9c189254a2bde6f29e978f6cb6a4c75dfdd5ec21071a1be944f0ec42077e25e4",
                    "stateRoot" : "0x6ce3d68bac2a89bb8c5ec663f0605a87a6d86d1b28c817a5a456d8afd9ddc99e",
                    "timestamp" : "0x03e8",
                    "transactionsTrie" : "0xc9736bc50603440b31ff3f23c73baaab17b407a5db2b2aea4ea53a58a970ee0b",
                    "uncleHash" : "0x1dcc4de8dec75d7aab85b567b6ccd41ad312451b948a7413f0a142fd40d49347"
                },
                "rlp" : "0xf90261f901f8a0bc06bf689d79c7b72fd952f319fd5f95ea6b84a71b5560c3f06cd5a3c5cc5659a01dcc4de8dec75d7aab85b567b6ccd41ad312451b948a7413f0a142fd40d49347942adc25665018aa1fe0e6bc666dac8fc2697ff9baa06ce3d68bac2a89bb8c5ec663f0605a87a6d86d1b28c817a5a456d8afd9ddc99ea0c9736bc50603440b31ff3f23c73baaab17b407a5db2b2aea4ea53a58a970ee0ba09c189254a2bde6f29e978f6cb6a4c75dfdd5ec21071a1be944f0ec42077e25e4b901000000000000000000000000000000000000000000000000000000000000000000000000000000000000000000000000000000000000000000000000000000000000000000000000000000000000000000000000000000000000000000000000000000000000000000000000000000000000000000000000000000000000000000000000000000000000000000000000000000000000000000000000000000000000000000000000000000000000000000000000000000000000000000000000000000000000000000000000000000000000000000000000000000000000000000000000000000000000000000000000000000000000000000000000000000000083020000018405f5e10082e2ac8203e880a04b2299ae42bf5886bc45259fb16091922871ec8e9ce2fa9d445530c1410bc34888ab8b5bcf400d6480f863f86180018401312d0094095e7baea6a6c7c4c2dfeb977efac326af552d8780001ca0a5babdfe77e19c1014d3aa0b7f949c3b47c9beb0beaadd25f81f121f7852d700a079cdf46c2587c800f8d808ab682546ae36b37d05dfa55e3f8c9d36859386dabfc0",
                "transactions" : [
                    {
                        "data" : "0x00",
                        "gasLimit" : "0x01312d00",
                        "gasPrice" : "0x01",
                        "nonce" : "0x00",
                        "r" : "0xa5babdfe77e19c1014d3aa0b7f949c3b47c9beb0beaadd25f81f121f7852d700",
                        "s" : "0x79cdf46c2587c800f8d808ab682546ae36b37d05dfa55e3f8c9d36859386dabf",
                        "to" : "0x095e7baea6a6c7c4c2dfeb977efac326af552d87",
                        "v" : "0x1c",
                        "value" : "0x00"
                    }
                ],
                "uncleHeaders" : [
                ]
            }
        ],
        "genesisBlockHeader" : {
            "bloom" : "0x00000000000000000000000000000000000000000000000000000000000000000000000000000000000000000000000000000000000000000000000000000000000000000000000000000000000000000000000000000000000000000000000000000000000000000000000000000000000000000000000000000000000000000000000000000000000000000000000000000000000000000000000000000000000000000000000000000000000000000000000000000000000000000000000000000000000000000000000000000000000000000000000000000000000000000000000000000000000000000000000000000000000000000000000000000000",
            "coinbase" : "0x2adc25665018aa1fe0e6bc666dac8fc2697ff9ba",
            "difficulty" : "0x020000",
            "extraData" : "0x42",
            "gasLimit" : "0x05f5e100",
            "gasUsed" : "0x00",
            "hash" : "0xbc06bf689d79c7b72fd952f319fd5f95ea6b84a71b5560c3f06cd5a3c5cc5659",
            "mixHash" : "0x56e81f171bcc55a6ff8345e692c0f86e5b48e01b996cadc001622fb5e363b421",
            "nonce" : "0x0102030405060708",
            "number" : "0x00",
            "parentHash" : "0x0000000000000000000000000000000000000000000000000000000000000000",
            "receiptTrie" : "0x56e81f171bcc55a6ff8345e692c0f86e5b48e01b996cadc001622fb5e363b421",
            "stateRoot" : "0x971b6b9053c66f3283e93f3fda3df98ef152022d76a0881c1aa29c1261ab372a",
            "timestamp" : "0x03b6",
            "transactionsTrie" : "0x56e81f171bcc55a6ff8345e692c0f86e5b48e01b996cadc001622fb5e363b421",
            "uncleHash" : "0x1dcc4de8dec75d7aab85b567b6ccd41ad312451b948a7413f0a142fd40d49347"
        },
        "genesisRLP" : "0xf901fbf901f6a00000000000000000000000000000000000000000000000000000000000000000a01dcc4de8dec75d7aab85b567b6ccd41ad312451b948a7413f0a142fd40d49347942adc25665018aa1fe0e6bc666dac8fc2697ff9baa0971b6b9053c66f3283e93f3fda3df98ef152022d76a0881c1aa29c1261ab372aa056e81f171bcc55a6ff8345e692c0f86e5b48e01b996cadc001622fb5e363b421a056e81f171bcc55a6ff8345e692c0f86e5b48e01b996cadc001622fb5e363b421b901000000000000000000000000000000000000000000000000000000000000000000000000000000000000000000000000000000000000000000000000000000000000000000000000000000000000000000000000000000000000000000000000000000000000000000000000000000000000000000000000000000000000000000000000000000000000000000000000000000000000000000000000000000000000000000000000000000000000000000000000000000000000000000000000000000000000000000000000000000000000000000000000000000000000000000000000000000000000000000000000000000000000000000000000000000000083020000808405f5e100808203b642a056e81f171bcc55a6ff8345e692c0f86e5b48e01b996cadc001622fb5e363b421880102030405060708c0c0",
        "lastblockhash" : "0x294f2111407c3be58c5f27a11b03d3168d4656bc17beae780e931fb3864f1d5c",
        "network" : "EIP158",
        "postState" : {
            "0x095e7baea6a6c7c4c2dfeb977efac326af552d87" : {
                "balance" : "0x2710",
                "code" : "0x74600c60005566602060406000f060205260076039f36000526015600b620186a0f0600055",
                "nonce" : "0x00",
                "storage" : {
                }
            },
            "0x2adc25665018aa1fe0e6bc666dac8fc2697ff9ba" : {
                "balance" : "0x4563918244f4e2ac",
                "code" : "",
                "nonce" : "0x00",
                "storage" : {
                }
            },
            "0xa94f5374fce5edbc8e2a8697c15331677e6ebf0b" : {
                "balance" : "0x05f4fe54",
                "code" : "",
                "nonce" : "0x01",
                "storage" : {
                }
            }
        },
        "pre" : {
            "0x095e7baea6a6c7c4c2dfeb977efac326af552d87" : {
                "balance" : "0x2710",
                "code" : "0x74600c60005566602060406000f060205260076039f36000526015600b620186a0f0600055",
                "nonce" : "0x00",
                "storage" : {
                }
            },
            "0xa94f5374fce5edbc8e2a8697c15331677e6ebf0b" : {
                "balance" : "0x05f5e100",
                "code" : "",
                "nonce" : "0x00",
                "storage" : {
                }
            }
        }
    },
    "CallContractToCreateContractNoCash_d0g0v0_Frontier" : {
        "_info" : {
            "comment" : "",
            "filledwith" : "cpp-1.3.0+commit.6e0ce939.Linux.g++",
            "lllcversion" : "Version: 0.4.18-develop.2017.9.25+commit.a72237f2.Linux.g++",
            "source" : "src/BlockchainTestsFiller/GeneralStateTests/stInitCodeTest/CallContractToCreateContractNoCash_d0g0v0Filler.json",
            "sourceHash" : "e2a5f99a68f484d994e0fc89a4a649a3bb4b3c32bed59df75b3f77aef7c41e07"
        },
        "blocks" : [
            {
                "blockHeader" : {
                    "bloom" : "0x00000000000000000000000000000000000000000000000000000000000000000000000000000000000000000000000000000000000000000000000000000000000000000000000000000000000000000000000000000000000000000000000000000000000000000000000000000000000000000000000000000000000000000000000000000000000000000000000000000000000000000000000000000000000000000000000000000000000000000000000000000000000000000000000000000000000000000000000000000000000000000000000000000000000000000000000000000000000000000000000000000000000000000000000000000000",
                    "coinbase" : "0x2adc25665018aa1fe0e6bc666dac8fc2697ff9ba",
                    "difficulty" : "0x020000",
                    "extraData" : "",
                    "gasLimit" : "0x05f5e100",
                    "gasUsed" : "0xe2ac",
                    "hash" : "0x4047314f48dd2b4efdea7bbba02d485780231e437049d53a2c3f20065dd1bb06",
                    "mixHash" : "0x1f44eff6dc1a4fe90731db9d9a5c78f0b6224461a64fd97a7a66f6d7aeea6c80",
                    "nonce" : "0x6eb6a67041bb5229",
                    "number" : "0x01",
                    "parentHash" : "0xbc06bf689d79c7b72fd952f319fd5f95ea6b84a71b5560c3f06cd5a3c5cc5659",
                    "receiptTrie" : "0x9c189254a2bde6f29e978f6cb6a4c75dfdd5ec21071a1be944f0ec42077e25e4",
                    "stateRoot" : "0x6ce3d68bac2a89bb8c5ec663f0605a87a6d86d1b28c817a5a456d8afd9ddc99e",
                    "timestamp" : "0x03e8",
                    "transactionsTrie" : "0xc9736bc50603440b31ff3f23c73baaab17b407a5db2b2aea4ea53a58a970ee0b",
                    "uncleHash" : "0x1dcc4de8dec75d7aab85b567b6ccd41ad312451b948a7413f0a142fd40d49347"
                },
                "rlp" : "0xf90261f901f8a0bc06bf689d79c7b72fd952f319fd5f95ea6b84a71b5560c3f06cd5a3c5cc5659a01dcc4de8dec75d7aab85b567b6ccd41ad312451b948a7413f0a142fd40d49347942adc25665018aa1fe0e6bc666dac8fc2697ff9baa06ce3d68bac2a89bb8c5ec663f0605a87a6d86d1b28c817a5a456d8afd9ddc99ea0c9736bc50603440b31ff3f23c73baaab17b407a5db2b2aea4ea53a58a970ee0ba09c189254a2bde6f29e978f6cb6a4c75dfdd5ec21071a1be944f0ec42077e25e4b901000000000000000000000000000000000000000000000000000000000000000000000000000000000000000000000000000000000000000000000000000000000000000000000000000000000000000000000000000000000000000000000000000000000000000000000000000000000000000000000000000000000000000000000000000000000000000000000000000000000000000000000000000000000000000000000000000000000000000000000000000000000000000000000000000000000000000000000000000000000000000000000000000000000000000000000000000000000000000000000000000000000000000000000000000000000083020000018405f5e10082e2ac8203e880a01f44eff6dc1a4fe90731db9d9a5c78f0b6224461a64fd97a7a66f6d7aeea6c80886eb6a67041bb5229f863f86180018401312d0094095e7baea6a6c7c4c2dfeb977efac326af552d8780001ca0a5babdfe77e19c1014d3aa0b7f949c3b47c9beb0beaadd25f81f121f7852d700a079cdf46c2587c800f8d808ab682546ae36b37d05dfa55e3f8c9d36859386dabfc0",
                "transactions" : [
                    {
                        "data" : "0x00",
                        "gasLimit" : "0x01312d00",
                        "gasPrice" : "0x01",
                        "nonce" : "0x00",
                        "r" : "0xa5babdfe77e19c1014d3aa0b7f949c3b47c9beb0beaadd25f81f121f7852d700",
                        "s" : "0x79cdf46c2587c800f8d808ab682546ae36b37d05dfa55e3f8c9d36859386dabf",
                        "to" : "0x095e7baea6a6c7c4c2dfeb977efac326af552d87",
                        "v" : "0x1c",
                        "value" : "0x00"
                    }
                ],
                "uncleHeaders" : [
                ]
            }
        ],
        "genesisBlockHeader" : {
            "bloom" : "0x00000000000000000000000000000000000000000000000000000000000000000000000000000000000000000000000000000000000000000000000000000000000000000000000000000000000000000000000000000000000000000000000000000000000000000000000000000000000000000000000000000000000000000000000000000000000000000000000000000000000000000000000000000000000000000000000000000000000000000000000000000000000000000000000000000000000000000000000000000000000000000000000000000000000000000000000000000000000000000000000000000000000000000000000000000000",
            "coinbase" : "0x2adc25665018aa1fe0e6bc666dac8fc2697ff9ba",
            "difficulty" : "0x020000",
            "extraData" : "0x42",
            "gasLimit" : "0x05f5e100",
            "gasUsed" : "0x00",
            "hash" : "0xbc06bf689d79c7b72fd952f319fd5f95ea6b84a71b5560c3f06cd5a3c5cc5659",
            "mixHash" : "0x56e81f171bcc55a6ff8345e692c0f86e5b48e01b996cadc001622fb5e363b421",
            "nonce" : "0x0102030405060708",
            "number" : "0x00",
            "parentHash" : "0x0000000000000000000000000000000000000000000000000000000000000000",
            "receiptTrie" : "0x56e81f171bcc55a6ff8345e692c0f86e5b48e01b996cadc001622fb5e363b421",
            "stateRoot" : "0x971b6b9053c66f3283e93f3fda3df98ef152022d76a0881c1aa29c1261ab372a",
            "timestamp" : "0x03b6",
            "transactionsTrie" : "0x56e81f171bcc55a6ff8345e692c0f86e5b48e01b996cadc001622fb5e363b421",
            "uncleHash" : "0x1dcc4de8dec75d7aab85b567b6ccd41ad312451b948a7413f0a142fd40d49347"
        },
        "genesisRLP" : "0xf901fbf901f6a00000000000000000000000000000000000000000000000000000000000000000a01dcc4de8dec75d7aab85b567b6ccd41ad312451b948a7413f0a142fd40d49347942adc25665018aa1fe0e6bc666dac8fc2697ff9baa0971b6b9053c66f3283e93f3fda3df98ef152022d76a0881c1aa29c1261ab372aa056e81f171bcc55a6ff8345e692c0f86e5b48e01b996cadc001622fb5e363b421a056e81f171bcc55a6ff8345e692c0f86e5b48e01b996cadc001622fb5e363b421b901000000000000000000000000000000000000000000000000000000000000000000000000000000000000000000000000000000000000000000000000000000000000000000000000000000000000000000000000000000000000000000000000000000000000000000000000000000000000000000000000000000000000000000000000000000000000000000000000000000000000000000000000000000000000000000000000000000000000000000000000000000000000000000000000000000000000000000000000000000000000000000000000000000000000000000000000000000000000000000000000000000000000000000000000000000000083020000808405f5e100808203b642a056e81f171bcc55a6ff8345e692c0f86e5b48e01b996cadc001622fb5e363b421880102030405060708c0c0",
        "lastblockhash" : "0x4047314f48dd2b4efdea7bbba02d485780231e437049d53a2c3f20065dd1bb06",
        "network" : "Frontier",
        "postState" : {
            "0x095e7baea6a6c7c4c2dfeb977efac326af552d87" : {
                "balance" : "0x2710",
                "code" : "0x74600c60005566602060406000f060205260076039f36000526015600b620186a0f0600055",
                "nonce" : "0x00",
                "storage" : {
                }
            },
            "0x2adc25665018aa1fe0e6bc666dac8fc2697ff9ba" : {
                "balance" : "0x4563918244f4e2ac",
                "code" : "",
                "nonce" : "0x00",
                "storage" : {
                }
            },
            "0xa94f5374fce5edbc8e2a8697c15331677e6ebf0b" : {
                "balance" : "0x05f4fe54",
                "code" : "",
                "nonce" : "0x01",
                "storage" : {
                }
            }
        },
        "pre" : {
            "0x095e7baea6a6c7c4c2dfeb977efac326af552d87" : {
                "balance" : "0x2710",
                "code" : "0x74600c60005566602060406000f060205260076039f36000526015600b620186a0f0600055",
                "nonce" : "0x00",
                "storage" : {
                }
            },
            "0xa94f5374fce5edbc8e2a8697c15331677e6ebf0b" : {
                "balance" : "0x05f5e100",
                "code" : "",
                "nonce" : "0x00",
                "storage" : {
                }
            }
        }
    },
    "CallContractToCreateContractNoCash_d0g0v0_Homestead" : {
        "_info" : {
            "comment" : "",
            "filledwith" : "cpp-1.3.0+commit.6e0ce939.Linux.g++",
            "lllcversion" : "Version: 0.4.18-develop.2017.9.25+commit.a72237f2.Linux.g++",
            "source" : "src/BlockchainTestsFiller/GeneralStateTests/stInitCodeTest/CallContractToCreateContractNoCash_d0g0v0Filler.json",
            "sourceHash" : "e2a5f99a68f484d994e0fc89a4a649a3bb4b3c32bed59df75b3f77aef7c41e07"
        },
        "blocks" : [
            {
                "blockHeader" : {
                    "bloom" : "0x00000000000000000000000000000000000000000000000000000000000000000000000000000000000000000000000000000000000000000000000000000000000000000000000000000000000000000000000000000000000000000000000000000000000000000000000000000000000000000000000000000000000000000000000000000000000000000000000000000000000000000000000000000000000000000000000000000000000000000000000000000000000000000000000000000000000000000000000000000000000000000000000000000000000000000000000000000000000000000000000000000000000000000000000000000000",
                    "coinbase" : "0x2adc25665018aa1fe0e6bc666dac8fc2697ff9ba",
                    "difficulty" : "0x020000",
                    "extraData" : "",
                    "gasLimit" : "0x05f5e100",
                    "gasUsed" : "0xe2ac",
                    "hash" : "0xc4149ede1c41fcd1e4f34b915ac7495cfb10c0ac97ad2675f95de65680d316de",
                    "mixHash" : "0x3c499f3a57778c2e2688440afdde80a70457dfb54b3cc0f10ee468043498a567",
                    "nonce" : "0x5fd2e0a1650cd061",
                    "number" : "0x01",
                    "parentHash" : "0xbc06bf689d79c7b72fd952f319fd5f95ea6b84a71b5560c3f06cd5a3c5cc5659",
                    "receiptTrie" : "0x9c189254a2bde6f29e978f6cb6a4c75dfdd5ec21071a1be944f0ec42077e25e4",
                    "stateRoot" : "0x6ce3d68bac2a89bb8c5ec663f0605a87a6d86d1b28c817a5a456d8afd9ddc99e",
                    "timestamp" : "0x03e8",
                    "transactionsTrie" : "0xc9736bc50603440b31ff3f23c73baaab17b407a5db2b2aea4ea53a58a970ee0b",
                    "uncleHash" : "0x1dcc4de8dec75d7aab85b567b6ccd41ad312451b948a7413f0a142fd40d49347"
                },
                "rlp" : "0xf90261f901f8a0bc06bf689d79c7b72fd952f319fd5f95ea6b84a71b5560c3f06cd5a3c5cc5659a01dcc4de8dec75d7aab85b567b6ccd41ad312451b948a7413f0a142fd40d49347942adc25665018aa1fe0e6bc666dac8fc2697ff9baa06ce3d68bac2a89bb8c5ec663f0605a87a6d86d1b28c817a5a456d8afd9ddc99ea0c9736bc50603440b31ff3f23c73baaab17b407a5db2b2aea4ea53a58a970ee0ba09c189254a2bde6f29e978f6cb6a4c75dfdd5ec21071a1be944f0ec42077e25e4b901000000000000000000000000000000000000000000000000000000000000000000000000000000000000000000000000000000000000000000000000000000000000000000000000000000000000000000000000000000000000000000000000000000000000000000000000000000000000000000000000000000000000000000000000000000000000000000000000000000000000000000000000000000000000000000000000000000000000000000000000000000000000000000000000000000000000000000000000000000000000000000000000000000000000000000000000000000000000000000000000000000000000000000000000000000000083020000018405f5e10082e2ac8203e880a03c499f3a57778c2e2688440afdde80a70457dfb54b3cc0f10ee468043498a567885fd2e0a1650cd061f863f86180018401312d0094095e7baea6a6c7c4c2dfeb977efac326af552d8780001ca0a5babdfe77e19c1014d3aa0b7f949c3b47c9beb0beaadd25f81f121f7852d700a079cdf46c2587c800f8d808ab682546ae36b37d05dfa55e3f8c9d36859386dabfc0",
                "transactions" : [
                    {
                        "data" : "0x00",
                        "gasLimit" : "0x01312d00",
                        "gasPrice" : "0x01",
                        "nonce" : "0x00",
                        "r" : "0xa5babdfe77e19c1014d3aa0b7f949c3b47c9beb0beaadd25f81f121f7852d700",
                        "s" : "0x79cdf46c2587c800f8d808ab682546ae36b37d05dfa55e3f8c9d36859386dabf",
                        "to" : "0x095e7baea6a6c7c4c2dfeb977efac326af552d87",
                        "v" : "0x1c",
                        "value" : "0x00"
                    }
                ],
                "uncleHeaders" : [
                ]
            }
        ],
        "genesisBlockHeader" : {
            "bloom" : "0x00000000000000000000000000000000000000000000000000000000000000000000000000000000000000000000000000000000000000000000000000000000000000000000000000000000000000000000000000000000000000000000000000000000000000000000000000000000000000000000000000000000000000000000000000000000000000000000000000000000000000000000000000000000000000000000000000000000000000000000000000000000000000000000000000000000000000000000000000000000000000000000000000000000000000000000000000000000000000000000000000000000000000000000000000000000",
            "coinbase" : "0x2adc25665018aa1fe0e6bc666dac8fc2697ff9ba",
            "difficulty" : "0x020000",
            "extraData" : "0x42",
            "gasLimit" : "0x05f5e100",
            "gasUsed" : "0x00",
            "hash" : "0xbc06bf689d79c7b72fd952f319fd5f95ea6b84a71b5560c3f06cd5a3c5cc5659",
            "mixHash" : "0x56e81f171bcc55a6ff8345e692c0f86e5b48e01b996cadc001622fb5e363b421",
            "nonce" : "0x0102030405060708",
            "number" : "0x00",
            "parentHash" : "0x0000000000000000000000000000000000000000000000000000000000000000",
            "receiptTrie" : "0x56e81f171bcc55a6ff8345e692c0f86e5b48e01b996cadc001622fb5e363b421",
            "stateRoot" : "0x971b6b9053c66f3283e93f3fda3df98ef152022d76a0881c1aa29c1261ab372a",
            "timestamp" : "0x03b6",
            "transactionsTrie" : "0x56e81f171bcc55a6ff8345e692c0f86e5b48e01b996cadc001622fb5e363b421",
            "uncleHash" : "0x1dcc4de8dec75d7aab85b567b6ccd41ad312451b948a7413f0a142fd40d49347"
        },
        "genesisRLP" : "0xf901fbf901f6a00000000000000000000000000000000000000000000000000000000000000000a01dcc4de8dec75d7aab85b567b6ccd41ad312451b948a7413f0a142fd40d49347942adc25665018aa1fe0e6bc666dac8fc2697ff9baa0971b6b9053c66f3283e93f3fda3df98ef152022d76a0881c1aa29c1261ab372aa056e81f171bcc55a6ff8345e692c0f86e5b48e01b996cadc001622fb5e363b421a056e81f171bcc55a6ff8345e692c0f86e5b48e01b996cadc001622fb5e363b421b901000000000000000000000000000000000000000000000000000000000000000000000000000000000000000000000000000000000000000000000000000000000000000000000000000000000000000000000000000000000000000000000000000000000000000000000000000000000000000000000000000000000000000000000000000000000000000000000000000000000000000000000000000000000000000000000000000000000000000000000000000000000000000000000000000000000000000000000000000000000000000000000000000000000000000000000000000000000000000000000000000000000000000000000000000000000083020000808405f5e100808203b642a056e81f171bcc55a6ff8345e692c0f86e5b48e01b996cadc001622fb5e363b421880102030405060708c0c0",
        "lastblockhash" : "0xc4149ede1c41fcd1e4f34b915ac7495cfb10c0ac97ad2675f95de65680d316de",
        "network" : "Homestead",
        "postState" : {
            "0x095e7baea6a6c7c4c2dfeb977efac326af552d87" : {
                "balance" : "0x2710",
                "code" : "0x74600c60005566602060406000f060205260076039f36000526015600b620186a0f0600055",
                "nonce" : "0x00",
                "storage" : {
                }
            },
            "0x2adc25665018aa1fe0e6bc666dac8fc2697ff9ba" : {
                "balance" : "0x4563918244f4e2ac",
                "code" : "",
                "nonce" : "0x00",
                "storage" : {
                }
            },
            "0xa94f5374fce5edbc8e2a8697c15331677e6ebf0b" : {
                "balance" : "0x05f4fe54",
                "code" : "",
                "nonce" : "0x01",
                "storage" : {
                }
            }
        },
        "pre" : {
            "0x095e7baea6a6c7c4c2dfeb977efac326af552d87" : {
                "balance" : "0x2710",
                "code" : "0x74600c60005566602060406000f060205260076039f36000526015600b620186a0f0600055",
                "nonce" : "0x00",
                "storage" : {
                }
            },
            "0xa94f5374fce5edbc8e2a8697c15331677e6ebf0b" : {
                "balance" : "0x05f5e100",
                "code" : "",
                "nonce" : "0x00",
                "storage" : {
                }
            }
        }
    }
}