{
    "CallRecursiveContract_d0g0v0_Byzantium" : {
        "_info" : {
            "comment" : "",
            "filledwith" : "cpp-1.3.0+commit.6e0ce939.Linux.g++",
            "lllcversion" : "Version: 0.4.18-develop.2017.9.25+commit.a72237f2.Linux.g++",
            "source" : "src/BlockchainTestsFiller/GeneralStateTests/stInitCodeTest/CallRecursiveContract_d0g0v0Filler.json",
            "sourceHash" : "8d529644ca8ea1a246d92e2a632eea5e3d047412caa3e9eecdabef4cddd0803e"
        },
        "blocks" : [
            {
                "blockHeader" : {
                    "bloom" : "0x00000000000000000000000000000000000000000000000000000000000000000000000000000000000000000000000000000000000000000000000000000000000000000000000000000000000000000000000000000000000000000000000000000000000000000000000000000000000000000000000000000000000000000000000000000000000000000000000000000000000000000000000000000000000000000000000000000000000000000000000000000000000000000000000000000000000000000000000000000000000000000000000000000000000000000000000000000000000000000000000000000000000000000000000000000000",
                    "coinbase" : "0x2adc25665018aa1fe0e6bc666dac8fc2697ff9ba",
                    "difficulty" : "0x020000",
                    "extraData" : "",
                    "gasLimit" : "0x05f5e100",
                    "gasUsed" : "0x05d602",
                    "hash" : "0xad7a4536c5842f5caab4605d78e66b40b287d8eb3777d1692a8de6a6014d854f",
                    "mixHash" : "0x2997a2caefcc0da8b12b7ba0dc1621e28ff004cdcc4c30106952936ac7a49467",
                    "nonce" : "0xbb247707a7e8a083",
                    "number" : "0x01",
                    "parentHash" : "0x6c44ba6d50081eedac235864ef83628b46a1a93f57c34e03e4782e7a04e3bf3f",
                    "receiptTrie" : "0x29cd73fe1868f13a298f87d55ffc3c35f6c1251f98fd58835f99a95c718fbd31",
                    "stateRoot" : "0xc2eed555afd349166225c89bb46ab3428f34fe9388ce2a8b5b1b4409412dc8f9",
                    "timestamp" : "0x03e8",
                    "transactionsTrie" : "0xd4be89a2f61318fc9713ec59a5f4dc08476e084155c765e911baf3180b66a493",
                    "uncleHash" : "0x1dcc4de8dec75d7aab85b567b6ccd41ad312451b948a7413f0a142fd40d49347"
                },
                "rlp" : "0xf90261f901f9a06c44ba6d50081eedac235864ef83628b46a1a93f57c34e03e4782e7a04e3bf3fa01dcc4de8dec75d7aab85b567b6ccd41ad312451b948a7413f0a142fd40d49347942adc25665018aa1fe0e6bc666dac8fc2697ff9baa0c2eed555afd349166225c89bb46ab3428f34fe9388ce2a8b5b1b4409412dc8f9a0d4be89a2f61318fc9713ec59a5f4dc08476e084155c765e911baf3180b66a493a029cd73fe1868f13a298f87d55ffc3c35f6c1251f98fd58835f99a95c718fbd31b901000000000000000000000000000000000000000000000000000000000000000000000000000000000000000000000000000000000000000000000000000000000000000000000000000000000000000000000000000000000000000000000000000000000000000000000000000000000000000000000000000000000000000000000000000000000000000000000000000000000000000000000000000000000000000000000000000000000000000000000000000000000000000000000000000000000000000000000000000000000000000000000000000000000000000000000000000000000000000000000000000000000000000000000000000000000083020000018405f5e1008305d6028203e880a02997a2caefcc0da8b12b7ba0dc1621e28ff004cdcc4c30106952936ac7a4946788bb247707a7e8a083f862f860800183061a8094095e7baea6a6c7c4c2dfeb977efac326af552d8701001ca0767b4aeef3b7b464066b6622894304ddbe828ff6f7d35b4a208479b84190072da06d23402c4c7144e986f0a9dbbb8bfc7fd8e1d75f13bb85d5cce03b46f0a8b0cac0",
                "transactions" : [
                    {
                        "data" : "0x00",
                        "gasLimit" : "0x061a80",
                        "gasPrice" : "0x01",
                        "nonce" : "0x00",
                        "r" : "0x767b4aeef3b7b464066b6622894304ddbe828ff6f7d35b4a208479b84190072d",
                        "s" : "0x6d23402c4c7144e986f0a9dbbb8bfc7fd8e1d75f13bb85d5cce03b46f0a8b0ca",
                        "to" : "0x095e7baea6a6c7c4c2dfeb977efac326af552d87",
                        "v" : "0x1c",
                        "value" : "0x01"
                    }
                ],
                "uncleHeaders" : [
                ]
            }
        ],
        "genesisBlockHeader" : {
            "bloom" : "0x00000000000000000000000000000000000000000000000000000000000000000000000000000000000000000000000000000000000000000000000000000000000000000000000000000000000000000000000000000000000000000000000000000000000000000000000000000000000000000000000000000000000000000000000000000000000000000000000000000000000000000000000000000000000000000000000000000000000000000000000000000000000000000000000000000000000000000000000000000000000000000000000000000000000000000000000000000000000000000000000000000000000000000000000000000000",
            "coinbase" : "0x2adc25665018aa1fe0e6bc666dac8fc2697ff9ba",
            "difficulty" : "0x020000",
            "extraData" : "0x42",
            "gasLimit" : "0x05f5e100",
            "gasUsed" : "0x00",
            "hash" : "0x6c44ba6d50081eedac235864ef83628b46a1a93f57c34e03e4782e7a04e3bf3f",
            "mixHash" : "0x56e81f171bcc55a6ff8345e692c0f86e5b48e01b996cadc001622fb5e363b421",
            "nonce" : "0x0102030405060708",
            "number" : "0x00",
            "parentHash" : "0x0000000000000000000000000000000000000000000000000000000000000000",
            "receiptTrie" : "0x56e81f171bcc55a6ff8345e692c0f86e5b48e01b996cadc001622fb5e363b421",
            "stateRoot" : "0x9c33b65c5ead10d16ec24c6d6dcdff561dae7610857513f507152c6d05e15d22",
            "timestamp" : "0x03b6",
            "transactionsTrie" : "0x56e81f171bcc55a6ff8345e692c0f86e5b48e01b996cadc001622fb5e363b421",
            "uncleHash" : "0x1dcc4de8dec75d7aab85b567b6ccd41ad312451b948a7413f0a142fd40d49347"
        },
        "genesisRLP" : "0xf901fbf901f6a00000000000000000000000000000000000000000000000000000000000000000a01dcc4de8dec75d7aab85b567b6ccd41ad312451b948a7413f0a142fd40d49347942adc25665018aa1fe0e6bc666dac8fc2697ff9baa09c33b65c5ead10d16ec24c6d6dcdff561dae7610857513f507152c6d05e15d22a056e81f171bcc55a6ff8345e692c0f86e5b48e01b996cadc001622fb5e363b421a056e81f171bcc55a6ff8345e692c0f86e5b48e01b996cadc001622fb5e363b421b901000000000000000000000000000000000000000000000000000000000000000000000000000000000000000000000000000000000000000000000000000000000000000000000000000000000000000000000000000000000000000000000000000000000000000000000000000000000000000000000000000000000000000000000000000000000000000000000000000000000000000000000000000000000000000000000000000000000000000000000000000000000000000000000000000000000000000000000000000000000000000000000000000000000000000000000000000000000000000000000000000000000000000000000000000000000083020000808405f5e100808203b642a056e81f171bcc55a6ff8345e692c0f86e5b48e01b996cadc001622fb5e363b421880102030405060708c0c0",
        "lastblockhash" : "0xad7a4536c5842f5caab4605d78e66b40b287d8eb3777d1692a8de6a6014d854f",
        "network" : "Byzantium",
        "postState" : {
            "0x095e7baea6a6c7c4c2dfeb977efac326af552d87" : {
                "balance" : "0x01",
                "code" : "0x3060025560206000600039602060006000f0",
                "nonce" : "0x29",
                "storage" : {
                    "0x02" : "0x095e7baea6a6c7c4c2dfeb977efac326af552d87"
                }
            },
            "0x2adc25665018aa1fe0e6bc666dac8fc2697ff9ba" : {
                "balance" : "0x29a2241af631d602",
                "code" : "",
                "nonce" : "0x00",
                "storage" : {
                }
            },
            "0x4b0b4b3c7fd3dd5cea1d04dcf027dea29f84acb1" : {
                "balance" : "0x00",
                "code" : "",
                "nonce" : "0x02",
                "storage" : {
                    "0x02" : "0x4b0b4b3c7fd3dd5cea1d04dcf027dea29f84acb1"
                }
            },
            "0x60f971aa65f7e520dcb750823e2c239e61c3736b" : {
                "balance" : "0x00",
                "code" : "",
                "nonce" : "0x02",
                "storage" : {
                    "0x02" : "0x60f971aa65f7e520dcb750823e2c239e61c3736b"
                }
            },
            "0x6fc9df08d2206eff4f4c378aeb2a1f8c570952b9" : {
                "balance" : "0x00",
                "code" : "",
                "nonce" : "0x02",
                "storage" : {
                    "0x02" : "0x6fc9df08d2206eff4f4c378aeb2a1f8c570952b9"
                }
            },
            "0x74a77e95f3228f0b4d116d5a12e09aaf99ce54ae" : {
                "balance" : "0x00",
                "code" : "",
                "nonce" : "0x02",
                "storage" : {
                    "0x02" : "0x74a77e95f3228f0b4d116d5a12e09aaf99ce54ae"
                }
            },
            "0xa94f5374fce5edbc8e2a8697c15331677e6ebf0b" : {
                "balance" : "0x096c3d",
                "code" : "",
                "nonce" : "0x01",
                "storage" : {
                }
            },
            "0xf0064be0919341a45680ec0d592eaee47df671ac" : {
                "balance" : "0x00",
                "code" : "",
                "nonce" : "0x02",
                "storage" : {
                    "0x02" : "0xf0064be0919341a45680ec0d592eaee47df671ac"
                }
            }
        },
        "pre" : {
            "0x095e7baea6a6c7c4c2dfeb977efac326af552d87" : {
                "balance" : "0x00",
                "code" : "0x3060025560206000600039602060006000f0",
                "nonce" : "0x28",
                "storage" : {
                }
            },
            "0xa94f5374fce5edbc8e2a8697c15331677e6ebf0b" : {
                "balance" : "0x0f4240",
                "code" : "",
                "nonce" : "0x00",
                "storage" : {
                }
            }
        }
    },
    "CallRecursiveContract_d0g0v0_EIP150" : {
        "_info" : {
            "comment" : "",
            "filledwith" : "cpp-1.3.0+commit.6e0ce939.Linux.g++",
            "lllcversion" : "Version: 0.4.18-develop.2017.9.25+commit.a72237f2.Linux.g++",
            "source" : "src/BlockchainTestsFiller/GeneralStateTests/stInitCodeTest/CallRecursiveContract_d0g0v0Filler.json",
            "sourceHash" : "8d529644ca8ea1a246d92e2a632eea5e3d047412caa3e9eecdabef4cddd0803e"
        },
        "blocks" : [
            {
                "blockHeader" : {
                    "bloom" : "0x00000000000000000000000000000000000000000000000000000000000000000000000000000000000000000000000000000000000000000000000000000000000000000000000000000000000000000000000000000000000000000000000000000000000000000000000000000000000000000000000000000000000000000000000000000000000000000000000000000000000000000000000000000000000000000000000000000000000000000000000000000000000000000000000000000000000000000000000000000000000000000000000000000000000000000000000000000000000000000000000000000000000000000000000000000000",
                    "coinbase" : "0x2adc25665018aa1fe0e6bc666dac8fc2697ff9ba",
                    "difficulty" : "0x020000",
                    "extraData" : "",
                    "gasLimit" : "0x05f5e100",
                    "gasUsed" : "0x05d602",
                    "hash" : "0xc8417a58a1b28973bf904f682286f7f75ce10f60efdb4ed6994aa2758a432a7a",
                    "mixHash" : "0x08537f394aad708dd1c0a270f66f815ce3dc8826a265c1610fcc11ffa4a68965",
                    "nonce" : "0xbf62a424947e2578",
                    "number" : "0x01",
                    "parentHash" : "0x6c44ba6d50081eedac235864ef83628b46a1a93f57c34e03e4782e7a04e3bf3f",
                    "receiptTrie" : "0x094fb672162ff0a137b3e30810321528a5a6cc10634df85054e4856fee261a17",
                    "stateRoot" : "0x0289aea08a0161f13694a60100228ab183174df65a4dbe5c95b1193b8aa4a292",
                    "timestamp" : "0x03e8",
                    "transactionsTrie" : "0xd4be89a2f61318fc9713ec59a5f4dc08476e084155c765e911baf3180b66a493",
                    "uncleHash" : "0x1dcc4de8dec75d7aab85b567b6ccd41ad312451b948a7413f0a142fd40d49347"
                },
                "rlp" : "0xf90261f901f9a06c44ba6d50081eedac235864ef83628b46a1a93f57c34e03e4782e7a04e3bf3fa01dcc4de8dec75d7aab85b567b6ccd41ad312451b948a7413f0a142fd40d49347942adc25665018aa1fe0e6bc666dac8fc2697ff9baa00289aea08a0161f13694a60100228ab183174df65a4dbe5c95b1193b8aa4a292a0d4be89a2f61318fc9713ec59a5f4dc08476e084155c765e911baf3180b66a493a0094fb672162ff0a137b3e30810321528a5a6cc10634df85054e4856fee261a17b901000000000000000000000000000000000000000000000000000000000000000000000000000000000000000000000000000000000000000000000000000000000000000000000000000000000000000000000000000000000000000000000000000000000000000000000000000000000000000000000000000000000000000000000000000000000000000000000000000000000000000000000000000000000000000000000000000000000000000000000000000000000000000000000000000000000000000000000000000000000000000000000000000000000000000000000000000000000000000000000000000000000000000000000000000000000083020000018405f5e1008305d6028203e880a008537f394aad708dd1c0a270f66f815ce3dc8826a265c1610fcc11ffa4a6896588bf62a424947e2578f862f860800183061a8094095e7baea6a6c7c4c2dfeb977efac326af552d8701001ca0767b4aeef3b7b464066b6622894304ddbe828ff6f7d35b4a208479b84190072da06d23402c4c7144e986f0a9dbbb8bfc7fd8e1d75f13bb85d5cce03b46f0a8b0cac0",
                "transactions" : [
                    {
                        "data" : "0x00",
                        "gasLimit" : "0x061a80",
                        "gasPrice" : "0x01",
                        "nonce" : "0x00",
                        "r" : "0x767b4aeef3b7b464066b6622894304ddbe828ff6f7d35b4a208479b84190072d",
                        "s" : "0x6d23402c4c7144e986f0a9dbbb8bfc7fd8e1d75f13bb85d5cce03b46f0a8b0ca",
                        "to" : "0x095e7baea6a6c7c4c2dfeb977efac326af552d87",
                        "v" : "0x1c",
                        "value" : "0x01"
                    }
                ],
                "uncleHeaders" : [
                ]
            }
        ],
        "genesisBlockHeader" : {
            "bloom" : "0x00000000000000000000000000000000000000000000000000000000000000000000000000000000000000000000000000000000000000000000000000000000000000000000000000000000000000000000000000000000000000000000000000000000000000000000000000000000000000000000000000000000000000000000000000000000000000000000000000000000000000000000000000000000000000000000000000000000000000000000000000000000000000000000000000000000000000000000000000000000000000000000000000000000000000000000000000000000000000000000000000000000000000000000000000000000",
            "coinbase" : "0x2adc25665018aa1fe0e6bc666dac8fc2697ff9ba",
            "difficulty" : "0x020000",
            "extraData" : "0x42",
            "gasLimit" : "0x05f5e100",
            "gasUsed" : "0x00",
            "hash" : "0x6c44ba6d50081eedac235864ef83628b46a1a93f57c34e03e4782e7a04e3bf3f",
            "mixHash" : "0x56e81f171bcc55a6ff8345e692c0f86e5b48e01b996cadc001622fb5e363b421",
            "nonce" : "0x0102030405060708",
            "number" : "0x00",
            "parentHash" : "0x0000000000000000000000000000000000000000000000000000000000000000",
            "receiptTrie" : "0x56e81f171bcc55a6ff8345e692c0f86e5b48e01b996cadc001622fb5e363b421",
            "stateRoot" : "0x9c33b65c5ead10d16ec24c6d6dcdff561dae7610857513f507152c6d05e15d22",
            "timestamp" : "0x03b6",
            "transactionsTrie" : "0x56e81f171bcc55a6ff8345e692c0f86e5b48e01b996cadc001622fb5e363b421",
            "uncleHash" : "0x1dcc4de8dec75d7aab85b567b6ccd41ad312451b948a7413f0a142fd40d49347"
        },
        "genesisRLP" : "0xf901fbf901f6a00000000000000000000000000000000000000000000000000000000000000000a01dcc4de8dec75d7aab85b567b6ccd41ad312451b948a7413f0a142fd40d49347942adc25665018aa1fe0e6bc666dac8fc2697ff9baa09c33b65c5ead10d16ec24c6d6dcdff561dae7610857513f507152c6d05e15d22a056e81f171bcc55a6ff8345e692c0f86e5b48e01b996cadc001622fb5e363b421a056e81f171bcc55a6ff8345e692c0f86e5b48e01b996cadc001622fb5e363b421b901000000000000000000000000000000000000000000000000000000000000000000000000000000000000000000000000000000000000000000000000000000000000000000000000000000000000000000000000000000000000000000000000000000000000000000000000000000000000000000000000000000000000000000000000000000000000000000000000000000000000000000000000000000000000000000000000000000000000000000000000000000000000000000000000000000000000000000000000000000000000000000000000000000000000000000000000000000000000000000000000000000000000000000000000000000000083020000808405f5e100808203b642a056e81f171bcc55a6ff8345e692c0f86e5b48e01b996cadc001622fb5e363b421880102030405060708c0c0",
        "lastblockhash" : "0xc8417a58a1b28973bf904f682286f7f75ce10f60efdb4ed6994aa2758a432a7a",
        "network" : "EIP150",
        "postState" : {
            "0x095e7baea6a6c7c4c2dfeb977efac326af552d87" : {
                "balance" : "0x01",
                "code" : "0x3060025560206000600039602060006000f0",
                "nonce" : "0x29",
                "storage" : {
                    "0x02" : "0x095e7baea6a6c7c4c2dfeb977efac326af552d87"
                }
            },
            "0x1a4c83e1a9834cdc7e4a905ff7f0cf44aed73180" : {
                "balance" : "0x00",
                "code" : "",
                "nonce" : "0x01",
                "storage" : {
                    "0x02" : "0x1a4c83e1a9834cdc7e4a905ff7f0cf44aed73180"
                }
            },
            "0x2adc25665018aa1fe0e6bc666dac8fc2697ff9ba" : {
                "balance" : "0x4563918244f9d602",
                "code" : "",
                "nonce" : "0x00",
                "storage" : {
                }
            },
            "0x9ca74ad1a326b79d9ec9c080deb56062e975a7ee" : {
                "balance" : "0x00",
                "code" : "",
                "nonce" : "0x01",
                "storage" : {
                    "0x02" : "0x9ca74ad1a326b79d9ec9c080deb56062e975a7ee"
                }
            },
            "0xa94f5374fce5edbc8e2a8697c15331677e6ebf0b" : {
                "balance" : "0x096c3d",
                "code" : "",
                "nonce" : "0x01",
                "storage" : {
                }
            },
            "0xbbba3a14689a28fd82f09d4e01bc87d9654e95c3" : {
                "balance" : "0x00",
                "code" : "",
                "nonce" : "0x01",
                "storage" : {
                    "0x02" : "0xbbba3a14689a28fd82f09d4e01bc87d9654e95c3"
                }
            },
            "0xdfceaa082d190ab34e3c37943de35ae8fc01f300" : {
                "balance" : "0x00",
                "code" : "",
                "nonce" : "0x01",
                "storage" : {
                    "0x02" : "0xdfceaa082d190ab34e3c37943de35ae8fc01f300"
                }
            },
            "0xf0064be0919341a45680ec0d592eaee47df671ac" : {
                "balance" : "0x00",
                "code" : "",
                "nonce" : "0x01",
                "storage" : {
                    "0x02" : "0xf0064be0919341a45680ec0d592eaee47df671ac"
                }
            }
        },
        "pre" : {
            "0x095e7baea6a6c7c4c2dfeb977efac326af552d87" : {
                "balance" : "0x00",
                "code" : "0x3060025560206000600039602060006000f0",
                "nonce" : "0x28",
                "storage" : {
                }
            },
            "0xa94f5374fce5edbc8e2a8697c15331677e6ebf0b" : {
                "balance" : "0x0f4240",
                "code" : "",
                "nonce" : "0x00",
                "storage" : {
                }
            }
        }
    },
    "CallRecursiveContract_d0g0v0_EIP158" : {
        "_info" : {
            "comment" : "",
            "filledwith" : "cpp-1.3.0+commit.6e0ce939.Linux.g++",
            "lllcversion" : "Version: 0.4.18-develop.2017.9.25+commit.a72237f2.Linux.g++",
            "source" : "src/BlockchainTestsFiller/GeneralStateTests/stInitCodeTest/CallRecursiveContract_d0g0v0Filler.json",
            "sourceHash" : "8d529644ca8ea1a246d92e2a632eea5e3d047412caa3e9eecdabef4cddd0803e"
        },
        "blocks" : [
            {
                "blockHeader" : {
                    "bloom" : "0x00000000000000000000000000000000000000000000000000000000000000000000000000000000000000000000000000000000000000000000000000000000000000000000000000000000000000000000000000000000000000000000000000000000000000000000000000000000000000000000000000000000000000000000000000000000000000000000000000000000000000000000000000000000000000000000000000000000000000000000000000000000000000000000000000000000000000000000000000000000000000000000000000000000000000000000000000000000000000000000000000000000000000000000000000000000",
                    "coinbase" : "0x2adc25665018aa1fe0e6bc666dac8fc2697ff9ba",
                    "difficulty" : "0x020000",
                    "extraData" : "",
                    "gasLimit" : "0x05f5e100",
                    "gasUsed" : "0x05d602",
                    "hash" : "0x6476515a7c61709a2b089e0f2ecb62fa09d41b1fa1ae2459b36e8bb18c545747",
                    "mixHash" : "0x83a666d0df6cd0a56408696cad96d75cad4bf8068866a65920a29fa9f61550d0",
                    "nonce" : "0x42f2a8307bda5084",
                    "number" : "0x01",
                    "parentHash" : "0x6c44ba6d50081eedac235864ef83628b46a1a93f57c34e03e4782e7a04e3bf3f",
                    "receiptTrie" : "0xf09f9453977e0f663e221d4f499c3a69374a3e9114d96a24e5a5f43a66fdf8bf",
                    "stateRoot" : "0x40d37713bc5484e4042bebda7f367f88d1b7888e16428b359b4c57a2e42aa69d",
                    "timestamp" : "0x03e8",
                    "transactionsTrie" : "0xd4be89a2f61318fc9713ec59a5f4dc08476e084155c765e911baf3180b66a493",
                    "uncleHash" : "0x1dcc4de8dec75d7aab85b567b6ccd41ad312451b948a7413f0a142fd40d49347"
                },
                "rlp" : "0xf90261f901f9a06c44ba6d50081eedac235864ef83628b46a1a93f57c34e03e4782e7a04e3bf3fa01dcc4de8dec75d7aab85b567b6ccd41ad312451b948a7413f0a142fd40d49347942adc25665018aa1fe0e6bc666dac8fc2697ff9baa040d37713bc5484e4042bebda7f367f88d1b7888e16428b359b4c57a2e42aa69da0d4be89a2f61318fc9713ec59a5f4dc08476e084155c765e911baf3180b66a493a0f09f9453977e0f663e221d4f499c3a69374a3e9114d96a24e5a5f43a66fdf8bfb901000000000000000000000000000000000000000000000000000000000000000000000000000000000000000000000000000000000000000000000000000000000000000000000000000000000000000000000000000000000000000000000000000000000000000000000000000000000000000000000000000000000000000000000000000000000000000000000000000000000000000000000000000000000000000000000000000000000000000000000000000000000000000000000000000000000000000000000000000000000000000000000000000000000000000000000000000000000000000000000000000000000000000000000000000000000083020000018405f5e1008305d6028203e880a083a666d0df6cd0a56408696cad96d75cad4bf8068866a65920a29fa9f61550d08842f2a8307bda5084f862f860800183061a8094095e7baea6a6c7c4c2dfeb977efac326af552d8701001ca0767b4aeef3b7b464066b6622894304ddbe828ff6f7d35b4a208479b84190072da06d23402c4c7144e986f0a9dbbb8bfc7fd8e1d75f13bb85d5cce03b46f0a8b0cac0",
                "transactions" : [
                    {
                        "data" : "0x00",
                        "gasLimit" : "0x061a80",
                        "gasPrice" : "0x01",
                        "nonce" : "0x00",
                        "r" : "0x767b4aeef3b7b464066b6622894304ddbe828ff6f7d35b4a208479b84190072d",
                        "s" : "0x6d23402c4c7144e986f0a9dbbb8bfc7fd8e1d75f13bb85d5cce03b46f0a8b0ca",
                        "to" : "0x095e7baea6a6c7c4c2dfeb977efac326af552d87",
                        "v" : "0x1c",
                        "value" : "0x01"
                    }
                ],
                "uncleHeaders" : [
                ]
            }
        ],
        "genesisBlockHeader" : {
            "bloom" : "0x00000000000000000000000000000000000000000000000000000000000000000000000000000000000000000000000000000000000000000000000000000000000000000000000000000000000000000000000000000000000000000000000000000000000000000000000000000000000000000000000000000000000000000000000000000000000000000000000000000000000000000000000000000000000000000000000000000000000000000000000000000000000000000000000000000000000000000000000000000000000000000000000000000000000000000000000000000000000000000000000000000000000000000000000000000000",
            "coinbase" : "0x2adc25665018aa1fe0e6bc666dac8fc2697ff9ba",
            "difficulty" : "0x020000",
            "extraData" : "0x42",
            "gasLimit" : "0x05f5e100",
            "gasUsed" : "0x00",
            "hash" : "0x6c44ba6d50081eedac235864ef83628b46a1a93f57c34e03e4782e7a04e3bf3f",
            "mixHash" : "0x56e81f171bcc55a6ff8345e692c0f86e5b48e01b996cadc001622fb5e363b421",
            "nonce" : "0x0102030405060708",
            "number" : "0x00",
            "parentHash" : "0x0000000000000000000000000000000000000000000000000000000000000000",
            "receiptTrie" : "0x56e81f171bcc55a6ff8345e692c0f86e5b48e01b996cadc001622fb5e363b421",
            "stateRoot" : "0x9c33b65c5ead10d16ec24c6d6dcdff561dae7610857513f507152c6d05e15d22",
            "timestamp" : "0x03b6",
            "transactionsTrie" : "0x56e81f171bcc55a6ff8345e692c0f86e5b48e01b996cadc001622fb5e363b421",
            "uncleHash" : "0x1dcc4de8dec75d7aab85b567b6ccd41ad312451b948a7413f0a142fd40d49347"
        },
        "genesisRLP" : "0xf901fbf901f6a00000000000000000000000000000000000000000000000000000000000000000a01dcc4de8dec75d7aab85b567b6ccd41ad312451b948a7413f0a142fd40d49347942adc25665018aa1fe0e6bc666dac8fc2697ff9baa09c33b65c5ead10d16ec24c6d6dcdff561dae7610857513f507152c6d05e15d22a056e81f171bcc55a6ff8345e692c0f86e5b48e01b996cadc001622fb5e363b421a056e81f171bcc55a6ff8345e692c0f86e5b48e01b996cadc001622fb5e363b421b901000000000000000000000000000000000000000000000000000000000000000000000000000000000000000000000000000000000000000000000000000000000000000000000000000000000000000000000000000000000000000000000000000000000000000000000000000000000000000000000000000000000000000000000000000000000000000000000000000000000000000000000000000000000000000000000000000000000000000000000000000000000000000000000000000000000000000000000000000000000000000000000000000000000000000000000000000000000000000000000000000000000000000000000000000000000083020000808405f5e100808203b642a056e81f171bcc55a6ff8345e692c0f86e5b48e01b996cadc001622fb5e363b421880102030405060708c0c0",
        "lastblockhash" : "0x6476515a7c61709a2b089e0f2ecb62fa09d41b1fa1ae2459b36e8bb18c545747",
        "network" : "EIP158",
        "postState" : {
            "0x095e7baea6a6c7c4c2dfeb977efac326af552d87" : {
                "balance" : "0x01",
                "code" : "0x3060025560206000600039602060006000f0",
                "nonce" : "0x29",
                "storage" : {
                    "0x02" : "0x095e7baea6a6c7c4c2dfeb977efac326af552d87"
                }
            },
            "0x2adc25665018aa1fe0e6bc666dac8fc2697ff9ba" : {
                "balance" : "0x4563918244f9d602",
                "code" : "",
                "nonce" : "0x00",
                "storage" : {
                }
            },
            "0x4b0b4b3c7fd3dd5cea1d04dcf027dea29f84acb1" : {
                "balance" : "0x00",
                "code" : "",
                "nonce" : "0x02",
                "storage" : {
                    "0x02" : "0x4b0b4b3c7fd3dd5cea1d04dcf027dea29f84acb1"
                }
            },
            "0x60f971aa65f7e520dcb750823e2c239e61c3736b" : {
                "balance" : "0x00",
                "code" : "",
                "nonce" : "0x02",
                "storage" : {
                    "0x02" : "0x60f971aa65f7e520dcb750823e2c239e61c3736b"
                }
            },
            "0x6fc9df08d2206eff4f4c378aeb2a1f8c570952b9" : {
                "balance" : "0x00",
                "code" : "",
                "nonce" : "0x02",
                "storage" : {
                    "0x02" : "0x6fc9df08d2206eff4f4c378aeb2a1f8c570952b9"
                }
            },
            "0x74a77e95f3228f0b4d116d5a12e09aaf99ce54ae" : {
                "balance" : "0x00",
                "code" : "",
                "nonce" : "0x02",
                "storage" : {
                    "0x02" : "0x74a77e95f3228f0b4d116d5a12e09aaf99ce54ae"
                }
            },
            "0xa94f5374fce5edbc8e2a8697c15331677e6ebf0b" : {
                "balance" : "0x096c3d",
                "code" : "",
                "nonce" : "0x01",
                "storage" : {
                }
            },
            "0xf0064be0919341a45680ec0d592eaee47df671ac" : {
                "balance" : "0x00",
                "code" : "",
                "nonce" : "0x02",
                "storage" : {
                    "0x02" : "0xf0064be0919341a45680ec0d592eaee47df671ac"
                }
            }
        },
        "pre" : {
            "0x095e7baea6a6c7c4c2dfeb977efac326af552d87" : {
                "balance" : "0x00",
                "code" : "0x3060025560206000600039602060006000f0",
                "nonce" : "0x28",
                "storage" : {
                }
            },
            "0xa94f5374fce5edbc8e2a8697c15331677e6ebf0b" : {
                "balance" : "0x0f4240",
                "code" : "",
                "nonce" : "0x00",
                "storage" : {
                }
            }
        }
    },
    "CallRecursiveContract_d0g0v0_Frontier" : {
        "_info" : {
            "comment" : "",
            "filledwith" : "cpp-1.3.0+commit.6e0ce939.Linux.g++",
            "lllcversion" : "Version: 0.4.18-develop.2017.9.25+commit.a72237f2.Linux.g++",
            "source" : "src/BlockchainTestsFiller/GeneralStateTests/stInitCodeTest/CallRecursiveContract_d0g0v0Filler.json",
            "sourceHash" : "8d529644ca8ea1a246d92e2a632eea5e3d047412caa3e9eecdabef4cddd0803e"
        },
        "blocks" : [
            {
                "blockHeader" : {
                    "bloom" : "0x00000000000000000000000000000000000000000000000000000000000000000000000000000000000000000000000000000000000000000000000000000000000000000000000000000000000000000000000000000000000000000000000000000000000000000000000000000000000000000000000000000000000000000000000000000000000000000000000000000000000000000000000000000000000000000000000000000000000000000000000000000000000000000000000000000000000000000000000000000000000000000000000000000000000000000000000000000000000000000000000000000000000000000000000000000000",
                    "coinbase" : "0x2adc25665018aa1fe0e6bc666dac8fc2697ff9ba",
                    "difficulty" : "0x020000",
                    "extraData" : "",
                    "gasLimit" : "0x05f5e100",
                    "gasUsed" : "0x061a80",
                    "hash" : "0x56b01bc48896d0f148e3cbeb25d2acca2fb269f58c76259f12b6371b34cf55e0",
                    "mixHash" : "0xf2a65eacc585c243da6a578441843d140dd0f249a877b0ded6144c9377d0754b",
                    "nonce" : "0xe33515169624bac0",
                    "number" : "0x01",
                    "parentHash" : "0x6c44ba6d50081eedac235864ef83628b46a1a93f57c34e03e4782e7a04e3bf3f",
                    "receiptTrie" : "0x148ccddbf11792db5ae8678da605f39100dd3a61ccb30746f764c0da5f07fab6",
                    "stateRoot" : "0x55f734e7ea6efcad82a24fa8642ca33400d5d51513ab41b99f6e195ded745b83",
                    "timestamp" : "0x03e8",
                    "transactionsTrie" : "0xd4be89a2f61318fc9713ec59a5f4dc08476e084155c765e911baf3180b66a493",
                    "uncleHash" : "0x1dcc4de8dec75d7aab85b567b6ccd41ad312451b948a7413f0a142fd40d49347"
                },
                "rlp" : "0xf90261f901f9a06c44ba6d50081eedac235864ef83628b46a1a93f57c34e03e4782e7a04e3bf3fa01dcc4de8dec75d7aab85b567b6ccd41ad312451b948a7413f0a142fd40d49347942adc25665018aa1fe0e6bc666dac8fc2697ff9baa055f734e7ea6efcad82a24fa8642ca33400d5d51513ab41b99f6e195ded745b83a0d4be89a2f61318fc9713ec59a5f4dc08476e084155c765e911baf3180b66a493a0148ccddbf11792db5ae8678da605f39100dd3a61ccb30746f764c0da5f07fab6b901000000000000000000000000000000000000000000000000000000000000000000000000000000000000000000000000000000000000000000000000000000000000000000000000000000000000000000000000000000000000000000000000000000000000000000000000000000000000000000000000000000000000000000000000000000000000000000000000000000000000000000000000000000000000000000000000000000000000000000000000000000000000000000000000000000000000000000000000000000000000000000000000000000000000000000000000000000000000000000000000000000000000000000000000000000000083020000018405f5e10083061a808203e880a0f2a65eacc585c243da6a578441843d140dd0f249a877b0ded6144c9377d0754b88e33515169624bac0f862f860800183061a8094095e7baea6a6c7c4c2dfeb977efac326af552d8701001ca0767b4aeef3b7b464066b6622894304ddbe828ff6f7d35b4a208479b84190072da06d23402c4c7144e986f0a9dbbb8bfc7fd8e1d75f13bb85d5cce03b46f0a8b0cac0",
                "transactions" : [
                    {
                        "data" : "0x00",
                        "gasLimit" : "0x061a80",
                        "gasPrice" : "0x01",
                        "nonce" : "0x00",
                        "r" : "0x767b4aeef3b7b464066b6622894304ddbe828ff6f7d35b4a208479b84190072d",
                        "s" : "0x6d23402c4c7144e986f0a9dbbb8bfc7fd8e1d75f13bb85d5cce03b46f0a8b0ca",
                        "to" : "0x095e7baea6a6c7c4c2dfeb977efac326af552d87",
                        "v" : "0x1c",
                        "value" : "0x01"
                    }
                ],
                "uncleHeaders" : [
                ]
            }
        ],
        "genesisBlockHeader" : {
            "bloom" : "0x00000000000000000000000000000000000000000000000000000000000000000000000000000000000000000000000000000000000000000000000000000000000000000000000000000000000000000000000000000000000000000000000000000000000000000000000000000000000000000000000000000000000000000000000000000000000000000000000000000000000000000000000000000000000000000000000000000000000000000000000000000000000000000000000000000000000000000000000000000000000000000000000000000000000000000000000000000000000000000000000000000000000000000000000000000000",
            "coinbase" : "0x2adc25665018aa1fe0e6bc666dac8fc2697ff9ba",
            "difficulty" : "0x020000",
            "extraData" : "0x42",
            "gasLimit" : "0x05f5e100",
            "gasUsed" : "0x00",
            "hash" : "0x6c44ba6d50081eedac235864ef83628b46a1a93f57c34e03e4782e7a04e3bf3f",
            "mixHash" : "0x56e81f171bcc55a6ff8345e692c0f86e5b48e01b996cadc001622fb5e363b421",
            "nonce" : "0x0102030405060708",
            "number" : "0x00",
            "parentHash" : "0x0000000000000000000000000000000000000000000000000000000000000000",
            "receiptTrie" : "0x56e81f171bcc55a6ff8345e692c0f86e5b48e01b996cadc001622fb5e363b421",
            "stateRoot" : "0x9c33b65c5ead10d16ec24c6d6dcdff561dae7610857513f507152c6d05e15d22",
            "timestamp" : "0x03b6",
            "transactionsTrie" : "0x56e81f171bcc55a6ff8345e692c0f86e5b48e01b996cadc001622fb5e363b421",
            "uncleHash" : "0x1dcc4de8dec75d7aab85b567b6ccd41ad312451b948a7413f0a142fd40d49347"
        },
        "genesisRLP" : "0xf901fbf901f6a00000000000000000000000000000000000000000000000000000000000000000a01dcc4de8dec75d7aab85b567b6ccd41ad312451b948a7413f0a142fd40d49347942adc25665018aa1fe0e6bc666dac8fc2697ff9baa09c33b65c5ead10d16ec24c6d6dcdff561dae7610857513f507152c6d05e15d22a056e81f171bcc55a6ff8345e692c0f86e5b48e01b996cadc001622fb5e363b421a056e81f171bcc55a6ff8345e692c0f86e5b48e01b996cadc001622fb5e363b421b901000000000000000000000000000000000000000000000000000000000000000000000000000000000000000000000000000000000000000000000000000000000000000000000000000000000000000000000000000000000000000000000000000000000000000000000000000000000000000000000000000000000000000000000000000000000000000000000000000000000000000000000000000000000000000000000000000000000000000000000000000000000000000000000000000000000000000000000000000000000000000000000000000000000000000000000000000000000000000000000000000000000000000000000000000000000083020000808405f5e100808203b642a056e81f171bcc55a6ff8345e692c0f86e5b48e01b996cadc001622fb5e363b421880102030405060708c0c0",
        "lastblockhash" : "0x56b01bc48896d0f148e3cbeb25d2acca2fb269f58c76259f12b6371b34cf55e0",
        "network" : "Frontier",
        "postState" : {
            "0x095e7baea6a6c7c4c2dfeb977efac326af552d87" : {
                "balance" : "0x01",
                "code" : "0x3060025560206000600039602060006000f0",
                "nonce" : "0x29",
                "storage" : {
                    "0x02" : "0x095e7baea6a6c7c4c2dfeb977efac326af552d87"
                }
            },
            "0x1a4c83e1a9834cdc7e4a905ff7f0cf44aed73180" : {
                "balance" : "0x00",
                "code" : "",
                "nonce" : "0x01",
                "storage" : {
                    "0x02" : "0x1a4c83e1a9834cdc7e4a905ff7f0cf44aed73180"
                }
            },
            "0x2adc25665018aa1fe0e6bc666dac8fc2697ff9ba" : {
                "balance" : "0x4563918244fa1a80",
                "code" : "",
                "nonce" : "0x00",
                "storage" : {
                }
            },
            "0x8e3411c91d5dd4081b4846fa2f93808f5ad19686" : {
                "balance" : "0x00",
                "code" : "",
                "nonce" : "0x01",
                "storage" : {
                    "0x02" : "0x8e3411c91d5dd4081b4846fa2f93808f5ad19686"
                }
            },
            "0x9ca74ad1a326b79d9ec9c080deb56062e975a7ee" : {
                "balance" : "0x00",
                "code" : "",
                "nonce" : "0x01",
                "storage" : {
                    "0x02" : "0x9ca74ad1a326b79d9ec9c080deb56062e975a7ee"
                }
            },
            "0xa94f5374fce5edbc8e2a8697c15331677e6ebf0b" : {
                "balance" : "0x0927bf",
                "code" : "",
                "nonce" : "0x01",
                "storage" : {
                }
            },
            "0xbbba3a14689a28fd82f09d4e01bc87d9654e95c3" : {
                "balance" : "0x00",
                "code" : "",
                "nonce" : "0x01",
                "storage" : {
                    "0x02" : "0xbbba3a14689a28fd82f09d4e01bc87d9654e95c3"
                }
            },
            "0xdfceaa082d190ab34e3c37943de35ae8fc01f300" : {
                "balance" : "0x00",
                "code" : "",
                "nonce" : "0x01",
                "storage" : {
                    "0x02" : "0xdfceaa082d190ab34e3c37943de35ae8fc01f300"
                }
            },
            "0xf0064be0919341a45680ec0d592eaee47df671ac" : {
                "balance" : "0x00",
                "code" : "",
                "nonce" : "0x01",
                "storage" : {
                    "0x02" : "0xf0064be0919341a45680ec0d592eaee47df671ac"
                }
            }
        },
        "pre" : {
            "0x095e7baea6a6c7c4c2dfeb977efac326af552d87" : {
                "balance" : "0x00",
                "code" : "0x3060025560206000600039602060006000f0",
                "nonce" : "0x28",
                "storage" : {
                }
            },
            "0xa94f5374fce5edbc8e2a8697c15331677e6ebf0b" : {
                "balance" : "0x0f4240",
                "code" : "",
                "nonce" : "0x00",
                "storage" : {
                }
            }
        }
    },
    "CallRecursiveContract_d0g0v0_Homestead" : {
        "_info" : {
            "comment" : "",
            "filledwith" : "cpp-1.3.0+commit.6e0ce939.Linux.g++",
            "lllcversion" : "Version: 0.4.18-develop.2017.9.25+commit.a72237f2.Linux.g++",
            "source" : "src/BlockchainTestsFiller/GeneralStateTests/stInitCodeTest/CallRecursiveContract_d0g0v0Filler.json",
            "sourceHash" : "8d529644ca8ea1a246d92e2a632eea5e3d047412caa3e9eecdabef4cddd0803e"
        },
        "blocks" : [
            {
                "blockHeader" : {
                    "bloom" : "0x00000000000000000000000000000000000000000000000000000000000000000000000000000000000000000000000000000000000000000000000000000000000000000000000000000000000000000000000000000000000000000000000000000000000000000000000000000000000000000000000000000000000000000000000000000000000000000000000000000000000000000000000000000000000000000000000000000000000000000000000000000000000000000000000000000000000000000000000000000000000000000000000000000000000000000000000000000000000000000000000000000000000000000000000000000000",
                    "coinbase" : "0x2adc25665018aa1fe0e6bc666dac8fc2697ff9ba",
                    "difficulty" : "0x020000",
                    "extraData" : "",
                    "gasLimit" : "0x05f5e100",
                    "gasUsed" : "0x061a80",
                    "hash" : "0x4b932565479299ee989f7bc9da55d2a3982052fe528791316164e8a9aa7f56db",
                    "mixHash" : "0x097d08e84b142edbdf167b1768103abcbaaf43d90f9ad99f8d06ab39a4444e20",
                    "nonce" : "0xf42704efd7c8c55b",
                    "number" : "0x01",
                    "parentHash" : "0x6c44ba6d50081eedac235864ef83628b46a1a93f57c34e03e4782e7a04e3bf3f",
                    "receiptTrie" : "0x148ccddbf11792db5ae8678da605f39100dd3a61ccb30746f764c0da5f07fab6",
                    "stateRoot" : "0x55f734e7ea6efcad82a24fa8642ca33400d5d51513ab41b99f6e195ded745b83",
                    "timestamp" : "0x03e8",
                    "transactionsTrie" : "0xd4be89a2f61318fc9713ec59a5f4dc08476e084155c765e911baf3180b66a493",
                    "uncleHash" : "0x1dcc4de8dec75d7aab85b567b6ccd41ad312451b948a7413f0a142fd40d49347"
                },
                "rlp" : "0xf90261f901f9a06c44ba6d50081eedac235864ef83628b46a1a93f57c34e03e4782e7a04e3bf3fa01dcc4de8dec75d7aab85b567b6ccd41ad312451b948a7413f0a142fd40d49347942adc25665018aa1fe0e6bc666dac8fc2697ff9baa055f734e7ea6efcad82a24fa8642ca33400d5d51513ab41b99f6e195ded745b83a0d4be89a2f61318fc9713ec59a5f4dc08476e084155c765e911baf3180b66a493a0148ccddbf11792db5ae8678da605f39100dd3a61ccb30746f764c0da5f07fab6b901000000000000000000000000000000000000000000000000000000000000000000000000000000000000000000000000000000000000000000000000000000000000000000000000000000000000000000000000000000000000000000000000000000000000000000000000000000000000000000000000000000000000000000000000000000000000000000000000000000000000000000000000000000000000000000000000000000000000000000000000000000000000000000000000000000000000000000000000000000000000000000000000000000000000000000000000000000000000000000000000000000000000000000000000000000000083020000018405f5e10083061a808203e880a0097d08e84b142edbdf167b1768103abcbaaf43d90f9ad99f8d06ab39a4444e2088f42704efd7c8c55bf862f860800183061a8094095e7baea6a6c7c4c2dfeb977efac326af552d8701001ca0767b4aeef3b7b464066b6622894304ddbe828ff6f7d35b4a208479b84190072da06d23402c4c7144e986f0a9dbbb8bfc7fd8e1d75f13bb85d5cce03b46f0a8b0cac0",
                "transactions" : [
                    {
                        "data" : "0x00",
                        "gasLimit" : "0x061a80",
                        "gasPrice" : "0x01",
                        "nonce" : "0x00",
                        "r" : "0x767b4aeef3b7b464066b6622894304ddbe828ff6f7d35b4a208479b84190072d",
                        "s" : "0x6d23402c4c7144e986f0a9dbbb8bfc7fd8e1d75f13bb85d5cce03b46f0a8b0ca",
                        "to" : "0x095e7baea6a6c7c4c2dfeb977efac326af552d87",
                        "v" : "0x1c",
                        "value" : "0x01"
                    }
                ],
                "uncleHeaders" : [
                ]
            }
        ],
        "genesisBlockHeader" : {
            "bloom" : "0x00000000000000000000000000000000000000000000000000000000000000000000000000000000000000000000000000000000000000000000000000000000000000000000000000000000000000000000000000000000000000000000000000000000000000000000000000000000000000000000000000000000000000000000000000000000000000000000000000000000000000000000000000000000000000000000000000000000000000000000000000000000000000000000000000000000000000000000000000000000000000000000000000000000000000000000000000000000000000000000000000000000000000000000000000000000",
            "coinbase" : "0x2adc25665018aa1fe0e6bc666dac8fc2697ff9ba",
            "difficulty" : "0x020000",
            "extraData" : "0x42",
            "gasLimit" : "0x05f5e100",
            "gasUsed" : "0x00",
            "hash" : "0x6c44ba6d50081eedac235864ef83628b46a1a93f57c34e03e4782e7a04e3bf3f",
            "mixHash" : "0x56e81f171bcc55a6ff8345e692c0f86e5b48e01b996cadc001622fb5e363b421",
            "nonce" : "0x0102030405060708",
            "number" : "0x00",
            "parentHash" : "0x0000000000000000000000000000000000000000000000000000000000000000",
            "receiptTrie" : "0x56e81f171bcc55a6ff8345e692c0f86e5b48e01b996cadc001622fb5e363b421",
            "stateRoot" : "0x9c33b65c5ead10d16ec24c6d6dcdff561dae7610857513f507152c6d05e15d22",
            "timestamp" : "0x03b6",
            "transactionsTrie" : "0x56e81f171bcc55a6ff8345e692c0f86e5b48e01b996cadc001622fb5e363b421",
            "uncleHash" : "0x1dcc4de8dec75d7aab85b567b6ccd41ad312451b948a7413f0a142fd40d49347"
        },
        "genesisRLP" : "0xf901fbf901f6a00000000000000000000000000000000000000000000000000000000000000000a01dcc4de8dec75d7aab85b567b6ccd41ad312451b948a7413f0a142fd40d49347942adc25665018aa1fe0e6bc666dac8fc2697ff9baa09c33b65c5ead10d16ec24c6d6dcdff561dae7610857513f507152c6d05e15d22a056e81f171bcc55a6ff8345e692c0f86e5b48e01b996cadc001622fb5e363b421a056e81f171bcc55a6ff8345e692c0f86e5b48e01b996cadc001622fb5e363b421b901000000000000000000000000000000000000000000000000000000000000000000000000000000000000000000000000000000000000000000000000000000000000000000000000000000000000000000000000000000000000000000000000000000000000000000000000000000000000000000000000000000000000000000000000000000000000000000000000000000000000000000000000000000000000000000000000000000000000000000000000000000000000000000000000000000000000000000000000000000000000000000000000000000000000000000000000000000000000000000000000000000000000000000000000000000000083020000808405f5e100808203b642a056e81f171bcc55a6ff8345e692c0f86e5b48e01b996cadc001622fb5e363b421880102030405060708c0c0",
        "lastblockhash" : "0x4b932565479299ee989f7bc9da55d2a3982052fe528791316164e8a9aa7f56db",
        "network" : "Homestead",
        "postState" : {
            "0x095e7baea6a6c7c4c2dfeb977efac326af552d87" : {
                "balance" : "0x01",
                "code" : "0x3060025560206000600039602060006000f0",
                "nonce" : "0x29",
                "storage" : {
                    "0x02" : "0x095e7baea6a6c7c4c2dfeb977efac326af552d87"
                }
            },
            "0x1a4c83e1a9834cdc7e4a905ff7f0cf44aed73180" : {
                "balance" : "0x00",
                "code" : "",
                "nonce" : "0x01",
                "storage" : {
                    "0x02" : "0x1a4c83e1a9834cdc7e4a905ff7f0cf44aed73180"
                }
            },
            "0x2adc25665018aa1fe0e6bc666dac8fc2697ff9ba" : {
                "balance" : "0x4563918244fa1a80",
                "code" : "",
                "nonce" : "0x00",
                "storage" : {
                }
            },
            "0x8e3411c91d5dd4081b4846fa2f93808f5ad19686" : {
                "balance" : "0x00",
                "code" : "",
                "nonce" : "0x01",
                "storage" : {
                    "0x02" : "0x8e3411c91d5dd4081b4846fa2f93808f5ad19686"
                }
            },
            "0x9ca74ad1a326b79d9ec9c080deb56062e975a7ee" : {
                "balance" : "0x00",
                "code" : "",
                "nonce" : "0x01",
                "storage" : {
                    "0x02" : "0x9ca74ad1a326b79d9ec9c080deb56062e975a7ee"
                }
            },
            "0xa94f5374fce5edbc8e2a8697c15331677e6ebf0b" : {
                "balance" : "0x0927bf",
                "code" : "",
                "nonce" : "0x01",
                "storage" : {
                }
            },
            "0xbbba3a14689a28fd82f09d4e01bc87d9654e95c3" : {
                "balance" : "0x00",
                "code" : "",
                "nonce" : "0x01",
                "storage" : {
                    "0x02" : "0xbbba3a14689a28fd82f09d4e01bc87d9654e95c3"
                }
            },
            "0xdfceaa082d190ab34e3c37943de35ae8fc01f300" : {
                "balance" : "0x00",
                "code" : "",
                "nonce" : "0x01",
                "storage" : {
                    "0x02" : "0xdfceaa082d190ab34e3c37943de35ae8fc01f300"
                }
            },
            "0xf0064be0919341a45680ec0d592eaee47df671ac" : {
                "balance" : "0x00",
                "code" : "",
                "nonce" : "0x01",
                "storage" : {
                    "0x02" : "0xf0064be0919341a45680ec0d592eaee47df671ac"
                }
            }
        },
        "pre" : {
            "0x095e7baea6a6c7c4c2dfeb977efac326af552d87" : {
                "balance" : "0x00",
                "code" : "0x3060025560206000600039602060006000f0",
                "nonce" : "0x28",
                "storage" : {
                }
            },
            "0xa94f5374fce5edbc8e2a8697c15331677e6ebf0b" : {
                "balance" : "0x0f4240",
                "code" : "",
                "nonce" : "0x00",
                "storage" : {
                }
            }
        }
    }
}