{
    "ReturnTest_d0g0v0_Byzantium" : {
        "_info" : {
            "comment" : "",
            "filledwith" : "cpp-1.3.0+commit.6e0ce939.Linux.g++",
            "lllcversion" : "Version: 0.4.18-develop.2017.9.25+commit.a72237f2.Linux.g++",
            "source" : "src/BlockchainTestsFiller/GeneralStateTests/stInitCodeTest/ReturnTest_d0g0v0Filler.json",
            "sourceHash" : "a24de45121ee2fa16be4d125ba33a0d05410c3bd03044283332ab13661c44dba"
        },
        "blocks" : [
            {
                "blockHeader" : {
                    "bloom" : "0x00000000000000000000000000000000000000000000000000000000000000000000000000000000000000000000000000000000000000000000000000000000000000000000000000000000000000000000000000000000000000000000000000000000000000000000000000000000000000000000000000000000000000000000000000000000000000000000000000000000000000000000000000000000000000000000000000000000000000000000000000000000000000000000000000000000000000000000000000000000000000000000000000000000000000000000000000000000000000000000000000000000000000000000000000000000",
                    "coinbase" : "0x2adc25665018aa1fe0e6bc666dac8fc2697ff9ba",
                    "difficulty" : "0x020000",
                    "extraData" : "",
                    "gasLimit" : "0x989680",
                    "gasUsed" : "0xa31f",
                    "hash" : "0x293ee1d0d86cef1a673599b023e78853c470aebdd1508005c336c16440426d81",
                    "mixHash" : "0x27499e006d23eb400885879dfec90bb4423cce0558703e3d02cfae2762d76b7a",
                    "nonce" : "0x6a1b5d480e4baac6",
                    "number" : "0x01",
                    "parentHash" : "0x46c7a10b4cc92c1c62866cdc3739b2aa43b5efedf11ae4db8315a0e17616507e",
                    "receiptTrie" : "0x05df975c6a42b362001fb5a94e0fbce146e1a6bd47870a399f92defeed1f093d",
                    "stateRoot" : "0x9900dcbc019434bcd86b02ea5d8cbf4a981bdcfcdfdbe2e9624f8e82dd456b10",
                    "timestamp" : "0x03e8",
                    "transactionsTrie" : "0x503f1d6935235f7b7d9d33ff9771fba4c3e8271ddd595fd8b8f29b445b460078",
                    "uncleHash" : "0x1dcc4de8dec75d7aab85b567b6ccd41ad312451b948a7413f0a142fd40d49347"
                },
                "rlp" : "0xf9025ff901f7a046c7a10b4cc92c1c62866cdc3739b2aa43b5efedf11ae4db8315a0e17616507ea01dcc4de8dec75d7aab85b567b6ccd41ad312451b948a7413f0a142fd40d49347942adc25665018aa1fe0e6bc666dac8fc2697ff9baa09900dcbc019434bcd86b02ea5d8cbf4a981bdcfcdfdbe2e9624f8e82dd456b10a0503f1d6935235f7b7d9d33ff9771fba4c3e8271ddd595fd8b8f29b445b460078a005df975c6a42b362001fb5a94e0fbce146e1a6bd47870a399f92defeed1f093db901000000000000000000000000000000000000000000000000000000000000000000000000000000000000000000000000000000000000000000000000000000000000000000000000000000000000000000000000000000000000000000000000000000000000000000000000000000000000000000000000000000000000000000000000000000000000000000000000000000000000000000000000000000000000000000000000000000000000000000000000000000000000000000000000000000000000000000000000000000000000000000000000000000000000000000000000000000000000000000000000000000000000000000000000000000000083020000018398968082a31f8203e880a027499e006d23eb400885879dfec90bb4423cce0558703e3d02cfae2762d76b7a886a1b5d480e4baac6f862f8608001830493e094194f5374fce5edbc8e2a8697c15331677e6ebf0b80801ba020da68794ae547ca605073f401fa13b957d3a93590822aa791bf7e5bb04bfad9a001a3212c79d7cbac919724f07da0e43302b7c10d14cba594aadc4220cc735555c0",
                "transactions" : [
                    {
                        "data" : "",
                        "gasLimit" : "0x0493e0",
                        "gasPrice" : "0x01",
                        "nonce" : "0x00",
                        "r" : "0x20da68794ae547ca605073f401fa13b957d3a93590822aa791bf7e5bb04bfad9",
                        "s" : "0x01a3212c79d7cbac919724f07da0e43302b7c10d14cba594aadc4220cc735555",
                        "to" : "0x194f5374fce5edbc8e2a8697c15331677e6ebf0b",
                        "v" : "0x1b",
                        "value" : "0x00"
                    }
                ],
                "uncleHeaders" : [
                ]
            }
        ],
        "genesisBlockHeader" : {
            "bloom" : "0x00000000000000000000000000000000000000000000000000000000000000000000000000000000000000000000000000000000000000000000000000000000000000000000000000000000000000000000000000000000000000000000000000000000000000000000000000000000000000000000000000000000000000000000000000000000000000000000000000000000000000000000000000000000000000000000000000000000000000000000000000000000000000000000000000000000000000000000000000000000000000000000000000000000000000000000000000000000000000000000000000000000000000000000000000000000",
            "coinbase" : "0x2adc25665018aa1fe0e6bc666dac8fc2697ff9ba",
            "difficulty" : "0x020000",
            "extraData" : "0x42",
            "gasLimit" : "0x989680",
            "gasUsed" : "0x00",
            "hash" : "0x46c7a10b4cc92c1c62866cdc3739b2aa43b5efedf11ae4db8315a0e17616507e",
            "mixHash" : "0x56e81f171bcc55a6ff8345e692c0f86e5b48e01b996cadc001622fb5e363b421",
            "nonce" : "0x0102030405060708",
            "number" : "0x00",
            "parentHash" : "0x0000000000000000000000000000000000000000000000000000000000000000",
            "receiptTrie" : "0x56e81f171bcc55a6ff8345e692c0f86e5b48e01b996cadc001622fb5e363b421",
            "stateRoot" : "0xff82e05817d00564d38785ec95dd34c0d382b91fb6ba20b20d74efca6b2f2639",
            "timestamp" : "0x03b6",
            "transactionsTrie" : "0x56e81f171bcc55a6ff8345e692c0f86e5b48e01b996cadc001622fb5e363b421",
            "uncleHash" : "0x1dcc4de8dec75d7aab85b567b6ccd41ad312451b948a7413f0a142fd40d49347"
        },
        "genesisRLP" : "0xf901faf901f5a00000000000000000000000000000000000000000000000000000000000000000a01dcc4de8dec75d7aab85b567b6ccd41ad312451b948a7413f0a142fd40d49347942adc25665018aa1fe0e6bc666dac8fc2697ff9baa0ff82e05817d00564d38785ec95dd34c0d382b91fb6ba20b20d74efca6b2f2639a056e81f171bcc55a6ff8345e692c0f86e5b48e01b996cadc001622fb5e363b421a056e81f171bcc55a6ff8345e692c0f86e5b48e01b996cadc001622fb5e363b421b9010000000000000000000000000000000000000000000000000000000000000000000000000000000000000000000000000000000000000000000000000000000000000000000000000000000000000000000000000000000000000000000000000000000000000000000000000000000000000000000000000000000000000000000000000000000000000000000000000000000000000000000000000000000000000000000000000000000000000000000000000000000000000000000000000000000000000000000000000000000000000000000000000000000000000000000000000000000000000000000000000000000000000000000000000000000000830200008083989680808203b642a056e81f171bcc55a6ff8345e692c0f86e5b48e01b996cadc001622fb5e363b421880102030405060708c0c0",
        "lastblockhash" : "0x293ee1d0d86cef1a673599b023e78853c470aebdd1508005c336c16440426d81",
        "network" : "Byzantium",
        "postState" : {
            "0x194f5374fce5edbc8e2a8697c15331677e6ebf0b" : {
                "balance" : "0x00",
                "code" : "0x6001601f6001601e600073b94f5374fce5edbc8e2a8697c15331677e6ebf0b6107d0f1506000516000556002601ef3",
                "nonce" : "0x00",
                "storage" : {
                    "0x00" : "0x15"
                }
            },
            "0x2adc25665018aa1fe0e6bc666dac8fc2697ff9ba" : {
                "balance" : "0x29a2241af62ca31f",
                "code" : "",
                "nonce" : "0x00",
                "storage" : {
                }
            },
            "0xa94f5374fce5edbc8e2a8697c15331677e6ebf0b" : {
                "balance" : "0x0e9f21",
                "code" : "",
                "nonce" : "0x01",
                "storage" : {
                }
            },
            "0xb94f5374fce5edbc8e2a8697c15331677e6ebf0b" : {
                "balance" : "0x0186a0",
                "code" : "0x60156000526001601ff3",
                "nonce" : "0x00",
                "storage" : {
                }
            }
        },
        "pre" : {
            "0x194f5374fce5edbc8e2a8697c15331677e6ebf0b" : {
                "balance" : "0x00",
                "code" : "0x6001601f6001601e600073b94f5374fce5edbc8e2a8697c15331677e6ebf0b6107d0f1506000516000556002601ef3",
                "nonce" : "0x00",
                "storage" : {
                }
            },
            "0xa94f5374fce5edbc8e2a8697c15331677e6ebf0b" : {
                "balance" : "0x0f4240",
                "code" : "",
                "nonce" : "0x00",
                "storage" : {
                }
            },
            "0xb94f5374fce5edbc8e2a8697c15331677e6ebf0b" : {
                "balance" : "0x0186a0",
                "code" : "0x60156000526001601ff3",
                "nonce" : "0x00",
                "storage" : {
                }
            }
        }
    },
    "ReturnTest_d0g0v0_EIP150" : {
        "_info" : {
            "comment" : "",
            "filledwith" : "cpp-1.3.0+commit.6e0ce939.Linux.g++",
            "lllcversion" : "Version: 0.4.18-develop.2017.9.25+commit.a72237f2.Linux.g++",
            "source" : "src/BlockchainTestsFiller/GeneralStateTests/stInitCodeTest/ReturnTest_d0g0v0Filler.json",
            "sourceHash" : "a24de45121ee2fa16be4d125ba33a0d05410c3bd03044283332ab13661c44dba"
        },
        "blocks" : [
            {
                "blockHeader" : {
                    "bloom" : "0x00000000000000000000000000000000000000000000000000000000000000000000000000000000000000000000000000000000000000000000000000000000000000000000000000000000000000000000000000000000000000000000000000000000000000000000000000000000000000000000000000000000000000000000000000000000000000000000000000000000000000000000000000000000000000000000000000000000000000000000000000000000000000000000000000000000000000000000000000000000000000000000000000000000000000000000000000000000000000000000000000000000000000000000000000000000",
                    "coinbase" : "0x2adc25665018aa1fe0e6bc666dac8fc2697ff9ba",
                    "difficulty" : "0x020000",
                    "extraData" : "",
                    "gasLimit" : "0x989680",
                    "gasUsed" : "0xa31f",
                    "hash" : "0xbb7dee78dbc3c6e98396841f2579ea8f7f73efbd5fee0df256bcb51d0f56764f",
                    "mixHash" : "0x645b5657dbae03f6cfd0af6091d40584d4165485cbe590080972c2fd0bb6f9c4",
                    "nonce" : "0xa60685e51bcdf84a",
                    "number" : "0x01",
                    "parentHash" : "0x46c7a10b4cc92c1c62866cdc3739b2aa43b5efedf11ae4db8315a0e17616507e",
                    "receiptTrie" : "0xb0443e0966e248f345b2c003b209beefdf3d460e2bdc36fa189d7734f7a7537d",
                    "stateRoot" : "0x7e147a0198ba937fce0cfe4989cdff660a0d0fdcb3b206f7988b0eb113395cc0",
                    "timestamp" : "0x03e8",
                    "transactionsTrie" : "0x503f1d6935235f7b7d9d33ff9771fba4c3e8271ddd595fd8b8f29b445b460078",
                    "uncleHash" : "0x1dcc4de8dec75d7aab85b567b6ccd41ad312451b948a7413f0a142fd40d49347"
                },
                "rlp" : "0xf9025ff901f7a046c7a10b4cc92c1c62866cdc3739b2aa43b5efedf11ae4db8315a0e17616507ea01dcc4de8dec75d7aab85b567b6ccd41ad312451b948a7413f0a142fd40d49347942adc25665018aa1fe0e6bc666dac8fc2697ff9baa07e147a0198ba937fce0cfe4989cdff660a0d0fdcb3b206f7988b0eb113395cc0a0503f1d6935235f7b7d9d33ff9771fba4c3e8271ddd595fd8b8f29b445b460078a0b0443e0966e248f345b2c003b209beefdf3d460e2bdc36fa189d7734f7a7537db901000000000000000000000000000000000000000000000000000000000000000000000000000000000000000000000000000000000000000000000000000000000000000000000000000000000000000000000000000000000000000000000000000000000000000000000000000000000000000000000000000000000000000000000000000000000000000000000000000000000000000000000000000000000000000000000000000000000000000000000000000000000000000000000000000000000000000000000000000000000000000000000000000000000000000000000000000000000000000000000000000000000000000000000000000000000083020000018398968082a31f8203e880a0645b5657dbae03f6cfd0af6091d40584d4165485cbe590080972c2fd0bb6f9c488a60685e51bcdf84af862f8608001830493e094194f5374fce5edbc8e2a8697c15331677e6ebf0b80801ba020da68794ae547ca605073f401fa13b957d3a93590822aa791bf7e5bb04bfad9a001a3212c79d7cbac919724f07da0e43302b7c10d14cba594aadc4220cc735555c0",
                "transactions" : [
                    {
                        "data" : "",
                        "gasLimit" : "0x0493e0",
                        "gasPrice" : "0x01",
                        "nonce" : "0x00",
                        "r" : "0x20da68794ae547ca605073f401fa13b957d3a93590822aa791bf7e5bb04bfad9",
                        "s" : "0x01a3212c79d7cbac919724f07da0e43302b7c10d14cba594aadc4220cc735555",
                        "to" : "0x194f5374fce5edbc8e2a8697c15331677e6ebf0b",
                        "v" : "0x1b",
                        "value" : "0x00"
                    }
                ],
                "uncleHeaders" : [
                ]
            }
        ],
        "genesisBlockHeader" : {
            "bloom" : "0x00000000000000000000000000000000000000000000000000000000000000000000000000000000000000000000000000000000000000000000000000000000000000000000000000000000000000000000000000000000000000000000000000000000000000000000000000000000000000000000000000000000000000000000000000000000000000000000000000000000000000000000000000000000000000000000000000000000000000000000000000000000000000000000000000000000000000000000000000000000000000000000000000000000000000000000000000000000000000000000000000000000000000000000000000000000",
            "coinbase" : "0x2adc25665018aa1fe0e6bc666dac8fc2697ff9ba",
            "difficulty" : "0x020000",
            "extraData" : "0x42",
            "gasLimit" : "0x989680",
            "gasUsed" : "0x00",
            "hash" : "0x46c7a10b4cc92c1c62866cdc3739b2aa43b5efedf11ae4db8315a0e17616507e",
            "mixHash" : "0x56e81f171bcc55a6ff8345e692c0f86e5b48e01b996cadc001622fb5e363b421",
            "nonce" : "0x0102030405060708",
            "number" : "0x00",
            "parentHash" : "0x0000000000000000000000000000000000000000000000000000000000000000",
            "receiptTrie" : "0x56e81f171bcc55a6ff8345e692c0f86e5b48e01b996cadc001622fb5e363b421",
            "stateRoot" : "0xff82e05817d00564d38785ec95dd34c0d382b91fb6ba20b20d74efca6b2f2639",
            "timestamp" : "0x03b6",
            "transactionsTrie" : "0x56e81f171bcc55a6ff8345e692c0f86e5b48e01b996cadc001622fb5e363b421",
            "uncleHash" : "0x1dcc4de8dec75d7aab85b567b6ccd41ad312451b948a7413f0a142fd40d49347"
        },
        "genesisRLP" : "0xf901faf901f5a00000000000000000000000000000000000000000000000000000000000000000a01dcc4de8dec75d7aab85b567b6ccd41ad312451b948a7413f0a142fd40d49347942adc25665018aa1fe0e6bc666dac8fc2697ff9baa0ff82e05817d00564d38785ec95dd34c0d382b91fb6ba20b20d74efca6b2f2639a056e81f171bcc55a6ff8345e692c0f86e5b48e01b996cadc001622fb5e363b421a056e81f171bcc55a6ff8345e692c0f86e5b48e01b996cadc001622fb5e363b421b9010000000000000000000000000000000000000000000000000000000000000000000000000000000000000000000000000000000000000000000000000000000000000000000000000000000000000000000000000000000000000000000000000000000000000000000000000000000000000000000000000000000000000000000000000000000000000000000000000000000000000000000000000000000000000000000000000000000000000000000000000000000000000000000000000000000000000000000000000000000000000000000000000000000000000000000000000000000000000000000000000000000000000000000000000000000000830200008083989680808203b642a056e81f171bcc55a6ff8345e692c0f86e5b48e01b996cadc001622fb5e363b421880102030405060708c0c0",
        "lastblockhash" : "0xbb7dee78dbc3c6e98396841f2579ea8f7f73efbd5fee0df256bcb51d0f56764f",
        "network" : "EIP150",
        "postState" : {
            "0x194f5374fce5edbc8e2a8697c15331677e6ebf0b" : {
                "balance" : "0x00",
                "code" : "0x6001601f6001601e600073b94f5374fce5edbc8e2a8697c15331677e6ebf0b6107d0f1506000516000556002601ef3",
                "nonce" : "0x00",
                "storage" : {
                    "0x00" : "0x15"
                }
            },
            "0x2adc25665018aa1fe0e6bc666dac8fc2697ff9ba" : {
                "balance" : "0x4563918244f4a31f",
                "code" : "",
                "nonce" : "0x00",
                "storage" : {
                }
            },
            "0xa94f5374fce5edbc8e2a8697c15331677e6ebf0b" : {
                "balance" : "0x0e9f21",
                "code" : "",
                "nonce" : "0x01",
                "storage" : {
                }
            },
            "0xb94f5374fce5edbc8e2a8697c15331677e6ebf0b" : {
                "balance" : "0x0186a0",
                "code" : "0x60156000526001601ff3",
                "nonce" : "0x00",
                "storage" : {
                }
            }
        },
        "pre" : {
            "0x194f5374fce5edbc8e2a8697c15331677e6ebf0b" : {
                "balance" : "0x00",
                "code" : "0x6001601f6001601e600073b94f5374fce5edbc8e2a8697c15331677e6ebf0b6107d0f1506000516000556002601ef3",
                "nonce" : "0x00",
                "storage" : {
                }
            },
            "0xa94f5374fce5edbc8e2a8697c15331677e6ebf0b" : {
                "balance" : "0x0f4240",
                "code" : "",
                "nonce" : "0x00",
                "storage" : {
                }
            },
            "0xb94f5374fce5edbc8e2a8697c15331677e6ebf0b" : {
                "balance" : "0x0186a0",
                "code" : "0x60156000526001601ff3",
                "nonce" : "0x00",
                "storage" : {
                }
            }
        }
    },
    "ReturnTest_d0g0v0_EIP158" : {
        "_info" : {
            "comment" : "",
            "filledwith" : "cpp-1.3.0+commit.6e0ce939.Linux.g++",
            "lllcversion" : "Version: 0.4.18-develop.2017.9.25+commit.a72237f2.Linux.g++",
            "source" : "src/BlockchainTestsFiller/GeneralStateTests/stInitCodeTest/ReturnTest_d0g0v0Filler.json",
            "sourceHash" : "a24de45121ee2fa16be4d125ba33a0d05410c3bd03044283332ab13661c44dba"
        },
        "blocks" : [
            {
                "blockHeader" : {
                    "bloom" : "0x00000000000000000000000000000000000000000000000000000000000000000000000000000000000000000000000000000000000000000000000000000000000000000000000000000000000000000000000000000000000000000000000000000000000000000000000000000000000000000000000000000000000000000000000000000000000000000000000000000000000000000000000000000000000000000000000000000000000000000000000000000000000000000000000000000000000000000000000000000000000000000000000000000000000000000000000000000000000000000000000000000000000000000000000000000000",
                    "coinbase" : "0x2adc25665018aa1fe0e6bc666dac8fc2697ff9ba",
                    "difficulty" : "0x020000",
                    "extraData" : "",
                    "gasLimit" : "0x989680",
                    "gasUsed" : "0xa31f",
                    "hash" : "0x3afb96ef700eaba7038f8c9387ec08fe00979da9596bb8330a3174bcb2d40c10",
                    "mixHash" : "0xb65f8a0a2a51e8bb7e38789e2ad266f7e3a2baadb61e68fd84115db5565aea9c",
                    "nonce" : "0xa2a4a4c3444c2f08",
                    "number" : "0x01",
                    "parentHash" : "0x46c7a10b4cc92c1c62866cdc3739b2aa43b5efedf11ae4db8315a0e17616507e",
                    "receiptTrie" : "0xb0443e0966e248f345b2c003b209beefdf3d460e2bdc36fa189d7734f7a7537d",
                    "stateRoot" : "0x7e147a0198ba937fce0cfe4989cdff660a0d0fdcb3b206f7988b0eb113395cc0",
                    "timestamp" : "0x03e8",
                    "transactionsTrie" : "0x503f1d6935235f7b7d9d33ff9771fba4c3e8271ddd595fd8b8f29b445b460078",
                    "uncleHash" : "0x1dcc4de8dec75d7aab85b567b6ccd41ad312451b948a7413f0a142fd40d49347"
                },
                "rlp" : "0xf9025ff901f7a046c7a10b4cc92c1c62866cdc3739b2aa43b5efedf11ae4db8315a0e17616507ea01dcc4de8dec75d7aab85b567b6ccd41ad312451b948a7413f0a142fd40d49347942adc25665018aa1fe0e6bc666dac8fc2697ff9baa07e147a0198ba937fce0cfe4989cdff660a0d0fdcb3b206f7988b0eb113395cc0a0503f1d6935235f7b7d9d33ff9771fba4c3e8271ddd595fd8b8f29b445b460078a0b0443e0966e248f345b2c003b209beefdf3d460e2bdc36fa189d7734f7a7537db901000000000000000000000000000000000000000000000000000000000000000000000000000000000000000000000000000000000000000000000000000000000000000000000000000000000000000000000000000000000000000000000000000000000000000000000000000000000000000000000000000000000000000000000000000000000000000000000000000000000000000000000000000000000000000000000000000000000000000000000000000000000000000000000000000000000000000000000000000000000000000000000000000000000000000000000000000000000000000000000000000000000000000000000000000000000083020000018398968082a31f8203e880a0b65f8a0a2a51e8bb7e38789e2ad266f7e3a2baadb61e68fd84115db5565aea9c88a2a4a4c3444c2f08f862f8608001830493e094194f5374fce5edbc8e2a8697c15331677e6ebf0b80801ba020da68794ae547ca605073f401fa13b957d3a93590822aa791bf7e5bb04bfad9a001a3212c79d7cbac919724f07da0e43302b7c10d14cba594aadc4220cc735555c0",
                "transactions" : [
                    {
                        "data" : "",
                        "gasLimit" : "0x0493e0",
                        "gasPrice" : "0x01",
                        "nonce" : "0x00",
                        "r" : "0x20da68794ae547ca605073f401fa13b957d3a93590822aa791bf7e5bb04bfad9",
                        "s" : "0x01a3212c79d7cbac919724f07da0e43302b7c10d14cba594aadc4220cc735555",
                        "to" : "0x194f5374fce5edbc8e2a8697c15331677e6ebf0b",
                        "v" : "0x1b",
                        "value" : "0x00"
                    }
                ],
                "uncleHeaders" : [
                ]
            }
        ],
        "genesisBlockHeader" : {
            "bloom" : "0x00000000000000000000000000000000000000000000000000000000000000000000000000000000000000000000000000000000000000000000000000000000000000000000000000000000000000000000000000000000000000000000000000000000000000000000000000000000000000000000000000000000000000000000000000000000000000000000000000000000000000000000000000000000000000000000000000000000000000000000000000000000000000000000000000000000000000000000000000000000000000000000000000000000000000000000000000000000000000000000000000000000000000000000000000000000",
            "coinbase" : "0x2adc25665018aa1fe0e6bc666dac8fc2697ff9ba",
            "difficulty" : "0x020000",
            "extraData" : "0x42",
            "gasLimit" : "0x989680",
            "gasUsed" : "0x00",
            "hash" : "0x46c7a10b4cc92c1c62866cdc3739b2aa43b5efedf11ae4db8315a0e17616507e",
            "mixHash" : "0x56e81f171bcc55a6ff8345e692c0f86e5b48e01b996cadc001622fb5e363b421",
            "nonce" : "0x0102030405060708",
            "number" : "0x00",
            "parentHash" : "0x0000000000000000000000000000000000000000000000000000000000000000",
            "receiptTrie" : "0x56e81f171bcc55a6ff8345e692c0f86e5b48e01b996cadc001622fb5e363b421",
            "stateRoot" : "0xff82e05817d00564d38785ec95dd34c0d382b91fb6ba20b20d74efca6b2f2639",
            "timestamp" : "0x03b6",
            "transactionsTrie" : "0x56e81f171bcc55a6ff8345e692c0f86e5b48e01b996cadc001622fb5e363b421",
            "uncleHash" : "0x1dcc4de8dec75d7aab85b567b6ccd41ad312451b948a7413f0a142fd40d49347"
        },
        "genesisRLP" : "0xf901faf901f5a00000000000000000000000000000000000000000000000000000000000000000a01dcc4de8dec75d7aab85b567b6ccd41ad312451b948a7413f0a142fd40d49347942adc25665018aa1fe0e6bc666dac8fc2697ff9baa0ff82e05817d00564d38785ec95dd34c0d382b91fb6ba20b20d74efca6b2f2639a056e81f171bcc55a6ff8345e692c0f86e5b48e01b996cadc001622fb5e363b421a056e81f171bcc55a6ff8345e692c0f86e5b48e01b996cadc001622fb5e363b421b9010000000000000000000000000000000000000000000000000000000000000000000000000000000000000000000000000000000000000000000000000000000000000000000000000000000000000000000000000000000000000000000000000000000000000000000000000000000000000000000000000000000000000000000000000000000000000000000000000000000000000000000000000000000000000000000000000000000000000000000000000000000000000000000000000000000000000000000000000000000000000000000000000000000000000000000000000000000000000000000000000000000000000000000000000000000000830200008083989680808203b642a056e81f171bcc55a6ff8345e692c0f86e5b48e01b996cadc001622fb5e363b421880102030405060708c0c0",
        "lastblockhash" : "0x3afb96ef700eaba7038f8c9387ec08fe00979da9596bb8330a3174bcb2d40c10",
        "network" : "EIP158",
        "postState" : {
            "0x194f5374fce5edbc8e2a8697c15331677e6ebf0b" : {
                "balance" : "0x00",
                "code" : "0x6001601f6001601e600073b94f5374fce5edbc8e2a8697c15331677e6ebf0b6107d0f1506000516000556002601ef3",
                "nonce" : "0x00",
                "storage" : {
                    "0x00" : "0x15"
                }
            },
            "0x2adc25665018aa1fe0e6bc666dac8fc2697ff9ba" : {
                "balance" : "0x4563918244f4a31f",
                "code" : "",
                "nonce" : "0x00",
                "storage" : {
                }
            },
            "0xa94f5374fce5edbc8e2a8697c15331677e6ebf0b" : {
                "balance" : "0x0e9f21",
                "code" : "",
                "nonce" : "0x01",
                "storage" : {
                }
            },
            "0xb94f5374fce5edbc8e2a8697c15331677e6ebf0b" : {
                "balance" : "0x0186a0",
                "code" : "0x60156000526001601ff3",
                "nonce" : "0x00",
                "storage" : {
                }
            }
        },
        "pre" : {
            "0x194f5374fce5edbc8e2a8697c15331677e6ebf0b" : {
                "balance" : "0x00",
                "code" : "0x6001601f6001601e600073b94f5374fce5edbc8e2a8697c15331677e6ebf0b6107d0f1506000516000556002601ef3",
                "nonce" : "0x00",
                "storage" : {
                }
            },
            "0xa94f5374fce5edbc8e2a8697c15331677e6ebf0b" : {
                "balance" : "0x0f4240",
                "code" : "",
                "nonce" : "0x00",
                "storage" : {
                }
            },
            "0xb94f5374fce5edbc8e2a8697c15331677e6ebf0b" : {
                "balance" : "0x0186a0",
                "code" : "0x60156000526001601ff3",
                "nonce" : "0x00",
                "storage" : {
                }
            }
        }
    },
    "ReturnTest_d0g0v0_Frontier" : {
        "_info" : {
            "comment" : "",
            "filledwith" : "cpp-1.3.0+commit.6e0ce939.Linux.g++",
            "lllcversion" : "Version: 0.4.18-develop.2017.9.25+commit.a72237f2.Linux.g++",
            "source" : "src/BlockchainTestsFiller/GeneralStateTests/stInitCodeTest/ReturnTest_d0g0v0Filler.json",
            "sourceHash" : "a24de45121ee2fa16be4d125ba33a0d05410c3bd03044283332ab13661c44dba"
        },
        "blocks" : [
            {
                "blockHeader" : {
                    "bloom" : "0x00000000000000000000000000000000000000000000000000000000000000000000000000000000000000000000000000000000000000000000000000000000000000000000000000000000000000000000000000000000000000000000000000000000000000000000000000000000000000000000000000000000000000000000000000000000000000000000000000000000000000000000000000000000000000000000000000000000000000000000000000000000000000000000000000000000000000000000000000000000000000000000000000000000000000000000000000000000000000000000000000000000000000000000000000000000",
                    "coinbase" : "0x2adc25665018aa1fe0e6bc666dac8fc2697ff9ba",
                    "difficulty" : "0x020000",
                    "extraData" : "",
                    "gasLimit" : "0x989680",
                    "gasUsed" : "0xa08b",
                    "hash" : "0x2a18a66677a9d2839b7f99e4867887e3fc5a2f2d85f6b90979e16cf0a2bbc9ba",
                    "mixHash" : "0x342b828266033b703cc3a3ccc607583610d3cb435d69dd88287824e46f5146ec",
                    "nonce" : "0x7d90436feb9e6d4d",
                    "number" : "0x01",
                    "parentHash" : "0x46c7a10b4cc92c1c62866cdc3739b2aa43b5efedf11ae4db8315a0e17616507e",
                    "receiptTrie" : "0x4ad56f16d57937c3d2c822e21e8342961587b987061a0f6343d4c54c03e3c8a2",
                    "stateRoot" : "0xcc033ba43062a4e72e09a0fd6a14e8d5be58b11bc37cd5f81bdfa05899b016d8",
                    "timestamp" : "0x03e8",
                    "transactionsTrie" : "0x503f1d6935235f7b7d9d33ff9771fba4c3e8271ddd595fd8b8f29b445b460078",
                    "uncleHash" : "0x1dcc4de8dec75d7aab85b567b6ccd41ad312451b948a7413f0a142fd40d49347"
                },
                "rlp" : "0xf9025ff901f7a046c7a10b4cc92c1c62866cdc3739b2aa43b5efedf11ae4db8315a0e17616507ea01dcc4de8dec75d7aab85b567b6ccd41ad312451b948a7413f0a142fd40d49347942adc25665018aa1fe0e6bc666dac8fc2697ff9baa0cc033ba43062a4e72e09a0fd6a14e8d5be58b11bc37cd5f81bdfa05899b016d8a0503f1d6935235f7b7d9d33ff9771fba4c3e8271ddd595fd8b8f29b445b460078a04ad56f16d57937c3d2c822e21e8342961587b987061a0f6343d4c54c03e3c8a2b901000000000000000000000000000000000000000000000000000000000000000000000000000000000000000000000000000000000000000000000000000000000000000000000000000000000000000000000000000000000000000000000000000000000000000000000000000000000000000000000000000000000000000000000000000000000000000000000000000000000000000000000000000000000000000000000000000000000000000000000000000000000000000000000000000000000000000000000000000000000000000000000000000000000000000000000000000000000000000000000000000000000000000000000000000000000083020000018398968082a08b8203e880a0342b828266033b703cc3a3ccc607583610d3cb435d69dd88287824e46f5146ec887d90436feb9e6d4df862f8608001830493e094194f5374fce5edbc8e2a8697c15331677e6ebf0b80801ba020da68794ae547ca605073f401fa13b957d3a93590822aa791bf7e5bb04bfad9a001a3212c79d7cbac919724f07da0e43302b7c10d14cba594aadc4220cc735555c0",
                "transactions" : [
                    {
                        "data" : "",
                        "gasLimit" : "0x0493e0",
                        "gasPrice" : "0x01",
                        "nonce" : "0x00",
                        "r" : "0x20da68794ae547ca605073f401fa13b957d3a93590822aa791bf7e5bb04bfad9",
                        "s" : "0x01a3212c79d7cbac919724f07da0e43302b7c10d14cba594aadc4220cc735555",
                        "to" : "0x194f5374fce5edbc8e2a8697c15331677e6ebf0b",
                        "v" : "0x1b",
                        "value" : "0x00"
                    }
                ],
                "uncleHeaders" : [
                ]
            }
        ],
        "genesisBlockHeader" : {
            "bloom" : "0x00000000000000000000000000000000000000000000000000000000000000000000000000000000000000000000000000000000000000000000000000000000000000000000000000000000000000000000000000000000000000000000000000000000000000000000000000000000000000000000000000000000000000000000000000000000000000000000000000000000000000000000000000000000000000000000000000000000000000000000000000000000000000000000000000000000000000000000000000000000000000000000000000000000000000000000000000000000000000000000000000000000000000000000000000000000",
            "coinbase" : "0x2adc25665018aa1fe0e6bc666dac8fc2697ff9ba",
            "difficulty" : "0x020000",
            "extraData" : "0x42",
            "gasLimit" : "0x989680",
            "gasUsed" : "0x00",
            "hash" : "0x46c7a10b4cc92c1c62866cdc3739b2aa43b5efedf11ae4db8315a0e17616507e",
            "mixHash" : "0x56e81f171bcc55a6ff8345e692c0f86e5b48e01b996cadc001622fb5e363b421",
            "nonce" : "0x0102030405060708",
            "number" : "0x00",
            "parentHash" : "0x0000000000000000000000000000000000000000000000000000000000000000",
            "receiptTrie" : "0x56e81f171bcc55a6ff8345e692c0f86e5b48e01b996cadc001622fb5e363b421",
            "stateRoot" : "0xff82e05817d00564d38785ec95dd34c0d382b91fb6ba20b20d74efca6b2f2639",
            "timestamp" : "0x03b6",
            "transactionsTrie" : "0x56e81f171bcc55a6ff8345e692c0f86e5b48e01b996cadc001622fb5e363b421",
            "uncleHash" : "0x1dcc4de8dec75d7aab85b567b6ccd41ad312451b948a7413f0a142fd40d49347"
        },
        "genesisRLP" : "0xf901faf901f5a00000000000000000000000000000000000000000000000000000000000000000a01dcc4de8dec75d7aab85b567b6ccd41ad312451b948a7413f0a142fd40d49347942adc25665018aa1fe0e6bc666dac8fc2697ff9baa0ff82e05817d00564d38785ec95dd34c0d382b91fb6ba20b20d74efca6b2f2639a056e81f171bcc55a6ff8345e692c0f86e5b48e01b996cadc001622fb5e363b421a056e81f171bcc55a6ff8345e692c0f86e5b48e01b996cadc001622fb5e363b421b9010000000000000000000000000000000000000000000000000000000000000000000000000000000000000000000000000000000000000000000000000000000000000000000000000000000000000000000000000000000000000000000000000000000000000000000000000000000000000000000000000000000000000000000000000000000000000000000000000000000000000000000000000000000000000000000000000000000000000000000000000000000000000000000000000000000000000000000000000000000000000000000000000000000000000000000000000000000000000000000000000000000000000000000000000000000000830200008083989680808203b642a056e81f171bcc55a6ff8345e692c0f86e5b48e01b996cadc001622fb5e363b421880102030405060708c0c0",
        "lastblockhash" : "0x2a18a66677a9d2839b7f99e4867887e3fc5a2f2d85f6b90979e16cf0a2bbc9ba",
        "network" : "Frontier",
        "postState" : {
            "0x194f5374fce5edbc8e2a8697c15331677e6ebf0b" : {
                "balance" : "0x00",
                "code" : "0x6001601f6001601e600073b94f5374fce5edbc8e2a8697c15331677e6ebf0b6107d0f1506000516000556002601ef3",
                "nonce" : "0x00",
                "storage" : {
                    "0x00" : "0x15"
                }
            },
            "0x2adc25665018aa1fe0e6bc666dac8fc2697ff9ba" : {
                "balance" : "0x4563918244f4a08b",
                "code" : "",
                "nonce" : "0x00",
                "storage" : {
                }
            },
            "0xa94f5374fce5edbc8e2a8697c15331677e6ebf0b" : {
                "balance" : "0x0ea1b5",
                "code" : "",
                "nonce" : "0x01",
                "storage" : {
                }
            },
            "0xb94f5374fce5edbc8e2a8697c15331677e6ebf0b" : {
                "balance" : "0x0186a0",
                "code" : "0x60156000526001601ff3",
                "nonce" : "0x00",
                "storage" : {
                }
            }
        },
        "pre" : {
            "0x194f5374fce5edbc8e2a8697c15331677e6ebf0b" : {
                "balance" : "0x00",
                "code" : "0x6001601f6001601e600073b94f5374fce5edbc8e2a8697c15331677e6ebf0b6107d0f1506000516000556002601ef3",
                "nonce" : "0x00",
                "storage" : {
                }
            },
            "0xa94f5374fce5edbc8e2a8697c15331677e6ebf0b" : {
                "balance" : "0x0f4240",
                "code" : "",
                "nonce" : "0x00",
                "storage" : {
                }
            },
            "0xb94f5374fce5edbc8e2a8697c15331677e6ebf0b" : {
                "balance" : "0x0186a0",
                "code" : "0x60156000526001601ff3",
                "nonce" : "0x00",
                "storage" : {
                }
            }
        }
    },
    "ReturnTest_d0g0v0_Homestead" : {
        "_info" : {
            "comment" : "",
            "filledwith" : "cpp-1.3.0+commit.6e0ce939.Linux.g++",
            "lllcversion" : "Version: 0.4.18-develop.2017.9.25+commit.a72237f2.Linux.g++",
            "source" : "src/BlockchainTestsFiller/GeneralStateTests/stInitCodeTest/ReturnTest_d0g0v0Filler.json",
            "sourceHash" : "a24de45121ee2fa16be4d125ba33a0d05410c3bd03044283332ab13661c44dba"
        },
        "blocks" : [
            {
                "blockHeader" : {
                    "bloom" : "0x00000000000000000000000000000000000000000000000000000000000000000000000000000000000000000000000000000000000000000000000000000000000000000000000000000000000000000000000000000000000000000000000000000000000000000000000000000000000000000000000000000000000000000000000000000000000000000000000000000000000000000000000000000000000000000000000000000000000000000000000000000000000000000000000000000000000000000000000000000000000000000000000000000000000000000000000000000000000000000000000000000000000000000000000000000000",
                    "coinbase" : "0x2adc25665018aa1fe0e6bc666dac8fc2697ff9ba",
                    "difficulty" : "0x020000",
                    "extraData" : "",
                    "gasLimit" : "0x989680",
                    "gasUsed" : "0xa08b",
                    "hash" : "0x61adb5c8e713cea7d2a9e4c23314effabbeefd2384aa693d06afb8d62d303295",
                    "mixHash" : "0xc7031b58b96b284b4b769f8081274ad929bdefb5ebd2b087d3ee122a65cd7192",
                    "nonce" : "0x8a9b97ff8814a676",
                    "number" : "0x01",
                    "parentHash" : "0x46c7a10b4cc92c1c62866cdc3739b2aa43b5efedf11ae4db8315a0e17616507e",
                    "receiptTrie" : "0x4ad56f16d57937c3d2c822e21e8342961587b987061a0f6343d4c54c03e3c8a2",
                    "stateRoot" : "0xcc033ba43062a4e72e09a0fd6a14e8d5be58b11bc37cd5f81bdfa05899b016d8",
                    "timestamp" : "0x03e8",
                    "transactionsTrie" : "0x503f1d6935235f7b7d9d33ff9771fba4c3e8271ddd595fd8b8f29b445b460078",
                    "uncleHash" : "0x1dcc4de8dec75d7aab85b567b6ccd41ad312451b948a7413f0a142fd40d49347"
                },
                "rlp" : "0xf9025ff901f7a046c7a10b4cc92c1c62866cdc3739b2aa43b5efedf11ae4db8315a0e17616507ea01dcc4de8dec75d7aab85b567b6ccd41ad312451b948a7413f0a142fd40d49347942adc25665018aa1fe0e6bc666dac8fc2697ff9baa0cc033ba43062a4e72e09a0fd6a14e8d5be58b11bc37cd5f81bdfa05899b016d8a0503f1d6935235f7b7d9d33ff9771fba4c3e8271ddd595fd8b8f29b445b460078a04ad56f16d57937c3d2c822e21e8342961587b987061a0f6343d4c54c03e3c8a2b901000000000000000000000000000000000000000000000000000000000000000000000000000000000000000000000000000000000000000000000000000000000000000000000000000000000000000000000000000000000000000000000000000000000000000000000000000000000000000000000000000000000000000000000000000000000000000000000000000000000000000000000000000000000000000000000000000000000000000000000000000000000000000000000000000000000000000000000000000000000000000000000000000000000000000000000000000000000000000000000000000000000000000000000000000000000083020000018398968082a08b8203e880a0c7031b58b96b284b4b769f8081274ad929bdefb5ebd2b087d3ee122a65cd7192888a9b97ff8814a676f862f8608001830493e094194f5374fce5edbc8e2a8697c15331677e6ebf0b80801ba020da68794ae547ca605073f401fa13b957d3a93590822aa791bf7e5bb04bfad9a001a3212c79d7cbac919724f07da0e43302b7c10d14cba594aadc4220cc735555c0",
                "transactions" : [
                    {
                        "data" : "",
                        "gasLimit" : "0x0493e0",
                        "gasPrice" : "0x01",
                        "nonce" : "0x00",
                        "r" : "0x20da68794ae547ca605073f401fa13b957d3a93590822aa791bf7e5bb04bfad9",
                        "s" : "0x01a3212c79d7cbac919724f07da0e43302b7c10d14cba594aadc4220cc735555",
                        "to" : "0x194f5374fce5edbc8e2a8697c15331677e6ebf0b",
                        "v" : "0x1b",
                        "value" : "0x00"
                    }
                ],
                "uncleHeaders" : [
                ]
            }
        ],
        "genesisBlockHeader" : {
            "bloom" : "0x00000000000000000000000000000000000000000000000000000000000000000000000000000000000000000000000000000000000000000000000000000000000000000000000000000000000000000000000000000000000000000000000000000000000000000000000000000000000000000000000000000000000000000000000000000000000000000000000000000000000000000000000000000000000000000000000000000000000000000000000000000000000000000000000000000000000000000000000000000000000000000000000000000000000000000000000000000000000000000000000000000000000000000000000000000000",
            "coinbase" : "0x2adc25665018aa1fe0e6bc666dac8fc2697ff9ba",
            "difficulty" : "0x020000",
            "extraData" : "0x42",
            "gasLimit" : "0x989680",
            "gasUsed" : "0x00",
            "hash" : "0x46c7a10b4cc92c1c62866cdc3739b2aa43b5efedf11ae4db8315a0e17616507e",
            "mixHash" : "0x56e81f171bcc55a6ff8345e692c0f86e5b48e01b996cadc001622fb5e363b421",
            "nonce" : "0x0102030405060708",
            "number" : "0x00",
            "parentHash" : "0x0000000000000000000000000000000000000000000000000000000000000000",
            "receiptTrie" : "0x56e81f171bcc55a6ff8345e692c0f86e5b48e01b996cadc001622fb5e363b421",
            "stateRoot" : "0xff82e05817d00564d38785ec95dd34c0d382b91fb6ba20b20d74efca6b2f2639",
            "timestamp" : "0x03b6",
            "transactionsTrie" : "0x56e81f171bcc55a6ff8345e692c0f86e5b48e01b996cadc001622fb5e363b421",
            "uncleHash" : "0x1dcc4de8dec75d7aab85b567b6ccd41ad312451b948a7413f0a142fd40d49347"
        },
        "genesisRLP" : "0xf901faf901f5a00000000000000000000000000000000000000000000000000000000000000000a01dcc4de8dec75d7aab85b567b6ccd41ad312451b948a7413f0a142fd40d49347942adc25665018aa1fe0e6bc666dac8fc2697ff9baa0ff82e05817d00564d38785ec95dd34c0d382b91fb6ba20b20d74efca6b2f2639a056e81f171bcc55a6ff8345e692c0f86e5b48e01b996cadc001622fb5e363b421a056e81f171bcc55a6ff8345e692c0f86e5b48e01b996cadc001622fb5e363b421b9010000000000000000000000000000000000000000000000000000000000000000000000000000000000000000000000000000000000000000000000000000000000000000000000000000000000000000000000000000000000000000000000000000000000000000000000000000000000000000000000000000000000000000000000000000000000000000000000000000000000000000000000000000000000000000000000000000000000000000000000000000000000000000000000000000000000000000000000000000000000000000000000000000000000000000000000000000000000000000000000000000000000000000000000000000000000830200008083989680808203b642a056e81f171bcc55a6ff8345e692c0f86e5b48e01b996cadc001622fb5e363b421880102030405060708c0c0",
        "lastblockhash" : "0x61adb5c8e713cea7d2a9e4c23314effabbeefd2384aa693d06afb8d62d303295",
        "network" : "Homestead",
        "postState" : {
            "0x194f5374fce5edbc8e2a8697c15331677e6ebf0b" : {
                "balance" : "0x00",
                "code" : "0x6001601f6001601e600073b94f5374fce5edbc8e2a8697c15331677e6ebf0b6107d0f1506000516000556002601ef3",
                "nonce" : "0x00",
                "storage" : {
                    "0x00" : "0x15"
                }
            },
            "0x2adc25665018aa1fe0e6bc666dac8fc2697ff9ba" : {
                "balance" : "0x4563918244f4a08b",
                "code" : "",
                "nonce" : "0x00",
                "storage" : {
                }
            },
            "0xa94f5374fce5edbc8e2a8697c15331677e6ebf0b" : {
                "balance" : "0x0ea1b5",
                "code" : "",
                "nonce" : "0x01",
                "storage" : {
                }
            },
            "0xb94f5374fce5edbc8e2a8697c15331677e6ebf0b" : {
                "balance" : "0x0186a0",
                "code" : "0x60156000526001601ff3",
                "nonce" : "0x00",
                "storage" : {
                }
            }
        },
        "pre" : {
            "0x194f5374fce5edbc8e2a8697c15331677e6ebf0b" : {
                "balance" : "0x00",
                "code" : "0x6001601f6001601e600073b94f5374fce5edbc8e2a8697c15331677e6ebf0b6107d0f1506000516000556002601ef3",
                "nonce" : "0x00",
                "storage" : {
                }
            },
            "0xa94f5374fce5edbc8e2a8697c15331677e6ebf0b" : {
                "balance" : "0x0f4240",
                "code" : "",
                "nonce" : "0x00",
                "storage" : {
                }
            },
            "0xb94f5374fce5edbc8e2a8697c15331677e6ebf0b" : {
                "balance" : "0x0186a0",
                "code" : "0x60156000526001601ff3",
                "nonce" : "0x00",
                "storage" : {
                }
            }
        }
    }
}