{
    "StackUnderFlowContractCreation_d0g0v0_Byzantium" : {
        "_info" : {
            "comment" : "",
            "filledwith" : "cpp-1.3.0+commit.6e0ce939.Linux.g++",
            "lllcversion" : "Version: 0.4.18-develop.2017.9.25+commit.a72237f2.Linux.g++",
            "source" : "src/BlockchainTestsFiller/GeneralStateTests/stInitCodeTest/StackUnderFlowContractCreation_d0g0v0Filler.json",
            "sourceHash" : "f8417f8387232e9fbb1cea175cdc53d2aabd225eea30fe0ae94eecca38180750"
        },
        "blocks" : [
            {
                "blockHeader" : {
                    "bloom" : "0x00000000000000000000000000000000000000000000000000000000000000000000000000000000000000000000000000000000000000000000000000000000000000000000000000000000000000000000000000000000000000000000000000000000000000000000000000000000000000000000000000000000000000000000000000000000000000000000000000000000000000000000000000000000000000000000000000000000000000000000000000000000000000000000000000000000000000000000000000000000000000000000000000000000000000000000000000000000000000000000000000000000000000000000000000000000",
                    "coinbase" : "0x2adc25665018aa1fe0e6bc666dac8fc2697ff9ba",
                    "difficulty" : "0x020000",
                    "extraData" : "",
                    "gasLimit" : "0x0f4240",
                    "gasUsed" : "0x011940",
                    "hash" : "0x77dc916a9f89def741fa1a2598384eee515007aa3d6ed9f5a9dcbc1c3a351c57",
                    "mixHash" : "0x724c71ed8782ac80702a3c2b97b42bacaa8a70d7cfa9fab2d73b6ae0f5220646",
                    "nonce" : "0xef5d1df8a875a7a2",
                    "number" : "0x01",
                    "parentHash" : "0xd580d7c26a5506b39d368b2362bc7385265f35ff8674c97f77eb0632ebf421e6",
                    "receiptTrie" : "0x4652c89054f4617f8d8f15d62e8abf0930210e90d52cd7c74e46027467ed5e15",
                    "stateRoot" : "0xb06a1f6299081b82e650f746676c2b399012f14db69c5c7721f865de910276a7",
                    "timestamp" : "0x03e8",
                    "transactionsTrie" : "0x48f9ec4c3408887a484bc0a55493efe00cf97b9abc1dc2e2b31f79ffa82027d4",
                    "uncleHash" : "0x1dcc4de8dec75d7aab85b567b6ccd41ad312451b948a7413f0a142fd40d49347"
                },
                "rlp" : "0xf9024ff901f8a0d580d7c26a5506b39d368b2362bc7385265f35ff8674c97f77eb0632ebf421e6a01dcc4de8dec75d7aab85b567b6ccd41ad312451b948a7413f0a142fd40d49347942adc25665018aa1fe0e6bc666dac8fc2697ff9baa0b06a1f6299081b82e650f746676c2b399012f14db69c5c7721f865de910276a7a048f9ec4c3408887a484bc0a55493efe00cf97b9abc1dc2e2b31f79ffa82027d4a04652c89054f4617f8d8f15d62e8abf0930210e90d52cd7c74e46027467ed5e15b90100000000000000000000000000000000000000000000000000000000000000000000000000000000000000000000000000000000000000000000000000000000000000000000000000000000000000000000000000000000000000000000000000000000000000000000000000000000000000000000000000000000000000000000000000000000000000000000000000000000000000000000000000000000000000000000000000000000000000000000000000000000000000000000000000000000000000000000000000000000000000000000000000000000000000000000000000000000000000000000000000000000000000000000000000000000008302000001830f4240830119408203e880a0724c71ed8782ac80702a3c2b97b42bacaa8a70d7cfa9fab2d73b6ae0f522064688ef5d1df8a875a7a2f851f84f8001830119408080836000f11ba05783623f46c011d42b9a4095a8f6383b245518bde6e47cc97fc5a88b8850261aa0046fbf81eeeea5b1e794cb094d277f639422b901c0d6d463797781d93396f969c0",
                "transactions" : [
                    {
                        "data" : "0x6000f1",
                        "gasLimit" : "0x011940",
                        "gasPrice" : "0x01",
                        "nonce" : "0x00",
                        "r" : "0x5783623f46c011d42b9a4095a8f6383b245518bde6e47cc97fc5a88b8850261a",
                        "s" : "0x046fbf81eeeea5b1e794cb094d277f639422b901c0d6d463797781d93396f969",
                        "to" : "",
                        "v" : "0x1b",
                        "value" : "0x00"
                    }
                ],
                "uncleHeaders" : [
                ]
            }
        ],
        "genesisBlockHeader" : {
            "bloom" : "0x00000000000000000000000000000000000000000000000000000000000000000000000000000000000000000000000000000000000000000000000000000000000000000000000000000000000000000000000000000000000000000000000000000000000000000000000000000000000000000000000000000000000000000000000000000000000000000000000000000000000000000000000000000000000000000000000000000000000000000000000000000000000000000000000000000000000000000000000000000000000000000000000000000000000000000000000000000000000000000000000000000000000000000000000000000000",
            "coinbase" : "0x2adc25665018aa1fe0e6bc666dac8fc2697ff9ba",
            "difficulty" : "0x020000",
            "extraData" : "0x42",
            "gasLimit" : "0x0f4240",
            "gasUsed" : "0x00",
            "hash" : "0xd580d7c26a5506b39d368b2362bc7385265f35ff8674c97f77eb0632ebf421e6",
            "mixHash" : "0x56e81f171bcc55a6ff8345e692c0f86e5b48e01b996cadc001622fb5e363b421",
            "nonce" : "0x0102030405060708",
            "number" : "0x00",
            "parentHash" : "0x0000000000000000000000000000000000000000000000000000000000000000",
            "receiptTrie" : "0x56e81f171bcc55a6ff8345e692c0f86e5b48e01b996cadc001622fb5e363b421",
            "stateRoot" : "0xa0b58f2e7c218d617073b58de7676d5bd2678813a8e473d7c318bd601a967f98",
            "timestamp" : "0x03b6",
            "transactionsTrie" : "0x56e81f171bcc55a6ff8345e692c0f86e5b48e01b996cadc001622fb5e363b421",
            "uncleHash" : "0x1dcc4de8dec75d7aab85b567b6ccd41ad312451b948a7413f0a142fd40d49347"
        },
        "genesisRLP" : "0xf901faf901f5a00000000000000000000000000000000000000000000000000000000000000000a01dcc4de8dec75d7aab85b567b6ccd41ad312451b948a7413f0a142fd40d49347942adc25665018aa1fe0e6bc666dac8fc2697ff9baa0a0b58f2e7c218d617073b58de7676d5bd2678813a8e473d7c318bd601a967f98a056e81f171bcc55a6ff8345e692c0f86e5b48e01b996cadc001622fb5e363b421a056e81f171bcc55a6ff8345e692c0f86e5b48e01b996cadc001622fb5e363b421b90100000000000000000000000000000000000000000000000000000000000000000000000000000000000000000000000000000000000000000000000000000000000000000000000000000000000000000000000000000000000000000000000000000000000000000000000000000000000000000000000000000000000000000000000000000000000000000000000000000000000000000000000000000000000000000000000000000000000000000000000000000000000000000000000000000000000000000000000000000000000000000000000000000000000000000000000000000000000000000000000000000000000000000000000000000000008302000080830f4240808203b642a056e81f171bcc55a6ff8345e692c0f86e5b48e01b996cadc001622fb5e363b421880102030405060708c0c0",
        "lastblockhash" : "0x77dc916a9f89def741fa1a2598384eee515007aa3d6ed9f5a9dcbc1c3a351c57",
        "network" : "Byzantium",
        "postState" : {
            "0x2adc25665018aa1fe0e6bc666dac8fc2697ff9ba" : {
                "balance" : "0x29a2241af62d1940",
                "code" : "",
                "nonce" : "0x00",
                "storage" : {
                }
            },
            "0xa94f5374fce5edbc8e2a8697c15331677e6ebf0b" : {
                "balance" : "0x0bb8",
                "code" : "",
                "nonce" : "0x01",
                "storage" : {
                }
            }
        },
        "pre" : {
            "0xa94f5374fce5edbc8e2a8697c15331677e6ebf0b" : {
                "balance" : "0x0124f8",
                "code" : "",
                "nonce" : "0x00",
                "storage" : {
                }
            }
        }
    },
    "StackUnderFlowContractCreation_d0g0v0_EIP150" : {
        "_info" : {
            "comment" : "",
            "filledwith" : "cpp-1.3.0+commit.6e0ce939.Linux.g++",
            "lllcversion" : "Version: 0.4.18-develop.2017.9.25+commit.a72237f2.Linux.g++",
            "source" : "src/BlockchainTestsFiller/GeneralStateTests/stInitCodeTest/StackUnderFlowContractCreation_d0g0v0Filler.json",
            "sourceHash" : "f8417f8387232e9fbb1cea175cdc53d2aabd225eea30fe0ae94eecca38180750"
        },
        "blocks" : [
            {
                "blockHeader" : {
                    "bloom" : "0x00000000000000000000000000000000000000000000000000000000000000000000000000000000000000000000000000000000000000000000000000000000000000000000000000000000000000000000000000000000000000000000000000000000000000000000000000000000000000000000000000000000000000000000000000000000000000000000000000000000000000000000000000000000000000000000000000000000000000000000000000000000000000000000000000000000000000000000000000000000000000000000000000000000000000000000000000000000000000000000000000000000000000000000000000000000",
                    "coinbase" : "0x2adc25665018aa1fe0e6bc666dac8fc2697ff9ba",
                    "difficulty" : "0x020000",
                    "extraData" : "",
                    "gasLimit" : "0x0f4240",
                    "gasUsed" : "0x011940",
                    "hash" : "0x4398ef3c8518dc732da920c7cd4e4b1ebf064e9c2a9ffc08c532c75cf8671637",
                    "mixHash" : "0x9990ee13f2362a02f84af68c7d10aabbdf4ec4346af85390788e2e3f0d434e21",
                    "nonce" : "0x5a5ecb50a19e7637",
                    "number" : "0x01",
                    "parentHash" : "0xd580d7c26a5506b39d368b2362bc7385265f35ff8674c97f77eb0632ebf421e6",
                    "receiptTrie" : "0x5177c7ee3fb2c30972b7ac9b75e42599dee885aeaf4de3d804df50c362099f61",
                    "stateRoot" : "0x453bda42d7ca55e11f254a3289914d8027cb980afa6d07d3796562dc9de77a54",
                    "timestamp" : "0x03e8",
                    "transactionsTrie" : "0x48f9ec4c3408887a484bc0a55493efe00cf97b9abc1dc2e2b31f79ffa82027d4",
                    "uncleHash" : "0x1dcc4de8dec75d7aab85b567b6ccd41ad312451b948a7413f0a142fd40d49347"
                },
                "rlp" : "0xf9024ff901f8a0d580d7c26a5506b39d368b2362bc7385265f35ff8674c97f77eb0632ebf421e6a01dcc4de8dec75d7aab85b567b6ccd41ad312451b948a7413f0a142fd40d49347942adc25665018aa1fe0e6bc666dac8fc2697ff9baa0453bda42d7ca55e11f254a3289914d8027cb980afa6d07d3796562dc9de77a54a048f9ec4c3408887a484bc0a55493efe00cf97b9abc1dc2e2b31f79ffa82027d4a05177c7ee3fb2c30972b7ac9b75e42599dee885aeaf4de3d804df50c362099f61b90100000000000000000000000000000000000000000000000000000000000000000000000000000000000000000000000000000000000000000000000000000000000000000000000000000000000000000000000000000000000000000000000000000000000000000000000000000000000000000000000000000000000000000000000000000000000000000000000000000000000000000000000000000000000000000000000000000000000000000000000000000000000000000000000000000000000000000000000000000000000000000000000000000000000000000000000000000000000000000000000000000000000000000000000000000000008302000001830f4240830119408203e880a09990ee13f2362a02f84af68c7d10aabbdf4ec4346af85390788e2e3f0d434e21885a5ecb50a19e7637f851f84f8001830119408080836000f11ba05783623f46c011d42b9a4095a8f6383b245518bde6e47cc97fc5a88b8850261aa0046fbf81eeeea5b1e794cb094d277f639422b901c0d6d463797781d93396f969c0",
                "transactions" : [
                    {
                        "data" : "0x6000f1",
                        "gasLimit" : "0x011940",
                        "gasPrice" : "0x01",
                        "nonce" : "0x00",
                        "r" : "0x5783623f46c011d42b9a4095a8f6383b245518bde6e47cc97fc5a88b8850261a",
                        "s" : "0x046fbf81eeeea5b1e794cb094d277f639422b901c0d6d463797781d93396f969",
                        "to" : "",
                        "v" : "0x1b",
                        "value" : "0x00"
                    }
                ],
                "uncleHeaders" : [
                ]
            }
        ],
        "genesisBlockHeader" : {
            "bloom" : "0x00000000000000000000000000000000000000000000000000000000000000000000000000000000000000000000000000000000000000000000000000000000000000000000000000000000000000000000000000000000000000000000000000000000000000000000000000000000000000000000000000000000000000000000000000000000000000000000000000000000000000000000000000000000000000000000000000000000000000000000000000000000000000000000000000000000000000000000000000000000000000000000000000000000000000000000000000000000000000000000000000000000000000000000000000000000",
            "coinbase" : "0x2adc25665018aa1fe0e6bc666dac8fc2697ff9ba",
            "difficulty" : "0x020000",
            "extraData" : "0x42",
            "gasLimit" : "0x0f4240",
            "gasUsed" : "0x00",
            "hash" : "0xd580d7c26a5506b39d368b2362bc7385265f35ff8674c97f77eb0632ebf421e6",
            "mixHash" : "0x56e81f171bcc55a6ff8345e692c0f86e5b48e01b996cadc001622fb5e363b421",
            "nonce" : "0x0102030405060708",
            "number" : "0x00",
            "parentHash" : "0x0000000000000000000000000000000000000000000000000000000000000000",
            "receiptTrie" : "0x56e81f171bcc55a6ff8345e692c0f86e5b48e01b996cadc001622fb5e363b421",
            "stateRoot" : "0xa0b58f2e7c218d617073b58de7676d5bd2678813a8e473d7c318bd601a967f98",
            "timestamp" : "0x03b6",
            "transactionsTrie" : "0x56e81f171bcc55a6ff8345e692c0f86e5b48e01b996cadc001622fb5e363b421",
            "uncleHash" : "0x1dcc4de8dec75d7aab85b567b6ccd41ad312451b948a7413f0a142fd40d49347"
        },
        "genesisRLP" : "0xf901faf901f5a00000000000000000000000000000000000000000000000000000000000000000a01dcc4de8dec75d7aab85b567b6ccd41ad312451b948a7413f0a142fd40d49347942adc25665018aa1fe0e6bc666dac8fc2697ff9baa0a0b58f2e7c218d617073b58de7676d5bd2678813a8e473d7c318bd601a967f98a056e81f171bcc55a6ff8345e692c0f86e5b48e01b996cadc001622fb5e363b421a056e81f171bcc55a6ff8345e692c0f86e5b48e01b996cadc001622fb5e363b421b90100000000000000000000000000000000000000000000000000000000000000000000000000000000000000000000000000000000000000000000000000000000000000000000000000000000000000000000000000000000000000000000000000000000000000000000000000000000000000000000000000000000000000000000000000000000000000000000000000000000000000000000000000000000000000000000000000000000000000000000000000000000000000000000000000000000000000000000000000000000000000000000000000000000000000000000000000000000000000000000000000000000000000000000000000000000008302000080830f4240808203b642a056e81f171bcc55a6ff8345e692c0f86e5b48e01b996cadc001622fb5e363b421880102030405060708c0c0",
        "lastblockhash" : "0x4398ef3c8518dc732da920c7cd4e4b1ebf064e9c2a9ffc08c532c75cf8671637",
        "network" : "EIP150",
        "postState" : {
            "0x2adc25665018aa1fe0e6bc666dac8fc2697ff9ba" : {
                "balance" : "0x4563918244f51940",
                "code" : "",
                "nonce" : "0x00",
                "storage" : {
                }
            },
            "0xa94f5374fce5edbc8e2a8697c15331677e6ebf0b" : {
                "balance" : "0x0bb8",
                "code" : "",
                "nonce" : "0x01",
                "storage" : {
                }
            }
        },
        "pre" : {
            "0xa94f5374fce5edbc8e2a8697c15331677e6ebf0b" : {
                "balance" : "0x0124f8",
                "code" : "",
                "nonce" : "0x00",
                "storage" : {
                }
            }
        }
    },
    "StackUnderFlowContractCreation_d0g0v0_EIP158" : {
        "_info" : {
            "comment" : "",
            "filledwith" : "cpp-1.3.0+commit.6e0ce939.Linux.g++",
            "lllcversion" : "Version: 0.4.18-develop.2017.9.25+commit.a72237f2.Linux.g++",
            "source" : "src/BlockchainTestsFiller/GeneralStateTests/stInitCodeTest/StackUnderFlowContractCreation_d0g0v0Filler.json",
            "sourceHash" : "f8417f8387232e9fbb1cea175cdc53d2aabd225eea30fe0ae94eecca38180750"
        },
        "blocks" : [
            {
                "blockHeader" : {
                    "bloom" : "0x00000000000000000000000000000000000000000000000000000000000000000000000000000000000000000000000000000000000000000000000000000000000000000000000000000000000000000000000000000000000000000000000000000000000000000000000000000000000000000000000000000000000000000000000000000000000000000000000000000000000000000000000000000000000000000000000000000000000000000000000000000000000000000000000000000000000000000000000000000000000000000000000000000000000000000000000000000000000000000000000000000000000000000000000000000000",
                    "coinbase" : "0x2adc25665018aa1fe0e6bc666dac8fc2697ff9ba",
                    "difficulty" : "0x020000",
                    "extraData" : "",
                    "gasLimit" : "0x0f4240",
                    "gasUsed" : "0x011940",
                    "hash" : "0xdb6849fd3b877265cd91eeb337923b898652dbb6bb3e6ea0d82eb95ab93c382c",
                    "mixHash" : "0xe500e84a69bf5d659f6e7d65be787b2afc3e46f5d8f850a2b406a137502d56d0",
                    "nonce" : "0x7fca4017815697c2",
                    "number" : "0x01",
                    "parentHash" : "0xd580d7c26a5506b39d368b2362bc7385265f35ff8674c97f77eb0632ebf421e6",
                    "receiptTrie" : "0x5177c7ee3fb2c30972b7ac9b75e42599dee885aeaf4de3d804df50c362099f61",
                    "stateRoot" : "0x453bda42d7ca55e11f254a3289914d8027cb980afa6d07d3796562dc9de77a54",
                    "timestamp" : "0x03e8",
                    "transactionsTrie" : "0x48f9ec4c3408887a484bc0a55493efe00cf97b9abc1dc2e2b31f79ffa82027d4",
                    "uncleHash" : "0x1dcc4de8dec75d7aab85b567b6ccd41ad312451b948a7413f0a142fd40d49347"
                },
                "rlp" : "0xf9024ff901f8a0d580d7c26a5506b39d368b2362bc7385265f35ff8674c97f77eb0632ebf421e6a01dcc4de8dec75d7aab85b567b6ccd41ad312451b948a7413f0a142fd40d49347942adc25665018aa1fe0e6bc666dac8fc2697ff9baa0453bda42d7ca55e11f254a3289914d8027cb980afa6d07d3796562dc9de77a54a048f9ec4c3408887a484bc0a55493efe00cf97b9abc1dc2e2b31f79ffa82027d4a05177c7ee3fb2c30972b7ac9b75e42599dee885aeaf4de3d804df50c362099f61b90100000000000000000000000000000000000000000000000000000000000000000000000000000000000000000000000000000000000000000000000000000000000000000000000000000000000000000000000000000000000000000000000000000000000000000000000000000000000000000000000000000000000000000000000000000000000000000000000000000000000000000000000000000000000000000000000000000000000000000000000000000000000000000000000000000000000000000000000000000000000000000000000000000000000000000000000000000000000000000000000000000000000000000000000000000000008302000001830f4240830119408203e880a0e500e84a69bf5d659f6e7d65be787b2afc3e46f5d8f850a2b406a137502d56d0887fca4017815697c2f851f84f8001830119408080836000f11ba05783623f46c011d42b9a4095a8f6383b245518bde6e47cc97fc5a88b8850261aa0046fbf81eeeea5b1e794cb094d277f639422b901c0d6d463797781d93396f969c0",
                "transactions" : [
                    {
                        "data" : "0x6000f1",
                        "gasLimit" : "0x011940",
                        "gasPrice" : "0x01",
                        "nonce" : "0x00",
                        "r" : "0x5783623f46c011d42b9a4095a8f6383b245518bde6e47cc97fc5a88b8850261a",
                        "s" : "0x046fbf81eeeea5b1e794cb094d277f639422b901c0d6d463797781d93396f969",
                        "to" : "",
                        "v" : "0x1b",
                        "value" : "0x00"
                    }
                ],
                "uncleHeaders" : [
                ]
            }
        ],
        "genesisBlockHeader" : {
            "bloom" : "0x00000000000000000000000000000000000000000000000000000000000000000000000000000000000000000000000000000000000000000000000000000000000000000000000000000000000000000000000000000000000000000000000000000000000000000000000000000000000000000000000000000000000000000000000000000000000000000000000000000000000000000000000000000000000000000000000000000000000000000000000000000000000000000000000000000000000000000000000000000000000000000000000000000000000000000000000000000000000000000000000000000000000000000000000000000000",
            "coinbase" : "0x2adc25665018aa1fe0e6bc666dac8fc2697ff9ba",
            "difficulty" : "0x020000",
            "extraData" : "0x42",
            "gasLimit" : "0x0f4240",
            "gasUsed" : "0x00",
            "hash" : "0xd580d7c26a5506b39d368b2362bc7385265f35ff8674c97f77eb0632ebf421e6",
            "mixHash" : "0x56e81f171bcc55a6ff8345e692c0f86e5b48e01b996cadc001622fb5e363b421",
            "nonce" : "0x0102030405060708",
            "number" : "0x00",
            "parentHash" : "0x0000000000000000000000000000000000000000000000000000000000000000",
            "receiptTrie" : "0x56e81f171bcc55a6ff8345e692c0f86e5b48e01b996cadc001622fb5e363b421",
            "stateRoot" : "0xa0b58f2e7c218d617073b58de7676d5bd2678813a8e473d7c318bd601a967f98",
            "timestamp" : "0x03b6",
            "transactionsTrie" : "0x56e81f171bcc55a6ff8345e692c0f86e5b48e01b996cadc001622fb5e363b421",
            "uncleHash" : "0x1dcc4de8dec75d7aab85b567b6ccd41ad312451b948a7413f0a142fd40d49347"
        },
        "genesisRLP" : "0xf901faf901f5a00000000000000000000000000000000000000000000000000000000000000000a01dcc4de8dec75d7aab85b567b6ccd41ad312451b948a7413f0a142fd40d49347942adc25665018aa1fe0e6bc666dac8fc2697ff9baa0a0b58f2e7c218d617073b58de7676d5bd2678813a8e473d7c318bd601a967f98a056e81f171bcc55a6ff8345e692c0f86e5b48e01b996cadc001622fb5e363b421a056e81f171bcc55a6ff8345e692c0f86e5b48e01b996cadc001622fb5e363b421b90100000000000000000000000000000000000000000000000000000000000000000000000000000000000000000000000000000000000000000000000000000000000000000000000000000000000000000000000000000000000000000000000000000000000000000000000000000000000000000000000000000000000000000000000000000000000000000000000000000000000000000000000000000000000000000000000000000000000000000000000000000000000000000000000000000000000000000000000000000000000000000000000000000000000000000000000000000000000000000000000000000000000000000000000000000000008302000080830f4240808203b642a056e81f171bcc55a6ff8345e692c0f86e5b48e01b996cadc001622fb5e363b421880102030405060708c0c0",
        "lastblockhash" : "0xdb6849fd3b877265cd91eeb337923b898652dbb6bb3e6ea0d82eb95ab93c382c",
        "network" : "EIP158",
        "postState" : {
            "0x2adc25665018aa1fe0e6bc666dac8fc2697ff9ba" : {
                "balance" : "0x4563918244f51940",
                "code" : "",
                "nonce" : "0x00",
                "storage" : {
                }
            },
            "0xa94f5374fce5edbc8e2a8697c15331677e6ebf0b" : {
                "balance" : "0x0bb8",
                "code" : "",
                "nonce" : "0x01",
                "storage" : {
                }
            }
        },
        "pre" : {
            "0xa94f5374fce5edbc8e2a8697c15331677e6ebf0b" : {
                "balance" : "0x0124f8",
                "code" : "",
                "nonce" : "0x00",
                "storage" : {
                }
            }
        }
    },
    "StackUnderFlowContractCreation_d0g0v0_Frontier" : {
        "_info" : {
            "comment" : "",
            "filledwith" : "cpp-1.3.0+commit.6e0ce939.Linux.g++",
            "lllcversion" : "Version: 0.4.18-develop.2017.9.25+commit.a72237f2.Linux.g++",
            "source" : "src/BlockchainTestsFiller/GeneralStateTests/stInitCodeTest/StackUnderFlowContractCreation_d0g0v0Filler.json",
            "sourceHash" : "f8417f8387232e9fbb1cea175cdc53d2aabd225eea30fe0ae94eecca38180750"
        },
        "blocks" : [
            {
                "blockHeader" : {
                    "bloom" : "0x00000000000000000000000000000000000000000000000000000000000000000000000000000000000000000000000000000000000000000000000000000000000000000000000000000000000000000000000000000000000000000000000000000000000000000000000000000000000000000000000000000000000000000000000000000000000000000000000000000000000000000000000000000000000000000000000000000000000000000000000000000000000000000000000000000000000000000000000000000000000000000000000000000000000000000000000000000000000000000000000000000000000000000000000000000000",
                    "coinbase" : "0x2adc25665018aa1fe0e6bc666dac8fc2697ff9ba",
                    "difficulty" : "0x020000",
                    "extraData" : "",
                    "gasLimit" : "0x0f4240",
                    "gasUsed" : "0x011940",
                    "hash" : "0x8e5de187db8af33d9155f2e7950a2f22f31ea4ade2f202b19af35aef0e21a3ed",
                    "mixHash" : "0xb8cc949069ac7cf414b58d14ccf11f35c0ce136cbe3b4758842a2902f6744d8e",
                    "nonce" : "0x451602512664fe23",
                    "number" : "0x01",
                    "parentHash" : "0xd580d7c26a5506b39d368b2362bc7385265f35ff8674c97f77eb0632ebf421e6",
                    "receiptTrie" : "0x5177c7ee3fb2c30972b7ac9b75e42599dee885aeaf4de3d804df50c362099f61",
                    "stateRoot" : "0x453bda42d7ca55e11f254a3289914d8027cb980afa6d07d3796562dc9de77a54",
                    "timestamp" : "0x03e8",
                    "transactionsTrie" : "0x48f9ec4c3408887a484bc0a55493efe00cf97b9abc1dc2e2b31f79ffa82027d4",
                    "uncleHash" : "0x1dcc4de8dec75d7aab85b567b6ccd41ad312451b948a7413f0a142fd40d49347"
                },
                "rlp" : "0xf9024ff901f8a0d580d7c26a5506b39d368b2362bc7385265f35ff8674c97f77eb0632ebf421e6a01dcc4de8dec75d7aab85b567b6ccd41ad312451b948a7413f0a142fd40d49347942adc25665018aa1fe0e6bc666dac8fc2697ff9baa0453bda42d7ca55e11f254a3289914d8027cb980afa6d07d3796562dc9de77a54a048f9ec4c3408887a484bc0a55493efe00cf97b9abc1dc2e2b31f79ffa82027d4a05177c7ee3fb2c30972b7ac9b75e42599dee885aeaf4de3d804df50c362099f61b90100000000000000000000000000000000000000000000000000000000000000000000000000000000000000000000000000000000000000000000000000000000000000000000000000000000000000000000000000000000000000000000000000000000000000000000000000000000000000000000000000000000000000000000000000000000000000000000000000000000000000000000000000000000000000000000000000000000000000000000000000000000000000000000000000000000000000000000000000000000000000000000000000000000000000000000000000000000000000000000000000000000000000000000000000000000008302000001830f4240830119408203e880a0b8cc949069ac7cf414b58d14ccf11f35c0ce136cbe3b4758842a2902f6744d8e88451602512664fe23f851f84f8001830119408080836000f11ba05783623f46c011d42b9a4095a8f6383b245518bde6e47cc97fc5a88b8850261aa0046fbf81eeeea5b1e794cb094d277f639422b901c0d6d463797781d93396f969c0",
                "transactions" : [
                    {
                        "data" : "0x6000f1",
                        "gasLimit" : "0x011940",
                        "gasPrice" : "0x01",
                        "nonce" : "0x00",
                        "r" : "0x5783623f46c011d42b9a4095a8f6383b245518bde6e47cc97fc5a88b8850261a",
                        "s" : "0x046fbf81eeeea5b1e794cb094d277f639422b901c0d6d463797781d93396f969",
                        "to" : "",
                        "v" : "0x1b",
                        "value" : "0x00"
                    }
                ],
                "uncleHeaders" : [
                ]
            }
        ],
        "genesisBlockHeader" : {
            "bloom" : "0x00000000000000000000000000000000000000000000000000000000000000000000000000000000000000000000000000000000000000000000000000000000000000000000000000000000000000000000000000000000000000000000000000000000000000000000000000000000000000000000000000000000000000000000000000000000000000000000000000000000000000000000000000000000000000000000000000000000000000000000000000000000000000000000000000000000000000000000000000000000000000000000000000000000000000000000000000000000000000000000000000000000000000000000000000000000",
            "coinbase" : "0x2adc25665018aa1fe0e6bc666dac8fc2697ff9ba",
            "difficulty" : "0x020000",
            "extraData" : "0x42",
            "gasLimit" : "0x0f4240",
            "gasUsed" : "0x00",
            "hash" : "0xd580d7c26a5506b39d368b2362bc7385265f35ff8674c97f77eb0632ebf421e6",
            "mixHash" : "0x56e81f171bcc55a6ff8345e692c0f86e5b48e01b996cadc001622fb5e363b421",
            "nonce" : "0x0102030405060708",
            "number" : "0x00",
            "parentHash" : "0x0000000000000000000000000000000000000000000000000000000000000000",
            "receiptTrie" : "0x56e81f171bcc55a6ff8345e692c0f86e5b48e01b996cadc001622fb5e363b421",
            "stateRoot" : "0xa0b58f2e7c218d617073b58de7676d5bd2678813a8e473d7c318bd601a967f98",
            "timestamp" : "0x03b6",
            "transactionsTrie" : "0x56e81f171bcc55a6ff8345e692c0f86e5b48e01b996cadc001622fb5e363b421",
            "uncleHash" : "0x1dcc4de8dec75d7aab85b567b6ccd41ad312451b948a7413f0a142fd40d49347"
        },
        "genesisRLP" : "0xf901faf901f5a00000000000000000000000000000000000000000000000000000000000000000a01dcc4de8dec75d7aab85b567b6ccd41ad312451b948a7413f0a142fd40d49347942adc25665018aa1fe0e6bc666dac8fc2697ff9baa0a0b58f2e7c218d617073b58de7676d5bd2678813a8e473d7c318bd601a967f98a056e81f171bcc55a6ff8345e692c0f86e5b48e01b996cadc001622fb5e363b421a056e81f171bcc55a6ff8345e692c0f86e5b48e01b996cadc001622fb5e363b421b90100000000000000000000000000000000000000000000000000000000000000000000000000000000000000000000000000000000000000000000000000000000000000000000000000000000000000000000000000000000000000000000000000000000000000000000000000000000000000000000000000000000000000000000000000000000000000000000000000000000000000000000000000000000000000000000000000000000000000000000000000000000000000000000000000000000000000000000000000000000000000000000000000000000000000000000000000000000000000000000000000000000000000000000000000000000008302000080830f4240808203b642a056e81f171bcc55a6ff8345e692c0f86e5b48e01b996cadc001622fb5e363b421880102030405060708c0c0",
        "lastblockhash" : "0x8e5de187db8af33d9155f2e7950a2f22f31ea4ade2f202b19af35aef0e21a3ed",
        "network" : "Frontier",
        "postState" : {
            "0x2adc25665018aa1fe0e6bc666dac8fc2697ff9ba" : {
                "balance" : "0x4563918244f51940",
                "code" : "",
                "nonce" : "0x00",
                "storage" : {
                }
            },
            "0xa94f5374fce5edbc8e2a8697c15331677e6ebf0b" : {
                "balance" : "0x0bb8",
                "code" : "",
                "nonce" : "0x01",
                "storage" : {
                }
            }
        },
        "pre" : {
            "0xa94f5374fce5edbc8e2a8697c15331677e6ebf0b" : {
                "balance" : "0x0124f8",
                "code" : "",
                "nonce" : "0x00",
                "storage" : {
                }
            }
        }
    },
    "StackUnderFlowContractCreation_d0g0v0_Homestead" : {
        "_info" : {
            "comment" : "",
            "filledwith" : "cpp-1.3.0+commit.6e0ce939.Linux.g++",
            "lllcversion" : "Version: 0.4.18-develop.2017.9.25+commit.a72237f2.Linux.g++",
            "source" : "src/BlockchainTestsFiller/GeneralStateTests/stInitCodeTest/StackUnderFlowContractCreation_d0g0v0Filler.json",
            "sourceHash" : "f8417f8387232e9fbb1cea175cdc53d2aabd225eea30fe0ae94eecca38180750"
        },
        "blocks" : [
            {
                "blockHeader" : {
                    "bloom" : "0x00000000000000000000000000000000000000000000000000000000000000000000000000000000000000000000000000000000000000000000000000000000000000000000000000000000000000000000000000000000000000000000000000000000000000000000000000000000000000000000000000000000000000000000000000000000000000000000000000000000000000000000000000000000000000000000000000000000000000000000000000000000000000000000000000000000000000000000000000000000000000000000000000000000000000000000000000000000000000000000000000000000000000000000000000000000",
                    "coinbase" : "0x2adc25665018aa1fe0e6bc666dac8fc2697ff9ba",
                    "difficulty" : "0x020000",
                    "extraData" : "",
                    "gasLimit" : "0x0f4240",
                    "gasUsed" : "0x011940",
                    "hash" : "0xa96400d28a9f5c318eb317df05214226f1623c4988fc08b668b7a47d96ba30bf",
                    "mixHash" : "0xb5f8e48abae15dcd13d13a14f58caa7663220e5cd06d59b90947a72d5b7fcf78",
                    "nonce" : "0xdce71f1dfe776a58",
                    "number" : "0x01",
                    "parentHash" : "0xd580d7c26a5506b39d368b2362bc7385265f35ff8674c97f77eb0632ebf421e6",
                    "receiptTrie" : "0x5177c7ee3fb2c30972b7ac9b75e42599dee885aeaf4de3d804df50c362099f61",
                    "stateRoot" : "0x453bda42d7ca55e11f254a3289914d8027cb980afa6d07d3796562dc9de77a54",
                    "timestamp" : "0x03e8",
                    "transactionsTrie" : "0x48f9ec4c3408887a484bc0a55493efe00cf97b9abc1dc2e2b31f79ffa82027d4",
                    "uncleHash" : "0x1dcc4de8dec75d7aab85b567b6ccd41ad312451b948a7413f0a142fd40d49347"
                },
                "rlp" : "0xf9024ff901f8a0d580d7c26a5506b39d368b2362bc7385265f35ff8674c97f77eb0632ebf421e6a01dcc4de8dec75d7aab85b567b6ccd41ad312451b948a7413f0a142fd40d49347942adc25665018aa1fe0e6bc666dac8fc2697ff9baa0453bda42d7ca55e11f254a3289914d8027cb980afa6d07d3796562dc9de77a54a048f9ec4c3408887a484bc0a55493efe00cf97b9abc1dc2e2b31f79ffa82027d4a05177c7ee3fb2c30972b7ac9b75e42599dee885aeaf4de3d804df50c362099f61b90100000000000000000000000000000000000000000000000000000000000000000000000000000000000000000000000000000000000000000000000000000000000000000000000000000000000000000000000000000000000000000000000000000000000000000000000000000000000000000000000000000000000000000000000000000000000000000000000000000000000000000000000000000000000000000000000000000000000000000000000000000000000000000000000000000000000000000000000000000000000000000000000000000000000000000000000000000000000000000000000000000000000000000000000000000000008302000001830f4240830119408203e880a0b5f8e48abae15dcd13d13a14f58caa7663220e5cd06d59b90947a72d5b7fcf7888dce71f1dfe776a58f851f84f8001830119408080836000f11ba05783623f46c011d42b9a4095a8f6383b245518bde6e47cc97fc5a88b8850261aa0046fbf81eeeea5b1e794cb094d277f639422b901c0d6d463797781d93396f969c0",
                "transactions" : [
                    {
                        "data" : "0x6000f1",
                        "gasLimit" : "0x011940",
                        "gasPrice" : "0x01",
                        "nonce" : "0x00",
                        "r" : "0x5783623f46c011d42b9a4095a8f6383b245518bde6e47cc97fc5a88b8850261a",
                        "s" : "0x046fbf81eeeea5b1e794cb094d277f639422b901c0d6d463797781d93396f969",
                        "to" : "",
                        "v" : "0x1b",
                        "value" : "0x00"
                    }
                ],
                "uncleHeaders" : [
                ]
            }
        ],
        "genesisBlockHeader" : {
            "bloom" : "0x00000000000000000000000000000000000000000000000000000000000000000000000000000000000000000000000000000000000000000000000000000000000000000000000000000000000000000000000000000000000000000000000000000000000000000000000000000000000000000000000000000000000000000000000000000000000000000000000000000000000000000000000000000000000000000000000000000000000000000000000000000000000000000000000000000000000000000000000000000000000000000000000000000000000000000000000000000000000000000000000000000000000000000000000000000000",
            "coinbase" : "0x2adc25665018aa1fe0e6bc666dac8fc2697ff9ba",
            "difficulty" : "0x020000",
            "extraData" : "0x42",
            "gasLimit" : "0x0f4240",
            "gasUsed" : "0x00",
            "hash" : "0xd580d7c26a5506b39d368b2362bc7385265f35ff8674c97f77eb0632ebf421e6",
            "mixHash" : "0x56e81f171bcc55a6ff8345e692c0f86e5b48e01b996cadc001622fb5e363b421",
            "nonce" : "0x0102030405060708",
            "number" : "0x00",
            "parentHash" : "0x0000000000000000000000000000000000000000000000000000000000000000",
            "receiptTrie" : "0x56e81f171bcc55a6ff8345e692c0f86e5b48e01b996cadc001622fb5e363b421",
            "stateRoot" : "0xa0b58f2e7c218d617073b58de7676d5bd2678813a8e473d7c318bd601a967f98",
            "timestamp" : "0x03b6",
            "transactionsTrie" : "0x56e81f171bcc55a6ff8345e692c0f86e5b48e01b996cadc001622fb5e363b421",
            "uncleHash" : "0x1dcc4de8dec75d7aab85b567b6ccd41ad312451b948a7413f0a142fd40d49347"
        },
        "genesisRLP" : "0xf901faf901f5a00000000000000000000000000000000000000000000000000000000000000000a01dcc4de8dec75d7aab85b567b6ccd41ad312451b948a7413f0a142fd40d49347942adc25665018aa1fe0e6bc666dac8fc2697ff9baa0a0b58f2e7c218d617073b58de7676d5bd2678813a8e473d7c318bd601a967f98a056e81f171bcc55a6ff8345e692c0f86e5b48e01b996cadc001622fb5e363b421a056e81f171bcc55a6ff8345e692c0f86e5b48e01b996cadc001622fb5e363b421b90100000000000000000000000000000000000000000000000000000000000000000000000000000000000000000000000000000000000000000000000000000000000000000000000000000000000000000000000000000000000000000000000000000000000000000000000000000000000000000000000000000000000000000000000000000000000000000000000000000000000000000000000000000000000000000000000000000000000000000000000000000000000000000000000000000000000000000000000000000000000000000000000000000000000000000000000000000000000000000000000000000000000000000000000000000000008302000080830f4240808203b642a056e81f171bcc55a6ff8345e692c0f86e5b48e01b996cadc001622fb5e363b421880102030405060708c0c0",
        "lastblockhash" : "0xa96400d28a9f5c318eb317df05214226f1623c4988fc08b668b7a47d96ba30bf",
        "network" : "Homestead",
        "postState" : {
            "0x2adc25665018aa1fe0e6bc666dac8fc2697ff9ba" : {
                "balance" : "0x4563918244f51940",
                "code" : "",
                "nonce" : "0x00",
                "storage" : {
                }
            },
            "0xa94f5374fce5edbc8e2a8697c15331677e6ebf0b" : {
                "balance" : "0x0bb8",
                "code" : "",
                "nonce" : "0x01",
                "storage" : {
                }
            }
        },
        "pre" : {
            "0xa94f5374fce5edbc8e2a8697c15331677e6ebf0b" : {
                "balance" : "0x0124f8",
                "code" : "",
                "nonce" : "0x00",
                "storage" : {
                }
            }
        }
    }
}