{
    "mload32bitBound_return_d0g0v0_Byzantium" : {
        "_info" : {
            "comment" : "",
            "filledwith" : "cpp-1.3.0+commit.6e0ce939.Linux.g++",
            "lllcversion" : "Version: 0.4.18-develop.2017.9.25+commit.a72237f2.Linux.g++",
            "source" : "src/BlockchainTestsFiller/GeneralStateTests/stMemoryStressTest/mload32bitBound_return_d0g0v0Filler.json",
            "sourceHash" : "4849d2d74f0b379e77cddab23076daf1315e93c185423e6ebf3a3f19f4c221cf"
        },
        "blocks" : [
            {
                "blockHeader" : {
                    "bloom" : "0x00000000000000000000000000000000000000000000000000000000000000000000000000000000000000000000000000000000000000000000000000000000000000000000000000000000000000000000000000000000000000000000000000000000000000000000000000000000000000000000000000000000000000000000000000000000000000000000000000000000000000000000000000000000000000000000000000000000000000000000000000000000000000000000000000000000000000000000000000000000000000000000000000000000000000000000000000000000000000000000000000000000000000000000000000000000",
                    "coinbase" : "0x2adc25665018aa1fe0e6bc666dac8fc2697ff9ba",
                    "difficulty" : "0x020000",
                    "extraData" : "",
                    "gasLimit" : "0x10000804025c",
                    "gasUsed" : "0x0249f0",
                    "hash" : "0x994c9e7abc142a5033cb7bae5687b58c7f19a7f671cc791543d9ba3740594199",
                    "mixHash" : "0xcab1fe537b9b602bc1bd5a854bdbde005493f55531d2125c4153cb399714e990",
                    "nonce" : "0x6660df917b0f19da",
                    "number" : "0x01",
                    "parentHash" : "0x70753037c149ae82e839cbcaf793df0f0ff5fdef5154745cea1f0233fd762572",
                    "receiptTrie" : "0xa0e10907f175886de9bd8cd4ac2c21d1db4109a3a9fecf60f54015ee102803fd",
                    "stateRoot" : "0xfb8317803230e67bbaebef0f7c389af7f75f2223f6a2f8428cb60cf704c1ae19",
                    "timestamp" : "0x03e8",
                    "transactionsTrie" : "0xc1835b5fb341ee26c083678aaca92a377f415d51b7dcd30c74f364cc4015ab83",
                    "uncleHash" : "0x1dcc4de8dec75d7aab85b567b6ccd41ad312451b948a7413f0a142fd40d49347"
                },
                "rlp" : "0xf90263f901fba070753037c149ae82e839cbcaf793df0f0ff5fdef5154745cea1f0233fd762572a01dcc4de8dec75d7aab85b567b6ccd41ad312451b948a7413f0a142fd40d49347942adc25665018aa1fe0e6bc666dac8fc2697ff9baa0fb8317803230e67bbaebef0f7c389af7f75f2223f6a2f8428cb60cf704c1ae19a0c1835b5fb341ee26c083678aaca92a377f415d51b7dcd30c74f364cc4015ab83a0a0e10907f175886de9bd8cd4ac2c21d1db4109a3a9fecf60f54015ee102803fdb901000000000000000000000000000000000000000000000000000000000000000000000000000000000000000000000000000000000000000000000000000000000000000000000000000000000000000000000000000000000000000000000000000000000000000000000000000000000000000000000000000000000000000000000000000000000000000000000000000000000000000000000000000000000000000000000000000000000000000000000000000000000000000000000000000000000000000000000000000000000000000000000000000000000000000000000000000000000000000000000000000000000000000000000000000000000083020000018610000804025c830249f08203e880a0cab1fe537b9b602bc1bd5a854bdbde005493f55531d2125c4153cb399714e990886660df917b0f19daf862f8608001830249f0940f572e5295c57f15886f9b263e2f6d2d6c7b5ec680801ca02e1a6a73fbc4dfa4772b5659eea7035139a199d3f443b597c42864fcd63ab10fa032e26fb71bc1c67b4a3425bf1f6796b510ff6508a99bad63263f3b2a669dfebec0",
                "transactions" : [
                    {
                        "data" : "",
                        "gasLimit" : "0x0249f0",
                        "gasPrice" : "0x01",
                        "nonce" : "0x00",
                        "r" : "0x2e1a6a73fbc4dfa4772b5659eea7035139a199d3f443b597c42864fcd63ab10f",
                        "s" : "0x32e26fb71bc1c67b4a3425bf1f6796b510ff6508a99bad63263f3b2a669dfebe",
                        "to" : "0x0f572e5295c57f15886f9b263e2f6d2d6c7b5ec6",
                        "v" : "0x1c",
                        "value" : "0x00"
                    }
                ],
                "uncleHeaders" : [
                ]
            }
        ],
        "genesisBlockHeader" : {
            "bloom" : "0x00000000000000000000000000000000000000000000000000000000000000000000000000000000000000000000000000000000000000000000000000000000000000000000000000000000000000000000000000000000000000000000000000000000000000000000000000000000000000000000000000000000000000000000000000000000000000000000000000000000000000000000000000000000000000000000000000000000000000000000000000000000000000000000000000000000000000000000000000000000000000000000000000000000000000000000000000000000000000000000000000000000000000000000000000000000",
            "coinbase" : "0x2adc25665018aa1fe0e6bc666dac8fc2697ff9ba",
            "difficulty" : "0x020000",
            "extraData" : "0x42",
            "gasLimit" : "0x10000804025c",
            "gasUsed" : "0x00",
            "hash" : "0x70753037c149ae82e839cbcaf793df0f0ff5fdef5154745cea1f0233fd762572",
            "mixHash" : "0x56e81f171bcc55a6ff8345e692c0f86e5b48e01b996cadc001622fb5e363b421",
            "nonce" : "0x0102030405060708",
            "number" : "0x00",
            "parentHash" : "0x0000000000000000000000000000000000000000000000000000000000000000",
            "receiptTrie" : "0x56e81f171bcc55a6ff8345e692c0f86e5b48e01b996cadc001622fb5e363b421",
            "stateRoot" : "0xad76a30bcf84e4ae9c515dfd9d5530b062b8fa4fe5b442d683ccb90d6ff9d6ab",
            "timestamp" : "0x03b6",
            "transactionsTrie" : "0x56e81f171bcc55a6ff8345e692c0f86e5b48e01b996cadc001622fb5e363b421",
            "uncleHash" : "0x1dcc4de8dec75d7aab85b567b6ccd41ad312451b948a7413f0a142fd40d49347"
        },
        "genesisRLP" : "0xf901fdf901f8a00000000000000000000000000000000000000000000000000000000000000000a01dcc4de8dec75d7aab85b567b6ccd41ad312451b948a7413f0a142fd40d49347942adc25665018aa1fe0e6bc666dac8fc2697ff9baa0ad76a30bcf84e4ae9c515dfd9d5530b062b8fa4fe5b442d683ccb90d6ff9d6aba056e81f171bcc55a6ff8345e692c0f86e5b48e01b996cadc001622fb5e363b421a056e81f171bcc55a6ff8345e692c0f86e5b48e01b996cadc001622fb5e363b421b901000000000000000000000000000000000000000000000000000000000000000000000000000000000000000000000000000000000000000000000000000000000000000000000000000000000000000000000000000000000000000000000000000000000000000000000000000000000000000000000000000000000000000000000000000000000000000000000000000000000000000000000000000000000000000000000000000000000000000000000000000000000000000000000000000000000000000000000000000000000000000000000000000000000000000000000000000000000000000000000000000000000000000000000000000000000083020000808610000804025c808203b642a056e81f171bcc55a6ff8345e692c0f86e5b48e01b996cadc001622fb5e363b421880102030405060708c0c0",
        "lastblockhash" : "0x994c9e7abc142a5033cb7bae5687b58c7f19a7f671cc791543d9ba3740594199",
        "network" : "Byzantium",
        "postState" : {
            "0x0f572e5295c57f15886f9b263e2f6d2d6c7b5ec6" : {
                "balance" : "0x0de0b6b3a7640000",
                "code" : "0x63ffffffff6000f3",
                "nonce" : "0x00",
                "storage" : {
                }
            },
            "0x2adc25665018aa1fe0e6bc666dac8fc2697ff9ba" : {
                "balance" : "0x29a2241af62e49f0",
                "code" : "",
                "nonce" : "0x00",
                "storage" : {
                }
            },
            "0xa94f5374fce5edbc8e2a8697c15331677e6ebf0b" : {
                "balance" : "0x186a0c3b1e175790",
                "code" : "",
                "nonce" : "0x01",
                "storage" : {
                }
            }
        },
        "pre" : {
            "0x0f572e5295c57f15886f9b263e2f6d2d6c7b5ec6" : {
                "balance" : "0x0de0b6b3a7640000",
                "code" : "0x63ffffffff6000f3",
                "nonce" : "0x00",
                "storage" : {
                }
            },
            "0xa94f5374fce5edbc8e2a8697c15331677e6ebf0b" : {
                "balance" : "0x186a0c3b1e19a180",
                "code" : "",
                "nonce" : "0x00",
                "storage" : {
                }
            }
        }
    },
    "mload32bitBound_return_d0g0v0_EIP150" : {
        "_info" : {
            "comment" : "",
            "filledwith" : "cpp-1.3.0+commit.6e0ce939.Linux.g++",
            "lllcversion" : "Version: 0.4.18-develop.2017.9.25+commit.a72237f2.Linux.g++",
            "source" : "src/BlockchainTestsFiller/GeneralStateTests/stMemoryStressTest/mload32bitBound_return_d0g0v0Filler.json",
            "sourceHash" : "4849d2d74f0b379e77cddab23076daf1315e93c185423e6ebf3a3f19f4c221cf"
        },
        "blocks" : [
            {
                "blockHeader" : {
                    "bloom" : "0x00000000000000000000000000000000000000000000000000000000000000000000000000000000000000000000000000000000000000000000000000000000000000000000000000000000000000000000000000000000000000000000000000000000000000000000000000000000000000000000000000000000000000000000000000000000000000000000000000000000000000000000000000000000000000000000000000000000000000000000000000000000000000000000000000000000000000000000000000000000000000000000000000000000000000000000000000000000000000000000000000000000000000000000000000000000",
                    "coinbase" : "0x2adc25665018aa1fe0e6bc666dac8fc2697ff9ba",
                    "difficulty" : "0x020000",
                    "extraData" : "",
                    "gasLimit" : "0x10000804025c",
                    "gasUsed" : "0x0249f0",
                    "hash" : "0xb2424664acc4567ca0a38d439c6a30b1bf7f1e455fc8734dc9c9746deffd4dac",
                    "mixHash" : "0xd2d688f9c8c26e6814f756f3bcffb9ed6a31bf4ea4dc4ba029f23e9c911c14e1",
                    "nonce" : "0xeeeea189d46a2741",
                    "number" : "0x01",
                    "parentHash" : "0x70753037c149ae82e839cbcaf793df0f0ff5fdef5154745cea1f0233fd762572",
                    "receiptTrie" : "0xf6acfb8206c083061e6755da279604ae715adf575fb34b75e3564a347d82f532",
                    "stateRoot" : "0x7d4d8a59bc53f05f401fcaa56072584a01bdb1945b0cd2c42ee3b642de2ca3bb",
                    "timestamp" : "0x03e8",
                    "transactionsTrie" : "0xc1835b5fb341ee26c083678aaca92a377f415d51b7dcd30c74f364cc4015ab83",
                    "uncleHash" : "0x1dcc4de8dec75d7aab85b567b6ccd41ad312451b948a7413f0a142fd40d49347"
                },
                "rlp" : "0xf90263f901fba070753037c149ae82e839cbcaf793df0f0ff5fdef5154745cea1f0233fd762572a01dcc4de8dec75d7aab85b567b6ccd41ad312451b948a7413f0a142fd40d49347942adc25665018aa1fe0e6bc666dac8fc2697ff9baa07d4d8a59bc53f05f401fcaa56072584a01bdb1945b0cd2c42ee3b642de2ca3bba0c1835b5fb341ee26c083678aaca92a377f415d51b7dcd30c74f364cc4015ab83a0f6acfb8206c083061e6755da279604ae715adf575fb34b75e3564a347d82f532b901000000000000000000000000000000000000000000000000000000000000000000000000000000000000000000000000000000000000000000000000000000000000000000000000000000000000000000000000000000000000000000000000000000000000000000000000000000000000000000000000000000000000000000000000000000000000000000000000000000000000000000000000000000000000000000000000000000000000000000000000000000000000000000000000000000000000000000000000000000000000000000000000000000000000000000000000000000000000000000000000000000000000000000000000000000000083020000018610000804025c830249f08203e880a0d2d688f9c8c26e6814f756f3bcffb9ed6a31bf4ea4dc4ba029f23e9c911c14e188eeeea189d46a2741f862f8608001830249f0940f572e5295c57f15886f9b263e2f6d2d6c7b5ec680801ca02e1a6a73fbc4dfa4772b5659eea7035139a199d3f443b597c42864fcd63ab10fa032e26fb71bc1c67b4a3425bf1f6796b510ff6508a99bad63263f3b2a669dfebec0",
                "transactions" : [
                    {
                        "data" : "",
                        "gasLimit" : "0x0249f0",
                        "gasPrice" : "0x01",
                        "nonce" : "0x00",
                        "r" : "0x2e1a6a73fbc4dfa4772b5659eea7035139a199d3f443b597c42864fcd63ab10f",
                        "s" : "0x32e26fb71bc1c67b4a3425bf1f6796b510ff6508a99bad63263f3b2a669dfebe",
                        "to" : "0x0f572e5295c57f15886f9b263e2f6d2d6c7b5ec6",
                        "v" : "0x1c",
                        "value" : "0x00"
                    }
                ],
                "uncleHeaders" : [
                ]
            }
        ],
        "genesisBlockHeader" : {
            "bloom" : "0x00000000000000000000000000000000000000000000000000000000000000000000000000000000000000000000000000000000000000000000000000000000000000000000000000000000000000000000000000000000000000000000000000000000000000000000000000000000000000000000000000000000000000000000000000000000000000000000000000000000000000000000000000000000000000000000000000000000000000000000000000000000000000000000000000000000000000000000000000000000000000000000000000000000000000000000000000000000000000000000000000000000000000000000000000000000",
            "coinbase" : "0x2adc25665018aa1fe0e6bc666dac8fc2697ff9ba",
            "difficulty" : "0x020000",
            "extraData" : "0x42",
            "gasLimit" : "0x10000804025c",
            "gasUsed" : "0x00",
            "hash" : "0x70753037c149ae82e839cbcaf793df0f0ff5fdef5154745cea1f0233fd762572",
            "mixHash" : "0x56e81f171bcc55a6ff8345e692c0f86e5b48e01b996cadc001622fb5e363b421",
            "nonce" : "0x0102030405060708",
            "number" : "0x00",
            "parentHash" : "0x0000000000000000000000000000000000000000000000000000000000000000",
            "receiptTrie" : "0x56e81f171bcc55a6ff8345e692c0f86e5b48e01b996cadc001622fb5e363b421",
            "stateRoot" : "0xad76a30bcf84e4ae9c515dfd9d5530b062b8fa4fe5b442d683ccb90d6ff9d6ab",
            "timestamp" : "0x03b6",
            "transactionsTrie" : "0x56e81f171bcc55a6ff8345e692c0f86e5b48e01b996cadc001622fb5e363b421",
            "uncleHash" : "0x1dcc4de8dec75d7aab85b567b6ccd41ad312451b948a7413f0a142fd40d49347"
        },
        "genesisRLP" : "0xf901fdf901f8a00000000000000000000000000000000000000000000000000000000000000000a01dcc4de8dec75d7aab85b567b6ccd41ad312451b948a7413f0a142fd40d49347942adc25665018aa1fe0e6bc666dac8fc2697ff9baa0ad76a30bcf84e4ae9c515dfd9d5530b062b8fa4fe5b442d683ccb90d6ff9d6aba056e81f171bcc55a6ff8345e692c0f86e5b48e01b996cadc001622fb5e363b421a056e81f171bcc55a6ff8345e692c0f86e5b48e01b996cadc001622fb5e363b421b901000000000000000000000000000000000000000000000000000000000000000000000000000000000000000000000000000000000000000000000000000000000000000000000000000000000000000000000000000000000000000000000000000000000000000000000000000000000000000000000000000000000000000000000000000000000000000000000000000000000000000000000000000000000000000000000000000000000000000000000000000000000000000000000000000000000000000000000000000000000000000000000000000000000000000000000000000000000000000000000000000000000000000000000000000000000083020000808610000804025c808203b642a056e81f171bcc55a6ff8345e692c0f86e5b48e01b996cadc001622fb5e363b421880102030405060708c0c0",
        "lastblockhash" : "0xb2424664acc4567ca0a38d439c6a30b1bf7f1e455fc8734dc9c9746deffd4dac",
        "network" : "EIP150",
        "postState" : {
            "0x0f572e5295c57f15886f9b263e2f6d2d6c7b5ec6" : {
                "balance" : "0x0de0b6b3a7640000",
                "code" : "0x63ffffffff6000f3",
                "nonce" : "0x00",
                "storage" : {
                }
            },
            "0x2adc25665018aa1fe0e6bc666dac8fc2697ff9ba" : {
                "balance" : "0x4563918244f649f0",
                "code" : "",
                "nonce" : "0x00",
                "storage" : {
                }
            },
            "0xa94f5374fce5edbc8e2a8697c15331677e6ebf0b" : {
                "balance" : "0x186a0c3b1e175790",
                "code" : "",
                "nonce" : "0x01",
                "storage" : {
                }
            }
        },
        "pre" : {
            "0x0f572e5295c57f15886f9b263e2f6d2d6c7b5ec6" : {
                "balance" : "0x0de0b6b3a7640000",
                "code" : "0x63ffffffff6000f3",
                "nonce" : "0x00",
                "storage" : {
                }
            },
            "0xa94f5374fce5edbc8e2a8697c15331677e6ebf0b" : {
                "balance" : "0x186a0c3b1e19a180",
                "code" : "",
                "nonce" : "0x00",
                "storage" : {
                }
            }
        }
    },
    "mload32bitBound_return_d0g0v0_EIP158" : {
        "_info" : {
            "comment" : "",
            "filledwith" : "cpp-1.3.0+commit.6e0ce939.Linux.g++",
            "lllcversion" : "Version: 0.4.18-develop.2017.9.25+commit.a72237f2.Linux.g++",
            "source" : "src/BlockchainTestsFiller/GeneralStateTests/stMemoryStressTest/mload32bitBound_return_d0g0v0Filler.json",
            "sourceHash" : "4849d2d74f0b379e77cddab23076daf1315e93c185423e6ebf3a3f19f4c221cf"
        },
        "blocks" : [
            {
                "blockHeader" : {
                    "bloom" : "0x00000000000000000000000000000000000000000000000000000000000000000000000000000000000000000000000000000000000000000000000000000000000000000000000000000000000000000000000000000000000000000000000000000000000000000000000000000000000000000000000000000000000000000000000000000000000000000000000000000000000000000000000000000000000000000000000000000000000000000000000000000000000000000000000000000000000000000000000000000000000000000000000000000000000000000000000000000000000000000000000000000000000000000000000000000000",
                    "coinbase" : "0x2adc25665018aa1fe0e6bc666dac8fc2697ff9ba",
                    "difficulty" : "0x020000",
                    "extraData" : "",
                    "gasLimit" : "0x10000804025c",
                    "gasUsed" : "0x0249f0",
                    "hash" : "0x67cfb735354f382373052e98d7bd37fcec948fd4886204e6701beb3ca870be0d",
                    "mixHash" : "0xf093f007d0e9fa0f046b5b9562403f94a4ad256212a4442ff5b6eb46546d79de",
                    "nonce" : "0x6d3b6b193aa7f9c3",
                    "number" : "0x01",
                    "parentHash" : "0x70753037c149ae82e839cbcaf793df0f0ff5fdef5154745cea1f0233fd762572",
                    "receiptTrie" : "0xf6acfb8206c083061e6755da279604ae715adf575fb34b75e3564a347d82f532",
                    "stateRoot" : "0x7d4d8a59bc53f05f401fcaa56072584a01bdb1945b0cd2c42ee3b642de2ca3bb",
                    "timestamp" : "0x03e8",
                    "transactionsTrie" : "0xc1835b5fb341ee26c083678aaca92a377f415d51b7dcd30c74f364cc4015ab83",
                    "uncleHash" : "0x1dcc4de8dec75d7aab85b567b6ccd41ad312451b948a7413f0a142fd40d49347"
                },
                "rlp" : "0xf90263f901fba070753037c149ae82e839cbcaf793df0f0ff5fdef5154745cea1f0233fd762572a01dcc4de8dec75d7aab85b567b6ccd41ad312451b948a7413f0a142fd40d49347942adc25665018aa1fe0e6bc666dac8fc2697ff9baa07d4d8a59bc53f05f401fcaa56072584a01bdb1945b0cd2c42ee3b642de2ca3bba0c1835b5fb341ee26c083678aaca92a377f415d51b7dcd30c74f364cc4015ab83a0f6acfb8206c083061e6755da279604ae715adf575fb34b75e3564a347d82f532b901000000000000000000000000000000000000000000000000000000000000000000000000000000000000000000000000000000000000000000000000000000000000000000000000000000000000000000000000000000000000000000000000000000000000000000000000000000000000000000000000000000000000000000000000000000000000000000000000000000000000000000000000000000000000000000000000000000000000000000000000000000000000000000000000000000000000000000000000000000000000000000000000000000000000000000000000000000000000000000000000000000000000000000000000000000000083020000018610000804025c830249f08203e880a0f093f007d0e9fa0f046b5b9562403f94a4ad256212a4442ff5b6eb46546d79de886d3b6b193aa7f9c3f862f8608001830249f0940f572e5295c57f15886f9b263e2f6d2d6c7b5ec680801ca02e1a6a73fbc4dfa4772b5659eea7035139a199d3f443b597c42864fcd63ab10fa032e26fb71bc1c67b4a3425bf1f6796b510ff6508a99bad63263f3b2a669dfebec0",
                "transactions" : [
                    {
                        "data" : "",
                        "gasLimit" : "0x0249f0",
                        "gasPrice" : "0x01",
                        "nonce" : "0x00",
                        "r" : "0x2e1a6a73fbc4dfa4772b5659eea7035139a199d3f443b597c42864fcd63ab10f",
                        "s" : "0x32e26fb71bc1c67b4a3425bf1f6796b510ff6508a99bad63263f3b2a669dfebe",
                        "to" : "0x0f572e5295c57f15886f9b263e2f6d2d6c7b5ec6",
                        "v" : "0x1c",
                        "value" : "0x00"
                    }
                ],
                "uncleHeaders" : [
                ]
            }
        ],
        "genesisBlockHeader" : {
            "bloom" : "0x00000000000000000000000000000000000000000000000000000000000000000000000000000000000000000000000000000000000000000000000000000000000000000000000000000000000000000000000000000000000000000000000000000000000000000000000000000000000000000000000000000000000000000000000000000000000000000000000000000000000000000000000000000000000000000000000000000000000000000000000000000000000000000000000000000000000000000000000000000000000000000000000000000000000000000000000000000000000000000000000000000000000000000000000000000000",
            "coinbase" : "0x2adc25665018aa1fe0e6bc666dac8fc2697ff9ba",
            "difficulty" : "0x020000",
            "extraData" : "0x42",
            "gasLimit" : "0x10000804025c",
            "gasUsed" : "0x00",
            "hash" : "0x70753037c149ae82e839cbcaf793df0f0ff5fdef5154745cea1f0233fd762572",
            "mixHash" : "0x56e81f171bcc55a6ff8345e692c0f86e5b48e01b996cadc001622fb5e363b421",
            "nonce" : "0x0102030405060708",
            "number" : "0x00",
            "parentHash" : "0x0000000000000000000000000000000000000000000000000000000000000000",
            "receiptTrie" : "0x56e81f171bcc55a6ff8345e692c0f86e5b48e01b996cadc001622fb5e363b421",
            "stateRoot" : "0xad76a30bcf84e4ae9c515dfd9d5530b062b8fa4fe5b442d683ccb90d6ff9d6ab",
            "timestamp" : "0x03b6",
            "transactionsTrie" : "0x56e81f171bcc55a6ff8345e692c0f86e5b48e01b996cadc001622fb5e363b421",
            "uncleHash" : "0x1dcc4de8dec75d7aab85b567b6ccd41ad312451b948a7413f0a142fd40d49347"
        },
        "genesisRLP" : "0xf901fdf901f8a00000000000000000000000000000000000000000000000000000000000000000a01dcc4de8dec75d7aab85b567b6ccd41ad312451b948a7413f0a142fd40d49347942adc25665018aa1fe0e6bc666dac8fc2697ff9baa0ad76a30bcf84e4ae9c515dfd9d5530b062b8fa4fe5b442d683ccb90d6ff9d6aba056e81f171bcc55a6ff8345e692c0f86e5b48e01b996cadc001622fb5e363b421a056e81f171bcc55a6ff8345e692c0f86e5b48e01b996cadc001622fb5e363b421b901000000000000000000000000000000000000000000000000000000000000000000000000000000000000000000000000000000000000000000000000000000000000000000000000000000000000000000000000000000000000000000000000000000000000000000000000000000000000000000000000000000000000000000000000000000000000000000000000000000000000000000000000000000000000000000000000000000000000000000000000000000000000000000000000000000000000000000000000000000000000000000000000000000000000000000000000000000000000000000000000000000000000000000000000000000000083020000808610000804025c808203b642a056e81f171bcc55a6ff8345e692c0f86e5b48e01b996cadc001622fb5e363b421880102030405060708c0c0",
        "lastblockhash" : "0x67cfb735354f382373052e98d7bd37fcec948fd4886204e6701beb3ca870be0d",
        "network" : "EIP158",
        "postState" : {
            "0x0f572e5295c57f15886f9b263e2f6d2d6c7b5ec6" : {
                "balance" : "0x0de0b6b3a7640000",
                "code" : "0x63ffffffff6000f3",
                "nonce" : "0x00",
                "storage" : {
                }
            },
            "0x2adc25665018aa1fe0e6bc666dac8fc2697ff9ba" : {
                "balance" : "0x4563918244f649f0",
                "code" : "",
                "nonce" : "0x00",
                "storage" : {
                }
            },
            "0xa94f5374fce5edbc8e2a8697c15331677e6ebf0b" : {
                "balance" : "0x186a0c3b1e175790",
                "code" : "",
                "nonce" : "0x01",
                "storage" : {
                }
            }
        },
        "pre" : {
            "0x0f572e5295c57f15886f9b263e2f6d2d6c7b5ec6" : {
                "balance" : "0x0de0b6b3a7640000",
                "code" : "0x63ffffffff6000f3",
                "nonce" : "0x00",
                "storage" : {
                }
            },
            "0xa94f5374fce5edbc8e2a8697c15331677e6ebf0b" : {
                "balance" : "0x186a0c3b1e19a180",
                "code" : "",
                "nonce" : "0x00",
                "storage" : {
                }
            }
        }
    },
    "mload32bitBound_return_d0g0v0_Frontier" : {
        "_info" : {
            "comment" : "",
            "filledwith" : "cpp-1.3.0+commit.6e0ce939.Linux.g++",
            "lllcversion" : "Version: 0.4.18-develop.2017.9.25+commit.a72237f2.Linux.g++",
            "source" : "src/BlockchainTestsFiller/GeneralStateTests/stMemoryStressTest/mload32bitBound_return_d0g0v0Filler.json",
            "sourceHash" : "4849d2d74f0b379e77cddab23076daf1315e93c185423e6ebf3a3f19f4c221cf"
        },
        "blocks" : [
            {
                "blockHeader" : {
                    "bloom" : "0x00000000000000000000000000000000000000000000000000000000000000000000000000000000000000000000000000000000000000000000000000000000000000000000000000000000000000000000000000000000000000000000000000000000000000000000000000000000000000000000000000000000000000000000000000000000000000000000000000000000000000000000000000000000000000000000000000000000000000000000000000000000000000000000000000000000000000000000000000000000000000000000000000000000000000000000000000000000000000000000000000000000000000000000000000000000",
                    "coinbase" : "0x2adc25665018aa1fe0e6bc666dac8fc2697ff9ba",
                    "difficulty" : "0x020000",
                    "extraData" : "",
                    "gasLimit" : "0x10000804025c",
                    "gasUsed" : "0x0249f0",
                    "hash" : "0xe77c4a3ced75b6c9fe33ddbb5e09f24bf2570c521137d381f8a3c7a720ef2eae",
                    "mixHash" : "0xa99369786ebf95bf4b8f062f9806c119b6156b9b1a73b3689ea8442dcfdfedd9",
                    "nonce" : "0xd87ef14cf0d42827",
                    "number" : "0x01",
                    "parentHash" : "0x70753037c149ae82e839cbcaf793df0f0ff5fdef5154745cea1f0233fd762572",
                    "receiptTrie" : "0xf6acfb8206c083061e6755da279604ae715adf575fb34b75e3564a347d82f532",
                    "stateRoot" : "0x7d4d8a59bc53f05f401fcaa56072584a01bdb1945b0cd2c42ee3b642de2ca3bb",
                    "timestamp" : "0x03e8",
                    "transactionsTrie" : "0xc1835b5fb341ee26c083678aaca92a377f415d51b7dcd30c74f364cc4015ab83",
                    "uncleHash" : "0x1dcc4de8dec75d7aab85b567b6ccd41ad312451b948a7413f0a142fd40d49347"
                },
                "rlp" : "0xf90263f901fba070753037c149ae82e839cbcaf793df0f0ff5fdef5154745cea1f0233fd762572a01dcc4de8dec75d7aab85b567b6ccd41ad312451b948a7413f0a142fd40d49347942adc25665018aa1fe0e6bc666dac8fc2697ff9baa07d4d8a59bc53f05f401fcaa56072584a01bdb1945b0cd2c42ee3b642de2ca3bba0c1835b5fb341ee26c083678aaca92a377f415d51b7dcd30c74f364cc4015ab83a0f6acfb8206c083061e6755da279604ae715adf575fb34b75e3564a347d82f532b901000000000000000000000000000000000000000000000000000000000000000000000000000000000000000000000000000000000000000000000000000000000000000000000000000000000000000000000000000000000000000000000000000000000000000000000000000000000000000000000000000000000000000000000000000000000000000000000000000000000000000000000000000000000000000000000000000000000000000000000000000000000000000000000000000000000000000000000000000000000000000000000000000000000000000000000000000000000000000000000000000000000000000000000000000000000083020000018610000804025c830249f08203e880a0a99369786ebf95bf4b8f062f9806c119b6156b9b1a73b3689ea8442dcfdfedd988d87ef14cf0d42827f862f8608001830249f0940f572e5295c57f15886f9b263e2f6d2d6c7b5ec680801ca02e1a6a73fbc4dfa4772b5659eea7035139a199d3f443b597c42864fcd63ab10fa032e26fb71bc1c67b4a3425bf1f6796b510ff6508a99bad63263f3b2a669dfebec0",
                "transactions" : [
                    {
                        "data" : "",
                        "gasLimit" : "0x0249f0",
                        "gasPrice" : "0x01",
                        "nonce" : "0x00",
                        "r" : "0x2e1a6a73fbc4dfa4772b5659eea7035139a199d3f443b597c42864fcd63ab10f",
                        "s" : "0x32e26fb71bc1c67b4a3425bf1f6796b510ff6508a99bad63263f3b2a669dfebe",
                        "to" : "0x0f572e5295c57f15886f9b263e2f6d2d6c7b5ec6",
                        "v" : "0x1c",
                        "value" : "0x00"
                    }
                ],
                "uncleHeaders" : [
                ]
            }
        ],
        "genesisBlockHeader" : {
            "bloom" : "0x00000000000000000000000000000000000000000000000000000000000000000000000000000000000000000000000000000000000000000000000000000000000000000000000000000000000000000000000000000000000000000000000000000000000000000000000000000000000000000000000000000000000000000000000000000000000000000000000000000000000000000000000000000000000000000000000000000000000000000000000000000000000000000000000000000000000000000000000000000000000000000000000000000000000000000000000000000000000000000000000000000000000000000000000000000000",
            "coinbase" : "0x2adc25665018aa1fe0e6bc666dac8fc2697ff9ba",
            "difficulty" : "0x020000",
            "extraData" : "0x42",
            "gasLimit" : "0x10000804025c",
            "gasUsed" : "0x00",
            "hash" : "0x70753037c149ae82e839cbcaf793df0f0ff5fdef5154745cea1f0233fd762572",
            "mixHash" : "0x56e81f171bcc55a6ff8345e692c0f86e5b48e01b996cadc001622fb5e363b421",
            "nonce" : "0x0102030405060708",
            "number" : "0x00",
            "parentHash" : "0x0000000000000000000000000000000000000000000000000000000000000000",
            "receiptTrie" : "0x56e81f171bcc55a6ff8345e692c0f86e5b48e01b996cadc001622fb5e363b421",
            "stateRoot" : "0xad76a30bcf84e4ae9c515dfd9d5530b062b8fa4fe5b442d683ccb90d6ff9d6ab",
            "timestamp" : "0x03b6",
            "transactionsTrie" : "0x56e81f171bcc55a6ff8345e692c0f86e5b48e01b996cadc001622fb5e363b421",
            "uncleHash" : "0x1dcc4de8dec75d7aab85b567b6ccd41ad312451b948a7413f0a142fd40d49347"
        },
        "genesisRLP" : "0xf901fdf901f8a00000000000000000000000000000000000000000000000000000000000000000a01dcc4de8dec75d7aab85b567b6ccd41ad312451b948a7413f0a142fd40d49347942adc25665018aa1fe0e6bc666dac8fc2697ff9baa0ad76a30bcf84e4ae9c515dfd9d5530b062b8fa4fe5b442d683ccb90d6ff9d6aba056e81f171bcc55a6ff8345e692c0f86e5b48e01b996cadc001622fb5e363b421a056e81f171bcc55a6ff8345e692c0f86e5b48e01b996cadc001622fb5e363b421b901000000000000000000000000000000000000000000000000000000000000000000000000000000000000000000000000000000000000000000000000000000000000000000000000000000000000000000000000000000000000000000000000000000000000000000000000000000000000000000000000000000000000000000000000000000000000000000000000000000000000000000000000000000000000000000000000000000000000000000000000000000000000000000000000000000000000000000000000000000000000000000000000000000000000000000000000000000000000000000000000000000000000000000000000000000000083020000808610000804025c808203b642a056e81f171bcc55a6ff8345e692c0f86e5b48e01b996cadc001622fb5e363b421880102030405060708c0c0",
        "lastblockhash" : "0xe77c4a3ced75b6c9fe33ddbb5e09f24bf2570c521137d381f8a3c7a720ef2eae",
        "network" : "Frontier",
        "postState" : {
            "0x0f572e5295c57f15886f9b263e2f6d2d6c7b5ec6" : {
                "balance" : "0x0de0b6b3a7640000",
                "code" : "0x63ffffffff6000f3",
                "nonce" : "0x00",
                "storage" : {
                }
            },
            "0x2adc25665018aa1fe0e6bc666dac8fc2697ff9ba" : {
                "balance" : "0x4563918244f649f0",
                "code" : "",
                "nonce" : "0x00",
                "storage" : {
                }
            },
            "0xa94f5374fce5edbc8e2a8697c15331677e6ebf0b" : {
                "balance" : "0x186a0c3b1e175790",
                "code" : "",
                "nonce" : "0x01",
                "storage" : {
                }
            }
        },
        "pre" : {
            "0x0f572e5295c57f15886f9b263e2f6d2d6c7b5ec6" : {
                "balance" : "0x0de0b6b3a7640000",
                "code" : "0x63ffffffff6000f3",
                "nonce" : "0x00",
                "storage" : {
                }
            },
            "0xa94f5374fce5edbc8e2a8697c15331677e6ebf0b" : {
                "balance" : "0x186a0c3b1e19a180",
                "code" : "",
                "nonce" : "0x00",
                "storage" : {
                }
            }
        }
    },
    "mload32bitBound_return_d0g0v0_Homestead" : {
        "_info" : {
            "comment" : "",
            "filledwith" : "cpp-1.3.0+commit.6e0ce939.Linux.g++",
            "lllcversion" : "Version: 0.4.18-develop.2017.9.25+commit.a72237f2.Linux.g++",
            "source" : "src/BlockchainTestsFiller/GeneralStateTests/stMemoryStressTest/mload32bitBound_return_d0g0v0Filler.json",
            "sourceHash" : "4849d2d74f0b379e77cddab23076daf1315e93c185423e6ebf3a3f19f4c221cf"
        },
        "blocks" : [
            {
                "blockHeader" : {
                    "bloom" : "0x00000000000000000000000000000000000000000000000000000000000000000000000000000000000000000000000000000000000000000000000000000000000000000000000000000000000000000000000000000000000000000000000000000000000000000000000000000000000000000000000000000000000000000000000000000000000000000000000000000000000000000000000000000000000000000000000000000000000000000000000000000000000000000000000000000000000000000000000000000000000000000000000000000000000000000000000000000000000000000000000000000000000000000000000000000000",
                    "coinbase" : "0x2adc25665018aa1fe0e6bc666dac8fc2697ff9ba",
                    "difficulty" : "0x020000",
                    "extraData" : "",
                    "gasLimit" : "0x10000804025c",
                    "gasUsed" : "0x0249f0",
                    "hash" : "0x36b6bb74fc4fa9c3d790892ea3c88f90fa8b853964c355001ca6f8c83ef39a4f",
                    "mixHash" : "0x450d23b8aa7dc806c99a50941b8ed80232197619fd64c0119b20f25dad3607d8",
                    "nonce" : "0x3d52576b1c86a8e7",
                    "number" : "0x01",
                    "parentHash" : "0x70753037c149ae82e839cbcaf793df0f0ff5fdef5154745cea1f0233fd762572",
                    "receiptTrie" : "0xf6acfb8206c083061e6755da279604ae715adf575fb34b75e3564a347d82f532",
                    "stateRoot" : "0x7d4d8a59bc53f05f401fcaa56072584a01bdb1945b0cd2c42ee3b642de2ca3bb",
                    "timestamp" : "0x03e8",
                    "transactionsTrie" : "0xc1835b5fb341ee26c083678aaca92a377f415d51b7dcd30c74f364cc4015ab83",
                    "uncleHash" : "0x1dcc4de8dec75d7aab85b567b6ccd41ad312451b948a7413f0a142fd40d49347"
                },
                "rlp" : "0xf90263f901fba070753037c149ae82e839cbcaf793df0f0ff5fdef5154745cea1f0233fd762572a01dcc4de8dec75d7aab85b567b6ccd41ad312451b948a7413f0a142fd40d49347942adc25665018aa1fe0e6bc666dac8fc2697ff9baa07d4d8a59bc53f05f401fcaa56072584a01bdb1945b0cd2c42ee3b642de2ca3bba0c1835b5fb341ee26c083678aaca92a377f415d51b7dcd30c74f364cc4015ab83a0f6acfb8206c083061e6755da279604ae715adf575fb34b75e3564a347d82f532b901000000000000000000000000000000000000000000000000000000000000000000000000000000000000000000000000000000000000000000000000000000000000000000000000000000000000000000000000000000000000000000000000000000000000000000000000000000000000000000000000000000000000000000000000000000000000000000000000000000000000000000000000000000000000000000000000000000000000000000000000000000000000000000000000000000000000000000000000000000000000000000000000000000000000000000000000000000000000000000000000000000000000000000000000000000000083020000018610000804025c830249f08203e880a0450d23b8aa7dc806c99a50941b8ed80232197619fd64c0119b20f25dad3607d8883d52576b1c86a8e7f862f8608001830249f0940f572e5295c57f15886f9b263e2f6d2d6c7b5ec680801ca02e1a6a73fbc4dfa4772b5659eea7035139a199d3f443b597c42864fcd63ab10fa032e26fb71bc1c67b4a3425bf1f6796b510ff6508a99bad63263f3b2a669dfebec0",
                "transactions" : [
                    {
                        "data" : "",
                        "gasLimit" : "0x0249f0",
                        "gasPrice" : "0x01",
                        "nonce" : "0x00",
                        "r" : "0x2e1a6a73fbc4dfa4772b5659eea7035139a199d3f443b597c42864fcd63ab10f",
                        "s" : "0x32e26fb71bc1c67b4a3425bf1f6796b510ff6508a99bad63263f3b2a669dfebe",
                        "to" : "0x0f572e5295c57f15886f9b263e2f6d2d6c7b5ec6",
                        "v" : "0x1c",
                        "value" : "0x00"
                    }
                ],
                "uncleHeaders" : [
                ]
            }
        ],
        "genesisBlockHeader" : {
            "bloom" : "0x00000000000000000000000000000000000000000000000000000000000000000000000000000000000000000000000000000000000000000000000000000000000000000000000000000000000000000000000000000000000000000000000000000000000000000000000000000000000000000000000000000000000000000000000000000000000000000000000000000000000000000000000000000000000000000000000000000000000000000000000000000000000000000000000000000000000000000000000000000000000000000000000000000000000000000000000000000000000000000000000000000000000000000000000000000000",
            "coinbase" : "0x2adc25665018aa1fe0e6bc666dac8fc2697ff9ba",
            "difficulty" : "0x020000",
            "extraData" : "0x42",
            "gasLimit" : "0x10000804025c",
            "gasUsed" : "0x00",
            "hash" : "0x70753037c149ae82e839cbcaf793df0f0ff5fdef5154745cea1f0233fd762572",
            "mixHash" : "0x56e81f171bcc55a6ff8345e692c0f86e5b48e01b996cadc001622fb5e363b421",
            "nonce" : "0x0102030405060708",
            "number" : "0x00",
            "parentHash" : "0x0000000000000000000000000000000000000000000000000000000000000000",
            "receiptTrie" : "0x56e81f171bcc55a6ff8345e692c0f86e5b48e01b996cadc001622fb5e363b421",
            "stateRoot" : "0xad76a30bcf84e4ae9c515dfd9d5530b062b8fa4fe5b442d683ccb90d6ff9d6ab",
            "timestamp" : "0x03b6",
            "transactionsTrie" : "0x56e81f171bcc55a6ff8345e692c0f86e5b48e01b996cadc001622fb5e363b421",
            "uncleHash" : "0x1dcc4de8dec75d7aab85b567b6ccd41ad312451b948a7413f0a142fd40d49347"
        },
        "genesisRLP" : "0xf901fdf901f8a00000000000000000000000000000000000000000000000000000000000000000a01dcc4de8dec75d7aab85b567b6ccd41ad312451b948a7413f0a142fd40d49347942adc25665018aa1fe0e6bc666dac8fc2697ff9baa0ad76a30bcf84e4ae9c515dfd9d5530b062b8fa4fe5b442d683ccb90d6ff9d6aba056e81f171bcc55a6ff8345e692c0f86e5b48e01b996cadc001622fb5e363b421a056e81f171bcc55a6ff8345e692c0f86e5b48e01b996cadc001622fb5e363b421b901000000000000000000000000000000000000000000000000000000000000000000000000000000000000000000000000000000000000000000000000000000000000000000000000000000000000000000000000000000000000000000000000000000000000000000000000000000000000000000000000000000000000000000000000000000000000000000000000000000000000000000000000000000000000000000000000000000000000000000000000000000000000000000000000000000000000000000000000000000000000000000000000000000000000000000000000000000000000000000000000000000000000000000000000000000000083020000808610000804025c808203b642a056e81f171bcc55a6ff8345e692c0f86e5b48e01b996cadc001622fb5e363b421880102030405060708c0c0",
        "lastblockhash" : "0x36b6bb74fc4fa9c3d790892ea3c88f90fa8b853964c355001ca6f8c83ef39a4f",
        "network" : "Homestead",
        "postState" : {
            "0x0f572e5295c57f15886f9b263e2f6d2d6c7b5ec6" : {
                "balance" : "0x0de0b6b3a7640000",
                "code" : "0x63ffffffff6000f3",
                "nonce" : "0x00",
                "storage" : {
                }
            },
            "0x2adc25665018aa1fe0e6bc666dac8fc2697ff9ba" : {
                "balance" : "0x4563918244f649f0",
                "code" : "",
                "nonce" : "0x00",
                "storage" : {
                }
            },
            "0xa94f5374fce5edbc8e2a8697c15331677e6ebf0b" : {
                "balance" : "0x186a0c3b1e175790",
                "code" : "",
                "nonce" : "0x01",
                "storage" : {
                }
            }
        },
        "pre" : {
            "0x0f572e5295c57f15886f9b263e2f6d2d6c7b5ec6" : {
                "balance" : "0x0de0b6b3a7640000",
                "code" : "0x63ffffffff6000f3",
                "nonce" : "0x00",
                "storage" : {
                }
            },
            "0xa94f5374fce5edbc8e2a8697c15331677e6ebf0b" : {
                "balance" : "0x186a0c3b1e19a180",
                "code" : "",
                "nonce" : "0x00",
                "storage" : {
                }
            }
        }
    }
}