{
    "mload32bitBound2_d0g1v0_Byzantium" : {
        "_info" : {
            "comment" : "",
            "filledwith" : "cpp-1.3.0+commit.6e0ce939.Linux.g++",
            "lllcversion" : "Version: 0.4.18-develop.2017.9.25+commit.a72237f2.Linux.g++",
            "source" : "src/BlockchainTestsFiller/GeneralStateTests/stMemoryStressTest/mload32bitBound2_d0g1v0Filler.json",
            "sourceHash" : "0a35b71327115add2f9d95ab0bc7c6bbaa28c2c8ff954df587832e4239ef85da"
        },
        "blocks" : [
            {
                "blockHeader" : {
                    "bloom" : "0x00000000000000000000000000000000000000000000000000000000000000000000000000000000000000000000000000000000000000000000000000000000000000000000000000000000000000000000000000000000000000000000000000000000000000000000000000000000000000000000000000000000000000000000000000000000000000000000000000000000000000000000000000000000000000000000000000000000000000000000000000000000000000000000000000000000000000000000000000000000000000000000000000000000000000000000000000000000000000000000000000000000000000000000000000000000",
                    "coinbase" : "0x2adc25665018aa1fe0e6bc666dac8fc2697ff9ba",
                    "difficulty" : "0x020000",
                    "extraData" : "",
                    "gasLimit" : "0x225eebec75ab",
                    "gasUsed" : "0x0ee6b280",
                    "hash" : "0x80295ef36916ad4df4dbce2bc6b533b99ffad53bc9a863adccb661b3e3f67a3d",
                    "mixHash" : "0x1b57f86554171204f47025cd07cfb31b0a4f3b862782282c8fd36e3fabe6d0ff",
                    "nonce" : "0xcabb057362ccf8f5",
                    "number" : "0x01",
                    "parentHash" : "0x5cbbf8e6b1cd3382faffeb465c9a1ca8099b742cf85a1ab125abbea9d891517e",
                    "receiptTrie" : "0x27408083641cf20cfde86cd87cd57bf10c741d7553352ca96118e31ab8ceb9ce",
                    "stateRoot" : "0xc021a603e3dbead5438f4676b982b18f68ff4e07c57c1c8bdb2194a0efb31642",
                    "timestamp" : "0x03e8",
                    "transactionsTrie" : "0x2bc0479f585b924c6cfeaa8baf96036e35dbc5c5811970e0398de8666739585b",
                    "uncleHash" : "0x1dcc4de8dec75d7aab85b567b6ccd41ad312451b948a7413f0a142fd40d49347"
                },
                "rlp" : "0xf90265f901fca05cbbf8e6b1cd3382faffeb465c9a1ca8099b742cf85a1ab125abbea9d891517ea01dcc4de8dec75d7aab85b567b6ccd41ad312451b948a7413f0a142fd40d49347942adc25665018aa1fe0e6bc666dac8fc2697ff9baa0c021a603e3dbead5438f4676b982b18f68ff4e07c57c1c8bdb2194a0efb31642a02bc0479f585b924c6cfeaa8baf96036e35dbc5c5811970e0398de8666739585ba027408083641cf20cfde86cd87cd57bf10c741d7553352ca96118e31ab8ceb9ceb9010000000000000000000000000000000000000000000000000000000000000000000000000000000000000000000000000000000000000000000000000000000000000000000000000000000000000000000000000000000000000000000000000000000000000000000000000000000000000000000000000000000000000000000000000000000000000000000000000000000000000000000000000000000000000000000000000000000000000000000000000000000000000000000000000000000000000000000000000000000000000000000000000000000000000000000000000000000000000000000000000000000000000000000000000000000000830200000186225eebec75ab840ee6b2808203e880a01b57f86554171204f47025cd07cfb31b0a4f3b862782282c8fd36e3fabe6d0ff88cabb057362ccf8f5f863f8618001840ee6b280940f572e5295c57f15886f9b263e2f6d2d6c7b5ec60a801ba0eebe8f6882b96fdbbd5f189299464c92416a657404cc3e7a84d3ac1090aef87aa06bb2fa80ca4f417aa4e12b955f470eab638c0733c5671b06b074f158acff8c57c0",
                "transactions" : [
                    {
                        "data" : "",
                        "gasLimit" : "0x0ee6b280",
                        "gasPrice" : "0x01",
                        "nonce" : "0x00",
                        "r" : "0xeebe8f6882b96fdbbd5f189299464c92416a657404cc3e7a84d3ac1090aef87a",
                        "s" : "0x6bb2fa80ca4f417aa4e12b955f470eab638c0733c5671b06b074f158acff8c57",
                        "to" : "0x0f572e5295c57f15886f9b263e2f6d2d6c7b5ec6",
                        "v" : "0x1b",
                        "value" : "0x0a"
                    }
                ],
                "uncleHeaders" : [
                ]
            }
        ],
        "genesisBlockHeader" : {
            "bloom" : "0x00000000000000000000000000000000000000000000000000000000000000000000000000000000000000000000000000000000000000000000000000000000000000000000000000000000000000000000000000000000000000000000000000000000000000000000000000000000000000000000000000000000000000000000000000000000000000000000000000000000000000000000000000000000000000000000000000000000000000000000000000000000000000000000000000000000000000000000000000000000000000000000000000000000000000000000000000000000000000000000000000000000000000000000000000000000",
            "coinbase" : "0x2adc25665018aa1fe0e6bc666dac8fc2697ff9ba",
            "difficulty" : "0x020000",
            "extraData" : "0x42",
            "gasLimit" : "0x225eebec75ab",
            "gasUsed" : "0x00",
            "hash" : "0x5cbbf8e6b1cd3382faffeb465c9a1ca8099b742cf85a1ab125abbea9d891517e",
            "mixHash" : "0x56e81f171bcc55a6ff8345e692c0f86e5b48e01b996cadc001622fb5e363b421",
            "nonce" : "0x0102030405060708",
            "number" : "0x00",
            "parentHash" : "0x0000000000000000000000000000000000000000000000000000000000000000",
            "receiptTrie" : "0x56e81f171bcc55a6ff8345e692c0f86e5b48e01b996cadc001622fb5e363b421",
            "stateRoot" : "0xccfd7955be8325c4499ff724ea941d5019e416a1d5dbcc2d68926389774ccb86",
            "timestamp" : "0x03b6",
            "transactionsTrie" : "0x56e81f171bcc55a6ff8345e692c0f86e5b48e01b996cadc001622fb5e363b421",
            "uncleHash" : "0x1dcc4de8dec75d7aab85b567b6ccd41ad312451b948a7413f0a142fd40d49347"
        },
        "genesisRLP" : "0xf901fdf901f8a00000000000000000000000000000000000000000000000000000000000000000a01dcc4de8dec75d7aab85b567b6ccd41ad312451b948a7413f0a142fd40d49347942adc25665018aa1fe0e6bc666dac8fc2697ff9baa0ccfd7955be8325c4499ff724ea941d5019e416a1d5dbcc2d68926389774ccb86a056e81f171bcc55a6ff8345e692c0f86e5b48e01b996cadc001622fb5e363b421a056e81f171bcc55a6ff8345e692c0f86e5b48e01b996cadc001622fb5e363b421b9010000000000000000000000000000000000000000000000000000000000000000000000000000000000000000000000000000000000000000000000000000000000000000000000000000000000000000000000000000000000000000000000000000000000000000000000000000000000000000000000000000000000000000000000000000000000000000000000000000000000000000000000000000000000000000000000000000000000000000000000000000000000000000000000000000000000000000000000000000000000000000000000000000000000000000000000000000000000000000000000000000000000000000000000000000000000830200008086225eebec75ab808203b642a056e81f171bcc55a6ff8345e692c0f86e5b48e01b996cadc001622fb5e363b421880102030405060708c0c0",
        "lastblockhash" : "0x80295ef36916ad4df4dbce2bc6b533b99ffad53bc9a863adccb661b3e3f67a3d",
        "network" : "Byzantium",
        "postState" : {
            "0x0f572e5295c57f15886f9b263e2f6d2d6c7b5ec6" : {
                "balance" : "0x0de0b6b3a7640000",
                "code" : "0x64017735940051600155",
                "nonce" : "0x00",
                "storage" : {
                }
            },
            "0x2adc25665018aa1fe0e6bc666dac8fc2697ff9ba" : {
                "balance" : "0x29a2241b0512b280",
                "code" : "",
                "nonce" : "0x00",
                "storage" : {
                }
            },
            "0xa94f5374fce5edbc8e2a8697c15331677e6ebf0b" : {
                "balance" : "0x0157b52857554a",
                "code" : "",
                "nonce" : "0x01",
                "storage" : {
                }
            }
        },
        "pre" : {
            "0x0f572e5295c57f15886f9b263e2f6d2d6c7b5ec6" : {
                "balance" : "0x0de0b6b3a7640000",
                "code" : "0x64017735940051600155",
                "nonce" : "0x00",
                "storage" : {
                }
            },
            "0xa94f5374fce5edbc8e2a8697c15331677e6ebf0b" : {
                "balance" : "0x0157b5373e07ca",
                "code" : "",
                "nonce" : "0x00",
                "storage" : {
                }
            }
        }
    },
    "mload32bitBound2_d0g1v0_EIP150" : {
        "_info" : {
            "comment" : "",
            "filledwith" : "cpp-1.3.0+commit.6e0ce939.Linux.g++",
            "lllcversion" : "Version: 0.4.18-develop.2017.9.25+commit.a72237f2.Linux.g++",
            "source" : "src/BlockchainTestsFiller/GeneralStateTests/stMemoryStressTest/mload32bitBound2_d0g1v0Filler.json",
            "sourceHash" : "0a35b71327115add2f9d95ab0bc7c6bbaa28c2c8ff954df587832e4239ef85da"
        },
        "blocks" : [
            {
                "blockHeader" : {
                    "bloom" : "0x00000000000000000000000000000000000000000000000000000000000000000000000000000000000000000000000000000000000000000000000000000000000000000000000000000000000000000000000000000000000000000000000000000000000000000000000000000000000000000000000000000000000000000000000000000000000000000000000000000000000000000000000000000000000000000000000000000000000000000000000000000000000000000000000000000000000000000000000000000000000000000000000000000000000000000000000000000000000000000000000000000000000000000000000000000000",
                    "coinbase" : "0x2adc25665018aa1fe0e6bc666dac8fc2697ff9ba",
                    "difficulty" : "0x020000",
                    "extraData" : "",
                    "gasLimit" : "0x225eebec75ab",
                    "gasUsed" : "0x0ee6b280",
                    "hash" : "0x3beafa649a57a4905d6c40035b84a62d78bd08b3cbb6d093511eb2206e47ac35",
                    "mixHash" : "0xc14f795c1cd8eec935f19c83f781e9e7c7e0cd40645b5f632478f6bd6556f380",
                    "nonce" : "0x81c3381f392db428",
                    "number" : "0x01",
                    "parentHash" : "0x5cbbf8e6b1cd3382faffeb465c9a1ca8099b742cf85a1ab125abbea9d891517e",
                    "receiptTrie" : "0x2793fb640c53c21ac4b3108d55266f6e467e6128f71286ec537babfc296ab3d4",
                    "stateRoot" : "0x8995c5605ca9c3054658b41123c72dc45cdbe47800a8687b541dbdb106a14115",
                    "timestamp" : "0x03e8",
                    "transactionsTrie" : "0x2bc0479f585b924c6cfeaa8baf96036e35dbc5c5811970e0398de8666739585b",
                    "uncleHash" : "0x1dcc4de8dec75d7aab85b567b6ccd41ad312451b948a7413f0a142fd40d49347"
                },
                "rlp" : "0xf90265f901fca05cbbf8e6b1cd3382faffeb465c9a1ca8099b742cf85a1ab125abbea9d891517ea01dcc4de8dec75d7aab85b567b6ccd41ad312451b948a7413f0a142fd40d49347942adc25665018aa1fe0e6bc666dac8fc2697ff9baa08995c5605ca9c3054658b41123c72dc45cdbe47800a8687b541dbdb106a14115a02bc0479f585b924c6cfeaa8baf96036e35dbc5c5811970e0398de8666739585ba02793fb640c53c21ac4b3108d55266f6e467e6128f71286ec537babfc296ab3d4b9010000000000000000000000000000000000000000000000000000000000000000000000000000000000000000000000000000000000000000000000000000000000000000000000000000000000000000000000000000000000000000000000000000000000000000000000000000000000000000000000000000000000000000000000000000000000000000000000000000000000000000000000000000000000000000000000000000000000000000000000000000000000000000000000000000000000000000000000000000000000000000000000000000000000000000000000000000000000000000000000000000000000000000000000000000000000830200000186225eebec75ab840ee6b2808203e880a0c14f795c1cd8eec935f19c83f781e9e7c7e0cd40645b5f632478f6bd6556f3808881c3381f392db428f863f8618001840ee6b280940f572e5295c57f15886f9b263e2f6d2d6c7b5ec60a801ba0eebe8f6882b96fdbbd5f189299464c92416a657404cc3e7a84d3ac1090aef87aa06bb2fa80ca4f417aa4e12b955f470eab638c0733c5671b06b074f158acff8c57c0",
                "transactions" : [
                    {
                        "data" : "",
                        "gasLimit" : "0x0ee6b280",
                        "gasPrice" : "0x01",
                        "nonce" : "0x00",
                        "r" : "0xeebe8f6882b96fdbbd5f189299464c92416a657404cc3e7a84d3ac1090aef87a",
                        "s" : "0x6bb2fa80ca4f417aa4e12b955f470eab638c0733c5671b06b074f158acff8c57",
                        "to" : "0x0f572e5295c57f15886f9b263e2f6d2d6c7b5ec6",
                        "v" : "0x1b",
                        "value" : "0x0a"
                    }
                ],
                "uncleHeaders" : [
                ]
            }
        ],
        "genesisBlockHeader" : {
            "bloom" : "0x00000000000000000000000000000000000000000000000000000000000000000000000000000000000000000000000000000000000000000000000000000000000000000000000000000000000000000000000000000000000000000000000000000000000000000000000000000000000000000000000000000000000000000000000000000000000000000000000000000000000000000000000000000000000000000000000000000000000000000000000000000000000000000000000000000000000000000000000000000000000000000000000000000000000000000000000000000000000000000000000000000000000000000000000000000000",
            "coinbase" : "0x2adc25665018aa1fe0e6bc666dac8fc2697ff9ba",
            "difficulty" : "0x020000",
            "extraData" : "0x42",
            "gasLimit" : "0x225eebec75ab",
            "gasUsed" : "0x00",
            "hash" : "0x5cbbf8e6b1cd3382faffeb465c9a1ca8099b742cf85a1ab125abbea9d891517e",
            "mixHash" : "0x56e81f171bcc55a6ff8345e692c0f86e5b48e01b996cadc001622fb5e363b421",
            "nonce" : "0x0102030405060708",
            "number" : "0x00",
            "parentHash" : "0x0000000000000000000000000000000000000000000000000000000000000000",
            "receiptTrie" : "0x56e81f171bcc55a6ff8345e692c0f86e5b48e01b996cadc001622fb5e363b421",
            "stateRoot" : "0xccfd7955be8325c4499ff724ea941d5019e416a1d5dbcc2d68926389774ccb86",
            "timestamp" : "0x03b6",
            "transactionsTrie" : "0x56e81f171bcc55a6ff8345e692c0f86e5b48e01b996cadc001622fb5e363b421",
            "uncleHash" : "0x1dcc4de8dec75d7aab85b567b6ccd41ad312451b948a7413f0a142fd40d49347"
        },
        "genesisRLP" : "0xf901fdf901f8a00000000000000000000000000000000000000000000000000000000000000000a01dcc4de8dec75d7aab85b567b6ccd41ad312451b948a7413f0a142fd40d49347942adc25665018aa1fe0e6bc666dac8fc2697ff9baa0ccfd7955be8325c4499ff724ea941d5019e416a1d5dbcc2d68926389774ccb86a056e81f171bcc55a6ff8345e692c0f86e5b48e01b996cadc001622fb5e363b421a056e81f171bcc55a6ff8345e692c0f86e5b48e01b996cadc001622fb5e363b421b9010000000000000000000000000000000000000000000000000000000000000000000000000000000000000000000000000000000000000000000000000000000000000000000000000000000000000000000000000000000000000000000000000000000000000000000000000000000000000000000000000000000000000000000000000000000000000000000000000000000000000000000000000000000000000000000000000000000000000000000000000000000000000000000000000000000000000000000000000000000000000000000000000000000000000000000000000000000000000000000000000000000000000000000000000000000000830200008086225eebec75ab808203b642a056e81f171bcc55a6ff8345e692c0f86e5b48e01b996cadc001622fb5e363b421880102030405060708c0c0",
        "lastblockhash" : "0x3beafa649a57a4905d6c40035b84a62d78bd08b3cbb6d093511eb2206e47ac35",
        "network" : "EIP150",
        "postState" : {
            "0x0f572e5295c57f15886f9b263e2f6d2d6c7b5ec6" : {
                "balance" : "0x0de0b6b3a7640000",
                "code" : "0x64017735940051600155",
                "nonce" : "0x00",
                "storage" : {
                }
            },
            "0x2adc25665018aa1fe0e6bc666dac8fc2697ff9ba" : {
                "balance" : "0x4563918253dab280",
                "code" : "",
                "nonce" : "0x00",
                "storage" : {
                }
            },
            "0xa94f5374fce5edbc8e2a8697c15331677e6ebf0b" : {
                "balance" : "0x0157b52857554a",
                "code" : "",
                "nonce" : "0x01",
                "storage" : {
                }
            }
        },
        "pre" : {
            "0x0f572e5295c57f15886f9b263e2f6d2d6c7b5ec6" : {
                "balance" : "0x0de0b6b3a7640000",
                "code" : "0x64017735940051600155",
                "nonce" : "0x00",
                "storage" : {
                }
            },
            "0xa94f5374fce5edbc8e2a8697c15331677e6ebf0b" : {
                "balance" : "0x0157b5373e07ca",
                "code" : "",
                "nonce" : "0x00",
                "storage" : {
                }
            }
        }
    },
    "mload32bitBound2_d0g1v0_EIP158" : {
        "_info" : {
            "comment" : "",
            "filledwith" : "cpp-1.3.0+commit.6e0ce939.Linux.g++",
            "lllcversion" : "Version: 0.4.18-develop.2017.9.25+commit.a72237f2.Linux.g++",
            "source" : "src/BlockchainTestsFiller/GeneralStateTests/stMemoryStressTest/mload32bitBound2_d0g1v0Filler.json",
            "sourceHash" : "0a35b71327115add2f9d95ab0bc7c6bbaa28c2c8ff954df587832e4239ef85da"
        },
        "blocks" : [
            {
                "blockHeader" : {
                    "bloom" : "0x00000000000000000000000000000000000000000000000000000000000000000000000000000000000000000000000000000000000000000000000000000000000000000000000000000000000000000000000000000000000000000000000000000000000000000000000000000000000000000000000000000000000000000000000000000000000000000000000000000000000000000000000000000000000000000000000000000000000000000000000000000000000000000000000000000000000000000000000000000000000000000000000000000000000000000000000000000000000000000000000000000000000000000000000000000000",
                    "coinbase" : "0x2adc25665018aa1fe0e6bc666dac8fc2697ff9ba",
                    "difficulty" : "0x020000",
                    "extraData" : "",
                    "gasLimit" : "0x225eebec75ab",
                    "gasUsed" : "0x0ee6b280",
                    "hash" : "0x8a3cf7f46f7e10c2c89c96c0dc848181ce235aa36a8d3e9cacece1ff7d664aa5",
                    "mixHash" : "0xf62337c9e1006ceaeddc4f8883f8dcc978ca1f0c19828ae8f4eb6d2775978562",
                    "nonce" : "0x77080a3f11ddda84",
                    "number" : "0x01",
                    "parentHash" : "0x5cbbf8e6b1cd3382faffeb465c9a1ca8099b742cf85a1ab125abbea9d891517e",
                    "receiptTrie" : "0x2793fb640c53c21ac4b3108d55266f6e467e6128f71286ec537babfc296ab3d4",
                    "stateRoot" : "0x8995c5605ca9c3054658b41123c72dc45cdbe47800a8687b541dbdb106a14115",
                    "timestamp" : "0x03e8",
                    "transactionsTrie" : "0x2bc0479f585b924c6cfeaa8baf96036e35dbc5c5811970e0398de8666739585b",
                    "uncleHash" : "0x1dcc4de8dec75d7aab85b567b6ccd41ad312451b948a7413f0a142fd40d49347"
                },
                "rlp" : "0xf90265f901fca05cbbf8e6b1cd3382faffeb465c9a1ca8099b742cf85a1ab125abbea9d891517ea01dcc4de8dec75d7aab85b567b6ccd41ad312451b948a7413f0a142fd40d49347942adc25665018aa1fe0e6bc666dac8fc2697ff9baa08995c5605ca9c3054658b41123c72dc45cdbe47800a8687b541dbdb106a14115a02bc0479f585b924c6cfeaa8baf96036e35dbc5c5811970e0398de8666739585ba02793fb640c53c21ac4b3108d55266f6e467e6128f71286ec537babfc296ab3d4b9010000000000000000000000000000000000000000000000000000000000000000000000000000000000000000000000000000000000000000000000000000000000000000000000000000000000000000000000000000000000000000000000000000000000000000000000000000000000000000000000000000000000000000000000000000000000000000000000000000000000000000000000000000000000000000000000000000000000000000000000000000000000000000000000000000000000000000000000000000000000000000000000000000000000000000000000000000000000000000000000000000000000000000000000000000000000830200000186225eebec75ab840ee6b2808203e880a0f62337c9e1006ceaeddc4f8883f8dcc978ca1f0c19828ae8f4eb6d27759785628877080a3f11ddda84f863f8618001840ee6b280940f572e5295c57f15886f9b263e2f6d2d6c7b5ec60a801ba0eebe8f6882b96fdbbd5f189299464c92416a657404cc3e7a84d3ac1090aef87aa06bb2fa80ca4f417aa4e12b955f470eab638c0733c5671b06b074f158acff8c57c0",
                "transactions" : [
                    {
                        "data" : "",
                        "gasLimit" : "0x0ee6b280",
                        "gasPrice" : "0x01",
                        "nonce" : "0x00",
                        "r" : "0xeebe8f6882b96fdbbd5f189299464c92416a657404cc3e7a84d3ac1090aef87a",
                        "s" : "0x6bb2fa80ca4f417aa4e12b955f470eab638c0733c5671b06b074f158acff8c57",
                        "to" : "0x0f572e5295c57f15886f9b263e2f6d2d6c7b5ec6",
                        "v" : "0x1b",
                        "value" : "0x0a"
                    }
                ],
                "uncleHeaders" : [
                ]
            }
        ],
        "genesisBlockHeader" : {
            "bloom" : "0x00000000000000000000000000000000000000000000000000000000000000000000000000000000000000000000000000000000000000000000000000000000000000000000000000000000000000000000000000000000000000000000000000000000000000000000000000000000000000000000000000000000000000000000000000000000000000000000000000000000000000000000000000000000000000000000000000000000000000000000000000000000000000000000000000000000000000000000000000000000000000000000000000000000000000000000000000000000000000000000000000000000000000000000000000000000",
            "coinbase" : "0x2adc25665018aa1fe0e6bc666dac8fc2697ff9ba",
            "difficulty" : "0x020000",
            "extraData" : "0x42",
            "gasLimit" : "0x225eebec75ab",
            "gasUsed" : "0x00",
            "hash" : "0x5cbbf8e6b1cd3382faffeb465c9a1ca8099b742cf85a1ab125abbea9d891517e",
            "mixHash" : "0x56e81f171bcc55a6ff8345e692c0f86e5b48e01b996cadc001622fb5e363b421",
            "nonce" : "0x0102030405060708",
            "number" : "0x00",
            "parentHash" : "0x0000000000000000000000000000000000000000000000000000000000000000",
            "receiptTrie" : "0x56e81f171bcc55a6ff8345e692c0f86e5b48e01b996cadc001622fb5e363b421",
            "stateRoot" : "0xccfd7955be8325c4499ff724ea941d5019e416a1d5dbcc2d68926389774ccb86",
            "timestamp" : "0x03b6",
            "transactionsTrie" : "0x56e81f171bcc55a6ff8345e692c0f86e5b48e01b996cadc001622fb5e363b421",
            "uncleHash" : "0x1dcc4de8dec75d7aab85b567b6ccd41ad312451b948a7413f0a142fd40d49347"
        },
        "genesisRLP" : "0xf901fdf901f8a00000000000000000000000000000000000000000000000000000000000000000a01dcc4de8dec75d7aab85b567b6ccd41ad312451b948a7413f0a142fd40d49347942adc25665018aa1fe0e6bc666dac8fc2697ff9baa0ccfd7955be8325c4499ff724ea941d5019e416a1d5dbcc2d68926389774ccb86a056e81f171bcc55a6ff8345e692c0f86e5b48e01b996cadc001622fb5e363b421a056e81f171bcc55a6ff8345e692c0f86e5b48e01b996cadc001622fb5e363b421b9010000000000000000000000000000000000000000000000000000000000000000000000000000000000000000000000000000000000000000000000000000000000000000000000000000000000000000000000000000000000000000000000000000000000000000000000000000000000000000000000000000000000000000000000000000000000000000000000000000000000000000000000000000000000000000000000000000000000000000000000000000000000000000000000000000000000000000000000000000000000000000000000000000000000000000000000000000000000000000000000000000000000000000000000000000000000830200008086225eebec75ab808203b642a056e81f171bcc55a6ff8345e692c0f86e5b48e01b996cadc001622fb5e363b421880102030405060708c0c0",
        "lastblockhash" : "0x8a3cf7f46f7e10c2c89c96c0dc848181ce235aa36a8d3e9cacece1ff7d664aa5",
        "network" : "EIP158",
        "postState" : {
            "0x0f572e5295c57f15886f9b263e2f6d2d6c7b5ec6" : {
                "balance" : "0x0de0b6b3a7640000",
                "code" : "0x64017735940051600155",
                "nonce" : "0x00",
                "storage" : {
                }
            },
            "0x2adc25665018aa1fe0e6bc666dac8fc2697ff9ba" : {
                "balance" : "0x4563918253dab280",
                "code" : "",
                "nonce" : "0x00",
                "storage" : {
                }
            },
            "0xa94f5374fce5edbc8e2a8697c15331677e6ebf0b" : {
                "balance" : "0x0157b52857554a",
                "code" : "",
                "nonce" : "0x01",
                "storage" : {
                }
            }
        },
        "pre" : {
            "0x0f572e5295c57f15886f9b263e2f6d2d6c7b5ec6" : {
                "balance" : "0x0de0b6b3a7640000",
                "code" : "0x64017735940051600155",
                "nonce" : "0x00",
                "storage" : {
                }
            },
            "0xa94f5374fce5edbc8e2a8697c15331677e6ebf0b" : {
                "balance" : "0x0157b5373e07ca",
                "code" : "",
                "nonce" : "0x00",
                "storage" : {
                }
            }
        }
    },
    "mload32bitBound2_d0g1v0_Frontier" : {
        "_info" : {
            "comment" : "",
            "filledwith" : "cpp-1.3.0+commit.6e0ce939.Linux.g++",
            "lllcversion" : "Version: 0.4.18-develop.2017.9.25+commit.a72237f2.Linux.g++",
            "source" : "src/BlockchainTestsFiller/GeneralStateTests/stMemoryStressTest/mload32bitBound2_d0g1v0Filler.json",
            "sourceHash" : "0a35b71327115add2f9d95ab0bc7c6bbaa28c2c8ff954df587832e4239ef85da"
        },
        "blocks" : [
            {
                "blockHeader" : {
                    "bloom" : "0x00000000000000000000000000000000000000000000000000000000000000000000000000000000000000000000000000000000000000000000000000000000000000000000000000000000000000000000000000000000000000000000000000000000000000000000000000000000000000000000000000000000000000000000000000000000000000000000000000000000000000000000000000000000000000000000000000000000000000000000000000000000000000000000000000000000000000000000000000000000000000000000000000000000000000000000000000000000000000000000000000000000000000000000000000000000",
                    "coinbase" : "0x2adc25665018aa1fe0e6bc666dac8fc2697ff9ba",
                    "difficulty" : "0x020000",
                    "extraData" : "",
                    "gasLimit" : "0x225eebec75ab",
                    "gasUsed" : "0x0ee6b280",
                    "hash" : "0xe929ce3423db6b51475adff60c6b460fa77c36265d74cd48340cea074b90632f",
                    "mixHash" : "0x5a74300ae810866bcd44f3547dfd66864f17e230c75c73e787a2372572fad662",
                    "nonce" : "0x3b02bbda65d06784",
                    "number" : "0x01",
                    "parentHash" : "0x5cbbf8e6b1cd3382faffeb465c9a1ca8099b742cf85a1ab125abbea9d891517e",
                    "receiptTrie" : "0x2793fb640c53c21ac4b3108d55266f6e467e6128f71286ec537babfc296ab3d4",
                    "stateRoot" : "0x8995c5605ca9c3054658b41123c72dc45cdbe47800a8687b541dbdb106a14115",
                    "timestamp" : "0x03e8",
                    "transactionsTrie" : "0x2bc0479f585b924c6cfeaa8baf96036e35dbc5c5811970e0398de8666739585b",
                    "uncleHash" : "0x1dcc4de8dec75d7aab85b567b6ccd41ad312451b948a7413f0a142fd40d49347"
                },
                "rlp" : "0xf90265f901fca05cbbf8e6b1cd3382faffeb465c9a1ca8099b742cf85a1ab125abbea9d891517ea01dcc4de8dec75d7aab85b567b6ccd41ad312451b948a7413f0a142fd40d49347942adc25665018aa1fe0e6bc666dac8fc2697ff9baa08995c5605ca9c3054658b41123c72dc45cdbe47800a8687b541dbdb106a14115a02bc0479f585b924c6cfeaa8baf96036e35dbc5c5811970e0398de8666739585ba02793fb640c53c21ac4b3108d55266f6e467e6128f71286ec537babfc296ab3d4b9010000000000000000000000000000000000000000000000000000000000000000000000000000000000000000000000000000000000000000000000000000000000000000000000000000000000000000000000000000000000000000000000000000000000000000000000000000000000000000000000000000000000000000000000000000000000000000000000000000000000000000000000000000000000000000000000000000000000000000000000000000000000000000000000000000000000000000000000000000000000000000000000000000000000000000000000000000000000000000000000000000000000000000000000000000000000830200000186225eebec75ab840ee6b2808203e880a05a74300ae810866bcd44f3547dfd66864f17e230c75c73e787a2372572fad662883b02bbda65d06784f863f8618001840ee6b280940f572e5295c57f15886f9b263e2f6d2d6c7b5ec60a801ba0eebe8f6882b96fdbbd5f189299464c92416a657404cc3e7a84d3ac1090aef87aa06bb2fa80ca4f417aa4e12b955f470eab638c0733c5671b06b074f158acff8c57c0",
                "transactions" : [
                    {
                        "data" : "",
                        "gasLimit" : "0x0ee6b280",
                        "gasPrice" : "0x01",
                        "nonce" : "0x00",
                        "r" : "0xeebe8f6882b96fdbbd5f189299464c92416a657404cc3e7a84d3ac1090aef87a",
                        "s" : "0x6bb2fa80ca4f417aa4e12b955f470eab638c0733c5671b06b074f158acff8c57",
                        "to" : "0x0f572e5295c57f15886f9b263e2f6d2d6c7b5ec6",
                        "v" : "0x1b",
                        "value" : "0x0a"
                    }
                ],
                "uncleHeaders" : [
                ]
            }
        ],
        "genesisBlockHeader" : {
            "bloom" : "0x00000000000000000000000000000000000000000000000000000000000000000000000000000000000000000000000000000000000000000000000000000000000000000000000000000000000000000000000000000000000000000000000000000000000000000000000000000000000000000000000000000000000000000000000000000000000000000000000000000000000000000000000000000000000000000000000000000000000000000000000000000000000000000000000000000000000000000000000000000000000000000000000000000000000000000000000000000000000000000000000000000000000000000000000000000000",
            "coinbase" : "0x2adc25665018aa1fe0e6bc666dac8fc2697ff9ba",
            "difficulty" : "0x020000",
            "extraData" : "0x42",
            "gasLimit" : "0x225eebec75ab",
            "gasUsed" : "0x00",
            "hash" : "0x5cbbf8e6b1cd3382faffeb465c9a1ca8099b742cf85a1ab125abbea9d891517e",
            "mixHash" : "0x56e81f171bcc55a6ff8345e692c0f86e5b48e01b996cadc001622fb5e363b421",
            "nonce" : "0x0102030405060708",
            "number" : "0x00",
            "parentHash" : "0x0000000000000000000000000000000000000000000000000000000000000000",
            "receiptTrie" : "0x56e81f171bcc55a6ff8345e692c0f86e5b48e01b996cadc001622fb5e363b421",
            "stateRoot" : "0xccfd7955be8325c4499ff724ea941d5019e416a1d5dbcc2d68926389774ccb86",
            "timestamp" : "0x03b6",
            "transactionsTrie" : "0x56e81f171bcc55a6ff8345e692c0f86e5b48e01b996cadc001622fb5e363b421",
            "uncleHash" : "0x1dcc4de8dec75d7aab85b567b6ccd41ad312451b948a7413f0a142fd40d49347"
        },
        "genesisRLP" : "0xf901fdf901f8a00000000000000000000000000000000000000000000000000000000000000000a01dcc4de8dec75d7aab85b567b6ccd41ad312451b948a7413f0a142fd40d49347942adc25665018aa1fe0e6bc666dac8fc2697ff9baa0ccfd7955be8325c4499ff724ea941d5019e416a1d5dbcc2d68926389774ccb86a056e81f171bcc55a6ff8345e692c0f86e5b48e01b996cadc001622fb5e363b421a056e81f171bcc55a6ff8345e692c0f86e5b48e01b996cadc001622fb5e363b421b9010000000000000000000000000000000000000000000000000000000000000000000000000000000000000000000000000000000000000000000000000000000000000000000000000000000000000000000000000000000000000000000000000000000000000000000000000000000000000000000000000000000000000000000000000000000000000000000000000000000000000000000000000000000000000000000000000000000000000000000000000000000000000000000000000000000000000000000000000000000000000000000000000000000000000000000000000000000000000000000000000000000000000000000000000000000000830200008086225eebec75ab808203b642a056e81f171bcc55a6ff8345e692c0f86e5b48e01b996cadc001622fb5e363b421880102030405060708c0c0",
        "lastblockhash" : "0xe929ce3423db6b51475adff60c6b460fa77c36265d74cd48340cea074b90632f",
        "network" : "Frontier",
        "postState" : {
            "0x0f572e5295c57f15886f9b263e2f6d2d6c7b5ec6" : {
                "balance" : "0x0de0b6b3a7640000",
                "code" : "0x64017735940051600155",
                "nonce" : "0x00",
                "storage" : {
                }
            },
            "0x2adc25665018aa1fe0e6bc666dac8fc2697ff9ba" : {
                "balance" : "0x4563918253dab280",
                "code" : "",
                "nonce" : "0x00",
                "storage" : {
                }
            },
            "0xa94f5374fce5edbc8e2a8697c15331677e6ebf0b" : {
                "balance" : "0x0157b52857554a",
                "code" : "",
                "nonce" : "0x01",
                "storage" : {
                }
            }
        },
        "pre" : {
            "0x0f572e5295c57f15886f9b263e2f6d2d6c7b5ec6" : {
                "balance" : "0x0de0b6b3a7640000",
                "code" : "0x64017735940051600155",
                "nonce" : "0x00",
                "storage" : {
                }
            },
            "0xa94f5374fce5edbc8e2a8697c15331677e6ebf0b" : {
                "balance" : "0x0157b5373e07ca",
                "code" : "",
                "nonce" : "0x00",
                "storage" : {
                }
            }
        }
    },
    "mload32bitBound2_d0g1v0_Homestead" : {
        "_info" : {
            "comment" : "",
            "filledwith" : "cpp-1.3.0+commit.6e0ce939.Linux.g++",
            "lllcversion" : "Version: 0.4.18-develop.2017.9.25+commit.a72237f2.Linux.g++",
            "source" : "src/BlockchainTestsFiller/GeneralStateTests/stMemoryStressTest/mload32bitBound2_d0g1v0Filler.json",
            "sourceHash" : "0a35b71327115add2f9d95ab0bc7c6bbaa28c2c8ff954df587832e4239ef85da"
        },
        "blocks" : [
            {
                "blockHeader" : {
                    "bloom" : "0x00000000000000000000000000000000000000000000000000000000000000000000000000000000000000000000000000000000000000000000000000000000000000000000000000000000000000000000000000000000000000000000000000000000000000000000000000000000000000000000000000000000000000000000000000000000000000000000000000000000000000000000000000000000000000000000000000000000000000000000000000000000000000000000000000000000000000000000000000000000000000000000000000000000000000000000000000000000000000000000000000000000000000000000000000000000",
                    "coinbase" : "0x2adc25665018aa1fe0e6bc666dac8fc2697ff9ba",
                    "difficulty" : "0x020000",
                    "extraData" : "",
                    "gasLimit" : "0x225eebec75ab",
                    "gasUsed" : "0x0ee6b280",
                    "hash" : "0x49b94eadd84bdc448e06dc07d9ca882a78fce4c9aad947874dc90fdc4e843496",
                    "mixHash" : "0x5d9066b64bd25044d3ad97ffbdd8ba9c64dac5ac2268dc355d544c67c29cfc3f",
                    "nonce" : "0x23de212f89e2d261",
                    "number" : "0x01",
                    "parentHash" : "0x5cbbf8e6b1cd3382faffeb465c9a1ca8099b742cf85a1ab125abbea9d891517e",
                    "receiptTrie" : "0x2793fb640c53c21ac4b3108d55266f6e467e6128f71286ec537babfc296ab3d4",
                    "stateRoot" : "0x8995c5605ca9c3054658b41123c72dc45cdbe47800a8687b541dbdb106a14115",
                    "timestamp" : "0x03e8",
                    "transactionsTrie" : "0x2bc0479f585b924c6cfeaa8baf96036e35dbc5c5811970e0398de8666739585b",
                    "uncleHash" : "0x1dcc4de8dec75d7aab85b567b6ccd41ad312451b948a7413f0a142fd40d49347"
                },
                "rlp" : "0xf90265f901fca05cbbf8e6b1cd3382faffeb465c9a1ca8099b742cf85a1ab125abbea9d891517ea01dcc4de8dec75d7aab85b567b6ccd41ad312451b948a7413f0a142fd40d49347942adc25665018aa1fe0e6bc666dac8fc2697ff9baa08995c5605ca9c3054658b41123c72dc45cdbe47800a8687b541dbdb106a14115a02bc0479f585b924c6cfeaa8baf96036e35dbc5c5811970e0398de8666739585ba02793fb640c53c21ac4b3108d55266f6e467e6128f71286ec537babfc296ab3d4b9010000000000000000000000000000000000000000000000000000000000000000000000000000000000000000000000000000000000000000000000000000000000000000000000000000000000000000000000000000000000000000000000000000000000000000000000000000000000000000000000000000000000000000000000000000000000000000000000000000000000000000000000000000000000000000000000000000000000000000000000000000000000000000000000000000000000000000000000000000000000000000000000000000000000000000000000000000000000000000000000000000000000000000000000000000000000830200000186225eebec75ab840ee6b2808203e880a05d9066b64bd25044d3ad97ffbdd8ba9c64dac5ac2268dc355d544c67c29cfc3f8823de212f89e2d261f863f8618001840ee6b280940f572e5295c57f15886f9b263e2f6d2d6c7b5ec60a801ba0eebe8f6882b96fdbbd5f189299464c92416a657404cc3e7a84d3ac1090aef87aa06bb2fa80ca4f417aa4e12b955f470eab638c0733c5671b06b074f158acff8c57c0",
                "transactions" : [
                    {
                        "data" : "",
                        "gasLimit" : "0x0ee6b280",
                        "gasPrice" : "0x01",
                        "nonce" : "0x00",
                        "r" : "0xeebe8f6882b96fdbbd5f189299464c92416a657404cc3e7a84d3ac1090aef87a",
                        "s" : "0x6bb2fa80ca4f417aa4e12b955f470eab638c0733c5671b06b074f158acff8c57",
                        "to" : "0x0f572e5295c57f15886f9b263e2f6d2d6c7b5ec6",
                        "v" : "0x1b",
                        "value" : "0x0a"
                    }
                ],
                "uncleHeaders" : [
                ]
            }
        ],
        "genesisBlockHeader" : {
            "bloom" : "0x00000000000000000000000000000000000000000000000000000000000000000000000000000000000000000000000000000000000000000000000000000000000000000000000000000000000000000000000000000000000000000000000000000000000000000000000000000000000000000000000000000000000000000000000000000000000000000000000000000000000000000000000000000000000000000000000000000000000000000000000000000000000000000000000000000000000000000000000000000000000000000000000000000000000000000000000000000000000000000000000000000000000000000000000000000000",
            "coinbase" : "0x2adc25665018aa1fe0e6bc666dac8fc2697ff9ba",
            "difficulty" : "0x020000",
            "extraData" : "0x42",
            "gasLimit" : "0x225eebec75ab",
            "gasUsed" : "0x00",
            "hash" : "0x5cbbf8e6b1cd3382faffeb465c9a1ca8099b742cf85a1ab125abbea9d891517e",
            "mixHash" : "0x56e81f171bcc55a6ff8345e692c0f86e5b48e01b996cadc001622fb5e363b421",
            "nonce" : "0x0102030405060708",
            "number" : "0x00",
            "parentHash" : "0x0000000000000000000000000000000000000000000000000000000000000000",
            "receiptTrie" : "0x56e81f171bcc55a6ff8345e692c0f86e5b48e01b996cadc001622fb5e363b421",
            "stateRoot" : "0xccfd7955be8325c4499ff724ea941d5019e416a1d5dbcc2d68926389774ccb86",
            "timestamp" : "0x03b6",
            "transactionsTrie" : "0x56e81f171bcc55a6ff8345e692c0f86e5b48e01b996cadc001622fb5e363b421",
            "uncleHash" : "0x1dcc4de8dec75d7aab85b567b6ccd41ad312451b948a7413f0a142fd40d49347"
        },
        "genesisRLP" : "0xf901fdf901f8a00000000000000000000000000000000000000000000000000000000000000000a01dcc4de8dec75d7aab85b567b6ccd41ad312451b948a7413f0a142fd40d49347942adc25665018aa1fe0e6bc666dac8fc2697ff9baa0ccfd7955be8325c4499ff724ea941d5019e416a1d5dbcc2d68926389774ccb86a056e81f171bcc55a6ff8345e692c0f86e5b48e01b996cadc001622fb5e363b421a056e81f171bcc55a6ff8345e692c0f86e5b48e01b996cadc001622fb5e363b421b9010000000000000000000000000000000000000000000000000000000000000000000000000000000000000000000000000000000000000000000000000000000000000000000000000000000000000000000000000000000000000000000000000000000000000000000000000000000000000000000000000000000000000000000000000000000000000000000000000000000000000000000000000000000000000000000000000000000000000000000000000000000000000000000000000000000000000000000000000000000000000000000000000000000000000000000000000000000000000000000000000000000000000000000000000000000000830200008086225eebec75ab808203b642a056e81f171bcc55a6ff8345e692c0f86e5b48e01b996cadc001622fb5e363b421880102030405060708c0c0",
        "lastblockhash" : "0x49b94eadd84bdc448e06dc07d9ca882a78fce4c9aad947874dc90fdc4e843496",
        "network" : "Homestead",
        "postState" : {
            "0x0f572e5295c57f15886f9b263e2f6d2d6c7b5ec6" : {
                "balance" : "0x0de0b6b3a7640000",
                "code" : "0x64017735940051600155",
                "nonce" : "0x00",
                "storage" : {
                }
            },
            "0x2adc25665018aa1fe0e6bc666dac8fc2697ff9ba" : {
                "balance" : "0x4563918253dab280",
                "code" : "",
                "nonce" : "0x00",
                "storage" : {
                }
            },
            "0xa94f5374fce5edbc8e2a8697c15331677e6ebf0b" : {
                "balance" : "0x0157b52857554a",
                "code" : "",
                "nonce" : "0x01",
                "storage" : {
                }
            }
        },
        "pre" : {
            "0x0f572e5295c57f15886f9b263e2f6d2d6c7b5ec6" : {
                "balance" : "0x0de0b6b3a7640000",
                "code" : "0x64017735940051600155",
                "nonce" : "0x00",
                "storage" : {
                }
            },
            "0xa94f5374fce5edbc8e2a8697c15331677e6ebf0b" : {
                "balance" : "0x0157b5373e07ca",
                "code" : "",
                "nonce" : "0x00",
                "storage" : {
                }
            }
        }
    }
}