{
    "mload32bitBound_return2_d0g1v0_Byzantium" : {
        "_info" : {
            "comment" : "",
            "filledwith" : "cpp-1.3.0+commit.6e0ce939.Linux.g++",
            "lllcversion" : "Version: 0.4.18-develop.2017.9.25+commit.a72237f2.Linux.g++",
            "source" : "src/BlockchainTestsFiller/GeneralStateTests/stMemoryStressTest/mload32bitBound_return2_d0g1v0Filler.json",
            "sourceHash" : "a49ac29b3e127b5e0625dfcbc6b938b9402075d93ac37110ae66267432f937b5"
        },
        "blocks" : [
            {
                "blockHeader" : {
                    "bloom" : "0x00000000000000000000000000000000000000000000000000000000000000000000000000000000000000000000000000000000000000000000000000000000000000000000000000000000000000000000000000000000000000000000000000000000000000000000000000000000000000000000000000000000000000000000000000000000000000000000000000000000000000000000000000000000000000000000000000000000000000000000000000000000000000000000000000000000000000000000000000000000000000000000000000000000000000000000000000000000000000000000000000000000000000000000000000000000",
                    "coinbase" : "0x2adc25665018aa1fe0e6bc666dac8fc2697ff9ba",
                    "difficulty" : "0x020000",
                    "extraData" : "",
                    "gasLimit" : "0x027101391c9c29c0",
                    "gasUsed" : "0x0ee6b280",
                    "hash" : "0xa2b2d905b826f68dceeeee96702485ba461f307be774e63f5a07de39d5cb46e1",
                    "mixHash" : "0x4f1038e48fe6169c3d24f5f73e932377a2e4c756fc1f6a721b04d692f6660222",
                    "nonce" : "0x4b1511274f27fe4b",
                    "number" : "0x01",
                    "parentHash" : "0xbfc35b1139326881645595133b5047cd1e365a6a77a80955bdf7fff757a50f8b",
                    "receiptTrie" : "0x27408083641cf20cfde86cd87cd57bf10c741d7553352ca96118e31ab8ceb9ce",
                    "stateRoot" : "0x7845c313e695c011ec2e4f12c0a3139853387bb6faa332b3be82567abf2de8a7",
                    "timestamp" : "0x03e8",
                    "transactionsTrie" : "0x5541d17018d63fd9e66e96c406287f54f7ae7adc2dd235c272920763c0fadb3c",
                    "uncleHash" : "0x1dcc4de8dec75d7aab85b567b6ccd41ad312451b948a7413f0a142fd40d49347"
                },
                "rlp" : "0xf90267f901fea0bfc35b1139326881645595133b5047cd1e365a6a77a80955bdf7fff757a50f8ba01dcc4de8dec75d7aab85b567b6ccd41ad312451b948a7413f0a142fd40d49347942adc25665018aa1fe0e6bc666dac8fc2697ff9baa07845c313e695c011ec2e4f12c0a3139853387bb6faa332b3be82567abf2de8a7a05541d17018d63fd9e66e96c406287f54f7ae7adc2dd235c272920763c0fadb3ca027408083641cf20cfde86cd87cd57bf10c741d7553352ca96118e31ab8ceb9ceb9010000000000000000000000000000000000000000000000000000000000000000000000000000000000000000000000000000000000000000000000000000000000000000000000000000000000000000000000000000000000000000000000000000000000000000000000000000000000000000000000000000000000000000000000000000000000000000000000000000000000000000000000000000000000000000000000000000000000000000000000000000000000000000000000000000000000000000000000000000000000000000000000000000000000000000000000000000000000000000000000000000000000000000000000000000000000830200000188027101391c9c29c0840ee6b2808203e880a04f1038e48fe6169c3d24f5f73e932377a2e4c756fc1f6a721b04d692f6660222884b1511274f27fe4bf863f8618001840ee6b280940f572e5295c57f15886f9b263e2f6d2d6c7b5ec680801ca0d613ec50613fe382240f7879cf47a3f2b9f25420125f21c7ebde1461b7c05bd1a05f91ad651b06a2aa903199684a7385e9dc60c60a9d29dd1da6a7de177034f3a8c0",
                "transactions" : [
                    {
                        "data" : "",
                        "gasLimit" : "0x0ee6b280",
                        "gasPrice" : "0x01",
                        "nonce" : "0x00",
                        "r" : "0xd613ec50613fe382240f7879cf47a3f2b9f25420125f21c7ebde1461b7c05bd1",
                        "s" : "0x5f91ad651b06a2aa903199684a7385e9dc60c60a9d29dd1da6a7de177034f3a8",
                        "to" : "0x0f572e5295c57f15886f9b263e2f6d2d6c7b5ec6",
                        "v" : "0x1c",
                        "value" : "0x00"
                    }
                ],
                "uncleHeaders" : [
                ]
            }
        ],
        "genesisBlockHeader" : {
            "bloom" : "0x00000000000000000000000000000000000000000000000000000000000000000000000000000000000000000000000000000000000000000000000000000000000000000000000000000000000000000000000000000000000000000000000000000000000000000000000000000000000000000000000000000000000000000000000000000000000000000000000000000000000000000000000000000000000000000000000000000000000000000000000000000000000000000000000000000000000000000000000000000000000000000000000000000000000000000000000000000000000000000000000000000000000000000000000000000000",
            "coinbase" : "0x2adc25665018aa1fe0e6bc666dac8fc2697ff9ba",
            "difficulty" : "0x020000",
            "extraData" : "0x42",
            "gasLimit" : "0x027101391c9c29c0",
            "gasUsed" : "0x00",
            "hash" : "0xbfc35b1139326881645595133b5047cd1e365a6a77a80955bdf7fff757a50f8b",
            "mixHash" : "0x56e81f171bcc55a6ff8345e692c0f86e5b48e01b996cadc001622fb5e363b421",
            "nonce" : "0x0102030405060708",
            "number" : "0x00",
            "parentHash" : "0x0000000000000000000000000000000000000000000000000000000000000000",
            "receiptTrie" : "0x56e81f171bcc55a6ff8345e692c0f86e5b48e01b996cadc001622fb5e363b421",
            "stateRoot" : "0x9d4ca208caf95c3c049bc641dc7d029e48e5862ccd23148b64f2eec2ddefd66d",
            "timestamp" : "0x03b6",
            "transactionsTrie" : "0x56e81f171bcc55a6ff8345e692c0f86e5b48e01b996cadc001622fb5e363b421",
            "uncleHash" : "0x1dcc4de8dec75d7aab85b567b6ccd41ad312451b948a7413f0a142fd40d49347"
        },
        "genesisRLP" : "0xf901fff901faa00000000000000000000000000000000000000000000000000000000000000000a01dcc4de8dec75d7aab85b567b6ccd41ad312451b948a7413f0a142fd40d49347942adc25665018aa1fe0e6bc666dac8fc2697ff9baa09d4ca208caf95c3c049bc641dc7d029e48e5862ccd23148b64f2eec2ddefd66da056e81f171bcc55a6ff8345e692c0f86e5b48e01b996cadc001622fb5e363b421a056e81f171bcc55a6ff8345e692c0f86e5b48e01b996cadc001622fb5e363b421b9010000000000000000000000000000000000000000000000000000000000000000000000000000000000000000000000000000000000000000000000000000000000000000000000000000000000000000000000000000000000000000000000000000000000000000000000000000000000000000000000000000000000000000000000000000000000000000000000000000000000000000000000000000000000000000000000000000000000000000000000000000000000000000000000000000000000000000000000000000000000000000000000000000000000000000000000000000000000000000000000000000000000000000000000000000000000830200008088027101391c9c29c0808203b642a056e81f171bcc55a6ff8345e692c0f86e5b48e01b996cadc001622fb5e363b421880102030405060708c0c0",
        "lastblockhash" : "0xa2b2d905b826f68dceeeee96702485ba461f307be774e63f5a07de39d5cb46e1",
        "network" : "Byzantium",
        "postState" : {
            "0x0f572e5295c57f15886f9b263e2f6d2d6c7b5ec6" : {
                "balance" : "0x0de0b6b3a7640000",
                "code" : "0x600160005263ffffffff6000f3",
                "nonce" : "0x00",
                "storage" : {
                }
            },
            "0x2adc25665018aa1fe0e6bc666dac8fc2697ff9ba" : {
                "balance" : "0x29a2241b0512b280",
                "code" : "",
                "nonce" : "0x00",
                "storage" : {
                }
            },
            "0xa94f5374fce5edbc8e2a8697c15331677e6ebf0b" : {
                "balance" : "0x186a0c3b0f32ef00",
                "code" : "",
                "nonce" : "0x01",
                "storage" : {
                }
            }
        },
        "pre" : {
            "0x0f572e5295c57f15886f9b263e2f6d2d6c7b5ec6" : {
                "balance" : "0x0de0b6b3a7640000",
                "code" : "0x600160005263ffffffff6000f3",
                "nonce" : "0x00",
                "storage" : {
                }
            },
            "0xa94f5374fce5edbc8e2a8697c15331677e6ebf0b" : {
                "balance" : "0x186a0c3b1e19a180",
                "code" : "",
                "nonce" : "0x00",
                "storage" : {
                }
            }
        }
    },
    "mload32bitBound_return2_d0g1v0_EIP150" : {
        "_info" : {
            "comment" : "",
            "filledwith" : "cpp-1.3.0+commit.6e0ce939.Linux.g++",
            "lllcversion" : "Version: 0.4.18-develop.2017.9.25+commit.a72237f2.Linux.g++",
            "source" : "src/BlockchainTestsFiller/GeneralStateTests/stMemoryStressTest/mload32bitBound_return2_d0g1v0Filler.json",
            "sourceHash" : "a49ac29b3e127b5e0625dfcbc6b938b9402075d93ac37110ae66267432f937b5"
        },
        "blocks" : [
            {
                "blockHeader" : {
                    "bloom" : "0x00000000000000000000000000000000000000000000000000000000000000000000000000000000000000000000000000000000000000000000000000000000000000000000000000000000000000000000000000000000000000000000000000000000000000000000000000000000000000000000000000000000000000000000000000000000000000000000000000000000000000000000000000000000000000000000000000000000000000000000000000000000000000000000000000000000000000000000000000000000000000000000000000000000000000000000000000000000000000000000000000000000000000000000000000000000",
                    "coinbase" : "0x2adc25665018aa1fe0e6bc666dac8fc2697ff9ba",
                    "difficulty" : "0x020000",
                    "extraData" : "",
                    "gasLimit" : "0x027101391c9c29c0",
                    "gasUsed" : "0x0ee6b280",
                    "hash" : "0xcd7cf1df12029eb476309229783c40a583cf2846468cca539ad0f5772065638d",
                    "mixHash" : "0xfd11af5337cfa8639a443dc1daff615661556d54e98f4b45f17dfc7291f53fd6",
                    "nonce" : "0xad8fcc3dffe6fd28",
                    "number" : "0x01",
                    "parentHash" : "0xbfc35b1139326881645595133b5047cd1e365a6a77a80955bdf7fff757a50f8b",
                    "receiptTrie" : "0x28b1a34d1836818c5cb064592341674fc5bf0ed527b0283e3db4ba0e24910b5c",
                    "stateRoot" : "0xa1050f559637562758fbf954c7f05bd98d6b0b8fb23c69c26f99ec22c3121a44",
                    "timestamp" : "0x03e8",
                    "transactionsTrie" : "0x5541d17018d63fd9e66e96c406287f54f7ae7adc2dd235c272920763c0fadb3c",
                    "uncleHash" : "0x1dcc4de8dec75d7aab85b567b6ccd41ad312451b948a7413f0a142fd40d49347"
                },
                "rlp" : "0xf90267f901fea0bfc35b1139326881645595133b5047cd1e365a6a77a80955bdf7fff757a50f8ba01dcc4de8dec75d7aab85b567b6ccd41ad312451b948a7413f0a142fd40d49347942adc25665018aa1fe0e6bc666dac8fc2697ff9baa0a1050f559637562758fbf954c7f05bd98d6b0b8fb23c69c26f99ec22c3121a44a05541d17018d63fd9e66e96c406287f54f7ae7adc2dd235c272920763c0fadb3ca028b1a34d1836818c5cb064592341674fc5bf0ed527b0283e3db4ba0e24910b5cb9010000000000000000000000000000000000000000000000000000000000000000000000000000000000000000000000000000000000000000000000000000000000000000000000000000000000000000000000000000000000000000000000000000000000000000000000000000000000000000000000000000000000000000000000000000000000000000000000000000000000000000000000000000000000000000000000000000000000000000000000000000000000000000000000000000000000000000000000000000000000000000000000000000000000000000000000000000000000000000000000000000000000000000000000000000000000830200000188027101391c9c29c0840ee6b2808203e880a0fd11af5337cfa8639a443dc1daff615661556d54e98f4b45f17dfc7291f53fd688ad8fcc3dffe6fd28f863f8618001840ee6b280940f572e5295c57f15886f9b263e2f6d2d6c7b5ec680801ca0d613ec50613fe382240f7879cf47a3f2b9f25420125f21c7ebde1461b7c05bd1a05f91ad651b06a2aa903199684a7385e9dc60c60a9d29dd1da6a7de177034f3a8c0",
                "transactions" : [
                    {
                        "data" : "",
                        "gasLimit" : "0x0ee6b280",
                        "gasPrice" : "0x01",
                        "nonce" : "0x00",
                        "r" : "0xd613ec50613fe382240f7879cf47a3f2b9f25420125f21c7ebde1461b7c05bd1",
                        "s" : "0x5f91ad651b06a2aa903199684a7385e9dc60c60a9d29dd1da6a7de177034f3a8",
                        "to" : "0x0f572e5295c57f15886f9b263e2f6d2d6c7b5ec6",
                        "v" : "0x1c",
                        "value" : "0x00"
                    }
                ],
                "uncleHeaders" : [
                ]
            }
        ],
        "genesisBlockHeader" : {
            "bloom" : "0x00000000000000000000000000000000000000000000000000000000000000000000000000000000000000000000000000000000000000000000000000000000000000000000000000000000000000000000000000000000000000000000000000000000000000000000000000000000000000000000000000000000000000000000000000000000000000000000000000000000000000000000000000000000000000000000000000000000000000000000000000000000000000000000000000000000000000000000000000000000000000000000000000000000000000000000000000000000000000000000000000000000000000000000000000000000",
            "coinbase" : "0x2adc25665018aa1fe0e6bc666dac8fc2697ff9ba",
            "difficulty" : "0x020000",
            "extraData" : "0x42",
            "gasLimit" : "0x027101391c9c29c0",
            "gasUsed" : "0x00",
            "hash" : "0xbfc35b1139326881645595133b5047cd1e365a6a77a80955bdf7fff757a50f8b",
            "mixHash" : "0x56e81f171bcc55a6ff8345e692c0f86e5b48e01b996cadc001622fb5e363b421",
            "nonce" : "0x0102030405060708",
            "number" : "0x00",
            "parentHash" : "0x0000000000000000000000000000000000000000000000000000000000000000",
            "receiptTrie" : "0x56e81f171bcc55a6ff8345e692c0f86e5b48e01b996cadc001622fb5e363b421",
            "stateRoot" : "0x9d4ca208caf95c3c049bc641dc7d029e48e5862ccd23148b64f2eec2ddefd66d",
            "timestamp" : "0x03b6",
            "transactionsTrie" : "0x56e81f171bcc55a6ff8345e692c0f86e5b48e01b996cadc001622fb5e363b421",
            "uncleHash" : "0x1dcc4de8dec75d7aab85b567b6ccd41ad312451b948a7413f0a142fd40d49347"
        },
        "genesisRLP" : "0xf901fff901faa00000000000000000000000000000000000000000000000000000000000000000a01dcc4de8dec75d7aab85b567b6ccd41ad312451b948a7413f0a142fd40d49347942adc25665018aa1fe0e6bc666dac8fc2697ff9baa09d4ca208caf95c3c049bc641dc7d029e48e5862ccd23148b64f2eec2ddefd66da056e81f171bcc55a6ff8345e692c0f86e5b48e01b996cadc001622fb5e363b421a056e81f171bcc55a6ff8345e692c0f86e5b48e01b996cadc001622fb5e363b421b9010000000000000000000000000000000000000000000000000000000000000000000000000000000000000000000000000000000000000000000000000000000000000000000000000000000000000000000000000000000000000000000000000000000000000000000000000000000000000000000000000000000000000000000000000000000000000000000000000000000000000000000000000000000000000000000000000000000000000000000000000000000000000000000000000000000000000000000000000000000000000000000000000000000000000000000000000000000000000000000000000000000000000000000000000000000000830200008088027101391c9c29c0808203b642a056e81f171bcc55a6ff8345e692c0f86e5b48e01b996cadc001622fb5e363b421880102030405060708c0c0",
        "lastblockhash" : "0xcd7cf1df12029eb476309229783c40a583cf2846468cca539ad0f5772065638d",
        "network" : "EIP150",
        "postState" : {
            "0x0f572e5295c57f15886f9b263e2f6d2d6c7b5ec6" : {
                "balance" : "0x0de0b6b3a7640000",
                "code" : "0x600160005263ffffffff6000f3",
                "nonce" : "0x00",
                "storage" : {
                }
            },
            "0x2adc25665018aa1fe0e6bc666dac8fc2697ff9ba" : {
                "balance" : "0x4563918253dab280",
                "code" : "",
                "nonce" : "0x00",
                "storage" : {
                }
            },
            "0xa94f5374fce5edbc8e2a8697c15331677e6ebf0b" : {
                "balance" : "0x186a0c3b0f32ef00",
                "code" : "",
                "nonce" : "0x01",
                "storage" : {
                }
            }
        },
        "pre" : {
            "0x0f572e5295c57f15886f9b263e2f6d2d6c7b5ec6" : {
                "balance" : "0x0de0b6b3a7640000",
                "code" : "0x600160005263ffffffff6000f3",
                "nonce" : "0x00",
                "storage" : {
                }
            },
            "0xa94f5374fce5edbc8e2a8697c15331677e6ebf0b" : {
                "balance" : "0x186a0c3b1e19a180",
                "code" : "",
                "nonce" : "0x00",
                "storage" : {
                }
            }
        }
    },
    "mload32bitBound_return2_d0g1v0_EIP158" : {
        "_info" : {
            "comment" : "",
            "filledwith" : "cpp-1.3.0+commit.6e0ce939.Linux.g++",
            "lllcversion" : "Version: 0.4.18-develop.2017.9.25+commit.a72237f2.Linux.g++",
            "source" : "src/BlockchainTestsFiller/GeneralStateTests/stMemoryStressTest/mload32bitBound_return2_d0g1v0Filler.json",
            "sourceHash" : "a49ac29b3e127b5e0625dfcbc6b938b9402075d93ac37110ae66267432f937b5"
        },
        "blocks" : [
            {
                "blockHeader" : {
                    "bloom" : "0x00000000000000000000000000000000000000000000000000000000000000000000000000000000000000000000000000000000000000000000000000000000000000000000000000000000000000000000000000000000000000000000000000000000000000000000000000000000000000000000000000000000000000000000000000000000000000000000000000000000000000000000000000000000000000000000000000000000000000000000000000000000000000000000000000000000000000000000000000000000000000000000000000000000000000000000000000000000000000000000000000000000000000000000000000000000",
                    "coinbase" : "0x2adc25665018aa1fe0e6bc666dac8fc2697ff9ba",
                    "difficulty" : "0x020000",
                    "extraData" : "",
                    "gasLimit" : "0x027101391c9c29c0",
                    "gasUsed" : "0x0ee6b280",
                    "hash" : "0x77a18ee068db835d3f5201918d1721dd45a332f18f9c5516fef0c60a26f1101d",
                    "mixHash" : "0x8d8164b3e7b3ce5881bf737f3cb31f57cd9f4530e75241f467fc0bfe580c9726",
                    "nonce" : "0xa93f3f92ee25c0d1",
                    "number" : "0x01",
                    "parentHash" : "0xbfc35b1139326881645595133b5047cd1e365a6a77a80955bdf7fff757a50f8b",
                    "receiptTrie" : "0x28b1a34d1836818c5cb064592341674fc5bf0ed527b0283e3db4ba0e24910b5c",
                    "stateRoot" : "0xa1050f559637562758fbf954c7f05bd98d6b0b8fb23c69c26f99ec22c3121a44",
                    "timestamp" : "0x03e8",
                    "transactionsTrie" : "0x5541d17018d63fd9e66e96c406287f54f7ae7adc2dd235c272920763c0fadb3c",
                    "uncleHash" : "0x1dcc4de8dec75d7aab85b567b6ccd41ad312451b948a7413f0a142fd40d49347"
                },
                "rlp" : "0xf90267f901fea0bfc35b1139326881645595133b5047cd1e365a6a77a80955bdf7fff757a50f8ba01dcc4de8dec75d7aab85b567b6ccd41ad312451b948a7413f0a142fd40d49347942adc25665018aa1fe0e6bc666dac8fc2697ff9baa0a1050f559637562758fbf954c7f05bd98d6b0b8fb23c69c26f99ec22c3121a44a05541d17018d63fd9e66e96c406287f54f7ae7adc2dd235c272920763c0fadb3ca028b1a34d1836818c5cb064592341674fc5bf0ed527b0283e3db4ba0e24910b5cb9010000000000000000000000000000000000000000000000000000000000000000000000000000000000000000000000000000000000000000000000000000000000000000000000000000000000000000000000000000000000000000000000000000000000000000000000000000000000000000000000000000000000000000000000000000000000000000000000000000000000000000000000000000000000000000000000000000000000000000000000000000000000000000000000000000000000000000000000000000000000000000000000000000000000000000000000000000000000000000000000000000000000000000000000000000000000830200000188027101391c9c29c0840ee6b2808203e880a08d8164b3e7b3ce5881bf737f3cb31f57cd9f4530e75241f467fc0bfe580c972688a93f3f92ee25c0d1f863f8618001840ee6b280940f572e5295c57f15886f9b263e2f6d2d6c7b5ec680801ca0d613ec50613fe382240f7879cf47a3f2b9f25420125f21c7ebde1461b7c05bd1a05f91ad651b06a2aa903199684a7385e9dc60c60a9d29dd1da6a7de177034f3a8c0",
                "transactions" : [
                    {
                        "data" : "",
                        "gasLimit" : "0x0ee6b280",
                        "gasPrice" : "0x01",
                        "nonce" : "0x00",
                        "r" : "0xd613ec50613fe382240f7879cf47a3f2b9f25420125f21c7ebde1461b7c05bd1",
                        "s" : "0x5f91ad651b06a2aa903199684a7385e9dc60c60a9d29dd1da6a7de177034f3a8",
                        "to" : "0x0f572e5295c57f15886f9b263e2f6d2d6c7b5ec6",
                        "v" : "0x1c",
                        "value" : "0x00"
                    }
                ],
                "uncleHeaders" : [
                ]
            }
        ],
        "genesisBlockHeader" : {
            "bloom" : "0x00000000000000000000000000000000000000000000000000000000000000000000000000000000000000000000000000000000000000000000000000000000000000000000000000000000000000000000000000000000000000000000000000000000000000000000000000000000000000000000000000000000000000000000000000000000000000000000000000000000000000000000000000000000000000000000000000000000000000000000000000000000000000000000000000000000000000000000000000000000000000000000000000000000000000000000000000000000000000000000000000000000000000000000000000000000",
            "coinbase" : "0x2adc25665018aa1fe0e6bc666dac8fc2697ff9ba",
            "difficulty" : "0x020000",
            "extraData" : "0x42",
            "gasLimit" : "0x027101391c9c29c0",
            "gasUsed" : "0x00",
            "hash" : "0xbfc35b1139326881645595133b5047cd1e365a6a77a80955bdf7fff757a50f8b",
            "mixHash" : "0x56e81f171bcc55a6ff8345e692c0f86e5b48e01b996cadc001622fb5e363b421",
            "nonce" : "0x0102030405060708",
            "number" : "0x00",
            "parentHash" : "0x0000000000000000000000000000000000000000000000000000000000000000",
            "receiptTrie" : "0x56e81f171bcc55a6ff8345e692c0f86e5b48e01b996cadc001622fb5e363b421",
            "stateRoot" : "0x9d4ca208caf95c3c049bc641dc7d029e48e5862ccd23148b64f2eec2ddefd66d",
            "timestamp" : "0x03b6",
            "transactionsTrie" : "0x56e81f171bcc55a6ff8345e692c0f86e5b48e01b996cadc001622fb5e363b421",
            "uncleHash" : "0x1dcc4de8dec75d7aab85b567b6ccd41ad312451b948a7413f0a142fd40d49347"
        },
        "genesisRLP" : "0xf901fff901faa00000000000000000000000000000000000000000000000000000000000000000a01dcc4de8dec75d7aab85b567b6ccd41ad312451b948a7413f0a142fd40d49347942adc25665018aa1fe0e6bc666dac8fc2697ff9baa09d4ca208caf95c3c049bc641dc7d029e48e5862ccd23148b64f2eec2ddefd66da056e81f171bcc55a6ff8345e692c0f86e5b48e01b996cadc001622fb5e363b421a056e81f171bcc55a6ff8345e692c0f86e5b48e01b996cadc001622fb5e363b421b9010000000000000000000000000000000000000000000000000000000000000000000000000000000000000000000000000000000000000000000000000000000000000000000000000000000000000000000000000000000000000000000000000000000000000000000000000000000000000000000000000000000000000000000000000000000000000000000000000000000000000000000000000000000000000000000000000000000000000000000000000000000000000000000000000000000000000000000000000000000000000000000000000000000000000000000000000000000000000000000000000000000000000000000000000000000000830200008088027101391c9c29c0808203b642a056e81f171bcc55a6ff8345e692c0f86e5b48e01b996cadc001622fb5e363b421880102030405060708c0c0",
        "lastblockhash" : "0x77a18ee068db835d3f5201918d1721dd45a332f18f9c5516fef0c60a26f1101d",
        "network" : "EIP158",
        "postState" : {
            "0x0f572e5295c57f15886f9b263e2f6d2d6c7b5ec6" : {
                "balance" : "0x0de0b6b3a7640000",
                "code" : "0x600160005263ffffffff6000f3",
                "nonce" : "0x00",
                "storage" : {
                }
            },
            "0x2adc25665018aa1fe0e6bc666dac8fc2697ff9ba" : {
                "balance" : "0x4563918253dab280",
                "code" : "",
                "nonce" : "0x00",
                "storage" : {
                }
            },
            "0xa94f5374fce5edbc8e2a8697c15331677e6ebf0b" : {
                "balance" : "0x186a0c3b0f32ef00",
                "code" : "",
                "nonce" : "0x01",
                "storage" : {
                }
            }
        },
        "pre" : {
            "0x0f572e5295c57f15886f9b263e2f6d2d6c7b5ec6" : {
                "balance" : "0x0de0b6b3a7640000",
                "code" : "0x600160005263ffffffff6000f3",
                "nonce" : "0x00",
                "storage" : {
                }
            },
            "0xa94f5374fce5edbc8e2a8697c15331677e6ebf0b" : {
                "balance" : "0x186a0c3b1e19a180",
                "code" : "",
                "nonce" : "0x00",
                "storage" : {
                }
            }
        }
    },
    "mload32bitBound_return2_d0g1v0_Frontier" : {
        "_info" : {
            "comment" : "",
            "filledwith" : "cpp-1.3.0+commit.6e0ce939.Linux.g++",
            "lllcversion" : "Version: 0.4.18-develop.2017.9.25+commit.a72237f2.Linux.g++",
            "source" : "src/BlockchainTestsFiller/GeneralStateTests/stMemoryStressTest/mload32bitBound_return2_d0g1v0Filler.json",
            "sourceHash" : "a49ac29b3e127b5e0625dfcbc6b938b9402075d93ac37110ae66267432f937b5"
        },
        "blocks" : [
            {
                "blockHeader" : {
                    "bloom" : "0x00000000000000000000000000000000000000000000000000000000000000000000000000000000000000000000000000000000000000000000000000000000000000000000000000000000000000000000000000000000000000000000000000000000000000000000000000000000000000000000000000000000000000000000000000000000000000000000000000000000000000000000000000000000000000000000000000000000000000000000000000000000000000000000000000000000000000000000000000000000000000000000000000000000000000000000000000000000000000000000000000000000000000000000000000000000",
                    "coinbase" : "0x2adc25665018aa1fe0e6bc666dac8fc2697ff9ba",
                    "difficulty" : "0x020000",
                    "extraData" : "",
                    "gasLimit" : "0x027101391c9c29c0",
                    "gasUsed" : "0x0ee6b280",
                    "hash" : "0xddbfb03c0eab6efc8d47320b4d6f76643c4616136d6900e6f2bbb6fc65707221",
                    "mixHash" : "0x10295efeab055f5d7de760d7daebf20b3d8b7b90195dae2ad257348bd951d9e2",
                    "nonce" : "0xf53048b96b4fc5da",
                    "number" : "0x01",
                    "parentHash" : "0xbfc35b1139326881645595133b5047cd1e365a6a77a80955bdf7fff757a50f8b",
                    "receiptTrie" : "0x28b1a34d1836818c5cb064592341674fc5bf0ed527b0283e3db4ba0e24910b5c",
                    "stateRoot" : "0xa1050f559637562758fbf954c7f05bd98d6b0b8fb23c69c26f99ec22c3121a44",
                    "timestamp" : "0x03e8",
                    "transactionsTrie" : "0x5541d17018d63fd9e66e96c406287f54f7ae7adc2dd235c272920763c0fadb3c",
                    "uncleHash" : "0x1dcc4de8dec75d7aab85b567b6ccd41ad312451b948a7413f0a142fd40d49347"
                },
                "rlp" : "0xf90267f901fea0bfc35b1139326881645595133b5047cd1e365a6a77a80955bdf7fff757a50f8ba01dcc4de8dec75d7aab85b567b6ccd41ad312451b948a7413f0a142fd40d49347942adc25665018aa1fe0e6bc666dac8fc2697ff9baa0a1050f559637562758fbf954c7f05bd98d6b0b8fb23c69c26f99ec22c3121a44a05541d17018d63fd9e66e96c406287f54f7ae7adc2dd235c272920763c0fadb3ca028b1a34d1836818c5cb064592341674fc5bf0ed527b0283e3db4ba0e24910b5cb9010000000000000000000000000000000000000000000000000000000000000000000000000000000000000000000000000000000000000000000000000000000000000000000000000000000000000000000000000000000000000000000000000000000000000000000000000000000000000000000000000000000000000000000000000000000000000000000000000000000000000000000000000000000000000000000000000000000000000000000000000000000000000000000000000000000000000000000000000000000000000000000000000000000000000000000000000000000000000000000000000000000000000000000000000000000000830200000188027101391c9c29c0840ee6b2808203e880a010295efeab055f5d7de760d7daebf20b3d8b7b90195dae2ad257348bd951d9e288f53048b96b4fc5daf863f8618001840ee6b280940f572e5295c57f15886f9b263e2f6d2d6c7b5ec680801ca0d613ec50613fe382240f7879cf47a3f2b9f25420125f21c7ebde1461b7c05bd1a05f91ad651b06a2aa903199684a7385e9dc60c60a9d29dd1da6a7de177034f3a8c0",
                "transactions" : [
                    {
                        "data" : "",
                        "gasLimit" : "0x0ee6b280",
                        "gasPrice" : "0x01",
                        "nonce" : "0x00",
                        "r" : "0xd613ec50613fe382240f7879cf47a3f2b9f25420125f21c7ebde1461b7c05bd1",
                        "s" : "0x5f91ad651b06a2aa903199684a7385e9dc60c60a9d29dd1da6a7de177034f3a8",
                        "to" : "0x0f572e5295c57f15886f9b263e2f6d2d6c7b5ec6",
                        "v" : "0x1c",
                        "value" : "0x00"
                    }
                ],
                "uncleHeaders" : [
                ]
            }
        ],
        "genesisBlockHeader" : {
            "bloom" : "0x00000000000000000000000000000000000000000000000000000000000000000000000000000000000000000000000000000000000000000000000000000000000000000000000000000000000000000000000000000000000000000000000000000000000000000000000000000000000000000000000000000000000000000000000000000000000000000000000000000000000000000000000000000000000000000000000000000000000000000000000000000000000000000000000000000000000000000000000000000000000000000000000000000000000000000000000000000000000000000000000000000000000000000000000000000000",
            "coinbase" : "0x2adc25665018aa1fe0e6bc666dac8fc2697ff9ba",
            "difficulty" : "0x020000",
            "extraData" : "0x42",
            "gasLimit" : "0x027101391c9c29c0",
            "gasUsed" : "0x00",
            "hash" : "0xbfc35b1139326881645595133b5047cd1e365a6a77a80955bdf7fff757a50f8b",
            "mixHash" : "0x56e81f171bcc55a6ff8345e692c0f86e5b48e01b996cadc001622fb5e363b421",
            "nonce" : "0x0102030405060708",
            "number" : "0x00",
            "parentHash" : "0x0000000000000000000000000000000000000000000000000000000000000000",
            "receiptTrie" : "0x56e81f171bcc55a6ff8345e692c0f86e5b48e01b996cadc001622fb5e363b421",
            "stateRoot" : "0x9d4ca208caf95c3c049bc641dc7d029e48e5862ccd23148b64f2eec2ddefd66d",
            "timestamp" : "0x03b6",
            "transactionsTrie" : "0x56e81f171bcc55a6ff8345e692c0f86e5b48e01b996cadc001622fb5e363b421",
            "uncleHash" : "0x1dcc4de8dec75d7aab85b567b6ccd41ad312451b948a7413f0a142fd40d49347"
        },
        "genesisRLP" : "0xf901fff901faa00000000000000000000000000000000000000000000000000000000000000000a01dcc4de8dec75d7aab85b567b6ccd41ad312451b948a7413f0a142fd40d49347942adc25665018aa1fe0e6bc666dac8fc2697ff9baa09d4ca208caf95c3c049bc641dc7d029e48e5862ccd23148b64f2eec2ddefd66da056e81f171bcc55a6ff8345e692c0f86e5b48e01b996cadc001622fb5e363b421a056e81f171bcc55a6ff8345e692c0f86e5b48e01b996cadc001622fb5e363b421b9010000000000000000000000000000000000000000000000000000000000000000000000000000000000000000000000000000000000000000000000000000000000000000000000000000000000000000000000000000000000000000000000000000000000000000000000000000000000000000000000000000000000000000000000000000000000000000000000000000000000000000000000000000000000000000000000000000000000000000000000000000000000000000000000000000000000000000000000000000000000000000000000000000000000000000000000000000000000000000000000000000000000000000000000000000000000830200008088027101391c9c29c0808203b642a056e81f171bcc55a6ff8345e692c0f86e5b48e01b996cadc001622fb5e363b421880102030405060708c0c0",
        "lastblockhash" : "0xddbfb03c0eab6efc8d47320b4d6f76643c4616136d6900e6f2bbb6fc65707221",
        "network" : "Frontier",
        "postState" : {
            "0x0f572e5295c57f15886f9b263e2f6d2d6c7b5ec6" : {
                "balance" : "0x0de0b6b3a7640000",
                "code" : "0x600160005263ffffffff6000f3",
                "nonce" : "0x00",
                "storage" : {
                }
            },
            "0x2adc25665018aa1fe0e6bc666dac8fc2697ff9ba" : {
                "balance" : "0x4563918253dab280",
                "code" : "",
                "nonce" : "0x00",
                "storage" : {
                }
            },
            "0xa94f5374fce5edbc8e2a8697c15331677e6ebf0b" : {
                "balance" : "0x186a0c3b0f32ef00",
                "code" : "",
                "nonce" : "0x01",
                "storage" : {
                }
            }
        },
        "pre" : {
            "0x0f572e5295c57f15886f9b263e2f6d2d6c7b5ec6" : {
                "balance" : "0x0de0b6b3a7640000",
                "code" : "0x600160005263ffffffff6000f3",
                "nonce" : "0x00",
                "storage" : {
                }
            },
            "0xa94f5374fce5edbc8e2a8697c15331677e6ebf0b" : {
                "balance" : "0x186a0c3b1e19a180",
                "code" : "",
                "nonce" : "0x00",
                "storage" : {
                }
            }
        }
    },
    "mload32bitBound_return2_d0g1v0_Homestead" : {
        "_info" : {
            "comment" : "",
            "filledwith" : "cpp-1.3.0+commit.6e0ce939.Linux.g++",
            "lllcversion" : "Version: 0.4.18-develop.2017.9.25+commit.a72237f2.Linux.g++",
            "source" : "src/BlockchainTestsFiller/GeneralStateTests/stMemoryStressTest/mload32bitBound_return2_d0g1v0Filler.json",
            "sourceHash" : "a49ac29b3e127b5e0625dfcbc6b938b9402075d93ac37110ae66267432f937b5"
        },
        "blocks" : [
            {
                "blockHeader" : {
                    "bloom" : "0x00000000000000000000000000000000000000000000000000000000000000000000000000000000000000000000000000000000000000000000000000000000000000000000000000000000000000000000000000000000000000000000000000000000000000000000000000000000000000000000000000000000000000000000000000000000000000000000000000000000000000000000000000000000000000000000000000000000000000000000000000000000000000000000000000000000000000000000000000000000000000000000000000000000000000000000000000000000000000000000000000000000000000000000000000000000",
                    "coinbase" : "0x2adc25665018aa1fe0e6bc666dac8fc2697ff9ba",
                    "difficulty" : "0x020000",
                    "extraData" : "",
                    "gasLimit" : "0x027101391c9c29c0",
                    "gasUsed" : "0x0ee6b280",
                    "hash" : "0x4817c5a7fafb3de7d9d236f2c616fffcc1c252621d001dda0535726392b25c28",
                    "mixHash" : "0x35018f7b7b2e322c67281ebb9b6c04d4ef19c8f7ff5bb42bad51785692a04431",
                    "nonce" : "0xbecf8ff1ff9fb9d9",
                    "number" : "0x01",
                    "parentHash" : "0xbfc35b1139326881645595133b5047cd1e365a6a77a80955bdf7fff757a50f8b",
                    "receiptTrie" : "0x28b1a34d1836818c5cb064592341674fc5bf0ed527b0283e3db4ba0e24910b5c",
                    "stateRoot" : "0xa1050f559637562758fbf954c7f05bd98d6b0b8fb23c69c26f99ec22c3121a44",
                    "timestamp" : "0x03e8",
                    "transactionsTrie" : "0x5541d17018d63fd9e66e96c406287f54f7ae7adc2dd235c272920763c0fadb3c",
                    "uncleHash" : "0x1dcc4de8dec75d7aab85b567b6ccd41ad312451b948a7413f0a142fd40d49347"
                },
                "rlp" : "0xf90267f901fea0bfc35b1139326881645595133b5047cd1e365a6a77a80955bdf7fff757a50f8ba01dcc4de8dec75d7aab85b567b6ccd41ad312451b948a7413f0a142fd40d49347942adc25665018aa1fe0e6bc666dac8fc2697ff9baa0a1050f559637562758fbf954c7f05bd98d6b0b8fb23c69c26f99ec22c3121a44a05541d17018d63fd9e66e96c406287f54f7ae7adc2dd235c272920763c0fadb3ca028b1a34d1836818c5cb064592341674fc5bf0ed527b0283e3db4ba0e24910b5cb9010000000000000000000000000000000000000000000000000000000000000000000000000000000000000000000000000000000000000000000000000000000000000000000000000000000000000000000000000000000000000000000000000000000000000000000000000000000000000000000000000000000000000000000000000000000000000000000000000000000000000000000000000000000000000000000000000000000000000000000000000000000000000000000000000000000000000000000000000000000000000000000000000000000000000000000000000000000000000000000000000000000000000000000000000000000000830200000188027101391c9c29c0840ee6b2808203e880a035018f7b7b2e322c67281ebb9b6c04d4ef19c8f7ff5bb42bad51785692a0443188becf8ff1ff9fb9d9f863f8618001840ee6b280940f572e5295c57f15886f9b263e2f6d2d6c7b5ec680801ca0d613ec50613fe382240f7879cf47a3f2b9f25420125f21c7ebde1461b7c05bd1a05f91ad651b06a2aa903199684a7385e9dc60c60a9d29dd1da6a7de177034f3a8c0",
                "transactions" : [
                    {
                        "data" : "",
                        "gasLimit" : "0x0ee6b280",
                        "gasPrice" : "0x01",
                        "nonce" : "0x00",
                        "r" : "0xd613ec50613fe382240f7879cf47a3f2b9f25420125f21c7ebde1461b7c05bd1",
                        "s" : "0x5f91ad651b06a2aa903199684a7385e9dc60c60a9d29dd1da6a7de177034f3a8",
                        "to" : "0x0f572e5295c57f15886f9b263e2f6d2d6c7b5ec6",
                        "v" : "0x1c",
                        "value" : "0x00"
                    }
                ],
                "uncleHeaders" : [
                ]
            }
        ],
        "genesisBlockHeader" : {
            "bloom" : "0x00000000000000000000000000000000000000000000000000000000000000000000000000000000000000000000000000000000000000000000000000000000000000000000000000000000000000000000000000000000000000000000000000000000000000000000000000000000000000000000000000000000000000000000000000000000000000000000000000000000000000000000000000000000000000000000000000000000000000000000000000000000000000000000000000000000000000000000000000000000000000000000000000000000000000000000000000000000000000000000000000000000000000000000000000000000",
            "coinbase" : "0x2adc25665018aa1fe0e6bc666dac8fc2697ff9ba",
            "difficulty" : "0x020000",
            "extraData" : "0x42",
            "gasLimit" : "0x027101391c9c29c0",
            "gasUsed" : "0x00",
            "hash" : "0xbfc35b1139326881645595133b5047cd1e365a6a77a80955bdf7fff757a50f8b",
            "mixHash" : "0x56e81f171bcc55a6ff8345e692c0f86e5b48e01b996cadc001622fb5e363b421",
            "nonce" : "0x0102030405060708",
            "number" : "0x00",
            "parentHash" : "0x0000000000000000000000000000000000000000000000000000000000000000",
            "receiptTrie" : "0x56e81f171bcc55a6ff8345e692c0f86e5b48e01b996cadc001622fb5e363b421",
            "stateRoot" : "0x9d4ca208caf95c3c049bc641dc7d029e48e5862ccd23148b64f2eec2ddefd66d",
            "timestamp" : "0x03b6",
            "transactionsTrie" : "0x56e81f171bcc55a6ff8345e692c0f86e5b48e01b996cadc001622fb5e363b421",
            "uncleHash" : "0x1dcc4de8dec75d7aab85b567b6ccd41ad312451b948a7413f0a142fd40d49347"
        },
        "genesisRLP" : "0xf901fff901faa00000000000000000000000000000000000000000000000000000000000000000a01dcc4de8dec75d7aab85b567b6ccd41ad312451b948a7413f0a142fd40d49347942adc25665018aa1fe0e6bc666dac8fc2697ff9baa09d4ca208caf95c3c049bc641dc7d029e48e5862ccd23148b64f2eec2ddefd66da056e81f171bcc55a6ff8345e692c0f86e5b48e01b996cadc001622fb5e363b421a056e81f171bcc55a6ff8345e692c0f86e5b48e01b996cadc001622fb5e363b421b9010000000000000000000000000000000000000000000000000000000000000000000000000000000000000000000000000000000000000000000000000000000000000000000000000000000000000000000000000000000000000000000000000000000000000000000000000000000000000000000000000000000000000000000000000000000000000000000000000000000000000000000000000000000000000000000000000000000000000000000000000000000000000000000000000000000000000000000000000000000000000000000000000000000000000000000000000000000000000000000000000000000000000000000000000000000000830200008088027101391c9c29c0808203b642a056e81f171bcc55a6ff8345e692c0f86e5b48e01b996cadc001622fb5e363b421880102030405060708c0c0",
        "lastblockhash" : "0x4817c5a7fafb3de7d9d236f2c616fffcc1c252621d001dda0535726392b25c28",
        "network" : "Homestead",
        "postState" : {
            "0x0f572e5295c57f15886f9b263e2f6d2d6c7b5ec6" : {
                "balance" : "0x0de0b6b3a7640000",
                "code" : "0x600160005263ffffffff6000f3",
                "nonce" : "0x00",
                "storage" : {
                }
            },
            "0x2adc25665018aa1fe0e6bc666dac8fc2697ff9ba" : {
                "balance" : "0x4563918253dab280",
                "code" : "",
                "nonce" : "0x00",
                "storage" : {
                }
            },
            "0xa94f5374fce5edbc8e2a8697c15331677e6ebf0b" : {
                "balance" : "0x186a0c3b0f32ef00",
                "code" : "",
                "nonce" : "0x01",
                "storage" : {
                }
            }
        },
        "pre" : {
            "0x0f572e5295c57f15886f9b263e2f6d2d6c7b5ec6" : {
                "balance" : "0x0de0b6b3a7640000",
                "code" : "0x600160005263ffffffff6000f3",
                "nonce" : "0x00",
                "storage" : {
                }
            },
            "0xa94f5374fce5edbc8e2a8697c15331677e6ebf0b" : {
                "balance" : "0x186a0c3b1e19a180",
                "code" : "",
                "nonce" : "0x00",
                "storage" : {
                }
            }
        }
    }
}