{
    "mload32bitBound2_d0g0v0_Byzantium" : {
        "_info" : {
            "comment" : "",
            "filledwith" : "cpp-1.3.0+commit.6e0ce939.Linux.g++",
            "lllcversion" : "Version: 0.4.18-develop.2017.9.25+commit.a72237f2.Linux.g++",
            "source" : "src/BlockchainTestsFiller/GeneralStateTests/stMemoryStressTest/mload32bitBound2_d0g0v0Filler.json",
            "sourceHash" : "d376f13b82ce6009c0a93c3e68bdccf499178a65235485de129a2b8bb001e2e6"
        },
        "blocks" : [
            {
                "blockHeader" : {
                    "bloom" : "0x00000000000000000000000000000000000000000000000000000000000000000000000000000000000000000000000000000000000000000000000000000000000000000000000000000000000000000000000000000000000000000000000000000000000000000000000000000000000000000000000000000000000000000000000000000000000000000000000000000000000000000000000000000000000000000000000000000000000000000000000000000000000000000000000000000000000000000000000000000000000000000000000000000000000000000000000000000000000000000000000000000000000000000000000000000000",
                    "coinbase" : "0x2adc25665018aa1fe0e6bc666dac8fc2697ff9ba",
                    "difficulty" : "0x020000",
                    "extraData" : "",
                    "gasLimit" : "0x225eebec75ab",
                    "gasUsed" : "0x0249f0",
                    "hash" : "0x228b67d4855b24d0857aaf830b81c9e03a1cea9f80818741f703484181d21230",
                    "mixHash" : "0x4b93e55ebf7a504b010725bb3d2b64433a1d7a842af539fa6a535629661fe9ce",
                    "nonce" : "0xa5d8d2e747a9db6f",
                    "number" : "0x01",
                    "parentHash" : "0x5cbbf8e6b1cd3382faffeb465c9a1ca8099b742cf85a1ab125abbea9d891517e",
                    "receiptTrie" : "0xa0e10907f175886de9bd8cd4ac2c21d1db4109a3a9fecf60f54015ee102803fd",
                    "stateRoot" : "0x05186211ad6016df155822715775b2b43696fc58f6667c2a1f1af22f0465597a",
                    "timestamp" : "0x03e8",
                    "transactionsTrie" : "0x85818eaa5e4d21faba0e066387c7719a21a932f6f13833ee138a3a5b6f127820",
                    "uncleHash" : "0x1dcc4de8dec75d7aab85b567b6ccd41ad312451b948a7413f0a142fd40d49347"
                },
                "rlp" : "0xf90263f901fba05cbbf8e6b1cd3382faffeb465c9a1ca8099b742cf85a1ab125abbea9d891517ea01dcc4de8dec75d7aab85b567b6ccd41ad312451b948a7413f0a142fd40d49347942adc25665018aa1fe0e6bc666dac8fc2697ff9baa005186211ad6016df155822715775b2b43696fc58f6667c2a1f1af22f0465597aa085818eaa5e4d21faba0e066387c7719a21a932f6f13833ee138a3a5b6f127820a0a0e10907f175886de9bd8cd4ac2c21d1db4109a3a9fecf60f54015ee102803fdb9010000000000000000000000000000000000000000000000000000000000000000000000000000000000000000000000000000000000000000000000000000000000000000000000000000000000000000000000000000000000000000000000000000000000000000000000000000000000000000000000000000000000000000000000000000000000000000000000000000000000000000000000000000000000000000000000000000000000000000000000000000000000000000000000000000000000000000000000000000000000000000000000000000000000000000000000000000000000000000000000000000000000000000000000000000000000830200000186225eebec75ab830249f08203e880a04b93e55ebf7a504b010725bb3d2b64433a1d7a842af539fa6a535629661fe9ce88a5d8d2e747a9db6ff862f8608001830249f0940f572e5295c57f15886f9b263e2f6d2d6c7b5ec60a801ca03c593616a2b004061fe6ebf8ca287f90955a21938f6e3046830d8c1c40f92293a078b229779fcf885f433f587baa2e0eaf3efb5a810ac703dfa7d9a3551eeb133bc0",
                "transactions" : [
                    {
                        "data" : "",
                        "gasLimit" : "0x0249f0",
                        "gasPrice" : "0x01",
                        "nonce" : "0x00",
                        "r" : "0x3c593616a2b004061fe6ebf8ca287f90955a21938f6e3046830d8c1c40f92293",
                        "s" : "0x78b229779fcf885f433f587baa2e0eaf3efb5a810ac703dfa7d9a3551eeb133b",
                        "to" : "0x0f572e5295c57f15886f9b263e2f6d2d6c7b5ec6",
                        "v" : "0x1c",
                        "value" : "0x0a"
                    }
                ],
                "uncleHeaders" : [
                ]
            }
        ],
        "genesisBlockHeader" : {
            "bloom" : "0x00000000000000000000000000000000000000000000000000000000000000000000000000000000000000000000000000000000000000000000000000000000000000000000000000000000000000000000000000000000000000000000000000000000000000000000000000000000000000000000000000000000000000000000000000000000000000000000000000000000000000000000000000000000000000000000000000000000000000000000000000000000000000000000000000000000000000000000000000000000000000000000000000000000000000000000000000000000000000000000000000000000000000000000000000000000",
            "coinbase" : "0x2adc25665018aa1fe0e6bc666dac8fc2697ff9ba",
            "difficulty" : "0x020000",
            "extraData" : "0x42",
            "gasLimit" : "0x225eebec75ab",
            "gasUsed" : "0x00",
            "hash" : "0x5cbbf8e6b1cd3382faffeb465c9a1ca8099b742cf85a1ab125abbea9d891517e",
            "mixHash" : "0x56e81f171bcc55a6ff8345e692c0f86e5b48e01b996cadc001622fb5e363b421",
            "nonce" : "0x0102030405060708",
            "number" : "0x00",
            "parentHash" : "0x0000000000000000000000000000000000000000000000000000000000000000",
            "receiptTrie" : "0x56e81f171bcc55a6ff8345e692c0f86e5b48e01b996cadc001622fb5e363b421",
            "stateRoot" : "0xccfd7955be8325c4499ff724ea941d5019e416a1d5dbcc2d68926389774ccb86",
            "timestamp" : "0x03b6",
            "transactionsTrie" : "0x56e81f171bcc55a6ff8345e692c0f86e5b48e01b996cadc001622fb5e363b421",
            "uncleHash" : "0x1dcc4de8dec75d7aab85b567b6ccd41ad312451b948a7413f0a142fd40d49347"
        },
        "genesisRLP" : "0xf901fdf901f8a00000000000000000000000000000000000000000000000000000000000000000a01dcc4de8dec75d7aab85b567b6ccd41ad312451b948a7413f0a142fd40d49347942adc25665018aa1fe0e6bc666dac8fc2697ff9baa0ccfd7955be8325c4499ff724ea941d5019e416a1d5dbcc2d68926389774ccb86a056e81f171bcc55a6ff8345e692c0f86e5b48e01b996cadc001622fb5e363b421a056e81f171bcc55a6ff8345e692c0f86e5b48e01b996cadc001622fb5e363b421b9010000000000000000000000000000000000000000000000000000000000000000000000000000000000000000000000000000000000000000000000000000000000000000000000000000000000000000000000000000000000000000000000000000000000000000000000000000000000000000000000000000000000000000000000000000000000000000000000000000000000000000000000000000000000000000000000000000000000000000000000000000000000000000000000000000000000000000000000000000000000000000000000000000000000000000000000000000000000000000000000000000000000000000000000000000000000830200008086225eebec75ab808203b642a056e81f171bcc55a6ff8345e692c0f86e5b48e01b996cadc001622fb5e363b421880102030405060708c0c0",
        "lastblockhash" : "0x228b67d4855b24d0857aaf830b81c9e03a1cea9f80818741f703484181d21230",
        "network" : "Byzantium",
        "postState" : {
            "0x0f572e5295c57f15886f9b263e2f6d2d6c7b5ec6" : {
                "balance" : "0x0de0b6b3a7640000",
                "code" : "0x64017735940051600155",
                "nonce" : "0x00",
                "storage" : {
                }
            },
            "0x2adc25665018aa1fe0e6bc666dac8fc2697ff9ba" : {
                "balance" : "0x29a2241af62e49f0",
                "code" : "",
                "nonce" : "0x00",
                "storage" : {
                }
            },
            "0xa94f5374fce5edbc8e2a8697c15331677e6ebf0b" : {
                "balance" : "0x0157b5373bbdda",
                "code" : "",
                "nonce" : "0x01",
                "storage" : {
                }
            }
        },
        "pre" : {
            "0x0f572e5295c57f15886f9b263e2f6d2d6c7b5ec6" : {
                "balance" : "0x0de0b6b3a7640000",
                "code" : "0x64017735940051600155",
                "nonce" : "0x00",
                "storage" : {
                }
            },
            "0xa94f5374fce5edbc8e2a8697c15331677e6ebf0b" : {
                "balance" : "0x0157b5373e07ca",
                "code" : "",
                "nonce" : "0x00",
                "storage" : {
                }
            }
        }
    },
    "mload32bitBound2_d0g0v0_EIP150" : {
        "_info" : {
            "comment" : "",
            "filledwith" : "cpp-1.3.0+commit.6e0ce939.Linux.g++",
            "lllcversion" : "Version: 0.4.18-develop.2017.9.25+commit.a72237f2.Linux.g++",
            "source" : "src/BlockchainTestsFiller/GeneralStateTests/stMemoryStressTest/mload32bitBound2_d0g0v0Filler.json",
            "sourceHash" : "d376f13b82ce6009c0a93c3e68bdccf499178a65235485de129a2b8bb001e2e6"
        },
        "blocks" : [
            {
                "blockHeader" : {
                    "bloom" : "0x00000000000000000000000000000000000000000000000000000000000000000000000000000000000000000000000000000000000000000000000000000000000000000000000000000000000000000000000000000000000000000000000000000000000000000000000000000000000000000000000000000000000000000000000000000000000000000000000000000000000000000000000000000000000000000000000000000000000000000000000000000000000000000000000000000000000000000000000000000000000000000000000000000000000000000000000000000000000000000000000000000000000000000000000000000000",
                    "coinbase" : "0x2adc25665018aa1fe0e6bc666dac8fc2697ff9ba",
                    "difficulty" : "0x020000",
                    "extraData" : "",
                    "gasLimit" : "0x225eebec75ab",
                    "gasUsed" : "0x0249f0",
                    "hash" : "0x9ff2a1c848be711f54905fa359f1b33af4a7b5f19b540f413e3449a4ba7860f2",
                    "mixHash" : "0x12f6e95759982bf5108f496a01765cb992171d2a13e982c5f2095f432d45b6ed",
                    "nonce" : "0xead00f9399d6729d",
                    "number" : "0x01",
                    "parentHash" : "0x5cbbf8e6b1cd3382faffeb465c9a1ca8099b742cf85a1ab125abbea9d891517e",
                    "receiptTrie" : "0x29abce494f4bd25b6dc03b9dbf10577e67f0ef6771a67b0d997b6c25bf6f0da8",
                    "stateRoot" : "0x3377aa2f69435e93cb7b9f33abe2a0d2dde1be03b5114154f3b65fa63e0b5061",
                    "timestamp" : "0x03e8",
                    "transactionsTrie" : "0x85818eaa5e4d21faba0e066387c7719a21a932f6f13833ee138a3a5b6f127820",
                    "uncleHash" : "0x1dcc4de8dec75d7aab85b567b6ccd41ad312451b948a7413f0a142fd40d49347"
                },
                "rlp" : "0xf90263f901fba05cbbf8e6b1cd3382faffeb465c9a1ca8099b742cf85a1ab125abbea9d891517ea01dcc4de8dec75d7aab85b567b6ccd41ad312451b948a7413f0a142fd40d49347942adc25665018aa1fe0e6bc666dac8fc2697ff9baa03377aa2f69435e93cb7b9f33abe2a0d2dde1be03b5114154f3b65fa63e0b5061a085818eaa5e4d21faba0e066387c7719a21a932f6f13833ee138a3a5b6f127820a029abce494f4bd25b6dc03b9dbf10577e67f0ef6771a67b0d997b6c25bf6f0da8b9010000000000000000000000000000000000000000000000000000000000000000000000000000000000000000000000000000000000000000000000000000000000000000000000000000000000000000000000000000000000000000000000000000000000000000000000000000000000000000000000000000000000000000000000000000000000000000000000000000000000000000000000000000000000000000000000000000000000000000000000000000000000000000000000000000000000000000000000000000000000000000000000000000000000000000000000000000000000000000000000000000000000000000000000000000000000830200000186225eebec75ab830249f08203e880a012f6e95759982bf5108f496a01765cb992171d2a13e982c5f2095f432d45b6ed88ead00f9399d6729df862f8608001830249f0940f572e5295c57f15886f9b263e2f6d2d6c7b5ec60a801ca03c593616a2b004061fe6ebf8ca287f90955a21938f6e3046830d8c1c40f92293a078b229779fcf885f433f587baa2e0eaf3efb5a810ac703dfa7d9a3551eeb133bc0",
                "transactions" : [
                    {
                        "data" : "",
                        "gasLimit" : "0x0249f0",
                        "gasPrice" : "0x01",
                        "nonce" : "0x00",
                        "r" : "0x3c593616a2b004061fe6ebf8ca287f90955a21938f6e3046830d8c1c40f92293",
                        "s" : "0x78b229779fcf885f433f587baa2e0eaf3efb5a810ac703dfa7d9a3551eeb133b",
                        "to" : "0x0f572e5295c57f15886f9b263e2f6d2d6c7b5ec6",
                        "v" : "0x1c",
                        "value" : "0x0a"
                    }
                ],
                "uncleHeaders" : [
                ]
            }
        ],
        "genesisBlockHeader" : {
            "bloom" : "0x00000000000000000000000000000000000000000000000000000000000000000000000000000000000000000000000000000000000000000000000000000000000000000000000000000000000000000000000000000000000000000000000000000000000000000000000000000000000000000000000000000000000000000000000000000000000000000000000000000000000000000000000000000000000000000000000000000000000000000000000000000000000000000000000000000000000000000000000000000000000000000000000000000000000000000000000000000000000000000000000000000000000000000000000000000000",
            "coinbase" : "0x2adc25665018aa1fe0e6bc666dac8fc2697ff9ba",
            "difficulty" : "0x020000",
            "extraData" : "0x42",
            "gasLimit" : "0x225eebec75ab",
            "gasUsed" : "0x00",
            "hash" : "0x5cbbf8e6b1cd3382faffeb465c9a1ca8099b742cf85a1ab125abbea9d891517e",
            "mixHash" : "0x56e81f171bcc55a6ff8345e692c0f86e5b48e01b996cadc001622fb5e363b421",
            "nonce" : "0x0102030405060708",
            "number" : "0x00",
            "parentHash" : "0x0000000000000000000000000000000000000000000000000000000000000000",
            "receiptTrie" : "0x56e81f171bcc55a6ff8345e692c0f86e5b48e01b996cadc001622fb5e363b421",
            "stateRoot" : "0xccfd7955be8325c4499ff724ea941d5019e416a1d5dbcc2d68926389774ccb86",
            "timestamp" : "0x03b6",
            "transactionsTrie" : "0x56e81f171bcc55a6ff8345e692c0f86e5b48e01b996cadc001622fb5e363b421",
            "uncleHash" : "0x1dcc4de8dec75d7aab85b567b6ccd41ad312451b948a7413f0a142fd40d49347"
        },
        "genesisRLP" : "0xf901fdf901f8a00000000000000000000000000000000000000000000000000000000000000000a01dcc4de8dec75d7aab85b567b6ccd41ad312451b948a7413f0a142fd40d49347942adc25665018aa1fe0e6bc666dac8fc2697ff9baa0ccfd7955be8325c4499ff724ea941d5019e416a1d5dbcc2d68926389774ccb86a056e81f171bcc55a6ff8345e692c0f86e5b48e01b996cadc001622fb5e363b421a056e81f171bcc55a6ff8345e692c0f86e5b48e01b996cadc001622fb5e363b421b9010000000000000000000000000000000000000000000000000000000000000000000000000000000000000000000000000000000000000000000000000000000000000000000000000000000000000000000000000000000000000000000000000000000000000000000000000000000000000000000000000000000000000000000000000000000000000000000000000000000000000000000000000000000000000000000000000000000000000000000000000000000000000000000000000000000000000000000000000000000000000000000000000000000000000000000000000000000000000000000000000000000000000000000000000000000000830200008086225eebec75ab808203b642a056e81f171bcc55a6ff8345e692c0f86e5b48e01b996cadc001622fb5e363b421880102030405060708c0c0",
        "lastblockhash" : "0x9ff2a1c848be711f54905fa359f1b33af4a7b5f19b540f413e3449a4ba7860f2",
        "network" : "EIP150",
        "postState" : {
            "0x0f572e5295c57f15886f9b263e2f6d2d6c7b5ec6" : {
                "balance" : "0x0de0b6b3a7640000",
                "code" : "0x64017735940051600155",
                "nonce" : "0x00",
                "storage" : {
                }
            },
            "0x2adc25665018aa1fe0e6bc666dac8fc2697ff9ba" : {
                "balance" : "0x4563918244f649f0",
                "code" : "",
                "nonce" : "0x00",
                "storage" : {
                }
            },
            "0xa94f5374fce5edbc8e2a8697c15331677e6ebf0b" : {
                "balance" : "0x0157b5373bbdda",
                "code" : "",
                "nonce" : "0x01",
                "storage" : {
                }
            }
        },
        "pre" : {
            "0x0f572e5295c57f15886f9b263e2f6d2d6c7b5ec6" : {
                "balance" : "0x0de0b6b3a7640000",
                "code" : "0x64017735940051600155",
                "nonce" : "0x00",
                "storage" : {
                }
            },
            "0xa94f5374fce5edbc8e2a8697c15331677e6ebf0b" : {
                "balance" : "0x0157b5373e07ca",
                "code" : "",
                "nonce" : "0x00",
                "storage" : {
                }
            }
        }
    },
    "mload32bitBound2_d0g0v0_EIP158" : {
        "_info" : {
            "comment" : "",
            "filledwith" : "cpp-1.3.0+commit.6e0ce939.Linux.g++",
            "lllcversion" : "Version: 0.4.18-develop.2017.9.25+commit.a72237f2.Linux.g++",
            "source" : "src/BlockchainTestsFiller/GeneralStateTests/stMemoryStressTest/mload32bitBound2_d0g0v0Filler.json",
            "sourceHash" : "d376f13b82ce6009c0a93c3e68bdccf499178a65235485de129a2b8bb001e2e6"
        },
        "blocks" : [
            {
                "blockHeader" : {
                    "bloom" : "0x00000000000000000000000000000000000000000000000000000000000000000000000000000000000000000000000000000000000000000000000000000000000000000000000000000000000000000000000000000000000000000000000000000000000000000000000000000000000000000000000000000000000000000000000000000000000000000000000000000000000000000000000000000000000000000000000000000000000000000000000000000000000000000000000000000000000000000000000000000000000000000000000000000000000000000000000000000000000000000000000000000000000000000000000000000000",
                    "coinbase" : "0x2adc25665018aa1fe0e6bc666dac8fc2697ff9ba",
                    "difficulty" : "0x020000",
                    "extraData" : "",
                    "gasLimit" : "0x225eebec75ab",
                    "gasUsed" : "0x0249f0",
                    "hash" : "0x97060a595a839033506199dbab1246e994c5502b13979377800b15256827f5a5",
                    "mixHash" : "0x566b1e5e4429a24436e6ba1db41ceaa0cfbd6031608b1e9479747c8918a68c59",
                    "nonce" : "0xb74333893c40f52e",
                    "number" : "0x01",
                    "parentHash" : "0x5cbbf8e6b1cd3382faffeb465c9a1ca8099b742cf85a1ab125abbea9d891517e",
                    "receiptTrie" : "0x29abce494f4bd25b6dc03b9dbf10577e67f0ef6771a67b0d997b6c25bf6f0da8",
                    "stateRoot" : "0x3377aa2f69435e93cb7b9f33abe2a0d2dde1be03b5114154f3b65fa63e0b5061",
                    "timestamp" : "0x03e8",
                    "transactionsTrie" : "0x85818eaa5e4d21faba0e066387c7719a21a932f6f13833ee138a3a5b6f127820",
                    "uncleHash" : "0x1dcc4de8dec75d7aab85b567b6ccd41ad312451b948a7413f0a142fd40d49347"
                },
                "rlp" : "0xf90263f901fba05cbbf8e6b1cd3382faffeb465c9a1ca8099b742cf85a1ab125abbea9d891517ea01dcc4de8dec75d7aab85b567b6ccd41ad312451b948a7413f0a142fd40d49347942adc25665018aa1fe0e6bc666dac8fc2697ff9baa03377aa2f69435e93cb7b9f33abe2a0d2dde1be03b5114154f3b65fa63e0b5061a085818eaa5e4d21faba0e066387c7719a21a932f6f13833ee138a3a5b6f127820a029abce494f4bd25b6dc03b9dbf10577e67f0ef6771a67b0d997b6c25bf6f0da8b9010000000000000000000000000000000000000000000000000000000000000000000000000000000000000000000000000000000000000000000000000000000000000000000000000000000000000000000000000000000000000000000000000000000000000000000000000000000000000000000000000000000000000000000000000000000000000000000000000000000000000000000000000000000000000000000000000000000000000000000000000000000000000000000000000000000000000000000000000000000000000000000000000000000000000000000000000000000000000000000000000000000000000000000000000000000000830200000186225eebec75ab830249f08203e880a0566b1e5e4429a24436e6ba1db41ceaa0cfbd6031608b1e9479747c8918a68c5988b74333893c40f52ef862f8608001830249f0940f572e5295c57f15886f9b263e2f6d2d6c7b5ec60a801ca03c593616a2b004061fe6ebf8ca287f90955a21938f6e3046830d8c1c40f92293a078b229779fcf885f433f587baa2e0eaf3efb5a810ac703dfa7d9a3551eeb133bc0",
                "transactions" : [
                    {
                        "data" : "",
                        "gasLimit" : "0x0249f0",
                        "gasPrice" : "0x01",
                        "nonce" : "0x00",
                        "r" : "0x3c593616a2b004061fe6ebf8ca287f90955a21938f6e3046830d8c1c40f92293",
                        "s" : "0x78b229779fcf885f433f587baa2e0eaf3efb5a810ac703dfa7d9a3551eeb133b",
                        "to" : "0x0f572e5295c57f15886f9b263e2f6d2d6c7b5ec6",
                        "v" : "0x1c",
                        "value" : "0x0a"
                    }
                ],
                "uncleHeaders" : [
                ]
            }
        ],
        "genesisBlockHeader" : {
            "bloom" : "0x00000000000000000000000000000000000000000000000000000000000000000000000000000000000000000000000000000000000000000000000000000000000000000000000000000000000000000000000000000000000000000000000000000000000000000000000000000000000000000000000000000000000000000000000000000000000000000000000000000000000000000000000000000000000000000000000000000000000000000000000000000000000000000000000000000000000000000000000000000000000000000000000000000000000000000000000000000000000000000000000000000000000000000000000000000000",
            "coinbase" : "0x2adc25665018aa1fe0e6bc666dac8fc2697ff9ba",
            "difficulty" : "0x020000",
            "extraData" : "0x42",
            "gasLimit" : "0x225eebec75ab",
            "gasUsed" : "0x00",
            "hash" : "0x5cbbf8e6b1cd3382faffeb465c9a1ca8099b742cf85a1ab125abbea9d891517e",
            "mixHash" : "0x56e81f171bcc55a6ff8345e692c0f86e5b48e01b996cadc001622fb5e363b421",
            "nonce" : "0x0102030405060708",
            "number" : "0x00",
            "parentHash" : "0x0000000000000000000000000000000000000000000000000000000000000000",
            "receiptTrie" : "0x56e81f171bcc55a6ff8345e692c0f86e5b48e01b996cadc001622fb5e363b421",
            "stateRoot" : "0xccfd7955be8325c4499ff724ea941d5019e416a1d5dbcc2d68926389774ccb86",
            "timestamp" : "0x03b6",
            "transactionsTrie" : "0x56e81f171bcc55a6ff8345e692c0f86e5b48e01b996cadc001622fb5e363b421",
            "uncleHash" : "0x1dcc4de8dec75d7aab85b567b6ccd41ad312451b948a7413f0a142fd40d49347"
        },
        "genesisRLP" : "0xf901fdf901f8a00000000000000000000000000000000000000000000000000000000000000000a01dcc4de8dec75d7aab85b567b6ccd41ad312451b948a7413f0a142fd40d49347942adc25665018aa1fe0e6bc666dac8fc2697ff9baa0ccfd7955be8325c4499ff724ea941d5019e416a1d5dbcc2d68926389774ccb86a056e81f171bcc55a6ff8345e692c0f86e5b48e01b996cadc001622fb5e363b421a056e81f171bcc55a6ff8345e692c0f86e5b48e01b996cadc001622fb5e363b421b9010000000000000000000000000000000000000000000000000000000000000000000000000000000000000000000000000000000000000000000000000000000000000000000000000000000000000000000000000000000000000000000000000000000000000000000000000000000000000000000000000000000000000000000000000000000000000000000000000000000000000000000000000000000000000000000000000000000000000000000000000000000000000000000000000000000000000000000000000000000000000000000000000000000000000000000000000000000000000000000000000000000000000000000000000000000000830200008086225eebec75ab808203b642a056e81f171bcc55a6ff8345e692c0f86e5b48e01b996cadc001622fb5e363b421880102030405060708c0c0",
        "lastblockhash" : "0x97060a595a839033506199dbab1246e994c5502b13979377800b15256827f5a5",
        "network" : "EIP158",
        "postState" : {
            "0x0f572e5295c57f15886f9b263e2f6d2d6c7b5ec6" : {
                "balance" : "0x0de0b6b3a7640000",
                "code" : "0x64017735940051600155",
                "nonce" : "0x00",
                "storage" : {
                }
            },
            "0x2adc25665018aa1fe0e6bc666dac8fc2697ff9ba" : {
                "balance" : "0x4563918244f649f0",
                "code" : "",
                "nonce" : "0x00",
                "storage" : {
                }
            },
            "0xa94f5374fce5edbc8e2a8697c15331677e6ebf0b" : {
                "balance" : "0x0157b5373bbdda",
                "code" : "",
                "nonce" : "0x01",
                "storage" : {
                }
            }
        },
        "pre" : {
            "0x0f572e5295c57f15886f9b263e2f6d2d6c7b5ec6" : {
                "balance" : "0x0de0b6b3a7640000",
                "code" : "0x64017735940051600155",
                "nonce" : "0x00",
                "storage" : {
                }
            },
            "0xa94f5374fce5edbc8e2a8697c15331677e6ebf0b" : {
                "balance" : "0x0157b5373e07ca",
                "code" : "",
                "nonce" : "0x00",
                "storage" : {
                }
            }
        }
    },
    "mload32bitBound2_d0g0v0_Frontier" : {
        "_info" : {
            "comment" : "",
            "filledwith" : "cpp-1.3.0+commit.6e0ce939.Linux.g++",
            "lllcversion" : "Version: 0.4.18-develop.2017.9.25+commit.a72237f2.Linux.g++",
            "source" : "src/BlockchainTestsFiller/GeneralStateTests/stMemoryStressTest/mload32bitBound2_d0g0v0Filler.json",
            "sourceHash" : "d376f13b82ce6009c0a93c3e68bdccf499178a65235485de129a2b8bb001e2e6"
        },
        "blocks" : [
            {
                "blockHeader" : {
                    "bloom" : "0x00000000000000000000000000000000000000000000000000000000000000000000000000000000000000000000000000000000000000000000000000000000000000000000000000000000000000000000000000000000000000000000000000000000000000000000000000000000000000000000000000000000000000000000000000000000000000000000000000000000000000000000000000000000000000000000000000000000000000000000000000000000000000000000000000000000000000000000000000000000000000000000000000000000000000000000000000000000000000000000000000000000000000000000000000000000",
                    "coinbase" : "0x2adc25665018aa1fe0e6bc666dac8fc2697ff9ba",
                    "difficulty" : "0x020000",
                    "extraData" : "",
                    "gasLimit" : "0x225eebec75ab",
                    "gasUsed" : "0x0249f0",
                    "hash" : "0xfab4100e4f3630398689698a608e9c8827cf22d179165f176822aa0296e53222",
                    "mixHash" : "0x5660fde43f5fd87f1d300e9e366425860ba221fb621424a78491b654e90f00b3",
                    "nonce" : "0x7111f1a39c205b89",
                    "number" : "0x01",
                    "parentHash" : "0x5cbbf8e6b1cd3382faffeb465c9a1ca8099b742cf85a1ab125abbea9d891517e",
                    "receiptTrie" : "0x29abce494f4bd25b6dc03b9dbf10577e67f0ef6771a67b0d997b6c25bf6f0da8",
                    "stateRoot" : "0x3377aa2f69435e93cb7b9f33abe2a0d2dde1be03b5114154f3b65fa63e0b5061",
                    "timestamp" : "0x03e8",
                    "transactionsTrie" : "0x85818eaa5e4d21faba0e066387c7719a21a932f6f13833ee138a3a5b6f127820",
                    "uncleHash" : "0x1dcc4de8dec75d7aab85b567b6ccd41ad312451b948a7413f0a142fd40d49347"
                },
                "rlp" : "0xf90263f901fba05cbbf8e6b1cd3382faffeb465c9a1ca8099b742cf85a1ab125abbea9d891517ea01dcc4de8dec75d7aab85b567b6ccd41ad312451b948a7413f0a142fd40d49347942adc25665018aa1fe0e6bc666dac8fc2697ff9baa03377aa2f69435e93cb7b9f33abe2a0d2dde1be03b5114154f3b65fa63e0b5061a085818eaa5e4d21faba0e066387c7719a21a932f6f13833ee138a3a5b6f127820a029abce494f4bd25b6dc03b9dbf10577e67f0ef6771a67b0d997b6c25bf6f0da8b9010000000000000000000000000000000000000000000000000000000000000000000000000000000000000000000000000000000000000000000000000000000000000000000000000000000000000000000000000000000000000000000000000000000000000000000000000000000000000000000000000000000000000000000000000000000000000000000000000000000000000000000000000000000000000000000000000000000000000000000000000000000000000000000000000000000000000000000000000000000000000000000000000000000000000000000000000000000000000000000000000000000000000000000000000000000000830200000186225eebec75ab830249f08203e880a05660fde43f5fd87f1d300e9e366425860ba221fb621424a78491b654e90f00b3887111f1a39c205b89f862f8608001830249f0940f572e5295c57f15886f9b263e2f6d2d6c7b5ec60a801ca03c593616a2b004061fe6ebf8ca287f90955a21938f6e3046830d8c1c40f92293a078b229779fcf885f433f587baa2e0eaf3efb5a810ac703dfa7d9a3551eeb133bc0",
                "transactions" : [
                    {
                        "data" : "",
                        "gasLimit" : "0x0249f0",
                        "gasPrice" : "0x01",
                        "nonce" : "0x00",
                        "r" : "0x3c593616a2b004061fe6ebf8ca287f90955a21938f6e3046830d8c1c40f92293",
                        "s" : "0x78b229779fcf885f433f587baa2e0eaf3efb5a810ac703dfa7d9a3551eeb133b",
                        "to" : "0x0f572e5295c57f15886f9b263e2f6d2d6c7b5ec6",
                        "v" : "0x1c",
                        "value" : "0x0a"
                    }
                ],
                "uncleHeaders" : [
                ]
            }
        ],
        "genesisBlockHeader" : {
            "bloom" : "0x00000000000000000000000000000000000000000000000000000000000000000000000000000000000000000000000000000000000000000000000000000000000000000000000000000000000000000000000000000000000000000000000000000000000000000000000000000000000000000000000000000000000000000000000000000000000000000000000000000000000000000000000000000000000000000000000000000000000000000000000000000000000000000000000000000000000000000000000000000000000000000000000000000000000000000000000000000000000000000000000000000000000000000000000000000000",
            "coinbase" : "0x2adc25665018aa1fe0e6bc666dac8fc2697ff9ba",
            "difficulty" : "0x020000",
            "extraData" : "0x42",
            "gasLimit" : "0x225eebec75ab",
            "gasUsed" : "0x00",
            "hash" : "0x5cbbf8e6b1cd3382faffeb465c9a1ca8099b742cf85a1ab125abbea9d891517e",
            "mixHash" : "0x56e81f171bcc55a6ff8345e692c0f86e5b48e01b996cadc001622fb5e363b421",
            "nonce" : "0x0102030405060708",
            "number" : "0x00",
            "parentHash" : "0x0000000000000000000000000000000000000000000000000000000000000000",
            "receiptTrie" : "0x56e81f171bcc55a6ff8345e692c0f86e5b48e01b996cadc001622fb5e363b421",
            "stateRoot" : "0xccfd7955be8325c4499ff724ea941d5019e416a1d5dbcc2d68926389774ccb86",
            "timestamp" : "0x03b6",
            "transactionsTrie" : "0x56e81f171bcc55a6ff8345e692c0f86e5b48e01b996cadc001622fb5e363b421",
            "uncleHash" : "0x1dcc4de8dec75d7aab85b567b6ccd41ad312451b948a7413f0a142fd40d49347"
        },
        "genesisRLP" : "0xf901fdf901f8a00000000000000000000000000000000000000000000000000000000000000000a01dcc4de8dec75d7aab85b567b6ccd41ad312451b948a7413f0a142fd40d49347942adc25665018aa1fe0e6bc666dac8fc2697ff9baa0ccfd7955be8325c4499ff724ea941d5019e416a1d5dbcc2d68926389774ccb86a056e81f171bcc55a6ff8345e692c0f86e5b48e01b996cadc001622fb5e363b421a056e81f171bcc55a6ff8345e692c0f86e5b48e01b996cadc001622fb5e363b421b9010000000000000000000000000000000000000000000000000000000000000000000000000000000000000000000000000000000000000000000000000000000000000000000000000000000000000000000000000000000000000000000000000000000000000000000000000000000000000000000000000000000000000000000000000000000000000000000000000000000000000000000000000000000000000000000000000000000000000000000000000000000000000000000000000000000000000000000000000000000000000000000000000000000000000000000000000000000000000000000000000000000000000000000000000000000000830200008086225eebec75ab808203b642a056e81f171bcc55a6ff8345e692c0f86e5b48e01b996cadc001622fb5e363b421880102030405060708c0c0",
        "lastblockhash" : "0xfab4100e4f3630398689698a608e9c8827cf22d179165f176822aa0296e53222",
        "network" : "Frontier",
        "postState" : {
            "0x0f572e5295c57f15886f9b263e2f6d2d6c7b5ec6" : {
                "balance" : "0x0de0b6b3a7640000",
                "code" : "0x64017735940051600155",
                "nonce" : "0x00",
                "storage" : {
                }
            },
            "0x2adc25665018aa1fe0e6bc666dac8fc2697ff9ba" : {
                "balance" : "0x4563918244f649f0",
                "code" : "",
                "nonce" : "0x00",
                "storage" : {
                }
            },
            "0xa94f5374fce5edbc8e2a8697c15331677e6ebf0b" : {
                "balance" : "0x0157b5373bbdda",
                "code" : "",
                "nonce" : "0x01",
                "storage" : {
                }
            }
        },
        "pre" : {
            "0x0f572e5295c57f15886f9b263e2f6d2d6c7b5ec6" : {
                "balance" : "0x0de0b6b3a7640000",
                "code" : "0x64017735940051600155",
                "nonce" : "0x00",
                "storage" : {
                }
            },
            "0xa94f5374fce5edbc8e2a8697c15331677e6ebf0b" : {
                "balance" : "0x0157b5373e07ca",
                "code" : "",
                "nonce" : "0x00",
                "storage" : {
                }
            }
        }
    },
    "mload32bitBound2_d0g0v0_Homestead" : {
        "_info" : {
            "comment" : "",
            "filledwith" : "cpp-1.3.0+commit.6e0ce939.Linux.g++",
            "lllcversion" : "Version: 0.4.18-develop.2017.9.25+commit.a72237f2.Linux.g++",
            "source" : "src/BlockchainTestsFiller/GeneralStateTests/stMemoryStressTest/mload32bitBound2_d0g0v0Filler.json",
            "sourceHash" : "d376f13b82ce6009c0a93c3e68bdccf499178a65235485de129a2b8bb001e2e6"
        },
        "blocks" : [
            {
                "blockHeader" : {
                    "bloom" : "0x00000000000000000000000000000000000000000000000000000000000000000000000000000000000000000000000000000000000000000000000000000000000000000000000000000000000000000000000000000000000000000000000000000000000000000000000000000000000000000000000000000000000000000000000000000000000000000000000000000000000000000000000000000000000000000000000000000000000000000000000000000000000000000000000000000000000000000000000000000000000000000000000000000000000000000000000000000000000000000000000000000000000000000000000000000000",
                    "coinbase" : "0x2adc25665018aa1fe0e6bc666dac8fc2697ff9ba",
                    "difficulty" : "0x020000",
                    "extraData" : "",
                    "gasLimit" : "0x225eebec75ab",
                    "gasUsed" : "0x0249f0",
                    "hash" : "0x87f77b90b0b1866f1dda8c1d9028114f6dfb08e331952e3a4dc284b732810f62",
                    "mixHash" : "0x5f500f383a92084868416edbbee82539ffc20911201a25954be2e3eb358ff0be",
                    "nonce" : "0x8f8e6a79bf2a1f4d",
                    "number" : "0x01",
                    "parentHash" : "0x5cbbf8e6b1cd3382faffeb465c9a1ca8099b742cf85a1ab125abbea9d891517e",
                    "receiptTrie" : "0x29abce494f4bd25b6dc03b9dbf10577e67f0ef6771a67b0d997b6c25bf6f0da8",
                    "stateRoot" : "0x3377aa2f69435e93cb7b9f33abe2a0d2dde1be03b5114154f3b65fa63e0b5061",
                    "timestamp" : "0x03e8",
                    "transactionsTrie" : "0x85818eaa5e4d21faba0e066387c7719a21a932f6f13833ee138a3a5b6f127820",
                    "uncleHash" : "0x1dcc4de8dec75d7aab85b567b6ccd41ad312451b948a7413f0a142fd40d49347"
                },
                "rlp" : "0xf90263f901fba05cbbf8e6b1cd3382faffeb465c9a1ca8099b742cf85a1ab125abbea9d891517ea01dcc4de8dec75d7aab85b567b6ccd41ad312451b948a7413f0a142fd40d49347942adc25665018aa1fe0e6bc666dac8fc2697ff9baa03377aa2f69435e93cb7b9f33abe2a0d2dde1be03b5114154f3b65fa63e0b5061a085818eaa5e4d21faba0e066387c7719a21a932f6f13833ee138a3a5b6f127820a029abce494f4bd25b6dc03b9dbf10577e67f0ef6771a67b0d997b6c25bf6f0da8b9010000000000000000000000000000000000000000000000000000000000000000000000000000000000000000000000000000000000000000000000000000000000000000000000000000000000000000000000000000000000000000000000000000000000000000000000000000000000000000000000000000000000000000000000000000000000000000000000000000000000000000000000000000000000000000000000000000000000000000000000000000000000000000000000000000000000000000000000000000000000000000000000000000000000000000000000000000000000000000000000000000000000000000000000000000000000830200000186225eebec75ab830249f08203e880a05f500f383a92084868416edbbee82539ffc20911201a25954be2e3eb358ff0be888f8e6a79bf2a1f4df862f8608001830249f0940f572e5295c57f15886f9b263e2f6d2d6c7b5ec60a801ca03c593616a2b004061fe6ebf8ca287f90955a21938f6e3046830d8c1c40f92293a078b229779fcf885f433f587baa2e0eaf3efb5a810ac703dfa7d9a3551eeb133bc0",
                "transactions" : [
                    {
                        "data" : "",
                        "gasLimit" : "0x0249f0",
                        "gasPrice" : "0x01",
                        "nonce" : "0x00",
                        "r" : "0x3c593616a2b004061fe6ebf8ca287f90955a21938f6e3046830d8c1c40f92293",
                        "s" : "0x78b229779fcf885f433f587baa2e0eaf3efb5a810ac703dfa7d9a3551eeb133b",
                        "to" : "0x0f572e5295c57f15886f9b263e2f6d2d6c7b5ec6",
                        "v" : "0x1c",
                        "value" : "0x0a"
                    }
                ],
                "uncleHeaders" : [
                ]
            }
        ],
        "genesisBlockHeader" : {
            "bloom" : "0x00000000000000000000000000000000000000000000000000000000000000000000000000000000000000000000000000000000000000000000000000000000000000000000000000000000000000000000000000000000000000000000000000000000000000000000000000000000000000000000000000000000000000000000000000000000000000000000000000000000000000000000000000000000000000000000000000000000000000000000000000000000000000000000000000000000000000000000000000000000000000000000000000000000000000000000000000000000000000000000000000000000000000000000000000000000",
            "coinbase" : "0x2adc25665018aa1fe0e6bc666dac8fc2697ff9ba",
            "difficulty" : "0x020000",
            "extraData" : "0x42",
            "gasLimit" : "0x225eebec75ab",
            "gasUsed" : "0x00",
            "hash" : "0x5cbbf8e6b1cd3382faffeb465c9a1ca8099b742cf85a1ab125abbea9d891517e",
            "mixHash" : "0x56e81f171bcc55a6ff8345e692c0f86e5b48e01b996cadc001622fb5e363b421",
            "nonce" : "0x0102030405060708",
            "number" : "0x00",
            "parentHash" : "0x0000000000000000000000000000000000000000000000000000000000000000",
            "receiptTrie" : "0x56e81f171bcc55a6ff8345e692c0f86e5b48e01b996cadc001622fb5e363b421",
            "stateRoot" : "0xccfd7955be8325c4499ff724ea941d5019e416a1d5dbcc2d68926389774ccb86",
            "timestamp" : "0x03b6",
            "transactionsTrie" : "0x56e81f171bcc55a6ff8345e692c0f86e5b48e01b996cadc001622fb5e363b421",
            "uncleHash" : "0x1dcc4de8dec75d7aab85b567b6ccd41ad312451b948a7413f0a142fd40d49347"
        },
        "genesisRLP" : "0xf901fdf901f8a00000000000000000000000000000000000000000000000000000000000000000a01dcc4de8dec75d7aab85b567b6ccd41ad312451b948a7413f0a142fd40d49347942adc25665018aa1fe0e6bc666dac8fc2697ff9baa0ccfd7955be8325c4499ff724ea941d5019e416a1d5dbcc2d68926389774ccb86a056e81f171bcc55a6ff8345e692c0f86e5b48e01b996cadc001622fb5e363b421a056e81f171bcc55a6ff8345e692c0f86e5b48e01b996cadc001622fb5e363b421b9010000000000000000000000000000000000000000000000000000000000000000000000000000000000000000000000000000000000000000000000000000000000000000000000000000000000000000000000000000000000000000000000000000000000000000000000000000000000000000000000000000000000000000000000000000000000000000000000000000000000000000000000000000000000000000000000000000000000000000000000000000000000000000000000000000000000000000000000000000000000000000000000000000000000000000000000000000000000000000000000000000000000000000000000000000000000830200008086225eebec75ab808203b642a056e81f171bcc55a6ff8345e692c0f86e5b48e01b996cadc001622fb5e363b421880102030405060708c0c0",
        "lastblockhash" : "0x87f77b90b0b1866f1dda8c1d9028114f6dfb08e331952e3a4dc284b732810f62",
        "network" : "Homestead",
        "postState" : {
            "0x0f572e5295c57f15886f9b263e2f6d2d6c7b5ec6" : {
                "balance" : "0x0de0b6b3a7640000",
                "code" : "0x64017735940051600155",
                "nonce" : "0x00",
                "storage" : {
                }
            },
            "0x2adc25665018aa1fe0e6bc666dac8fc2697ff9ba" : {
                "balance" : "0x4563918244f649f0",
                "code" : "",
                "nonce" : "0x00",
                "storage" : {
                }
            },
            "0xa94f5374fce5edbc8e2a8697c15331677e6ebf0b" : {
                "balance" : "0x0157b5373bbdda",
                "code" : "",
                "nonce" : "0x01",
                "storage" : {
                }
            }
        },
        "pre" : {
            "0x0f572e5295c57f15886f9b263e2f6d2d6c7b5ec6" : {
                "balance" : "0x0de0b6b3a7640000",
                "code" : "0x64017735940051600155",
                "nonce" : "0x00",
                "storage" : {
                }
            },
            "0xa94f5374fce5edbc8e2a8697c15331677e6ebf0b" : {
                "balance" : "0x0157b5373e07ca",
                "code" : "",
                "nonce" : "0x00",
                "storage" : {
                }
            }
        }
    }
}