{
    "mload32bitBound_return2_d0g0v0_Byzantium" : {
        "_info" : {
            "comment" : "",
            "filledwith" : "cpp-1.3.0+commit.6e0ce939.Linux.g++",
            "lllcversion" : "Version: 0.4.18-develop.2017.9.25+commit.a72237f2.Linux.g++",
            "source" : "src/BlockchainTestsFiller/GeneralStateTests/stMemoryStressTest/mload32bitBound_return2_d0g0v0Filler.json",
            "sourceHash" : "a19fd77cac780e33366c2268d3e0c2e11f7f6b4219acedf1222aa196333d0e9d"
        },
        "blocks" : [
            {
                "blockHeader" : {
                    "bloom" : "0x00000000000000000000000000000000000000000000000000000000000000000000000000000000000000000000000000000000000000000000000000000000000000000000000000000000000000000000000000000000000000000000000000000000000000000000000000000000000000000000000000000000000000000000000000000000000000000000000000000000000000000000000000000000000000000000000000000000000000000000000000000000000000000000000000000000000000000000000000000000000000000000000000000000000000000000000000000000000000000000000000000000000000000000000000000000",
                    "coinbase" : "0x2adc25665018aa1fe0e6bc666dac8fc2697ff9ba",
                    "difficulty" : "0x020000",
                    "extraData" : "",
                    "gasLimit" : "0x027101391c9c29c0",
                    "gasUsed" : "0x0249f0",
                    "hash" : "0x5d79c429533d9cc7a4f57a36859abd9b1d3fe4e5d334d3e40c88971c01b84b17",
                    "mixHash" : "0x97924ec407b09a040efac3725d450ef1f5c35708b87e32c7949f3da3913d1bc8",
                    "nonce" : "0xaf166ca3d161cf8c",
                    "number" : "0x01",
                    "parentHash" : "0xbfc35b1139326881645595133b5047cd1e365a6a77a80955bdf7fff757a50f8b",
                    "receiptTrie" : "0xa0e10907f175886de9bd8cd4ac2c21d1db4109a3a9fecf60f54015ee102803fd",
                    "stateRoot" : "0xe37692cc2eeeec5c4d4863c654abc53ae23d18bf14529931ae5bac4d6133330c",
                    "timestamp" : "0x03e8",
                    "transactionsTrie" : "0xc1835b5fb341ee26c083678aaca92a377f415d51b7dcd30c74f364cc4015ab83",
                    "uncleHash" : "0x1dcc4de8dec75d7aab85b567b6ccd41ad312451b948a7413f0a142fd40d49347"
                },
                "rlp" : "0xf90265f901fda0bfc35b1139326881645595133b5047cd1e365a6a77a80955bdf7fff757a50f8ba01dcc4de8dec75d7aab85b567b6ccd41ad312451b948a7413f0a142fd40d49347942adc25665018aa1fe0e6bc666dac8fc2697ff9baa0e37692cc2eeeec5c4d4863c654abc53ae23d18bf14529931ae5bac4d6133330ca0c1835b5fb341ee26c083678aaca92a377f415d51b7dcd30c74f364cc4015ab83a0a0e10907f175886de9bd8cd4ac2c21d1db4109a3a9fecf60f54015ee102803fdb9010000000000000000000000000000000000000000000000000000000000000000000000000000000000000000000000000000000000000000000000000000000000000000000000000000000000000000000000000000000000000000000000000000000000000000000000000000000000000000000000000000000000000000000000000000000000000000000000000000000000000000000000000000000000000000000000000000000000000000000000000000000000000000000000000000000000000000000000000000000000000000000000000000000000000000000000000000000000000000000000000000000000000000000000000000000000830200000188027101391c9c29c0830249f08203e880a097924ec407b09a040efac3725d450ef1f5c35708b87e32c7949f3da3913d1bc888af166ca3d161cf8cf862f8608001830249f0940f572e5295c57f15886f9b263e2f6d2d6c7b5ec680801ca02e1a6a73fbc4dfa4772b5659eea7035139a199d3f443b597c42864fcd63ab10fa032e26fb71bc1c67b4a3425bf1f6796b510ff6508a99bad63263f3b2a669dfebec0",
                "transactions" : [
                    {
                        "data" : "",
                        "gasLimit" : "0x0249f0",
                        "gasPrice" : "0x01",
                        "nonce" : "0x00",
                        "r" : "0x2e1a6a73fbc4dfa4772b5659eea7035139a199d3f443b597c42864fcd63ab10f",
                        "s" : "0x32e26fb71bc1c67b4a3425bf1f6796b510ff6508a99bad63263f3b2a669dfebe",
                        "to" : "0x0f572e5295c57f15886f9b263e2f6d2d6c7b5ec6",
                        "v" : "0x1c",
                        "value" : "0x00"
                    }
                ],
                "uncleHeaders" : [
                ]
            }
        ],
        "genesisBlockHeader" : {
            "bloom" : "0x00000000000000000000000000000000000000000000000000000000000000000000000000000000000000000000000000000000000000000000000000000000000000000000000000000000000000000000000000000000000000000000000000000000000000000000000000000000000000000000000000000000000000000000000000000000000000000000000000000000000000000000000000000000000000000000000000000000000000000000000000000000000000000000000000000000000000000000000000000000000000000000000000000000000000000000000000000000000000000000000000000000000000000000000000000000",
            "coinbase" : "0x2adc25665018aa1fe0e6bc666dac8fc2697ff9ba",
            "difficulty" : "0x020000",
            "extraData" : "0x42",
            "gasLimit" : "0x027101391c9c29c0",
            "gasUsed" : "0x00",
            "hash" : "0xbfc35b1139326881645595133b5047cd1e365a6a77a80955bdf7fff757a50f8b",
            "mixHash" : "0x56e81f171bcc55a6ff8345e692c0f86e5b48e01b996cadc001622fb5e363b421",
            "nonce" : "0x0102030405060708",
            "number" : "0x00",
            "parentHash" : "0x0000000000000000000000000000000000000000000000000000000000000000",
            "receiptTrie" : "0x56e81f171bcc55a6ff8345e692c0f86e5b48e01b996cadc001622fb5e363b421",
            "stateRoot" : "0x9d4ca208caf95c3c049bc641dc7d029e48e5862ccd23148b64f2eec2ddefd66d",
            "timestamp" : "0x03b6",
            "transactionsTrie" : "0x56e81f171bcc55a6ff8345e692c0f86e5b48e01b996cadc001622fb5e363b421",
            "uncleHash" : "0x1dcc4de8dec75d7aab85b567b6ccd41ad312451b948a7413f0a142fd40d49347"
        },
        "genesisRLP" : "0xf901fff901faa00000000000000000000000000000000000000000000000000000000000000000a01dcc4de8dec75d7aab85b567b6ccd41ad312451b948a7413f0a142fd40d49347942adc25665018aa1fe0e6bc666dac8fc2697ff9baa09d4ca208caf95c3c049bc641dc7d029e48e5862ccd23148b64f2eec2ddefd66da056e81f171bcc55a6ff8345e692c0f86e5b48e01b996cadc001622fb5e363b421a056e81f171bcc55a6ff8345e692c0f86e5b48e01b996cadc001622fb5e363b421b9010000000000000000000000000000000000000000000000000000000000000000000000000000000000000000000000000000000000000000000000000000000000000000000000000000000000000000000000000000000000000000000000000000000000000000000000000000000000000000000000000000000000000000000000000000000000000000000000000000000000000000000000000000000000000000000000000000000000000000000000000000000000000000000000000000000000000000000000000000000000000000000000000000000000000000000000000000000000000000000000000000000000000000000000000000000000830200008088027101391c9c29c0808203b642a056e81f171bcc55a6ff8345e692c0f86e5b48e01b996cadc001622fb5e363b421880102030405060708c0c0",
        "lastblockhash" : "0x5d79c429533d9cc7a4f57a36859abd9b1d3fe4e5d334d3e40c88971c01b84b17",
        "network" : "Byzantium",
        "postState" : {
            "0x0f572e5295c57f15886f9b263e2f6d2d6c7b5ec6" : {
                "balance" : "0x0de0b6b3a7640000",
                "code" : "0x600160005263ffffffff6000f3",
                "nonce" : "0x00",
                "storage" : {
                }
            },
            "0x2adc25665018aa1fe0e6bc666dac8fc2697ff9ba" : {
                "balance" : "0x29a2241af62e49f0",
                "code" : "",
                "nonce" : "0x00",
                "storage" : {
                }
            },
            "0xa94f5374fce5edbc8e2a8697c15331677e6ebf0b" : {
                "balance" : "0x186a0c3b1e175790",
                "code" : "",
                "nonce" : "0x01",
                "storage" : {
                }
            }
        },
        "pre" : {
            "0x0f572e5295c57f15886f9b263e2f6d2d6c7b5ec6" : {
                "balance" : "0x0de0b6b3a7640000",
                "code" : "0x600160005263ffffffff6000f3",
                "nonce" : "0x00",
                "storage" : {
                }
            },
            "0xa94f5374fce5edbc8e2a8697c15331677e6ebf0b" : {
                "balance" : "0x186a0c3b1e19a180",
                "code" : "",
                "nonce" : "0x00",
                "storage" : {
                }
            }
        }
    },
    "mload32bitBound_return2_d0g0v0_EIP150" : {
        "_info" : {
            "comment" : "",
            "filledwith" : "cpp-1.3.0+commit.6e0ce939.Linux.g++",
            "lllcversion" : "Version: 0.4.18-develop.2017.9.25+commit.a72237f2.Linux.g++",
            "source" : "src/BlockchainTestsFiller/GeneralStateTests/stMemoryStressTest/mload32bitBound_return2_d0g0v0Filler.json",
            "sourceHash" : "a19fd77cac780e33366c2268d3e0c2e11f7f6b4219acedf1222aa196333d0e9d"
        },
        "blocks" : [
            {
                "blockHeader" : {
                    "bloom" : "0x00000000000000000000000000000000000000000000000000000000000000000000000000000000000000000000000000000000000000000000000000000000000000000000000000000000000000000000000000000000000000000000000000000000000000000000000000000000000000000000000000000000000000000000000000000000000000000000000000000000000000000000000000000000000000000000000000000000000000000000000000000000000000000000000000000000000000000000000000000000000000000000000000000000000000000000000000000000000000000000000000000000000000000000000000000000",
                    "coinbase" : "0x2adc25665018aa1fe0e6bc666dac8fc2697ff9ba",
                    "difficulty" : "0x020000",
                    "extraData" : "",
                    "gasLimit" : "0x027101391c9c29c0",
                    "gasUsed" : "0x0249f0",
                    "hash" : "0xc6c2f97dc4a90ab697394a95c5cd32215746770215f78a1f1cd5d25fc4187c80",
                    "mixHash" : "0x5d7fed028140acec2f4eb5515b53926f201fa3176ece56eb23d98c2df31a0847",
                    "nonce" : "0x9818f04366f3b910",
                    "number" : "0x01",
                    "parentHash" : "0xbfc35b1139326881645595133b5047cd1e365a6a77a80955bdf7fff757a50f8b",
                    "receiptTrie" : "0x22b7eaf68ab2ac32e16248b8b9a9cc1bc41058cfea6f2fc587f6cfe145e6508e",
                    "stateRoot" : "0xb646ab6e48fb7aef27cb6be6e9334f243abb12dc353559e5a1d11d1357d98a99",
                    "timestamp" : "0x03e8",
                    "transactionsTrie" : "0xc1835b5fb341ee26c083678aaca92a377f415d51b7dcd30c74f364cc4015ab83",
                    "uncleHash" : "0x1dcc4de8dec75d7aab85b567b6ccd41ad312451b948a7413f0a142fd40d49347"
                },
                "rlp" : "0xf90265f901fda0bfc35b1139326881645595133b5047cd1e365a6a77a80955bdf7fff757a50f8ba01dcc4de8dec75d7aab85b567b6ccd41ad312451b948a7413f0a142fd40d49347942adc25665018aa1fe0e6bc666dac8fc2697ff9baa0b646ab6e48fb7aef27cb6be6e9334f243abb12dc353559e5a1d11d1357d98a99a0c1835b5fb341ee26c083678aaca92a377f415d51b7dcd30c74f364cc4015ab83a022b7eaf68ab2ac32e16248b8b9a9cc1bc41058cfea6f2fc587f6cfe145e6508eb9010000000000000000000000000000000000000000000000000000000000000000000000000000000000000000000000000000000000000000000000000000000000000000000000000000000000000000000000000000000000000000000000000000000000000000000000000000000000000000000000000000000000000000000000000000000000000000000000000000000000000000000000000000000000000000000000000000000000000000000000000000000000000000000000000000000000000000000000000000000000000000000000000000000000000000000000000000000000000000000000000000000000000000000000000000000000830200000188027101391c9c29c0830249f08203e880a05d7fed028140acec2f4eb5515b53926f201fa3176ece56eb23d98c2df31a0847889818f04366f3b910f862f8608001830249f0940f572e5295c57f15886f9b263e2f6d2d6c7b5ec680801ca02e1a6a73fbc4dfa4772b5659eea7035139a199d3f443b597c42864fcd63ab10fa032e26fb71bc1c67b4a3425bf1f6796b510ff6508a99bad63263f3b2a669dfebec0",
                "transactions" : [
                    {
                        "data" : "",
                        "gasLimit" : "0x0249f0",
                        "gasPrice" : "0x01",
                        "nonce" : "0x00",
                        "r" : "0x2e1a6a73fbc4dfa4772b5659eea7035139a199d3f443b597c42864fcd63ab10f",
                        "s" : "0x32e26fb71bc1c67b4a3425bf1f6796b510ff6508a99bad63263f3b2a669dfebe",
                        "to" : "0x0f572e5295c57f15886f9b263e2f6d2d6c7b5ec6",
                        "v" : "0x1c",
                        "value" : "0x00"
                    }
                ],
                "uncleHeaders" : [
                ]
            }
        ],
        "genesisBlockHeader" : {
            "bloom" : "0x00000000000000000000000000000000000000000000000000000000000000000000000000000000000000000000000000000000000000000000000000000000000000000000000000000000000000000000000000000000000000000000000000000000000000000000000000000000000000000000000000000000000000000000000000000000000000000000000000000000000000000000000000000000000000000000000000000000000000000000000000000000000000000000000000000000000000000000000000000000000000000000000000000000000000000000000000000000000000000000000000000000000000000000000000000000",
            "coinbase" : "0x2adc25665018aa1fe0e6bc666dac8fc2697ff9ba",
            "difficulty" : "0x020000",
            "extraData" : "0x42",
            "gasLimit" : "0x027101391c9c29c0",
            "gasUsed" : "0x00",
            "hash" : "0xbfc35b1139326881645595133b5047cd1e365a6a77a80955bdf7fff757a50f8b",
            "mixHash" : "0x56e81f171bcc55a6ff8345e692c0f86e5b48e01b996cadc001622fb5e363b421",
            "nonce" : "0x0102030405060708",
            "number" : "0x00",
            "parentHash" : "0x0000000000000000000000000000000000000000000000000000000000000000",
            "receiptTrie" : "0x56e81f171bcc55a6ff8345e692c0f86e5b48e01b996cadc001622fb5e363b421",
            "stateRoot" : "0x9d4ca208caf95c3c049bc641dc7d029e48e5862ccd23148b64f2eec2ddefd66d",
            "timestamp" : "0x03b6",
            "transactionsTrie" : "0x56e81f171bcc55a6ff8345e692c0f86e5b48e01b996cadc001622fb5e363b421",
            "uncleHash" : "0x1dcc4de8dec75d7aab85b567b6ccd41ad312451b948a7413f0a142fd40d49347"
        },
        "genesisRLP" : "0xf901fff901faa00000000000000000000000000000000000000000000000000000000000000000a01dcc4de8dec75d7aab85b567b6ccd41ad312451b948a7413f0a142fd40d49347942adc25665018aa1fe0e6bc666dac8fc2697ff9baa09d4ca208caf95c3c049bc641dc7d029e48e5862ccd23148b64f2eec2ddefd66da056e81f171bcc55a6ff8345e692c0f86e5b48e01b996cadc001622fb5e363b421a056e81f171bcc55a6ff8345e692c0f86e5b48e01b996cadc001622fb5e363b421b9010000000000000000000000000000000000000000000000000000000000000000000000000000000000000000000000000000000000000000000000000000000000000000000000000000000000000000000000000000000000000000000000000000000000000000000000000000000000000000000000000000000000000000000000000000000000000000000000000000000000000000000000000000000000000000000000000000000000000000000000000000000000000000000000000000000000000000000000000000000000000000000000000000000000000000000000000000000000000000000000000000000000000000000000000000000000830200008088027101391c9c29c0808203b642a056e81f171bcc55a6ff8345e692c0f86e5b48e01b996cadc001622fb5e363b421880102030405060708c0c0",
        "lastblockhash" : "0xc6c2f97dc4a90ab697394a95c5cd32215746770215f78a1f1cd5d25fc4187c80",
        "network" : "EIP150",
        "postState" : {
            "0x0f572e5295c57f15886f9b263e2f6d2d6c7b5ec6" : {
                "balance" : "0x0de0b6b3a7640000",
                "code" : "0x600160005263ffffffff6000f3",
                "nonce" : "0x00",
                "storage" : {
                }
            },
            "0x2adc25665018aa1fe0e6bc666dac8fc2697ff9ba" : {
                "balance" : "0x4563918244f649f0",
                "code" : "",
                "nonce" : "0x00",
                "storage" : {
                }
            },
            "0xa94f5374fce5edbc8e2a8697c15331677e6ebf0b" : {
                "balance" : "0x186a0c3b1e175790",
                "code" : "",
                "nonce" : "0x01",
                "storage" : {
                }
            }
        },
        "pre" : {
            "0x0f572e5295c57f15886f9b263e2f6d2d6c7b5ec6" : {
                "balance" : "0x0de0b6b3a7640000",
                "code" : "0x600160005263ffffffff6000f3",
                "nonce" : "0x00",
                "storage" : {
                }
            },
            "0xa94f5374fce5edbc8e2a8697c15331677e6ebf0b" : {
                "balance" : "0x186a0c3b1e19a180",
                "code" : "",
                "nonce" : "0x00",
                "storage" : {
                }
            }
        }
    },
    "mload32bitBound_return2_d0g0v0_EIP158" : {
        "_info" : {
            "comment" : "",
            "filledwith" : "cpp-1.3.0+commit.6e0ce939.Linux.g++",
            "lllcversion" : "Version: 0.4.18-develop.2017.9.25+commit.a72237f2.Linux.g++",
            "source" : "src/BlockchainTestsFiller/GeneralStateTests/stMemoryStressTest/mload32bitBound_return2_d0g0v0Filler.json",
            "sourceHash" : "a19fd77cac780e33366c2268d3e0c2e11f7f6b4219acedf1222aa196333d0e9d"
        },
        "blocks" : [
            {
                "blockHeader" : {
                    "bloom" : "0x00000000000000000000000000000000000000000000000000000000000000000000000000000000000000000000000000000000000000000000000000000000000000000000000000000000000000000000000000000000000000000000000000000000000000000000000000000000000000000000000000000000000000000000000000000000000000000000000000000000000000000000000000000000000000000000000000000000000000000000000000000000000000000000000000000000000000000000000000000000000000000000000000000000000000000000000000000000000000000000000000000000000000000000000000000000",
                    "coinbase" : "0x2adc25665018aa1fe0e6bc666dac8fc2697ff9ba",
                    "difficulty" : "0x020000",
                    "extraData" : "",
                    "gasLimit" : "0x027101391c9c29c0",
                    "gasUsed" : "0x0249f0",
                    "hash" : "0x9cd4cf5405e27c6e2b4dac7f5dca34f05e24ed29af6e78f9933f15c2b561bfc3",
                    "mixHash" : "0x8bdc9d015c655efe727761d3c92314ccba9c577b2e137409754475d386a10f0c",
                    "nonce" : "0xd9029656fc0f7566",
                    "number" : "0x01",
                    "parentHash" : "0xbfc35b1139326881645595133b5047cd1e365a6a77a80955bdf7fff757a50f8b",
                    "receiptTrie" : "0x22b7eaf68ab2ac32e16248b8b9a9cc1bc41058cfea6f2fc587f6cfe145e6508e",
                    "stateRoot" : "0xb646ab6e48fb7aef27cb6be6e9334f243abb12dc353559e5a1d11d1357d98a99",
                    "timestamp" : "0x03e8",
                    "transactionsTrie" : "0xc1835b5fb341ee26c083678aaca92a377f415d51b7dcd30c74f364cc4015ab83",
                    "uncleHash" : "0x1dcc4de8dec75d7aab85b567b6ccd41ad312451b948a7413f0a142fd40d49347"
                },
                "rlp" : "0xf90265f901fda0bfc35b1139326881645595133b5047cd1e365a6a77a80955bdf7fff757a50f8ba01dcc4de8dec75d7aab85b567b6ccd41ad312451b948a7413f0a142fd40d49347942adc25665018aa1fe0e6bc666dac8fc2697ff9baa0b646ab6e48fb7aef27cb6be6e9334f243abb12dc353559e5a1d11d1357d98a99a0c1835b5fb341ee26c083678aaca92a377f415d51b7dcd30c74f364cc4015ab83a022b7eaf68ab2ac32e16248b8b9a9cc1bc41058cfea6f2fc587f6cfe145e6508eb9010000000000000000000000000000000000000000000000000000000000000000000000000000000000000000000000000000000000000000000000000000000000000000000000000000000000000000000000000000000000000000000000000000000000000000000000000000000000000000000000000000000000000000000000000000000000000000000000000000000000000000000000000000000000000000000000000000000000000000000000000000000000000000000000000000000000000000000000000000000000000000000000000000000000000000000000000000000000000000000000000000000000000000000000000000000000830200000188027101391c9c29c0830249f08203e880a08bdc9d015c655efe727761d3c92314ccba9c577b2e137409754475d386a10f0c88d9029656fc0f7566f862f8608001830249f0940f572e5295c57f15886f9b263e2f6d2d6c7b5ec680801ca02e1a6a73fbc4dfa4772b5659eea7035139a199d3f443b597c42864fcd63ab10fa032e26fb71bc1c67b4a3425bf1f6796b510ff6508a99bad63263f3b2a669dfebec0",
                "transactions" : [
                    {
                        "data" : "",
                        "gasLimit" : "0x0249f0",
                        "gasPrice" : "0x01",
                        "nonce" : "0x00",
                        "r" : "0x2e1a6a73fbc4dfa4772b5659eea7035139a199d3f443b597c42864fcd63ab10f",
                        "s" : "0x32e26fb71bc1c67b4a3425bf1f6796b510ff6508a99bad63263f3b2a669dfebe",
                        "to" : "0x0f572e5295c57f15886f9b263e2f6d2d6c7b5ec6",
                        "v" : "0x1c",
                        "value" : "0x00"
                    }
                ],
                "uncleHeaders" : [
                ]
            }
        ],
        "genesisBlockHeader" : {
            "bloom" : "0x00000000000000000000000000000000000000000000000000000000000000000000000000000000000000000000000000000000000000000000000000000000000000000000000000000000000000000000000000000000000000000000000000000000000000000000000000000000000000000000000000000000000000000000000000000000000000000000000000000000000000000000000000000000000000000000000000000000000000000000000000000000000000000000000000000000000000000000000000000000000000000000000000000000000000000000000000000000000000000000000000000000000000000000000000000000",
            "coinbase" : "0x2adc25665018aa1fe0e6bc666dac8fc2697ff9ba",
            "difficulty" : "0x020000",
            "extraData" : "0x42",
            "gasLimit" : "0x027101391c9c29c0",
            "gasUsed" : "0x00",
            "hash" : "0xbfc35b1139326881645595133b5047cd1e365a6a77a80955bdf7fff757a50f8b",
            "mixHash" : "0x56e81f171bcc55a6ff8345e692c0f86e5b48e01b996cadc001622fb5e363b421",
            "nonce" : "0x0102030405060708",
            "number" : "0x00",
            "parentHash" : "0x0000000000000000000000000000000000000000000000000000000000000000",
            "receiptTrie" : "0x56e81f171bcc55a6ff8345e692c0f86e5b48e01b996cadc001622fb5e363b421",
            "stateRoot" : "0x9d4ca208caf95c3c049bc641dc7d029e48e5862ccd23148b64f2eec2ddefd66d",
            "timestamp" : "0x03b6",
            "transactionsTrie" : "0x56e81f171bcc55a6ff8345e692c0f86e5b48e01b996cadc001622fb5e363b421",
            "uncleHash" : "0x1dcc4de8dec75d7aab85b567b6ccd41ad312451b948a7413f0a142fd40d49347"
        },
        "genesisRLP" : "0xf901fff901faa00000000000000000000000000000000000000000000000000000000000000000a01dcc4de8dec75d7aab85b567b6ccd41ad312451b948a7413f0a142fd40d49347942adc25665018aa1fe0e6bc666dac8fc2697ff9baa09d4ca208caf95c3c049bc641dc7d029e48e5862ccd23148b64f2eec2ddefd66da056e81f171bcc55a6ff8345e692c0f86e5b48e01b996cadc001622fb5e363b421a056e81f171bcc55a6ff8345e692c0f86e5b48e01b996cadc001622fb5e363b421b9010000000000000000000000000000000000000000000000000000000000000000000000000000000000000000000000000000000000000000000000000000000000000000000000000000000000000000000000000000000000000000000000000000000000000000000000000000000000000000000000000000000000000000000000000000000000000000000000000000000000000000000000000000000000000000000000000000000000000000000000000000000000000000000000000000000000000000000000000000000000000000000000000000000000000000000000000000000000000000000000000000000000000000000000000000000000830200008088027101391c9c29c0808203b642a056e81f171bcc55a6ff8345e692c0f86e5b48e01b996cadc001622fb5e363b421880102030405060708c0c0",
        "lastblockhash" : "0x9cd4cf5405e27c6e2b4dac7f5dca34f05e24ed29af6e78f9933f15c2b561bfc3",
        "network" : "EIP158",
        "postState" : {
            "0x0f572e5295c57f15886f9b263e2f6d2d6c7b5ec6" : {
                "balance" : "0x0de0b6b3a7640000",
                "code" : "0x600160005263ffffffff6000f3",
                "nonce" : "0x00",
                "storage" : {
                }
            },
            "0x2adc25665018aa1fe0e6bc666dac8fc2697ff9ba" : {
                "balance" : "0x4563918244f649f0",
                "code" : "",
                "nonce" : "0x00",
                "storage" : {
                }
            },
            "0xa94f5374fce5edbc8e2a8697c15331677e6ebf0b" : {
                "balance" : "0x186a0c3b1e175790",
                "code" : "",
                "nonce" : "0x01",
                "storage" : {
                }
            }
        },
        "pre" : {
            "0x0f572e5295c57f15886f9b263e2f6d2d6c7b5ec6" : {
                "balance" : "0x0de0b6b3a7640000",
                "code" : "0x600160005263ffffffff6000f3",
                "nonce" : "0x00",
                "storage" : {
                }
            },
            "0xa94f5374fce5edbc8e2a8697c15331677e6ebf0b" : {
                "balance" : "0x186a0c3b1e19a180",
                "code" : "",
                "nonce" : "0x00",
                "storage" : {
                }
            }
        }
    },
    "mload32bitBound_return2_d0g0v0_Frontier" : {
        "_info" : {
            "comment" : "",
            "filledwith" : "cpp-1.3.0+commit.6e0ce939.Linux.g++",
            "lllcversion" : "Version: 0.4.18-develop.2017.9.25+commit.a72237f2.Linux.g++",
            "source" : "src/BlockchainTestsFiller/GeneralStateTests/stMemoryStressTest/mload32bitBound_return2_d0g0v0Filler.json",
            "sourceHash" : "a19fd77cac780e33366c2268d3e0c2e11f7f6b4219acedf1222aa196333d0e9d"
        },
        "blocks" : [
            {
                "blockHeader" : {
                    "bloom" : "0x00000000000000000000000000000000000000000000000000000000000000000000000000000000000000000000000000000000000000000000000000000000000000000000000000000000000000000000000000000000000000000000000000000000000000000000000000000000000000000000000000000000000000000000000000000000000000000000000000000000000000000000000000000000000000000000000000000000000000000000000000000000000000000000000000000000000000000000000000000000000000000000000000000000000000000000000000000000000000000000000000000000000000000000000000000000",
                    "coinbase" : "0x2adc25665018aa1fe0e6bc666dac8fc2697ff9ba",
                    "difficulty" : "0x020000",
                    "extraData" : "",
                    "gasLimit" : "0x027101391c9c29c0",
                    "gasUsed" : "0x0249f0",
                    "hash" : "0x8ab0c9d66f7eae58e1938f573a6b7642a16070e9981ef93d06334e5256393a40",
                    "mixHash" : "0xffc34b8013c196c0dcc04c6aa79cff5282a4d4e8af74edf4edca41c9eb3875da",
                    "nonce" : "0x7ab46d0ce67a8b9d",
                    "number" : "0x01",
                    "parentHash" : "0xbfc35b1139326881645595133b5047cd1e365a6a77a80955bdf7fff757a50f8b",
                    "receiptTrie" : "0x22b7eaf68ab2ac32e16248b8b9a9cc1bc41058cfea6f2fc587f6cfe145e6508e",
                    "stateRoot" : "0xb646ab6e48fb7aef27cb6be6e9334f243abb12dc353559e5a1d11d1357d98a99",
                    "timestamp" : "0x03e8",
                    "transactionsTrie" : "0xc1835b5fb341ee26c083678aaca92a377f415d51b7dcd30c74f364cc4015ab83",
                    "uncleHash" : "0x1dcc4de8dec75d7aab85b567b6ccd41ad312451b948a7413f0a142fd40d49347"
                },
                "rlp" : "0xf90265f901fda0bfc35b1139326881645595133b5047cd1e365a6a77a80955bdf7fff757a50f8ba01dcc4de8dec75d7aab85b567b6ccd41ad312451b948a7413f0a142fd40d49347942adc25665018aa1fe0e6bc666dac8fc2697ff9baa0b646ab6e48fb7aef27cb6be6e9334f243abb12dc353559e5a1d11d1357d98a99a0c1835b5fb341ee26c083678aaca92a377f415d51b7dcd30c74f364cc4015ab83a022b7eaf68ab2ac32e16248b8b9a9cc1bc41058cfea6f2fc587f6cfe145e6508eb9010000000000000000000000000000000000000000000000000000000000000000000000000000000000000000000000000000000000000000000000000000000000000000000000000000000000000000000000000000000000000000000000000000000000000000000000000000000000000000000000000000000000000000000000000000000000000000000000000000000000000000000000000000000000000000000000000000000000000000000000000000000000000000000000000000000000000000000000000000000000000000000000000000000000000000000000000000000000000000000000000000000000000000000000000000000000830200000188027101391c9c29c0830249f08203e880a0ffc34b8013c196c0dcc04c6aa79cff5282a4d4e8af74edf4edca41c9eb3875da887ab46d0ce67a8b9df862f8608001830249f0940f572e5295c57f15886f9b263e2f6d2d6c7b5ec680801ca02e1a6a73fbc4dfa4772b5659eea7035139a199d3f443b597c42864fcd63ab10fa032e26fb71bc1c67b4a3425bf1f6796b510ff6508a99bad63263f3b2a669dfebec0",
                "transactions" : [
                    {
                        "data" : "",
                        "gasLimit" : "0x0249f0",
                        "gasPrice" : "0x01",
                        "nonce" : "0x00",
                        "r" : "0x2e1a6a73fbc4dfa4772b5659eea7035139a199d3f443b597c42864fcd63ab10f",
                        "s" : "0x32e26fb71bc1c67b4a3425bf1f6796b510ff6508a99bad63263f3b2a669dfebe",
                        "to" : "0x0f572e5295c57f15886f9b263e2f6d2d6c7b5ec6",
                        "v" : "0x1c",
                        "value" : "0x00"
                    }
                ],
                "uncleHeaders" : [
                ]
            }
        ],
        "genesisBlockHeader" : {
            "bloom" : "0x00000000000000000000000000000000000000000000000000000000000000000000000000000000000000000000000000000000000000000000000000000000000000000000000000000000000000000000000000000000000000000000000000000000000000000000000000000000000000000000000000000000000000000000000000000000000000000000000000000000000000000000000000000000000000000000000000000000000000000000000000000000000000000000000000000000000000000000000000000000000000000000000000000000000000000000000000000000000000000000000000000000000000000000000000000000",
            "coinbase" : "0x2adc25665018aa1fe0e6bc666dac8fc2697ff9ba",
            "difficulty" : "0x020000",
            "extraData" : "0x42",
            "gasLimit" : "0x027101391c9c29c0",
            "gasUsed" : "0x00",
            "hash" : "0xbfc35b1139326881645595133b5047cd1e365a6a77a80955bdf7fff757a50f8b",
            "mixHash" : "0x56e81f171bcc55a6ff8345e692c0f86e5b48e01b996cadc001622fb5e363b421",
            "nonce" : "0x0102030405060708",
            "number" : "0x00",
            "parentHash" : "0x0000000000000000000000000000000000000000000000000000000000000000",
            "receiptTrie" : "0x56e81f171bcc55a6ff8345e692c0f86e5b48e01b996cadc001622fb5e363b421",
            "stateRoot" : "0x9d4ca208caf95c3c049bc641dc7d029e48e5862ccd23148b64f2eec2ddefd66d",
            "timestamp" : "0x03b6",
            "transactionsTrie" : "0x56e81f171bcc55a6ff8345e692c0f86e5b48e01b996cadc001622fb5e363b421",
            "uncleHash" : "0x1dcc4de8dec75d7aab85b567b6ccd41ad312451b948a7413f0a142fd40d49347"
        },
        "genesisRLP" : "0xf901fff901faa00000000000000000000000000000000000000000000000000000000000000000a01dcc4de8dec75d7aab85b567b6ccd41ad312451b948a7413f0a142fd40d49347942adc25665018aa1fe0e6bc666dac8fc2697ff9baa09d4ca208caf95c3c049bc641dc7d029e48e5862ccd23148b64f2eec2ddefd66da056e81f171bcc55a6ff8345e692c0f86e5b48e01b996cadc001622fb5e363b421a056e81f171bcc55a6ff8345e692c0f86e5b48e01b996cadc001622fb5e363b421b9010000000000000000000000000000000000000000000000000000000000000000000000000000000000000000000000000000000000000000000000000000000000000000000000000000000000000000000000000000000000000000000000000000000000000000000000000000000000000000000000000000000000000000000000000000000000000000000000000000000000000000000000000000000000000000000000000000000000000000000000000000000000000000000000000000000000000000000000000000000000000000000000000000000000000000000000000000000000000000000000000000000000000000000000000000000000830200008088027101391c9c29c0808203b642a056e81f171bcc55a6ff8345e692c0f86e5b48e01b996cadc001622fb5e363b421880102030405060708c0c0",
        "lastblockhash" : "0x8ab0c9d66f7eae58e1938f573a6b7642a16070e9981ef93d06334e5256393a40",
        "network" : "Frontier",
        "postState" : {
            "0x0f572e5295c57f15886f9b263e2f6d2d6c7b5ec6" : {
                "balance" : "0x0de0b6b3a7640000",
                "code" : "0x600160005263ffffffff6000f3",
                "nonce" : "0x00",
                "storage" : {
                }
            },
            "0x2adc25665018aa1fe0e6bc666dac8fc2697ff9ba" : {
                "balance" : "0x4563918244f649f0",
                "code" : "",
                "nonce" : "0x00",
                "storage" : {
                }
            },
            "0xa94f5374fce5edbc8e2a8697c15331677e6ebf0b" : {
                "balance" : "0x186a0c3b1e175790",
                "code" : "",
                "nonce" : "0x01",
                "storage" : {
                }
            }
        },
        "pre" : {
            "0x0f572e5295c57f15886f9b263e2f6d2d6c7b5ec6" : {
                "balance" : "0x0de0b6b3a7640000",
                "code" : "0x600160005263ffffffff6000f3",
                "nonce" : "0x00",
                "storage" : {
                }
            },
            "0xa94f5374fce5edbc8e2a8697c15331677e6ebf0b" : {
                "balance" : "0x186a0c3b1e19a180",
                "code" : "",
                "nonce" : "0x00",
                "storage" : {
                }
            }
        }
    },
    "mload32bitBound_return2_d0g0v0_Homestead" : {
        "_info" : {
            "comment" : "",
            "filledwith" : "cpp-1.3.0+commit.6e0ce939.Linux.g++",
            "lllcversion" : "Version: 0.4.18-develop.2017.9.25+commit.a72237f2.Linux.g++",
            "source" : "src/BlockchainTestsFiller/GeneralStateTests/stMemoryStressTest/mload32bitBound_return2_d0g0v0Filler.json",
            "sourceHash" : "a19fd77cac780e33366c2268d3e0c2e11f7f6b4219acedf1222aa196333d0e9d"
        },
        "blocks" : [
            {
                "blockHeader" : {
                    "bloom" : "0x00000000000000000000000000000000000000000000000000000000000000000000000000000000000000000000000000000000000000000000000000000000000000000000000000000000000000000000000000000000000000000000000000000000000000000000000000000000000000000000000000000000000000000000000000000000000000000000000000000000000000000000000000000000000000000000000000000000000000000000000000000000000000000000000000000000000000000000000000000000000000000000000000000000000000000000000000000000000000000000000000000000000000000000000000000000",
                    "coinbase" : "0x2adc25665018aa1fe0e6bc666dac8fc2697ff9ba",
                    "difficulty" : "0x020000",
                    "extraData" : "",
                    "gasLimit" : "0x027101391c9c29c0",
                    "gasUsed" : "0x0249f0",
                    "hash" : "0x8a72ec33494a0c954aa69f67340446c66f73709356b7613b35dffcc88f0f1361",
                    "mixHash" : "0x40b4e9bb62bedb59b9358672d980e53ee5abcab291a6b865e4d2cc74d6c667d3",
                    "nonce" : "0xe77c378dbc714c97",
                    "number" : "0x01",
                    "parentHash" : "0xbfc35b1139326881645595133b5047cd1e365a6a77a80955bdf7fff757a50f8b",
                    "receiptTrie" : "0x22b7eaf68ab2ac32e16248b8b9a9cc1bc41058cfea6f2fc587f6cfe145e6508e",
                    "stateRoot" : "0xb646ab6e48fb7aef27cb6be6e9334f243abb12dc353559e5a1d11d1357d98a99",
                    "timestamp" : "0x03e8",
                    "transactionsTrie" : "0xc1835b5fb341ee26c083678aaca92a377f415d51b7dcd30c74f364cc4015ab83",
                    "uncleHash" : "0x1dcc4de8dec75d7aab85b567b6ccd41ad312451b948a7413f0a142fd40d49347"
                },
                "rlp" : "0xf90265f901fda0bfc35b1139326881645595133b5047cd1e365a6a77a80955bdf7fff757a50f8ba01dcc4de8dec75d7aab85b567b6ccd41ad312451b948a7413f0a142fd40d49347942adc25665018aa1fe0e6bc666dac8fc2697ff9baa0b646ab6e48fb7aef27cb6be6e9334f243abb12dc353559e5a1d11d1357d98a99a0c1835b5fb341ee26c083678aaca92a377f415d51b7dcd30c74f364cc4015ab83a022b7eaf68ab2ac32e16248b8b9a9cc1bc41058cfea6f2fc587f6cfe145e6508eb9010000000000000000000000000000000000000000000000000000000000000000000000000000000000000000000000000000000000000000000000000000000000000000000000000000000000000000000000000000000000000000000000000000000000000000000000000000000000000000000000000000000000000000000000000000000000000000000000000000000000000000000000000000000000000000000000000000000000000000000000000000000000000000000000000000000000000000000000000000000000000000000000000000000000000000000000000000000000000000000000000000000000000000000000000000000000830200000188027101391c9c29c0830249f08203e880a040b4e9bb62bedb59b9358672d980e53ee5abcab291a6b865e4d2cc74d6c667d388e77c378dbc714c97f862f8608001830249f0940f572e5295c57f15886f9b263e2f6d2d6c7b5ec680801ca02e1a6a73fbc4dfa4772b5659eea7035139a199d3f443b597c42864fcd63ab10fa032e26fb71bc1c67b4a3425bf1f6796b510ff6508a99bad63263f3b2a669dfebec0",
                "transactions" : [
                    {
                        "data" : "",
                        "gasLimit" : "0x0249f0",
                        "gasPrice" : "0x01",
                        "nonce" : "0x00",
                        "r" : "0x2e1a6a73fbc4dfa4772b5659eea7035139a199d3f443b597c42864fcd63ab10f",
                        "s" : "0x32e26fb71bc1c67b4a3425bf1f6796b510ff6508a99bad63263f3b2a669dfebe",
                        "to" : "0x0f572e5295c57f15886f9b263e2f6d2d6c7b5ec6",
                        "v" : "0x1c",
                        "value" : "0x00"
                    }
                ],
                "uncleHeaders" : [
                ]
            }
        ],
        "genesisBlockHeader" : {
            "bloom" : "0x00000000000000000000000000000000000000000000000000000000000000000000000000000000000000000000000000000000000000000000000000000000000000000000000000000000000000000000000000000000000000000000000000000000000000000000000000000000000000000000000000000000000000000000000000000000000000000000000000000000000000000000000000000000000000000000000000000000000000000000000000000000000000000000000000000000000000000000000000000000000000000000000000000000000000000000000000000000000000000000000000000000000000000000000000000000",
            "coinbase" : "0x2adc25665018aa1fe0e6bc666dac8fc2697ff9ba",
            "difficulty" : "0x020000",
            "extraData" : "0x42",
            "gasLimit" : "0x027101391c9c29c0",
            "gasUsed" : "0x00",
            "hash" : "0xbfc35b1139326881645595133b5047cd1e365a6a77a80955bdf7fff757a50f8b",
            "mixHash" : "0x56e81f171bcc55a6ff8345e692c0f86e5b48e01b996cadc001622fb5e363b421",
            "nonce" : "0x0102030405060708",
            "number" : "0x00",
            "parentHash" : "0x0000000000000000000000000000000000000000000000000000000000000000",
            "receiptTrie" : "0x56e81f171bcc55a6ff8345e692c0f86e5b48e01b996cadc001622fb5e363b421",
            "stateRoot" : "0x9d4ca208caf95c3c049bc641dc7d029e48e5862ccd23148b64f2eec2ddefd66d",
            "timestamp" : "0x03b6",
            "transactionsTrie" : "0x56e81f171bcc55a6ff8345e692c0f86e5b48e01b996cadc001622fb5e363b421",
            "uncleHash" : "0x1dcc4de8dec75d7aab85b567b6ccd41ad312451b948a7413f0a142fd40d49347"
        },
        "genesisRLP" : "0xf901fff901faa00000000000000000000000000000000000000000000000000000000000000000a01dcc4de8dec75d7aab85b567b6ccd41ad312451b948a7413f0a142fd40d49347942adc25665018aa1fe0e6bc666dac8fc2697ff9baa09d4ca208caf95c3c049bc641dc7d029e48e5862ccd23148b64f2eec2ddefd66da056e81f171bcc55a6ff8345e692c0f86e5b48e01b996cadc001622fb5e363b421a056e81f171bcc55a6ff8345e692c0f86e5b48e01b996cadc001622fb5e363b421b9010000000000000000000000000000000000000000000000000000000000000000000000000000000000000000000000000000000000000000000000000000000000000000000000000000000000000000000000000000000000000000000000000000000000000000000000000000000000000000000000000000000000000000000000000000000000000000000000000000000000000000000000000000000000000000000000000000000000000000000000000000000000000000000000000000000000000000000000000000000000000000000000000000000000000000000000000000000000000000000000000000000000000000000000000000000000830200008088027101391c9c29c0808203b642a056e81f171bcc55a6ff8345e692c0f86e5b48e01b996cadc001622fb5e363b421880102030405060708c0c0",
        "lastblockhash" : "0x8a72ec33494a0c954aa69f67340446c66f73709356b7613b35dffcc88f0f1361",
        "network" : "Homestead",
        "postState" : {
            "0x0f572e5295c57f15886f9b263e2f6d2d6c7b5ec6" : {
                "balance" : "0x0de0b6b3a7640000",
                "code" : "0x600160005263ffffffff6000f3",
                "nonce" : "0x00",
                "storage" : {
                }
            },
            "0x2adc25665018aa1fe0e6bc666dac8fc2697ff9ba" : {
                "balance" : "0x4563918244f649f0",
                "code" : "",
                "nonce" : "0x00",
                "storage" : {
                }
            },
            "0xa94f5374fce5edbc8e2a8697c15331677e6ebf0b" : {
                "balance" : "0x186a0c3b1e175790",
                "code" : "",
                "nonce" : "0x01",
                "storage" : {
                }
            }
        },
        "pre" : {
            "0x0f572e5295c57f15886f9b263e2f6d2d6c7b5ec6" : {
                "balance" : "0x0de0b6b3a7640000",
                "code" : "0x600160005263ffffffff6000f3",
                "nonce" : "0x00",
                "storage" : {
                }
            },
            "0xa94f5374fce5edbc8e2a8697c15331677e6ebf0b" : {
                "balance" : "0x186a0c3b1e19a180",
                "code" : "",
                "nonce" : "0x00",
                "storage" : {
                }
            }
        }
    }
}