{
    "SLOAD_Bounds_d0g0v0_Byzantium" : {
        "_info" : {
            "comment" : "",
            "filledwith" : "cpp-1.3.0+commit.6e0ce939.Linux.g++",
            "lllcversion" : "Version: 0.4.18-develop.2017.9.25+commit.a72237f2.Linux.g++",
            "source" : "src/BlockchainTestsFiller/GeneralStateTests/stMemoryStressTest/SLOAD_Bounds_d0g0v0Filler.json",
            "sourceHash" : "8770eb47ec16e54dc57e49de057e3e05d0f9e806d92dc74e6ca1f6bc55aa33b4"
        },
        "blocks" : [
            {
                "blockHeader" : {
                    "bloom" : "0x00000000000000000000000000000000000000000000000000000000000000000000000000000000000000000000000000000000000000000000000000000000000000000000000000000000000000000000000000000000000000000000000000000000000000000000000000000000000000000000000000000000000000000000000000000000000000000000000000000000000000000000000000000000000000000000000000000000000000000000000000000000000000000000000000000000000000000000000000000000000000000000000000000000000000000000000000000000000000000000000000000000000000000000000000000000",
                    "coinbase" : "0x2adc25665018aa1fe0e6bc666dac8fc2697ff9ba",
                    "difficulty" : "0x020000",
                    "extraData" : "",
                    "gasLimit" : "0x7fffffffffffffff",
                    "gasUsed" : "0x5607",
                    "hash" : "0xfcd431e1d0750a331fad33f0576cd5717092cd7a9a8c99fb17067b98402789c9",
                    "mixHash" : "0x06513d49870a1c946b8a66330c41d099a2cb8201f27e9cad279e3fa5a0d026ea",
                    "nonce" : "0x01060b78d0b669d2",
                    "number" : "0x01",
                    "parentHash" : "0xe75c2cd928756e0e6cd00b2596231f07b3e5a78badbfb87386f0cae4750fb6ac",
                    "receiptTrie" : "0x644ee48cdc111de37c343917bf716ef36db89974036b684a38ecc8ba57295665",
                    "stateRoot" : "0x8b9191f37c46b8c24bd6d5eb4099ec51f36c946737b3316aa3396765730251df",
                    "timestamp" : "0x03e8",
                    "transactionsTrie" : "0x20ba9b55d8fc4eca7a8962efa4eaa263e5b5d9e0bb537692518fd1649965ac04",
                    "uncleHash" : "0x1dcc4de8dec75d7aab85b567b6ccd41ad312451b948a7413f0a142fd40d49347"
                },
                "rlp" : "0xf90264f901fca0e75c2cd928756e0e6cd00b2596231f07b3e5a78badbfb87386f0cae4750fb6aca01dcc4de8dec75d7aab85b567b6ccd41ad312451b948a7413f0a142fd40d49347942adc25665018aa1fe0e6bc666dac8fc2697ff9baa08b9191f37c46b8c24bd6d5eb4099ec51f36c946737b3316aa3396765730251dfa020ba9b55d8fc4eca7a8962efa4eaa263e5b5d9e0bb537692518fd1649965ac04a0644ee48cdc111de37c343917bf716ef36db89974036b684a38ecc8ba57295665b90100000000000000000000000000000000000000000000000000000000000000000000000000000000000000000000000000000000000000000000000000000000000000000000000000000000000000000000000000000000000000000000000000000000000000000000000000000000000000000000000000000000000000000000000000000000000000000000000000000000000000000000000000000000000000000000000000000000000000000000000000000000000000000000000000000000000000000000000000000000000000000000000000000000000000000000000000000000000000000000000000000000000000000000000000000000008302000001887fffffffffffffff8256078203e880a006513d49870a1c946b8a66330c41d099a2cb8201f27e9cad279e3fa5a0d026ea8801060b78d0b669d2f862f8608001830249f094100000000000000000000000000000000000000001801ba0a8d69db5cc7b988975447a2e77fa471a04e8738915df60767b3104a95bf95c1aa030d6d7f9cd259c5937c46412312a382eabaf62794a7f6d6183891f864057feecc0",
                "transactions" : [
                    {
                        "data" : "",
                        "gasLimit" : "0x0249f0",
                        "gasPrice" : "0x01",
                        "nonce" : "0x00",
                        "r" : "0xa8d69db5cc7b988975447a2e77fa471a04e8738915df60767b3104a95bf95c1a",
                        "s" : "0x30d6d7f9cd259c5937c46412312a382eabaf62794a7f6d6183891f864057feec",
                        "to" : "0x1000000000000000000000000000000000000000",
                        "v" : "0x1b",
                        "value" : "0x01"
                    }
                ],
                "uncleHeaders" : [
                ]
            }
        ],
        "genesisBlockHeader" : {
            "bloom" : "0x00000000000000000000000000000000000000000000000000000000000000000000000000000000000000000000000000000000000000000000000000000000000000000000000000000000000000000000000000000000000000000000000000000000000000000000000000000000000000000000000000000000000000000000000000000000000000000000000000000000000000000000000000000000000000000000000000000000000000000000000000000000000000000000000000000000000000000000000000000000000000000000000000000000000000000000000000000000000000000000000000000000000000000000000000000000",
            "coinbase" : "0x2adc25665018aa1fe0e6bc666dac8fc2697ff9ba",
            "difficulty" : "0x020000",
            "extraData" : "0x42",
            "gasLimit" : "0x7fffffffffffffff",
            "gasUsed" : "0x00",
            "hash" : "0xe75c2cd928756e0e6cd00b2596231f07b3e5a78badbfb87386f0cae4750fb6ac",
            "mixHash" : "0x56e81f171bcc55a6ff8345e692c0f86e5b48e01b996cadc001622fb5e363b421",
            "nonce" : "0x0102030405060708",
            "number" : "0x00",
            "parentHash" : "0x0000000000000000000000000000000000000000000000000000000000000000",
            "receiptTrie" : "0x56e81f171bcc55a6ff8345e692c0f86e5b48e01b996cadc001622fb5e363b421",
            "stateRoot" : "0x75f4960f293e9000b203bc3359992ecd3ae4b4a8b95bdcb31537a252ede7e309",
            "timestamp" : "0x03b6",
            "transactionsTrie" : "0x56e81f171bcc55a6ff8345e692c0f86e5b48e01b996cadc001622fb5e363b421",
            "uncleHash" : "0x1dcc4de8dec75d7aab85b567b6ccd41ad312451b948a7413f0a142fd40d49347"
        },
        "genesisRLP" : "0xf901fff901faa00000000000000000000000000000000000000000000000000000000000000000a01dcc4de8dec75d7aab85b567b6ccd41ad312451b948a7413f0a142fd40d49347942adc25665018aa1fe0e6bc666dac8fc2697ff9baa075f4960f293e9000b203bc3359992ecd3ae4b4a8b95bdcb31537a252ede7e309a056e81f171bcc55a6ff8345e692c0f86e5b48e01b996cadc001622fb5e363b421a056e81f171bcc55a6ff8345e692c0f86e5b48e01b996cadc001622fb5e363b421b90100000000000000000000000000000000000000000000000000000000000000000000000000000000000000000000000000000000000000000000000000000000000000000000000000000000000000000000000000000000000000000000000000000000000000000000000000000000000000000000000000000000000000000000000000000000000000000000000000000000000000000000000000000000000000000000000000000000000000000000000000000000000000000000000000000000000000000000000000000000000000000000000000000000000000000000000000000000000000000000000000000000000000000000000000000000008302000080887fffffffffffffff808203b642a056e81f171bcc55a6ff8345e692c0f86e5b48e01b996cadc001622fb5e363b421880102030405060708c0c0",
        "lastblockhash" : "0xfcd431e1d0750a331fad33f0576cd5717092cd7a9a8c99fb17067b98402789c9",
        "network" : "Byzantium",
        "postState" : {
            "0x1000000000000000000000000000000000000000" : {
                "balance" : "0x01",
                "code" : "0x6000545063ffffffff545067ffffffffffffffff54506fffffffffffffffffffffffffffffffff54507fffffffffffffffffffffffffffffffffffffffffffffffffffffffffffffffff54",
                "nonce" : "0x00",
                "storage" : {
                }
            },
            "0x2adc25665018aa1fe0e6bc666dac8fc2697ff9ba" : {
                "balance" : "0x29a2241af62c5607",
                "code" : "",
                "nonce" : "0x00",
                "storage" : {
                }
            },
            "0xa94f5374fce5edbc8e2a8697c15331677e6ebf0b" : {
                "balance" : "0x07ffffffffffffffa9f7",
                "code" : "",
                "nonce" : "0x01",
                "storage" : {
                }
            }
        },
        "pre" : {
            "0x1000000000000000000000000000000000000000" : {
                "balance" : "0x00",
                "code" : "0x6000545063ffffffff545067ffffffffffffffff54506fffffffffffffffffffffffffffffffff54507fffffffffffffffffffffffffffffffffffffffffffffffffffffffffffffffff54",
                "nonce" : "0x00",
                "storage" : {
                }
            },
            "0xa94f5374fce5edbc8e2a8697c15331677e6ebf0b" : {
                "balance" : "0x07ffffffffffffffffff",
                "code" : "",
                "nonce" : "0x00",
                "storage" : {
                }
            }
        }
    },
    "SLOAD_Bounds_d0g0v0_EIP150" : {
        "_info" : {
            "comment" : "",
            "filledwith" : "cpp-1.3.0+commit.6e0ce939.Linux.g++",
            "lllcversion" : "Version: 0.4.18-develop.2017.9.25+commit.a72237f2.Linux.g++",
            "source" : "src/BlockchainTestsFiller/GeneralStateTests/stMemoryStressTest/SLOAD_Bounds_d0g0v0Filler.json",
            "sourceHash" : "8770eb47ec16e54dc57e49de057e3e05d0f9e806d92dc74e6ca1f6bc55aa33b4"
        },
        "blocks" : [
            {
                "blockHeader" : {
                    "bloom" : "0x00000000000000000000000000000000000000000000000000000000000000000000000000000000000000000000000000000000000000000000000000000000000000000000000000000000000000000000000000000000000000000000000000000000000000000000000000000000000000000000000000000000000000000000000000000000000000000000000000000000000000000000000000000000000000000000000000000000000000000000000000000000000000000000000000000000000000000000000000000000000000000000000000000000000000000000000000000000000000000000000000000000000000000000000000000000",
                    "coinbase" : "0x2adc25665018aa1fe0e6bc666dac8fc2697ff9ba",
                    "difficulty" : "0x020000",
                    "extraData" : "",
                    "gasLimit" : "0x7fffffffffffffff",
                    "gasUsed" : "0x5607",
                    "hash" : "0x0f3b46c3224acb694615719ce4b368deced058e83162a449aa0f3aa15f046f6f",
                    "mixHash" : "0xc4777592fe4953b996c738b6c3549d90e61c77650d46855c9504fd910446a46c",
                    "nonce" : "0x625e762564fb32b3",
                    "number" : "0x01",
                    "parentHash" : "0xe75c2cd928756e0e6cd00b2596231f07b3e5a78badbfb87386f0cae4750fb6ac",
                    "receiptTrie" : "0x06a27e8b800fca98db75cbd4fbd22249275b5b7d3aeb5f33aef68b38527977a6",
                    "stateRoot" : "0xe5f5f1d7e93e8fdf1347debb9b92c98b9464aa3e7e323d5612413095ed51c300",
                    "timestamp" : "0x03e8",
                    "transactionsTrie" : "0x20ba9b55d8fc4eca7a8962efa4eaa263e5b5d9e0bb537692518fd1649965ac04",
                    "uncleHash" : "0x1dcc4de8dec75d7aab85b567b6ccd41ad312451b948a7413f0a142fd40d49347"
                },
                "rlp" : "0xf90264f901fca0e75c2cd928756e0e6cd00b2596231f07b3e5a78badbfb87386f0cae4750fb6aca01dcc4de8dec75d7aab85b567b6ccd41ad312451b948a7413f0a142fd40d49347942adc25665018aa1fe0e6bc666dac8fc2697ff9baa0e5f5f1d7e93e8fdf1347debb9b92c98b9464aa3e7e323d5612413095ed51c300a020ba9b55d8fc4eca7a8962efa4eaa263e5b5d9e0bb537692518fd1649965ac04a006a27e8b800fca98db75cbd4fbd22249275b5b7d3aeb5f33aef68b38527977a6b90100000000000000000000000000000000000000000000000000000000000000000000000000000000000000000000000000000000000000000000000000000000000000000000000000000000000000000000000000000000000000000000000000000000000000000000000000000000000000000000000000000000000000000000000000000000000000000000000000000000000000000000000000000000000000000000000000000000000000000000000000000000000000000000000000000000000000000000000000000000000000000000000000000000000000000000000000000000000000000000000000000000000000000000000000000000008302000001887fffffffffffffff8256078203e880a0c4777592fe4953b996c738b6c3549d90e61c77650d46855c9504fd910446a46c88625e762564fb32b3f862f8608001830249f094100000000000000000000000000000000000000001801ba0a8d69db5cc7b988975447a2e77fa471a04e8738915df60767b3104a95bf95c1aa030d6d7f9cd259c5937c46412312a382eabaf62794a7f6d6183891f864057feecc0",
                "transactions" : [
                    {
                        "data" : "",
                        "gasLimit" : "0x0249f0",
                        "gasPrice" : "0x01",
                        "nonce" : "0x00",
                        "r" : "0xa8d69db5cc7b988975447a2e77fa471a04e8738915df60767b3104a95bf95c1a",
                        "s" : "0x30d6d7f9cd259c5937c46412312a382eabaf62794a7f6d6183891f864057feec",
                        "to" : "0x1000000000000000000000000000000000000000",
                        "v" : "0x1b",
                        "value" : "0x01"
                    }
                ],
                "uncleHeaders" : [
                ]
            }
        ],
        "genesisBlockHeader" : {
            "bloom" : "0x00000000000000000000000000000000000000000000000000000000000000000000000000000000000000000000000000000000000000000000000000000000000000000000000000000000000000000000000000000000000000000000000000000000000000000000000000000000000000000000000000000000000000000000000000000000000000000000000000000000000000000000000000000000000000000000000000000000000000000000000000000000000000000000000000000000000000000000000000000000000000000000000000000000000000000000000000000000000000000000000000000000000000000000000000000000",
            "coinbase" : "0x2adc25665018aa1fe0e6bc666dac8fc2697ff9ba",
            "difficulty" : "0x020000",
            "extraData" : "0x42",
            "gasLimit" : "0x7fffffffffffffff",
            "gasUsed" : "0x00",
            "hash" : "0xe75c2cd928756e0e6cd00b2596231f07b3e5a78badbfb87386f0cae4750fb6ac",
            "mixHash" : "0x56e81f171bcc55a6ff8345e692c0f86e5b48e01b996cadc001622fb5e363b421",
            "nonce" : "0x0102030405060708",
            "number" : "0x00",
            "parentHash" : "0x0000000000000000000000000000000000000000000000000000000000000000",
            "receiptTrie" : "0x56e81f171bcc55a6ff8345e692c0f86e5b48e01b996cadc001622fb5e363b421",
            "stateRoot" : "0x75f4960f293e9000b203bc3359992ecd3ae4b4a8b95bdcb31537a252ede7e309",
            "timestamp" : "0x03b6",
            "transactionsTrie" : "0x56e81f171bcc55a6ff8345e692c0f86e5b48e01b996cadc001622fb5e363b421",
            "uncleHash" : "0x1dcc4de8dec75d7aab85b567b6ccd41ad312451b948a7413f0a142fd40d49347"
        },
        "genesisRLP" : "0xf901fff901faa00000000000000000000000000000000000000000000000000000000000000000a01dcc4de8dec75d7aab85b567b6ccd41ad312451b948a7413f0a142fd40d49347942adc25665018aa1fe0e6bc666dac8fc2697ff9baa075f4960f293e9000b203bc3359992ecd3ae4b4a8b95bdcb31537a252ede7e309a056e81f171bcc55a6ff8345e692c0f86e5b48e01b996cadc001622fb5e363b421a056e81f171bcc55a6ff8345e692c0f86e5b48e01b996cadc001622fb5e363b421b90100000000000000000000000000000000000000000000000000000000000000000000000000000000000000000000000000000000000000000000000000000000000000000000000000000000000000000000000000000000000000000000000000000000000000000000000000000000000000000000000000000000000000000000000000000000000000000000000000000000000000000000000000000000000000000000000000000000000000000000000000000000000000000000000000000000000000000000000000000000000000000000000000000000000000000000000000000000000000000000000000000000000000000000000000000000008302000080887fffffffffffffff808203b642a056e81f171bcc55a6ff8345e692c0f86e5b48e01b996cadc001622fb5e363b421880102030405060708c0c0",
        "lastblockhash" : "0x0f3b46c3224acb694615719ce4b368deced058e83162a449aa0f3aa15f046f6f",
        "network" : "EIP150",
        "postState" : {
            "0x1000000000000000000000000000000000000000" : {
                "balance" : "0x01",
                "code" : "0x6000545063ffffffff545067ffffffffffffffff54506fffffffffffffffffffffffffffffffff54507fffffffffffffffffffffffffffffffffffffffffffffffffffffffffffffffff54",
                "nonce" : "0x00",
                "storage" : {
                }
            },
            "0x2adc25665018aa1fe0e6bc666dac8fc2697ff9ba" : {
                "balance" : "0x4563918244f45607",
                "code" : "",
                "nonce" : "0x00",
                "storage" : {
                }
            },
            "0xa94f5374fce5edbc8e2a8697c15331677e6ebf0b" : {
                "balance" : "0x07ffffffffffffffa9f7",
                "code" : "",
                "nonce" : "0x01",
                "storage" : {
                }
            }
        },
        "pre" : {
            "0x1000000000000000000000000000000000000000" : {
                "balance" : "0x00",
                "code" : "0x6000545063ffffffff545067ffffffffffffffff54506fffffffffffffffffffffffffffffffff54507fffffffffffffffffffffffffffffffffffffffffffffffffffffffffffffffff54",
                "nonce" : "0x00",
                "storage" : {
                }
            },
            "0xa94f5374fce5edbc8e2a8697c15331677e6ebf0b" : {
                "balance" : "0x07ffffffffffffffffff",
                "code" : "",
                "nonce" : "0x00",
                "storage" : {
                }
            }
        }
    },
    "SLOAD_Bounds_d0g0v0_EIP158" : {
        "_info" : {
            "comment" : "",
            "filledwith" : "cpp-1.3.0+commit.6e0ce939.Linux.g++",
            "lllcversion" : "Version: 0.4.18-develop.2017.9.25+commit.a72237f2.Linux.g++",
            "source" : "src/BlockchainTestsFiller/GeneralStateTests/stMemoryStressTest/SLOAD_Bounds_d0g0v0Filler.json",
            "sourceHash" : "8770eb47ec16e54dc57e49de057e3e05d0f9e806d92dc74e6ca1f6bc55aa33b4"
        },
        "blocks" : [
            {
                "blockHeader" : {
                    "bloom" : "0x00000000000000000000000000000000000000000000000000000000000000000000000000000000000000000000000000000000000000000000000000000000000000000000000000000000000000000000000000000000000000000000000000000000000000000000000000000000000000000000000000000000000000000000000000000000000000000000000000000000000000000000000000000000000000000000000000000000000000000000000000000000000000000000000000000000000000000000000000000000000000000000000000000000000000000000000000000000000000000000000000000000000000000000000000000000",
                    "coinbase" : "0x2adc25665018aa1fe0e6bc666dac8fc2697ff9ba",
                    "difficulty" : "0x020000",
                    "extraData" : "",
                    "gasLimit" : "0x7fffffffffffffff",
                    "gasUsed" : "0x5607",
                    "hash" : "0x940670b1de89a5259bf2cf5febc2be3894dde18a0ac2cebd3701935f0cbf4555",
                    "mixHash" : "0x92fc019c3deafd623b26e2c23da3c261d53364ff88510266c4bc071c0e9e77a9",
                    "nonce" : "0x884768c28c3961f1",
                    "number" : "0x01",
                    "parentHash" : "0xe75c2cd928756e0e6cd00b2596231f07b3e5a78badbfb87386f0cae4750fb6ac",
                    "receiptTrie" : "0x06a27e8b800fca98db75cbd4fbd22249275b5b7d3aeb5f33aef68b38527977a6",
                    "stateRoot" : "0xe5f5f1d7e93e8fdf1347debb9b92c98b9464aa3e7e323d5612413095ed51c300",
                    "timestamp" : "0x03e8",
                    "transactionsTrie" : "0x20ba9b55d8fc4eca7a8962efa4eaa263e5b5d9e0bb537692518fd1649965ac04",
                    "uncleHash" : "0x1dcc4de8dec75d7aab85b567b6ccd41ad312451b948a7413f0a142fd40d49347"
                },
                "rlp" : "0xf90264f901fca0e75c2cd928756e0e6cd00b2596231f07b3e5a78badbfb87386f0cae4750fb6aca01dcc4de8dec75d7aab85b567b6ccd41ad312451b948a7413f0a142fd40d49347942adc25665018aa1fe0e6bc666dac8fc2697ff9baa0e5f5f1d7e93e8fdf1347debb9b92c98b9464aa3e7e323d5612413095ed51c300a020ba9b55d8fc4eca7a8962efa4eaa263e5b5d9e0bb537692518fd1649965ac04a006a27e8b800fca98db75cbd4fbd22249275b5b7d3aeb5f33aef68b38527977a6b90100000000000000000000000000000000000000000000000000000000000000000000000000000000000000000000000000000000000000000000000000000000000000000000000000000000000000000000000000000000000000000000000000000000000000000000000000000000000000000000000000000000000000000000000000000000000000000000000000000000000000000000000000000000000000000000000000000000000000000000000000000000000000000000000000000000000000000000000000000000000000000000000000000000000000000000000000000000000000000000000000000000000000000000000000000000008302000001887fffffffffffffff8256078203e880a092fc019c3deafd623b26e2c23da3c261d53364ff88510266c4bc071c0e9e77a988884768c28c3961f1f862f8608001830249f094100000000000000000000000000000000000000001801ba0a8d69db5cc7b988975447a2e77fa471a04e8738915df60767b3104a95bf95c1aa030d6d7f9cd259c5937c46412312a382eabaf62794a7f6d6183891f864057feecc0",
                "transactions" : [
                    {
                        "data" : "",
                        "gasLimit" : "0x0249f0",
                        "gasPrice" : "0x01",
                        "nonce" : "0x00",
                        "r" : "0xa8d69db5cc7b988975447a2e77fa471a04e8738915df60767b3104a95bf95c1a",
                        "s" : "0x30d6d7f9cd259c5937c46412312a382eabaf62794a7f6d6183891f864057feec",
                        "to" : "0x1000000000000000000000000000000000000000",
                        "v" : "0x1b",
                        "value" : "0x01"
                    }
                ],
                "uncleHeaders" : [
                ]
            }
        ],
        "genesisBlockHeader" : {
            "bloom" : "0x00000000000000000000000000000000000000000000000000000000000000000000000000000000000000000000000000000000000000000000000000000000000000000000000000000000000000000000000000000000000000000000000000000000000000000000000000000000000000000000000000000000000000000000000000000000000000000000000000000000000000000000000000000000000000000000000000000000000000000000000000000000000000000000000000000000000000000000000000000000000000000000000000000000000000000000000000000000000000000000000000000000000000000000000000000000",
            "coinbase" : "0x2adc25665018aa1fe0e6bc666dac8fc2697ff9ba",
            "difficulty" : "0x020000",
            "extraData" : "0x42",
            "gasLimit" : "0x7fffffffffffffff",
            "gasUsed" : "0x00",
            "hash" : "0xe75c2cd928756e0e6cd00b2596231f07b3e5a78badbfb87386f0cae4750fb6ac",
            "mixHash" : "0x56e81f171bcc55a6ff8345e692c0f86e5b48e01b996cadc001622fb5e363b421",
            "nonce" : "0x0102030405060708",
            "number" : "0x00",
            "parentHash" : "0x0000000000000000000000000000000000000000000000000000000000000000",
            "receiptTrie" : "0x56e81f171bcc55a6ff8345e692c0f86e5b48e01b996cadc001622fb5e363b421",
            "stateRoot" : "0x75f4960f293e9000b203bc3359992ecd3ae4b4a8b95bdcb31537a252ede7e309",
            "timestamp" : "0x03b6",
            "transactionsTrie" : "0x56e81f171bcc55a6ff8345e692c0f86e5b48e01b996cadc001622fb5e363b421",
            "uncleHash" : "0x1dcc4de8dec75d7aab85b567b6ccd41ad312451b948a7413f0a142fd40d49347"
        },
        "genesisRLP" : "0xf901fff901faa00000000000000000000000000000000000000000000000000000000000000000a01dcc4de8dec75d7aab85b567b6ccd41ad312451b948a7413f0a142fd40d49347942adc25665018aa1fe0e6bc666dac8fc2697ff9baa075f4960f293e9000b203bc3359992ecd3ae4b4a8b95bdcb31537a252ede7e309a056e81f171bcc55a6ff8345e692c0f86e5b48e01b996cadc001622fb5e363b421a056e81f171bcc55a6ff8345e692c0f86e5b48e01b996cadc001622fb5e363b421b90100000000000000000000000000000000000000000000000000000000000000000000000000000000000000000000000000000000000000000000000000000000000000000000000000000000000000000000000000000000000000000000000000000000000000000000000000000000000000000000000000000000000000000000000000000000000000000000000000000000000000000000000000000000000000000000000000000000000000000000000000000000000000000000000000000000000000000000000000000000000000000000000000000000000000000000000000000000000000000000000000000000000000000000000000000000008302000080887fffffffffffffff808203b642a056e81f171bcc55a6ff8345e692c0f86e5b48e01b996cadc001622fb5e363b421880102030405060708c0c0",
        "lastblockhash" : "0x940670b1de89a5259bf2cf5febc2be3894dde18a0ac2cebd3701935f0cbf4555",
        "network" : "EIP158",
        "postState" : {
            "0x1000000000000000000000000000000000000000" : {
                "balance" : "0x01",
                "code" : "0x6000545063ffffffff545067ffffffffffffffff54506fffffffffffffffffffffffffffffffff54507fffffffffffffffffffffffffffffffffffffffffffffffffffffffffffffffff54",
                "nonce" : "0x00",
                "storage" : {
                }
            },
            "0x2adc25665018aa1fe0e6bc666dac8fc2697ff9ba" : {
                "balance" : "0x4563918244f45607",
                "code" : "",
                "nonce" : "0x00",
                "storage" : {
                }
            },
            "0xa94f5374fce5edbc8e2a8697c15331677e6ebf0b" : {
                "balance" : "0x07ffffffffffffffa9f7",
                "code" : "",
                "nonce" : "0x01",
                "storage" : {
                }
            }
        },
        "pre" : {
            "0x1000000000000000000000000000000000000000" : {
                "balance" : "0x00",
                "code" : "0x6000545063ffffffff545067ffffffffffffffff54506fffffffffffffffffffffffffffffffff54507fffffffffffffffffffffffffffffffffffffffffffffffffffffffffffffffff54",
                "nonce" : "0x00",
                "storage" : {
                }
            },
            "0xa94f5374fce5edbc8e2a8697c15331677e6ebf0b" : {
                "balance" : "0x07ffffffffffffffffff",
                "code" : "",
                "nonce" : "0x00",
                "storage" : {
                }
            }
        }
    },
    "SLOAD_Bounds_d0g0v0_Frontier" : {
        "_info" : {
            "comment" : "",
            "filledwith" : "cpp-1.3.0+commit.6e0ce939.Linux.g++",
            "lllcversion" : "Version: 0.4.18-develop.2017.9.25+commit.a72237f2.Linux.g++",
            "source" : "src/BlockchainTestsFiller/GeneralStateTests/stMemoryStressTest/SLOAD_Bounds_d0g0v0Filler.json",
            "sourceHash" : "8770eb47ec16e54dc57e49de057e3e05d0f9e806d92dc74e6ca1f6bc55aa33b4"
        },
        "blocks" : [
            {
                "blockHeader" : {
                    "bloom" : "0x00000000000000000000000000000000000000000000000000000000000000000000000000000000000000000000000000000000000000000000000000000000000000000000000000000000000000000000000000000000000000000000000000000000000000000000000000000000000000000000000000000000000000000000000000000000000000000000000000000000000000000000000000000000000000000000000000000000000000000000000000000000000000000000000000000000000000000000000000000000000000000000000000000000000000000000000000000000000000000000000000000000000000000000000000000000",
                    "coinbase" : "0x2adc25665018aa1fe0e6bc666dac8fc2697ff9ba",
                    "difficulty" : "0x020000",
                    "extraData" : "",
                    "gasLimit" : "0x7fffffffffffffff",
                    "gasUsed" : "0x5319",
                    "hash" : "0x6f89fa82c713e027a3eb2ce0c509189f88e94db420034ee699c4abfb9d5c49d3",
                    "mixHash" : "0x918853f67bae32717e5d8f432422acbc0c08f46827ce066e533066504e82f81b",
                    "nonce" : "0xcb012a05062fe190",
                    "number" : "0x01",
                    "parentHash" : "0xe75c2cd928756e0e6cd00b2596231f07b3e5a78badbfb87386f0cae4750fb6ac",
                    "receiptTrie" : "0xa42a2d1ccb8f90d79a9c91f7e1b6fca8189d3a1aed1e216b0419ef0bc60cf273",
                    "stateRoot" : "0x259d445c487b6aff86590c67a5acc7773c623a8133160d186b9c53824cb403ee",
                    "timestamp" : "0x03e8",
                    "transactionsTrie" : "0x20ba9b55d8fc4eca7a8962efa4eaa263e5b5d9e0bb537692518fd1649965ac04",
                    "uncleHash" : "0x1dcc4de8dec75d7aab85b567b6ccd41ad312451b948a7413f0a142fd40d49347"
                },
                "rlp" : "0xf90264f901fca0e75c2cd928756e0e6cd00b2596231f07b3e5a78badbfb87386f0cae4750fb6aca01dcc4de8dec75d7aab85b567b6ccd41ad312451b948a7413f0a142fd40d49347942adc25665018aa1fe0e6bc666dac8fc2697ff9baa0259d445c487b6aff86590c67a5acc7773c623a8133160d186b9c53824cb403eea020ba9b55d8fc4eca7a8962efa4eaa263e5b5d9e0bb537692518fd1649965ac04a0a42a2d1ccb8f90d79a9c91f7e1b6fca8189d3a1aed1e216b0419ef0bc60cf273b90100000000000000000000000000000000000000000000000000000000000000000000000000000000000000000000000000000000000000000000000000000000000000000000000000000000000000000000000000000000000000000000000000000000000000000000000000000000000000000000000000000000000000000000000000000000000000000000000000000000000000000000000000000000000000000000000000000000000000000000000000000000000000000000000000000000000000000000000000000000000000000000000000000000000000000000000000000000000000000000000000000000000000000000000000000000008302000001887fffffffffffffff8253198203e880a0918853f67bae32717e5d8f432422acbc0c08f46827ce066e533066504e82f81b88cb012a05062fe190f862f8608001830249f094100000000000000000000000000000000000000001801ba0a8d69db5cc7b988975447a2e77fa471a04e8738915df60767b3104a95bf95c1aa030d6d7f9cd259c5937c46412312a382eabaf62794a7f6d6183891f864057feecc0",
                "transactions" : [
                    {
                        "data" : "",
                        "gasLimit" : "0x0249f0",
                        "gasPrice" : "0x01",
                        "nonce" : "0x00",
                        "r" : "0xa8d69db5cc7b988975447a2e77fa471a04e8738915df60767b3104a95bf95c1a",
                        "s" : "0x30d6d7f9cd259c5937c46412312a382eabaf62794a7f6d6183891f864057feec",
                        "to" : "0x1000000000000000000000000000000000000000",
                        "v" : "0x1b",
                        "value" : "0x01"
                    }
                ],
                "uncleHeaders" : [
                ]
            }
        ],
        "genesisBlockHeader" : {
            "bloom" : "0x00000000000000000000000000000000000000000000000000000000000000000000000000000000000000000000000000000000000000000000000000000000000000000000000000000000000000000000000000000000000000000000000000000000000000000000000000000000000000000000000000000000000000000000000000000000000000000000000000000000000000000000000000000000000000000000000000000000000000000000000000000000000000000000000000000000000000000000000000000000000000000000000000000000000000000000000000000000000000000000000000000000000000000000000000000000",
            "coinbase" : "0x2adc25665018aa1fe0e6bc666dac8fc2697ff9ba",
            "difficulty" : "0x020000",
            "extraData" : "0x42",
            "gasLimit" : "0x7fffffffffffffff",
            "gasUsed" : "0x00",
            "hash" : "0xe75c2cd928756e0e6cd00b2596231f07b3e5a78badbfb87386f0cae4750fb6ac",
            "mixHash" : "0x56e81f171bcc55a6ff8345e692c0f86e5b48e01b996cadc001622fb5e363b421",
            "nonce" : "0x0102030405060708",
            "number" : "0x00",
            "parentHash" : "0x0000000000000000000000000000000000000000000000000000000000000000",
            "receiptTrie" : "0x56e81f171bcc55a6ff8345e692c0f86e5b48e01b996cadc001622fb5e363b421",
            "stateRoot" : "0x75f4960f293e9000b203bc3359992ecd3ae4b4a8b95bdcb31537a252ede7e309",
            "timestamp" : "0x03b6",
            "transactionsTrie" : "0x56e81f171bcc55a6ff8345e692c0f86e5b48e01b996cadc001622fb5e363b421",
            "uncleHash" : "0x1dcc4de8dec75d7aab85b567b6ccd41ad312451b948a7413f0a142fd40d49347"
        },
        "genesisRLP" : "0xf901fff901faa00000000000000000000000000000000000000000000000000000000000000000a01dcc4de8dec75d7aab85b567b6ccd41ad312451b948a7413f0a142fd40d49347942adc25665018aa1fe0e6bc666dac8fc2697ff9baa075f4960f293e9000b203bc3359992ecd3ae4b4a8b95bdcb31537a252ede7e309a056e81f171bcc55a6ff8345e692c0f86e5b48e01b996cadc001622fb5e363b421a056e81f171bcc55a6ff8345e692c0f86e5b48e01b996cadc001622fb5e363b421b90100000000000000000000000000000000000000000000000000000000000000000000000000000000000000000000000000000000000000000000000000000000000000000000000000000000000000000000000000000000000000000000000000000000000000000000000000000000000000000000000000000000000000000000000000000000000000000000000000000000000000000000000000000000000000000000000000000000000000000000000000000000000000000000000000000000000000000000000000000000000000000000000000000000000000000000000000000000000000000000000000000000000000000000000000000000008302000080887fffffffffffffff808203b642a056e81f171bcc55a6ff8345e692c0f86e5b48e01b996cadc001622fb5e363b421880102030405060708c0c0",
        "lastblockhash" : "0x6f89fa82c713e027a3eb2ce0c509189f88e94db420034ee699c4abfb9d5c49d3",
        "network" : "Frontier",
        "postState" : {
            "0x1000000000000000000000000000000000000000" : {
                "balance" : "0x01",
                "code" : "0x6000545063ffffffff545067ffffffffffffffff54506fffffffffffffffffffffffffffffffff54507fffffffffffffffffffffffffffffffffffffffffffffffffffffffffffffffff54",
                "nonce" : "0x00",
                "storage" : {
                }
            },
            "0x2adc25665018aa1fe0e6bc666dac8fc2697ff9ba" : {
                "balance" : "0x4563918244f45319",
                "code" : "",
                "nonce" : "0x00",
                "storage" : {
                }
            },
            "0xa94f5374fce5edbc8e2a8697c15331677e6ebf0b" : {
                "balance" : "0x07fffffffffffffface5",
                "code" : "",
                "nonce" : "0x01",
                "storage" : {
                }
            }
        },
        "pre" : {
            "0x1000000000000000000000000000000000000000" : {
                "balance" : "0x00",
                "code" : "0x6000545063ffffffff545067ffffffffffffffff54506fffffffffffffffffffffffffffffffff54507fffffffffffffffffffffffffffffffffffffffffffffffffffffffffffffffff54",
                "nonce" : "0x00",
                "storage" : {
                }
            },
            "0xa94f5374fce5edbc8e2a8697c15331677e6ebf0b" : {
                "balance" : "0x07ffffffffffffffffff",
                "code" : "",
                "nonce" : "0x00",
                "storage" : {
                }
            }
        }
    },
    "SLOAD_Bounds_d0g0v0_Homestead" : {
        "_info" : {
            "comment" : "",
            "filledwith" : "cpp-1.3.0+commit.6e0ce939.Linux.g++",
            "lllcversion" : "Version: 0.4.18-develop.2017.9.25+commit.a72237f2.Linux.g++",
            "source" : "src/BlockchainTestsFiller/GeneralStateTests/stMemoryStressTest/SLOAD_Bounds_d0g0v0Filler.json",
            "sourceHash" : "8770eb47ec16e54dc57e49de057e3e05d0f9e806d92dc74e6ca1f6bc55aa33b4"
        },
        "blocks" : [
            {
                "blockHeader" : {
                    "bloom" : "0x00000000000000000000000000000000000000000000000000000000000000000000000000000000000000000000000000000000000000000000000000000000000000000000000000000000000000000000000000000000000000000000000000000000000000000000000000000000000000000000000000000000000000000000000000000000000000000000000000000000000000000000000000000000000000000000000000000000000000000000000000000000000000000000000000000000000000000000000000000000000000000000000000000000000000000000000000000000000000000000000000000000000000000000000000000000",
                    "coinbase" : "0x2adc25665018aa1fe0e6bc666dac8fc2697ff9ba",
                    "difficulty" : "0x020000",
                    "extraData" : "",
                    "gasLimit" : "0x7fffffffffffffff",
                    "gasUsed" : "0x5319",
                    "hash" : "0x269a0a8e99e3fc870048db08cedaebb5d27d85918ecb0bb34138ebdd7ea97655",
                    "mixHash" : "0x4234cbcf54bd509cf109a8cd181583f856110a12866ac86ac708701c1d04b7a1",
                    "nonce" : "0x7c1510a05244c3fa",
                    "number" : "0x01",
                    "parentHash" : "0xe75c2cd928756e0e6cd00b2596231f07b3e5a78badbfb87386f0cae4750fb6ac",
                    "receiptTrie" : "0xa42a2d1ccb8f90d79a9c91f7e1b6fca8189d3a1aed1e216b0419ef0bc60cf273",
                    "stateRoot" : "0x259d445c487b6aff86590c67a5acc7773c623a8133160d186b9c53824cb403ee",
                    "timestamp" : "0x03e8",
                    "transactionsTrie" : "0x20ba9b55d8fc4eca7a8962efa4eaa263e5b5d9e0bb537692518fd1649965ac04",
                    "uncleHash" : "0x1dcc4de8dec75d7aab85b567b6ccd41ad312451b948a7413f0a142fd40d49347"
                },
                "rlp" : "0xf90264f901fca0e75c2cd928756e0e6cd00b2596231f07b3e5a78badbfb87386f0cae4750fb6aca01dcc4de8dec75d7aab85b567b6ccd41ad312451b948a7413f0a142fd40d49347942adc25665018aa1fe0e6bc666dac8fc2697ff9baa0259d445c487b6aff86590c67a5acc7773c623a8133160d186b9c53824cb403eea020ba9b55d8fc4eca7a8962efa4eaa263e5b5d9e0bb537692518fd1649965ac04a0a42a2d1ccb8f90d79a9c91f7e1b6fca8189d3a1aed1e216b0419ef0bc60cf273b90100000000000000000000000000000000000000000000000000000000000000000000000000000000000000000000000000000000000000000000000000000000000000000000000000000000000000000000000000000000000000000000000000000000000000000000000000000000000000000000000000000000000000000000000000000000000000000000000000000000000000000000000000000000000000000000000000000000000000000000000000000000000000000000000000000000000000000000000000000000000000000000000000000000000000000000000000000000000000000000000000000000000000000000000000000000008302000001887fffffffffffffff8253198203e880a04234cbcf54bd509cf109a8cd181583f856110a12866ac86ac708701c1d04b7a1887c1510a05244c3faf862f8608001830249f094100000000000000000000000000000000000000001801ba0a8d69db5cc7b988975447a2e77fa471a04e8738915df60767b3104a95bf95c1aa030d6d7f9cd259c5937c46412312a382eabaf62794a7f6d6183891f864057feecc0",
                "transactions" : [
                    {
                        "data" : "",
                        "gasLimit" : "0x0249f0",
                        "gasPrice" : "0x01",
                        "nonce" : "0x00",
                        "r" : "0xa8d69db5cc7b988975447a2e77fa471a04e8738915df60767b3104a95bf95c1a",
                        "s" : "0x30d6d7f9cd259c5937c46412312a382eabaf62794a7f6d6183891f864057feec",
                        "to" : "0x1000000000000000000000000000000000000000",
                        "v" : "0x1b",
                        "value" : "0x01"
                    }
                ],
                "uncleHeaders" : [
                ]
            }
        ],
        "genesisBlockHeader" : {
            "bloom" : "0x00000000000000000000000000000000000000000000000000000000000000000000000000000000000000000000000000000000000000000000000000000000000000000000000000000000000000000000000000000000000000000000000000000000000000000000000000000000000000000000000000000000000000000000000000000000000000000000000000000000000000000000000000000000000000000000000000000000000000000000000000000000000000000000000000000000000000000000000000000000000000000000000000000000000000000000000000000000000000000000000000000000000000000000000000000000",
            "coinbase" : "0x2adc25665018aa1fe0e6bc666dac8fc2697ff9ba",
            "difficulty" : "0x020000",
            "extraData" : "0x42",
            "gasLimit" : "0x7fffffffffffffff",
            "gasUsed" : "0x00",
            "hash" : "0xe75c2cd928756e0e6cd00b2596231f07b3e5a78badbfb87386f0cae4750fb6ac",
            "mixHash" : "0x56e81f171bcc55a6ff8345e692c0f86e5b48e01b996cadc001622fb5e363b421",
            "nonce" : "0x0102030405060708",
            "number" : "0x00",
            "parentHash" : "0x0000000000000000000000000000000000000000000000000000000000000000",
            "receiptTrie" : "0x56e81f171bcc55a6ff8345e692c0f86e5b48e01b996cadc001622fb5e363b421",
            "stateRoot" : "0x75f4960f293e9000b203bc3359992ecd3ae4b4a8b95bdcb31537a252ede7e309",
            "timestamp" : "0x03b6",
            "transactionsTrie" : "0x56e81f171bcc55a6ff8345e692c0f86e5b48e01b996cadc001622fb5e363b421",
            "uncleHash" : "0x1dcc4de8dec75d7aab85b567b6ccd41ad312451b948a7413f0a142fd40d49347"
        },
        "genesisRLP" : "0xf901fff901faa00000000000000000000000000000000000000000000000000000000000000000a01dcc4de8dec75d7aab85b567b6ccd41ad312451b948a7413f0a142fd40d49347942adc25665018aa1fe0e6bc666dac8fc2697ff9baa075f4960f293e9000b203bc3359992ecd3ae4b4a8b95bdcb31537a252ede7e309a056e81f171bcc55a6ff8345e692c0f86e5b48e01b996cadc001622fb5e363b421a056e81f171bcc55a6ff8345e692c0f86e5b48e01b996cadc001622fb5e363b421b90100000000000000000000000000000000000000000000000000000000000000000000000000000000000000000000000000000000000000000000000000000000000000000000000000000000000000000000000000000000000000000000000000000000000000000000000000000000000000000000000000000000000000000000000000000000000000000000000000000000000000000000000000000000000000000000000000000000000000000000000000000000000000000000000000000000000000000000000000000000000000000000000000000000000000000000000000000000000000000000000000000000000000000000000000000000008302000080887fffffffffffffff808203b642a056e81f171bcc55a6ff8345e692c0f86e5b48e01b996cadc001622fb5e363b421880102030405060708c0c0",
        "lastblockhash" : "0x269a0a8e99e3fc870048db08cedaebb5d27d85918ecb0bb34138ebdd7ea97655",
        "network" : "Homestead",
        "postState" : {
            "0x1000000000000000000000000000000000000000" : {
                "balance" : "0x01",
                "code" : "0x6000545063ffffffff545067ffffffffffffffff54506fffffffffffffffffffffffffffffffff54507fffffffffffffffffffffffffffffffffffffffffffffffffffffffffffffffff54",
                "nonce" : "0x00",
                "storage" : {
                }
            },
            "0x2adc25665018aa1fe0e6bc666dac8fc2697ff9ba" : {
                "balance" : "0x4563918244f45319",
                "code" : "",
                "nonce" : "0x00",
                "storage" : {
                }
            },
            "0xa94f5374fce5edbc8e2a8697c15331677e6ebf0b" : {
                "balance" : "0x07fffffffffffffface5",
                "code" : "",
                "nonce" : "0x01",
                "storage" : {
                }
            }
        },
        "pre" : {
            "0x1000000000000000000000000000000000000000" : {
                "balance" : "0x00",
                "code" : "0x6000545063ffffffff545067ffffffffffffffff54506fffffffffffffffffffffffffffffffff54507fffffffffffffffffffffffffffffffffffffffffffffffffffffffffffffffff54",
                "nonce" : "0x00",
                "storage" : {
                }
            },
            "0xa94f5374fce5edbc8e2a8697c15331677e6ebf0b" : {
                "balance" : "0x07ffffffffffffffffff",
                "code" : "",
                "nonce" : "0x00",
                "storage" : {
                }
            }
        }
    }
}