{
    "SSTORE_Bounds_d0g1v0_Byzantium" : {
        "_info" : {
            "comment" : "",
            "filledwith" : "cpp-1.3.0+commit.6e0ce939.Linux.g++",
            "lllcversion" : "Version: 0.4.18-develop.2017.9.25+commit.a72237f2.Linux.g++",
            "source" : "src/BlockchainTestsFiller/GeneralStateTests/stMemoryStressTest/SSTORE_Bounds_d0g1v0Filler.json",
            "sourceHash" : "e55bcc4fead685a480f4b0608716b3b85b55be5d9cd5da464a63296448b8dcd9"
        },
        "blocks" : [
            {
                "blockHeader" : {
                    "bloom" : "0x00000000000000000000000000000000000000000000000000000000000000000000000000000000000000000000000000000000000000000000000000000000000000000000000000000000000000000000000000000000000000000000000000000000000000000000000000000000000000000000000000000000000000000000000000000000000000000000000000000000000000000000000000000000000000000000000000000000000000000000000000000000000000000000000000000000000000000000000000000000000000000000000000000000000000000000000000000000000000000000000000000000000000000000000000000000",
                    "coinbase" : "0x2adc25665018aa1fe0e6bc666dac8fc2697ff9ba",
                    "difficulty" : "0x020000",
                    "extraData" : "",
                    "gasLimit" : "0x7fffffffffffffff",
                    "gasUsed" : "0x02c338",
                    "hash" : "0xf4c82a8f0c0fa1ca01cd045b499446b808631763199bc415128f720c8a1a1c53",
                    "mixHash" : "0x59e477751febbad4f1055fca26d1f46ab77bc690feee13933e09176e25121194",
                    "nonce" : "0xba21fc492997397a",
                    "number" : "0x01",
                    "parentHash" : "0x7fb816241bf1fa12dc4e23b2aeb0a78651adfe1c368cb7d0fab7e4af80628c97",
                    "receiptTrie" : "0xf9050c1a60a524799c646db1d98dc8237fad3d6db4a93ea6b56568a33b93fff7",
                    "stateRoot" : "0x723e8993f17ecde6d444b5b4af24ebf524de78f9f33bca9b0f5355ef29678a60",
                    "timestamp" : "0x03e8",
                    "transactionsTrie" : "0x169424331d5695b5f35e4f996370b73c523ae5fa8b48771e7a84a5157d0ee5f8",
                    "uncleHash" : "0x1dcc4de8dec75d7aab85b567b6ccd41ad312451b948a7413f0a142fd40d49347"
                },
                "rlp" : "0xf90266f901fda07fb816241bf1fa12dc4e23b2aeb0a78651adfe1c368cb7d0fab7e4af80628c97a01dcc4de8dec75d7aab85b567b6ccd41ad312451b948a7413f0a142fd40d49347942adc25665018aa1fe0e6bc666dac8fc2697ff9baa0723e8993f17ecde6d444b5b4af24ebf524de78f9f33bca9b0f5355ef29678a60a0169424331d5695b5f35e4f996370b73c523ae5fa8b48771e7a84a5157d0ee5f8a0f9050c1a60a524799c646db1d98dc8237fad3d6db4a93ea6b56568a33b93fff7b90100000000000000000000000000000000000000000000000000000000000000000000000000000000000000000000000000000000000000000000000000000000000000000000000000000000000000000000000000000000000000000000000000000000000000000000000000000000000000000000000000000000000000000000000000000000000000000000000000000000000000000000000000000000000000000000000000000000000000000000000000000000000000000000000000000000000000000000000000000000000000000000000000000000000000000000000000000000000000000000000000000000000000000000000000000000008302000001887fffffffffffffff8302c3388203e880a059e477751febbad4f1055fca26d1f46ab77bc690feee13933e09176e2512119488ba21fc492997397af863f8618001840ee6b28094100000000000000000000000000000000000000001801ca0b4d82d934cb8d0b959b87a51e42cd51d560d24a71047b2127e78830404837662a00e7c42d2e4ce666564a232a4705cf6e43a2bcf29ecbd7db39a21484d01383e75c0",
                "transactions" : [
                    {
                        "data" : "",
                        "gasLimit" : "0x0ee6b280",
                        "gasPrice" : "0x01",
                        "nonce" : "0x00",
                        "r" : "0xb4d82d934cb8d0b959b87a51e42cd51d560d24a71047b2127e78830404837662",
                        "s" : "0x0e7c42d2e4ce666564a232a4705cf6e43a2bcf29ecbd7db39a21484d01383e75",
                        "to" : "0x1000000000000000000000000000000000000000",
                        "v" : "0x1c",
                        "value" : "0x01"
                    }
                ],
                "uncleHeaders" : [
                ]
            }
        ],
        "genesisBlockHeader" : {
            "bloom" : "0x00000000000000000000000000000000000000000000000000000000000000000000000000000000000000000000000000000000000000000000000000000000000000000000000000000000000000000000000000000000000000000000000000000000000000000000000000000000000000000000000000000000000000000000000000000000000000000000000000000000000000000000000000000000000000000000000000000000000000000000000000000000000000000000000000000000000000000000000000000000000000000000000000000000000000000000000000000000000000000000000000000000000000000000000000000000",
            "coinbase" : "0x2adc25665018aa1fe0e6bc666dac8fc2697ff9ba",
            "difficulty" : "0x020000",
            "extraData" : "0x42",
            "gasLimit" : "0x7fffffffffffffff",
            "gasUsed" : "0x00",
            "hash" : "0x7fb816241bf1fa12dc4e23b2aeb0a78651adfe1c368cb7d0fab7e4af80628c97",
            "mixHash" : "0x56e81f171bcc55a6ff8345e692c0f86e5b48e01b996cadc001622fb5e363b421",
            "nonce" : "0x0102030405060708",
            "number" : "0x00",
            "parentHash" : "0x0000000000000000000000000000000000000000000000000000000000000000",
            "receiptTrie" : "0x56e81f171bcc55a6ff8345e692c0f86e5b48e01b996cadc001622fb5e363b421",
            "stateRoot" : "0xa37bbacb52776decc02e410c9c5737f66950cf80966cc4b6b55c0acef1c6996d",
            "timestamp" : "0x03b6",
            "transactionsTrie" : "0x56e81f171bcc55a6ff8345e692c0f86e5b48e01b996cadc001622fb5e363b421",
            "uncleHash" : "0x1dcc4de8dec75d7aab85b567b6ccd41ad312451b948a7413f0a142fd40d49347"
        },
        "genesisRLP" : "0xf901fff901faa00000000000000000000000000000000000000000000000000000000000000000a01dcc4de8dec75d7aab85b567b6ccd41ad312451b948a7413f0a142fd40d49347942adc25665018aa1fe0e6bc666dac8fc2697ff9baa0a37bbacb52776decc02e410c9c5737f66950cf80966cc4b6b55c0acef1c6996da056e81f171bcc55a6ff8345e692c0f86e5b48e01b996cadc001622fb5e363b421a056e81f171bcc55a6ff8345e692c0f86e5b48e01b996cadc001622fb5e363b421b90100000000000000000000000000000000000000000000000000000000000000000000000000000000000000000000000000000000000000000000000000000000000000000000000000000000000000000000000000000000000000000000000000000000000000000000000000000000000000000000000000000000000000000000000000000000000000000000000000000000000000000000000000000000000000000000000000000000000000000000000000000000000000000000000000000000000000000000000000000000000000000000000000000000000000000000000000000000000000000000000000000000000000000000000000000000008302000080887fffffffffffffff808203b642a056e81f171bcc55a6ff8345e692c0f86e5b48e01b996cadc001622fb5e363b421880102030405060708c0c0",
        "lastblockhash" : "0xf4c82a8f0c0fa1ca01cd045b499446b808631763199bc415128f720c8a1a1c53",
        "network" : "Byzantium",
        "postState" : {
            "0x1000000000000000000000000000000000000000" : {
                "balance" : "0x01",
                "code" : "0x600163ffffffff55600167ffffffffffffffff5560016fffffffffffffffffffffffffffffffff5560017fffffffffffffffffffffffffffffffffffffffffffffffffffffffffffffffff5563ffffffff60205567ffffffffffffffff6040556fffffffffffffffffffffffffffffffff6080557fffffffffffffffffffffffffffffffffffffffffffffffffffffffffffffffff61010055",
                "nonce" : "0x00",
                "storage" : {
                    "0x0100" : "0xffffffffffffffffffffffffffffffffffffffffffffffffffffffffffffffff",
                    "0x20" : "0xffffffff",
                    "0x40" : "0xffffffffffffffff",
                    "0x80" : "0xffffffffffffffffffffffffffffffff",
                    "0xffffffff" : "0x01",
                    "0xffffffffffffffff" : "0x01",
                    "0xffffffffffffffffffffffffffffffff" : "0x01",
                    "0xffffffffffffffffffffffffffffffffffffffffffffffffffffffffffffffff" : "0x01"
                }
            },
            "0x2adc25665018aa1fe0e6bc666dac8fc2697ff9ba" : {
                "balance" : "0x29a2241af62ec338",
                "code" : "",
                "nonce" : "0x00",
                "storage" : {
                }
            },
            "0xa94f5374fce5edbc8e2a8697c15331677e6ebf0b" : {
                "balance" : "0x07fffffffffffffd3cc6",
                "code" : "",
                "nonce" : "0x01",
                "storage" : {
                }
            }
        },
        "pre" : {
            "0x1000000000000000000000000000000000000000" : {
                "balance" : "0x00",
                "code" : "0x600163ffffffff55600167ffffffffffffffff5560016fffffffffffffffffffffffffffffffff5560017fffffffffffffffffffffffffffffffffffffffffffffffffffffffffffffffff5563ffffffff60205567ffffffffffffffff6040556fffffffffffffffffffffffffffffffff6080557fffffffffffffffffffffffffffffffffffffffffffffffffffffffffffffffff61010055",
                "nonce" : "0x00",
                "storage" : {
                }
            },
            "0xa94f5374fce5edbc8e2a8697c15331677e6ebf0b" : {
                "balance" : "0x07ffffffffffffffffff",
                "code" : "",
                "nonce" : "0x00",
                "storage" : {
                }
            }
        }
    },
    "SSTORE_Bounds_d0g1v0_EIP150" : {
        "_info" : {
            "comment" : "",
            "filledwith" : "cpp-1.3.0+commit.6e0ce939.Linux.g++",
            "lllcversion" : "Version: 0.4.18-develop.2017.9.25+commit.a72237f2.Linux.g++",
            "source" : "src/BlockchainTestsFiller/GeneralStateTests/stMemoryStressTest/SSTORE_Bounds_d0g1v0Filler.json",
            "sourceHash" : "e55bcc4fead685a480f4b0608716b3b85b55be5d9cd5da464a63296448b8dcd9"
        },
        "blocks" : [
            {
                "blockHeader" : {
                    "bloom" : "0x00000000000000000000000000000000000000000000000000000000000000000000000000000000000000000000000000000000000000000000000000000000000000000000000000000000000000000000000000000000000000000000000000000000000000000000000000000000000000000000000000000000000000000000000000000000000000000000000000000000000000000000000000000000000000000000000000000000000000000000000000000000000000000000000000000000000000000000000000000000000000000000000000000000000000000000000000000000000000000000000000000000000000000000000000000000",
                    "coinbase" : "0x2adc25665018aa1fe0e6bc666dac8fc2697ff9ba",
                    "difficulty" : "0x020000",
                    "extraData" : "",
                    "gasLimit" : "0x7fffffffffffffff",
                    "gasUsed" : "0x02c338",
                    "hash" : "0x0f33b865fdb7eae67b990735a35feffce9a4976d8d93669f487fd5ff81f3eae4",
                    "mixHash" : "0x1e1d8fa7bd16e5a2fb4d2a08f270947eeaa52646cca50a5f9cbd0930eb780aa9",
                    "nonce" : "0x0763e70aca16833c",
                    "number" : "0x01",
                    "parentHash" : "0x7fb816241bf1fa12dc4e23b2aeb0a78651adfe1c368cb7d0fab7e4af80628c97",
                    "receiptTrie" : "0xf13aefab7a9ed1a33de3d5abb9901550137978b417e4a9f73f4a28e62e81249f",
                    "stateRoot" : "0x44e260b024501c842890f115af4288c8121091e3b34cebb6a7cfd244b93d765d",
                    "timestamp" : "0x03e8",
                    "transactionsTrie" : "0x169424331d5695b5f35e4f996370b73c523ae5fa8b48771e7a84a5157d0ee5f8",
                    "uncleHash" : "0x1dcc4de8dec75d7aab85b567b6ccd41ad312451b948a7413f0a142fd40d49347"
                },
                "rlp" : "0xf90266f901fda07fb816241bf1fa12dc4e23b2aeb0a78651adfe1c368cb7d0fab7e4af80628c97a01dcc4de8dec75d7aab85b567b6ccd41ad312451b948a7413f0a142fd40d49347942adc25665018aa1fe0e6bc666dac8fc2697ff9baa044e260b024501c842890f115af4288c8121091e3b34cebb6a7cfd244b93d765da0169424331d5695b5f35e4f996370b73c523ae5fa8b48771e7a84a5157d0ee5f8a0f13aefab7a9ed1a33de3d5abb9901550137978b417e4a9f73f4a28e62e81249fb90100000000000000000000000000000000000000000000000000000000000000000000000000000000000000000000000000000000000000000000000000000000000000000000000000000000000000000000000000000000000000000000000000000000000000000000000000000000000000000000000000000000000000000000000000000000000000000000000000000000000000000000000000000000000000000000000000000000000000000000000000000000000000000000000000000000000000000000000000000000000000000000000000000000000000000000000000000000000000000000000000000000000000000000000000000000008302000001887fffffffffffffff8302c3388203e880a01e1d8fa7bd16e5a2fb4d2a08f270947eeaa52646cca50a5f9cbd0930eb780aa9880763e70aca16833cf863f8618001840ee6b28094100000000000000000000000000000000000000001801ca0b4d82d934cb8d0b959b87a51e42cd51d560d24a71047b2127e78830404837662a00e7c42d2e4ce666564a232a4705cf6e43a2bcf29ecbd7db39a21484d01383e75c0",
                "transactions" : [
                    {
                        "data" : "",
                        "gasLimit" : "0x0ee6b280",
                        "gasPrice" : "0x01",
                        "nonce" : "0x00",
                        "r" : "0xb4d82d934cb8d0b959b87a51e42cd51d560d24a71047b2127e78830404837662",
                        "s" : "0x0e7c42d2e4ce666564a232a4705cf6e43a2bcf29ecbd7db39a21484d01383e75",
                        "to" : "0x1000000000000000000000000000000000000000",
                        "v" : "0x1c",
                        "value" : "0x01"
                    }
                ],
                "uncleHeaders" : [
                ]
            }
        ],
        "genesisBlockHeader" : {
            "bloom" : "0x00000000000000000000000000000000000000000000000000000000000000000000000000000000000000000000000000000000000000000000000000000000000000000000000000000000000000000000000000000000000000000000000000000000000000000000000000000000000000000000000000000000000000000000000000000000000000000000000000000000000000000000000000000000000000000000000000000000000000000000000000000000000000000000000000000000000000000000000000000000000000000000000000000000000000000000000000000000000000000000000000000000000000000000000000000000",
            "coinbase" : "0x2adc25665018aa1fe0e6bc666dac8fc2697ff9ba",
            "difficulty" : "0x020000",
            "extraData" : "0x42",
            "gasLimit" : "0x7fffffffffffffff",
            "gasUsed" : "0x00",
            "hash" : "0x7fb816241bf1fa12dc4e23b2aeb0a78651adfe1c368cb7d0fab7e4af80628c97",
            "mixHash" : "0x56e81f171bcc55a6ff8345e692c0f86e5b48e01b996cadc001622fb5e363b421",
            "nonce" : "0x0102030405060708",
            "number" : "0x00",
            "parentHash" : "0x0000000000000000000000000000000000000000000000000000000000000000",
            "receiptTrie" : "0x56e81f171bcc55a6ff8345e692c0f86e5b48e01b996cadc001622fb5e363b421",
            "stateRoot" : "0xa37bbacb52776decc02e410c9c5737f66950cf80966cc4b6b55c0acef1c6996d",
            "timestamp" : "0x03b6",
            "transactionsTrie" : "0x56e81f171bcc55a6ff8345e692c0f86e5b48e01b996cadc001622fb5e363b421",
            "uncleHash" : "0x1dcc4de8dec75d7aab85b567b6ccd41ad312451b948a7413f0a142fd40d49347"
        },
        "genesisRLP" : "0xf901fff901faa00000000000000000000000000000000000000000000000000000000000000000a01dcc4de8dec75d7aab85b567b6ccd41ad312451b948a7413f0a142fd40d49347942adc25665018aa1fe0e6bc666dac8fc2697ff9baa0a37bbacb52776decc02e410c9c5737f66950cf80966cc4b6b55c0acef1c6996da056e81f171bcc55a6ff8345e692c0f86e5b48e01b996cadc001622fb5e363b421a056e81f171bcc55a6ff8345e692c0f86e5b48e01b996cadc001622fb5e363b421b90100000000000000000000000000000000000000000000000000000000000000000000000000000000000000000000000000000000000000000000000000000000000000000000000000000000000000000000000000000000000000000000000000000000000000000000000000000000000000000000000000000000000000000000000000000000000000000000000000000000000000000000000000000000000000000000000000000000000000000000000000000000000000000000000000000000000000000000000000000000000000000000000000000000000000000000000000000000000000000000000000000000000000000000000000000000008302000080887fffffffffffffff808203b642a056e81f171bcc55a6ff8345e692c0f86e5b48e01b996cadc001622fb5e363b421880102030405060708c0c0",
        "lastblockhash" : "0x0f33b865fdb7eae67b990735a35feffce9a4976d8d93669f487fd5ff81f3eae4",
        "network" : "EIP150",
        "postState" : {
            "0x1000000000000000000000000000000000000000" : {
                "balance" : "0x01",
                "code" : "0x600163ffffffff55600167ffffffffffffffff5560016fffffffffffffffffffffffffffffffff5560017fffffffffffffffffffffffffffffffffffffffffffffffffffffffffffffffff5563ffffffff60205567ffffffffffffffff6040556fffffffffffffffffffffffffffffffff6080557fffffffffffffffffffffffffffffffffffffffffffffffffffffffffffffffff61010055",
                "nonce" : "0x00",
                "storage" : {
                    "0x0100" : "0xffffffffffffffffffffffffffffffffffffffffffffffffffffffffffffffff",
                    "0x20" : "0xffffffff",
                    "0x40" : "0xffffffffffffffff",
                    "0x80" : "0xffffffffffffffffffffffffffffffff",
                    "0xffffffff" : "0x01",
                    "0xffffffffffffffff" : "0x01",
                    "0xffffffffffffffffffffffffffffffff" : "0x01",
                    "0xffffffffffffffffffffffffffffffffffffffffffffffffffffffffffffffff" : "0x01"
                }
            },
            "0x2adc25665018aa1fe0e6bc666dac8fc2697ff9ba" : {
                "balance" : "0x4563918244f6c338",
                "code" : "",
                "nonce" : "0x00",
                "storage" : {
                }
            },
            "0xa94f5374fce5edbc8e2a8697c15331677e6ebf0b" : {
                "balance" : "0x07fffffffffffffd3cc6",
                "code" : "",
                "nonce" : "0x01",
                "storage" : {
                }
            }
        },
        "pre" : {
            "0x1000000000000000000000000000000000000000" : {
                "balance" : "0x00",
                "code" : "0x600163ffffffff55600167ffffffffffffffff5560016fffffffffffffffffffffffffffffffff5560017fffffffffffffffffffffffffffffffffffffffffffffffffffffffffffffffff5563ffffffff60205567ffffffffffffffff6040556fffffffffffffffffffffffffffffffff6080557fffffffffffffffffffffffffffffffffffffffffffffffffffffffffffffffff61010055",
                "nonce" : "0x00",
                "storage" : {
                }
            },
            "0xa94f5374fce5edbc8e2a8697c15331677e6ebf0b" : {
                "balance" : "0x07ffffffffffffffffff",
                "code" : "",
                "nonce" : "0x00",
                "storage" : {
                }
            }
        }
    },
    "SSTORE_Bounds_d0g1v0_EIP158" : {
        "_info" : {
            "comment" : "",
            "filledwith" : "cpp-1.3.0+commit.6e0ce939.Linux.g++",
            "lllcversion" : "Version: 0.4.18-develop.2017.9.25+commit.a72237f2.Linux.g++",
            "source" : "src/BlockchainTestsFiller/GeneralStateTests/stMemoryStressTest/SSTORE_Bounds_d0g1v0Filler.json",
            "sourceHash" : "e55bcc4fead685a480f4b0608716b3b85b55be5d9cd5da464a63296448b8dcd9"
        },
        "blocks" : [
            {
                "blockHeader" : {
                    "bloom" : "0x00000000000000000000000000000000000000000000000000000000000000000000000000000000000000000000000000000000000000000000000000000000000000000000000000000000000000000000000000000000000000000000000000000000000000000000000000000000000000000000000000000000000000000000000000000000000000000000000000000000000000000000000000000000000000000000000000000000000000000000000000000000000000000000000000000000000000000000000000000000000000000000000000000000000000000000000000000000000000000000000000000000000000000000000000000000",
                    "coinbase" : "0x2adc25665018aa1fe0e6bc666dac8fc2697ff9ba",
                    "difficulty" : "0x020000",
                    "extraData" : "",
                    "gasLimit" : "0x7fffffffffffffff",
                    "gasUsed" : "0x02c338",
                    "hash" : "0xeb979dbde0e4fbe68db852c60e71aff9e9cff45304771da43c0c6d2b54db15a4",
                    "mixHash" : "0xd11580258c56382bece1a6731b17457970fa574781eb1a449bf1eca8015a326d",
                    "nonce" : "0xa1e3ce4c4eaa0d9b",
                    "number" : "0x01",
                    "parentHash" : "0x7fb816241bf1fa12dc4e23b2aeb0a78651adfe1c368cb7d0fab7e4af80628c97",
                    "receiptTrie" : "0xf13aefab7a9ed1a33de3d5abb9901550137978b417e4a9f73f4a28e62e81249f",
                    "stateRoot" : "0x44e260b024501c842890f115af4288c8121091e3b34cebb6a7cfd244b93d765d",
                    "timestamp" : "0x03e8",
                    "transactionsTrie" : "0x169424331d5695b5f35e4f996370b73c523ae5fa8b48771e7a84a5157d0ee5f8",
                    "uncleHash" : "0x1dcc4de8dec75d7aab85b567b6ccd41ad312451b948a7413f0a142fd40d49347"
                },
                "rlp" : "0xf90266f901fda07fb816241bf1fa12dc4e23b2aeb0a78651adfe1c368cb7d0fab7e4af80628c97a01dcc4de8dec75d7aab85b567b6ccd41ad312451b948a7413f0a142fd40d49347942adc25665018aa1fe0e6bc666dac8fc2697ff9baa044e260b024501c842890f115af4288c8121091e3b34cebb6a7cfd244b93d765da0169424331d5695b5f35e4f996370b73c523ae5fa8b48771e7a84a5157d0ee5f8a0f13aefab7a9ed1a33de3d5abb9901550137978b417e4a9f73f4a28e62e81249fb90100000000000000000000000000000000000000000000000000000000000000000000000000000000000000000000000000000000000000000000000000000000000000000000000000000000000000000000000000000000000000000000000000000000000000000000000000000000000000000000000000000000000000000000000000000000000000000000000000000000000000000000000000000000000000000000000000000000000000000000000000000000000000000000000000000000000000000000000000000000000000000000000000000000000000000000000000000000000000000000000000000000000000000000000000000000008302000001887fffffffffffffff8302c3388203e880a0d11580258c56382bece1a6731b17457970fa574781eb1a449bf1eca8015a326d88a1e3ce4c4eaa0d9bf863f8618001840ee6b28094100000000000000000000000000000000000000001801ca0b4d82d934cb8d0b959b87a51e42cd51d560d24a71047b2127e78830404837662a00e7c42d2e4ce666564a232a4705cf6e43a2bcf29ecbd7db39a21484d01383e75c0",
                "transactions" : [
                    {
                        "data" : "",
                        "gasLimit" : "0x0ee6b280",
                        "gasPrice" : "0x01",
                        "nonce" : "0x00",
                        "r" : "0xb4d82d934cb8d0b959b87a51e42cd51d560d24a71047b2127e78830404837662",
                        "s" : "0x0e7c42d2e4ce666564a232a4705cf6e43a2bcf29ecbd7db39a21484d01383e75",
                        "to" : "0x1000000000000000000000000000000000000000",
                        "v" : "0x1c",
                        "value" : "0x01"
                    }
                ],
                "uncleHeaders" : [
                ]
            }
        ],
        "genesisBlockHeader" : {
            "bloom" : "0x00000000000000000000000000000000000000000000000000000000000000000000000000000000000000000000000000000000000000000000000000000000000000000000000000000000000000000000000000000000000000000000000000000000000000000000000000000000000000000000000000000000000000000000000000000000000000000000000000000000000000000000000000000000000000000000000000000000000000000000000000000000000000000000000000000000000000000000000000000000000000000000000000000000000000000000000000000000000000000000000000000000000000000000000000000000",
            "coinbase" : "0x2adc25665018aa1fe0e6bc666dac8fc2697ff9ba",
            "difficulty" : "0x020000",
            "extraData" : "0x42",
            "gasLimit" : "0x7fffffffffffffff",
            "gasUsed" : "0x00",
            "hash" : "0x7fb816241bf1fa12dc4e23b2aeb0a78651adfe1c368cb7d0fab7e4af80628c97",
            "mixHash" : "0x56e81f171bcc55a6ff8345e692c0f86e5b48e01b996cadc001622fb5e363b421",
            "nonce" : "0x0102030405060708",
            "number" : "0x00",
            "parentHash" : "0x0000000000000000000000000000000000000000000000000000000000000000",
            "receiptTrie" : "0x56e81f171bcc55a6ff8345e692c0f86e5b48e01b996cadc001622fb5e363b421",
            "stateRoot" : "0xa37bbacb52776decc02e410c9c5737f66950cf80966cc4b6b55c0acef1c6996d",
            "timestamp" : "0x03b6",
            "transactionsTrie" : "0x56e81f171bcc55a6ff8345e692c0f86e5b48e01b996cadc001622fb5e363b421",
            "uncleHash" : "0x1dcc4de8dec75d7aab85b567b6ccd41ad312451b948a7413f0a142fd40d49347"
        },
        "genesisRLP" : "0xf901fff901faa00000000000000000000000000000000000000000000000000000000000000000a01dcc4de8dec75d7aab85b567b6ccd41ad312451b948a7413f0a142fd40d49347942adc25665018aa1fe0e6bc666dac8fc2697ff9baa0a37bbacb52776decc02e410c9c5737f66950cf80966cc4b6b55c0acef1c6996da056e81f171bcc55a6ff8345e692c0f86e5b48e01b996cadc001622fb5e363b421a056e81f171bcc55a6ff8345e692c0f86e5b48e01b996cadc001622fb5e363b421b90100000000000000000000000000000000000000000000000000000000000000000000000000000000000000000000000000000000000000000000000000000000000000000000000000000000000000000000000000000000000000000000000000000000000000000000000000000000000000000000000000000000000000000000000000000000000000000000000000000000000000000000000000000000000000000000000000000000000000000000000000000000000000000000000000000000000000000000000000000000000000000000000000000000000000000000000000000000000000000000000000000000000000000000000000000000008302000080887fffffffffffffff808203b642a056e81f171bcc55a6ff8345e692c0f86e5b48e01b996cadc001622fb5e363b421880102030405060708c0c0",
        "lastblockhash" : "0xeb979dbde0e4fbe68db852c60e71aff9e9cff45304771da43c0c6d2b54db15a4",
        "network" : "EIP158",
        "postState" : {
            "0x1000000000000000000000000000000000000000" : {
                "balance" : "0x01",
                "code" : "0x600163ffffffff55600167ffffffffffffffff5560016fffffffffffffffffffffffffffffffff5560017fffffffffffffffffffffffffffffffffffffffffffffffffffffffffffffffff5563ffffffff60205567ffffffffffffffff6040556fffffffffffffffffffffffffffffffff6080557fffffffffffffffffffffffffffffffffffffffffffffffffffffffffffffffff61010055",
                "nonce" : "0x00",
                "storage" : {
                    "0x0100" : "0xffffffffffffffffffffffffffffffffffffffffffffffffffffffffffffffff",
                    "0x20" : "0xffffffff",
                    "0x40" : "0xffffffffffffffff",
                    "0x80" : "0xffffffffffffffffffffffffffffffff",
                    "0xffffffff" : "0x01",
                    "0xffffffffffffffff" : "0x01",
                    "0xffffffffffffffffffffffffffffffff" : "0x01",
                    "0xffffffffffffffffffffffffffffffffffffffffffffffffffffffffffffffff" : "0x01"
                }
            },
            "0x2adc25665018aa1fe0e6bc666dac8fc2697ff9ba" : {
                "balance" : "0x4563918244f6c338",
                "code" : "",
                "nonce" : "0x00",
                "storage" : {
                }
            },
            "0xa94f5374fce5edbc8e2a8697c15331677e6ebf0b" : {
                "balance" : "0x07fffffffffffffd3cc6",
                "code" : "",
                "nonce" : "0x01",
                "storage" : {
                }
            }
        },
        "pre" : {
            "0x1000000000000000000000000000000000000000" : {
                "balance" : "0x00",
                "code" : "0x600163ffffffff55600167ffffffffffffffff5560016fffffffffffffffffffffffffffffffff5560017fffffffffffffffffffffffffffffffffffffffffffffffffffffffffffffffff5563ffffffff60205567ffffffffffffffff6040556fffffffffffffffffffffffffffffffff6080557fffffffffffffffffffffffffffffffffffffffffffffffffffffffffffffffff61010055",
                "nonce" : "0x00",
                "storage" : {
                }
            },
            "0xa94f5374fce5edbc8e2a8697c15331677e6ebf0b" : {
                "balance" : "0x07ffffffffffffffffff",
                "code" : "",
                "nonce" : "0x00",
                "storage" : {
                }
            }
        }
    },
    "SSTORE_Bounds_d0g1v0_Frontier" : {
        "_info" : {
            "comment" : "",
            "filledwith" : "cpp-1.3.0+commit.6e0ce939.Linux.g++",
            "lllcversion" : "Version: 0.4.18-develop.2017.9.25+commit.a72237f2.Linux.g++",
            "source" : "src/BlockchainTestsFiller/GeneralStateTests/stMemoryStressTest/SSTORE_Bounds_d0g1v0Filler.json",
            "sourceHash" : "e55bcc4fead685a480f4b0608716b3b85b55be5d9cd5da464a63296448b8dcd9"
        },
        "blocks" : [
            {
                "blockHeader" : {
                    "bloom" : "0x00000000000000000000000000000000000000000000000000000000000000000000000000000000000000000000000000000000000000000000000000000000000000000000000000000000000000000000000000000000000000000000000000000000000000000000000000000000000000000000000000000000000000000000000000000000000000000000000000000000000000000000000000000000000000000000000000000000000000000000000000000000000000000000000000000000000000000000000000000000000000000000000000000000000000000000000000000000000000000000000000000000000000000000000000000000",
                    "coinbase" : "0x2adc25665018aa1fe0e6bc666dac8fc2697ff9ba",
                    "difficulty" : "0x020000",
                    "extraData" : "",
                    "gasLimit" : "0x7fffffffffffffff",
                    "gasUsed" : "0x02c338",
                    "hash" : "0xa29ed17ade37799c05dc794806b4b9b62c0ec3ce61ca8be8803eb99abfe8d846",
                    "mixHash" : "0x768d318e7cb3b8555631ff71188aa4f78eed03adb2362559fd862dfcfe5b7db9",
                    "nonce" : "0x41438dd188e00dff",
                    "number" : "0x01",
                    "parentHash" : "0x7fb816241bf1fa12dc4e23b2aeb0a78651adfe1c368cb7d0fab7e4af80628c97",
                    "receiptTrie" : "0xf13aefab7a9ed1a33de3d5abb9901550137978b417e4a9f73f4a28e62e81249f",
                    "stateRoot" : "0x44e260b024501c842890f115af4288c8121091e3b34cebb6a7cfd244b93d765d",
                    "timestamp" : "0x03e8",
                    "transactionsTrie" : "0x169424331d5695b5f35e4f996370b73c523ae5fa8b48771e7a84a5157d0ee5f8",
                    "uncleHash" : "0x1dcc4de8dec75d7aab85b567b6ccd41ad312451b948a7413f0a142fd40d49347"
                },
                "rlp" : "0xf90266f901fda07fb816241bf1fa12dc4e23b2aeb0a78651adfe1c368cb7d0fab7e4af80628c97a01dcc4de8dec75d7aab85b567b6ccd41ad312451b948a7413f0a142fd40d49347942adc25665018aa1fe0e6bc666dac8fc2697ff9baa044e260b024501c842890f115af4288c8121091e3b34cebb6a7cfd244b93d765da0169424331d5695b5f35e4f996370b73c523ae5fa8b48771e7a84a5157d0ee5f8a0f13aefab7a9ed1a33de3d5abb9901550137978b417e4a9f73f4a28e62e81249fb90100000000000000000000000000000000000000000000000000000000000000000000000000000000000000000000000000000000000000000000000000000000000000000000000000000000000000000000000000000000000000000000000000000000000000000000000000000000000000000000000000000000000000000000000000000000000000000000000000000000000000000000000000000000000000000000000000000000000000000000000000000000000000000000000000000000000000000000000000000000000000000000000000000000000000000000000000000000000000000000000000000000000000000000000000000000008302000001887fffffffffffffff8302c3388203e880a0768d318e7cb3b8555631ff71188aa4f78eed03adb2362559fd862dfcfe5b7db98841438dd188e00dfff863f8618001840ee6b28094100000000000000000000000000000000000000001801ca0b4d82d934cb8d0b959b87a51e42cd51d560d24a71047b2127e78830404837662a00e7c42d2e4ce666564a232a4705cf6e43a2bcf29ecbd7db39a21484d01383e75c0",
                "transactions" : [
                    {
                        "data" : "",
                        "gasLimit" : "0x0ee6b280",
                        "gasPrice" : "0x01",
                        "nonce" : "0x00",
                        "r" : "0xb4d82d934cb8d0b959b87a51e42cd51d560d24a71047b2127e78830404837662",
                        "s" : "0x0e7c42d2e4ce666564a232a4705cf6e43a2bcf29ecbd7db39a21484d01383e75",
                        "to" : "0x1000000000000000000000000000000000000000",
                        "v" : "0x1c",
                        "value" : "0x01"
                    }
                ],
                "uncleHeaders" : [
                ]
            }
        ],
        "genesisBlockHeader" : {
            "bloom" : "0x00000000000000000000000000000000000000000000000000000000000000000000000000000000000000000000000000000000000000000000000000000000000000000000000000000000000000000000000000000000000000000000000000000000000000000000000000000000000000000000000000000000000000000000000000000000000000000000000000000000000000000000000000000000000000000000000000000000000000000000000000000000000000000000000000000000000000000000000000000000000000000000000000000000000000000000000000000000000000000000000000000000000000000000000000000000",
            "coinbase" : "0x2adc25665018aa1fe0e6bc666dac8fc2697ff9ba",
            "difficulty" : "0x020000",
            "extraData" : "0x42",
            "gasLimit" : "0x7fffffffffffffff",
            "gasUsed" : "0x00",
            "hash" : "0x7fb816241bf1fa12dc4e23b2aeb0a78651adfe1c368cb7d0fab7e4af80628c97",
            "mixHash" : "0x56e81f171bcc55a6ff8345e692c0f86e5b48e01b996cadc001622fb5e363b421",
            "nonce" : "0x0102030405060708",
            "number" : "0x00",
            "parentHash" : "0x0000000000000000000000000000000000000000000000000000000000000000",
            "receiptTrie" : "0x56e81f171bcc55a6ff8345e692c0f86e5b48e01b996cadc001622fb5e363b421",
            "stateRoot" : "0xa37bbacb52776decc02e410c9c5737f66950cf80966cc4b6b55c0acef1c6996d",
            "timestamp" : "0x03b6",
            "transactionsTrie" : "0x56e81f171bcc55a6ff8345e692c0f86e5b48e01b996cadc001622fb5e363b421",
            "uncleHash" : "0x1dcc4de8dec75d7aab85b567b6ccd41ad312451b948a7413f0a142fd40d49347"
        },
        "genesisRLP" : "0xf901fff901faa00000000000000000000000000000000000000000000000000000000000000000a01dcc4de8dec75d7aab85b567b6ccd41ad312451b948a7413f0a142fd40d49347942adc25665018aa1fe0e6bc666dac8fc2697ff9baa0a37bbacb52776decc02e410c9c5737f66950cf80966cc4b6b55c0acef1c6996da056e81f171bcc55a6ff8345e692c0f86e5b48e01b996cadc001622fb5e363b421a056e81f171bcc55a6ff8345e692c0f86e5b48e01b996cadc001622fb5e363b421b90100000000000000000000000000000000000000000000000000000000000000000000000000000000000000000000000000000000000000000000000000000000000000000000000000000000000000000000000000000000000000000000000000000000000000000000000000000000000000000000000000000000000000000000000000000000000000000000000000000000000000000000000000000000000000000000000000000000000000000000000000000000000000000000000000000000000000000000000000000000000000000000000000000000000000000000000000000000000000000000000000000000000000000000000000000000008302000080887fffffffffffffff808203b642a056e81f171bcc55a6ff8345e692c0f86e5b48e01b996cadc001622fb5e363b421880102030405060708c0c0",
        "lastblockhash" : "0xa29ed17ade37799c05dc794806b4b9b62c0ec3ce61ca8be8803eb99abfe8d846",
        "network" : "Frontier",
        "postState" : {
            "0x1000000000000000000000000000000000000000" : {
                "balance" : "0x01",
                "code" : "0x600163ffffffff55600167ffffffffffffffff5560016fffffffffffffffffffffffffffffffff5560017fffffffffffffffffffffffffffffffffffffffffffffffffffffffffffffffff5563ffffffff60205567ffffffffffffffff6040556fffffffffffffffffffffffffffffffff6080557fffffffffffffffffffffffffffffffffffffffffffffffffffffffffffffffff61010055",
                "nonce" : "0x00",
                "storage" : {
                    "0x0100" : "0xffffffffffffffffffffffffffffffffffffffffffffffffffffffffffffffff",
                    "0x20" : "0xffffffff",
                    "0x40" : "0xffffffffffffffff",
                    "0x80" : "0xffffffffffffffffffffffffffffffff",
                    "0xffffffff" : "0x01",
                    "0xffffffffffffffff" : "0x01",
                    "0xffffffffffffffffffffffffffffffff" : "0x01",
                    "0xffffffffffffffffffffffffffffffffffffffffffffffffffffffffffffffff" : "0x01"
                }
            },
            "0x2adc25665018aa1fe0e6bc666dac8fc2697ff9ba" : {
                "balance" : "0x4563918244f6c338",
                "code" : "",
                "nonce" : "0x00",
                "storage" : {
                }
            },
            "0xa94f5374fce5edbc8e2a8697c15331677e6ebf0b" : {
                "balance" : "0x07fffffffffffffd3cc6",
                "code" : "",
                "nonce" : "0x01",
                "storage" : {
                }
            }
        },
        "pre" : {
            "0x1000000000000000000000000000000000000000" : {
                "balance" : "0x00",
                "code" : "0x600163ffffffff55600167ffffffffffffffff5560016fffffffffffffffffffffffffffffffff5560017fffffffffffffffffffffffffffffffffffffffffffffffffffffffffffffffff5563ffffffff60205567ffffffffffffffff6040556fffffffffffffffffffffffffffffffff6080557fffffffffffffffffffffffffffffffffffffffffffffffffffffffffffffffff61010055",
                "nonce" : "0x00",
                "storage" : {
                }
            },
            "0xa94f5374fce5edbc8e2a8697c15331677e6ebf0b" : {
                "balance" : "0x07ffffffffffffffffff",
                "code" : "",
                "nonce" : "0x00",
                "storage" : {
                }
            }
        }
    },
    "SSTORE_Bounds_d0g1v0_Homestead" : {
        "_info" : {
            "comment" : "",
            "filledwith" : "cpp-1.3.0+commit.6e0ce939.Linux.g++",
            "lllcversion" : "Version: 0.4.18-develop.2017.9.25+commit.a72237f2.Linux.g++",
            "source" : "src/BlockchainTestsFiller/GeneralStateTests/stMemoryStressTest/SSTORE_Bounds_d0g1v0Filler.json",
            "sourceHash" : "e55bcc4fead685a480f4b0608716b3b85b55be5d9cd5da464a63296448b8dcd9"
        },
        "blocks" : [
            {
                "blockHeader" : {
                    "bloom" : "0x00000000000000000000000000000000000000000000000000000000000000000000000000000000000000000000000000000000000000000000000000000000000000000000000000000000000000000000000000000000000000000000000000000000000000000000000000000000000000000000000000000000000000000000000000000000000000000000000000000000000000000000000000000000000000000000000000000000000000000000000000000000000000000000000000000000000000000000000000000000000000000000000000000000000000000000000000000000000000000000000000000000000000000000000000000000",
                    "coinbase" : "0x2adc25665018aa1fe0e6bc666dac8fc2697ff9ba",
                    "difficulty" : "0x020000",
                    "extraData" : "",
                    "gasLimit" : "0x7fffffffffffffff",
                    "gasUsed" : "0x02c338",
                    "hash" : "0x118c5c6c68779163a3e8ebfe06e638fe910c62527a0c605831c2d1ab9eb6a92d",
                    "mixHash" : "0x4e52dfada048b3a3d0b6dd6ea6fbce93619c19a0336ad49e1471c04cf1a690dc",
                    "nonce" : "0x9127d70f945e6e61",
                    "number" : "0x01",
                    "parentHash" : "0x7fb816241bf1fa12dc4e23b2aeb0a78651adfe1c368cb7d0fab7e4af80628c97",
                    "receiptTrie" : "0xf13aefab7a9ed1a33de3d5abb9901550137978b417e4a9f73f4a28e62e81249f",
                    "stateRoot" : "0x44e260b024501c842890f115af4288c8121091e3b34cebb6a7cfd244b93d765d",
                    "timestamp" : "0x03e8",
                    "transactionsTrie" : "0x169424331d5695b5f35e4f996370b73c523ae5fa8b48771e7a84a5157d0ee5f8",
                    "uncleHash" : "0x1dcc4de8dec75d7aab85b567b6ccd41ad312451b948a7413f0a142fd40d49347"
                },
                "rlp" : "0xf90266f901fda07fb816241bf1fa12dc4e23b2aeb0a78651adfe1c368cb7d0fab7e4af80628c97a01dcc4de8dec75d7aab85b567b6ccd41ad312451b948a7413f0a142fd40d49347942adc25665018aa1fe0e6bc666dac8fc2697ff9baa044e260b024501c842890f115af4288c8121091e3b34cebb6a7cfd244b93d765da0169424331d5695b5f35e4f996370b73c523ae5fa8b48771e7a84a5157d0ee5f8a0f13aefab7a9ed1a33de3d5abb9901550137978b417e4a9f73f4a28e62e81249fb90100000000000000000000000000000000000000000000000000000000000000000000000000000000000000000000000000000000000000000000000000000000000000000000000000000000000000000000000000000000000000000000000000000000000000000000000000000000000000000000000000000000000000000000000000000000000000000000000000000000000000000000000000000000000000000000000000000000000000000000000000000000000000000000000000000000000000000000000000000000000000000000000000000000000000000000000000000000000000000000000000000000000000000000000000000000008302000001887fffffffffffffff8302c3388203e880a04e52dfada048b3a3d0b6dd6ea6fbce93619c19a0336ad49e1471c04cf1a690dc889127d70f945e6e61f863f8618001840ee6b28094100000000000000000000000000000000000000001801ca0b4d82d934cb8d0b959b87a51e42cd51d560d24a71047b2127e78830404837662a00e7c42d2e4ce666564a232a4705cf6e43a2bcf29ecbd7db39a21484d01383e75c0",
                "transactions" : [
                    {
                        "data" : "",
                        "gasLimit" : "0x0ee6b280",
                        "gasPrice" : "0x01",
                        "nonce" : "0x00",
                        "r" : "0xb4d82d934cb8d0b959b87a51e42cd51d560d24a71047b2127e78830404837662",
                        "s" : "0x0e7c42d2e4ce666564a232a4705cf6e43a2bcf29ecbd7db39a21484d01383e75",
                        "to" : "0x1000000000000000000000000000000000000000",
                        "v" : "0x1c",
                        "value" : "0x01"
                    }
                ],
                "uncleHeaders" : [
                ]
            }
        ],
        "genesisBlockHeader" : {
            "bloom" : "0x00000000000000000000000000000000000000000000000000000000000000000000000000000000000000000000000000000000000000000000000000000000000000000000000000000000000000000000000000000000000000000000000000000000000000000000000000000000000000000000000000000000000000000000000000000000000000000000000000000000000000000000000000000000000000000000000000000000000000000000000000000000000000000000000000000000000000000000000000000000000000000000000000000000000000000000000000000000000000000000000000000000000000000000000000000000",
            "coinbase" : "0x2adc25665018aa1fe0e6bc666dac8fc2697ff9ba",
            "difficulty" : "0x020000",
            "extraData" : "0x42",
            "gasLimit" : "0x7fffffffffffffff",
            "gasUsed" : "0x00",
            "hash" : "0x7fb816241bf1fa12dc4e23b2aeb0a78651adfe1c368cb7d0fab7e4af80628c97",
            "mixHash" : "0x56e81f171bcc55a6ff8345e692c0f86e5b48e01b996cadc001622fb5e363b421",
            "nonce" : "0x0102030405060708",
            "number" : "0x00",
            "parentHash" : "0x0000000000000000000000000000000000000000000000000000000000000000",
            "receiptTrie" : "0x56e81f171bcc55a6ff8345e692c0f86e5b48e01b996cadc001622fb5e363b421",
            "stateRoot" : "0xa37bbacb52776decc02e410c9c5737f66950cf80966cc4b6b55c0acef1c6996d",
            "timestamp" : "0x03b6",
            "transactionsTrie" : "0x56e81f171bcc55a6ff8345e692c0f86e5b48e01b996cadc001622fb5e363b421",
            "uncleHash" : "0x1dcc4de8dec75d7aab85b567b6ccd41ad312451b948a7413f0a142fd40d49347"
        },
        "genesisRLP" : "0xf901fff901faa00000000000000000000000000000000000000000000000000000000000000000a01dcc4de8dec75d7aab85b567b6ccd41ad312451b948a7413f0a142fd40d49347942adc25665018aa1fe0e6bc666dac8fc2697ff9baa0a37bbacb52776decc02e410c9c5737f66950cf80966cc4b6b55c0acef1c6996da056e81f171bcc55a6ff8345e692c0f86e5b48e01b996cadc001622fb5e363b421a056e81f171bcc55a6ff8345e692c0f86e5b48e01b996cadc001622fb5e363b421b90100000000000000000000000000000000000000000000000000000000000000000000000000000000000000000000000000000000000000000000000000000000000000000000000000000000000000000000000000000000000000000000000000000000000000000000000000000000000000000000000000000000000000000000000000000000000000000000000000000000000000000000000000000000000000000000000000000000000000000000000000000000000000000000000000000000000000000000000000000000000000000000000000000000000000000000000000000000000000000000000000000000000000000000000000000000008302000080887fffffffffffffff808203b642a056e81f171bcc55a6ff8345e692c0f86e5b48e01b996cadc001622fb5e363b421880102030405060708c0c0",
        "lastblockhash" : "0x118c5c6c68779163a3e8ebfe06e638fe910c62527a0c605831c2d1ab9eb6a92d",
        "network" : "Homestead",
        "postState" : {
            "0x1000000000000000000000000000000000000000" : {
                "balance" : "0x01",
                "code" : "0x600163ffffffff55600167ffffffffffffffff5560016fffffffffffffffffffffffffffffffff5560017fffffffffffffffffffffffffffffffffffffffffffffffffffffffffffffffff5563ffffffff60205567ffffffffffffffff6040556fffffffffffffffffffffffffffffffff6080557fffffffffffffffffffffffffffffffffffffffffffffffffffffffffffffffff61010055",
                "nonce" : "0x00",
                "storage" : {
                    "0x0100" : "0xffffffffffffffffffffffffffffffffffffffffffffffffffffffffffffffff",
                    "0x20" : "0xffffffff",
                    "0x40" : "0xffffffffffffffff",
                    "0x80" : "0xffffffffffffffffffffffffffffffff",
                    "0xffffffff" : "0x01",
                    "0xffffffffffffffff" : "0x01",
                    "0xffffffffffffffffffffffffffffffff" : "0x01",
                    "0xffffffffffffffffffffffffffffffffffffffffffffffffffffffffffffffff" : "0x01"
                }
            },
            "0x2adc25665018aa1fe0e6bc666dac8fc2697ff9ba" : {
                "balance" : "0x4563918244f6c338",
                "code" : "",
                "nonce" : "0x00",
                "storage" : {
                }
            },
            "0xa94f5374fce5edbc8e2a8697c15331677e6ebf0b" : {
                "balance" : "0x07fffffffffffffd3cc6",
                "code" : "",
                "nonce" : "0x01",
                "storage" : {
                }
            }
        },
        "pre" : {
            "0x1000000000000000000000000000000000000000" : {
                "balance" : "0x00",
                "code" : "0x600163ffffffff55600167ffffffffffffffff5560016fffffffffffffffffffffffffffffffff5560017fffffffffffffffffffffffffffffffffffffffffffffffffffffffffffffffff5563ffffffff60205567ffffffffffffffff6040556fffffffffffffffffffffffffffffffff6080557fffffffffffffffffffffffffffffffffffffffffffffffffffffffffffffffff61010055",
                "nonce" : "0x00",
                "storage" : {
                }
            },
            "0xa94f5374fce5edbc8e2a8697c15331677e6ebf0b" : {
                "balance" : "0x07ffffffffffffffffff",
                "code" : "",
                "nonce" : "0x00",
                "storage" : {
                }
            }
        }
    }
}