{
    "refund_TxToSuicide_d0g1v0_Byzantium" : {
        "_info" : {
            "comment" : "",
            "filledwith" : "cpp-1.3.0+commit.6e0ce939.Linux.g++",
            "lllcversion" : "Version: 0.4.18-develop.2017.9.25+commit.a72237f2.Linux.g++",
            "source" : "src/BlockchainTestsFiller/GeneralStateTests/stRefundTest/refund_TxToSuicide_d0g1v0Filler.json",
            "sourceHash" : "611175c966cfe76876b75234d91e15575628126245934ed4638f04b736df2353"
        },
        "blocks" : [
            {
                "blockHeader" : {
                    "bloom" : "0x00000000000000000000000000000000000000000000000000000000000000000000000000000000000000000000000000000000000000000000000000000000000000000000000000000000000000000000000000000000000000000000000000000000000000000000000000000000000000000000000000000000000000000000000000000000000000000000000000000000000000000000000000000000000000000000000000000000000000000000000000000000000000000000000000000000000000000000000000000000000000000000000000000000000000000000000000000000000000000000000000000000000000000000000000000000",
                    "coinbase" : "0x2adc25665018aa1fe0e6bc666dac8fc2697ff9ba",
                    "difficulty" : "0x020000",
                    "extraData" : "",
                    "gasLimit" : "0x989680",
                    "gasUsed" : "0x697b",
                    "hash" : "0x0e14f7c39c133b2a2bef5deeaca9f848acfb0cc6d5a9d03b30934988760bd9a8",
                    "mixHash" : "0xa71d318fb88242528af8c5a7e5d8bd16a8c9e22331623a66477bbe327a3826c3",
                    "nonce" : "0x28285a1c50d83a45",
                    "number" : "0x01",
                    "parentHash" : "0xf0cb6b195ef5c242d49a2cd8036a62a9d6a9a6728309b59c6c254d794f0c0051",
                    "receiptTrie" : "0x11b9a3af527495821ab161c2237f35f6a032d0dc5e9ee404f60ba12f9b7c26a9",
                    "stateRoot" : "0x3aa1c347adb6998809ad967783c2b6bd51e1824f92cb9d92132efa4799d0f035",
                    "timestamp" : "0x03e8",
                    "transactionsTrie" : "0x421c0bb8cc50f87dfa56ea3de1487524551d09f24d2cf71bfecfc32100058b57",
                    "uncleHash" : "0x1dcc4de8dec75d7aab85b567b6ccd41ad312451b948a7413f0a142fd40d49347"
                },
                "rlp" : "0xf9025ef901f7a0f0cb6b195ef5c242d49a2cd8036a62a9d6a9a6728309b59c6c254d794f0c0051a01dcc4de8dec75d7aab85b567b6ccd41ad312451b948a7413f0a142fd40d49347942adc25665018aa1fe0e6bc666dac8fc2697ff9baa03aa1c347adb6998809ad967783c2b6bd51e1824f92cb9d92132efa4799d0f035a0421c0bb8cc50f87dfa56ea3de1487524551d09f24d2cf71bfecfc32100058b57a011b9a3af527495821ab161c2237f35f6a032d0dc5e9ee404f60ba12f9b7c26a9b901000000000000000000000000000000000000000000000000000000000000000000000000000000000000000000000000000000000000000000000000000000000000000000000000000000000000000000000000000000000000000000000000000000000000000000000000000000000000000000000000000000000000000000000000000000000000000000000000000000000000000000000000000000000000000000000000000000000000000000000000000000000000000000000000000000000000000000000000000000000000000000000000000000000000000000000000000000000000000000000000000000000000000000000000000000000083020000018398968082697b8203e880a0a71d318fb88242528af8c5a7e5d8bd16a8c9e22331623a66477bbe327a3826c38828285a1c50d83a45f861f85f800182ee4b94aaae7baea6a6c7c4c2dfeb977efac326af552aaa0a801ca070c4db9cd6e4f9991da63856665e47883e1253183e0c507012018e3f5aaecfdba02f2cf7c5954a2fa03ec7ee2bc6cfd72565016707e21326c3d3999f2447d553cec0",
                "transactions" : [
                    {
                        "data" : "",
                        "gasLimit" : "0xee4b",
                        "gasPrice" : "0x01",
                        "nonce" : "0x00",
                        "r" : "0x70c4db9cd6e4f9991da63856665e47883e1253183e0c507012018e3f5aaecfdb",
                        "s" : "0x2f2cf7c5954a2fa03ec7ee2bc6cfd72565016707e21326c3d3999f2447d553ce",
                        "to" : "0xaaae7baea6a6c7c4c2dfeb977efac326af552aaa",
                        "v" : "0x1c",
                        "value" : "0x0a"
                    }
                ],
                "uncleHeaders" : [
                ]
            }
        ],
        "genesisBlockHeader" : {
            "bloom" : "0x00000000000000000000000000000000000000000000000000000000000000000000000000000000000000000000000000000000000000000000000000000000000000000000000000000000000000000000000000000000000000000000000000000000000000000000000000000000000000000000000000000000000000000000000000000000000000000000000000000000000000000000000000000000000000000000000000000000000000000000000000000000000000000000000000000000000000000000000000000000000000000000000000000000000000000000000000000000000000000000000000000000000000000000000000000000",
            "coinbase" : "0x2adc25665018aa1fe0e6bc666dac8fc2697ff9ba",
            "difficulty" : "0x020000",
            "extraData" : "0x42",
            "gasLimit" : "0x989680",
            "gasUsed" : "0x00",
            "hash" : "0xf0cb6b195ef5c242d49a2cd8036a62a9d6a9a6728309b59c6c254d794f0c0051",
            "mixHash" : "0x56e81f171bcc55a6ff8345e692c0f86e5b48e01b996cadc001622fb5e363b421",
            "nonce" : "0x0102030405060708",
            "number" : "0x00",
            "parentHash" : "0x0000000000000000000000000000000000000000000000000000000000000000",
            "receiptTrie" : "0x56e81f171bcc55a6ff8345e692c0f86e5b48e01b996cadc001622fb5e363b421",
            "stateRoot" : "0x39057e10d75ab5cae85033afec4a621965edb0006fe51103b78dbe1c3c368a42",
            "timestamp" : "0x03b6",
            "transactionsTrie" : "0x56e81f171bcc55a6ff8345e692c0f86e5b48e01b996cadc001622fb5e363b421",
            "uncleHash" : "0x1dcc4de8dec75d7aab85b567b6ccd41ad312451b948a7413f0a142fd40d49347"
        },
        "genesisRLP" : "0xf901faf901f5a00000000000000000000000000000000000000000000000000000000000000000a01dcc4de8dec75d7aab85b567b6ccd41ad312451b948a7413f0a142fd40d49347942adc25665018aa1fe0e6bc666dac8fc2697ff9baa039057e10d75ab5cae85033afec4a621965edb0006fe51103b78dbe1c3c368a42a056e81f171bcc55a6ff8345e692c0f86e5b48e01b996cadc001622fb5e363b421a056e81f171bcc55a6ff8345e692c0f86e5b48e01b996cadc001622fb5e363b421b9010000000000000000000000000000000000000000000000000000000000000000000000000000000000000000000000000000000000000000000000000000000000000000000000000000000000000000000000000000000000000000000000000000000000000000000000000000000000000000000000000000000000000000000000000000000000000000000000000000000000000000000000000000000000000000000000000000000000000000000000000000000000000000000000000000000000000000000000000000000000000000000000000000000000000000000000000000000000000000000000000000000000000000000000000000000000830200008083989680808203b642a056e81f171bcc55a6ff8345e692c0f86e5b48e01b996cadc001622fb5e363b421880102030405060708c0c0",
        "lastblockhash" : "0x0e14f7c39c133b2a2bef5deeaca9f848acfb0cc6d5a9d03b30934988760bd9a8",
        "network" : "Byzantium",
        "postState" : {
            "0x095e7baea6a6c7c4c2dfeb977efac326af552d87" : {
                "balance" : "0x0de0b6b3a764000a",
                "code" : "",
                "nonce" : "0x00",
                "storage" : {
                }
            },
            "0x2adc25665018aa1fe0e6bc666dac8fc2697ff9ba" : {
                "balance" : "0x29a2241af62c697b",
                "code" : "",
                "nonce" : "0x00",
                "storage" : {
                }
            },
            "0xa94f5374fce5edbc8e2a8697c15331677e6ebf0b" : {
                "balance" : "0x05f5777b",
                "code" : "",
                "nonce" : "0x01",
                "storage" : {
                }
            }
        },
        "pre" : {
            "0xa94f5374fce5edbc8e2a8697c15331677e6ebf0b" : {
                "balance" : "0x05f5e100",
                "code" : "",
                "nonce" : "0x00",
                "storage" : {
                }
            },
            "0xaaae7baea6a6c7c4c2dfeb977efac326af552aaa" : {
                "balance" : "0x0de0b6b3a7640000",
                "code" : "0x73095e7baea6a6c7c4c2dfeb977efac326af552d87ff",
                "nonce" : "0x00",
                "storage" : {
                    "0x01" : "0x01"
                }
            }
        }
    },
    "refund_TxToSuicide_d0g1v0_EIP150" : {
        "_info" : {
            "comment" : "",
            "filledwith" : "cpp-1.3.0+commit.6e0ce939.Linux.g++",
            "lllcversion" : "Version: 0.4.18-develop.2017.9.25+commit.a72237f2.Linux.g++",
            "source" : "src/BlockchainTestsFiller/GeneralStateTests/stRefundTest/refund_TxToSuicide_d0g1v0Filler.json",
            "sourceHash" : "611175c966cfe76876b75234d91e15575628126245934ed4638f04b736df2353"
        },
        "blocks" : [
            {
                "blockHeader" : {
                    "bloom" : "0x00000000000000000000000000000000000000000000000000000000000000000000000000000000000000000000000000000000000000000000000000000000000000000000000000000000000000000000000000000000000000000000000000000000000000000000000000000000000000000000000000000000000000000000000000000000000000000000000000000000000000000000000000000000000000000000000000000000000000000000000000000000000000000000000000000000000000000000000000000000000000000000000000000000000000000000000000000000000000000000000000000000000000000000000000000000",
                    "coinbase" : "0x2adc25665018aa1fe0e6bc666dac8fc2697ff9ba",
                    "difficulty" : "0x020000",
                    "extraData" : "",
                    "gasLimit" : "0x989680",
                    "gasUsed" : "0x697b",
                    "hash" : "0x69126b7eb081acc2266fb0946e596dac85080b8e3fafae35b446d56d95ed8b7a",
                    "mixHash" : "0x172dcb01b375aa55bcbf61c9f63bacb8d8d69ffa3f09df0de6ce8d32d0be5c1a",
                    "nonce" : "0xf6e7956ffc45857e",
                    "number" : "0x01",
                    "parentHash" : "0xf0cb6b195ef5c242d49a2cd8036a62a9d6a9a6728309b59c6c254d794f0c0051",
                    "receiptTrie" : "0x40bbf23bd4e483252b521ebcec3acf13024b955e91bc8523a0521b9337be8818",
                    "stateRoot" : "0x762ed63d500f197bd382a95e6359ccfb3fc4bba6f104ef417facd5f85eb3544d",
                    "timestamp" : "0x03e8",
                    "transactionsTrie" : "0x421c0bb8cc50f87dfa56ea3de1487524551d09f24d2cf71bfecfc32100058b57",
                    "uncleHash" : "0x1dcc4de8dec75d7aab85b567b6ccd41ad312451b948a7413f0a142fd40d49347"
                },
                "rlp" : "0xf9025ef901f7a0f0cb6b195ef5c242d49a2cd8036a62a9d6a9a6728309b59c6c254d794f0c0051a01dcc4de8dec75d7aab85b567b6ccd41ad312451b948a7413f0a142fd40d49347942adc25665018aa1fe0e6bc666dac8fc2697ff9baa0762ed63d500f197bd382a95e6359ccfb3fc4bba6f104ef417facd5f85eb3544da0421c0bb8cc50f87dfa56ea3de1487524551d09f24d2cf71bfecfc32100058b57a040bbf23bd4e483252b521ebcec3acf13024b955e91bc8523a0521b9337be8818b901000000000000000000000000000000000000000000000000000000000000000000000000000000000000000000000000000000000000000000000000000000000000000000000000000000000000000000000000000000000000000000000000000000000000000000000000000000000000000000000000000000000000000000000000000000000000000000000000000000000000000000000000000000000000000000000000000000000000000000000000000000000000000000000000000000000000000000000000000000000000000000000000000000000000000000000000000000000000000000000000000000000000000000000000000000000083020000018398968082697b8203e880a0172dcb01b375aa55bcbf61c9f63bacb8d8d69ffa3f09df0de6ce8d32d0be5c1a88f6e7956ffc45857ef861f85f800182ee4b94aaae7baea6a6c7c4c2dfeb977efac326af552aaa0a801ca070c4db9cd6e4f9991da63856665e47883e1253183e0c507012018e3f5aaecfdba02f2cf7c5954a2fa03ec7ee2bc6cfd72565016707e21326c3d3999f2447d553cec0",
                "transactions" : [
                    {
                        "data" : "",
                        "gasLimit" : "0xee4b",
                        "gasPrice" : "0x01",
                        "nonce" : "0x00",
                        "r" : "0x70c4db9cd6e4f9991da63856665e47883e1253183e0c507012018e3f5aaecfdb",
                        "s" : "0x2f2cf7c5954a2fa03ec7ee2bc6cfd72565016707e21326c3d3999f2447d553ce",
                        "to" : "0xaaae7baea6a6c7c4c2dfeb977efac326af552aaa",
                        "v" : "0x1c",
                        "value" : "0x0a"
                    }
                ],
                "uncleHeaders" : [
                ]
            }
        ],
        "genesisBlockHeader" : {
            "bloom" : "0x00000000000000000000000000000000000000000000000000000000000000000000000000000000000000000000000000000000000000000000000000000000000000000000000000000000000000000000000000000000000000000000000000000000000000000000000000000000000000000000000000000000000000000000000000000000000000000000000000000000000000000000000000000000000000000000000000000000000000000000000000000000000000000000000000000000000000000000000000000000000000000000000000000000000000000000000000000000000000000000000000000000000000000000000000000000",
            "coinbase" : "0x2adc25665018aa1fe0e6bc666dac8fc2697ff9ba",
            "difficulty" : "0x020000",
            "extraData" : "0x42",
            "gasLimit" : "0x989680",
            "gasUsed" : "0x00",
            "hash" : "0xf0cb6b195ef5c242d49a2cd8036a62a9d6a9a6728309b59c6c254d794f0c0051",
            "mixHash" : "0x56e81f171bcc55a6ff8345e692c0f86e5b48e01b996cadc001622fb5e363b421",
            "nonce" : "0x0102030405060708",
            "number" : "0x00",
            "parentHash" : "0x0000000000000000000000000000000000000000000000000000000000000000",
            "receiptTrie" : "0x56e81f171bcc55a6ff8345e692c0f86e5b48e01b996cadc001622fb5e363b421",
            "stateRoot" : "0x39057e10d75ab5cae85033afec4a621965edb0006fe51103b78dbe1c3c368a42",
            "timestamp" : "0x03b6",
            "transactionsTrie" : "0x56e81f171bcc55a6ff8345e692c0f86e5b48e01b996cadc001622fb5e363b421",
            "uncleHash" : "0x1dcc4de8dec75d7aab85b567b6ccd41ad312451b948a7413f0a142fd40d49347"
        },
        "genesisRLP" : "0xf901faf901f5a00000000000000000000000000000000000000000000000000000000000000000a01dcc4de8dec75d7aab85b567b6ccd41ad312451b948a7413f0a142fd40d49347942adc25665018aa1fe0e6bc666dac8fc2697ff9baa039057e10d75ab5cae85033afec4a621965edb0006fe51103b78dbe1c3c368a42a056e81f171bcc55a6ff8345e692c0f86e5b48e01b996cadc001622fb5e363b421a056e81f171bcc55a6ff8345e692c0f86e5b48e01b996cadc001622fb5e363b421b9010000000000000000000000000000000000000000000000000000000000000000000000000000000000000000000000000000000000000000000000000000000000000000000000000000000000000000000000000000000000000000000000000000000000000000000000000000000000000000000000000000000000000000000000000000000000000000000000000000000000000000000000000000000000000000000000000000000000000000000000000000000000000000000000000000000000000000000000000000000000000000000000000000000000000000000000000000000000000000000000000000000000000000000000000000000000830200008083989680808203b642a056e81f171bcc55a6ff8345e692c0f86e5b48e01b996cadc001622fb5e363b421880102030405060708c0c0",
        "lastblockhash" : "0x69126b7eb081acc2266fb0946e596dac85080b8e3fafae35b446d56d95ed8b7a",
        "network" : "EIP150",
        "postState" : {
            "0x095e7baea6a6c7c4c2dfeb977efac326af552d87" : {
                "balance" : "0x0de0b6b3a764000a",
                "code" : "",
                "nonce" : "0x00",
                "storage" : {
                }
            },
            "0x2adc25665018aa1fe0e6bc666dac8fc2697ff9ba" : {
                "balance" : "0x4563918244f4697b",
                "code" : "",
                "nonce" : "0x00",
                "storage" : {
                }
            },
            "0xa94f5374fce5edbc8e2a8697c15331677e6ebf0b" : {
                "balance" : "0x05f5777b",
                "code" : "",
                "nonce" : "0x01",
                "storage" : {
                }
            }
        },
        "pre" : {
            "0xa94f5374fce5edbc8e2a8697c15331677e6ebf0b" : {
                "balance" : "0x05f5e100",
                "code" : "",
                "nonce" : "0x00",
                "storage" : {
                }
            },
            "0xaaae7baea6a6c7c4c2dfeb977efac326af552aaa" : {
                "balance" : "0x0de0b6b3a7640000",
                "code" : "0x73095e7baea6a6c7c4c2dfeb977efac326af552d87ff",
                "nonce" : "0x00",
                "storage" : {
                    "0x01" : "0x01"
                }
            }
        }
    },
    "refund_TxToSuicide_d0g1v0_EIP158" : {
        "_info" : {
            "comment" : "",
            "filledwith" : "cpp-1.3.0+commit.6e0ce939.Linux.g++",
            "lllcversion" : "Version: 0.4.18-develop.2017.9.25+commit.a72237f2.Linux.g++",
            "source" : "src/BlockchainTestsFiller/GeneralStateTests/stRefundTest/refund_TxToSuicide_d0g1v0Filler.json",
            "sourceHash" : "611175c966cfe76876b75234d91e15575628126245934ed4638f04b736df2353"
        },
        "blocks" : [
            {
                "blockHeader" : {
                    "bloom" : "0x00000000000000000000000000000000000000000000000000000000000000000000000000000000000000000000000000000000000000000000000000000000000000000000000000000000000000000000000000000000000000000000000000000000000000000000000000000000000000000000000000000000000000000000000000000000000000000000000000000000000000000000000000000000000000000000000000000000000000000000000000000000000000000000000000000000000000000000000000000000000000000000000000000000000000000000000000000000000000000000000000000000000000000000000000000000",
                    "coinbase" : "0x2adc25665018aa1fe0e6bc666dac8fc2697ff9ba",
                    "difficulty" : "0x020000",
                    "extraData" : "",
                    "gasLimit" : "0x989680",
                    "gasUsed" : "0x697b",
                    "hash" : "0x77662f410dee006bdca89b10abb10300b4b882ba43a6817531ec172e0d482d9e",
                    "mixHash" : "0xe16ad9171a6f080ca07bf114398bb87e4b03b6c156452cc82bddcca1c6671863",
                    "nonce" : "0xb63a0d415a5a4ab6",
                    "number" : "0x01",
                    "parentHash" : "0xf0cb6b195ef5c242d49a2cd8036a62a9d6a9a6728309b59c6c254d794f0c0051",
                    "receiptTrie" : "0x40bbf23bd4e483252b521ebcec3acf13024b955e91bc8523a0521b9337be8818",
                    "stateRoot" : "0x762ed63d500f197bd382a95e6359ccfb3fc4bba6f104ef417facd5f85eb3544d",
                    "timestamp" : "0x03e8",
                    "transactionsTrie" : "0x421c0bb8cc50f87dfa56ea3de1487524551d09f24d2cf71bfecfc32100058b57",
                    "uncleHash" : "0x1dcc4de8dec75d7aab85b567b6ccd41ad312451b948a7413f0a142fd40d49347"
                },
                "rlp" : "0xf9025ef901f7a0f0cb6b195ef5c242d49a2cd8036a62a9d6a9a6728309b59c6c254d794f0c0051a01dcc4de8dec75d7aab85b567b6ccd41ad312451b948a7413f0a142fd40d49347942adc25665018aa1fe0e6bc666dac8fc2697ff9baa0762ed63d500f197bd382a95e6359ccfb3fc4bba6f104ef417facd5f85eb3544da0421c0bb8cc50f87dfa56ea3de1487524551d09f24d2cf71bfecfc32100058b57a040bbf23bd4e483252b521ebcec3acf13024b955e91bc8523a0521b9337be8818b901000000000000000000000000000000000000000000000000000000000000000000000000000000000000000000000000000000000000000000000000000000000000000000000000000000000000000000000000000000000000000000000000000000000000000000000000000000000000000000000000000000000000000000000000000000000000000000000000000000000000000000000000000000000000000000000000000000000000000000000000000000000000000000000000000000000000000000000000000000000000000000000000000000000000000000000000000000000000000000000000000000000000000000000000000000000083020000018398968082697b8203e880a0e16ad9171a6f080ca07bf114398bb87e4b03b6c156452cc82bddcca1c667186388b63a0d415a5a4ab6f861f85f800182ee4b94aaae7baea6a6c7c4c2dfeb977efac326af552aaa0a801ca070c4db9cd6e4f9991da63856665e47883e1253183e0c507012018e3f5aaecfdba02f2cf7c5954a2fa03ec7ee2bc6cfd72565016707e21326c3d3999f2447d553cec0",
                "transactions" : [
                    {
                        "data" : "",
                        "gasLimit" : "0xee4b",
                        "gasPrice" : "0x01",
                        "nonce" : "0x00",
                        "r" : "0x70c4db9cd6e4f9991da63856665e47883e1253183e0c507012018e3f5aaecfdb",
                        "s" : "0x2f2cf7c5954a2fa03ec7ee2bc6cfd72565016707e21326c3d3999f2447d553ce",
                        "to" : "0xaaae7baea6a6c7c4c2dfeb977efac326af552aaa",
                        "v" : "0x1c",
                        "value" : "0x0a"
                    }
                ],
                "uncleHeaders" : [
                ]
            }
        ],
        "genesisBlockHeader" : {
            "bloom" : "0x00000000000000000000000000000000000000000000000000000000000000000000000000000000000000000000000000000000000000000000000000000000000000000000000000000000000000000000000000000000000000000000000000000000000000000000000000000000000000000000000000000000000000000000000000000000000000000000000000000000000000000000000000000000000000000000000000000000000000000000000000000000000000000000000000000000000000000000000000000000000000000000000000000000000000000000000000000000000000000000000000000000000000000000000000000000",
            "coinbase" : "0x2adc25665018aa1fe0e6bc666dac8fc2697ff9ba",
            "difficulty" : "0x020000",
            "extraData" : "0x42",
            "gasLimit" : "0x989680",
            "gasUsed" : "0x00",
            "hash" : "0xf0cb6b195ef5c242d49a2cd8036a62a9d6a9a6728309b59c6c254d794f0c0051",
            "mixHash" : "0x56e81f171bcc55a6ff8345e692c0f86e5b48e01b996cadc001622fb5e363b421",
            "nonce" : "0x0102030405060708",
            "number" : "0x00",
            "parentHash" : "0x0000000000000000000000000000000000000000000000000000000000000000",
            "receiptTrie" : "0x56e81f171bcc55a6ff8345e692c0f86e5b48e01b996cadc001622fb5e363b421",
            "stateRoot" : "0x39057e10d75ab5cae85033afec4a621965edb0006fe51103b78dbe1c3c368a42",
            "timestamp" : "0x03b6",
            "transactionsTrie" : "0x56e81f171bcc55a6ff8345e692c0f86e5b48e01b996cadc001622fb5e363b421",
            "uncleHash" : "0x1dcc4de8dec75d7aab85b567b6ccd41ad312451b948a7413f0a142fd40d49347"
        },
        "genesisRLP" : "0xf901faf901f5a00000000000000000000000000000000000000000000000000000000000000000a01dcc4de8dec75d7aab85b567b6ccd41ad312451b948a7413f0a142fd40d49347942adc25665018aa1fe0e6bc666dac8fc2697ff9baa039057e10d75ab5cae85033afec4a621965edb0006fe51103b78dbe1c3c368a42a056e81f171bcc55a6ff8345e692c0f86e5b48e01b996cadc001622fb5e363b421a056e81f171bcc55a6ff8345e692c0f86e5b48e01b996cadc001622fb5e363b421b9010000000000000000000000000000000000000000000000000000000000000000000000000000000000000000000000000000000000000000000000000000000000000000000000000000000000000000000000000000000000000000000000000000000000000000000000000000000000000000000000000000000000000000000000000000000000000000000000000000000000000000000000000000000000000000000000000000000000000000000000000000000000000000000000000000000000000000000000000000000000000000000000000000000000000000000000000000000000000000000000000000000000000000000000000000000000830200008083989680808203b642a056e81f171bcc55a6ff8345e692c0f86e5b48e01b996cadc001622fb5e363b421880102030405060708c0c0",
        "lastblockhash" : "0x77662f410dee006bdca89b10abb10300b4b882ba43a6817531ec172e0d482d9e",
        "network" : "EIP158",
        "postState" : {
            "0x095e7baea6a6c7c4c2dfeb977efac326af552d87" : {
                "balance" : "0x0de0b6b3a764000a",
                "code" : "",
                "nonce" : "0x00",
                "storage" : {
                }
            },
            "0x2adc25665018aa1fe0e6bc666dac8fc2697ff9ba" : {
                "balance" : "0x4563918244f4697b",
                "code" : "",
                "nonce" : "0x00",
                "storage" : {
                }
            },
            "0xa94f5374fce5edbc8e2a8697c15331677e6ebf0b" : {
                "balance" : "0x05f5777b",
                "code" : "",
                "nonce" : "0x01",
                "storage" : {
                }
            }
        },
        "pre" : {
            "0xa94f5374fce5edbc8e2a8697c15331677e6ebf0b" : {
                "balance" : "0x05f5e100",
                "code" : "",
                "nonce" : "0x00",
                "storage" : {
                }
            },
            "0xaaae7baea6a6c7c4c2dfeb977efac326af552aaa" : {
                "balance" : "0x0de0b6b3a7640000",
                "code" : "0x73095e7baea6a6c7c4c2dfeb977efac326af552d87ff",
                "nonce" : "0x00",
                "storage" : {
                    "0x01" : "0x01"
                }
            }
        }
    },
    "refund_TxToSuicide_d0g1v0_Frontier" : {
        "_info" : {
            "comment" : "",
            "filledwith" : "cpp-1.3.0+commit.6e0ce939.Linux.g++",
            "lllcversion" : "Version: 0.4.18-develop.2017.9.25+commit.a72237f2.Linux.g++",
            "source" : "src/BlockchainTestsFiller/GeneralStateTests/stRefundTest/refund_TxToSuicide_d0g1v0Filler.json",
            "sourceHash" : "611175c966cfe76876b75234d91e15575628126245934ed4638f04b736df2353"
        },
        "blocks" : [
            {
                "blockHeader" : {
                    "bloom" : "0x00000000000000000000000000000000000000000000000000000000000000000000000000000000000000000000000000000000000000000000000000000000000000000000000000000000000000000000000000000000000000000000000000000000000000000000000000000000000000000000000000000000000000000000000000000000000000000000000000000000000000000000000000000000000000000000000000000000000000000000000000000000000000000000000000000000000000000000000000000000000000000000000000000000000000000000000000000000000000000000000000000000000000000000000000000000",
                    "coinbase" : "0x2adc25665018aa1fe0e6bc666dac8fc2697ff9ba",
                    "difficulty" : "0x020000",
                    "extraData" : "",
                    "gasLimit" : "0x989680",
                    "gasUsed" : "0x2906",
                    "hash" : "0xab9cd97debe9a1b8a1c7ff453095214efdb780299eac64f2969dbeb3c59c8287",
                    "mixHash" : "0x490b4bf29eaaf54daf92fdea56698b57b68ae971be84f30465b19ba36eb53069",
                    "nonce" : "0x450a3e9ee5f70ebf",
                    "number" : "0x01",
                    "parentHash" : "0xf0cb6b195ef5c242d49a2cd8036a62a9d6a9a6728309b59c6c254d794f0c0051",
                    "receiptTrie" : "0xd4b15c293435a5d48086c5f74c34acb137fdd345d11d1210adaa4f280e1860f4",
                    "stateRoot" : "0x6a48a28ef51d1648c351cc529b9da76a9c8d740c7973d169d24c24c199cbb83e",
                    "timestamp" : "0x03e8",
                    "transactionsTrie" : "0x421c0bb8cc50f87dfa56ea3de1487524551d09f24d2cf71bfecfc32100058b57",
                    "uncleHash" : "0x1dcc4de8dec75d7aab85b567b6ccd41ad312451b948a7413f0a142fd40d49347"
                },
                "rlp" : "0xf9025ef901f7a0f0cb6b195ef5c242d49a2cd8036a62a9d6a9a6728309b59c6c254d794f0c0051a01dcc4de8dec75d7aab85b567b6ccd41ad312451b948a7413f0a142fd40d49347942adc25665018aa1fe0e6bc666dac8fc2697ff9baa06a48a28ef51d1648c351cc529b9da76a9c8d740c7973d169d24c24c199cbb83ea0421c0bb8cc50f87dfa56ea3de1487524551d09f24d2cf71bfecfc32100058b57a0d4b15c293435a5d48086c5f74c34acb137fdd345d11d1210adaa4f280e1860f4b90100000000000000000000000000000000000000000000000000000000000000000000000000000000000000000000000000000000000000000000000000000000000000000000000000000000000000000000000000000000000000000000000000000000000000000000000000000000000000000000000000000000000000000000000000000000000000000000000000000000000000000000000000000000000000000000000000000000000000000000000000000000000000000000000000000000000000000000000000000000000000000000000000000000000000000000000000000000000000000000000000000000000000000000000000000000008302000001839896808229068203e880a0490b4bf29eaaf54daf92fdea56698b57b68ae971be84f30465b19ba36eb5306988450a3e9ee5f70ebff861f85f800182ee4b94aaae7baea6a6c7c4c2dfeb977efac326af552aaa0a801ca070c4db9cd6e4f9991da63856665e47883e1253183e0c507012018e3f5aaecfdba02f2cf7c5954a2fa03ec7ee2bc6cfd72565016707e21326c3d3999f2447d553cec0",
                "transactions" : [
                    {
                        "data" : "",
                        "gasLimit" : "0xee4b",
                        "gasPrice" : "0x01",
                        "nonce" : "0x00",
                        "r" : "0x70c4db9cd6e4f9991da63856665e47883e1253183e0c507012018e3f5aaecfdb",
                        "s" : "0x2f2cf7c5954a2fa03ec7ee2bc6cfd72565016707e21326c3d3999f2447d553ce",
                        "to" : "0xaaae7baea6a6c7c4c2dfeb977efac326af552aaa",
                        "v" : "0x1c",
                        "value" : "0x0a"
                    }
                ],
                "uncleHeaders" : [
                ]
            }
        ],
        "genesisBlockHeader" : {
            "bloom" : "0x00000000000000000000000000000000000000000000000000000000000000000000000000000000000000000000000000000000000000000000000000000000000000000000000000000000000000000000000000000000000000000000000000000000000000000000000000000000000000000000000000000000000000000000000000000000000000000000000000000000000000000000000000000000000000000000000000000000000000000000000000000000000000000000000000000000000000000000000000000000000000000000000000000000000000000000000000000000000000000000000000000000000000000000000000000000",
            "coinbase" : "0x2adc25665018aa1fe0e6bc666dac8fc2697ff9ba",
            "difficulty" : "0x020000",
            "extraData" : "0x42",
            "gasLimit" : "0x989680",
            "gasUsed" : "0x00",
            "hash" : "0xf0cb6b195ef5c242d49a2cd8036a62a9d6a9a6728309b59c6c254d794f0c0051",
            "mixHash" : "0x56e81f171bcc55a6ff8345e692c0f86e5b48e01b996cadc001622fb5e363b421",
            "nonce" : "0x0102030405060708",
            "number" : "0x00",
            "parentHash" : "0x0000000000000000000000000000000000000000000000000000000000000000",
            "receiptTrie" : "0x56e81f171bcc55a6ff8345e692c0f86e5b48e01b996cadc001622fb5e363b421",
            "stateRoot" : "0x39057e10d75ab5cae85033afec4a621965edb0006fe51103b78dbe1c3c368a42",
            "timestamp" : "0x03b6",
            "transactionsTrie" : "0x56e81f171bcc55a6ff8345e692c0f86e5b48e01b996cadc001622fb5e363b421",
            "uncleHash" : "0x1dcc4de8dec75d7aab85b567b6ccd41ad312451b948a7413f0a142fd40d49347"
        },
        "genesisRLP" : "0xf901faf901f5a00000000000000000000000000000000000000000000000000000000000000000a01dcc4de8dec75d7aab85b567b6ccd41ad312451b948a7413f0a142fd40d49347942adc25665018aa1fe0e6bc666dac8fc2697ff9baa039057e10d75ab5cae85033afec4a621965edb0006fe51103b78dbe1c3c368a42a056e81f171bcc55a6ff8345e692c0f86e5b48e01b996cadc001622fb5e363b421a056e81f171bcc55a6ff8345e692c0f86e5b48e01b996cadc001622fb5e363b421b9010000000000000000000000000000000000000000000000000000000000000000000000000000000000000000000000000000000000000000000000000000000000000000000000000000000000000000000000000000000000000000000000000000000000000000000000000000000000000000000000000000000000000000000000000000000000000000000000000000000000000000000000000000000000000000000000000000000000000000000000000000000000000000000000000000000000000000000000000000000000000000000000000000000000000000000000000000000000000000000000000000000000000000000000000000000000830200008083989680808203b642a056e81f171bcc55a6ff8345e692c0f86e5b48e01b996cadc001622fb5e363b421880102030405060708c0c0",
        "lastblockhash" : "0xab9cd97debe9a1b8a1c7ff453095214efdb780299eac64f2969dbeb3c59c8287",
        "network" : "Frontier",
        "postState" : {
            "0x095e7baea6a6c7c4c2dfeb977efac326af552d87" : {
                "balance" : "0x0de0b6b3a764000a",
                "code" : "",
                "nonce" : "0x00",
                "storage" : {
                }
            },
            "0x2adc25665018aa1fe0e6bc666dac8fc2697ff9ba" : {
                "balance" : "0x4563918244f42906",
                "code" : "",
                "nonce" : "0x00",
                "storage" : {
                }
            },
            "0xa94f5374fce5edbc8e2a8697c15331677e6ebf0b" : {
                "balance" : "0x05f5b7f0",
                "code" : "",
                "nonce" : "0x01",
                "storage" : {
                }
            }
        },
        "pre" : {
            "0xa94f5374fce5edbc8e2a8697c15331677e6ebf0b" : {
                "balance" : "0x05f5e100",
                "code" : "",
                "nonce" : "0x00",
                "storage" : {
                }
            },
            "0xaaae7baea6a6c7c4c2dfeb977efac326af552aaa" : {
                "balance" : "0x0de0b6b3a7640000",
                "code" : "0x73095e7baea6a6c7c4c2dfeb977efac326af552d87ff",
                "nonce" : "0x00",
                "storage" : {
                    "0x01" : "0x01"
                }
            }
        }
    },
    "refund_TxToSuicide_d0g1v0_Homestead" : {
        "_info" : {
            "comment" : "",
            "filledwith" : "cpp-1.3.0+commit.6e0ce939.Linux.g++",
            "lllcversion" : "Version: 0.4.18-develop.2017.9.25+commit.a72237f2.Linux.g++",
            "source" : "src/BlockchainTestsFiller/GeneralStateTests/stRefundTest/refund_TxToSuicide_d0g1v0Filler.json",
            "sourceHash" : "611175c966cfe76876b75234d91e15575628126245934ed4638f04b736df2353"
        },
        "blocks" : [
            {
                "blockHeader" : {
                    "bloom" : "0x00000000000000000000000000000000000000000000000000000000000000000000000000000000000000000000000000000000000000000000000000000000000000000000000000000000000000000000000000000000000000000000000000000000000000000000000000000000000000000000000000000000000000000000000000000000000000000000000000000000000000000000000000000000000000000000000000000000000000000000000000000000000000000000000000000000000000000000000000000000000000000000000000000000000000000000000000000000000000000000000000000000000000000000000000000000",
                    "coinbase" : "0x2adc25665018aa1fe0e6bc666dac8fc2697ff9ba",
                    "difficulty" : "0x020000",
                    "extraData" : "",
                    "gasLimit" : "0x989680",
                    "gasUsed" : "0x2906",
                    "hash" : "0xf01b33b726e2a79ce1c6510655f6cc820d247f7e50f6f141f4d0f6cec7924e36",
                    "mixHash" : "0xe97ddfd64f99d7cd748608e973ca022a739211c8a1cb5ad0f6aa9cf18ffa9bcb",
                    "nonce" : "0xe29e33161ba17bcf",
                    "number" : "0x01",
                    "parentHash" : "0xf0cb6b195ef5c242d49a2cd8036a62a9d6a9a6728309b59c6c254d794f0c0051",
                    "receiptTrie" : "0xd4b15c293435a5d48086c5f74c34acb137fdd345d11d1210adaa4f280e1860f4",
                    "stateRoot" : "0x6a48a28ef51d1648c351cc529b9da76a9c8d740c7973d169d24c24c199cbb83e",
                    "timestamp" : "0x03e8",
                    "transactionsTrie" : "0x421c0bb8cc50f87dfa56ea3de1487524551d09f24d2cf71bfecfc32100058b57",
                    "uncleHash" : "0x1dcc4de8dec75d7aab85b567b6ccd41ad312451b948a7413f0a142fd40d49347"
                },
                "rlp" : "0xf9025ef901f7a0f0cb6b195ef5c242d49a2cd8036a62a9d6a9a6728309b59c6c254d794f0c0051a01dcc4de8dec75d7aab85b567b6ccd41ad312451b948a7413f0a142fd40d49347942adc25665018aa1fe0e6bc666dac8fc2697ff9baa06a48a28ef51d1648c351cc529b9da76a9c8d740c7973d169d24c24c199cbb83ea0421c0bb8cc50f87dfa56ea3de1487524551d09f24d2cf71bfecfc32100058b57a0d4b15c293435a5d48086c5f74c34acb137fdd345d11d1210adaa4f280e1860f4b90100000000000000000000000000000000000000000000000000000000000000000000000000000000000000000000000000000000000000000000000000000000000000000000000000000000000000000000000000000000000000000000000000000000000000000000000000000000000000000000000000000000000000000000000000000000000000000000000000000000000000000000000000000000000000000000000000000000000000000000000000000000000000000000000000000000000000000000000000000000000000000000000000000000000000000000000000000000000000000000000000000000000000000000000000000000008302000001839896808229068203e880a0e97ddfd64f99d7cd748608e973ca022a739211c8a1cb5ad0f6aa9cf18ffa9bcb88e29e33161ba17bcff861f85f800182ee4b94aaae7baea6a6c7c4c2dfeb977efac326af552aaa0a801ca070c4db9cd6e4f9991da63856665e47883e1253183e0c507012018e3f5aaecfdba02f2cf7c5954a2fa03ec7ee2bc6cfd72565016707e21326c3d3999f2447d553cec0",
                "transactions" : [
                    {
                        "data" : "",
                        "gasLimit" : "0xee4b",
                        "gasPrice" : "0x01",
                        "nonce" : "0x00",
                        "r" : "0x70c4db9cd6e4f9991da63856665e47883e1253183e0c507012018e3f5aaecfdb",
                        "s" : "0x2f2cf7c5954a2fa03ec7ee2bc6cfd72565016707e21326c3d3999f2447d553ce",
                        "to" : "0xaaae7baea6a6c7c4c2dfeb977efac326af552aaa",
                        "v" : "0x1c",
                        "value" : "0x0a"
                    }
                ],
                "uncleHeaders" : [
                ]
            }
        ],
        "genesisBlockHeader" : {
            "bloom" : "0x00000000000000000000000000000000000000000000000000000000000000000000000000000000000000000000000000000000000000000000000000000000000000000000000000000000000000000000000000000000000000000000000000000000000000000000000000000000000000000000000000000000000000000000000000000000000000000000000000000000000000000000000000000000000000000000000000000000000000000000000000000000000000000000000000000000000000000000000000000000000000000000000000000000000000000000000000000000000000000000000000000000000000000000000000000000",
            "coinbase" : "0x2adc25665018aa1fe0e6bc666dac8fc2697ff9ba",
            "difficulty" : "0x020000",
            "extraData" : "0x42",
            "gasLimit" : "0x989680",
            "gasUsed" : "0x00",
            "hash" : "0xf0cb6b195ef5c242d49a2cd8036a62a9d6a9a6728309b59c6c254d794f0c0051",
            "mixHash" : "0x56e81f171bcc55a6ff8345e692c0f86e5b48e01b996cadc001622fb5e363b421",
            "nonce" : "0x0102030405060708",
            "number" : "0x00",
            "parentHash" : "0x0000000000000000000000000000000000000000000000000000000000000000",
            "receiptTrie" : "0x56e81f171bcc55a6ff8345e692c0f86e5b48e01b996cadc001622fb5e363b421",
            "stateRoot" : "0x39057e10d75ab5cae85033afec4a621965edb0006fe51103b78dbe1c3c368a42",
            "timestamp" : "0x03b6",
            "transactionsTrie" : "0x56e81f171bcc55a6ff8345e692c0f86e5b48e01b996cadc001622fb5e363b421",
            "uncleHash" : "0x1dcc4de8dec75d7aab85b567b6ccd41ad312451b948a7413f0a142fd40d49347"
        },
        "genesisRLP" : "0xf901faf901f5a00000000000000000000000000000000000000000000000000000000000000000a01dcc4de8dec75d7aab85b567b6ccd41ad312451b948a7413f0a142fd40d49347942adc25665018aa1fe0e6bc666dac8fc2697ff9baa039057e10d75ab5cae85033afec4a621965edb0006fe51103b78dbe1c3c368a42a056e81f171bcc55a6ff8345e692c0f86e5b48e01b996cadc001622fb5e363b421a056e81f171bcc55a6ff8345e692c0f86e5b48e01b996cadc001622fb5e363b421b9010000000000000000000000000000000000000000000000000000000000000000000000000000000000000000000000000000000000000000000000000000000000000000000000000000000000000000000000000000000000000000000000000000000000000000000000000000000000000000000000000000000000000000000000000000000000000000000000000000000000000000000000000000000000000000000000000000000000000000000000000000000000000000000000000000000000000000000000000000000000000000000000000000000000000000000000000000000000000000000000000000000000000000000000000000000000830200008083989680808203b642a056e81f171bcc55a6ff8345e692c0f86e5b48e01b996cadc001622fb5e363b421880102030405060708c0c0",
        "lastblockhash" : "0xf01b33b726e2a79ce1c6510655f6cc820d247f7e50f6f141f4d0f6cec7924e36",
        "network" : "Homestead",
        "postState" : {
            "0x095e7baea6a6c7c4c2dfeb977efac326af552d87" : {
                "balance" : "0x0de0b6b3a764000a",
                "code" : "",
                "nonce" : "0x00",
                "storage" : {
                }
            },
            "0x2adc25665018aa1fe0e6bc666dac8fc2697ff9ba" : {
                "balance" : "0x4563918244f42906",
                "code" : "",
                "nonce" : "0x00",
                "storage" : {
                }
            },
            "0xa94f5374fce5edbc8e2a8697c15331677e6ebf0b" : {
                "balance" : "0x05f5b7f0",
                "code" : "",
                "nonce" : "0x01",
                "storage" : {
                }
            }
        },
        "pre" : {
            "0xa94f5374fce5edbc8e2a8697c15331677e6ebf0b" : {
                "balance" : "0x05f5e100",
                "code" : "",
                "nonce" : "0x00",
                "storage" : {
                }
            },
            "0xaaae7baea6a6c7c4c2dfeb977efac326af552aaa" : {
                "balance" : "0x0de0b6b3a7640000",
                "code" : "0x73095e7baea6a6c7c4c2dfeb977efac326af552d87ff",
                "nonce" : "0x00",
                "storage" : {
                    "0x01" : "0x01"
                }
            }
        }
    }
}