{
    "refund_TxToSuicide_d0g0v0_Byzantium" : {
        "_info" : {
            "comment" : "",
            "filledwith" : "cpp-1.3.0+commit.6e0ce939.Linux.g++",
            "lllcversion" : "Version: 0.4.18-develop.2017.9.25+commit.a72237f2.Linux.g++",
            "source" : "src/BlockchainTestsFiller/GeneralStateTests/stRefundTest/refund_TxToSuicide_d0g0v0Filler.json",
            "sourceHash" : "d9b72d8c00fb4d9187ec2f07a02cff9cf7bf90ee00f2284a815050214f121d57"
        },
        "blocks" : [
            {
                "blockHeader" : {
                    "bloom" : "0x00000000000000000000000000000000000000000000000000000000000000000000000000000000000000000000000000000000000000000000000000000000000000000000000000000000000000000000000000000000000000000000000000000000000000000000000000000000000000000000000000000000000000000000000000000000000000000000000000000000000000000000000000000000000000000000000000000000000000000000000000000000000000000000000000000000000000000000000000000000000000000000000000000000000000000000000000000000000000000000000000000000000000000000000000000000",
                    "coinbase" : "0x2adc25665018aa1fe0e6bc666dac8fc2697ff9ba",
                    "difficulty" : "0x020000",
                    "extraData" : "",
                    "gasLimit" : "0x989680",
                    "gasUsed" : "0x520b",
                    "hash" : "0x96e7962e8090a70635a37e7ec1c10b5dbb36fc382f5751306d8d2af1f7871a51",
                    "mixHash" : "0xda4f3b681a6a878e23579a31082e0f439a58a8c4b52e775a66ab7c52d7f33970",
                    "nonce" : "0x78c0d9ef299f9017",
                    "number" : "0x01",
                    "parentHash" : "0xf0cb6b195ef5c242d49a2cd8036a62a9d6a9a6728309b59c6c254d794f0c0051",
                    "receiptTrie" : "0x4053cc5113c9796c3227d96da76ad74cec79e4d5110003e92638ddb3772355e5",
                    "stateRoot" : "0xe8242202a1cb1cc680e34190fbb6ce648afb771ffe162978b0038267ec41853c",
                    "timestamp" : "0x03e8",
                    "transactionsTrie" : "0x665e16be46878b7ae8f5670147e127d6086d9915db7c6cb1db869d8ae876b489",
                    "uncleHash" : "0x1dcc4de8dec75d7aab85b567b6ccd41ad312451b948a7413f0a142fd40d49347"
                },
                "rlp" : "0xf9025ef901f7a0f0cb6b195ef5c242d49a2cd8036a62a9d6a9a6728309b59c6c254d794f0c0051a01dcc4de8dec75d7aab85b567b6ccd41ad312451b948a7413f0a142fd40d49347942adc25665018aa1fe0e6bc666dac8fc2697ff9baa0e8242202a1cb1cc680e34190fbb6ce648afb771ffe162978b0038267ec41853ca0665e16be46878b7ae8f5670147e127d6086d9915db7c6cb1db869d8ae876b489a04053cc5113c9796c3227d96da76ad74cec79e4d5110003e92638ddb3772355e5b901000000000000000000000000000000000000000000000000000000000000000000000000000000000000000000000000000000000000000000000000000000000000000000000000000000000000000000000000000000000000000000000000000000000000000000000000000000000000000000000000000000000000000000000000000000000000000000000000000000000000000000000000000000000000000000000000000000000000000000000000000000000000000000000000000000000000000000000000000000000000000000000000000000000000000000000000000000000000000000000000000000000000000000000000000000000083020000018398968082520b8203e880a0da4f3b681a6a878e23579a31082e0f439a58a8c4b52e775a66ab7c52d7f339708878c0d9ef299f9017f861f85f800182520b94aaae7baea6a6c7c4c2dfeb977efac326af552aaa0a801ca0b736349ed314af23244e16cb7e723d2e19483d98f1e913116e1288efd821e39ca03d84cb7e6409a0baeeeded8cd4f6b234bc9afc71433dbac75f72badd2b0c11adc0",
                "transactions" : [
                    {
                        "data" : "",
                        "gasLimit" : "0x520b",
                        "gasPrice" : "0x01",
                        "nonce" : "0x00",
                        "r" : "0xb736349ed314af23244e16cb7e723d2e19483d98f1e913116e1288efd821e39c",
                        "s" : "0x3d84cb7e6409a0baeeeded8cd4f6b234bc9afc71433dbac75f72badd2b0c11ad",
                        "to" : "0xaaae7baea6a6c7c4c2dfeb977efac326af552aaa",
                        "v" : "0x1c",
                        "value" : "0x0a"
                    }
                ],
                "uncleHeaders" : [
                ]
            }
        ],
        "genesisBlockHeader" : {
            "bloom" : "0x00000000000000000000000000000000000000000000000000000000000000000000000000000000000000000000000000000000000000000000000000000000000000000000000000000000000000000000000000000000000000000000000000000000000000000000000000000000000000000000000000000000000000000000000000000000000000000000000000000000000000000000000000000000000000000000000000000000000000000000000000000000000000000000000000000000000000000000000000000000000000000000000000000000000000000000000000000000000000000000000000000000000000000000000000000000",
            "coinbase" : "0x2adc25665018aa1fe0e6bc666dac8fc2697ff9ba",
            "difficulty" : "0x020000",
            "extraData" : "0x42",
            "gasLimit" : "0x989680",
            "gasUsed" : "0x00",
            "hash" : "0xf0cb6b195ef5c242d49a2cd8036a62a9d6a9a6728309b59c6c254d794f0c0051",
            "mixHash" : "0x56e81f171bcc55a6ff8345e692c0f86e5b48e01b996cadc001622fb5e363b421",
            "nonce" : "0x0102030405060708",
            "number" : "0x00",
            "parentHash" : "0x0000000000000000000000000000000000000000000000000000000000000000",
            "receiptTrie" : "0x56e81f171bcc55a6ff8345e692c0f86e5b48e01b996cadc001622fb5e363b421",
            "stateRoot" : "0x39057e10d75ab5cae85033afec4a621965edb0006fe51103b78dbe1c3c368a42",
            "timestamp" : "0x03b6",
            "transactionsTrie" : "0x56e81f171bcc55a6ff8345e692c0f86e5b48e01b996cadc001622fb5e363b421",
            "uncleHash" : "0x1dcc4de8dec75d7aab85b567b6ccd41ad312451b948a7413f0a142fd40d49347"
        },
        "genesisRLP" : "0xf901faf901f5a00000000000000000000000000000000000000000000000000000000000000000a01dcc4de8dec75d7aab85b567b6ccd41ad312451b948a7413f0a142fd40d49347942adc25665018aa1fe0e6bc666dac8fc2697ff9baa039057e10d75ab5cae85033afec4a621965edb0006fe51103b78dbe1c3c368a42a056e81f171bcc55a6ff8345e692c0f86e5b48e01b996cadc001622fb5e363b421a056e81f171bcc55a6ff8345e692c0f86e5b48e01b996cadc001622fb5e363b421b9010000000000000000000000000000000000000000000000000000000000000000000000000000000000000000000000000000000000000000000000000000000000000000000000000000000000000000000000000000000000000000000000000000000000000000000000000000000000000000000000000000000000000000000000000000000000000000000000000000000000000000000000000000000000000000000000000000000000000000000000000000000000000000000000000000000000000000000000000000000000000000000000000000000000000000000000000000000000000000000000000000000000000000000000000000000000830200008083989680808203b642a056e81f171bcc55a6ff8345e692c0f86e5b48e01b996cadc001622fb5e363b421880102030405060708c0c0",
        "lastblockhash" : "0x96e7962e8090a70635a37e7ec1c10b5dbb36fc382f5751306d8d2af1f7871a51",
        "network" : "Byzantium",
        "postState" : {
            "0x2adc25665018aa1fe0e6bc666dac8fc2697ff9ba" : {
                "balance" : "0x29a2241af62c520b",
                "code" : "",
                "nonce" : "0x00",
                "storage" : {
                }
            },
            "0xa94f5374fce5edbc8e2a8697c15331677e6ebf0b" : {
                "balance" : "0x05f58ef5",
                "code" : "",
                "nonce" : "0x01",
                "storage" : {
                }
            },
            "0xaaae7baea6a6c7c4c2dfeb977efac326af552aaa" : {
                "balance" : "0x0de0b6b3a7640000",
                "code" : "0x73095e7baea6a6c7c4c2dfeb977efac326af552d87ff",
                "nonce" : "0x00",
                "storage" : {
                    "0x01" : "0x01"
                }
            }
        },
        "pre" : {
            "0xa94f5374fce5edbc8e2a8697c15331677e6ebf0b" : {
                "balance" : "0x05f5e100",
                "code" : "",
                "nonce" : "0x00",
                "storage" : {
                }
            },
            "0xaaae7baea6a6c7c4c2dfeb977efac326af552aaa" : {
                "balance" : "0x0de0b6b3a7640000",
                "code" : "0x73095e7baea6a6c7c4c2dfeb977efac326af552d87ff",
                "nonce" : "0x00",
                "storage" : {
                    "0x01" : "0x01"
                }
            }
        }
    },
    "refund_TxToSuicide_d0g0v0_EIP150" : {
        "_info" : {
            "comment" : "",
            "filledwith" : "cpp-1.3.0+commit.6e0ce939.Linux.g++",
            "lllcversion" : "Version: 0.4.18-develop.2017.9.25+commit.a72237f2.Linux.g++",
            "source" : "src/BlockchainTestsFiller/GeneralStateTests/stRefundTest/refund_TxToSuicide_d0g0v0Filler.json",
            "sourceHash" : "d9b72d8c00fb4d9187ec2f07a02cff9cf7bf90ee00f2284a815050214f121d57"
        },
        "blocks" : [
            {
                "blockHeader" : {
                    "bloom" : "0x00000000000000000000000000000000000000000000000000000000000000000000000000000000000000000000000000000000000000000000000000000000000000000000000000000000000000000000000000000000000000000000000000000000000000000000000000000000000000000000000000000000000000000000000000000000000000000000000000000000000000000000000000000000000000000000000000000000000000000000000000000000000000000000000000000000000000000000000000000000000000000000000000000000000000000000000000000000000000000000000000000000000000000000000000000000",
                    "coinbase" : "0x2adc25665018aa1fe0e6bc666dac8fc2697ff9ba",
                    "difficulty" : "0x020000",
                    "extraData" : "",
                    "gasLimit" : "0x989680",
                    "gasUsed" : "0x520b",
                    "hash" : "0x965befce12f35e18278e9c6abd7f31bfd59a159be0f6b874e2e8ff255f84c894",
                    "mixHash" : "0x122d9fecdce8c81096f7ac09c85e81241e776dc92ef155d32c0beb289e342133",
                    "nonce" : "0x7bd030be02b45cfd",
                    "number" : "0x01",
                    "parentHash" : "0xf0cb6b195ef5c242d49a2cd8036a62a9d6a9a6728309b59c6c254d794f0c0051",
                    "receiptTrie" : "0x5e18d0570df18249230e15bd83dcc239f64621b742fd74860557fe87407378a4",
                    "stateRoot" : "0x715c5bebc59ddc652a16bde8d7a8e8c08278fda903637ef1b8f0d6a0aad8e751",
                    "timestamp" : "0x03e8",
                    "transactionsTrie" : "0x665e16be46878b7ae8f5670147e127d6086d9915db7c6cb1db869d8ae876b489",
                    "uncleHash" : "0x1dcc4de8dec75d7aab85b567b6ccd41ad312451b948a7413f0a142fd40d49347"
                },
                "rlp" : "0xf9025ef901f7a0f0cb6b195ef5c242d49a2cd8036a62a9d6a9a6728309b59c6c254d794f0c0051a01dcc4de8dec75d7aab85b567b6ccd41ad312451b948a7413f0a142fd40d49347942adc25665018aa1fe0e6bc666dac8fc2697ff9baa0715c5bebc59ddc652a16bde8d7a8e8c08278fda903637ef1b8f0d6a0aad8e751a0665e16be46878b7ae8f5670147e127d6086d9915db7c6cb1db869d8ae876b489a05e18d0570df18249230e15bd83dcc239f64621b742fd74860557fe87407378a4b901000000000000000000000000000000000000000000000000000000000000000000000000000000000000000000000000000000000000000000000000000000000000000000000000000000000000000000000000000000000000000000000000000000000000000000000000000000000000000000000000000000000000000000000000000000000000000000000000000000000000000000000000000000000000000000000000000000000000000000000000000000000000000000000000000000000000000000000000000000000000000000000000000000000000000000000000000000000000000000000000000000000000000000000000000000000083020000018398968082520b8203e880a0122d9fecdce8c81096f7ac09c85e81241e776dc92ef155d32c0beb289e342133887bd030be02b45cfdf861f85f800182520b94aaae7baea6a6c7c4c2dfeb977efac326af552aaa0a801ca0b736349ed314af23244e16cb7e723d2e19483d98f1e913116e1288efd821e39ca03d84cb7e6409a0baeeeded8cd4f6b234bc9afc71433dbac75f72badd2b0c11adc0",
                "transactions" : [
                    {
                        "data" : "",
                        "gasLimit" : "0x520b",
                        "gasPrice" : "0x01",
                        "nonce" : "0x00",
                        "r" : "0xb736349ed314af23244e16cb7e723d2e19483d98f1e913116e1288efd821e39c",
                        "s" : "0x3d84cb7e6409a0baeeeded8cd4f6b234bc9afc71433dbac75f72badd2b0c11ad",
                        "to" : "0xaaae7baea6a6c7c4c2dfeb977efac326af552aaa",
                        "v" : "0x1c",
                        "value" : "0x0a"
                    }
                ],
                "uncleHeaders" : [
                ]
            }
        ],
        "genesisBlockHeader" : {
            "bloom" : "0x00000000000000000000000000000000000000000000000000000000000000000000000000000000000000000000000000000000000000000000000000000000000000000000000000000000000000000000000000000000000000000000000000000000000000000000000000000000000000000000000000000000000000000000000000000000000000000000000000000000000000000000000000000000000000000000000000000000000000000000000000000000000000000000000000000000000000000000000000000000000000000000000000000000000000000000000000000000000000000000000000000000000000000000000000000000",
            "coinbase" : "0x2adc25665018aa1fe0e6bc666dac8fc2697ff9ba",
            "difficulty" : "0x020000",
            "extraData" : "0x42",
            "gasLimit" : "0x989680",
            "gasUsed" : "0x00",
            "hash" : "0xf0cb6b195ef5c242d49a2cd8036a62a9d6a9a6728309b59c6c254d794f0c0051",
            "mixHash" : "0x56e81f171bcc55a6ff8345e692c0f86e5b48e01b996cadc001622fb5e363b421",
            "nonce" : "0x0102030405060708",
            "number" : "0x00",
            "parentHash" : "0x0000000000000000000000000000000000000000000000000000000000000000",
            "receiptTrie" : "0x56e81f171bcc55a6ff8345e692c0f86e5b48e01b996cadc001622fb5e363b421",
            "stateRoot" : "0x39057e10d75ab5cae85033afec4a621965edb0006fe51103b78dbe1c3c368a42",
            "timestamp" : "0x03b6",
            "transactionsTrie" : "0x56e81f171bcc55a6ff8345e692c0f86e5b48e01b996cadc001622fb5e363b421",
            "uncleHash" : "0x1dcc4de8dec75d7aab85b567b6ccd41ad312451b948a7413f0a142fd40d49347"
        },
        "genesisRLP" : "0xf901faf901f5a00000000000000000000000000000000000000000000000000000000000000000a01dcc4de8dec75d7aab85b567b6ccd41ad312451b948a7413f0a142fd40d49347942adc25665018aa1fe0e6bc666dac8fc2697ff9baa039057e10d75ab5cae85033afec4a621965edb0006fe51103b78dbe1c3c368a42a056e81f171bcc55a6ff8345e692c0f86e5b48e01b996cadc001622fb5e363b421a056e81f171bcc55a6ff8345e692c0f86e5b48e01b996cadc001622fb5e363b421b9010000000000000000000000000000000000000000000000000000000000000000000000000000000000000000000000000000000000000000000000000000000000000000000000000000000000000000000000000000000000000000000000000000000000000000000000000000000000000000000000000000000000000000000000000000000000000000000000000000000000000000000000000000000000000000000000000000000000000000000000000000000000000000000000000000000000000000000000000000000000000000000000000000000000000000000000000000000000000000000000000000000000000000000000000000000000830200008083989680808203b642a056e81f171bcc55a6ff8345e692c0f86e5b48e01b996cadc001622fb5e363b421880102030405060708c0c0",
        "lastblockhash" : "0x965befce12f35e18278e9c6abd7f31bfd59a159be0f6b874e2e8ff255f84c894",
        "network" : "EIP150",
        "postState" : {
            "0x2adc25665018aa1fe0e6bc666dac8fc2697ff9ba" : {
                "balance" : "0x4563918244f4520b",
                "code" : "",
                "nonce" : "0x00",
                "storage" : {
                }
            },
            "0xa94f5374fce5edbc8e2a8697c15331677e6ebf0b" : {
                "balance" : "0x05f58ef5",
                "code" : "",
                "nonce" : "0x01",
                "storage" : {
                }
            },
            "0xaaae7baea6a6c7c4c2dfeb977efac326af552aaa" : {
                "balance" : "0x0de0b6b3a7640000",
                "code" : "0x73095e7baea6a6c7c4c2dfeb977efac326af552d87ff",
                "nonce" : "0x00",
                "storage" : {
                    "0x01" : "0x01"
                }
            }
        },
        "pre" : {
            "0xa94f5374fce5edbc8e2a8697c15331677e6ebf0b" : {
                "balance" : "0x05f5e100",
                "code" : "",
                "nonce" : "0x00",
                "storage" : {
                }
            },
            "0xaaae7baea6a6c7c4c2dfeb977efac326af552aaa" : {
                "balance" : "0x0de0b6b3a7640000",
                "code" : "0x73095e7baea6a6c7c4c2dfeb977efac326af552d87ff",
                "nonce" : "0x00",
                "storage" : {
                    "0x01" : "0x01"
                }
            }
        }
    },
    "refund_TxToSuicide_d0g0v0_EIP158" : {
        "_info" : {
            "comment" : "",
            "filledwith" : "cpp-1.3.0+commit.6e0ce939.Linux.g++",
            "lllcversion" : "Version: 0.4.18-develop.2017.9.25+commit.a72237f2.Linux.g++",
            "source" : "src/BlockchainTestsFiller/GeneralStateTests/stRefundTest/refund_TxToSuicide_d0g0v0Filler.json",
            "sourceHash" : "d9b72d8c00fb4d9187ec2f07a02cff9cf7bf90ee00f2284a815050214f121d57"
        },
        "blocks" : [
            {
                "blockHeader" : {
                    "bloom" : "0x00000000000000000000000000000000000000000000000000000000000000000000000000000000000000000000000000000000000000000000000000000000000000000000000000000000000000000000000000000000000000000000000000000000000000000000000000000000000000000000000000000000000000000000000000000000000000000000000000000000000000000000000000000000000000000000000000000000000000000000000000000000000000000000000000000000000000000000000000000000000000000000000000000000000000000000000000000000000000000000000000000000000000000000000000000000",
                    "coinbase" : "0x2adc25665018aa1fe0e6bc666dac8fc2697ff9ba",
                    "difficulty" : "0x020000",
                    "extraData" : "",
                    "gasLimit" : "0x989680",
                    "gasUsed" : "0x520b",
                    "hash" : "0x2047097d89e944498cbc12871a06c442686eae1ad99a6343f3234bc930a22742",
                    "mixHash" : "0x137f35ef22a94d5ca6e97de9054e326be6f2fda839215360b2034c652fbed956",
                    "nonce" : "0xbe7890c2dc05ea3a",
                    "number" : "0x01",
                    "parentHash" : "0xf0cb6b195ef5c242d49a2cd8036a62a9d6a9a6728309b59c6c254d794f0c0051",
                    "receiptTrie" : "0x5e18d0570df18249230e15bd83dcc239f64621b742fd74860557fe87407378a4",
                    "stateRoot" : "0x715c5bebc59ddc652a16bde8d7a8e8c08278fda903637ef1b8f0d6a0aad8e751",
                    "timestamp" : "0x03e8",
                    "transactionsTrie" : "0x665e16be46878b7ae8f5670147e127d6086d9915db7c6cb1db869d8ae876b489",
                    "uncleHash" : "0x1dcc4de8dec75d7aab85b567b6ccd41ad312451b948a7413f0a142fd40d49347"
                },
                "rlp" : "0xf9025ef901f7a0f0cb6b195ef5c242d49a2cd8036a62a9d6a9a6728309b59c6c254d794f0c0051a01dcc4de8dec75d7aab85b567b6ccd41ad312451b948a7413f0a142fd40d49347942adc25665018aa1fe0e6bc666dac8fc2697ff9baa0715c5bebc59ddc652a16bde8d7a8e8c08278fda903637ef1b8f0d6a0aad8e751a0665e16be46878b7ae8f5670147e127d6086d9915db7c6cb1db869d8ae876b489a05e18d0570df18249230e15bd83dcc239f64621b742fd74860557fe87407378a4b901000000000000000000000000000000000000000000000000000000000000000000000000000000000000000000000000000000000000000000000000000000000000000000000000000000000000000000000000000000000000000000000000000000000000000000000000000000000000000000000000000000000000000000000000000000000000000000000000000000000000000000000000000000000000000000000000000000000000000000000000000000000000000000000000000000000000000000000000000000000000000000000000000000000000000000000000000000000000000000000000000000000000000000000000000000000083020000018398968082520b8203e880a0137f35ef22a94d5ca6e97de9054e326be6f2fda839215360b2034c652fbed95688be7890c2dc05ea3af861f85f800182520b94aaae7baea6a6c7c4c2dfeb977efac326af552aaa0a801ca0b736349ed314af23244e16cb7e723d2e19483d98f1e913116e1288efd821e39ca03d84cb7e6409a0baeeeded8cd4f6b234bc9afc71433dbac75f72badd2b0c11adc0",
                "transactions" : [
                    {
                        "data" : "",
                        "gasLimit" : "0x520b",
                        "gasPrice" : "0x01",
                        "nonce" : "0x00",
                        "r" : "0xb736349ed314af23244e16cb7e723d2e19483d98f1e913116e1288efd821e39c",
                        "s" : "0x3d84cb7e6409a0baeeeded8cd4f6b234bc9afc71433dbac75f72badd2b0c11ad",
                        "to" : "0xaaae7baea6a6c7c4c2dfeb977efac326af552aaa",
                        "v" : "0x1c",
                        "value" : "0x0a"
                    }
                ],
                "uncleHeaders" : [
                ]
            }
        ],
        "genesisBlockHeader" : {
            "bloom" : "0x00000000000000000000000000000000000000000000000000000000000000000000000000000000000000000000000000000000000000000000000000000000000000000000000000000000000000000000000000000000000000000000000000000000000000000000000000000000000000000000000000000000000000000000000000000000000000000000000000000000000000000000000000000000000000000000000000000000000000000000000000000000000000000000000000000000000000000000000000000000000000000000000000000000000000000000000000000000000000000000000000000000000000000000000000000000",
            "coinbase" : "0x2adc25665018aa1fe0e6bc666dac8fc2697ff9ba",
            "difficulty" : "0x020000",
            "extraData" : "0x42",
            "gasLimit" : "0x989680",
            "gasUsed" : "0x00",
            "hash" : "0xf0cb6b195ef5c242d49a2cd8036a62a9d6a9a6728309b59c6c254d794f0c0051",
            "mixHash" : "0x56e81f171bcc55a6ff8345e692c0f86e5b48e01b996cadc001622fb5e363b421",
            "nonce" : "0x0102030405060708",
            "number" : "0x00",
            "parentHash" : "0x0000000000000000000000000000000000000000000000000000000000000000",
            "receiptTrie" : "0x56e81f171bcc55a6ff8345e692c0f86e5b48e01b996cadc001622fb5e363b421",
            "stateRoot" : "0x39057e10d75ab5cae85033afec4a621965edb0006fe51103b78dbe1c3c368a42",
            "timestamp" : "0x03b6",
            "transactionsTrie" : "0x56e81f171bcc55a6ff8345e692c0f86e5b48e01b996cadc001622fb5e363b421",
            "uncleHash" : "0x1dcc4de8dec75d7aab85b567b6ccd41ad312451b948a7413f0a142fd40d49347"
        },
        "genesisRLP" : "0xf901faf901f5a00000000000000000000000000000000000000000000000000000000000000000a01dcc4de8dec75d7aab85b567b6ccd41ad312451b948a7413f0a142fd40d49347942adc25665018aa1fe0e6bc666dac8fc2697ff9baa039057e10d75ab5cae85033afec4a621965edb0006fe51103b78dbe1c3c368a42a056e81f171bcc55a6ff8345e692c0f86e5b48e01b996cadc001622fb5e363b421a056e81f171bcc55a6ff8345e692c0f86e5b48e01b996cadc001622fb5e363b421b9010000000000000000000000000000000000000000000000000000000000000000000000000000000000000000000000000000000000000000000000000000000000000000000000000000000000000000000000000000000000000000000000000000000000000000000000000000000000000000000000000000000000000000000000000000000000000000000000000000000000000000000000000000000000000000000000000000000000000000000000000000000000000000000000000000000000000000000000000000000000000000000000000000000000000000000000000000000000000000000000000000000000000000000000000000000000830200008083989680808203b642a056e81f171bcc55a6ff8345e692c0f86e5b48e01b996cadc001622fb5e363b421880102030405060708c0c0",
        "lastblockhash" : "0x2047097d89e944498cbc12871a06c442686eae1ad99a6343f3234bc930a22742",
        "network" : "EIP158",
        "postState" : {
            "0x2adc25665018aa1fe0e6bc666dac8fc2697ff9ba" : {
                "balance" : "0x4563918244f4520b",
                "code" : "",
                "nonce" : "0x00",
                "storage" : {
                }
            },
            "0xa94f5374fce5edbc8e2a8697c15331677e6ebf0b" : {
                "balance" : "0x05f58ef5",
                "code" : "",
                "nonce" : "0x01",
                "storage" : {
                }
            },
            "0xaaae7baea6a6c7c4c2dfeb977efac326af552aaa" : {
                "balance" : "0x0de0b6b3a7640000",
                "code" : "0x73095e7baea6a6c7c4c2dfeb977efac326af552d87ff",
                "nonce" : "0x00",
                "storage" : {
                    "0x01" : "0x01"
                }
            }
        },
        "pre" : {
            "0xa94f5374fce5edbc8e2a8697c15331677e6ebf0b" : {
                "balance" : "0x05f5e100",
                "code" : "",
                "nonce" : "0x00",
                "storage" : {
                }
            },
            "0xaaae7baea6a6c7c4c2dfeb977efac326af552aaa" : {
                "balance" : "0x0de0b6b3a7640000",
                "code" : "0x73095e7baea6a6c7c4c2dfeb977efac326af552d87ff",
                "nonce" : "0x00",
                "storage" : {
                    "0x01" : "0x01"
                }
            }
        }
    },
    "refund_TxToSuicide_d0g0v0_Frontier" : {
        "_info" : {
            "comment" : "",
            "filledwith" : "cpp-1.3.0+commit.6e0ce939.Linux.g++",
            "lllcversion" : "Version: 0.4.18-develop.2017.9.25+commit.a72237f2.Linux.g++",
            "source" : "src/BlockchainTestsFiller/GeneralStateTests/stRefundTest/refund_TxToSuicide_d0g0v0Filler.json",
            "sourceHash" : "d9b72d8c00fb4d9187ec2f07a02cff9cf7bf90ee00f2284a815050214f121d57"
        },
        "blocks" : [
            {
                "blockHeader" : {
                    "bloom" : "0x00000000000000000000000000000000000000000000000000000000000000000000000000000000000000000000000000000000000000000000000000000000000000000000000000000000000000000000000000000000000000000000000000000000000000000000000000000000000000000000000000000000000000000000000000000000000000000000000000000000000000000000000000000000000000000000000000000000000000000000000000000000000000000000000000000000000000000000000000000000000000000000000000000000000000000000000000000000000000000000000000000000000000000000000000000000",
                    "coinbase" : "0x2adc25665018aa1fe0e6bc666dac8fc2697ff9ba",
                    "difficulty" : "0x020000",
                    "extraData" : "",
                    "gasLimit" : "0x989680",
                    "gasUsed" : "0x2906",
                    "hash" : "0x286c0ad6e53778275b03cd609bcfe8a2ee0cbe3d13b534fdf16c6e09e66b61c1",
                    "mixHash" : "0xfef9150e6f873a86c97f930fc24ce916979301a2a4eb1af91bb0d837b9be2e30",
                    "nonce" : "0x67a5cb8b325f48b0",
                    "number" : "0x01",
                    "parentHash" : "0xf0cb6b195ef5c242d49a2cd8036a62a9d6a9a6728309b59c6c254d794f0c0051",
                    "receiptTrie" : "0xd4b15c293435a5d48086c5f74c34acb137fdd345d11d1210adaa4f280e1860f4",
                    "stateRoot" : "0x6a48a28ef51d1648c351cc529b9da76a9c8d740c7973d169d24c24c199cbb83e",
                    "timestamp" : "0x03e8",
                    "transactionsTrie" : "0x665e16be46878b7ae8f5670147e127d6086d9915db7c6cb1db869d8ae876b489",
                    "uncleHash" : "0x1dcc4de8dec75d7aab85b567b6ccd41ad312451b948a7413f0a142fd40d49347"
                },
                "rlp" : "0xf9025ef901f7a0f0cb6b195ef5c242d49a2cd8036a62a9d6a9a6728309b59c6c254d794f0c0051a01dcc4de8dec75d7aab85b567b6ccd41ad312451b948a7413f0a142fd40d49347942adc25665018aa1fe0e6bc666dac8fc2697ff9baa06a48a28ef51d1648c351cc529b9da76a9c8d740c7973d169d24c24c199cbb83ea0665e16be46878b7ae8f5670147e127d6086d9915db7c6cb1db869d8ae876b489a0d4b15c293435a5d48086c5f74c34acb137fdd345d11d1210adaa4f280e1860f4b90100000000000000000000000000000000000000000000000000000000000000000000000000000000000000000000000000000000000000000000000000000000000000000000000000000000000000000000000000000000000000000000000000000000000000000000000000000000000000000000000000000000000000000000000000000000000000000000000000000000000000000000000000000000000000000000000000000000000000000000000000000000000000000000000000000000000000000000000000000000000000000000000000000000000000000000000000000000000000000000000000000000000000000000000000000000008302000001839896808229068203e880a0fef9150e6f873a86c97f930fc24ce916979301a2a4eb1af91bb0d837b9be2e308867a5cb8b325f48b0f861f85f800182520b94aaae7baea6a6c7c4c2dfeb977efac326af552aaa0a801ca0b736349ed314af23244e16cb7e723d2e19483d98f1e913116e1288efd821e39ca03d84cb7e6409a0baeeeded8cd4f6b234bc9afc71433dbac75f72badd2b0c11adc0",
                "transactions" : [
                    {
                        "data" : "",
                        "gasLimit" : "0x520b",
                        "gasPrice" : "0x01",
                        "nonce" : "0x00",
                        "r" : "0xb736349ed314af23244e16cb7e723d2e19483d98f1e913116e1288efd821e39c",
                        "s" : "0x3d84cb7e6409a0baeeeded8cd4f6b234bc9afc71433dbac75f72badd2b0c11ad",
                        "to" : "0xaaae7baea6a6c7c4c2dfeb977efac326af552aaa",
                        "v" : "0x1c",
                        "value" : "0x0a"
                    }
                ],
                "uncleHeaders" : [
                ]
            }
        ],
        "genesisBlockHeader" : {
            "bloom" : "0x00000000000000000000000000000000000000000000000000000000000000000000000000000000000000000000000000000000000000000000000000000000000000000000000000000000000000000000000000000000000000000000000000000000000000000000000000000000000000000000000000000000000000000000000000000000000000000000000000000000000000000000000000000000000000000000000000000000000000000000000000000000000000000000000000000000000000000000000000000000000000000000000000000000000000000000000000000000000000000000000000000000000000000000000000000000",
            "coinbase" : "0x2adc25665018aa1fe0e6bc666dac8fc2697ff9ba",
            "difficulty" : "0x020000",
            "extraData" : "0x42",
            "gasLimit" : "0x989680",
            "gasUsed" : "0x00",
            "hash" : "0xf0cb6b195ef5c242d49a2cd8036a62a9d6a9a6728309b59c6c254d794f0c0051",
            "mixHash" : "0x56e81f171bcc55a6ff8345e692c0f86e5b48e01b996cadc001622fb5e363b421",
            "nonce" : "0x0102030405060708",
            "number" : "0x00",
            "parentHash" : "0x0000000000000000000000000000000000000000000000000000000000000000",
            "receiptTrie" : "0x56e81f171bcc55a6ff8345e692c0f86e5b48e01b996cadc001622fb5e363b421",
            "stateRoot" : "0x39057e10d75ab5cae85033afec4a621965edb0006fe51103b78dbe1c3c368a42",
            "timestamp" : "0x03b6",
            "transactionsTrie" : "0x56e81f171bcc55a6ff8345e692c0f86e5b48e01b996cadc001622fb5e363b421",
            "uncleHash" : "0x1dcc4de8dec75d7aab85b567b6ccd41ad312451b948a7413f0a142fd40d49347"
        },
        "genesisRLP" : "0xf901faf901f5a00000000000000000000000000000000000000000000000000000000000000000a01dcc4de8dec75d7aab85b567b6ccd41ad312451b948a7413f0a142fd40d49347942adc25665018aa1fe0e6bc666dac8fc2697ff9baa039057e10d75ab5cae85033afec4a621965edb0006fe51103b78dbe1c3c368a42a056e81f171bcc55a6ff8345e692c0f86e5b48e01b996cadc001622fb5e363b421a056e81f171bcc55a6ff8345e692c0f86e5b48e01b996cadc001622fb5e363b421b9010000000000000000000000000000000000000000000000000000000000000000000000000000000000000000000000000000000000000000000000000000000000000000000000000000000000000000000000000000000000000000000000000000000000000000000000000000000000000000000000000000000000000000000000000000000000000000000000000000000000000000000000000000000000000000000000000000000000000000000000000000000000000000000000000000000000000000000000000000000000000000000000000000000000000000000000000000000000000000000000000000000000000000000000000000000000830200008083989680808203b642a056e81f171bcc55a6ff8345e692c0f86e5b48e01b996cadc001622fb5e363b421880102030405060708c0c0",
        "lastblockhash" : "0x286c0ad6e53778275b03cd609bcfe8a2ee0cbe3d13b534fdf16c6e09e66b61c1",
        "network" : "Frontier",
        "postState" : {
            "0x095e7baea6a6c7c4c2dfeb977efac326af552d87" : {
                "balance" : "0x0de0b6b3a764000a",
                "code" : "",
                "nonce" : "0x00",
                "storage" : {
                }
            },
            "0x2adc25665018aa1fe0e6bc666dac8fc2697ff9ba" : {
                "balance" : "0x4563918244f42906",
                "code" : "",
                "nonce" : "0x00",
                "storage" : {
                }
            },
            "0xa94f5374fce5edbc8e2a8697c15331677e6ebf0b" : {
                "balance" : "0x05f5b7f0",
                "code" : "",
                "nonce" : "0x01",
                "storage" : {
                }
            }
        },
        "pre" : {
            "0xa94f5374fce5edbc8e2a8697c15331677e6ebf0b" : {
                "balance" : "0x05f5e100",
                "code" : "",
                "nonce" : "0x00",
                "storage" : {
                }
            },
            "0xaaae7baea6a6c7c4c2dfeb977efac326af552aaa" : {
                "balance" : "0x0de0b6b3a7640000",
                "code" : "0x73095e7baea6a6c7c4c2dfeb977efac326af552d87ff",
                "nonce" : "0x00",
                "storage" : {
                    "0x01" : "0x01"
                }
            }
        }
    },
    "refund_TxToSuicide_d0g0v0_Homestead" : {
        "_info" : {
            "comment" : "",
            "filledwith" : "cpp-1.3.0+commit.6e0ce939.Linux.g++",
            "lllcversion" : "Version: 0.4.18-develop.2017.9.25+commit.a72237f2.Linux.g++",
            "source" : "src/BlockchainTestsFiller/GeneralStateTests/stRefundTest/refund_TxToSuicide_d0g0v0Filler.json",
            "sourceHash" : "d9b72d8c00fb4d9187ec2f07a02cff9cf7bf90ee00f2284a815050214f121d57"
        },
        "blocks" : [
            {
                "blockHeader" : {
                    "bloom" : "0x00000000000000000000000000000000000000000000000000000000000000000000000000000000000000000000000000000000000000000000000000000000000000000000000000000000000000000000000000000000000000000000000000000000000000000000000000000000000000000000000000000000000000000000000000000000000000000000000000000000000000000000000000000000000000000000000000000000000000000000000000000000000000000000000000000000000000000000000000000000000000000000000000000000000000000000000000000000000000000000000000000000000000000000000000000000",
                    "coinbase" : "0x2adc25665018aa1fe0e6bc666dac8fc2697ff9ba",
                    "difficulty" : "0x020000",
                    "extraData" : "",
                    "gasLimit" : "0x989680",
                    "gasUsed" : "0x2906",
                    "hash" : "0xf803afc8848f9269dd428898e5988e36dd1b390e908cccbeee25c6cf64abc182",
                    "mixHash" : "0xb7885e90b9152023381dc3cd9168ebeaf58854d4a280572ae7cdaf91661e185d",
                    "nonce" : "0x76c5114c1b5754f6",
                    "number" : "0x01",
                    "parentHash" : "0xf0cb6b195ef5c242d49a2cd8036a62a9d6a9a6728309b59c6c254d794f0c0051",
                    "receiptTrie" : "0xd4b15c293435a5d48086c5f74c34acb137fdd345d11d1210adaa4f280e1860f4",
                    "stateRoot" : "0x6a48a28ef51d1648c351cc529b9da76a9c8d740c7973d169d24c24c199cbb83e",
                    "timestamp" : "0x03e8",
                    "transactionsTrie" : "0x665e16be46878b7ae8f5670147e127d6086d9915db7c6cb1db869d8ae876b489",
                    "uncleHash" : "0x1dcc4de8dec75d7aab85b567b6ccd41ad312451b948a7413f0a142fd40d49347"
                },
                "rlp" : "0xf9025ef901f7a0f0cb6b195ef5c242d49a2cd8036a62a9d6a9a6728309b59c6c254d794f0c0051a01dcc4de8dec75d7aab85b567b6ccd41ad312451b948a7413f0a142fd40d49347942adc25665018aa1fe0e6bc666dac8fc2697ff9baa06a48a28ef51d1648c351cc529b9da76a9c8d740c7973d169d24c24c199cbb83ea0665e16be46878b7ae8f5670147e127d6086d9915db7c6cb1db869d8ae876b489a0d4b15c293435a5d48086c5f74c34acb137fdd345d11d1210adaa4f280e1860f4b90100000000000000000000000000000000000000000000000000000000000000000000000000000000000000000000000000000000000000000000000000000000000000000000000000000000000000000000000000000000000000000000000000000000000000000000000000000000000000000000000000000000000000000000000000000000000000000000000000000000000000000000000000000000000000000000000000000000000000000000000000000000000000000000000000000000000000000000000000000000000000000000000000000000000000000000000000000000000000000000000000000000000000000000000000000000008302000001839896808229068203e880a0b7885e90b9152023381dc3cd9168ebeaf58854d4a280572ae7cdaf91661e185d8876c5114c1b5754f6f861f85f800182520b94aaae7baea6a6c7c4c2dfeb977efac326af552aaa0a801ca0b736349ed314af23244e16cb7e723d2e19483d98f1e913116e1288efd821e39ca03d84cb7e6409a0baeeeded8cd4f6b234bc9afc71433dbac75f72badd2b0c11adc0",
                "transactions" : [
                    {
                        "data" : "",
                        "gasLimit" : "0x520b",
                        "gasPrice" : "0x01",
                        "nonce" : "0x00",
                        "r" : "0xb736349ed314af23244e16cb7e723d2e19483d98f1e913116e1288efd821e39c",
                        "s" : "0x3d84cb7e6409a0baeeeded8cd4f6b234bc9afc71433dbac75f72badd2b0c11ad",
                        "to" : "0xaaae7baea6a6c7c4c2dfeb977efac326af552aaa",
                        "v" : "0x1c",
                        "value" : "0x0a"
                    }
                ],
                "uncleHeaders" : [
                ]
            }
        ],
        "genesisBlockHeader" : {
            "bloom" : "0x00000000000000000000000000000000000000000000000000000000000000000000000000000000000000000000000000000000000000000000000000000000000000000000000000000000000000000000000000000000000000000000000000000000000000000000000000000000000000000000000000000000000000000000000000000000000000000000000000000000000000000000000000000000000000000000000000000000000000000000000000000000000000000000000000000000000000000000000000000000000000000000000000000000000000000000000000000000000000000000000000000000000000000000000000000000",
            "coinbase" : "0x2adc25665018aa1fe0e6bc666dac8fc2697ff9ba",
            "difficulty" : "0x020000",
            "extraData" : "0x42",
            "gasLimit" : "0x989680",
            "gasUsed" : "0x00",
            "hash" : "0xf0cb6b195ef5c242d49a2cd8036a62a9d6a9a6728309b59c6c254d794f0c0051",
            "mixHash" : "0x56e81f171bcc55a6ff8345e692c0f86e5b48e01b996cadc001622fb5e363b421",
            "nonce" : "0x0102030405060708",
            "number" : "0x00",
            "parentHash" : "0x0000000000000000000000000000000000000000000000000000000000000000",
            "receiptTrie" : "0x56e81f171bcc55a6ff8345e692c0f86e5b48e01b996cadc001622fb5e363b421",
            "stateRoot" : "0x39057e10d75ab5cae85033afec4a621965edb0006fe51103b78dbe1c3c368a42",
            "timestamp" : "0x03b6",
            "transactionsTrie" : "0x56e81f171bcc55a6ff8345e692c0f86e5b48e01b996cadc001622fb5e363b421",
            "uncleHash" : "0x1dcc4de8dec75d7aab85b567b6ccd41ad312451b948a7413f0a142fd40d49347"
        },
        "genesisRLP" : "0xf901faf901f5a00000000000000000000000000000000000000000000000000000000000000000a01dcc4de8dec75d7aab85b567b6ccd41ad312451b948a7413f0a142fd40d49347942adc25665018aa1fe0e6bc666dac8fc2697ff9baa039057e10d75ab5cae85033afec4a621965edb0006fe51103b78dbe1c3c368a42a056e81f171bcc55a6ff8345e692c0f86e5b48e01b996cadc001622fb5e363b421a056e81f171bcc55a6ff8345e692c0f86e5b48e01b996cadc001622fb5e363b421b9010000000000000000000000000000000000000000000000000000000000000000000000000000000000000000000000000000000000000000000000000000000000000000000000000000000000000000000000000000000000000000000000000000000000000000000000000000000000000000000000000000000000000000000000000000000000000000000000000000000000000000000000000000000000000000000000000000000000000000000000000000000000000000000000000000000000000000000000000000000000000000000000000000000000000000000000000000000000000000000000000000000000000000000000000000000000830200008083989680808203b642a056e81f171bcc55a6ff8345e692c0f86e5b48e01b996cadc001622fb5e363b421880102030405060708c0c0",
        "lastblockhash" : "0xf803afc8848f9269dd428898e5988e36dd1b390e908cccbeee25c6cf64abc182",
        "network" : "Homestead",
        "postState" : {
            "0x095e7baea6a6c7c4c2dfeb977efac326af552d87" : {
                "balance" : "0x0de0b6b3a764000a",
                "code" : "",
                "nonce" : "0x00",
                "storage" : {
                }
            },
            "0x2adc25665018aa1fe0e6bc666dac8fc2697ff9ba" : {
                "balance" : "0x4563918244f42906",
                "code" : "",
                "nonce" : "0x00",
                "storage" : {
                }
            },
            "0xa94f5374fce5edbc8e2a8697c15331677e6ebf0b" : {
                "balance" : "0x05f5b7f0",
                "code" : "",
                "nonce" : "0x01",
                "storage" : {
                }
            }
        },
        "pre" : {
            "0xa94f5374fce5edbc8e2a8697c15331677e6ebf0b" : {
                "balance" : "0x05f5e100",
                "code" : "",
                "nonce" : "0x00",
                "storage" : {
                }
            },
            "0xaaae7baea6a6c7c4c2dfeb977efac326af552aaa" : {
                "balance" : "0x0de0b6b3a7640000",
                "code" : "0x73095e7baea6a6c7c4c2dfeb977efac326af552d87ff",
                "nonce" : "0x00",
                "storage" : {
                    "0x01" : "0x01"
                }
            }
        }
    }
}