{
    "refund_CallToSuicideNoStorage_d1g0v0_Byzantium" : {
        "_info" : {
            "comment" : "",
            "filledwith" : "cpp-1.3.0+commit.6e0ce939.Linux.g++",
            "lllcversion" : "Version: 0.4.18-develop.2017.9.25+commit.a72237f2.Linux.g++",
            "source" : "src/BlockchainTestsFiller/GeneralStateTests/stRefundTest/refund_CallToSuicideNoStorage_d1g0v0Filler.json",
            "sourceHash" : "d7d2029bcbf17fdecc8d52dba9989bfed0f23405811a9ee3efde7ba0f9c81011"
        },
        "blocks" : [
            {
                "blockHeader" : {
                    "bloom" : "0x00000000000000000000000000000000000000000000000000000000000000000000000000000000000000000000000000000000000000000000000000000000000000000000000000000000000000000000000000000000000000000000000000000000000000000000000000000000000000000000000000000000000000000000000000000000000000000000000000000000000000000000000000000000000000000000000000000000000000000000000000000000000000000000000000000000000000000000000000000000000000000000000000000000000000000000000000000000000000000000000000000000000000000000000000000000",
                    "coinbase" : "0x2adc25665018aa1fe0e6bc666dac8fc2697ff9ba",
                    "difficulty" : "0x020000",
                    "extraData" : "",
                    "gasLimit" : "0x989680",
                    "gasUsed" : "0x5ba5",
                    "hash" : "0xb65e8a294191dc21db221b21745f2ef30807ad7fe4fab71c5a215721751bbcd8",
                    "mixHash" : "0x4f82db9d5b612cd258780c52b943b63e876e1d644b361dc4674201933cd66658",
                    "nonce" : "0x34208885c21d6b0f",
                    "number" : "0x01",
                    "parentHash" : "0xa26a93aa54cf494a9553cd6f644648724b3d302ed9644bc393b77fe100f515c6",
                    "receiptTrie" : "0x72266a13e75386db59178ac5409794ca14df029795264ddc46ffbe93be70ea6f",
                    "stateRoot" : "0x9c23dd1c51e3b3c09c220c1fb86dd6973b482635211dc13f596475ecdd5af2ed",
                    "timestamp" : "0x03e8",
                    "transactionsTrie" : "0x6417532406065a8b4c1cf8ddcaf1d716331a691134f71ef983b1ea79e6f298cc",
                    "uncleHash" : "0x1dcc4de8dec75d7aab85b567b6ccd41ad312451b948a7413f0a142fd40d49347"
                },
                "rlp" : "0xf9027ff901f7a0a26a93aa54cf494a9553cd6f644648724b3d302ed9644bc393b77fe100f515c6a01dcc4de8dec75d7aab85b567b6ccd41ad312451b948a7413f0a142fd40d49347942adc25665018aa1fe0e6bc666dac8fc2697ff9baa09c23dd1c51e3b3c09c220c1fb86dd6973b482635211dc13f596475ecdd5af2eda06417532406065a8b4c1cf8ddcaf1d716331a691134f71ef983b1ea79e6f298cca072266a13e75386db59178ac5409794ca14df029795264ddc46ffbe93be70ea6fb9010000000000000000000000000000000000000000000000000000000000000000000000000000000000000000000000000000000000000000000000000000000000000000000000000000000000000000000000000000000000000000000000000000000000000000000000000000000000000000000000000000000000000000000000000000000000000000000000000000000000000000000000000000000000000000000000000000000000000000000000000000000000000000000000000000000000000000000000000000000000000000000000000000000000000000000000000000000000000000000000000000000000000000000000000000000000830200000183989680825ba58203e880a04f82db9d5b612cd258780c52b943b63e876e1d644b361dc4674201933cd666588834208885c21d6b0ff882f88080018398968094095e7baea6a6c7c4c2dfeb977efac326af552d870aa000000000000000000000000000000000000000000000000000000000000100001ca07cf650c8b46640cee08fec6eaf2aa358ff40ad53d6d234cc946e5cc768c4b628a07e7a81143236d25fe0f6ddbcc3a42535f19984dadd428aedfe174a7f065b7bccc0",
                "transactions" : [
                    {
                        "data" : "0x0000000000000000000000000000000000000000000000000000000000010000",
                        "gasLimit" : "0x989680",
                        "gasPrice" : "0x01",
                        "nonce" : "0x00",
                        "r" : "0x7cf650c8b46640cee08fec6eaf2aa358ff40ad53d6d234cc946e5cc768c4b628",
                        "s" : "0x7e7a81143236d25fe0f6ddbcc3a42535f19984dadd428aedfe174a7f065b7bcc",
                        "to" : "0x095e7baea6a6c7c4c2dfeb977efac326af552d87",
                        "v" : "0x1c",
                        "value" : "0x0a"
                    }
                ],
                "uncleHeaders" : [
                ]
            }
        ],
        "genesisBlockHeader" : {
            "bloom" : "0x00000000000000000000000000000000000000000000000000000000000000000000000000000000000000000000000000000000000000000000000000000000000000000000000000000000000000000000000000000000000000000000000000000000000000000000000000000000000000000000000000000000000000000000000000000000000000000000000000000000000000000000000000000000000000000000000000000000000000000000000000000000000000000000000000000000000000000000000000000000000000000000000000000000000000000000000000000000000000000000000000000000000000000000000000000000",
            "coinbase" : "0x2adc25665018aa1fe0e6bc666dac8fc2697ff9ba",
            "difficulty" : "0x020000",
            "extraData" : "0x42",
            "gasLimit" : "0x989680",
            "gasUsed" : "0x00",
            "hash" : "0xa26a93aa54cf494a9553cd6f644648724b3d302ed9644bc393b77fe100f515c6",
            "mixHash" : "0x56e81f171bcc55a6ff8345e692c0f86e5b48e01b996cadc001622fb5e363b421",
            "nonce" : "0x0102030405060708",
            "number" : "0x00",
            "parentHash" : "0x0000000000000000000000000000000000000000000000000000000000000000",
            "receiptTrie" : "0x56e81f171bcc55a6ff8345e692c0f86e5b48e01b996cadc001622fb5e363b421",
            "stateRoot" : "0x97f06e9b6eb04ffc2197b9e2f902aea3accd588b825d7f1a9a305af440bf0bea",
            "timestamp" : "0x03b6",
            "transactionsTrie" : "0x56e81f171bcc55a6ff8345e692c0f86e5b48e01b996cadc001622fb5e363b421",
            "uncleHash" : "0x1dcc4de8dec75d7aab85b567b6ccd41ad312451b948a7413f0a142fd40d49347"
        },
        "genesisRLP" : "0xf901faf901f5a00000000000000000000000000000000000000000000000000000000000000000a01dcc4de8dec75d7aab85b567b6ccd41ad312451b948a7413f0a142fd40d49347942adc25665018aa1fe0e6bc666dac8fc2697ff9baa097f06e9b6eb04ffc2197b9e2f902aea3accd588b825d7f1a9a305af440bf0beaa056e81f171bcc55a6ff8345e692c0f86e5b48e01b996cadc001622fb5e363b421a056e81f171bcc55a6ff8345e692c0f86e5b48e01b996cadc001622fb5e363b421b9010000000000000000000000000000000000000000000000000000000000000000000000000000000000000000000000000000000000000000000000000000000000000000000000000000000000000000000000000000000000000000000000000000000000000000000000000000000000000000000000000000000000000000000000000000000000000000000000000000000000000000000000000000000000000000000000000000000000000000000000000000000000000000000000000000000000000000000000000000000000000000000000000000000000000000000000000000000000000000000000000000000000000000000000000000000000830200008083989680808203b642a056e81f171bcc55a6ff8345e692c0f86e5b48e01b996cadc001622fb5e363b421880102030405060708c0c0",
        "lastblockhash" : "0xb65e8a294191dc21db221b21745f2ef30807ad7fe4fab71c5a215721751bbcd8",
        "network" : "Byzantium",
        "postState" : {
            "0x095e7baea6a6c7c4c2dfeb977efac326af552d87" : {
                "balance" : "0x1bc16d674ec8000a",
                "code" : "0x6000600060006000600073aaae7baea6a6c7c4c2dfeb977efac326af552aaa600035f1600055",
                "nonce" : "0x00",
                "storage" : {
                    "0x00" : "0x01",
                    "0x01" : "0x01"
                }
            },
            "0x2adc25665018aa1fe0e6bc666dac8fc2697ff9ba" : {
                "balance" : "0x29a2241af62c5ba5",
                "code" : "",
                "nonce" : "0x00",
                "storage" : {
                }
            },
            "0xa94f5374fce5edbc8e2a8697c15331677e6ebf0b" : {
                "balance" : "0x05f58551",
                "code" : "",
                "nonce" : "0x01",
                "storage" : {
                }
            }
        },
        "pre" : {
            "0x095e7baea6a6c7c4c2dfeb977efac326af552d87" : {
                "balance" : "0x0de0b6b3a7640000",
                "code" : "0x6000600060006000600073aaae7baea6a6c7c4c2dfeb977efac326af552aaa600035f1600055",
                "nonce" : "0x00",
                "storage" : {
                    "0x01" : "0x01"
                }
            },
            "0xa94f5374fce5edbc8e2a8697c15331677e6ebf0b" : {
                "balance" : "0x05f5e100",
                "code" : "",
                "nonce" : "0x00",
                "storage" : {
                }
            },
            "0xaaae7baea6a6c7c4c2dfeb977efac326af552aaa" : {
                "balance" : "0x0de0b6b3a7640000",
                "code" : "0x73095e7baea6a6c7c4c2dfeb977efac326af552d87ff",
                "nonce" : "0x00",
                "storage" : {
                }
            }
        }
    },
    "refund_CallToSuicideNoStorage_d1g0v0_EIP150" : {
        "_info" : {
            "comment" : "",
            "filledwith" : "cpp-1.3.0+commit.6e0ce939.Linux.g++",
            "lllcversion" : "Version: 0.4.18-develop.2017.9.25+commit.a72237f2.Linux.g++",
            "source" : "src/BlockchainTestsFiller/GeneralStateTests/stRefundTest/refund_CallToSuicideNoStorage_d1g0v0Filler.json",
            "sourceHash" : "d7d2029bcbf17fdecc8d52dba9989bfed0f23405811a9ee3efde7ba0f9c81011"
        },
        "blocks" : [
            {
                "blockHeader" : {
                    "bloom" : "0x00000000000000000000000000000000000000000000000000000000000000000000000000000000000000000000000000000000000000000000000000000000000000000000000000000000000000000000000000000000000000000000000000000000000000000000000000000000000000000000000000000000000000000000000000000000000000000000000000000000000000000000000000000000000000000000000000000000000000000000000000000000000000000000000000000000000000000000000000000000000000000000000000000000000000000000000000000000000000000000000000000000000000000000000000000000",
                    "coinbase" : "0x2adc25665018aa1fe0e6bc666dac8fc2697ff9ba",
                    "difficulty" : "0x020000",
                    "extraData" : "",
                    "gasLimit" : "0x989680",
                    "gasUsed" : "0x5ba5",
                    "hash" : "0x52459dd38fdf2fe0f7505e743b4a8a58f857c3e7fa57eaab52dbc028750ad1da",
                    "mixHash" : "0xac8e9fa639a7ec4459819333e8e6cb181946925cc13c049170d11a10487d385d",
                    "nonce" : "0x0eba8eec9c55f906",
                    "number" : "0x01",
                    "parentHash" : "0xa26a93aa54cf494a9553cd6f644648724b3d302ed9644bc393b77fe100f515c6",
                    "receiptTrie" : "0x2baee5e20a8ba9840322a73e69073540679f06fd8be716b0a47c28d8805ccde5",
                    "stateRoot" : "0x33502c4c63922fca6b527f387ed8442a005b326575fcad3cc5a61ea9f3dfdef2",
                    "timestamp" : "0x03e8",
                    "transactionsTrie" : "0x6417532406065a8b4c1cf8ddcaf1d716331a691134f71ef983b1ea79e6f298cc",
                    "uncleHash" : "0x1dcc4de8dec75d7aab85b567b6ccd41ad312451b948a7413f0a142fd40d49347"
                },
                "rlp" : "0xf9027ff901f7a0a26a93aa54cf494a9553cd6f644648724b3d302ed9644bc393b77fe100f515c6a01dcc4de8dec75d7aab85b567b6ccd41ad312451b948a7413f0a142fd40d49347942adc25665018aa1fe0e6bc666dac8fc2697ff9baa033502c4c63922fca6b527f387ed8442a005b326575fcad3cc5a61ea9f3dfdef2a06417532406065a8b4c1cf8ddcaf1d716331a691134f71ef983b1ea79e6f298cca02baee5e20a8ba9840322a73e69073540679f06fd8be716b0a47c28d8805ccde5b9010000000000000000000000000000000000000000000000000000000000000000000000000000000000000000000000000000000000000000000000000000000000000000000000000000000000000000000000000000000000000000000000000000000000000000000000000000000000000000000000000000000000000000000000000000000000000000000000000000000000000000000000000000000000000000000000000000000000000000000000000000000000000000000000000000000000000000000000000000000000000000000000000000000000000000000000000000000000000000000000000000000000000000000000000000000000830200000183989680825ba58203e880a0ac8e9fa639a7ec4459819333e8e6cb181946925cc13c049170d11a10487d385d880eba8eec9c55f906f882f88080018398968094095e7baea6a6c7c4c2dfeb977efac326af552d870aa000000000000000000000000000000000000000000000000000000000000100001ca07cf650c8b46640cee08fec6eaf2aa358ff40ad53d6d234cc946e5cc768c4b628a07e7a81143236d25fe0f6ddbcc3a42535f19984dadd428aedfe174a7f065b7bccc0",
                "transactions" : [
                    {
                        "data" : "0x0000000000000000000000000000000000000000000000000000000000010000",
                        "gasLimit" : "0x989680",
                        "gasPrice" : "0x01",
                        "nonce" : "0x00",
                        "r" : "0x7cf650c8b46640cee08fec6eaf2aa358ff40ad53d6d234cc946e5cc768c4b628",
                        "s" : "0x7e7a81143236d25fe0f6ddbcc3a42535f19984dadd428aedfe174a7f065b7bcc",
                        "to" : "0x095e7baea6a6c7c4c2dfeb977efac326af552d87",
                        "v" : "0x1c",
                        "value" : "0x0a"
                    }
                ],
                "uncleHeaders" : [
                ]
            }
        ],
        "genesisBlockHeader" : {
            "bloom" : "0x00000000000000000000000000000000000000000000000000000000000000000000000000000000000000000000000000000000000000000000000000000000000000000000000000000000000000000000000000000000000000000000000000000000000000000000000000000000000000000000000000000000000000000000000000000000000000000000000000000000000000000000000000000000000000000000000000000000000000000000000000000000000000000000000000000000000000000000000000000000000000000000000000000000000000000000000000000000000000000000000000000000000000000000000000000000",
            "coinbase" : "0x2adc25665018aa1fe0e6bc666dac8fc2697ff9ba",
            "difficulty" : "0x020000",
            "extraData" : "0x42",
            "gasLimit" : "0x989680",
            "gasUsed" : "0x00",
            "hash" : "0xa26a93aa54cf494a9553cd6f644648724b3d302ed9644bc393b77fe100f515c6",
            "mixHash" : "0x56e81f171bcc55a6ff8345e692c0f86e5b48e01b996cadc001622fb5e363b421",
            "nonce" : "0x0102030405060708",
            "number" : "0x00",
            "parentHash" : "0x0000000000000000000000000000000000000000000000000000000000000000",
            "receiptTrie" : "0x56e81f171bcc55a6ff8345e692c0f86e5b48e01b996cadc001622fb5e363b421",
            "stateRoot" : "0x97f06e9b6eb04ffc2197b9e2f902aea3accd588b825d7f1a9a305af440bf0bea",
            "timestamp" : "0x03b6",
            "transactionsTrie" : "0x56e81f171bcc55a6ff8345e692c0f86e5b48e01b996cadc001622fb5e363b421",
            "uncleHash" : "0x1dcc4de8dec75d7aab85b567b6ccd41ad312451b948a7413f0a142fd40d49347"
        },
        "genesisRLP" : "0xf901faf901f5a00000000000000000000000000000000000000000000000000000000000000000a01dcc4de8dec75d7aab85b567b6ccd41ad312451b948a7413f0a142fd40d49347942adc25665018aa1fe0e6bc666dac8fc2697ff9baa097f06e9b6eb04ffc2197b9e2f902aea3accd588b825d7f1a9a305af440bf0beaa056e81f171bcc55a6ff8345e692c0f86e5b48e01b996cadc001622fb5e363b421a056e81f171bcc55a6ff8345e692c0f86e5b48e01b996cadc001622fb5e363b421b9010000000000000000000000000000000000000000000000000000000000000000000000000000000000000000000000000000000000000000000000000000000000000000000000000000000000000000000000000000000000000000000000000000000000000000000000000000000000000000000000000000000000000000000000000000000000000000000000000000000000000000000000000000000000000000000000000000000000000000000000000000000000000000000000000000000000000000000000000000000000000000000000000000000000000000000000000000000000000000000000000000000000000000000000000000000000830200008083989680808203b642a056e81f171bcc55a6ff8345e692c0f86e5b48e01b996cadc001622fb5e363b421880102030405060708c0c0",
        "lastblockhash" : "0x52459dd38fdf2fe0f7505e743b4a8a58f857c3e7fa57eaab52dbc028750ad1da",
        "network" : "EIP150",
        "postState" : {
            "0x095e7baea6a6c7c4c2dfeb977efac326af552d87" : {
                "balance" : "0x1bc16d674ec8000a",
                "code" : "0x6000600060006000600073aaae7baea6a6c7c4c2dfeb977efac326af552aaa600035f1600055",
                "nonce" : "0x00",
                "storage" : {
                    "0x00" : "0x01",
                    "0x01" : "0x01"
                }
            },
            "0x2adc25665018aa1fe0e6bc666dac8fc2697ff9ba" : {
                "balance" : "0x4563918244f45ba5",
                "code" : "",
                "nonce" : "0x00",
                "storage" : {
                }
            },
            "0xa94f5374fce5edbc8e2a8697c15331677e6ebf0b" : {
                "balance" : "0x05f58551",
                "code" : "",
                "nonce" : "0x01",
                "storage" : {
                }
            }
        },
        "pre" : {
            "0x095e7baea6a6c7c4c2dfeb977efac326af552d87" : {
                "balance" : "0x0de0b6b3a7640000",
                "code" : "0x6000600060006000600073aaae7baea6a6c7c4c2dfeb977efac326af552aaa600035f1600055",
                "nonce" : "0x00",
                "storage" : {
                    "0x01" : "0x01"
                }
            },
            "0xa94f5374fce5edbc8e2a8697c15331677e6ebf0b" : {
                "balance" : "0x05f5e100",
                "code" : "",
                "nonce" : "0x00",
                "storage" : {
                }
            },
            "0xaaae7baea6a6c7c4c2dfeb977efac326af552aaa" : {
                "balance" : "0x0de0b6b3a7640000",
                "code" : "0x73095e7baea6a6c7c4c2dfeb977efac326af552d87ff",
                "nonce" : "0x00",
                "storage" : {
                }
            }
        }
    },
    "refund_CallToSuicideNoStorage_d1g0v0_EIP158" : {
        "_info" : {
            "comment" : "",
            "filledwith" : "cpp-1.3.0+commit.6e0ce939.Linux.g++",
            "lllcversion" : "Version: 0.4.18-develop.2017.9.25+commit.a72237f2.Linux.g++",
            "source" : "src/BlockchainTestsFiller/GeneralStateTests/stRefundTest/refund_CallToSuicideNoStorage_d1g0v0Filler.json",
            "sourceHash" : "d7d2029bcbf17fdecc8d52dba9989bfed0f23405811a9ee3efde7ba0f9c81011"
        },
        "blocks" : [
            {
                "blockHeader" : {
                    "bloom" : "0x00000000000000000000000000000000000000000000000000000000000000000000000000000000000000000000000000000000000000000000000000000000000000000000000000000000000000000000000000000000000000000000000000000000000000000000000000000000000000000000000000000000000000000000000000000000000000000000000000000000000000000000000000000000000000000000000000000000000000000000000000000000000000000000000000000000000000000000000000000000000000000000000000000000000000000000000000000000000000000000000000000000000000000000000000000000",
                    "coinbase" : "0x2adc25665018aa1fe0e6bc666dac8fc2697ff9ba",
                    "difficulty" : "0x020000",
                    "extraData" : "",
                    "gasLimit" : "0x989680",
                    "gasUsed" : "0x5ba5",
                    "hash" : "0xab39d1c96ea92ac1ab71007dc9ffca511454f0e021465519db47e9ccf063c66d",
                    "mixHash" : "0xb14325591c74e4f77189f5c2fbeae016efa65c73c03d59e040f3f87c94f2e8e9",
                    "nonce" : "0x4ce1cea559ccbfb4",
                    "number" : "0x01",
                    "parentHash" : "0xa26a93aa54cf494a9553cd6f644648724b3d302ed9644bc393b77fe100f515c6",
                    "receiptTrie" : "0x2baee5e20a8ba9840322a73e69073540679f06fd8be716b0a47c28d8805ccde5",
                    "stateRoot" : "0x33502c4c63922fca6b527f387ed8442a005b326575fcad3cc5a61ea9f3dfdef2",
                    "timestamp" : "0x03e8",
                    "transactionsTrie" : "0x6417532406065a8b4c1cf8ddcaf1d716331a691134f71ef983b1ea79e6f298cc",
                    "uncleHash" : "0x1dcc4de8dec75d7aab85b567b6ccd41ad312451b948a7413f0a142fd40d49347"
                },
                "rlp" : "0xf9027ff901f7a0a26a93aa54cf494a9553cd6f644648724b3d302ed9644bc393b77fe100f515c6a01dcc4de8dec75d7aab85b567b6ccd41ad312451b948a7413f0a142fd40d49347942adc25665018aa1fe0e6bc666dac8fc2697ff9baa033502c4c63922fca6b527f387ed8442a005b326575fcad3cc5a61ea9f3dfdef2a06417532406065a8b4c1cf8ddcaf1d716331a691134f71ef983b1ea79e6f298cca02baee5e20a8ba9840322a73e69073540679f06fd8be716b0a47c28d8805ccde5b9010000000000000000000000000000000000000000000000000000000000000000000000000000000000000000000000000000000000000000000000000000000000000000000000000000000000000000000000000000000000000000000000000000000000000000000000000000000000000000000000000000000000000000000000000000000000000000000000000000000000000000000000000000000000000000000000000000000000000000000000000000000000000000000000000000000000000000000000000000000000000000000000000000000000000000000000000000000000000000000000000000000000000000000000000000000000830200000183989680825ba58203e880a0b14325591c74e4f77189f5c2fbeae016efa65c73c03d59e040f3f87c94f2e8e9884ce1cea559ccbfb4f882f88080018398968094095e7baea6a6c7c4c2dfeb977efac326af552d870aa000000000000000000000000000000000000000000000000000000000000100001ca07cf650c8b46640cee08fec6eaf2aa358ff40ad53d6d234cc946e5cc768c4b628a07e7a81143236d25fe0f6ddbcc3a42535f19984dadd428aedfe174a7f065b7bccc0",
                "transactions" : [
                    {
                        "data" : "0x0000000000000000000000000000000000000000000000000000000000010000",
                        "gasLimit" : "0x989680",
                        "gasPrice" : "0x01",
                        "nonce" : "0x00",
                        "r" : "0x7cf650c8b46640cee08fec6eaf2aa358ff40ad53d6d234cc946e5cc768c4b628",
                        "s" : "0x7e7a81143236d25fe0f6ddbcc3a42535f19984dadd428aedfe174a7f065b7bcc",
                        "to" : "0x095e7baea6a6c7c4c2dfeb977efac326af552d87",
                        "v" : "0x1c",
                        "value" : "0x0a"
                    }
                ],
                "uncleHeaders" : [
                ]
            }
        ],
        "genesisBlockHeader" : {
            "bloom" : "0x00000000000000000000000000000000000000000000000000000000000000000000000000000000000000000000000000000000000000000000000000000000000000000000000000000000000000000000000000000000000000000000000000000000000000000000000000000000000000000000000000000000000000000000000000000000000000000000000000000000000000000000000000000000000000000000000000000000000000000000000000000000000000000000000000000000000000000000000000000000000000000000000000000000000000000000000000000000000000000000000000000000000000000000000000000000",
            "coinbase" : "0x2adc25665018aa1fe0e6bc666dac8fc2697ff9ba",
            "difficulty" : "0x020000",
            "extraData" : "0x42",
            "gasLimit" : "0x989680",
            "gasUsed" : "0x00",
            "hash" : "0xa26a93aa54cf494a9553cd6f644648724b3d302ed9644bc393b77fe100f515c6",
            "mixHash" : "0x56e81f171bcc55a6ff8345e692c0f86e5b48e01b996cadc001622fb5e363b421",
            "nonce" : "0x0102030405060708",
            "number" : "0x00",
            "parentHash" : "0x0000000000000000000000000000000000000000000000000000000000000000",
            "receiptTrie" : "0x56e81f171bcc55a6ff8345e692c0f86e5b48e01b996cadc001622fb5e363b421",
            "stateRoot" : "0x97f06e9b6eb04ffc2197b9e2f902aea3accd588b825d7f1a9a305af440bf0bea",
            "timestamp" : "0x03b6",
            "transactionsTrie" : "0x56e81f171bcc55a6ff8345e692c0f86e5b48e01b996cadc001622fb5e363b421",
            "uncleHash" : "0x1dcc4de8dec75d7aab85b567b6ccd41ad312451b948a7413f0a142fd40d49347"
        },
        "genesisRLP" : "0xf901faf901f5a00000000000000000000000000000000000000000000000000000000000000000a01dcc4de8dec75d7aab85b567b6ccd41ad312451b948a7413f0a142fd40d49347942adc25665018aa1fe0e6bc666dac8fc2697ff9baa097f06e9b6eb04ffc2197b9e2f902aea3accd588b825d7f1a9a305af440bf0beaa056e81f171bcc55a6ff8345e692c0f86e5b48e01b996cadc001622fb5e363b421a056e81f171bcc55a6ff8345e692c0f86e5b48e01b996cadc001622fb5e363b421b9010000000000000000000000000000000000000000000000000000000000000000000000000000000000000000000000000000000000000000000000000000000000000000000000000000000000000000000000000000000000000000000000000000000000000000000000000000000000000000000000000000000000000000000000000000000000000000000000000000000000000000000000000000000000000000000000000000000000000000000000000000000000000000000000000000000000000000000000000000000000000000000000000000000000000000000000000000000000000000000000000000000000000000000000000000000000830200008083989680808203b642a056e81f171bcc55a6ff8345e692c0f86e5b48e01b996cadc001622fb5e363b421880102030405060708c0c0",
        "lastblockhash" : "0xab39d1c96ea92ac1ab71007dc9ffca511454f0e021465519db47e9ccf063c66d",
        "network" : "EIP158",
        "postState" : {
            "0x095e7baea6a6c7c4c2dfeb977efac326af552d87" : {
                "balance" : "0x1bc16d674ec8000a",
                "code" : "0x6000600060006000600073aaae7baea6a6c7c4c2dfeb977efac326af552aaa600035f1600055",
                "nonce" : "0x00",
                "storage" : {
                    "0x00" : "0x01",
                    "0x01" : "0x01"
                }
            },
            "0x2adc25665018aa1fe0e6bc666dac8fc2697ff9ba" : {
                "balance" : "0x4563918244f45ba5",
                "code" : "",
                "nonce" : "0x00",
                "storage" : {
                }
            },
            "0xa94f5374fce5edbc8e2a8697c15331677e6ebf0b" : {
                "balance" : "0x05f58551",
                "code" : "",
                "nonce" : "0x01",
                "storage" : {
                }
            }
        },
        "pre" : {
            "0x095e7baea6a6c7c4c2dfeb977efac326af552d87" : {
                "balance" : "0x0de0b6b3a7640000",
                "code" : "0x6000600060006000600073aaae7baea6a6c7c4c2dfeb977efac326af552aaa600035f1600055",
                "nonce" : "0x00",
                "storage" : {
                    "0x01" : "0x01"
                }
            },
            "0xa94f5374fce5edbc8e2a8697c15331677e6ebf0b" : {
                "balance" : "0x05f5e100",
                "code" : "",
                "nonce" : "0x00",
                "storage" : {
                }
            },
            "0xaaae7baea6a6c7c4c2dfeb977efac326af552aaa" : {
                "balance" : "0x0de0b6b3a7640000",
                "code" : "0x73095e7baea6a6c7c4c2dfeb977efac326af552d87ff",
                "nonce" : "0x00",
                "storage" : {
                }
            }
        }
    },
    "refund_CallToSuicideNoStorage_d1g0v0_Frontier" : {
        "_info" : {
            "comment" : "",
            "filledwith" : "cpp-1.3.0+commit.6e0ce939.Linux.g++",
            "lllcversion" : "Version: 0.4.18-develop.2017.9.25+commit.a72237f2.Linux.g++",
            "source" : "src/BlockchainTestsFiller/GeneralStateTests/stRefundTest/refund_CallToSuicideNoStorage_d1g0v0Filler.json",
            "sourceHash" : "d7d2029bcbf17fdecc8d52dba9989bfed0f23405811a9ee3efde7ba0f9c81011"
        },
        "blocks" : [
            {
                "blockHeader" : {
                    "bloom" : "0x00000000000000000000000000000000000000000000000000000000000000000000000000000000000000000000000000000000000000000000000000000000000000000000000000000000000000000000000000000000000000000000000000000000000000000000000000000000000000000000000000000000000000000000000000000000000000000000000000000000000000000000000000000000000000000000000000000000000000000000000000000000000000000000000000000000000000000000000000000000000000000000000000000000000000000000000000000000000000000000000000000000000000000000000000000000",
                    "coinbase" : "0x2adc25665018aa1fe0e6bc666dac8fc2697ff9ba",
                    "difficulty" : "0x020000",
                    "extraData" : "",
                    "gasLimit" : "0x989680",
                    "gasUsed" : "0x5097",
                    "hash" : "0x1f8bf06ac512a8e1488b62875d27f532f2f796757692b3c4167af3e658562c7d",
                    "mixHash" : "0xa5b434d63071a85df8582cf7df3b96bfecb0a3284d01bc2ecba6803eb6ff2d72",
                    "nonce" : "0x07c641de9bc1ebc5",
                    "number" : "0x01",
                    "parentHash" : "0xa26a93aa54cf494a9553cd6f644648724b3d302ed9644bc393b77fe100f515c6",
                    "receiptTrie" : "0x4aed715e223b0a97ae25f596341609129ba903602aed59256a2d23b93bdf0a3c",
                    "stateRoot" : "0x9bcd576f06199fb445095610ff21cbf362b6f58dcd419c3b560c377803fedcc6",
                    "timestamp" : "0x03e8",
                    "transactionsTrie" : "0x6417532406065a8b4c1cf8ddcaf1d716331a691134f71ef983b1ea79e6f298cc",
                    "uncleHash" : "0x1dcc4de8dec75d7aab85b567b6ccd41ad312451b948a7413f0a142fd40d49347"
                },
                "rlp" : "0xf9027ff901f7a0a26a93aa54cf494a9553cd6f644648724b3d302ed9644bc393b77fe100f515c6a01dcc4de8dec75d7aab85b567b6ccd41ad312451b948a7413f0a142fd40d49347942adc25665018aa1fe0e6bc666dac8fc2697ff9baa09bcd576f06199fb445095610ff21cbf362b6f58dcd419c3b560c377803fedcc6a06417532406065a8b4c1cf8ddcaf1d716331a691134f71ef983b1ea79e6f298cca04aed715e223b0a97ae25f596341609129ba903602aed59256a2d23b93bdf0a3cb90100000000000000000000000000000000000000000000000000000000000000000000000000000000000000000000000000000000000000000000000000000000000000000000000000000000000000000000000000000000000000000000000000000000000000000000000000000000000000000000000000000000000000000000000000000000000000000000000000000000000000000000000000000000000000000000000000000000000000000000000000000000000000000000000000000000000000000000000000000000000000000000000000000000000000000000000000000000000000000000000000000000000000000000000000000000008302000001839896808250978203e880a0a5b434d63071a85df8582cf7df3b96bfecb0a3284d01bc2ecba6803eb6ff2d728807c641de9bc1ebc5f882f88080018398968094095e7baea6a6c7c4c2dfeb977efac326af552d870aa000000000000000000000000000000000000000000000000000000000000100001ca07cf650c8b46640cee08fec6eaf2aa358ff40ad53d6d234cc946e5cc768c4b628a07e7a81143236d25fe0f6ddbcc3a42535f19984dadd428aedfe174a7f065b7bccc0",
                "transactions" : [
                    {
                        "data" : "0x0000000000000000000000000000000000000000000000000000000000010000",
                        "gasLimit" : "0x989680",
                        "gasPrice" : "0x01",
                        "nonce" : "0x00",
                        "r" : "0x7cf650c8b46640cee08fec6eaf2aa358ff40ad53d6d234cc946e5cc768c4b628",
                        "s" : "0x7e7a81143236d25fe0f6ddbcc3a42535f19984dadd428aedfe174a7f065b7bcc",
                        "to" : "0x095e7baea6a6c7c4c2dfeb977efac326af552d87",
                        "v" : "0x1c",
                        "value" : "0x0a"
                    }
                ],
                "uncleHeaders" : [
                ]
            }
        ],
        "genesisBlockHeader" : {
            "bloom" : "0x00000000000000000000000000000000000000000000000000000000000000000000000000000000000000000000000000000000000000000000000000000000000000000000000000000000000000000000000000000000000000000000000000000000000000000000000000000000000000000000000000000000000000000000000000000000000000000000000000000000000000000000000000000000000000000000000000000000000000000000000000000000000000000000000000000000000000000000000000000000000000000000000000000000000000000000000000000000000000000000000000000000000000000000000000000000",
            "coinbase" : "0x2adc25665018aa1fe0e6bc666dac8fc2697ff9ba",
            "difficulty" : "0x020000",
            "extraData" : "0x42",
            "gasLimit" : "0x989680",
            "gasUsed" : "0x00",
            "hash" : "0xa26a93aa54cf494a9553cd6f644648724b3d302ed9644bc393b77fe100f515c6",
            "mixHash" : "0x56e81f171bcc55a6ff8345e692c0f86e5b48e01b996cadc001622fb5e363b421",
            "nonce" : "0x0102030405060708",
            "number" : "0x00",
            "parentHash" : "0x0000000000000000000000000000000000000000000000000000000000000000",
            "receiptTrie" : "0x56e81f171bcc55a6ff8345e692c0f86e5b48e01b996cadc001622fb5e363b421",
            "stateRoot" : "0x97f06e9b6eb04ffc2197b9e2f902aea3accd588b825d7f1a9a305af440bf0bea",
            "timestamp" : "0x03b6",
            "transactionsTrie" : "0x56e81f171bcc55a6ff8345e692c0f86e5b48e01b996cadc001622fb5e363b421",
            "uncleHash" : "0x1dcc4de8dec75d7aab85b567b6ccd41ad312451b948a7413f0a142fd40d49347"
        },
        "genesisRLP" : "0xf901faf901f5a00000000000000000000000000000000000000000000000000000000000000000a01dcc4de8dec75d7aab85b567b6ccd41ad312451b948a7413f0a142fd40d49347942adc25665018aa1fe0e6bc666dac8fc2697ff9baa097f06e9b6eb04ffc2197b9e2f902aea3accd588b825d7f1a9a305af440bf0beaa056e81f171bcc55a6ff8345e692c0f86e5b48e01b996cadc001622fb5e363b421a056e81f171bcc55a6ff8345e692c0f86e5b48e01b996cadc001622fb5e363b421b9010000000000000000000000000000000000000000000000000000000000000000000000000000000000000000000000000000000000000000000000000000000000000000000000000000000000000000000000000000000000000000000000000000000000000000000000000000000000000000000000000000000000000000000000000000000000000000000000000000000000000000000000000000000000000000000000000000000000000000000000000000000000000000000000000000000000000000000000000000000000000000000000000000000000000000000000000000000000000000000000000000000000000000000000000000000000830200008083989680808203b642a056e81f171bcc55a6ff8345e692c0f86e5b48e01b996cadc001622fb5e363b421880102030405060708c0c0",
        "lastblockhash" : "0x1f8bf06ac512a8e1488b62875d27f532f2f796757692b3c4167af3e658562c7d",
        "network" : "Frontier",
        "postState" : {
            "0x095e7baea6a6c7c4c2dfeb977efac326af552d87" : {
                "balance" : "0x1bc16d674ec8000a",
                "code" : "0x6000600060006000600073aaae7baea6a6c7c4c2dfeb977efac326af552aaa600035f1600055",
                "nonce" : "0x00",
                "storage" : {
                    "0x00" : "0x01",
                    "0x01" : "0x01"
                }
            },
            "0x2adc25665018aa1fe0e6bc666dac8fc2697ff9ba" : {
                "balance" : "0x4563918244f45097",
                "code" : "",
                "nonce" : "0x00",
                "storage" : {
                }
            },
            "0xa94f5374fce5edbc8e2a8697c15331677e6ebf0b" : {
                "balance" : "0x05f5905f",
                "code" : "",
                "nonce" : "0x01",
                "storage" : {
                }
            }
        },
        "pre" : {
            "0x095e7baea6a6c7c4c2dfeb977efac326af552d87" : {
                "balance" : "0x0de0b6b3a7640000",
                "code" : "0x6000600060006000600073aaae7baea6a6c7c4c2dfeb977efac326af552aaa600035f1600055",
                "nonce" : "0x00",
                "storage" : {
                    "0x01" : "0x01"
                }
            },
            "0xa94f5374fce5edbc8e2a8697c15331677e6ebf0b" : {
                "balance" : "0x05f5e100",
                "code" : "",
                "nonce" : "0x00",
                "storage" : {
                }
            },
            "0xaaae7baea6a6c7c4c2dfeb977efac326af552aaa" : {
                "balance" : "0x0de0b6b3a7640000",
                "code" : "0x73095e7baea6a6c7c4c2dfeb977efac326af552d87ff",
                "nonce" : "0x00",
                "storage" : {
                }
            }
        }
    },
    "refund_CallToSuicideNoStorage_d1g0v0_Homestead" : {
        "_info" : {
            "comment" : "",
            "filledwith" : "cpp-1.3.0+commit.6e0ce939.Linux.g++",
            "lllcversion" : "Version: 0.4.18-develop.2017.9.25+commit.a72237f2.Linux.g++",
            "source" : "src/BlockchainTestsFiller/GeneralStateTests/stRefundTest/refund_CallToSuicideNoStorage_d1g0v0Filler.json",
            "sourceHash" : "d7d2029bcbf17fdecc8d52dba9989bfed0f23405811a9ee3efde7ba0f9c81011"
        },
        "blocks" : [
            {
                "blockHeader" : {
                    "bloom" : "0x00000000000000000000000000000000000000000000000000000000000000000000000000000000000000000000000000000000000000000000000000000000000000000000000000000000000000000000000000000000000000000000000000000000000000000000000000000000000000000000000000000000000000000000000000000000000000000000000000000000000000000000000000000000000000000000000000000000000000000000000000000000000000000000000000000000000000000000000000000000000000000000000000000000000000000000000000000000000000000000000000000000000000000000000000000000",
                    "coinbase" : "0x2adc25665018aa1fe0e6bc666dac8fc2697ff9ba",
                    "difficulty" : "0x020000",
                    "extraData" : "",
                    "gasLimit" : "0x989680",
                    "gasUsed" : "0x5097",
                    "hash" : "0x1752d474119b289353899d2e214832f76032341d04bb3d4c7c325bab945e1416",
                    "mixHash" : "0x9dff93cde67abd17ae1d7d818dfccda7a36861dc049f080c909a1e8a31cd0a80",
                    "nonce" : "0xfd642051f87510f3",
                    "number" : "0x01",
                    "parentHash" : "0xa26a93aa54cf494a9553cd6f644648724b3d302ed9644bc393b77fe100f515c6",
                    "receiptTrie" : "0x4aed715e223b0a97ae25f596341609129ba903602aed59256a2d23b93bdf0a3c",
                    "stateRoot" : "0x9bcd576f06199fb445095610ff21cbf362b6f58dcd419c3b560c377803fedcc6",
                    "timestamp" : "0x03e8",
                    "transactionsTrie" : "0x6417532406065a8b4c1cf8ddcaf1d716331a691134f71ef983b1ea79e6f298cc",
                    "uncleHash" : "0x1dcc4de8dec75d7aab85b567b6ccd41ad312451b948a7413f0a142fd40d49347"
                },
                "rlp" : "0xf9027ff901f7a0a26a93aa54cf494a9553cd6f644648724b3d302ed9644bc393b77fe100f515c6a01dcc4de8dec75d7aab85b567b6ccd41ad312451b948a7413f0a142fd40d49347942adc25665018aa1fe0e6bc666dac8fc2697ff9baa09bcd576f06199fb445095610ff21cbf362b6f58dcd419c3b560c377803fedcc6a06417532406065a8b4c1cf8ddcaf1d716331a691134f71ef983b1ea79e6f298cca04aed715e223b0a97ae25f596341609129ba903602aed59256a2d23b93bdf0a3cb90100000000000000000000000000000000000000000000000000000000000000000000000000000000000000000000000000000000000000000000000000000000000000000000000000000000000000000000000000000000000000000000000000000000000000000000000000000000000000000000000000000000000000000000000000000000000000000000000000000000000000000000000000000000000000000000000000000000000000000000000000000000000000000000000000000000000000000000000000000000000000000000000000000000000000000000000000000000000000000000000000000000000000000000000000000000008302000001839896808250978203e880a09dff93cde67abd17ae1d7d818dfccda7a36861dc049f080c909a1e8a31cd0a8088fd642051f87510f3f882f88080018398968094095e7baea6a6c7c4c2dfeb977efac326af552d870aa000000000000000000000000000000000000000000000000000000000000100001ca07cf650c8b46640cee08fec6eaf2aa358ff40ad53d6d234cc946e5cc768c4b628a07e7a81143236d25fe0f6ddbcc3a42535f19984dadd428aedfe174a7f065b7bccc0",
                "transactions" : [
                    {
                        "data" : "0x0000000000000000000000000000000000000000000000000000000000010000",
                        "gasLimit" : "0x989680",
                        "gasPrice" : "0x01",
                        "nonce" : "0x00",
                        "r" : "0x7cf650c8b46640cee08fec6eaf2aa358ff40ad53d6d234cc946e5cc768c4b628",
                        "s" : "0x7e7a81143236d25fe0f6ddbcc3a42535f19984dadd428aedfe174a7f065b7bcc",
                        "to" : "0x095e7baea6a6c7c4c2dfeb977efac326af552d87",
                        "v" : "0x1c",
                        "value" : "0x0a"
                    }
                ],
                "uncleHeaders" : [
                ]
            }
        ],
        "genesisBlockHeader" : {
            "bloom" : "0x00000000000000000000000000000000000000000000000000000000000000000000000000000000000000000000000000000000000000000000000000000000000000000000000000000000000000000000000000000000000000000000000000000000000000000000000000000000000000000000000000000000000000000000000000000000000000000000000000000000000000000000000000000000000000000000000000000000000000000000000000000000000000000000000000000000000000000000000000000000000000000000000000000000000000000000000000000000000000000000000000000000000000000000000000000000",
            "coinbase" : "0x2adc25665018aa1fe0e6bc666dac8fc2697ff9ba",
            "difficulty" : "0x020000",
            "extraData" : "0x42",
            "gasLimit" : "0x989680",
            "gasUsed" : "0x00",
            "hash" : "0xa26a93aa54cf494a9553cd6f644648724b3d302ed9644bc393b77fe100f515c6",
            "mixHash" : "0x56e81f171bcc55a6ff8345e692c0f86e5b48e01b996cadc001622fb5e363b421",
            "nonce" : "0x0102030405060708",
            "number" : "0x00",
            "parentHash" : "0x0000000000000000000000000000000000000000000000000000000000000000",
            "receiptTrie" : "0x56e81f171bcc55a6ff8345e692c0f86e5b48e01b996cadc001622fb5e363b421",
            "stateRoot" : "0x97f06e9b6eb04ffc2197b9e2f902aea3accd588b825d7f1a9a305af440bf0bea",
            "timestamp" : "0x03b6",
            "transactionsTrie" : "0x56e81f171bcc55a6ff8345e692c0f86e5b48e01b996cadc001622fb5e363b421",
            "uncleHash" : "0x1dcc4de8dec75d7aab85b567b6ccd41ad312451b948a7413f0a142fd40d49347"
        },
        "genesisRLP" : "0xf901faf901f5a00000000000000000000000000000000000000000000000000000000000000000a01dcc4de8dec75d7aab85b567b6ccd41ad312451b948a7413f0a142fd40d49347942adc25665018aa1fe0e6bc666dac8fc2697ff9baa097f06e9b6eb04ffc2197b9e2f902aea3accd588b825d7f1a9a305af440bf0beaa056e81f171bcc55a6ff8345e692c0f86e5b48e01b996cadc001622fb5e363b421a056e81f171bcc55a6ff8345e692c0f86e5b48e01b996cadc001622fb5e363b421b9010000000000000000000000000000000000000000000000000000000000000000000000000000000000000000000000000000000000000000000000000000000000000000000000000000000000000000000000000000000000000000000000000000000000000000000000000000000000000000000000000000000000000000000000000000000000000000000000000000000000000000000000000000000000000000000000000000000000000000000000000000000000000000000000000000000000000000000000000000000000000000000000000000000000000000000000000000000000000000000000000000000000000000000000000000000000830200008083989680808203b642a056e81f171bcc55a6ff8345e692c0f86e5b48e01b996cadc001622fb5e363b421880102030405060708c0c0",
        "lastblockhash" : "0x1752d474119b289353899d2e214832f76032341d04bb3d4c7c325bab945e1416",
        "network" : "Homestead",
        "postState" : {
            "0x095e7baea6a6c7c4c2dfeb977efac326af552d87" : {
                "balance" : "0x1bc16d674ec8000a",
                "code" : "0x6000600060006000600073aaae7baea6a6c7c4c2dfeb977efac326af552aaa600035f1600055",
                "nonce" : "0x00",
                "storage" : {
                    "0x00" : "0x01",
                    "0x01" : "0x01"
                }
            },
            "0x2adc25665018aa1fe0e6bc666dac8fc2697ff9ba" : {
                "balance" : "0x4563918244f45097",
                "code" : "",
                "nonce" : "0x00",
                "storage" : {
                }
            },
            "0xa94f5374fce5edbc8e2a8697c15331677e6ebf0b" : {
                "balance" : "0x05f5905f",
                "code" : "",
                "nonce" : "0x01",
                "storage" : {
                }
            }
        },
        "pre" : {
            "0x095e7baea6a6c7c4c2dfeb977efac326af552d87" : {
                "balance" : "0x0de0b6b3a7640000",
                "code" : "0x6000600060006000600073aaae7baea6a6c7c4c2dfeb977efac326af552aaa600035f1600055",
                "nonce" : "0x00",
                "storage" : {
                    "0x01" : "0x01"
                }
            },
            "0xa94f5374fce5edbc8e2a8697c15331677e6ebf0b" : {
                "balance" : "0x05f5e100",
                "code" : "",
                "nonce" : "0x00",
                "storage" : {
                }
            },
            "0xaaae7baea6a6c7c4c2dfeb977efac326af552aaa" : {
                "balance" : "0x0de0b6b3a7640000",
                "code" : "0x73095e7baea6a6c7c4c2dfeb977efac326af552d87ff",
                "nonce" : "0x00",
                "storage" : {
                }
            }
        }
    }
}