{
    "refund_TxToSuicideOOG_d0g0v0_Byzantium" : {
        "_info" : {
            "comment" : "",
            "filledwith" : "cpp-1.3.0+commit.6e0ce939.Linux.g++",
            "lllcversion" : "Version: 0.4.18-develop.2017.9.25+commit.a72237f2.Linux.g++",
            "source" : "src/BlockchainTestsFiller/GeneralStateTests/stRefundTest/refund_TxToSuicideOOG_d0g0v0Filler.json",
            "sourceHash" : "2df29d9940ea482f147585906402ff98860f41c6d321d36f63ef4f0af5ca5758"
        },
        "blocks" : [
            {
                "blockHeader" : {
                    "bloom" : "0x00000000000000000000000000000000000000000000000000000000000000000000000000000000000000000000000000000000000000000000000000000000000000000000000000000000000000000000000000000000000000000000000000000000000000000000000000000000000000000000000000000000000000000000000000000000000000000000000000000000000000000000000000000000000000000000000000000000000000000000000000000000000000000000000000000000000000000000000000000000000000000000000000000000000000000000000000000000000000000000000000000000000000000000000000000000",
                    "coinbase" : "0x2adc25665018aa1fe0e6bc666dac8fc2697ff9ba",
                    "difficulty" : "0x020000",
                    "extraData" : "",
                    "gasLimit" : "0x989680",
                    "gasUsed" : "0x520a",
                    "hash" : "0x613da8a959858e2aadabd5b05603d5964632da5841643082aa34edb927edaadf",
                    "mixHash" : "0xd9541f89c8ae3d0349d57871f355c6e8f08501404964acb4897107cc2bcd4416",
                    "nonce" : "0x6336aa805d0ad497",
                    "number" : "0x01",
                    "parentHash" : "0xf0cb6b195ef5c242d49a2cd8036a62a9d6a9a6728309b59c6c254d794f0c0051",
                    "receiptTrie" : "0x2f80f76d88921985d5457a0dde2cf5102df4037660f8902f3fa43762ea476d71",
                    "stateRoot" : "0x3bad07ef6dd3eba883a2ec7f9d7a4ebcfc67bd691cb0728647ac6e841a1bba8c",
                    "timestamp" : "0x03e8",
                    "transactionsTrie" : "0x7210e5b1e98318cc777a06b9f3c8d639ff872ee48490861aeee6f9ea0875f0ad",
                    "uncleHash" : "0x1dcc4de8dec75d7aab85b567b6ccd41ad312451b948a7413f0a142fd40d49347"
                },
                "rlp" : "0xf9025ef901f7a0f0cb6b195ef5c242d49a2cd8036a62a9d6a9a6728309b59c6c254d794f0c0051a01dcc4de8dec75d7aab85b567b6ccd41ad312451b948a7413f0a142fd40d49347942adc25665018aa1fe0e6bc666dac8fc2697ff9baa03bad07ef6dd3eba883a2ec7f9d7a4ebcfc67bd691cb0728647ac6e841a1bba8ca07210e5b1e98318cc777a06b9f3c8d639ff872ee48490861aeee6f9ea0875f0ada02f80f76d88921985d5457a0dde2cf5102df4037660f8902f3fa43762ea476d71b901000000000000000000000000000000000000000000000000000000000000000000000000000000000000000000000000000000000000000000000000000000000000000000000000000000000000000000000000000000000000000000000000000000000000000000000000000000000000000000000000000000000000000000000000000000000000000000000000000000000000000000000000000000000000000000000000000000000000000000000000000000000000000000000000000000000000000000000000000000000000000000000000000000000000000000000000000000000000000000000000000000000000000000000000000000000083020000018398968082520a8203e880a0d9541f89c8ae3d0349d57871f355c6e8f08501404964acb4897107cc2bcd4416886336aa805d0ad497f861f85f800182520a94aaae7baea6a6c7c4c2dfeb977efac326af552aaa0a801ca09c647c65c10f9a3f2e16878a25405b22f2fef2ec96b18d68f68d34d551b93de4a023267f7401ef09f9615de4bbb3943cb2be892bc889efff06f16fddf59ac3ac91c0",
                "transactions" : [
                    {
                        "data" : "",
                        "gasLimit" : "0x520a",
                        "gasPrice" : "0x01",
                        "nonce" : "0x00",
                        "r" : "0x9c647c65c10f9a3f2e16878a25405b22f2fef2ec96b18d68f68d34d551b93de4",
                        "s" : "0x23267f7401ef09f9615de4bbb3943cb2be892bc889efff06f16fddf59ac3ac91",
                        "to" : "0xaaae7baea6a6c7c4c2dfeb977efac326af552aaa",
                        "v" : "0x1c",
                        "value" : "0x0a"
                    }
                ],
                "uncleHeaders" : [
                ]
            }
        ],
        "genesisBlockHeader" : {
            "bloom" : "0x00000000000000000000000000000000000000000000000000000000000000000000000000000000000000000000000000000000000000000000000000000000000000000000000000000000000000000000000000000000000000000000000000000000000000000000000000000000000000000000000000000000000000000000000000000000000000000000000000000000000000000000000000000000000000000000000000000000000000000000000000000000000000000000000000000000000000000000000000000000000000000000000000000000000000000000000000000000000000000000000000000000000000000000000000000000",
            "coinbase" : "0x2adc25665018aa1fe0e6bc666dac8fc2697ff9ba",
            "difficulty" : "0x020000",
            "extraData" : "0x42",
            "gasLimit" : "0x989680",
            "gasUsed" : "0x00",
            "hash" : "0xf0cb6b195ef5c242d49a2cd8036a62a9d6a9a6728309b59c6c254d794f0c0051",
            "mixHash" : "0x56e81f171bcc55a6ff8345e692c0f86e5b48e01b996cadc001622fb5e363b421",
            "nonce" : "0x0102030405060708",
            "number" : "0x00",
            "parentHash" : "0x0000000000000000000000000000000000000000000000000000000000000000",
            "receiptTrie" : "0x56e81f171bcc55a6ff8345e692c0f86e5b48e01b996cadc001622fb5e363b421",
            "stateRoot" : "0x39057e10d75ab5cae85033afec4a621965edb0006fe51103b78dbe1c3c368a42",
            "timestamp" : "0x03b6",
            "transactionsTrie" : "0x56e81f171bcc55a6ff8345e692c0f86e5b48e01b996cadc001622fb5e363b421",
            "uncleHash" : "0x1dcc4de8dec75d7aab85b567b6ccd41ad312451b948a7413f0a142fd40d49347"
        },
        "genesisRLP" : "0xf901faf901f5a00000000000000000000000000000000000000000000000000000000000000000a01dcc4de8dec75d7aab85b567b6ccd41ad312451b948a7413f0a142fd40d49347942adc25665018aa1fe0e6bc666dac8fc2697ff9baa039057e10d75ab5cae85033afec4a621965edb0006fe51103b78dbe1c3c368a42a056e81f171bcc55a6ff8345e692c0f86e5b48e01b996cadc001622fb5e363b421a056e81f171bcc55a6ff8345e692c0f86e5b48e01b996cadc001622fb5e363b421b9010000000000000000000000000000000000000000000000000000000000000000000000000000000000000000000000000000000000000000000000000000000000000000000000000000000000000000000000000000000000000000000000000000000000000000000000000000000000000000000000000000000000000000000000000000000000000000000000000000000000000000000000000000000000000000000000000000000000000000000000000000000000000000000000000000000000000000000000000000000000000000000000000000000000000000000000000000000000000000000000000000000000000000000000000000000000830200008083989680808203b642a056e81f171bcc55a6ff8345e692c0f86e5b48e01b996cadc001622fb5e363b421880102030405060708c0c0",
        "lastblockhash" : "0x613da8a959858e2aadabd5b05603d5964632da5841643082aa34edb927edaadf",
        "network" : "Byzantium",
        "postState" : {
            "0x2adc25665018aa1fe0e6bc666dac8fc2697ff9ba" : {
                "balance" : "0x29a2241af62c520a",
                "code" : "",
                "nonce" : "0x00",
                "storage" : {
                }
            },
            "0xa94f5374fce5edbc8e2a8697c15331677e6ebf0b" : {
                "balance" : "0x05f58ef6",
                "code" : "",
                "nonce" : "0x01",
                "storage" : {
                }
            },
            "0xaaae7baea6a6c7c4c2dfeb977efac326af552aaa" : {
                "balance" : "0x0de0b6b3a7640000",
                "code" : "0x73095e7baea6a6c7c4c2dfeb977efac326af552d87ff",
                "nonce" : "0x00",
                "storage" : {
                    "0x01" : "0x01"
                }
            }
        },
        "pre" : {
            "0xa94f5374fce5edbc8e2a8697c15331677e6ebf0b" : {
                "balance" : "0x05f5e100",
                "code" : "",
                "nonce" : "0x00",
                "storage" : {
                }
            },
            "0xaaae7baea6a6c7c4c2dfeb977efac326af552aaa" : {
                "balance" : "0x0de0b6b3a7640000",
                "code" : "0x73095e7baea6a6c7c4c2dfeb977efac326af552d87ff",
                "nonce" : "0x00",
                "storage" : {
                    "0x01" : "0x01"
                }
            }
        }
    },
    "refund_TxToSuicideOOG_d0g0v0_EIP150" : {
        "_info" : {
            "comment" : "",
            "filledwith" : "cpp-1.3.0+commit.6e0ce939.Linux.g++",
            "lllcversion" : "Version: 0.4.18-develop.2017.9.25+commit.a72237f2.Linux.g++",
            "source" : "src/BlockchainTestsFiller/GeneralStateTests/stRefundTest/refund_TxToSuicideOOG_d0g0v0Filler.json",
            "sourceHash" : "2df29d9940ea482f147585906402ff98860f41c6d321d36f63ef4f0af5ca5758"
        },
        "blocks" : [
            {
                "blockHeader" : {
                    "bloom" : "0x00000000000000000000000000000000000000000000000000000000000000000000000000000000000000000000000000000000000000000000000000000000000000000000000000000000000000000000000000000000000000000000000000000000000000000000000000000000000000000000000000000000000000000000000000000000000000000000000000000000000000000000000000000000000000000000000000000000000000000000000000000000000000000000000000000000000000000000000000000000000000000000000000000000000000000000000000000000000000000000000000000000000000000000000000000000",
                    "coinbase" : "0x2adc25665018aa1fe0e6bc666dac8fc2697ff9ba",
                    "difficulty" : "0x020000",
                    "extraData" : "",
                    "gasLimit" : "0x989680",
                    "gasUsed" : "0x520a",
                    "hash" : "0x5f023d04a3070617aadb3257d31d076be08c4f3ad003f34431719a203b236335",
                    "mixHash" : "0x41ba27abd2b801575340f9d6d31baf742c8b8a11da9ba049b2185c5984f7001c",
                    "nonce" : "0xf7e6a357345681ac",
                    "number" : "0x01",
                    "parentHash" : "0xf0cb6b195ef5c242d49a2cd8036a62a9d6a9a6728309b59c6c254d794f0c0051",
                    "receiptTrie" : "0xc71a9383ba1469c8a2321240f0545ea619c63421a4e172d9e84cebed53d02ad8",
                    "stateRoot" : "0x594f337d177670cf497c9868e65681f934faa6b8a165cc779829dfd77cc60b07",
                    "timestamp" : "0x03e8",
                    "transactionsTrie" : "0x7210e5b1e98318cc777a06b9f3c8d639ff872ee48490861aeee6f9ea0875f0ad",
                    "uncleHash" : "0x1dcc4de8dec75d7aab85b567b6ccd41ad312451b948a7413f0a142fd40d49347"
                },
                "rlp" : "0xf9025ef901f7a0f0cb6b195ef5c242d49a2cd8036a62a9d6a9a6728309b59c6c254d794f0c0051a01dcc4de8dec75d7aab85b567b6ccd41ad312451b948a7413f0a142fd40d49347942adc25665018aa1fe0e6bc666dac8fc2697ff9baa0594f337d177670cf497c9868e65681f934faa6b8a165cc779829dfd77cc60b07a07210e5b1e98318cc777a06b9f3c8d639ff872ee48490861aeee6f9ea0875f0ada0c71a9383ba1469c8a2321240f0545ea619c63421a4e172d9e84cebed53d02ad8b901000000000000000000000000000000000000000000000000000000000000000000000000000000000000000000000000000000000000000000000000000000000000000000000000000000000000000000000000000000000000000000000000000000000000000000000000000000000000000000000000000000000000000000000000000000000000000000000000000000000000000000000000000000000000000000000000000000000000000000000000000000000000000000000000000000000000000000000000000000000000000000000000000000000000000000000000000000000000000000000000000000000000000000000000000000000083020000018398968082520a8203e880a041ba27abd2b801575340f9d6d31baf742c8b8a11da9ba049b2185c5984f7001c88f7e6a357345681acf861f85f800182520a94aaae7baea6a6c7c4c2dfeb977efac326af552aaa0a801ca09c647c65c10f9a3f2e16878a25405b22f2fef2ec96b18d68f68d34d551b93de4a023267f7401ef09f9615de4bbb3943cb2be892bc889efff06f16fddf59ac3ac91c0",
                "transactions" : [
                    {
                        "data" : "",
                        "gasLimit" : "0x520a",
                        "gasPrice" : "0x01",
                        "nonce" : "0x00",
                        "r" : "0x9c647c65c10f9a3f2e16878a25405b22f2fef2ec96b18d68f68d34d551b93de4",
                        "s" : "0x23267f7401ef09f9615de4bbb3943cb2be892bc889efff06f16fddf59ac3ac91",
                        "to" : "0xaaae7baea6a6c7c4c2dfeb977efac326af552aaa",
                        "v" : "0x1c",
                        "value" : "0x0a"
                    }
                ],
                "uncleHeaders" : [
                ]
            }
        ],
        "genesisBlockHeader" : {
            "bloom" : "0x00000000000000000000000000000000000000000000000000000000000000000000000000000000000000000000000000000000000000000000000000000000000000000000000000000000000000000000000000000000000000000000000000000000000000000000000000000000000000000000000000000000000000000000000000000000000000000000000000000000000000000000000000000000000000000000000000000000000000000000000000000000000000000000000000000000000000000000000000000000000000000000000000000000000000000000000000000000000000000000000000000000000000000000000000000000",
            "coinbase" : "0x2adc25665018aa1fe0e6bc666dac8fc2697ff9ba",
            "difficulty" : "0x020000",
            "extraData" : "0x42",
            "gasLimit" : "0x989680",
            "gasUsed" : "0x00",
            "hash" : "0xf0cb6b195ef5c242d49a2cd8036a62a9d6a9a6728309b59c6c254d794f0c0051",
            "mixHash" : "0x56e81f171bcc55a6ff8345e692c0f86e5b48e01b996cadc001622fb5e363b421",
            "nonce" : "0x0102030405060708",
            "number" : "0x00",
            "parentHash" : "0x0000000000000000000000000000000000000000000000000000000000000000",
            "receiptTrie" : "0x56e81f171bcc55a6ff8345e692c0f86e5b48e01b996cadc001622fb5e363b421",
            "stateRoot" : "0x39057e10d75ab5cae85033afec4a621965edb0006fe51103b78dbe1c3c368a42",
            "timestamp" : "0x03b6",
            "transactionsTrie" : "0x56e81f171bcc55a6ff8345e692c0f86e5b48e01b996cadc001622fb5e363b421",
            "uncleHash" : "0x1dcc4de8dec75d7aab85b567b6ccd41ad312451b948a7413f0a142fd40d49347"
        },
        "genesisRLP" : "0xf901faf901f5a00000000000000000000000000000000000000000000000000000000000000000a01dcc4de8dec75d7aab85b567b6ccd41ad312451b948a7413f0a142fd40d49347942adc25665018aa1fe0e6bc666dac8fc2697ff9baa039057e10d75ab5cae85033afec4a621965edb0006fe51103b78dbe1c3c368a42a056e81f171bcc55a6ff8345e692c0f86e5b48e01b996cadc001622fb5e363b421a056e81f171bcc55a6ff8345e692c0f86e5b48e01b996cadc001622fb5e363b421b9010000000000000000000000000000000000000000000000000000000000000000000000000000000000000000000000000000000000000000000000000000000000000000000000000000000000000000000000000000000000000000000000000000000000000000000000000000000000000000000000000000000000000000000000000000000000000000000000000000000000000000000000000000000000000000000000000000000000000000000000000000000000000000000000000000000000000000000000000000000000000000000000000000000000000000000000000000000000000000000000000000000000000000000000000000000000830200008083989680808203b642a056e81f171bcc55a6ff8345e692c0f86e5b48e01b996cadc001622fb5e363b421880102030405060708c0c0",
        "lastblockhash" : "0x5f023d04a3070617aadb3257d31d076be08c4f3ad003f34431719a203b236335",
        "network" : "EIP150",
        "postState" : {
            "0x2adc25665018aa1fe0e6bc666dac8fc2697ff9ba" : {
                "balance" : "0x4563918244f4520a",
                "code" : "",
                "nonce" : "0x00",
                "storage" : {
                }
            },
            "0xa94f5374fce5edbc8e2a8697c15331677e6ebf0b" : {
                "balance" : "0x05f58ef6",
                "code" : "",
                "nonce" : "0x01",
                "storage" : {
                }
            },
            "0xaaae7baea6a6c7c4c2dfeb977efac326af552aaa" : {
                "balance" : "0x0de0b6b3a7640000",
                "code" : "0x73095e7baea6a6c7c4c2dfeb977efac326af552d87ff",
                "nonce" : "0x00",
                "storage" : {
                    "0x01" : "0x01"
                }
            }
        },
        "pre" : {
            "0xa94f5374fce5edbc8e2a8697c15331677e6ebf0b" : {
                "balance" : "0x05f5e100",
                "code" : "",
                "nonce" : "0x00",
                "storage" : {
                }
            },
            "0xaaae7baea6a6c7c4c2dfeb977efac326af552aaa" : {
                "balance" : "0x0de0b6b3a7640000",
                "code" : "0x73095e7baea6a6c7c4c2dfeb977efac326af552d87ff",
                "nonce" : "0x00",
                "storage" : {
                    "0x01" : "0x01"
                }
            }
        }
    },
    "refund_TxToSuicideOOG_d0g0v0_EIP158" : {
        "_info" : {
            "comment" : "",
            "filledwith" : "cpp-1.3.0+commit.6e0ce939.Linux.g++",
            "lllcversion" : "Version: 0.4.18-develop.2017.9.25+commit.a72237f2.Linux.g++",
            "source" : "src/BlockchainTestsFiller/GeneralStateTests/stRefundTest/refund_TxToSuicideOOG_d0g0v0Filler.json",
            "sourceHash" : "2df29d9940ea482f147585906402ff98860f41c6d321d36f63ef4f0af5ca5758"
        },
        "blocks" : [
            {
                "blockHeader" : {
                    "bloom" : "0x00000000000000000000000000000000000000000000000000000000000000000000000000000000000000000000000000000000000000000000000000000000000000000000000000000000000000000000000000000000000000000000000000000000000000000000000000000000000000000000000000000000000000000000000000000000000000000000000000000000000000000000000000000000000000000000000000000000000000000000000000000000000000000000000000000000000000000000000000000000000000000000000000000000000000000000000000000000000000000000000000000000000000000000000000000000",
                    "coinbase" : "0x2adc25665018aa1fe0e6bc666dac8fc2697ff9ba",
                    "difficulty" : "0x020000",
                    "extraData" : "",
                    "gasLimit" : "0x989680",
                    "gasUsed" : "0x520a",
                    "hash" : "0x940cb5e852fb8e73b4791ec2a007f7f822755e7869576b842366edc8c8327c37",
                    "mixHash" : "0xfb35478eab182fd1ed863fdfcb4438ef850e42175265ffbf7c18e1b8b5061337",
                    "nonce" : "0xece7591d5e6e0bd8",
                    "number" : "0x01",
                    "parentHash" : "0xf0cb6b195ef5c242d49a2cd8036a62a9d6a9a6728309b59c6c254d794f0c0051",
                    "receiptTrie" : "0xc71a9383ba1469c8a2321240f0545ea619c63421a4e172d9e84cebed53d02ad8",
                    "stateRoot" : "0x594f337d177670cf497c9868e65681f934faa6b8a165cc779829dfd77cc60b07",
                    "timestamp" : "0x03e8",
                    "transactionsTrie" : "0x7210e5b1e98318cc777a06b9f3c8d639ff872ee48490861aeee6f9ea0875f0ad",
                    "uncleHash" : "0x1dcc4de8dec75d7aab85b567b6ccd41ad312451b948a7413f0a142fd40d49347"
                },
                "rlp" : "0xf9025ef901f7a0f0cb6b195ef5c242d49a2cd8036a62a9d6a9a6728309b59c6c254d794f0c0051a01dcc4de8dec75d7aab85b567b6ccd41ad312451b948a7413f0a142fd40d49347942adc25665018aa1fe0e6bc666dac8fc2697ff9baa0594f337d177670cf497c9868e65681f934faa6b8a165cc779829dfd77cc60b07a07210e5b1e98318cc777a06b9f3c8d639ff872ee48490861aeee6f9ea0875f0ada0c71a9383ba1469c8a2321240f0545ea619c63421a4e172d9e84cebed53d02ad8b901000000000000000000000000000000000000000000000000000000000000000000000000000000000000000000000000000000000000000000000000000000000000000000000000000000000000000000000000000000000000000000000000000000000000000000000000000000000000000000000000000000000000000000000000000000000000000000000000000000000000000000000000000000000000000000000000000000000000000000000000000000000000000000000000000000000000000000000000000000000000000000000000000000000000000000000000000000000000000000000000000000000000000000000000000000000083020000018398968082520a8203e880a0fb35478eab182fd1ed863fdfcb4438ef850e42175265ffbf7c18e1b8b506133788ece7591d5e6e0bd8f861f85f800182520a94aaae7baea6a6c7c4c2dfeb977efac326af552aaa0a801ca09c647c65c10f9a3f2e16878a25405b22f2fef2ec96b18d68f68d34d551b93de4a023267f7401ef09f9615de4bbb3943cb2be892bc889efff06f16fddf59ac3ac91c0",
                "transactions" : [
                    {
                        "data" : "",
                        "gasLimit" : "0x520a",
                        "gasPrice" : "0x01",
                        "nonce" : "0x00",
                        "r" : "0x9c647c65c10f9a3f2e16878a25405b22f2fef2ec96b18d68f68d34d551b93de4",
                        "s" : "0x23267f7401ef09f9615de4bbb3943cb2be892bc889efff06f16fddf59ac3ac91",
                        "to" : "0xaaae7baea6a6c7c4c2dfeb977efac326af552aaa",
                        "v" : "0x1c",
                        "value" : "0x0a"
                    }
                ],
                "uncleHeaders" : [
                ]
            }
        ],
        "genesisBlockHeader" : {
            "bloom" : "0x00000000000000000000000000000000000000000000000000000000000000000000000000000000000000000000000000000000000000000000000000000000000000000000000000000000000000000000000000000000000000000000000000000000000000000000000000000000000000000000000000000000000000000000000000000000000000000000000000000000000000000000000000000000000000000000000000000000000000000000000000000000000000000000000000000000000000000000000000000000000000000000000000000000000000000000000000000000000000000000000000000000000000000000000000000000",
            "coinbase" : "0x2adc25665018aa1fe0e6bc666dac8fc2697ff9ba",
            "difficulty" : "0x020000",
            "extraData" : "0x42",
            "gasLimit" : "0x989680",
            "gasUsed" : "0x00",
            "hash" : "0xf0cb6b195ef5c242d49a2cd8036a62a9d6a9a6728309b59c6c254d794f0c0051",
            "mixHash" : "0x56e81f171bcc55a6ff8345e692c0f86e5b48e01b996cadc001622fb5e363b421",
            "nonce" : "0x0102030405060708",
            "number" : "0x00",
            "parentHash" : "0x0000000000000000000000000000000000000000000000000000000000000000",
            "receiptTrie" : "0x56e81f171bcc55a6ff8345e692c0f86e5b48e01b996cadc001622fb5e363b421",
            "stateRoot" : "0x39057e10d75ab5cae85033afec4a621965edb0006fe51103b78dbe1c3c368a42",
            "timestamp" : "0x03b6",
            "transactionsTrie" : "0x56e81f171bcc55a6ff8345e692c0f86e5b48e01b996cadc001622fb5e363b421",
            "uncleHash" : "0x1dcc4de8dec75d7aab85b567b6ccd41ad312451b948a7413f0a142fd40d49347"
        },
        "genesisRLP" : "0xf901faf901f5a00000000000000000000000000000000000000000000000000000000000000000a01dcc4de8dec75d7aab85b567b6ccd41ad312451b948a7413f0a142fd40d49347942adc25665018aa1fe0e6bc666dac8fc2697ff9baa039057e10d75ab5cae85033afec4a621965edb0006fe51103b78dbe1c3c368a42a056e81f171bcc55a6ff8345e692c0f86e5b48e01b996cadc001622fb5e363b421a056e81f171bcc55a6ff8345e692c0f86e5b48e01b996cadc001622fb5e363b421b9010000000000000000000000000000000000000000000000000000000000000000000000000000000000000000000000000000000000000000000000000000000000000000000000000000000000000000000000000000000000000000000000000000000000000000000000000000000000000000000000000000000000000000000000000000000000000000000000000000000000000000000000000000000000000000000000000000000000000000000000000000000000000000000000000000000000000000000000000000000000000000000000000000000000000000000000000000000000000000000000000000000000000000000000000000000000830200008083989680808203b642a056e81f171bcc55a6ff8345e692c0f86e5b48e01b996cadc001622fb5e363b421880102030405060708c0c0",
        "lastblockhash" : "0x940cb5e852fb8e73b4791ec2a007f7f822755e7869576b842366edc8c8327c37",
        "network" : "EIP158",
        "postState" : {
            "0x2adc25665018aa1fe0e6bc666dac8fc2697ff9ba" : {
                "balance" : "0x4563918244f4520a",
                "code" : "",
                "nonce" : "0x00",
                "storage" : {
                }
            },
            "0xa94f5374fce5edbc8e2a8697c15331677e6ebf0b" : {
                "balance" : "0x05f58ef6",
                "code" : "",
                "nonce" : "0x01",
                "storage" : {
                }
            },
            "0xaaae7baea6a6c7c4c2dfeb977efac326af552aaa" : {
                "balance" : "0x0de0b6b3a7640000",
                "code" : "0x73095e7baea6a6c7c4c2dfeb977efac326af552d87ff",
                "nonce" : "0x00",
                "storage" : {
                    "0x01" : "0x01"
                }
            }
        },
        "pre" : {
            "0xa94f5374fce5edbc8e2a8697c15331677e6ebf0b" : {
                "balance" : "0x05f5e100",
                "code" : "",
                "nonce" : "0x00",
                "storage" : {
                }
            },
            "0xaaae7baea6a6c7c4c2dfeb977efac326af552aaa" : {
                "balance" : "0x0de0b6b3a7640000",
                "code" : "0x73095e7baea6a6c7c4c2dfeb977efac326af552d87ff",
                "nonce" : "0x00",
                "storage" : {
                    "0x01" : "0x01"
                }
            }
        }
    },
    "refund_TxToSuicideOOG_d0g0v0_Frontier" : {
        "_info" : {
            "comment" : "",
            "filledwith" : "cpp-1.3.0+commit.6e0ce939.Linux.g++",
            "lllcversion" : "Version: 0.4.18-develop.2017.9.25+commit.a72237f2.Linux.g++",
            "source" : "src/BlockchainTestsFiller/GeneralStateTests/stRefundTest/refund_TxToSuicideOOG_d0g0v0Filler.json",
            "sourceHash" : "2df29d9940ea482f147585906402ff98860f41c6d321d36f63ef4f0af5ca5758"
        },
        "blocks" : [
            {
                "blockHeader" : {
                    "bloom" : "0x00000000000000000000000000000000000000000000000000000000000000000000000000000000000000000000000000000000000000000000000000000000000000000000000000000000000000000000000000000000000000000000000000000000000000000000000000000000000000000000000000000000000000000000000000000000000000000000000000000000000000000000000000000000000000000000000000000000000000000000000000000000000000000000000000000000000000000000000000000000000000000000000000000000000000000000000000000000000000000000000000000000000000000000000000000000",
                    "coinbase" : "0x2adc25665018aa1fe0e6bc666dac8fc2697ff9ba",
                    "difficulty" : "0x020000",
                    "extraData" : "",
                    "gasLimit" : "0x989680",
                    "gasUsed" : "0x520a",
                    "hash" : "0x0669922b85a02576e646e659e42730b121e3d6b936507620b23fd5c11dc06d34",
                    "mixHash" : "0xd1ef938bb5d5d33399a4921ce79cb5f60435cea525761203800faa59b39fbc73",
                    "nonce" : "0x3c92a6baf8c1d12d",
                    "number" : "0x01",
                    "parentHash" : "0xf0cb6b195ef5c242d49a2cd8036a62a9d6a9a6728309b59c6c254d794f0c0051",
                    "receiptTrie" : "0xc71a9383ba1469c8a2321240f0545ea619c63421a4e172d9e84cebed53d02ad8",
                    "stateRoot" : "0x594f337d177670cf497c9868e65681f934faa6b8a165cc779829dfd77cc60b07",
                    "timestamp" : "0x03e8",
                    "transactionsTrie" : "0x7210e5b1e98318cc777a06b9f3c8d639ff872ee48490861aeee6f9ea0875f0ad",
                    "uncleHash" : "0x1dcc4de8dec75d7aab85b567b6ccd41ad312451b948a7413f0a142fd40d49347"
                },
                "rlp" : "0xf9025ef901f7a0f0cb6b195ef5c242d49a2cd8036a62a9d6a9a6728309b59c6c254d794f0c0051a01dcc4de8dec75d7aab85b567b6ccd41ad312451b948a7413f0a142fd40d49347942adc25665018aa1fe0e6bc666dac8fc2697ff9baa0594f337d177670cf497c9868e65681f934faa6b8a165cc779829dfd77cc60b07a07210e5b1e98318cc777a06b9f3c8d639ff872ee48490861aeee6f9ea0875f0ada0c71a9383ba1469c8a2321240f0545ea619c63421a4e172d9e84cebed53d02ad8b901000000000000000000000000000000000000000000000000000000000000000000000000000000000000000000000000000000000000000000000000000000000000000000000000000000000000000000000000000000000000000000000000000000000000000000000000000000000000000000000000000000000000000000000000000000000000000000000000000000000000000000000000000000000000000000000000000000000000000000000000000000000000000000000000000000000000000000000000000000000000000000000000000000000000000000000000000000000000000000000000000000000000000000000000000000000083020000018398968082520a8203e880a0d1ef938bb5d5d33399a4921ce79cb5f60435cea525761203800faa59b39fbc73883c92a6baf8c1d12df861f85f800182520a94aaae7baea6a6c7c4c2dfeb977efac326af552aaa0a801ca09c647c65c10f9a3f2e16878a25405b22f2fef2ec96b18d68f68d34d551b93de4a023267f7401ef09f9615de4bbb3943cb2be892bc889efff06f16fddf59ac3ac91c0",
                "transactions" : [
                    {
                        "data" : "",
                        "gasLimit" : "0x520a",
                        "gasPrice" : "0x01",
                        "nonce" : "0x00",
                        "r" : "0x9c647c65c10f9a3f2e16878a25405b22f2fef2ec96b18d68f68d34d551b93de4",
                        "s" : "0x23267f7401ef09f9615de4bbb3943cb2be892bc889efff06f16fddf59ac3ac91",
                        "to" : "0xaaae7baea6a6c7c4c2dfeb977efac326af552aaa",
                        "v" : "0x1c",
                        "value" : "0x0a"
                    }
                ],
                "uncleHeaders" : [
                ]
            }
        ],
        "genesisBlockHeader" : {
            "bloom" : "0x00000000000000000000000000000000000000000000000000000000000000000000000000000000000000000000000000000000000000000000000000000000000000000000000000000000000000000000000000000000000000000000000000000000000000000000000000000000000000000000000000000000000000000000000000000000000000000000000000000000000000000000000000000000000000000000000000000000000000000000000000000000000000000000000000000000000000000000000000000000000000000000000000000000000000000000000000000000000000000000000000000000000000000000000000000000",
            "coinbase" : "0x2adc25665018aa1fe0e6bc666dac8fc2697ff9ba",
            "difficulty" : "0x020000",
            "extraData" : "0x42",
            "gasLimit" : "0x989680",
            "gasUsed" : "0x00",
            "hash" : "0xf0cb6b195ef5c242d49a2cd8036a62a9d6a9a6728309b59c6c254d794f0c0051",
            "mixHash" : "0x56e81f171bcc55a6ff8345e692c0f86e5b48e01b996cadc001622fb5e363b421",
            "nonce" : "0x0102030405060708",
            "number" : "0x00",
            "parentHash" : "0x0000000000000000000000000000000000000000000000000000000000000000",
            "receiptTrie" : "0x56e81f171bcc55a6ff8345e692c0f86e5b48e01b996cadc001622fb5e363b421",
            "stateRoot" : "0x39057e10d75ab5cae85033afec4a621965edb0006fe51103b78dbe1c3c368a42",
            "timestamp" : "0x03b6",
            "transactionsTrie" : "0x56e81f171bcc55a6ff8345e692c0f86e5b48e01b996cadc001622fb5e363b421",
            "uncleHash" : "0x1dcc4de8dec75d7aab85b567b6ccd41ad312451b948a7413f0a142fd40d49347"
        },
        "genesisRLP" : "0xf901faf901f5a00000000000000000000000000000000000000000000000000000000000000000a01dcc4de8dec75d7aab85b567b6ccd41ad312451b948a7413f0a142fd40d49347942adc25665018aa1fe0e6bc666dac8fc2697ff9baa039057e10d75ab5cae85033afec4a621965edb0006fe51103b78dbe1c3c368a42a056e81f171bcc55a6ff8345e692c0f86e5b48e01b996cadc001622fb5e363b421a056e81f171bcc55a6ff8345e692c0f86e5b48e01b996cadc001622fb5e363b421b9010000000000000000000000000000000000000000000000000000000000000000000000000000000000000000000000000000000000000000000000000000000000000000000000000000000000000000000000000000000000000000000000000000000000000000000000000000000000000000000000000000000000000000000000000000000000000000000000000000000000000000000000000000000000000000000000000000000000000000000000000000000000000000000000000000000000000000000000000000000000000000000000000000000000000000000000000000000000000000000000000000000000000000000000000000000000830200008083989680808203b642a056e81f171bcc55a6ff8345e692c0f86e5b48e01b996cadc001622fb5e363b421880102030405060708c0c0",
        "lastblockhash" : "0x0669922b85a02576e646e659e42730b121e3d6b936507620b23fd5c11dc06d34",
        "network" : "Frontier",
        "postState" : {
            "0x2adc25665018aa1fe0e6bc666dac8fc2697ff9ba" : {
                "balance" : "0x4563918244f4520a",
                "code" : "",
                "nonce" : "0x00",
                "storage" : {
                }
            },
            "0xa94f5374fce5edbc8e2a8697c15331677e6ebf0b" : {
                "balance" : "0x05f58ef6",
                "code" : "",
                "nonce" : "0x01",
                "storage" : {
                }
            },
            "0xaaae7baea6a6c7c4c2dfeb977efac326af552aaa" : {
                "balance" : "0x0de0b6b3a7640000",
                "code" : "0x73095e7baea6a6c7c4c2dfeb977efac326af552d87ff",
                "nonce" : "0x00",
                "storage" : {
                    "0x01" : "0x01"
                }
            }
        },
        "pre" : {
            "0xa94f5374fce5edbc8e2a8697c15331677e6ebf0b" : {
                "balance" : "0x05f5e100",
                "code" : "",
                "nonce" : "0x00",
                "storage" : {
                }
            },
            "0xaaae7baea6a6c7c4c2dfeb977efac326af552aaa" : {
                "balance" : "0x0de0b6b3a7640000",
                "code" : "0x73095e7baea6a6c7c4c2dfeb977efac326af552d87ff",
                "nonce" : "0x00",
                "storage" : {
                    "0x01" : "0x01"
                }
            }
        }
    },
    "refund_TxToSuicideOOG_d0g0v0_Homestead" : {
        "_info" : {
            "comment" : "",
            "filledwith" : "cpp-1.3.0+commit.6e0ce939.Linux.g++",
            "lllcversion" : "Version: 0.4.18-develop.2017.9.25+commit.a72237f2.Linux.g++",
            "source" : "src/BlockchainTestsFiller/GeneralStateTests/stRefundTest/refund_TxToSuicideOOG_d0g0v0Filler.json",
            "sourceHash" : "2df29d9940ea482f147585906402ff98860f41c6d321d36f63ef4f0af5ca5758"
        },
        "blocks" : [
            {
                "blockHeader" : {
                    "bloom" : "0x00000000000000000000000000000000000000000000000000000000000000000000000000000000000000000000000000000000000000000000000000000000000000000000000000000000000000000000000000000000000000000000000000000000000000000000000000000000000000000000000000000000000000000000000000000000000000000000000000000000000000000000000000000000000000000000000000000000000000000000000000000000000000000000000000000000000000000000000000000000000000000000000000000000000000000000000000000000000000000000000000000000000000000000000000000000",
                    "coinbase" : "0x2adc25665018aa1fe0e6bc666dac8fc2697ff9ba",
                    "difficulty" : "0x020000",
                    "extraData" : "",
                    "gasLimit" : "0x989680",
                    "gasUsed" : "0x520a",
                    "hash" : "0x4c1d11de7972a60086df9a6bb55e94ae5131b19ec73e044ae752d53cefc8335d",
                    "mixHash" : "0xdc9d7182a829899a859c464b5ab0e903b60f8ab66162ffa8433315cd3495a225",
                    "nonce" : "0x5d506f9e775e90d6",
                    "number" : "0x01",
                    "parentHash" : "0xf0cb6b195ef5c242d49a2cd8036a62a9d6a9a6728309b59c6c254d794f0c0051",
                    "receiptTrie" : "0xc71a9383ba1469c8a2321240f0545ea619c63421a4e172d9e84cebed53d02ad8",
                    "stateRoot" : "0x594f337d177670cf497c9868e65681f934faa6b8a165cc779829dfd77cc60b07",
                    "timestamp" : "0x03e8",
                    "transactionsTrie" : "0x7210e5b1e98318cc777a06b9f3c8d639ff872ee48490861aeee6f9ea0875f0ad",
                    "uncleHash" : "0x1dcc4de8dec75d7aab85b567b6ccd41ad312451b948a7413f0a142fd40d49347"
                },
                "rlp" : "0xf9025ef901f7a0f0cb6b195ef5c242d49a2cd8036a62a9d6a9a6728309b59c6c254d794f0c0051a01dcc4de8dec75d7aab85b567b6ccd41ad312451b948a7413f0a142fd40d49347942adc25665018aa1fe0e6bc666dac8fc2697ff9baa0594f337d177670cf497c9868e65681f934faa6b8a165cc779829dfd77cc60b07a07210e5b1e98318cc777a06b9f3c8d639ff872ee48490861aeee6f9ea0875f0ada0c71a9383ba1469c8a2321240f0545ea619c63421a4e172d9e84cebed53d02ad8b901000000000000000000000000000000000000000000000000000000000000000000000000000000000000000000000000000000000000000000000000000000000000000000000000000000000000000000000000000000000000000000000000000000000000000000000000000000000000000000000000000000000000000000000000000000000000000000000000000000000000000000000000000000000000000000000000000000000000000000000000000000000000000000000000000000000000000000000000000000000000000000000000000000000000000000000000000000000000000000000000000000000000000000000000000000000083020000018398968082520a8203e880a0dc9d7182a829899a859c464b5ab0e903b60f8ab66162ffa8433315cd3495a225885d506f9e775e90d6f861f85f800182520a94aaae7baea6a6c7c4c2dfeb977efac326af552aaa0a801ca09c647c65c10f9a3f2e16878a25405b22f2fef2ec96b18d68f68d34d551b93de4a023267f7401ef09f9615de4bbb3943cb2be892bc889efff06f16fddf59ac3ac91c0",
                "transactions" : [
                    {
                        "data" : "",
                        "gasLimit" : "0x520a",
                        "gasPrice" : "0x01",
                        "nonce" : "0x00",
                        "r" : "0x9c647c65c10f9a3f2e16878a25405b22f2fef2ec96b18d68f68d34d551b93de4",
                        "s" : "0x23267f7401ef09f9615de4bbb3943cb2be892bc889efff06f16fddf59ac3ac91",
                        "to" : "0xaaae7baea6a6c7c4c2dfeb977efac326af552aaa",
                        "v" : "0x1c",
                        "value" : "0x0a"
                    }
                ],
                "uncleHeaders" : [
                ]
            }
        ],
        "genesisBlockHeader" : {
            "bloom" : "0x00000000000000000000000000000000000000000000000000000000000000000000000000000000000000000000000000000000000000000000000000000000000000000000000000000000000000000000000000000000000000000000000000000000000000000000000000000000000000000000000000000000000000000000000000000000000000000000000000000000000000000000000000000000000000000000000000000000000000000000000000000000000000000000000000000000000000000000000000000000000000000000000000000000000000000000000000000000000000000000000000000000000000000000000000000000",
            "coinbase" : "0x2adc25665018aa1fe0e6bc666dac8fc2697ff9ba",
            "difficulty" : "0x020000",
            "extraData" : "0x42",
            "gasLimit" : "0x989680",
            "gasUsed" : "0x00",
            "hash" : "0xf0cb6b195ef5c242d49a2cd8036a62a9d6a9a6728309b59c6c254d794f0c0051",
            "mixHash" : "0x56e81f171bcc55a6ff8345e692c0f86e5b48e01b996cadc001622fb5e363b421",
            "nonce" : "0x0102030405060708",
            "number" : "0x00",
            "parentHash" : "0x0000000000000000000000000000000000000000000000000000000000000000",
            "receiptTrie" : "0x56e81f171bcc55a6ff8345e692c0f86e5b48e01b996cadc001622fb5e363b421",
            "stateRoot" : "0x39057e10d75ab5cae85033afec4a621965edb0006fe51103b78dbe1c3c368a42",
            "timestamp" : "0x03b6",
            "transactionsTrie" : "0x56e81f171bcc55a6ff8345e692c0f86e5b48e01b996cadc001622fb5e363b421",
            "uncleHash" : "0x1dcc4de8dec75d7aab85b567b6ccd41ad312451b948a7413f0a142fd40d49347"
        },
        "genesisRLP" : "0xf901faf901f5a00000000000000000000000000000000000000000000000000000000000000000a01dcc4de8dec75d7aab85b567b6ccd41ad312451b948a7413f0a142fd40d49347942adc25665018aa1fe0e6bc666dac8fc2697ff9baa039057e10d75ab5cae85033afec4a621965edb0006fe51103b78dbe1c3c368a42a056e81f171bcc55a6ff8345e692c0f86e5b48e01b996cadc001622fb5e363b421a056e81f171bcc55a6ff8345e692c0f86e5b48e01b996cadc001622fb5e363b421b9010000000000000000000000000000000000000000000000000000000000000000000000000000000000000000000000000000000000000000000000000000000000000000000000000000000000000000000000000000000000000000000000000000000000000000000000000000000000000000000000000000000000000000000000000000000000000000000000000000000000000000000000000000000000000000000000000000000000000000000000000000000000000000000000000000000000000000000000000000000000000000000000000000000000000000000000000000000000000000000000000000000000000000000000000000000000830200008083989680808203b642a056e81f171bcc55a6ff8345e692c0f86e5b48e01b996cadc001622fb5e363b421880102030405060708c0c0",
        "lastblockhash" : "0x4c1d11de7972a60086df9a6bb55e94ae5131b19ec73e044ae752d53cefc8335d",
        "network" : "Homestead",
        "postState" : {
            "0x2adc25665018aa1fe0e6bc666dac8fc2697ff9ba" : {
                "balance" : "0x4563918244f4520a",
                "code" : "",
                "nonce" : "0x00",
                "storage" : {
                }
            },
            "0xa94f5374fce5edbc8e2a8697c15331677e6ebf0b" : {
                "balance" : "0x05f58ef6",
                "code" : "",
                "nonce" : "0x01",
                "storage" : {
                }
            },
            "0xaaae7baea6a6c7c4c2dfeb977efac326af552aaa" : {
                "balance" : "0x0de0b6b3a7640000",
                "code" : "0x73095e7baea6a6c7c4c2dfeb977efac326af552d87ff",
                "nonce" : "0x00",
                "storage" : {
                    "0x01" : "0x01"
                }
            }
        },
        "pre" : {
            "0xa94f5374fce5edbc8e2a8697c15331677e6ebf0b" : {
                "balance" : "0x05f5e100",
                "code" : "",
                "nonce" : "0x00",
                "storage" : {
                }
            },
            "0xaaae7baea6a6c7c4c2dfeb977efac326af552aaa" : {
                "balance" : "0x0de0b6b3a7640000",
                "code" : "0x73095e7baea6a6c7c4c2dfeb977efac326af552d87ff",
                "nonce" : "0x00",
                "storage" : {
                    "0x01" : "0x01"
                }
            }
        }
    }
}