{
    "refund_singleSuicide_d0g0v0_Byzantium" : {
        "_info" : {
            "comment" : "",
            "filledwith" : "cpp-1.3.0+commit.6e0ce939.Linux.g++",
            "lllcversion" : "Version: 0.4.18-develop.2017.9.25+commit.a72237f2.Linux.g++",
            "source" : "src/BlockchainTestsFiller/GeneralStateTests/stRefundTest/refund_singleSuicide_d0g0v0Filler.json",
            "sourceHash" : "7e8351b771ee1154f3ddaec3ab895aca00e6bd2f49fff45a1fffb9d320029356"
        },
        "blocks" : [
            {
                "blockHeader" : {
                    "bloom" : "0x00000000000000000000000000000000000000000000000000000000000000000000000000000000000000000000000000000000000000000000000000000000000000000000000000000000000000000000000000000000000000000000000000000000000000000000000000000000000000000000000000000000000000000000000000000000000000000000000000000000000000000000000000000000000000000000000000000000000000000000000000000000000000000000000000000000000000000000000000000000000000000000000000000000000000000000000000000000000000000000000000000000000000000000000000000000",
                    "coinbase" : "0x2adc25665018aa1fe0e6bc666dac8fc2697ff9ba",
                    "difficulty" : "0x020000",
                    "extraData" : "",
                    "gasLimit" : "0x0f4240",
                    "gasUsed" : "0x35cb",
                    "hash" : "0x2066882bc384cbf9a7cd46fbd9b70e54f7057ee6f3cb573e4d8cc5e1ec0f5d76",
                    "mixHash" : "0x29cb7fccff844baadf489013bbbe96aa59d2a8b6e42dda28f2e20b2195a282d5",
                    "nonce" : "0x1eccd59a3abbb4bd",
                    "number" : "0x01",
                    "parentHash" : "0x76de4e53b4b1fa28d1ad390fca28de6197f31d81d8464b2d9dfc9a06e36a2df6",
                    "receiptTrie" : "0x9d09fca691e64e3756bc90fe3c5cfa4a19b52d6265c47e5aaf4e642534897e39",
                    "stateRoot" : "0xb007a225e67f6009761faeba316df64b62adb1e3220c529a87856114aa066730",
                    "timestamp" : "0x03e8",
                    "transactionsTrie" : "0x4f1914c634a076b49e3ed15bd3dea65f200e5325bad014d9ac1fd1d355777c10",
                    "uncleHash" : "0x1dcc4de8dec75d7aab85b567b6ccd41ad312451b948a7413f0a142fd40d49347"
                },
                "rlp" : "0xf90263f901f7a076de4e53b4b1fa28d1ad390fca28de6197f31d81d8464b2d9dfc9a06e36a2df6a01dcc4de8dec75d7aab85b567b6ccd41ad312451b948a7413f0a142fd40d49347942adc25665018aa1fe0e6bc666dac8fc2697ff9baa0b007a225e67f6009761faeba316df64b62adb1e3220c529a87856114aa066730a04f1914c634a076b49e3ed15bd3dea65f200e5325bad014d9ac1fd1d355777c10a09d09fca691e64e3756bc90fe3c5cfa4a19b52d6265c47e5aaf4e642534897e39b90100000000000000000000000000000000000000000000000000000000000000000000000000000000000000000000000000000000000000000000000000000000000000000000000000000000000000000000000000000000000000000000000000000000000000000000000000000000000000000000000000000000000000000000000000000000000000000000000000000000000000000000000000000000000000000000000000000000000000000000000000000000000000000000000000000000000000000000000000000000000000000000000000000000000000000000000000000000000000000000000000000000000000000000000000000000008302000001830f42408235cb8203e880a029cb7fccff844baadf489013bbbe96aa59d2a8b6e42dda28f2e20b2195a282d5881eccd59a3abbb4bdf866f8648001830493e09410000000000000000000000000000000000000018084c04062261ba06c7a67f0afeb37026a7b6d1e029cb15887fed2b363cd5ee95c56a6cb1ae1f525a02fea0a6c8ddf75b659dedafa27f2e5854537b18b77e219352ec0079b678ab40fc0",
                "transactions" : [
                    {
                        "data" : "0xc0406226",
                        "gasLimit" : "0x0493e0",
                        "gasPrice" : "0x01",
                        "nonce" : "0x00",
                        "r" : "0x6c7a67f0afeb37026a7b6d1e029cb15887fed2b363cd5ee95c56a6cb1ae1f525",
                        "s" : "0x2fea0a6c8ddf75b659dedafa27f2e5854537b18b77e219352ec0079b678ab40f",
                        "to" : "0x1000000000000000000000000000000000000001",
                        "v" : "0x1b",
                        "value" : "0x00"
                    }
                ],
                "uncleHeaders" : [
                ]
            }
        ],
        "genesisBlockHeader" : {
            "bloom" : "0x00000000000000000000000000000000000000000000000000000000000000000000000000000000000000000000000000000000000000000000000000000000000000000000000000000000000000000000000000000000000000000000000000000000000000000000000000000000000000000000000000000000000000000000000000000000000000000000000000000000000000000000000000000000000000000000000000000000000000000000000000000000000000000000000000000000000000000000000000000000000000000000000000000000000000000000000000000000000000000000000000000000000000000000000000000000",
            "coinbase" : "0x2adc25665018aa1fe0e6bc666dac8fc2697ff9ba",
            "difficulty" : "0x020000",
            "extraData" : "0x42",
            "gasLimit" : "0x0f4240",
            "gasUsed" : "0x00",
            "hash" : "0x76de4e53b4b1fa28d1ad390fca28de6197f31d81d8464b2d9dfc9a06e36a2df6",
            "mixHash" : "0x56e81f171bcc55a6ff8345e692c0f86e5b48e01b996cadc001622fb5e363b421",
            "nonce" : "0x0102030405060708",
            "number" : "0x00",
            "parentHash" : "0x0000000000000000000000000000000000000000000000000000000000000000",
            "receiptTrie" : "0x56e81f171bcc55a6ff8345e692c0f86e5b48e01b996cadc001622fb5e363b421",
            "stateRoot" : "0xa38e179095b269154c1776ef395730c69e81ff6e8df7fb6b70abeaa7ccc0fec8",
            "timestamp" : "0x03b6",
            "transactionsTrie" : "0x56e81f171bcc55a6ff8345e692c0f86e5b48e01b996cadc001622fb5e363b421",
            "uncleHash" : "0x1dcc4de8dec75d7aab85b567b6ccd41ad312451b948a7413f0a142fd40d49347"
        },
        "genesisRLP" : "0xf901faf901f5a00000000000000000000000000000000000000000000000000000000000000000a01dcc4de8dec75d7aab85b567b6ccd41ad312451b948a7413f0a142fd40d49347942adc25665018aa1fe0e6bc666dac8fc2697ff9baa0a38e179095b269154c1776ef395730c69e81ff6e8df7fb6b70abeaa7ccc0fec8a056e81f171bcc55a6ff8345e692c0f86e5b48e01b996cadc001622fb5e363b421a056e81f171bcc55a6ff8345e692c0f86e5b48e01b996cadc001622fb5e363b421b90100000000000000000000000000000000000000000000000000000000000000000000000000000000000000000000000000000000000000000000000000000000000000000000000000000000000000000000000000000000000000000000000000000000000000000000000000000000000000000000000000000000000000000000000000000000000000000000000000000000000000000000000000000000000000000000000000000000000000000000000000000000000000000000000000000000000000000000000000000000000000000000000000000000000000000000000000000000000000000000000000000000000000000000000000000000008302000080830f4240808203b642a056e81f171bcc55a6ff8345e692c0f86e5b48e01b996cadc001622fb5e363b421880102030405060708c0c0",
        "lastblockhash" : "0x2066882bc384cbf9a7cd46fbd9b70e54f7057ee6f3cb573e4d8cc5e1ec0f5d76",
        "network" : "Byzantium",
        "postState" : {
            "0x2adc25665018aa1fe0e6bc666dac8fc2697ff9ba" : {
                "balance" : "0x29a2241af62c35cb",
                "code" : "",
                "nonce" : "0x00",
                "storage" : {
                }
            },
            "0xa94f5374fce5edbc8e2a8697c15331677e6ebf0b" : {
                "balance" : "0x045e15",
                "code" : "",
                "nonce" : "0x01",
                "storage" : {
                }
            }
        },
        "pre" : {
            "0x1000000000000000000000000000000000000001" : {
                "balance" : "0x0de0b6b3a7640000",
                "code" : "0x606060405260e060020a600035046309e587a58114602e5780632e4699ed146049578063c040622614609b575b005b602c3373ffffffffffffffffffffffffffffffffffffffff16ff5b602c5b60003090508073ffffffffffffffffffffffffffffffffffffffff166309e587a56040518160e060020a0281526004018090506000604051808303816000876161da5a03f11560025750505050565b60a5600060b9604c565b604080519115158252519081900360200190f35b5060019056",
                "nonce" : "0x00",
                "storage" : {
                }
            },
            "0xa94f5374fce5edbc8e2a8697c15331677e6ebf0b" : {
                "balance" : "0x0493e0",
                "code" : "",
                "nonce" : "0x00",
                "storage" : {
                }
            }
        }
    },
    "refund_singleSuicide_d0g0v0_EIP150" : {
        "_info" : {
            "comment" : "",
            "filledwith" : "cpp-1.3.0+commit.6e0ce939.Linux.g++",
            "lllcversion" : "Version: 0.4.18-develop.2017.9.25+commit.a72237f2.Linux.g++",
            "source" : "src/BlockchainTestsFiller/GeneralStateTests/stRefundTest/refund_singleSuicide_d0g0v0Filler.json",
            "sourceHash" : "7e8351b771ee1154f3ddaec3ab895aca00e6bd2f49fff45a1fffb9d320029356"
        },
        "blocks" : [
            {
                "blockHeader" : {
                    "bloom" : "0x00000000000000000000000000000000000000000000000000000000000000000000000000000000000000000000000000000000000000000000000000000000000000000000000000000000000000000000000000000000000000000000000000000000000000000000000000000000000000000000000000000000000000000000000000000000000000000000000000000000000000000000000000000000000000000000000000000000000000000000000000000000000000000000000000000000000000000000000000000000000000000000000000000000000000000000000000000000000000000000000000000000000000000000000000000000",
                    "coinbase" : "0x2adc25665018aa1fe0e6bc666dac8fc2697ff9ba",
                    "difficulty" : "0x020000",
                    "extraData" : "",
                    "gasLimit" : "0x0f4240",
                    "gasUsed" : "0x358f",
                    "hash" : "0xed44e6bec5c74b96f182c1ebdfd14d1bd605316bdf18df45e6560bca8d2619eb",
                    "mixHash" : "0x76e76dc5876edabffa8be994484cb4b8ae5c0841ec40249419e76e5a8ea3f28a",
                    "nonce" : "0x84a118b204186813",
                    "number" : "0x01",
                    "parentHash" : "0x76de4e53b4b1fa28d1ad390fca28de6197f31d81d8464b2d9dfc9a06e36a2df6",
                    "receiptTrie" : "0x1821d869b7e7de8f7cb25fd3abc8b949bd7f2dffeef110c06a15b80acdb6eaec",
                    "stateRoot" : "0xf1a7844373e7b09b53f335f8b03a9a7cedeaf97e36c227d3b32b8439800d2881",
                    "timestamp" : "0x03e8",
                    "transactionsTrie" : "0x4f1914c634a076b49e3ed15bd3dea65f200e5325bad014d9ac1fd1d355777c10",
                    "uncleHash" : "0x1dcc4de8dec75d7aab85b567b6ccd41ad312451b948a7413f0a142fd40d49347"
                },
                "rlp" : "0xf90263f901f7a076de4e53b4b1fa28d1ad390fca28de6197f31d81d8464b2d9dfc9a06e36a2df6a01dcc4de8dec75d7aab85b567b6ccd41ad312451b948a7413f0a142fd40d49347942adc25665018aa1fe0e6bc666dac8fc2697ff9baa0f1a7844373e7b09b53f335f8b03a9a7cedeaf97e36c227d3b32b8439800d2881a04f1914c634a076b49e3ed15bd3dea65f200e5325bad014d9ac1fd1d355777c10a01821d869b7e7de8f7cb25fd3abc8b949bd7f2dffeef110c06a15b80acdb6eaecb90100000000000000000000000000000000000000000000000000000000000000000000000000000000000000000000000000000000000000000000000000000000000000000000000000000000000000000000000000000000000000000000000000000000000000000000000000000000000000000000000000000000000000000000000000000000000000000000000000000000000000000000000000000000000000000000000000000000000000000000000000000000000000000000000000000000000000000000000000000000000000000000000000000000000000000000000000000000000000000000000000000000000000000000000000000000008302000001830f424082358f8203e880a076e76dc5876edabffa8be994484cb4b8ae5c0841ec40249419e76e5a8ea3f28a8884a118b204186813f866f8648001830493e09410000000000000000000000000000000000000018084c04062261ba06c7a67f0afeb37026a7b6d1e029cb15887fed2b363cd5ee95c56a6cb1ae1f525a02fea0a6c8ddf75b659dedafa27f2e5854537b18b77e219352ec0079b678ab40fc0",
                "transactions" : [
                    {
                        "data" : "0xc0406226",
                        "gasLimit" : "0x0493e0",
                        "gasPrice" : "0x01",
                        "nonce" : "0x00",
                        "r" : "0x6c7a67f0afeb37026a7b6d1e029cb15887fed2b363cd5ee95c56a6cb1ae1f525",
                        "s" : "0x2fea0a6c8ddf75b659dedafa27f2e5854537b18b77e219352ec0079b678ab40f",
                        "to" : "0x1000000000000000000000000000000000000001",
                        "v" : "0x1b",
                        "value" : "0x00"
                    }
                ],
                "uncleHeaders" : [
                ]
            }
        ],
        "genesisBlockHeader" : {
            "bloom" : "0x00000000000000000000000000000000000000000000000000000000000000000000000000000000000000000000000000000000000000000000000000000000000000000000000000000000000000000000000000000000000000000000000000000000000000000000000000000000000000000000000000000000000000000000000000000000000000000000000000000000000000000000000000000000000000000000000000000000000000000000000000000000000000000000000000000000000000000000000000000000000000000000000000000000000000000000000000000000000000000000000000000000000000000000000000000000",
            "coinbase" : "0x2adc25665018aa1fe0e6bc666dac8fc2697ff9ba",
            "difficulty" : "0x020000",
            "extraData" : "0x42",
            "gasLimit" : "0x0f4240",
            "gasUsed" : "0x00",
            "hash" : "0x76de4e53b4b1fa28d1ad390fca28de6197f31d81d8464b2d9dfc9a06e36a2df6",
            "mixHash" : "0x56e81f171bcc55a6ff8345e692c0f86e5b48e01b996cadc001622fb5e363b421",
            "nonce" : "0x0102030405060708",
            "number" : "0x00",
            "parentHash" : "0x0000000000000000000000000000000000000000000000000000000000000000",
            "receiptTrie" : "0x56e81f171bcc55a6ff8345e692c0f86e5b48e01b996cadc001622fb5e363b421",
            "stateRoot" : "0xa38e179095b269154c1776ef395730c69e81ff6e8df7fb6b70abeaa7ccc0fec8",
            "timestamp" : "0x03b6",
            "transactionsTrie" : "0x56e81f171bcc55a6ff8345e692c0f86e5b48e01b996cadc001622fb5e363b421",
            "uncleHash" : "0x1dcc4de8dec75d7aab85b567b6ccd41ad312451b948a7413f0a142fd40d49347"
        },
        "genesisRLP" : "0xf901faf901f5a00000000000000000000000000000000000000000000000000000000000000000a01dcc4de8dec75d7aab85b567b6ccd41ad312451b948a7413f0a142fd40d49347942adc25665018aa1fe0e6bc666dac8fc2697ff9baa0a38e179095b269154c1776ef395730c69e81ff6e8df7fb6b70abeaa7ccc0fec8a056e81f171bcc55a6ff8345e692c0f86e5b48e01b996cadc001622fb5e363b421a056e81f171bcc55a6ff8345e692c0f86e5b48e01b996cadc001622fb5e363b421b90100000000000000000000000000000000000000000000000000000000000000000000000000000000000000000000000000000000000000000000000000000000000000000000000000000000000000000000000000000000000000000000000000000000000000000000000000000000000000000000000000000000000000000000000000000000000000000000000000000000000000000000000000000000000000000000000000000000000000000000000000000000000000000000000000000000000000000000000000000000000000000000000000000000000000000000000000000000000000000000000000000000000000000000000000000000008302000080830f4240808203b642a056e81f171bcc55a6ff8345e692c0f86e5b48e01b996cadc001622fb5e363b421880102030405060708c0c0",
        "lastblockhash" : "0xed44e6bec5c74b96f182c1ebdfd14d1bd605316bdf18df45e6560bca8d2619eb",
        "network" : "EIP150",
        "postState" : {
            "0x2adc25665018aa1fe0e6bc666dac8fc2697ff9ba" : {
                "balance" : "0x4563918244f4358f",
                "code" : "",
                "nonce" : "0x00",
                "storage" : {
                }
            },
            "0xa94f5374fce5edbc8e2a8697c15331677e6ebf0b" : {
                "balance" : "0x045e51",
                "code" : "",
                "nonce" : "0x01",
                "storage" : {
                }
            }
        },
        "pre" : {
            "0x1000000000000000000000000000000000000001" : {
                "balance" : "0x0de0b6b3a7640000",
                "code" : "0x606060405260e060020a600035046309e587a58114602e5780632e4699ed146049578063c040622614609b575b005b602c3373ffffffffffffffffffffffffffffffffffffffff16ff5b602c5b60003090508073ffffffffffffffffffffffffffffffffffffffff166309e587a56040518160e060020a0281526004018090506000604051808303816000876161da5a03f11560025750505050565b60a5600060b9604c565b604080519115158252519081900360200190f35b5060019056",
                "nonce" : "0x00",
                "storage" : {
                }
            },
            "0xa94f5374fce5edbc8e2a8697c15331677e6ebf0b" : {
                "balance" : "0x0493e0",
                "code" : "",
                "nonce" : "0x00",
                "storage" : {
                }
            }
        }
    },
    "refund_singleSuicide_d0g0v0_EIP158" : {
        "_info" : {
            "comment" : "",
            "filledwith" : "cpp-1.3.0+commit.6e0ce939.Linux.g++",
            "lllcversion" : "Version: 0.4.18-develop.2017.9.25+commit.a72237f2.Linux.g++",
            "source" : "src/BlockchainTestsFiller/GeneralStateTests/stRefundTest/refund_singleSuicide_d0g0v0Filler.json",
            "sourceHash" : "7e8351b771ee1154f3ddaec3ab895aca00e6bd2f49fff45a1fffb9d320029356"
        },
        "blocks" : [
            {
                "blockHeader" : {
                    "bloom" : "0x00000000000000000000000000000000000000000000000000000000000000000000000000000000000000000000000000000000000000000000000000000000000000000000000000000000000000000000000000000000000000000000000000000000000000000000000000000000000000000000000000000000000000000000000000000000000000000000000000000000000000000000000000000000000000000000000000000000000000000000000000000000000000000000000000000000000000000000000000000000000000000000000000000000000000000000000000000000000000000000000000000000000000000000000000000000",
                    "coinbase" : "0x2adc25665018aa1fe0e6bc666dac8fc2697ff9ba",
                    "difficulty" : "0x020000",
                    "extraData" : "",
                    "gasLimit" : "0x0f4240",
                    "gasUsed" : "0x35cb",
                    "hash" : "0xd216027f666482652e6b2bf559fe895e7977711e97964c230715f7a15322b6f5",
                    "mixHash" : "0x5d1c493a34a41d0568fcce031ce51b2e7af7f6420f089e2976f97e6a76d8fc26",
                    "nonce" : "0xcd52563652d806a4",
                    "number" : "0x01",
                    "parentHash" : "0x76de4e53b4b1fa28d1ad390fca28de6197f31d81d8464b2d9dfc9a06e36a2df6",
                    "receiptTrie" : "0xb6c21749c74666782f64e7b6e00d569d47da210542d3923dc12c2b151b165794",
                    "stateRoot" : "0xf0de83259b3b8cb2a2ff8ed13ad54d2a7fda20fa09cba60dc95e4b2784df0bb8",
                    "timestamp" : "0x03e8",
                    "transactionsTrie" : "0x4f1914c634a076b49e3ed15bd3dea65f200e5325bad014d9ac1fd1d355777c10",
                    "uncleHash" : "0x1dcc4de8dec75d7aab85b567b6ccd41ad312451b948a7413f0a142fd40d49347"
                },
                "rlp" : "0xf90263f901f7a076de4e53b4b1fa28d1ad390fca28de6197f31d81d8464b2d9dfc9a06e36a2df6a01dcc4de8dec75d7aab85b567b6ccd41ad312451b948a7413f0a142fd40d49347942adc25665018aa1fe0e6bc666dac8fc2697ff9baa0f0de83259b3b8cb2a2ff8ed13ad54d2a7fda20fa09cba60dc95e4b2784df0bb8a04f1914c634a076b49e3ed15bd3dea65f200e5325bad014d9ac1fd1d355777c10a0b6c21749c74666782f64e7b6e00d569d47da210542d3923dc12c2b151b165794b90100000000000000000000000000000000000000000000000000000000000000000000000000000000000000000000000000000000000000000000000000000000000000000000000000000000000000000000000000000000000000000000000000000000000000000000000000000000000000000000000000000000000000000000000000000000000000000000000000000000000000000000000000000000000000000000000000000000000000000000000000000000000000000000000000000000000000000000000000000000000000000000000000000000000000000000000000000000000000000000000000000000000000000000000000000000008302000001830f42408235cb8203e880a05d1c493a34a41d0568fcce031ce51b2e7af7f6420f089e2976f97e6a76d8fc2688cd52563652d806a4f866f8648001830493e09410000000000000000000000000000000000000018084c04062261ba06c7a67f0afeb37026a7b6d1e029cb15887fed2b363cd5ee95c56a6cb1ae1f525a02fea0a6c8ddf75b659dedafa27f2e5854537b18b77e219352ec0079b678ab40fc0",
                "transactions" : [
                    {
                        "data" : "0xc0406226",
                        "gasLimit" : "0x0493e0",
                        "gasPrice" : "0x01",
                        "nonce" : "0x00",
                        "r" : "0x6c7a67f0afeb37026a7b6d1e029cb15887fed2b363cd5ee95c56a6cb1ae1f525",
                        "s" : "0x2fea0a6c8ddf75b659dedafa27f2e5854537b18b77e219352ec0079b678ab40f",
                        "to" : "0x1000000000000000000000000000000000000001",
                        "v" : "0x1b",
                        "value" : "0x00"
                    }
                ],
                "uncleHeaders" : [
                ]
            }
        ],
        "genesisBlockHeader" : {
            "bloom" : "0x00000000000000000000000000000000000000000000000000000000000000000000000000000000000000000000000000000000000000000000000000000000000000000000000000000000000000000000000000000000000000000000000000000000000000000000000000000000000000000000000000000000000000000000000000000000000000000000000000000000000000000000000000000000000000000000000000000000000000000000000000000000000000000000000000000000000000000000000000000000000000000000000000000000000000000000000000000000000000000000000000000000000000000000000000000000",
            "coinbase" : "0x2adc25665018aa1fe0e6bc666dac8fc2697ff9ba",
            "difficulty" : "0x020000",
            "extraData" : "0x42",
            "gasLimit" : "0x0f4240",
            "gasUsed" : "0x00",
            "hash" : "0x76de4e53b4b1fa28d1ad390fca28de6197f31d81d8464b2d9dfc9a06e36a2df6",
            "mixHash" : "0x56e81f171bcc55a6ff8345e692c0f86e5b48e01b996cadc001622fb5e363b421",
            "nonce" : "0x0102030405060708",
            "number" : "0x00",
            "parentHash" : "0x0000000000000000000000000000000000000000000000000000000000000000",
            "receiptTrie" : "0x56e81f171bcc55a6ff8345e692c0f86e5b48e01b996cadc001622fb5e363b421",
            "stateRoot" : "0xa38e179095b269154c1776ef395730c69e81ff6e8df7fb6b70abeaa7ccc0fec8",
            "timestamp" : "0x03b6",
            "transactionsTrie" : "0x56e81f171bcc55a6ff8345e692c0f86e5b48e01b996cadc001622fb5e363b421",
            "uncleHash" : "0x1dcc4de8dec75d7aab85b567b6ccd41ad312451b948a7413f0a142fd40d49347"
        },
        "genesisRLP" : "0xf901faf901f5a00000000000000000000000000000000000000000000000000000000000000000a01dcc4de8dec75d7aab85b567b6ccd41ad312451b948a7413f0a142fd40d49347942adc25665018aa1fe0e6bc666dac8fc2697ff9baa0a38e179095b269154c1776ef395730c69e81ff6e8df7fb6b70abeaa7ccc0fec8a056e81f171bcc55a6ff8345e692c0f86e5b48e01b996cadc001622fb5e363b421a056e81f171bcc55a6ff8345e692c0f86e5b48e01b996cadc001622fb5e363b421b90100000000000000000000000000000000000000000000000000000000000000000000000000000000000000000000000000000000000000000000000000000000000000000000000000000000000000000000000000000000000000000000000000000000000000000000000000000000000000000000000000000000000000000000000000000000000000000000000000000000000000000000000000000000000000000000000000000000000000000000000000000000000000000000000000000000000000000000000000000000000000000000000000000000000000000000000000000000000000000000000000000000000000000000000000000000008302000080830f4240808203b642a056e81f171bcc55a6ff8345e692c0f86e5b48e01b996cadc001622fb5e363b421880102030405060708c0c0",
        "lastblockhash" : "0xd216027f666482652e6b2bf559fe895e7977711e97964c230715f7a15322b6f5",
        "network" : "EIP158",
        "postState" : {
            "0x2adc25665018aa1fe0e6bc666dac8fc2697ff9ba" : {
                "balance" : "0x4563918244f435cb",
                "code" : "",
                "nonce" : "0x00",
                "storage" : {
                }
            },
            "0xa94f5374fce5edbc8e2a8697c15331677e6ebf0b" : {
                "balance" : "0x045e15",
                "code" : "",
                "nonce" : "0x01",
                "storage" : {
                }
            }
        },
        "pre" : {
            "0x1000000000000000000000000000000000000001" : {
                "balance" : "0x0de0b6b3a7640000",
                "code" : "0x606060405260e060020a600035046309e587a58114602e5780632e4699ed146049578063c040622614609b575b005b602c3373ffffffffffffffffffffffffffffffffffffffff16ff5b602c5b60003090508073ffffffffffffffffffffffffffffffffffffffff166309e587a56040518160e060020a0281526004018090506000604051808303816000876161da5a03f11560025750505050565b60a5600060b9604c565b604080519115158252519081900360200190f35b5060019056",
                "nonce" : "0x00",
                "storage" : {
                }
            },
            "0xa94f5374fce5edbc8e2a8697c15331677e6ebf0b" : {
                "balance" : "0x0493e0",
                "code" : "",
                "nonce" : "0x00",
                "storage" : {
                }
            }
        }
    },
    "refund_singleSuicide_d0g0v0_Frontier" : {
        "_info" : {
            "comment" : "",
            "filledwith" : "cpp-1.3.0+commit.6e0ce939.Linux.g++",
            "lllcversion" : "Version: 0.4.18-develop.2017.9.25+commit.a72237f2.Linux.g++",
            "source" : "src/BlockchainTestsFiller/GeneralStateTests/stRefundTest/refund_singleSuicide_d0g0v0Filler.json",
            "sourceHash" : "7e8351b771ee1154f3ddaec3ab895aca00e6bd2f49fff45a1fffb9d320029356"
        },
        "blocks" : [
            {
                "blockHeader" : {
                    "bloom" : "0x00000000000000000000000000000000000000000000000000000000000000000000000000000000000000000000000000000000000000000000000000000000000000000000000000000000000000000000000000000000000000000000000000000000000000000000000000000000000000000000000000000000000000000000000000000000000000000000000000000000000000000000000000000000000000000000000000000000000000000000000000000000000000000000000000000000000000000000000000000000000000000000000000000000000000000000000000000000000000000000000000000000000000000000000000000000",
                    "coinbase" : "0x2adc25665018aa1fe0e6bc666dac8fc2697ff9ba",
                    "difficulty" : "0x020000",
                    "extraData" : "",
                    "gasLimit" : "0x0f4240",
                    "gasUsed" : "0x2a81",
                    "hash" : "0x77a4d734c7dd13a2e587204c286169fd83312591d51a199c681e6d36a4352beb",
                    "mixHash" : "0xdb47ef67852b7a61c3b944310fa03cb109256dbe146fceb3d66ff656f5643a43",
                    "nonce" : "0x1025e3d5337807c8",
                    "number" : "0x01",
                    "parentHash" : "0x76de4e53b4b1fa28d1ad390fca28de6197f31d81d8464b2d9dfc9a06e36a2df6",
                    "receiptTrie" : "0x2ef05f56cb6db36f6426768e02e4ed9812880858d64f471899b0308b2147ae57",
                    "stateRoot" : "0x6120595fc89b40c3c2fadcf63058de93cbd83dca0fbc053bf1b8137d84ec932f",
                    "timestamp" : "0x03e8",
                    "transactionsTrie" : "0x4f1914c634a076b49e3ed15bd3dea65f200e5325bad014d9ac1fd1d355777c10",
                    "uncleHash" : "0x1dcc4de8dec75d7aab85b567b6ccd41ad312451b948a7413f0a142fd40d49347"
                },
                "rlp" : "0xf90263f901f7a076de4e53b4b1fa28d1ad390fca28de6197f31d81d8464b2d9dfc9a06e36a2df6a01dcc4de8dec75d7aab85b567b6ccd41ad312451b948a7413f0a142fd40d49347942adc25665018aa1fe0e6bc666dac8fc2697ff9baa06120595fc89b40c3c2fadcf63058de93cbd83dca0fbc053bf1b8137d84ec932fa04f1914c634a076b49e3ed15bd3dea65f200e5325bad014d9ac1fd1d355777c10a02ef05f56cb6db36f6426768e02e4ed9812880858d64f471899b0308b2147ae57b90100000000000000000000000000000000000000000000000000000000000000000000000000000000000000000000000000000000000000000000000000000000000000000000000000000000000000000000000000000000000000000000000000000000000000000000000000000000000000000000000000000000000000000000000000000000000000000000000000000000000000000000000000000000000000000000000000000000000000000000000000000000000000000000000000000000000000000000000000000000000000000000000000000000000000000000000000000000000000000000000000000000000000000000000000000000008302000001830f4240822a818203e880a0db47ef67852b7a61c3b944310fa03cb109256dbe146fceb3d66ff656f5643a43881025e3d5337807c8f866f8648001830493e09410000000000000000000000000000000000000018084c04062261ba06c7a67f0afeb37026a7b6d1e029cb15887fed2b363cd5ee95c56a6cb1ae1f525a02fea0a6c8ddf75b659dedafa27f2e5854537b18b77e219352ec0079b678ab40fc0",
                "transactions" : [
                    {
                        "data" : "0xc0406226",
                        "gasLimit" : "0x0493e0",
                        "gasPrice" : "0x01",
                        "nonce" : "0x00",
                        "r" : "0x6c7a67f0afeb37026a7b6d1e029cb15887fed2b363cd5ee95c56a6cb1ae1f525",
                        "s" : "0x2fea0a6c8ddf75b659dedafa27f2e5854537b18b77e219352ec0079b678ab40f",
                        "to" : "0x1000000000000000000000000000000000000001",
                        "v" : "0x1b",
                        "value" : "0x00"
                    }
                ],
                "uncleHeaders" : [
                ]
            }
        ],
        "genesisBlockHeader" : {
            "bloom" : "0x00000000000000000000000000000000000000000000000000000000000000000000000000000000000000000000000000000000000000000000000000000000000000000000000000000000000000000000000000000000000000000000000000000000000000000000000000000000000000000000000000000000000000000000000000000000000000000000000000000000000000000000000000000000000000000000000000000000000000000000000000000000000000000000000000000000000000000000000000000000000000000000000000000000000000000000000000000000000000000000000000000000000000000000000000000000",
            "coinbase" : "0x2adc25665018aa1fe0e6bc666dac8fc2697ff9ba",
            "difficulty" : "0x020000",
            "extraData" : "0x42",
            "gasLimit" : "0x0f4240",
            "gasUsed" : "0x00",
            "hash" : "0x76de4e53b4b1fa28d1ad390fca28de6197f31d81d8464b2d9dfc9a06e36a2df6",
            "mixHash" : "0x56e81f171bcc55a6ff8345e692c0f86e5b48e01b996cadc001622fb5e363b421",
            "nonce" : "0x0102030405060708",
            "number" : "0x00",
            "parentHash" : "0x0000000000000000000000000000000000000000000000000000000000000000",
            "receiptTrie" : "0x56e81f171bcc55a6ff8345e692c0f86e5b48e01b996cadc001622fb5e363b421",
            "stateRoot" : "0xa38e179095b269154c1776ef395730c69e81ff6e8df7fb6b70abeaa7ccc0fec8",
            "timestamp" : "0x03b6",
            "transactionsTrie" : "0x56e81f171bcc55a6ff8345e692c0f86e5b48e01b996cadc001622fb5e363b421",
            "uncleHash" : "0x1dcc4de8dec75d7aab85b567b6ccd41ad312451b948a7413f0a142fd40d49347"
        },
        "genesisRLP" : "0xf901faf901f5a00000000000000000000000000000000000000000000000000000000000000000a01dcc4de8dec75d7aab85b567b6ccd41ad312451b948a7413f0a142fd40d49347942adc25665018aa1fe0e6bc666dac8fc2697ff9baa0a38e179095b269154c1776ef395730c69e81ff6e8df7fb6b70abeaa7ccc0fec8a056e81f171bcc55a6ff8345e692c0f86e5b48e01b996cadc001622fb5e363b421a056e81f171bcc55a6ff8345e692c0f86e5b48e01b996cadc001622fb5e363b421b90100000000000000000000000000000000000000000000000000000000000000000000000000000000000000000000000000000000000000000000000000000000000000000000000000000000000000000000000000000000000000000000000000000000000000000000000000000000000000000000000000000000000000000000000000000000000000000000000000000000000000000000000000000000000000000000000000000000000000000000000000000000000000000000000000000000000000000000000000000000000000000000000000000000000000000000000000000000000000000000000000000000000000000000000000000000008302000080830f4240808203b642a056e81f171bcc55a6ff8345e692c0f86e5b48e01b996cadc001622fb5e363b421880102030405060708c0c0",
        "lastblockhash" : "0x77a4d734c7dd13a2e587204c286169fd83312591d51a199c681e6d36a4352beb",
        "network" : "Frontier",
        "postState" : {
            "0x2adc25665018aa1fe0e6bc666dac8fc2697ff9ba" : {
                "balance" : "0x4563918244f42a81",
                "code" : "",
                "nonce" : "0x00",
                "storage" : {
                }
            },
            "0xa94f5374fce5edbc8e2a8697c15331677e6ebf0b" : {
                "balance" : "0x04695f",
                "code" : "",
                "nonce" : "0x01",
                "storage" : {
                }
            }
        },
        "pre" : {
            "0x1000000000000000000000000000000000000001" : {
                "balance" : "0x0de0b6b3a7640000",
                "code" : "0x606060405260e060020a600035046309e587a58114602e5780632e4699ed146049578063c040622614609b575b005b602c3373ffffffffffffffffffffffffffffffffffffffff16ff5b602c5b60003090508073ffffffffffffffffffffffffffffffffffffffff166309e587a56040518160e060020a0281526004018090506000604051808303816000876161da5a03f11560025750505050565b60a5600060b9604c565b604080519115158252519081900360200190f35b5060019056",
                "nonce" : "0x00",
                "storage" : {
                }
            },
            "0xa94f5374fce5edbc8e2a8697c15331677e6ebf0b" : {
                "balance" : "0x0493e0",
                "code" : "",
                "nonce" : "0x00",
                "storage" : {
                }
            }
        }
    },
    "refund_singleSuicide_d0g0v0_Homestead" : {
        "_info" : {
            "comment" : "",
            "filledwith" : "cpp-1.3.0+commit.6e0ce939.Linux.g++",
            "lllcversion" : "Version: 0.4.18-develop.2017.9.25+commit.a72237f2.Linux.g++",
            "source" : "src/BlockchainTestsFiller/GeneralStateTests/stRefundTest/refund_singleSuicide_d0g0v0Filler.json",
            "sourceHash" : "7e8351b771ee1154f3ddaec3ab895aca00e6bd2f49fff45a1fffb9d320029356"
        },
        "blocks" : [
            {
                "blockHeader" : {
                    "bloom" : "0x00000000000000000000000000000000000000000000000000000000000000000000000000000000000000000000000000000000000000000000000000000000000000000000000000000000000000000000000000000000000000000000000000000000000000000000000000000000000000000000000000000000000000000000000000000000000000000000000000000000000000000000000000000000000000000000000000000000000000000000000000000000000000000000000000000000000000000000000000000000000000000000000000000000000000000000000000000000000000000000000000000000000000000000000000000000",
                    "coinbase" : "0x2adc25665018aa1fe0e6bc666dac8fc2697ff9ba",
                    "difficulty" : "0x020000",
                    "extraData" : "",
                    "gasLimit" : "0x0f4240",
                    "gasUsed" : "0x2a81",
                    "hash" : "0x7a991915cd3e824f7dea9bd1852f969f610e3ba0ab1cbb6d77f5c64d279fd87c",
                    "mixHash" : "0xb91033b229d81d4b8dca0059468288c6f0e4198ed6a08371907ff3abe4e82497",
                    "nonce" : "0xcf69afb0b7df0dd6",
                    "number" : "0x01",
                    "parentHash" : "0x76de4e53b4b1fa28d1ad390fca28de6197f31d81d8464b2d9dfc9a06e36a2df6",
                    "receiptTrie" : "0x2ef05f56cb6db36f6426768e02e4ed9812880858d64f471899b0308b2147ae57",
                    "stateRoot" : "0x6120595fc89b40c3c2fadcf63058de93cbd83dca0fbc053bf1b8137d84ec932f",
                    "timestamp" : "0x03e8",
                    "transactionsTrie" : "0x4f1914c634a076b49e3ed15bd3dea65f200e5325bad014d9ac1fd1d355777c10",
                    "uncleHash" : "0x1dcc4de8dec75d7aab85b567b6ccd41ad312451b948a7413f0a142fd40d49347"
                },
                "rlp" : "0xf90263f901f7a076de4e53b4b1fa28d1ad390fca28de6197f31d81d8464b2d9dfc9a06e36a2df6a01dcc4de8dec75d7aab85b567b6ccd41ad312451b948a7413f0a142fd40d49347942adc25665018aa1fe0e6bc666dac8fc2697ff9baa06120595fc89b40c3c2fadcf63058de93cbd83dca0fbc053bf1b8137d84ec932fa04f1914c634a076b49e3ed15bd3dea65f200e5325bad014d9ac1fd1d355777c10a02ef05f56cb6db36f6426768e02e4ed9812880858d64f471899b0308b2147ae57b90100000000000000000000000000000000000000000000000000000000000000000000000000000000000000000000000000000000000000000000000000000000000000000000000000000000000000000000000000000000000000000000000000000000000000000000000000000000000000000000000000000000000000000000000000000000000000000000000000000000000000000000000000000000000000000000000000000000000000000000000000000000000000000000000000000000000000000000000000000000000000000000000000000000000000000000000000000000000000000000000000000000000000000000000000000000008302000001830f4240822a818203e880a0b91033b229d81d4b8dca0059468288c6f0e4198ed6a08371907ff3abe4e8249788cf69afb0b7df0dd6f866f8648001830493e09410000000000000000000000000000000000000018084c04062261ba06c7a67f0afeb37026a7b6d1e029cb15887fed2b363cd5ee95c56a6cb1ae1f525a02fea0a6c8ddf75b659dedafa27f2e5854537b18b77e219352ec0079b678ab40fc0",
                "transactions" : [
                    {
                        "data" : "0xc0406226",
                        "gasLimit" : "0x0493e0",
                        "gasPrice" : "0x01",
                        "nonce" : "0x00",
                        "r" : "0x6c7a67f0afeb37026a7b6d1e029cb15887fed2b363cd5ee95c56a6cb1ae1f525",
                        "s" : "0x2fea0a6c8ddf75b659dedafa27f2e5854537b18b77e219352ec0079b678ab40f",
                        "to" : "0x1000000000000000000000000000000000000001",
                        "v" : "0x1b",
                        "value" : "0x00"
                    }
                ],
                "uncleHeaders" : [
                ]
            }
        ],
        "genesisBlockHeader" : {
            "bloom" : "0x00000000000000000000000000000000000000000000000000000000000000000000000000000000000000000000000000000000000000000000000000000000000000000000000000000000000000000000000000000000000000000000000000000000000000000000000000000000000000000000000000000000000000000000000000000000000000000000000000000000000000000000000000000000000000000000000000000000000000000000000000000000000000000000000000000000000000000000000000000000000000000000000000000000000000000000000000000000000000000000000000000000000000000000000000000000",
            "coinbase" : "0x2adc25665018aa1fe0e6bc666dac8fc2697ff9ba",
            "difficulty" : "0x020000",
            "extraData" : "0x42",
            "gasLimit" : "0x0f4240",
            "gasUsed" : "0x00",
            "hash" : "0x76de4e53b4b1fa28d1ad390fca28de6197f31d81d8464b2d9dfc9a06e36a2df6",
            "mixHash" : "0x56e81f171bcc55a6ff8345e692c0f86e5b48e01b996cadc001622fb5e363b421",
            "nonce" : "0x0102030405060708",
            "number" : "0x00",
            "parentHash" : "0x0000000000000000000000000000000000000000000000000000000000000000",
            "receiptTrie" : "0x56e81f171bcc55a6ff8345e692c0f86e5b48e01b996cadc001622fb5e363b421",
            "stateRoot" : "0xa38e179095b269154c1776ef395730c69e81ff6e8df7fb6b70abeaa7ccc0fec8",
            "timestamp" : "0x03b6",
            "transactionsTrie" : "0x56e81f171bcc55a6ff8345e692c0f86e5b48e01b996cadc001622fb5e363b421",
            "uncleHash" : "0x1dcc4de8dec75d7aab85b567b6ccd41ad312451b948a7413f0a142fd40d49347"
        },
        "genesisRLP" : "0xf901faf901f5a00000000000000000000000000000000000000000000000000000000000000000a01dcc4de8dec75d7aab85b567b6ccd41ad312451b948a7413f0a142fd40d49347942adc25665018aa1fe0e6bc666dac8fc2697ff9baa0a38e179095b269154c1776ef395730c69e81ff6e8df7fb6b70abeaa7ccc0fec8a056e81f171bcc55a6ff8345e692c0f86e5b48e01b996cadc001622fb5e363b421a056e81f171bcc55a6ff8345e692c0f86e5b48e01b996cadc001622fb5e363b421b90100000000000000000000000000000000000000000000000000000000000000000000000000000000000000000000000000000000000000000000000000000000000000000000000000000000000000000000000000000000000000000000000000000000000000000000000000000000000000000000000000000000000000000000000000000000000000000000000000000000000000000000000000000000000000000000000000000000000000000000000000000000000000000000000000000000000000000000000000000000000000000000000000000000000000000000000000000000000000000000000000000000000000000000000000000000008302000080830f4240808203b642a056e81f171bcc55a6ff8345e692c0f86e5b48e01b996cadc001622fb5e363b421880102030405060708c0c0",
        "lastblockhash" : "0x7a991915cd3e824f7dea9bd1852f969f610e3ba0ab1cbb6d77f5c64d279fd87c",
        "network" : "Homestead",
        "postState" : {
            "0x2adc25665018aa1fe0e6bc666dac8fc2697ff9ba" : {
                "balance" : "0x4563918244f42a81",
                "code" : "",
                "nonce" : "0x00",
                "storage" : {
                }
            },
            "0xa94f5374fce5edbc8e2a8697c15331677e6ebf0b" : {
                "balance" : "0x04695f",
                "code" : "",
                "nonce" : "0x01",
                "storage" : {
                }
            }
        },
        "pre" : {
            "0x1000000000000000000000000000000000000001" : {
                "balance" : "0x0de0b6b3a7640000",
                "code" : "0x606060405260e060020a600035046309e587a58114602e5780632e4699ed146049578063c040622614609b575b005b602c3373ffffffffffffffffffffffffffffffffffffffff16ff5b602c5b60003090508073ffffffffffffffffffffffffffffffffffffffff166309e587a56040518160e060020a0281526004018090506000604051808303816000876161da5a03f11560025750505050565b60a5600060b9604c565b604080519115158252519081900360200190f35b5060019056",
                "nonce" : "0x00",
                "storage" : {
                }
            },
            "0xa94f5374fce5edbc8e2a8697c15331677e6ebf0b" : {
                "balance" : "0x0493e0",
                "code" : "",
                "nonce" : "0x00",
                "storage" : {
                }
            }
        }
    }
}