{
    "refundSuicide50procentCap_d0g0v0_Byzantium" : {
        "_info" : {
            "comment" : "",
            "filledwith" : "cpp-1.3.0+commit.6e0ce939.Linux.g++",
            "lllcversion" : "Version: 0.4.18-develop.2017.9.25+commit.a72237f2.Linux.g++",
            "source" : "src/BlockchainTestsFiller/GeneralStateTests/stRefundTest/refundSuicide50procentCap_d0g0v0Filler.json",
            "sourceHash" : "457ab6a9a4571737451b7d4425721a8be0ef3a7df9bf284ba966020d474e0609"
        },
        "blocks" : [
            {
                "blockHeader" : {
                    "bloom" : "0x00000000000000000000000000000000000000000000000000000000000000000000000000000000000000000000000000000000000000000000000000000000000000000000000000000000000000000000000000000000000000000000000000000000000000000000000000000000000000000000000000000000000000000000000000000000000000000000000000000000000000000000000000000000000000000000000000000000000000000000000000000000000000000000000000000000000000000000000000000000000000000000000000000000000000000000000000000000000000000000000000000000000000000000000000000000",
                    "coinbase" : "0x2adc25665018aa1fe0e6bc666dac8fc2697ff9ba",
                    "difficulty" : "0x020000",
                    "extraData" : "",
                    "gasLimit" : "0x989680",
                    "gasUsed" : "0xf91e",
                    "hash" : "0x6dce55ebacbb2ed67469ea58e19d4b135583d7e49b6e0e569af8c3967886d8ee",
                    "mixHash" : "0x797453f3634d614c1b516ac2a3b245c39f07e87fe21732f79f12344c03e7e7ef",
                    "nonce" : "0xba06f09da55cac55",
                    "number" : "0x01",
                    "parentHash" : "0xbdd5b66ebee4e8072f6211c79f81162b597ab68bb81d9b2274e7a3656da3f86b",
                    "receiptTrie" : "0xb93612e7a46897ce49cd632e5b99976ab8f830c09b315212bd32eb8ab8311a08",
                    "stateRoot" : "0x4d74fe0b6a4b4d559f6cd1c813517348cbe8ccb7379e6fc27724e0e8e489d29e",
                    "timestamp" : "0x03e8",
                    "transactionsTrie" : "0x152ce708665da4f8b22d15f1b7f6d376eee2f93874a4d1f6272c5e657dbe1b0b",
                    "uncleHash" : "0x1dcc4de8dec75d7aab85b567b6ccd41ad312451b948a7413f0a142fd40d49347"
                },
                "rlp" : "0xf9027ff901f7a0bdd5b66ebee4e8072f6211c79f81162b597ab68bb81d9b2274e7a3656da3f86ba01dcc4de8dec75d7aab85b567b6ccd41ad312451b948a7413f0a142fd40d49347942adc25665018aa1fe0e6bc666dac8fc2697ff9baa04d74fe0b6a4b4d559f6cd1c813517348cbe8ccb7379e6fc27724e0e8e489d29ea0152ce708665da4f8b22d15f1b7f6d376eee2f93874a4d1f6272c5e657dbe1b0ba0b93612e7a46897ce49cd632e5b99976ab8f830c09b315212bd32eb8ab8311a08b901000000000000000000000000000000000000000000000000000000000000000000000000000000000000000000000000000000000000000000000000000000000000000000000000000000000000000000000000000000000000000000000000000000000000000000000000000000000000000000000000000000000000000000000000000000000000000000000000000000000000000000000000000000000000000000000000000000000000000000000000000000000000000000000000000000000000000000000000000000000000000000000000000000000000000000000000000000000000000000000000000000000000000000000000000000000083020000018398968082f91e8203e880a0797453f3634d614c1b516ac2a3b245c39f07e87fe21732f79f12344c03e7e7ef88ba06f09da55cac55f882f88080018398968094095e7baea6a6c7c4c2dfeb977efac326af552d8780a000000000000000000000000000000000000000000000000000000000000001f41ba0ca6eed05ee408be0dd60eaf1be4ed39e132fca30191b5d29a1d539f62659ee2da07638bed28aa6eec9d1b8a1a8e96f3fdb7117b2b0412f0804b1cb2f3f3c4f4056c0",
                "transactions" : [
                    {
                        "data" : "0x00000000000000000000000000000000000000000000000000000000000001f4",
                        "gasLimit" : "0x989680",
                        "gasPrice" : "0x01",
                        "nonce" : "0x00",
                        "r" : "0xca6eed05ee408be0dd60eaf1be4ed39e132fca30191b5d29a1d539f62659ee2d",
                        "s" : "0x7638bed28aa6eec9d1b8a1a8e96f3fdb7117b2b0412f0804b1cb2f3f3c4f4056",
                        "to" : "0x095e7baea6a6c7c4c2dfeb977efac326af552d87",
                        "v" : "0x1b",
                        "value" : "0x00"
                    }
                ],
                "uncleHeaders" : [
                ]
            }
        ],
        "genesisBlockHeader" : {
            "bloom" : "0x00000000000000000000000000000000000000000000000000000000000000000000000000000000000000000000000000000000000000000000000000000000000000000000000000000000000000000000000000000000000000000000000000000000000000000000000000000000000000000000000000000000000000000000000000000000000000000000000000000000000000000000000000000000000000000000000000000000000000000000000000000000000000000000000000000000000000000000000000000000000000000000000000000000000000000000000000000000000000000000000000000000000000000000000000000000",
            "coinbase" : "0x2adc25665018aa1fe0e6bc666dac8fc2697ff9ba",
            "difficulty" : "0x020000",
            "extraData" : "0x42",
            "gasLimit" : "0x989680",
            "gasUsed" : "0x00",
            "hash" : "0xbdd5b66ebee4e8072f6211c79f81162b597ab68bb81d9b2274e7a3656da3f86b",
            "mixHash" : "0x56e81f171bcc55a6ff8345e692c0f86e5b48e01b996cadc001622fb5e363b421",
            "nonce" : "0x0102030405060708",
            "number" : "0x00",
            "parentHash" : "0x0000000000000000000000000000000000000000000000000000000000000000",
            "receiptTrie" : "0x56e81f171bcc55a6ff8345e692c0f86e5b48e01b996cadc001622fb5e363b421",
            "stateRoot" : "0xb26249ae651a11898d83ff3824ce37f6ad82c7e5fb985cc974fba2d5b77d7fb6",
            "timestamp" : "0x03b6",
            "transactionsTrie" : "0x56e81f171bcc55a6ff8345e692c0f86e5b48e01b996cadc001622fb5e363b421",
            "uncleHash" : "0x1dcc4de8dec75d7aab85b567b6ccd41ad312451b948a7413f0a142fd40d49347"
        },
        "genesisRLP" : "0xf901faf901f5a00000000000000000000000000000000000000000000000000000000000000000a01dcc4de8dec75d7aab85b567b6ccd41ad312451b948a7413f0a142fd40d49347942adc25665018aa1fe0e6bc666dac8fc2697ff9baa0b26249ae651a11898d83ff3824ce37f6ad82c7e5fb985cc974fba2d5b77d7fb6a056e81f171bcc55a6ff8345e692c0f86e5b48e01b996cadc001622fb5e363b421a056e81f171bcc55a6ff8345e692c0f86e5b48e01b996cadc001622fb5e363b421b9010000000000000000000000000000000000000000000000000000000000000000000000000000000000000000000000000000000000000000000000000000000000000000000000000000000000000000000000000000000000000000000000000000000000000000000000000000000000000000000000000000000000000000000000000000000000000000000000000000000000000000000000000000000000000000000000000000000000000000000000000000000000000000000000000000000000000000000000000000000000000000000000000000000000000000000000000000000000000000000000000000000000000000000000000000000000830200008083989680808203b642a056e81f171bcc55a6ff8345e692c0f86e5b48e01b996cadc001622fb5e363b421880102030405060708c0c0",
        "lastblockhash" : "0x6dce55ebacbb2ed67469ea58e19d4b135583d7e49b6e0e569af8c3967886d8ee",
        "network" : "Byzantium",
        "postState" : {
            "0x095e7baea6a6c7c4c2dfeb977efac326af552d87" : {
                "balance" : "0x0de0b6b3a7640000",
                "code" : "0x5a6016556001600a556000600060006000600073aaae7baea6a6c7c4c2dfeb977efac326af552aaa600035f1600b55600060015560006002556000600355600060045560006005556000600655600060075560006008555a601755",
                "nonce" : "0x00",
                "storage" : {
                    "0x0a" : "0x01",
                    "0x16" : "0x984376",
                    "0x17" : "0x96f268"
                }
            },
            "0x2adc25665018aa1fe0e6bc666dac8fc2697ff9ba" : {
                "balance" : "0x29a2241af62cf91e",
                "code" : "",
                "nonce" : "0x00",
                "storage" : {
                }
            },
            "0xa94f5374fce5edbc8e2a8697c15331677e6ebf0b" : {
                "balance" : "0x979d62",
                "code" : "",
                "nonce" : "0x01",
                "storage" : {
                }
            },
            "0xaaae7baea6a6c7c4c2dfeb977efac326af552aaa" : {
                "balance" : "0x0de0b6b3a7640000",
                "code" : "0x73095e7baea6a6c7c4c2dfeb977efac326af552d87ff",
                "nonce" : "0x00",
                "storage" : {
                }
            }
        },
        "pre" : {
            "0x095e7baea6a6c7c4c2dfeb977efac326af552d87" : {
                "balance" : "0x0de0b6b3a7640000",
                "code" : "0x5a6016556001600a556000600060006000600073aaae7baea6a6c7c4c2dfeb977efac326af552aaa600035f1600b55600060015560006002556000600355600060045560006005556000600655600060075560006008555a601755",
                "nonce" : "0x00",
                "storage" : {
                    "0x01" : "0x01",
                    "0x02" : "0x01",
                    "0x03" : "0x01",
                    "0x04" : "0x01",
                    "0x05" : "0x01",
                    "0x06" : "0x01",
                    "0x07" : "0x01",
                    "0x08" : "0x01"
                }
            },
            "0xa94f5374fce5edbc8e2a8697c15331677e6ebf0b" : {
                "balance" : "0x989680",
                "code" : "",
                "nonce" : "0x00",
                "storage" : {
                }
            },
            "0xaaae7baea6a6c7c4c2dfeb977efac326af552aaa" : {
                "balance" : "0x0de0b6b3a7640000",
                "code" : "0x73095e7baea6a6c7c4c2dfeb977efac326af552d87ff",
                "nonce" : "0x00",
                "storage" : {
                }
            }
        }
    },
    "refundSuicide50procentCap_d0g0v0_EIP150" : {
        "_info" : {
            "comment" : "",
            "filledwith" : "cpp-1.3.0+commit.6e0ce939.Linux.g++",
            "lllcversion" : "Version: 0.4.18-develop.2017.9.25+commit.a72237f2.Linux.g++",
            "source" : "src/BlockchainTestsFiller/GeneralStateTests/stRefundTest/refundSuicide50procentCap_d0g0v0Filler.json",
            "sourceHash" : "457ab6a9a4571737451b7d4425721a8be0ef3a7df9bf284ba966020d474e0609"
        },
        "blocks" : [
            {
                "blockHeader" : {
                    "bloom" : "0x00000000000000000000000000000000000000000000000000000000000000000000000000000000000000000000000000000000000000000000000000000000000000000000000000000000000000000000000000000000000000000000000000000000000000000000000000000000000000000000000000000000000000000000000000000000000000000000000000000000000000000000000000000000000000000000000000000000000000000000000000000000000000000000000000000000000000000000000000000000000000000000000000000000000000000000000000000000000000000000000000000000000000000000000000000000",
                    "coinbase" : "0x2adc25665018aa1fe0e6bc666dac8fc2697ff9ba",
                    "difficulty" : "0x020000",
                    "extraData" : "",
                    "gasLimit" : "0x989680",
                    "gasUsed" : "0xf91e",
                    "hash" : "0x255ce90daec48b05afcad91fcd318eebb6862f6a9f68946939f6112ec19d7284",
                    "mixHash" : "0x05093d33ff08c46dc3c92ec187b3daf7342bd08753c3c2988c80c37212de9469",
                    "nonce" : "0x1bc9e77f3ac8bd5e",
                    "number" : "0x01",
                    "parentHash" : "0xbdd5b66ebee4e8072f6211c79f81162b597ab68bb81d9b2274e7a3656da3f86b",
                    "receiptTrie" : "0xfe6c263b8c0c67f290121fa77b7e8983d6822602e1054be14dfd1c0d13f37b49",
                    "stateRoot" : "0xcabaef80ba954eee56e0adc11c5c5a6978f2be108757ae2318364acc1cae8355",
                    "timestamp" : "0x03e8",
                    "transactionsTrie" : "0x152ce708665da4f8b22d15f1b7f6d376eee2f93874a4d1f6272c5e657dbe1b0b",
                    "uncleHash" : "0x1dcc4de8dec75d7aab85b567b6ccd41ad312451b948a7413f0a142fd40d49347"
                },
                "rlp" : "0xf9027ff901f7a0bdd5b66ebee4e8072f6211c79f81162b597ab68bb81d9b2274e7a3656da3f86ba01dcc4de8dec75d7aab85b567b6ccd41ad312451b948a7413f0a142fd40d49347942adc25665018aa1fe0e6bc666dac8fc2697ff9baa0cabaef80ba954eee56e0adc11c5c5a6978f2be108757ae2318364acc1cae8355a0152ce708665da4f8b22d15f1b7f6d376eee2f93874a4d1f6272c5e657dbe1b0ba0fe6c263b8c0c67f290121fa77b7e8983d6822602e1054be14dfd1c0d13f37b49b901000000000000000000000000000000000000000000000000000000000000000000000000000000000000000000000000000000000000000000000000000000000000000000000000000000000000000000000000000000000000000000000000000000000000000000000000000000000000000000000000000000000000000000000000000000000000000000000000000000000000000000000000000000000000000000000000000000000000000000000000000000000000000000000000000000000000000000000000000000000000000000000000000000000000000000000000000000000000000000000000000000000000000000000000000000000083020000018398968082f91e8203e880a005093d33ff08c46dc3c92ec187b3daf7342bd08753c3c2988c80c37212de9469881bc9e77f3ac8bd5ef882f88080018398968094095e7baea6a6c7c4c2dfeb977efac326af552d8780a000000000000000000000000000000000000000000000000000000000000001f41ba0ca6eed05ee408be0dd60eaf1be4ed39e132fca30191b5d29a1d539f62659ee2da07638bed28aa6eec9d1b8a1a8e96f3fdb7117b2b0412f0804b1cb2f3f3c4f4056c0",
                "transactions" : [
                    {
                        "data" : "0x00000000000000000000000000000000000000000000000000000000000001f4",
                        "gasLimit" : "0x989680",
                        "gasPrice" : "0x01",
                        "nonce" : "0x00",
                        "r" : "0xca6eed05ee408be0dd60eaf1be4ed39e132fca30191b5d29a1d539f62659ee2d",
                        "s" : "0x7638bed28aa6eec9d1b8a1a8e96f3fdb7117b2b0412f0804b1cb2f3f3c4f4056",
                        "to" : "0x095e7baea6a6c7c4c2dfeb977efac326af552d87",
                        "v" : "0x1b",
                        "value" : "0x00"
                    }
                ],
                "uncleHeaders" : [
                ]
            }
        ],
        "genesisBlockHeader" : {
            "bloom" : "0x00000000000000000000000000000000000000000000000000000000000000000000000000000000000000000000000000000000000000000000000000000000000000000000000000000000000000000000000000000000000000000000000000000000000000000000000000000000000000000000000000000000000000000000000000000000000000000000000000000000000000000000000000000000000000000000000000000000000000000000000000000000000000000000000000000000000000000000000000000000000000000000000000000000000000000000000000000000000000000000000000000000000000000000000000000000",
            "coinbase" : "0x2adc25665018aa1fe0e6bc666dac8fc2697ff9ba",
            "difficulty" : "0x020000",
            "extraData" : "0x42",
            "gasLimit" : "0x989680",
            "gasUsed" : "0x00",
            "hash" : "0xbdd5b66ebee4e8072f6211c79f81162b597ab68bb81d9b2274e7a3656da3f86b",
            "mixHash" : "0x56e81f171bcc55a6ff8345e692c0f86e5b48e01b996cadc001622fb5e363b421",
            "nonce" : "0x0102030405060708",
            "number" : "0x00",
            "parentHash" : "0x0000000000000000000000000000000000000000000000000000000000000000",
            "receiptTrie" : "0x56e81f171bcc55a6ff8345e692c0f86e5b48e01b996cadc001622fb5e363b421",
            "stateRoot" : "0xb26249ae651a11898d83ff3824ce37f6ad82c7e5fb985cc974fba2d5b77d7fb6",
            "timestamp" : "0x03b6",
            "transactionsTrie" : "0x56e81f171bcc55a6ff8345e692c0f86e5b48e01b996cadc001622fb5e363b421",
            "uncleHash" : "0x1dcc4de8dec75d7aab85b567b6ccd41ad312451b948a7413f0a142fd40d49347"
        },
        "genesisRLP" : "0xf901faf901f5a00000000000000000000000000000000000000000000000000000000000000000a01dcc4de8dec75d7aab85b567b6ccd41ad312451b948a7413f0a142fd40d49347942adc25665018aa1fe0e6bc666dac8fc2697ff9baa0b26249ae651a11898d83ff3824ce37f6ad82c7e5fb985cc974fba2d5b77d7fb6a056e81f171bcc55a6ff8345e692c0f86e5b48e01b996cadc001622fb5e363b421a056e81f171bcc55a6ff8345e692c0f86e5b48e01b996cadc001622fb5e363b421b9010000000000000000000000000000000000000000000000000000000000000000000000000000000000000000000000000000000000000000000000000000000000000000000000000000000000000000000000000000000000000000000000000000000000000000000000000000000000000000000000000000000000000000000000000000000000000000000000000000000000000000000000000000000000000000000000000000000000000000000000000000000000000000000000000000000000000000000000000000000000000000000000000000000000000000000000000000000000000000000000000000000000000000000000000000000000830200008083989680808203b642a056e81f171bcc55a6ff8345e692c0f86e5b48e01b996cadc001622fb5e363b421880102030405060708c0c0",
        "lastblockhash" : "0x255ce90daec48b05afcad91fcd318eebb6862f6a9f68946939f6112ec19d7284",
        "network" : "EIP150",
        "postState" : {
            "0x095e7baea6a6c7c4c2dfeb977efac326af552d87" : {
                "balance" : "0x0de0b6b3a7640000",
                "code" : "0x5a6016556001600a556000600060006000600073aaae7baea6a6c7c4c2dfeb977efac326af552aaa600035f1600b55600060015560006002556000600355600060045560006005556000600655600060075560006008555a601755",
                "nonce" : "0x00",
                "storage" : {
                    "0x0a" : "0x01",
                    "0x16" : "0x984376",
                    "0x17" : "0x96f268"
                }
            },
            "0x2adc25665018aa1fe0e6bc666dac8fc2697ff9ba" : {
                "balance" : "0x4563918244f4f91e",
                "code" : "",
                "nonce" : "0x00",
                "storage" : {
                }
            },
            "0xa94f5374fce5edbc8e2a8697c15331677e6ebf0b" : {
                "balance" : "0x979d62",
                "code" : "",
                "nonce" : "0x01",
                "storage" : {
                }
            },
            "0xaaae7baea6a6c7c4c2dfeb977efac326af552aaa" : {
                "balance" : "0x0de0b6b3a7640000",
                "code" : "0x73095e7baea6a6c7c4c2dfeb977efac326af552d87ff",
                "nonce" : "0x00",
                "storage" : {
                }
            }
        },
        "pre" : {
            "0x095e7baea6a6c7c4c2dfeb977efac326af552d87" : {
                "balance" : "0x0de0b6b3a7640000",
                "code" : "0x5a6016556001600a556000600060006000600073aaae7baea6a6c7c4c2dfeb977efac326af552aaa600035f1600b55600060015560006002556000600355600060045560006005556000600655600060075560006008555a601755",
                "nonce" : "0x00",
                "storage" : {
                    "0x01" : "0x01",
                    "0x02" : "0x01",
                    "0x03" : "0x01",
                    "0x04" : "0x01",
                    "0x05" : "0x01",
                    "0x06" : "0x01",
                    "0x07" : "0x01",
                    "0x08" : "0x01"
                }
            },
            "0xa94f5374fce5edbc8e2a8697c15331677e6ebf0b" : {
                "balance" : "0x989680",
                "code" : "",
                "nonce" : "0x00",
                "storage" : {
                }
            },
            "0xaaae7baea6a6c7c4c2dfeb977efac326af552aaa" : {
                "balance" : "0x0de0b6b3a7640000",
                "code" : "0x73095e7baea6a6c7c4c2dfeb977efac326af552d87ff",
                "nonce" : "0x00",
                "storage" : {
                }
            }
        }
    },
    "refundSuicide50procentCap_d0g0v0_EIP158" : {
        "_info" : {
            "comment" : "",
            "filledwith" : "cpp-1.3.0+commit.6e0ce939.Linux.g++",
            "lllcversion" : "Version: 0.4.18-develop.2017.9.25+commit.a72237f2.Linux.g++",
            "source" : "src/BlockchainTestsFiller/GeneralStateTests/stRefundTest/refundSuicide50procentCap_d0g0v0Filler.json",
            "sourceHash" : "457ab6a9a4571737451b7d4425721a8be0ef3a7df9bf284ba966020d474e0609"
        },
        "blocks" : [
            {
                "blockHeader" : {
                    "bloom" : "0x00000000000000000000000000000000000000000000000000000000000000000000000000000000000000000000000000000000000000000000000000000000000000000000000000000000000000000000000000000000000000000000000000000000000000000000000000000000000000000000000000000000000000000000000000000000000000000000000000000000000000000000000000000000000000000000000000000000000000000000000000000000000000000000000000000000000000000000000000000000000000000000000000000000000000000000000000000000000000000000000000000000000000000000000000000000",
                    "coinbase" : "0x2adc25665018aa1fe0e6bc666dac8fc2697ff9ba",
                    "difficulty" : "0x020000",
                    "extraData" : "",
                    "gasLimit" : "0x989680",
                    "gasUsed" : "0xf91e",
                    "hash" : "0x363368028ebf35b98e6cafd0070b1ee9b9b3cd37c14985667bd198c7fe8ebc51",
                    "mixHash" : "0x35f8eac286ba8ec277b072a78f4f8f21fcbb0801e6cdba4549f45dea5106d5ee",
                    "nonce" : "0x6f87139586383efe",
                    "number" : "0x01",
                    "parentHash" : "0xbdd5b66ebee4e8072f6211c79f81162b597ab68bb81d9b2274e7a3656da3f86b",
                    "receiptTrie" : "0xfe6c263b8c0c67f290121fa77b7e8983d6822602e1054be14dfd1c0d13f37b49",
                    "stateRoot" : "0xcabaef80ba954eee56e0adc11c5c5a6978f2be108757ae2318364acc1cae8355",
                    "timestamp" : "0x03e8",
                    "transactionsTrie" : "0x152ce708665da4f8b22d15f1b7f6d376eee2f93874a4d1f6272c5e657dbe1b0b",
                    "uncleHash" : "0x1dcc4de8dec75d7aab85b567b6ccd41ad312451b948a7413f0a142fd40d49347"
                },
                "rlp" : "0xf9027ff901f7a0bdd5b66ebee4e8072f6211c79f81162b597ab68bb81d9b2274e7a3656da3f86ba01dcc4de8dec75d7aab85b567b6ccd41ad312451b948a7413f0a142fd40d49347942adc25665018aa1fe0e6bc666dac8fc2697ff9baa0cabaef80ba954eee56e0adc11c5c5a6978f2be108757ae2318364acc1cae8355a0152ce708665da4f8b22d15f1b7f6d376eee2f93874a4d1f6272c5e657dbe1b0ba0fe6c263b8c0c67f290121fa77b7e8983d6822602e1054be14dfd1c0d13f37b49b901000000000000000000000000000000000000000000000000000000000000000000000000000000000000000000000000000000000000000000000000000000000000000000000000000000000000000000000000000000000000000000000000000000000000000000000000000000000000000000000000000000000000000000000000000000000000000000000000000000000000000000000000000000000000000000000000000000000000000000000000000000000000000000000000000000000000000000000000000000000000000000000000000000000000000000000000000000000000000000000000000000000000000000000000000000000083020000018398968082f91e8203e880a035f8eac286ba8ec277b072a78f4f8f21fcbb0801e6cdba4549f45dea5106d5ee886f87139586383efef882f88080018398968094095e7baea6a6c7c4c2dfeb977efac326af552d8780a000000000000000000000000000000000000000000000000000000000000001f41ba0ca6eed05ee408be0dd60eaf1be4ed39e132fca30191b5d29a1d539f62659ee2da07638bed28aa6eec9d1b8a1a8e96f3fdb7117b2b0412f0804b1cb2f3f3c4f4056c0",
                "transactions" : [
                    {
                        "data" : "0x00000000000000000000000000000000000000000000000000000000000001f4",
                        "gasLimit" : "0x989680",
                        "gasPrice" : "0x01",
                        "nonce" : "0x00",
                        "r" : "0xca6eed05ee408be0dd60eaf1be4ed39e132fca30191b5d29a1d539f62659ee2d",
                        "s" : "0x7638bed28aa6eec9d1b8a1a8e96f3fdb7117b2b0412f0804b1cb2f3f3c4f4056",
                        "to" : "0x095e7baea6a6c7c4c2dfeb977efac326af552d87",
                        "v" : "0x1b",
                        "value" : "0x00"
                    }
                ],
                "uncleHeaders" : [
                ]
            }
        ],
        "genesisBlockHeader" : {
            "bloom" : "0x00000000000000000000000000000000000000000000000000000000000000000000000000000000000000000000000000000000000000000000000000000000000000000000000000000000000000000000000000000000000000000000000000000000000000000000000000000000000000000000000000000000000000000000000000000000000000000000000000000000000000000000000000000000000000000000000000000000000000000000000000000000000000000000000000000000000000000000000000000000000000000000000000000000000000000000000000000000000000000000000000000000000000000000000000000000",
            "coinbase" : "0x2adc25665018aa1fe0e6bc666dac8fc2697ff9ba",
            "difficulty" : "0x020000",
            "extraData" : "0x42",
            "gasLimit" : "0x989680",
            "gasUsed" : "0x00",
            "hash" : "0xbdd5b66ebee4e8072f6211c79f81162b597ab68bb81d9b2274e7a3656da3f86b",
            "mixHash" : "0x56e81f171bcc55a6ff8345e692c0f86e5b48e01b996cadc001622fb5e363b421",
            "nonce" : "0x0102030405060708",
            "number" : "0x00",
            "parentHash" : "0x0000000000000000000000000000000000000000000000000000000000000000",
            "receiptTrie" : "0x56e81f171bcc55a6ff8345e692c0f86e5b48e01b996cadc001622fb5e363b421",
            "stateRoot" : "0xb26249ae651a11898d83ff3824ce37f6ad82c7e5fb985cc974fba2d5b77d7fb6",
            "timestamp" : "0x03b6",
            "transactionsTrie" : "0x56e81f171bcc55a6ff8345e692c0f86e5b48e01b996cadc001622fb5e363b421",
            "uncleHash" : "0x1dcc4de8dec75d7aab85b567b6ccd41ad312451b948a7413f0a142fd40d49347"
        },
        "genesisRLP" : "0xf901faf901f5a00000000000000000000000000000000000000000000000000000000000000000a01dcc4de8dec75d7aab85b567b6ccd41ad312451b948a7413f0a142fd40d49347942adc25665018aa1fe0e6bc666dac8fc2697ff9baa0b26249ae651a11898d83ff3824ce37f6ad82c7e5fb985cc974fba2d5b77d7fb6a056e81f171bcc55a6ff8345e692c0f86e5b48e01b996cadc001622fb5e363b421a056e81f171bcc55a6ff8345e692c0f86e5b48e01b996cadc001622fb5e363b421b9010000000000000000000000000000000000000000000000000000000000000000000000000000000000000000000000000000000000000000000000000000000000000000000000000000000000000000000000000000000000000000000000000000000000000000000000000000000000000000000000000000000000000000000000000000000000000000000000000000000000000000000000000000000000000000000000000000000000000000000000000000000000000000000000000000000000000000000000000000000000000000000000000000000000000000000000000000000000000000000000000000000000000000000000000000000000830200008083989680808203b642a056e81f171bcc55a6ff8345e692c0f86e5b48e01b996cadc001622fb5e363b421880102030405060708c0c0",
        "lastblockhash" : "0x363368028ebf35b98e6cafd0070b1ee9b9b3cd37c14985667bd198c7fe8ebc51",
        "network" : "EIP158",
        "postState" : {
            "0x095e7baea6a6c7c4c2dfeb977efac326af552d87" : {
                "balance" : "0x0de0b6b3a7640000",
                "code" : "0x5a6016556001600a556000600060006000600073aaae7baea6a6c7c4c2dfeb977efac326af552aaa600035f1600b55600060015560006002556000600355600060045560006005556000600655600060075560006008555a601755",
                "nonce" : "0x00",
                "storage" : {
                    "0x0a" : "0x01",
                    "0x16" : "0x984376",
                    "0x17" : "0x96f268"
                }
            },
            "0x2adc25665018aa1fe0e6bc666dac8fc2697ff9ba" : {
                "balance" : "0x4563918244f4f91e",
                "code" : "",
                "nonce" : "0x00",
                "storage" : {
                }
            },
            "0xa94f5374fce5edbc8e2a8697c15331677e6ebf0b" : {
                "balance" : "0x979d62",
                "code" : "",
                "nonce" : "0x01",
                "storage" : {
                }
            },
            "0xaaae7baea6a6c7c4c2dfeb977efac326af552aaa" : {
                "balance" : "0x0de0b6b3a7640000",
                "code" : "0x73095e7baea6a6c7c4c2dfeb977efac326af552d87ff",
                "nonce" : "0x00",
                "storage" : {
                }
            }
        },
        "pre" : {
            "0x095e7baea6a6c7c4c2dfeb977efac326af552d87" : {
                "balance" : "0x0de0b6b3a7640000",
                "code" : "0x5a6016556001600a556000600060006000600073aaae7baea6a6c7c4c2dfeb977efac326af552aaa600035f1600b55600060015560006002556000600355600060045560006005556000600655600060075560006008555a601755",
                "nonce" : "0x00",
                "storage" : {
                    "0x01" : "0x01",
                    "0x02" : "0x01",
                    "0x03" : "0x01",
                    "0x04" : "0x01",
                    "0x05" : "0x01",
                    "0x06" : "0x01",
                    "0x07" : "0x01",
                    "0x08" : "0x01"
                }
            },
            "0xa94f5374fce5edbc8e2a8697c15331677e6ebf0b" : {
                "balance" : "0x989680",
                "code" : "",
                "nonce" : "0x00",
                "storage" : {
                }
            },
            "0xaaae7baea6a6c7c4c2dfeb977efac326af552aaa" : {
                "balance" : "0x0de0b6b3a7640000",
                "code" : "0x73095e7baea6a6c7c4c2dfeb977efac326af552d87ff",
                "nonce" : "0x00",
                "storage" : {
                }
            }
        }
    },
    "refundSuicide50procentCap_d0g0v0_Frontier" : {
        "_info" : {
            "comment" : "",
            "filledwith" : "cpp-1.3.0+commit.6e0ce939.Linux.g++",
            "lllcversion" : "Version: 0.4.18-develop.2017.9.25+commit.a72237f2.Linux.g++",
            "source" : "src/BlockchainTestsFiller/GeneralStateTests/stRefundTest/refundSuicide50procentCap_d0g0v0Filler.json",
            "sourceHash" : "457ab6a9a4571737451b7d4425721a8be0ef3a7df9bf284ba966020d474e0609"
        },
        "blocks" : [
            {
                "blockHeader" : {
                    "bloom" : "0x00000000000000000000000000000000000000000000000000000000000000000000000000000000000000000000000000000000000000000000000000000000000000000000000000000000000000000000000000000000000000000000000000000000000000000000000000000000000000000000000000000000000000000000000000000000000000000000000000000000000000000000000000000000000000000000000000000000000000000000000000000000000000000000000000000000000000000000000000000000000000000000000000000000000000000000000000000000000000000000000000000000000000000000000000000000",
                    "coinbase" : "0x2adc25665018aa1fe0e6bc666dac8fc2697ff9ba",
                    "difficulty" : "0x020000",
                    "extraData" : "",
                    "gasLimit" : "0x989680",
                    "gasUsed" : "0x011427",
                    "hash" : "0x39dbe94f0a85c62af73895f95467f65ca517b52a321013e810f862a34abec00b",
                    "mixHash" : "0xf79dc6d4a3d69f12f5a2994bc3a603ff6ba3e92d21430b7e5ea9dbfc27aa3b13",
                    "nonce" : "0x368dd00ea6dc4484",
                    "number" : "0x01",
                    "parentHash" : "0xbdd5b66ebee4e8072f6211c79f81162b597ab68bb81d9b2274e7a3656da3f86b",
                    "receiptTrie" : "0xf8ae7fa8d7b2d9440ee8bae82adef9727d2f9b9ea9eb63974fe52963db65b770",
                    "stateRoot" : "0xb53b6dc50ce7381679719eccbd86d0e1359b83b43ff401ff487cf5b5894e250f",
                    "timestamp" : "0x03e8",
                    "transactionsTrie" : "0x152ce708665da4f8b22d15f1b7f6d376eee2f93874a4d1f6272c5e657dbe1b0b",
                    "uncleHash" : "0x1dcc4de8dec75d7aab85b567b6ccd41ad312451b948a7413f0a142fd40d49347"
                },
                "rlp" : "0xf90280f901f8a0bdd5b66ebee4e8072f6211c79f81162b597ab68bb81d9b2274e7a3656da3f86ba01dcc4de8dec75d7aab85b567b6ccd41ad312451b948a7413f0a142fd40d49347942adc25665018aa1fe0e6bc666dac8fc2697ff9baa0b53b6dc50ce7381679719eccbd86d0e1359b83b43ff401ff487cf5b5894e250fa0152ce708665da4f8b22d15f1b7f6d376eee2f93874a4d1f6272c5e657dbe1b0ba0f8ae7fa8d7b2d9440ee8bae82adef9727d2f9b9ea9eb63974fe52963db65b770b9010000000000000000000000000000000000000000000000000000000000000000000000000000000000000000000000000000000000000000000000000000000000000000000000000000000000000000000000000000000000000000000000000000000000000000000000000000000000000000000000000000000000000000000000000000000000000000000000000000000000000000000000000000000000000000000000000000000000000000000000000000000000000000000000000000000000000000000000000000000000000000000000000000000000000000000000000000000000000000000000000000000000000000000000000000000000830200000183989680830114278203e880a0f79dc6d4a3d69f12f5a2994bc3a603ff6ba3e92d21430b7e5ea9dbfc27aa3b1388368dd00ea6dc4484f882f88080018398968094095e7baea6a6c7c4c2dfeb977efac326af552d8780a000000000000000000000000000000000000000000000000000000000000001f41ba0ca6eed05ee408be0dd60eaf1be4ed39e132fca30191b5d29a1d539f62659ee2da07638bed28aa6eec9d1b8a1a8e96f3fdb7117b2b0412f0804b1cb2f3f3c4f4056c0",
                "transactions" : [
                    {
                        "data" : "0x00000000000000000000000000000000000000000000000000000000000001f4",
                        "gasLimit" : "0x989680",
                        "gasPrice" : "0x01",
                        "nonce" : "0x00",
                        "r" : "0xca6eed05ee408be0dd60eaf1be4ed39e132fca30191b5d29a1d539f62659ee2d",
                        "s" : "0x7638bed28aa6eec9d1b8a1a8e96f3fdb7117b2b0412f0804b1cb2f3f3c4f4056",
                        "to" : "0x095e7baea6a6c7c4c2dfeb977efac326af552d87",
                        "v" : "0x1b",
                        "value" : "0x00"
                    }
                ],
                "uncleHeaders" : [
                ]
            }
        ],
        "genesisBlockHeader" : {
            "bloom" : "0x00000000000000000000000000000000000000000000000000000000000000000000000000000000000000000000000000000000000000000000000000000000000000000000000000000000000000000000000000000000000000000000000000000000000000000000000000000000000000000000000000000000000000000000000000000000000000000000000000000000000000000000000000000000000000000000000000000000000000000000000000000000000000000000000000000000000000000000000000000000000000000000000000000000000000000000000000000000000000000000000000000000000000000000000000000000",
            "coinbase" : "0x2adc25665018aa1fe0e6bc666dac8fc2697ff9ba",
            "difficulty" : "0x020000",
            "extraData" : "0x42",
            "gasLimit" : "0x989680",
            "gasUsed" : "0x00",
            "hash" : "0xbdd5b66ebee4e8072f6211c79f81162b597ab68bb81d9b2274e7a3656da3f86b",
            "mixHash" : "0x56e81f171bcc55a6ff8345e692c0f86e5b48e01b996cadc001622fb5e363b421",
            "nonce" : "0x0102030405060708",
            "number" : "0x00",
            "parentHash" : "0x0000000000000000000000000000000000000000000000000000000000000000",
            "receiptTrie" : "0x56e81f171bcc55a6ff8345e692c0f86e5b48e01b996cadc001622fb5e363b421",
            "stateRoot" : "0xb26249ae651a11898d83ff3824ce37f6ad82c7e5fb985cc974fba2d5b77d7fb6",
            "timestamp" : "0x03b6",
            "transactionsTrie" : "0x56e81f171bcc55a6ff8345e692c0f86e5b48e01b996cadc001622fb5e363b421",
            "uncleHash" : "0x1dcc4de8dec75d7aab85b567b6ccd41ad312451b948a7413f0a142fd40d49347"
        },
        "genesisRLP" : "0xf901faf901f5a00000000000000000000000000000000000000000000000000000000000000000a01dcc4de8dec75d7aab85b567b6ccd41ad312451b948a7413f0a142fd40d49347942adc25665018aa1fe0e6bc666dac8fc2697ff9baa0b26249ae651a11898d83ff3824ce37f6ad82c7e5fb985cc974fba2d5b77d7fb6a056e81f171bcc55a6ff8345e692c0f86e5b48e01b996cadc001622fb5e363b421a056e81f171bcc55a6ff8345e692c0f86e5b48e01b996cadc001622fb5e363b421b9010000000000000000000000000000000000000000000000000000000000000000000000000000000000000000000000000000000000000000000000000000000000000000000000000000000000000000000000000000000000000000000000000000000000000000000000000000000000000000000000000000000000000000000000000000000000000000000000000000000000000000000000000000000000000000000000000000000000000000000000000000000000000000000000000000000000000000000000000000000000000000000000000000000000000000000000000000000000000000000000000000000000000000000000000000000000830200008083989680808203b642a056e81f171bcc55a6ff8345e692c0f86e5b48e01b996cadc001622fb5e363b421880102030405060708c0c0",
        "lastblockhash" : "0x39dbe94f0a85c62af73895f95467f65ca517b52a321013e810f862a34abec00b",
        "network" : "Frontier",
        "postState" : {
            "0x095e7baea6a6c7c4c2dfeb977efac326af552d87" : {
                "balance" : "0x1bc16d674ec80000",
                "code" : "0x5a6016556001600a556000600060006000600073aaae7baea6a6c7c4c2dfeb977efac326af552aaa600035f1600b55600060015560006002556000600355600060045560006005556000600655600060075560006008555a601755",
                "nonce" : "0x00",
                "storage" : {
                    "0x0a" : "0x01",
                    "0x0b" : "0x01",
                    "0x16" : "0x984376",
                    "0x17" : "0x96bc55"
                }
            },
            "0x2adc25665018aa1fe0e6bc666dac8fc2697ff9ba" : {
                "balance" : "0x4563918244f51427",
                "code" : "",
                "nonce" : "0x00",
                "storage" : {
                }
            },
            "0xa94f5374fce5edbc8e2a8697c15331677e6ebf0b" : {
                "balance" : "0x978259",
                "code" : "",
                "nonce" : "0x01",
                "storage" : {
                }
            }
        },
        "pre" : {
            "0x095e7baea6a6c7c4c2dfeb977efac326af552d87" : {
                "balance" : "0x0de0b6b3a7640000",
                "code" : "0x5a6016556001600a556000600060006000600073aaae7baea6a6c7c4c2dfeb977efac326af552aaa600035f1600b55600060015560006002556000600355600060045560006005556000600655600060075560006008555a601755",
                "nonce" : "0x00",
                "storage" : {
                    "0x01" : "0x01",
                    "0x02" : "0x01",
                    "0x03" : "0x01",
                    "0x04" : "0x01",
                    "0x05" : "0x01",
                    "0x06" : "0x01",
                    "0x07" : "0x01",
                    "0x08" : "0x01"
                }
            },
            "0xa94f5374fce5edbc8e2a8697c15331677e6ebf0b" : {
                "balance" : "0x989680",
                "code" : "",
                "nonce" : "0x00",
                "storage" : {
                }
            },
            "0xaaae7baea6a6c7c4c2dfeb977efac326af552aaa" : {
                "balance" : "0x0de0b6b3a7640000",
                "code" : "0x73095e7baea6a6c7c4c2dfeb977efac326af552d87ff",
                "nonce" : "0x00",
                "storage" : {
                }
            }
        }
    },
    "refundSuicide50procentCap_d0g0v0_Homestead" : {
        "_info" : {
            "comment" : "",
            "filledwith" : "cpp-1.3.0+commit.6e0ce939.Linux.g++",
            "lllcversion" : "Version: 0.4.18-develop.2017.9.25+commit.a72237f2.Linux.g++",
            "source" : "src/BlockchainTestsFiller/GeneralStateTests/stRefundTest/refundSuicide50procentCap_d0g0v0Filler.json",
            "sourceHash" : "457ab6a9a4571737451b7d4425721a8be0ef3a7df9bf284ba966020d474e0609"
        },
        "blocks" : [
            {
                "blockHeader" : {
                    "bloom" : "0x00000000000000000000000000000000000000000000000000000000000000000000000000000000000000000000000000000000000000000000000000000000000000000000000000000000000000000000000000000000000000000000000000000000000000000000000000000000000000000000000000000000000000000000000000000000000000000000000000000000000000000000000000000000000000000000000000000000000000000000000000000000000000000000000000000000000000000000000000000000000000000000000000000000000000000000000000000000000000000000000000000000000000000000000000000000",
                    "coinbase" : "0x2adc25665018aa1fe0e6bc666dac8fc2697ff9ba",
                    "difficulty" : "0x020000",
                    "extraData" : "",
                    "gasLimit" : "0x989680",
                    "gasUsed" : "0x011427",
                    "hash" : "0x799cda3b7fcda8ac92387db9d77cdb30d9447969c8836311e79ae4884359eca3",
                    "mixHash" : "0x766177f09e90cddc8b747ff7acf5e341e629ea1d7c041b626c3829fd920bd0df",
                    "nonce" : "0xd9abdd203b970b94",
                    "number" : "0x01",
                    "parentHash" : "0xbdd5b66ebee4e8072f6211c79f81162b597ab68bb81d9b2274e7a3656da3f86b",
                    "receiptTrie" : "0xf8ae7fa8d7b2d9440ee8bae82adef9727d2f9b9ea9eb63974fe52963db65b770",
                    "stateRoot" : "0xb53b6dc50ce7381679719eccbd86d0e1359b83b43ff401ff487cf5b5894e250f",
                    "timestamp" : "0x03e8",
                    "transactionsTrie" : "0x152ce708665da4f8b22d15f1b7f6d376eee2f93874a4d1f6272c5e657dbe1b0b",
                    "uncleHash" : "0x1dcc4de8dec75d7aab85b567b6ccd41ad312451b948a7413f0a142fd40d49347"
                },
                "rlp" : "0xf90280f901f8a0bdd5b66ebee4e8072f6211c79f81162b597ab68bb81d9b2274e7a3656da3f86ba01dcc4de8dec75d7aab85b567b6ccd41ad312451b948a7413f0a142fd40d49347942adc25665018aa1fe0e6bc666dac8fc2697ff9baa0b53b6dc50ce7381679719eccbd86d0e1359b83b43ff401ff487cf5b5894e250fa0152ce708665da4f8b22d15f1b7f6d376eee2f93874a4d1f6272c5e657dbe1b0ba0f8ae7fa8d7b2d9440ee8bae82adef9727d2f9b9ea9eb63974fe52963db65b770b9010000000000000000000000000000000000000000000000000000000000000000000000000000000000000000000000000000000000000000000000000000000000000000000000000000000000000000000000000000000000000000000000000000000000000000000000000000000000000000000000000000000000000000000000000000000000000000000000000000000000000000000000000000000000000000000000000000000000000000000000000000000000000000000000000000000000000000000000000000000000000000000000000000000000000000000000000000000000000000000000000000000000000000000000000000000000830200000183989680830114278203e880a0766177f09e90cddc8b747ff7acf5e341e629ea1d7c041b626c3829fd920bd0df88d9abdd203b970b94f882f88080018398968094095e7baea6a6c7c4c2dfeb977efac326af552d8780a000000000000000000000000000000000000000000000000000000000000001f41ba0ca6eed05ee408be0dd60eaf1be4ed39e132fca30191b5d29a1d539f62659ee2da07638bed28aa6eec9d1b8a1a8e96f3fdb7117b2b0412f0804b1cb2f3f3c4f4056c0",
                "transactions" : [
                    {
                        "data" : "0x00000000000000000000000000000000000000000000000000000000000001f4",
                        "gasLimit" : "0x989680",
                        "gasPrice" : "0x01",
                        "nonce" : "0x00",
                        "r" : "0xca6eed05ee408be0dd60eaf1be4ed39e132fca30191b5d29a1d539f62659ee2d",
                        "s" : "0x7638bed28aa6eec9d1b8a1a8e96f3fdb7117b2b0412f0804b1cb2f3f3c4f4056",
                        "to" : "0x095e7baea6a6c7c4c2dfeb977efac326af552d87",
                        "v" : "0x1b",
                        "value" : "0x00"
                    }
                ],
                "uncleHeaders" : [
                ]
            }
        ],
        "genesisBlockHeader" : {
            "bloom" : "0x00000000000000000000000000000000000000000000000000000000000000000000000000000000000000000000000000000000000000000000000000000000000000000000000000000000000000000000000000000000000000000000000000000000000000000000000000000000000000000000000000000000000000000000000000000000000000000000000000000000000000000000000000000000000000000000000000000000000000000000000000000000000000000000000000000000000000000000000000000000000000000000000000000000000000000000000000000000000000000000000000000000000000000000000000000000",
            "coinbase" : "0x2adc25665018aa1fe0e6bc666dac8fc2697ff9ba",
            "difficulty" : "0x020000",
            "extraData" : "0x42",
            "gasLimit" : "0x989680",
            "gasUsed" : "0x00",
            "hash" : "0xbdd5b66ebee4e8072f6211c79f81162b597ab68bb81d9b2274e7a3656da3f86b",
            "mixHash" : "0x56e81f171bcc55a6ff8345e692c0f86e5b48e01b996cadc001622fb5e363b421",
            "nonce" : "0x0102030405060708",
            "number" : "0x00",
            "parentHash" : "0x0000000000000000000000000000000000000000000000000000000000000000",
            "receiptTrie" : "0x56e81f171bcc55a6ff8345e692c0f86e5b48e01b996cadc001622fb5e363b421",
            "stateRoot" : "0xb26249ae651a11898d83ff3824ce37f6ad82c7e5fb985cc974fba2d5b77d7fb6",
            "timestamp" : "0x03b6",
            "transactionsTrie" : "0x56e81f171bcc55a6ff8345e692c0f86e5b48e01b996cadc001622fb5e363b421",
            "uncleHash" : "0x1dcc4de8dec75d7aab85b567b6ccd41ad312451b948a7413f0a142fd40d49347"
        },
        "genesisRLP" : "0xf901faf901f5a00000000000000000000000000000000000000000000000000000000000000000a01dcc4de8dec75d7aab85b567b6ccd41ad312451b948a7413f0a142fd40d49347942adc25665018aa1fe0e6bc666dac8fc2697ff9baa0b26249ae651a11898d83ff3824ce37f6ad82c7e5fb985cc974fba2d5b77d7fb6a056e81f171bcc55a6ff8345e692c0f86e5b48e01b996cadc001622fb5e363b421a056e81f171bcc55a6ff8345e692c0f86e5b48e01b996cadc001622fb5e363b421b9010000000000000000000000000000000000000000000000000000000000000000000000000000000000000000000000000000000000000000000000000000000000000000000000000000000000000000000000000000000000000000000000000000000000000000000000000000000000000000000000000000000000000000000000000000000000000000000000000000000000000000000000000000000000000000000000000000000000000000000000000000000000000000000000000000000000000000000000000000000000000000000000000000000000000000000000000000000000000000000000000000000000000000000000000000000000830200008083989680808203b642a056e81f171bcc55a6ff8345e692c0f86e5b48e01b996cadc001622fb5e363b421880102030405060708c0c0",
        "lastblockhash" : "0x799cda3b7fcda8ac92387db9d77cdb30d9447969c8836311e79ae4884359eca3",
        "network" : "Homestead",
        "postState" : {
            "0x095e7baea6a6c7c4c2dfeb977efac326af552d87" : {
                "balance" : "0x1bc16d674ec80000",
                "code" : "0x5a6016556001600a556000600060006000600073aaae7baea6a6c7c4c2dfeb977efac326af552aaa600035f1600b55600060015560006002556000600355600060045560006005556000600655600060075560006008555a601755",
                "nonce" : "0x00",
                "storage" : {
                    "0x0a" : "0x01",
                    "0x0b" : "0x01",
                    "0x16" : "0x984376",
                    "0x17" : "0x96bc55"
                }
            },
            "0x2adc25665018aa1fe0e6bc666dac8fc2697ff9ba" : {
                "balance" : "0x4563918244f51427",
                "code" : "",
                "nonce" : "0x00",
                "storage" : {
                }
            },
            "0xa94f5374fce5edbc8e2a8697c15331677e6ebf0b" : {
                "balance" : "0x978259",
                "code" : "",
                "nonce" : "0x01",
                "storage" : {
                }
            }
        },
        "pre" : {
            "0x095e7baea6a6c7c4c2dfeb977efac326af552d87" : {
                "balance" : "0x0de0b6b3a7640000",
                "code" : "0x5a6016556001600a556000600060006000600073aaae7baea6a6c7c4c2dfeb977efac326af552aaa600035f1600b55600060015560006002556000600355600060045560006005556000600655600060075560006008555a601755",
                "nonce" : "0x00",
                "storage" : {
                    "0x01" : "0x01",
                    "0x02" : "0x01",
                    "0x03" : "0x01",
                    "0x04" : "0x01",
                    "0x05" : "0x01",
                    "0x06" : "0x01",
                    "0x07" : "0x01",
                    "0x08" : "0x01"
                }
            },
            "0xa94f5374fce5edbc8e2a8697c15331677e6ebf0b" : {
                "balance" : "0x989680",
                "code" : "",
                "nonce" : "0x00",
                "storage" : {
                }
            },
            "0xaaae7baea6a6c7c4c2dfeb977efac326af552aaa" : {
                "balance" : "0x0de0b6b3a7640000",
                "code" : "0x73095e7baea6a6c7c4c2dfeb977efac326af552d87ff",
                "nonce" : "0x00",
                "storage" : {
                }
            }
        }
    }
}