{
    "refund_OOG_d0g0v0_Byzantium" : {
        "_info" : {
            "comment" : "",
            "filledwith" : "cpp-1.3.0+commit.6e0ce939.Linux.g++",
            "lllcversion" : "Version: 0.4.18-develop.2017.9.25+commit.a72237f2.Linux.g++",
            "source" : "src/BlockchainTestsFiller/GeneralStateTests/stRefundTest/refund_OOG_d0g0v0Filler.json",
            "sourceHash" : "c8e07503e8a8cc4c9ccd1fe07b3244b04ce61865993fc6c882303eda877894e3"
        },
        "blocks" : [
            {
                "blockHeader" : {
                    "bloom" : "0x00000000000000000000000000000000000000000000000000000000000000000000000000000000000000000000000000000000000000000000000000000000000000000000000000000000000000000000000000000000000000000000000000000000000000000000000000000000000000000000000000000000000000000000000000000000000000000000000000000000000000000000000000000000000000000000000000000000000000000000000000000000000000000000000000000000000000000000000000000000000000000000000000000000000000000000000000000000000000000000000000000000000000000000000000000000",
                    "coinbase" : "0x2adc25665018aa1fe0e6bc666dac8fc2697ff9ba",
                    "difficulty" : "0x020000",
                    "extraData" : "",
                    "gasLimit" : "0x0f4240",
                    "gasUsed" : "0x6595",
                    "hash" : "0x91e202d45f8028914f5b7734d63f1b699eb7fe3600ff2cab4f5b123fe175943b",
                    "mixHash" : "0xf30e62d4a019ef71780fb68da110756e194deacb1724193753f9b305619c83d3",
                    "nonce" : "0x3bce51702d7c63f2",
                    "number" : "0x01",
                    "parentHash" : "0x9760fdae6dbbf00b41c834a76de2f63a12c6d5d26df707ffed7119f79e14fd1b",
                    "receiptTrie" : "0x2ccae62a76d2f9dafaaeabd1d1be41f894b18afa5b5ec55d302acc1688a2aaaa",
                    "stateRoot" : "0xa4a30949b20cd617a271e82a49279aa0598c45d4f926a809d079180947b1d531",
                    "timestamp" : "0x03e8",
                    "transactionsTrie" : "0xe6b56fcfd91b26595e7f5f808680b9134b5d4500e9876d845b3a5dcbd0fb089d",
                    "uncleHash" : "0x1dcc4de8dec75d7aab85b567b6ccd41ad312451b948a7413f0a142fd40d49347"
                },
                "rlp" : "0xf9025ef901f7a09760fdae6dbbf00b41c834a76de2f63a12c6d5d26df707ffed7119f79e14fd1ba01dcc4de8dec75d7aab85b567b6ccd41ad312451b948a7413f0a142fd40d49347942adc25665018aa1fe0e6bc666dac8fc2697ff9baa0a4a30949b20cd617a271e82a49279aa0598c45d4f926a809d079180947b1d531a0e6b56fcfd91b26595e7f5f808680b9134b5d4500e9876d845b3a5dcbd0fb089da02ccae62a76d2f9dafaaeabd1d1be41f894b18afa5b5ec55d302acc1688a2aaaab90100000000000000000000000000000000000000000000000000000000000000000000000000000000000000000000000000000000000000000000000000000000000000000000000000000000000000000000000000000000000000000000000000000000000000000000000000000000000000000000000000000000000000000000000000000000000000000000000000000000000000000000000000000000000000000000000000000000000000000000000000000000000000000000000000000000000000000000000000000000000000000000000000000000000000000000000000000000000000000000000000000000000000000000000000000000008302000001830f42408265958203e880a0f30e62d4a019ef71780fb68da110756e194deacb1724193753f9b305619c83d3883bce51702d7c63f2f861f85f800182659594095e7baea6a6c7c4c2dfeb977efac326af552d870a801ba09d7b7423aa187cf696e6b7ebea70f0bc3e3373a7b9494f662fe6050dd6bba82da016dc9e01d65fcba0460d3ad3ee26b2aca2ae6958fb747b0a68f447476e3a1dd5c0",
                "transactions" : [
                    {
                        "data" : "",
                        "gasLimit" : "0x6595",
                        "gasPrice" : "0x01",
                        "nonce" : "0x00",
                        "r" : "0x9d7b7423aa187cf696e6b7ebea70f0bc3e3373a7b9494f662fe6050dd6bba82d",
                        "s" : "0x16dc9e01d65fcba0460d3ad3ee26b2aca2ae6958fb747b0a68f447476e3a1dd5",
                        "to" : "0x095e7baea6a6c7c4c2dfeb977efac326af552d87",
                        "v" : "0x1b",
                        "value" : "0x0a"
                    }
                ],
                "uncleHeaders" : [
                ]
            }
        ],
        "genesisBlockHeader" : {
            "bloom" : "0x00000000000000000000000000000000000000000000000000000000000000000000000000000000000000000000000000000000000000000000000000000000000000000000000000000000000000000000000000000000000000000000000000000000000000000000000000000000000000000000000000000000000000000000000000000000000000000000000000000000000000000000000000000000000000000000000000000000000000000000000000000000000000000000000000000000000000000000000000000000000000000000000000000000000000000000000000000000000000000000000000000000000000000000000000000000",
            "coinbase" : "0x2adc25665018aa1fe0e6bc666dac8fc2697ff9ba",
            "difficulty" : "0x020000",
            "extraData" : "0x42",
            "gasLimit" : "0x0f4240",
            "gasUsed" : "0x00",
            "hash" : "0x9760fdae6dbbf00b41c834a76de2f63a12c6d5d26df707ffed7119f79e14fd1b",
            "mixHash" : "0x56e81f171bcc55a6ff8345e692c0f86e5b48e01b996cadc001622fb5e363b421",
            "nonce" : "0x0102030405060708",
            "number" : "0x00",
            "parentHash" : "0x0000000000000000000000000000000000000000000000000000000000000000",
            "receiptTrie" : "0x56e81f171bcc55a6ff8345e692c0f86e5b48e01b996cadc001622fb5e363b421",
            "stateRoot" : "0xffe1435521fde24b7bdf5b873bbfdaf2db33a9df4f39e3a0021fdebdab0c1612",
            "timestamp" : "0x03b6",
            "transactionsTrie" : "0x56e81f171bcc55a6ff8345e692c0f86e5b48e01b996cadc001622fb5e363b421",
            "uncleHash" : "0x1dcc4de8dec75d7aab85b567b6ccd41ad312451b948a7413f0a142fd40d49347"
        },
        "genesisRLP" : "0xf901faf901f5a00000000000000000000000000000000000000000000000000000000000000000a01dcc4de8dec75d7aab85b567b6ccd41ad312451b948a7413f0a142fd40d49347942adc25665018aa1fe0e6bc666dac8fc2697ff9baa0ffe1435521fde24b7bdf5b873bbfdaf2db33a9df4f39e3a0021fdebdab0c1612a056e81f171bcc55a6ff8345e692c0f86e5b48e01b996cadc001622fb5e363b421a056e81f171bcc55a6ff8345e692c0f86e5b48e01b996cadc001622fb5e363b421b90100000000000000000000000000000000000000000000000000000000000000000000000000000000000000000000000000000000000000000000000000000000000000000000000000000000000000000000000000000000000000000000000000000000000000000000000000000000000000000000000000000000000000000000000000000000000000000000000000000000000000000000000000000000000000000000000000000000000000000000000000000000000000000000000000000000000000000000000000000000000000000000000000000000000000000000000000000000000000000000000000000000000000000000000000000000008302000080830f4240808203b642a056e81f171bcc55a6ff8345e692c0f86e5b48e01b996cadc001622fb5e363b421880102030405060708c0c0",
        "lastblockhash" : "0x91e202d45f8028914f5b7734d63f1b699eb7fe3600ff2cab4f5b123fe175943b",
        "network" : "Byzantium",
        "postState" : {
            "0x095e7baea6a6c7c4c2dfeb977efac326af552d87" : {
                "balance" : "0x0de0b6b3a7640000",
                "code" : "0x6000600155",
                "nonce" : "0x00",
                "storage" : {
                    "0x01" : "0x01"
                }
            },
            "0x2adc25665018aa1fe0e6bc666dac8fc2697ff9ba" : {
                "balance" : "0x29a2241af62c6595",
                "code" : "",
                "nonce" : "0x00",
                "storage" : {
                }
            },
            "0xa94f5374fce5edbc8e2a8697c15331677e6ebf0b" : {
                "balance" : "0x073b8b",
                "code" : "",
                "nonce" : "0x01",
                "storage" : {
                }
            }
        },
        "pre" : {
            "0x095e7baea6a6c7c4c2dfeb977efac326af552d87" : {
                "balance" : "0x0de0b6b3a7640000",
                "code" : "0x6000600155",
                "nonce" : "0x00",
                "storage" : {
                    "0x01" : "0x01"
                }
            },
            "0xa94f5374fce5edbc8e2a8697c15331677e6ebf0b" : {
                "balance" : "0x07a120",
                "code" : "",
                "nonce" : "0x00",
                "storage" : {
                }
            }
        }
    },
    "refund_OOG_d0g0v0_EIP150" : {
        "_info" : {
            "comment" : "",
            "filledwith" : "cpp-1.3.0+commit.6e0ce939.Linux.g++",
            "lllcversion" : "Version: 0.4.18-develop.2017.9.25+commit.a72237f2.Linux.g++",
            "source" : "src/BlockchainTestsFiller/GeneralStateTests/stRefundTest/refund_OOG_d0g0v0Filler.json",
            "sourceHash" : "c8e07503e8a8cc4c9ccd1fe07b3244b04ce61865993fc6c882303eda877894e3"
        },
        "blocks" : [
            {
                "blockHeader" : {
                    "bloom" : "0x00000000000000000000000000000000000000000000000000000000000000000000000000000000000000000000000000000000000000000000000000000000000000000000000000000000000000000000000000000000000000000000000000000000000000000000000000000000000000000000000000000000000000000000000000000000000000000000000000000000000000000000000000000000000000000000000000000000000000000000000000000000000000000000000000000000000000000000000000000000000000000000000000000000000000000000000000000000000000000000000000000000000000000000000000000000",
                    "coinbase" : "0x2adc25665018aa1fe0e6bc666dac8fc2697ff9ba",
                    "difficulty" : "0x020000",
                    "extraData" : "",
                    "gasLimit" : "0x0f4240",
                    "gasUsed" : "0x6595",
                    "hash" : "0xe851aedb53e85234e868eedea8633c6a31a687cdf99869aaae6635881238622d",
                    "mixHash" : "0x53f2e6bd0ef242815e2ed5b4bb6aa55b47164c5a13b512cb3b313c39f1cb2d16",
                    "nonce" : "0xa001ee98b0eed96a",
                    "number" : "0x01",
                    "parentHash" : "0x9760fdae6dbbf00b41c834a76de2f63a12c6d5d26df707ffed7119f79e14fd1b",
                    "receiptTrie" : "0xc4c10fc35a174b35e68750553db3e1a1f8283f97608a9da88b7a4bf43b7352c1",
                    "stateRoot" : "0x88312360ef0b77fe3586e4006873e4fa6ebfc9d77b215a0c3b2cde5995144de2",
                    "timestamp" : "0x03e8",
                    "transactionsTrie" : "0xe6b56fcfd91b26595e7f5f808680b9134b5d4500e9876d845b3a5dcbd0fb089d",
                    "uncleHash" : "0x1dcc4de8dec75d7aab85b567b6ccd41ad312451b948a7413f0a142fd40d49347"
                },
                "rlp" : "0xf9025ef901f7a09760fdae6dbbf00b41c834a76de2f63a12c6d5d26df707ffed7119f79e14fd1ba01dcc4de8dec75d7aab85b567b6ccd41ad312451b948a7413f0a142fd40d49347942adc25665018aa1fe0e6bc666dac8fc2697ff9baa088312360ef0b77fe3586e4006873e4fa6ebfc9d77b215a0c3b2cde5995144de2a0e6b56fcfd91b26595e7f5f808680b9134b5d4500e9876d845b3a5dcbd0fb089da0c4c10fc35a174b35e68750553db3e1a1f8283f97608a9da88b7a4bf43b7352c1b90100000000000000000000000000000000000000000000000000000000000000000000000000000000000000000000000000000000000000000000000000000000000000000000000000000000000000000000000000000000000000000000000000000000000000000000000000000000000000000000000000000000000000000000000000000000000000000000000000000000000000000000000000000000000000000000000000000000000000000000000000000000000000000000000000000000000000000000000000000000000000000000000000000000000000000000000000000000000000000000000000000000000000000000000000000000008302000001830f42408265958203e880a053f2e6bd0ef242815e2ed5b4bb6aa55b47164c5a13b512cb3b313c39f1cb2d1688a001ee98b0eed96af861f85f800182659594095e7baea6a6c7c4c2dfeb977efac326af552d870a801ba09d7b7423aa187cf696e6b7ebea70f0bc3e3373a7b9494f662fe6050dd6bba82da016dc9e01d65fcba0460d3ad3ee26b2aca2ae6958fb747b0a68f447476e3a1dd5c0",
                "transactions" : [
                    {
                        "data" : "",
                        "gasLimit" : "0x6595",
                        "gasPrice" : "0x01",
                        "nonce" : "0x00",
                        "r" : "0x9d7b7423aa187cf696e6b7ebea70f0bc3e3373a7b9494f662fe6050dd6bba82d",
                        "s" : "0x16dc9e01d65fcba0460d3ad3ee26b2aca2ae6958fb747b0a68f447476e3a1dd5",
                        "to" : "0x095e7baea6a6c7c4c2dfeb977efac326af552d87",
                        "v" : "0x1b",
                        "value" : "0x0a"
                    }
                ],
                "uncleHeaders" : [
                ]
            }
        ],
        "genesisBlockHeader" : {
            "bloom" : "0x00000000000000000000000000000000000000000000000000000000000000000000000000000000000000000000000000000000000000000000000000000000000000000000000000000000000000000000000000000000000000000000000000000000000000000000000000000000000000000000000000000000000000000000000000000000000000000000000000000000000000000000000000000000000000000000000000000000000000000000000000000000000000000000000000000000000000000000000000000000000000000000000000000000000000000000000000000000000000000000000000000000000000000000000000000000",
            "coinbase" : "0x2adc25665018aa1fe0e6bc666dac8fc2697ff9ba",
            "difficulty" : "0x020000",
            "extraData" : "0x42",
            "gasLimit" : "0x0f4240",
            "gasUsed" : "0x00",
            "hash" : "0x9760fdae6dbbf00b41c834a76de2f63a12c6d5d26df707ffed7119f79e14fd1b",
            "mixHash" : "0x56e81f171bcc55a6ff8345e692c0f86e5b48e01b996cadc001622fb5e363b421",
            "nonce" : "0x0102030405060708",
            "number" : "0x00",
            "parentHash" : "0x0000000000000000000000000000000000000000000000000000000000000000",
            "receiptTrie" : "0x56e81f171bcc55a6ff8345e692c0f86e5b48e01b996cadc001622fb5e363b421",
            "stateRoot" : "0xffe1435521fde24b7bdf5b873bbfdaf2db33a9df4f39e3a0021fdebdab0c1612",
            "timestamp" : "0x03b6",
            "transactionsTrie" : "0x56e81f171bcc55a6ff8345e692c0f86e5b48e01b996cadc001622fb5e363b421",
            "uncleHash" : "0x1dcc4de8dec75d7aab85b567b6ccd41ad312451b948a7413f0a142fd40d49347"
        },
        "genesisRLP" : "0xf901faf901f5a00000000000000000000000000000000000000000000000000000000000000000a01dcc4de8dec75d7aab85b567b6ccd41ad312451b948a7413f0a142fd40d49347942adc25665018aa1fe0e6bc666dac8fc2697ff9baa0ffe1435521fde24b7bdf5b873bbfdaf2db33a9df4f39e3a0021fdebdab0c1612a056e81f171bcc55a6ff8345e692c0f86e5b48e01b996cadc001622fb5e363b421a056e81f171bcc55a6ff8345e692c0f86e5b48e01b996cadc001622fb5e363b421b90100000000000000000000000000000000000000000000000000000000000000000000000000000000000000000000000000000000000000000000000000000000000000000000000000000000000000000000000000000000000000000000000000000000000000000000000000000000000000000000000000000000000000000000000000000000000000000000000000000000000000000000000000000000000000000000000000000000000000000000000000000000000000000000000000000000000000000000000000000000000000000000000000000000000000000000000000000000000000000000000000000000000000000000000000000000008302000080830f4240808203b642a056e81f171bcc55a6ff8345e692c0f86e5b48e01b996cadc001622fb5e363b421880102030405060708c0c0",
        "lastblockhash" : "0xe851aedb53e85234e868eedea8633c6a31a687cdf99869aaae6635881238622d",
        "network" : "EIP150",
        "postState" : {
            "0x095e7baea6a6c7c4c2dfeb977efac326af552d87" : {
                "balance" : "0x0de0b6b3a7640000",
                "code" : "0x6000600155",
                "nonce" : "0x00",
                "storage" : {
                    "0x01" : "0x01"
                }
            },
            "0x2adc25665018aa1fe0e6bc666dac8fc2697ff9ba" : {
                "balance" : "0x4563918244f46595",
                "code" : "",
                "nonce" : "0x00",
                "storage" : {
                }
            },
            "0xa94f5374fce5edbc8e2a8697c15331677e6ebf0b" : {
                "balance" : "0x073b8b",
                "code" : "",
                "nonce" : "0x01",
                "storage" : {
                }
            }
        },
        "pre" : {
            "0x095e7baea6a6c7c4c2dfeb977efac326af552d87" : {
                "balance" : "0x0de0b6b3a7640000",
                "code" : "0x6000600155",
                "nonce" : "0x00",
                "storage" : {
                    "0x01" : "0x01"
                }
            },
            "0xa94f5374fce5edbc8e2a8697c15331677e6ebf0b" : {
                "balance" : "0x07a120",
                "code" : "",
                "nonce" : "0x00",
                "storage" : {
                }
            }
        }
    },
    "refund_OOG_d0g0v0_EIP158" : {
        "_info" : {
            "comment" : "",
            "filledwith" : "cpp-1.3.0+commit.6e0ce939.Linux.g++",
            "lllcversion" : "Version: 0.4.18-develop.2017.9.25+commit.a72237f2.Linux.g++",
            "source" : "src/BlockchainTestsFiller/GeneralStateTests/stRefundTest/refund_OOG_d0g0v0Filler.json",
            "sourceHash" : "c8e07503e8a8cc4c9ccd1fe07b3244b04ce61865993fc6c882303eda877894e3"
        },
        "blocks" : [
            {
                "blockHeader" : {
                    "bloom" : "0x00000000000000000000000000000000000000000000000000000000000000000000000000000000000000000000000000000000000000000000000000000000000000000000000000000000000000000000000000000000000000000000000000000000000000000000000000000000000000000000000000000000000000000000000000000000000000000000000000000000000000000000000000000000000000000000000000000000000000000000000000000000000000000000000000000000000000000000000000000000000000000000000000000000000000000000000000000000000000000000000000000000000000000000000000000000",
                    "coinbase" : "0x2adc25665018aa1fe0e6bc666dac8fc2697ff9ba",
                    "difficulty" : "0x020000",
                    "extraData" : "",
                    "gasLimit" : "0x0f4240",
                    "gasUsed" : "0x6595",
                    "hash" : "0x52075119a0ab7e59040076b68c0e46f7a7bc3ba80d3451e28c51b19014f82655",
                    "mixHash" : "0xc56ef3b1d59e9dbc218090330525408726a789a47b89f8672a889a74e052d5ab",
                    "nonce" : "0xdae9bf48f5e91bc6",
                    "number" : "0x01",
                    "parentHash" : "0x9760fdae6dbbf00b41c834a76de2f63a12c6d5d26df707ffed7119f79e14fd1b",
                    "receiptTrie" : "0xc4c10fc35a174b35e68750553db3e1a1f8283f97608a9da88b7a4bf43b7352c1",
                    "stateRoot" : "0x88312360ef0b77fe3586e4006873e4fa6ebfc9d77b215a0c3b2cde5995144de2",
                    "timestamp" : "0x03e8",
                    "transactionsTrie" : "0xe6b56fcfd91b26595e7f5f808680b9134b5d4500e9876d845b3a5dcbd0fb089d",
                    "uncleHash" : "0x1dcc4de8dec75d7aab85b567b6ccd41ad312451b948a7413f0a142fd40d49347"
                },
                "rlp" : "0xf9025ef901f7a09760fdae6dbbf00b41c834a76de2f63a12c6d5d26df707ffed7119f79e14fd1ba01dcc4de8dec75d7aab85b567b6ccd41ad312451b948a7413f0a142fd40d49347942adc25665018aa1fe0e6bc666dac8fc2697ff9baa088312360ef0b77fe3586e4006873e4fa6ebfc9d77b215a0c3b2cde5995144de2a0e6b56fcfd91b26595e7f5f808680b9134b5d4500e9876d845b3a5dcbd0fb089da0c4c10fc35a174b35e68750553db3e1a1f8283f97608a9da88b7a4bf43b7352c1b90100000000000000000000000000000000000000000000000000000000000000000000000000000000000000000000000000000000000000000000000000000000000000000000000000000000000000000000000000000000000000000000000000000000000000000000000000000000000000000000000000000000000000000000000000000000000000000000000000000000000000000000000000000000000000000000000000000000000000000000000000000000000000000000000000000000000000000000000000000000000000000000000000000000000000000000000000000000000000000000000000000000000000000000000000000000008302000001830f42408265958203e880a0c56ef3b1d59e9dbc218090330525408726a789a47b89f8672a889a74e052d5ab88dae9bf48f5e91bc6f861f85f800182659594095e7baea6a6c7c4c2dfeb977efac326af552d870a801ba09d7b7423aa187cf696e6b7ebea70f0bc3e3373a7b9494f662fe6050dd6bba82da016dc9e01d65fcba0460d3ad3ee26b2aca2ae6958fb747b0a68f447476e3a1dd5c0",
                "transactions" : [
                    {
                        "data" : "",
                        "gasLimit" : "0x6595",
                        "gasPrice" : "0x01",
                        "nonce" : "0x00",
                        "r" : "0x9d7b7423aa187cf696e6b7ebea70f0bc3e3373a7b9494f662fe6050dd6bba82d",
                        "s" : "0x16dc9e01d65fcba0460d3ad3ee26b2aca2ae6958fb747b0a68f447476e3a1dd5",
                        "to" : "0x095e7baea6a6c7c4c2dfeb977efac326af552d87",
                        "v" : "0x1b",
                        "value" : "0x0a"
                    }
                ],
                "uncleHeaders" : [
                ]
            }
        ],
        "genesisBlockHeader" : {
            "bloom" : "0x00000000000000000000000000000000000000000000000000000000000000000000000000000000000000000000000000000000000000000000000000000000000000000000000000000000000000000000000000000000000000000000000000000000000000000000000000000000000000000000000000000000000000000000000000000000000000000000000000000000000000000000000000000000000000000000000000000000000000000000000000000000000000000000000000000000000000000000000000000000000000000000000000000000000000000000000000000000000000000000000000000000000000000000000000000000",
            "coinbase" : "0x2adc25665018aa1fe0e6bc666dac8fc2697ff9ba",
            "difficulty" : "0x020000",
            "extraData" : "0x42",
            "gasLimit" : "0x0f4240",
            "gasUsed" : "0x00",
            "hash" : "0x9760fdae6dbbf00b41c834a76de2f63a12c6d5d26df707ffed7119f79e14fd1b",
            "mixHash" : "0x56e81f171bcc55a6ff8345e692c0f86e5b48e01b996cadc001622fb5e363b421",
            "nonce" : "0x0102030405060708",
            "number" : "0x00",
            "parentHash" : "0x0000000000000000000000000000000000000000000000000000000000000000",
            "receiptTrie" : "0x56e81f171bcc55a6ff8345e692c0f86e5b48e01b996cadc001622fb5e363b421",
            "stateRoot" : "0xffe1435521fde24b7bdf5b873bbfdaf2db33a9df4f39e3a0021fdebdab0c1612",
            "timestamp" : "0x03b6",
            "transactionsTrie" : "0x56e81f171bcc55a6ff8345e692c0f86e5b48e01b996cadc001622fb5e363b421",
            "uncleHash" : "0x1dcc4de8dec75d7aab85b567b6ccd41ad312451b948a7413f0a142fd40d49347"
        },
        "genesisRLP" : "0xf901faf901f5a00000000000000000000000000000000000000000000000000000000000000000a01dcc4de8dec75d7aab85b567b6ccd41ad312451b948a7413f0a142fd40d49347942adc25665018aa1fe0e6bc666dac8fc2697ff9baa0ffe1435521fde24b7bdf5b873bbfdaf2db33a9df4f39e3a0021fdebdab0c1612a056e81f171bcc55a6ff8345e692c0f86e5b48e01b996cadc001622fb5e363b421a056e81f171bcc55a6ff8345e692c0f86e5b48e01b996cadc001622fb5e363b421b90100000000000000000000000000000000000000000000000000000000000000000000000000000000000000000000000000000000000000000000000000000000000000000000000000000000000000000000000000000000000000000000000000000000000000000000000000000000000000000000000000000000000000000000000000000000000000000000000000000000000000000000000000000000000000000000000000000000000000000000000000000000000000000000000000000000000000000000000000000000000000000000000000000000000000000000000000000000000000000000000000000000000000000000000000000000008302000080830f4240808203b642a056e81f171bcc55a6ff8345e692c0f86e5b48e01b996cadc001622fb5e363b421880102030405060708c0c0",
        "lastblockhash" : "0x52075119a0ab7e59040076b68c0e46f7a7bc3ba80d3451e28c51b19014f82655",
        "network" : "EIP158",
        "postState" : {
            "0x095e7baea6a6c7c4c2dfeb977efac326af552d87" : {
                "balance" : "0x0de0b6b3a7640000",
                "code" : "0x6000600155",
                "nonce" : "0x00",
                "storage" : {
                    "0x01" : "0x01"
                }
            },
            "0x2adc25665018aa1fe0e6bc666dac8fc2697ff9ba" : {
                "balance" : "0x4563918244f46595",
                "code" : "",
                "nonce" : "0x00",
                "storage" : {
                }
            },
            "0xa94f5374fce5edbc8e2a8697c15331677e6ebf0b" : {
                "balance" : "0x073b8b",
                "code" : "",
                "nonce" : "0x01",
                "storage" : {
                }
            }
        },
        "pre" : {
            "0x095e7baea6a6c7c4c2dfeb977efac326af552d87" : {
                "balance" : "0x0de0b6b3a7640000",
                "code" : "0x6000600155",
                "nonce" : "0x00",
                "storage" : {
                    "0x01" : "0x01"
                }
            },
            "0xa94f5374fce5edbc8e2a8697c15331677e6ebf0b" : {
                "balance" : "0x07a120",
                "code" : "",
                "nonce" : "0x00",
                "storage" : {
                }
            }
        }
    },
    "refund_OOG_d0g0v0_Frontier" : {
        "_info" : {
            "comment" : "",
            "filledwith" : "cpp-1.3.0+commit.6e0ce939.Linux.g++",
            "lllcversion" : "Version: 0.4.18-develop.2017.9.25+commit.a72237f2.Linux.g++",
            "source" : "src/BlockchainTestsFiller/GeneralStateTests/stRefundTest/refund_OOG_d0g0v0Filler.json",
            "sourceHash" : "c8e07503e8a8cc4c9ccd1fe07b3244b04ce61865993fc6c882303eda877894e3"
        },
        "blocks" : [
            {
                "blockHeader" : {
                    "bloom" : "0x00000000000000000000000000000000000000000000000000000000000000000000000000000000000000000000000000000000000000000000000000000000000000000000000000000000000000000000000000000000000000000000000000000000000000000000000000000000000000000000000000000000000000000000000000000000000000000000000000000000000000000000000000000000000000000000000000000000000000000000000000000000000000000000000000000000000000000000000000000000000000000000000000000000000000000000000000000000000000000000000000000000000000000000000000000000",
                    "coinbase" : "0x2adc25665018aa1fe0e6bc666dac8fc2697ff9ba",
                    "difficulty" : "0x020000",
                    "extraData" : "",
                    "gasLimit" : "0x0f4240",
                    "gasUsed" : "0x6595",
                    "hash" : "0x2fca0bdf4c477a7b37f4d4edc3b5d50cf8ecf09a99ab160650c0bd4a4c4aa1bc",
                    "mixHash" : "0x7790136fcf66c380226d810cbd2b4ca503f4138ad8ad2e67907c2be69c6d6665",
                    "nonce" : "0xf2d54e23b1978fb4",
                    "number" : "0x01",
                    "parentHash" : "0x9760fdae6dbbf00b41c834a76de2f63a12c6d5d26df707ffed7119f79e14fd1b",
                    "receiptTrie" : "0xc4c10fc35a174b35e68750553db3e1a1f8283f97608a9da88b7a4bf43b7352c1",
                    "stateRoot" : "0x88312360ef0b77fe3586e4006873e4fa6ebfc9d77b215a0c3b2cde5995144de2",
                    "timestamp" : "0x03e8",
                    "transactionsTrie" : "0xe6b56fcfd91b26595e7f5f808680b9134b5d4500e9876d845b3a5dcbd0fb089d",
                    "uncleHash" : "0x1dcc4de8dec75d7aab85b567b6ccd41ad312451b948a7413f0a142fd40d49347"
                },
                "rlp" : "0xf9025ef901f7a09760fdae6dbbf00b41c834a76de2f63a12c6d5d26df707ffed7119f79e14fd1ba01dcc4de8dec75d7aab85b567b6ccd41ad312451b948a7413f0a142fd40d49347942adc25665018aa1fe0e6bc666dac8fc2697ff9baa088312360ef0b77fe3586e4006873e4fa6ebfc9d77b215a0c3b2cde5995144de2a0e6b56fcfd91b26595e7f5f808680b9134b5d4500e9876d845b3a5dcbd0fb089da0c4c10fc35a174b35e68750553db3e1a1f8283f97608a9da88b7a4bf43b7352c1b90100000000000000000000000000000000000000000000000000000000000000000000000000000000000000000000000000000000000000000000000000000000000000000000000000000000000000000000000000000000000000000000000000000000000000000000000000000000000000000000000000000000000000000000000000000000000000000000000000000000000000000000000000000000000000000000000000000000000000000000000000000000000000000000000000000000000000000000000000000000000000000000000000000000000000000000000000000000000000000000000000000000000000000000000000000000008302000001830f42408265958203e880a07790136fcf66c380226d810cbd2b4ca503f4138ad8ad2e67907c2be69c6d666588f2d54e23b1978fb4f861f85f800182659594095e7baea6a6c7c4c2dfeb977efac326af552d870a801ba09d7b7423aa187cf696e6b7ebea70f0bc3e3373a7b9494f662fe6050dd6bba82da016dc9e01d65fcba0460d3ad3ee26b2aca2ae6958fb747b0a68f447476e3a1dd5c0",
                "transactions" : [
                    {
                        "data" : "",
                        "gasLimit" : "0x6595",
                        "gasPrice" : "0x01",
                        "nonce" : "0x00",
                        "r" : "0x9d7b7423aa187cf696e6b7ebea70f0bc3e3373a7b9494f662fe6050dd6bba82d",
                        "s" : "0x16dc9e01d65fcba0460d3ad3ee26b2aca2ae6958fb747b0a68f447476e3a1dd5",
                        "to" : "0x095e7baea6a6c7c4c2dfeb977efac326af552d87",
                        "v" : "0x1b",
                        "value" : "0x0a"
                    }
                ],
                "uncleHeaders" : [
                ]
            }
        ],
        "genesisBlockHeader" : {
            "bloom" : "0x00000000000000000000000000000000000000000000000000000000000000000000000000000000000000000000000000000000000000000000000000000000000000000000000000000000000000000000000000000000000000000000000000000000000000000000000000000000000000000000000000000000000000000000000000000000000000000000000000000000000000000000000000000000000000000000000000000000000000000000000000000000000000000000000000000000000000000000000000000000000000000000000000000000000000000000000000000000000000000000000000000000000000000000000000000000",
            "coinbase" : "0x2adc25665018aa1fe0e6bc666dac8fc2697ff9ba",
            "difficulty" : "0x020000",
            "extraData" : "0x42",
            "gasLimit" : "0x0f4240",
            "gasUsed" : "0x00",
            "hash" : "0x9760fdae6dbbf00b41c834a76de2f63a12c6d5d26df707ffed7119f79e14fd1b",
            "mixHash" : "0x56e81f171bcc55a6ff8345e692c0f86e5b48e01b996cadc001622fb5e363b421",
            "nonce" : "0x0102030405060708",
            "number" : "0x00",
            "parentHash" : "0x0000000000000000000000000000000000000000000000000000000000000000",
            "receiptTrie" : "0x56e81f171bcc55a6ff8345e692c0f86e5b48e01b996cadc001622fb5e363b421",
            "stateRoot" : "0xffe1435521fde24b7bdf5b873bbfdaf2db33a9df4f39e3a0021fdebdab0c1612",
            "timestamp" : "0x03b6",
            "transactionsTrie" : "0x56e81f171bcc55a6ff8345e692c0f86e5b48e01b996cadc001622fb5e363b421",
            "uncleHash" : "0x1dcc4de8dec75d7aab85b567b6ccd41ad312451b948a7413f0a142fd40d49347"
        },
        "genesisRLP" : "0xf901faf901f5a00000000000000000000000000000000000000000000000000000000000000000a01dcc4de8dec75d7aab85b567b6ccd41ad312451b948a7413f0a142fd40d49347942adc25665018aa1fe0e6bc666dac8fc2697ff9baa0ffe1435521fde24b7bdf5b873bbfdaf2db33a9df4f39e3a0021fdebdab0c1612a056e81f171bcc55a6ff8345e692c0f86e5b48e01b996cadc001622fb5e363b421a056e81f171bcc55a6ff8345e692c0f86e5b48e01b996cadc001622fb5e363b421b90100000000000000000000000000000000000000000000000000000000000000000000000000000000000000000000000000000000000000000000000000000000000000000000000000000000000000000000000000000000000000000000000000000000000000000000000000000000000000000000000000000000000000000000000000000000000000000000000000000000000000000000000000000000000000000000000000000000000000000000000000000000000000000000000000000000000000000000000000000000000000000000000000000000000000000000000000000000000000000000000000000000000000000000000000000000008302000080830f4240808203b642a056e81f171bcc55a6ff8345e692c0f86e5b48e01b996cadc001622fb5e363b421880102030405060708c0c0",
        "lastblockhash" : "0x2fca0bdf4c477a7b37f4d4edc3b5d50cf8ecf09a99ab160650c0bd4a4c4aa1bc",
        "network" : "Frontier",
        "postState" : {
            "0x095e7baea6a6c7c4c2dfeb977efac326af552d87" : {
                "balance" : "0x0de0b6b3a7640000",
                "code" : "0x6000600155",
                "nonce" : "0x00",
                "storage" : {
                    "0x01" : "0x01"
                }
            },
            "0x2adc25665018aa1fe0e6bc666dac8fc2697ff9ba" : {
                "balance" : "0x4563918244f46595",
                "code" : "",
                "nonce" : "0x00",
                "storage" : {
                }
            },
            "0xa94f5374fce5edbc8e2a8697c15331677e6ebf0b" : {
                "balance" : "0x073b8b",
                "code" : "",
                "nonce" : "0x01",
                "storage" : {
                }
            }
        },
        "pre" : {
            "0x095e7baea6a6c7c4c2dfeb977efac326af552d87" : {
                "balance" : "0x0de0b6b3a7640000",
                "code" : "0x6000600155",
                "nonce" : "0x00",
                "storage" : {
                    "0x01" : "0x01"
                }
            },
            "0xa94f5374fce5edbc8e2a8697c15331677e6ebf0b" : {
                "balance" : "0x07a120",
                "code" : "",
                "nonce" : "0x00",
                "storage" : {
                }
            }
        }
    },
    "refund_OOG_d0g0v0_Homestead" : {
        "_info" : {
            "comment" : "",
            "filledwith" : "cpp-1.3.0+commit.6e0ce939.Linux.g++",
            "lllcversion" : "Version: 0.4.18-develop.2017.9.25+commit.a72237f2.Linux.g++",
            "source" : "src/BlockchainTestsFiller/GeneralStateTests/stRefundTest/refund_OOG_d0g0v0Filler.json",
            "sourceHash" : "c8e07503e8a8cc4c9ccd1fe07b3244b04ce61865993fc6c882303eda877894e3"
        },
        "blocks" : [
            {
                "blockHeader" : {
                    "bloom" : "0x00000000000000000000000000000000000000000000000000000000000000000000000000000000000000000000000000000000000000000000000000000000000000000000000000000000000000000000000000000000000000000000000000000000000000000000000000000000000000000000000000000000000000000000000000000000000000000000000000000000000000000000000000000000000000000000000000000000000000000000000000000000000000000000000000000000000000000000000000000000000000000000000000000000000000000000000000000000000000000000000000000000000000000000000000000000",
                    "coinbase" : "0x2adc25665018aa1fe0e6bc666dac8fc2697ff9ba",
                    "difficulty" : "0x020000",
                    "extraData" : "",
                    "gasLimit" : "0x0f4240",
                    "gasUsed" : "0x6595",
                    "hash" : "0xb7fc62ab04732c1d1d9e24573863164994c55e709027ad757ed13574ea373bd8",
                    "mixHash" : "0x973ce3e786e2838a94220cecd154cb3e14bccf6290241d5576a67cb2b5f3ab4a",
                    "nonce" : "0x9620f69d7950437c",
                    "number" : "0x01",
                    "parentHash" : "0x9760fdae6dbbf00b41c834a76de2f63a12c6d5d26df707ffed7119f79e14fd1b",
                    "receiptTrie" : "0xc4c10fc35a174b35e68750553db3e1a1f8283f97608a9da88b7a4bf43b7352c1",
                    "stateRoot" : "0x88312360ef0b77fe3586e4006873e4fa6ebfc9d77b215a0c3b2cde5995144de2",
                    "timestamp" : "0x03e8",
                    "transactionsTrie" : "0xe6b56fcfd91b26595e7f5f808680b9134b5d4500e9876d845b3a5dcbd0fb089d",
                    "uncleHash" : "0x1dcc4de8dec75d7aab85b567b6ccd41ad312451b948a7413f0a142fd40d49347"
                },
                "rlp" : "0xf9025ef901f7a09760fdae6dbbf00b41c834a76de2f63a12c6d5d26df707ffed7119f79e14fd1ba01dcc4de8dec75d7aab85b567b6ccd41ad312451b948a7413f0a142fd40d49347942adc25665018aa1fe0e6bc666dac8fc2697ff9baa088312360ef0b77fe3586e4006873e4fa6ebfc9d77b215a0c3b2cde5995144de2a0e6b56fcfd91b26595e7f5f808680b9134b5d4500e9876d845b3a5dcbd0fb089da0c4c10fc35a174b35e68750553db3e1a1f8283f97608a9da88b7a4bf43b7352c1b90100000000000000000000000000000000000000000000000000000000000000000000000000000000000000000000000000000000000000000000000000000000000000000000000000000000000000000000000000000000000000000000000000000000000000000000000000000000000000000000000000000000000000000000000000000000000000000000000000000000000000000000000000000000000000000000000000000000000000000000000000000000000000000000000000000000000000000000000000000000000000000000000000000000000000000000000000000000000000000000000000000000000000000000000000000000008302000001830f42408265958203e880a0973ce3e786e2838a94220cecd154cb3e14bccf6290241d5576a67cb2b5f3ab4a889620f69d7950437cf861f85f800182659594095e7baea6a6c7c4c2dfeb977efac326af552d870a801ba09d7b7423aa187cf696e6b7ebea70f0bc3e3373a7b9494f662fe6050dd6bba82da016dc9e01d65fcba0460d3ad3ee26b2aca2ae6958fb747b0a68f447476e3a1dd5c0",
                "transactions" : [
                    {
                        "data" : "",
                        "gasLimit" : "0x6595",
                        "gasPrice" : "0x01",
                        "nonce" : "0x00",
                        "r" : "0x9d7b7423aa187cf696e6b7ebea70f0bc3e3373a7b9494f662fe6050dd6bba82d",
                        "s" : "0x16dc9e01d65fcba0460d3ad3ee26b2aca2ae6958fb747b0a68f447476e3a1dd5",
                        "to" : "0x095e7baea6a6c7c4c2dfeb977efac326af552d87",
                        "v" : "0x1b",
                        "value" : "0x0a"
                    }
                ],
                "uncleHeaders" : [
                ]
            }
        ],
        "genesisBlockHeader" : {
            "bloom" : "0x00000000000000000000000000000000000000000000000000000000000000000000000000000000000000000000000000000000000000000000000000000000000000000000000000000000000000000000000000000000000000000000000000000000000000000000000000000000000000000000000000000000000000000000000000000000000000000000000000000000000000000000000000000000000000000000000000000000000000000000000000000000000000000000000000000000000000000000000000000000000000000000000000000000000000000000000000000000000000000000000000000000000000000000000000000000",
            "coinbase" : "0x2adc25665018aa1fe0e6bc666dac8fc2697ff9ba",
            "difficulty" : "0x020000",
            "extraData" : "0x42",
            "gasLimit" : "0x0f4240",
            "gasUsed" : "0x00",
            "hash" : "0x9760fdae6dbbf00b41c834a76de2f63a12c6d5d26df707ffed7119f79e14fd1b",
            "mixHash" : "0x56e81f171bcc55a6ff8345e692c0f86e5b48e01b996cadc001622fb5e363b421",
            "nonce" : "0x0102030405060708",
            "number" : "0x00",
            "parentHash" : "0x0000000000000000000000000000000000000000000000000000000000000000",
            "receiptTrie" : "0x56e81f171bcc55a6ff8345e692c0f86e5b48e01b996cadc001622fb5e363b421",
            "stateRoot" : "0xffe1435521fde24b7bdf5b873bbfdaf2db33a9df4f39e3a0021fdebdab0c1612",
            "timestamp" : "0x03b6",
            "transactionsTrie" : "0x56e81f171bcc55a6ff8345e692c0f86e5b48e01b996cadc001622fb5e363b421",
            "uncleHash" : "0x1dcc4de8dec75d7aab85b567b6ccd41ad312451b948a7413f0a142fd40d49347"
        },
        "genesisRLP" : "0xf901faf901f5a00000000000000000000000000000000000000000000000000000000000000000a01dcc4de8dec75d7aab85b567b6ccd41ad312451b948a7413f0a142fd40d49347942adc25665018aa1fe0e6bc666dac8fc2697ff9baa0ffe1435521fde24b7bdf5b873bbfdaf2db33a9df4f39e3a0021fdebdab0c1612a056e81f171bcc55a6ff8345e692c0f86e5b48e01b996cadc001622fb5e363b421a056e81f171bcc55a6ff8345e692c0f86e5b48e01b996cadc001622fb5e363b421b90100000000000000000000000000000000000000000000000000000000000000000000000000000000000000000000000000000000000000000000000000000000000000000000000000000000000000000000000000000000000000000000000000000000000000000000000000000000000000000000000000000000000000000000000000000000000000000000000000000000000000000000000000000000000000000000000000000000000000000000000000000000000000000000000000000000000000000000000000000000000000000000000000000000000000000000000000000000000000000000000000000000000000000000000000000000008302000080830f4240808203b642a056e81f171bcc55a6ff8345e692c0f86e5b48e01b996cadc001622fb5e363b421880102030405060708c0c0",
        "lastblockhash" : "0xb7fc62ab04732c1d1d9e24573863164994c55e709027ad757ed13574ea373bd8",
        "network" : "Homestead",
        "postState" : {
            "0x095e7baea6a6c7c4c2dfeb977efac326af552d87" : {
                "balance" : "0x0de0b6b3a7640000",
                "code" : "0x6000600155",
                "nonce" : "0x00",
                "storage" : {
                    "0x01" : "0x01"
                }
            },
            "0x2adc25665018aa1fe0e6bc666dac8fc2697ff9ba" : {
                "balance" : "0x4563918244f46595",
                "code" : "",
                "nonce" : "0x00",
                "storage" : {
                }
            },
            "0xa94f5374fce5edbc8e2a8697c15331677e6ebf0b" : {
                "balance" : "0x073b8b",
                "code" : "",
                "nonce" : "0x01",
                "storage" : {
                }
            }
        },
        "pre" : {
            "0x095e7baea6a6c7c4c2dfeb977efac326af552d87" : {
                "balance" : "0x0de0b6b3a7640000",
                "code" : "0x6000600155",
                "nonce" : "0x00",
                "storage" : {
                    "0x01" : "0x01"
                }
            },
            "0xa94f5374fce5edbc8e2a8697c15331677e6ebf0b" : {
                "balance" : "0x07a120",
                "code" : "",
                "nonce" : "0x00",
                "storage" : {
                }
            }
        }
    }
}