{
    "refund50_2_d0g0v0_Byzantium" : {
        "_info" : {
            "comment" : "",
            "filledwith" : "cpp-1.3.0+commit.6e0ce939.Linux.g++",
            "lllcversion" : "Version: 0.4.18-develop.2017.9.25+commit.a72237f2.Linux.g++",
            "source" : "src/BlockchainTestsFiller/GeneralStateTests/stRefundTest/refund50_2_d0g0v0Filler.json",
            "sourceHash" : "54a2fb3ccbe2f6b6535e34b9006f9a74dad094926c323416f54bda3179e9d04b"
        },
        "blocks" : [
            {
                "blockHeader" : {
                    "bloom" : "0x00000000000000000000000000000000000000000000000000000000000000000000000000000000000000000000000000000000000000000000000000000000000000000000000000000000000000000000000000000000000000000000000000000000000000000000000000000000000000000000000000000000000000000000000000000000000000000000000000000000000000000000000000000000000000000000000000000000000000000000000000000000000000000000000000000000000000000000000000000000000000000000000000000000000000000000000000000000000000000000000000000000000000000000000000000000",
                    "coinbase" : "0x2adc25665018aa1fe0e6bc666dac8fc2697ff9ba",
                    "difficulty" : "0x020000",
                    "extraData" : "",
                    "gasLimit" : "0x0f4240",
                    "gasUsed" : "0xa80d",
                    "hash" : "0x75c11fd2761990f887f6de5f72f4cc513b80afd714d71d94c084c446ffc5a6e0",
                    "mixHash" : "0xe429bba2968d7064f1a01768a41004ef3841a04705f82fee2655a3947fcbddb5",
                    "nonce" : "0x9948a93de2bba309",
                    "number" : "0x01",
                    "parentHash" : "0xfefb16759225c7c0402986ead079ac1cc06b1a09c3b607e76a236cdf679787e7",
                    "receiptTrie" : "0x033163e6c3a8ffa81888536ada16cb63c2d93fc04ab21edc3d7587bce88a54f9",
                    "stateRoot" : "0xac20cf28eeb0d50b648e66b667d6368972db225523a3c1500ed66b818735700d",
                    "timestamp" : "0x03e8",
                    "transactionsTrie" : "0x1a6f603f2b897f76cf62e7761f72219bab8dc3bc444e0f605a49be5e55bd2fa5",
                    "uncleHash" : "0x1dcc4de8dec75d7aab85b567b6ccd41ad312451b948a7413f0a142fd40d49347"
                },
                "rlp" : "0xf9025ff901f7a0fefb16759225c7c0402986ead079ac1cc06b1a09c3b607e76a236cdf679787e7a01dcc4de8dec75d7aab85b567b6ccd41ad312451b948a7413f0a142fd40d49347942adc25665018aa1fe0e6bc666dac8fc2697ff9baa0ac20cf28eeb0d50b648e66b667d6368972db225523a3c1500ed66b818735700da01a6f603f2b897f76cf62e7761f72219bab8dc3bc444e0f605a49be5e55bd2fa5a0033163e6c3a8ffa81888536ada16cb63c2d93fc04ab21edc3d7587bce88a54f9b90100000000000000000000000000000000000000000000000000000000000000000000000000000000000000000000000000000000000000000000000000000000000000000000000000000000000000000000000000000000000000000000000000000000000000000000000000000000000000000000000000000000000000000000000000000000000000000000000000000000000000000000000000000000000000000000000000000000000000000000000000000000000000000000000000000000000000000000000000000000000000000000000000000000000000000000000000000000000000000000000000000000000000000000000000000000008302000001830f424082a80d8203e880a0e429bba2968d7064f1a01768a41004ef3841a04705f82fee2655a3947fcbddb5889948a93de2bba309f862f8608001830186a094095e7baea6a6c7c4c2dfeb977efac326af552d8780801ba044ee42f1060fee5d97a26c8a0ae68cf034f74d28d85eed944db611239574a3c6a01789712c8973a1563405c9d841f7342afe23155336a1d9725e551efb2811d54ec0",
                "transactions" : [
                    {
                        "data" : "",
                        "gasLimit" : "0x0186a0",
                        "gasPrice" : "0x01",
                        "nonce" : "0x00",
                        "r" : "0x44ee42f1060fee5d97a26c8a0ae68cf034f74d28d85eed944db611239574a3c6",
                        "s" : "0x1789712c8973a1563405c9d841f7342afe23155336a1d9725e551efb2811d54e",
                        "to" : "0x095e7baea6a6c7c4c2dfeb977efac326af552d87",
                        "v" : "0x1b",
                        "value" : "0x00"
                    }
                ],
                "uncleHeaders" : [
                ]
            }
        ],
        "genesisBlockHeader" : {
            "bloom" : "0x00000000000000000000000000000000000000000000000000000000000000000000000000000000000000000000000000000000000000000000000000000000000000000000000000000000000000000000000000000000000000000000000000000000000000000000000000000000000000000000000000000000000000000000000000000000000000000000000000000000000000000000000000000000000000000000000000000000000000000000000000000000000000000000000000000000000000000000000000000000000000000000000000000000000000000000000000000000000000000000000000000000000000000000000000000000",
            "coinbase" : "0x2adc25665018aa1fe0e6bc666dac8fc2697ff9ba",
            "difficulty" : "0x020000",
            "extraData" : "0x42",
            "gasLimit" : "0x0f4240",
            "gasUsed" : "0x00",
            "hash" : "0xfefb16759225c7c0402986ead079ac1cc06b1a09c3b607e76a236cdf679787e7",
            "mixHash" : "0x56e81f171bcc55a6ff8345e692c0f86e5b48e01b996cadc001622fb5e363b421",
            "nonce" : "0x0102030405060708",
            "number" : "0x00",
            "parentHash" : "0x0000000000000000000000000000000000000000000000000000000000000000",
            "receiptTrie" : "0x56e81f171bcc55a6ff8345e692c0f86e5b48e01b996cadc001622fb5e363b421",
            "stateRoot" : "0x998c638ddb986ce51957e3164668df171d4cf543c0f5e5d4e7dd938aa17ef31d",
            "timestamp" : "0x03b6",
            "transactionsTrie" : "0x56e81f171bcc55a6ff8345e692c0f86e5b48e01b996cadc001622fb5e363b421",
            "uncleHash" : "0x1dcc4de8dec75d7aab85b567b6ccd41ad312451b948a7413f0a142fd40d49347"
        },
        "genesisRLP" : "0xf901faf901f5a00000000000000000000000000000000000000000000000000000000000000000a01dcc4de8dec75d7aab85b567b6ccd41ad312451b948a7413f0a142fd40d49347942adc25665018aa1fe0e6bc666dac8fc2697ff9baa0998c638ddb986ce51957e3164668df171d4cf543c0f5e5d4e7dd938aa17ef31da056e81f171bcc55a6ff8345e692c0f86e5b48e01b996cadc001622fb5e363b421a056e81f171bcc55a6ff8345e692c0f86e5b48e01b996cadc001622fb5e363b421b90100000000000000000000000000000000000000000000000000000000000000000000000000000000000000000000000000000000000000000000000000000000000000000000000000000000000000000000000000000000000000000000000000000000000000000000000000000000000000000000000000000000000000000000000000000000000000000000000000000000000000000000000000000000000000000000000000000000000000000000000000000000000000000000000000000000000000000000000000000000000000000000000000000000000000000000000000000000000000000000000000000000000000000000000000000000008302000080830f4240808203b642a056e81f171bcc55a6ff8345e692c0f86e5b48e01b996cadc001622fb5e363b421880102030405060708c0c0",
        "lastblockhash" : "0x75c11fd2761990f887f6de5f72f4cc513b80afd714d71d94c084c446ffc5a6e0",
        "network" : "Byzantium",
        "postState" : {
            "0x095e7baea6a6c7c4c2dfeb977efac326af552d87" : {
                "balance" : "0x0de0b6b3a7640000",
                "code" : "0x6001600a556001600b5560006001556000600255600060035560006004556000600555",
                "nonce" : "0x00",
                "storage" : {
                    "0x0a" : "0x01",
                    "0x0b" : "0x01"
                }
            },
            "0x2adc25665018aa1fe0e6bc666dac8fc2697ff9ba" : {
                "balance" : "0x29a2241af62ca80d",
                "code" : "",
                "nonce" : "0x00",
                "storage" : {
                }
            },
            "0xa94f5374fce5edbc8e2a8697c15331677e6ebf0b" : {
                "balance" : "0xde93",
                "code" : "",
                "nonce" : "0x01",
                "storage" : {
                }
            }
        },
        "pre" : {
            "0x095e7baea6a6c7c4c2dfeb977efac326af552d87" : {
                "balance" : "0x0de0b6b3a7640000",
                "code" : "0x6001600a556001600b5560006001556000600255600060035560006004556000600555",
                "nonce" : "0x00",
                "storage" : {
                    "0x01" : "0x01",
                    "0x02" : "0x01",
                    "0x03" : "0x01",
                    "0x04" : "0x01",
                    "0x05" : "0x01"
                }
            },
            "0xa94f5374fce5edbc8e2a8697c15331677e6ebf0b" : {
                "balance" : "0x0186a0",
                "code" : "",
                "nonce" : "0x00",
                "storage" : {
                }
            }
        }
    },
    "refund50_2_d0g0v0_EIP150" : {
        "_info" : {
            "comment" : "",
            "filledwith" : "cpp-1.3.0+commit.6e0ce939.Linux.g++",
            "lllcversion" : "Version: 0.4.18-develop.2017.9.25+commit.a72237f2.Linux.g++",
            "source" : "src/BlockchainTestsFiller/GeneralStateTests/stRefundTest/refund50_2_d0g0v0Filler.json",
            "sourceHash" : "54a2fb3ccbe2f6b6535e34b9006f9a74dad094926c323416f54bda3179e9d04b"
        },
        "blocks" : [
            {
                "blockHeader" : {
                    "bloom" : "0x00000000000000000000000000000000000000000000000000000000000000000000000000000000000000000000000000000000000000000000000000000000000000000000000000000000000000000000000000000000000000000000000000000000000000000000000000000000000000000000000000000000000000000000000000000000000000000000000000000000000000000000000000000000000000000000000000000000000000000000000000000000000000000000000000000000000000000000000000000000000000000000000000000000000000000000000000000000000000000000000000000000000000000000000000000000",
                    "coinbase" : "0x2adc25665018aa1fe0e6bc666dac8fc2697ff9ba",
                    "difficulty" : "0x020000",
                    "extraData" : "",
                    "gasLimit" : "0x0f4240",
                    "gasUsed" : "0xa80d",
                    "hash" : "0x522a13b517ad9fbdc16ba7dc6355a698159cb27294f197519db401f794821a54",
                    "mixHash" : "0xf0a9b7d412d9daa823e989e4ce0f67c613a89fbb6d19cdff8640b57dccf389b9",
                    "nonce" : "0x4192e015f34c62e4",
                    "number" : "0x01",
                    "parentHash" : "0xfefb16759225c7c0402986ead079ac1cc06b1a09c3b607e76a236cdf679787e7",
                    "receiptTrie" : "0x21f30d3b7761a302dbb167f49c308c40f21e7adff9efe21c2878e98fd037ac15",
                    "stateRoot" : "0xaa48cde6895623857de5fb9875806f493d3a62d70251225b4f010087f4aecc57",
                    "timestamp" : "0x03e8",
                    "transactionsTrie" : "0x1a6f603f2b897f76cf62e7761f72219bab8dc3bc444e0f605a49be5e55bd2fa5",
                    "uncleHash" : "0x1dcc4de8dec75d7aab85b567b6ccd41ad312451b948a7413f0a142fd40d49347"
                },
                "rlp" : "0xf9025ff901f7a0fefb16759225c7c0402986ead079ac1cc06b1a09c3b607e76a236cdf679787e7a01dcc4de8dec75d7aab85b567b6ccd41ad312451b948a7413f0a142fd40d49347942adc25665018aa1fe0e6bc666dac8fc2697ff9baa0aa48cde6895623857de5fb9875806f493d3a62d70251225b4f010087f4aecc57a01a6f603f2b897f76cf62e7761f72219bab8dc3bc444e0f605a49be5e55bd2fa5a021f30d3b7761a302dbb167f49c308c40f21e7adff9efe21c2878e98fd037ac15b90100000000000000000000000000000000000000000000000000000000000000000000000000000000000000000000000000000000000000000000000000000000000000000000000000000000000000000000000000000000000000000000000000000000000000000000000000000000000000000000000000000000000000000000000000000000000000000000000000000000000000000000000000000000000000000000000000000000000000000000000000000000000000000000000000000000000000000000000000000000000000000000000000000000000000000000000000000000000000000000000000000000000000000000000000000000008302000001830f424082a80d8203e880a0f0a9b7d412d9daa823e989e4ce0f67c613a89fbb6d19cdff8640b57dccf389b9884192e015f34c62e4f862f8608001830186a094095e7baea6a6c7c4c2dfeb977efac326af552d8780801ba044ee42f1060fee5d97a26c8a0ae68cf034f74d28d85eed944db611239574a3c6a01789712c8973a1563405c9d841f7342afe23155336a1d9725e551efb2811d54ec0",
                "transactions" : [
                    {
                        "data" : "",
                        "gasLimit" : "0x0186a0",
                        "gasPrice" : "0x01",
                        "nonce" : "0x00",
                        "r" : "0x44ee42f1060fee5d97a26c8a0ae68cf034f74d28d85eed944db611239574a3c6",
                        "s" : "0x1789712c8973a1563405c9d841f7342afe23155336a1d9725e551efb2811d54e",
                        "to" : "0x095e7baea6a6c7c4c2dfeb977efac326af552d87",
                        "v" : "0x1b",
                        "value" : "0x00"
                    }
                ],
                "uncleHeaders" : [
                ]
            }
        ],
        "genesisBlockHeader" : {
            "bloom" : "0x00000000000000000000000000000000000000000000000000000000000000000000000000000000000000000000000000000000000000000000000000000000000000000000000000000000000000000000000000000000000000000000000000000000000000000000000000000000000000000000000000000000000000000000000000000000000000000000000000000000000000000000000000000000000000000000000000000000000000000000000000000000000000000000000000000000000000000000000000000000000000000000000000000000000000000000000000000000000000000000000000000000000000000000000000000000",
            "coinbase" : "0x2adc25665018aa1fe0e6bc666dac8fc2697ff9ba",
            "difficulty" : "0x020000",
            "extraData" : "0x42",
            "gasLimit" : "0x0f4240",
            "gasUsed" : "0x00",
            "hash" : "0xfefb16759225c7c0402986ead079ac1cc06b1a09c3b607e76a236cdf679787e7",
            "mixHash" : "0x56e81f171bcc55a6ff8345e692c0f86e5b48e01b996cadc001622fb5e363b421",
            "nonce" : "0x0102030405060708",
            "number" : "0x00",
            "parentHash" : "0x0000000000000000000000000000000000000000000000000000000000000000",
            "receiptTrie" : "0x56e81f171bcc55a6ff8345e692c0f86e5b48e01b996cadc001622fb5e363b421",
            "stateRoot" : "0x998c638ddb986ce51957e3164668df171d4cf543c0f5e5d4e7dd938aa17ef31d",
            "timestamp" : "0x03b6",
            "transactionsTrie" : "0x56e81f171bcc55a6ff8345e692c0f86e5b48e01b996cadc001622fb5e363b421",
            "uncleHash" : "0x1dcc4de8dec75d7aab85b567b6ccd41ad312451b948a7413f0a142fd40d49347"
        },
        "genesisRLP" : "0xf901faf901f5a00000000000000000000000000000000000000000000000000000000000000000a01dcc4de8dec75d7aab85b567b6ccd41ad312451b948a7413f0a142fd40d49347942adc25665018aa1fe0e6bc666dac8fc2697ff9baa0998c638ddb986ce51957e3164668df171d4cf543c0f5e5d4e7dd938aa17ef31da056e81f171bcc55a6ff8345e692c0f86e5b48e01b996cadc001622fb5e363b421a056e81f171bcc55a6ff8345e692c0f86e5b48e01b996cadc001622fb5e363b421b90100000000000000000000000000000000000000000000000000000000000000000000000000000000000000000000000000000000000000000000000000000000000000000000000000000000000000000000000000000000000000000000000000000000000000000000000000000000000000000000000000000000000000000000000000000000000000000000000000000000000000000000000000000000000000000000000000000000000000000000000000000000000000000000000000000000000000000000000000000000000000000000000000000000000000000000000000000000000000000000000000000000000000000000000000000000008302000080830f4240808203b642a056e81f171bcc55a6ff8345e692c0f86e5b48e01b996cadc001622fb5e363b421880102030405060708c0c0",
        "lastblockhash" : "0x522a13b517ad9fbdc16ba7dc6355a698159cb27294f197519db401f794821a54",
        "network" : "EIP150",
        "postState" : {
            "0x095e7baea6a6c7c4c2dfeb977efac326af552d87" : {
                "balance" : "0x0de0b6b3a7640000",
                "code" : "0x6001600a556001600b5560006001556000600255600060035560006004556000600555",
                "nonce" : "0x00",
                "storage" : {
                    "0x0a" : "0x01",
                    "0x0b" : "0x01"
                }
            },
            "0x2adc25665018aa1fe0e6bc666dac8fc2697ff9ba" : {
                "balance" : "0x4563918244f4a80d",
                "code" : "",
                "nonce" : "0x00",
                "storage" : {
                }
            },
            "0xa94f5374fce5edbc8e2a8697c15331677e6ebf0b" : {
                "balance" : "0xde93",
                "code" : "",
                "nonce" : "0x01",
                "storage" : {
                }
            }
        },
        "pre" : {
            "0x095e7baea6a6c7c4c2dfeb977efac326af552d87" : {
                "balance" : "0x0de0b6b3a7640000",
                "code" : "0x6001600a556001600b5560006001556000600255600060035560006004556000600555",
                "nonce" : "0x00",
                "storage" : {
                    "0x01" : "0x01",
                    "0x02" : "0x01",
                    "0x03" : "0x01",
                    "0x04" : "0x01",
                    "0x05" : "0x01"
                }
            },
            "0xa94f5374fce5edbc8e2a8697c15331677e6ebf0b" : {
                "balance" : "0x0186a0",
                "code" : "",
                "nonce" : "0x00",
                "storage" : {
                }
            }
        }
    },
    "refund50_2_d0g0v0_EIP158" : {
        "_info" : {
            "comment" : "",
            "filledwith" : "cpp-1.3.0+commit.6e0ce939.Linux.g++",
            "lllcversion" : "Version: 0.4.18-develop.2017.9.25+commit.a72237f2.Linux.g++",
            "source" : "src/BlockchainTestsFiller/GeneralStateTests/stRefundTest/refund50_2_d0g0v0Filler.json",
            "sourceHash" : "54a2fb3ccbe2f6b6535e34b9006f9a74dad094926c323416f54bda3179e9d04b"
        },
        "blocks" : [
            {
                "blockHeader" : {
                    "bloom" : "0x00000000000000000000000000000000000000000000000000000000000000000000000000000000000000000000000000000000000000000000000000000000000000000000000000000000000000000000000000000000000000000000000000000000000000000000000000000000000000000000000000000000000000000000000000000000000000000000000000000000000000000000000000000000000000000000000000000000000000000000000000000000000000000000000000000000000000000000000000000000000000000000000000000000000000000000000000000000000000000000000000000000000000000000000000000000",
                    "coinbase" : "0x2adc25665018aa1fe0e6bc666dac8fc2697ff9ba",
                    "difficulty" : "0x020000",
                    "extraData" : "",
                    "gasLimit" : "0x0f4240",
                    "gasUsed" : "0xa80d",
                    "hash" : "0xd07ac025187c5719a2d91ff10a52bb3b17cb95d7cab6fa9f6bbddb4f43f6d7ba",
                    "mixHash" : "0x8c66635bafba74c3390df1194c648dc6828774b252899133361bb9d33f3a79b5",
                    "nonce" : "0xc85810ee9d76fd9f",
                    "number" : "0x01",
                    "parentHash" : "0xfefb16759225c7c0402986ead079ac1cc06b1a09c3b607e76a236cdf679787e7",
                    "receiptTrie" : "0x21f30d3b7761a302dbb167f49c308c40f21e7adff9efe21c2878e98fd037ac15",
                    "stateRoot" : "0xaa48cde6895623857de5fb9875806f493d3a62d70251225b4f010087f4aecc57",
                    "timestamp" : "0x03e8",
                    "transactionsTrie" : "0x1a6f603f2b897f76cf62e7761f72219bab8dc3bc444e0f605a49be5e55bd2fa5",
                    "uncleHash" : "0x1dcc4de8dec75d7aab85b567b6ccd41ad312451b948a7413f0a142fd40d49347"
                },
                "rlp" : "0xf9025ff901f7a0fefb16759225c7c0402986ead079ac1cc06b1a09c3b607e76a236cdf679787e7a01dcc4de8dec75d7aab85b567b6ccd41ad312451b948a7413f0a142fd40d49347942adc25665018aa1fe0e6bc666dac8fc2697ff9baa0aa48cde6895623857de5fb9875806f493d3a62d70251225b4f010087f4aecc57a01a6f603f2b897f76cf62e7761f72219bab8dc3bc444e0f605a49be5e55bd2fa5a021f30d3b7761a302dbb167f49c308c40f21e7adff9efe21c2878e98fd037ac15b90100000000000000000000000000000000000000000000000000000000000000000000000000000000000000000000000000000000000000000000000000000000000000000000000000000000000000000000000000000000000000000000000000000000000000000000000000000000000000000000000000000000000000000000000000000000000000000000000000000000000000000000000000000000000000000000000000000000000000000000000000000000000000000000000000000000000000000000000000000000000000000000000000000000000000000000000000000000000000000000000000000000000000000000000000000000008302000001830f424082a80d8203e880a08c66635bafba74c3390df1194c648dc6828774b252899133361bb9d33f3a79b588c85810ee9d76fd9ff862f8608001830186a094095e7baea6a6c7c4c2dfeb977efac326af552d8780801ba044ee42f1060fee5d97a26c8a0ae68cf034f74d28d85eed944db611239574a3c6a01789712c8973a1563405c9d841f7342afe23155336a1d9725e551efb2811d54ec0",
                "transactions" : [
                    {
                        "data" : "",
                        "gasLimit" : "0x0186a0",
                        "gasPrice" : "0x01",
                        "nonce" : "0x00",
                        "r" : "0x44ee42f1060fee5d97a26c8a0ae68cf034f74d28d85eed944db611239574a3c6",
                        "s" : "0x1789712c8973a1563405c9d841f7342afe23155336a1d9725e551efb2811d54e",
                        "to" : "0x095e7baea6a6c7c4c2dfeb977efac326af552d87",
                        "v" : "0x1b",
                        "value" : "0x00"
                    }
                ],
                "uncleHeaders" : [
                ]
            }
        ],
        "genesisBlockHeader" : {
            "bloom" : "0x00000000000000000000000000000000000000000000000000000000000000000000000000000000000000000000000000000000000000000000000000000000000000000000000000000000000000000000000000000000000000000000000000000000000000000000000000000000000000000000000000000000000000000000000000000000000000000000000000000000000000000000000000000000000000000000000000000000000000000000000000000000000000000000000000000000000000000000000000000000000000000000000000000000000000000000000000000000000000000000000000000000000000000000000000000000",
            "coinbase" : "0x2adc25665018aa1fe0e6bc666dac8fc2697ff9ba",
            "difficulty" : "0x020000",
            "extraData" : "0x42",
            "gasLimit" : "0x0f4240",
            "gasUsed" : "0x00",
            "hash" : "0xfefb16759225c7c0402986ead079ac1cc06b1a09c3b607e76a236cdf679787e7",
            "mixHash" : "0x56e81f171bcc55a6ff8345e692c0f86e5b48e01b996cadc001622fb5e363b421",
            "nonce" : "0x0102030405060708",
            "number" : "0x00",
            "parentHash" : "0x0000000000000000000000000000000000000000000000000000000000000000",
            "receiptTrie" : "0x56e81f171bcc55a6ff8345e692c0f86e5b48e01b996cadc001622fb5e363b421",
            "stateRoot" : "0x998c638ddb986ce51957e3164668df171d4cf543c0f5e5d4e7dd938aa17ef31d",
            "timestamp" : "0x03b6",
            "transactionsTrie" : "0x56e81f171bcc55a6ff8345e692c0f86e5b48e01b996cadc001622fb5e363b421",
            "uncleHash" : "0x1dcc4de8dec75d7aab85b567b6ccd41ad312451b948a7413f0a142fd40d49347"
        },
        "genesisRLP" : "0xf901faf901f5a00000000000000000000000000000000000000000000000000000000000000000a01dcc4de8dec75d7aab85b567b6ccd41ad312451b948a7413f0a142fd40d49347942adc25665018aa1fe0e6bc666dac8fc2697ff9baa0998c638ddb986ce51957e3164668df171d4cf543c0f5e5d4e7dd938aa17ef31da056e81f171bcc55a6ff8345e692c0f86e5b48e01b996cadc001622fb5e363b421a056e81f171bcc55a6ff8345e692c0f86e5b48e01b996cadc001622fb5e363b421b90100000000000000000000000000000000000000000000000000000000000000000000000000000000000000000000000000000000000000000000000000000000000000000000000000000000000000000000000000000000000000000000000000000000000000000000000000000000000000000000000000000000000000000000000000000000000000000000000000000000000000000000000000000000000000000000000000000000000000000000000000000000000000000000000000000000000000000000000000000000000000000000000000000000000000000000000000000000000000000000000000000000000000000000000000000000008302000080830f4240808203b642a056e81f171bcc55a6ff8345e692c0f86e5b48e01b996cadc001622fb5e363b421880102030405060708c0c0",
        "lastblockhash" : "0xd07ac025187c5719a2d91ff10a52bb3b17cb95d7cab6fa9f6bbddb4f43f6d7ba",
        "network" : "EIP158",
        "postState" : {
            "0x095e7baea6a6c7c4c2dfeb977efac326af552d87" : {
                "balance" : "0x0de0b6b3a7640000",
                "code" : "0x6001600a556001600b5560006001556000600255600060035560006004556000600555",
                "nonce" : "0x00",
                "storage" : {
                    "0x0a" : "0x01",
                    "0x0b" : "0x01"
                }
            },
            "0x2adc25665018aa1fe0e6bc666dac8fc2697ff9ba" : {
                "balance" : "0x4563918244f4a80d",
                "code" : "",
                "nonce" : "0x00",
                "storage" : {
                }
            },
            "0xa94f5374fce5edbc8e2a8697c15331677e6ebf0b" : {
                "balance" : "0xde93",
                "code" : "",
                "nonce" : "0x01",
                "storage" : {
                }
            }
        },
        "pre" : {
            "0x095e7baea6a6c7c4c2dfeb977efac326af552d87" : {
                "balance" : "0x0de0b6b3a7640000",
                "code" : "0x6001600a556001600b5560006001556000600255600060035560006004556000600555",
                "nonce" : "0x00",
                "storage" : {
                    "0x01" : "0x01",
                    "0x02" : "0x01",
                    "0x03" : "0x01",
                    "0x04" : "0x01",
                    "0x05" : "0x01"
                }
            },
            "0xa94f5374fce5edbc8e2a8697c15331677e6ebf0b" : {
                "balance" : "0x0186a0",
                "code" : "",
                "nonce" : "0x00",
                "storage" : {
                }
            }
        }
    },
    "refund50_2_d0g0v0_Frontier" : {
        "_info" : {
            "comment" : "",
            "filledwith" : "cpp-1.3.0+commit.6e0ce939.Linux.g++",
            "lllcversion" : "Version: 0.4.18-develop.2017.9.25+commit.a72237f2.Linux.g++",
            "source" : "src/BlockchainTestsFiller/GeneralStateTests/stRefundTest/refund50_2_d0g0v0Filler.json",
            "sourceHash" : "54a2fb3ccbe2f6b6535e34b9006f9a74dad094926c323416f54bda3179e9d04b"
        },
        "blocks" : [
            {
                "blockHeader" : {
                    "bloom" : "0x00000000000000000000000000000000000000000000000000000000000000000000000000000000000000000000000000000000000000000000000000000000000000000000000000000000000000000000000000000000000000000000000000000000000000000000000000000000000000000000000000000000000000000000000000000000000000000000000000000000000000000000000000000000000000000000000000000000000000000000000000000000000000000000000000000000000000000000000000000000000000000000000000000000000000000000000000000000000000000000000000000000000000000000000000000000",
                    "coinbase" : "0x2adc25665018aa1fe0e6bc666dac8fc2697ff9ba",
                    "difficulty" : "0x020000",
                    "extraData" : "",
                    "gasLimit" : "0x0f4240",
                    "gasUsed" : "0xa80d",
                    "hash" : "0x75c8905fce9c893f71c5945fcace6694b2e5595287b75bde3f6d10b3e92bec78",
                    "mixHash" : "0x99d35a4c93995864ded5ae74acc521c39d0abf81767875013d80a8032bbdc3cd",
                    "nonce" : "0x2d42c8d6da31bd7b",
                    "number" : "0x01",
                    "parentHash" : "0xfefb16759225c7c0402986ead079ac1cc06b1a09c3b607e76a236cdf679787e7",
                    "receiptTrie" : "0x21f30d3b7761a302dbb167f49c308c40f21e7adff9efe21c2878e98fd037ac15",
                    "stateRoot" : "0xaa48cde6895623857de5fb9875806f493d3a62d70251225b4f010087f4aecc57",
                    "timestamp" : "0x03e8",
                    "transactionsTrie" : "0x1a6f603f2b897f76cf62e7761f72219bab8dc3bc444e0f605a49be5e55bd2fa5",
                    "uncleHash" : "0x1dcc4de8dec75d7aab85b567b6ccd41ad312451b948a7413f0a142fd40d49347"
                },
                "rlp" : "0xf9025ff901f7a0fefb16759225c7c0402986ead079ac1cc06b1a09c3b607e76a236cdf679787e7a01dcc4de8dec75d7aab85b567b6ccd41ad312451b948a7413f0a142fd40d49347942adc25665018aa1fe0e6bc666dac8fc2697ff9baa0aa48cde6895623857de5fb9875806f493d3a62d70251225b4f010087f4aecc57a01a6f603f2b897f76cf62e7761f72219bab8dc3bc444e0f605a49be5e55bd2fa5a021f30d3b7761a302dbb167f49c308c40f21e7adff9efe21c2878e98fd037ac15b90100000000000000000000000000000000000000000000000000000000000000000000000000000000000000000000000000000000000000000000000000000000000000000000000000000000000000000000000000000000000000000000000000000000000000000000000000000000000000000000000000000000000000000000000000000000000000000000000000000000000000000000000000000000000000000000000000000000000000000000000000000000000000000000000000000000000000000000000000000000000000000000000000000000000000000000000000000000000000000000000000000000000000000000000000000000008302000001830f424082a80d8203e880a099d35a4c93995864ded5ae74acc521c39d0abf81767875013d80a8032bbdc3cd882d42c8d6da31bd7bf862f8608001830186a094095e7baea6a6c7c4c2dfeb977efac326af552d8780801ba044ee42f1060fee5d97a26c8a0ae68cf034f74d28d85eed944db611239574a3c6a01789712c8973a1563405c9d841f7342afe23155336a1d9725e551efb2811d54ec0",
                "transactions" : [
                    {
                        "data" : "",
                        "gasLimit" : "0x0186a0",
                        "gasPrice" : "0x01",
                        "nonce" : "0x00",
                        "r" : "0x44ee42f1060fee5d97a26c8a0ae68cf034f74d28d85eed944db611239574a3c6",
                        "s" : "0x1789712c8973a1563405c9d841f7342afe23155336a1d9725e551efb2811d54e",
                        "to" : "0x095e7baea6a6c7c4c2dfeb977efac326af552d87",
                        "v" : "0x1b",
                        "value" : "0x00"
                    }
                ],
                "uncleHeaders" : [
                ]
            }
        ],
        "genesisBlockHeader" : {
            "bloom" : "0x00000000000000000000000000000000000000000000000000000000000000000000000000000000000000000000000000000000000000000000000000000000000000000000000000000000000000000000000000000000000000000000000000000000000000000000000000000000000000000000000000000000000000000000000000000000000000000000000000000000000000000000000000000000000000000000000000000000000000000000000000000000000000000000000000000000000000000000000000000000000000000000000000000000000000000000000000000000000000000000000000000000000000000000000000000000",
            "coinbase" : "0x2adc25665018aa1fe0e6bc666dac8fc2697ff9ba",
            "difficulty" : "0x020000",
            "extraData" : "0x42",
            "gasLimit" : "0x0f4240",
            "gasUsed" : "0x00",
            "hash" : "0xfefb16759225c7c0402986ead079ac1cc06b1a09c3b607e76a236cdf679787e7",
            "mixHash" : "0x56e81f171bcc55a6ff8345e692c0f86e5b48e01b996cadc001622fb5e363b421",
            "nonce" : "0x0102030405060708",
            "number" : "0x00",
            "parentHash" : "0x0000000000000000000000000000000000000000000000000000000000000000",
            "receiptTrie" : "0x56e81f171bcc55a6ff8345e692c0f86e5b48e01b996cadc001622fb5e363b421",
            "stateRoot" : "0x998c638ddb986ce51957e3164668df171d4cf543c0f5e5d4e7dd938aa17ef31d",
            "timestamp" : "0x03b6",
            "transactionsTrie" : "0x56e81f171bcc55a6ff8345e692c0f86e5b48e01b996cadc001622fb5e363b421",
            "uncleHash" : "0x1dcc4de8dec75d7aab85b567b6ccd41ad312451b948a7413f0a142fd40d49347"
        },
        "genesisRLP" : "0xf901faf901f5a00000000000000000000000000000000000000000000000000000000000000000a01dcc4de8dec75d7aab85b567b6ccd41ad312451b948a7413f0a142fd40d49347942adc25665018aa1fe0e6bc666dac8fc2697ff9baa0998c638ddb986ce51957e3164668df171d4cf543c0f5e5d4e7dd938aa17ef31da056e81f171bcc55a6ff8345e692c0f86e5b48e01b996cadc001622fb5e363b421a056e81f171bcc55a6ff8345e692c0f86e5b48e01b996cadc001622fb5e363b421b90100000000000000000000000000000000000000000000000000000000000000000000000000000000000000000000000000000000000000000000000000000000000000000000000000000000000000000000000000000000000000000000000000000000000000000000000000000000000000000000000000000000000000000000000000000000000000000000000000000000000000000000000000000000000000000000000000000000000000000000000000000000000000000000000000000000000000000000000000000000000000000000000000000000000000000000000000000000000000000000000000000000000000000000000000000000008302000080830f4240808203b642a056e81f171bcc55a6ff8345e692c0f86e5b48e01b996cadc001622fb5e363b421880102030405060708c0c0",
        "lastblockhash" : "0x75c8905fce9c893f71c5945fcace6694b2e5595287b75bde3f6d10b3e92bec78",
        "network" : "Frontier",
        "postState" : {
            "0x095e7baea6a6c7c4c2dfeb977efac326af552d87" : {
                "balance" : "0x0de0b6b3a7640000",
                "code" : "0x6001600a556001600b5560006001556000600255600060035560006004556000600555",
                "nonce" : "0x00",
                "storage" : {
                    "0x0a" : "0x01",
                    "0x0b" : "0x01"
                }
            },
            "0x2adc25665018aa1fe0e6bc666dac8fc2697ff9ba" : {
                "balance" : "0x4563918244f4a80d",
                "code" : "",
                "nonce" : "0x00",
                "storage" : {
                }
            },
            "0xa94f5374fce5edbc8e2a8697c15331677e6ebf0b" : {
                "balance" : "0xde93",
                "code" : "",
                "nonce" : "0x01",
                "storage" : {
                }
            }
        },
        "pre" : {
            "0x095e7baea6a6c7c4c2dfeb977efac326af552d87" : {
                "balance" : "0x0de0b6b3a7640000",
                "code" : "0x6001600a556001600b5560006001556000600255600060035560006004556000600555",
                "nonce" : "0x00",
                "storage" : {
                    "0x01" : "0x01",
                    "0x02" : "0x01",
                    "0x03" : "0x01",
                    "0x04" : "0x01",
                    "0x05" : "0x01"
                }
            },
            "0xa94f5374fce5edbc8e2a8697c15331677e6ebf0b" : {
                "balance" : "0x0186a0",
                "code" : "",
                "nonce" : "0x00",
                "storage" : {
                }
            }
        }
    },
    "refund50_2_d0g0v0_Homestead" : {
        "_info" : {
            "comment" : "",
            "filledwith" : "cpp-1.3.0+commit.6e0ce939.Linux.g++",
            "lllcversion" : "Version: 0.4.18-develop.2017.9.25+commit.a72237f2.Linux.g++",
            "source" : "src/BlockchainTestsFiller/GeneralStateTests/stRefundTest/refund50_2_d0g0v0Filler.json",
            "sourceHash" : "54a2fb3ccbe2f6b6535e34b9006f9a74dad094926c323416f54bda3179e9d04b"
        },
        "blocks" : [
            {
                "blockHeader" : {
                    "bloom" : "0x00000000000000000000000000000000000000000000000000000000000000000000000000000000000000000000000000000000000000000000000000000000000000000000000000000000000000000000000000000000000000000000000000000000000000000000000000000000000000000000000000000000000000000000000000000000000000000000000000000000000000000000000000000000000000000000000000000000000000000000000000000000000000000000000000000000000000000000000000000000000000000000000000000000000000000000000000000000000000000000000000000000000000000000000000000000",
                    "coinbase" : "0x2adc25665018aa1fe0e6bc666dac8fc2697ff9ba",
                    "difficulty" : "0x020000",
                    "extraData" : "",
                    "gasLimit" : "0x0f4240",
                    "gasUsed" : "0xa80d",
                    "hash" : "0x9bf115908dc383b7ccb0a5f376a7db640fc171ea37686a8f220722c67c053730",
                    "mixHash" : "0x5afdc072f9079ac9b5c242ec7e5aabf5377ff759f143f4b23a0fe5d5a6f8b19e",
                    "nonce" : "0x9f6d054bed9d2191",
                    "number" : "0x01",
                    "parentHash" : "0xfefb16759225c7c0402986ead079ac1cc06b1a09c3b607e76a236cdf679787e7",
                    "receiptTrie" : "0x21f30d3b7761a302dbb167f49c308c40f21e7adff9efe21c2878e98fd037ac15",
                    "stateRoot" : "0xaa48cde6895623857de5fb9875806f493d3a62d70251225b4f010087f4aecc57",
                    "timestamp" : "0x03e8",
                    "transactionsTrie" : "0x1a6f603f2b897f76cf62e7761f72219bab8dc3bc444e0f605a49be5e55bd2fa5",
                    "uncleHash" : "0x1dcc4de8dec75d7aab85b567b6ccd41ad312451b948a7413f0a142fd40d49347"
                },
                "rlp" : "0xf9025ff901f7a0fefb16759225c7c0402986ead079ac1cc06b1a09c3b607e76a236cdf679787e7a01dcc4de8dec75d7aab85b567b6ccd41ad312451b948a7413f0a142fd40d49347942adc25665018aa1fe0e6bc666dac8fc2697ff9baa0aa48cde6895623857de5fb9875806f493d3a62d70251225b4f010087f4aecc57a01a6f603f2b897f76cf62e7761f72219bab8dc3bc444e0f605a49be5e55bd2fa5a021f30d3b7761a302dbb167f49c308c40f21e7adff9efe21c2878e98fd037ac15b90100000000000000000000000000000000000000000000000000000000000000000000000000000000000000000000000000000000000000000000000000000000000000000000000000000000000000000000000000000000000000000000000000000000000000000000000000000000000000000000000000000000000000000000000000000000000000000000000000000000000000000000000000000000000000000000000000000000000000000000000000000000000000000000000000000000000000000000000000000000000000000000000000000000000000000000000000000000000000000000000000000000000000000000000000000000008302000001830f424082a80d8203e880a05afdc072f9079ac9b5c242ec7e5aabf5377ff759f143f4b23a0fe5d5a6f8b19e889f6d054bed9d2191f862f8608001830186a094095e7baea6a6c7c4c2dfeb977efac326af552d8780801ba044ee42f1060fee5d97a26c8a0ae68cf034f74d28d85eed944db611239574a3c6a01789712c8973a1563405c9d841f7342afe23155336a1d9725e551efb2811d54ec0",
                "transactions" : [
                    {
                        "data" : "",
                        "gasLimit" : "0x0186a0",
                        "gasPrice" : "0x01",
                        "nonce" : "0x00",
                        "r" : "0x44ee42f1060fee5d97a26c8a0ae68cf034f74d28d85eed944db611239574a3c6",
                        "s" : "0x1789712c8973a1563405c9d841f7342afe23155336a1d9725e551efb2811d54e",
                        "to" : "0x095e7baea6a6c7c4c2dfeb977efac326af552d87",
                        "v" : "0x1b",
                        "value" : "0x00"
                    }
                ],
                "uncleHeaders" : [
                ]
            }
        ],
        "genesisBlockHeader" : {
            "bloom" : "0x00000000000000000000000000000000000000000000000000000000000000000000000000000000000000000000000000000000000000000000000000000000000000000000000000000000000000000000000000000000000000000000000000000000000000000000000000000000000000000000000000000000000000000000000000000000000000000000000000000000000000000000000000000000000000000000000000000000000000000000000000000000000000000000000000000000000000000000000000000000000000000000000000000000000000000000000000000000000000000000000000000000000000000000000000000000",
            "coinbase" : "0x2adc25665018aa1fe0e6bc666dac8fc2697ff9ba",
            "difficulty" : "0x020000",
            "extraData" : "0x42",
            "gasLimit" : "0x0f4240",
            "gasUsed" : "0x00",
            "hash" : "0xfefb16759225c7c0402986ead079ac1cc06b1a09c3b607e76a236cdf679787e7",
            "mixHash" : "0x56e81f171bcc55a6ff8345e692c0f86e5b48e01b996cadc001622fb5e363b421",
            "nonce" : "0x0102030405060708",
            "number" : "0x00",
            "parentHash" : "0x0000000000000000000000000000000000000000000000000000000000000000",
            "receiptTrie" : "0x56e81f171bcc55a6ff8345e692c0f86e5b48e01b996cadc001622fb5e363b421",
            "stateRoot" : "0x998c638ddb986ce51957e3164668df171d4cf543c0f5e5d4e7dd938aa17ef31d",
            "timestamp" : "0x03b6",
            "transactionsTrie" : "0x56e81f171bcc55a6ff8345e692c0f86e5b48e01b996cadc001622fb5e363b421",
            "uncleHash" : "0x1dcc4de8dec75d7aab85b567b6ccd41ad312451b948a7413f0a142fd40d49347"
        },
        "genesisRLP" : "0xf901faf901f5a00000000000000000000000000000000000000000000000000000000000000000a01dcc4de8dec75d7aab85b567b6ccd41ad312451b948a7413f0a142fd40d49347942adc25665018aa1fe0e6bc666dac8fc2697ff9baa0998c638ddb986ce51957e3164668df171d4cf543c0f5e5d4e7dd938aa17ef31da056e81f171bcc55a6ff8345e692c0f86e5b48e01b996cadc001622fb5e363b421a056e81f171bcc55a6ff8345e692c0f86e5b48e01b996cadc001622fb5e363b421b90100000000000000000000000000000000000000000000000000000000000000000000000000000000000000000000000000000000000000000000000000000000000000000000000000000000000000000000000000000000000000000000000000000000000000000000000000000000000000000000000000000000000000000000000000000000000000000000000000000000000000000000000000000000000000000000000000000000000000000000000000000000000000000000000000000000000000000000000000000000000000000000000000000000000000000000000000000000000000000000000000000000000000000000000000000000008302000080830f4240808203b642a056e81f171bcc55a6ff8345e692c0f86e5b48e01b996cadc001622fb5e363b421880102030405060708c0c0",
        "lastblockhash" : "0x9bf115908dc383b7ccb0a5f376a7db640fc171ea37686a8f220722c67c053730",
        "network" : "Homestead",
        "postState" : {
            "0x095e7baea6a6c7c4c2dfeb977efac326af552d87" : {
                "balance" : "0x0de0b6b3a7640000",
                "code" : "0x6001600a556001600b5560006001556000600255600060035560006004556000600555",
                "nonce" : "0x00",
                "storage" : {
                    "0x0a" : "0x01",
                    "0x0b" : "0x01"
                }
            },
            "0x2adc25665018aa1fe0e6bc666dac8fc2697ff9ba" : {
                "balance" : "0x4563918244f4a80d",
                "code" : "",
                "nonce" : "0x00",
                "storage" : {
                }
            },
            "0xa94f5374fce5edbc8e2a8697c15331677e6ebf0b" : {
                "balance" : "0xde93",
                "code" : "",
                "nonce" : "0x01",
                "storage" : {
                }
            }
        },
        "pre" : {
            "0x095e7baea6a6c7c4c2dfeb977efac326af552d87" : {
                "balance" : "0x0de0b6b3a7640000",
                "code" : "0x6001600a556001600b5560006001556000600255600060035560006004556000600555",
                "nonce" : "0x00",
                "storage" : {
                    "0x01" : "0x01",
                    "0x02" : "0x01",
                    "0x03" : "0x01",
                    "0x04" : "0x01",
                    "0x05" : "0x01"
                }
            },
            "0xa94f5374fce5edbc8e2a8697c15331677e6ebf0b" : {
                "balance" : "0x0186a0",
                "code" : "",
                "nonce" : "0x00",
                "storage" : {
                }
            }
        }
    }
}