{
    "refund_NoOOG_1_d0g0v0_Byzantium" : {
        "_info" : {
            "comment" : "",
            "filledwith" : "cpp-1.3.0+commit.6e0ce939.Linux.g++",
            "lllcversion" : "Version: 0.4.18-develop.2017.9.25+commit.a72237f2.Linux.g++",
            "source" : "src/BlockchainTestsFiller/GeneralStateTests/stRefundTest/refund_NoOOG_1_d0g0v0Filler.json",
            "sourceHash" : "a0dca0da787346ec5ad7dfc691e4e6dcff0bcd5ec05e10f3d5a5f03b33d96180"
        },
        "blocks" : [
            {
                "blockHeader" : {
                    "bloom" : "0x00000000000000000000000000000000000000000000000000000000000000000000000000000000000000000000000000000000000000000000000000000000000000000000000000000000000000000000000000000000000000000000000000000000000000000000000000000000000000000000000000000000000000000000000000000000000000000000000000000000000000000000000000000000000000000000000000000000000000000000000000000000000000000000000000000000000000000000000000000000000000000000000000000000000000000000000000000000000000000000000000000000000000000000000000000000",
                    "coinbase" : "0x2adc25665018aa1fe0e6bc666dac8fc2697ff9ba",
                    "difficulty" : "0x020000",
                    "extraData" : "",
                    "gasLimit" : "0x0f4240",
                    "gasUsed" : "0x32cb",
                    "hash" : "0x957706268cc9a7678fc7efa0ed0270985c766a7f31ab306c118713bc728e076f",
                    "mixHash" : "0x63a321cdc4c23241f965241d961ff3861ac49320b4adb315c5435081392b5459",
                    "nonce" : "0x9cbbd04ba33af7a5",
                    "number" : "0x01",
                    "parentHash" : "0x86c8b4f0dd3c2f62731dac19168bd66df9f787c833fafc6910c77e7ef9be489c",
                    "receiptTrie" : "0xbf746beefa19da059d5810cb7b32cde1e5afa402222d0cbeea17736d3f724c70",
                    "stateRoot" : "0xf08215bdc7ccdc70b06bd54f5dc67e7a0376e63cb2afe6fba64b1a809e4257ef",
                    "timestamp" : "0x03e8",
                    "transactionsTrie" : "0xdff45b1930feaf9a5f3ad5f3de43526ef9f483d9d4ce5287ff22f1ae8218ab8c",
                    "uncleHash" : "0x1dcc4de8dec75d7aab85b567b6ccd41ad312451b948a7413f0a142fd40d49347"
                },
                "rlp" : "0xf9025ef901f7a086c8b4f0dd3c2f62731dac19168bd66df9f787c833fafc6910c77e7ef9be489ca01dcc4de8dec75d7aab85b567b6ccd41ad312451b948a7413f0a142fd40d49347942adc25665018aa1fe0e6bc666dac8fc2697ff9baa0f08215bdc7ccdc70b06bd54f5dc67e7a0376e63cb2afe6fba64b1a809e4257efa0dff45b1930feaf9a5f3ad5f3de43526ef9f483d9d4ce5287ff22f1ae8218ab8ca0bf746beefa19da059d5810cb7b32cde1e5afa402222d0cbeea17736d3f724c70b90100000000000000000000000000000000000000000000000000000000000000000000000000000000000000000000000000000000000000000000000000000000000000000000000000000000000000000000000000000000000000000000000000000000000000000000000000000000000000000000000000000000000000000000000000000000000000000000000000000000000000000000000000000000000000000000000000000000000000000000000000000000000000000000000000000000000000000000000000000000000000000000000000000000000000000000000000000000000000000000000000000000000000000000000000000000008302000001830f42408232cb8203e880a063a321cdc4c23241f965241d961ff3861ac49320b4adb315c5435081392b5459889cbbd04ba33af7a5f861f85f800182659694095e7baea6a6c7c4c2dfeb977efac326af552d8780801ba0c44cd47f9661b5eb3d291053e0a2a2b1d63680a11abfd203a27cf7254a0e974fa01a548adb89e3a5ec1c812e810b127924c40de8e7ddd7c6a84b52e132481b69a0c0",
                "transactions" : [
                    {
                        "data" : "",
                        "gasLimit" : "0x6596",
                        "gasPrice" : "0x01",
                        "nonce" : "0x00",
                        "r" : "0xc44cd47f9661b5eb3d291053e0a2a2b1d63680a11abfd203a27cf7254a0e974f",
                        "s" : "0x1a548adb89e3a5ec1c812e810b127924c40de8e7ddd7c6a84b52e132481b69a0",
                        "to" : "0x095e7baea6a6c7c4c2dfeb977efac326af552d87",
                        "v" : "0x1b",
                        "value" : "0x00"
                    }
                ],
                "uncleHeaders" : [
                ]
            }
        ],
        "genesisBlockHeader" : {
            "bloom" : "0x00000000000000000000000000000000000000000000000000000000000000000000000000000000000000000000000000000000000000000000000000000000000000000000000000000000000000000000000000000000000000000000000000000000000000000000000000000000000000000000000000000000000000000000000000000000000000000000000000000000000000000000000000000000000000000000000000000000000000000000000000000000000000000000000000000000000000000000000000000000000000000000000000000000000000000000000000000000000000000000000000000000000000000000000000000000",
            "coinbase" : "0x2adc25665018aa1fe0e6bc666dac8fc2697ff9ba",
            "difficulty" : "0x020000",
            "extraData" : "0x42",
            "gasLimit" : "0x0f4240",
            "gasUsed" : "0x00",
            "hash" : "0x86c8b4f0dd3c2f62731dac19168bd66df9f787c833fafc6910c77e7ef9be489c",
            "mixHash" : "0x56e81f171bcc55a6ff8345e692c0f86e5b48e01b996cadc001622fb5e363b421",
            "nonce" : "0x0102030405060708",
            "number" : "0x00",
            "parentHash" : "0x0000000000000000000000000000000000000000000000000000000000000000",
            "receiptTrie" : "0x56e81f171bcc55a6ff8345e692c0f86e5b48e01b996cadc001622fb5e363b421",
            "stateRoot" : "0x922b9a9d20dd323e25ba37936527d2e5d98df97bb97635cbaf4f599840323170",
            "timestamp" : "0x03b6",
            "transactionsTrie" : "0x56e81f171bcc55a6ff8345e692c0f86e5b48e01b996cadc001622fb5e363b421",
            "uncleHash" : "0x1dcc4de8dec75d7aab85b567b6ccd41ad312451b948a7413f0a142fd40d49347"
        },
        "genesisRLP" : "0xf901faf901f5a00000000000000000000000000000000000000000000000000000000000000000a01dcc4de8dec75d7aab85b567b6ccd41ad312451b948a7413f0a142fd40d49347942adc25665018aa1fe0e6bc666dac8fc2697ff9baa0922b9a9d20dd323e25ba37936527d2e5d98df97bb97635cbaf4f599840323170a056e81f171bcc55a6ff8345e692c0f86e5b48e01b996cadc001622fb5e363b421a056e81f171bcc55a6ff8345e692c0f86e5b48e01b996cadc001622fb5e363b421b90100000000000000000000000000000000000000000000000000000000000000000000000000000000000000000000000000000000000000000000000000000000000000000000000000000000000000000000000000000000000000000000000000000000000000000000000000000000000000000000000000000000000000000000000000000000000000000000000000000000000000000000000000000000000000000000000000000000000000000000000000000000000000000000000000000000000000000000000000000000000000000000000000000000000000000000000000000000000000000000000000000000000000000000000000000000008302000080830f4240808203b642a056e81f171bcc55a6ff8345e692c0f86e5b48e01b996cadc001622fb5e363b421880102030405060708c0c0",
        "lastblockhash" : "0x957706268cc9a7678fc7efa0ed0270985c766a7f31ab306c118713bc728e076f",
        "network" : "Byzantium",
        "postState" : {
            "0x095e7baea6a6c7c4c2dfeb977efac326af552d87" : {
                "balance" : "0x0de0b6b3a7640000",
                "code" : "0x6000600155",
                "nonce" : "0x00",
                "storage" : {
                }
            },
            "0x2adc25665018aa1fe0e6bc666dac8fc2697ff9ba" : {
                "balance" : "0x29a2241af62c32cb",
                "code" : "",
                "nonce" : "0x00",
                "storage" : {
                }
            },
            "0xa94f5374fce5edbc8e2a8697c15331677e6ebf0b" : {
                "balance" : "0x914d",
                "code" : "",
                "nonce" : "0x01",
                "storage" : {
                }
            }
        },
        "pre" : {
            "0x095e7baea6a6c7c4c2dfeb977efac326af552d87" : {
                "balance" : "0x0de0b6b3a7640000",
                "code" : "0x6000600155",
                "nonce" : "0x00",
                "storage" : {
                    "0x01" : "0x01"
                }
            },
            "0xa94f5374fce5edbc8e2a8697c15331677e6ebf0b" : {
                "balance" : "0xc418",
                "code" : "",
                "nonce" : "0x00",
                "storage" : {
                }
            }
        }
    },
    "refund_NoOOG_1_d0g0v0_EIP150" : {
        "_info" : {
            "comment" : "",
            "filledwith" : "cpp-1.3.0+commit.6e0ce939.Linux.g++",
            "lllcversion" : "Version: 0.4.18-develop.2017.9.25+commit.a72237f2.Linux.g++",
            "source" : "src/BlockchainTestsFiller/GeneralStateTests/stRefundTest/refund_NoOOG_1_d0g0v0Filler.json",
            "sourceHash" : "a0dca0da787346ec5ad7dfc691e4e6dcff0bcd5ec05e10f3d5a5f03b33d96180"
        },
        "blocks" : [
            {
                "blockHeader" : {
                    "bloom" : "0x00000000000000000000000000000000000000000000000000000000000000000000000000000000000000000000000000000000000000000000000000000000000000000000000000000000000000000000000000000000000000000000000000000000000000000000000000000000000000000000000000000000000000000000000000000000000000000000000000000000000000000000000000000000000000000000000000000000000000000000000000000000000000000000000000000000000000000000000000000000000000000000000000000000000000000000000000000000000000000000000000000000000000000000000000000000",
                    "coinbase" : "0x2adc25665018aa1fe0e6bc666dac8fc2697ff9ba",
                    "difficulty" : "0x020000",
                    "extraData" : "",
                    "gasLimit" : "0x0f4240",
                    "gasUsed" : "0x32cb",
                    "hash" : "0x9e7b3c9a596575c85ed651c02984cc663204c2dc7526bc9c51ada91a81794bf1",
                    "mixHash" : "0x2e49531c114e71744cf29c1ba7293c9059201b39ddf96227213b2ca06b2555c9",
                    "nonce" : "0x4e8854ac52300622",
                    "number" : "0x01",
                    "parentHash" : "0x86c8b4f0dd3c2f62731dac19168bd66df9f787c833fafc6910c77e7ef9be489c",
                    "receiptTrie" : "0xe42dd64bbe84c58b43411fa38a6dc55dff569c4abbc12194b550378021911e27",
                    "stateRoot" : "0x8a3b9e13b008727c13709eb12a2d07bdddcfd4a7fc9a37dbacdd3bc722d7d5ed",
                    "timestamp" : "0x03e8",
                    "transactionsTrie" : "0xdff45b1930feaf9a5f3ad5f3de43526ef9f483d9d4ce5287ff22f1ae8218ab8c",
                    "uncleHash" : "0x1dcc4de8dec75d7aab85b567b6ccd41ad312451b948a7413f0a142fd40d49347"
                },
                "rlp" : "0xf9025ef901f7a086c8b4f0dd3c2f62731dac19168bd66df9f787c833fafc6910c77e7ef9be489ca01dcc4de8dec75d7aab85b567b6ccd41ad312451b948a7413f0a142fd40d49347942adc25665018aa1fe0e6bc666dac8fc2697ff9baa08a3b9e13b008727c13709eb12a2d07bdddcfd4a7fc9a37dbacdd3bc722d7d5eda0dff45b1930feaf9a5f3ad5f3de43526ef9f483d9d4ce5287ff22f1ae8218ab8ca0e42dd64bbe84c58b43411fa38a6dc55dff569c4abbc12194b550378021911e27b90100000000000000000000000000000000000000000000000000000000000000000000000000000000000000000000000000000000000000000000000000000000000000000000000000000000000000000000000000000000000000000000000000000000000000000000000000000000000000000000000000000000000000000000000000000000000000000000000000000000000000000000000000000000000000000000000000000000000000000000000000000000000000000000000000000000000000000000000000000000000000000000000000000000000000000000000000000000000000000000000000000000000000000000000000000000008302000001830f42408232cb8203e880a02e49531c114e71744cf29c1ba7293c9059201b39ddf96227213b2ca06b2555c9884e8854ac52300622f861f85f800182659694095e7baea6a6c7c4c2dfeb977efac326af552d8780801ba0c44cd47f9661b5eb3d291053e0a2a2b1d63680a11abfd203a27cf7254a0e974fa01a548adb89e3a5ec1c812e810b127924c40de8e7ddd7c6a84b52e132481b69a0c0",
                "transactions" : [
                    {
                        "data" : "",
                        "gasLimit" : "0x6596",
                        "gasPrice" : "0x01",
                        "nonce" : "0x00",
                        "r" : "0xc44cd47f9661b5eb3d291053e0a2a2b1d63680a11abfd203a27cf7254a0e974f",
                        "s" : "0x1a548adb89e3a5ec1c812e810b127924c40de8e7ddd7c6a84b52e132481b69a0",
                        "to" : "0x095e7baea6a6c7c4c2dfeb977efac326af552d87",
                        "v" : "0x1b",
                        "value" : "0x00"
                    }
                ],
                "uncleHeaders" : [
                ]
            }
        ],
        "genesisBlockHeader" : {
            "bloom" : "0x00000000000000000000000000000000000000000000000000000000000000000000000000000000000000000000000000000000000000000000000000000000000000000000000000000000000000000000000000000000000000000000000000000000000000000000000000000000000000000000000000000000000000000000000000000000000000000000000000000000000000000000000000000000000000000000000000000000000000000000000000000000000000000000000000000000000000000000000000000000000000000000000000000000000000000000000000000000000000000000000000000000000000000000000000000000",
            "coinbase" : "0x2adc25665018aa1fe0e6bc666dac8fc2697ff9ba",
            "difficulty" : "0x020000",
            "extraData" : "0x42",
            "gasLimit" : "0x0f4240",
            "gasUsed" : "0x00",
            "hash" : "0x86c8b4f0dd3c2f62731dac19168bd66df9f787c833fafc6910c77e7ef9be489c",
            "mixHash" : "0x56e81f171bcc55a6ff8345e692c0f86e5b48e01b996cadc001622fb5e363b421",
            "nonce" : "0x0102030405060708",
            "number" : "0x00",
            "parentHash" : "0x0000000000000000000000000000000000000000000000000000000000000000",
            "receiptTrie" : "0x56e81f171bcc55a6ff8345e692c0f86e5b48e01b996cadc001622fb5e363b421",
            "stateRoot" : "0x922b9a9d20dd323e25ba37936527d2e5d98df97bb97635cbaf4f599840323170",
            "timestamp" : "0x03b6",
            "transactionsTrie" : "0x56e81f171bcc55a6ff8345e692c0f86e5b48e01b996cadc001622fb5e363b421",
            "uncleHash" : "0x1dcc4de8dec75d7aab85b567b6ccd41ad312451b948a7413f0a142fd40d49347"
        },
        "genesisRLP" : "0xf901faf901f5a00000000000000000000000000000000000000000000000000000000000000000a01dcc4de8dec75d7aab85b567b6ccd41ad312451b948a7413f0a142fd40d49347942adc25665018aa1fe0e6bc666dac8fc2697ff9baa0922b9a9d20dd323e25ba37936527d2e5d98df97bb97635cbaf4f599840323170a056e81f171bcc55a6ff8345e692c0f86e5b48e01b996cadc001622fb5e363b421a056e81f171bcc55a6ff8345e692c0f86e5b48e01b996cadc001622fb5e363b421b90100000000000000000000000000000000000000000000000000000000000000000000000000000000000000000000000000000000000000000000000000000000000000000000000000000000000000000000000000000000000000000000000000000000000000000000000000000000000000000000000000000000000000000000000000000000000000000000000000000000000000000000000000000000000000000000000000000000000000000000000000000000000000000000000000000000000000000000000000000000000000000000000000000000000000000000000000000000000000000000000000000000000000000000000000000000008302000080830f4240808203b642a056e81f171bcc55a6ff8345e692c0f86e5b48e01b996cadc001622fb5e363b421880102030405060708c0c0",
        "lastblockhash" : "0x9e7b3c9a596575c85ed651c02984cc663204c2dc7526bc9c51ada91a81794bf1",
        "network" : "EIP150",
        "postState" : {
            "0x095e7baea6a6c7c4c2dfeb977efac326af552d87" : {
                "balance" : "0x0de0b6b3a7640000",
                "code" : "0x6000600155",
                "nonce" : "0x00",
                "storage" : {
                }
            },
            "0x2adc25665018aa1fe0e6bc666dac8fc2697ff9ba" : {
                "balance" : "0x4563918244f432cb",
                "code" : "",
                "nonce" : "0x00",
                "storage" : {
                }
            },
            "0xa94f5374fce5edbc8e2a8697c15331677e6ebf0b" : {
                "balance" : "0x914d",
                "code" : "",
                "nonce" : "0x01",
                "storage" : {
                }
            }
        },
        "pre" : {
            "0x095e7baea6a6c7c4c2dfeb977efac326af552d87" : {
                "balance" : "0x0de0b6b3a7640000",
                "code" : "0x6000600155",
                "nonce" : "0x00",
                "storage" : {
                    "0x01" : "0x01"
                }
            },
            "0xa94f5374fce5edbc8e2a8697c15331677e6ebf0b" : {
                "balance" : "0xc418",
                "code" : "",
                "nonce" : "0x00",
                "storage" : {
                }
            }
        }
    },
    "refund_NoOOG_1_d0g0v0_EIP158" : {
        "_info" : {
            "comment" : "",
            "filledwith" : "cpp-1.3.0+commit.6e0ce939.Linux.g++",
            "lllcversion" : "Version: 0.4.18-develop.2017.9.25+commit.a72237f2.Linux.g++",
            "source" : "src/BlockchainTestsFiller/GeneralStateTests/stRefundTest/refund_NoOOG_1_d0g0v0Filler.json",
            "sourceHash" : "a0dca0da787346ec5ad7dfc691e4e6dcff0bcd5ec05e10f3d5a5f03b33d96180"
        },
        "blocks" : [
            {
                "blockHeader" : {
                    "bloom" : "0x00000000000000000000000000000000000000000000000000000000000000000000000000000000000000000000000000000000000000000000000000000000000000000000000000000000000000000000000000000000000000000000000000000000000000000000000000000000000000000000000000000000000000000000000000000000000000000000000000000000000000000000000000000000000000000000000000000000000000000000000000000000000000000000000000000000000000000000000000000000000000000000000000000000000000000000000000000000000000000000000000000000000000000000000000000000",
                    "coinbase" : "0x2adc25665018aa1fe0e6bc666dac8fc2697ff9ba",
                    "difficulty" : "0x020000",
                    "extraData" : "",
                    "gasLimit" : "0x0f4240",
                    "gasUsed" : "0x32cb",
                    "hash" : "0xfdb7cfbc051b604efce641b64a2ebec229b64ea3dc26f06c0fe4961905eaa9d5",
                    "mixHash" : "0xadd8253170c75b56d45ac1d78a3a589a2d69ae0e4ca285a7ffb64d3712526023",
                    "nonce" : "0xa326346a7dc33c98",
                    "number" : "0x01",
                    "parentHash" : "0x86c8b4f0dd3c2f62731dac19168bd66df9f787c833fafc6910c77e7ef9be489c",
                    "receiptTrie" : "0xe42dd64bbe84c58b43411fa38a6dc55dff569c4abbc12194b550378021911e27",
                    "stateRoot" : "0x8a3b9e13b008727c13709eb12a2d07bdddcfd4a7fc9a37dbacdd3bc722d7d5ed",
                    "timestamp" : "0x03e8",
                    "transactionsTrie" : "0xdff45b1930feaf9a5f3ad5f3de43526ef9f483d9d4ce5287ff22f1ae8218ab8c",
                    "uncleHash" : "0x1dcc4de8dec75d7aab85b567b6ccd41ad312451b948a7413f0a142fd40d49347"
                },
                "rlp" : "0xf9025ef901f7a086c8b4f0dd3c2f62731dac19168bd66df9f787c833fafc6910c77e7ef9be489ca01dcc4de8dec75d7aab85b567b6ccd41ad312451b948a7413f0a142fd40d49347942adc25665018aa1fe0e6bc666dac8fc2697ff9baa08a3b9e13b008727c13709eb12a2d07bdddcfd4a7fc9a37dbacdd3bc722d7d5eda0dff45b1930feaf9a5f3ad5f3de43526ef9f483d9d4ce5287ff22f1ae8218ab8ca0e42dd64bbe84c58b43411fa38a6dc55dff569c4abbc12194b550378021911e27b90100000000000000000000000000000000000000000000000000000000000000000000000000000000000000000000000000000000000000000000000000000000000000000000000000000000000000000000000000000000000000000000000000000000000000000000000000000000000000000000000000000000000000000000000000000000000000000000000000000000000000000000000000000000000000000000000000000000000000000000000000000000000000000000000000000000000000000000000000000000000000000000000000000000000000000000000000000000000000000000000000000000000000000000000000000000008302000001830f42408232cb8203e880a0add8253170c75b56d45ac1d78a3a589a2d69ae0e4ca285a7ffb64d371252602388a326346a7dc33c98f861f85f800182659694095e7baea6a6c7c4c2dfeb977efac326af552d8780801ba0c44cd47f9661b5eb3d291053e0a2a2b1d63680a11abfd203a27cf7254a0e974fa01a548adb89e3a5ec1c812e810b127924c40de8e7ddd7c6a84b52e132481b69a0c0",
                "transactions" : [
                    {
                        "data" : "",
                        "gasLimit" : "0x6596",
                        "gasPrice" : "0x01",
                        "nonce" : "0x00",
                        "r" : "0xc44cd47f9661b5eb3d291053e0a2a2b1d63680a11abfd203a27cf7254a0e974f",
                        "s" : "0x1a548adb89e3a5ec1c812e810b127924c40de8e7ddd7c6a84b52e132481b69a0",
                        "to" : "0x095e7baea6a6c7c4c2dfeb977efac326af552d87",
                        "v" : "0x1b",
                        "value" : "0x00"
                    }
                ],
                "uncleHeaders" : [
                ]
            }
        ],
        "genesisBlockHeader" : {
            "bloom" : "0x00000000000000000000000000000000000000000000000000000000000000000000000000000000000000000000000000000000000000000000000000000000000000000000000000000000000000000000000000000000000000000000000000000000000000000000000000000000000000000000000000000000000000000000000000000000000000000000000000000000000000000000000000000000000000000000000000000000000000000000000000000000000000000000000000000000000000000000000000000000000000000000000000000000000000000000000000000000000000000000000000000000000000000000000000000000",
            "coinbase" : "0x2adc25665018aa1fe0e6bc666dac8fc2697ff9ba",
            "difficulty" : "0x020000",
            "extraData" : "0x42",
            "gasLimit" : "0x0f4240",
            "gasUsed" : "0x00",
            "hash" : "0x86c8b4f0dd3c2f62731dac19168bd66df9f787c833fafc6910c77e7ef9be489c",
            "mixHash" : "0x56e81f171bcc55a6ff8345e692c0f86e5b48e01b996cadc001622fb5e363b421",
            "nonce" : "0x0102030405060708",
            "number" : "0x00",
            "parentHash" : "0x0000000000000000000000000000000000000000000000000000000000000000",
            "receiptTrie" : "0x56e81f171bcc55a6ff8345e692c0f86e5b48e01b996cadc001622fb5e363b421",
            "stateRoot" : "0x922b9a9d20dd323e25ba37936527d2e5d98df97bb97635cbaf4f599840323170",
            "timestamp" : "0x03b6",
            "transactionsTrie" : "0x56e81f171bcc55a6ff8345e692c0f86e5b48e01b996cadc001622fb5e363b421",
            "uncleHash" : "0x1dcc4de8dec75d7aab85b567b6ccd41ad312451b948a7413f0a142fd40d49347"
        },
        "genesisRLP" : "0xf901faf901f5a00000000000000000000000000000000000000000000000000000000000000000a01dcc4de8dec75d7aab85b567b6ccd41ad312451b948a7413f0a142fd40d49347942adc25665018aa1fe0e6bc666dac8fc2697ff9baa0922b9a9d20dd323e25ba37936527d2e5d98df97bb97635cbaf4f599840323170a056e81f171bcc55a6ff8345e692c0f86e5b48e01b996cadc001622fb5e363b421a056e81f171bcc55a6ff8345e692c0f86e5b48e01b996cadc001622fb5e363b421b90100000000000000000000000000000000000000000000000000000000000000000000000000000000000000000000000000000000000000000000000000000000000000000000000000000000000000000000000000000000000000000000000000000000000000000000000000000000000000000000000000000000000000000000000000000000000000000000000000000000000000000000000000000000000000000000000000000000000000000000000000000000000000000000000000000000000000000000000000000000000000000000000000000000000000000000000000000000000000000000000000000000000000000000000000000000008302000080830f4240808203b642a056e81f171bcc55a6ff8345e692c0f86e5b48e01b996cadc001622fb5e363b421880102030405060708c0c0",
        "lastblockhash" : "0xfdb7cfbc051b604efce641b64a2ebec229b64ea3dc26f06c0fe4961905eaa9d5",
        "network" : "EIP158",
        "postState" : {
            "0x095e7baea6a6c7c4c2dfeb977efac326af552d87" : {
                "balance" : "0x0de0b6b3a7640000",
                "code" : "0x6000600155",
                "nonce" : "0x00",
                "storage" : {
                }
            },
            "0x2adc25665018aa1fe0e6bc666dac8fc2697ff9ba" : {
                "balance" : "0x4563918244f432cb",
                "code" : "",
                "nonce" : "0x00",
                "storage" : {
                }
            },
            "0xa94f5374fce5edbc8e2a8697c15331677e6ebf0b" : {
                "balance" : "0x914d",
                "code" : "",
                "nonce" : "0x01",
                "storage" : {
                }
            }
        },
        "pre" : {
            "0x095e7baea6a6c7c4c2dfeb977efac326af552d87" : {
                "balance" : "0x0de0b6b3a7640000",
                "code" : "0x6000600155",
                "nonce" : "0x00",
                "storage" : {
                    "0x01" : "0x01"
                }
            },
            "0xa94f5374fce5edbc8e2a8697c15331677e6ebf0b" : {
                "balance" : "0xc418",
                "code" : "",
                "nonce" : "0x00",
                "storage" : {
                }
            }
        }
    },
    "refund_NoOOG_1_d0g0v0_Frontier" : {
        "_info" : {
            "comment" : "",
            "filledwith" : "cpp-1.3.0+commit.6e0ce939.Linux.g++",
            "lllcversion" : "Version: 0.4.18-develop.2017.9.25+commit.a72237f2.Linux.g++",
            "source" : "src/BlockchainTestsFiller/GeneralStateTests/stRefundTest/refund_NoOOG_1_d0g0v0Filler.json",
            "sourceHash" : "a0dca0da787346ec5ad7dfc691e4e6dcff0bcd5ec05e10f3d5a5f03b33d96180"
        },
        "blocks" : [
            {
                "blockHeader" : {
                    "bloom" : "0x00000000000000000000000000000000000000000000000000000000000000000000000000000000000000000000000000000000000000000000000000000000000000000000000000000000000000000000000000000000000000000000000000000000000000000000000000000000000000000000000000000000000000000000000000000000000000000000000000000000000000000000000000000000000000000000000000000000000000000000000000000000000000000000000000000000000000000000000000000000000000000000000000000000000000000000000000000000000000000000000000000000000000000000000000000000",
                    "coinbase" : "0x2adc25665018aa1fe0e6bc666dac8fc2697ff9ba",
                    "difficulty" : "0x020000",
                    "extraData" : "",
                    "gasLimit" : "0x0f4240",
                    "gasUsed" : "0x32cb",
                    "hash" : "0xe3b7cfe800765ae1bac8bb525b42b42f7f71aa70ffc29fece56804cc0a868960",
                    "mixHash" : "0xb065fe10fd0c516402292f7a351341e568ff6f9eecfc33b22d5704e927a2f116",
                    "nonce" : "0x1ca0507562e2f6ed",
                    "number" : "0x01",
                    "parentHash" : "0x86c8b4f0dd3c2f62731dac19168bd66df9f787c833fafc6910c77e7ef9be489c",
                    "receiptTrie" : "0xe42dd64bbe84c58b43411fa38a6dc55dff569c4abbc12194b550378021911e27",
                    "stateRoot" : "0x8a3b9e13b008727c13709eb12a2d07bdddcfd4a7fc9a37dbacdd3bc722d7d5ed",
                    "timestamp" : "0x03e8",
                    "transactionsTrie" : "0xdff45b1930feaf9a5f3ad5f3de43526ef9f483d9d4ce5287ff22f1ae8218ab8c",
                    "uncleHash" : "0x1dcc4de8dec75d7aab85b567b6ccd41ad312451b948a7413f0a142fd40d49347"
                },
                "rlp" : "0xf9025ef901f7a086c8b4f0dd3c2f62731dac19168bd66df9f787c833fafc6910c77e7ef9be489ca01dcc4de8dec75d7aab85b567b6ccd41ad312451b948a7413f0a142fd40d49347942adc25665018aa1fe0e6bc666dac8fc2697ff9baa08a3b9e13b008727c13709eb12a2d07bdddcfd4a7fc9a37dbacdd3bc722d7d5eda0dff45b1930feaf9a5f3ad5f3de43526ef9f483d9d4ce5287ff22f1ae8218ab8ca0e42dd64bbe84c58b43411fa38a6dc55dff569c4abbc12194b550378021911e27b90100000000000000000000000000000000000000000000000000000000000000000000000000000000000000000000000000000000000000000000000000000000000000000000000000000000000000000000000000000000000000000000000000000000000000000000000000000000000000000000000000000000000000000000000000000000000000000000000000000000000000000000000000000000000000000000000000000000000000000000000000000000000000000000000000000000000000000000000000000000000000000000000000000000000000000000000000000000000000000000000000000000000000000000000000000000008302000001830f42408232cb8203e880a0b065fe10fd0c516402292f7a351341e568ff6f9eecfc33b22d5704e927a2f116881ca0507562e2f6edf861f85f800182659694095e7baea6a6c7c4c2dfeb977efac326af552d8780801ba0c44cd47f9661b5eb3d291053e0a2a2b1d63680a11abfd203a27cf7254a0e974fa01a548adb89e3a5ec1c812e810b127924c40de8e7ddd7c6a84b52e132481b69a0c0",
                "transactions" : [
                    {
                        "data" : "",
                        "gasLimit" : "0x6596",
                        "gasPrice" : "0x01",
                        "nonce" : "0x00",
                        "r" : "0xc44cd47f9661b5eb3d291053e0a2a2b1d63680a11abfd203a27cf7254a0e974f",
                        "s" : "0x1a548adb89e3a5ec1c812e810b127924c40de8e7ddd7c6a84b52e132481b69a0",
                        "to" : "0x095e7baea6a6c7c4c2dfeb977efac326af552d87",
                        "v" : "0x1b",
                        "value" : "0x00"
                    }
                ],
                "uncleHeaders" : [
                ]
            }
        ],
        "genesisBlockHeader" : {
            "bloom" : "0x00000000000000000000000000000000000000000000000000000000000000000000000000000000000000000000000000000000000000000000000000000000000000000000000000000000000000000000000000000000000000000000000000000000000000000000000000000000000000000000000000000000000000000000000000000000000000000000000000000000000000000000000000000000000000000000000000000000000000000000000000000000000000000000000000000000000000000000000000000000000000000000000000000000000000000000000000000000000000000000000000000000000000000000000000000000",
            "coinbase" : "0x2adc25665018aa1fe0e6bc666dac8fc2697ff9ba",
            "difficulty" : "0x020000",
            "extraData" : "0x42",
            "gasLimit" : "0x0f4240",
            "gasUsed" : "0x00",
            "hash" : "0x86c8b4f0dd3c2f62731dac19168bd66df9f787c833fafc6910c77e7ef9be489c",
            "mixHash" : "0x56e81f171bcc55a6ff8345e692c0f86e5b48e01b996cadc001622fb5e363b421",
            "nonce" : "0x0102030405060708",
            "number" : "0x00",
            "parentHash" : "0x0000000000000000000000000000000000000000000000000000000000000000",
            "receiptTrie" : "0x56e81f171bcc55a6ff8345e692c0f86e5b48e01b996cadc001622fb5e363b421",
            "stateRoot" : "0x922b9a9d20dd323e25ba37936527d2e5d98df97bb97635cbaf4f599840323170",
            "timestamp" : "0x03b6",
            "transactionsTrie" : "0x56e81f171bcc55a6ff8345e692c0f86e5b48e01b996cadc001622fb5e363b421",
            "uncleHash" : "0x1dcc4de8dec75d7aab85b567b6ccd41ad312451b948a7413f0a142fd40d49347"
        },
        "genesisRLP" : "0xf901faf901f5a00000000000000000000000000000000000000000000000000000000000000000a01dcc4de8dec75d7aab85b567b6ccd41ad312451b948a7413f0a142fd40d49347942adc25665018aa1fe0e6bc666dac8fc2697ff9baa0922b9a9d20dd323e25ba37936527d2e5d98df97bb97635cbaf4f599840323170a056e81f171bcc55a6ff8345e692c0f86e5b48e01b996cadc001622fb5e363b421a056e81f171bcc55a6ff8345e692c0f86e5b48e01b996cadc001622fb5e363b421b90100000000000000000000000000000000000000000000000000000000000000000000000000000000000000000000000000000000000000000000000000000000000000000000000000000000000000000000000000000000000000000000000000000000000000000000000000000000000000000000000000000000000000000000000000000000000000000000000000000000000000000000000000000000000000000000000000000000000000000000000000000000000000000000000000000000000000000000000000000000000000000000000000000000000000000000000000000000000000000000000000000000000000000000000000000000008302000080830f4240808203b642a056e81f171bcc55a6ff8345e692c0f86e5b48e01b996cadc001622fb5e363b421880102030405060708c0c0",
        "lastblockhash" : "0xe3b7cfe800765ae1bac8bb525b42b42f7f71aa70ffc29fece56804cc0a868960",
        "network" : "Frontier",
        "postState" : {
            "0x095e7baea6a6c7c4c2dfeb977efac326af552d87" : {
                "balance" : "0x0de0b6b3a7640000",
                "code" : "0x6000600155",
                "nonce" : "0x00",
                "storage" : {
                }
            },
            "0x2adc25665018aa1fe0e6bc666dac8fc2697ff9ba" : {
                "balance" : "0x4563918244f432cb",
                "code" : "",
                "nonce" : "0x00",
                "storage" : {
                }
            },
            "0xa94f5374fce5edbc8e2a8697c15331677e6ebf0b" : {
                "balance" : "0x914d",
                "code" : "",
                "nonce" : "0x01",
                "storage" : {
                }
            }
        },
        "pre" : {
            "0x095e7baea6a6c7c4c2dfeb977efac326af552d87" : {
                "balance" : "0x0de0b6b3a7640000",
                "code" : "0x6000600155",
                "nonce" : "0x00",
                "storage" : {
                    "0x01" : "0x01"
                }
            },
            "0xa94f5374fce5edbc8e2a8697c15331677e6ebf0b" : {
                "balance" : "0xc418",
                "code" : "",
                "nonce" : "0x00",
                "storage" : {
                }
            }
        }
    },
    "refund_NoOOG_1_d0g0v0_Homestead" : {
        "_info" : {
            "comment" : "",
            "filledwith" : "cpp-1.3.0+commit.6e0ce939.Linux.g++",
            "lllcversion" : "Version: 0.4.18-develop.2017.9.25+commit.a72237f2.Linux.g++",
            "source" : "src/BlockchainTestsFiller/GeneralStateTests/stRefundTest/refund_NoOOG_1_d0g0v0Filler.json",
            "sourceHash" : "a0dca0da787346ec5ad7dfc691e4e6dcff0bcd5ec05e10f3d5a5f03b33d96180"
        },
        "blocks" : [
            {
                "blockHeader" : {
                    "bloom" : "0x00000000000000000000000000000000000000000000000000000000000000000000000000000000000000000000000000000000000000000000000000000000000000000000000000000000000000000000000000000000000000000000000000000000000000000000000000000000000000000000000000000000000000000000000000000000000000000000000000000000000000000000000000000000000000000000000000000000000000000000000000000000000000000000000000000000000000000000000000000000000000000000000000000000000000000000000000000000000000000000000000000000000000000000000000000000",
                    "coinbase" : "0x2adc25665018aa1fe0e6bc666dac8fc2697ff9ba",
                    "difficulty" : "0x020000",
                    "extraData" : "",
                    "gasLimit" : "0x0f4240",
                    "gasUsed" : "0x32cb",
                    "hash" : "0x48c8c1cc2953f8122d66c2f9ab3ac62266ac9f28e14b60b0178048cba8e99f36",
                    "mixHash" : "0x9c5927bee891b853fcecd44b4b6b570ed0538f9abd1e9b9a0306ac17f2f242d0",
                    "nonce" : "0x3dd5314a5d689fde",
                    "number" : "0x01",
                    "parentHash" : "0x86c8b4f0dd3c2f62731dac19168bd66df9f787c833fafc6910c77e7ef9be489c",
                    "receiptTrie" : "0xe42dd64bbe84c58b43411fa38a6dc55dff569c4abbc12194b550378021911e27",
                    "stateRoot" : "0x8a3b9e13b008727c13709eb12a2d07bdddcfd4a7fc9a37dbacdd3bc722d7d5ed",
                    "timestamp" : "0x03e8",
                    "transactionsTrie" : "0xdff45b1930feaf9a5f3ad5f3de43526ef9f483d9d4ce5287ff22f1ae8218ab8c",
                    "uncleHash" : "0x1dcc4de8dec75d7aab85b567b6ccd41ad312451b948a7413f0a142fd40d49347"
                },
                "rlp" : "0xf9025ef901f7a086c8b4f0dd3c2f62731dac19168bd66df9f787c833fafc6910c77e7ef9be489ca01dcc4de8dec75d7aab85b567b6ccd41ad312451b948a7413f0a142fd40d49347942adc25665018aa1fe0e6bc666dac8fc2697ff9baa08a3b9e13b008727c13709eb12a2d07bdddcfd4a7fc9a37dbacdd3bc722d7d5eda0dff45b1930feaf9a5f3ad5f3de43526ef9f483d9d4ce5287ff22f1ae8218ab8ca0e42dd64bbe84c58b43411fa38a6dc55dff569c4abbc12194b550378021911e27b90100000000000000000000000000000000000000000000000000000000000000000000000000000000000000000000000000000000000000000000000000000000000000000000000000000000000000000000000000000000000000000000000000000000000000000000000000000000000000000000000000000000000000000000000000000000000000000000000000000000000000000000000000000000000000000000000000000000000000000000000000000000000000000000000000000000000000000000000000000000000000000000000000000000000000000000000000000000000000000000000000000000000000000000000000000000008302000001830f42408232cb8203e880a09c5927bee891b853fcecd44b4b6b570ed0538f9abd1e9b9a0306ac17f2f242d0883dd5314a5d689fdef861f85f800182659694095e7baea6a6c7c4c2dfeb977efac326af552d8780801ba0c44cd47f9661b5eb3d291053e0a2a2b1d63680a11abfd203a27cf7254a0e974fa01a548adb89e3a5ec1c812e810b127924c40de8e7ddd7c6a84b52e132481b69a0c0",
                "transactions" : [
                    {
                        "data" : "",
                        "gasLimit" : "0x6596",
                        "gasPrice" : "0x01",
                        "nonce" : "0x00",
                        "r" : "0xc44cd47f9661b5eb3d291053e0a2a2b1d63680a11abfd203a27cf7254a0e974f",
                        "s" : "0x1a548adb89e3a5ec1c812e810b127924c40de8e7ddd7c6a84b52e132481b69a0",
                        "to" : "0x095e7baea6a6c7c4c2dfeb977efac326af552d87",
                        "v" : "0x1b",
                        "value" : "0x00"
                    }
                ],
                "uncleHeaders" : [
                ]
            }
        ],
        "genesisBlockHeader" : {
            "bloom" : "0x00000000000000000000000000000000000000000000000000000000000000000000000000000000000000000000000000000000000000000000000000000000000000000000000000000000000000000000000000000000000000000000000000000000000000000000000000000000000000000000000000000000000000000000000000000000000000000000000000000000000000000000000000000000000000000000000000000000000000000000000000000000000000000000000000000000000000000000000000000000000000000000000000000000000000000000000000000000000000000000000000000000000000000000000000000000",
            "coinbase" : "0x2adc25665018aa1fe0e6bc666dac8fc2697ff9ba",
            "difficulty" : "0x020000",
            "extraData" : "0x42",
            "gasLimit" : "0x0f4240",
            "gasUsed" : "0x00",
            "hash" : "0x86c8b4f0dd3c2f62731dac19168bd66df9f787c833fafc6910c77e7ef9be489c",
            "mixHash" : "0x56e81f171bcc55a6ff8345e692c0f86e5b48e01b996cadc001622fb5e363b421",
            "nonce" : "0x0102030405060708",
            "number" : "0x00",
            "parentHash" : "0x0000000000000000000000000000000000000000000000000000000000000000",
            "receiptTrie" : "0x56e81f171bcc55a6ff8345e692c0f86e5b48e01b996cadc001622fb5e363b421",
            "stateRoot" : "0x922b9a9d20dd323e25ba37936527d2e5d98df97bb97635cbaf4f599840323170",
            "timestamp" : "0x03b6",
            "transactionsTrie" : "0x56e81f171bcc55a6ff8345e692c0f86e5b48e01b996cadc001622fb5e363b421",
            "uncleHash" : "0x1dcc4de8dec75d7aab85b567b6ccd41ad312451b948a7413f0a142fd40d49347"
        },
        "genesisRLP" : "0xf901faf901f5a00000000000000000000000000000000000000000000000000000000000000000a01dcc4de8dec75d7aab85b567b6ccd41ad312451b948a7413f0a142fd40d49347942adc25665018aa1fe0e6bc666dac8fc2697ff9baa0922b9a9d20dd323e25ba37936527d2e5d98df97bb97635cbaf4f599840323170a056e81f171bcc55a6ff8345e692c0f86e5b48e01b996cadc001622fb5e363b421a056e81f171bcc55a6ff8345e692c0f86e5b48e01b996cadc001622fb5e363b421b90100000000000000000000000000000000000000000000000000000000000000000000000000000000000000000000000000000000000000000000000000000000000000000000000000000000000000000000000000000000000000000000000000000000000000000000000000000000000000000000000000000000000000000000000000000000000000000000000000000000000000000000000000000000000000000000000000000000000000000000000000000000000000000000000000000000000000000000000000000000000000000000000000000000000000000000000000000000000000000000000000000000000000000000000000000000008302000080830f4240808203b642a056e81f171bcc55a6ff8345e692c0f86e5b48e01b996cadc001622fb5e363b421880102030405060708c0c0",
        "lastblockhash" : "0x48c8c1cc2953f8122d66c2f9ab3ac62266ac9f28e14b60b0178048cba8e99f36",
        "network" : "Homestead",
        "postState" : {
            "0x095e7baea6a6c7c4c2dfeb977efac326af552d87" : {
                "balance" : "0x0de0b6b3a7640000",
                "code" : "0x6000600155",
                "nonce" : "0x00",
                "storage" : {
                }
            },
            "0x2adc25665018aa1fe0e6bc666dac8fc2697ff9ba" : {
                "balance" : "0x4563918244f432cb",
                "code" : "",
                "nonce" : "0x00",
                "storage" : {
                }
            },
            "0xa94f5374fce5edbc8e2a8697c15331677e6ebf0b" : {
                "balance" : "0x914d",
                "code" : "",
                "nonce" : "0x01",
                "storage" : {
                }
            }
        },
        "pre" : {
            "0x095e7baea6a6c7c4c2dfeb977efac326af552d87" : {
                "balance" : "0x0de0b6b3a7640000",
                "code" : "0x6000600155",
                "nonce" : "0x00",
                "storage" : {
                    "0x01" : "0x01"
                }
            },
            "0xa94f5374fce5edbc8e2a8697c15331677e6ebf0b" : {
                "balance" : "0xc418",
                "code" : "",
                "nonce" : "0x00",
                "storage" : {
                }
            }
        }
    }
}