{
    "Callcode1024BalanceTooLow_d0g0v0_Byzantium" : {
        "_info" : {
            "comment" : "",
            "filledwith" : "cpp-1.3.0+commit.6e0ce939.Linux.g++",
            "lllcversion" : "Version: 0.4.18-develop.2017.9.25+commit.a72237f2.Linux.g++",
            "source" : "src/BlockchainTestsFiller/GeneralStateTests/stChangedEIP150/Callcode1024BalanceTooLow_d0g0v0Filler.json",
            "sourceHash" : "e422d47589dfcf68f85ae3d133038e1dfddf4d53c6eead55ed878985b2ff90a8"
        },
        "blocks" : [
            {
                "blockHeader" : {
                    "bloom" : "0x00000000000000000000000000000000000000000000000000000000000000000000000000000000000000000000000000000000000000000000000000000000000000000000000000000000000000000000000000000000000000000000000000000000000000000000000000000000000000000000000000000000000000000000000000000000000000000000000000000000000000000000000000000000000000000000000000000000000000000000000000000000000000000000000000000000000000000000000000000000000000000000000000000000000000000000000000000000000000000000000000000000000000000000000000000000",
                    "coinbase" : "0x2adc25665018aa1fe0e6bc666dac8fc2697ff9ba",
                    "difficulty" : "0x020000",
                    "extraData" : "",
                    "gasLimit" : "0x7fffffffffffffff",
                    "gasUsed" : "0x0117bce4",
                    "hash" : "0x1ad46f0d98276d96bdcb7e30964e86b8d797c198ca209174cc532f2cf3cf4b3d",
                    "mixHash" : "0x8e48eaabcbfa5c5df39f75b7184515261ca91e1e2da15ef7bf33bc5977ac5b10",
                    "nonce" : "0x01c89c5ba0ee6db7",
                    "number" : "0x01",
                    "parentHash" : "0xb3e7c21e3a0f8cb189e9ee35ca3666dbc629f1266dff806fa1913ceb6f35bcea",
                    "receiptTrie" : "0x3916ef002c14f35e24fbec7580b490cc1be018bf8705486ce2c1f5ed5e11548b",
                    "stateRoot" : "0xd16c4131e8a82085fa4f79b2e3fbde36513970bc7e3cad253aa9198ba2a164e9",
                    "timestamp" : "0x03e8",
                    "transactionsTrie" : "0x5d603792494b9643291b80b9dbc9d5fba242d8bfa214f915b041f1e91cf6c9ca",
                    "uncleHash" : "0x1dcc4de8dec75d7aab85b567b6ccd41ad312451b948a7413f0a142fd40d49347"
                },
                "rlp" : "0xf9026bf901fea0b3e7c21e3a0f8cb189e9ee35ca3666dbc629f1266dff806fa1913ceb6f35bceaa01dcc4de8dec75d7aab85b567b6ccd41ad312451b948a7413f0a142fd40d49347942adc25665018aa1fe0e6bc666dac8fc2697ff9baa0d16c4131e8a82085fa4f79b2e3fbde36513970bc7e3cad253aa9198ba2a164e9a05d603792494b9643291b80b9dbc9d5fba242d8bfa214f915b041f1e91cf6c9caa03916ef002c14f35e24fbec7580b490cc1be018bf8705486ce2c1f5ed5e11548bb90100000000000000000000000000000000000000000000000000000000000000000000000000000000000000000000000000000000000000000000000000000000000000000000000000000000000000000000000000000000000000000000000000000000000000000000000000000000000000000000000000000000000000000000000000000000000000000000000000000000000000000000000000000000000000000000000000000000000000000000000000000000000000000000000000000000000000000000000000000000000000000000000000000000000000000000000000000000000000000000000000000000000000000000000000000000008302000001887fffffffffffffff840117bce48203e880a08e48eaabcbfa5c5df39f75b7184515261ca91e1e2da15ef7bf33bc5977ac5b108801c89c5ba0ee6db7f867f8658001887ffffffffffffff094bbbf5374fce5edbc8e2a8697c15331677e6ebf0b0a801ca0949173aa91b1c62177a9d37740fcf7ecd6ab08cd1a0e7323fd61f5c5dbfd6b74a0392dbbe386b82a50d6af8e9c634002809a6601227f35c44af9eedf434a9be818c0",
                "transactions" : [
                    {
                        "data" : "",
                        "gasLimit" : "0x7ffffffffffffff0",
                        "gasPrice" : "0x01",
                        "nonce" : "0x00",
                        "r" : "0x949173aa91b1c62177a9d37740fcf7ecd6ab08cd1a0e7323fd61f5c5dbfd6b74",
                        "s" : "0x392dbbe386b82a50d6af8e9c634002809a6601227f35c44af9eedf434a9be818",
                        "to" : "0xbbbf5374fce5edbc8e2a8697c15331677e6ebf0b",
                        "v" : "0x1c",
                        "value" : "0x0a"
                    }
                ],
                "uncleHeaders" : [
                ]
            }
        ],
        "genesisBlockHeader" : {
            "bloom" : "0x00000000000000000000000000000000000000000000000000000000000000000000000000000000000000000000000000000000000000000000000000000000000000000000000000000000000000000000000000000000000000000000000000000000000000000000000000000000000000000000000000000000000000000000000000000000000000000000000000000000000000000000000000000000000000000000000000000000000000000000000000000000000000000000000000000000000000000000000000000000000000000000000000000000000000000000000000000000000000000000000000000000000000000000000000000000",
            "coinbase" : "0x2adc25665018aa1fe0e6bc666dac8fc2697ff9ba",
            "difficulty" : "0x020000",
            "extraData" : "0x42",
            "gasLimit" : "0x7fffffffffffffff",
            "gasUsed" : "0x00",
            "hash" : "0xb3e7c21e3a0f8cb189e9ee35ca3666dbc629f1266dff806fa1913ceb6f35bcea",
            "mixHash" : "0x56e81f171bcc55a6ff8345e692c0f86e5b48e01b996cadc001622fb5e363b421",
            "nonce" : "0x0102030405060708",
            "number" : "0x00",
            "parentHash" : "0x0000000000000000000000000000000000000000000000000000000000000000",
            "receiptTrie" : "0x56e81f171bcc55a6ff8345e692c0f86e5b48e01b996cadc001622fb5e363b421",
            "stateRoot" : "0x482bdc3fee00d6747e03877bbf2c19e5ddf26c72f366e831ca65b6d4ca2187bf",
            "timestamp" : "0x03b6",
            "transactionsTrie" : "0x56e81f171bcc55a6ff8345e692c0f86e5b48e01b996cadc001622fb5e363b421",
            "uncleHash" : "0x1dcc4de8dec75d7aab85b567b6ccd41ad312451b948a7413f0a142fd40d49347"
        },
        "genesisRLP" : "0xf901fff901faa00000000000000000000000000000000000000000000000000000000000000000a01dcc4de8dec75d7aab85b567b6ccd41ad312451b948a7413f0a142fd40d49347942adc25665018aa1fe0e6bc666dac8fc2697ff9baa0482bdc3fee00d6747e03877bbf2c19e5ddf26c72f366e831ca65b6d4ca2187bfa056e81f171bcc55a6ff8345e692c0f86e5b48e01b996cadc001622fb5e363b421a056e81f171bcc55a6ff8345e692c0f86e5b48e01b996cadc001622fb5e363b421b90100000000000000000000000000000000000000000000000000000000000000000000000000000000000000000000000000000000000000000000000000000000000000000000000000000000000000000000000000000000000000000000000000000000000000000000000000000000000000000000000000000000000000000000000000000000000000000000000000000000000000000000000000000000000000000000000000000000000000000000000000000000000000000000000000000000000000000000000000000000000000000000000000000000000000000000000000000000000000000000000000000000000000000000000000000000008302000080887fffffffffffffff808203b642a056e81f171bcc55a6ff8345e692c0f86e5b48e01b996cadc001622fb5e363b421880102030405060708c0c0",
        "lastblockhash" : "0x1ad46f0d98276d96bdcb7e30964e86b8d797c198ca209174cc532f2cf3cf4b3d",
        "network" : "Byzantium",
        "postState" : {
            "0x2adc25665018aa1fe0e6bc666dac8fc2697ff9ba" : {
                "balance" : "0x29a2241af743bce4",
                "code" : "",
                "nonce" : "0x00",
                "storage" : {
                }
            },
            "0xa94f5374fce5edbc8e2a8697c15331677e6ebf0b" : {
                "balance" : "0xfffffffffffffffffffffffffee84311",
                "code" : "",
                "nonce" : "0x01",
                "storage" : {
                }
            },
            "0xaaaf5374fce5edbc8e2a8697c15331677e6ebf0b" : {
                "balance" : "0x1b58",
                "code" : "",
                "nonce" : "0x00",
                "storage" : {
                }
            },
            "0xbbbf5374fce5edbc8e2a8697c15331677e6ebf0b" : {
                "balance" : "0x040a",
                "code" : "0x600160005401600055600060006000600060005473bbbf5374fce5edbc8e2a8697c15331677e6ebf0b650ffffffffffff2600155",
                "nonce" : "0x00",
                "storage" : {
                    "0x00" : "0x0401",
                    "0x01" : "0x01"
                }
            }
        },
        "pre" : {
            "0xa94f5374fce5edbc8e2a8697c15331677e6ebf0b" : {
                "balance" : "0xffffffffffffffffffffffffffffffff",
                "code" : "",
                "nonce" : "0x00",
                "storage" : {
                }
            },
            "0xaaaf5374fce5edbc8e2a8697c15331677e6ebf0b" : {
                "balance" : "0x1b58",
                "code" : "",
                "nonce" : "0x00",
                "storage" : {
                }
            },
            "0xbbbf5374fce5edbc8e2a8697c15331677e6ebf0b" : {
                "balance" : "0x0400",
                "code" : "0x600160005401600055600060006000600060005473bbbf5374fce5edbc8e2a8697c15331677e6ebf0b650ffffffffffff2600155",
                "nonce" : "0x00",
                "storage" : {
                }
            }
        }
    },
    "Callcode1024BalanceTooLow_d0g0v0_EIP150" : {
        "_info" : {
            "comment" : "",
            "filledwith" : "cpp-1.3.0+commit.6e0ce939.Linux.g++",
            "lllcversion" : "Version: 0.4.18-develop.2017.9.25+commit.a72237f2.Linux.g++",
            "source" : "src/BlockchainTestsFiller/GeneralStateTests/stChangedEIP150/Callcode1024BalanceTooLow_d0g0v0Filler.json",
            "sourceHash" : "e422d47589dfcf68f85ae3d133038e1dfddf4d53c6eead55ed878985b2ff90a8"
        },
        "blocks" : [
            {
                "blockHeader" : {
                    "bloom" : "0x00000000000000000000000000000000000000000000000000000000000000000000000000000000000000000000000000000000000000000000000000000000000000000000000000000000000000000000000000000000000000000000000000000000000000000000000000000000000000000000000000000000000000000000000000000000000000000000000000000000000000000000000000000000000000000000000000000000000000000000000000000000000000000000000000000000000000000000000000000000000000000000000000000000000000000000000000000000000000000000000000000000000000000000000000000000",
                    "coinbase" : "0x2adc25665018aa1fe0e6bc666dac8fc2697ff9ba",
                    "difficulty" : "0x020000",
                    "extraData" : "",
                    "gasLimit" : "0x7fffffffffffffff",
                    "gasUsed" : "0x0117bce4",
                    "hash" : "0x30811492d785001ca4287cd98ca10aaa664a567ebbabc72a3e9b50c9fd4928a4",
                    "mixHash" : "0x5ebfd958f973fd6e10c5c16f46d8c5d14c44a786c515e7e36557df1b66b474e9",
                    "nonce" : "0xfdd10ce7594e897f",
                    "number" : "0x01",
                    "parentHash" : "0xb3e7c21e3a0f8cb189e9ee35ca3666dbc629f1266dff806fa1913ceb6f35bcea",
                    "receiptTrie" : "0x49790fd18e7694030618faf1b6c312b91fd1428e180a2265746b8b21df8ce345",
                    "stateRoot" : "0x82e7c5b4c2adf0b0d9de967171e7381025dca7b83ae55768b9d66d8d6bf74114",
                    "timestamp" : "0x03e8",
                    "transactionsTrie" : "0x5d603792494b9643291b80b9dbc9d5fba242d8bfa214f915b041f1e91cf6c9ca",
                    "uncleHash" : "0x1dcc4de8dec75d7aab85b567b6ccd41ad312451b948a7413f0a142fd40d49347"
                },
                "rlp" : "0xf9026bf901fea0b3e7c21e3a0f8cb189e9ee35ca3666dbc629f1266dff806fa1913ceb6f35bceaa01dcc4de8dec75d7aab85b567b6ccd41ad312451b948a7413f0a142fd40d49347942adc25665018aa1fe0e6bc666dac8fc2697ff9baa082e7c5b4c2adf0b0d9de967171e7381025dca7b83ae55768b9d66d8d6bf74114a05d603792494b9643291b80b9dbc9d5fba242d8bfa214f915b041f1e91cf6c9caa049790fd18e7694030618faf1b6c312b91fd1428e180a2265746b8b21df8ce345b90100000000000000000000000000000000000000000000000000000000000000000000000000000000000000000000000000000000000000000000000000000000000000000000000000000000000000000000000000000000000000000000000000000000000000000000000000000000000000000000000000000000000000000000000000000000000000000000000000000000000000000000000000000000000000000000000000000000000000000000000000000000000000000000000000000000000000000000000000000000000000000000000000000000000000000000000000000000000000000000000000000000000000000000000000000000008302000001887fffffffffffffff840117bce48203e880a05ebfd958f973fd6e10c5c16f46d8c5d14c44a786c515e7e36557df1b66b474e988fdd10ce7594e897ff867f8658001887ffffffffffffff094bbbf5374fce5edbc8e2a8697c15331677e6ebf0b0a801ca0949173aa91b1c62177a9d37740fcf7ecd6ab08cd1a0e7323fd61f5c5dbfd6b74a0392dbbe386b82a50d6af8e9c634002809a6601227f35c44af9eedf434a9be818c0",
                "transactions" : [
                    {
                        "data" : "",
                        "gasLimit" : "0x7ffffffffffffff0",
                        "gasPrice" : "0x01",
                        "nonce" : "0x00",
                        "r" : "0x949173aa91b1c62177a9d37740fcf7ecd6ab08cd1a0e7323fd61f5c5dbfd6b74",
                        "s" : "0x392dbbe386b82a50d6af8e9c634002809a6601227f35c44af9eedf434a9be818",
                        "to" : "0xbbbf5374fce5edbc8e2a8697c15331677e6ebf0b",
                        "v" : "0x1c",
                        "value" : "0x0a"
                    }
                ],
                "uncleHeaders" : [
                ]
            }
        ],
        "genesisBlockHeader" : {
            "bloom" : "0x00000000000000000000000000000000000000000000000000000000000000000000000000000000000000000000000000000000000000000000000000000000000000000000000000000000000000000000000000000000000000000000000000000000000000000000000000000000000000000000000000000000000000000000000000000000000000000000000000000000000000000000000000000000000000000000000000000000000000000000000000000000000000000000000000000000000000000000000000000000000000000000000000000000000000000000000000000000000000000000000000000000000000000000000000000000",
            "coinbase" : "0x2adc25665018aa1fe0e6bc666dac8fc2697ff9ba",
            "difficulty" : "0x020000",
            "extraData" : "0x42",
            "gasLimit" : "0x7fffffffffffffff",
            "gasUsed" : "0x00",
            "hash" : "0xb3e7c21e3a0f8cb189e9ee35ca3666dbc629f1266dff806fa1913ceb6f35bcea",
            "mixHash" : "0x56e81f171bcc55a6ff8345e692c0f86e5b48e01b996cadc001622fb5e363b421",
            "nonce" : "0x0102030405060708",
            "number" : "0x00",
            "parentHash" : "0x0000000000000000000000000000000000000000000000000000000000000000",
            "receiptTrie" : "0x56e81f171bcc55a6ff8345e692c0f86e5b48e01b996cadc001622fb5e363b421",
            "stateRoot" : "0x482bdc3fee00d6747e03877bbf2c19e5ddf26c72f366e831ca65b6d4ca2187bf",
            "timestamp" : "0x03b6",
            "transactionsTrie" : "0x56e81f171bcc55a6ff8345e692c0f86e5b48e01b996cadc001622fb5e363b421",
            "uncleHash" : "0x1dcc4de8dec75d7aab85b567b6ccd41ad312451b948a7413f0a142fd40d49347"
        },
        "genesisRLP" : "0xf901fff901faa00000000000000000000000000000000000000000000000000000000000000000a01dcc4de8dec75d7aab85b567b6ccd41ad312451b948a7413f0a142fd40d49347942adc25665018aa1fe0e6bc666dac8fc2697ff9baa0482bdc3fee00d6747e03877bbf2c19e5ddf26c72f366e831ca65b6d4ca2187bfa056e81f171bcc55a6ff8345e692c0f86e5b48e01b996cadc001622fb5e363b421a056e81f171bcc55a6ff8345e692c0f86e5b48e01b996cadc001622fb5e363b421b90100000000000000000000000000000000000000000000000000000000000000000000000000000000000000000000000000000000000000000000000000000000000000000000000000000000000000000000000000000000000000000000000000000000000000000000000000000000000000000000000000000000000000000000000000000000000000000000000000000000000000000000000000000000000000000000000000000000000000000000000000000000000000000000000000000000000000000000000000000000000000000000000000000000000000000000000000000000000000000000000000000000000000000000000000000000008302000080887fffffffffffffff808203b642a056e81f171bcc55a6ff8345e692c0f86e5b48e01b996cadc001622fb5e363b421880102030405060708c0c0",
        "lastblockhash" : "0x30811492d785001ca4287cd98ca10aaa664a567ebbabc72a3e9b50c9fd4928a4",
        "network" : "EIP150",
        "postState" : {
            "0x2adc25665018aa1fe0e6bc666dac8fc2697ff9ba" : {
                "balance" : "0x45639182460bbce4",
                "code" : "",
                "nonce" : "0x00",
                "storage" : {
                }
            },
            "0xa94f5374fce5edbc8e2a8697c15331677e6ebf0b" : {
                "balance" : "0xfffffffffffffffffffffffffee84311",
                "code" : "",
                "nonce" : "0x01",
                "storage" : {
                }
            },
            "0xaaaf5374fce5edbc8e2a8697c15331677e6ebf0b" : {
                "balance" : "0x1b58",
                "code" : "",
                "nonce" : "0x00",
                "storage" : {
                }
            },
            "0xbbbf5374fce5edbc8e2a8697c15331677e6ebf0b" : {
                "balance" : "0x040a",
                "code" : "0x600160005401600055600060006000600060005473bbbf5374fce5edbc8e2a8697c15331677e6ebf0b650ffffffffffff2600155",
                "nonce" : "0x00",
                "storage" : {
                    "0x00" : "0x0401",
                    "0x01" : "0x01"
                }
            }
        },
        "pre" : {
            "0xa94f5374fce5edbc8e2a8697c15331677e6ebf0b" : {
                "balance" : "0xffffffffffffffffffffffffffffffff",
                "code" : "",
                "nonce" : "0x00",
                "storage" : {
                }
            },
            "0xaaaf5374fce5edbc8e2a8697c15331677e6ebf0b" : {
                "balance" : "0x1b58",
                "code" : "",
                "nonce" : "0x00",
                "storage" : {
                }
            },
            "0xbbbf5374fce5edbc8e2a8697c15331677e6ebf0b" : {
                "balance" : "0x0400",
                "code" : "0x600160005401600055600060006000600060005473bbbf5374fce5edbc8e2a8697c15331677e6ebf0b650ffffffffffff2600155",
                "nonce" : "0x00",
                "storage" : {
                }
            }
        }
    },
    "Callcode1024BalanceTooLow_d0g0v0_EIP158" : {
        "_info" : {
            "comment" : "",
            "filledwith" : "cpp-1.3.0+commit.6e0ce939.Linux.g++",
            "lllcversion" : "Version: 0.4.18-develop.2017.9.25+commit.a72237f2.Linux.g++",
            "source" : "src/BlockchainTestsFiller/GeneralStateTests/stChangedEIP150/Callcode1024BalanceTooLow_d0g0v0Filler.json",
            "sourceHash" : "e422d47589dfcf68f85ae3d133038e1dfddf4d53c6eead55ed878985b2ff90a8"
        },
        "blocks" : [
            {
                "blockHeader" : {
                    "bloom" : "0x00000000000000000000000000000000000000000000000000000000000000000000000000000000000000000000000000000000000000000000000000000000000000000000000000000000000000000000000000000000000000000000000000000000000000000000000000000000000000000000000000000000000000000000000000000000000000000000000000000000000000000000000000000000000000000000000000000000000000000000000000000000000000000000000000000000000000000000000000000000000000000000000000000000000000000000000000000000000000000000000000000000000000000000000000000000",
                    "coinbase" : "0x2adc25665018aa1fe0e6bc666dac8fc2697ff9ba",
                    "difficulty" : "0x020000",
                    "extraData" : "",
                    "gasLimit" : "0x7fffffffffffffff",
                    "gasUsed" : "0x0117bce4",
                    "hash" : "0x2839f0e175092939ae1489a74d03a9959ff919483c437b4dddd862f99f9c08d4",
                    "mixHash" : "0xe177c8a2ad5528cd72975fa6acd1815aeee943f4be50cca9a155582ce694222c",
                    "nonce" : "0x90ac97e0a7845d80",
                    "number" : "0x01",
                    "parentHash" : "0xb3e7c21e3a0f8cb189e9ee35ca3666dbc629f1266dff806fa1913ceb6f35bcea",
                    "receiptTrie" : "0x49790fd18e7694030618faf1b6c312b91fd1428e180a2265746b8b21df8ce345",
                    "stateRoot" : "0x82e7c5b4c2adf0b0d9de967171e7381025dca7b83ae55768b9d66d8d6bf74114",
                    "timestamp" : "0x03e8",
                    "transactionsTrie" : "0x5d603792494b9643291b80b9dbc9d5fba242d8bfa214f915b041f1e91cf6c9ca",
                    "uncleHash" : "0x1dcc4de8dec75d7aab85b567b6ccd41ad312451b948a7413f0a142fd40d49347"
                },
                "rlp" : "0xf9026bf901fea0b3e7c21e3a0f8cb189e9ee35ca3666dbc629f1266dff806fa1913ceb6f35bceaa01dcc4de8dec75d7aab85b567b6ccd41ad312451b948a7413f0a142fd40d49347942adc25665018aa1fe0e6bc666dac8fc2697ff9baa082e7c5b4c2adf0b0d9de967171e7381025dca7b83ae55768b9d66d8d6bf74114a05d603792494b9643291b80b9dbc9d5fba242d8bfa214f915b041f1e91cf6c9caa049790fd18e7694030618faf1b6c312b91fd1428e180a2265746b8b21df8ce345b90100000000000000000000000000000000000000000000000000000000000000000000000000000000000000000000000000000000000000000000000000000000000000000000000000000000000000000000000000000000000000000000000000000000000000000000000000000000000000000000000000000000000000000000000000000000000000000000000000000000000000000000000000000000000000000000000000000000000000000000000000000000000000000000000000000000000000000000000000000000000000000000000000000000000000000000000000000000000000000000000000000000000000000000000000000000008302000001887fffffffffffffff840117bce48203e880a0e177c8a2ad5528cd72975fa6acd1815aeee943f4be50cca9a155582ce694222c8890ac97e0a7845d80f867f8658001887ffffffffffffff094bbbf5374fce5edbc8e2a8697c15331677e6ebf0b0a801ca0949173aa91b1c62177a9d37740fcf7ecd6ab08cd1a0e7323fd61f5c5dbfd6b74a0392dbbe386b82a50d6af8e9c634002809a6601227f35c44af9eedf434a9be818c0",
                "transactions" : [
                    {
                        "data" : "",
                        "gasLimit" : "0x7ffffffffffffff0",
                        "gasPrice" : "0x01",
                        "nonce" : "0x00",
                        "r" : "0x949173aa91b1c62177a9d37740fcf7ecd6ab08cd1a0e7323fd61f5c5dbfd6b74",
                        "s" : "0x392dbbe386b82a50d6af8e9c634002809a6601227f35c44af9eedf434a9be818",
                        "to" : "0xbbbf5374fce5edbc8e2a8697c15331677e6ebf0b",
                        "v" : "0x1c",
                        "value" : "0x0a"
                    }
                ],
                "uncleHeaders" : [
                ]
            }
        ],
        "genesisBlockHeader" : {
            "bloom" : "0x00000000000000000000000000000000000000000000000000000000000000000000000000000000000000000000000000000000000000000000000000000000000000000000000000000000000000000000000000000000000000000000000000000000000000000000000000000000000000000000000000000000000000000000000000000000000000000000000000000000000000000000000000000000000000000000000000000000000000000000000000000000000000000000000000000000000000000000000000000000000000000000000000000000000000000000000000000000000000000000000000000000000000000000000000000000",
            "coinbase" : "0x2adc25665018aa1fe0e6bc666dac8fc2697ff9ba",
            "difficulty" : "0x020000",
            "extraData" : "0x42",
            "gasLimit" : "0x7fffffffffffffff",
            "gasUsed" : "0x00",
            "hash" : "0xb3e7c21e3a0f8cb189e9ee35ca3666dbc629f1266dff806fa1913ceb6f35bcea",
            "mixHash" : "0x56e81f171bcc55a6ff8345e692c0f86e5b48e01b996cadc001622fb5e363b421",
            "nonce" : "0x0102030405060708",
            "number" : "0x00",
            "parentHash" : "0x0000000000000000000000000000000000000000000000000000000000000000",
            "receiptTrie" : "0x56e81f171bcc55a6ff8345e692c0f86e5b48e01b996cadc001622fb5e363b421",
            "stateRoot" : "0x482bdc3fee00d6747e03877bbf2c19e5ddf26c72f366e831ca65b6d4ca2187bf",
            "timestamp" : "0x03b6",
            "transactionsTrie" : "0x56e81f171bcc55a6ff8345e692c0f86e5b48e01b996cadc001622fb5e363b421",
            "uncleHash" : "0x1dcc4de8dec75d7aab85b567b6ccd41ad312451b948a7413f0a142fd40d49347"
        },
        "genesisRLP" : "0xf901fff901faa00000000000000000000000000000000000000000000000000000000000000000a01dcc4de8dec75d7aab85b567b6ccd41ad312451b948a7413f0a142fd40d49347942adc25665018aa1fe0e6bc666dac8fc2697ff9baa0482bdc3fee00d6747e03877bbf2c19e5ddf26c72f366e831ca65b6d4ca2187bfa056e81f171bcc55a6ff8345e692c0f86e5b48e01b996cadc001622fb5e363b421a056e81f171bcc55a6ff8345e692c0f86e5b48e01b996cadc001622fb5e363b421b90100000000000000000000000000000000000000000000000000000000000000000000000000000000000000000000000000000000000000000000000000000000000000000000000000000000000000000000000000000000000000000000000000000000000000000000000000000000000000000000000000000000000000000000000000000000000000000000000000000000000000000000000000000000000000000000000000000000000000000000000000000000000000000000000000000000000000000000000000000000000000000000000000000000000000000000000000000000000000000000000000000000000000000000000000000000008302000080887fffffffffffffff808203b642a056e81f171bcc55a6ff8345e692c0f86e5b48e01b996cadc001622fb5e363b421880102030405060708c0c0",
        "lastblockhash" : "0x2839f0e175092939ae1489a74d03a9959ff919483c437b4dddd862f99f9c08d4",
        "network" : "EIP158",
        "postState" : {
            "0x2adc25665018aa1fe0e6bc666dac8fc2697ff9ba" : {
                "balance" : "0x45639182460bbce4",
                "code" : "",
                "nonce" : "0x00",
                "storage" : {
                }
            },
            "0xa94f5374fce5edbc8e2a8697c15331677e6ebf0b" : {
                "balance" : "0xfffffffffffffffffffffffffee84311",
                "code" : "",
                "nonce" : "0x01",
                "storage" : {
                }
            },
            "0xaaaf5374fce5edbc8e2a8697c15331677e6ebf0b" : {
                "balance" : "0x1b58",
                "code" : "",
                "nonce" : "0x00",
                "storage" : {
                }
            },
            "0xbbbf5374fce5edbc8e2a8697c15331677e6ebf0b" : {
                "balance" : "0x040a",
                "code" : "0x600160005401600055600060006000600060005473bbbf5374fce5edbc8e2a8697c15331677e6ebf0b650ffffffffffff2600155",
                "nonce" : "0x00",
                "storage" : {
                    "0x00" : "0x0401",
                    "0x01" : "0x01"
                }
            }
        },
        "pre" : {
            "0xa94f5374fce5edbc8e2a8697c15331677e6ebf0b" : {
                "balance" : "0xffffffffffffffffffffffffffffffff",
                "code" : "",
                "nonce" : "0x00",
                "storage" : {
                }
            },
            "0xaaaf5374fce5edbc8e2a8697c15331677e6ebf0b" : {
                "balance" : "0x1b58",
                "code" : "",
                "nonce" : "0x00",
                "storage" : {
                }
            },
            "0xbbbf5374fce5edbc8e2a8697c15331677e6ebf0b" : {
                "balance" : "0x0400",
                "code" : "0x600160005401600055600060006000600060005473bbbf5374fce5edbc8e2a8697c15331677e6ebf0b650ffffffffffff2600155",
                "nonce" : "0x00",
                "storage" : {
                }
            }
        }
    },
    "Callcode1024BalanceTooLow_d0g0v0_Frontier" : {
        "_info" : {
            "comment" : "",
            "filledwith" : "cpp-1.3.0+commit.6e0ce939.Linux.g++",
            "lllcversion" : "Version: 0.4.18-develop.2017.9.25+commit.a72237f2.Linux.g++",
            "source" : "src/BlockchainTestsFiller/GeneralStateTests/stChangedEIP150/Callcode1024BalanceTooLow_d0g0v0Filler.json",
            "sourceHash" : "e422d47589dfcf68f85ae3d133038e1dfddf4d53c6eead55ed878985b2ff90a8"
        },
        "blocks" : [
            {
                "blockHeader" : {
                    "bloom" : "0x00000000000000000000000000000000000000000000000000000000000000000000000000000000000000000000000000000000000000000000000000000000000000000000000000000000000000000000000000000000000000000000000000000000000000000000000000000000000000000000000000000000000000000000000000000000000000000000000000000000000000000000000000000000000000000000000000000000000000000000000000000000000000000000000000000000000000000000000000000000000000000000000000000000000000000000000000000000000000000000000000000000000000000000000000000000",
                    "coinbase" : "0x2adc25665018aa1fe0e6bc666dac8fc2697ff9ba",
                    "difficulty" : "0x020000",
                    "extraData" : "",
                    "gasLimit" : "0x7fffffffffffffff",
                    "gasUsed" : "0x10000000d787",
                    "hash" : "0x12bc47000557a9aa4792295c2c48b17bd5dd22b0670e42693b6f1b774523292b",
                    "mixHash" : "0x0731dc4383ec3226f42ef987949ebc5945f15b9ef71482cc6ae70733baa73fb5",
                    "nonce" : "0xcdf2c86425016356",
                    "number" : "0x01",
                    "parentHash" : "0xb3e7c21e3a0f8cb189e9ee35ca3666dbc629f1266dff806fa1913ceb6f35bcea",
                    "receiptTrie" : "0x15122440f1756027edc1ae4a387ca9947cdaf5539eb2f05f5887215479a932e2",
                    "stateRoot" : "0xacbbd40f8e0d6dee7ca8963df1133468cb31bd43e6cc10345a73891da97aef02",
                    "timestamp" : "0x03e8",
                    "transactionsTrie" : "0x5d603792494b9643291b80b9dbc9d5fba242d8bfa214f915b041f1e91cf6c9ca",
                    "uncleHash" : "0x1dcc4de8dec75d7aab85b567b6ccd41ad312451b948a7413f0a142fd40d49347"
                },
                "rlp" : "0xf9026df90200a0b3e7c21e3a0f8cb189e9ee35ca3666dbc629f1266dff806fa1913ceb6f35bceaa01dcc4de8dec75d7aab85b567b6ccd41ad312451b948a7413f0a142fd40d49347942adc25665018aa1fe0e6bc666dac8fc2697ff9baa0acbbd40f8e0d6dee7ca8963df1133468cb31bd43e6cc10345a73891da97aef02a05d603792494b9643291b80b9dbc9d5fba242d8bfa214f915b041f1e91cf6c9caa015122440f1756027edc1ae4a387ca9947cdaf5539eb2f05f5887215479a932e2b90100000000000000000000000000000000000000000000000000000000000000000000000000000000000000000000000000000000000000000000000000000000000000000000000000000000000000000000000000000000000000000000000000000000000000000000000000000000000000000000000000000000000000000000000000000000000000000000000000000000000000000000000000000000000000000000000000000000000000000000000000000000000000000000000000000000000000000000000000000000000000000000000000000000000000000000000000000000000000000000000000000000000000000000000000000000008302000001887fffffffffffffff8610000000d7878203e880a00731dc4383ec3226f42ef987949ebc5945f15b9ef71482cc6ae70733baa73fb588cdf2c86425016356f867f8658001887ffffffffffffff094bbbf5374fce5edbc8e2a8697c15331677e6ebf0b0a801ca0949173aa91b1c62177a9d37740fcf7ecd6ab08cd1a0e7323fd61f5c5dbfd6b74a0392dbbe386b82a50d6af8e9c634002809a6601227f35c44af9eedf434a9be818c0",
                "transactions" : [
                    {
                        "data" : "",
                        "gasLimit" : "0x7ffffffffffffff0",
                        "gasPrice" : "0x01",
                        "nonce" : "0x00",
                        "r" : "0x949173aa91b1c62177a9d37740fcf7ecd6ab08cd1a0e7323fd61f5c5dbfd6b74",
                        "s" : "0x392dbbe386b82a50d6af8e9c634002809a6601227f35c44af9eedf434a9be818",
                        "to" : "0xbbbf5374fce5edbc8e2a8697c15331677e6ebf0b",
                        "v" : "0x1c",
                        "value" : "0x0a"
                    }
                ],
                "uncleHeaders" : [
                ]
            }
        ],
        "genesisBlockHeader" : {
            "bloom" : "0x00000000000000000000000000000000000000000000000000000000000000000000000000000000000000000000000000000000000000000000000000000000000000000000000000000000000000000000000000000000000000000000000000000000000000000000000000000000000000000000000000000000000000000000000000000000000000000000000000000000000000000000000000000000000000000000000000000000000000000000000000000000000000000000000000000000000000000000000000000000000000000000000000000000000000000000000000000000000000000000000000000000000000000000000000000000",
            "coinbase" : "0x2adc25665018aa1fe0e6bc666dac8fc2697ff9ba",
            "difficulty" : "0x020000",
            "extraData" : "0x42",
            "gasLimit" : "0x7fffffffffffffff",
            "gasUsed" : "0x00",
            "hash" : "0xb3e7c21e3a0f8cb189e9ee35ca3666dbc629f1266dff806fa1913ceb6f35bcea",
            "mixHash" : "0x56e81f171bcc55a6ff8345e692c0f86e5b48e01b996cadc001622fb5e363b421",
            "nonce" : "0x0102030405060708",
            "number" : "0x00",
            "parentHash" : "0x0000000000000000000000000000000000000000000000000000000000000000",
            "receiptTrie" : "0x56e81f171bcc55a6ff8345e692c0f86e5b48e01b996cadc001622fb5e363b421",
            "stateRoot" : "0x482bdc3fee00d6747e03877bbf2c19e5ddf26c72f366e831ca65b6d4ca2187bf",
            "timestamp" : "0x03b6",
            "transactionsTrie" : "0x56e81f171bcc55a6ff8345e692c0f86e5b48e01b996cadc001622fb5e363b421",
            "uncleHash" : "0x1dcc4de8dec75d7aab85b567b6ccd41ad312451b948a7413f0a142fd40d49347"
        },
        "genesisRLP" : "0xf901fff901faa00000000000000000000000000000000000000000000000000000000000000000a01dcc4de8dec75d7aab85b567b6ccd41ad312451b948a7413f0a142fd40d49347942adc25665018aa1fe0e6bc666dac8fc2697ff9baa0482bdc3fee00d6747e03877bbf2c19e5ddf26c72f366e831ca65b6d4ca2187bfa056e81f171bcc55a6ff8345e692c0f86e5b48e01b996cadc001622fb5e363b421a056e81f171bcc55a6ff8345e692c0f86e5b48e01b996cadc001622fb5e363b421b90100000000000000000000000000000000000000000000000000000000000000000000000000000000000000000000000000000000000000000000000000000000000000000000000000000000000000000000000000000000000000000000000000000000000000000000000000000000000000000000000000000000000000000000000000000000000000000000000000000000000000000000000000000000000000000000000000000000000000000000000000000000000000000000000000000000000000000000000000000000000000000000000000000000000000000000000000000000000000000000000000000000000000000000000000000000008302000080887fffffffffffffff808203b642a056e81f171bcc55a6ff8345e692c0f86e5b48e01b996cadc001622fb5e363b421880102030405060708c0c0",
        "lastblockhash" : "0x12bc47000557a9aa4792295c2c48b17bd5dd22b0670e42693b6f1b774523292b",
        "network" : "Frontier",
        "postState" : {
            "0x2adc25665018aa1fe0e6bc666dac8fc2697ff9ba" : {
                "balance" : "0x4563a18244f4d787",
                "code" : "",
                "nonce" : "0x00",
                "storage" : {
                }
            },
            "0xa94f5374fce5edbc8e2a8697c15331677e6ebf0b" : {
                "balance" : "0xffffffffffffffffffffefffffff286e",
                "code" : "",
                "nonce" : "0x01",
                "storage" : {
                }
            },
            "0xaaaf5374fce5edbc8e2a8697c15331677e6ebf0b" : {
                "balance" : "0x1b58",
                "code" : "",
                "nonce" : "0x00",
                "storage" : {
                }
            },
            "0xbbbf5374fce5edbc8e2a8697c15331677e6ebf0b" : {
                "balance" : "0x040a",
                "code" : "0x600160005401600055600060006000600060005473bbbf5374fce5edbc8e2a8697c15331677e6ebf0b650ffffffffffff2600155",
                "nonce" : "0x00",
                "storage" : {
                    "0x00" : "0x01"
                }
            }
        },
        "pre" : {
            "0xa94f5374fce5edbc8e2a8697c15331677e6ebf0b" : {
                "balance" : "0xffffffffffffffffffffffffffffffff",
                "code" : "",
                "nonce" : "0x00",
                "storage" : {
                }
            },
            "0xaaaf5374fce5edbc8e2a8697c15331677e6ebf0b" : {
                "balance" : "0x1b58",
                "code" : "",
                "nonce" : "0x00",
                "storage" : {
                }
            },
            "0xbbbf5374fce5edbc8e2a8697c15331677e6ebf0b" : {
                "balance" : "0x0400",
                "code" : "0x600160005401600055600060006000600060005473bbbf5374fce5edbc8e2a8697c15331677e6ebf0b650ffffffffffff2600155",
                "nonce" : "0x00",
                "storage" : {
                }
            }
        }
    },
    "Callcode1024BalanceTooLow_d0g0v0_Homestead" : {
        "_info" : {
            "comment" : "",
            "filledwith" : "cpp-1.3.0+commit.6e0ce939.Linux.g++",
            "lllcversion" : "Version: 0.4.18-develop.2017.9.25+commit.a72237f2.Linux.g++",
            "source" : "src/BlockchainTestsFiller/GeneralStateTests/stChangedEIP150/Callcode1024BalanceTooLow_d0g0v0Filler.json",
            "sourceHash" : "e422d47589dfcf68f85ae3d133038e1dfddf4d53c6eead55ed878985b2ff90a8"
        },
        "blocks" : [
            {
                "blockHeader" : {
                    "bloom" : "0x00000000000000000000000000000000000000000000000000000000000000000000000000000000000000000000000000000000000000000000000000000000000000000000000000000000000000000000000000000000000000000000000000000000000000000000000000000000000000000000000000000000000000000000000000000000000000000000000000000000000000000000000000000000000000000000000000000000000000000000000000000000000000000000000000000000000000000000000000000000000000000000000000000000000000000000000000000000000000000000000000000000000000000000000000000000",
                    "coinbase" : "0x2adc25665018aa1fe0e6bc666dac8fc2697ff9ba",
                    "difficulty" : "0x020000",
                    "extraData" : "",
                    "gasLimit" : "0x7fffffffffffffff",
                    "gasUsed" : "0x10000000d787",
                    "hash" : "0xe70518a0f9e0319624ddf203b2179b6b61970b60c3b9bfc17e51ed6860ce1d9a",
                    "mixHash" : "0x43146d2569c24e81029e090043d61aab8d9e40a455b9a41722d6c331d33a7a22",
                    "nonce" : "0xb1b01cd1fae59e09",
                    "number" : "0x01",
                    "parentHash" : "0xb3e7c21e3a0f8cb189e9ee35ca3666dbc629f1266dff806fa1913ceb6f35bcea",
                    "receiptTrie" : "0x15122440f1756027edc1ae4a387ca9947cdaf5539eb2f05f5887215479a932e2",
                    "stateRoot" : "0xacbbd40f8e0d6dee7ca8963df1133468cb31bd43e6cc10345a73891da97aef02",
                    "timestamp" : "0x03e8",
                    "transactionsTrie" : "0x5d603792494b9643291b80b9dbc9d5fba242d8bfa214f915b041f1e91cf6c9ca",
                    "uncleHash" : "0x1dcc4de8dec75d7aab85b567b6ccd41ad312451b948a7413f0a142fd40d49347"
                },
                "rlp" : "0xf9026df90200a0b3e7c21e3a0f8cb189e9ee35ca3666dbc629f1266dff806fa1913ceb6f35bceaa01dcc4de8dec75d7aab85b567b6ccd41ad312451b948a7413f0a142fd40d49347942adc25665018aa1fe0e6bc666dac8fc2697ff9baa0acbbd40f8e0d6dee7ca8963df1133468cb31bd43e6cc10345a73891da97aef02a05d603792494b9643291b80b9dbc9d5fba242d8bfa214f915b041f1e91cf6c9caa015122440f1756027edc1ae4a387ca9947cdaf5539eb2f05f5887215479a932e2b90100000000000000000000000000000000000000000000000000000000000000000000000000000000000000000000000000000000000000000000000000000000000000000000000000000000000000000000000000000000000000000000000000000000000000000000000000000000000000000000000000000000000000000000000000000000000000000000000000000000000000000000000000000000000000000000000000000000000000000000000000000000000000000000000000000000000000000000000000000000000000000000000000000000000000000000000000000000000000000000000000000000000000000000000000000000008302000001887fffffffffffffff8610000000d7878203e880a043146d2569c24e81029e090043d61aab8d9e40a455b9a41722d6c331d33a7a2288b1b01cd1fae59e09f867f8658001887ffffffffffffff094bbbf5374fce5edbc8e2a8697c15331677e6ebf0b0a801ca0949173aa91b1c62177a9d37740fcf7ecd6ab08cd1a0e7323fd61f5c5dbfd6b74a0392dbbe386b82a50d6af8e9c634002809a6601227f35c44af9eedf434a9be818c0",
                "transactions" : [
                    {
                        "data" : "",
                        "gasLimit" : "0x7ffffffffffffff0",
                        "gasPrice" : "0x01",
                        "nonce" : "0x00",
                        "r" : "0x949173aa91b1c62177a9d37740fcf7ecd6ab08cd1a0e7323fd61f5c5dbfd6b74",
                        "s" : "0x392dbbe386b82a50d6af8e9c634002809a6601227f35c44af9eedf434a9be818",
                        "to" : "0xbbbf5374fce5edbc8e2a8697c15331677e6ebf0b",
                        "v" : "0x1c",
                        "value" : "0x0a"
                    }
                ],
                "uncleHeaders" : [
                ]
            }
        ],
        "genesisBlockHeader" : {
            "bloom" : "0x00000000000000000000000000000000000000000000000000000000000000000000000000000000000000000000000000000000000000000000000000000000000000000000000000000000000000000000000000000000000000000000000000000000000000000000000000000000000000000000000000000000000000000000000000000000000000000000000000000000000000000000000000000000000000000000000000000000000000000000000000000000000000000000000000000000000000000000000000000000000000000000000000000000000000000000000000000000000000000000000000000000000000000000000000000000",
            "coinbase" : "0x2adc25665018aa1fe0e6bc666dac8fc2697ff9ba",
            "difficulty" : "0x020000",
            "extraData" : "0x42",
            "gasLimit" : "0x7fffffffffffffff",
            "gasUsed" : "0x00",
            "hash" : "0xb3e7c21e3a0f8cb189e9ee35ca3666dbc629f1266dff806fa1913ceb6f35bcea",
            "mixHash" : "0x56e81f171bcc55a6ff8345e692c0f86e5b48e01b996cadc001622fb5e363b421",
            "nonce" : "0x0102030405060708",
            "number" : "0x00",
            "parentHash" : "0x0000000000000000000000000000000000000000000000000000000000000000",
            "receiptTrie" : "0x56e81f171bcc55a6ff8345e692c0f86e5b48e01b996cadc001622fb5e363b421",
            "stateRoot" : "0x482bdc3fee00d6747e03877bbf2c19e5ddf26c72f366e831ca65b6d4ca2187bf",
            "timestamp" : "0x03b6",
            "transactionsTrie" : "0x56e81f171bcc55a6ff8345e692c0f86e5b48e01b996cadc001622fb5e363b421",
            "uncleHash" : "0x1dcc4de8dec75d7aab85b567b6ccd41ad312451b948a7413f0a142fd40d49347"
        },
        "genesisRLP" : "0xf901fff901faa00000000000000000000000000000000000000000000000000000000000000000a01dcc4de8dec75d7aab85b567b6ccd41ad312451b948a7413f0a142fd40d49347942adc25665018aa1fe0e6bc666dac8fc2697ff9baa0482bdc3fee00d6747e03877bbf2c19e5ddf26c72f366e831ca65b6d4ca2187bfa056e81f171bcc55a6ff8345e692c0f86e5b48e01b996cadc001622fb5e363b421a056e81f171bcc55a6ff8345e692c0f86e5b48e01b996cadc001622fb5e363b421b90100000000000000000000000000000000000000000000000000000000000000000000000000000000000000000000000000000000000000000000000000000000000000000000000000000000000000000000000000000000000000000000000000000000000000000000000000000000000000000000000000000000000000000000000000000000000000000000000000000000000000000000000000000000000000000000000000000000000000000000000000000000000000000000000000000000000000000000000000000000000000000000000000000000000000000000000000000000000000000000000000000000000000000000000000000000008302000080887fffffffffffffff808203b642a056e81f171bcc55a6ff8345e692c0f86e5b48e01b996cadc001622fb5e363b421880102030405060708c0c0",
        "lastblockhash" : "0xe70518a0f9e0319624ddf203b2179b6b61970b60c3b9bfc17e51ed6860ce1d9a",
        "network" : "Homestead",
        "postState" : {
            "0x2adc25665018aa1fe0e6bc666dac8fc2697ff9ba" : {
                "balance" : "0x4563a18244f4d787",
                "code" : "",
                "nonce" : "0x00",
                "storage" : {
                }
            },
            "0xa94f5374fce5edbc8e2a8697c15331677e6ebf0b" : {
                "balance" : "0xffffffffffffffffffffefffffff286e",
                "code" : "",
                "nonce" : "0x01",
                "storage" : {
                }
            },
            "0xaaaf5374fce5edbc8e2a8697c15331677e6ebf0b" : {
                "balance" : "0x1b58",
                "code" : "",
                "nonce" : "0x00",
                "storage" : {
                }
            },
            "0xbbbf5374fce5edbc8e2a8697c15331677e6ebf0b" : {
                "balance" : "0x040a",
                "code" : "0x600160005401600055600060006000600060005473bbbf5374fce5edbc8e2a8697c15331677e6ebf0b650ffffffffffff2600155",
                "nonce" : "0x00",
                "storage" : {
                    "0x00" : "0x01"
                }
            }
        },
        "pre" : {
            "0xa94f5374fce5edbc8e2a8697c15331677e6ebf0b" : {
                "balance" : "0xffffffffffffffffffffffffffffffff",
                "code" : "",
                "nonce" : "0x00",
                "storage" : {
                }
            },
            "0xaaaf5374fce5edbc8e2a8697c15331677e6ebf0b" : {
                "balance" : "0x1b58",
                "code" : "",
                "nonce" : "0x00",
                "storage" : {
                }
            },
            "0xbbbf5374fce5edbc8e2a8697c15331677e6ebf0b" : {
                "balance" : "0x0400",
                "code" : "0x600160005401600055600060006000600060005473bbbf5374fce5edbc8e2a8697c15331677e6ebf0b650ffffffffffff2600155",
                "nonce" : "0x00",
                "storage" : {
                }
            }
        }
    }
}