{
    "createInitFail_OOGduringInit_d0g0v0_Byzantium" : {
        "_info" : {
            "comment" : "",
            "filledwith" : "cpp-1.3.0+commit.6e0ce939.Linux.g++",
            "lllcversion" : "Version: 0.4.18-develop.2017.9.25+commit.a72237f2.Linux.g++",
            "source" : "src/BlockchainTestsFiller/GeneralStateTests/stChangedEIP150/createInitFail_OOGduringInit_d0g0v0Filler.json",
            "sourceHash" : "6a8c19f618cd58ff478942b6ac4801f0c874bd5a9dcc1b9292cf9ad39545be55"
        },
        "blocks" : [
            {
                "blockHeader" : {
                    "bloom" : "0x00000000000000000000000000000000000000000000000000000000000000000000000000000000000000000000000000000000000000000000000000000000000000000000000000000000000000000000000000000000000000000000000000000000000000000000000000000000000000000000000000000000000000000000000000000000000000000000000000000000000000000000000000000000000000000000000000000000000000000000000000000000000000000000000000000000000000000000000000000000000000000000000000000000000000000000000000000000000000000000000000000000000000000000000000000000",
                    "coinbase" : "0x2adc25665018aa1fe0e6bc666dac8fc2697ff9ba",
                    "difficulty" : "0x020000",
                    "extraData" : "",
                    "gasLimit" : "0x989680",
                    "gasUsed" : "0xcf1d",
                    "hash" : "0xf4ebcba2825e0a102eef52117897af3e08de81a4540ebe81f374f600b8abd742",
                    "mixHash" : "0x08ddfdc3bf06a6a52f1360fce89efe226ab7d14b2c26f2c5c474dd9d3a54b2be",
                    "nonce" : "0x065ed27d16c33bb2",
                    "number" : "0x01",
                    "parentHash" : "0xc67f8e4343d6a3af656068890ed565f2e6af9d975d1008bb2cc8ead1f5763452",
                    "receiptTrie" : "0x00b8495dc39a1867756b3962d9316b90d7e98079aaa353df03c564f919ea4e81",
                    "stateRoot" : "0x6e2350a2158d4d013402ff76c151589280abd0727fb63d479dde3d9980bf8ce5",
                    "timestamp" : "0x03e8",
                    "transactionsTrie" : "0x11309db4993a5bca401d57cba6c8935a76825b48bf92f92c2ec8c6abd49145c3",
                    "uncleHash" : "0x1dcc4de8dec75d7aab85b567b6ccd41ad312451b948a7413f0a142fd40d49347"
                },
                "rlp" : "0xf90261f901f7a0c67f8e4343d6a3af656068890ed565f2e6af9d975d1008bb2cc8ead1f5763452a01dcc4de8dec75d7aab85b567b6ccd41ad312451b948a7413f0a142fd40d49347942adc25665018aa1fe0e6bc666dac8fc2697ff9baa06e2350a2158d4d013402ff76c151589280abd0727fb63d479dde3d9980bf8ce5a011309db4993a5bca401d57cba6c8935a76825b48bf92f92c2ec8c6abd49145c3a000b8495dc39a1867756b3962d9316b90d7e98079aaa353df03c564f919ea4e81b901000000000000000000000000000000000000000000000000000000000000000000000000000000000000000000000000000000000000000000000000000000000000000000000000000000000000000000000000000000000000000000000000000000000000000000000000000000000000000000000000000000000000000000000000000000000000000000000000000000000000000000000000000000000000000000000000000000000000000000000000000000000000000000000000000000000000000000000000000000000000000000000000000000000000000000000000000000000000000000000000000000000000000000000000000000000083020000018398968082cf1d8203e880a008ddfdc3bf06a6a52f1360fce89efe226ab7d14b2c26f2c5c474dd9d3a54b2be88065ed27d16c33bb2f864f862800182cf1d94095e7baea6a6c7c4c2dfeb977efac326af552d87830186a0801ca058292c95326dc6aa9439a010f5575311223728663a1e4e0fd0ae2774803557e7a0022b400032039b0f8d7454cdad95f811a1218468d216d8706c4a46297eb43a75c0",
                "transactions" : [
                    {
                        "data" : "",
                        "gasLimit" : "0xcf1d",
                        "gasPrice" : "0x01",
                        "nonce" : "0x00",
                        "r" : "0x58292c95326dc6aa9439a010f5575311223728663a1e4e0fd0ae2774803557e7",
                        "s" : "0x022b400032039b0f8d7454cdad95f811a1218468d216d8706c4a46297eb43a75",
                        "to" : "0x095e7baea6a6c7c4c2dfeb977efac326af552d87",
                        "v" : "0x1c",
                        "value" : "0x0186a0"
                    }
                ],
                "uncleHeaders" : [
                ]
            }
        ],
        "genesisBlockHeader" : {
            "bloom" : "0x00000000000000000000000000000000000000000000000000000000000000000000000000000000000000000000000000000000000000000000000000000000000000000000000000000000000000000000000000000000000000000000000000000000000000000000000000000000000000000000000000000000000000000000000000000000000000000000000000000000000000000000000000000000000000000000000000000000000000000000000000000000000000000000000000000000000000000000000000000000000000000000000000000000000000000000000000000000000000000000000000000000000000000000000000000000",
            "coinbase" : "0x2adc25665018aa1fe0e6bc666dac8fc2697ff9ba",
            "difficulty" : "0x020000",
            "extraData" : "0x42",
            "gasLimit" : "0x989680",
            "gasUsed" : "0x00",
            "hash" : "0xc67f8e4343d6a3af656068890ed565f2e6af9d975d1008bb2cc8ead1f5763452",
            "mixHash" : "0x56e81f171bcc55a6ff8345e692c0f86e5b48e01b996cadc001622fb5e363b421",
            "nonce" : "0x0102030405060708",
            "number" : "0x00",
            "parentHash" : "0x0000000000000000000000000000000000000000000000000000000000000000",
            "receiptTrie" : "0x56e81f171bcc55a6ff8345e692c0f86e5b48e01b996cadc001622fb5e363b421",
            "stateRoot" : "0xba26be8603c7a8dbae832d738290e9bcdbc83fadeea20a51073d09e51d4d3de9",
            "timestamp" : "0x03b6",
            "transactionsTrie" : "0x56e81f171bcc55a6ff8345e692c0f86e5b48e01b996cadc001622fb5e363b421",
            "uncleHash" : "0x1dcc4de8dec75d7aab85b567b6ccd41ad312451b948a7413f0a142fd40d49347"
        },
        "genesisRLP" : "0xf901faf901f5a00000000000000000000000000000000000000000000000000000000000000000a01dcc4de8dec75d7aab85b567b6ccd41ad312451b948a7413f0a142fd40d49347942adc25665018aa1fe0e6bc666dac8fc2697ff9baa0ba26be8603c7a8dbae832d738290e9bcdbc83fadeea20a51073d09e51d4d3de9a056e81f171bcc55a6ff8345e692c0f86e5b48e01b996cadc001622fb5e363b421a056e81f171bcc55a6ff8345e692c0f86e5b48e01b996cadc001622fb5e363b421b9010000000000000000000000000000000000000000000000000000000000000000000000000000000000000000000000000000000000000000000000000000000000000000000000000000000000000000000000000000000000000000000000000000000000000000000000000000000000000000000000000000000000000000000000000000000000000000000000000000000000000000000000000000000000000000000000000000000000000000000000000000000000000000000000000000000000000000000000000000000000000000000000000000000000000000000000000000000000000000000000000000000000000000000000000000000000830200008083989680808203b642a056e81f171bcc55a6ff8345e692c0f86e5b48e01b996cadc001622fb5e363b421880102030405060708c0c0",
        "lastblockhash" : "0xf4ebcba2825e0a102eef52117897af3e08de81a4540ebe81f374f600b8abd742",
        "network" : "Byzantium",
        "postState" : {
            "0x095e7baea6a6c7c4c2dfeb977efac326af552d87" : {
                "balance" : "0x0de0b6b3a7640000",
                "code" : "0x605a600053600160006001f0ff",
                "nonce" : "0x00",
                "storage" : {
                }
            },
            "0x2adc25665018aa1fe0e6bc666dac8fc2697ff9ba" : {
                "balance" : "0x29a2241af62ccf1d",
                "code" : "",
                "nonce" : "0x00",
                "storage" : {
                }
            },
            "0xa94f5374fce5edbc8e2a8697c15331677e6ebf0b" : {
                "balance" : "0x0de0b6b3a76330e3",
                "code" : "",
                "nonce" : "0x01",
                "storage" : {
                }
            }
        },
        "pre" : {
            "0x095e7baea6a6c7c4c2dfeb977efac326af552d87" : {
                "balance" : "0x0de0b6b3a7640000",
                "code" : "0x605a600053600160006001f0ff",
                "nonce" : "0x00",
                "storage" : {
                }
            },
            "0xa94f5374fce5edbc8e2a8697c15331677e6ebf0b" : {
                "balance" : "0x0de0b6b3a7640000",
                "code" : "",
                "nonce" : "0x00",
                "storage" : {
                }
            }
        }
    },
    "createInitFail_OOGduringInit_d0g0v0_EIP150" : {
        "_info" : {
            "comment" : "",
            "filledwith" : "cpp-1.3.0+commit.6e0ce939.Linux.g++",
            "lllcversion" : "Version: 0.4.18-develop.2017.9.25+commit.a72237f2.Linux.g++",
            "source" : "src/BlockchainTestsFiller/GeneralStateTests/stChangedEIP150/createInitFail_OOGduringInit_d0g0v0Filler.json",
            "sourceHash" : "6a8c19f618cd58ff478942b6ac4801f0c874bd5a9dcc1b9292cf9ad39545be55"
        },
        "blocks" : [
            {
                "blockHeader" : {
                    "bloom" : "0x00000000000000000000000000000000000000000000000000000000000000000000000000000000000000000000000000000000000000000000000000000000000000000000000000000000000000000000000000000000000000000000000000000000000000000000000000000000000000000000000000000000000000000000000000000000000000000000000000000000000000000000000000000000000000000000000000000000000000000000000000000000000000000000000000000000000000000000000000000000000000000000000000000000000000000000000000000000000000000000000000000000000000000000000000000000",
                    "coinbase" : "0x2adc25665018aa1fe0e6bc666dac8fc2697ff9ba",
                    "difficulty" : "0x020000",
                    "extraData" : "",
                    "gasLimit" : "0x989680",
                    "gasUsed" : "0xcf1d",
                    "hash" : "0xed5a5323f662d158e7eda601a0a6916f6929600668e4e53e60d3aa70f9531275",
                    "mixHash" : "0xab66ef9c8bd87a5debb63393c77ffb064bd1f94b7f8bd3c26920c246d524f5f4",
                    "nonce" : "0x2064ee5bee7781b7",
                    "number" : "0x01",
                    "parentHash" : "0xc67f8e4343d6a3af656068890ed565f2e6af9d975d1008bb2cc8ead1f5763452",
                    "receiptTrie" : "0x737a5dbc3c18897a7f7e9206228fae99838c01e328d6f2f3a6a62c7ff1788451",
                    "stateRoot" : "0x4b4e4993a4524e8ce1b5fa19bd4fe532d9cc4437a9213260d64fa350203b0bf2",
                    "timestamp" : "0x03e8",
                    "transactionsTrie" : "0x11309db4993a5bca401d57cba6c8935a76825b48bf92f92c2ec8c6abd49145c3",
                    "uncleHash" : "0x1dcc4de8dec75d7aab85b567b6ccd41ad312451b948a7413f0a142fd40d49347"
                },
                "rlp" : "0xf90261f901f7a0c67f8e4343d6a3af656068890ed565f2e6af9d975d1008bb2cc8ead1f5763452a01dcc4de8dec75d7aab85b567b6ccd41ad312451b948a7413f0a142fd40d49347942adc25665018aa1fe0e6bc666dac8fc2697ff9baa04b4e4993a4524e8ce1b5fa19bd4fe532d9cc4437a9213260d64fa350203b0bf2a011309db4993a5bca401d57cba6c8935a76825b48bf92f92c2ec8c6abd49145c3a0737a5dbc3c18897a7f7e9206228fae99838c01e328d6f2f3a6a62c7ff1788451b901000000000000000000000000000000000000000000000000000000000000000000000000000000000000000000000000000000000000000000000000000000000000000000000000000000000000000000000000000000000000000000000000000000000000000000000000000000000000000000000000000000000000000000000000000000000000000000000000000000000000000000000000000000000000000000000000000000000000000000000000000000000000000000000000000000000000000000000000000000000000000000000000000000000000000000000000000000000000000000000000000000000000000000000000000000000083020000018398968082cf1d8203e880a0ab66ef9c8bd87a5debb63393c77ffb064bd1f94b7f8bd3c26920c246d524f5f4882064ee5bee7781b7f864f862800182cf1d94095e7baea6a6c7c4c2dfeb977efac326af552d87830186a0801ca058292c95326dc6aa9439a010f5575311223728663a1e4e0fd0ae2774803557e7a0022b400032039b0f8d7454cdad95f811a1218468d216d8706c4a46297eb43a75c0",
                "transactions" : [
                    {
                        "data" : "",
                        "gasLimit" : "0xcf1d",
                        "gasPrice" : "0x01",
                        "nonce" : "0x00",
                        "r" : "0x58292c95326dc6aa9439a010f5575311223728663a1e4e0fd0ae2774803557e7",
                        "s" : "0x022b400032039b0f8d7454cdad95f811a1218468d216d8706c4a46297eb43a75",
                        "to" : "0x095e7baea6a6c7c4c2dfeb977efac326af552d87",
                        "v" : "0x1c",
                        "value" : "0x0186a0"
                    }
                ],
                "uncleHeaders" : [
                ]
            }
        ],
        "genesisBlockHeader" : {
            "bloom" : "0x00000000000000000000000000000000000000000000000000000000000000000000000000000000000000000000000000000000000000000000000000000000000000000000000000000000000000000000000000000000000000000000000000000000000000000000000000000000000000000000000000000000000000000000000000000000000000000000000000000000000000000000000000000000000000000000000000000000000000000000000000000000000000000000000000000000000000000000000000000000000000000000000000000000000000000000000000000000000000000000000000000000000000000000000000000000",
            "coinbase" : "0x2adc25665018aa1fe0e6bc666dac8fc2697ff9ba",
            "difficulty" : "0x020000",
            "extraData" : "0x42",
            "gasLimit" : "0x989680",
            "gasUsed" : "0x00",
            "hash" : "0xc67f8e4343d6a3af656068890ed565f2e6af9d975d1008bb2cc8ead1f5763452",
            "mixHash" : "0x56e81f171bcc55a6ff8345e692c0f86e5b48e01b996cadc001622fb5e363b421",
            "nonce" : "0x0102030405060708",
            "number" : "0x00",
            "parentHash" : "0x0000000000000000000000000000000000000000000000000000000000000000",
            "receiptTrie" : "0x56e81f171bcc55a6ff8345e692c0f86e5b48e01b996cadc001622fb5e363b421",
            "stateRoot" : "0xba26be8603c7a8dbae832d738290e9bcdbc83fadeea20a51073d09e51d4d3de9",
            "timestamp" : "0x03b6",
            "transactionsTrie" : "0x56e81f171bcc55a6ff8345e692c0f86e5b48e01b996cadc001622fb5e363b421",
            "uncleHash" : "0x1dcc4de8dec75d7aab85b567b6ccd41ad312451b948a7413f0a142fd40d49347"
        },
        "genesisRLP" : "0xf901faf901f5a00000000000000000000000000000000000000000000000000000000000000000a01dcc4de8dec75d7aab85b567b6ccd41ad312451b948a7413f0a142fd40d49347942adc25665018aa1fe0e6bc666dac8fc2697ff9baa0ba26be8603c7a8dbae832d738290e9bcdbc83fadeea20a51073d09e51d4d3de9a056e81f171bcc55a6ff8345e692c0f86e5b48e01b996cadc001622fb5e363b421a056e81f171bcc55a6ff8345e692c0f86e5b48e01b996cadc001622fb5e363b421b9010000000000000000000000000000000000000000000000000000000000000000000000000000000000000000000000000000000000000000000000000000000000000000000000000000000000000000000000000000000000000000000000000000000000000000000000000000000000000000000000000000000000000000000000000000000000000000000000000000000000000000000000000000000000000000000000000000000000000000000000000000000000000000000000000000000000000000000000000000000000000000000000000000000000000000000000000000000000000000000000000000000000000000000000000000000000830200008083989680808203b642a056e81f171bcc55a6ff8345e692c0f86e5b48e01b996cadc001622fb5e363b421880102030405060708c0c0",
        "lastblockhash" : "0xed5a5323f662d158e7eda601a0a6916f6929600668e4e53e60d3aa70f9531275",
        "network" : "EIP150",
        "postState" : {
            "0x095e7baea6a6c7c4c2dfeb977efac326af552d87" : {
                "balance" : "0x0de0b6b3a7640000",
                "code" : "0x605a600053600160006001f0ff",
                "nonce" : "0x00",
                "storage" : {
                }
            },
            "0x2adc25665018aa1fe0e6bc666dac8fc2697ff9ba" : {
                "balance" : "0x4563918244f4cf1d",
                "code" : "",
                "nonce" : "0x00",
                "storage" : {
                }
            },
            "0xa94f5374fce5edbc8e2a8697c15331677e6ebf0b" : {
                "balance" : "0x0de0b6b3a76330e3",
                "code" : "",
                "nonce" : "0x01",
                "storage" : {
                }
            }
        },
        "pre" : {
            "0x095e7baea6a6c7c4c2dfeb977efac326af552d87" : {
                "balance" : "0x0de0b6b3a7640000",
                "code" : "0x605a600053600160006001f0ff",
                "nonce" : "0x00",
                "storage" : {
                }
            },
            "0xa94f5374fce5edbc8e2a8697c15331677e6ebf0b" : {
                "balance" : "0x0de0b6b3a7640000",
                "code" : "",
                "nonce" : "0x00",
                "storage" : {
                }
            }
        }
    },
    "createInitFail_OOGduringInit_d0g0v0_EIP158" : {
        "_info" : {
            "comment" : "",
            "filledwith" : "cpp-1.3.0+commit.6e0ce939.Linux.g++",
            "lllcversion" : "Version: 0.4.18-develop.2017.9.25+commit.a72237f2.Linux.g++",
            "source" : "src/BlockchainTestsFiller/GeneralStateTests/stChangedEIP150/createInitFail_OOGduringInit_d0g0v0Filler.json",
            "sourceHash" : "6a8c19f618cd58ff478942b6ac4801f0c874bd5a9dcc1b9292cf9ad39545be55"
        },
        "blocks" : [
            {
                "blockHeader" : {
                    "bloom" : "0x00000000000000000000000000000000000000000000000000000000000000000000000000000000000000000000000000000000000000000000000000000000000000000000000000000000000000000000000000000000000000000000000000000000000000000000000000000000000000000000000000000000000000000000000000000000000000000000000000000000000000000000000000000000000000000000000000000000000000000000000000000000000000000000000000000000000000000000000000000000000000000000000000000000000000000000000000000000000000000000000000000000000000000000000000000000",
                    "coinbase" : "0x2adc25665018aa1fe0e6bc666dac8fc2697ff9ba",
                    "difficulty" : "0x020000",
                    "extraData" : "",
                    "gasLimit" : "0x989680",
                    "gasUsed" : "0xcf1d",
                    "hash" : "0x674dd3b3389c4650a5059b63eb7c137cede472b1139cb3514050043aa2e0fcdf",
                    "mixHash" : "0xc521474f9dc4f479643dbbb7738c2b38d17e4f4de925a7eeb090b8a6f6c6e453",
                    "nonce" : "0x324d034f4c2eaa56",
                    "number" : "0x01",
                    "parentHash" : "0xc67f8e4343d6a3af656068890ed565f2e6af9d975d1008bb2cc8ead1f5763452",
                    "receiptTrie" : "0x737a5dbc3c18897a7f7e9206228fae99838c01e328d6f2f3a6a62c7ff1788451",
                    "stateRoot" : "0x4b4e4993a4524e8ce1b5fa19bd4fe532d9cc4437a9213260d64fa350203b0bf2",
                    "timestamp" : "0x03e8",
                    "transactionsTrie" : "0x11309db4993a5bca401d57cba6c8935a76825b48bf92f92c2ec8c6abd49145c3",
                    "uncleHash" : "0x1dcc4de8dec75d7aab85b567b6ccd41ad312451b948a7413f0a142fd40d49347"
                },
                "rlp" : "0xf90261f901f7a0c67f8e4343d6a3af656068890ed565f2e6af9d975d1008bb2cc8ead1f5763452a01dcc4de8dec75d7aab85b567b6ccd41ad312451b948a7413f0a142fd40d49347942adc25665018aa1fe0e6bc666dac8fc2697ff9baa04b4e4993a4524e8ce1b5fa19bd4fe532d9cc4437a9213260d64fa350203b0bf2a011309db4993a5bca401d57cba6c8935a76825b48bf92f92c2ec8c6abd49145c3a0737a5dbc3c18897a7f7e9206228fae99838c01e328d6f2f3a6a62c7ff1788451b901000000000000000000000000000000000000000000000000000000000000000000000000000000000000000000000000000000000000000000000000000000000000000000000000000000000000000000000000000000000000000000000000000000000000000000000000000000000000000000000000000000000000000000000000000000000000000000000000000000000000000000000000000000000000000000000000000000000000000000000000000000000000000000000000000000000000000000000000000000000000000000000000000000000000000000000000000000000000000000000000000000000000000000000000000000000083020000018398968082cf1d8203e880a0c521474f9dc4f479643dbbb7738c2b38d17e4f4de925a7eeb090b8a6f6c6e45388324d034f4c2eaa56f864f862800182cf1d94095e7baea6a6c7c4c2dfeb977efac326af552d87830186a0801ca058292c95326dc6aa9439a010f5575311223728663a1e4e0fd0ae2774803557e7a0022b400032039b0f8d7454cdad95f811a1218468d216d8706c4a46297eb43a75c0",
                "transactions" : [
                    {
                        "data" : "",
                        "gasLimit" : "0xcf1d",
                        "gasPrice" : "0x01",
                        "nonce" : "0x00",
                        "r" : "0x58292c95326dc6aa9439a010f5575311223728663a1e4e0fd0ae2774803557e7",
                        "s" : "0x022b400032039b0f8d7454cdad95f811a1218468d216d8706c4a46297eb43a75",
                        "to" : "0x095e7baea6a6c7c4c2dfeb977efac326af552d87",
                        "v" : "0x1c",
                        "value" : "0x0186a0"
                    }
                ],
                "uncleHeaders" : [
                ]
            }
        ],
        "genesisBlockHeader" : {
            "bloom" : "0x00000000000000000000000000000000000000000000000000000000000000000000000000000000000000000000000000000000000000000000000000000000000000000000000000000000000000000000000000000000000000000000000000000000000000000000000000000000000000000000000000000000000000000000000000000000000000000000000000000000000000000000000000000000000000000000000000000000000000000000000000000000000000000000000000000000000000000000000000000000000000000000000000000000000000000000000000000000000000000000000000000000000000000000000000000000",
            "coinbase" : "0x2adc25665018aa1fe0e6bc666dac8fc2697ff9ba",
            "difficulty" : "0x020000",
            "extraData" : "0x42",
            "gasLimit" : "0x989680",
            "gasUsed" : "0x00",
            "hash" : "0xc67f8e4343d6a3af656068890ed565f2e6af9d975d1008bb2cc8ead1f5763452",
            "mixHash" : "0x56e81f171bcc55a6ff8345e692c0f86e5b48e01b996cadc001622fb5e363b421",
            "nonce" : "0x0102030405060708",
            "number" : "0x00",
            "parentHash" : "0x0000000000000000000000000000000000000000000000000000000000000000",
            "receiptTrie" : "0x56e81f171bcc55a6ff8345e692c0f86e5b48e01b996cadc001622fb5e363b421",
            "stateRoot" : "0xba26be8603c7a8dbae832d738290e9bcdbc83fadeea20a51073d09e51d4d3de9",
            "timestamp" : "0x03b6",
            "transactionsTrie" : "0x56e81f171bcc55a6ff8345e692c0f86e5b48e01b996cadc001622fb5e363b421",
            "uncleHash" : "0x1dcc4de8dec75d7aab85b567b6ccd41ad312451b948a7413f0a142fd40d49347"
        },
        "genesisRLP" : "0xf901faf901f5a00000000000000000000000000000000000000000000000000000000000000000a01dcc4de8dec75d7aab85b567b6ccd41ad312451b948a7413f0a142fd40d49347942adc25665018aa1fe0e6bc666dac8fc2697ff9baa0ba26be8603c7a8dbae832d738290e9bcdbc83fadeea20a51073d09e51d4d3de9a056e81f171bcc55a6ff8345e692c0f86e5b48e01b996cadc001622fb5e363b421a056e81f171bcc55a6ff8345e692c0f86e5b48e01b996cadc001622fb5e363b421b9010000000000000000000000000000000000000000000000000000000000000000000000000000000000000000000000000000000000000000000000000000000000000000000000000000000000000000000000000000000000000000000000000000000000000000000000000000000000000000000000000000000000000000000000000000000000000000000000000000000000000000000000000000000000000000000000000000000000000000000000000000000000000000000000000000000000000000000000000000000000000000000000000000000000000000000000000000000000000000000000000000000000000000000000000000000000830200008083989680808203b642a056e81f171bcc55a6ff8345e692c0f86e5b48e01b996cadc001622fb5e363b421880102030405060708c0c0",
        "lastblockhash" : "0x674dd3b3389c4650a5059b63eb7c137cede472b1139cb3514050043aa2e0fcdf",
        "network" : "EIP158",
        "postState" : {
            "0x095e7baea6a6c7c4c2dfeb977efac326af552d87" : {
                "balance" : "0x0de0b6b3a7640000",
                "code" : "0x605a600053600160006001f0ff",
                "nonce" : "0x00",
                "storage" : {
                }
            },
            "0x2adc25665018aa1fe0e6bc666dac8fc2697ff9ba" : {
                "balance" : "0x4563918244f4cf1d",
                "code" : "",
                "nonce" : "0x00",
                "storage" : {
                }
            },
            "0xa94f5374fce5edbc8e2a8697c15331677e6ebf0b" : {
                "balance" : "0x0de0b6b3a76330e3",
                "code" : "",
                "nonce" : "0x01",
                "storage" : {
                }
            }
        },
        "pre" : {
            "0x095e7baea6a6c7c4c2dfeb977efac326af552d87" : {
                "balance" : "0x0de0b6b3a7640000",
                "code" : "0x605a600053600160006001f0ff",
                "nonce" : "0x00",
                "storage" : {
                }
            },
            "0xa94f5374fce5edbc8e2a8697c15331677e6ebf0b" : {
                "balance" : "0x0de0b6b3a7640000",
                "code" : "",
                "nonce" : "0x00",
                "storage" : {
                }
            }
        }
    },
    "createInitFail_OOGduringInit_d0g0v0_Frontier" : {
        "_info" : {
            "comment" : "",
            "filledwith" : "cpp-1.3.0+commit.6e0ce939.Linux.g++",
            "lllcversion" : "Version: 0.4.18-develop.2017.9.25+commit.a72237f2.Linux.g++",
            "source" : "src/BlockchainTestsFiller/GeneralStateTests/stChangedEIP150/createInitFail_OOGduringInit_d0g0v0Filler.json",
            "sourceHash" : "6a8c19f618cd58ff478942b6ac4801f0c874bd5a9dcc1b9292cf9ad39545be55"
        },
        "blocks" : [
            {
                "blockHeader" : {
                    "bloom" : "0x00000000000000000000000000000000000000000000000000000000000000000000000000000000000000000000000000000000000000000000000000000000000000000000000000000000000000000000000000000000000000000000000000000000000000000000000000000000000000000000000000000000000000000000000000000000000000000000000000000000000000000000000000000000000000000000000000000000000000000000000000000000000000000000000000000000000000000000000000000000000000000000000000000000000000000000000000000000000000000000000000000000000000000000000000000000",
                    "coinbase" : "0x2adc25665018aa1fe0e6bc666dac8fc2697ff9ba",
                    "difficulty" : "0x020000",
                    "extraData" : "",
                    "gasLimit" : "0x989680",
                    "gasUsed" : "0x715d",
                    "hash" : "0xd2d75b0df0596d5749a0d7d3884d6e86a6d2b8b5982a115ffc3d53dc07d98d97",
                    "mixHash" : "0x3aad771f9415f7a14019a0ddfcee546689668eccecdb2166d5931727dba4c729",
                    "nonce" : "0x1e90baba0e4968fc",
                    "number" : "0x01",
                    "parentHash" : "0xc67f8e4343d6a3af656068890ed565f2e6af9d975d1008bb2cc8ead1f5763452",
                    "receiptTrie" : "0xd0f55599081d2ee531dc1264e609cc7ab8f994a9ad6879997b8a632182c10b6c",
                    "stateRoot" : "0x6eba190c9e0e6cf68e7b13933856519a137f92e80511777ececea8898104e6b8",
                    "timestamp" : "0x03e8",
                    "transactionsTrie" : "0x11309db4993a5bca401d57cba6c8935a76825b48bf92f92c2ec8c6abd49145c3",
                    "uncleHash" : "0x1dcc4de8dec75d7aab85b567b6ccd41ad312451b948a7413f0a142fd40d49347"
                },
                "rlp" : "0xf90261f901f7a0c67f8e4343d6a3af656068890ed565f2e6af9d975d1008bb2cc8ead1f5763452a01dcc4de8dec75d7aab85b567b6ccd41ad312451b948a7413f0a142fd40d49347942adc25665018aa1fe0e6bc666dac8fc2697ff9baa06eba190c9e0e6cf68e7b13933856519a137f92e80511777ececea8898104e6b8a011309db4993a5bca401d57cba6c8935a76825b48bf92f92c2ec8c6abd49145c3a0d0f55599081d2ee531dc1264e609cc7ab8f994a9ad6879997b8a632182c10b6cb901000000000000000000000000000000000000000000000000000000000000000000000000000000000000000000000000000000000000000000000000000000000000000000000000000000000000000000000000000000000000000000000000000000000000000000000000000000000000000000000000000000000000000000000000000000000000000000000000000000000000000000000000000000000000000000000000000000000000000000000000000000000000000000000000000000000000000000000000000000000000000000000000000000000000000000000000000000000000000000000000000000000000000000000000000000000083020000018398968082715d8203e880a03aad771f9415f7a14019a0ddfcee546689668eccecdb2166d5931727dba4c729881e90baba0e4968fcf864f862800182cf1d94095e7baea6a6c7c4c2dfeb977efac326af552d87830186a0801ca058292c95326dc6aa9439a010f5575311223728663a1e4e0fd0ae2774803557e7a0022b400032039b0f8d7454cdad95f811a1218468d216d8706c4a46297eb43a75c0",
                "transactions" : [
                    {
                        "data" : "",
                        "gasLimit" : "0xcf1d",
                        "gasPrice" : "0x01",
                        "nonce" : "0x00",
                        "r" : "0x58292c95326dc6aa9439a010f5575311223728663a1e4e0fd0ae2774803557e7",
                        "s" : "0x022b400032039b0f8d7454cdad95f811a1218468d216d8706c4a46297eb43a75",
                        "to" : "0x095e7baea6a6c7c4c2dfeb977efac326af552d87",
                        "v" : "0x1c",
                        "value" : "0x0186a0"
                    }
                ],
                "uncleHeaders" : [
                ]
            }
        ],
        "genesisBlockHeader" : {
            "bloom" : "0x00000000000000000000000000000000000000000000000000000000000000000000000000000000000000000000000000000000000000000000000000000000000000000000000000000000000000000000000000000000000000000000000000000000000000000000000000000000000000000000000000000000000000000000000000000000000000000000000000000000000000000000000000000000000000000000000000000000000000000000000000000000000000000000000000000000000000000000000000000000000000000000000000000000000000000000000000000000000000000000000000000000000000000000000000000000",
            "coinbase" : "0x2adc25665018aa1fe0e6bc666dac8fc2697ff9ba",
            "difficulty" : "0x020000",
            "extraData" : "0x42",
            "gasLimit" : "0x989680",
            "gasUsed" : "0x00",
            "hash" : "0xc67f8e4343d6a3af656068890ed565f2e6af9d975d1008bb2cc8ead1f5763452",
            "mixHash" : "0x56e81f171bcc55a6ff8345e692c0f86e5b48e01b996cadc001622fb5e363b421",
            "nonce" : "0x0102030405060708",
            "number" : "0x00",
            "parentHash" : "0x0000000000000000000000000000000000000000000000000000000000000000",
            "receiptTrie" : "0x56e81f171bcc55a6ff8345e692c0f86e5b48e01b996cadc001622fb5e363b421",
            "stateRoot" : "0xba26be8603c7a8dbae832d738290e9bcdbc83fadeea20a51073d09e51d4d3de9",
            "timestamp" : "0x03b6",
            "transactionsTrie" : "0x56e81f171bcc55a6ff8345e692c0f86e5b48e01b996cadc001622fb5e363b421",
            "uncleHash" : "0x1dcc4de8dec75d7aab85b567b6ccd41ad312451b948a7413f0a142fd40d49347"
        },
        "genesisRLP" : "0xf901faf901f5a00000000000000000000000000000000000000000000000000000000000000000a01dcc4de8dec75d7aab85b567b6ccd41ad312451b948a7413f0a142fd40d49347942adc25665018aa1fe0e6bc666dac8fc2697ff9baa0ba26be8603c7a8dbae832d738290e9bcdbc83fadeea20a51073d09e51d4d3de9a056e81f171bcc55a6ff8345e692c0f86e5b48e01b996cadc001622fb5e363b421a056e81f171bcc55a6ff8345e692c0f86e5b48e01b996cadc001622fb5e363b421b9010000000000000000000000000000000000000000000000000000000000000000000000000000000000000000000000000000000000000000000000000000000000000000000000000000000000000000000000000000000000000000000000000000000000000000000000000000000000000000000000000000000000000000000000000000000000000000000000000000000000000000000000000000000000000000000000000000000000000000000000000000000000000000000000000000000000000000000000000000000000000000000000000000000000000000000000000000000000000000000000000000000000000000000000000000000000830200008083989680808203b642a056e81f171bcc55a6ff8345e692c0f86e5b48e01b996cadc001622fb5e363b421880102030405060708c0c0",
        "lastblockhash" : "0xd2d75b0df0596d5749a0d7d3884d6e86a6d2b8b5982a115ffc3d53dc07d98d97",
        "network" : "Frontier",
        "postState" : {
            "0x0000000000000000000000000000000000000000" : {
                "balance" : "0x0de0b6b3a76586a0",
                "code" : "",
                "nonce" : "0x00",
                "storage" : {
                }
            },
            "0x2adc25665018aa1fe0e6bc666dac8fc2697ff9ba" : {
                "balance" : "0x4563918244f4715d",
                "code" : "",
                "nonce" : "0x00",
                "storage" : {
                }
            },
            "0xa94f5374fce5edbc8e2a8697c15331677e6ebf0b" : {
                "balance" : "0x0de0b6b3a7620803",
                "code" : "",
                "nonce" : "0x01",
                "storage" : {
                }
            }
        },
        "pre" : {
            "0x095e7baea6a6c7c4c2dfeb977efac326af552d87" : {
                "balance" : "0x0de0b6b3a7640000",
                "code" : "0x605a600053600160006001f0ff",
                "nonce" : "0x00",
                "storage" : {
                }
            },
            "0xa94f5374fce5edbc8e2a8697c15331677e6ebf0b" : {
                "balance" : "0x0de0b6b3a7640000",
                "code" : "",
                "nonce" : "0x00",
                "storage" : {
                }
            }
        }
    },
    "createInitFail_OOGduringInit_d0g0v0_Homestead" : {
        "_info" : {
            "comment" : "",
            "filledwith" : "cpp-1.3.0+commit.6e0ce939.Linux.g++",
            "lllcversion" : "Version: 0.4.18-develop.2017.9.25+commit.a72237f2.Linux.g++",
            "source" : "src/BlockchainTestsFiller/GeneralStateTests/stChangedEIP150/createInitFail_OOGduringInit_d0g0v0Filler.json",
            "sourceHash" : "6a8c19f618cd58ff478942b6ac4801f0c874bd5a9dcc1b9292cf9ad39545be55"
        },
        "blocks" : [
            {
                "blockHeader" : {
                    "bloom" : "0x00000000000000000000000000000000000000000000000000000000000000000000000000000000000000000000000000000000000000000000000000000000000000000000000000000000000000000000000000000000000000000000000000000000000000000000000000000000000000000000000000000000000000000000000000000000000000000000000000000000000000000000000000000000000000000000000000000000000000000000000000000000000000000000000000000000000000000000000000000000000000000000000000000000000000000000000000000000000000000000000000000000000000000000000000000000",
                    "coinbase" : "0x2adc25665018aa1fe0e6bc666dac8fc2697ff9ba",
                    "difficulty" : "0x020000",
                    "extraData" : "",
                    "gasLimit" : "0x989680",
                    "gasUsed" : "0x715d",
                    "hash" : "0x39bbf6040b7ea49fd3a4c7dcc6860d5b6e002ab3f3ebd69c22a4302b26760703",
                    "mixHash" : "0x38d4139bd9af2d946d247d20fd89422c5a611971a4d108e84747c3448c4e2242",
                    "nonce" : "0xcb0ca782013e68f1",
                    "number" : "0x01",
                    "parentHash" : "0xc67f8e4343d6a3af656068890ed565f2e6af9d975d1008bb2cc8ead1f5763452",
                    "receiptTrie" : "0xd0f55599081d2ee531dc1264e609cc7ab8f994a9ad6879997b8a632182c10b6c",
                    "stateRoot" : "0x6eba190c9e0e6cf68e7b13933856519a137f92e80511777ececea8898104e6b8",
                    "timestamp" : "0x03e8",
                    "transactionsTrie" : "0x11309db4993a5bca401d57cba6c8935a76825b48bf92f92c2ec8c6abd49145c3",
                    "uncleHash" : "0x1dcc4de8dec75d7aab85b567b6ccd41ad312451b948a7413f0a142fd40d49347"
                },
                "rlp" : "0xf90261f901f7a0c67f8e4343d6a3af656068890ed565f2e6af9d975d1008bb2cc8ead1f5763452a01dcc4de8dec75d7aab85b567b6ccd41ad312451b948a7413f0a142fd40d49347942adc25665018aa1fe0e6bc666dac8fc2697ff9baa06eba190c9e0e6cf68e7b13933856519a137f92e80511777ececea8898104e6b8a011309db4993a5bca401d57cba6c8935a76825b48bf92f92c2ec8c6abd49145c3a0d0f55599081d2ee531dc1264e609cc7ab8f994a9ad6879997b8a632182c10b6cb901000000000000000000000000000000000000000000000000000000000000000000000000000000000000000000000000000000000000000000000000000000000000000000000000000000000000000000000000000000000000000000000000000000000000000000000000000000000000000000000000000000000000000000000000000000000000000000000000000000000000000000000000000000000000000000000000000000000000000000000000000000000000000000000000000000000000000000000000000000000000000000000000000000000000000000000000000000000000000000000000000000000000000000000000000000000083020000018398968082715d8203e880a038d4139bd9af2d946d247d20fd89422c5a611971a4d108e84747c3448c4e224288cb0ca782013e68f1f864f862800182cf1d94095e7baea6a6c7c4c2dfeb977efac326af552d87830186a0801ca058292c95326dc6aa9439a010f5575311223728663a1e4e0fd0ae2774803557e7a0022b400032039b0f8d7454cdad95f811a1218468d216d8706c4a46297eb43a75c0",
                "transactions" : [
                    {
                        "data" : "",
                        "gasLimit" : "0xcf1d",
                        "gasPrice" : "0x01",
                        "nonce" : "0x00",
                        "r" : "0x58292c95326dc6aa9439a010f5575311223728663a1e4e0fd0ae2774803557e7",
                        "s" : "0x022b400032039b0f8d7454cdad95f811a1218468d216d8706c4a46297eb43a75",
                        "to" : "0x095e7baea6a6c7c4c2dfeb977efac326af552d87",
                        "v" : "0x1c",
                        "value" : "0x0186a0"
                    }
                ],
                "uncleHeaders" : [
                ]
            }
        ],
        "genesisBlockHeader" : {
            "bloom" : "0x00000000000000000000000000000000000000000000000000000000000000000000000000000000000000000000000000000000000000000000000000000000000000000000000000000000000000000000000000000000000000000000000000000000000000000000000000000000000000000000000000000000000000000000000000000000000000000000000000000000000000000000000000000000000000000000000000000000000000000000000000000000000000000000000000000000000000000000000000000000000000000000000000000000000000000000000000000000000000000000000000000000000000000000000000000000",
            "coinbase" : "0x2adc25665018aa1fe0e6bc666dac8fc2697ff9ba",
            "difficulty" : "0x020000",
            "extraData" : "0x42",
            "gasLimit" : "0x989680",
            "gasUsed" : "0x00",
            "hash" : "0xc67f8e4343d6a3af656068890ed565f2e6af9d975d1008bb2cc8ead1f5763452",
            "mixHash" : "0x56e81f171bcc55a6ff8345e692c0f86e5b48e01b996cadc001622fb5e363b421",
            "nonce" : "0x0102030405060708",
            "number" : "0x00",
            "parentHash" : "0x0000000000000000000000000000000000000000000000000000000000000000",
            "receiptTrie" : "0x56e81f171bcc55a6ff8345e692c0f86e5b48e01b996cadc001622fb5e363b421",
            "stateRoot" : "0xba26be8603c7a8dbae832d738290e9bcdbc83fadeea20a51073d09e51d4d3de9",
            "timestamp" : "0x03b6",
            "transactionsTrie" : "0x56e81f171bcc55a6ff8345e692c0f86e5b48e01b996cadc001622fb5e363b421",
            "uncleHash" : "0x1dcc4de8dec75d7aab85b567b6ccd41ad312451b948a7413f0a142fd40d49347"
        },
        "genesisRLP" : "0xf901faf901f5a00000000000000000000000000000000000000000000000000000000000000000a01dcc4de8dec75d7aab85b567b6ccd41ad312451b948a7413f0a142fd40d49347942adc25665018aa1fe0e6bc666dac8fc2697ff9baa0ba26be8603c7a8dbae832d738290e9bcdbc83fadeea20a51073d09e51d4d3de9a056e81f171bcc55a6ff8345e692c0f86e5b48e01b996cadc001622fb5e363b421a056e81f171bcc55a6ff8345e692c0f86e5b48e01b996cadc001622fb5e363b421b9010000000000000000000000000000000000000000000000000000000000000000000000000000000000000000000000000000000000000000000000000000000000000000000000000000000000000000000000000000000000000000000000000000000000000000000000000000000000000000000000000000000000000000000000000000000000000000000000000000000000000000000000000000000000000000000000000000000000000000000000000000000000000000000000000000000000000000000000000000000000000000000000000000000000000000000000000000000000000000000000000000000000000000000000000000000000830200008083989680808203b642a056e81f171bcc55a6ff8345e692c0f86e5b48e01b996cadc001622fb5e363b421880102030405060708c0c0",
        "lastblockhash" : "0x39bbf6040b7ea49fd3a4c7dcc6860d5b6e002ab3f3ebd69c22a4302b26760703",
        "network" : "Homestead",
        "postState" : {
            "0x0000000000000000000000000000000000000000" : {
                "balance" : "0x0de0b6b3a76586a0",
                "code" : "",
                "nonce" : "0x00",
                "storage" : {
                }
            },
            "0x2adc25665018aa1fe0e6bc666dac8fc2697ff9ba" : {
                "balance" : "0x4563918244f4715d",
                "code" : "",
                "nonce" : "0x00",
                "storage" : {
                }
            },
            "0xa94f5374fce5edbc8e2a8697c15331677e6ebf0b" : {
                "balance" : "0x0de0b6b3a7620803",
                "code" : "",
                "nonce" : "0x01",
                "storage" : {
                }
            }
        },
        "pre" : {
            "0x095e7baea6a6c7c4c2dfeb977efac326af552d87" : {
                "balance" : "0x0de0b6b3a7640000",
                "code" : "0x605a600053600160006001f0ff",
                "nonce" : "0x00",
                "storage" : {
                }
            },
            "0xa94f5374fce5edbc8e2a8697c15331677e6ebf0b" : {
                "balance" : "0x0de0b6b3a7640000",
                "code" : "",
                "nonce" : "0x00",
                "storage" : {
                }
            }
        }
    }
}