{
    "randomStatetest55_d0g0v0_Byzantium" : {
        "_info" : {
            "comment" : "",
            "filledwith" : "cpp-1.3.0+commit.4e101574.Linux.g++",
            "lllcversion" : "Version: 0.4.18-develop.2017.10.11+commit.81f9f86c.Linux.g++",
            "source" : "src/BlockchainTestsFiller/GeneralStateTests/stRandom/randomStatetest55_d0g0v0Filler.json",
            "sourceHash" : "d1b80a93278822c4c0898099ed861e20ccc2a34148d4021d21b173f24004f25e"
        },
        "blocks" : [
            {
                "blockHeader" : {
                    "bloom" : "0x00000000000000000000000000000000000000000000000000000000000000000000000000000000000000000000000000000000000000000000000000000000000000000000000000000000000000000000000000000000000000000000000000000000000000000000000000000000000000000000000000000000000000000000000000000000000000000000000000000000000000000000000000000000000000000000000000000000000000000000000000000000000000000000000000000000000000000000000000000000000000000000000000000000000000000000000000000000000000000000000000000000000000000000000000000000",
                    "coinbase" : "0x945304eb96065b2a98b57a48a06ae28d285a71b5",
                    "difficulty" : "0x020000",
                    "extraData" : "",
                    "gasLimit" : "0x7fffffffffffffff",
                    "gasUsed" : "0x2bd66e7e",
                    "hash" : "0x78c948193ea19419d69403b545b2b7a846d9c4944ba0efd1b562f9f03c8d8cd1",
                    "mixHash" : "0xfae1a706192c25d008c64fec8acf8ea2bf91c2026e9ac7c2fd9f33ce85c8b944",
                    "nonce" : "0x8b8565730ad1ce4f",
                    "number" : "0x01",
                    "parentHash" : "0x1024137088937fe8808d2a7f58e53648a65d0a9da7d4a40100821defbc47e2e2",
                    "receiptTrie" : "0x9b91df679270c03da4deaea16b249b145ac02d3ddc870daa5c89d3943345000b",
                    "stateRoot" : "0xc05cdf9281f59529c4bf7b41dfc562b2c97a77b5947b4b910980f45619bbab0f",
                    "timestamp" : "0x03e8",
                    "transactionsTrie" : "0x837ae25b151e727913edbce95b9477426bb69ee357df86ef337199be4cacf821",
                    "uncleHash" : "0x1dcc4de8dec75d7aab85b567b6ccd41ad312451b948a7413f0a142fd40d49347"
                },
                "rlp" : "0xf90323f901fea01024137088937fe8808d2a7f58e53648a65d0a9da7d4a40100821defbc47e2e2a01dcc4de8dec75d7aab85b567b6ccd41ad312451b948a7413f0a142fd40d4934794945304eb96065b2a98b57a48a06ae28d285a71b5a0c05cdf9281f59529c4bf7b41dfc562b2c97a77b5947b4b910980f45619bbab0fa0837ae25b151e727913edbce95b9477426bb69ee357df86ef337199be4cacf821a09b91df679270c03da4deaea16b249b145ac02d3ddc870daa5c89d3943345000bb90100000000000000000000000000000000000000000000000000000000000000000000000000000000000000000000000000000000000000000000000000000000000000000000000000000000000000000000000000000000000000000000000000000000000000000000000000000000000000000000000000000000000000000000000000000000000000000000000000000000000000000000000000000000000000000000000000000000000000000000000000000000000000000000000000000000000000000000000000000000000000000000000000000000000000000000000000000000000000000000000000000000000000000000000000000000008302000001887fffffffffffffff842bd66e7e8203e880a0fae1a706192c25d008c64fec8acf8ea2bf91c2026e9ac7c2fd9f33ce85c8b944888b8565730ad1ce4ff9011ef9011b8001842bd66e7e94095e7baea6a6c7c4c2dfeb977efac326af552d878440bfde69b8b57f00000000000000000000000000000000000000000000000000000000000000007f000000000000000000000000945304eb96065b2a98b57a48a06ae28d285a71b57f000000000000000000000000000000000000000000000000000000000000000084967f000000000000000000000000ffffffffffffffffffffffffffffffffffffffff137ffffffffffffffffffffffffffffffffffffffffffffffffffffffffffffffffe016f3a5b594088a2f238089b711ba0a119f83ce4e515c1a05eaeb94929919eb29b95d2857f5a1f0ce0659e1afe7a41a045a9e59d7d1fa35229fb9da288835751cff77276c0eb8bc99a417d2582d0d407c0",
                "transactions" : [
                    {
                        "data" : "0x7f00000000000000000000000000000000000000000000000000000000000000007f000000000000000000000000945304eb96065b2a98b57a48a06ae28d285a71b57f000000000000000000000000000000000000000000000000000000000000000084967f000000000000000000000000ffffffffffffffffffffffffffffffffffffffff137ffffffffffffffffffffffffffffffffffffffffffffffffffffffffffffffffe016f3a5b594088a2f238089b71",
                        "gasLimit" : "0x2bd66e7e",
                        "gasPrice" : "0x01",
                        "nonce" : "0x00",
                        "r" : "0xa119f83ce4e515c1a05eaeb94929919eb29b95d2857f5a1f0ce0659e1afe7a41",
                        "s" : "0x45a9e59d7d1fa35229fb9da288835751cff77276c0eb8bc99a417d2582d0d407",
                        "to" : "0x095e7baea6a6c7c4c2dfeb977efac326af552d87",
                        "v" : "0x1b",
                        "value" : "0x40bfde69"
                    }
                ],
                "uncleHeaders" : [
                ]
            }
        ],
        "genesisBlockHeader" : {
            "bloom" : "0x00000000000000000000000000000000000000000000000000000000000000000000000000000000000000000000000000000000000000000000000000000000000000000000000000000000000000000000000000000000000000000000000000000000000000000000000000000000000000000000000000000000000000000000000000000000000000000000000000000000000000000000000000000000000000000000000000000000000000000000000000000000000000000000000000000000000000000000000000000000000000000000000000000000000000000000000000000000000000000000000000000000000000000000000000000000",
            "coinbase" : "0x945304eb96065b2a98b57a48a06ae28d285a71b5",
            "difficulty" : "0x020000",
            "extraData" : "0x42",
            "gasLimit" : "0x7fffffffffffffff",
            "gasUsed" : "0x00",
            "hash" : "0x1024137088937fe8808d2a7f58e53648a65d0a9da7d4a40100821defbc47e2e2",
            "mixHash" : "0x56e81f171bcc55a6ff8345e692c0f86e5b48e01b996cadc001622fb5e363b421",
            "nonce" : "0x0102030405060708",
            "number" : "0x00",
            "parentHash" : "0x0000000000000000000000000000000000000000000000000000000000000000",
            "receiptTrie" : "0x56e81f171bcc55a6ff8345e692c0f86e5b48e01b996cadc001622fb5e363b421",
            "stateRoot" : "0x7cb7dbaf63975ff87f6eef62e6a140c7d173005158fc466bc070185b8d7c12b7",
            "timestamp" : "0x03b6",
            "transactionsTrie" : "0x56e81f171bcc55a6ff8345e692c0f86e5b48e01b996cadc001622fb5e363b421",
            "uncleHash" : "0x1dcc4de8dec75d7aab85b567b6ccd41ad312451b948a7413f0a142fd40d49347"
        },
        "genesisRLP" : "0xf901fff901faa00000000000000000000000000000000000000000000000000000000000000000a01dcc4de8dec75d7aab85b567b6ccd41ad312451b948a7413f0a142fd40d4934794945304eb96065b2a98b57a48a06ae28d285a71b5a07cb7dbaf63975ff87f6eef62e6a140c7d173005158fc466bc070185b8d7c12b7a056e81f171bcc55a6ff8345e692c0f86e5b48e01b996cadc001622fb5e363b421a056e81f171bcc55a6ff8345e692c0f86e5b48e01b996cadc001622fb5e363b421b90100000000000000000000000000000000000000000000000000000000000000000000000000000000000000000000000000000000000000000000000000000000000000000000000000000000000000000000000000000000000000000000000000000000000000000000000000000000000000000000000000000000000000000000000000000000000000000000000000000000000000000000000000000000000000000000000000000000000000000000000000000000000000000000000000000000000000000000000000000000000000000000000000000000000000000000000000000000000000000000000000000000000000000000000000000000008302000080887fffffffffffffff808203b642a056e81f171bcc55a6ff8345e692c0f86e5b48e01b996cadc001622fb5e363b421880102030405060708c0c0",
        "lastblockhash" : "0x78c948193ea19419d69403b545b2b7a846d9c4944ba0efd1b562f9f03c8d8cd1",
        "network" : "Byzantium",
        "postState" : {
            "0x095e7baea6a6c7c4c2dfeb977efac326af552d87" : {
                "balance" : "0x00",
                "code" : "0x7f00000000000000000000000000000000000000000000000000000000000000007f000000000000000000000000945304eb96065b2a98b57a48a06ae28d285a71b57f000000000000000000000000000000000000000000000000000000000000000084967f000000000000000000000000ffffffffffffffffffffffffffffffffffffffff137ffffffffffffffffffffffffffffffffffffffffffffffffffffffffffffffffe016f3a5b594088a2f238089b71",
                "nonce" : "0x00",
                "storage" : {
                }
            },
            "0x945304eb96065b2a98b57a48a06ae28d285a71b5" : {
                "balance" : "0x29a2241b22026eac",
                "code" : "0x6000355415600957005b60203560003555",
                "nonce" : "0x00",
                "storage" : {
                }
            },
            "0xa94f5374fce5edbc8e2a8697c15331677e6ebf0b" : {
                "balance" : "0x0de0b6b37b8d9182",
                "code" : "",
                "nonce" : "0x01",
                "storage" : {
                }
            }
        },
        "pre" : {
            "0x095e7baea6a6c7c4c2dfeb977efac326af552d87" : {
                "balance" : "0x00",
                "code" : "0x7f00000000000000000000000000000000000000000000000000000000000000007f000000000000000000000000945304eb96065b2a98b57a48a06ae28d285a71b57f000000000000000000000000000000000000000000000000000000000000000084967f000000000000000000000000ffffffffffffffffffffffffffffffffffffffff137ffffffffffffffffffffffffffffffffffffffffffffffffffffffffffffffffe016f3a5b594088a2f238089b71",
                "nonce" : "0x00",
                "storage" : {
                }
            },
            "0x945304eb96065b2a98b57a48a06ae28d285a71b5" : {
                "balance" : "0x2e",
                "code" : "0x6000355415600957005b60203560003555",
                "nonce" : "0x00",
                "storage" : {
                }
            },
            "0xa94f5374fce5edbc8e2a8697c15331677e6ebf0b" : {
                "balance" : "0x0de0b6b3a7640000",
                "code" : "",
                "nonce" : "0x00",
                "storage" : {
                }
            }
        }
    },
    "randomStatetest55_d0g0v0_EIP150" : {
        "_info" : {
            "comment" : "",
            "filledwith" : "cpp-1.3.0+commit.4e101574.Linux.g++",
            "lllcversion" : "Version: 0.4.18-develop.2017.10.11+commit.81f9f86c.Linux.g++",
            "source" : "src/BlockchainTestsFiller/GeneralStateTests/stRandom/randomStatetest55_d0g0v0Filler.json",
            "sourceHash" : "d1b80a93278822c4c0898099ed861e20ccc2a34148d4021d21b173f24004f25e"
        },
        "blocks" : [
            {
                "blockHeader" : {
                    "bloom" : "0x00000000000000000000000000000000000000000000000000000000000000000000000000000000000000000000000000000000000000000000000000000000000000000000000000000000000000000000000000000000000000000000000000000000000000000000000000000000000000000000000000000000000000000000000000000000000000000000000000000000000000000000000000000000000000000000000000000000000000000000000000000000000000000000000000000000000000000000000000000000000000000000000000000000000000000000000000000000000000000000000000000000000000000000000000000000",
                    "coinbase" : "0x945304eb96065b2a98b57a48a06ae28d285a71b5",
                    "difficulty" : "0x020000",
                    "extraData" : "",
                    "gasLimit" : "0x7fffffffffffffff",
                    "gasUsed" : "0x2bd66e7e",
                    "hash" : "0x23351e3ec1b81d5be407ef6936d982d54fbddfa0837343b495d0e62d84a46802",
                    "mixHash" : "0xed3a42197fb9136ccec9e078cb99365332792bace792ce7b90718a3cc4a28209",
                    "nonce" : "0x9bb2e4884d24d9d2",
                    "number" : "0x01",
                    "parentHash" : "0x1024137088937fe8808d2a7f58e53648a65d0a9da7d4a40100821defbc47e2e2",
                    "receiptTrie" : "0xdc750e66cfe146ef79d749cb09f192fd56b83628b24902f174eacb5753c61fb1",
                    "stateRoot" : "0xef91dc7ebf83dfb97045988db6ac405a1b775a01a2730acb27afb7a33f81c978",
                    "timestamp" : "0x03e8",
                    "transactionsTrie" : "0x837ae25b151e727913edbce95b9477426bb69ee357df86ef337199be4cacf821",
                    "uncleHash" : "0x1dcc4de8dec75d7aab85b567b6ccd41ad312451b948a7413f0a142fd40d49347"
                },
                "rlp" : "0xf90323f901fea01024137088937fe8808d2a7f58e53648a65d0a9da7d4a40100821defbc47e2e2a01dcc4de8dec75d7aab85b567b6ccd41ad312451b948a7413f0a142fd40d4934794945304eb96065b2a98b57a48a06ae28d285a71b5a0ef91dc7ebf83dfb97045988db6ac405a1b775a01a2730acb27afb7a33f81c978a0837ae25b151e727913edbce95b9477426bb69ee357df86ef337199be4cacf821a0dc750e66cfe146ef79d749cb09f192fd56b83628b24902f174eacb5753c61fb1b90100000000000000000000000000000000000000000000000000000000000000000000000000000000000000000000000000000000000000000000000000000000000000000000000000000000000000000000000000000000000000000000000000000000000000000000000000000000000000000000000000000000000000000000000000000000000000000000000000000000000000000000000000000000000000000000000000000000000000000000000000000000000000000000000000000000000000000000000000000000000000000000000000000000000000000000000000000000000000000000000000000000000000000000000000000000008302000001887fffffffffffffff842bd66e7e8203e880a0ed3a42197fb9136ccec9e078cb99365332792bace792ce7b90718a3cc4a28209889bb2e4884d24d9d2f9011ef9011b8001842bd66e7e94095e7baea6a6c7c4c2dfeb977efac326af552d878440bfde69b8b57f00000000000000000000000000000000000000000000000000000000000000007f000000000000000000000000945304eb96065b2a98b57a48a06ae28d285a71b57f000000000000000000000000000000000000000000000000000000000000000084967f000000000000000000000000ffffffffffffffffffffffffffffffffffffffff137ffffffffffffffffffffffffffffffffffffffffffffffffffffffffffffffffe016f3a5b594088a2f238089b711ba0a119f83ce4e515c1a05eaeb94929919eb29b95d2857f5a1f0ce0659e1afe7a41a045a9e59d7d1fa35229fb9da288835751cff77276c0eb8bc99a417d2582d0d407c0",
                "transactions" : [
                    {
                        "data" : "0x7f00000000000000000000000000000000000000000000000000000000000000007f000000000000000000000000945304eb96065b2a98b57a48a06ae28d285a71b57f000000000000000000000000000000000000000000000000000000000000000084967f000000000000000000000000ffffffffffffffffffffffffffffffffffffffff137ffffffffffffffffffffffffffffffffffffffffffffffffffffffffffffffffe016f3a5b594088a2f238089b71",
                        "gasLimit" : "0x2bd66e7e",
                        "gasPrice" : "0x01",
                        "nonce" : "0x00",
                        "r" : "0xa119f83ce4e515c1a05eaeb94929919eb29b95d2857f5a1f0ce0659e1afe7a41",
                        "s" : "0x45a9e59d7d1fa35229fb9da288835751cff77276c0eb8bc99a417d2582d0d407",
                        "to" : "0x095e7baea6a6c7c4c2dfeb977efac326af552d87",
                        "v" : "0x1b",
                        "value" : "0x40bfde69"
                    }
                ],
                "uncleHeaders" : [
                ]
            }
        ],
        "genesisBlockHeader" : {
            "bloom" : "0x00000000000000000000000000000000000000000000000000000000000000000000000000000000000000000000000000000000000000000000000000000000000000000000000000000000000000000000000000000000000000000000000000000000000000000000000000000000000000000000000000000000000000000000000000000000000000000000000000000000000000000000000000000000000000000000000000000000000000000000000000000000000000000000000000000000000000000000000000000000000000000000000000000000000000000000000000000000000000000000000000000000000000000000000000000000",
            "coinbase" : "0x945304eb96065b2a98b57a48a06ae28d285a71b5",
            "difficulty" : "0x020000",
            "extraData" : "0x42",
            "gasLimit" : "0x7fffffffffffffff",
            "gasUsed" : "0x00",
            "hash" : "0x1024137088937fe8808d2a7f58e53648a65d0a9da7d4a40100821defbc47e2e2",
            "mixHash" : "0x56e81f171bcc55a6ff8345e692c0f86e5b48e01b996cadc001622fb5e363b421",
            "nonce" : "0x0102030405060708",
            "number" : "0x00",
            "parentHash" : "0x0000000000000000000000000000000000000000000000000000000000000000",
            "receiptTrie" : "0x56e81f171bcc55a6ff8345e692c0f86e5b48e01b996cadc001622fb5e363b421",
            "stateRoot" : "0x7cb7dbaf63975ff87f6eef62e6a140c7d173005158fc466bc070185b8d7c12b7",
            "timestamp" : "0x03b6",
            "transactionsTrie" : "0x56e81f171bcc55a6ff8345e692c0f86e5b48e01b996cadc001622fb5e363b421",
            "uncleHash" : "0x1dcc4de8dec75d7aab85b567b6ccd41ad312451b948a7413f0a142fd40d49347"
        },
        "genesisRLP" : "0xf901fff901faa00000000000000000000000000000000000000000000000000000000000000000a01dcc4de8dec75d7aab85b567b6ccd41ad312451b948a7413f0a142fd40d4934794945304eb96065b2a98b57a48a06ae28d285a71b5a07cb7dbaf63975ff87f6eef62e6a140c7d173005158fc466bc070185b8d7c12b7a056e81f171bcc55a6ff8345e692c0f86e5b48e01b996cadc001622fb5e363b421a056e81f171bcc55a6ff8345e692c0f86e5b48e01b996cadc001622fb5e363b421b90100000000000000000000000000000000000000000000000000000000000000000000000000000000000000000000000000000000000000000000000000000000000000000000000000000000000000000000000000000000000000000000000000000000000000000000000000000000000000000000000000000000000000000000000000000000000000000000000000000000000000000000000000000000000000000000000000000000000000000000000000000000000000000000000000000000000000000000000000000000000000000000000000000000000000000000000000000000000000000000000000000000000000000000000000000000008302000080887fffffffffffffff808203b642a056e81f171bcc55a6ff8345e692c0f86e5b48e01b996cadc001622fb5e363b421880102030405060708c0c0",
        "lastblockhash" : "0x23351e3ec1b81d5be407ef6936d982d54fbddfa0837343b495d0e62d84a46802",
        "network" : "EIP150",
        "postState" : {
            "0x095e7baea6a6c7c4c2dfeb977efac326af552d87" : {
                "balance" : "0x00",
                "code" : "0x7f00000000000000000000000000000000000000000000000000000000000000007f000000000000000000000000945304eb96065b2a98b57a48a06ae28d285a71b57f000000000000000000000000000000000000000000000000000000000000000084967f000000000000000000000000ffffffffffffffffffffffffffffffffffffffff137ffffffffffffffffffffffffffffffffffffffffffffffffffffffffffffffffe016f3a5b594088a2f238089b71",
                "nonce" : "0x00",
                "storage" : {
                }
            },
            "0x945304eb96065b2a98b57a48a06ae28d285a71b5" : {
                "balance" : "0x4563918270ca6eac",
                "code" : "0x6000355415600957005b60203560003555",
                "nonce" : "0x00",
                "storage" : {
                }
            },
            "0xa94f5374fce5edbc8e2a8697c15331677e6ebf0b" : {
                "balance" : "0x0de0b6b37b8d9182",
                "code" : "",
                "nonce" : "0x01",
                "storage" : {
                }
            }
        },
        "pre" : {
            "0x095e7baea6a6c7c4c2dfeb977efac326af552d87" : {
                "balance" : "0x00",
                "code" : "0x7f00000000000000000000000000000000000000000000000000000000000000007f000000000000000000000000945304eb96065b2a98b57a48a06ae28d285a71b57f000000000000000000000000000000000000000000000000000000000000000084967f000000000000000000000000ffffffffffffffffffffffffffffffffffffffff137ffffffffffffffffffffffffffffffffffffffffffffffffffffffffffffffffe016f3a5b594088a2f238089b71",
                "nonce" : "0x00",
                "storage" : {
                }
            },
            "0x945304eb96065b2a98b57a48a06ae28d285a71b5" : {
                "balance" : "0x2e",
                "code" : "0x6000355415600957005b60203560003555",
                "nonce" : "0x00",
                "storage" : {
                }
            },
            "0xa94f5374fce5edbc8e2a8697c15331677e6ebf0b" : {
                "balance" : "0x0de0b6b3a7640000",
                "code" : "",
                "nonce" : "0x00",
                "storage" : {
                }
            }
        }
    },
    "randomStatetest55_d0g0v0_EIP158" : {
        "_info" : {
            "comment" : "",
            "filledwith" : "cpp-1.3.0+commit.4e101574.Linux.g++",
            "lllcversion" : "Version: 0.4.18-develop.2017.10.11+commit.81f9f86c.Linux.g++",
            "source" : "src/BlockchainTestsFiller/GeneralStateTests/stRandom/randomStatetest55_d0g0v0Filler.json",
            "sourceHash" : "d1b80a93278822c4c0898099ed861e20ccc2a34148d4021d21b173f24004f25e"
        },
        "blocks" : [
            {
                "blockHeader" : {
                    "bloom" : "0x00000000000000000000000000000000000000000000000000000000000000000000000000000000000000000000000000000000000000000000000000000000000000000000000000000000000000000000000000000000000000000000000000000000000000000000000000000000000000000000000000000000000000000000000000000000000000000000000000000000000000000000000000000000000000000000000000000000000000000000000000000000000000000000000000000000000000000000000000000000000000000000000000000000000000000000000000000000000000000000000000000000000000000000000000000000",
                    "coinbase" : "0x945304eb96065b2a98b57a48a06ae28d285a71b5",
                    "difficulty" : "0x020000",
                    "extraData" : "",
                    "gasLimit" : "0x7fffffffffffffff",
                    "gasUsed" : "0x2bd66e7e",
                    "hash" : "0x4a24f5a51e2629603c3d16e3efdcf6c4179a4656b4025985fd679e72aa30c53c",
                    "mixHash" : "0x0e7151c6fac4e791fe99d27ff43d7c611123664fa627fd92c7b1abd769a676b4",
                    "nonce" : "0x24d5f38962f115b3",
                    "number" : "0x01",
                    "parentHash" : "0x1024137088937fe8808d2a7f58e53648a65d0a9da7d4a40100821defbc47e2e2",
                    "receiptTrie" : "0xdc750e66cfe146ef79d749cb09f192fd56b83628b24902f174eacb5753c61fb1",
                    "stateRoot" : "0xef91dc7ebf83dfb97045988db6ac405a1b775a01a2730acb27afb7a33f81c978",
                    "timestamp" : "0x03e8",
                    "transactionsTrie" : "0x837ae25b151e727913edbce95b9477426bb69ee357df86ef337199be4cacf821",
                    "uncleHash" : "0x1dcc4de8dec75d7aab85b567b6ccd41ad312451b948a7413f0a142fd40d49347"
                },
                "rlp" : "0xf90323f901fea01024137088937fe8808d2a7f58e53648a65d0a9da7d4a40100821defbc47e2e2a01dcc4de8dec75d7aab85b567b6ccd41ad312451b948a7413f0a142fd40d4934794945304eb96065b2a98b57a48a06ae28d285a71b5a0ef91dc7ebf83dfb97045988db6ac405a1b775a01a2730acb27afb7a33f81c978a0837ae25b151e727913edbce95b9477426bb69ee357df86ef337199be4cacf821a0dc750e66cfe146ef79d749cb09f192fd56b83628b24902f174eacb5753c61fb1b90100000000000000000000000000000000000000000000000000000000000000000000000000000000000000000000000000000000000000000000000000000000000000000000000000000000000000000000000000000000000000000000000000000000000000000000000000000000000000000000000000000000000000000000000000000000000000000000000000000000000000000000000000000000000000000000000000000000000000000000000000000000000000000000000000000000000000000000000000000000000000000000000000000000000000000000000000000000000000000000000000000000000000000000000000000000008302000001887fffffffffffffff842bd66e7e8203e880a00e7151c6fac4e791fe99d27ff43d7c611123664fa627fd92c7b1abd769a676b48824d5f38962f115b3f9011ef9011b8001842bd66e7e94095e7baea6a6c7c4c2dfeb977efac326af552d878440bfde69b8b57f00000000000000000000000000000000000000000000000000000000000000007f000000000000000000000000945304eb96065b2a98b57a48a06ae28d285a71b57f000000000000000000000000000000000000000000000000000000000000000084967f000000000000000000000000ffffffffffffffffffffffffffffffffffffffff137ffffffffffffffffffffffffffffffffffffffffffffffffffffffffffffffffe016f3a5b594088a2f238089b711ba0a119f83ce4e515c1a05eaeb94929919eb29b95d2857f5a1f0ce0659e1afe7a41a045a9e59d7d1fa35229fb9da288835751cff77276c0eb8bc99a417d2582d0d407c0",
                "transactions" : [
                    {
                        "data" : "0x7f00000000000000000000000000000000000000000000000000000000000000007f000000000000000000000000945304eb96065b2a98b57a48a06ae28d285a71b57f000000000000000000000000000000000000000000000000000000000000000084967f000000000000000000000000ffffffffffffffffffffffffffffffffffffffff137ffffffffffffffffffffffffffffffffffffffffffffffffffffffffffffffffe016f3a5b594088a2f238089b71",
                        "gasLimit" : "0x2bd66e7e",
                        "gasPrice" : "0x01",
                        "nonce" : "0x00",
                        "r" : "0xa119f83ce4e515c1a05eaeb94929919eb29b95d2857f5a1f0ce0659e1afe7a41",
                        "s" : "0x45a9e59d7d1fa35229fb9da288835751cff77276c0eb8bc99a417d2582d0d407",
                        "to" : "0x095e7baea6a6c7c4c2dfeb977efac326af552d87",
                        "v" : "0x1b",
                        "value" : "0x40bfde69"
                    }
                ],
                "uncleHeaders" : [
                ]
            }
        ],
        "genesisBlockHeader" : {
            "bloom" : "0x00000000000000000000000000000000000000000000000000000000000000000000000000000000000000000000000000000000000000000000000000000000000000000000000000000000000000000000000000000000000000000000000000000000000000000000000000000000000000000000000000000000000000000000000000000000000000000000000000000000000000000000000000000000000000000000000000000000000000000000000000000000000000000000000000000000000000000000000000000000000000000000000000000000000000000000000000000000000000000000000000000000000000000000000000000000",
            "coinbase" : "0x945304eb96065b2a98b57a48a06ae28d285a71b5",
            "difficulty" : "0x020000",
            "extraData" : "0x42",
            "gasLimit" : "0x7fffffffffffffff",
            "gasUsed" : "0x00",
            "hash" : "0x1024137088937fe8808d2a7f58e53648a65d0a9da7d4a40100821defbc47e2e2",
            "mixHash" : "0x56e81f171bcc55a6ff8345e692c0f86e5b48e01b996cadc001622fb5e363b421",
            "nonce" : "0x0102030405060708",
            "number" : "0x00",
            "parentHash" : "0x0000000000000000000000000000000000000000000000000000000000000000",
            "receiptTrie" : "0x56e81f171bcc55a6ff8345e692c0f86e5b48e01b996cadc001622fb5e363b421",
            "stateRoot" : "0x7cb7dbaf63975ff87f6eef62e6a140c7d173005158fc466bc070185b8d7c12b7",
            "timestamp" : "0x03b6",
            "transactionsTrie" : "0x56e81f171bcc55a6ff8345e692c0f86e5b48e01b996cadc001622fb5e363b421",
            "uncleHash" : "0x1dcc4de8dec75d7aab85b567b6ccd41ad312451b948a7413f0a142fd40d49347"
        },
        "genesisRLP" : "0xf901fff901faa00000000000000000000000000000000000000000000000000000000000000000a01dcc4de8dec75d7aab85b567b6ccd41ad312451b948a7413f0a142fd40d4934794945304eb96065b2a98b57a48a06ae28d285a71b5a07cb7dbaf63975ff87f6eef62e6a140c7d173005158fc466bc070185b8d7c12b7a056e81f171bcc55a6ff8345e692c0f86e5b48e01b996cadc001622fb5e363b421a056e81f171bcc55a6ff8345e692c0f86e5b48e01b996cadc001622fb5e363b421b90100000000000000000000000000000000000000000000000000000000000000000000000000000000000000000000000000000000000000000000000000000000000000000000000000000000000000000000000000000000000000000000000000000000000000000000000000000000000000000000000000000000000000000000000000000000000000000000000000000000000000000000000000000000000000000000000000000000000000000000000000000000000000000000000000000000000000000000000000000000000000000000000000000000000000000000000000000000000000000000000000000000000000000000000000000000008302000080887fffffffffffffff808203b642a056e81f171bcc55a6ff8345e692c0f86e5b48e01b996cadc001622fb5e363b421880102030405060708c0c0",
        "lastblockhash" : "0x4a24f5a51e2629603c3d16e3efdcf6c4179a4656b4025985fd679e72aa30c53c",
        "network" : "EIP158",
        "postState" : {
            "0x095e7baea6a6c7c4c2dfeb977efac326af552d87" : {
                "balance" : "0x00",
                "code" : "0x7f00000000000000000000000000000000000000000000000000000000000000007f000000000000000000000000945304eb96065b2a98b57a48a06ae28d285a71b57f000000000000000000000000000000000000000000000000000000000000000084967f000000000000000000000000ffffffffffffffffffffffffffffffffffffffff137ffffffffffffffffffffffffffffffffffffffffffffffffffffffffffffffffe016f3a5b594088a2f238089b71",
                "nonce" : "0x00",
                "storage" : {
                }
            },
            "0x945304eb96065b2a98b57a48a06ae28d285a71b5" : {
                "balance" : "0x4563918270ca6eac",
                "code" : "0x6000355415600957005b60203560003555",
                "nonce" : "0x00",
                "storage" : {
                }
            },
            "0xa94f5374fce5edbc8e2a8697c15331677e6ebf0b" : {
                "balance" : "0x0de0b6b37b8d9182",
                "code" : "",
                "nonce" : "0x01",
                "storage" : {
                }
            }
        },
        "pre" : {
            "0x095e7baea6a6c7c4c2dfeb977efac326af552d87" : {
                "balance" : "0x00",
                "code" : "0x7f00000000000000000000000000000000000000000000000000000000000000007f000000000000000000000000945304eb96065b2a98b57a48a06ae28d285a71b57f000000000000000000000000000000000000000000000000000000000000000084967f000000000000000000000000ffffffffffffffffffffffffffffffffffffffff137ffffffffffffffffffffffffffffffffffffffffffffffffffffffffffffffffe016f3a5b594088a2f238089b71",
                "nonce" : "0x00",
                "storage" : {
                }
            },
            "0x945304eb96065b2a98b57a48a06ae28d285a71b5" : {
                "balance" : "0x2e",
                "code" : "0x6000355415600957005b60203560003555",
                "nonce" : "0x00",
                "storage" : {
                }
            },
            "0xa94f5374fce5edbc8e2a8697c15331677e6ebf0b" : {
                "balance" : "0x0de0b6b3a7640000",
                "code" : "",
                "nonce" : "0x00",
                "storage" : {
                }
            }
        }
    },
    "randomStatetest55_d0g0v0_Frontier" : {
        "_info" : {
            "comment" : "",
            "filledwith" : "cpp-1.3.0+commit.4e101574.Linux.g++",
            "lllcversion" : "Version: 0.4.18-develop.2017.10.11+commit.81f9f86c.Linux.g++",
            "source" : "src/BlockchainTestsFiller/GeneralStateTests/stRandom/randomStatetest55_d0g0v0Filler.json",
            "sourceHash" : "d1b80a93278822c4c0898099ed861e20ccc2a34148d4021d21b173f24004f25e"
        },
        "blocks" : [
            {
                "blockHeader" : {
                    "bloom" : "0x00000000000000000000000000000000000000000000000000000000000000000000000000000000000000000000000000000000000000000000000000000000000000000000000000000000000000000000000000000000000000000000000000000000000000000000000000000000000000000000000000000000000000000000000000000000000000000000000000000000000000000000000000000000000000000000000000000000000000000000000000000000000000000000000000000000000000000000000000000000000000000000000000000000000000000000000000000000000000000000000000000000000000000000000000000000",
                    "coinbase" : "0x945304eb96065b2a98b57a48a06ae28d285a71b5",
                    "difficulty" : "0x020000",
                    "extraData" : "",
                    "gasLimit" : "0x7fffffffffffffff",
                    "gasUsed" : "0x2bd66e7e",
                    "hash" : "0xb5ffd0da1b35fa1b400e5c1dec6931cd7c78bbccfb5e2c7e3d884c1e43197a02",
                    "mixHash" : "0x1e209b429906f7d7403659c29016e461dee733a60e62301b7fdaafd48cc6c938",
                    "nonce" : "0x79a488c45b04e8b3",
                    "number" : "0x01",
                    "parentHash" : "0x1024137088937fe8808d2a7f58e53648a65d0a9da7d4a40100821defbc47e2e2",
                    "receiptTrie" : "0xdc750e66cfe146ef79d749cb09f192fd56b83628b24902f174eacb5753c61fb1",
                    "stateRoot" : "0xef91dc7ebf83dfb97045988db6ac405a1b775a01a2730acb27afb7a33f81c978",
                    "timestamp" : "0x03e8",
                    "transactionsTrie" : "0x837ae25b151e727913edbce95b9477426bb69ee357df86ef337199be4cacf821",
                    "uncleHash" : "0x1dcc4de8dec75d7aab85b567b6ccd41ad312451b948a7413f0a142fd40d49347"
                },
                "rlp" : "0xf90323f901fea01024137088937fe8808d2a7f58e53648a65d0a9da7d4a40100821defbc47e2e2a01dcc4de8dec75d7aab85b567b6ccd41ad312451b948a7413f0a142fd40d4934794945304eb96065b2a98b57a48a06ae28d285a71b5a0ef91dc7ebf83dfb97045988db6ac405a1b775a01a2730acb27afb7a33f81c978a0837ae25b151e727913edbce95b9477426bb69ee357df86ef337199be4cacf821a0dc750e66cfe146ef79d749cb09f192fd56b83628b24902f174eacb5753c61fb1b90100000000000000000000000000000000000000000000000000000000000000000000000000000000000000000000000000000000000000000000000000000000000000000000000000000000000000000000000000000000000000000000000000000000000000000000000000000000000000000000000000000000000000000000000000000000000000000000000000000000000000000000000000000000000000000000000000000000000000000000000000000000000000000000000000000000000000000000000000000000000000000000000000000000000000000000000000000000000000000000000000000000000000000000000000000000008302000001887fffffffffffffff842bd66e7e8203e880a01e209b429906f7d7403659c29016e461dee733a60e62301b7fdaafd48cc6c9388879a488c45b04e8b3f9011ef9011b8001842bd66e7e94095e7baea6a6c7c4c2dfeb977efac326af552d878440bfde69b8b57f00000000000000000000000000000000000000000000000000000000000000007f000000000000000000000000945304eb96065b2a98b57a48a06ae28d285a71b57f000000000000000000000000000000000000000000000000000000000000000084967f000000000000000000000000ffffffffffffffffffffffffffffffffffffffff137ffffffffffffffffffffffffffffffffffffffffffffffffffffffffffffffffe016f3a5b594088a2f238089b711ba0a119f83ce4e515c1a05eaeb94929919eb29b95d2857f5a1f0ce0659e1afe7a41a045a9e59d7d1fa35229fb9da288835751cff77276c0eb8bc99a417d2582d0d407c0",
                "transactions" : [
                    {
                        "data" : "0x7f00000000000000000000000000000000000000000000000000000000000000007f000000000000000000000000945304eb96065b2a98b57a48a06ae28d285a71b57f000000000000000000000000000000000000000000000000000000000000000084967f000000000000000000000000ffffffffffffffffffffffffffffffffffffffff137ffffffffffffffffffffffffffffffffffffffffffffffffffffffffffffffffe016f3a5b594088a2f238089b71",
                        "gasLimit" : "0x2bd66e7e",
                        "gasPrice" : "0x01",
                        "nonce" : "0x00",
                        "r" : "0xa119f83ce4e515c1a05eaeb94929919eb29b95d2857f5a1f0ce0659e1afe7a41",
                        "s" : "0x45a9e59d7d1fa35229fb9da288835751cff77276c0eb8bc99a417d2582d0d407",
                        "to" : "0x095e7baea6a6c7c4c2dfeb977efac326af552d87",
                        "v" : "0x1b",
                        "value" : "0x40bfde69"
                    }
                ],
                "uncleHeaders" : [
                ]
            }
        ],
        "genesisBlockHeader" : {
            "bloom" : "0x00000000000000000000000000000000000000000000000000000000000000000000000000000000000000000000000000000000000000000000000000000000000000000000000000000000000000000000000000000000000000000000000000000000000000000000000000000000000000000000000000000000000000000000000000000000000000000000000000000000000000000000000000000000000000000000000000000000000000000000000000000000000000000000000000000000000000000000000000000000000000000000000000000000000000000000000000000000000000000000000000000000000000000000000000000000",
            "coinbase" : "0x945304eb96065b2a98b57a48a06ae28d285a71b5",
            "difficulty" : "0x020000",
            "extraData" : "0x42",
            "gasLimit" : "0x7fffffffffffffff",
            "gasUsed" : "0x00",
            "hash" : "0x1024137088937fe8808d2a7f58e53648a65d0a9da7d4a40100821defbc47e2e2",
            "mixHash" : "0x56e81f171bcc55a6ff8345e692c0f86e5b48e01b996cadc001622fb5e363b421",
            "nonce" : "0x0102030405060708",
            "number" : "0x00",
            "parentHash" : "0x0000000000000000000000000000000000000000000000000000000000000000",
            "receiptTrie" : "0x56e81f171bcc55a6ff8345e692c0f86e5b48e01b996cadc001622fb5e363b421",
            "stateRoot" : "0x7cb7dbaf63975ff87f6eef62e6a140c7d173005158fc466bc070185b8d7c12b7",
            "timestamp" : "0x03b6",
            "transactionsTrie" : "0x56e81f171bcc55a6ff8345e692c0f86e5b48e01b996cadc001622fb5e363b421",
            "uncleHash" : "0x1dcc4de8dec75d7aab85b567b6ccd41ad312451b948a7413f0a142fd40d49347"
        },
        "genesisRLP" : "0xf901fff901faa00000000000000000000000000000000000000000000000000000000000000000a01dcc4de8dec75d7aab85b567b6ccd41ad312451b948a7413f0a142fd40d4934794945304eb96065b2a98b57a48a06ae28d285a71b5a07cb7dbaf63975ff87f6eef62e6a140c7d173005158fc466bc070185b8d7c12b7a056e81f171bcc55a6ff8345e692c0f86e5b48e01b996cadc001622fb5e363b421a056e81f171bcc55a6ff8345e692c0f86e5b48e01b996cadc001622fb5e363b421b90100000000000000000000000000000000000000000000000000000000000000000000000000000000000000000000000000000000000000000000000000000000000000000000000000000000000000000000000000000000000000000000000000000000000000000000000000000000000000000000000000000000000000000000000000000000000000000000000000000000000000000000000000000000000000000000000000000000000000000000000000000000000000000000000000000000000000000000000000000000000000000000000000000000000000000000000000000000000000000000000000000000000000000000000000000000008302000080887fffffffffffffff808203b642a056e81f171bcc55a6ff8345e692c0f86e5b48e01b996cadc001622fb5e363b421880102030405060708c0c0",
        "lastblockhash" : "0xb5ffd0da1b35fa1b400e5c1dec6931cd7c78bbccfb5e2c7e3d884c1e43197a02",
        "network" : "Frontier",
        "postState" : {
            "0x095e7baea6a6c7c4c2dfeb977efac326af552d87" : {
                "balance" : "0x00",
                "code" : "0x7f00000000000000000000000000000000000000000000000000000000000000007f000000000000000000000000945304eb96065b2a98b57a48a06ae28d285a71b57f000000000000000000000000000000000000000000000000000000000000000084967f000000000000000000000000ffffffffffffffffffffffffffffffffffffffff137ffffffffffffffffffffffffffffffffffffffffffffffffffffffffffffffffe016f3a5b594088a2f238089b71",
                "nonce" : "0x00",
                "storage" : {
                }
            },
            "0x945304eb96065b2a98b57a48a06ae28d285a71b5" : {
                "balance" : "0x4563918270ca6eac",
                "code" : "0x6000355415600957005b60203560003555",
                "nonce" : "0x00",
                "storage" : {
                }
            },
            "0xa94f5374fce5edbc8e2a8697c15331677e6ebf0b" : {
                "balance" : "0x0de0b6b37b8d9182",
                "code" : "",
                "nonce" : "0x01",
                "storage" : {
                }
            }
        },
        "pre" : {
            "0x095e7baea6a6c7c4c2dfeb977efac326af552d87" : {
                "balance" : "0x00",
                "code" : "0x7f00000000000000000000000000000000000000000000000000000000000000007f000000000000000000000000945304eb96065b2a98b57a48a06ae28d285a71b57f000000000000000000000000000000000000000000000000000000000000000084967f000000000000000000000000ffffffffffffffffffffffffffffffffffffffff137ffffffffffffffffffffffffffffffffffffffffffffffffffffffffffffffffe016f3a5b594088a2f238089b71",
                "nonce" : "0x00",
                "storage" : {
                }
            },
            "0x945304eb96065b2a98b57a48a06ae28d285a71b5" : {
                "balance" : "0x2e",
                "code" : "0x6000355415600957005b60203560003555",
                "nonce" : "0x00",
                "storage" : {
                }
            },
            "0xa94f5374fce5edbc8e2a8697c15331677e6ebf0b" : {
                "balance" : "0x0de0b6b3a7640000",
                "code" : "",
                "nonce" : "0x00",
                "storage" : {
                }
            }
        }
    },
    "randomStatetest55_d0g0v0_Homestead" : {
        "_info" : {
            "comment" : "",
            "filledwith" : "cpp-1.3.0+commit.4e101574.Linux.g++",
            "lllcversion" : "Version: 0.4.18-develop.2017.10.11+commit.81f9f86c.Linux.g++",
            "source" : "src/BlockchainTestsFiller/GeneralStateTests/stRandom/randomStatetest55_d0g0v0Filler.json",
            "sourceHash" : "d1b80a93278822c4c0898099ed861e20ccc2a34148d4021d21b173f24004f25e"
        },
        "blocks" : [
            {
                "blockHeader" : {
                    "bloom" : "0x00000000000000000000000000000000000000000000000000000000000000000000000000000000000000000000000000000000000000000000000000000000000000000000000000000000000000000000000000000000000000000000000000000000000000000000000000000000000000000000000000000000000000000000000000000000000000000000000000000000000000000000000000000000000000000000000000000000000000000000000000000000000000000000000000000000000000000000000000000000000000000000000000000000000000000000000000000000000000000000000000000000000000000000000000000000",
                    "coinbase" : "0x945304eb96065b2a98b57a48a06ae28d285a71b5",
                    "difficulty" : "0x020000",
                    "extraData" : "",
                    "gasLimit" : "0x7fffffffffffffff",
                    "gasUsed" : "0x2bd66e7e",
                    "hash" : "0x8c54404f2837dfa6df014a6367db85fa62bb7ed76ad84af035214cf366d32d47",
                    "mixHash" : "0x4d9711ae7c64f485a323c40c8461878d050c98607514e9d8e0079be19831b273",
                    "nonce" : "0x23d37af186b2d59d",
                    "number" : "0x01",
                    "parentHash" : "0x1024137088937fe8808d2a7f58e53648a65d0a9da7d4a40100821defbc47e2e2",
                    "receiptTrie" : "0xdc750e66cfe146ef79d749cb09f192fd56b83628b24902f174eacb5753c61fb1",
                    "stateRoot" : "0xef91dc7ebf83dfb97045988db6ac405a1b775a01a2730acb27afb7a33f81c978",
                    "timestamp" : "0x03e8",
                    "transactionsTrie" : "0x837ae25b151e727913edbce95b9477426bb69ee357df86ef337199be4cacf821",
                    "uncleHash" : "0x1dcc4de8dec75d7aab85b567b6ccd41ad312451b948a7413f0a142fd40d49347"
                },
                "rlp" : "0xf90323f901fea01024137088937fe8808d2a7f58e53648a65d0a9da7d4a40100821defbc47e2e2a01dcc4de8dec75d7aab85b567b6ccd41ad312451b948a7413f0a142fd40d4934794945304eb96065b2a98b57a48a06ae28d285a71b5a0ef91dc7ebf83dfb97045988db6ac405a1b775a01a2730acb27afb7a33f81c978a0837ae25b151e727913edbce95b9477426bb69ee357df86ef337199be4cacf821a0dc750e66cfe146ef79d749cb09f192fd56b83628b24902f174eacb5753c61fb1b90100000000000000000000000000000000000000000000000000000000000000000000000000000000000000000000000000000000000000000000000000000000000000000000000000000000000000000000000000000000000000000000000000000000000000000000000000000000000000000000000000000000000000000000000000000000000000000000000000000000000000000000000000000000000000000000000000000000000000000000000000000000000000000000000000000000000000000000000000000000000000000000000000000000000000000000000000000000000000000000000000000000000000000000000000000000008302000001887fffffffffffffff842bd66e7e8203e880a04d9711ae7c64f485a323c40c8461878d050c98607514e9d8e0079be19831b2738823d37af186b2d59df9011ef9011b8001842bd66e7e94095e7baea6a6c7c4c2dfeb977efac326af552d878440bfde69b8b57f00000000000000000000000000000000000000000000000000000000000000007f000000000000000000000000945304eb96065b2a98b57a48a06ae28d285a71b57f000000000000000000000000000000000000000000000000000000000000000084967f000000000000000000000000ffffffffffffffffffffffffffffffffffffffff137ffffffffffffffffffffffffffffffffffffffffffffffffffffffffffffffffe016f3a5b594088a2f238089b711ba0a119f83ce4e515c1a05eaeb94929919eb29b95d2857f5a1f0ce0659e1afe7a41a045a9e59d7d1fa35229fb9da288835751cff77276c0eb8bc99a417d2582d0d407c0",
                "transactions" : [
                    {
                        "data" : "0x7f00000000000000000000000000000000000000000000000000000000000000007f000000000000000000000000945304eb96065b2a98b57a48a06ae28d285a71b57f000000000000000000000000000000000000000000000000000000000000000084967f000000000000000000000000ffffffffffffffffffffffffffffffffffffffff137ffffffffffffffffffffffffffffffffffffffffffffffffffffffffffffffffe016f3a5b594088a2f238089b71",
                        "gasLimit" : "0x2bd66e7e",
                        "gasPrice" : "0x01",
                        "nonce" : "0x00",
                        "r" : "0xa119f83ce4e515c1a05eaeb94929919eb29b95d2857f5a1f0ce0659e1afe7a41",
                        "s" : "0x45a9e59d7d1fa35229fb9da288835751cff77276c0eb8bc99a417d2582d0d407",
                        "to" : "0x095e7baea6a6c7c4c2dfeb977efac326af552d87",
                        "v" : "0x1b",
                        "value" : "0x40bfde69"
                    }
                ],
                "uncleHeaders" : [
                ]
            }
        ],
        "genesisBlockHeader" : {
            "bloom" : "0x00000000000000000000000000000000000000000000000000000000000000000000000000000000000000000000000000000000000000000000000000000000000000000000000000000000000000000000000000000000000000000000000000000000000000000000000000000000000000000000000000000000000000000000000000000000000000000000000000000000000000000000000000000000000000000000000000000000000000000000000000000000000000000000000000000000000000000000000000000000000000000000000000000000000000000000000000000000000000000000000000000000000000000000000000000000",
            "coinbase" : "0x945304eb96065b2a98b57a48a06ae28d285a71b5",
            "difficulty" : "0x020000",
            "extraData" : "0x42",
            "gasLimit" : "0x7fffffffffffffff",
            "gasUsed" : "0x00",
            "hash" : "0x1024137088937fe8808d2a7f58e53648a65d0a9da7d4a40100821defbc47e2e2",
            "mixHash" : "0x56e81f171bcc55a6ff8345e692c0f86e5b48e01b996cadc001622fb5e363b421",
            "nonce" : "0x0102030405060708",
            "number" : "0x00",
            "parentHash" : "0x0000000000000000000000000000000000000000000000000000000000000000",
            "receiptTrie" : "0x56e81f171bcc55a6ff8345e692c0f86e5b48e01b996cadc001622fb5e363b421",
            "stateRoot" : "0x7cb7dbaf63975ff87f6eef62e6a140c7d173005158fc466bc070185b8d7c12b7",
            "timestamp" : "0x03b6",
            "transactionsTrie" : "0x56e81f171bcc55a6ff8345e692c0f86e5b48e01b996cadc001622fb5e363b421",
            "uncleHash" : "0x1dcc4de8dec75d7aab85b567b6ccd41ad312451b948a7413f0a142fd40d49347"
        },
        "genesisRLP" : "0xf901fff901faa00000000000000000000000000000000000000000000000000000000000000000a01dcc4de8dec75d7aab85b567b6ccd41ad312451b948a7413f0a142fd40d4934794945304eb96065b2a98b57a48a06ae28d285a71b5a07cb7dbaf63975ff87f6eef62e6a140c7d173005158fc466bc070185b8d7c12b7a056e81f171bcc55a6ff8345e692c0f86e5b48e01b996cadc001622fb5e363b421a056e81f171bcc55a6ff8345e692c0f86e5b48e01b996cadc001622fb5e363b421b90100000000000000000000000000000000000000000000000000000000000000000000000000000000000000000000000000000000000000000000000000000000000000000000000000000000000000000000000000000000000000000000000000000000000000000000000000000000000000000000000000000000000000000000000000000000000000000000000000000000000000000000000000000000000000000000000000000000000000000000000000000000000000000000000000000000000000000000000000000000000000000000000000000000000000000000000000000000000000000000000000000000000000000000000000000000008302000080887fffffffffffffff808203b642a056e81f171bcc55a6ff8345e692c0f86e5b48e01b996cadc001622fb5e363b421880102030405060708c0c0",
        "lastblockhash" : "0x8c54404f2837dfa6df014a6367db85fa62bb7ed76ad84af035214cf366d32d47",
        "network" : "Homestead",
        "postState" : {
            "0x095e7baea6a6c7c4c2dfeb977efac326af552d87" : {
                "balance" : "0x00",
                "code" : "0x7f00000000000000000000000000000000000000000000000000000000000000007f000000000000000000000000945304eb96065b2a98b57a48a06ae28d285a71b57f000000000000000000000000000000000000000000000000000000000000000084967f000000000000000000000000ffffffffffffffffffffffffffffffffffffffff137ffffffffffffffffffffffffffffffffffffffffffffffffffffffffffffffffe016f3a5b594088a2f238089b71",
                "nonce" : "0x00",
                "storage" : {
                }
            },
            "0x945304eb96065b2a98b57a48a06ae28d285a71b5" : {
                "balance" : "0x4563918270ca6eac",
                "code" : "0x6000355415600957005b60203560003555",
                "nonce" : "0x00",
                "storage" : {
                }
            },
            "0xa94f5374fce5edbc8e2a8697c15331677e6ebf0b" : {
                "balance" : "0x0de0b6b37b8d9182",
                "code" : "",
                "nonce" : "0x01",
                "storage" : {
                }
            }
        },
        "pre" : {
            "0x095e7baea6a6c7c4c2dfeb977efac326af552d87" : {
                "balance" : "0x00",
                "code" : "0x7f00000000000000000000000000000000000000000000000000000000000000007f000000000000000000000000945304eb96065b2a98b57a48a06ae28d285a71b57f000000000000000000000000000000000000000000000000000000000000000084967f000000000000000000000000ffffffffffffffffffffffffffffffffffffffff137ffffffffffffffffffffffffffffffffffffffffffffffffffffffffffffffffe016f3a5b594088a2f238089b71",
                "nonce" : "0x00",
                "storage" : {
                }
            },
            "0x945304eb96065b2a98b57a48a06ae28d285a71b5" : {
                "balance" : "0x2e",
                "code" : "0x6000355415600957005b60203560003555",
                "nonce" : "0x00",
                "storage" : {
                }
            },
            "0xa94f5374fce5edbc8e2a8697c15331677e6ebf0b" : {
                "balance" : "0x0de0b6b3a7640000",
                "code" : "",
                "nonce" : "0x00",
                "storage" : {
                }
            }
        }
    }
}