{
    "randomStatetest275_d0g0v0_Byzantium" : {
        "_info" : {
            "comment" : "",
            "filledwith" : "cpp-1.3.0+commit.4e101574.Linux.g++",
            "lllcversion" : "Version: 0.4.18-develop.2017.10.11+commit.81f9f86c.Linux.g++",
            "source" : "src/BlockchainTestsFiller/GeneralStateTests/stRandom/randomStatetest275_d0g0v0Filler.json",
            "sourceHash" : "1da9c17b5d33400172a2f2c42b1829ffb40d4d1903c807d41afa01c6e87ae85d"
        },
        "blocks" : [
            {
                "blockHeader" : {
                    "bloom" : "0x00000000000000000000000000000000000000000000000000000000000000000000000000000000000000000000000000000000000000000000000000000000000000000000000000000000000000000000000000000000000000000000000000000000000000000000000000000000000000000000000000000000000000000000000000000000000000000000000000000000000000000000000000000000000000000000000000000000000000000000000000000000000000000000000000000000000000000000000000000000000000000000000000000000000000000000000000000000000000000000000000000000000000000000000000000000",
                    "coinbase" : "0x945304eb96065b2a98b57a48a06ae28d285a71b5",
                    "difficulty" : "0x020000",
                    "extraData" : "",
                    "gasLimit" : "0x7fffffffffffffff",
                    "gasUsed" : "0x84ab",
                    "hash" : "0x5ef2437ab504532f4ebf22358993f708561b2f003fe3b5adc3de638c49ad7b3c",
                    "mixHash" : "0xaa1dd92319dffcf9d9926d4002a19a886441a945272200b4810ae18ad3355f7d",
                    "nonce" : "0x8aa1d7efd16cdc54",
                    "number" : "0x01",
                    "parentHash" : "0xb3e218846e7fed2106fbd3682c56b45d2cd9318062aff0eedf5764765bf465b2",
                    "receiptTrie" : "0x53e51ca9158ce10c5accdc74426f87da4c9519acb8abc10f443a4492c3c44a51",
                    "stateRoot" : "0x1e82e75ff75769a1cdb265f4a0e8f5c8f5e66cb7d0a3420da6fbe42af0bbeb9d",
                    "timestamp" : "0x03e8",
                    "transactionsTrie" : "0xadd7059e5ddf4487dc0d327e25c7c853687e2e3baf56d1fc7e24308ba800851b",
                    "uncleHash" : "0x1dcc4de8dec75d7aab85b567b6ccd41ad312451b948a7413f0a142fd40d49347"
                },
                "rlp" : "0xf9031af901fca0b3e218846e7fed2106fbd3682c56b45d2cd9318062aff0eedf5764765bf465b2a01dcc4de8dec75d7aab85b567b6ccd41ad312451b948a7413f0a142fd40d4934794945304eb96065b2a98b57a48a06ae28d285a71b5a01e82e75ff75769a1cdb265f4a0e8f5c8f5e66cb7d0a3420da6fbe42af0bbeb9da0add7059e5ddf4487dc0d327e25c7c853687e2e3baf56d1fc7e24308ba800851ba053e51ca9158ce10c5accdc74426f87da4c9519acb8abc10f443a4492c3c44a51b90100000000000000000000000000000000000000000000000000000000000000000000000000000000000000000000000000000000000000000000000000000000000000000000000000000000000000000000000000000000000000000000000000000000000000000000000000000000000000000000000000000000000000000000000000000000000000000000000000000000000000000000000000000000000000000000000000000000000000000000000000000000000000000000000000000000000000000000000000000000000000000000000000000000000000000000000000000000000000000000000000000000000000000000000000000000008302000001887fffffffffffffff8284ab8203e880a0aa1dd92319dffcf9d9926d4002a19a886441a945272200b4810ae18ad3355f7d888aa1d7efd16cdc54f90117f90114800184115932d194095e7baea6a6c7c4c2dfeb977efac326af552d87833f6fcfb8af437f000000000000000000000000000000000000000000000000000000000000c3507ffffffffffffffffffffffffffffffffffffffffffffffffffffffffffffffffe7fffffffffffffffffffffffffffffffffffffffffffffffffffffffffffffffff7f0000000000000000000000000000000000000000000000000000000000000000197ffffffffffffffffffffffffffffffffffffffffffffffffffffffffffffffffe09656756323c59741ba0b4ade28bd2d7ffbd365faa0ec44b79c98298982d74ed572fc53dc427978393e6a0193f5c281d1c44e266629a1b5c1ca70fbc759b7bf662aa9c3d5a6130c070247dc0",
                "transactions" : [
                    {
                        "data" : "0x437f000000000000000000000000000000000000000000000000000000000000c3507ffffffffffffffffffffffffffffffffffffffffffffffffffffffffffffffffe7fffffffffffffffffffffffffffffffffffffffffffffffffffffffffffffffff7f0000000000000000000000000000000000000000000000000000000000000000197ffffffffffffffffffffffffffffffffffffffffffffffffffffffffffffffffe09656756323c5974",
                        "gasLimit" : "0x115932d1",
                        "gasPrice" : "0x01",
                        "nonce" : "0x00",
                        "r" : "0xb4ade28bd2d7ffbd365faa0ec44b79c98298982d74ed572fc53dc427978393e6",
                        "s" : "0x193f5c281d1c44e266629a1b5c1ca70fbc759b7bf662aa9c3d5a6130c070247d",
                        "to" : "0x095e7baea6a6c7c4c2dfeb977efac326af552d87",
                        "v" : "0x1b",
                        "value" : "0x3f6fcf"
                    }
                ],
                "uncleHeaders" : [
                ]
            }
        ],
        "genesisBlockHeader" : {
            "bloom" : "0x00000000000000000000000000000000000000000000000000000000000000000000000000000000000000000000000000000000000000000000000000000000000000000000000000000000000000000000000000000000000000000000000000000000000000000000000000000000000000000000000000000000000000000000000000000000000000000000000000000000000000000000000000000000000000000000000000000000000000000000000000000000000000000000000000000000000000000000000000000000000000000000000000000000000000000000000000000000000000000000000000000000000000000000000000000000",
            "coinbase" : "0x945304eb96065b2a98b57a48a06ae28d285a71b5",
            "difficulty" : "0x020000",
            "extraData" : "0x42",
            "gasLimit" : "0x7fffffffffffffff",
            "gasUsed" : "0x00",
            "hash" : "0xb3e218846e7fed2106fbd3682c56b45d2cd9318062aff0eedf5764765bf465b2",
            "mixHash" : "0x56e81f171bcc55a6ff8345e692c0f86e5b48e01b996cadc001622fb5e363b421",
            "nonce" : "0x0102030405060708",
            "number" : "0x00",
            "parentHash" : "0x0000000000000000000000000000000000000000000000000000000000000000",
            "receiptTrie" : "0x56e81f171bcc55a6ff8345e692c0f86e5b48e01b996cadc001622fb5e363b421",
            "stateRoot" : "0x420ee001cbb2dfd3adf3de661b6f6c2dc7060626b72f9d41a43955b37f52bb71",
            "timestamp" : "0x03b6",
            "transactionsTrie" : "0x56e81f171bcc55a6ff8345e692c0f86e5b48e01b996cadc001622fb5e363b421",
            "uncleHash" : "0x1dcc4de8dec75d7aab85b567b6ccd41ad312451b948a7413f0a142fd40d49347"
        },
        "genesisRLP" : "0xf901fff901faa00000000000000000000000000000000000000000000000000000000000000000a01dcc4de8dec75d7aab85b567b6ccd41ad312451b948a7413f0a142fd40d4934794945304eb96065b2a98b57a48a06ae28d285a71b5a0420ee001cbb2dfd3adf3de661b6f6c2dc7060626b72f9d41a43955b37f52bb71a056e81f171bcc55a6ff8345e692c0f86e5b48e01b996cadc001622fb5e363b421a056e81f171bcc55a6ff8345e692c0f86e5b48e01b996cadc001622fb5e363b421b90100000000000000000000000000000000000000000000000000000000000000000000000000000000000000000000000000000000000000000000000000000000000000000000000000000000000000000000000000000000000000000000000000000000000000000000000000000000000000000000000000000000000000000000000000000000000000000000000000000000000000000000000000000000000000000000000000000000000000000000000000000000000000000000000000000000000000000000000000000000000000000000000000000000000000000000000000000000000000000000000000000000000000000000000000000000008302000080887fffffffffffffff808203b642a056e81f171bcc55a6ff8345e692c0f86e5b48e01b996cadc001622fb5e363b421880102030405060708c0c0",
        "lastblockhash" : "0x5ef2437ab504532f4ebf22358993f708561b2f003fe3b5adc3de638c49ad7b3c",
        "network" : "Byzantium",
        "postState" : {
            "0x095e7baea6a6c7c4c2dfeb977efac326af552d87" : {
                "balance" : "0x3f6fcf",
                "code" : "0x437f000000000000000000000000000000000000000000000000000000000000c3507ffffffffffffffffffffffffffffffffffffffffffffffffffffffffffffffffe7fffffffffffffffffffffffffffffffffffffffffffffffffffffffffffffffff7f0000000000000000000000000000000000000000000000000000000000000000197ffffffffffffffffffffffffffffffffffffffffffffffffffffffffffffffffe09656756323c597455",
                "nonce" : "0x00",
                "storage" : {
                }
            },
            "0x945304eb96065b2a98b57a48a06ae28d285a71b5" : {
                "balance" : "0x29a2241af62c84d9",
                "code" : "0x6000355415600957005b60203560003555",
                "nonce" : "0x00",
                "storage" : {
                }
            },
            "0xa94f5374fce5edbc8e2a8697c15331677e6ebf0b" : {
                "balance" : "0x0de0b6b3a7240b86",
                "code" : "",
                "nonce" : "0x01",
                "storage" : {
                }
            }
        },
        "pre" : {
            "0x095e7baea6a6c7c4c2dfeb977efac326af552d87" : {
                "balance" : "0x00",
                "code" : "0x437f000000000000000000000000000000000000000000000000000000000000c3507ffffffffffffffffffffffffffffffffffffffffffffffffffffffffffffffffe7fffffffffffffffffffffffffffffffffffffffffffffffffffffffffffffffff7f0000000000000000000000000000000000000000000000000000000000000000197ffffffffffffffffffffffffffffffffffffffffffffffffffffffffffffffffe09656756323c597455",
                "nonce" : "0x00",
                "storage" : {
                }
            },
            "0x945304eb96065b2a98b57a48a06ae28d285a71b5" : {
                "balance" : "0x2e",
                "code" : "0x6000355415600957005b60203560003555",
                "nonce" : "0x00",
                "storage" : {
                }
            },
            "0xa94f5374fce5edbc8e2a8697c15331677e6ebf0b" : {
                "balance" : "0x0de0b6b3a7640000",
                "code" : "",
                "nonce" : "0x00",
                "storage" : {
                }
            }
        }
    },
    "randomStatetest275_d0g0v0_EIP150" : {
        "_info" : {
            "comment" : "",
            "filledwith" : "cpp-1.3.0+commit.4e101574.Linux.g++",
            "lllcversion" : "Version: 0.4.18-develop.2017.10.11+commit.81f9f86c.Linux.g++",
            "source" : "src/BlockchainTestsFiller/GeneralStateTests/stRandom/randomStatetest275_d0g0v0Filler.json",
            "sourceHash" : "1da9c17b5d33400172a2f2c42b1829ffb40d4d1903c807d41afa01c6e87ae85d"
        },
        "blocks" : [
            {
                "blockHeader" : {
                    "bloom" : "0x00000000000000000000000000000000000000000000000000000000000000000000000000000000000000000000000000000000000000000000000000000000000000000000000000000000000000000000000000000000000000000000000000000000000000000000000000000000000000000000000000000000000000000000000000000000000000000000000000000000000000000000000000000000000000000000000000000000000000000000000000000000000000000000000000000000000000000000000000000000000000000000000000000000000000000000000000000000000000000000000000000000000000000000000000000000",
                    "coinbase" : "0x945304eb96065b2a98b57a48a06ae28d285a71b5",
                    "difficulty" : "0x020000",
                    "extraData" : "",
                    "gasLimit" : "0x7fffffffffffffff",
                    "gasUsed" : "0x84ab",
                    "hash" : "0x98942e97076753ee3424a3553923821e19093315786aad5da1fdaddecd8f02d1",
                    "mixHash" : "0xb3b858e306a78a937d6cd09a24d6e390672d0dc6e997a949901c75311c9ef08a",
                    "nonce" : "0x6ab50397a881ae9f",
                    "number" : "0x01",
                    "parentHash" : "0xb3e218846e7fed2106fbd3682c56b45d2cd9318062aff0eedf5764765bf465b2",
                    "receiptTrie" : "0x88082cea6b54f226a3332e0bac5a45e3630ad5b1ae9fd70bc149a2c3f8cf62d1",
                    "stateRoot" : "0x26e473980170c6495160726ea3ca9d6dddfbf60b910fa6be4f77d2413f3e3a6c",
                    "timestamp" : "0x03e8",
                    "transactionsTrie" : "0xadd7059e5ddf4487dc0d327e25c7c853687e2e3baf56d1fc7e24308ba800851b",
                    "uncleHash" : "0x1dcc4de8dec75d7aab85b567b6ccd41ad312451b948a7413f0a142fd40d49347"
                },
                "rlp" : "0xf9031af901fca0b3e218846e7fed2106fbd3682c56b45d2cd9318062aff0eedf5764765bf465b2a01dcc4de8dec75d7aab85b567b6ccd41ad312451b948a7413f0a142fd40d4934794945304eb96065b2a98b57a48a06ae28d285a71b5a026e473980170c6495160726ea3ca9d6dddfbf60b910fa6be4f77d2413f3e3a6ca0add7059e5ddf4487dc0d327e25c7c853687e2e3baf56d1fc7e24308ba800851ba088082cea6b54f226a3332e0bac5a45e3630ad5b1ae9fd70bc149a2c3f8cf62d1b90100000000000000000000000000000000000000000000000000000000000000000000000000000000000000000000000000000000000000000000000000000000000000000000000000000000000000000000000000000000000000000000000000000000000000000000000000000000000000000000000000000000000000000000000000000000000000000000000000000000000000000000000000000000000000000000000000000000000000000000000000000000000000000000000000000000000000000000000000000000000000000000000000000000000000000000000000000000000000000000000000000000000000000000000000000000008302000001887fffffffffffffff8284ab8203e880a0b3b858e306a78a937d6cd09a24d6e390672d0dc6e997a949901c75311c9ef08a886ab50397a881ae9ff90117f90114800184115932d194095e7baea6a6c7c4c2dfeb977efac326af552d87833f6fcfb8af437f000000000000000000000000000000000000000000000000000000000000c3507ffffffffffffffffffffffffffffffffffffffffffffffffffffffffffffffffe7fffffffffffffffffffffffffffffffffffffffffffffffffffffffffffffffff7f0000000000000000000000000000000000000000000000000000000000000000197ffffffffffffffffffffffffffffffffffffffffffffffffffffffffffffffffe09656756323c59741ba0b4ade28bd2d7ffbd365faa0ec44b79c98298982d74ed572fc53dc427978393e6a0193f5c281d1c44e266629a1b5c1ca70fbc759b7bf662aa9c3d5a6130c070247dc0",
                "transactions" : [
                    {
                        "data" : "0x437f000000000000000000000000000000000000000000000000000000000000c3507ffffffffffffffffffffffffffffffffffffffffffffffffffffffffffffffffe7fffffffffffffffffffffffffffffffffffffffffffffffffffffffffffffffff7f0000000000000000000000000000000000000000000000000000000000000000197ffffffffffffffffffffffffffffffffffffffffffffffffffffffffffffffffe09656756323c5974",
                        "gasLimit" : "0x115932d1",
                        "gasPrice" : "0x01",
                        "nonce" : "0x00",
                        "r" : "0xb4ade28bd2d7ffbd365faa0ec44b79c98298982d74ed572fc53dc427978393e6",
                        "s" : "0x193f5c281d1c44e266629a1b5c1ca70fbc759b7bf662aa9c3d5a6130c070247d",
                        "to" : "0x095e7baea6a6c7c4c2dfeb977efac326af552d87",
                        "v" : "0x1b",
                        "value" : "0x3f6fcf"
                    }
                ],
                "uncleHeaders" : [
                ]
            }
        ],
        "genesisBlockHeader" : {
            "bloom" : "0x00000000000000000000000000000000000000000000000000000000000000000000000000000000000000000000000000000000000000000000000000000000000000000000000000000000000000000000000000000000000000000000000000000000000000000000000000000000000000000000000000000000000000000000000000000000000000000000000000000000000000000000000000000000000000000000000000000000000000000000000000000000000000000000000000000000000000000000000000000000000000000000000000000000000000000000000000000000000000000000000000000000000000000000000000000000",
            "coinbase" : "0x945304eb96065b2a98b57a48a06ae28d285a71b5",
            "difficulty" : "0x020000",
            "extraData" : "0x42",
            "gasLimit" : "0x7fffffffffffffff",
            "gasUsed" : "0x00",
            "hash" : "0xb3e218846e7fed2106fbd3682c56b45d2cd9318062aff0eedf5764765bf465b2",
            "mixHash" : "0x56e81f171bcc55a6ff8345e692c0f86e5b48e01b996cadc001622fb5e363b421",
            "nonce" : "0x0102030405060708",
            "number" : "0x00",
            "parentHash" : "0x0000000000000000000000000000000000000000000000000000000000000000",
            "receiptTrie" : "0x56e81f171bcc55a6ff8345e692c0f86e5b48e01b996cadc001622fb5e363b421",
            "stateRoot" : "0x420ee001cbb2dfd3adf3de661b6f6c2dc7060626b72f9d41a43955b37f52bb71",
            "timestamp" : "0x03b6",
            "transactionsTrie" : "0x56e81f171bcc55a6ff8345e692c0f86e5b48e01b996cadc001622fb5e363b421",
            "uncleHash" : "0x1dcc4de8dec75d7aab85b567b6ccd41ad312451b948a7413f0a142fd40d49347"
        },
        "genesisRLP" : "0xf901fff901faa00000000000000000000000000000000000000000000000000000000000000000a01dcc4de8dec75d7aab85b567b6ccd41ad312451b948a7413f0a142fd40d4934794945304eb96065b2a98b57a48a06ae28d285a71b5a0420ee001cbb2dfd3adf3de661b6f6c2dc7060626b72f9d41a43955b37f52bb71a056e81f171bcc55a6ff8345e692c0f86e5b48e01b996cadc001622fb5e363b421a056e81f171bcc55a6ff8345e692c0f86e5b48e01b996cadc001622fb5e363b421b90100000000000000000000000000000000000000000000000000000000000000000000000000000000000000000000000000000000000000000000000000000000000000000000000000000000000000000000000000000000000000000000000000000000000000000000000000000000000000000000000000000000000000000000000000000000000000000000000000000000000000000000000000000000000000000000000000000000000000000000000000000000000000000000000000000000000000000000000000000000000000000000000000000000000000000000000000000000000000000000000000000000000000000000000000000000008302000080887fffffffffffffff808203b642a056e81f171bcc55a6ff8345e692c0f86e5b48e01b996cadc001622fb5e363b421880102030405060708c0c0",
        "lastblockhash" : "0x98942e97076753ee3424a3553923821e19093315786aad5da1fdaddecd8f02d1",
        "network" : "EIP150",
        "postState" : {
            "0x095e7baea6a6c7c4c2dfeb977efac326af552d87" : {
                "balance" : "0x3f6fcf",
                "code" : "0x437f000000000000000000000000000000000000000000000000000000000000c3507ffffffffffffffffffffffffffffffffffffffffffffffffffffffffffffffffe7fffffffffffffffffffffffffffffffffffffffffffffffffffffffffffffffff7f0000000000000000000000000000000000000000000000000000000000000000197ffffffffffffffffffffffffffffffffffffffffffffffffffffffffffffffffe09656756323c597455",
                "nonce" : "0x00",
                "storage" : {
                }
            },
            "0x945304eb96065b2a98b57a48a06ae28d285a71b5" : {
                "balance" : "0x4563918244f484d9",
                "code" : "0x6000355415600957005b60203560003555",
                "nonce" : "0x00",
                "storage" : {
                }
            },
            "0xa94f5374fce5edbc8e2a8697c15331677e6ebf0b" : {
                "balance" : "0x0de0b6b3a7240b86",
                "code" : "",
                "nonce" : "0x01",
                "storage" : {
                }
            }
        },
        "pre" : {
            "0x095e7baea6a6c7c4c2dfeb977efac326af552d87" : {
                "balance" : "0x00",
                "code" : "0x437f000000000000000000000000000000000000000000000000000000000000c3507ffffffffffffffffffffffffffffffffffffffffffffffffffffffffffffffffe7fffffffffffffffffffffffffffffffffffffffffffffffffffffffffffffffff7f0000000000000000000000000000000000000000000000000000000000000000197ffffffffffffffffffffffffffffffffffffffffffffffffffffffffffffffffe09656756323c597455",
                "nonce" : "0x00",
                "storage" : {
                }
            },
            "0x945304eb96065b2a98b57a48a06ae28d285a71b5" : {
                "balance" : "0x2e",
                "code" : "0x6000355415600957005b60203560003555",
                "nonce" : "0x00",
                "storage" : {
                }
            },
            "0xa94f5374fce5edbc8e2a8697c15331677e6ebf0b" : {
                "balance" : "0x0de0b6b3a7640000",
                "code" : "",
                "nonce" : "0x00",
                "storage" : {
                }
            }
        }
    },
    "randomStatetest275_d0g0v0_EIP158" : {
        "_info" : {
            "comment" : "",
            "filledwith" : "cpp-1.3.0+commit.4e101574.Linux.g++",
            "lllcversion" : "Version: 0.4.18-develop.2017.10.11+commit.81f9f86c.Linux.g++",
            "source" : "src/BlockchainTestsFiller/GeneralStateTests/stRandom/randomStatetest275_d0g0v0Filler.json",
            "sourceHash" : "1da9c17b5d33400172a2f2c42b1829ffb40d4d1903c807d41afa01c6e87ae85d"
        },
        "blocks" : [
            {
                "blockHeader" : {
                    "bloom" : "0x00000000000000000000000000000000000000000000000000000000000000000000000000000000000000000000000000000000000000000000000000000000000000000000000000000000000000000000000000000000000000000000000000000000000000000000000000000000000000000000000000000000000000000000000000000000000000000000000000000000000000000000000000000000000000000000000000000000000000000000000000000000000000000000000000000000000000000000000000000000000000000000000000000000000000000000000000000000000000000000000000000000000000000000000000000000",
                    "coinbase" : "0x945304eb96065b2a98b57a48a06ae28d285a71b5",
                    "difficulty" : "0x020000",
                    "extraData" : "",
                    "gasLimit" : "0x7fffffffffffffff",
                    "gasUsed" : "0x84ab",
                    "hash" : "0xd5334e27c37300a395916ed38bec97b027a6d94047ef0b9f58da901267fd8191",
                    "mixHash" : "0x8b5bfa0523492d7407082ff789417f636d509b87886e69f6d90dd53569177bdc",
                    "nonce" : "0xcc80d82155c51b17",
                    "number" : "0x01",
                    "parentHash" : "0xb3e218846e7fed2106fbd3682c56b45d2cd9318062aff0eedf5764765bf465b2",
                    "receiptTrie" : "0x88082cea6b54f226a3332e0bac5a45e3630ad5b1ae9fd70bc149a2c3f8cf62d1",
                    "stateRoot" : "0x26e473980170c6495160726ea3ca9d6dddfbf60b910fa6be4f77d2413f3e3a6c",
                    "timestamp" : "0x03e8",
                    "transactionsTrie" : "0xadd7059e5ddf4487dc0d327e25c7c853687e2e3baf56d1fc7e24308ba800851b",
                    "uncleHash" : "0x1dcc4de8dec75d7aab85b567b6ccd41ad312451b948a7413f0a142fd40d49347"
                },
                "rlp" : "0xf9031af901fca0b3e218846e7fed2106fbd3682c56b45d2cd9318062aff0eedf5764765bf465b2a01dcc4de8dec75d7aab85b567b6ccd41ad312451b948a7413f0a142fd40d4934794945304eb96065b2a98b57a48a06ae28d285a71b5a026e473980170c6495160726ea3ca9d6dddfbf60b910fa6be4f77d2413f3e3a6ca0add7059e5ddf4487dc0d327e25c7c853687e2e3baf56d1fc7e24308ba800851ba088082cea6b54f226a3332e0bac5a45e3630ad5b1ae9fd70bc149a2c3f8cf62d1b90100000000000000000000000000000000000000000000000000000000000000000000000000000000000000000000000000000000000000000000000000000000000000000000000000000000000000000000000000000000000000000000000000000000000000000000000000000000000000000000000000000000000000000000000000000000000000000000000000000000000000000000000000000000000000000000000000000000000000000000000000000000000000000000000000000000000000000000000000000000000000000000000000000000000000000000000000000000000000000000000000000000000000000000000000000000008302000001887fffffffffffffff8284ab8203e880a08b5bfa0523492d7407082ff789417f636d509b87886e69f6d90dd53569177bdc88cc80d82155c51b17f90117f90114800184115932d194095e7baea6a6c7c4c2dfeb977efac326af552d87833f6fcfb8af437f000000000000000000000000000000000000000000000000000000000000c3507ffffffffffffffffffffffffffffffffffffffffffffffffffffffffffffffffe7fffffffffffffffffffffffffffffffffffffffffffffffffffffffffffffffff7f0000000000000000000000000000000000000000000000000000000000000000197ffffffffffffffffffffffffffffffffffffffffffffffffffffffffffffffffe09656756323c59741ba0b4ade28bd2d7ffbd365faa0ec44b79c98298982d74ed572fc53dc427978393e6a0193f5c281d1c44e266629a1b5c1ca70fbc759b7bf662aa9c3d5a6130c070247dc0",
                "transactions" : [
                    {
                        "data" : "0x437f000000000000000000000000000000000000000000000000000000000000c3507ffffffffffffffffffffffffffffffffffffffffffffffffffffffffffffffffe7fffffffffffffffffffffffffffffffffffffffffffffffffffffffffffffffff7f0000000000000000000000000000000000000000000000000000000000000000197ffffffffffffffffffffffffffffffffffffffffffffffffffffffffffffffffe09656756323c5974",
                        "gasLimit" : "0x115932d1",
                        "gasPrice" : "0x01",
                        "nonce" : "0x00",
                        "r" : "0xb4ade28bd2d7ffbd365faa0ec44b79c98298982d74ed572fc53dc427978393e6",
                        "s" : "0x193f5c281d1c44e266629a1b5c1ca70fbc759b7bf662aa9c3d5a6130c070247d",
                        "to" : "0x095e7baea6a6c7c4c2dfeb977efac326af552d87",
                        "v" : "0x1b",
                        "value" : "0x3f6fcf"
                    }
                ],
                "uncleHeaders" : [
                ]
            }
        ],
        "genesisBlockHeader" : {
            "bloom" : "0x00000000000000000000000000000000000000000000000000000000000000000000000000000000000000000000000000000000000000000000000000000000000000000000000000000000000000000000000000000000000000000000000000000000000000000000000000000000000000000000000000000000000000000000000000000000000000000000000000000000000000000000000000000000000000000000000000000000000000000000000000000000000000000000000000000000000000000000000000000000000000000000000000000000000000000000000000000000000000000000000000000000000000000000000000000000",
            "coinbase" : "0x945304eb96065b2a98b57a48a06ae28d285a71b5",
            "difficulty" : "0x020000",
            "extraData" : "0x42",
            "gasLimit" : "0x7fffffffffffffff",
            "gasUsed" : "0x00",
            "hash" : "0xb3e218846e7fed2106fbd3682c56b45d2cd9318062aff0eedf5764765bf465b2",
            "mixHash" : "0x56e81f171bcc55a6ff8345e692c0f86e5b48e01b996cadc001622fb5e363b421",
            "nonce" : "0x0102030405060708",
            "number" : "0x00",
            "parentHash" : "0x0000000000000000000000000000000000000000000000000000000000000000",
            "receiptTrie" : "0x56e81f171bcc55a6ff8345e692c0f86e5b48e01b996cadc001622fb5e363b421",
            "stateRoot" : "0x420ee001cbb2dfd3adf3de661b6f6c2dc7060626b72f9d41a43955b37f52bb71",
            "timestamp" : "0x03b6",
            "transactionsTrie" : "0x56e81f171bcc55a6ff8345e692c0f86e5b48e01b996cadc001622fb5e363b421",
            "uncleHash" : "0x1dcc4de8dec75d7aab85b567b6ccd41ad312451b948a7413f0a142fd40d49347"
        },
        "genesisRLP" : "0xf901fff901faa00000000000000000000000000000000000000000000000000000000000000000a01dcc4de8dec75d7aab85b567b6ccd41ad312451b948a7413f0a142fd40d4934794945304eb96065b2a98b57a48a06ae28d285a71b5a0420ee001cbb2dfd3adf3de661b6f6c2dc7060626b72f9d41a43955b37f52bb71a056e81f171bcc55a6ff8345e692c0f86e5b48e01b996cadc001622fb5e363b421a056e81f171bcc55a6ff8345e692c0f86e5b48e01b996cadc001622fb5e363b421b90100000000000000000000000000000000000000000000000000000000000000000000000000000000000000000000000000000000000000000000000000000000000000000000000000000000000000000000000000000000000000000000000000000000000000000000000000000000000000000000000000000000000000000000000000000000000000000000000000000000000000000000000000000000000000000000000000000000000000000000000000000000000000000000000000000000000000000000000000000000000000000000000000000000000000000000000000000000000000000000000000000000000000000000000000000000008302000080887fffffffffffffff808203b642a056e81f171bcc55a6ff8345e692c0f86e5b48e01b996cadc001622fb5e363b421880102030405060708c0c0",
        "lastblockhash" : "0xd5334e27c37300a395916ed38bec97b027a6d94047ef0b9f58da901267fd8191",
        "network" : "EIP158",
        "postState" : {
            "0x095e7baea6a6c7c4c2dfeb977efac326af552d87" : {
                "balance" : "0x3f6fcf",
                "code" : "0x437f000000000000000000000000000000000000000000000000000000000000c3507ffffffffffffffffffffffffffffffffffffffffffffffffffffffffffffffffe7fffffffffffffffffffffffffffffffffffffffffffffffffffffffffffffffff7f0000000000000000000000000000000000000000000000000000000000000000197ffffffffffffffffffffffffffffffffffffffffffffffffffffffffffffffffe09656756323c597455",
                "nonce" : "0x00",
                "storage" : {
                }
            },
            "0x945304eb96065b2a98b57a48a06ae28d285a71b5" : {
                "balance" : "0x4563918244f484d9",
                "code" : "0x6000355415600957005b60203560003555",
                "nonce" : "0x00",
                "storage" : {
                }
            },
            "0xa94f5374fce5edbc8e2a8697c15331677e6ebf0b" : {
                "balance" : "0x0de0b6b3a7240b86",
                "code" : "",
                "nonce" : "0x01",
                "storage" : {
                }
            }
        },
        "pre" : {
            "0x095e7baea6a6c7c4c2dfeb977efac326af552d87" : {
                "balance" : "0x00",
                "code" : "0x437f000000000000000000000000000000000000000000000000000000000000c3507ffffffffffffffffffffffffffffffffffffffffffffffffffffffffffffffffe7fffffffffffffffffffffffffffffffffffffffffffffffffffffffffffffffff7f0000000000000000000000000000000000000000000000000000000000000000197ffffffffffffffffffffffffffffffffffffffffffffffffffffffffffffffffe09656756323c597455",
                "nonce" : "0x00",
                "storage" : {
                }
            },
            "0x945304eb96065b2a98b57a48a06ae28d285a71b5" : {
                "balance" : "0x2e",
                "code" : "0x6000355415600957005b60203560003555",
                "nonce" : "0x00",
                "storage" : {
                }
            },
            "0xa94f5374fce5edbc8e2a8697c15331677e6ebf0b" : {
                "balance" : "0x0de0b6b3a7640000",
                "code" : "",
                "nonce" : "0x00",
                "storage" : {
                }
            }
        }
    },
    "randomStatetest275_d0g0v0_Frontier" : {
        "_info" : {
            "comment" : "",
            "filledwith" : "cpp-1.3.0+commit.4e101574.Linux.g++",
            "lllcversion" : "Version: 0.4.18-develop.2017.10.11+commit.81f9f86c.Linux.g++",
            "source" : "src/BlockchainTestsFiller/GeneralStateTests/stRandom/randomStatetest275_d0g0v0Filler.json",
            "sourceHash" : "1da9c17b5d33400172a2f2c42b1829ffb40d4d1903c807d41afa01c6e87ae85d"
        },
        "blocks" : [
            {
                "blockHeader" : {
                    "bloom" : "0x00000000000000000000000000000000000000000000000000000000000000000000000000000000000000000000000000000000000000000000000000000000000000000000000000000000000000000000000000000000000000000000000000000000000000000000000000000000000000000000000000000000000000000000000000000000000000000000000000000000000000000000000000000000000000000000000000000000000000000000000000000000000000000000000000000000000000000000000000000000000000000000000000000000000000000000000000000000000000000000000000000000000000000000000000000000",
                    "coinbase" : "0x945304eb96065b2a98b57a48a06ae28d285a71b5",
                    "difficulty" : "0x020000",
                    "extraData" : "",
                    "gasLimit" : "0x7fffffffffffffff",
                    "gasUsed" : "0x84ab",
                    "hash" : "0xe3a24136041d15e17eaf34653313e92e4f57f95ba03436ce1553fe6e03ede2ec",
                    "mixHash" : "0xca1603f38bc94e9bbbc9beabdfa14de1d37260a74ac9a10c8ebbfbbacc30fed6",
                    "nonce" : "0xb8500d063dafd14c",
                    "number" : "0x01",
                    "parentHash" : "0xb3e218846e7fed2106fbd3682c56b45d2cd9318062aff0eedf5764765bf465b2",
                    "receiptTrie" : "0x88082cea6b54f226a3332e0bac5a45e3630ad5b1ae9fd70bc149a2c3f8cf62d1",
                    "stateRoot" : "0x26e473980170c6495160726ea3ca9d6dddfbf60b910fa6be4f77d2413f3e3a6c",
                    "timestamp" : "0x03e8",
                    "transactionsTrie" : "0xadd7059e5ddf4487dc0d327e25c7c853687e2e3baf56d1fc7e24308ba800851b",
                    "uncleHash" : "0x1dcc4de8dec75d7aab85b567b6ccd41ad312451b948a7413f0a142fd40d49347"
                },
                "rlp" : "0xf9031af901fca0b3e218846e7fed2106fbd3682c56b45d2cd9318062aff0eedf5764765bf465b2a01dcc4de8dec75d7aab85b567b6ccd41ad312451b948a7413f0a142fd40d4934794945304eb96065b2a98b57a48a06ae28d285a71b5a026e473980170c6495160726ea3ca9d6dddfbf60b910fa6be4f77d2413f3e3a6ca0add7059e5ddf4487dc0d327e25c7c853687e2e3baf56d1fc7e24308ba800851ba088082cea6b54f226a3332e0bac5a45e3630ad5b1ae9fd70bc149a2c3f8cf62d1b90100000000000000000000000000000000000000000000000000000000000000000000000000000000000000000000000000000000000000000000000000000000000000000000000000000000000000000000000000000000000000000000000000000000000000000000000000000000000000000000000000000000000000000000000000000000000000000000000000000000000000000000000000000000000000000000000000000000000000000000000000000000000000000000000000000000000000000000000000000000000000000000000000000000000000000000000000000000000000000000000000000000000000000000000000000000008302000001887fffffffffffffff8284ab8203e880a0ca1603f38bc94e9bbbc9beabdfa14de1d37260a74ac9a10c8ebbfbbacc30fed688b8500d063dafd14cf90117f90114800184115932d194095e7baea6a6c7c4c2dfeb977efac326af552d87833f6fcfb8af437f000000000000000000000000000000000000000000000000000000000000c3507ffffffffffffffffffffffffffffffffffffffffffffffffffffffffffffffffe7fffffffffffffffffffffffffffffffffffffffffffffffffffffffffffffffff7f0000000000000000000000000000000000000000000000000000000000000000197ffffffffffffffffffffffffffffffffffffffffffffffffffffffffffffffffe09656756323c59741ba0b4ade28bd2d7ffbd365faa0ec44b79c98298982d74ed572fc53dc427978393e6a0193f5c281d1c44e266629a1b5c1ca70fbc759b7bf662aa9c3d5a6130c070247dc0",
                "transactions" : [
                    {
                        "data" : "0x437f000000000000000000000000000000000000000000000000000000000000c3507ffffffffffffffffffffffffffffffffffffffffffffffffffffffffffffffffe7fffffffffffffffffffffffffffffffffffffffffffffffffffffffffffffffff7f0000000000000000000000000000000000000000000000000000000000000000197ffffffffffffffffffffffffffffffffffffffffffffffffffffffffffffffffe09656756323c5974",
                        "gasLimit" : "0x115932d1",
                        "gasPrice" : "0x01",
                        "nonce" : "0x00",
                        "r" : "0xb4ade28bd2d7ffbd365faa0ec44b79c98298982d74ed572fc53dc427978393e6",
                        "s" : "0x193f5c281d1c44e266629a1b5c1ca70fbc759b7bf662aa9c3d5a6130c070247d",
                        "to" : "0x095e7baea6a6c7c4c2dfeb977efac326af552d87",
                        "v" : "0x1b",
                        "value" : "0x3f6fcf"
                    }
                ],
                "uncleHeaders" : [
                ]
            }
        ],
        "genesisBlockHeader" : {
            "bloom" : "0x00000000000000000000000000000000000000000000000000000000000000000000000000000000000000000000000000000000000000000000000000000000000000000000000000000000000000000000000000000000000000000000000000000000000000000000000000000000000000000000000000000000000000000000000000000000000000000000000000000000000000000000000000000000000000000000000000000000000000000000000000000000000000000000000000000000000000000000000000000000000000000000000000000000000000000000000000000000000000000000000000000000000000000000000000000000",
            "coinbase" : "0x945304eb96065b2a98b57a48a06ae28d285a71b5",
            "difficulty" : "0x020000",
            "extraData" : "0x42",
            "gasLimit" : "0x7fffffffffffffff",
            "gasUsed" : "0x00",
            "hash" : "0xb3e218846e7fed2106fbd3682c56b45d2cd9318062aff0eedf5764765bf465b2",
            "mixHash" : "0x56e81f171bcc55a6ff8345e692c0f86e5b48e01b996cadc001622fb5e363b421",
            "nonce" : "0x0102030405060708",
            "number" : "0x00",
            "parentHash" : "0x0000000000000000000000000000000000000000000000000000000000000000",
            "receiptTrie" : "0x56e81f171bcc55a6ff8345e692c0f86e5b48e01b996cadc001622fb5e363b421",
            "stateRoot" : "0x420ee001cbb2dfd3adf3de661b6f6c2dc7060626b72f9d41a43955b37f52bb71",
            "timestamp" : "0x03b6",
            "transactionsTrie" : "0x56e81f171bcc55a6ff8345e692c0f86e5b48e01b996cadc001622fb5e363b421",
            "uncleHash" : "0x1dcc4de8dec75d7aab85b567b6ccd41ad312451b948a7413f0a142fd40d49347"
        },
        "genesisRLP" : "0xf901fff901faa00000000000000000000000000000000000000000000000000000000000000000a01dcc4de8dec75d7aab85b567b6ccd41ad312451b948a7413f0a142fd40d4934794945304eb96065b2a98b57a48a06ae28d285a71b5a0420ee001cbb2dfd3adf3de661b6f6c2dc7060626b72f9d41a43955b37f52bb71a056e81f171bcc55a6ff8345e692c0f86e5b48e01b996cadc001622fb5e363b421a056e81f171bcc55a6ff8345e692c0f86e5b48e01b996cadc001622fb5e363b421b90100000000000000000000000000000000000000000000000000000000000000000000000000000000000000000000000000000000000000000000000000000000000000000000000000000000000000000000000000000000000000000000000000000000000000000000000000000000000000000000000000000000000000000000000000000000000000000000000000000000000000000000000000000000000000000000000000000000000000000000000000000000000000000000000000000000000000000000000000000000000000000000000000000000000000000000000000000000000000000000000000000000000000000000000000000000008302000080887fffffffffffffff808203b642a056e81f171bcc55a6ff8345e692c0f86e5b48e01b996cadc001622fb5e363b421880102030405060708c0c0",
        "lastblockhash" : "0xe3a24136041d15e17eaf34653313e92e4f57f95ba03436ce1553fe6e03ede2ec",
        "network" : "Frontier",
        "postState" : {
            "0x095e7baea6a6c7c4c2dfeb977efac326af552d87" : {
                "balance" : "0x3f6fcf",
                "code" : "0x437f000000000000000000000000000000000000000000000000000000000000c3507ffffffffffffffffffffffffffffffffffffffffffffffffffffffffffffffffe7fffffffffffffffffffffffffffffffffffffffffffffffffffffffffffffffff7f0000000000000000000000000000000000000000000000000000000000000000197ffffffffffffffffffffffffffffffffffffffffffffffffffffffffffffffffe09656756323c597455",
                "nonce" : "0x00",
                "storage" : {
                }
            },
            "0x945304eb96065b2a98b57a48a06ae28d285a71b5" : {
                "balance" : "0x4563918244f484d9",
                "code" : "0x6000355415600957005b60203560003555",
                "nonce" : "0x00",
                "storage" : {
                }
            },
            "0xa94f5374fce5edbc8e2a8697c15331677e6ebf0b" : {
                "balance" : "0x0de0b6b3a7240b86",
                "code" : "",
                "nonce" : "0x01",
                "storage" : {
                }
            }
        },
        "pre" : {
            "0x095e7baea6a6c7c4c2dfeb977efac326af552d87" : {
                "balance" : "0x00",
                "code" : "0x437f000000000000000000000000000000000000000000000000000000000000c3507ffffffffffffffffffffffffffffffffffffffffffffffffffffffffffffffffe7fffffffffffffffffffffffffffffffffffffffffffffffffffffffffffffffff7f0000000000000000000000000000000000000000000000000000000000000000197ffffffffffffffffffffffffffffffffffffffffffffffffffffffffffffffffe09656756323c597455",
                "nonce" : "0x00",
                "storage" : {
                }
            },
            "0x945304eb96065b2a98b57a48a06ae28d285a71b5" : {
                "balance" : "0x2e",
                "code" : "0x6000355415600957005b60203560003555",
                "nonce" : "0x00",
                "storage" : {
                }
            },
            "0xa94f5374fce5edbc8e2a8697c15331677e6ebf0b" : {
                "balance" : "0x0de0b6b3a7640000",
                "code" : "",
                "nonce" : "0x00",
                "storage" : {
                }
            }
        }
    },
    "randomStatetest275_d0g0v0_Homestead" : {
        "_info" : {
            "comment" : "",
            "filledwith" : "cpp-1.3.0+commit.4e101574.Linux.g++",
            "lllcversion" : "Version: 0.4.18-develop.2017.10.11+commit.81f9f86c.Linux.g++",
            "source" : "src/BlockchainTestsFiller/GeneralStateTests/stRandom/randomStatetest275_d0g0v0Filler.json",
            "sourceHash" : "1da9c17b5d33400172a2f2c42b1829ffb40d4d1903c807d41afa01c6e87ae85d"
        },
        "blocks" : [
            {
                "blockHeader" : {
                    "bloom" : "0x00000000000000000000000000000000000000000000000000000000000000000000000000000000000000000000000000000000000000000000000000000000000000000000000000000000000000000000000000000000000000000000000000000000000000000000000000000000000000000000000000000000000000000000000000000000000000000000000000000000000000000000000000000000000000000000000000000000000000000000000000000000000000000000000000000000000000000000000000000000000000000000000000000000000000000000000000000000000000000000000000000000000000000000000000000000",
                    "coinbase" : "0x945304eb96065b2a98b57a48a06ae28d285a71b5",
                    "difficulty" : "0x020000",
                    "extraData" : "",
                    "gasLimit" : "0x7fffffffffffffff",
                    "gasUsed" : "0x84ab",
                    "hash" : "0xc64dcaced7ff03b36c926eb1c8c152d6ff8620a32b22dd0d137e1488d7d704da",
                    "mixHash" : "0x684df38bab20ee33899770cdb269e4e228f017124f8cd2a9573d5905d0e3ca8e",
                    "nonce" : "0x8c71ffe304166452",
                    "number" : "0x01",
                    "parentHash" : "0xb3e218846e7fed2106fbd3682c56b45d2cd9318062aff0eedf5764765bf465b2",
                    "receiptTrie" : "0x88082cea6b54f226a3332e0bac5a45e3630ad5b1ae9fd70bc149a2c3f8cf62d1",
                    "stateRoot" : "0x26e473980170c6495160726ea3ca9d6dddfbf60b910fa6be4f77d2413f3e3a6c",
                    "timestamp" : "0x03e8",
                    "transactionsTrie" : "0xadd7059e5ddf4487dc0d327e25c7c853687e2e3baf56d1fc7e24308ba800851b",
                    "uncleHash" : "0x1dcc4de8dec75d7aab85b567b6ccd41ad312451b948a7413f0a142fd40d49347"
                },
                "rlp" : "0xf9031af901fca0b3e218846e7fed2106fbd3682c56b45d2cd9318062aff0eedf5764765bf465b2a01dcc4de8dec75d7aab85b567b6ccd41ad312451b948a7413f0a142fd40d4934794945304eb96065b2a98b57a48a06ae28d285a71b5a026e473980170c6495160726ea3ca9d6dddfbf60b910fa6be4f77d2413f3e3a6ca0add7059e5ddf4487dc0d327e25c7c853687e2e3baf56d1fc7e24308ba800851ba088082cea6b54f226a3332e0bac5a45e3630ad5b1ae9fd70bc149a2c3f8cf62d1b90100000000000000000000000000000000000000000000000000000000000000000000000000000000000000000000000000000000000000000000000000000000000000000000000000000000000000000000000000000000000000000000000000000000000000000000000000000000000000000000000000000000000000000000000000000000000000000000000000000000000000000000000000000000000000000000000000000000000000000000000000000000000000000000000000000000000000000000000000000000000000000000000000000000000000000000000000000000000000000000000000000000000000000000000000000000008302000001887fffffffffffffff8284ab8203e880a0684df38bab20ee33899770cdb269e4e228f017124f8cd2a9573d5905d0e3ca8e888c71ffe304166452f90117f90114800184115932d194095e7baea6a6c7c4c2dfeb977efac326af552d87833f6fcfb8af437f000000000000000000000000000000000000000000000000000000000000c3507ffffffffffffffffffffffffffffffffffffffffffffffffffffffffffffffffe7fffffffffffffffffffffffffffffffffffffffffffffffffffffffffffffffff7f0000000000000000000000000000000000000000000000000000000000000000197ffffffffffffffffffffffffffffffffffffffffffffffffffffffffffffffffe09656756323c59741ba0b4ade28bd2d7ffbd365faa0ec44b79c98298982d74ed572fc53dc427978393e6a0193f5c281d1c44e266629a1b5c1ca70fbc759b7bf662aa9c3d5a6130c070247dc0",
                "transactions" : [
                    {
                        "data" : "0x437f000000000000000000000000000000000000000000000000000000000000c3507ffffffffffffffffffffffffffffffffffffffffffffffffffffffffffffffffe7fffffffffffffffffffffffffffffffffffffffffffffffffffffffffffffffff7f0000000000000000000000000000000000000000000000000000000000000000197ffffffffffffffffffffffffffffffffffffffffffffffffffffffffffffffffe09656756323c5974",
                        "gasLimit" : "0x115932d1",
                        "gasPrice" : "0x01",
                        "nonce" : "0x00",
                        "r" : "0xb4ade28bd2d7ffbd365faa0ec44b79c98298982d74ed572fc53dc427978393e6",
                        "s" : "0x193f5c281d1c44e266629a1b5c1ca70fbc759b7bf662aa9c3d5a6130c070247d",
                        "to" : "0x095e7baea6a6c7c4c2dfeb977efac326af552d87",
                        "v" : "0x1b",
                        "value" : "0x3f6fcf"
                    }
                ],
                "uncleHeaders" : [
                ]
            }
        ],
        "genesisBlockHeader" : {
            "bloom" : "0x00000000000000000000000000000000000000000000000000000000000000000000000000000000000000000000000000000000000000000000000000000000000000000000000000000000000000000000000000000000000000000000000000000000000000000000000000000000000000000000000000000000000000000000000000000000000000000000000000000000000000000000000000000000000000000000000000000000000000000000000000000000000000000000000000000000000000000000000000000000000000000000000000000000000000000000000000000000000000000000000000000000000000000000000000000000",
            "coinbase" : "0x945304eb96065b2a98b57a48a06ae28d285a71b5",
            "difficulty" : "0x020000",
            "extraData" : "0x42",
            "gasLimit" : "0x7fffffffffffffff",
            "gasUsed" : "0x00",
            "hash" : "0xb3e218846e7fed2106fbd3682c56b45d2cd9318062aff0eedf5764765bf465b2",
            "mixHash" : "0x56e81f171bcc55a6ff8345e692c0f86e5b48e01b996cadc001622fb5e363b421",
            "nonce" : "0x0102030405060708",
            "number" : "0x00",
            "parentHash" : "0x0000000000000000000000000000000000000000000000000000000000000000",
            "receiptTrie" : "0x56e81f171bcc55a6ff8345e692c0f86e5b48e01b996cadc001622fb5e363b421",
            "stateRoot" : "0x420ee001cbb2dfd3adf3de661b6f6c2dc7060626b72f9d41a43955b37f52bb71",
            "timestamp" : "0x03b6",
            "transactionsTrie" : "0x56e81f171bcc55a6ff8345e692c0f86e5b48e01b996cadc001622fb5e363b421",
            "uncleHash" : "0x1dcc4de8dec75d7aab85b567b6ccd41ad312451b948a7413f0a142fd40d49347"
        },
        "genesisRLP" : "0xf901fff901faa00000000000000000000000000000000000000000000000000000000000000000a01dcc4de8dec75d7aab85b567b6ccd41ad312451b948a7413f0a142fd40d4934794945304eb96065b2a98b57a48a06ae28d285a71b5a0420ee001cbb2dfd3adf3de661b6f6c2dc7060626b72f9d41a43955b37f52bb71a056e81f171bcc55a6ff8345e692c0f86e5b48e01b996cadc001622fb5e363b421a056e81f171bcc55a6ff8345e692c0f86e5b48e01b996cadc001622fb5e363b421b90100000000000000000000000000000000000000000000000000000000000000000000000000000000000000000000000000000000000000000000000000000000000000000000000000000000000000000000000000000000000000000000000000000000000000000000000000000000000000000000000000000000000000000000000000000000000000000000000000000000000000000000000000000000000000000000000000000000000000000000000000000000000000000000000000000000000000000000000000000000000000000000000000000000000000000000000000000000000000000000000000000000000000000000000000000000008302000080887fffffffffffffff808203b642a056e81f171bcc55a6ff8345e692c0f86e5b48e01b996cadc001622fb5e363b421880102030405060708c0c0",
        "lastblockhash" : "0xc64dcaced7ff03b36c926eb1c8c152d6ff8620a32b22dd0d137e1488d7d704da",
        "network" : "Homestead",
        "postState" : {
            "0x095e7baea6a6c7c4c2dfeb977efac326af552d87" : {
                "balance" : "0x3f6fcf",
                "code" : "0x437f000000000000000000000000000000000000000000000000000000000000c3507ffffffffffffffffffffffffffffffffffffffffffffffffffffffffffffffffe7fffffffffffffffffffffffffffffffffffffffffffffffffffffffffffffffff7f0000000000000000000000000000000000000000000000000000000000000000197ffffffffffffffffffffffffffffffffffffffffffffffffffffffffffffffffe09656756323c597455",
                "nonce" : "0x00",
                "storage" : {
                }
            },
            "0x945304eb96065b2a98b57a48a06ae28d285a71b5" : {
                "balance" : "0x4563918244f484d9",
                "code" : "0x6000355415600957005b60203560003555",
                "nonce" : "0x00",
                "storage" : {
                }
            },
            "0xa94f5374fce5edbc8e2a8697c15331677e6ebf0b" : {
                "balance" : "0x0de0b6b3a7240b86",
                "code" : "",
                "nonce" : "0x01",
                "storage" : {
                }
            }
        },
        "pre" : {
            "0x095e7baea6a6c7c4c2dfeb977efac326af552d87" : {
                "balance" : "0x00",
                "code" : "0x437f000000000000000000000000000000000000000000000000000000000000c3507ffffffffffffffffffffffffffffffffffffffffffffffffffffffffffffffffe7fffffffffffffffffffffffffffffffffffffffffffffffffffffffffffffffff7f0000000000000000000000000000000000000000000000000000000000000000197ffffffffffffffffffffffffffffffffffffffffffffffffffffffffffffffffe09656756323c597455",
                "nonce" : "0x00",
                "storage" : {
                }
            },
            "0x945304eb96065b2a98b57a48a06ae28d285a71b5" : {
                "balance" : "0x2e",
                "code" : "0x6000355415600957005b60203560003555",
                "nonce" : "0x00",
                "storage" : {
                }
            },
            "0xa94f5374fce5edbc8e2a8697c15331677e6ebf0b" : {
                "balance" : "0x0de0b6b3a7640000",
                "code" : "",
                "nonce" : "0x00",
                "storage" : {
                }
            }
        }
    }
}