{
    "randomStatetest184_d0g0v0_Byzantium" : {
        "_info" : {
            "comment" : "",
            "filledwith" : "cpp-1.3.0+commit.4e101574.Linux.g++",
            "lllcversion" : "Version: 0.4.18-develop.2017.10.11+commit.81f9f86c.Linux.g++",
            "source" : "src/BlockchainTestsFiller/GeneralStateTests/stRandom/randomStatetest184_d0g0v0Filler.json",
            "sourceHash" : "f00f17f33e3e3d30c91718da016a24fdad447f49b3126e43b8e950663e6b2b28"
        },
        "blocks" : [
            {
                "blockHeader" : {
                    "bloom" : "0x00000000000000000000000000000000000000000000000000000000000000000000000000000000000000000000000000000000000000000000000000000000000000000000000000000000000000000000000000000000000000000000000000000000000000000000000000000000000000000000000000000000000000000000000000000000000000000000000000000000000000000000000000000000000000000000000000000000000000000000000000000000000000000000000000000000000000000000000000000000000000000000000000000000000000000000000000000000000000000000000000000000000000000000000000000000",
                    "coinbase" : "0x6d6e40885310545835a5b582dbc23ef026404bda",
                    "difficulty" : "0x020000",
                    "extraData" : "",
                    "gasLimit" : "0x2b7fe66d",
                    "gasUsed" : "0x00",
                    "hash" : "0x81cf51ac08ed0e697b788a9f8c0672edd9374edf7db555abf68b32f65de5c656",
                    "mixHash" : "0x50cfedeea5a7dffada35e95e4103f8e1c64b32d77c9586377d7c1245ccc087aa",
                    "nonce" : "0x547ddc07d03aff16",
                    "number" : "0x01",
                    "parentHash" : "0x01643102594d8163e7dfd5199cca782979129e756bc292bb449096d9d9534ea6",
                    "receiptTrie" : "0x56e81f171bcc55a6ff8345e692c0f86e5b48e01b996cadc001622fb5e363b421",
                    "stateRoot" : "0xb07b7586b62ce043f0f78d7d783a021aa4f01ab93ab51ee6794e378e662b1f33",
                    "timestamp" : "0x2710",
                    "transactionsTrie" : "0x56e81f171bcc55a6ff8345e692c0f86e5b48e01b996cadc001622fb5e363b421",
                    "uncleHash" : "0x1dcc4de8dec75d7aab85b567b6ccd41ad312451b948a7413f0a142fd40d49347"
                },
                "rlp" : "0xf901fbf901f6a001643102594d8163e7dfd5199cca782979129e756bc292bb449096d9d9534ea6a01dcc4de8dec75d7aab85b567b6ccd41ad312451b948a7413f0a142fd40d49347946d6e40885310545835a5b582dbc23ef026404bdaa0b07b7586b62ce043f0f78d7d783a021aa4f01ab93ab51ee6794e378e662b1f33a056e81f171bcc55a6ff8345e692c0f86e5b48e01b996cadc001622fb5e363b421a056e81f171bcc55a6ff8345e692c0f86e5b48e01b996cadc001622fb5e363b421b90100000000000000000000000000000000000000000000000000000000000000000000000000000000000000000000000000000000000000000000000000000000000000000000000000000000000000000000000000000000000000000000000000000000000000000000000000000000000000000000000000000000000000000000000000000000000000000000000000000000000000000000000000000000000000000000000000000000000000000000000000000000000000000000000000000000000000000000000000000000000000000000000000000000000000000000000000000000000000000000000000000000000000000000000000000000008302000001842b7fe66d8082271080a050cfedeea5a7dffada35e95e4103f8e1c64b32d77c9586377d7c1245ccc087aa88547ddc07d03aff16c0c0",
                "transactions" : [
                ],
                "uncleHeaders" : [
                ]
            }
        ],
        "genesisBlockHeader" : {
            "bloom" : "0x00000000000000000000000000000000000000000000000000000000000000000000000000000000000000000000000000000000000000000000000000000000000000000000000000000000000000000000000000000000000000000000000000000000000000000000000000000000000000000000000000000000000000000000000000000000000000000000000000000000000000000000000000000000000000000000000000000000000000000000000000000000000000000000000000000000000000000000000000000000000000000000000000000000000000000000000000000000000000000000000000000000000000000000000000000000",
            "coinbase" : "0x6d6e40885310545835a5b582dbc23ef026404bda",
            "difficulty" : "0x020000",
            "extraData" : "0x42",
            "gasLimit" : "0x2b7fe66d",
            "gasUsed" : "0x00",
            "hash" : "0x01643102594d8163e7dfd5199cca782979129e756bc292bb449096d9d9534ea6",
            "mixHash" : "0x56e81f171bcc55a6ff8345e692c0f86e5b48e01b996cadc001622fb5e363b421",
            "nonce" : "0x0102030405060708",
            "number" : "0x00",
            "parentHash" : "0x0000000000000000000000000000000000000000000000000000000000000000",
            "receiptTrie" : "0x56e81f171bcc55a6ff8345e692c0f86e5b48e01b996cadc001622fb5e363b421",
            "stateRoot" : "0xf95be1e4c7788641348454fd9ff7b21956f61a979e8d7f8e55cec444c5931e8c",
            "timestamp" : "0x26de",
            "transactionsTrie" : "0x56e81f171bcc55a6ff8345e692c0f86e5b48e01b996cadc001622fb5e363b421",
            "uncleHash" : "0x1dcc4de8dec75d7aab85b567b6ccd41ad312451b948a7413f0a142fd40d49347"
        },
        "genesisRLP" : "0xf901fbf901f6a00000000000000000000000000000000000000000000000000000000000000000a01dcc4de8dec75d7aab85b567b6ccd41ad312451b948a7413f0a142fd40d49347946d6e40885310545835a5b582dbc23ef026404bdaa0f95be1e4c7788641348454fd9ff7b21956f61a979e8d7f8e55cec444c5931e8ca056e81f171bcc55a6ff8345e692c0f86e5b48e01b996cadc001622fb5e363b421a056e81f171bcc55a6ff8345e692c0f86e5b48e01b996cadc001622fb5e363b421b90100000000000000000000000000000000000000000000000000000000000000000000000000000000000000000000000000000000000000000000000000000000000000000000000000000000000000000000000000000000000000000000000000000000000000000000000000000000000000000000000000000000000000000000000000000000000000000000000000000000000000000000000000000000000000000000000000000000000000000000000000000000000000000000000000000000000000000000000000000000000000000000000000000000000000000000000000000000000000000000000000000000000000000000000000000000008302000080842b7fe66d808226de42a056e81f171bcc55a6ff8345e692c0f86e5b48e01b996cadc001622fb5e363b421880102030405060708c0c0",
        "lastblockhash" : "0x81cf51ac08ed0e697b788a9f8c0672edd9374edf7db555abf68b32f65de5c656",
        "network" : "Byzantium",
        "postState" : {
            "0x095e7baea6a6c7c4c2dfeb977efac326af552d87" : {
                "balance" : "0x070a217c02c8f2d4",
                "code" : "0x6f823a02877cef7c1afb60663009def564608c557bad2ae05769b991313726edbfa0881d9cc955b0f5154751da315696ea7ce130184b64f2507582c502d450349ff24fb8aeb2a46146687b666bd7bd0364946cb720c76d483f5afea0049251fd9793c4b0376afbb4ebcdc42fdd42edcd4b619cec787638009cea26a1abe570e3186ab790b7dc7db36e4cda2570b0847adf6e39579c7c43a4ac976cd507d493cdfaebe09936078e31c71c4665d34a4b816b8004",
                "nonce" : "0x75",
                "storage" : {
                }
            },
            "0x6d6e40885310545835a5b582dbc23ef026404bda" : {
                "balance" : "0x29a2241af62c0000",
                "code" : "",
                "nonce" : "0x00",
                "storage" : {
                }
            },
            "0x945304eb96065b2a98b57a48a06ae28d285a71b5" : {
                "balance" : "0x9740421ff0ff3ae3",
                "code" : "",
                "nonce" : "0x1d",
                "storage" : {
                }
            },
            "0xa94f5374fce5edbc8e2a8697c15331677e6ebf0b" : {
                "balance" : "0xc1142f2b8e8eb058",
                "code" : "",
                "nonce" : "0x00",
                "storage" : {
                }
            }
        },
        "pre" : {
            "0x095e7baea6a6c7c4c2dfeb977efac326af552d87" : {
                "balance" : "0x070a217c02c8f2d4",
                "code" : "0x6f823a02877cef7c1afb60663009def564608c557bad2ae05769b991313726edbfa0881d9cc955b0f5154751da315696ea7ce130184b64f2507582c502d450349ff24fb8aeb2a46146687b666bd7bd0364946cb720c76d483f5afea0049251fd9793c4b0376afbb4ebcdc42fdd42edcd4b619cec787638009cea26a1abe570e3186ab790b7dc7db36e4cda2570b0847adf6e39579c7c43a4ac976cd507d493cdfaebe09936078e31c71c4665d34a4b816b8004",
                "nonce" : "0x75",
                "storage" : {
                }
            },
            "0x945304eb96065b2a98b57a48a06ae28d285a71b5" : {
                "balance" : "0x9740421ff0ff3ae3",
                "code" : "",
                "nonce" : "0x1d",
                "storage" : {
                }
            },
            "0xa94f5374fce5edbc8e2a8697c15331677e6ebf0b" : {
                "balance" : "0xc1142f2b8e8eb058",
                "code" : "",
                "nonce" : "0x00",
                "storage" : {
                }
            }
        }
    },
    "randomStatetest184_d0g0v0_EIP150" : {
        "_info" : {
            "comment" : "",
            "filledwith" : "cpp-1.3.0+commit.4e101574.Linux.g++",
            "lllcversion" : "Version: 0.4.18-develop.2017.10.11+commit.81f9f86c.Linux.g++",
            "source" : "src/BlockchainTestsFiller/GeneralStateTests/stRandom/randomStatetest184_d0g0v0Filler.json",
            "sourceHash" : "f00f17f33e3e3d30c91718da016a24fdad447f49b3126e43b8e950663e6b2b28"
        },
        "blocks" : [
            {
                "blockHeader" : {
                    "bloom" : "0x00000000000000000000000000000000000000000000000000000000000000000000000000000000000000000000000000000000000000000000000000000000000000000000000000000000000000000000000000000000000000000000000000000000000000000000000000000000000000000000000000000000000000000000000000000000000000000000000000000000000000000000000000000000000000000000000000000000000000000000000000000000000000000000000000000000000000000000000000000000000000000000000000000000000000000000000000000000000000000000000000000000000000000000000000000000",
                    "coinbase" : "0x6d6e40885310545835a5b582dbc23ef026404bda",
                    "difficulty" : "0x020000",
                    "extraData" : "",
                    "gasLimit" : "0x2b7fe66d",
                    "gasUsed" : "0x00",
                    "hash" : "0xe5e7b347326b26fca39a18ddf83fe817af4abdae502f4b5f54285ccd273040cd",
                    "mixHash" : "0x2179a60b3a74af7b06b89d0e068a40a4360394b3da4d89abd7808a47de748bd5",
                    "nonce" : "0x4b0783d0f222ee59",
                    "number" : "0x01",
                    "parentHash" : "0x01643102594d8163e7dfd5199cca782979129e756bc292bb449096d9d9534ea6",
                    "receiptTrie" : "0x56e81f171bcc55a6ff8345e692c0f86e5b48e01b996cadc001622fb5e363b421",
                    "stateRoot" : "0xb0179b293d59e0d3825e69cf19715223dc891c3139d94109eb4ede47629da728",
                    "timestamp" : "0x2710",
                    "transactionsTrie" : "0x56e81f171bcc55a6ff8345e692c0f86e5b48e01b996cadc001622fb5e363b421",
                    "uncleHash" : "0x1dcc4de8dec75d7aab85b567b6ccd41ad312451b948a7413f0a142fd40d49347"
                },
                "rlp" : "0xf901fbf901f6a001643102594d8163e7dfd5199cca782979129e756bc292bb449096d9d9534ea6a01dcc4de8dec75d7aab85b567b6ccd41ad312451b948a7413f0a142fd40d49347946d6e40885310545835a5b582dbc23ef026404bdaa0b0179b293d59e0d3825e69cf19715223dc891c3139d94109eb4ede47629da728a056e81f171bcc55a6ff8345e692c0f86e5b48e01b996cadc001622fb5e363b421a056e81f171bcc55a6ff8345e692c0f86e5b48e01b996cadc001622fb5e363b421b90100000000000000000000000000000000000000000000000000000000000000000000000000000000000000000000000000000000000000000000000000000000000000000000000000000000000000000000000000000000000000000000000000000000000000000000000000000000000000000000000000000000000000000000000000000000000000000000000000000000000000000000000000000000000000000000000000000000000000000000000000000000000000000000000000000000000000000000000000000000000000000000000000000000000000000000000000000000000000000000000000000000000000000000000000000000008302000001842b7fe66d8082271080a02179a60b3a74af7b06b89d0e068a40a4360394b3da4d89abd7808a47de748bd5884b0783d0f222ee59c0c0",
                "transactions" : [
                ],
                "uncleHeaders" : [
                ]
            }
        ],
        "genesisBlockHeader" : {
            "bloom" : "0x00000000000000000000000000000000000000000000000000000000000000000000000000000000000000000000000000000000000000000000000000000000000000000000000000000000000000000000000000000000000000000000000000000000000000000000000000000000000000000000000000000000000000000000000000000000000000000000000000000000000000000000000000000000000000000000000000000000000000000000000000000000000000000000000000000000000000000000000000000000000000000000000000000000000000000000000000000000000000000000000000000000000000000000000000000000",
            "coinbase" : "0x6d6e40885310545835a5b582dbc23ef026404bda",
            "difficulty" : "0x020000",
            "extraData" : "0x42",
            "gasLimit" : "0x2b7fe66d",
            "gasUsed" : "0x00",
            "hash" : "0x01643102594d8163e7dfd5199cca782979129e756bc292bb449096d9d9534ea6",
            "mixHash" : "0x56e81f171bcc55a6ff8345e692c0f86e5b48e01b996cadc001622fb5e363b421",
            "nonce" : "0x0102030405060708",
            "number" : "0x00",
            "parentHash" : "0x0000000000000000000000000000000000000000000000000000000000000000",
            "receiptTrie" : "0x56e81f171bcc55a6ff8345e692c0f86e5b48e01b996cadc001622fb5e363b421",
            "stateRoot" : "0xf95be1e4c7788641348454fd9ff7b21956f61a979e8d7f8e55cec444c5931e8c",
            "timestamp" : "0x26de",
            "transactionsTrie" : "0x56e81f171bcc55a6ff8345e692c0f86e5b48e01b996cadc001622fb5e363b421",
            "uncleHash" : "0x1dcc4de8dec75d7aab85b567b6ccd41ad312451b948a7413f0a142fd40d49347"
        },
        "genesisRLP" : "0xf901fbf901f6a00000000000000000000000000000000000000000000000000000000000000000a01dcc4de8dec75d7aab85b567b6ccd41ad312451b948a7413f0a142fd40d49347946d6e40885310545835a5b582dbc23ef026404bdaa0f95be1e4c7788641348454fd9ff7b21956f61a979e8d7f8e55cec444c5931e8ca056e81f171bcc55a6ff8345e692c0f86e5b48e01b996cadc001622fb5e363b421a056e81f171bcc55a6ff8345e692c0f86e5b48e01b996cadc001622fb5e363b421b90100000000000000000000000000000000000000000000000000000000000000000000000000000000000000000000000000000000000000000000000000000000000000000000000000000000000000000000000000000000000000000000000000000000000000000000000000000000000000000000000000000000000000000000000000000000000000000000000000000000000000000000000000000000000000000000000000000000000000000000000000000000000000000000000000000000000000000000000000000000000000000000000000000000000000000000000000000000000000000000000000000000000000000000000000000000008302000080842b7fe66d808226de42a056e81f171bcc55a6ff8345e692c0f86e5b48e01b996cadc001622fb5e363b421880102030405060708c0c0",
        "lastblockhash" : "0xe5e7b347326b26fca39a18ddf83fe817af4abdae502f4b5f54285ccd273040cd",
        "network" : "EIP150",
        "postState" : {
            "0x095e7baea6a6c7c4c2dfeb977efac326af552d87" : {
                "balance" : "0x070a217c02c8f2d4",
                "code" : "0x6f823a02877cef7c1afb60663009def564608c557bad2ae05769b991313726edbfa0881d9cc955b0f5154751da315696ea7ce130184b64f2507582c502d450349ff24fb8aeb2a46146687b666bd7bd0364946cb720c76d483f5afea0049251fd9793c4b0376afbb4ebcdc42fdd42edcd4b619cec787638009cea26a1abe570e3186ab790b7dc7db36e4cda2570b0847adf6e39579c7c43a4ac976cd507d493cdfaebe09936078e31c71c4665d34a4b816b8004",
                "nonce" : "0x75",
                "storage" : {
                }
            },
            "0x6d6e40885310545835a5b582dbc23ef026404bda" : {
                "balance" : "0x4563918244f40000",
                "code" : "",
                "nonce" : "0x00",
                "storage" : {
                }
            },
            "0x945304eb96065b2a98b57a48a06ae28d285a71b5" : {
                "balance" : "0x9740421ff0ff3ae3",
                "code" : "",
                "nonce" : "0x1d",
                "storage" : {
                }
            },
            "0xa94f5374fce5edbc8e2a8697c15331677e6ebf0b" : {
                "balance" : "0xc1142f2b8e8eb058",
                "code" : "",
                "nonce" : "0x00",
                "storage" : {
                }
            }
        },
        "pre" : {
            "0x095e7baea6a6c7c4c2dfeb977efac326af552d87" : {
                "balance" : "0x070a217c02c8f2d4",
                "code" : "0x6f823a02877cef7c1afb60663009def564608c557bad2ae05769b991313726edbfa0881d9cc955b0f5154751da315696ea7ce130184b64f2507582c502d450349ff24fb8aeb2a46146687b666bd7bd0364946cb720c76d483f5afea0049251fd9793c4b0376afbb4ebcdc42fdd42edcd4b619cec787638009cea26a1abe570e3186ab790b7dc7db36e4cda2570b0847adf6e39579c7c43a4ac976cd507d493cdfaebe09936078e31c71c4665d34a4b816b8004",
                "nonce" : "0x75",
                "storage" : {
                }
            },
            "0x945304eb96065b2a98b57a48a06ae28d285a71b5" : {
                "balance" : "0x9740421ff0ff3ae3",
                "code" : "",
                "nonce" : "0x1d",
                "storage" : {
                }
            },
            "0xa94f5374fce5edbc8e2a8697c15331677e6ebf0b" : {
                "balance" : "0xc1142f2b8e8eb058",
                "code" : "",
                "nonce" : "0x00",
                "storage" : {
                }
            }
        }
    },
    "randomStatetest184_d0g0v0_EIP158" : {
        "_info" : {
            "comment" : "",
            "filledwith" : "cpp-1.3.0+commit.4e101574.Linux.g++",
            "lllcversion" : "Version: 0.4.18-develop.2017.10.11+commit.81f9f86c.Linux.g++",
            "source" : "src/BlockchainTestsFiller/GeneralStateTests/stRandom/randomStatetest184_d0g0v0Filler.json",
            "sourceHash" : "f00f17f33e3e3d30c91718da016a24fdad447f49b3126e43b8e950663e6b2b28"
        },
        "blocks" : [
            {
                "blockHeader" : {
                    "bloom" : "0x00000000000000000000000000000000000000000000000000000000000000000000000000000000000000000000000000000000000000000000000000000000000000000000000000000000000000000000000000000000000000000000000000000000000000000000000000000000000000000000000000000000000000000000000000000000000000000000000000000000000000000000000000000000000000000000000000000000000000000000000000000000000000000000000000000000000000000000000000000000000000000000000000000000000000000000000000000000000000000000000000000000000000000000000000000000",
                    "coinbase" : "0x6d6e40885310545835a5b582dbc23ef026404bda",
                    "difficulty" : "0x020000",
                    "extraData" : "",
                    "gasLimit" : "0x2b7fe66d",
                    "gasUsed" : "0x00",
                    "hash" : "0x611efb9e545b25039f2c238b9ebc302515d3e019e8269c0726d18de748d61233",
                    "mixHash" : "0xae7e3f659ef9c00f746f19e918a905e7ca82f6a8e30f772da2af32a29bee0bdb",
                    "nonce" : "0xfcf40e3609742f07",
                    "number" : "0x01",
                    "parentHash" : "0x01643102594d8163e7dfd5199cca782979129e756bc292bb449096d9d9534ea6",
                    "receiptTrie" : "0x56e81f171bcc55a6ff8345e692c0f86e5b48e01b996cadc001622fb5e363b421",
                    "stateRoot" : "0xb0179b293d59e0d3825e69cf19715223dc891c3139d94109eb4ede47629da728",
                    "timestamp" : "0x2710",
                    "transactionsTrie" : "0x56e81f171bcc55a6ff8345e692c0f86e5b48e01b996cadc001622fb5e363b421",
                    "uncleHash" : "0x1dcc4de8dec75d7aab85b567b6ccd41ad312451b948a7413f0a142fd40d49347"
                },
                "rlp" : "0xf901fbf901f6a001643102594d8163e7dfd5199cca782979129e756bc292bb449096d9d9534ea6a01dcc4de8dec75d7aab85b567b6ccd41ad312451b948a7413f0a142fd40d49347946d6e40885310545835a5b582dbc23ef026404bdaa0b0179b293d59e0d3825e69cf19715223dc891c3139d94109eb4ede47629da728a056e81f171bcc55a6ff8345e692c0f86e5b48e01b996cadc001622fb5e363b421a056e81f171bcc55a6ff8345e692c0f86e5b48e01b996cadc001622fb5e363b421b90100000000000000000000000000000000000000000000000000000000000000000000000000000000000000000000000000000000000000000000000000000000000000000000000000000000000000000000000000000000000000000000000000000000000000000000000000000000000000000000000000000000000000000000000000000000000000000000000000000000000000000000000000000000000000000000000000000000000000000000000000000000000000000000000000000000000000000000000000000000000000000000000000000000000000000000000000000000000000000000000000000000000000000000000000000000008302000001842b7fe66d8082271080a0ae7e3f659ef9c00f746f19e918a905e7ca82f6a8e30f772da2af32a29bee0bdb88fcf40e3609742f07c0c0",
                "transactions" : [
                ],
                "uncleHeaders" : [
                ]
            }
        ],
        "genesisBlockHeader" : {
            "bloom" : "0x00000000000000000000000000000000000000000000000000000000000000000000000000000000000000000000000000000000000000000000000000000000000000000000000000000000000000000000000000000000000000000000000000000000000000000000000000000000000000000000000000000000000000000000000000000000000000000000000000000000000000000000000000000000000000000000000000000000000000000000000000000000000000000000000000000000000000000000000000000000000000000000000000000000000000000000000000000000000000000000000000000000000000000000000000000000",
            "coinbase" : "0x6d6e40885310545835a5b582dbc23ef026404bda",
            "difficulty" : "0x020000",
            "extraData" : "0x42",
            "gasLimit" : "0x2b7fe66d",
            "gasUsed" : "0x00",
            "hash" : "0x01643102594d8163e7dfd5199cca782979129e756bc292bb449096d9d9534ea6",
            "mixHash" : "0x56e81f171bcc55a6ff8345e692c0f86e5b48e01b996cadc001622fb5e363b421",
            "nonce" : "0x0102030405060708",
            "number" : "0x00",
            "parentHash" : "0x0000000000000000000000000000000000000000000000000000000000000000",
            "receiptTrie" : "0x56e81f171bcc55a6ff8345e692c0f86e5b48e01b996cadc001622fb5e363b421",
            "stateRoot" : "0xf95be1e4c7788641348454fd9ff7b21956f61a979e8d7f8e55cec444c5931e8c",
            "timestamp" : "0x26de",
            "transactionsTrie" : "0x56e81f171bcc55a6ff8345e692c0f86e5b48e01b996cadc001622fb5e363b421",
            "uncleHash" : "0x1dcc4de8dec75d7aab85b567b6ccd41ad312451b948a7413f0a142fd40d49347"
        },
        "genesisRLP" : "0xf901fbf901f6a00000000000000000000000000000000000000000000000000000000000000000a01dcc4de8dec75d7aab85b567b6ccd41ad312451b948a7413f0a142fd40d49347946d6e40885310545835a5b582dbc23ef026404bdaa0f95be1e4c7788641348454fd9ff7b21956f61a979e8d7f8e55cec444c5931e8ca056e81f171bcc55a6ff8345e692c0f86e5b48e01b996cadc001622fb5e363b421a056e81f171bcc55a6ff8345e692c0f86e5b48e01b996cadc001622fb5e363b421b90100000000000000000000000000000000000000000000000000000000000000000000000000000000000000000000000000000000000000000000000000000000000000000000000000000000000000000000000000000000000000000000000000000000000000000000000000000000000000000000000000000000000000000000000000000000000000000000000000000000000000000000000000000000000000000000000000000000000000000000000000000000000000000000000000000000000000000000000000000000000000000000000000000000000000000000000000000000000000000000000000000000000000000000000000000000008302000080842b7fe66d808226de42a056e81f171bcc55a6ff8345e692c0f86e5b48e01b996cadc001622fb5e363b421880102030405060708c0c0",
        "lastblockhash" : "0x611efb9e545b25039f2c238b9ebc302515d3e019e8269c0726d18de748d61233",
        "network" : "EIP158",
        "postState" : {
            "0x095e7baea6a6c7c4c2dfeb977efac326af552d87" : {
                "balance" : "0x070a217c02c8f2d4",
                "code" : "0x6f823a02877cef7c1afb60663009def564608c557bad2ae05769b991313726edbfa0881d9cc955b0f5154751da315696ea7ce130184b64f2507582c502d450349ff24fb8aeb2a46146687b666bd7bd0364946cb720c76d483f5afea0049251fd9793c4b0376afbb4ebcdc42fdd42edcd4b619cec787638009cea26a1abe570e3186ab790b7dc7db36e4cda2570b0847adf6e39579c7c43a4ac976cd507d493cdfaebe09936078e31c71c4665d34a4b816b8004",
                "nonce" : "0x75",
                "storage" : {
                }
            },
            "0x6d6e40885310545835a5b582dbc23ef026404bda" : {
                "balance" : "0x4563918244f40000",
                "code" : "",
                "nonce" : "0x00",
                "storage" : {
                }
            },
            "0x945304eb96065b2a98b57a48a06ae28d285a71b5" : {
                "balance" : "0x9740421ff0ff3ae3",
                "code" : "",
                "nonce" : "0x1d",
                "storage" : {
                }
            },
            "0xa94f5374fce5edbc8e2a8697c15331677e6ebf0b" : {
                "balance" : "0xc1142f2b8e8eb058",
                "code" : "",
                "nonce" : "0x00",
                "storage" : {
                }
            }
        },
        "pre" : {
            "0x095e7baea6a6c7c4c2dfeb977efac326af552d87" : {
                "balance" : "0x070a217c02c8f2d4",
                "code" : "0x6f823a02877cef7c1afb60663009def564608c557bad2ae05769b991313726edbfa0881d9cc955b0f5154751da315696ea7ce130184b64f2507582c502d450349ff24fb8aeb2a46146687b666bd7bd0364946cb720c76d483f5afea0049251fd9793c4b0376afbb4ebcdc42fdd42edcd4b619cec787638009cea26a1abe570e3186ab790b7dc7db36e4cda2570b0847adf6e39579c7c43a4ac976cd507d493cdfaebe09936078e31c71c4665d34a4b816b8004",
                "nonce" : "0x75",
                "storage" : {
                }
            },
            "0x945304eb96065b2a98b57a48a06ae28d285a71b5" : {
                "balance" : "0x9740421ff0ff3ae3",
                "code" : "",
                "nonce" : "0x1d",
                "storage" : {
                }
            },
            "0xa94f5374fce5edbc8e2a8697c15331677e6ebf0b" : {
                "balance" : "0xc1142f2b8e8eb058",
                "code" : "",
                "nonce" : "0x00",
                "storage" : {
                }
            }
        }
    },
    "randomStatetest184_d0g0v0_Frontier" : {
        "_info" : {
            "comment" : "",
            "filledwith" : "cpp-1.3.0+commit.4e101574.Linux.g++",
            "lllcversion" : "Version: 0.4.18-develop.2017.10.11+commit.81f9f86c.Linux.g++",
            "source" : "src/BlockchainTestsFiller/GeneralStateTests/stRandom/randomStatetest184_d0g0v0Filler.json",
            "sourceHash" : "f00f17f33e3e3d30c91718da016a24fdad447f49b3126e43b8e950663e6b2b28"
        },
        "blocks" : [
            {
                "blockHeader" : {
                    "bloom" : "0x00000000000000000000000000000000000000000000000000000000000000000000000000000000000000000000000000000000000000000000000000000000000000000000000000000000000000000000000000000000000000000000000000000000000000000000000000000000000000000000000000000000000000000000000000000000000000000000000000000000000000000000000000000000000000000000000000000000000000000000000000000000000000000000000000000000000000000000000000000000000000000000000000000000000000000000000000000000000000000000000000000000000000000000000000000000",
                    "coinbase" : "0x6d6e40885310545835a5b582dbc23ef026404bda",
                    "difficulty" : "0x020000",
                    "extraData" : "",
                    "gasLimit" : "0x2b7fe66d",
                    "gasUsed" : "0x00",
                    "hash" : "0x4827a2f6c12629d455fcb8dad9a29a3d913c26ee22bb85fd07d2c63fd2bfeb43",
                    "mixHash" : "0x304e173047eac48a53ed16ee8b3c720ee7e36b4928cd2e08c3f2e32d561c72a8",
                    "nonce" : "0x8c4ba56c88e26e67",
                    "number" : "0x01",
                    "parentHash" : "0x01643102594d8163e7dfd5199cca782979129e756bc292bb449096d9d9534ea6",
                    "receiptTrie" : "0x56e81f171bcc55a6ff8345e692c0f86e5b48e01b996cadc001622fb5e363b421",
                    "stateRoot" : "0xb0179b293d59e0d3825e69cf19715223dc891c3139d94109eb4ede47629da728",
                    "timestamp" : "0x2710",
                    "transactionsTrie" : "0x56e81f171bcc55a6ff8345e692c0f86e5b48e01b996cadc001622fb5e363b421",
                    "uncleHash" : "0x1dcc4de8dec75d7aab85b567b6ccd41ad312451b948a7413f0a142fd40d49347"
                },
                "rlp" : "0xf901fbf901f6a001643102594d8163e7dfd5199cca782979129e756bc292bb449096d9d9534ea6a01dcc4de8dec75d7aab85b567b6ccd41ad312451b948a7413f0a142fd40d49347946d6e40885310545835a5b582dbc23ef026404bdaa0b0179b293d59e0d3825e69cf19715223dc891c3139d94109eb4ede47629da728a056e81f171bcc55a6ff8345e692c0f86e5b48e01b996cadc001622fb5e363b421a056e81f171bcc55a6ff8345e692c0f86e5b48e01b996cadc001622fb5e363b421b90100000000000000000000000000000000000000000000000000000000000000000000000000000000000000000000000000000000000000000000000000000000000000000000000000000000000000000000000000000000000000000000000000000000000000000000000000000000000000000000000000000000000000000000000000000000000000000000000000000000000000000000000000000000000000000000000000000000000000000000000000000000000000000000000000000000000000000000000000000000000000000000000000000000000000000000000000000000000000000000000000000000000000000000000000000000008302000001842b7fe66d8082271080a0304e173047eac48a53ed16ee8b3c720ee7e36b4928cd2e08c3f2e32d561c72a8888c4ba56c88e26e67c0c0",
                "transactions" : [
                ],
                "uncleHeaders" : [
                ]
            }
        ],
        "genesisBlockHeader" : {
            "bloom" : "0x00000000000000000000000000000000000000000000000000000000000000000000000000000000000000000000000000000000000000000000000000000000000000000000000000000000000000000000000000000000000000000000000000000000000000000000000000000000000000000000000000000000000000000000000000000000000000000000000000000000000000000000000000000000000000000000000000000000000000000000000000000000000000000000000000000000000000000000000000000000000000000000000000000000000000000000000000000000000000000000000000000000000000000000000000000000",
            "coinbase" : "0x6d6e40885310545835a5b582dbc23ef026404bda",
            "difficulty" : "0x020000",
            "extraData" : "0x42",
            "gasLimit" : "0x2b7fe66d",
            "gasUsed" : "0x00",
            "hash" : "0x01643102594d8163e7dfd5199cca782979129e756bc292bb449096d9d9534ea6",
            "mixHash" : "0x56e81f171bcc55a6ff8345e692c0f86e5b48e01b996cadc001622fb5e363b421",
            "nonce" : "0x0102030405060708",
            "number" : "0x00",
            "parentHash" : "0x0000000000000000000000000000000000000000000000000000000000000000",
            "receiptTrie" : "0x56e81f171bcc55a6ff8345e692c0f86e5b48e01b996cadc001622fb5e363b421",
            "stateRoot" : "0xf95be1e4c7788641348454fd9ff7b21956f61a979e8d7f8e55cec444c5931e8c",
            "timestamp" : "0x26de",
            "transactionsTrie" : "0x56e81f171bcc55a6ff8345e692c0f86e5b48e01b996cadc001622fb5e363b421",
            "uncleHash" : "0x1dcc4de8dec75d7aab85b567b6ccd41ad312451b948a7413f0a142fd40d49347"
        },
        "genesisRLP" : "0xf901fbf901f6a00000000000000000000000000000000000000000000000000000000000000000a01dcc4de8dec75d7aab85b567b6ccd41ad312451b948a7413f0a142fd40d49347946d6e40885310545835a5b582dbc23ef026404bdaa0f95be1e4c7788641348454fd9ff7b21956f61a979e8d7f8e55cec444c5931e8ca056e81f171bcc55a6ff8345e692c0f86e5b48e01b996cadc001622fb5e363b421a056e81f171bcc55a6ff8345e692c0f86e5b48e01b996cadc001622fb5e363b421b90100000000000000000000000000000000000000000000000000000000000000000000000000000000000000000000000000000000000000000000000000000000000000000000000000000000000000000000000000000000000000000000000000000000000000000000000000000000000000000000000000000000000000000000000000000000000000000000000000000000000000000000000000000000000000000000000000000000000000000000000000000000000000000000000000000000000000000000000000000000000000000000000000000000000000000000000000000000000000000000000000000000000000000000000000000000008302000080842b7fe66d808226de42a056e81f171bcc55a6ff8345e692c0f86e5b48e01b996cadc001622fb5e363b421880102030405060708c0c0",
        "lastblockhash" : "0x4827a2f6c12629d455fcb8dad9a29a3d913c26ee22bb85fd07d2c63fd2bfeb43",
        "network" : "Frontier",
        "postState" : {
            "0x095e7baea6a6c7c4c2dfeb977efac326af552d87" : {
                "balance" : "0x070a217c02c8f2d4",
                "code" : "0x6f823a02877cef7c1afb60663009def564608c557bad2ae05769b991313726edbfa0881d9cc955b0f5154751da315696ea7ce130184b64f2507582c502d450349ff24fb8aeb2a46146687b666bd7bd0364946cb720c76d483f5afea0049251fd9793c4b0376afbb4ebcdc42fdd42edcd4b619cec787638009cea26a1abe570e3186ab790b7dc7db36e4cda2570b0847adf6e39579c7c43a4ac976cd507d493cdfaebe09936078e31c71c4665d34a4b816b8004",
                "nonce" : "0x75",
                "storage" : {
                }
            },
            "0x6d6e40885310545835a5b582dbc23ef026404bda" : {
                "balance" : "0x4563918244f40000",
                "code" : "",
                "nonce" : "0x00",
                "storage" : {
                }
            },
            "0x945304eb96065b2a98b57a48a06ae28d285a71b5" : {
                "balance" : "0x9740421ff0ff3ae3",
                "code" : "",
                "nonce" : "0x1d",
                "storage" : {
                }
            },
            "0xa94f5374fce5edbc8e2a8697c15331677e6ebf0b" : {
                "balance" : "0xc1142f2b8e8eb058",
                "code" : "",
                "nonce" : "0x00",
                "storage" : {
                }
            }
        },
        "pre" : {
            "0x095e7baea6a6c7c4c2dfeb977efac326af552d87" : {
                "balance" : "0x070a217c02c8f2d4",
                "code" : "0x6f823a02877cef7c1afb60663009def564608c557bad2ae05769b991313726edbfa0881d9cc955b0f5154751da315696ea7ce130184b64f2507582c502d450349ff24fb8aeb2a46146687b666bd7bd0364946cb720c76d483f5afea0049251fd9793c4b0376afbb4ebcdc42fdd42edcd4b619cec787638009cea26a1abe570e3186ab790b7dc7db36e4cda2570b0847adf6e39579c7c43a4ac976cd507d493cdfaebe09936078e31c71c4665d34a4b816b8004",
                "nonce" : "0x75",
                "storage" : {
                }
            },
            "0x945304eb96065b2a98b57a48a06ae28d285a71b5" : {
                "balance" : "0x9740421ff0ff3ae3",
                "code" : "",
                "nonce" : "0x1d",
                "storage" : {
                }
            },
            "0xa94f5374fce5edbc8e2a8697c15331677e6ebf0b" : {
                "balance" : "0xc1142f2b8e8eb058",
                "code" : "",
                "nonce" : "0x00",
                "storage" : {
                }
            }
        }
    },
    "randomStatetest184_d0g0v0_Homestead" : {
        "_info" : {
            "comment" : "",
            "filledwith" : "cpp-1.3.0+commit.4e101574.Linux.g++",
            "lllcversion" : "Version: 0.4.18-develop.2017.10.11+commit.81f9f86c.Linux.g++",
            "source" : "src/BlockchainTestsFiller/GeneralStateTests/stRandom/randomStatetest184_d0g0v0Filler.json",
            "sourceHash" : "f00f17f33e3e3d30c91718da016a24fdad447f49b3126e43b8e950663e6b2b28"
        },
        "blocks" : [
            {
                "blockHeader" : {
                    "bloom" : "0x00000000000000000000000000000000000000000000000000000000000000000000000000000000000000000000000000000000000000000000000000000000000000000000000000000000000000000000000000000000000000000000000000000000000000000000000000000000000000000000000000000000000000000000000000000000000000000000000000000000000000000000000000000000000000000000000000000000000000000000000000000000000000000000000000000000000000000000000000000000000000000000000000000000000000000000000000000000000000000000000000000000000000000000000000000000",
                    "coinbase" : "0x6d6e40885310545835a5b582dbc23ef026404bda",
                    "difficulty" : "0x020000",
                    "extraData" : "",
                    "gasLimit" : "0x2b7fe66d",
                    "gasUsed" : "0x00",
                    "hash" : "0x68924ab52c61399713888aa2dffa1b5ebb6692d4638a8c20f128aeed5445c2f8",
                    "mixHash" : "0x3c0a0a37c649570b664e356eaaf3dd3d88d23e858fe45cf64663e2f6dbb91342",
                    "nonce" : "0xa27f736d849b2e6b",
                    "number" : "0x01",
                    "parentHash" : "0x01643102594d8163e7dfd5199cca782979129e756bc292bb449096d9d9534ea6",
                    "receiptTrie" : "0x56e81f171bcc55a6ff8345e692c0f86e5b48e01b996cadc001622fb5e363b421",
                    "stateRoot" : "0xb0179b293d59e0d3825e69cf19715223dc891c3139d94109eb4ede47629da728",
                    "timestamp" : "0x2710",
                    "transactionsTrie" : "0x56e81f171bcc55a6ff8345e692c0f86e5b48e01b996cadc001622fb5e363b421",
                    "uncleHash" : "0x1dcc4de8dec75d7aab85b567b6ccd41ad312451b948a7413f0a142fd40d49347"
                },
                "rlp" : "0xf901fbf901f6a001643102594d8163e7dfd5199cca782979129e756bc292bb449096d9d9534ea6a01dcc4de8dec75d7aab85b567b6ccd41ad312451b948a7413f0a142fd40d49347946d6e40885310545835a5b582dbc23ef026404bdaa0b0179b293d59e0d3825e69cf19715223dc891c3139d94109eb4ede47629da728a056e81f171bcc55a6ff8345e692c0f86e5b48e01b996cadc001622fb5e363b421a056e81f171bcc55a6ff8345e692c0f86e5b48e01b996cadc001622fb5e363b421b90100000000000000000000000000000000000000000000000000000000000000000000000000000000000000000000000000000000000000000000000000000000000000000000000000000000000000000000000000000000000000000000000000000000000000000000000000000000000000000000000000000000000000000000000000000000000000000000000000000000000000000000000000000000000000000000000000000000000000000000000000000000000000000000000000000000000000000000000000000000000000000000000000000000000000000000000000000000000000000000000000000000000000000000000000000000008302000001842b7fe66d8082271080a03c0a0a37c649570b664e356eaaf3dd3d88d23e858fe45cf64663e2f6dbb9134288a27f736d849b2e6bc0c0",
                "transactions" : [
                ],
                "uncleHeaders" : [
                ]
            }
        ],
        "genesisBlockHeader" : {
            "bloom" : "0x00000000000000000000000000000000000000000000000000000000000000000000000000000000000000000000000000000000000000000000000000000000000000000000000000000000000000000000000000000000000000000000000000000000000000000000000000000000000000000000000000000000000000000000000000000000000000000000000000000000000000000000000000000000000000000000000000000000000000000000000000000000000000000000000000000000000000000000000000000000000000000000000000000000000000000000000000000000000000000000000000000000000000000000000000000000",
            "coinbase" : "0x6d6e40885310545835a5b582dbc23ef026404bda",
            "difficulty" : "0x020000",
            "extraData" : "0x42",
            "gasLimit" : "0x2b7fe66d",
            "gasUsed" : "0x00",
            "hash" : "0x01643102594d8163e7dfd5199cca782979129e756bc292bb449096d9d9534ea6",
            "mixHash" : "0x56e81f171bcc55a6ff8345e692c0f86e5b48e01b996cadc001622fb5e363b421",
            "nonce" : "0x0102030405060708",
            "number" : "0x00",
            "parentHash" : "0x0000000000000000000000000000000000000000000000000000000000000000",
            "receiptTrie" : "0x56e81f171bcc55a6ff8345e692c0f86e5b48e01b996cadc001622fb5e363b421",
            "stateRoot" : "0xf95be1e4c7788641348454fd9ff7b21956f61a979e8d7f8e55cec444c5931e8c",
            "timestamp" : "0x26de",
            "transactionsTrie" : "0x56e81f171bcc55a6ff8345e692c0f86e5b48e01b996cadc001622fb5e363b421",
            "uncleHash" : "0x1dcc4de8dec75d7aab85b567b6ccd41ad312451b948a7413f0a142fd40d49347"
        },
        "genesisRLP" : "0xf901fbf901f6a00000000000000000000000000000000000000000000000000000000000000000a01dcc4de8dec75d7aab85b567b6ccd41ad312451b948a7413f0a142fd40d49347946d6e40885310545835a5b582dbc23ef026404bdaa0f95be1e4c7788641348454fd9ff7b21956f61a979e8d7f8e55cec444c5931e8ca056e81f171bcc55a6ff8345e692c0f86e5b48e01b996cadc001622fb5e363b421a056e81f171bcc55a6ff8345e692c0f86e5b48e01b996cadc001622fb5e363b421b90100000000000000000000000000000000000000000000000000000000000000000000000000000000000000000000000000000000000000000000000000000000000000000000000000000000000000000000000000000000000000000000000000000000000000000000000000000000000000000000000000000000000000000000000000000000000000000000000000000000000000000000000000000000000000000000000000000000000000000000000000000000000000000000000000000000000000000000000000000000000000000000000000000000000000000000000000000000000000000000000000000000000000000000000000000000008302000080842b7fe66d808226de42a056e81f171bcc55a6ff8345e692c0f86e5b48e01b996cadc001622fb5e363b421880102030405060708c0c0",
        "lastblockhash" : "0x68924ab52c61399713888aa2dffa1b5ebb6692d4638a8c20f128aeed5445c2f8",
        "network" : "Homestead",
        "postState" : {
            "0x095e7baea6a6c7c4c2dfeb977efac326af552d87" : {
                "balance" : "0x070a217c02c8f2d4",
                "code" : "0x6f823a02877cef7c1afb60663009def564608c557bad2ae05769b991313726edbfa0881d9cc955b0f5154751da315696ea7ce130184b64f2507582c502d450349ff24fb8aeb2a46146687b666bd7bd0364946cb720c76d483f5afea0049251fd9793c4b0376afbb4ebcdc42fdd42edcd4b619cec787638009cea26a1abe570e3186ab790b7dc7db36e4cda2570b0847adf6e39579c7c43a4ac976cd507d493cdfaebe09936078e31c71c4665d34a4b816b8004",
                "nonce" : "0x75",
                "storage" : {
                }
            },
            "0x6d6e40885310545835a5b582dbc23ef026404bda" : {
                "balance" : "0x4563918244f40000",
                "code" : "",
                "nonce" : "0x00",
                "storage" : {
                }
            },
            "0x945304eb96065b2a98b57a48a06ae28d285a71b5" : {
                "balance" : "0x9740421ff0ff3ae3",
                "code" : "",
                "nonce" : "0x1d",
                "storage" : {
                }
            },
            "0xa94f5374fce5edbc8e2a8697c15331677e6ebf0b" : {
                "balance" : "0xc1142f2b8e8eb058",
                "code" : "",
                "nonce" : "0x00",
                "storage" : {
                }
            }
        },
        "pre" : {
            "0x095e7baea6a6c7c4c2dfeb977efac326af552d87" : {
                "balance" : "0x070a217c02c8f2d4",
                "code" : "0x6f823a02877cef7c1afb60663009def564608c557bad2ae05769b991313726edbfa0881d9cc955b0f5154751da315696ea7ce130184b64f2507582c502d450349ff24fb8aeb2a46146687b666bd7bd0364946cb720c76d483f5afea0049251fd9793c4b0376afbb4ebcdc42fdd42edcd4b619cec787638009cea26a1abe570e3186ab790b7dc7db36e4cda2570b0847adf6e39579c7c43a4ac976cd507d493cdfaebe09936078e31c71c4665d34a4b816b8004",
                "nonce" : "0x75",
                "storage" : {
                }
            },
            "0x945304eb96065b2a98b57a48a06ae28d285a71b5" : {
                "balance" : "0x9740421ff0ff3ae3",
                "code" : "",
                "nonce" : "0x1d",
                "storage" : {
                }
            },
            "0xa94f5374fce5edbc8e2a8697c15331677e6ebf0b" : {
                "balance" : "0xc1142f2b8e8eb058",
                "code" : "",
                "nonce" : "0x00",
                "storage" : {
                }
            }
        }
    }
}