{
    "randomStatetest233_d0g0v0_Byzantium" : {
        "_info" : {
            "comment" : "",
            "filledwith" : "cpp-1.3.0+commit.4e101574.Linux.g++",
            "lllcversion" : "Version: 0.4.18-develop.2017.10.11+commit.81f9f86c.Linux.g++",
            "source" : "src/BlockchainTestsFiller/GeneralStateTests/stRandom/randomStatetest233_d0g0v0Filler.json",
            "sourceHash" : "95be7103a42cfe331808b682904e5f153e6089d081714a7073582d2539e17ab9"
        },
        "blocks" : [
            {
                "blockHeader" : {
                    "bloom" : "0x00000000000000000000000000000000000000000000000000000000000000000000000000000000000000000000000000000000000000000000000000000000000000000000000000000000000000000000000000000000000000000000000000000000000000000000000000000000000000000000000000000000000000000000000000000000000000000000000000000000000000000000000000000000000000000000000000000000000000000000000000000000000000000000000000000000000000000000000000000000000000000000000000000000000000000000000000000000000000000000000000000000000000000000000000000000",
                    "coinbase" : "0x945304eb96065b2a98b57a48a06ae28d285a71b5",
                    "difficulty" : "0x020000",
                    "extraData" : "",
                    "gasLimit" : "0x7fffffffffffffff",
                    "gasUsed" : "0x16fb234b",
                    "hash" : "0xbfb7dda4c66bd5f82e7c83d1c059b43b821ce8cfa027f09af46b75e530e2dca2",
                    "mixHash" : "0x3884e21f70bd5e8bf46a65566ef0a7d3be6aa3fa250cc3c76b9097831e793146",
                    "nonce" : "0x4c3d7730a4cabdb0",
                    "number" : "0x01",
                    "parentHash" : "0x77a0141eb3eda59b002e7905011f93a8a167111a15c29cb5122cd5e35b808efb",
                    "receiptTrie" : "0xb634e6e9feade9b30a2b557a84c030a0b8410a57fd1798a16e3e4473ca33a53f",
                    "stateRoot" : "0x8d6c3332552d3a80849dadf6ad9a42d565f642fb6d004bfa5cf8caa3fdace53c",
                    "timestamp" : "0x03e8",
                    "transactionsTrie" : "0x577e771e13a76032ab812ad011c9331932751313599a0d495d836f5259c425e3",
                    "uncleHash" : "0x1dcc4de8dec75d7aab85b567b6ccd41ad312451b948a7413f0a142fd40d49347"
                },
                "rlp" : "0xf902f7f901fea077a0141eb3eda59b002e7905011f93a8a167111a15c29cb5122cd5e35b808efba01dcc4de8dec75d7aab85b567b6ccd41ad312451b948a7413f0a142fd40d4934794945304eb96065b2a98b57a48a06ae28d285a71b5a08d6c3332552d3a80849dadf6ad9a42d565f642fb6d004bfa5cf8caa3fdace53ca0577e771e13a76032ab812ad011c9331932751313599a0d495d836f5259c425e3a0b634e6e9feade9b30a2b557a84c030a0b8410a57fd1798a16e3e4473ca33a53fb90100000000000000000000000000000000000000000000000000000000000000000000000000000000000000000000000000000000000000000000000000000000000000000000000000000000000000000000000000000000000000000000000000000000000000000000000000000000000000000000000000000000000000000000000000000000000000000000000000000000000000000000000000000000000000000000000000000000000000000000000000000000000000000000000000000000000000000000000000000000000000000000000000000000000000000000000000000000000000000000000000000000000000000000000000000000008302000001887fffffffffffffff8416fb234b8203e880a03884e21f70bd5e8bf46a65566ef0a7d3be6aa3fa250cc3c76b9097831e793146884c3d7730a4cabdb0f8f3f8f180018416fb234b94095e7baea6a6c7c4c2dfeb977efac326af552d878477b5363eb88b7ffffffffffffffffffffffffffffffffffffffffffffffffffffffffffffffffe817fffffffffffffffffffffffffffffffffffffffffffffffffffffffffffffffff42057f000000000000000000000000ffffffffffffffffffffffffffffffffffffffff517f00000000000000000000000100000000000000000000000000000000000000006571541ba062004db7e70cc9415b637b50f69c2d43a204adb6d003f59d36b9c943dfc7710ca03e5fb9250725241d6558a4bf1f6bba3320772be2db78581184482cdc19858485c0",
                "transactions" : [
                    {
                        "data" : "0x7ffffffffffffffffffffffffffffffffffffffffffffffffffffffffffffffffe817fffffffffffffffffffffffffffffffffffffffffffffffffffffffffffffffff42057f000000000000000000000000ffffffffffffffffffffffffffffffffffffffff517f0000000000000000000000010000000000000000000000000000000000000000657154",
                        "gasLimit" : "0x16fb234b",
                        "gasPrice" : "0x01",
                        "nonce" : "0x00",
                        "r" : "0x62004db7e70cc9415b637b50f69c2d43a204adb6d003f59d36b9c943dfc7710c",
                        "s" : "0x3e5fb9250725241d6558a4bf1f6bba3320772be2db78581184482cdc19858485",
                        "to" : "0x095e7baea6a6c7c4c2dfeb977efac326af552d87",
                        "v" : "0x1b",
                        "value" : "0x77b5363e"
                    }
                ],
                "uncleHeaders" : [
                ]
            }
        ],
        "genesisBlockHeader" : {
            "bloom" : "0x00000000000000000000000000000000000000000000000000000000000000000000000000000000000000000000000000000000000000000000000000000000000000000000000000000000000000000000000000000000000000000000000000000000000000000000000000000000000000000000000000000000000000000000000000000000000000000000000000000000000000000000000000000000000000000000000000000000000000000000000000000000000000000000000000000000000000000000000000000000000000000000000000000000000000000000000000000000000000000000000000000000000000000000000000000000",
            "coinbase" : "0x945304eb96065b2a98b57a48a06ae28d285a71b5",
            "difficulty" : "0x020000",
            "extraData" : "0x42",
            "gasLimit" : "0x7fffffffffffffff",
            "gasUsed" : "0x00",
            "hash" : "0x77a0141eb3eda59b002e7905011f93a8a167111a15c29cb5122cd5e35b808efb",
            "mixHash" : "0x56e81f171bcc55a6ff8345e692c0f86e5b48e01b996cadc001622fb5e363b421",
            "nonce" : "0x0102030405060708",
            "number" : "0x00",
            "parentHash" : "0x0000000000000000000000000000000000000000000000000000000000000000",
            "receiptTrie" : "0x56e81f171bcc55a6ff8345e692c0f86e5b48e01b996cadc001622fb5e363b421",
            "stateRoot" : "0xb1c3777757993e0bae9a1cacd9ca97e8a2f899b2e01725dfc302a2fc0cf69374",
            "timestamp" : "0x03b6",
            "transactionsTrie" : "0x56e81f171bcc55a6ff8345e692c0f86e5b48e01b996cadc001622fb5e363b421",
            "uncleHash" : "0x1dcc4de8dec75d7aab85b567b6ccd41ad312451b948a7413f0a142fd40d49347"
        },
        "genesisRLP" : "0xf901fff901faa00000000000000000000000000000000000000000000000000000000000000000a01dcc4de8dec75d7aab85b567b6ccd41ad312451b948a7413f0a142fd40d4934794945304eb96065b2a98b57a48a06ae28d285a71b5a0b1c3777757993e0bae9a1cacd9ca97e8a2f899b2e01725dfc302a2fc0cf69374a056e81f171bcc55a6ff8345e692c0f86e5b48e01b996cadc001622fb5e363b421a056e81f171bcc55a6ff8345e692c0f86e5b48e01b996cadc001622fb5e363b421b90100000000000000000000000000000000000000000000000000000000000000000000000000000000000000000000000000000000000000000000000000000000000000000000000000000000000000000000000000000000000000000000000000000000000000000000000000000000000000000000000000000000000000000000000000000000000000000000000000000000000000000000000000000000000000000000000000000000000000000000000000000000000000000000000000000000000000000000000000000000000000000000000000000000000000000000000000000000000000000000000000000000000000000000000000000000008302000080887fffffffffffffff808203b642a056e81f171bcc55a6ff8345e692c0f86e5b48e01b996cadc001622fb5e363b421880102030405060708c0c0",
        "lastblockhash" : "0xbfb7dda4c66bd5f82e7c83d1c059b43b821ce8cfa027f09af46b75e530e2dca2",
        "network" : "Byzantium",
        "postState" : {
            "0x095e7baea6a6c7c4c2dfeb977efac326af552d87" : {
                "balance" : "0x00",
                "code" : "0x7ffffffffffffffffffffffffffffffffffffffffffffffffffffffffffffffffe817fffffffffffffffffffffffffffffffffffffffffffffffffffffffffffffffff42057f000000000000000000000000ffffffffffffffffffffffffffffffffffffffff517f000000000000000000000001000000000000000000000000000000000000000065715460005155",
                "nonce" : "0x00",
                "storage" : {
                }
            },
            "0x945304eb96065b2a98b57a48a06ae28d285a71b5" : {
                "balance" : "0x29a2241b0d272379",
                "code" : "0x6000355415600957005b60203560003555",
                "nonce" : "0x00",
                "storage" : {
                }
            },
            "0xa94f5374fce5edbc8e2a8697c15331677e6ebf0b" : {
                "balance" : "0x0de0b6b39068dcb5",
                "code" : "",
                "nonce" : "0x01",
                "storage" : {
                }
            }
        },
        "pre" : {
            "0x095e7baea6a6c7c4c2dfeb977efac326af552d87" : {
                "balance" : "0x00",
                "code" : "0x7ffffffffffffffffffffffffffffffffffffffffffffffffffffffffffffffffe817fffffffffffffffffffffffffffffffffffffffffffffffffffffffffffffffff42057f000000000000000000000000ffffffffffffffffffffffffffffffffffffffff517f000000000000000000000001000000000000000000000000000000000000000065715460005155",
                "nonce" : "0x00",
                "storage" : {
                }
            },
            "0x945304eb96065b2a98b57a48a06ae28d285a71b5" : {
                "balance" : "0x2e",
                "code" : "0x6000355415600957005b60203560003555",
                "nonce" : "0x00",
                "storage" : {
                }
            },
            "0xa94f5374fce5edbc8e2a8697c15331677e6ebf0b" : {
                "balance" : "0x0de0b6b3a7640000",
                "code" : "",
                "nonce" : "0x00",
                "storage" : {
                }
            }
        }
    },
    "randomStatetest233_d0g0v0_EIP150" : {
        "_info" : {
            "comment" : "",
            "filledwith" : "cpp-1.3.0+commit.4e101574.Linux.g++",
            "lllcversion" : "Version: 0.4.18-develop.2017.10.11+commit.81f9f86c.Linux.g++",
            "source" : "src/BlockchainTestsFiller/GeneralStateTests/stRandom/randomStatetest233_d0g0v0Filler.json",
            "sourceHash" : "95be7103a42cfe331808b682904e5f153e6089d081714a7073582d2539e17ab9"
        },
        "blocks" : [
            {
                "blockHeader" : {
                    "bloom" : "0x00000000000000000000000000000000000000000000000000000000000000000000000000000000000000000000000000000000000000000000000000000000000000000000000000000000000000000000000000000000000000000000000000000000000000000000000000000000000000000000000000000000000000000000000000000000000000000000000000000000000000000000000000000000000000000000000000000000000000000000000000000000000000000000000000000000000000000000000000000000000000000000000000000000000000000000000000000000000000000000000000000000000000000000000000000000",
                    "coinbase" : "0x945304eb96065b2a98b57a48a06ae28d285a71b5",
                    "difficulty" : "0x020000",
                    "extraData" : "",
                    "gasLimit" : "0x7fffffffffffffff",
                    "gasUsed" : "0x16fb234b",
                    "hash" : "0x184b4bca102eb205724407327568ea3f1d94bdc6b38fd32702fa2cc5d247609d",
                    "mixHash" : "0xf349c983b7a23e70aa0be027f879c3dddde4028fada08eab21cc84fc7b40bb2e",
                    "nonce" : "0x36186d5c10d3d4ad",
                    "number" : "0x01",
                    "parentHash" : "0x77a0141eb3eda59b002e7905011f93a8a167111a15c29cb5122cd5e35b808efb",
                    "receiptTrie" : "0x51237435fbfcc4187836f2a83a3314805de0f3288aec912312c7ad10d3127cbe",
                    "stateRoot" : "0xfb30a60840205051da69a528a7db9487eafc2c69a56d01fc4283b2675fce4281",
                    "timestamp" : "0x03e8",
                    "transactionsTrie" : "0x577e771e13a76032ab812ad011c9331932751313599a0d495d836f5259c425e3",
                    "uncleHash" : "0x1dcc4de8dec75d7aab85b567b6ccd41ad312451b948a7413f0a142fd40d49347"
                },
                "rlp" : "0xf902f7f901fea077a0141eb3eda59b002e7905011f93a8a167111a15c29cb5122cd5e35b808efba01dcc4de8dec75d7aab85b567b6ccd41ad312451b948a7413f0a142fd40d4934794945304eb96065b2a98b57a48a06ae28d285a71b5a0fb30a60840205051da69a528a7db9487eafc2c69a56d01fc4283b2675fce4281a0577e771e13a76032ab812ad011c9331932751313599a0d495d836f5259c425e3a051237435fbfcc4187836f2a83a3314805de0f3288aec912312c7ad10d3127cbeb90100000000000000000000000000000000000000000000000000000000000000000000000000000000000000000000000000000000000000000000000000000000000000000000000000000000000000000000000000000000000000000000000000000000000000000000000000000000000000000000000000000000000000000000000000000000000000000000000000000000000000000000000000000000000000000000000000000000000000000000000000000000000000000000000000000000000000000000000000000000000000000000000000000000000000000000000000000000000000000000000000000000000000000000000000000000008302000001887fffffffffffffff8416fb234b8203e880a0f349c983b7a23e70aa0be027f879c3dddde4028fada08eab21cc84fc7b40bb2e8836186d5c10d3d4adf8f3f8f180018416fb234b94095e7baea6a6c7c4c2dfeb977efac326af552d878477b5363eb88b7ffffffffffffffffffffffffffffffffffffffffffffffffffffffffffffffffe817fffffffffffffffffffffffffffffffffffffffffffffffffffffffffffffffff42057f000000000000000000000000ffffffffffffffffffffffffffffffffffffffff517f00000000000000000000000100000000000000000000000000000000000000006571541ba062004db7e70cc9415b637b50f69c2d43a204adb6d003f59d36b9c943dfc7710ca03e5fb9250725241d6558a4bf1f6bba3320772be2db78581184482cdc19858485c0",
                "transactions" : [
                    {
                        "data" : "0x7ffffffffffffffffffffffffffffffffffffffffffffffffffffffffffffffffe817fffffffffffffffffffffffffffffffffffffffffffffffffffffffffffffffff42057f000000000000000000000000ffffffffffffffffffffffffffffffffffffffff517f0000000000000000000000010000000000000000000000000000000000000000657154",
                        "gasLimit" : "0x16fb234b",
                        "gasPrice" : "0x01",
                        "nonce" : "0x00",
                        "r" : "0x62004db7e70cc9415b637b50f69c2d43a204adb6d003f59d36b9c943dfc7710c",
                        "s" : "0x3e5fb9250725241d6558a4bf1f6bba3320772be2db78581184482cdc19858485",
                        "to" : "0x095e7baea6a6c7c4c2dfeb977efac326af552d87",
                        "v" : "0x1b",
                        "value" : "0x77b5363e"
                    }
                ],
                "uncleHeaders" : [
                ]
            }
        ],
        "genesisBlockHeader" : {
            "bloom" : "0x00000000000000000000000000000000000000000000000000000000000000000000000000000000000000000000000000000000000000000000000000000000000000000000000000000000000000000000000000000000000000000000000000000000000000000000000000000000000000000000000000000000000000000000000000000000000000000000000000000000000000000000000000000000000000000000000000000000000000000000000000000000000000000000000000000000000000000000000000000000000000000000000000000000000000000000000000000000000000000000000000000000000000000000000000000000",
            "coinbase" : "0x945304eb96065b2a98b57a48a06ae28d285a71b5",
            "difficulty" : "0x020000",
            "extraData" : "0x42",
            "gasLimit" : "0x7fffffffffffffff",
            "gasUsed" : "0x00",
            "hash" : "0x77a0141eb3eda59b002e7905011f93a8a167111a15c29cb5122cd5e35b808efb",
            "mixHash" : "0x56e81f171bcc55a6ff8345e692c0f86e5b48e01b996cadc001622fb5e363b421",
            "nonce" : "0x0102030405060708",
            "number" : "0x00",
            "parentHash" : "0x0000000000000000000000000000000000000000000000000000000000000000",
            "receiptTrie" : "0x56e81f171bcc55a6ff8345e692c0f86e5b48e01b996cadc001622fb5e363b421",
            "stateRoot" : "0xb1c3777757993e0bae9a1cacd9ca97e8a2f899b2e01725dfc302a2fc0cf69374",
            "timestamp" : "0x03b6",
            "transactionsTrie" : "0x56e81f171bcc55a6ff8345e692c0f86e5b48e01b996cadc001622fb5e363b421",
            "uncleHash" : "0x1dcc4de8dec75d7aab85b567b6ccd41ad312451b948a7413f0a142fd40d49347"
        },
        "genesisRLP" : "0xf901fff901faa00000000000000000000000000000000000000000000000000000000000000000a01dcc4de8dec75d7aab85b567b6ccd41ad312451b948a7413f0a142fd40d4934794945304eb96065b2a98b57a48a06ae28d285a71b5a0b1c3777757993e0bae9a1cacd9ca97e8a2f899b2e01725dfc302a2fc0cf69374a056e81f171bcc55a6ff8345e692c0f86e5b48e01b996cadc001622fb5e363b421a056e81f171bcc55a6ff8345e692c0f86e5b48e01b996cadc001622fb5e363b421b90100000000000000000000000000000000000000000000000000000000000000000000000000000000000000000000000000000000000000000000000000000000000000000000000000000000000000000000000000000000000000000000000000000000000000000000000000000000000000000000000000000000000000000000000000000000000000000000000000000000000000000000000000000000000000000000000000000000000000000000000000000000000000000000000000000000000000000000000000000000000000000000000000000000000000000000000000000000000000000000000000000000000000000000000000000000008302000080887fffffffffffffff808203b642a056e81f171bcc55a6ff8345e692c0f86e5b48e01b996cadc001622fb5e363b421880102030405060708c0c0",
        "lastblockhash" : "0x184b4bca102eb205724407327568ea3f1d94bdc6b38fd32702fa2cc5d247609d",
        "network" : "EIP150",
        "postState" : {
            "0x095e7baea6a6c7c4c2dfeb977efac326af552d87" : {
                "balance" : "0x00",
                "code" : "0x7ffffffffffffffffffffffffffffffffffffffffffffffffffffffffffffffffe817fffffffffffffffffffffffffffffffffffffffffffffffffffffffffffffffff42057f000000000000000000000000ffffffffffffffffffffffffffffffffffffffff517f000000000000000000000001000000000000000000000000000000000000000065715460005155",
                "nonce" : "0x00",
                "storage" : {
                }
            },
            "0x945304eb96065b2a98b57a48a06ae28d285a71b5" : {
                "balance" : "0x456391825bef2379",
                "code" : "0x6000355415600957005b60203560003555",
                "nonce" : "0x00",
                "storage" : {
                }
            },
            "0xa94f5374fce5edbc8e2a8697c15331677e6ebf0b" : {
                "balance" : "0x0de0b6b39068dcb5",
                "code" : "",
                "nonce" : "0x01",
                "storage" : {
                }
            }
        },
        "pre" : {
            "0x095e7baea6a6c7c4c2dfeb977efac326af552d87" : {
                "balance" : "0x00",
                "code" : "0x7ffffffffffffffffffffffffffffffffffffffffffffffffffffffffffffffffe817fffffffffffffffffffffffffffffffffffffffffffffffffffffffffffffffff42057f000000000000000000000000ffffffffffffffffffffffffffffffffffffffff517f000000000000000000000001000000000000000000000000000000000000000065715460005155",
                "nonce" : "0x00",
                "storage" : {
                }
            },
            "0x945304eb96065b2a98b57a48a06ae28d285a71b5" : {
                "balance" : "0x2e",
                "code" : "0x6000355415600957005b60203560003555",
                "nonce" : "0x00",
                "storage" : {
                }
            },
            "0xa94f5374fce5edbc8e2a8697c15331677e6ebf0b" : {
                "balance" : "0x0de0b6b3a7640000",
                "code" : "",
                "nonce" : "0x00",
                "storage" : {
                }
            }
        }
    },
    "randomStatetest233_d0g0v0_EIP158" : {
        "_info" : {
            "comment" : "",
            "filledwith" : "cpp-1.3.0+commit.4e101574.Linux.g++",
            "lllcversion" : "Version: 0.4.18-develop.2017.10.11+commit.81f9f86c.Linux.g++",
            "source" : "src/BlockchainTestsFiller/GeneralStateTests/stRandom/randomStatetest233_d0g0v0Filler.json",
            "sourceHash" : "95be7103a42cfe331808b682904e5f153e6089d081714a7073582d2539e17ab9"
        },
        "blocks" : [
            {
                "blockHeader" : {
                    "bloom" : "0x00000000000000000000000000000000000000000000000000000000000000000000000000000000000000000000000000000000000000000000000000000000000000000000000000000000000000000000000000000000000000000000000000000000000000000000000000000000000000000000000000000000000000000000000000000000000000000000000000000000000000000000000000000000000000000000000000000000000000000000000000000000000000000000000000000000000000000000000000000000000000000000000000000000000000000000000000000000000000000000000000000000000000000000000000000000",
                    "coinbase" : "0x945304eb96065b2a98b57a48a06ae28d285a71b5",
                    "difficulty" : "0x020000",
                    "extraData" : "",
                    "gasLimit" : "0x7fffffffffffffff",
                    "gasUsed" : "0x16fb234b",
                    "hash" : "0x1cf64696de62cb2f937ea546cf489e598513b32919df0dc3a59304d472572d78",
                    "mixHash" : "0x963b9e753b2612ac30bc6de8578d86b0cad299c532c72d597b8606dec65ca194",
                    "nonce" : "0x236594c177f07187",
                    "number" : "0x01",
                    "parentHash" : "0x77a0141eb3eda59b002e7905011f93a8a167111a15c29cb5122cd5e35b808efb",
                    "receiptTrie" : "0x51237435fbfcc4187836f2a83a3314805de0f3288aec912312c7ad10d3127cbe",
                    "stateRoot" : "0xfb30a60840205051da69a528a7db9487eafc2c69a56d01fc4283b2675fce4281",
                    "timestamp" : "0x03e8",
                    "transactionsTrie" : "0x577e771e13a76032ab812ad011c9331932751313599a0d495d836f5259c425e3",
                    "uncleHash" : "0x1dcc4de8dec75d7aab85b567b6ccd41ad312451b948a7413f0a142fd40d49347"
                },
                "rlp" : "0xf902f7f901fea077a0141eb3eda59b002e7905011f93a8a167111a15c29cb5122cd5e35b808efba01dcc4de8dec75d7aab85b567b6ccd41ad312451b948a7413f0a142fd40d4934794945304eb96065b2a98b57a48a06ae28d285a71b5a0fb30a60840205051da69a528a7db9487eafc2c69a56d01fc4283b2675fce4281a0577e771e13a76032ab812ad011c9331932751313599a0d495d836f5259c425e3a051237435fbfcc4187836f2a83a3314805de0f3288aec912312c7ad10d3127cbeb90100000000000000000000000000000000000000000000000000000000000000000000000000000000000000000000000000000000000000000000000000000000000000000000000000000000000000000000000000000000000000000000000000000000000000000000000000000000000000000000000000000000000000000000000000000000000000000000000000000000000000000000000000000000000000000000000000000000000000000000000000000000000000000000000000000000000000000000000000000000000000000000000000000000000000000000000000000000000000000000000000000000000000000000000000000000008302000001887fffffffffffffff8416fb234b8203e880a0963b9e753b2612ac30bc6de8578d86b0cad299c532c72d597b8606dec65ca19488236594c177f07187f8f3f8f180018416fb234b94095e7baea6a6c7c4c2dfeb977efac326af552d878477b5363eb88b7ffffffffffffffffffffffffffffffffffffffffffffffffffffffffffffffffe817fffffffffffffffffffffffffffffffffffffffffffffffffffffffffffffffff42057f000000000000000000000000ffffffffffffffffffffffffffffffffffffffff517f00000000000000000000000100000000000000000000000000000000000000006571541ba062004db7e70cc9415b637b50f69c2d43a204adb6d003f59d36b9c943dfc7710ca03e5fb9250725241d6558a4bf1f6bba3320772be2db78581184482cdc19858485c0",
                "transactions" : [
                    {
                        "data" : "0x7ffffffffffffffffffffffffffffffffffffffffffffffffffffffffffffffffe817fffffffffffffffffffffffffffffffffffffffffffffffffffffffffffffffff42057f000000000000000000000000ffffffffffffffffffffffffffffffffffffffff517f0000000000000000000000010000000000000000000000000000000000000000657154",
                        "gasLimit" : "0x16fb234b",
                        "gasPrice" : "0x01",
                        "nonce" : "0x00",
                        "r" : "0x62004db7e70cc9415b637b50f69c2d43a204adb6d003f59d36b9c943dfc7710c",
                        "s" : "0x3e5fb9250725241d6558a4bf1f6bba3320772be2db78581184482cdc19858485",
                        "to" : "0x095e7baea6a6c7c4c2dfeb977efac326af552d87",
                        "v" : "0x1b",
                        "value" : "0x77b5363e"
                    }
                ],
                "uncleHeaders" : [
                ]
            }
        ],
        "genesisBlockHeader" : {
            "bloom" : "0x00000000000000000000000000000000000000000000000000000000000000000000000000000000000000000000000000000000000000000000000000000000000000000000000000000000000000000000000000000000000000000000000000000000000000000000000000000000000000000000000000000000000000000000000000000000000000000000000000000000000000000000000000000000000000000000000000000000000000000000000000000000000000000000000000000000000000000000000000000000000000000000000000000000000000000000000000000000000000000000000000000000000000000000000000000000",
            "coinbase" : "0x945304eb96065b2a98b57a48a06ae28d285a71b5",
            "difficulty" : "0x020000",
            "extraData" : "0x42",
            "gasLimit" : "0x7fffffffffffffff",
            "gasUsed" : "0x00",
            "hash" : "0x77a0141eb3eda59b002e7905011f93a8a167111a15c29cb5122cd5e35b808efb",
            "mixHash" : "0x56e81f171bcc55a6ff8345e692c0f86e5b48e01b996cadc001622fb5e363b421",
            "nonce" : "0x0102030405060708",
            "number" : "0x00",
            "parentHash" : "0x0000000000000000000000000000000000000000000000000000000000000000",
            "receiptTrie" : "0x56e81f171bcc55a6ff8345e692c0f86e5b48e01b996cadc001622fb5e363b421",
            "stateRoot" : "0xb1c3777757993e0bae9a1cacd9ca97e8a2f899b2e01725dfc302a2fc0cf69374",
            "timestamp" : "0x03b6",
            "transactionsTrie" : "0x56e81f171bcc55a6ff8345e692c0f86e5b48e01b996cadc001622fb5e363b421",
            "uncleHash" : "0x1dcc4de8dec75d7aab85b567b6ccd41ad312451b948a7413f0a142fd40d49347"
        },
        "genesisRLP" : "0xf901fff901faa00000000000000000000000000000000000000000000000000000000000000000a01dcc4de8dec75d7aab85b567b6ccd41ad312451b948a7413f0a142fd40d4934794945304eb96065b2a98b57a48a06ae28d285a71b5a0b1c3777757993e0bae9a1cacd9ca97e8a2f899b2e01725dfc302a2fc0cf69374a056e81f171bcc55a6ff8345e692c0f86e5b48e01b996cadc001622fb5e363b421a056e81f171bcc55a6ff8345e692c0f86e5b48e01b996cadc001622fb5e363b421b90100000000000000000000000000000000000000000000000000000000000000000000000000000000000000000000000000000000000000000000000000000000000000000000000000000000000000000000000000000000000000000000000000000000000000000000000000000000000000000000000000000000000000000000000000000000000000000000000000000000000000000000000000000000000000000000000000000000000000000000000000000000000000000000000000000000000000000000000000000000000000000000000000000000000000000000000000000000000000000000000000000000000000000000000000000000008302000080887fffffffffffffff808203b642a056e81f171bcc55a6ff8345e692c0f86e5b48e01b996cadc001622fb5e363b421880102030405060708c0c0",
        "lastblockhash" : "0x1cf64696de62cb2f937ea546cf489e598513b32919df0dc3a59304d472572d78",
        "network" : "EIP158",
        "postState" : {
            "0x095e7baea6a6c7c4c2dfeb977efac326af552d87" : {
                "balance" : "0x00",
                "code" : "0x7ffffffffffffffffffffffffffffffffffffffffffffffffffffffffffffffffe817fffffffffffffffffffffffffffffffffffffffffffffffffffffffffffffffff42057f000000000000000000000000ffffffffffffffffffffffffffffffffffffffff517f000000000000000000000001000000000000000000000000000000000000000065715460005155",
                "nonce" : "0x00",
                "storage" : {
                }
            },
            "0x945304eb96065b2a98b57a48a06ae28d285a71b5" : {
                "balance" : "0x456391825bef2379",
                "code" : "0x6000355415600957005b60203560003555",
                "nonce" : "0x00",
                "storage" : {
                }
            },
            "0xa94f5374fce5edbc8e2a8697c15331677e6ebf0b" : {
                "balance" : "0x0de0b6b39068dcb5",
                "code" : "",
                "nonce" : "0x01",
                "storage" : {
                }
            }
        },
        "pre" : {
            "0x095e7baea6a6c7c4c2dfeb977efac326af552d87" : {
                "balance" : "0x00",
                "code" : "0x7ffffffffffffffffffffffffffffffffffffffffffffffffffffffffffffffffe817fffffffffffffffffffffffffffffffffffffffffffffffffffffffffffffffff42057f000000000000000000000000ffffffffffffffffffffffffffffffffffffffff517f000000000000000000000001000000000000000000000000000000000000000065715460005155",
                "nonce" : "0x00",
                "storage" : {
                }
            },
            "0x945304eb96065b2a98b57a48a06ae28d285a71b5" : {
                "balance" : "0x2e",
                "code" : "0x6000355415600957005b60203560003555",
                "nonce" : "0x00",
                "storage" : {
                }
            },
            "0xa94f5374fce5edbc8e2a8697c15331677e6ebf0b" : {
                "balance" : "0x0de0b6b3a7640000",
                "code" : "",
                "nonce" : "0x00",
                "storage" : {
                }
            }
        }
    },
    "randomStatetest233_d0g0v0_Frontier" : {
        "_info" : {
            "comment" : "",
            "filledwith" : "cpp-1.3.0+commit.4e101574.Linux.g++",
            "lllcversion" : "Version: 0.4.18-develop.2017.10.11+commit.81f9f86c.Linux.g++",
            "source" : "src/BlockchainTestsFiller/GeneralStateTests/stRandom/randomStatetest233_d0g0v0Filler.json",
            "sourceHash" : "95be7103a42cfe331808b682904e5f153e6089d081714a7073582d2539e17ab9"
        },
        "blocks" : [
            {
                "blockHeader" : {
                    "bloom" : "0x00000000000000000000000000000000000000000000000000000000000000000000000000000000000000000000000000000000000000000000000000000000000000000000000000000000000000000000000000000000000000000000000000000000000000000000000000000000000000000000000000000000000000000000000000000000000000000000000000000000000000000000000000000000000000000000000000000000000000000000000000000000000000000000000000000000000000000000000000000000000000000000000000000000000000000000000000000000000000000000000000000000000000000000000000000000",
                    "coinbase" : "0x945304eb96065b2a98b57a48a06ae28d285a71b5",
                    "difficulty" : "0x020000",
                    "extraData" : "",
                    "gasLimit" : "0x7fffffffffffffff",
                    "gasUsed" : "0x16fb234b",
                    "hash" : "0xb5b84f9b08289e9e0f2bde05deb914a36090464c28220939e9b40a96acd3a12f",
                    "mixHash" : "0xef50cd6cf649e9d0e5e11f16163a4bd97fa5981d9f229a3507397b41cd79db4c",
                    "nonce" : "0x666a22c3f41fad43",
                    "number" : "0x01",
                    "parentHash" : "0x77a0141eb3eda59b002e7905011f93a8a167111a15c29cb5122cd5e35b808efb",
                    "receiptTrie" : "0x51237435fbfcc4187836f2a83a3314805de0f3288aec912312c7ad10d3127cbe",
                    "stateRoot" : "0xfb30a60840205051da69a528a7db9487eafc2c69a56d01fc4283b2675fce4281",
                    "timestamp" : "0x03e8",
                    "transactionsTrie" : "0x577e771e13a76032ab812ad011c9331932751313599a0d495d836f5259c425e3",
                    "uncleHash" : "0x1dcc4de8dec75d7aab85b567b6ccd41ad312451b948a7413f0a142fd40d49347"
                },
                "rlp" : "0xf902f7f901fea077a0141eb3eda59b002e7905011f93a8a167111a15c29cb5122cd5e35b808efba01dcc4de8dec75d7aab85b567b6ccd41ad312451b948a7413f0a142fd40d4934794945304eb96065b2a98b57a48a06ae28d285a71b5a0fb30a60840205051da69a528a7db9487eafc2c69a56d01fc4283b2675fce4281a0577e771e13a76032ab812ad011c9331932751313599a0d495d836f5259c425e3a051237435fbfcc4187836f2a83a3314805de0f3288aec912312c7ad10d3127cbeb90100000000000000000000000000000000000000000000000000000000000000000000000000000000000000000000000000000000000000000000000000000000000000000000000000000000000000000000000000000000000000000000000000000000000000000000000000000000000000000000000000000000000000000000000000000000000000000000000000000000000000000000000000000000000000000000000000000000000000000000000000000000000000000000000000000000000000000000000000000000000000000000000000000000000000000000000000000000000000000000000000000000000000000000000000000000008302000001887fffffffffffffff8416fb234b8203e880a0ef50cd6cf649e9d0e5e11f16163a4bd97fa5981d9f229a3507397b41cd79db4c88666a22c3f41fad43f8f3f8f180018416fb234b94095e7baea6a6c7c4c2dfeb977efac326af552d878477b5363eb88b7ffffffffffffffffffffffffffffffffffffffffffffffffffffffffffffffffe817fffffffffffffffffffffffffffffffffffffffffffffffffffffffffffffffff42057f000000000000000000000000ffffffffffffffffffffffffffffffffffffffff517f00000000000000000000000100000000000000000000000000000000000000006571541ba062004db7e70cc9415b637b50f69c2d43a204adb6d003f59d36b9c943dfc7710ca03e5fb9250725241d6558a4bf1f6bba3320772be2db78581184482cdc19858485c0",
                "transactions" : [
                    {
                        "data" : "0x7ffffffffffffffffffffffffffffffffffffffffffffffffffffffffffffffffe817fffffffffffffffffffffffffffffffffffffffffffffffffffffffffffffffff42057f000000000000000000000000ffffffffffffffffffffffffffffffffffffffff517f0000000000000000000000010000000000000000000000000000000000000000657154",
                        "gasLimit" : "0x16fb234b",
                        "gasPrice" : "0x01",
                        "nonce" : "0x00",
                        "r" : "0x62004db7e70cc9415b637b50f69c2d43a204adb6d003f59d36b9c943dfc7710c",
                        "s" : "0x3e5fb9250725241d6558a4bf1f6bba3320772be2db78581184482cdc19858485",
                        "to" : "0x095e7baea6a6c7c4c2dfeb977efac326af552d87",
                        "v" : "0x1b",
                        "value" : "0x77b5363e"
                    }
                ],
                "uncleHeaders" : [
                ]
            }
        ],
        "genesisBlockHeader" : {
            "bloom" : "0x00000000000000000000000000000000000000000000000000000000000000000000000000000000000000000000000000000000000000000000000000000000000000000000000000000000000000000000000000000000000000000000000000000000000000000000000000000000000000000000000000000000000000000000000000000000000000000000000000000000000000000000000000000000000000000000000000000000000000000000000000000000000000000000000000000000000000000000000000000000000000000000000000000000000000000000000000000000000000000000000000000000000000000000000000000000",
            "coinbase" : "0x945304eb96065b2a98b57a48a06ae28d285a71b5",
            "difficulty" : "0x020000",
            "extraData" : "0x42",
            "gasLimit" : "0x7fffffffffffffff",
            "gasUsed" : "0x00",
            "hash" : "0x77a0141eb3eda59b002e7905011f93a8a167111a15c29cb5122cd5e35b808efb",
            "mixHash" : "0x56e81f171bcc55a6ff8345e692c0f86e5b48e01b996cadc001622fb5e363b421",
            "nonce" : "0x0102030405060708",
            "number" : "0x00",
            "parentHash" : "0x0000000000000000000000000000000000000000000000000000000000000000",
            "receiptTrie" : "0x56e81f171bcc55a6ff8345e692c0f86e5b48e01b996cadc001622fb5e363b421",
            "stateRoot" : "0xb1c3777757993e0bae9a1cacd9ca97e8a2f899b2e01725dfc302a2fc0cf69374",
            "timestamp" : "0x03b6",
            "transactionsTrie" : "0x56e81f171bcc55a6ff8345e692c0f86e5b48e01b996cadc001622fb5e363b421",
            "uncleHash" : "0x1dcc4de8dec75d7aab85b567b6ccd41ad312451b948a7413f0a142fd40d49347"
        },
        "genesisRLP" : "0xf901fff901faa00000000000000000000000000000000000000000000000000000000000000000a01dcc4de8dec75d7aab85b567b6ccd41ad312451b948a7413f0a142fd40d4934794945304eb96065b2a98b57a48a06ae28d285a71b5a0b1c3777757993e0bae9a1cacd9ca97e8a2f899b2e01725dfc302a2fc0cf69374a056e81f171bcc55a6ff8345e692c0f86e5b48e01b996cadc001622fb5e363b421a056e81f171bcc55a6ff8345e692c0f86e5b48e01b996cadc001622fb5e363b421b90100000000000000000000000000000000000000000000000000000000000000000000000000000000000000000000000000000000000000000000000000000000000000000000000000000000000000000000000000000000000000000000000000000000000000000000000000000000000000000000000000000000000000000000000000000000000000000000000000000000000000000000000000000000000000000000000000000000000000000000000000000000000000000000000000000000000000000000000000000000000000000000000000000000000000000000000000000000000000000000000000000000000000000000000000000000008302000080887fffffffffffffff808203b642a056e81f171bcc55a6ff8345e692c0f86e5b48e01b996cadc001622fb5e363b421880102030405060708c0c0",
        "lastblockhash" : "0xb5b84f9b08289e9e0f2bde05deb914a36090464c28220939e9b40a96acd3a12f",
        "network" : "Frontier",
        "postState" : {
            "0x095e7baea6a6c7c4c2dfeb977efac326af552d87" : {
                "balance" : "0x00",
                "code" : "0x7ffffffffffffffffffffffffffffffffffffffffffffffffffffffffffffffffe817fffffffffffffffffffffffffffffffffffffffffffffffffffffffffffffffff42057f000000000000000000000000ffffffffffffffffffffffffffffffffffffffff517f000000000000000000000001000000000000000000000000000000000000000065715460005155",
                "nonce" : "0x00",
                "storage" : {
                }
            },
            "0x945304eb96065b2a98b57a48a06ae28d285a71b5" : {
                "balance" : "0x456391825bef2379",
                "code" : "0x6000355415600957005b60203560003555",
                "nonce" : "0x00",
                "storage" : {
                }
            },
            "0xa94f5374fce5edbc8e2a8697c15331677e6ebf0b" : {
                "balance" : "0x0de0b6b39068dcb5",
                "code" : "",
                "nonce" : "0x01",
                "storage" : {
                }
            }
        },
        "pre" : {
            "0x095e7baea6a6c7c4c2dfeb977efac326af552d87" : {
                "balance" : "0x00",
                "code" : "0x7ffffffffffffffffffffffffffffffffffffffffffffffffffffffffffffffffe817fffffffffffffffffffffffffffffffffffffffffffffffffffffffffffffffff42057f000000000000000000000000ffffffffffffffffffffffffffffffffffffffff517f000000000000000000000001000000000000000000000000000000000000000065715460005155",
                "nonce" : "0x00",
                "storage" : {
                }
            },
            "0x945304eb96065b2a98b57a48a06ae28d285a71b5" : {
                "balance" : "0x2e",
                "code" : "0x6000355415600957005b60203560003555",
                "nonce" : "0x00",
                "storage" : {
                }
            },
            "0xa94f5374fce5edbc8e2a8697c15331677e6ebf0b" : {
                "balance" : "0x0de0b6b3a7640000",
                "code" : "",
                "nonce" : "0x00",
                "storage" : {
                }
            }
        }
    },
    "randomStatetest233_d0g0v0_Homestead" : {
        "_info" : {
            "comment" : "",
            "filledwith" : "cpp-1.3.0+commit.4e101574.Linux.g++",
            "lllcversion" : "Version: 0.4.18-develop.2017.10.11+commit.81f9f86c.Linux.g++",
            "source" : "src/BlockchainTestsFiller/GeneralStateTests/stRandom/randomStatetest233_d0g0v0Filler.json",
            "sourceHash" : "95be7103a42cfe331808b682904e5f153e6089d081714a7073582d2539e17ab9"
        },
        "blocks" : [
            {
                "blockHeader" : {
                    "bloom" : "0x00000000000000000000000000000000000000000000000000000000000000000000000000000000000000000000000000000000000000000000000000000000000000000000000000000000000000000000000000000000000000000000000000000000000000000000000000000000000000000000000000000000000000000000000000000000000000000000000000000000000000000000000000000000000000000000000000000000000000000000000000000000000000000000000000000000000000000000000000000000000000000000000000000000000000000000000000000000000000000000000000000000000000000000000000000000",
                    "coinbase" : "0x945304eb96065b2a98b57a48a06ae28d285a71b5",
                    "difficulty" : "0x020000",
                    "extraData" : "",
                    "gasLimit" : "0x7fffffffffffffff",
                    "gasUsed" : "0x16fb234b",
                    "hash" : "0xbe5d15c46e399d793f603d5cb948535708b65456cd38dee5c79212875985c526",
                    "mixHash" : "0x3d614ebb3c0288ead2441cb5edec0ca8245e160a06f81b076b978a994b1c60ae",
                    "nonce" : "0x14d5a29dd62b6b54",
                    "number" : "0x01",
                    "parentHash" : "0x77a0141eb3eda59b002e7905011f93a8a167111a15c29cb5122cd5e35b808efb",
                    "receiptTrie" : "0x51237435fbfcc4187836f2a83a3314805de0f3288aec912312c7ad10d3127cbe",
                    "stateRoot" : "0xfb30a60840205051da69a528a7db9487eafc2c69a56d01fc4283b2675fce4281",
                    "timestamp" : "0x03e8",
                    "transactionsTrie" : "0x577e771e13a76032ab812ad011c9331932751313599a0d495d836f5259c425e3",
                    "uncleHash" : "0x1dcc4de8dec75d7aab85b567b6ccd41ad312451b948a7413f0a142fd40d49347"
                },
                "rlp" : "0xf902f7f901fea077a0141eb3eda59b002e7905011f93a8a167111a15c29cb5122cd5e35b808efba01dcc4de8dec75d7aab85b567b6ccd41ad312451b948a7413f0a142fd40d4934794945304eb96065b2a98b57a48a06ae28d285a71b5a0fb30a60840205051da69a528a7db9487eafc2c69a56d01fc4283b2675fce4281a0577e771e13a76032ab812ad011c9331932751313599a0d495d836f5259c425e3a051237435fbfcc4187836f2a83a3314805de0f3288aec912312c7ad10d3127cbeb90100000000000000000000000000000000000000000000000000000000000000000000000000000000000000000000000000000000000000000000000000000000000000000000000000000000000000000000000000000000000000000000000000000000000000000000000000000000000000000000000000000000000000000000000000000000000000000000000000000000000000000000000000000000000000000000000000000000000000000000000000000000000000000000000000000000000000000000000000000000000000000000000000000000000000000000000000000000000000000000000000000000000000000000000000000000008302000001887fffffffffffffff8416fb234b8203e880a03d614ebb3c0288ead2441cb5edec0ca8245e160a06f81b076b978a994b1c60ae8814d5a29dd62b6b54f8f3f8f180018416fb234b94095e7baea6a6c7c4c2dfeb977efac326af552d878477b5363eb88b7ffffffffffffffffffffffffffffffffffffffffffffffffffffffffffffffffe817fffffffffffffffffffffffffffffffffffffffffffffffffffffffffffffffff42057f000000000000000000000000ffffffffffffffffffffffffffffffffffffffff517f00000000000000000000000100000000000000000000000000000000000000006571541ba062004db7e70cc9415b637b50f69c2d43a204adb6d003f59d36b9c943dfc7710ca03e5fb9250725241d6558a4bf1f6bba3320772be2db78581184482cdc19858485c0",
                "transactions" : [
                    {
                        "data" : "0x7ffffffffffffffffffffffffffffffffffffffffffffffffffffffffffffffffe817fffffffffffffffffffffffffffffffffffffffffffffffffffffffffffffffff42057f000000000000000000000000ffffffffffffffffffffffffffffffffffffffff517f0000000000000000000000010000000000000000000000000000000000000000657154",
                        "gasLimit" : "0x16fb234b",
                        "gasPrice" : "0x01",
                        "nonce" : "0x00",
                        "r" : "0x62004db7e70cc9415b637b50f69c2d43a204adb6d003f59d36b9c943dfc7710c",
                        "s" : "0x3e5fb9250725241d6558a4bf1f6bba3320772be2db78581184482cdc19858485",
                        "to" : "0x095e7baea6a6c7c4c2dfeb977efac326af552d87",
                        "v" : "0x1b",
                        "value" : "0x77b5363e"
                    }
                ],
                "uncleHeaders" : [
                ]
            }
        ],
        "genesisBlockHeader" : {
            "bloom" : "0x00000000000000000000000000000000000000000000000000000000000000000000000000000000000000000000000000000000000000000000000000000000000000000000000000000000000000000000000000000000000000000000000000000000000000000000000000000000000000000000000000000000000000000000000000000000000000000000000000000000000000000000000000000000000000000000000000000000000000000000000000000000000000000000000000000000000000000000000000000000000000000000000000000000000000000000000000000000000000000000000000000000000000000000000000000000",
            "coinbase" : "0x945304eb96065b2a98b57a48a06ae28d285a71b5",
            "difficulty" : "0x020000",
            "extraData" : "0x42",
            "gasLimit" : "0x7fffffffffffffff",
            "gasUsed" : "0x00",
            "hash" : "0x77a0141eb3eda59b002e7905011f93a8a167111a15c29cb5122cd5e35b808efb",
            "mixHash" : "0x56e81f171bcc55a6ff8345e692c0f86e5b48e01b996cadc001622fb5e363b421",
            "nonce" : "0x0102030405060708",
            "number" : "0x00",
            "parentHash" : "0x0000000000000000000000000000000000000000000000000000000000000000",
            "receiptTrie" : "0x56e81f171bcc55a6ff8345e692c0f86e5b48e01b996cadc001622fb5e363b421",
            "stateRoot" : "0xb1c3777757993e0bae9a1cacd9ca97e8a2f899b2e01725dfc302a2fc0cf69374",
            "timestamp" : "0x03b6",
            "transactionsTrie" : "0x56e81f171bcc55a6ff8345e692c0f86e5b48e01b996cadc001622fb5e363b421",
            "uncleHash" : "0x1dcc4de8dec75d7aab85b567b6ccd41ad312451b948a7413f0a142fd40d49347"
        },
        "genesisRLP" : "0xf901fff901faa00000000000000000000000000000000000000000000000000000000000000000a01dcc4de8dec75d7aab85b567b6ccd41ad312451b948a7413f0a142fd40d4934794945304eb96065b2a98b57a48a06ae28d285a71b5a0b1c3777757993e0bae9a1cacd9ca97e8a2f899b2e01725dfc302a2fc0cf69374a056e81f171bcc55a6ff8345e692c0f86e5b48e01b996cadc001622fb5e363b421a056e81f171bcc55a6ff8345e692c0f86e5b48e01b996cadc001622fb5e363b421b90100000000000000000000000000000000000000000000000000000000000000000000000000000000000000000000000000000000000000000000000000000000000000000000000000000000000000000000000000000000000000000000000000000000000000000000000000000000000000000000000000000000000000000000000000000000000000000000000000000000000000000000000000000000000000000000000000000000000000000000000000000000000000000000000000000000000000000000000000000000000000000000000000000000000000000000000000000000000000000000000000000000000000000000000000000000008302000080887fffffffffffffff808203b642a056e81f171bcc55a6ff8345e692c0f86e5b48e01b996cadc001622fb5e363b421880102030405060708c0c0",
        "lastblockhash" : "0xbe5d15c46e399d793f603d5cb948535708b65456cd38dee5c79212875985c526",
        "network" : "Homestead",
        "postState" : {
            "0x095e7baea6a6c7c4c2dfeb977efac326af552d87" : {
                "balance" : "0x00",
                "code" : "0x7ffffffffffffffffffffffffffffffffffffffffffffffffffffffffffffffffe817fffffffffffffffffffffffffffffffffffffffffffffffffffffffffffffffff42057f000000000000000000000000ffffffffffffffffffffffffffffffffffffffff517f000000000000000000000001000000000000000000000000000000000000000065715460005155",
                "nonce" : "0x00",
                "storage" : {
                }
            },
            "0x945304eb96065b2a98b57a48a06ae28d285a71b5" : {
                "balance" : "0x456391825bef2379",
                "code" : "0x6000355415600957005b60203560003555",
                "nonce" : "0x00",
                "storage" : {
                }
            },
            "0xa94f5374fce5edbc8e2a8697c15331677e6ebf0b" : {
                "balance" : "0x0de0b6b39068dcb5",
                "code" : "",
                "nonce" : "0x01",
                "storage" : {
                }
            }
        },
        "pre" : {
            "0x095e7baea6a6c7c4c2dfeb977efac326af552d87" : {
                "balance" : "0x00",
                "code" : "0x7ffffffffffffffffffffffffffffffffffffffffffffffffffffffffffffffffe817fffffffffffffffffffffffffffffffffffffffffffffffffffffffffffffffff42057f000000000000000000000000ffffffffffffffffffffffffffffffffffffffff517f000000000000000000000001000000000000000000000000000000000000000065715460005155",
                "nonce" : "0x00",
                "storage" : {
                }
            },
            "0x945304eb96065b2a98b57a48a06ae28d285a71b5" : {
                "balance" : "0x2e",
                "code" : "0x6000355415600957005b60203560003555",
                "nonce" : "0x00",
                "storage" : {
                }
            },
            "0xa94f5374fce5edbc8e2a8697c15331677e6ebf0b" : {
                "balance" : "0x0de0b6b3a7640000",
                "code" : "",
                "nonce" : "0x00",
                "storage" : {
                }
            }
        }
    }
}