{
    "randomStatetest45_d0g0v0_Byzantium" : {
        "_info" : {
            "comment" : "",
            "filledwith" : "cpp-1.3.0+commit.4e101574.Linux.g++",
            "lllcversion" : "Version: 0.4.18-develop.2017.10.11+commit.81f9f86c.Linux.g++",
            "source" : "src/BlockchainTestsFiller/GeneralStateTests/stRandom/randomStatetest45_d0g0v0Filler.json",
            "sourceHash" : "d6afd1da534f3714e6dc899009ca5fd29a04ac3fe66d1b95d837e91eee9c5c21"
        },
        "blocks" : [
            {
                "blockHeader" : {
                    "bloom" : "0x00000000000000000000000000000000000000000000000000000000000000000000000000000000000000000000000000000000000000000000000000000000000000000000000000000000000000000000000000000000000000000000000000000000000000000000000000000000000000000000000000000000000000000000000000000000000000000000000000000000000000000000000000000000000000000000000000000000000000000000000000000000000000000000000000000000000000000000000000000000000000000000000000000000000000000000000000000000000000000000000000000000000000000000000000000000",
                    "coinbase" : "0x945304eb96065b2a98b57a48a06ae28d285a71b5",
                    "difficulty" : "0x020000",
                    "extraData" : "",
                    "gasLimit" : "0x7fffffffffffffff",
                    "gasUsed" : "0x6e62",
                    "hash" : "0xa23935a12e70a37be1d016fd6db9d35ca08d940771d087569bb7330e5a6427f9",
                    "mixHash" : "0x3fc6c11d1f76cba31a0d3629f73de5c33204a9866de7eada4f422289a058ae06",
                    "nonce" : "0xe51c2c77aa4d946e",
                    "number" : "0x01",
                    "parentHash" : "0xaf5a23929bef0af514e14240a30686afd118d708b4c17d5ec5994e1a598f1f88",
                    "receiptTrie" : "0x36cbde9922584db65d8f41ae53dcac1aa8db211180450d166c91360bc9cbe8b1",
                    "stateRoot" : "0xa7baef3be426e931825520ed8a942e497a58d83ed9cf188658eed59f1d6b566f",
                    "timestamp" : "0x03e8",
                    "transactionsTrie" : "0x40b5216fe669545e914733b611ee79a5abda026e8851b6c9d147428496e7172d",
                    "uncleHash" : "0x1dcc4de8dec75d7aab85b567b6ccd41ad312451b948a7413f0a142fd40d49347"
                },
                "rlp" : "0xf902f7f901fca0af5a23929bef0af514e14240a30686afd118d708b4c17d5ec5994e1a598f1f88a01dcc4de8dec75d7aab85b567b6ccd41ad312451b948a7413f0a142fd40d4934794945304eb96065b2a98b57a48a06ae28d285a71b5a0a7baef3be426e931825520ed8a942e497a58d83ed9cf188658eed59f1d6b566fa040b5216fe669545e914733b611ee79a5abda026e8851b6c9d147428496e7172da036cbde9922584db65d8f41ae53dcac1aa8db211180450d166c91360bc9cbe8b1b90100000000000000000000000000000000000000000000000000000000000000000000000000000000000000000000000000000000000000000000000000000000000000000000000000000000000000000000000000000000000000000000000000000000000000000000000000000000000000000000000000000000000000000000000000000000000000000000000000000000000000000000000000000000000000000000000000000000000000000000000000000000000000000000000000000000000000000000000000000000000000000000000000000000000000000000000000000000000000000000000000000000000000000000000000000000008302000001887fffffffffffffff826e628203e880a03fc6c11d1f76cba31a0d3629f73de5c33204a9866de7eada4f422289a058ae0688e51c2c77aa4d946ef8f5f8f380018413f6aeec94095e7baea6a6c7c4c2dfeb977efac326af552d8784771cef12b88d7f000000000000000000000000945304eb96065b2a98b57a48a06ae28d285a71b5317fffffffffffffffffffffffffffffffffffffffffffffffffffffffffffffffff7f0000000000000000000000010000000000000000000000000000000000000000417ffffffffffffffffffffffffffffffffffffffffffffffffffffffffffffffffe43147256a313021ba004ce2aad89a64a21136745df3fecd9469664d1fbcb83c4e7df92a4b852f042b6a04c0bc5451130611030ce672249fedd33c00c82489f1e1c1103909f9f5b548b9bc0",
                "transactions" : [
                    {
                        "data" : "0x7f000000000000000000000000945304eb96065b2a98b57a48a06ae28d285a71b5317fffffffffffffffffffffffffffffffffffffffffffffffffffffffffffffffff7f0000000000000000000000010000000000000000000000000000000000000000417ffffffffffffffffffffffffffffffffffffffffffffffffffffffffffffffffe43147256a31302",
                        "gasLimit" : "0x13f6aeec",
                        "gasPrice" : "0x01",
                        "nonce" : "0x00",
                        "r" : "0x04ce2aad89a64a21136745df3fecd9469664d1fbcb83c4e7df92a4b852f042b6",
                        "s" : "0x4c0bc5451130611030ce672249fedd33c00c82489f1e1c1103909f9f5b548b9b",
                        "to" : "0x095e7baea6a6c7c4c2dfeb977efac326af552d87",
                        "v" : "0x1b",
                        "value" : "0x771cef12"
                    }
                ],
                "uncleHeaders" : [
                ]
            }
        ],
        "genesisBlockHeader" : {
            "bloom" : "0x00000000000000000000000000000000000000000000000000000000000000000000000000000000000000000000000000000000000000000000000000000000000000000000000000000000000000000000000000000000000000000000000000000000000000000000000000000000000000000000000000000000000000000000000000000000000000000000000000000000000000000000000000000000000000000000000000000000000000000000000000000000000000000000000000000000000000000000000000000000000000000000000000000000000000000000000000000000000000000000000000000000000000000000000000000000",
            "coinbase" : "0x945304eb96065b2a98b57a48a06ae28d285a71b5",
            "difficulty" : "0x020000",
            "extraData" : "0x42",
            "gasLimit" : "0x7fffffffffffffff",
            "gasUsed" : "0x00",
            "hash" : "0xaf5a23929bef0af514e14240a30686afd118d708b4c17d5ec5994e1a598f1f88",
            "mixHash" : "0x56e81f171bcc55a6ff8345e692c0f86e5b48e01b996cadc001622fb5e363b421",
            "nonce" : "0x0102030405060708",
            "number" : "0x00",
            "parentHash" : "0x0000000000000000000000000000000000000000000000000000000000000000",
            "receiptTrie" : "0x56e81f171bcc55a6ff8345e692c0f86e5b48e01b996cadc001622fb5e363b421",
            "stateRoot" : "0x86f3ec7de2693955efdaa32bbaf5fac8b27d5b676ade2edee84ef31e0e7489cf",
            "timestamp" : "0x03b6",
            "transactionsTrie" : "0x56e81f171bcc55a6ff8345e692c0f86e5b48e01b996cadc001622fb5e363b421",
            "uncleHash" : "0x1dcc4de8dec75d7aab85b567b6ccd41ad312451b948a7413f0a142fd40d49347"
        },
        "genesisRLP" : "0xf901fff901faa00000000000000000000000000000000000000000000000000000000000000000a01dcc4de8dec75d7aab85b567b6ccd41ad312451b948a7413f0a142fd40d4934794945304eb96065b2a98b57a48a06ae28d285a71b5a086f3ec7de2693955efdaa32bbaf5fac8b27d5b676ade2edee84ef31e0e7489cfa056e81f171bcc55a6ff8345e692c0f86e5b48e01b996cadc001622fb5e363b421a056e81f171bcc55a6ff8345e692c0f86e5b48e01b996cadc001622fb5e363b421b90100000000000000000000000000000000000000000000000000000000000000000000000000000000000000000000000000000000000000000000000000000000000000000000000000000000000000000000000000000000000000000000000000000000000000000000000000000000000000000000000000000000000000000000000000000000000000000000000000000000000000000000000000000000000000000000000000000000000000000000000000000000000000000000000000000000000000000000000000000000000000000000000000000000000000000000000000000000000000000000000000000000000000000000000000000000008302000080887fffffffffffffff808203b642a056e81f171bcc55a6ff8345e692c0f86e5b48e01b996cadc001622fb5e363b421880102030405060708c0c0",
        "lastblockhash" : "0xa23935a12e70a37be1d016fd6db9d35ca08d940771d087569bb7330e5a6427f9",
        "network" : "Byzantium",
        "postState" : {
            "0x095e7baea6a6c7c4c2dfeb977efac326af552d87" : {
                "balance" : "0x771cef12",
                "code" : "0x7f000000000000000000000000945304eb96065b2a98b57a48a06ae28d285a71b5317fffffffffffffffffffffffffffffffffffffffffffffffffffffffffffffffff7f0000000000000000000000010000000000000000000000000000000000000000417ffffffffffffffffffffffffffffffffffffffffffffffffffffffffffffffffe43147256a3130255",
                "nonce" : "0x00",
                "storage" : {
                }
            },
            "0x945304eb96065b2a98b57a48a06ae28d285a71b5" : {
                "balance" : "0x29a2241af62c6e90",
                "code" : "0x6000355415600957005b60203560003555",
                "nonce" : "0x00",
                "storage" : {
                }
            },
            "0xa94f5374fce5edbc8e2a8697c15331677e6ebf0b" : {
                "balance" : "0x0de0b6b33046a28c",
                "code" : "",
                "nonce" : "0x01",
                "storage" : {
                }
            }
        },
        "pre" : {
            "0x095e7baea6a6c7c4c2dfeb977efac326af552d87" : {
                "balance" : "0x00",
                "code" : "0x7f000000000000000000000000945304eb96065b2a98b57a48a06ae28d285a71b5317fffffffffffffffffffffffffffffffffffffffffffffffffffffffffffffffff7f0000000000000000000000010000000000000000000000000000000000000000417ffffffffffffffffffffffffffffffffffffffffffffffffffffffffffffffffe43147256a3130255",
                "nonce" : "0x00",
                "storage" : {
                }
            },
            "0x945304eb96065b2a98b57a48a06ae28d285a71b5" : {
                "balance" : "0x2e",
                "code" : "0x6000355415600957005b60203560003555",
                "nonce" : "0x00",
                "storage" : {
                }
            },
            "0xa94f5374fce5edbc8e2a8697c15331677e6ebf0b" : {
                "balance" : "0x0de0b6b3a7640000",
                "code" : "",
                "nonce" : "0x00",
                "storage" : {
                }
            }
        }
    },
    "randomStatetest45_d0g0v0_EIP150" : {
        "_info" : {
            "comment" : "",
            "filledwith" : "cpp-1.3.0+commit.4e101574.Linux.g++",
            "lllcversion" : "Version: 0.4.18-develop.2017.10.11+commit.81f9f86c.Linux.g++",
            "source" : "src/BlockchainTestsFiller/GeneralStateTests/stRandom/randomStatetest45_d0g0v0Filler.json",
            "sourceHash" : "d6afd1da534f3714e6dc899009ca5fd29a04ac3fe66d1b95d837e91eee9c5c21"
        },
        "blocks" : [
            {
                "blockHeader" : {
                    "bloom" : "0x00000000000000000000000000000000000000000000000000000000000000000000000000000000000000000000000000000000000000000000000000000000000000000000000000000000000000000000000000000000000000000000000000000000000000000000000000000000000000000000000000000000000000000000000000000000000000000000000000000000000000000000000000000000000000000000000000000000000000000000000000000000000000000000000000000000000000000000000000000000000000000000000000000000000000000000000000000000000000000000000000000000000000000000000000000000",
                    "coinbase" : "0x945304eb96065b2a98b57a48a06ae28d285a71b5",
                    "difficulty" : "0x020000",
                    "extraData" : "",
                    "gasLimit" : "0x7fffffffffffffff",
                    "gasUsed" : "0x6e62",
                    "hash" : "0xf1b854eac0c0606bd4d2f04d6f535fa8b5592fd752aeeade45c9f67110ae71d0",
                    "mixHash" : "0xa985926da1674d0e67033f389099dcdee868556cfc13c88ba51950a8590c037c",
                    "nonce" : "0xbba5ae388368ee0e",
                    "number" : "0x01",
                    "parentHash" : "0xaf5a23929bef0af514e14240a30686afd118d708b4c17d5ec5994e1a598f1f88",
                    "receiptTrie" : "0xe5d571770c63f70efbec8f07002359241dbed5aca225b09e33a3f5f6d2a73333",
                    "stateRoot" : "0x5ec5838558df845a8b63140a30391b4333d58ade2ae3fbacf1bbbc723ded37b0",
                    "timestamp" : "0x03e8",
                    "transactionsTrie" : "0x40b5216fe669545e914733b611ee79a5abda026e8851b6c9d147428496e7172d",
                    "uncleHash" : "0x1dcc4de8dec75d7aab85b567b6ccd41ad312451b948a7413f0a142fd40d49347"
                },
                "rlp" : "0xf902f7f901fca0af5a23929bef0af514e14240a30686afd118d708b4c17d5ec5994e1a598f1f88a01dcc4de8dec75d7aab85b567b6ccd41ad312451b948a7413f0a142fd40d4934794945304eb96065b2a98b57a48a06ae28d285a71b5a05ec5838558df845a8b63140a30391b4333d58ade2ae3fbacf1bbbc723ded37b0a040b5216fe669545e914733b611ee79a5abda026e8851b6c9d147428496e7172da0e5d571770c63f70efbec8f07002359241dbed5aca225b09e33a3f5f6d2a73333b90100000000000000000000000000000000000000000000000000000000000000000000000000000000000000000000000000000000000000000000000000000000000000000000000000000000000000000000000000000000000000000000000000000000000000000000000000000000000000000000000000000000000000000000000000000000000000000000000000000000000000000000000000000000000000000000000000000000000000000000000000000000000000000000000000000000000000000000000000000000000000000000000000000000000000000000000000000000000000000000000000000000000000000000000000000000008302000001887fffffffffffffff826e628203e880a0a985926da1674d0e67033f389099dcdee868556cfc13c88ba51950a8590c037c88bba5ae388368ee0ef8f5f8f380018413f6aeec94095e7baea6a6c7c4c2dfeb977efac326af552d8784771cef12b88d7f000000000000000000000000945304eb96065b2a98b57a48a06ae28d285a71b5317fffffffffffffffffffffffffffffffffffffffffffffffffffffffffffffffff7f0000000000000000000000010000000000000000000000000000000000000000417ffffffffffffffffffffffffffffffffffffffffffffffffffffffffffffffffe43147256a313021ba004ce2aad89a64a21136745df3fecd9469664d1fbcb83c4e7df92a4b852f042b6a04c0bc5451130611030ce672249fedd33c00c82489f1e1c1103909f9f5b548b9bc0",
                "transactions" : [
                    {
                        "data" : "0x7f000000000000000000000000945304eb96065b2a98b57a48a06ae28d285a71b5317fffffffffffffffffffffffffffffffffffffffffffffffffffffffffffffffff7f0000000000000000000000010000000000000000000000000000000000000000417ffffffffffffffffffffffffffffffffffffffffffffffffffffffffffffffffe43147256a31302",
                        "gasLimit" : "0x13f6aeec",
                        "gasPrice" : "0x01",
                        "nonce" : "0x00",
                        "r" : "0x04ce2aad89a64a21136745df3fecd9469664d1fbcb83c4e7df92a4b852f042b6",
                        "s" : "0x4c0bc5451130611030ce672249fedd33c00c82489f1e1c1103909f9f5b548b9b",
                        "to" : "0x095e7baea6a6c7c4c2dfeb977efac326af552d87",
                        "v" : "0x1b",
                        "value" : "0x771cef12"
                    }
                ],
                "uncleHeaders" : [
                ]
            }
        ],
        "genesisBlockHeader" : {
            "bloom" : "0x00000000000000000000000000000000000000000000000000000000000000000000000000000000000000000000000000000000000000000000000000000000000000000000000000000000000000000000000000000000000000000000000000000000000000000000000000000000000000000000000000000000000000000000000000000000000000000000000000000000000000000000000000000000000000000000000000000000000000000000000000000000000000000000000000000000000000000000000000000000000000000000000000000000000000000000000000000000000000000000000000000000000000000000000000000000",
            "coinbase" : "0x945304eb96065b2a98b57a48a06ae28d285a71b5",
            "difficulty" : "0x020000",
            "extraData" : "0x42",
            "gasLimit" : "0x7fffffffffffffff",
            "gasUsed" : "0x00",
            "hash" : "0xaf5a23929bef0af514e14240a30686afd118d708b4c17d5ec5994e1a598f1f88",
            "mixHash" : "0x56e81f171bcc55a6ff8345e692c0f86e5b48e01b996cadc001622fb5e363b421",
            "nonce" : "0x0102030405060708",
            "number" : "0x00",
            "parentHash" : "0x0000000000000000000000000000000000000000000000000000000000000000",
            "receiptTrie" : "0x56e81f171bcc55a6ff8345e692c0f86e5b48e01b996cadc001622fb5e363b421",
            "stateRoot" : "0x86f3ec7de2693955efdaa32bbaf5fac8b27d5b676ade2edee84ef31e0e7489cf",
            "timestamp" : "0x03b6",
            "transactionsTrie" : "0x56e81f171bcc55a6ff8345e692c0f86e5b48e01b996cadc001622fb5e363b421",
            "uncleHash" : "0x1dcc4de8dec75d7aab85b567b6ccd41ad312451b948a7413f0a142fd40d49347"
        },
        "genesisRLP" : "0xf901fff901faa00000000000000000000000000000000000000000000000000000000000000000a01dcc4de8dec75d7aab85b567b6ccd41ad312451b948a7413f0a142fd40d4934794945304eb96065b2a98b57a48a06ae28d285a71b5a086f3ec7de2693955efdaa32bbaf5fac8b27d5b676ade2edee84ef31e0e7489cfa056e81f171bcc55a6ff8345e692c0f86e5b48e01b996cadc001622fb5e363b421a056e81f171bcc55a6ff8345e692c0f86e5b48e01b996cadc001622fb5e363b421b90100000000000000000000000000000000000000000000000000000000000000000000000000000000000000000000000000000000000000000000000000000000000000000000000000000000000000000000000000000000000000000000000000000000000000000000000000000000000000000000000000000000000000000000000000000000000000000000000000000000000000000000000000000000000000000000000000000000000000000000000000000000000000000000000000000000000000000000000000000000000000000000000000000000000000000000000000000000000000000000000000000000000000000000000000000000008302000080887fffffffffffffff808203b642a056e81f171bcc55a6ff8345e692c0f86e5b48e01b996cadc001622fb5e363b421880102030405060708c0c0",
        "lastblockhash" : "0xf1b854eac0c0606bd4d2f04d6f535fa8b5592fd752aeeade45c9f67110ae71d0",
        "network" : "EIP150",
        "postState" : {
            "0x095e7baea6a6c7c4c2dfeb977efac326af552d87" : {
                "balance" : "0x771cef12",
                "code" : "0x7f000000000000000000000000945304eb96065b2a98b57a48a06ae28d285a71b5317fffffffffffffffffffffffffffffffffffffffffffffffffffffffffffffffff7f0000000000000000000000010000000000000000000000000000000000000000417ffffffffffffffffffffffffffffffffffffffffffffffffffffffffffffffffe43147256a3130255",
                "nonce" : "0x00",
                "storage" : {
                }
            },
            "0x945304eb96065b2a98b57a48a06ae28d285a71b5" : {
                "balance" : "0x4563918244f46e90",
                "code" : "0x6000355415600957005b60203560003555",
                "nonce" : "0x00",
                "storage" : {
                }
            },
            "0xa94f5374fce5edbc8e2a8697c15331677e6ebf0b" : {
                "balance" : "0x0de0b6b33046a28c",
                "code" : "",
                "nonce" : "0x01",
                "storage" : {
                }
            }
        },
        "pre" : {
            "0x095e7baea6a6c7c4c2dfeb977efac326af552d87" : {
                "balance" : "0x00",
                "code" : "0x7f000000000000000000000000945304eb96065b2a98b57a48a06ae28d285a71b5317fffffffffffffffffffffffffffffffffffffffffffffffffffffffffffffffff7f0000000000000000000000010000000000000000000000000000000000000000417ffffffffffffffffffffffffffffffffffffffffffffffffffffffffffffffffe43147256a3130255",
                "nonce" : "0x00",
                "storage" : {
                }
            },
            "0x945304eb96065b2a98b57a48a06ae28d285a71b5" : {
                "balance" : "0x2e",
                "code" : "0x6000355415600957005b60203560003555",
                "nonce" : "0x00",
                "storage" : {
                }
            },
            "0xa94f5374fce5edbc8e2a8697c15331677e6ebf0b" : {
                "balance" : "0x0de0b6b3a7640000",
                "code" : "",
                "nonce" : "0x00",
                "storage" : {
                }
            }
        }
    },
    "randomStatetest45_d0g0v0_EIP158" : {
        "_info" : {
            "comment" : "",
            "filledwith" : "cpp-1.3.0+commit.4e101574.Linux.g++",
            "lllcversion" : "Version: 0.4.18-develop.2017.10.11+commit.81f9f86c.Linux.g++",
            "source" : "src/BlockchainTestsFiller/GeneralStateTests/stRandom/randomStatetest45_d0g0v0Filler.json",
            "sourceHash" : "d6afd1da534f3714e6dc899009ca5fd29a04ac3fe66d1b95d837e91eee9c5c21"
        },
        "blocks" : [
            {
                "blockHeader" : {
                    "bloom" : "0x00000000000000000000000000000000000000000000000000000000000000000000000000000000000000000000000000000000000000000000000000000000000000000000000000000000000000000000000000000000000000000000000000000000000000000000000000000000000000000000000000000000000000000000000000000000000000000000000000000000000000000000000000000000000000000000000000000000000000000000000000000000000000000000000000000000000000000000000000000000000000000000000000000000000000000000000000000000000000000000000000000000000000000000000000000000",
                    "coinbase" : "0x945304eb96065b2a98b57a48a06ae28d285a71b5",
                    "difficulty" : "0x020000",
                    "extraData" : "",
                    "gasLimit" : "0x7fffffffffffffff",
                    "gasUsed" : "0x6e62",
                    "hash" : "0x3616b94698a3b59fe94f7baf7dd199200f389d3783b6156b133bfbed7e6cd549",
                    "mixHash" : "0xd6f95140118d8ce9fc2444fb00b6b9e7f9e8663a483dd3ed33ef40e99d6e2bf8",
                    "nonce" : "0x787f617dd1308e51",
                    "number" : "0x01",
                    "parentHash" : "0xaf5a23929bef0af514e14240a30686afd118d708b4c17d5ec5994e1a598f1f88",
                    "receiptTrie" : "0xe5d571770c63f70efbec8f07002359241dbed5aca225b09e33a3f5f6d2a73333",
                    "stateRoot" : "0x5ec5838558df845a8b63140a30391b4333d58ade2ae3fbacf1bbbc723ded37b0",
                    "timestamp" : "0x03e8",
                    "transactionsTrie" : "0x40b5216fe669545e914733b611ee79a5abda026e8851b6c9d147428496e7172d",
                    "uncleHash" : "0x1dcc4de8dec75d7aab85b567b6ccd41ad312451b948a7413f0a142fd40d49347"
                },
                "rlp" : "0xf902f7f901fca0af5a23929bef0af514e14240a30686afd118d708b4c17d5ec5994e1a598f1f88a01dcc4de8dec75d7aab85b567b6ccd41ad312451b948a7413f0a142fd40d4934794945304eb96065b2a98b57a48a06ae28d285a71b5a05ec5838558df845a8b63140a30391b4333d58ade2ae3fbacf1bbbc723ded37b0a040b5216fe669545e914733b611ee79a5abda026e8851b6c9d147428496e7172da0e5d571770c63f70efbec8f07002359241dbed5aca225b09e33a3f5f6d2a73333b90100000000000000000000000000000000000000000000000000000000000000000000000000000000000000000000000000000000000000000000000000000000000000000000000000000000000000000000000000000000000000000000000000000000000000000000000000000000000000000000000000000000000000000000000000000000000000000000000000000000000000000000000000000000000000000000000000000000000000000000000000000000000000000000000000000000000000000000000000000000000000000000000000000000000000000000000000000000000000000000000000000000000000000000000000000000008302000001887fffffffffffffff826e628203e880a0d6f95140118d8ce9fc2444fb00b6b9e7f9e8663a483dd3ed33ef40e99d6e2bf888787f617dd1308e51f8f5f8f380018413f6aeec94095e7baea6a6c7c4c2dfeb977efac326af552d8784771cef12b88d7f000000000000000000000000945304eb96065b2a98b57a48a06ae28d285a71b5317fffffffffffffffffffffffffffffffffffffffffffffffffffffffffffffffff7f0000000000000000000000010000000000000000000000000000000000000000417ffffffffffffffffffffffffffffffffffffffffffffffffffffffffffffffffe43147256a313021ba004ce2aad89a64a21136745df3fecd9469664d1fbcb83c4e7df92a4b852f042b6a04c0bc5451130611030ce672249fedd33c00c82489f1e1c1103909f9f5b548b9bc0",
                "transactions" : [
                    {
                        "data" : "0x7f000000000000000000000000945304eb96065b2a98b57a48a06ae28d285a71b5317fffffffffffffffffffffffffffffffffffffffffffffffffffffffffffffffff7f0000000000000000000000010000000000000000000000000000000000000000417ffffffffffffffffffffffffffffffffffffffffffffffffffffffffffffffffe43147256a31302",
                        "gasLimit" : "0x13f6aeec",
                        "gasPrice" : "0x01",
                        "nonce" : "0x00",
                        "r" : "0x04ce2aad89a64a21136745df3fecd9469664d1fbcb83c4e7df92a4b852f042b6",
                        "s" : "0x4c0bc5451130611030ce672249fedd33c00c82489f1e1c1103909f9f5b548b9b",
                        "to" : "0x095e7baea6a6c7c4c2dfeb977efac326af552d87",
                        "v" : "0x1b",
                        "value" : "0x771cef12"
                    }
                ],
                "uncleHeaders" : [
                ]
            }
        ],
        "genesisBlockHeader" : {
            "bloom" : "0x00000000000000000000000000000000000000000000000000000000000000000000000000000000000000000000000000000000000000000000000000000000000000000000000000000000000000000000000000000000000000000000000000000000000000000000000000000000000000000000000000000000000000000000000000000000000000000000000000000000000000000000000000000000000000000000000000000000000000000000000000000000000000000000000000000000000000000000000000000000000000000000000000000000000000000000000000000000000000000000000000000000000000000000000000000000",
            "coinbase" : "0x945304eb96065b2a98b57a48a06ae28d285a71b5",
            "difficulty" : "0x020000",
            "extraData" : "0x42",
            "gasLimit" : "0x7fffffffffffffff",
            "gasUsed" : "0x00",
            "hash" : "0xaf5a23929bef0af514e14240a30686afd118d708b4c17d5ec5994e1a598f1f88",
            "mixHash" : "0x56e81f171bcc55a6ff8345e692c0f86e5b48e01b996cadc001622fb5e363b421",
            "nonce" : "0x0102030405060708",
            "number" : "0x00",
            "parentHash" : "0x0000000000000000000000000000000000000000000000000000000000000000",
            "receiptTrie" : "0x56e81f171bcc55a6ff8345e692c0f86e5b48e01b996cadc001622fb5e363b421",
            "stateRoot" : "0x86f3ec7de2693955efdaa32bbaf5fac8b27d5b676ade2edee84ef31e0e7489cf",
            "timestamp" : "0x03b6",
            "transactionsTrie" : "0x56e81f171bcc55a6ff8345e692c0f86e5b48e01b996cadc001622fb5e363b421",
            "uncleHash" : "0x1dcc4de8dec75d7aab85b567b6ccd41ad312451b948a7413f0a142fd40d49347"
        },
        "genesisRLP" : "0xf901fff901faa00000000000000000000000000000000000000000000000000000000000000000a01dcc4de8dec75d7aab85b567b6ccd41ad312451b948a7413f0a142fd40d4934794945304eb96065b2a98b57a48a06ae28d285a71b5a086f3ec7de2693955efdaa32bbaf5fac8b27d5b676ade2edee84ef31e0e7489cfa056e81f171bcc55a6ff8345e692c0f86e5b48e01b996cadc001622fb5e363b421a056e81f171bcc55a6ff8345e692c0f86e5b48e01b996cadc001622fb5e363b421b90100000000000000000000000000000000000000000000000000000000000000000000000000000000000000000000000000000000000000000000000000000000000000000000000000000000000000000000000000000000000000000000000000000000000000000000000000000000000000000000000000000000000000000000000000000000000000000000000000000000000000000000000000000000000000000000000000000000000000000000000000000000000000000000000000000000000000000000000000000000000000000000000000000000000000000000000000000000000000000000000000000000000000000000000000000000008302000080887fffffffffffffff808203b642a056e81f171bcc55a6ff8345e692c0f86e5b48e01b996cadc001622fb5e363b421880102030405060708c0c0",
        "lastblockhash" : "0x3616b94698a3b59fe94f7baf7dd199200f389d3783b6156b133bfbed7e6cd549",
        "network" : "EIP158",
        "postState" : {
            "0x095e7baea6a6c7c4c2dfeb977efac326af552d87" : {
                "balance" : "0x771cef12",
                "code" : "0x7f000000000000000000000000945304eb96065b2a98b57a48a06ae28d285a71b5317fffffffffffffffffffffffffffffffffffffffffffffffffffffffffffffffff7f0000000000000000000000010000000000000000000000000000000000000000417ffffffffffffffffffffffffffffffffffffffffffffffffffffffffffffffffe43147256a3130255",
                "nonce" : "0x00",
                "storage" : {
                }
            },
            "0x945304eb96065b2a98b57a48a06ae28d285a71b5" : {
                "balance" : "0x4563918244f46e90",
                "code" : "0x6000355415600957005b60203560003555",
                "nonce" : "0x00",
                "storage" : {
                }
            },
            "0xa94f5374fce5edbc8e2a8697c15331677e6ebf0b" : {
                "balance" : "0x0de0b6b33046a28c",
                "code" : "",
                "nonce" : "0x01",
                "storage" : {
                }
            }
        },
        "pre" : {
            "0x095e7baea6a6c7c4c2dfeb977efac326af552d87" : {
                "balance" : "0x00",
                "code" : "0x7f000000000000000000000000945304eb96065b2a98b57a48a06ae28d285a71b5317fffffffffffffffffffffffffffffffffffffffffffffffffffffffffffffffff7f0000000000000000000000010000000000000000000000000000000000000000417ffffffffffffffffffffffffffffffffffffffffffffffffffffffffffffffffe43147256a3130255",
                "nonce" : "0x00",
                "storage" : {
                }
            },
            "0x945304eb96065b2a98b57a48a06ae28d285a71b5" : {
                "balance" : "0x2e",
                "code" : "0x6000355415600957005b60203560003555",
                "nonce" : "0x00",
                "storage" : {
                }
            },
            "0xa94f5374fce5edbc8e2a8697c15331677e6ebf0b" : {
                "balance" : "0x0de0b6b3a7640000",
                "code" : "",
                "nonce" : "0x00",
                "storage" : {
                }
            }
        }
    },
    "randomStatetest45_d0g0v0_Frontier" : {
        "_info" : {
            "comment" : "",
            "filledwith" : "cpp-1.3.0+commit.4e101574.Linux.g++",
            "lllcversion" : "Version: 0.4.18-develop.2017.10.11+commit.81f9f86c.Linux.g++",
            "source" : "src/BlockchainTestsFiller/GeneralStateTests/stRandom/randomStatetest45_d0g0v0Filler.json",
            "sourceHash" : "d6afd1da534f3714e6dc899009ca5fd29a04ac3fe66d1b95d837e91eee9c5c21"
        },
        "blocks" : [
            {
                "blockHeader" : {
                    "bloom" : "0x00000000000000000000000000000000000000000000000000000000000000000000000000000000000000000000000000000000000000000000000000000000000000000000000000000000000000000000000000000000000000000000000000000000000000000000000000000000000000000000000000000000000000000000000000000000000000000000000000000000000000000000000000000000000000000000000000000000000000000000000000000000000000000000000000000000000000000000000000000000000000000000000000000000000000000000000000000000000000000000000000000000000000000000000000000000",
                    "coinbase" : "0x945304eb96065b2a98b57a48a06ae28d285a71b5",
                    "difficulty" : "0x020000",
                    "extraData" : "",
                    "gasLimit" : "0x7fffffffffffffff",
                    "gasUsed" : "0x6ce6",
                    "hash" : "0x3bcc167cba25c9556bf64171827394b6782e978baa165aa61159685f2b00767c",
                    "mixHash" : "0x6cbf566cabe822c87365daa32dbe7e81cdd36f67ab0f61db8c509a4674c78cec",
                    "nonce" : "0xc76e70a7a0cc9ca3",
                    "number" : "0x01",
                    "parentHash" : "0xaf5a23929bef0af514e14240a30686afd118d708b4c17d5ec5994e1a598f1f88",
                    "receiptTrie" : "0xcf8a4a457057b5b9de079806c546d9d296d7c6cbf1856e0e42cc323da02d2ed3",
                    "stateRoot" : "0xd5b23b7de02312513107c036d46aa7be4c44e73d02b5abb6665b0ce669e96a10",
                    "timestamp" : "0x03e8",
                    "transactionsTrie" : "0x40b5216fe669545e914733b611ee79a5abda026e8851b6c9d147428496e7172d",
                    "uncleHash" : "0x1dcc4de8dec75d7aab85b567b6ccd41ad312451b948a7413f0a142fd40d49347"
                },
                "rlp" : "0xf902f7f901fca0af5a23929bef0af514e14240a30686afd118d708b4c17d5ec5994e1a598f1f88a01dcc4de8dec75d7aab85b567b6ccd41ad312451b948a7413f0a142fd40d4934794945304eb96065b2a98b57a48a06ae28d285a71b5a0d5b23b7de02312513107c036d46aa7be4c44e73d02b5abb6665b0ce669e96a10a040b5216fe669545e914733b611ee79a5abda026e8851b6c9d147428496e7172da0cf8a4a457057b5b9de079806c546d9d296d7c6cbf1856e0e42cc323da02d2ed3b90100000000000000000000000000000000000000000000000000000000000000000000000000000000000000000000000000000000000000000000000000000000000000000000000000000000000000000000000000000000000000000000000000000000000000000000000000000000000000000000000000000000000000000000000000000000000000000000000000000000000000000000000000000000000000000000000000000000000000000000000000000000000000000000000000000000000000000000000000000000000000000000000000000000000000000000000000000000000000000000000000000000000000000000000000000000008302000001887fffffffffffffff826ce68203e880a06cbf566cabe822c87365daa32dbe7e81cdd36f67ab0f61db8c509a4674c78cec88c76e70a7a0cc9ca3f8f5f8f380018413f6aeec94095e7baea6a6c7c4c2dfeb977efac326af552d8784771cef12b88d7f000000000000000000000000945304eb96065b2a98b57a48a06ae28d285a71b5317fffffffffffffffffffffffffffffffffffffffffffffffffffffffffffffffff7f0000000000000000000000010000000000000000000000000000000000000000417ffffffffffffffffffffffffffffffffffffffffffffffffffffffffffffffffe43147256a313021ba004ce2aad89a64a21136745df3fecd9469664d1fbcb83c4e7df92a4b852f042b6a04c0bc5451130611030ce672249fedd33c00c82489f1e1c1103909f9f5b548b9bc0",
                "transactions" : [
                    {
                        "data" : "0x7f000000000000000000000000945304eb96065b2a98b57a48a06ae28d285a71b5317fffffffffffffffffffffffffffffffffffffffffffffffffffffffffffffffff7f0000000000000000000000010000000000000000000000000000000000000000417ffffffffffffffffffffffffffffffffffffffffffffffffffffffffffffffffe43147256a31302",
                        "gasLimit" : "0x13f6aeec",
                        "gasPrice" : "0x01",
                        "nonce" : "0x00",
                        "r" : "0x04ce2aad89a64a21136745df3fecd9469664d1fbcb83c4e7df92a4b852f042b6",
                        "s" : "0x4c0bc5451130611030ce672249fedd33c00c82489f1e1c1103909f9f5b548b9b",
                        "to" : "0x095e7baea6a6c7c4c2dfeb977efac326af552d87",
                        "v" : "0x1b",
                        "value" : "0x771cef12"
                    }
                ],
                "uncleHeaders" : [
                ]
            }
        ],
        "genesisBlockHeader" : {
            "bloom" : "0x00000000000000000000000000000000000000000000000000000000000000000000000000000000000000000000000000000000000000000000000000000000000000000000000000000000000000000000000000000000000000000000000000000000000000000000000000000000000000000000000000000000000000000000000000000000000000000000000000000000000000000000000000000000000000000000000000000000000000000000000000000000000000000000000000000000000000000000000000000000000000000000000000000000000000000000000000000000000000000000000000000000000000000000000000000000",
            "coinbase" : "0x945304eb96065b2a98b57a48a06ae28d285a71b5",
            "difficulty" : "0x020000",
            "extraData" : "0x42",
            "gasLimit" : "0x7fffffffffffffff",
            "gasUsed" : "0x00",
            "hash" : "0xaf5a23929bef0af514e14240a30686afd118d708b4c17d5ec5994e1a598f1f88",
            "mixHash" : "0x56e81f171bcc55a6ff8345e692c0f86e5b48e01b996cadc001622fb5e363b421",
            "nonce" : "0x0102030405060708",
            "number" : "0x00",
            "parentHash" : "0x0000000000000000000000000000000000000000000000000000000000000000",
            "receiptTrie" : "0x56e81f171bcc55a6ff8345e692c0f86e5b48e01b996cadc001622fb5e363b421",
            "stateRoot" : "0x86f3ec7de2693955efdaa32bbaf5fac8b27d5b676ade2edee84ef31e0e7489cf",
            "timestamp" : "0x03b6",
            "transactionsTrie" : "0x56e81f171bcc55a6ff8345e692c0f86e5b48e01b996cadc001622fb5e363b421",
            "uncleHash" : "0x1dcc4de8dec75d7aab85b567b6ccd41ad312451b948a7413f0a142fd40d49347"
        },
        "genesisRLP" : "0xf901fff901faa00000000000000000000000000000000000000000000000000000000000000000a01dcc4de8dec75d7aab85b567b6ccd41ad312451b948a7413f0a142fd40d4934794945304eb96065b2a98b57a48a06ae28d285a71b5a086f3ec7de2693955efdaa32bbaf5fac8b27d5b676ade2edee84ef31e0e7489cfa056e81f171bcc55a6ff8345e692c0f86e5b48e01b996cadc001622fb5e363b421a056e81f171bcc55a6ff8345e692c0f86e5b48e01b996cadc001622fb5e363b421b90100000000000000000000000000000000000000000000000000000000000000000000000000000000000000000000000000000000000000000000000000000000000000000000000000000000000000000000000000000000000000000000000000000000000000000000000000000000000000000000000000000000000000000000000000000000000000000000000000000000000000000000000000000000000000000000000000000000000000000000000000000000000000000000000000000000000000000000000000000000000000000000000000000000000000000000000000000000000000000000000000000000000000000000000000000000008302000080887fffffffffffffff808203b642a056e81f171bcc55a6ff8345e692c0f86e5b48e01b996cadc001622fb5e363b421880102030405060708c0c0",
        "lastblockhash" : "0x3bcc167cba25c9556bf64171827394b6782e978baa165aa61159685f2b00767c",
        "network" : "Frontier",
        "postState" : {
            "0x095e7baea6a6c7c4c2dfeb977efac326af552d87" : {
                "balance" : "0x771cef12",
                "code" : "0x7f000000000000000000000000945304eb96065b2a98b57a48a06ae28d285a71b5317fffffffffffffffffffffffffffffffffffffffffffffffffffffffffffffffff7f0000000000000000000000010000000000000000000000000000000000000000417ffffffffffffffffffffffffffffffffffffffffffffffffffffffffffffffffe43147256a3130255",
                "nonce" : "0x00",
                "storage" : {
                }
            },
            "0x945304eb96065b2a98b57a48a06ae28d285a71b5" : {
                "balance" : "0x4563918244f46d14",
                "code" : "0x6000355415600957005b60203560003555",
                "nonce" : "0x00",
                "storage" : {
                }
            },
            "0xa94f5374fce5edbc8e2a8697c15331677e6ebf0b" : {
                "balance" : "0x0de0b6b33046a408",
                "code" : "",
                "nonce" : "0x01",
                "storage" : {
                }
            }
        },
        "pre" : {
            "0x095e7baea6a6c7c4c2dfeb977efac326af552d87" : {
                "balance" : "0x00",
                "code" : "0x7f000000000000000000000000945304eb96065b2a98b57a48a06ae28d285a71b5317fffffffffffffffffffffffffffffffffffffffffffffffffffffffffffffffff7f0000000000000000000000010000000000000000000000000000000000000000417ffffffffffffffffffffffffffffffffffffffffffffffffffffffffffffffffe43147256a3130255",
                "nonce" : "0x00",
                "storage" : {
                }
            },
            "0x945304eb96065b2a98b57a48a06ae28d285a71b5" : {
                "balance" : "0x2e",
                "code" : "0x6000355415600957005b60203560003555",
                "nonce" : "0x00",
                "storage" : {
                }
            },
            "0xa94f5374fce5edbc8e2a8697c15331677e6ebf0b" : {
                "balance" : "0x0de0b6b3a7640000",
                "code" : "",
                "nonce" : "0x00",
                "storage" : {
                }
            }
        }
    },
    "randomStatetest45_d0g0v0_Homestead" : {
        "_info" : {
            "comment" : "",
            "filledwith" : "cpp-1.3.0+commit.4e101574.Linux.g++",
            "lllcversion" : "Version: 0.4.18-develop.2017.10.11+commit.81f9f86c.Linux.g++",
            "source" : "src/BlockchainTestsFiller/GeneralStateTests/stRandom/randomStatetest45_d0g0v0Filler.json",
            "sourceHash" : "d6afd1da534f3714e6dc899009ca5fd29a04ac3fe66d1b95d837e91eee9c5c21"
        },
        "blocks" : [
            {
                "blockHeader" : {
                    "bloom" : "0x00000000000000000000000000000000000000000000000000000000000000000000000000000000000000000000000000000000000000000000000000000000000000000000000000000000000000000000000000000000000000000000000000000000000000000000000000000000000000000000000000000000000000000000000000000000000000000000000000000000000000000000000000000000000000000000000000000000000000000000000000000000000000000000000000000000000000000000000000000000000000000000000000000000000000000000000000000000000000000000000000000000000000000000000000000000",
                    "coinbase" : "0x945304eb96065b2a98b57a48a06ae28d285a71b5",
                    "difficulty" : "0x020000",
                    "extraData" : "",
                    "gasLimit" : "0x7fffffffffffffff",
                    "gasUsed" : "0x6ce6",
                    "hash" : "0x902bae66bf988dd094c57fc4eb70280239c13e7ccb890d00606b76160f5c3e58",
                    "mixHash" : "0x523e22efb43c02a8a6e43ab2c8e923ce54e5b7e97634b20641e745ce51f05e13",
                    "nonce" : "0x9348c8debd91c679",
                    "number" : "0x01",
                    "parentHash" : "0xaf5a23929bef0af514e14240a30686afd118d708b4c17d5ec5994e1a598f1f88",
                    "receiptTrie" : "0xcf8a4a457057b5b9de079806c546d9d296d7c6cbf1856e0e42cc323da02d2ed3",
                    "stateRoot" : "0xd5b23b7de02312513107c036d46aa7be4c44e73d02b5abb6665b0ce669e96a10",
                    "timestamp" : "0x03e8",
                    "transactionsTrie" : "0x40b5216fe669545e914733b611ee79a5abda026e8851b6c9d147428496e7172d",
                    "uncleHash" : "0x1dcc4de8dec75d7aab85b567b6ccd41ad312451b948a7413f0a142fd40d49347"
                },
                "rlp" : "0xf902f7f901fca0af5a23929bef0af514e14240a30686afd118d708b4c17d5ec5994e1a598f1f88a01dcc4de8dec75d7aab85b567b6ccd41ad312451b948a7413f0a142fd40d4934794945304eb96065b2a98b57a48a06ae28d285a71b5a0d5b23b7de02312513107c036d46aa7be4c44e73d02b5abb6665b0ce669e96a10a040b5216fe669545e914733b611ee79a5abda026e8851b6c9d147428496e7172da0cf8a4a457057b5b9de079806c546d9d296d7c6cbf1856e0e42cc323da02d2ed3b90100000000000000000000000000000000000000000000000000000000000000000000000000000000000000000000000000000000000000000000000000000000000000000000000000000000000000000000000000000000000000000000000000000000000000000000000000000000000000000000000000000000000000000000000000000000000000000000000000000000000000000000000000000000000000000000000000000000000000000000000000000000000000000000000000000000000000000000000000000000000000000000000000000000000000000000000000000000000000000000000000000000000000000000000000000000008302000001887fffffffffffffff826ce68203e880a0523e22efb43c02a8a6e43ab2c8e923ce54e5b7e97634b20641e745ce51f05e13889348c8debd91c679f8f5f8f380018413f6aeec94095e7baea6a6c7c4c2dfeb977efac326af552d8784771cef12b88d7f000000000000000000000000945304eb96065b2a98b57a48a06ae28d285a71b5317fffffffffffffffffffffffffffffffffffffffffffffffffffffffffffffffff7f0000000000000000000000010000000000000000000000000000000000000000417ffffffffffffffffffffffffffffffffffffffffffffffffffffffffffffffffe43147256a313021ba004ce2aad89a64a21136745df3fecd9469664d1fbcb83c4e7df92a4b852f042b6a04c0bc5451130611030ce672249fedd33c00c82489f1e1c1103909f9f5b548b9bc0",
                "transactions" : [
                    {
                        "data" : "0x7f000000000000000000000000945304eb96065b2a98b57a48a06ae28d285a71b5317fffffffffffffffffffffffffffffffffffffffffffffffffffffffffffffffff7f0000000000000000000000010000000000000000000000000000000000000000417ffffffffffffffffffffffffffffffffffffffffffffffffffffffffffffffffe43147256a31302",
                        "gasLimit" : "0x13f6aeec",
                        "gasPrice" : "0x01",
                        "nonce" : "0x00",
                        "r" : "0x04ce2aad89a64a21136745df3fecd9469664d1fbcb83c4e7df92a4b852f042b6",
                        "s" : "0x4c0bc5451130611030ce672249fedd33c00c82489f1e1c1103909f9f5b548b9b",
                        "to" : "0x095e7baea6a6c7c4c2dfeb977efac326af552d87",
                        "v" : "0x1b",
                        "value" : "0x771cef12"
                    }
                ],
                "uncleHeaders" : [
                ]
            }
        ],
        "genesisBlockHeader" : {
            "bloom" : "0x00000000000000000000000000000000000000000000000000000000000000000000000000000000000000000000000000000000000000000000000000000000000000000000000000000000000000000000000000000000000000000000000000000000000000000000000000000000000000000000000000000000000000000000000000000000000000000000000000000000000000000000000000000000000000000000000000000000000000000000000000000000000000000000000000000000000000000000000000000000000000000000000000000000000000000000000000000000000000000000000000000000000000000000000000000000",
            "coinbase" : "0x945304eb96065b2a98b57a48a06ae28d285a71b5",
            "difficulty" : "0x020000",
            "extraData" : "0x42",
            "gasLimit" : "0x7fffffffffffffff",
            "gasUsed" : "0x00",
            "hash" : "0xaf5a23929bef0af514e14240a30686afd118d708b4c17d5ec5994e1a598f1f88",
            "mixHash" : "0x56e81f171bcc55a6ff8345e692c0f86e5b48e01b996cadc001622fb5e363b421",
            "nonce" : "0x0102030405060708",
            "number" : "0x00",
            "parentHash" : "0x0000000000000000000000000000000000000000000000000000000000000000",
            "receiptTrie" : "0x56e81f171bcc55a6ff8345e692c0f86e5b48e01b996cadc001622fb5e363b421",
            "stateRoot" : "0x86f3ec7de2693955efdaa32bbaf5fac8b27d5b676ade2edee84ef31e0e7489cf",
            "timestamp" : "0x03b6",
            "transactionsTrie" : "0x56e81f171bcc55a6ff8345e692c0f86e5b48e01b996cadc001622fb5e363b421",
            "uncleHash" : "0x1dcc4de8dec75d7aab85b567b6ccd41ad312451b948a7413f0a142fd40d49347"
        },
        "genesisRLP" : "0xf901fff901faa00000000000000000000000000000000000000000000000000000000000000000a01dcc4de8dec75d7aab85b567b6ccd41ad312451b948a7413f0a142fd40d4934794945304eb96065b2a98b57a48a06ae28d285a71b5a086f3ec7de2693955efdaa32bbaf5fac8b27d5b676ade2edee84ef31e0e7489cfa056e81f171bcc55a6ff8345e692c0f86e5b48e01b996cadc001622fb5e363b421a056e81f171bcc55a6ff8345e692c0f86e5b48e01b996cadc001622fb5e363b421b90100000000000000000000000000000000000000000000000000000000000000000000000000000000000000000000000000000000000000000000000000000000000000000000000000000000000000000000000000000000000000000000000000000000000000000000000000000000000000000000000000000000000000000000000000000000000000000000000000000000000000000000000000000000000000000000000000000000000000000000000000000000000000000000000000000000000000000000000000000000000000000000000000000000000000000000000000000000000000000000000000000000000000000000000000000000008302000080887fffffffffffffff808203b642a056e81f171bcc55a6ff8345e692c0f86e5b48e01b996cadc001622fb5e363b421880102030405060708c0c0",
        "lastblockhash" : "0x902bae66bf988dd094c57fc4eb70280239c13e7ccb890d00606b76160f5c3e58",
        "network" : "Homestead",
        "postState" : {
            "0x095e7baea6a6c7c4c2dfeb977efac326af552d87" : {
                "balance" : "0x771cef12",
                "code" : "0x7f000000000000000000000000945304eb96065b2a98b57a48a06ae28d285a71b5317fffffffffffffffffffffffffffffffffffffffffffffffffffffffffffffffff7f0000000000000000000000010000000000000000000000000000000000000000417ffffffffffffffffffffffffffffffffffffffffffffffffffffffffffffffffe43147256a3130255",
                "nonce" : "0x00",
                "storage" : {
                }
            },
            "0x945304eb96065b2a98b57a48a06ae28d285a71b5" : {
                "balance" : "0x4563918244f46d14",
                "code" : "0x6000355415600957005b60203560003555",
                "nonce" : "0x00",
                "storage" : {
                }
            },
            "0xa94f5374fce5edbc8e2a8697c15331677e6ebf0b" : {
                "balance" : "0x0de0b6b33046a408",
                "code" : "",
                "nonce" : "0x01",
                "storage" : {
                }
            }
        },
        "pre" : {
            "0x095e7baea6a6c7c4c2dfeb977efac326af552d87" : {
                "balance" : "0x00",
                "code" : "0x7f000000000000000000000000945304eb96065b2a98b57a48a06ae28d285a71b5317fffffffffffffffffffffffffffffffffffffffffffffffffffffffffffffffff7f0000000000000000000000010000000000000000000000000000000000000000417ffffffffffffffffffffffffffffffffffffffffffffffffffffffffffffffffe43147256a3130255",
                "nonce" : "0x00",
                "storage" : {
                }
            },
            "0x945304eb96065b2a98b57a48a06ae28d285a71b5" : {
                "balance" : "0x2e",
                "code" : "0x6000355415600957005b60203560003555",
                "nonce" : "0x00",
                "storage" : {
                }
            },
            "0xa94f5374fce5edbc8e2a8697c15331677e6ebf0b" : {
                "balance" : "0x0de0b6b3a7640000",
                "code" : "",
                "nonce" : "0x00",
                "storage" : {
                }
            }
        }
    }
}