{
    "randomStatetest136_d0g0v0_Byzantium" : {
        "_info" : {
            "comment" : "",
            "filledwith" : "cpp-1.3.0+commit.4e101574.Linux.g++",
            "lllcversion" : "Version: 0.4.18-develop.2017.10.11+commit.81f9f86c.Linux.g++",
            "source" : "src/BlockchainTestsFiller/GeneralStateTests/stRandom/randomStatetest136_d0g0v0Filler.json",
            "sourceHash" : "a4b05378fc2d4fb35d9ab3e3588d89fb8321b199db6a8af5a6f13a385c4353c8"
        },
        "blocks" : [
            {
                "blockHeader" : {
                    "bloom" : "0x00000000000000001000000000000000000000000000000000000000000000000000000000000000000000000000000000000000000000000000000000000000000000000000000000000000000000000000000000000000800000000000000000000000000000000000000000000000000000000000000000000000000000000002000000000000000000000000000000000000000000000000000000000000000000000000000004000000000000000008000000000000000000000000000000000000000000000010000000000000000000000040000000000000000000000000000040000000000000000000000000000000000000400000000000000000",
                    "coinbase" : "0x945304eb96065b2a98b57a48a06ae28d285a71b5",
                    "difficulty" : "0x020000",
                    "extraData" : "",
                    "gasLimit" : "0x7fffffffffffffff",
                    "gasUsed" : "0xc251",
                    "hash" : "0xc72598dc5ae105da2691286a6b5f652948a038d0f4373867426a3e37552d959d",
                    "mixHash" : "0x2834db0d57b83bc12a9a199f2d5b34b593f015192491c6d81379cee21460b522",
                    "nonce" : "0x1bc79e92e43f664b",
                    "number" : "0x01",
                    "parentHash" : "0xd5855ed8f7e3401e8707bf827664fec58d4383065e3b054b6e6f2f36fa61823a",
                    "receiptTrie" : "0x034ccd3cc2157b7368a894fadb62f593daf1ff44da15904c9452825c5919bbbc",
                    "stateRoot" : "0x5bfebd82c06e7032968ce82338e649a0a3a54bb327f05c257034412f91166f3e",
                    "timestamp" : "0x03e8",
                    "transactionsTrie" : "0x2e483c07d65a44180a691cf0864a8d7fd6d7155e91a60c6a77f010419c18c18b",
                    "uncleHash" : "0x1dcc4de8dec75d7aab85b567b6ccd41ad312451b948a7413f0a142fd40d49347"
                },
                "rlp" : "0xf90303f901fca0d5855ed8f7e3401e8707bf827664fec58d4383065e3b054b6e6f2f36fa61823aa01dcc4de8dec75d7aab85b567b6ccd41ad312451b948a7413f0a142fd40d4934794945304eb96065b2a98b57a48a06ae28d285a71b5a05bfebd82c06e7032968ce82338e649a0a3a54bb327f05c257034412f91166f3ea02e483c07d65a44180a691cf0864a8d7fd6d7155e91a60c6a77f010419c18c18ba0034ccd3cc2157b7368a894fadb62f593daf1ff44da15904c9452825c5919bbbcb90100000000000000000010000000000000000000000000000000000000000000000000000000000000000000000000000000000000000000000000000000000000000000000000000000000000000000000000000000000000008000000000000000000000000000000000000000000000000000000000000000000000000000000000020000000000000000000000000000000000000000000000000000000000000000000000000000040000000000000000080000000000000000000000000000000000000000000000100000000000000000000000400000000000000000000000000000400000000000000000000000000000000000004000000000000000008302000001887fffffffffffffff82c2518203e880a02834db0d57b83bc12a9a199f2d5b34b593f015192491c6d81379cee21460b522881bc79e92e43f664bf90100f8fe8001847f504af894095e7baea6a6c7c4c2dfeb977efac326af552d878435126cddb8987f000000000000000000000000945304eb96065b2a98b57a48a06ae28d285a71b57ffffffffffffffffffffffffffffffffffffffffffffffffffffffffffffffffe7ffffffffffffffffffffffffffffffffffffffffffffffffffffffffffffffffe45437f0000000000000000000000000000000000000000000000000000000000000001a26f5a6e9570705019164232776c738c8d871ba07799b9e0afe03b5797002aefc29140d05d6f0e911c0128330ae25733ef8b63d3a06f65bac28371733698f76a6cb7bca344a487b46cbdf0eede214f45af03cfd2cbc0",
                "transactions" : [
                    {
                        "data" : "0x7f000000000000000000000000945304eb96065b2a98b57a48a06ae28d285a71b57ffffffffffffffffffffffffffffffffffffffffffffffffffffffffffffffffe7ffffffffffffffffffffffffffffffffffffffffffffffffffffffffffffffffe45437f0000000000000000000000000000000000000000000000000000000000000001a26f5a6e9570705019164232776c738c8d87",
                        "gasLimit" : "0x7f504af8",
                        "gasPrice" : "0x01",
                        "nonce" : "0x00",
                        "r" : "0x7799b9e0afe03b5797002aefc29140d05d6f0e911c0128330ae25733ef8b63d3",
                        "s" : "0x6f65bac28371733698f76a6cb7bca344a487b46cbdf0eede214f45af03cfd2cb",
                        "to" : "0x095e7baea6a6c7c4c2dfeb977efac326af552d87",
                        "v" : "0x1b",
                        "value" : "0x35126cdd"
                    }
                ],
                "uncleHeaders" : [
                ]
            }
        ],
        "genesisBlockHeader" : {
            "bloom" : "0x00000000000000000000000000000000000000000000000000000000000000000000000000000000000000000000000000000000000000000000000000000000000000000000000000000000000000000000000000000000000000000000000000000000000000000000000000000000000000000000000000000000000000000000000000000000000000000000000000000000000000000000000000000000000000000000000000000000000000000000000000000000000000000000000000000000000000000000000000000000000000000000000000000000000000000000000000000000000000000000000000000000000000000000000000000000",
            "coinbase" : "0x945304eb96065b2a98b57a48a06ae28d285a71b5",
            "difficulty" : "0x020000",
            "extraData" : "0x42",
            "gasLimit" : "0x7fffffffffffffff",
            "gasUsed" : "0x00",
            "hash" : "0xd5855ed8f7e3401e8707bf827664fec58d4383065e3b054b6e6f2f36fa61823a",
            "mixHash" : "0x56e81f171bcc55a6ff8345e692c0f86e5b48e01b996cadc001622fb5e363b421",
            "nonce" : "0x0102030405060708",
            "number" : "0x00",
            "parentHash" : "0x0000000000000000000000000000000000000000000000000000000000000000",
            "receiptTrie" : "0x56e81f171bcc55a6ff8345e692c0f86e5b48e01b996cadc001622fb5e363b421",
            "stateRoot" : "0xf8d634ea250104845e4d0641491cf99eb833df829762b76513fef17f3b2f7551",
            "timestamp" : "0x03b6",
            "transactionsTrie" : "0x56e81f171bcc55a6ff8345e692c0f86e5b48e01b996cadc001622fb5e363b421",
            "uncleHash" : "0x1dcc4de8dec75d7aab85b567b6ccd41ad312451b948a7413f0a142fd40d49347"
        },
        "genesisRLP" : "0xf901fff901faa00000000000000000000000000000000000000000000000000000000000000000a01dcc4de8dec75d7aab85b567b6ccd41ad312451b948a7413f0a142fd40d4934794945304eb96065b2a98b57a48a06ae28d285a71b5a0f8d634ea250104845e4d0641491cf99eb833df829762b76513fef17f3b2f7551a056e81f171bcc55a6ff8345e692c0f86e5b48e01b996cadc001622fb5e363b421a056e81f171bcc55a6ff8345e692c0f86e5b48e01b996cadc001622fb5e363b421b90100000000000000000000000000000000000000000000000000000000000000000000000000000000000000000000000000000000000000000000000000000000000000000000000000000000000000000000000000000000000000000000000000000000000000000000000000000000000000000000000000000000000000000000000000000000000000000000000000000000000000000000000000000000000000000000000000000000000000000000000000000000000000000000000000000000000000000000000000000000000000000000000000000000000000000000000000000000000000000000000000000000000000000000000000000000008302000080887fffffffffffffff808203b642a056e81f171bcc55a6ff8345e692c0f86e5b48e01b996cadc001622fb5e363b421880102030405060708c0c0",
        "lastblockhash" : "0xc72598dc5ae105da2691286a6b5f652948a038d0f4373867426a3e37552d959d",
        "network" : "Byzantium",
        "postState" : {
            "0x095e7baea6a6c7c4c2dfeb977efac326af552d87" : {
                "balance" : "0x35126cdd",
                "code" : "0x7f000000000000000000000000945304eb96065b2a98b57a48a06ae28d285a71b57ffffffffffffffffffffffffffffffffffffffffffffffffffffffffffffffffe7ffffffffffffffffffffffffffffffffffffffffffffffffffffffffffffffffe45437f0000000000000000000000000000000000000000000000000000000000000001a26f5a6e9570705019164232776c738c8d8760005155",
                "nonce" : "0x00",
                "storage" : {
                    "0x00" : "0x5a6e9570705019164232776c738c8d87"
                }
            },
            "0x945304eb96065b2a98b57a48a06ae28d285a71b5" : {
                "balance" : "0x29a2241af62cc27f",
                "code" : "0x6000355415600957005b60203560003555",
                "nonce" : "0x00",
                "storage" : {
                }
            },
            "0xa94f5374fce5edbc8e2a8697c15331677e6ebf0b" : {
                "balance" : "0x0de0b6b37250d0d2",
                "code" : "",
                "nonce" : "0x01",
                "storage" : {
                }
            }
        },
        "pre" : {
            "0x095e7baea6a6c7c4c2dfeb977efac326af552d87" : {
                "balance" : "0x00",
                "code" : "0x7f000000000000000000000000945304eb96065b2a98b57a48a06ae28d285a71b57ffffffffffffffffffffffffffffffffffffffffffffffffffffffffffffffffe7ffffffffffffffffffffffffffffffffffffffffffffffffffffffffffffffffe45437f0000000000000000000000000000000000000000000000000000000000000001a26f5a6e9570705019164232776c738c8d8760005155",
                "nonce" : "0x00",
                "storage" : {
                }
            },
            "0x945304eb96065b2a98b57a48a06ae28d285a71b5" : {
                "balance" : "0x2e",
                "code" : "0x6000355415600957005b60203560003555",
                "nonce" : "0x00",
                "storage" : {
                }
            },
            "0xa94f5374fce5edbc8e2a8697c15331677e6ebf0b" : {
                "balance" : "0x0de0b6b3a7640000",
                "code" : "",
                "nonce" : "0x00",
                "storage" : {
                }
            }
        }
    },
    "randomStatetest136_d0g0v0_EIP150" : {
        "_info" : {
            "comment" : "",
            "filledwith" : "cpp-1.3.0+commit.4e101574.Linux.g++",
            "lllcversion" : "Version: 0.4.18-develop.2017.10.11+commit.81f9f86c.Linux.g++",
            "source" : "src/BlockchainTestsFiller/GeneralStateTests/stRandom/randomStatetest136_d0g0v0Filler.json",
            "sourceHash" : "a4b05378fc2d4fb35d9ab3e3588d89fb8321b199db6a8af5a6f13a385c4353c8"
        },
        "blocks" : [
            {
                "blockHeader" : {
                    "bloom" : "0x00000000000000001000000000000000000000000000000000000000000000000000000000000000000000000000000000000000000000000000000000000000000000000000000000000000000000000000000000000000800000000000000000000000000000000000000000000000000000000000000000000000000000000002000000000000000000000000000000000000000000000000000000000000000000000000000004000000000000000008000000000000000000000000000000000000000000000010000000000000000000000040000000000000000000000000000040000000000000000000000000000000000000400000000000000000",
                    "coinbase" : "0x945304eb96065b2a98b57a48a06ae28d285a71b5",
                    "difficulty" : "0x020000",
                    "extraData" : "",
                    "gasLimit" : "0x7fffffffffffffff",
                    "gasUsed" : "0xc251",
                    "hash" : "0xf8d7766571e7a1f5645af5b68325739340720bdab2e770aa2722b459dcfbc98b",
                    "mixHash" : "0x826aba429254e44da1fcf53acd17e0ab88966bc4e55377d0c56c91c81f8d17f8",
                    "nonce" : "0x610fb1ab68857e15",
                    "number" : "0x01",
                    "parentHash" : "0xd5855ed8f7e3401e8707bf827664fec58d4383065e3b054b6e6f2f36fa61823a",
                    "receiptTrie" : "0xeb731980f5c2db5d354dd77284736a61d2c4dddb61c00bd4c1f6c98ab1593bc6",
                    "stateRoot" : "0x215c0ad6b6155805b3f5edd047b43aea8991bc0d4265e0732673d27738a2e2a2",
                    "timestamp" : "0x03e8",
                    "transactionsTrie" : "0x2e483c07d65a44180a691cf0864a8d7fd6d7155e91a60c6a77f010419c18c18b",
                    "uncleHash" : "0x1dcc4de8dec75d7aab85b567b6ccd41ad312451b948a7413f0a142fd40d49347"
                },
                "rlp" : "0xf90303f901fca0d5855ed8f7e3401e8707bf827664fec58d4383065e3b054b6e6f2f36fa61823aa01dcc4de8dec75d7aab85b567b6ccd41ad312451b948a7413f0a142fd40d4934794945304eb96065b2a98b57a48a06ae28d285a71b5a0215c0ad6b6155805b3f5edd047b43aea8991bc0d4265e0732673d27738a2e2a2a02e483c07d65a44180a691cf0864a8d7fd6d7155e91a60c6a77f010419c18c18ba0eb731980f5c2db5d354dd77284736a61d2c4dddb61c00bd4c1f6c98ab1593bc6b90100000000000000000010000000000000000000000000000000000000000000000000000000000000000000000000000000000000000000000000000000000000000000000000000000000000000000000000000000000000008000000000000000000000000000000000000000000000000000000000000000000000000000000000020000000000000000000000000000000000000000000000000000000000000000000000000000040000000000000000080000000000000000000000000000000000000000000000100000000000000000000000400000000000000000000000000000400000000000000000000000000000000000004000000000000000008302000001887fffffffffffffff82c2518203e880a0826aba429254e44da1fcf53acd17e0ab88966bc4e55377d0c56c91c81f8d17f888610fb1ab68857e15f90100f8fe8001847f504af894095e7baea6a6c7c4c2dfeb977efac326af552d878435126cddb8987f000000000000000000000000945304eb96065b2a98b57a48a06ae28d285a71b57ffffffffffffffffffffffffffffffffffffffffffffffffffffffffffffffffe7ffffffffffffffffffffffffffffffffffffffffffffffffffffffffffffffffe45437f0000000000000000000000000000000000000000000000000000000000000001a26f5a6e9570705019164232776c738c8d871ba07799b9e0afe03b5797002aefc29140d05d6f0e911c0128330ae25733ef8b63d3a06f65bac28371733698f76a6cb7bca344a487b46cbdf0eede214f45af03cfd2cbc0",
                "transactions" : [
                    {
                        "data" : "0x7f000000000000000000000000945304eb96065b2a98b57a48a06ae28d285a71b57ffffffffffffffffffffffffffffffffffffffffffffffffffffffffffffffffe7ffffffffffffffffffffffffffffffffffffffffffffffffffffffffffffffffe45437f0000000000000000000000000000000000000000000000000000000000000001a26f5a6e9570705019164232776c738c8d87",
                        "gasLimit" : "0x7f504af8",
                        "gasPrice" : "0x01",
                        "nonce" : "0x00",
                        "r" : "0x7799b9e0afe03b5797002aefc29140d05d6f0e911c0128330ae25733ef8b63d3",
                        "s" : "0x6f65bac28371733698f76a6cb7bca344a487b46cbdf0eede214f45af03cfd2cb",
                        "to" : "0x095e7baea6a6c7c4c2dfeb977efac326af552d87",
                        "v" : "0x1b",
                        "value" : "0x35126cdd"
                    }
                ],
                "uncleHeaders" : [
                ]
            }
        ],
        "genesisBlockHeader" : {
            "bloom" : "0x00000000000000000000000000000000000000000000000000000000000000000000000000000000000000000000000000000000000000000000000000000000000000000000000000000000000000000000000000000000000000000000000000000000000000000000000000000000000000000000000000000000000000000000000000000000000000000000000000000000000000000000000000000000000000000000000000000000000000000000000000000000000000000000000000000000000000000000000000000000000000000000000000000000000000000000000000000000000000000000000000000000000000000000000000000000",
            "coinbase" : "0x945304eb96065b2a98b57a48a06ae28d285a71b5",
            "difficulty" : "0x020000",
            "extraData" : "0x42",
            "gasLimit" : "0x7fffffffffffffff",
            "gasUsed" : "0x00",
            "hash" : "0xd5855ed8f7e3401e8707bf827664fec58d4383065e3b054b6e6f2f36fa61823a",
            "mixHash" : "0x56e81f171bcc55a6ff8345e692c0f86e5b48e01b996cadc001622fb5e363b421",
            "nonce" : "0x0102030405060708",
            "number" : "0x00",
            "parentHash" : "0x0000000000000000000000000000000000000000000000000000000000000000",
            "receiptTrie" : "0x56e81f171bcc55a6ff8345e692c0f86e5b48e01b996cadc001622fb5e363b421",
            "stateRoot" : "0xf8d634ea250104845e4d0641491cf99eb833df829762b76513fef17f3b2f7551",
            "timestamp" : "0x03b6",
            "transactionsTrie" : "0x56e81f171bcc55a6ff8345e692c0f86e5b48e01b996cadc001622fb5e363b421",
            "uncleHash" : "0x1dcc4de8dec75d7aab85b567b6ccd41ad312451b948a7413f0a142fd40d49347"
        },
        "genesisRLP" : "0xf901fff901faa00000000000000000000000000000000000000000000000000000000000000000a01dcc4de8dec75d7aab85b567b6ccd41ad312451b948a7413f0a142fd40d4934794945304eb96065b2a98b57a48a06ae28d285a71b5a0f8d634ea250104845e4d0641491cf99eb833df829762b76513fef17f3b2f7551a056e81f171bcc55a6ff8345e692c0f86e5b48e01b996cadc001622fb5e363b421a056e81f171bcc55a6ff8345e692c0f86e5b48e01b996cadc001622fb5e363b421b90100000000000000000000000000000000000000000000000000000000000000000000000000000000000000000000000000000000000000000000000000000000000000000000000000000000000000000000000000000000000000000000000000000000000000000000000000000000000000000000000000000000000000000000000000000000000000000000000000000000000000000000000000000000000000000000000000000000000000000000000000000000000000000000000000000000000000000000000000000000000000000000000000000000000000000000000000000000000000000000000000000000000000000000000000000000008302000080887fffffffffffffff808203b642a056e81f171bcc55a6ff8345e692c0f86e5b48e01b996cadc001622fb5e363b421880102030405060708c0c0",
        "lastblockhash" : "0xf8d7766571e7a1f5645af5b68325739340720bdab2e770aa2722b459dcfbc98b",
        "network" : "EIP150",
        "postState" : {
            "0x095e7baea6a6c7c4c2dfeb977efac326af552d87" : {
                "balance" : "0x35126cdd",
                "code" : "0x7f000000000000000000000000945304eb96065b2a98b57a48a06ae28d285a71b57ffffffffffffffffffffffffffffffffffffffffffffffffffffffffffffffffe7ffffffffffffffffffffffffffffffffffffffffffffffffffffffffffffffffe45437f0000000000000000000000000000000000000000000000000000000000000001a26f5a6e9570705019164232776c738c8d8760005155",
                "nonce" : "0x00",
                "storage" : {
                    "0x00" : "0x5a6e9570705019164232776c738c8d87"
                }
            },
            "0x945304eb96065b2a98b57a48a06ae28d285a71b5" : {
                "balance" : "0x4563918244f4c27f",
                "code" : "0x6000355415600957005b60203560003555",
                "nonce" : "0x00",
                "storage" : {
                }
            },
            "0xa94f5374fce5edbc8e2a8697c15331677e6ebf0b" : {
                "balance" : "0x0de0b6b37250d0d2",
                "code" : "",
                "nonce" : "0x01",
                "storage" : {
                }
            }
        },
        "pre" : {
            "0x095e7baea6a6c7c4c2dfeb977efac326af552d87" : {
                "balance" : "0x00",
                "code" : "0x7f000000000000000000000000945304eb96065b2a98b57a48a06ae28d285a71b57ffffffffffffffffffffffffffffffffffffffffffffffffffffffffffffffffe7ffffffffffffffffffffffffffffffffffffffffffffffffffffffffffffffffe45437f0000000000000000000000000000000000000000000000000000000000000001a26f5a6e9570705019164232776c738c8d8760005155",
                "nonce" : "0x00",
                "storage" : {
                }
            },
            "0x945304eb96065b2a98b57a48a06ae28d285a71b5" : {
                "balance" : "0x2e",
                "code" : "0x6000355415600957005b60203560003555",
                "nonce" : "0x00",
                "storage" : {
                }
            },
            "0xa94f5374fce5edbc8e2a8697c15331677e6ebf0b" : {
                "balance" : "0x0de0b6b3a7640000",
                "code" : "",
                "nonce" : "0x00",
                "storage" : {
                }
            }
        }
    },
    "randomStatetest136_d0g0v0_EIP158" : {
        "_info" : {
            "comment" : "",
            "filledwith" : "cpp-1.3.0+commit.4e101574.Linux.g++",
            "lllcversion" : "Version: 0.4.18-develop.2017.10.11+commit.81f9f86c.Linux.g++",
            "source" : "src/BlockchainTestsFiller/GeneralStateTests/stRandom/randomStatetest136_d0g0v0Filler.json",
            "sourceHash" : "a4b05378fc2d4fb35d9ab3e3588d89fb8321b199db6a8af5a6f13a385c4353c8"
        },
        "blocks" : [
            {
                "blockHeader" : {
                    "bloom" : "0x00000000000000001000000000000000000000000000000000000000000000000000000000000000000000000000000000000000000000000000000000000000000000000000000000000000000000000000000000000000800000000000000000000000000000000000000000000000000000000000000000000000000000000002000000000000000000000000000000000000000000000000000000000000000000000000000004000000000000000008000000000000000000000000000000000000000000000010000000000000000000000040000000000000000000000000000040000000000000000000000000000000000000400000000000000000",
                    "coinbase" : "0x945304eb96065b2a98b57a48a06ae28d285a71b5",
                    "difficulty" : "0x020000",
                    "extraData" : "",
                    "gasLimit" : "0x7fffffffffffffff",
                    "gasUsed" : "0xc251",
                    "hash" : "0xb2aea1233150093682259b04e44b20fe6ec6bb0bee5f6ddbec47a04cc6260f68",
                    "mixHash" : "0xd537b4c7e325060b8a289ab009f797c3116f2542870ae12cd45bb3f2c78d180e",
                    "nonce" : "0x99edfee813fba063",
                    "number" : "0x01",
                    "parentHash" : "0xd5855ed8f7e3401e8707bf827664fec58d4383065e3b054b6e6f2f36fa61823a",
                    "receiptTrie" : "0xeb731980f5c2db5d354dd77284736a61d2c4dddb61c00bd4c1f6c98ab1593bc6",
                    "stateRoot" : "0x215c0ad6b6155805b3f5edd047b43aea8991bc0d4265e0732673d27738a2e2a2",
                    "timestamp" : "0x03e8",
                    "transactionsTrie" : "0x2e483c07d65a44180a691cf0864a8d7fd6d7155e91a60c6a77f010419c18c18b",
                    "uncleHash" : "0x1dcc4de8dec75d7aab85b567b6ccd41ad312451b948a7413f0a142fd40d49347"
                },
                "rlp" : "0xf90303f901fca0d5855ed8f7e3401e8707bf827664fec58d4383065e3b054b6e6f2f36fa61823aa01dcc4de8dec75d7aab85b567b6ccd41ad312451b948a7413f0a142fd40d4934794945304eb96065b2a98b57a48a06ae28d285a71b5a0215c0ad6b6155805b3f5edd047b43aea8991bc0d4265e0732673d27738a2e2a2a02e483c07d65a44180a691cf0864a8d7fd6d7155e91a60c6a77f010419c18c18ba0eb731980f5c2db5d354dd77284736a61d2c4dddb61c00bd4c1f6c98ab1593bc6b90100000000000000000010000000000000000000000000000000000000000000000000000000000000000000000000000000000000000000000000000000000000000000000000000000000000000000000000000000000000008000000000000000000000000000000000000000000000000000000000000000000000000000000000020000000000000000000000000000000000000000000000000000000000000000000000000000040000000000000000080000000000000000000000000000000000000000000000100000000000000000000000400000000000000000000000000000400000000000000000000000000000000000004000000000000000008302000001887fffffffffffffff82c2518203e880a0d537b4c7e325060b8a289ab009f797c3116f2542870ae12cd45bb3f2c78d180e8899edfee813fba063f90100f8fe8001847f504af894095e7baea6a6c7c4c2dfeb977efac326af552d878435126cddb8987f000000000000000000000000945304eb96065b2a98b57a48a06ae28d285a71b57ffffffffffffffffffffffffffffffffffffffffffffffffffffffffffffffffe7ffffffffffffffffffffffffffffffffffffffffffffffffffffffffffffffffe45437f0000000000000000000000000000000000000000000000000000000000000001a26f5a6e9570705019164232776c738c8d871ba07799b9e0afe03b5797002aefc29140d05d6f0e911c0128330ae25733ef8b63d3a06f65bac28371733698f76a6cb7bca344a487b46cbdf0eede214f45af03cfd2cbc0",
                "transactions" : [
                    {
                        "data" : "0x7f000000000000000000000000945304eb96065b2a98b57a48a06ae28d285a71b57ffffffffffffffffffffffffffffffffffffffffffffffffffffffffffffffffe7ffffffffffffffffffffffffffffffffffffffffffffffffffffffffffffffffe45437f0000000000000000000000000000000000000000000000000000000000000001a26f5a6e9570705019164232776c738c8d87",
                        "gasLimit" : "0x7f504af8",
                        "gasPrice" : "0x01",
                        "nonce" : "0x00",
                        "r" : "0x7799b9e0afe03b5797002aefc29140d05d6f0e911c0128330ae25733ef8b63d3",
                        "s" : "0x6f65bac28371733698f76a6cb7bca344a487b46cbdf0eede214f45af03cfd2cb",
                        "to" : "0x095e7baea6a6c7c4c2dfeb977efac326af552d87",
                        "v" : "0x1b",
                        "value" : "0x35126cdd"
                    }
                ],
                "uncleHeaders" : [
                ]
            }
        ],
        "genesisBlockHeader" : {
            "bloom" : "0x00000000000000000000000000000000000000000000000000000000000000000000000000000000000000000000000000000000000000000000000000000000000000000000000000000000000000000000000000000000000000000000000000000000000000000000000000000000000000000000000000000000000000000000000000000000000000000000000000000000000000000000000000000000000000000000000000000000000000000000000000000000000000000000000000000000000000000000000000000000000000000000000000000000000000000000000000000000000000000000000000000000000000000000000000000000",
            "coinbase" : "0x945304eb96065b2a98b57a48a06ae28d285a71b5",
            "difficulty" : "0x020000",
            "extraData" : "0x42",
            "gasLimit" : "0x7fffffffffffffff",
            "gasUsed" : "0x00",
            "hash" : "0xd5855ed8f7e3401e8707bf827664fec58d4383065e3b054b6e6f2f36fa61823a",
            "mixHash" : "0x56e81f171bcc55a6ff8345e692c0f86e5b48e01b996cadc001622fb5e363b421",
            "nonce" : "0x0102030405060708",
            "number" : "0x00",
            "parentHash" : "0x0000000000000000000000000000000000000000000000000000000000000000",
            "receiptTrie" : "0x56e81f171bcc55a6ff8345e692c0f86e5b48e01b996cadc001622fb5e363b421",
            "stateRoot" : "0xf8d634ea250104845e4d0641491cf99eb833df829762b76513fef17f3b2f7551",
            "timestamp" : "0x03b6",
            "transactionsTrie" : "0x56e81f171bcc55a6ff8345e692c0f86e5b48e01b996cadc001622fb5e363b421",
            "uncleHash" : "0x1dcc4de8dec75d7aab85b567b6ccd41ad312451b948a7413f0a142fd40d49347"
        },
        "genesisRLP" : "0xf901fff901faa00000000000000000000000000000000000000000000000000000000000000000a01dcc4de8dec75d7aab85b567b6ccd41ad312451b948a7413f0a142fd40d4934794945304eb96065b2a98b57a48a06ae28d285a71b5a0f8d634ea250104845e4d0641491cf99eb833df829762b76513fef17f3b2f7551a056e81f171bcc55a6ff8345e692c0f86e5b48e01b996cadc001622fb5e363b421a056e81f171bcc55a6ff8345e692c0f86e5b48e01b996cadc001622fb5e363b421b90100000000000000000000000000000000000000000000000000000000000000000000000000000000000000000000000000000000000000000000000000000000000000000000000000000000000000000000000000000000000000000000000000000000000000000000000000000000000000000000000000000000000000000000000000000000000000000000000000000000000000000000000000000000000000000000000000000000000000000000000000000000000000000000000000000000000000000000000000000000000000000000000000000000000000000000000000000000000000000000000000000000000000000000000000000000008302000080887fffffffffffffff808203b642a056e81f171bcc55a6ff8345e692c0f86e5b48e01b996cadc001622fb5e363b421880102030405060708c0c0",
        "lastblockhash" : "0xb2aea1233150093682259b04e44b20fe6ec6bb0bee5f6ddbec47a04cc6260f68",
        "network" : "EIP158",
        "postState" : {
            "0x095e7baea6a6c7c4c2dfeb977efac326af552d87" : {
                "balance" : "0x35126cdd",
                "code" : "0x7f000000000000000000000000945304eb96065b2a98b57a48a06ae28d285a71b57ffffffffffffffffffffffffffffffffffffffffffffffffffffffffffffffffe7ffffffffffffffffffffffffffffffffffffffffffffffffffffffffffffffffe45437f0000000000000000000000000000000000000000000000000000000000000001a26f5a6e9570705019164232776c738c8d8760005155",
                "nonce" : "0x00",
                "storage" : {
                    "0x00" : "0x5a6e9570705019164232776c738c8d87"
                }
            },
            "0x945304eb96065b2a98b57a48a06ae28d285a71b5" : {
                "balance" : "0x4563918244f4c27f",
                "code" : "0x6000355415600957005b60203560003555",
                "nonce" : "0x00",
                "storage" : {
                }
            },
            "0xa94f5374fce5edbc8e2a8697c15331677e6ebf0b" : {
                "balance" : "0x0de0b6b37250d0d2",
                "code" : "",
                "nonce" : "0x01",
                "storage" : {
                }
            }
        },
        "pre" : {
            "0x095e7baea6a6c7c4c2dfeb977efac326af552d87" : {
                "balance" : "0x00",
                "code" : "0x7f000000000000000000000000945304eb96065b2a98b57a48a06ae28d285a71b57ffffffffffffffffffffffffffffffffffffffffffffffffffffffffffffffffe7ffffffffffffffffffffffffffffffffffffffffffffffffffffffffffffffffe45437f0000000000000000000000000000000000000000000000000000000000000001a26f5a6e9570705019164232776c738c8d8760005155",
                "nonce" : "0x00",
                "storage" : {
                }
            },
            "0x945304eb96065b2a98b57a48a06ae28d285a71b5" : {
                "balance" : "0x2e",
                "code" : "0x6000355415600957005b60203560003555",
                "nonce" : "0x00",
                "storage" : {
                }
            },
            "0xa94f5374fce5edbc8e2a8697c15331677e6ebf0b" : {
                "balance" : "0x0de0b6b3a7640000",
                "code" : "",
                "nonce" : "0x00",
                "storage" : {
                }
            }
        }
    },
    "randomStatetest136_d0g0v0_Frontier" : {
        "_info" : {
            "comment" : "",
            "filledwith" : "cpp-1.3.0+commit.4e101574.Linux.g++",
            "lllcversion" : "Version: 0.4.18-develop.2017.10.11+commit.81f9f86c.Linux.g++",
            "source" : "src/BlockchainTestsFiller/GeneralStateTests/stRandom/randomStatetest136_d0g0v0Filler.json",
            "sourceHash" : "a4b05378fc2d4fb35d9ab3e3588d89fb8321b199db6a8af5a6f13a385c4353c8"
        },
        "blocks" : [
            {
                "blockHeader" : {
                    "bloom" : "0x00000000000000001000000000000000000000000000000000000000000000000000000000000000000000000000000000000000000000000000000000000000000000000000000000000000000000000000000000000000800000000000000000000000000000000000000000000000000000000000000000000000000000000002000000000000000000000000000000000000000000000000000000000000000000000000000004000000000000000008000000000000000000000000000000000000000000000010000000000000000000000040000000000000000000000000000040000000000000000000000000000000000000400000000000000000",
                    "coinbase" : "0x945304eb96065b2a98b57a48a06ae28d285a71b5",
                    "difficulty" : "0x020000",
                    "extraData" : "",
                    "gasLimit" : "0x7fffffffffffffff",
                    "gasUsed" : "0xc251",
                    "hash" : "0x6247bf494e481d0d80f2a6ee1875025af5fcd8f54ff6a20798f94f2d152699f8",
                    "mixHash" : "0x7c2397026d518bfadc0c9ae77e356a6bf17f6d0c2580f8f703caad315bdd1cd6",
                    "nonce" : "0x2782c8fda11effc5",
                    "number" : "0x01",
                    "parentHash" : "0xd5855ed8f7e3401e8707bf827664fec58d4383065e3b054b6e6f2f36fa61823a",
                    "receiptTrie" : "0xeb731980f5c2db5d354dd77284736a61d2c4dddb61c00bd4c1f6c98ab1593bc6",
                    "stateRoot" : "0x215c0ad6b6155805b3f5edd047b43aea8991bc0d4265e0732673d27738a2e2a2",
                    "timestamp" : "0x03e8",
                    "transactionsTrie" : "0x2e483c07d65a44180a691cf0864a8d7fd6d7155e91a60c6a77f010419c18c18b",
                    "uncleHash" : "0x1dcc4de8dec75d7aab85b567b6ccd41ad312451b948a7413f0a142fd40d49347"
                },
                "rlp" : "0xf90303f901fca0d5855ed8f7e3401e8707bf827664fec58d4383065e3b054b6e6f2f36fa61823aa01dcc4de8dec75d7aab85b567b6ccd41ad312451b948a7413f0a142fd40d4934794945304eb96065b2a98b57a48a06ae28d285a71b5a0215c0ad6b6155805b3f5edd047b43aea8991bc0d4265e0732673d27738a2e2a2a02e483c07d65a44180a691cf0864a8d7fd6d7155e91a60c6a77f010419c18c18ba0eb731980f5c2db5d354dd77284736a61d2c4dddb61c00bd4c1f6c98ab1593bc6b90100000000000000000010000000000000000000000000000000000000000000000000000000000000000000000000000000000000000000000000000000000000000000000000000000000000000000000000000000000000008000000000000000000000000000000000000000000000000000000000000000000000000000000000020000000000000000000000000000000000000000000000000000000000000000000000000000040000000000000000080000000000000000000000000000000000000000000000100000000000000000000000400000000000000000000000000000400000000000000000000000000000000000004000000000000000008302000001887fffffffffffffff82c2518203e880a07c2397026d518bfadc0c9ae77e356a6bf17f6d0c2580f8f703caad315bdd1cd6882782c8fda11effc5f90100f8fe8001847f504af894095e7baea6a6c7c4c2dfeb977efac326af552d878435126cddb8987f000000000000000000000000945304eb96065b2a98b57a48a06ae28d285a71b57ffffffffffffffffffffffffffffffffffffffffffffffffffffffffffffffffe7ffffffffffffffffffffffffffffffffffffffffffffffffffffffffffffffffe45437f0000000000000000000000000000000000000000000000000000000000000001a26f5a6e9570705019164232776c738c8d871ba07799b9e0afe03b5797002aefc29140d05d6f0e911c0128330ae25733ef8b63d3a06f65bac28371733698f76a6cb7bca344a487b46cbdf0eede214f45af03cfd2cbc0",
                "transactions" : [
                    {
                        "data" : "0x7f000000000000000000000000945304eb96065b2a98b57a48a06ae28d285a71b57ffffffffffffffffffffffffffffffffffffffffffffffffffffffffffffffffe7ffffffffffffffffffffffffffffffffffffffffffffffffffffffffffffffffe45437f0000000000000000000000000000000000000000000000000000000000000001a26f5a6e9570705019164232776c738c8d87",
                        "gasLimit" : "0x7f504af8",
                        "gasPrice" : "0x01",
                        "nonce" : "0x00",
                        "r" : "0x7799b9e0afe03b5797002aefc29140d05d6f0e911c0128330ae25733ef8b63d3",
                        "s" : "0x6f65bac28371733698f76a6cb7bca344a487b46cbdf0eede214f45af03cfd2cb",
                        "to" : "0x095e7baea6a6c7c4c2dfeb977efac326af552d87",
                        "v" : "0x1b",
                        "value" : "0x35126cdd"
                    }
                ],
                "uncleHeaders" : [
                ]
            }
        ],
        "genesisBlockHeader" : {
            "bloom" : "0x00000000000000000000000000000000000000000000000000000000000000000000000000000000000000000000000000000000000000000000000000000000000000000000000000000000000000000000000000000000000000000000000000000000000000000000000000000000000000000000000000000000000000000000000000000000000000000000000000000000000000000000000000000000000000000000000000000000000000000000000000000000000000000000000000000000000000000000000000000000000000000000000000000000000000000000000000000000000000000000000000000000000000000000000000000000",
            "coinbase" : "0x945304eb96065b2a98b57a48a06ae28d285a71b5",
            "difficulty" : "0x020000",
            "extraData" : "0x42",
            "gasLimit" : "0x7fffffffffffffff",
            "gasUsed" : "0x00",
            "hash" : "0xd5855ed8f7e3401e8707bf827664fec58d4383065e3b054b6e6f2f36fa61823a",
            "mixHash" : "0x56e81f171bcc55a6ff8345e692c0f86e5b48e01b996cadc001622fb5e363b421",
            "nonce" : "0x0102030405060708",
            "number" : "0x00",
            "parentHash" : "0x0000000000000000000000000000000000000000000000000000000000000000",
            "receiptTrie" : "0x56e81f171bcc55a6ff8345e692c0f86e5b48e01b996cadc001622fb5e363b421",
            "stateRoot" : "0xf8d634ea250104845e4d0641491cf99eb833df829762b76513fef17f3b2f7551",
            "timestamp" : "0x03b6",
            "transactionsTrie" : "0x56e81f171bcc55a6ff8345e692c0f86e5b48e01b996cadc001622fb5e363b421",
            "uncleHash" : "0x1dcc4de8dec75d7aab85b567b6ccd41ad312451b948a7413f0a142fd40d49347"
        },
        "genesisRLP" : "0xf901fff901faa00000000000000000000000000000000000000000000000000000000000000000a01dcc4de8dec75d7aab85b567b6ccd41ad312451b948a7413f0a142fd40d4934794945304eb96065b2a98b57a48a06ae28d285a71b5a0f8d634ea250104845e4d0641491cf99eb833df829762b76513fef17f3b2f7551a056e81f171bcc55a6ff8345e692c0f86e5b48e01b996cadc001622fb5e363b421a056e81f171bcc55a6ff8345e692c0f86e5b48e01b996cadc001622fb5e363b421b90100000000000000000000000000000000000000000000000000000000000000000000000000000000000000000000000000000000000000000000000000000000000000000000000000000000000000000000000000000000000000000000000000000000000000000000000000000000000000000000000000000000000000000000000000000000000000000000000000000000000000000000000000000000000000000000000000000000000000000000000000000000000000000000000000000000000000000000000000000000000000000000000000000000000000000000000000000000000000000000000000000000000000000000000000000000008302000080887fffffffffffffff808203b642a056e81f171bcc55a6ff8345e692c0f86e5b48e01b996cadc001622fb5e363b421880102030405060708c0c0",
        "lastblockhash" : "0x6247bf494e481d0d80f2a6ee1875025af5fcd8f54ff6a20798f94f2d152699f8",
        "network" : "Frontier",
        "postState" : {
            "0x095e7baea6a6c7c4c2dfeb977efac326af552d87" : {
                "balance" : "0x35126cdd",
                "code" : "0x7f000000000000000000000000945304eb96065b2a98b57a48a06ae28d285a71b57ffffffffffffffffffffffffffffffffffffffffffffffffffffffffffffffffe7ffffffffffffffffffffffffffffffffffffffffffffffffffffffffffffffffe45437f0000000000000000000000000000000000000000000000000000000000000001a26f5a6e9570705019164232776c738c8d8760005155",
                "nonce" : "0x00",
                "storage" : {
                    "0x00" : "0x5a6e9570705019164232776c738c8d87"
                }
            },
            "0x945304eb96065b2a98b57a48a06ae28d285a71b5" : {
                "balance" : "0x4563918244f4c27f",
                "code" : "0x6000355415600957005b60203560003555",
                "nonce" : "0x00",
                "storage" : {
                }
            },
            "0xa94f5374fce5edbc8e2a8697c15331677e6ebf0b" : {
                "balance" : "0x0de0b6b37250d0d2",
                "code" : "",
                "nonce" : "0x01",
                "storage" : {
                }
            }
        },
        "pre" : {
            "0x095e7baea6a6c7c4c2dfeb977efac326af552d87" : {
                "balance" : "0x00",
                "code" : "0x7f000000000000000000000000945304eb96065b2a98b57a48a06ae28d285a71b57ffffffffffffffffffffffffffffffffffffffffffffffffffffffffffffffffe7ffffffffffffffffffffffffffffffffffffffffffffffffffffffffffffffffe45437f0000000000000000000000000000000000000000000000000000000000000001a26f5a6e9570705019164232776c738c8d8760005155",
                "nonce" : "0x00",
                "storage" : {
                }
            },
            "0x945304eb96065b2a98b57a48a06ae28d285a71b5" : {
                "balance" : "0x2e",
                "code" : "0x6000355415600957005b60203560003555",
                "nonce" : "0x00",
                "storage" : {
                }
            },
            "0xa94f5374fce5edbc8e2a8697c15331677e6ebf0b" : {
                "balance" : "0x0de0b6b3a7640000",
                "code" : "",
                "nonce" : "0x00",
                "storage" : {
                }
            }
        }
    },
    "randomStatetest136_d0g0v0_Homestead" : {
        "_info" : {
            "comment" : "",
            "filledwith" : "cpp-1.3.0+commit.4e101574.Linux.g++",
            "lllcversion" : "Version: 0.4.18-develop.2017.10.11+commit.81f9f86c.Linux.g++",
            "source" : "src/BlockchainTestsFiller/GeneralStateTests/stRandom/randomStatetest136_d0g0v0Filler.json",
            "sourceHash" : "a4b05378fc2d4fb35d9ab3e3588d89fb8321b199db6a8af5a6f13a385c4353c8"
        },
        "blocks" : [
            {
                "blockHeader" : {
                    "bloom" : "0x00000000000000001000000000000000000000000000000000000000000000000000000000000000000000000000000000000000000000000000000000000000000000000000000000000000000000000000000000000000800000000000000000000000000000000000000000000000000000000000000000000000000000000002000000000000000000000000000000000000000000000000000000000000000000000000000004000000000000000008000000000000000000000000000000000000000000000010000000000000000000000040000000000000000000000000000040000000000000000000000000000000000000400000000000000000",
                    "coinbase" : "0x945304eb96065b2a98b57a48a06ae28d285a71b5",
                    "difficulty" : "0x020000",
                    "extraData" : "",
                    "gasLimit" : "0x7fffffffffffffff",
                    "gasUsed" : "0xc251",
                    "hash" : "0x2d38f8e59b14a6eb2296c189ed35a653c787ada1049072906ed2156c28e3dae2",
                    "mixHash" : "0xbcc796fa5136f2c4ae1cc457c609d4136a834b5aab2c165e307ccff52e8cb3f7",
                    "nonce" : "0xa6414526365ab9a1",
                    "number" : "0x01",
                    "parentHash" : "0xd5855ed8f7e3401e8707bf827664fec58d4383065e3b054b6e6f2f36fa61823a",
                    "receiptTrie" : "0xeb731980f5c2db5d354dd77284736a61d2c4dddb61c00bd4c1f6c98ab1593bc6",
                    "stateRoot" : "0x215c0ad6b6155805b3f5edd047b43aea8991bc0d4265e0732673d27738a2e2a2",
                    "timestamp" : "0x03e8",
                    "transactionsTrie" : "0x2e483c07d65a44180a691cf0864a8d7fd6d7155e91a60c6a77f010419c18c18b",
                    "uncleHash" : "0x1dcc4de8dec75d7aab85b567b6ccd41ad312451b948a7413f0a142fd40d49347"
                },
                "rlp" : "0xf90303f901fca0d5855ed8f7e3401e8707bf827664fec58d4383065e3b054b6e6f2f36fa61823aa01dcc4de8dec75d7aab85b567b6ccd41ad312451b948a7413f0a142fd40d4934794945304eb96065b2a98b57a48a06ae28d285a71b5a0215c0ad6b6155805b3f5edd047b43aea8991bc0d4265e0732673d27738a2e2a2a02e483c07d65a44180a691cf0864a8d7fd6d7155e91a60c6a77f010419c18c18ba0eb731980f5c2db5d354dd77284736a61d2c4dddb61c00bd4c1f6c98ab1593bc6b90100000000000000000010000000000000000000000000000000000000000000000000000000000000000000000000000000000000000000000000000000000000000000000000000000000000000000000000000000000000008000000000000000000000000000000000000000000000000000000000000000000000000000000000020000000000000000000000000000000000000000000000000000000000000000000000000000040000000000000000080000000000000000000000000000000000000000000000100000000000000000000000400000000000000000000000000000400000000000000000000000000000000000004000000000000000008302000001887fffffffffffffff82c2518203e880a0bcc796fa5136f2c4ae1cc457c609d4136a834b5aab2c165e307ccff52e8cb3f788a6414526365ab9a1f90100f8fe8001847f504af894095e7baea6a6c7c4c2dfeb977efac326af552d878435126cddb8987f000000000000000000000000945304eb96065b2a98b57a48a06ae28d285a71b57ffffffffffffffffffffffffffffffffffffffffffffffffffffffffffffffffe7ffffffffffffffffffffffffffffffffffffffffffffffffffffffffffffffffe45437f0000000000000000000000000000000000000000000000000000000000000001a26f5a6e9570705019164232776c738c8d871ba07799b9e0afe03b5797002aefc29140d05d6f0e911c0128330ae25733ef8b63d3a06f65bac28371733698f76a6cb7bca344a487b46cbdf0eede214f45af03cfd2cbc0",
                "transactions" : [
                    {
                        "data" : "0x7f000000000000000000000000945304eb96065b2a98b57a48a06ae28d285a71b57ffffffffffffffffffffffffffffffffffffffffffffffffffffffffffffffffe7ffffffffffffffffffffffffffffffffffffffffffffffffffffffffffffffffe45437f0000000000000000000000000000000000000000000000000000000000000001a26f5a6e9570705019164232776c738c8d87",
                        "gasLimit" : "0x7f504af8",
                        "gasPrice" : "0x01",
                        "nonce" : "0x00",
                        "r" : "0x7799b9e0afe03b5797002aefc29140d05d6f0e911c0128330ae25733ef8b63d3",
                        "s" : "0x6f65bac28371733698f76a6cb7bca344a487b46cbdf0eede214f45af03cfd2cb",
                        "to" : "0x095e7baea6a6c7c4c2dfeb977efac326af552d87",
                        "v" : "0x1b",
                        "value" : "0x35126cdd"
                    }
                ],
                "uncleHeaders" : [
                ]
            }
        ],
        "genesisBlockHeader" : {
            "bloom" : "0x00000000000000000000000000000000000000000000000000000000000000000000000000000000000000000000000000000000000000000000000000000000000000000000000000000000000000000000000000000000000000000000000000000000000000000000000000000000000000000000000000000000000000000000000000000000000000000000000000000000000000000000000000000000000000000000000000000000000000000000000000000000000000000000000000000000000000000000000000000000000000000000000000000000000000000000000000000000000000000000000000000000000000000000000000000000",
            "coinbase" : "0x945304eb96065b2a98b57a48a06ae28d285a71b5",
            "difficulty" : "0x020000",
            "extraData" : "0x42",
            "gasLimit" : "0x7fffffffffffffff",
            "gasUsed" : "0x00",
            "hash" : "0xd5855ed8f7e3401e8707bf827664fec58d4383065e3b054b6e6f2f36fa61823a",
            "mixHash" : "0x56e81f171bcc55a6ff8345e692c0f86e5b48e01b996cadc001622fb5e363b421",
            "nonce" : "0x0102030405060708",
            "number" : "0x00",
            "parentHash" : "0x0000000000000000000000000000000000000000000000000000000000000000",
            "receiptTrie" : "0x56e81f171bcc55a6ff8345e692c0f86e5b48e01b996cadc001622fb5e363b421",
            "stateRoot" : "0xf8d634ea250104845e4d0641491cf99eb833df829762b76513fef17f3b2f7551",
            "timestamp" : "0x03b6",
            "transactionsTrie" : "0x56e81f171bcc55a6ff8345e692c0f86e5b48e01b996cadc001622fb5e363b421",
            "uncleHash" : "0x1dcc4de8dec75d7aab85b567b6ccd41ad312451b948a7413f0a142fd40d49347"
        },
        "genesisRLP" : "0xf901fff901faa00000000000000000000000000000000000000000000000000000000000000000a01dcc4de8dec75d7aab85b567b6ccd41ad312451b948a7413f0a142fd40d4934794945304eb96065b2a98b57a48a06ae28d285a71b5a0f8d634ea250104845e4d0641491cf99eb833df829762b76513fef17f3b2f7551a056e81f171bcc55a6ff8345e692c0f86e5b48e01b996cadc001622fb5e363b421a056e81f171bcc55a6ff8345e692c0f86e5b48e01b996cadc001622fb5e363b421b90100000000000000000000000000000000000000000000000000000000000000000000000000000000000000000000000000000000000000000000000000000000000000000000000000000000000000000000000000000000000000000000000000000000000000000000000000000000000000000000000000000000000000000000000000000000000000000000000000000000000000000000000000000000000000000000000000000000000000000000000000000000000000000000000000000000000000000000000000000000000000000000000000000000000000000000000000000000000000000000000000000000000000000000000000000000008302000080887fffffffffffffff808203b642a056e81f171bcc55a6ff8345e692c0f86e5b48e01b996cadc001622fb5e363b421880102030405060708c0c0",
        "lastblockhash" : "0x2d38f8e59b14a6eb2296c189ed35a653c787ada1049072906ed2156c28e3dae2",
        "network" : "Homestead",
        "postState" : {
            "0x095e7baea6a6c7c4c2dfeb977efac326af552d87" : {
                "balance" : "0x35126cdd",
                "code" : "0x7f000000000000000000000000945304eb96065b2a98b57a48a06ae28d285a71b57ffffffffffffffffffffffffffffffffffffffffffffffffffffffffffffffffe7ffffffffffffffffffffffffffffffffffffffffffffffffffffffffffffffffe45437f0000000000000000000000000000000000000000000000000000000000000001a26f5a6e9570705019164232776c738c8d8760005155",
                "nonce" : "0x00",
                "storage" : {
                    "0x00" : "0x5a6e9570705019164232776c738c8d87"
                }
            },
            "0x945304eb96065b2a98b57a48a06ae28d285a71b5" : {
                "balance" : "0x4563918244f4c27f",
                "code" : "0x6000355415600957005b60203560003555",
                "nonce" : "0x00",
                "storage" : {
                }
            },
            "0xa94f5374fce5edbc8e2a8697c15331677e6ebf0b" : {
                "balance" : "0x0de0b6b37250d0d2",
                "code" : "",
                "nonce" : "0x01",
                "storage" : {
                }
            }
        },
        "pre" : {
            "0x095e7baea6a6c7c4c2dfeb977efac326af552d87" : {
                "balance" : "0x00",
                "code" : "0x7f000000000000000000000000945304eb96065b2a98b57a48a06ae28d285a71b57ffffffffffffffffffffffffffffffffffffffffffffffffffffffffffffffffe7ffffffffffffffffffffffffffffffffffffffffffffffffffffffffffffffffe45437f0000000000000000000000000000000000000000000000000000000000000001a26f5a6e9570705019164232776c738c8d8760005155",
                "nonce" : "0x00",
                "storage" : {
                }
            },
            "0x945304eb96065b2a98b57a48a06ae28d285a71b5" : {
                "balance" : "0x2e",
                "code" : "0x6000355415600957005b60203560003555",
                "nonce" : "0x00",
                "storage" : {
                }
            },
            "0xa94f5374fce5edbc8e2a8697c15331677e6ebf0b" : {
                "balance" : "0x0de0b6b3a7640000",
                "code" : "",
                "nonce" : "0x00",
                "storage" : {
                }
            }
        }
    }
}