{
    "randomStatetest51_d0g0v0_Byzantium" : {
        "_info" : {
            "comment" : "",
            "filledwith" : "cpp-1.3.0+commit.4e101574.Linux.g++",
            "lllcversion" : "Version: 0.4.18-develop.2017.10.11+commit.81f9f86c.Linux.g++",
            "source" : "src/BlockchainTestsFiller/GeneralStateTests/stRandom/randomStatetest51_d0g0v0Filler.json",
            "sourceHash" : "2b1336881022fedd08d5189d7b57e109a7ec7129b6e9af3e5c4cc60223d618f8"
        },
        "blocks" : [
            {
                "blockHeader" : {
                    "bloom" : "0x00000000000000000000000000000000000000000000000000000000000000000000000000000000000000000000000000000000000000000000000000000000000000000000000000000000000000000000000000000000000000000000000000000000000000000000000000000000000000000000000000000000000000000000000000000000000000000000000000000000000000000000000000000000000000000000000000000000000000000000000000000000000000000000000000000000000000000000000000000000000000000000000000000000000000000000000000000000000000000000000000000000000000000000000000000000",
                    "coinbase" : "0x945304eb96065b2a98b57a48a06ae28d285a71b5",
                    "difficulty" : "0x020000",
                    "extraData" : "",
                    "gasLimit" : "0x7fffffffffffffff",
                    "gasUsed" : "0x6ef38b01",
                    "hash" : "0x73f349c2a4b1c3a835a82c430bd3ac02f929cd1a62ae651e9689bec603d6b91e",
                    "mixHash" : "0x71fda0bbb240e6edd0b21af2c6b9af71ae371db1db358ee311d974a3018f78bb",
                    "nonce" : "0x5ce0917094d90297",
                    "number" : "0x01",
                    "parentHash" : "0x49ab8834c2972a6294a512bab8a6b7f4150def1262dcda67a67750a03e7d6e2e",
                    "receiptTrie" : "0x1b6f302efd18951e93dbc786bd99b4467ad6dd5e29718ce7b46ace815ab06eca",
                    "stateRoot" : "0x9ca51e53e44011245e48244a3cc1d508e969bcc04a98bdabd59633d645d3706a",
                    "timestamp" : "0x03e8",
                    "transactionsTrie" : "0xb944eb65a6b1160fe5ad7ffc5eb319f9259ca2cbd8c823d4c3e481992d442bfe",
                    "uncleHash" : "0x1dcc4de8dec75d7aab85b567b6ccd41ad312451b948a7413f0a142fd40d49347"
                },
                "rlp" : "0xf90319f901fea049ab8834c2972a6294a512bab8a6b7f4150def1262dcda67a67750a03e7d6e2ea01dcc4de8dec75d7aab85b567b6ccd41ad312451b948a7413f0a142fd40d4934794945304eb96065b2a98b57a48a06ae28d285a71b5a09ca51e53e44011245e48244a3cc1d508e969bcc04a98bdabd59633d645d3706aa0b944eb65a6b1160fe5ad7ffc5eb319f9259ca2cbd8c823d4c3e481992d442bfea01b6f302efd18951e93dbc786bd99b4467ad6dd5e29718ce7b46ace815ab06ecab90100000000000000000000000000000000000000000000000000000000000000000000000000000000000000000000000000000000000000000000000000000000000000000000000000000000000000000000000000000000000000000000000000000000000000000000000000000000000000000000000000000000000000000000000000000000000000000000000000000000000000000000000000000000000000000000000000000000000000000000000000000000000000000000000000000000000000000000000000000000000000000000000000000000000000000000000000000000000000000000000000000000000000000000000000000000008302000001887fffffffffffffff846ef38b018203e880a071fda0bbb240e6edd0b21af2c6b9af71ae371db1db358ee311d974a3018f78bb885ce0917094d90297f90114f901118001846ef38b0194095e7baea6a6c7c4c2dfeb977efac326af552d87843f4d7811b8ab7f0000000000000000000000000000000000000000000000000000000000000001757f000000000000000000000000945304eb96065b2a98b57a48a06ae28d285a71b57a7f000000000000000000000000945304eb96065b2a98b57a48a06ae28d285a71b57f000000000000000000000000945304eb96065b2a98b57a48a06ae28d285a71b5447ffffffffffffffffffffffffffffffffffffffffffffffffffffffffffffffffe83189b1ba0e917929967d4c63b7723c29c8fcfb12ef66f2c18aafb660064ae5d62490a0d69a0325386a7659ee74ac19c8db4f5aef96a98586f2e43c9e88c2a1ca84ac65a2c83c0",
                "transactions" : [
                    {
                        "data" : "0x7f0000000000000000000000000000000000000000000000000000000000000001757f000000000000000000000000945304eb96065b2a98b57a48a06ae28d285a71b57a7f000000000000000000000000945304eb96065b2a98b57a48a06ae28d285a71b57f000000000000000000000000945304eb96065b2a98b57a48a06ae28d285a71b5447ffffffffffffffffffffffffffffffffffffffffffffffffffffffffffffffffe83189b",
                        "gasLimit" : "0x6ef38b01",
                        "gasPrice" : "0x01",
                        "nonce" : "0x00",
                        "r" : "0xe917929967d4c63b7723c29c8fcfb12ef66f2c18aafb660064ae5d62490a0d69",
                        "s" : "0x325386a7659ee74ac19c8db4f5aef96a98586f2e43c9e88c2a1ca84ac65a2c83",
                        "to" : "0x095e7baea6a6c7c4c2dfeb977efac326af552d87",
                        "v" : "0x1b",
                        "value" : "0x3f4d7811"
                    }
                ],
                "uncleHeaders" : [
                ]
            }
        ],
        "genesisBlockHeader" : {
            "bloom" : "0x00000000000000000000000000000000000000000000000000000000000000000000000000000000000000000000000000000000000000000000000000000000000000000000000000000000000000000000000000000000000000000000000000000000000000000000000000000000000000000000000000000000000000000000000000000000000000000000000000000000000000000000000000000000000000000000000000000000000000000000000000000000000000000000000000000000000000000000000000000000000000000000000000000000000000000000000000000000000000000000000000000000000000000000000000000000",
            "coinbase" : "0x945304eb96065b2a98b57a48a06ae28d285a71b5",
            "difficulty" : "0x020000",
            "extraData" : "0x42",
            "gasLimit" : "0x7fffffffffffffff",
            "gasUsed" : "0x00",
            "hash" : "0x49ab8834c2972a6294a512bab8a6b7f4150def1262dcda67a67750a03e7d6e2e",
            "mixHash" : "0x56e81f171bcc55a6ff8345e692c0f86e5b48e01b996cadc001622fb5e363b421",
            "nonce" : "0x0102030405060708",
            "number" : "0x00",
            "parentHash" : "0x0000000000000000000000000000000000000000000000000000000000000000",
            "receiptTrie" : "0x56e81f171bcc55a6ff8345e692c0f86e5b48e01b996cadc001622fb5e363b421",
            "stateRoot" : "0x097d7acac811c1955ae383fd7dae6bb2275612b93dc2103ff8cbdd6c3bb51fdd",
            "timestamp" : "0x03b6",
            "transactionsTrie" : "0x56e81f171bcc55a6ff8345e692c0f86e5b48e01b996cadc001622fb5e363b421",
            "uncleHash" : "0x1dcc4de8dec75d7aab85b567b6ccd41ad312451b948a7413f0a142fd40d49347"
        },
        "genesisRLP" : "0xf901fff901faa00000000000000000000000000000000000000000000000000000000000000000a01dcc4de8dec75d7aab85b567b6ccd41ad312451b948a7413f0a142fd40d4934794945304eb96065b2a98b57a48a06ae28d285a71b5a0097d7acac811c1955ae383fd7dae6bb2275612b93dc2103ff8cbdd6c3bb51fdda056e81f171bcc55a6ff8345e692c0f86e5b48e01b996cadc001622fb5e363b421a056e81f171bcc55a6ff8345e692c0f86e5b48e01b996cadc001622fb5e363b421b90100000000000000000000000000000000000000000000000000000000000000000000000000000000000000000000000000000000000000000000000000000000000000000000000000000000000000000000000000000000000000000000000000000000000000000000000000000000000000000000000000000000000000000000000000000000000000000000000000000000000000000000000000000000000000000000000000000000000000000000000000000000000000000000000000000000000000000000000000000000000000000000000000000000000000000000000000000000000000000000000000000000000000000000000000000000008302000080887fffffffffffffff808203b642a056e81f171bcc55a6ff8345e692c0f86e5b48e01b996cadc001622fb5e363b421880102030405060708c0c0",
        "lastblockhash" : "0x73f349c2a4b1c3a835a82c430bd3ac02f929cd1a62ae651e9689bec603d6b91e",
        "network" : "Byzantium",
        "postState" : {
            "0x095e7baea6a6c7c4c2dfeb977efac326af552d87" : {
                "balance" : "0x00",
                "code" : "0x7f0000000000000000000000000000000000000000000000000000000000000001757f000000000000000000000000945304eb96065b2a98b57a48a06ae28d285a71b57a7f000000000000000000000000945304eb96065b2a98b57a48a06ae28d285a71b57f000000000000000000000000945304eb96065b2a98b57a48a06ae28d285a71b5447ffffffffffffffffffffffffffffffffffffffffffffffffffffffffffffffffe83189b60005155",
                "nonce" : "0x00",
                "storage" : {
                }
            },
            "0x945304eb96065b2a98b57a48a06ae28d285a71b5" : {
                "balance" : "0x29a2241b651f8b2f",
                "code" : "0x6000355415600957005b60203560003555",
                "nonce" : "0x00",
                "storage" : {
                }
            },
            "0xa94f5374fce5edbc8e2a8697c15331677e6ebf0b" : {
                "balance" : "0x0de0b6b3387074ff",
                "code" : "",
                "nonce" : "0x01",
                "storage" : {
                }
            }
        },
        "pre" : {
            "0x095e7baea6a6c7c4c2dfeb977efac326af552d87" : {
                "balance" : "0x00",
                "code" : "0x7f0000000000000000000000000000000000000000000000000000000000000001757f000000000000000000000000945304eb96065b2a98b57a48a06ae28d285a71b57a7f000000000000000000000000945304eb96065b2a98b57a48a06ae28d285a71b57f000000000000000000000000945304eb96065b2a98b57a48a06ae28d285a71b5447ffffffffffffffffffffffffffffffffffffffffffffffffffffffffffffffffe83189b60005155",
                "nonce" : "0x00",
                "storage" : {
                }
            },
            "0x945304eb96065b2a98b57a48a06ae28d285a71b5" : {
                "balance" : "0x2e",
                "code" : "0x6000355415600957005b60203560003555",
                "nonce" : "0x00",
                "storage" : {
                }
            },
            "0xa94f5374fce5edbc8e2a8697c15331677e6ebf0b" : {
                "balance" : "0x0de0b6b3a7640000",
                "code" : "",
                "nonce" : "0x00",
                "storage" : {
                }
            }
        }
    },
    "randomStatetest51_d0g0v0_EIP150" : {
        "_info" : {
            "comment" : "",
            "filledwith" : "cpp-1.3.0+commit.4e101574.Linux.g++",
            "lllcversion" : "Version: 0.4.18-develop.2017.10.11+commit.81f9f86c.Linux.g++",
            "source" : "src/BlockchainTestsFiller/GeneralStateTests/stRandom/randomStatetest51_d0g0v0Filler.json",
            "sourceHash" : "2b1336881022fedd08d5189d7b57e109a7ec7129b6e9af3e5c4cc60223d618f8"
        },
        "blocks" : [
            {
                "blockHeader" : {
                    "bloom" : "0x00000000000000000000000000000000000000000000000000000000000000000000000000000000000000000000000000000000000000000000000000000000000000000000000000000000000000000000000000000000000000000000000000000000000000000000000000000000000000000000000000000000000000000000000000000000000000000000000000000000000000000000000000000000000000000000000000000000000000000000000000000000000000000000000000000000000000000000000000000000000000000000000000000000000000000000000000000000000000000000000000000000000000000000000000000000",
                    "coinbase" : "0x945304eb96065b2a98b57a48a06ae28d285a71b5",
                    "difficulty" : "0x020000",
                    "extraData" : "",
                    "gasLimit" : "0x7fffffffffffffff",
                    "gasUsed" : "0x6ef38b01",
                    "hash" : "0x634fdf1b8578316cf83a145dfe1c9d404952eecf44e2e10076b6d13c983ceaf4",
                    "mixHash" : "0x24f93d6910a34ebe569c736eccb6733d7ef62f871a7d7d7e3ad024bdf5144e25",
                    "nonce" : "0x144447af83398bae",
                    "number" : "0x01",
                    "parentHash" : "0x49ab8834c2972a6294a512bab8a6b7f4150def1262dcda67a67750a03e7d6e2e",
                    "receiptTrie" : "0xe88bba0cecc0959e4f8ae26501e2dc87a06fa44e98148e3e048ea0cb0888eeeb",
                    "stateRoot" : "0x9a411ac5a1f6bd57b891397d57b38d0e869469c7d934f2202828d4070e1a88eb",
                    "timestamp" : "0x03e8",
                    "transactionsTrie" : "0xb944eb65a6b1160fe5ad7ffc5eb319f9259ca2cbd8c823d4c3e481992d442bfe",
                    "uncleHash" : "0x1dcc4de8dec75d7aab85b567b6ccd41ad312451b948a7413f0a142fd40d49347"
                },
                "rlp" : "0xf90319f901fea049ab8834c2972a6294a512bab8a6b7f4150def1262dcda67a67750a03e7d6e2ea01dcc4de8dec75d7aab85b567b6ccd41ad312451b948a7413f0a142fd40d4934794945304eb96065b2a98b57a48a06ae28d285a71b5a09a411ac5a1f6bd57b891397d57b38d0e869469c7d934f2202828d4070e1a88eba0b944eb65a6b1160fe5ad7ffc5eb319f9259ca2cbd8c823d4c3e481992d442bfea0e88bba0cecc0959e4f8ae26501e2dc87a06fa44e98148e3e048ea0cb0888eeebb90100000000000000000000000000000000000000000000000000000000000000000000000000000000000000000000000000000000000000000000000000000000000000000000000000000000000000000000000000000000000000000000000000000000000000000000000000000000000000000000000000000000000000000000000000000000000000000000000000000000000000000000000000000000000000000000000000000000000000000000000000000000000000000000000000000000000000000000000000000000000000000000000000000000000000000000000000000000000000000000000000000000000000000000000000000000008302000001887fffffffffffffff846ef38b018203e880a024f93d6910a34ebe569c736eccb6733d7ef62f871a7d7d7e3ad024bdf5144e2588144447af83398baef90114f901118001846ef38b0194095e7baea6a6c7c4c2dfeb977efac326af552d87843f4d7811b8ab7f0000000000000000000000000000000000000000000000000000000000000001757f000000000000000000000000945304eb96065b2a98b57a48a06ae28d285a71b57a7f000000000000000000000000945304eb96065b2a98b57a48a06ae28d285a71b57f000000000000000000000000945304eb96065b2a98b57a48a06ae28d285a71b5447ffffffffffffffffffffffffffffffffffffffffffffffffffffffffffffffffe83189b1ba0e917929967d4c63b7723c29c8fcfb12ef66f2c18aafb660064ae5d62490a0d69a0325386a7659ee74ac19c8db4f5aef96a98586f2e43c9e88c2a1ca84ac65a2c83c0",
                "transactions" : [
                    {
                        "data" : "0x7f0000000000000000000000000000000000000000000000000000000000000001757f000000000000000000000000945304eb96065b2a98b57a48a06ae28d285a71b57a7f000000000000000000000000945304eb96065b2a98b57a48a06ae28d285a71b57f000000000000000000000000945304eb96065b2a98b57a48a06ae28d285a71b5447ffffffffffffffffffffffffffffffffffffffffffffffffffffffffffffffffe83189b",
                        "gasLimit" : "0x6ef38b01",
                        "gasPrice" : "0x01",
                        "nonce" : "0x00",
                        "r" : "0xe917929967d4c63b7723c29c8fcfb12ef66f2c18aafb660064ae5d62490a0d69",
                        "s" : "0x325386a7659ee74ac19c8db4f5aef96a98586f2e43c9e88c2a1ca84ac65a2c83",
                        "to" : "0x095e7baea6a6c7c4c2dfeb977efac326af552d87",
                        "v" : "0x1b",
                        "value" : "0x3f4d7811"
                    }
                ],
                "uncleHeaders" : [
                ]
            }
        ],
        "genesisBlockHeader" : {
            "bloom" : "0x00000000000000000000000000000000000000000000000000000000000000000000000000000000000000000000000000000000000000000000000000000000000000000000000000000000000000000000000000000000000000000000000000000000000000000000000000000000000000000000000000000000000000000000000000000000000000000000000000000000000000000000000000000000000000000000000000000000000000000000000000000000000000000000000000000000000000000000000000000000000000000000000000000000000000000000000000000000000000000000000000000000000000000000000000000000",
            "coinbase" : "0x945304eb96065b2a98b57a48a06ae28d285a71b5",
            "difficulty" : "0x020000",
            "extraData" : "0x42",
            "gasLimit" : "0x7fffffffffffffff",
            "gasUsed" : "0x00",
            "hash" : "0x49ab8834c2972a6294a512bab8a6b7f4150def1262dcda67a67750a03e7d6e2e",
            "mixHash" : "0x56e81f171bcc55a6ff8345e692c0f86e5b48e01b996cadc001622fb5e363b421",
            "nonce" : "0x0102030405060708",
            "number" : "0x00",
            "parentHash" : "0x0000000000000000000000000000000000000000000000000000000000000000",
            "receiptTrie" : "0x56e81f171bcc55a6ff8345e692c0f86e5b48e01b996cadc001622fb5e363b421",
            "stateRoot" : "0x097d7acac811c1955ae383fd7dae6bb2275612b93dc2103ff8cbdd6c3bb51fdd",
            "timestamp" : "0x03b6",
            "transactionsTrie" : "0x56e81f171bcc55a6ff8345e692c0f86e5b48e01b996cadc001622fb5e363b421",
            "uncleHash" : "0x1dcc4de8dec75d7aab85b567b6ccd41ad312451b948a7413f0a142fd40d49347"
        },
        "genesisRLP" : "0xf901fff901faa00000000000000000000000000000000000000000000000000000000000000000a01dcc4de8dec75d7aab85b567b6ccd41ad312451b948a7413f0a142fd40d4934794945304eb96065b2a98b57a48a06ae28d285a71b5a0097d7acac811c1955ae383fd7dae6bb2275612b93dc2103ff8cbdd6c3bb51fdda056e81f171bcc55a6ff8345e692c0f86e5b48e01b996cadc001622fb5e363b421a056e81f171bcc55a6ff8345e692c0f86e5b48e01b996cadc001622fb5e363b421b90100000000000000000000000000000000000000000000000000000000000000000000000000000000000000000000000000000000000000000000000000000000000000000000000000000000000000000000000000000000000000000000000000000000000000000000000000000000000000000000000000000000000000000000000000000000000000000000000000000000000000000000000000000000000000000000000000000000000000000000000000000000000000000000000000000000000000000000000000000000000000000000000000000000000000000000000000000000000000000000000000000000000000000000000000000000008302000080887fffffffffffffff808203b642a056e81f171bcc55a6ff8345e692c0f86e5b48e01b996cadc001622fb5e363b421880102030405060708c0c0",
        "lastblockhash" : "0x634fdf1b8578316cf83a145dfe1c9d404952eecf44e2e10076b6d13c983ceaf4",
        "network" : "EIP150",
        "postState" : {
            "0x095e7baea6a6c7c4c2dfeb977efac326af552d87" : {
                "balance" : "0x00",
                "code" : "0x7f0000000000000000000000000000000000000000000000000000000000000001757f000000000000000000000000945304eb96065b2a98b57a48a06ae28d285a71b57a7f000000000000000000000000945304eb96065b2a98b57a48a06ae28d285a71b57f000000000000000000000000945304eb96065b2a98b57a48a06ae28d285a71b5447ffffffffffffffffffffffffffffffffffffffffffffffffffffffffffffffffe83189b60005155",
                "nonce" : "0x00",
                "storage" : {
                }
            },
            "0x945304eb96065b2a98b57a48a06ae28d285a71b5" : {
                "balance" : "0x45639182b3e78b2f",
                "code" : "0x6000355415600957005b60203560003555",
                "nonce" : "0x00",
                "storage" : {
                }
            },
            "0xa94f5374fce5edbc8e2a8697c15331677e6ebf0b" : {
                "balance" : "0x0de0b6b3387074ff",
                "code" : "",
                "nonce" : "0x01",
                "storage" : {
                }
            }
        },
        "pre" : {
            "0x095e7baea6a6c7c4c2dfeb977efac326af552d87" : {
                "balance" : "0x00",
                "code" : "0x7f0000000000000000000000000000000000000000000000000000000000000001757f000000000000000000000000945304eb96065b2a98b57a48a06ae28d285a71b57a7f000000000000000000000000945304eb96065b2a98b57a48a06ae28d285a71b57f000000000000000000000000945304eb96065b2a98b57a48a06ae28d285a71b5447ffffffffffffffffffffffffffffffffffffffffffffffffffffffffffffffffe83189b60005155",
                "nonce" : "0x00",
                "storage" : {
                }
            },
            "0x945304eb96065b2a98b57a48a06ae28d285a71b5" : {
                "balance" : "0x2e",
                "code" : "0x6000355415600957005b60203560003555",
                "nonce" : "0x00",
                "storage" : {
                }
            },
            "0xa94f5374fce5edbc8e2a8697c15331677e6ebf0b" : {
                "balance" : "0x0de0b6b3a7640000",
                "code" : "",
                "nonce" : "0x00",
                "storage" : {
                }
            }
        }
    },
    "randomStatetest51_d0g0v0_EIP158" : {
        "_info" : {
            "comment" : "",
            "filledwith" : "cpp-1.3.0+commit.4e101574.Linux.g++",
            "lllcversion" : "Version: 0.4.18-develop.2017.10.11+commit.81f9f86c.Linux.g++",
            "source" : "src/BlockchainTestsFiller/GeneralStateTests/stRandom/randomStatetest51_d0g0v0Filler.json",
            "sourceHash" : "2b1336881022fedd08d5189d7b57e109a7ec7129b6e9af3e5c4cc60223d618f8"
        },
        "blocks" : [
            {
                "blockHeader" : {
                    "bloom" : "0x00000000000000000000000000000000000000000000000000000000000000000000000000000000000000000000000000000000000000000000000000000000000000000000000000000000000000000000000000000000000000000000000000000000000000000000000000000000000000000000000000000000000000000000000000000000000000000000000000000000000000000000000000000000000000000000000000000000000000000000000000000000000000000000000000000000000000000000000000000000000000000000000000000000000000000000000000000000000000000000000000000000000000000000000000000000",
                    "coinbase" : "0x945304eb96065b2a98b57a48a06ae28d285a71b5",
                    "difficulty" : "0x020000",
                    "extraData" : "",
                    "gasLimit" : "0x7fffffffffffffff",
                    "gasUsed" : "0x6ef38b01",
                    "hash" : "0x2782627bf9500e5ea710deccdb9afebb8f872d53375b36eb8507a89aa8358b48",
                    "mixHash" : "0x800b7a278de0f460bd3ca0b8235f650d208b2fd132a9488a780fc99c5fefb89b",
                    "nonce" : "0x46f03f7724fd37f7",
                    "number" : "0x01",
                    "parentHash" : "0x49ab8834c2972a6294a512bab8a6b7f4150def1262dcda67a67750a03e7d6e2e",
                    "receiptTrie" : "0xe88bba0cecc0959e4f8ae26501e2dc87a06fa44e98148e3e048ea0cb0888eeeb",
                    "stateRoot" : "0x9a411ac5a1f6bd57b891397d57b38d0e869469c7d934f2202828d4070e1a88eb",
                    "timestamp" : "0x03e8",
                    "transactionsTrie" : "0xb944eb65a6b1160fe5ad7ffc5eb319f9259ca2cbd8c823d4c3e481992d442bfe",
                    "uncleHash" : "0x1dcc4de8dec75d7aab85b567b6ccd41ad312451b948a7413f0a142fd40d49347"
                },
                "rlp" : "0xf90319f901fea049ab8834c2972a6294a512bab8a6b7f4150def1262dcda67a67750a03e7d6e2ea01dcc4de8dec75d7aab85b567b6ccd41ad312451b948a7413f0a142fd40d4934794945304eb96065b2a98b57a48a06ae28d285a71b5a09a411ac5a1f6bd57b891397d57b38d0e869469c7d934f2202828d4070e1a88eba0b944eb65a6b1160fe5ad7ffc5eb319f9259ca2cbd8c823d4c3e481992d442bfea0e88bba0cecc0959e4f8ae26501e2dc87a06fa44e98148e3e048ea0cb0888eeebb90100000000000000000000000000000000000000000000000000000000000000000000000000000000000000000000000000000000000000000000000000000000000000000000000000000000000000000000000000000000000000000000000000000000000000000000000000000000000000000000000000000000000000000000000000000000000000000000000000000000000000000000000000000000000000000000000000000000000000000000000000000000000000000000000000000000000000000000000000000000000000000000000000000000000000000000000000000000000000000000000000000000000000000000000000000000008302000001887fffffffffffffff846ef38b018203e880a0800b7a278de0f460bd3ca0b8235f650d208b2fd132a9488a780fc99c5fefb89b8846f03f7724fd37f7f90114f901118001846ef38b0194095e7baea6a6c7c4c2dfeb977efac326af552d87843f4d7811b8ab7f0000000000000000000000000000000000000000000000000000000000000001757f000000000000000000000000945304eb96065b2a98b57a48a06ae28d285a71b57a7f000000000000000000000000945304eb96065b2a98b57a48a06ae28d285a71b57f000000000000000000000000945304eb96065b2a98b57a48a06ae28d285a71b5447ffffffffffffffffffffffffffffffffffffffffffffffffffffffffffffffffe83189b1ba0e917929967d4c63b7723c29c8fcfb12ef66f2c18aafb660064ae5d62490a0d69a0325386a7659ee74ac19c8db4f5aef96a98586f2e43c9e88c2a1ca84ac65a2c83c0",
                "transactions" : [
                    {
                        "data" : "0x7f0000000000000000000000000000000000000000000000000000000000000001757f000000000000000000000000945304eb96065b2a98b57a48a06ae28d285a71b57a7f000000000000000000000000945304eb96065b2a98b57a48a06ae28d285a71b57f000000000000000000000000945304eb96065b2a98b57a48a06ae28d285a71b5447ffffffffffffffffffffffffffffffffffffffffffffffffffffffffffffffffe83189b",
                        "gasLimit" : "0x6ef38b01",
                        "gasPrice" : "0x01",
                        "nonce" : "0x00",
                        "r" : "0xe917929967d4c63b7723c29c8fcfb12ef66f2c18aafb660064ae5d62490a0d69",
                        "s" : "0x325386a7659ee74ac19c8db4f5aef96a98586f2e43c9e88c2a1ca84ac65a2c83",
                        "to" : "0x095e7baea6a6c7c4c2dfeb977efac326af552d87",
                        "v" : "0x1b",
                        "value" : "0x3f4d7811"
                    }
                ],
                "uncleHeaders" : [
                ]
            }
        ],
        "genesisBlockHeader" : {
            "bloom" : "0x00000000000000000000000000000000000000000000000000000000000000000000000000000000000000000000000000000000000000000000000000000000000000000000000000000000000000000000000000000000000000000000000000000000000000000000000000000000000000000000000000000000000000000000000000000000000000000000000000000000000000000000000000000000000000000000000000000000000000000000000000000000000000000000000000000000000000000000000000000000000000000000000000000000000000000000000000000000000000000000000000000000000000000000000000000000",
            "coinbase" : "0x945304eb96065b2a98b57a48a06ae28d285a71b5",
            "difficulty" : "0x020000",
            "extraData" : "0x42",
            "gasLimit" : "0x7fffffffffffffff",
            "gasUsed" : "0x00",
            "hash" : "0x49ab8834c2972a6294a512bab8a6b7f4150def1262dcda67a67750a03e7d6e2e",
            "mixHash" : "0x56e81f171bcc55a6ff8345e692c0f86e5b48e01b996cadc001622fb5e363b421",
            "nonce" : "0x0102030405060708",
            "number" : "0x00",
            "parentHash" : "0x0000000000000000000000000000000000000000000000000000000000000000",
            "receiptTrie" : "0x56e81f171bcc55a6ff8345e692c0f86e5b48e01b996cadc001622fb5e363b421",
            "stateRoot" : "0x097d7acac811c1955ae383fd7dae6bb2275612b93dc2103ff8cbdd6c3bb51fdd",
            "timestamp" : "0x03b6",
            "transactionsTrie" : "0x56e81f171bcc55a6ff8345e692c0f86e5b48e01b996cadc001622fb5e363b421",
            "uncleHash" : "0x1dcc4de8dec75d7aab85b567b6ccd41ad312451b948a7413f0a142fd40d49347"
        },
        "genesisRLP" : "0xf901fff901faa00000000000000000000000000000000000000000000000000000000000000000a01dcc4de8dec75d7aab85b567b6ccd41ad312451b948a7413f0a142fd40d4934794945304eb96065b2a98b57a48a06ae28d285a71b5a0097d7acac811c1955ae383fd7dae6bb2275612b93dc2103ff8cbdd6c3bb51fdda056e81f171bcc55a6ff8345e692c0f86e5b48e01b996cadc001622fb5e363b421a056e81f171bcc55a6ff8345e692c0f86e5b48e01b996cadc001622fb5e363b421b90100000000000000000000000000000000000000000000000000000000000000000000000000000000000000000000000000000000000000000000000000000000000000000000000000000000000000000000000000000000000000000000000000000000000000000000000000000000000000000000000000000000000000000000000000000000000000000000000000000000000000000000000000000000000000000000000000000000000000000000000000000000000000000000000000000000000000000000000000000000000000000000000000000000000000000000000000000000000000000000000000000000000000000000000000000000008302000080887fffffffffffffff808203b642a056e81f171bcc55a6ff8345e692c0f86e5b48e01b996cadc001622fb5e363b421880102030405060708c0c0",
        "lastblockhash" : "0x2782627bf9500e5ea710deccdb9afebb8f872d53375b36eb8507a89aa8358b48",
        "network" : "EIP158",
        "postState" : {
            "0x095e7baea6a6c7c4c2dfeb977efac326af552d87" : {
                "balance" : "0x00",
                "code" : "0x7f0000000000000000000000000000000000000000000000000000000000000001757f000000000000000000000000945304eb96065b2a98b57a48a06ae28d285a71b57a7f000000000000000000000000945304eb96065b2a98b57a48a06ae28d285a71b57f000000000000000000000000945304eb96065b2a98b57a48a06ae28d285a71b5447ffffffffffffffffffffffffffffffffffffffffffffffffffffffffffffffffe83189b60005155",
                "nonce" : "0x00",
                "storage" : {
                }
            },
            "0x945304eb96065b2a98b57a48a06ae28d285a71b5" : {
                "balance" : "0x45639182b3e78b2f",
                "code" : "0x6000355415600957005b60203560003555",
                "nonce" : "0x00",
                "storage" : {
                }
            },
            "0xa94f5374fce5edbc8e2a8697c15331677e6ebf0b" : {
                "balance" : "0x0de0b6b3387074ff",
                "code" : "",
                "nonce" : "0x01",
                "storage" : {
                }
            }
        },
        "pre" : {
            "0x095e7baea6a6c7c4c2dfeb977efac326af552d87" : {
                "balance" : "0x00",
                "code" : "0x7f0000000000000000000000000000000000000000000000000000000000000001757f000000000000000000000000945304eb96065b2a98b57a48a06ae28d285a71b57a7f000000000000000000000000945304eb96065b2a98b57a48a06ae28d285a71b57f000000000000000000000000945304eb96065b2a98b57a48a06ae28d285a71b5447ffffffffffffffffffffffffffffffffffffffffffffffffffffffffffffffffe83189b60005155",
                "nonce" : "0x00",
                "storage" : {
                }
            },
            "0x945304eb96065b2a98b57a48a06ae28d285a71b5" : {
                "balance" : "0x2e",
                "code" : "0x6000355415600957005b60203560003555",
                "nonce" : "0x00",
                "storage" : {
                }
            },
            "0xa94f5374fce5edbc8e2a8697c15331677e6ebf0b" : {
                "balance" : "0x0de0b6b3a7640000",
                "code" : "",
                "nonce" : "0x00",
                "storage" : {
                }
            }
        }
    },
    "randomStatetest51_d0g0v0_Frontier" : {
        "_info" : {
            "comment" : "",
            "filledwith" : "cpp-1.3.0+commit.4e101574.Linux.g++",
            "lllcversion" : "Version: 0.4.18-develop.2017.10.11+commit.81f9f86c.Linux.g++",
            "source" : "src/BlockchainTestsFiller/GeneralStateTests/stRandom/randomStatetest51_d0g0v0Filler.json",
            "sourceHash" : "2b1336881022fedd08d5189d7b57e109a7ec7129b6e9af3e5c4cc60223d618f8"
        },
        "blocks" : [
            {
                "blockHeader" : {
                    "bloom" : "0x00000000000000000000000000000000000000000000000000000000000000000000000000000000000000000000000000000000000000000000000000000000000000000000000000000000000000000000000000000000000000000000000000000000000000000000000000000000000000000000000000000000000000000000000000000000000000000000000000000000000000000000000000000000000000000000000000000000000000000000000000000000000000000000000000000000000000000000000000000000000000000000000000000000000000000000000000000000000000000000000000000000000000000000000000000000",
                    "coinbase" : "0x945304eb96065b2a98b57a48a06ae28d285a71b5",
                    "difficulty" : "0x020000",
                    "extraData" : "",
                    "gasLimit" : "0x7fffffffffffffff",
                    "gasUsed" : "0x6ef38b01",
                    "hash" : "0xfff39be2e00a9a9cec2564ca4f567b06cd6fdfb166cff2f84a10e4cb043fe579",
                    "mixHash" : "0x5504c865655cf300ca9741dcf8fc2ecf13c788c8ddc4eab666d2a3b11977b6cb",
                    "nonce" : "0xdea7a29647788605",
                    "number" : "0x01",
                    "parentHash" : "0x49ab8834c2972a6294a512bab8a6b7f4150def1262dcda67a67750a03e7d6e2e",
                    "receiptTrie" : "0xe88bba0cecc0959e4f8ae26501e2dc87a06fa44e98148e3e048ea0cb0888eeeb",
                    "stateRoot" : "0x9a411ac5a1f6bd57b891397d57b38d0e869469c7d934f2202828d4070e1a88eb",
                    "timestamp" : "0x03e8",
                    "transactionsTrie" : "0xb944eb65a6b1160fe5ad7ffc5eb319f9259ca2cbd8c823d4c3e481992d442bfe",
                    "uncleHash" : "0x1dcc4de8dec75d7aab85b567b6ccd41ad312451b948a7413f0a142fd40d49347"
                },
                "rlp" : "0xf90319f901fea049ab8834c2972a6294a512bab8a6b7f4150def1262dcda67a67750a03e7d6e2ea01dcc4de8dec75d7aab85b567b6ccd41ad312451b948a7413f0a142fd40d4934794945304eb96065b2a98b57a48a06ae28d285a71b5a09a411ac5a1f6bd57b891397d57b38d0e869469c7d934f2202828d4070e1a88eba0b944eb65a6b1160fe5ad7ffc5eb319f9259ca2cbd8c823d4c3e481992d442bfea0e88bba0cecc0959e4f8ae26501e2dc87a06fa44e98148e3e048ea0cb0888eeebb90100000000000000000000000000000000000000000000000000000000000000000000000000000000000000000000000000000000000000000000000000000000000000000000000000000000000000000000000000000000000000000000000000000000000000000000000000000000000000000000000000000000000000000000000000000000000000000000000000000000000000000000000000000000000000000000000000000000000000000000000000000000000000000000000000000000000000000000000000000000000000000000000000000000000000000000000000000000000000000000000000000000000000000000000000000000008302000001887fffffffffffffff846ef38b018203e880a05504c865655cf300ca9741dcf8fc2ecf13c788c8ddc4eab666d2a3b11977b6cb88dea7a29647788605f90114f901118001846ef38b0194095e7baea6a6c7c4c2dfeb977efac326af552d87843f4d7811b8ab7f0000000000000000000000000000000000000000000000000000000000000001757f000000000000000000000000945304eb96065b2a98b57a48a06ae28d285a71b57a7f000000000000000000000000945304eb96065b2a98b57a48a06ae28d285a71b57f000000000000000000000000945304eb96065b2a98b57a48a06ae28d285a71b5447ffffffffffffffffffffffffffffffffffffffffffffffffffffffffffffffffe83189b1ba0e917929967d4c63b7723c29c8fcfb12ef66f2c18aafb660064ae5d62490a0d69a0325386a7659ee74ac19c8db4f5aef96a98586f2e43c9e88c2a1ca84ac65a2c83c0",
                "transactions" : [
                    {
                        "data" : "0x7f0000000000000000000000000000000000000000000000000000000000000001757f000000000000000000000000945304eb96065b2a98b57a48a06ae28d285a71b57a7f000000000000000000000000945304eb96065b2a98b57a48a06ae28d285a71b57f000000000000000000000000945304eb96065b2a98b57a48a06ae28d285a71b5447ffffffffffffffffffffffffffffffffffffffffffffffffffffffffffffffffe83189b",
                        "gasLimit" : "0x6ef38b01",
                        "gasPrice" : "0x01",
                        "nonce" : "0x00",
                        "r" : "0xe917929967d4c63b7723c29c8fcfb12ef66f2c18aafb660064ae5d62490a0d69",
                        "s" : "0x325386a7659ee74ac19c8db4f5aef96a98586f2e43c9e88c2a1ca84ac65a2c83",
                        "to" : "0x095e7baea6a6c7c4c2dfeb977efac326af552d87",
                        "v" : "0x1b",
                        "value" : "0x3f4d7811"
                    }
                ],
                "uncleHeaders" : [
                ]
            }
        ],
        "genesisBlockHeader" : {
            "bloom" : "0x00000000000000000000000000000000000000000000000000000000000000000000000000000000000000000000000000000000000000000000000000000000000000000000000000000000000000000000000000000000000000000000000000000000000000000000000000000000000000000000000000000000000000000000000000000000000000000000000000000000000000000000000000000000000000000000000000000000000000000000000000000000000000000000000000000000000000000000000000000000000000000000000000000000000000000000000000000000000000000000000000000000000000000000000000000000",
            "coinbase" : "0x945304eb96065b2a98b57a48a06ae28d285a71b5",
            "difficulty" : "0x020000",
            "extraData" : "0x42",
            "gasLimit" : "0x7fffffffffffffff",
            "gasUsed" : "0x00",
            "hash" : "0x49ab8834c2972a6294a512bab8a6b7f4150def1262dcda67a67750a03e7d6e2e",
            "mixHash" : "0x56e81f171bcc55a6ff8345e692c0f86e5b48e01b996cadc001622fb5e363b421",
            "nonce" : "0x0102030405060708",
            "number" : "0x00",
            "parentHash" : "0x0000000000000000000000000000000000000000000000000000000000000000",
            "receiptTrie" : "0x56e81f171bcc55a6ff8345e692c0f86e5b48e01b996cadc001622fb5e363b421",
            "stateRoot" : "0x097d7acac811c1955ae383fd7dae6bb2275612b93dc2103ff8cbdd6c3bb51fdd",
            "timestamp" : "0x03b6",
            "transactionsTrie" : "0x56e81f171bcc55a6ff8345e692c0f86e5b48e01b996cadc001622fb5e363b421",
            "uncleHash" : "0x1dcc4de8dec75d7aab85b567b6ccd41ad312451b948a7413f0a142fd40d49347"
        },
        "genesisRLP" : "0xf901fff901faa00000000000000000000000000000000000000000000000000000000000000000a01dcc4de8dec75d7aab85b567b6ccd41ad312451b948a7413f0a142fd40d4934794945304eb96065b2a98b57a48a06ae28d285a71b5a0097d7acac811c1955ae383fd7dae6bb2275612b93dc2103ff8cbdd6c3bb51fdda056e81f171bcc55a6ff8345e692c0f86e5b48e01b996cadc001622fb5e363b421a056e81f171bcc55a6ff8345e692c0f86e5b48e01b996cadc001622fb5e363b421b90100000000000000000000000000000000000000000000000000000000000000000000000000000000000000000000000000000000000000000000000000000000000000000000000000000000000000000000000000000000000000000000000000000000000000000000000000000000000000000000000000000000000000000000000000000000000000000000000000000000000000000000000000000000000000000000000000000000000000000000000000000000000000000000000000000000000000000000000000000000000000000000000000000000000000000000000000000000000000000000000000000000000000000000000000000000008302000080887fffffffffffffff808203b642a056e81f171bcc55a6ff8345e692c0f86e5b48e01b996cadc001622fb5e363b421880102030405060708c0c0",
        "lastblockhash" : "0xfff39be2e00a9a9cec2564ca4f567b06cd6fdfb166cff2f84a10e4cb043fe579",
        "network" : "Frontier",
        "postState" : {
            "0x095e7baea6a6c7c4c2dfeb977efac326af552d87" : {
                "balance" : "0x00",
                "code" : "0x7f0000000000000000000000000000000000000000000000000000000000000001757f000000000000000000000000945304eb96065b2a98b57a48a06ae28d285a71b57a7f000000000000000000000000945304eb96065b2a98b57a48a06ae28d285a71b57f000000000000000000000000945304eb96065b2a98b57a48a06ae28d285a71b5447ffffffffffffffffffffffffffffffffffffffffffffffffffffffffffffffffe83189b60005155",
                "nonce" : "0x00",
                "storage" : {
                }
            },
            "0x945304eb96065b2a98b57a48a06ae28d285a71b5" : {
                "balance" : "0x45639182b3e78b2f",
                "code" : "0x6000355415600957005b60203560003555",
                "nonce" : "0x00",
                "storage" : {
                }
            },
            "0xa94f5374fce5edbc8e2a8697c15331677e6ebf0b" : {
                "balance" : "0x0de0b6b3387074ff",
                "code" : "",
                "nonce" : "0x01",
                "storage" : {
                }
            }
        },
        "pre" : {
            "0x095e7baea6a6c7c4c2dfeb977efac326af552d87" : {
                "balance" : "0x00",
                "code" : "0x7f0000000000000000000000000000000000000000000000000000000000000001757f000000000000000000000000945304eb96065b2a98b57a48a06ae28d285a71b57a7f000000000000000000000000945304eb96065b2a98b57a48a06ae28d285a71b57f000000000000000000000000945304eb96065b2a98b57a48a06ae28d285a71b5447ffffffffffffffffffffffffffffffffffffffffffffffffffffffffffffffffe83189b60005155",
                "nonce" : "0x00",
                "storage" : {
                }
            },
            "0x945304eb96065b2a98b57a48a06ae28d285a71b5" : {
                "balance" : "0x2e",
                "code" : "0x6000355415600957005b60203560003555",
                "nonce" : "0x00",
                "storage" : {
                }
            },
            "0xa94f5374fce5edbc8e2a8697c15331677e6ebf0b" : {
                "balance" : "0x0de0b6b3a7640000",
                "code" : "",
                "nonce" : "0x00",
                "storage" : {
                }
            }
        }
    },
    "randomStatetest51_d0g0v0_Homestead" : {
        "_info" : {
            "comment" : "",
            "filledwith" : "cpp-1.3.0+commit.4e101574.Linux.g++",
            "lllcversion" : "Version: 0.4.18-develop.2017.10.11+commit.81f9f86c.Linux.g++",
            "source" : "src/BlockchainTestsFiller/GeneralStateTests/stRandom/randomStatetest51_d0g0v0Filler.json",
            "sourceHash" : "2b1336881022fedd08d5189d7b57e109a7ec7129b6e9af3e5c4cc60223d618f8"
        },
        "blocks" : [
            {
                "blockHeader" : {
                    "bloom" : "0x00000000000000000000000000000000000000000000000000000000000000000000000000000000000000000000000000000000000000000000000000000000000000000000000000000000000000000000000000000000000000000000000000000000000000000000000000000000000000000000000000000000000000000000000000000000000000000000000000000000000000000000000000000000000000000000000000000000000000000000000000000000000000000000000000000000000000000000000000000000000000000000000000000000000000000000000000000000000000000000000000000000000000000000000000000000",
                    "coinbase" : "0x945304eb96065b2a98b57a48a06ae28d285a71b5",
                    "difficulty" : "0x020000",
                    "extraData" : "",
                    "gasLimit" : "0x7fffffffffffffff",
                    "gasUsed" : "0x6ef38b01",
                    "hash" : "0xa002d5cb58aa1019d6c8201b5e02819a1c8bd16296e3ba76d85219df7748f4fa",
                    "mixHash" : "0xcc440dbabd9099b2f3d49baad98255ee32d29184060675e86886f6baebd38c42",
                    "nonce" : "0x25f4ab3ec95f0692",
                    "number" : "0x01",
                    "parentHash" : "0x49ab8834c2972a6294a512bab8a6b7f4150def1262dcda67a67750a03e7d6e2e",
                    "receiptTrie" : "0xe88bba0cecc0959e4f8ae26501e2dc87a06fa44e98148e3e048ea0cb0888eeeb",
                    "stateRoot" : "0x9a411ac5a1f6bd57b891397d57b38d0e869469c7d934f2202828d4070e1a88eb",
                    "timestamp" : "0x03e8",
                    "transactionsTrie" : "0xb944eb65a6b1160fe5ad7ffc5eb319f9259ca2cbd8c823d4c3e481992d442bfe",
                    "uncleHash" : "0x1dcc4de8dec75d7aab85b567b6ccd41ad312451b948a7413f0a142fd40d49347"
                },
                "rlp" : "0xf90319f901fea049ab8834c2972a6294a512bab8a6b7f4150def1262dcda67a67750a03e7d6e2ea01dcc4de8dec75d7aab85b567b6ccd41ad312451b948a7413f0a142fd40d4934794945304eb96065b2a98b57a48a06ae28d285a71b5a09a411ac5a1f6bd57b891397d57b38d0e869469c7d934f2202828d4070e1a88eba0b944eb65a6b1160fe5ad7ffc5eb319f9259ca2cbd8c823d4c3e481992d442bfea0e88bba0cecc0959e4f8ae26501e2dc87a06fa44e98148e3e048ea0cb0888eeebb90100000000000000000000000000000000000000000000000000000000000000000000000000000000000000000000000000000000000000000000000000000000000000000000000000000000000000000000000000000000000000000000000000000000000000000000000000000000000000000000000000000000000000000000000000000000000000000000000000000000000000000000000000000000000000000000000000000000000000000000000000000000000000000000000000000000000000000000000000000000000000000000000000000000000000000000000000000000000000000000000000000000000000000000000000000000008302000001887fffffffffffffff846ef38b018203e880a0cc440dbabd9099b2f3d49baad98255ee32d29184060675e86886f6baebd38c428825f4ab3ec95f0692f90114f901118001846ef38b0194095e7baea6a6c7c4c2dfeb977efac326af552d87843f4d7811b8ab7f0000000000000000000000000000000000000000000000000000000000000001757f000000000000000000000000945304eb96065b2a98b57a48a06ae28d285a71b57a7f000000000000000000000000945304eb96065b2a98b57a48a06ae28d285a71b57f000000000000000000000000945304eb96065b2a98b57a48a06ae28d285a71b5447ffffffffffffffffffffffffffffffffffffffffffffffffffffffffffffffffe83189b1ba0e917929967d4c63b7723c29c8fcfb12ef66f2c18aafb660064ae5d62490a0d69a0325386a7659ee74ac19c8db4f5aef96a98586f2e43c9e88c2a1ca84ac65a2c83c0",
                "transactions" : [
                    {
                        "data" : "0x7f0000000000000000000000000000000000000000000000000000000000000001757f000000000000000000000000945304eb96065b2a98b57a48a06ae28d285a71b57a7f000000000000000000000000945304eb96065b2a98b57a48a06ae28d285a71b57f000000000000000000000000945304eb96065b2a98b57a48a06ae28d285a71b5447ffffffffffffffffffffffffffffffffffffffffffffffffffffffffffffffffe83189b",
                        "gasLimit" : "0x6ef38b01",
                        "gasPrice" : "0x01",
                        "nonce" : "0x00",
                        "r" : "0xe917929967d4c63b7723c29c8fcfb12ef66f2c18aafb660064ae5d62490a0d69",
                        "s" : "0x325386a7659ee74ac19c8db4f5aef96a98586f2e43c9e88c2a1ca84ac65a2c83",
                        "to" : "0x095e7baea6a6c7c4c2dfeb977efac326af552d87",
                        "v" : "0x1b",
                        "value" : "0x3f4d7811"
                    }
                ],
                "uncleHeaders" : [
                ]
            }
        ],
        "genesisBlockHeader" : {
            "bloom" : "0x00000000000000000000000000000000000000000000000000000000000000000000000000000000000000000000000000000000000000000000000000000000000000000000000000000000000000000000000000000000000000000000000000000000000000000000000000000000000000000000000000000000000000000000000000000000000000000000000000000000000000000000000000000000000000000000000000000000000000000000000000000000000000000000000000000000000000000000000000000000000000000000000000000000000000000000000000000000000000000000000000000000000000000000000000000000",
            "coinbase" : "0x945304eb96065b2a98b57a48a06ae28d285a71b5",
            "difficulty" : "0x020000",
            "extraData" : "0x42",
            "gasLimit" : "0x7fffffffffffffff",
            "gasUsed" : "0x00",
            "hash" : "0x49ab8834c2972a6294a512bab8a6b7f4150def1262dcda67a67750a03e7d6e2e",
            "mixHash" : "0x56e81f171bcc55a6ff8345e692c0f86e5b48e01b996cadc001622fb5e363b421",
            "nonce" : "0x0102030405060708",
            "number" : "0x00",
            "parentHash" : "0x0000000000000000000000000000000000000000000000000000000000000000",
            "receiptTrie" : "0x56e81f171bcc55a6ff8345e692c0f86e5b48e01b996cadc001622fb5e363b421",
            "stateRoot" : "0x097d7acac811c1955ae383fd7dae6bb2275612b93dc2103ff8cbdd6c3bb51fdd",
            "timestamp" : "0x03b6",
            "transactionsTrie" : "0x56e81f171bcc55a6ff8345e692c0f86e5b48e01b996cadc001622fb5e363b421",
            "uncleHash" : "0x1dcc4de8dec75d7aab85b567b6ccd41ad312451b948a7413f0a142fd40d49347"
        },
        "genesisRLP" : "0xf901fff901faa00000000000000000000000000000000000000000000000000000000000000000a01dcc4de8dec75d7aab85b567b6ccd41ad312451b948a7413f0a142fd40d4934794945304eb96065b2a98b57a48a06ae28d285a71b5a0097d7acac811c1955ae383fd7dae6bb2275612b93dc2103ff8cbdd6c3bb51fdda056e81f171bcc55a6ff8345e692c0f86e5b48e01b996cadc001622fb5e363b421a056e81f171bcc55a6ff8345e692c0f86e5b48e01b996cadc001622fb5e363b421b90100000000000000000000000000000000000000000000000000000000000000000000000000000000000000000000000000000000000000000000000000000000000000000000000000000000000000000000000000000000000000000000000000000000000000000000000000000000000000000000000000000000000000000000000000000000000000000000000000000000000000000000000000000000000000000000000000000000000000000000000000000000000000000000000000000000000000000000000000000000000000000000000000000000000000000000000000000000000000000000000000000000000000000000000000000000008302000080887fffffffffffffff808203b642a056e81f171bcc55a6ff8345e692c0f86e5b48e01b996cadc001622fb5e363b421880102030405060708c0c0",
        "lastblockhash" : "0xa002d5cb58aa1019d6c8201b5e02819a1c8bd16296e3ba76d85219df7748f4fa",
        "network" : "Homestead",
        "postState" : {
            "0x095e7baea6a6c7c4c2dfeb977efac326af552d87" : {
                "balance" : "0x00",
                "code" : "0x7f0000000000000000000000000000000000000000000000000000000000000001757f000000000000000000000000945304eb96065b2a98b57a48a06ae28d285a71b57a7f000000000000000000000000945304eb96065b2a98b57a48a06ae28d285a71b57f000000000000000000000000945304eb96065b2a98b57a48a06ae28d285a71b5447ffffffffffffffffffffffffffffffffffffffffffffffffffffffffffffffffe83189b60005155",
                "nonce" : "0x00",
                "storage" : {
                }
            },
            "0x945304eb96065b2a98b57a48a06ae28d285a71b5" : {
                "balance" : "0x45639182b3e78b2f",
                "code" : "0x6000355415600957005b60203560003555",
                "nonce" : "0x00",
                "storage" : {
                }
            },
            "0xa94f5374fce5edbc8e2a8697c15331677e6ebf0b" : {
                "balance" : "0x0de0b6b3387074ff",
                "code" : "",
                "nonce" : "0x01",
                "storage" : {
                }
            }
        },
        "pre" : {
            "0x095e7baea6a6c7c4c2dfeb977efac326af552d87" : {
                "balance" : "0x00",
                "code" : "0x7f0000000000000000000000000000000000000000000000000000000000000001757f000000000000000000000000945304eb96065b2a98b57a48a06ae28d285a71b57a7f000000000000000000000000945304eb96065b2a98b57a48a06ae28d285a71b57f000000000000000000000000945304eb96065b2a98b57a48a06ae28d285a71b5447ffffffffffffffffffffffffffffffffffffffffffffffffffffffffffffffffe83189b60005155",
                "nonce" : "0x00",
                "storage" : {
                }
            },
            "0x945304eb96065b2a98b57a48a06ae28d285a71b5" : {
                "balance" : "0x2e",
                "code" : "0x6000355415600957005b60203560003555",
                "nonce" : "0x00",
                "storage" : {
                }
            },
            "0xa94f5374fce5edbc8e2a8697c15331677e6ebf0b" : {
                "balance" : "0x0de0b6b3a7640000",
                "code" : "",
                "nonce" : "0x00",
                "storage" : {
                }
            }
        }
    }
}