{
    "randomStatetest241_d0g0v0_Byzantium" : {
        "_info" : {
            "comment" : "",
            "filledwith" : "cpp-1.3.0+commit.4e101574.Linux.g++",
            "lllcversion" : "Version: 0.4.18-develop.2017.10.11+commit.81f9f86c.Linux.g++",
            "source" : "src/BlockchainTestsFiller/GeneralStateTests/stRandom/randomStatetest241_d0g0v0Filler.json",
            "sourceHash" : "116e76ee752c0851bb75db8ad09d92416342a9569ff68a6a9b953a653f6885a8"
        },
        "blocks" : [
            {
                "blockHeader" : {
                    "bloom" : "0x00000000000000000000000000000000000000000000000000000000000000000000000000000000000000000000000000000000000000000000000000000000000000000000000000000000000000000000000000000000000000000000000000000000000000000000000000000000000000000000000000000000000000000000000000000000000000000000000000000000000000000000000000000000000000000000000000000000000000000000000000000000000000000000000000000000000000000000000000000000000000000000000000000000000000000000000000000000000000000000000000000000000000000000000000000000",
                    "coinbase" : "0x945304eb96065b2a98b57a48a06ae28d285a71b5",
                    "difficulty" : "0x020000",
                    "extraData" : "",
                    "gasLimit" : "0x7fffffffffffffff",
                    "gasUsed" : "0xa082",
                    "hash" : "0xfabc4c310a93773744c7baeb923deb6936129e8cefcec5697ff8c8cca1c2f148",
                    "mixHash" : "0x38d5ff0fa12b3e20c80d05ad5095f1388eeaede356188651696b01a49fce849e",
                    "nonce" : "0x6b122a2f8874fe30",
                    "number" : "0x01",
                    "parentHash" : "0x71d51c14cbc2642625bbe11212d727c7f489f46aa11648a24a6a8ce4c3c765ee",
                    "receiptTrie" : "0xe2e100428640fc3cc22001c763aeaf7f148c08d8d77aa30cf068263a288b3cc3",
                    "stateRoot" : "0x6475d99193750a604a4d72e32ad881c01dde751b91e360db7bc2738bda68bfd1",
                    "timestamp" : "0x03e8",
                    "transactionsTrie" : "0xea2c23140f9304ac644ed2168d38810b255563a317f85d94b1417efe60e9c67f",
                    "uncleHash" : "0x1dcc4de8dec75d7aab85b567b6ccd41ad312451b948a7413f0a142fd40d49347"
                },
                "rlp" : "0xf90267f901fca071d51c14cbc2642625bbe11212d727c7f489f46aa11648a24a6a8ce4c3c765eea01dcc4de8dec75d7aab85b567b6ccd41ad312451b948a7413f0a142fd40d4934794945304eb96065b2a98b57a48a06ae28d285a71b5a06475d99193750a604a4d72e32ad881c01dde751b91e360db7bc2738bda68bfd1a0ea2c23140f9304ac644ed2168d38810b255563a317f85d94b1417efe60e9c67fa0e2e100428640fc3cc22001c763aeaf7f148c08d8d77aa30cf068263a288b3cc3b90100000000000000000000000000000000000000000000000000000000000000000000000000000000000000000000000000000000000000000000000000000000000000000000000000000000000000000000000000000000000000000000000000000000000000000000000000000000000000000000000000000000000000000000000000000000000000000000000000000000000000000000000000000000000000000000000000000000000000000000000000000000000000000000000000000000000000000000000000000000000000000000000000000000000000000000000000000000000000000000000000000000000000000000000000000000008302000001887fffffffffffffff82a0828203e880a038d5ff0fa12b3e20c80d05ad5095f1388eeaede356188651696b01a49fce849e886b122a2f8874fe30f865f863800183061a8094095e7baea6a6c7c4c2dfeb977efac326af552d87830186a0421ba0cd95e27b278d4519277b0d2675dc5a4ba134a179c9161b08907df9f1f8309765a078634240a51c2e3d932e8dd4cf5befb3ced234cde11c6d2a23fd47d2e96bfdffc0",
                "transactions" : [
                    {
                        "data" : "0x42",
                        "gasLimit" : "0x061a80",
                        "gasPrice" : "0x01",
                        "nonce" : "0x00",
                        "r" : "0xcd95e27b278d4519277b0d2675dc5a4ba134a179c9161b08907df9f1f8309765",
                        "s" : "0x78634240a51c2e3d932e8dd4cf5befb3ced234cde11c6d2a23fd47d2e96bfdff",
                        "to" : "0x095e7baea6a6c7c4c2dfeb977efac326af552d87",
                        "v" : "0x1b",
                        "value" : "0x0186a0"
                    }
                ],
                "uncleHeaders" : [
                ]
            }
        ],
        "genesisBlockHeader" : {
            "bloom" : "0x00000000000000000000000000000000000000000000000000000000000000000000000000000000000000000000000000000000000000000000000000000000000000000000000000000000000000000000000000000000000000000000000000000000000000000000000000000000000000000000000000000000000000000000000000000000000000000000000000000000000000000000000000000000000000000000000000000000000000000000000000000000000000000000000000000000000000000000000000000000000000000000000000000000000000000000000000000000000000000000000000000000000000000000000000000000",
            "coinbase" : "0x945304eb96065b2a98b57a48a06ae28d285a71b5",
            "difficulty" : "0x020000",
            "extraData" : "0x42",
            "gasLimit" : "0x7fffffffffffffff",
            "gasUsed" : "0x00",
            "hash" : "0x71d51c14cbc2642625bbe11212d727c7f489f46aa11648a24a6a8ce4c3c765ee",
            "mixHash" : "0x56e81f171bcc55a6ff8345e692c0f86e5b48e01b996cadc001622fb5e363b421",
            "nonce" : "0x0102030405060708",
            "number" : "0x00",
            "parentHash" : "0x0000000000000000000000000000000000000000000000000000000000000000",
            "receiptTrie" : "0x56e81f171bcc55a6ff8345e692c0f86e5b48e01b996cadc001622fb5e363b421",
            "stateRoot" : "0x0c87e68d197783bf332e918b94279e40597bc7d23f0ab97b8d07c1017d9ffaa2",
            "timestamp" : "0x03b6",
            "transactionsTrie" : "0x56e81f171bcc55a6ff8345e692c0f86e5b48e01b996cadc001622fb5e363b421",
            "uncleHash" : "0x1dcc4de8dec75d7aab85b567b6ccd41ad312451b948a7413f0a142fd40d49347"
        },
        "genesisRLP" : "0xf901fff901faa00000000000000000000000000000000000000000000000000000000000000000a01dcc4de8dec75d7aab85b567b6ccd41ad312451b948a7413f0a142fd40d4934794945304eb96065b2a98b57a48a06ae28d285a71b5a00c87e68d197783bf332e918b94279e40597bc7d23f0ab97b8d07c1017d9ffaa2a056e81f171bcc55a6ff8345e692c0f86e5b48e01b996cadc001622fb5e363b421a056e81f171bcc55a6ff8345e692c0f86e5b48e01b996cadc001622fb5e363b421b90100000000000000000000000000000000000000000000000000000000000000000000000000000000000000000000000000000000000000000000000000000000000000000000000000000000000000000000000000000000000000000000000000000000000000000000000000000000000000000000000000000000000000000000000000000000000000000000000000000000000000000000000000000000000000000000000000000000000000000000000000000000000000000000000000000000000000000000000000000000000000000000000000000000000000000000000000000000000000000000000000000000000000000000000000000000008302000080887fffffffffffffff808203b642a056e81f171bcc55a6ff8345e692c0f86e5b48e01b996cadc001622fb5e363b421880102030405060708c0c0",
        "lastblockhash" : "0xfabc4c310a93773744c7baeb923deb6936129e8cefcec5697ff8c8cca1c2f148",
        "network" : "Byzantium",
        "postState" : {
            "0x095e7baea6a6c7c4c2dfeb977efac326af552d87" : {
                "balance" : "0x0de0b6b3a76586a0",
                "code" : "0x41421942450855678a044455",
                "nonce" : "0x00",
                "storage" : {
                    "0x80000000000003e7" : "0x945304eb96065b2a98b57a48a06ae28d285a71b5"
                }
            },
            "0x945304eb96065b2a98b57a48a06ae28d285a71b5" : {
                "balance" : "0x29a2241af62ca0b0",
                "code" : "0x6000355415600957005b60203560003555",
                "nonce" : "0x00",
                "storage" : {
                }
            },
            "0xa94f5374fce5edbc8e2a8697c15331677e6ebf0b" : {
                "balance" : "0x0de0b6b3a761d8de",
                "code" : "",
                "nonce" : "0x01",
                "storage" : {
                }
            }
        },
        "pre" : {
            "0x095e7baea6a6c7c4c2dfeb977efac326af552d87" : {
                "balance" : "0x0de0b6b3a7640000",
                "code" : "0x41421942450855678a044455",
                "nonce" : "0x00",
                "storage" : {
                }
            },
            "0x945304eb96065b2a98b57a48a06ae28d285a71b5" : {
                "balance" : "0x2e",
                "code" : "0x6000355415600957005b60203560003555",
                "nonce" : "0x00",
                "storage" : {
                }
            },
            "0xa94f5374fce5edbc8e2a8697c15331677e6ebf0b" : {
                "balance" : "0x0de0b6b3a7640000",
                "code" : "",
                "nonce" : "0x00",
                "storage" : {
                }
            }
        }
    },
    "randomStatetest241_d0g0v0_EIP150" : {
        "_info" : {
            "comment" : "",
            "filledwith" : "cpp-1.3.0+commit.4e101574.Linux.g++",
            "lllcversion" : "Version: 0.4.18-develop.2017.10.11+commit.81f9f86c.Linux.g++",
            "source" : "src/BlockchainTestsFiller/GeneralStateTests/stRandom/randomStatetest241_d0g0v0Filler.json",
            "sourceHash" : "116e76ee752c0851bb75db8ad09d92416342a9569ff68a6a9b953a653f6885a8"
        },
        "blocks" : [
            {
                "blockHeader" : {
                    "bloom" : "0x00000000000000000000000000000000000000000000000000000000000000000000000000000000000000000000000000000000000000000000000000000000000000000000000000000000000000000000000000000000000000000000000000000000000000000000000000000000000000000000000000000000000000000000000000000000000000000000000000000000000000000000000000000000000000000000000000000000000000000000000000000000000000000000000000000000000000000000000000000000000000000000000000000000000000000000000000000000000000000000000000000000000000000000000000000000",
                    "coinbase" : "0x945304eb96065b2a98b57a48a06ae28d285a71b5",
                    "difficulty" : "0x020000",
                    "extraData" : "",
                    "gasLimit" : "0x7fffffffffffffff",
                    "gasUsed" : "0xa082",
                    "hash" : "0xf69facc9fdac99a93c4b2358a12b1c2e8d72eafaf078c5b50052a3bbfe932072",
                    "mixHash" : "0x793db4218d9fc8891519a8991a9dd84af5c32a464e5593f5110fc766ec9ea1a1",
                    "nonce" : "0x71a5b5d7f7ef33b3",
                    "number" : "0x01",
                    "parentHash" : "0x71d51c14cbc2642625bbe11212d727c7f489f46aa11648a24a6a8ce4c3c765ee",
                    "receiptTrie" : "0x7b29aa4a88c65ae15cd028e24c609340a5de5e14a8f11c727e41dc96cddc1563",
                    "stateRoot" : "0xb5a9c70c320f60732dcd1722d74e86f8e412039c76584e00d9006ab628e2055a",
                    "timestamp" : "0x03e8",
                    "transactionsTrie" : "0xea2c23140f9304ac644ed2168d38810b255563a317f85d94b1417efe60e9c67f",
                    "uncleHash" : "0x1dcc4de8dec75d7aab85b567b6ccd41ad312451b948a7413f0a142fd40d49347"
                },
                "rlp" : "0xf90267f901fca071d51c14cbc2642625bbe11212d727c7f489f46aa11648a24a6a8ce4c3c765eea01dcc4de8dec75d7aab85b567b6ccd41ad312451b948a7413f0a142fd40d4934794945304eb96065b2a98b57a48a06ae28d285a71b5a0b5a9c70c320f60732dcd1722d74e86f8e412039c76584e00d9006ab628e2055aa0ea2c23140f9304ac644ed2168d38810b255563a317f85d94b1417efe60e9c67fa07b29aa4a88c65ae15cd028e24c609340a5de5e14a8f11c727e41dc96cddc1563b90100000000000000000000000000000000000000000000000000000000000000000000000000000000000000000000000000000000000000000000000000000000000000000000000000000000000000000000000000000000000000000000000000000000000000000000000000000000000000000000000000000000000000000000000000000000000000000000000000000000000000000000000000000000000000000000000000000000000000000000000000000000000000000000000000000000000000000000000000000000000000000000000000000000000000000000000000000000000000000000000000000000000000000000000000000000008302000001887fffffffffffffff82a0828203e880a0793db4218d9fc8891519a8991a9dd84af5c32a464e5593f5110fc766ec9ea1a18871a5b5d7f7ef33b3f865f863800183061a8094095e7baea6a6c7c4c2dfeb977efac326af552d87830186a0421ba0cd95e27b278d4519277b0d2675dc5a4ba134a179c9161b08907df9f1f8309765a078634240a51c2e3d932e8dd4cf5befb3ced234cde11c6d2a23fd47d2e96bfdffc0",
                "transactions" : [
                    {
                        "data" : "0x42",
                        "gasLimit" : "0x061a80",
                        "gasPrice" : "0x01",
                        "nonce" : "0x00",
                        "r" : "0xcd95e27b278d4519277b0d2675dc5a4ba134a179c9161b08907df9f1f8309765",
                        "s" : "0x78634240a51c2e3d932e8dd4cf5befb3ced234cde11c6d2a23fd47d2e96bfdff",
                        "to" : "0x095e7baea6a6c7c4c2dfeb977efac326af552d87",
                        "v" : "0x1b",
                        "value" : "0x0186a0"
                    }
                ],
                "uncleHeaders" : [
                ]
            }
        ],
        "genesisBlockHeader" : {
            "bloom" : "0x00000000000000000000000000000000000000000000000000000000000000000000000000000000000000000000000000000000000000000000000000000000000000000000000000000000000000000000000000000000000000000000000000000000000000000000000000000000000000000000000000000000000000000000000000000000000000000000000000000000000000000000000000000000000000000000000000000000000000000000000000000000000000000000000000000000000000000000000000000000000000000000000000000000000000000000000000000000000000000000000000000000000000000000000000000000",
            "coinbase" : "0x945304eb96065b2a98b57a48a06ae28d285a71b5",
            "difficulty" : "0x020000",
            "extraData" : "0x42",
            "gasLimit" : "0x7fffffffffffffff",
            "gasUsed" : "0x00",
            "hash" : "0x71d51c14cbc2642625bbe11212d727c7f489f46aa11648a24a6a8ce4c3c765ee",
            "mixHash" : "0x56e81f171bcc55a6ff8345e692c0f86e5b48e01b996cadc001622fb5e363b421",
            "nonce" : "0x0102030405060708",
            "number" : "0x00",
            "parentHash" : "0x0000000000000000000000000000000000000000000000000000000000000000",
            "receiptTrie" : "0x56e81f171bcc55a6ff8345e692c0f86e5b48e01b996cadc001622fb5e363b421",
            "stateRoot" : "0x0c87e68d197783bf332e918b94279e40597bc7d23f0ab97b8d07c1017d9ffaa2",
            "timestamp" : "0x03b6",
            "transactionsTrie" : "0x56e81f171bcc55a6ff8345e692c0f86e5b48e01b996cadc001622fb5e363b421",
            "uncleHash" : "0x1dcc4de8dec75d7aab85b567b6ccd41ad312451b948a7413f0a142fd40d49347"
        },
        "genesisRLP" : "0xf901fff901faa00000000000000000000000000000000000000000000000000000000000000000a01dcc4de8dec75d7aab85b567b6ccd41ad312451b948a7413f0a142fd40d4934794945304eb96065b2a98b57a48a06ae28d285a71b5a00c87e68d197783bf332e918b94279e40597bc7d23f0ab97b8d07c1017d9ffaa2a056e81f171bcc55a6ff8345e692c0f86e5b48e01b996cadc001622fb5e363b421a056e81f171bcc55a6ff8345e692c0f86e5b48e01b996cadc001622fb5e363b421b90100000000000000000000000000000000000000000000000000000000000000000000000000000000000000000000000000000000000000000000000000000000000000000000000000000000000000000000000000000000000000000000000000000000000000000000000000000000000000000000000000000000000000000000000000000000000000000000000000000000000000000000000000000000000000000000000000000000000000000000000000000000000000000000000000000000000000000000000000000000000000000000000000000000000000000000000000000000000000000000000000000000000000000000000000000000008302000080887fffffffffffffff808203b642a056e81f171bcc55a6ff8345e692c0f86e5b48e01b996cadc001622fb5e363b421880102030405060708c0c0",
        "lastblockhash" : "0xf69facc9fdac99a93c4b2358a12b1c2e8d72eafaf078c5b50052a3bbfe932072",
        "network" : "EIP150",
        "postState" : {
            "0x095e7baea6a6c7c4c2dfeb977efac326af552d87" : {
                "balance" : "0x0de0b6b3a76586a0",
                "code" : "0x41421942450855678a044455",
                "nonce" : "0x00",
                "storage" : {
                    "0x80000000000003e7" : "0x945304eb96065b2a98b57a48a06ae28d285a71b5"
                }
            },
            "0x945304eb96065b2a98b57a48a06ae28d285a71b5" : {
                "balance" : "0x4563918244f4a0b0",
                "code" : "0x6000355415600957005b60203560003555",
                "nonce" : "0x00",
                "storage" : {
                }
            },
            "0xa94f5374fce5edbc8e2a8697c15331677e6ebf0b" : {
                "balance" : "0x0de0b6b3a761d8de",
                "code" : "",
                "nonce" : "0x01",
                "storage" : {
                }
            }
        },
        "pre" : {
            "0x095e7baea6a6c7c4c2dfeb977efac326af552d87" : {
                "balance" : "0x0de0b6b3a7640000",
                "code" : "0x41421942450855678a044455",
                "nonce" : "0x00",
                "storage" : {
                }
            },
            "0x945304eb96065b2a98b57a48a06ae28d285a71b5" : {
                "balance" : "0x2e",
                "code" : "0x6000355415600957005b60203560003555",
                "nonce" : "0x00",
                "storage" : {
                }
            },
            "0xa94f5374fce5edbc8e2a8697c15331677e6ebf0b" : {
                "balance" : "0x0de0b6b3a7640000",
                "code" : "",
                "nonce" : "0x00",
                "storage" : {
                }
            }
        }
    },
    "randomStatetest241_d0g0v0_EIP158" : {
        "_info" : {
            "comment" : "",
            "filledwith" : "cpp-1.3.0+commit.4e101574.Linux.g++",
            "lllcversion" : "Version: 0.4.18-develop.2017.10.11+commit.81f9f86c.Linux.g++",
            "source" : "src/BlockchainTestsFiller/GeneralStateTests/stRandom/randomStatetest241_d0g0v0Filler.json",
            "sourceHash" : "116e76ee752c0851bb75db8ad09d92416342a9569ff68a6a9b953a653f6885a8"
        },
        "blocks" : [
            {
                "blockHeader" : {
                    "bloom" : "0x00000000000000000000000000000000000000000000000000000000000000000000000000000000000000000000000000000000000000000000000000000000000000000000000000000000000000000000000000000000000000000000000000000000000000000000000000000000000000000000000000000000000000000000000000000000000000000000000000000000000000000000000000000000000000000000000000000000000000000000000000000000000000000000000000000000000000000000000000000000000000000000000000000000000000000000000000000000000000000000000000000000000000000000000000000000",
                    "coinbase" : "0x945304eb96065b2a98b57a48a06ae28d285a71b5",
                    "difficulty" : "0x020000",
                    "extraData" : "",
                    "gasLimit" : "0x7fffffffffffffff",
                    "gasUsed" : "0xa082",
                    "hash" : "0xa2d8bed36554e351255c365beb143d1638e1efbac7ccb8c7678d896cc106dc96",
                    "mixHash" : "0x6e8a84cebf83335ae7df93ae35cf64a30edd7839662e898c863ec0712cf4cf17",
                    "nonce" : "0x56821ea3f9fa192c",
                    "number" : "0x01",
                    "parentHash" : "0x71d51c14cbc2642625bbe11212d727c7f489f46aa11648a24a6a8ce4c3c765ee",
                    "receiptTrie" : "0x7b29aa4a88c65ae15cd028e24c609340a5de5e14a8f11c727e41dc96cddc1563",
                    "stateRoot" : "0xb5a9c70c320f60732dcd1722d74e86f8e412039c76584e00d9006ab628e2055a",
                    "timestamp" : "0x03e8",
                    "transactionsTrie" : "0xea2c23140f9304ac644ed2168d38810b255563a317f85d94b1417efe60e9c67f",
                    "uncleHash" : "0x1dcc4de8dec75d7aab85b567b6ccd41ad312451b948a7413f0a142fd40d49347"
                },
                "rlp" : "0xf90267f901fca071d51c14cbc2642625bbe11212d727c7f489f46aa11648a24a6a8ce4c3c765eea01dcc4de8dec75d7aab85b567b6ccd41ad312451b948a7413f0a142fd40d4934794945304eb96065b2a98b57a48a06ae28d285a71b5a0b5a9c70c320f60732dcd1722d74e86f8e412039c76584e00d9006ab628e2055aa0ea2c23140f9304ac644ed2168d38810b255563a317f85d94b1417efe60e9c67fa07b29aa4a88c65ae15cd028e24c609340a5de5e14a8f11c727e41dc96cddc1563b90100000000000000000000000000000000000000000000000000000000000000000000000000000000000000000000000000000000000000000000000000000000000000000000000000000000000000000000000000000000000000000000000000000000000000000000000000000000000000000000000000000000000000000000000000000000000000000000000000000000000000000000000000000000000000000000000000000000000000000000000000000000000000000000000000000000000000000000000000000000000000000000000000000000000000000000000000000000000000000000000000000000000000000000000000000000008302000001887fffffffffffffff82a0828203e880a06e8a84cebf83335ae7df93ae35cf64a30edd7839662e898c863ec0712cf4cf178856821ea3f9fa192cf865f863800183061a8094095e7baea6a6c7c4c2dfeb977efac326af552d87830186a0421ba0cd95e27b278d4519277b0d2675dc5a4ba134a179c9161b08907df9f1f8309765a078634240a51c2e3d932e8dd4cf5befb3ced234cde11c6d2a23fd47d2e96bfdffc0",
                "transactions" : [
                    {
                        "data" : "0x42",
                        "gasLimit" : "0x061a80",
                        "gasPrice" : "0x01",
                        "nonce" : "0x00",
                        "r" : "0xcd95e27b278d4519277b0d2675dc5a4ba134a179c9161b08907df9f1f8309765",
                        "s" : "0x78634240a51c2e3d932e8dd4cf5befb3ced234cde11c6d2a23fd47d2e96bfdff",
                        "to" : "0x095e7baea6a6c7c4c2dfeb977efac326af552d87",
                        "v" : "0x1b",
                        "value" : "0x0186a0"
                    }
                ],
                "uncleHeaders" : [
                ]
            }
        ],
        "genesisBlockHeader" : {
            "bloom" : "0x00000000000000000000000000000000000000000000000000000000000000000000000000000000000000000000000000000000000000000000000000000000000000000000000000000000000000000000000000000000000000000000000000000000000000000000000000000000000000000000000000000000000000000000000000000000000000000000000000000000000000000000000000000000000000000000000000000000000000000000000000000000000000000000000000000000000000000000000000000000000000000000000000000000000000000000000000000000000000000000000000000000000000000000000000000000",
            "coinbase" : "0x945304eb96065b2a98b57a48a06ae28d285a71b5",
            "difficulty" : "0x020000",
            "extraData" : "0x42",
            "gasLimit" : "0x7fffffffffffffff",
            "gasUsed" : "0x00",
            "hash" : "0x71d51c14cbc2642625bbe11212d727c7f489f46aa11648a24a6a8ce4c3c765ee",
            "mixHash" : "0x56e81f171bcc55a6ff8345e692c0f86e5b48e01b996cadc001622fb5e363b421",
            "nonce" : "0x0102030405060708",
            "number" : "0x00",
            "parentHash" : "0x0000000000000000000000000000000000000000000000000000000000000000",
            "receiptTrie" : "0x56e81f171bcc55a6ff8345e692c0f86e5b48e01b996cadc001622fb5e363b421",
            "stateRoot" : "0x0c87e68d197783bf332e918b94279e40597bc7d23f0ab97b8d07c1017d9ffaa2",
            "timestamp" : "0x03b6",
            "transactionsTrie" : "0x56e81f171bcc55a6ff8345e692c0f86e5b48e01b996cadc001622fb5e363b421",
            "uncleHash" : "0x1dcc4de8dec75d7aab85b567b6ccd41ad312451b948a7413f0a142fd40d49347"
        },
        "genesisRLP" : "0xf901fff901faa00000000000000000000000000000000000000000000000000000000000000000a01dcc4de8dec75d7aab85b567b6ccd41ad312451b948a7413f0a142fd40d4934794945304eb96065b2a98b57a48a06ae28d285a71b5a00c87e68d197783bf332e918b94279e40597bc7d23f0ab97b8d07c1017d9ffaa2a056e81f171bcc55a6ff8345e692c0f86e5b48e01b996cadc001622fb5e363b421a056e81f171bcc55a6ff8345e692c0f86e5b48e01b996cadc001622fb5e363b421b90100000000000000000000000000000000000000000000000000000000000000000000000000000000000000000000000000000000000000000000000000000000000000000000000000000000000000000000000000000000000000000000000000000000000000000000000000000000000000000000000000000000000000000000000000000000000000000000000000000000000000000000000000000000000000000000000000000000000000000000000000000000000000000000000000000000000000000000000000000000000000000000000000000000000000000000000000000000000000000000000000000000000000000000000000000000008302000080887fffffffffffffff808203b642a056e81f171bcc55a6ff8345e692c0f86e5b48e01b996cadc001622fb5e363b421880102030405060708c0c0",
        "lastblockhash" : "0xa2d8bed36554e351255c365beb143d1638e1efbac7ccb8c7678d896cc106dc96",
        "network" : "EIP158",
        "postState" : {
            "0x095e7baea6a6c7c4c2dfeb977efac326af552d87" : {
                "balance" : "0x0de0b6b3a76586a0",
                "code" : "0x41421942450855678a044455",
                "nonce" : "0x00",
                "storage" : {
                    "0x80000000000003e7" : "0x945304eb96065b2a98b57a48a06ae28d285a71b5"
                }
            },
            "0x945304eb96065b2a98b57a48a06ae28d285a71b5" : {
                "balance" : "0x4563918244f4a0b0",
                "code" : "0x6000355415600957005b60203560003555",
                "nonce" : "0x00",
                "storage" : {
                }
            },
            "0xa94f5374fce5edbc8e2a8697c15331677e6ebf0b" : {
                "balance" : "0x0de0b6b3a761d8de",
                "code" : "",
                "nonce" : "0x01",
                "storage" : {
                }
            }
        },
        "pre" : {
            "0x095e7baea6a6c7c4c2dfeb977efac326af552d87" : {
                "balance" : "0x0de0b6b3a7640000",
                "code" : "0x41421942450855678a044455",
                "nonce" : "0x00",
                "storage" : {
                }
            },
            "0x945304eb96065b2a98b57a48a06ae28d285a71b5" : {
                "balance" : "0x2e",
                "code" : "0x6000355415600957005b60203560003555",
                "nonce" : "0x00",
                "storage" : {
                }
            },
            "0xa94f5374fce5edbc8e2a8697c15331677e6ebf0b" : {
                "balance" : "0x0de0b6b3a7640000",
                "code" : "",
                "nonce" : "0x00",
                "storage" : {
                }
            }
        }
    },
    "randomStatetest241_d0g0v0_Frontier" : {
        "_info" : {
            "comment" : "",
            "filledwith" : "cpp-1.3.0+commit.4e101574.Linux.g++",
            "lllcversion" : "Version: 0.4.18-develop.2017.10.11+commit.81f9f86c.Linux.g++",
            "source" : "src/BlockchainTestsFiller/GeneralStateTests/stRandom/randomStatetest241_d0g0v0Filler.json",
            "sourceHash" : "116e76ee752c0851bb75db8ad09d92416342a9569ff68a6a9b953a653f6885a8"
        },
        "blocks" : [
            {
                "blockHeader" : {
                    "bloom" : "0x00000000000000000000000000000000000000000000000000000000000000000000000000000000000000000000000000000000000000000000000000000000000000000000000000000000000000000000000000000000000000000000000000000000000000000000000000000000000000000000000000000000000000000000000000000000000000000000000000000000000000000000000000000000000000000000000000000000000000000000000000000000000000000000000000000000000000000000000000000000000000000000000000000000000000000000000000000000000000000000000000000000000000000000000000000000",
                    "coinbase" : "0x945304eb96065b2a98b57a48a06ae28d285a71b5",
                    "difficulty" : "0x020000",
                    "extraData" : "",
                    "gasLimit" : "0x7fffffffffffffff",
                    "gasUsed" : "0xa082",
                    "hash" : "0xcf4a1f72c39d56c153c78edede68393e495323b3225a1d0c6c2143a1cf979924",
                    "mixHash" : "0xc0cecd4c9967c6025f24153ab1103ecc0878209b47633e000948efe615086ede",
                    "nonce" : "0x3b52591e8b7f1a5e",
                    "number" : "0x01",
                    "parentHash" : "0x71d51c14cbc2642625bbe11212d727c7f489f46aa11648a24a6a8ce4c3c765ee",
                    "receiptTrie" : "0x7b29aa4a88c65ae15cd028e24c609340a5de5e14a8f11c727e41dc96cddc1563",
                    "stateRoot" : "0xb5a9c70c320f60732dcd1722d74e86f8e412039c76584e00d9006ab628e2055a",
                    "timestamp" : "0x03e8",
                    "transactionsTrie" : "0xea2c23140f9304ac644ed2168d38810b255563a317f85d94b1417efe60e9c67f",
                    "uncleHash" : "0x1dcc4de8dec75d7aab85b567b6ccd41ad312451b948a7413f0a142fd40d49347"
                },
                "rlp" : "0xf90267f901fca071d51c14cbc2642625bbe11212d727c7f489f46aa11648a24a6a8ce4c3c765eea01dcc4de8dec75d7aab85b567b6ccd41ad312451b948a7413f0a142fd40d4934794945304eb96065b2a98b57a48a06ae28d285a71b5a0b5a9c70c320f60732dcd1722d74e86f8e412039c76584e00d9006ab628e2055aa0ea2c23140f9304ac644ed2168d38810b255563a317f85d94b1417efe60e9c67fa07b29aa4a88c65ae15cd028e24c609340a5de5e14a8f11c727e41dc96cddc1563b90100000000000000000000000000000000000000000000000000000000000000000000000000000000000000000000000000000000000000000000000000000000000000000000000000000000000000000000000000000000000000000000000000000000000000000000000000000000000000000000000000000000000000000000000000000000000000000000000000000000000000000000000000000000000000000000000000000000000000000000000000000000000000000000000000000000000000000000000000000000000000000000000000000000000000000000000000000000000000000000000000000000000000000000000000000000008302000001887fffffffffffffff82a0828203e880a0c0cecd4c9967c6025f24153ab1103ecc0878209b47633e000948efe615086ede883b52591e8b7f1a5ef865f863800183061a8094095e7baea6a6c7c4c2dfeb977efac326af552d87830186a0421ba0cd95e27b278d4519277b0d2675dc5a4ba134a179c9161b08907df9f1f8309765a078634240a51c2e3d932e8dd4cf5befb3ced234cde11c6d2a23fd47d2e96bfdffc0",
                "transactions" : [
                    {
                        "data" : "0x42",
                        "gasLimit" : "0x061a80",
                        "gasPrice" : "0x01",
                        "nonce" : "0x00",
                        "r" : "0xcd95e27b278d4519277b0d2675dc5a4ba134a179c9161b08907df9f1f8309765",
                        "s" : "0x78634240a51c2e3d932e8dd4cf5befb3ced234cde11c6d2a23fd47d2e96bfdff",
                        "to" : "0x095e7baea6a6c7c4c2dfeb977efac326af552d87",
                        "v" : "0x1b",
                        "value" : "0x0186a0"
                    }
                ],
                "uncleHeaders" : [
                ]
            }
        ],
        "genesisBlockHeader" : {
            "bloom" : "0x00000000000000000000000000000000000000000000000000000000000000000000000000000000000000000000000000000000000000000000000000000000000000000000000000000000000000000000000000000000000000000000000000000000000000000000000000000000000000000000000000000000000000000000000000000000000000000000000000000000000000000000000000000000000000000000000000000000000000000000000000000000000000000000000000000000000000000000000000000000000000000000000000000000000000000000000000000000000000000000000000000000000000000000000000000000",
            "coinbase" : "0x945304eb96065b2a98b57a48a06ae28d285a71b5",
            "difficulty" : "0x020000",
            "extraData" : "0x42",
            "gasLimit" : "0x7fffffffffffffff",
            "gasUsed" : "0x00",
            "hash" : "0x71d51c14cbc2642625bbe11212d727c7f489f46aa11648a24a6a8ce4c3c765ee",
            "mixHash" : "0x56e81f171bcc55a6ff8345e692c0f86e5b48e01b996cadc001622fb5e363b421",
            "nonce" : "0x0102030405060708",
            "number" : "0x00",
            "parentHash" : "0x0000000000000000000000000000000000000000000000000000000000000000",
            "receiptTrie" : "0x56e81f171bcc55a6ff8345e692c0f86e5b48e01b996cadc001622fb5e363b421",
            "stateRoot" : "0x0c87e68d197783bf332e918b94279e40597bc7d23f0ab97b8d07c1017d9ffaa2",
            "timestamp" : "0x03b6",
            "transactionsTrie" : "0x56e81f171bcc55a6ff8345e692c0f86e5b48e01b996cadc001622fb5e363b421",
            "uncleHash" : "0x1dcc4de8dec75d7aab85b567b6ccd41ad312451b948a7413f0a142fd40d49347"
        },
        "genesisRLP" : "0xf901fff901faa00000000000000000000000000000000000000000000000000000000000000000a01dcc4de8dec75d7aab85b567b6ccd41ad312451b948a7413f0a142fd40d4934794945304eb96065b2a98b57a48a06ae28d285a71b5a00c87e68d197783bf332e918b94279e40597bc7d23f0ab97b8d07c1017d9ffaa2a056e81f171bcc55a6ff8345e692c0f86e5b48e01b996cadc001622fb5e363b421a056e81f171bcc55a6ff8345e692c0f86e5b48e01b996cadc001622fb5e363b421b90100000000000000000000000000000000000000000000000000000000000000000000000000000000000000000000000000000000000000000000000000000000000000000000000000000000000000000000000000000000000000000000000000000000000000000000000000000000000000000000000000000000000000000000000000000000000000000000000000000000000000000000000000000000000000000000000000000000000000000000000000000000000000000000000000000000000000000000000000000000000000000000000000000000000000000000000000000000000000000000000000000000000000000000000000000000008302000080887fffffffffffffff808203b642a056e81f171bcc55a6ff8345e692c0f86e5b48e01b996cadc001622fb5e363b421880102030405060708c0c0",
        "lastblockhash" : "0xcf4a1f72c39d56c153c78edede68393e495323b3225a1d0c6c2143a1cf979924",
        "network" : "Frontier",
        "postState" : {
            "0x095e7baea6a6c7c4c2dfeb977efac326af552d87" : {
                "balance" : "0x0de0b6b3a76586a0",
                "code" : "0x41421942450855678a044455",
                "nonce" : "0x00",
                "storage" : {
                    "0x80000000000003e7" : "0x945304eb96065b2a98b57a48a06ae28d285a71b5"
                }
            },
            "0x945304eb96065b2a98b57a48a06ae28d285a71b5" : {
                "balance" : "0x4563918244f4a0b0",
                "code" : "0x6000355415600957005b60203560003555",
                "nonce" : "0x00",
                "storage" : {
                }
            },
            "0xa94f5374fce5edbc8e2a8697c15331677e6ebf0b" : {
                "balance" : "0x0de0b6b3a761d8de",
                "code" : "",
                "nonce" : "0x01",
                "storage" : {
                }
            }
        },
        "pre" : {
            "0x095e7baea6a6c7c4c2dfeb977efac326af552d87" : {
                "balance" : "0x0de0b6b3a7640000",
                "code" : "0x41421942450855678a044455",
                "nonce" : "0x00",
                "storage" : {
                }
            },
            "0x945304eb96065b2a98b57a48a06ae28d285a71b5" : {
                "balance" : "0x2e",
                "code" : "0x6000355415600957005b60203560003555",
                "nonce" : "0x00",
                "storage" : {
                }
            },
            "0xa94f5374fce5edbc8e2a8697c15331677e6ebf0b" : {
                "balance" : "0x0de0b6b3a7640000",
                "code" : "",
                "nonce" : "0x00",
                "storage" : {
                }
            }
        }
    },
    "randomStatetest241_d0g0v0_Homestead" : {
        "_info" : {
            "comment" : "",
            "filledwith" : "cpp-1.3.0+commit.4e101574.Linux.g++",
            "lllcversion" : "Version: 0.4.18-develop.2017.10.11+commit.81f9f86c.Linux.g++",
            "source" : "src/BlockchainTestsFiller/GeneralStateTests/stRandom/randomStatetest241_d0g0v0Filler.json",
            "sourceHash" : "116e76ee752c0851bb75db8ad09d92416342a9569ff68a6a9b953a653f6885a8"
        },
        "blocks" : [
            {
                "blockHeader" : {
                    "bloom" : "0x00000000000000000000000000000000000000000000000000000000000000000000000000000000000000000000000000000000000000000000000000000000000000000000000000000000000000000000000000000000000000000000000000000000000000000000000000000000000000000000000000000000000000000000000000000000000000000000000000000000000000000000000000000000000000000000000000000000000000000000000000000000000000000000000000000000000000000000000000000000000000000000000000000000000000000000000000000000000000000000000000000000000000000000000000000000",
                    "coinbase" : "0x945304eb96065b2a98b57a48a06ae28d285a71b5",
                    "difficulty" : "0x020000",
                    "extraData" : "",
                    "gasLimit" : "0x7fffffffffffffff",
                    "gasUsed" : "0xa082",
                    "hash" : "0xb6aeb563c245d7dc7d9b875ac84199c0788fa010f31525947242b4da3211d612",
                    "mixHash" : "0x305331dc3c647a9a8abd44f8513834602222feedb9d506f4d025ae5784ec1369",
                    "nonce" : "0x45e63e1d9ad54264",
                    "number" : "0x01",
                    "parentHash" : "0x71d51c14cbc2642625bbe11212d727c7f489f46aa11648a24a6a8ce4c3c765ee",
                    "receiptTrie" : "0x7b29aa4a88c65ae15cd028e24c609340a5de5e14a8f11c727e41dc96cddc1563",
                    "stateRoot" : "0xb5a9c70c320f60732dcd1722d74e86f8e412039c76584e00d9006ab628e2055a",
                    "timestamp" : "0x03e8",
                    "transactionsTrie" : "0xea2c23140f9304ac644ed2168d38810b255563a317f85d94b1417efe60e9c67f",
                    "uncleHash" : "0x1dcc4de8dec75d7aab85b567b6ccd41ad312451b948a7413f0a142fd40d49347"
                },
                "rlp" : "0xf90267f901fca071d51c14cbc2642625bbe11212d727c7f489f46aa11648a24a6a8ce4c3c765eea01dcc4de8dec75d7aab85b567b6ccd41ad312451b948a7413f0a142fd40d4934794945304eb96065b2a98b57a48a06ae28d285a71b5a0b5a9c70c320f60732dcd1722d74e86f8e412039c76584e00d9006ab628e2055aa0ea2c23140f9304ac644ed2168d38810b255563a317f85d94b1417efe60e9c67fa07b29aa4a88c65ae15cd028e24c609340a5de5e14a8f11c727e41dc96cddc1563b90100000000000000000000000000000000000000000000000000000000000000000000000000000000000000000000000000000000000000000000000000000000000000000000000000000000000000000000000000000000000000000000000000000000000000000000000000000000000000000000000000000000000000000000000000000000000000000000000000000000000000000000000000000000000000000000000000000000000000000000000000000000000000000000000000000000000000000000000000000000000000000000000000000000000000000000000000000000000000000000000000000000000000000000000000000000008302000001887fffffffffffffff82a0828203e880a0305331dc3c647a9a8abd44f8513834602222feedb9d506f4d025ae5784ec13698845e63e1d9ad54264f865f863800183061a8094095e7baea6a6c7c4c2dfeb977efac326af552d87830186a0421ba0cd95e27b278d4519277b0d2675dc5a4ba134a179c9161b08907df9f1f8309765a078634240a51c2e3d932e8dd4cf5befb3ced234cde11c6d2a23fd47d2e96bfdffc0",
                "transactions" : [
                    {
                        "data" : "0x42",
                        "gasLimit" : "0x061a80",
                        "gasPrice" : "0x01",
                        "nonce" : "0x00",
                        "r" : "0xcd95e27b278d4519277b0d2675dc5a4ba134a179c9161b08907df9f1f8309765",
                        "s" : "0x78634240a51c2e3d932e8dd4cf5befb3ced234cde11c6d2a23fd47d2e96bfdff",
                        "to" : "0x095e7baea6a6c7c4c2dfeb977efac326af552d87",
                        "v" : "0x1b",
                        "value" : "0x0186a0"
                    }
                ],
                "uncleHeaders" : [
                ]
            }
        ],
        "genesisBlockHeader" : {
            "bloom" : "0x00000000000000000000000000000000000000000000000000000000000000000000000000000000000000000000000000000000000000000000000000000000000000000000000000000000000000000000000000000000000000000000000000000000000000000000000000000000000000000000000000000000000000000000000000000000000000000000000000000000000000000000000000000000000000000000000000000000000000000000000000000000000000000000000000000000000000000000000000000000000000000000000000000000000000000000000000000000000000000000000000000000000000000000000000000000",
            "coinbase" : "0x945304eb96065b2a98b57a48a06ae28d285a71b5",
            "difficulty" : "0x020000",
            "extraData" : "0x42",
            "gasLimit" : "0x7fffffffffffffff",
            "gasUsed" : "0x00",
            "hash" : "0x71d51c14cbc2642625bbe11212d727c7f489f46aa11648a24a6a8ce4c3c765ee",
            "mixHash" : "0x56e81f171bcc55a6ff8345e692c0f86e5b48e01b996cadc001622fb5e363b421",
            "nonce" : "0x0102030405060708",
            "number" : "0x00",
            "parentHash" : "0x0000000000000000000000000000000000000000000000000000000000000000",
            "receiptTrie" : "0x56e81f171bcc55a6ff8345e692c0f86e5b48e01b996cadc001622fb5e363b421",
            "stateRoot" : "0x0c87e68d197783bf332e918b94279e40597bc7d23f0ab97b8d07c1017d9ffaa2",
            "timestamp" : "0x03b6",
            "transactionsTrie" : "0x56e81f171bcc55a6ff8345e692c0f86e5b48e01b996cadc001622fb5e363b421",
            "uncleHash" : "0x1dcc4de8dec75d7aab85b567b6ccd41ad312451b948a7413f0a142fd40d49347"
        },
        "genesisRLP" : "0xf901fff901faa00000000000000000000000000000000000000000000000000000000000000000a01dcc4de8dec75d7aab85b567b6ccd41ad312451b948a7413f0a142fd40d4934794945304eb96065b2a98b57a48a06ae28d285a71b5a00c87e68d197783bf332e918b94279e40597bc7d23f0ab97b8d07c1017d9ffaa2a056e81f171bcc55a6ff8345e692c0f86e5b48e01b996cadc001622fb5e363b421a056e81f171bcc55a6ff8345e692c0f86e5b48e01b996cadc001622fb5e363b421b90100000000000000000000000000000000000000000000000000000000000000000000000000000000000000000000000000000000000000000000000000000000000000000000000000000000000000000000000000000000000000000000000000000000000000000000000000000000000000000000000000000000000000000000000000000000000000000000000000000000000000000000000000000000000000000000000000000000000000000000000000000000000000000000000000000000000000000000000000000000000000000000000000000000000000000000000000000000000000000000000000000000000000000000000000000000008302000080887fffffffffffffff808203b642a056e81f171bcc55a6ff8345e692c0f86e5b48e01b996cadc001622fb5e363b421880102030405060708c0c0",
        "lastblockhash" : "0xb6aeb563c245d7dc7d9b875ac84199c0788fa010f31525947242b4da3211d612",
        "network" : "Homestead",
        "postState" : {
            "0x095e7baea6a6c7c4c2dfeb977efac326af552d87" : {
                "balance" : "0x0de0b6b3a76586a0",
                "code" : "0x41421942450855678a044455",
                "nonce" : "0x00",
                "storage" : {
                    "0x80000000000003e7" : "0x945304eb96065b2a98b57a48a06ae28d285a71b5"
                }
            },
            "0x945304eb96065b2a98b57a48a06ae28d285a71b5" : {
                "balance" : "0x4563918244f4a0b0",
                "code" : "0x6000355415600957005b60203560003555",
                "nonce" : "0x00",
                "storage" : {
                }
            },
            "0xa94f5374fce5edbc8e2a8697c15331677e6ebf0b" : {
                "balance" : "0x0de0b6b3a761d8de",
                "code" : "",
                "nonce" : "0x01",
                "storage" : {
                }
            }
        },
        "pre" : {
            "0x095e7baea6a6c7c4c2dfeb977efac326af552d87" : {
                "balance" : "0x0de0b6b3a7640000",
                "code" : "0x41421942450855678a044455",
                "nonce" : "0x00",
                "storage" : {
                }
            },
            "0x945304eb96065b2a98b57a48a06ae28d285a71b5" : {
                "balance" : "0x2e",
                "code" : "0x6000355415600957005b60203560003555",
                "nonce" : "0x00",
                "storage" : {
                }
            },
            "0xa94f5374fce5edbc8e2a8697c15331677e6ebf0b" : {
                "balance" : "0x0de0b6b3a7640000",
                "code" : "",
                "nonce" : "0x00",
                "storage" : {
                }
            }
        }
    }
}