{
    "randomStatetest97_d0g0v0_Byzantium" : {
        "_info" : {
            "comment" : "",
            "filledwith" : "cpp-1.3.0+commit.4e101574.Linux.g++",
            "lllcversion" : "Version: 0.4.18-develop.2017.10.11+commit.81f9f86c.Linux.g++",
            "source" : "src/BlockchainTestsFiller/GeneralStateTests/stRandom/randomStatetest97_d0g0v0Filler.json",
            "sourceHash" : "130301c46159505208d434dcc800b9fabdef8a7fbf28dfea565a12ab70e28662"
        },
        "blocks" : [
            {
                "blockHeader" : {
                    "bloom" : "0x00000000000000000000000000000000000000000000000000000000000000000000000000000000000000000000000000000000000000000000000000000000000000000000000000000000000000000000000000000000000000000000000000000000000000000000000000000000000000000000000000000000000000000000000000000000000000000000000000000000000000000000000000000000000000000000000000000000000000000000000000000000000000000000000000000000000000000000000000000000000000000000000000000000000000000000000000000000000000000000000000000000000000000000000000000000",
                    "coinbase" : "0x945304eb96065b2a98b57a48a06ae28d285a71b5",
                    "difficulty" : "0x020000",
                    "extraData" : "",
                    "gasLimit" : "0x7fffffffffffffff",
                    "gasUsed" : "0x043f70ef",
                    "hash" : "0x12256693a7d4db6b8e902586efc58095019bbcc57fb39161438257047e8d16ec",
                    "mixHash" : "0x9c5fa0937256543d539864bf56f7759d863c8fd61825b40f7e84ef1dc88d3b51",
                    "nonce" : "0x0ad3218d4a83f394",
                    "number" : "0x01",
                    "parentHash" : "0x186cc2eee70194fd91d1f179bf7b201b7b1737e0f6d8b9bb13eb06130dd1ed62",
                    "receiptTrie" : "0x335ea290687b54de4e781c2e7c32bc9d650ab4148ff8b95aa604d75bf8276c32",
                    "stateRoot" : "0xeab8d0bac7f4192a0db07d5c355e518b298bafe8050905721e6bfbdbdb98a95c",
                    "timestamp" : "0x03e8",
                    "transactionsTrie" : "0x89a9f6bbb2c7d16f064331bb8a0e6d2f0cb7b756a58b9de5c63da6d5adf6cff4",
                    "uncleHash" : "0x1dcc4de8dec75d7aab85b567b6ccd41ad312451b948a7413f0a142fd40d49347"
                },
                "rlp" : "0xf90323f901fea0186cc2eee70194fd91d1f179bf7b201b7b1737e0f6d8b9bb13eb06130dd1ed62a01dcc4de8dec75d7aab85b567b6ccd41ad312451b948a7413f0a142fd40d4934794945304eb96065b2a98b57a48a06ae28d285a71b5a0eab8d0bac7f4192a0db07d5c355e518b298bafe8050905721e6bfbdbdb98a95ca089a9f6bbb2c7d16f064331bb8a0e6d2f0cb7b756a58b9de5c63da6d5adf6cff4a0335ea290687b54de4e781c2e7c32bc9d650ab4148ff8b95aa604d75bf8276c32b90100000000000000000000000000000000000000000000000000000000000000000000000000000000000000000000000000000000000000000000000000000000000000000000000000000000000000000000000000000000000000000000000000000000000000000000000000000000000000000000000000000000000000000000000000000000000000000000000000000000000000000000000000000000000000000000000000000000000000000000000000000000000000000000000000000000000000000000000000000000000000000000000000000000000000000000000000000000000000000000000000000000000000000000000000000000008302000001887fffffffffffffff84043f70ef8203e880a09c5fa0937256543d539864bf56f7759d863c8fd61825b40f7e84ef1dc88d3b51880ad3218d4a83f394f9011ef9011b800184043f70ef94095e7baea6a6c7c4c2dfeb977efac326af552d878414008cb2b8b57f000000000000000000000000945304eb96065b2a98b57a48a06ae28d285a71b5587f0000000000000000000000000000000000000000000000000000000000000001957f0000000000000000000000000000000000000000000000000000000000000000407f00000000000000000000000000000000000000000000000000000000000000017f000000000000000000000000000000000000000000000000000000000000c3509781040107338b35071887a1861ca0066e6224b014adec7eff79060ad455fb1f9db181a2b1117b37f97bf12fa4751ea0155f97a727698f2d391a9a228107f466685b3999c7fc583707ba74830d8e3fccc0",
                "transactions" : [
                    {
                        "data" : "0x7f000000000000000000000000945304eb96065b2a98b57a48a06ae28d285a71b5587f0000000000000000000000000000000000000000000000000000000000000001957f0000000000000000000000000000000000000000000000000000000000000000407f00000000000000000000000000000000000000000000000000000000000000017f000000000000000000000000000000000000000000000000000000000000c3509781040107338b35071887a186",
                        "gasLimit" : "0x043f70ef",
                        "gasPrice" : "0x01",
                        "nonce" : "0x00",
                        "r" : "0x066e6224b014adec7eff79060ad455fb1f9db181a2b1117b37f97bf12fa4751e",
                        "s" : "0x155f97a727698f2d391a9a228107f466685b3999c7fc583707ba74830d8e3fcc",
                        "to" : "0x095e7baea6a6c7c4c2dfeb977efac326af552d87",
                        "v" : "0x1c",
                        "value" : "0x14008cb2"
                    }
                ],
                "uncleHeaders" : [
                ]
            }
        ],
        "genesisBlockHeader" : {
            "bloom" : "0x00000000000000000000000000000000000000000000000000000000000000000000000000000000000000000000000000000000000000000000000000000000000000000000000000000000000000000000000000000000000000000000000000000000000000000000000000000000000000000000000000000000000000000000000000000000000000000000000000000000000000000000000000000000000000000000000000000000000000000000000000000000000000000000000000000000000000000000000000000000000000000000000000000000000000000000000000000000000000000000000000000000000000000000000000000000",
            "coinbase" : "0x945304eb96065b2a98b57a48a06ae28d285a71b5",
            "difficulty" : "0x020000",
            "extraData" : "0x42",
            "gasLimit" : "0x7fffffffffffffff",
            "gasUsed" : "0x00",
            "hash" : "0x186cc2eee70194fd91d1f179bf7b201b7b1737e0f6d8b9bb13eb06130dd1ed62",
            "mixHash" : "0x56e81f171bcc55a6ff8345e692c0f86e5b48e01b996cadc001622fb5e363b421",
            "nonce" : "0x0102030405060708",
            "number" : "0x00",
            "parentHash" : "0x0000000000000000000000000000000000000000000000000000000000000000",
            "receiptTrie" : "0x56e81f171bcc55a6ff8345e692c0f86e5b48e01b996cadc001622fb5e363b421",
            "stateRoot" : "0x36467c36aecf4fece24d29f14eb8ac0a07d01c5632e028e2267e69da40a45f4f",
            "timestamp" : "0x03b6",
            "transactionsTrie" : "0x56e81f171bcc55a6ff8345e692c0f86e5b48e01b996cadc001622fb5e363b421",
            "uncleHash" : "0x1dcc4de8dec75d7aab85b567b6ccd41ad312451b948a7413f0a142fd40d49347"
        },
        "genesisRLP" : "0xf901fff901faa00000000000000000000000000000000000000000000000000000000000000000a01dcc4de8dec75d7aab85b567b6ccd41ad312451b948a7413f0a142fd40d4934794945304eb96065b2a98b57a48a06ae28d285a71b5a036467c36aecf4fece24d29f14eb8ac0a07d01c5632e028e2267e69da40a45f4fa056e81f171bcc55a6ff8345e692c0f86e5b48e01b996cadc001622fb5e363b421a056e81f171bcc55a6ff8345e692c0f86e5b48e01b996cadc001622fb5e363b421b90100000000000000000000000000000000000000000000000000000000000000000000000000000000000000000000000000000000000000000000000000000000000000000000000000000000000000000000000000000000000000000000000000000000000000000000000000000000000000000000000000000000000000000000000000000000000000000000000000000000000000000000000000000000000000000000000000000000000000000000000000000000000000000000000000000000000000000000000000000000000000000000000000000000000000000000000000000000000000000000000000000000000000000000000000000000008302000080887fffffffffffffff808203b642a056e81f171bcc55a6ff8345e692c0f86e5b48e01b996cadc001622fb5e363b421880102030405060708c0c0",
        "lastblockhash" : "0x12256693a7d4db6b8e902586efc58095019bbcc57fb39161438257047e8d16ec",
        "network" : "Byzantium",
        "postState" : {
            "0x095e7baea6a6c7c4c2dfeb977efac326af552d87" : {
                "balance" : "0x00",
                "code" : "0x7f000000000000000000000000945304eb96065b2a98b57a48a06ae28d285a71b5587f0000000000000000000000000000000000000000000000000000000000000001957f0000000000000000000000000000000000000000000000000000000000000000407f00000000000000000000000000000000000000000000000000000000000000017f000000000000000000000000000000000000000000000000000000000000c3509781040107338b35071887a186",
                "nonce" : "0x00",
                "storage" : {
                }
            },
            "0x945304eb96065b2a98b57a48a06ae28d285a71b5" : {
                "balance" : "0x29a2241afa6b711d",
                "code" : "0x6000355415600957005b60203560003555",
                "nonce" : "0x00",
                "storage" : {
                }
            },
            "0xa94f5374fce5edbc8e2a8697c15331677e6ebf0b" : {
                "balance" : "0x0de0b6b3a3248f11",
                "code" : "",
                "nonce" : "0x01",
                "storage" : {
                }
            }
        },
        "pre" : {
            "0x095e7baea6a6c7c4c2dfeb977efac326af552d87" : {
                "balance" : "0x00",
                "code" : "0x7f000000000000000000000000945304eb96065b2a98b57a48a06ae28d285a71b5587f0000000000000000000000000000000000000000000000000000000000000001957f0000000000000000000000000000000000000000000000000000000000000000407f00000000000000000000000000000000000000000000000000000000000000017f000000000000000000000000000000000000000000000000000000000000c3509781040107338b35071887a186",
                "nonce" : "0x00",
                "storage" : {
                }
            },
            "0x945304eb96065b2a98b57a48a06ae28d285a71b5" : {
                "balance" : "0x2e",
                "code" : "0x6000355415600957005b60203560003555",
                "nonce" : "0x00",
                "storage" : {
                }
            },
            "0xa94f5374fce5edbc8e2a8697c15331677e6ebf0b" : {
                "balance" : "0x0de0b6b3a7640000",
                "code" : "",
                "nonce" : "0x00",
                "storage" : {
                }
            }
        }
    },
    "randomStatetest97_d0g0v0_EIP150" : {
        "_info" : {
            "comment" : "",
            "filledwith" : "cpp-1.3.0+commit.4e101574.Linux.g++",
            "lllcversion" : "Version: 0.4.18-develop.2017.10.11+commit.81f9f86c.Linux.g++",
            "source" : "src/BlockchainTestsFiller/GeneralStateTests/stRandom/randomStatetest97_d0g0v0Filler.json",
            "sourceHash" : "130301c46159505208d434dcc800b9fabdef8a7fbf28dfea565a12ab70e28662"
        },
        "blocks" : [
            {
                "blockHeader" : {
                    "bloom" : "0x00000000000000000000000000000000000000000000000000000000000000000000000000000000000000000000000000000000000000000000000000000000000000000000000000000000000000000000000000000000000000000000000000000000000000000000000000000000000000000000000000000000000000000000000000000000000000000000000000000000000000000000000000000000000000000000000000000000000000000000000000000000000000000000000000000000000000000000000000000000000000000000000000000000000000000000000000000000000000000000000000000000000000000000000000000000",
                    "coinbase" : "0x945304eb96065b2a98b57a48a06ae28d285a71b5",
                    "difficulty" : "0x020000",
                    "extraData" : "",
                    "gasLimit" : "0x7fffffffffffffff",
                    "gasUsed" : "0x043f70ef",
                    "hash" : "0x20e46d6844d8bb69f0fc173545c783cc2fb1e267f4b4207df047b6ffd23d6437",
                    "mixHash" : "0x7040f05165b5f58307c36d11703e81ac3cc6a9cb2f943240cc0e5ab52280a747",
                    "nonce" : "0xf9140c7d4294e96e",
                    "number" : "0x01",
                    "parentHash" : "0x186cc2eee70194fd91d1f179bf7b201b7b1737e0f6d8b9bb13eb06130dd1ed62",
                    "receiptTrie" : "0x7515707b5338ab38b65bee39ada16c735fe2818c799c819a23c35dc6c40f0c30",
                    "stateRoot" : "0x6fe4846ae209c498617ee5214b2cd563efcb63515033fbe459ec1018a6137762",
                    "timestamp" : "0x03e8",
                    "transactionsTrie" : "0x89a9f6bbb2c7d16f064331bb8a0e6d2f0cb7b756a58b9de5c63da6d5adf6cff4",
                    "uncleHash" : "0x1dcc4de8dec75d7aab85b567b6ccd41ad312451b948a7413f0a142fd40d49347"
                },
                "rlp" : "0xf90323f901fea0186cc2eee70194fd91d1f179bf7b201b7b1737e0f6d8b9bb13eb06130dd1ed62a01dcc4de8dec75d7aab85b567b6ccd41ad312451b948a7413f0a142fd40d4934794945304eb96065b2a98b57a48a06ae28d285a71b5a06fe4846ae209c498617ee5214b2cd563efcb63515033fbe459ec1018a6137762a089a9f6bbb2c7d16f064331bb8a0e6d2f0cb7b756a58b9de5c63da6d5adf6cff4a07515707b5338ab38b65bee39ada16c735fe2818c799c819a23c35dc6c40f0c30b90100000000000000000000000000000000000000000000000000000000000000000000000000000000000000000000000000000000000000000000000000000000000000000000000000000000000000000000000000000000000000000000000000000000000000000000000000000000000000000000000000000000000000000000000000000000000000000000000000000000000000000000000000000000000000000000000000000000000000000000000000000000000000000000000000000000000000000000000000000000000000000000000000000000000000000000000000000000000000000000000000000000000000000000000000000000008302000001887fffffffffffffff84043f70ef8203e880a07040f05165b5f58307c36d11703e81ac3cc6a9cb2f943240cc0e5ab52280a74788f9140c7d4294e96ef9011ef9011b800184043f70ef94095e7baea6a6c7c4c2dfeb977efac326af552d878414008cb2b8b57f000000000000000000000000945304eb96065b2a98b57a48a06ae28d285a71b5587f0000000000000000000000000000000000000000000000000000000000000001957f0000000000000000000000000000000000000000000000000000000000000000407f00000000000000000000000000000000000000000000000000000000000000017f000000000000000000000000000000000000000000000000000000000000c3509781040107338b35071887a1861ca0066e6224b014adec7eff79060ad455fb1f9db181a2b1117b37f97bf12fa4751ea0155f97a727698f2d391a9a228107f466685b3999c7fc583707ba74830d8e3fccc0",
                "transactions" : [
                    {
                        "data" : "0x7f000000000000000000000000945304eb96065b2a98b57a48a06ae28d285a71b5587f0000000000000000000000000000000000000000000000000000000000000001957f0000000000000000000000000000000000000000000000000000000000000000407f00000000000000000000000000000000000000000000000000000000000000017f000000000000000000000000000000000000000000000000000000000000c3509781040107338b35071887a186",
                        "gasLimit" : "0x043f70ef",
                        "gasPrice" : "0x01",
                        "nonce" : "0x00",
                        "r" : "0x066e6224b014adec7eff79060ad455fb1f9db181a2b1117b37f97bf12fa4751e",
                        "s" : "0x155f97a727698f2d391a9a228107f466685b3999c7fc583707ba74830d8e3fcc",
                        "to" : "0x095e7baea6a6c7c4c2dfeb977efac326af552d87",
                        "v" : "0x1c",
                        "value" : "0x14008cb2"
                    }
                ],
                "uncleHeaders" : [
                ]
            }
        ],
        "genesisBlockHeader" : {
            "bloom" : "0x00000000000000000000000000000000000000000000000000000000000000000000000000000000000000000000000000000000000000000000000000000000000000000000000000000000000000000000000000000000000000000000000000000000000000000000000000000000000000000000000000000000000000000000000000000000000000000000000000000000000000000000000000000000000000000000000000000000000000000000000000000000000000000000000000000000000000000000000000000000000000000000000000000000000000000000000000000000000000000000000000000000000000000000000000000000",
            "coinbase" : "0x945304eb96065b2a98b57a48a06ae28d285a71b5",
            "difficulty" : "0x020000",
            "extraData" : "0x42",
            "gasLimit" : "0x7fffffffffffffff",
            "gasUsed" : "0x00",
            "hash" : "0x186cc2eee70194fd91d1f179bf7b201b7b1737e0f6d8b9bb13eb06130dd1ed62",
            "mixHash" : "0x56e81f171bcc55a6ff8345e692c0f86e5b48e01b996cadc001622fb5e363b421",
            "nonce" : "0x0102030405060708",
            "number" : "0x00",
            "parentHash" : "0x0000000000000000000000000000000000000000000000000000000000000000",
            "receiptTrie" : "0x56e81f171bcc55a6ff8345e692c0f86e5b48e01b996cadc001622fb5e363b421",
            "stateRoot" : "0x36467c36aecf4fece24d29f14eb8ac0a07d01c5632e028e2267e69da40a45f4f",
            "timestamp" : "0x03b6",
            "transactionsTrie" : "0x56e81f171bcc55a6ff8345e692c0f86e5b48e01b996cadc001622fb5e363b421",
            "uncleHash" : "0x1dcc4de8dec75d7aab85b567b6ccd41ad312451b948a7413f0a142fd40d49347"
        },
        "genesisRLP" : "0xf901fff901faa00000000000000000000000000000000000000000000000000000000000000000a01dcc4de8dec75d7aab85b567b6ccd41ad312451b948a7413f0a142fd40d4934794945304eb96065b2a98b57a48a06ae28d285a71b5a036467c36aecf4fece24d29f14eb8ac0a07d01c5632e028e2267e69da40a45f4fa056e81f171bcc55a6ff8345e692c0f86e5b48e01b996cadc001622fb5e363b421a056e81f171bcc55a6ff8345e692c0f86e5b48e01b996cadc001622fb5e363b421b90100000000000000000000000000000000000000000000000000000000000000000000000000000000000000000000000000000000000000000000000000000000000000000000000000000000000000000000000000000000000000000000000000000000000000000000000000000000000000000000000000000000000000000000000000000000000000000000000000000000000000000000000000000000000000000000000000000000000000000000000000000000000000000000000000000000000000000000000000000000000000000000000000000000000000000000000000000000000000000000000000000000000000000000000000000000008302000080887fffffffffffffff808203b642a056e81f171bcc55a6ff8345e692c0f86e5b48e01b996cadc001622fb5e363b421880102030405060708c0c0",
        "lastblockhash" : "0x20e46d6844d8bb69f0fc173545c783cc2fb1e267f4b4207df047b6ffd23d6437",
        "network" : "EIP150",
        "postState" : {
            "0x095e7baea6a6c7c4c2dfeb977efac326af552d87" : {
                "balance" : "0x00",
                "code" : "0x7f000000000000000000000000945304eb96065b2a98b57a48a06ae28d285a71b5587f0000000000000000000000000000000000000000000000000000000000000001957f0000000000000000000000000000000000000000000000000000000000000000407f00000000000000000000000000000000000000000000000000000000000000017f000000000000000000000000000000000000000000000000000000000000c3509781040107338b35071887a186",
                "nonce" : "0x00",
                "storage" : {
                }
            },
            "0x945304eb96065b2a98b57a48a06ae28d285a71b5" : {
                "balance" : "0x456391824933711d",
                "code" : "0x6000355415600957005b60203560003555",
                "nonce" : "0x00",
                "storage" : {
                }
            },
            "0xa94f5374fce5edbc8e2a8697c15331677e6ebf0b" : {
                "balance" : "0x0de0b6b3a3248f11",
                "code" : "",
                "nonce" : "0x01",
                "storage" : {
                }
            }
        },
        "pre" : {
            "0x095e7baea6a6c7c4c2dfeb977efac326af552d87" : {
                "balance" : "0x00",
                "code" : "0x7f000000000000000000000000945304eb96065b2a98b57a48a06ae28d285a71b5587f0000000000000000000000000000000000000000000000000000000000000001957f0000000000000000000000000000000000000000000000000000000000000000407f00000000000000000000000000000000000000000000000000000000000000017f000000000000000000000000000000000000000000000000000000000000c3509781040107338b35071887a186",
                "nonce" : "0x00",
                "storage" : {
                }
            },
            "0x945304eb96065b2a98b57a48a06ae28d285a71b5" : {
                "balance" : "0x2e",
                "code" : "0x6000355415600957005b60203560003555",
                "nonce" : "0x00",
                "storage" : {
                }
            },
            "0xa94f5374fce5edbc8e2a8697c15331677e6ebf0b" : {
                "balance" : "0x0de0b6b3a7640000",
                "code" : "",
                "nonce" : "0x00",
                "storage" : {
                }
            }
        }
    },
    "randomStatetest97_d0g0v0_EIP158" : {
        "_info" : {
            "comment" : "",
            "filledwith" : "cpp-1.3.0+commit.4e101574.Linux.g++",
            "lllcversion" : "Version: 0.4.18-develop.2017.10.11+commit.81f9f86c.Linux.g++",
            "source" : "src/BlockchainTestsFiller/GeneralStateTests/stRandom/randomStatetest97_d0g0v0Filler.json",
            "sourceHash" : "130301c46159505208d434dcc800b9fabdef8a7fbf28dfea565a12ab70e28662"
        },
        "blocks" : [
            {
                "blockHeader" : {
                    "bloom" : "0x00000000000000000000000000000000000000000000000000000000000000000000000000000000000000000000000000000000000000000000000000000000000000000000000000000000000000000000000000000000000000000000000000000000000000000000000000000000000000000000000000000000000000000000000000000000000000000000000000000000000000000000000000000000000000000000000000000000000000000000000000000000000000000000000000000000000000000000000000000000000000000000000000000000000000000000000000000000000000000000000000000000000000000000000000000000",
                    "coinbase" : "0x945304eb96065b2a98b57a48a06ae28d285a71b5",
                    "difficulty" : "0x020000",
                    "extraData" : "",
                    "gasLimit" : "0x7fffffffffffffff",
                    "gasUsed" : "0x043f70ef",
                    "hash" : "0x8171b2f1b801132f17aceacd7af41a6a8fe5c09d8a53e64d0cdd4e3540c429f5",
                    "mixHash" : "0x08e8dcce545739e6930bfc9dcf97c1115253de30c10f89743c1e6c0cf3f74f1e",
                    "nonce" : "0xa94278be15c0ce01",
                    "number" : "0x01",
                    "parentHash" : "0x186cc2eee70194fd91d1f179bf7b201b7b1737e0f6d8b9bb13eb06130dd1ed62",
                    "receiptTrie" : "0x7515707b5338ab38b65bee39ada16c735fe2818c799c819a23c35dc6c40f0c30",
                    "stateRoot" : "0x6fe4846ae209c498617ee5214b2cd563efcb63515033fbe459ec1018a6137762",
                    "timestamp" : "0x03e8",
                    "transactionsTrie" : "0x89a9f6bbb2c7d16f064331bb8a0e6d2f0cb7b756a58b9de5c63da6d5adf6cff4",
                    "uncleHash" : "0x1dcc4de8dec75d7aab85b567b6ccd41ad312451b948a7413f0a142fd40d49347"
                },
                "rlp" : "0xf90323f901fea0186cc2eee70194fd91d1f179bf7b201b7b1737e0f6d8b9bb13eb06130dd1ed62a01dcc4de8dec75d7aab85b567b6ccd41ad312451b948a7413f0a142fd40d4934794945304eb96065b2a98b57a48a06ae28d285a71b5a06fe4846ae209c498617ee5214b2cd563efcb63515033fbe459ec1018a6137762a089a9f6bbb2c7d16f064331bb8a0e6d2f0cb7b756a58b9de5c63da6d5adf6cff4a07515707b5338ab38b65bee39ada16c735fe2818c799c819a23c35dc6c40f0c30b90100000000000000000000000000000000000000000000000000000000000000000000000000000000000000000000000000000000000000000000000000000000000000000000000000000000000000000000000000000000000000000000000000000000000000000000000000000000000000000000000000000000000000000000000000000000000000000000000000000000000000000000000000000000000000000000000000000000000000000000000000000000000000000000000000000000000000000000000000000000000000000000000000000000000000000000000000000000000000000000000000000000000000000000000000000000008302000001887fffffffffffffff84043f70ef8203e880a008e8dcce545739e6930bfc9dcf97c1115253de30c10f89743c1e6c0cf3f74f1e88a94278be15c0ce01f9011ef9011b800184043f70ef94095e7baea6a6c7c4c2dfeb977efac326af552d878414008cb2b8b57f000000000000000000000000945304eb96065b2a98b57a48a06ae28d285a71b5587f0000000000000000000000000000000000000000000000000000000000000001957f0000000000000000000000000000000000000000000000000000000000000000407f00000000000000000000000000000000000000000000000000000000000000017f000000000000000000000000000000000000000000000000000000000000c3509781040107338b35071887a1861ca0066e6224b014adec7eff79060ad455fb1f9db181a2b1117b37f97bf12fa4751ea0155f97a727698f2d391a9a228107f466685b3999c7fc583707ba74830d8e3fccc0",
                "transactions" : [
                    {
                        "data" : "0x7f000000000000000000000000945304eb96065b2a98b57a48a06ae28d285a71b5587f0000000000000000000000000000000000000000000000000000000000000001957f0000000000000000000000000000000000000000000000000000000000000000407f00000000000000000000000000000000000000000000000000000000000000017f000000000000000000000000000000000000000000000000000000000000c3509781040107338b35071887a186",
                        "gasLimit" : "0x043f70ef",
                        "gasPrice" : "0x01",
                        "nonce" : "0x00",
                        "r" : "0x066e6224b014adec7eff79060ad455fb1f9db181a2b1117b37f97bf12fa4751e",
                        "s" : "0x155f97a727698f2d391a9a228107f466685b3999c7fc583707ba74830d8e3fcc",
                        "to" : "0x095e7baea6a6c7c4c2dfeb977efac326af552d87",
                        "v" : "0x1c",
                        "value" : "0x14008cb2"
                    }
                ],
                "uncleHeaders" : [
                ]
            }
        ],
        "genesisBlockHeader" : {
            "bloom" : "0x00000000000000000000000000000000000000000000000000000000000000000000000000000000000000000000000000000000000000000000000000000000000000000000000000000000000000000000000000000000000000000000000000000000000000000000000000000000000000000000000000000000000000000000000000000000000000000000000000000000000000000000000000000000000000000000000000000000000000000000000000000000000000000000000000000000000000000000000000000000000000000000000000000000000000000000000000000000000000000000000000000000000000000000000000000000",
            "coinbase" : "0x945304eb96065b2a98b57a48a06ae28d285a71b5",
            "difficulty" : "0x020000",
            "extraData" : "0x42",
            "gasLimit" : "0x7fffffffffffffff",
            "gasUsed" : "0x00",
            "hash" : "0x186cc2eee70194fd91d1f179bf7b201b7b1737e0f6d8b9bb13eb06130dd1ed62",
            "mixHash" : "0x56e81f171bcc55a6ff8345e692c0f86e5b48e01b996cadc001622fb5e363b421",
            "nonce" : "0x0102030405060708",
            "number" : "0x00",
            "parentHash" : "0x0000000000000000000000000000000000000000000000000000000000000000",
            "receiptTrie" : "0x56e81f171bcc55a6ff8345e692c0f86e5b48e01b996cadc001622fb5e363b421",
            "stateRoot" : "0x36467c36aecf4fece24d29f14eb8ac0a07d01c5632e028e2267e69da40a45f4f",
            "timestamp" : "0x03b6",
            "transactionsTrie" : "0x56e81f171bcc55a6ff8345e692c0f86e5b48e01b996cadc001622fb5e363b421",
            "uncleHash" : "0x1dcc4de8dec75d7aab85b567b6ccd41ad312451b948a7413f0a142fd40d49347"
        },
        "genesisRLP" : "0xf901fff901faa00000000000000000000000000000000000000000000000000000000000000000a01dcc4de8dec75d7aab85b567b6ccd41ad312451b948a7413f0a142fd40d4934794945304eb96065b2a98b57a48a06ae28d285a71b5a036467c36aecf4fece24d29f14eb8ac0a07d01c5632e028e2267e69da40a45f4fa056e81f171bcc55a6ff8345e692c0f86e5b48e01b996cadc001622fb5e363b421a056e81f171bcc55a6ff8345e692c0f86e5b48e01b996cadc001622fb5e363b421b90100000000000000000000000000000000000000000000000000000000000000000000000000000000000000000000000000000000000000000000000000000000000000000000000000000000000000000000000000000000000000000000000000000000000000000000000000000000000000000000000000000000000000000000000000000000000000000000000000000000000000000000000000000000000000000000000000000000000000000000000000000000000000000000000000000000000000000000000000000000000000000000000000000000000000000000000000000000000000000000000000000000000000000000000000000000008302000080887fffffffffffffff808203b642a056e81f171bcc55a6ff8345e692c0f86e5b48e01b996cadc001622fb5e363b421880102030405060708c0c0",
        "lastblockhash" : "0x8171b2f1b801132f17aceacd7af41a6a8fe5c09d8a53e64d0cdd4e3540c429f5",
        "network" : "EIP158",
        "postState" : {
            "0x095e7baea6a6c7c4c2dfeb977efac326af552d87" : {
                "balance" : "0x00",
                "code" : "0x7f000000000000000000000000945304eb96065b2a98b57a48a06ae28d285a71b5587f0000000000000000000000000000000000000000000000000000000000000001957f0000000000000000000000000000000000000000000000000000000000000000407f00000000000000000000000000000000000000000000000000000000000000017f000000000000000000000000000000000000000000000000000000000000c3509781040107338b35071887a186",
                "nonce" : "0x00",
                "storage" : {
                }
            },
            "0x945304eb96065b2a98b57a48a06ae28d285a71b5" : {
                "balance" : "0x456391824933711d",
                "code" : "0x6000355415600957005b60203560003555",
                "nonce" : "0x00",
                "storage" : {
                }
            },
            "0xa94f5374fce5edbc8e2a8697c15331677e6ebf0b" : {
                "balance" : "0x0de0b6b3a3248f11",
                "code" : "",
                "nonce" : "0x01",
                "storage" : {
                }
            }
        },
        "pre" : {
            "0x095e7baea6a6c7c4c2dfeb977efac326af552d87" : {
                "balance" : "0x00",
                "code" : "0x7f000000000000000000000000945304eb96065b2a98b57a48a06ae28d285a71b5587f0000000000000000000000000000000000000000000000000000000000000001957f0000000000000000000000000000000000000000000000000000000000000000407f00000000000000000000000000000000000000000000000000000000000000017f000000000000000000000000000000000000000000000000000000000000c3509781040107338b35071887a186",
                "nonce" : "0x00",
                "storage" : {
                }
            },
            "0x945304eb96065b2a98b57a48a06ae28d285a71b5" : {
                "balance" : "0x2e",
                "code" : "0x6000355415600957005b60203560003555",
                "nonce" : "0x00",
                "storage" : {
                }
            },
            "0xa94f5374fce5edbc8e2a8697c15331677e6ebf0b" : {
                "balance" : "0x0de0b6b3a7640000",
                "code" : "",
                "nonce" : "0x00",
                "storage" : {
                }
            }
        }
    },
    "randomStatetest97_d0g0v0_Frontier" : {
        "_info" : {
            "comment" : "",
            "filledwith" : "cpp-1.3.0+commit.4e101574.Linux.g++",
            "lllcversion" : "Version: 0.4.18-develop.2017.10.11+commit.81f9f86c.Linux.g++",
            "source" : "src/BlockchainTestsFiller/GeneralStateTests/stRandom/randomStatetest97_d0g0v0Filler.json",
            "sourceHash" : "130301c46159505208d434dcc800b9fabdef8a7fbf28dfea565a12ab70e28662"
        },
        "blocks" : [
            {
                "blockHeader" : {
                    "bloom" : "0x00000000000000000000000000000000000000000000000000000000000000000000000000000000000000000000000000000000000000000000000000000000000000000000000000000000000000000000000000000000000000000000000000000000000000000000000000000000000000000000000000000000000000000000000000000000000000000000000000000000000000000000000000000000000000000000000000000000000000000000000000000000000000000000000000000000000000000000000000000000000000000000000000000000000000000000000000000000000000000000000000000000000000000000000000000000",
                    "coinbase" : "0x945304eb96065b2a98b57a48a06ae28d285a71b5",
                    "difficulty" : "0x020000",
                    "extraData" : "",
                    "gasLimit" : "0x7fffffffffffffff",
                    "gasUsed" : "0x043f70ef",
                    "hash" : "0xa279281276b8b36471ddc04e907d6bfb6e03e22bfbeafed01258bc3edba9144a",
                    "mixHash" : "0xa3abd0ca85f3d14cbf9d14e1778982522d217eb0d274056daac8d86283a01310",
                    "nonce" : "0xd4c288db169d8b4b",
                    "number" : "0x01",
                    "parentHash" : "0x186cc2eee70194fd91d1f179bf7b201b7b1737e0f6d8b9bb13eb06130dd1ed62",
                    "receiptTrie" : "0x7515707b5338ab38b65bee39ada16c735fe2818c799c819a23c35dc6c40f0c30",
                    "stateRoot" : "0x6fe4846ae209c498617ee5214b2cd563efcb63515033fbe459ec1018a6137762",
                    "timestamp" : "0x03e8",
                    "transactionsTrie" : "0x89a9f6bbb2c7d16f064331bb8a0e6d2f0cb7b756a58b9de5c63da6d5adf6cff4",
                    "uncleHash" : "0x1dcc4de8dec75d7aab85b567b6ccd41ad312451b948a7413f0a142fd40d49347"
                },
                "rlp" : "0xf90323f901fea0186cc2eee70194fd91d1f179bf7b201b7b1737e0f6d8b9bb13eb06130dd1ed62a01dcc4de8dec75d7aab85b567b6ccd41ad312451b948a7413f0a142fd40d4934794945304eb96065b2a98b57a48a06ae28d285a71b5a06fe4846ae209c498617ee5214b2cd563efcb63515033fbe459ec1018a6137762a089a9f6bbb2c7d16f064331bb8a0e6d2f0cb7b756a58b9de5c63da6d5adf6cff4a07515707b5338ab38b65bee39ada16c735fe2818c799c819a23c35dc6c40f0c30b90100000000000000000000000000000000000000000000000000000000000000000000000000000000000000000000000000000000000000000000000000000000000000000000000000000000000000000000000000000000000000000000000000000000000000000000000000000000000000000000000000000000000000000000000000000000000000000000000000000000000000000000000000000000000000000000000000000000000000000000000000000000000000000000000000000000000000000000000000000000000000000000000000000000000000000000000000000000000000000000000000000000000000000000000000000000008302000001887fffffffffffffff84043f70ef8203e880a0a3abd0ca85f3d14cbf9d14e1778982522d217eb0d274056daac8d86283a0131088d4c288db169d8b4bf9011ef9011b800184043f70ef94095e7baea6a6c7c4c2dfeb977efac326af552d878414008cb2b8b57f000000000000000000000000945304eb96065b2a98b57a48a06ae28d285a71b5587f0000000000000000000000000000000000000000000000000000000000000001957f0000000000000000000000000000000000000000000000000000000000000000407f00000000000000000000000000000000000000000000000000000000000000017f000000000000000000000000000000000000000000000000000000000000c3509781040107338b35071887a1861ca0066e6224b014adec7eff79060ad455fb1f9db181a2b1117b37f97bf12fa4751ea0155f97a727698f2d391a9a228107f466685b3999c7fc583707ba74830d8e3fccc0",
                "transactions" : [
                    {
                        "data" : "0x7f000000000000000000000000945304eb96065b2a98b57a48a06ae28d285a71b5587f0000000000000000000000000000000000000000000000000000000000000001957f0000000000000000000000000000000000000000000000000000000000000000407f00000000000000000000000000000000000000000000000000000000000000017f000000000000000000000000000000000000000000000000000000000000c3509781040107338b35071887a186",
                        "gasLimit" : "0x043f70ef",
                        "gasPrice" : "0x01",
                        "nonce" : "0x00",
                        "r" : "0x066e6224b014adec7eff79060ad455fb1f9db181a2b1117b37f97bf12fa4751e",
                        "s" : "0x155f97a727698f2d391a9a228107f466685b3999c7fc583707ba74830d8e3fcc",
                        "to" : "0x095e7baea6a6c7c4c2dfeb977efac326af552d87",
                        "v" : "0x1c",
                        "value" : "0x14008cb2"
                    }
                ],
                "uncleHeaders" : [
                ]
            }
        ],
        "genesisBlockHeader" : {
            "bloom" : "0x00000000000000000000000000000000000000000000000000000000000000000000000000000000000000000000000000000000000000000000000000000000000000000000000000000000000000000000000000000000000000000000000000000000000000000000000000000000000000000000000000000000000000000000000000000000000000000000000000000000000000000000000000000000000000000000000000000000000000000000000000000000000000000000000000000000000000000000000000000000000000000000000000000000000000000000000000000000000000000000000000000000000000000000000000000000",
            "coinbase" : "0x945304eb96065b2a98b57a48a06ae28d285a71b5",
            "difficulty" : "0x020000",
            "extraData" : "0x42",
            "gasLimit" : "0x7fffffffffffffff",
            "gasUsed" : "0x00",
            "hash" : "0x186cc2eee70194fd91d1f179bf7b201b7b1737e0f6d8b9bb13eb06130dd1ed62",
            "mixHash" : "0x56e81f171bcc55a6ff8345e692c0f86e5b48e01b996cadc001622fb5e363b421",
            "nonce" : "0x0102030405060708",
            "number" : "0x00",
            "parentHash" : "0x0000000000000000000000000000000000000000000000000000000000000000",
            "receiptTrie" : "0x56e81f171bcc55a6ff8345e692c0f86e5b48e01b996cadc001622fb5e363b421",
            "stateRoot" : "0x36467c36aecf4fece24d29f14eb8ac0a07d01c5632e028e2267e69da40a45f4f",
            "timestamp" : "0x03b6",
            "transactionsTrie" : "0x56e81f171bcc55a6ff8345e692c0f86e5b48e01b996cadc001622fb5e363b421",
            "uncleHash" : "0x1dcc4de8dec75d7aab85b567b6ccd41ad312451b948a7413f0a142fd40d49347"
        },
        "genesisRLP" : "0xf901fff901faa00000000000000000000000000000000000000000000000000000000000000000a01dcc4de8dec75d7aab85b567b6ccd41ad312451b948a7413f0a142fd40d4934794945304eb96065b2a98b57a48a06ae28d285a71b5a036467c36aecf4fece24d29f14eb8ac0a07d01c5632e028e2267e69da40a45f4fa056e81f171bcc55a6ff8345e692c0f86e5b48e01b996cadc001622fb5e363b421a056e81f171bcc55a6ff8345e692c0f86e5b48e01b996cadc001622fb5e363b421b90100000000000000000000000000000000000000000000000000000000000000000000000000000000000000000000000000000000000000000000000000000000000000000000000000000000000000000000000000000000000000000000000000000000000000000000000000000000000000000000000000000000000000000000000000000000000000000000000000000000000000000000000000000000000000000000000000000000000000000000000000000000000000000000000000000000000000000000000000000000000000000000000000000000000000000000000000000000000000000000000000000000000000000000000000000000008302000080887fffffffffffffff808203b642a056e81f171bcc55a6ff8345e692c0f86e5b48e01b996cadc001622fb5e363b421880102030405060708c0c0",
        "lastblockhash" : "0xa279281276b8b36471ddc04e907d6bfb6e03e22bfbeafed01258bc3edba9144a",
        "network" : "Frontier",
        "postState" : {
            "0x095e7baea6a6c7c4c2dfeb977efac326af552d87" : {
                "balance" : "0x00",
                "code" : "0x7f000000000000000000000000945304eb96065b2a98b57a48a06ae28d285a71b5587f0000000000000000000000000000000000000000000000000000000000000001957f0000000000000000000000000000000000000000000000000000000000000000407f00000000000000000000000000000000000000000000000000000000000000017f000000000000000000000000000000000000000000000000000000000000c3509781040107338b35071887a186",
                "nonce" : "0x00",
                "storage" : {
                }
            },
            "0x945304eb96065b2a98b57a48a06ae28d285a71b5" : {
                "balance" : "0x456391824933711d",
                "code" : "0x6000355415600957005b60203560003555",
                "nonce" : "0x00",
                "storage" : {
                }
            },
            "0xa94f5374fce5edbc8e2a8697c15331677e6ebf0b" : {
                "balance" : "0x0de0b6b3a3248f11",
                "code" : "",
                "nonce" : "0x01",
                "storage" : {
                }
            }
        },
        "pre" : {
            "0x095e7baea6a6c7c4c2dfeb977efac326af552d87" : {
                "balance" : "0x00",
                "code" : "0x7f000000000000000000000000945304eb96065b2a98b57a48a06ae28d285a71b5587f0000000000000000000000000000000000000000000000000000000000000001957f0000000000000000000000000000000000000000000000000000000000000000407f00000000000000000000000000000000000000000000000000000000000000017f000000000000000000000000000000000000000000000000000000000000c3509781040107338b35071887a186",
                "nonce" : "0x00",
                "storage" : {
                }
            },
            "0x945304eb96065b2a98b57a48a06ae28d285a71b5" : {
                "balance" : "0x2e",
                "code" : "0x6000355415600957005b60203560003555",
                "nonce" : "0x00",
                "storage" : {
                }
            },
            "0xa94f5374fce5edbc8e2a8697c15331677e6ebf0b" : {
                "balance" : "0x0de0b6b3a7640000",
                "code" : "",
                "nonce" : "0x00",
                "storage" : {
                }
            }
        }
    },
    "randomStatetest97_d0g0v0_Homestead" : {
        "_info" : {
            "comment" : "",
            "filledwith" : "cpp-1.3.0+commit.4e101574.Linux.g++",
            "lllcversion" : "Version: 0.4.18-develop.2017.10.11+commit.81f9f86c.Linux.g++",
            "source" : "src/BlockchainTestsFiller/GeneralStateTests/stRandom/randomStatetest97_d0g0v0Filler.json",
            "sourceHash" : "130301c46159505208d434dcc800b9fabdef8a7fbf28dfea565a12ab70e28662"
        },
        "blocks" : [
            {
                "blockHeader" : {
                    "bloom" : "0x00000000000000000000000000000000000000000000000000000000000000000000000000000000000000000000000000000000000000000000000000000000000000000000000000000000000000000000000000000000000000000000000000000000000000000000000000000000000000000000000000000000000000000000000000000000000000000000000000000000000000000000000000000000000000000000000000000000000000000000000000000000000000000000000000000000000000000000000000000000000000000000000000000000000000000000000000000000000000000000000000000000000000000000000000000000",
                    "coinbase" : "0x945304eb96065b2a98b57a48a06ae28d285a71b5",
                    "difficulty" : "0x020000",
                    "extraData" : "",
                    "gasLimit" : "0x7fffffffffffffff",
                    "gasUsed" : "0x043f70ef",
                    "hash" : "0x0bcc232696e455b7c527f2b12e27357950e172430de0765b15cd06fec0e33ae2",
                    "mixHash" : "0x66769977f773f85c38b368ed5e8f6f0510bfceae46e8237b2711aefd78cffdc4",
                    "nonce" : "0x583b2c7871540bd4",
                    "number" : "0x01",
                    "parentHash" : "0x186cc2eee70194fd91d1f179bf7b201b7b1737e0f6d8b9bb13eb06130dd1ed62",
                    "receiptTrie" : "0x7515707b5338ab38b65bee39ada16c735fe2818c799c819a23c35dc6c40f0c30",
                    "stateRoot" : "0x6fe4846ae209c498617ee5214b2cd563efcb63515033fbe459ec1018a6137762",
                    "timestamp" : "0x03e8",
                    "transactionsTrie" : "0x89a9f6bbb2c7d16f064331bb8a0e6d2f0cb7b756a58b9de5c63da6d5adf6cff4",
                    "uncleHash" : "0x1dcc4de8dec75d7aab85b567b6ccd41ad312451b948a7413f0a142fd40d49347"
                },
                "rlp" : "0xf90323f901fea0186cc2eee70194fd91d1f179bf7b201b7b1737e0f6d8b9bb13eb06130dd1ed62a01dcc4de8dec75d7aab85b567b6ccd41ad312451b948a7413f0a142fd40d4934794945304eb96065b2a98b57a48a06ae28d285a71b5a06fe4846ae209c498617ee5214b2cd563efcb63515033fbe459ec1018a6137762a089a9f6bbb2c7d16f064331bb8a0e6d2f0cb7b756a58b9de5c63da6d5adf6cff4a07515707b5338ab38b65bee39ada16c735fe2818c799c819a23c35dc6c40f0c30b90100000000000000000000000000000000000000000000000000000000000000000000000000000000000000000000000000000000000000000000000000000000000000000000000000000000000000000000000000000000000000000000000000000000000000000000000000000000000000000000000000000000000000000000000000000000000000000000000000000000000000000000000000000000000000000000000000000000000000000000000000000000000000000000000000000000000000000000000000000000000000000000000000000000000000000000000000000000000000000000000000000000000000000000000000000000008302000001887fffffffffffffff84043f70ef8203e880a066769977f773f85c38b368ed5e8f6f0510bfceae46e8237b2711aefd78cffdc488583b2c7871540bd4f9011ef9011b800184043f70ef94095e7baea6a6c7c4c2dfeb977efac326af552d878414008cb2b8b57f000000000000000000000000945304eb96065b2a98b57a48a06ae28d285a71b5587f0000000000000000000000000000000000000000000000000000000000000001957f0000000000000000000000000000000000000000000000000000000000000000407f00000000000000000000000000000000000000000000000000000000000000017f000000000000000000000000000000000000000000000000000000000000c3509781040107338b35071887a1861ca0066e6224b014adec7eff79060ad455fb1f9db181a2b1117b37f97bf12fa4751ea0155f97a727698f2d391a9a228107f466685b3999c7fc583707ba74830d8e3fccc0",
                "transactions" : [
                    {
                        "data" : "0x7f000000000000000000000000945304eb96065b2a98b57a48a06ae28d285a71b5587f0000000000000000000000000000000000000000000000000000000000000001957f0000000000000000000000000000000000000000000000000000000000000000407f00000000000000000000000000000000000000000000000000000000000000017f000000000000000000000000000000000000000000000000000000000000c3509781040107338b35071887a186",
                        "gasLimit" : "0x043f70ef",
                        "gasPrice" : "0x01",
                        "nonce" : "0x00",
                        "r" : "0x066e6224b014adec7eff79060ad455fb1f9db181a2b1117b37f97bf12fa4751e",
                        "s" : "0x155f97a727698f2d391a9a228107f466685b3999c7fc583707ba74830d8e3fcc",
                        "to" : "0x095e7baea6a6c7c4c2dfeb977efac326af552d87",
                        "v" : "0x1c",
                        "value" : "0x14008cb2"
                    }
                ],
                "uncleHeaders" : [
                ]
            }
        ],
        "genesisBlockHeader" : {
            "bloom" : "0x00000000000000000000000000000000000000000000000000000000000000000000000000000000000000000000000000000000000000000000000000000000000000000000000000000000000000000000000000000000000000000000000000000000000000000000000000000000000000000000000000000000000000000000000000000000000000000000000000000000000000000000000000000000000000000000000000000000000000000000000000000000000000000000000000000000000000000000000000000000000000000000000000000000000000000000000000000000000000000000000000000000000000000000000000000000",
            "coinbase" : "0x945304eb96065b2a98b57a48a06ae28d285a71b5",
            "difficulty" : "0x020000",
            "extraData" : "0x42",
            "gasLimit" : "0x7fffffffffffffff",
            "gasUsed" : "0x00",
            "hash" : "0x186cc2eee70194fd91d1f179bf7b201b7b1737e0f6d8b9bb13eb06130dd1ed62",
            "mixHash" : "0x56e81f171bcc55a6ff8345e692c0f86e5b48e01b996cadc001622fb5e363b421",
            "nonce" : "0x0102030405060708",
            "number" : "0x00",
            "parentHash" : "0x0000000000000000000000000000000000000000000000000000000000000000",
            "receiptTrie" : "0x56e81f171bcc55a6ff8345e692c0f86e5b48e01b996cadc001622fb5e363b421",
            "stateRoot" : "0x36467c36aecf4fece24d29f14eb8ac0a07d01c5632e028e2267e69da40a45f4f",
            "timestamp" : "0x03b6",
            "transactionsTrie" : "0x56e81f171bcc55a6ff8345e692c0f86e5b48e01b996cadc001622fb5e363b421",
            "uncleHash" : "0x1dcc4de8dec75d7aab85b567b6ccd41ad312451b948a7413f0a142fd40d49347"
        },
        "genesisRLP" : "0xf901fff901faa00000000000000000000000000000000000000000000000000000000000000000a01dcc4de8dec75d7aab85b567b6ccd41ad312451b948a7413f0a142fd40d4934794945304eb96065b2a98b57a48a06ae28d285a71b5a036467c36aecf4fece24d29f14eb8ac0a07d01c5632e028e2267e69da40a45f4fa056e81f171bcc55a6ff8345e692c0f86e5b48e01b996cadc001622fb5e363b421a056e81f171bcc55a6ff8345e692c0f86e5b48e01b996cadc001622fb5e363b421b90100000000000000000000000000000000000000000000000000000000000000000000000000000000000000000000000000000000000000000000000000000000000000000000000000000000000000000000000000000000000000000000000000000000000000000000000000000000000000000000000000000000000000000000000000000000000000000000000000000000000000000000000000000000000000000000000000000000000000000000000000000000000000000000000000000000000000000000000000000000000000000000000000000000000000000000000000000000000000000000000000000000000000000000000000000000008302000080887fffffffffffffff808203b642a056e81f171bcc55a6ff8345e692c0f86e5b48e01b996cadc001622fb5e363b421880102030405060708c0c0",
        "lastblockhash" : "0x0bcc232696e455b7c527f2b12e27357950e172430de0765b15cd06fec0e33ae2",
        "network" : "Homestead",
        "postState" : {
            "0x095e7baea6a6c7c4c2dfeb977efac326af552d87" : {
                "balance" : "0x00",
                "code" : "0x7f000000000000000000000000945304eb96065b2a98b57a48a06ae28d285a71b5587f0000000000000000000000000000000000000000000000000000000000000001957f0000000000000000000000000000000000000000000000000000000000000000407f00000000000000000000000000000000000000000000000000000000000000017f000000000000000000000000000000000000000000000000000000000000c3509781040107338b35071887a186",
                "nonce" : "0x00",
                "storage" : {
                }
            },
            "0x945304eb96065b2a98b57a48a06ae28d285a71b5" : {
                "balance" : "0x456391824933711d",
                "code" : "0x6000355415600957005b60203560003555",
                "nonce" : "0x00",
                "storage" : {
                }
            },
            "0xa94f5374fce5edbc8e2a8697c15331677e6ebf0b" : {
                "balance" : "0x0de0b6b3a3248f11",
                "code" : "",
                "nonce" : "0x01",
                "storage" : {
                }
            }
        },
        "pre" : {
            "0x095e7baea6a6c7c4c2dfeb977efac326af552d87" : {
                "balance" : "0x00",
                "code" : "0x7f000000000000000000000000945304eb96065b2a98b57a48a06ae28d285a71b5587f0000000000000000000000000000000000000000000000000000000000000001957f0000000000000000000000000000000000000000000000000000000000000000407f00000000000000000000000000000000000000000000000000000000000000017f000000000000000000000000000000000000000000000000000000000000c3509781040107338b35071887a186",
                "nonce" : "0x00",
                "storage" : {
                }
            },
            "0x945304eb96065b2a98b57a48a06ae28d285a71b5" : {
                "balance" : "0x2e",
                "code" : "0x6000355415600957005b60203560003555",
                "nonce" : "0x00",
                "storage" : {
                }
            },
            "0xa94f5374fce5edbc8e2a8697c15331677e6ebf0b" : {
                "balance" : "0x0de0b6b3a7640000",
                "code" : "",
                "nonce" : "0x00",
                "storage" : {
                }
            }
        }
    }
}