{
    "randomStatetest111_d0g0v0_Byzantium" : {
        "_info" : {
            "comment" : "",
            "filledwith" : "cpp-1.3.0+commit.4e101574.Linux.g++",
            "lllcversion" : "Version: 0.4.18-develop.2017.10.11+commit.81f9f86c.Linux.g++",
            "source" : "src/BlockchainTestsFiller/GeneralStateTests/stRandom/randomStatetest111_d0g0v0Filler.json",
            "sourceHash" : "62e1577b9834f3f6cc5acf3872142ae5d8ae475ea20836c92e1a4235f2370826"
        },
        "blocks" : [
            {
                "blockHeader" : {
                    "bloom" : "0x00000000000000001000000000000000000000000000000000000000000000000000000000000000000000000000000000000000000000000000000000000000000000000000000000000000000000000000000000000000000000000000000000000010000000000000000000000000000000000000000000000000000000000000000000000000000000002000000000000000000000000000000000000000000000000000000004000000000000000000000000000000000000000000000000000000000000000000000000000000000000000000000000000000000000000000000040080000000000000000000000000000000000000000000000000000",
                    "coinbase" : "0x945304eb96065b2a98b57a48a06ae28d285a71b5",
                    "difficulty" : "0x020000",
                    "extraData" : "",
                    "gasLimit" : "0x7fffffffffffffff",
                    "gasUsed" : "0x06a827",
                    "hash" : "0xfc932f5f9fba4c91be0ac7c84ca9b3e46bea5bf62be9ce797c1d6078fa02940f",
                    "mixHash" : "0x687a03156a04713e31e52d7b28d5d6f61066c69d4e09d3d4fb851ec309f288b3",
                    "nonce" : "0x3827701d4ff2c0b1",
                    "number" : "0x01",
                    "parentHash" : "0xf086904645e059c4e0f54ee8a7775bffc8903d786d0f84d0c6b69b33da587d0b",
                    "receiptTrie" : "0xb02c90332d8518e596591bdc69150f5433e4427933286b82d443465100b56703",
                    "stateRoot" : "0x94c6051591edec500a6408f8dcf15993bfd17c30c9176bfff4949e92b2c1de15",
                    "timestamp" : "0x03e8",
                    "transactionsTrie" : "0xd5b6fc7075bb88ebdb94a9fadf671c1fd6d8b61362769c2692c16eeaad163730",
                    "uncleHash" : "0x1dcc4de8dec75d7aab85b567b6ccd41ad312451b948a7413f0a142fd40d49347"
                },
                "rlp" : "0xf90318f901fda0f086904645e059c4e0f54ee8a7775bffc8903d786d0f84d0c6b69b33da587d0ba01dcc4de8dec75d7aab85b567b6ccd41ad312451b948a7413f0a142fd40d4934794945304eb96065b2a98b57a48a06ae28d285a71b5a094c6051591edec500a6408f8dcf15993bfd17c30c9176bfff4949e92b2c1de15a0d5b6fc7075bb88ebdb94a9fadf671c1fd6d8b61362769c2692c16eeaad163730a0b02c90332d8518e596591bdc69150f5433e4427933286b82d443465100b56703b90100000000000000000010000000000000000000000000000000000000000000000000000000000000000000000000000000000000000000000000000000000000000000000000000000000000000000000000000000000000000000000000000000000000100000000000000000000000000000000000000000000000000000000000000000000000000000000020000000000000000000000000000000000000000000000000000000040000000000000000000000000000000000000000000000000000000000000000000000000000000000000000000000000000000000000000000000400800000000000000000000000000000000000000000000000000008302000001887fffffffffffffff8306a8278203e880a0687a03156a04713e31e52d7b28d5d6f61066c69d4e09d3d4fb851ec309f288b3883827701d4ff2c0b1f90114f901118001845a11064f94095e7baea6a6c7c4c2dfeb977efac326af552d8784030247dcb8ab7fffffffffffffffffffffffffffffffffffffffffffffffffffffffffffffffff7f000000000000000000000000000000000000000000000000000000000000c3507f000000000000000000000000ffffffffffffffffffffffffffffffffffffffff7f000000000000000000000000000000000000000000000000000000000000c35059a17f0000000000000000000000000000000000000000000000000000000000000001f38f07bf1ca08b7b51b0f38ddbe8b1ead1636389b3fb3a112c97017857a2f8f0d3170559d471a011edfec390d93132d51acf7527d8413d1d67cd08b30c77e49c0db8bc93655bbac0",
                "transactions" : [
                    {
                        "data" : "0x7fffffffffffffffffffffffffffffffffffffffffffffffffffffffffffffffff7f000000000000000000000000000000000000000000000000000000000000c3507f000000000000000000000000ffffffffffffffffffffffffffffffffffffffff7f000000000000000000000000000000000000000000000000000000000000c35059a17f0000000000000000000000000000000000000000000000000000000000000001f38f07bf",
                        "gasLimit" : "0x5a11064f",
                        "gasPrice" : "0x01",
                        "nonce" : "0x00",
                        "r" : "0x8b7b51b0f38ddbe8b1ead1636389b3fb3a112c97017857a2f8f0d3170559d471",
                        "s" : "0x11edfec390d93132d51acf7527d8413d1d67cd08b30c77e49c0db8bc93655bba",
                        "to" : "0x095e7baea6a6c7c4c2dfeb977efac326af552d87",
                        "v" : "0x1c",
                        "value" : "0x030247dc"
                    }
                ],
                "uncleHeaders" : [
                ]
            }
        ],
        "genesisBlockHeader" : {
            "bloom" : "0x00000000000000000000000000000000000000000000000000000000000000000000000000000000000000000000000000000000000000000000000000000000000000000000000000000000000000000000000000000000000000000000000000000000000000000000000000000000000000000000000000000000000000000000000000000000000000000000000000000000000000000000000000000000000000000000000000000000000000000000000000000000000000000000000000000000000000000000000000000000000000000000000000000000000000000000000000000000000000000000000000000000000000000000000000000000",
            "coinbase" : "0x945304eb96065b2a98b57a48a06ae28d285a71b5",
            "difficulty" : "0x020000",
            "extraData" : "0x42",
            "gasLimit" : "0x7fffffffffffffff",
            "gasUsed" : "0x00",
            "hash" : "0xf086904645e059c4e0f54ee8a7775bffc8903d786d0f84d0c6b69b33da587d0b",
            "mixHash" : "0x56e81f171bcc55a6ff8345e692c0f86e5b48e01b996cadc001622fb5e363b421",
            "nonce" : "0x0102030405060708",
            "number" : "0x00",
            "parentHash" : "0x0000000000000000000000000000000000000000000000000000000000000000",
            "receiptTrie" : "0x56e81f171bcc55a6ff8345e692c0f86e5b48e01b996cadc001622fb5e363b421",
            "stateRoot" : "0x2b1d4bc40ac0178331301cdc61aff5577414aeb868d0875c49d84c397f2ea192",
            "timestamp" : "0x03b6",
            "transactionsTrie" : "0x56e81f171bcc55a6ff8345e692c0f86e5b48e01b996cadc001622fb5e363b421",
            "uncleHash" : "0x1dcc4de8dec75d7aab85b567b6ccd41ad312451b948a7413f0a142fd40d49347"
        },
        "genesisRLP" : "0xf901fff901faa00000000000000000000000000000000000000000000000000000000000000000a01dcc4de8dec75d7aab85b567b6ccd41ad312451b948a7413f0a142fd40d4934794945304eb96065b2a98b57a48a06ae28d285a71b5a02b1d4bc40ac0178331301cdc61aff5577414aeb868d0875c49d84c397f2ea192a056e81f171bcc55a6ff8345e692c0f86e5b48e01b996cadc001622fb5e363b421a056e81f171bcc55a6ff8345e692c0f86e5b48e01b996cadc001622fb5e363b421b90100000000000000000000000000000000000000000000000000000000000000000000000000000000000000000000000000000000000000000000000000000000000000000000000000000000000000000000000000000000000000000000000000000000000000000000000000000000000000000000000000000000000000000000000000000000000000000000000000000000000000000000000000000000000000000000000000000000000000000000000000000000000000000000000000000000000000000000000000000000000000000000000000000000000000000000000000000000000000000000000000000000000000000000000000000000008302000080887fffffffffffffff808203b642a056e81f171bcc55a6ff8345e692c0f86e5b48e01b996cadc001622fb5e363b421880102030405060708c0c0",
        "lastblockhash" : "0xfc932f5f9fba4c91be0ac7c84ca9b3e46bea5bf62be9ce797c1d6078fa02940f",
        "network" : "Byzantium",
        "postState" : {
            "0x095e7baea6a6c7c4c2dfeb977efac326af552d87" : {
                "balance" : "0x030247dc",
                "code" : "0x7fffffffffffffffffffffffffffffffffffffffffffffffffffffffffffffffff7f000000000000000000000000000000000000000000000000000000000000c3507f000000000000000000000000ffffffffffffffffffffffffffffffffffffffff7f000000000000000000000000000000000000000000000000000000000000c35059a17f0000000000000000000000000000000000000000000000000000000000000001f38f07bf60005155",
                "nonce" : "0x00",
                "storage" : {
                }
            },
            "0x945304eb96065b2a98b57a48a06ae28d285a71b5" : {
                "balance" : "0x29a2241af632a855",
                "code" : "0x6000355415600957005b60203560003555",
                "nonce" : "0x00",
                "storage" : {
                }
            },
            "0xa94f5374fce5edbc8e2a8697c15331677e6ebf0b" : {
                "balance" : "0x0de0b6b3a45b0ffd",
                "code" : "",
                "nonce" : "0x01",
                "storage" : {
                }
            }
        },
        "pre" : {
            "0x095e7baea6a6c7c4c2dfeb977efac326af552d87" : {
                "balance" : "0x00",
                "code" : "0x7fffffffffffffffffffffffffffffffffffffffffffffffffffffffffffffffff7f000000000000000000000000000000000000000000000000000000000000c3507f000000000000000000000000ffffffffffffffffffffffffffffffffffffffff7f000000000000000000000000000000000000000000000000000000000000c35059a17f0000000000000000000000000000000000000000000000000000000000000001f38f07bf60005155",
                "nonce" : "0x00",
                "storage" : {
                }
            },
            "0x945304eb96065b2a98b57a48a06ae28d285a71b5" : {
                "balance" : "0x2e",
                "code" : "0x6000355415600957005b60203560003555",
                "nonce" : "0x00",
                "storage" : {
                }
            },
            "0xa94f5374fce5edbc8e2a8697c15331677e6ebf0b" : {
                "balance" : "0x0de0b6b3a7640000",
                "code" : "",
                "nonce" : "0x00",
                "storage" : {
                }
            }
        }
    },
    "randomStatetest111_d0g0v0_EIP150" : {
        "_info" : {
            "comment" : "",
            "filledwith" : "cpp-1.3.0+commit.4e101574.Linux.g++",
            "lllcversion" : "Version: 0.4.18-develop.2017.10.11+commit.81f9f86c.Linux.g++",
            "source" : "src/BlockchainTestsFiller/GeneralStateTests/stRandom/randomStatetest111_d0g0v0Filler.json",
            "sourceHash" : "62e1577b9834f3f6cc5acf3872142ae5d8ae475ea20836c92e1a4235f2370826"
        },
        "blocks" : [
            {
                "blockHeader" : {
                    "bloom" : "0x00000000000000001000000000000000000000000000000000000000000000000000000000000000000000000000000000000000000000000000000000000000000000000000000000000000000000000000000000000000000000000000000000000010000000000000000000000000000000000000000000000000000000000000000000000000000000002000000000000000000000000000000000000000000000000000000004000000000000000000000000000000000000000000000000000000000000000000000000000000000000000000000000000000000000000000000040080000000000000000000000000000000000000000000000000000",
                    "coinbase" : "0x945304eb96065b2a98b57a48a06ae28d285a71b5",
                    "difficulty" : "0x020000",
                    "extraData" : "",
                    "gasLimit" : "0x7fffffffffffffff",
                    "gasUsed" : "0x06a827",
                    "hash" : "0x099f36416991b84def918aa6c95f3d4e611ae407631ac41269d999fa19c86682",
                    "mixHash" : "0xa8c5ca7beb72b02329f0a9d5c8ba822e76de5f3f276da3cde18a8c107d223ac1",
                    "nonce" : "0x4ed51208c0a1312f",
                    "number" : "0x01",
                    "parentHash" : "0xf086904645e059c4e0f54ee8a7775bffc8903d786d0f84d0c6b69b33da587d0b",
                    "receiptTrie" : "0xab8db1f739e35a84b743aa1d1a7f898af92ec984701fc2e9a3d320f8bc3f122c",
                    "stateRoot" : "0xc7f04409da11f22c1a959cf0fcb301d3253f9e4cb47dc72d4c76df4df6b79541",
                    "timestamp" : "0x03e8",
                    "transactionsTrie" : "0xd5b6fc7075bb88ebdb94a9fadf671c1fd6d8b61362769c2692c16eeaad163730",
                    "uncleHash" : "0x1dcc4de8dec75d7aab85b567b6ccd41ad312451b948a7413f0a142fd40d49347"
                },
                "rlp" : "0xf90318f901fda0f086904645e059c4e0f54ee8a7775bffc8903d786d0f84d0c6b69b33da587d0ba01dcc4de8dec75d7aab85b567b6ccd41ad312451b948a7413f0a142fd40d4934794945304eb96065b2a98b57a48a06ae28d285a71b5a0c7f04409da11f22c1a959cf0fcb301d3253f9e4cb47dc72d4c76df4df6b79541a0d5b6fc7075bb88ebdb94a9fadf671c1fd6d8b61362769c2692c16eeaad163730a0ab8db1f739e35a84b743aa1d1a7f898af92ec984701fc2e9a3d320f8bc3f122cb90100000000000000000010000000000000000000000000000000000000000000000000000000000000000000000000000000000000000000000000000000000000000000000000000000000000000000000000000000000000000000000000000000000000100000000000000000000000000000000000000000000000000000000000000000000000000000000020000000000000000000000000000000000000000000000000000000040000000000000000000000000000000000000000000000000000000000000000000000000000000000000000000000000000000000000000000000400800000000000000000000000000000000000000000000000000008302000001887fffffffffffffff8306a8278203e880a0a8c5ca7beb72b02329f0a9d5c8ba822e76de5f3f276da3cde18a8c107d223ac1884ed51208c0a1312ff90114f901118001845a11064f94095e7baea6a6c7c4c2dfeb977efac326af552d8784030247dcb8ab7fffffffffffffffffffffffffffffffffffffffffffffffffffffffffffffffff7f000000000000000000000000000000000000000000000000000000000000c3507f000000000000000000000000ffffffffffffffffffffffffffffffffffffffff7f000000000000000000000000000000000000000000000000000000000000c35059a17f0000000000000000000000000000000000000000000000000000000000000001f38f07bf1ca08b7b51b0f38ddbe8b1ead1636389b3fb3a112c97017857a2f8f0d3170559d471a011edfec390d93132d51acf7527d8413d1d67cd08b30c77e49c0db8bc93655bbac0",
                "transactions" : [
                    {
                        "data" : "0x7fffffffffffffffffffffffffffffffffffffffffffffffffffffffffffffffff7f000000000000000000000000000000000000000000000000000000000000c3507f000000000000000000000000ffffffffffffffffffffffffffffffffffffffff7f000000000000000000000000000000000000000000000000000000000000c35059a17f0000000000000000000000000000000000000000000000000000000000000001f38f07bf",
                        "gasLimit" : "0x5a11064f",
                        "gasPrice" : "0x01",
                        "nonce" : "0x00",
                        "r" : "0x8b7b51b0f38ddbe8b1ead1636389b3fb3a112c97017857a2f8f0d3170559d471",
                        "s" : "0x11edfec390d93132d51acf7527d8413d1d67cd08b30c77e49c0db8bc93655bba",
                        "to" : "0x095e7baea6a6c7c4c2dfeb977efac326af552d87",
                        "v" : "0x1c",
                        "value" : "0x030247dc"
                    }
                ],
                "uncleHeaders" : [
                ]
            }
        ],
        "genesisBlockHeader" : {
            "bloom" : "0x00000000000000000000000000000000000000000000000000000000000000000000000000000000000000000000000000000000000000000000000000000000000000000000000000000000000000000000000000000000000000000000000000000000000000000000000000000000000000000000000000000000000000000000000000000000000000000000000000000000000000000000000000000000000000000000000000000000000000000000000000000000000000000000000000000000000000000000000000000000000000000000000000000000000000000000000000000000000000000000000000000000000000000000000000000000",
            "coinbase" : "0x945304eb96065b2a98b57a48a06ae28d285a71b5",
            "difficulty" : "0x020000",
            "extraData" : "0x42",
            "gasLimit" : "0x7fffffffffffffff",
            "gasUsed" : "0x00",
            "hash" : "0xf086904645e059c4e0f54ee8a7775bffc8903d786d0f84d0c6b69b33da587d0b",
            "mixHash" : "0x56e81f171bcc55a6ff8345e692c0f86e5b48e01b996cadc001622fb5e363b421",
            "nonce" : "0x0102030405060708",
            "number" : "0x00",
            "parentHash" : "0x0000000000000000000000000000000000000000000000000000000000000000",
            "receiptTrie" : "0x56e81f171bcc55a6ff8345e692c0f86e5b48e01b996cadc001622fb5e363b421",
            "stateRoot" : "0x2b1d4bc40ac0178331301cdc61aff5577414aeb868d0875c49d84c397f2ea192",
            "timestamp" : "0x03b6",
            "transactionsTrie" : "0x56e81f171bcc55a6ff8345e692c0f86e5b48e01b996cadc001622fb5e363b421",
            "uncleHash" : "0x1dcc4de8dec75d7aab85b567b6ccd41ad312451b948a7413f0a142fd40d49347"
        },
        "genesisRLP" : "0xf901fff901faa00000000000000000000000000000000000000000000000000000000000000000a01dcc4de8dec75d7aab85b567b6ccd41ad312451b948a7413f0a142fd40d4934794945304eb96065b2a98b57a48a06ae28d285a71b5a02b1d4bc40ac0178331301cdc61aff5577414aeb868d0875c49d84c397f2ea192a056e81f171bcc55a6ff8345e692c0f86e5b48e01b996cadc001622fb5e363b421a056e81f171bcc55a6ff8345e692c0f86e5b48e01b996cadc001622fb5e363b421b90100000000000000000000000000000000000000000000000000000000000000000000000000000000000000000000000000000000000000000000000000000000000000000000000000000000000000000000000000000000000000000000000000000000000000000000000000000000000000000000000000000000000000000000000000000000000000000000000000000000000000000000000000000000000000000000000000000000000000000000000000000000000000000000000000000000000000000000000000000000000000000000000000000000000000000000000000000000000000000000000000000000000000000000000000000000008302000080887fffffffffffffff808203b642a056e81f171bcc55a6ff8345e692c0f86e5b48e01b996cadc001622fb5e363b421880102030405060708c0c0",
        "lastblockhash" : "0x099f36416991b84def918aa6c95f3d4e611ae407631ac41269d999fa19c86682",
        "network" : "EIP150",
        "postState" : {
            "0x095e7baea6a6c7c4c2dfeb977efac326af552d87" : {
                "balance" : "0x030247dc",
                "code" : "0x7fffffffffffffffffffffffffffffffffffffffffffffffffffffffffffffffff7f000000000000000000000000000000000000000000000000000000000000c3507f000000000000000000000000ffffffffffffffffffffffffffffffffffffffff7f000000000000000000000000000000000000000000000000000000000000c35059a17f0000000000000000000000000000000000000000000000000000000000000001f38f07bf60005155",
                "nonce" : "0x00",
                "storage" : {
                }
            },
            "0x945304eb96065b2a98b57a48a06ae28d285a71b5" : {
                "balance" : "0x4563918244faa855",
                "code" : "0x6000355415600957005b60203560003555",
                "nonce" : "0x00",
                "storage" : {
                }
            },
            "0xa94f5374fce5edbc8e2a8697c15331677e6ebf0b" : {
                "balance" : "0x0de0b6b3a45b0ffd",
                "code" : "",
                "nonce" : "0x01",
                "storage" : {
                }
            }
        },
        "pre" : {
            "0x095e7baea6a6c7c4c2dfeb977efac326af552d87" : {
                "balance" : "0x00",
                "code" : "0x7fffffffffffffffffffffffffffffffffffffffffffffffffffffffffffffffff7f000000000000000000000000000000000000000000000000000000000000c3507f000000000000000000000000ffffffffffffffffffffffffffffffffffffffff7f000000000000000000000000000000000000000000000000000000000000c35059a17f0000000000000000000000000000000000000000000000000000000000000001f38f07bf60005155",
                "nonce" : "0x00",
                "storage" : {
                }
            },
            "0x945304eb96065b2a98b57a48a06ae28d285a71b5" : {
                "balance" : "0x2e",
                "code" : "0x6000355415600957005b60203560003555",
                "nonce" : "0x00",
                "storage" : {
                }
            },
            "0xa94f5374fce5edbc8e2a8697c15331677e6ebf0b" : {
                "balance" : "0x0de0b6b3a7640000",
                "code" : "",
                "nonce" : "0x00",
                "storage" : {
                }
            }
        }
    },
    "randomStatetest111_d0g0v0_EIP158" : {
        "_info" : {
            "comment" : "",
            "filledwith" : "cpp-1.3.0+commit.4e101574.Linux.g++",
            "lllcversion" : "Version: 0.4.18-develop.2017.10.11+commit.81f9f86c.Linux.g++",
            "source" : "src/BlockchainTestsFiller/GeneralStateTests/stRandom/randomStatetest111_d0g0v0Filler.json",
            "sourceHash" : "62e1577b9834f3f6cc5acf3872142ae5d8ae475ea20836c92e1a4235f2370826"
        },
        "blocks" : [
            {
                "blockHeader" : {
                    "bloom" : "0x00000000000000001000000000000000000000000000000000000000000000000000000000000000000000000000000000000000000000000000000000000000000000000000000000000000000000000000000000000000000000000000000000000010000000000000000000000000000000000000000000000000000000000000000000000000000000002000000000000000000000000000000000000000000000000000000004000000000000000000000000000000000000000000000000000000000000000000000000000000000000000000000000000000000000000000000040080000000000000000000000000000000000000000000000000000",
                    "coinbase" : "0x945304eb96065b2a98b57a48a06ae28d285a71b5",
                    "difficulty" : "0x020000",
                    "extraData" : "",
                    "gasLimit" : "0x7fffffffffffffff",
                    "gasUsed" : "0x06a827",
                    "hash" : "0xd7fdae07cd0589cd00c35df6422447b1063b9401f01340d42151a5c8cb04e25c",
                    "mixHash" : "0x6cc0ea0ef7086a4f4b6fd2a68843b84b17fc76ce1c3f96a80951923a11264bfe",
                    "nonce" : "0x895c82c81b9a4794",
                    "number" : "0x01",
                    "parentHash" : "0xf086904645e059c4e0f54ee8a7775bffc8903d786d0f84d0c6b69b33da587d0b",
                    "receiptTrie" : "0xab8db1f739e35a84b743aa1d1a7f898af92ec984701fc2e9a3d320f8bc3f122c",
                    "stateRoot" : "0xc7f04409da11f22c1a959cf0fcb301d3253f9e4cb47dc72d4c76df4df6b79541",
                    "timestamp" : "0x03e8",
                    "transactionsTrie" : "0xd5b6fc7075bb88ebdb94a9fadf671c1fd6d8b61362769c2692c16eeaad163730",
                    "uncleHash" : "0x1dcc4de8dec75d7aab85b567b6ccd41ad312451b948a7413f0a142fd40d49347"
                },
                "rlp" : "0xf90318f901fda0f086904645e059c4e0f54ee8a7775bffc8903d786d0f84d0c6b69b33da587d0ba01dcc4de8dec75d7aab85b567b6ccd41ad312451b948a7413f0a142fd40d4934794945304eb96065b2a98b57a48a06ae28d285a71b5a0c7f04409da11f22c1a959cf0fcb301d3253f9e4cb47dc72d4c76df4df6b79541a0d5b6fc7075bb88ebdb94a9fadf671c1fd6d8b61362769c2692c16eeaad163730a0ab8db1f739e35a84b743aa1d1a7f898af92ec984701fc2e9a3d320f8bc3f122cb90100000000000000000010000000000000000000000000000000000000000000000000000000000000000000000000000000000000000000000000000000000000000000000000000000000000000000000000000000000000000000000000000000000000100000000000000000000000000000000000000000000000000000000000000000000000000000000020000000000000000000000000000000000000000000000000000000040000000000000000000000000000000000000000000000000000000000000000000000000000000000000000000000000000000000000000000000400800000000000000000000000000000000000000000000000000008302000001887fffffffffffffff8306a8278203e880a06cc0ea0ef7086a4f4b6fd2a68843b84b17fc76ce1c3f96a80951923a11264bfe88895c82c81b9a4794f90114f901118001845a11064f94095e7baea6a6c7c4c2dfeb977efac326af552d8784030247dcb8ab7fffffffffffffffffffffffffffffffffffffffffffffffffffffffffffffffff7f000000000000000000000000000000000000000000000000000000000000c3507f000000000000000000000000ffffffffffffffffffffffffffffffffffffffff7f000000000000000000000000000000000000000000000000000000000000c35059a17f0000000000000000000000000000000000000000000000000000000000000001f38f07bf1ca08b7b51b0f38ddbe8b1ead1636389b3fb3a112c97017857a2f8f0d3170559d471a011edfec390d93132d51acf7527d8413d1d67cd08b30c77e49c0db8bc93655bbac0",
                "transactions" : [
                    {
                        "data" : "0x7fffffffffffffffffffffffffffffffffffffffffffffffffffffffffffffffff7f000000000000000000000000000000000000000000000000000000000000c3507f000000000000000000000000ffffffffffffffffffffffffffffffffffffffff7f000000000000000000000000000000000000000000000000000000000000c35059a17f0000000000000000000000000000000000000000000000000000000000000001f38f07bf",
                        "gasLimit" : "0x5a11064f",
                        "gasPrice" : "0x01",
                        "nonce" : "0x00",
                        "r" : "0x8b7b51b0f38ddbe8b1ead1636389b3fb3a112c97017857a2f8f0d3170559d471",
                        "s" : "0x11edfec390d93132d51acf7527d8413d1d67cd08b30c77e49c0db8bc93655bba",
                        "to" : "0x095e7baea6a6c7c4c2dfeb977efac326af552d87",
                        "v" : "0x1c",
                        "value" : "0x030247dc"
                    }
                ],
                "uncleHeaders" : [
                ]
            }
        ],
        "genesisBlockHeader" : {
            "bloom" : "0x00000000000000000000000000000000000000000000000000000000000000000000000000000000000000000000000000000000000000000000000000000000000000000000000000000000000000000000000000000000000000000000000000000000000000000000000000000000000000000000000000000000000000000000000000000000000000000000000000000000000000000000000000000000000000000000000000000000000000000000000000000000000000000000000000000000000000000000000000000000000000000000000000000000000000000000000000000000000000000000000000000000000000000000000000000000",
            "coinbase" : "0x945304eb96065b2a98b57a48a06ae28d285a71b5",
            "difficulty" : "0x020000",
            "extraData" : "0x42",
            "gasLimit" : "0x7fffffffffffffff",
            "gasUsed" : "0x00",
            "hash" : "0xf086904645e059c4e0f54ee8a7775bffc8903d786d0f84d0c6b69b33da587d0b",
            "mixHash" : "0x56e81f171bcc55a6ff8345e692c0f86e5b48e01b996cadc001622fb5e363b421",
            "nonce" : "0x0102030405060708",
            "number" : "0x00",
            "parentHash" : "0x0000000000000000000000000000000000000000000000000000000000000000",
            "receiptTrie" : "0x56e81f171bcc55a6ff8345e692c0f86e5b48e01b996cadc001622fb5e363b421",
            "stateRoot" : "0x2b1d4bc40ac0178331301cdc61aff5577414aeb868d0875c49d84c397f2ea192",
            "timestamp" : "0x03b6",
            "transactionsTrie" : "0x56e81f171bcc55a6ff8345e692c0f86e5b48e01b996cadc001622fb5e363b421",
            "uncleHash" : "0x1dcc4de8dec75d7aab85b567b6ccd41ad312451b948a7413f0a142fd40d49347"
        },
        "genesisRLP" : "0xf901fff901faa00000000000000000000000000000000000000000000000000000000000000000a01dcc4de8dec75d7aab85b567b6ccd41ad312451b948a7413f0a142fd40d4934794945304eb96065b2a98b57a48a06ae28d285a71b5a02b1d4bc40ac0178331301cdc61aff5577414aeb868d0875c49d84c397f2ea192a056e81f171bcc55a6ff8345e692c0f86e5b48e01b996cadc001622fb5e363b421a056e81f171bcc55a6ff8345e692c0f86e5b48e01b996cadc001622fb5e363b421b90100000000000000000000000000000000000000000000000000000000000000000000000000000000000000000000000000000000000000000000000000000000000000000000000000000000000000000000000000000000000000000000000000000000000000000000000000000000000000000000000000000000000000000000000000000000000000000000000000000000000000000000000000000000000000000000000000000000000000000000000000000000000000000000000000000000000000000000000000000000000000000000000000000000000000000000000000000000000000000000000000000000000000000000000000000000008302000080887fffffffffffffff808203b642a056e81f171bcc55a6ff8345e692c0f86e5b48e01b996cadc001622fb5e363b421880102030405060708c0c0",
        "lastblockhash" : "0xd7fdae07cd0589cd00c35df6422447b1063b9401f01340d42151a5c8cb04e25c",
        "network" : "EIP158",
        "postState" : {
            "0x095e7baea6a6c7c4c2dfeb977efac326af552d87" : {
                "balance" : "0x030247dc",
                "code" : "0x7fffffffffffffffffffffffffffffffffffffffffffffffffffffffffffffffff7f000000000000000000000000000000000000000000000000000000000000c3507f000000000000000000000000ffffffffffffffffffffffffffffffffffffffff7f000000000000000000000000000000000000000000000000000000000000c35059a17f0000000000000000000000000000000000000000000000000000000000000001f38f07bf60005155",
                "nonce" : "0x00",
                "storage" : {
                }
            },
            "0x945304eb96065b2a98b57a48a06ae28d285a71b5" : {
                "balance" : "0x4563918244faa855",
                "code" : "0x6000355415600957005b60203560003555",
                "nonce" : "0x00",
                "storage" : {
                }
            },
            "0xa94f5374fce5edbc8e2a8697c15331677e6ebf0b" : {
                "balance" : "0x0de0b6b3a45b0ffd",
                "code" : "",
                "nonce" : "0x01",
                "storage" : {
                }
            }
        },
        "pre" : {
            "0x095e7baea6a6c7c4c2dfeb977efac326af552d87" : {
                "balance" : "0x00",
                "code" : "0x7fffffffffffffffffffffffffffffffffffffffffffffffffffffffffffffffff7f000000000000000000000000000000000000000000000000000000000000c3507f000000000000000000000000ffffffffffffffffffffffffffffffffffffffff7f000000000000000000000000000000000000000000000000000000000000c35059a17f0000000000000000000000000000000000000000000000000000000000000001f38f07bf60005155",
                "nonce" : "0x00",
                "storage" : {
                }
            },
            "0x945304eb96065b2a98b57a48a06ae28d285a71b5" : {
                "balance" : "0x2e",
                "code" : "0x6000355415600957005b60203560003555",
                "nonce" : "0x00",
                "storage" : {
                }
            },
            "0xa94f5374fce5edbc8e2a8697c15331677e6ebf0b" : {
                "balance" : "0x0de0b6b3a7640000",
                "code" : "",
                "nonce" : "0x00",
                "storage" : {
                }
            }
        }
    },
    "randomStatetest111_d0g0v0_Frontier" : {
        "_info" : {
            "comment" : "",
            "filledwith" : "cpp-1.3.0+commit.4e101574.Linux.g++",
            "lllcversion" : "Version: 0.4.18-develop.2017.10.11+commit.81f9f86c.Linux.g++",
            "source" : "src/BlockchainTestsFiller/GeneralStateTests/stRandom/randomStatetest111_d0g0v0Filler.json",
            "sourceHash" : "62e1577b9834f3f6cc5acf3872142ae5d8ae475ea20836c92e1a4235f2370826"
        },
        "blocks" : [
            {
                "blockHeader" : {
                    "bloom" : "0x00000000000000001000000000000000000000000000000000000000000000000000000000000000000000000000000000000000000000000000000000000000000000000000000000000000000000000000000000000000000000000000000000000010000000000000000000000000000000000000000000000000000000000000000000000000000000002000000000000000000000000000000000000000000000000000000004000000000000000000000000000000000000000000000000000000000000000000000000000000000000000000000000000000000000000000000040080000000000000000000000000000000000000000000000000000",
                    "coinbase" : "0x945304eb96065b2a98b57a48a06ae28d285a71b5",
                    "difficulty" : "0x020000",
                    "extraData" : "",
                    "gasLimit" : "0x7fffffffffffffff",
                    "gasUsed" : "0x06a827",
                    "hash" : "0xbc8b86e53aadfb21d7ed50325c9860db113b3ef3c493bfa08c602ed6b1dabc32",
                    "mixHash" : "0xaa99aa509d3e635b555b7cf13886f7aa0b507f5619be3040507bf677bdb81bb9",
                    "nonce" : "0xbf4a4a7f44a6e89d",
                    "number" : "0x01",
                    "parentHash" : "0xf086904645e059c4e0f54ee8a7775bffc8903d786d0f84d0c6b69b33da587d0b",
                    "receiptTrie" : "0xab8db1f739e35a84b743aa1d1a7f898af92ec984701fc2e9a3d320f8bc3f122c",
                    "stateRoot" : "0xc7f04409da11f22c1a959cf0fcb301d3253f9e4cb47dc72d4c76df4df6b79541",
                    "timestamp" : "0x03e8",
                    "transactionsTrie" : "0xd5b6fc7075bb88ebdb94a9fadf671c1fd6d8b61362769c2692c16eeaad163730",
                    "uncleHash" : "0x1dcc4de8dec75d7aab85b567b6ccd41ad312451b948a7413f0a142fd40d49347"
                },
                "rlp" : "0xf90318f901fda0f086904645e059c4e0f54ee8a7775bffc8903d786d0f84d0c6b69b33da587d0ba01dcc4de8dec75d7aab85b567b6ccd41ad312451b948a7413f0a142fd40d4934794945304eb96065b2a98b57a48a06ae28d285a71b5a0c7f04409da11f22c1a959cf0fcb301d3253f9e4cb47dc72d4c76df4df6b79541a0d5b6fc7075bb88ebdb94a9fadf671c1fd6d8b61362769c2692c16eeaad163730a0ab8db1f739e35a84b743aa1d1a7f898af92ec984701fc2e9a3d320f8bc3f122cb90100000000000000000010000000000000000000000000000000000000000000000000000000000000000000000000000000000000000000000000000000000000000000000000000000000000000000000000000000000000000000000000000000000000100000000000000000000000000000000000000000000000000000000000000000000000000000000020000000000000000000000000000000000000000000000000000000040000000000000000000000000000000000000000000000000000000000000000000000000000000000000000000000000000000000000000000000400800000000000000000000000000000000000000000000000000008302000001887fffffffffffffff8306a8278203e880a0aa99aa509d3e635b555b7cf13886f7aa0b507f5619be3040507bf677bdb81bb988bf4a4a7f44a6e89df90114f901118001845a11064f94095e7baea6a6c7c4c2dfeb977efac326af552d8784030247dcb8ab7fffffffffffffffffffffffffffffffffffffffffffffffffffffffffffffffff7f000000000000000000000000000000000000000000000000000000000000c3507f000000000000000000000000ffffffffffffffffffffffffffffffffffffffff7f000000000000000000000000000000000000000000000000000000000000c35059a17f0000000000000000000000000000000000000000000000000000000000000001f38f07bf1ca08b7b51b0f38ddbe8b1ead1636389b3fb3a112c97017857a2f8f0d3170559d471a011edfec390d93132d51acf7527d8413d1d67cd08b30c77e49c0db8bc93655bbac0",
                "transactions" : [
                    {
                        "data" : "0x7fffffffffffffffffffffffffffffffffffffffffffffffffffffffffffffffff7f000000000000000000000000000000000000000000000000000000000000c3507f000000000000000000000000ffffffffffffffffffffffffffffffffffffffff7f000000000000000000000000000000000000000000000000000000000000c35059a17f0000000000000000000000000000000000000000000000000000000000000001f38f07bf",
                        "gasLimit" : "0x5a11064f",
                        "gasPrice" : "0x01",
                        "nonce" : "0x00",
                        "r" : "0x8b7b51b0f38ddbe8b1ead1636389b3fb3a112c97017857a2f8f0d3170559d471",
                        "s" : "0x11edfec390d93132d51acf7527d8413d1d67cd08b30c77e49c0db8bc93655bba",
                        "to" : "0x095e7baea6a6c7c4c2dfeb977efac326af552d87",
                        "v" : "0x1c",
                        "value" : "0x030247dc"
                    }
                ],
                "uncleHeaders" : [
                ]
            }
        ],
        "genesisBlockHeader" : {
            "bloom" : "0x00000000000000000000000000000000000000000000000000000000000000000000000000000000000000000000000000000000000000000000000000000000000000000000000000000000000000000000000000000000000000000000000000000000000000000000000000000000000000000000000000000000000000000000000000000000000000000000000000000000000000000000000000000000000000000000000000000000000000000000000000000000000000000000000000000000000000000000000000000000000000000000000000000000000000000000000000000000000000000000000000000000000000000000000000000000",
            "coinbase" : "0x945304eb96065b2a98b57a48a06ae28d285a71b5",
            "difficulty" : "0x020000",
            "extraData" : "0x42",
            "gasLimit" : "0x7fffffffffffffff",
            "gasUsed" : "0x00",
            "hash" : "0xf086904645e059c4e0f54ee8a7775bffc8903d786d0f84d0c6b69b33da587d0b",
            "mixHash" : "0x56e81f171bcc55a6ff8345e692c0f86e5b48e01b996cadc001622fb5e363b421",
            "nonce" : "0x0102030405060708",
            "number" : "0x00",
            "parentHash" : "0x0000000000000000000000000000000000000000000000000000000000000000",
            "receiptTrie" : "0x56e81f171bcc55a6ff8345e692c0f86e5b48e01b996cadc001622fb5e363b421",
            "stateRoot" : "0x2b1d4bc40ac0178331301cdc61aff5577414aeb868d0875c49d84c397f2ea192",
            "timestamp" : "0x03b6",
            "transactionsTrie" : "0x56e81f171bcc55a6ff8345e692c0f86e5b48e01b996cadc001622fb5e363b421",
            "uncleHash" : "0x1dcc4de8dec75d7aab85b567b6ccd41ad312451b948a7413f0a142fd40d49347"
        },
        "genesisRLP" : "0xf901fff901faa00000000000000000000000000000000000000000000000000000000000000000a01dcc4de8dec75d7aab85b567b6ccd41ad312451b948a7413f0a142fd40d4934794945304eb96065b2a98b57a48a06ae28d285a71b5a02b1d4bc40ac0178331301cdc61aff5577414aeb868d0875c49d84c397f2ea192a056e81f171bcc55a6ff8345e692c0f86e5b48e01b996cadc001622fb5e363b421a056e81f171bcc55a6ff8345e692c0f86e5b48e01b996cadc001622fb5e363b421b90100000000000000000000000000000000000000000000000000000000000000000000000000000000000000000000000000000000000000000000000000000000000000000000000000000000000000000000000000000000000000000000000000000000000000000000000000000000000000000000000000000000000000000000000000000000000000000000000000000000000000000000000000000000000000000000000000000000000000000000000000000000000000000000000000000000000000000000000000000000000000000000000000000000000000000000000000000000000000000000000000000000000000000000000000000000008302000080887fffffffffffffff808203b642a056e81f171bcc55a6ff8345e692c0f86e5b48e01b996cadc001622fb5e363b421880102030405060708c0c0",
        "lastblockhash" : "0xbc8b86e53aadfb21d7ed50325c9860db113b3ef3c493bfa08c602ed6b1dabc32",
        "network" : "Frontier",
        "postState" : {
            "0x095e7baea6a6c7c4c2dfeb977efac326af552d87" : {
                "balance" : "0x030247dc",
                "code" : "0x7fffffffffffffffffffffffffffffffffffffffffffffffffffffffffffffffff7f000000000000000000000000000000000000000000000000000000000000c3507f000000000000000000000000ffffffffffffffffffffffffffffffffffffffff7f000000000000000000000000000000000000000000000000000000000000c35059a17f0000000000000000000000000000000000000000000000000000000000000001f38f07bf60005155",
                "nonce" : "0x00",
                "storage" : {
                }
            },
            "0x945304eb96065b2a98b57a48a06ae28d285a71b5" : {
                "balance" : "0x4563918244faa855",
                "code" : "0x6000355415600957005b60203560003555",
                "nonce" : "0x00",
                "storage" : {
                }
            },
            "0xa94f5374fce5edbc8e2a8697c15331677e6ebf0b" : {
                "balance" : "0x0de0b6b3a45b0ffd",
                "code" : "",
                "nonce" : "0x01",
                "storage" : {
                }
            }
        },
        "pre" : {
            "0x095e7baea6a6c7c4c2dfeb977efac326af552d87" : {
                "balance" : "0x00",
                "code" : "0x7fffffffffffffffffffffffffffffffffffffffffffffffffffffffffffffffff7f000000000000000000000000000000000000000000000000000000000000c3507f000000000000000000000000ffffffffffffffffffffffffffffffffffffffff7f000000000000000000000000000000000000000000000000000000000000c35059a17f0000000000000000000000000000000000000000000000000000000000000001f38f07bf60005155",
                "nonce" : "0x00",
                "storage" : {
                }
            },
            "0x945304eb96065b2a98b57a48a06ae28d285a71b5" : {
                "balance" : "0x2e",
                "code" : "0x6000355415600957005b60203560003555",
                "nonce" : "0x00",
                "storage" : {
                }
            },
            "0xa94f5374fce5edbc8e2a8697c15331677e6ebf0b" : {
                "balance" : "0x0de0b6b3a7640000",
                "code" : "",
                "nonce" : "0x00",
                "storage" : {
                }
            }
        }
    },
    "randomStatetest111_d0g0v0_Homestead" : {
        "_info" : {
            "comment" : "",
            "filledwith" : "cpp-1.3.0+commit.4e101574.Linux.g++",
            "lllcversion" : "Version: 0.4.18-develop.2017.10.11+commit.81f9f86c.Linux.g++",
            "source" : "src/BlockchainTestsFiller/GeneralStateTests/stRandom/randomStatetest111_d0g0v0Filler.json",
            "sourceHash" : "62e1577b9834f3f6cc5acf3872142ae5d8ae475ea20836c92e1a4235f2370826"
        },
        "blocks" : [
            {
                "blockHeader" : {
                    "bloom" : "0x00000000000000001000000000000000000000000000000000000000000000000000000000000000000000000000000000000000000000000000000000000000000000000000000000000000000000000000000000000000000000000000000000000010000000000000000000000000000000000000000000000000000000000000000000000000000000002000000000000000000000000000000000000000000000000000000004000000000000000000000000000000000000000000000000000000000000000000000000000000000000000000000000000000000000000000000040080000000000000000000000000000000000000000000000000000",
                    "coinbase" : "0x945304eb96065b2a98b57a48a06ae28d285a71b5",
                    "difficulty" : "0x020000",
                    "extraData" : "",
                    "gasLimit" : "0x7fffffffffffffff",
                    "gasUsed" : "0x06a827",
                    "hash" : "0xad3633a256af1f45ad9803f50a49cc01e8a805781ff505d3cab87a4109561e51",
                    "mixHash" : "0x5e4bc52fa359c1c977d6320201eae44d96c13a5a21647a2eb59b17e36ead45ad",
                    "nonce" : "0x99eff17e408d07eb",
                    "number" : "0x01",
                    "parentHash" : "0xf086904645e059c4e0f54ee8a7775bffc8903d786d0f84d0c6b69b33da587d0b",
                    "receiptTrie" : "0xab8db1f739e35a84b743aa1d1a7f898af92ec984701fc2e9a3d320f8bc3f122c",
                    "stateRoot" : "0xc7f04409da11f22c1a959cf0fcb301d3253f9e4cb47dc72d4c76df4df6b79541",
                    "timestamp" : "0x03e8",
                    "transactionsTrie" : "0xd5b6fc7075bb88ebdb94a9fadf671c1fd6d8b61362769c2692c16eeaad163730",
                    "uncleHash" : "0x1dcc4de8dec75d7aab85b567b6ccd41ad312451b948a7413f0a142fd40d49347"
                },
                "rlp" : "0xf90318f901fda0f086904645e059c4e0f54ee8a7775bffc8903d786d0f84d0c6b69b33da587d0ba01dcc4de8dec75d7aab85b567b6ccd41ad312451b948a7413f0a142fd40d4934794945304eb96065b2a98b57a48a06ae28d285a71b5a0c7f04409da11f22c1a959cf0fcb301d3253f9e4cb47dc72d4c76df4df6b79541a0d5b6fc7075bb88ebdb94a9fadf671c1fd6d8b61362769c2692c16eeaad163730a0ab8db1f739e35a84b743aa1d1a7f898af92ec984701fc2e9a3d320f8bc3f122cb90100000000000000000010000000000000000000000000000000000000000000000000000000000000000000000000000000000000000000000000000000000000000000000000000000000000000000000000000000000000000000000000000000000000100000000000000000000000000000000000000000000000000000000000000000000000000000000020000000000000000000000000000000000000000000000000000000040000000000000000000000000000000000000000000000000000000000000000000000000000000000000000000000000000000000000000000000400800000000000000000000000000000000000000000000000000008302000001887fffffffffffffff8306a8278203e880a05e4bc52fa359c1c977d6320201eae44d96c13a5a21647a2eb59b17e36ead45ad8899eff17e408d07ebf90114f901118001845a11064f94095e7baea6a6c7c4c2dfeb977efac326af552d8784030247dcb8ab7fffffffffffffffffffffffffffffffffffffffffffffffffffffffffffffffff7f000000000000000000000000000000000000000000000000000000000000c3507f000000000000000000000000ffffffffffffffffffffffffffffffffffffffff7f000000000000000000000000000000000000000000000000000000000000c35059a17f0000000000000000000000000000000000000000000000000000000000000001f38f07bf1ca08b7b51b0f38ddbe8b1ead1636389b3fb3a112c97017857a2f8f0d3170559d471a011edfec390d93132d51acf7527d8413d1d67cd08b30c77e49c0db8bc93655bbac0",
                "transactions" : [
                    {
                        "data" : "0x7fffffffffffffffffffffffffffffffffffffffffffffffffffffffffffffffff7f000000000000000000000000000000000000000000000000000000000000c3507f000000000000000000000000ffffffffffffffffffffffffffffffffffffffff7f000000000000000000000000000000000000000000000000000000000000c35059a17f0000000000000000000000000000000000000000000000000000000000000001f38f07bf",
                        "gasLimit" : "0x5a11064f",
                        "gasPrice" : "0x01",
                        "nonce" : "0x00",
                        "r" : "0x8b7b51b0f38ddbe8b1ead1636389b3fb3a112c97017857a2f8f0d3170559d471",
                        "s" : "0x11edfec390d93132d51acf7527d8413d1d67cd08b30c77e49c0db8bc93655bba",
                        "to" : "0x095e7baea6a6c7c4c2dfeb977efac326af552d87",
                        "v" : "0x1c",
                        "value" : "0x030247dc"
                    }
                ],
                "uncleHeaders" : [
                ]
            }
        ],
        "genesisBlockHeader" : {
            "bloom" : "0x00000000000000000000000000000000000000000000000000000000000000000000000000000000000000000000000000000000000000000000000000000000000000000000000000000000000000000000000000000000000000000000000000000000000000000000000000000000000000000000000000000000000000000000000000000000000000000000000000000000000000000000000000000000000000000000000000000000000000000000000000000000000000000000000000000000000000000000000000000000000000000000000000000000000000000000000000000000000000000000000000000000000000000000000000000000",
            "coinbase" : "0x945304eb96065b2a98b57a48a06ae28d285a71b5",
            "difficulty" : "0x020000",
            "extraData" : "0x42",
            "gasLimit" : "0x7fffffffffffffff",
            "gasUsed" : "0x00",
            "hash" : "0xf086904645e059c4e0f54ee8a7775bffc8903d786d0f84d0c6b69b33da587d0b",
            "mixHash" : "0x56e81f171bcc55a6ff8345e692c0f86e5b48e01b996cadc001622fb5e363b421",
            "nonce" : "0x0102030405060708",
            "number" : "0x00",
            "parentHash" : "0x0000000000000000000000000000000000000000000000000000000000000000",
            "receiptTrie" : "0x56e81f171bcc55a6ff8345e692c0f86e5b48e01b996cadc001622fb5e363b421",
            "stateRoot" : "0x2b1d4bc40ac0178331301cdc61aff5577414aeb868d0875c49d84c397f2ea192",
            "timestamp" : "0x03b6",
            "transactionsTrie" : "0x56e81f171bcc55a6ff8345e692c0f86e5b48e01b996cadc001622fb5e363b421",
            "uncleHash" : "0x1dcc4de8dec75d7aab85b567b6ccd41ad312451b948a7413f0a142fd40d49347"
        },
        "genesisRLP" : "0xf901fff901faa00000000000000000000000000000000000000000000000000000000000000000a01dcc4de8dec75d7aab85b567b6ccd41ad312451b948a7413f0a142fd40d4934794945304eb96065b2a98b57a48a06ae28d285a71b5a02b1d4bc40ac0178331301cdc61aff5577414aeb868d0875c49d84c397f2ea192a056e81f171bcc55a6ff8345e692c0f86e5b48e01b996cadc001622fb5e363b421a056e81f171bcc55a6ff8345e692c0f86e5b48e01b996cadc001622fb5e363b421b90100000000000000000000000000000000000000000000000000000000000000000000000000000000000000000000000000000000000000000000000000000000000000000000000000000000000000000000000000000000000000000000000000000000000000000000000000000000000000000000000000000000000000000000000000000000000000000000000000000000000000000000000000000000000000000000000000000000000000000000000000000000000000000000000000000000000000000000000000000000000000000000000000000000000000000000000000000000000000000000000000000000000000000000000000000000008302000080887fffffffffffffff808203b642a056e81f171bcc55a6ff8345e692c0f86e5b48e01b996cadc001622fb5e363b421880102030405060708c0c0",
        "lastblockhash" : "0xad3633a256af1f45ad9803f50a49cc01e8a805781ff505d3cab87a4109561e51",
        "network" : "Homestead",
        "postState" : {
            "0x095e7baea6a6c7c4c2dfeb977efac326af552d87" : {
                "balance" : "0x030247dc",
                "code" : "0x7fffffffffffffffffffffffffffffffffffffffffffffffffffffffffffffffff7f000000000000000000000000000000000000000000000000000000000000c3507f000000000000000000000000ffffffffffffffffffffffffffffffffffffffff7f000000000000000000000000000000000000000000000000000000000000c35059a17f0000000000000000000000000000000000000000000000000000000000000001f38f07bf60005155",
                "nonce" : "0x00",
                "storage" : {
                }
            },
            "0x945304eb96065b2a98b57a48a06ae28d285a71b5" : {
                "balance" : "0x4563918244faa855",
                "code" : "0x6000355415600957005b60203560003555",
                "nonce" : "0x00",
                "storage" : {
                }
            },
            "0xa94f5374fce5edbc8e2a8697c15331677e6ebf0b" : {
                "balance" : "0x0de0b6b3a45b0ffd",
                "code" : "",
                "nonce" : "0x01",
                "storage" : {
                }
            }
        },
        "pre" : {
            "0x095e7baea6a6c7c4c2dfeb977efac326af552d87" : {
                "balance" : "0x00",
                "code" : "0x7fffffffffffffffffffffffffffffffffffffffffffffffffffffffffffffffff7f000000000000000000000000000000000000000000000000000000000000c3507f000000000000000000000000ffffffffffffffffffffffffffffffffffffffff7f000000000000000000000000000000000000000000000000000000000000c35059a17f0000000000000000000000000000000000000000000000000000000000000001f38f07bf60005155",
                "nonce" : "0x00",
                "storage" : {
                }
            },
            "0x945304eb96065b2a98b57a48a06ae28d285a71b5" : {
                "balance" : "0x2e",
                "code" : "0x6000355415600957005b60203560003555",
                "nonce" : "0x00",
                "storage" : {
                }
            },
            "0xa94f5374fce5edbc8e2a8697c15331677e6ebf0b" : {
                "balance" : "0x0de0b6b3a7640000",
                "code" : "",
                "nonce" : "0x00",
                "storage" : {
                }
            }
        }
    }
}