{
  "context": {
    "difficulty": "31927752",
    "gasLimit": "4707788",
    "miner": "0x5659922ce141eedbc2733678f9806c77b4eebee8",
    "number": "11495",
    "timestamp": "1479735917"
  },
  "genesis": {
    "alloc": {
      "0x13204f5d64c28326fd7bd05fd4ea855302d7f2ff": {
        "balance": "0x0",
        "code": "0x606060405236156100825760e060020a60003504630a0313a981146100875780630a3b0a4f146101095780630cd40fea1461021257806329092d0e1461021f5780634cd06a5f146103295780635dbe47e8146103395780637a9e5410146103d9578063825db5f7146103e6578063a820b44d146103f3578063efa52fb31461047a575b610002565b34610002576104fc600435600060006000507342b02b5deeb78f34cd5ac896473b63e6c99a71a26333556e849091846000604051602001526040518360e060020a028152600401808381526020018281526020019250505060206040518083038186803b156100025760325a03f415610002575050604051519150505b919050565b346100025761051060043560006000507342b02b5deeb78f34cd5ac896473b63e6c99a71a2637d65837a9091336000604051602001526040518360e060020a0281526004018083815260200182600160a060020a031681526020019250505060206040518083038186803b156100025760325a03f4156100025750506040515115905061008257604080517f21ce24d4000000000000000000000000000000000000000000000000000000008152600060048201819052600160a060020a038416602483015291517342b02b5deeb78f34cd5ac896473b63e6c99a71a2926321ce24d49260448082019391829003018186803b156100025760325a03f415610002575050505b50565b3461000257610512600181565b346100025761051060043560006000507342b02b5deeb78f34cd5ac896473b63e6c99a71a2637d65837a9091336000604051602001526040518360e060020a0281526004018083815260200182600160a060020a031681526020019250505060206040518083038186803b156100025760325a03f4156100025750506040515115905061008257604080517f89489a87000000000000000000000000000000000000000000000000000000008152600060048201819052600160a060020a038416602483015291517342b02b5deeb78f34cd5ac896473b63e6c99a71a2926389489a879260448082019391829003018186803b156100025760325a03f4156100025750505061020f565b3461000257610528600435610403565b34610002576104fc600435604080516000602091820181905282517f7d65837a00000000000000000000000000000000000000000000000000000000815260048101829052600160a060020a0385166024820152925190927342b02b5deeb78f34cd5ac896473b63e6c99a71a292637d65837a92604480840193829003018186803b156100025760325a03f4156100025750506040515191506101049050565b3461000257610512600c81565b3461000257610512600081565b3461000257610528600061055660005b600060006000507342b02b5deeb78f34cd5ac896473b63e6c99a71a263685a1f3c9091846000604051602001526040518360e060020a028152600401808381526020018281526020019250505060206040518083038186803b156100025760325a03f4156100025750506040515191506101049050565b346100025761053a600435600060006000507342b02b5deeb78f34cd5ac896473b63e6c99a71a263f775b6b59091846000604051602001526040518360e060020a028152600401808381526020018281526020019250505060206040518083038186803b156100025760325a03f4156100025750506040515191506101049050565b604080519115158252519081900360200190f35b005b6040805160ff9092168252519081900360200190f35b60408051918252519081900360200190f35b60408051600160a060020a039092168252519081900360200190f35b90509056",
        "nonce": "1",
        "storage": {
          "0x4d140b25abf3c71052885c66f73ce07cff141c1afabffdaf5cba04d625b7ebcc": "0x0000000000000000000000000000000000000000000000000000000000000001"
        }
      },
      "0x269296dddce321a6bcbaa2f0181127593d732cba": {
        "balance": "0x0",
        "code": "0x606060405236156101275760e060020a60003504630cd40fea811461012c578063173825d9146101395780631849cb5a146101c7578063285791371461030f5780632a58b3301461033f5780632cb0d48a146103565780632f54bf6e1461036a578063332b9f061461039d5780633ca8b002146103c55780633df4ddf4146103d557806341c0e1b5146103f457806347799da81461040557806362a51eee1461042457806366907d13146104575780637065cb48146104825780637a9e541014610496578063825db5f7146104a3578063949d225d146104b0578063a51687df146104c7578063b4da4e37146104e6578063b4e6850b146104ff578063bd7474ca14610541578063e75623d814610541578063e9938e1114610555578063f5d241d314610643575b610002565b3461000257610682600181565b34610002576106986004356106ff335b60006001600a9054906101000a9004600160a060020a0316600160a060020a0316635dbe47e8836000604051602001526040518260e060020a0281526004018082600160a060020a03168152602001915050602060405180830381600087803b156100025760325a03f1156100025750506040515191506103989050565b3461000257604080516101008082018352600080835260208084018290528385018290526060808501839052608080860184905260a080870185905260c080880186905260e09788018690526001605060020a0360043581168752600586529589902089519788018a528054808816808a52605060020a91829004600160a060020a0316978a01889052600183015463ffffffff8082169d8c018e905264010000000082048116988c01899052604060020a90910416958a018690526002830154948a01859052600390920154808916938a01849052049096169690970186905293969495949293604080516001605060020a03998a16815297891660208901529590971686860152600160a060020a03909316606086015263ffffffff9182166080860152811660a08501521660c083015260e08201929092529051908190036101000190f35b346100025761069a60043560018054600091829160ff60f060020a909104161515141561063d5761072833610376565b34610002576106ae6004546001605060020a031681565b34610002576106986004356108b333610149565b346100025761069a6004355b600160a060020a03811660009081526002602052604090205460ff1615156001145b919050565b34610002576106986001805460ff60f060020a9091041615151415610913576108ed33610376565b346100025761069a600435610149565b34610002576106ae6003546001605060020a03605060020a9091041681565b346100025761069861091533610149565b34610002576106ae6003546001605060020a0360a060020a9091041681565b346100025761069a60043560243560018054600091829160ff60f060020a909104161515141561095e5761092633610376565b34610002576106986004356001805460ff60f060020a909104161515141561072557610a8b33610376565b3461000257610698600435610aa533610149565b3461000257610682600c81565b3461000257610682600081565b34610002576106ae6003546001605060020a031681565b34610002576106ca600154600160a060020a03605060020a9091041681565b346100025761069a60015460ff60f060020a9091041681565b346100025761069a60043560243560443560643560843560a43560c43560018054600091829160ff60f060020a9091041615151415610b5857610ad233610376565b3461000257610698600435610bd633610149565b34610002576106e6600435604080516101008181018352600080835260208084018290528385018290526060808501839052608080860184905260a080870185905260c080880186905260e09788018690526001605060020a03808b168752600586529589902089519788018a5280548088168952600160a060020a03605060020a918290041696890196909652600181015463ffffffff8082169b8a019b909b5264010000000081048b1695890195909552604060020a90940490981691860182905260028301549086015260039091015480841696850196909652940416918101919091525b50919050565b346100025761069a60043560243560443560643560843560a43560018054600091829160ff60f060020a9091041615151415610c8e57610bfb33610376565b6040805160ff9092168252519081900360200190f35b005b604080519115158252519081900360200190f35b604080516001605060020a039092168252519081900360200190f35b60408051600160a060020a039092168252519081900360200190f35b6040805163ffffffff9092168252519081900360200190f35b1561012757600160a060020a0381166000908152600260205260409020805460ff191690555b50565b1561063d57506001605060020a0380831660009081526005602052604090208054909116151561075b576000915061063d565b604080516101008101825282546001605060020a038082168352600160a060020a03605060020a92839004166020840152600185015463ffffffff80821695850195909552640100000000810485166060850152604060020a90049093166080830152600284015460a0830152600384015480841660c08401520490911660e0820152610817905b8051600354600090819060016001605060020a0390911611610c995760038054605060020a60f060020a0319169055610ddf565b600380546001605060020a031981166000196001605060020a03928316011782558416600090815260056020526040812080547fffff000000000000000000000000000000000000000000000000000000000000168155600181810180546bffffffffffffffffffffffff191690556002820192909255909101805473ffffffffffffffffffffffffffffffffffffffff19169055915061063d565b1561012757600180547fff00ffffffffffffffffffffffffffffffffffffffffffffffffffffffffffff1660f060020a8302179055610725565b1561091357600480546001605060020a031981166001605060020a039091166001011790555b565b156101275733600160a060020a0316ff5b1561095e57506001605060020a03808416600090815260056020526040902080549091161515610965576000915061095e565b600191505b5092915050565b60038101546001605060020a0384811691161415610986576001915061095e565b604080516101008101825282546001605060020a038082168352600160a060020a03605060020a92839004166020840152600185015463ffffffff80821695850195909552640100000000810485166060850152604060020a90049093166080830152600284015460a0830152600384015480841660c08401520490911660e0820152610a12906107e3565b61095983825b80546003546001605060020a0391821691600091161515610de55760038054605060020a60a060020a031916605060020a84021760a060020a69ffffffffffffffffffff02191660a060020a84021781558301805473ffffffffffffffffffffffffffffffffffffffff19169055610ddf565b1561072557600480546001605060020a0319168217905550565b1561012757600160a060020a0381166000908152600260205260409020805460ff19166001179055610725565b15610b5857506001605060020a038088166000908152600560205260409020805490911615610b645760009150610b58565b6004546001605060020a0390811690891610610b3057600480546001605060020a03191660018a011790555b6003805460016001605060020a03821681016001605060020a03199092169190911790915591505b50979650505050505050565b80546001605060020a0319168817605060020a60f060020a031916605060020a880217815560018101805463ffffffff1916871767ffffffff0000000019166401000000008702176bffffffff00000000000000001916604060020a860217905560028101839055610b048982610a18565b156101275760018054605060020a60f060020a031916605060020a8302179055610725565b15610c8e57506001605060020a03808816600090815260056020526040902080549091161515610c2e5760009150610c8e565b8054605060020a60f060020a031916605060020a88021781556001808201805463ffffffff1916881767ffffffff0000000019166401000000008802176bffffffff00000000000000001916604060020a87021790556002820184905591505b509695505050505050565b6003546001605060020a03848116605060020a909204161415610d095760e084015160038054605060020a928302605060020a60a060020a031990911617808255919091046001605060020a031660009081526005602052604090200180546001605060020a0319169055610ddf565b6003546001605060020a0384811660a060020a909204161415610d825760c08401516003805460a060020a92830260a060020a69ffffffffffffffffffff021990911617808255919091046001605060020a03166000908152600560205260409020018054605060020a60a060020a0319169055610ddf565b505060c082015160e08301516001605060020a0380831660009081526005602052604080822060039081018054605060020a60a060020a031916605060020a8702179055928416825290200180546001605060020a031916831790555b50505050565b6001605060020a0384161515610e6457600380546001605060020a03605060020a9182900481166000908152600560205260409020830180546001605060020a0319908116871790915583548785018054918590049093168402605060020a60a060020a03199182161790911690915582549185029116179055610ddf565b506001605060020a038381166000908152600560205260409020600390810180549185018054605060020a60a060020a0319908116605060020a94859004909516808502959095176001605060020a0319168817909155815416918402919091179055801515610ef4576003805460a060020a69ffffffffffffffffffff02191660a060020a8402179055610ddf565b6003808401546001605060020a03605060020a9091041660009081526005602052604090200180546001605060020a031916831790555050505056",
        "nonce": "1",
        "storage": {
          "0x0000000000000000000000000000000000000000000000000000000000000001": "0x000113204f5d64c28326fd7bd05fd4ea855302d7f2ff00000000000000000000"
        }
      },
      "0x42b02b5deeb78f34cd5ac896473b63e6c99a71a2": {
        "balance": "0x0",
        "code": "0x6504032353da7150606060405236156100695760e060020a60003504631bf7509d811461006e57806321ce24d41461008157806333556e84146100ec578063685a1f3c146101035780637d65837a1461011757806389489a8714610140578063f775b6b5146101fc575b610007565b61023460043560006100fd82600061010d565b610246600435602435600160a060020a03811660009081526020839052604081205415156102cb57826001016000508054806001018281815481835581811511610278576000838152602090206102789181019083015b808211156102d057600081556001016100d8565b610248600435602435600182015481105b92915050565b6102346004356024355b60018101906100fd565b610248600435602435600160a060020a03811660009081526020839052604090205415156100fd565b61024660043560243580600160a060020a031632600160a060020a03161415156101f857600160a060020a038116600090815260208390526040902054156101f857600160a060020a038116600090815260208390526040902054600183018054909160001901908110156100075760009182526020808320909101805473ffffffffffffffffffffffffffffffffffffffff19169055600160a060020a038316825283905260408120556002820180546000190190555b5050565b61025c60043560243560008260010160005082815481101561000757600091825260209091200154600160a060020a03169392505050565b60408051918252519081900360200190f35b005b604080519115158252519081900360200190f35b60408051600160a060020a039092168252519081900360200190f35b50505060009283526020808420909201805473ffffffffffffffffffffffffffffffffffffffff191686179055600160a060020a0385168352908590526040909120819055600284018054600101905590505b505050565b509056",
        "nonce": "1",
        "storage": {}
      },
      "0xa529806c67cc6486d4d62024471772f47f6fd672": {
        "balance": "0x67820e39ac8fe9800",
        "code": "0x",
        "nonce": "68",
        "storage": {}
      }
    },
    "config": {
      "byzantiumBlock": 1700000,
      "chainId": 3,
      "daoForkSupport": true,
      "eip150Block": 0,
      "eip150Hash": "0x41941023680923e0fe4d74a34bdac8141f2540e3ae90623718e47d66d1ca4a2d",
      "eip155Block": 10,
      "eip158Block": 10,
      "ethash": {},
      "homesteadBlock": 0
    },
    "difficulty": "31912170",
    "extraData": "0xd783010502846765746887676f312e372e33856c696e7578",
    "gasLimit": "4712388",
    "hash": "0x0855914bdc581bccdc62591fd438498386ffb59ea4d5361ed5c3702e26e2c72f",
    "miner": "0x334391aa808257952a462d1475562ee2106a6c90",
    "mixHash": "0x64bb70b8ca883cadb8fbbda2c70a861612407864089ed87b98e5de20acceada6",
    "nonce": "0x684129f283aaef18",
    "number": "11494",
    "stateRoot": "0x7057f31fe3dab1d620771adad35224aae43eb70e94861208bc84c557ff5b9d10",
    "timestamp": "1479735912",
    "totalDifficulty": "90744064339"
  },
  "input": "0xf889448504a817c800832dc6c094269296dddce321a6bcbaa2f0181127593d732cba80a47065cb480000000000000000000000001523e55a1ca4efbae03355775ae89f8d7699ad9e29a080ed81e4c5e9971a730efab4885566e2c868cd80bd4166d0ed8c287fdf181650a069d7c49215e3d4416ad239cd09dbb71b9f04c16b33b385d14f40b618a7a65115",
  "result": {
    "calls": [
      {
        "calls": [
          {
            "from": "0x13204f5d64c28326fd7bd05fd4ea855302d7f2ff",
            "gas": "0x2bf459",
            "gasUsed": "0x2aa",
            "input": "0x7d65837a0000000000000000000000000000000000000000000000000000000000000000000000000000000000000000a529806c67cc6486d4d62024471772f47f6fd672",
            "output": "0x0000000000000000000000000000000000000000000000000000000000000001",
            "to": "0x42b02b5deeb78f34cd5ac896473b63e6c99a71a2",
            "type": "DELEGATECALL",
            "value": "0x0"
          }
        ],
        "from": "0x269296dddce321a6bcbaa2f0181127593d732cba",
        "gas": "0x2cae73",
        "gasUsed": "0xa9d",
        "input": "0x5dbe47e8000000000000000000000000a529806c67cc6486d4d62024471772f47f6fd672",
        "output": "0x0000000000000000000000000000000000000000000000000000000000000001",
        "to": "0x13204f5d64c28326fd7bd05fd4ea855302d7f2ff",
        "type": "CALL",
        "value": "0x0"
      }
    ],
    "from": "0xa529806c67cc6486d4d62024471772f47f6fd672",
    "gas": "0x2dc6c0",
    "gasUsed": "0xbd55",
    "input": "0x7065cb480000000000000000000000001523e55a1ca4efbae03355775ae89f8d7699ad9e",
    "to": "0x269296dddce321a6bcbaa2f0181127593d732cba",
    "type": "CALL",
    "value": "0x0"
  }
}
