{
    "AmbiguousMethod_d0g0v0_Byzantium" : {
        "_info" : {
            "comment" : "",
            "filledwith" : "cpp-1.3.0+commit.6e0ce939.Linux.g++",
            "lllcversion" : "Version: 0.4.18-develop.2017.9.25+commit.a72237f2.Linux.g++",
            "source" : "src/BlockchainTestsFiller/GeneralStateTests/stSolidityTest/AmbiguousMethod_d0g0v0Filler.json",
            "sourceHash" : "c5e6ac8c76980af5f0a0086d43f5cc592d84eed5539af97d93cde1874aea3cfc"
        },
        "blocks" : [
            {
                "blockHeader" : {
                    "bloom" : "0x00000000000000000000000000000000000000000000000000000000000000000000000000000000000000000000000000000000000000000000000000000000000000000000000000000000000000000000000000000000000000000000000000000000000000000000000000000000000000000000000000000000000000000000000000000000000000000000000000000000000000000000000000000000000000000000000000000000000000000000000000000000000000000000000000000000000000000000000000000000000000000000000000000000000000000000000000000000000000000000000000000000000000000000000000000000",
                    "coinbase" : "0x2adc25665018aa1fe0e6bc666dac8fc2697ff9ba",
                    "difficulty" : "0x020000",
                    "extraData" : "",
                    "gasLimit" : "0x05f5e100",
                    "gasUsed" : "0xa1cb",
                    "hash" : "0x7da7bb6fee275c693e671490d6697441ea510982a9495c4ada3df33ae65de163",
                    "mixHash" : "0xc279c0ec73ea152374c848061d94a6a46fdd7cf8d292f4d4dcc12eb7c2070ee6",
                    "nonce" : "0xcd6a632694f47bd0",
                    "number" : "0x01",
                    "parentHash" : "0xdc81bbc6a7694b3b99755fc8b5ef4b7977a8d5bf72bb57197995c6645d1c9f5b",
                    "receiptTrie" : "0x3b9b0153cf2ec758a7e85b868ea69c083ad8dd0b2e82806b8a214cc27dc33d20",
                    "stateRoot" : "0x1f7b60cac5f9c174595c9b94b4d05b08d7a347d6e0f0c1dceab4d9cbfe1906f3",
                    "timestamp" : "0x03e8",
                    "transactionsTrie" : "0xe94897ffb28a465151bb91d533541d37a6a0bf8cac7b9d711257ad6d89aae671",
                    "uncleHash" : "0x1dcc4de8dec75d7aab85b567b6ccd41ad312451b948a7413f0a142fd40d49347"
                },
                "rlp" : "0xf90264f901f8a0dc81bbc6a7694b3b99755fc8b5ef4b7977a8d5bf72bb57197995c6645d1c9f5ba01dcc4de8dec75d7aab85b567b6ccd41ad312451b948a7413f0a142fd40d49347942adc25665018aa1fe0e6bc666dac8fc2697ff9baa01f7b60cac5f9c174595c9b94b4d05b08d7a347d6e0f0c1dceab4d9cbfe1906f3a0e94897ffb28a465151bb91d533541d37a6a0bf8cac7b9d711257ad6d89aae671a03b9b0153cf2ec758a7e85b868ea69c083ad8dd0b2e82806b8a214cc27dc33d20b901000000000000000000000000000000000000000000000000000000000000000000000000000000000000000000000000000000000000000000000000000000000000000000000000000000000000000000000000000000000000000000000000000000000000000000000000000000000000000000000000000000000000000000000000000000000000000000000000000000000000000000000000000000000000000000000000000000000000000000000000000000000000000000000000000000000000000000000000000000000000000000000000000000000000000000000000000000000000000000000000000000000000000000000000000000000083020000018405f5e10082a1cb8203e880a0c279c0ec73ea152374c848061d94a6a46fdd7cf8d292f4d4dcc12eb7c2070ee688cd6a632694f47bd0f866f8648001830493e094095e7baea6a6c7c4c2dfeb977efac326af552d870184c04062261ca006c803b62d4ae5b7010a2a46ca772506d98938c5750574b8659887e4578aa071a06e06232e0ab34ddce064aafeb273eff238a45b02f394ead946d5946f4213b441c0",
                "transactions" : [
                    {
                        "data" : "0xc0406226",
                        "gasLimit" : "0x0493e0",
                        "gasPrice" : "0x01",
                        "nonce" : "0x00",
                        "r" : "0x06c803b62d4ae5b7010a2a46ca772506d98938c5750574b8659887e4578aa071",
                        "s" : "0x6e06232e0ab34ddce064aafeb273eff238a45b02f394ead946d5946f4213b441",
                        "to" : "0x095e7baea6a6c7c4c2dfeb977efac326af552d87",
                        "v" : "0x1c",
                        "value" : "0x01"
                    }
                ],
                "uncleHeaders" : [
                ]
            }
        ],
        "genesisBlockHeader" : {
            "bloom" : "0x00000000000000000000000000000000000000000000000000000000000000000000000000000000000000000000000000000000000000000000000000000000000000000000000000000000000000000000000000000000000000000000000000000000000000000000000000000000000000000000000000000000000000000000000000000000000000000000000000000000000000000000000000000000000000000000000000000000000000000000000000000000000000000000000000000000000000000000000000000000000000000000000000000000000000000000000000000000000000000000000000000000000000000000000000000000",
            "coinbase" : "0x2adc25665018aa1fe0e6bc666dac8fc2697ff9ba",
            "difficulty" : "0x020000",
            "extraData" : "0x42",
            "gasLimit" : "0x05f5e100",
            "gasUsed" : "0x00",
            "hash" : "0xdc81bbc6a7694b3b99755fc8b5ef4b7977a8d5bf72bb57197995c6645d1c9f5b",
            "mixHash" : "0x56e81f171bcc55a6ff8345e692c0f86e5b48e01b996cadc001622fb5e363b421",
            "nonce" : "0x0102030405060708",
            "number" : "0x00",
            "parentHash" : "0x0000000000000000000000000000000000000000000000000000000000000000",
            "receiptTrie" : "0x56e81f171bcc55a6ff8345e692c0f86e5b48e01b996cadc001622fb5e363b421",
            "stateRoot" : "0xa255d36649354a92f804a31c33087b6792b03cb32b880b2c22d390f08a572474",
            "timestamp" : "0x03b6",
            "transactionsTrie" : "0x56e81f171bcc55a6ff8345e692c0f86e5b48e01b996cadc001622fb5e363b421",
            "uncleHash" : "0x1dcc4de8dec75d7aab85b567b6ccd41ad312451b948a7413f0a142fd40d49347"
        },
        "genesisRLP" : "0xf901fbf901f6a00000000000000000000000000000000000000000000000000000000000000000a01dcc4de8dec75d7aab85b567b6ccd41ad312451b948a7413f0a142fd40d49347942adc25665018aa1fe0e6bc666dac8fc2697ff9baa0a255d36649354a92f804a31c33087b6792b03cb32b880b2c22d390f08a572474a056e81f171bcc55a6ff8345e692c0f86e5b48e01b996cadc001622fb5e363b421a056e81f171bcc55a6ff8345e692c0f86e5b48e01b996cadc001622fb5e363b421b901000000000000000000000000000000000000000000000000000000000000000000000000000000000000000000000000000000000000000000000000000000000000000000000000000000000000000000000000000000000000000000000000000000000000000000000000000000000000000000000000000000000000000000000000000000000000000000000000000000000000000000000000000000000000000000000000000000000000000000000000000000000000000000000000000000000000000000000000000000000000000000000000000000000000000000000000000000000000000000000000000000000000000000000000000000000083020000808405f5e100808203b642a056e81f171bcc55a6ff8345e692c0f86e5b48e01b996cadc001622fb5e363b421880102030405060708c0c0",
        "lastblockhash" : "0x7da7bb6fee275c693e671490d6697441ea510982a9495c4ada3df33ae65de163",
        "network" : "Byzantium",
        "postState" : {
            "0x095e7baea6a6c7c4c2dfeb977efac326af552d87" : {
                "balance" : "0x0186a1",
                "code" : "0x60003560e060020a90048063c040622614601557005b601b6021565b60006000f35b61014f60008190555056",
                "nonce" : "0x00",
                "storage" : {
                    "0x00" : "0x014f"
                }
            },
            "0x2adc25665018aa1fe0e6bc666dac8fc2697ff9ba" : {
                "balance" : "0x29a2241af62ca1cb",
                "code" : "",
                "nonce" : "0x00",
                "storage" : {
                }
            },
            "0xa94f5374fce5edbc8e2a8697c15331677e6ebf0b" : {
                "balance" : "0x06ff54",
                "code" : "",
                "nonce" : "0x01",
                "storage" : {
                }
            }
        },
        "pre" : {
            "0x095e7baea6a6c7c4c2dfeb977efac326af552d87" : {
                "balance" : "0x0186a0",
                "code" : "0x60003560e060020a90048063c040622614601557005b601b6021565b60006000f35b61014f60008190555056",
                "nonce" : "0x00",
                "storage" : {
                }
            },
            "0xa94f5374fce5edbc8e2a8697c15331677e6ebf0b" : {
                "balance" : "0x07a120",
                "code" : "",
                "nonce" : "0x00",
                "storage" : {
                }
            }
        }
    },
    "AmbiguousMethod_d0g0v0_EIP150" : {
        "_info" : {
            "comment" : "",
            "filledwith" : "cpp-1.3.0+commit.6e0ce939.Linux.g++",
            "lllcversion" : "Version: 0.4.18-develop.2017.9.25+commit.a72237f2.Linux.g++",
            "source" : "src/BlockchainTestsFiller/GeneralStateTests/stSolidityTest/AmbiguousMethod_d0g0v0Filler.json",
            "sourceHash" : "c5e6ac8c76980af5f0a0086d43f5cc592d84eed5539af97d93cde1874aea3cfc"
        },
        "blocks" : [
            {
                "blockHeader" : {
                    "bloom" : "0x00000000000000000000000000000000000000000000000000000000000000000000000000000000000000000000000000000000000000000000000000000000000000000000000000000000000000000000000000000000000000000000000000000000000000000000000000000000000000000000000000000000000000000000000000000000000000000000000000000000000000000000000000000000000000000000000000000000000000000000000000000000000000000000000000000000000000000000000000000000000000000000000000000000000000000000000000000000000000000000000000000000000000000000000000000000",
                    "coinbase" : "0x2adc25665018aa1fe0e6bc666dac8fc2697ff9ba",
                    "difficulty" : "0x020000",
                    "extraData" : "",
                    "gasLimit" : "0x05f5e100",
                    "gasUsed" : "0xa1a3",
                    "hash" : "0xd934ff7d2ed77b57e3de6939af2548f8850747557b93f0904e88ceded6f35ffb",
                    "mixHash" : "0xfb34c1f8f0e89a0a0f35ac6637b29e17ff263dcca690a567dffe9d77a01436ce",
                    "nonce" : "0xe07a440d17bb2eb9",
                    "number" : "0x01",
                    "parentHash" : "0xdc81bbc6a7694b3b99755fc8b5ef4b7977a8d5bf72bb57197995c6645d1c9f5b",
                    "receiptTrie" : "0xda17bf6d6243696d33e1e8bc9c9682f9f2137fc3c640d7d1f27919e9cf097db4",
                    "stateRoot" : "0xddff813485ba98dfff7482be912fbfe7aebdc4e9700eed0586d73438c1b134e3",
                    "timestamp" : "0x03e8",
                    "transactionsTrie" : "0xe94897ffb28a465151bb91d533541d37a6a0bf8cac7b9d711257ad6d89aae671",
                    "uncleHash" : "0x1dcc4de8dec75d7aab85b567b6ccd41ad312451b948a7413f0a142fd40d49347"
                },
                "rlp" : "0xf90264f901f8a0dc81bbc6a7694b3b99755fc8b5ef4b7977a8d5bf72bb57197995c6645d1c9f5ba01dcc4de8dec75d7aab85b567b6ccd41ad312451b948a7413f0a142fd40d49347942adc25665018aa1fe0e6bc666dac8fc2697ff9baa0ddff813485ba98dfff7482be912fbfe7aebdc4e9700eed0586d73438c1b134e3a0e94897ffb28a465151bb91d533541d37a6a0bf8cac7b9d711257ad6d89aae671a0da17bf6d6243696d33e1e8bc9c9682f9f2137fc3c640d7d1f27919e9cf097db4b901000000000000000000000000000000000000000000000000000000000000000000000000000000000000000000000000000000000000000000000000000000000000000000000000000000000000000000000000000000000000000000000000000000000000000000000000000000000000000000000000000000000000000000000000000000000000000000000000000000000000000000000000000000000000000000000000000000000000000000000000000000000000000000000000000000000000000000000000000000000000000000000000000000000000000000000000000000000000000000000000000000000000000000000000000000000083020000018405f5e10082a1a38203e880a0fb34c1f8f0e89a0a0f35ac6637b29e17ff263dcca690a567dffe9d77a01436ce88e07a440d17bb2eb9f866f8648001830493e094095e7baea6a6c7c4c2dfeb977efac326af552d870184c04062261ca006c803b62d4ae5b7010a2a46ca772506d98938c5750574b8659887e4578aa071a06e06232e0ab34ddce064aafeb273eff238a45b02f394ead946d5946f4213b441c0",
                "transactions" : [
                    {
                        "data" : "0xc0406226",
                        "gasLimit" : "0x0493e0",
                        "gasPrice" : "0x01",
                        "nonce" : "0x00",
                        "r" : "0x06c803b62d4ae5b7010a2a46ca772506d98938c5750574b8659887e4578aa071",
                        "s" : "0x6e06232e0ab34ddce064aafeb273eff238a45b02f394ead946d5946f4213b441",
                        "to" : "0x095e7baea6a6c7c4c2dfeb977efac326af552d87",
                        "v" : "0x1c",
                        "value" : "0x01"
                    }
                ],
                "uncleHeaders" : [
                ]
            }
        ],
        "genesisBlockHeader" : {
            "bloom" : "0x00000000000000000000000000000000000000000000000000000000000000000000000000000000000000000000000000000000000000000000000000000000000000000000000000000000000000000000000000000000000000000000000000000000000000000000000000000000000000000000000000000000000000000000000000000000000000000000000000000000000000000000000000000000000000000000000000000000000000000000000000000000000000000000000000000000000000000000000000000000000000000000000000000000000000000000000000000000000000000000000000000000000000000000000000000000",
            "coinbase" : "0x2adc25665018aa1fe0e6bc666dac8fc2697ff9ba",
            "difficulty" : "0x020000",
            "extraData" : "0x42",
            "gasLimit" : "0x05f5e100",
            "gasUsed" : "0x00",
            "hash" : "0xdc81bbc6a7694b3b99755fc8b5ef4b7977a8d5bf72bb57197995c6645d1c9f5b",
            "mixHash" : "0x56e81f171bcc55a6ff8345e692c0f86e5b48e01b996cadc001622fb5e363b421",
            "nonce" : "0x0102030405060708",
            "number" : "0x00",
            "parentHash" : "0x0000000000000000000000000000000000000000000000000000000000000000",
            "receiptTrie" : "0x56e81f171bcc55a6ff8345e692c0f86e5b48e01b996cadc001622fb5e363b421",
            "stateRoot" : "0xa255d36649354a92f804a31c33087b6792b03cb32b880b2c22d390f08a572474",
            "timestamp" : "0x03b6",
            "transactionsTrie" : "0x56e81f171bcc55a6ff8345e692c0f86e5b48e01b996cadc001622fb5e363b421",
            "uncleHash" : "0x1dcc4de8dec75d7aab85b567b6ccd41ad312451b948a7413f0a142fd40d49347"
        },
        "genesisRLP" : "0xf901fbf901f6a00000000000000000000000000000000000000000000000000000000000000000a01dcc4de8dec75d7aab85b567b6ccd41ad312451b948a7413f0a142fd40d49347942adc25665018aa1fe0e6bc666dac8fc2697ff9baa0a255d36649354a92f804a31c33087b6792b03cb32b880b2c22d390f08a572474a056e81f171bcc55a6ff8345e692c0f86e5b48e01b996cadc001622fb5e363b421a056e81f171bcc55a6ff8345e692c0f86e5b48e01b996cadc001622fb5e363b421b901000000000000000000000000000000000000000000000000000000000000000000000000000000000000000000000000000000000000000000000000000000000000000000000000000000000000000000000000000000000000000000000000000000000000000000000000000000000000000000000000000000000000000000000000000000000000000000000000000000000000000000000000000000000000000000000000000000000000000000000000000000000000000000000000000000000000000000000000000000000000000000000000000000000000000000000000000000000000000000000000000000000000000000000000000000000083020000808405f5e100808203b642a056e81f171bcc55a6ff8345e692c0f86e5b48e01b996cadc001622fb5e363b421880102030405060708c0c0",
        "lastblockhash" : "0xd934ff7d2ed77b57e3de6939af2548f8850747557b93f0904e88ceded6f35ffb",
        "network" : "EIP150",
        "postState" : {
            "0x095e7baea6a6c7c4c2dfeb977efac326af552d87" : {
                "balance" : "0x0186a1",
                "code" : "0x60003560e060020a90048063c040622614601557005b601b6021565b60006000f35b61014f60008190555056",
                "nonce" : "0x00",
                "storage" : {
                    "0x00" : "0x014f"
                }
            },
            "0x2adc25665018aa1fe0e6bc666dac8fc2697ff9ba" : {
                "balance" : "0x4563918244f4a1a3",
                "code" : "",
                "nonce" : "0x00",
                "storage" : {
                }
            },
            "0xa94f5374fce5edbc8e2a8697c15331677e6ebf0b" : {
                "balance" : "0x06ff7c",
                "code" : "",
                "nonce" : "0x01",
                "storage" : {
                }
            }
        },
        "pre" : {
            "0x095e7baea6a6c7c4c2dfeb977efac326af552d87" : {
                "balance" : "0x0186a0",
                "code" : "0x60003560e060020a90048063c040622614601557005b601b6021565b60006000f35b61014f60008190555056",
                "nonce" : "0x00",
                "storage" : {
                }
            },
            "0xa94f5374fce5edbc8e2a8697c15331677e6ebf0b" : {
                "balance" : "0x07a120",
                "code" : "",
                "nonce" : "0x00",
                "storage" : {
                }
            }
        }
    },
    "AmbiguousMethod_d0g0v0_EIP158" : {
        "_info" : {
            "comment" : "",
            "filledwith" : "cpp-1.3.0+commit.6e0ce939.Linux.g++",
            "lllcversion" : "Version: 0.4.18-develop.2017.9.25+commit.a72237f2.Linux.g++",
            "source" : "src/BlockchainTestsFiller/GeneralStateTests/stSolidityTest/AmbiguousMethod_d0g0v0Filler.json",
            "sourceHash" : "c5e6ac8c76980af5f0a0086d43f5cc592d84eed5539af97d93cde1874aea3cfc"
        },
        "blocks" : [
            {
                "blockHeader" : {
                    "bloom" : "0x00000000000000000000000000000000000000000000000000000000000000000000000000000000000000000000000000000000000000000000000000000000000000000000000000000000000000000000000000000000000000000000000000000000000000000000000000000000000000000000000000000000000000000000000000000000000000000000000000000000000000000000000000000000000000000000000000000000000000000000000000000000000000000000000000000000000000000000000000000000000000000000000000000000000000000000000000000000000000000000000000000000000000000000000000000000",
                    "coinbase" : "0x2adc25665018aa1fe0e6bc666dac8fc2697ff9ba",
                    "difficulty" : "0x020000",
                    "extraData" : "",
                    "gasLimit" : "0x05f5e100",
                    "gasUsed" : "0xa1cb",
                    "hash" : "0xeb7d613e4f6fe573e0f5927ae863c10b4fb88f219bf227872e07429896191067",
                    "mixHash" : "0xec1980560433e18dcf408c41bedbff0f3580f40fa430fe57d1c7d01f287db6b7",
                    "nonce" : "0xefe906d2e51b7a39",
                    "number" : "0x01",
                    "parentHash" : "0xdc81bbc6a7694b3b99755fc8b5ef4b7977a8d5bf72bb57197995c6645d1c9f5b",
                    "receiptTrie" : "0x9048c01e91e23e800d1983b005766f22740515c150a3237a60cbb999361a6d83",
                    "stateRoot" : "0xe51eaed82e3c6e4d401700379a5af0af02ad9eb96a98865cd94c1b85cec5005b",
                    "timestamp" : "0x03e8",
                    "transactionsTrie" : "0xe94897ffb28a465151bb91d533541d37a6a0bf8cac7b9d711257ad6d89aae671",
                    "uncleHash" : "0x1dcc4de8dec75d7aab85b567b6ccd41ad312451b948a7413f0a142fd40d49347"
                },
                "rlp" : "0xf90264f901f8a0dc81bbc6a7694b3b99755fc8b5ef4b7977a8d5bf72bb57197995c6645d1c9f5ba01dcc4de8dec75d7aab85b567b6ccd41ad312451b948a7413f0a142fd40d49347942adc25665018aa1fe0e6bc666dac8fc2697ff9baa0e51eaed82e3c6e4d401700379a5af0af02ad9eb96a98865cd94c1b85cec5005ba0e94897ffb28a465151bb91d533541d37a6a0bf8cac7b9d711257ad6d89aae671a09048c01e91e23e800d1983b005766f22740515c150a3237a60cbb999361a6d83b901000000000000000000000000000000000000000000000000000000000000000000000000000000000000000000000000000000000000000000000000000000000000000000000000000000000000000000000000000000000000000000000000000000000000000000000000000000000000000000000000000000000000000000000000000000000000000000000000000000000000000000000000000000000000000000000000000000000000000000000000000000000000000000000000000000000000000000000000000000000000000000000000000000000000000000000000000000000000000000000000000000000000000000000000000000000083020000018405f5e10082a1cb8203e880a0ec1980560433e18dcf408c41bedbff0f3580f40fa430fe57d1c7d01f287db6b788efe906d2e51b7a39f866f8648001830493e094095e7baea6a6c7c4c2dfeb977efac326af552d870184c04062261ca006c803b62d4ae5b7010a2a46ca772506d98938c5750574b8659887e4578aa071a06e06232e0ab34ddce064aafeb273eff238a45b02f394ead946d5946f4213b441c0",
                "transactions" : [
                    {
                        "data" : "0xc0406226",
                        "gasLimit" : "0x0493e0",
                        "gasPrice" : "0x01",
                        "nonce" : "0x00",
                        "r" : "0x06c803b62d4ae5b7010a2a46ca772506d98938c5750574b8659887e4578aa071",
                        "s" : "0x6e06232e0ab34ddce064aafeb273eff238a45b02f394ead946d5946f4213b441",
                        "to" : "0x095e7baea6a6c7c4c2dfeb977efac326af552d87",
                        "v" : "0x1c",
                        "value" : "0x01"
                    }
                ],
                "uncleHeaders" : [
                ]
            }
        ],
        "genesisBlockHeader" : {
            "bloom" : "0x00000000000000000000000000000000000000000000000000000000000000000000000000000000000000000000000000000000000000000000000000000000000000000000000000000000000000000000000000000000000000000000000000000000000000000000000000000000000000000000000000000000000000000000000000000000000000000000000000000000000000000000000000000000000000000000000000000000000000000000000000000000000000000000000000000000000000000000000000000000000000000000000000000000000000000000000000000000000000000000000000000000000000000000000000000000",
            "coinbase" : "0x2adc25665018aa1fe0e6bc666dac8fc2697ff9ba",
            "difficulty" : "0x020000",
            "extraData" : "0x42",
            "gasLimit" : "0x05f5e100",
            "gasUsed" : "0x00",
            "hash" : "0xdc81bbc6a7694b3b99755fc8b5ef4b7977a8d5bf72bb57197995c6645d1c9f5b",
            "mixHash" : "0x56e81f171bcc55a6ff8345e692c0f86e5b48e01b996cadc001622fb5e363b421",
            "nonce" : "0x0102030405060708",
            "number" : "0x00",
            "parentHash" : "0x0000000000000000000000000000000000000000000000000000000000000000",
            "receiptTrie" : "0x56e81f171bcc55a6ff8345e692c0f86e5b48e01b996cadc001622fb5e363b421",
            "stateRoot" : "0xa255d36649354a92f804a31c33087b6792b03cb32b880b2c22d390f08a572474",
            "timestamp" : "0x03b6",
            "transactionsTrie" : "0x56e81f171bcc55a6ff8345e692c0f86e5b48e01b996cadc001622fb5e363b421",
            "uncleHash" : "0x1dcc4de8dec75d7aab85b567b6ccd41ad312451b948a7413f0a142fd40d49347"
        },
        "genesisRLP" : "0xf901fbf901f6a00000000000000000000000000000000000000000000000000000000000000000a01dcc4de8dec75d7aab85b567b6ccd41ad312451b948a7413f0a142fd40d49347942adc25665018aa1fe0e6bc666dac8fc2697ff9baa0a255d36649354a92f804a31c33087b6792b03cb32b880b2c22d390f08a572474a056e81f171bcc55a6ff8345e692c0f86e5b48e01b996cadc001622fb5e363b421a056e81f171bcc55a6ff8345e692c0f86e5b48e01b996cadc001622fb5e363b421b901000000000000000000000000000000000000000000000000000000000000000000000000000000000000000000000000000000000000000000000000000000000000000000000000000000000000000000000000000000000000000000000000000000000000000000000000000000000000000000000000000000000000000000000000000000000000000000000000000000000000000000000000000000000000000000000000000000000000000000000000000000000000000000000000000000000000000000000000000000000000000000000000000000000000000000000000000000000000000000000000000000000000000000000000000000000083020000808405f5e100808203b642a056e81f171bcc55a6ff8345e692c0f86e5b48e01b996cadc001622fb5e363b421880102030405060708c0c0",
        "lastblockhash" : "0xeb7d613e4f6fe573e0f5927ae863c10b4fb88f219bf227872e07429896191067",
        "network" : "EIP158",
        "postState" : {
            "0x095e7baea6a6c7c4c2dfeb977efac326af552d87" : {
                "balance" : "0x0186a1",
                "code" : "0x60003560e060020a90048063c040622614601557005b601b6021565b60006000f35b61014f60008190555056",
                "nonce" : "0x00",
                "storage" : {
                    "0x00" : "0x014f"
                }
            },
            "0x2adc25665018aa1fe0e6bc666dac8fc2697ff9ba" : {
                "balance" : "0x4563918244f4a1cb",
                "code" : "",
                "nonce" : "0x00",
                "storage" : {
                }
            },
            "0xa94f5374fce5edbc8e2a8697c15331677e6ebf0b" : {
                "balance" : "0x06ff54",
                "code" : "",
                "nonce" : "0x01",
                "storage" : {
                }
            }
        },
        "pre" : {
            "0x095e7baea6a6c7c4c2dfeb977efac326af552d87" : {
                "balance" : "0x0186a0",
                "code" : "0x60003560e060020a90048063c040622614601557005b601b6021565b60006000f35b61014f60008190555056",
                "nonce" : "0x00",
                "storage" : {
                }
            },
            "0xa94f5374fce5edbc8e2a8697c15331677e6ebf0b" : {
                "balance" : "0x07a120",
                "code" : "",
                "nonce" : "0x00",
                "storage" : {
                }
            }
        }
    },
    "AmbiguousMethod_d0g0v0_Frontier" : {
        "_info" : {
            "comment" : "",
            "filledwith" : "cpp-1.3.0+commit.6e0ce939.Linux.g++",
            "lllcversion" : "Version: 0.4.18-develop.2017.9.25+commit.a72237f2.Linux.g++",
            "source" : "src/BlockchainTestsFiller/GeneralStateTests/stSolidityTest/AmbiguousMethod_d0g0v0Filler.json",
            "sourceHash" : "c5e6ac8c76980af5f0a0086d43f5cc592d84eed5539af97d93cde1874aea3cfc"
        },
        "blocks" : [
            {
                "blockHeader" : {
                    "bloom" : "0x00000000000000000000000000000000000000000000000000000000000000000000000000000000000000000000000000000000000000000000000000000000000000000000000000000000000000000000000000000000000000000000000000000000000000000000000000000000000000000000000000000000000000000000000000000000000000000000000000000000000000000000000000000000000000000000000000000000000000000000000000000000000000000000000000000000000000000000000000000000000000000000000000000000000000000000000000000000000000000000000000000000000000000000000000000000",
                    "coinbase" : "0x2adc25665018aa1fe0e6bc666dac8fc2697ff9ba",
                    "difficulty" : "0x020000",
                    "extraData" : "",
                    "gasLimit" : "0x05f5e100",
                    "gasUsed" : "0xa1a3",
                    "hash" : "0x84a1637c72f4148a671c9c67cba662ffc96ae9f55c4d00bc5e99e0aa0b46b823",
                    "mixHash" : "0x32ab848ba2c70f6098c17de98b2ff80d4995ea489a2db1daaa91ee7cef07acb8",
                    "nonce" : "0x0b2ae03a7bd2a3ee",
                    "number" : "0x01",
                    "parentHash" : "0xdc81bbc6a7694b3b99755fc8b5ef4b7977a8d5bf72bb57197995c6645d1c9f5b",
                    "receiptTrie" : "0xda17bf6d6243696d33e1e8bc9c9682f9f2137fc3c640d7d1f27919e9cf097db4",
                    "stateRoot" : "0xddff813485ba98dfff7482be912fbfe7aebdc4e9700eed0586d73438c1b134e3",
                    "timestamp" : "0x03e8",
                    "transactionsTrie" : "0xe94897ffb28a465151bb91d533541d37a6a0bf8cac7b9d711257ad6d89aae671",
                    "uncleHash" : "0x1dcc4de8dec75d7aab85b567b6ccd41ad312451b948a7413f0a142fd40d49347"
                },
                "rlp" : "0xf90264f901f8a0dc81bbc6a7694b3b99755fc8b5ef4b7977a8d5bf72bb57197995c6645d1c9f5ba01dcc4de8dec75d7aab85b567b6ccd41ad312451b948a7413f0a142fd40d49347942adc25665018aa1fe0e6bc666dac8fc2697ff9baa0ddff813485ba98dfff7482be912fbfe7aebdc4e9700eed0586d73438c1b134e3a0e94897ffb28a465151bb91d533541d37a6a0bf8cac7b9d711257ad6d89aae671a0da17bf6d6243696d33e1e8bc9c9682f9f2137fc3c640d7d1f27919e9cf097db4b901000000000000000000000000000000000000000000000000000000000000000000000000000000000000000000000000000000000000000000000000000000000000000000000000000000000000000000000000000000000000000000000000000000000000000000000000000000000000000000000000000000000000000000000000000000000000000000000000000000000000000000000000000000000000000000000000000000000000000000000000000000000000000000000000000000000000000000000000000000000000000000000000000000000000000000000000000000000000000000000000000000000000000000000000000000000083020000018405f5e10082a1a38203e880a032ab848ba2c70f6098c17de98b2ff80d4995ea489a2db1daaa91ee7cef07acb8880b2ae03a7bd2a3eef866f8648001830493e094095e7baea6a6c7c4c2dfeb977efac326af552d870184c04062261ca006c803b62d4ae5b7010a2a46ca772506d98938c5750574b8659887e4578aa071a06e06232e0ab34ddce064aafeb273eff238a45b02f394ead946d5946f4213b441c0",
                "transactions" : [
                    {
                        "data" : "0xc0406226",
                        "gasLimit" : "0x0493e0",
                        "gasPrice" : "0x01",
                        "nonce" : "0x00",
                        "r" : "0x06c803b62d4ae5b7010a2a46ca772506d98938c5750574b8659887e4578aa071",
                        "s" : "0x6e06232e0ab34ddce064aafeb273eff238a45b02f394ead946d5946f4213b441",
                        "to" : "0x095e7baea6a6c7c4c2dfeb977efac326af552d87",
                        "v" : "0x1c",
                        "value" : "0x01"
                    }
                ],
                "uncleHeaders" : [
                ]
            }
        ],
        "genesisBlockHeader" : {
            "bloom" : "0x00000000000000000000000000000000000000000000000000000000000000000000000000000000000000000000000000000000000000000000000000000000000000000000000000000000000000000000000000000000000000000000000000000000000000000000000000000000000000000000000000000000000000000000000000000000000000000000000000000000000000000000000000000000000000000000000000000000000000000000000000000000000000000000000000000000000000000000000000000000000000000000000000000000000000000000000000000000000000000000000000000000000000000000000000000000",
            "coinbase" : "0x2adc25665018aa1fe0e6bc666dac8fc2697ff9ba",
            "difficulty" : "0x020000",
            "extraData" : "0x42",
            "gasLimit" : "0x05f5e100",
            "gasUsed" : "0x00",
            "hash" : "0xdc81bbc6a7694b3b99755fc8b5ef4b7977a8d5bf72bb57197995c6645d1c9f5b",
            "mixHash" : "0x56e81f171bcc55a6ff8345e692c0f86e5b48e01b996cadc001622fb5e363b421",
            "nonce" : "0x0102030405060708",
            "number" : "0x00",
            "parentHash" : "0x0000000000000000000000000000000000000000000000000000000000000000",
            "receiptTrie" : "0x56e81f171bcc55a6ff8345e692c0f86e5b48e01b996cadc001622fb5e363b421",
            "stateRoot" : "0xa255d36649354a92f804a31c33087b6792b03cb32b880b2c22d390f08a572474",
            "timestamp" : "0x03b6",
            "transactionsTrie" : "0x56e81f171bcc55a6ff8345e692c0f86e5b48e01b996cadc001622fb5e363b421",
            "uncleHash" : "0x1dcc4de8dec75d7aab85b567b6ccd41ad312451b948a7413f0a142fd40d49347"
        },
        "genesisRLP" : "0xf901fbf901f6a00000000000000000000000000000000000000000000000000000000000000000a01dcc4de8dec75d7aab85b567b6ccd41ad312451b948a7413f0a142fd40d49347942adc25665018aa1fe0e6bc666dac8fc2697ff9baa0a255d36649354a92f804a31c33087b6792b03cb32b880b2c22d390f08a572474a056e81f171bcc55a6ff8345e692c0f86e5b48e01b996cadc001622fb5e363b421a056e81f171bcc55a6ff8345e692c0f86e5b48e01b996cadc001622fb5e363b421b901000000000000000000000000000000000000000000000000000000000000000000000000000000000000000000000000000000000000000000000000000000000000000000000000000000000000000000000000000000000000000000000000000000000000000000000000000000000000000000000000000000000000000000000000000000000000000000000000000000000000000000000000000000000000000000000000000000000000000000000000000000000000000000000000000000000000000000000000000000000000000000000000000000000000000000000000000000000000000000000000000000000000000000000000000000000083020000808405f5e100808203b642a056e81f171bcc55a6ff8345e692c0f86e5b48e01b996cadc001622fb5e363b421880102030405060708c0c0",
        "lastblockhash" : "0x84a1637c72f4148a671c9c67cba662ffc96ae9f55c4d00bc5e99e0aa0b46b823",
        "network" : "Frontier",
        "postState" : {
            "0x095e7baea6a6c7c4c2dfeb977efac326af552d87" : {
                "balance" : "0x0186a1",
                "code" : "0x60003560e060020a90048063c040622614601557005b601b6021565b60006000f35b61014f60008190555056",
                "nonce" : "0x00",
                "storage" : {
                    "0x00" : "0x014f"
                }
            },
            "0x2adc25665018aa1fe0e6bc666dac8fc2697ff9ba" : {
                "balance" : "0x4563918244f4a1a3",
                "code" : "",
                "nonce" : "0x00",
                "storage" : {
                }
            },
            "0xa94f5374fce5edbc8e2a8697c15331677e6ebf0b" : {
                "balance" : "0x06ff7c",
                "code" : "",
                "nonce" : "0x01",
                "storage" : {
                }
            }
        },
        "pre" : {
            "0x095e7baea6a6c7c4c2dfeb977efac326af552d87" : {
                "balance" : "0x0186a0",
                "code" : "0x60003560e060020a90048063c040622614601557005b601b6021565b60006000f35b61014f60008190555056",
                "nonce" : "0x00",
                "storage" : {
                }
            },
            "0xa94f5374fce5edbc8e2a8697c15331677e6ebf0b" : {
                "balance" : "0x07a120",
                "code" : "",
                "nonce" : "0x00",
                "storage" : {
                }
            }
        }
    },
    "AmbiguousMethod_d0g0v0_Homestead" : {
        "_info" : {
            "comment" : "",
            "filledwith" : "cpp-1.3.0+commit.6e0ce939.Linux.g++",
            "lllcversion" : "Version: 0.4.18-develop.2017.9.25+commit.a72237f2.Linux.g++",
            "source" : "src/BlockchainTestsFiller/GeneralStateTests/stSolidityTest/AmbiguousMethod_d0g0v0Filler.json",
            "sourceHash" : "c5e6ac8c76980af5f0a0086d43f5cc592d84eed5539af97d93cde1874aea3cfc"
        },
        "blocks" : [
            {
                "blockHeader" : {
                    "bloom" : "0x00000000000000000000000000000000000000000000000000000000000000000000000000000000000000000000000000000000000000000000000000000000000000000000000000000000000000000000000000000000000000000000000000000000000000000000000000000000000000000000000000000000000000000000000000000000000000000000000000000000000000000000000000000000000000000000000000000000000000000000000000000000000000000000000000000000000000000000000000000000000000000000000000000000000000000000000000000000000000000000000000000000000000000000000000000000",
                    "coinbase" : "0x2adc25665018aa1fe0e6bc666dac8fc2697ff9ba",
                    "difficulty" : "0x020000",
                    "extraData" : "",
                    "gasLimit" : "0x05f5e100",
                    "gasUsed" : "0xa1a3",
                    "hash" : "0x8647efda1b1d5fba429146d361006432d1394a0970f637b0b03d1a7caf3cba0e",
                    "mixHash" : "0xa2e7bb1d8169d456d996356ae8f56b10f4ac3764afc06dc82426e3da6b7831a3",
                    "nonce" : "0x938995b67965b6bb",
                    "number" : "0x01",
                    "parentHash" : "0xdc81bbc6a7694b3b99755fc8b5ef4b7977a8d5bf72bb57197995c6645d1c9f5b",
                    "receiptTrie" : "0xda17bf6d6243696d33e1e8bc9c9682f9f2137fc3c640d7d1f27919e9cf097db4",
                    "stateRoot" : "0xddff813485ba98dfff7482be912fbfe7aebdc4e9700eed0586d73438c1b134e3",
                    "timestamp" : "0x03e8",
                    "transactionsTrie" : "0xe94897ffb28a465151bb91d533541d37a6a0bf8cac7b9d711257ad6d89aae671",
                    "uncleHash" : "0x1dcc4de8dec75d7aab85b567b6ccd41ad312451b948a7413f0a142fd40d49347"
                },
                "rlp" : "0xf90264f901f8a0dc81bbc6a7694b3b99755fc8b5ef4b7977a8d5bf72bb57197995c6645d1c9f5ba01dcc4de8dec75d7aab85b567b6ccd41ad312451b948a7413f0a142fd40d49347942adc25665018aa1fe0e6bc666dac8fc2697ff9baa0ddff813485ba98dfff7482be912fbfe7aebdc4e9700eed0586d73438c1b134e3a0e94897ffb28a465151bb91d533541d37a6a0bf8cac7b9d711257ad6d89aae671a0da17bf6d6243696d33e1e8bc9c9682f9f2137fc3c640d7d1f27919e9cf097db4b901000000000000000000000000000000000000000000000000000000000000000000000000000000000000000000000000000000000000000000000000000000000000000000000000000000000000000000000000000000000000000000000000000000000000000000000000000000000000000000000000000000000000000000000000000000000000000000000000000000000000000000000000000000000000000000000000000000000000000000000000000000000000000000000000000000000000000000000000000000000000000000000000000000000000000000000000000000000000000000000000000000000000000000000000000000000083020000018405f5e10082a1a38203e880a0a2e7bb1d8169d456d996356ae8f56b10f4ac3764afc06dc82426e3da6b7831a388938995b67965b6bbf866f8648001830493e094095e7baea6a6c7c4c2dfeb977efac326af552d870184c04062261ca006c803b62d4ae5b7010a2a46ca772506d98938c5750574b8659887e4578aa071a06e06232e0ab34ddce064aafeb273eff238a45b02f394ead946d5946f4213b441c0",
                "transactions" : [
                    {
                        "data" : "0xc0406226",
                        "gasLimit" : "0x0493e0",
                        "gasPrice" : "0x01",
                        "nonce" : "0x00",
                        "r" : "0x06c803b62d4ae5b7010a2a46ca772506d98938c5750574b8659887e4578aa071",
                        "s" : "0x6e06232e0ab34ddce064aafeb273eff238a45b02f394ead946d5946f4213b441",
                        "to" : "0x095e7baea6a6c7c4c2dfeb977efac326af552d87",
                        "v" : "0x1c",
                        "value" : "0x01"
                    }
                ],
                "uncleHeaders" : [
                ]
            }
        ],
        "genesisBlockHeader" : {
            "bloom" : "0x00000000000000000000000000000000000000000000000000000000000000000000000000000000000000000000000000000000000000000000000000000000000000000000000000000000000000000000000000000000000000000000000000000000000000000000000000000000000000000000000000000000000000000000000000000000000000000000000000000000000000000000000000000000000000000000000000000000000000000000000000000000000000000000000000000000000000000000000000000000000000000000000000000000000000000000000000000000000000000000000000000000000000000000000000000000",
            "coinbase" : "0x2adc25665018aa1fe0e6bc666dac8fc2697ff9ba",
            "difficulty" : "0x020000",
            "extraData" : "0x42",
            "gasLimit" : "0x05f5e100",
            "gasUsed" : "0x00",
            "hash" : "0xdc81bbc6a7694b3b99755fc8b5ef4b7977a8d5bf72bb57197995c6645d1c9f5b",
            "mixHash" : "0x56e81f171bcc55a6ff8345e692c0f86e5b48e01b996cadc001622fb5e363b421",
            "nonce" : "0x0102030405060708",
            "number" : "0x00",
            "parentHash" : "0x0000000000000000000000000000000000000000000000000000000000000000",
            "receiptTrie" : "0x56e81f171bcc55a6ff8345e692c0f86e5b48e01b996cadc001622fb5e363b421",
            "stateRoot" : "0xa255d36649354a92f804a31c33087b6792b03cb32b880b2c22d390f08a572474",
            "timestamp" : "0x03b6",
            "transactionsTrie" : "0x56e81f171bcc55a6ff8345e692c0f86e5b48e01b996cadc001622fb5e363b421",
            "uncleHash" : "0x1dcc4de8dec75d7aab85b567b6ccd41ad312451b948a7413f0a142fd40d49347"
        },
        "genesisRLP" : "0xf901fbf901f6a00000000000000000000000000000000000000000000000000000000000000000a01dcc4de8dec75d7aab85b567b6ccd41ad312451b948a7413f0a142fd40d49347942adc25665018aa1fe0e6bc666dac8fc2697ff9baa0a255d36649354a92f804a31c33087b6792b03cb32b880b2c22d390f08a572474a056e81f171bcc55a6ff8345e692c0f86e5b48e01b996cadc001622fb5e363b421a056e81f171bcc55a6ff8345e692c0f86e5b48e01b996cadc001622fb5e363b421b901000000000000000000000000000000000000000000000000000000000000000000000000000000000000000000000000000000000000000000000000000000000000000000000000000000000000000000000000000000000000000000000000000000000000000000000000000000000000000000000000000000000000000000000000000000000000000000000000000000000000000000000000000000000000000000000000000000000000000000000000000000000000000000000000000000000000000000000000000000000000000000000000000000000000000000000000000000000000000000000000000000000000000000000000000000000083020000808405f5e100808203b642a056e81f171bcc55a6ff8345e692c0f86e5b48e01b996cadc001622fb5e363b421880102030405060708c0c0",
        "lastblockhash" : "0x8647efda1b1d5fba429146d361006432d1394a0970f637b0b03d1a7caf3cba0e",
        "network" : "Homestead",
        "postState" : {
            "0x095e7baea6a6c7c4c2dfeb977efac326af552d87" : {
                "balance" : "0x0186a1",
                "code" : "0x60003560e060020a90048063c040622614601557005b601b6021565b60006000f35b61014f60008190555056",
                "nonce" : "0x00",
                "storage" : {
                    "0x00" : "0x014f"
                }
            },
            "0x2adc25665018aa1fe0e6bc666dac8fc2697ff9ba" : {
                "balance" : "0x4563918244f4a1a3",
                "code" : "",
                "nonce" : "0x00",
                "storage" : {
                }
            },
            "0xa94f5374fce5edbc8e2a8697c15331677e6ebf0b" : {
                "balance" : "0x06ff7c",
                "code" : "",
                "nonce" : "0x01",
                "storage" : {
                }
            }
        },
        "pre" : {
            "0x095e7baea6a6c7c4c2dfeb977efac326af552d87" : {
                "balance" : "0x0186a0",
                "code" : "0x60003560e060020a90048063c040622614601557005b601b6021565b60006000f35b61014f60008190555056",
                "nonce" : "0x00",
                "storage" : {
                }
            },
            "0xa94f5374fce5edbc8e2a8697c15331677e6ebf0b" : {
                "balance" : "0x07a120",
                "code" : "",
                "nonce" : "0x00",
                "storage" : {
                }
            }
        }
    }
}