{
    "CallLowLevelCreatesSolidity_d0g0v0_Byzantium" : {
        "_info" : {
            "comment" : "",
            "filledwith" : "cpp-1.3.0+commit.6e0ce939.Linux.g++",
            "lllcversion" : "Version: 0.4.18-develop.2017.9.25+commit.a72237f2.Linux.g++",
            "source" : "src/BlockchainTestsFiller/GeneralStateTests/stSolidityTest/CallLowLevelCreatesSolidity_d0g0v0Filler.json",
            "sourceHash" : "c355880c85f5279f3c6c1789c0b2e16339cd42f7623409a360a30d79d8f206ff"
        },
        "blocks" : [
            {
                "blockHeader" : {
                    "bloom" : "0x00000000000000000000000000000000000000000000000000000000000000000000000000000000000000000000000000000000000000000000000000000000000000000000000000000000000000000000000000000000000000000000000000000000000000000000000000000000000000000000000000000000000000000000000000000000000000000000000000000000000000000000000000000000000000000000000000000000000000000000000000000000000000000000000000000000000000000000000000000000000000000000000000000000000000000000000000000000000000000000000000000000000000000000000000000000",
                    "coinbase" : "0x2adc25665018aa1fe0e6bc666dac8fc2697ff9ba",
                    "difficulty" : "0x020000",
                    "extraData" : "",
                    "gasLimit" : "0x05f5e100",
                    "gasUsed" : "0x01d4b2",
                    "hash" : "0x08f3700ef17cb82aa96dd55ce657dfa0bcab44ca1f0fa3e26b638164f7e0a7c0",
                    "mixHash" : "0x8156d8c28e6878aaa2c2fabaf9222831f2ff110ec97a02e8848940fe79ef5b3d",
                    "nonce" : "0x909f38a961d9681f",
                    "number" : "0x01",
                    "parentHash" : "0xa41b0b0a3c1b9ea66b3e5167025abf05fff6fd356f2eba850ff0c524b0572380",
                    "receiptTrie" : "0x18fd79c1a3a5a09581b56e87b156d189079c3fd97161718f87145a45770c3fa3",
                    "stateRoot" : "0xb33edbd964cb1e933947e29999cab10296d74aed016f4ce59db082110e50fdaf",
                    "timestamp" : "0x03e8",
                    "transactionsTrie" : "0x758e126e5308d1ef59b0be3487c5cd860b33d0b7ebde2ecb38b45cde05f5cbc1",
                    "uncleHash" : "0x1dcc4de8dec75d7aab85b567b6ccd41ad312451b948a7413f0a142fd40d49347"
                },
                "rlp" : "0xf90265f901f9a0a41b0b0a3c1b9ea66b3e5167025abf05fff6fd356f2eba850ff0c524b0572380a01dcc4de8dec75d7aab85b567b6ccd41ad312451b948a7413f0a142fd40d49347942adc25665018aa1fe0e6bc666dac8fc2697ff9baa0b33edbd964cb1e933947e29999cab10296d74aed016f4ce59db082110e50fdafa0758e126e5308d1ef59b0be3487c5cd860b33d0b7ebde2ecb38b45cde05f5cbc1a018fd79c1a3a5a09581b56e87b156d189079c3fd97161718f87145a45770c3fa3b901000000000000000000000000000000000000000000000000000000000000000000000000000000000000000000000000000000000000000000000000000000000000000000000000000000000000000000000000000000000000000000000000000000000000000000000000000000000000000000000000000000000000000000000000000000000000000000000000000000000000000000000000000000000000000000000000000000000000000000000000000000000000000000000000000000000000000000000000000000000000000000000000000000000000000000000000000000000000000000000000000000000000000000000000000000000083020000018405f5e1008301d4b28203e880a08156d8c28e6878aaa2c2fabaf9222831f2ff110ec97a02e8848940fe79ef5b3d88909f38a961d9681ff866f86480018305573094095e7baea6a6c7c4c2dfeb977efac326af552d870184c04062261ba0de52c10f466ca9a09c552f9669cf780cae9466caf4389d9196863b9ad1609d5ea076154d3c182d7b93f161add2125a73a0ba33ca816963930e51e1e7ee67d3bd7fc0",
                "transactions" : [
                    {
                        "data" : "0xc0406226",
                        "gasLimit" : "0x055730",
                        "gasPrice" : "0x01",
                        "nonce" : "0x00",
                        "r" : "0xde52c10f466ca9a09c552f9669cf780cae9466caf4389d9196863b9ad1609d5e",
                        "s" : "0x76154d3c182d7b93f161add2125a73a0ba33ca816963930e51e1e7ee67d3bd7f",
                        "to" : "0x095e7baea6a6c7c4c2dfeb977efac326af552d87",
                        "v" : "0x1b",
                        "value" : "0x01"
                    }
                ],
                "uncleHeaders" : [
                ]
            }
        ],
        "genesisBlockHeader" : {
            "bloom" : "0x00000000000000000000000000000000000000000000000000000000000000000000000000000000000000000000000000000000000000000000000000000000000000000000000000000000000000000000000000000000000000000000000000000000000000000000000000000000000000000000000000000000000000000000000000000000000000000000000000000000000000000000000000000000000000000000000000000000000000000000000000000000000000000000000000000000000000000000000000000000000000000000000000000000000000000000000000000000000000000000000000000000000000000000000000000000",
            "coinbase" : "0x2adc25665018aa1fe0e6bc666dac8fc2697ff9ba",
            "difficulty" : "0x020000",
            "extraData" : "0x42",
            "gasLimit" : "0x05f5e100",
            "gasUsed" : "0x00",
            "hash" : "0xa41b0b0a3c1b9ea66b3e5167025abf05fff6fd356f2eba850ff0c524b0572380",
            "mixHash" : "0x56e81f171bcc55a6ff8345e692c0f86e5b48e01b996cadc001622fb5e363b421",
            "nonce" : "0x0102030405060708",
            "number" : "0x00",
            "parentHash" : "0x0000000000000000000000000000000000000000000000000000000000000000",
            "receiptTrie" : "0x56e81f171bcc55a6ff8345e692c0f86e5b48e01b996cadc001622fb5e363b421",
            "stateRoot" : "0x695e890a531c8c1af44b07b410345e2684133d3afc8b2605078e1b312d337606",
            "timestamp" : "0x03b6",
            "transactionsTrie" : "0x56e81f171bcc55a6ff8345e692c0f86e5b48e01b996cadc001622fb5e363b421",
            "uncleHash" : "0x1dcc4de8dec75d7aab85b567b6ccd41ad312451b948a7413f0a142fd40d49347"
        },
        "genesisRLP" : "0xf901fbf901f6a00000000000000000000000000000000000000000000000000000000000000000a01dcc4de8dec75d7aab85b567b6ccd41ad312451b948a7413f0a142fd40d49347942adc25665018aa1fe0e6bc666dac8fc2697ff9baa0695e890a531c8c1af44b07b410345e2684133d3afc8b2605078e1b312d337606a056e81f171bcc55a6ff8345e692c0f86e5b48e01b996cadc001622fb5e363b421a056e81f171bcc55a6ff8345e692c0f86e5b48e01b996cadc001622fb5e363b421b901000000000000000000000000000000000000000000000000000000000000000000000000000000000000000000000000000000000000000000000000000000000000000000000000000000000000000000000000000000000000000000000000000000000000000000000000000000000000000000000000000000000000000000000000000000000000000000000000000000000000000000000000000000000000000000000000000000000000000000000000000000000000000000000000000000000000000000000000000000000000000000000000000000000000000000000000000000000000000000000000000000000000000000000000000000000083020000808405f5e100808203b642a056e81f171bcc55a6ff8345e692c0f86e5b48e01b996cadc001622fb5e363b421880102030405060708c0c0",
        "lastblockhash" : "0x08f3700ef17cb82aa96dd55ce657dfa0bcab44ca1f0fa3e26b638164f7e0a7c0",
        "network" : "Byzantium",
        "postState" : {
            "0x095e7baea6a6c7c4c2dfeb977efac326af552d87" : {
                "balance" : "0x0186a1",
                "code" : "0x60003560e060020a9004806330debb4214610021578063c04062261461003257005b61002c6004356100c7565b60006000f35b61003a610044565b8060005260206000f35b60006000600160008190555073095e7baea6a6c7c4c2dfeb977efac326af552d87600181905550606a6100d2600039606a60006000f0905080600160a060020a03166319ab453c600060008260e060020a026000526004600154600160a060020a03168152602001600060008660325a03f16100bc57005b505060005491505090565b80600081905550505600605e80600c6000396000f30060003560e060020a9004806319ab453c14601557005b601e6004356024565b60006000f35b80600160a060020a03166330debb42600060008260e060020a02600052600460e18152602001600060008660325a03f1605957005b50505056",
                "nonce" : "0x01",
                "storage" : {
                    "0x00" : "0xe1",
                    "0x01" : "0x095e7baea6a6c7c4c2dfeb977efac326af552d87"
                }
            },
            "0x2adc25665018aa1fe0e6bc666dac8fc2697ff9ba" : {
                "balance" : "0x29a2241af62dd4b2",
                "code" : "",
                "nonce" : "0x00",
                "storage" : {
                }
            },
            "0xa94f5374fce5edbc8e2a8697c15331677e6ebf0b" : {
                "balance" : "0x0d6d8d",
                "code" : "",
                "nonce" : "0x01",
                "storage" : {
                }
            },
            "0xd2571607e241ecf590ed94b12d87c94babe36db6" : {
                "balance" : "0x00",
                "code" : "0x60003560e060020a9004806319ab453c14601557005b601e6004356024565b60006000f35b80600160a060020a03166330debb42600060008260e060020a02600052600460e18152602001600060008660325a03f1605957005b50505056",
                "nonce" : "0x01",
                "storage" : {
                }
            }
        },
        "pre" : {
            "0x095e7baea6a6c7c4c2dfeb977efac326af552d87" : {
                "balance" : "0x0186a0",
                "code" : "0x60003560e060020a9004806330debb4214610021578063c04062261461003257005b61002c6004356100c7565b60006000f35b61003a610044565b8060005260206000f35b60006000600160008190555073095e7baea6a6c7c4c2dfeb977efac326af552d87600181905550606a6100d2600039606a60006000f0905080600160a060020a03166319ab453c600060008260e060020a026000526004600154600160a060020a03168152602001600060008660325a03f16100bc57005b505060005491505090565b80600081905550505600605e80600c6000396000f30060003560e060020a9004806319ab453c14601557005b601e6004356024565b60006000f35b80600160a060020a03166330debb42600060008260e060020a02600052600460e18152602001600060008660325a03f1605957005b50505056",
                "nonce" : "0x00",
                "storage" : {
                }
            },
            "0xa94f5374fce5edbc8e2a8697c15331677e6ebf0b" : {
                "balance" : "0x0f4240",
                "code" : "",
                "nonce" : "0x00",
                "storage" : {
                }
            }
        }
    },
    "CallLowLevelCreatesSolidity_d0g0v0_EIP150" : {
        "_info" : {
            "comment" : "",
            "filledwith" : "cpp-1.3.0+commit.6e0ce939.Linux.g++",
            "lllcversion" : "Version: 0.4.18-develop.2017.9.25+commit.a72237f2.Linux.g++",
            "source" : "src/BlockchainTestsFiller/GeneralStateTests/stSolidityTest/CallLowLevelCreatesSolidity_d0g0v0Filler.json",
            "sourceHash" : "c355880c85f5279f3c6c1789c0b2e16339cd42f7623409a360a30d79d8f206ff"
        },
        "blocks" : [
            {
                "blockHeader" : {
                    "bloom" : "0x00000000000000000000000000000000000000000000000000000000000000000000000000000000000000000000000000000000000000000000000000000000000000000000000000000000000000000000000000000000000000000000000000000000000000000000000000000000000000000000000000000000000000000000000000000000000000000000000000000000000000000000000000000000000000000000000000000000000000000000000000000000000000000000000000000000000000000000000000000000000000000000000000000000000000000000000000000000000000000000000000000000000000000000000000000000",
                    "coinbase" : "0x2adc25665018aa1fe0e6bc666dac8fc2697ff9ba",
                    "difficulty" : "0x020000",
                    "extraData" : "",
                    "gasLimit" : "0x05f5e100",
                    "gasUsed" : "0x01d372",
                    "hash" : "0x59ed82246fd43b23743bd4a39b5ce7a13e285ec696795fe4425a63158bf36d04",
                    "mixHash" : "0x07eb71f07121ea483b6acc9fb535e6fa387af0918d37ff6cd26d71fe60785414",
                    "nonce" : "0x43d801f5cdc545a6",
                    "number" : "0x01",
                    "parentHash" : "0xa41b0b0a3c1b9ea66b3e5167025abf05fff6fd356f2eba850ff0c524b0572380",
                    "receiptTrie" : "0xaf8a31819d86827287b88d0c46e40f4293092e2124b1a13ef39952f1405dd228",
                    "stateRoot" : "0x736b01a2d693b619da1839712bada7e9789fa379770b50a42e290f757257df9c",
                    "timestamp" : "0x03e8",
                    "transactionsTrie" : "0x758e126e5308d1ef59b0be3487c5cd860b33d0b7ebde2ecb38b45cde05f5cbc1",
                    "uncleHash" : "0x1dcc4de8dec75d7aab85b567b6ccd41ad312451b948a7413f0a142fd40d49347"
                },
                "rlp" : "0xf90265f901f9a0a41b0b0a3c1b9ea66b3e5167025abf05fff6fd356f2eba850ff0c524b0572380a01dcc4de8dec75d7aab85b567b6ccd41ad312451b948a7413f0a142fd40d49347942adc25665018aa1fe0e6bc666dac8fc2697ff9baa0736b01a2d693b619da1839712bada7e9789fa379770b50a42e290f757257df9ca0758e126e5308d1ef59b0be3487c5cd860b33d0b7ebde2ecb38b45cde05f5cbc1a0af8a31819d86827287b88d0c46e40f4293092e2124b1a13ef39952f1405dd228b901000000000000000000000000000000000000000000000000000000000000000000000000000000000000000000000000000000000000000000000000000000000000000000000000000000000000000000000000000000000000000000000000000000000000000000000000000000000000000000000000000000000000000000000000000000000000000000000000000000000000000000000000000000000000000000000000000000000000000000000000000000000000000000000000000000000000000000000000000000000000000000000000000000000000000000000000000000000000000000000000000000000000000000000000000000000083020000018405f5e1008301d3728203e880a007eb71f07121ea483b6acc9fb535e6fa387af0918d37ff6cd26d71fe607854148843d801f5cdc545a6f866f86480018305573094095e7baea6a6c7c4c2dfeb977efac326af552d870184c04062261ba0de52c10f466ca9a09c552f9669cf780cae9466caf4389d9196863b9ad1609d5ea076154d3c182d7b93f161add2125a73a0ba33ca816963930e51e1e7ee67d3bd7fc0",
                "transactions" : [
                    {
                        "data" : "0xc0406226",
                        "gasLimit" : "0x055730",
                        "gasPrice" : "0x01",
                        "nonce" : "0x00",
                        "r" : "0xde52c10f466ca9a09c552f9669cf780cae9466caf4389d9196863b9ad1609d5e",
                        "s" : "0x76154d3c182d7b93f161add2125a73a0ba33ca816963930e51e1e7ee67d3bd7f",
                        "to" : "0x095e7baea6a6c7c4c2dfeb977efac326af552d87",
                        "v" : "0x1b",
                        "value" : "0x01"
                    }
                ],
                "uncleHeaders" : [
                ]
            }
        ],
        "genesisBlockHeader" : {
            "bloom" : "0x00000000000000000000000000000000000000000000000000000000000000000000000000000000000000000000000000000000000000000000000000000000000000000000000000000000000000000000000000000000000000000000000000000000000000000000000000000000000000000000000000000000000000000000000000000000000000000000000000000000000000000000000000000000000000000000000000000000000000000000000000000000000000000000000000000000000000000000000000000000000000000000000000000000000000000000000000000000000000000000000000000000000000000000000000000000",
            "coinbase" : "0x2adc25665018aa1fe0e6bc666dac8fc2697ff9ba",
            "difficulty" : "0x020000",
            "extraData" : "0x42",
            "gasLimit" : "0x05f5e100",
            "gasUsed" : "0x00",
            "hash" : "0xa41b0b0a3c1b9ea66b3e5167025abf05fff6fd356f2eba850ff0c524b0572380",
            "mixHash" : "0x56e81f171bcc55a6ff8345e692c0f86e5b48e01b996cadc001622fb5e363b421",
            "nonce" : "0x0102030405060708",
            "number" : "0x00",
            "parentHash" : "0x0000000000000000000000000000000000000000000000000000000000000000",
            "receiptTrie" : "0x56e81f171bcc55a6ff8345e692c0f86e5b48e01b996cadc001622fb5e363b421",
            "stateRoot" : "0x695e890a531c8c1af44b07b410345e2684133d3afc8b2605078e1b312d337606",
            "timestamp" : "0x03b6",
            "transactionsTrie" : "0x56e81f171bcc55a6ff8345e692c0f86e5b48e01b996cadc001622fb5e363b421",
            "uncleHash" : "0x1dcc4de8dec75d7aab85b567b6ccd41ad312451b948a7413f0a142fd40d49347"
        },
        "genesisRLP" : "0xf901fbf901f6a00000000000000000000000000000000000000000000000000000000000000000a01dcc4de8dec75d7aab85b567b6ccd41ad312451b948a7413f0a142fd40d49347942adc25665018aa1fe0e6bc666dac8fc2697ff9baa0695e890a531c8c1af44b07b410345e2684133d3afc8b2605078e1b312d337606a056e81f171bcc55a6ff8345e692c0f86e5b48e01b996cadc001622fb5e363b421a056e81f171bcc55a6ff8345e692c0f86e5b48e01b996cadc001622fb5e363b421b901000000000000000000000000000000000000000000000000000000000000000000000000000000000000000000000000000000000000000000000000000000000000000000000000000000000000000000000000000000000000000000000000000000000000000000000000000000000000000000000000000000000000000000000000000000000000000000000000000000000000000000000000000000000000000000000000000000000000000000000000000000000000000000000000000000000000000000000000000000000000000000000000000000000000000000000000000000000000000000000000000000000000000000000000000000000083020000808405f5e100808203b642a056e81f171bcc55a6ff8345e692c0f86e5b48e01b996cadc001622fb5e363b421880102030405060708c0c0",
        "lastblockhash" : "0x59ed82246fd43b23743bd4a39b5ce7a13e285ec696795fe4425a63158bf36d04",
        "network" : "EIP150",
        "postState" : {
            "0x095e7baea6a6c7c4c2dfeb977efac326af552d87" : {
                "balance" : "0x0186a1",
                "code" : "0x60003560e060020a9004806330debb4214610021578063c04062261461003257005b61002c6004356100c7565b60006000f35b61003a610044565b8060005260206000f35b60006000600160008190555073095e7baea6a6c7c4c2dfeb977efac326af552d87600181905550606a6100d2600039606a60006000f0905080600160a060020a03166319ab453c600060008260e060020a026000526004600154600160a060020a03168152602001600060008660325a03f16100bc57005b505060005491505090565b80600081905550505600605e80600c6000396000f30060003560e060020a9004806319ab453c14601557005b601e6004356024565b60006000f35b80600160a060020a03166330debb42600060008260e060020a02600052600460e18152602001600060008660325a03f1605957005b50505056",
                "nonce" : "0x01",
                "storage" : {
                    "0x00" : "0xe1",
                    "0x01" : "0x095e7baea6a6c7c4c2dfeb977efac326af552d87"
                }
            },
            "0x2adc25665018aa1fe0e6bc666dac8fc2697ff9ba" : {
                "balance" : "0x4563918244f5d372",
                "code" : "",
                "nonce" : "0x00",
                "storage" : {
                }
            },
            "0xa94f5374fce5edbc8e2a8697c15331677e6ebf0b" : {
                "balance" : "0x0d6ecd",
                "code" : "",
                "nonce" : "0x01",
                "storage" : {
                }
            },
            "0xd2571607e241ecf590ed94b12d87c94babe36db6" : {
                "balance" : "0x00",
                "code" : "0x60003560e060020a9004806319ab453c14601557005b601e6004356024565b60006000f35b80600160a060020a03166330debb42600060008260e060020a02600052600460e18152602001600060008660325a03f1605957005b50505056",
                "nonce" : "0x00",
                "storage" : {
                }
            }
        },
        "pre" : {
            "0x095e7baea6a6c7c4c2dfeb977efac326af552d87" : {
                "balance" : "0x0186a0",
                "code" : "0x60003560e060020a9004806330debb4214610021578063c04062261461003257005b61002c6004356100c7565b60006000f35b61003a610044565b8060005260206000f35b60006000600160008190555073095e7baea6a6c7c4c2dfeb977efac326af552d87600181905550606a6100d2600039606a60006000f0905080600160a060020a03166319ab453c600060008260e060020a026000526004600154600160a060020a03168152602001600060008660325a03f16100bc57005b505060005491505090565b80600081905550505600605e80600c6000396000f30060003560e060020a9004806319ab453c14601557005b601e6004356024565b60006000f35b80600160a060020a03166330debb42600060008260e060020a02600052600460e18152602001600060008660325a03f1605957005b50505056",
                "nonce" : "0x00",
                "storage" : {
                }
            },
            "0xa94f5374fce5edbc8e2a8697c15331677e6ebf0b" : {
                "balance" : "0x0f4240",
                "code" : "",
                "nonce" : "0x00",
                "storage" : {
                }
            }
        }
    },
    "CallLowLevelCreatesSolidity_d0g0v0_EIP158" : {
        "_info" : {
            "comment" : "",
            "filledwith" : "cpp-1.3.0+commit.6e0ce939.Linux.g++",
            "lllcversion" : "Version: 0.4.18-develop.2017.9.25+commit.a72237f2.Linux.g++",
            "source" : "src/BlockchainTestsFiller/GeneralStateTests/stSolidityTest/CallLowLevelCreatesSolidity_d0g0v0Filler.json",
            "sourceHash" : "c355880c85f5279f3c6c1789c0b2e16339cd42f7623409a360a30d79d8f206ff"
        },
        "blocks" : [
            {
                "blockHeader" : {
                    "bloom" : "0x00000000000000000000000000000000000000000000000000000000000000000000000000000000000000000000000000000000000000000000000000000000000000000000000000000000000000000000000000000000000000000000000000000000000000000000000000000000000000000000000000000000000000000000000000000000000000000000000000000000000000000000000000000000000000000000000000000000000000000000000000000000000000000000000000000000000000000000000000000000000000000000000000000000000000000000000000000000000000000000000000000000000000000000000000000000",
                    "coinbase" : "0x2adc25665018aa1fe0e6bc666dac8fc2697ff9ba",
                    "difficulty" : "0x020000",
                    "extraData" : "",
                    "gasLimit" : "0x05f5e100",
                    "gasUsed" : "0x01d4b2",
                    "hash" : "0x4865319f16cef6a7194cc9256831efbe96d1f361fabbc7c0b91e4a8e5c740794",
                    "mixHash" : "0x4a7f6681bc8281697f45048b718c2f415e8ae00546dd5795ef0f70645efb039c",
                    "nonce" : "0x0a1bb44119f5e9d3",
                    "number" : "0x01",
                    "parentHash" : "0xa41b0b0a3c1b9ea66b3e5167025abf05fff6fd356f2eba850ff0c524b0572380",
                    "receiptTrie" : "0x7ae1ee6819fffb0508fe866b44505e54c10a9228f0336bb4d61157eb151b3b41",
                    "stateRoot" : "0x6305e8a6b6db3f76331ed68d9f74d4e8b145fc73ffaa28df57be44b12f872d21",
                    "timestamp" : "0x03e8",
                    "transactionsTrie" : "0x758e126e5308d1ef59b0be3487c5cd860b33d0b7ebde2ecb38b45cde05f5cbc1",
                    "uncleHash" : "0x1dcc4de8dec75d7aab85b567b6ccd41ad312451b948a7413f0a142fd40d49347"
                },
                "rlp" : "0xf90265f901f9a0a41b0b0a3c1b9ea66b3e5167025abf05fff6fd356f2eba850ff0c524b0572380a01dcc4de8dec75d7aab85b567b6ccd41ad312451b948a7413f0a142fd40d49347942adc25665018aa1fe0e6bc666dac8fc2697ff9baa06305e8a6b6db3f76331ed68d9f74d4e8b145fc73ffaa28df57be44b12f872d21a0758e126e5308d1ef59b0be3487c5cd860b33d0b7ebde2ecb38b45cde05f5cbc1a07ae1ee6819fffb0508fe866b44505e54c10a9228f0336bb4d61157eb151b3b41b901000000000000000000000000000000000000000000000000000000000000000000000000000000000000000000000000000000000000000000000000000000000000000000000000000000000000000000000000000000000000000000000000000000000000000000000000000000000000000000000000000000000000000000000000000000000000000000000000000000000000000000000000000000000000000000000000000000000000000000000000000000000000000000000000000000000000000000000000000000000000000000000000000000000000000000000000000000000000000000000000000000000000000000000000000000000083020000018405f5e1008301d4b28203e880a04a7f6681bc8281697f45048b718c2f415e8ae00546dd5795ef0f70645efb039c880a1bb44119f5e9d3f866f86480018305573094095e7baea6a6c7c4c2dfeb977efac326af552d870184c04062261ba0de52c10f466ca9a09c552f9669cf780cae9466caf4389d9196863b9ad1609d5ea076154d3c182d7b93f161add2125a73a0ba33ca816963930e51e1e7ee67d3bd7fc0",
                "transactions" : [
                    {
                        "data" : "0xc0406226",
                        "gasLimit" : "0x055730",
                        "gasPrice" : "0x01",
                        "nonce" : "0x00",
                        "r" : "0xde52c10f466ca9a09c552f9669cf780cae9466caf4389d9196863b9ad1609d5e",
                        "s" : "0x76154d3c182d7b93f161add2125a73a0ba33ca816963930e51e1e7ee67d3bd7f",
                        "to" : "0x095e7baea6a6c7c4c2dfeb977efac326af552d87",
                        "v" : "0x1b",
                        "value" : "0x01"
                    }
                ],
                "uncleHeaders" : [
                ]
            }
        ],
        "genesisBlockHeader" : {
            "bloom" : "0x00000000000000000000000000000000000000000000000000000000000000000000000000000000000000000000000000000000000000000000000000000000000000000000000000000000000000000000000000000000000000000000000000000000000000000000000000000000000000000000000000000000000000000000000000000000000000000000000000000000000000000000000000000000000000000000000000000000000000000000000000000000000000000000000000000000000000000000000000000000000000000000000000000000000000000000000000000000000000000000000000000000000000000000000000000000",
            "coinbase" : "0x2adc25665018aa1fe0e6bc666dac8fc2697ff9ba",
            "difficulty" : "0x020000",
            "extraData" : "0x42",
            "gasLimit" : "0x05f5e100",
            "gasUsed" : "0x00",
            "hash" : "0xa41b0b0a3c1b9ea66b3e5167025abf05fff6fd356f2eba850ff0c524b0572380",
            "mixHash" : "0x56e81f171bcc55a6ff8345e692c0f86e5b48e01b996cadc001622fb5e363b421",
            "nonce" : "0x0102030405060708",
            "number" : "0x00",
            "parentHash" : "0x0000000000000000000000000000000000000000000000000000000000000000",
            "receiptTrie" : "0x56e81f171bcc55a6ff8345e692c0f86e5b48e01b996cadc001622fb5e363b421",
            "stateRoot" : "0x695e890a531c8c1af44b07b410345e2684133d3afc8b2605078e1b312d337606",
            "timestamp" : "0x03b6",
            "transactionsTrie" : "0x56e81f171bcc55a6ff8345e692c0f86e5b48e01b996cadc001622fb5e363b421",
            "uncleHash" : "0x1dcc4de8dec75d7aab85b567b6ccd41ad312451b948a7413f0a142fd40d49347"
        },
        "genesisRLP" : "0xf901fbf901f6a00000000000000000000000000000000000000000000000000000000000000000a01dcc4de8dec75d7aab85b567b6ccd41ad312451b948a7413f0a142fd40d49347942adc25665018aa1fe0e6bc666dac8fc2697ff9baa0695e890a531c8c1af44b07b410345e2684133d3afc8b2605078e1b312d337606a056e81f171bcc55a6ff8345e692c0f86e5b48e01b996cadc001622fb5e363b421a056e81f171bcc55a6ff8345e692c0f86e5b48e01b996cadc001622fb5e363b421b901000000000000000000000000000000000000000000000000000000000000000000000000000000000000000000000000000000000000000000000000000000000000000000000000000000000000000000000000000000000000000000000000000000000000000000000000000000000000000000000000000000000000000000000000000000000000000000000000000000000000000000000000000000000000000000000000000000000000000000000000000000000000000000000000000000000000000000000000000000000000000000000000000000000000000000000000000000000000000000000000000000000000000000000000000000000083020000808405f5e100808203b642a056e81f171bcc55a6ff8345e692c0f86e5b48e01b996cadc001622fb5e363b421880102030405060708c0c0",
        "lastblockhash" : "0x4865319f16cef6a7194cc9256831efbe96d1f361fabbc7c0b91e4a8e5c740794",
        "network" : "EIP158",
        "postState" : {
            "0x095e7baea6a6c7c4c2dfeb977efac326af552d87" : {
                "balance" : "0x0186a1",
                "code" : "0x60003560e060020a9004806330debb4214610021578063c04062261461003257005b61002c6004356100c7565b60006000f35b61003a610044565b8060005260206000f35b60006000600160008190555073095e7baea6a6c7c4c2dfeb977efac326af552d87600181905550606a6100d2600039606a60006000f0905080600160a060020a03166319ab453c600060008260e060020a026000526004600154600160a060020a03168152602001600060008660325a03f16100bc57005b505060005491505090565b80600081905550505600605e80600c6000396000f30060003560e060020a9004806319ab453c14601557005b601e6004356024565b60006000f35b80600160a060020a03166330debb42600060008260e060020a02600052600460e18152602001600060008660325a03f1605957005b50505056",
                "nonce" : "0x01",
                "storage" : {
                    "0x00" : "0xe1",
                    "0x01" : "0x095e7baea6a6c7c4c2dfeb977efac326af552d87"
                }
            },
            "0x2adc25665018aa1fe0e6bc666dac8fc2697ff9ba" : {
                "balance" : "0x4563918244f5d4b2",
                "code" : "",
                "nonce" : "0x00",
                "storage" : {
                }
            },
            "0xa94f5374fce5edbc8e2a8697c15331677e6ebf0b" : {
                "balance" : "0x0d6d8d",
                "code" : "",
                "nonce" : "0x01",
                "storage" : {
                }
            },
            "0xd2571607e241ecf590ed94b12d87c94babe36db6" : {
                "balance" : "0x00",
                "code" : "0x60003560e060020a9004806319ab453c14601557005b601e6004356024565b60006000f35b80600160a060020a03166330debb42600060008260e060020a02600052600460e18152602001600060008660325a03f1605957005b50505056",
                "nonce" : "0x01",
                "storage" : {
                }
            }
        },
        "pre" : {
            "0x095e7baea6a6c7c4c2dfeb977efac326af552d87" : {
                "balance" : "0x0186a0",
                "code" : "0x60003560e060020a9004806330debb4214610021578063c04062261461003257005b61002c6004356100c7565b60006000f35b61003a610044565b8060005260206000f35b60006000600160008190555073095e7baea6a6c7c4c2dfeb977efac326af552d87600181905550606a6100d2600039606a60006000f0905080600160a060020a03166319ab453c600060008260e060020a026000526004600154600160a060020a03168152602001600060008660325a03f16100bc57005b505060005491505090565b80600081905550505600605e80600c6000396000f30060003560e060020a9004806319ab453c14601557005b601e6004356024565b60006000f35b80600160a060020a03166330debb42600060008260e060020a02600052600460e18152602001600060008660325a03f1605957005b50505056",
                "nonce" : "0x00",
                "storage" : {
                }
            },
            "0xa94f5374fce5edbc8e2a8697c15331677e6ebf0b" : {
                "balance" : "0x0f4240",
                "code" : "",
                "nonce" : "0x00",
                "storage" : {
                }
            }
        }
    },
    "CallLowLevelCreatesSolidity_d0g0v0_Frontier" : {
        "_info" : {
            "comment" : "",
            "filledwith" : "cpp-1.3.0+commit.6e0ce939.Linux.g++",
            "lllcversion" : "Version: 0.4.18-develop.2017.9.25+commit.a72237f2.Linux.g++",
            "source" : "src/BlockchainTestsFiller/GeneralStateTests/stSolidityTest/CallLowLevelCreatesSolidity_d0g0v0Filler.json",
            "sourceHash" : "c355880c85f5279f3c6c1789c0b2e16339cd42f7623409a360a30d79d8f206ff"
        },
        "blocks" : [
            {
                "blockHeader" : {
                    "bloom" : "0x00000000000000000000000000000000000000000000000000000000000000000000000000000000000000000000000000000000000000000000000000000000000000000000000000000000000000000000000000000000000000000000000000000000000000000000000000000000000000000000000000000000000000000000000000000000000000000000000000000000000000000000000000000000000000000000000000000000000000000000000000000000000000000000000000000000000000000000000000000000000000000000000000000000000000000000000000000000000000000000000000000000000000000000000000000000",
                    "coinbase" : "0x2adc25665018aa1fe0e6bc666dac8fc2697ff9ba",
                    "difficulty" : "0x020000",
                    "extraData" : "",
                    "gasLimit" : "0x05f5e100",
                    "gasUsed" : "0x01cd1e",
                    "hash" : "0x4e6cc7236cb818cb7753bfec725dd82a95e4766d0c9847f8d8b493fb07c765e8",
                    "mixHash" : "0x4d530333e6f9c982dcfc0b3b9491e581f6dc8f43f36768511928ed005a3ed006",
                    "nonce" : "0x6a896e6984102f5b",
                    "number" : "0x01",
                    "parentHash" : "0xa41b0b0a3c1b9ea66b3e5167025abf05fff6fd356f2eba850ff0c524b0572380",
                    "receiptTrie" : "0xa988be1cb330acc42d8c7945e5f3d1f3557184324abe984f29760ffa414930b4",
                    "stateRoot" : "0x0c23b5969309cc419facae52107993c7b2b1a132decbcfce21a7f4424430d792",
                    "timestamp" : "0x03e8",
                    "transactionsTrie" : "0x758e126e5308d1ef59b0be3487c5cd860b33d0b7ebde2ecb38b45cde05f5cbc1",
                    "uncleHash" : "0x1dcc4de8dec75d7aab85b567b6ccd41ad312451b948a7413f0a142fd40d49347"
                },
                "rlp" : "0xf90265f901f9a0a41b0b0a3c1b9ea66b3e5167025abf05fff6fd356f2eba850ff0c524b0572380a01dcc4de8dec75d7aab85b567b6ccd41ad312451b948a7413f0a142fd40d49347942adc25665018aa1fe0e6bc666dac8fc2697ff9baa00c23b5969309cc419facae52107993c7b2b1a132decbcfce21a7f4424430d792a0758e126e5308d1ef59b0be3487c5cd860b33d0b7ebde2ecb38b45cde05f5cbc1a0a988be1cb330acc42d8c7945e5f3d1f3557184324abe984f29760ffa414930b4b901000000000000000000000000000000000000000000000000000000000000000000000000000000000000000000000000000000000000000000000000000000000000000000000000000000000000000000000000000000000000000000000000000000000000000000000000000000000000000000000000000000000000000000000000000000000000000000000000000000000000000000000000000000000000000000000000000000000000000000000000000000000000000000000000000000000000000000000000000000000000000000000000000000000000000000000000000000000000000000000000000000000000000000000000000000000083020000018405f5e1008301cd1e8203e880a04d530333e6f9c982dcfc0b3b9491e581f6dc8f43f36768511928ed005a3ed006886a896e6984102f5bf866f86480018305573094095e7baea6a6c7c4c2dfeb977efac326af552d870184c04062261ba0de52c10f466ca9a09c552f9669cf780cae9466caf4389d9196863b9ad1609d5ea076154d3c182d7b93f161add2125a73a0ba33ca816963930e51e1e7ee67d3bd7fc0",
                "transactions" : [
                    {
                        "data" : "0xc0406226",
                        "gasLimit" : "0x055730",
                        "gasPrice" : "0x01",
                        "nonce" : "0x00",
                        "r" : "0xde52c10f466ca9a09c552f9669cf780cae9466caf4389d9196863b9ad1609d5e",
                        "s" : "0x76154d3c182d7b93f161add2125a73a0ba33ca816963930e51e1e7ee67d3bd7f",
                        "to" : "0x095e7baea6a6c7c4c2dfeb977efac326af552d87",
                        "v" : "0x1b",
                        "value" : "0x01"
                    }
                ],
                "uncleHeaders" : [
                ]
            }
        ],
        "genesisBlockHeader" : {
            "bloom" : "0x00000000000000000000000000000000000000000000000000000000000000000000000000000000000000000000000000000000000000000000000000000000000000000000000000000000000000000000000000000000000000000000000000000000000000000000000000000000000000000000000000000000000000000000000000000000000000000000000000000000000000000000000000000000000000000000000000000000000000000000000000000000000000000000000000000000000000000000000000000000000000000000000000000000000000000000000000000000000000000000000000000000000000000000000000000000",
            "coinbase" : "0x2adc25665018aa1fe0e6bc666dac8fc2697ff9ba",
            "difficulty" : "0x020000",
            "extraData" : "0x42",
            "gasLimit" : "0x05f5e100",
            "gasUsed" : "0x00",
            "hash" : "0xa41b0b0a3c1b9ea66b3e5167025abf05fff6fd356f2eba850ff0c524b0572380",
            "mixHash" : "0x56e81f171bcc55a6ff8345e692c0f86e5b48e01b996cadc001622fb5e363b421",
            "nonce" : "0x0102030405060708",
            "number" : "0x00",
            "parentHash" : "0x0000000000000000000000000000000000000000000000000000000000000000",
            "receiptTrie" : "0x56e81f171bcc55a6ff8345e692c0f86e5b48e01b996cadc001622fb5e363b421",
            "stateRoot" : "0x695e890a531c8c1af44b07b410345e2684133d3afc8b2605078e1b312d337606",
            "timestamp" : "0x03b6",
            "transactionsTrie" : "0x56e81f171bcc55a6ff8345e692c0f86e5b48e01b996cadc001622fb5e363b421",
            "uncleHash" : "0x1dcc4de8dec75d7aab85b567b6ccd41ad312451b948a7413f0a142fd40d49347"
        },
        "genesisRLP" : "0xf901fbf901f6a00000000000000000000000000000000000000000000000000000000000000000a01dcc4de8dec75d7aab85b567b6ccd41ad312451b948a7413f0a142fd40d49347942adc25665018aa1fe0e6bc666dac8fc2697ff9baa0695e890a531c8c1af44b07b410345e2684133d3afc8b2605078e1b312d337606a056e81f171bcc55a6ff8345e692c0f86e5b48e01b996cadc001622fb5e363b421a056e81f171bcc55a6ff8345e692c0f86e5b48e01b996cadc001622fb5e363b421b901000000000000000000000000000000000000000000000000000000000000000000000000000000000000000000000000000000000000000000000000000000000000000000000000000000000000000000000000000000000000000000000000000000000000000000000000000000000000000000000000000000000000000000000000000000000000000000000000000000000000000000000000000000000000000000000000000000000000000000000000000000000000000000000000000000000000000000000000000000000000000000000000000000000000000000000000000000000000000000000000000000000000000000000000000000000083020000808405f5e100808203b642a056e81f171bcc55a6ff8345e692c0f86e5b48e01b996cadc001622fb5e363b421880102030405060708c0c0",
        "lastblockhash" : "0x4e6cc7236cb818cb7753bfec725dd82a95e4766d0c9847f8d8b493fb07c765e8",
        "network" : "Frontier",
        "postState" : {
            "0x095e7baea6a6c7c4c2dfeb977efac326af552d87" : {
                "balance" : "0x0186a1",
                "code" : "0x60003560e060020a9004806330debb4214610021578063c04062261461003257005b61002c6004356100c7565b60006000f35b61003a610044565b8060005260206000f35b60006000600160008190555073095e7baea6a6c7c4c2dfeb977efac326af552d87600181905550606a6100d2600039606a60006000f0905080600160a060020a03166319ab453c600060008260e060020a026000526004600154600160a060020a03168152602001600060008660325a03f16100bc57005b505060005491505090565b80600081905550505600605e80600c6000396000f30060003560e060020a9004806319ab453c14601557005b601e6004356024565b60006000f35b80600160a060020a03166330debb42600060008260e060020a02600052600460e18152602001600060008660325a03f1605957005b50505056",
                "nonce" : "0x01",
                "storage" : {
                    "0x00" : "0xe1",
                    "0x01" : "0x095e7baea6a6c7c4c2dfeb977efac326af552d87"
                }
            },
            "0x2adc25665018aa1fe0e6bc666dac8fc2697ff9ba" : {
                "balance" : "0x4563918244f5cd1e",
                "code" : "",
                "nonce" : "0x00",
                "storage" : {
                }
            },
            "0xa94f5374fce5edbc8e2a8697c15331677e6ebf0b" : {
                "balance" : "0x0d7521",
                "code" : "",
                "nonce" : "0x01",
                "storage" : {
                }
            },
            "0xd2571607e241ecf590ed94b12d87c94babe36db6" : {
                "balance" : "0x00",
                "code" : "0x60003560e060020a9004806319ab453c14601557005b601e6004356024565b60006000f35b80600160a060020a03166330debb42600060008260e060020a02600052600460e18152602001600060008660325a03f1605957005b50505056",
                "nonce" : "0x00",
                "storage" : {
                }
            }
        },
        "pre" : {
            "0x095e7baea6a6c7c4c2dfeb977efac326af552d87" : {
                "balance" : "0x0186a0",
                "code" : "0x60003560e060020a9004806330debb4214610021578063c04062261461003257005b61002c6004356100c7565b60006000f35b61003a610044565b8060005260206000f35b60006000600160008190555073095e7baea6a6c7c4c2dfeb977efac326af552d87600181905550606a6100d2600039606a60006000f0905080600160a060020a03166319ab453c600060008260e060020a026000526004600154600160a060020a03168152602001600060008660325a03f16100bc57005b505060005491505090565b80600081905550505600605e80600c6000396000f30060003560e060020a9004806319ab453c14601557005b601e6004356024565b60006000f35b80600160a060020a03166330debb42600060008260e060020a02600052600460e18152602001600060008660325a03f1605957005b50505056",
                "nonce" : "0x00",
                "storage" : {
                }
            },
            "0xa94f5374fce5edbc8e2a8697c15331677e6ebf0b" : {
                "balance" : "0x0f4240",
                "code" : "",
                "nonce" : "0x00",
                "storage" : {
                }
            }
        }
    },
    "CallLowLevelCreatesSolidity_d0g0v0_Homestead" : {
        "_info" : {
            "comment" : "",
            "filledwith" : "cpp-1.3.0+commit.6e0ce939.Linux.g++",
            "lllcversion" : "Version: 0.4.18-develop.2017.9.25+commit.a72237f2.Linux.g++",
            "source" : "src/BlockchainTestsFiller/GeneralStateTests/stSolidityTest/CallLowLevelCreatesSolidity_d0g0v0Filler.json",
            "sourceHash" : "c355880c85f5279f3c6c1789c0b2e16339cd42f7623409a360a30d79d8f206ff"
        },
        "blocks" : [
            {
                "blockHeader" : {
                    "bloom" : "0x00000000000000000000000000000000000000000000000000000000000000000000000000000000000000000000000000000000000000000000000000000000000000000000000000000000000000000000000000000000000000000000000000000000000000000000000000000000000000000000000000000000000000000000000000000000000000000000000000000000000000000000000000000000000000000000000000000000000000000000000000000000000000000000000000000000000000000000000000000000000000000000000000000000000000000000000000000000000000000000000000000000000000000000000000000000",
                    "coinbase" : "0x2adc25665018aa1fe0e6bc666dac8fc2697ff9ba",
                    "difficulty" : "0x020000",
                    "extraData" : "",
                    "gasLimit" : "0x05f5e100",
                    "gasUsed" : "0x01cd1e",
                    "hash" : "0x8246b9fc24bbd63e13783826f7f0a1ae586bee19b1c5305118375916cd703e14",
                    "mixHash" : "0x7c2bce8774381ad6e48bdaedf6bdea2656525887339756848cf1046cacbbb0a2",
                    "nonce" : "0x40f3b50e6e0b41f7",
                    "number" : "0x01",
                    "parentHash" : "0xa41b0b0a3c1b9ea66b3e5167025abf05fff6fd356f2eba850ff0c524b0572380",
                    "receiptTrie" : "0xa988be1cb330acc42d8c7945e5f3d1f3557184324abe984f29760ffa414930b4",
                    "stateRoot" : "0x0c23b5969309cc419facae52107993c7b2b1a132decbcfce21a7f4424430d792",
                    "timestamp" : "0x03e8",
                    "transactionsTrie" : "0x758e126e5308d1ef59b0be3487c5cd860b33d0b7ebde2ecb38b45cde05f5cbc1",
                    "uncleHash" : "0x1dcc4de8dec75d7aab85b567b6ccd41ad312451b948a7413f0a142fd40d49347"
                },
                "rlp" : "0xf90265f901f9a0a41b0b0a3c1b9ea66b3e5167025abf05fff6fd356f2eba850ff0c524b0572380a01dcc4de8dec75d7aab85b567b6ccd41ad312451b948a7413f0a142fd40d49347942adc25665018aa1fe0e6bc666dac8fc2697ff9baa00c23b5969309cc419facae52107993c7b2b1a132decbcfce21a7f4424430d792a0758e126e5308d1ef59b0be3487c5cd860b33d0b7ebde2ecb38b45cde05f5cbc1a0a988be1cb330acc42d8c7945e5f3d1f3557184324abe984f29760ffa414930b4b901000000000000000000000000000000000000000000000000000000000000000000000000000000000000000000000000000000000000000000000000000000000000000000000000000000000000000000000000000000000000000000000000000000000000000000000000000000000000000000000000000000000000000000000000000000000000000000000000000000000000000000000000000000000000000000000000000000000000000000000000000000000000000000000000000000000000000000000000000000000000000000000000000000000000000000000000000000000000000000000000000000000000000000000000000000000083020000018405f5e1008301cd1e8203e880a07c2bce8774381ad6e48bdaedf6bdea2656525887339756848cf1046cacbbb0a28840f3b50e6e0b41f7f866f86480018305573094095e7baea6a6c7c4c2dfeb977efac326af552d870184c04062261ba0de52c10f466ca9a09c552f9669cf780cae9466caf4389d9196863b9ad1609d5ea076154d3c182d7b93f161add2125a73a0ba33ca816963930e51e1e7ee67d3bd7fc0",
                "transactions" : [
                    {
                        "data" : "0xc0406226",
                        "gasLimit" : "0x055730",
                        "gasPrice" : "0x01",
                        "nonce" : "0x00",
                        "r" : "0xde52c10f466ca9a09c552f9669cf780cae9466caf4389d9196863b9ad1609d5e",
                        "s" : "0x76154d3c182d7b93f161add2125a73a0ba33ca816963930e51e1e7ee67d3bd7f",
                        "to" : "0x095e7baea6a6c7c4c2dfeb977efac326af552d87",
                        "v" : "0x1b",
                        "value" : "0x01"
                    }
                ],
                "uncleHeaders" : [
                ]
            }
        ],
        "genesisBlockHeader" : {
            "bloom" : "0x00000000000000000000000000000000000000000000000000000000000000000000000000000000000000000000000000000000000000000000000000000000000000000000000000000000000000000000000000000000000000000000000000000000000000000000000000000000000000000000000000000000000000000000000000000000000000000000000000000000000000000000000000000000000000000000000000000000000000000000000000000000000000000000000000000000000000000000000000000000000000000000000000000000000000000000000000000000000000000000000000000000000000000000000000000000",
            "coinbase" : "0x2adc25665018aa1fe0e6bc666dac8fc2697ff9ba",
            "difficulty" : "0x020000",
            "extraData" : "0x42",
            "gasLimit" : "0x05f5e100",
            "gasUsed" : "0x00",
            "hash" : "0xa41b0b0a3c1b9ea66b3e5167025abf05fff6fd356f2eba850ff0c524b0572380",
            "mixHash" : "0x56e81f171bcc55a6ff8345e692c0f86e5b48e01b996cadc001622fb5e363b421",
            "nonce" : "0x0102030405060708",
            "number" : "0x00",
            "parentHash" : "0x0000000000000000000000000000000000000000000000000000000000000000",
            "receiptTrie" : "0x56e81f171bcc55a6ff8345e692c0f86e5b48e01b996cadc001622fb5e363b421",
            "stateRoot" : "0x695e890a531c8c1af44b07b410345e2684133d3afc8b2605078e1b312d337606",
            "timestamp" : "0x03b6",
            "transactionsTrie" : "0x56e81f171bcc55a6ff8345e692c0f86e5b48e01b996cadc001622fb5e363b421",
            "uncleHash" : "0x1dcc4de8dec75d7aab85b567b6ccd41ad312451b948a7413f0a142fd40d49347"
        },
        "genesisRLP" : "0xf901fbf901f6a00000000000000000000000000000000000000000000000000000000000000000a01dcc4de8dec75d7aab85b567b6ccd41ad312451b948a7413f0a142fd40d49347942adc25665018aa1fe0e6bc666dac8fc2697ff9baa0695e890a531c8c1af44b07b410345e2684133d3afc8b2605078e1b312d337606a056e81f171bcc55a6ff8345e692c0f86e5b48e01b996cadc001622fb5e363b421a056e81f171bcc55a6ff8345e692c0f86e5b48e01b996cadc001622fb5e363b421b901000000000000000000000000000000000000000000000000000000000000000000000000000000000000000000000000000000000000000000000000000000000000000000000000000000000000000000000000000000000000000000000000000000000000000000000000000000000000000000000000000000000000000000000000000000000000000000000000000000000000000000000000000000000000000000000000000000000000000000000000000000000000000000000000000000000000000000000000000000000000000000000000000000000000000000000000000000000000000000000000000000000000000000000000000000000083020000808405f5e100808203b642a056e81f171bcc55a6ff8345e692c0f86e5b48e01b996cadc001622fb5e363b421880102030405060708c0c0",
        "lastblockhash" : "0x8246b9fc24bbd63e13783826f7f0a1ae586bee19b1c5305118375916cd703e14",
        "network" : "Homestead",
        "postState" : {
            "0x095e7baea6a6c7c4c2dfeb977efac326af552d87" : {
                "balance" : "0x0186a1",
                "code" : "0x60003560e060020a9004806330debb4214610021578063c04062261461003257005b61002c6004356100c7565b60006000f35b61003a610044565b8060005260206000f35b60006000600160008190555073095e7baea6a6c7c4c2dfeb977efac326af552d87600181905550606a6100d2600039606a60006000f0905080600160a060020a03166319ab453c600060008260e060020a026000526004600154600160a060020a03168152602001600060008660325a03f16100bc57005b505060005491505090565b80600081905550505600605e80600c6000396000f30060003560e060020a9004806319ab453c14601557005b601e6004356024565b60006000f35b80600160a060020a03166330debb42600060008260e060020a02600052600460e18152602001600060008660325a03f1605957005b50505056",
                "nonce" : "0x01",
                "storage" : {
                    "0x00" : "0xe1",
                    "0x01" : "0x095e7baea6a6c7c4c2dfeb977efac326af552d87"
                }
            },
            "0x2adc25665018aa1fe0e6bc666dac8fc2697ff9ba" : {
                "balance" : "0x4563918244f5cd1e",
                "code" : "",
                "nonce" : "0x00",
                "storage" : {
                }
            },
            "0xa94f5374fce5edbc8e2a8697c15331677e6ebf0b" : {
                "balance" : "0x0d7521",
                "code" : "",
                "nonce" : "0x01",
                "storage" : {
                }
            },
            "0xd2571607e241ecf590ed94b12d87c94babe36db6" : {
                "balance" : "0x00",
                "code" : "0x60003560e060020a9004806319ab453c14601557005b601e6004356024565b60006000f35b80600160a060020a03166330debb42600060008260e060020a02600052600460e18152602001600060008660325a03f1605957005b50505056",
                "nonce" : "0x00",
                "storage" : {
                }
            }
        },
        "pre" : {
            "0x095e7baea6a6c7c4c2dfeb977efac326af552d87" : {
                "balance" : "0x0186a0",
                "code" : "0x60003560e060020a9004806330debb4214610021578063c04062261461003257005b61002c6004356100c7565b60006000f35b61003a610044565b8060005260206000f35b60006000600160008190555073095e7baea6a6c7c4c2dfeb977efac326af552d87600181905550606a6100d2600039606a60006000f0905080600160a060020a03166319ab453c600060008260e060020a026000526004600154600160a060020a03168152602001600060008660325a03f16100bc57005b505060005491505090565b80600081905550505600605e80600c6000396000f30060003560e060020a9004806319ab453c14601557005b601e6004356024565b60006000f35b80600160a060020a03166330debb42600060008260e060020a02600052600460e18152602001600060008660325a03f1605957005b50505056",
                "nonce" : "0x00",
                "storage" : {
                }
            },
            "0xa94f5374fce5edbc8e2a8697c15331677e6ebf0b" : {
                "balance" : "0x0f4240",
                "code" : "",
                "nonce" : "0x00",
                "storage" : {
                }
            }
        }
    }
}