{
    "CallRecursiveMethods_d0g0v0_Byzantium" : {
        "_info" : {
            "comment" : "",
            "filledwith" : "cpp-1.3.0+commit.6e0ce939.Linux.g++",
            "lllcversion" : "Version: 0.4.18-develop.2017.9.25+commit.a72237f2.Linux.g++",
            "source" : "src/BlockchainTestsFiller/GeneralStateTests/stSolidityTest/CallRecursiveMethods_d0g0v0Filler.json",
            "sourceHash" : "08a4ea9593e2f6d8066d910cef554308092de8cc6886bfc9c37d1c492a12af9c"
        },
        "blocks" : [
            {
                "blockHeader" : {
                    "bloom" : "0x00000000000000000000000000000000000000000000000000000000000000000000000000000000000000000000000000000000000000000000000000000000000000000000000000000000000000000000000000000000000000000000000000000000000000000000000000000000000000000000000000000000000000000000000000000000000000000000000000000000000000000000000000000000000000000000000000000000000000000000000000000000000000000000000000000000000000000000000000000000000000000000000000000000000000000000000000000000000000000000000000000000000000000000000000000000",
                    "coinbase" : "0x2adc25665018aa1fe0e6bc666dac8fc2697ff9ba",
                    "difficulty" : "0x020000",
                    "extraData" : "",
                    "gasLimit" : "0x05f5e100",
                    "gasUsed" : "0xea60",
                    "hash" : "0x6b82fbae059a5b318766ca3324cc080a8f2537446e470ed02202e838263d335d",
                    "mixHash" : "0x5471649c7d1d721b415665ee8f89d012cf5dc9145ad5b8bca3279565ac997766",
                    "nonce" : "0xf153c8e945d18a31",
                    "number" : "0x01",
                    "parentHash" : "0x39074bf575766aa94ea09f80eda80ec736bc632ef72da4f50fbe0697e826e779",
                    "receiptTrie" : "0x595998c1d9a5a64049a0d61a9e4b6bb8c69abf9c5ced72c174322a611dfd3e44",
                    "stateRoot" : "0x3740f67e2c04c65622b8f213ae441aa3ea1bb98c639d95f66b6fc03fc6e496fb",
                    "timestamp" : "0x03e8",
                    "transactionsTrie" : "0xa0956528a8ca8f35bfc2e2895064a27d9634cd634de660fa24544a03d8419492",
                    "uncleHash" : "0x1dcc4de8dec75d7aab85b567b6ccd41ad312451b948a7413f0a142fd40d49347"
                },
                "rlp" : "0xf90263f901f8a039074bf575766aa94ea09f80eda80ec736bc632ef72da4f50fbe0697e826e779a01dcc4de8dec75d7aab85b567b6ccd41ad312451b948a7413f0a142fd40d49347942adc25665018aa1fe0e6bc666dac8fc2697ff9baa03740f67e2c04c65622b8f213ae441aa3ea1bb98c639d95f66b6fc03fc6e496fba0a0956528a8ca8f35bfc2e2895064a27d9634cd634de660fa24544a03d8419492a0595998c1d9a5a64049a0d61a9e4b6bb8c69abf9c5ced72c174322a611dfd3e44b901000000000000000000000000000000000000000000000000000000000000000000000000000000000000000000000000000000000000000000000000000000000000000000000000000000000000000000000000000000000000000000000000000000000000000000000000000000000000000000000000000000000000000000000000000000000000000000000000000000000000000000000000000000000000000000000000000000000000000000000000000000000000000000000000000000000000000000000000000000000000000000000000000000000000000000000000000000000000000000000000000000000000000000000000000000000083020000018405f5e10082ea608203e880a05471649c7d1d721b415665ee8f89d012cf5dc9145ad5b8bca3279565ac99776688f153c8e945d18a31f865f863800182ea6094095e7baea6a6c7c4c2dfeb977efac326af552d870184981a31651ba0305c68bc58a058cde8adcb8ed36f2497b763913a1883a6c003a9943cb7234b18a05cd328465918aca3f87afd38957894f00903851e829ac3574740e310e83e84c2c0",
                "transactions" : [
                    {
                        "data" : "0x981a3165",
                        "gasLimit" : "0xea60",
                        "gasPrice" : "0x01",
                        "nonce" : "0x00",
                        "r" : "0x305c68bc58a058cde8adcb8ed36f2497b763913a1883a6c003a9943cb7234b18",
                        "s" : "0x5cd328465918aca3f87afd38957894f00903851e829ac3574740e310e83e84c2",
                        "to" : "0x095e7baea6a6c7c4c2dfeb977efac326af552d87",
                        "v" : "0x1b",
                        "value" : "0x01"
                    }
                ],
                "uncleHeaders" : [
                ]
            }
        ],
        "genesisBlockHeader" : {
            "bloom" : "0x00000000000000000000000000000000000000000000000000000000000000000000000000000000000000000000000000000000000000000000000000000000000000000000000000000000000000000000000000000000000000000000000000000000000000000000000000000000000000000000000000000000000000000000000000000000000000000000000000000000000000000000000000000000000000000000000000000000000000000000000000000000000000000000000000000000000000000000000000000000000000000000000000000000000000000000000000000000000000000000000000000000000000000000000000000000",
            "coinbase" : "0x2adc25665018aa1fe0e6bc666dac8fc2697ff9ba",
            "difficulty" : "0x020000",
            "extraData" : "0x42",
            "gasLimit" : "0x05f5e100",
            "gasUsed" : "0x00",
            "hash" : "0x39074bf575766aa94ea09f80eda80ec736bc632ef72da4f50fbe0697e826e779",
            "mixHash" : "0x56e81f171bcc55a6ff8345e692c0f86e5b48e01b996cadc001622fb5e363b421",
            "nonce" : "0x0102030405060708",
            "number" : "0x00",
            "parentHash" : "0x0000000000000000000000000000000000000000000000000000000000000000",
            "receiptTrie" : "0x56e81f171bcc55a6ff8345e692c0f86e5b48e01b996cadc001622fb5e363b421",
            "stateRoot" : "0x5bcc3459d705cd75f81393e3165b7566ec717fb85cb172e43f2825cbdd556daf",
            "timestamp" : "0x03b6",
            "transactionsTrie" : "0x56e81f171bcc55a6ff8345e692c0f86e5b48e01b996cadc001622fb5e363b421",
            "uncleHash" : "0x1dcc4de8dec75d7aab85b567b6ccd41ad312451b948a7413f0a142fd40d49347"
        },
        "genesisRLP" : "0xf901fbf901f6a00000000000000000000000000000000000000000000000000000000000000000a01dcc4de8dec75d7aab85b567b6ccd41ad312451b948a7413f0a142fd40d49347942adc25665018aa1fe0e6bc666dac8fc2697ff9baa05bcc3459d705cd75f81393e3165b7566ec717fb85cb172e43f2825cbdd556dafa056e81f171bcc55a6ff8345e692c0f86e5b48e01b996cadc001622fb5e363b421a056e81f171bcc55a6ff8345e692c0f86e5b48e01b996cadc001622fb5e363b421b901000000000000000000000000000000000000000000000000000000000000000000000000000000000000000000000000000000000000000000000000000000000000000000000000000000000000000000000000000000000000000000000000000000000000000000000000000000000000000000000000000000000000000000000000000000000000000000000000000000000000000000000000000000000000000000000000000000000000000000000000000000000000000000000000000000000000000000000000000000000000000000000000000000000000000000000000000000000000000000000000000000000000000000000000000000000083020000808405f5e100808203b642a056e81f171bcc55a6ff8345e692c0f86e5b48e01b996cadc001622fb5e363b421880102030405060708c0c0",
        "lastblockhash" : "0x6b82fbae059a5b318766ca3324cc080a8f2537446e470ed02202e838263d335d",
        "network" : "Byzantium",
        "postState" : {
            "0x095e7baea6a6c7c4c2dfeb977efac326af552d87" : {
                "balance" : "0x0186a0",
                "code" : "0x7c01000000000000000000000000000000000000000000000000000000006000350463296df0df811460415780634893d88a14604d578063981a316514605957005b60476065565b60006000f35b6053607a565b60006000f35b605f6072565b60006000f35b5b6001156070576066565b565b6078607a565b565b60806072565b56",
                "nonce" : "0x00",
                "storage" : {
                }
            },
            "0x2adc25665018aa1fe0e6bc666dac8fc2697ff9ba" : {
                "balance" : "0x29a2241af62cea60",
                "code" : "",
                "nonce" : "0x00",
                "storage" : {
                }
            },
            "0xa94f5374fce5edbc8e2a8697c15331677e6ebf0b" : {
                "balance" : "0x06b6c0",
                "code" : "",
                "nonce" : "0x01",
                "storage" : {
                }
            }
        },
        "pre" : {
            "0x095e7baea6a6c7c4c2dfeb977efac326af552d87" : {
                "balance" : "0x0186a0",
                "code" : "0x7c01000000000000000000000000000000000000000000000000000000006000350463296df0df811460415780634893d88a14604d578063981a316514605957005b60476065565b60006000f35b6053607a565b60006000f35b605f6072565b60006000f35b5b6001156070576066565b565b6078607a565b565b60806072565b56",
                "nonce" : "0x00",
                "storage" : {
                }
            },
            "0xa94f5374fce5edbc8e2a8697c15331677e6ebf0b" : {
                "balance" : "0x07a120",
                "code" : "",
                "nonce" : "0x00",
                "storage" : {
                }
            }
        }
    },
    "CallRecursiveMethods_d0g0v0_EIP150" : {
        "_info" : {
            "comment" : "",
            "filledwith" : "cpp-1.3.0+commit.6e0ce939.Linux.g++",
            "lllcversion" : "Version: 0.4.18-develop.2017.9.25+commit.a72237f2.Linux.g++",
            "source" : "src/BlockchainTestsFiller/GeneralStateTests/stSolidityTest/CallRecursiveMethods_d0g0v0Filler.json",
            "sourceHash" : "08a4ea9593e2f6d8066d910cef554308092de8cc6886bfc9c37d1c492a12af9c"
        },
        "blocks" : [
            {
                "blockHeader" : {
                    "bloom" : "0x00000000000000000000000000000000000000000000000000000000000000000000000000000000000000000000000000000000000000000000000000000000000000000000000000000000000000000000000000000000000000000000000000000000000000000000000000000000000000000000000000000000000000000000000000000000000000000000000000000000000000000000000000000000000000000000000000000000000000000000000000000000000000000000000000000000000000000000000000000000000000000000000000000000000000000000000000000000000000000000000000000000000000000000000000000000",
                    "coinbase" : "0x2adc25665018aa1fe0e6bc666dac8fc2697ff9ba",
                    "difficulty" : "0x020000",
                    "extraData" : "",
                    "gasLimit" : "0x05f5e100",
                    "gasUsed" : "0xea60",
                    "hash" : "0x9285ca7e06a83ab1f05a8973489a73088613f4ae46a2d0e2a9e762a9e7f2cae2",
                    "mixHash" : "0xd49fdca2584c164c8e36f576ad9c34ad6cd54c5fae19e8c3beaa9f01987144c8",
                    "nonce" : "0x968eba503efcdb7e",
                    "number" : "0x01",
                    "parentHash" : "0x39074bf575766aa94ea09f80eda80ec736bc632ef72da4f50fbe0697e826e779",
                    "receiptTrie" : "0xe6458a5ff6b534af9e21fdecfcc357f822207efa9cba247fd0be4cdb96dc3011",
                    "stateRoot" : "0xe897d6fd98bba481a214e00bcc37fc24dac1a055625908a16c8d9711829ade1d",
                    "timestamp" : "0x03e8",
                    "transactionsTrie" : "0xa0956528a8ca8f35bfc2e2895064a27d9634cd634de660fa24544a03d8419492",
                    "uncleHash" : "0x1dcc4de8dec75d7aab85b567b6ccd41ad312451b948a7413f0a142fd40d49347"
                },
                "rlp" : "0xf90263f901f8a039074bf575766aa94ea09f80eda80ec736bc632ef72da4f50fbe0697e826e779a01dcc4de8dec75d7aab85b567b6ccd41ad312451b948a7413f0a142fd40d49347942adc25665018aa1fe0e6bc666dac8fc2697ff9baa0e897d6fd98bba481a214e00bcc37fc24dac1a055625908a16c8d9711829ade1da0a0956528a8ca8f35bfc2e2895064a27d9634cd634de660fa24544a03d8419492a0e6458a5ff6b534af9e21fdecfcc357f822207efa9cba247fd0be4cdb96dc3011b901000000000000000000000000000000000000000000000000000000000000000000000000000000000000000000000000000000000000000000000000000000000000000000000000000000000000000000000000000000000000000000000000000000000000000000000000000000000000000000000000000000000000000000000000000000000000000000000000000000000000000000000000000000000000000000000000000000000000000000000000000000000000000000000000000000000000000000000000000000000000000000000000000000000000000000000000000000000000000000000000000000000000000000000000000000000083020000018405f5e10082ea608203e880a0d49fdca2584c164c8e36f576ad9c34ad6cd54c5fae19e8c3beaa9f01987144c888968eba503efcdb7ef865f863800182ea6094095e7baea6a6c7c4c2dfeb977efac326af552d870184981a31651ba0305c68bc58a058cde8adcb8ed36f2497b763913a1883a6c003a9943cb7234b18a05cd328465918aca3f87afd38957894f00903851e829ac3574740e310e83e84c2c0",
                "transactions" : [
                    {
                        "data" : "0x981a3165",
                        "gasLimit" : "0xea60",
                        "gasPrice" : "0x01",
                        "nonce" : "0x00",
                        "r" : "0x305c68bc58a058cde8adcb8ed36f2497b763913a1883a6c003a9943cb7234b18",
                        "s" : "0x5cd328465918aca3f87afd38957894f00903851e829ac3574740e310e83e84c2",
                        "to" : "0x095e7baea6a6c7c4c2dfeb977efac326af552d87",
                        "v" : "0x1b",
                        "value" : "0x01"
                    }
                ],
                "uncleHeaders" : [
                ]
            }
        ],
        "genesisBlockHeader" : {
            "bloom" : "0x00000000000000000000000000000000000000000000000000000000000000000000000000000000000000000000000000000000000000000000000000000000000000000000000000000000000000000000000000000000000000000000000000000000000000000000000000000000000000000000000000000000000000000000000000000000000000000000000000000000000000000000000000000000000000000000000000000000000000000000000000000000000000000000000000000000000000000000000000000000000000000000000000000000000000000000000000000000000000000000000000000000000000000000000000000000",
            "coinbase" : "0x2adc25665018aa1fe0e6bc666dac8fc2697ff9ba",
            "difficulty" : "0x020000",
            "extraData" : "0x42",
            "gasLimit" : "0x05f5e100",
            "gasUsed" : "0x00",
            "hash" : "0x39074bf575766aa94ea09f80eda80ec736bc632ef72da4f50fbe0697e826e779",
            "mixHash" : "0x56e81f171bcc55a6ff8345e692c0f86e5b48e01b996cadc001622fb5e363b421",
            "nonce" : "0x0102030405060708",
            "number" : "0x00",
            "parentHash" : "0x0000000000000000000000000000000000000000000000000000000000000000",
            "receiptTrie" : "0x56e81f171bcc55a6ff8345e692c0f86e5b48e01b996cadc001622fb5e363b421",
            "stateRoot" : "0x5bcc3459d705cd75f81393e3165b7566ec717fb85cb172e43f2825cbdd556daf",
            "timestamp" : "0x03b6",
            "transactionsTrie" : "0x56e81f171bcc55a6ff8345e692c0f86e5b48e01b996cadc001622fb5e363b421",
            "uncleHash" : "0x1dcc4de8dec75d7aab85b567b6ccd41ad312451b948a7413f0a142fd40d49347"
        },
        "genesisRLP" : "0xf901fbf901f6a00000000000000000000000000000000000000000000000000000000000000000a01dcc4de8dec75d7aab85b567b6ccd41ad312451b948a7413f0a142fd40d49347942adc25665018aa1fe0e6bc666dac8fc2697ff9baa05bcc3459d705cd75f81393e3165b7566ec717fb85cb172e43f2825cbdd556dafa056e81f171bcc55a6ff8345e692c0f86e5b48e01b996cadc001622fb5e363b421a056e81f171bcc55a6ff8345e692c0f86e5b48e01b996cadc001622fb5e363b421b901000000000000000000000000000000000000000000000000000000000000000000000000000000000000000000000000000000000000000000000000000000000000000000000000000000000000000000000000000000000000000000000000000000000000000000000000000000000000000000000000000000000000000000000000000000000000000000000000000000000000000000000000000000000000000000000000000000000000000000000000000000000000000000000000000000000000000000000000000000000000000000000000000000000000000000000000000000000000000000000000000000000000000000000000000000000083020000808405f5e100808203b642a056e81f171bcc55a6ff8345e692c0f86e5b48e01b996cadc001622fb5e363b421880102030405060708c0c0",
        "lastblockhash" : "0x9285ca7e06a83ab1f05a8973489a73088613f4ae46a2d0e2a9e762a9e7f2cae2",
        "network" : "EIP150",
        "postState" : {
            "0x095e7baea6a6c7c4c2dfeb977efac326af552d87" : {
                "balance" : "0x0186a0",
                "code" : "0x7c01000000000000000000000000000000000000000000000000000000006000350463296df0df811460415780634893d88a14604d578063981a316514605957005b60476065565b60006000f35b6053607a565b60006000f35b605f6072565b60006000f35b5b6001156070576066565b565b6078607a565b565b60806072565b56",
                "nonce" : "0x00",
                "storage" : {
                }
            },
            "0x2adc25665018aa1fe0e6bc666dac8fc2697ff9ba" : {
                "balance" : "0x4563918244f4ea60",
                "code" : "",
                "nonce" : "0x00",
                "storage" : {
                }
            },
            "0xa94f5374fce5edbc8e2a8697c15331677e6ebf0b" : {
                "balance" : "0x06b6c0",
                "code" : "",
                "nonce" : "0x01",
                "storage" : {
                }
            }
        },
        "pre" : {
            "0x095e7baea6a6c7c4c2dfeb977efac326af552d87" : {
                "balance" : "0x0186a0",
                "code" : "0x7c01000000000000000000000000000000000000000000000000000000006000350463296df0df811460415780634893d88a14604d578063981a316514605957005b60476065565b60006000f35b6053607a565b60006000f35b605f6072565b60006000f35b5b6001156070576066565b565b6078607a565b565b60806072565b56",
                "nonce" : "0x00",
                "storage" : {
                }
            },
            "0xa94f5374fce5edbc8e2a8697c15331677e6ebf0b" : {
                "balance" : "0x07a120",
                "code" : "",
                "nonce" : "0x00",
                "storage" : {
                }
            }
        }
    },
    "CallRecursiveMethods_d0g0v0_EIP158" : {
        "_info" : {
            "comment" : "",
            "filledwith" : "cpp-1.3.0+commit.6e0ce939.Linux.g++",
            "lllcversion" : "Version: 0.4.18-develop.2017.9.25+commit.a72237f2.Linux.g++",
            "source" : "src/BlockchainTestsFiller/GeneralStateTests/stSolidityTest/CallRecursiveMethods_d0g0v0Filler.json",
            "sourceHash" : "08a4ea9593e2f6d8066d910cef554308092de8cc6886bfc9c37d1c492a12af9c"
        },
        "blocks" : [
            {
                "blockHeader" : {
                    "bloom" : "0x00000000000000000000000000000000000000000000000000000000000000000000000000000000000000000000000000000000000000000000000000000000000000000000000000000000000000000000000000000000000000000000000000000000000000000000000000000000000000000000000000000000000000000000000000000000000000000000000000000000000000000000000000000000000000000000000000000000000000000000000000000000000000000000000000000000000000000000000000000000000000000000000000000000000000000000000000000000000000000000000000000000000000000000000000000000",
                    "coinbase" : "0x2adc25665018aa1fe0e6bc666dac8fc2697ff9ba",
                    "difficulty" : "0x020000",
                    "extraData" : "",
                    "gasLimit" : "0x05f5e100",
                    "gasUsed" : "0xea60",
                    "hash" : "0x5cdd630379940e734dea5266f5d71c7e5c1b40d924a92e07ab152da780176725",
                    "mixHash" : "0x20965679b9b184fc0dc7c23fd16b8dffbc9a071e603ebe0278a7b3046930e4bc",
                    "nonce" : "0xf4e1b4254d43c5b2",
                    "number" : "0x01",
                    "parentHash" : "0x39074bf575766aa94ea09f80eda80ec736bc632ef72da4f50fbe0697e826e779",
                    "receiptTrie" : "0xe6458a5ff6b534af9e21fdecfcc357f822207efa9cba247fd0be4cdb96dc3011",
                    "stateRoot" : "0xe897d6fd98bba481a214e00bcc37fc24dac1a055625908a16c8d9711829ade1d",
                    "timestamp" : "0x03e8",
                    "transactionsTrie" : "0xa0956528a8ca8f35bfc2e2895064a27d9634cd634de660fa24544a03d8419492",
                    "uncleHash" : "0x1dcc4de8dec75d7aab85b567b6ccd41ad312451b948a7413f0a142fd40d49347"
                },
                "rlp" : "0xf90263f901f8a039074bf575766aa94ea09f80eda80ec736bc632ef72da4f50fbe0697e826e779a01dcc4de8dec75d7aab85b567b6ccd41ad312451b948a7413f0a142fd40d49347942adc25665018aa1fe0e6bc666dac8fc2697ff9baa0e897d6fd98bba481a214e00bcc37fc24dac1a055625908a16c8d9711829ade1da0a0956528a8ca8f35bfc2e2895064a27d9634cd634de660fa24544a03d8419492a0e6458a5ff6b534af9e21fdecfcc357f822207efa9cba247fd0be4cdb96dc3011b901000000000000000000000000000000000000000000000000000000000000000000000000000000000000000000000000000000000000000000000000000000000000000000000000000000000000000000000000000000000000000000000000000000000000000000000000000000000000000000000000000000000000000000000000000000000000000000000000000000000000000000000000000000000000000000000000000000000000000000000000000000000000000000000000000000000000000000000000000000000000000000000000000000000000000000000000000000000000000000000000000000000000000000000000000000000083020000018405f5e10082ea608203e880a020965679b9b184fc0dc7c23fd16b8dffbc9a071e603ebe0278a7b3046930e4bc88f4e1b4254d43c5b2f865f863800182ea6094095e7baea6a6c7c4c2dfeb977efac326af552d870184981a31651ba0305c68bc58a058cde8adcb8ed36f2497b763913a1883a6c003a9943cb7234b18a05cd328465918aca3f87afd38957894f00903851e829ac3574740e310e83e84c2c0",
                "transactions" : [
                    {
                        "data" : "0x981a3165",
                        "gasLimit" : "0xea60",
                        "gasPrice" : "0x01",
                        "nonce" : "0x00",
                        "r" : "0x305c68bc58a058cde8adcb8ed36f2497b763913a1883a6c003a9943cb7234b18",
                        "s" : "0x5cd328465918aca3f87afd38957894f00903851e829ac3574740e310e83e84c2",
                        "to" : "0x095e7baea6a6c7c4c2dfeb977efac326af552d87",
                        "v" : "0x1b",
                        "value" : "0x01"
                    }
                ],
                "uncleHeaders" : [
                ]
            }
        ],
        "genesisBlockHeader" : {
            "bloom" : "0x00000000000000000000000000000000000000000000000000000000000000000000000000000000000000000000000000000000000000000000000000000000000000000000000000000000000000000000000000000000000000000000000000000000000000000000000000000000000000000000000000000000000000000000000000000000000000000000000000000000000000000000000000000000000000000000000000000000000000000000000000000000000000000000000000000000000000000000000000000000000000000000000000000000000000000000000000000000000000000000000000000000000000000000000000000000",
            "coinbase" : "0x2adc25665018aa1fe0e6bc666dac8fc2697ff9ba",
            "difficulty" : "0x020000",
            "extraData" : "0x42",
            "gasLimit" : "0x05f5e100",
            "gasUsed" : "0x00",
            "hash" : "0x39074bf575766aa94ea09f80eda80ec736bc632ef72da4f50fbe0697e826e779",
            "mixHash" : "0x56e81f171bcc55a6ff8345e692c0f86e5b48e01b996cadc001622fb5e363b421",
            "nonce" : "0x0102030405060708",
            "number" : "0x00",
            "parentHash" : "0x0000000000000000000000000000000000000000000000000000000000000000",
            "receiptTrie" : "0x56e81f171bcc55a6ff8345e692c0f86e5b48e01b996cadc001622fb5e363b421",
            "stateRoot" : "0x5bcc3459d705cd75f81393e3165b7566ec717fb85cb172e43f2825cbdd556daf",
            "timestamp" : "0x03b6",
            "transactionsTrie" : "0x56e81f171bcc55a6ff8345e692c0f86e5b48e01b996cadc001622fb5e363b421",
            "uncleHash" : "0x1dcc4de8dec75d7aab85b567b6ccd41ad312451b948a7413f0a142fd40d49347"
        },
        "genesisRLP" : "0xf901fbf901f6a00000000000000000000000000000000000000000000000000000000000000000a01dcc4de8dec75d7aab85b567b6ccd41ad312451b948a7413f0a142fd40d49347942adc25665018aa1fe0e6bc666dac8fc2697ff9baa05bcc3459d705cd75f81393e3165b7566ec717fb85cb172e43f2825cbdd556dafa056e81f171bcc55a6ff8345e692c0f86e5b48e01b996cadc001622fb5e363b421a056e81f171bcc55a6ff8345e692c0f86e5b48e01b996cadc001622fb5e363b421b901000000000000000000000000000000000000000000000000000000000000000000000000000000000000000000000000000000000000000000000000000000000000000000000000000000000000000000000000000000000000000000000000000000000000000000000000000000000000000000000000000000000000000000000000000000000000000000000000000000000000000000000000000000000000000000000000000000000000000000000000000000000000000000000000000000000000000000000000000000000000000000000000000000000000000000000000000000000000000000000000000000000000000000000000000000000083020000808405f5e100808203b642a056e81f171bcc55a6ff8345e692c0f86e5b48e01b996cadc001622fb5e363b421880102030405060708c0c0",
        "lastblockhash" : "0x5cdd630379940e734dea5266f5d71c7e5c1b40d924a92e07ab152da780176725",
        "network" : "EIP158",
        "postState" : {
            "0x095e7baea6a6c7c4c2dfeb977efac326af552d87" : {
                "balance" : "0x0186a0",
                "code" : "0x7c01000000000000000000000000000000000000000000000000000000006000350463296df0df811460415780634893d88a14604d578063981a316514605957005b60476065565b60006000f35b6053607a565b60006000f35b605f6072565b60006000f35b5b6001156070576066565b565b6078607a565b565b60806072565b56",
                "nonce" : "0x00",
                "storage" : {
                }
            },
            "0x2adc25665018aa1fe0e6bc666dac8fc2697ff9ba" : {
                "balance" : "0x4563918244f4ea60",
                "code" : "",
                "nonce" : "0x00",
                "storage" : {
                }
            },
            "0xa94f5374fce5edbc8e2a8697c15331677e6ebf0b" : {
                "balance" : "0x06b6c0",
                "code" : "",
                "nonce" : "0x01",
                "storage" : {
                }
            }
        },
        "pre" : {
            "0x095e7baea6a6c7c4c2dfeb977efac326af552d87" : {
                "balance" : "0x0186a0",
                "code" : "0x7c01000000000000000000000000000000000000000000000000000000006000350463296df0df811460415780634893d88a14604d578063981a316514605957005b60476065565b60006000f35b6053607a565b60006000f35b605f6072565b60006000f35b5b6001156070576066565b565b6078607a565b565b60806072565b56",
                "nonce" : "0x00",
                "storage" : {
                }
            },
            "0xa94f5374fce5edbc8e2a8697c15331677e6ebf0b" : {
                "balance" : "0x07a120",
                "code" : "",
                "nonce" : "0x00",
                "storage" : {
                }
            }
        }
    },
    "CallRecursiveMethods_d0g0v0_Frontier" : {
        "_info" : {
            "comment" : "",
            "filledwith" : "cpp-1.3.0+commit.6e0ce939.Linux.g++",
            "lllcversion" : "Version: 0.4.18-develop.2017.9.25+commit.a72237f2.Linux.g++",
            "source" : "src/BlockchainTestsFiller/GeneralStateTests/stSolidityTest/CallRecursiveMethods_d0g0v0Filler.json",
            "sourceHash" : "08a4ea9593e2f6d8066d910cef554308092de8cc6886bfc9c37d1c492a12af9c"
        },
        "blocks" : [
            {
                "blockHeader" : {
                    "bloom" : "0x00000000000000000000000000000000000000000000000000000000000000000000000000000000000000000000000000000000000000000000000000000000000000000000000000000000000000000000000000000000000000000000000000000000000000000000000000000000000000000000000000000000000000000000000000000000000000000000000000000000000000000000000000000000000000000000000000000000000000000000000000000000000000000000000000000000000000000000000000000000000000000000000000000000000000000000000000000000000000000000000000000000000000000000000000000000",
                    "coinbase" : "0x2adc25665018aa1fe0e6bc666dac8fc2697ff9ba",
                    "difficulty" : "0x020000",
                    "extraData" : "",
                    "gasLimit" : "0x05f5e100",
                    "gasUsed" : "0xea60",
                    "hash" : "0x5eda260b6632072ff0db3197843968e062cbae2d55d66b564e474809bd470349",
                    "mixHash" : "0xd40917a53dcb35deafa3904a9a87e8766ebe3b4bc0c0fcb246686cf5274c537b",
                    "nonce" : "0xa5733593e9c641c1",
                    "number" : "0x01",
                    "parentHash" : "0x39074bf575766aa94ea09f80eda80ec736bc632ef72da4f50fbe0697e826e779",
                    "receiptTrie" : "0xe6458a5ff6b534af9e21fdecfcc357f822207efa9cba247fd0be4cdb96dc3011",
                    "stateRoot" : "0xe897d6fd98bba481a214e00bcc37fc24dac1a055625908a16c8d9711829ade1d",
                    "timestamp" : "0x03e8",
                    "transactionsTrie" : "0xa0956528a8ca8f35bfc2e2895064a27d9634cd634de660fa24544a03d8419492",
                    "uncleHash" : "0x1dcc4de8dec75d7aab85b567b6ccd41ad312451b948a7413f0a142fd40d49347"
                },
                "rlp" : "0xf90263f901f8a039074bf575766aa94ea09f80eda80ec736bc632ef72da4f50fbe0697e826e779a01dcc4de8dec75d7aab85b567b6ccd41ad312451b948a7413f0a142fd40d49347942adc25665018aa1fe0e6bc666dac8fc2697ff9baa0e897d6fd98bba481a214e00bcc37fc24dac1a055625908a16c8d9711829ade1da0a0956528a8ca8f35bfc2e2895064a27d9634cd634de660fa24544a03d8419492a0e6458a5ff6b534af9e21fdecfcc357f822207efa9cba247fd0be4cdb96dc3011b901000000000000000000000000000000000000000000000000000000000000000000000000000000000000000000000000000000000000000000000000000000000000000000000000000000000000000000000000000000000000000000000000000000000000000000000000000000000000000000000000000000000000000000000000000000000000000000000000000000000000000000000000000000000000000000000000000000000000000000000000000000000000000000000000000000000000000000000000000000000000000000000000000000000000000000000000000000000000000000000000000000000000000000000000000000000083020000018405f5e10082ea608203e880a0d40917a53dcb35deafa3904a9a87e8766ebe3b4bc0c0fcb246686cf5274c537b88a5733593e9c641c1f865f863800182ea6094095e7baea6a6c7c4c2dfeb977efac326af552d870184981a31651ba0305c68bc58a058cde8adcb8ed36f2497b763913a1883a6c003a9943cb7234b18a05cd328465918aca3f87afd38957894f00903851e829ac3574740e310e83e84c2c0",
                "transactions" : [
                    {
                        "data" : "0x981a3165",
                        "gasLimit" : "0xea60",
                        "gasPrice" : "0x01",
                        "nonce" : "0x00",
                        "r" : "0x305c68bc58a058cde8adcb8ed36f2497b763913a1883a6c003a9943cb7234b18",
                        "s" : "0x5cd328465918aca3f87afd38957894f00903851e829ac3574740e310e83e84c2",
                        "to" : "0x095e7baea6a6c7c4c2dfeb977efac326af552d87",
                        "v" : "0x1b",
                        "value" : "0x01"
                    }
                ],
                "uncleHeaders" : [
                ]
            }
        ],
        "genesisBlockHeader" : {
            "bloom" : "0x00000000000000000000000000000000000000000000000000000000000000000000000000000000000000000000000000000000000000000000000000000000000000000000000000000000000000000000000000000000000000000000000000000000000000000000000000000000000000000000000000000000000000000000000000000000000000000000000000000000000000000000000000000000000000000000000000000000000000000000000000000000000000000000000000000000000000000000000000000000000000000000000000000000000000000000000000000000000000000000000000000000000000000000000000000000",
            "coinbase" : "0x2adc25665018aa1fe0e6bc666dac8fc2697ff9ba",
            "difficulty" : "0x020000",
            "extraData" : "0x42",
            "gasLimit" : "0x05f5e100",
            "gasUsed" : "0x00",
            "hash" : "0x39074bf575766aa94ea09f80eda80ec736bc632ef72da4f50fbe0697e826e779",
            "mixHash" : "0x56e81f171bcc55a6ff8345e692c0f86e5b48e01b996cadc001622fb5e363b421",
            "nonce" : "0x0102030405060708",
            "number" : "0x00",
            "parentHash" : "0x0000000000000000000000000000000000000000000000000000000000000000",
            "receiptTrie" : "0x56e81f171bcc55a6ff8345e692c0f86e5b48e01b996cadc001622fb5e363b421",
            "stateRoot" : "0x5bcc3459d705cd75f81393e3165b7566ec717fb85cb172e43f2825cbdd556daf",
            "timestamp" : "0x03b6",
            "transactionsTrie" : "0x56e81f171bcc55a6ff8345e692c0f86e5b48e01b996cadc001622fb5e363b421",
            "uncleHash" : "0x1dcc4de8dec75d7aab85b567b6ccd41ad312451b948a7413f0a142fd40d49347"
        },
        "genesisRLP" : "0xf901fbf901f6a00000000000000000000000000000000000000000000000000000000000000000a01dcc4de8dec75d7aab85b567b6ccd41ad312451b948a7413f0a142fd40d49347942adc25665018aa1fe0e6bc666dac8fc2697ff9baa05bcc3459d705cd75f81393e3165b7566ec717fb85cb172e43f2825cbdd556dafa056e81f171bcc55a6ff8345e692c0f86e5b48e01b996cadc001622fb5e363b421a056e81f171bcc55a6ff8345e692c0f86e5b48e01b996cadc001622fb5e363b421b901000000000000000000000000000000000000000000000000000000000000000000000000000000000000000000000000000000000000000000000000000000000000000000000000000000000000000000000000000000000000000000000000000000000000000000000000000000000000000000000000000000000000000000000000000000000000000000000000000000000000000000000000000000000000000000000000000000000000000000000000000000000000000000000000000000000000000000000000000000000000000000000000000000000000000000000000000000000000000000000000000000000000000000000000000000000083020000808405f5e100808203b642a056e81f171bcc55a6ff8345e692c0f86e5b48e01b996cadc001622fb5e363b421880102030405060708c0c0",
        "lastblockhash" : "0x5eda260b6632072ff0db3197843968e062cbae2d55d66b564e474809bd470349",
        "network" : "Frontier",
        "postState" : {
            "0x095e7baea6a6c7c4c2dfeb977efac326af552d87" : {
                "balance" : "0x0186a0",
                "code" : "0x7c01000000000000000000000000000000000000000000000000000000006000350463296df0df811460415780634893d88a14604d578063981a316514605957005b60476065565b60006000f35b6053607a565b60006000f35b605f6072565b60006000f35b5b6001156070576066565b565b6078607a565b565b60806072565b56",
                "nonce" : "0x00",
                "storage" : {
                }
            },
            "0x2adc25665018aa1fe0e6bc666dac8fc2697ff9ba" : {
                "balance" : "0x4563918244f4ea60",
                "code" : "",
                "nonce" : "0x00",
                "storage" : {
                }
            },
            "0xa94f5374fce5edbc8e2a8697c15331677e6ebf0b" : {
                "balance" : "0x06b6c0",
                "code" : "",
                "nonce" : "0x01",
                "storage" : {
                }
            }
        },
        "pre" : {
            "0x095e7baea6a6c7c4c2dfeb977efac326af552d87" : {
                "balance" : "0x0186a0",
                "code" : "0x7c01000000000000000000000000000000000000000000000000000000006000350463296df0df811460415780634893d88a14604d578063981a316514605957005b60476065565b60006000f35b6053607a565b60006000f35b605f6072565b60006000f35b5b6001156070576066565b565b6078607a565b565b60806072565b56",
                "nonce" : "0x00",
                "storage" : {
                }
            },
            "0xa94f5374fce5edbc8e2a8697c15331677e6ebf0b" : {
                "balance" : "0x07a120",
                "code" : "",
                "nonce" : "0x00",
                "storage" : {
                }
            }
        }
    },
    "CallRecursiveMethods_d0g0v0_Homestead" : {
        "_info" : {
            "comment" : "",
            "filledwith" : "cpp-1.3.0+commit.6e0ce939.Linux.g++",
            "lllcversion" : "Version: 0.4.18-develop.2017.9.25+commit.a72237f2.Linux.g++",
            "source" : "src/BlockchainTestsFiller/GeneralStateTests/stSolidityTest/CallRecursiveMethods_d0g0v0Filler.json",
            "sourceHash" : "08a4ea9593e2f6d8066d910cef554308092de8cc6886bfc9c37d1c492a12af9c"
        },
        "blocks" : [
            {
                "blockHeader" : {
                    "bloom" : "0x00000000000000000000000000000000000000000000000000000000000000000000000000000000000000000000000000000000000000000000000000000000000000000000000000000000000000000000000000000000000000000000000000000000000000000000000000000000000000000000000000000000000000000000000000000000000000000000000000000000000000000000000000000000000000000000000000000000000000000000000000000000000000000000000000000000000000000000000000000000000000000000000000000000000000000000000000000000000000000000000000000000000000000000000000000000",
                    "coinbase" : "0x2adc25665018aa1fe0e6bc666dac8fc2697ff9ba",
                    "difficulty" : "0x020000",
                    "extraData" : "",
                    "gasLimit" : "0x05f5e100",
                    "gasUsed" : "0xea60",
                    "hash" : "0x88c9e3c9045f8e8a16b93b55c8b2d2a343d35edac1b1b8fb6e9e1307d16aca97",
                    "mixHash" : "0xd87a6607abaa51575569fba8a6a0212035036e1a40385f4689a3eebfed704cbd",
                    "nonce" : "0xa2464a5583979691",
                    "number" : "0x01",
                    "parentHash" : "0x39074bf575766aa94ea09f80eda80ec736bc632ef72da4f50fbe0697e826e779",
                    "receiptTrie" : "0xe6458a5ff6b534af9e21fdecfcc357f822207efa9cba247fd0be4cdb96dc3011",
                    "stateRoot" : "0xe897d6fd98bba481a214e00bcc37fc24dac1a055625908a16c8d9711829ade1d",
                    "timestamp" : "0x03e8",
                    "transactionsTrie" : "0xa0956528a8ca8f35bfc2e2895064a27d9634cd634de660fa24544a03d8419492",
                    "uncleHash" : "0x1dcc4de8dec75d7aab85b567b6ccd41ad312451b948a7413f0a142fd40d49347"
                },
                "rlp" : "0xf90263f901f8a039074bf575766aa94ea09f80eda80ec736bc632ef72da4f50fbe0697e826e779a01dcc4de8dec75d7aab85b567b6ccd41ad312451b948a7413f0a142fd40d49347942adc25665018aa1fe0e6bc666dac8fc2697ff9baa0e897d6fd98bba481a214e00bcc37fc24dac1a055625908a16c8d9711829ade1da0a0956528a8ca8f35bfc2e2895064a27d9634cd634de660fa24544a03d8419492a0e6458a5ff6b534af9e21fdecfcc357f822207efa9cba247fd0be4cdb96dc3011b901000000000000000000000000000000000000000000000000000000000000000000000000000000000000000000000000000000000000000000000000000000000000000000000000000000000000000000000000000000000000000000000000000000000000000000000000000000000000000000000000000000000000000000000000000000000000000000000000000000000000000000000000000000000000000000000000000000000000000000000000000000000000000000000000000000000000000000000000000000000000000000000000000000000000000000000000000000000000000000000000000000000000000000000000000000000083020000018405f5e10082ea608203e880a0d87a6607abaa51575569fba8a6a0212035036e1a40385f4689a3eebfed704cbd88a2464a5583979691f865f863800182ea6094095e7baea6a6c7c4c2dfeb977efac326af552d870184981a31651ba0305c68bc58a058cde8adcb8ed36f2497b763913a1883a6c003a9943cb7234b18a05cd328465918aca3f87afd38957894f00903851e829ac3574740e310e83e84c2c0",
                "transactions" : [
                    {
                        "data" : "0x981a3165",
                        "gasLimit" : "0xea60",
                        "gasPrice" : "0x01",
                        "nonce" : "0x00",
                        "r" : "0x305c68bc58a058cde8adcb8ed36f2497b763913a1883a6c003a9943cb7234b18",
                        "s" : "0x5cd328465918aca3f87afd38957894f00903851e829ac3574740e310e83e84c2",
                        "to" : "0x095e7baea6a6c7c4c2dfeb977efac326af552d87",
                        "v" : "0x1b",
                        "value" : "0x01"
                    }
                ],
                "uncleHeaders" : [
                ]
            }
        ],
        "genesisBlockHeader" : {
            "bloom" : "0x00000000000000000000000000000000000000000000000000000000000000000000000000000000000000000000000000000000000000000000000000000000000000000000000000000000000000000000000000000000000000000000000000000000000000000000000000000000000000000000000000000000000000000000000000000000000000000000000000000000000000000000000000000000000000000000000000000000000000000000000000000000000000000000000000000000000000000000000000000000000000000000000000000000000000000000000000000000000000000000000000000000000000000000000000000000",
            "coinbase" : "0x2adc25665018aa1fe0e6bc666dac8fc2697ff9ba",
            "difficulty" : "0x020000",
            "extraData" : "0x42",
            "gasLimit" : "0x05f5e100",
            "gasUsed" : "0x00",
            "hash" : "0x39074bf575766aa94ea09f80eda80ec736bc632ef72da4f50fbe0697e826e779",
            "mixHash" : "0x56e81f171bcc55a6ff8345e692c0f86e5b48e01b996cadc001622fb5e363b421",
            "nonce" : "0x0102030405060708",
            "number" : "0x00",
            "parentHash" : "0x0000000000000000000000000000000000000000000000000000000000000000",
            "receiptTrie" : "0x56e81f171bcc55a6ff8345e692c0f86e5b48e01b996cadc001622fb5e363b421",
            "stateRoot" : "0x5bcc3459d705cd75f81393e3165b7566ec717fb85cb172e43f2825cbdd556daf",
            "timestamp" : "0x03b6",
            "transactionsTrie" : "0x56e81f171bcc55a6ff8345e692c0f86e5b48e01b996cadc001622fb5e363b421",
            "uncleHash" : "0x1dcc4de8dec75d7aab85b567b6ccd41ad312451b948a7413f0a142fd40d49347"
        },
        "genesisRLP" : "0xf901fbf901f6a00000000000000000000000000000000000000000000000000000000000000000a01dcc4de8dec75d7aab85b567b6ccd41ad312451b948a7413f0a142fd40d49347942adc25665018aa1fe0e6bc666dac8fc2697ff9baa05bcc3459d705cd75f81393e3165b7566ec717fb85cb172e43f2825cbdd556dafa056e81f171bcc55a6ff8345e692c0f86e5b48e01b996cadc001622fb5e363b421a056e81f171bcc55a6ff8345e692c0f86e5b48e01b996cadc001622fb5e363b421b901000000000000000000000000000000000000000000000000000000000000000000000000000000000000000000000000000000000000000000000000000000000000000000000000000000000000000000000000000000000000000000000000000000000000000000000000000000000000000000000000000000000000000000000000000000000000000000000000000000000000000000000000000000000000000000000000000000000000000000000000000000000000000000000000000000000000000000000000000000000000000000000000000000000000000000000000000000000000000000000000000000000000000000000000000000000083020000808405f5e100808203b642a056e81f171bcc55a6ff8345e692c0f86e5b48e01b996cadc001622fb5e363b421880102030405060708c0c0",
        "lastblockhash" : "0x88c9e3c9045f8e8a16b93b55c8b2d2a343d35edac1b1b8fb6e9e1307d16aca97",
        "network" : "Homestead",
        "postState" : {
            "0x095e7baea6a6c7c4c2dfeb977efac326af552d87" : {
                "balance" : "0x0186a0",
                "code" : "0x7c01000000000000000000000000000000000000000000000000000000006000350463296df0df811460415780634893d88a14604d578063981a316514605957005b60476065565b60006000f35b6053607a565b60006000f35b605f6072565b60006000f35b5b6001156070576066565b565b6078607a565b565b60806072565b56",
                "nonce" : "0x00",
                "storage" : {
                }
            },
            "0x2adc25665018aa1fe0e6bc666dac8fc2697ff9ba" : {
                "balance" : "0x4563918244f4ea60",
                "code" : "",
                "nonce" : "0x00",
                "storage" : {
                }
            },
            "0xa94f5374fce5edbc8e2a8697c15331677e6ebf0b" : {
                "balance" : "0x06b6c0",
                "code" : "",
                "nonce" : "0x01",
                "storage" : {
                }
            }
        },
        "pre" : {
            "0x095e7baea6a6c7c4c2dfeb977efac326af552d87" : {
                "balance" : "0x0186a0",
                "code" : "0x7c01000000000000000000000000000000000000000000000000000000006000350463296df0df811460415780634893d88a14604d578063981a316514605957005b60476065565b60006000f35b6053607a565b60006000f35b605f6072565b60006000f35b5b6001156070576066565b565b6078607a565b565b60806072565b56",
                "nonce" : "0x00",
                "storage" : {
                }
            },
            "0xa94f5374fce5edbc8e2a8697c15331677e6ebf0b" : {
                "balance" : "0x07a120",
                "code" : "",
                "nonce" : "0x00",
                "storage" : {
                }
            }
        }
    }
}