{
  "context": {
    "difficulty": "3502894804",
    "gasLimit": "4722976",
    "miner": "0x1585936b53834b021f68cc13eeefdec2efc8e724",
    "number": "2289806",
    "timestamp": "1513601314"
  },
  "genesis": {
    "alloc": {
      "0x0024f658a46fbb89d8ac105e98d7ac7cbbaf27c5": {
        "balance": "0x0",
        "code": "0x",
        "nonce": "9",
        "storage": {}
      },
      "0x7ef6c7dc8f8e9dbb026382537906991b07f2da86": {
        "balance": "0x4d87094125a369d9bd5",
        "code": "0x6080604052348015600f57600080fd5b506004361060325760003560e01c8063773a1154146037578063ccbac9f514603f575b600080fd5b603d6059565b005b60456099565b6040516050919060b6565b60405180910390f35b446000819055507facb85192b17e57cdd6ffdc2af021cc70c3a2269771b37b82dd36695fec903af5600054604051608f919060b6565b60405180910390a1565b60005481565b6000819050919050565b60b081609f565b82525050565b600060208201905060c9600083018460a9565b9291505056fea26469706673582212206c5f0ead8b2711f212408856a646c0e33b66df9c87c135b64651e31409588e7864736f6c63430008120033",
        "nonce": "1",
        "storage": {
          "0x0000000000000000000000000000000000000000000000000000000000000000": "0x0000000000000000000000000000000000000000000000000000000000000003",
          "0x3e77b453e919df1d5620826b6e3709443da2cb6fa3f01166311eebd8013e02bb": "0x0000000000000000000000000000000000000000000000000000000000000000",
          "0x0000000000000000000000000000000000000000000000000000000000000003": "0x000000000000000000000000000000000000000000000000000000005a37b834"
        }
      },
      "0x873c36f9fd02e0c57a393afe80d14f244fe04378": { 
        "balance": "0x1780d77678137ac1b775",
        "code": "0x",
        "nonce": "0x10",
        "storage": {}
      }
    },
    "config": {
      "byzantiumBlock": 0,
      "constantinopleBlock": 0,
      "petersburgBlock": 0,
      "IstanbulBlock":1561651,
      "chainId": 4761,
      "daoForkSupport": true,
      "eip150Block": 0,
      "eip150Hash": "0x0000000000000000000000000000000000000000000000000000000000000000",
      "eip155Block": 10,
      "eip158Block": 10,
      "ethash": {},
      "homesteadBlock": 0
    },
    "difficulty": "3509749784",
    "extraData": "0x4554482e45544846414e532e4f52472d4641313738394444",
    "gasLimit": "4727564",
    "hash": "0x609948ac3bd3c00b7736b933248891d6c901ee28f066241bddb28f4e00a9f440",
    "miner": "0xbbf5029fd710d227630c8b7d338051b8e76d50b3",
    "mixHash": "0xb131e4507c93c7377de00e7c271bf409ec7492767142ff0f45c882f8068c2ada",
    "nonce": "0x4eb12e19c16d43da",
    "number": "2289805",
    "stateRoot": "0xc7f10f352bff82fac3c2999d3085093d12652e19c7fd32591de49dc5d91b4f1f",
    "timestamp": "1513601261",
    "totalDifficulty": "7143276353481064"
  },
  "input": "0xf86910840ee6b28082a72e947ef6c7dc8f8e9dbb026382537906991b07f2da868084773a1154822555a0a90b352128680ed1277fd0819acdfb1da9e71558854effa68358d36e41e0d170a0685835cae1e3a0b5a57019683cb3150fe22bfab465d0b2568e7266ace66042cd",
  "tracerConfig": {
      "opCode": "PREVRANDAO"
  },
  "result":   
      ["0x7ef6c7dc8f8e9dbb026382537906991b07f2da86"]

}