{
  "context": {
    "difficulty": "3451177886",
    "gasLimit": "4709286",
    "miner": "0x1585936b53834b021f68cc13eeefdec2efc8e724",
    "number": "2290744",
    "timestamp": "1513616439"
  },
  "genesis": {
    "alloc": {
      "0x1d3ddf7caf024f253487e18bc4a15b1a360c170a": {
        "balance": "0x0",
        "code": "0x606060405263ffffffff60e060020a6000350416633b91f50681146100505780635bb47808146100715780635f51fca01461008c578063bc7647a9146100ad578063f1bd0d7a146100c8575b610000565b346100005761006f600160a060020a03600435811690602435166100e9565b005b346100005761006f600160a060020a0360043516610152565b005b346100005761006f600160a060020a036004358116906024351661019c565b005b346100005761006f600160a060020a03600435166101fa565b005b346100005761006f600160a060020a0360043581169060243516610db8565b005b600160a060020a038083166000908152602081905260408120549091908116903316811461011657610000565b839150600160a060020a038316151561012d573392505b6101378284610e2e565b6101418284610db8565b61014a826101fa565b5b5b50505050565b600154600160a060020a03908116903316811461016e57610000565b6002805473ffffffffffffffffffffffffffffffffffffffff1916600160a060020a0384161790555b5b5050565b600254600160a060020a0390811690331681146101b857610000565b600160a060020a038381166000908152602081905260409020805473ffffffffffffffffffffffffffffffffffffffff19169184169190911790555b5b505050565b6040805160e260020a631a481fc102815260016024820181905260026044830152606482015262093a8060848201819052600060a4830181905260c06004840152601e60c48401527f736574456e7469747953746174757328616464726573732c75696e743829000060e484015292519091600160a060020a038516916369207f049161010480820192879290919082900301818387803b156100005760325a03f1156100005750506040805160e260020a63379938570281526000602482018190526001604483015260606004830152602360648301527f626567696e506f6c6c28616464726573732c75696e7436342c626f6f6c2c626f60848301527f6f6c29000000000000000000000000000000000000000000000000000000000060a48301529151600160a060020a038716935063de64e15c9260c48084019391929182900301818387803b156100005760325a03f1156100005750506040805160e260020a631a481fc102815260016024820181905260026044830152606482015267ffffffffffffffff8416608482015260ff851660a482015260c06004820152601960c48201527f61646453746f636b28616464726573732c75696e74323536290000000000000060e48201529051600160a060020a03861692506369207f04916101048082019260009290919082900301818387803b156100005760325a03f1156100005750506040805160e260020a631a481fc102815260016024820181905260026044830152606482015267ffffffffffffffff8416608482015260ff851660a482015260c06004820152601960c48201527f697373756553746f636b2875696e74382c75696e74323536290000000000000060e48201529051600160a060020a03861692506369207f04916101048082019260009290919082900301818387803b156100005760325a03f1156100005750506040805160e260020a63379938570281526002602482015260006044820181905260606004830152602160648301527f6772616e7453746f636b2875696e74382c75696e743235362c61646472657373608483015260f860020a60290260a48301529151600160a060020a038716935063de64e15c9260c48084019391929182900301818387803b156100005760325a03f115610000575050604080517f010555b8000000000000000000000000000000000000000000000000000000008152600160a060020a03338116602483015260006044830181905260606004840152603c60648401527f6772616e7456657374656453746f636b2875696e74382c75696e743235362c6160848401527f6464726573732c75696e7436342c75696e7436342c75696e743634290000000060a48401529251908716935063010555b89260c48084019391929182900301818387803b156100005760325a03f1156100005750506040805160e260020a631a481fc102815260016024820181905260026044830152606482015267ffffffffffffffff8416608482015260ff851660a482015260c06004820152601260c48201527f626567696e53616c65286164647265737329000000000000000000000000000060e48201529051600160a060020a03861692506369207f04916101048082019260009290919082900301818387803b156100005760325a03f1156100005750506040805160e260020a63379938570281526002602482015260006044820181905260606004830152601a60648301527f7472616e7366657253616c6546756e64732875696e743235362900000000000060848301529151600160a060020a038716935063de64e15c9260a48084019391929182900301818387803b156100005760325a03f1156100005750506040805160e260020a631a481fc102815260016024820181905260026044830152606482015267ffffffffffffffff8416608482015260ff851660a482015260c06004820152602d60c48201527f7365744163636f756e74696e6753657474696e67732875696e743235362c756960e48201527f6e7436342c75696e7432353629000000000000000000000000000000000000006101048201529051600160a060020a03861692506369207f04916101248082019260009290919082900301818387803b156100005760325a03f1156100005750506040805160e260020a63379938570281526002602482015260006044820181905260606004830152603460648301527f637265617465526563757272696e6752657761726428616464726573732c756960848301527f6e743235362c75696e7436342c737472696e672900000000000000000000000060a48301529151600160a060020a038716935063de64e15c9260c48084019391929182900301818387803b156100005760325a03f1156100005750506040805160e260020a63379938570281526002602482015260006044820181905260606004830152601b60648301527f72656d6f7665526563757272696e675265776172642875696e7429000000000060848301529151600160a060020a038716935063de64e15c9260a48084019391929182900301818387803b156100005760325a03f1156100005750506040805160e260020a63379938570281526002602482015260006044820181905260606004830152602360648301527f697373756552657761726428616464726573732c75696e743235362c7374726960848301527f6e6729000000000000000000000000000000000000000000000000000000000060a48301529151600160a060020a038716935063de64e15c9260c48084019391929182900301818387803b156100005760325a03f1156100005750506040805160e260020a6337993857028152600160248201819052604482015260606004820152602260648201527f61737369676e53746f636b2875696e74382c616464726573732c75696e743235608482015260f060020a6136290260a48201529051600160a060020a038616925063de64e15c9160c48082019260009290919082900301818387803b156100005760325a03f1156100005750506040805160e260020a6337993857028152600160248201819052604482015260606004820152602260648201527f72656d6f766553746f636b2875696e74382c616464726573732c75696e743235608482015260f060020a6136290260a48201529051600160a060020a038616925063de64e15c9160c48082019260009290919082900301818387803b156100005760325a03f1156100005750506040805160e260020a631a481fc102815260026024808301919091526003604483015260006064830181905267ffffffffffffffff8616608484015260ff871660a484015260c0600484015260c48301919091527f7365744164647265737342796c617728737472696e672c616464726573732c6260e48301527f6f6f6c29000000000000000000000000000000000000000000000000000000006101048301529151600160a060020a03871693506369207f04926101248084019391929182900301818387803b156100005760325a03f1156100005750506040805160e260020a631a481fc1028152600260248201526003604482015260006064820181905267ffffffffffffffff8516608483015260ff861660a483015260c06004830152602160c48301527f73657453746174757342796c617728737472696e672c75696e74382c626f6f6c60e483015260f860020a6029026101048301529151600160a060020a03871693506369207f04926101248084019391929182900301818387803b156100005760325a03f1156100005750506040805160e260020a631a481fc1028152600260248201526003604482015260006064820181905267ffffffffffffffff8516608483015260ff861660a483015260c06004830152603860c48301527f736574566f74696e6742796c617728737472696e672c75696e743235362c756960e48301527f6e743235362c626f6f6c2c75696e7436342c75696e74382900000000000000006101048301529151600160a060020a03871693506369207f04926101248084019391929182900301818387803b156100005760325a03f115610000575050505b505050565b604080517f225553a4000000000000000000000000000000000000000000000000000000008152600160a060020a0383811660048301526002602483015291519184169163225553a49160448082019260009290919082900301818387803b156100005760325a03f115610000575050505b5050565b600082604051611fd280610f488339600160a060020a03909216910190815260405190819003602001906000f0801561000057905082600160a060020a03166308b027418260016040518363ffffffff1660e060020a0281526004018083600160a060020a0316600160a060020a0316815260200182815260200192505050600060405180830381600087803b156100005760325a03f115610000575050604080517fa14e3ee300000000000000000000000000000000000000000000000000000000815260006004820181905260016024830152600160a060020a0386811660448401529251928716935063a14e3ee39260648084019382900301818387803b156100005760325a03f115610000575050505b5050505600606060405234620000005760405160208062001fd283398101604052515b805b600a8054600160a060020a031916600160a060020a0383161790555b506001600d819055600e81905560408051808201909152600c8082527f566f74696e672053746f636b00000000000000000000000000000000000000006020928301908152600b805460008290528251601860ff1990911617825590947f0175b7a638427703f0dbe7bb9bbf987a2551717b34e79f33b5b1008d1fa01db9600291831615610100026000190190921604601f0193909304830192906200010c565b828001600101855582156200010c579182015b828111156200010c578251825591602001919060010190620000ef565b5b50620001309291505b808211156200012c576000815560010162000116565b5090565b50506040805180820190915260038082527f43565300000000000000000000000000000000000000000000000000000000006020928301908152600c805460008290528251600660ff1990911617825590937fdf6966c971051c3d54ec59162606531493a51404a002842f56009d7e5cf4a8c760026001841615610100026000190190931692909204601f010481019291620001f7565b82800160010185558215620001f7579182015b82811115620001f7578251825591602001919060010190620001da565b5b506200021b9291505b808211156200012c576000815560010162000116565b5090565b50505b505b611da280620002306000396000f3006060604052361561019a5763ffffffff60e060020a600035041662e1986d811461019f57806302a72a4c146101d657806306eb4e421461020157806306fdde0314610220578063095ea7b3146102ad578063158ccb99146102dd57806318160ddd146102f85780631cf65a781461031757806323b872dd146103365780632c71e60a1461036c57806333148fd6146103ca578063435ebc2c146103f55780635eeb6e451461041e578063600e85b71461043c5780636103d70b146104a157806362c1e46a146104b05780636c182e99146104ba578063706dc87c146104f057806370a082311461052557806377174f851461055057806395d89b411461056f578063a7771ee3146105fc578063a9059cbb14610629578063ab377daa14610659578063b25dbb5e14610685578063b89a73cb14610699578063ca5eb5e1146106c6578063cbcf2e5a146106e1578063d21f05ba1461070e578063d347c2051461072d578063d96831e114610765578063dd62ed3e14610777578063df3c211b146107a8578063e2982c21146107d6578063eb944e4c14610801575b610000565b34610000576101d4600160a060020a036004351660243567ffffffffffffffff6044358116906064358116906084351661081f565b005b34610000576101ef600160a060020a0360043516610a30565b60408051918252519081900360200190f35b34610000576101ef610a4f565b60408051918252519081900360200190f35b346100005761022d610a55565b604080516020808252835181830152835191928392908301918501908083838215610273575b80518252602083111561027357601f199092019160209182019101610253565b505050905090810190601f16801561029f5780820380516001836020036101000a031916815260200191505b509250505060405180910390f35b34610000576102c9600160a060020a0360043516602435610ae3565b604080519115158252519081900360200190f35b34610000576101d4600160a060020a0360043516610b4e565b005b34610000576101ef610b89565b60408051918252519081900360200190f35b34610000576101ef610b8f565b60408051918252519081900360200190f35b34610000576102c9600160a060020a0360043581169060243516604435610b95565b604080519115158252519081900360200190f35b3461000057610388600160a060020a0360043516602435610bb7565b60408051600160a060020a039096168652602086019490945267ffffffffffffffff928316858501529082166060850152166080830152519081900360a00190f35b34610000576101ef600160a060020a0360043516610c21565b60408051918252519081900360200190f35b3461000057610402610c40565b60408051600160a060020a039092168252519081900360200190f35b34610000576101d4600160a060020a0360043516602435610c4f565b005b3461000057610458600160a060020a0360043516602435610cc9565b60408051600160a060020a03909716875260208701959095528585019390935267ffffffffffffffff9182166060860152811660808501521660a0830152519081900360c00190f35b34610000576101d4610d9e565b005b6101d4610e1e565b005b34610000576104d3600160a060020a0360043516610e21565b6040805167ffffffffffffffff9092168252519081900360200190f35b3461000057610402600160a060020a0360043516610ead565b60408051600160a060020a039092168252519081900360200190f35b34610000576101ef600160a060020a0360043516610ef9565b60408051918252519081900360200190f35b34610000576101ef610f18565b60408051918252519081900360200190f35b346100005761022d610f1e565b604080516020808252835181830152835191928392908301918501908083838215610273575b80518252602083111561027357601f199092019160209182019101610253565b505050905090810190601f16801561029f5780820380516001836020036101000a031916815260200191505b509250505060405180910390f35b34610000576102c9600160a060020a0360043516610fac565b604080519115158252519081900360200190f35b34610000576102c9600160a060020a0360043516602435610fc2565b604080519115158252519081900360200190f35b3461000057610402600435610fe2565b60408051600160a060020a039092168252519081900360200190f35b34610000576101d46004351515610ffd565b005b34610000576102c9600160a060020a036004351661104c565b604080519115158252519081900360200190f35b34610000576101d4600160a060020a0360043516611062565b005b34610000576102c9600160a060020a0360043516611070565b604080519115158252519081900360200190f35b34610000576101ef6110f4565b60408051918252519081900360200190f35b34610000576101ef600160a060020a036004351667ffffffffffffffff602435166110fa565b60408051918252519081900360200190f35b34610000576101d4600435611121565b005b34610000576101ef600160a060020a03600435811690602435166111c6565b60408051918252519081900360200190f35b34610000576101ef6004356024356044356064356084356111f3565b60408051918252519081900360200190f35b34610000576101ef600160a060020a036004351661128c565b60408051918252519081900360200190f35b34610000576101d4600160a060020a036004351660243561129e565b005b6040805160a08101825260008082526020820181905291810182905260608101829052608081019190915267ffffffffffffffff848116908416101561086457610000565b8367ffffffffffffffff168267ffffffffffffffff16101561088557610000565b8267ffffffffffffffff168267ffffffffffffffff1610156108a657610000565b506040805160a081018252600160a060020a033381168252602080830188905267ffffffffffffffff80871684860152858116606085015287166080840152908816600090815260039091529190912080546001810180835582818380158290116109615760030281600302836000526020600020918201910161096191905b8082111561095d578054600160a060020a031916815560006001820155600281018054600160c060020a0319169055600301610926565b5090565b5b505050916000526020600020906003020160005b5082518154600160a060020a031916600160a060020a03909116178155602083015160018201556040830151600290910180546060850151608086015167ffffffffffffffff1990921667ffffffffffffffff948516176fffffffffffffffff00000000000000001916604060020a918516919091021777ffffffffffffffff000000000000000000000000000000001916608060020a939091169290920291909117905550610a268686610fc2565b505b505050505050565b600160a060020a0381166000908152600360205260409020545b919050565b60055481565b600b805460408051602060026001851615610100026000190190941693909304601f81018490048402820184019092528181529291830182828015610adb5780601f10610ab057610100808354040283529160200191610adb565b820191906000526020600020905b815481529060010190602001808311610abe57829003601f168201915b505050505081565b600160a060020a03338116600081815260026020908152604080832094871680845294825280832086905580518681529051929493927f8c5be1e5ebec7d5bd14f71427d1e84f3dd0314c0f7b2291e5b200ac8c7c3b925929181900390910190a35060015b92915050565b600a5433600160a060020a03908116911614610b6957610000565b600a8054600160a060020a031916600160a060020a0383161790555b5b50565b60005481565b60005b90565b6000610ba2848484611600565b610bad8484846116e2565b90505b9392505050565b600360205281600052604060002081815481101561000057906000526020600020906003020160005b5080546001820154600290920154600160a060020a03909116935090915067ffffffffffffffff80821691604060020a8104821691608060020a9091041685565b600160a060020a0381166000908152600860205260409020545b919050565b600a54600160a060020a031681565b600a5433600160a060020a03908116911614610c6a57610000565b610c7660005482611714565b6000908155600160a060020a038316815260016020526040902054610c9b9082611714565b600160a060020a038316600090815260016020526040812091909155610cc390839083611600565b5b5b5050565b6000600060006000600060006000600360008a600160a060020a0316600160a060020a0316815260200190815260200160002088815481101561000057906000526020600020906003020160005b508054600182015460028301546040805160a081018252600160a060020a039094168085526020850184905267ffffffffffffffff808416928601839052604060020a8404811660608701819052608060020a9094041660808601819052909c50929a509197509095509350909150610d90904261172d565b94505b509295509295509295565b33600160a060020a038116600090815260066020526040902054801515610dc457610000565b8030600160a060020a0316311015610ddb57610000565b600160a060020a0382166000818152600660205260408082208290555183156108fc0291849190818181858888f193505050501515610cc357610000565b5b5050565b5b565b600160a060020a03811660009081526003602052604081205442915b81811015610ea557600160a060020a03841660009081526003602052604090208054610e9a9190839081101561000057906000526020600020906003020160005b5060020154604060020a900467ffffffffffffffff168461177d565b92505b600101610e3d565b5b5050919050565b600160a060020a0380821660009081526007602052604081205490911615610eef57600160a060020a0380831660009081526007602052604090205416610ef1565b815b90505b919050565b600160a060020a0381166000908152600160205260409020545b919050565b600d5481565b600c805460408051602060026001851615610100026000190190941693909304601f81018490048402820184019092528181529291830182828015610adb5780601f10610ab057610100808354040283529160200191610adb565b820191906000526020600020905b815481529060010190602001808311610abe57829003601f168201915b505050505081565b60006000610fb983610c21565b1190505b919050565b6000610fcf338484611600565b610fd983836117ac565b90505b92915050565b600460205260009081526040902054600160a060020a031681565b8015801561101a575061100f33610ef9565b61101833610c21565b115b1561102457610000565b33600160a060020a03166000908152600960205260409020805460ff19168215151790555b50565b60006000610fb983610ef9565b1190505b919050565b610b8533826117dc565b5b50565b600a54604080516000602091820181905282517fcbcf2e5a000000000000000000000000000000000000000000000000000000008152600160a060020a03868116600483015293519194939093169263cbcf2e5a92602480830193919282900301818787803b156100005760325a03f115610000575050604051519150505b919050565b600e5481565b6000610fd961110984846118b2565b61111385856119b6565b611a05565b90505b92915050565b600a5433600160a060020a0390811691161461113c57610000565b61114860005482611a1f565b600055600554600190101561116c57600a5461116c90600160a060020a0316611a47565b5b600a54600160a060020a03166000908152600160205260409020546111929082611a1f565b600a8054600160a060020a039081166000908152600160205260408120939093559054610b8592911683611600565b5b5b50565b600160a060020a038083166000908152600260209081526040808320938516835292905220545b92915050565b6000600060008487101561120a5760009250611281565b8387111561121a57879250611281565b61123f6112308961122b888a611714565b611a90565b61123a8689611714565b611abc565b915081925061124e8883611714565b905061127e8361127961126a8461122b8c8b611714565b611a90565b61123a888b611714565b611abc565b611a1f565b92505b505095945050505050565b60066020526000908152604090205481565b600160a060020a03821660009081526003602052604081208054829190849081101561000057906000526020600020906003020160005b50805490925033600160a060020a039081169116146112f357610000565b6040805160a0810182528354600160a060020a0316815260018401546020820152600284015467ffffffffffffffff80821693830193909352604060020a810483166060830152608060020a900490911660808201526113539042611af9565b600160a060020a0385166000908152600360205260409020805491925090849081101561000057906000526020600020906003020160005b508054600160a060020a031916815560006001820181905560029091018054600160c060020a0319169055600160a060020a0385168152600360205260409020805460001981019081101561000057906000526020600020906003020160005b50600160a060020a03851660009081526003602052604090208054859081101561000057906000526020600020906003020160005b5081548154600160a060020a031916600160a060020a03918216178255600180840154908301556002928301805493909201805467ffffffffffffffff191667ffffffffffffffff948516178082558354604060020a908190048616026fffffffffffffffff000000000000000019909116178082559254608060020a9081900490941690930277ffffffffffffffff00000000000000000000000000000000199092169190911790915584166000908152600360205260409020805460001981018083559190829080158290116115485760030281600302836000526020600020918201910161154891905b8082111561095d578054600160a060020a031916815560006001820155600281018054600160c060020a0319169055600301610926565b5090565b5b505050600160a060020a033316600090815260016020526040902054611570915082611a1f565b600160a060020a03338116600090815260016020526040808220939093559086168152205461159f9082611714565b600160a060020a038086166000818152600160209081526040918290209490945580518581529051339093169391927fddf252ad1be2c89b69c2b068fc378daa952ba7f163c4a11628f55a4df523b3ef929181900390910190a35b50505050565b600160a060020a0383161561166e576116466008600061161f86610ead565b600160a060020a0316600160a060020a031681526020019081526020016000205482611714565b6008600061165386610ead565b600160a060020a031681526020810191909152604001600020555b600160a060020a038216156116dc576116b46008600061168d85610ead565b600160a060020a0316600160a060020a031681526020019081526020016000205482611a1f565b600860006116c185610ead565b600160a060020a031681526020810191909152604001600020555b5b505050565b600083826116f082426110fa565b8111156116fc57610000565b611707868686611b1b565b92505b5b50509392505050565b600061172283831115611b4d565b508082035b92915050565b6000610fd983602001518367ffffffffffffffff16856080015167ffffffffffffffff16866040015167ffffffffffffffff16876060015167ffffffffffffffff166111f3565b90505b92915050565b60008167ffffffffffffffff168367ffffffffffffffff1610156117a15781610fd9565b825b90505b92915050565b600033826117ba82426110fa565b8111156117c657610000565b6117d08585611b5d565b92505b5b505092915050565b6117e582610ef9565b6117ee83610c21565b11156117f957610000565b600160a060020a03811660009081526009602052604090205460ff16158015611834575081600160a060020a031681600160a060020a031614155b1561183e57610000565b61184782611070565b1561185157610000565b611864828261185f85610ef9565b611600565b600160a060020a0382811660009081526007602052604090208054600160a060020a031916918316918217905561189a82610ead565b600160a060020a031614610cc357610000565b5b5050565b600160a060020a038216600090815260036020526040812054815b818110156119885761197d836112796003600089600160a060020a0316600160a060020a0316815260200190815260200160002084815481101561000057906000526020600020906003020160005b506040805160a0810182528254600160a060020a031681526001830154602082015260029092015467ffffffffffffffff80821692840192909252604060020a810482166060840152608060020a900416608082015287611af9565b611a1f565b92505b6001016118cd565b600160a060020a0385166000908152600160205260409020546117d09084611714565b92505b505092915050565b600060006119c384611070565b80156119d157506000600d54115b90506119fb816119e9576119e485610ef9565b6119ec565b60005b6111138686611b7b565b611a05565b91505b5092915050565b60008183106117a15781610fd9565b825b90505b92915050565b6000828201611a3c848210801590611a375750838210155b611b4d565b8091505b5092915050565b611a508161104c565b15611a5a57610b85565b6005805460009081526004602052604090208054600160a060020a031916600160a060020a038416179055805460010190555b50565b6000828202611a3c841580611a37575083858381156100005704145b611b4d565b8091505b5092915050565b60006000611acc60008411611b4d565b8284811561000057049050611a3c838581156100005706828502018514611b4d565b8091505b5092915050565b6000610fd98360200151611b0d858561172d565b611714565b90505b92915050565b60008382611b2982426110fa565b811115611b3557610000565b611707868686611b8f565b92505b5b50509392505050565b801515610b8557610000565b5b50565b6000611b6883611a47565b610fd98383611c92565b90505b92915050565b6000610fd983610ef9565b90505b92915050565b600160a060020a038084166000908152600260209081526040808320338516845282528083205493861683526001909152812054909190611bd09084611a1f565b600160a060020a038086166000908152600160205260408082209390935590871681522054611bff9084611714565b600160a060020a038616600090815260016020526040902055611c228184611714565b600160a060020a038087166000818152600260209081526040808320338616845282529182902094909455805187815290519288169391927fddf252ad1be2c89b69c2b068fc378daa952ba7f163c4a11628f55a4df523b3ef929181900390910190a3600191505b509392505050565b60003382611ca082426110fa565b811115611cac57610000565b6117d08585611cc2565b92505b5b505092915050565b600160a060020a033316600090815260016020526040812054611ce59083611714565b600160a060020a033381166000908152600160205260408082209390935590851681522054611d149083611a1f565b600160a060020a038085166000818152600160209081526040918290209490945580518681529051919333909316927fddf252ad1be2c89b69c2b068fc378daa952ba7f163c4a11628f55a4df523b3ef92918290030190a35060015b929150505600a165627a7a72305820bfa5ddd3fecf3f43aed25385ec7ec3ef79638c2e58d99f85d9a3cc494183bf160029a165627a7a723058200e78a5f7e0f91739035d0fbf5eca02f79377210b722f63431f29a22e2880b3bd0029",
        "nonce": "789",
        "storage": {
          "0xfe9ec0542a1c009be8b1f3acf43af97100ffff42eb736850fb038fa1151ad4d9": "0x000000000000000000000000e4a13bc304682a903e9472f469c33801dd18d9e8"
        }
      },
      "0x5cb4a6b902fcb21588c86c3517e797b07cdaadb9": {
        "balance": "0x0",
        "code": "0x",
        "nonce": "0",
        "storage": {}
      },
      "0xe4a13bc304682a903e9472f469c33801dd18d9e8": {
        "balance": "0x33c763c929f62c4f",
        "code": "0x",
        "nonce": "14",
        "storage": {}
      }
    },
    "config": {
      "byzantiumBlock": 1700000,
      "chainId": 3,
      "daoForkSupport": true,
      "eip150Block": 0,
      "eip150Hash": "0x41941023680923e0fe4d74a34bdac8141f2540e3ae90623718e47d66d1ca4a2d",
      "eip155Block": 10,
      "eip158Block": 10,
      "ethash": {},
      "homesteadBlock": 0
    },
    "difficulty": "3451177886",
    "extraData": "0x4554482e45544846414e532e4f52472d4641313738394444",
    "gasLimit": "4713874",
    "hash": "0x5d52a672417cd1269bf4f7095e25dcbf837747bba908cd5ef809dc1bd06144b5",
    "miner": "0xbbf5029fd710d227630c8b7d338051b8e76d50b3",
    "mixHash": "0x01a12845ed546b94a038a7a03e8df8d7952024ed41ccb3db7a7ade4abc290ce1",
    "nonce": "0x28c446f1cb9748c1",
    "number": "2290743",
    "stateRoot": "0x4898aceede76739daef76448a367d10015a2c022c9e7909b99a10fbf6fb16708",
    "timestamp": "1513616414",
    "totalDifficulty": "7146523769022564"
  },
  "input": "0xf8aa0e8509502f9000830493e0941d3ddf7caf024f253487e18bc4a15b1a360c170a80b8443b91f506000000000000000000000000a14bdd7e5666d784dcce98ad24d383a6b1cd4182000000000000000000000000e4a13bc304682a903e9472f469c33801dd18d9e829a0524564944fa419f5c189b5074044f89210c6d6b2d77ee8f7f12a927d59b636dfa0015b28986807a424b18b186ee6642d76739df36cad802d20e8c00e79a61d7281",
  "result": {
    "calls": [
      {
        "error": "internal failure",
        "from": "0x1d3ddf7caf024f253487e18bc4a15b1a360c170a",
        "gas": "0x39ff0",
        "gasUsed": "0x39ff0",
        "input": "0x606060405234620000005760405160208062001fd283398101604052515b805b600a8054600160a060020a031916600160a060020a0383161790555b506001600d819055600e81905560408051808201909152600c8082527f566f74696e672053746f636b00000000000000000000000000000000000000006020928301908152600b805460008290528251601860ff1990911617825590947f0175b7a638427703f0dbe7bb9bbf987a2551717b34e79f33b5b1008d1fa01db9600291831615610100026000190190921604601f0193909304830192906200010c565b828001600101855582156200010c579182015b828111156200010c578251825591602001919060010190620000ef565b5b50620001309291505b808211156200012c576000815560010162000116565b5090565b50506040805180820190915260038082527f43565300000000000000000000000000000000000000000000000000000000006020928301908152600c805460008290528251600660ff1990911617825590937fdf6966c971051c3d54ec59162606531493a51404a002842f56009d7e5cf4a8c760026001841615610100026000190190931692909204601f010481019291620001f7565b82800160010185558215620001f7579182015b82811115620001f7578251825591602001919060010190620001da565b5b506200021b9291505b808211156200012c576000815560010162000116565b5090565b50505b505b611da280620002306000396000f3006060604052361561019a5763ffffffff60e060020a600035041662e1986d811461019f57806302a72a4c146101d657806306eb4e421461020157806306fdde0314610220578063095ea7b3146102ad578063158ccb99146102dd57806318160ddd146102f85780631cf65a781461031757806323b872dd146103365780632c71e60a1461036c57806333148fd6146103ca578063435ebc2c146103f55780635eeb6e451461041e578063600e85b71461043c5780636103d70b146104a157806362c1e46a146104b05780636c182e99146104ba578063706dc87c146104f057806370a082311461052557806377174f851461055057806395d89b411461056f578063a7771ee3146105fc578063a9059cbb14610629578063ab377daa14610659578063b25dbb5e14610685578063b89a73cb14610699578063ca5eb5e1146106c6578063cbcf2e5a146106e1578063d21f05ba1461070e578063d347c2051461072d578063d96831e114610765578063dd62ed3e14610777578063df3c211b146107a8578063e2982c21146107d6578063eb944e4c14610801575b610000565b34610000576101d4600160a060020a036004351660243567ffffffffffffffff6044358116906064358116906084351661081f565b005b34610000576101ef600160a060020a0360043516610a30565b60408051918252519081900360200190f35b34610000576101ef610a4f565b60408051918252519081900360200190f35b346100005761022d610a55565b604080516020808252835181830152835191928392908301918501908083838215610273575b80518252602083111561027357601f199092019160209182019101610253565b505050905090810190601f16801561029f5780820380516001836020036101000a031916815260200191505b509250505060405180910390f35b34610000576102c9600160a060020a0360043516602435610ae3565b604080519115158252519081900360200190f35b34610000576101d4600160a060020a0360043516610b4e565b005b34610000576101ef610b89565b60408051918252519081900360200190f35b34610000576101ef610b8f565b60408051918252519081900360200190f35b34610000576102c9600160a060020a0360043581169060243516604435610b95565b604080519115158252519081900360200190f35b3461000057610388600160a060020a0360043516602435610bb7565b60408051600160a060020a039096168652602086019490945267ffffffffffffffff928316858501529082166060850152166080830152519081900360a00190f35b34610000576101ef600160a060020a0360043516610c21565b60408051918252519081900360200190f35b3461000057610402610c40565b60408051600160a060020a039092168252519081900360200190f35b34610000576101d4600160a060020a0360043516602435610c4f565b005b3461000057610458600160a060020a0360043516602435610cc9565b60408051600160a060020a03909716875260208701959095528585019390935267ffffffffffffffff9182166060860152811660808501521660a0830152519081900360c00190f35b34610000576101d4610d9e565b005b6101d4610e1e565b005b34610000576104d3600160a060020a0360043516610e21565b6040805167ffffffffffffffff9092168252519081900360200190f35b3461000057610402600160a060020a0360043516610ead565b60408051600160a060020a039092168252519081900360200190f35b34610000576101ef600160a060020a0360043516610ef9565b60408051918252519081900360200190f35b34610000576101ef610f18565b60408051918252519081900360200190f35b346100005761022d610f1e565b604080516020808252835181830152835191928392908301918501908083838215610273575b80518252602083111561027357601f199092019160209182019101610253565b505050905090810190601f16801561029f5780820380516001836020036101000a031916815260200191505b509250505060405180910390f35b34610000576102c9600160a060020a0360043516610fac565b604080519115158252519081900360200190f35b34610000576102c9600160a060020a0360043516602435610fc2565b604080519115158252519081900360200190f35b3461000057610402600435610fe2565b60408051600160a060020a039092168252519081900360200190f35b34610000576101d46004351515610ffd565b005b34610000576102c9600160a060020a036004351661104c565b604080519115158252519081900360200190f35b34610000576101d4600160a060020a0360043516611062565b005b34610000576102c9600160a060020a0360043516611070565b604080519115158252519081900360200190f35b34610000576101ef6110f4565b60408051918252519081900360200190f35b34610000576101ef600160a060020a036004351667ffffffffffffffff602435166110fa565b60408051918252519081900360200190f35b34610000576101d4600435611121565b005b34610000576101ef600160a060020a03600435811690602435166111c6565b60408051918252519081900360200190f35b34610000576101ef6004356024356044356064356084356111f3565b60408051918252519081900360200190f35b34610000576101ef600160a060020a036004351661128c565b60408051918252519081900360200190f35b34610000576101d4600160a060020a036004351660243561129e565b005b6040805160a08101825260008082526020820181905291810182905260608101829052608081019190915267ffffffffffffffff848116908416101561086457610000565b8367ffffffffffffffff168267ffffffffffffffff16101561088557610000565b8267ffffffffffffffff168267ffffffffffffffff1610156108a657610000565b506040805160a081018252600160a060020a033381168252602080830188905267ffffffffffffffff80871684860152858116606085015287166080840152908816600090815260039091529190912080546001810180835582818380158290116109615760030281600302836000526020600020918201910161096191905b8082111561095d578054600160a060020a031916815560006001820155600281018054600160c060020a0319169055600301610926565b5090565b5b505050916000526020600020906003020160005b5082518154600160a060020a031916600160a060020a03909116178155602083015160018201556040830151600290910180546060850151608086015167ffffffffffffffff1990921667ffffffffffffffff948516176fffffffffffffffff00000000000000001916604060020a918516919091021777ffffffffffffffff000000000000000000000000000000001916608060020a939091169290920291909117905550610a268686610fc2565b505b505050505050565b600160a060020a0381166000908152600360205260409020545b919050565b60055481565b600b805460408051602060026001851615610100026000190190941693909304601f81018490048402820184019092528181529291830182828015610adb5780601f10610ab057610100808354040283529160200191610adb565b820191906000526020600020905b815481529060010190602001808311610abe57829003601f168201915b505050505081565b600160a060020a03338116600081815260026020908152604080832094871680845294825280832086905580518681529051929493927f8c5be1e5ebec7d5bd14f71427d1e84f3dd0314c0f7b2291e5b200ac8c7c3b925929181900390910190a35060015b92915050565b600a5433600160a060020a03908116911614610b6957610000565b600a8054600160a060020a031916600160a060020a0383161790555b5b50565b60005481565b60005b90565b6000610ba2848484611600565b610bad8484846116e2565b90505b9392505050565b600360205281600052604060002081815481101561000057906000526020600020906003020160005b5080546001820154600290920154600160a060020a03909116935090915067ffffffffffffffff80821691604060020a8104821691608060020a9091041685565b600160a060020a0381166000908152600860205260409020545b919050565b600a54600160a060020a031681565b600a5433600160a060020a03908116911614610c6a57610000565b610c7660005482611714565b6000908155600160a060020a038316815260016020526040902054610c9b9082611714565b600160a060020a038316600090815260016020526040812091909155610cc390839083611600565b5b5b5050565b6000600060006000600060006000600360008a600160a060020a0316600160a060020a0316815260200190815260200160002088815481101561000057906000526020600020906003020160005b508054600182015460028301546040805160a081018252600160a060020a039094168085526020850184905267ffffffffffffffff808416928601839052604060020a8404811660608701819052608060020a9094041660808601819052909c50929a509197509095509350909150610d90904261172d565b94505b509295509295509295565b33600160a060020a038116600090815260066020526040902054801515610dc457610000565b8030600160a060020a0316311015610ddb57610000565b600160a060020a0382166000818152600660205260408082208290555183156108fc0291849190818181858888f193505050501515610cc357610000565b5b5050565b5b565b600160a060020a03811660009081526003602052604081205442915b81811015610ea557600160a060020a03841660009081526003602052604090208054610e9a9190839081101561000057906000526020600020906003020160005b5060020154604060020a900467ffffffffffffffff168461177d565b92505b600101610e3d565b5b5050919050565b600160a060020a0380821660009081526007602052604081205490911615610eef57600160a060020a0380831660009081526007602052604090205416610ef1565b815b90505b919050565b600160a060020a0381166000908152600160205260409020545b919050565b600d5481565b600c805460408051602060026001851615610100026000190190941693909304601f81018490048402820184019092528181529291830182828015610adb5780601f10610ab057610100808354040283529160200191610adb565b820191906000526020600020905b815481529060010190602001808311610abe57829003601f168201915b505050505081565b60006000610fb983610c21565b1190505b919050565b6000610fcf338484611600565b610fd983836117ac565b90505b92915050565b600460205260009081526040902054600160a060020a031681565b8015801561101a575061100f33610ef9565b61101833610c21565b115b1561102457610000565b33600160a060020a03166000908152600960205260409020805460ff19168215151790555b50565b60006000610fb983610ef9565b1190505b919050565b610b8533826117dc565b5b50565b600a54604080516000602091820181905282517fcbcf2e5a000000000000000000000000000000000000000000000000000000008152600160a060020a03868116600483015293519194939093169263cbcf2e5a92602480830193919282900301818787803b156100005760325a03f115610000575050604051519150505b919050565b600e5481565b6000610fd961110984846118b2565b61111385856119b6565b611a05565b90505b92915050565b600a5433600160a060020a0390811691161461113c57610000565b61114860005482611a1f565b600055600554600190101561116c57600a5461116c90600160a060020a0316611a47565b5b600a54600160a060020a03166000908152600160205260409020546111929082611a1f565b600a8054600160a060020a039081166000908152600160205260408120939093559054610b8592911683611600565b5b5b50565b600160a060020a038083166000908152600260209081526040808320938516835292905220545b92915050565b6000600060008487101561120a5760009250611281565b8387111561121a57879250611281565b61123f6112308961122b888a611714565b611a90565b61123a8689611714565b611abc565b915081925061124e8883611714565b905061127e8361127961126a8461122b8c8b611714565b611a90565b61123a888b611714565b611abc565b611a1f565b92505b505095945050505050565b60066020526000908152604090205481565b600160a060020a03821660009081526003602052604081208054829190849081101561000057906000526020600020906003020160005b50805490925033600160a060020a039081169116146112f357610000565b6040805160a0810182528354600160a060020a0316815260018401546020820152600284015467ffffffffffffffff80821693830193909352604060020a810483166060830152608060020a900490911660808201526113539042611af9565b600160a060020a0385166000908152600360205260409020805491925090849081101561000057906000526020600020906003020160005b508054600160a060020a031916815560006001820181905560029091018054600160c060020a0319169055600160a060020a0385168152600360205260409020805460001981019081101561000057906000526020600020906003020160005b50600160a060020a03851660009081526003602052604090208054859081101561000057906000526020600020906003020160005b5081548154600160a060020a031916600160a060020a03918216178255600180840154908301556002928301805493909201805467ffffffffffffffff191667ffffffffffffffff948516178082558354604060020a908190048616026fffffffffffffffff000000000000000019909116178082559254608060020a9081900490941690930277ffffffffffffffff00000000000000000000000000000000199092169190911790915584166000908152600360205260409020805460001981018083559190829080158290116115485760030281600302836000526020600020918201910161154891905b8082111561095d578054600160a060020a031916815560006001820155600281018054600160c060020a0319169055600301610926565b5090565b5b505050600160a060020a033316600090815260016020526040902054611570915082611a1f565b600160a060020a03338116600090815260016020526040808220939093559086168152205461159f9082611714565b600160a060020a038086166000818152600160209081526040918290209490945580518581529051339093169391927fddf252ad1be2c89b69c2b068fc378daa952ba7f163c4a11628f55a4df523b3ef929181900390910190a35b50505050565b600160a060020a0383161561166e576116466008600061161f86610ead565b600160a060020a0316600160a060020a031681526020019081526020016000205482611714565b6008600061165386610ead565b600160a060020a031681526020810191909152604001600020555b600160a060020a038216156116dc576116b46008600061168d85610ead565b600160a060020a0316600160a060020a031681526020019081526020016000205482611a1f565b600860006116c185610ead565b600160a060020a031681526020810191909152604001600020555b5b505050565b600083826116f082426110fa565b8111156116fc57610000565b611707868686611b1b565b92505b5b50509392505050565b600061172283831115611b4d565b508082035b92915050565b6000610fd983602001518367ffffffffffffffff16856080015167ffffffffffffffff16866040015167ffffffffffffffff16876060015167ffffffffffffffff166111f3565b90505b92915050565b60008167ffffffffffffffff168367ffffffffffffffff1610156117a15781610fd9565b825b90505b92915050565b600033826117ba82426110fa565b8111156117c657610000565b6117d08585611b5d565b92505b5b505092915050565b6117e582610ef9565b6117ee83610c21565b11156117f957610000565b600160a060020a03811660009081526009602052604090205460ff16158015611834575081600160a060020a031681600160a060020a031614155b1561183e57610000565b61184782611070565b1561185157610000565b611864828261185f85610ef9565b611600565b600160a060020a0382811660009081526007602052604090208054600160a060020a031916918316918217905561189a82610ead565b600160a060020a031614610cc357610000565b5b5050565b600160a060020a038216600090815260036020526040812054815b818110156119885761197d836112796003600089600160a060020a0316600160a060020a0316815260200190815260200160002084815481101561000057906000526020600020906003020160005b506040805160a0810182528254600160a060020a031681526001830154602082015260029092015467ffffffffffffffff80821692840192909252604060020a810482166060840152608060020a900416608082015287611af9565b611a1f565b92505b6001016118cd565b600160a060020a0385166000908152600160205260409020546117d09084611714565b92505b505092915050565b600060006119c384611070565b80156119d157506000600d54115b90506119fb816119e9576119e485610ef9565b6119ec565b60005b6111138686611b7b565b611a05565b91505b5092915050565b60008183106117a15781610fd9565b825b90505b92915050565b6000828201611a3c848210801590611a375750838210155b611b4d565b8091505b5092915050565b611a508161104c565b15611a5a57610b85565b6005805460009081526004602052604090208054600160a060020a031916600160a060020a038416179055805460010190555b50565b6000828202611a3c841580611a37575083858381156100005704145b611b4d565b8091505b5092915050565b60006000611acc60008411611b4d565b8284811561000057049050611a3c838581156100005706828502018514611b4d565b8091505b5092915050565b6000610fd98360200151611b0d858561172d565b611714565b90505b92915050565b60008382611b2982426110fa565b811115611b3557610000565b611707868686611b8f565b92505b5b50509392505050565b801515610b8557610000565b5b50565b6000611b6883611a47565b610fd98383611c92565b90505b92915050565b6000610fd983610ef9565b90505b92915050565b600160a060020a038084166000908152600260209081526040808320338516845282528083205493861683526001909152812054909190611bd09084611a1f565b600160a060020a038086166000908152600160205260408082209390935590871681522054611bff9084611714565b600160a060020a038616600090815260016020526040902055611c228184611714565b600160a060020a038087166000818152600260209081526040808320338616845282529182902094909455805187815290519288169391927fddf252ad1be2c89b69c2b068fc378daa952ba7f163c4a11628f55a4df523b3ef929181900390910190a3600191505b509392505050565b60003382611ca082426110fa565b811115611cac57610000565b6117d08585611cc2565b92505b5b505092915050565b600160a060020a033316600090815260016020526040812054611ce59083611714565b600160a060020a033381166000908152600160205260408082209390935590851681522054611d149083611a1f565b600160a060020a038085166000818152600160209081526040918290209490945580518681529051919333909316927fddf252ad1be2c89b69c2b068fc378daa952ba7f163c4a11628f55a4df523b3ef92918290030190a35060015b929150505600a165627a7a72305820bfa5ddd3fecf3f43aed25385ec7ec3ef79638c2e58d99f85d9a3cc494183bf160029000000000000000000000000a14bdd7e5666d784dcce98ad24d383a6b1cd4182",
        "type": "CREATE",
        "value": "0x0"
      }
    ],
    "error": "invalid jump destination (PUSH1) 0",
    "from": "0xe4a13bc304682a903e9472f469c33801dd18d9e8",
    "gas": "0x435c8",
    "gasUsed": "0x435c8",
    "input": "0x3b91f506000000000000000000000000a14bdd7e5666d784dcce98ad24d383a6b1cd4182000000000000000000000000e4a13bc304682a903e9472f469c33801dd18d9e8",
    "to": "0x1d3ddf7caf024f253487e18bc4a15b1a360c170a",
    "type": "CALL",
    "value": "0x0"
  }
}
