{
  "context": {
    "difficulty": "3665057456",
    "gasLimit": "5232723",
    "miner": "0xf4d8e706cfb25c0decbbdd4d2e2cc10c66376a3f",
    "number": "2294501",
    "timestamp": "1513673601"
  },
  "genesis": {
    "alloc": {
      "0x0f6cef2b7fbb504782e35aa82a2207e816a2b7a9": {
        "balance": "0x2a3fc32bcc019283",
        "code": "0x",
        "nonce": "10",
        "storage": {}
      },
      "0xabbcd5b340c80b5f1c0545c04c987b87310296ae": {
        "balance": "0x0",
        "code": "0x606060405236156100755763ffffffff7c01000000000000000000000000000000000000000000000000000000006000350416632d0335ab811461007a578063548db174146100ab5780637f649783146100fc578063b092145e1461014d578063c3f44c0a14610186578063c47cf5de14610203575b600080fd5b341561008557600080fd5b610099600160a060020a0360043516610270565b60405190815260200160405180910390f35b34156100b657600080fd5b6100fa600460248135818101908301358060208181020160405190810160405280939291908181526020018383602002808284375094965061028f95505050505050565b005b341561010757600080fd5b6100fa600460248135818101908301358060208181020160405190810160405280939291908181526020018383602002808284375094965061029e95505050505050565b005b341561015857600080fd5b610172600160a060020a03600435811690602435166102ad565b604051901515815260200160405180910390f35b341561019157600080fd5b6100fa6004803560ff1690602480359160443591606435600160a060020a0316919060a49060843590810190830135806020601f8201819004810201604051908101604052818152929190602084018383808284375094965050509235600160a060020a031692506102cd915050565b005b341561020e57600080fd5b61025460046024813581810190830135806020601f8201819004810201604051908101604052818152929190602084018383808284375094965061056a95505050505050565b604051600160a060020a03909116815260200160405180910390f35b600160a060020a0381166000908152602081905260409020545b919050565b61029a816000610594565b5b50565b61029a816001610594565b5b50565b600160209081526000928352604080842090915290825290205460ff1681565b60008080600160a060020a038416158061030d5750600160a060020a038085166000908152600160209081526040808320339094168352929052205460ff165b151561031857600080fd5b6103218561056a565b600160a060020a038116600090815260208190526040808220549295507f19000000000000000000000000000000000000000000000000000000000000009230918891908b908b90517fff000000000000000000000000000000000000000000000000000000000000008089168252871660018201526c01000000000000000000000000600160a060020a038088168202600284015286811682026016840152602a8301869052841602604a820152605e810182805190602001908083835b6020831061040057805182525b601f1990920191602091820191016103e0565b6001836020036101000a0380198251168184511617909252505050919091019850604097505050505050505051809103902091506001828a8a8a6040516000815260200160405260006040516020015260405193845260ff90921660208085019190915260408085019290925260608401929092526080909201915160208103908084039060008661646e5a03f1151561049957600080fd5b5050602060405103519050600160a060020a03838116908216146104bc57600080fd5b600160a060020a0380841660009081526020819052604090819020805460010190559087169086905180828051906020019080838360005b8381101561050d5780820151818401525b6020016104f4565b50505050905090810190601f16801561053a5780820380516001836020036101000a031916815260200191505b5091505060006040518083038160008661646e5a03f1915050151561055e57600080fd5b5b505050505050505050565b600060248251101561057e5750600061028a565b600160a060020a0360248301511690505b919050565b60005b825181101561060157600160a060020a033316600090815260016020526040812083918584815181106105c657fe5b90602001906020020151600160a060020a031681526020810191909152604001600020805460ff19169115159190911790555b600101610597565b5b5050505600a165627a7a723058200027e8b695e9d2dea9f3629519022a69f3a1d23055ce86406e686ea54f31ee9c0029",
        "nonce": "1",
        "storage": {}
      }
    },
    "config": {
      "byzantiumBlock": 1700000,
      "chainId": 3,
      "daoForkSupport": true,
      "eip150Block": 0,
      "eip150Hash": "0x41941023680923e0fe4d74a34bdac8141f2540e3ae90623718e47d66d1ca4a2d",
      "eip155Block": 10,
      "eip158Block": 10,
      "ethash": {},
      "homesteadBlock": 0
    },
    "difficulty": "3672229776",
    "extraData": "0x4554482e45544846414e532e4f52472d4641313738394444",
    "gasLimit": "5227619",
    "hash": "0xa07b3d6c6bf63f5f981016db9f2d1d93033833f2c17e8bf7209e85f1faf08076",
    "miner": "0xbbf5029fd710d227630c8b7d338051b8e76d50b3",
    "mixHash": "0x806e151ce2817be922e93e8d5921fa0f0d0fd213d6b2b9a3fa17458e74a163d0",
    "nonce": "0xbc5d43adc2c30c7d",
    "number": "2294500",
    "stateRoot": "0xca645b335888352ef9d8b1ef083e9019648180b259026572e3139717270de97d",
    "timestamp": "1513673552",
    "totalDifficulty": "7160066586979149"
  },
  "input": "0xf9018b0a8505d21dba00832dc6c094abbcd5b340c80b5f1c0545c04c987b87310296ae80b9012473b40a5c000000000000000000000000400de2e016bda6577407dfc379faba9899bc73ef0000000000000000000000002cc31912b2b0f3075a87b3640923d45a26cef3ee000000000000000000000000000000000000000000000000000000000000000000000000000000000000000000000000000000000000000000000000000000800000000000000000000000000000000000000000000000000000000000000064d79d8e6c7265636f76657279416464726573730000000000000000000000000000000000000000000000000000000000383e3ec32dc0f66d8fe60dbdc2f6815bdf73a988383e3ec32dc0f66d8fe60dbdc2f6815bdf73a988000000000000000000000000000000000000000000000000000000000000000000000000000000001ba0fd659d76a4edbd2a823e324c93f78ad6803b30ff4a9c8bce71ba82798975c70ca06571eecc0b765688ec6c78942c5ee8b585e00988c0141b518287e9be919bc48a",
  "result": {
    "error": "execution reverted",
    "from": "0x0f6cef2b7fbb504782e35aa82a2207e816a2b7a9",
    "gas": "0x2d55e8",
    "gasUsed": "0xc3",
    "input": "0x73b40a5c000000000000000000000000400de2e016bda6577407dfc379faba9899bc73ef0000000000000000000000002cc31912b2b0f3075a87b3640923d45a26cef3ee000000000000000000000000000000000000000000000000000000000000000000000000000000000000000000000000000000000000000000000000000000800000000000000000000000000000000000000000000000000000000000000064d79d8e6c7265636f76657279416464726573730000000000000000000000000000000000000000000000000000000000383e3ec32dc0f66d8fe60dbdc2f6815bdf73a988383e3ec32dc0f66d8fe60dbdc2f6815bdf73a98800000000000000000000000000000000000000000000000000000000000000000000000000000000",
    "to": "0xabbcd5b340c80b5f1c0545c04c987b87310296ae",
    "type": "CALL",
    "value": "0x0"
  }
}
