{
    "badOpcodes_d79g0v0_Byzantium" : {
        "_info" : {
            "comment" : "",
            "filledwith" : "cpp-1.3.0+commit.9979b2bf.Linux.g++",
            "lllcversion" : "Version: 0.4.18-develop.2017.10.12+commit.0357cd72.Linux.g++",
            "source" : "src/BlockchainTestsFiller/GeneralStateTests/stBadOpcode/badOpcodes_d79g0v0Filler.json",
            "sourceHash" : "a13222a75ab0c8205c0324607f04c81cba4ac246c98dbac916628ed46fe0327f"
        },
        "blocks" : [
            {
                "blockHeader" : {
                    "bloom" : "0x00000000000000000000000000000000000000000000000000000000000000000000000000000000000000000000000000000000000000000000000000000000000000000000000000000000000000000000000000000000000000000000000000000000000000000000000000000000000000000000000000000000000000000000000000000000000000000000000000000000000000000000000000000000000000000000000000000000000000000000000000000000000000000000000000000000000000000000000000000000000000000000000000000000000000000000000000000000000000000000000000000000000000000000000000000000",
                    "coinbase" : "0x2adc25665018aa1fe0e6bc666dac8fc2697ff9ba",
                    "difficulty" : "0x020000",
                    "extraData" : "",
                    "gasLimit" : "0x0f4240",
                    "gasUsed" : "0x061a80",
                    "hash" : "0x1e577e180120bf91897bc2d7d2f8d715efe73364e14a31218ed0c648974f3083",
                    "mixHash" : "0xad7d7db31184b6b0096a99535cf8a89d59b1e9b0fd06dd521bc4e067a64f4451",
                    "nonce" : "0x0f5646e5404dcd6c",
                    "number" : "0x01",
                    "parentHash" : "0x813a03e58564185e9a635f602e5f8da3ab602ac12b45b34e03aadbae561a9020",
                    "receiptTrie" : "0xba9991e573821b0c234e361e68d2fe4b0fc940f8380d61fc18ee6ceb963b7094",
                    "stateRoot" : "0xb449a6ccb649d9456d876bdab12ed9d3b1176f23eb28cdbb01e89759d48d0831",
                    "timestamp" : "0x03e8",
                    "transactionsTrie" : "0xfcebefc69581616519c0301e887fea3f4cbc7b11c9bac6e5e8bd05bfdfca93ee",
                    "uncleHash" : "0x1dcc4de8dec75d7aab85b567b6ccd41ad312451b948a7413f0a142fd40d49347"
                },
                "rlp" : "0xf90265f901f8a0813a03e58564185e9a635f602e5f8da3ab602ac12b45b34e03aadbae561a9020a01dcc4de8dec75d7aab85b567b6ccd41ad312451b948a7413f0a142fd40d49347942adc25665018aa1fe0e6bc666dac8fc2697ff9baa0b449a6ccb649d9456d876bdab12ed9d3b1176f23eb28cdbb01e89759d48d0831a0fcebefc69581616519c0301e887fea3f4cbc7b11c9bac6e5e8bd05bfdfca93eea0ba9991e573821b0c234e361e68d2fe4b0fc940f8380d61fc18ee6ceb963b7094b90100000000000000000000000000000000000000000000000000000000000000000000000000000000000000000000000000000000000000000000000000000000000000000000000000000000000000000000000000000000000000000000000000000000000000000000000000000000000000000000000000000000000000000000000000000000000000000000000000000000000000000000000000000000000000000000000000000000000000000000000000000000000000000000000000000000000000000000000000000000000000000000000000000000000000000000000000000000000000000000000000000000000000000000000000000000008302000001830f424083061a808203e880a0ad7d7db31184b6b0096a99535cf8a89d59b1e9b0fd06dd521bc4e067a64f4451880f5646e5404dcd6cf867f865800183061a8080830186a09660016001600160016001600160016001cc60006000f31ba01a85a015bd71d235e7f5994a55bc0608bba8d84e4f92ec2427aa154ae6d56f3aa03ea0d7e2ad8684b962fe56eb34a1b1611e595ccc67f9f65118d72a56ef4c8308c0",
                "transactions" : [
                    {
                        "data" : "0x60016001600160016001600160016001cc60006000f3",
                        "gasLimit" : "0x061a80",
                        "gasPrice" : "0x01",
                        "nonce" : "0x00",
                        "r" : "0x1a85a015bd71d235e7f5994a55bc0608bba8d84e4f92ec2427aa154ae6d56f3a",
                        "s" : "0x3ea0d7e2ad8684b962fe56eb34a1b1611e595ccc67f9f65118d72a56ef4c8308",
                        "to" : "",
                        "v" : "0x1b",
                        "value" : "0x0186a0"
                    }
                ],
                "uncleHeaders" : [
                ]
            }
        ],
        "genesisBlockHeader" : {
            "bloom" : "0x00000000000000000000000000000000000000000000000000000000000000000000000000000000000000000000000000000000000000000000000000000000000000000000000000000000000000000000000000000000000000000000000000000000000000000000000000000000000000000000000000000000000000000000000000000000000000000000000000000000000000000000000000000000000000000000000000000000000000000000000000000000000000000000000000000000000000000000000000000000000000000000000000000000000000000000000000000000000000000000000000000000000000000000000000000000",
            "coinbase" : "0x2adc25665018aa1fe0e6bc666dac8fc2697ff9ba",
            "difficulty" : "0x020000",
            "extraData" : "0x42",
            "gasLimit" : "0x0f4240",
            "gasUsed" : "0x00",
            "hash" : "0x813a03e58564185e9a635f602e5f8da3ab602ac12b45b34e03aadbae561a9020",
            "mixHash" : "0x56e81f171bcc55a6ff8345e692c0f86e5b48e01b996cadc001622fb5e363b421",
            "nonce" : "0x0102030405060708",
            "number" : "0x00",
            "parentHash" : "0x0000000000000000000000000000000000000000000000000000000000000000",
            "receiptTrie" : "0x56e81f171bcc55a6ff8345e692c0f86e5b48e01b996cadc001622fb5e363b421",
            "stateRoot" : "0x517f2cdf6adb1a644878c390ffab4e130f1bed4b498ef7ce58c5addd98d61018",
            "timestamp" : "0x03b6",
            "transactionsTrie" : "0x56e81f171bcc55a6ff8345e692c0f86e5b48e01b996cadc001622fb5e363b421",
            "uncleHash" : "0x1dcc4de8dec75d7aab85b567b6ccd41ad312451b948a7413f0a142fd40d49347"
        },
        "genesisRLP" : "0xf901faf901f5a00000000000000000000000000000000000000000000000000000000000000000a01dcc4de8dec75d7aab85b567b6ccd41ad312451b948a7413f0a142fd40d49347942adc25665018aa1fe0e6bc666dac8fc2697ff9baa0517f2cdf6adb1a644878c390ffab4e130f1bed4b498ef7ce58c5addd98d61018a056e81f171bcc55a6ff8345e692c0f86e5b48e01b996cadc001622fb5e363b421a056e81f171bcc55a6ff8345e692c0f86e5b48e01b996cadc001622fb5e363b421b90100000000000000000000000000000000000000000000000000000000000000000000000000000000000000000000000000000000000000000000000000000000000000000000000000000000000000000000000000000000000000000000000000000000000000000000000000000000000000000000000000000000000000000000000000000000000000000000000000000000000000000000000000000000000000000000000000000000000000000000000000000000000000000000000000000000000000000000000000000000000000000000000000000000000000000000000000000000000000000000000000000000000000000000000000000000008302000080830f4240808203b642a056e81f171bcc55a6ff8345e692c0f86e5b48e01b996cadc001622fb5e363b421880102030405060708c0c0",
        "lastblockhash" : "0x1e577e180120bf91897bc2d7d2f8d715efe73364e14a31218ed0c648974f3083",
        "network" : "Byzantium",
        "postState" : {
            "0x2adc25665018aa1fe0e6bc666dac8fc2697ff9ba" : {
                "balance" : "0x29a2241af6321a80",
                "code" : "",
                "nonce" : "0x00",
                "storage" : {
                }
            },
            "0xa94f5374fce5edbc8e2a8697c15331677e6ebf0b" : {
                "balance" : "0x0de0b6b3a75de580",
                "code" : "",
                "nonce" : "0x01",
                "storage" : {
                }
            }
        },
        "pre" : {
            "0xa94f5374fce5edbc8e2a8697c15331677e6ebf0b" : {
                "balance" : "0x0de0b6b3a7640000",
                "code" : "",
                "nonce" : "0x00",
                "storage" : {
                }
            }
        }
    },
    "badOpcodes_d79g0v0_Constantinople" : {
        "_info" : {
            "comment" : "",
            "filledwith" : "cpp-1.3.0+commit.9979b2bf.Linux.g++",
            "lllcversion" : "Version: 0.4.18-develop.2017.10.12+commit.0357cd72.Linux.g++",
            "source" : "src/BlockchainTestsFiller/GeneralStateTests/stBadOpcode/badOpcodes_d79g0v0Filler.json",
            "sourceHash" : "a13222a75ab0c8205c0324607f04c81cba4ac246c98dbac916628ed46fe0327f"
        },
        "blocks" : [
            {
                "blockHeader" : {
                    "bloom" : "0x00000000000000000000000000000000000000000000000000000000000000000000000000000000000000000000000000000000000000000000000000000000000000000000000000000000000000000000000000000000000000000000000000000000000000000000000000000000000000000000000000000000000000000000000000000000000000000000000000000000000000000000000000000000000000000000000000000000000000000000000000000000000000000000000000000000000000000000000000000000000000000000000000000000000000000000000000000000000000000000000000000000000000000000000000000000",
                    "coinbase" : "0x2adc25665018aa1fe0e6bc666dac8fc2697ff9ba",
                    "difficulty" : "0x020000",
                    "extraData" : "",
                    "gasLimit" : "0x0f4240",
                    "gasUsed" : "0x061a80",
                    "hash" : "0x2f6403ad81c8f1672818cded2c22bb17da30801eff04d2d111e3b06d0e3784a3",
                    "mixHash" : "0x16bad8160dca0a385fab14e7c2e0a914a65e20052f354279cb180bec9b4d1152",
                    "nonce" : "0x6ca29155a5924159",
                    "number" : "0x01",
                    "parentHash" : "0x813a03e58564185e9a635f602e5f8da3ab602ac12b45b34e03aadbae561a9020",
                    "receiptTrie" : "0xba9991e573821b0c234e361e68d2fe4b0fc940f8380d61fc18ee6ceb963b7094",
                    "stateRoot" : "0xb449a6ccb649d9456d876bdab12ed9d3b1176f23eb28cdbb01e89759d48d0831",
                    "timestamp" : "0x03e8",
                    "transactionsTrie" : "0xfcebefc69581616519c0301e887fea3f4cbc7b11c9bac6e5e8bd05bfdfca93ee",
                    "uncleHash" : "0x1dcc4de8dec75d7aab85b567b6ccd41ad312451b948a7413f0a142fd40d49347"
                },
                "rlp" : "0xf90265f901f8a0813a03e58564185e9a635f602e5f8da3ab602ac12b45b34e03aadbae561a9020a01dcc4de8dec75d7aab85b567b6ccd41ad312451b948a7413f0a142fd40d49347942adc25665018aa1fe0e6bc666dac8fc2697ff9baa0b449a6ccb649d9456d876bdab12ed9d3b1176f23eb28cdbb01e89759d48d0831a0fcebefc69581616519c0301e887fea3f4cbc7b11c9bac6e5e8bd05bfdfca93eea0ba9991e573821b0c234e361e68d2fe4b0fc940f8380d61fc18ee6ceb963b7094b90100000000000000000000000000000000000000000000000000000000000000000000000000000000000000000000000000000000000000000000000000000000000000000000000000000000000000000000000000000000000000000000000000000000000000000000000000000000000000000000000000000000000000000000000000000000000000000000000000000000000000000000000000000000000000000000000000000000000000000000000000000000000000000000000000000000000000000000000000000000000000000000000000000000000000000000000000000000000000000000000000000000000000000000000000000000008302000001830f424083061a808203e880a016bad8160dca0a385fab14e7c2e0a914a65e20052f354279cb180bec9b4d1152886ca29155a5924159f867f865800183061a8080830186a09660016001600160016001600160016001cc60006000f31ba01a85a015bd71d235e7f5994a55bc0608bba8d84e4f92ec2427aa154ae6d56f3aa03ea0d7e2ad8684b962fe56eb34a1b1611e595ccc67f9f65118d72a56ef4c8308c0",
                "transactions" : [
                    {
                        "data" : "0x60016001600160016001600160016001cc60006000f3",
                        "gasLimit" : "0x061a80",
                        "gasPrice" : "0x01",
                        "nonce" : "0x00",
                        "r" : "0x1a85a015bd71d235e7f5994a55bc0608bba8d84e4f92ec2427aa154ae6d56f3a",
                        "s" : "0x3ea0d7e2ad8684b962fe56eb34a1b1611e595ccc67f9f65118d72a56ef4c8308",
                        "to" : "",
                        "v" : "0x1b",
                        "value" : "0x0186a0"
                    }
                ],
                "uncleHeaders" : [
                ]
            }
        ],
        "genesisBlockHeader" : {
            "bloom" : "0x00000000000000000000000000000000000000000000000000000000000000000000000000000000000000000000000000000000000000000000000000000000000000000000000000000000000000000000000000000000000000000000000000000000000000000000000000000000000000000000000000000000000000000000000000000000000000000000000000000000000000000000000000000000000000000000000000000000000000000000000000000000000000000000000000000000000000000000000000000000000000000000000000000000000000000000000000000000000000000000000000000000000000000000000000000000",
            "coinbase" : "0x2adc25665018aa1fe0e6bc666dac8fc2697ff9ba",
            "difficulty" : "0x020000",
            "extraData" : "0x42",
            "gasLimit" : "0x0f4240",
            "gasUsed" : "0x00",
            "hash" : "0x813a03e58564185e9a635f602e5f8da3ab602ac12b45b34e03aadbae561a9020",
            "mixHash" : "0x56e81f171bcc55a6ff8345e692c0f86e5b48e01b996cadc001622fb5e363b421",
            "nonce" : "0x0102030405060708",
            "number" : "0x00",
            "parentHash" : "0x0000000000000000000000000000000000000000000000000000000000000000",
            "receiptTrie" : "0x56e81f171bcc55a6ff8345e692c0f86e5b48e01b996cadc001622fb5e363b421",
            "stateRoot" : "0x517f2cdf6adb1a644878c390ffab4e130f1bed4b498ef7ce58c5addd98d61018",
            "timestamp" : "0x03b6",
            "transactionsTrie" : "0x56e81f171bcc55a6ff8345e692c0f86e5b48e01b996cadc001622fb5e363b421",
            "uncleHash" : "0x1dcc4de8dec75d7aab85b567b6ccd41ad312451b948a7413f0a142fd40d49347"
        },
        "genesisRLP" : "0xf901faf901f5a00000000000000000000000000000000000000000000000000000000000000000a01dcc4de8dec75d7aab85b567b6ccd41ad312451b948a7413f0a142fd40d49347942adc25665018aa1fe0e6bc666dac8fc2697ff9baa0517f2cdf6adb1a644878c390ffab4e130f1bed4b498ef7ce58c5addd98d61018a056e81f171bcc55a6ff8345e692c0f86e5b48e01b996cadc001622fb5e363b421a056e81f171bcc55a6ff8345e692c0f86e5b48e01b996cadc001622fb5e363b421b90100000000000000000000000000000000000000000000000000000000000000000000000000000000000000000000000000000000000000000000000000000000000000000000000000000000000000000000000000000000000000000000000000000000000000000000000000000000000000000000000000000000000000000000000000000000000000000000000000000000000000000000000000000000000000000000000000000000000000000000000000000000000000000000000000000000000000000000000000000000000000000000000000000000000000000000000000000000000000000000000000000000000000000000000000000000008302000080830f4240808203b642a056e81f171bcc55a6ff8345e692c0f86e5b48e01b996cadc001622fb5e363b421880102030405060708c0c0",
        "lastblockhash" : "0x2f6403ad81c8f1672818cded2c22bb17da30801eff04d2d111e3b06d0e3784a3",
        "network" : "Constantinople",
        "postState" : {
            "0x2adc25665018aa1fe0e6bc666dac8fc2697ff9ba" : {
                "balance" : "0x29a2241af6321a80",
                "code" : "",
                "nonce" : "0x00",
                "storage" : {
                }
            },
            "0xa94f5374fce5edbc8e2a8697c15331677e6ebf0b" : {
                "balance" : "0x0de0b6b3a75de580",
                "code" : "",
                "nonce" : "0x01",
                "storage" : {
                }
            }
        },
        "pre" : {
            "0xa94f5374fce5edbc8e2a8697c15331677e6ebf0b" : {
                "balance" : "0x0de0b6b3a7640000",
                "code" : "",
                "nonce" : "0x00",
                "storage" : {
                }
            }
        }
    },
    "badOpcodes_d79g0v0_EIP150" : {
        "_info" : {
            "comment" : "",
            "filledwith" : "cpp-1.3.0+commit.9979b2bf.Linux.g++",
            "lllcversion" : "Version: 0.4.18-develop.2017.10.12+commit.0357cd72.Linux.g++",
            "source" : "src/BlockchainTestsFiller/GeneralStateTests/stBadOpcode/badOpcodes_d79g0v0Filler.json",
            "sourceHash" : "a13222a75ab0c8205c0324607f04c81cba4ac246c98dbac916628ed46fe0327f"
        },
        "blocks" : [
            {
                "blockHeader" : {
                    "bloom" : "0x00000000000000000000000000000000000000000000000000000000000000000000000000000000000000000000000000000000000000000000000000000000000000000000000000000000000000000000000000000000000000000000000000000000000000000000000000000000000000000000000000000000000000000000000000000000000000000000000000000000000000000000000000000000000000000000000000000000000000000000000000000000000000000000000000000000000000000000000000000000000000000000000000000000000000000000000000000000000000000000000000000000000000000000000000000000",
                    "coinbase" : "0x2adc25665018aa1fe0e6bc666dac8fc2697ff9ba",
                    "difficulty" : "0x020000",
                    "extraData" : "",
                    "gasLimit" : "0x0f4240",
                    "gasUsed" : "0x061a80",
                    "hash" : "0x4737e3030a30b2c89d153e20755a2f4bcd29e853f4e8944c147de78f94ec47ff",
                    "mixHash" : "0x2b0080b232a6680eaa602e3def02ffbca4570be4787cff4bc7155e547233de71",
                    "nonce" : "0x53ff870744127ffc",
                    "number" : "0x01",
                    "parentHash" : "0x813a03e58564185e9a635f602e5f8da3ab602ac12b45b34e03aadbae561a9020",
                    "receiptTrie" : "0x54d1949a938a3648c080eee5c088a7d39c94d0bdb0285074e7b75ab6f7c98da1",
                    "stateRoot" : "0x6428b3140b024b4d06e9aea099f8584f0810b877e2225af4ec95fddc8e4d38ee",
                    "timestamp" : "0x03e8",
                    "transactionsTrie" : "0xfcebefc69581616519c0301e887fea3f4cbc7b11c9bac6e5e8bd05bfdfca93ee",
                    "uncleHash" : "0x1dcc4de8dec75d7aab85b567b6ccd41ad312451b948a7413f0a142fd40d49347"
                },
                "rlp" : "0xf90265f901f8a0813a03e58564185e9a635f602e5f8da3ab602ac12b45b34e03aadbae561a9020a01dcc4de8dec75d7aab85b567b6ccd41ad312451b948a7413f0a142fd40d49347942adc25665018aa1fe0e6bc666dac8fc2697ff9baa06428b3140b024b4d06e9aea099f8584f0810b877e2225af4ec95fddc8e4d38eea0fcebefc69581616519c0301e887fea3f4cbc7b11c9bac6e5e8bd05bfdfca93eea054d1949a938a3648c080eee5c088a7d39c94d0bdb0285074e7b75ab6f7c98da1b90100000000000000000000000000000000000000000000000000000000000000000000000000000000000000000000000000000000000000000000000000000000000000000000000000000000000000000000000000000000000000000000000000000000000000000000000000000000000000000000000000000000000000000000000000000000000000000000000000000000000000000000000000000000000000000000000000000000000000000000000000000000000000000000000000000000000000000000000000000000000000000000000000000000000000000000000000000000000000000000000000000000000000000000000000000000008302000001830f424083061a808203e880a02b0080b232a6680eaa602e3def02ffbca4570be4787cff4bc7155e547233de718853ff870744127ffcf867f865800183061a8080830186a09660016001600160016001600160016001cc60006000f31ba01a85a015bd71d235e7f5994a55bc0608bba8d84e4f92ec2427aa154ae6d56f3aa03ea0d7e2ad8684b962fe56eb34a1b1611e595ccc67f9f65118d72a56ef4c8308c0",
                "transactions" : [
                    {
                        "data" : "0x60016001600160016001600160016001cc60006000f3",
                        "gasLimit" : "0x061a80",
                        "gasPrice" : "0x01",
                        "nonce" : "0x00",
                        "r" : "0x1a85a015bd71d235e7f5994a55bc0608bba8d84e4f92ec2427aa154ae6d56f3a",
                        "s" : "0x3ea0d7e2ad8684b962fe56eb34a1b1611e595ccc67f9f65118d72a56ef4c8308",
                        "to" : "",
                        "v" : "0x1b",
                        "value" : "0x0186a0"
                    }
                ],
                "uncleHeaders" : [
                ]
            }
        ],
        "genesisBlockHeader" : {
            "bloom" : "0x00000000000000000000000000000000000000000000000000000000000000000000000000000000000000000000000000000000000000000000000000000000000000000000000000000000000000000000000000000000000000000000000000000000000000000000000000000000000000000000000000000000000000000000000000000000000000000000000000000000000000000000000000000000000000000000000000000000000000000000000000000000000000000000000000000000000000000000000000000000000000000000000000000000000000000000000000000000000000000000000000000000000000000000000000000000",
            "coinbase" : "0x2adc25665018aa1fe0e6bc666dac8fc2697ff9ba",
            "difficulty" : "0x020000",
            "extraData" : "0x42",
            "gasLimit" : "0x0f4240",
            "gasUsed" : "0x00",
            "hash" : "0x813a03e58564185e9a635f602e5f8da3ab602ac12b45b34e03aadbae561a9020",
            "mixHash" : "0x56e81f171bcc55a6ff8345e692c0f86e5b48e01b996cadc001622fb5e363b421",
            "nonce" : "0x0102030405060708",
            "number" : "0x00",
            "parentHash" : "0x0000000000000000000000000000000000000000000000000000000000000000",
            "receiptTrie" : "0x56e81f171bcc55a6ff8345e692c0f86e5b48e01b996cadc001622fb5e363b421",
            "stateRoot" : "0x517f2cdf6adb1a644878c390ffab4e130f1bed4b498ef7ce58c5addd98d61018",
            "timestamp" : "0x03b6",
            "transactionsTrie" : "0x56e81f171bcc55a6ff8345e692c0f86e5b48e01b996cadc001622fb5e363b421",
            "uncleHash" : "0x1dcc4de8dec75d7aab85b567b6ccd41ad312451b948a7413f0a142fd40d49347"
        },
        "genesisRLP" : "0xf901faf901f5a00000000000000000000000000000000000000000000000000000000000000000a01dcc4de8dec75d7aab85b567b6ccd41ad312451b948a7413f0a142fd40d49347942adc25665018aa1fe0e6bc666dac8fc2697ff9baa0517f2cdf6adb1a644878c390ffab4e130f1bed4b498ef7ce58c5addd98d61018a056e81f171bcc55a6ff8345e692c0f86e5b48e01b996cadc001622fb5e363b421a056e81f171bcc55a6ff8345e692c0f86e5b48e01b996cadc001622fb5e363b421b90100000000000000000000000000000000000000000000000000000000000000000000000000000000000000000000000000000000000000000000000000000000000000000000000000000000000000000000000000000000000000000000000000000000000000000000000000000000000000000000000000000000000000000000000000000000000000000000000000000000000000000000000000000000000000000000000000000000000000000000000000000000000000000000000000000000000000000000000000000000000000000000000000000000000000000000000000000000000000000000000000000000000000000000000000000000008302000080830f4240808203b642a056e81f171bcc55a6ff8345e692c0f86e5b48e01b996cadc001622fb5e363b421880102030405060708c0c0",
        "lastblockhash" : "0x4737e3030a30b2c89d153e20755a2f4bcd29e853f4e8944c147de78f94ec47ff",
        "network" : "EIP150",
        "postState" : {
            "0x2adc25665018aa1fe0e6bc666dac8fc2697ff9ba" : {
                "balance" : "0x4563918244fa1a80",
                "code" : "",
                "nonce" : "0x00",
                "storage" : {
                }
            },
            "0xa94f5374fce5edbc8e2a8697c15331677e6ebf0b" : {
                "balance" : "0x0de0b6b3a75de580",
                "code" : "",
                "nonce" : "0x01",
                "storage" : {
                }
            }
        },
        "pre" : {
            "0xa94f5374fce5edbc8e2a8697c15331677e6ebf0b" : {
                "balance" : "0x0de0b6b3a7640000",
                "code" : "",
                "nonce" : "0x00",
                "storage" : {
                }
            }
        }
    },
    "badOpcodes_d79g0v0_EIP158" : {
        "_info" : {
            "comment" : "",
            "filledwith" : "cpp-1.3.0+commit.9979b2bf.Linux.g++",
            "lllcversion" : "Version: 0.4.18-develop.2017.10.12+commit.0357cd72.Linux.g++",
            "source" : "src/BlockchainTestsFiller/GeneralStateTests/stBadOpcode/badOpcodes_d79g0v0Filler.json",
            "sourceHash" : "a13222a75ab0c8205c0324607f04c81cba4ac246c98dbac916628ed46fe0327f"
        },
        "blocks" : [
            {
                "blockHeader" : {
                    "bloom" : "0x00000000000000000000000000000000000000000000000000000000000000000000000000000000000000000000000000000000000000000000000000000000000000000000000000000000000000000000000000000000000000000000000000000000000000000000000000000000000000000000000000000000000000000000000000000000000000000000000000000000000000000000000000000000000000000000000000000000000000000000000000000000000000000000000000000000000000000000000000000000000000000000000000000000000000000000000000000000000000000000000000000000000000000000000000000000",
                    "coinbase" : "0x2adc25665018aa1fe0e6bc666dac8fc2697ff9ba",
                    "difficulty" : "0x020000",
                    "extraData" : "",
                    "gasLimit" : "0x0f4240",
                    "gasUsed" : "0x061a80",
                    "hash" : "0xbfedcce9e7c2c971e4de93b78c6b1f9afe0685e6df4bb9fc552679ba4fd32492",
                    "mixHash" : "0x5a7950eb50d0f26f63c9d114e4e231f187c668976cd9b525ec8d3920038f9f90",
                    "nonce" : "0x8492a83c787085d0",
                    "number" : "0x01",
                    "parentHash" : "0x813a03e58564185e9a635f602e5f8da3ab602ac12b45b34e03aadbae561a9020",
                    "receiptTrie" : "0x54d1949a938a3648c080eee5c088a7d39c94d0bdb0285074e7b75ab6f7c98da1",
                    "stateRoot" : "0x6428b3140b024b4d06e9aea099f8584f0810b877e2225af4ec95fddc8e4d38ee",
                    "timestamp" : "0x03e8",
                    "transactionsTrie" : "0xfcebefc69581616519c0301e887fea3f4cbc7b11c9bac6e5e8bd05bfdfca93ee",
                    "uncleHash" : "0x1dcc4de8dec75d7aab85b567b6ccd41ad312451b948a7413f0a142fd40d49347"
                },
                "rlp" : "0xf90265f901f8a0813a03e58564185e9a635f602e5f8da3ab602ac12b45b34e03aadbae561a9020a01dcc4de8dec75d7aab85b567b6ccd41ad312451b948a7413f0a142fd40d49347942adc25665018aa1fe0e6bc666dac8fc2697ff9baa06428b3140b024b4d06e9aea099f8584f0810b877e2225af4ec95fddc8e4d38eea0fcebefc69581616519c0301e887fea3f4cbc7b11c9bac6e5e8bd05bfdfca93eea054d1949a938a3648c080eee5c088a7d39c94d0bdb0285074e7b75ab6f7c98da1b90100000000000000000000000000000000000000000000000000000000000000000000000000000000000000000000000000000000000000000000000000000000000000000000000000000000000000000000000000000000000000000000000000000000000000000000000000000000000000000000000000000000000000000000000000000000000000000000000000000000000000000000000000000000000000000000000000000000000000000000000000000000000000000000000000000000000000000000000000000000000000000000000000000000000000000000000000000000000000000000000000000000000000000000000000000000008302000001830f424083061a808203e880a05a7950eb50d0f26f63c9d114e4e231f187c668976cd9b525ec8d3920038f9f90888492a83c787085d0f867f865800183061a8080830186a09660016001600160016001600160016001cc60006000f31ba01a85a015bd71d235e7f5994a55bc0608bba8d84e4f92ec2427aa154ae6d56f3aa03ea0d7e2ad8684b962fe56eb34a1b1611e595ccc67f9f65118d72a56ef4c8308c0",
                "transactions" : [
                    {
                        "data" : "0x60016001600160016001600160016001cc60006000f3",
                        "gasLimit" : "0x061a80",
                        "gasPrice" : "0x01",
                        "nonce" : "0x00",
                        "r" : "0x1a85a015bd71d235e7f5994a55bc0608bba8d84e4f92ec2427aa154ae6d56f3a",
                        "s" : "0x3ea0d7e2ad8684b962fe56eb34a1b1611e595ccc67f9f65118d72a56ef4c8308",
                        "to" : "",
                        "v" : "0x1b",
                        "value" : "0x0186a0"
                    }
                ],
                "uncleHeaders" : [
                ]
            }
        ],
        "genesisBlockHeader" : {
            "bloom" : "0x00000000000000000000000000000000000000000000000000000000000000000000000000000000000000000000000000000000000000000000000000000000000000000000000000000000000000000000000000000000000000000000000000000000000000000000000000000000000000000000000000000000000000000000000000000000000000000000000000000000000000000000000000000000000000000000000000000000000000000000000000000000000000000000000000000000000000000000000000000000000000000000000000000000000000000000000000000000000000000000000000000000000000000000000000000000",
            "coinbase" : "0x2adc25665018aa1fe0e6bc666dac8fc2697ff9ba",
            "difficulty" : "0x020000",
            "extraData" : "0x42",
            "gasLimit" : "0x0f4240",
            "gasUsed" : "0x00",
            "hash" : "0x813a03e58564185e9a635f602e5f8da3ab602ac12b45b34e03aadbae561a9020",
            "mixHash" : "0x56e81f171bcc55a6ff8345e692c0f86e5b48e01b996cadc001622fb5e363b421",
            "nonce" : "0x0102030405060708",
            "number" : "0x00",
            "parentHash" : "0x0000000000000000000000000000000000000000000000000000000000000000",
            "receiptTrie" : "0x56e81f171bcc55a6ff8345e692c0f86e5b48e01b996cadc001622fb5e363b421",
            "stateRoot" : "0x517f2cdf6adb1a644878c390ffab4e130f1bed4b498ef7ce58c5addd98d61018",
            "timestamp" : "0x03b6",
            "transactionsTrie" : "0x56e81f171bcc55a6ff8345e692c0f86e5b48e01b996cadc001622fb5e363b421",
            "uncleHash" : "0x1dcc4de8dec75d7aab85b567b6ccd41ad312451b948a7413f0a142fd40d49347"
        },
        "genesisRLP" : "0xf901faf901f5a00000000000000000000000000000000000000000000000000000000000000000a01dcc4de8dec75d7aab85b567b6ccd41ad312451b948a7413f0a142fd40d49347942adc25665018aa1fe0e6bc666dac8fc2697ff9baa0517f2cdf6adb1a644878c390ffab4e130f1bed4b498ef7ce58c5addd98d61018a056e81f171bcc55a6ff8345e692c0f86e5b48e01b996cadc001622fb5e363b421a056e81f171bcc55a6ff8345e692c0f86e5b48e01b996cadc001622fb5e363b421b90100000000000000000000000000000000000000000000000000000000000000000000000000000000000000000000000000000000000000000000000000000000000000000000000000000000000000000000000000000000000000000000000000000000000000000000000000000000000000000000000000000000000000000000000000000000000000000000000000000000000000000000000000000000000000000000000000000000000000000000000000000000000000000000000000000000000000000000000000000000000000000000000000000000000000000000000000000000000000000000000000000000000000000000000000000000008302000080830f4240808203b642a056e81f171bcc55a6ff8345e692c0f86e5b48e01b996cadc001622fb5e363b421880102030405060708c0c0",
        "lastblockhash" : "0xbfedcce9e7c2c971e4de93b78c6b1f9afe0685e6df4bb9fc552679ba4fd32492",
        "network" : "EIP158",
        "postState" : {
            "0x2adc25665018aa1fe0e6bc666dac8fc2697ff9ba" : {
                "balance" : "0x4563918244fa1a80",
                "code" : "",
                "nonce" : "0x00",
                "storage" : {
                }
            },
            "0xa94f5374fce5edbc8e2a8697c15331677e6ebf0b" : {
                "balance" : "0x0de0b6b3a75de580",
                "code" : "",
                "nonce" : "0x01",
                "storage" : {
                }
            }
        },
        "pre" : {
            "0xa94f5374fce5edbc8e2a8697c15331677e6ebf0b" : {
                "balance" : "0x0de0b6b3a7640000",
                "code" : "",
                "nonce" : "0x00",
                "storage" : {
                }
            }
        }
    },
    "badOpcodes_d79g0v0_Frontier" : {
        "_info" : {
            "comment" : "",
            "filledwith" : "cpp-1.3.0+commit.9979b2bf.Linux.g++",
            "lllcversion" : "Version: 0.4.18-develop.2017.10.12+commit.0357cd72.Linux.g++",
            "source" : "src/BlockchainTestsFiller/GeneralStateTests/stBadOpcode/badOpcodes_d79g0v0Filler.json",
            "sourceHash" : "a13222a75ab0c8205c0324607f04c81cba4ac246c98dbac916628ed46fe0327f"
        },
        "blocks" : [
            {
                "blockHeader" : {
                    "bloom" : "0x00000000000000000000000000000000000000000000000000000000000000000000000000000000000000000000000000000000000000000000000000000000000000000000000000000000000000000000000000000000000000000000000000000000000000000000000000000000000000000000000000000000000000000000000000000000000000000000000000000000000000000000000000000000000000000000000000000000000000000000000000000000000000000000000000000000000000000000000000000000000000000000000000000000000000000000000000000000000000000000000000000000000000000000000000000000",
                    "coinbase" : "0x2adc25665018aa1fe0e6bc666dac8fc2697ff9ba",
                    "difficulty" : "0x020000",
                    "extraData" : "",
                    "gasLimit" : "0x0f4240",
                    "gasUsed" : "0x061a80",
                    "hash" : "0x8e12cf17fa4abe042a8fb9a7d21aba87481868b23f4a24501430d7cbe002328b",
                    "mixHash" : "0x4284ad99491e1d1afc75c023358731adc33c91e93515d0ba556b83df4a36d03c",
                    "nonce" : "0xf06e11f5ab6a7140",
                    "number" : "0x01",
                    "parentHash" : "0x813a03e58564185e9a635f602e5f8da3ab602ac12b45b34e03aadbae561a9020",
                    "receiptTrie" : "0x54d1949a938a3648c080eee5c088a7d39c94d0bdb0285074e7b75ab6f7c98da1",
                    "stateRoot" : "0x6428b3140b024b4d06e9aea099f8584f0810b877e2225af4ec95fddc8e4d38ee",
                    "timestamp" : "0x03e8",
                    "transactionsTrie" : "0xfcebefc69581616519c0301e887fea3f4cbc7b11c9bac6e5e8bd05bfdfca93ee",
                    "uncleHash" : "0x1dcc4de8dec75d7aab85b567b6ccd41ad312451b948a7413f0a142fd40d49347"
                },
                "rlp" : "0xf90265f901f8a0813a03e58564185e9a635f602e5f8da3ab602ac12b45b34e03aadbae561a9020a01dcc4de8dec75d7aab85b567b6ccd41ad312451b948a7413f0a142fd40d49347942adc25665018aa1fe0e6bc666dac8fc2697ff9baa06428b3140b024b4d06e9aea099f8584f0810b877e2225af4ec95fddc8e4d38eea0fcebefc69581616519c0301e887fea3f4cbc7b11c9bac6e5e8bd05bfdfca93eea054d1949a938a3648c080eee5c088a7d39c94d0bdb0285074e7b75ab6f7c98da1b90100000000000000000000000000000000000000000000000000000000000000000000000000000000000000000000000000000000000000000000000000000000000000000000000000000000000000000000000000000000000000000000000000000000000000000000000000000000000000000000000000000000000000000000000000000000000000000000000000000000000000000000000000000000000000000000000000000000000000000000000000000000000000000000000000000000000000000000000000000000000000000000000000000000000000000000000000000000000000000000000000000000000000000000000000000000008302000001830f424083061a808203e880a04284ad99491e1d1afc75c023358731adc33c91e93515d0ba556b83df4a36d03c88f06e11f5ab6a7140f867f865800183061a8080830186a09660016001600160016001600160016001cc60006000f31ba01a85a015bd71d235e7f5994a55bc0608bba8d84e4f92ec2427aa154ae6d56f3aa03ea0d7e2ad8684b962fe56eb34a1b1611e595ccc67f9f65118d72a56ef4c8308c0",
                "transactions" : [
                    {
                        "data" : "0x60016001600160016001600160016001cc60006000f3",
                        "gasLimit" : "0x061a80",
                        "gasPrice" : "0x01",
                        "nonce" : "0x00",
                        "r" : "0x1a85a015bd71d235e7f5994a55bc0608bba8d84e4f92ec2427aa154ae6d56f3a",
                        "s" : "0x3ea0d7e2ad8684b962fe56eb34a1b1611e595ccc67f9f65118d72a56ef4c8308",
                        "to" : "",
                        "v" : "0x1b",
                        "value" : "0x0186a0"
                    }
                ],
                "uncleHeaders" : [
                ]
            }
        ],
        "genesisBlockHeader" : {
            "bloom" : "0x00000000000000000000000000000000000000000000000000000000000000000000000000000000000000000000000000000000000000000000000000000000000000000000000000000000000000000000000000000000000000000000000000000000000000000000000000000000000000000000000000000000000000000000000000000000000000000000000000000000000000000000000000000000000000000000000000000000000000000000000000000000000000000000000000000000000000000000000000000000000000000000000000000000000000000000000000000000000000000000000000000000000000000000000000000000",
            "coinbase" : "0x2adc25665018aa1fe0e6bc666dac8fc2697ff9ba",
            "difficulty" : "0x020000",
            "extraData" : "0x42",
            "gasLimit" : "0x0f4240",
            "gasUsed" : "0x00",
            "hash" : "0x813a03e58564185e9a635f602e5f8da3ab602ac12b45b34e03aadbae561a9020",
            "mixHash" : "0x56e81f171bcc55a6ff8345e692c0f86e5b48e01b996cadc001622fb5e363b421",
            "nonce" : "0x0102030405060708",
            "number" : "0x00",
            "parentHash" : "0x0000000000000000000000000000000000000000000000000000000000000000",
            "receiptTrie" : "0x56e81f171bcc55a6ff8345e692c0f86e5b48e01b996cadc001622fb5e363b421",
            "stateRoot" : "0x517f2cdf6adb1a644878c390ffab4e130f1bed4b498ef7ce58c5addd98d61018",
            "timestamp" : "0x03b6",
            "transactionsTrie" : "0x56e81f171bcc55a6ff8345e692c0f86e5b48e01b996cadc001622fb5e363b421",
            "uncleHash" : "0x1dcc4de8dec75d7aab85b567b6ccd41ad312451b948a7413f0a142fd40d49347"
        },
        "genesisRLP" : "0xf901faf901f5a00000000000000000000000000000000000000000000000000000000000000000a01dcc4de8dec75d7aab85b567b6ccd41ad312451b948a7413f0a142fd40d49347942adc25665018aa1fe0e6bc666dac8fc2697ff9baa0517f2cdf6adb1a644878c390ffab4e130f1bed4b498ef7ce58c5addd98d61018a056e81f171bcc55a6ff8345e692c0f86e5b48e01b996cadc001622fb5e363b421a056e81f171bcc55a6ff8345e692c0f86e5b48e01b996cadc001622fb5e363b421b90100000000000000000000000000000000000000000000000000000000000000000000000000000000000000000000000000000000000000000000000000000000000000000000000000000000000000000000000000000000000000000000000000000000000000000000000000000000000000000000000000000000000000000000000000000000000000000000000000000000000000000000000000000000000000000000000000000000000000000000000000000000000000000000000000000000000000000000000000000000000000000000000000000000000000000000000000000000000000000000000000000000000000000000000000000000008302000080830f4240808203b642a056e81f171bcc55a6ff8345e692c0f86e5b48e01b996cadc001622fb5e363b421880102030405060708c0c0",
        "lastblockhash" : "0x8e12cf17fa4abe042a8fb9a7d21aba87481868b23f4a24501430d7cbe002328b",
        "network" : "Frontier",
        "postState" : {
            "0x2adc25665018aa1fe0e6bc666dac8fc2697ff9ba" : {
                "balance" : "0x4563918244fa1a80",
                "code" : "",
                "nonce" : "0x00",
                "storage" : {
                }
            },
            "0xa94f5374fce5edbc8e2a8697c15331677e6ebf0b" : {
                "balance" : "0x0de0b6b3a75de580",
                "code" : "",
                "nonce" : "0x01",
                "storage" : {
                }
            }
        },
        "pre" : {
            "0xa94f5374fce5edbc8e2a8697c15331677e6ebf0b" : {
                "balance" : "0x0de0b6b3a7640000",
                "code" : "",
                "nonce" : "0x00",
                "storage" : {
                }
            }
        }
    },
    "badOpcodes_d79g0v0_Homestead" : {
        "_info" : {
            "comment" : "",
            "filledwith" : "cpp-1.3.0+commit.9979b2bf.Linux.g++",
            "lllcversion" : "Version: 0.4.18-develop.2017.10.12+commit.0357cd72.Linux.g++",
            "source" : "src/BlockchainTestsFiller/GeneralStateTests/stBadOpcode/badOpcodes_d79g0v0Filler.json",
            "sourceHash" : "a13222a75ab0c8205c0324607f04c81cba4ac246c98dbac916628ed46fe0327f"
        },
        "blocks" : [
            {
                "blockHeader" : {
                    "bloom" : "0x00000000000000000000000000000000000000000000000000000000000000000000000000000000000000000000000000000000000000000000000000000000000000000000000000000000000000000000000000000000000000000000000000000000000000000000000000000000000000000000000000000000000000000000000000000000000000000000000000000000000000000000000000000000000000000000000000000000000000000000000000000000000000000000000000000000000000000000000000000000000000000000000000000000000000000000000000000000000000000000000000000000000000000000000000000000",
                    "coinbase" : "0x2adc25665018aa1fe0e6bc666dac8fc2697ff9ba",
                    "difficulty" : "0x020000",
                    "extraData" : "",
                    "gasLimit" : "0x0f4240",
                    "gasUsed" : "0x061a80",
                    "hash" : "0x33de4237b803bd6a0e2ff93091621563cc11feb1679fcf7d9cde95028cb01c31",
                    "mixHash" : "0xd9b36ba698f4197ff11e75dc51c9640ae9787438aaf9d55089f9651312db7226",
                    "nonce" : "0xf55083316cf75161",
                    "number" : "0x01",
                    "parentHash" : "0x813a03e58564185e9a635f602e5f8da3ab602ac12b45b34e03aadbae561a9020",
                    "receiptTrie" : "0x54d1949a938a3648c080eee5c088a7d39c94d0bdb0285074e7b75ab6f7c98da1",
                    "stateRoot" : "0x6428b3140b024b4d06e9aea099f8584f0810b877e2225af4ec95fddc8e4d38ee",
                    "timestamp" : "0x03e8",
                    "transactionsTrie" : "0xfcebefc69581616519c0301e887fea3f4cbc7b11c9bac6e5e8bd05bfdfca93ee",
                    "uncleHash" : "0x1dcc4de8dec75d7aab85b567b6ccd41ad312451b948a7413f0a142fd40d49347"
                },
                "rlp" : "0xf90265f901f8a0813a03e58564185e9a635f602e5f8da3ab602ac12b45b34e03aadbae561a9020a01dcc4de8dec75d7aab85b567b6ccd41ad312451b948a7413f0a142fd40d49347942adc25665018aa1fe0e6bc666dac8fc2697ff9baa06428b3140b024b4d06e9aea099f8584f0810b877e2225af4ec95fddc8e4d38eea0fcebefc69581616519c0301e887fea3f4cbc7b11c9bac6e5e8bd05bfdfca93eea054d1949a938a3648c080eee5c088a7d39c94d0bdb0285074e7b75ab6f7c98da1b90100000000000000000000000000000000000000000000000000000000000000000000000000000000000000000000000000000000000000000000000000000000000000000000000000000000000000000000000000000000000000000000000000000000000000000000000000000000000000000000000000000000000000000000000000000000000000000000000000000000000000000000000000000000000000000000000000000000000000000000000000000000000000000000000000000000000000000000000000000000000000000000000000000000000000000000000000000000000000000000000000000000000000000000000000000000008302000001830f424083061a808203e880a0d9b36ba698f4197ff11e75dc51c9640ae9787438aaf9d55089f9651312db722688f55083316cf75161f867f865800183061a8080830186a09660016001600160016001600160016001cc60006000f31ba01a85a015bd71d235e7f5994a55bc0608bba8d84e4f92ec2427aa154ae6d56f3aa03ea0d7e2ad8684b962fe56eb34a1b1611e595ccc67f9f65118d72a56ef4c8308c0",
                "transactions" : [
                    {
                        "data" : "0x60016001600160016001600160016001cc60006000f3",
                        "gasLimit" : "0x061a80",
                        "gasPrice" : "0x01",
                        "nonce" : "0x00",
                        "r" : "0x1a85a015bd71d235e7f5994a55bc0608bba8d84e4f92ec2427aa154ae6d56f3a",
                        "s" : "0x3ea0d7e2ad8684b962fe56eb34a1b1611e595ccc67f9f65118d72a56ef4c8308",
                        "to" : "",
                        "v" : "0x1b",
                        "value" : "0x0186a0"
                    }
                ],
                "uncleHeaders" : [
                ]
            }
        ],
        "genesisBlockHeader" : {
            "bloom" : "0x00000000000000000000000000000000000000000000000000000000000000000000000000000000000000000000000000000000000000000000000000000000000000000000000000000000000000000000000000000000000000000000000000000000000000000000000000000000000000000000000000000000000000000000000000000000000000000000000000000000000000000000000000000000000000000000000000000000000000000000000000000000000000000000000000000000000000000000000000000000000000000000000000000000000000000000000000000000000000000000000000000000000000000000000000000000",
            "coinbase" : "0x2adc25665018aa1fe0e6bc666dac8fc2697ff9ba",
            "difficulty" : "0x020000",
            "extraData" : "0x42",
            "gasLimit" : "0x0f4240",
            "gasUsed" : "0x00",
            "hash" : "0x813a03e58564185e9a635f602e5f8da3ab602ac12b45b34e03aadbae561a9020",
            "mixHash" : "0x56e81f171bcc55a6ff8345e692c0f86e5b48e01b996cadc001622fb5e363b421",
            "nonce" : "0x0102030405060708",
            "number" : "0x00",
            "parentHash" : "0x0000000000000000000000000000000000000000000000000000000000000000",
            "receiptTrie" : "0x56e81f171bcc55a6ff8345e692c0f86e5b48e01b996cadc001622fb5e363b421",
            "stateRoot" : "0x517f2cdf6adb1a644878c390ffab4e130f1bed4b498ef7ce58c5addd98d61018",
            "timestamp" : "0x03b6",
            "transactionsTrie" : "0x56e81f171bcc55a6ff8345e692c0f86e5b48e01b996cadc001622fb5e363b421",
            "uncleHash" : "0x1dcc4de8dec75d7aab85b567b6ccd41ad312451b948a7413f0a142fd40d49347"
        },
        "genesisRLP" : "0xf901faf901f5a00000000000000000000000000000000000000000000000000000000000000000a01dcc4de8dec75d7aab85b567b6ccd41ad312451b948a7413f0a142fd40d49347942adc25665018aa1fe0e6bc666dac8fc2697ff9baa0517f2cdf6adb1a644878c390ffab4e130f1bed4b498ef7ce58c5addd98d61018a056e81f171bcc55a6ff8345e692c0f86e5b48e01b996cadc001622fb5e363b421a056e81f171bcc55a6ff8345e692c0f86e5b48e01b996cadc001622fb5e363b421b90100000000000000000000000000000000000000000000000000000000000000000000000000000000000000000000000000000000000000000000000000000000000000000000000000000000000000000000000000000000000000000000000000000000000000000000000000000000000000000000000000000000000000000000000000000000000000000000000000000000000000000000000000000000000000000000000000000000000000000000000000000000000000000000000000000000000000000000000000000000000000000000000000000000000000000000000000000000000000000000000000000000000000000000000000000000008302000080830f4240808203b642a056e81f171bcc55a6ff8345e692c0f86e5b48e01b996cadc001622fb5e363b421880102030405060708c0c0",
        "lastblockhash" : "0x33de4237b803bd6a0e2ff93091621563cc11feb1679fcf7d9cde95028cb01c31",
        "network" : "Homestead",
        "postState" : {
            "0x2adc25665018aa1fe0e6bc666dac8fc2697ff9ba" : {
                "balance" : "0x4563918244fa1a80",
                "code" : "",
                "nonce" : "0x00",
                "storage" : {
                }
            },
            "0xa94f5374fce5edbc8e2a8697c15331677e6ebf0b" : {
                "balance" : "0x0de0b6b3a75de580",
                "code" : "",
                "nonce" : "0x01",
                "storage" : {
                }
            }
        },
        "pre" : {
            "0xa94f5374fce5edbc8e2a8697c15331677e6ebf0b" : {
                "balance" : "0x0de0b6b3a7640000",
                "code" : "",
                "nonce" : "0x00",
                "storage" : {
                }
            }
        }
    }
}