{
    "badOpcodes_d20g0v0_Byzantium" : {
        "_info" : {
            "comment" : "",
            "filledwith" : "cpp-1.3.0+commit.9979b2bf.Linux.g++",
            "lllcversion" : "Version: 0.4.18-develop.2017.10.12+commit.0357cd72.Linux.g++",
            "source" : "src/BlockchainTestsFiller/GeneralStateTests/stBadOpcode/badOpcodes_d20g0v0Filler.json",
            "sourceHash" : "04c9dbe884d0dc59070ad53f09202acd162edee5470a6197cab00ee4f5f12da7"
        },
        "blocks" : [
            {
                "blockHeader" : {
                    "bloom" : "0x00000000000000000000000000000000000000000000000000000000000000000000000000000000000000000000000000000000000000000000000000000000000000000000000000000000000000000000000000000000000000000000000000000000000000000000000000000000000000000000000000000000000000000000000000000000000000000000000000000000000000000000000000000000000000000000000000000000000000000000000000000000000000000000000000000000000000000000000000000000000000000000000000000000000000000000000000000000000000000000000000000000000000000000000000000000",
                    "coinbase" : "0x2adc25665018aa1fe0e6bc666dac8fc2697ff9ba",
                    "difficulty" : "0x020000",
                    "extraData" : "",
                    "gasLimit" : "0x0f4240",
                    "gasUsed" : "0x061a80",
                    "hash" : "0x18f6610e16123fa45649401b514c90eea33998155e1511f830f7b143e8ccf8b5",
                    "mixHash" : "0x7c1897dc94bfc5e213b740fc375410031c89859ab02269fa7f2c34753fa8fc99",
                    "nonce" : "0xd532d8911d84014a",
                    "number" : "0x01",
                    "parentHash" : "0x813a03e58564185e9a635f602e5f8da3ab602ac12b45b34e03aadbae561a9020",
                    "receiptTrie" : "0xba9991e573821b0c234e361e68d2fe4b0fc940f8380d61fc18ee6ceb963b7094",
                    "stateRoot" : "0xb449a6ccb649d9456d876bdab12ed9d3b1176f23eb28cdbb01e89759d48d0831",
                    "timestamp" : "0x03e8",
                    "transactionsTrie" : "0x50a801047ffb1ac3b3b937f049a0b6120eda548d06e2e71367603a82d7ec7f68",
                    "uncleHash" : "0x1dcc4de8dec75d7aab85b567b6ccd41ad312451b948a7413f0a142fd40d49347"
                },
                "rlp" : "0xf90265f901f8a0813a03e58564185e9a635f602e5f8da3ab602ac12b45b34e03aadbae561a9020a01dcc4de8dec75d7aab85b567b6ccd41ad312451b948a7413f0a142fd40d49347942adc25665018aa1fe0e6bc666dac8fc2697ff9baa0b449a6ccb649d9456d876bdab12ed9d3b1176f23eb28cdbb01e89759d48d0831a050a801047ffb1ac3b3b937f049a0b6120eda548d06e2e71367603a82d7ec7f68a0ba9991e573821b0c234e361e68d2fe4b0fc940f8380d61fc18ee6ceb963b7094b90100000000000000000000000000000000000000000000000000000000000000000000000000000000000000000000000000000000000000000000000000000000000000000000000000000000000000000000000000000000000000000000000000000000000000000000000000000000000000000000000000000000000000000000000000000000000000000000000000000000000000000000000000000000000000000000000000000000000000000000000000000000000000000000000000000000000000000000000000000000000000000000000000000000000000000000000000000000000000000000000000000000000000000000000000000000008302000001830f424083061a808203e880a07c1897dc94bfc5e213b740fc375410031c89859ab02269fa7f2c34753fa8fc9988d532d8911d84014af867f865800183061a8080830186a096600160016001600160016001600160012b60006000f31ca0579f9d34cc1486f59a197d885ca32c74e86dfbd8331e220b725e68725e4f3dd6a02594b462fe1fb505c01c7aa8cc2622dc95ec0e413360a7d04af9649f8b49b8ecc0",
                "transactions" : [
                    {
                        "data" : "0x600160016001600160016001600160012b60006000f3",
                        "gasLimit" : "0x061a80",
                        "gasPrice" : "0x01",
                        "nonce" : "0x00",
                        "r" : "0x579f9d34cc1486f59a197d885ca32c74e86dfbd8331e220b725e68725e4f3dd6",
                        "s" : "0x2594b462fe1fb505c01c7aa8cc2622dc95ec0e413360a7d04af9649f8b49b8ec",
                        "to" : "",
                        "v" : "0x1c",
                        "value" : "0x0186a0"
                    }
                ],
                "uncleHeaders" : [
                ]
            }
        ],
        "genesisBlockHeader" : {
            "bloom" : "0x00000000000000000000000000000000000000000000000000000000000000000000000000000000000000000000000000000000000000000000000000000000000000000000000000000000000000000000000000000000000000000000000000000000000000000000000000000000000000000000000000000000000000000000000000000000000000000000000000000000000000000000000000000000000000000000000000000000000000000000000000000000000000000000000000000000000000000000000000000000000000000000000000000000000000000000000000000000000000000000000000000000000000000000000000000000",
            "coinbase" : "0x2adc25665018aa1fe0e6bc666dac8fc2697ff9ba",
            "difficulty" : "0x020000",
            "extraData" : "0x42",
            "gasLimit" : "0x0f4240",
            "gasUsed" : "0x00",
            "hash" : "0x813a03e58564185e9a635f602e5f8da3ab602ac12b45b34e03aadbae561a9020",
            "mixHash" : "0x56e81f171bcc55a6ff8345e692c0f86e5b48e01b996cadc001622fb5e363b421",
            "nonce" : "0x0102030405060708",
            "number" : "0x00",
            "parentHash" : "0x0000000000000000000000000000000000000000000000000000000000000000",
            "receiptTrie" : "0x56e81f171bcc55a6ff8345e692c0f86e5b48e01b996cadc001622fb5e363b421",
            "stateRoot" : "0x517f2cdf6adb1a644878c390ffab4e130f1bed4b498ef7ce58c5addd98d61018",
            "timestamp" : "0x03b6",
            "transactionsTrie" : "0x56e81f171bcc55a6ff8345e692c0f86e5b48e01b996cadc001622fb5e363b421",
            "uncleHash" : "0x1dcc4de8dec75d7aab85b567b6ccd41ad312451b948a7413f0a142fd40d49347"
        },
        "genesisRLP" : "0xf901faf901f5a00000000000000000000000000000000000000000000000000000000000000000a01dcc4de8dec75d7aab85b567b6ccd41ad312451b948a7413f0a142fd40d49347942adc25665018aa1fe0e6bc666dac8fc2697ff9baa0517f2cdf6adb1a644878c390ffab4e130f1bed4b498ef7ce58c5addd98d61018a056e81f171bcc55a6ff8345e692c0f86e5b48e01b996cadc001622fb5e363b421a056e81f171bcc55a6ff8345e692c0f86e5b48e01b996cadc001622fb5e363b421b90100000000000000000000000000000000000000000000000000000000000000000000000000000000000000000000000000000000000000000000000000000000000000000000000000000000000000000000000000000000000000000000000000000000000000000000000000000000000000000000000000000000000000000000000000000000000000000000000000000000000000000000000000000000000000000000000000000000000000000000000000000000000000000000000000000000000000000000000000000000000000000000000000000000000000000000000000000000000000000000000000000000000000000000000000000000008302000080830f4240808203b642a056e81f171bcc55a6ff8345e692c0f86e5b48e01b996cadc001622fb5e363b421880102030405060708c0c0",
        "lastblockhash" : "0x18f6610e16123fa45649401b514c90eea33998155e1511f830f7b143e8ccf8b5",
        "network" : "Byzantium",
        "postState" : {
            "0x2adc25665018aa1fe0e6bc666dac8fc2697ff9ba" : {
                "balance" : "0x29a2241af6321a80",
                "code" : "",
                "nonce" : "0x00",
                "storage" : {
                }
            },
            "0xa94f5374fce5edbc8e2a8697c15331677e6ebf0b" : {
                "balance" : "0x0de0b6b3a75de580",
                "code" : "",
                "nonce" : "0x01",
                "storage" : {
                }
            }
        },
        "pre" : {
            "0xa94f5374fce5edbc8e2a8697c15331677e6ebf0b" : {
                "balance" : "0x0de0b6b3a7640000",
                "code" : "",
                "nonce" : "0x00",
                "storage" : {
                }
            }
        }
    },
    "badOpcodes_d20g0v0_Constantinople" : {
        "_info" : {
            "comment" : "",
            "filledwith" : "cpp-1.3.0+commit.9979b2bf.Linux.g++",
            "lllcversion" : "Version: 0.4.18-develop.2017.10.12+commit.0357cd72.Linux.g++",
            "source" : "src/BlockchainTestsFiller/GeneralStateTests/stBadOpcode/badOpcodes_d20g0v0Filler.json",
            "sourceHash" : "04c9dbe884d0dc59070ad53f09202acd162edee5470a6197cab00ee4f5f12da7"
        },
        "blocks" : [
            {
                "blockHeader" : {
                    "bloom" : "0x00000000000000000000000000000000000000000000000000000000000000000000000000000000000000000000000000000000000000000000000000000000000000000000000000000000000000000000000000000000000000000000000000000000000000000000000000000000000000000000000000000000000000000000000000000000000000000000000000000000000000000000000000000000000000000000000000000000000000000000000000000000000000000000000000000000000000000000000000000000000000000000000000000000000000000000000000000000000000000000000000000000000000000000000000000000",
                    "coinbase" : "0x2adc25665018aa1fe0e6bc666dac8fc2697ff9ba",
                    "difficulty" : "0x020000",
                    "extraData" : "",
                    "gasLimit" : "0x0f4240",
                    "gasUsed" : "0x061a80",
                    "hash" : "0x6600119cd6727e4388969d9313df3f15cd849b9409006468959a6ea434a85dfd",
                    "mixHash" : "0x0d466edf79b4da40d94942ae7f8f8e4123f42793f7221086c748a3f341b357b3",
                    "nonce" : "0x1463abe8436e9056",
                    "number" : "0x01",
                    "parentHash" : "0x813a03e58564185e9a635f602e5f8da3ab602ac12b45b34e03aadbae561a9020",
                    "receiptTrie" : "0xba9991e573821b0c234e361e68d2fe4b0fc940f8380d61fc18ee6ceb963b7094",
                    "stateRoot" : "0xb449a6ccb649d9456d876bdab12ed9d3b1176f23eb28cdbb01e89759d48d0831",
                    "timestamp" : "0x03e8",
                    "transactionsTrie" : "0x50a801047ffb1ac3b3b937f049a0b6120eda548d06e2e71367603a82d7ec7f68",
                    "uncleHash" : "0x1dcc4de8dec75d7aab85b567b6ccd41ad312451b948a7413f0a142fd40d49347"
                },
                "rlp" : "0xf90265f901f8a0813a03e58564185e9a635f602e5f8da3ab602ac12b45b34e03aadbae561a9020a01dcc4de8dec75d7aab85b567b6ccd41ad312451b948a7413f0a142fd40d49347942adc25665018aa1fe0e6bc666dac8fc2697ff9baa0b449a6ccb649d9456d876bdab12ed9d3b1176f23eb28cdbb01e89759d48d0831a050a801047ffb1ac3b3b937f049a0b6120eda548d06e2e71367603a82d7ec7f68a0ba9991e573821b0c234e361e68d2fe4b0fc940f8380d61fc18ee6ceb963b7094b90100000000000000000000000000000000000000000000000000000000000000000000000000000000000000000000000000000000000000000000000000000000000000000000000000000000000000000000000000000000000000000000000000000000000000000000000000000000000000000000000000000000000000000000000000000000000000000000000000000000000000000000000000000000000000000000000000000000000000000000000000000000000000000000000000000000000000000000000000000000000000000000000000000000000000000000000000000000000000000000000000000000000000000000000000000000008302000001830f424083061a808203e880a00d466edf79b4da40d94942ae7f8f8e4123f42793f7221086c748a3f341b357b3881463abe8436e9056f867f865800183061a8080830186a096600160016001600160016001600160012b60006000f31ca0579f9d34cc1486f59a197d885ca32c74e86dfbd8331e220b725e68725e4f3dd6a02594b462fe1fb505c01c7aa8cc2622dc95ec0e413360a7d04af9649f8b49b8ecc0",
                "transactions" : [
                    {
                        "data" : "0x600160016001600160016001600160012b60006000f3",
                        "gasLimit" : "0x061a80",
                        "gasPrice" : "0x01",
                        "nonce" : "0x00",
                        "r" : "0x579f9d34cc1486f59a197d885ca32c74e86dfbd8331e220b725e68725e4f3dd6",
                        "s" : "0x2594b462fe1fb505c01c7aa8cc2622dc95ec0e413360a7d04af9649f8b49b8ec",
                        "to" : "",
                        "v" : "0x1c",
                        "value" : "0x0186a0"
                    }
                ],
                "uncleHeaders" : [
                ]
            }
        ],
        "genesisBlockHeader" : {
            "bloom" : "0x00000000000000000000000000000000000000000000000000000000000000000000000000000000000000000000000000000000000000000000000000000000000000000000000000000000000000000000000000000000000000000000000000000000000000000000000000000000000000000000000000000000000000000000000000000000000000000000000000000000000000000000000000000000000000000000000000000000000000000000000000000000000000000000000000000000000000000000000000000000000000000000000000000000000000000000000000000000000000000000000000000000000000000000000000000000",
            "coinbase" : "0x2adc25665018aa1fe0e6bc666dac8fc2697ff9ba",
            "difficulty" : "0x020000",
            "extraData" : "0x42",
            "gasLimit" : "0x0f4240",
            "gasUsed" : "0x00",
            "hash" : "0x813a03e58564185e9a635f602e5f8da3ab602ac12b45b34e03aadbae561a9020",
            "mixHash" : "0x56e81f171bcc55a6ff8345e692c0f86e5b48e01b996cadc001622fb5e363b421",
            "nonce" : "0x0102030405060708",
            "number" : "0x00",
            "parentHash" : "0x0000000000000000000000000000000000000000000000000000000000000000",
            "receiptTrie" : "0x56e81f171bcc55a6ff8345e692c0f86e5b48e01b996cadc001622fb5e363b421",
            "stateRoot" : "0x517f2cdf6adb1a644878c390ffab4e130f1bed4b498ef7ce58c5addd98d61018",
            "timestamp" : "0x03b6",
            "transactionsTrie" : "0x56e81f171bcc55a6ff8345e692c0f86e5b48e01b996cadc001622fb5e363b421",
            "uncleHash" : "0x1dcc4de8dec75d7aab85b567b6ccd41ad312451b948a7413f0a142fd40d49347"
        },
        "genesisRLP" : "0xf901faf901f5a00000000000000000000000000000000000000000000000000000000000000000a01dcc4de8dec75d7aab85b567b6ccd41ad312451b948a7413f0a142fd40d49347942adc25665018aa1fe0e6bc666dac8fc2697ff9baa0517f2cdf6adb1a644878c390ffab4e130f1bed4b498ef7ce58c5addd98d61018a056e81f171bcc55a6ff8345e692c0f86e5b48e01b996cadc001622fb5e363b421a056e81f171bcc55a6ff8345e692c0f86e5b48e01b996cadc001622fb5e363b421b90100000000000000000000000000000000000000000000000000000000000000000000000000000000000000000000000000000000000000000000000000000000000000000000000000000000000000000000000000000000000000000000000000000000000000000000000000000000000000000000000000000000000000000000000000000000000000000000000000000000000000000000000000000000000000000000000000000000000000000000000000000000000000000000000000000000000000000000000000000000000000000000000000000000000000000000000000000000000000000000000000000000000000000000000000000000008302000080830f4240808203b642a056e81f171bcc55a6ff8345e692c0f86e5b48e01b996cadc001622fb5e363b421880102030405060708c0c0",
        "lastblockhash" : "0x6600119cd6727e4388969d9313df3f15cd849b9409006468959a6ea434a85dfd",
        "network" : "Constantinople",
        "postState" : {
            "0x2adc25665018aa1fe0e6bc666dac8fc2697ff9ba" : {
                "balance" : "0x29a2241af6321a80",
                "code" : "",
                "nonce" : "0x00",
                "storage" : {
                }
            },
            "0xa94f5374fce5edbc8e2a8697c15331677e6ebf0b" : {
                "balance" : "0x0de0b6b3a75de580",
                "code" : "",
                "nonce" : "0x01",
                "storage" : {
                }
            }
        },
        "pre" : {
            "0xa94f5374fce5edbc8e2a8697c15331677e6ebf0b" : {
                "balance" : "0x0de0b6b3a7640000",
                "code" : "",
                "nonce" : "0x00",
                "storage" : {
                }
            }
        }
    },
    "badOpcodes_d20g0v0_EIP150" : {
        "_info" : {
            "comment" : "",
            "filledwith" : "cpp-1.3.0+commit.9979b2bf.Linux.g++",
            "lllcversion" : "Version: 0.4.18-develop.2017.10.12+commit.0357cd72.Linux.g++",
            "source" : "src/BlockchainTestsFiller/GeneralStateTests/stBadOpcode/badOpcodes_d20g0v0Filler.json",
            "sourceHash" : "04c9dbe884d0dc59070ad53f09202acd162edee5470a6197cab00ee4f5f12da7"
        },
        "blocks" : [
            {
                "blockHeader" : {
                    "bloom" : "0x00000000000000000000000000000000000000000000000000000000000000000000000000000000000000000000000000000000000000000000000000000000000000000000000000000000000000000000000000000000000000000000000000000000000000000000000000000000000000000000000000000000000000000000000000000000000000000000000000000000000000000000000000000000000000000000000000000000000000000000000000000000000000000000000000000000000000000000000000000000000000000000000000000000000000000000000000000000000000000000000000000000000000000000000000000000",
                    "coinbase" : "0x2adc25665018aa1fe0e6bc666dac8fc2697ff9ba",
                    "difficulty" : "0x020000",
                    "extraData" : "",
                    "gasLimit" : "0x0f4240",
                    "gasUsed" : "0x061a80",
                    "hash" : "0x575eb08066bfe1094b81cb48ac7f165a54943417cc62e8061916eeb9bf029c05",
                    "mixHash" : "0x895b08804f14af2a1bc0bc4b2447d718ef047e00433d050faab322622d47e5fc",
                    "nonce" : "0x0a520eef4445b98d",
                    "number" : "0x01",
                    "parentHash" : "0x813a03e58564185e9a635f602e5f8da3ab602ac12b45b34e03aadbae561a9020",
                    "receiptTrie" : "0x54d1949a938a3648c080eee5c088a7d39c94d0bdb0285074e7b75ab6f7c98da1",
                    "stateRoot" : "0x6428b3140b024b4d06e9aea099f8584f0810b877e2225af4ec95fddc8e4d38ee",
                    "timestamp" : "0x03e8",
                    "transactionsTrie" : "0x50a801047ffb1ac3b3b937f049a0b6120eda548d06e2e71367603a82d7ec7f68",
                    "uncleHash" : "0x1dcc4de8dec75d7aab85b567b6ccd41ad312451b948a7413f0a142fd40d49347"
                },
                "rlp" : "0xf90265f901f8a0813a03e58564185e9a635f602e5f8da3ab602ac12b45b34e03aadbae561a9020a01dcc4de8dec75d7aab85b567b6ccd41ad312451b948a7413f0a142fd40d49347942adc25665018aa1fe0e6bc666dac8fc2697ff9baa06428b3140b024b4d06e9aea099f8584f0810b877e2225af4ec95fddc8e4d38eea050a801047ffb1ac3b3b937f049a0b6120eda548d06e2e71367603a82d7ec7f68a054d1949a938a3648c080eee5c088a7d39c94d0bdb0285074e7b75ab6f7c98da1b90100000000000000000000000000000000000000000000000000000000000000000000000000000000000000000000000000000000000000000000000000000000000000000000000000000000000000000000000000000000000000000000000000000000000000000000000000000000000000000000000000000000000000000000000000000000000000000000000000000000000000000000000000000000000000000000000000000000000000000000000000000000000000000000000000000000000000000000000000000000000000000000000000000000000000000000000000000000000000000000000000000000000000000000000000000000008302000001830f424083061a808203e880a0895b08804f14af2a1bc0bc4b2447d718ef047e00433d050faab322622d47e5fc880a520eef4445b98df867f865800183061a8080830186a096600160016001600160016001600160012b60006000f31ca0579f9d34cc1486f59a197d885ca32c74e86dfbd8331e220b725e68725e4f3dd6a02594b462fe1fb505c01c7aa8cc2622dc95ec0e413360a7d04af9649f8b49b8ecc0",
                "transactions" : [
                    {
                        "data" : "0x600160016001600160016001600160012b60006000f3",
                        "gasLimit" : "0x061a80",
                        "gasPrice" : "0x01",
                        "nonce" : "0x00",
                        "r" : "0x579f9d34cc1486f59a197d885ca32c74e86dfbd8331e220b725e68725e4f3dd6",
                        "s" : "0x2594b462fe1fb505c01c7aa8cc2622dc95ec0e413360a7d04af9649f8b49b8ec",
                        "to" : "",
                        "v" : "0x1c",
                        "value" : "0x0186a0"
                    }
                ],
                "uncleHeaders" : [
                ]
            }
        ],
        "genesisBlockHeader" : {
            "bloom" : "0x00000000000000000000000000000000000000000000000000000000000000000000000000000000000000000000000000000000000000000000000000000000000000000000000000000000000000000000000000000000000000000000000000000000000000000000000000000000000000000000000000000000000000000000000000000000000000000000000000000000000000000000000000000000000000000000000000000000000000000000000000000000000000000000000000000000000000000000000000000000000000000000000000000000000000000000000000000000000000000000000000000000000000000000000000000000",
            "coinbase" : "0x2adc25665018aa1fe0e6bc666dac8fc2697ff9ba",
            "difficulty" : "0x020000",
            "extraData" : "0x42",
            "gasLimit" : "0x0f4240",
            "gasUsed" : "0x00",
            "hash" : "0x813a03e58564185e9a635f602e5f8da3ab602ac12b45b34e03aadbae561a9020",
            "mixHash" : "0x56e81f171bcc55a6ff8345e692c0f86e5b48e01b996cadc001622fb5e363b421",
            "nonce" : "0x0102030405060708",
            "number" : "0x00",
            "parentHash" : "0x0000000000000000000000000000000000000000000000000000000000000000",
            "receiptTrie" : "0x56e81f171bcc55a6ff8345e692c0f86e5b48e01b996cadc001622fb5e363b421",
            "stateRoot" : "0x517f2cdf6adb1a644878c390ffab4e130f1bed4b498ef7ce58c5addd98d61018",
            "timestamp" : "0x03b6",
            "transactionsTrie" : "0x56e81f171bcc55a6ff8345e692c0f86e5b48e01b996cadc001622fb5e363b421",
            "uncleHash" : "0x1dcc4de8dec75d7aab85b567b6ccd41ad312451b948a7413f0a142fd40d49347"
        },
        "genesisRLP" : "0xf901faf901f5a00000000000000000000000000000000000000000000000000000000000000000a01dcc4de8dec75d7aab85b567b6ccd41ad312451b948a7413f0a142fd40d49347942adc25665018aa1fe0e6bc666dac8fc2697ff9baa0517f2cdf6adb1a644878c390ffab4e130f1bed4b498ef7ce58c5addd98d61018a056e81f171bcc55a6ff8345e692c0f86e5b48e01b996cadc001622fb5e363b421a056e81f171bcc55a6ff8345e692c0f86e5b48e01b996cadc001622fb5e363b421b90100000000000000000000000000000000000000000000000000000000000000000000000000000000000000000000000000000000000000000000000000000000000000000000000000000000000000000000000000000000000000000000000000000000000000000000000000000000000000000000000000000000000000000000000000000000000000000000000000000000000000000000000000000000000000000000000000000000000000000000000000000000000000000000000000000000000000000000000000000000000000000000000000000000000000000000000000000000000000000000000000000000000000000000000000000000008302000080830f4240808203b642a056e81f171bcc55a6ff8345e692c0f86e5b48e01b996cadc001622fb5e363b421880102030405060708c0c0",
        "lastblockhash" : "0x575eb08066bfe1094b81cb48ac7f165a54943417cc62e8061916eeb9bf029c05",
        "network" : "EIP150",
        "postState" : {
            "0x2adc25665018aa1fe0e6bc666dac8fc2697ff9ba" : {
                "balance" : "0x4563918244fa1a80",
                "code" : "",
                "nonce" : "0x00",
                "storage" : {
                }
            },
            "0xa94f5374fce5edbc8e2a8697c15331677e6ebf0b" : {
                "balance" : "0x0de0b6b3a75de580",
                "code" : "",
                "nonce" : "0x01",
                "storage" : {
                }
            }
        },
        "pre" : {
            "0xa94f5374fce5edbc8e2a8697c15331677e6ebf0b" : {
                "balance" : "0x0de0b6b3a7640000",
                "code" : "",
                "nonce" : "0x00",
                "storage" : {
                }
            }
        }
    },
    "badOpcodes_d20g0v0_EIP158" : {
        "_info" : {
            "comment" : "",
            "filledwith" : "cpp-1.3.0+commit.9979b2bf.Linux.g++",
            "lllcversion" : "Version: 0.4.18-develop.2017.10.12+commit.0357cd72.Linux.g++",
            "source" : "src/BlockchainTestsFiller/GeneralStateTests/stBadOpcode/badOpcodes_d20g0v0Filler.json",
            "sourceHash" : "04c9dbe884d0dc59070ad53f09202acd162edee5470a6197cab00ee4f5f12da7"
        },
        "blocks" : [
            {
                "blockHeader" : {
                    "bloom" : "0x00000000000000000000000000000000000000000000000000000000000000000000000000000000000000000000000000000000000000000000000000000000000000000000000000000000000000000000000000000000000000000000000000000000000000000000000000000000000000000000000000000000000000000000000000000000000000000000000000000000000000000000000000000000000000000000000000000000000000000000000000000000000000000000000000000000000000000000000000000000000000000000000000000000000000000000000000000000000000000000000000000000000000000000000000000000",
                    "coinbase" : "0x2adc25665018aa1fe0e6bc666dac8fc2697ff9ba",
                    "difficulty" : "0x020000",
                    "extraData" : "",
                    "gasLimit" : "0x0f4240",
                    "gasUsed" : "0x061a80",
                    "hash" : "0x77f71914550b6b94ff5b0af4f83fa5f9863635c3eb558e2f2351b54d43ef2d33",
                    "mixHash" : "0xa2d5e0500995a794234e83117062e75e85b4acab8f088713312efe43d799bb3c",
                    "nonce" : "0x347f59c284abab9a",
                    "number" : "0x01",
                    "parentHash" : "0x813a03e58564185e9a635f602e5f8da3ab602ac12b45b34e03aadbae561a9020",
                    "receiptTrie" : "0x54d1949a938a3648c080eee5c088a7d39c94d0bdb0285074e7b75ab6f7c98da1",
                    "stateRoot" : "0x6428b3140b024b4d06e9aea099f8584f0810b877e2225af4ec95fddc8e4d38ee",
                    "timestamp" : "0x03e8",
                    "transactionsTrie" : "0x50a801047ffb1ac3b3b937f049a0b6120eda548d06e2e71367603a82d7ec7f68",
                    "uncleHash" : "0x1dcc4de8dec75d7aab85b567b6ccd41ad312451b948a7413f0a142fd40d49347"
                },
                "rlp" : "0xf90265f901f8a0813a03e58564185e9a635f602e5f8da3ab602ac12b45b34e03aadbae561a9020a01dcc4de8dec75d7aab85b567b6ccd41ad312451b948a7413f0a142fd40d49347942adc25665018aa1fe0e6bc666dac8fc2697ff9baa06428b3140b024b4d06e9aea099f8584f0810b877e2225af4ec95fddc8e4d38eea050a801047ffb1ac3b3b937f049a0b6120eda548d06e2e71367603a82d7ec7f68a054d1949a938a3648c080eee5c088a7d39c94d0bdb0285074e7b75ab6f7c98da1b90100000000000000000000000000000000000000000000000000000000000000000000000000000000000000000000000000000000000000000000000000000000000000000000000000000000000000000000000000000000000000000000000000000000000000000000000000000000000000000000000000000000000000000000000000000000000000000000000000000000000000000000000000000000000000000000000000000000000000000000000000000000000000000000000000000000000000000000000000000000000000000000000000000000000000000000000000000000000000000000000000000000000000000000000000000000008302000001830f424083061a808203e880a0a2d5e0500995a794234e83117062e75e85b4acab8f088713312efe43d799bb3c88347f59c284abab9af867f865800183061a8080830186a096600160016001600160016001600160012b60006000f31ca0579f9d34cc1486f59a197d885ca32c74e86dfbd8331e220b725e68725e4f3dd6a02594b462fe1fb505c01c7aa8cc2622dc95ec0e413360a7d04af9649f8b49b8ecc0",
                "transactions" : [
                    {
                        "data" : "0x600160016001600160016001600160012b60006000f3",
                        "gasLimit" : "0x061a80",
                        "gasPrice" : "0x01",
                        "nonce" : "0x00",
                        "r" : "0x579f9d34cc1486f59a197d885ca32c74e86dfbd8331e220b725e68725e4f3dd6",
                        "s" : "0x2594b462fe1fb505c01c7aa8cc2622dc95ec0e413360a7d04af9649f8b49b8ec",
                        "to" : "",
                        "v" : "0x1c",
                        "value" : "0x0186a0"
                    }
                ],
                "uncleHeaders" : [
                ]
            }
        ],
        "genesisBlockHeader" : {
            "bloom" : "0x00000000000000000000000000000000000000000000000000000000000000000000000000000000000000000000000000000000000000000000000000000000000000000000000000000000000000000000000000000000000000000000000000000000000000000000000000000000000000000000000000000000000000000000000000000000000000000000000000000000000000000000000000000000000000000000000000000000000000000000000000000000000000000000000000000000000000000000000000000000000000000000000000000000000000000000000000000000000000000000000000000000000000000000000000000000",
            "coinbase" : "0x2adc25665018aa1fe0e6bc666dac8fc2697ff9ba",
            "difficulty" : "0x020000",
            "extraData" : "0x42",
            "gasLimit" : "0x0f4240",
            "gasUsed" : "0x00",
            "hash" : "0x813a03e58564185e9a635f602e5f8da3ab602ac12b45b34e03aadbae561a9020",
            "mixHash" : "0x56e81f171bcc55a6ff8345e692c0f86e5b48e01b996cadc001622fb5e363b421",
            "nonce" : "0x0102030405060708",
            "number" : "0x00",
            "parentHash" : "0x0000000000000000000000000000000000000000000000000000000000000000",
            "receiptTrie" : "0x56e81f171bcc55a6ff8345e692c0f86e5b48e01b996cadc001622fb5e363b421",
            "stateRoot" : "0x517f2cdf6adb1a644878c390ffab4e130f1bed4b498ef7ce58c5addd98d61018",
            "timestamp" : "0x03b6",
            "transactionsTrie" : "0x56e81f171bcc55a6ff8345e692c0f86e5b48e01b996cadc001622fb5e363b421",
            "uncleHash" : "0x1dcc4de8dec75d7aab85b567b6ccd41ad312451b948a7413f0a142fd40d49347"
        },
        "genesisRLP" : "0xf901faf901f5a00000000000000000000000000000000000000000000000000000000000000000a01dcc4de8dec75d7aab85b567b6ccd41ad312451b948a7413f0a142fd40d49347942adc25665018aa1fe0e6bc666dac8fc2697ff9baa0517f2cdf6adb1a644878c390ffab4e130f1bed4b498ef7ce58c5addd98d61018a056e81f171bcc55a6ff8345e692c0f86e5b48e01b996cadc001622fb5e363b421a056e81f171bcc55a6ff8345e692c0f86e5b48e01b996cadc001622fb5e363b421b90100000000000000000000000000000000000000000000000000000000000000000000000000000000000000000000000000000000000000000000000000000000000000000000000000000000000000000000000000000000000000000000000000000000000000000000000000000000000000000000000000000000000000000000000000000000000000000000000000000000000000000000000000000000000000000000000000000000000000000000000000000000000000000000000000000000000000000000000000000000000000000000000000000000000000000000000000000000000000000000000000000000000000000000000000000000008302000080830f4240808203b642a056e81f171bcc55a6ff8345e692c0f86e5b48e01b996cadc001622fb5e363b421880102030405060708c0c0",
        "lastblockhash" : "0x77f71914550b6b94ff5b0af4f83fa5f9863635c3eb558e2f2351b54d43ef2d33",
        "network" : "EIP158",
        "postState" : {
            "0x2adc25665018aa1fe0e6bc666dac8fc2697ff9ba" : {
                "balance" : "0x4563918244fa1a80",
                "code" : "",
                "nonce" : "0x00",
                "storage" : {
                }
            },
            "0xa94f5374fce5edbc8e2a8697c15331677e6ebf0b" : {
                "balance" : "0x0de0b6b3a75de580",
                "code" : "",
                "nonce" : "0x01",
                "storage" : {
                }
            }
        },
        "pre" : {
            "0xa94f5374fce5edbc8e2a8697c15331677e6ebf0b" : {
                "balance" : "0x0de0b6b3a7640000",
                "code" : "",
                "nonce" : "0x00",
                "storage" : {
                }
            }
        }
    },
    "badOpcodes_d20g0v0_Frontier" : {
        "_info" : {
            "comment" : "",
            "filledwith" : "cpp-1.3.0+commit.9979b2bf.Linux.g++",
            "lllcversion" : "Version: 0.4.18-develop.2017.10.12+commit.0357cd72.Linux.g++",
            "source" : "src/BlockchainTestsFiller/GeneralStateTests/stBadOpcode/badOpcodes_d20g0v0Filler.json",
            "sourceHash" : "04c9dbe884d0dc59070ad53f09202acd162edee5470a6197cab00ee4f5f12da7"
        },
        "blocks" : [
            {
                "blockHeader" : {
                    "bloom" : "0x00000000000000000000000000000000000000000000000000000000000000000000000000000000000000000000000000000000000000000000000000000000000000000000000000000000000000000000000000000000000000000000000000000000000000000000000000000000000000000000000000000000000000000000000000000000000000000000000000000000000000000000000000000000000000000000000000000000000000000000000000000000000000000000000000000000000000000000000000000000000000000000000000000000000000000000000000000000000000000000000000000000000000000000000000000000",
                    "coinbase" : "0x2adc25665018aa1fe0e6bc666dac8fc2697ff9ba",
                    "difficulty" : "0x020000",
                    "extraData" : "",
                    "gasLimit" : "0x0f4240",
                    "gasUsed" : "0x061a80",
                    "hash" : "0x264ca3a49d3a10502b166742cd8bcafad7d5ef296c68d16dec71c4059b425da2",
                    "mixHash" : "0x3270ceef8120c1cd729fcefa1f87152471544d065be0e1776b1950d712eb5688",
                    "nonce" : "0x194562a0c4406b66",
                    "number" : "0x01",
                    "parentHash" : "0x813a03e58564185e9a635f602e5f8da3ab602ac12b45b34e03aadbae561a9020",
                    "receiptTrie" : "0x54d1949a938a3648c080eee5c088a7d39c94d0bdb0285074e7b75ab6f7c98da1",
                    "stateRoot" : "0x6428b3140b024b4d06e9aea099f8584f0810b877e2225af4ec95fddc8e4d38ee",
                    "timestamp" : "0x03e8",
                    "transactionsTrie" : "0x50a801047ffb1ac3b3b937f049a0b6120eda548d06e2e71367603a82d7ec7f68",
                    "uncleHash" : "0x1dcc4de8dec75d7aab85b567b6ccd41ad312451b948a7413f0a142fd40d49347"
                },
                "rlp" : "0xf90265f901f8a0813a03e58564185e9a635f602e5f8da3ab602ac12b45b34e03aadbae561a9020a01dcc4de8dec75d7aab85b567b6ccd41ad312451b948a7413f0a142fd40d49347942adc25665018aa1fe0e6bc666dac8fc2697ff9baa06428b3140b024b4d06e9aea099f8584f0810b877e2225af4ec95fddc8e4d38eea050a801047ffb1ac3b3b937f049a0b6120eda548d06e2e71367603a82d7ec7f68a054d1949a938a3648c080eee5c088a7d39c94d0bdb0285074e7b75ab6f7c98da1b90100000000000000000000000000000000000000000000000000000000000000000000000000000000000000000000000000000000000000000000000000000000000000000000000000000000000000000000000000000000000000000000000000000000000000000000000000000000000000000000000000000000000000000000000000000000000000000000000000000000000000000000000000000000000000000000000000000000000000000000000000000000000000000000000000000000000000000000000000000000000000000000000000000000000000000000000000000000000000000000000000000000000000000000000000000000008302000001830f424083061a808203e880a03270ceef8120c1cd729fcefa1f87152471544d065be0e1776b1950d712eb568888194562a0c4406b66f867f865800183061a8080830186a096600160016001600160016001600160012b60006000f31ca0579f9d34cc1486f59a197d885ca32c74e86dfbd8331e220b725e68725e4f3dd6a02594b462fe1fb505c01c7aa8cc2622dc95ec0e413360a7d04af9649f8b49b8ecc0",
                "transactions" : [
                    {
                        "data" : "0x600160016001600160016001600160012b60006000f3",
                        "gasLimit" : "0x061a80",
                        "gasPrice" : "0x01",
                        "nonce" : "0x00",
                        "r" : "0x579f9d34cc1486f59a197d885ca32c74e86dfbd8331e220b725e68725e4f3dd6",
                        "s" : "0x2594b462fe1fb505c01c7aa8cc2622dc95ec0e413360a7d04af9649f8b49b8ec",
                        "to" : "",
                        "v" : "0x1c",
                        "value" : "0x0186a0"
                    }
                ],
                "uncleHeaders" : [
                ]
            }
        ],
        "genesisBlockHeader" : {
            "bloom" : "0x00000000000000000000000000000000000000000000000000000000000000000000000000000000000000000000000000000000000000000000000000000000000000000000000000000000000000000000000000000000000000000000000000000000000000000000000000000000000000000000000000000000000000000000000000000000000000000000000000000000000000000000000000000000000000000000000000000000000000000000000000000000000000000000000000000000000000000000000000000000000000000000000000000000000000000000000000000000000000000000000000000000000000000000000000000000",
            "coinbase" : "0x2adc25665018aa1fe0e6bc666dac8fc2697ff9ba",
            "difficulty" : "0x020000",
            "extraData" : "0x42",
            "gasLimit" : "0x0f4240",
            "gasUsed" : "0x00",
            "hash" : "0x813a03e58564185e9a635f602e5f8da3ab602ac12b45b34e03aadbae561a9020",
            "mixHash" : "0x56e81f171bcc55a6ff8345e692c0f86e5b48e01b996cadc001622fb5e363b421",
            "nonce" : "0x0102030405060708",
            "number" : "0x00",
            "parentHash" : "0x0000000000000000000000000000000000000000000000000000000000000000",
            "receiptTrie" : "0x56e81f171bcc55a6ff8345e692c0f86e5b48e01b996cadc001622fb5e363b421",
            "stateRoot" : "0x517f2cdf6adb1a644878c390ffab4e130f1bed4b498ef7ce58c5addd98d61018",
            "timestamp" : "0x03b6",
            "transactionsTrie" : "0x56e81f171bcc55a6ff8345e692c0f86e5b48e01b996cadc001622fb5e363b421",
            "uncleHash" : "0x1dcc4de8dec75d7aab85b567b6ccd41ad312451b948a7413f0a142fd40d49347"
        },
        "genesisRLP" : "0xf901faf901f5a00000000000000000000000000000000000000000000000000000000000000000a01dcc4de8dec75d7aab85b567b6ccd41ad312451b948a7413f0a142fd40d49347942adc25665018aa1fe0e6bc666dac8fc2697ff9baa0517f2cdf6adb1a644878c390ffab4e130f1bed4b498ef7ce58c5addd98d61018a056e81f171bcc55a6ff8345e692c0f86e5b48e01b996cadc001622fb5e363b421a056e81f171bcc55a6ff8345e692c0f86e5b48e01b996cadc001622fb5e363b421b90100000000000000000000000000000000000000000000000000000000000000000000000000000000000000000000000000000000000000000000000000000000000000000000000000000000000000000000000000000000000000000000000000000000000000000000000000000000000000000000000000000000000000000000000000000000000000000000000000000000000000000000000000000000000000000000000000000000000000000000000000000000000000000000000000000000000000000000000000000000000000000000000000000000000000000000000000000000000000000000000000000000000000000000000000000000008302000080830f4240808203b642a056e81f171bcc55a6ff8345e692c0f86e5b48e01b996cadc001622fb5e363b421880102030405060708c0c0",
        "lastblockhash" : "0x264ca3a49d3a10502b166742cd8bcafad7d5ef296c68d16dec71c4059b425da2",
        "network" : "Frontier",
        "postState" : {
            "0x2adc25665018aa1fe0e6bc666dac8fc2697ff9ba" : {
                "balance" : "0x4563918244fa1a80",
                "code" : "",
                "nonce" : "0x00",
                "storage" : {
                }
            },
            "0xa94f5374fce5edbc8e2a8697c15331677e6ebf0b" : {
                "balance" : "0x0de0b6b3a75de580",
                "code" : "",
                "nonce" : "0x01",
                "storage" : {
                }
            }
        },
        "pre" : {
            "0xa94f5374fce5edbc8e2a8697c15331677e6ebf0b" : {
                "balance" : "0x0de0b6b3a7640000",
                "code" : "",
                "nonce" : "0x00",
                "storage" : {
                }
            }
        }
    },
    "badOpcodes_d20g0v0_Homestead" : {
        "_info" : {
            "comment" : "",
            "filledwith" : "cpp-1.3.0+commit.9979b2bf.Linux.g++",
            "lllcversion" : "Version: 0.4.18-develop.2017.10.12+commit.0357cd72.Linux.g++",
            "source" : "src/BlockchainTestsFiller/GeneralStateTests/stBadOpcode/badOpcodes_d20g0v0Filler.json",
            "sourceHash" : "04c9dbe884d0dc59070ad53f09202acd162edee5470a6197cab00ee4f5f12da7"
        },
        "blocks" : [
            {
                "blockHeader" : {
                    "bloom" : "0x00000000000000000000000000000000000000000000000000000000000000000000000000000000000000000000000000000000000000000000000000000000000000000000000000000000000000000000000000000000000000000000000000000000000000000000000000000000000000000000000000000000000000000000000000000000000000000000000000000000000000000000000000000000000000000000000000000000000000000000000000000000000000000000000000000000000000000000000000000000000000000000000000000000000000000000000000000000000000000000000000000000000000000000000000000000",
                    "coinbase" : "0x2adc25665018aa1fe0e6bc666dac8fc2697ff9ba",
                    "difficulty" : "0x020000",
                    "extraData" : "",
                    "gasLimit" : "0x0f4240",
                    "gasUsed" : "0x061a80",
                    "hash" : "0x5c223378fd39b1453cab68fe6241cf15c9ccf19653d3e3e5486ef1e919131acc",
                    "mixHash" : "0x246c7c104c688689d41b3482092f3d26824e7b0b4464ff1bb980929cbe4d05f9",
                    "nonce" : "0x8415e4edf33078db",
                    "number" : "0x01",
                    "parentHash" : "0x813a03e58564185e9a635f602e5f8da3ab602ac12b45b34e03aadbae561a9020",
                    "receiptTrie" : "0x54d1949a938a3648c080eee5c088a7d39c94d0bdb0285074e7b75ab6f7c98da1",
                    "stateRoot" : "0x6428b3140b024b4d06e9aea099f8584f0810b877e2225af4ec95fddc8e4d38ee",
                    "timestamp" : "0x03e8",
                    "transactionsTrie" : "0x50a801047ffb1ac3b3b937f049a0b6120eda548d06e2e71367603a82d7ec7f68",
                    "uncleHash" : "0x1dcc4de8dec75d7aab85b567b6ccd41ad312451b948a7413f0a142fd40d49347"
                },
                "rlp" : "0xf90265f901f8a0813a03e58564185e9a635f602e5f8da3ab602ac12b45b34e03aadbae561a9020a01dcc4de8dec75d7aab85b567b6ccd41ad312451b948a7413f0a142fd40d49347942adc25665018aa1fe0e6bc666dac8fc2697ff9baa06428b3140b024b4d06e9aea099f8584f0810b877e2225af4ec95fddc8e4d38eea050a801047ffb1ac3b3b937f049a0b6120eda548d06e2e71367603a82d7ec7f68a054d1949a938a3648c080eee5c088a7d39c94d0bdb0285074e7b75ab6f7c98da1b90100000000000000000000000000000000000000000000000000000000000000000000000000000000000000000000000000000000000000000000000000000000000000000000000000000000000000000000000000000000000000000000000000000000000000000000000000000000000000000000000000000000000000000000000000000000000000000000000000000000000000000000000000000000000000000000000000000000000000000000000000000000000000000000000000000000000000000000000000000000000000000000000000000000000000000000000000000000000000000000000000000000000000000000000000000000008302000001830f424083061a808203e880a0246c7c104c688689d41b3482092f3d26824e7b0b4464ff1bb980929cbe4d05f9888415e4edf33078dbf867f865800183061a8080830186a096600160016001600160016001600160012b60006000f31ca0579f9d34cc1486f59a197d885ca32c74e86dfbd8331e220b725e68725e4f3dd6a02594b462fe1fb505c01c7aa8cc2622dc95ec0e413360a7d04af9649f8b49b8ecc0",
                "transactions" : [
                    {
                        "data" : "0x600160016001600160016001600160012b60006000f3",
                        "gasLimit" : "0x061a80",
                        "gasPrice" : "0x01",
                        "nonce" : "0x00",
                        "r" : "0x579f9d34cc1486f59a197d885ca32c74e86dfbd8331e220b725e68725e4f3dd6",
                        "s" : "0x2594b462fe1fb505c01c7aa8cc2622dc95ec0e413360a7d04af9649f8b49b8ec",
                        "to" : "",
                        "v" : "0x1c",
                        "value" : "0x0186a0"
                    }
                ],
                "uncleHeaders" : [
                ]
            }
        ],
        "genesisBlockHeader" : {
            "bloom" : "0x00000000000000000000000000000000000000000000000000000000000000000000000000000000000000000000000000000000000000000000000000000000000000000000000000000000000000000000000000000000000000000000000000000000000000000000000000000000000000000000000000000000000000000000000000000000000000000000000000000000000000000000000000000000000000000000000000000000000000000000000000000000000000000000000000000000000000000000000000000000000000000000000000000000000000000000000000000000000000000000000000000000000000000000000000000000",
            "coinbase" : "0x2adc25665018aa1fe0e6bc666dac8fc2697ff9ba",
            "difficulty" : "0x020000",
            "extraData" : "0x42",
            "gasLimit" : "0x0f4240",
            "gasUsed" : "0x00",
            "hash" : "0x813a03e58564185e9a635f602e5f8da3ab602ac12b45b34e03aadbae561a9020",
            "mixHash" : "0x56e81f171bcc55a6ff8345e692c0f86e5b48e01b996cadc001622fb5e363b421",
            "nonce" : "0x0102030405060708",
            "number" : "0x00",
            "parentHash" : "0x0000000000000000000000000000000000000000000000000000000000000000",
            "receiptTrie" : "0x56e81f171bcc55a6ff8345e692c0f86e5b48e01b996cadc001622fb5e363b421",
            "stateRoot" : "0x517f2cdf6adb1a644878c390ffab4e130f1bed4b498ef7ce58c5addd98d61018",
            "timestamp" : "0x03b6",
            "transactionsTrie" : "0x56e81f171bcc55a6ff8345e692c0f86e5b48e01b996cadc001622fb5e363b421",
            "uncleHash" : "0x1dcc4de8dec75d7aab85b567b6ccd41ad312451b948a7413f0a142fd40d49347"
        },
        "genesisRLP" : "0xf901faf901f5a00000000000000000000000000000000000000000000000000000000000000000a01dcc4de8dec75d7aab85b567b6ccd41ad312451b948a7413f0a142fd40d49347942adc25665018aa1fe0e6bc666dac8fc2697ff9baa0517f2cdf6adb1a644878c390ffab4e130f1bed4b498ef7ce58c5addd98d61018a056e81f171bcc55a6ff8345e692c0f86e5b48e01b996cadc001622fb5e363b421a056e81f171bcc55a6ff8345e692c0f86e5b48e01b996cadc001622fb5e363b421b90100000000000000000000000000000000000000000000000000000000000000000000000000000000000000000000000000000000000000000000000000000000000000000000000000000000000000000000000000000000000000000000000000000000000000000000000000000000000000000000000000000000000000000000000000000000000000000000000000000000000000000000000000000000000000000000000000000000000000000000000000000000000000000000000000000000000000000000000000000000000000000000000000000000000000000000000000000000000000000000000000000000000000000000000000000000008302000080830f4240808203b642a056e81f171bcc55a6ff8345e692c0f86e5b48e01b996cadc001622fb5e363b421880102030405060708c0c0",
        "lastblockhash" : "0x5c223378fd39b1453cab68fe6241cf15c9ccf19653d3e3e5486ef1e919131acc",
        "network" : "Homestead",
        "postState" : {
            "0x2adc25665018aa1fe0e6bc666dac8fc2697ff9ba" : {
                "balance" : "0x4563918244fa1a80",
                "code" : "",
                "nonce" : "0x00",
                "storage" : {
                }
            },
            "0xa94f5374fce5edbc8e2a8697c15331677e6ebf0b" : {
                "balance" : "0x0de0b6b3a75de580",
                "code" : "",
                "nonce" : "0x01",
                "storage" : {
                }
            }
        },
        "pre" : {
            "0xa94f5374fce5edbc8e2a8697c15331677e6ebf0b" : {
                "balance" : "0x0de0b6b3a7640000",
                "code" : "",
                "nonce" : "0x00",
                "storage" : {
                }
            }
        }
    }
}