{
    "Call50000_identity_d0g1v0_Byzantium" : {
        "_info" : {
            "comment" : "",
            "filledwith" : "cpp-1.3.0+commit.6e0ce939.Linux.g++",
            "lllcversion" : "Version: 0.4.18-develop.2017.9.25+commit.a72237f2.Linux.g++",
            "source" : "src/BlockchainTestsFiller/GeneralStateTests/stQuadraticComplexityTest/Call50000_identity_d0g1v0Filler.json",
            "sourceHash" : "ef985b94370cf77e39af83d4816ccf80e3af3959faf4a699a3b5d9b83e55aced"
        },
        "blocks" : [
            {
                "blockHeader" : {
                    "bloom" : "0x00000000000000000000000000000000000000000000000000000000000000000000000000000000000000000000000000000000000000000000000000000000000000000000000000000000000000000000000000000000000000000000000000000000000000000000000000000000000000000000000000000000000000000000000000000000000000000000000000000000000000000000000000000000000000000000000000000000000000000000000000000000000000000000000000000000000000000000000000000000000000000000000000000000000000000000000000000000000000000000000000000000000000000000000000000000",
                    "coinbase" : "0xb94f5374fce5edbc8e2a8697c15331677e6ebf0b",
                    "difficulty" : "0x020000",
                    "extraData" : "",
                    "gasLimit" : "0x3499e1a0",
                    "gasUsed" : "0x0ee6b280",
                    "hash" : "0x21d2156565a55267d9db595b16ef491829ffda300a5a70b88294526c53ba2442",
                    "mixHash" : "0x647a3f31379924f74f5362af15ef7ae30f58d0f73fb3f88f82d7a3e4d2e4dd15",
                    "nonce" : "0xa22331a55a5c8981",
                    "number" : "0x01",
                    "parentHash" : "0x702696c11f4fcf711f40fa08cbc9bde2ea49e55678d7eb5f8b2f932837ecf154",
                    "receiptTrie" : "0x27408083641cf20cfde86cd87cd57bf10c741d7553352ca96118e31ab8ceb9ce",
                    "stateRoot" : "0x78ec3690cac2d06dfb146f533e992695ab611e51ebfae32a15a122d989927bb2",
                    "timestamp" : "0x03e8",
                    "transactionsTrie" : "0x11d570905f32c46c526a712794d2d4a5e35176ac6de48c8328c5ffe7aaeb10e8",
                    "uncleHash" : "0x1dcc4de8dec75d7aab85b567b6ccd41ad312451b948a7413f0a142fd40d49347"
                },
                "rlp" : "0xf90263f901faa0702696c11f4fcf711f40fa08cbc9bde2ea49e55678d7eb5f8b2f932837ecf154a01dcc4de8dec75d7aab85b567b6ccd41ad312451b948a7413f0a142fd40d4934794b94f5374fce5edbc8e2a8697c15331677e6ebf0ba078ec3690cac2d06dfb146f533e992695ab611e51ebfae32a15a122d989927bb2a011d570905f32c46c526a712794d2d4a5e35176ac6de48c8328c5ffe7aaeb10e8a027408083641cf20cfde86cd87cd57bf10c741d7553352ca96118e31ab8ceb9ceb90100000000000000000000000000000000000000000000000000000000000000000000000000000000000000000000000000000000000000000000000000000000000000000000000000000000000000000000000000000000000000000000000000000000000000000000000000000000000000000000000000000000000000000000000000000000000000000000000000000000000000000000000000000000000000000000000000000000000000000000000000000000000000000000000000000000000000000000000000000000000000000000000000000000000000000000000000000000000000000000000000000000000000000000000000000000008302000001843499e1a0840ee6b2808203e880a0647a3f31379924f74f5362af15ef7ae30f58d0f73fb3f88f82d7a3e4d2e4dd1588a22331a55a5c8981f863f8618001840ee6b28094bbbf5374fce5edbc8e2a8697c15331677e6ebf0b0a801ca059a4b49695baa04705375b29fcf0cfc663d0c3da6c748b0a1f6cab3158c4ff37a05b8cf80c815cb88b89b4e36f05acf96449cf50a69119f5a5b206d80cee938c69c0",
                "transactions" : [
                    {
                        "data" : "",
                        "gasLimit" : "0x0ee6b280",
                        "gasPrice" : "0x01",
                        "nonce" : "0x00",
                        "r" : "0x59a4b49695baa04705375b29fcf0cfc663d0c3da6c748b0a1f6cab3158c4ff37",
                        "s" : "0x5b8cf80c815cb88b89b4e36f05acf96449cf50a69119f5a5b206d80cee938c69",
                        "to" : "0xbbbf5374fce5edbc8e2a8697c15331677e6ebf0b",
                        "v" : "0x1c",
                        "value" : "0x0a"
                    }
                ],
                "uncleHeaders" : [
                ]
            }
        ],
        "genesisBlockHeader" : {
            "bloom" : "0x00000000000000000000000000000000000000000000000000000000000000000000000000000000000000000000000000000000000000000000000000000000000000000000000000000000000000000000000000000000000000000000000000000000000000000000000000000000000000000000000000000000000000000000000000000000000000000000000000000000000000000000000000000000000000000000000000000000000000000000000000000000000000000000000000000000000000000000000000000000000000000000000000000000000000000000000000000000000000000000000000000000000000000000000000000000",
            "coinbase" : "0xb94f5374fce5edbc8e2a8697c15331677e6ebf0b",
            "difficulty" : "0x020000",
            "extraData" : "0x42",
            "gasLimit" : "0x3499e1a0",
            "gasUsed" : "0x00",
            "hash" : "0x702696c11f4fcf711f40fa08cbc9bde2ea49e55678d7eb5f8b2f932837ecf154",
            "mixHash" : "0x56e81f171bcc55a6ff8345e692c0f86e5b48e01b996cadc001622fb5e363b421",
            "nonce" : "0x0102030405060708",
            "number" : "0x00",
            "parentHash" : "0x0000000000000000000000000000000000000000000000000000000000000000",
            "receiptTrie" : "0x56e81f171bcc55a6ff8345e692c0f86e5b48e01b996cadc001622fb5e363b421",
            "stateRoot" : "0x87dae272e0fb5acf46804370f198309c1e23ea0ee2d59100d2acc80481d78b01",
            "timestamp" : "0x03b6",
            "transactionsTrie" : "0x56e81f171bcc55a6ff8345e692c0f86e5b48e01b996cadc001622fb5e363b421",
            "uncleHash" : "0x1dcc4de8dec75d7aab85b567b6ccd41ad312451b948a7413f0a142fd40d49347"
        },
        "genesisRLP" : "0xf901fbf901f6a00000000000000000000000000000000000000000000000000000000000000000a01dcc4de8dec75d7aab85b567b6ccd41ad312451b948a7413f0a142fd40d4934794b94f5374fce5edbc8e2a8697c15331677e6ebf0ba087dae272e0fb5acf46804370f198309c1e23ea0ee2d59100d2acc80481d78b01a056e81f171bcc55a6ff8345e692c0f86e5b48e01b996cadc001622fb5e363b421a056e81f171bcc55a6ff8345e692c0f86e5b48e01b996cadc001622fb5e363b421b90100000000000000000000000000000000000000000000000000000000000000000000000000000000000000000000000000000000000000000000000000000000000000000000000000000000000000000000000000000000000000000000000000000000000000000000000000000000000000000000000000000000000000000000000000000000000000000000000000000000000000000000000000000000000000000000000000000000000000000000000000000000000000000000000000000000000000000000000000000000000000000000000000000000000000000000000000000000000000000000000000000000000000000000000000000000008302000080843499e1a0808203b642a056e81f171bcc55a6ff8345e692c0f86e5b48e01b996cadc001622fb5e363b421880102030405060708c0c0",
        "lastblockhash" : "0x21d2156565a55267d9db595b16ef491829ffda300a5a70b88294526c53ba2442",
        "network" : "Byzantium",
        "postState" : {
            "0xa94f5374fce5edbc8e2a8697c15331677e6ebf0b" : {
                "balance" : "0xfffffffffffffffffffffffff1194d7f",
                "code" : "",
                "nonce" : "0x01",
                "storage" : {
                }
            },
            "0xb94f5374fce5edbc8e2a8697c15331677e6ebf0b" : {
                "balance" : "0x29a2241b0512b280",
                "code" : "",
                "nonce" : "0x00",
                "storage" : {
                }
            },
            "0xbbbf5374fce5edbc8e2a8697c15331677e6ebf0b" : {
                "balance" : "0x0fffffffffffff",
                "code" : "0x5b61c3506080511015602c576000600061c35060006001600461061cf16000556001608051016080526000565b608051600155",
                "nonce" : "0x00",
                "storage" : {
                }
            }
        },
        "pre" : {
            "0xa94f5374fce5edbc8e2a8697c15331677e6ebf0b" : {
                "balance" : "0xffffffffffffffffffffffffffffffff",
                "code" : "",
                "nonce" : "0x00",
                "storage" : {
                }
            },
            "0xbbbf5374fce5edbc8e2a8697c15331677e6ebf0b" : {
                "balance" : "0x0fffffffffffff",
                "code" : "0x5b61c3506080511015602c576000600061c35060006001600461061cf16000556001608051016080526000565b608051600155",
                "nonce" : "0x00",
                "storage" : {
                }
            }
        }
    },
    "Call50000_identity_d0g1v0_EIP150" : {
        "_info" : {
            "comment" : "",
            "filledwith" : "cpp-1.3.0+commit.6e0ce939.Linux.g++",
            "lllcversion" : "Version: 0.4.18-develop.2017.9.25+commit.a72237f2.Linux.g++",
            "source" : "src/BlockchainTestsFiller/GeneralStateTests/stQuadraticComplexityTest/Call50000_identity_d0g1v0Filler.json",
            "sourceHash" : "ef985b94370cf77e39af83d4816ccf80e3af3959faf4a699a3b5d9b83e55aced"
        },
        "blocks" : [
            {
                "blockHeader" : {
                    "bloom" : "0x00000000000000000000000000000000000000000000000000000000000000000000000000000000000000000000000000000000000000000000000000000000000000000000000000000000000000000000000000000000000000000000000000000000000000000000000000000000000000000000000000000000000000000000000000000000000000000000000000000000000000000000000000000000000000000000000000000000000000000000000000000000000000000000000000000000000000000000000000000000000000000000000000000000000000000000000000000000000000000000000000000000000000000000000000000000",
                    "coinbase" : "0xb94f5374fce5edbc8e2a8697c15331677e6ebf0b",
                    "difficulty" : "0x020000",
                    "extraData" : "",
                    "gasLimit" : "0x3499e1a0",
                    "gasUsed" : "0x0ee6b280",
                    "hash" : "0xb011f995f2d69625445325a4798f12d18f4f87e197c58ad91fcbe77e5198828f",
                    "mixHash" : "0x15e5d58c4bb53280ab043d56bdafee726a56425c457fa405e3bd7f9773459b54",
                    "nonce" : "0x36612918b18c45a7",
                    "number" : "0x01",
                    "parentHash" : "0x702696c11f4fcf711f40fa08cbc9bde2ea49e55678d7eb5f8b2f932837ecf154",
                    "receiptTrie" : "0x321b59fdc0aed0b7f75deabaeea548deec8033a273fa4819dcca58bd4e9b6162",
                    "stateRoot" : "0x534774febb3bd79f381ffe09e472898a59b131bb4d60918ca217e34934caa3cd",
                    "timestamp" : "0x03e8",
                    "transactionsTrie" : "0x11d570905f32c46c526a712794d2d4a5e35176ac6de48c8328c5ffe7aaeb10e8",
                    "uncleHash" : "0x1dcc4de8dec75d7aab85b567b6ccd41ad312451b948a7413f0a142fd40d49347"
                },
                "rlp" : "0xf90263f901faa0702696c11f4fcf711f40fa08cbc9bde2ea49e55678d7eb5f8b2f932837ecf154a01dcc4de8dec75d7aab85b567b6ccd41ad312451b948a7413f0a142fd40d4934794b94f5374fce5edbc8e2a8697c15331677e6ebf0ba0534774febb3bd79f381ffe09e472898a59b131bb4d60918ca217e34934caa3cda011d570905f32c46c526a712794d2d4a5e35176ac6de48c8328c5ffe7aaeb10e8a0321b59fdc0aed0b7f75deabaeea548deec8033a273fa4819dcca58bd4e9b6162b90100000000000000000000000000000000000000000000000000000000000000000000000000000000000000000000000000000000000000000000000000000000000000000000000000000000000000000000000000000000000000000000000000000000000000000000000000000000000000000000000000000000000000000000000000000000000000000000000000000000000000000000000000000000000000000000000000000000000000000000000000000000000000000000000000000000000000000000000000000000000000000000000000000000000000000000000000000000000000000000000000000000000000000000000000000000008302000001843499e1a0840ee6b2808203e880a015e5d58c4bb53280ab043d56bdafee726a56425c457fa405e3bd7f9773459b548836612918b18c45a7f863f8618001840ee6b28094bbbf5374fce5edbc8e2a8697c15331677e6ebf0b0a801ca059a4b49695baa04705375b29fcf0cfc663d0c3da6c748b0a1f6cab3158c4ff37a05b8cf80c815cb88b89b4e36f05acf96449cf50a69119f5a5b206d80cee938c69c0",
                "transactions" : [
                    {
                        "data" : "",
                        "gasLimit" : "0x0ee6b280",
                        "gasPrice" : "0x01",
                        "nonce" : "0x00",
                        "r" : "0x59a4b49695baa04705375b29fcf0cfc663d0c3da6c748b0a1f6cab3158c4ff37",
                        "s" : "0x5b8cf80c815cb88b89b4e36f05acf96449cf50a69119f5a5b206d80cee938c69",
                        "to" : "0xbbbf5374fce5edbc8e2a8697c15331677e6ebf0b",
                        "v" : "0x1c",
                        "value" : "0x0a"
                    }
                ],
                "uncleHeaders" : [
                ]
            }
        ],
        "genesisBlockHeader" : {
            "bloom" : "0x00000000000000000000000000000000000000000000000000000000000000000000000000000000000000000000000000000000000000000000000000000000000000000000000000000000000000000000000000000000000000000000000000000000000000000000000000000000000000000000000000000000000000000000000000000000000000000000000000000000000000000000000000000000000000000000000000000000000000000000000000000000000000000000000000000000000000000000000000000000000000000000000000000000000000000000000000000000000000000000000000000000000000000000000000000000",
            "coinbase" : "0xb94f5374fce5edbc8e2a8697c15331677e6ebf0b",
            "difficulty" : "0x020000",
            "extraData" : "0x42",
            "gasLimit" : "0x3499e1a0",
            "gasUsed" : "0x00",
            "hash" : "0x702696c11f4fcf711f40fa08cbc9bde2ea49e55678d7eb5f8b2f932837ecf154",
            "mixHash" : "0x56e81f171bcc55a6ff8345e692c0f86e5b48e01b996cadc001622fb5e363b421",
            "nonce" : "0x0102030405060708",
            "number" : "0x00",
            "parentHash" : "0x0000000000000000000000000000000000000000000000000000000000000000",
            "receiptTrie" : "0x56e81f171bcc55a6ff8345e692c0f86e5b48e01b996cadc001622fb5e363b421",
            "stateRoot" : "0x87dae272e0fb5acf46804370f198309c1e23ea0ee2d59100d2acc80481d78b01",
            "timestamp" : "0x03b6",
            "transactionsTrie" : "0x56e81f171bcc55a6ff8345e692c0f86e5b48e01b996cadc001622fb5e363b421",
            "uncleHash" : "0x1dcc4de8dec75d7aab85b567b6ccd41ad312451b948a7413f0a142fd40d49347"
        },
        "genesisRLP" : "0xf901fbf901f6a00000000000000000000000000000000000000000000000000000000000000000a01dcc4de8dec75d7aab85b567b6ccd41ad312451b948a7413f0a142fd40d4934794b94f5374fce5edbc8e2a8697c15331677e6ebf0ba087dae272e0fb5acf46804370f198309c1e23ea0ee2d59100d2acc80481d78b01a056e81f171bcc55a6ff8345e692c0f86e5b48e01b996cadc001622fb5e363b421a056e81f171bcc55a6ff8345e692c0f86e5b48e01b996cadc001622fb5e363b421b90100000000000000000000000000000000000000000000000000000000000000000000000000000000000000000000000000000000000000000000000000000000000000000000000000000000000000000000000000000000000000000000000000000000000000000000000000000000000000000000000000000000000000000000000000000000000000000000000000000000000000000000000000000000000000000000000000000000000000000000000000000000000000000000000000000000000000000000000000000000000000000000000000000000000000000000000000000000000000000000000000000000000000000000000000000000008302000080843499e1a0808203b642a056e81f171bcc55a6ff8345e692c0f86e5b48e01b996cadc001622fb5e363b421880102030405060708c0c0",
        "lastblockhash" : "0xb011f995f2d69625445325a4798f12d18f4f87e197c58ad91fcbe77e5198828f",
        "network" : "EIP150",
        "postState" : {
            "0xa94f5374fce5edbc8e2a8697c15331677e6ebf0b" : {
                "balance" : "0xfffffffffffffffffffffffff1194d7f",
                "code" : "",
                "nonce" : "0x01",
                "storage" : {
                }
            },
            "0xb94f5374fce5edbc8e2a8697c15331677e6ebf0b" : {
                "balance" : "0x4563918253dab280",
                "code" : "",
                "nonce" : "0x00",
                "storage" : {
                }
            },
            "0xbbbf5374fce5edbc8e2a8697c15331677e6ebf0b" : {
                "balance" : "0x0fffffffffffff",
                "code" : "0x5b61c3506080511015602c576000600061c35060006001600461061cf16000556001608051016080526000565b608051600155",
                "nonce" : "0x00",
                "storage" : {
                }
            }
        },
        "pre" : {
            "0xa94f5374fce5edbc8e2a8697c15331677e6ebf0b" : {
                "balance" : "0xffffffffffffffffffffffffffffffff",
                "code" : "",
                "nonce" : "0x00",
                "storage" : {
                }
            },
            "0xbbbf5374fce5edbc8e2a8697c15331677e6ebf0b" : {
                "balance" : "0x0fffffffffffff",
                "code" : "0x5b61c3506080511015602c576000600061c35060006001600461061cf16000556001608051016080526000565b608051600155",
                "nonce" : "0x00",
                "storage" : {
                }
            }
        }
    },
    "Call50000_identity_d0g1v0_EIP158" : {
        "_info" : {
            "comment" : "",
            "filledwith" : "cpp-1.3.0+commit.6e0ce939.Linux.g++",
            "lllcversion" : "Version: 0.4.18-develop.2017.9.25+commit.a72237f2.Linux.g++",
            "source" : "src/BlockchainTestsFiller/GeneralStateTests/stQuadraticComplexityTest/Call50000_identity_d0g1v0Filler.json",
            "sourceHash" : "ef985b94370cf77e39af83d4816ccf80e3af3959faf4a699a3b5d9b83e55aced"
        },
        "blocks" : [
            {
                "blockHeader" : {
                    "bloom" : "0x00000000000000000000000000000000000000000000000000000000000000000000000000000000000000000000000000000000000000000000000000000000000000000000000000000000000000000000000000000000000000000000000000000000000000000000000000000000000000000000000000000000000000000000000000000000000000000000000000000000000000000000000000000000000000000000000000000000000000000000000000000000000000000000000000000000000000000000000000000000000000000000000000000000000000000000000000000000000000000000000000000000000000000000000000000000",
                    "coinbase" : "0xb94f5374fce5edbc8e2a8697c15331677e6ebf0b",
                    "difficulty" : "0x020000",
                    "extraData" : "",
                    "gasLimit" : "0x3499e1a0",
                    "gasUsed" : "0x0ee6b280",
                    "hash" : "0xf70e883cf8b0d1192c7c0eebff9a1ab3f2cd32d5a700da17dcb0ebfb44b7bd22",
                    "mixHash" : "0xbea5dd795cfbf215a7179712beefe5fede47e8ce9325a3111dfe930a4cf96626",
                    "nonce" : "0x9a26aa7ee6c5e697",
                    "number" : "0x01",
                    "parentHash" : "0x702696c11f4fcf711f40fa08cbc9bde2ea49e55678d7eb5f8b2f932837ecf154",
                    "receiptTrie" : "0x321b59fdc0aed0b7f75deabaeea548deec8033a273fa4819dcca58bd4e9b6162",
                    "stateRoot" : "0x534774febb3bd79f381ffe09e472898a59b131bb4d60918ca217e34934caa3cd",
                    "timestamp" : "0x03e8",
                    "transactionsTrie" : "0x11d570905f32c46c526a712794d2d4a5e35176ac6de48c8328c5ffe7aaeb10e8",
                    "uncleHash" : "0x1dcc4de8dec75d7aab85b567b6ccd41ad312451b948a7413f0a142fd40d49347"
                },
                "rlp" : "0xf90263f901faa0702696c11f4fcf711f40fa08cbc9bde2ea49e55678d7eb5f8b2f932837ecf154a01dcc4de8dec75d7aab85b567b6ccd41ad312451b948a7413f0a142fd40d4934794b94f5374fce5edbc8e2a8697c15331677e6ebf0ba0534774febb3bd79f381ffe09e472898a59b131bb4d60918ca217e34934caa3cda011d570905f32c46c526a712794d2d4a5e35176ac6de48c8328c5ffe7aaeb10e8a0321b59fdc0aed0b7f75deabaeea548deec8033a273fa4819dcca58bd4e9b6162b90100000000000000000000000000000000000000000000000000000000000000000000000000000000000000000000000000000000000000000000000000000000000000000000000000000000000000000000000000000000000000000000000000000000000000000000000000000000000000000000000000000000000000000000000000000000000000000000000000000000000000000000000000000000000000000000000000000000000000000000000000000000000000000000000000000000000000000000000000000000000000000000000000000000000000000000000000000000000000000000000000000000000000000000000000000000008302000001843499e1a0840ee6b2808203e880a0bea5dd795cfbf215a7179712beefe5fede47e8ce9325a3111dfe930a4cf96626889a26aa7ee6c5e697f863f8618001840ee6b28094bbbf5374fce5edbc8e2a8697c15331677e6ebf0b0a801ca059a4b49695baa04705375b29fcf0cfc663d0c3da6c748b0a1f6cab3158c4ff37a05b8cf80c815cb88b89b4e36f05acf96449cf50a69119f5a5b206d80cee938c69c0",
                "transactions" : [
                    {
                        "data" : "",
                        "gasLimit" : "0x0ee6b280",
                        "gasPrice" : "0x01",
                        "nonce" : "0x00",
                        "r" : "0x59a4b49695baa04705375b29fcf0cfc663d0c3da6c748b0a1f6cab3158c4ff37",
                        "s" : "0x5b8cf80c815cb88b89b4e36f05acf96449cf50a69119f5a5b206d80cee938c69",
                        "to" : "0xbbbf5374fce5edbc8e2a8697c15331677e6ebf0b",
                        "v" : "0x1c",
                        "value" : "0x0a"
                    }
                ],
                "uncleHeaders" : [
                ]
            }
        ],
        "genesisBlockHeader" : {
            "bloom" : "0x00000000000000000000000000000000000000000000000000000000000000000000000000000000000000000000000000000000000000000000000000000000000000000000000000000000000000000000000000000000000000000000000000000000000000000000000000000000000000000000000000000000000000000000000000000000000000000000000000000000000000000000000000000000000000000000000000000000000000000000000000000000000000000000000000000000000000000000000000000000000000000000000000000000000000000000000000000000000000000000000000000000000000000000000000000000",
            "coinbase" : "0xb94f5374fce5edbc8e2a8697c15331677e6ebf0b",
            "difficulty" : "0x020000",
            "extraData" : "0x42",
            "gasLimit" : "0x3499e1a0",
            "gasUsed" : "0x00",
            "hash" : "0x702696c11f4fcf711f40fa08cbc9bde2ea49e55678d7eb5f8b2f932837ecf154",
            "mixHash" : "0x56e81f171bcc55a6ff8345e692c0f86e5b48e01b996cadc001622fb5e363b421",
            "nonce" : "0x0102030405060708",
            "number" : "0x00",
            "parentHash" : "0x0000000000000000000000000000000000000000000000000000000000000000",
            "receiptTrie" : "0x56e81f171bcc55a6ff8345e692c0f86e5b48e01b996cadc001622fb5e363b421",
            "stateRoot" : "0x87dae272e0fb5acf46804370f198309c1e23ea0ee2d59100d2acc80481d78b01",
            "timestamp" : "0x03b6",
            "transactionsTrie" : "0x56e81f171bcc55a6ff8345e692c0f86e5b48e01b996cadc001622fb5e363b421",
            "uncleHash" : "0x1dcc4de8dec75d7aab85b567b6ccd41ad312451b948a7413f0a142fd40d49347"
        },
        "genesisRLP" : "0xf901fbf901f6a00000000000000000000000000000000000000000000000000000000000000000a01dcc4de8dec75d7aab85b567b6ccd41ad312451b948a7413f0a142fd40d4934794b94f5374fce5edbc8e2a8697c15331677e6ebf0ba087dae272e0fb5acf46804370f198309c1e23ea0ee2d59100d2acc80481d78b01a056e81f171bcc55a6ff8345e692c0f86e5b48e01b996cadc001622fb5e363b421a056e81f171bcc55a6ff8345e692c0f86e5b48e01b996cadc001622fb5e363b421b90100000000000000000000000000000000000000000000000000000000000000000000000000000000000000000000000000000000000000000000000000000000000000000000000000000000000000000000000000000000000000000000000000000000000000000000000000000000000000000000000000000000000000000000000000000000000000000000000000000000000000000000000000000000000000000000000000000000000000000000000000000000000000000000000000000000000000000000000000000000000000000000000000000000000000000000000000000000000000000000000000000000000000000000000000000000008302000080843499e1a0808203b642a056e81f171bcc55a6ff8345e692c0f86e5b48e01b996cadc001622fb5e363b421880102030405060708c0c0",
        "lastblockhash" : "0xf70e883cf8b0d1192c7c0eebff9a1ab3f2cd32d5a700da17dcb0ebfb44b7bd22",
        "network" : "EIP158",
        "postState" : {
            "0xa94f5374fce5edbc8e2a8697c15331677e6ebf0b" : {
                "balance" : "0xfffffffffffffffffffffffff1194d7f",
                "code" : "",
                "nonce" : "0x01",
                "storage" : {
                }
            },
            "0xb94f5374fce5edbc8e2a8697c15331677e6ebf0b" : {
                "balance" : "0x4563918253dab280",
                "code" : "",
                "nonce" : "0x00",
                "storage" : {
                }
            },
            "0xbbbf5374fce5edbc8e2a8697c15331677e6ebf0b" : {
                "balance" : "0x0fffffffffffff",
                "code" : "0x5b61c3506080511015602c576000600061c35060006001600461061cf16000556001608051016080526000565b608051600155",
                "nonce" : "0x00",
                "storage" : {
                }
            }
        },
        "pre" : {
            "0xa94f5374fce5edbc8e2a8697c15331677e6ebf0b" : {
                "balance" : "0xffffffffffffffffffffffffffffffff",
                "code" : "",
                "nonce" : "0x00",
                "storage" : {
                }
            },
            "0xbbbf5374fce5edbc8e2a8697c15331677e6ebf0b" : {
                "balance" : "0x0fffffffffffff",
                "code" : "0x5b61c3506080511015602c576000600061c35060006001600461061cf16000556001608051016080526000565b608051600155",
                "nonce" : "0x00",
                "storage" : {
                }
            }
        }
    },
    "Call50000_identity_d0g1v0_Frontier" : {
        "_info" : {
            "comment" : "",
            "filledwith" : "cpp-1.3.0+commit.6e0ce939.Linux.g++",
            "lllcversion" : "Version: 0.4.18-develop.2017.9.25+commit.a72237f2.Linux.g++",
            "source" : "src/BlockchainTestsFiller/GeneralStateTests/stQuadraticComplexityTest/Call50000_identity_d0g1v0Filler.json",
            "sourceHash" : "ef985b94370cf77e39af83d4816ccf80e3af3959faf4a699a3b5d9b83e55aced"
        },
        "blocks" : [
            {
                "blockHeader" : {
                    "bloom" : "0x00000000000000000000000000000000000000000000000000000000000000000000000000000000000000000000000000000000000000000000000000000000000000000000000000000000000000000000000000000000000000000000000000000000000000000000000000000000000000000000000000000000000000000000000000000000000000000000000000000000000000000000000000000000000000000000000000000000000000000000000000000000000000000000000000000000000000000000000000000000000000000000000000000000000000000000000000000000000000000000000000000000000000000000000000000000",
                    "coinbase" : "0xb94f5374fce5edbc8e2a8697c15331677e6ebf0b",
                    "difficulty" : "0x020000",
                    "extraData" : "",
                    "gasLimit" : "0x3499e1a0",
                    "gasUsed" : "0x0ee6b280",
                    "hash" : "0x3937fd4a170e1a00f31b093fcf744cfc69866bd5ad2df72b723a1c60c220d3f5",
                    "mixHash" : "0x69d4407883a2df88d96f7c4b0763fed8d1b92955315c831072e2859cb07d05b0",
                    "nonce" : "0x7abe4ee416c095cb",
                    "number" : "0x01",
                    "parentHash" : "0x702696c11f4fcf711f40fa08cbc9bde2ea49e55678d7eb5f8b2f932837ecf154",
                    "receiptTrie" : "0x321b59fdc0aed0b7f75deabaeea548deec8033a273fa4819dcca58bd4e9b6162",
                    "stateRoot" : "0x534774febb3bd79f381ffe09e472898a59b131bb4d60918ca217e34934caa3cd",
                    "timestamp" : "0x03e8",
                    "transactionsTrie" : "0x11d570905f32c46c526a712794d2d4a5e35176ac6de48c8328c5ffe7aaeb10e8",
                    "uncleHash" : "0x1dcc4de8dec75d7aab85b567b6ccd41ad312451b948a7413f0a142fd40d49347"
                },
                "rlp" : "0xf90263f901faa0702696c11f4fcf711f40fa08cbc9bde2ea49e55678d7eb5f8b2f932837ecf154a01dcc4de8dec75d7aab85b567b6ccd41ad312451b948a7413f0a142fd40d4934794b94f5374fce5edbc8e2a8697c15331677e6ebf0ba0534774febb3bd79f381ffe09e472898a59b131bb4d60918ca217e34934caa3cda011d570905f32c46c526a712794d2d4a5e35176ac6de48c8328c5ffe7aaeb10e8a0321b59fdc0aed0b7f75deabaeea548deec8033a273fa4819dcca58bd4e9b6162b90100000000000000000000000000000000000000000000000000000000000000000000000000000000000000000000000000000000000000000000000000000000000000000000000000000000000000000000000000000000000000000000000000000000000000000000000000000000000000000000000000000000000000000000000000000000000000000000000000000000000000000000000000000000000000000000000000000000000000000000000000000000000000000000000000000000000000000000000000000000000000000000000000000000000000000000000000000000000000000000000000000000000000000000000000000000008302000001843499e1a0840ee6b2808203e880a069d4407883a2df88d96f7c4b0763fed8d1b92955315c831072e2859cb07d05b0887abe4ee416c095cbf863f8618001840ee6b28094bbbf5374fce5edbc8e2a8697c15331677e6ebf0b0a801ca059a4b49695baa04705375b29fcf0cfc663d0c3da6c748b0a1f6cab3158c4ff37a05b8cf80c815cb88b89b4e36f05acf96449cf50a69119f5a5b206d80cee938c69c0",
                "transactions" : [
                    {
                        "data" : "",
                        "gasLimit" : "0x0ee6b280",
                        "gasPrice" : "0x01",
                        "nonce" : "0x00",
                        "r" : "0x59a4b49695baa04705375b29fcf0cfc663d0c3da6c748b0a1f6cab3158c4ff37",
                        "s" : "0x5b8cf80c815cb88b89b4e36f05acf96449cf50a69119f5a5b206d80cee938c69",
                        "to" : "0xbbbf5374fce5edbc8e2a8697c15331677e6ebf0b",
                        "v" : "0x1c",
                        "value" : "0x0a"
                    }
                ],
                "uncleHeaders" : [
                ]
            }
        ],
        "genesisBlockHeader" : {
            "bloom" : "0x00000000000000000000000000000000000000000000000000000000000000000000000000000000000000000000000000000000000000000000000000000000000000000000000000000000000000000000000000000000000000000000000000000000000000000000000000000000000000000000000000000000000000000000000000000000000000000000000000000000000000000000000000000000000000000000000000000000000000000000000000000000000000000000000000000000000000000000000000000000000000000000000000000000000000000000000000000000000000000000000000000000000000000000000000000000",
            "coinbase" : "0xb94f5374fce5edbc8e2a8697c15331677e6ebf0b",
            "difficulty" : "0x020000",
            "extraData" : "0x42",
            "gasLimit" : "0x3499e1a0",
            "gasUsed" : "0x00",
            "hash" : "0x702696c11f4fcf711f40fa08cbc9bde2ea49e55678d7eb5f8b2f932837ecf154",
            "mixHash" : "0x56e81f171bcc55a6ff8345e692c0f86e5b48e01b996cadc001622fb5e363b421",
            "nonce" : "0x0102030405060708",
            "number" : "0x00",
            "parentHash" : "0x0000000000000000000000000000000000000000000000000000000000000000",
            "receiptTrie" : "0x56e81f171bcc55a6ff8345e692c0f86e5b48e01b996cadc001622fb5e363b421",
            "stateRoot" : "0x87dae272e0fb5acf46804370f198309c1e23ea0ee2d59100d2acc80481d78b01",
            "timestamp" : "0x03b6",
            "transactionsTrie" : "0x56e81f171bcc55a6ff8345e692c0f86e5b48e01b996cadc001622fb5e363b421",
            "uncleHash" : "0x1dcc4de8dec75d7aab85b567b6ccd41ad312451b948a7413f0a142fd40d49347"
        },
        "genesisRLP" : "0xf901fbf901f6a00000000000000000000000000000000000000000000000000000000000000000a01dcc4de8dec75d7aab85b567b6ccd41ad312451b948a7413f0a142fd40d4934794b94f5374fce5edbc8e2a8697c15331677e6ebf0ba087dae272e0fb5acf46804370f198309c1e23ea0ee2d59100d2acc80481d78b01a056e81f171bcc55a6ff8345e692c0f86e5b48e01b996cadc001622fb5e363b421a056e81f171bcc55a6ff8345e692c0f86e5b48e01b996cadc001622fb5e363b421b90100000000000000000000000000000000000000000000000000000000000000000000000000000000000000000000000000000000000000000000000000000000000000000000000000000000000000000000000000000000000000000000000000000000000000000000000000000000000000000000000000000000000000000000000000000000000000000000000000000000000000000000000000000000000000000000000000000000000000000000000000000000000000000000000000000000000000000000000000000000000000000000000000000000000000000000000000000000000000000000000000000000000000000000000000000000008302000080843499e1a0808203b642a056e81f171bcc55a6ff8345e692c0f86e5b48e01b996cadc001622fb5e363b421880102030405060708c0c0",
        "lastblockhash" : "0x3937fd4a170e1a00f31b093fcf744cfc69866bd5ad2df72b723a1c60c220d3f5",
        "network" : "Frontier",
        "postState" : {
            "0xa94f5374fce5edbc8e2a8697c15331677e6ebf0b" : {
                "balance" : "0xfffffffffffffffffffffffff1194d7f",
                "code" : "",
                "nonce" : "0x01",
                "storage" : {
                }
            },
            "0xb94f5374fce5edbc8e2a8697c15331677e6ebf0b" : {
                "balance" : "0x4563918253dab280",
                "code" : "",
                "nonce" : "0x00",
                "storage" : {
                }
            },
            "0xbbbf5374fce5edbc8e2a8697c15331677e6ebf0b" : {
                "balance" : "0x0fffffffffffff",
                "code" : "0x5b61c3506080511015602c576000600061c35060006001600461061cf16000556001608051016080526000565b608051600155",
                "nonce" : "0x00",
                "storage" : {
                }
            }
        },
        "pre" : {
            "0xa94f5374fce5edbc8e2a8697c15331677e6ebf0b" : {
                "balance" : "0xffffffffffffffffffffffffffffffff",
                "code" : "",
                "nonce" : "0x00",
                "storage" : {
                }
            },
            "0xbbbf5374fce5edbc8e2a8697c15331677e6ebf0b" : {
                "balance" : "0x0fffffffffffff",
                "code" : "0x5b61c3506080511015602c576000600061c35060006001600461061cf16000556001608051016080526000565b608051600155",
                "nonce" : "0x00",
                "storage" : {
                }
            }
        }
    },
    "Call50000_identity_d0g1v0_Homestead" : {
        "_info" : {
            "comment" : "",
            "filledwith" : "cpp-1.3.0+commit.6e0ce939.Linux.g++",
            "lllcversion" : "Version: 0.4.18-develop.2017.9.25+commit.a72237f2.Linux.g++",
            "source" : "src/BlockchainTestsFiller/GeneralStateTests/stQuadraticComplexityTest/Call50000_identity_d0g1v0Filler.json",
            "sourceHash" : "ef985b94370cf77e39af83d4816ccf80e3af3959faf4a699a3b5d9b83e55aced"
        },
        "blocks" : [
            {
                "blockHeader" : {
                    "bloom" : "0x00000000000000000000000000000000000000000000000000000000000000000000000000000000000000000000000000000000000000000000000000000000000000000000000000000000000000000000000000000000000000000000000000000000000000000000000000000000000000000000000000000000000000000000000000000000000000000000000000000000000000000000000000000000000000000000000000000000000000000000000000000000000000000000000000000000000000000000000000000000000000000000000000000000000000000000000000000000000000000000000000000000000000000000000000000000",
                    "coinbase" : "0xb94f5374fce5edbc8e2a8697c15331677e6ebf0b",
                    "difficulty" : "0x020000",
                    "extraData" : "",
                    "gasLimit" : "0x3499e1a0",
                    "gasUsed" : "0x0ee6b280",
                    "hash" : "0x7adb3c38a0d9135bf2018af3ff125b4f405b3abbe4912e5960b9ee7b89778d0a",
                    "mixHash" : "0xb908216e70f74e4eacc1d706a1c17eec2d1cf719bf25c1b9810064a841b1f574",
                    "nonce" : "0xdb316a41863cee90",
                    "number" : "0x01",
                    "parentHash" : "0x702696c11f4fcf711f40fa08cbc9bde2ea49e55678d7eb5f8b2f932837ecf154",
                    "receiptTrie" : "0x321b59fdc0aed0b7f75deabaeea548deec8033a273fa4819dcca58bd4e9b6162",
                    "stateRoot" : "0x534774febb3bd79f381ffe09e472898a59b131bb4d60918ca217e34934caa3cd",
                    "timestamp" : "0x03e8",
                    "transactionsTrie" : "0x11d570905f32c46c526a712794d2d4a5e35176ac6de48c8328c5ffe7aaeb10e8",
                    "uncleHash" : "0x1dcc4de8dec75d7aab85b567b6ccd41ad312451b948a7413f0a142fd40d49347"
                },
                "rlp" : "0xf90263f901faa0702696c11f4fcf711f40fa08cbc9bde2ea49e55678d7eb5f8b2f932837ecf154a01dcc4de8dec75d7aab85b567b6ccd41ad312451b948a7413f0a142fd40d4934794b94f5374fce5edbc8e2a8697c15331677e6ebf0ba0534774febb3bd79f381ffe09e472898a59b131bb4d60918ca217e34934caa3cda011d570905f32c46c526a712794d2d4a5e35176ac6de48c8328c5ffe7aaeb10e8a0321b59fdc0aed0b7f75deabaeea548deec8033a273fa4819dcca58bd4e9b6162b90100000000000000000000000000000000000000000000000000000000000000000000000000000000000000000000000000000000000000000000000000000000000000000000000000000000000000000000000000000000000000000000000000000000000000000000000000000000000000000000000000000000000000000000000000000000000000000000000000000000000000000000000000000000000000000000000000000000000000000000000000000000000000000000000000000000000000000000000000000000000000000000000000000000000000000000000000000000000000000000000000000000000000000000000000000000008302000001843499e1a0840ee6b2808203e880a0b908216e70f74e4eacc1d706a1c17eec2d1cf719bf25c1b9810064a841b1f57488db316a41863cee90f863f8618001840ee6b28094bbbf5374fce5edbc8e2a8697c15331677e6ebf0b0a801ca059a4b49695baa04705375b29fcf0cfc663d0c3da6c748b0a1f6cab3158c4ff37a05b8cf80c815cb88b89b4e36f05acf96449cf50a69119f5a5b206d80cee938c69c0",
                "transactions" : [
                    {
                        "data" : "",
                        "gasLimit" : "0x0ee6b280",
                        "gasPrice" : "0x01",
                        "nonce" : "0x00",
                        "r" : "0x59a4b49695baa04705375b29fcf0cfc663d0c3da6c748b0a1f6cab3158c4ff37",
                        "s" : "0x5b8cf80c815cb88b89b4e36f05acf96449cf50a69119f5a5b206d80cee938c69",
                        "to" : "0xbbbf5374fce5edbc8e2a8697c15331677e6ebf0b",
                        "v" : "0x1c",
                        "value" : "0x0a"
                    }
                ],
                "uncleHeaders" : [
                ]
            }
        ],
        "genesisBlockHeader" : {
            "bloom" : "0x00000000000000000000000000000000000000000000000000000000000000000000000000000000000000000000000000000000000000000000000000000000000000000000000000000000000000000000000000000000000000000000000000000000000000000000000000000000000000000000000000000000000000000000000000000000000000000000000000000000000000000000000000000000000000000000000000000000000000000000000000000000000000000000000000000000000000000000000000000000000000000000000000000000000000000000000000000000000000000000000000000000000000000000000000000000",
            "coinbase" : "0xb94f5374fce5edbc8e2a8697c15331677e6ebf0b",
            "difficulty" : "0x020000",
            "extraData" : "0x42",
            "gasLimit" : "0x3499e1a0",
            "gasUsed" : "0x00",
            "hash" : "0x702696c11f4fcf711f40fa08cbc9bde2ea49e55678d7eb5f8b2f932837ecf154",
            "mixHash" : "0x56e81f171bcc55a6ff8345e692c0f86e5b48e01b996cadc001622fb5e363b421",
            "nonce" : "0x0102030405060708",
            "number" : "0x00",
            "parentHash" : "0x0000000000000000000000000000000000000000000000000000000000000000",
            "receiptTrie" : "0x56e81f171bcc55a6ff8345e692c0f86e5b48e01b996cadc001622fb5e363b421",
            "stateRoot" : "0x87dae272e0fb5acf46804370f198309c1e23ea0ee2d59100d2acc80481d78b01",
            "timestamp" : "0x03b6",
            "transactionsTrie" : "0x56e81f171bcc55a6ff8345e692c0f86e5b48e01b996cadc001622fb5e363b421",
            "uncleHash" : "0x1dcc4de8dec75d7aab85b567b6ccd41ad312451b948a7413f0a142fd40d49347"
        },
        "genesisRLP" : "0xf901fbf901f6a00000000000000000000000000000000000000000000000000000000000000000a01dcc4de8dec75d7aab85b567b6ccd41ad312451b948a7413f0a142fd40d4934794b94f5374fce5edbc8e2a8697c15331677e6ebf0ba087dae272e0fb5acf46804370f198309c1e23ea0ee2d59100d2acc80481d78b01a056e81f171bcc55a6ff8345e692c0f86e5b48e01b996cadc001622fb5e363b421a056e81f171bcc55a6ff8345e692c0f86e5b48e01b996cadc001622fb5e363b421b90100000000000000000000000000000000000000000000000000000000000000000000000000000000000000000000000000000000000000000000000000000000000000000000000000000000000000000000000000000000000000000000000000000000000000000000000000000000000000000000000000000000000000000000000000000000000000000000000000000000000000000000000000000000000000000000000000000000000000000000000000000000000000000000000000000000000000000000000000000000000000000000000000000000000000000000000000000000000000000000000000000000000000000000000000000000008302000080843499e1a0808203b642a056e81f171bcc55a6ff8345e692c0f86e5b48e01b996cadc001622fb5e363b421880102030405060708c0c0",
        "lastblockhash" : "0x7adb3c38a0d9135bf2018af3ff125b4f405b3abbe4912e5960b9ee7b89778d0a",
        "network" : "Homestead",
        "postState" : {
            "0xa94f5374fce5edbc8e2a8697c15331677e6ebf0b" : {
                "balance" : "0xfffffffffffffffffffffffff1194d7f",
                "code" : "",
                "nonce" : "0x01",
                "storage" : {
                }
            },
            "0xb94f5374fce5edbc8e2a8697c15331677e6ebf0b" : {
                "balance" : "0x4563918253dab280",
                "code" : "",
                "nonce" : "0x00",
                "storage" : {
                }
            },
            "0xbbbf5374fce5edbc8e2a8697c15331677e6ebf0b" : {
                "balance" : "0x0fffffffffffff",
                "code" : "0x5b61c3506080511015602c576000600061c35060006001600461061cf16000556001608051016080526000565b608051600155",
                "nonce" : "0x00",
                "storage" : {
                }
            }
        },
        "pre" : {
            "0xa94f5374fce5edbc8e2a8697c15331677e6ebf0b" : {
                "balance" : "0xffffffffffffffffffffffffffffffff",
                "code" : "",
                "nonce" : "0x00",
                "storage" : {
                }
            },
            "0xbbbf5374fce5edbc8e2a8697c15331677e6ebf0b" : {
                "balance" : "0x0fffffffffffff",
                "code" : "0x5b61c3506080511015602c576000600061c35060006001600461061cf16000556001608051016080526000565b608051600155",
                "nonce" : "0x00",
                "storage" : {
                }
            }
        }
    }
}