{
    "Call50000_rip160_d0g1v0_Byzantium" : {
        "_info" : {
            "comment" : "",
            "filledwith" : "cpp-1.3.0+commit.6e0ce939.Linux.g++",
            "lllcversion" : "Version: 0.4.18-develop.2017.9.25+commit.a72237f2.Linux.g++",
            "source" : "src/BlockchainTestsFiller/GeneralStateTests/stQuadraticComplexityTest/Call50000_rip160_d0g1v0Filler.json",
            "sourceHash" : "2a6ec1aefba5ba07b417890b85daa04c4032e92605274e0e0b6f59dd2062fa51"
        },
        "blocks" : [
            {
                "blockHeader" : {
                    "bloom" : "0x00000000000000000000000000000000000000000000000000000000000000000000000000000000000000000000000000000000000000000000000000000000000000000000000000000000000000000000000000000000000000000000000000000000000000000000000000000000000000000000000000000000000000000000000000000000000000000000000000000000000000000000000000000000000000000000000000000000000000000000000000000000000000000000000000000000000000000000000000000000000000000000000000000000000000000000000000000000000000000000000000000000000000000000000000000000",
                    "coinbase" : "0xb94f5374fce5edbc8e2a8697c15331677e6ebf0b",
                    "difficulty" : "0x020000",
                    "extraData" : "",
                    "gasLimit" : "0xe9f2bf40",
                    "gasUsed" : "0x0ee6b280",
                    "hash" : "0x460c905dafc1f31d2045bee6e04a297afe06a2e40bc1eecf84a23b465214e635",
                    "mixHash" : "0xa40f2ee3cd63d045b9aa5d2fb0b808ce20b4be27597a36ec8b9519af0eba26d5",
                    "nonce" : "0xefaf6100d68f6ec9",
                    "number" : "0x01",
                    "parentHash" : "0xc521bae8d3a4da2feedfaf4151a2b31ddef0c4cbd4a902cc51d1134f96e4ba42",
                    "receiptTrie" : "0x27408083641cf20cfde86cd87cd57bf10c741d7553352ca96118e31ab8ceb9ce",
                    "stateRoot" : "0x08c74eff23914e70c9793c1abe27cdefc401f8bfb61fc7783996eda12e75e8c8",
                    "timestamp" : "0x03e8",
                    "transactionsTrie" : "0x11d570905f32c46c526a712794d2d4a5e35176ac6de48c8328c5ffe7aaeb10e8",
                    "uncleHash" : "0x1dcc4de8dec75d7aab85b567b6ccd41ad312451b948a7413f0a142fd40d49347"
                },
                "rlp" : "0xf90263f901faa0c521bae8d3a4da2feedfaf4151a2b31ddef0c4cbd4a902cc51d1134f96e4ba42a01dcc4de8dec75d7aab85b567b6ccd41ad312451b948a7413f0a142fd40d4934794b94f5374fce5edbc8e2a8697c15331677e6ebf0ba008c74eff23914e70c9793c1abe27cdefc401f8bfb61fc7783996eda12e75e8c8a011d570905f32c46c526a712794d2d4a5e35176ac6de48c8328c5ffe7aaeb10e8a027408083641cf20cfde86cd87cd57bf10c741d7553352ca96118e31ab8ceb9ceb9010000000000000000000000000000000000000000000000000000000000000000000000000000000000000000000000000000000000000000000000000000000000000000000000000000000000000000000000000000000000000000000000000000000000000000000000000000000000000000000000000000000000000000000000000000000000000000000000000000000000000000000000000000000000000000000000000000000000000000000000000000000000000000000000000000000000000000000000000000000000000000000000000000000000000000000000000000000000000000000000000000000000000000000000000000000000830200000184e9f2bf40840ee6b2808203e880a0a40f2ee3cd63d045b9aa5d2fb0b808ce20b4be27597a36ec8b9519af0eba26d588efaf6100d68f6ec9f863f8618001840ee6b28094bbbf5374fce5edbc8e2a8697c15331677e6ebf0b0a801ca059a4b49695baa04705375b29fcf0cfc663d0c3da6c748b0a1f6cab3158c4ff37a05b8cf80c815cb88b89b4e36f05acf96449cf50a69119f5a5b206d80cee938c69c0",
                "transactions" : [
                    {
                        "data" : "",
                        "gasLimit" : "0x0ee6b280",
                        "gasPrice" : "0x01",
                        "nonce" : "0x00",
                        "r" : "0x59a4b49695baa04705375b29fcf0cfc663d0c3da6c748b0a1f6cab3158c4ff37",
                        "s" : "0x5b8cf80c815cb88b89b4e36f05acf96449cf50a69119f5a5b206d80cee938c69",
                        "to" : "0xbbbf5374fce5edbc8e2a8697c15331677e6ebf0b",
                        "v" : "0x1c",
                        "value" : "0x0a"
                    }
                ],
                "uncleHeaders" : [
                ]
            }
        ],
        "genesisBlockHeader" : {
            "bloom" : "0x00000000000000000000000000000000000000000000000000000000000000000000000000000000000000000000000000000000000000000000000000000000000000000000000000000000000000000000000000000000000000000000000000000000000000000000000000000000000000000000000000000000000000000000000000000000000000000000000000000000000000000000000000000000000000000000000000000000000000000000000000000000000000000000000000000000000000000000000000000000000000000000000000000000000000000000000000000000000000000000000000000000000000000000000000000000",
            "coinbase" : "0xb94f5374fce5edbc8e2a8697c15331677e6ebf0b",
            "difficulty" : "0x020000",
            "extraData" : "0x42",
            "gasLimit" : "0xe9f2bf40",
            "gasUsed" : "0x00",
            "hash" : "0xc521bae8d3a4da2feedfaf4151a2b31ddef0c4cbd4a902cc51d1134f96e4ba42",
            "mixHash" : "0x56e81f171bcc55a6ff8345e692c0f86e5b48e01b996cadc001622fb5e363b421",
            "nonce" : "0x0102030405060708",
            "number" : "0x00",
            "parentHash" : "0x0000000000000000000000000000000000000000000000000000000000000000",
            "receiptTrie" : "0x56e81f171bcc55a6ff8345e692c0f86e5b48e01b996cadc001622fb5e363b421",
            "stateRoot" : "0x711cf59818320be29b0d4240eb14a2a18c3d724d6235036ff2b86c65dee474f8",
            "timestamp" : "0x03b6",
            "transactionsTrie" : "0x56e81f171bcc55a6ff8345e692c0f86e5b48e01b996cadc001622fb5e363b421",
            "uncleHash" : "0x1dcc4de8dec75d7aab85b567b6ccd41ad312451b948a7413f0a142fd40d49347"
        },
        "genesisRLP" : "0xf901fbf901f6a00000000000000000000000000000000000000000000000000000000000000000a01dcc4de8dec75d7aab85b567b6ccd41ad312451b948a7413f0a142fd40d4934794b94f5374fce5edbc8e2a8697c15331677e6ebf0ba0711cf59818320be29b0d4240eb14a2a18c3d724d6235036ff2b86c65dee474f8a056e81f171bcc55a6ff8345e692c0f86e5b48e01b996cadc001622fb5e363b421a056e81f171bcc55a6ff8345e692c0f86e5b48e01b996cadc001622fb5e363b421b9010000000000000000000000000000000000000000000000000000000000000000000000000000000000000000000000000000000000000000000000000000000000000000000000000000000000000000000000000000000000000000000000000000000000000000000000000000000000000000000000000000000000000000000000000000000000000000000000000000000000000000000000000000000000000000000000000000000000000000000000000000000000000000000000000000000000000000000000000000000000000000000000000000000000000000000000000000000000000000000000000000000000000000000000000000000000830200008084e9f2bf40808203b642a056e81f171bcc55a6ff8345e692c0f86e5b48e01b996cadc001622fb5e363b421880102030405060708c0c0",
        "lastblockhash" : "0x460c905dafc1f31d2045bee6e04a297afe06a2e40bc1eecf84a23b465214e635",
        "network" : "Byzantium",
        "postState" : {
            "0xa94f5374fce5edbc8e2a8697c15331677e6ebf0b" : {
                "balance" : "0xfffffffffffffffffffffffff1194d7f",
                "code" : "",
                "nonce" : "0x01",
                "storage" : {
                }
            },
            "0xb94f5374fce5edbc8e2a8697c15331677e6ebf0b" : {
                "balance" : "0x29a2241b0512b280",
                "code" : "",
                "nonce" : "0x00",
                "storage" : {
                }
            },
            "0xbbbf5374fce5edbc8e2a8697c15331677e6ebf0b" : {
                "balance" : "0x0fffffffffffff",
                "code" : "0x5b61c3506080511015602d576000600061c35060006001600362013178f16000556001608051016080526000565b608051600155",
                "nonce" : "0x00",
                "storage" : {
                }
            }
        },
        "pre" : {
            "0xa94f5374fce5edbc8e2a8697c15331677e6ebf0b" : {
                "balance" : "0xffffffffffffffffffffffffffffffff",
                "code" : "",
                "nonce" : "0x00",
                "storage" : {
                }
            },
            "0xbbbf5374fce5edbc8e2a8697c15331677e6ebf0b" : {
                "balance" : "0x0fffffffffffff",
                "code" : "0x5b61c3506080511015602d576000600061c35060006001600362013178f16000556001608051016080526000565b608051600155",
                "nonce" : "0x00",
                "storage" : {
                }
            }
        }
    },
    "Call50000_rip160_d0g1v0_EIP150" : {
        "_info" : {
            "comment" : "",
            "filledwith" : "cpp-1.3.0+commit.6e0ce939.Linux.g++",
            "lllcversion" : "Version: 0.4.18-develop.2017.9.25+commit.a72237f2.Linux.g++",
            "source" : "src/BlockchainTestsFiller/GeneralStateTests/stQuadraticComplexityTest/Call50000_rip160_d0g1v0Filler.json",
            "sourceHash" : "2a6ec1aefba5ba07b417890b85daa04c4032e92605274e0e0b6f59dd2062fa51"
        },
        "blocks" : [
            {
                "blockHeader" : {
                    "bloom" : "0x00000000000000000000000000000000000000000000000000000000000000000000000000000000000000000000000000000000000000000000000000000000000000000000000000000000000000000000000000000000000000000000000000000000000000000000000000000000000000000000000000000000000000000000000000000000000000000000000000000000000000000000000000000000000000000000000000000000000000000000000000000000000000000000000000000000000000000000000000000000000000000000000000000000000000000000000000000000000000000000000000000000000000000000000000000000",
                    "coinbase" : "0xb94f5374fce5edbc8e2a8697c15331677e6ebf0b",
                    "difficulty" : "0x020000",
                    "extraData" : "",
                    "gasLimit" : "0xe9f2bf40",
                    "gasUsed" : "0x0ee6b280",
                    "hash" : "0xfb1bc240148b8aac10176e4607061a2342e1c21dee79b0e32aeb04416fd0e69d",
                    "mixHash" : "0x7a82eac58af8b0ad5fd8c42fcd3e5d9bf11f6a6b351ae46cc4f547f4f1d67199",
                    "nonce" : "0xf058fecbdccc0574",
                    "number" : "0x01",
                    "parentHash" : "0xc521bae8d3a4da2feedfaf4151a2b31ddef0c4cbd4a902cc51d1134f96e4ba42",
                    "receiptTrie" : "0xde9f2379fbe21ba1a0274dc6267e528589df8ee102203c2f6ceca731c06bb88d",
                    "stateRoot" : "0xc6cd178284af3201f54c5538b700b3ac34c9e9a1211a41f1af9edca606a1fbea",
                    "timestamp" : "0x03e8",
                    "transactionsTrie" : "0x11d570905f32c46c526a712794d2d4a5e35176ac6de48c8328c5ffe7aaeb10e8",
                    "uncleHash" : "0x1dcc4de8dec75d7aab85b567b6ccd41ad312451b948a7413f0a142fd40d49347"
                },
                "rlp" : "0xf90263f901faa0c521bae8d3a4da2feedfaf4151a2b31ddef0c4cbd4a902cc51d1134f96e4ba42a01dcc4de8dec75d7aab85b567b6ccd41ad312451b948a7413f0a142fd40d4934794b94f5374fce5edbc8e2a8697c15331677e6ebf0ba0c6cd178284af3201f54c5538b700b3ac34c9e9a1211a41f1af9edca606a1fbeaa011d570905f32c46c526a712794d2d4a5e35176ac6de48c8328c5ffe7aaeb10e8a0de9f2379fbe21ba1a0274dc6267e528589df8ee102203c2f6ceca731c06bb88db9010000000000000000000000000000000000000000000000000000000000000000000000000000000000000000000000000000000000000000000000000000000000000000000000000000000000000000000000000000000000000000000000000000000000000000000000000000000000000000000000000000000000000000000000000000000000000000000000000000000000000000000000000000000000000000000000000000000000000000000000000000000000000000000000000000000000000000000000000000000000000000000000000000000000000000000000000000000000000000000000000000000000000000000000000000000000830200000184e9f2bf40840ee6b2808203e880a07a82eac58af8b0ad5fd8c42fcd3e5d9bf11f6a6b351ae46cc4f547f4f1d6719988f058fecbdccc0574f863f8618001840ee6b28094bbbf5374fce5edbc8e2a8697c15331677e6ebf0b0a801ca059a4b49695baa04705375b29fcf0cfc663d0c3da6c748b0a1f6cab3158c4ff37a05b8cf80c815cb88b89b4e36f05acf96449cf50a69119f5a5b206d80cee938c69c0",
                "transactions" : [
                    {
                        "data" : "",
                        "gasLimit" : "0x0ee6b280",
                        "gasPrice" : "0x01",
                        "nonce" : "0x00",
                        "r" : "0x59a4b49695baa04705375b29fcf0cfc663d0c3da6c748b0a1f6cab3158c4ff37",
                        "s" : "0x5b8cf80c815cb88b89b4e36f05acf96449cf50a69119f5a5b206d80cee938c69",
                        "to" : "0xbbbf5374fce5edbc8e2a8697c15331677e6ebf0b",
                        "v" : "0x1c",
                        "value" : "0x0a"
                    }
                ],
                "uncleHeaders" : [
                ]
            }
        ],
        "genesisBlockHeader" : {
            "bloom" : "0x00000000000000000000000000000000000000000000000000000000000000000000000000000000000000000000000000000000000000000000000000000000000000000000000000000000000000000000000000000000000000000000000000000000000000000000000000000000000000000000000000000000000000000000000000000000000000000000000000000000000000000000000000000000000000000000000000000000000000000000000000000000000000000000000000000000000000000000000000000000000000000000000000000000000000000000000000000000000000000000000000000000000000000000000000000000",
            "coinbase" : "0xb94f5374fce5edbc8e2a8697c15331677e6ebf0b",
            "difficulty" : "0x020000",
            "extraData" : "0x42",
            "gasLimit" : "0xe9f2bf40",
            "gasUsed" : "0x00",
            "hash" : "0xc521bae8d3a4da2feedfaf4151a2b31ddef0c4cbd4a902cc51d1134f96e4ba42",
            "mixHash" : "0x56e81f171bcc55a6ff8345e692c0f86e5b48e01b996cadc001622fb5e363b421",
            "nonce" : "0x0102030405060708",
            "number" : "0x00",
            "parentHash" : "0x0000000000000000000000000000000000000000000000000000000000000000",
            "receiptTrie" : "0x56e81f171bcc55a6ff8345e692c0f86e5b48e01b996cadc001622fb5e363b421",
            "stateRoot" : "0x711cf59818320be29b0d4240eb14a2a18c3d724d6235036ff2b86c65dee474f8",
            "timestamp" : "0x03b6",
            "transactionsTrie" : "0x56e81f171bcc55a6ff8345e692c0f86e5b48e01b996cadc001622fb5e363b421",
            "uncleHash" : "0x1dcc4de8dec75d7aab85b567b6ccd41ad312451b948a7413f0a142fd40d49347"
        },
        "genesisRLP" : "0xf901fbf901f6a00000000000000000000000000000000000000000000000000000000000000000a01dcc4de8dec75d7aab85b567b6ccd41ad312451b948a7413f0a142fd40d4934794b94f5374fce5edbc8e2a8697c15331677e6ebf0ba0711cf59818320be29b0d4240eb14a2a18c3d724d6235036ff2b86c65dee474f8a056e81f171bcc55a6ff8345e692c0f86e5b48e01b996cadc001622fb5e363b421a056e81f171bcc55a6ff8345e692c0f86e5b48e01b996cadc001622fb5e363b421b9010000000000000000000000000000000000000000000000000000000000000000000000000000000000000000000000000000000000000000000000000000000000000000000000000000000000000000000000000000000000000000000000000000000000000000000000000000000000000000000000000000000000000000000000000000000000000000000000000000000000000000000000000000000000000000000000000000000000000000000000000000000000000000000000000000000000000000000000000000000000000000000000000000000000000000000000000000000000000000000000000000000000000000000000000000000000830200008084e9f2bf40808203b642a056e81f171bcc55a6ff8345e692c0f86e5b48e01b996cadc001622fb5e363b421880102030405060708c0c0",
        "lastblockhash" : "0xfb1bc240148b8aac10176e4607061a2342e1c21dee79b0e32aeb04416fd0e69d",
        "network" : "EIP150",
        "postState" : {
            "0xa94f5374fce5edbc8e2a8697c15331677e6ebf0b" : {
                "balance" : "0xfffffffffffffffffffffffff1194d7f",
                "code" : "",
                "nonce" : "0x01",
                "storage" : {
                }
            },
            "0xb94f5374fce5edbc8e2a8697c15331677e6ebf0b" : {
                "balance" : "0x4563918253dab280",
                "code" : "",
                "nonce" : "0x00",
                "storage" : {
                }
            },
            "0xbbbf5374fce5edbc8e2a8697c15331677e6ebf0b" : {
                "balance" : "0x0fffffffffffff",
                "code" : "0x5b61c3506080511015602d576000600061c35060006001600362013178f16000556001608051016080526000565b608051600155",
                "nonce" : "0x00",
                "storage" : {
                }
            }
        },
        "pre" : {
            "0xa94f5374fce5edbc8e2a8697c15331677e6ebf0b" : {
                "balance" : "0xffffffffffffffffffffffffffffffff",
                "code" : "",
                "nonce" : "0x00",
                "storage" : {
                }
            },
            "0xbbbf5374fce5edbc8e2a8697c15331677e6ebf0b" : {
                "balance" : "0x0fffffffffffff",
                "code" : "0x5b61c3506080511015602d576000600061c35060006001600362013178f16000556001608051016080526000565b608051600155",
                "nonce" : "0x00",
                "storage" : {
                }
            }
        }
    },
    "Call50000_rip160_d0g1v0_EIP158" : {
        "_info" : {
            "comment" : "",
            "filledwith" : "cpp-1.3.0+commit.6e0ce939.Linux.g++",
            "lllcversion" : "Version: 0.4.18-develop.2017.9.25+commit.a72237f2.Linux.g++",
            "source" : "src/BlockchainTestsFiller/GeneralStateTests/stQuadraticComplexityTest/Call50000_rip160_d0g1v0Filler.json",
            "sourceHash" : "2a6ec1aefba5ba07b417890b85daa04c4032e92605274e0e0b6f59dd2062fa51"
        },
        "blocks" : [
            {
                "blockHeader" : {
                    "bloom" : "0x00000000000000000000000000000000000000000000000000000000000000000000000000000000000000000000000000000000000000000000000000000000000000000000000000000000000000000000000000000000000000000000000000000000000000000000000000000000000000000000000000000000000000000000000000000000000000000000000000000000000000000000000000000000000000000000000000000000000000000000000000000000000000000000000000000000000000000000000000000000000000000000000000000000000000000000000000000000000000000000000000000000000000000000000000000000",
                    "coinbase" : "0xb94f5374fce5edbc8e2a8697c15331677e6ebf0b",
                    "difficulty" : "0x020000",
                    "extraData" : "",
                    "gasLimit" : "0xe9f2bf40",
                    "gasUsed" : "0x0ee6b280",
                    "hash" : "0xfe68c289d6e1329f7be646d9125cca60f595e34f772d230ef3d302608a97dfc8",
                    "mixHash" : "0xcaaa4fd0156b7157fd11125d998bb88fb995ade844e466723aaf1efdca35ec01",
                    "nonce" : "0x24c2d7502324b10f",
                    "number" : "0x01",
                    "parentHash" : "0xc521bae8d3a4da2feedfaf4151a2b31ddef0c4cbd4a902cc51d1134f96e4ba42",
                    "receiptTrie" : "0xde9f2379fbe21ba1a0274dc6267e528589df8ee102203c2f6ceca731c06bb88d",
                    "stateRoot" : "0xc6cd178284af3201f54c5538b700b3ac34c9e9a1211a41f1af9edca606a1fbea",
                    "timestamp" : "0x03e8",
                    "transactionsTrie" : "0x11d570905f32c46c526a712794d2d4a5e35176ac6de48c8328c5ffe7aaeb10e8",
                    "uncleHash" : "0x1dcc4de8dec75d7aab85b567b6ccd41ad312451b948a7413f0a142fd40d49347"
                },
                "rlp" : "0xf90263f901faa0c521bae8d3a4da2feedfaf4151a2b31ddef0c4cbd4a902cc51d1134f96e4ba42a01dcc4de8dec75d7aab85b567b6ccd41ad312451b948a7413f0a142fd40d4934794b94f5374fce5edbc8e2a8697c15331677e6ebf0ba0c6cd178284af3201f54c5538b700b3ac34c9e9a1211a41f1af9edca606a1fbeaa011d570905f32c46c526a712794d2d4a5e35176ac6de48c8328c5ffe7aaeb10e8a0de9f2379fbe21ba1a0274dc6267e528589df8ee102203c2f6ceca731c06bb88db9010000000000000000000000000000000000000000000000000000000000000000000000000000000000000000000000000000000000000000000000000000000000000000000000000000000000000000000000000000000000000000000000000000000000000000000000000000000000000000000000000000000000000000000000000000000000000000000000000000000000000000000000000000000000000000000000000000000000000000000000000000000000000000000000000000000000000000000000000000000000000000000000000000000000000000000000000000000000000000000000000000000000000000000000000000000000830200000184e9f2bf40840ee6b2808203e880a0caaa4fd0156b7157fd11125d998bb88fb995ade844e466723aaf1efdca35ec018824c2d7502324b10ff863f8618001840ee6b28094bbbf5374fce5edbc8e2a8697c15331677e6ebf0b0a801ca059a4b49695baa04705375b29fcf0cfc663d0c3da6c748b0a1f6cab3158c4ff37a05b8cf80c815cb88b89b4e36f05acf96449cf50a69119f5a5b206d80cee938c69c0",
                "transactions" : [
                    {
                        "data" : "",
                        "gasLimit" : "0x0ee6b280",
                        "gasPrice" : "0x01",
                        "nonce" : "0x00",
                        "r" : "0x59a4b49695baa04705375b29fcf0cfc663d0c3da6c748b0a1f6cab3158c4ff37",
                        "s" : "0x5b8cf80c815cb88b89b4e36f05acf96449cf50a69119f5a5b206d80cee938c69",
                        "to" : "0xbbbf5374fce5edbc8e2a8697c15331677e6ebf0b",
                        "v" : "0x1c",
                        "value" : "0x0a"
                    }
                ],
                "uncleHeaders" : [
                ]
            }
        ],
        "genesisBlockHeader" : {
            "bloom" : "0x00000000000000000000000000000000000000000000000000000000000000000000000000000000000000000000000000000000000000000000000000000000000000000000000000000000000000000000000000000000000000000000000000000000000000000000000000000000000000000000000000000000000000000000000000000000000000000000000000000000000000000000000000000000000000000000000000000000000000000000000000000000000000000000000000000000000000000000000000000000000000000000000000000000000000000000000000000000000000000000000000000000000000000000000000000000",
            "coinbase" : "0xb94f5374fce5edbc8e2a8697c15331677e6ebf0b",
            "difficulty" : "0x020000",
            "extraData" : "0x42",
            "gasLimit" : "0xe9f2bf40",
            "gasUsed" : "0x00",
            "hash" : "0xc521bae8d3a4da2feedfaf4151a2b31ddef0c4cbd4a902cc51d1134f96e4ba42",
            "mixHash" : "0x56e81f171bcc55a6ff8345e692c0f86e5b48e01b996cadc001622fb5e363b421",
            "nonce" : "0x0102030405060708",
            "number" : "0x00",
            "parentHash" : "0x0000000000000000000000000000000000000000000000000000000000000000",
            "receiptTrie" : "0x56e81f171bcc55a6ff8345e692c0f86e5b48e01b996cadc001622fb5e363b421",
            "stateRoot" : "0x711cf59818320be29b0d4240eb14a2a18c3d724d6235036ff2b86c65dee474f8",
            "timestamp" : "0x03b6",
            "transactionsTrie" : "0x56e81f171bcc55a6ff8345e692c0f86e5b48e01b996cadc001622fb5e363b421",
            "uncleHash" : "0x1dcc4de8dec75d7aab85b567b6ccd41ad312451b948a7413f0a142fd40d49347"
        },
        "genesisRLP" : "0xf901fbf901f6a00000000000000000000000000000000000000000000000000000000000000000a01dcc4de8dec75d7aab85b567b6ccd41ad312451b948a7413f0a142fd40d4934794b94f5374fce5edbc8e2a8697c15331677e6ebf0ba0711cf59818320be29b0d4240eb14a2a18c3d724d6235036ff2b86c65dee474f8a056e81f171bcc55a6ff8345e692c0f86e5b48e01b996cadc001622fb5e363b421a056e81f171bcc55a6ff8345e692c0f86e5b48e01b996cadc001622fb5e363b421b9010000000000000000000000000000000000000000000000000000000000000000000000000000000000000000000000000000000000000000000000000000000000000000000000000000000000000000000000000000000000000000000000000000000000000000000000000000000000000000000000000000000000000000000000000000000000000000000000000000000000000000000000000000000000000000000000000000000000000000000000000000000000000000000000000000000000000000000000000000000000000000000000000000000000000000000000000000000000000000000000000000000000000000000000000000000000830200008084e9f2bf40808203b642a056e81f171bcc55a6ff8345e692c0f86e5b48e01b996cadc001622fb5e363b421880102030405060708c0c0",
        "lastblockhash" : "0xfe68c289d6e1329f7be646d9125cca60f595e34f772d230ef3d302608a97dfc8",
        "network" : "EIP158",
        "postState" : {
            "0xa94f5374fce5edbc8e2a8697c15331677e6ebf0b" : {
                "balance" : "0xfffffffffffffffffffffffff1194d7f",
                "code" : "",
                "nonce" : "0x01",
                "storage" : {
                }
            },
            "0xb94f5374fce5edbc8e2a8697c15331677e6ebf0b" : {
                "balance" : "0x4563918253dab280",
                "code" : "",
                "nonce" : "0x00",
                "storage" : {
                }
            },
            "0xbbbf5374fce5edbc8e2a8697c15331677e6ebf0b" : {
                "balance" : "0x0fffffffffffff",
                "code" : "0x5b61c3506080511015602d576000600061c35060006001600362013178f16000556001608051016080526000565b608051600155",
                "nonce" : "0x00",
                "storage" : {
                }
            }
        },
        "pre" : {
            "0xa94f5374fce5edbc8e2a8697c15331677e6ebf0b" : {
                "balance" : "0xffffffffffffffffffffffffffffffff",
                "code" : "",
                "nonce" : "0x00",
                "storage" : {
                }
            },
            "0xbbbf5374fce5edbc8e2a8697c15331677e6ebf0b" : {
                "balance" : "0x0fffffffffffff",
                "code" : "0x5b61c3506080511015602d576000600061c35060006001600362013178f16000556001608051016080526000565b608051600155",
                "nonce" : "0x00",
                "storage" : {
                }
            }
        }
    },
    "Call50000_rip160_d0g1v0_Frontier" : {
        "_info" : {
            "comment" : "",
            "filledwith" : "cpp-1.3.0+commit.6e0ce939.Linux.g++",
            "lllcversion" : "Version: 0.4.18-develop.2017.9.25+commit.a72237f2.Linux.g++",
            "source" : "src/BlockchainTestsFiller/GeneralStateTests/stQuadraticComplexityTest/Call50000_rip160_d0g1v0Filler.json",
            "sourceHash" : "2a6ec1aefba5ba07b417890b85daa04c4032e92605274e0e0b6f59dd2062fa51"
        },
        "blocks" : [
            {
                "blockHeader" : {
                    "bloom" : "0x00000000000000000000000000000000000000000000000000000000000000000000000000000000000000000000000000000000000000000000000000000000000000000000000000000000000000000000000000000000000000000000000000000000000000000000000000000000000000000000000000000000000000000000000000000000000000000000000000000000000000000000000000000000000000000000000000000000000000000000000000000000000000000000000000000000000000000000000000000000000000000000000000000000000000000000000000000000000000000000000000000000000000000000000000000000",
                    "coinbase" : "0xb94f5374fce5edbc8e2a8697c15331677e6ebf0b",
                    "difficulty" : "0x020000",
                    "extraData" : "",
                    "gasLimit" : "0xe9f2bf40",
                    "gasUsed" : "0x0ee6b280",
                    "hash" : "0x293165b528e809dc39efa8e79eb04a8aa605304fd014051ed2de4e19566a5725",
                    "mixHash" : "0xa14c3fe3c662780eb4ee78dbff81b117460e34628981d574d58ca4c5b81e8a0a",
                    "nonce" : "0x1b80d3202fac9654",
                    "number" : "0x01",
                    "parentHash" : "0xc521bae8d3a4da2feedfaf4151a2b31ddef0c4cbd4a902cc51d1134f96e4ba42",
                    "receiptTrie" : "0xde9f2379fbe21ba1a0274dc6267e528589df8ee102203c2f6ceca731c06bb88d",
                    "stateRoot" : "0xc6cd178284af3201f54c5538b700b3ac34c9e9a1211a41f1af9edca606a1fbea",
                    "timestamp" : "0x03e8",
                    "transactionsTrie" : "0x11d570905f32c46c526a712794d2d4a5e35176ac6de48c8328c5ffe7aaeb10e8",
                    "uncleHash" : "0x1dcc4de8dec75d7aab85b567b6ccd41ad312451b948a7413f0a142fd40d49347"
                },
                "rlp" : "0xf90263f901faa0c521bae8d3a4da2feedfaf4151a2b31ddef0c4cbd4a902cc51d1134f96e4ba42a01dcc4de8dec75d7aab85b567b6ccd41ad312451b948a7413f0a142fd40d4934794b94f5374fce5edbc8e2a8697c15331677e6ebf0ba0c6cd178284af3201f54c5538b700b3ac34c9e9a1211a41f1af9edca606a1fbeaa011d570905f32c46c526a712794d2d4a5e35176ac6de48c8328c5ffe7aaeb10e8a0de9f2379fbe21ba1a0274dc6267e528589df8ee102203c2f6ceca731c06bb88db9010000000000000000000000000000000000000000000000000000000000000000000000000000000000000000000000000000000000000000000000000000000000000000000000000000000000000000000000000000000000000000000000000000000000000000000000000000000000000000000000000000000000000000000000000000000000000000000000000000000000000000000000000000000000000000000000000000000000000000000000000000000000000000000000000000000000000000000000000000000000000000000000000000000000000000000000000000000000000000000000000000000000000000000000000000000000830200000184e9f2bf40840ee6b2808203e880a0a14c3fe3c662780eb4ee78dbff81b117460e34628981d574d58ca4c5b81e8a0a881b80d3202fac9654f863f8618001840ee6b28094bbbf5374fce5edbc8e2a8697c15331677e6ebf0b0a801ca059a4b49695baa04705375b29fcf0cfc663d0c3da6c748b0a1f6cab3158c4ff37a05b8cf80c815cb88b89b4e36f05acf96449cf50a69119f5a5b206d80cee938c69c0",
                "transactions" : [
                    {
                        "data" : "",
                        "gasLimit" : "0x0ee6b280",
                        "gasPrice" : "0x01",
                        "nonce" : "0x00",
                        "r" : "0x59a4b49695baa04705375b29fcf0cfc663d0c3da6c748b0a1f6cab3158c4ff37",
                        "s" : "0x5b8cf80c815cb88b89b4e36f05acf96449cf50a69119f5a5b206d80cee938c69",
                        "to" : "0xbbbf5374fce5edbc8e2a8697c15331677e6ebf0b",
                        "v" : "0x1c",
                        "value" : "0x0a"
                    }
                ],
                "uncleHeaders" : [
                ]
            }
        ],
        "genesisBlockHeader" : {
            "bloom" : "0x00000000000000000000000000000000000000000000000000000000000000000000000000000000000000000000000000000000000000000000000000000000000000000000000000000000000000000000000000000000000000000000000000000000000000000000000000000000000000000000000000000000000000000000000000000000000000000000000000000000000000000000000000000000000000000000000000000000000000000000000000000000000000000000000000000000000000000000000000000000000000000000000000000000000000000000000000000000000000000000000000000000000000000000000000000000",
            "coinbase" : "0xb94f5374fce5edbc8e2a8697c15331677e6ebf0b",
            "difficulty" : "0x020000",
            "extraData" : "0x42",
            "gasLimit" : "0xe9f2bf40",
            "gasUsed" : "0x00",
            "hash" : "0xc521bae8d3a4da2feedfaf4151a2b31ddef0c4cbd4a902cc51d1134f96e4ba42",
            "mixHash" : "0x56e81f171bcc55a6ff8345e692c0f86e5b48e01b996cadc001622fb5e363b421",
            "nonce" : "0x0102030405060708",
            "number" : "0x00",
            "parentHash" : "0x0000000000000000000000000000000000000000000000000000000000000000",
            "receiptTrie" : "0x56e81f171bcc55a6ff8345e692c0f86e5b48e01b996cadc001622fb5e363b421",
            "stateRoot" : "0x711cf59818320be29b0d4240eb14a2a18c3d724d6235036ff2b86c65dee474f8",
            "timestamp" : "0x03b6",
            "transactionsTrie" : "0x56e81f171bcc55a6ff8345e692c0f86e5b48e01b996cadc001622fb5e363b421",
            "uncleHash" : "0x1dcc4de8dec75d7aab85b567b6ccd41ad312451b948a7413f0a142fd40d49347"
        },
        "genesisRLP" : "0xf901fbf901f6a00000000000000000000000000000000000000000000000000000000000000000a01dcc4de8dec75d7aab85b567b6ccd41ad312451b948a7413f0a142fd40d4934794b94f5374fce5edbc8e2a8697c15331677e6ebf0ba0711cf59818320be29b0d4240eb14a2a18c3d724d6235036ff2b86c65dee474f8a056e81f171bcc55a6ff8345e692c0f86e5b48e01b996cadc001622fb5e363b421a056e81f171bcc55a6ff8345e692c0f86e5b48e01b996cadc001622fb5e363b421b9010000000000000000000000000000000000000000000000000000000000000000000000000000000000000000000000000000000000000000000000000000000000000000000000000000000000000000000000000000000000000000000000000000000000000000000000000000000000000000000000000000000000000000000000000000000000000000000000000000000000000000000000000000000000000000000000000000000000000000000000000000000000000000000000000000000000000000000000000000000000000000000000000000000000000000000000000000000000000000000000000000000000000000000000000000000000830200008084e9f2bf40808203b642a056e81f171bcc55a6ff8345e692c0f86e5b48e01b996cadc001622fb5e363b421880102030405060708c0c0",
        "lastblockhash" : "0x293165b528e809dc39efa8e79eb04a8aa605304fd014051ed2de4e19566a5725",
        "network" : "Frontier",
        "postState" : {
            "0xa94f5374fce5edbc8e2a8697c15331677e6ebf0b" : {
                "balance" : "0xfffffffffffffffffffffffff1194d7f",
                "code" : "",
                "nonce" : "0x01",
                "storage" : {
                }
            },
            "0xb94f5374fce5edbc8e2a8697c15331677e6ebf0b" : {
                "balance" : "0x4563918253dab280",
                "code" : "",
                "nonce" : "0x00",
                "storage" : {
                }
            },
            "0xbbbf5374fce5edbc8e2a8697c15331677e6ebf0b" : {
                "balance" : "0x0fffffffffffff",
                "code" : "0x5b61c3506080511015602d576000600061c35060006001600362013178f16000556001608051016080526000565b608051600155",
                "nonce" : "0x00",
                "storage" : {
                }
            }
        },
        "pre" : {
            "0xa94f5374fce5edbc8e2a8697c15331677e6ebf0b" : {
                "balance" : "0xffffffffffffffffffffffffffffffff",
                "code" : "",
                "nonce" : "0x00",
                "storage" : {
                }
            },
            "0xbbbf5374fce5edbc8e2a8697c15331677e6ebf0b" : {
                "balance" : "0x0fffffffffffff",
                "code" : "0x5b61c3506080511015602d576000600061c35060006001600362013178f16000556001608051016080526000565b608051600155",
                "nonce" : "0x00",
                "storage" : {
                }
            }
        }
    },
    "Call50000_rip160_d0g1v0_Homestead" : {
        "_info" : {
            "comment" : "",
            "filledwith" : "cpp-1.3.0+commit.6e0ce939.Linux.g++",
            "lllcversion" : "Version: 0.4.18-develop.2017.9.25+commit.a72237f2.Linux.g++",
            "source" : "src/BlockchainTestsFiller/GeneralStateTests/stQuadraticComplexityTest/Call50000_rip160_d0g1v0Filler.json",
            "sourceHash" : "2a6ec1aefba5ba07b417890b85daa04c4032e92605274e0e0b6f59dd2062fa51"
        },
        "blocks" : [
            {
                "blockHeader" : {
                    "bloom" : "0x00000000000000000000000000000000000000000000000000000000000000000000000000000000000000000000000000000000000000000000000000000000000000000000000000000000000000000000000000000000000000000000000000000000000000000000000000000000000000000000000000000000000000000000000000000000000000000000000000000000000000000000000000000000000000000000000000000000000000000000000000000000000000000000000000000000000000000000000000000000000000000000000000000000000000000000000000000000000000000000000000000000000000000000000000000000",
                    "coinbase" : "0xb94f5374fce5edbc8e2a8697c15331677e6ebf0b",
                    "difficulty" : "0x020000",
                    "extraData" : "",
                    "gasLimit" : "0xe9f2bf40",
                    "gasUsed" : "0x0ee6b280",
                    "hash" : "0x68efcdc2faa698d42cc587450d95fd11388f7111898d573dd8346c7dbfbaed06",
                    "mixHash" : "0x616c9ebb437e46b4e7cdf470879c8d234111741eef48f120e9dcae9339c0f072",
                    "nonce" : "0x9341b326c4386347",
                    "number" : "0x01",
                    "parentHash" : "0xc521bae8d3a4da2feedfaf4151a2b31ddef0c4cbd4a902cc51d1134f96e4ba42",
                    "receiptTrie" : "0xde9f2379fbe21ba1a0274dc6267e528589df8ee102203c2f6ceca731c06bb88d",
                    "stateRoot" : "0xc6cd178284af3201f54c5538b700b3ac34c9e9a1211a41f1af9edca606a1fbea",
                    "timestamp" : "0x03e8",
                    "transactionsTrie" : "0x11d570905f32c46c526a712794d2d4a5e35176ac6de48c8328c5ffe7aaeb10e8",
                    "uncleHash" : "0x1dcc4de8dec75d7aab85b567b6ccd41ad312451b948a7413f0a142fd40d49347"
                },
                "rlp" : "0xf90263f901faa0c521bae8d3a4da2feedfaf4151a2b31ddef0c4cbd4a902cc51d1134f96e4ba42a01dcc4de8dec75d7aab85b567b6ccd41ad312451b948a7413f0a142fd40d4934794b94f5374fce5edbc8e2a8697c15331677e6ebf0ba0c6cd178284af3201f54c5538b700b3ac34c9e9a1211a41f1af9edca606a1fbeaa011d570905f32c46c526a712794d2d4a5e35176ac6de48c8328c5ffe7aaeb10e8a0de9f2379fbe21ba1a0274dc6267e528589df8ee102203c2f6ceca731c06bb88db9010000000000000000000000000000000000000000000000000000000000000000000000000000000000000000000000000000000000000000000000000000000000000000000000000000000000000000000000000000000000000000000000000000000000000000000000000000000000000000000000000000000000000000000000000000000000000000000000000000000000000000000000000000000000000000000000000000000000000000000000000000000000000000000000000000000000000000000000000000000000000000000000000000000000000000000000000000000000000000000000000000000000000000000000000000000000830200000184e9f2bf40840ee6b2808203e880a0616c9ebb437e46b4e7cdf470879c8d234111741eef48f120e9dcae9339c0f072889341b326c4386347f863f8618001840ee6b28094bbbf5374fce5edbc8e2a8697c15331677e6ebf0b0a801ca059a4b49695baa04705375b29fcf0cfc663d0c3da6c748b0a1f6cab3158c4ff37a05b8cf80c815cb88b89b4e36f05acf96449cf50a69119f5a5b206d80cee938c69c0",
                "transactions" : [
                    {
                        "data" : "",
                        "gasLimit" : "0x0ee6b280",
                        "gasPrice" : "0x01",
                        "nonce" : "0x00",
                        "r" : "0x59a4b49695baa04705375b29fcf0cfc663d0c3da6c748b0a1f6cab3158c4ff37",
                        "s" : "0x5b8cf80c815cb88b89b4e36f05acf96449cf50a69119f5a5b206d80cee938c69",
                        "to" : "0xbbbf5374fce5edbc8e2a8697c15331677e6ebf0b",
                        "v" : "0x1c",
                        "value" : "0x0a"
                    }
                ],
                "uncleHeaders" : [
                ]
            }
        ],
        "genesisBlockHeader" : {
            "bloom" : "0x00000000000000000000000000000000000000000000000000000000000000000000000000000000000000000000000000000000000000000000000000000000000000000000000000000000000000000000000000000000000000000000000000000000000000000000000000000000000000000000000000000000000000000000000000000000000000000000000000000000000000000000000000000000000000000000000000000000000000000000000000000000000000000000000000000000000000000000000000000000000000000000000000000000000000000000000000000000000000000000000000000000000000000000000000000000",
            "coinbase" : "0xb94f5374fce5edbc8e2a8697c15331677e6ebf0b",
            "difficulty" : "0x020000",
            "extraData" : "0x42",
            "gasLimit" : "0xe9f2bf40",
            "gasUsed" : "0x00",
            "hash" : "0xc521bae8d3a4da2feedfaf4151a2b31ddef0c4cbd4a902cc51d1134f96e4ba42",
            "mixHash" : "0x56e81f171bcc55a6ff8345e692c0f86e5b48e01b996cadc001622fb5e363b421",
            "nonce" : "0x0102030405060708",
            "number" : "0x00",
            "parentHash" : "0x0000000000000000000000000000000000000000000000000000000000000000",
            "receiptTrie" : "0x56e81f171bcc55a6ff8345e692c0f86e5b48e01b996cadc001622fb5e363b421",
            "stateRoot" : "0x711cf59818320be29b0d4240eb14a2a18c3d724d6235036ff2b86c65dee474f8",
            "timestamp" : "0x03b6",
            "transactionsTrie" : "0x56e81f171bcc55a6ff8345e692c0f86e5b48e01b996cadc001622fb5e363b421",
            "uncleHash" : "0x1dcc4de8dec75d7aab85b567b6ccd41ad312451b948a7413f0a142fd40d49347"
        },
        "genesisRLP" : "0xf901fbf901f6a00000000000000000000000000000000000000000000000000000000000000000a01dcc4de8dec75d7aab85b567b6ccd41ad312451b948a7413f0a142fd40d4934794b94f5374fce5edbc8e2a8697c15331677e6ebf0ba0711cf59818320be29b0d4240eb14a2a18c3d724d6235036ff2b86c65dee474f8a056e81f171bcc55a6ff8345e692c0f86e5b48e01b996cadc001622fb5e363b421a056e81f171bcc55a6ff8345e692c0f86e5b48e01b996cadc001622fb5e363b421b9010000000000000000000000000000000000000000000000000000000000000000000000000000000000000000000000000000000000000000000000000000000000000000000000000000000000000000000000000000000000000000000000000000000000000000000000000000000000000000000000000000000000000000000000000000000000000000000000000000000000000000000000000000000000000000000000000000000000000000000000000000000000000000000000000000000000000000000000000000000000000000000000000000000000000000000000000000000000000000000000000000000000000000000000000000000000830200008084e9f2bf40808203b642a056e81f171bcc55a6ff8345e692c0f86e5b48e01b996cadc001622fb5e363b421880102030405060708c0c0",
        "lastblockhash" : "0x68efcdc2faa698d42cc587450d95fd11388f7111898d573dd8346c7dbfbaed06",
        "network" : "Homestead",
        "postState" : {
            "0xa94f5374fce5edbc8e2a8697c15331677e6ebf0b" : {
                "balance" : "0xfffffffffffffffffffffffff1194d7f",
                "code" : "",
                "nonce" : "0x01",
                "storage" : {
                }
            },
            "0xb94f5374fce5edbc8e2a8697c15331677e6ebf0b" : {
                "balance" : "0x4563918253dab280",
                "code" : "",
                "nonce" : "0x00",
                "storage" : {
                }
            },
            "0xbbbf5374fce5edbc8e2a8697c15331677e6ebf0b" : {
                "balance" : "0x0fffffffffffff",
                "code" : "0x5b61c3506080511015602d576000600061c35060006001600362013178f16000556001608051016080526000565b608051600155",
                "nonce" : "0x00",
                "storage" : {
                }
            }
        },
        "pre" : {
            "0xa94f5374fce5edbc8e2a8697c15331677e6ebf0b" : {
                "balance" : "0xffffffffffffffffffffffffffffffff",
                "code" : "",
                "nonce" : "0x00",
                "storage" : {
                }
            },
            "0xbbbf5374fce5edbc8e2a8697c15331677e6ebf0b" : {
                "balance" : "0x0fffffffffffff",
                "code" : "0x5b61c3506080511015602d576000600061c35060006001600362013178f16000556001608051016080526000565b608051600155",
                "nonce" : "0x00",
                "storage" : {
                }
            }
        }
    }
}