{
    "Call50000_sha256_d0g0v0_Byzantium" : {
        "_info" : {
            "comment" : "",
            "filledwith" : "cpp-1.3.0+commit.6e0ce939.Linux.g++",
            "lllcversion" : "Version: 0.4.18-develop.2017.9.25+commit.a72237f2.Linux.g++",
            "source" : "src/BlockchainTestsFiller/GeneralStateTests/stQuadraticComplexityTest/Call50000_sha256_d0g0v0Filler.json",
            "sourceHash" : "be03375fa16a8970c2cd476eaf87b71ee161da48a0ad0fe1e31f10f80e4a3260"
        },
        "blocks" : [
            {
                "blockHeader" : {
                    "bloom" : "0x00000000000000000000000000000000000000000000000000000000000000000000000000000000000000000000000000000000000000000000000000000000000000000000000000000000000000000000000000000000000000000000000000000000000000000000000000000000000000000000000000000000000000000000000000000000000000000000000000000000000000000000000000000000000000000000000000000000000000000000000000000000000000000000000000000000000000000000000000000000000000000000000000000000000000000000000000000000000000000000000000000000000000000000000000000000",
                    "coinbase" : "0xb94f5374fce5edbc8e2a8697c15331677e6ebf0b",
                    "difficulty" : "0x020000",
                    "extraData" : "",
                    "gasLimit" : "0xe9f2bf40",
                    "gasUsed" : "0x0249f0",
                    "hash" : "0x994f9d5af654f97e186063a3ec09ca74f238c2e3cf83851e0111103e81959350",
                    "mixHash" : "0xe3ad83fc58744b6cb22a41d6be5ed664fa86a11ddc4afecf4a8967518f2753d1",
                    "nonce" : "0x15f6315160391777",
                    "number" : "0x01",
                    "parentHash" : "0xe3a2bc5818b06e59a8f2caaf93caba9d2cf12e17af80f968df72a20db6909057",
                    "receiptTrie" : "0xa0e10907f175886de9bd8cd4ac2c21d1db4109a3a9fecf60f54015ee102803fd",
                    "stateRoot" : "0x2b21a1ae6a537cd7d4fc5160e6428092a435794f860e6ca5b199846e74088102",
                    "timestamp" : "0x03e8",
                    "transactionsTrie" : "0xa0ec2fa38ce491778e1b6da60eba5927ecd92ad8cde4a3d964deef99110e1b29",
                    "uncleHash" : "0x1dcc4de8dec75d7aab85b567b6ccd41ad312451b948a7413f0a142fd40d49347"
                },
                "rlp" : "0xf90261f901f9a0e3a2bc5818b06e59a8f2caaf93caba9d2cf12e17af80f968df72a20db6909057a01dcc4de8dec75d7aab85b567b6ccd41ad312451b948a7413f0a142fd40d4934794b94f5374fce5edbc8e2a8697c15331677e6ebf0ba02b21a1ae6a537cd7d4fc5160e6428092a435794f860e6ca5b199846e74088102a0a0ec2fa38ce491778e1b6da60eba5927ecd92ad8cde4a3d964deef99110e1b29a0a0e10907f175886de9bd8cd4ac2c21d1db4109a3a9fecf60f54015ee102803fdb9010000000000000000000000000000000000000000000000000000000000000000000000000000000000000000000000000000000000000000000000000000000000000000000000000000000000000000000000000000000000000000000000000000000000000000000000000000000000000000000000000000000000000000000000000000000000000000000000000000000000000000000000000000000000000000000000000000000000000000000000000000000000000000000000000000000000000000000000000000000000000000000000000000000000000000000000000000000000000000000000000000000000000000000000000000000000830200000184e9f2bf40830249f08203e880a0e3ad83fc58744b6cb22a41d6be5ed664fa86a11ddc4afecf4a8967518f2753d18815f6315160391777f862f8608001830249f094bbbf5374fce5edbc8e2a8697c15331677e6ebf0b0a801ba020bc21bc6aadd85fed142b7b980799d44c5d6f1ec8f3e1e2cb97dc68880e4795a0603fbf089643eb78e7e7ad708eded071087c93a23dba3c56c9704465d2a69207c0",
                "transactions" : [
                    {
                        "data" : "",
                        "gasLimit" : "0x0249f0",
                        "gasPrice" : "0x01",
                        "nonce" : "0x00",
                        "r" : "0x20bc21bc6aadd85fed142b7b980799d44c5d6f1ec8f3e1e2cb97dc68880e4795",
                        "s" : "0x603fbf089643eb78e7e7ad708eded071087c93a23dba3c56c9704465d2a69207",
                        "to" : "0xbbbf5374fce5edbc8e2a8697c15331677e6ebf0b",
                        "v" : "0x1b",
                        "value" : "0x0a"
                    }
                ],
                "uncleHeaders" : [
                ]
            }
        ],
        "genesisBlockHeader" : {
            "bloom" : "0x00000000000000000000000000000000000000000000000000000000000000000000000000000000000000000000000000000000000000000000000000000000000000000000000000000000000000000000000000000000000000000000000000000000000000000000000000000000000000000000000000000000000000000000000000000000000000000000000000000000000000000000000000000000000000000000000000000000000000000000000000000000000000000000000000000000000000000000000000000000000000000000000000000000000000000000000000000000000000000000000000000000000000000000000000000000",
            "coinbase" : "0xb94f5374fce5edbc8e2a8697c15331677e6ebf0b",
            "difficulty" : "0x020000",
            "extraData" : "0x42",
            "gasLimit" : "0xe9f2bf40",
            "gasUsed" : "0x00",
            "hash" : "0xe3a2bc5818b06e59a8f2caaf93caba9d2cf12e17af80f968df72a20db6909057",
            "mixHash" : "0x56e81f171bcc55a6ff8345e692c0f86e5b48e01b996cadc001622fb5e363b421",
            "nonce" : "0x0102030405060708",
            "number" : "0x00",
            "parentHash" : "0x0000000000000000000000000000000000000000000000000000000000000000",
            "receiptTrie" : "0x56e81f171bcc55a6ff8345e692c0f86e5b48e01b996cadc001622fb5e363b421",
            "stateRoot" : "0x4fe08a4c33cf0418d679318456a9bb258dc22e5668e7dcb66cb57b719eca7f9d",
            "timestamp" : "0x03b6",
            "transactionsTrie" : "0x56e81f171bcc55a6ff8345e692c0f86e5b48e01b996cadc001622fb5e363b421",
            "uncleHash" : "0x1dcc4de8dec75d7aab85b567b6ccd41ad312451b948a7413f0a142fd40d49347"
        },
        "genesisRLP" : "0xf901fbf901f6a00000000000000000000000000000000000000000000000000000000000000000a01dcc4de8dec75d7aab85b567b6ccd41ad312451b948a7413f0a142fd40d4934794b94f5374fce5edbc8e2a8697c15331677e6ebf0ba04fe08a4c33cf0418d679318456a9bb258dc22e5668e7dcb66cb57b719eca7f9da056e81f171bcc55a6ff8345e692c0f86e5b48e01b996cadc001622fb5e363b421a056e81f171bcc55a6ff8345e692c0f86e5b48e01b996cadc001622fb5e363b421b9010000000000000000000000000000000000000000000000000000000000000000000000000000000000000000000000000000000000000000000000000000000000000000000000000000000000000000000000000000000000000000000000000000000000000000000000000000000000000000000000000000000000000000000000000000000000000000000000000000000000000000000000000000000000000000000000000000000000000000000000000000000000000000000000000000000000000000000000000000000000000000000000000000000000000000000000000000000000000000000000000000000000000000000000000000000000830200008084e9f2bf40808203b642a056e81f171bcc55a6ff8345e692c0f86e5b48e01b996cadc001622fb5e363b421880102030405060708c0c0",
        "lastblockhash" : "0x994f9d5af654f97e186063a3ec09ca74f238c2e3cf83851e0111103e81959350",
        "network" : "Byzantium",
        "postState" : {
            "0xa94f5374fce5edbc8e2a8697c15331677e6ebf0b" : {
                "balance" : "0xfffffffffffffffffffffffffffdb60f",
                "code" : "",
                "nonce" : "0x01",
                "storage" : {
                }
            },
            "0xb94f5374fce5edbc8e2a8697c15331677e6ebf0b" : {
                "balance" : "0x29a2241af62e49f0",
                "code" : "",
                "nonce" : "0x00",
                "storage" : {
                }
            },
            "0xbbbf5374fce5edbc8e2a8697c15331677e6ebf0b" : {
                "balance" : "0x0fffffffffffff",
                "code" : "0x5b61c3506080511015602d576000600061c35060006001600262013178f16000556001608051016080526000565b608051600155",
                "nonce" : "0x00",
                "storage" : {
                }
            }
        },
        "pre" : {
            "0xa94f5374fce5edbc8e2a8697c15331677e6ebf0b" : {
                "balance" : "0xffffffffffffffffffffffffffffffff",
                "code" : "",
                "nonce" : "0x00",
                "storage" : {
                }
            },
            "0xbbbf5374fce5edbc8e2a8697c15331677e6ebf0b" : {
                "balance" : "0x0fffffffffffff",
                "code" : "0x5b61c3506080511015602d576000600061c35060006001600262013178f16000556001608051016080526000565b608051600155",
                "nonce" : "0x00",
                "storage" : {
                }
            }
        }
    },
    "Call50000_sha256_d0g0v0_EIP150" : {
        "_info" : {
            "comment" : "",
            "filledwith" : "cpp-1.3.0+commit.6e0ce939.Linux.g++",
            "lllcversion" : "Version: 0.4.18-develop.2017.9.25+commit.a72237f2.Linux.g++",
            "source" : "src/BlockchainTestsFiller/GeneralStateTests/stQuadraticComplexityTest/Call50000_sha256_d0g0v0Filler.json",
            "sourceHash" : "be03375fa16a8970c2cd476eaf87b71ee161da48a0ad0fe1e31f10f80e4a3260"
        },
        "blocks" : [
            {
                "blockHeader" : {
                    "bloom" : "0x00000000000000000000000000000000000000000000000000000000000000000000000000000000000000000000000000000000000000000000000000000000000000000000000000000000000000000000000000000000000000000000000000000000000000000000000000000000000000000000000000000000000000000000000000000000000000000000000000000000000000000000000000000000000000000000000000000000000000000000000000000000000000000000000000000000000000000000000000000000000000000000000000000000000000000000000000000000000000000000000000000000000000000000000000000000",
                    "coinbase" : "0xb94f5374fce5edbc8e2a8697c15331677e6ebf0b",
                    "difficulty" : "0x020000",
                    "extraData" : "",
                    "gasLimit" : "0xe9f2bf40",
                    "gasUsed" : "0x0249f0",
                    "hash" : "0xb34ab1307beb59e23f9ea2fbb0f66702c90f5789f9680273914144a0eecc406e",
                    "mixHash" : "0xd565d00b2f0eaa6902557c6c18df9788d1f1adc4e8b56db20e35fab2facc8935",
                    "nonce" : "0x247a734a71b7b260",
                    "number" : "0x01",
                    "parentHash" : "0xe3a2bc5818b06e59a8f2caaf93caba9d2cf12e17af80f968df72a20db6909057",
                    "receiptTrie" : "0x3371a506770ba1afe0050cad2ce36090f10796626c74fadf61d929ba7c23afed",
                    "stateRoot" : "0xfb02332e16ce0d3fd001c4876eabf411e5f7b9eb5606253a1fd486181a05c830",
                    "timestamp" : "0x03e8",
                    "transactionsTrie" : "0xa0ec2fa38ce491778e1b6da60eba5927ecd92ad8cde4a3d964deef99110e1b29",
                    "uncleHash" : "0x1dcc4de8dec75d7aab85b567b6ccd41ad312451b948a7413f0a142fd40d49347"
                },
                "rlp" : "0xf90261f901f9a0e3a2bc5818b06e59a8f2caaf93caba9d2cf12e17af80f968df72a20db6909057a01dcc4de8dec75d7aab85b567b6ccd41ad312451b948a7413f0a142fd40d4934794b94f5374fce5edbc8e2a8697c15331677e6ebf0ba0fb02332e16ce0d3fd001c4876eabf411e5f7b9eb5606253a1fd486181a05c830a0a0ec2fa38ce491778e1b6da60eba5927ecd92ad8cde4a3d964deef99110e1b29a03371a506770ba1afe0050cad2ce36090f10796626c74fadf61d929ba7c23afedb9010000000000000000000000000000000000000000000000000000000000000000000000000000000000000000000000000000000000000000000000000000000000000000000000000000000000000000000000000000000000000000000000000000000000000000000000000000000000000000000000000000000000000000000000000000000000000000000000000000000000000000000000000000000000000000000000000000000000000000000000000000000000000000000000000000000000000000000000000000000000000000000000000000000000000000000000000000000000000000000000000000000000000000000000000000000000830200000184e9f2bf40830249f08203e880a0d565d00b2f0eaa6902557c6c18df9788d1f1adc4e8b56db20e35fab2facc893588247a734a71b7b260f862f8608001830249f094bbbf5374fce5edbc8e2a8697c15331677e6ebf0b0a801ba020bc21bc6aadd85fed142b7b980799d44c5d6f1ec8f3e1e2cb97dc68880e4795a0603fbf089643eb78e7e7ad708eded071087c93a23dba3c56c9704465d2a69207c0",
                "transactions" : [
                    {
                        "data" : "",
                        "gasLimit" : "0x0249f0",
                        "gasPrice" : "0x01",
                        "nonce" : "0x00",
                        "r" : "0x20bc21bc6aadd85fed142b7b980799d44c5d6f1ec8f3e1e2cb97dc68880e4795",
                        "s" : "0x603fbf089643eb78e7e7ad708eded071087c93a23dba3c56c9704465d2a69207",
                        "to" : "0xbbbf5374fce5edbc8e2a8697c15331677e6ebf0b",
                        "v" : "0x1b",
                        "value" : "0x0a"
                    }
                ],
                "uncleHeaders" : [
                ]
            }
        ],
        "genesisBlockHeader" : {
            "bloom" : "0x00000000000000000000000000000000000000000000000000000000000000000000000000000000000000000000000000000000000000000000000000000000000000000000000000000000000000000000000000000000000000000000000000000000000000000000000000000000000000000000000000000000000000000000000000000000000000000000000000000000000000000000000000000000000000000000000000000000000000000000000000000000000000000000000000000000000000000000000000000000000000000000000000000000000000000000000000000000000000000000000000000000000000000000000000000000",
            "coinbase" : "0xb94f5374fce5edbc8e2a8697c15331677e6ebf0b",
            "difficulty" : "0x020000",
            "extraData" : "0x42",
            "gasLimit" : "0xe9f2bf40",
            "gasUsed" : "0x00",
            "hash" : "0xe3a2bc5818b06e59a8f2caaf93caba9d2cf12e17af80f968df72a20db6909057",
            "mixHash" : "0x56e81f171bcc55a6ff8345e692c0f86e5b48e01b996cadc001622fb5e363b421",
            "nonce" : "0x0102030405060708",
            "number" : "0x00",
            "parentHash" : "0x0000000000000000000000000000000000000000000000000000000000000000",
            "receiptTrie" : "0x56e81f171bcc55a6ff8345e692c0f86e5b48e01b996cadc001622fb5e363b421",
            "stateRoot" : "0x4fe08a4c33cf0418d679318456a9bb258dc22e5668e7dcb66cb57b719eca7f9d",
            "timestamp" : "0x03b6",
            "transactionsTrie" : "0x56e81f171bcc55a6ff8345e692c0f86e5b48e01b996cadc001622fb5e363b421",
            "uncleHash" : "0x1dcc4de8dec75d7aab85b567b6ccd41ad312451b948a7413f0a142fd40d49347"
        },
        "genesisRLP" : "0xf901fbf901f6a00000000000000000000000000000000000000000000000000000000000000000a01dcc4de8dec75d7aab85b567b6ccd41ad312451b948a7413f0a142fd40d4934794b94f5374fce5edbc8e2a8697c15331677e6ebf0ba04fe08a4c33cf0418d679318456a9bb258dc22e5668e7dcb66cb57b719eca7f9da056e81f171bcc55a6ff8345e692c0f86e5b48e01b996cadc001622fb5e363b421a056e81f171bcc55a6ff8345e692c0f86e5b48e01b996cadc001622fb5e363b421b9010000000000000000000000000000000000000000000000000000000000000000000000000000000000000000000000000000000000000000000000000000000000000000000000000000000000000000000000000000000000000000000000000000000000000000000000000000000000000000000000000000000000000000000000000000000000000000000000000000000000000000000000000000000000000000000000000000000000000000000000000000000000000000000000000000000000000000000000000000000000000000000000000000000000000000000000000000000000000000000000000000000000000000000000000000000000830200008084e9f2bf40808203b642a056e81f171bcc55a6ff8345e692c0f86e5b48e01b996cadc001622fb5e363b421880102030405060708c0c0",
        "lastblockhash" : "0xb34ab1307beb59e23f9ea2fbb0f66702c90f5789f9680273914144a0eecc406e",
        "network" : "EIP150",
        "postState" : {
            "0xa94f5374fce5edbc8e2a8697c15331677e6ebf0b" : {
                "balance" : "0xfffffffffffffffffffffffffffdb60f",
                "code" : "",
                "nonce" : "0x01",
                "storage" : {
                }
            },
            "0xb94f5374fce5edbc8e2a8697c15331677e6ebf0b" : {
                "balance" : "0x4563918244f649f0",
                "code" : "",
                "nonce" : "0x00",
                "storage" : {
                }
            },
            "0xbbbf5374fce5edbc8e2a8697c15331677e6ebf0b" : {
                "balance" : "0x0fffffffffffff",
                "code" : "0x5b61c3506080511015602d576000600061c35060006001600262013178f16000556001608051016080526000565b608051600155",
                "nonce" : "0x00",
                "storage" : {
                }
            }
        },
        "pre" : {
            "0xa94f5374fce5edbc8e2a8697c15331677e6ebf0b" : {
                "balance" : "0xffffffffffffffffffffffffffffffff",
                "code" : "",
                "nonce" : "0x00",
                "storage" : {
                }
            },
            "0xbbbf5374fce5edbc8e2a8697c15331677e6ebf0b" : {
                "balance" : "0x0fffffffffffff",
                "code" : "0x5b61c3506080511015602d576000600061c35060006001600262013178f16000556001608051016080526000565b608051600155",
                "nonce" : "0x00",
                "storage" : {
                }
            }
        }
    },
    "Call50000_sha256_d0g0v0_EIP158" : {
        "_info" : {
            "comment" : "",
            "filledwith" : "cpp-1.3.0+commit.6e0ce939.Linux.g++",
            "lllcversion" : "Version: 0.4.18-develop.2017.9.25+commit.a72237f2.Linux.g++",
            "source" : "src/BlockchainTestsFiller/GeneralStateTests/stQuadraticComplexityTest/Call50000_sha256_d0g0v0Filler.json",
            "sourceHash" : "be03375fa16a8970c2cd476eaf87b71ee161da48a0ad0fe1e31f10f80e4a3260"
        },
        "blocks" : [
            {
                "blockHeader" : {
                    "bloom" : "0x00000000000000000000000000000000000000000000000000000000000000000000000000000000000000000000000000000000000000000000000000000000000000000000000000000000000000000000000000000000000000000000000000000000000000000000000000000000000000000000000000000000000000000000000000000000000000000000000000000000000000000000000000000000000000000000000000000000000000000000000000000000000000000000000000000000000000000000000000000000000000000000000000000000000000000000000000000000000000000000000000000000000000000000000000000000",
                    "coinbase" : "0xb94f5374fce5edbc8e2a8697c15331677e6ebf0b",
                    "difficulty" : "0x020000",
                    "extraData" : "",
                    "gasLimit" : "0xe9f2bf40",
                    "gasUsed" : "0x0249f0",
                    "hash" : "0xb834128678a92e148954f5ec814928257f9a1a90a3d7cf77544f47172f756c35",
                    "mixHash" : "0x247a55c16f14c13ea5b50bb4a5b6ae841131a1e4f61c80cd28c918fdb1f51682",
                    "nonce" : "0x92d911b72ef9044c",
                    "number" : "0x01",
                    "parentHash" : "0xe3a2bc5818b06e59a8f2caaf93caba9d2cf12e17af80f968df72a20db6909057",
                    "receiptTrie" : "0x3371a506770ba1afe0050cad2ce36090f10796626c74fadf61d929ba7c23afed",
                    "stateRoot" : "0xfb02332e16ce0d3fd001c4876eabf411e5f7b9eb5606253a1fd486181a05c830",
                    "timestamp" : "0x03e8",
                    "transactionsTrie" : "0xa0ec2fa38ce491778e1b6da60eba5927ecd92ad8cde4a3d964deef99110e1b29",
                    "uncleHash" : "0x1dcc4de8dec75d7aab85b567b6ccd41ad312451b948a7413f0a142fd40d49347"
                },
                "rlp" : "0xf90261f901f9a0e3a2bc5818b06e59a8f2caaf93caba9d2cf12e17af80f968df72a20db6909057a01dcc4de8dec75d7aab85b567b6ccd41ad312451b948a7413f0a142fd40d4934794b94f5374fce5edbc8e2a8697c15331677e6ebf0ba0fb02332e16ce0d3fd001c4876eabf411e5f7b9eb5606253a1fd486181a05c830a0a0ec2fa38ce491778e1b6da60eba5927ecd92ad8cde4a3d964deef99110e1b29a03371a506770ba1afe0050cad2ce36090f10796626c74fadf61d929ba7c23afedb9010000000000000000000000000000000000000000000000000000000000000000000000000000000000000000000000000000000000000000000000000000000000000000000000000000000000000000000000000000000000000000000000000000000000000000000000000000000000000000000000000000000000000000000000000000000000000000000000000000000000000000000000000000000000000000000000000000000000000000000000000000000000000000000000000000000000000000000000000000000000000000000000000000000000000000000000000000000000000000000000000000000000000000000000000000000000830200000184e9f2bf40830249f08203e880a0247a55c16f14c13ea5b50bb4a5b6ae841131a1e4f61c80cd28c918fdb1f516828892d911b72ef9044cf862f8608001830249f094bbbf5374fce5edbc8e2a8697c15331677e6ebf0b0a801ba020bc21bc6aadd85fed142b7b980799d44c5d6f1ec8f3e1e2cb97dc68880e4795a0603fbf089643eb78e7e7ad708eded071087c93a23dba3c56c9704465d2a69207c0",
                "transactions" : [
                    {
                        "data" : "",
                        "gasLimit" : "0x0249f0",
                        "gasPrice" : "0x01",
                        "nonce" : "0x00",
                        "r" : "0x20bc21bc6aadd85fed142b7b980799d44c5d6f1ec8f3e1e2cb97dc68880e4795",
                        "s" : "0x603fbf089643eb78e7e7ad708eded071087c93a23dba3c56c9704465d2a69207",
                        "to" : "0xbbbf5374fce5edbc8e2a8697c15331677e6ebf0b",
                        "v" : "0x1b",
                        "value" : "0x0a"
                    }
                ],
                "uncleHeaders" : [
                ]
            }
        ],
        "genesisBlockHeader" : {
            "bloom" : "0x00000000000000000000000000000000000000000000000000000000000000000000000000000000000000000000000000000000000000000000000000000000000000000000000000000000000000000000000000000000000000000000000000000000000000000000000000000000000000000000000000000000000000000000000000000000000000000000000000000000000000000000000000000000000000000000000000000000000000000000000000000000000000000000000000000000000000000000000000000000000000000000000000000000000000000000000000000000000000000000000000000000000000000000000000000000",
            "coinbase" : "0xb94f5374fce5edbc8e2a8697c15331677e6ebf0b",
            "difficulty" : "0x020000",
            "extraData" : "0x42",
            "gasLimit" : "0xe9f2bf40",
            "gasUsed" : "0x00",
            "hash" : "0xe3a2bc5818b06e59a8f2caaf93caba9d2cf12e17af80f968df72a20db6909057",
            "mixHash" : "0x56e81f171bcc55a6ff8345e692c0f86e5b48e01b996cadc001622fb5e363b421",
            "nonce" : "0x0102030405060708",
            "number" : "0x00",
            "parentHash" : "0x0000000000000000000000000000000000000000000000000000000000000000",
            "receiptTrie" : "0x56e81f171bcc55a6ff8345e692c0f86e5b48e01b996cadc001622fb5e363b421",
            "stateRoot" : "0x4fe08a4c33cf0418d679318456a9bb258dc22e5668e7dcb66cb57b719eca7f9d",
            "timestamp" : "0x03b6",
            "transactionsTrie" : "0x56e81f171bcc55a6ff8345e692c0f86e5b48e01b996cadc001622fb5e363b421",
            "uncleHash" : "0x1dcc4de8dec75d7aab85b567b6ccd41ad312451b948a7413f0a142fd40d49347"
        },
        "genesisRLP" : "0xf901fbf901f6a00000000000000000000000000000000000000000000000000000000000000000a01dcc4de8dec75d7aab85b567b6ccd41ad312451b948a7413f0a142fd40d4934794b94f5374fce5edbc8e2a8697c15331677e6ebf0ba04fe08a4c33cf0418d679318456a9bb258dc22e5668e7dcb66cb57b719eca7f9da056e81f171bcc55a6ff8345e692c0f86e5b48e01b996cadc001622fb5e363b421a056e81f171bcc55a6ff8345e692c0f86e5b48e01b996cadc001622fb5e363b421b9010000000000000000000000000000000000000000000000000000000000000000000000000000000000000000000000000000000000000000000000000000000000000000000000000000000000000000000000000000000000000000000000000000000000000000000000000000000000000000000000000000000000000000000000000000000000000000000000000000000000000000000000000000000000000000000000000000000000000000000000000000000000000000000000000000000000000000000000000000000000000000000000000000000000000000000000000000000000000000000000000000000000000000000000000000000000830200008084e9f2bf40808203b642a056e81f171bcc55a6ff8345e692c0f86e5b48e01b996cadc001622fb5e363b421880102030405060708c0c0",
        "lastblockhash" : "0xb834128678a92e148954f5ec814928257f9a1a90a3d7cf77544f47172f756c35",
        "network" : "EIP158",
        "postState" : {
            "0xa94f5374fce5edbc8e2a8697c15331677e6ebf0b" : {
                "balance" : "0xfffffffffffffffffffffffffffdb60f",
                "code" : "",
                "nonce" : "0x01",
                "storage" : {
                }
            },
            "0xb94f5374fce5edbc8e2a8697c15331677e6ebf0b" : {
                "balance" : "0x4563918244f649f0",
                "code" : "",
                "nonce" : "0x00",
                "storage" : {
                }
            },
            "0xbbbf5374fce5edbc8e2a8697c15331677e6ebf0b" : {
                "balance" : "0x0fffffffffffff",
                "code" : "0x5b61c3506080511015602d576000600061c35060006001600262013178f16000556001608051016080526000565b608051600155",
                "nonce" : "0x00",
                "storage" : {
                }
            }
        },
        "pre" : {
            "0xa94f5374fce5edbc8e2a8697c15331677e6ebf0b" : {
                "balance" : "0xffffffffffffffffffffffffffffffff",
                "code" : "",
                "nonce" : "0x00",
                "storage" : {
                }
            },
            "0xbbbf5374fce5edbc8e2a8697c15331677e6ebf0b" : {
                "balance" : "0x0fffffffffffff",
                "code" : "0x5b61c3506080511015602d576000600061c35060006001600262013178f16000556001608051016080526000565b608051600155",
                "nonce" : "0x00",
                "storage" : {
                }
            }
        }
    },
    "Call50000_sha256_d0g0v0_Frontier" : {
        "_info" : {
            "comment" : "",
            "filledwith" : "cpp-1.3.0+commit.6e0ce939.Linux.g++",
            "lllcversion" : "Version: 0.4.18-develop.2017.9.25+commit.a72237f2.Linux.g++",
            "source" : "src/BlockchainTestsFiller/GeneralStateTests/stQuadraticComplexityTest/Call50000_sha256_d0g0v0Filler.json",
            "sourceHash" : "be03375fa16a8970c2cd476eaf87b71ee161da48a0ad0fe1e31f10f80e4a3260"
        },
        "blocks" : [
            {
                "blockHeader" : {
                    "bloom" : "0x00000000000000000000000000000000000000000000000000000000000000000000000000000000000000000000000000000000000000000000000000000000000000000000000000000000000000000000000000000000000000000000000000000000000000000000000000000000000000000000000000000000000000000000000000000000000000000000000000000000000000000000000000000000000000000000000000000000000000000000000000000000000000000000000000000000000000000000000000000000000000000000000000000000000000000000000000000000000000000000000000000000000000000000000000000000",
                    "coinbase" : "0xb94f5374fce5edbc8e2a8697c15331677e6ebf0b",
                    "difficulty" : "0x020000",
                    "extraData" : "",
                    "gasLimit" : "0xe9f2bf40",
                    "gasUsed" : "0x0249f0",
                    "hash" : "0x8d25ce88335e3cb32a8b2cc7e987e3e2067b6bd2cb7a18243c2d8e1a94fef80c",
                    "mixHash" : "0x41074b339b14a84719cb8c98e905306b9d9ec2cc70772d22ffb5970a10cc0ab7",
                    "nonce" : "0x267169d42594f11a",
                    "number" : "0x01",
                    "parentHash" : "0xe3a2bc5818b06e59a8f2caaf93caba9d2cf12e17af80f968df72a20db6909057",
                    "receiptTrie" : "0x3371a506770ba1afe0050cad2ce36090f10796626c74fadf61d929ba7c23afed",
                    "stateRoot" : "0xfb02332e16ce0d3fd001c4876eabf411e5f7b9eb5606253a1fd486181a05c830",
                    "timestamp" : "0x03e8",
                    "transactionsTrie" : "0xa0ec2fa38ce491778e1b6da60eba5927ecd92ad8cde4a3d964deef99110e1b29",
                    "uncleHash" : "0x1dcc4de8dec75d7aab85b567b6ccd41ad312451b948a7413f0a142fd40d49347"
                },
                "rlp" : "0xf90261f901f9a0e3a2bc5818b06e59a8f2caaf93caba9d2cf12e17af80f968df72a20db6909057a01dcc4de8dec75d7aab85b567b6ccd41ad312451b948a7413f0a142fd40d4934794b94f5374fce5edbc8e2a8697c15331677e6ebf0ba0fb02332e16ce0d3fd001c4876eabf411e5f7b9eb5606253a1fd486181a05c830a0a0ec2fa38ce491778e1b6da60eba5927ecd92ad8cde4a3d964deef99110e1b29a03371a506770ba1afe0050cad2ce36090f10796626c74fadf61d929ba7c23afedb9010000000000000000000000000000000000000000000000000000000000000000000000000000000000000000000000000000000000000000000000000000000000000000000000000000000000000000000000000000000000000000000000000000000000000000000000000000000000000000000000000000000000000000000000000000000000000000000000000000000000000000000000000000000000000000000000000000000000000000000000000000000000000000000000000000000000000000000000000000000000000000000000000000000000000000000000000000000000000000000000000000000000000000000000000000000000830200000184e9f2bf40830249f08203e880a041074b339b14a84719cb8c98e905306b9d9ec2cc70772d22ffb5970a10cc0ab788267169d42594f11af862f8608001830249f094bbbf5374fce5edbc8e2a8697c15331677e6ebf0b0a801ba020bc21bc6aadd85fed142b7b980799d44c5d6f1ec8f3e1e2cb97dc68880e4795a0603fbf089643eb78e7e7ad708eded071087c93a23dba3c56c9704465d2a69207c0",
                "transactions" : [
                    {
                        "data" : "",
                        "gasLimit" : "0x0249f0",
                        "gasPrice" : "0x01",
                        "nonce" : "0x00",
                        "r" : "0x20bc21bc6aadd85fed142b7b980799d44c5d6f1ec8f3e1e2cb97dc68880e4795",
                        "s" : "0x603fbf089643eb78e7e7ad708eded071087c93a23dba3c56c9704465d2a69207",
                        "to" : "0xbbbf5374fce5edbc8e2a8697c15331677e6ebf0b",
                        "v" : "0x1b",
                        "value" : "0x0a"
                    }
                ],
                "uncleHeaders" : [
                ]
            }
        ],
        "genesisBlockHeader" : {
            "bloom" : "0x00000000000000000000000000000000000000000000000000000000000000000000000000000000000000000000000000000000000000000000000000000000000000000000000000000000000000000000000000000000000000000000000000000000000000000000000000000000000000000000000000000000000000000000000000000000000000000000000000000000000000000000000000000000000000000000000000000000000000000000000000000000000000000000000000000000000000000000000000000000000000000000000000000000000000000000000000000000000000000000000000000000000000000000000000000000",
            "coinbase" : "0xb94f5374fce5edbc8e2a8697c15331677e6ebf0b",
            "difficulty" : "0x020000",
            "extraData" : "0x42",
            "gasLimit" : "0xe9f2bf40",
            "gasUsed" : "0x00",
            "hash" : "0xe3a2bc5818b06e59a8f2caaf93caba9d2cf12e17af80f968df72a20db6909057",
            "mixHash" : "0x56e81f171bcc55a6ff8345e692c0f86e5b48e01b996cadc001622fb5e363b421",
            "nonce" : "0x0102030405060708",
            "number" : "0x00",
            "parentHash" : "0x0000000000000000000000000000000000000000000000000000000000000000",
            "receiptTrie" : "0x56e81f171bcc55a6ff8345e692c0f86e5b48e01b996cadc001622fb5e363b421",
            "stateRoot" : "0x4fe08a4c33cf0418d679318456a9bb258dc22e5668e7dcb66cb57b719eca7f9d",
            "timestamp" : "0x03b6",
            "transactionsTrie" : "0x56e81f171bcc55a6ff8345e692c0f86e5b48e01b996cadc001622fb5e363b421",
            "uncleHash" : "0x1dcc4de8dec75d7aab85b567b6ccd41ad312451b948a7413f0a142fd40d49347"
        },
        "genesisRLP" : "0xf901fbf901f6a00000000000000000000000000000000000000000000000000000000000000000a01dcc4de8dec75d7aab85b567b6ccd41ad312451b948a7413f0a142fd40d4934794b94f5374fce5edbc8e2a8697c15331677e6ebf0ba04fe08a4c33cf0418d679318456a9bb258dc22e5668e7dcb66cb57b719eca7f9da056e81f171bcc55a6ff8345e692c0f86e5b48e01b996cadc001622fb5e363b421a056e81f171bcc55a6ff8345e692c0f86e5b48e01b996cadc001622fb5e363b421b9010000000000000000000000000000000000000000000000000000000000000000000000000000000000000000000000000000000000000000000000000000000000000000000000000000000000000000000000000000000000000000000000000000000000000000000000000000000000000000000000000000000000000000000000000000000000000000000000000000000000000000000000000000000000000000000000000000000000000000000000000000000000000000000000000000000000000000000000000000000000000000000000000000000000000000000000000000000000000000000000000000000000000000000000000000000000830200008084e9f2bf40808203b642a056e81f171bcc55a6ff8345e692c0f86e5b48e01b996cadc001622fb5e363b421880102030405060708c0c0",
        "lastblockhash" : "0x8d25ce88335e3cb32a8b2cc7e987e3e2067b6bd2cb7a18243c2d8e1a94fef80c",
        "network" : "Frontier",
        "postState" : {
            "0xa94f5374fce5edbc8e2a8697c15331677e6ebf0b" : {
                "balance" : "0xfffffffffffffffffffffffffffdb60f",
                "code" : "",
                "nonce" : "0x01",
                "storage" : {
                }
            },
            "0xb94f5374fce5edbc8e2a8697c15331677e6ebf0b" : {
                "balance" : "0x4563918244f649f0",
                "code" : "",
                "nonce" : "0x00",
                "storage" : {
                }
            },
            "0xbbbf5374fce5edbc8e2a8697c15331677e6ebf0b" : {
                "balance" : "0x0fffffffffffff",
                "code" : "0x5b61c3506080511015602d576000600061c35060006001600262013178f16000556001608051016080526000565b608051600155",
                "nonce" : "0x00",
                "storage" : {
                }
            }
        },
        "pre" : {
            "0xa94f5374fce5edbc8e2a8697c15331677e6ebf0b" : {
                "balance" : "0xffffffffffffffffffffffffffffffff",
                "code" : "",
                "nonce" : "0x00",
                "storage" : {
                }
            },
            "0xbbbf5374fce5edbc8e2a8697c15331677e6ebf0b" : {
                "balance" : "0x0fffffffffffff",
                "code" : "0x5b61c3506080511015602d576000600061c35060006001600262013178f16000556001608051016080526000565b608051600155",
                "nonce" : "0x00",
                "storage" : {
                }
            }
        }
    },
    "Call50000_sha256_d0g0v0_Homestead" : {
        "_info" : {
            "comment" : "",
            "filledwith" : "cpp-1.3.0+commit.6e0ce939.Linux.g++",
            "lllcversion" : "Version: 0.4.18-develop.2017.9.25+commit.a72237f2.Linux.g++",
            "source" : "src/BlockchainTestsFiller/GeneralStateTests/stQuadraticComplexityTest/Call50000_sha256_d0g0v0Filler.json",
            "sourceHash" : "be03375fa16a8970c2cd476eaf87b71ee161da48a0ad0fe1e31f10f80e4a3260"
        },
        "blocks" : [
            {
                "blockHeader" : {
                    "bloom" : "0x00000000000000000000000000000000000000000000000000000000000000000000000000000000000000000000000000000000000000000000000000000000000000000000000000000000000000000000000000000000000000000000000000000000000000000000000000000000000000000000000000000000000000000000000000000000000000000000000000000000000000000000000000000000000000000000000000000000000000000000000000000000000000000000000000000000000000000000000000000000000000000000000000000000000000000000000000000000000000000000000000000000000000000000000000000000",
                    "coinbase" : "0xb94f5374fce5edbc8e2a8697c15331677e6ebf0b",
                    "difficulty" : "0x020000",
                    "extraData" : "",
                    "gasLimit" : "0xe9f2bf40",
                    "gasUsed" : "0x0249f0",
                    "hash" : "0xa9d84f2fedb49237a071d008314d8804aebd67030d117cba292c3170fd4d6e78",
                    "mixHash" : "0xbc8bc62997090f9bc137b6afa561c909501b800913696f23993a151eb23bc142",
                    "nonce" : "0x08627f4bd54fe8e6",
                    "number" : "0x01",
                    "parentHash" : "0xe3a2bc5818b06e59a8f2caaf93caba9d2cf12e17af80f968df72a20db6909057",
                    "receiptTrie" : "0x3371a506770ba1afe0050cad2ce36090f10796626c74fadf61d929ba7c23afed",
                    "stateRoot" : "0xfb02332e16ce0d3fd001c4876eabf411e5f7b9eb5606253a1fd486181a05c830",
                    "timestamp" : "0x03e8",
                    "transactionsTrie" : "0xa0ec2fa38ce491778e1b6da60eba5927ecd92ad8cde4a3d964deef99110e1b29",
                    "uncleHash" : "0x1dcc4de8dec75d7aab85b567b6ccd41ad312451b948a7413f0a142fd40d49347"
                },
                "rlp" : "0xf90261f901f9a0e3a2bc5818b06e59a8f2caaf93caba9d2cf12e17af80f968df72a20db6909057a01dcc4de8dec75d7aab85b567b6ccd41ad312451b948a7413f0a142fd40d4934794b94f5374fce5edbc8e2a8697c15331677e6ebf0ba0fb02332e16ce0d3fd001c4876eabf411e5f7b9eb5606253a1fd486181a05c830a0a0ec2fa38ce491778e1b6da60eba5927ecd92ad8cde4a3d964deef99110e1b29a03371a506770ba1afe0050cad2ce36090f10796626c74fadf61d929ba7c23afedb9010000000000000000000000000000000000000000000000000000000000000000000000000000000000000000000000000000000000000000000000000000000000000000000000000000000000000000000000000000000000000000000000000000000000000000000000000000000000000000000000000000000000000000000000000000000000000000000000000000000000000000000000000000000000000000000000000000000000000000000000000000000000000000000000000000000000000000000000000000000000000000000000000000000000000000000000000000000000000000000000000000000000000000000000000000000000830200000184e9f2bf40830249f08203e880a0bc8bc62997090f9bc137b6afa561c909501b800913696f23993a151eb23bc1428808627f4bd54fe8e6f862f8608001830249f094bbbf5374fce5edbc8e2a8697c15331677e6ebf0b0a801ba020bc21bc6aadd85fed142b7b980799d44c5d6f1ec8f3e1e2cb97dc68880e4795a0603fbf089643eb78e7e7ad708eded071087c93a23dba3c56c9704465d2a69207c0",
                "transactions" : [
                    {
                        "data" : "",
                        "gasLimit" : "0x0249f0",
                        "gasPrice" : "0x01",
                        "nonce" : "0x00",
                        "r" : "0x20bc21bc6aadd85fed142b7b980799d44c5d6f1ec8f3e1e2cb97dc68880e4795",
                        "s" : "0x603fbf089643eb78e7e7ad708eded071087c93a23dba3c56c9704465d2a69207",
                        "to" : "0xbbbf5374fce5edbc8e2a8697c15331677e6ebf0b",
                        "v" : "0x1b",
                        "value" : "0x0a"
                    }
                ],
                "uncleHeaders" : [
                ]
            }
        ],
        "genesisBlockHeader" : {
            "bloom" : "0x00000000000000000000000000000000000000000000000000000000000000000000000000000000000000000000000000000000000000000000000000000000000000000000000000000000000000000000000000000000000000000000000000000000000000000000000000000000000000000000000000000000000000000000000000000000000000000000000000000000000000000000000000000000000000000000000000000000000000000000000000000000000000000000000000000000000000000000000000000000000000000000000000000000000000000000000000000000000000000000000000000000000000000000000000000000",
            "coinbase" : "0xb94f5374fce5edbc8e2a8697c15331677e6ebf0b",
            "difficulty" : "0x020000",
            "extraData" : "0x42",
            "gasLimit" : "0xe9f2bf40",
            "gasUsed" : "0x00",
            "hash" : "0xe3a2bc5818b06e59a8f2caaf93caba9d2cf12e17af80f968df72a20db6909057",
            "mixHash" : "0x56e81f171bcc55a6ff8345e692c0f86e5b48e01b996cadc001622fb5e363b421",
            "nonce" : "0x0102030405060708",
            "number" : "0x00",
            "parentHash" : "0x0000000000000000000000000000000000000000000000000000000000000000",
            "receiptTrie" : "0x56e81f171bcc55a6ff8345e692c0f86e5b48e01b996cadc001622fb5e363b421",
            "stateRoot" : "0x4fe08a4c33cf0418d679318456a9bb258dc22e5668e7dcb66cb57b719eca7f9d",
            "timestamp" : "0x03b6",
            "transactionsTrie" : "0x56e81f171bcc55a6ff8345e692c0f86e5b48e01b996cadc001622fb5e363b421",
            "uncleHash" : "0x1dcc4de8dec75d7aab85b567b6ccd41ad312451b948a7413f0a142fd40d49347"
        },
        "genesisRLP" : "0xf901fbf901f6a00000000000000000000000000000000000000000000000000000000000000000a01dcc4de8dec75d7aab85b567b6ccd41ad312451b948a7413f0a142fd40d4934794b94f5374fce5edbc8e2a8697c15331677e6ebf0ba04fe08a4c33cf0418d679318456a9bb258dc22e5668e7dcb66cb57b719eca7f9da056e81f171bcc55a6ff8345e692c0f86e5b48e01b996cadc001622fb5e363b421a056e81f171bcc55a6ff8345e692c0f86e5b48e01b996cadc001622fb5e363b421b9010000000000000000000000000000000000000000000000000000000000000000000000000000000000000000000000000000000000000000000000000000000000000000000000000000000000000000000000000000000000000000000000000000000000000000000000000000000000000000000000000000000000000000000000000000000000000000000000000000000000000000000000000000000000000000000000000000000000000000000000000000000000000000000000000000000000000000000000000000000000000000000000000000000000000000000000000000000000000000000000000000000000000000000000000000000000830200008084e9f2bf40808203b642a056e81f171bcc55a6ff8345e692c0f86e5b48e01b996cadc001622fb5e363b421880102030405060708c0c0",
        "lastblockhash" : "0xa9d84f2fedb49237a071d008314d8804aebd67030d117cba292c3170fd4d6e78",
        "network" : "Homestead",
        "postState" : {
            "0xa94f5374fce5edbc8e2a8697c15331677e6ebf0b" : {
                "balance" : "0xfffffffffffffffffffffffffffdb60f",
                "code" : "",
                "nonce" : "0x01",
                "storage" : {
                }
            },
            "0xb94f5374fce5edbc8e2a8697c15331677e6ebf0b" : {
                "balance" : "0x4563918244f649f0",
                "code" : "",
                "nonce" : "0x00",
                "storage" : {
                }
            },
            "0xbbbf5374fce5edbc8e2a8697c15331677e6ebf0b" : {
                "balance" : "0x0fffffffffffff",
                "code" : "0x5b61c3506080511015602d576000600061c35060006001600262013178f16000556001608051016080526000565b608051600155",
                "nonce" : "0x00",
                "storage" : {
                }
            }
        },
        "pre" : {
            "0xa94f5374fce5edbc8e2a8697c15331677e6ebf0b" : {
                "balance" : "0xffffffffffffffffffffffffffffffff",
                "code" : "",
                "nonce" : "0x00",
                "storage" : {
                }
            },
            "0xbbbf5374fce5edbc8e2a8697c15331677e6ebf0b" : {
                "balance" : "0x0fffffffffffff",
                "code" : "0x5b61c3506080511015602d576000600061c35060006001600262013178f16000556001608051016080526000565b608051600155",
                "nonce" : "0x00",
                "storage" : {
                }
            }
        }
    }
}