{
    "Create1000_d0g0v0_Byzantium" : {
        "_info" : {
            "comment" : "",
            "filledwith" : "cpp-1.3.0+commit.6e0ce939.Linux.g++",
            "lllcversion" : "Version: 0.4.18-develop.2017.9.25+commit.a72237f2.Linux.g++",
            "source" : "src/BlockchainTestsFiller/GeneralStateTests/stQuadraticComplexityTest/Create1000_d0g0v0Filler.json",
            "sourceHash" : "be80c7650d5d104bde3346a435990a31be0efe34ce60692b5da28c54cfad1620"
        },
        "blocks" : [
            {
                "blockHeader" : {
                    "bloom" : "0x00000000000000000000000000000000000000000000000000000000000000000000000000000000000000000000000000000000000000000000000000000000000000000000000000000000000000000000000000000000000000000000000000000000000000000000000000000000000000000000000000000000000000000000000000000000000000000000000000000000000000000000000000000000000000000000000000000000000000000000000000000000000000000000000000000000000000000000000000000000000000000000000000000000000000000000000000000000000000000000000000000000000000000000000000000000",
                    "coinbase" : "0xb94f5374fce5edbc8e2a8697c15331677e6ebf0b",
                    "difficulty" : "0x020000",
                    "extraData" : "",
                    "gasLimit" : "0x0200999600",
                    "gasUsed" : "0x0249f0",
                    "hash" : "0x1030c1fe97dac80ea05cf372f8b60d5be4a70dba81ee612f29dabf550594f720",
                    "mixHash" : "0x062e7c3f4e132d11446456a9c6fdc7977108db73d1768cddf71fa1ec35ea0cb0",
                    "nonce" : "0xf040cab86bfd237d",
                    "number" : "0x01",
                    "parentHash" : "0x82da4cdc9cd2496fd51732db6b341f35129715f05fd329c4f9c5f6bd79840db0",
                    "receiptTrie" : "0xa0e10907f175886de9bd8cd4ac2c21d1db4109a3a9fecf60f54015ee102803fd",
                    "stateRoot" : "0x70d7146aed300a0f4b3c075f305b238461659647c484ab11b9471b093482c737",
                    "timestamp" : "0x03e8",
                    "transactionsTrie" : "0xa0ec2fa38ce491778e1b6da60eba5927ecd92ad8cde4a3d964deef99110e1b29",
                    "uncleHash" : "0x1dcc4de8dec75d7aab85b567b6ccd41ad312451b948a7413f0a142fd40d49347"
                },
                "rlp" : "0xf90262f901faa082da4cdc9cd2496fd51732db6b341f35129715f05fd329c4f9c5f6bd79840db0a01dcc4de8dec75d7aab85b567b6ccd41ad312451b948a7413f0a142fd40d4934794b94f5374fce5edbc8e2a8697c15331677e6ebf0ba070d7146aed300a0f4b3c075f305b238461659647c484ab11b9471b093482c737a0a0ec2fa38ce491778e1b6da60eba5927ecd92ad8cde4a3d964deef99110e1b29a0a0e10907f175886de9bd8cd4ac2c21d1db4109a3a9fecf60f54015ee102803fdb90100000000000000000000000000000000000000000000000000000000000000000000000000000000000000000000000000000000000000000000000000000000000000000000000000000000000000000000000000000000000000000000000000000000000000000000000000000000000000000000000000000000000000000000000000000000000000000000000000000000000000000000000000000000000000000000000000000000000000000000000000000000000000000000000000000000000000000000000000000000000000000000000000000000000000000000000000000000000000000000000000000000000000000000000000000000008302000001850200999600830249f08203e880a0062e7c3f4e132d11446456a9c6fdc7977108db73d1768cddf71fa1ec35ea0cb088f040cab86bfd237df862f8608001830249f094bbbf5374fce5edbc8e2a8697c15331677e6ebf0b0a801ba020bc21bc6aadd85fed142b7b980799d44c5d6f1ec8f3e1e2cb97dc68880e4795a0603fbf089643eb78e7e7ad708eded071087c93a23dba3c56c9704465d2a69207c0",
                "transactions" : [
                    {
                        "data" : "",
                        "gasLimit" : "0x0249f0",
                        "gasPrice" : "0x01",
                        "nonce" : "0x00",
                        "r" : "0x20bc21bc6aadd85fed142b7b980799d44c5d6f1ec8f3e1e2cb97dc68880e4795",
                        "s" : "0x603fbf089643eb78e7e7ad708eded071087c93a23dba3c56c9704465d2a69207",
                        "to" : "0xbbbf5374fce5edbc8e2a8697c15331677e6ebf0b",
                        "v" : "0x1b",
                        "value" : "0x0a"
                    }
                ],
                "uncleHeaders" : [
                ]
            }
        ],
        "genesisBlockHeader" : {
            "bloom" : "0x00000000000000000000000000000000000000000000000000000000000000000000000000000000000000000000000000000000000000000000000000000000000000000000000000000000000000000000000000000000000000000000000000000000000000000000000000000000000000000000000000000000000000000000000000000000000000000000000000000000000000000000000000000000000000000000000000000000000000000000000000000000000000000000000000000000000000000000000000000000000000000000000000000000000000000000000000000000000000000000000000000000000000000000000000000000",
            "coinbase" : "0xb94f5374fce5edbc8e2a8697c15331677e6ebf0b",
            "difficulty" : "0x020000",
            "extraData" : "0x42",
            "gasLimit" : "0x0200999600",
            "gasUsed" : "0x00",
            "hash" : "0x82da4cdc9cd2496fd51732db6b341f35129715f05fd329c4f9c5f6bd79840db0",
            "mixHash" : "0x56e81f171bcc55a6ff8345e692c0f86e5b48e01b996cadc001622fb5e363b421",
            "nonce" : "0x0102030405060708",
            "number" : "0x00",
            "parentHash" : "0x0000000000000000000000000000000000000000000000000000000000000000",
            "receiptTrie" : "0x56e81f171bcc55a6ff8345e692c0f86e5b48e01b996cadc001622fb5e363b421",
            "stateRoot" : "0xc6109b7f20f60b581cbd39ade26067048097c6e906e83093d035a65131323086",
            "timestamp" : "0x03b6",
            "transactionsTrie" : "0x56e81f171bcc55a6ff8345e692c0f86e5b48e01b996cadc001622fb5e363b421",
            "uncleHash" : "0x1dcc4de8dec75d7aab85b567b6ccd41ad312451b948a7413f0a142fd40d49347"
        },
        "genesisRLP" : "0xf901fcf901f7a00000000000000000000000000000000000000000000000000000000000000000a01dcc4de8dec75d7aab85b567b6ccd41ad312451b948a7413f0a142fd40d4934794b94f5374fce5edbc8e2a8697c15331677e6ebf0ba0c6109b7f20f60b581cbd39ade26067048097c6e906e83093d035a65131323086a056e81f171bcc55a6ff8345e692c0f86e5b48e01b996cadc001622fb5e363b421a056e81f171bcc55a6ff8345e692c0f86e5b48e01b996cadc001622fb5e363b421b90100000000000000000000000000000000000000000000000000000000000000000000000000000000000000000000000000000000000000000000000000000000000000000000000000000000000000000000000000000000000000000000000000000000000000000000000000000000000000000000000000000000000000000000000000000000000000000000000000000000000000000000000000000000000000000000000000000000000000000000000000000000000000000000000000000000000000000000000000000000000000000000000000000000000000000000000000000000000000000000000000000000000000000000000000000000008302000080850200999600808203b642a056e81f171bcc55a6ff8345e692c0f86e5b48e01b996cadc001622fb5e363b421880102030405060708c0c0",
        "lastblockhash" : "0x1030c1fe97dac80ea05cf372f8b60d5be4a70dba81ee612f29dabf550594f720",
        "network" : "Byzantium",
        "postState" : {
            "0xa94f5374fce5edbc8e2a8697c15331677e6ebf0b" : {
                "balance" : "0xfffffffffffffffffffffffffffdb60f",
                "code" : "",
                "nonce" : "0x01",
                "storage" : {
                }
            },
            "0xb94f5374fce5edbc8e2a8697c15331677e6ebf0b" : {
                "balance" : "0x29a2241af62e49f0",
                "code" : "",
                "nonce" : "0x00",
                "storage" : {
                }
            },
            "0xbbbf5374fce5edbc8e2a8697c15331677e6ebf0b" : {
                "balance" : "0x0fffffffffffff",
                "code" : "0x5b6103e8608051101560235761c35060006001f06000556001608051016080526000565b608051600155",
                "nonce" : "0x00",
                "storage" : {
                }
            }
        },
        "pre" : {
            "0xa94f5374fce5edbc8e2a8697c15331677e6ebf0b" : {
                "balance" : "0xffffffffffffffffffffffffffffffff",
                "code" : "",
                "nonce" : "0x00",
                "storage" : {
                }
            },
            "0xbbbf5374fce5edbc8e2a8697c15331677e6ebf0b" : {
                "balance" : "0x0fffffffffffff",
                "code" : "0x5b6103e8608051101560235761c35060006001f06000556001608051016080526000565b608051600155",
                "nonce" : "0x00",
                "storage" : {
                }
            }
        }
    },
    "Create1000_d0g0v0_EIP150" : {
        "_info" : {
            "comment" : "",
            "filledwith" : "cpp-1.3.0+commit.6e0ce939.Linux.g++",
            "lllcversion" : "Version: 0.4.18-develop.2017.9.25+commit.a72237f2.Linux.g++",
            "source" : "src/BlockchainTestsFiller/GeneralStateTests/stQuadraticComplexityTest/Create1000_d0g0v0Filler.json",
            "sourceHash" : "be80c7650d5d104bde3346a435990a31be0efe34ce60692b5da28c54cfad1620"
        },
        "blocks" : [
            {
                "blockHeader" : {
                    "bloom" : "0x00000000000000000000000000000000000000000000000000000000000000000000000000000000000000000000000000000000000000000000000000000000000000000000000000000000000000000000000000000000000000000000000000000000000000000000000000000000000000000000000000000000000000000000000000000000000000000000000000000000000000000000000000000000000000000000000000000000000000000000000000000000000000000000000000000000000000000000000000000000000000000000000000000000000000000000000000000000000000000000000000000000000000000000000000000000",
                    "coinbase" : "0xb94f5374fce5edbc8e2a8697c15331677e6ebf0b",
                    "difficulty" : "0x020000",
                    "extraData" : "",
                    "gasLimit" : "0x0200999600",
                    "gasUsed" : "0x0249f0",
                    "hash" : "0x27152b8effd99489d95eb593c0412a6aa4b46cc36ab2435219368defda981bd5",
                    "mixHash" : "0xcab46623e5ba2227f249e9ce926dd9d7d9874d832b292f890e66c137068f0d73",
                    "nonce" : "0x13716d043d7432bc",
                    "number" : "0x01",
                    "parentHash" : "0x82da4cdc9cd2496fd51732db6b341f35129715f05fd329c4f9c5f6bd79840db0",
                    "receiptTrie" : "0xbbb72e4c4fe7e7995cf9973946086de18e9444acfb1b34ee1d7ba3079c9d8b38",
                    "stateRoot" : "0xc79cb482b73112393928033ca2a4fabab8db799bc1b997643eed272941069457",
                    "timestamp" : "0x03e8",
                    "transactionsTrie" : "0xa0ec2fa38ce491778e1b6da60eba5927ecd92ad8cde4a3d964deef99110e1b29",
                    "uncleHash" : "0x1dcc4de8dec75d7aab85b567b6ccd41ad312451b948a7413f0a142fd40d49347"
                },
                "rlp" : "0xf90262f901faa082da4cdc9cd2496fd51732db6b341f35129715f05fd329c4f9c5f6bd79840db0a01dcc4de8dec75d7aab85b567b6ccd41ad312451b948a7413f0a142fd40d4934794b94f5374fce5edbc8e2a8697c15331677e6ebf0ba0c79cb482b73112393928033ca2a4fabab8db799bc1b997643eed272941069457a0a0ec2fa38ce491778e1b6da60eba5927ecd92ad8cde4a3d964deef99110e1b29a0bbb72e4c4fe7e7995cf9973946086de18e9444acfb1b34ee1d7ba3079c9d8b38b90100000000000000000000000000000000000000000000000000000000000000000000000000000000000000000000000000000000000000000000000000000000000000000000000000000000000000000000000000000000000000000000000000000000000000000000000000000000000000000000000000000000000000000000000000000000000000000000000000000000000000000000000000000000000000000000000000000000000000000000000000000000000000000000000000000000000000000000000000000000000000000000000000000000000000000000000000000000000000000000000000000000000000000000000000000000008302000001850200999600830249f08203e880a0cab46623e5ba2227f249e9ce926dd9d7d9874d832b292f890e66c137068f0d738813716d043d7432bcf862f8608001830249f094bbbf5374fce5edbc8e2a8697c15331677e6ebf0b0a801ba020bc21bc6aadd85fed142b7b980799d44c5d6f1ec8f3e1e2cb97dc68880e4795a0603fbf089643eb78e7e7ad708eded071087c93a23dba3c56c9704465d2a69207c0",
                "transactions" : [
                    {
                        "data" : "",
                        "gasLimit" : "0x0249f0",
                        "gasPrice" : "0x01",
                        "nonce" : "0x00",
                        "r" : "0x20bc21bc6aadd85fed142b7b980799d44c5d6f1ec8f3e1e2cb97dc68880e4795",
                        "s" : "0x603fbf089643eb78e7e7ad708eded071087c93a23dba3c56c9704465d2a69207",
                        "to" : "0xbbbf5374fce5edbc8e2a8697c15331677e6ebf0b",
                        "v" : "0x1b",
                        "value" : "0x0a"
                    }
                ],
                "uncleHeaders" : [
                ]
            }
        ],
        "genesisBlockHeader" : {
            "bloom" : "0x00000000000000000000000000000000000000000000000000000000000000000000000000000000000000000000000000000000000000000000000000000000000000000000000000000000000000000000000000000000000000000000000000000000000000000000000000000000000000000000000000000000000000000000000000000000000000000000000000000000000000000000000000000000000000000000000000000000000000000000000000000000000000000000000000000000000000000000000000000000000000000000000000000000000000000000000000000000000000000000000000000000000000000000000000000000",
            "coinbase" : "0xb94f5374fce5edbc8e2a8697c15331677e6ebf0b",
            "difficulty" : "0x020000",
            "extraData" : "0x42",
            "gasLimit" : "0x0200999600",
            "gasUsed" : "0x00",
            "hash" : "0x82da4cdc9cd2496fd51732db6b341f35129715f05fd329c4f9c5f6bd79840db0",
            "mixHash" : "0x56e81f171bcc55a6ff8345e692c0f86e5b48e01b996cadc001622fb5e363b421",
            "nonce" : "0x0102030405060708",
            "number" : "0x00",
            "parentHash" : "0x0000000000000000000000000000000000000000000000000000000000000000",
            "receiptTrie" : "0x56e81f171bcc55a6ff8345e692c0f86e5b48e01b996cadc001622fb5e363b421",
            "stateRoot" : "0xc6109b7f20f60b581cbd39ade26067048097c6e906e83093d035a65131323086",
            "timestamp" : "0x03b6",
            "transactionsTrie" : "0x56e81f171bcc55a6ff8345e692c0f86e5b48e01b996cadc001622fb5e363b421",
            "uncleHash" : "0x1dcc4de8dec75d7aab85b567b6ccd41ad312451b948a7413f0a142fd40d49347"
        },
        "genesisRLP" : "0xf901fcf901f7a00000000000000000000000000000000000000000000000000000000000000000a01dcc4de8dec75d7aab85b567b6ccd41ad312451b948a7413f0a142fd40d4934794b94f5374fce5edbc8e2a8697c15331677e6ebf0ba0c6109b7f20f60b581cbd39ade26067048097c6e906e83093d035a65131323086a056e81f171bcc55a6ff8345e692c0f86e5b48e01b996cadc001622fb5e363b421a056e81f171bcc55a6ff8345e692c0f86e5b48e01b996cadc001622fb5e363b421b90100000000000000000000000000000000000000000000000000000000000000000000000000000000000000000000000000000000000000000000000000000000000000000000000000000000000000000000000000000000000000000000000000000000000000000000000000000000000000000000000000000000000000000000000000000000000000000000000000000000000000000000000000000000000000000000000000000000000000000000000000000000000000000000000000000000000000000000000000000000000000000000000000000000000000000000000000000000000000000000000000000000000000000000000000000000008302000080850200999600808203b642a056e81f171bcc55a6ff8345e692c0f86e5b48e01b996cadc001622fb5e363b421880102030405060708c0c0",
        "lastblockhash" : "0x27152b8effd99489d95eb593c0412a6aa4b46cc36ab2435219368defda981bd5",
        "network" : "EIP150",
        "postState" : {
            "0xa94f5374fce5edbc8e2a8697c15331677e6ebf0b" : {
                "balance" : "0xfffffffffffffffffffffffffffdb60f",
                "code" : "",
                "nonce" : "0x01",
                "storage" : {
                }
            },
            "0xb94f5374fce5edbc8e2a8697c15331677e6ebf0b" : {
                "balance" : "0x4563918244f649f0",
                "code" : "",
                "nonce" : "0x00",
                "storage" : {
                }
            },
            "0xbbbf5374fce5edbc8e2a8697c15331677e6ebf0b" : {
                "balance" : "0x0fffffffffffff",
                "code" : "0x5b6103e8608051101560235761c35060006001f06000556001608051016080526000565b608051600155",
                "nonce" : "0x00",
                "storage" : {
                }
            }
        },
        "pre" : {
            "0xa94f5374fce5edbc8e2a8697c15331677e6ebf0b" : {
                "balance" : "0xffffffffffffffffffffffffffffffff",
                "code" : "",
                "nonce" : "0x00",
                "storage" : {
                }
            },
            "0xbbbf5374fce5edbc8e2a8697c15331677e6ebf0b" : {
                "balance" : "0x0fffffffffffff",
                "code" : "0x5b6103e8608051101560235761c35060006001f06000556001608051016080526000565b608051600155",
                "nonce" : "0x00",
                "storage" : {
                }
            }
        }
    },
    "Create1000_d0g0v0_EIP158" : {
        "_info" : {
            "comment" : "",
            "filledwith" : "cpp-1.3.0+commit.6e0ce939.Linux.g++",
            "lllcversion" : "Version: 0.4.18-develop.2017.9.25+commit.a72237f2.Linux.g++",
            "source" : "src/BlockchainTestsFiller/GeneralStateTests/stQuadraticComplexityTest/Create1000_d0g0v0Filler.json",
            "sourceHash" : "be80c7650d5d104bde3346a435990a31be0efe34ce60692b5da28c54cfad1620"
        },
        "blocks" : [
            {
                "blockHeader" : {
                    "bloom" : "0x00000000000000000000000000000000000000000000000000000000000000000000000000000000000000000000000000000000000000000000000000000000000000000000000000000000000000000000000000000000000000000000000000000000000000000000000000000000000000000000000000000000000000000000000000000000000000000000000000000000000000000000000000000000000000000000000000000000000000000000000000000000000000000000000000000000000000000000000000000000000000000000000000000000000000000000000000000000000000000000000000000000000000000000000000000000",
                    "coinbase" : "0xb94f5374fce5edbc8e2a8697c15331677e6ebf0b",
                    "difficulty" : "0x020000",
                    "extraData" : "",
                    "gasLimit" : "0x0200999600",
                    "gasUsed" : "0x0249f0",
                    "hash" : "0x69c8a9b87818e6840a165bbebefa770688128e0853946d7864309d00c210def8",
                    "mixHash" : "0xa25e79eacb2e7806800d109bda9a5c94035c1e5f77d900eea325296d0338af36",
                    "nonce" : "0x5a5eff37dff0070d",
                    "number" : "0x01",
                    "parentHash" : "0x82da4cdc9cd2496fd51732db6b341f35129715f05fd329c4f9c5f6bd79840db0",
                    "receiptTrie" : "0xbbb72e4c4fe7e7995cf9973946086de18e9444acfb1b34ee1d7ba3079c9d8b38",
                    "stateRoot" : "0xc79cb482b73112393928033ca2a4fabab8db799bc1b997643eed272941069457",
                    "timestamp" : "0x03e8",
                    "transactionsTrie" : "0xa0ec2fa38ce491778e1b6da60eba5927ecd92ad8cde4a3d964deef99110e1b29",
                    "uncleHash" : "0x1dcc4de8dec75d7aab85b567b6ccd41ad312451b948a7413f0a142fd40d49347"
                },
                "rlp" : "0xf90262f901faa082da4cdc9cd2496fd51732db6b341f35129715f05fd329c4f9c5f6bd79840db0a01dcc4de8dec75d7aab85b567b6ccd41ad312451b948a7413f0a142fd40d4934794b94f5374fce5edbc8e2a8697c15331677e6ebf0ba0c79cb482b73112393928033ca2a4fabab8db799bc1b997643eed272941069457a0a0ec2fa38ce491778e1b6da60eba5927ecd92ad8cde4a3d964deef99110e1b29a0bbb72e4c4fe7e7995cf9973946086de18e9444acfb1b34ee1d7ba3079c9d8b38b90100000000000000000000000000000000000000000000000000000000000000000000000000000000000000000000000000000000000000000000000000000000000000000000000000000000000000000000000000000000000000000000000000000000000000000000000000000000000000000000000000000000000000000000000000000000000000000000000000000000000000000000000000000000000000000000000000000000000000000000000000000000000000000000000000000000000000000000000000000000000000000000000000000000000000000000000000000000000000000000000000000000000000000000000000000000008302000001850200999600830249f08203e880a0a25e79eacb2e7806800d109bda9a5c94035c1e5f77d900eea325296d0338af36885a5eff37dff0070df862f8608001830249f094bbbf5374fce5edbc8e2a8697c15331677e6ebf0b0a801ba020bc21bc6aadd85fed142b7b980799d44c5d6f1ec8f3e1e2cb97dc68880e4795a0603fbf089643eb78e7e7ad708eded071087c93a23dba3c56c9704465d2a69207c0",
                "transactions" : [
                    {
                        "data" : "",
                        "gasLimit" : "0x0249f0",
                        "gasPrice" : "0x01",
                        "nonce" : "0x00",
                        "r" : "0x20bc21bc6aadd85fed142b7b980799d44c5d6f1ec8f3e1e2cb97dc68880e4795",
                        "s" : "0x603fbf089643eb78e7e7ad708eded071087c93a23dba3c56c9704465d2a69207",
                        "to" : "0xbbbf5374fce5edbc8e2a8697c15331677e6ebf0b",
                        "v" : "0x1b",
                        "value" : "0x0a"
                    }
                ],
                "uncleHeaders" : [
                ]
            }
        ],
        "genesisBlockHeader" : {
            "bloom" : "0x00000000000000000000000000000000000000000000000000000000000000000000000000000000000000000000000000000000000000000000000000000000000000000000000000000000000000000000000000000000000000000000000000000000000000000000000000000000000000000000000000000000000000000000000000000000000000000000000000000000000000000000000000000000000000000000000000000000000000000000000000000000000000000000000000000000000000000000000000000000000000000000000000000000000000000000000000000000000000000000000000000000000000000000000000000000",
            "coinbase" : "0xb94f5374fce5edbc8e2a8697c15331677e6ebf0b",
            "difficulty" : "0x020000",
            "extraData" : "0x42",
            "gasLimit" : "0x0200999600",
            "gasUsed" : "0x00",
            "hash" : "0x82da4cdc9cd2496fd51732db6b341f35129715f05fd329c4f9c5f6bd79840db0",
            "mixHash" : "0x56e81f171bcc55a6ff8345e692c0f86e5b48e01b996cadc001622fb5e363b421",
            "nonce" : "0x0102030405060708",
            "number" : "0x00",
            "parentHash" : "0x0000000000000000000000000000000000000000000000000000000000000000",
            "receiptTrie" : "0x56e81f171bcc55a6ff8345e692c0f86e5b48e01b996cadc001622fb5e363b421",
            "stateRoot" : "0xc6109b7f20f60b581cbd39ade26067048097c6e906e83093d035a65131323086",
            "timestamp" : "0x03b6",
            "transactionsTrie" : "0x56e81f171bcc55a6ff8345e692c0f86e5b48e01b996cadc001622fb5e363b421",
            "uncleHash" : "0x1dcc4de8dec75d7aab85b567b6ccd41ad312451b948a7413f0a142fd40d49347"
        },
        "genesisRLP" : "0xf901fcf901f7a00000000000000000000000000000000000000000000000000000000000000000a01dcc4de8dec75d7aab85b567b6ccd41ad312451b948a7413f0a142fd40d4934794b94f5374fce5edbc8e2a8697c15331677e6ebf0ba0c6109b7f20f60b581cbd39ade26067048097c6e906e83093d035a65131323086a056e81f171bcc55a6ff8345e692c0f86e5b48e01b996cadc001622fb5e363b421a056e81f171bcc55a6ff8345e692c0f86e5b48e01b996cadc001622fb5e363b421b90100000000000000000000000000000000000000000000000000000000000000000000000000000000000000000000000000000000000000000000000000000000000000000000000000000000000000000000000000000000000000000000000000000000000000000000000000000000000000000000000000000000000000000000000000000000000000000000000000000000000000000000000000000000000000000000000000000000000000000000000000000000000000000000000000000000000000000000000000000000000000000000000000000000000000000000000000000000000000000000000000000000000000000000000000000000008302000080850200999600808203b642a056e81f171bcc55a6ff8345e692c0f86e5b48e01b996cadc001622fb5e363b421880102030405060708c0c0",
        "lastblockhash" : "0x69c8a9b87818e6840a165bbebefa770688128e0853946d7864309d00c210def8",
        "network" : "EIP158",
        "postState" : {
            "0xa94f5374fce5edbc8e2a8697c15331677e6ebf0b" : {
                "balance" : "0xfffffffffffffffffffffffffffdb60f",
                "code" : "",
                "nonce" : "0x01",
                "storage" : {
                }
            },
            "0xb94f5374fce5edbc8e2a8697c15331677e6ebf0b" : {
                "balance" : "0x4563918244f649f0",
                "code" : "",
                "nonce" : "0x00",
                "storage" : {
                }
            },
            "0xbbbf5374fce5edbc8e2a8697c15331677e6ebf0b" : {
                "balance" : "0x0fffffffffffff",
                "code" : "0x5b6103e8608051101560235761c35060006001f06000556001608051016080526000565b608051600155",
                "nonce" : "0x00",
                "storage" : {
                }
            }
        },
        "pre" : {
            "0xa94f5374fce5edbc8e2a8697c15331677e6ebf0b" : {
                "balance" : "0xffffffffffffffffffffffffffffffff",
                "code" : "",
                "nonce" : "0x00",
                "storage" : {
                }
            },
            "0xbbbf5374fce5edbc8e2a8697c15331677e6ebf0b" : {
                "balance" : "0x0fffffffffffff",
                "code" : "0x5b6103e8608051101560235761c35060006001f06000556001608051016080526000565b608051600155",
                "nonce" : "0x00",
                "storage" : {
                }
            }
        }
    },
    "Create1000_d0g0v0_Frontier" : {
        "_info" : {
            "comment" : "",
            "filledwith" : "cpp-1.3.0+commit.6e0ce939.Linux.g++",
            "lllcversion" : "Version: 0.4.18-develop.2017.9.25+commit.a72237f2.Linux.g++",
            "source" : "src/BlockchainTestsFiller/GeneralStateTests/stQuadraticComplexityTest/Create1000_d0g0v0Filler.json",
            "sourceHash" : "be80c7650d5d104bde3346a435990a31be0efe34ce60692b5da28c54cfad1620"
        },
        "blocks" : [
            {
                "blockHeader" : {
                    "bloom" : "0x00000000000000000000000000000000000000000000000000000000000000000000000000000000000000000000000000000000000000000000000000000000000000000000000000000000000000000000000000000000000000000000000000000000000000000000000000000000000000000000000000000000000000000000000000000000000000000000000000000000000000000000000000000000000000000000000000000000000000000000000000000000000000000000000000000000000000000000000000000000000000000000000000000000000000000000000000000000000000000000000000000000000000000000000000000000",
                    "coinbase" : "0xb94f5374fce5edbc8e2a8697c15331677e6ebf0b",
                    "difficulty" : "0x020000",
                    "extraData" : "",
                    "gasLimit" : "0x0200999600",
                    "gasUsed" : "0x0249f0",
                    "hash" : "0x3b69a0a30f2698863d773076b63c44357d57ab84e4a1933417de711272479e35",
                    "mixHash" : "0x046927b5c4546347b7e53aae90cb82210ff721b51c1791ab4be87921a5cec682",
                    "nonce" : "0x12934ceab308c0f5",
                    "number" : "0x01",
                    "parentHash" : "0x82da4cdc9cd2496fd51732db6b341f35129715f05fd329c4f9c5f6bd79840db0",
                    "receiptTrie" : "0xbbb72e4c4fe7e7995cf9973946086de18e9444acfb1b34ee1d7ba3079c9d8b38",
                    "stateRoot" : "0xc79cb482b73112393928033ca2a4fabab8db799bc1b997643eed272941069457",
                    "timestamp" : "0x03e8",
                    "transactionsTrie" : "0xa0ec2fa38ce491778e1b6da60eba5927ecd92ad8cde4a3d964deef99110e1b29",
                    "uncleHash" : "0x1dcc4de8dec75d7aab85b567b6ccd41ad312451b948a7413f0a142fd40d49347"
                },
                "rlp" : "0xf90262f901faa082da4cdc9cd2496fd51732db6b341f35129715f05fd329c4f9c5f6bd79840db0a01dcc4de8dec75d7aab85b567b6ccd41ad312451b948a7413f0a142fd40d4934794b94f5374fce5edbc8e2a8697c15331677e6ebf0ba0c79cb482b73112393928033ca2a4fabab8db799bc1b997643eed272941069457a0a0ec2fa38ce491778e1b6da60eba5927ecd92ad8cde4a3d964deef99110e1b29a0bbb72e4c4fe7e7995cf9973946086de18e9444acfb1b34ee1d7ba3079c9d8b38b90100000000000000000000000000000000000000000000000000000000000000000000000000000000000000000000000000000000000000000000000000000000000000000000000000000000000000000000000000000000000000000000000000000000000000000000000000000000000000000000000000000000000000000000000000000000000000000000000000000000000000000000000000000000000000000000000000000000000000000000000000000000000000000000000000000000000000000000000000000000000000000000000000000000000000000000000000000000000000000000000000000000000000000000000000000000008302000001850200999600830249f08203e880a0046927b5c4546347b7e53aae90cb82210ff721b51c1791ab4be87921a5cec6828812934ceab308c0f5f862f8608001830249f094bbbf5374fce5edbc8e2a8697c15331677e6ebf0b0a801ba020bc21bc6aadd85fed142b7b980799d44c5d6f1ec8f3e1e2cb97dc68880e4795a0603fbf089643eb78e7e7ad708eded071087c93a23dba3c56c9704465d2a69207c0",
                "transactions" : [
                    {
                        "data" : "",
                        "gasLimit" : "0x0249f0",
                        "gasPrice" : "0x01",
                        "nonce" : "0x00",
                        "r" : "0x20bc21bc6aadd85fed142b7b980799d44c5d6f1ec8f3e1e2cb97dc68880e4795",
                        "s" : "0x603fbf089643eb78e7e7ad708eded071087c93a23dba3c56c9704465d2a69207",
                        "to" : "0xbbbf5374fce5edbc8e2a8697c15331677e6ebf0b",
                        "v" : "0x1b",
                        "value" : "0x0a"
                    }
                ],
                "uncleHeaders" : [
                ]
            }
        ],
        "genesisBlockHeader" : {
            "bloom" : "0x00000000000000000000000000000000000000000000000000000000000000000000000000000000000000000000000000000000000000000000000000000000000000000000000000000000000000000000000000000000000000000000000000000000000000000000000000000000000000000000000000000000000000000000000000000000000000000000000000000000000000000000000000000000000000000000000000000000000000000000000000000000000000000000000000000000000000000000000000000000000000000000000000000000000000000000000000000000000000000000000000000000000000000000000000000000",
            "coinbase" : "0xb94f5374fce5edbc8e2a8697c15331677e6ebf0b",
            "difficulty" : "0x020000",
            "extraData" : "0x42",
            "gasLimit" : "0x0200999600",
            "gasUsed" : "0x00",
            "hash" : "0x82da4cdc9cd2496fd51732db6b341f35129715f05fd329c4f9c5f6bd79840db0",
            "mixHash" : "0x56e81f171bcc55a6ff8345e692c0f86e5b48e01b996cadc001622fb5e363b421",
            "nonce" : "0x0102030405060708",
            "number" : "0x00",
            "parentHash" : "0x0000000000000000000000000000000000000000000000000000000000000000",
            "receiptTrie" : "0x56e81f171bcc55a6ff8345e692c0f86e5b48e01b996cadc001622fb5e363b421",
            "stateRoot" : "0xc6109b7f20f60b581cbd39ade26067048097c6e906e83093d035a65131323086",
            "timestamp" : "0x03b6",
            "transactionsTrie" : "0x56e81f171bcc55a6ff8345e692c0f86e5b48e01b996cadc001622fb5e363b421",
            "uncleHash" : "0x1dcc4de8dec75d7aab85b567b6ccd41ad312451b948a7413f0a142fd40d49347"
        },
        "genesisRLP" : "0xf901fcf901f7a00000000000000000000000000000000000000000000000000000000000000000a01dcc4de8dec75d7aab85b567b6ccd41ad312451b948a7413f0a142fd40d4934794b94f5374fce5edbc8e2a8697c15331677e6ebf0ba0c6109b7f20f60b581cbd39ade26067048097c6e906e83093d035a65131323086a056e81f171bcc55a6ff8345e692c0f86e5b48e01b996cadc001622fb5e363b421a056e81f171bcc55a6ff8345e692c0f86e5b48e01b996cadc001622fb5e363b421b90100000000000000000000000000000000000000000000000000000000000000000000000000000000000000000000000000000000000000000000000000000000000000000000000000000000000000000000000000000000000000000000000000000000000000000000000000000000000000000000000000000000000000000000000000000000000000000000000000000000000000000000000000000000000000000000000000000000000000000000000000000000000000000000000000000000000000000000000000000000000000000000000000000000000000000000000000000000000000000000000000000000000000000000000000000000008302000080850200999600808203b642a056e81f171bcc55a6ff8345e692c0f86e5b48e01b996cadc001622fb5e363b421880102030405060708c0c0",
        "lastblockhash" : "0x3b69a0a30f2698863d773076b63c44357d57ab84e4a1933417de711272479e35",
        "network" : "Frontier",
        "postState" : {
            "0xa94f5374fce5edbc8e2a8697c15331677e6ebf0b" : {
                "balance" : "0xfffffffffffffffffffffffffffdb60f",
                "code" : "",
                "nonce" : "0x01",
                "storage" : {
                }
            },
            "0xb94f5374fce5edbc8e2a8697c15331677e6ebf0b" : {
                "balance" : "0x4563918244f649f0",
                "code" : "",
                "nonce" : "0x00",
                "storage" : {
                }
            },
            "0xbbbf5374fce5edbc8e2a8697c15331677e6ebf0b" : {
                "balance" : "0x0fffffffffffff",
                "code" : "0x5b6103e8608051101560235761c35060006001f06000556001608051016080526000565b608051600155",
                "nonce" : "0x00",
                "storage" : {
                }
            }
        },
        "pre" : {
            "0xa94f5374fce5edbc8e2a8697c15331677e6ebf0b" : {
                "balance" : "0xffffffffffffffffffffffffffffffff",
                "code" : "",
                "nonce" : "0x00",
                "storage" : {
                }
            },
            "0xbbbf5374fce5edbc8e2a8697c15331677e6ebf0b" : {
                "balance" : "0x0fffffffffffff",
                "code" : "0x5b6103e8608051101560235761c35060006001f06000556001608051016080526000565b608051600155",
                "nonce" : "0x00",
                "storage" : {
                }
            }
        }
    },
    "Create1000_d0g0v0_Homestead" : {
        "_info" : {
            "comment" : "",
            "filledwith" : "cpp-1.3.0+commit.6e0ce939.Linux.g++",
            "lllcversion" : "Version: 0.4.18-develop.2017.9.25+commit.a72237f2.Linux.g++",
            "source" : "src/BlockchainTestsFiller/GeneralStateTests/stQuadraticComplexityTest/Create1000_d0g0v0Filler.json",
            "sourceHash" : "be80c7650d5d104bde3346a435990a31be0efe34ce60692b5da28c54cfad1620"
        },
        "blocks" : [
            {
                "blockHeader" : {
                    "bloom" : "0x00000000000000000000000000000000000000000000000000000000000000000000000000000000000000000000000000000000000000000000000000000000000000000000000000000000000000000000000000000000000000000000000000000000000000000000000000000000000000000000000000000000000000000000000000000000000000000000000000000000000000000000000000000000000000000000000000000000000000000000000000000000000000000000000000000000000000000000000000000000000000000000000000000000000000000000000000000000000000000000000000000000000000000000000000000000",
                    "coinbase" : "0xb94f5374fce5edbc8e2a8697c15331677e6ebf0b",
                    "difficulty" : "0x020000",
                    "extraData" : "",
                    "gasLimit" : "0x0200999600",
                    "gasUsed" : "0x0249f0",
                    "hash" : "0x8b6be311586e9eb05cc7aa2f7fa78057b1ae64fc3007876965401ae8e7c678bf",
                    "mixHash" : "0xaddca9794e5d86e5d77970e478d4ba85e97ace8daa314e2aff81aea71f15172a",
                    "nonce" : "0x56d147acda273f7d",
                    "number" : "0x01",
                    "parentHash" : "0x82da4cdc9cd2496fd51732db6b341f35129715f05fd329c4f9c5f6bd79840db0",
                    "receiptTrie" : "0xbbb72e4c4fe7e7995cf9973946086de18e9444acfb1b34ee1d7ba3079c9d8b38",
                    "stateRoot" : "0xc79cb482b73112393928033ca2a4fabab8db799bc1b997643eed272941069457",
                    "timestamp" : "0x03e8",
                    "transactionsTrie" : "0xa0ec2fa38ce491778e1b6da60eba5927ecd92ad8cde4a3d964deef99110e1b29",
                    "uncleHash" : "0x1dcc4de8dec75d7aab85b567b6ccd41ad312451b948a7413f0a142fd40d49347"
                },
                "rlp" : "0xf90262f901faa082da4cdc9cd2496fd51732db6b341f35129715f05fd329c4f9c5f6bd79840db0a01dcc4de8dec75d7aab85b567b6ccd41ad312451b948a7413f0a142fd40d4934794b94f5374fce5edbc8e2a8697c15331677e6ebf0ba0c79cb482b73112393928033ca2a4fabab8db799bc1b997643eed272941069457a0a0ec2fa38ce491778e1b6da60eba5927ecd92ad8cde4a3d964deef99110e1b29a0bbb72e4c4fe7e7995cf9973946086de18e9444acfb1b34ee1d7ba3079c9d8b38b90100000000000000000000000000000000000000000000000000000000000000000000000000000000000000000000000000000000000000000000000000000000000000000000000000000000000000000000000000000000000000000000000000000000000000000000000000000000000000000000000000000000000000000000000000000000000000000000000000000000000000000000000000000000000000000000000000000000000000000000000000000000000000000000000000000000000000000000000000000000000000000000000000000000000000000000000000000000000000000000000000000000000000000000000000000000008302000001850200999600830249f08203e880a0addca9794e5d86e5d77970e478d4ba85e97ace8daa314e2aff81aea71f15172a8856d147acda273f7df862f8608001830249f094bbbf5374fce5edbc8e2a8697c15331677e6ebf0b0a801ba020bc21bc6aadd85fed142b7b980799d44c5d6f1ec8f3e1e2cb97dc68880e4795a0603fbf089643eb78e7e7ad708eded071087c93a23dba3c56c9704465d2a69207c0",
                "transactions" : [
                    {
                        "data" : "",
                        "gasLimit" : "0x0249f0",
                        "gasPrice" : "0x01",
                        "nonce" : "0x00",
                        "r" : "0x20bc21bc6aadd85fed142b7b980799d44c5d6f1ec8f3e1e2cb97dc68880e4795",
                        "s" : "0x603fbf089643eb78e7e7ad708eded071087c93a23dba3c56c9704465d2a69207",
                        "to" : "0xbbbf5374fce5edbc8e2a8697c15331677e6ebf0b",
                        "v" : "0x1b",
                        "value" : "0x0a"
                    }
                ],
                "uncleHeaders" : [
                ]
            }
        ],
        "genesisBlockHeader" : {
            "bloom" : "0x00000000000000000000000000000000000000000000000000000000000000000000000000000000000000000000000000000000000000000000000000000000000000000000000000000000000000000000000000000000000000000000000000000000000000000000000000000000000000000000000000000000000000000000000000000000000000000000000000000000000000000000000000000000000000000000000000000000000000000000000000000000000000000000000000000000000000000000000000000000000000000000000000000000000000000000000000000000000000000000000000000000000000000000000000000000",
            "coinbase" : "0xb94f5374fce5edbc8e2a8697c15331677e6ebf0b",
            "difficulty" : "0x020000",
            "extraData" : "0x42",
            "gasLimit" : "0x0200999600",
            "gasUsed" : "0x00",
            "hash" : "0x82da4cdc9cd2496fd51732db6b341f35129715f05fd329c4f9c5f6bd79840db0",
            "mixHash" : "0x56e81f171bcc55a6ff8345e692c0f86e5b48e01b996cadc001622fb5e363b421",
            "nonce" : "0x0102030405060708",
            "number" : "0x00",
            "parentHash" : "0x0000000000000000000000000000000000000000000000000000000000000000",
            "receiptTrie" : "0x56e81f171bcc55a6ff8345e692c0f86e5b48e01b996cadc001622fb5e363b421",
            "stateRoot" : "0xc6109b7f20f60b581cbd39ade26067048097c6e906e83093d035a65131323086",
            "timestamp" : "0x03b6",
            "transactionsTrie" : "0x56e81f171bcc55a6ff8345e692c0f86e5b48e01b996cadc001622fb5e363b421",
            "uncleHash" : "0x1dcc4de8dec75d7aab85b567b6ccd41ad312451b948a7413f0a142fd40d49347"
        },
        "genesisRLP" : "0xf901fcf901f7a00000000000000000000000000000000000000000000000000000000000000000a01dcc4de8dec75d7aab85b567b6ccd41ad312451b948a7413f0a142fd40d4934794b94f5374fce5edbc8e2a8697c15331677e6ebf0ba0c6109b7f20f60b581cbd39ade26067048097c6e906e83093d035a65131323086a056e81f171bcc55a6ff8345e692c0f86e5b48e01b996cadc001622fb5e363b421a056e81f171bcc55a6ff8345e692c0f86e5b48e01b996cadc001622fb5e363b421b90100000000000000000000000000000000000000000000000000000000000000000000000000000000000000000000000000000000000000000000000000000000000000000000000000000000000000000000000000000000000000000000000000000000000000000000000000000000000000000000000000000000000000000000000000000000000000000000000000000000000000000000000000000000000000000000000000000000000000000000000000000000000000000000000000000000000000000000000000000000000000000000000000000000000000000000000000000000000000000000000000000000000000000000000000000000008302000080850200999600808203b642a056e81f171bcc55a6ff8345e692c0f86e5b48e01b996cadc001622fb5e363b421880102030405060708c0c0",
        "lastblockhash" : "0x8b6be311586e9eb05cc7aa2f7fa78057b1ae64fc3007876965401ae8e7c678bf",
        "network" : "Homestead",
        "postState" : {
            "0xa94f5374fce5edbc8e2a8697c15331677e6ebf0b" : {
                "balance" : "0xfffffffffffffffffffffffffffdb60f",
                "code" : "",
                "nonce" : "0x01",
                "storage" : {
                }
            },
            "0xb94f5374fce5edbc8e2a8697c15331677e6ebf0b" : {
                "balance" : "0x4563918244f649f0",
                "code" : "",
                "nonce" : "0x00",
                "storage" : {
                }
            },
            "0xbbbf5374fce5edbc8e2a8697c15331677e6ebf0b" : {
                "balance" : "0x0fffffffffffff",
                "code" : "0x5b6103e8608051101560235761c35060006001f06000556001608051016080526000565b608051600155",
                "nonce" : "0x00",
                "storage" : {
                }
            }
        },
        "pre" : {
            "0xa94f5374fce5edbc8e2a8697c15331677e6ebf0b" : {
                "balance" : "0xffffffffffffffffffffffffffffffff",
                "code" : "",
                "nonce" : "0x00",
                "storage" : {
                }
            },
            "0xbbbf5374fce5edbc8e2a8697c15331677e6ebf0b" : {
                "balance" : "0x0fffffffffffff",
                "code" : "0x5b6103e8608051101560235761c35060006001f06000556001608051016080526000565b608051600155",
                "nonce" : "0x00",
                "storage" : {
                }
            }
        }
    }
}