{
    "QuadraticComplexitySolidity_CallDataCopy_d0g0v0_Byzantium" : {
        "_info" : {
            "comment" : "",
            "filledwith" : "cpp-1.3.0+commit.6e0ce939.Linux.g++",
            "lllcversion" : "Version: 0.4.18-develop.2017.9.25+commit.a72237f2.Linux.g++",
            "source" : "src/BlockchainTestsFiller/GeneralStateTests/stQuadraticComplexityTest/QuadraticComplexitySolidity_CallDataCopy_d0g0v0Filler.json",
            "sourceHash" : "a30bb48b9e98f17072001b8815b0e9e0e83891c753c794a03ae5a7f7d0f5da95"
        },
        "blocks" : [
            {
                "blockHeader" : {
                    "bloom" : "0x00000000000000000000000000000000000000000000000000000000000000000000000000000000000000000000000000000000000000000000000000000000000000000000000000000000000000000000000000000000000000000000000000000000000000000000000000000000000000000000000000000000000000000000000000000000000000000000000000000000000000000000000000000000000000000000000000000000000000000000000000000000000000000000000000000000000000000000000000000000000000000000000000000000000000000000000000000000000000000000000000000000000000000000000000000000",
                    "coinbase" : "0x2adc25665018aa1fe0e6bc666dac8fc2697ff9ba",
                    "difficulty" : "0x020000",
                    "extraData" : "",
                    "gasLimit" : "0x14dc9380",
                    "gasUsed" : "0x0249f0",
                    "hash" : "0xe599eb034560e4e99581fafc2751276f335f2bbac03ae43847c1e66106794063",
                    "mixHash" : "0x9310ef8e98e5cd5569b5fed2c475e800b7dc0e7d86f77a27b4d67e3bf21d30a3",
                    "nonce" : "0x56dbfe1846629827",
                    "number" : "0x01",
                    "parentHash" : "0x041e94b0f39f11c4830f4f025e212840d118a499042ae86a9e92a3accb944a95",
                    "receiptTrie" : "0xa0e10907f175886de9bd8cd4ac2c21d1db4109a3a9fecf60f54015ee102803fd",
                    "stateRoot" : "0xcfb1cc856c7b2e3639e2bffbeb689d4a8f94eef7bd42a42a820a443168327900",
                    "timestamp" : "0x03e8",
                    "transactionsTrie" : "0xbce4cb5f6e577c92b2a12c5133fe9c9c22e3e7a9e90972620db5b4b85fb649f5",
                    "uncleHash" : "0x1dcc4de8dec75d7aab85b567b6ccd41ad312451b948a7413f0a142fd40d49347"
                },
                "rlp" : "0xf90285f901f9a0041e94b0f39f11c4830f4f025e212840d118a499042ae86a9e92a3accb944a95a01dcc4de8dec75d7aab85b567b6ccd41ad312451b948a7413f0a142fd40d49347942adc25665018aa1fe0e6bc666dac8fc2697ff9baa0cfb1cc856c7b2e3639e2bffbeb689d4a8f94eef7bd42a42a820a443168327900a0bce4cb5f6e577c92b2a12c5133fe9c9c22e3e7a9e90972620db5b4b85fb649f5a0a0e10907f175886de9bd8cd4ac2c21d1db4109a3a9fecf60f54015ee102803fdb901000000000000000000000000000000000000000000000000000000000000000000000000000000000000000000000000000000000000000000000000000000000000000000000000000000000000000000000000000000000000000000000000000000000000000000000000000000000000000000000000000000000000000000000000000000000000000000000000000000000000000000000000000000000000000000000000000000000000000000000000000000000000000000000000000000000000000000000000000000000000000000000000000000000000000000000000000000000000000000000000000000000000000000000000000000000083020000018414dc9380830249f08203e880a09310ef8e98e5cd5569b5fed2c475e800b7dc0e7d86f77a27b4d67e3bf21d30a38856dbfe1846629827f886f8848001830249f094a94f5374fce5edbc8e2a8697c15331677e6ebf0b01a461a47706000000000000000000000000000000000000000000000000000000000000c3501ba0eeae88cf69c98c0cc6d02a3cae888c5730ae3b5f3eb7b1b732d25f5226f0fa4ca0035b51606543ceb96ec32be609280bca29d9221b1b6b9bc97388cd2517ac2cafc0",
                "transactions" : [
                    {
                        "data" : "0x61a47706000000000000000000000000000000000000000000000000000000000000c350",
                        "gasLimit" : "0x0249f0",
                        "gasPrice" : "0x01",
                        "nonce" : "0x00",
                        "r" : "0xeeae88cf69c98c0cc6d02a3cae888c5730ae3b5f3eb7b1b732d25f5226f0fa4c",
                        "s" : "0x035b51606543ceb96ec32be609280bca29d9221b1b6b9bc97388cd2517ac2caf",
                        "to" : "0xa94f5374fce5edbc8e2a8697c15331677e6ebf0b",
                        "v" : "0x1b",
                        "value" : "0x01"
                    }
                ],
                "uncleHeaders" : [
                ]
            }
        ],
        "genesisBlockHeader" : {
            "bloom" : "0x00000000000000000000000000000000000000000000000000000000000000000000000000000000000000000000000000000000000000000000000000000000000000000000000000000000000000000000000000000000000000000000000000000000000000000000000000000000000000000000000000000000000000000000000000000000000000000000000000000000000000000000000000000000000000000000000000000000000000000000000000000000000000000000000000000000000000000000000000000000000000000000000000000000000000000000000000000000000000000000000000000000000000000000000000000000",
            "coinbase" : "0x2adc25665018aa1fe0e6bc666dac8fc2697ff9ba",
            "difficulty" : "0x020000",
            "extraData" : "0x42",
            "gasLimit" : "0x14dc9380",
            "gasUsed" : "0x00",
            "hash" : "0x041e94b0f39f11c4830f4f025e212840d118a499042ae86a9e92a3accb944a95",
            "mixHash" : "0x56e81f171bcc55a6ff8345e692c0f86e5b48e01b996cadc001622fb5e363b421",
            "nonce" : "0x0102030405060708",
            "number" : "0x00",
            "parentHash" : "0x0000000000000000000000000000000000000000000000000000000000000000",
            "receiptTrie" : "0x56e81f171bcc55a6ff8345e692c0f86e5b48e01b996cadc001622fb5e363b421",
            "stateRoot" : "0xd372df10433e24ad7c2a2893d7758e15871230c1eb57798363f93db9fea0546c",
            "timestamp" : "0x03b6",
            "transactionsTrie" : "0x56e81f171bcc55a6ff8345e692c0f86e5b48e01b996cadc001622fb5e363b421",
            "uncleHash" : "0x1dcc4de8dec75d7aab85b567b6ccd41ad312451b948a7413f0a142fd40d49347"
        },
        "genesisRLP" : "0xf901fbf901f6a00000000000000000000000000000000000000000000000000000000000000000a01dcc4de8dec75d7aab85b567b6ccd41ad312451b948a7413f0a142fd40d49347942adc25665018aa1fe0e6bc666dac8fc2697ff9baa0d372df10433e24ad7c2a2893d7758e15871230c1eb57798363f93db9fea0546ca056e81f171bcc55a6ff8345e692c0f86e5b48e01b996cadc001622fb5e363b421a056e81f171bcc55a6ff8345e692c0f86e5b48e01b996cadc001622fb5e363b421b901000000000000000000000000000000000000000000000000000000000000000000000000000000000000000000000000000000000000000000000000000000000000000000000000000000000000000000000000000000000000000000000000000000000000000000000000000000000000000000000000000000000000000000000000000000000000000000000000000000000000000000000000000000000000000000000000000000000000000000000000000000000000000000000000000000000000000000000000000000000000000000000000000000000000000000000000000000000000000000000000000000000000000000000000000000000083020000808414dc9380808203b642a056e81f171bcc55a6ff8345e692c0f86e5b48e01b996cadc001622fb5e363b421880102030405060708c0c0",
        "lastblockhash" : "0xe599eb034560e4e99581fafc2751276f335f2bbac03ae43847c1e66106794063",
        "network" : "Byzantium",
        "postState" : {
            "0x2adc25665018aa1fe0e6bc666dac8fc2697ff9ba" : {
                "balance" : "0x29a2241af62e49f0",
                "code" : "",
                "nonce" : "0x00",
                "storage" : {
                }
            },
            "0xa94f5374fce5edbc8e2a8697c15331677e6ebf0b" : {
                "balance" : "0x1dcb1b10",
                "code" : "0x60003560e060020a9004806361a4770614601557005b601e6004356024565b60006000f35b60008160008190555073b94f5374fce5edbc8e2a8697c15331677e6ebf0b90505b600082131560bf5780600160a060020a03166000600060007f6a7573740000000000000000000000000000000000000000000000000000000081526004017f63616c6c000000000000000000000000000000000000000000000000000000008152602001600060008560155a03f150506001820391506045565b505056",
                "nonce" : "0x01",
                "storage" : {
                }
            },
            "0xb94f5374fce5edbc8e2a8697c15331677e6ebf0b" : {
                "balance" : "0x4c4b40",
                "code" : "0x61c3506000600037",
                "nonce" : "0x00",
                "storage" : {
                }
            }
        },
        "pre" : {
            "0xa94f5374fce5edbc8e2a8697c15331677e6ebf0b" : {
                "balance" : "0x1dcd6500",
                "code" : "0x60003560e060020a9004806361a4770614601557005b601e6004356024565b60006000f35b60008160008190555073b94f5374fce5edbc8e2a8697c15331677e6ebf0b90505b600082131560bf5780600160a060020a03166000600060007f6a7573740000000000000000000000000000000000000000000000000000000081526004017f63616c6c000000000000000000000000000000000000000000000000000000008152602001600060008560155a03f150506001820391506045565b505056",
                "nonce" : "0x00",
                "storage" : {
                }
            },
            "0xb94f5374fce5edbc8e2a8697c15331677e6ebf0b" : {
                "balance" : "0x4c4b40",
                "code" : "0x61c3506000600037",
                "nonce" : "0x00",
                "storage" : {
                }
            }
        }
    },
    "QuadraticComplexitySolidity_CallDataCopy_d0g0v0_EIP150" : {
        "_info" : {
            "comment" : "",
            "filledwith" : "cpp-1.3.0+commit.6e0ce939.Linux.g++",
            "lllcversion" : "Version: 0.4.18-develop.2017.9.25+commit.a72237f2.Linux.g++",
            "source" : "src/BlockchainTestsFiller/GeneralStateTests/stQuadraticComplexityTest/QuadraticComplexitySolidity_CallDataCopy_d0g0v0Filler.json",
            "sourceHash" : "a30bb48b9e98f17072001b8815b0e9e0e83891c753c794a03ae5a7f7d0f5da95"
        },
        "blocks" : [
            {
                "blockHeader" : {
                    "bloom" : "0x00000000000000000000000000000000000000000000000000000000000000000000000000000000000000000000000000000000000000000000000000000000000000000000000000000000000000000000000000000000000000000000000000000000000000000000000000000000000000000000000000000000000000000000000000000000000000000000000000000000000000000000000000000000000000000000000000000000000000000000000000000000000000000000000000000000000000000000000000000000000000000000000000000000000000000000000000000000000000000000000000000000000000000000000000000000",
                    "coinbase" : "0x2adc25665018aa1fe0e6bc666dac8fc2697ff9ba",
                    "difficulty" : "0x020000",
                    "extraData" : "",
                    "gasLimit" : "0x14dc9380",
                    "gasUsed" : "0x0249f0",
                    "hash" : "0x89bf6dcb600925aead35c9cf72a7d26e8b3cd11e89b0522e8edc9b4d76cbfd4c",
                    "mixHash" : "0x632384ad93c58f51133512b1f2be10d459acc54b8e39744f7a4f743f52ad6b68",
                    "nonce" : "0xe85c9a3fdc0f0290",
                    "number" : "0x01",
                    "parentHash" : "0x041e94b0f39f11c4830f4f025e212840d118a499042ae86a9e92a3accb944a95",
                    "receiptTrie" : "0x8f884bc73976484d0005978a7148fa1c894245e653eceb4d729821e9c1febd51",
                    "stateRoot" : "0xde2a7cafacb6be98a5759b60250f31e57b14e69e671913f420280084dde1f9f8",
                    "timestamp" : "0x03e8",
                    "transactionsTrie" : "0xbce4cb5f6e577c92b2a12c5133fe9c9c22e3e7a9e90972620db5b4b85fb649f5",
                    "uncleHash" : "0x1dcc4de8dec75d7aab85b567b6ccd41ad312451b948a7413f0a142fd40d49347"
                },
                "rlp" : "0xf90285f901f9a0041e94b0f39f11c4830f4f025e212840d118a499042ae86a9e92a3accb944a95a01dcc4de8dec75d7aab85b567b6ccd41ad312451b948a7413f0a142fd40d49347942adc25665018aa1fe0e6bc666dac8fc2697ff9baa0de2a7cafacb6be98a5759b60250f31e57b14e69e671913f420280084dde1f9f8a0bce4cb5f6e577c92b2a12c5133fe9c9c22e3e7a9e90972620db5b4b85fb649f5a08f884bc73976484d0005978a7148fa1c894245e653eceb4d729821e9c1febd51b901000000000000000000000000000000000000000000000000000000000000000000000000000000000000000000000000000000000000000000000000000000000000000000000000000000000000000000000000000000000000000000000000000000000000000000000000000000000000000000000000000000000000000000000000000000000000000000000000000000000000000000000000000000000000000000000000000000000000000000000000000000000000000000000000000000000000000000000000000000000000000000000000000000000000000000000000000000000000000000000000000000000000000000000000000000000083020000018414dc9380830249f08203e880a0632384ad93c58f51133512b1f2be10d459acc54b8e39744f7a4f743f52ad6b6888e85c9a3fdc0f0290f886f8848001830249f094a94f5374fce5edbc8e2a8697c15331677e6ebf0b01a461a47706000000000000000000000000000000000000000000000000000000000000c3501ba0eeae88cf69c98c0cc6d02a3cae888c5730ae3b5f3eb7b1b732d25f5226f0fa4ca0035b51606543ceb96ec32be609280bca29d9221b1b6b9bc97388cd2517ac2cafc0",
                "transactions" : [
                    {
                        "data" : "0x61a47706000000000000000000000000000000000000000000000000000000000000c350",
                        "gasLimit" : "0x0249f0",
                        "gasPrice" : "0x01",
                        "nonce" : "0x00",
                        "r" : "0xeeae88cf69c98c0cc6d02a3cae888c5730ae3b5f3eb7b1b732d25f5226f0fa4c",
                        "s" : "0x035b51606543ceb96ec32be609280bca29d9221b1b6b9bc97388cd2517ac2caf",
                        "to" : "0xa94f5374fce5edbc8e2a8697c15331677e6ebf0b",
                        "v" : "0x1b",
                        "value" : "0x01"
                    }
                ],
                "uncleHeaders" : [
                ]
            }
        ],
        "genesisBlockHeader" : {
            "bloom" : "0x00000000000000000000000000000000000000000000000000000000000000000000000000000000000000000000000000000000000000000000000000000000000000000000000000000000000000000000000000000000000000000000000000000000000000000000000000000000000000000000000000000000000000000000000000000000000000000000000000000000000000000000000000000000000000000000000000000000000000000000000000000000000000000000000000000000000000000000000000000000000000000000000000000000000000000000000000000000000000000000000000000000000000000000000000000000",
            "coinbase" : "0x2adc25665018aa1fe0e6bc666dac8fc2697ff9ba",
            "difficulty" : "0x020000",
            "extraData" : "0x42",
            "gasLimit" : "0x14dc9380",
            "gasUsed" : "0x00",
            "hash" : "0x041e94b0f39f11c4830f4f025e212840d118a499042ae86a9e92a3accb944a95",
            "mixHash" : "0x56e81f171bcc55a6ff8345e692c0f86e5b48e01b996cadc001622fb5e363b421",
            "nonce" : "0x0102030405060708",
            "number" : "0x00",
            "parentHash" : "0x0000000000000000000000000000000000000000000000000000000000000000",
            "receiptTrie" : "0x56e81f171bcc55a6ff8345e692c0f86e5b48e01b996cadc001622fb5e363b421",
            "stateRoot" : "0xd372df10433e24ad7c2a2893d7758e15871230c1eb57798363f93db9fea0546c",
            "timestamp" : "0x03b6",
            "transactionsTrie" : "0x56e81f171bcc55a6ff8345e692c0f86e5b48e01b996cadc001622fb5e363b421",
            "uncleHash" : "0x1dcc4de8dec75d7aab85b567b6ccd41ad312451b948a7413f0a142fd40d49347"
        },
        "genesisRLP" : "0xf901fbf901f6a00000000000000000000000000000000000000000000000000000000000000000a01dcc4de8dec75d7aab85b567b6ccd41ad312451b948a7413f0a142fd40d49347942adc25665018aa1fe0e6bc666dac8fc2697ff9baa0d372df10433e24ad7c2a2893d7758e15871230c1eb57798363f93db9fea0546ca056e81f171bcc55a6ff8345e692c0f86e5b48e01b996cadc001622fb5e363b421a056e81f171bcc55a6ff8345e692c0f86e5b48e01b996cadc001622fb5e363b421b901000000000000000000000000000000000000000000000000000000000000000000000000000000000000000000000000000000000000000000000000000000000000000000000000000000000000000000000000000000000000000000000000000000000000000000000000000000000000000000000000000000000000000000000000000000000000000000000000000000000000000000000000000000000000000000000000000000000000000000000000000000000000000000000000000000000000000000000000000000000000000000000000000000000000000000000000000000000000000000000000000000000000000000000000000000000083020000808414dc9380808203b642a056e81f171bcc55a6ff8345e692c0f86e5b48e01b996cadc001622fb5e363b421880102030405060708c0c0",
        "lastblockhash" : "0x89bf6dcb600925aead35c9cf72a7d26e8b3cd11e89b0522e8edc9b4d76cbfd4c",
        "network" : "EIP150",
        "postState" : {
            "0x2adc25665018aa1fe0e6bc666dac8fc2697ff9ba" : {
                "balance" : "0x4563918244f649f0",
                "code" : "",
                "nonce" : "0x00",
                "storage" : {
                }
            },
            "0xa94f5374fce5edbc8e2a8697c15331677e6ebf0b" : {
                "balance" : "0x1dcb1b10",
                "code" : "0x60003560e060020a9004806361a4770614601557005b601e6004356024565b60006000f35b60008160008190555073b94f5374fce5edbc8e2a8697c15331677e6ebf0b90505b600082131560bf5780600160a060020a03166000600060007f6a7573740000000000000000000000000000000000000000000000000000000081526004017f63616c6c000000000000000000000000000000000000000000000000000000008152602001600060008560155a03f150506001820391506045565b505056",
                "nonce" : "0x01",
                "storage" : {
                }
            },
            "0xb94f5374fce5edbc8e2a8697c15331677e6ebf0b" : {
                "balance" : "0x4c4b40",
                "code" : "0x61c3506000600037",
                "nonce" : "0x00",
                "storage" : {
                }
            }
        },
        "pre" : {
            "0xa94f5374fce5edbc8e2a8697c15331677e6ebf0b" : {
                "balance" : "0x1dcd6500",
                "code" : "0x60003560e060020a9004806361a4770614601557005b601e6004356024565b60006000f35b60008160008190555073b94f5374fce5edbc8e2a8697c15331677e6ebf0b90505b600082131560bf5780600160a060020a03166000600060007f6a7573740000000000000000000000000000000000000000000000000000000081526004017f63616c6c000000000000000000000000000000000000000000000000000000008152602001600060008560155a03f150506001820391506045565b505056",
                "nonce" : "0x00",
                "storage" : {
                }
            },
            "0xb94f5374fce5edbc8e2a8697c15331677e6ebf0b" : {
                "balance" : "0x4c4b40",
                "code" : "0x61c3506000600037",
                "nonce" : "0x00",
                "storage" : {
                }
            }
        }
    },
    "QuadraticComplexitySolidity_CallDataCopy_d0g0v0_EIP158" : {
        "_info" : {
            "comment" : "",
            "filledwith" : "cpp-1.3.0+commit.6e0ce939.Linux.g++",
            "lllcversion" : "Version: 0.4.18-develop.2017.9.25+commit.a72237f2.Linux.g++",
            "source" : "src/BlockchainTestsFiller/GeneralStateTests/stQuadraticComplexityTest/QuadraticComplexitySolidity_CallDataCopy_d0g0v0Filler.json",
            "sourceHash" : "a30bb48b9e98f17072001b8815b0e9e0e83891c753c794a03ae5a7f7d0f5da95"
        },
        "blocks" : [
            {
                "blockHeader" : {
                    "bloom" : "0x00000000000000000000000000000000000000000000000000000000000000000000000000000000000000000000000000000000000000000000000000000000000000000000000000000000000000000000000000000000000000000000000000000000000000000000000000000000000000000000000000000000000000000000000000000000000000000000000000000000000000000000000000000000000000000000000000000000000000000000000000000000000000000000000000000000000000000000000000000000000000000000000000000000000000000000000000000000000000000000000000000000000000000000000000000000",
                    "coinbase" : "0x2adc25665018aa1fe0e6bc666dac8fc2697ff9ba",
                    "difficulty" : "0x020000",
                    "extraData" : "",
                    "gasLimit" : "0x14dc9380",
                    "gasUsed" : "0x0249f0",
                    "hash" : "0x9f6fe502fedcbb56eb754e436366de90ba8fcf05a44eeab66306dbe7a6a22bc2",
                    "mixHash" : "0x66e2f6e6cf2a843d02ca727dd5de3ebc9de19cbb023646507eedfd86bb86ddcc",
                    "nonce" : "0xf96af180e9038c45",
                    "number" : "0x01",
                    "parentHash" : "0x041e94b0f39f11c4830f4f025e212840d118a499042ae86a9e92a3accb944a95",
                    "receiptTrie" : "0x8f884bc73976484d0005978a7148fa1c894245e653eceb4d729821e9c1febd51",
                    "stateRoot" : "0xde2a7cafacb6be98a5759b60250f31e57b14e69e671913f420280084dde1f9f8",
                    "timestamp" : "0x03e8",
                    "transactionsTrie" : "0xbce4cb5f6e577c92b2a12c5133fe9c9c22e3e7a9e90972620db5b4b85fb649f5",
                    "uncleHash" : "0x1dcc4de8dec75d7aab85b567b6ccd41ad312451b948a7413f0a142fd40d49347"
                },
                "rlp" : "0xf90285f901f9a0041e94b0f39f11c4830f4f025e212840d118a499042ae86a9e92a3accb944a95a01dcc4de8dec75d7aab85b567b6ccd41ad312451b948a7413f0a142fd40d49347942adc25665018aa1fe0e6bc666dac8fc2697ff9baa0de2a7cafacb6be98a5759b60250f31e57b14e69e671913f420280084dde1f9f8a0bce4cb5f6e577c92b2a12c5133fe9c9c22e3e7a9e90972620db5b4b85fb649f5a08f884bc73976484d0005978a7148fa1c894245e653eceb4d729821e9c1febd51b901000000000000000000000000000000000000000000000000000000000000000000000000000000000000000000000000000000000000000000000000000000000000000000000000000000000000000000000000000000000000000000000000000000000000000000000000000000000000000000000000000000000000000000000000000000000000000000000000000000000000000000000000000000000000000000000000000000000000000000000000000000000000000000000000000000000000000000000000000000000000000000000000000000000000000000000000000000000000000000000000000000000000000000000000000000000083020000018414dc9380830249f08203e880a066e2f6e6cf2a843d02ca727dd5de3ebc9de19cbb023646507eedfd86bb86ddcc88f96af180e9038c45f886f8848001830249f094a94f5374fce5edbc8e2a8697c15331677e6ebf0b01a461a47706000000000000000000000000000000000000000000000000000000000000c3501ba0eeae88cf69c98c0cc6d02a3cae888c5730ae3b5f3eb7b1b732d25f5226f0fa4ca0035b51606543ceb96ec32be609280bca29d9221b1b6b9bc97388cd2517ac2cafc0",
                "transactions" : [
                    {
                        "data" : "0x61a47706000000000000000000000000000000000000000000000000000000000000c350",
                        "gasLimit" : "0x0249f0",
                        "gasPrice" : "0x01",
                        "nonce" : "0x00",
                        "r" : "0xeeae88cf69c98c0cc6d02a3cae888c5730ae3b5f3eb7b1b732d25f5226f0fa4c",
                        "s" : "0x035b51606543ceb96ec32be609280bca29d9221b1b6b9bc97388cd2517ac2caf",
                        "to" : "0xa94f5374fce5edbc8e2a8697c15331677e6ebf0b",
                        "v" : "0x1b",
                        "value" : "0x01"
                    }
                ],
                "uncleHeaders" : [
                ]
            }
        ],
        "genesisBlockHeader" : {
            "bloom" : "0x00000000000000000000000000000000000000000000000000000000000000000000000000000000000000000000000000000000000000000000000000000000000000000000000000000000000000000000000000000000000000000000000000000000000000000000000000000000000000000000000000000000000000000000000000000000000000000000000000000000000000000000000000000000000000000000000000000000000000000000000000000000000000000000000000000000000000000000000000000000000000000000000000000000000000000000000000000000000000000000000000000000000000000000000000000000",
            "coinbase" : "0x2adc25665018aa1fe0e6bc666dac8fc2697ff9ba",
            "difficulty" : "0x020000",
            "extraData" : "0x42",
            "gasLimit" : "0x14dc9380",
            "gasUsed" : "0x00",
            "hash" : "0x041e94b0f39f11c4830f4f025e212840d118a499042ae86a9e92a3accb944a95",
            "mixHash" : "0x56e81f171bcc55a6ff8345e692c0f86e5b48e01b996cadc001622fb5e363b421",
            "nonce" : "0x0102030405060708",
            "number" : "0x00",
            "parentHash" : "0x0000000000000000000000000000000000000000000000000000000000000000",
            "receiptTrie" : "0x56e81f171bcc55a6ff8345e692c0f86e5b48e01b996cadc001622fb5e363b421",
            "stateRoot" : "0xd372df10433e24ad7c2a2893d7758e15871230c1eb57798363f93db9fea0546c",
            "timestamp" : "0x03b6",
            "transactionsTrie" : "0x56e81f171bcc55a6ff8345e692c0f86e5b48e01b996cadc001622fb5e363b421",
            "uncleHash" : "0x1dcc4de8dec75d7aab85b567b6ccd41ad312451b948a7413f0a142fd40d49347"
        },
        "genesisRLP" : "0xf901fbf901f6a00000000000000000000000000000000000000000000000000000000000000000a01dcc4de8dec75d7aab85b567b6ccd41ad312451b948a7413f0a142fd40d49347942adc25665018aa1fe0e6bc666dac8fc2697ff9baa0d372df10433e24ad7c2a2893d7758e15871230c1eb57798363f93db9fea0546ca056e81f171bcc55a6ff8345e692c0f86e5b48e01b996cadc001622fb5e363b421a056e81f171bcc55a6ff8345e692c0f86e5b48e01b996cadc001622fb5e363b421b901000000000000000000000000000000000000000000000000000000000000000000000000000000000000000000000000000000000000000000000000000000000000000000000000000000000000000000000000000000000000000000000000000000000000000000000000000000000000000000000000000000000000000000000000000000000000000000000000000000000000000000000000000000000000000000000000000000000000000000000000000000000000000000000000000000000000000000000000000000000000000000000000000000000000000000000000000000000000000000000000000000000000000000000000000000000083020000808414dc9380808203b642a056e81f171bcc55a6ff8345e692c0f86e5b48e01b996cadc001622fb5e363b421880102030405060708c0c0",
        "lastblockhash" : "0x9f6fe502fedcbb56eb754e436366de90ba8fcf05a44eeab66306dbe7a6a22bc2",
        "network" : "EIP158",
        "postState" : {
            "0x2adc25665018aa1fe0e6bc666dac8fc2697ff9ba" : {
                "balance" : "0x4563918244f649f0",
                "code" : "",
                "nonce" : "0x00",
                "storage" : {
                }
            },
            "0xa94f5374fce5edbc8e2a8697c15331677e6ebf0b" : {
                "balance" : "0x1dcb1b10",
                "code" : "0x60003560e060020a9004806361a4770614601557005b601e6004356024565b60006000f35b60008160008190555073b94f5374fce5edbc8e2a8697c15331677e6ebf0b90505b600082131560bf5780600160a060020a03166000600060007f6a7573740000000000000000000000000000000000000000000000000000000081526004017f63616c6c000000000000000000000000000000000000000000000000000000008152602001600060008560155a03f150506001820391506045565b505056",
                "nonce" : "0x01",
                "storage" : {
                }
            },
            "0xb94f5374fce5edbc8e2a8697c15331677e6ebf0b" : {
                "balance" : "0x4c4b40",
                "code" : "0x61c3506000600037",
                "nonce" : "0x00",
                "storage" : {
                }
            }
        },
        "pre" : {
            "0xa94f5374fce5edbc8e2a8697c15331677e6ebf0b" : {
                "balance" : "0x1dcd6500",
                "code" : "0x60003560e060020a9004806361a4770614601557005b601e6004356024565b60006000f35b60008160008190555073b94f5374fce5edbc8e2a8697c15331677e6ebf0b90505b600082131560bf5780600160a060020a03166000600060007f6a7573740000000000000000000000000000000000000000000000000000000081526004017f63616c6c000000000000000000000000000000000000000000000000000000008152602001600060008560155a03f150506001820391506045565b505056",
                "nonce" : "0x00",
                "storage" : {
                }
            },
            "0xb94f5374fce5edbc8e2a8697c15331677e6ebf0b" : {
                "balance" : "0x4c4b40",
                "code" : "0x61c3506000600037",
                "nonce" : "0x00",
                "storage" : {
                }
            }
        }
    },
    "QuadraticComplexitySolidity_CallDataCopy_d0g0v0_Frontier" : {
        "_info" : {
            "comment" : "",
            "filledwith" : "cpp-1.3.0+commit.6e0ce939.Linux.g++",
            "lllcversion" : "Version: 0.4.18-develop.2017.9.25+commit.a72237f2.Linux.g++",
            "source" : "src/BlockchainTestsFiller/GeneralStateTests/stQuadraticComplexityTest/QuadraticComplexitySolidity_CallDataCopy_d0g0v0Filler.json",
            "sourceHash" : "a30bb48b9e98f17072001b8815b0e9e0e83891c753c794a03ae5a7f7d0f5da95"
        },
        "blocks" : [
            {
                "blockHeader" : {
                    "bloom" : "0x00000000000000000000000000000000000000000000000000000000000000000000000000000000000000000000000000000000000000000000000000000000000000000000000000000000000000000000000000000000000000000000000000000000000000000000000000000000000000000000000000000000000000000000000000000000000000000000000000000000000000000000000000000000000000000000000000000000000000000000000000000000000000000000000000000000000000000000000000000000000000000000000000000000000000000000000000000000000000000000000000000000000000000000000000000000",
                    "coinbase" : "0x2adc25665018aa1fe0e6bc666dac8fc2697ff9ba",
                    "difficulty" : "0x020000",
                    "extraData" : "",
                    "gasLimit" : "0x14dc9380",
                    "gasUsed" : "0x0249f0",
                    "hash" : "0xcf7688c280606e9efbfb2fb9d5713821719bc24abb7f03db4bdef3fd1d96f95c",
                    "mixHash" : "0xdfff307a2683a72ed2fddb2b0dff1b69779e7affc32801a26df4858c0b51f65c",
                    "nonce" : "0x6183067f86b0de0a",
                    "number" : "0x01",
                    "parentHash" : "0x041e94b0f39f11c4830f4f025e212840d118a499042ae86a9e92a3accb944a95",
                    "receiptTrie" : "0x8f884bc73976484d0005978a7148fa1c894245e653eceb4d729821e9c1febd51",
                    "stateRoot" : "0xde2a7cafacb6be98a5759b60250f31e57b14e69e671913f420280084dde1f9f8",
                    "timestamp" : "0x03e8",
                    "transactionsTrie" : "0xbce4cb5f6e577c92b2a12c5133fe9c9c22e3e7a9e90972620db5b4b85fb649f5",
                    "uncleHash" : "0x1dcc4de8dec75d7aab85b567b6ccd41ad312451b948a7413f0a142fd40d49347"
                },
                "rlp" : "0xf90285f901f9a0041e94b0f39f11c4830f4f025e212840d118a499042ae86a9e92a3accb944a95a01dcc4de8dec75d7aab85b567b6ccd41ad312451b948a7413f0a142fd40d49347942adc25665018aa1fe0e6bc666dac8fc2697ff9baa0de2a7cafacb6be98a5759b60250f31e57b14e69e671913f420280084dde1f9f8a0bce4cb5f6e577c92b2a12c5133fe9c9c22e3e7a9e90972620db5b4b85fb649f5a08f884bc73976484d0005978a7148fa1c894245e653eceb4d729821e9c1febd51b901000000000000000000000000000000000000000000000000000000000000000000000000000000000000000000000000000000000000000000000000000000000000000000000000000000000000000000000000000000000000000000000000000000000000000000000000000000000000000000000000000000000000000000000000000000000000000000000000000000000000000000000000000000000000000000000000000000000000000000000000000000000000000000000000000000000000000000000000000000000000000000000000000000000000000000000000000000000000000000000000000000000000000000000000000000000083020000018414dc9380830249f08203e880a0dfff307a2683a72ed2fddb2b0dff1b69779e7affc32801a26df4858c0b51f65c886183067f86b0de0af886f8848001830249f094a94f5374fce5edbc8e2a8697c15331677e6ebf0b01a461a47706000000000000000000000000000000000000000000000000000000000000c3501ba0eeae88cf69c98c0cc6d02a3cae888c5730ae3b5f3eb7b1b732d25f5226f0fa4ca0035b51606543ceb96ec32be609280bca29d9221b1b6b9bc97388cd2517ac2cafc0",
                "transactions" : [
                    {
                        "data" : "0x61a47706000000000000000000000000000000000000000000000000000000000000c350",
                        "gasLimit" : "0x0249f0",
                        "gasPrice" : "0x01",
                        "nonce" : "0x00",
                        "r" : "0xeeae88cf69c98c0cc6d02a3cae888c5730ae3b5f3eb7b1b732d25f5226f0fa4c",
                        "s" : "0x035b51606543ceb96ec32be609280bca29d9221b1b6b9bc97388cd2517ac2caf",
                        "to" : "0xa94f5374fce5edbc8e2a8697c15331677e6ebf0b",
                        "v" : "0x1b",
                        "value" : "0x01"
                    }
                ],
                "uncleHeaders" : [
                ]
            }
        ],
        "genesisBlockHeader" : {
            "bloom" : "0x00000000000000000000000000000000000000000000000000000000000000000000000000000000000000000000000000000000000000000000000000000000000000000000000000000000000000000000000000000000000000000000000000000000000000000000000000000000000000000000000000000000000000000000000000000000000000000000000000000000000000000000000000000000000000000000000000000000000000000000000000000000000000000000000000000000000000000000000000000000000000000000000000000000000000000000000000000000000000000000000000000000000000000000000000000000",
            "coinbase" : "0x2adc25665018aa1fe0e6bc666dac8fc2697ff9ba",
            "difficulty" : "0x020000",
            "extraData" : "0x42",
            "gasLimit" : "0x14dc9380",
            "gasUsed" : "0x00",
            "hash" : "0x041e94b0f39f11c4830f4f025e212840d118a499042ae86a9e92a3accb944a95",
            "mixHash" : "0x56e81f171bcc55a6ff8345e692c0f86e5b48e01b996cadc001622fb5e363b421",
            "nonce" : "0x0102030405060708",
            "number" : "0x00",
            "parentHash" : "0x0000000000000000000000000000000000000000000000000000000000000000",
            "receiptTrie" : "0x56e81f171bcc55a6ff8345e692c0f86e5b48e01b996cadc001622fb5e363b421",
            "stateRoot" : "0xd372df10433e24ad7c2a2893d7758e15871230c1eb57798363f93db9fea0546c",
            "timestamp" : "0x03b6",
            "transactionsTrie" : "0x56e81f171bcc55a6ff8345e692c0f86e5b48e01b996cadc001622fb5e363b421",
            "uncleHash" : "0x1dcc4de8dec75d7aab85b567b6ccd41ad312451b948a7413f0a142fd40d49347"
        },
        "genesisRLP" : "0xf901fbf901f6a00000000000000000000000000000000000000000000000000000000000000000a01dcc4de8dec75d7aab85b567b6ccd41ad312451b948a7413f0a142fd40d49347942adc25665018aa1fe0e6bc666dac8fc2697ff9baa0d372df10433e24ad7c2a2893d7758e15871230c1eb57798363f93db9fea0546ca056e81f171bcc55a6ff8345e692c0f86e5b48e01b996cadc001622fb5e363b421a056e81f171bcc55a6ff8345e692c0f86e5b48e01b996cadc001622fb5e363b421b901000000000000000000000000000000000000000000000000000000000000000000000000000000000000000000000000000000000000000000000000000000000000000000000000000000000000000000000000000000000000000000000000000000000000000000000000000000000000000000000000000000000000000000000000000000000000000000000000000000000000000000000000000000000000000000000000000000000000000000000000000000000000000000000000000000000000000000000000000000000000000000000000000000000000000000000000000000000000000000000000000000000000000000000000000000000083020000808414dc9380808203b642a056e81f171bcc55a6ff8345e692c0f86e5b48e01b996cadc001622fb5e363b421880102030405060708c0c0",
        "lastblockhash" : "0xcf7688c280606e9efbfb2fb9d5713821719bc24abb7f03db4bdef3fd1d96f95c",
        "network" : "Frontier",
        "postState" : {
            "0x2adc25665018aa1fe0e6bc666dac8fc2697ff9ba" : {
                "balance" : "0x4563918244f649f0",
                "code" : "",
                "nonce" : "0x00",
                "storage" : {
                }
            },
            "0xa94f5374fce5edbc8e2a8697c15331677e6ebf0b" : {
                "balance" : "0x1dcb1b10",
                "code" : "0x60003560e060020a9004806361a4770614601557005b601e6004356024565b60006000f35b60008160008190555073b94f5374fce5edbc8e2a8697c15331677e6ebf0b90505b600082131560bf5780600160a060020a03166000600060007f6a7573740000000000000000000000000000000000000000000000000000000081526004017f63616c6c000000000000000000000000000000000000000000000000000000008152602001600060008560155a03f150506001820391506045565b505056",
                "nonce" : "0x01",
                "storage" : {
                }
            },
            "0xb94f5374fce5edbc8e2a8697c15331677e6ebf0b" : {
                "balance" : "0x4c4b40",
                "code" : "0x61c3506000600037",
                "nonce" : "0x00",
                "storage" : {
                }
            }
        },
        "pre" : {
            "0xa94f5374fce5edbc8e2a8697c15331677e6ebf0b" : {
                "balance" : "0x1dcd6500",
                "code" : "0x60003560e060020a9004806361a4770614601557005b601e6004356024565b60006000f35b60008160008190555073b94f5374fce5edbc8e2a8697c15331677e6ebf0b90505b600082131560bf5780600160a060020a03166000600060007f6a7573740000000000000000000000000000000000000000000000000000000081526004017f63616c6c000000000000000000000000000000000000000000000000000000008152602001600060008560155a03f150506001820391506045565b505056",
                "nonce" : "0x00",
                "storage" : {
                }
            },
            "0xb94f5374fce5edbc8e2a8697c15331677e6ebf0b" : {
                "balance" : "0x4c4b40",
                "code" : "0x61c3506000600037",
                "nonce" : "0x00",
                "storage" : {
                }
            }
        }
    },
    "QuadraticComplexitySolidity_CallDataCopy_d0g0v0_Homestead" : {
        "_info" : {
            "comment" : "",
            "filledwith" : "cpp-1.3.0+commit.6e0ce939.Linux.g++",
            "lllcversion" : "Version: 0.4.18-develop.2017.9.25+commit.a72237f2.Linux.g++",
            "source" : "src/BlockchainTestsFiller/GeneralStateTests/stQuadraticComplexityTest/QuadraticComplexitySolidity_CallDataCopy_d0g0v0Filler.json",
            "sourceHash" : "a30bb48b9e98f17072001b8815b0e9e0e83891c753c794a03ae5a7f7d0f5da95"
        },
        "blocks" : [
            {
                "blockHeader" : {
                    "bloom" : "0x00000000000000000000000000000000000000000000000000000000000000000000000000000000000000000000000000000000000000000000000000000000000000000000000000000000000000000000000000000000000000000000000000000000000000000000000000000000000000000000000000000000000000000000000000000000000000000000000000000000000000000000000000000000000000000000000000000000000000000000000000000000000000000000000000000000000000000000000000000000000000000000000000000000000000000000000000000000000000000000000000000000000000000000000000000000",
                    "coinbase" : "0x2adc25665018aa1fe0e6bc666dac8fc2697ff9ba",
                    "difficulty" : "0x020000",
                    "extraData" : "",
                    "gasLimit" : "0x14dc9380",
                    "gasUsed" : "0x0249f0",
                    "hash" : "0x2a96985e9f4b2c187acafafbf5f7f05771ced7cf2132b445c7986e65d8049de5",
                    "mixHash" : "0x8996eaf1ba09673373b2fcb94875cbf09cbf0df476ab4fc5af667bca7fb7ce24",
                    "nonce" : "0xa95e9585634d5691",
                    "number" : "0x01",
                    "parentHash" : "0x041e94b0f39f11c4830f4f025e212840d118a499042ae86a9e92a3accb944a95",
                    "receiptTrie" : "0x8f884bc73976484d0005978a7148fa1c894245e653eceb4d729821e9c1febd51",
                    "stateRoot" : "0xde2a7cafacb6be98a5759b60250f31e57b14e69e671913f420280084dde1f9f8",
                    "timestamp" : "0x03e8",
                    "transactionsTrie" : "0xbce4cb5f6e577c92b2a12c5133fe9c9c22e3e7a9e90972620db5b4b85fb649f5",
                    "uncleHash" : "0x1dcc4de8dec75d7aab85b567b6ccd41ad312451b948a7413f0a142fd40d49347"
                },
                "rlp" : "0xf90285f901f9a0041e94b0f39f11c4830f4f025e212840d118a499042ae86a9e92a3accb944a95a01dcc4de8dec75d7aab85b567b6ccd41ad312451b948a7413f0a142fd40d49347942adc25665018aa1fe0e6bc666dac8fc2697ff9baa0de2a7cafacb6be98a5759b60250f31e57b14e69e671913f420280084dde1f9f8a0bce4cb5f6e577c92b2a12c5133fe9c9c22e3e7a9e90972620db5b4b85fb649f5a08f884bc73976484d0005978a7148fa1c894245e653eceb4d729821e9c1febd51b901000000000000000000000000000000000000000000000000000000000000000000000000000000000000000000000000000000000000000000000000000000000000000000000000000000000000000000000000000000000000000000000000000000000000000000000000000000000000000000000000000000000000000000000000000000000000000000000000000000000000000000000000000000000000000000000000000000000000000000000000000000000000000000000000000000000000000000000000000000000000000000000000000000000000000000000000000000000000000000000000000000000000000000000000000000000083020000018414dc9380830249f08203e880a08996eaf1ba09673373b2fcb94875cbf09cbf0df476ab4fc5af667bca7fb7ce2488a95e9585634d5691f886f8848001830249f094a94f5374fce5edbc8e2a8697c15331677e6ebf0b01a461a47706000000000000000000000000000000000000000000000000000000000000c3501ba0eeae88cf69c98c0cc6d02a3cae888c5730ae3b5f3eb7b1b732d25f5226f0fa4ca0035b51606543ceb96ec32be609280bca29d9221b1b6b9bc97388cd2517ac2cafc0",
                "transactions" : [
                    {
                        "data" : "0x61a47706000000000000000000000000000000000000000000000000000000000000c350",
                        "gasLimit" : "0x0249f0",
                        "gasPrice" : "0x01",
                        "nonce" : "0x00",
                        "r" : "0xeeae88cf69c98c0cc6d02a3cae888c5730ae3b5f3eb7b1b732d25f5226f0fa4c",
                        "s" : "0x035b51606543ceb96ec32be609280bca29d9221b1b6b9bc97388cd2517ac2caf",
                        "to" : "0xa94f5374fce5edbc8e2a8697c15331677e6ebf0b",
                        "v" : "0x1b",
                        "value" : "0x01"
                    }
                ],
                "uncleHeaders" : [
                ]
            }
        ],
        "genesisBlockHeader" : {
            "bloom" : "0x00000000000000000000000000000000000000000000000000000000000000000000000000000000000000000000000000000000000000000000000000000000000000000000000000000000000000000000000000000000000000000000000000000000000000000000000000000000000000000000000000000000000000000000000000000000000000000000000000000000000000000000000000000000000000000000000000000000000000000000000000000000000000000000000000000000000000000000000000000000000000000000000000000000000000000000000000000000000000000000000000000000000000000000000000000000",
            "coinbase" : "0x2adc25665018aa1fe0e6bc666dac8fc2697ff9ba",
            "difficulty" : "0x020000",
            "extraData" : "0x42",
            "gasLimit" : "0x14dc9380",
            "gasUsed" : "0x00",
            "hash" : "0x041e94b0f39f11c4830f4f025e212840d118a499042ae86a9e92a3accb944a95",
            "mixHash" : "0x56e81f171bcc55a6ff8345e692c0f86e5b48e01b996cadc001622fb5e363b421",
            "nonce" : "0x0102030405060708",
            "number" : "0x00",
            "parentHash" : "0x0000000000000000000000000000000000000000000000000000000000000000",
            "receiptTrie" : "0x56e81f171bcc55a6ff8345e692c0f86e5b48e01b996cadc001622fb5e363b421",
            "stateRoot" : "0xd372df10433e24ad7c2a2893d7758e15871230c1eb57798363f93db9fea0546c",
            "timestamp" : "0x03b6",
            "transactionsTrie" : "0x56e81f171bcc55a6ff8345e692c0f86e5b48e01b996cadc001622fb5e363b421",
            "uncleHash" : "0x1dcc4de8dec75d7aab85b567b6ccd41ad312451b948a7413f0a142fd40d49347"
        },
        "genesisRLP" : "0xf901fbf901f6a00000000000000000000000000000000000000000000000000000000000000000a01dcc4de8dec75d7aab85b567b6ccd41ad312451b948a7413f0a142fd40d49347942adc25665018aa1fe0e6bc666dac8fc2697ff9baa0d372df10433e24ad7c2a2893d7758e15871230c1eb57798363f93db9fea0546ca056e81f171bcc55a6ff8345e692c0f86e5b48e01b996cadc001622fb5e363b421a056e81f171bcc55a6ff8345e692c0f86e5b48e01b996cadc001622fb5e363b421b901000000000000000000000000000000000000000000000000000000000000000000000000000000000000000000000000000000000000000000000000000000000000000000000000000000000000000000000000000000000000000000000000000000000000000000000000000000000000000000000000000000000000000000000000000000000000000000000000000000000000000000000000000000000000000000000000000000000000000000000000000000000000000000000000000000000000000000000000000000000000000000000000000000000000000000000000000000000000000000000000000000000000000000000000000000000083020000808414dc9380808203b642a056e81f171bcc55a6ff8345e692c0f86e5b48e01b996cadc001622fb5e363b421880102030405060708c0c0",
        "lastblockhash" : "0x2a96985e9f4b2c187acafafbf5f7f05771ced7cf2132b445c7986e65d8049de5",
        "network" : "Homestead",
        "postState" : {
            "0x2adc25665018aa1fe0e6bc666dac8fc2697ff9ba" : {
                "balance" : "0x4563918244f649f0",
                "code" : "",
                "nonce" : "0x00",
                "storage" : {
                }
            },
            "0xa94f5374fce5edbc8e2a8697c15331677e6ebf0b" : {
                "balance" : "0x1dcb1b10",
                "code" : "0x60003560e060020a9004806361a4770614601557005b601e6004356024565b60006000f35b60008160008190555073b94f5374fce5edbc8e2a8697c15331677e6ebf0b90505b600082131560bf5780600160a060020a03166000600060007f6a7573740000000000000000000000000000000000000000000000000000000081526004017f63616c6c000000000000000000000000000000000000000000000000000000008152602001600060008560155a03f150506001820391506045565b505056",
                "nonce" : "0x01",
                "storage" : {
                }
            },
            "0xb94f5374fce5edbc8e2a8697c15331677e6ebf0b" : {
                "balance" : "0x4c4b40",
                "code" : "0x61c3506000600037",
                "nonce" : "0x00",
                "storage" : {
                }
            }
        },
        "pre" : {
            "0xa94f5374fce5edbc8e2a8697c15331677e6ebf0b" : {
                "balance" : "0x1dcd6500",
                "code" : "0x60003560e060020a9004806361a4770614601557005b601e6004356024565b60006000f35b60008160008190555073b94f5374fce5edbc8e2a8697c15331677e6ebf0b90505b600082131560bf5780600160a060020a03166000600060007f6a7573740000000000000000000000000000000000000000000000000000000081526004017f63616c6c000000000000000000000000000000000000000000000000000000008152602001600060008560155a03f150506001820391506045565b505056",
                "nonce" : "0x00",
                "storage" : {
                }
            },
            "0xb94f5374fce5edbc8e2a8697c15331677e6ebf0b" : {
                "balance" : "0x4c4b40",
                "code" : "0x61c3506000600037",
                "nonce" : "0x00",
                "storage" : {
                }
            }
        }
    }
}