{
    "Return50000_2_d0g0v0_Byzantium" : {
        "_info" : {
            "comment" : "",
            "filledwith" : "cpp-1.3.0+commit.6e0ce939.Linux.g++",
            "lllcversion" : "Version: 0.4.18-develop.2017.9.25+commit.a72237f2.Linux.g++",
            "source" : "src/BlockchainTestsFiller/GeneralStateTests/stQuadraticComplexityTest/Return50000_2_d0g0v0Filler.json",
            "sourceHash" : "9f4aef049ee6a23ef7c16bf51d72d6e7952ac9f450f4ab658337c89db2141398"
        },
        "blocks" : [
            {
                "blockHeader" : {
                    "bloom" : "0x00000000000000000000000000000000000000000000000000000000000000000000000000000000000000000000000000000000000000000000000000000000000000000000000000000000000000000000000000000000000000000000000000000000000000000000000000000000000000000000000000000000000000000000000000000000000000000000000000000000000000000000000000000000000000000000000000000000000000000000000000000000000000000000000000000000000000000000000000000000000000000000000000000000000000000000000000000000000000000000000000000000000000000000000000000000",
                    "coinbase" : "0xb94f5374fce5edbc8e2a8697c15331677e6ebf0b",
                    "difficulty" : "0x020000",
                    "extraData" : "",
                    "gasLimit" : "0x020e02d040",
                    "gasUsed" : "0x0249f0",
                    "hash" : "0x039b154bc70feb4a652473467f7bd6df4ae69509fec023452529d4b964ce2e4c",
                    "mixHash" : "0xdaf2b213f4d0f5db6095f7e5e0ec1fd7aecf9cec74b2f445c4c1b10ae72df9d0",
                    "nonce" : "0xb3816e6492b86ed6",
                    "number" : "0x01",
                    "parentHash" : "0xf5dfdd7aa048260f254ca4b3907808c0460d297720474016f838980877fb9412",
                    "receiptTrie" : "0xa0e10907f175886de9bd8cd4ac2c21d1db4109a3a9fecf60f54015ee102803fd",
                    "stateRoot" : "0x08a2de783f619ce3972960b9c162380feb2f8270317137e2c676400e9a7ac857",
                    "timestamp" : "0x03e8",
                    "transactionsTrie" : "0xa0ec2fa38ce491778e1b6da60eba5927ecd92ad8cde4a3d964deef99110e1b29",
                    "uncleHash" : "0x1dcc4de8dec75d7aab85b567b6ccd41ad312451b948a7413f0a142fd40d49347"
                },
                "rlp" : "0xf90262f901faa0f5dfdd7aa048260f254ca4b3907808c0460d297720474016f838980877fb9412a01dcc4de8dec75d7aab85b567b6ccd41ad312451b948a7413f0a142fd40d4934794b94f5374fce5edbc8e2a8697c15331677e6ebf0ba008a2de783f619ce3972960b9c162380feb2f8270317137e2c676400e9a7ac857a0a0ec2fa38ce491778e1b6da60eba5927ecd92ad8cde4a3d964deef99110e1b29a0a0e10907f175886de9bd8cd4ac2c21d1db4109a3a9fecf60f54015ee102803fdb9010000000000000000000000000000000000000000000000000000000000000000000000000000000000000000000000000000000000000000000000000000000000000000000000000000000000000000000000000000000000000000000000000000000000000000000000000000000000000000000000000000000000000000000000000000000000000000000000000000000000000000000000000000000000000000000000000000000000000000000000000000000000000000000000000000000000000000000000000000000000000000000000000000000000000000000000000000000000000000000000000000000000000000000000000000000000830200000185020e02d040830249f08203e880a0daf2b213f4d0f5db6095f7e5e0ec1fd7aecf9cec74b2f445c4c1b10ae72df9d088b3816e6492b86ed6f862f8608001830249f094bbbf5374fce5edbc8e2a8697c15331677e6ebf0b0a801ba020bc21bc6aadd85fed142b7b980799d44c5d6f1ec8f3e1e2cb97dc68880e4795a0603fbf089643eb78e7e7ad708eded071087c93a23dba3c56c9704465d2a69207c0",
                "transactions" : [
                    {
                        "data" : "",
                        "gasLimit" : "0x0249f0",
                        "gasPrice" : "0x01",
                        "nonce" : "0x00",
                        "r" : "0x20bc21bc6aadd85fed142b7b980799d44c5d6f1ec8f3e1e2cb97dc68880e4795",
                        "s" : "0x603fbf089643eb78e7e7ad708eded071087c93a23dba3c56c9704465d2a69207",
                        "to" : "0xbbbf5374fce5edbc8e2a8697c15331677e6ebf0b",
                        "v" : "0x1b",
                        "value" : "0x0a"
                    }
                ],
                "uncleHeaders" : [
                ]
            }
        ],
        "genesisBlockHeader" : {
            "bloom" : "0x00000000000000000000000000000000000000000000000000000000000000000000000000000000000000000000000000000000000000000000000000000000000000000000000000000000000000000000000000000000000000000000000000000000000000000000000000000000000000000000000000000000000000000000000000000000000000000000000000000000000000000000000000000000000000000000000000000000000000000000000000000000000000000000000000000000000000000000000000000000000000000000000000000000000000000000000000000000000000000000000000000000000000000000000000000000",
            "coinbase" : "0xb94f5374fce5edbc8e2a8697c15331677e6ebf0b",
            "difficulty" : "0x020000",
            "extraData" : "0x42",
            "gasLimit" : "0x020e02d040",
            "gasUsed" : "0x00",
            "hash" : "0xf5dfdd7aa048260f254ca4b3907808c0460d297720474016f838980877fb9412",
            "mixHash" : "0x56e81f171bcc55a6ff8345e692c0f86e5b48e01b996cadc001622fb5e363b421",
            "nonce" : "0x0102030405060708",
            "number" : "0x00",
            "parentHash" : "0x0000000000000000000000000000000000000000000000000000000000000000",
            "receiptTrie" : "0x56e81f171bcc55a6ff8345e692c0f86e5b48e01b996cadc001622fb5e363b421",
            "stateRoot" : "0x5d5adaf8664534656ec492916ffeca9be6010b83ca8633d1d0078370e16e7e30",
            "timestamp" : "0x03b6",
            "transactionsTrie" : "0x56e81f171bcc55a6ff8345e692c0f86e5b48e01b996cadc001622fb5e363b421",
            "uncleHash" : "0x1dcc4de8dec75d7aab85b567b6ccd41ad312451b948a7413f0a142fd40d49347"
        },
        "genesisRLP" : "0xf901fcf901f7a00000000000000000000000000000000000000000000000000000000000000000a01dcc4de8dec75d7aab85b567b6ccd41ad312451b948a7413f0a142fd40d4934794b94f5374fce5edbc8e2a8697c15331677e6ebf0ba05d5adaf8664534656ec492916ffeca9be6010b83ca8633d1d0078370e16e7e30a056e81f171bcc55a6ff8345e692c0f86e5b48e01b996cadc001622fb5e363b421a056e81f171bcc55a6ff8345e692c0f86e5b48e01b996cadc001622fb5e363b421b9010000000000000000000000000000000000000000000000000000000000000000000000000000000000000000000000000000000000000000000000000000000000000000000000000000000000000000000000000000000000000000000000000000000000000000000000000000000000000000000000000000000000000000000000000000000000000000000000000000000000000000000000000000000000000000000000000000000000000000000000000000000000000000000000000000000000000000000000000000000000000000000000000000000000000000000000000000000000000000000000000000000000000000000000000000000000830200008085020e02d040808203b642a056e81f171bcc55a6ff8345e692c0f86e5b48e01b996cadc001622fb5e363b421880102030405060708c0c0",
        "lastblockhash" : "0x039b154bc70feb4a652473467f7bd6df4ae69509fec023452529d4b964ce2e4c",
        "network" : "Byzantium",
        "postState" : {
            "0xa94f5374fce5edbc8e2a8697c15331677e6ebf0b" : {
                "balance" : "0xfffffffffffffffffffffffffffdb60f",
                "code" : "",
                "nonce" : "0x01",
                "storage" : {
                }
            },
            "0xaaaf5374fce5edbc8e2a8697c15331677e6ebf0b" : {
                "balance" : "0x0fffffffffffff",
                "code" : "0x61c34f356000526001600051f3",
                "nonce" : "0x00",
                "storage" : {
                }
            },
            "0xb94f5374fce5edbc8e2a8697c15331677e6ebf0b" : {
                "balance" : "0x29a2241af62e49f0",
                "code" : "",
                "nonce" : "0x00",
                "storage" : {
                }
            },
            "0xbbbf5374fce5edbc8e2a8697c15331677e6ebf0b" : {
                "balance" : "0x0fffffffffffff",
                "code" : "0x5b61c3506080511015603f576000600061c3506000600073aaaf5374fce5edbc8e2a8697c15331677e6ebf0b61061cf16000556001608051016080526000565b608051600155",
                "nonce" : "0x00",
                "storage" : {
                }
            }
        },
        "pre" : {
            "0xa94f5374fce5edbc8e2a8697c15331677e6ebf0b" : {
                "balance" : "0xffffffffffffffffffffffffffffffff",
                "code" : "",
                "nonce" : "0x00",
                "storage" : {
                }
            },
            "0xaaaf5374fce5edbc8e2a8697c15331677e6ebf0b" : {
                "balance" : "0x0fffffffffffff",
                "code" : "0x61c34f356000526001600051f3",
                "nonce" : "0x00",
                "storage" : {
                }
            },
            "0xbbbf5374fce5edbc8e2a8697c15331677e6ebf0b" : {
                "balance" : "0x0fffffffffffff",
                "code" : "0x5b61c3506080511015603f576000600061c3506000600073aaaf5374fce5edbc8e2a8697c15331677e6ebf0b61061cf16000556001608051016080526000565b608051600155",
                "nonce" : "0x00",
                "storage" : {
                }
            }
        }
    },
    "Return50000_2_d0g0v0_EIP150" : {
        "_info" : {
            "comment" : "",
            "filledwith" : "cpp-1.3.0+commit.6e0ce939.Linux.g++",
            "lllcversion" : "Version: 0.4.18-develop.2017.9.25+commit.a72237f2.Linux.g++",
            "source" : "src/BlockchainTestsFiller/GeneralStateTests/stQuadraticComplexityTest/Return50000_2_d0g0v0Filler.json",
            "sourceHash" : "9f4aef049ee6a23ef7c16bf51d72d6e7952ac9f450f4ab658337c89db2141398"
        },
        "blocks" : [
            {
                "blockHeader" : {
                    "bloom" : "0x00000000000000000000000000000000000000000000000000000000000000000000000000000000000000000000000000000000000000000000000000000000000000000000000000000000000000000000000000000000000000000000000000000000000000000000000000000000000000000000000000000000000000000000000000000000000000000000000000000000000000000000000000000000000000000000000000000000000000000000000000000000000000000000000000000000000000000000000000000000000000000000000000000000000000000000000000000000000000000000000000000000000000000000000000000000",
                    "coinbase" : "0xb94f5374fce5edbc8e2a8697c15331677e6ebf0b",
                    "difficulty" : "0x020000",
                    "extraData" : "",
                    "gasLimit" : "0x020e02d040",
                    "gasUsed" : "0x0249f0",
                    "hash" : "0xb23d827733dcb24fe7e7ab5444cc01a0855cfa6b5a514c3540ca13f3ffc32763",
                    "mixHash" : "0x522df3245e2b07db545731d9cac5f08ec1295676e2641099847b631751cd77b5",
                    "nonce" : "0xe26e633b0856ff7a",
                    "number" : "0x01",
                    "parentHash" : "0xf5dfdd7aa048260f254ca4b3907808c0460d297720474016f838980877fb9412",
                    "receiptTrie" : "0xd7ac4a14833c2a2863444010cba58c17e30ddc0ab9d753d8ba0aa84b2e4c4120",
                    "stateRoot" : "0x5d329ce26cdb9836d19e944bafb05968e1805b8b03bacebbdefe730a497856f8",
                    "timestamp" : "0x03e8",
                    "transactionsTrie" : "0xa0ec2fa38ce491778e1b6da60eba5927ecd92ad8cde4a3d964deef99110e1b29",
                    "uncleHash" : "0x1dcc4de8dec75d7aab85b567b6ccd41ad312451b948a7413f0a142fd40d49347"
                },
                "rlp" : "0xf90262f901faa0f5dfdd7aa048260f254ca4b3907808c0460d297720474016f838980877fb9412a01dcc4de8dec75d7aab85b567b6ccd41ad312451b948a7413f0a142fd40d4934794b94f5374fce5edbc8e2a8697c15331677e6ebf0ba05d329ce26cdb9836d19e944bafb05968e1805b8b03bacebbdefe730a497856f8a0a0ec2fa38ce491778e1b6da60eba5927ecd92ad8cde4a3d964deef99110e1b29a0d7ac4a14833c2a2863444010cba58c17e30ddc0ab9d753d8ba0aa84b2e4c4120b9010000000000000000000000000000000000000000000000000000000000000000000000000000000000000000000000000000000000000000000000000000000000000000000000000000000000000000000000000000000000000000000000000000000000000000000000000000000000000000000000000000000000000000000000000000000000000000000000000000000000000000000000000000000000000000000000000000000000000000000000000000000000000000000000000000000000000000000000000000000000000000000000000000000000000000000000000000000000000000000000000000000000000000000000000000000000830200000185020e02d040830249f08203e880a0522df3245e2b07db545731d9cac5f08ec1295676e2641099847b631751cd77b588e26e633b0856ff7af862f8608001830249f094bbbf5374fce5edbc8e2a8697c15331677e6ebf0b0a801ba020bc21bc6aadd85fed142b7b980799d44c5d6f1ec8f3e1e2cb97dc68880e4795a0603fbf089643eb78e7e7ad708eded071087c93a23dba3c56c9704465d2a69207c0",
                "transactions" : [
                    {
                        "data" : "",
                        "gasLimit" : "0x0249f0",
                        "gasPrice" : "0x01",
                        "nonce" : "0x00",
                        "r" : "0x20bc21bc6aadd85fed142b7b980799d44c5d6f1ec8f3e1e2cb97dc68880e4795",
                        "s" : "0x603fbf089643eb78e7e7ad708eded071087c93a23dba3c56c9704465d2a69207",
                        "to" : "0xbbbf5374fce5edbc8e2a8697c15331677e6ebf0b",
                        "v" : "0x1b",
                        "value" : "0x0a"
                    }
                ],
                "uncleHeaders" : [
                ]
            }
        ],
        "genesisBlockHeader" : {
            "bloom" : "0x00000000000000000000000000000000000000000000000000000000000000000000000000000000000000000000000000000000000000000000000000000000000000000000000000000000000000000000000000000000000000000000000000000000000000000000000000000000000000000000000000000000000000000000000000000000000000000000000000000000000000000000000000000000000000000000000000000000000000000000000000000000000000000000000000000000000000000000000000000000000000000000000000000000000000000000000000000000000000000000000000000000000000000000000000000000",
            "coinbase" : "0xb94f5374fce5edbc8e2a8697c15331677e6ebf0b",
            "difficulty" : "0x020000",
            "extraData" : "0x42",
            "gasLimit" : "0x020e02d040",
            "gasUsed" : "0x00",
            "hash" : "0xf5dfdd7aa048260f254ca4b3907808c0460d297720474016f838980877fb9412",
            "mixHash" : "0x56e81f171bcc55a6ff8345e692c0f86e5b48e01b996cadc001622fb5e363b421",
            "nonce" : "0x0102030405060708",
            "number" : "0x00",
            "parentHash" : "0x0000000000000000000000000000000000000000000000000000000000000000",
            "receiptTrie" : "0x56e81f171bcc55a6ff8345e692c0f86e5b48e01b996cadc001622fb5e363b421",
            "stateRoot" : "0x5d5adaf8664534656ec492916ffeca9be6010b83ca8633d1d0078370e16e7e30",
            "timestamp" : "0x03b6",
            "transactionsTrie" : "0x56e81f171bcc55a6ff8345e692c0f86e5b48e01b996cadc001622fb5e363b421",
            "uncleHash" : "0x1dcc4de8dec75d7aab85b567b6ccd41ad312451b948a7413f0a142fd40d49347"
        },
        "genesisRLP" : "0xf901fcf901f7a00000000000000000000000000000000000000000000000000000000000000000a01dcc4de8dec75d7aab85b567b6ccd41ad312451b948a7413f0a142fd40d4934794b94f5374fce5edbc8e2a8697c15331677e6ebf0ba05d5adaf8664534656ec492916ffeca9be6010b83ca8633d1d0078370e16e7e30a056e81f171bcc55a6ff8345e692c0f86e5b48e01b996cadc001622fb5e363b421a056e81f171bcc55a6ff8345e692c0f86e5b48e01b996cadc001622fb5e363b421b9010000000000000000000000000000000000000000000000000000000000000000000000000000000000000000000000000000000000000000000000000000000000000000000000000000000000000000000000000000000000000000000000000000000000000000000000000000000000000000000000000000000000000000000000000000000000000000000000000000000000000000000000000000000000000000000000000000000000000000000000000000000000000000000000000000000000000000000000000000000000000000000000000000000000000000000000000000000000000000000000000000000000000000000000000000000000830200008085020e02d040808203b642a056e81f171bcc55a6ff8345e692c0f86e5b48e01b996cadc001622fb5e363b421880102030405060708c0c0",
        "lastblockhash" : "0xb23d827733dcb24fe7e7ab5444cc01a0855cfa6b5a514c3540ca13f3ffc32763",
        "network" : "EIP150",
        "postState" : {
            "0xa94f5374fce5edbc8e2a8697c15331677e6ebf0b" : {
                "balance" : "0xfffffffffffffffffffffffffffdb60f",
                "code" : "",
                "nonce" : "0x01",
                "storage" : {
                }
            },
            "0xaaaf5374fce5edbc8e2a8697c15331677e6ebf0b" : {
                "balance" : "0x0fffffffffffff",
                "code" : "0x61c34f356000526001600051f3",
                "nonce" : "0x00",
                "storage" : {
                }
            },
            "0xb94f5374fce5edbc8e2a8697c15331677e6ebf0b" : {
                "balance" : "0x4563918244f649f0",
                "code" : "",
                "nonce" : "0x00",
                "storage" : {
                }
            },
            "0xbbbf5374fce5edbc8e2a8697c15331677e6ebf0b" : {
                "balance" : "0x0fffffffffffff",
                "code" : "0x5b61c3506080511015603f576000600061c3506000600073aaaf5374fce5edbc8e2a8697c15331677e6ebf0b61061cf16000556001608051016080526000565b608051600155",
                "nonce" : "0x00",
                "storage" : {
                }
            }
        },
        "pre" : {
            "0xa94f5374fce5edbc8e2a8697c15331677e6ebf0b" : {
                "balance" : "0xffffffffffffffffffffffffffffffff",
                "code" : "",
                "nonce" : "0x00",
                "storage" : {
                }
            },
            "0xaaaf5374fce5edbc8e2a8697c15331677e6ebf0b" : {
                "balance" : "0x0fffffffffffff",
                "code" : "0x61c34f356000526001600051f3",
                "nonce" : "0x00",
                "storage" : {
                }
            },
            "0xbbbf5374fce5edbc8e2a8697c15331677e6ebf0b" : {
                "balance" : "0x0fffffffffffff",
                "code" : "0x5b61c3506080511015603f576000600061c3506000600073aaaf5374fce5edbc8e2a8697c15331677e6ebf0b61061cf16000556001608051016080526000565b608051600155",
                "nonce" : "0x00",
                "storage" : {
                }
            }
        }
    },
    "Return50000_2_d0g0v0_EIP158" : {
        "_info" : {
            "comment" : "",
            "filledwith" : "cpp-1.3.0+commit.6e0ce939.Linux.g++",
            "lllcversion" : "Version: 0.4.18-develop.2017.9.25+commit.a72237f2.Linux.g++",
            "source" : "src/BlockchainTestsFiller/GeneralStateTests/stQuadraticComplexityTest/Return50000_2_d0g0v0Filler.json",
            "sourceHash" : "9f4aef049ee6a23ef7c16bf51d72d6e7952ac9f450f4ab658337c89db2141398"
        },
        "blocks" : [
            {
                "blockHeader" : {
                    "bloom" : "0x00000000000000000000000000000000000000000000000000000000000000000000000000000000000000000000000000000000000000000000000000000000000000000000000000000000000000000000000000000000000000000000000000000000000000000000000000000000000000000000000000000000000000000000000000000000000000000000000000000000000000000000000000000000000000000000000000000000000000000000000000000000000000000000000000000000000000000000000000000000000000000000000000000000000000000000000000000000000000000000000000000000000000000000000000000000",
                    "coinbase" : "0xb94f5374fce5edbc8e2a8697c15331677e6ebf0b",
                    "difficulty" : "0x020000",
                    "extraData" : "",
                    "gasLimit" : "0x020e02d040",
                    "gasUsed" : "0x0249f0",
                    "hash" : "0xd704f904c84eebdaa6a491d71fdd32540f1c3d82def08b76585a81720cb8c0e2",
                    "mixHash" : "0x5f6bf14ea1daf8c2d9f9e8013c00b26c422b6e40b6f3f738543afbd698d0555f",
                    "nonce" : "0x07c4b46b49715b7e",
                    "number" : "0x01",
                    "parentHash" : "0xf5dfdd7aa048260f254ca4b3907808c0460d297720474016f838980877fb9412",
                    "receiptTrie" : "0xd7ac4a14833c2a2863444010cba58c17e30ddc0ab9d753d8ba0aa84b2e4c4120",
                    "stateRoot" : "0x5d329ce26cdb9836d19e944bafb05968e1805b8b03bacebbdefe730a497856f8",
                    "timestamp" : "0x03e8",
                    "transactionsTrie" : "0xa0ec2fa38ce491778e1b6da60eba5927ecd92ad8cde4a3d964deef99110e1b29",
                    "uncleHash" : "0x1dcc4de8dec75d7aab85b567b6ccd41ad312451b948a7413f0a142fd40d49347"
                },
                "rlp" : "0xf90262f901faa0f5dfdd7aa048260f254ca4b3907808c0460d297720474016f838980877fb9412a01dcc4de8dec75d7aab85b567b6ccd41ad312451b948a7413f0a142fd40d4934794b94f5374fce5edbc8e2a8697c15331677e6ebf0ba05d329ce26cdb9836d19e944bafb05968e1805b8b03bacebbdefe730a497856f8a0a0ec2fa38ce491778e1b6da60eba5927ecd92ad8cde4a3d964deef99110e1b29a0d7ac4a14833c2a2863444010cba58c17e30ddc0ab9d753d8ba0aa84b2e4c4120b9010000000000000000000000000000000000000000000000000000000000000000000000000000000000000000000000000000000000000000000000000000000000000000000000000000000000000000000000000000000000000000000000000000000000000000000000000000000000000000000000000000000000000000000000000000000000000000000000000000000000000000000000000000000000000000000000000000000000000000000000000000000000000000000000000000000000000000000000000000000000000000000000000000000000000000000000000000000000000000000000000000000000000000000000000000000000830200000185020e02d040830249f08203e880a05f6bf14ea1daf8c2d9f9e8013c00b26c422b6e40b6f3f738543afbd698d0555f8807c4b46b49715b7ef862f8608001830249f094bbbf5374fce5edbc8e2a8697c15331677e6ebf0b0a801ba020bc21bc6aadd85fed142b7b980799d44c5d6f1ec8f3e1e2cb97dc68880e4795a0603fbf089643eb78e7e7ad708eded071087c93a23dba3c56c9704465d2a69207c0",
                "transactions" : [
                    {
                        "data" : "",
                        "gasLimit" : "0x0249f0",
                        "gasPrice" : "0x01",
                        "nonce" : "0x00",
                        "r" : "0x20bc21bc6aadd85fed142b7b980799d44c5d6f1ec8f3e1e2cb97dc68880e4795",
                        "s" : "0x603fbf089643eb78e7e7ad708eded071087c93a23dba3c56c9704465d2a69207",
                        "to" : "0xbbbf5374fce5edbc8e2a8697c15331677e6ebf0b",
                        "v" : "0x1b",
                        "value" : "0x0a"
                    }
                ],
                "uncleHeaders" : [
                ]
            }
        ],
        "genesisBlockHeader" : {
            "bloom" : "0x00000000000000000000000000000000000000000000000000000000000000000000000000000000000000000000000000000000000000000000000000000000000000000000000000000000000000000000000000000000000000000000000000000000000000000000000000000000000000000000000000000000000000000000000000000000000000000000000000000000000000000000000000000000000000000000000000000000000000000000000000000000000000000000000000000000000000000000000000000000000000000000000000000000000000000000000000000000000000000000000000000000000000000000000000000000",
            "coinbase" : "0xb94f5374fce5edbc8e2a8697c15331677e6ebf0b",
            "difficulty" : "0x020000",
            "extraData" : "0x42",
            "gasLimit" : "0x020e02d040",
            "gasUsed" : "0x00",
            "hash" : "0xf5dfdd7aa048260f254ca4b3907808c0460d297720474016f838980877fb9412",
            "mixHash" : "0x56e81f171bcc55a6ff8345e692c0f86e5b48e01b996cadc001622fb5e363b421",
            "nonce" : "0x0102030405060708",
            "number" : "0x00",
            "parentHash" : "0x0000000000000000000000000000000000000000000000000000000000000000",
            "receiptTrie" : "0x56e81f171bcc55a6ff8345e692c0f86e5b48e01b996cadc001622fb5e363b421",
            "stateRoot" : "0x5d5adaf8664534656ec492916ffeca9be6010b83ca8633d1d0078370e16e7e30",
            "timestamp" : "0x03b6",
            "transactionsTrie" : "0x56e81f171bcc55a6ff8345e692c0f86e5b48e01b996cadc001622fb5e363b421",
            "uncleHash" : "0x1dcc4de8dec75d7aab85b567b6ccd41ad312451b948a7413f0a142fd40d49347"
        },
        "genesisRLP" : "0xf901fcf901f7a00000000000000000000000000000000000000000000000000000000000000000a01dcc4de8dec75d7aab85b567b6ccd41ad312451b948a7413f0a142fd40d4934794b94f5374fce5edbc8e2a8697c15331677e6ebf0ba05d5adaf8664534656ec492916ffeca9be6010b83ca8633d1d0078370e16e7e30a056e81f171bcc55a6ff8345e692c0f86e5b48e01b996cadc001622fb5e363b421a056e81f171bcc55a6ff8345e692c0f86e5b48e01b996cadc001622fb5e363b421b9010000000000000000000000000000000000000000000000000000000000000000000000000000000000000000000000000000000000000000000000000000000000000000000000000000000000000000000000000000000000000000000000000000000000000000000000000000000000000000000000000000000000000000000000000000000000000000000000000000000000000000000000000000000000000000000000000000000000000000000000000000000000000000000000000000000000000000000000000000000000000000000000000000000000000000000000000000000000000000000000000000000000000000000000000000000000830200008085020e02d040808203b642a056e81f171bcc55a6ff8345e692c0f86e5b48e01b996cadc001622fb5e363b421880102030405060708c0c0",
        "lastblockhash" : "0xd704f904c84eebdaa6a491d71fdd32540f1c3d82def08b76585a81720cb8c0e2",
        "network" : "EIP158",
        "postState" : {
            "0xa94f5374fce5edbc8e2a8697c15331677e6ebf0b" : {
                "balance" : "0xfffffffffffffffffffffffffffdb60f",
                "code" : "",
                "nonce" : "0x01",
                "storage" : {
                }
            },
            "0xaaaf5374fce5edbc8e2a8697c15331677e6ebf0b" : {
                "balance" : "0x0fffffffffffff",
                "code" : "0x61c34f356000526001600051f3",
                "nonce" : "0x00",
                "storage" : {
                }
            },
            "0xb94f5374fce5edbc8e2a8697c15331677e6ebf0b" : {
                "balance" : "0x4563918244f649f0",
                "code" : "",
                "nonce" : "0x00",
                "storage" : {
                }
            },
            "0xbbbf5374fce5edbc8e2a8697c15331677e6ebf0b" : {
                "balance" : "0x0fffffffffffff",
                "code" : "0x5b61c3506080511015603f576000600061c3506000600073aaaf5374fce5edbc8e2a8697c15331677e6ebf0b61061cf16000556001608051016080526000565b608051600155",
                "nonce" : "0x00",
                "storage" : {
                }
            }
        },
        "pre" : {
            "0xa94f5374fce5edbc8e2a8697c15331677e6ebf0b" : {
                "balance" : "0xffffffffffffffffffffffffffffffff",
                "code" : "",
                "nonce" : "0x00",
                "storage" : {
                }
            },
            "0xaaaf5374fce5edbc8e2a8697c15331677e6ebf0b" : {
                "balance" : "0x0fffffffffffff",
                "code" : "0x61c34f356000526001600051f3",
                "nonce" : "0x00",
                "storage" : {
                }
            },
            "0xbbbf5374fce5edbc8e2a8697c15331677e6ebf0b" : {
                "balance" : "0x0fffffffffffff",
                "code" : "0x5b61c3506080511015603f576000600061c3506000600073aaaf5374fce5edbc8e2a8697c15331677e6ebf0b61061cf16000556001608051016080526000565b608051600155",
                "nonce" : "0x00",
                "storage" : {
                }
            }
        }
    },
    "Return50000_2_d0g0v0_Frontier" : {
        "_info" : {
            "comment" : "",
            "filledwith" : "cpp-1.3.0+commit.6e0ce939.Linux.g++",
            "lllcversion" : "Version: 0.4.18-develop.2017.9.25+commit.a72237f2.Linux.g++",
            "source" : "src/BlockchainTestsFiller/GeneralStateTests/stQuadraticComplexityTest/Return50000_2_d0g0v0Filler.json",
            "sourceHash" : "9f4aef049ee6a23ef7c16bf51d72d6e7952ac9f450f4ab658337c89db2141398"
        },
        "blocks" : [
            {
                "blockHeader" : {
                    "bloom" : "0x00000000000000000000000000000000000000000000000000000000000000000000000000000000000000000000000000000000000000000000000000000000000000000000000000000000000000000000000000000000000000000000000000000000000000000000000000000000000000000000000000000000000000000000000000000000000000000000000000000000000000000000000000000000000000000000000000000000000000000000000000000000000000000000000000000000000000000000000000000000000000000000000000000000000000000000000000000000000000000000000000000000000000000000000000000000",
                    "coinbase" : "0xb94f5374fce5edbc8e2a8697c15331677e6ebf0b",
                    "difficulty" : "0x020000",
                    "extraData" : "",
                    "gasLimit" : "0x020e02d040",
                    "gasUsed" : "0x0249f0",
                    "hash" : "0x40116c3472ff8fcc1c04baf29e8900d755744f85139aae2f39f96a7e7537f53d",
                    "mixHash" : "0xe2cc3214e3feebf127cc8bbf551037674b19a25b68a48542ab1ec233177df8c4",
                    "nonce" : "0xb422ab82552a5ea4",
                    "number" : "0x01",
                    "parentHash" : "0xf5dfdd7aa048260f254ca4b3907808c0460d297720474016f838980877fb9412",
                    "receiptTrie" : "0xd7ac4a14833c2a2863444010cba58c17e30ddc0ab9d753d8ba0aa84b2e4c4120",
                    "stateRoot" : "0x5d329ce26cdb9836d19e944bafb05968e1805b8b03bacebbdefe730a497856f8",
                    "timestamp" : "0x03e8",
                    "transactionsTrie" : "0xa0ec2fa38ce491778e1b6da60eba5927ecd92ad8cde4a3d964deef99110e1b29",
                    "uncleHash" : "0x1dcc4de8dec75d7aab85b567b6ccd41ad312451b948a7413f0a142fd40d49347"
                },
                "rlp" : "0xf90262f901faa0f5dfdd7aa048260f254ca4b3907808c0460d297720474016f838980877fb9412a01dcc4de8dec75d7aab85b567b6ccd41ad312451b948a7413f0a142fd40d4934794b94f5374fce5edbc8e2a8697c15331677e6ebf0ba05d329ce26cdb9836d19e944bafb05968e1805b8b03bacebbdefe730a497856f8a0a0ec2fa38ce491778e1b6da60eba5927ecd92ad8cde4a3d964deef99110e1b29a0d7ac4a14833c2a2863444010cba58c17e30ddc0ab9d753d8ba0aa84b2e4c4120b9010000000000000000000000000000000000000000000000000000000000000000000000000000000000000000000000000000000000000000000000000000000000000000000000000000000000000000000000000000000000000000000000000000000000000000000000000000000000000000000000000000000000000000000000000000000000000000000000000000000000000000000000000000000000000000000000000000000000000000000000000000000000000000000000000000000000000000000000000000000000000000000000000000000000000000000000000000000000000000000000000000000000000000000000000000000000830200000185020e02d040830249f08203e880a0e2cc3214e3feebf127cc8bbf551037674b19a25b68a48542ab1ec233177df8c488b422ab82552a5ea4f862f8608001830249f094bbbf5374fce5edbc8e2a8697c15331677e6ebf0b0a801ba020bc21bc6aadd85fed142b7b980799d44c5d6f1ec8f3e1e2cb97dc68880e4795a0603fbf089643eb78e7e7ad708eded071087c93a23dba3c56c9704465d2a69207c0",
                "transactions" : [
                    {
                        "data" : "",
                        "gasLimit" : "0x0249f0",
                        "gasPrice" : "0x01",
                        "nonce" : "0x00",
                        "r" : "0x20bc21bc6aadd85fed142b7b980799d44c5d6f1ec8f3e1e2cb97dc68880e4795",
                        "s" : "0x603fbf089643eb78e7e7ad708eded071087c93a23dba3c56c9704465d2a69207",
                        "to" : "0xbbbf5374fce5edbc8e2a8697c15331677e6ebf0b",
                        "v" : "0x1b",
                        "value" : "0x0a"
                    }
                ],
                "uncleHeaders" : [
                ]
            }
        ],
        "genesisBlockHeader" : {
            "bloom" : "0x00000000000000000000000000000000000000000000000000000000000000000000000000000000000000000000000000000000000000000000000000000000000000000000000000000000000000000000000000000000000000000000000000000000000000000000000000000000000000000000000000000000000000000000000000000000000000000000000000000000000000000000000000000000000000000000000000000000000000000000000000000000000000000000000000000000000000000000000000000000000000000000000000000000000000000000000000000000000000000000000000000000000000000000000000000000",
            "coinbase" : "0xb94f5374fce5edbc8e2a8697c15331677e6ebf0b",
            "difficulty" : "0x020000",
            "extraData" : "0x42",
            "gasLimit" : "0x020e02d040",
            "gasUsed" : "0x00",
            "hash" : "0xf5dfdd7aa048260f254ca4b3907808c0460d297720474016f838980877fb9412",
            "mixHash" : "0x56e81f171bcc55a6ff8345e692c0f86e5b48e01b996cadc001622fb5e363b421",
            "nonce" : "0x0102030405060708",
            "number" : "0x00",
            "parentHash" : "0x0000000000000000000000000000000000000000000000000000000000000000",
            "receiptTrie" : "0x56e81f171bcc55a6ff8345e692c0f86e5b48e01b996cadc001622fb5e363b421",
            "stateRoot" : "0x5d5adaf8664534656ec492916ffeca9be6010b83ca8633d1d0078370e16e7e30",
            "timestamp" : "0x03b6",
            "transactionsTrie" : "0x56e81f171bcc55a6ff8345e692c0f86e5b48e01b996cadc001622fb5e363b421",
            "uncleHash" : "0x1dcc4de8dec75d7aab85b567b6ccd41ad312451b948a7413f0a142fd40d49347"
        },
        "genesisRLP" : "0xf901fcf901f7a00000000000000000000000000000000000000000000000000000000000000000a01dcc4de8dec75d7aab85b567b6ccd41ad312451b948a7413f0a142fd40d4934794b94f5374fce5edbc8e2a8697c15331677e6ebf0ba05d5adaf8664534656ec492916ffeca9be6010b83ca8633d1d0078370e16e7e30a056e81f171bcc55a6ff8345e692c0f86e5b48e01b996cadc001622fb5e363b421a056e81f171bcc55a6ff8345e692c0f86e5b48e01b996cadc001622fb5e363b421b9010000000000000000000000000000000000000000000000000000000000000000000000000000000000000000000000000000000000000000000000000000000000000000000000000000000000000000000000000000000000000000000000000000000000000000000000000000000000000000000000000000000000000000000000000000000000000000000000000000000000000000000000000000000000000000000000000000000000000000000000000000000000000000000000000000000000000000000000000000000000000000000000000000000000000000000000000000000000000000000000000000000000000000000000000000000000830200008085020e02d040808203b642a056e81f171bcc55a6ff8345e692c0f86e5b48e01b996cadc001622fb5e363b421880102030405060708c0c0",
        "lastblockhash" : "0x40116c3472ff8fcc1c04baf29e8900d755744f85139aae2f39f96a7e7537f53d",
        "network" : "Frontier",
        "postState" : {
            "0xa94f5374fce5edbc8e2a8697c15331677e6ebf0b" : {
                "balance" : "0xfffffffffffffffffffffffffffdb60f",
                "code" : "",
                "nonce" : "0x01",
                "storage" : {
                }
            },
            "0xaaaf5374fce5edbc8e2a8697c15331677e6ebf0b" : {
                "balance" : "0x0fffffffffffff",
                "code" : "0x61c34f356000526001600051f3",
                "nonce" : "0x00",
                "storage" : {
                }
            },
            "0xb94f5374fce5edbc8e2a8697c15331677e6ebf0b" : {
                "balance" : "0x4563918244f649f0",
                "code" : "",
                "nonce" : "0x00",
                "storage" : {
                }
            },
            "0xbbbf5374fce5edbc8e2a8697c15331677e6ebf0b" : {
                "balance" : "0x0fffffffffffff",
                "code" : "0x5b61c3506080511015603f576000600061c3506000600073aaaf5374fce5edbc8e2a8697c15331677e6ebf0b61061cf16000556001608051016080526000565b608051600155",
                "nonce" : "0x00",
                "storage" : {
                }
            }
        },
        "pre" : {
            "0xa94f5374fce5edbc8e2a8697c15331677e6ebf0b" : {
                "balance" : "0xffffffffffffffffffffffffffffffff",
                "code" : "",
                "nonce" : "0x00",
                "storage" : {
                }
            },
            "0xaaaf5374fce5edbc8e2a8697c15331677e6ebf0b" : {
                "balance" : "0x0fffffffffffff",
                "code" : "0x61c34f356000526001600051f3",
                "nonce" : "0x00",
                "storage" : {
                }
            },
            "0xbbbf5374fce5edbc8e2a8697c15331677e6ebf0b" : {
                "balance" : "0x0fffffffffffff",
                "code" : "0x5b61c3506080511015603f576000600061c3506000600073aaaf5374fce5edbc8e2a8697c15331677e6ebf0b61061cf16000556001608051016080526000565b608051600155",
                "nonce" : "0x00",
                "storage" : {
                }
            }
        }
    },
    "Return50000_2_d0g0v0_Homestead" : {
        "_info" : {
            "comment" : "",
            "filledwith" : "cpp-1.3.0+commit.6e0ce939.Linux.g++",
            "lllcversion" : "Version: 0.4.18-develop.2017.9.25+commit.a72237f2.Linux.g++",
            "source" : "src/BlockchainTestsFiller/GeneralStateTests/stQuadraticComplexityTest/Return50000_2_d0g0v0Filler.json",
            "sourceHash" : "9f4aef049ee6a23ef7c16bf51d72d6e7952ac9f450f4ab658337c89db2141398"
        },
        "blocks" : [
            {
                "blockHeader" : {
                    "bloom" : "0x00000000000000000000000000000000000000000000000000000000000000000000000000000000000000000000000000000000000000000000000000000000000000000000000000000000000000000000000000000000000000000000000000000000000000000000000000000000000000000000000000000000000000000000000000000000000000000000000000000000000000000000000000000000000000000000000000000000000000000000000000000000000000000000000000000000000000000000000000000000000000000000000000000000000000000000000000000000000000000000000000000000000000000000000000000000",
                    "coinbase" : "0xb94f5374fce5edbc8e2a8697c15331677e6ebf0b",
                    "difficulty" : "0x020000",
                    "extraData" : "",
                    "gasLimit" : "0x020e02d040",
                    "gasUsed" : "0x0249f0",
                    "hash" : "0xdb8ba4b44828c8dff297c42c36d69922822c147edb76348ef29fd962d4be80ec",
                    "mixHash" : "0xbd37afd90d623b965a1e7230eb56611f0ea3dd6b84f659b2a5a8e8085a29c7ea",
                    "nonce" : "0x949212d5dc12d704",
                    "number" : "0x01",
                    "parentHash" : "0xf5dfdd7aa048260f254ca4b3907808c0460d297720474016f838980877fb9412",
                    "receiptTrie" : "0xd7ac4a14833c2a2863444010cba58c17e30ddc0ab9d753d8ba0aa84b2e4c4120",
                    "stateRoot" : "0x5d329ce26cdb9836d19e944bafb05968e1805b8b03bacebbdefe730a497856f8",
                    "timestamp" : "0x03e8",
                    "transactionsTrie" : "0xa0ec2fa38ce491778e1b6da60eba5927ecd92ad8cde4a3d964deef99110e1b29",
                    "uncleHash" : "0x1dcc4de8dec75d7aab85b567b6ccd41ad312451b948a7413f0a142fd40d49347"
                },
                "rlp" : "0xf90262f901faa0f5dfdd7aa048260f254ca4b3907808c0460d297720474016f838980877fb9412a01dcc4de8dec75d7aab85b567b6ccd41ad312451b948a7413f0a142fd40d4934794b94f5374fce5edbc8e2a8697c15331677e6ebf0ba05d329ce26cdb9836d19e944bafb05968e1805b8b03bacebbdefe730a497856f8a0a0ec2fa38ce491778e1b6da60eba5927ecd92ad8cde4a3d964deef99110e1b29a0d7ac4a14833c2a2863444010cba58c17e30ddc0ab9d753d8ba0aa84b2e4c4120b9010000000000000000000000000000000000000000000000000000000000000000000000000000000000000000000000000000000000000000000000000000000000000000000000000000000000000000000000000000000000000000000000000000000000000000000000000000000000000000000000000000000000000000000000000000000000000000000000000000000000000000000000000000000000000000000000000000000000000000000000000000000000000000000000000000000000000000000000000000000000000000000000000000000000000000000000000000000000000000000000000000000000000000000000000000000000830200000185020e02d040830249f08203e880a0bd37afd90d623b965a1e7230eb56611f0ea3dd6b84f659b2a5a8e8085a29c7ea88949212d5dc12d704f862f8608001830249f094bbbf5374fce5edbc8e2a8697c15331677e6ebf0b0a801ba020bc21bc6aadd85fed142b7b980799d44c5d6f1ec8f3e1e2cb97dc68880e4795a0603fbf089643eb78e7e7ad708eded071087c93a23dba3c56c9704465d2a69207c0",
                "transactions" : [
                    {
                        "data" : "",
                        "gasLimit" : "0x0249f0",
                        "gasPrice" : "0x01",
                        "nonce" : "0x00",
                        "r" : "0x20bc21bc6aadd85fed142b7b980799d44c5d6f1ec8f3e1e2cb97dc68880e4795",
                        "s" : "0x603fbf089643eb78e7e7ad708eded071087c93a23dba3c56c9704465d2a69207",
                        "to" : "0xbbbf5374fce5edbc8e2a8697c15331677e6ebf0b",
                        "v" : "0x1b",
                        "value" : "0x0a"
                    }
                ],
                "uncleHeaders" : [
                ]
            }
        ],
        "genesisBlockHeader" : {
            "bloom" : "0x00000000000000000000000000000000000000000000000000000000000000000000000000000000000000000000000000000000000000000000000000000000000000000000000000000000000000000000000000000000000000000000000000000000000000000000000000000000000000000000000000000000000000000000000000000000000000000000000000000000000000000000000000000000000000000000000000000000000000000000000000000000000000000000000000000000000000000000000000000000000000000000000000000000000000000000000000000000000000000000000000000000000000000000000000000000",
            "coinbase" : "0xb94f5374fce5edbc8e2a8697c15331677e6ebf0b",
            "difficulty" : "0x020000",
            "extraData" : "0x42",
            "gasLimit" : "0x020e02d040",
            "gasUsed" : "0x00",
            "hash" : "0xf5dfdd7aa048260f254ca4b3907808c0460d297720474016f838980877fb9412",
            "mixHash" : "0x56e81f171bcc55a6ff8345e692c0f86e5b48e01b996cadc001622fb5e363b421",
            "nonce" : "0x0102030405060708",
            "number" : "0x00",
            "parentHash" : "0x0000000000000000000000000000000000000000000000000000000000000000",
            "receiptTrie" : "0x56e81f171bcc55a6ff8345e692c0f86e5b48e01b996cadc001622fb5e363b421",
            "stateRoot" : "0x5d5adaf8664534656ec492916ffeca9be6010b83ca8633d1d0078370e16e7e30",
            "timestamp" : "0x03b6",
            "transactionsTrie" : "0x56e81f171bcc55a6ff8345e692c0f86e5b48e01b996cadc001622fb5e363b421",
            "uncleHash" : "0x1dcc4de8dec75d7aab85b567b6ccd41ad312451b948a7413f0a142fd40d49347"
        },
        "genesisRLP" : "0xf901fcf901f7a00000000000000000000000000000000000000000000000000000000000000000a01dcc4de8dec75d7aab85b567b6ccd41ad312451b948a7413f0a142fd40d4934794b94f5374fce5edbc8e2a8697c15331677e6ebf0ba05d5adaf8664534656ec492916ffeca9be6010b83ca8633d1d0078370e16e7e30a056e81f171bcc55a6ff8345e692c0f86e5b48e01b996cadc001622fb5e363b421a056e81f171bcc55a6ff8345e692c0f86e5b48e01b996cadc001622fb5e363b421b9010000000000000000000000000000000000000000000000000000000000000000000000000000000000000000000000000000000000000000000000000000000000000000000000000000000000000000000000000000000000000000000000000000000000000000000000000000000000000000000000000000000000000000000000000000000000000000000000000000000000000000000000000000000000000000000000000000000000000000000000000000000000000000000000000000000000000000000000000000000000000000000000000000000000000000000000000000000000000000000000000000000000000000000000000000000000830200008085020e02d040808203b642a056e81f171bcc55a6ff8345e692c0f86e5b48e01b996cadc001622fb5e363b421880102030405060708c0c0",
        "lastblockhash" : "0xdb8ba4b44828c8dff297c42c36d69922822c147edb76348ef29fd962d4be80ec",
        "network" : "Homestead",
        "postState" : {
            "0xa94f5374fce5edbc8e2a8697c15331677e6ebf0b" : {
                "balance" : "0xfffffffffffffffffffffffffffdb60f",
                "code" : "",
                "nonce" : "0x01",
                "storage" : {
                }
            },
            "0xaaaf5374fce5edbc8e2a8697c15331677e6ebf0b" : {
                "balance" : "0x0fffffffffffff",
                "code" : "0x61c34f356000526001600051f3",
                "nonce" : "0x00",
                "storage" : {
                }
            },
            "0xb94f5374fce5edbc8e2a8697c15331677e6ebf0b" : {
                "balance" : "0x4563918244f649f0",
                "code" : "",
                "nonce" : "0x00",
                "storage" : {
                }
            },
            "0xbbbf5374fce5edbc8e2a8697c15331677e6ebf0b" : {
                "balance" : "0x0fffffffffffff",
                "code" : "0x5b61c3506080511015603f576000600061c3506000600073aaaf5374fce5edbc8e2a8697c15331677e6ebf0b61061cf16000556001608051016080526000565b608051600155",
                "nonce" : "0x00",
                "storage" : {
                }
            }
        },
        "pre" : {
            "0xa94f5374fce5edbc8e2a8697c15331677e6ebf0b" : {
                "balance" : "0xffffffffffffffffffffffffffffffff",
                "code" : "",
                "nonce" : "0x00",
                "storage" : {
                }
            },
            "0xaaaf5374fce5edbc8e2a8697c15331677e6ebf0b" : {
                "balance" : "0x0fffffffffffff",
                "code" : "0x61c34f356000526001600051f3",
                "nonce" : "0x00",
                "storage" : {
                }
            },
            "0xbbbf5374fce5edbc8e2a8697c15331677e6ebf0b" : {
                "balance" : "0x0fffffffffffff",
                "code" : "0x5b61c3506080511015603f576000600061c3506000600073aaaf5374fce5edbc8e2a8697c15331677e6ebf0b61061cf16000556001608051016080526000565b608051600155",
                "nonce" : "0x00",
                "storage" : {
                }
            }
        }
    }
}