{
    "LoopCallsDepthThenRevert_d0g0v0_Byzantium" : {
        "_info" : {
            "comment" : "",
            "filledwith" : "cpp-1.3.0+commit.6e0ce939.Linux.g++",
            "lllcversion" : "Version: 0.4.18-develop.2017.9.25+commit.a72237f2.Linux.g++",
            "source" : "src/BlockchainTestsFiller/GeneralStateTests/stRevertTest/LoopCallsDepthThenRevert_d0g0v0Filler.json",
            "sourceHash" : "6edd297fd62e19f5af9c32384012e2adfd7b08ed5884900e365973f7416553f2"
        },
        "blocks" : [
            {
                "blockHeader" : {
                    "bloom" : "0x00000000000000000000000000000000000000000000000000000000000000000000000000000000000000000000000000000000000000000000000000000000000000000000000000000000000000000000000000000000000000000000000000000000000000000000000000000000000000000000000000000000000000000000000000000000000000000000000000000000000000000000000000000000000000000000000000000000000000000000000000000000000000000000000000000000000000000000000000000000000000000000000000000000000000000000000000000000000000000000000000000000000000000000000000000000",
                    "coinbase" : "0x2adc25665018aa1fe0e6bc666dac8fc2697ff9ba",
                    "difficulty" : "0x020000",
                    "extraData" : "",
                    "gasLimit" : "0x989680",
                    "gasUsed" : "0x13da36",
                    "hash" : "0x351e389a4dd6ba67b50c324737e1892b959ac38a70fbd577f55a4daa710331bd",
                    "mixHash" : "0x08c670a750da2fdc40dbaee4dace599bba397a78f65dd20c898a9b5c62eadbc2",
                    "nonce" : "0x2ee302bb94aff66c",
                    "number" : "0x01",
                    "parentHash" : "0x6bc5a995a71c435e1befdd28009f74f66848ddd9e4d18d4a244990ce4286f5cb",
                    "receiptTrie" : "0x80a850ff8b6e63ae8e0a0d87095a604cc2cd8ea0c78962e8f4e31f5ed5352ee7",
                    "stateRoot" : "0x5f08cf192e70a54abf87f37150e866a89c5292ba958f6b3831c067f7286c8413",
                    "timestamp" : "0x03e8",
                    "transactionsTrie" : "0xb2729e33980e9274af9f87de09b0519d4963aef90463b8591fa31b118bd580bd",
                    "uncleHash" : "0x1dcc4de8dec75d7aab85b567b6ccd41ad312451b948a7413f0a142fd40d49347"
                },
                "rlp" : "0xf90260f901f8a06bc5a995a71c435e1befdd28009f74f66848ddd9e4d18d4a244990ce4286f5cba01dcc4de8dec75d7aab85b567b6ccd41ad312451b948a7413f0a142fd40d49347942adc25665018aa1fe0e6bc666dac8fc2697ff9baa05f08cf192e70a54abf87f37150e866a89c5292ba958f6b3831c067f7286c8413a0b2729e33980e9274af9f87de09b0519d4963aef90463b8591fa31b118bd580bda080a850ff8b6e63ae8e0a0d87095a604cc2cd8ea0c78962e8f4e31f5ed5352ee7b90100000000000000000000000000000000000000000000000000000000000000000000000000000000000000000000000000000000000000000000000000000000000000000000000000000000000000000000000000000000000000000000000000000000000000000000000000000000000000000000000000000000000000000000000000000000000000000000000000000000000000000000000000000000000000000000000000000000000000000000000000000000000000000000000000000000000000000000000000000000000000000000000000000000000000000000000000000000000000000000000000000000000000000000000000000000008302000001839896808313da368203e880a008c670a750da2fdc40dbaee4dace599bba397a78f65dd20c898a9b5c62eadbc2882ee302bb94aff66cf862f86080018398968094a00000000000000000000000000000000000000080801ca0dcd5b853a2284133e6c3ee9b97192fd899fdb54bec7412cdf053062374b6dd88a013761e2b5467dbaa3687ef35fbf6d0ad6cfb5f7f744f7a4d686d378678568841c0",
                "transactions" : [
                    {
                        "data" : "",
                        "gasLimit" : "0x989680",
                        "gasPrice" : "0x01",
                        "nonce" : "0x00",
                        "r" : "0xdcd5b853a2284133e6c3ee9b97192fd899fdb54bec7412cdf053062374b6dd88",
                        "s" : "0x13761e2b5467dbaa3687ef35fbf6d0ad6cfb5f7f744f7a4d686d378678568841",
                        "to" : "0xa000000000000000000000000000000000000000",
                        "v" : "0x1c",
                        "value" : "0x00"
                    }
                ],
                "uncleHeaders" : [
                ]
            }
        ],
        "genesisBlockHeader" : {
            "bloom" : "0x00000000000000000000000000000000000000000000000000000000000000000000000000000000000000000000000000000000000000000000000000000000000000000000000000000000000000000000000000000000000000000000000000000000000000000000000000000000000000000000000000000000000000000000000000000000000000000000000000000000000000000000000000000000000000000000000000000000000000000000000000000000000000000000000000000000000000000000000000000000000000000000000000000000000000000000000000000000000000000000000000000000000000000000000000000000",
            "coinbase" : "0x2adc25665018aa1fe0e6bc666dac8fc2697ff9ba",
            "difficulty" : "0x020000",
            "extraData" : "0x42",
            "gasLimit" : "0x989680",
            "gasUsed" : "0x00",
            "hash" : "0x6bc5a995a71c435e1befdd28009f74f66848ddd9e4d18d4a244990ce4286f5cb",
            "mixHash" : "0x56e81f171bcc55a6ff8345e692c0f86e5b48e01b996cadc001622fb5e363b421",
            "nonce" : "0x0102030405060708",
            "number" : "0x00",
            "parentHash" : "0x0000000000000000000000000000000000000000000000000000000000000000",
            "receiptTrie" : "0x56e81f171bcc55a6ff8345e692c0f86e5b48e01b996cadc001622fb5e363b421",
            "stateRoot" : "0x3d955696f9d325d326d643fb6db88f6ebc36cb3182acae0b57c43c1a23351b89",
            "timestamp" : "0x03b6",
            "transactionsTrie" : "0x56e81f171bcc55a6ff8345e692c0f86e5b48e01b996cadc001622fb5e363b421",
            "uncleHash" : "0x1dcc4de8dec75d7aab85b567b6ccd41ad312451b948a7413f0a142fd40d49347"
        },
        "genesisRLP" : "0xf901faf901f5a00000000000000000000000000000000000000000000000000000000000000000a01dcc4de8dec75d7aab85b567b6ccd41ad312451b948a7413f0a142fd40d49347942adc25665018aa1fe0e6bc666dac8fc2697ff9baa03d955696f9d325d326d643fb6db88f6ebc36cb3182acae0b57c43c1a23351b89a056e81f171bcc55a6ff8345e692c0f86e5b48e01b996cadc001622fb5e363b421a056e81f171bcc55a6ff8345e692c0f86e5b48e01b996cadc001622fb5e363b421b9010000000000000000000000000000000000000000000000000000000000000000000000000000000000000000000000000000000000000000000000000000000000000000000000000000000000000000000000000000000000000000000000000000000000000000000000000000000000000000000000000000000000000000000000000000000000000000000000000000000000000000000000000000000000000000000000000000000000000000000000000000000000000000000000000000000000000000000000000000000000000000000000000000000000000000000000000000000000000000000000000000000000000000000000000000000000830200008083989680808203b642a056e81f171bcc55a6ff8345e692c0f86e5b48e01b996cadc001622fb5e363b421880102030405060708c0c0",
        "lastblockhash" : "0x351e389a4dd6ba67b50c324737e1892b959ac38a70fbd577f55a4daa710331bd",
        "network" : "Byzantium",
        "postState" : {
            "0x2adc25665018aa1fe0e6bc666dac8fc2697ff9ba" : {
                "balance" : "0x29a2241af63fda36",
                "code" : "",
                "nonce" : "0x00",
                "storage" : {
                }
            },
            "0xa000000000000000000000000000000000000000" : {
                "balance" : "0x00",
                "code" : "0x6001600054016000556000600060006000600073b0000000000000000000000000000000000000005af1",
                "nonce" : "0x00",
                "storage" : {
                    "0x00" : "0x69"
                }
            },
            "0xa94f5374fce5edbc8e2a8697c15331677e6ebf0b" : {
                "balance" : "0xe8d49135ca",
                "code" : "",
                "nonce" : "0x01",
                "storage" : {
                }
            },
            "0xb000000000000000000000000000000000000000" : {
                "balance" : "0x00",
                "code" : "0x6001600054016000556000600060006000600073a0000000000000000000000000000000000000005af1",
                "nonce" : "0x00",
                "storage" : {
                    "0x00" : "0x69"
                }
            }
        },
        "pre" : {
            "0xa000000000000000000000000000000000000000" : {
                "balance" : "0x00",
                "code" : "0x6001600054016000556000600060006000600073b0000000000000000000000000000000000000005af1",
                "nonce" : "0x00",
                "storage" : {
                }
            },
            "0xa94f5374fce5edbc8e2a8697c15331677e6ebf0b" : {
                "balance" : "0xe8d4a51000",
                "code" : "",
                "nonce" : "0x00",
                "storage" : {
                }
            },
            "0xb000000000000000000000000000000000000000" : {
                "balance" : "0x00",
                "code" : "0x6001600054016000556000600060006000600073a0000000000000000000000000000000000000005af1",
                "nonce" : "0x00",
                "storage" : {
                }
            }
        }
    },
    "LoopCallsDepthThenRevert_d0g0v0_EIP150" : {
        "_info" : {
            "comment" : "",
            "filledwith" : "cpp-1.3.0+commit.6e0ce939.Linux.g++",
            "lllcversion" : "Version: 0.4.18-develop.2017.9.25+commit.a72237f2.Linux.g++",
            "source" : "src/BlockchainTestsFiller/GeneralStateTests/stRevertTest/LoopCallsDepthThenRevert_d0g0v0Filler.json",
            "sourceHash" : "6edd297fd62e19f5af9c32384012e2adfd7b08ed5884900e365973f7416553f2"
        },
        "blocks" : [
            {
                "blockHeader" : {
                    "bloom" : "0x00000000000000000000000000000000000000000000000000000000000000000000000000000000000000000000000000000000000000000000000000000000000000000000000000000000000000000000000000000000000000000000000000000000000000000000000000000000000000000000000000000000000000000000000000000000000000000000000000000000000000000000000000000000000000000000000000000000000000000000000000000000000000000000000000000000000000000000000000000000000000000000000000000000000000000000000000000000000000000000000000000000000000000000000000000000",
                    "coinbase" : "0x2adc25665018aa1fe0e6bc666dac8fc2697ff9ba",
                    "difficulty" : "0x020000",
                    "extraData" : "",
                    "gasLimit" : "0x989680",
                    "gasUsed" : "0x13da36",
                    "hash" : "0x8bfed4c2a68599efed4737da6a914aac3aa60db48bb2ab0a20f3417f2f6e8bd4",
                    "mixHash" : "0xae6df5344a8b56feccb0ccc0bf652a663e2c9a446cd7a21d1e10d6ef2c816c31",
                    "nonce" : "0xa1dbc38ece234b75",
                    "number" : "0x01",
                    "parentHash" : "0x6bc5a995a71c435e1befdd28009f74f66848ddd9e4d18d4a244990ce4286f5cb",
                    "receiptTrie" : "0x2bab6e17893ecece04c07a16403340c283570a0312fc8f4fa9fc24283bae393a",
                    "stateRoot" : "0xb3dc40cbc6578476c0343c98288611b5ff1f67e24e038ab3993f35a8df45d944",
                    "timestamp" : "0x03e8",
                    "transactionsTrie" : "0xb2729e33980e9274af9f87de09b0519d4963aef90463b8591fa31b118bd580bd",
                    "uncleHash" : "0x1dcc4de8dec75d7aab85b567b6ccd41ad312451b948a7413f0a142fd40d49347"
                },
                "rlp" : "0xf90260f901f8a06bc5a995a71c435e1befdd28009f74f66848ddd9e4d18d4a244990ce4286f5cba01dcc4de8dec75d7aab85b567b6ccd41ad312451b948a7413f0a142fd40d49347942adc25665018aa1fe0e6bc666dac8fc2697ff9baa0b3dc40cbc6578476c0343c98288611b5ff1f67e24e038ab3993f35a8df45d944a0b2729e33980e9274af9f87de09b0519d4963aef90463b8591fa31b118bd580bda02bab6e17893ecece04c07a16403340c283570a0312fc8f4fa9fc24283bae393ab90100000000000000000000000000000000000000000000000000000000000000000000000000000000000000000000000000000000000000000000000000000000000000000000000000000000000000000000000000000000000000000000000000000000000000000000000000000000000000000000000000000000000000000000000000000000000000000000000000000000000000000000000000000000000000000000000000000000000000000000000000000000000000000000000000000000000000000000000000000000000000000000000000000000000000000000000000000000000000000000000000000000000000000000000000000000008302000001839896808313da368203e880a0ae6df5344a8b56feccb0ccc0bf652a663e2c9a446cd7a21d1e10d6ef2c816c3188a1dbc38ece234b75f862f86080018398968094a00000000000000000000000000000000000000080801ca0dcd5b853a2284133e6c3ee9b97192fd899fdb54bec7412cdf053062374b6dd88a013761e2b5467dbaa3687ef35fbf6d0ad6cfb5f7f744f7a4d686d378678568841c0",
                "transactions" : [
                    {
                        "data" : "",
                        "gasLimit" : "0x989680",
                        "gasPrice" : "0x01",
                        "nonce" : "0x00",
                        "r" : "0xdcd5b853a2284133e6c3ee9b97192fd899fdb54bec7412cdf053062374b6dd88",
                        "s" : "0x13761e2b5467dbaa3687ef35fbf6d0ad6cfb5f7f744f7a4d686d378678568841",
                        "to" : "0xa000000000000000000000000000000000000000",
                        "v" : "0x1c",
                        "value" : "0x00"
                    }
                ],
                "uncleHeaders" : [
                ]
            }
        ],
        "genesisBlockHeader" : {
            "bloom" : "0x00000000000000000000000000000000000000000000000000000000000000000000000000000000000000000000000000000000000000000000000000000000000000000000000000000000000000000000000000000000000000000000000000000000000000000000000000000000000000000000000000000000000000000000000000000000000000000000000000000000000000000000000000000000000000000000000000000000000000000000000000000000000000000000000000000000000000000000000000000000000000000000000000000000000000000000000000000000000000000000000000000000000000000000000000000000",
            "coinbase" : "0x2adc25665018aa1fe0e6bc666dac8fc2697ff9ba",
            "difficulty" : "0x020000",
            "extraData" : "0x42",
            "gasLimit" : "0x989680",
            "gasUsed" : "0x00",
            "hash" : "0x6bc5a995a71c435e1befdd28009f74f66848ddd9e4d18d4a244990ce4286f5cb",
            "mixHash" : "0x56e81f171bcc55a6ff8345e692c0f86e5b48e01b996cadc001622fb5e363b421",
            "nonce" : "0x0102030405060708",
            "number" : "0x00",
            "parentHash" : "0x0000000000000000000000000000000000000000000000000000000000000000",
            "receiptTrie" : "0x56e81f171bcc55a6ff8345e692c0f86e5b48e01b996cadc001622fb5e363b421",
            "stateRoot" : "0x3d955696f9d325d326d643fb6db88f6ebc36cb3182acae0b57c43c1a23351b89",
            "timestamp" : "0x03b6",
            "transactionsTrie" : "0x56e81f171bcc55a6ff8345e692c0f86e5b48e01b996cadc001622fb5e363b421",
            "uncleHash" : "0x1dcc4de8dec75d7aab85b567b6ccd41ad312451b948a7413f0a142fd40d49347"
        },
        "genesisRLP" : "0xf901faf901f5a00000000000000000000000000000000000000000000000000000000000000000a01dcc4de8dec75d7aab85b567b6ccd41ad312451b948a7413f0a142fd40d49347942adc25665018aa1fe0e6bc666dac8fc2697ff9baa03d955696f9d325d326d643fb6db88f6ebc36cb3182acae0b57c43c1a23351b89a056e81f171bcc55a6ff8345e692c0f86e5b48e01b996cadc001622fb5e363b421a056e81f171bcc55a6ff8345e692c0f86e5b48e01b996cadc001622fb5e363b421b9010000000000000000000000000000000000000000000000000000000000000000000000000000000000000000000000000000000000000000000000000000000000000000000000000000000000000000000000000000000000000000000000000000000000000000000000000000000000000000000000000000000000000000000000000000000000000000000000000000000000000000000000000000000000000000000000000000000000000000000000000000000000000000000000000000000000000000000000000000000000000000000000000000000000000000000000000000000000000000000000000000000000000000000000000000000000830200008083989680808203b642a056e81f171bcc55a6ff8345e692c0f86e5b48e01b996cadc001622fb5e363b421880102030405060708c0c0",
        "lastblockhash" : "0x8bfed4c2a68599efed4737da6a914aac3aa60db48bb2ab0a20f3417f2f6e8bd4",
        "network" : "EIP150",
        "postState" : {
            "0x2adc25665018aa1fe0e6bc666dac8fc2697ff9ba" : {
                "balance" : "0x456391824507da36",
                "code" : "",
                "nonce" : "0x00",
                "storage" : {
                }
            },
            "0xa000000000000000000000000000000000000000" : {
                "balance" : "0x00",
                "code" : "0x6001600054016000556000600060006000600073b0000000000000000000000000000000000000005af1",
                "nonce" : "0x00",
                "storage" : {
                    "0x00" : "0x69"
                }
            },
            "0xa94f5374fce5edbc8e2a8697c15331677e6ebf0b" : {
                "balance" : "0xe8d49135ca",
                "code" : "",
                "nonce" : "0x01",
                "storage" : {
                }
            },
            "0xb000000000000000000000000000000000000000" : {
                "balance" : "0x00",
                "code" : "0x6001600054016000556000600060006000600073a0000000000000000000000000000000000000005af1",
                "nonce" : "0x00",
                "storage" : {
                    "0x00" : "0x69"
                }
            }
        },
        "pre" : {
            "0xa000000000000000000000000000000000000000" : {
                "balance" : "0x00",
                "code" : "0x6001600054016000556000600060006000600073b0000000000000000000000000000000000000005af1",
                "nonce" : "0x00",
                "storage" : {
                }
            },
            "0xa94f5374fce5edbc8e2a8697c15331677e6ebf0b" : {
                "balance" : "0xe8d4a51000",
                "code" : "",
                "nonce" : "0x00",
                "storage" : {
                }
            },
            "0xb000000000000000000000000000000000000000" : {
                "balance" : "0x00",
                "code" : "0x6001600054016000556000600060006000600073a0000000000000000000000000000000000000005af1",
                "nonce" : "0x00",
                "storage" : {
                }
            }
        }
    },
    "LoopCallsDepthThenRevert_d0g0v0_EIP158" : {
        "_info" : {
            "comment" : "",
            "filledwith" : "cpp-1.3.0+commit.6e0ce939.Linux.g++",
            "lllcversion" : "Version: 0.4.18-develop.2017.9.25+commit.a72237f2.Linux.g++",
            "source" : "src/BlockchainTestsFiller/GeneralStateTests/stRevertTest/LoopCallsDepthThenRevert_d0g0v0Filler.json",
            "sourceHash" : "6edd297fd62e19f5af9c32384012e2adfd7b08ed5884900e365973f7416553f2"
        },
        "blocks" : [
            {
                "blockHeader" : {
                    "bloom" : "0x00000000000000000000000000000000000000000000000000000000000000000000000000000000000000000000000000000000000000000000000000000000000000000000000000000000000000000000000000000000000000000000000000000000000000000000000000000000000000000000000000000000000000000000000000000000000000000000000000000000000000000000000000000000000000000000000000000000000000000000000000000000000000000000000000000000000000000000000000000000000000000000000000000000000000000000000000000000000000000000000000000000000000000000000000000000",
                    "coinbase" : "0x2adc25665018aa1fe0e6bc666dac8fc2697ff9ba",
                    "difficulty" : "0x020000",
                    "extraData" : "",
                    "gasLimit" : "0x989680",
                    "gasUsed" : "0x13da36",
                    "hash" : "0x7442f4db647dafe28c96528c853aac35d3bb8e7712c88a866e3400bb56b14e1c",
                    "mixHash" : "0x7e72a3b949735de3987c2c7d848541311be72bd61701a6a2f4f567931bd88986",
                    "nonce" : "0x3475df4ec12f81e7",
                    "number" : "0x01",
                    "parentHash" : "0x6bc5a995a71c435e1befdd28009f74f66848ddd9e4d18d4a244990ce4286f5cb",
                    "receiptTrie" : "0x2bab6e17893ecece04c07a16403340c283570a0312fc8f4fa9fc24283bae393a",
                    "stateRoot" : "0xb3dc40cbc6578476c0343c98288611b5ff1f67e24e038ab3993f35a8df45d944",
                    "timestamp" : "0x03e8",
                    "transactionsTrie" : "0xb2729e33980e9274af9f87de09b0519d4963aef90463b8591fa31b118bd580bd",
                    "uncleHash" : "0x1dcc4de8dec75d7aab85b567b6ccd41ad312451b948a7413f0a142fd40d49347"
                },
                "rlp" : "0xf90260f901f8a06bc5a995a71c435e1befdd28009f74f66848ddd9e4d18d4a244990ce4286f5cba01dcc4de8dec75d7aab85b567b6ccd41ad312451b948a7413f0a142fd40d49347942adc25665018aa1fe0e6bc666dac8fc2697ff9baa0b3dc40cbc6578476c0343c98288611b5ff1f67e24e038ab3993f35a8df45d944a0b2729e33980e9274af9f87de09b0519d4963aef90463b8591fa31b118bd580bda02bab6e17893ecece04c07a16403340c283570a0312fc8f4fa9fc24283bae393ab90100000000000000000000000000000000000000000000000000000000000000000000000000000000000000000000000000000000000000000000000000000000000000000000000000000000000000000000000000000000000000000000000000000000000000000000000000000000000000000000000000000000000000000000000000000000000000000000000000000000000000000000000000000000000000000000000000000000000000000000000000000000000000000000000000000000000000000000000000000000000000000000000000000000000000000000000000000000000000000000000000000000000000000000000000000000008302000001839896808313da368203e880a07e72a3b949735de3987c2c7d848541311be72bd61701a6a2f4f567931bd88986883475df4ec12f81e7f862f86080018398968094a00000000000000000000000000000000000000080801ca0dcd5b853a2284133e6c3ee9b97192fd899fdb54bec7412cdf053062374b6dd88a013761e2b5467dbaa3687ef35fbf6d0ad6cfb5f7f744f7a4d686d378678568841c0",
                "transactions" : [
                    {
                        "data" : "",
                        "gasLimit" : "0x989680",
                        "gasPrice" : "0x01",
                        "nonce" : "0x00",
                        "r" : "0xdcd5b853a2284133e6c3ee9b97192fd899fdb54bec7412cdf053062374b6dd88",
                        "s" : "0x13761e2b5467dbaa3687ef35fbf6d0ad6cfb5f7f744f7a4d686d378678568841",
                        "to" : "0xa000000000000000000000000000000000000000",
                        "v" : "0x1c",
                        "value" : "0x00"
                    }
                ],
                "uncleHeaders" : [
                ]
            }
        ],
        "genesisBlockHeader" : {
            "bloom" : "0x00000000000000000000000000000000000000000000000000000000000000000000000000000000000000000000000000000000000000000000000000000000000000000000000000000000000000000000000000000000000000000000000000000000000000000000000000000000000000000000000000000000000000000000000000000000000000000000000000000000000000000000000000000000000000000000000000000000000000000000000000000000000000000000000000000000000000000000000000000000000000000000000000000000000000000000000000000000000000000000000000000000000000000000000000000000",
            "coinbase" : "0x2adc25665018aa1fe0e6bc666dac8fc2697ff9ba",
            "difficulty" : "0x020000",
            "extraData" : "0x42",
            "gasLimit" : "0x989680",
            "gasUsed" : "0x00",
            "hash" : "0x6bc5a995a71c435e1befdd28009f74f66848ddd9e4d18d4a244990ce4286f5cb",
            "mixHash" : "0x56e81f171bcc55a6ff8345e692c0f86e5b48e01b996cadc001622fb5e363b421",
            "nonce" : "0x0102030405060708",
            "number" : "0x00",
            "parentHash" : "0x0000000000000000000000000000000000000000000000000000000000000000",
            "receiptTrie" : "0x56e81f171bcc55a6ff8345e692c0f86e5b48e01b996cadc001622fb5e363b421",
            "stateRoot" : "0x3d955696f9d325d326d643fb6db88f6ebc36cb3182acae0b57c43c1a23351b89",
            "timestamp" : "0x03b6",
            "transactionsTrie" : "0x56e81f171bcc55a6ff8345e692c0f86e5b48e01b996cadc001622fb5e363b421",
            "uncleHash" : "0x1dcc4de8dec75d7aab85b567b6ccd41ad312451b948a7413f0a142fd40d49347"
        },
        "genesisRLP" : "0xf901faf901f5a00000000000000000000000000000000000000000000000000000000000000000a01dcc4de8dec75d7aab85b567b6ccd41ad312451b948a7413f0a142fd40d49347942adc25665018aa1fe0e6bc666dac8fc2697ff9baa03d955696f9d325d326d643fb6db88f6ebc36cb3182acae0b57c43c1a23351b89a056e81f171bcc55a6ff8345e692c0f86e5b48e01b996cadc001622fb5e363b421a056e81f171bcc55a6ff8345e692c0f86e5b48e01b996cadc001622fb5e363b421b9010000000000000000000000000000000000000000000000000000000000000000000000000000000000000000000000000000000000000000000000000000000000000000000000000000000000000000000000000000000000000000000000000000000000000000000000000000000000000000000000000000000000000000000000000000000000000000000000000000000000000000000000000000000000000000000000000000000000000000000000000000000000000000000000000000000000000000000000000000000000000000000000000000000000000000000000000000000000000000000000000000000000000000000000000000000000830200008083989680808203b642a056e81f171bcc55a6ff8345e692c0f86e5b48e01b996cadc001622fb5e363b421880102030405060708c0c0",
        "lastblockhash" : "0x7442f4db647dafe28c96528c853aac35d3bb8e7712c88a866e3400bb56b14e1c",
        "network" : "EIP158",
        "postState" : {
            "0x2adc25665018aa1fe0e6bc666dac8fc2697ff9ba" : {
                "balance" : "0x456391824507da36",
                "code" : "",
                "nonce" : "0x00",
                "storage" : {
                }
            },
            "0xa000000000000000000000000000000000000000" : {
                "balance" : "0x00",
                "code" : "0x6001600054016000556000600060006000600073b0000000000000000000000000000000000000005af1",
                "nonce" : "0x00",
                "storage" : {
                    "0x00" : "0x69"
                }
            },
            "0xa94f5374fce5edbc8e2a8697c15331677e6ebf0b" : {
                "balance" : "0xe8d49135ca",
                "code" : "",
                "nonce" : "0x01",
                "storage" : {
                }
            },
            "0xb000000000000000000000000000000000000000" : {
                "balance" : "0x00",
                "code" : "0x6001600054016000556000600060006000600073a0000000000000000000000000000000000000005af1",
                "nonce" : "0x00",
                "storage" : {
                    "0x00" : "0x69"
                }
            }
        },
        "pre" : {
            "0xa000000000000000000000000000000000000000" : {
                "balance" : "0x00",
                "code" : "0x6001600054016000556000600060006000600073b0000000000000000000000000000000000000005af1",
                "nonce" : "0x00",
                "storage" : {
                }
            },
            "0xa94f5374fce5edbc8e2a8697c15331677e6ebf0b" : {
                "balance" : "0xe8d4a51000",
                "code" : "",
                "nonce" : "0x00",
                "storage" : {
                }
            },
            "0xb000000000000000000000000000000000000000" : {
                "balance" : "0x00",
                "code" : "0x6001600054016000556000600060006000600073a0000000000000000000000000000000000000005af1",
                "nonce" : "0x00",
                "storage" : {
                }
            }
        }
    },
    "LoopCallsDepthThenRevert_d0g0v0_Frontier" : {
        "_info" : {
            "comment" : "",
            "filledwith" : "cpp-1.3.0+commit.6e0ce939.Linux.g++",
            "lllcversion" : "Version: 0.4.18-develop.2017.9.25+commit.a72237f2.Linux.g++",
            "source" : "src/BlockchainTestsFiller/GeneralStateTests/stRevertTest/LoopCallsDepthThenRevert_d0g0v0Filler.json",
            "sourceHash" : "6edd297fd62e19f5af9c32384012e2adfd7b08ed5884900e365973f7416553f2"
        },
        "blocks" : [
            {
                "blockHeader" : {
                    "bloom" : "0x00000000000000000000000000000000000000000000000000000000000000000000000000000000000000000000000000000000000000000000000000000000000000000000000000000000000000000000000000000000000000000000000000000000000000000000000000000000000000000000000000000000000000000000000000000000000000000000000000000000000000000000000000000000000000000000000000000000000000000000000000000000000000000000000000000000000000000000000000000000000000000000000000000000000000000000000000000000000000000000000000000000000000000000000000000000",
                    "coinbase" : "0x2adc25665018aa1fe0e6bc666dac8fc2697ff9ba",
                    "difficulty" : "0x020000",
                    "extraData" : "",
                    "gasLimit" : "0x989680",
                    "gasUsed" : "0x989680",
                    "hash" : "0xdfef7e49e2cdebedf20d6bd0e5df7b5cef7fc01bdd1b58647eb1e1fb2de74c9f",
                    "mixHash" : "0x5f689899b097e8dc39a80eb33785069ad5056d83154e7cfa2030b04c28b6c833",
                    "nonce" : "0x06bdc3d8ccaa9975",
                    "number" : "0x01",
                    "parentHash" : "0x6bc5a995a71c435e1befdd28009f74f66848ddd9e4d18d4a244990ce4286f5cb",
                    "receiptTrie" : "0xafd86c14486acbfdd8f33b82d2eced4a0ecdfed95c7c4c26c1ae4aa449747b5e",
                    "stateRoot" : "0x6d9bc3b558078a8985692a1e4bcbf6adff296281ef23bc560f28b862573bae8d",
                    "timestamp" : "0x03e8",
                    "transactionsTrie" : "0xb2729e33980e9274af9f87de09b0519d4963aef90463b8591fa31b118bd580bd",
                    "uncleHash" : "0x1dcc4de8dec75d7aab85b567b6ccd41ad312451b948a7413f0a142fd40d49347"
                },
                "rlp" : "0xf90260f901f8a06bc5a995a71c435e1befdd28009f74f66848ddd9e4d18d4a244990ce4286f5cba01dcc4de8dec75d7aab85b567b6ccd41ad312451b948a7413f0a142fd40d49347942adc25665018aa1fe0e6bc666dac8fc2697ff9baa06d9bc3b558078a8985692a1e4bcbf6adff296281ef23bc560f28b862573bae8da0b2729e33980e9274af9f87de09b0519d4963aef90463b8591fa31b118bd580bda0afd86c14486acbfdd8f33b82d2eced4a0ecdfed95c7c4c26c1ae4aa449747b5eb9010000000000000000000000000000000000000000000000000000000000000000000000000000000000000000000000000000000000000000000000000000000000000000000000000000000000000000000000000000000000000000000000000000000000000000000000000000000000000000000000000000000000000000000000000000000000000000000000000000000000000000000000000000000000000000000000000000000000000000000000000000000000000000000000000000000000000000000000000000000000000000000000000000000000000000000000000000000000000000000000000000000000000000000000000000000000830200000183989680839896808203e880a05f689899b097e8dc39a80eb33785069ad5056d83154e7cfa2030b04c28b6c8338806bdc3d8ccaa9975f862f86080018398968094a00000000000000000000000000000000000000080801ca0dcd5b853a2284133e6c3ee9b97192fd899fdb54bec7412cdf053062374b6dd88a013761e2b5467dbaa3687ef35fbf6d0ad6cfb5f7f744f7a4d686d378678568841c0",
                "transactions" : [
                    {
                        "data" : "",
                        "gasLimit" : "0x989680",
                        "gasPrice" : "0x01",
                        "nonce" : "0x00",
                        "r" : "0xdcd5b853a2284133e6c3ee9b97192fd899fdb54bec7412cdf053062374b6dd88",
                        "s" : "0x13761e2b5467dbaa3687ef35fbf6d0ad6cfb5f7f744f7a4d686d378678568841",
                        "to" : "0xa000000000000000000000000000000000000000",
                        "v" : "0x1c",
                        "value" : "0x00"
                    }
                ],
                "uncleHeaders" : [
                ]
            }
        ],
        "genesisBlockHeader" : {
            "bloom" : "0x00000000000000000000000000000000000000000000000000000000000000000000000000000000000000000000000000000000000000000000000000000000000000000000000000000000000000000000000000000000000000000000000000000000000000000000000000000000000000000000000000000000000000000000000000000000000000000000000000000000000000000000000000000000000000000000000000000000000000000000000000000000000000000000000000000000000000000000000000000000000000000000000000000000000000000000000000000000000000000000000000000000000000000000000000000000",
            "coinbase" : "0x2adc25665018aa1fe0e6bc666dac8fc2697ff9ba",
            "difficulty" : "0x020000",
            "extraData" : "0x42",
            "gasLimit" : "0x989680",
            "gasUsed" : "0x00",
            "hash" : "0x6bc5a995a71c435e1befdd28009f74f66848ddd9e4d18d4a244990ce4286f5cb",
            "mixHash" : "0x56e81f171bcc55a6ff8345e692c0f86e5b48e01b996cadc001622fb5e363b421",
            "nonce" : "0x0102030405060708",
            "number" : "0x00",
            "parentHash" : "0x0000000000000000000000000000000000000000000000000000000000000000",
            "receiptTrie" : "0x56e81f171bcc55a6ff8345e692c0f86e5b48e01b996cadc001622fb5e363b421",
            "stateRoot" : "0x3d955696f9d325d326d643fb6db88f6ebc36cb3182acae0b57c43c1a23351b89",
            "timestamp" : "0x03b6",
            "transactionsTrie" : "0x56e81f171bcc55a6ff8345e692c0f86e5b48e01b996cadc001622fb5e363b421",
            "uncleHash" : "0x1dcc4de8dec75d7aab85b567b6ccd41ad312451b948a7413f0a142fd40d49347"
        },
        "genesisRLP" : "0xf901faf901f5a00000000000000000000000000000000000000000000000000000000000000000a01dcc4de8dec75d7aab85b567b6ccd41ad312451b948a7413f0a142fd40d49347942adc25665018aa1fe0e6bc666dac8fc2697ff9baa03d955696f9d325d326d643fb6db88f6ebc36cb3182acae0b57c43c1a23351b89a056e81f171bcc55a6ff8345e692c0f86e5b48e01b996cadc001622fb5e363b421a056e81f171bcc55a6ff8345e692c0f86e5b48e01b996cadc001622fb5e363b421b9010000000000000000000000000000000000000000000000000000000000000000000000000000000000000000000000000000000000000000000000000000000000000000000000000000000000000000000000000000000000000000000000000000000000000000000000000000000000000000000000000000000000000000000000000000000000000000000000000000000000000000000000000000000000000000000000000000000000000000000000000000000000000000000000000000000000000000000000000000000000000000000000000000000000000000000000000000000000000000000000000000000000000000000000000000000000830200008083989680808203b642a056e81f171bcc55a6ff8345e692c0f86e5b48e01b996cadc001622fb5e363b421880102030405060708c0c0",
        "lastblockhash" : "0xdfef7e49e2cdebedf20d6bd0e5df7b5cef7fc01bdd1b58647eb1e1fb2de74c9f",
        "network" : "Frontier",
        "postState" : {
            "0x2adc25665018aa1fe0e6bc666dac8fc2697ff9ba" : {
                "balance" : "0x45639182458c9680",
                "code" : "",
                "nonce" : "0x00",
                "storage" : {
                }
            },
            "0xa000000000000000000000000000000000000000" : {
                "balance" : "0x00",
                "code" : "0x6001600054016000556000600060006000600073b0000000000000000000000000000000000000005af1",
                "nonce" : "0x00",
                "storage" : {
                }
            },
            "0xa94f5374fce5edbc8e2a8697c15331677e6ebf0b" : {
                "balance" : "0xe8d40c7980",
                "code" : "",
                "nonce" : "0x01",
                "storage" : {
                }
            },
            "0xb000000000000000000000000000000000000000" : {
                "balance" : "0x00",
                "code" : "0x6001600054016000556000600060006000600073a0000000000000000000000000000000000000005af1",
                "nonce" : "0x00",
                "storage" : {
                }
            }
        },
        "pre" : {
            "0xa000000000000000000000000000000000000000" : {
                "balance" : "0x00",
                "code" : "0x6001600054016000556000600060006000600073b0000000000000000000000000000000000000005af1",
                "nonce" : "0x00",
                "storage" : {
                }
            },
            "0xa94f5374fce5edbc8e2a8697c15331677e6ebf0b" : {
                "balance" : "0xe8d4a51000",
                "code" : "",
                "nonce" : "0x00",
                "storage" : {
                }
            },
            "0xb000000000000000000000000000000000000000" : {
                "balance" : "0x00",
                "code" : "0x6001600054016000556000600060006000600073a0000000000000000000000000000000000000005af1",
                "nonce" : "0x00",
                "storage" : {
                }
            }
        }
    },
    "LoopCallsDepthThenRevert_d0g0v0_Homestead" : {
        "_info" : {
            "comment" : "",
            "filledwith" : "cpp-1.3.0+commit.6e0ce939.Linux.g++",
            "lllcversion" : "Version: 0.4.18-develop.2017.9.25+commit.a72237f2.Linux.g++",
            "source" : "src/BlockchainTestsFiller/GeneralStateTests/stRevertTest/LoopCallsDepthThenRevert_d0g0v0Filler.json",
            "sourceHash" : "6edd297fd62e19f5af9c32384012e2adfd7b08ed5884900e365973f7416553f2"
        },
        "blocks" : [
            {
                "blockHeader" : {
                    "bloom" : "0x00000000000000000000000000000000000000000000000000000000000000000000000000000000000000000000000000000000000000000000000000000000000000000000000000000000000000000000000000000000000000000000000000000000000000000000000000000000000000000000000000000000000000000000000000000000000000000000000000000000000000000000000000000000000000000000000000000000000000000000000000000000000000000000000000000000000000000000000000000000000000000000000000000000000000000000000000000000000000000000000000000000000000000000000000000000",
                    "coinbase" : "0x2adc25665018aa1fe0e6bc666dac8fc2697ff9ba",
                    "difficulty" : "0x020000",
                    "extraData" : "",
                    "gasLimit" : "0x989680",
                    "gasUsed" : "0x989680",
                    "hash" : "0xe85253d8997ccbd414895b228ea1bc463e2c43d6c90168d75d06ac0cb87d279a",
                    "mixHash" : "0x2a8d1db3bc48cd9540e14e4a94ed0eb48334b27835819b13b1c360263522476b",
                    "nonce" : "0xa323531b14a227eb",
                    "number" : "0x01",
                    "parentHash" : "0x6bc5a995a71c435e1befdd28009f74f66848ddd9e4d18d4a244990ce4286f5cb",
                    "receiptTrie" : "0xafd86c14486acbfdd8f33b82d2eced4a0ecdfed95c7c4c26c1ae4aa449747b5e",
                    "stateRoot" : "0x6d9bc3b558078a8985692a1e4bcbf6adff296281ef23bc560f28b862573bae8d",
                    "timestamp" : "0x03e8",
                    "transactionsTrie" : "0xb2729e33980e9274af9f87de09b0519d4963aef90463b8591fa31b118bd580bd",
                    "uncleHash" : "0x1dcc4de8dec75d7aab85b567b6ccd41ad312451b948a7413f0a142fd40d49347"
                },
                "rlp" : "0xf90260f901f8a06bc5a995a71c435e1befdd28009f74f66848ddd9e4d18d4a244990ce4286f5cba01dcc4de8dec75d7aab85b567b6ccd41ad312451b948a7413f0a142fd40d49347942adc25665018aa1fe0e6bc666dac8fc2697ff9baa06d9bc3b558078a8985692a1e4bcbf6adff296281ef23bc560f28b862573bae8da0b2729e33980e9274af9f87de09b0519d4963aef90463b8591fa31b118bd580bda0afd86c14486acbfdd8f33b82d2eced4a0ecdfed95c7c4c26c1ae4aa449747b5eb9010000000000000000000000000000000000000000000000000000000000000000000000000000000000000000000000000000000000000000000000000000000000000000000000000000000000000000000000000000000000000000000000000000000000000000000000000000000000000000000000000000000000000000000000000000000000000000000000000000000000000000000000000000000000000000000000000000000000000000000000000000000000000000000000000000000000000000000000000000000000000000000000000000000000000000000000000000000000000000000000000000000000000000000000000000000000830200000183989680839896808203e880a02a8d1db3bc48cd9540e14e4a94ed0eb48334b27835819b13b1c360263522476b88a323531b14a227ebf862f86080018398968094a00000000000000000000000000000000000000080801ca0dcd5b853a2284133e6c3ee9b97192fd899fdb54bec7412cdf053062374b6dd88a013761e2b5467dbaa3687ef35fbf6d0ad6cfb5f7f744f7a4d686d378678568841c0",
                "transactions" : [
                    {
                        "data" : "",
                        "gasLimit" : "0x989680",
                        "gasPrice" : "0x01",
                        "nonce" : "0x00",
                        "r" : "0xdcd5b853a2284133e6c3ee9b97192fd899fdb54bec7412cdf053062374b6dd88",
                        "s" : "0x13761e2b5467dbaa3687ef35fbf6d0ad6cfb5f7f744f7a4d686d378678568841",
                        "to" : "0xa000000000000000000000000000000000000000",
                        "v" : "0x1c",
                        "value" : "0x00"
                    }
                ],
                "uncleHeaders" : [
                ]
            }
        ],
        "genesisBlockHeader" : {
            "bloom" : "0x00000000000000000000000000000000000000000000000000000000000000000000000000000000000000000000000000000000000000000000000000000000000000000000000000000000000000000000000000000000000000000000000000000000000000000000000000000000000000000000000000000000000000000000000000000000000000000000000000000000000000000000000000000000000000000000000000000000000000000000000000000000000000000000000000000000000000000000000000000000000000000000000000000000000000000000000000000000000000000000000000000000000000000000000000000000",
            "coinbase" : "0x2adc25665018aa1fe0e6bc666dac8fc2697ff9ba",
            "difficulty" : "0x020000",
            "extraData" : "0x42",
            "gasLimit" : "0x989680",
            "gasUsed" : "0x00",
            "hash" : "0x6bc5a995a71c435e1befdd28009f74f66848ddd9e4d18d4a244990ce4286f5cb",
            "mixHash" : "0x56e81f171bcc55a6ff8345e692c0f86e5b48e01b996cadc001622fb5e363b421",
            "nonce" : "0x0102030405060708",
            "number" : "0x00",
            "parentHash" : "0x0000000000000000000000000000000000000000000000000000000000000000",
            "receiptTrie" : "0x56e81f171bcc55a6ff8345e692c0f86e5b48e01b996cadc001622fb5e363b421",
            "stateRoot" : "0x3d955696f9d325d326d643fb6db88f6ebc36cb3182acae0b57c43c1a23351b89",
            "timestamp" : "0x03b6",
            "transactionsTrie" : "0x56e81f171bcc55a6ff8345e692c0f86e5b48e01b996cadc001622fb5e363b421",
            "uncleHash" : "0x1dcc4de8dec75d7aab85b567b6ccd41ad312451b948a7413f0a142fd40d49347"
        },
        "genesisRLP" : "0xf901faf901f5a00000000000000000000000000000000000000000000000000000000000000000a01dcc4de8dec75d7aab85b567b6ccd41ad312451b948a7413f0a142fd40d49347942adc25665018aa1fe0e6bc666dac8fc2697ff9baa03d955696f9d325d326d643fb6db88f6ebc36cb3182acae0b57c43c1a23351b89a056e81f171bcc55a6ff8345e692c0f86e5b48e01b996cadc001622fb5e363b421a056e81f171bcc55a6ff8345e692c0f86e5b48e01b996cadc001622fb5e363b421b9010000000000000000000000000000000000000000000000000000000000000000000000000000000000000000000000000000000000000000000000000000000000000000000000000000000000000000000000000000000000000000000000000000000000000000000000000000000000000000000000000000000000000000000000000000000000000000000000000000000000000000000000000000000000000000000000000000000000000000000000000000000000000000000000000000000000000000000000000000000000000000000000000000000000000000000000000000000000000000000000000000000000000000000000000000000000830200008083989680808203b642a056e81f171bcc55a6ff8345e692c0f86e5b48e01b996cadc001622fb5e363b421880102030405060708c0c0",
        "lastblockhash" : "0xe85253d8997ccbd414895b228ea1bc463e2c43d6c90168d75d06ac0cb87d279a",
        "network" : "Homestead",
        "postState" : {
            "0x2adc25665018aa1fe0e6bc666dac8fc2697ff9ba" : {
                "balance" : "0x45639182458c9680",
                "code" : "",
                "nonce" : "0x00",
                "storage" : {
                }
            },
            "0xa000000000000000000000000000000000000000" : {
                "balance" : "0x00",
                "code" : "0x6001600054016000556000600060006000600073b0000000000000000000000000000000000000005af1",
                "nonce" : "0x00",
                "storage" : {
                }
            },
            "0xa94f5374fce5edbc8e2a8697c15331677e6ebf0b" : {
                "balance" : "0xe8d40c7980",
                "code" : "",
                "nonce" : "0x01",
                "storage" : {
                }
            },
            "0xb000000000000000000000000000000000000000" : {
                "balance" : "0x00",
                "code" : "0x6001600054016000556000600060006000600073a0000000000000000000000000000000000000005af1",
                "nonce" : "0x00",
                "storage" : {
                }
            }
        },
        "pre" : {
            "0xa000000000000000000000000000000000000000" : {
                "balance" : "0x00",
                "code" : "0x6001600054016000556000600060006000600073b0000000000000000000000000000000000000005af1",
                "nonce" : "0x00",
                "storage" : {
                }
            },
            "0xa94f5374fce5edbc8e2a8697c15331677e6ebf0b" : {
                "balance" : "0xe8d4a51000",
                "code" : "",
                "nonce" : "0x00",
                "storage" : {
                }
            },
            "0xb000000000000000000000000000000000000000" : {
                "balance" : "0x00",
                "code" : "0x6001600054016000556000600060006000600073a0000000000000000000000000000000000000005af1",
                "nonce" : "0x00",
                "storage" : {
                }
            }
        }
    }
}