{
    "LoopCallsThenRevert_d0g0v0_Byzantium" : {
        "_info" : {
            "comment" : "",
            "filledwith" : "cpp-1.3.0+commit.6e0ce939.Linux.g++",
            "lllcversion" : "Version: 0.4.18-develop.2017.9.25+commit.a72237f2.Linux.g++",
            "source" : "src/BlockchainTestsFiller/GeneralStateTests/stRevertTest/LoopCallsThenRevert_d0g0v0Filler.json",
            "sourceHash" : "0894a76af170a1b92d5a4d5287069b204871f31f63c5507f51414edebac3d6b7"
        },
        "blocks" : [
            {
                "blockHeader" : {
                    "bloom" : "0x00000000000000000000000000000000000000000000000000000000000000000000000000000000000000000000000000000000000000000000000000000000000000000000000000000000000000000000000000000000000000000000000000000000000000000000000000000000000000000000000000000000000000000000000000000000000000000000000000000000000000000000000000000000000000000000000000000000000000000000000000000000000000000000000000000000000000000000000000000000000000000000000000000000000000000000000000000000000000000000000000000000000000000000000000000000",
                    "coinbase" : "0x2adc25665018aa1fe0e6bc666dac8fc2697ff9ba",
                    "difficulty" : "0x020000",
                    "extraData" : "",
                    "gasLimit" : "0x989680",
                    "gasUsed" : "0x93b610",
                    "hash" : "0xd20524c20e3b597ad76162a90d9b8063b874d791bbc07110957ae84400998584",
                    "mixHash" : "0x775bbc23146c7a4900f82d39889e64a5bc964661ae5fe03ea6b98bddc975e402",
                    "nonce" : "0xb66af5180befc64c",
                    "number" : "0x01",
                    "parentHash" : "0x7e50ebf1e77b7cd40086ef5c0dc05282d4148419cd39dee85b45a0713e2bf1ac",
                    "receiptTrie" : "0x2ccdbac5b89917d87863735ddbdb705c812687214c8dbfa56aa6f1c6ef47c435",
                    "stateRoot" : "0xc1b5946f70f9bcc28770bceec7ce5cffbbeea387d6ad9817d5235026949bd73f",
                    "timestamp" : "0x03e8",
                    "transactionsTrie" : "0xb2729e33980e9274af9f87de09b0519d4963aef90463b8591fa31b118bd580bd",
                    "uncleHash" : "0x1dcc4de8dec75d7aab85b567b6ccd41ad312451b948a7413f0a142fd40d49347"
                },
                "rlp" : "0xf90260f901f8a07e50ebf1e77b7cd40086ef5c0dc05282d4148419cd39dee85b45a0713e2bf1aca01dcc4de8dec75d7aab85b567b6ccd41ad312451b948a7413f0a142fd40d49347942adc25665018aa1fe0e6bc666dac8fc2697ff9baa0c1b5946f70f9bcc28770bceec7ce5cffbbeea387d6ad9817d5235026949bd73fa0b2729e33980e9274af9f87de09b0519d4963aef90463b8591fa31b118bd580bda02ccdbac5b89917d87863735ddbdb705c812687214c8dbfa56aa6f1c6ef47c435b90100000000000000000000000000000000000000000000000000000000000000000000000000000000000000000000000000000000000000000000000000000000000000000000000000000000000000000000000000000000000000000000000000000000000000000000000000000000000000000000000000000000000000000000000000000000000000000000000000000000000000000000000000000000000000000000000000000000000000000000000000000000000000000000000000000000000000000000000000000000000000000000000000000000000000000000000000000000000000000000000000000000000000000000000000000000008302000001839896808393b6108203e880a0775bbc23146c7a4900f82d39889e64a5bc964661ae5fe03ea6b98bddc975e40288b66af5180befc64cf862f86080018398968094a00000000000000000000000000000000000000080801ca0dcd5b853a2284133e6c3ee9b97192fd899fdb54bec7412cdf053062374b6dd88a013761e2b5467dbaa3687ef35fbf6d0ad6cfb5f7f744f7a4d686d378678568841c0",
                "transactions" : [
                    {
                        "data" : "",
                        "gasLimit" : "0x989680",
                        "gasPrice" : "0x01",
                        "nonce" : "0x00",
                        "r" : "0xdcd5b853a2284133e6c3ee9b97192fd899fdb54bec7412cdf053062374b6dd88",
                        "s" : "0x13761e2b5467dbaa3687ef35fbf6d0ad6cfb5f7f744f7a4d686d378678568841",
                        "to" : "0xa000000000000000000000000000000000000000",
                        "v" : "0x1c",
                        "value" : "0x00"
                    }
                ],
                "uncleHeaders" : [
                ]
            }
        ],
        "genesisBlockHeader" : {
            "bloom" : "0x00000000000000000000000000000000000000000000000000000000000000000000000000000000000000000000000000000000000000000000000000000000000000000000000000000000000000000000000000000000000000000000000000000000000000000000000000000000000000000000000000000000000000000000000000000000000000000000000000000000000000000000000000000000000000000000000000000000000000000000000000000000000000000000000000000000000000000000000000000000000000000000000000000000000000000000000000000000000000000000000000000000000000000000000000000000",
            "coinbase" : "0x2adc25665018aa1fe0e6bc666dac8fc2697ff9ba",
            "difficulty" : "0x020000",
            "extraData" : "0x42",
            "gasLimit" : "0x989680",
            "gasUsed" : "0x00",
            "hash" : "0x7e50ebf1e77b7cd40086ef5c0dc05282d4148419cd39dee85b45a0713e2bf1ac",
            "mixHash" : "0x56e81f171bcc55a6ff8345e692c0f86e5b48e01b996cadc001622fb5e363b421",
            "nonce" : "0x0102030405060708",
            "number" : "0x00",
            "parentHash" : "0x0000000000000000000000000000000000000000000000000000000000000000",
            "receiptTrie" : "0x56e81f171bcc55a6ff8345e692c0f86e5b48e01b996cadc001622fb5e363b421",
            "stateRoot" : "0x6691f67aacda006b564c4fc4773e6cb6a0c8b170587ea4438d7a5986a37915c6",
            "timestamp" : "0x03b6",
            "transactionsTrie" : "0x56e81f171bcc55a6ff8345e692c0f86e5b48e01b996cadc001622fb5e363b421",
            "uncleHash" : "0x1dcc4de8dec75d7aab85b567b6ccd41ad312451b948a7413f0a142fd40d49347"
        },
        "genesisRLP" : "0xf901faf901f5a00000000000000000000000000000000000000000000000000000000000000000a01dcc4de8dec75d7aab85b567b6ccd41ad312451b948a7413f0a142fd40d49347942adc25665018aa1fe0e6bc666dac8fc2697ff9baa06691f67aacda006b564c4fc4773e6cb6a0c8b170587ea4438d7a5986a37915c6a056e81f171bcc55a6ff8345e692c0f86e5b48e01b996cadc001622fb5e363b421a056e81f171bcc55a6ff8345e692c0f86e5b48e01b996cadc001622fb5e363b421b9010000000000000000000000000000000000000000000000000000000000000000000000000000000000000000000000000000000000000000000000000000000000000000000000000000000000000000000000000000000000000000000000000000000000000000000000000000000000000000000000000000000000000000000000000000000000000000000000000000000000000000000000000000000000000000000000000000000000000000000000000000000000000000000000000000000000000000000000000000000000000000000000000000000000000000000000000000000000000000000000000000000000000000000000000000000000830200008083989680808203b642a056e81f171bcc55a6ff8345e692c0f86e5b48e01b996cadc001622fb5e363b421880102030405060708c0c0",
        "lastblockhash" : "0xd20524c20e3b597ad76162a90d9b8063b874d791bbc07110957ae84400998584",
        "network" : "Byzantium",
        "postState" : {
            "0x2adc25665018aa1fe0e6bc666dac8fc2697ff9ba" : {
                "balance" : "0x29a2241af6bfb610",
                "code" : "",
                "nonce" : "0x00",
                "storage" : {
                }
            },
            "0xa000000000000000000000000000000000000000" : {
                "balance" : "0x00",
                "code" : "0x5b6001600054036000556000600060006000600073b00000000000000000000000000000000000000061c350f150600054600057",
                "nonce" : "0x00",
                "storage" : {
                }
            },
            "0xa94f5374fce5edbc8e2a8697c15331677e6ebf0b" : {
                "balance" : "0xe8d41159f0",
                "code" : "",
                "nonce" : "0x01",
                "storage" : {
                }
            },
            "0xb000000000000000000000000000000000000000" : {
                "balance" : "0x00",
                "code" : "0x600054600101600055",
                "nonce" : "0x00",
                "storage" : {
                    "0x00" : "0x0352"
                }
            }
        },
        "pre" : {
            "0xa000000000000000000000000000000000000000" : {
                "balance" : "0x00",
                "code" : "0x5b6001600054036000556000600060006000600073b00000000000000000000000000000000000000061c350f150600054600057",
                "nonce" : "0x00",
                "storage" : {
                    "0x00" : "0x0352"
                }
            },
            "0xa94f5374fce5edbc8e2a8697c15331677e6ebf0b" : {
                "balance" : "0xe8d4a51000",
                "code" : "",
                "nonce" : "0x00",
                "storage" : {
                }
            },
            "0xb000000000000000000000000000000000000000" : {
                "balance" : "0x00",
                "code" : "0x600054600101600055",
                "nonce" : "0x00",
                "storage" : {
                }
            }
        }
    },
    "LoopCallsThenRevert_d0g0v0_EIP150" : {
        "_info" : {
            "comment" : "",
            "filledwith" : "cpp-1.3.0+commit.6e0ce939.Linux.g++",
            "lllcversion" : "Version: 0.4.18-develop.2017.9.25+commit.a72237f2.Linux.g++",
            "source" : "src/BlockchainTestsFiller/GeneralStateTests/stRevertTest/LoopCallsThenRevert_d0g0v0Filler.json",
            "sourceHash" : "0894a76af170a1b92d5a4d5287069b204871f31f63c5507f51414edebac3d6b7"
        },
        "blocks" : [
            {
                "blockHeader" : {
                    "bloom" : "0x00000000000000000000000000000000000000000000000000000000000000000000000000000000000000000000000000000000000000000000000000000000000000000000000000000000000000000000000000000000000000000000000000000000000000000000000000000000000000000000000000000000000000000000000000000000000000000000000000000000000000000000000000000000000000000000000000000000000000000000000000000000000000000000000000000000000000000000000000000000000000000000000000000000000000000000000000000000000000000000000000000000000000000000000000000000",
                    "coinbase" : "0x2adc25665018aa1fe0e6bc666dac8fc2697ff9ba",
                    "difficulty" : "0x020000",
                    "extraData" : "",
                    "gasLimit" : "0x989680",
                    "gasUsed" : "0x93b610",
                    "hash" : "0xf42d39f139293a7671d372ecff5e368cdd7ede58cec49692af59beff0c688a6c",
                    "mixHash" : "0x7682d4b0e44a2776bb7a79b5762dd2babf4c39ff2a17f8aa64084022a23cb3f0",
                    "nonce" : "0xbaba64d5f860b4b5",
                    "number" : "0x01",
                    "parentHash" : "0x7e50ebf1e77b7cd40086ef5c0dc05282d4148419cd39dee85b45a0713e2bf1ac",
                    "receiptTrie" : "0xf68abed6ce6d9556257dc58e89a703958039c6d9ea640cbc2b248c10679d8bd3",
                    "stateRoot" : "0x006d371e0ca32f024cad32fcc2146861d069b2c51a23f06705d4c863f136fc73",
                    "timestamp" : "0x03e8",
                    "transactionsTrie" : "0xb2729e33980e9274af9f87de09b0519d4963aef90463b8591fa31b118bd580bd",
                    "uncleHash" : "0x1dcc4de8dec75d7aab85b567b6ccd41ad312451b948a7413f0a142fd40d49347"
                },
                "rlp" : "0xf90260f901f8a07e50ebf1e77b7cd40086ef5c0dc05282d4148419cd39dee85b45a0713e2bf1aca01dcc4de8dec75d7aab85b567b6ccd41ad312451b948a7413f0a142fd40d49347942adc25665018aa1fe0e6bc666dac8fc2697ff9baa0006d371e0ca32f024cad32fcc2146861d069b2c51a23f06705d4c863f136fc73a0b2729e33980e9274af9f87de09b0519d4963aef90463b8591fa31b118bd580bda0f68abed6ce6d9556257dc58e89a703958039c6d9ea640cbc2b248c10679d8bd3b90100000000000000000000000000000000000000000000000000000000000000000000000000000000000000000000000000000000000000000000000000000000000000000000000000000000000000000000000000000000000000000000000000000000000000000000000000000000000000000000000000000000000000000000000000000000000000000000000000000000000000000000000000000000000000000000000000000000000000000000000000000000000000000000000000000000000000000000000000000000000000000000000000000000000000000000000000000000000000000000000000000000000000000000000000000000008302000001839896808393b6108203e880a07682d4b0e44a2776bb7a79b5762dd2babf4c39ff2a17f8aa64084022a23cb3f088baba64d5f860b4b5f862f86080018398968094a00000000000000000000000000000000000000080801ca0dcd5b853a2284133e6c3ee9b97192fd899fdb54bec7412cdf053062374b6dd88a013761e2b5467dbaa3687ef35fbf6d0ad6cfb5f7f744f7a4d686d378678568841c0",
                "transactions" : [
                    {
                        "data" : "",
                        "gasLimit" : "0x989680",
                        "gasPrice" : "0x01",
                        "nonce" : "0x00",
                        "r" : "0xdcd5b853a2284133e6c3ee9b97192fd899fdb54bec7412cdf053062374b6dd88",
                        "s" : "0x13761e2b5467dbaa3687ef35fbf6d0ad6cfb5f7f744f7a4d686d378678568841",
                        "to" : "0xa000000000000000000000000000000000000000",
                        "v" : "0x1c",
                        "value" : "0x00"
                    }
                ],
                "uncleHeaders" : [
                ]
            }
        ],
        "genesisBlockHeader" : {
            "bloom" : "0x00000000000000000000000000000000000000000000000000000000000000000000000000000000000000000000000000000000000000000000000000000000000000000000000000000000000000000000000000000000000000000000000000000000000000000000000000000000000000000000000000000000000000000000000000000000000000000000000000000000000000000000000000000000000000000000000000000000000000000000000000000000000000000000000000000000000000000000000000000000000000000000000000000000000000000000000000000000000000000000000000000000000000000000000000000000",
            "coinbase" : "0x2adc25665018aa1fe0e6bc666dac8fc2697ff9ba",
            "difficulty" : "0x020000",
            "extraData" : "0x42",
            "gasLimit" : "0x989680",
            "gasUsed" : "0x00",
            "hash" : "0x7e50ebf1e77b7cd40086ef5c0dc05282d4148419cd39dee85b45a0713e2bf1ac",
            "mixHash" : "0x56e81f171bcc55a6ff8345e692c0f86e5b48e01b996cadc001622fb5e363b421",
            "nonce" : "0x0102030405060708",
            "number" : "0x00",
            "parentHash" : "0x0000000000000000000000000000000000000000000000000000000000000000",
            "receiptTrie" : "0x56e81f171bcc55a6ff8345e692c0f86e5b48e01b996cadc001622fb5e363b421",
            "stateRoot" : "0x6691f67aacda006b564c4fc4773e6cb6a0c8b170587ea4438d7a5986a37915c6",
            "timestamp" : "0x03b6",
            "transactionsTrie" : "0x56e81f171bcc55a6ff8345e692c0f86e5b48e01b996cadc001622fb5e363b421",
            "uncleHash" : "0x1dcc4de8dec75d7aab85b567b6ccd41ad312451b948a7413f0a142fd40d49347"
        },
        "genesisRLP" : "0xf901faf901f5a00000000000000000000000000000000000000000000000000000000000000000a01dcc4de8dec75d7aab85b567b6ccd41ad312451b948a7413f0a142fd40d49347942adc25665018aa1fe0e6bc666dac8fc2697ff9baa06691f67aacda006b564c4fc4773e6cb6a0c8b170587ea4438d7a5986a37915c6a056e81f171bcc55a6ff8345e692c0f86e5b48e01b996cadc001622fb5e363b421a056e81f171bcc55a6ff8345e692c0f86e5b48e01b996cadc001622fb5e363b421b9010000000000000000000000000000000000000000000000000000000000000000000000000000000000000000000000000000000000000000000000000000000000000000000000000000000000000000000000000000000000000000000000000000000000000000000000000000000000000000000000000000000000000000000000000000000000000000000000000000000000000000000000000000000000000000000000000000000000000000000000000000000000000000000000000000000000000000000000000000000000000000000000000000000000000000000000000000000000000000000000000000000000000000000000000000000000830200008083989680808203b642a056e81f171bcc55a6ff8345e692c0f86e5b48e01b996cadc001622fb5e363b421880102030405060708c0c0",
        "lastblockhash" : "0xf42d39f139293a7671d372ecff5e368cdd7ede58cec49692af59beff0c688a6c",
        "network" : "EIP150",
        "postState" : {
            "0x2adc25665018aa1fe0e6bc666dac8fc2697ff9ba" : {
                "balance" : "0x456391824587b610",
                "code" : "",
                "nonce" : "0x00",
                "storage" : {
                }
            },
            "0xa000000000000000000000000000000000000000" : {
                "balance" : "0x00",
                "code" : "0x5b6001600054036000556000600060006000600073b00000000000000000000000000000000000000061c350f150600054600057",
                "nonce" : "0x00",
                "storage" : {
                }
            },
            "0xa94f5374fce5edbc8e2a8697c15331677e6ebf0b" : {
                "balance" : "0xe8d41159f0",
                "code" : "",
                "nonce" : "0x01",
                "storage" : {
                }
            },
            "0xb000000000000000000000000000000000000000" : {
                "balance" : "0x00",
                "code" : "0x600054600101600055",
                "nonce" : "0x00",
                "storage" : {
                    "0x00" : "0x0352"
                }
            }
        },
        "pre" : {
            "0xa000000000000000000000000000000000000000" : {
                "balance" : "0x00",
                "code" : "0x5b6001600054036000556000600060006000600073b00000000000000000000000000000000000000061c350f150600054600057",
                "nonce" : "0x00",
                "storage" : {
                    "0x00" : "0x0352"
                }
            },
            "0xa94f5374fce5edbc8e2a8697c15331677e6ebf0b" : {
                "balance" : "0xe8d4a51000",
                "code" : "",
                "nonce" : "0x00",
                "storage" : {
                }
            },
            "0xb000000000000000000000000000000000000000" : {
                "balance" : "0x00",
                "code" : "0x600054600101600055",
                "nonce" : "0x00",
                "storage" : {
                }
            }
        }
    },
    "LoopCallsThenRevert_d0g0v0_EIP158" : {
        "_info" : {
            "comment" : "",
            "filledwith" : "cpp-1.3.0+commit.6e0ce939.Linux.g++",
            "lllcversion" : "Version: 0.4.18-develop.2017.9.25+commit.a72237f2.Linux.g++",
            "source" : "src/BlockchainTestsFiller/GeneralStateTests/stRevertTest/LoopCallsThenRevert_d0g0v0Filler.json",
            "sourceHash" : "0894a76af170a1b92d5a4d5287069b204871f31f63c5507f51414edebac3d6b7"
        },
        "blocks" : [
            {
                "blockHeader" : {
                    "bloom" : "0x00000000000000000000000000000000000000000000000000000000000000000000000000000000000000000000000000000000000000000000000000000000000000000000000000000000000000000000000000000000000000000000000000000000000000000000000000000000000000000000000000000000000000000000000000000000000000000000000000000000000000000000000000000000000000000000000000000000000000000000000000000000000000000000000000000000000000000000000000000000000000000000000000000000000000000000000000000000000000000000000000000000000000000000000000000000",
                    "coinbase" : "0x2adc25665018aa1fe0e6bc666dac8fc2697ff9ba",
                    "difficulty" : "0x020000",
                    "extraData" : "",
                    "gasLimit" : "0x989680",
                    "gasUsed" : "0x93b610",
                    "hash" : "0x81ebe166cf637dc9ff9b4a1dfc12af9cb2b475d836a349cbae785afa3a46e2e6",
                    "mixHash" : "0xa7dbff48876944b910fd9deaa68347d64a9047c1e1e9c6b221d27bbda1110a4a",
                    "nonce" : "0x4f333997cc2b012b",
                    "number" : "0x01",
                    "parentHash" : "0x7e50ebf1e77b7cd40086ef5c0dc05282d4148419cd39dee85b45a0713e2bf1ac",
                    "receiptTrie" : "0xf68abed6ce6d9556257dc58e89a703958039c6d9ea640cbc2b248c10679d8bd3",
                    "stateRoot" : "0x006d371e0ca32f024cad32fcc2146861d069b2c51a23f06705d4c863f136fc73",
                    "timestamp" : "0x03e8",
                    "transactionsTrie" : "0xb2729e33980e9274af9f87de09b0519d4963aef90463b8591fa31b118bd580bd",
                    "uncleHash" : "0x1dcc4de8dec75d7aab85b567b6ccd41ad312451b948a7413f0a142fd40d49347"
                },
                "rlp" : "0xf90260f901f8a07e50ebf1e77b7cd40086ef5c0dc05282d4148419cd39dee85b45a0713e2bf1aca01dcc4de8dec75d7aab85b567b6ccd41ad312451b948a7413f0a142fd40d49347942adc25665018aa1fe0e6bc666dac8fc2697ff9baa0006d371e0ca32f024cad32fcc2146861d069b2c51a23f06705d4c863f136fc73a0b2729e33980e9274af9f87de09b0519d4963aef90463b8591fa31b118bd580bda0f68abed6ce6d9556257dc58e89a703958039c6d9ea640cbc2b248c10679d8bd3b90100000000000000000000000000000000000000000000000000000000000000000000000000000000000000000000000000000000000000000000000000000000000000000000000000000000000000000000000000000000000000000000000000000000000000000000000000000000000000000000000000000000000000000000000000000000000000000000000000000000000000000000000000000000000000000000000000000000000000000000000000000000000000000000000000000000000000000000000000000000000000000000000000000000000000000000000000000000000000000000000000000000000000000000000000000000008302000001839896808393b6108203e880a0a7dbff48876944b910fd9deaa68347d64a9047c1e1e9c6b221d27bbda1110a4a884f333997cc2b012bf862f86080018398968094a00000000000000000000000000000000000000080801ca0dcd5b853a2284133e6c3ee9b97192fd899fdb54bec7412cdf053062374b6dd88a013761e2b5467dbaa3687ef35fbf6d0ad6cfb5f7f744f7a4d686d378678568841c0",
                "transactions" : [
                    {
                        "data" : "",
                        "gasLimit" : "0x989680",
                        "gasPrice" : "0x01",
                        "nonce" : "0x00",
                        "r" : "0xdcd5b853a2284133e6c3ee9b97192fd899fdb54bec7412cdf053062374b6dd88",
                        "s" : "0x13761e2b5467dbaa3687ef35fbf6d0ad6cfb5f7f744f7a4d686d378678568841",
                        "to" : "0xa000000000000000000000000000000000000000",
                        "v" : "0x1c",
                        "value" : "0x00"
                    }
                ],
                "uncleHeaders" : [
                ]
            }
        ],
        "genesisBlockHeader" : {
            "bloom" : "0x00000000000000000000000000000000000000000000000000000000000000000000000000000000000000000000000000000000000000000000000000000000000000000000000000000000000000000000000000000000000000000000000000000000000000000000000000000000000000000000000000000000000000000000000000000000000000000000000000000000000000000000000000000000000000000000000000000000000000000000000000000000000000000000000000000000000000000000000000000000000000000000000000000000000000000000000000000000000000000000000000000000000000000000000000000000",
            "coinbase" : "0x2adc25665018aa1fe0e6bc666dac8fc2697ff9ba",
            "difficulty" : "0x020000",
            "extraData" : "0x42",
            "gasLimit" : "0x989680",
            "gasUsed" : "0x00",
            "hash" : "0x7e50ebf1e77b7cd40086ef5c0dc05282d4148419cd39dee85b45a0713e2bf1ac",
            "mixHash" : "0x56e81f171bcc55a6ff8345e692c0f86e5b48e01b996cadc001622fb5e363b421",
            "nonce" : "0x0102030405060708",
            "number" : "0x00",
            "parentHash" : "0x0000000000000000000000000000000000000000000000000000000000000000",
            "receiptTrie" : "0x56e81f171bcc55a6ff8345e692c0f86e5b48e01b996cadc001622fb5e363b421",
            "stateRoot" : "0x6691f67aacda006b564c4fc4773e6cb6a0c8b170587ea4438d7a5986a37915c6",
            "timestamp" : "0x03b6",
            "transactionsTrie" : "0x56e81f171bcc55a6ff8345e692c0f86e5b48e01b996cadc001622fb5e363b421",
            "uncleHash" : "0x1dcc4de8dec75d7aab85b567b6ccd41ad312451b948a7413f0a142fd40d49347"
        },
        "genesisRLP" : "0xf901faf901f5a00000000000000000000000000000000000000000000000000000000000000000a01dcc4de8dec75d7aab85b567b6ccd41ad312451b948a7413f0a142fd40d49347942adc25665018aa1fe0e6bc666dac8fc2697ff9baa06691f67aacda006b564c4fc4773e6cb6a0c8b170587ea4438d7a5986a37915c6a056e81f171bcc55a6ff8345e692c0f86e5b48e01b996cadc001622fb5e363b421a056e81f171bcc55a6ff8345e692c0f86e5b48e01b996cadc001622fb5e363b421b9010000000000000000000000000000000000000000000000000000000000000000000000000000000000000000000000000000000000000000000000000000000000000000000000000000000000000000000000000000000000000000000000000000000000000000000000000000000000000000000000000000000000000000000000000000000000000000000000000000000000000000000000000000000000000000000000000000000000000000000000000000000000000000000000000000000000000000000000000000000000000000000000000000000000000000000000000000000000000000000000000000000000000000000000000000000000830200008083989680808203b642a056e81f171bcc55a6ff8345e692c0f86e5b48e01b996cadc001622fb5e363b421880102030405060708c0c0",
        "lastblockhash" : "0x81ebe166cf637dc9ff9b4a1dfc12af9cb2b475d836a349cbae785afa3a46e2e6",
        "network" : "EIP158",
        "postState" : {
            "0x2adc25665018aa1fe0e6bc666dac8fc2697ff9ba" : {
                "balance" : "0x456391824587b610",
                "code" : "",
                "nonce" : "0x00",
                "storage" : {
                }
            },
            "0xa000000000000000000000000000000000000000" : {
                "balance" : "0x00",
                "code" : "0x5b6001600054036000556000600060006000600073b00000000000000000000000000000000000000061c350f150600054600057",
                "nonce" : "0x00",
                "storage" : {
                }
            },
            "0xa94f5374fce5edbc8e2a8697c15331677e6ebf0b" : {
                "balance" : "0xe8d41159f0",
                "code" : "",
                "nonce" : "0x01",
                "storage" : {
                }
            },
            "0xb000000000000000000000000000000000000000" : {
                "balance" : "0x00",
                "code" : "0x600054600101600055",
                "nonce" : "0x00",
                "storage" : {
                    "0x00" : "0x0352"
                }
            }
        },
        "pre" : {
            "0xa000000000000000000000000000000000000000" : {
                "balance" : "0x00",
                "code" : "0x5b6001600054036000556000600060006000600073b00000000000000000000000000000000000000061c350f150600054600057",
                "nonce" : "0x00",
                "storage" : {
                    "0x00" : "0x0352"
                }
            },
            "0xa94f5374fce5edbc8e2a8697c15331677e6ebf0b" : {
                "balance" : "0xe8d4a51000",
                "code" : "",
                "nonce" : "0x00",
                "storage" : {
                }
            },
            "0xb000000000000000000000000000000000000000" : {
                "balance" : "0x00",
                "code" : "0x600054600101600055",
                "nonce" : "0x00",
                "storage" : {
                }
            }
        }
    },
    "LoopCallsThenRevert_d0g0v0_Frontier" : {
        "_info" : {
            "comment" : "",
            "filledwith" : "cpp-1.3.0+commit.6e0ce939.Linux.g++",
            "lllcversion" : "Version: 0.4.18-develop.2017.9.25+commit.a72237f2.Linux.g++",
            "source" : "src/BlockchainTestsFiller/GeneralStateTests/stRevertTest/LoopCallsThenRevert_d0g0v0Filler.json",
            "sourceHash" : "0894a76af170a1b92d5a4d5287069b204871f31f63c5507f51414edebac3d6b7"
        },
        "blocks" : [
            {
                "blockHeader" : {
                    "bloom" : "0x00000000000000000000000000000000000000000000000000000000000000000000000000000000000000000000000000000000000000000000000000000000000000000000000000000000000000000000000000000000000000000000000000000000000000000000000000000000000000000000000000000000000000000000000000000000000000000000000000000000000000000000000000000000000000000000000000000000000000000000000000000000000000000000000000000000000000000000000000000000000000000000000000000000000000000000000000000000000000000000000000000000000000000000000000000000",
                    "coinbase" : "0x2adc25665018aa1fe0e6bc666dac8fc2697ff9ba",
                    "difficulty" : "0x020000",
                    "extraData" : "",
                    "gasLimit" : "0x989680",
                    "gasUsed" : "0x855084",
                    "hash" : "0x7c80ea10545929d1a1b603f4a19416a142023b1bc38e5fbee5ac55544bf6dda9",
                    "mixHash" : "0xec1d9a6631eb3ba03f2bec8ad6ff6a12d50ae8a32b5afaf999d1d86d38f71431",
                    "nonce" : "0xa2f4140d9a7e8d94",
                    "number" : "0x01",
                    "parentHash" : "0x7e50ebf1e77b7cd40086ef5c0dc05282d4148419cd39dee85b45a0713e2bf1ac",
                    "receiptTrie" : "0xaf81a84f0d4e00c732f698981b78a99603040a30e626b5f1e3ff338393760ec2",
                    "stateRoot" : "0xc2ad1f607b6185721bd654a478595536c3163adc5156b278aeace1b4f72cc841",
                    "timestamp" : "0x03e8",
                    "transactionsTrie" : "0xb2729e33980e9274af9f87de09b0519d4963aef90463b8591fa31b118bd580bd",
                    "uncleHash" : "0x1dcc4de8dec75d7aab85b567b6ccd41ad312451b948a7413f0a142fd40d49347"
                },
                "rlp" : "0xf90260f901f8a07e50ebf1e77b7cd40086ef5c0dc05282d4148419cd39dee85b45a0713e2bf1aca01dcc4de8dec75d7aab85b567b6ccd41ad312451b948a7413f0a142fd40d49347942adc25665018aa1fe0e6bc666dac8fc2697ff9baa0c2ad1f607b6185721bd654a478595536c3163adc5156b278aeace1b4f72cc841a0b2729e33980e9274af9f87de09b0519d4963aef90463b8591fa31b118bd580bda0af81a84f0d4e00c732f698981b78a99603040a30e626b5f1e3ff338393760ec2b9010000000000000000000000000000000000000000000000000000000000000000000000000000000000000000000000000000000000000000000000000000000000000000000000000000000000000000000000000000000000000000000000000000000000000000000000000000000000000000000000000000000000000000000000000000000000000000000000000000000000000000000000000000000000000000000000000000000000000000000000000000000000000000000000000000000000000000000000000000000000000000000000000000000000000000000000000000000000000000000000000000000000000000000000000000000000830200000183989680838550848203e880a0ec1d9a6631eb3ba03f2bec8ad6ff6a12d50ae8a32b5afaf999d1d86d38f7143188a2f4140d9a7e8d94f862f86080018398968094a00000000000000000000000000000000000000080801ca0dcd5b853a2284133e6c3ee9b97192fd899fdb54bec7412cdf053062374b6dd88a013761e2b5467dbaa3687ef35fbf6d0ad6cfb5f7f744f7a4d686d378678568841c0",
                "transactions" : [
                    {
                        "data" : "",
                        "gasLimit" : "0x989680",
                        "gasPrice" : "0x01",
                        "nonce" : "0x00",
                        "r" : "0xdcd5b853a2284133e6c3ee9b97192fd899fdb54bec7412cdf053062374b6dd88",
                        "s" : "0x13761e2b5467dbaa3687ef35fbf6d0ad6cfb5f7f744f7a4d686d378678568841",
                        "to" : "0xa000000000000000000000000000000000000000",
                        "v" : "0x1c",
                        "value" : "0x00"
                    }
                ],
                "uncleHeaders" : [
                ]
            }
        ],
        "genesisBlockHeader" : {
            "bloom" : "0x00000000000000000000000000000000000000000000000000000000000000000000000000000000000000000000000000000000000000000000000000000000000000000000000000000000000000000000000000000000000000000000000000000000000000000000000000000000000000000000000000000000000000000000000000000000000000000000000000000000000000000000000000000000000000000000000000000000000000000000000000000000000000000000000000000000000000000000000000000000000000000000000000000000000000000000000000000000000000000000000000000000000000000000000000000000",
            "coinbase" : "0x2adc25665018aa1fe0e6bc666dac8fc2697ff9ba",
            "difficulty" : "0x020000",
            "extraData" : "0x42",
            "gasLimit" : "0x989680",
            "gasUsed" : "0x00",
            "hash" : "0x7e50ebf1e77b7cd40086ef5c0dc05282d4148419cd39dee85b45a0713e2bf1ac",
            "mixHash" : "0x56e81f171bcc55a6ff8345e692c0f86e5b48e01b996cadc001622fb5e363b421",
            "nonce" : "0x0102030405060708",
            "number" : "0x00",
            "parentHash" : "0x0000000000000000000000000000000000000000000000000000000000000000",
            "receiptTrie" : "0x56e81f171bcc55a6ff8345e692c0f86e5b48e01b996cadc001622fb5e363b421",
            "stateRoot" : "0x6691f67aacda006b564c4fc4773e6cb6a0c8b170587ea4438d7a5986a37915c6",
            "timestamp" : "0x03b6",
            "transactionsTrie" : "0x56e81f171bcc55a6ff8345e692c0f86e5b48e01b996cadc001622fb5e363b421",
            "uncleHash" : "0x1dcc4de8dec75d7aab85b567b6ccd41ad312451b948a7413f0a142fd40d49347"
        },
        "genesisRLP" : "0xf901faf901f5a00000000000000000000000000000000000000000000000000000000000000000a01dcc4de8dec75d7aab85b567b6ccd41ad312451b948a7413f0a142fd40d49347942adc25665018aa1fe0e6bc666dac8fc2697ff9baa06691f67aacda006b564c4fc4773e6cb6a0c8b170587ea4438d7a5986a37915c6a056e81f171bcc55a6ff8345e692c0f86e5b48e01b996cadc001622fb5e363b421a056e81f171bcc55a6ff8345e692c0f86e5b48e01b996cadc001622fb5e363b421b9010000000000000000000000000000000000000000000000000000000000000000000000000000000000000000000000000000000000000000000000000000000000000000000000000000000000000000000000000000000000000000000000000000000000000000000000000000000000000000000000000000000000000000000000000000000000000000000000000000000000000000000000000000000000000000000000000000000000000000000000000000000000000000000000000000000000000000000000000000000000000000000000000000000000000000000000000000000000000000000000000000000000000000000000000000000000830200008083989680808203b642a056e81f171bcc55a6ff8345e692c0f86e5b48e01b996cadc001622fb5e363b421880102030405060708c0c0",
        "lastblockhash" : "0x7c80ea10545929d1a1b603f4a19416a142023b1bc38e5fbee5ac55544bf6dda9",
        "network" : "Frontier",
        "postState" : {
            "0x2adc25665018aa1fe0e6bc666dac8fc2697ff9ba" : {
                "balance" : "0x4563918245795084",
                "code" : "",
                "nonce" : "0x00",
                "storage" : {
                }
            },
            "0xa000000000000000000000000000000000000000" : {
                "balance" : "0x00",
                "code" : "0x5b6001600054036000556000600060006000600073b00000000000000000000000000000000000000061c350f150600054600057",
                "nonce" : "0x00",
                "storage" : {
                }
            },
            "0xa94f5374fce5edbc8e2a8697c15331677e6ebf0b" : {
                "balance" : "0xe8d41fbf7c",
                "code" : "",
                "nonce" : "0x01",
                "storage" : {
                }
            },
            "0xb000000000000000000000000000000000000000" : {
                "balance" : "0x00",
                "code" : "0x600054600101600055",
                "nonce" : "0x00",
                "storage" : {
                    "0x00" : "0x0352"
                }
            }
        },
        "pre" : {
            "0xa000000000000000000000000000000000000000" : {
                "balance" : "0x00",
                "code" : "0x5b6001600054036000556000600060006000600073b00000000000000000000000000000000000000061c350f150600054600057",
                "nonce" : "0x00",
                "storage" : {
                    "0x00" : "0x0352"
                }
            },
            "0xa94f5374fce5edbc8e2a8697c15331677e6ebf0b" : {
                "balance" : "0xe8d4a51000",
                "code" : "",
                "nonce" : "0x00",
                "storage" : {
                }
            },
            "0xb000000000000000000000000000000000000000" : {
                "balance" : "0x00",
                "code" : "0x600054600101600055",
                "nonce" : "0x00",
                "storage" : {
                }
            }
        }
    },
    "LoopCallsThenRevert_d0g0v0_Homestead" : {
        "_info" : {
            "comment" : "",
            "filledwith" : "cpp-1.3.0+commit.6e0ce939.Linux.g++",
            "lllcversion" : "Version: 0.4.18-develop.2017.9.25+commit.a72237f2.Linux.g++",
            "source" : "src/BlockchainTestsFiller/GeneralStateTests/stRevertTest/LoopCallsThenRevert_d0g0v0Filler.json",
            "sourceHash" : "0894a76af170a1b92d5a4d5287069b204871f31f63c5507f51414edebac3d6b7"
        },
        "blocks" : [
            {
                "blockHeader" : {
                    "bloom" : "0x00000000000000000000000000000000000000000000000000000000000000000000000000000000000000000000000000000000000000000000000000000000000000000000000000000000000000000000000000000000000000000000000000000000000000000000000000000000000000000000000000000000000000000000000000000000000000000000000000000000000000000000000000000000000000000000000000000000000000000000000000000000000000000000000000000000000000000000000000000000000000000000000000000000000000000000000000000000000000000000000000000000000000000000000000000000",
                    "coinbase" : "0x2adc25665018aa1fe0e6bc666dac8fc2697ff9ba",
                    "difficulty" : "0x020000",
                    "extraData" : "",
                    "gasLimit" : "0x989680",
                    "gasUsed" : "0x855084",
                    "hash" : "0x29ca3f8c559cb170097509ee2feb672084302c8563ac949fb6ff9a894c186796",
                    "mixHash" : "0xc2a9e3094acd6218a6b85bb4003eca2a93a2e1aabcf86478435282bcb8adb500",
                    "nonce" : "0x354fcd95bc5479e7",
                    "number" : "0x01",
                    "parentHash" : "0x7e50ebf1e77b7cd40086ef5c0dc05282d4148419cd39dee85b45a0713e2bf1ac",
                    "receiptTrie" : "0xaf81a84f0d4e00c732f698981b78a99603040a30e626b5f1e3ff338393760ec2",
                    "stateRoot" : "0xc2ad1f607b6185721bd654a478595536c3163adc5156b278aeace1b4f72cc841",
                    "timestamp" : "0x03e8",
                    "transactionsTrie" : "0xb2729e33980e9274af9f87de09b0519d4963aef90463b8591fa31b118bd580bd",
                    "uncleHash" : "0x1dcc4de8dec75d7aab85b567b6ccd41ad312451b948a7413f0a142fd40d49347"
                },
                "rlp" : "0xf90260f901f8a07e50ebf1e77b7cd40086ef5c0dc05282d4148419cd39dee85b45a0713e2bf1aca01dcc4de8dec75d7aab85b567b6ccd41ad312451b948a7413f0a142fd40d49347942adc25665018aa1fe0e6bc666dac8fc2697ff9baa0c2ad1f607b6185721bd654a478595536c3163adc5156b278aeace1b4f72cc841a0b2729e33980e9274af9f87de09b0519d4963aef90463b8591fa31b118bd580bda0af81a84f0d4e00c732f698981b78a99603040a30e626b5f1e3ff338393760ec2b9010000000000000000000000000000000000000000000000000000000000000000000000000000000000000000000000000000000000000000000000000000000000000000000000000000000000000000000000000000000000000000000000000000000000000000000000000000000000000000000000000000000000000000000000000000000000000000000000000000000000000000000000000000000000000000000000000000000000000000000000000000000000000000000000000000000000000000000000000000000000000000000000000000000000000000000000000000000000000000000000000000000000000000000000000000000000830200000183989680838550848203e880a0c2a9e3094acd6218a6b85bb4003eca2a93a2e1aabcf86478435282bcb8adb50088354fcd95bc5479e7f862f86080018398968094a00000000000000000000000000000000000000080801ca0dcd5b853a2284133e6c3ee9b97192fd899fdb54bec7412cdf053062374b6dd88a013761e2b5467dbaa3687ef35fbf6d0ad6cfb5f7f744f7a4d686d378678568841c0",
                "transactions" : [
                    {
                        "data" : "",
                        "gasLimit" : "0x989680",
                        "gasPrice" : "0x01",
                        "nonce" : "0x00",
                        "r" : "0xdcd5b853a2284133e6c3ee9b97192fd899fdb54bec7412cdf053062374b6dd88",
                        "s" : "0x13761e2b5467dbaa3687ef35fbf6d0ad6cfb5f7f744f7a4d686d378678568841",
                        "to" : "0xa000000000000000000000000000000000000000",
                        "v" : "0x1c",
                        "value" : "0x00"
                    }
                ],
                "uncleHeaders" : [
                ]
            }
        ],
        "genesisBlockHeader" : {
            "bloom" : "0x00000000000000000000000000000000000000000000000000000000000000000000000000000000000000000000000000000000000000000000000000000000000000000000000000000000000000000000000000000000000000000000000000000000000000000000000000000000000000000000000000000000000000000000000000000000000000000000000000000000000000000000000000000000000000000000000000000000000000000000000000000000000000000000000000000000000000000000000000000000000000000000000000000000000000000000000000000000000000000000000000000000000000000000000000000000",
            "coinbase" : "0x2adc25665018aa1fe0e6bc666dac8fc2697ff9ba",
            "difficulty" : "0x020000",
            "extraData" : "0x42",
            "gasLimit" : "0x989680",
            "gasUsed" : "0x00",
            "hash" : "0x7e50ebf1e77b7cd40086ef5c0dc05282d4148419cd39dee85b45a0713e2bf1ac",
            "mixHash" : "0x56e81f171bcc55a6ff8345e692c0f86e5b48e01b996cadc001622fb5e363b421",
            "nonce" : "0x0102030405060708",
            "number" : "0x00",
            "parentHash" : "0x0000000000000000000000000000000000000000000000000000000000000000",
            "receiptTrie" : "0x56e81f171bcc55a6ff8345e692c0f86e5b48e01b996cadc001622fb5e363b421",
            "stateRoot" : "0x6691f67aacda006b564c4fc4773e6cb6a0c8b170587ea4438d7a5986a37915c6",
            "timestamp" : "0x03b6",
            "transactionsTrie" : "0x56e81f171bcc55a6ff8345e692c0f86e5b48e01b996cadc001622fb5e363b421",
            "uncleHash" : "0x1dcc4de8dec75d7aab85b567b6ccd41ad312451b948a7413f0a142fd40d49347"
        },
        "genesisRLP" : "0xf901faf901f5a00000000000000000000000000000000000000000000000000000000000000000a01dcc4de8dec75d7aab85b567b6ccd41ad312451b948a7413f0a142fd40d49347942adc25665018aa1fe0e6bc666dac8fc2697ff9baa06691f67aacda006b564c4fc4773e6cb6a0c8b170587ea4438d7a5986a37915c6a056e81f171bcc55a6ff8345e692c0f86e5b48e01b996cadc001622fb5e363b421a056e81f171bcc55a6ff8345e692c0f86e5b48e01b996cadc001622fb5e363b421b9010000000000000000000000000000000000000000000000000000000000000000000000000000000000000000000000000000000000000000000000000000000000000000000000000000000000000000000000000000000000000000000000000000000000000000000000000000000000000000000000000000000000000000000000000000000000000000000000000000000000000000000000000000000000000000000000000000000000000000000000000000000000000000000000000000000000000000000000000000000000000000000000000000000000000000000000000000000000000000000000000000000000000000000000000000000000830200008083989680808203b642a056e81f171bcc55a6ff8345e692c0f86e5b48e01b996cadc001622fb5e363b421880102030405060708c0c0",
        "lastblockhash" : "0x29ca3f8c559cb170097509ee2feb672084302c8563ac949fb6ff9a894c186796",
        "network" : "Homestead",
        "postState" : {
            "0x2adc25665018aa1fe0e6bc666dac8fc2697ff9ba" : {
                "balance" : "0x4563918245795084",
                "code" : "",
                "nonce" : "0x00",
                "storage" : {
                }
            },
            "0xa000000000000000000000000000000000000000" : {
                "balance" : "0x00",
                "code" : "0x5b6001600054036000556000600060006000600073b00000000000000000000000000000000000000061c350f150600054600057",
                "nonce" : "0x00",
                "storage" : {
                }
            },
            "0xa94f5374fce5edbc8e2a8697c15331677e6ebf0b" : {
                "balance" : "0xe8d41fbf7c",
                "code" : "",
                "nonce" : "0x01",
                "storage" : {
                }
            },
            "0xb000000000000000000000000000000000000000" : {
                "balance" : "0x00",
                "code" : "0x600054600101600055",
                "nonce" : "0x00",
                "storage" : {
                    "0x00" : "0x0352"
                }
            }
        },
        "pre" : {
            "0xa000000000000000000000000000000000000000" : {
                "balance" : "0x00",
                "code" : "0x5b6001600054036000556000600060006000600073b00000000000000000000000000000000000000061c350f150600054600057",
                "nonce" : "0x00",
                "storage" : {
                    "0x00" : "0x0352"
                }
            },
            "0xa94f5374fce5edbc8e2a8697c15331677e6ebf0b" : {
                "balance" : "0xe8d4a51000",
                "code" : "",
                "nonce" : "0x00",
                "storage" : {
                }
            },
            "0xb000000000000000000000000000000000000000" : {
                "balance" : "0x00",
                "code" : "0x600054600101600055",
                "nonce" : "0x00",
                "storage" : {
                }
            }
        }
    }
}