{
    "LoopCallsDepthThenRevert3_d0g0v0_Byzantium" : {
        "_info" : {
            "comment" : "",
            "filledwith" : "cpp-1.3.0+commit.6e0ce939.Linux.g++",
            "lllcversion" : "Version: 0.4.18-develop.2017.9.25+commit.a72237f2.Linux.g++",
            "source" : "src/BlockchainTestsFiller/GeneralStateTests/stRevertTest/LoopCallsDepthThenRevert3_d0g0v0Filler.json",
            "sourceHash" : "5be1e9deb2ca7efced2344c2ea720535a499e2e75a6553542d2defcb89e08e44"
        },
        "blocks" : [
            {
                "blockHeader" : {
                    "bloom" : "0x00000000000000000000000000000000000000000000000000000000000000000000000000000000000000000000000000000000000000000000000000000000000000000000000000000000000000000000000000000000000000000000000000000000000000000000000000000000000000000000000000000000000000000000000000000000000000000000000000000000000000000000000000000000000000000000000000000000000000000000000000000000000000000000000000000000000000000000000000000000000000000000000000000000000000000000000000000000000000000000000000000000000000000000000000000000",
                    "coinbase" : "0x2adc25665018aa1fe0e6bc666dac8fc2697ff9ba",
                    "difficulty" : "0x020000",
                    "extraData" : "",
                    "gasLimit" : "0x7fffffffffffffff",
                    "gasUsed" : "0x6501ca",
                    "hash" : "0x9ff6ec26344db69d7b4ce57e553cbf07f55a9c142e48621db58cea13244957c4",
                    "mixHash" : "0x0100cfd4d6be66e64af3f55ef16ae1e46c67c8bd0c00f557b100dd9a61fe0df0",
                    "nonce" : "0x8559ccfb82840787",
                    "number" : "0x01",
                    "parentHash" : "0x9b82ee789627d7c321dcdee5b2ae1c4e939268ede370b65bf8b2f64b85741843",
                    "receiptTrie" : "0xb6580333b6255db99cb068f01ef7913770a7b6a0a02e84fa854cbaf2fca58810",
                    "stateRoot" : "0xdedd28237408d0c6d30f9ca95edf5a7ca0dad5d7b4b4d153a8f5e141685b3404",
                    "timestamp" : "0x03e8",
                    "transactionsTrie" : "0x84e5036f9cf532e8fbf3c0ac0355c029f4837793e32be7bf51262adb82d6fcaa",
                    "uncleHash" : "0x1dcc4de8dec75d7aab85b567b6ccd41ad312451b948a7413f0a142fd40d49347"
                },
                "rlp" : "0xf9026af901fda09b82ee789627d7c321dcdee5b2ae1c4e939268ede370b65bf8b2f64b85741843a01dcc4de8dec75d7aab85b567b6ccd41ad312451b948a7413f0a142fd40d49347942adc25665018aa1fe0e6bc666dac8fc2697ff9baa0dedd28237408d0c6d30f9ca95edf5a7ca0dad5d7b4b4d153a8f5e141685b3404a084e5036f9cf532e8fbf3c0ac0355c029f4837793e32be7bf51262adb82d6fcaaa0b6580333b6255db99cb068f01ef7913770a7b6a0a02e84fa854cbaf2fca58810b90100000000000000000000000000000000000000000000000000000000000000000000000000000000000000000000000000000000000000000000000000000000000000000000000000000000000000000000000000000000000000000000000000000000000000000000000000000000000000000000000000000000000000000000000000000000000000000000000000000000000000000000000000000000000000000000000000000000000000000000000000000000000000000000000000000000000000000000000000000000000000000000000000000000000000000000000000000000000000000000000000000000000000000000000000000000008302000001887fffffffffffffff836501ca8203e880a00100cfd4d6be66e64af3f55ef16ae1e46c67c8bd0c00f557b100dd9a61fe0df0888559ccfb82840787f867f8658001887ffffffffffffff094a00000000000000000000000000000000000000080801ca031bd4c1d75c2daa04386e8431dc78f8e93a10c07927898061e4f188dcea8e708a008afbb59317063ad40204147fb0e6d640f2a055b58fffc1d85ec248265a7bb54c0",
                "transactions" : [
                    {
                        "data" : "",
                        "gasLimit" : "0x7ffffffffffffff0",
                        "gasPrice" : "0x01",
                        "nonce" : "0x00",
                        "r" : "0x31bd4c1d75c2daa04386e8431dc78f8e93a10c07927898061e4f188dcea8e708",
                        "s" : "0x08afbb59317063ad40204147fb0e6d640f2a055b58fffc1d85ec248265a7bb54",
                        "to" : "0xa000000000000000000000000000000000000000",
                        "v" : "0x1c",
                        "value" : "0x00"
                    }
                ],
                "uncleHeaders" : [
                ]
            }
        ],
        "genesisBlockHeader" : {
            "bloom" : "0x00000000000000000000000000000000000000000000000000000000000000000000000000000000000000000000000000000000000000000000000000000000000000000000000000000000000000000000000000000000000000000000000000000000000000000000000000000000000000000000000000000000000000000000000000000000000000000000000000000000000000000000000000000000000000000000000000000000000000000000000000000000000000000000000000000000000000000000000000000000000000000000000000000000000000000000000000000000000000000000000000000000000000000000000000000000",
            "coinbase" : "0x2adc25665018aa1fe0e6bc666dac8fc2697ff9ba",
            "difficulty" : "0x020000",
            "extraData" : "0x42",
            "gasLimit" : "0x7fffffffffffffff",
            "gasUsed" : "0x00",
            "hash" : "0x9b82ee789627d7c321dcdee5b2ae1c4e939268ede370b65bf8b2f64b85741843",
            "mixHash" : "0x56e81f171bcc55a6ff8345e692c0f86e5b48e01b996cadc001622fb5e363b421",
            "nonce" : "0x0102030405060708",
            "number" : "0x00",
            "parentHash" : "0x0000000000000000000000000000000000000000000000000000000000000000",
            "receiptTrie" : "0x56e81f171bcc55a6ff8345e692c0f86e5b48e01b996cadc001622fb5e363b421",
            "stateRoot" : "0x490f610945243ceb19ca3ffff579bb1f53a163a88f1f329ad744e0b5a3eac54a",
            "timestamp" : "0x03b6",
            "transactionsTrie" : "0x56e81f171bcc55a6ff8345e692c0f86e5b48e01b996cadc001622fb5e363b421",
            "uncleHash" : "0x1dcc4de8dec75d7aab85b567b6ccd41ad312451b948a7413f0a142fd40d49347"
        },
        "genesisRLP" : "0xf901fff901faa00000000000000000000000000000000000000000000000000000000000000000a01dcc4de8dec75d7aab85b567b6ccd41ad312451b948a7413f0a142fd40d49347942adc25665018aa1fe0e6bc666dac8fc2697ff9baa0490f610945243ceb19ca3ffff579bb1f53a163a88f1f329ad744e0b5a3eac54aa056e81f171bcc55a6ff8345e692c0f86e5b48e01b996cadc001622fb5e363b421a056e81f171bcc55a6ff8345e692c0f86e5b48e01b996cadc001622fb5e363b421b90100000000000000000000000000000000000000000000000000000000000000000000000000000000000000000000000000000000000000000000000000000000000000000000000000000000000000000000000000000000000000000000000000000000000000000000000000000000000000000000000000000000000000000000000000000000000000000000000000000000000000000000000000000000000000000000000000000000000000000000000000000000000000000000000000000000000000000000000000000000000000000000000000000000000000000000000000000000000000000000000000000000000000000000000000000000008302000080887fffffffffffffff808203b642a056e81f171bcc55a6ff8345e692c0f86e5b48e01b996cadc001622fb5e363b421880102030405060708c0c0",
        "lastblockhash" : "0x9ff6ec26344db69d7b4ce57e553cbf07f55a9c142e48621db58cea13244957c4",
        "network" : "Byzantium",
        "postState" : {
            "0x2adc25665018aa1fe0e6bc666dac8fc2697ff9ba" : {
                "balance" : "0x29a2241af69101ca",
                "code" : "",
                "nonce" : "0x00",
                "storage" : {
                }
            },
            "0x7db299e0885c85039f56fa504a13dd8ce8a56aa7" : {
                "balance" : "0x01",
                "code" : "",
                "nonce" : "0x02",
                "storage" : {
                }
            },
            "0xa000000000000000000000000000000000000000" : {
                "balance" : "0x07",
                "code" : "0x6103fe60005414603f576001600054016000556000600060006000600073a0000000000000000000000000000000000000005af15061041a600054106053575b66600060006002f0600052600760196003f0505b",
                "nonce" : "0x01",
                "storage" : {
                    "0x00" : "0x03fe"
                }
            },
            "0xa94f5374fce5edbc8e2a8697c15331677e6ebf0b" : {
                "balance" : "0x13426172c74d822b878fe7ff9afe36",
                "code" : "",
                "nonce" : "0x01",
                "storage" : {
                }
            },
            "0xcd6807039caffddbd1c28a749ec91bef15f448e5" : {
                "balance" : "0x02",
                "code" : "",
                "nonce" : "0x01",
                "storage" : {
                }
            }
        },
        "pre" : {
            "0xa000000000000000000000000000000000000000" : {
                "balance" : "0x0a",
                "code" : "0x6103fe60005414603f576001600054016000556000600060006000600073a0000000000000000000000000000000000000005af15061041a600054106053575b66600060006002f0600052600760196003f0505b",
                "nonce" : "0x00",
                "storage" : {
                }
            },
            "0xa94f5374fce5edbc8e2a8697c15331677e6ebf0b" : {
                "balance" : "0x13426172c74d822b878fe800000000",
                "code" : "",
                "nonce" : "0x00",
                "storage" : {
                }
            }
        }
    },
    "LoopCallsDepthThenRevert3_d0g0v0_EIP150" : {
        "_info" : {
            "comment" : "",
            "filledwith" : "cpp-1.3.0+commit.6e0ce939.Linux.g++",
            "lllcversion" : "Version: 0.4.18-develop.2017.9.25+commit.a72237f2.Linux.g++",
            "source" : "src/BlockchainTestsFiller/GeneralStateTests/stRevertTest/LoopCallsDepthThenRevert3_d0g0v0Filler.json",
            "sourceHash" : "5be1e9deb2ca7efced2344c2ea720535a499e2e75a6553542d2defcb89e08e44"
        },
        "blocks" : [
            {
                "blockHeader" : {
                    "bloom" : "0x00000000000000000000000000000000000000000000000000000000000000000000000000000000000000000000000000000000000000000000000000000000000000000000000000000000000000000000000000000000000000000000000000000000000000000000000000000000000000000000000000000000000000000000000000000000000000000000000000000000000000000000000000000000000000000000000000000000000000000000000000000000000000000000000000000000000000000000000000000000000000000000000000000000000000000000000000000000000000000000000000000000000000000000000000000000",
                    "coinbase" : "0x2adc25665018aa1fe0e6bc666dac8fc2697ff9ba",
                    "difficulty" : "0x020000",
                    "extraData" : "",
                    "gasLimit" : "0x7fffffffffffffff",
                    "gasUsed" : "0x6501ca",
                    "hash" : "0xf054d70bc8d1018f1439640b43117ce1e41a09e3cf15763d88c56ced601bcf88",
                    "mixHash" : "0x87db3ffab43b215bad5bb00b89f120200feaacc6a23a92ee22b87b0c28990230",
                    "nonce" : "0x31c3b3a447725c46",
                    "number" : "0x01",
                    "parentHash" : "0x9b82ee789627d7c321dcdee5b2ae1c4e939268ede370b65bf8b2f64b85741843",
                    "receiptTrie" : "0x6fec0af1e815fa520bffc98508cae185ef873eea55e7aee683013f8bdcb83ca7",
                    "stateRoot" : "0x8744b82458006c99a647f2d1c6ba897ac2520901b24036fe6c9bb27cce55cbf9",
                    "timestamp" : "0x03e8",
                    "transactionsTrie" : "0x84e5036f9cf532e8fbf3c0ac0355c029f4837793e32be7bf51262adb82d6fcaa",
                    "uncleHash" : "0x1dcc4de8dec75d7aab85b567b6ccd41ad312451b948a7413f0a142fd40d49347"
                },
                "rlp" : "0xf9026af901fda09b82ee789627d7c321dcdee5b2ae1c4e939268ede370b65bf8b2f64b85741843a01dcc4de8dec75d7aab85b567b6ccd41ad312451b948a7413f0a142fd40d49347942adc25665018aa1fe0e6bc666dac8fc2697ff9baa08744b82458006c99a647f2d1c6ba897ac2520901b24036fe6c9bb27cce55cbf9a084e5036f9cf532e8fbf3c0ac0355c029f4837793e32be7bf51262adb82d6fcaaa06fec0af1e815fa520bffc98508cae185ef873eea55e7aee683013f8bdcb83ca7b90100000000000000000000000000000000000000000000000000000000000000000000000000000000000000000000000000000000000000000000000000000000000000000000000000000000000000000000000000000000000000000000000000000000000000000000000000000000000000000000000000000000000000000000000000000000000000000000000000000000000000000000000000000000000000000000000000000000000000000000000000000000000000000000000000000000000000000000000000000000000000000000000000000000000000000000000000000000000000000000000000000000000000000000000000000000008302000001887fffffffffffffff836501ca8203e880a087db3ffab43b215bad5bb00b89f120200feaacc6a23a92ee22b87b0c289902308831c3b3a447725c46f867f8658001887ffffffffffffff094a00000000000000000000000000000000000000080801ca031bd4c1d75c2daa04386e8431dc78f8e93a10c07927898061e4f188dcea8e708a008afbb59317063ad40204147fb0e6d640f2a055b58fffc1d85ec248265a7bb54c0",
                "transactions" : [
                    {
                        "data" : "",
                        "gasLimit" : "0x7ffffffffffffff0",
                        "gasPrice" : "0x01",
                        "nonce" : "0x00",
                        "r" : "0x31bd4c1d75c2daa04386e8431dc78f8e93a10c07927898061e4f188dcea8e708",
                        "s" : "0x08afbb59317063ad40204147fb0e6d640f2a055b58fffc1d85ec248265a7bb54",
                        "to" : "0xa000000000000000000000000000000000000000",
                        "v" : "0x1c",
                        "value" : "0x00"
                    }
                ],
                "uncleHeaders" : [
                ]
            }
        ],
        "genesisBlockHeader" : {
            "bloom" : "0x00000000000000000000000000000000000000000000000000000000000000000000000000000000000000000000000000000000000000000000000000000000000000000000000000000000000000000000000000000000000000000000000000000000000000000000000000000000000000000000000000000000000000000000000000000000000000000000000000000000000000000000000000000000000000000000000000000000000000000000000000000000000000000000000000000000000000000000000000000000000000000000000000000000000000000000000000000000000000000000000000000000000000000000000000000000",
            "coinbase" : "0x2adc25665018aa1fe0e6bc666dac8fc2697ff9ba",
            "difficulty" : "0x020000",
            "extraData" : "0x42",
            "gasLimit" : "0x7fffffffffffffff",
            "gasUsed" : "0x00",
            "hash" : "0x9b82ee789627d7c321dcdee5b2ae1c4e939268ede370b65bf8b2f64b85741843",
            "mixHash" : "0x56e81f171bcc55a6ff8345e692c0f86e5b48e01b996cadc001622fb5e363b421",
            "nonce" : "0x0102030405060708",
            "number" : "0x00",
            "parentHash" : "0x0000000000000000000000000000000000000000000000000000000000000000",
            "receiptTrie" : "0x56e81f171bcc55a6ff8345e692c0f86e5b48e01b996cadc001622fb5e363b421",
            "stateRoot" : "0x490f610945243ceb19ca3ffff579bb1f53a163a88f1f329ad744e0b5a3eac54a",
            "timestamp" : "0x03b6",
            "transactionsTrie" : "0x56e81f171bcc55a6ff8345e692c0f86e5b48e01b996cadc001622fb5e363b421",
            "uncleHash" : "0x1dcc4de8dec75d7aab85b567b6ccd41ad312451b948a7413f0a142fd40d49347"
        },
        "genesisRLP" : "0xf901fff901faa00000000000000000000000000000000000000000000000000000000000000000a01dcc4de8dec75d7aab85b567b6ccd41ad312451b948a7413f0a142fd40d49347942adc25665018aa1fe0e6bc666dac8fc2697ff9baa0490f610945243ceb19ca3ffff579bb1f53a163a88f1f329ad744e0b5a3eac54aa056e81f171bcc55a6ff8345e692c0f86e5b48e01b996cadc001622fb5e363b421a056e81f171bcc55a6ff8345e692c0f86e5b48e01b996cadc001622fb5e363b421b90100000000000000000000000000000000000000000000000000000000000000000000000000000000000000000000000000000000000000000000000000000000000000000000000000000000000000000000000000000000000000000000000000000000000000000000000000000000000000000000000000000000000000000000000000000000000000000000000000000000000000000000000000000000000000000000000000000000000000000000000000000000000000000000000000000000000000000000000000000000000000000000000000000000000000000000000000000000000000000000000000000000000000000000000000000000008302000080887fffffffffffffff808203b642a056e81f171bcc55a6ff8345e692c0f86e5b48e01b996cadc001622fb5e363b421880102030405060708c0c0",
        "lastblockhash" : "0xf054d70bc8d1018f1439640b43117ce1e41a09e3cf15763d88c56ced601bcf88",
        "network" : "EIP150",
        "postState" : {
            "0x2adc25665018aa1fe0e6bc666dac8fc2697ff9ba" : {
                "balance" : "0x45639182455901ca",
                "code" : "",
                "nonce" : "0x00",
                "storage" : {
                }
            },
            "0x7db299e0885c85039f56fa504a13dd8ce8a56aa7" : {
                "balance" : "0x01",
                "code" : "",
                "nonce" : "0x01",
                "storage" : {
                }
            },
            "0xa000000000000000000000000000000000000000" : {
                "balance" : "0x07",
                "code" : "0x6103fe60005414603f576001600054016000556000600060006000600073a0000000000000000000000000000000000000005af15061041a600054106053575b66600060006002f0600052600760196003f0505b",
                "nonce" : "0x01",
                "storage" : {
                    "0x00" : "0x03fe"
                }
            },
            "0xa94f5374fce5edbc8e2a8697c15331677e6ebf0b" : {
                "balance" : "0x13426172c74d822b878fe7ff9afe36",
                "code" : "",
                "nonce" : "0x01",
                "storage" : {
                }
            },
            "0xee66c46a9df8ee90ba0f904f85ed2eb4fdbd66df" : {
                "balance" : "0x02",
                "code" : "",
                "nonce" : "0x00",
                "storage" : {
                }
            }
        },
        "pre" : {
            "0xa000000000000000000000000000000000000000" : {
                "balance" : "0x0a",
                "code" : "0x6103fe60005414603f576001600054016000556000600060006000600073a0000000000000000000000000000000000000005af15061041a600054106053575b66600060006002f0600052600760196003f0505b",
                "nonce" : "0x00",
                "storage" : {
                }
            },
            "0xa94f5374fce5edbc8e2a8697c15331677e6ebf0b" : {
                "balance" : "0x13426172c74d822b878fe800000000",
                "code" : "",
                "nonce" : "0x00",
                "storage" : {
                }
            }
        }
    },
    "LoopCallsDepthThenRevert3_d0g0v0_EIP158" : {
        "_info" : {
            "comment" : "",
            "filledwith" : "cpp-1.3.0+commit.6e0ce939.Linux.g++",
            "lllcversion" : "Version: 0.4.18-develop.2017.9.25+commit.a72237f2.Linux.g++",
            "source" : "src/BlockchainTestsFiller/GeneralStateTests/stRevertTest/LoopCallsDepthThenRevert3_d0g0v0Filler.json",
            "sourceHash" : "5be1e9deb2ca7efced2344c2ea720535a499e2e75a6553542d2defcb89e08e44"
        },
        "blocks" : [
            {
                "blockHeader" : {
                    "bloom" : "0x00000000000000000000000000000000000000000000000000000000000000000000000000000000000000000000000000000000000000000000000000000000000000000000000000000000000000000000000000000000000000000000000000000000000000000000000000000000000000000000000000000000000000000000000000000000000000000000000000000000000000000000000000000000000000000000000000000000000000000000000000000000000000000000000000000000000000000000000000000000000000000000000000000000000000000000000000000000000000000000000000000000000000000000000000000000",
                    "coinbase" : "0x2adc25665018aa1fe0e6bc666dac8fc2697ff9ba",
                    "difficulty" : "0x020000",
                    "extraData" : "",
                    "gasLimit" : "0x7fffffffffffffff",
                    "gasUsed" : "0x6501ca",
                    "hash" : "0x8e2894fc7b85790a1406b1548ceef13a685b5747bae4e14b1a0e3c8b2d88f4e8",
                    "mixHash" : "0xdc484761490b982f283b817ec6891ba2d49278409ab5f77f825668c206a317fe",
                    "nonce" : "0x7658695ae1de788f",
                    "number" : "0x01",
                    "parentHash" : "0x9b82ee789627d7c321dcdee5b2ae1c4e939268ede370b65bf8b2f64b85741843",
                    "receiptTrie" : "0x2123a61a97b578e06365f4b1317f3c9e8edc1e7be6c7d5e3ce9cc4ddb2646892",
                    "stateRoot" : "0xf59604f358d760ee40d763a2b218845aca03c7551eef22b8fc669e848ebdc7f6",
                    "timestamp" : "0x03e8",
                    "transactionsTrie" : "0x84e5036f9cf532e8fbf3c0ac0355c029f4837793e32be7bf51262adb82d6fcaa",
                    "uncleHash" : "0x1dcc4de8dec75d7aab85b567b6ccd41ad312451b948a7413f0a142fd40d49347"
                },
                "rlp" : "0xf9026af901fda09b82ee789627d7c321dcdee5b2ae1c4e939268ede370b65bf8b2f64b85741843a01dcc4de8dec75d7aab85b567b6ccd41ad312451b948a7413f0a142fd40d49347942adc25665018aa1fe0e6bc666dac8fc2697ff9baa0f59604f358d760ee40d763a2b218845aca03c7551eef22b8fc669e848ebdc7f6a084e5036f9cf532e8fbf3c0ac0355c029f4837793e32be7bf51262adb82d6fcaaa02123a61a97b578e06365f4b1317f3c9e8edc1e7be6c7d5e3ce9cc4ddb2646892b90100000000000000000000000000000000000000000000000000000000000000000000000000000000000000000000000000000000000000000000000000000000000000000000000000000000000000000000000000000000000000000000000000000000000000000000000000000000000000000000000000000000000000000000000000000000000000000000000000000000000000000000000000000000000000000000000000000000000000000000000000000000000000000000000000000000000000000000000000000000000000000000000000000000000000000000000000000000000000000000000000000000000000000000000000000000008302000001887fffffffffffffff836501ca8203e880a0dc484761490b982f283b817ec6891ba2d49278409ab5f77f825668c206a317fe887658695ae1de788ff867f8658001887ffffffffffffff094a00000000000000000000000000000000000000080801ca031bd4c1d75c2daa04386e8431dc78f8e93a10c07927898061e4f188dcea8e708a008afbb59317063ad40204147fb0e6d640f2a055b58fffc1d85ec248265a7bb54c0",
                "transactions" : [
                    {
                        "data" : "",
                        "gasLimit" : "0x7ffffffffffffff0",
                        "gasPrice" : "0x01",
                        "nonce" : "0x00",
                        "r" : "0x31bd4c1d75c2daa04386e8431dc78f8e93a10c07927898061e4f188dcea8e708",
                        "s" : "0x08afbb59317063ad40204147fb0e6d640f2a055b58fffc1d85ec248265a7bb54",
                        "to" : "0xa000000000000000000000000000000000000000",
                        "v" : "0x1c",
                        "value" : "0x00"
                    }
                ],
                "uncleHeaders" : [
                ]
            }
        ],
        "genesisBlockHeader" : {
            "bloom" : "0x00000000000000000000000000000000000000000000000000000000000000000000000000000000000000000000000000000000000000000000000000000000000000000000000000000000000000000000000000000000000000000000000000000000000000000000000000000000000000000000000000000000000000000000000000000000000000000000000000000000000000000000000000000000000000000000000000000000000000000000000000000000000000000000000000000000000000000000000000000000000000000000000000000000000000000000000000000000000000000000000000000000000000000000000000000000",
            "coinbase" : "0x2adc25665018aa1fe0e6bc666dac8fc2697ff9ba",
            "difficulty" : "0x020000",
            "extraData" : "0x42",
            "gasLimit" : "0x7fffffffffffffff",
            "gasUsed" : "0x00",
            "hash" : "0x9b82ee789627d7c321dcdee5b2ae1c4e939268ede370b65bf8b2f64b85741843",
            "mixHash" : "0x56e81f171bcc55a6ff8345e692c0f86e5b48e01b996cadc001622fb5e363b421",
            "nonce" : "0x0102030405060708",
            "number" : "0x00",
            "parentHash" : "0x0000000000000000000000000000000000000000000000000000000000000000",
            "receiptTrie" : "0x56e81f171bcc55a6ff8345e692c0f86e5b48e01b996cadc001622fb5e363b421",
            "stateRoot" : "0x490f610945243ceb19ca3ffff579bb1f53a163a88f1f329ad744e0b5a3eac54a",
            "timestamp" : "0x03b6",
            "transactionsTrie" : "0x56e81f171bcc55a6ff8345e692c0f86e5b48e01b996cadc001622fb5e363b421",
            "uncleHash" : "0x1dcc4de8dec75d7aab85b567b6ccd41ad312451b948a7413f0a142fd40d49347"
        },
        "genesisRLP" : "0xf901fff901faa00000000000000000000000000000000000000000000000000000000000000000a01dcc4de8dec75d7aab85b567b6ccd41ad312451b948a7413f0a142fd40d49347942adc25665018aa1fe0e6bc666dac8fc2697ff9baa0490f610945243ceb19ca3ffff579bb1f53a163a88f1f329ad744e0b5a3eac54aa056e81f171bcc55a6ff8345e692c0f86e5b48e01b996cadc001622fb5e363b421a056e81f171bcc55a6ff8345e692c0f86e5b48e01b996cadc001622fb5e363b421b90100000000000000000000000000000000000000000000000000000000000000000000000000000000000000000000000000000000000000000000000000000000000000000000000000000000000000000000000000000000000000000000000000000000000000000000000000000000000000000000000000000000000000000000000000000000000000000000000000000000000000000000000000000000000000000000000000000000000000000000000000000000000000000000000000000000000000000000000000000000000000000000000000000000000000000000000000000000000000000000000000000000000000000000000000000000008302000080887fffffffffffffff808203b642a056e81f171bcc55a6ff8345e692c0f86e5b48e01b996cadc001622fb5e363b421880102030405060708c0c0",
        "lastblockhash" : "0x8e2894fc7b85790a1406b1548ceef13a685b5747bae4e14b1a0e3c8b2d88f4e8",
        "network" : "EIP158",
        "postState" : {
            "0x2adc25665018aa1fe0e6bc666dac8fc2697ff9ba" : {
                "balance" : "0x45639182455901ca",
                "code" : "",
                "nonce" : "0x00",
                "storage" : {
                }
            },
            "0x7db299e0885c85039f56fa504a13dd8ce8a56aa7" : {
                "balance" : "0x01",
                "code" : "",
                "nonce" : "0x02",
                "storage" : {
                }
            },
            "0xa000000000000000000000000000000000000000" : {
                "balance" : "0x07",
                "code" : "0x6103fe60005414603f576001600054016000556000600060006000600073a0000000000000000000000000000000000000005af15061041a600054106053575b66600060006002f0600052600760196003f0505b",
                "nonce" : "0x01",
                "storage" : {
                    "0x00" : "0x03fe"
                }
            },
            "0xa94f5374fce5edbc8e2a8697c15331677e6ebf0b" : {
                "balance" : "0x13426172c74d822b878fe7ff9afe36",
                "code" : "",
                "nonce" : "0x01",
                "storage" : {
                }
            },
            "0xcd6807039caffddbd1c28a749ec91bef15f448e5" : {
                "balance" : "0x02",
                "code" : "",
                "nonce" : "0x01",
                "storage" : {
                }
            }
        },
        "pre" : {
            "0xa000000000000000000000000000000000000000" : {
                "balance" : "0x0a",
                "code" : "0x6103fe60005414603f576001600054016000556000600060006000600073a0000000000000000000000000000000000000005af15061041a600054106053575b66600060006002f0600052600760196003f0505b",
                "nonce" : "0x00",
                "storage" : {
                }
            },
            "0xa94f5374fce5edbc8e2a8697c15331677e6ebf0b" : {
                "balance" : "0x13426172c74d822b878fe800000000",
                "code" : "",
                "nonce" : "0x00",
                "storage" : {
                }
            }
        }
    },
    "LoopCallsDepthThenRevert3_d0g0v0_Frontier" : {
        "_info" : {
            "comment" : "",
            "filledwith" : "cpp-1.3.0+commit.6e0ce939.Linux.g++",
            "lllcversion" : "Version: 0.4.18-develop.2017.9.25+commit.a72237f2.Linux.g++",
            "source" : "src/BlockchainTestsFiller/GeneralStateTests/stRevertTest/LoopCallsDepthThenRevert3_d0g0v0Filler.json",
            "sourceHash" : "5be1e9deb2ca7efced2344c2ea720535a499e2e75a6553542d2defcb89e08e44"
        },
        "blocks" : [
            {
                "blockHeader" : {
                    "bloom" : "0x00000000000000000000000000000000000000000000000000000000000000000000000000000000000000000000000000000000000000000000000000000000000000000000000000000000000000000000000000000000000000000000000000000000000000000000000000000000000000000000000000000000000000000000000000000000000000000000000000000000000000000000000000000000000000000000000000000000000000000000000000000000000000000000000000000000000000000000000000000000000000000000000000000000000000000000000000000000000000000000000000000000000000000000000000000000",
                    "coinbase" : "0x2adc25665018aa1fe0e6bc666dac8fc2697ff9ba",
                    "difficulty" : "0x020000",
                    "extraData" : "",
                    "gasLimit" : "0x7fffffffffffffff",
                    "gasUsed" : "0x7ffffffffffffff0",
                    "hash" : "0xbc14b8b756e06f1640ded20f5da3a4ad1c0fea441efefd1dfd1c95f95b2cb5fd",
                    "mixHash" : "0x25bee0c8ec3ebd01ea7dcc8e37f4abf9849a002b47c7afdfbe99ed5d2bbdf973",
                    "nonce" : "0xc99c26c6a1de5131",
                    "number" : "0x01",
                    "parentHash" : "0x9b82ee789627d7c321dcdee5b2ae1c4e939268ede370b65bf8b2f64b85741843",
                    "receiptTrie" : "0xad1b89fb49bf92cc5b8d2ccbae3abba55d22276813e626da77c1120c56765ba5",
                    "stateRoot" : "0x1490112ba8faa110806a82628ee2fa4ed5fc07094cfafe76506320f7bfc38716",
                    "timestamp" : "0x03e8",
                    "transactionsTrie" : "0x84e5036f9cf532e8fbf3c0ac0355c029f4837793e32be7bf51262adb82d6fcaa",
                    "uncleHash" : "0x1dcc4de8dec75d7aab85b567b6ccd41ad312451b948a7413f0a142fd40d49347"
                },
                "rlp" : "0xf9026ff90202a09b82ee789627d7c321dcdee5b2ae1c4e939268ede370b65bf8b2f64b85741843a01dcc4de8dec75d7aab85b567b6ccd41ad312451b948a7413f0a142fd40d49347942adc25665018aa1fe0e6bc666dac8fc2697ff9baa01490112ba8faa110806a82628ee2fa4ed5fc07094cfafe76506320f7bfc38716a084e5036f9cf532e8fbf3c0ac0355c029f4837793e32be7bf51262adb82d6fcaaa0ad1b89fb49bf92cc5b8d2ccbae3abba55d22276813e626da77c1120c56765ba5b90100000000000000000000000000000000000000000000000000000000000000000000000000000000000000000000000000000000000000000000000000000000000000000000000000000000000000000000000000000000000000000000000000000000000000000000000000000000000000000000000000000000000000000000000000000000000000000000000000000000000000000000000000000000000000000000000000000000000000000000000000000000000000000000000000000000000000000000000000000000000000000000000000000000000000000000000000000000000000000000000000000000000000000000000000000000008302000001887fffffffffffffff887ffffffffffffff08203e880a025bee0c8ec3ebd01ea7dcc8e37f4abf9849a002b47c7afdfbe99ed5d2bbdf97388c99c26c6a1de5131f867f8658001887ffffffffffffff094a00000000000000000000000000000000000000080801ca031bd4c1d75c2daa04386e8431dc78f8e93a10c07927898061e4f188dcea8e708a008afbb59317063ad40204147fb0e6d640f2a055b58fffc1d85ec248265a7bb54c0",
                "transactions" : [
                    {
                        "data" : "",
                        "gasLimit" : "0x7ffffffffffffff0",
                        "gasPrice" : "0x01",
                        "nonce" : "0x00",
                        "r" : "0x31bd4c1d75c2daa04386e8431dc78f8e93a10c07927898061e4f188dcea8e708",
                        "s" : "0x08afbb59317063ad40204147fb0e6d640f2a055b58fffc1d85ec248265a7bb54",
                        "to" : "0xa000000000000000000000000000000000000000",
                        "v" : "0x1c",
                        "value" : "0x00"
                    }
                ],
                "uncleHeaders" : [
                ]
            }
        ],
        "genesisBlockHeader" : {
            "bloom" : "0x00000000000000000000000000000000000000000000000000000000000000000000000000000000000000000000000000000000000000000000000000000000000000000000000000000000000000000000000000000000000000000000000000000000000000000000000000000000000000000000000000000000000000000000000000000000000000000000000000000000000000000000000000000000000000000000000000000000000000000000000000000000000000000000000000000000000000000000000000000000000000000000000000000000000000000000000000000000000000000000000000000000000000000000000000000000",
            "coinbase" : "0x2adc25665018aa1fe0e6bc666dac8fc2697ff9ba",
            "difficulty" : "0x020000",
            "extraData" : "0x42",
            "gasLimit" : "0x7fffffffffffffff",
            "gasUsed" : "0x00",
            "hash" : "0x9b82ee789627d7c321dcdee5b2ae1c4e939268ede370b65bf8b2f64b85741843",
            "mixHash" : "0x56e81f171bcc55a6ff8345e692c0f86e5b48e01b996cadc001622fb5e363b421",
            "nonce" : "0x0102030405060708",
            "number" : "0x00",
            "parentHash" : "0x0000000000000000000000000000000000000000000000000000000000000000",
            "receiptTrie" : "0x56e81f171bcc55a6ff8345e692c0f86e5b48e01b996cadc001622fb5e363b421",
            "stateRoot" : "0x490f610945243ceb19ca3ffff579bb1f53a163a88f1f329ad744e0b5a3eac54a",
            "timestamp" : "0x03b6",
            "transactionsTrie" : "0x56e81f171bcc55a6ff8345e692c0f86e5b48e01b996cadc001622fb5e363b421",
            "uncleHash" : "0x1dcc4de8dec75d7aab85b567b6ccd41ad312451b948a7413f0a142fd40d49347"
        },
        "genesisRLP" : "0xf901fff901faa00000000000000000000000000000000000000000000000000000000000000000a01dcc4de8dec75d7aab85b567b6ccd41ad312451b948a7413f0a142fd40d49347942adc25665018aa1fe0e6bc666dac8fc2697ff9baa0490f610945243ceb19ca3ffff579bb1f53a163a88f1f329ad744e0b5a3eac54aa056e81f171bcc55a6ff8345e692c0f86e5b48e01b996cadc001622fb5e363b421a056e81f171bcc55a6ff8345e692c0f86e5b48e01b996cadc001622fb5e363b421b90100000000000000000000000000000000000000000000000000000000000000000000000000000000000000000000000000000000000000000000000000000000000000000000000000000000000000000000000000000000000000000000000000000000000000000000000000000000000000000000000000000000000000000000000000000000000000000000000000000000000000000000000000000000000000000000000000000000000000000000000000000000000000000000000000000000000000000000000000000000000000000000000000000000000000000000000000000000000000000000000000000000000000000000000000000000008302000080887fffffffffffffff808203b642a056e81f171bcc55a6ff8345e692c0f86e5b48e01b996cadc001622fb5e363b421880102030405060708c0c0",
        "lastblockhash" : "0xbc14b8b756e06f1640ded20f5da3a4ad1c0fea441efefd1dfd1c95f95b2cb5fd",
        "network" : "Frontier",
        "postState" : {
            "0x2adc25665018aa1fe0e6bc666dac8fc2697ff9ba" : {
                "balance" : "0xc563918244f3fff0",
                "code" : "",
                "nonce" : "0x00",
                "storage" : {
                }
            },
            "0xa000000000000000000000000000000000000000" : {
                "balance" : "0x0a",
                "code" : "0x6103fe60005414603f576001600054016000556000600060006000600073a0000000000000000000000000000000000000005af15061041a600054106053575b66600060006002f0600052600760196003f0505b",
                "nonce" : "0x00",
                "storage" : {
                }
            },
            "0xa94f5374fce5edbc8e2a8697c15331677e6ebf0b" : {
                "balance" : "0x13426172c74d81ab878fe800000010",
                "code" : "",
                "nonce" : "0x01",
                "storage" : {
                }
            }
        },
        "pre" : {
            "0xa000000000000000000000000000000000000000" : {
                "balance" : "0x0a",
                "code" : "0x6103fe60005414603f576001600054016000556000600060006000600073a0000000000000000000000000000000000000005af15061041a600054106053575b66600060006002f0600052600760196003f0505b",
                "nonce" : "0x00",
                "storage" : {
                }
            },
            "0xa94f5374fce5edbc8e2a8697c15331677e6ebf0b" : {
                "balance" : "0x13426172c74d822b878fe800000000",
                "code" : "",
                "nonce" : "0x00",
                "storage" : {
                }
            }
        }
    },
    "LoopCallsDepthThenRevert3_d0g0v0_Homestead" : {
        "_info" : {
            "comment" : "",
            "filledwith" : "cpp-1.3.0+commit.6e0ce939.Linux.g++",
            "lllcversion" : "Version: 0.4.18-develop.2017.9.25+commit.a72237f2.Linux.g++",
            "source" : "src/BlockchainTestsFiller/GeneralStateTests/stRevertTest/LoopCallsDepthThenRevert3_d0g0v0Filler.json",
            "sourceHash" : "5be1e9deb2ca7efced2344c2ea720535a499e2e75a6553542d2defcb89e08e44"
        },
        "blocks" : [
            {
                "blockHeader" : {
                    "bloom" : "0x00000000000000000000000000000000000000000000000000000000000000000000000000000000000000000000000000000000000000000000000000000000000000000000000000000000000000000000000000000000000000000000000000000000000000000000000000000000000000000000000000000000000000000000000000000000000000000000000000000000000000000000000000000000000000000000000000000000000000000000000000000000000000000000000000000000000000000000000000000000000000000000000000000000000000000000000000000000000000000000000000000000000000000000000000000000",
                    "coinbase" : "0x2adc25665018aa1fe0e6bc666dac8fc2697ff9ba",
                    "difficulty" : "0x020000",
                    "extraData" : "",
                    "gasLimit" : "0x7fffffffffffffff",
                    "gasUsed" : "0x7ffffffffffffff0",
                    "hash" : "0xbdf42d499847fa110c4b267c881f6e3fc875b609ba775a1104ca94cb874f4055",
                    "mixHash" : "0xd98d69af6d38d6c3d1f743de933de81b3ee46d6cdf7ef902f8e457e48ca9b978",
                    "nonce" : "0x4b890127e51bae9e",
                    "number" : "0x01",
                    "parentHash" : "0x9b82ee789627d7c321dcdee5b2ae1c4e939268ede370b65bf8b2f64b85741843",
                    "receiptTrie" : "0xad1b89fb49bf92cc5b8d2ccbae3abba55d22276813e626da77c1120c56765ba5",
                    "stateRoot" : "0x1490112ba8faa110806a82628ee2fa4ed5fc07094cfafe76506320f7bfc38716",
                    "timestamp" : "0x03e8",
                    "transactionsTrie" : "0x84e5036f9cf532e8fbf3c0ac0355c029f4837793e32be7bf51262adb82d6fcaa",
                    "uncleHash" : "0x1dcc4de8dec75d7aab85b567b6ccd41ad312451b948a7413f0a142fd40d49347"
                },
                "rlp" : "0xf9026ff90202a09b82ee789627d7c321dcdee5b2ae1c4e939268ede370b65bf8b2f64b85741843a01dcc4de8dec75d7aab85b567b6ccd41ad312451b948a7413f0a142fd40d49347942adc25665018aa1fe0e6bc666dac8fc2697ff9baa01490112ba8faa110806a82628ee2fa4ed5fc07094cfafe76506320f7bfc38716a084e5036f9cf532e8fbf3c0ac0355c029f4837793e32be7bf51262adb82d6fcaaa0ad1b89fb49bf92cc5b8d2ccbae3abba55d22276813e626da77c1120c56765ba5b90100000000000000000000000000000000000000000000000000000000000000000000000000000000000000000000000000000000000000000000000000000000000000000000000000000000000000000000000000000000000000000000000000000000000000000000000000000000000000000000000000000000000000000000000000000000000000000000000000000000000000000000000000000000000000000000000000000000000000000000000000000000000000000000000000000000000000000000000000000000000000000000000000000000000000000000000000000000000000000000000000000000000000000000000000000000008302000001887fffffffffffffff887ffffffffffffff08203e880a0d98d69af6d38d6c3d1f743de933de81b3ee46d6cdf7ef902f8e457e48ca9b978884b890127e51bae9ef867f8658001887ffffffffffffff094a00000000000000000000000000000000000000080801ca031bd4c1d75c2daa04386e8431dc78f8e93a10c07927898061e4f188dcea8e708a008afbb59317063ad40204147fb0e6d640f2a055b58fffc1d85ec248265a7bb54c0",
                "transactions" : [
                    {
                        "data" : "",
                        "gasLimit" : "0x7ffffffffffffff0",
                        "gasPrice" : "0x01",
                        "nonce" : "0x00",
                        "r" : "0x31bd4c1d75c2daa04386e8431dc78f8e93a10c07927898061e4f188dcea8e708",
                        "s" : "0x08afbb59317063ad40204147fb0e6d640f2a055b58fffc1d85ec248265a7bb54",
                        "to" : "0xa000000000000000000000000000000000000000",
                        "v" : "0x1c",
                        "value" : "0x00"
                    }
                ],
                "uncleHeaders" : [
                ]
            }
        ],
        "genesisBlockHeader" : {
            "bloom" : "0x00000000000000000000000000000000000000000000000000000000000000000000000000000000000000000000000000000000000000000000000000000000000000000000000000000000000000000000000000000000000000000000000000000000000000000000000000000000000000000000000000000000000000000000000000000000000000000000000000000000000000000000000000000000000000000000000000000000000000000000000000000000000000000000000000000000000000000000000000000000000000000000000000000000000000000000000000000000000000000000000000000000000000000000000000000000",
            "coinbase" : "0x2adc25665018aa1fe0e6bc666dac8fc2697ff9ba",
            "difficulty" : "0x020000",
            "extraData" : "0x42",
            "gasLimit" : "0x7fffffffffffffff",
            "gasUsed" : "0x00",
            "hash" : "0x9b82ee789627d7c321dcdee5b2ae1c4e939268ede370b65bf8b2f64b85741843",
            "mixHash" : "0x56e81f171bcc55a6ff8345e692c0f86e5b48e01b996cadc001622fb5e363b421",
            "nonce" : "0x0102030405060708",
            "number" : "0x00",
            "parentHash" : "0x0000000000000000000000000000000000000000000000000000000000000000",
            "receiptTrie" : "0x56e81f171bcc55a6ff8345e692c0f86e5b48e01b996cadc001622fb5e363b421",
            "stateRoot" : "0x490f610945243ceb19ca3ffff579bb1f53a163a88f1f329ad744e0b5a3eac54a",
            "timestamp" : "0x03b6",
            "transactionsTrie" : "0x56e81f171bcc55a6ff8345e692c0f86e5b48e01b996cadc001622fb5e363b421",
            "uncleHash" : "0x1dcc4de8dec75d7aab85b567b6ccd41ad312451b948a7413f0a142fd40d49347"
        },
        "genesisRLP" : "0xf901fff901faa00000000000000000000000000000000000000000000000000000000000000000a01dcc4de8dec75d7aab85b567b6ccd41ad312451b948a7413f0a142fd40d49347942adc25665018aa1fe0e6bc666dac8fc2697ff9baa0490f610945243ceb19ca3ffff579bb1f53a163a88f1f329ad744e0b5a3eac54aa056e81f171bcc55a6ff8345e692c0f86e5b48e01b996cadc001622fb5e363b421a056e81f171bcc55a6ff8345e692c0f86e5b48e01b996cadc001622fb5e363b421b90100000000000000000000000000000000000000000000000000000000000000000000000000000000000000000000000000000000000000000000000000000000000000000000000000000000000000000000000000000000000000000000000000000000000000000000000000000000000000000000000000000000000000000000000000000000000000000000000000000000000000000000000000000000000000000000000000000000000000000000000000000000000000000000000000000000000000000000000000000000000000000000000000000000000000000000000000000000000000000000000000000000000000000000000000000000008302000080887fffffffffffffff808203b642a056e81f171bcc55a6ff8345e692c0f86e5b48e01b996cadc001622fb5e363b421880102030405060708c0c0",
        "lastblockhash" : "0xbdf42d499847fa110c4b267c881f6e3fc875b609ba775a1104ca94cb874f4055",
        "network" : "Homestead",
        "postState" : {
            "0x2adc25665018aa1fe0e6bc666dac8fc2697ff9ba" : {
                "balance" : "0xc563918244f3fff0",
                "code" : "",
                "nonce" : "0x00",
                "storage" : {
                }
            },
            "0xa000000000000000000000000000000000000000" : {
                "balance" : "0x0a",
                "code" : "0x6103fe60005414603f576001600054016000556000600060006000600073a0000000000000000000000000000000000000005af15061041a600054106053575b66600060006002f0600052600760196003f0505b",
                "nonce" : "0x00",
                "storage" : {
                }
            },
            "0xa94f5374fce5edbc8e2a8697c15331677e6ebf0b" : {
                "balance" : "0x13426172c74d81ab878fe800000010",
                "code" : "",
                "nonce" : "0x01",
                "storage" : {
                }
            }
        },
        "pre" : {
            "0xa000000000000000000000000000000000000000" : {
                "balance" : "0x0a",
                "code" : "0x6103fe60005414603f576001600054016000556000600060006000600073a0000000000000000000000000000000000000005af15061041a600054106053575b66600060006002f0600052600760196003f0505b",
                "nonce" : "0x00",
                "storage" : {
                }
            },
            "0xa94f5374fce5edbc8e2a8697c15331677e6ebf0b" : {
                "balance" : "0x13426172c74d822b878fe800000000",
                "code" : "",
                "nonce" : "0x00",
                "storage" : {
                }
            }
        }
    }
}