{
    "RevertOpcodeInInit_d0g0v1_Byzantium" : {
        "_info" : {
            "comment" : "",
            "filledwith" : "cpp-1.3.0+commit.6e0ce939.Linux.g++",
            "lllcversion" : "Version: 0.4.18-develop.2017.9.25+commit.a72237f2.Linux.g++",
            "source" : "src/BlockchainTestsFiller/GeneralStateTests/stRevertTest/RevertOpcodeInInit_d0g0v1Filler.json",
            "sourceHash" : "b724e26ff0cdf65d0358f7532a3de0afc2ca3ee9cfaecb35eb80e2fc8b3f9e7d"
        },
        "blocks" : [
            {
                "blockHeader" : {
                    "bloom" : "0x00000000000000000000000000000000000000000000000000000000000000000000000000000000000000000000000000000000000000000000000000000000000000000000000000000000000000000000000000000000000000000000000000000000000000000000000000000000000000000000000000000000000000000000000000000000000000000000000000000000000000000000000000000000000000000000000000000000000000000000000000000000000000000000000000000000000000000000000000000000000000000000000000000000000000000000000000000000000000000000000000000000000000000000000000000000",
                    "coinbase" : "0x2adc25665018aa1fe0e6bc666dac8fc2697ff9ba",
                    "difficulty" : "0x020000",
                    "extraData" : "",
                    "gasLimit" : "0x989680",
                    "gasUsed" : "0x0120b3",
                    "hash" : "0x3561485fa424962661fccaa48a006e915cac54a79abdd0e60e43fbb456ecd520",
                    "mixHash" : "0x9fbb7ae665553e369b0de94b0d7703b99e735fe74cdc649e9b6c0617f335985f",
                    "nonce" : "0x22981c62969c1525",
                    "number" : "0x01",
                    "parentHash" : "0x35095b1590cfa9eed610b5b60904000ac9a8448da13600b40cc80c26458e7326",
                    "receiptTrie" : "0x055639b53c7883180bc32e4abeabb9e350ca2ee46a3c0801c95078756ce711ab",
                    "stateRoot" : "0x9d7fa970c871d1d020fd91947ec237d94ea511ee29626925517feddcf03a6f41",
                    "timestamp" : "0x03e8",
                    "transactionsTrie" : "0xd18817373e68a1693cb973d6765a349be7df4dce8569c560fb7060c7229e5085",
                    "uncleHash" : "0x1dcc4de8dec75d7aab85b567b6ccd41ad312451b948a7413f0a142fd40d49347"
                },
                "rlp" : "0xf9025bf901f8a035095b1590cfa9eed610b5b60904000ac9a8448da13600b40cc80c26458e7326a01dcc4de8dec75d7aab85b567b6ccd41ad312451b948a7413f0a142fd40d49347942adc25665018aa1fe0e6bc666dac8fc2697ff9baa09d7fa970c871d1d020fd91947ec237d94ea511ee29626925517feddcf03a6f41a0d18817373e68a1693cb973d6765a349be7df4dce8569c560fb7060c7229e5085a0055639b53c7883180bc32e4abeabb9e350ca2ee46a3c0801c95078756ce711abb9010000000000000000000000000000000000000000000000000000000000000000000000000000000000000000000000000000000000000000000000000000000000000000000000000000000000000000000000000000000000000000000000000000000000000000000000000000000000000000000000000000000000000000000000000000000000000000000000000000000000000000000000000000000000000000000000000000000000000000000000000000000000000000000000000000000000000000000000000000000000000000000000000000000000000000000000000000000000000000000000000000000000000000000000000000000000830200000183989680830120b38203e880a09fbb7ae665553e369b0de94b0d7703b99e735fe74cdc649e9b6c0617f335985f8822981c62969c1525f85df85b800183027100800a8f600160005560016000fd60116001551ba0d9188f1761b592e3ef2bec1274fce9097a98ad729aaa61dd6bcc9ec4f13873f8a00cf76bad20f7f2e5824c68809ecdbc6cde5bb6086c7a2548c7e0e6d6949e032fc0",
                "transactions" : [
                    {
                        "data" : "0x600160005560016000fd6011600155",
                        "gasLimit" : "0x027100",
                        "gasPrice" : "0x01",
                        "nonce" : "0x00",
                        "r" : "0xd9188f1761b592e3ef2bec1274fce9097a98ad729aaa61dd6bcc9ec4f13873f8",
                        "s" : "0x0cf76bad20f7f2e5824c68809ecdbc6cde5bb6086c7a2548c7e0e6d6949e032f",
                        "to" : "",
                        "v" : "0x1b",
                        "value" : "0x0a"
                    }
                ],
                "uncleHeaders" : [
                ]
            }
        ],
        "genesisBlockHeader" : {
            "bloom" : "0x00000000000000000000000000000000000000000000000000000000000000000000000000000000000000000000000000000000000000000000000000000000000000000000000000000000000000000000000000000000000000000000000000000000000000000000000000000000000000000000000000000000000000000000000000000000000000000000000000000000000000000000000000000000000000000000000000000000000000000000000000000000000000000000000000000000000000000000000000000000000000000000000000000000000000000000000000000000000000000000000000000000000000000000000000000000",
            "coinbase" : "0x2adc25665018aa1fe0e6bc666dac8fc2697ff9ba",
            "difficulty" : "0x020000",
            "extraData" : "0x42",
            "gasLimit" : "0x989680",
            "gasUsed" : "0x00",
            "hash" : "0x35095b1590cfa9eed610b5b60904000ac9a8448da13600b40cc80c26458e7326",
            "mixHash" : "0x56e81f171bcc55a6ff8345e692c0f86e5b48e01b996cadc001622fb5e363b421",
            "nonce" : "0x0102030405060708",
            "number" : "0x00",
            "parentHash" : "0x0000000000000000000000000000000000000000000000000000000000000000",
            "receiptTrie" : "0x56e81f171bcc55a6ff8345e692c0f86e5b48e01b996cadc001622fb5e363b421",
            "stateRoot" : "0x17ca3d673553cbfcf5de4a99ea08088763bbf64aa67ae17a485f585bcc01d3f2",
            "timestamp" : "0x03b6",
            "transactionsTrie" : "0x56e81f171bcc55a6ff8345e692c0f86e5b48e01b996cadc001622fb5e363b421",
            "uncleHash" : "0x1dcc4de8dec75d7aab85b567b6ccd41ad312451b948a7413f0a142fd40d49347"
        },
        "genesisRLP" : "0xf901faf901f5a00000000000000000000000000000000000000000000000000000000000000000a01dcc4de8dec75d7aab85b567b6ccd41ad312451b948a7413f0a142fd40d49347942adc25665018aa1fe0e6bc666dac8fc2697ff9baa017ca3d673553cbfcf5de4a99ea08088763bbf64aa67ae17a485f585bcc01d3f2a056e81f171bcc55a6ff8345e692c0f86e5b48e01b996cadc001622fb5e363b421a056e81f171bcc55a6ff8345e692c0f86e5b48e01b996cadc001622fb5e363b421b9010000000000000000000000000000000000000000000000000000000000000000000000000000000000000000000000000000000000000000000000000000000000000000000000000000000000000000000000000000000000000000000000000000000000000000000000000000000000000000000000000000000000000000000000000000000000000000000000000000000000000000000000000000000000000000000000000000000000000000000000000000000000000000000000000000000000000000000000000000000000000000000000000000000000000000000000000000000000000000000000000000000000000000000000000000000000830200008083989680808203b642a056e81f171bcc55a6ff8345e692c0f86e5b48e01b996cadc001622fb5e363b421880102030405060708c0c0",
        "lastblockhash" : "0x3561485fa424962661fccaa48a006e915cac54a79abdd0e60e43fbb456ecd520",
        "network" : "Byzantium",
        "postState" : {
            "0x2adc25665018aa1fe0e6bc666dac8fc2697ff9ba" : {
                "balance" : "0x29a2241af62d20b3",
                "code" : "",
                "nonce" : "0x00",
                "storage" : {
                }
            },
            "0xa94f5374fce5edbc8e2a8697c15331677e6ebf0b" : {
                "balance" : "0xe8d4a3ef4d",
                "code" : "",
                "nonce" : "0x01",
                "storage" : {
                }
            }
        },
        "pre" : {
            "0xa94f5374fce5edbc8e2a8697c15331677e6ebf0b" : {
                "balance" : "0xe8d4a51000",
                "code" : "",
                "nonce" : "0x00",
                "storage" : {
                }
            }
        }
    },
    "RevertOpcodeInInit_d0g0v1_EIP150" : {
        "_info" : {
            "comment" : "",
            "filledwith" : "cpp-1.3.0+commit.6e0ce939.Linux.g++",
            "lllcversion" : "Version: 0.4.18-develop.2017.9.25+commit.a72237f2.Linux.g++",
            "source" : "src/BlockchainTestsFiller/GeneralStateTests/stRevertTest/RevertOpcodeInInit_d0g0v1Filler.json",
            "sourceHash" : "b724e26ff0cdf65d0358f7532a3de0afc2ca3ee9cfaecb35eb80e2fc8b3f9e7d"
        },
        "blocks" : [
            {
                "blockHeader" : {
                    "bloom" : "0x00000000000000000000000000000000000000000000000000000000000000000000000000000000000000000000000000000000000000000000000000000000000000000000000000000000000000000000000000000000000000000000000000000000000000000000000000000000000000000000000000000000000000000000000000000000000000000000000000000000000000000000000000000000000000000000000000000000000000000000000000000000000000000000000000000000000000000000000000000000000000000000000000000000000000000000000000000000000000000000000000000000000000000000000000000000",
                    "coinbase" : "0x2adc25665018aa1fe0e6bc666dac8fc2697ff9ba",
                    "difficulty" : "0x020000",
                    "extraData" : "",
                    "gasLimit" : "0x989680",
                    "gasUsed" : "0x027100",
                    "hash" : "0xa20f426196f7e94f20ac7517e1174420817474e0085edc95457e2782e9244604",
                    "mixHash" : "0xfc48c696c1913946f221660644a6bc41c303e8d916214155b8e2d8599279fefd",
                    "nonce" : "0x29f11a16089019bc",
                    "number" : "0x01",
                    "parentHash" : "0x35095b1590cfa9eed610b5b60904000ac9a8448da13600b40cc80c26458e7326",
                    "receiptTrie" : "0x46d07390d9e8ea20bb9c6105ec27fde5d2ade2708bd2e97f04ca44acbc63b003",
                    "stateRoot" : "0xff3084198410d872dedc1e4039cbea58fa883a5ca9a28700d2857b3f2711d9c9",
                    "timestamp" : "0x03e8",
                    "transactionsTrie" : "0xd18817373e68a1693cb973d6765a349be7df4dce8569c560fb7060c7229e5085",
                    "uncleHash" : "0x1dcc4de8dec75d7aab85b567b6ccd41ad312451b948a7413f0a142fd40d49347"
                },
                "rlp" : "0xf9025bf901f8a035095b1590cfa9eed610b5b60904000ac9a8448da13600b40cc80c26458e7326a01dcc4de8dec75d7aab85b567b6ccd41ad312451b948a7413f0a142fd40d49347942adc25665018aa1fe0e6bc666dac8fc2697ff9baa0ff3084198410d872dedc1e4039cbea58fa883a5ca9a28700d2857b3f2711d9c9a0d18817373e68a1693cb973d6765a349be7df4dce8569c560fb7060c7229e5085a046d07390d9e8ea20bb9c6105ec27fde5d2ade2708bd2e97f04ca44acbc63b003b9010000000000000000000000000000000000000000000000000000000000000000000000000000000000000000000000000000000000000000000000000000000000000000000000000000000000000000000000000000000000000000000000000000000000000000000000000000000000000000000000000000000000000000000000000000000000000000000000000000000000000000000000000000000000000000000000000000000000000000000000000000000000000000000000000000000000000000000000000000000000000000000000000000000000000000000000000000000000000000000000000000000000000000000000000000000000830200000183989680830271008203e880a0fc48c696c1913946f221660644a6bc41c303e8d916214155b8e2d8599279fefd8829f11a16089019bcf85df85b800183027100800a8f600160005560016000fd60116001551ba0d9188f1761b592e3ef2bec1274fce9097a98ad729aaa61dd6bcc9ec4f13873f8a00cf76bad20f7f2e5824c68809ecdbc6cde5bb6086c7a2548c7e0e6d6949e032fc0",
                "transactions" : [
                    {
                        "data" : "0x600160005560016000fd6011600155",
                        "gasLimit" : "0x027100",
                        "gasPrice" : "0x01",
                        "nonce" : "0x00",
                        "r" : "0xd9188f1761b592e3ef2bec1274fce9097a98ad729aaa61dd6bcc9ec4f13873f8",
                        "s" : "0x0cf76bad20f7f2e5824c68809ecdbc6cde5bb6086c7a2548c7e0e6d6949e032f",
                        "to" : "",
                        "v" : "0x1b",
                        "value" : "0x0a"
                    }
                ],
                "uncleHeaders" : [
                ]
            }
        ],
        "genesisBlockHeader" : {
            "bloom" : "0x00000000000000000000000000000000000000000000000000000000000000000000000000000000000000000000000000000000000000000000000000000000000000000000000000000000000000000000000000000000000000000000000000000000000000000000000000000000000000000000000000000000000000000000000000000000000000000000000000000000000000000000000000000000000000000000000000000000000000000000000000000000000000000000000000000000000000000000000000000000000000000000000000000000000000000000000000000000000000000000000000000000000000000000000000000000",
            "coinbase" : "0x2adc25665018aa1fe0e6bc666dac8fc2697ff9ba",
            "difficulty" : "0x020000",
            "extraData" : "0x42",
            "gasLimit" : "0x989680",
            "gasUsed" : "0x00",
            "hash" : "0x35095b1590cfa9eed610b5b60904000ac9a8448da13600b40cc80c26458e7326",
            "mixHash" : "0x56e81f171bcc55a6ff8345e692c0f86e5b48e01b996cadc001622fb5e363b421",
            "nonce" : "0x0102030405060708",
            "number" : "0x00",
            "parentHash" : "0x0000000000000000000000000000000000000000000000000000000000000000",
            "receiptTrie" : "0x56e81f171bcc55a6ff8345e692c0f86e5b48e01b996cadc001622fb5e363b421",
            "stateRoot" : "0x17ca3d673553cbfcf5de4a99ea08088763bbf64aa67ae17a485f585bcc01d3f2",
            "timestamp" : "0x03b6",
            "transactionsTrie" : "0x56e81f171bcc55a6ff8345e692c0f86e5b48e01b996cadc001622fb5e363b421",
            "uncleHash" : "0x1dcc4de8dec75d7aab85b567b6ccd41ad312451b948a7413f0a142fd40d49347"
        },
        "genesisRLP" : "0xf901faf901f5a00000000000000000000000000000000000000000000000000000000000000000a01dcc4de8dec75d7aab85b567b6ccd41ad312451b948a7413f0a142fd40d49347942adc25665018aa1fe0e6bc666dac8fc2697ff9baa017ca3d673553cbfcf5de4a99ea08088763bbf64aa67ae17a485f585bcc01d3f2a056e81f171bcc55a6ff8345e692c0f86e5b48e01b996cadc001622fb5e363b421a056e81f171bcc55a6ff8345e692c0f86e5b48e01b996cadc001622fb5e363b421b9010000000000000000000000000000000000000000000000000000000000000000000000000000000000000000000000000000000000000000000000000000000000000000000000000000000000000000000000000000000000000000000000000000000000000000000000000000000000000000000000000000000000000000000000000000000000000000000000000000000000000000000000000000000000000000000000000000000000000000000000000000000000000000000000000000000000000000000000000000000000000000000000000000000000000000000000000000000000000000000000000000000000000000000000000000000000830200008083989680808203b642a056e81f171bcc55a6ff8345e692c0f86e5b48e01b996cadc001622fb5e363b421880102030405060708c0c0",
        "lastblockhash" : "0xa20f426196f7e94f20ac7517e1174420817474e0085edc95457e2782e9244604",
        "network" : "EIP150",
        "postState" : {
            "0x2adc25665018aa1fe0e6bc666dac8fc2697ff9ba" : {
                "balance" : "0x4563918244f67100",
                "code" : "",
                "nonce" : "0x00",
                "storage" : {
                }
            },
            "0xa94f5374fce5edbc8e2a8697c15331677e6ebf0b" : {
                "balance" : "0xe8d4a29f00",
                "code" : "",
                "nonce" : "0x01",
                "storage" : {
                }
            }
        },
        "pre" : {
            "0xa94f5374fce5edbc8e2a8697c15331677e6ebf0b" : {
                "balance" : "0xe8d4a51000",
                "code" : "",
                "nonce" : "0x00",
                "storage" : {
                }
            }
        }
    },
    "RevertOpcodeInInit_d0g0v1_EIP158" : {
        "_info" : {
            "comment" : "",
            "filledwith" : "cpp-1.3.0+commit.6e0ce939.Linux.g++",
            "lllcversion" : "Version: 0.4.18-develop.2017.9.25+commit.a72237f2.Linux.g++",
            "source" : "src/BlockchainTestsFiller/GeneralStateTests/stRevertTest/RevertOpcodeInInit_d0g0v1Filler.json",
            "sourceHash" : "b724e26ff0cdf65d0358f7532a3de0afc2ca3ee9cfaecb35eb80e2fc8b3f9e7d"
        },
        "blocks" : [
            {
                "blockHeader" : {
                    "bloom" : "0x00000000000000000000000000000000000000000000000000000000000000000000000000000000000000000000000000000000000000000000000000000000000000000000000000000000000000000000000000000000000000000000000000000000000000000000000000000000000000000000000000000000000000000000000000000000000000000000000000000000000000000000000000000000000000000000000000000000000000000000000000000000000000000000000000000000000000000000000000000000000000000000000000000000000000000000000000000000000000000000000000000000000000000000000000000000",
                    "coinbase" : "0x2adc25665018aa1fe0e6bc666dac8fc2697ff9ba",
                    "difficulty" : "0x020000",
                    "extraData" : "",
                    "gasLimit" : "0x989680",
                    "gasUsed" : "0x027100",
                    "hash" : "0xd740bf9a4acce3b864cef7af2229d7956959ee14821a3dfd4ab24269f10a17a1",
                    "mixHash" : "0x0541106dba5df588692132f3750813d6a6e9fdb59b42e48c7c14de2af32952ef",
                    "nonce" : "0xde8af1c6ef0847ba",
                    "number" : "0x01",
                    "parentHash" : "0x35095b1590cfa9eed610b5b60904000ac9a8448da13600b40cc80c26458e7326",
                    "receiptTrie" : "0x46d07390d9e8ea20bb9c6105ec27fde5d2ade2708bd2e97f04ca44acbc63b003",
                    "stateRoot" : "0xff3084198410d872dedc1e4039cbea58fa883a5ca9a28700d2857b3f2711d9c9",
                    "timestamp" : "0x03e8",
                    "transactionsTrie" : "0xd18817373e68a1693cb973d6765a349be7df4dce8569c560fb7060c7229e5085",
                    "uncleHash" : "0x1dcc4de8dec75d7aab85b567b6ccd41ad312451b948a7413f0a142fd40d49347"
                },
                "rlp" : "0xf9025bf901f8a035095b1590cfa9eed610b5b60904000ac9a8448da13600b40cc80c26458e7326a01dcc4de8dec75d7aab85b567b6ccd41ad312451b948a7413f0a142fd40d49347942adc25665018aa1fe0e6bc666dac8fc2697ff9baa0ff3084198410d872dedc1e4039cbea58fa883a5ca9a28700d2857b3f2711d9c9a0d18817373e68a1693cb973d6765a349be7df4dce8569c560fb7060c7229e5085a046d07390d9e8ea20bb9c6105ec27fde5d2ade2708bd2e97f04ca44acbc63b003b9010000000000000000000000000000000000000000000000000000000000000000000000000000000000000000000000000000000000000000000000000000000000000000000000000000000000000000000000000000000000000000000000000000000000000000000000000000000000000000000000000000000000000000000000000000000000000000000000000000000000000000000000000000000000000000000000000000000000000000000000000000000000000000000000000000000000000000000000000000000000000000000000000000000000000000000000000000000000000000000000000000000000000000000000000000000000830200000183989680830271008203e880a00541106dba5df588692132f3750813d6a6e9fdb59b42e48c7c14de2af32952ef88de8af1c6ef0847baf85df85b800183027100800a8f600160005560016000fd60116001551ba0d9188f1761b592e3ef2bec1274fce9097a98ad729aaa61dd6bcc9ec4f13873f8a00cf76bad20f7f2e5824c68809ecdbc6cde5bb6086c7a2548c7e0e6d6949e032fc0",
                "transactions" : [
                    {
                        "data" : "0x600160005560016000fd6011600155",
                        "gasLimit" : "0x027100",
                        "gasPrice" : "0x01",
                        "nonce" : "0x00",
                        "r" : "0xd9188f1761b592e3ef2bec1274fce9097a98ad729aaa61dd6bcc9ec4f13873f8",
                        "s" : "0x0cf76bad20f7f2e5824c68809ecdbc6cde5bb6086c7a2548c7e0e6d6949e032f",
                        "to" : "",
                        "v" : "0x1b",
                        "value" : "0x0a"
                    }
                ],
                "uncleHeaders" : [
                ]
            }
        ],
        "genesisBlockHeader" : {
            "bloom" : "0x00000000000000000000000000000000000000000000000000000000000000000000000000000000000000000000000000000000000000000000000000000000000000000000000000000000000000000000000000000000000000000000000000000000000000000000000000000000000000000000000000000000000000000000000000000000000000000000000000000000000000000000000000000000000000000000000000000000000000000000000000000000000000000000000000000000000000000000000000000000000000000000000000000000000000000000000000000000000000000000000000000000000000000000000000000000",
            "coinbase" : "0x2adc25665018aa1fe0e6bc666dac8fc2697ff9ba",
            "difficulty" : "0x020000",
            "extraData" : "0x42",
            "gasLimit" : "0x989680",
            "gasUsed" : "0x00",
            "hash" : "0x35095b1590cfa9eed610b5b60904000ac9a8448da13600b40cc80c26458e7326",
            "mixHash" : "0x56e81f171bcc55a6ff8345e692c0f86e5b48e01b996cadc001622fb5e363b421",
            "nonce" : "0x0102030405060708",
            "number" : "0x00",
            "parentHash" : "0x0000000000000000000000000000000000000000000000000000000000000000",
            "receiptTrie" : "0x56e81f171bcc55a6ff8345e692c0f86e5b48e01b996cadc001622fb5e363b421",
            "stateRoot" : "0x17ca3d673553cbfcf5de4a99ea08088763bbf64aa67ae17a485f585bcc01d3f2",
            "timestamp" : "0x03b6",
            "transactionsTrie" : "0x56e81f171bcc55a6ff8345e692c0f86e5b48e01b996cadc001622fb5e363b421",
            "uncleHash" : "0x1dcc4de8dec75d7aab85b567b6ccd41ad312451b948a7413f0a142fd40d49347"
        },
        "genesisRLP" : "0xf901faf901f5a00000000000000000000000000000000000000000000000000000000000000000a01dcc4de8dec75d7aab85b567b6ccd41ad312451b948a7413f0a142fd40d49347942adc25665018aa1fe0e6bc666dac8fc2697ff9baa017ca3d673553cbfcf5de4a99ea08088763bbf64aa67ae17a485f585bcc01d3f2a056e81f171bcc55a6ff8345e692c0f86e5b48e01b996cadc001622fb5e363b421a056e81f171bcc55a6ff8345e692c0f86e5b48e01b996cadc001622fb5e363b421b9010000000000000000000000000000000000000000000000000000000000000000000000000000000000000000000000000000000000000000000000000000000000000000000000000000000000000000000000000000000000000000000000000000000000000000000000000000000000000000000000000000000000000000000000000000000000000000000000000000000000000000000000000000000000000000000000000000000000000000000000000000000000000000000000000000000000000000000000000000000000000000000000000000000000000000000000000000000000000000000000000000000000000000000000000000000000830200008083989680808203b642a056e81f171bcc55a6ff8345e692c0f86e5b48e01b996cadc001622fb5e363b421880102030405060708c0c0",
        "lastblockhash" : "0xd740bf9a4acce3b864cef7af2229d7956959ee14821a3dfd4ab24269f10a17a1",
        "network" : "EIP158",
        "postState" : {
            "0x2adc25665018aa1fe0e6bc666dac8fc2697ff9ba" : {
                "balance" : "0x4563918244f67100",
                "code" : "",
                "nonce" : "0x00",
                "storage" : {
                }
            },
            "0xa94f5374fce5edbc8e2a8697c15331677e6ebf0b" : {
                "balance" : "0xe8d4a29f00",
                "code" : "",
                "nonce" : "0x01",
                "storage" : {
                }
            }
        },
        "pre" : {
            "0xa94f5374fce5edbc8e2a8697c15331677e6ebf0b" : {
                "balance" : "0xe8d4a51000",
                "code" : "",
                "nonce" : "0x00",
                "storage" : {
                }
            }
        }
    },
    "RevertOpcodeInInit_d0g0v1_Frontier" : {
        "_info" : {
            "comment" : "",
            "filledwith" : "cpp-1.3.0+commit.6e0ce939.Linux.g++",
            "lllcversion" : "Version: 0.4.18-develop.2017.9.25+commit.a72237f2.Linux.g++",
            "source" : "src/BlockchainTestsFiller/GeneralStateTests/stRevertTest/RevertOpcodeInInit_d0g0v1Filler.json",
            "sourceHash" : "b724e26ff0cdf65d0358f7532a3de0afc2ca3ee9cfaecb35eb80e2fc8b3f9e7d"
        },
        "blocks" : [
            {
                "blockHeader" : {
                    "bloom" : "0x00000000000000000000000000000000000000000000000000000000000000000000000000000000000000000000000000000000000000000000000000000000000000000000000000000000000000000000000000000000000000000000000000000000000000000000000000000000000000000000000000000000000000000000000000000000000000000000000000000000000000000000000000000000000000000000000000000000000000000000000000000000000000000000000000000000000000000000000000000000000000000000000000000000000000000000000000000000000000000000000000000000000000000000000000000000",
                    "coinbase" : "0x2adc25665018aa1fe0e6bc666dac8fc2697ff9ba",
                    "difficulty" : "0x020000",
                    "extraData" : "",
                    "gasLimit" : "0x989680",
                    "gasUsed" : "0x027100",
                    "hash" : "0x38bea1399769d3bac221a1340dbc3a95a2751229a1eb3b16347cf88768bb221b",
                    "mixHash" : "0xcdb44b326b42c63c0129a548f701c3e812e912e00ffad88153023eb66504c52b",
                    "nonce" : "0x1babb32d852aa9d5",
                    "number" : "0x01",
                    "parentHash" : "0x35095b1590cfa9eed610b5b60904000ac9a8448da13600b40cc80c26458e7326",
                    "receiptTrie" : "0x46d07390d9e8ea20bb9c6105ec27fde5d2ade2708bd2e97f04ca44acbc63b003",
                    "stateRoot" : "0xff3084198410d872dedc1e4039cbea58fa883a5ca9a28700d2857b3f2711d9c9",
                    "timestamp" : "0x03e8",
                    "transactionsTrie" : "0xd18817373e68a1693cb973d6765a349be7df4dce8569c560fb7060c7229e5085",
                    "uncleHash" : "0x1dcc4de8dec75d7aab85b567b6ccd41ad312451b948a7413f0a142fd40d49347"
                },
                "rlp" : "0xf9025bf901f8a035095b1590cfa9eed610b5b60904000ac9a8448da13600b40cc80c26458e7326a01dcc4de8dec75d7aab85b567b6ccd41ad312451b948a7413f0a142fd40d49347942adc25665018aa1fe0e6bc666dac8fc2697ff9baa0ff3084198410d872dedc1e4039cbea58fa883a5ca9a28700d2857b3f2711d9c9a0d18817373e68a1693cb973d6765a349be7df4dce8569c560fb7060c7229e5085a046d07390d9e8ea20bb9c6105ec27fde5d2ade2708bd2e97f04ca44acbc63b003b9010000000000000000000000000000000000000000000000000000000000000000000000000000000000000000000000000000000000000000000000000000000000000000000000000000000000000000000000000000000000000000000000000000000000000000000000000000000000000000000000000000000000000000000000000000000000000000000000000000000000000000000000000000000000000000000000000000000000000000000000000000000000000000000000000000000000000000000000000000000000000000000000000000000000000000000000000000000000000000000000000000000000000000000000000000000000830200000183989680830271008203e880a0cdb44b326b42c63c0129a548f701c3e812e912e00ffad88153023eb66504c52b881babb32d852aa9d5f85df85b800183027100800a8f600160005560016000fd60116001551ba0d9188f1761b592e3ef2bec1274fce9097a98ad729aaa61dd6bcc9ec4f13873f8a00cf76bad20f7f2e5824c68809ecdbc6cde5bb6086c7a2548c7e0e6d6949e032fc0",
                "transactions" : [
                    {
                        "data" : "0x600160005560016000fd6011600155",
                        "gasLimit" : "0x027100",
                        "gasPrice" : "0x01",
                        "nonce" : "0x00",
                        "r" : "0xd9188f1761b592e3ef2bec1274fce9097a98ad729aaa61dd6bcc9ec4f13873f8",
                        "s" : "0x0cf76bad20f7f2e5824c68809ecdbc6cde5bb6086c7a2548c7e0e6d6949e032f",
                        "to" : "",
                        "v" : "0x1b",
                        "value" : "0x0a"
                    }
                ],
                "uncleHeaders" : [
                ]
            }
        ],
        "genesisBlockHeader" : {
            "bloom" : "0x00000000000000000000000000000000000000000000000000000000000000000000000000000000000000000000000000000000000000000000000000000000000000000000000000000000000000000000000000000000000000000000000000000000000000000000000000000000000000000000000000000000000000000000000000000000000000000000000000000000000000000000000000000000000000000000000000000000000000000000000000000000000000000000000000000000000000000000000000000000000000000000000000000000000000000000000000000000000000000000000000000000000000000000000000000000",
            "coinbase" : "0x2adc25665018aa1fe0e6bc666dac8fc2697ff9ba",
            "difficulty" : "0x020000",
            "extraData" : "0x42",
            "gasLimit" : "0x989680",
            "gasUsed" : "0x00",
            "hash" : "0x35095b1590cfa9eed610b5b60904000ac9a8448da13600b40cc80c26458e7326",
            "mixHash" : "0x56e81f171bcc55a6ff8345e692c0f86e5b48e01b996cadc001622fb5e363b421",
            "nonce" : "0x0102030405060708",
            "number" : "0x00",
            "parentHash" : "0x0000000000000000000000000000000000000000000000000000000000000000",
            "receiptTrie" : "0x56e81f171bcc55a6ff8345e692c0f86e5b48e01b996cadc001622fb5e363b421",
            "stateRoot" : "0x17ca3d673553cbfcf5de4a99ea08088763bbf64aa67ae17a485f585bcc01d3f2",
            "timestamp" : "0x03b6",
            "transactionsTrie" : "0x56e81f171bcc55a6ff8345e692c0f86e5b48e01b996cadc001622fb5e363b421",
            "uncleHash" : "0x1dcc4de8dec75d7aab85b567b6ccd41ad312451b948a7413f0a142fd40d49347"
        },
        "genesisRLP" : "0xf901faf901f5a00000000000000000000000000000000000000000000000000000000000000000a01dcc4de8dec75d7aab85b567b6ccd41ad312451b948a7413f0a142fd40d49347942adc25665018aa1fe0e6bc666dac8fc2697ff9baa017ca3d673553cbfcf5de4a99ea08088763bbf64aa67ae17a485f585bcc01d3f2a056e81f171bcc55a6ff8345e692c0f86e5b48e01b996cadc001622fb5e363b421a056e81f171bcc55a6ff8345e692c0f86e5b48e01b996cadc001622fb5e363b421b9010000000000000000000000000000000000000000000000000000000000000000000000000000000000000000000000000000000000000000000000000000000000000000000000000000000000000000000000000000000000000000000000000000000000000000000000000000000000000000000000000000000000000000000000000000000000000000000000000000000000000000000000000000000000000000000000000000000000000000000000000000000000000000000000000000000000000000000000000000000000000000000000000000000000000000000000000000000000000000000000000000000000000000000000000000000000830200008083989680808203b642a056e81f171bcc55a6ff8345e692c0f86e5b48e01b996cadc001622fb5e363b421880102030405060708c0c0",
        "lastblockhash" : "0x38bea1399769d3bac221a1340dbc3a95a2751229a1eb3b16347cf88768bb221b",
        "network" : "Frontier",
        "postState" : {
            "0x2adc25665018aa1fe0e6bc666dac8fc2697ff9ba" : {
                "balance" : "0x4563918244f67100",
                "code" : "",
                "nonce" : "0x00",
                "storage" : {
                }
            },
            "0xa94f5374fce5edbc8e2a8697c15331677e6ebf0b" : {
                "balance" : "0xe8d4a29f00",
                "code" : "",
                "nonce" : "0x01",
                "storage" : {
                }
            }
        },
        "pre" : {
            "0xa94f5374fce5edbc8e2a8697c15331677e6ebf0b" : {
                "balance" : "0xe8d4a51000",
                "code" : "",
                "nonce" : "0x00",
                "storage" : {
                }
            }
        }
    },
    "RevertOpcodeInInit_d0g0v1_Homestead" : {
        "_info" : {
            "comment" : "",
            "filledwith" : "cpp-1.3.0+commit.6e0ce939.Linux.g++",
            "lllcversion" : "Version: 0.4.18-develop.2017.9.25+commit.a72237f2.Linux.g++",
            "source" : "src/BlockchainTestsFiller/GeneralStateTests/stRevertTest/RevertOpcodeInInit_d0g0v1Filler.json",
            "sourceHash" : "b724e26ff0cdf65d0358f7532a3de0afc2ca3ee9cfaecb35eb80e2fc8b3f9e7d"
        },
        "blocks" : [
            {
                "blockHeader" : {
                    "bloom" : "0x00000000000000000000000000000000000000000000000000000000000000000000000000000000000000000000000000000000000000000000000000000000000000000000000000000000000000000000000000000000000000000000000000000000000000000000000000000000000000000000000000000000000000000000000000000000000000000000000000000000000000000000000000000000000000000000000000000000000000000000000000000000000000000000000000000000000000000000000000000000000000000000000000000000000000000000000000000000000000000000000000000000000000000000000000000000",
                    "coinbase" : "0x2adc25665018aa1fe0e6bc666dac8fc2697ff9ba",
                    "difficulty" : "0x020000",
                    "extraData" : "",
                    "gasLimit" : "0x989680",
                    "gasUsed" : "0x027100",
                    "hash" : "0xe5c63f41f57aea1cb1026235dfcdc2ac7d8a0ee36f5c46e28d66ca0af45b18ad",
                    "mixHash" : "0xb31d83a221c0471027d533e2cdb54eb874174643c6bcb07d9d5417092acea513",
                    "nonce" : "0x34e3f6bd1c40b044",
                    "number" : "0x01",
                    "parentHash" : "0x35095b1590cfa9eed610b5b60904000ac9a8448da13600b40cc80c26458e7326",
                    "receiptTrie" : "0x46d07390d9e8ea20bb9c6105ec27fde5d2ade2708bd2e97f04ca44acbc63b003",
                    "stateRoot" : "0xff3084198410d872dedc1e4039cbea58fa883a5ca9a28700d2857b3f2711d9c9",
                    "timestamp" : "0x03e8",
                    "transactionsTrie" : "0xd18817373e68a1693cb973d6765a349be7df4dce8569c560fb7060c7229e5085",
                    "uncleHash" : "0x1dcc4de8dec75d7aab85b567b6ccd41ad312451b948a7413f0a142fd40d49347"
                },
                "rlp" : "0xf9025bf901f8a035095b1590cfa9eed610b5b60904000ac9a8448da13600b40cc80c26458e7326a01dcc4de8dec75d7aab85b567b6ccd41ad312451b948a7413f0a142fd40d49347942adc25665018aa1fe0e6bc666dac8fc2697ff9baa0ff3084198410d872dedc1e4039cbea58fa883a5ca9a28700d2857b3f2711d9c9a0d18817373e68a1693cb973d6765a349be7df4dce8569c560fb7060c7229e5085a046d07390d9e8ea20bb9c6105ec27fde5d2ade2708bd2e97f04ca44acbc63b003b9010000000000000000000000000000000000000000000000000000000000000000000000000000000000000000000000000000000000000000000000000000000000000000000000000000000000000000000000000000000000000000000000000000000000000000000000000000000000000000000000000000000000000000000000000000000000000000000000000000000000000000000000000000000000000000000000000000000000000000000000000000000000000000000000000000000000000000000000000000000000000000000000000000000000000000000000000000000000000000000000000000000000000000000000000000000000830200000183989680830271008203e880a0b31d83a221c0471027d533e2cdb54eb874174643c6bcb07d9d5417092acea5138834e3f6bd1c40b044f85df85b800183027100800a8f600160005560016000fd60116001551ba0d9188f1761b592e3ef2bec1274fce9097a98ad729aaa61dd6bcc9ec4f13873f8a00cf76bad20f7f2e5824c68809ecdbc6cde5bb6086c7a2548c7e0e6d6949e032fc0",
                "transactions" : [
                    {
                        "data" : "0x600160005560016000fd6011600155",
                        "gasLimit" : "0x027100",
                        "gasPrice" : "0x01",
                        "nonce" : "0x00",
                        "r" : "0xd9188f1761b592e3ef2bec1274fce9097a98ad729aaa61dd6bcc9ec4f13873f8",
                        "s" : "0x0cf76bad20f7f2e5824c68809ecdbc6cde5bb6086c7a2548c7e0e6d6949e032f",
                        "to" : "",
                        "v" : "0x1b",
                        "value" : "0x0a"
                    }
                ],
                "uncleHeaders" : [
                ]
            }
        ],
        "genesisBlockHeader" : {
            "bloom" : "0x00000000000000000000000000000000000000000000000000000000000000000000000000000000000000000000000000000000000000000000000000000000000000000000000000000000000000000000000000000000000000000000000000000000000000000000000000000000000000000000000000000000000000000000000000000000000000000000000000000000000000000000000000000000000000000000000000000000000000000000000000000000000000000000000000000000000000000000000000000000000000000000000000000000000000000000000000000000000000000000000000000000000000000000000000000000",
            "coinbase" : "0x2adc25665018aa1fe0e6bc666dac8fc2697ff9ba",
            "difficulty" : "0x020000",
            "extraData" : "0x42",
            "gasLimit" : "0x989680",
            "gasUsed" : "0x00",
            "hash" : "0x35095b1590cfa9eed610b5b60904000ac9a8448da13600b40cc80c26458e7326",
            "mixHash" : "0x56e81f171bcc55a6ff8345e692c0f86e5b48e01b996cadc001622fb5e363b421",
            "nonce" : "0x0102030405060708",
            "number" : "0x00",
            "parentHash" : "0x0000000000000000000000000000000000000000000000000000000000000000",
            "receiptTrie" : "0x56e81f171bcc55a6ff8345e692c0f86e5b48e01b996cadc001622fb5e363b421",
            "stateRoot" : "0x17ca3d673553cbfcf5de4a99ea08088763bbf64aa67ae17a485f585bcc01d3f2",
            "timestamp" : "0x03b6",
            "transactionsTrie" : "0x56e81f171bcc55a6ff8345e692c0f86e5b48e01b996cadc001622fb5e363b421",
            "uncleHash" : "0x1dcc4de8dec75d7aab85b567b6ccd41ad312451b948a7413f0a142fd40d49347"
        },
        "genesisRLP" : "0xf901faf901f5a00000000000000000000000000000000000000000000000000000000000000000a01dcc4de8dec75d7aab85b567b6ccd41ad312451b948a7413f0a142fd40d49347942adc25665018aa1fe0e6bc666dac8fc2697ff9baa017ca3d673553cbfcf5de4a99ea08088763bbf64aa67ae17a485f585bcc01d3f2a056e81f171bcc55a6ff8345e692c0f86e5b48e01b996cadc001622fb5e363b421a056e81f171bcc55a6ff8345e692c0f86e5b48e01b996cadc001622fb5e363b421b9010000000000000000000000000000000000000000000000000000000000000000000000000000000000000000000000000000000000000000000000000000000000000000000000000000000000000000000000000000000000000000000000000000000000000000000000000000000000000000000000000000000000000000000000000000000000000000000000000000000000000000000000000000000000000000000000000000000000000000000000000000000000000000000000000000000000000000000000000000000000000000000000000000000000000000000000000000000000000000000000000000000000000000000000000000000000830200008083989680808203b642a056e81f171bcc55a6ff8345e692c0f86e5b48e01b996cadc001622fb5e363b421880102030405060708c0c0",
        "lastblockhash" : "0xe5c63f41f57aea1cb1026235dfcdc2ac7d8a0ee36f5c46e28d66ca0af45b18ad",
        "network" : "Homestead",
        "postState" : {
            "0x2adc25665018aa1fe0e6bc666dac8fc2697ff9ba" : {
                "balance" : "0x4563918244f67100",
                "code" : "",
                "nonce" : "0x00",
                "storage" : {
                }
            },
            "0xa94f5374fce5edbc8e2a8697c15331677e6ebf0b" : {
                "balance" : "0xe8d4a29f00",
                "code" : "",
                "nonce" : "0x01",
                "storage" : {
                }
            }
        },
        "pre" : {
            "0xa94f5374fce5edbc8e2a8697c15331677e6ebf0b" : {
                "balance" : "0xe8d4a51000",
                "code" : "",
                "nonce" : "0x00",
                "storage" : {
                }
            }
        }
    }
}