{
    "RevertSubCallStorageOOG2_d0g1v1_Byzantium" : {
        "_info" : {
            "comment" : "",
            "filledwith" : "cpp-1.3.0+commit.6e0ce939.Linux.g++",
            "lllcversion" : "Version: 0.4.18-develop.2017.9.25+commit.a72237f2.Linux.g++",
            "source" : "src/BlockchainTestsFiller/GeneralStateTests/stRevertTest/RevertSubCallStorageOOG2_d0g1v1Filler.json",
            "sourceHash" : "853afc3e5b8858f4f4cff2511c1d5d0bf170c113e09469935db08c7eee6e281d"
        },
        "blocks" : [
            {
                "blockHeader" : {
                    "bloom" : "0x00000000000000000000000000000000000000000000000000000000000000000000000000000000000000000000000000000000000000000000000000000000000000000000000000000000000000000000000000000000000000000000000000000000000000000000000000000000000000000000000000000000000000000000000000000000000000000000000000000000000000000000000000000000000000000000000000000000000000000000000000000000000000000000000000000000000000000000000000000000000000000000000000000000000000000000000000000000000000000000000000000000000000000000000000000000",
                    "coinbase" : "0x2adc25665018aa1fe0e6bc666dac8fc2697ff9ba",
                    "difficulty" : "0x020000",
                    "extraData" : "",
                    "gasLimit" : "0x989680",
                    "gasUsed" : "0x02c308",
                    "hash" : "0x005825ac1d42fb11c5a709bf70d85084331214316cec4582a778854fa7615a8f",
                    "mixHash" : "0xcf93a50941ecc337b0c75f4972711a4b92b7f2c7f2fe1629bd8e424ce9dfbd27",
                    "nonce" : "0x97d3b5b1b55187a4",
                    "number" : "0x01",
                    "parentHash" : "0x7c700d11409534b7aca1879d490020779a5c324eb69ff33422192be6b150af7d",
                    "receiptTrie" : "0xa0e59dd82470f49ac8e90225d6d4478de021b3e726e5bddd464b6b763766a937",
                    "stateRoot" : "0x27392a639d46b6181b48198582ee2c5dbb1b333afe17e521b4a9bd7eb43794a0",
                    "timestamp" : "0x03e8",
                    "transactionsTrie" : "0xb415bd35fe0e64413510fc89329f197ae0eb68df955145ac5f97a2eb5f025b95",
                    "uncleHash" : "0x1dcc4de8dec75d7aab85b567b6ccd41ad312451b948a7413f0a142fd40d49347"
                },
                "rlp" : "0xf90264f901f8a07c700d11409534b7aca1879d490020779a5c324eb69ff33422192be6b150af7da01dcc4de8dec75d7aab85b567b6ccd41ad312451b948a7413f0a142fd40d49347942adc25665018aa1fe0e6bc666dac8fc2697ff9baa027392a639d46b6181b48198582ee2c5dbb1b333afe17e521b4a9bd7eb43794a0a0b415bd35fe0e64413510fc89329f197ae0eb68df955145ac5f97a2eb5f025b95a0a0e59dd82470f49ac8e90225d6d4478de021b3e726e5bddd464b6b763766a937b90100000000000000000000000000000000000000000000000000000000000000000000000000000000000000000000000000000000000000000000000000000000000000000000000000000000000000000000000000000000000000000000000000000000000000000000000000000000000000000000000000000000000000000000000000000000000000000000000000000000000000000000000000000000000000000000000000000000000000000000000000000000000000000000000000000000000000000000000000000000000000000000000000000000000000000000000000000000000000000000000000000000000000000000000000000000008302000001839896808302c3088203e880a0cf93a50941ecc337b0c75f4972711a4b92b7f2c7f2fe1629bd8e424ce9dfbd278897d3b5b1b55187a4f866f86480018302c30894a0000000000000000000000000000000000000000184c04062261ca08b2261fe602738d6853da8f1121679f6dc2286bef0fc235e67c2e537142a93faa026ba115a962be542d894ee59793cc9095557f7d1b82540cccbae35074c5f5af6c0",
                "transactions" : [
                    {
                        "data" : "0xc0406226",
                        "gasLimit" : "0x02c308",
                        "gasPrice" : "0x01",
                        "nonce" : "0x00",
                        "r" : "0x8b2261fe602738d6853da8f1121679f6dc2286bef0fc235e67c2e537142a93fa",
                        "s" : "0x26ba115a962be542d894ee59793cc9095557f7d1b82540cccbae35074c5f5af6",
                        "to" : "0xa000000000000000000000000000000000000000",
                        "v" : "0x1c",
                        "value" : "0x01"
                    }
                ],
                "uncleHeaders" : [
                ]
            }
        ],
        "genesisBlockHeader" : {
            "bloom" : "0x00000000000000000000000000000000000000000000000000000000000000000000000000000000000000000000000000000000000000000000000000000000000000000000000000000000000000000000000000000000000000000000000000000000000000000000000000000000000000000000000000000000000000000000000000000000000000000000000000000000000000000000000000000000000000000000000000000000000000000000000000000000000000000000000000000000000000000000000000000000000000000000000000000000000000000000000000000000000000000000000000000000000000000000000000000000",
            "coinbase" : "0x2adc25665018aa1fe0e6bc666dac8fc2697ff9ba",
            "difficulty" : "0x020000",
            "extraData" : "0x42",
            "gasLimit" : "0x989680",
            "gasUsed" : "0x00",
            "hash" : "0x7c700d11409534b7aca1879d490020779a5c324eb69ff33422192be6b150af7d",
            "mixHash" : "0x56e81f171bcc55a6ff8345e692c0f86e5b48e01b996cadc001622fb5e363b421",
            "nonce" : "0x0102030405060708",
            "number" : "0x00",
            "parentHash" : "0x0000000000000000000000000000000000000000000000000000000000000000",
            "receiptTrie" : "0x56e81f171bcc55a6ff8345e692c0f86e5b48e01b996cadc001622fb5e363b421",
            "stateRoot" : "0xf353193b99eb46e7a469c00fa91be2359f2eb9278c9287f1e0fdd3f4137074e2",
            "timestamp" : "0x03b6",
            "transactionsTrie" : "0x56e81f171bcc55a6ff8345e692c0f86e5b48e01b996cadc001622fb5e363b421",
            "uncleHash" : "0x1dcc4de8dec75d7aab85b567b6ccd41ad312451b948a7413f0a142fd40d49347"
        },
        "genesisRLP" : "0xf901faf901f5a00000000000000000000000000000000000000000000000000000000000000000a01dcc4de8dec75d7aab85b567b6ccd41ad312451b948a7413f0a142fd40d49347942adc25665018aa1fe0e6bc666dac8fc2697ff9baa0f353193b99eb46e7a469c00fa91be2359f2eb9278c9287f1e0fdd3f4137074e2a056e81f171bcc55a6ff8345e692c0f86e5b48e01b996cadc001622fb5e363b421a056e81f171bcc55a6ff8345e692c0f86e5b48e01b996cadc001622fb5e363b421b9010000000000000000000000000000000000000000000000000000000000000000000000000000000000000000000000000000000000000000000000000000000000000000000000000000000000000000000000000000000000000000000000000000000000000000000000000000000000000000000000000000000000000000000000000000000000000000000000000000000000000000000000000000000000000000000000000000000000000000000000000000000000000000000000000000000000000000000000000000000000000000000000000000000000000000000000000000000000000000000000000000000000000000000000000000000000830200008083989680808203b642a056e81f171bcc55a6ff8345e692c0f86e5b48e01b996cadc001622fb5e363b421880102030405060708c0c0",
        "lastblockhash" : "0x005825ac1d42fb11c5a709bf70d85084331214316cec4582a778854fa7615a8f",
        "network" : "Byzantium",
        "postState" : {
            "0x2adc25665018aa1fe0e6bc666dac8fc2697ff9ba" : {
                "balance" : "0x29a2241af62ec308",
                "code" : "",
                "nonce" : "0x00",
                "storage" : {
                }
            },
            "0xa000000000000000000000000000000000000000" : {
                "balance" : "0x01",
                "code" : "0x60606040526000357c0100000000000000000000000000000000000000000000000000000000900463ffffffff168063b28175c4146046578063c0406226146052575b6000565b3460005760506076565b005b34600057605c6081565b604051808215151515815260200191505060405180910390f35b600c6000819055505b565b600060896076565b600d600081905550600e6001819055505b905600a165627a7a72305820b7c6987c21e63fed8a74d899557744a3be8d3fda191ce0f56cf261d6b860f6b40029",
                "nonce" : "0x00",
                "storage" : {
                }
            },
            "0xa94f5374fce5edbc8e2a8697c15331677e6ebf0b" : {
                "balance" : "0xe8d4a24cf8",
                "code" : "",
                "nonce" : "0x01",
                "storage" : {
                }
            }
        },
        "pre" : {
            "0xa000000000000000000000000000000000000000" : {
                "balance" : "0x01",
                "code" : "0x60606040526000357c0100000000000000000000000000000000000000000000000000000000900463ffffffff168063b28175c4146046578063c0406226146052575b6000565b3460005760506076565b005b34600057605c6081565b604051808215151515815260200191505060405180910390f35b600c6000819055505b565b600060896076565b600d600081905550600e6001819055505b905600a165627a7a72305820b7c6987c21e63fed8a74d899557744a3be8d3fda191ce0f56cf261d6b860f6b40029",
                "nonce" : "0x00",
                "storage" : {
                }
            },
            "0xa94f5374fce5edbc8e2a8697c15331677e6ebf0b" : {
                "balance" : "0xe8d4a51000",
                "code" : "",
                "nonce" : "0x00",
                "storage" : {
                }
            }
        }
    },
    "RevertSubCallStorageOOG2_d0g1v1_EIP150" : {
        "_info" : {
            "comment" : "",
            "filledwith" : "cpp-1.3.0+commit.6e0ce939.Linux.g++",
            "lllcversion" : "Version: 0.4.18-develop.2017.9.25+commit.a72237f2.Linux.g++",
            "source" : "src/BlockchainTestsFiller/GeneralStateTests/stRevertTest/RevertSubCallStorageOOG2_d0g1v1Filler.json",
            "sourceHash" : "853afc3e5b8858f4f4cff2511c1d5d0bf170c113e09469935db08c7eee6e281d"
        },
        "blocks" : [
            {
                "blockHeader" : {
                    "bloom" : "0x00000000000000000000000000000000000000000000000000000000000000000000000000000000000000000000000000000000000000000000000000000000000000000000000000000000000000000000000000000000000000000000000000000000000000000000000000000000000000000000000000000000000000000000000000000000000000000000000000000000000000000000000000000000000000000000000000000000000000000000000000000000000000000000000000000000000000000000000000000000000000000000000000000000000000000000000000000000000000000000000000000000000000000000000000000000",
                    "coinbase" : "0x2adc25665018aa1fe0e6bc666dac8fc2697ff9ba",
                    "difficulty" : "0x020000",
                    "extraData" : "",
                    "gasLimit" : "0x989680",
                    "gasUsed" : "0x02c308",
                    "hash" : "0x0c201f4d86c682100ee66ad1a320c0570a315e4faffdf4cf7be146312b36a7cb",
                    "mixHash" : "0x321dc1060b86a87edaba206897d3aa6ae0b1413be2373fb79a33e5e864333639",
                    "nonce" : "0x631dd146dd0b644b",
                    "number" : "0x01",
                    "parentHash" : "0x7c700d11409534b7aca1879d490020779a5c324eb69ff33422192be6b150af7d",
                    "receiptTrie" : "0xceceb7bd43cd438513e34f52cd956dfc28ba249a41f56e3c2c4b6d5e251fc635",
                    "stateRoot" : "0x1ec08514a54a4d9dc8ebcd5b4e2f02ad6428ecc8ad85ce49af0019f69dda1a74",
                    "timestamp" : "0x03e8",
                    "transactionsTrie" : "0xb415bd35fe0e64413510fc89329f197ae0eb68df955145ac5f97a2eb5f025b95",
                    "uncleHash" : "0x1dcc4de8dec75d7aab85b567b6ccd41ad312451b948a7413f0a142fd40d49347"
                },
                "rlp" : "0xf90264f901f8a07c700d11409534b7aca1879d490020779a5c324eb69ff33422192be6b150af7da01dcc4de8dec75d7aab85b567b6ccd41ad312451b948a7413f0a142fd40d49347942adc25665018aa1fe0e6bc666dac8fc2697ff9baa01ec08514a54a4d9dc8ebcd5b4e2f02ad6428ecc8ad85ce49af0019f69dda1a74a0b415bd35fe0e64413510fc89329f197ae0eb68df955145ac5f97a2eb5f025b95a0ceceb7bd43cd438513e34f52cd956dfc28ba249a41f56e3c2c4b6d5e251fc635b90100000000000000000000000000000000000000000000000000000000000000000000000000000000000000000000000000000000000000000000000000000000000000000000000000000000000000000000000000000000000000000000000000000000000000000000000000000000000000000000000000000000000000000000000000000000000000000000000000000000000000000000000000000000000000000000000000000000000000000000000000000000000000000000000000000000000000000000000000000000000000000000000000000000000000000000000000000000000000000000000000000000000000000000000000000000008302000001839896808302c3088203e880a0321dc1060b86a87edaba206897d3aa6ae0b1413be2373fb79a33e5e86433363988631dd146dd0b644bf866f86480018302c30894a0000000000000000000000000000000000000000184c04062261ca08b2261fe602738d6853da8f1121679f6dc2286bef0fc235e67c2e537142a93faa026ba115a962be542d894ee59793cc9095557f7d1b82540cccbae35074c5f5af6c0",
                "transactions" : [
                    {
                        "data" : "0xc0406226",
                        "gasLimit" : "0x02c308",
                        "gasPrice" : "0x01",
                        "nonce" : "0x00",
                        "r" : "0x8b2261fe602738d6853da8f1121679f6dc2286bef0fc235e67c2e537142a93fa",
                        "s" : "0x26ba115a962be542d894ee59793cc9095557f7d1b82540cccbae35074c5f5af6",
                        "to" : "0xa000000000000000000000000000000000000000",
                        "v" : "0x1c",
                        "value" : "0x01"
                    }
                ],
                "uncleHeaders" : [
                ]
            }
        ],
        "genesisBlockHeader" : {
            "bloom" : "0x00000000000000000000000000000000000000000000000000000000000000000000000000000000000000000000000000000000000000000000000000000000000000000000000000000000000000000000000000000000000000000000000000000000000000000000000000000000000000000000000000000000000000000000000000000000000000000000000000000000000000000000000000000000000000000000000000000000000000000000000000000000000000000000000000000000000000000000000000000000000000000000000000000000000000000000000000000000000000000000000000000000000000000000000000000000",
            "coinbase" : "0x2adc25665018aa1fe0e6bc666dac8fc2697ff9ba",
            "difficulty" : "0x020000",
            "extraData" : "0x42",
            "gasLimit" : "0x989680",
            "gasUsed" : "0x00",
            "hash" : "0x7c700d11409534b7aca1879d490020779a5c324eb69ff33422192be6b150af7d",
            "mixHash" : "0x56e81f171bcc55a6ff8345e692c0f86e5b48e01b996cadc001622fb5e363b421",
            "nonce" : "0x0102030405060708",
            "number" : "0x00",
            "parentHash" : "0x0000000000000000000000000000000000000000000000000000000000000000",
            "receiptTrie" : "0x56e81f171bcc55a6ff8345e692c0f86e5b48e01b996cadc001622fb5e363b421",
            "stateRoot" : "0xf353193b99eb46e7a469c00fa91be2359f2eb9278c9287f1e0fdd3f4137074e2",
            "timestamp" : "0x03b6",
            "transactionsTrie" : "0x56e81f171bcc55a6ff8345e692c0f86e5b48e01b996cadc001622fb5e363b421",
            "uncleHash" : "0x1dcc4de8dec75d7aab85b567b6ccd41ad312451b948a7413f0a142fd40d49347"
        },
        "genesisRLP" : "0xf901faf901f5a00000000000000000000000000000000000000000000000000000000000000000a01dcc4de8dec75d7aab85b567b6ccd41ad312451b948a7413f0a142fd40d49347942adc25665018aa1fe0e6bc666dac8fc2697ff9baa0f353193b99eb46e7a469c00fa91be2359f2eb9278c9287f1e0fdd3f4137074e2a056e81f171bcc55a6ff8345e692c0f86e5b48e01b996cadc001622fb5e363b421a056e81f171bcc55a6ff8345e692c0f86e5b48e01b996cadc001622fb5e363b421b9010000000000000000000000000000000000000000000000000000000000000000000000000000000000000000000000000000000000000000000000000000000000000000000000000000000000000000000000000000000000000000000000000000000000000000000000000000000000000000000000000000000000000000000000000000000000000000000000000000000000000000000000000000000000000000000000000000000000000000000000000000000000000000000000000000000000000000000000000000000000000000000000000000000000000000000000000000000000000000000000000000000000000000000000000000000000830200008083989680808203b642a056e81f171bcc55a6ff8345e692c0f86e5b48e01b996cadc001622fb5e363b421880102030405060708c0c0",
        "lastblockhash" : "0x0c201f4d86c682100ee66ad1a320c0570a315e4faffdf4cf7be146312b36a7cb",
        "network" : "EIP150",
        "postState" : {
            "0x2adc25665018aa1fe0e6bc666dac8fc2697ff9ba" : {
                "balance" : "0x4563918244f6c308",
                "code" : "",
                "nonce" : "0x00",
                "storage" : {
                }
            },
            "0xa000000000000000000000000000000000000000" : {
                "balance" : "0x01",
                "code" : "0x60606040526000357c0100000000000000000000000000000000000000000000000000000000900463ffffffff168063b28175c4146046578063c0406226146052575b6000565b3460005760506076565b005b34600057605c6081565b604051808215151515815260200191505060405180910390f35b600c6000819055505b565b600060896076565b600d600081905550600e6001819055505b905600a165627a7a72305820b7c6987c21e63fed8a74d899557744a3be8d3fda191ce0f56cf261d6b860f6b40029",
                "nonce" : "0x00",
                "storage" : {
                }
            },
            "0xa94f5374fce5edbc8e2a8697c15331677e6ebf0b" : {
                "balance" : "0xe8d4a24cf8",
                "code" : "",
                "nonce" : "0x01",
                "storage" : {
                }
            }
        },
        "pre" : {
            "0xa000000000000000000000000000000000000000" : {
                "balance" : "0x01",
                "code" : "0x60606040526000357c0100000000000000000000000000000000000000000000000000000000900463ffffffff168063b28175c4146046578063c0406226146052575b6000565b3460005760506076565b005b34600057605c6081565b604051808215151515815260200191505060405180910390f35b600c6000819055505b565b600060896076565b600d600081905550600e6001819055505b905600a165627a7a72305820b7c6987c21e63fed8a74d899557744a3be8d3fda191ce0f56cf261d6b860f6b40029",
                "nonce" : "0x00",
                "storage" : {
                }
            },
            "0xa94f5374fce5edbc8e2a8697c15331677e6ebf0b" : {
                "balance" : "0xe8d4a51000",
                "code" : "",
                "nonce" : "0x00",
                "storage" : {
                }
            }
        }
    },
    "RevertSubCallStorageOOG2_d0g1v1_EIP158" : {
        "_info" : {
            "comment" : "",
            "filledwith" : "cpp-1.3.0+commit.6e0ce939.Linux.g++",
            "lllcversion" : "Version: 0.4.18-develop.2017.9.25+commit.a72237f2.Linux.g++",
            "source" : "src/BlockchainTestsFiller/GeneralStateTests/stRevertTest/RevertSubCallStorageOOG2_d0g1v1Filler.json",
            "sourceHash" : "853afc3e5b8858f4f4cff2511c1d5d0bf170c113e09469935db08c7eee6e281d"
        },
        "blocks" : [
            {
                "blockHeader" : {
                    "bloom" : "0x00000000000000000000000000000000000000000000000000000000000000000000000000000000000000000000000000000000000000000000000000000000000000000000000000000000000000000000000000000000000000000000000000000000000000000000000000000000000000000000000000000000000000000000000000000000000000000000000000000000000000000000000000000000000000000000000000000000000000000000000000000000000000000000000000000000000000000000000000000000000000000000000000000000000000000000000000000000000000000000000000000000000000000000000000000000",
                    "coinbase" : "0x2adc25665018aa1fe0e6bc666dac8fc2697ff9ba",
                    "difficulty" : "0x020000",
                    "extraData" : "",
                    "gasLimit" : "0x989680",
                    "gasUsed" : "0x02c308",
                    "hash" : "0x43354ba97950cf2bc9baa28cc00cbe5bedb67dabd7bbd9036fe7947e859df47e",
                    "mixHash" : "0x450ca1b7cddeb8c8d6b6fca9b718f33590fd90196ce8bd05a47d2006bbf88d8f",
                    "nonce" : "0xb6615135f678ec0e",
                    "number" : "0x01",
                    "parentHash" : "0x7c700d11409534b7aca1879d490020779a5c324eb69ff33422192be6b150af7d",
                    "receiptTrie" : "0xceceb7bd43cd438513e34f52cd956dfc28ba249a41f56e3c2c4b6d5e251fc635",
                    "stateRoot" : "0x1ec08514a54a4d9dc8ebcd5b4e2f02ad6428ecc8ad85ce49af0019f69dda1a74",
                    "timestamp" : "0x03e8",
                    "transactionsTrie" : "0xb415bd35fe0e64413510fc89329f197ae0eb68df955145ac5f97a2eb5f025b95",
                    "uncleHash" : "0x1dcc4de8dec75d7aab85b567b6ccd41ad312451b948a7413f0a142fd40d49347"
                },
                "rlp" : "0xf90264f901f8a07c700d11409534b7aca1879d490020779a5c324eb69ff33422192be6b150af7da01dcc4de8dec75d7aab85b567b6ccd41ad312451b948a7413f0a142fd40d49347942adc25665018aa1fe0e6bc666dac8fc2697ff9baa01ec08514a54a4d9dc8ebcd5b4e2f02ad6428ecc8ad85ce49af0019f69dda1a74a0b415bd35fe0e64413510fc89329f197ae0eb68df955145ac5f97a2eb5f025b95a0ceceb7bd43cd438513e34f52cd956dfc28ba249a41f56e3c2c4b6d5e251fc635b90100000000000000000000000000000000000000000000000000000000000000000000000000000000000000000000000000000000000000000000000000000000000000000000000000000000000000000000000000000000000000000000000000000000000000000000000000000000000000000000000000000000000000000000000000000000000000000000000000000000000000000000000000000000000000000000000000000000000000000000000000000000000000000000000000000000000000000000000000000000000000000000000000000000000000000000000000000000000000000000000000000000000000000000000000000000008302000001839896808302c3088203e880a0450ca1b7cddeb8c8d6b6fca9b718f33590fd90196ce8bd05a47d2006bbf88d8f88b6615135f678ec0ef866f86480018302c30894a0000000000000000000000000000000000000000184c04062261ca08b2261fe602738d6853da8f1121679f6dc2286bef0fc235e67c2e537142a93faa026ba115a962be542d894ee59793cc9095557f7d1b82540cccbae35074c5f5af6c0",
                "transactions" : [
                    {
                        "data" : "0xc0406226",
                        "gasLimit" : "0x02c308",
                        "gasPrice" : "0x01",
                        "nonce" : "0x00",
                        "r" : "0x8b2261fe602738d6853da8f1121679f6dc2286bef0fc235e67c2e537142a93fa",
                        "s" : "0x26ba115a962be542d894ee59793cc9095557f7d1b82540cccbae35074c5f5af6",
                        "to" : "0xa000000000000000000000000000000000000000",
                        "v" : "0x1c",
                        "value" : "0x01"
                    }
                ],
                "uncleHeaders" : [
                ]
            }
        ],
        "genesisBlockHeader" : {
            "bloom" : "0x00000000000000000000000000000000000000000000000000000000000000000000000000000000000000000000000000000000000000000000000000000000000000000000000000000000000000000000000000000000000000000000000000000000000000000000000000000000000000000000000000000000000000000000000000000000000000000000000000000000000000000000000000000000000000000000000000000000000000000000000000000000000000000000000000000000000000000000000000000000000000000000000000000000000000000000000000000000000000000000000000000000000000000000000000000000",
            "coinbase" : "0x2adc25665018aa1fe0e6bc666dac8fc2697ff9ba",
            "difficulty" : "0x020000",
            "extraData" : "0x42",
            "gasLimit" : "0x989680",
            "gasUsed" : "0x00",
            "hash" : "0x7c700d11409534b7aca1879d490020779a5c324eb69ff33422192be6b150af7d",
            "mixHash" : "0x56e81f171bcc55a6ff8345e692c0f86e5b48e01b996cadc001622fb5e363b421",
            "nonce" : "0x0102030405060708",
            "number" : "0x00",
            "parentHash" : "0x0000000000000000000000000000000000000000000000000000000000000000",
            "receiptTrie" : "0x56e81f171bcc55a6ff8345e692c0f86e5b48e01b996cadc001622fb5e363b421",
            "stateRoot" : "0xf353193b99eb46e7a469c00fa91be2359f2eb9278c9287f1e0fdd3f4137074e2",
            "timestamp" : "0x03b6",
            "transactionsTrie" : "0x56e81f171bcc55a6ff8345e692c0f86e5b48e01b996cadc001622fb5e363b421",
            "uncleHash" : "0x1dcc4de8dec75d7aab85b567b6ccd41ad312451b948a7413f0a142fd40d49347"
        },
        "genesisRLP" : "0xf901faf901f5a00000000000000000000000000000000000000000000000000000000000000000a01dcc4de8dec75d7aab85b567b6ccd41ad312451b948a7413f0a142fd40d49347942adc25665018aa1fe0e6bc666dac8fc2697ff9baa0f353193b99eb46e7a469c00fa91be2359f2eb9278c9287f1e0fdd3f4137074e2a056e81f171bcc55a6ff8345e692c0f86e5b48e01b996cadc001622fb5e363b421a056e81f171bcc55a6ff8345e692c0f86e5b48e01b996cadc001622fb5e363b421b9010000000000000000000000000000000000000000000000000000000000000000000000000000000000000000000000000000000000000000000000000000000000000000000000000000000000000000000000000000000000000000000000000000000000000000000000000000000000000000000000000000000000000000000000000000000000000000000000000000000000000000000000000000000000000000000000000000000000000000000000000000000000000000000000000000000000000000000000000000000000000000000000000000000000000000000000000000000000000000000000000000000000000000000000000000000000830200008083989680808203b642a056e81f171bcc55a6ff8345e692c0f86e5b48e01b996cadc001622fb5e363b421880102030405060708c0c0",
        "lastblockhash" : "0x43354ba97950cf2bc9baa28cc00cbe5bedb67dabd7bbd9036fe7947e859df47e",
        "network" : "EIP158",
        "postState" : {
            "0x2adc25665018aa1fe0e6bc666dac8fc2697ff9ba" : {
                "balance" : "0x4563918244f6c308",
                "code" : "",
                "nonce" : "0x00",
                "storage" : {
                }
            },
            "0xa000000000000000000000000000000000000000" : {
                "balance" : "0x01",
                "code" : "0x60606040526000357c0100000000000000000000000000000000000000000000000000000000900463ffffffff168063b28175c4146046578063c0406226146052575b6000565b3460005760506076565b005b34600057605c6081565b604051808215151515815260200191505060405180910390f35b600c6000819055505b565b600060896076565b600d600081905550600e6001819055505b905600a165627a7a72305820b7c6987c21e63fed8a74d899557744a3be8d3fda191ce0f56cf261d6b860f6b40029",
                "nonce" : "0x00",
                "storage" : {
                }
            },
            "0xa94f5374fce5edbc8e2a8697c15331677e6ebf0b" : {
                "balance" : "0xe8d4a24cf8",
                "code" : "",
                "nonce" : "0x01",
                "storage" : {
                }
            }
        },
        "pre" : {
            "0xa000000000000000000000000000000000000000" : {
                "balance" : "0x01",
                "code" : "0x60606040526000357c0100000000000000000000000000000000000000000000000000000000900463ffffffff168063b28175c4146046578063c0406226146052575b6000565b3460005760506076565b005b34600057605c6081565b604051808215151515815260200191505060405180910390f35b600c6000819055505b565b600060896076565b600d600081905550600e6001819055505b905600a165627a7a72305820b7c6987c21e63fed8a74d899557744a3be8d3fda191ce0f56cf261d6b860f6b40029",
                "nonce" : "0x00",
                "storage" : {
                }
            },
            "0xa94f5374fce5edbc8e2a8697c15331677e6ebf0b" : {
                "balance" : "0xe8d4a51000",
                "code" : "",
                "nonce" : "0x00",
                "storage" : {
                }
            }
        }
    },
    "RevertSubCallStorageOOG2_d0g1v1_Frontier" : {
        "_info" : {
            "comment" : "",
            "filledwith" : "cpp-1.3.0+commit.6e0ce939.Linux.g++",
            "lllcversion" : "Version: 0.4.18-develop.2017.9.25+commit.a72237f2.Linux.g++",
            "source" : "src/BlockchainTestsFiller/GeneralStateTests/stRevertTest/RevertSubCallStorageOOG2_d0g1v1Filler.json",
            "sourceHash" : "853afc3e5b8858f4f4cff2511c1d5d0bf170c113e09469935db08c7eee6e281d"
        },
        "blocks" : [
            {
                "blockHeader" : {
                    "bloom" : "0x00000000000000000000000000000000000000000000000000000000000000000000000000000000000000000000000000000000000000000000000000000000000000000000000000000000000000000000000000000000000000000000000000000000000000000000000000000000000000000000000000000000000000000000000000000000000000000000000000000000000000000000000000000000000000000000000000000000000000000000000000000000000000000000000000000000000000000000000000000000000000000000000000000000000000000000000000000000000000000000000000000000000000000000000000000000",
                    "coinbase" : "0x2adc25665018aa1fe0e6bc666dac8fc2697ff9ba",
                    "difficulty" : "0x020000",
                    "extraData" : "",
                    "gasLimit" : "0x989680",
                    "gasUsed" : "0x02c308",
                    "hash" : "0x1de83b4ddb1419bd9a579a9e894e6b841e5fe18619eb341d415e642b3bbfa124",
                    "mixHash" : "0x29d97e0fe1f646e7edf6d65243c59cdb27a8c42f39d54eee97cf8360d0a7b826",
                    "nonce" : "0x1dad406cdcc14815",
                    "number" : "0x01",
                    "parentHash" : "0x7c700d11409534b7aca1879d490020779a5c324eb69ff33422192be6b150af7d",
                    "receiptTrie" : "0xceceb7bd43cd438513e34f52cd956dfc28ba249a41f56e3c2c4b6d5e251fc635",
                    "stateRoot" : "0x1ec08514a54a4d9dc8ebcd5b4e2f02ad6428ecc8ad85ce49af0019f69dda1a74",
                    "timestamp" : "0x03e8",
                    "transactionsTrie" : "0xb415bd35fe0e64413510fc89329f197ae0eb68df955145ac5f97a2eb5f025b95",
                    "uncleHash" : "0x1dcc4de8dec75d7aab85b567b6ccd41ad312451b948a7413f0a142fd40d49347"
                },
                "rlp" : "0xf90264f901f8a07c700d11409534b7aca1879d490020779a5c324eb69ff33422192be6b150af7da01dcc4de8dec75d7aab85b567b6ccd41ad312451b948a7413f0a142fd40d49347942adc25665018aa1fe0e6bc666dac8fc2697ff9baa01ec08514a54a4d9dc8ebcd5b4e2f02ad6428ecc8ad85ce49af0019f69dda1a74a0b415bd35fe0e64413510fc89329f197ae0eb68df955145ac5f97a2eb5f025b95a0ceceb7bd43cd438513e34f52cd956dfc28ba249a41f56e3c2c4b6d5e251fc635b90100000000000000000000000000000000000000000000000000000000000000000000000000000000000000000000000000000000000000000000000000000000000000000000000000000000000000000000000000000000000000000000000000000000000000000000000000000000000000000000000000000000000000000000000000000000000000000000000000000000000000000000000000000000000000000000000000000000000000000000000000000000000000000000000000000000000000000000000000000000000000000000000000000000000000000000000000000000000000000000000000000000000000000000000000000000008302000001839896808302c3088203e880a029d97e0fe1f646e7edf6d65243c59cdb27a8c42f39d54eee97cf8360d0a7b826881dad406cdcc14815f866f86480018302c30894a0000000000000000000000000000000000000000184c04062261ca08b2261fe602738d6853da8f1121679f6dc2286bef0fc235e67c2e537142a93faa026ba115a962be542d894ee59793cc9095557f7d1b82540cccbae35074c5f5af6c0",
                "transactions" : [
                    {
                        "data" : "0xc0406226",
                        "gasLimit" : "0x02c308",
                        "gasPrice" : "0x01",
                        "nonce" : "0x00",
                        "r" : "0x8b2261fe602738d6853da8f1121679f6dc2286bef0fc235e67c2e537142a93fa",
                        "s" : "0x26ba115a962be542d894ee59793cc9095557f7d1b82540cccbae35074c5f5af6",
                        "to" : "0xa000000000000000000000000000000000000000",
                        "v" : "0x1c",
                        "value" : "0x01"
                    }
                ],
                "uncleHeaders" : [
                ]
            }
        ],
        "genesisBlockHeader" : {
            "bloom" : "0x00000000000000000000000000000000000000000000000000000000000000000000000000000000000000000000000000000000000000000000000000000000000000000000000000000000000000000000000000000000000000000000000000000000000000000000000000000000000000000000000000000000000000000000000000000000000000000000000000000000000000000000000000000000000000000000000000000000000000000000000000000000000000000000000000000000000000000000000000000000000000000000000000000000000000000000000000000000000000000000000000000000000000000000000000000000",
            "coinbase" : "0x2adc25665018aa1fe0e6bc666dac8fc2697ff9ba",
            "difficulty" : "0x020000",
            "extraData" : "0x42",
            "gasLimit" : "0x989680",
            "gasUsed" : "0x00",
            "hash" : "0x7c700d11409534b7aca1879d490020779a5c324eb69ff33422192be6b150af7d",
            "mixHash" : "0x56e81f171bcc55a6ff8345e692c0f86e5b48e01b996cadc001622fb5e363b421",
            "nonce" : "0x0102030405060708",
            "number" : "0x00",
            "parentHash" : "0x0000000000000000000000000000000000000000000000000000000000000000",
            "receiptTrie" : "0x56e81f171bcc55a6ff8345e692c0f86e5b48e01b996cadc001622fb5e363b421",
            "stateRoot" : "0xf353193b99eb46e7a469c00fa91be2359f2eb9278c9287f1e0fdd3f4137074e2",
            "timestamp" : "0x03b6",
            "transactionsTrie" : "0x56e81f171bcc55a6ff8345e692c0f86e5b48e01b996cadc001622fb5e363b421",
            "uncleHash" : "0x1dcc4de8dec75d7aab85b567b6ccd41ad312451b948a7413f0a142fd40d49347"
        },
        "genesisRLP" : "0xf901faf901f5a00000000000000000000000000000000000000000000000000000000000000000a01dcc4de8dec75d7aab85b567b6ccd41ad312451b948a7413f0a142fd40d49347942adc25665018aa1fe0e6bc666dac8fc2697ff9baa0f353193b99eb46e7a469c00fa91be2359f2eb9278c9287f1e0fdd3f4137074e2a056e81f171bcc55a6ff8345e692c0f86e5b48e01b996cadc001622fb5e363b421a056e81f171bcc55a6ff8345e692c0f86e5b48e01b996cadc001622fb5e363b421b9010000000000000000000000000000000000000000000000000000000000000000000000000000000000000000000000000000000000000000000000000000000000000000000000000000000000000000000000000000000000000000000000000000000000000000000000000000000000000000000000000000000000000000000000000000000000000000000000000000000000000000000000000000000000000000000000000000000000000000000000000000000000000000000000000000000000000000000000000000000000000000000000000000000000000000000000000000000000000000000000000000000000000000000000000000000000830200008083989680808203b642a056e81f171bcc55a6ff8345e692c0f86e5b48e01b996cadc001622fb5e363b421880102030405060708c0c0",
        "lastblockhash" : "0x1de83b4ddb1419bd9a579a9e894e6b841e5fe18619eb341d415e642b3bbfa124",
        "network" : "Frontier",
        "postState" : {
            "0x2adc25665018aa1fe0e6bc666dac8fc2697ff9ba" : {
                "balance" : "0x4563918244f6c308",
                "code" : "",
                "nonce" : "0x00",
                "storage" : {
                }
            },
            "0xa000000000000000000000000000000000000000" : {
                "balance" : "0x01",
                "code" : "0x60606040526000357c0100000000000000000000000000000000000000000000000000000000900463ffffffff168063b28175c4146046578063c0406226146052575b6000565b3460005760506076565b005b34600057605c6081565b604051808215151515815260200191505060405180910390f35b600c6000819055505b565b600060896076565b600d600081905550600e6001819055505b905600a165627a7a72305820b7c6987c21e63fed8a74d899557744a3be8d3fda191ce0f56cf261d6b860f6b40029",
                "nonce" : "0x00",
                "storage" : {
                }
            },
            "0xa94f5374fce5edbc8e2a8697c15331677e6ebf0b" : {
                "balance" : "0xe8d4a24cf8",
                "code" : "",
                "nonce" : "0x01",
                "storage" : {
                }
            }
        },
        "pre" : {
            "0xa000000000000000000000000000000000000000" : {
                "balance" : "0x01",
                "code" : "0x60606040526000357c0100000000000000000000000000000000000000000000000000000000900463ffffffff168063b28175c4146046578063c0406226146052575b6000565b3460005760506076565b005b34600057605c6081565b604051808215151515815260200191505060405180910390f35b600c6000819055505b565b600060896076565b600d600081905550600e6001819055505b905600a165627a7a72305820b7c6987c21e63fed8a74d899557744a3be8d3fda191ce0f56cf261d6b860f6b40029",
                "nonce" : "0x00",
                "storage" : {
                }
            },
            "0xa94f5374fce5edbc8e2a8697c15331677e6ebf0b" : {
                "balance" : "0xe8d4a51000",
                "code" : "",
                "nonce" : "0x00",
                "storage" : {
                }
            }
        }
    },
    "RevertSubCallStorageOOG2_d0g1v1_Homestead" : {
        "_info" : {
            "comment" : "",
            "filledwith" : "cpp-1.3.0+commit.6e0ce939.Linux.g++",
            "lllcversion" : "Version: 0.4.18-develop.2017.9.25+commit.a72237f2.Linux.g++",
            "source" : "src/BlockchainTestsFiller/GeneralStateTests/stRevertTest/RevertSubCallStorageOOG2_d0g1v1Filler.json",
            "sourceHash" : "853afc3e5b8858f4f4cff2511c1d5d0bf170c113e09469935db08c7eee6e281d"
        },
        "blocks" : [
            {
                "blockHeader" : {
                    "bloom" : "0x00000000000000000000000000000000000000000000000000000000000000000000000000000000000000000000000000000000000000000000000000000000000000000000000000000000000000000000000000000000000000000000000000000000000000000000000000000000000000000000000000000000000000000000000000000000000000000000000000000000000000000000000000000000000000000000000000000000000000000000000000000000000000000000000000000000000000000000000000000000000000000000000000000000000000000000000000000000000000000000000000000000000000000000000000000000",
                    "coinbase" : "0x2adc25665018aa1fe0e6bc666dac8fc2697ff9ba",
                    "difficulty" : "0x020000",
                    "extraData" : "",
                    "gasLimit" : "0x989680",
                    "gasUsed" : "0x02c308",
                    "hash" : "0x9d5ef30c26fd1b316e2382d8917ec0c1caceea0aed1b40a085d26188fdbad974",
                    "mixHash" : "0x2114d565c66a62d7adfe1e79b562b45f29384fb765ae90ad91c86a757d3bdae2",
                    "nonce" : "0x5b94c3635dff666a",
                    "number" : "0x01",
                    "parentHash" : "0x7c700d11409534b7aca1879d490020779a5c324eb69ff33422192be6b150af7d",
                    "receiptTrie" : "0xceceb7bd43cd438513e34f52cd956dfc28ba249a41f56e3c2c4b6d5e251fc635",
                    "stateRoot" : "0x1ec08514a54a4d9dc8ebcd5b4e2f02ad6428ecc8ad85ce49af0019f69dda1a74",
                    "timestamp" : "0x03e8",
                    "transactionsTrie" : "0xb415bd35fe0e64413510fc89329f197ae0eb68df955145ac5f97a2eb5f025b95",
                    "uncleHash" : "0x1dcc4de8dec75d7aab85b567b6ccd41ad312451b948a7413f0a142fd40d49347"
                },
                "rlp" : "0xf90264f901f8a07c700d11409534b7aca1879d490020779a5c324eb69ff33422192be6b150af7da01dcc4de8dec75d7aab85b567b6ccd41ad312451b948a7413f0a142fd40d49347942adc25665018aa1fe0e6bc666dac8fc2697ff9baa01ec08514a54a4d9dc8ebcd5b4e2f02ad6428ecc8ad85ce49af0019f69dda1a74a0b415bd35fe0e64413510fc89329f197ae0eb68df955145ac5f97a2eb5f025b95a0ceceb7bd43cd438513e34f52cd956dfc28ba249a41f56e3c2c4b6d5e251fc635b90100000000000000000000000000000000000000000000000000000000000000000000000000000000000000000000000000000000000000000000000000000000000000000000000000000000000000000000000000000000000000000000000000000000000000000000000000000000000000000000000000000000000000000000000000000000000000000000000000000000000000000000000000000000000000000000000000000000000000000000000000000000000000000000000000000000000000000000000000000000000000000000000000000000000000000000000000000000000000000000000000000000000000000000000000000000008302000001839896808302c3088203e880a02114d565c66a62d7adfe1e79b562b45f29384fb765ae90ad91c86a757d3bdae2885b94c3635dff666af866f86480018302c30894a0000000000000000000000000000000000000000184c04062261ca08b2261fe602738d6853da8f1121679f6dc2286bef0fc235e67c2e537142a93faa026ba115a962be542d894ee59793cc9095557f7d1b82540cccbae35074c5f5af6c0",
                "transactions" : [
                    {
                        "data" : "0xc0406226",
                        "gasLimit" : "0x02c308",
                        "gasPrice" : "0x01",
                        "nonce" : "0x00",
                        "r" : "0x8b2261fe602738d6853da8f1121679f6dc2286bef0fc235e67c2e537142a93fa",
                        "s" : "0x26ba115a962be542d894ee59793cc9095557f7d1b82540cccbae35074c5f5af6",
                        "to" : "0xa000000000000000000000000000000000000000",
                        "v" : "0x1c",
                        "value" : "0x01"
                    }
                ],
                "uncleHeaders" : [
                ]
            }
        ],
        "genesisBlockHeader" : {
            "bloom" : "0x00000000000000000000000000000000000000000000000000000000000000000000000000000000000000000000000000000000000000000000000000000000000000000000000000000000000000000000000000000000000000000000000000000000000000000000000000000000000000000000000000000000000000000000000000000000000000000000000000000000000000000000000000000000000000000000000000000000000000000000000000000000000000000000000000000000000000000000000000000000000000000000000000000000000000000000000000000000000000000000000000000000000000000000000000000000",
            "coinbase" : "0x2adc25665018aa1fe0e6bc666dac8fc2697ff9ba",
            "difficulty" : "0x020000",
            "extraData" : "0x42",
            "gasLimit" : "0x989680",
            "gasUsed" : "0x00",
            "hash" : "0x7c700d11409534b7aca1879d490020779a5c324eb69ff33422192be6b150af7d",
            "mixHash" : "0x56e81f171bcc55a6ff8345e692c0f86e5b48e01b996cadc001622fb5e363b421",
            "nonce" : "0x0102030405060708",
            "number" : "0x00",
            "parentHash" : "0x0000000000000000000000000000000000000000000000000000000000000000",
            "receiptTrie" : "0x56e81f171bcc55a6ff8345e692c0f86e5b48e01b996cadc001622fb5e363b421",
            "stateRoot" : "0xf353193b99eb46e7a469c00fa91be2359f2eb9278c9287f1e0fdd3f4137074e2",
            "timestamp" : "0x03b6",
            "transactionsTrie" : "0x56e81f171bcc55a6ff8345e692c0f86e5b48e01b996cadc001622fb5e363b421",
            "uncleHash" : "0x1dcc4de8dec75d7aab85b567b6ccd41ad312451b948a7413f0a142fd40d49347"
        },
        "genesisRLP" : "0xf901faf901f5a00000000000000000000000000000000000000000000000000000000000000000a01dcc4de8dec75d7aab85b567b6ccd41ad312451b948a7413f0a142fd40d49347942adc25665018aa1fe0e6bc666dac8fc2697ff9baa0f353193b99eb46e7a469c00fa91be2359f2eb9278c9287f1e0fdd3f4137074e2a056e81f171bcc55a6ff8345e692c0f86e5b48e01b996cadc001622fb5e363b421a056e81f171bcc55a6ff8345e692c0f86e5b48e01b996cadc001622fb5e363b421b9010000000000000000000000000000000000000000000000000000000000000000000000000000000000000000000000000000000000000000000000000000000000000000000000000000000000000000000000000000000000000000000000000000000000000000000000000000000000000000000000000000000000000000000000000000000000000000000000000000000000000000000000000000000000000000000000000000000000000000000000000000000000000000000000000000000000000000000000000000000000000000000000000000000000000000000000000000000000000000000000000000000000000000000000000000000000830200008083989680808203b642a056e81f171bcc55a6ff8345e692c0f86e5b48e01b996cadc001622fb5e363b421880102030405060708c0c0",
        "lastblockhash" : "0x9d5ef30c26fd1b316e2382d8917ec0c1caceea0aed1b40a085d26188fdbad974",
        "network" : "Homestead",
        "postState" : {
            "0x2adc25665018aa1fe0e6bc666dac8fc2697ff9ba" : {
                "balance" : "0x4563918244f6c308",
                "code" : "",
                "nonce" : "0x00",
                "storage" : {
                }
            },
            "0xa000000000000000000000000000000000000000" : {
                "balance" : "0x01",
                "code" : "0x60606040526000357c0100000000000000000000000000000000000000000000000000000000900463ffffffff168063b28175c4146046578063c0406226146052575b6000565b3460005760506076565b005b34600057605c6081565b604051808215151515815260200191505060405180910390f35b600c6000819055505b565b600060896076565b600d600081905550600e6001819055505b905600a165627a7a72305820b7c6987c21e63fed8a74d899557744a3be8d3fda191ce0f56cf261d6b860f6b40029",
                "nonce" : "0x00",
                "storage" : {
                }
            },
            "0xa94f5374fce5edbc8e2a8697c15331677e6ebf0b" : {
                "balance" : "0xe8d4a24cf8",
                "code" : "",
                "nonce" : "0x01",
                "storage" : {
                }
            }
        },
        "pre" : {
            "0xa000000000000000000000000000000000000000" : {
                "balance" : "0x01",
                "code" : "0x60606040526000357c0100000000000000000000000000000000000000000000000000000000900463ffffffff168063b28175c4146046578063c0406226146052575b6000565b3460005760506076565b005b34600057605c6081565b604051808215151515815260200191505060405180910390f35b600c6000819055505b565b600060896076565b600d600081905550600e6001819055505b905600a165627a7a72305820b7c6987c21e63fed8a74d899557744a3be8d3fda191ce0f56cf261d6b860f6b40029",
                "nonce" : "0x00",
                "storage" : {
                }
            },
            "0xa94f5374fce5edbc8e2a8697c15331677e6ebf0b" : {
                "balance" : "0xe8d4a51000",
                "code" : "",
                "nonce" : "0x00",
                "storage" : {
                }
            }
        }
    }
}