{
    "RevertOpcode_d0g0v0_Byzantium" : {
        "_info" : {
            "comment" : "",
            "filledwith" : "cpp-1.3.0+commit.6e0ce939.Linux.g++",
            "lllcversion" : "Version: 0.4.18-develop.2017.9.25+commit.a72237f2.Linux.g++",
            "source" : "src/BlockchainTestsFiller/GeneralStateTests/stRevertTest/RevertOpcode_d0g0v0Filler.json",
            "sourceHash" : "4eb5eba825ff3274cc29d9f24a9c5cb6947b4c0f017ba98d0eb5cb05a687effc"
        },
        "blocks" : [
            {
                "blockHeader" : {
                    "bloom" : "0x00000000000000000000000000000000000000000000000000000000000000000000000000000000000000000000000000000000000000000000000000000000000000000000000000000000000000000000000000000000000000000000000000000000000000000000000000000000000000000000000000000000000000000000000000000000000000000000000000000000000000000000000000000000000000000000000000000000000000000000000000000000000000000000000000000000000000000000000000000000000000000000000000000000000000000000000000000000000000000000000000000000000000000000000000000000",
                    "coinbase" : "0x2adc25665018aa1fe0e6bc666dac8fc2697ff9ba",
                    "difficulty" : "0x020000",
                    "extraData" : "",
                    "gasLimit" : "0x989680",
                    "gasUsed" : "0xa037",
                    "hash" : "0xbb58c6185de44c7b60aaac71d68373b05ed83108787339e70d7cf1f629bf5135",
                    "mixHash" : "0x08f5e080855659b596d137135006c687ae5ccedccb89efc9b8744ae95d9b5c76",
                    "nonce" : "0x97f0fa50c7cfdbe1",
                    "number" : "0x01",
                    "parentHash" : "0xa6c854682c8d7fcab780f81abfbf3e260b07d83426da6387e3c8e2931943309e",
                    "receiptTrie" : "0x5c30cc631818cdb3019c31b84be5cef56e387b8388140444377adee1f6fbf8c4",
                    "stateRoot" : "0x0396337acc649be1e6bf6f1e9bcb6c6e99eae9ba1d3bbe49cde6a0c1dae63a64",
                    "timestamp" : "0x03e8",
                    "transactionsTrie" : "0x4771c392324296274c26974af88d8f86e633a69800f8136c89273db20f04b758",
                    "uncleHash" : "0x1dcc4de8dec75d7aab85b567b6ccd41ad312451b948a7413f0a142fd40d49347"
                },
                "rlp" : "0xf9025ff901f7a0a6c854682c8d7fcab780f81abfbf3e260b07d83426da6387e3c8e2931943309ea01dcc4de8dec75d7aab85b567b6ccd41ad312451b948a7413f0a142fd40d49347942adc25665018aa1fe0e6bc666dac8fc2697ff9baa00396337acc649be1e6bf6f1e9bcb6c6e99eae9ba1d3bbe49cde6a0c1dae63a64a04771c392324296274c26974af88d8f86e633a69800f8136c89273db20f04b758a05c30cc631818cdb3019c31b84be5cef56e387b8388140444377adee1f6fbf8c4b901000000000000000000000000000000000000000000000000000000000000000000000000000000000000000000000000000000000000000000000000000000000000000000000000000000000000000000000000000000000000000000000000000000000000000000000000000000000000000000000000000000000000000000000000000000000000000000000000000000000000000000000000000000000000000000000000000000000000000000000000000000000000000000000000000000000000000000000000000000000000000000000000000000000000000000000000000000000000000000000000000000000000000000000000000000000083020000018398968082a0378203e880a008f5e080855659b596d137135006c687ae5ccedccb89efc9b8744ae95d9b5c768897f0fa50c7cfdbe1f862f8608001830c350094a00000000000000000000000000000000000000080801ba06a2f423bb3fe430329fbab1a3ee2fcab978a511856631dda961eb56896ade562a032976be7407a2f332c2449a28234103ebb8312909467b561fc271f027e1ed914c0",
                "transactions" : [
                    {
                        "data" : "",
                        "gasLimit" : "0x0c3500",
                        "gasPrice" : "0x01",
                        "nonce" : "0x00",
                        "r" : "0x6a2f423bb3fe430329fbab1a3ee2fcab978a511856631dda961eb56896ade562",
                        "s" : "0x32976be7407a2f332c2449a28234103ebb8312909467b561fc271f027e1ed914",
                        "to" : "0xa000000000000000000000000000000000000000",
                        "v" : "0x1b",
                        "value" : "0x00"
                    }
                ],
                "uncleHeaders" : [
                ]
            }
        ],
        "genesisBlockHeader" : {
            "bloom" : "0x00000000000000000000000000000000000000000000000000000000000000000000000000000000000000000000000000000000000000000000000000000000000000000000000000000000000000000000000000000000000000000000000000000000000000000000000000000000000000000000000000000000000000000000000000000000000000000000000000000000000000000000000000000000000000000000000000000000000000000000000000000000000000000000000000000000000000000000000000000000000000000000000000000000000000000000000000000000000000000000000000000000000000000000000000000000",
            "coinbase" : "0x2adc25665018aa1fe0e6bc666dac8fc2697ff9ba",
            "difficulty" : "0x020000",
            "extraData" : "0x42",
            "gasLimit" : "0x989680",
            "gasUsed" : "0x00",
            "hash" : "0xa6c854682c8d7fcab780f81abfbf3e260b07d83426da6387e3c8e2931943309e",
            "mixHash" : "0x56e81f171bcc55a6ff8345e692c0f86e5b48e01b996cadc001622fb5e363b421",
            "nonce" : "0x0102030405060708",
            "number" : "0x00",
            "parentHash" : "0x0000000000000000000000000000000000000000000000000000000000000000",
            "receiptTrie" : "0x56e81f171bcc55a6ff8345e692c0f86e5b48e01b996cadc001622fb5e363b421",
            "stateRoot" : "0x860258f673d0e6520d540eac5ce7c862a205956598d8a614db8898c8be051e9f",
            "timestamp" : "0x03b6",
            "transactionsTrie" : "0x56e81f171bcc55a6ff8345e692c0f86e5b48e01b996cadc001622fb5e363b421",
            "uncleHash" : "0x1dcc4de8dec75d7aab85b567b6ccd41ad312451b948a7413f0a142fd40d49347"
        },
        "genesisRLP" : "0xf901faf901f5a00000000000000000000000000000000000000000000000000000000000000000a01dcc4de8dec75d7aab85b567b6ccd41ad312451b948a7413f0a142fd40d49347942adc25665018aa1fe0e6bc666dac8fc2697ff9baa0860258f673d0e6520d540eac5ce7c862a205956598d8a614db8898c8be051e9fa056e81f171bcc55a6ff8345e692c0f86e5b48e01b996cadc001622fb5e363b421a056e81f171bcc55a6ff8345e692c0f86e5b48e01b996cadc001622fb5e363b421b9010000000000000000000000000000000000000000000000000000000000000000000000000000000000000000000000000000000000000000000000000000000000000000000000000000000000000000000000000000000000000000000000000000000000000000000000000000000000000000000000000000000000000000000000000000000000000000000000000000000000000000000000000000000000000000000000000000000000000000000000000000000000000000000000000000000000000000000000000000000000000000000000000000000000000000000000000000000000000000000000000000000000000000000000000000000000830200008083989680808203b642a056e81f171bcc55a6ff8345e692c0f86e5b48e01b996cadc001622fb5e363b421880102030405060708c0c0",
        "lastblockhash" : "0xbb58c6185de44c7b60aaac71d68373b05ed83108787339e70d7cf1f629bf5135",
        "network" : "Byzantium",
        "postState" : {
            "0x2adc25665018aa1fe0e6bc666dac8fc2697ff9ba" : {
                "balance" : "0x29a2241af62ca037",
                "code" : "",
                "nonce" : "0x00",
                "storage" : {
                }
            },
            "0xa000000000000000000000000000000000000000" : {
                "balance" : "0x00",
                "code" : "0x600160005560016000fd6011600155",
                "nonce" : "0x00",
                "storage" : {
                }
            },
            "0xa94f5374fce5edbc8e2a8697c15331677e6ebf0b" : {
                "balance" : "0xe8d4a46fc9",
                "code" : "",
                "nonce" : "0x01",
                "storage" : {
                }
            }
        },
        "pre" : {
            "0xa000000000000000000000000000000000000000" : {
                "balance" : "0x00",
                "code" : "0x600160005560016000fd6011600155",
                "nonce" : "0x00",
                "storage" : {
                }
            },
            "0xa94f5374fce5edbc8e2a8697c15331677e6ebf0b" : {
                "balance" : "0xe8d4a51000",
                "code" : "",
                "nonce" : "0x00",
                "storage" : {
                }
            }
        }
    },
    "RevertOpcode_d0g0v0_EIP150" : {
        "_info" : {
            "comment" : "",
            "filledwith" : "cpp-1.3.0+commit.6e0ce939.Linux.g++",
            "lllcversion" : "Version: 0.4.18-develop.2017.9.25+commit.a72237f2.Linux.g++",
            "source" : "src/BlockchainTestsFiller/GeneralStateTests/stRevertTest/RevertOpcode_d0g0v0Filler.json",
            "sourceHash" : "4eb5eba825ff3274cc29d9f24a9c5cb6947b4c0f017ba98d0eb5cb05a687effc"
        },
        "blocks" : [
            {
                "blockHeader" : {
                    "bloom" : "0x00000000000000000000000000000000000000000000000000000000000000000000000000000000000000000000000000000000000000000000000000000000000000000000000000000000000000000000000000000000000000000000000000000000000000000000000000000000000000000000000000000000000000000000000000000000000000000000000000000000000000000000000000000000000000000000000000000000000000000000000000000000000000000000000000000000000000000000000000000000000000000000000000000000000000000000000000000000000000000000000000000000000000000000000000000000",
                    "coinbase" : "0x2adc25665018aa1fe0e6bc666dac8fc2697ff9ba",
                    "difficulty" : "0x020000",
                    "extraData" : "",
                    "gasLimit" : "0x989680",
                    "gasUsed" : "0x0c3500",
                    "hash" : "0xa437b1699c0e106e91bd3236a0fbed44d6b537641bcf854f780d2800b6ce71bd",
                    "mixHash" : "0x231096a76c1b18cb3e53b0bc7a8698b9b6816c69651fba74425686903cb9a0a5",
                    "nonce" : "0xf0c958964cf5f3b6",
                    "number" : "0x01",
                    "parentHash" : "0xa6c854682c8d7fcab780f81abfbf3e260b07d83426da6387e3c8e2931943309e",
                    "receiptTrie" : "0x7dcd05c790a6ed503a15b7b0688335ba95cdb30f2a078be9b467658fbf59bb51",
                    "stateRoot" : "0xf102cc3981251cbe5daf4ce2a3ae234f7f637261060b544c461fa32e987561b7",
                    "timestamp" : "0x03e8",
                    "transactionsTrie" : "0x4771c392324296274c26974af88d8f86e633a69800f8136c89273db20f04b758",
                    "uncleHash" : "0x1dcc4de8dec75d7aab85b567b6ccd41ad312451b948a7413f0a142fd40d49347"
                },
                "rlp" : "0xf90260f901f8a0a6c854682c8d7fcab780f81abfbf3e260b07d83426da6387e3c8e2931943309ea01dcc4de8dec75d7aab85b567b6ccd41ad312451b948a7413f0a142fd40d49347942adc25665018aa1fe0e6bc666dac8fc2697ff9baa0f102cc3981251cbe5daf4ce2a3ae234f7f637261060b544c461fa32e987561b7a04771c392324296274c26974af88d8f86e633a69800f8136c89273db20f04b758a07dcd05c790a6ed503a15b7b0688335ba95cdb30f2a078be9b467658fbf59bb51b9010000000000000000000000000000000000000000000000000000000000000000000000000000000000000000000000000000000000000000000000000000000000000000000000000000000000000000000000000000000000000000000000000000000000000000000000000000000000000000000000000000000000000000000000000000000000000000000000000000000000000000000000000000000000000000000000000000000000000000000000000000000000000000000000000000000000000000000000000000000000000000000000000000000000000000000000000000000000000000000000000000000000000000000000000000000000830200000183989680830c35008203e880a0231096a76c1b18cb3e53b0bc7a8698b9b6816c69651fba74425686903cb9a0a588f0c958964cf5f3b6f862f8608001830c350094a00000000000000000000000000000000000000080801ba06a2f423bb3fe430329fbab1a3ee2fcab978a511856631dda961eb56896ade562a032976be7407a2f332c2449a28234103ebb8312909467b561fc271f027e1ed914c0",
                "transactions" : [
                    {
                        "data" : "",
                        "gasLimit" : "0x0c3500",
                        "gasPrice" : "0x01",
                        "nonce" : "0x00",
                        "r" : "0x6a2f423bb3fe430329fbab1a3ee2fcab978a511856631dda961eb56896ade562",
                        "s" : "0x32976be7407a2f332c2449a28234103ebb8312909467b561fc271f027e1ed914",
                        "to" : "0xa000000000000000000000000000000000000000",
                        "v" : "0x1b",
                        "value" : "0x00"
                    }
                ],
                "uncleHeaders" : [
                ]
            }
        ],
        "genesisBlockHeader" : {
            "bloom" : "0x00000000000000000000000000000000000000000000000000000000000000000000000000000000000000000000000000000000000000000000000000000000000000000000000000000000000000000000000000000000000000000000000000000000000000000000000000000000000000000000000000000000000000000000000000000000000000000000000000000000000000000000000000000000000000000000000000000000000000000000000000000000000000000000000000000000000000000000000000000000000000000000000000000000000000000000000000000000000000000000000000000000000000000000000000000000",
            "coinbase" : "0x2adc25665018aa1fe0e6bc666dac8fc2697ff9ba",
            "difficulty" : "0x020000",
            "extraData" : "0x42",
            "gasLimit" : "0x989680",
            "gasUsed" : "0x00",
            "hash" : "0xa6c854682c8d7fcab780f81abfbf3e260b07d83426da6387e3c8e2931943309e",
            "mixHash" : "0x56e81f171bcc55a6ff8345e692c0f86e5b48e01b996cadc001622fb5e363b421",
            "nonce" : "0x0102030405060708",
            "number" : "0x00",
            "parentHash" : "0x0000000000000000000000000000000000000000000000000000000000000000",
            "receiptTrie" : "0x56e81f171bcc55a6ff8345e692c0f86e5b48e01b996cadc001622fb5e363b421",
            "stateRoot" : "0x860258f673d0e6520d540eac5ce7c862a205956598d8a614db8898c8be051e9f",
            "timestamp" : "0x03b6",
            "transactionsTrie" : "0x56e81f171bcc55a6ff8345e692c0f86e5b48e01b996cadc001622fb5e363b421",
            "uncleHash" : "0x1dcc4de8dec75d7aab85b567b6ccd41ad312451b948a7413f0a142fd40d49347"
        },
        "genesisRLP" : "0xf901faf901f5a00000000000000000000000000000000000000000000000000000000000000000a01dcc4de8dec75d7aab85b567b6ccd41ad312451b948a7413f0a142fd40d49347942adc25665018aa1fe0e6bc666dac8fc2697ff9baa0860258f673d0e6520d540eac5ce7c862a205956598d8a614db8898c8be051e9fa056e81f171bcc55a6ff8345e692c0f86e5b48e01b996cadc001622fb5e363b421a056e81f171bcc55a6ff8345e692c0f86e5b48e01b996cadc001622fb5e363b421b9010000000000000000000000000000000000000000000000000000000000000000000000000000000000000000000000000000000000000000000000000000000000000000000000000000000000000000000000000000000000000000000000000000000000000000000000000000000000000000000000000000000000000000000000000000000000000000000000000000000000000000000000000000000000000000000000000000000000000000000000000000000000000000000000000000000000000000000000000000000000000000000000000000000000000000000000000000000000000000000000000000000000000000000000000000000000830200008083989680808203b642a056e81f171bcc55a6ff8345e692c0f86e5b48e01b996cadc001622fb5e363b421880102030405060708c0c0",
        "lastblockhash" : "0xa437b1699c0e106e91bd3236a0fbed44d6b537641bcf854f780d2800b6ce71bd",
        "network" : "EIP150",
        "postState" : {
            "0x2adc25665018aa1fe0e6bc666dac8fc2697ff9ba" : {
                "balance" : "0x4563918245003500",
                "code" : "",
                "nonce" : "0x00",
                "storage" : {
                }
            },
            "0xa000000000000000000000000000000000000000" : {
                "balance" : "0x00",
                "code" : "0x600160005560016000fd6011600155",
                "nonce" : "0x00",
                "storage" : {
                }
            },
            "0xa94f5374fce5edbc8e2a8697c15331677e6ebf0b" : {
                "balance" : "0xe8d498db00",
                "code" : "",
                "nonce" : "0x01",
                "storage" : {
                }
            }
        },
        "pre" : {
            "0xa000000000000000000000000000000000000000" : {
                "balance" : "0x00",
                "code" : "0x600160005560016000fd6011600155",
                "nonce" : "0x00",
                "storage" : {
                }
            },
            "0xa94f5374fce5edbc8e2a8697c15331677e6ebf0b" : {
                "balance" : "0xe8d4a51000",
                "code" : "",
                "nonce" : "0x00",
                "storage" : {
                }
            }
        }
    },
    "RevertOpcode_d0g0v0_EIP158" : {
        "_info" : {
            "comment" : "",
            "filledwith" : "cpp-1.3.0+commit.6e0ce939.Linux.g++",
            "lllcversion" : "Version: 0.4.18-develop.2017.9.25+commit.a72237f2.Linux.g++",
            "source" : "src/BlockchainTestsFiller/GeneralStateTests/stRevertTest/RevertOpcode_d0g0v0Filler.json",
            "sourceHash" : "4eb5eba825ff3274cc29d9f24a9c5cb6947b4c0f017ba98d0eb5cb05a687effc"
        },
        "blocks" : [
            {
                "blockHeader" : {
                    "bloom" : "0x00000000000000000000000000000000000000000000000000000000000000000000000000000000000000000000000000000000000000000000000000000000000000000000000000000000000000000000000000000000000000000000000000000000000000000000000000000000000000000000000000000000000000000000000000000000000000000000000000000000000000000000000000000000000000000000000000000000000000000000000000000000000000000000000000000000000000000000000000000000000000000000000000000000000000000000000000000000000000000000000000000000000000000000000000000000",
                    "coinbase" : "0x2adc25665018aa1fe0e6bc666dac8fc2697ff9ba",
                    "difficulty" : "0x020000",
                    "extraData" : "",
                    "gasLimit" : "0x989680",
                    "gasUsed" : "0x0c3500",
                    "hash" : "0xa6bda2cd2801fd01d86e344ef820df9684cfc12d8ab966dafbc4b226bcb3af14",
                    "mixHash" : "0xbda30a3a642be75d0016564b3d13b908640f5edcafba2bebf525eb7be84963a0",
                    "nonce" : "0x8d51a613c78ed243",
                    "number" : "0x01",
                    "parentHash" : "0xa6c854682c8d7fcab780f81abfbf3e260b07d83426da6387e3c8e2931943309e",
                    "receiptTrie" : "0x7dcd05c790a6ed503a15b7b0688335ba95cdb30f2a078be9b467658fbf59bb51",
                    "stateRoot" : "0xf102cc3981251cbe5daf4ce2a3ae234f7f637261060b544c461fa32e987561b7",
                    "timestamp" : "0x03e8",
                    "transactionsTrie" : "0x4771c392324296274c26974af88d8f86e633a69800f8136c89273db20f04b758",
                    "uncleHash" : "0x1dcc4de8dec75d7aab85b567b6ccd41ad312451b948a7413f0a142fd40d49347"
                },
                "rlp" : "0xf90260f901f8a0a6c854682c8d7fcab780f81abfbf3e260b07d83426da6387e3c8e2931943309ea01dcc4de8dec75d7aab85b567b6ccd41ad312451b948a7413f0a142fd40d49347942adc25665018aa1fe0e6bc666dac8fc2697ff9baa0f102cc3981251cbe5daf4ce2a3ae234f7f637261060b544c461fa32e987561b7a04771c392324296274c26974af88d8f86e633a69800f8136c89273db20f04b758a07dcd05c790a6ed503a15b7b0688335ba95cdb30f2a078be9b467658fbf59bb51b9010000000000000000000000000000000000000000000000000000000000000000000000000000000000000000000000000000000000000000000000000000000000000000000000000000000000000000000000000000000000000000000000000000000000000000000000000000000000000000000000000000000000000000000000000000000000000000000000000000000000000000000000000000000000000000000000000000000000000000000000000000000000000000000000000000000000000000000000000000000000000000000000000000000000000000000000000000000000000000000000000000000000000000000000000000000000830200000183989680830c35008203e880a0bda30a3a642be75d0016564b3d13b908640f5edcafba2bebf525eb7be84963a0888d51a613c78ed243f862f8608001830c350094a00000000000000000000000000000000000000080801ba06a2f423bb3fe430329fbab1a3ee2fcab978a511856631dda961eb56896ade562a032976be7407a2f332c2449a28234103ebb8312909467b561fc271f027e1ed914c0",
                "transactions" : [
                    {
                        "data" : "",
                        "gasLimit" : "0x0c3500",
                        "gasPrice" : "0x01",
                        "nonce" : "0x00",
                        "r" : "0x6a2f423bb3fe430329fbab1a3ee2fcab978a511856631dda961eb56896ade562",
                        "s" : "0x32976be7407a2f332c2449a28234103ebb8312909467b561fc271f027e1ed914",
                        "to" : "0xa000000000000000000000000000000000000000",
                        "v" : "0x1b",
                        "value" : "0x00"
                    }
                ],
                "uncleHeaders" : [
                ]
            }
        ],
        "genesisBlockHeader" : {
            "bloom" : "0x00000000000000000000000000000000000000000000000000000000000000000000000000000000000000000000000000000000000000000000000000000000000000000000000000000000000000000000000000000000000000000000000000000000000000000000000000000000000000000000000000000000000000000000000000000000000000000000000000000000000000000000000000000000000000000000000000000000000000000000000000000000000000000000000000000000000000000000000000000000000000000000000000000000000000000000000000000000000000000000000000000000000000000000000000000000",
            "coinbase" : "0x2adc25665018aa1fe0e6bc666dac8fc2697ff9ba",
            "difficulty" : "0x020000",
            "extraData" : "0x42",
            "gasLimit" : "0x989680",
            "gasUsed" : "0x00",
            "hash" : "0xa6c854682c8d7fcab780f81abfbf3e260b07d83426da6387e3c8e2931943309e",
            "mixHash" : "0x56e81f171bcc55a6ff8345e692c0f86e5b48e01b996cadc001622fb5e363b421",
            "nonce" : "0x0102030405060708",
            "number" : "0x00",
            "parentHash" : "0x0000000000000000000000000000000000000000000000000000000000000000",
            "receiptTrie" : "0x56e81f171bcc55a6ff8345e692c0f86e5b48e01b996cadc001622fb5e363b421",
            "stateRoot" : "0x860258f673d0e6520d540eac5ce7c862a205956598d8a614db8898c8be051e9f",
            "timestamp" : "0x03b6",
            "transactionsTrie" : "0x56e81f171bcc55a6ff8345e692c0f86e5b48e01b996cadc001622fb5e363b421",
            "uncleHash" : "0x1dcc4de8dec75d7aab85b567b6ccd41ad312451b948a7413f0a142fd40d49347"
        },
        "genesisRLP" : "0xf901faf901f5a00000000000000000000000000000000000000000000000000000000000000000a01dcc4de8dec75d7aab85b567b6ccd41ad312451b948a7413f0a142fd40d49347942adc25665018aa1fe0e6bc666dac8fc2697ff9baa0860258f673d0e6520d540eac5ce7c862a205956598d8a614db8898c8be051e9fa056e81f171bcc55a6ff8345e692c0f86e5b48e01b996cadc001622fb5e363b421a056e81f171bcc55a6ff8345e692c0f86e5b48e01b996cadc001622fb5e363b421b9010000000000000000000000000000000000000000000000000000000000000000000000000000000000000000000000000000000000000000000000000000000000000000000000000000000000000000000000000000000000000000000000000000000000000000000000000000000000000000000000000000000000000000000000000000000000000000000000000000000000000000000000000000000000000000000000000000000000000000000000000000000000000000000000000000000000000000000000000000000000000000000000000000000000000000000000000000000000000000000000000000000000000000000000000000000000830200008083989680808203b642a056e81f171bcc55a6ff8345e692c0f86e5b48e01b996cadc001622fb5e363b421880102030405060708c0c0",
        "lastblockhash" : "0xa6bda2cd2801fd01d86e344ef820df9684cfc12d8ab966dafbc4b226bcb3af14",
        "network" : "EIP158",
        "postState" : {
            "0x2adc25665018aa1fe0e6bc666dac8fc2697ff9ba" : {
                "balance" : "0x4563918245003500",
                "code" : "",
                "nonce" : "0x00",
                "storage" : {
                }
            },
            "0xa000000000000000000000000000000000000000" : {
                "balance" : "0x00",
                "code" : "0x600160005560016000fd6011600155",
                "nonce" : "0x00",
                "storage" : {
                }
            },
            "0xa94f5374fce5edbc8e2a8697c15331677e6ebf0b" : {
                "balance" : "0xe8d498db00",
                "code" : "",
                "nonce" : "0x01",
                "storage" : {
                }
            }
        },
        "pre" : {
            "0xa000000000000000000000000000000000000000" : {
                "balance" : "0x00",
                "code" : "0x600160005560016000fd6011600155",
                "nonce" : "0x00",
                "storage" : {
                }
            },
            "0xa94f5374fce5edbc8e2a8697c15331677e6ebf0b" : {
                "balance" : "0xe8d4a51000",
                "code" : "",
                "nonce" : "0x00",
                "storage" : {
                }
            }
        }
    },
    "RevertOpcode_d0g0v0_Frontier" : {
        "_info" : {
            "comment" : "",
            "filledwith" : "cpp-1.3.0+commit.6e0ce939.Linux.g++",
            "lllcversion" : "Version: 0.4.18-develop.2017.9.25+commit.a72237f2.Linux.g++",
            "source" : "src/BlockchainTestsFiller/GeneralStateTests/stRevertTest/RevertOpcode_d0g0v0Filler.json",
            "sourceHash" : "4eb5eba825ff3274cc29d9f24a9c5cb6947b4c0f017ba98d0eb5cb05a687effc"
        },
        "blocks" : [
            {
                "blockHeader" : {
                    "bloom" : "0x00000000000000000000000000000000000000000000000000000000000000000000000000000000000000000000000000000000000000000000000000000000000000000000000000000000000000000000000000000000000000000000000000000000000000000000000000000000000000000000000000000000000000000000000000000000000000000000000000000000000000000000000000000000000000000000000000000000000000000000000000000000000000000000000000000000000000000000000000000000000000000000000000000000000000000000000000000000000000000000000000000000000000000000000000000000",
                    "coinbase" : "0x2adc25665018aa1fe0e6bc666dac8fc2697ff9ba",
                    "difficulty" : "0x020000",
                    "extraData" : "",
                    "gasLimit" : "0x989680",
                    "gasUsed" : "0x0c3500",
                    "hash" : "0x80a588b0554b2deb7834b2c98e5699b83794553271fae2be873e676b93cd5f56",
                    "mixHash" : "0x0df91ce063d11dfd9fe70f91393c921b1fd413d05698a27414de0547b895c70a",
                    "nonce" : "0xb07dab6e22b4b7f7",
                    "number" : "0x01",
                    "parentHash" : "0xa6c854682c8d7fcab780f81abfbf3e260b07d83426da6387e3c8e2931943309e",
                    "receiptTrie" : "0x7dcd05c790a6ed503a15b7b0688335ba95cdb30f2a078be9b467658fbf59bb51",
                    "stateRoot" : "0xf102cc3981251cbe5daf4ce2a3ae234f7f637261060b544c461fa32e987561b7",
                    "timestamp" : "0x03e8",
                    "transactionsTrie" : "0x4771c392324296274c26974af88d8f86e633a69800f8136c89273db20f04b758",
                    "uncleHash" : "0x1dcc4de8dec75d7aab85b567b6ccd41ad312451b948a7413f0a142fd40d49347"
                },
                "rlp" : "0xf90260f901f8a0a6c854682c8d7fcab780f81abfbf3e260b07d83426da6387e3c8e2931943309ea01dcc4de8dec75d7aab85b567b6ccd41ad312451b948a7413f0a142fd40d49347942adc25665018aa1fe0e6bc666dac8fc2697ff9baa0f102cc3981251cbe5daf4ce2a3ae234f7f637261060b544c461fa32e987561b7a04771c392324296274c26974af88d8f86e633a69800f8136c89273db20f04b758a07dcd05c790a6ed503a15b7b0688335ba95cdb30f2a078be9b467658fbf59bb51b9010000000000000000000000000000000000000000000000000000000000000000000000000000000000000000000000000000000000000000000000000000000000000000000000000000000000000000000000000000000000000000000000000000000000000000000000000000000000000000000000000000000000000000000000000000000000000000000000000000000000000000000000000000000000000000000000000000000000000000000000000000000000000000000000000000000000000000000000000000000000000000000000000000000000000000000000000000000000000000000000000000000000000000000000000000000000830200000183989680830c35008203e880a00df91ce063d11dfd9fe70f91393c921b1fd413d05698a27414de0547b895c70a88b07dab6e22b4b7f7f862f8608001830c350094a00000000000000000000000000000000000000080801ba06a2f423bb3fe430329fbab1a3ee2fcab978a511856631dda961eb56896ade562a032976be7407a2f332c2449a28234103ebb8312909467b561fc271f027e1ed914c0",
                "transactions" : [
                    {
                        "data" : "",
                        "gasLimit" : "0x0c3500",
                        "gasPrice" : "0x01",
                        "nonce" : "0x00",
                        "r" : "0x6a2f423bb3fe430329fbab1a3ee2fcab978a511856631dda961eb56896ade562",
                        "s" : "0x32976be7407a2f332c2449a28234103ebb8312909467b561fc271f027e1ed914",
                        "to" : "0xa000000000000000000000000000000000000000",
                        "v" : "0x1b",
                        "value" : "0x00"
                    }
                ],
                "uncleHeaders" : [
                ]
            }
        ],
        "genesisBlockHeader" : {
            "bloom" : "0x00000000000000000000000000000000000000000000000000000000000000000000000000000000000000000000000000000000000000000000000000000000000000000000000000000000000000000000000000000000000000000000000000000000000000000000000000000000000000000000000000000000000000000000000000000000000000000000000000000000000000000000000000000000000000000000000000000000000000000000000000000000000000000000000000000000000000000000000000000000000000000000000000000000000000000000000000000000000000000000000000000000000000000000000000000000",
            "coinbase" : "0x2adc25665018aa1fe0e6bc666dac8fc2697ff9ba",
            "difficulty" : "0x020000",
            "extraData" : "0x42",
            "gasLimit" : "0x989680",
            "gasUsed" : "0x00",
            "hash" : "0xa6c854682c8d7fcab780f81abfbf3e260b07d83426da6387e3c8e2931943309e",
            "mixHash" : "0x56e81f171bcc55a6ff8345e692c0f86e5b48e01b996cadc001622fb5e363b421",
            "nonce" : "0x0102030405060708",
            "number" : "0x00",
            "parentHash" : "0x0000000000000000000000000000000000000000000000000000000000000000",
            "receiptTrie" : "0x56e81f171bcc55a6ff8345e692c0f86e5b48e01b996cadc001622fb5e363b421",
            "stateRoot" : "0x860258f673d0e6520d540eac5ce7c862a205956598d8a614db8898c8be051e9f",
            "timestamp" : "0x03b6",
            "transactionsTrie" : "0x56e81f171bcc55a6ff8345e692c0f86e5b48e01b996cadc001622fb5e363b421",
            "uncleHash" : "0x1dcc4de8dec75d7aab85b567b6ccd41ad312451b948a7413f0a142fd40d49347"
        },
        "genesisRLP" : "0xf901faf901f5a00000000000000000000000000000000000000000000000000000000000000000a01dcc4de8dec75d7aab85b567b6ccd41ad312451b948a7413f0a142fd40d49347942adc25665018aa1fe0e6bc666dac8fc2697ff9baa0860258f673d0e6520d540eac5ce7c862a205956598d8a614db8898c8be051e9fa056e81f171bcc55a6ff8345e692c0f86e5b48e01b996cadc001622fb5e363b421a056e81f171bcc55a6ff8345e692c0f86e5b48e01b996cadc001622fb5e363b421b9010000000000000000000000000000000000000000000000000000000000000000000000000000000000000000000000000000000000000000000000000000000000000000000000000000000000000000000000000000000000000000000000000000000000000000000000000000000000000000000000000000000000000000000000000000000000000000000000000000000000000000000000000000000000000000000000000000000000000000000000000000000000000000000000000000000000000000000000000000000000000000000000000000000000000000000000000000000000000000000000000000000000000000000000000000000000830200008083989680808203b642a056e81f171bcc55a6ff8345e692c0f86e5b48e01b996cadc001622fb5e363b421880102030405060708c0c0",
        "lastblockhash" : "0x80a588b0554b2deb7834b2c98e5699b83794553271fae2be873e676b93cd5f56",
        "network" : "Frontier",
        "postState" : {
            "0x2adc25665018aa1fe0e6bc666dac8fc2697ff9ba" : {
                "balance" : "0x4563918245003500",
                "code" : "",
                "nonce" : "0x00",
                "storage" : {
                }
            },
            "0xa000000000000000000000000000000000000000" : {
                "balance" : "0x00",
                "code" : "0x600160005560016000fd6011600155",
                "nonce" : "0x00",
                "storage" : {
                }
            },
            "0xa94f5374fce5edbc8e2a8697c15331677e6ebf0b" : {
                "balance" : "0xe8d498db00",
                "code" : "",
                "nonce" : "0x01",
                "storage" : {
                }
            }
        },
        "pre" : {
            "0xa000000000000000000000000000000000000000" : {
                "balance" : "0x00",
                "code" : "0x600160005560016000fd6011600155",
                "nonce" : "0x00",
                "storage" : {
                }
            },
            "0xa94f5374fce5edbc8e2a8697c15331677e6ebf0b" : {
                "balance" : "0xe8d4a51000",
                "code" : "",
                "nonce" : "0x00",
                "storage" : {
                }
            }
        }
    },
    "RevertOpcode_d0g0v0_Homestead" : {
        "_info" : {
            "comment" : "",
            "filledwith" : "cpp-1.3.0+commit.6e0ce939.Linux.g++",
            "lllcversion" : "Version: 0.4.18-develop.2017.9.25+commit.a72237f2.Linux.g++",
            "source" : "src/BlockchainTestsFiller/GeneralStateTests/stRevertTest/RevertOpcode_d0g0v0Filler.json",
            "sourceHash" : "4eb5eba825ff3274cc29d9f24a9c5cb6947b4c0f017ba98d0eb5cb05a687effc"
        },
        "blocks" : [
            {
                "blockHeader" : {
                    "bloom" : "0x00000000000000000000000000000000000000000000000000000000000000000000000000000000000000000000000000000000000000000000000000000000000000000000000000000000000000000000000000000000000000000000000000000000000000000000000000000000000000000000000000000000000000000000000000000000000000000000000000000000000000000000000000000000000000000000000000000000000000000000000000000000000000000000000000000000000000000000000000000000000000000000000000000000000000000000000000000000000000000000000000000000000000000000000000000000",
                    "coinbase" : "0x2adc25665018aa1fe0e6bc666dac8fc2697ff9ba",
                    "difficulty" : "0x020000",
                    "extraData" : "",
                    "gasLimit" : "0x989680",
                    "gasUsed" : "0x0c3500",
                    "hash" : "0x37939cb02824fe4c12983c8c081779dc89a7cadfcd5dcfbf0914219941ddba5e",
                    "mixHash" : "0x1e12364bb59ac068f199a24c6a098076b0f3e4869b3e8b679be9d71d308a26d8",
                    "nonce" : "0x41b91bca644485c8",
                    "number" : "0x01",
                    "parentHash" : "0xa6c854682c8d7fcab780f81abfbf3e260b07d83426da6387e3c8e2931943309e",
                    "receiptTrie" : "0x7dcd05c790a6ed503a15b7b0688335ba95cdb30f2a078be9b467658fbf59bb51",
                    "stateRoot" : "0xf102cc3981251cbe5daf4ce2a3ae234f7f637261060b544c461fa32e987561b7",
                    "timestamp" : "0x03e8",
                    "transactionsTrie" : "0x4771c392324296274c26974af88d8f86e633a69800f8136c89273db20f04b758",
                    "uncleHash" : "0x1dcc4de8dec75d7aab85b567b6ccd41ad312451b948a7413f0a142fd40d49347"
                },
                "rlp" : "0xf90260f901f8a0a6c854682c8d7fcab780f81abfbf3e260b07d83426da6387e3c8e2931943309ea01dcc4de8dec75d7aab85b567b6ccd41ad312451b948a7413f0a142fd40d49347942adc25665018aa1fe0e6bc666dac8fc2697ff9baa0f102cc3981251cbe5daf4ce2a3ae234f7f637261060b544c461fa32e987561b7a04771c392324296274c26974af88d8f86e633a69800f8136c89273db20f04b758a07dcd05c790a6ed503a15b7b0688335ba95cdb30f2a078be9b467658fbf59bb51b9010000000000000000000000000000000000000000000000000000000000000000000000000000000000000000000000000000000000000000000000000000000000000000000000000000000000000000000000000000000000000000000000000000000000000000000000000000000000000000000000000000000000000000000000000000000000000000000000000000000000000000000000000000000000000000000000000000000000000000000000000000000000000000000000000000000000000000000000000000000000000000000000000000000000000000000000000000000000000000000000000000000000000000000000000000000000830200000183989680830c35008203e880a01e12364bb59ac068f199a24c6a098076b0f3e4869b3e8b679be9d71d308a26d88841b91bca644485c8f862f8608001830c350094a00000000000000000000000000000000000000080801ba06a2f423bb3fe430329fbab1a3ee2fcab978a511856631dda961eb56896ade562a032976be7407a2f332c2449a28234103ebb8312909467b561fc271f027e1ed914c0",
                "transactions" : [
                    {
                        "data" : "",
                        "gasLimit" : "0x0c3500",
                        "gasPrice" : "0x01",
                        "nonce" : "0x00",
                        "r" : "0x6a2f423bb3fe430329fbab1a3ee2fcab978a511856631dda961eb56896ade562",
                        "s" : "0x32976be7407a2f332c2449a28234103ebb8312909467b561fc271f027e1ed914",
                        "to" : "0xa000000000000000000000000000000000000000",
                        "v" : "0x1b",
                        "value" : "0x00"
                    }
                ],
                "uncleHeaders" : [
                ]
            }
        ],
        "genesisBlockHeader" : {
            "bloom" : "0x00000000000000000000000000000000000000000000000000000000000000000000000000000000000000000000000000000000000000000000000000000000000000000000000000000000000000000000000000000000000000000000000000000000000000000000000000000000000000000000000000000000000000000000000000000000000000000000000000000000000000000000000000000000000000000000000000000000000000000000000000000000000000000000000000000000000000000000000000000000000000000000000000000000000000000000000000000000000000000000000000000000000000000000000000000000",
            "coinbase" : "0x2adc25665018aa1fe0e6bc666dac8fc2697ff9ba",
            "difficulty" : "0x020000",
            "extraData" : "0x42",
            "gasLimit" : "0x989680",
            "gasUsed" : "0x00",
            "hash" : "0xa6c854682c8d7fcab780f81abfbf3e260b07d83426da6387e3c8e2931943309e",
            "mixHash" : "0x56e81f171bcc55a6ff8345e692c0f86e5b48e01b996cadc001622fb5e363b421",
            "nonce" : "0x0102030405060708",
            "number" : "0x00",
            "parentHash" : "0x0000000000000000000000000000000000000000000000000000000000000000",
            "receiptTrie" : "0x56e81f171bcc55a6ff8345e692c0f86e5b48e01b996cadc001622fb5e363b421",
            "stateRoot" : "0x860258f673d0e6520d540eac5ce7c862a205956598d8a614db8898c8be051e9f",
            "timestamp" : "0x03b6",
            "transactionsTrie" : "0x56e81f171bcc55a6ff8345e692c0f86e5b48e01b996cadc001622fb5e363b421",
            "uncleHash" : "0x1dcc4de8dec75d7aab85b567b6ccd41ad312451b948a7413f0a142fd40d49347"
        },
        "genesisRLP" : "0xf901faf901f5a00000000000000000000000000000000000000000000000000000000000000000a01dcc4de8dec75d7aab85b567b6ccd41ad312451b948a7413f0a142fd40d49347942adc25665018aa1fe0e6bc666dac8fc2697ff9baa0860258f673d0e6520d540eac5ce7c862a205956598d8a614db8898c8be051e9fa056e81f171bcc55a6ff8345e692c0f86e5b48e01b996cadc001622fb5e363b421a056e81f171bcc55a6ff8345e692c0f86e5b48e01b996cadc001622fb5e363b421b9010000000000000000000000000000000000000000000000000000000000000000000000000000000000000000000000000000000000000000000000000000000000000000000000000000000000000000000000000000000000000000000000000000000000000000000000000000000000000000000000000000000000000000000000000000000000000000000000000000000000000000000000000000000000000000000000000000000000000000000000000000000000000000000000000000000000000000000000000000000000000000000000000000000000000000000000000000000000000000000000000000000000000000000000000000000000830200008083989680808203b642a056e81f171bcc55a6ff8345e692c0f86e5b48e01b996cadc001622fb5e363b421880102030405060708c0c0",
        "lastblockhash" : "0x37939cb02824fe4c12983c8c081779dc89a7cadfcd5dcfbf0914219941ddba5e",
        "network" : "Homestead",
        "postState" : {
            "0x2adc25665018aa1fe0e6bc666dac8fc2697ff9ba" : {
                "balance" : "0x4563918245003500",
                "code" : "",
                "nonce" : "0x00",
                "storage" : {
                }
            },
            "0xa000000000000000000000000000000000000000" : {
                "balance" : "0x00",
                "code" : "0x600160005560016000fd6011600155",
                "nonce" : "0x00",
                "storage" : {
                }
            },
            "0xa94f5374fce5edbc8e2a8697c15331677e6ebf0b" : {
                "balance" : "0xe8d498db00",
                "code" : "",
                "nonce" : "0x01",
                "storage" : {
                }
            }
        },
        "pre" : {
            "0xa000000000000000000000000000000000000000" : {
                "balance" : "0x00",
                "code" : "0x600160005560016000fd6011600155",
                "nonce" : "0x00",
                "storage" : {
                }
            },
            "0xa94f5374fce5edbc8e2a8697c15331677e6ebf0b" : {
                "balance" : "0xe8d4a51000",
                "code" : "",
                "nonce" : "0x00",
                "storage" : {
                }
            }
        }
    }
}