{
    "RevertDepthCreateAddressCollision_d0g1v0_Byzantium" : {
        "_info" : {
            "comment" : "",
            "filledwith" : "cpp-1.3.0+commit.6e0ce939.Linux.g++",
            "lllcversion" : "Version: 0.4.18-develop.2017.9.25+commit.a72237f2.Linux.g++",
            "source" : "src/BlockchainTestsFiller/GeneralStateTests/stRevertTest/RevertDepthCreateAddressCollision_d0g1v0Filler.json",
            "sourceHash" : "78e5a5cfe31bb8b788b58f38b368c0e5cb9483023d386557c220431c0334f03f"
        },
        "blocks" : [
            {
                "blockHeader" : {
                    "bloom" : "0x00000000000000000000000000000000000000000000000000000000000000000000000000000000000000000000000000000000000000000000000000000000000000000000000000000000000000000000000000000000000000000000000000000000000000000000000000000000000000000000000000000000000000000000000000000000000000000000000000000000000000000000000000000000000000000000000000000000000000000000000000000000000000000000000000000000000000000000000000000000000000000000000000000000000000000000000000000000000000000000000000000000000000000000000000000000",
                    "coinbase" : "0x2adc25665018aa1fe0e6bc666dac8fc2697ff9ba",
                    "difficulty" : "0x020000",
                    "extraData" : "",
                    "gasLimit" : "0x989680",
                    "gasUsed" : "0x01f013",
                    "hash" : "0xd5784f781c65f3656ecff25e65dcbcda17d07254dbbe4dae4bc8f17ff2ccf1a3",
                    "mixHash" : "0x7c7ee2940adf6570013c054126d96f50adf30120d7393b4401af9c0e25358b4c",
                    "nonce" : "0x793e504a6475ba24",
                    "number" : "0x01",
                    "parentHash" : "0x93dcf85bc7a76227f7e21e4ea5f868b5fe35b40c9bacc70d21636b4aea2c8427",
                    "receiptTrie" : "0xc45419cf5be26b875697d913666fdf6c36cc72b128a9670c994caed02690eb11",
                    "stateRoot" : "0x15643492a635a75d347919f60cd3a70452d75fa640e7380a626892a304feab6c",
                    "timestamp" : "0x03e8",
                    "transactionsTrie" : "0xeedbb2ed5cd67f16cd0134b69d1d8612600008294d81cc7669e4e37f3c499602",
                    "uncleHash" : "0x1dcc4de8dec75d7aab85b567b6ccd41ad312451b948a7413f0a142fd40d49347"
                },
                "rlp" : "0xf9027ff901f8a093dcf85bc7a76227f7e21e4ea5f868b5fe35b40c9bacc70d21636b4aea2c8427a01dcc4de8dec75d7aab85b567b6ccd41ad312451b948a7413f0a142fd40d49347942adc25665018aa1fe0e6bc666dac8fc2697ff9baa015643492a635a75d347919f60cd3a70452d75fa640e7380a626892a304feab6ca0eedbb2ed5cd67f16cd0134b69d1d8612600008294d81cc7669e4e37f3c499602a0c45419cf5be26b875697d913666fdf6c36cc72b128a9670c994caed02690eb11b90100000000000000000000000000000000000000000000000000000000000000000000000000000000000000000000000000000000000000000000000000000000000000000000000000000000000000000000000000000000000000000000000000000000000000000000000000000000000000000000000000000000000000000000000000000000000000000000000000000000000000000000000000000000000000000000000000000000000000000000000000000000000000000000000000000000000000000000000000000000000000000000000000000000000000000000000000000000000000000000000000000000000000000000000000000000008302000001839896808301f0138203e880a07c7ee2940adf6570013c054126d96f50adf30120d7393b4401af9c0e25358b4c88793e504a6475ba24f881f87f800183027100943e180b1862f9d158abb5e519a6d8605540c2368201a0000000000000000000000000000000000000000000000000000000000000ea601b9f8b930a856a38429c61839f236a248a37597705b23d584f4c1bb1c801c05cb3a02e5d912c48763771022d94171cfd7ce27c3b35b9ad3aa0b959c40a52ef58dba2c0",
                "transactions" : [
                    {
                        "data" : "0x000000000000000000000000000000000000000000000000000000000000ea60",
                        "gasLimit" : "0x027100",
                        "gasPrice" : "0x01",
                        "nonce" : "0x00",
                        "r" : "0x8b930a856a38429c61839f236a248a37597705b23d584f4c1bb1c801c05cb3",
                        "s" : "0x2e5d912c48763771022d94171cfd7ce27c3b35b9ad3aa0b959c40a52ef58dba2",
                        "to" : "0x3e180b1862f9d158abb5e519a6d8605540c23682",
                        "v" : "0x1b",
                        "value" : "0x01"
                    }
                ],
                "uncleHeaders" : [
                ]
            }
        ],
        "genesisBlockHeader" : {
            "bloom" : "0x00000000000000000000000000000000000000000000000000000000000000000000000000000000000000000000000000000000000000000000000000000000000000000000000000000000000000000000000000000000000000000000000000000000000000000000000000000000000000000000000000000000000000000000000000000000000000000000000000000000000000000000000000000000000000000000000000000000000000000000000000000000000000000000000000000000000000000000000000000000000000000000000000000000000000000000000000000000000000000000000000000000000000000000000000000000",
            "coinbase" : "0x2adc25665018aa1fe0e6bc666dac8fc2697ff9ba",
            "difficulty" : "0x020000",
            "extraData" : "0x42",
            "gasLimit" : "0x989680",
            "gasUsed" : "0x00",
            "hash" : "0x93dcf85bc7a76227f7e21e4ea5f868b5fe35b40c9bacc70d21636b4aea2c8427",
            "mixHash" : "0x56e81f171bcc55a6ff8345e692c0f86e5b48e01b996cadc001622fb5e363b421",
            "nonce" : "0x0102030405060708",
            "number" : "0x00",
            "parentHash" : "0x0000000000000000000000000000000000000000000000000000000000000000",
            "receiptTrie" : "0x56e81f171bcc55a6ff8345e692c0f86e5b48e01b996cadc001622fb5e363b421",
            "stateRoot" : "0x2021386d37ea74464f53e382b6525956b68259567a65fab0e9021c9d25a86cf3",
            "timestamp" : "0x03b6",
            "transactionsTrie" : "0x56e81f171bcc55a6ff8345e692c0f86e5b48e01b996cadc001622fb5e363b421",
            "uncleHash" : "0x1dcc4de8dec75d7aab85b567b6ccd41ad312451b948a7413f0a142fd40d49347"
        },
        "genesisRLP" : "0xf901faf901f5a00000000000000000000000000000000000000000000000000000000000000000a01dcc4de8dec75d7aab85b567b6ccd41ad312451b948a7413f0a142fd40d49347942adc25665018aa1fe0e6bc666dac8fc2697ff9baa02021386d37ea74464f53e382b6525956b68259567a65fab0e9021c9d25a86cf3a056e81f171bcc55a6ff8345e692c0f86e5b48e01b996cadc001622fb5e363b421a056e81f171bcc55a6ff8345e692c0f86e5b48e01b996cadc001622fb5e363b421b9010000000000000000000000000000000000000000000000000000000000000000000000000000000000000000000000000000000000000000000000000000000000000000000000000000000000000000000000000000000000000000000000000000000000000000000000000000000000000000000000000000000000000000000000000000000000000000000000000000000000000000000000000000000000000000000000000000000000000000000000000000000000000000000000000000000000000000000000000000000000000000000000000000000000000000000000000000000000000000000000000000000000000000000000000000000000830200008083989680808203b642a056e81f171bcc55a6ff8345e692c0f86e5b48e01b996cadc001622fb5e363b421880102030405060708c0c0",
        "lastblockhash" : "0xd5784f781c65f3656ecff25e65dcbcda17d07254dbbe4dae4bc8f17ff2ccf1a3",
        "network" : "Byzantium",
        "postState" : {
            "0x2adc25665018aa1fe0e6bc666dac8fc2697ff9ba" : {
                "balance" : "0x29a2241af62df013",
                "code" : "",
                "nonce" : "0x00",
                "storage" : {
                }
            },
            "0x3e180b1862f9d158abb5e519a6d8605540c23682" : {
                "balance" : "0x06",
                "code" : "0x60016000556000600060006000600073b000000000000000000000000000000000000000600035f1600155600c600455",
                "nonce" : "0x36",
                "storage" : {
                    "0x00" : "0x01",
                    "0x04" : "0x0c"
                }
            },
            "0xa94f5374fce5edbc8e2a8697c15331677e6ebf0b" : {
                "balance" : "0xe8d4a31fec",
                "code" : "",
                "nonce" : "0x01",
                "storage" : {
                }
            },
            "0xb000000000000000000000000000000000000000" : {
                "balance" : "0x00",
                "code" : "0x6008600255600060006000f050600c600355",
                "nonce" : "0x00",
                "storage" : {
                }
            }
        },
        "pre" : {
            "0x3e180b1862f9d158abb5e519a6d8605540c23682" : {
                "balance" : "0x05",
                "code" : "0x60016000556000600060006000600073b000000000000000000000000000000000000000600035f1600155600c600455",
                "nonce" : "0x36",
                "storage" : {
                }
            },
            "0xa94f5374fce5edbc8e2a8697c15331677e6ebf0b" : {
                "balance" : "0xe8d4a51000",
                "code" : "",
                "nonce" : "0x00",
                "storage" : {
                }
            },
            "0xb000000000000000000000000000000000000000" : {
                "balance" : "0x00",
                "code" : "0x6008600255600060006000f050600c600355",
                "nonce" : "0x00",
                "storage" : {
                }
            }
        }
    },
    "RevertDepthCreateAddressCollision_d0g1v0_EIP150" : {
        "_info" : {
            "comment" : "",
            "filledwith" : "cpp-1.3.0+commit.6e0ce939.Linux.g++",
            "lllcversion" : "Version: 0.4.18-develop.2017.9.25+commit.a72237f2.Linux.g++",
            "source" : "src/BlockchainTestsFiller/GeneralStateTests/stRevertTest/RevertDepthCreateAddressCollision_d0g1v0Filler.json",
            "sourceHash" : "78e5a5cfe31bb8b788b58f38b368c0e5cb9483023d386557c220431c0334f03f"
        },
        "blocks" : [
            {
                "blockHeader" : {
                    "bloom" : "0x00000000000000000000000000000000000000000000000000000000000000000000000000000000000000000000000000000000000000000000000000000000000000000000000000000000000000000000000000000000000000000000000000000000000000000000000000000000000000000000000000000000000000000000000000000000000000000000000000000000000000000000000000000000000000000000000000000000000000000000000000000000000000000000000000000000000000000000000000000000000000000000000000000000000000000000000000000000000000000000000000000000000000000000000000000000",
                    "coinbase" : "0x2adc25665018aa1fe0e6bc666dac8fc2697ff9ba",
                    "difficulty" : "0x020000",
                    "extraData" : "",
                    "gasLimit" : "0x989680",
                    "gasUsed" : "0x01f013",
                    "hash" : "0xe5e08bc7082f2bc53990208ea3304e035612afa04e6ab66beef0f0f8c3274829",
                    "mixHash" : "0x71f9c8545036da3aa2b2c27d48282cb496d34949714f101ecf5ef2e18db327b3",
                    "nonce" : "0x567c197637182a48",
                    "number" : "0x01",
                    "parentHash" : "0x93dcf85bc7a76227f7e21e4ea5f868b5fe35b40c9bacc70d21636b4aea2c8427",
                    "receiptTrie" : "0x9aa45e9ea780064d2b5e874229ee9e0f7ff154b5e45fecbd508a1b832ce3d847",
                    "stateRoot" : "0xbf15db9b31ebfc50677a9c978802f07f1253b011ffcb7ba06fdced53c7a287d6",
                    "timestamp" : "0x03e8",
                    "transactionsTrie" : "0xeedbb2ed5cd67f16cd0134b69d1d8612600008294d81cc7669e4e37f3c499602",
                    "uncleHash" : "0x1dcc4de8dec75d7aab85b567b6ccd41ad312451b948a7413f0a142fd40d49347"
                },
                "rlp" : "0xf9027ff901f8a093dcf85bc7a76227f7e21e4ea5f868b5fe35b40c9bacc70d21636b4aea2c8427a01dcc4de8dec75d7aab85b567b6ccd41ad312451b948a7413f0a142fd40d49347942adc25665018aa1fe0e6bc666dac8fc2697ff9baa0bf15db9b31ebfc50677a9c978802f07f1253b011ffcb7ba06fdced53c7a287d6a0eedbb2ed5cd67f16cd0134b69d1d8612600008294d81cc7669e4e37f3c499602a09aa45e9ea780064d2b5e874229ee9e0f7ff154b5e45fecbd508a1b832ce3d847b90100000000000000000000000000000000000000000000000000000000000000000000000000000000000000000000000000000000000000000000000000000000000000000000000000000000000000000000000000000000000000000000000000000000000000000000000000000000000000000000000000000000000000000000000000000000000000000000000000000000000000000000000000000000000000000000000000000000000000000000000000000000000000000000000000000000000000000000000000000000000000000000000000000000000000000000000000000000000000000000000000000000000000000000000000000000008302000001839896808301f0138203e880a071f9c8545036da3aa2b2c27d48282cb496d34949714f101ecf5ef2e18db327b388567c197637182a48f881f87f800183027100943e180b1862f9d158abb5e519a6d8605540c2368201a0000000000000000000000000000000000000000000000000000000000000ea601b9f8b930a856a38429c61839f236a248a37597705b23d584f4c1bb1c801c05cb3a02e5d912c48763771022d94171cfd7ce27c3b35b9ad3aa0b959c40a52ef58dba2c0",
                "transactions" : [
                    {
                        "data" : "0x000000000000000000000000000000000000000000000000000000000000ea60",
                        "gasLimit" : "0x027100",
                        "gasPrice" : "0x01",
                        "nonce" : "0x00",
                        "r" : "0x8b930a856a38429c61839f236a248a37597705b23d584f4c1bb1c801c05cb3",
                        "s" : "0x2e5d912c48763771022d94171cfd7ce27c3b35b9ad3aa0b959c40a52ef58dba2",
                        "to" : "0x3e180b1862f9d158abb5e519a6d8605540c23682",
                        "v" : "0x1b",
                        "value" : "0x01"
                    }
                ],
                "uncleHeaders" : [
                ]
            }
        ],
        "genesisBlockHeader" : {
            "bloom" : "0x00000000000000000000000000000000000000000000000000000000000000000000000000000000000000000000000000000000000000000000000000000000000000000000000000000000000000000000000000000000000000000000000000000000000000000000000000000000000000000000000000000000000000000000000000000000000000000000000000000000000000000000000000000000000000000000000000000000000000000000000000000000000000000000000000000000000000000000000000000000000000000000000000000000000000000000000000000000000000000000000000000000000000000000000000000000",
            "coinbase" : "0x2adc25665018aa1fe0e6bc666dac8fc2697ff9ba",
            "difficulty" : "0x020000",
            "extraData" : "0x42",
            "gasLimit" : "0x989680",
            "gasUsed" : "0x00",
            "hash" : "0x93dcf85bc7a76227f7e21e4ea5f868b5fe35b40c9bacc70d21636b4aea2c8427",
            "mixHash" : "0x56e81f171bcc55a6ff8345e692c0f86e5b48e01b996cadc001622fb5e363b421",
            "nonce" : "0x0102030405060708",
            "number" : "0x00",
            "parentHash" : "0x0000000000000000000000000000000000000000000000000000000000000000",
            "receiptTrie" : "0x56e81f171bcc55a6ff8345e692c0f86e5b48e01b996cadc001622fb5e363b421",
            "stateRoot" : "0x2021386d37ea74464f53e382b6525956b68259567a65fab0e9021c9d25a86cf3",
            "timestamp" : "0x03b6",
            "transactionsTrie" : "0x56e81f171bcc55a6ff8345e692c0f86e5b48e01b996cadc001622fb5e363b421",
            "uncleHash" : "0x1dcc4de8dec75d7aab85b567b6ccd41ad312451b948a7413f0a142fd40d49347"
        },
        "genesisRLP" : "0xf901faf901f5a00000000000000000000000000000000000000000000000000000000000000000a01dcc4de8dec75d7aab85b567b6ccd41ad312451b948a7413f0a142fd40d49347942adc25665018aa1fe0e6bc666dac8fc2697ff9baa02021386d37ea74464f53e382b6525956b68259567a65fab0e9021c9d25a86cf3a056e81f171bcc55a6ff8345e692c0f86e5b48e01b996cadc001622fb5e363b421a056e81f171bcc55a6ff8345e692c0f86e5b48e01b996cadc001622fb5e363b421b9010000000000000000000000000000000000000000000000000000000000000000000000000000000000000000000000000000000000000000000000000000000000000000000000000000000000000000000000000000000000000000000000000000000000000000000000000000000000000000000000000000000000000000000000000000000000000000000000000000000000000000000000000000000000000000000000000000000000000000000000000000000000000000000000000000000000000000000000000000000000000000000000000000000000000000000000000000000000000000000000000000000000000000000000000000000000830200008083989680808203b642a056e81f171bcc55a6ff8345e692c0f86e5b48e01b996cadc001622fb5e363b421880102030405060708c0c0",
        "lastblockhash" : "0xe5e08bc7082f2bc53990208ea3304e035612afa04e6ab66beef0f0f8c3274829",
        "network" : "EIP150",
        "postState" : {
            "0x2adc25665018aa1fe0e6bc666dac8fc2697ff9ba" : {
                "balance" : "0x4563918244f5f013",
                "code" : "",
                "nonce" : "0x00",
                "storage" : {
                }
            },
            "0x3e180b1862f9d158abb5e519a6d8605540c23682" : {
                "balance" : "0x06",
                "code" : "0x60016000556000600060006000600073b000000000000000000000000000000000000000600035f1600155600c600455",
                "nonce" : "0x36",
                "storage" : {
                    "0x00" : "0x01",
                    "0x04" : "0x0c"
                }
            },
            "0xa94f5374fce5edbc8e2a8697c15331677e6ebf0b" : {
                "balance" : "0xe8d4a31fec",
                "code" : "",
                "nonce" : "0x01",
                "storage" : {
                }
            },
            "0xb000000000000000000000000000000000000000" : {
                "balance" : "0x00",
                "code" : "0x6008600255600060006000f050600c600355",
                "nonce" : "0x00",
                "storage" : {
                }
            }
        },
        "pre" : {
            "0x3e180b1862f9d158abb5e519a6d8605540c23682" : {
                "balance" : "0x05",
                "code" : "0x60016000556000600060006000600073b000000000000000000000000000000000000000600035f1600155600c600455",
                "nonce" : "0x36",
                "storage" : {
                }
            },
            "0xa94f5374fce5edbc8e2a8697c15331677e6ebf0b" : {
                "balance" : "0xe8d4a51000",
                "code" : "",
                "nonce" : "0x00",
                "storage" : {
                }
            },
            "0xb000000000000000000000000000000000000000" : {
                "balance" : "0x00",
                "code" : "0x6008600255600060006000f050600c600355",
                "nonce" : "0x00",
                "storage" : {
                }
            }
        }
    },
    "RevertDepthCreateAddressCollision_d0g1v0_EIP158" : {
        "_info" : {
            "comment" : "",
            "filledwith" : "cpp-1.3.0+commit.6e0ce939.Linux.g++",
            "lllcversion" : "Version: 0.4.18-develop.2017.9.25+commit.a72237f2.Linux.g++",
            "source" : "src/BlockchainTestsFiller/GeneralStateTests/stRevertTest/RevertDepthCreateAddressCollision_d0g1v0Filler.json",
            "sourceHash" : "78e5a5cfe31bb8b788b58f38b368c0e5cb9483023d386557c220431c0334f03f"
        },
        "blocks" : [
            {
                "blockHeader" : {
                    "bloom" : "0x00000000000000000000000000000000000000000000000000000000000000000000000000000000000000000000000000000000000000000000000000000000000000000000000000000000000000000000000000000000000000000000000000000000000000000000000000000000000000000000000000000000000000000000000000000000000000000000000000000000000000000000000000000000000000000000000000000000000000000000000000000000000000000000000000000000000000000000000000000000000000000000000000000000000000000000000000000000000000000000000000000000000000000000000000000000",
                    "coinbase" : "0x2adc25665018aa1fe0e6bc666dac8fc2697ff9ba",
                    "difficulty" : "0x020000",
                    "extraData" : "",
                    "gasLimit" : "0x989680",
                    "gasUsed" : "0x01f013",
                    "hash" : "0xa363758d5a3582dcfaa1ca2537fcc21eb5e63add35734796c127127886353588",
                    "mixHash" : "0x3601fb7b7dd8d0bae8c407ed77caa4cde5a43cffff9f4140b115afea45992581",
                    "nonce" : "0xaa475a1c9956a501",
                    "number" : "0x01",
                    "parentHash" : "0x93dcf85bc7a76227f7e21e4ea5f868b5fe35b40c9bacc70d21636b4aea2c8427",
                    "receiptTrie" : "0x9aa45e9ea780064d2b5e874229ee9e0f7ff154b5e45fecbd508a1b832ce3d847",
                    "stateRoot" : "0xbf15db9b31ebfc50677a9c978802f07f1253b011ffcb7ba06fdced53c7a287d6",
                    "timestamp" : "0x03e8",
                    "transactionsTrie" : "0xeedbb2ed5cd67f16cd0134b69d1d8612600008294d81cc7669e4e37f3c499602",
                    "uncleHash" : "0x1dcc4de8dec75d7aab85b567b6ccd41ad312451b948a7413f0a142fd40d49347"
                },
                "rlp" : "0xf9027ff901f8a093dcf85bc7a76227f7e21e4ea5f868b5fe35b40c9bacc70d21636b4aea2c8427a01dcc4de8dec75d7aab85b567b6ccd41ad312451b948a7413f0a142fd40d49347942adc25665018aa1fe0e6bc666dac8fc2697ff9baa0bf15db9b31ebfc50677a9c978802f07f1253b011ffcb7ba06fdced53c7a287d6a0eedbb2ed5cd67f16cd0134b69d1d8612600008294d81cc7669e4e37f3c499602a09aa45e9ea780064d2b5e874229ee9e0f7ff154b5e45fecbd508a1b832ce3d847b90100000000000000000000000000000000000000000000000000000000000000000000000000000000000000000000000000000000000000000000000000000000000000000000000000000000000000000000000000000000000000000000000000000000000000000000000000000000000000000000000000000000000000000000000000000000000000000000000000000000000000000000000000000000000000000000000000000000000000000000000000000000000000000000000000000000000000000000000000000000000000000000000000000000000000000000000000000000000000000000000000000000000000000000000000000000008302000001839896808301f0138203e880a03601fb7b7dd8d0bae8c407ed77caa4cde5a43cffff9f4140b115afea4599258188aa475a1c9956a501f881f87f800183027100943e180b1862f9d158abb5e519a6d8605540c2368201a0000000000000000000000000000000000000000000000000000000000000ea601b9f8b930a856a38429c61839f236a248a37597705b23d584f4c1bb1c801c05cb3a02e5d912c48763771022d94171cfd7ce27c3b35b9ad3aa0b959c40a52ef58dba2c0",
                "transactions" : [
                    {
                        "data" : "0x000000000000000000000000000000000000000000000000000000000000ea60",
                        "gasLimit" : "0x027100",
                        "gasPrice" : "0x01",
                        "nonce" : "0x00",
                        "r" : "0x8b930a856a38429c61839f236a248a37597705b23d584f4c1bb1c801c05cb3",
                        "s" : "0x2e5d912c48763771022d94171cfd7ce27c3b35b9ad3aa0b959c40a52ef58dba2",
                        "to" : "0x3e180b1862f9d158abb5e519a6d8605540c23682",
                        "v" : "0x1b",
                        "value" : "0x01"
                    }
                ],
                "uncleHeaders" : [
                ]
            }
        ],
        "genesisBlockHeader" : {
            "bloom" : "0x00000000000000000000000000000000000000000000000000000000000000000000000000000000000000000000000000000000000000000000000000000000000000000000000000000000000000000000000000000000000000000000000000000000000000000000000000000000000000000000000000000000000000000000000000000000000000000000000000000000000000000000000000000000000000000000000000000000000000000000000000000000000000000000000000000000000000000000000000000000000000000000000000000000000000000000000000000000000000000000000000000000000000000000000000000000",
            "coinbase" : "0x2adc25665018aa1fe0e6bc666dac8fc2697ff9ba",
            "difficulty" : "0x020000",
            "extraData" : "0x42",
            "gasLimit" : "0x989680",
            "gasUsed" : "0x00",
            "hash" : "0x93dcf85bc7a76227f7e21e4ea5f868b5fe35b40c9bacc70d21636b4aea2c8427",
            "mixHash" : "0x56e81f171bcc55a6ff8345e692c0f86e5b48e01b996cadc001622fb5e363b421",
            "nonce" : "0x0102030405060708",
            "number" : "0x00",
            "parentHash" : "0x0000000000000000000000000000000000000000000000000000000000000000",
            "receiptTrie" : "0x56e81f171bcc55a6ff8345e692c0f86e5b48e01b996cadc001622fb5e363b421",
            "stateRoot" : "0x2021386d37ea74464f53e382b6525956b68259567a65fab0e9021c9d25a86cf3",
            "timestamp" : "0x03b6",
            "transactionsTrie" : "0x56e81f171bcc55a6ff8345e692c0f86e5b48e01b996cadc001622fb5e363b421",
            "uncleHash" : "0x1dcc4de8dec75d7aab85b567b6ccd41ad312451b948a7413f0a142fd40d49347"
        },
        "genesisRLP" : "0xf901faf901f5a00000000000000000000000000000000000000000000000000000000000000000a01dcc4de8dec75d7aab85b567b6ccd41ad312451b948a7413f0a142fd40d49347942adc25665018aa1fe0e6bc666dac8fc2697ff9baa02021386d37ea74464f53e382b6525956b68259567a65fab0e9021c9d25a86cf3a056e81f171bcc55a6ff8345e692c0f86e5b48e01b996cadc001622fb5e363b421a056e81f171bcc55a6ff8345e692c0f86e5b48e01b996cadc001622fb5e363b421b9010000000000000000000000000000000000000000000000000000000000000000000000000000000000000000000000000000000000000000000000000000000000000000000000000000000000000000000000000000000000000000000000000000000000000000000000000000000000000000000000000000000000000000000000000000000000000000000000000000000000000000000000000000000000000000000000000000000000000000000000000000000000000000000000000000000000000000000000000000000000000000000000000000000000000000000000000000000000000000000000000000000000000000000000000000000000830200008083989680808203b642a056e81f171bcc55a6ff8345e692c0f86e5b48e01b996cadc001622fb5e363b421880102030405060708c0c0",
        "lastblockhash" : "0xa363758d5a3582dcfaa1ca2537fcc21eb5e63add35734796c127127886353588",
        "network" : "EIP158",
        "postState" : {
            "0x2adc25665018aa1fe0e6bc666dac8fc2697ff9ba" : {
                "balance" : "0x4563918244f5f013",
                "code" : "",
                "nonce" : "0x00",
                "storage" : {
                }
            },
            "0x3e180b1862f9d158abb5e519a6d8605540c23682" : {
                "balance" : "0x06",
                "code" : "0x60016000556000600060006000600073b000000000000000000000000000000000000000600035f1600155600c600455",
                "nonce" : "0x36",
                "storage" : {
                    "0x00" : "0x01",
                    "0x04" : "0x0c"
                }
            },
            "0xa94f5374fce5edbc8e2a8697c15331677e6ebf0b" : {
                "balance" : "0xe8d4a31fec",
                "code" : "",
                "nonce" : "0x01",
                "storage" : {
                }
            },
            "0xb000000000000000000000000000000000000000" : {
                "balance" : "0x00",
                "code" : "0x6008600255600060006000f050600c600355",
                "nonce" : "0x00",
                "storage" : {
                }
            }
        },
        "pre" : {
            "0x3e180b1862f9d158abb5e519a6d8605540c23682" : {
                "balance" : "0x05",
                "code" : "0x60016000556000600060006000600073b000000000000000000000000000000000000000600035f1600155600c600455",
                "nonce" : "0x36",
                "storage" : {
                }
            },
            "0xa94f5374fce5edbc8e2a8697c15331677e6ebf0b" : {
                "balance" : "0xe8d4a51000",
                "code" : "",
                "nonce" : "0x00",
                "storage" : {
                }
            },
            "0xb000000000000000000000000000000000000000" : {
                "balance" : "0x00",
                "code" : "0x6008600255600060006000f050600c600355",
                "nonce" : "0x00",
                "storage" : {
                }
            }
        }
    },
    "RevertDepthCreateAddressCollision_d0g1v0_Frontier" : {
        "_info" : {
            "comment" : "",
            "filledwith" : "cpp-1.3.0+commit.6e0ce939.Linux.g++",
            "lllcversion" : "Version: 0.4.18-develop.2017.9.25+commit.a72237f2.Linux.g++",
            "source" : "src/BlockchainTestsFiller/GeneralStateTests/stRevertTest/RevertDepthCreateAddressCollision_d0g1v0Filler.json",
            "sourceHash" : "78e5a5cfe31bb8b788b58f38b368c0e5cb9483023d386557c220431c0334f03f"
        },
        "blocks" : [
            {
                "blockHeader" : {
                    "bloom" : "0x00000000000000000000000000000000000000000000000000000000000000000000000000000000000000000000000000000000000000000000000000000000000000000000000000000000000000000000000000000000000000000000000000000000000000000000000000000000000000000000000000000000000000000000000000000000000000000000000000000000000000000000000000000000000000000000000000000000000000000000000000000000000000000000000000000000000000000000000000000000000000000000000000000000000000000000000000000000000000000000000000000000000000000000000000000000",
                    "coinbase" : "0x2adc25665018aa1fe0e6bc666dac8fc2697ff9ba",
                    "difficulty" : "0x020000",
                    "extraData" : "",
                    "gasLimit" : "0x989680",
                    "gasUsed" : "0x01ed7f",
                    "hash" : "0x15c226a73f5c7877c7488f1f76e1671c4b0d09b613517c8d2d0e741abfd00bfd",
                    "mixHash" : "0x145ebb370989803f94d36690426dbee18a4dbbb418ee584d12027d95ddd87328",
                    "nonce" : "0xe4f0c1a7580200b6",
                    "number" : "0x01",
                    "parentHash" : "0x93dcf85bc7a76227f7e21e4ea5f868b5fe35b40c9bacc70d21636b4aea2c8427",
                    "receiptTrie" : "0x5b4b97824db32a86942d9ff562deb8bbd1410673a40c723f030236574c3df113",
                    "stateRoot" : "0x218250bc4eb2802f8f372c206e72fb8c8bb6959cd6b31bb22cf04ea0e93781fa",
                    "timestamp" : "0x03e8",
                    "transactionsTrie" : "0xeedbb2ed5cd67f16cd0134b69d1d8612600008294d81cc7669e4e37f3c499602",
                    "uncleHash" : "0x1dcc4de8dec75d7aab85b567b6ccd41ad312451b948a7413f0a142fd40d49347"
                },
                "rlp" : "0xf9027ff901f8a093dcf85bc7a76227f7e21e4ea5f868b5fe35b40c9bacc70d21636b4aea2c8427a01dcc4de8dec75d7aab85b567b6ccd41ad312451b948a7413f0a142fd40d49347942adc25665018aa1fe0e6bc666dac8fc2697ff9baa0218250bc4eb2802f8f372c206e72fb8c8bb6959cd6b31bb22cf04ea0e93781faa0eedbb2ed5cd67f16cd0134b69d1d8612600008294d81cc7669e4e37f3c499602a05b4b97824db32a86942d9ff562deb8bbd1410673a40c723f030236574c3df113b90100000000000000000000000000000000000000000000000000000000000000000000000000000000000000000000000000000000000000000000000000000000000000000000000000000000000000000000000000000000000000000000000000000000000000000000000000000000000000000000000000000000000000000000000000000000000000000000000000000000000000000000000000000000000000000000000000000000000000000000000000000000000000000000000000000000000000000000000000000000000000000000000000000000000000000000000000000000000000000000000000000000000000000000000000000000008302000001839896808301ed7f8203e880a0145ebb370989803f94d36690426dbee18a4dbbb418ee584d12027d95ddd8732888e4f0c1a7580200b6f881f87f800183027100943e180b1862f9d158abb5e519a6d8605540c2368201a0000000000000000000000000000000000000000000000000000000000000ea601b9f8b930a856a38429c61839f236a248a37597705b23d584f4c1bb1c801c05cb3a02e5d912c48763771022d94171cfd7ce27c3b35b9ad3aa0b959c40a52ef58dba2c0",
                "transactions" : [
                    {
                        "data" : "0x000000000000000000000000000000000000000000000000000000000000ea60",
                        "gasLimit" : "0x027100",
                        "gasPrice" : "0x01",
                        "nonce" : "0x00",
                        "r" : "0x8b930a856a38429c61839f236a248a37597705b23d584f4c1bb1c801c05cb3",
                        "s" : "0x2e5d912c48763771022d94171cfd7ce27c3b35b9ad3aa0b959c40a52ef58dba2",
                        "to" : "0x3e180b1862f9d158abb5e519a6d8605540c23682",
                        "v" : "0x1b",
                        "value" : "0x01"
                    }
                ],
                "uncleHeaders" : [
                ]
            }
        ],
        "genesisBlockHeader" : {
            "bloom" : "0x00000000000000000000000000000000000000000000000000000000000000000000000000000000000000000000000000000000000000000000000000000000000000000000000000000000000000000000000000000000000000000000000000000000000000000000000000000000000000000000000000000000000000000000000000000000000000000000000000000000000000000000000000000000000000000000000000000000000000000000000000000000000000000000000000000000000000000000000000000000000000000000000000000000000000000000000000000000000000000000000000000000000000000000000000000000",
            "coinbase" : "0x2adc25665018aa1fe0e6bc666dac8fc2697ff9ba",
            "difficulty" : "0x020000",
            "extraData" : "0x42",
            "gasLimit" : "0x989680",
            "gasUsed" : "0x00",
            "hash" : "0x93dcf85bc7a76227f7e21e4ea5f868b5fe35b40c9bacc70d21636b4aea2c8427",
            "mixHash" : "0x56e81f171bcc55a6ff8345e692c0f86e5b48e01b996cadc001622fb5e363b421",
            "nonce" : "0x0102030405060708",
            "number" : "0x00",
            "parentHash" : "0x0000000000000000000000000000000000000000000000000000000000000000",
            "receiptTrie" : "0x56e81f171bcc55a6ff8345e692c0f86e5b48e01b996cadc001622fb5e363b421",
            "stateRoot" : "0x2021386d37ea74464f53e382b6525956b68259567a65fab0e9021c9d25a86cf3",
            "timestamp" : "0x03b6",
            "transactionsTrie" : "0x56e81f171bcc55a6ff8345e692c0f86e5b48e01b996cadc001622fb5e363b421",
            "uncleHash" : "0x1dcc4de8dec75d7aab85b567b6ccd41ad312451b948a7413f0a142fd40d49347"
        },
        "genesisRLP" : "0xf901faf901f5a00000000000000000000000000000000000000000000000000000000000000000a01dcc4de8dec75d7aab85b567b6ccd41ad312451b948a7413f0a142fd40d49347942adc25665018aa1fe0e6bc666dac8fc2697ff9baa02021386d37ea74464f53e382b6525956b68259567a65fab0e9021c9d25a86cf3a056e81f171bcc55a6ff8345e692c0f86e5b48e01b996cadc001622fb5e363b421a056e81f171bcc55a6ff8345e692c0f86e5b48e01b996cadc001622fb5e363b421b9010000000000000000000000000000000000000000000000000000000000000000000000000000000000000000000000000000000000000000000000000000000000000000000000000000000000000000000000000000000000000000000000000000000000000000000000000000000000000000000000000000000000000000000000000000000000000000000000000000000000000000000000000000000000000000000000000000000000000000000000000000000000000000000000000000000000000000000000000000000000000000000000000000000000000000000000000000000000000000000000000000000000000000000000000000000000830200008083989680808203b642a056e81f171bcc55a6ff8345e692c0f86e5b48e01b996cadc001622fb5e363b421880102030405060708c0c0",
        "lastblockhash" : "0x15c226a73f5c7877c7488f1f76e1671c4b0d09b613517c8d2d0e741abfd00bfd",
        "network" : "Frontier",
        "postState" : {
            "0x2adc25665018aa1fe0e6bc666dac8fc2697ff9ba" : {
                "balance" : "0x4563918244f5ed7f",
                "code" : "",
                "nonce" : "0x00",
                "storage" : {
                }
            },
            "0x3e180b1862f9d158abb5e519a6d8605540c23682" : {
                "balance" : "0x06",
                "code" : "0x60016000556000600060006000600073b000000000000000000000000000000000000000600035f1600155600c600455",
                "nonce" : "0x36",
                "storage" : {
                    "0x00" : "0x01",
                    "0x04" : "0x0c"
                }
            },
            "0xa94f5374fce5edbc8e2a8697c15331677e6ebf0b" : {
                "balance" : "0xe8d4a32280",
                "code" : "",
                "nonce" : "0x01",
                "storage" : {
                }
            },
            "0xb000000000000000000000000000000000000000" : {
                "balance" : "0x00",
                "code" : "0x6008600255600060006000f050600c600355",
                "nonce" : "0x00",
                "storage" : {
                }
            }
        },
        "pre" : {
            "0x3e180b1862f9d158abb5e519a6d8605540c23682" : {
                "balance" : "0x05",
                "code" : "0x60016000556000600060006000600073b000000000000000000000000000000000000000600035f1600155600c600455",
                "nonce" : "0x36",
                "storage" : {
                }
            },
            "0xa94f5374fce5edbc8e2a8697c15331677e6ebf0b" : {
                "balance" : "0xe8d4a51000",
                "code" : "",
                "nonce" : "0x00",
                "storage" : {
                }
            },
            "0xb000000000000000000000000000000000000000" : {
                "balance" : "0x00",
                "code" : "0x6008600255600060006000f050600c600355",
                "nonce" : "0x00",
                "storage" : {
                }
            }
        }
    },
    "RevertDepthCreateAddressCollision_d0g1v0_Homestead" : {
        "_info" : {
            "comment" : "",
            "filledwith" : "cpp-1.3.0+commit.6e0ce939.Linux.g++",
            "lllcversion" : "Version: 0.4.18-develop.2017.9.25+commit.a72237f2.Linux.g++",
            "source" : "src/BlockchainTestsFiller/GeneralStateTests/stRevertTest/RevertDepthCreateAddressCollision_d0g1v0Filler.json",
            "sourceHash" : "78e5a5cfe31bb8b788b58f38b368c0e5cb9483023d386557c220431c0334f03f"
        },
        "blocks" : [
            {
                "blockHeader" : {
                    "bloom" : "0x00000000000000000000000000000000000000000000000000000000000000000000000000000000000000000000000000000000000000000000000000000000000000000000000000000000000000000000000000000000000000000000000000000000000000000000000000000000000000000000000000000000000000000000000000000000000000000000000000000000000000000000000000000000000000000000000000000000000000000000000000000000000000000000000000000000000000000000000000000000000000000000000000000000000000000000000000000000000000000000000000000000000000000000000000000000",
                    "coinbase" : "0x2adc25665018aa1fe0e6bc666dac8fc2697ff9ba",
                    "difficulty" : "0x020000",
                    "extraData" : "",
                    "gasLimit" : "0x989680",
                    "gasUsed" : "0x01ed7f",
                    "hash" : "0x9c5dd7bce4f7600f3279138d3ae64fd3fa6ce12cb7294ccfa1f1b8ec2bfb1e91",
                    "mixHash" : "0xe5c1bf5b6eb998782c1e4965f4ac4a1355b26dd8c8ec9a05b08145d4c2f8ebd6",
                    "nonce" : "0x2fe2ed9a3d8bd409",
                    "number" : "0x01",
                    "parentHash" : "0x93dcf85bc7a76227f7e21e4ea5f868b5fe35b40c9bacc70d21636b4aea2c8427",
                    "receiptTrie" : "0x5b4b97824db32a86942d9ff562deb8bbd1410673a40c723f030236574c3df113",
                    "stateRoot" : "0x218250bc4eb2802f8f372c206e72fb8c8bb6959cd6b31bb22cf04ea0e93781fa",
                    "timestamp" : "0x03e8",
                    "transactionsTrie" : "0xeedbb2ed5cd67f16cd0134b69d1d8612600008294d81cc7669e4e37f3c499602",
                    "uncleHash" : "0x1dcc4de8dec75d7aab85b567b6ccd41ad312451b948a7413f0a142fd40d49347"
                },
                "rlp" : "0xf9027ff901f8a093dcf85bc7a76227f7e21e4ea5f868b5fe35b40c9bacc70d21636b4aea2c8427a01dcc4de8dec75d7aab85b567b6ccd41ad312451b948a7413f0a142fd40d49347942adc25665018aa1fe0e6bc666dac8fc2697ff9baa0218250bc4eb2802f8f372c206e72fb8c8bb6959cd6b31bb22cf04ea0e93781faa0eedbb2ed5cd67f16cd0134b69d1d8612600008294d81cc7669e4e37f3c499602a05b4b97824db32a86942d9ff562deb8bbd1410673a40c723f030236574c3df113b90100000000000000000000000000000000000000000000000000000000000000000000000000000000000000000000000000000000000000000000000000000000000000000000000000000000000000000000000000000000000000000000000000000000000000000000000000000000000000000000000000000000000000000000000000000000000000000000000000000000000000000000000000000000000000000000000000000000000000000000000000000000000000000000000000000000000000000000000000000000000000000000000000000000000000000000000000000000000000000000000000000000000000000000000000000000008302000001839896808301ed7f8203e880a0e5c1bf5b6eb998782c1e4965f4ac4a1355b26dd8c8ec9a05b08145d4c2f8ebd6882fe2ed9a3d8bd409f881f87f800183027100943e180b1862f9d158abb5e519a6d8605540c2368201a0000000000000000000000000000000000000000000000000000000000000ea601b9f8b930a856a38429c61839f236a248a37597705b23d584f4c1bb1c801c05cb3a02e5d912c48763771022d94171cfd7ce27c3b35b9ad3aa0b959c40a52ef58dba2c0",
                "transactions" : [
                    {
                        "data" : "0x000000000000000000000000000000000000000000000000000000000000ea60",
                        "gasLimit" : "0x027100",
                        "gasPrice" : "0x01",
                        "nonce" : "0x00",
                        "r" : "0x8b930a856a38429c61839f236a248a37597705b23d584f4c1bb1c801c05cb3",
                        "s" : "0x2e5d912c48763771022d94171cfd7ce27c3b35b9ad3aa0b959c40a52ef58dba2",
                        "to" : "0x3e180b1862f9d158abb5e519a6d8605540c23682",
                        "v" : "0x1b",
                        "value" : "0x01"
                    }
                ],
                "uncleHeaders" : [
                ]
            }
        ],
        "genesisBlockHeader" : {
            "bloom" : "0x00000000000000000000000000000000000000000000000000000000000000000000000000000000000000000000000000000000000000000000000000000000000000000000000000000000000000000000000000000000000000000000000000000000000000000000000000000000000000000000000000000000000000000000000000000000000000000000000000000000000000000000000000000000000000000000000000000000000000000000000000000000000000000000000000000000000000000000000000000000000000000000000000000000000000000000000000000000000000000000000000000000000000000000000000000000",
            "coinbase" : "0x2adc25665018aa1fe0e6bc666dac8fc2697ff9ba",
            "difficulty" : "0x020000",
            "extraData" : "0x42",
            "gasLimit" : "0x989680",
            "gasUsed" : "0x00",
            "hash" : "0x93dcf85bc7a76227f7e21e4ea5f868b5fe35b40c9bacc70d21636b4aea2c8427",
            "mixHash" : "0x56e81f171bcc55a6ff8345e692c0f86e5b48e01b996cadc001622fb5e363b421",
            "nonce" : "0x0102030405060708",
            "number" : "0x00",
            "parentHash" : "0x0000000000000000000000000000000000000000000000000000000000000000",
            "receiptTrie" : "0x56e81f171bcc55a6ff8345e692c0f86e5b48e01b996cadc001622fb5e363b421",
            "stateRoot" : "0x2021386d37ea74464f53e382b6525956b68259567a65fab0e9021c9d25a86cf3",
            "timestamp" : "0x03b6",
            "transactionsTrie" : "0x56e81f171bcc55a6ff8345e692c0f86e5b48e01b996cadc001622fb5e363b421",
            "uncleHash" : "0x1dcc4de8dec75d7aab85b567b6ccd41ad312451b948a7413f0a142fd40d49347"
        },
        "genesisRLP" : "0xf901faf901f5a00000000000000000000000000000000000000000000000000000000000000000a01dcc4de8dec75d7aab85b567b6ccd41ad312451b948a7413f0a142fd40d49347942adc25665018aa1fe0e6bc666dac8fc2697ff9baa02021386d37ea74464f53e382b6525956b68259567a65fab0e9021c9d25a86cf3a056e81f171bcc55a6ff8345e692c0f86e5b48e01b996cadc001622fb5e363b421a056e81f171bcc55a6ff8345e692c0f86e5b48e01b996cadc001622fb5e363b421b9010000000000000000000000000000000000000000000000000000000000000000000000000000000000000000000000000000000000000000000000000000000000000000000000000000000000000000000000000000000000000000000000000000000000000000000000000000000000000000000000000000000000000000000000000000000000000000000000000000000000000000000000000000000000000000000000000000000000000000000000000000000000000000000000000000000000000000000000000000000000000000000000000000000000000000000000000000000000000000000000000000000000000000000000000000000000830200008083989680808203b642a056e81f171bcc55a6ff8345e692c0f86e5b48e01b996cadc001622fb5e363b421880102030405060708c0c0",
        "lastblockhash" : "0x9c5dd7bce4f7600f3279138d3ae64fd3fa6ce12cb7294ccfa1f1b8ec2bfb1e91",
        "network" : "Homestead",
        "postState" : {
            "0x2adc25665018aa1fe0e6bc666dac8fc2697ff9ba" : {
                "balance" : "0x4563918244f5ed7f",
                "code" : "",
                "nonce" : "0x00",
                "storage" : {
                }
            },
            "0x3e180b1862f9d158abb5e519a6d8605540c23682" : {
                "balance" : "0x06",
                "code" : "0x60016000556000600060006000600073b000000000000000000000000000000000000000600035f1600155600c600455",
                "nonce" : "0x36",
                "storage" : {
                    "0x00" : "0x01",
                    "0x04" : "0x0c"
                }
            },
            "0xa94f5374fce5edbc8e2a8697c15331677e6ebf0b" : {
                "balance" : "0xe8d4a32280",
                "code" : "",
                "nonce" : "0x01",
                "storage" : {
                }
            },
            "0xb000000000000000000000000000000000000000" : {
                "balance" : "0x00",
                "code" : "0x6008600255600060006000f050600c600355",
                "nonce" : "0x00",
                "storage" : {
                }
            }
        },
        "pre" : {
            "0x3e180b1862f9d158abb5e519a6d8605540c23682" : {
                "balance" : "0x05",
                "code" : "0x60016000556000600060006000600073b000000000000000000000000000000000000000600035f1600155600c600455",
                "nonce" : "0x36",
                "storage" : {
                }
            },
            "0xa94f5374fce5edbc8e2a8697c15331677e6ebf0b" : {
                "balance" : "0xe8d4a51000",
                "code" : "",
                "nonce" : "0x00",
                "storage" : {
                }
            },
            "0xb000000000000000000000000000000000000000" : {
                "balance" : "0x00",
                "code" : "0x6008600255600060006000f050600c600355",
                "nonce" : "0x00",
                "storage" : {
                }
            }
        }
    }
}