{
    "RevertPrefoundEmptyCallOOG_d0g0v0_Byzantium" : {
        "_info" : {
            "comment" : "",
            "filledwith" : "cpp-1.3.0+commit.6e0ce939.Linux.g++",
            "lllcversion" : "Version: 0.4.18-develop.2017.9.25+commit.a72237f2.Linux.g++",
            "source" : "src/BlockchainTestsFiller/GeneralStateTests/stRevertTest/RevertPrefoundEmptyCallOOG_d0g0v0Filler.json",
            "sourceHash" : "be920b690873a78eb27b7ba96e9203c15f79f43540d10d55e422dc7c31ff9736"
        },
        "blocks" : [
            {
                "blockHeader" : {
                    "bloom" : "0x00000000000000000000000000000000000000000000000000000000000000000000000000000000000000000000000000000000000000000000000000000000000000000000000000000000000000000000000000000000000000000000000000000000000000000000000000000000000000000000000000000000000000000000000000000000000000000000000000000000000000000000000000000000000000000000000000000000000000000000000000000000000000000000000000000000000000000000000000000000000000000000000000000000000000000000000000000000000000000000000000000000000000000000000000000000",
                    "coinbase" : "0x2adc25665018aa1fe0e6bc666dac8fc2697ff9ba",
                    "difficulty" : "0x020000",
                    "extraData" : "",
                    "gasLimit" : "0x989680",
                    "gasUsed" : "0xf618",
                    "hash" : "0xad4539cc40fcd9bfb1528e4394decb0be2739d1dd8aa41cd8b52b9a5649b33ec",
                    "mixHash" : "0xd29d810351bf37535e3f51c5084f262d90b04dc26948f416a2a2c9d016a7536f",
                    "nonce" : "0x1d9288e092f54df8",
                    "number" : "0x01",
                    "parentHash" : "0x4819c44c75c3dcaa32d54c056e613da983bd8b86001ad01d0d97d9c0ca0703a9",
                    "receiptTrie" : "0xea5612179b7b4a1f92bf7fc46c363bfe9555bf38b5b90fcb10d6815123883474",
                    "stateRoot" : "0x4b2306d284886509282cf7a1de6ac9ce2feb4378cd1b84e834bf66d5bc4e8bb0",
                    "timestamp" : "0x03e8",
                    "transactionsTrie" : "0x6411da215479c28fa2d2792ee02e84dda72b12d64fbd9534e5439fa772ce6f6f",
                    "uncleHash" : "0x1dcc4de8dec75d7aab85b567b6ccd41ad312451b948a7413f0a142fd40d49347"
                },
                "rlp" : "0xf9025ef901f7a04819c44c75c3dcaa32d54c056e613da983bd8b86001ad01d0d97d9c0ca0703a9a01dcc4de8dec75d7aab85b567b6ccd41ad312451b948a7413f0a142fd40d49347942adc25665018aa1fe0e6bc666dac8fc2697ff9baa04b2306d284886509282cf7a1de6ac9ce2feb4378cd1b84e834bf66d5bc4e8bb0a06411da215479c28fa2d2792ee02e84dda72b12d64fbd9534e5439fa772ce6f6fa0ea5612179b7b4a1f92bf7fc46c363bfe9555bf38b5b90fcb10d6815123883474b901000000000000000000000000000000000000000000000000000000000000000000000000000000000000000000000000000000000000000000000000000000000000000000000000000000000000000000000000000000000000000000000000000000000000000000000000000000000000000000000000000000000000000000000000000000000000000000000000000000000000000000000000000000000000000000000000000000000000000000000000000000000000000000000000000000000000000000000000000000000000000000000000000000000000000000000000000000000000000000000000000000000000000000000000000000000083020000018398968082f6188203e880a0d29d810351bf37535e3f51c5084f262d90b04dc26948f416a2a2c9d016a7536f881d9288e092f54df8f861f85f800182f61894a00000000000000000000000000000000000000080801ca0246a61332db8981ed5eb513096f2e28373b7497fb8467c1e3af0f53f3aae0450a06d0f0e6c4c8db5b12b53089a0a80639de16cf32d1db2c3d20683e7dedb05934bc0",
                "transactions" : [
                    {
                        "data" : "",
                        "gasLimit" : "0xf618",
                        "gasPrice" : "0x01",
                        "nonce" : "0x00",
                        "r" : "0x246a61332db8981ed5eb513096f2e28373b7497fb8467c1e3af0f53f3aae0450",
                        "s" : "0x6d0f0e6c4c8db5b12b53089a0a80639de16cf32d1db2c3d20683e7dedb05934b",
                        "to" : "0xa000000000000000000000000000000000000000",
                        "v" : "0x1c",
                        "value" : "0x00"
                    }
                ],
                "uncleHeaders" : [
                ]
            }
        ],
        "genesisBlockHeader" : {
            "bloom" : "0x00000000000000000000000000000000000000000000000000000000000000000000000000000000000000000000000000000000000000000000000000000000000000000000000000000000000000000000000000000000000000000000000000000000000000000000000000000000000000000000000000000000000000000000000000000000000000000000000000000000000000000000000000000000000000000000000000000000000000000000000000000000000000000000000000000000000000000000000000000000000000000000000000000000000000000000000000000000000000000000000000000000000000000000000000000000",
            "coinbase" : "0x2adc25665018aa1fe0e6bc666dac8fc2697ff9ba",
            "difficulty" : "0x020000",
            "extraData" : "0x42",
            "gasLimit" : "0x989680",
            "gasUsed" : "0x00",
            "hash" : "0x4819c44c75c3dcaa32d54c056e613da983bd8b86001ad01d0d97d9c0ca0703a9",
            "mixHash" : "0x56e81f171bcc55a6ff8345e692c0f86e5b48e01b996cadc001622fb5e363b421",
            "nonce" : "0x0102030405060708",
            "number" : "0x00",
            "parentHash" : "0x0000000000000000000000000000000000000000000000000000000000000000",
            "receiptTrie" : "0x56e81f171bcc55a6ff8345e692c0f86e5b48e01b996cadc001622fb5e363b421",
            "stateRoot" : "0x7d9d706af5a8dae2ee0a8cbf1ed5f851b483ea075847e28fe03420497778ce14",
            "timestamp" : "0x03b6",
            "transactionsTrie" : "0x56e81f171bcc55a6ff8345e692c0f86e5b48e01b996cadc001622fb5e363b421",
            "uncleHash" : "0x1dcc4de8dec75d7aab85b567b6ccd41ad312451b948a7413f0a142fd40d49347"
        },
        "genesisRLP" : "0xf901faf901f5a00000000000000000000000000000000000000000000000000000000000000000a01dcc4de8dec75d7aab85b567b6ccd41ad312451b948a7413f0a142fd40d49347942adc25665018aa1fe0e6bc666dac8fc2697ff9baa07d9d706af5a8dae2ee0a8cbf1ed5f851b483ea075847e28fe03420497778ce14a056e81f171bcc55a6ff8345e692c0f86e5b48e01b996cadc001622fb5e363b421a056e81f171bcc55a6ff8345e692c0f86e5b48e01b996cadc001622fb5e363b421b9010000000000000000000000000000000000000000000000000000000000000000000000000000000000000000000000000000000000000000000000000000000000000000000000000000000000000000000000000000000000000000000000000000000000000000000000000000000000000000000000000000000000000000000000000000000000000000000000000000000000000000000000000000000000000000000000000000000000000000000000000000000000000000000000000000000000000000000000000000000000000000000000000000000000000000000000000000000000000000000000000000000000000000000000000000000000830200008083989680808203b642a056e81f171bcc55a6ff8345e692c0f86e5b48e01b996cadc001622fb5e363b421880102030405060708c0c0",
        "lastblockhash" : "0xad4539cc40fcd9bfb1528e4394decb0be2739d1dd8aa41cd8b52b9a5649b33ec",
        "network" : "Byzantium",
        "postState" : {
            "0x2adc25665018aa1fe0e6bc666dac8fc2697ff9ba" : {
                "balance" : "0x29a2241af62cf618",
                "code" : "",
                "nonce" : "0x00",
                "storage" : {
                }
            },
            "0x7db299e0885c85039f56fa504a13dd8ce8a56aa7" : {
                "balance" : "0x00",
                "code" : "",
                "nonce" : "0x00",
                "storage" : {
                }
            },
            "0xa000000000000000000000000000000000000000" : {
                "balance" : "0x01",
                "code" : "0x60206000602060006000737db299e0885c85039f56fa504a13dd8ce8a56aa761c350f1600055600c600155600c600255",
                "nonce" : "0x00",
                "storage" : {
                }
            },
            "0xa94f5374fce5edbc8e2a8697c15331677e6ebf0b" : {
                "balance" : "0xe8d4a419e8",
                "code" : "",
                "nonce" : "0x01",
                "storage" : {
                }
            }
        },
        "pre" : {
            "0x7db299e0885c85039f56fa504a13dd8ce8a56aa7" : {
                "balance" : "0x00",
                "code" : "",
                "nonce" : "0x00",
                "storage" : {
                }
            },
            "0xa000000000000000000000000000000000000000" : {
                "balance" : "0x01",
                "code" : "0x60206000602060006000737db299e0885c85039f56fa504a13dd8ce8a56aa761c350f1600055600c600155600c600255",
                "nonce" : "0x00",
                "storage" : {
                }
            },
            "0xa94f5374fce5edbc8e2a8697c15331677e6ebf0b" : {
                "balance" : "0xe8d4a51000",
                "code" : "",
                "nonce" : "0x00",
                "storage" : {
                }
            }
        }
    },
    "RevertPrefoundEmptyCallOOG_d0g0v0_EIP150" : {
        "_info" : {
            "comment" : "",
            "filledwith" : "cpp-1.3.0+commit.6e0ce939.Linux.g++",
            "lllcversion" : "Version: 0.4.18-develop.2017.9.25+commit.a72237f2.Linux.g++",
            "source" : "src/BlockchainTestsFiller/GeneralStateTests/stRevertTest/RevertPrefoundEmptyCallOOG_d0g0v0Filler.json",
            "sourceHash" : "be920b690873a78eb27b7ba96e9203c15f79f43540d10d55e422dc7c31ff9736"
        },
        "blocks" : [
            {
                "blockHeader" : {
                    "bloom" : "0x00000000000000000000000000000000000000000000000000000000000000000000000000000000000000000000000000000000000000000000000000000000000000000000000000000000000000000000000000000000000000000000000000000000000000000000000000000000000000000000000000000000000000000000000000000000000000000000000000000000000000000000000000000000000000000000000000000000000000000000000000000000000000000000000000000000000000000000000000000000000000000000000000000000000000000000000000000000000000000000000000000000000000000000000000000000",
                    "coinbase" : "0x2adc25665018aa1fe0e6bc666dac8fc2697ff9ba",
                    "difficulty" : "0x020000",
                    "extraData" : "",
                    "gasLimit" : "0x989680",
                    "gasUsed" : "0xf618",
                    "hash" : "0xd62b86801e6150f7d96e70bd3bbdeef862570f7f1763fac4d383a4a4de2dc779",
                    "mixHash" : "0x2c7648f2c9b7d52a28f9b5f500afd52b45aaf2d2d20c6796f0b57174b3855e96",
                    "nonce" : "0x3d84a5f40c1b337b",
                    "number" : "0x01",
                    "parentHash" : "0x4819c44c75c3dcaa32d54c056e613da983bd8b86001ad01d0d97d9c0ca0703a9",
                    "receiptTrie" : "0x667733204067902fa0a97ad2255b81d9c992416f45a2bb4ff5ae62566ce841a0",
                    "stateRoot" : "0xad1a02ff92470ea61eca52f955397823d9f8da21d2e403634e632b056468adbc",
                    "timestamp" : "0x03e8",
                    "transactionsTrie" : "0x6411da215479c28fa2d2792ee02e84dda72b12d64fbd9534e5439fa772ce6f6f",
                    "uncleHash" : "0x1dcc4de8dec75d7aab85b567b6ccd41ad312451b948a7413f0a142fd40d49347"
                },
                "rlp" : "0xf9025ef901f7a04819c44c75c3dcaa32d54c056e613da983bd8b86001ad01d0d97d9c0ca0703a9a01dcc4de8dec75d7aab85b567b6ccd41ad312451b948a7413f0a142fd40d49347942adc25665018aa1fe0e6bc666dac8fc2697ff9baa0ad1a02ff92470ea61eca52f955397823d9f8da21d2e403634e632b056468adbca06411da215479c28fa2d2792ee02e84dda72b12d64fbd9534e5439fa772ce6f6fa0667733204067902fa0a97ad2255b81d9c992416f45a2bb4ff5ae62566ce841a0b901000000000000000000000000000000000000000000000000000000000000000000000000000000000000000000000000000000000000000000000000000000000000000000000000000000000000000000000000000000000000000000000000000000000000000000000000000000000000000000000000000000000000000000000000000000000000000000000000000000000000000000000000000000000000000000000000000000000000000000000000000000000000000000000000000000000000000000000000000000000000000000000000000000000000000000000000000000000000000000000000000000000000000000000000000000000083020000018398968082f6188203e880a02c7648f2c9b7d52a28f9b5f500afd52b45aaf2d2d20c6796f0b57174b3855e96883d84a5f40c1b337bf861f85f800182f61894a00000000000000000000000000000000000000080801ca0246a61332db8981ed5eb513096f2e28373b7497fb8467c1e3af0f53f3aae0450a06d0f0e6c4c8db5b12b53089a0a80639de16cf32d1db2c3d20683e7dedb05934bc0",
                "transactions" : [
                    {
                        "data" : "",
                        "gasLimit" : "0xf618",
                        "gasPrice" : "0x01",
                        "nonce" : "0x00",
                        "r" : "0x246a61332db8981ed5eb513096f2e28373b7497fb8467c1e3af0f53f3aae0450",
                        "s" : "0x6d0f0e6c4c8db5b12b53089a0a80639de16cf32d1db2c3d20683e7dedb05934b",
                        "to" : "0xa000000000000000000000000000000000000000",
                        "v" : "0x1c",
                        "value" : "0x00"
                    }
                ],
                "uncleHeaders" : [
                ]
            }
        ],
        "genesisBlockHeader" : {
            "bloom" : "0x00000000000000000000000000000000000000000000000000000000000000000000000000000000000000000000000000000000000000000000000000000000000000000000000000000000000000000000000000000000000000000000000000000000000000000000000000000000000000000000000000000000000000000000000000000000000000000000000000000000000000000000000000000000000000000000000000000000000000000000000000000000000000000000000000000000000000000000000000000000000000000000000000000000000000000000000000000000000000000000000000000000000000000000000000000000",
            "coinbase" : "0x2adc25665018aa1fe0e6bc666dac8fc2697ff9ba",
            "difficulty" : "0x020000",
            "extraData" : "0x42",
            "gasLimit" : "0x989680",
            "gasUsed" : "0x00",
            "hash" : "0x4819c44c75c3dcaa32d54c056e613da983bd8b86001ad01d0d97d9c0ca0703a9",
            "mixHash" : "0x56e81f171bcc55a6ff8345e692c0f86e5b48e01b996cadc001622fb5e363b421",
            "nonce" : "0x0102030405060708",
            "number" : "0x00",
            "parentHash" : "0x0000000000000000000000000000000000000000000000000000000000000000",
            "receiptTrie" : "0x56e81f171bcc55a6ff8345e692c0f86e5b48e01b996cadc001622fb5e363b421",
            "stateRoot" : "0x7d9d706af5a8dae2ee0a8cbf1ed5f851b483ea075847e28fe03420497778ce14",
            "timestamp" : "0x03b6",
            "transactionsTrie" : "0x56e81f171bcc55a6ff8345e692c0f86e5b48e01b996cadc001622fb5e363b421",
            "uncleHash" : "0x1dcc4de8dec75d7aab85b567b6ccd41ad312451b948a7413f0a142fd40d49347"
        },
        "genesisRLP" : "0xf901faf901f5a00000000000000000000000000000000000000000000000000000000000000000a01dcc4de8dec75d7aab85b567b6ccd41ad312451b948a7413f0a142fd40d49347942adc25665018aa1fe0e6bc666dac8fc2697ff9baa07d9d706af5a8dae2ee0a8cbf1ed5f851b483ea075847e28fe03420497778ce14a056e81f171bcc55a6ff8345e692c0f86e5b48e01b996cadc001622fb5e363b421a056e81f171bcc55a6ff8345e692c0f86e5b48e01b996cadc001622fb5e363b421b9010000000000000000000000000000000000000000000000000000000000000000000000000000000000000000000000000000000000000000000000000000000000000000000000000000000000000000000000000000000000000000000000000000000000000000000000000000000000000000000000000000000000000000000000000000000000000000000000000000000000000000000000000000000000000000000000000000000000000000000000000000000000000000000000000000000000000000000000000000000000000000000000000000000000000000000000000000000000000000000000000000000000000000000000000000000000830200008083989680808203b642a056e81f171bcc55a6ff8345e692c0f86e5b48e01b996cadc001622fb5e363b421880102030405060708c0c0",
        "lastblockhash" : "0xd62b86801e6150f7d96e70bd3bbdeef862570f7f1763fac4d383a4a4de2dc779",
        "network" : "EIP150",
        "postState" : {
            "0x2adc25665018aa1fe0e6bc666dac8fc2697ff9ba" : {
                "balance" : "0x4563918244f4f618",
                "code" : "",
                "nonce" : "0x00",
                "storage" : {
                }
            },
            "0x7db299e0885c85039f56fa504a13dd8ce8a56aa7" : {
                "balance" : "0x00",
                "code" : "",
                "nonce" : "0x00",
                "storage" : {
                }
            },
            "0xa000000000000000000000000000000000000000" : {
                "balance" : "0x01",
                "code" : "0x60206000602060006000737db299e0885c85039f56fa504a13dd8ce8a56aa761c350f1600055600c600155600c600255",
                "nonce" : "0x00",
                "storage" : {
                }
            },
            "0xa94f5374fce5edbc8e2a8697c15331677e6ebf0b" : {
                "balance" : "0xe8d4a419e8",
                "code" : "",
                "nonce" : "0x01",
                "storage" : {
                }
            }
        },
        "pre" : {
            "0x7db299e0885c85039f56fa504a13dd8ce8a56aa7" : {
                "balance" : "0x00",
                "code" : "",
                "nonce" : "0x00",
                "storage" : {
                }
            },
            "0xa000000000000000000000000000000000000000" : {
                "balance" : "0x01",
                "code" : "0x60206000602060006000737db299e0885c85039f56fa504a13dd8ce8a56aa761c350f1600055600c600155600c600255",
                "nonce" : "0x00",
                "storage" : {
                }
            },
            "0xa94f5374fce5edbc8e2a8697c15331677e6ebf0b" : {
                "balance" : "0xe8d4a51000",
                "code" : "",
                "nonce" : "0x00",
                "storage" : {
                }
            }
        }
    },
    "RevertPrefoundEmptyCallOOG_d0g0v0_EIP158" : {
        "_info" : {
            "comment" : "",
            "filledwith" : "cpp-1.3.0+commit.6e0ce939.Linux.g++",
            "lllcversion" : "Version: 0.4.18-develop.2017.9.25+commit.a72237f2.Linux.g++",
            "source" : "src/BlockchainTestsFiller/GeneralStateTests/stRevertTest/RevertPrefoundEmptyCallOOG_d0g0v0Filler.json",
            "sourceHash" : "be920b690873a78eb27b7ba96e9203c15f79f43540d10d55e422dc7c31ff9736"
        },
        "blocks" : [
            {
                "blockHeader" : {
                    "bloom" : "0x00000000000000000000000000000000000000000000000000000000000000000000000000000000000000000000000000000000000000000000000000000000000000000000000000000000000000000000000000000000000000000000000000000000000000000000000000000000000000000000000000000000000000000000000000000000000000000000000000000000000000000000000000000000000000000000000000000000000000000000000000000000000000000000000000000000000000000000000000000000000000000000000000000000000000000000000000000000000000000000000000000000000000000000000000000000",
                    "coinbase" : "0x2adc25665018aa1fe0e6bc666dac8fc2697ff9ba",
                    "difficulty" : "0x020000",
                    "extraData" : "",
                    "gasLimit" : "0x989680",
                    "gasUsed" : "0xf618",
                    "hash" : "0x1eb18bb4829454575753a2bb97a4bbe94e375dca9dd0bcdb86699152dcd6634a",
                    "mixHash" : "0xd167596383958a66e94aae941619f1d3ab06a763acce4b656ad5ef3e534d7a72",
                    "nonce" : "0x39a5ade58c4a2670",
                    "number" : "0x01",
                    "parentHash" : "0x4819c44c75c3dcaa32d54c056e613da983bd8b86001ad01d0d97d9c0ca0703a9",
                    "receiptTrie" : "0x667733204067902fa0a97ad2255b81d9c992416f45a2bb4ff5ae62566ce841a0",
                    "stateRoot" : "0xad1a02ff92470ea61eca52f955397823d9f8da21d2e403634e632b056468adbc",
                    "timestamp" : "0x03e8",
                    "transactionsTrie" : "0x6411da215479c28fa2d2792ee02e84dda72b12d64fbd9534e5439fa772ce6f6f",
                    "uncleHash" : "0x1dcc4de8dec75d7aab85b567b6ccd41ad312451b948a7413f0a142fd40d49347"
                },
                "rlp" : "0xf9025ef901f7a04819c44c75c3dcaa32d54c056e613da983bd8b86001ad01d0d97d9c0ca0703a9a01dcc4de8dec75d7aab85b567b6ccd41ad312451b948a7413f0a142fd40d49347942adc25665018aa1fe0e6bc666dac8fc2697ff9baa0ad1a02ff92470ea61eca52f955397823d9f8da21d2e403634e632b056468adbca06411da215479c28fa2d2792ee02e84dda72b12d64fbd9534e5439fa772ce6f6fa0667733204067902fa0a97ad2255b81d9c992416f45a2bb4ff5ae62566ce841a0b901000000000000000000000000000000000000000000000000000000000000000000000000000000000000000000000000000000000000000000000000000000000000000000000000000000000000000000000000000000000000000000000000000000000000000000000000000000000000000000000000000000000000000000000000000000000000000000000000000000000000000000000000000000000000000000000000000000000000000000000000000000000000000000000000000000000000000000000000000000000000000000000000000000000000000000000000000000000000000000000000000000000000000000000000000000000083020000018398968082f6188203e880a0d167596383958a66e94aae941619f1d3ab06a763acce4b656ad5ef3e534d7a728839a5ade58c4a2670f861f85f800182f61894a00000000000000000000000000000000000000080801ca0246a61332db8981ed5eb513096f2e28373b7497fb8467c1e3af0f53f3aae0450a06d0f0e6c4c8db5b12b53089a0a80639de16cf32d1db2c3d20683e7dedb05934bc0",
                "transactions" : [
                    {
                        "data" : "",
                        "gasLimit" : "0xf618",
                        "gasPrice" : "0x01",
                        "nonce" : "0x00",
                        "r" : "0x246a61332db8981ed5eb513096f2e28373b7497fb8467c1e3af0f53f3aae0450",
                        "s" : "0x6d0f0e6c4c8db5b12b53089a0a80639de16cf32d1db2c3d20683e7dedb05934b",
                        "to" : "0xa000000000000000000000000000000000000000",
                        "v" : "0x1c",
                        "value" : "0x00"
                    }
                ],
                "uncleHeaders" : [
                ]
            }
        ],
        "genesisBlockHeader" : {
            "bloom" : "0x00000000000000000000000000000000000000000000000000000000000000000000000000000000000000000000000000000000000000000000000000000000000000000000000000000000000000000000000000000000000000000000000000000000000000000000000000000000000000000000000000000000000000000000000000000000000000000000000000000000000000000000000000000000000000000000000000000000000000000000000000000000000000000000000000000000000000000000000000000000000000000000000000000000000000000000000000000000000000000000000000000000000000000000000000000000",
            "coinbase" : "0x2adc25665018aa1fe0e6bc666dac8fc2697ff9ba",
            "difficulty" : "0x020000",
            "extraData" : "0x42",
            "gasLimit" : "0x989680",
            "gasUsed" : "0x00",
            "hash" : "0x4819c44c75c3dcaa32d54c056e613da983bd8b86001ad01d0d97d9c0ca0703a9",
            "mixHash" : "0x56e81f171bcc55a6ff8345e692c0f86e5b48e01b996cadc001622fb5e363b421",
            "nonce" : "0x0102030405060708",
            "number" : "0x00",
            "parentHash" : "0x0000000000000000000000000000000000000000000000000000000000000000",
            "receiptTrie" : "0x56e81f171bcc55a6ff8345e692c0f86e5b48e01b996cadc001622fb5e363b421",
            "stateRoot" : "0x7d9d706af5a8dae2ee0a8cbf1ed5f851b483ea075847e28fe03420497778ce14",
            "timestamp" : "0x03b6",
            "transactionsTrie" : "0x56e81f171bcc55a6ff8345e692c0f86e5b48e01b996cadc001622fb5e363b421",
            "uncleHash" : "0x1dcc4de8dec75d7aab85b567b6ccd41ad312451b948a7413f0a142fd40d49347"
        },
        "genesisRLP" : "0xf901faf901f5a00000000000000000000000000000000000000000000000000000000000000000a01dcc4de8dec75d7aab85b567b6ccd41ad312451b948a7413f0a142fd40d49347942adc25665018aa1fe0e6bc666dac8fc2697ff9baa07d9d706af5a8dae2ee0a8cbf1ed5f851b483ea075847e28fe03420497778ce14a056e81f171bcc55a6ff8345e692c0f86e5b48e01b996cadc001622fb5e363b421a056e81f171bcc55a6ff8345e692c0f86e5b48e01b996cadc001622fb5e363b421b9010000000000000000000000000000000000000000000000000000000000000000000000000000000000000000000000000000000000000000000000000000000000000000000000000000000000000000000000000000000000000000000000000000000000000000000000000000000000000000000000000000000000000000000000000000000000000000000000000000000000000000000000000000000000000000000000000000000000000000000000000000000000000000000000000000000000000000000000000000000000000000000000000000000000000000000000000000000000000000000000000000000000000000000000000000000000830200008083989680808203b642a056e81f171bcc55a6ff8345e692c0f86e5b48e01b996cadc001622fb5e363b421880102030405060708c0c0",
        "lastblockhash" : "0x1eb18bb4829454575753a2bb97a4bbe94e375dca9dd0bcdb86699152dcd6634a",
        "network" : "EIP158",
        "postState" : {
            "0x2adc25665018aa1fe0e6bc666dac8fc2697ff9ba" : {
                "balance" : "0x4563918244f4f618",
                "code" : "",
                "nonce" : "0x00",
                "storage" : {
                }
            },
            "0x7db299e0885c85039f56fa504a13dd8ce8a56aa7" : {
                "balance" : "0x00",
                "code" : "",
                "nonce" : "0x00",
                "storage" : {
                }
            },
            "0xa000000000000000000000000000000000000000" : {
                "balance" : "0x01",
                "code" : "0x60206000602060006000737db299e0885c85039f56fa504a13dd8ce8a56aa761c350f1600055600c600155600c600255",
                "nonce" : "0x00",
                "storage" : {
                }
            },
            "0xa94f5374fce5edbc8e2a8697c15331677e6ebf0b" : {
                "balance" : "0xe8d4a419e8",
                "code" : "",
                "nonce" : "0x01",
                "storage" : {
                }
            }
        },
        "pre" : {
            "0x7db299e0885c85039f56fa504a13dd8ce8a56aa7" : {
                "balance" : "0x00",
                "code" : "",
                "nonce" : "0x00",
                "storage" : {
                }
            },
            "0xa000000000000000000000000000000000000000" : {
                "balance" : "0x01",
                "code" : "0x60206000602060006000737db299e0885c85039f56fa504a13dd8ce8a56aa761c350f1600055600c600155600c600255",
                "nonce" : "0x00",
                "storage" : {
                }
            },
            "0xa94f5374fce5edbc8e2a8697c15331677e6ebf0b" : {
                "balance" : "0xe8d4a51000",
                "code" : "",
                "nonce" : "0x00",
                "storage" : {
                }
            }
        }
    },
    "RevertPrefoundEmptyCallOOG_d0g0v0_Frontier" : {
        "_info" : {
            "comment" : "",
            "filledwith" : "cpp-1.3.0+commit.6e0ce939.Linux.g++",
            "lllcversion" : "Version: 0.4.18-develop.2017.9.25+commit.a72237f2.Linux.g++",
            "source" : "src/BlockchainTestsFiller/GeneralStateTests/stRevertTest/RevertPrefoundEmptyCallOOG_d0g0v0Filler.json",
            "sourceHash" : "be920b690873a78eb27b7ba96e9203c15f79f43540d10d55e422dc7c31ff9736"
        },
        "blocks" : [
            {
                "blockHeader" : {
                    "bloom" : "0x00000000000000000000000000000000000000000000000000000000000000000000000000000000000000000000000000000000000000000000000000000000000000000000000000000000000000000000000000000000000000000000000000000000000000000000000000000000000000000000000000000000000000000000000000000000000000000000000000000000000000000000000000000000000000000000000000000000000000000000000000000000000000000000000000000000000000000000000000000000000000000000000000000000000000000000000000000000000000000000000000000000000000000000000000000000",
                    "coinbase" : "0x2adc25665018aa1fe0e6bc666dac8fc2697ff9ba",
                    "difficulty" : "0x020000",
                    "extraData" : "",
                    "gasLimit" : "0x989680",
                    "gasUsed" : "0xf618",
                    "hash" : "0x2a9dbacdd33d380b82bc53e55ada156196feb3f0f9bb1f42815099450cc38730",
                    "mixHash" : "0x02d6efcae3088cf2754f475fb68afa60b65694460bb9640e986d8f7eb38fe942",
                    "nonce" : "0xea15e03b93ed77ba",
                    "number" : "0x01",
                    "parentHash" : "0x4819c44c75c3dcaa32d54c056e613da983bd8b86001ad01d0d97d9c0ca0703a9",
                    "receiptTrie" : "0x667733204067902fa0a97ad2255b81d9c992416f45a2bb4ff5ae62566ce841a0",
                    "stateRoot" : "0xad1a02ff92470ea61eca52f955397823d9f8da21d2e403634e632b056468adbc",
                    "timestamp" : "0x03e8",
                    "transactionsTrie" : "0x6411da215479c28fa2d2792ee02e84dda72b12d64fbd9534e5439fa772ce6f6f",
                    "uncleHash" : "0x1dcc4de8dec75d7aab85b567b6ccd41ad312451b948a7413f0a142fd40d49347"
                },
                "rlp" : "0xf9025ef901f7a04819c44c75c3dcaa32d54c056e613da983bd8b86001ad01d0d97d9c0ca0703a9a01dcc4de8dec75d7aab85b567b6ccd41ad312451b948a7413f0a142fd40d49347942adc25665018aa1fe0e6bc666dac8fc2697ff9baa0ad1a02ff92470ea61eca52f955397823d9f8da21d2e403634e632b056468adbca06411da215479c28fa2d2792ee02e84dda72b12d64fbd9534e5439fa772ce6f6fa0667733204067902fa0a97ad2255b81d9c992416f45a2bb4ff5ae62566ce841a0b901000000000000000000000000000000000000000000000000000000000000000000000000000000000000000000000000000000000000000000000000000000000000000000000000000000000000000000000000000000000000000000000000000000000000000000000000000000000000000000000000000000000000000000000000000000000000000000000000000000000000000000000000000000000000000000000000000000000000000000000000000000000000000000000000000000000000000000000000000000000000000000000000000000000000000000000000000000000000000000000000000000000000000000000000000000000083020000018398968082f6188203e880a002d6efcae3088cf2754f475fb68afa60b65694460bb9640e986d8f7eb38fe94288ea15e03b93ed77baf861f85f800182f61894a00000000000000000000000000000000000000080801ca0246a61332db8981ed5eb513096f2e28373b7497fb8467c1e3af0f53f3aae0450a06d0f0e6c4c8db5b12b53089a0a80639de16cf32d1db2c3d20683e7dedb05934bc0",
                "transactions" : [
                    {
                        "data" : "",
                        "gasLimit" : "0xf618",
                        "gasPrice" : "0x01",
                        "nonce" : "0x00",
                        "r" : "0x246a61332db8981ed5eb513096f2e28373b7497fb8467c1e3af0f53f3aae0450",
                        "s" : "0x6d0f0e6c4c8db5b12b53089a0a80639de16cf32d1db2c3d20683e7dedb05934b",
                        "to" : "0xa000000000000000000000000000000000000000",
                        "v" : "0x1c",
                        "value" : "0x00"
                    }
                ],
                "uncleHeaders" : [
                ]
            }
        ],
        "genesisBlockHeader" : {
            "bloom" : "0x00000000000000000000000000000000000000000000000000000000000000000000000000000000000000000000000000000000000000000000000000000000000000000000000000000000000000000000000000000000000000000000000000000000000000000000000000000000000000000000000000000000000000000000000000000000000000000000000000000000000000000000000000000000000000000000000000000000000000000000000000000000000000000000000000000000000000000000000000000000000000000000000000000000000000000000000000000000000000000000000000000000000000000000000000000000",
            "coinbase" : "0x2adc25665018aa1fe0e6bc666dac8fc2697ff9ba",
            "difficulty" : "0x020000",
            "extraData" : "0x42",
            "gasLimit" : "0x989680",
            "gasUsed" : "0x00",
            "hash" : "0x4819c44c75c3dcaa32d54c056e613da983bd8b86001ad01d0d97d9c0ca0703a9",
            "mixHash" : "0x56e81f171bcc55a6ff8345e692c0f86e5b48e01b996cadc001622fb5e363b421",
            "nonce" : "0x0102030405060708",
            "number" : "0x00",
            "parentHash" : "0x0000000000000000000000000000000000000000000000000000000000000000",
            "receiptTrie" : "0x56e81f171bcc55a6ff8345e692c0f86e5b48e01b996cadc001622fb5e363b421",
            "stateRoot" : "0x7d9d706af5a8dae2ee0a8cbf1ed5f851b483ea075847e28fe03420497778ce14",
            "timestamp" : "0x03b6",
            "transactionsTrie" : "0x56e81f171bcc55a6ff8345e692c0f86e5b48e01b996cadc001622fb5e363b421",
            "uncleHash" : "0x1dcc4de8dec75d7aab85b567b6ccd41ad312451b948a7413f0a142fd40d49347"
        },
        "genesisRLP" : "0xf901faf901f5a00000000000000000000000000000000000000000000000000000000000000000a01dcc4de8dec75d7aab85b567b6ccd41ad312451b948a7413f0a142fd40d49347942adc25665018aa1fe0e6bc666dac8fc2697ff9baa07d9d706af5a8dae2ee0a8cbf1ed5f851b483ea075847e28fe03420497778ce14a056e81f171bcc55a6ff8345e692c0f86e5b48e01b996cadc001622fb5e363b421a056e81f171bcc55a6ff8345e692c0f86e5b48e01b996cadc001622fb5e363b421b9010000000000000000000000000000000000000000000000000000000000000000000000000000000000000000000000000000000000000000000000000000000000000000000000000000000000000000000000000000000000000000000000000000000000000000000000000000000000000000000000000000000000000000000000000000000000000000000000000000000000000000000000000000000000000000000000000000000000000000000000000000000000000000000000000000000000000000000000000000000000000000000000000000000000000000000000000000000000000000000000000000000000000000000000000000000000830200008083989680808203b642a056e81f171bcc55a6ff8345e692c0f86e5b48e01b996cadc001622fb5e363b421880102030405060708c0c0",
        "lastblockhash" : "0x2a9dbacdd33d380b82bc53e55ada156196feb3f0f9bb1f42815099450cc38730",
        "network" : "Frontier",
        "postState" : {
            "0x2adc25665018aa1fe0e6bc666dac8fc2697ff9ba" : {
                "balance" : "0x4563918244f4f618",
                "code" : "",
                "nonce" : "0x00",
                "storage" : {
                }
            },
            "0x7db299e0885c85039f56fa504a13dd8ce8a56aa7" : {
                "balance" : "0x00",
                "code" : "",
                "nonce" : "0x00",
                "storage" : {
                }
            },
            "0xa000000000000000000000000000000000000000" : {
                "balance" : "0x01",
                "code" : "0x60206000602060006000737db299e0885c85039f56fa504a13dd8ce8a56aa761c350f1600055600c600155600c600255",
                "nonce" : "0x00",
                "storage" : {
                }
            },
            "0xa94f5374fce5edbc8e2a8697c15331677e6ebf0b" : {
                "balance" : "0xe8d4a419e8",
                "code" : "",
                "nonce" : "0x01",
                "storage" : {
                }
            }
        },
        "pre" : {
            "0x7db299e0885c85039f56fa504a13dd8ce8a56aa7" : {
                "balance" : "0x00",
                "code" : "",
                "nonce" : "0x00",
                "storage" : {
                }
            },
            "0xa000000000000000000000000000000000000000" : {
                "balance" : "0x01",
                "code" : "0x60206000602060006000737db299e0885c85039f56fa504a13dd8ce8a56aa761c350f1600055600c600155600c600255",
                "nonce" : "0x00",
                "storage" : {
                }
            },
            "0xa94f5374fce5edbc8e2a8697c15331677e6ebf0b" : {
                "balance" : "0xe8d4a51000",
                "code" : "",
                "nonce" : "0x00",
                "storage" : {
                }
            }
        }
    },
    "RevertPrefoundEmptyCallOOG_d0g0v0_Homestead" : {
        "_info" : {
            "comment" : "",
            "filledwith" : "cpp-1.3.0+commit.6e0ce939.Linux.g++",
            "lllcversion" : "Version: 0.4.18-develop.2017.9.25+commit.a72237f2.Linux.g++",
            "source" : "src/BlockchainTestsFiller/GeneralStateTests/stRevertTest/RevertPrefoundEmptyCallOOG_d0g0v0Filler.json",
            "sourceHash" : "be920b690873a78eb27b7ba96e9203c15f79f43540d10d55e422dc7c31ff9736"
        },
        "blocks" : [
            {
                "blockHeader" : {
                    "bloom" : "0x00000000000000000000000000000000000000000000000000000000000000000000000000000000000000000000000000000000000000000000000000000000000000000000000000000000000000000000000000000000000000000000000000000000000000000000000000000000000000000000000000000000000000000000000000000000000000000000000000000000000000000000000000000000000000000000000000000000000000000000000000000000000000000000000000000000000000000000000000000000000000000000000000000000000000000000000000000000000000000000000000000000000000000000000000000000",
                    "coinbase" : "0x2adc25665018aa1fe0e6bc666dac8fc2697ff9ba",
                    "difficulty" : "0x020000",
                    "extraData" : "",
                    "gasLimit" : "0x989680",
                    "gasUsed" : "0xf618",
                    "hash" : "0x877eb0e14eddea557adcbffab8664ee77fd85501955f356262aa33021b868338",
                    "mixHash" : "0x041694fff75fb635caf10e0d18f77341d50eb105f30093ec91b1ff410924ba23",
                    "nonce" : "0x1440fda897c45ff9",
                    "number" : "0x01",
                    "parentHash" : "0x4819c44c75c3dcaa32d54c056e613da983bd8b86001ad01d0d97d9c0ca0703a9",
                    "receiptTrie" : "0x667733204067902fa0a97ad2255b81d9c992416f45a2bb4ff5ae62566ce841a0",
                    "stateRoot" : "0xad1a02ff92470ea61eca52f955397823d9f8da21d2e403634e632b056468adbc",
                    "timestamp" : "0x03e8",
                    "transactionsTrie" : "0x6411da215479c28fa2d2792ee02e84dda72b12d64fbd9534e5439fa772ce6f6f",
                    "uncleHash" : "0x1dcc4de8dec75d7aab85b567b6ccd41ad312451b948a7413f0a142fd40d49347"
                },
                "rlp" : "0xf9025ef901f7a04819c44c75c3dcaa32d54c056e613da983bd8b86001ad01d0d97d9c0ca0703a9a01dcc4de8dec75d7aab85b567b6ccd41ad312451b948a7413f0a142fd40d49347942adc25665018aa1fe0e6bc666dac8fc2697ff9baa0ad1a02ff92470ea61eca52f955397823d9f8da21d2e403634e632b056468adbca06411da215479c28fa2d2792ee02e84dda72b12d64fbd9534e5439fa772ce6f6fa0667733204067902fa0a97ad2255b81d9c992416f45a2bb4ff5ae62566ce841a0b901000000000000000000000000000000000000000000000000000000000000000000000000000000000000000000000000000000000000000000000000000000000000000000000000000000000000000000000000000000000000000000000000000000000000000000000000000000000000000000000000000000000000000000000000000000000000000000000000000000000000000000000000000000000000000000000000000000000000000000000000000000000000000000000000000000000000000000000000000000000000000000000000000000000000000000000000000000000000000000000000000000000000000000000000000000000083020000018398968082f6188203e880a0041694fff75fb635caf10e0d18f77341d50eb105f30093ec91b1ff410924ba23881440fda897c45ff9f861f85f800182f61894a00000000000000000000000000000000000000080801ca0246a61332db8981ed5eb513096f2e28373b7497fb8467c1e3af0f53f3aae0450a06d0f0e6c4c8db5b12b53089a0a80639de16cf32d1db2c3d20683e7dedb05934bc0",
                "transactions" : [
                    {
                        "data" : "",
                        "gasLimit" : "0xf618",
                        "gasPrice" : "0x01",
                        "nonce" : "0x00",
                        "r" : "0x246a61332db8981ed5eb513096f2e28373b7497fb8467c1e3af0f53f3aae0450",
                        "s" : "0x6d0f0e6c4c8db5b12b53089a0a80639de16cf32d1db2c3d20683e7dedb05934b",
                        "to" : "0xa000000000000000000000000000000000000000",
                        "v" : "0x1c",
                        "value" : "0x00"
                    }
                ],
                "uncleHeaders" : [
                ]
            }
        ],
        "genesisBlockHeader" : {
            "bloom" : "0x00000000000000000000000000000000000000000000000000000000000000000000000000000000000000000000000000000000000000000000000000000000000000000000000000000000000000000000000000000000000000000000000000000000000000000000000000000000000000000000000000000000000000000000000000000000000000000000000000000000000000000000000000000000000000000000000000000000000000000000000000000000000000000000000000000000000000000000000000000000000000000000000000000000000000000000000000000000000000000000000000000000000000000000000000000000",
            "coinbase" : "0x2adc25665018aa1fe0e6bc666dac8fc2697ff9ba",
            "difficulty" : "0x020000",
            "extraData" : "0x42",
            "gasLimit" : "0x989680",
            "gasUsed" : "0x00",
            "hash" : "0x4819c44c75c3dcaa32d54c056e613da983bd8b86001ad01d0d97d9c0ca0703a9",
            "mixHash" : "0x56e81f171bcc55a6ff8345e692c0f86e5b48e01b996cadc001622fb5e363b421",
            "nonce" : "0x0102030405060708",
            "number" : "0x00",
            "parentHash" : "0x0000000000000000000000000000000000000000000000000000000000000000",
            "receiptTrie" : "0x56e81f171bcc55a6ff8345e692c0f86e5b48e01b996cadc001622fb5e363b421",
            "stateRoot" : "0x7d9d706af5a8dae2ee0a8cbf1ed5f851b483ea075847e28fe03420497778ce14",
            "timestamp" : "0x03b6",
            "transactionsTrie" : "0x56e81f171bcc55a6ff8345e692c0f86e5b48e01b996cadc001622fb5e363b421",
            "uncleHash" : "0x1dcc4de8dec75d7aab85b567b6ccd41ad312451b948a7413f0a142fd40d49347"
        },
        "genesisRLP" : "0xf901faf901f5a00000000000000000000000000000000000000000000000000000000000000000a01dcc4de8dec75d7aab85b567b6ccd41ad312451b948a7413f0a142fd40d49347942adc25665018aa1fe0e6bc666dac8fc2697ff9baa07d9d706af5a8dae2ee0a8cbf1ed5f851b483ea075847e28fe03420497778ce14a056e81f171bcc55a6ff8345e692c0f86e5b48e01b996cadc001622fb5e363b421a056e81f171bcc55a6ff8345e692c0f86e5b48e01b996cadc001622fb5e363b421b9010000000000000000000000000000000000000000000000000000000000000000000000000000000000000000000000000000000000000000000000000000000000000000000000000000000000000000000000000000000000000000000000000000000000000000000000000000000000000000000000000000000000000000000000000000000000000000000000000000000000000000000000000000000000000000000000000000000000000000000000000000000000000000000000000000000000000000000000000000000000000000000000000000000000000000000000000000000000000000000000000000000000000000000000000000000000830200008083989680808203b642a056e81f171bcc55a6ff8345e692c0f86e5b48e01b996cadc001622fb5e363b421880102030405060708c0c0",
        "lastblockhash" : "0x877eb0e14eddea557adcbffab8664ee77fd85501955f356262aa33021b868338",
        "network" : "Homestead",
        "postState" : {
            "0x2adc25665018aa1fe0e6bc666dac8fc2697ff9ba" : {
                "balance" : "0x4563918244f4f618",
                "code" : "",
                "nonce" : "0x00",
                "storage" : {
                }
            },
            "0x7db299e0885c85039f56fa504a13dd8ce8a56aa7" : {
                "balance" : "0x00",
                "code" : "",
                "nonce" : "0x00",
                "storage" : {
                }
            },
            "0xa000000000000000000000000000000000000000" : {
                "balance" : "0x01",
                "code" : "0x60206000602060006000737db299e0885c85039f56fa504a13dd8ce8a56aa761c350f1600055600c600155600c600255",
                "nonce" : "0x00",
                "storage" : {
                }
            },
            "0xa94f5374fce5edbc8e2a8697c15331677e6ebf0b" : {
                "balance" : "0xe8d4a419e8",
                "code" : "",
                "nonce" : "0x01",
                "storage" : {
                }
            }
        },
        "pre" : {
            "0x7db299e0885c85039f56fa504a13dd8ce8a56aa7" : {
                "balance" : "0x00",
                "code" : "",
                "nonce" : "0x00",
                "storage" : {
                }
            },
            "0xa000000000000000000000000000000000000000" : {
                "balance" : "0x01",
                "code" : "0x60206000602060006000737db299e0885c85039f56fa504a13dd8ce8a56aa761c350f1600055600c600155600c600255",
                "nonce" : "0x00",
                "storage" : {
                }
            },
            "0xa94f5374fce5edbc8e2a8697c15331677e6ebf0b" : {
                "balance" : "0xe8d4a51000",
                "code" : "",
                "nonce" : "0x00",
                "storage" : {
                }
            }
        }
    }
}