{
    "RevertOpcode_d0g0v1_Byzantium" : {
        "_info" : {
            "comment" : "",
            "filledwith" : "cpp-1.3.0+commit.6e0ce939.Linux.g++",
            "lllcversion" : "Version: 0.4.18-develop.2017.9.25+commit.a72237f2.Linux.g++",
            "source" : "src/BlockchainTestsFiller/GeneralStateTests/stRevertTest/RevertOpcode_d0g0v1Filler.json",
            "sourceHash" : "d45fa294848d17588c38df708ef4725247b153cfad8f03e78fea988fd84c66db"
        },
        "blocks" : [
            {
                "blockHeader" : {
                    "bloom" : "0x00000000000000000000000000000000000000000000000000000000000000000000000000000000000000000000000000000000000000000000000000000000000000000000000000000000000000000000000000000000000000000000000000000000000000000000000000000000000000000000000000000000000000000000000000000000000000000000000000000000000000000000000000000000000000000000000000000000000000000000000000000000000000000000000000000000000000000000000000000000000000000000000000000000000000000000000000000000000000000000000000000000000000000000000000000000",
                    "coinbase" : "0x2adc25665018aa1fe0e6bc666dac8fc2697ff9ba",
                    "difficulty" : "0x020000",
                    "extraData" : "",
                    "gasLimit" : "0x989680",
                    "gasUsed" : "0xa037",
                    "hash" : "0xd8c7d4fa8014d8157c4a2e6a632e050b99793036af9ef2300e450d0d852724a4",
                    "mixHash" : "0x38d2a7d8a7120e6191f0bf73ce638ce8c5e65b972748053ec8aa6f37673b682f",
                    "nonce" : "0x8c5b7a81f95d6c0b",
                    "number" : "0x01",
                    "parentHash" : "0xa6c854682c8d7fcab780f81abfbf3e260b07d83426da6387e3c8e2931943309e",
                    "receiptTrie" : "0x5c30cc631818cdb3019c31b84be5cef56e387b8388140444377adee1f6fbf8c4",
                    "stateRoot" : "0x0396337acc649be1e6bf6f1e9bcb6c6e99eae9ba1d3bbe49cde6a0c1dae63a64",
                    "timestamp" : "0x03e8",
                    "transactionsTrie" : "0xf30045b47ea8c48691ad7eabc8903d3cc479e3b6bef031a2894cf71e0232b259",
                    "uncleHash" : "0x1dcc4de8dec75d7aab85b567b6ccd41ad312451b948a7413f0a142fd40d49347"
                },
                "rlp" : "0xf9025ff901f7a0a6c854682c8d7fcab780f81abfbf3e260b07d83426da6387e3c8e2931943309ea01dcc4de8dec75d7aab85b567b6ccd41ad312451b948a7413f0a142fd40d49347942adc25665018aa1fe0e6bc666dac8fc2697ff9baa00396337acc649be1e6bf6f1e9bcb6c6e99eae9ba1d3bbe49cde6a0c1dae63a64a0f30045b47ea8c48691ad7eabc8903d3cc479e3b6bef031a2894cf71e0232b259a05c30cc631818cdb3019c31b84be5cef56e387b8388140444377adee1f6fbf8c4b901000000000000000000000000000000000000000000000000000000000000000000000000000000000000000000000000000000000000000000000000000000000000000000000000000000000000000000000000000000000000000000000000000000000000000000000000000000000000000000000000000000000000000000000000000000000000000000000000000000000000000000000000000000000000000000000000000000000000000000000000000000000000000000000000000000000000000000000000000000000000000000000000000000000000000000000000000000000000000000000000000000000000000000000000000000000083020000018398968082a0378203e880a038d2a7d8a7120e6191f0bf73ce638ce8c5e65b972748053ec8aa6f37673b682f888c5b7a81f95d6c0bf862f8608001830c350094a0000000000000000000000000000000000000000a801ba0f4ac47ee32f13b3f54d298369a82d33ef1c80c58d04525a85e4f8fcfa57729f4a03e9fdc44de07ca288479815062ab19ff708d0180a2d80d6e77aa6562de839860c0",
                "transactions" : [
                    {
                        "data" : "",
                        "gasLimit" : "0x0c3500",
                        "gasPrice" : "0x01",
                        "nonce" : "0x00",
                        "r" : "0xf4ac47ee32f13b3f54d298369a82d33ef1c80c58d04525a85e4f8fcfa57729f4",
                        "s" : "0x3e9fdc44de07ca288479815062ab19ff708d0180a2d80d6e77aa6562de839860",
                        "to" : "0xa000000000000000000000000000000000000000",
                        "v" : "0x1b",
                        "value" : "0x0a"
                    }
                ],
                "uncleHeaders" : [
                ]
            }
        ],
        "genesisBlockHeader" : {
            "bloom" : "0x00000000000000000000000000000000000000000000000000000000000000000000000000000000000000000000000000000000000000000000000000000000000000000000000000000000000000000000000000000000000000000000000000000000000000000000000000000000000000000000000000000000000000000000000000000000000000000000000000000000000000000000000000000000000000000000000000000000000000000000000000000000000000000000000000000000000000000000000000000000000000000000000000000000000000000000000000000000000000000000000000000000000000000000000000000000",
            "coinbase" : "0x2adc25665018aa1fe0e6bc666dac8fc2697ff9ba",
            "difficulty" : "0x020000",
            "extraData" : "0x42",
            "gasLimit" : "0x989680",
            "gasUsed" : "0x00",
            "hash" : "0xa6c854682c8d7fcab780f81abfbf3e260b07d83426da6387e3c8e2931943309e",
            "mixHash" : "0x56e81f171bcc55a6ff8345e692c0f86e5b48e01b996cadc001622fb5e363b421",
            "nonce" : "0x0102030405060708",
            "number" : "0x00",
            "parentHash" : "0x0000000000000000000000000000000000000000000000000000000000000000",
            "receiptTrie" : "0x56e81f171bcc55a6ff8345e692c0f86e5b48e01b996cadc001622fb5e363b421",
            "stateRoot" : "0x860258f673d0e6520d540eac5ce7c862a205956598d8a614db8898c8be051e9f",
            "timestamp" : "0x03b6",
            "transactionsTrie" : "0x56e81f171bcc55a6ff8345e692c0f86e5b48e01b996cadc001622fb5e363b421",
            "uncleHash" : "0x1dcc4de8dec75d7aab85b567b6ccd41ad312451b948a7413f0a142fd40d49347"
        },
        "genesisRLP" : "0xf901faf901f5a00000000000000000000000000000000000000000000000000000000000000000a01dcc4de8dec75d7aab85b567b6ccd41ad312451b948a7413f0a142fd40d49347942adc25665018aa1fe0e6bc666dac8fc2697ff9baa0860258f673d0e6520d540eac5ce7c862a205956598d8a614db8898c8be051e9fa056e81f171bcc55a6ff8345e692c0f86e5b48e01b996cadc001622fb5e363b421a056e81f171bcc55a6ff8345e692c0f86e5b48e01b996cadc001622fb5e363b421b9010000000000000000000000000000000000000000000000000000000000000000000000000000000000000000000000000000000000000000000000000000000000000000000000000000000000000000000000000000000000000000000000000000000000000000000000000000000000000000000000000000000000000000000000000000000000000000000000000000000000000000000000000000000000000000000000000000000000000000000000000000000000000000000000000000000000000000000000000000000000000000000000000000000000000000000000000000000000000000000000000000000000000000000000000000000000830200008083989680808203b642a056e81f171bcc55a6ff8345e692c0f86e5b48e01b996cadc001622fb5e363b421880102030405060708c0c0",
        "lastblockhash" : "0xd8c7d4fa8014d8157c4a2e6a632e050b99793036af9ef2300e450d0d852724a4",
        "network" : "Byzantium",
        "postState" : {
            "0x2adc25665018aa1fe0e6bc666dac8fc2697ff9ba" : {
                "balance" : "0x29a2241af62ca037",
                "code" : "",
                "nonce" : "0x00",
                "storage" : {
                }
            },
            "0xa000000000000000000000000000000000000000" : {
                "balance" : "0x00",
                "code" : "0x600160005560016000fd6011600155",
                "nonce" : "0x00",
                "storage" : {
                }
            },
            "0xa94f5374fce5edbc8e2a8697c15331677e6ebf0b" : {
                "balance" : "0xe8d4a46fc9",
                "code" : "",
                "nonce" : "0x01",
                "storage" : {
                }
            }
        },
        "pre" : {
            "0xa000000000000000000000000000000000000000" : {
                "balance" : "0x00",
                "code" : "0x600160005560016000fd6011600155",
                "nonce" : "0x00",
                "storage" : {
                }
            },
            "0xa94f5374fce5edbc8e2a8697c15331677e6ebf0b" : {
                "balance" : "0xe8d4a51000",
                "code" : "",
                "nonce" : "0x00",
                "storage" : {
                }
            }
        }
    },
    "RevertOpcode_d0g0v1_EIP150" : {
        "_info" : {
            "comment" : "",
            "filledwith" : "cpp-1.3.0+commit.6e0ce939.Linux.g++",
            "lllcversion" : "Version: 0.4.18-develop.2017.9.25+commit.a72237f2.Linux.g++",
            "source" : "src/BlockchainTestsFiller/GeneralStateTests/stRevertTest/RevertOpcode_d0g0v1Filler.json",
            "sourceHash" : "d45fa294848d17588c38df708ef4725247b153cfad8f03e78fea988fd84c66db"
        },
        "blocks" : [
            {
                "blockHeader" : {
                    "bloom" : "0x00000000000000000000000000000000000000000000000000000000000000000000000000000000000000000000000000000000000000000000000000000000000000000000000000000000000000000000000000000000000000000000000000000000000000000000000000000000000000000000000000000000000000000000000000000000000000000000000000000000000000000000000000000000000000000000000000000000000000000000000000000000000000000000000000000000000000000000000000000000000000000000000000000000000000000000000000000000000000000000000000000000000000000000000000000000",
                    "coinbase" : "0x2adc25665018aa1fe0e6bc666dac8fc2697ff9ba",
                    "difficulty" : "0x020000",
                    "extraData" : "",
                    "gasLimit" : "0x989680",
                    "gasUsed" : "0x0c3500",
                    "hash" : "0xea908c28829a88dd7c793317df89473b4784996ece903bfaa55333bc8b46a607",
                    "mixHash" : "0x621b2db9bcc54f56cf638695eb4272029cc593c246327643238609923206001c",
                    "nonce" : "0xe24cf189fb31e4a0",
                    "number" : "0x01",
                    "parentHash" : "0xa6c854682c8d7fcab780f81abfbf3e260b07d83426da6387e3c8e2931943309e",
                    "receiptTrie" : "0x7dcd05c790a6ed503a15b7b0688335ba95cdb30f2a078be9b467658fbf59bb51",
                    "stateRoot" : "0xf102cc3981251cbe5daf4ce2a3ae234f7f637261060b544c461fa32e987561b7",
                    "timestamp" : "0x03e8",
                    "transactionsTrie" : "0xf30045b47ea8c48691ad7eabc8903d3cc479e3b6bef031a2894cf71e0232b259",
                    "uncleHash" : "0x1dcc4de8dec75d7aab85b567b6ccd41ad312451b948a7413f0a142fd40d49347"
                },
                "rlp" : "0xf90260f901f8a0a6c854682c8d7fcab780f81abfbf3e260b07d83426da6387e3c8e2931943309ea01dcc4de8dec75d7aab85b567b6ccd41ad312451b948a7413f0a142fd40d49347942adc25665018aa1fe0e6bc666dac8fc2697ff9baa0f102cc3981251cbe5daf4ce2a3ae234f7f637261060b544c461fa32e987561b7a0f30045b47ea8c48691ad7eabc8903d3cc479e3b6bef031a2894cf71e0232b259a07dcd05c790a6ed503a15b7b0688335ba95cdb30f2a078be9b467658fbf59bb51b9010000000000000000000000000000000000000000000000000000000000000000000000000000000000000000000000000000000000000000000000000000000000000000000000000000000000000000000000000000000000000000000000000000000000000000000000000000000000000000000000000000000000000000000000000000000000000000000000000000000000000000000000000000000000000000000000000000000000000000000000000000000000000000000000000000000000000000000000000000000000000000000000000000000000000000000000000000000000000000000000000000000000000000000000000000000000830200000183989680830c35008203e880a0621b2db9bcc54f56cf638695eb4272029cc593c246327643238609923206001c88e24cf189fb31e4a0f862f8608001830c350094a0000000000000000000000000000000000000000a801ba0f4ac47ee32f13b3f54d298369a82d33ef1c80c58d04525a85e4f8fcfa57729f4a03e9fdc44de07ca288479815062ab19ff708d0180a2d80d6e77aa6562de839860c0",
                "transactions" : [
                    {
                        "data" : "",
                        "gasLimit" : "0x0c3500",
                        "gasPrice" : "0x01",
                        "nonce" : "0x00",
                        "r" : "0xf4ac47ee32f13b3f54d298369a82d33ef1c80c58d04525a85e4f8fcfa57729f4",
                        "s" : "0x3e9fdc44de07ca288479815062ab19ff708d0180a2d80d6e77aa6562de839860",
                        "to" : "0xa000000000000000000000000000000000000000",
                        "v" : "0x1b",
                        "value" : "0x0a"
                    }
                ],
                "uncleHeaders" : [
                ]
            }
        ],
        "genesisBlockHeader" : {
            "bloom" : "0x00000000000000000000000000000000000000000000000000000000000000000000000000000000000000000000000000000000000000000000000000000000000000000000000000000000000000000000000000000000000000000000000000000000000000000000000000000000000000000000000000000000000000000000000000000000000000000000000000000000000000000000000000000000000000000000000000000000000000000000000000000000000000000000000000000000000000000000000000000000000000000000000000000000000000000000000000000000000000000000000000000000000000000000000000000000",
            "coinbase" : "0x2adc25665018aa1fe0e6bc666dac8fc2697ff9ba",
            "difficulty" : "0x020000",
            "extraData" : "0x42",
            "gasLimit" : "0x989680",
            "gasUsed" : "0x00",
            "hash" : "0xa6c854682c8d7fcab780f81abfbf3e260b07d83426da6387e3c8e2931943309e",
            "mixHash" : "0x56e81f171bcc55a6ff8345e692c0f86e5b48e01b996cadc001622fb5e363b421",
            "nonce" : "0x0102030405060708",
            "number" : "0x00",
            "parentHash" : "0x0000000000000000000000000000000000000000000000000000000000000000",
            "receiptTrie" : "0x56e81f171bcc55a6ff8345e692c0f86e5b48e01b996cadc001622fb5e363b421",
            "stateRoot" : "0x860258f673d0e6520d540eac5ce7c862a205956598d8a614db8898c8be051e9f",
            "timestamp" : "0x03b6",
            "transactionsTrie" : "0x56e81f171bcc55a6ff8345e692c0f86e5b48e01b996cadc001622fb5e363b421",
            "uncleHash" : "0x1dcc4de8dec75d7aab85b567b6ccd41ad312451b948a7413f0a142fd40d49347"
        },
        "genesisRLP" : "0xf901faf901f5a00000000000000000000000000000000000000000000000000000000000000000a01dcc4de8dec75d7aab85b567b6ccd41ad312451b948a7413f0a142fd40d49347942adc25665018aa1fe0e6bc666dac8fc2697ff9baa0860258f673d0e6520d540eac5ce7c862a205956598d8a614db8898c8be051e9fa056e81f171bcc55a6ff8345e692c0f86e5b48e01b996cadc001622fb5e363b421a056e81f171bcc55a6ff8345e692c0f86e5b48e01b996cadc001622fb5e363b421b9010000000000000000000000000000000000000000000000000000000000000000000000000000000000000000000000000000000000000000000000000000000000000000000000000000000000000000000000000000000000000000000000000000000000000000000000000000000000000000000000000000000000000000000000000000000000000000000000000000000000000000000000000000000000000000000000000000000000000000000000000000000000000000000000000000000000000000000000000000000000000000000000000000000000000000000000000000000000000000000000000000000000000000000000000000000000830200008083989680808203b642a056e81f171bcc55a6ff8345e692c0f86e5b48e01b996cadc001622fb5e363b421880102030405060708c0c0",
        "lastblockhash" : "0xea908c28829a88dd7c793317df89473b4784996ece903bfaa55333bc8b46a607",
        "network" : "EIP150",
        "postState" : {
            "0x2adc25665018aa1fe0e6bc666dac8fc2697ff9ba" : {
                "balance" : "0x4563918245003500",
                "code" : "",
                "nonce" : "0x00",
                "storage" : {
                }
            },
            "0xa000000000000000000000000000000000000000" : {
                "balance" : "0x00",
                "code" : "0x600160005560016000fd6011600155",
                "nonce" : "0x00",
                "storage" : {
                }
            },
            "0xa94f5374fce5edbc8e2a8697c15331677e6ebf0b" : {
                "balance" : "0xe8d498db00",
                "code" : "",
                "nonce" : "0x01",
                "storage" : {
                }
            }
        },
        "pre" : {
            "0xa000000000000000000000000000000000000000" : {
                "balance" : "0x00",
                "code" : "0x600160005560016000fd6011600155",
                "nonce" : "0x00",
                "storage" : {
                }
            },
            "0xa94f5374fce5edbc8e2a8697c15331677e6ebf0b" : {
                "balance" : "0xe8d4a51000",
                "code" : "",
                "nonce" : "0x00",
                "storage" : {
                }
            }
        }
    },
    "RevertOpcode_d0g0v1_EIP158" : {
        "_info" : {
            "comment" : "",
            "filledwith" : "cpp-1.3.0+commit.6e0ce939.Linux.g++",
            "lllcversion" : "Version: 0.4.18-develop.2017.9.25+commit.a72237f2.Linux.g++",
            "source" : "src/BlockchainTestsFiller/GeneralStateTests/stRevertTest/RevertOpcode_d0g0v1Filler.json",
            "sourceHash" : "d45fa294848d17588c38df708ef4725247b153cfad8f03e78fea988fd84c66db"
        },
        "blocks" : [
            {
                "blockHeader" : {
                    "bloom" : "0x00000000000000000000000000000000000000000000000000000000000000000000000000000000000000000000000000000000000000000000000000000000000000000000000000000000000000000000000000000000000000000000000000000000000000000000000000000000000000000000000000000000000000000000000000000000000000000000000000000000000000000000000000000000000000000000000000000000000000000000000000000000000000000000000000000000000000000000000000000000000000000000000000000000000000000000000000000000000000000000000000000000000000000000000000000000",
                    "coinbase" : "0x2adc25665018aa1fe0e6bc666dac8fc2697ff9ba",
                    "difficulty" : "0x020000",
                    "extraData" : "",
                    "gasLimit" : "0x989680",
                    "gasUsed" : "0x0c3500",
                    "hash" : "0xfa3024b54be5a8c432f9731aadcbd7958816d9e078b6eb01cb6fd92f5879e948",
                    "mixHash" : "0x35fac3abe1202d17fb8d688a7ae176b59f20e7472f14defbd3ef5d0545ba5a8c",
                    "nonce" : "0xf49e21599d5d10ec",
                    "number" : "0x01",
                    "parentHash" : "0xa6c854682c8d7fcab780f81abfbf3e260b07d83426da6387e3c8e2931943309e",
                    "receiptTrie" : "0x7dcd05c790a6ed503a15b7b0688335ba95cdb30f2a078be9b467658fbf59bb51",
                    "stateRoot" : "0xf102cc3981251cbe5daf4ce2a3ae234f7f637261060b544c461fa32e987561b7",
                    "timestamp" : "0x03e8",
                    "transactionsTrie" : "0xf30045b47ea8c48691ad7eabc8903d3cc479e3b6bef031a2894cf71e0232b259",
                    "uncleHash" : "0x1dcc4de8dec75d7aab85b567b6ccd41ad312451b948a7413f0a142fd40d49347"
                },
                "rlp" : "0xf90260f901f8a0a6c854682c8d7fcab780f81abfbf3e260b07d83426da6387e3c8e2931943309ea01dcc4de8dec75d7aab85b567b6ccd41ad312451b948a7413f0a142fd40d49347942adc25665018aa1fe0e6bc666dac8fc2697ff9baa0f102cc3981251cbe5daf4ce2a3ae234f7f637261060b544c461fa32e987561b7a0f30045b47ea8c48691ad7eabc8903d3cc479e3b6bef031a2894cf71e0232b259a07dcd05c790a6ed503a15b7b0688335ba95cdb30f2a078be9b467658fbf59bb51b9010000000000000000000000000000000000000000000000000000000000000000000000000000000000000000000000000000000000000000000000000000000000000000000000000000000000000000000000000000000000000000000000000000000000000000000000000000000000000000000000000000000000000000000000000000000000000000000000000000000000000000000000000000000000000000000000000000000000000000000000000000000000000000000000000000000000000000000000000000000000000000000000000000000000000000000000000000000000000000000000000000000000000000000000000000000000830200000183989680830c35008203e880a035fac3abe1202d17fb8d688a7ae176b59f20e7472f14defbd3ef5d0545ba5a8c88f49e21599d5d10ecf862f8608001830c350094a0000000000000000000000000000000000000000a801ba0f4ac47ee32f13b3f54d298369a82d33ef1c80c58d04525a85e4f8fcfa57729f4a03e9fdc44de07ca288479815062ab19ff708d0180a2d80d6e77aa6562de839860c0",
                "transactions" : [
                    {
                        "data" : "",
                        "gasLimit" : "0x0c3500",
                        "gasPrice" : "0x01",
                        "nonce" : "0x00",
                        "r" : "0xf4ac47ee32f13b3f54d298369a82d33ef1c80c58d04525a85e4f8fcfa57729f4",
                        "s" : "0x3e9fdc44de07ca288479815062ab19ff708d0180a2d80d6e77aa6562de839860",
                        "to" : "0xa000000000000000000000000000000000000000",
                        "v" : "0x1b",
                        "value" : "0x0a"
                    }
                ],
                "uncleHeaders" : [
                ]
            }
        ],
        "genesisBlockHeader" : {
            "bloom" : "0x00000000000000000000000000000000000000000000000000000000000000000000000000000000000000000000000000000000000000000000000000000000000000000000000000000000000000000000000000000000000000000000000000000000000000000000000000000000000000000000000000000000000000000000000000000000000000000000000000000000000000000000000000000000000000000000000000000000000000000000000000000000000000000000000000000000000000000000000000000000000000000000000000000000000000000000000000000000000000000000000000000000000000000000000000000000",
            "coinbase" : "0x2adc25665018aa1fe0e6bc666dac8fc2697ff9ba",
            "difficulty" : "0x020000",
            "extraData" : "0x42",
            "gasLimit" : "0x989680",
            "gasUsed" : "0x00",
            "hash" : "0xa6c854682c8d7fcab780f81abfbf3e260b07d83426da6387e3c8e2931943309e",
            "mixHash" : "0x56e81f171bcc55a6ff8345e692c0f86e5b48e01b996cadc001622fb5e363b421",
            "nonce" : "0x0102030405060708",
            "number" : "0x00",
            "parentHash" : "0x0000000000000000000000000000000000000000000000000000000000000000",
            "receiptTrie" : "0x56e81f171bcc55a6ff8345e692c0f86e5b48e01b996cadc001622fb5e363b421",
            "stateRoot" : "0x860258f673d0e6520d540eac5ce7c862a205956598d8a614db8898c8be051e9f",
            "timestamp" : "0x03b6",
            "transactionsTrie" : "0x56e81f171bcc55a6ff8345e692c0f86e5b48e01b996cadc001622fb5e363b421",
            "uncleHash" : "0x1dcc4de8dec75d7aab85b567b6ccd41ad312451b948a7413f0a142fd40d49347"
        },
        "genesisRLP" : "0xf901faf901f5a00000000000000000000000000000000000000000000000000000000000000000a01dcc4de8dec75d7aab85b567b6ccd41ad312451b948a7413f0a142fd40d49347942adc25665018aa1fe0e6bc666dac8fc2697ff9baa0860258f673d0e6520d540eac5ce7c862a205956598d8a614db8898c8be051e9fa056e81f171bcc55a6ff8345e692c0f86e5b48e01b996cadc001622fb5e363b421a056e81f171bcc55a6ff8345e692c0f86e5b48e01b996cadc001622fb5e363b421b9010000000000000000000000000000000000000000000000000000000000000000000000000000000000000000000000000000000000000000000000000000000000000000000000000000000000000000000000000000000000000000000000000000000000000000000000000000000000000000000000000000000000000000000000000000000000000000000000000000000000000000000000000000000000000000000000000000000000000000000000000000000000000000000000000000000000000000000000000000000000000000000000000000000000000000000000000000000000000000000000000000000000000000000000000000000000830200008083989680808203b642a056e81f171bcc55a6ff8345e692c0f86e5b48e01b996cadc001622fb5e363b421880102030405060708c0c0",
        "lastblockhash" : "0xfa3024b54be5a8c432f9731aadcbd7958816d9e078b6eb01cb6fd92f5879e948",
        "network" : "EIP158",
        "postState" : {
            "0x2adc25665018aa1fe0e6bc666dac8fc2697ff9ba" : {
                "balance" : "0x4563918245003500",
                "code" : "",
                "nonce" : "0x00",
                "storage" : {
                }
            },
            "0xa000000000000000000000000000000000000000" : {
                "balance" : "0x00",
                "code" : "0x600160005560016000fd6011600155",
                "nonce" : "0x00",
                "storage" : {
                }
            },
            "0xa94f5374fce5edbc8e2a8697c15331677e6ebf0b" : {
                "balance" : "0xe8d498db00",
                "code" : "",
                "nonce" : "0x01",
                "storage" : {
                }
            }
        },
        "pre" : {
            "0xa000000000000000000000000000000000000000" : {
                "balance" : "0x00",
                "code" : "0x600160005560016000fd6011600155",
                "nonce" : "0x00",
                "storage" : {
                }
            },
            "0xa94f5374fce5edbc8e2a8697c15331677e6ebf0b" : {
                "balance" : "0xe8d4a51000",
                "code" : "",
                "nonce" : "0x00",
                "storage" : {
                }
            }
        }
    },
    "RevertOpcode_d0g0v1_Frontier" : {
        "_info" : {
            "comment" : "",
            "filledwith" : "cpp-1.3.0+commit.6e0ce939.Linux.g++",
            "lllcversion" : "Version: 0.4.18-develop.2017.9.25+commit.a72237f2.Linux.g++",
            "source" : "src/BlockchainTestsFiller/GeneralStateTests/stRevertTest/RevertOpcode_d0g0v1Filler.json",
            "sourceHash" : "d45fa294848d17588c38df708ef4725247b153cfad8f03e78fea988fd84c66db"
        },
        "blocks" : [
            {
                "blockHeader" : {
                    "bloom" : "0x00000000000000000000000000000000000000000000000000000000000000000000000000000000000000000000000000000000000000000000000000000000000000000000000000000000000000000000000000000000000000000000000000000000000000000000000000000000000000000000000000000000000000000000000000000000000000000000000000000000000000000000000000000000000000000000000000000000000000000000000000000000000000000000000000000000000000000000000000000000000000000000000000000000000000000000000000000000000000000000000000000000000000000000000000000000",
                    "coinbase" : "0x2adc25665018aa1fe0e6bc666dac8fc2697ff9ba",
                    "difficulty" : "0x020000",
                    "extraData" : "",
                    "gasLimit" : "0x989680",
                    "gasUsed" : "0x0c3500",
                    "hash" : "0x001dc363350af977ffe9896c8e555a7e599cc0ff41e184a0919c16f49c0e25c5",
                    "mixHash" : "0x7713e643a769d1c00099773adc788b84cc631ab5bc5aff9c75b3265201738983",
                    "nonce" : "0x38ca09a281606269",
                    "number" : "0x01",
                    "parentHash" : "0xa6c854682c8d7fcab780f81abfbf3e260b07d83426da6387e3c8e2931943309e",
                    "receiptTrie" : "0x7dcd05c790a6ed503a15b7b0688335ba95cdb30f2a078be9b467658fbf59bb51",
                    "stateRoot" : "0xf102cc3981251cbe5daf4ce2a3ae234f7f637261060b544c461fa32e987561b7",
                    "timestamp" : "0x03e8",
                    "transactionsTrie" : "0xf30045b47ea8c48691ad7eabc8903d3cc479e3b6bef031a2894cf71e0232b259",
                    "uncleHash" : "0x1dcc4de8dec75d7aab85b567b6ccd41ad312451b948a7413f0a142fd40d49347"
                },
                "rlp" : "0xf90260f901f8a0a6c854682c8d7fcab780f81abfbf3e260b07d83426da6387e3c8e2931943309ea01dcc4de8dec75d7aab85b567b6ccd41ad312451b948a7413f0a142fd40d49347942adc25665018aa1fe0e6bc666dac8fc2697ff9baa0f102cc3981251cbe5daf4ce2a3ae234f7f637261060b544c461fa32e987561b7a0f30045b47ea8c48691ad7eabc8903d3cc479e3b6bef031a2894cf71e0232b259a07dcd05c790a6ed503a15b7b0688335ba95cdb30f2a078be9b467658fbf59bb51b9010000000000000000000000000000000000000000000000000000000000000000000000000000000000000000000000000000000000000000000000000000000000000000000000000000000000000000000000000000000000000000000000000000000000000000000000000000000000000000000000000000000000000000000000000000000000000000000000000000000000000000000000000000000000000000000000000000000000000000000000000000000000000000000000000000000000000000000000000000000000000000000000000000000000000000000000000000000000000000000000000000000000000000000000000000000000830200000183989680830c35008203e880a07713e643a769d1c00099773adc788b84cc631ab5bc5aff9c75b32652017389838838ca09a281606269f862f8608001830c350094a0000000000000000000000000000000000000000a801ba0f4ac47ee32f13b3f54d298369a82d33ef1c80c58d04525a85e4f8fcfa57729f4a03e9fdc44de07ca288479815062ab19ff708d0180a2d80d6e77aa6562de839860c0",
                "transactions" : [
                    {
                        "data" : "",
                        "gasLimit" : "0x0c3500",
                        "gasPrice" : "0x01",
                        "nonce" : "0x00",
                        "r" : "0xf4ac47ee32f13b3f54d298369a82d33ef1c80c58d04525a85e4f8fcfa57729f4",
                        "s" : "0x3e9fdc44de07ca288479815062ab19ff708d0180a2d80d6e77aa6562de839860",
                        "to" : "0xa000000000000000000000000000000000000000",
                        "v" : "0x1b",
                        "value" : "0x0a"
                    }
                ],
                "uncleHeaders" : [
                ]
            }
        ],
        "genesisBlockHeader" : {
            "bloom" : "0x00000000000000000000000000000000000000000000000000000000000000000000000000000000000000000000000000000000000000000000000000000000000000000000000000000000000000000000000000000000000000000000000000000000000000000000000000000000000000000000000000000000000000000000000000000000000000000000000000000000000000000000000000000000000000000000000000000000000000000000000000000000000000000000000000000000000000000000000000000000000000000000000000000000000000000000000000000000000000000000000000000000000000000000000000000000",
            "coinbase" : "0x2adc25665018aa1fe0e6bc666dac8fc2697ff9ba",
            "difficulty" : "0x020000",
            "extraData" : "0x42",
            "gasLimit" : "0x989680",
            "gasUsed" : "0x00",
            "hash" : "0xa6c854682c8d7fcab780f81abfbf3e260b07d83426da6387e3c8e2931943309e",
            "mixHash" : "0x56e81f171bcc55a6ff8345e692c0f86e5b48e01b996cadc001622fb5e363b421",
            "nonce" : "0x0102030405060708",
            "number" : "0x00",
            "parentHash" : "0x0000000000000000000000000000000000000000000000000000000000000000",
            "receiptTrie" : "0x56e81f171bcc55a6ff8345e692c0f86e5b48e01b996cadc001622fb5e363b421",
            "stateRoot" : "0x860258f673d0e6520d540eac5ce7c862a205956598d8a614db8898c8be051e9f",
            "timestamp" : "0x03b6",
            "transactionsTrie" : "0x56e81f171bcc55a6ff8345e692c0f86e5b48e01b996cadc001622fb5e363b421",
            "uncleHash" : "0x1dcc4de8dec75d7aab85b567b6ccd41ad312451b948a7413f0a142fd40d49347"
        },
        "genesisRLP" : "0xf901faf901f5a00000000000000000000000000000000000000000000000000000000000000000a01dcc4de8dec75d7aab85b567b6ccd41ad312451b948a7413f0a142fd40d49347942adc25665018aa1fe0e6bc666dac8fc2697ff9baa0860258f673d0e6520d540eac5ce7c862a205956598d8a614db8898c8be051e9fa056e81f171bcc55a6ff8345e692c0f86e5b48e01b996cadc001622fb5e363b421a056e81f171bcc55a6ff8345e692c0f86e5b48e01b996cadc001622fb5e363b421b9010000000000000000000000000000000000000000000000000000000000000000000000000000000000000000000000000000000000000000000000000000000000000000000000000000000000000000000000000000000000000000000000000000000000000000000000000000000000000000000000000000000000000000000000000000000000000000000000000000000000000000000000000000000000000000000000000000000000000000000000000000000000000000000000000000000000000000000000000000000000000000000000000000000000000000000000000000000000000000000000000000000000000000000000000000000000830200008083989680808203b642a056e81f171bcc55a6ff8345e692c0f86e5b48e01b996cadc001622fb5e363b421880102030405060708c0c0",
        "lastblockhash" : "0x001dc363350af977ffe9896c8e555a7e599cc0ff41e184a0919c16f49c0e25c5",
        "network" : "Frontier",
        "postState" : {
            "0x2adc25665018aa1fe0e6bc666dac8fc2697ff9ba" : {
                "balance" : "0x4563918245003500",
                "code" : "",
                "nonce" : "0x00",
                "storage" : {
                }
            },
            "0xa000000000000000000000000000000000000000" : {
                "balance" : "0x00",
                "code" : "0x600160005560016000fd6011600155",
                "nonce" : "0x00",
                "storage" : {
                }
            },
            "0xa94f5374fce5edbc8e2a8697c15331677e6ebf0b" : {
                "balance" : "0xe8d498db00",
                "code" : "",
                "nonce" : "0x01",
                "storage" : {
                }
            }
        },
        "pre" : {
            "0xa000000000000000000000000000000000000000" : {
                "balance" : "0x00",
                "code" : "0x600160005560016000fd6011600155",
                "nonce" : "0x00",
                "storage" : {
                }
            },
            "0xa94f5374fce5edbc8e2a8697c15331677e6ebf0b" : {
                "balance" : "0xe8d4a51000",
                "code" : "",
                "nonce" : "0x00",
                "storage" : {
                }
            }
        }
    },
    "RevertOpcode_d0g0v1_Homestead" : {
        "_info" : {
            "comment" : "",
            "filledwith" : "cpp-1.3.0+commit.6e0ce939.Linux.g++",
            "lllcversion" : "Version: 0.4.18-develop.2017.9.25+commit.a72237f2.Linux.g++",
            "source" : "src/BlockchainTestsFiller/GeneralStateTests/stRevertTest/RevertOpcode_d0g0v1Filler.json",
            "sourceHash" : "d45fa294848d17588c38df708ef4725247b153cfad8f03e78fea988fd84c66db"
        },
        "blocks" : [
            {
                "blockHeader" : {
                    "bloom" : "0x00000000000000000000000000000000000000000000000000000000000000000000000000000000000000000000000000000000000000000000000000000000000000000000000000000000000000000000000000000000000000000000000000000000000000000000000000000000000000000000000000000000000000000000000000000000000000000000000000000000000000000000000000000000000000000000000000000000000000000000000000000000000000000000000000000000000000000000000000000000000000000000000000000000000000000000000000000000000000000000000000000000000000000000000000000000",
                    "coinbase" : "0x2adc25665018aa1fe0e6bc666dac8fc2697ff9ba",
                    "difficulty" : "0x020000",
                    "extraData" : "",
                    "gasLimit" : "0x989680",
                    "gasUsed" : "0x0c3500",
                    "hash" : "0xedd609e01118e48dff10275687c33cd2a0952c53dd033efa0e9e34f05a342b54",
                    "mixHash" : "0x5c23ca1fe30ecaca143e87a70a7c8ef45530a14660208694e7aa3dbbe89507c9",
                    "nonce" : "0x4617785437042e11",
                    "number" : "0x01",
                    "parentHash" : "0xa6c854682c8d7fcab780f81abfbf3e260b07d83426da6387e3c8e2931943309e",
                    "receiptTrie" : "0x7dcd05c790a6ed503a15b7b0688335ba95cdb30f2a078be9b467658fbf59bb51",
                    "stateRoot" : "0xf102cc3981251cbe5daf4ce2a3ae234f7f637261060b544c461fa32e987561b7",
                    "timestamp" : "0x03e8",
                    "transactionsTrie" : "0xf30045b47ea8c48691ad7eabc8903d3cc479e3b6bef031a2894cf71e0232b259",
                    "uncleHash" : "0x1dcc4de8dec75d7aab85b567b6ccd41ad312451b948a7413f0a142fd40d49347"
                },
                "rlp" : "0xf90260f901f8a0a6c854682c8d7fcab780f81abfbf3e260b07d83426da6387e3c8e2931943309ea01dcc4de8dec75d7aab85b567b6ccd41ad312451b948a7413f0a142fd40d49347942adc25665018aa1fe0e6bc666dac8fc2697ff9baa0f102cc3981251cbe5daf4ce2a3ae234f7f637261060b544c461fa32e987561b7a0f30045b47ea8c48691ad7eabc8903d3cc479e3b6bef031a2894cf71e0232b259a07dcd05c790a6ed503a15b7b0688335ba95cdb30f2a078be9b467658fbf59bb51b9010000000000000000000000000000000000000000000000000000000000000000000000000000000000000000000000000000000000000000000000000000000000000000000000000000000000000000000000000000000000000000000000000000000000000000000000000000000000000000000000000000000000000000000000000000000000000000000000000000000000000000000000000000000000000000000000000000000000000000000000000000000000000000000000000000000000000000000000000000000000000000000000000000000000000000000000000000000000000000000000000000000000000000000000000000000000830200000183989680830c35008203e880a05c23ca1fe30ecaca143e87a70a7c8ef45530a14660208694e7aa3dbbe89507c9884617785437042e11f862f8608001830c350094a0000000000000000000000000000000000000000a801ba0f4ac47ee32f13b3f54d298369a82d33ef1c80c58d04525a85e4f8fcfa57729f4a03e9fdc44de07ca288479815062ab19ff708d0180a2d80d6e77aa6562de839860c0",
                "transactions" : [
                    {
                        "data" : "",
                        "gasLimit" : "0x0c3500",
                        "gasPrice" : "0x01",
                        "nonce" : "0x00",
                        "r" : "0xf4ac47ee32f13b3f54d298369a82d33ef1c80c58d04525a85e4f8fcfa57729f4",
                        "s" : "0x3e9fdc44de07ca288479815062ab19ff708d0180a2d80d6e77aa6562de839860",
                        "to" : "0xa000000000000000000000000000000000000000",
                        "v" : "0x1b",
                        "value" : "0x0a"
                    }
                ],
                "uncleHeaders" : [
                ]
            }
        ],
        "genesisBlockHeader" : {
            "bloom" : "0x00000000000000000000000000000000000000000000000000000000000000000000000000000000000000000000000000000000000000000000000000000000000000000000000000000000000000000000000000000000000000000000000000000000000000000000000000000000000000000000000000000000000000000000000000000000000000000000000000000000000000000000000000000000000000000000000000000000000000000000000000000000000000000000000000000000000000000000000000000000000000000000000000000000000000000000000000000000000000000000000000000000000000000000000000000000",
            "coinbase" : "0x2adc25665018aa1fe0e6bc666dac8fc2697ff9ba",
            "difficulty" : "0x020000",
            "extraData" : "0x42",
            "gasLimit" : "0x989680",
            "gasUsed" : "0x00",
            "hash" : "0xa6c854682c8d7fcab780f81abfbf3e260b07d83426da6387e3c8e2931943309e",
            "mixHash" : "0x56e81f171bcc55a6ff8345e692c0f86e5b48e01b996cadc001622fb5e363b421",
            "nonce" : "0x0102030405060708",
            "number" : "0x00",
            "parentHash" : "0x0000000000000000000000000000000000000000000000000000000000000000",
            "receiptTrie" : "0x56e81f171bcc55a6ff8345e692c0f86e5b48e01b996cadc001622fb5e363b421",
            "stateRoot" : "0x860258f673d0e6520d540eac5ce7c862a205956598d8a614db8898c8be051e9f",
            "timestamp" : "0x03b6",
            "transactionsTrie" : "0x56e81f171bcc55a6ff8345e692c0f86e5b48e01b996cadc001622fb5e363b421",
            "uncleHash" : "0x1dcc4de8dec75d7aab85b567b6ccd41ad312451b948a7413f0a142fd40d49347"
        },
        "genesisRLP" : "0xf901faf901f5a00000000000000000000000000000000000000000000000000000000000000000a01dcc4de8dec75d7aab85b567b6ccd41ad312451b948a7413f0a142fd40d49347942adc25665018aa1fe0e6bc666dac8fc2697ff9baa0860258f673d0e6520d540eac5ce7c862a205956598d8a614db8898c8be051e9fa056e81f171bcc55a6ff8345e692c0f86e5b48e01b996cadc001622fb5e363b421a056e81f171bcc55a6ff8345e692c0f86e5b48e01b996cadc001622fb5e363b421b9010000000000000000000000000000000000000000000000000000000000000000000000000000000000000000000000000000000000000000000000000000000000000000000000000000000000000000000000000000000000000000000000000000000000000000000000000000000000000000000000000000000000000000000000000000000000000000000000000000000000000000000000000000000000000000000000000000000000000000000000000000000000000000000000000000000000000000000000000000000000000000000000000000000000000000000000000000000000000000000000000000000000000000000000000000000000830200008083989680808203b642a056e81f171bcc55a6ff8345e692c0f86e5b48e01b996cadc001622fb5e363b421880102030405060708c0c0",
        "lastblockhash" : "0xedd609e01118e48dff10275687c33cd2a0952c53dd033efa0e9e34f05a342b54",
        "network" : "Homestead",
        "postState" : {
            "0x2adc25665018aa1fe0e6bc666dac8fc2697ff9ba" : {
                "balance" : "0x4563918245003500",
                "code" : "",
                "nonce" : "0x00",
                "storage" : {
                }
            },
            "0xa000000000000000000000000000000000000000" : {
                "balance" : "0x00",
                "code" : "0x600160005560016000fd6011600155",
                "nonce" : "0x00",
                "storage" : {
                }
            },
            "0xa94f5374fce5edbc8e2a8697c15331677e6ebf0b" : {
                "balance" : "0xe8d498db00",
                "code" : "",
                "nonce" : "0x01",
                "storage" : {
                }
            }
        },
        "pre" : {
            "0xa000000000000000000000000000000000000000" : {
                "balance" : "0x00",
                "code" : "0x600160005560016000fd6011600155",
                "nonce" : "0x00",
                "storage" : {
                }
            },
            "0xa94f5374fce5edbc8e2a8697c15331677e6ebf0b" : {
                "balance" : "0xe8d4a51000",
                "code" : "",
                "nonce" : "0x00",
                "storage" : {
                }
            }
        }
    }
}