{
    "RevertSubCallStorageOOG_d0g1v1_Byzantium" : {
        "_info" : {
            "comment" : "",
            "filledwith" : "cpp-1.3.0+commit.6e0ce939.Linux.g++",
            "lllcversion" : "Version: 0.4.18-develop.2017.9.25+commit.a72237f2.Linux.g++",
            "source" : "src/BlockchainTestsFiller/GeneralStateTests/stRevertTest/RevertSubCallStorageOOG_d0g1v1Filler.json",
            "sourceHash" : "ac8f7f8a6a285748d9a0170f70aff2240c7ccb1c8522d3db4926bbf4e82f1126"
        },
        "blocks" : [
            {
                "blockHeader" : {
                    "bloom" : "0x00000000000000000000000000000000000000000000000000000000000000000000000000000000000000000000000000000000000000000000000000000000000000000000000000000000000000000000000000000000000000000000000000000000000000000000000000000000000000000000000000000000000000000000000000000000000000000000000000000000000000000000000000000000000000000000000000000000000000000000000000000000000000000000000000000000000000000000000000000000000000000000000000000000000000000000000000000000000000000000000000000000000000000000000000000000",
                    "coinbase" : "0x2adc25665018aa1fe0e6bc666dac8fc2697ff9ba",
                    "difficulty" : "0x020000",
                    "extraData" : "",
                    "gasLimit" : "0x989680",
                    "gasUsed" : "0x02c308",
                    "hash" : "0xad404d5d1968fdc4357e1b3d6addef8fcce5defdee0c280828e167e7ae83602a",
                    "mixHash" : "0xbe95e7fc7a9ce646dad4038b7c3fe34f95fab5b4d2464acd09ebb9f55201cc5d",
                    "nonce" : "0xf6ebd2e84c5edbb6",
                    "number" : "0x01",
                    "parentHash" : "0x38eca8f5e513e3f1622fde552380decf77ccf1ac9607d7ff85e4b17b0931d195",
                    "receiptTrie" : "0xa0e59dd82470f49ac8e90225d6d4478de021b3e726e5bddd464b6b763766a937",
                    "stateRoot" : "0x829a74712d8225cdc96cc8c8ac3dae27d5788c00e8b631fc228fe6b923bbd4ff",
                    "timestamp" : "0x03e8",
                    "transactionsTrie" : "0xb415bd35fe0e64413510fc89329f197ae0eb68df955145ac5f97a2eb5f025b95",
                    "uncleHash" : "0x1dcc4de8dec75d7aab85b567b6ccd41ad312451b948a7413f0a142fd40d49347"
                },
                "rlp" : "0xf90264f901f8a038eca8f5e513e3f1622fde552380decf77ccf1ac9607d7ff85e4b17b0931d195a01dcc4de8dec75d7aab85b567b6ccd41ad312451b948a7413f0a142fd40d49347942adc25665018aa1fe0e6bc666dac8fc2697ff9baa0829a74712d8225cdc96cc8c8ac3dae27d5788c00e8b631fc228fe6b923bbd4ffa0b415bd35fe0e64413510fc89329f197ae0eb68df955145ac5f97a2eb5f025b95a0a0e59dd82470f49ac8e90225d6d4478de021b3e726e5bddd464b6b763766a937b90100000000000000000000000000000000000000000000000000000000000000000000000000000000000000000000000000000000000000000000000000000000000000000000000000000000000000000000000000000000000000000000000000000000000000000000000000000000000000000000000000000000000000000000000000000000000000000000000000000000000000000000000000000000000000000000000000000000000000000000000000000000000000000000000000000000000000000000000000000000000000000000000000000000000000000000000000000000000000000000000000000000000000000000000000000000008302000001839896808302c3088203e880a0be95e7fc7a9ce646dad4038b7c3fe34f95fab5b4d2464acd09ebb9f55201cc5d88f6ebd2e84c5edbb6f866f86480018302c30894a0000000000000000000000000000000000000000184c04062261ca08b2261fe602738d6853da8f1121679f6dc2286bef0fc235e67c2e537142a93faa026ba115a962be542d894ee59793cc9095557f7d1b82540cccbae35074c5f5af6c0",
                "transactions" : [
                    {
                        "data" : "0xc0406226",
                        "gasLimit" : "0x02c308",
                        "gasPrice" : "0x01",
                        "nonce" : "0x00",
                        "r" : "0x8b2261fe602738d6853da8f1121679f6dc2286bef0fc235e67c2e537142a93fa",
                        "s" : "0x26ba115a962be542d894ee59793cc9095557f7d1b82540cccbae35074c5f5af6",
                        "to" : "0xa000000000000000000000000000000000000000",
                        "v" : "0x1c",
                        "value" : "0x01"
                    }
                ],
                "uncleHeaders" : [
                ]
            }
        ],
        "genesisBlockHeader" : {
            "bloom" : "0x00000000000000000000000000000000000000000000000000000000000000000000000000000000000000000000000000000000000000000000000000000000000000000000000000000000000000000000000000000000000000000000000000000000000000000000000000000000000000000000000000000000000000000000000000000000000000000000000000000000000000000000000000000000000000000000000000000000000000000000000000000000000000000000000000000000000000000000000000000000000000000000000000000000000000000000000000000000000000000000000000000000000000000000000000000000",
            "coinbase" : "0x2adc25665018aa1fe0e6bc666dac8fc2697ff9ba",
            "difficulty" : "0x020000",
            "extraData" : "0x42",
            "gasLimit" : "0x989680",
            "gasUsed" : "0x00",
            "hash" : "0x38eca8f5e513e3f1622fde552380decf77ccf1ac9607d7ff85e4b17b0931d195",
            "mixHash" : "0x56e81f171bcc55a6ff8345e692c0f86e5b48e01b996cadc001622fb5e363b421",
            "nonce" : "0x0102030405060708",
            "number" : "0x00",
            "parentHash" : "0x0000000000000000000000000000000000000000000000000000000000000000",
            "receiptTrie" : "0x56e81f171bcc55a6ff8345e692c0f86e5b48e01b996cadc001622fb5e363b421",
            "stateRoot" : "0x3d0242656b55c4eefe20d9c3ae6d445a03334d6d60338dd7c2f9514a87468e3d",
            "timestamp" : "0x03b6",
            "transactionsTrie" : "0x56e81f171bcc55a6ff8345e692c0f86e5b48e01b996cadc001622fb5e363b421",
            "uncleHash" : "0x1dcc4de8dec75d7aab85b567b6ccd41ad312451b948a7413f0a142fd40d49347"
        },
        "genesisRLP" : "0xf901faf901f5a00000000000000000000000000000000000000000000000000000000000000000a01dcc4de8dec75d7aab85b567b6ccd41ad312451b948a7413f0a142fd40d49347942adc25665018aa1fe0e6bc666dac8fc2697ff9baa03d0242656b55c4eefe20d9c3ae6d445a03334d6d60338dd7c2f9514a87468e3da056e81f171bcc55a6ff8345e692c0f86e5b48e01b996cadc001622fb5e363b421a056e81f171bcc55a6ff8345e692c0f86e5b48e01b996cadc001622fb5e363b421b9010000000000000000000000000000000000000000000000000000000000000000000000000000000000000000000000000000000000000000000000000000000000000000000000000000000000000000000000000000000000000000000000000000000000000000000000000000000000000000000000000000000000000000000000000000000000000000000000000000000000000000000000000000000000000000000000000000000000000000000000000000000000000000000000000000000000000000000000000000000000000000000000000000000000000000000000000000000000000000000000000000000000000000000000000000000000830200008083989680808203b642a056e81f171bcc55a6ff8345e692c0f86e5b48e01b996cadc001622fb5e363b421880102030405060708c0c0",
        "lastblockhash" : "0xad404d5d1968fdc4357e1b3d6addef8fcce5defdee0c280828e167e7ae83602a",
        "network" : "Byzantium",
        "postState" : {
            "0x2adc25665018aa1fe0e6bc666dac8fc2697ff9ba" : {
                "balance" : "0x29a2241af62ec308",
                "code" : "",
                "nonce" : "0x00",
                "storage" : {
                }
            },
            "0xa000000000000000000000000000000000000000" : {
                "balance" : "0x01",
                "code" : "0x60606040526000357c0100000000000000000000000000000000000000000000000000000000900463ffffffff168063b28175c4146046578063c0406226146052575b6000565b3460005760506076565b005b34600057605c6081565b604051808215151515815260200191505060405180910390f35b600c6000819055505b565b600060896076565b600d600181905550600e600281905550600190505b905600a165627a7a723058202a8a75d7d795b5bcb9042fb18b283daa90b999a11ddec892f548732235342eb60029",
                "nonce" : "0x00",
                "storage" : {
                }
            },
            "0xa94f5374fce5edbc8e2a8697c15331677e6ebf0b" : {
                "balance" : "0xe8d4a24cf8",
                "code" : "",
                "nonce" : "0x01",
                "storage" : {
                }
            }
        },
        "pre" : {
            "0xa000000000000000000000000000000000000000" : {
                "balance" : "0x01",
                "code" : "0x60606040526000357c0100000000000000000000000000000000000000000000000000000000900463ffffffff168063b28175c4146046578063c0406226146052575b6000565b3460005760506076565b005b34600057605c6081565b604051808215151515815260200191505060405180910390f35b600c6000819055505b565b600060896076565b600d600181905550600e600281905550600190505b905600a165627a7a723058202a8a75d7d795b5bcb9042fb18b283daa90b999a11ddec892f548732235342eb60029",
                "nonce" : "0x00",
                "storage" : {
                }
            },
            "0xa94f5374fce5edbc8e2a8697c15331677e6ebf0b" : {
                "balance" : "0xe8d4a51000",
                "code" : "",
                "nonce" : "0x00",
                "storage" : {
                }
            }
        }
    },
    "RevertSubCallStorageOOG_d0g1v1_EIP150" : {
        "_info" : {
            "comment" : "",
            "filledwith" : "cpp-1.3.0+commit.6e0ce939.Linux.g++",
            "lllcversion" : "Version: 0.4.18-develop.2017.9.25+commit.a72237f2.Linux.g++",
            "source" : "src/BlockchainTestsFiller/GeneralStateTests/stRevertTest/RevertSubCallStorageOOG_d0g1v1Filler.json",
            "sourceHash" : "ac8f7f8a6a285748d9a0170f70aff2240c7ccb1c8522d3db4926bbf4e82f1126"
        },
        "blocks" : [
            {
                "blockHeader" : {
                    "bloom" : "0x00000000000000000000000000000000000000000000000000000000000000000000000000000000000000000000000000000000000000000000000000000000000000000000000000000000000000000000000000000000000000000000000000000000000000000000000000000000000000000000000000000000000000000000000000000000000000000000000000000000000000000000000000000000000000000000000000000000000000000000000000000000000000000000000000000000000000000000000000000000000000000000000000000000000000000000000000000000000000000000000000000000000000000000000000000000",
                    "coinbase" : "0x2adc25665018aa1fe0e6bc666dac8fc2697ff9ba",
                    "difficulty" : "0x020000",
                    "extraData" : "",
                    "gasLimit" : "0x989680",
                    "gasUsed" : "0x02c308",
                    "hash" : "0x92e2382f5910ce33236be3b701f352cb770d1127ddbf10f32f2b03ff6d376d57",
                    "mixHash" : "0x767c61323e2e5f11e7c10de8a78d1b262153dfe3c133c8b1678001034aa9e705",
                    "nonce" : "0xc5bb3748ad10113e",
                    "number" : "0x01",
                    "parentHash" : "0x38eca8f5e513e3f1622fde552380decf77ccf1ac9607d7ff85e4b17b0931d195",
                    "receiptTrie" : "0x5cd3acb5eb76fc9b8080fb617dbfbd6dc1a760631f142f5c687fd0455559c196",
                    "stateRoot" : "0x1ffcda6b66d61dbb242a4b582658c740bcc897357210c3d1928a7cc69a58b9a8",
                    "timestamp" : "0x03e8",
                    "transactionsTrie" : "0xb415bd35fe0e64413510fc89329f197ae0eb68df955145ac5f97a2eb5f025b95",
                    "uncleHash" : "0x1dcc4de8dec75d7aab85b567b6ccd41ad312451b948a7413f0a142fd40d49347"
                },
                "rlp" : "0xf90264f901f8a038eca8f5e513e3f1622fde552380decf77ccf1ac9607d7ff85e4b17b0931d195a01dcc4de8dec75d7aab85b567b6ccd41ad312451b948a7413f0a142fd40d49347942adc25665018aa1fe0e6bc666dac8fc2697ff9baa01ffcda6b66d61dbb242a4b582658c740bcc897357210c3d1928a7cc69a58b9a8a0b415bd35fe0e64413510fc89329f197ae0eb68df955145ac5f97a2eb5f025b95a05cd3acb5eb76fc9b8080fb617dbfbd6dc1a760631f142f5c687fd0455559c196b90100000000000000000000000000000000000000000000000000000000000000000000000000000000000000000000000000000000000000000000000000000000000000000000000000000000000000000000000000000000000000000000000000000000000000000000000000000000000000000000000000000000000000000000000000000000000000000000000000000000000000000000000000000000000000000000000000000000000000000000000000000000000000000000000000000000000000000000000000000000000000000000000000000000000000000000000000000000000000000000000000000000000000000000000000000000008302000001839896808302c3088203e880a0767c61323e2e5f11e7c10de8a78d1b262153dfe3c133c8b1678001034aa9e70588c5bb3748ad10113ef866f86480018302c30894a0000000000000000000000000000000000000000184c04062261ca08b2261fe602738d6853da8f1121679f6dc2286bef0fc235e67c2e537142a93faa026ba115a962be542d894ee59793cc9095557f7d1b82540cccbae35074c5f5af6c0",
                "transactions" : [
                    {
                        "data" : "0xc0406226",
                        "gasLimit" : "0x02c308",
                        "gasPrice" : "0x01",
                        "nonce" : "0x00",
                        "r" : "0x8b2261fe602738d6853da8f1121679f6dc2286bef0fc235e67c2e537142a93fa",
                        "s" : "0x26ba115a962be542d894ee59793cc9095557f7d1b82540cccbae35074c5f5af6",
                        "to" : "0xa000000000000000000000000000000000000000",
                        "v" : "0x1c",
                        "value" : "0x01"
                    }
                ],
                "uncleHeaders" : [
                ]
            }
        ],
        "genesisBlockHeader" : {
            "bloom" : "0x00000000000000000000000000000000000000000000000000000000000000000000000000000000000000000000000000000000000000000000000000000000000000000000000000000000000000000000000000000000000000000000000000000000000000000000000000000000000000000000000000000000000000000000000000000000000000000000000000000000000000000000000000000000000000000000000000000000000000000000000000000000000000000000000000000000000000000000000000000000000000000000000000000000000000000000000000000000000000000000000000000000000000000000000000000000",
            "coinbase" : "0x2adc25665018aa1fe0e6bc666dac8fc2697ff9ba",
            "difficulty" : "0x020000",
            "extraData" : "0x42",
            "gasLimit" : "0x989680",
            "gasUsed" : "0x00",
            "hash" : "0x38eca8f5e513e3f1622fde552380decf77ccf1ac9607d7ff85e4b17b0931d195",
            "mixHash" : "0x56e81f171bcc55a6ff8345e692c0f86e5b48e01b996cadc001622fb5e363b421",
            "nonce" : "0x0102030405060708",
            "number" : "0x00",
            "parentHash" : "0x0000000000000000000000000000000000000000000000000000000000000000",
            "receiptTrie" : "0x56e81f171bcc55a6ff8345e692c0f86e5b48e01b996cadc001622fb5e363b421",
            "stateRoot" : "0x3d0242656b55c4eefe20d9c3ae6d445a03334d6d60338dd7c2f9514a87468e3d",
            "timestamp" : "0x03b6",
            "transactionsTrie" : "0x56e81f171bcc55a6ff8345e692c0f86e5b48e01b996cadc001622fb5e363b421",
            "uncleHash" : "0x1dcc4de8dec75d7aab85b567b6ccd41ad312451b948a7413f0a142fd40d49347"
        },
        "genesisRLP" : "0xf901faf901f5a00000000000000000000000000000000000000000000000000000000000000000a01dcc4de8dec75d7aab85b567b6ccd41ad312451b948a7413f0a142fd40d49347942adc25665018aa1fe0e6bc666dac8fc2697ff9baa03d0242656b55c4eefe20d9c3ae6d445a03334d6d60338dd7c2f9514a87468e3da056e81f171bcc55a6ff8345e692c0f86e5b48e01b996cadc001622fb5e363b421a056e81f171bcc55a6ff8345e692c0f86e5b48e01b996cadc001622fb5e363b421b9010000000000000000000000000000000000000000000000000000000000000000000000000000000000000000000000000000000000000000000000000000000000000000000000000000000000000000000000000000000000000000000000000000000000000000000000000000000000000000000000000000000000000000000000000000000000000000000000000000000000000000000000000000000000000000000000000000000000000000000000000000000000000000000000000000000000000000000000000000000000000000000000000000000000000000000000000000000000000000000000000000000000000000000000000000000000830200008083989680808203b642a056e81f171bcc55a6ff8345e692c0f86e5b48e01b996cadc001622fb5e363b421880102030405060708c0c0",
        "lastblockhash" : "0x92e2382f5910ce33236be3b701f352cb770d1127ddbf10f32f2b03ff6d376d57",
        "network" : "EIP150",
        "postState" : {
            "0x2adc25665018aa1fe0e6bc666dac8fc2697ff9ba" : {
                "balance" : "0x4563918244f6c308",
                "code" : "",
                "nonce" : "0x00",
                "storage" : {
                }
            },
            "0xa000000000000000000000000000000000000000" : {
                "balance" : "0x01",
                "code" : "0x60606040526000357c0100000000000000000000000000000000000000000000000000000000900463ffffffff168063b28175c4146046578063c0406226146052575b6000565b3460005760506076565b005b34600057605c6081565b604051808215151515815260200191505060405180910390f35b600c6000819055505b565b600060896076565b600d600181905550600e600281905550600190505b905600a165627a7a723058202a8a75d7d795b5bcb9042fb18b283daa90b999a11ddec892f548732235342eb60029",
                "nonce" : "0x00",
                "storage" : {
                }
            },
            "0xa94f5374fce5edbc8e2a8697c15331677e6ebf0b" : {
                "balance" : "0xe8d4a24cf8",
                "code" : "",
                "nonce" : "0x01",
                "storage" : {
                }
            }
        },
        "pre" : {
            "0xa000000000000000000000000000000000000000" : {
                "balance" : "0x01",
                "code" : "0x60606040526000357c0100000000000000000000000000000000000000000000000000000000900463ffffffff168063b28175c4146046578063c0406226146052575b6000565b3460005760506076565b005b34600057605c6081565b604051808215151515815260200191505060405180910390f35b600c6000819055505b565b600060896076565b600d600181905550600e600281905550600190505b905600a165627a7a723058202a8a75d7d795b5bcb9042fb18b283daa90b999a11ddec892f548732235342eb60029",
                "nonce" : "0x00",
                "storage" : {
                }
            },
            "0xa94f5374fce5edbc8e2a8697c15331677e6ebf0b" : {
                "balance" : "0xe8d4a51000",
                "code" : "",
                "nonce" : "0x00",
                "storage" : {
                }
            }
        }
    },
    "RevertSubCallStorageOOG_d0g1v1_EIP158" : {
        "_info" : {
            "comment" : "",
            "filledwith" : "cpp-1.3.0+commit.6e0ce939.Linux.g++",
            "lllcversion" : "Version: 0.4.18-develop.2017.9.25+commit.a72237f2.Linux.g++",
            "source" : "src/BlockchainTestsFiller/GeneralStateTests/stRevertTest/RevertSubCallStorageOOG_d0g1v1Filler.json",
            "sourceHash" : "ac8f7f8a6a285748d9a0170f70aff2240c7ccb1c8522d3db4926bbf4e82f1126"
        },
        "blocks" : [
            {
                "blockHeader" : {
                    "bloom" : "0x00000000000000000000000000000000000000000000000000000000000000000000000000000000000000000000000000000000000000000000000000000000000000000000000000000000000000000000000000000000000000000000000000000000000000000000000000000000000000000000000000000000000000000000000000000000000000000000000000000000000000000000000000000000000000000000000000000000000000000000000000000000000000000000000000000000000000000000000000000000000000000000000000000000000000000000000000000000000000000000000000000000000000000000000000000000",
                    "coinbase" : "0x2adc25665018aa1fe0e6bc666dac8fc2697ff9ba",
                    "difficulty" : "0x020000",
                    "extraData" : "",
                    "gasLimit" : "0x989680",
                    "gasUsed" : "0x02c308",
                    "hash" : "0x4e4841f527bbf42b987e7dfc3ca96b99a5eb2fab55bff76d3c7cd4d3dd36afda",
                    "mixHash" : "0x1edbfd914922512351ad0c538ce4150bf233c5397f2ce38232c8194972b03695",
                    "nonce" : "0x0b8314048418b668",
                    "number" : "0x01",
                    "parentHash" : "0x38eca8f5e513e3f1622fde552380decf77ccf1ac9607d7ff85e4b17b0931d195",
                    "receiptTrie" : "0x5cd3acb5eb76fc9b8080fb617dbfbd6dc1a760631f142f5c687fd0455559c196",
                    "stateRoot" : "0x1ffcda6b66d61dbb242a4b582658c740bcc897357210c3d1928a7cc69a58b9a8",
                    "timestamp" : "0x03e8",
                    "transactionsTrie" : "0xb415bd35fe0e64413510fc89329f197ae0eb68df955145ac5f97a2eb5f025b95",
                    "uncleHash" : "0x1dcc4de8dec75d7aab85b567b6ccd41ad312451b948a7413f0a142fd40d49347"
                },
                "rlp" : "0xf90264f901f8a038eca8f5e513e3f1622fde552380decf77ccf1ac9607d7ff85e4b17b0931d195a01dcc4de8dec75d7aab85b567b6ccd41ad312451b948a7413f0a142fd40d49347942adc25665018aa1fe0e6bc666dac8fc2697ff9baa01ffcda6b66d61dbb242a4b582658c740bcc897357210c3d1928a7cc69a58b9a8a0b415bd35fe0e64413510fc89329f197ae0eb68df955145ac5f97a2eb5f025b95a05cd3acb5eb76fc9b8080fb617dbfbd6dc1a760631f142f5c687fd0455559c196b90100000000000000000000000000000000000000000000000000000000000000000000000000000000000000000000000000000000000000000000000000000000000000000000000000000000000000000000000000000000000000000000000000000000000000000000000000000000000000000000000000000000000000000000000000000000000000000000000000000000000000000000000000000000000000000000000000000000000000000000000000000000000000000000000000000000000000000000000000000000000000000000000000000000000000000000000000000000000000000000000000000000000000000000000000000000008302000001839896808302c3088203e880a01edbfd914922512351ad0c538ce4150bf233c5397f2ce38232c8194972b03695880b8314048418b668f866f86480018302c30894a0000000000000000000000000000000000000000184c04062261ca08b2261fe602738d6853da8f1121679f6dc2286bef0fc235e67c2e537142a93faa026ba115a962be542d894ee59793cc9095557f7d1b82540cccbae35074c5f5af6c0",
                "transactions" : [
                    {
                        "data" : "0xc0406226",
                        "gasLimit" : "0x02c308",
                        "gasPrice" : "0x01",
                        "nonce" : "0x00",
                        "r" : "0x8b2261fe602738d6853da8f1121679f6dc2286bef0fc235e67c2e537142a93fa",
                        "s" : "0x26ba115a962be542d894ee59793cc9095557f7d1b82540cccbae35074c5f5af6",
                        "to" : "0xa000000000000000000000000000000000000000",
                        "v" : "0x1c",
                        "value" : "0x01"
                    }
                ],
                "uncleHeaders" : [
                ]
            }
        ],
        "genesisBlockHeader" : {
            "bloom" : "0x00000000000000000000000000000000000000000000000000000000000000000000000000000000000000000000000000000000000000000000000000000000000000000000000000000000000000000000000000000000000000000000000000000000000000000000000000000000000000000000000000000000000000000000000000000000000000000000000000000000000000000000000000000000000000000000000000000000000000000000000000000000000000000000000000000000000000000000000000000000000000000000000000000000000000000000000000000000000000000000000000000000000000000000000000000000",
            "coinbase" : "0x2adc25665018aa1fe0e6bc666dac8fc2697ff9ba",
            "difficulty" : "0x020000",
            "extraData" : "0x42",
            "gasLimit" : "0x989680",
            "gasUsed" : "0x00",
            "hash" : "0x38eca8f5e513e3f1622fde552380decf77ccf1ac9607d7ff85e4b17b0931d195",
            "mixHash" : "0x56e81f171bcc55a6ff8345e692c0f86e5b48e01b996cadc001622fb5e363b421",
            "nonce" : "0x0102030405060708",
            "number" : "0x00",
            "parentHash" : "0x0000000000000000000000000000000000000000000000000000000000000000",
            "receiptTrie" : "0x56e81f171bcc55a6ff8345e692c0f86e5b48e01b996cadc001622fb5e363b421",
            "stateRoot" : "0x3d0242656b55c4eefe20d9c3ae6d445a03334d6d60338dd7c2f9514a87468e3d",
            "timestamp" : "0x03b6",
            "transactionsTrie" : "0x56e81f171bcc55a6ff8345e692c0f86e5b48e01b996cadc001622fb5e363b421",
            "uncleHash" : "0x1dcc4de8dec75d7aab85b567b6ccd41ad312451b948a7413f0a142fd40d49347"
        },
        "genesisRLP" : "0xf901faf901f5a00000000000000000000000000000000000000000000000000000000000000000a01dcc4de8dec75d7aab85b567b6ccd41ad312451b948a7413f0a142fd40d49347942adc25665018aa1fe0e6bc666dac8fc2697ff9baa03d0242656b55c4eefe20d9c3ae6d445a03334d6d60338dd7c2f9514a87468e3da056e81f171bcc55a6ff8345e692c0f86e5b48e01b996cadc001622fb5e363b421a056e81f171bcc55a6ff8345e692c0f86e5b48e01b996cadc001622fb5e363b421b9010000000000000000000000000000000000000000000000000000000000000000000000000000000000000000000000000000000000000000000000000000000000000000000000000000000000000000000000000000000000000000000000000000000000000000000000000000000000000000000000000000000000000000000000000000000000000000000000000000000000000000000000000000000000000000000000000000000000000000000000000000000000000000000000000000000000000000000000000000000000000000000000000000000000000000000000000000000000000000000000000000000000000000000000000000000000830200008083989680808203b642a056e81f171bcc55a6ff8345e692c0f86e5b48e01b996cadc001622fb5e363b421880102030405060708c0c0",
        "lastblockhash" : "0x4e4841f527bbf42b987e7dfc3ca96b99a5eb2fab55bff76d3c7cd4d3dd36afda",
        "network" : "EIP158",
        "postState" : {
            "0x2adc25665018aa1fe0e6bc666dac8fc2697ff9ba" : {
                "balance" : "0x4563918244f6c308",
                "code" : "",
                "nonce" : "0x00",
                "storage" : {
                }
            },
            "0xa000000000000000000000000000000000000000" : {
                "balance" : "0x01",
                "code" : "0x60606040526000357c0100000000000000000000000000000000000000000000000000000000900463ffffffff168063b28175c4146046578063c0406226146052575b6000565b3460005760506076565b005b34600057605c6081565b604051808215151515815260200191505060405180910390f35b600c6000819055505b565b600060896076565b600d600181905550600e600281905550600190505b905600a165627a7a723058202a8a75d7d795b5bcb9042fb18b283daa90b999a11ddec892f548732235342eb60029",
                "nonce" : "0x00",
                "storage" : {
                }
            },
            "0xa94f5374fce5edbc8e2a8697c15331677e6ebf0b" : {
                "balance" : "0xe8d4a24cf8",
                "code" : "",
                "nonce" : "0x01",
                "storage" : {
                }
            }
        },
        "pre" : {
            "0xa000000000000000000000000000000000000000" : {
                "balance" : "0x01",
                "code" : "0x60606040526000357c0100000000000000000000000000000000000000000000000000000000900463ffffffff168063b28175c4146046578063c0406226146052575b6000565b3460005760506076565b005b34600057605c6081565b604051808215151515815260200191505060405180910390f35b600c6000819055505b565b600060896076565b600d600181905550600e600281905550600190505b905600a165627a7a723058202a8a75d7d795b5bcb9042fb18b283daa90b999a11ddec892f548732235342eb60029",
                "nonce" : "0x00",
                "storage" : {
                }
            },
            "0xa94f5374fce5edbc8e2a8697c15331677e6ebf0b" : {
                "balance" : "0xe8d4a51000",
                "code" : "",
                "nonce" : "0x00",
                "storage" : {
                }
            }
        }
    },
    "RevertSubCallStorageOOG_d0g1v1_Frontier" : {
        "_info" : {
            "comment" : "",
            "filledwith" : "cpp-1.3.0+commit.6e0ce939.Linux.g++",
            "lllcversion" : "Version: 0.4.18-develop.2017.9.25+commit.a72237f2.Linux.g++",
            "source" : "src/BlockchainTestsFiller/GeneralStateTests/stRevertTest/RevertSubCallStorageOOG_d0g1v1Filler.json",
            "sourceHash" : "ac8f7f8a6a285748d9a0170f70aff2240c7ccb1c8522d3db4926bbf4e82f1126"
        },
        "blocks" : [
            {
                "blockHeader" : {
                    "bloom" : "0x00000000000000000000000000000000000000000000000000000000000000000000000000000000000000000000000000000000000000000000000000000000000000000000000000000000000000000000000000000000000000000000000000000000000000000000000000000000000000000000000000000000000000000000000000000000000000000000000000000000000000000000000000000000000000000000000000000000000000000000000000000000000000000000000000000000000000000000000000000000000000000000000000000000000000000000000000000000000000000000000000000000000000000000000000000000",
                    "coinbase" : "0x2adc25665018aa1fe0e6bc666dac8fc2697ff9ba",
                    "difficulty" : "0x020000",
                    "extraData" : "",
                    "gasLimit" : "0x989680",
                    "gasUsed" : "0x02c308",
                    "hash" : "0x098bfee2577e1ab82632e31dd1fcaedeadc9f08b74d3147cc40bcf7048584a68",
                    "mixHash" : "0x6bdc03f4c7137fc6d9cb7b236a5ea34e79a2a14a60ac781937033a951ffad4cc",
                    "nonce" : "0x827fef012cd446d8",
                    "number" : "0x01",
                    "parentHash" : "0x38eca8f5e513e3f1622fde552380decf77ccf1ac9607d7ff85e4b17b0931d195",
                    "receiptTrie" : "0x5cd3acb5eb76fc9b8080fb617dbfbd6dc1a760631f142f5c687fd0455559c196",
                    "stateRoot" : "0x1ffcda6b66d61dbb242a4b582658c740bcc897357210c3d1928a7cc69a58b9a8",
                    "timestamp" : "0x03e8",
                    "transactionsTrie" : "0xb415bd35fe0e64413510fc89329f197ae0eb68df955145ac5f97a2eb5f025b95",
                    "uncleHash" : "0x1dcc4de8dec75d7aab85b567b6ccd41ad312451b948a7413f0a142fd40d49347"
                },
                "rlp" : "0xf90264f901f8a038eca8f5e513e3f1622fde552380decf77ccf1ac9607d7ff85e4b17b0931d195a01dcc4de8dec75d7aab85b567b6ccd41ad312451b948a7413f0a142fd40d49347942adc25665018aa1fe0e6bc666dac8fc2697ff9baa01ffcda6b66d61dbb242a4b582658c740bcc897357210c3d1928a7cc69a58b9a8a0b415bd35fe0e64413510fc89329f197ae0eb68df955145ac5f97a2eb5f025b95a05cd3acb5eb76fc9b8080fb617dbfbd6dc1a760631f142f5c687fd0455559c196b90100000000000000000000000000000000000000000000000000000000000000000000000000000000000000000000000000000000000000000000000000000000000000000000000000000000000000000000000000000000000000000000000000000000000000000000000000000000000000000000000000000000000000000000000000000000000000000000000000000000000000000000000000000000000000000000000000000000000000000000000000000000000000000000000000000000000000000000000000000000000000000000000000000000000000000000000000000000000000000000000000000000000000000000000000000000008302000001839896808302c3088203e880a06bdc03f4c7137fc6d9cb7b236a5ea34e79a2a14a60ac781937033a951ffad4cc88827fef012cd446d8f866f86480018302c30894a0000000000000000000000000000000000000000184c04062261ca08b2261fe602738d6853da8f1121679f6dc2286bef0fc235e67c2e537142a93faa026ba115a962be542d894ee59793cc9095557f7d1b82540cccbae35074c5f5af6c0",
                "transactions" : [
                    {
                        "data" : "0xc0406226",
                        "gasLimit" : "0x02c308",
                        "gasPrice" : "0x01",
                        "nonce" : "0x00",
                        "r" : "0x8b2261fe602738d6853da8f1121679f6dc2286bef0fc235e67c2e537142a93fa",
                        "s" : "0x26ba115a962be542d894ee59793cc9095557f7d1b82540cccbae35074c5f5af6",
                        "to" : "0xa000000000000000000000000000000000000000",
                        "v" : "0x1c",
                        "value" : "0x01"
                    }
                ],
                "uncleHeaders" : [
                ]
            }
        ],
        "genesisBlockHeader" : {
            "bloom" : "0x00000000000000000000000000000000000000000000000000000000000000000000000000000000000000000000000000000000000000000000000000000000000000000000000000000000000000000000000000000000000000000000000000000000000000000000000000000000000000000000000000000000000000000000000000000000000000000000000000000000000000000000000000000000000000000000000000000000000000000000000000000000000000000000000000000000000000000000000000000000000000000000000000000000000000000000000000000000000000000000000000000000000000000000000000000000",
            "coinbase" : "0x2adc25665018aa1fe0e6bc666dac8fc2697ff9ba",
            "difficulty" : "0x020000",
            "extraData" : "0x42",
            "gasLimit" : "0x989680",
            "gasUsed" : "0x00",
            "hash" : "0x38eca8f5e513e3f1622fde552380decf77ccf1ac9607d7ff85e4b17b0931d195",
            "mixHash" : "0x56e81f171bcc55a6ff8345e692c0f86e5b48e01b996cadc001622fb5e363b421",
            "nonce" : "0x0102030405060708",
            "number" : "0x00",
            "parentHash" : "0x0000000000000000000000000000000000000000000000000000000000000000",
            "receiptTrie" : "0x56e81f171bcc55a6ff8345e692c0f86e5b48e01b996cadc001622fb5e363b421",
            "stateRoot" : "0x3d0242656b55c4eefe20d9c3ae6d445a03334d6d60338dd7c2f9514a87468e3d",
            "timestamp" : "0x03b6",
            "transactionsTrie" : "0x56e81f171bcc55a6ff8345e692c0f86e5b48e01b996cadc001622fb5e363b421",
            "uncleHash" : "0x1dcc4de8dec75d7aab85b567b6ccd41ad312451b948a7413f0a142fd40d49347"
        },
        "genesisRLP" : "0xf901faf901f5a00000000000000000000000000000000000000000000000000000000000000000a01dcc4de8dec75d7aab85b567b6ccd41ad312451b948a7413f0a142fd40d49347942adc25665018aa1fe0e6bc666dac8fc2697ff9baa03d0242656b55c4eefe20d9c3ae6d445a03334d6d60338dd7c2f9514a87468e3da056e81f171bcc55a6ff8345e692c0f86e5b48e01b996cadc001622fb5e363b421a056e81f171bcc55a6ff8345e692c0f86e5b48e01b996cadc001622fb5e363b421b9010000000000000000000000000000000000000000000000000000000000000000000000000000000000000000000000000000000000000000000000000000000000000000000000000000000000000000000000000000000000000000000000000000000000000000000000000000000000000000000000000000000000000000000000000000000000000000000000000000000000000000000000000000000000000000000000000000000000000000000000000000000000000000000000000000000000000000000000000000000000000000000000000000000000000000000000000000000000000000000000000000000000000000000000000000000000830200008083989680808203b642a056e81f171bcc55a6ff8345e692c0f86e5b48e01b996cadc001622fb5e363b421880102030405060708c0c0",
        "lastblockhash" : "0x098bfee2577e1ab82632e31dd1fcaedeadc9f08b74d3147cc40bcf7048584a68",
        "network" : "Frontier",
        "postState" : {
            "0x2adc25665018aa1fe0e6bc666dac8fc2697ff9ba" : {
                "balance" : "0x4563918244f6c308",
                "code" : "",
                "nonce" : "0x00",
                "storage" : {
                }
            },
            "0xa000000000000000000000000000000000000000" : {
                "balance" : "0x01",
                "code" : "0x60606040526000357c0100000000000000000000000000000000000000000000000000000000900463ffffffff168063b28175c4146046578063c0406226146052575b6000565b3460005760506076565b005b34600057605c6081565b604051808215151515815260200191505060405180910390f35b600c6000819055505b565b600060896076565b600d600181905550600e600281905550600190505b905600a165627a7a723058202a8a75d7d795b5bcb9042fb18b283daa90b999a11ddec892f548732235342eb60029",
                "nonce" : "0x00",
                "storage" : {
                }
            },
            "0xa94f5374fce5edbc8e2a8697c15331677e6ebf0b" : {
                "balance" : "0xe8d4a24cf8",
                "code" : "",
                "nonce" : "0x01",
                "storage" : {
                }
            }
        },
        "pre" : {
            "0xa000000000000000000000000000000000000000" : {
                "balance" : "0x01",
                "code" : "0x60606040526000357c0100000000000000000000000000000000000000000000000000000000900463ffffffff168063b28175c4146046578063c0406226146052575b6000565b3460005760506076565b005b34600057605c6081565b604051808215151515815260200191505060405180910390f35b600c6000819055505b565b600060896076565b600d600181905550600e600281905550600190505b905600a165627a7a723058202a8a75d7d795b5bcb9042fb18b283daa90b999a11ddec892f548732235342eb60029",
                "nonce" : "0x00",
                "storage" : {
                }
            },
            "0xa94f5374fce5edbc8e2a8697c15331677e6ebf0b" : {
                "balance" : "0xe8d4a51000",
                "code" : "",
                "nonce" : "0x00",
                "storage" : {
                }
            }
        }
    },
    "RevertSubCallStorageOOG_d0g1v1_Homestead" : {
        "_info" : {
            "comment" : "",
            "filledwith" : "cpp-1.3.0+commit.6e0ce939.Linux.g++",
            "lllcversion" : "Version: 0.4.18-develop.2017.9.25+commit.a72237f2.Linux.g++",
            "source" : "src/BlockchainTestsFiller/GeneralStateTests/stRevertTest/RevertSubCallStorageOOG_d0g1v1Filler.json",
            "sourceHash" : "ac8f7f8a6a285748d9a0170f70aff2240c7ccb1c8522d3db4926bbf4e82f1126"
        },
        "blocks" : [
            {
                "blockHeader" : {
                    "bloom" : "0x00000000000000000000000000000000000000000000000000000000000000000000000000000000000000000000000000000000000000000000000000000000000000000000000000000000000000000000000000000000000000000000000000000000000000000000000000000000000000000000000000000000000000000000000000000000000000000000000000000000000000000000000000000000000000000000000000000000000000000000000000000000000000000000000000000000000000000000000000000000000000000000000000000000000000000000000000000000000000000000000000000000000000000000000000000000",
                    "coinbase" : "0x2adc25665018aa1fe0e6bc666dac8fc2697ff9ba",
                    "difficulty" : "0x020000",
                    "extraData" : "",
                    "gasLimit" : "0x989680",
                    "gasUsed" : "0x02c308",
                    "hash" : "0xc53d0e3573467167adf55c074b8491ba7517dcec3a429d72f83fe1e76a5074ca",
                    "mixHash" : "0x1ad1aa79d7e56c35730320f97a46c0c102d9908f0b1367eaa5c3e15b8e875da4",
                    "nonce" : "0x592556ab5f30a0d0",
                    "number" : "0x01",
                    "parentHash" : "0x38eca8f5e513e3f1622fde552380decf77ccf1ac9607d7ff85e4b17b0931d195",
                    "receiptTrie" : "0x5cd3acb5eb76fc9b8080fb617dbfbd6dc1a760631f142f5c687fd0455559c196",
                    "stateRoot" : "0x1ffcda6b66d61dbb242a4b582658c740bcc897357210c3d1928a7cc69a58b9a8",
                    "timestamp" : "0x03e8",
                    "transactionsTrie" : "0xb415bd35fe0e64413510fc89329f197ae0eb68df955145ac5f97a2eb5f025b95",
                    "uncleHash" : "0x1dcc4de8dec75d7aab85b567b6ccd41ad312451b948a7413f0a142fd40d49347"
                },
                "rlp" : "0xf90264f901f8a038eca8f5e513e3f1622fde552380decf77ccf1ac9607d7ff85e4b17b0931d195a01dcc4de8dec75d7aab85b567b6ccd41ad312451b948a7413f0a142fd40d49347942adc25665018aa1fe0e6bc666dac8fc2697ff9baa01ffcda6b66d61dbb242a4b582658c740bcc897357210c3d1928a7cc69a58b9a8a0b415bd35fe0e64413510fc89329f197ae0eb68df955145ac5f97a2eb5f025b95a05cd3acb5eb76fc9b8080fb617dbfbd6dc1a760631f142f5c687fd0455559c196b90100000000000000000000000000000000000000000000000000000000000000000000000000000000000000000000000000000000000000000000000000000000000000000000000000000000000000000000000000000000000000000000000000000000000000000000000000000000000000000000000000000000000000000000000000000000000000000000000000000000000000000000000000000000000000000000000000000000000000000000000000000000000000000000000000000000000000000000000000000000000000000000000000000000000000000000000000000000000000000000000000000000000000000000000000000000008302000001839896808302c3088203e880a01ad1aa79d7e56c35730320f97a46c0c102d9908f0b1367eaa5c3e15b8e875da488592556ab5f30a0d0f866f86480018302c30894a0000000000000000000000000000000000000000184c04062261ca08b2261fe602738d6853da8f1121679f6dc2286bef0fc235e67c2e537142a93faa026ba115a962be542d894ee59793cc9095557f7d1b82540cccbae35074c5f5af6c0",
                "transactions" : [
                    {
                        "data" : "0xc0406226",
                        "gasLimit" : "0x02c308",
                        "gasPrice" : "0x01",
                        "nonce" : "0x00",
                        "r" : "0x8b2261fe602738d6853da8f1121679f6dc2286bef0fc235e67c2e537142a93fa",
                        "s" : "0x26ba115a962be542d894ee59793cc9095557f7d1b82540cccbae35074c5f5af6",
                        "to" : "0xa000000000000000000000000000000000000000",
                        "v" : "0x1c",
                        "value" : "0x01"
                    }
                ],
                "uncleHeaders" : [
                ]
            }
        ],
        "genesisBlockHeader" : {
            "bloom" : "0x00000000000000000000000000000000000000000000000000000000000000000000000000000000000000000000000000000000000000000000000000000000000000000000000000000000000000000000000000000000000000000000000000000000000000000000000000000000000000000000000000000000000000000000000000000000000000000000000000000000000000000000000000000000000000000000000000000000000000000000000000000000000000000000000000000000000000000000000000000000000000000000000000000000000000000000000000000000000000000000000000000000000000000000000000000000",
            "coinbase" : "0x2adc25665018aa1fe0e6bc666dac8fc2697ff9ba",
            "difficulty" : "0x020000",
            "extraData" : "0x42",
            "gasLimit" : "0x989680",
            "gasUsed" : "0x00",
            "hash" : "0x38eca8f5e513e3f1622fde552380decf77ccf1ac9607d7ff85e4b17b0931d195",
            "mixHash" : "0x56e81f171bcc55a6ff8345e692c0f86e5b48e01b996cadc001622fb5e363b421",
            "nonce" : "0x0102030405060708",
            "number" : "0x00",
            "parentHash" : "0x0000000000000000000000000000000000000000000000000000000000000000",
            "receiptTrie" : "0x56e81f171bcc55a6ff8345e692c0f86e5b48e01b996cadc001622fb5e363b421",
            "stateRoot" : "0x3d0242656b55c4eefe20d9c3ae6d445a03334d6d60338dd7c2f9514a87468e3d",
            "timestamp" : "0x03b6",
            "transactionsTrie" : "0x56e81f171bcc55a6ff8345e692c0f86e5b48e01b996cadc001622fb5e363b421",
            "uncleHash" : "0x1dcc4de8dec75d7aab85b567b6ccd41ad312451b948a7413f0a142fd40d49347"
        },
        "genesisRLP" : "0xf901faf901f5a00000000000000000000000000000000000000000000000000000000000000000a01dcc4de8dec75d7aab85b567b6ccd41ad312451b948a7413f0a142fd40d49347942adc25665018aa1fe0e6bc666dac8fc2697ff9baa03d0242656b55c4eefe20d9c3ae6d445a03334d6d60338dd7c2f9514a87468e3da056e81f171bcc55a6ff8345e692c0f86e5b48e01b996cadc001622fb5e363b421a056e81f171bcc55a6ff8345e692c0f86e5b48e01b996cadc001622fb5e363b421b9010000000000000000000000000000000000000000000000000000000000000000000000000000000000000000000000000000000000000000000000000000000000000000000000000000000000000000000000000000000000000000000000000000000000000000000000000000000000000000000000000000000000000000000000000000000000000000000000000000000000000000000000000000000000000000000000000000000000000000000000000000000000000000000000000000000000000000000000000000000000000000000000000000000000000000000000000000000000000000000000000000000000000000000000000000000000830200008083989680808203b642a056e81f171bcc55a6ff8345e692c0f86e5b48e01b996cadc001622fb5e363b421880102030405060708c0c0",
        "lastblockhash" : "0xc53d0e3573467167adf55c074b8491ba7517dcec3a429d72f83fe1e76a5074ca",
        "network" : "Homestead",
        "postState" : {
            "0x2adc25665018aa1fe0e6bc666dac8fc2697ff9ba" : {
                "balance" : "0x4563918244f6c308",
                "code" : "",
                "nonce" : "0x00",
                "storage" : {
                }
            },
            "0xa000000000000000000000000000000000000000" : {
                "balance" : "0x01",
                "code" : "0x60606040526000357c0100000000000000000000000000000000000000000000000000000000900463ffffffff168063b28175c4146046578063c0406226146052575b6000565b3460005760506076565b005b34600057605c6081565b604051808215151515815260200191505060405180910390f35b600c6000819055505b565b600060896076565b600d600181905550600e600281905550600190505b905600a165627a7a723058202a8a75d7d795b5bcb9042fb18b283daa90b999a11ddec892f548732235342eb60029",
                "nonce" : "0x00",
                "storage" : {
                }
            },
            "0xa94f5374fce5edbc8e2a8697c15331677e6ebf0b" : {
                "balance" : "0xe8d4a24cf8",
                "code" : "",
                "nonce" : "0x01",
                "storage" : {
                }
            }
        },
        "pre" : {
            "0xa000000000000000000000000000000000000000" : {
                "balance" : "0x01",
                "code" : "0x60606040526000357c0100000000000000000000000000000000000000000000000000000000900463ffffffff168063b28175c4146046578063c0406226146052575b6000565b3460005760506076565b005b34600057605c6081565b604051808215151515815260200191505060405180910390f35b600c6000819055505b565b600060896076565b600d600181905550600e600281905550600190505b905600a165627a7a723058202a8a75d7d795b5bcb9042fb18b283daa90b999a11ddec892f548732235342eb60029",
                "nonce" : "0x00",
                "storage" : {
                }
            },
            "0xa94f5374fce5edbc8e2a8697c15331677e6ebf0b" : {
                "balance" : "0xe8d4a51000",
                "code" : "",
                "nonce" : "0x00",
                "storage" : {
                }
            }
        }
    }
}