{
    "RevertOpcode_d0g1v0_Byzantium" : {
        "_info" : {
            "comment" : "",
            "filledwith" : "cpp-1.3.0+commit.6e0ce939.Linux.g++",
            "lllcversion" : "Version: 0.4.18-develop.2017.9.25+commit.a72237f2.Linux.g++",
            "source" : "src/BlockchainTestsFiller/GeneralStateTests/stRevertTest/RevertOpcode_d0g1v0Filler.json",
            "sourceHash" : "c2b58810ac500308dbcf38a7e19874e4787169d6d6482444ead02fefb71bef98"
        },
        "blocks" : [
            {
                "blockHeader" : {
                    "bloom" : "0x00000000000000000000000000000000000000000000000000000000000000000000000000000000000000000000000000000000000000000000000000000000000000000000000000000000000000000000000000000000000000000000000000000000000000000000000000000000000000000000000000000000000000000000000000000000000000000000000000000000000000000000000000000000000000000000000000000000000000000000000000000000000000000000000000000000000000000000000000000000000000000000000000000000000000000000000000000000000000000000000000000000000000000000000000000000",
                    "coinbase" : "0x2adc25665018aa1fe0e6bc666dac8fc2697ff9ba",
                    "difficulty" : "0x020000",
                    "extraData" : "",
                    "gasLimit" : "0x989680",
                    "gasUsed" : "0x7530",
                    "hash" : "0x6fdeab7a58eab5385a71c0fad465f38c5b450a05236155eacb08e1e7da13f828",
                    "mixHash" : "0x523d3dcb1070950182872cab90ef58eb1399875bfbf385429e5d041353836dd0",
                    "nonce" : "0xd7703c5ca597cdaa",
                    "number" : "0x01",
                    "parentHash" : "0xa6c854682c8d7fcab780f81abfbf3e260b07d83426da6387e3c8e2931943309e",
                    "receiptTrie" : "0x534bc8a8ee133a0149a231d40d07e2c48f12f5efa5a83b4384664950ad49de0b",
                    "stateRoot" : "0x034bafcfb2eebea2be372cbdd4015cd62577e53b56ce05a858dba01213f3622f",
                    "timestamp" : "0x03e8",
                    "transactionsTrie" : "0x2d85f180dcd01c3fb7c40b26ed72d5f20e662d0e891199aed5506760daae5e01",
                    "uncleHash" : "0x1dcc4de8dec75d7aab85b567b6ccd41ad312451b948a7413f0a142fd40d49347"
                },
                "rlp" : "0xf9025ef901f7a0a6c854682c8d7fcab780f81abfbf3e260b07d83426da6387e3c8e2931943309ea01dcc4de8dec75d7aab85b567b6ccd41ad312451b948a7413f0a142fd40d49347942adc25665018aa1fe0e6bc666dac8fc2697ff9baa0034bafcfb2eebea2be372cbdd4015cd62577e53b56ce05a858dba01213f3622fa02d85f180dcd01c3fb7c40b26ed72d5f20e662d0e891199aed5506760daae5e01a0534bc8a8ee133a0149a231d40d07e2c48f12f5efa5a83b4384664950ad49de0bb90100000000000000000000000000000000000000000000000000000000000000000000000000000000000000000000000000000000000000000000000000000000000000000000000000000000000000000000000000000000000000000000000000000000000000000000000000000000000000000000000000000000000000000000000000000000000000000000000000000000000000000000000000000000000000000000000000000000000000000000000000000000000000000000000000000000000000000000000000000000000000000000000000000000000000000000000000000000000000000000000000000000000000000000000000000000008302000001839896808275308203e880a0523d3dcb1070950182872cab90ef58eb1399875bfbf385429e5d041353836dd088d7703c5ca597cdaaf861f85f800182753094a00000000000000000000000000000000000000080801ca095b7fdc6fa09d3b0a1678840677f22e16fb269bf17575bee54e256a698d6a16ba050ab0cf1ebcc5652f053095b3a01dd36256f9f8b2210b7cf318bfdbd2782d2fbc0",
                "transactions" : [
                    {
                        "data" : "",
                        "gasLimit" : "0x7530",
                        "gasPrice" : "0x01",
                        "nonce" : "0x00",
                        "r" : "0x95b7fdc6fa09d3b0a1678840677f22e16fb269bf17575bee54e256a698d6a16b",
                        "s" : "0x50ab0cf1ebcc5652f053095b3a01dd36256f9f8b2210b7cf318bfdbd2782d2fb",
                        "to" : "0xa000000000000000000000000000000000000000",
                        "v" : "0x1c",
                        "value" : "0x00"
                    }
                ],
                "uncleHeaders" : [
                ]
            }
        ],
        "genesisBlockHeader" : {
            "bloom" : "0x00000000000000000000000000000000000000000000000000000000000000000000000000000000000000000000000000000000000000000000000000000000000000000000000000000000000000000000000000000000000000000000000000000000000000000000000000000000000000000000000000000000000000000000000000000000000000000000000000000000000000000000000000000000000000000000000000000000000000000000000000000000000000000000000000000000000000000000000000000000000000000000000000000000000000000000000000000000000000000000000000000000000000000000000000000000",
            "coinbase" : "0x2adc25665018aa1fe0e6bc666dac8fc2697ff9ba",
            "difficulty" : "0x020000",
            "extraData" : "0x42",
            "gasLimit" : "0x989680",
            "gasUsed" : "0x00",
            "hash" : "0xa6c854682c8d7fcab780f81abfbf3e260b07d83426da6387e3c8e2931943309e",
            "mixHash" : "0x56e81f171bcc55a6ff8345e692c0f86e5b48e01b996cadc001622fb5e363b421",
            "nonce" : "0x0102030405060708",
            "number" : "0x00",
            "parentHash" : "0x0000000000000000000000000000000000000000000000000000000000000000",
            "receiptTrie" : "0x56e81f171bcc55a6ff8345e692c0f86e5b48e01b996cadc001622fb5e363b421",
            "stateRoot" : "0x860258f673d0e6520d540eac5ce7c862a205956598d8a614db8898c8be051e9f",
            "timestamp" : "0x03b6",
            "transactionsTrie" : "0x56e81f171bcc55a6ff8345e692c0f86e5b48e01b996cadc001622fb5e363b421",
            "uncleHash" : "0x1dcc4de8dec75d7aab85b567b6ccd41ad312451b948a7413f0a142fd40d49347"
        },
        "genesisRLP" : "0xf901faf901f5a00000000000000000000000000000000000000000000000000000000000000000a01dcc4de8dec75d7aab85b567b6ccd41ad312451b948a7413f0a142fd40d49347942adc25665018aa1fe0e6bc666dac8fc2697ff9baa0860258f673d0e6520d540eac5ce7c862a205956598d8a614db8898c8be051e9fa056e81f171bcc55a6ff8345e692c0f86e5b48e01b996cadc001622fb5e363b421a056e81f171bcc55a6ff8345e692c0f86e5b48e01b996cadc001622fb5e363b421b9010000000000000000000000000000000000000000000000000000000000000000000000000000000000000000000000000000000000000000000000000000000000000000000000000000000000000000000000000000000000000000000000000000000000000000000000000000000000000000000000000000000000000000000000000000000000000000000000000000000000000000000000000000000000000000000000000000000000000000000000000000000000000000000000000000000000000000000000000000000000000000000000000000000000000000000000000000000000000000000000000000000000000000000000000000000000830200008083989680808203b642a056e81f171bcc55a6ff8345e692c0f86e5b48e01b996cadc001622fb5e363b421880102030405060708c0c0",
        "lastblockhash" : "0x6fdeab7a58eab5385a71c0fad465f38c5b450a05236155eacb08e1e7da13f828",
        "network" : "Byzantium",
        "postState" : {
            "0x2adc25665018aa1fe0e6bc666dac8fc2697ff9ba" : {
                "balance" : "0x29a2241af62c7530",
                "code" : "",
                "nonce" : "0x00",
                "storage" : {
                }
            },
            "0xa000000000000000000000000000000000000000" : {
                "balance" : "0x00",
                "code" : "0x600160005560016000fd6011600155",
                "nonce" : "0x00",
                "storage" : {
                }
            },
            "0xa94f5374fce5edbc8e2a8697c15331677e6ebf0b" : {
                "balance" : "0xe8d4a49ad0",
                "code" : "",
                "nonce" : "0x01",
                "storage" : {
                }
            }
        },
        "pre" : {
            "0xa000000000000000000000000000000000000000" : {
                "balance" : "0x00",
                "code" : "0x600160005560016000fd6011600155",
                "nonce" : "0x00",
                "storage" : {
                }
            },
            "0xa94f5374fce5edbc8e2a8697c15331677e6ebf0b" : {
                "balance" : "0xe8d4a51000",
                "code" : "",
                "nonce" : "0x00",
                "storage" : {
                }
            }
        }
    },
    "RevertOpcode_d0g1v0_EIP150" : {
        "_info" : {
            "comment" : "",
            "filledwith" : "cpp-1.3.0+commit.6e0ce939.Linux.g++",
            "lllcversion" : "Version: 0.4.18-develop.2017.9.25+commit.a72237f2.Linux.g++",
            "source" : "src/BlockchainTestsFiller/GeneralStateTests/stRevertTest/RevertOpcode_d0g1v0Filler.json",
            "sourceHash" : "c2b58810ac500308dbcf38a7e19874e4787169d6d6482444ead02fefb71bef98"
        },
        "blocks" : [
            {
                "blockHeader" : {
                    "bloom" : "0x00000000000000000000000000000000000000000000000000000000000000000000000000000000000000000000000000000000000000000000000000000000000000000000000000000000000000000000000000000000000000000000000000000000000000000000000000000000000000000000000000000000000000000000000000000000000000000000000000000000000000000000000000000000000000000000000000000000000000000000000000000000000000000000000000000000000000000000000000000000000000000000000000000000000000000000000000000000000000000000000000000000000000000000000000000000",
                    "coinbase" : "0x2adc25665018aa1fe0e6bc666dac8fc2697ff9ba",
                    "difficulty" : "0x020000",
                    "extraData" : "",
                    "gasLimit" : "0x989680",
                    "gasUsed" : "0x7530",
                    "hash" : "0x79e2beb4d6ea23c30f14bbc083fd43af6d331aca75b45c0a2146a9a74dc91948",
                    "mixHash" : "0x04a9e7ee068c4f87282fae1eaa45191a09e031940da01bb800dad6320d104822",
                    "nonce" : "0x03fc0f7bc0586056",
                    "number" : "0x01",
                    "parentHash" : "0xa6c854682c8d7fcab780f81abfbf3e260b07d83426da6387e3c8e2931943309e",
                    "receiptTrie" : "0x286199aa8d9dee68fa3740dd84e6e526389ad7bf9d0d621d06bdb35cfa2c119e",
                    "stateRoot" : "0x1dc0b8c728d656ce6633e47889ebdc8bf106f776690417e06df0cce1d04dc5a9",
                    "timestamp" : "0x03e8",
                    "transactionsTrie" : "0x2d85f180dcd01c3fb7c40b26ed72d5f20e662d0e891199aed5506760daae5e01",
                    "uncleHash" : "0x1dcc4de8dec75d7aab85b567b6ccd41ad312451b948a7413f0a142fd40d49347"
                },
                "rlp" : "0xf9025ef901f7a0a6c854682c8d7fcab780f81abfbf3e260b07d83426da6387e3c8e2931943309ea01dcc4de8dec75d7aab85b567b6ccd41ad312451b948a7413f0a142fd40d49347942adc25665018aa1fe0e6bc666dac8fc2697ff9baa01dc0b8c728d656ce6633e47889ebdc8bf106f776690417e06df0cce1d04dc5a9a02d85f180dcd01c3fb7c40b26ed72d5f20e662d0e891199aed5506760daae5e01a0286199aa8d9dee68fa3740dd84e6e526389ad7bf9d0d621d06bdb35cfa2c119eb90100000000000000000000000000000000000000000000000000000000000000000000000000000000000000000000000000000000000000000000000000000000000000000000000000000000000000000000000000000000000000000000000000000000000000000000000000000000000000000000000000000000000000000000000000000000000000000000000000000000000000000000000000000000000000000000000000000000000000000000000000000000000000000000000000000000000000000000000000000000000000000000000000000000000000000000000000000000000000000000000000000000000000000000000000000000008302000001839896808275308203e880a004a9e7ee068c4f87282fae1eaa45191a09e031940da01bb800dad6320d1048228803fc0f7bc0586056f861f85f800182753094a00000000000000000000000000000000000000080801ca095b7fdc6fa09d3b0a1678840677f22e16fb269bf17575bee54e256a698d6a16ba050ab0cf1ebcc5652f053095b3a01dd36256f9f8b2210b7cf318bfdbd2782d2fbc0",
                "transactions" : [
                    {
                        "data" : "",
                        "gasLimit" : "0x7530",
                        "gasPrice" : "0x01",
                        "nonce" : "0x00",
                        "r" : "0x95b7fdc6fa09d3b0a1678840677f22e16fb269bf17575bee54e256a698d6a16b",
                        "s" : "0x50ab0cf1ebcc5652f053095b3a01dd36256f9f8b2210b7cf318bfdbd2782d2fb",
                        "to" : "0xa000000000000000000000000000000000000000",
                        "v" : "0x1c",
                        "value" : "0x00"
                    }
                ],
                "uncleHeaders" : [
                ]
            }
        ],
        "genesisBlockHeader" : {
            "bloom" : "0x00000000000000000000000000000000000000000000000000000000000000000000000000000000000000000000000000000000000000000000000000000000000000000000000000000000000000000000000000000000000000000000000000000000000000000000000000000000000000000000000000000000000000000000000000000000000000000000000000000000000000000000000000000000000000000000000000000000000000000000000000000000000000000000000000000000000000000000000000000000000000000000000000000000000000000000000000000000000000000000000000000000000000000000000000000000",
            "coinbase" : "0x2adc25665018aa1fe0e6bc666dac8fc2697ff9ba",
            "difficulty" : "0x020000",
            "extraData" : "0x42",
            "gasLimit" : "0x989680",
            "gasUsed" : "0x00",
            "hash" : "0xa6c854682c8d7fcab780f81abfbf3e260b07d83426da6387e3c8e2931943309e",
            "mixHash" : "0x56e81f171bcc55a6ff8345e692c0f86e5b48e01b996cadc001622fb5e363b421",
            "nonce" : "0x0102030405060708",
            "number" : "0x00",
            "parentHash" : "0x0000000000000000000000000000000000000000000000000000000000000000",
            "receiptTrie" : "0x56e81f171bcc55a6ff8345e692c0f86e5b48e01b996cadc001622fb5e363b421",
            "stateRoot" : "0x860258f673d0e6520d540eac5ce7c862a205956598d8a614db8898c8be051e9f",
            "timestamp" : "0x03b6",
            "transactionsTrie" : "0x56e81f171bcc55a6ff8345e692c0f86e5b48e01b996cadc001622fb5e363b421",
            "uncleHash" : "0x1dcc4de8dec75d7aab85b567b6ccd41ad312451b948a7413f0a142fd40d49347"
        },
        "genesisRLP" : "0xf901faf901f5a00000000000000000000000000000000000000000000000000000000000000000a01dcc4de8dec75d7aab85b567b6ccd41ad312451b948a7413f0a142fd40d49347942adc25665018aa1fe0e6bc666dac8fc2697ff9baa0860258f673d0e6520d540eac5ce7c862a205956598d8a614db8898c8be051e9fa056e81f171bcc55a6ff8345e692c0f86e5b48e01b996cadc001622fb5e363b421a056e81f171bcc55a6ff8345e692c0f86e5b48e01b996cadc001622fb5e363b421b9010000000000000000000000000000000000000000000000000000000000000000000000000000000000000000000000000000000000000000000000000000000000000000000000000000000000000000000000000000000000000000000000000000000000000000000000000000000000000000000000000000000000000000000000000000000000000000000000000000000000000000000000000000000000000000000000000000000000000000000000000000000000000000000000000000000000000000000000000000000000000000000000000000000000000000000000000000000000000000000000000000000000000000000000000000000000830200008083989680808203b642a056e81f171bcc55a6ff8345e692c0f86e5b48e01b996cadc001622fb5e363b421880102030405060708c0c0",
        "lastblockhash" : "0x79e2beb4d6ea23c30f14bbc083fd43af6d331aca75b45c0a2146a9a74dc91948",
        "network" : "EIP150",
        "postState" : {
            "0x2adc25665018aa1fe0e6bc666dac8fc2697ff9ba" : {
                "balance" : "0x4563918244f47530",
                "code" : "",
                "nonce" : "0x00",
                "storage" : {
                }
            },
            "0xa000000000000000000000000000000000000000" : {
                "balance" : "0x00",
                "code" : "0x600160005560016000fd6011600155",
                "nonce" : "0x00",
                "storage" : {
                }
            },
            "0xa94f5374fce5edbc8e2a8697c15331677e6ebf0b" : {
                "balance" : "0xe8d4a49ad0",
                "code" : "",
                "nonce" : "0x01",
                "storage" : {
                }
            }
        },
        "pre" : {
            "0xa000000000000000000000000000000000000000" : {
                "balance" : "0x00",
                "code" : "0x600160005560016000fd6011600155",
                "nonce" : "0x00",
                "storage" : {
                }
            },
            "0xa94f5374fce5edbc8e2a8697c15331677e6ebf0b" : {
                "balance" : "0xe8d4a51000",
                "code" : "",
                "nonce" : "0x00",
                "storage" : {
                }
            }
        }
    },
    "RevertOpcode_d0g1v0_EIP158" : {
        "_info" : {
            "comment" : "",
            "filledwith" : "cpp-1.3.0+commit.6e0ce939.Linux.g++",
            "lllcversion" : "Version: 0.4.18-develop.2017.9.25+commit.a72237f2.Linux.g++",
            "source" : "src/BlockchainTestsFiller/GeneralStateTests/stRevertTest/RevertOpcode_d0g1v0Filler.json",
            "sourceHash" : "c2b58810ac500308dbcf38a7e19874e4787169d6d6482444ead02fefb71bef98"
        },
        "blocks" : [
            {
                "blockHeader" : {
                    "bloom" : "0x00000000000000000000000000000000000000000000000000000000000000000000000000000000000000000000000000000000000000000000000000000000000000000000000000000000000000000000000000000000000000000000000000000000000000000000000000000000000000000000000000000000000000000000000000000000000000000000000000000000000000000000000000000000000000000000000000000000000000000000000000000000000000000000000000000000000000000000000000000000000000000000000000000000000000000000000000000000000000000000000000000000000000000000000000000000",
                    "coinbase" : "0x2adc25665018aa1fe0e6bc666dac8fc2697ff9ba",
                    "difficulty" : "0x020000",
                    "extraData" : "",
                    "gasLimit" : "0x989680",
                    "gasUsed" : "0x7530",
                    "hash" : "0xf2287b8e41e069d21508784bcd80aa05e9fe80f6b0535b5a86aba7e38a488fab",
                    "mixHash" : "0x82f9d778402c6c6ebdc23881ee0888b7778c9e283ce52810f851f07f4d7ce2c1",
                    "nonce" : "0xc2b857fb2ce83582",
                    "number" : "0x01",
                    "parentHash" : "0xa6c854682c8d7fcab780f81abfbf3e260b07d83426da6387e3c8e2931943309e",
                    "receiptTrie" : "0x286199aa8d9dee68fa3740dd84e6e526389ad7bf9d0d621d06bdb35cfa2c119e",
                    "stateRoot" : "0x1dc0b8c728d656ce6633e47889ebdc8bf106f776690417e06df0cce1d04dc5a9",
                    "timestamp" : "0x03e8",
                    "transactionsTrie" : "0x2d85f180dcd01c3fb7c40b26ed72d5f20e662d0e891199aed5506760daae5e01",
                    "uncleHash" : "0x1dcc4de8dec75d7aab85b567b6ccd41ad312451b948a7413f0a142fd40d49347"
                },
                "rlp" : "0xf9025ef901f7a0a6c854682c8d7fcab780f81abfbf3e260b07d83426da6387e3c8e2931943309ea01dcc4de8dec75d7aab85b567b6ccd41ad312451b948a7413f0a142fd40d49347942adc25665018aa1fe0e6bc666dac8fc2697ff9baa01dc0b8c728d656ce6633e47889ebdc8bf106f776690417e06df0cce1d04dc5a9a02d85f180dcd01c3fb7c40b26ed72d5f20e662d0e891199aed5506760daae5e01a0286199aa8d9dee68fa3740dd84e6e526389ad7bf9d0d621d06bdb35cfa2c119eb90100000000000000000000000000000000000000000000000000000000000000000000000000000000000000000000000000000000000000000000000000000000000000000000000000000000000000000000000000000000000000000000000000000000000000000000000000000000000000000000000000000000000000000000000000000000000000000000000000000000000000000000000000000000000000000000000000000000000000000000000000000000000000000000000000000000000000000000000000000000000000000000000000000000000000000000000000000000000000000000000000000000000000000000000000000000008302000001839896808275308203e880a082f9d778402c6c6ebdc23881ee0888b7778c9e283ce52810f851f07f4d7ce2c188c2b857fb2ce83582f861f85f800182753094a00000000000000000000000000000000000000080801ca095b7fdc6fa09d3b0a1678840677f22e16fb269bf17575bee54e256a698d6a16ba050ab0cf1ebcc5652f053095b3a01dd36256f9f8b2210b7cf318bfdbd2782d2fbc0",
                "transactions" : [
                    {
                        "data" : "",
                        "gasLimit" : "0x7530",
                        "gasPrice" : "0x01",
                        "nonce" : "0x00",
                        "r" : "0x95b7fdc6fa09d3b0a1678840677f22e16fb269bf17575bee54e256a698d6a16b",
                        "s" : "0x50ab0cf1ebcc5652f053095b3a01dd36256f9f8b2210b7cf318bfdbd2782d2fb",
                        "to" : "0xa000000000000000000000000000000000000000",
                        "v" : "0x1c",
                        "value" : "0x00"
                    }
                ],
                "uncleHeaders" : [
                ]
            }
        ],
        "genesisBlockHeader" : {
            "bloom" : "0x00000000000000000000000000000000000000000000000000000000000000000000000000000000000000000000000000000000000000000000000000000000000000000000000000000000000000000000000000000000000000000000000000000000000000000000000000000000000000000000000000000000000000000000000000000000000000000000000000000000000000000000000000000000000000000000000000000000000000000000000000000000000000000000000000000000000000000000000000000000000000000000000000000000000000000000000000000000000000000000000000000000000000000000000000000000",
            "coinbase" : "0x2adc25665018aa1fe0e6bc666dac8fc2697ff9ba",
            "difficulty" : "0x020000",
            "extraData" : "0x42",
            "gasLimit" : "0x989680",
            "gasUsed" : "0x00",
            "hash" : "0xa6c854682c8d7fcab780f81abfbf3e260b07d83426da6387e3c8e2931943309e",
            "mixHash" : "0x56e81f171bcc55a6ff8345e692c0f86e5b48e01b996cadc001622fb5e363b421",
            "nonce" : "0x0102030405060708",
            "number" : "0x00",
            "parentHash" : "0x0000000000000000000000000000000000000000000000000000000000000000",
            "receiptTrie" : "0x56e81f171bcc55a6ff8345e692c0f86e5b48e01b996cadc001622fb5e363b421",
            "stateRoot" : "0x860258f673d0e6520d540eac5ce7c862a205956598d8a614db8898c8be051e9f",
            "timestamp" : "0x03b6",
            "transactionsTrie" : "0x56e81f171bcc55a6ff8345e692c0f86e5b48e01b996cadc001622fb5e363b421",
            "uncleHash" : "0x1dcc4de8dec75d7aab85b567b6ccd41ad312451b948a7413f0a142fd40d49347"
        },
        "genesisRLP" : "0xf901faf901f5a00000000000000000000000000000000000000000000000000000000000000000a01dcc4de8dec75d7aab85b567b6ccd41ad312451b948a7413f0a142fd40d49347942adc25665018aa1fe0e6bc666dac8fc2697ff9baa0860258f673d0e6520d540eac5ce7c862a205956598d8a614db8898c8be051e9fa056e81f171bcc55a6ff8345e692c0f86e5b48e01b996cadc001622fb5e363b421a056e81f171bcc55a6ff8345e692c0f86e5b48e01b996cadc001622fb5e363b421b9010000000000000000000000000000000000000000000000000000000000000000000000000000000000000000000000000000000000000000000000000000000000000000000000000000000000000000000000000000000000000000000000000000000000000000000000000000000000000000000000000000000000000000000000000000000000000000000000000000000000000000000000000000000000000000000000000000000000000000000000000000000000000000000000000000000000000000000000000000000000000000000000000000000000000000000000000000000000000000000000000000000000000000000000000000000000830200008083989680808203b642a056e81f171bcc55a6ff8345e692c0f86e5b48e01b996cadc001622fb5e363b421880102030405060708c0c0",
        "lastblockhash" : "0xf2287b8e41e069d21508784bcd80aa05e9fe80f6b0535b5a86aba7e38a488fab",
        "network" : "EIP158",
        "postState" : {
            "0x2adc25665018aa1fe0e6bc666dac8fc2697ff9ba" : {
                "balance" : "0x4563918244f47530",
                "code" : "",
                "nonce" : "0x00",
                "storage" : {
                }
            },
            "0xa000000000000000000000000000000000000000" : {
                "balance" : "0x00",
                "code" : "0x600160005560016000fd6011600155",
                "nonce" : "0x00",
                "storage" : {
                }
            },
            "0xa94f5374fce5edbc8e2a8697c15331677e6ebf0b" : {
                "balance" : "0xe8d4a49ad0",
                "code" : "",
                "nonce" : "0x01",
                "storage" : {
                }
            }
        },
        "pre" : {
            "0xa000000000000000000000000000000000000000" : {
                "balance" : "0x00",
                "code" : "0x600160005560016000fd6011600155",
                "nonce" : "0x00",
                "storage" : {
                }
            },
            "0xa94f5374fce5edbc8e2a8697c15331677e6ebf0b" : {
                "balance" : "0xe8d4a51000",
                "code" : "",
                "nonce" : "0x00",
                "storage" : {
                }
            }
        }
    },
    "RevertOpcode_d0g1v0_Frontier" : {
        "_info" : {
            "comment" : "",
            "filledwith" : "cpp-1.3.0+commit.6e0ce939.Linux.g++",
            "lllcversion" : "Version: 0.4.18-develop.2017.9.25+commit.a72237f2.Linux.g++",
            "source" : "src/BlockchainTestsFiller/GeneralStateTests/stRevertTest/RevertOpcode_d0g1v0Filler.json",
            "sourceHash" : "c2b58810ac500308dbcf38a7e19874e4787169d6d6482444ead02fefb71bef98"
        },
        "blocks" : [
            {
                "blockHeader" : {
                    "bloom" : "0x00000000000000000000000000000000000000000000000000000000000000000000000000000000000000000000000000000000000000000000000000000000000000000000000000000000000000000000000000000000000000000000000000000000000000000000000000000000000000000000000000000000000000000000000000000000000000000000000000000000000000000000000000000000000000000000000000000000000000000000000000000000000000000000000000000000000000000000000000000000000000000000000000000000000000000000000000000000000000000000000000000000000000000000000000000000",
                    "coinbase" : "0x2adc25665018aa1fe0e6bc666dac8fc2697ff9ba",
                    "difficulty" : "0x020000",
                    "extraData" : "",
                    "gasLimit" : "0x989680",
                    "gasUsed" : "0x7530",
                    "hash" : "0xc2ff8e9a24bbb52c2d677190b1f5db663e1b5005a64c6706f0d269e79a30a37c",
                    "mixHash" : "0x03ff008990ca3ac1d6ba35aa8d2409ed1ef93d8bd9f8165a91fb9599708ee3c3",
                    "nonce" : "0x194c57aa14ea30cd",
                    "number" : "0x01",
                    "parentHash" : "0xa6c854682c8d7fcab780f81abfbf3e260b07d83426da6387e3c8e2931943309e",
                    "receiptTrie" : "0x286199aa8d9dee68fa3740dd84e6e526389ad7bf9d0d621d06bdb35cfa2c119e",
                    "stateRoot" : "0x1dc0b8c728d656ce6633e47889ebdc8bf106f776690417e06df0cce1d04dc5a9",
                    "timestamp" : "0x03e8",
                    "transactionsTrie" : "0x2d85f180dcd01c3fb7c40b26ed72d5f20e662d0e891199aed5506760daae5e01",
                    "uncleHash" : "0x1dcc4de8dec75d7aab85b567b6ccd41ad312451b948a7413f0a142fd40d49347"
                },
                "rlp" : "0xf9025ef901f7a0a6c854682c8d7fcab780f81abfbf3e260b07d83426da6387e3c8e2931943309ea01dcc4de8dec75d7aab85b567b6ccd41ad312451b948a7413f0a142fd40d49347942adc25665018aa1fe0e6bc666dac8fc2697ff9baa01dc0b8c728d656ce6633e47889ebdc8bf106f776690417e06df0cce1d04dc5a9a02d85f180dcd01c3fb7c40b26ed72d5f20e662d0e891199aed5506760daae5e01a0286199aa8d9dee68fa3740dd84e6e526389ad7bf9d0d621d06bdb35cfa2c119eb90100000000000000000000000000000000000000000000000000000000000000000000000000000000000000000000000000000000000000000000000000000000000000000000000000000000000000000000000000000000000000000000000000000000000000000000000000000000000000000000000000000000000000000000000000000000000000000000000000000000000000000000000000000000000000000000000000000000000000000000000000000000000000000000000000000000000000000000000000000000000000000000000000000000000000000000000000000000000000000000000000000000000000000000000000000000008302000001839896808275308203e880a003ff008990ca3ac1d6ba35aa8d2409ed1ef93d8bd9f8165a91fb9599708ee3c388194c57aa14ea30cdf861f85f800182753094a00000000000000000000000000000000000000080801ca095b7fdc6fa09d3b0a1678840677f22e16fb269bf17575bee54e256a698d6a16ba050ab0cf1ebcc5652f053095b3a01dd36256f9f8b2210b7cf318bfdbd2782d2fbc0",
                "transactions" : [
                    {
                        "data" : "",
                        "gasLimit" : "0x7530",
                        "gasPrice" : "0x01",
                        "nonce" : "0x00",
                        "r" : "0x95b7fdc6fa09d3b0a1678840677f22e16fb269bf17575bee54e256a698d6a16b",
                        "s" : "0x50ab0cf1ebcc5652f053095b3a01dd36256f9f8b2210b7cf318bfdbd2782d2fb",
                        "to" : "0xa000000000000000000000000000000000000000",
                        "v" : "0x1c",
                        "value" : "0x00"
                    }
                ],
                "uncleHeaders" : [
                ]
            }
        ],
        "genesisBlockHeader" : {
            "bloom" : "0x00000000000000000000000000000000000000000000000000000000000000000000000000000000000000000000000000000000000000000000000000000000000000000000000000000000000000000000000000000000000000000000000000000000000000000000000000000000000000000000000000000000000000000000000000000000000000000000000000000000000000000000000000000000000000000000000000000000000000000000000000000000000000000000000000000000000000000000000000000000000000000000000000000000000000000000000000000000000000000000000000000000000000000000000000000000",
            "coinbase" : "0x2adc25665018aa1fe0e6bc666dac8fc2697ff9ba",
            "difficulty" : "0x020000",
            "extraData" : "0x42",
            "gasLimit" : "0x989680",
            "gasUsed" : "0x00",
            "hash" : "0xa6c854682c8d7fcab780f81abfbf3e260b07d83426da6387e3c8e2931943309e",
            "mixHash" : "0x56e81f171bcc55a6ff8345e692c0f86e5b48e01b996cadc001622fb5e363b421",
            "nonce" : "0x0102030405060708",
            "number" : "0x00",
            "parentHash" : "0x0000000000000000000000000000000000000000000000000000000000000000",
            "receiptTrie" : "0x56e81f171bcc55a6ff8345e692c0f86e5b48e01b996cadc001622fb5e363b421",
            "stateRoot" : "0x860258f673d0e6520d540eac5ce7c862a205956598d8a614db8898c8be051e9f",
            "timestamp" : "0x03b6",
            "transactionsTrie" : "0x56e81f171bcc55a6ff8345e692c0f86e5b48e01b996cadc001622fb5e363b421",
            "uncleHash" : "0x1dcc4de8dec75d7aab85b567b6ccd41ad312451b948a7413f0a142fd40d49347"
        },
        "genesisRLP" : "0xf901faf901f5a00000000000000000000000000000000000000000000000000000000000000000a01dcc4de8dec75d7aab85b567b6ccd41ad312451b948a7413f0a142fd40d49347942adc25665018aa1fe0e6bc666dac8fc2697ff9baa0860258f673d0e6520d540eac5ce7c862a205956598d8a614db8898c8be051e9fa056e81f171bcc55a6ff8345e692c0f86e5b48e01b996cadc001622fb5e363b421a056e81f171bcc55a6ff8345e692c0f86e5b48e01b996cadc001622fb5e363b421b9010000000000000000000000000000000000000000000000000000000000000000000000000000000000000000000000000000000000000000000000000000000000000000000000000000000000000000000000000000000000000000000000000000000000000000000000000000000000000000000000000000000000000000000000000000000000000000000000000000000000000000000000000000000000000000000000000000000000000000000000000000000000000000000000000000000000000000000000000000000000000000000000000000000000000000000000000000000000000000000000000000000000000000000000000000000000830200008083989680808203b642a056e81f171bcc55a6ff8345e692c0f86e5b48e01b996cadc001622fb5e363b421880102030405060708c0c0",
        "lastblockhash" : "0xc2ff8e9a24bbb52c2d677190b1f5db663e1b5005a64c6706f0d269e79a30a37c",
        "network" : "Frontier",
        "postState" : {
            "0x2adc25665018aa1fe0e6bc666dac8fc2697ff9ba" : {
                "balance" : "0x4563918244f47530",
                "code" : "",
                "nonce" : "0x00",
                "storage" : {
                }
            },
            "0xa000000000000000000000000000000000000000" : {
                "balance" : "0x00",
                "code" : "0x600160005560016000fd6011600155",
                "nonce" : "0x00",
                "storage" : {
                }
            },
            "0xa94f5374fce5edbc8e2a8697c15331677e6ebf0b" : {
                "balance" : "0xe8d4a49ad0",
                "code" : "",
                "nonce" : "0x01",
                "storage" : {
                }
            }
        },
        "pre" : {
            "0xa000000000000000000000000000000000000000" : {
                "balance" : "0x00",
                "code" : "0x600160005560016000fd6011600155",
                "nonce" : "0x00",
                "storage" : {
                }
            },
            "0xa94f5374fce5edbc8e2a8697c15331677e6ebf0b" : {
                "balance" : "0xe8d4a51000",
                "code" : "",
                "nonce" : "0x00",
                "storage" : {
                }
            }
        }
    },
    "RevertOpcode_d0g1v0_Homestead" : {
        "_info" : {
            "comment" : "",
            "filledwith" : "cpp-1.3.0+commit.6e0ce939.Linux.g++",
            "lllcversion" : "Version: 0.4.18-develop.2017.9.25+commit.a72237f2.Linux.g++",
            "source" : "src/BlockchainTestsFiller/GeneralStateTests/stRevertTest/RevertOpcode_d0g1v0Filler.json",
            "sourceHash" : "c2b58810ac500308dbcf38a7e19874e4787169d6d6482444ead02fefb71bef98"
        },
        "blocks" : [
            {
                "blockHeader" : {
                    "bloom" : "0x00000000000000000000000000000000000000000000000000000000000000000000000000000000000000000000000000000000000000000000000000000000000000000000000000000000000000000000000000000000000000000000000000000000000000000000000000000000000000000000000000000000000000000000000000000000000000000000000000000000000000000000000000000000000000000000000000000000000000000000000000000000000000000000000000000000000000000000000000000000000000000000000000000000000000000000000000000000000000000000000000000000000000000000000000000000",
                    "coinbase" : "0x2adc25665018aa1fe0e6bc666dac8fc2697ff9ba",
                    "difficulty" : "0x020000",
                    "extraData" : "",
                    "gasLimit" : "0x989680",
                    "gasUsed" : "0x7530",
                    "hash" : "0x6cb87bb571af449187db9867c71655bd285f8f61926c57a28832b2f0e6b8a756",
                    "mixHash" : "0x41a0eaea2447049dcd3dae04f1b54949b799c0470df1bae3f32f7908e11a26fd",
                    "nonce" : "0xd6fd69392ef4aa39",
                    "number" : "0x01",
                    "parentHash" : "0xa6c854682c8d7fcab780f81abfbf3e260b07d83426da6387e3c8e2931943309e",
                    "receiptTrie" : "0x286199aa8d9dee68fa3740dd84e6e526389ad7bf9d0d621d06bdb35cfa2c119e",
                    "stateRoot" : "0x1dc0b8c728d656ce6633e47889ebdc8bf106f776690417e06df0cce1d04dc5a9",
                    "timestamp" : "0x03e8",
                    "transactionsTrie" : "0x2d85f180dcd01c3fb7c40b26ed72d5f20e662d0e891199aed5506760daae5e01",
                    "uncleHash" : "0x1dcc4de8dec75d7aab85b567b6ccd41ad312451b948a7413f0a142fd40d49347"
                },
                "rlp" : "0xf9025ef901f7a0a6c854682c8d7fcab780f81abfbf3e260b07d83426da6387e3c8e2931943309ea01dcc4de8dec75d7aab85b567b6ccd41ad312451b948a7413f0a142fd40d49347942adc25665018aa1fe0e6bc666dac8fc2697ff9baa01dc0b8c728d656ce6633e47889ebdc8bf106f776690417e06df0cce1d04dc5a9a02d85f180dcd01c3fb7c40b26ed72d5f20e662d0e891199aed5506760daae5e01a0286199aa8d9dee68fa3740dd84e6e526389ad7bf9d0d621d06bdb35cfa2c119eb90100000000000000000000000000000000000000000000000000000000000000000000000000000000000000000000000000000000000000000000000000000000000000000000000000000000000000000000000000000000000000000000000000000000000000000000000000000000000000000000000000000000000000000000000000000000000000000000000000000000000000000000000000000000000000000000000000000000000000000000000000000000000000000000000000000000000000000000000000000000000000000000000000000000000000000000000000000000000000000000000000000000000000000000000000000000008302000001839896808275308203e880a041a0eaea2447049dcd3dae04f1b54949b799c0470df1bae3f32f7908e11a26fd88d6fd69392ef4aa39f861f85f800182753094a00000000000000000000000000000000000000080801ca095b7fdc6fa09d3b0a1678840677f22e16fb269bf17575bee54e256a698d6a16ba050ab0cf1ebcc5652f053095b3a01dd36256f9f8b2210b7cf318bfdbd2782d2fbc0",
                "transactions" : [
                    {
                        "data" : "",
                        "gasLimit" : "0x7530",
                        "gasPrice" : "0x01",
                        "nonce" : "0x00",
                        "r" : "0x95b7fdc6fa09d3b0a1678840677f22e16fb269bf17575bee54e256a698d6a16b",
                        "s" : "0x50ab0cf1ebcc5652f053095b3a01dd36256f9f8b2210b7cf318bfdbd2782d2fb",
                        "to" : "0xa000000000000000000000000000000000000000",
                        "v" : "0x1c",
                        "value" : "0x00"
                    }
                ],
                "uncleHeaders" : [
                ]
            }
        ],
        "genesisBlockHeader" : {
            "bloom" : "0x00000000000000000000000000000000000000000000000000000000000000000000000000000000000000000000000000000000000000000000000000000000000000000000000000000000000000000000000000000000000000000000000000000000000000000000000000000000000000000000000000000000000000000000000000000000000000000000000000000000000000000000000000000000000000000000000000000000000000000000000000000000000000000000000000000000000000000000000000000000000000000000000000000000000000000000000000000000000000000000000000000000000000000000000000000000",
            "coinbase" : "0x2adc25665018aa1fe0e6bc666dac8fc2697ff9ba",
            "difficulty" : "0x020000",
            "extraData" : "0x42",
            "gasLimit" : "0x989680",
            "gasUsed" : "0x00",
            "hash" : "0xa6c854682c8d7fcab780f81abfbf3e260b07d83426da6387e3c8e2931943309e",
            "mixHash" : "0x56e81f171bcc55a6ff8345e692c0f86e5b48e01b996cadc001622fb5e363b421",
            "nonce" : "0x0102030405060708",
            "number" : "0x00",
            "parentHash" : "0x0000000000000000000000000000000000000000000000000000000000000000",
            "receiptTrie" : "0x56e81f171bcc55a6ff8345e692c0f86e5b48e01b996cadc001622fb5e363b421",
            "stateRoot" : "0x860258f673d0e6520d540eac5ce7c862a205956598d8a614db8898c8be051e9f",
            "timestamp" : "0x03b6",
            "transactionsTrie" : "0x56e81f171bcc55a6ff8345e692c0f86e5b48e01b996cadc001622fb5e363b421",
            "uncleHash" : "0x1dcc4de8dec75d7aab85b567b6ccd41ad312451b948a7413f0a142fd40d49347"
        },
        "genesisRLP" : "0xf901faf901f5a00000000000000000000000000000000000000000000000000000000000000000a01dcc4de8dec75d7aab85b567b6ccd41ad312451b948a7413f0a142fd40d49347942adc25665018aa1fe0e6bc666dac8fc2697ff9baa0860258f673d0e6520d540eac5ce7c862a205956598d8a614db8898c8be051e9fa056e81f171bcc55a6ff8345e692c0f86e5b48e01b996cadc001622fb5e363b421a056e81f171bcc55a6ff8345e692c0f86e5b48e01b996cadc001622fb5e363b421b9010000000000000000000000000000000000000000000000000000000000000000000000000000000000000000000000000000000000000000000000000000000000000000000000000000000000000000000000000000000000000000000000000000000000000000000000000000000000000000000000000000000000000000000000000000000000000000000000000000000000000000000000000000000000000000000000000000000000000000000000000000000000000000000000000000000000000000000000000000000000000000000000000000000000000000000000000000000000000000000000000000000000000000000000000000000000830200008083989680808203b642a056e81f171bcc55a6ff8345e692c0f86e5b48e01b996cadc001622fb5e363b421880102030405060708c0c0",
        "lastblockhash" : "0x6cb87bb571af449187db9867c71655bd285f8f61926c57a28832b2f0e6b8a756",
        "network" : "Homestead",
        "postState" : {
            "0x2adc25665018aa1fe0e6bc666dac8fc2697ff9ba" : {
                "balance" : "0x4563918244f47530",
                "code" : "",
                "nonce" : "0x00",
                "storage" : {
                }
            },
            "0xa000000000000000000000000000000000000000" : {
                "balance" : "0x00",
                "code" : "0x600160005560016000fd6011600155",
                "nonce" : "0x00",
                "storage" : {
                }
            },
            "0xa94f5374fce5edbc8e2a8697c15331677e6ebf0b" : {
                "balance" : "0xe8d4a49ad0",
                "code" : "",
                "nonce" : "0x01",
                "storage" : {
                }
            }
        },
        "pre" : {
            "0xa000000000000000000000000000000000000000" : {
                "balance" : "0x00",
                "code" : "0x600160005560016000fd6011600155",
                "nonce" : "0x00",
                "storage" : {
                }
            },
            "0xa94f5374fce5edbc8e2a8697c15331677e6ebf0b" : {
                "balance" : "0xe8d4a51000",
                "code" : "",
                "nonce" : "0x00",
                "storage" : {
                }
            }
        }
    }
}