{
    "RevertPrefoundOOG_d0g0v0_Byzantium" : {
        "_info" : {
            "comment" : "",
            "filledwith" : "cpp-1.3.0+commit.6e0ce939.Linux.g++",
            "lllcversion" : "Version: 0.4.18-develop.2017.9.25+commit.a72237f2.Linux.g++",
            "source" : "src/BlockchainTestsFiller/GeneralStateTests/stRevertTest/RevertPrefoundOOG_d0g0v0Filler.json",
            "sourceHash" : "e6ed3e48996bc71d7b8d13656fedad5badf49e78f1df4b01938c9979153b5bae"
        },
        "blocks" : [
            {
                "blockHeader" : {
                    "bloom" : "0x00000000000000000000000000000000000000000000000000000000000000000000000000000000000000000000000000000000000000000000000000000000000000000000000000000000000000000000000000000000000000000000000000000000000000000000000000000000000000000000000000000000000000000000000000000000000000000000000000000000000000000000000000000000000000000000000000000000000000000000000000000000000000000000000000000000000000000000000000000000000000000000000000000000000000000000000000000000000000000000000000000000000000000000000000000000",
                    "coinbase" : "0x2adc25665018aa1fe0e6bc666dac8fc2697ff9ba",
                    "difficulty" : "0x020000",
                    "extraData" : "",
                    "gasLimit" : "0x989680",
                    "gasUsed" : "0x016b48",
                    "hash" : "0x58878859f9f87f6b88154852aeb77df96429eb40be3893b61cf2d781b68e060b",
                    "mixHash" : "0x9eb07589f62080f3f50bf12c98543f54dff7fe236d38701218e81c5bbd68ebd1",
                    "nonce" : "0xf8779ad456181fb3",
                    "number" : "0x01",
                    "parentHash" : "0x575878eab175ec22eee356beb8a45a94535c8c75b980f38940df1bd428f076d1",
                    "receiptTrie" : "0x982f8a0eedb427918fbb2f3db7c5a72451437d3e482f851b69047ab57d90616d",
                    "stateRoot" : "0x28a2f438675cde6efb082bc257b54229d6ab9b2d860431ba6ba98372db07a0a3",
                    "timestamp" : "0x03e8",
                    "transactionsTrie" : "0x4169e812fe662239d8c464c34515caa66dffa912859b360668668d35741543c1",
                    "uncleHash" : "0x1dcc4de8dec75d7aab85b567b6ccd41ad312451b948a7413f0a142fd40d49347"
                },
                "rlp" : "0xf90260f901f8a0575878eab175ec22eee356beb8a45a94535c8c75b980f38940df1bd428f076d1a01dcc4de8dec75d7aab85b567b6ccd41ad312451b948a7413f0a142fd40d49347942adc25665018aa1fe0e6bc666dac8fc2697ff9baa028a2f438675cde6efb082bc257b54229d6ab9b2d860431ba6ba98372db07a0a3a04169e812fe662239d8c464c34515caa66dffa912859b360668668d35741543c1a0982f8a0eedb427918fbb2f3db7c5a72451437d3e482f851b69047ab57d90616db901000000000000000000000000000000000000000000000000000000000000000000000000000000000000000000000000000000000000000000000000000000000000000000000000000000000000000000000000000000000000000000000000000000000000000000000000000000000000000000000000000000000000000000000000000000000000000000000000000000000000000000000000000000000000000000000000000000000000000000000000000000000000000000000000000000000000000000000000000000000000000000000000000000000000000000000000000000000000000000000000000000000000000000000000000000000083020000018398968083016b488203e880a09eb07589f62080f3f50bf12c98543f54dff7fe236d38701218e81c5bbd68ebd188f8779ad456181fb3f862f860800183016b4894a00000000000000000000000000000000000000080801ca0d33edc94825b2014a3f433643597c12717eb1c31a002b106bfd36f7c5f3585d4a057cf76e2958fa2458f2f7968732544f5ead49e6e82d493a1d08f44f4c85e7cabc0",
                "transactions" : [
                    {
                        "data" : "",
                        "gasLimit" : "0x016b48",
                        "gasPrice" : "0x01",
                        "nonce" : "0x00",
                        "r" : "0xd33edc94825b2014a3f433643597c12717eb1c31a002b106bfd36f7c5f3585d4",
                        "s" : "0x57cf76e2958fa2458f2f7968732544f5ead49e6e82d493a1d08f44f4c85e7cab",
                        "to" : "0xa000000000000000000000000000000000000000",
                        "v" : "0x1c",
                        "value" : "0x00"
                    }
                ],
                "uncleHeaders" : [
                ]
            }
        ],
        "genesisBlockHeader" : {
            "bloom" : "0x00000000000000000000000000000000000000000000000000000000000000000000000000000000000000000000000000000000000000000000000000000000000000000000000000000000000000000000000000000000000000000000000000000000000000000000000000000000000000000000000000000000000000000000000000000000000000000000000000000000000000000000000000000000000000000000000000000000000000000000000000000000000000000000000000000000000000000000000000000000000000000000000000000000000000000000000000000000000000000000000000000000000000000000000000000000",
            "coinbase" : "0x2adc25665018aa1fe0e6bc666dac8fc2697ff9ba",
            "difficulty" : "0x020000",
            "extraData" : "0x42",
            "gasLimit" : "0x989680",
            "gasUsed" : "0x00",
            "hash" : "0x575878eab175ec22eee356beb8a45a94535c8c75b980f38940df1bd428f076d1",
            "mixHash" : "0x56e81f171bcc55a6ff8345e692c0f86e5b48e01b996cadc001622fb5e363b421",
            "nonce" : "0x0102030405060708",
            "number" : "0x00",
            "parentHash" : "0x0000000000000000000000000000000000000000000000000000000000000000",
            "receiptTrie" : "0x56e81f171bcc55a6ff8345e692c0f86e5b48e01b996cadc001622fb5e363b421",
            "stateRoot" : "0x6145ea5e1a8da1666a61c60c38aed206d476ae44b3448168f52ba5169aea97fd",
            "timestamp" : "0x03b6",
            "transactionsTrie" : "0x56e81f171bcc55a6ff8345e692c0f86e5b48e01b996cadc001622fb5e363b421",
            "uncleHash" : "0x1dcc4de8dec75d7aab85b567b6ccd41ad312451b948a7413f0a142fd40d49347"
        },
        "genesisRLP" : "0xf901faf901f5a00000000000000000000000000000000000000000000000000000000000000000a01dcc4de8dec75d7aab85b567b6ccd41ad312451b948a7413f0a142fd40d49347942adc25665018aa1fe0e6bc666dac8fc2697ff9baa06145ea5e1a8da1666a61c60c38aed206d476ae44b3448168f52ba5169aea97fda056e81f171bcc55a6ff8345e692c0f86e5b48e01b996cadc001622fb5e363b421a056e81f171bcc55a6ff8345e692c0f86e5b48e01b996cadc001622fb5e363b421b9010000000000000000000000000000000000000000000000000000000000000000000000000000000000000000000000000000000000000000000000000000000000000000000000000000000000000000000000000000000000000000000000000000000000000000000000000000000000000000000000000000000000000000000000000000000000000000000000000000000000000000000000000000000000000000000000000000000000000000000000000000000000000000000000000000000000000000000000000000000000000000000000000000000000000000000000000000000000000000000000000000000000000000000000000000000000830200008083989680808203b642a056e81f171bcc55a6ff8345e692c0f86e5b48e01b996cadc001622fb5e363b421880102030405060708c0c0",
        "lastblockhash" : "0x58878859f9f87f6b88154852aeb77df96429eb40be3893b61cf2d781b68e060b",
        "network" : "Byzantium",
        "postState" : {
            "0x2adc25665018aa1fe0e6bc666dac8fc2697ff9ba" : {
                "balance" : "0x29a2241af62d6b48",
                "code" : "",
                "nonce" : "0x00",
                "storage" : {
                }
            },
            "0x7db299e0885c85039f56fa504a13dd8ce8a56aa7" : {
                "balance" : "0x01",
                "code" : "",
                "nonce" : "0x00",
                "storage" : {
                }
            },
            "0xa000000000000000000000000000000000000000" : {
                "balance" : "0x01",
                "code" : "0x602060006000f0600055600c600155",
                "nonce" : "0x00",
                "storage" : {
                }
            },
            "0xa94f5374fce5edbc8e2a8697c15331677e6ebf0b" : {
                "balance" : "0xe8d4a3a4b8",
                "code" : "",
                "nonce" : "0x01",
                "storage" : {
                }
            }
        },
        "pre" : {
            "0x7db299e0885c85039f56fa504a13dd8ce8a56aa7" : {
                "balance" : "0x01",
                "code" : "",
                "nonce" : "0x00",
                "storage" : {
                }
            },
            "0xa000000000000000000000000000000000000000" : {
                "balance" : "0x01",
                "code" : "0x602060006000f0600055600c600155",
                "nonce" : "0x00",
                "storage" : {
                }
            },
            "0xa94f5374fce5edbc8e2a8697c15331677e6ebf0b" : {
                "balance" : "0xe8d4a51000",
                "code" : "",
                "nonce" : "0x00",
                "storage" : {
                }
            }
        }
    },
    "RevertPrefoundOOG_d0g0v0_EIP150" : {
        "_info" : {
            "comment" : "",
            "filledwith" : "cpp-1.3.0+commit.6e0ce939.Linux.g++",
            "lllcversion" : "Version: 0.4.18-develop.2017.9.25+commit.a72237f2.Linux.g++",
            "source" : "src/BlockchainTestsFiller/GeneralStateTests/stRevertTest/RevertPrefoundOOG_d0g0v0Filler.json",
            "sourceHash" : "e6ed3e48996bc71d7b8d13656fedad5badf49e78f1df4b01938c9979153b5bae"
        },
        "blocks" : [
            {
                "blockHeader" : {
                    "bloom" : "0x00000000000000000000000000000000000000000000000000000000000000000000000000000000000000000000000000000000000000000000000000000000000000000000000000000000000000000000000000000000000000000000000000000000000000000000000000000000000000000000000000000000000000000000000000000000000000000000000000000000000000000000000000000000000000000000000000000000000000000000000000000000000000000000000000000000000000000000000000000000000000000000000000000000000000000000000000000000000000000000000000000000000000000000000000000000",
                    "coinbase" : "0x2adc25665018aa1fe0e6bc666dac8fc2697ff9ba",
                    "difficulty" : "0x020000",
                    "extraData" : "",
                    "gasLimit" : "0x989680",
                    "gasUsed" : "0x016b48",
                    "hash" : "0xc884cf3a29c756ab2784ad98a9cc44e186c60faa8a729bf02c6b9fa933e04b85",
                    "mixHash" : "0xc00d4be989ff93537c4aea5246ba1bedeb60cc3d70f034340c6e4b3387cb97b9",
                    "nonce" : "0x8e15f8144a93f42b",
                    "number" : "0x01",
                    "parentHash" : "0x575878eab175ec22eee356beb8a45a94535c8c75b980f38940df1bd428f076d1",
                    "receiptTrie" : "0xbd364c91862beb5cc7367c44bfe2a2450f6bf3f19029063ed773b20a2afa1345",
                    "stateRoot" : "0x3450e641669fbafc849b6c59e30d72d6e770bb4d5af889f996e2e58f58943462",
                    "timestamp" : "0x03e8",
                    "transactionsTrie" : "0x4169e812fe662239d8c464c34515caa66dffa912859b360668668d35741543c1",
                    "uncleHash" : "0x1dcc4de8dec75d7aab85b567b6ccd41ad312451b948a7413f0a142fd40d49347"
                },
                "rlp" : "0xf90260f901f8a0575878eab175ec22eee356beb8a45a94535c8c75b980f38940df1bd428f076d1a01dcc4de8dec75d7aab85b567b6ccd41ad312451b948a7413f0a142fd40d49347942adc25665018aa1fe0e6bc666dac8fc2697ff9baa03450e641669fbafc849b6c59e30d72d6e770bb4d5af889f996e2e58f58943462a04169e812fe662239d8c464c34515caa66dffa912859b360668668d35741543c1a0bd364c91862beb5cc7367c44bfe2a2450f6bf3f19029063ed773b20a2afa1345b901000000000000000000000000000000000000000000000000000000000000000000000000000000000000000000000000000000000000000000000000000000000000000000000000000000000000000000000000000000000000000000000000000000000000000000000000000000000000000000000000000000000000000000000000000000000000000000000000000000000000000000000000000000000000000000000000000000000000000000000000000000000000000000000000000000000000000000000000000000000000000000000000000000000000000000000000000000000000000000000000000000000000000000000000000000000083020000018398968083016b488203e880a0c00d4be989ff93537c4aea5246ba1bedeb60cc3d70f034340c6e4b3387cb97b9888e15f8144a93f42bf862f860800183016b4894a00000000000000000000000000000000000000080801ca0d33edc94825b2014a3f433643597c12717eb1c31a002b106bfd36f7c5f3585d4a057cf76e2958fa2458f2f7968732544f5ead49e6e82d493a1d08f44f4c85e7cabc0",
                "transactions" : [
                    {
                        "data" : "",
                        "gasLimit" : "0x016b48",
                        "gasPrice" : "0x01",
                        "nonce" : "0x00",
                        "r" : "0xd33edc94825b2014a3f433643597c12717eb1c31a002b106bfd36f7c5f3585d4",
                        "s" : "0x57cf76e2958fa2458f2f7968732544f5ead49e6e82d493a1d08f44f4c85e7cab",
                        "to" : "0xa000000000000000000000000000000000000000",
                        "v" : "0x1c",
                        "value" : "0x00"
                    }
                ],
                "uncleHeaders" : [
                ]
            }
        ],
        "genesisBlockHeader" : {
            "bloom" : "0x00000000000000000000000000000000000000000000000000000000000000000000000000000000000000000000000000000000000000000000000000000000000000000000000000000000000000000000000000000000000000000000000000000000000000000000000000000000000000000000000000000000000000000000000000000000000000000000000000000000000000000000000000000000000000000000000000000000000000000000000000000000000000000000000000000000000000000000000000000000000000000000000000000000000000000000000000000000000000000000000000000000000000000000000000000000",
            "coinbase" : "0x2adc25665018aa1fe0e6bc666dac8fc2697ff9ba",
            "difficulty" : "0x020000",
            "extraData" : "0x42",
            "gasLimit" : "0x989680",
            "gasUsed" : "0x00",
            "hash" : "0x575878eab175ec22eee356beb8a45a94535c8c75b980f38940df1bd428f076d1",
            "mixHash" : "0x56e81f171bcc55a6ff8345e692c0f86e5b48e01b996cadc001622fb5e363b421",
            "nonce" : "0x0102030405060708",
            "number" : "0x00",
            "parentHash" : "0x0000000000000000000000000000000000000000000000000000000000000000",
            "receiptTrie" : "0x56e81f171bcc55a6ff8345e692c0f86e5b48e01b996cadc001622fb5e363b421",
            "stateRoot" : "0x6145ea5e1a8da1666a61c60c38aed206d476ae44b3448168f52ba5169aea97fd",
            "timestamp" : "0x03b6",
            "transactionsTrie" : "0x56e81f171bcc55a6ff8345e692c0f86e5b48e01b996cadc001622fb5e363b421",
            "uncleHash" : "0x1dcc4de8dec75d7aab85b567b6ccd41ad312451b948a7413f0a142fd40d49347"
        },
        "genesisRLP" : "0xf901faf901f5a00000000000000000000000000000000000000000000000000000000000000000a01dcc4de8dec75d7aab85b567b6ccd41ad312451b948a7413f0a142fd40d49347942adc25665018aa1fe0e6bc666dac8fc2697ff9baa06145ea5e1a8da1666a61c60c38aed206d476ae44b3448168f52ba5169aea97fda056e81f171bcc55a6ff8345e692c0f86e5b48e01b996cadc001622fb5e363b421a056e81f171bcc55a6ff8345e692c0f86e5b48e01b996cadc001622fb5e363b421b9010000000000000000000000000000000000000000000000000000000000000000000000000000000000000000000000000000000000000000000000000000000000000000000000000000000000000000000000000000000000000000000000000000000000000000000000000000000000000000000000000000000000000000000000000000000000000000000000000000000000000000000000000000000000000000000000000000000000000000000000000000000000000000000000000000000000000000000000000000000000000000000000000000000000000000000000000000000000000000000000000000000000000000000000000000000000830200008083989680808203b642a056e81f171bcc55a6ff8345e692c0f86e5b48e01b996cadc001622fb5e363b421880102030405060708c0c0",
        "lastblockhash" : "0xc884cf3a29c756ab2784ad98a9cc44e186c60faa8a729bf02c6b9fa933e04b85",
        "network" : "EIP150",
        "postState" : {
            "0x2adc25665018aa1fe0e6bc666dac8fc2697ff9ba" : {
                "balance" : "0x4563918244f56b48",
                "code" : "",
                "nonce" : "0x00",
                "storage" : {
                }
            },
            "0x7db299e0885c85039f56fa504a13dd8ce8a56aa7" : {
                "balance" : "0x01",
                "code" : "",
                "nonce" : "0x00",
                "storage" : {
                }
            },
            "0xa000000000000000000000000000000000000000" : {
                "balance" : "0x01",
                "code" : "0x602060006000f0600055600c600155",
                "nonce" : "0x00",
                "storage" : {
                }
            },
            "0xa94f5374fce5edbc8e2a8697c15331677e6ebf0b" : {
                "balance" : "0xe8d4a3a4b8",
                "code" : "",
                "nonce" : "0x01",
                "storage" : {
                }
            }
        },
        "pre" : {
            "0x7db299e0885c85039f56fa504a13dd8ce8a56aa7" : {
                "balance" : "0x01",
                "code" : "",
                "nonce" : "0x00",
                "storage" : {
                }
            },
            "0xa000000000000000000000000000000000000000" : {
                "balance" : "0x01",
                "code" : "0x602060006000f0600055600c600155",
                "nonce" : "0x00",
                "storage" : {
                }
            },
            "0xa94f5374fce5edbc8e2a8697c15331677e6ebf0b" : {
                "balance" : "0xe8d4a51000",
                "code" : "",
                "nonce" : "0x00",
                "storage" : {
                }
            }
        }
    },
    "RevertPrefoundOOG_d0g0v0_EIP158" : {
        "_info" : {
            "comment" : "",
            "filledwith" : "cpp-1.3.0+commit.6e0ce939.Linux.g++",
            "lllcversion" : "Version: 0.4.18-develop.2017.9.25+commit.a72237f2.Linux.g++",
            "source" : "src/BlockchainTestsFiller/GeneralStateTests/stRevertTest/RevertPrefoundOOG_d0g0v0Filler.json",
            "sourceHash" : "e6ed3e48996bc71d7b8d13656fedad5badf49e78f1df4b01938c9979153b5bae"
        },
        "blocks" : [
            {
                "blockHeader" : {
                    "bloom" : "0x00000000000000000000000000000000000000000000000000000000000000000000000000000000000000000000000000000000000000000000000000000000000000000000000000000000000000000000000000000000000000000000000000000000000000000000000000000000000000000000000000000000000000000000000000000000000000000000000000000000000000000000000000000000000000000000000000000000000000000000000000000000000000000000000000000000000000000000000000000000000000000000000000000000000000000000000000000000000000000000000000000000000000000000000000000000",
                    "coinbase" : "0x2adc25665018aa1fe0e6bc666dac8fc2697ff9ba",
                    "difficulty" : "0x020000",
                    "extraData" : "",
                    "gasLimit" : "0x989680",
                    "gasUsed" : "0x016b48",
                    "hash" : "0x339e9d3d8f4b0dff80d16cb2dc5cb77720d01afeee46c8c81fc252fd091dd8a4",
                    "mixHash" : "0x2738127f5f56d08e4e100cc16f6ef66d330740392818441fba6691d63da77bf6",
                    "nonce" : "0xd0ab44a45e1fef57",
                    "number" : "0x01",
                    "parentHash" : "0x575878eab175ec22eee356beb8a45a94535c8c75b980f38940df1bd428f076d1",
                    "receiptTrie" : "0xbd364c91862beb5cc7367c44bfe2a2450f6bf3f19029063ed773b20a2afa1345",
                    "stateRoot" : "0x3450e641669fbafc849b6c59e30d72d6e770bb4d5af889f996e2e58f58943462",
                    "timestamp" : "0x03e8",
                    "transactionsTrie" : "0x4169e812fe662239d8c464c34515caa66dffa912859b360668668d35741543c1",
                    "uncleHash" : "0x1dcc4de8dec75d7aab85b567b6ccd41ad312451b948a7413f0a142fd40d49347"
                },
                "rlp" : "0xf90260f901f8a0575878eab175ec22eee356beb8a45a94535c8c75b980f38940df1bd428f076d1a01dcc4de8dec75d7aab85b567b6ccd41ad312451b948a7413f0a142fd40d49347942adc25665018aa1fe0e6bc666dac8fc2697ff9baa03450e641669fbafc849b6c59e30d72d6e770bb4d5af889f996e2e58f58943462a04169e812fe662239d8c464c34515caa66dffa912859b360668668d35741543c1a0bd364c91862beb5cc7367c44bfe2a2450f6bf3f19029063ed773b20a2afa1345b901000000000000000000000000000000000000000000000000000000000000000000000000000000000000000000000000000000000000000000000000000000000000000000000000000000000000000000000000000000000000000000000000000000000000000000000000000000000000000000000000000000000000000000000000000000000000000000000000000000000000000000000000000000000000000000000000000000000000000000000000000000000000000000000000000000000000000000000000000000000000000000000000000000000000000000000000000000000000000000000000000000000000000000000000000000000083020000018398968083016b488203e880a02738127f5f56d08e4e100cc16f6ef66d330740392818441fba6691d63da77bf688d0ab44a45e1fef57f862f860800183016b4894a00000000000000000000000000000000000000080801ca0d33edc94825b2014a3f433643597c12717eb1c31a002b106bfd36f7c5f3585d4a057cf76e2958fa2458f2f7968732544f5ead49e6e82d493a1d08f44f4c85e7cabc0",
                "transactions" : [
                    {
                        "data" : "",
                        "gasLimit" : "0x016b48",
                        "gasPrice" : "0x01",
                        "nonce" : "0x00",
                        "r" : "0xd33edc94825b2014a3f433643597c12717eb1c31a002b106bfd36f7c5f3585d4",
                        "s" : "0x57cf76e2958fa2458f2f7968732544f5ead49e6e82d493a1d08f44f4c85e7cab",
                        "to" : "0xa000000000000000000000000000000000000000",
                        "v" : "0x1c",
                        "value" : "0x00"
                    }
                ],
                "uncleHeaders" : [
                ]
            }
        ],
        "genesisBlockHeader" : {
            "bloom" : "0x00000000000000000000000000000000000000000000000000000000000000000000000000000000000000000000000000000000000000000000000000000000000000000000000000000000000000000000000000000000000000000000000000000000000000000000000000000000000000000000000000000000000000000000000000000000000000000000000000000000000000000000000000000000000000000000000000000000000000000000000000000000000000000000000000000000000000000000000000000000000000000000000000000000000000000000000000000000000000000000000000000000000000000000000000000000",
            "coinbase" : "0x2adc25665018aa1fe0e6bc666dac8fc2697ff9ba",
            "difficulty" : "0x020000",
            "extraData" : "0x42",
            "gasLimit" : "0x989680",
            "gasUsed" : "0x00",
            "hash" : "0x575878eab175ec22eee356beb8a45a94535c8c75b980f38940df1bd428f076d1",
            "mixHash" : "0x56e81f171bcc55a6ff8345e692c0f86e5b48e01b996cadc001622fb5e363b421",
            "nonce" : "0x0102030405060708",
            "number" : "0x00",
            "parentHash" : "0x0000000000000000000000000000000000000000000000000000000000000000",
            "receiptTrie" : "0x56e81f171bcc55a6ff8345e692c0f86e5b48e01b996cadc001622fb5e363b421",
            "stateRoot" : "0x6145ea5e1a8da1666a61c60c38aed206d476ae44b3448168f52ba5169aea97fd",
            "timestamp" : "0x03b6",
            "transactionsTrie" : "0x56e81f171bcc55a6ff8345e692c0f86e5b48e01b996cadc001622fb5e363b421",
            "uncleHash" : "0x1dcc4de8dec75d7aab85b567b6ccd41ad312451b948a7413f0a142fd40d49347"
        },
        "genesisRLP" : "0xf901faf901f5a00000000000000000000000000000000000000000000000000000000000000000a01dcc4de8dec75d7aab85b567b6ccd41ad312451b948a7413f0a142fd40d49347942adc25665018aa1fe0e6bc666dac8fc2697ff9baa06145ea5e1a8da1666a61c60c38aed206d476ae44b3448168f52ba5169aea97fda056e81f171bcc55a6ff8345e692c0f86e5b48e01b996cadc001622fb5e363b421a056e81f171bcc55a6ff8345e692c0f86e5b48e01b996cadc001622fb5e363b421b9010000000000000000000000000000000000000000000000000000000000000000000000000000000000000000000000000000000000000000000000000000000000000000000000000000000000000000000000000000000000000000000000000000000000000000000000000000000000000000000000000000000000000000000000000000000000000000000000000000000000000000000000000000000000000000000000000000000000000000000000000000000000000000000000000000000000000000000000000000000000000000000000000000000000000000000000000000000000000000000000000000000000000000000000000000000000830200008083989680808203b642a056e81f171bcc55a6ff8345e692c0f86e5b48e01b996cadc001622fb5e363b421880102030405060708c0c0",
        "lastblockhash" : "0x339e9d3d8f4b0dff80d16cb2dc5cb77720d01afeee46c8c81fc252fd091dd8a4",
        "network" : "EIP158",
        "postState" : {
            "0x2adc25665018aa1fe0e6bc666dac8fc2697ff9ba" : {
                "balance" : "0x4563918244f56b48",
                "code" : "",
                "nonce" : "0x00",
                "storage" : {
                }
            },
            "0x7db299e0885c85039f56fa504a13dd8ce8a56aa7" : {
                "balance" : "0x01",
                "code" : "",
                "nonce" : "0x00",
                "storage" : {
                }
            },
            "0xa000000000000000000000000000000000000000" : {
                "balance" : "0x01",
                "code" : "0x602060006000f0600055600c600155",
                "nonce" : "0x00",
                "storage" : {
                }
            },
            "0xa94f5374fce5edbc8e2a8697c15331677e6ebf0b" : {
                "balance" : "0xe8d4a3a4b8",
                "code" : "",
                "nonce" : "0x01",
                "storage" : {
                }
            }
        },
        "pre" : {
            "0x7db299e0885c85039f56fa504a13dd8ce8a56aa7" : {
                "balance" : "0x01",
                "code" : "",
                "nonce" : "0x00",
                "storage" : {
                }
            },
            "0xa000000000000000000000000000000000000000" : {
                "balance" : "0x01",
                "code" : "0x602060006000f0600055600c600155",
                "nonce" : "0x00",
                "storage" : {
                }
            },
            "0xa94f5374fce5edbc8e2a8697c15331677e6ebf0b" : {
                "balance" : "0xe8d4a51000",
                "code" : "",
                "nonce" : "0x00",
                "storage" : {
                }
            }
        }
    },
    "RevertPrefoundOOG_d0g0v0_Frontier" : {
        "_info" : {
            "comment" : "",
            "filledwith" : "cpp-1.3.0+commit.6e0ce939.Linux.g++",
            "lllcversion" : "Version: 0.4.18-develop.2017.9.25+commit.a72237f2.Linux.g++",
            "source" : "src/BlockchainTestsFiller/GeneralStateTests/stRevertTest/RevertPrefoundOOG_d0g0v0Filler.json",
            "sourceHash" : "e6ed3e48996bc71d7b8d13656fedad5badf49e78f1df4b01938c9979153b5bae"
        },
        "blocks" : [
            {
                "blockHeader" : {
                    "bloom" : "0x00000000000000000000000000000000000000000000000000000000000000000000000000000000000000000000000000000000000000000000000000000000000000000000000000000000000000000000000000000000000000000000000000000000000000000000000000000000000000000000000000000000000000000000000000000000000000000000000000000000000000000000000000000000000000000000000000000000000000000000000000000000000000000000000000000000000000000000000000000000000000000000000000000000000000000000000000000000000000000000000000000000000000000000000000000000",
                    "coinbase" : "0x2adc25665018aa1fe0e6bc666dac8fc2697ff9ba",
                    "difficulty" : "0x020000",
                    "extraData" : "",
                    "gasLimit" : "0x989680",
                    "gasUsed" : "0x016b48",
                    "hash" : "0x08336b3fd9d215b23ceb25a05d0ddbc9b3434559a996d098379bc5bc195a6bee",
                    "mixHash" : "0xd0b77ec767642e65312075a897da9a6efe35e20bed9e3176a40ba13af9a300fb",
                    "nonce" : "0x5e0d526a6a7b00ff",
                    "number" : "0x01",
                    "parentHash" : "0x575878eab175ec22eee356beb8a45a94535c8c75b980f38940df1bd428f076d1",
                    "receiptTrie" : "0xbd364c91862beb5cc7367c44bfe2a2450f6bf3f19029063ed773b20a2afa1345",
                    "stateRoot" : "0x3450e641669fbafc849b6c59e30d72d6e770bb4d5af889f996e2e58f58943462",
                    "timestamp" : "0x03e8",
                    "transactionsTrie" : "0x4169e812fe662239d8c464c34515caa66dffa912859b360668668d35741543c1",
                    "uncleHash" : "0x1dcc4de8dec75d7aab85b567b6ccd41ad312451b948a7413f0a142fd40d49347"
                },
                "rlp" : "0xf90260f901f8a0575878eab175ec22eee356beb8a45a94535c8c75b980f38940df1bd428f076d1a01dcc4de8dec75d7aab85b567b6ccd41ad312451b948a7413f0a142fd40d49347942adc25665018aa1fe0e6bc666dac8fc2697ff9baa03450e641669fbafc849b6c59e30d72d6e770bb4d5af889f996e2e58f58943462a04169e812fe662239d8c464c34515caa66dffa912859b360668668d35741543c1a0bd364c91862beb5cc7367c44bfe2a2450f6bf3f19029063ed773b20a2afa1345b901000000000000000000000000000000000000000000000000000000000000000000000000000000000000000000000000000000000000000000000000000000000000000000000000000000000000000000000000000000000000000000000000000000000000000000000000000000000000000000000000000000000000000000000000000000000000000000000000000000000000000000000000000000000000000000000000000000000000000000000000000000000000000000000000000000000000000000000000000000000000000000000000000000000000000000000000000000000000000000000000000000000000000000000000000000000083020000018398968083016b488203e880a0d0b77ec767642e65312075a897da9a6efe35e20bed9e3176a40ba13af9a300fb885e0d526a6a7b00fff862f860800183016b4894a00000000000000000000000000000000000000080801ca0d33edc94825b2014a3f433643597c12717eb1c31a002b106bfd36f7c5f3585d4a057cf76e2958fa2458f2f7968732544f5ead49e6e82d493a1d08f44f4c85e7cabc0",
                "transactions" : [
                    {
                        "data" : "",
                        "gasLimit" : "0x016b48",
                        "gasPrice" : "0x01",
                        "nonce" : "0x00",
                        "r" : "0xd33edc94825b2014a3f433643597c12717eb1c31a002b106bfd36f7c5f3585d4",
                        "s" : "0x57cf76e2958fa2458f2f7968732544f5ead49e6e82d493a1d08f44f4c85e7cab",
                        "to" : "0xa000000000000000000000000000000000000000",
                        "v" : "0x1c",
                        "value" : "0x00"
                    }
                ],
                "uncleHeaders" : [
                ]
            }
        ],
        "genesisBlockHeader" : {
            "bloom" : "0x00000000000000000000000000000000000000000000000000000000000000000000000000000000000000000000000000000000000000000000000000000000000000000000000000000000000000000000000000000000000000000000000000000000000000000000000000000000000000000000000000000000000000000000000000000000000000000000000000000000000000000000000000000000000000000000000000000000000000000000000000000000000000000000000000000000000000000000000000000000000000000000000000000000000000000000000000000000000000000000000000000000000000000000000000000000",
            "coinbase" : "0x2adc25665018aa1fe0e6bc666dac8fc2697ff9ba",
            "difficulty" : "0x020000",
            "extraData" : "0x42",
            "gasLimit" : "0x989680",
            "gasUsed" : "0x00",
            "hash" : "0x575878eab175ec22eee356beb8a45a94535c8c75b980f38940df1bd428f076d1",
            "mixHash" : "0x56e81f171bcc55a6ff8345e692c0f86e5b48e01b996cadc001622fb5e363b421",
            "nonce" : "0x0102030405060708",
            "number" : "0x00",
            "parentHash" : "0x0000000000000000000000000000000000000000000000000000000000000000",
            "receiptTrie" : "0x56e81f171bcc55a6ff8345e692c0f86e5b48e01b996cadc001622fb5e363b421",
            "stateRoot" : "0x6145ea5e1a8da1666a61c60c38aed206d476ae44b3448168f52ba5169aea97fd",
            "timestamp" : "0x03b6",
            "transactionsTrie" : "0x56e81f171bcc55a6ff8345e692c0f86e5b48e01b996cadc001622fb5e363b421",
            "uncleHash" : "0x1dcc4de8dec75d7aab85b567b6ccd41ad312451b948a7413f0a142fd40d49347"
        },
        "genesisRLP" : "0xf901faf901f5a00000000000000000000000000000000000000000000000000000000000000000a01dcc4de8dec75d7aab85b567b6ccd41ad312451b948a7413f0a142fd40d49347942adc25665018aa1fe0e6bc666dac8fc2697ff9baa06145ea5e1a8da1666a61c60c38aed206d476ae44b3448168f52ba5169aea97fda056e81f171bcc55a6ff8345e692c0f86e5b48e01b996cadc001622fb5e363b421a056e81f171bcc55a6ff8345e692c0f86e5b48e01b996cadc001622fb5e363b421b9010000000000000000000000000000000000000000000000000000000000000000000000000000000000000000000000000000000000000000000000000000000000000000000000000000000000000000000000000000000000000000000000000000000000000000000000000000000000000000000000000000000000000000000000000000000000000000000000000000000000000000000000000000000000000000000000000000000000000000000000000000000000000000000000000000000000000000000000000000000000000000000000000000000000000000000000000000000000000000000000000000000000000000000000000000000000830200008083989680808203b642a056e81f171bcc55a6ff8345e692c0f86e5b48e01b996cadc001622fb5e363b421880102030405060708c0c0",
        "lastblockhash" : "0x08336b3fd9d215b23ceb25a05d0ddbc9b3434559a996d098379bc5bc195a6bee",
        "network" : "Frontier",
        "postState" : {
            "0x2adc25665018aa1fe0e6bc666dac8fc2697ff9ba" : {
                "balance" : "0x4563918244f56b48",
                "code" : "",
                "nonce" : "0x00",
                "storage" : {
                }
            },
            "0x7db299e0885c85039f56fa504a13dd8ce8a56aa7" : {
                "balance" : "0x01",
                "code" : "",
                "nonce" : "0x00",
                "storage" : {
                }
            },
            "0xa000000000000000000000000000000000000000" : {
                "balance" : "0x01",
                "code" : "0x602060006000f0600055600c600155",
                "nonce" : "0x00",
                "storage" : {
                }
            },
            "0xa94f5374fce5edbc8e2a8697c15331677e6ebf0b" : {
                "balance" : "0xe8d4a3a4b8",
                "code" : "",
                "nonce" : "0x01",
                "storage" : {
                }
            }
        },
        "pre" : {
            "0x7db299e0885c85039f56fa504a13dd8ce8a56aa7" : {
                "balance" : "0x01",
                "code" : "",
                "nonce" : "0x00",
                "storage" : {
                }
            },
            "0xa000000000000000000000000000000000000000" : {
                "balance" : "0x01",
                "code" : "0x602060006000f0600055600c600155",
                "nonce" : "0x00",
                "storage" : {
                }
            },
            "0xa94f5374fce5edbc8e2a8697c15331677e6ebf0b" : {
                "balance" : "0xe8d4a51000",
                "code" : "",
                "nonce" : "0x00",
                "storage" : {
                }
            }
        }
    },
    "RevertPrefoundOOG_d0g0v0_Homestead" : {
        "_info" : {
            "comment" : "",
            "filledwith" : "cpp-1.3.0+commit.6e0ce939.Linux.g++",
            "lllcversion" : "Version: 0.4.18-develop.2017.9.25+commit.a72237f2.Linux.g++",
            "source" : "src/BlockchainTestsFiller/GeneralStateTests/stRevertTest/RevertPrefoundOOG_d0g0v0Filler.json",
            "sourceHash" : "e6ed3e48996bc71d7b8d13656fedad5badf49e78f1df4b01938c9979153b5bae"
        },
        "blocks" : [
            {
                "blockHeader" : {
                    "bloom" : "0x00000000000000000000000000000000000000000000000000000000000000000000000000000000000000000000000000000000000000000000000000000000000000000000000000000000000000000000000000000000000000000000000000000000000000000000000000000000000000000000000000000000000000000000000000000000000000000000000000000000000000000000000000000000000000000000000000000000000000000000000000000000000000000000000000000000000000000000000000000000000000000000000000000000000000000000000000000000000000000000000000000000000000000000000000000000",
                    "coinbase" : "0x2adc25665018aa1fe0e6bc666dac8fc2697ff9ba",
                    "difficulty" : "0x020000",
                    "extraData" : "",
                    "gasLimit" : "0x989680",
                    "gasUsed" : "0x016b48",
                    "hash" : "0x05a0de1a809f1cea9de69400c8fe30af41e011ada64e4c7ff38929076ddb87bb",
                    "mixHash" : "0xeff39235f7b2a695bea732e9f10787c7fd415356b8473b5ec97f122ba10beddf",
                    "nonce" : "0xb5e86255c7502ce6",
                    "number" : "0x01",
                    "parentHash" : "0x575878eab175ec22eee356beb8a45a94535c8c75b980f38940df1bd428f076d1",
                    "receiptTrie" : "0xbd364c91862beb5cc7367c44bfe2a2450f6bf3f19029063ed773b20a2afa1345",
                    "stateRoot" : "0x3450e641669fbafc849b6c59e30d72d6e770bb4d5af889f996e2e58f58943462",
                    "timestamp" : "0x03e8",
                    "transactionsTrie" : "0x4169e812fe662239d8c464c34515caa66dffa912859b360668668d35741543c1",
                    "uncleHash" : "0x1dcc4de8dec75d7aab85b567b6ccd41ad312451b948a7413f0a142fd40d49347"
                },
                "rlp" : "0xf90260f901f8a0575878eab175ec22eee356beb8a45a94535c8c75b980f38940df1bd428f076d1a01dcc4de8dec75d7aab85b567b6ccd41ad312451b948a7413f0a142fd40d49347942adc25665018aa1fe0e6bc666dac8fc2697ff9baa03450e641669fbafc849b6c59e30d72d6e770bb4d5af889f996e2e58f58943462a04169e812fe662239d8c464c34515caa66dffa912859b360668668d35741543c1a0bd364c91862beb5cc7367c44bfe2a2450f6bf3f19029063ed773b20a2afa1345b901000000000000000000000000000000000000000000000000000000000000000000000000000000000000000000000000000000000000000000000000000000000000000000000000000000000000000000000000000000000000000000000000000000000000000000000000000000000000000000000000000000000000000000000000000000000000000000000000000000000000000000000000000000000000000000000000000000000000000000000000000000000000000000000000000000000000000000000000000000000000000000000000000000000000000000000000000000000000000000000000000000000000000000000000000000000083020000018398968083016b488203e880a0eff39235f7b2a695bea732e9f10787c7fd415356b8473b5ec97f122ba10beddf88b5e86255c7502ce6f862f860800183016b4894a00000000000000000000000000000000000000080801ca0d33edc94825b2014a3f433643597c12717eb1c31a002b106bfd36f7c5f3585d4a057cf76e2958fa2458f2f7968732544f5ead49e6e82d493a1d08f44f4c85e7cabc0",
                "transactions" : [
                    {
                        "data" : "",
                        "gasLimit" : "0x016b48",
                        "gasPrice" : "0x01",
                        "nonce" : "0x00",
                        "r" : "0xd33edc94825b2014a3f433643597c12717eb1c31a002b106bfd36f7c5f3585d4",
                        "s" : "0x57cf76e2958fa2458f2f7968732544f5ead49e6e82d493a1d08f44f4c85e7cab",
                        "to" : "0xa000000000000000000000000000000000000000",
                        "v" : "0x1c",
                        "value" : "0x00"
                    }
                ],
                "uncleHeaders" : [
                ]
            }
        ],
        "genesisBlockHeader" : {
            "bloom" : "0x00000000000000000000000000000000000000000000000000000000000000000000000000000000000000000000000000000000000000000000000000000000000000000000000000000000000000000000000000000000000000000000000000000000000000000000000000000000000000000000000000000000000000000000000000000000000000000000000000000000000000000000000000000000000000000000000000000000000000000000000000000000000000000000000000000000000000000000000000000000000000000000000000000000000000000000000000000000000000000000000000000000000000000000000000000000",
            "coinbase" : "0x2adc25665018aa1fe0e6bc666dac8fc2697ff9ba",
            "difficulty" : "0x020000",
            "extraData" : "0x42",
            "gasLimit" : "0x989680",
            "gasUsed" : "0x00",
            "hash" : "0x575878eab175ec22eee356beb8a45a94535c8c75b980f38940df1bd428f076d1",
            "mixHash" : "0x56e81f171bcc55a6ff8345e692c0f86e5b48e01b996cadc001622fb5e363b421",
            "nonce" : "0x0102030405060708",
            "number" : "0x00",
            "parentHash" : "0x0000000000000000000000000000000000000000000000000000000000000000",
            "receiptTrie" : "0x56e81f171bcc55a6ff8345e692c0f86e5b48e01b996cadc001622fb5e363b421",
            "stateRoot" : "0x6145ea5e1a8da1666a61c60c38aed206d476ae44b3448168f52ba5169aea97fd",
            "timestamp" : "0x03b6",
            "transactionsTrie" : "0x56e81f171bcc55a6ff8345e692c0f86e5b48e01b996cadc001622fb5e363b421",
            "uncleHash" : "0x1dcc4de8dec75d7aab85b567b6ccd41ad312451b948a7413f0a142fd40d49347"
        },
        "genesisRLP" : "0xf901faf901f5a00000000000000000000000000000000000000000000000000000000000000000a01dcc4de8dec75d7aab85b567b6ccd41ad312451b948a7413f0a142fd40d49347942adc25665018aa1fe0e6bc666dac8fc2697ff9baa06145ea5e1a8da1666a61c60c38aed206d476ae44b3448168f52ba5169aea97fda056e81f171bcc55a6ff8345e692c0f86e5b48e01b996cadc001622fb5e363b421a056e81f171bcc55a6ff8345e692c0f86e5b48e01b996cadc001622fb5e363b421b9010000000000000000000000000000000000000000000000000000000000000000000000000000000000000000000000000000000000000000000000000000000000000000000000000000000000000000000000000000000000000000000000000000000000000000000000000000000000000000000000000000000000000000000000000000000000000000000000000000000000000000000000000000000000000000000000000000000000000000000000000000000000000000000000000000000000000000000000000000000000000000000000000000000000000000000000000000000000000000000000000000000000000000000000000000000000830200008083989680808203b642a056e81f171bcc55a6ff8345e692c0f86e5b48e01b996cadc001622fb5e363b421880102030405060708c0c0",
        "lastblockhash" : "0x05a0de1a809f1cea9de69400c8fe30af41e011ada64e4c7ff38929076ddb87bb",
        "network" : "Homestead",
        "postState" : {
            "0x2adc25665018aa1fe0e6bc666dac8fc2697ff9ba" : {
                "balance" : "0x4563918244f56b48",
                "code" : "",
                "nonce" : "0x00",
                "storage" : {
                }
            },
            "0x7db299e0885c85039f56fa504a13dd8ce8a56aa7" : {
                "balance" : "0x01",
                "code" : "",
                "nonce" : "0x00",
                "storage" : {
                }
            },
            "0xa000000000000000000000000000000000000000" : {
                "balance" : "0x01",
                "code" : "0x602060006000f0600055600c600155",
                "nonce" : "0x00",
                "storage" : {
                }
            },
            "0xa94f5374fce5edbc8e2a8697c15331677e6ebf0b" : {
                "balance" : "0xe8d4a3a4b8",
                "code" : "",
                "nonce" : "0x01",
                "storage" : {
                }
            }
        },
        "pre" : {
            "0x7db299e0885c85039f56fa504a13dd8ce8a56aa7" : {
                "balance" : "0x01",
                "code" : "",
                "nonce" : "0x00",
                "storage" : {
                }
            },
            "0xa000000000000000000000000000000000000000" : {
                "balance" : "0x01",
                "code" : "0x602060006000f0600055600c600155",
                "nonce" : "0x00",
                "storage" : {
                }
            },
            "0xa94f5374fce5edbc8e2a8697c15331677e6ebf0b" : {
                "balance" : "0xe8d4a51000",
                "code" : "",
                "nonce" : "0x00",
                "storage" : {
                }
            }
        }
    }
}