{
    "RevertDepthCreateAddressCollision_d0g0v0_Byzantium" : {
        "_info" : {
            "comment" : "",
            "filledwith" : "cpp-1.3.0+commit.6e0ce939.Linux.g++",
            "lllcversion" : "Version: 0.4.18-develop.2017.9.25+commit.a72237f2.Linux.g++",
            "source" : "src/BlockchainTestsFiller/GeneralStateTests/stRevertTest/RevertDepthCreateAddressCollision_d0g0v0Filler.json",
            "sourceHash" : "a706d781f7c2ab167f795167544757f7af607daf42b3791a2f8227e21c7ad7d6"
        },
        "blocks" : [
            {
                "blockHeader" : {
                    "bloom" : "0x00000000000000000000000000000000000000000000000000000000000000000000000000000000000000000000000000000000000000000000000000000000000000000000000000000000000000000000000000000000000000000000000000000000000000000000000000000000000000000000000000000000000000000000000000000000000000000000000000000000000000000000000000000000000000000000000000000000000000000000000000000000000000000000000000000000000000000000000000000000000000000000000000000000000000000000000000000000000000000000000000000000000000000000000000000000",
                    "coinbase" : "0x2adc25665018aa1fe0e6bc666dac8fc2697ff9ba",
                    "difficulty" : "0x020000",
                    "extraData" : "",
                    "gasLimit" : "0x989680",
                    "gasUsed" : "0x01adb0",
                    "hash" : "0x596f714f7dbef4f8f1b061b63ba5581c8dc4a505d58aab38bfca6fc0ef76eb0b",
                    "mixHash" : "0xe8f7a6569fd24d72109dc698899c3e2fec439b4262700371a6b37ca3c6db0b2a",
                    "nonce" : "0xf0d49fb3ca0d461b",
                    "number" : "0x01",
                    "parentHash" : "0x93dcf85bc7a76227f7e21e4ea5f868b5fe35b40c9bacc70d21636b4aea2c8427",
                    "receiptTrie" : "0xfd21849a7839c2c75da6c5f2828e953f017b356f3e968aba1a97ac6f6c5b31f3",
                    "stateRoot" : "0xca852c22237723a386172351fce0a6229ec278de567d4f828dfe5d0849bfd124",
                    "timestamp" : "0x03e8",
                    "transactionsTrie" : "0x23c0d3758fafe8091129eb77acb4a8b0539a98f61ab9973403ef5ccdda568c54",
                    "uncleHash" : "0x1dcc4de8dec75d7aab85b567b6ccd41ad312451b948a7413f0a142fd40d49347"
                },
                "rlp" : "0xf90280f901f8a093dcf85bc7a76227f7e21e4ea5f868b5fe35b40c9bacc70d21636b4aea2c8427a01dcc4de8dec75d7aab85b567b6ccd41ad312451b948a7413f0a142fd40d49347942adc25665018aa1fe0e6bc666dac8fc2697ff9baa0ca852c22237723a386172351fce0a6229ec278de567d4f828dfe5d0849bfd124a023c0d3758fafe8091129eb77acb4a8b0539a98f61ab9973403ef5ccdda568c54a0fd21849a7839c2c75da6c5f2828e953f017b356f3e968aba1a97ac6f6c5b31f3b90100000000000000000000000000000000000000000000000000000000000000000000000000000000000000000000000000000000000000000000000000000000000000000000000000000000000000000000000000000000000000000000000000000000000000000000000000000000000000000000000000000000000000000000000000000000000000000000000000000000000000000000000000000000000000000000000000000000000000000000000000000000000000000000000000000000000000000000000000000000000000000000000000000000000000000000000000000000000000000000000000000000000000000000000000000000008302000001839896808301adb08203e880a0e8f7a6569fd24d72109dc698899c3e2fec439b4262700371a6b37ca3c6db0b2a88f0d49fb3ca0d461bf882f88080018301adb0943e180b1862f9d158abb5e519a6d8605540c2368201a0000000000000000000000000000000000000000000000000000000000000ea601ca052440d702c31ca78d1e89a9f5f0ee6554bda5a781b175ae21edf7594bd6cc7e9a052e53542b83c552eecd9afc95cab350d90c4b1f9ce536353e68fb96c06b69df1c0",
                "transactions" : [
                    {
                        "data" : "0x000000000000000000000000000000000000000000000000000000000000ea60",
                        "gasLimit" : "0x01adb0",
                        "gasPrice" : "0x01",
                        "nonce" : "0x00",
                        "r" : "0x52440d702c31ca78d1e89a9f5f0ee6554bda5a781b175ae21edf7594bd6cc7e9",
                        "s" : "0x52e53542b83c552eecd9afc95cab350d90c4b1f9ce536353e68fb96c06b69df1",
                        "to" : "0x3e180b1862f9d158abb5e519a6d8605540c23682",
                        "v" : "0x1c",
                        "value" : "0x01"
                    }
                ],
                "uncleHeaders" : [
                ]
            }
        ],
        "genesisBlockHeader" : {
            "bloom" : "0x00000000000000000000000000000000000000000000000000000000000000000000000000000000000000000000000000000000000000000000000000000000000000000000000000000000000000000000000000000000000000000000000000000000000000000000000000000000000000000000000000000000000000000000000000000000000000000000000000000000000000000000000000000000000000000000000000000000000000000000000000000000000000000000000000000000000000000000000000000000000000000000000000000000000000000000000000000000000000000000000000000000000000000000000000000000",
            "coinbase" : "0x2adc25665018aa1fe0e6bc666dac8fc2697ff9ba",
            "difficulty" : "0x020000",
            "extraData" : "0x42",
            "gasLimit" : "0x989680",
            "gasUsed" : "0x00",
            "hash" : "0x93dcf85bc7a76227f7e21e4ea5f868b5fe35b40c9bacc70d21636b4aea2c8427",
            "mixHash" : "0x56e81f171bcc55a6ff8345e692c0f86e5b48e01b996cadc001622fb5e363b421",
            "nonce" : "0x0102030405060708",
            "number" : "0x00",
            "parentHash" : "0x0000000000000000000000000000000000000000000000000000000000000000",
            "receiptTrie" : "0x56e81f171bcc55a6ff8345e692c0f86e5b48e01b996cadc001622fb5e363b421",
            "stateRoot" : "0x2021386d37ea74464f53e382b6525956b68259567a65fab0e9021c9d25a86cf3",
            "timestamp" : "0x03b6",
            "transactionsTrie" : "0x56e81f171bcc55a6ff8345e692c0f86e5b48e01b996cadc001622fb5e363b421",
            "uncleHash" : "0x1dcc4de8dec75d7aab85b567b6ccd41ad312451b948a7413f0a142fd40d49347"
        },
        "genesisRLP" : "0xf901faf901f5a00000000000000000000000000000000000000000000000000000000000000000a01dcc4de8dec75d7aab85b567b6ccd41ad312451b948a7413f0a142fd40d49347942adc25665018aa1fe0e6bc666dac8fc2697ff9baa02021386d37ea74464f53e382b6525956b68259567a65fab0e9021c9d25a86cf3a056e81f171bcc55a6ff8345e692c0f86e5b48e01b996cadc001622fb5e363b421a056e81f171bcc55a6ff8345e692c0f86e5b48e01b996cadc001622fb5e363b421b9010000000000000000000000000000000000000000000000000000000000000000000000000000000000000000000000000000000000000000000000000000000000000000000000000000000000000000000000000000000000000000000000000000000000000000000000000000000000000000000000000000000000000000000000000000000000000000000000000000000000000000000000000000000000000000000000000000000000000000000000000000000000000000000000000000000000000000000000000000000000000000000000000000000000000000000000000000000000000000000000000000000000000000000000000000000000830200008083989680808203b642a056e81f171bcc55a6ff8345e692c0f86e5b48e01b996cadc001622fb5e363b421880102030405060708c0c0",
        "lastblockhash" : "0x596f714f7dbef4f8f1b061b63ba5581c8dc4a505d58aab38bfca6fc0ef76eb0b",
        "network" : "Byzantium",
        "postState" : {
            "0x2adc25665018aa1fe0e6bc666dac8fc2697ff9ba" : {
                "balance" : "0x29a2241af62dadb0",
                "code" : "",
                "nonce" : "0x00",
                "storage" : {
                }
            },
            "0x3e180b1862f9d158abb5e519a6d8605540c23682" : {
                "balance" : "0x05",
                "code" : "0x60016000556000600060006000600073b000000000000000000000000000000000000000600035f1600155600c600455",
                "nonce" : "0x36",
                "storage" : {
                }
            },
            "0xa94f5374fce5edbc8e2a8697c15331677e6ebf0b" : {
                "balance" : "0xe8d4a36250",
                "code" : "",
                "nonce" : "0x01",
                "storage" : {
                }
            },
            "0xb000000000000000000000000000000000000000" : {
                "balance" : "0x00",
                "code" : "0x6008600255600060006000f050600c600355",
                "nonce" : "0x00",
                "storage" : {
                }
            }
        },
        "pre" : {
            "0x3e180b1862f9d158abb5e519a6d8605540c23682" : {
                "balance" : "0x05",
                "code" : "0x60016000556000600060006000600073b000000000000000000000000000000000000000600035f1600155600c600455",
                "nonce" : "0x36",
                "storage" : {
                }
            },
            "0xa94f5374fce5edbc8e2a8697c15331677e6ebf0b" : {
                "balance" : "0xe8d4a51000",
                "code" : "",
                "nonce" : "0x00",
                "storage" : {
                }
            },
            "0xb000000000000000000000000000000000000000" : {
                "balance" : "0x00",
                "code" : "0x6008600255600060006000f050600c600355",
                "nonce" : "0x00",
                "storage" : {
                }
            }
        }
    },
    "RevertDepthCreateAddressCollision_d0g0v0_EIP150" : {
        "_info" : {
            "comment" : "",
            "filledwith" : "cpp-1.3.0+commit.6e0ce939.Linux.g++",
            "lllcversion" : "Version: 0.4.18-develop.2017.9.25+commit.a72237f2.Linux.g++",
            "source" : "src/BlockchainTestsFiller/GeneralStateTests/stRevertTest/RevertDepthCreateAddressCollision_d0g0v0Filler.json",
            "sourceHash" : "a706d781f7c2ab167f795167544757f7af607daf42b3791a2f8227e21c7ad7d6"
        },
        "blocks" : [
            {
                "blockHeader" : {
                    "bloom" : "0x00000000000000000000000000000000000000000000000000000000000000000000000000000000000000000000000000000000000000000000000000000000000000000000000000000000000000000000000000000000000000000000000000000000000000000000000000000000000000000000000000000000000000000000000000000000000000000000000000000000000000000000000000000000000000000000000000000000000000000000000000000000000000000000000000000000000000000000000000000000000000000000000000000000000000000000000000000000000000000000000000000000000000000000000000000000",
                    "coinbase" : "0x2adc25665018aa1fe0e6bc666dac8fc2697ff9ba",
                    "difficulty" : "0x020000",
                    "extraData" : "",
                    "gasLimit" : "0x989680",
                    "gasUsed" : "0x01adb0",
                    "hash" : "0xc878869cae130f9e3642c0ec2ea37b7129ddb9215fb4fcef60c232b7695bb83a",
                    "mixHash" : "0x6e324dcfbb13d39d13c6dc42270d9009a774b000c5256eb92980c440cacd9047",
                    "nonce" : "0x96bf234ea0b8a3dc",
                    "number" : "0x01",
                    "parentHash" : "0x93dcf85bc7a76227f7e21e4ea5f868b5fe35b40c9bacc70d21636b4aea2c8427",
                    "receiptTrie" : "0xc179fe8c06cb1c853d90b238977038c12fd7db327848a009f85d13aa675e79fa",
                    "stateRoot" : "0x4e6cbd7d8c4fefa307e3673433fdda8658227597cd2b8f1ab3928a6c9ada083e",
                    "timestamp" : "0x03e8",
                    "transactionsTrie" : "0x23c0d3758fafe8091129eb77acb4a8b0539a98f61ab9973403ef5ccdda568c54",
                    "uncleHash" : "0x1dcc4de8dec75d7aab85b567b6ccd41ad312451b948a7413f0a142fd40d49347"
                },
                "rlp" : "0xf90280f901f8a093dcf85bc7a76227f7e21e4ea5f868b5fe35b40c9bacc70d21636b4aea2c8427a01dcc4de8dec75d7aab85b567b6ccd41ad312451b948a7413f0a142fd40d49347942adc25665018aa1fe0e6bc666dac8fc2697ff9baa04e6cbd7d8c4fefa307e3673433fdda8658227597cd2b8f1ab3928a6c9ada083ea023c0d3758fafe8091129eb77acb4a8b0539a98f61ab9973403ef5ccdda568c54a0c179fe8c06cb1c853d90b238977038c12fd7db327848a009f85d13aa675e79fab90100000000000000000000000000000000000000000000000000000000000000000000000000000000000000000000000000000000000000000000000000000000000000000000000000000000000000000000000000000000000000000000000000000000000000000000000000000000000000000000000000000000000000000000000000000000000000000000000000000000000000000000000000000000000000000000000000000000000000000000000000000000000000000000000000000000000000000000000000000000000000000000000000000000000000000000000000000000000000000000000000000000000000000000000000000000008302000001839896808301adb08203e880a06e324dcfbb13d39d13c6dc42270d9009a774b000c5256eb92980c440cacd90478896bf234ea0b8a3dcf882f88080018301adb0943e180b1862f9d158abb5e519a6d8605540c2368201a0000000000000000000000000000000000000000000000000000000000000ea601ca052440d702c31ca78d1e89a9f5f0ee6554bda5a781b175ae21edf7594bd6cc7e9a052e53542b83c552eecd9afc95cab350d90c4b1f9ce536353e68fb96c06b69df1c0",
                "transactions" : [
                    {
                        "data" : "0x000000000000000000000000000000000000000000000000000000000000ea60",
                        "gasLimit" : "0x01adb0",
                        "gasPrice" : "0x01",
                        "nonce" : "0x00",
                        "r" : "0x52440d702c31ca78d1e89a9f5f0ee6554bda5a781b175ae21edf7594bd6cc7e9",
                        "s" : "0x52e53542b83c552eecd9afc95cab350d90c4b1f9ce536353e68fb96c06b69df1",
                        "to" : "0x3e180b1862f9d158abb5e519a6d8605540c23682",
                        "v" : "0x1c",
                        "value" : "0x01"
                    }
                ],
                "uncleHeaders" : [
                ]
            }
        ],
        "genesisBlockHeader" : {
            "bloom" : "0x00000000000000000000000000000000000000000000000000000000000000000000000000000000000000000000000000000000000000000000000000000000000000000000000000000000000000000000000000000000000000000000000000000000000000000000000000000000000000000000000000000000000000000000000000000000000000000000000000000000000000000000000000000000000000000000000000000000000000000000000000000000000000000000000000000000000000000000000000000000000000000000000000000000000000000000000000000000000000000000000000000000000000000000000000000000",
            "coinbase" : "0x2adc25665018aa1fe0e6bc666dac8fc2697ff9ba",
            "difficulty" : "0x020000",
            "extraData" : "0x42",
            "gasLimit" : "0x989680",
            "gasUsed" : "0x00",
            "hash" : "0x93dcf85bc7a76227f7e21e4ea5f868b5fe35b40c9bacc70d21636b4aea2c8427",
            "mixHash" : "0x56e81f171bcc55a6ff8345e692c0f86e5b48e01b996cadc001622fb5e363b421",
            "nonce" : "0x0102030405060708",
            "number" : "0x00",
            "parentHash" : "0x0000000000000000000000000000000000000000000000000000000000000000",
            "receiptTrie" : "0x56e81f171bcc55a6ff8345e692c0f86e5b48e01b996cadc001622fb5e363b421",
            "stateRoot" : "0x2021386d37ea74464f53e382b6525956b68259567a65fab0e9021c9d25a86cf3",
            "timestamp" : "0x03b6",
            "transactionsTrie" : "0x56e81f171bcc55a6ff8345e692c0f86e5b48e01b996cadc001622fb5e363b421",
            "uncleHash" : "0x1dcc4de8dec75d7aab85b567b6ccd41ad312451b948a7413f0a142fd40d49347"
        },
        "genesisRLP" : "0xf901faf901f5a00000000000000000000000000000000000000000000000000000000000000000a01dcc4de8dec75d7aab85b567b6ccd41ad312451b948a7413f0a142fd40d49347942adc25665018aa1fe0e6bc666dac8fc2697ff9baa02021386d37ea74464f53e382b6525956b68259567a65fab0e9021c9d25a86cf3a056e81f171bcc55a6ff8345e692c0f86e5b48e01b996cadc001622fb5e363b421a056e81f171bcc55a6ff8345e692c0f86e5b48e01b996cadc001622fb5e363b421b9010000000000000000000000000000000000000000000000000000000000000000000000000000000000000000000000000000000000000000000000000000000000000000000000000000000000000000000000000000000000000000000000000000000000000000000000000000000000000000000000000000000000000000000000000000000000000000000000000000000000000000000000000000000000000000000000000000000000000000000000000000000000000000000000000000000000000000000000000000000000000000000000000000000000000000000000000000000000000000000000000000000000000000000000000000000000830200008083989680808203b642a056e81f171bcc55a6ff8345e692c0f86e5b48e01b996cadc001622fb5e363b421880102030405060708c0c0",
        "lastblockhash" : "0xc878869cae130f9e3642c0ec2ea37b7129ddb9215fb4fcef60c232b7695bb83a",
        "network" : "EIP150",
        "postState" : {
            "0x2adc25665018aa1fe0e6bc666dac8fc2697ff9ba" : {
                "balance" : "0x4563918244f5adb0",
                "code" : "",
                "nonce" : "0x00",
                "storage" : {
                }
            },
            "0x3e180b1862f9d158abb5e519a6d8605540c23682" : {
                "balance" : "0x05",
                "code" : "0x60016000556000600060006000600073b000000000000000000000000000000000000000600035f1600155600c600455",
                "nonce" : "0x36",
                "storage" : {
                }
            },
            "0xa94f5374fce5edbc8e2a8697c15331677e6ebf0b" : {
                "balance" : "0xe8d4a36250",
                "code" : "",
                "nonce" : "0x01",
                "storage" : {
                }
            },
            "0xb000000000000000000000000000000000000000" : {
                "balance" : "0x00",
                "code" : "0x6008600255600060006000f050600c600355",
                "nonce" : "0x00",
                "storage" : {
                }
            }
        },
        "pre" : {
            "0x3e180b1862f9d158abb5e519a6d8605540c23682" : {
                "balance" : "0x05",
                "code" : "0x60016000556000600060006000600073b000000000000000000000000000000000000000600035f1600155600c600455",
                "nonce" : "0x36",
                "storage" : {
                }
            },
            "0xa94f5374fce5edbc8e2a8697c15331677e6ebf0b" : {
                "balance" : "0xe8d4a51000",
                "code" : "",
                "nonce" : "0x00",
                "storage" : {
                }
            },
            "0xb000000000000000000000000000000000000000" : {
                "balance" : "0x00",
                "code" : "0x6008600255600060006000f050600c600355",
                "nonce" : "0x00",
                "storage" : {
                }
            }
        }
    },
    "RevertDepthCreateAddressCollision_d0g0v0_EIP158" : {
        "_info" : {
            "comment" : "",
            "filledwith" : "cpp-1.3.0+commit.6e0ce939.Linux.g++",
            "lllcversion" : "Version: 0.4.18-develop.2017.9.25+commit.a72237f2.Linux.g++",
            "source" : "src/BlockchainTestsFiller/GeneralStateTests/stRevertTest/RevertDepthCreateAddressCollision_d0g0v0Filler.json",
            "sourceHash" : "a706d781f7c2ab167f795167544757f7af607daf42b3791a2f8227e21c7ad7d6"
        },
        "blocks" : [
            {
                "blockHeader" : {
                    "bloom" : "0x00000000000000000000000000000000000000000000000000000000000000000000000000000000000000000000000000000000000000000000000000000000000000000000000000000000000000000000000000000000000000000000000000000000000000000000000000000000000000000000000000000000000000000000000000000000000000000000000000000000000000000000000000000000000000000000000000000000000000000000000000000000000000000000000000000000000000000000000000000000000000000000000000000000000000000000000000000000000000000000000000000000000000000000000000000000",
                    "coinbase" : "0x2adc25665018aa1fe0e6bc666dac8fc2697ff9ba",
                    "difficulty" : "0x020000",
                    "extraData" : "",
                    "gasLimit" : "0x989680",
                    "gasUsed" : "0x01adb0",
                    "hash" : "0xc720528db97e9f95fee72ae6d9d9eccf2390dc8258e96067096970584657592f",
                    "mixHash" : "0xef44c3c3c4ae3ef442648ebc520b24d3599e10370430b45ec0fa431e3cb48354",
                    "nonce" : "0xe79f1357a4dfcf4e",
                    "number" : "0x01",
                    "parentHash" : "0x93dcf85bc7a76227f7e21e4ea5f868b5fe35b40c9bacc70d21636b4aea2c8427",
                    "receiptTrie" : "0xc179fe8c06cb1c853d90b238977038c12fd7db327848a009f85d13aa675e79fa",
                    "stateRoot" : "0x4e6cbd7d8c4fefa307e3673433fdda8658227597cd2b8f1ab3928a6c9ada083e",
                    "timestamp" : "0x03e8",
                    "transactionsTrie" : "0x23c0d3758fafe8091129eb77acb4a8b0539a98f61ab9973403ef5ccdda568c54",
                    "uncleHash" : "0x1dcc4de8dec75d7aab85b567b6ccd41ad312451b948a7413f0a142fd40d49347"
                },
                "rlp" : "0xf90280f901f8a093dcf85bc7a76227f7e21e4ea5f868b5fe35b40c9bacc70d21636b4aea2c8427a01dcc4de8dec75d7aab85b567b6ccd41ad312451b948a7413f0a142fd40d49347942adc25665018aa1fe0e6bc666dac8fc2697ff9baa04e6cbd7d8c4fefa307e3673433fdda8658227597cd2b8f1ab3928a6c9ada083ea023c0d3758fafe8091129eb77acb4a8b0539a98f61ab9973403ef5ccdda568c54a0c179fe8c06cb1c853d90b238977038c12fd7db327848a009f85d13aa675e79fab90100000000000000000000000000000000000000000000000000000000000000000000000000000000000000000000000000000000000000000000000000000000000000000000000000000000000000000000000000000000000000000000000000000000000000000000000000000000000000000000000000000000000000000000000000000000000000000000000000000000000000000000000000000000000000000000000000000000000000000000000000000000000000000000000000000000000000000000000000000000000000000000000000000000000000000000000000000000000000000000000000000000000000000000000000000000008302000001839896808301adb08203e880a0ef44c3c3c4ae3ef442648ebc520b24d3599e10370430b45ec0fa431e3cb4835488e79f1357a4dfcf4ef882f88080018301adb0943e180b1862f9d158abb5e519a6d8605540c2368201a0000000000000000000000000000000000000000000000000000000000000ea601ca052440d702c31ca78d1e89a9f5f0ee6554bda5a781b175ae21edf7594bd6cc7e9a052e53542b83c552eecd9afc95cab350d90c4b1f9ce536353e68fb96c06b69df1c0",
                "transactions" : [
                    {
                        "data" : "0x000000000000000000000000000000000000000000000000000000000000ea60",
                        "gasLimit" : "0x01adb0",
                        "gasPrice" : "0x01",
                        "nonce" : "0x00",
                        "r" : "0x52440d702c31ca78d1e89a9f5f0ee6554bda5a781b175ae21edf7594bd6cc7e9",
                        "s" : "0x52e53542b83c552eecd9afc95cab350d90c4b1f9ce536353e68fb96c06b69df1",
                        "to" : "0x3e180b1862f9d158abb5e519a6d8605540c23682",
                        "v" : "0x1c",
                        "value" : "0x01"
                    }
                ],
                "uncleHeaders" : [
                ]
            }
        ],
        "genesisBlockHeader" : {
            "bloom" : "0x00000000000000000000000000000000000000000000000000000000000000000000000000000000000000000000000000000000000000000000000000000000000000000000000000000000000000000000000000000000000000000000000000000000000000000000000000000000000000000000000000000000000000000000000000000000000000000000000000000000000000000000000000000000000000000000000000000000000000000000000000000000000000000000000000000000000000000000000000000000000000000000000000000000000000000000000000000000000000000000000000000000000000000000000000000000",
            "coinbase" : "0x2adc25665018aa1fe0e6bc666dac8fc2697ff9ba",
            "difficulty" : "0x020000",
            "extraData" : "0x42",
            "gasLimit" : "0x989680",
            "gasUsed" : "0x00",
            "hash" : "0x93dcf85bc7a76227f7e21e4ea5f868b5fe35b40c9bacc70d21636b4aea2c8427",
            "mixHash" : "0x56e81f171bcc55a6ff8345e692c0f86e5b48e01b996cadc001622fb5e363b421",
            "nonce" : "0x0102030405060708",
            "number" : "0x00",
            "parentHash" : "0x0000000000000000000000000000000000000000000000000000000000000000",
            "receiptTrie" : "0x56e81f171bcc55a6ff8345e692c0f86e5b48e01b996cadc001622fb5e363b421",
            "stateRoot" : "0x2021386d37ea74464f53e382b6525956b68259567a65fab0e9021c9d25a86cf3",
            "timestamp" : "0x03b6",
            "transactionsTrie" : "0x56e81f171bcc55a6ff8345e692c0f86e5b48e01b996cadc001622fb5e363b421",
            "uncleHash" : "0x1dcc4de8dec75d7aab85b567b6ccd41ad312451b948a7413f0a142fd40d49347"
        },
        "genesisRLP" : "0xf901faf901f5a00000000000000000000000000000000000000000000000000000000000000000a01dcc4de8dec75d7aab85b567b6ccd41ad312451b948a7413f0a142fd40d49347942adc25665018aa1fe0e6bc666dac8fc2697ff9baa02021386d37ea74464f53e382b6525956b68259567a65fab0e9021c9d25a86cf3a056e81f171bcc55a6ff8345e692c0f86e5b48e01b996cadc001622fb5e363b421a056e81f171bcc55a6ff8345e692c0f86e5b48e01b996cadc001622fb5e363b421b9010000000000000000000000000000000000000000000000000000000000000000000000000000000000000000000000000000000000000000000000000000000000000000000000000000000000000000000000000000000000000000000000000000000000000000000000000000000000000000000000000000000000000000000000000000000000000000000000000000000000000000000000000000000000000000000000000000000000000000000000000000000000000000000000000000000000000000000000000000000000000000000000000000000000000000000000000000000000000000000000000000000000000000000000000000000000830200008083989680808203b642a056e81f171bcc55a6ff8345e692c0f86e5b48e01b996cadc001622fb5e363b421880102030405060708c0c0",
        "lastblockhash" : "0xc720528db97e9f95fee72ae6d9d9eccf2390dc8258e96067096970584657592f",
        "network" : "EIP158",
        "postState" : {
            "0x2adc25665018aa1fe0e6bc666dac8fc2697ff9ba" : {
                "balance" : "0x4563918244f5adb0",
                "code" : "",
                "nonce" : "0x00",
                "storage" : {
                }
            },
            "0x3e180b1862f9d158abb5e519a6d8605540c23682" : {
                "balance" : "0x05",
                "code" : "0x60016000556000600060006000600073b000000000000000000000000000000000000000600035f1600155600c600455",
                "nonce" : "0x36",
                "storage" : {
                }
            },
            "0xa94f5374fce5edbc8e2a8697c15331677e6ebf0b" : {
                "balance" : "0xe8d4a36250",
                "code" : "",
                "nonce" : "0x01",
                "storage" : {
                }
            },
            "0xb000000000000000000000000000000000000000" : {
                "balance" : "0x00",
                "code" : "0x6008600255600060006000f050600c600355",
                "nonce" : "0x00",
                "storage" : {
                }
            }
        },
        "pre" : {
            "0x3e180b1862f9d158abb5e519a6d8605540c23682" : {
                "balance" : "0x05",
                "code" : "0x60016000556000600060006000600073b000000000000000000000000000000000000000600035f1600155600c600455",
                "nonce" : "0x36",
                "storage" : {
                }
            },
            "0xa94f5374fce5edbc8e2a8697c15331677e6ebf0b" : {
                "balance" : "0xe8d4a51000",
                "code" : "",
                "nonce" : "0x00",
                "storage" : {
                }
            },
            "0xb000000000000000000000000000000000000000" : {
                "balance" : "0x00",
                "code" : "0x6008600255600060006000f050600c600355",
                "nonce" : "0x00",
                "storage" : {
                }
            }
        }
    },
    "RevertDepthCreateAddressCollision_d0g0v0_Frontier" : {
        "_info" : {
            "comment" : "",
            "filledwith" : "cpp-1.3.0+commit.6e0ce939.Linux.g++",
            "lllcversion" : "Version: 0.4.18-develop.2017.9.25+commit.a72237f2.Linux.g++",
            "source" : "src/BlockchainTestsFiller/GeneralStateTests/stRevertTest/RevertDepthCreateAddressCollision_d0g0v0Filler.json",
            "sourceHash" : "a706d781f7c2ab167f795167544757f7af607daf42b3791a2f8227e21c7ad7d6"
        },
        "blocks" : [
            {
                "blockHeader" : {
                    "bloom" : "0x00000000000000000000000000000000000000000000000000000000000000000000000000000000000000000000000000000000000000000000000000000000000000000000000000000000000000000000000000000000000000000000000000000000000000000000000000000000000000000000000000000000000000000000000000000000000000000000000000000000000000000000000000000000000000000000000000000000000000000000000000000000000000000000000000000000000000000000000000000000000000000000000000000000000000000000000000000000000000000000000000000000000000000000000000000000",
                    "coinbase" : "0x2adc25665018aa1fe0e6bc666dac8fc2697ff9ba",
                    "difficulty" : "0x020000",
                    "extraData" : "",
                    "gasLimit" : "0x989680",
                    "gasUsed" : "0x01adb0",
                    "hash" : "0xa6d0a26362ca6fbe1de71abeabef0b71dbc74114e75724e24173f47cade2140b",
                    "mixHash" : "0x91b750c23ffd6774d773331bbccc86937100c546d2ab67ef09abe4a63079e392",
                    "nonce" : "0xffbd72ef015b750d",
                    "number" : "0x01",
                    "parentHash" : "0x93dcf85bc7a76227f7e21e4ea5f868b5fe35b40c9bacc70d21636b4aea2c8427",
                    "receiptTrie" : "0xc179fe8c06cb1c853d90b238977038c12fd7db327848a009f85d13aa675e79fa",
                    "stateRoot" : "0x4e6cbd7d8c4fefa307e3673433fdda8658227597cd2b8f1ab3928a6c9ada083e",
                    "timestamp" : "0x03e8",
                    "transactionsTrie" : "0x23c0d3758fafe8091129eb77acb4a8b0539a98f61ab9973403ef5ccdda568c54",
                    "uncleHash" : "0x1dcc4de8dec75d7aab85b567b6ccd41ad312451b948a7413f0a142fd40d49347"
                },
                "rlp" : "0xf90280f901f8a093dcf85bc7a76227f7e21e4ea5f868b5fe35b40c9bacc70d21636b4aea2c8427a01dcc4de8dec75d7aab85b567b6ccd41ad312451b948a7413f0a142fd40d49347942adc25665018aa1fe0e6bc666dac8fc2697ff9baa04e6cbd7d8c4fefa307e3673433fdda8658227597cd2b8f1ab3928a6c9ada083ea023c0d3758fafe8091129eb77acb4a8b0539a98f61ab9973403ef5ccdda568c54a0c179fe8c06cb1c853d90b238977038c12fd7db327848a009f85d13aa675e79fab90100000000000000000000000000000000000000000000000000000000000000000000000000000000000000000000000000000000000000000000000000000000000000000000000000000000000000000000000000000000000000000000000000000000000000000000000000000000000000000000000000000000000000000000000000000000000000000000000000000000000000000000000000000000000000000000000000000000000000000000000000000000000000000000000000000000000000000000000000000000000000000000000000000000000000000000000000000000000000000000000000000000000000000000000000000000008302000001839896808301adb08203e880a091b750c23ffd6774d773331bbccc86937100c546d2ab67ef09abe4a63079e39288ffbd72ef015b750df882f88080018301adb0943e180b1862f9d158abb5e519a6d8605540c2368201a0000000000000000000000000000000000000000000000000000000000000ea601ca052440d702c31ca78d1e89a9f5f0ee6554bda5a781b175ae21edf7594bd6cc7e9a052e53542b83c552eecd9afc95cab350d90c4b1f9ce536353e68fb96c06b69df1c0",
                "transactions" : [
                    {
                        "data" : "0x000000000000000000000000000000000000000000000000000000000000ea60",
                        "gasLimit" : "0x01adb0",
                        "gasPrice" : "0x01",
                        "nonce" : "0x00",
                        "r" : "0x52440d702c31ca78d1e89a9f5f0ee6554bda5a781b175ae21edf7594bd6cc7e9",
                        "s" : "0x52e53542b83c552eecd9afc95cab350d90c4b1f9ce536353e68fb96c06b69df1",
                        "to" : "0x3e180b1862f9d158abb5e519a6d8605540c23682",
                        "v" : "0x1c",
                        "value" : "0x01"
                    }
                ],
                "uncleHeaders" : [
                ]
            }
        ],
        "genesisBlockHeader" : {
            "bloom" : "0x00000000000000000000000000000000000000000000000000000000000000000000000000000000000000000000000000000000000000000000000000000000000000000000000000000000000000000000000000000000000000000000000000000000000000000000000000000000000000000000000000000000000000000000000000000000000000000000000000000000000000000000000000000000000000000000000000000000000000000000000000000000000000000000000000000000000000000000000000000000000000000000000000000000000000000000000000000000000000000000000000000000000000000000000000000000",
            "coinbase" : "0x2adc25665018aa1fe0e6bc666dac8fc2697ff9ba",
            "difficulty" : "0x020000",
            "extraData" : "0x42",
            "gasLimit" : "0x989680",
            "gasUsed" : "0x00",
            "hash" : "0x93dcf85bc7a76227f7e21e4ea5f868b5fe35b40c9bacc70d21636b4aea2c8427",
            "mixHash" : "0x56e81f171bcc55a6ff8345e692c0f86e5b48e01b996cadc001622fb5e363b421",
            "nonce" : "0x0102030405060708",
            "number" : "0x00",
            "parentHash" : "0x0000000000000000000000000000000000000000000000000000000000000000",
            "receiptTrie" : "0x56e81f171bcc55a6ff8345e692c0f86e5b48e01b996cadc001622fb5e363b421",
            "stateRoot" : "0x2021386d37ea74464f53e382b6525956b68259567a65fab0e9021c9d25a86cf3",
            "timestamp" : "0x03b6",
            "transactionsTrie" : "0x56e81f171bcc55a6ff8345e692c0f86e5b48e01b996cadc001622fb5e363b421",
            "uncleHash" : "0x1dcc4de8dec75d7aab85b567b6ccd41ad312451b948a7413f0a142fd40d49347"
        },
        "genesisRLP" : "0xf901faf901f5a00000000000000000000000000000000000000000000000000000000000000000a01dcc4de8dec75d7aab85b567b6ccd41ad312451b948a7413f0a142fd40d49347942adc25665018aa1fe0e6bc666dac8fc2697ff9baa02021386d37ea74464f53e382b6525956b68259567a65fab0e9021c9d25a86cf3a056e81f171bcc55a6ff8345e692c0f86e5b48e01b996cadc001622fb5e363b421a056e81f171bcc55a6ff8345e692c0f86e5b48e01b996cadc001622fb5e363b421b9010000000000000000000000000000000000000000000000000000000000000000000000000000000000000000000000000000000000000000000000000000000000000000000000000000000000000000000000000000000000000000000000000000000000000000000000000000000000000000000000000000000000000000000000000000000000000000000000000000000000000000000000000000000000000000000000000000000000000000000000000000000000000000000000000000000000000000000000000000000000000000000000000000000000000000000000000000000000000000000000000000000000000000000000000000000000830200008083989680808203b642a056e81f171bcc55a6ff8345e692c0f86e5b48e01b996cadc001622fb5e363b421880102030405060708c0c0",
        "lastblockhash" : "0xa6d0a26362ca6fbe1de71abeabef0b71dbc74114e75724e24173f47cade2140b",
        "network" : "Frontier",
        "postState" : {
            "0x2adc25665018aa1fe0e6bc666dac8fc2697ff9ba" : {
                "balance" : "0x4563918244f5adb0",
                "code" : "",
                "nonce" : "0x00",
                "storage" : {
                }
            },
            "0x3e180b1862f9d158abb5e519a6d8605540c23682" : {
                "balance" : "0x05",
                "code" : "0x60016000556000600060006000600073b000000000000000000000000000000000000000600035f1600155600c600455",
                "nonce" : "0x36",
                "storage" : {
                }
            },
            "0xa94f5374fce5edbc8e2a8697c15331677e6ebf0b" : {
                "balance" : "0xe8d4a36250",
                "code" : "",
                "nonce" : "0x01",
                "storage" : {
                }
            },
            "0xb000000000000000000000000000000000000000" : {
                "balance" : "0x00",
                "code" : "0x6008600255600060006000f050600c600355",
                "nonce" : "0x00",
                "storage" : {
                }
            }
        },
        "pre" : {
            "0x3e180b1862f9d158abb5e519a6d8605540c23682" : {
                "balance" : "0x05",
                "code" : "0x60016000556000600060006000600073b000000000000000000000000000000000000000600035f1600155600c600455",
                "nonce" : "0x36",
                "storage" : {
                }
            },
            "0xa94f5374fce5edbc8e2a8697c15331677e6ebf0b" : {
                "balance" : "0xe8d4a51000",
                "code" : "",
                "nonce" : "0x00",
                "storage" : {
                }
            },
            "0xb000000000000000000000000000000000000000" : {
                "balance" : "0x00",
                "code" : "0x6008600255600060006000f050600c600355",
                "nonce" : "0x00",
                "storage" : {
                }
            }
        }
    },
    "RevertDepthCreateAddressCollision_d0g0v0_Homestead" : {
        "_info" : {
            "comment" : "",
            "filledwith" : "cpp-1.3.0+commit.6e0ce939.Linux.g++",
            "lllcversion" : "Version: 0.4.18-develop.2017.9.25+commit.a72237f2.Linux.g++",
            "source" : "src/BlockchainTestsFiller/GeneralStateTests/stRevertTest/RevertDepthCreateAddressCollision_d0g0v0Filler.json",
            "sourceHash" : "a706d781f7c2ab167f795167544757f7af607daf42b3791a2f8227e21c7ad7d6"
        },
        "blocks" : [
            {
                "blockHeader" : {
                    "bloom" : "0x00000000000000000000000000000000000000000000000000000000000000000000000000000000000000000000000000000000000000000000000000000000000000000000000000000000000000000000000000000000000000000000000000000000000000000000000000000000000000000000000000000000000000000000000000000000000000000000000000000000000000000000000000000000000000000000000000000000000000000000000000000000000000000000000000000000000000000000000000000000000000000000000000000000000000000000000000000000000000000000000000000000000000000000000000000000",
                    "coinbase" : "0x2adc25665018aa1fe0e6bc666dac8fc2697ff9ba",
                    "difficulty" : "0x020000",
                    "extraData" : "",
                    "gasLimit" : "0x989680",
                    "gasUsed" : "0x01adb0",
                    "hash" : "0x7467e8179ca840d04cb0d79b60b6b6c1cfe6a0938fb22b8738540958d043af5c",
                    "mixHash" : "0x6ba9697c05de8b2ef6ae4d571cd987b4d00f61b5b6ecc5f6a07b4f0965bffcff",
                    "nonce" : "0xe944efe4bce31c40",
                    "number" : "0x01",
                    "parentHash" : "0x93dcf85bc7a76227f7e21e4ea5f868b5fe35b40c9bacc70d21636b4aea2c8427",
                    "receiptTrie" : "0xc179fe8c06cb1c853d90b238977038c12fd7db327848a009f85d13aa675e79fa",
                    "stateRoot" : "0x4e6cbd7d8c4fefa307e3673433fdda8658227597cd2b8f1ab3928a6c9ada083e",
                    "timestamp" : "0x03e8",
                    "transactionsTrie" : "0x23c0d3758fafe8091129eb77acb4a8b0539a98f61ab9973403ef5ccdda568c54",
                    "uncleHash" : "0x1dcc4de8dec75d7aab85b567b6ccd41ad312451b948a7413f0a142fd40d49347"
                },
                "rlp" : "0xf90280f901f8a093dcf85bc7a76227f7e21e4ea5f868b5fe35b40c9bacc70d21636b4aea2c8427a01dcc4de8dec75d7aab85b567b6ccd41ad312451b948a7413f0a142fd40d49347942adc25665018aa1fe0e6bc666dac8fc2697ff9baa04e6cbd7d8c4fefa307e3673433fdda8658227597cd2b8f1ab3928a6c9ada083ea023c0d3758fafe8091129eb77acb4a8b0539a98f61ab9973403ef5ccdda568c54a0c179fe8c06cb1c853d90b238977038c12fd7db327848a009f85d13aa675e79fab90100000000000000000000000000000000000000000000000000000000000000000000000000000000000000000000000000000000000000000000000000000000000000000000000000000000000000000000000000000000000000000000000000000000000000000000000000000000000000000000000000000000000000000000000000000000000000000000000000000000000000000000000000000000000000000000000000000000000000000000000000000000000000000000000000000000000000000000000000000000000000000000000000000000000000000000000000000000000000000000000000000000000000000000000000000000008302000001839896808301adb08203e880a06ba9697c05de8b2ef6ae4d571cd987b4d00f61b5b6ecc5f6a07b4f0965bffcff88e944efe4bce31c40f882f88080018301adb0943e180b1862f9d158abb5e519a6d8605540c2368201a0000000000000000000000000000000000000000000000000000000000000ea601ca052440d702c31ca78d1e89a9f5f0ee6554bda5a781b175ae21edf7594bd6cc7e9a052e53542b83c552eecd9afc95cab350d90c4b1f9ce536353e68fb96c06b69df1c0",
                "transactions" : [
                    {
                        "data" : "0x000000000000000000000000000000000000000000000000000000000000ea60",
                        "gasLimit" : "0x01adb0",
                        "gasPrice" : "0x01",
                        "nonce" : "0x00",
                        "r" : "0x52440d702c31ca78d1e89a9f5f0ee6554bda5a781b175ae21edf7594bd6cc7e9",
                        "s" : "0x52e53542b83c552eecd9afc95cab350d90c4b1f9ce536353e68fb96c06b69df1",
                        "to" : "0x3e180b1862f9d158abb5e519a6d8605540c23682",
                        "v" : "0x1c",
                        "value" : "0x01"
                    }
                ],
                "uncleHeaders" : [
                ]
            }
        ],
        "genesisBlockHeader" : {
            "bloom" : "0x00000000000000000000000000000000000000000000000000000000000000000000000000000000000000000000000000000000000000000000000000000000000000000000000000000000000000000000000000000000000000000000000000000000000000000000000000000000000000000000000000000000000000000000000000000000000000000000000000000000000000000000000000000000000000000000000000000000000000000000000000000000000000000000000000000000000000000000000000000000000000000000000000000000000000000000000000000000000000000000000000000000000000000000000000000000",
            "coinbase" : "0x2adc25665018aa1fe0e6bc666dac8fc2697ff9ba",
            "difficulty" : "0x020000",
            "extraData" : "0x42",
            "gasLimit" : "0x989680",
            "gasUsed" : "0x00",
            "hash" : "0x93dcf85bc7a76227f7e21e4ea5f868b5fe35b40c9bacc70d21636b4aea2c8427",
            "mixHash" : "0x56e81f171bcc55a6ff8345e692c0f86e5b48e01b996cadc001622fb5e363b421",
            "nonce" : "0x0102030405060708",
            "number" : "0x00",
            "parentHash" : "0x0000000000000000000000000000000000000000000000000000000000000000",
            "receiptTrie" : "0x56e81f171bcc55a6ff8345e692c0f86e5b48e01b996cadc001622fb5e363b421",
            "stateRoot" : "0x2021386d37ea74464f53e382b6525956b68259567a65fab0e9021c9d25a86cf3",
            "timestamp" : "0x03b6",
            "transactionsTrie" : "0x56e81f171bcc55a6ff8345e692c0f86e5b48e01b996cadc001622fb5e363b421",
            "uncleHash" : "0x1dcc4de8dec75d7aab85b567b6ccd41ad312451b948a7413f0a142fd40d49347"
        },
        "genesisRLP" : "0xf901faf901f5a00000000000000000000000000000000000000000000000000000000000000000a01dcc4de8dec75d7aab85b567b6ccd41ad312451b948a7413f0a142fd40d49347942adc25665018aa1fe0e6bc666dac8fc2697ff9baa02021386d37ea74464f53e382b6525956b68259567a65fab0e9021c9d25a86cf3a056e81f171bcc55a6ff8345e692c0f86e5b48e01b996cadc001622fb5e363b421a056e81f171bcc55a6ff8345e692c0f86e5b48e01b996cadc001622fb5e363b421b9010000000000000000000000000000000000000000000000000000000000000000000000000000000000000000000000000000000000000000000000000000000000000000000000000000000000000000000000000000000000000000000000000000000000000000000000000000000000000000000000000000000000000000000000000000000000000000000000000000000000000000000000000000000000000000000000000000000000000000000000000000000000000000000000000000000000000000000000000000000000000000000000000000000000000000000000000000000000000000000000000000000000000000000000000000000000830200008083989680808203b642a056e81f171bcc55a6ff8345e692c0f86e5b48e01b996cadc001622fb5e363b421880102030405060708c0c0",
        "lastblockhash" : "0x7467e8179ca840d04cb0d79b60b6b6c1cfe6a0938fb22b8738540958d043af5c",
        "network" : "Homestead",
        "postState" : {
            "0x2adc25665018aa1fe0e6bc666dac8fc2697ff9ba" : {
                "balance" : "0x4563918244f5adb0",
                "code" : "",
                "nonce" : "0x00",
                "storage" : {
                }
            },
            "0x3e180b1862f9d158abb5e519a6d8605540c23682" : {
                "balance" : "0x05",
                "code" : "0x60016000556000600060006000600073b000000000000000000000000000000000000000600035f1600155600c600455",
                "nonce" : "0x36",
                "storage" : {
                }
            },
            "0xa94f5374fce5edbc8e2a8697c15331677e6ebf0b" : {
                "balance" : "0xe8d4a36250",
                "code" : "",
                "nonce" : "0x01",
                "storage" : {
                }
            },
            "0xb000000000000000000000000000000000000000" : {
                "balance" : "0x00",
                "code" : "0x6008600255600060006000f050600c600355",
                "nonce" : "0x00",
                "storage" : {
                }
            }
        },
        "pre" : {
            "0x3e180b1862f9d158abb5e519a6d8605540c23682" : {
                "balance" : "0x05",
                "code" : "0x60016000556000600060006000600073b000000000000000000000000000000000000000600035f1600155600c600455",
                "nonce" : "0x36",
                "storage" : {
                }
            },
            "0xa94f5374fce5edbc8e2a8697c15331677e6ebf0b" : {
                "balance" : "0xe8d4a51000",
                "code" : "",
                "nonce" : "0x00",
                "storage" : {
                }
            },
            "0xb000000000000000000000000000000000000000" : {
                "balance" : "0x00",
                "code" : "0x6008600255600060006000f050600c600355",
                "nonce" : "0x00",
                "storage" : {
                }
            }
        }
    }
}