{
    "RevertOpcodeDirectCall_d0g1v0_Byzantium" : {
        "_info" : {
            "comment" : "",
            "filledwith" : "cpp-1.3.0+commit.6e0ce939.Linux.g++",
            "lllcversion" : "Version: 0.4.18-develop.2017.9.25+commit.a72237f2.Linux.g++",
            "source" : "src/BlockchainTestsFiller/GeneralStateTests/stRevertTest/RevertOpcodeDirectCall_d0g1v0Filler.json",
            "sourceHash" : "4eb0ece98385fa5fe08ed695a51e7ab229ff7f9d6191888c46c89fd277694c75"
        },
        "blocks" : [
            {
                "blockHeader" : {
                    "bloom" : "0x00000000000000000000000000000000000000000000000000000000000000000000000000000000000000000000000000000000000000000000000000000000000000000000000000000000000000000000000000000000000000000000000000000000000000000000000000000000000000000000000000000000000000000000000000000000000000000000000000000000000000000000000000000000000000000000000000000000000000000000000000000000000000000000000000000000000000000000000000000000000000000000000000000000000000000000000000000000000000000000000000000000000000000000000000000000",
                    "coinbase" : "0x2adc25665018aa1fe0e6bc666dac8fc2697ff9ba",
                    "difficulty" : "0x020000",
                    "extraData" : "",
                    "gasLimit" : "0x989680",
                    "gasUsed" : "0x0109a0",
                    "hash" : "0x71994b44871ad3fbc30ec19a921aa36fe2b87baf1a056c76d940b206150ad0ac",
                    "mixHash" : "0x18e35297921bb08c0fcbe33479eb111e48546a79bebff0b84e53fbb59e174f3b",
                    "nonce" : "0x76e134a77c4b7430",
                    "number" : "0x01",
                    "parentHash" : "0x48b5f8772649f2b76c6f4b354c44447958eabd2be6a11ca9d3da8d98133599e9",
                    "receiptTrie" : "0x68ba6c6060bce18ea95d3920206a7c51d56e77984aa2781561aa207249d4dd9e",
                    "stateRoot" : "0xdd3154040a261cc76de8c3a4d1df99e3a71f5fa6915e768c62b18108cd9e0130",
                    "timestamp" : "0x03e8",
                    "transactionsTrie" : "0x8f24e0c5dc86996e9ed5034cca996ceb7b6044fbb1effbc59bb00aad9788a521",
                    "uncleHash" : "0x1dcc4de8dec75d7aab85b567b6ccd41ad312451b948a7413f0a142fd40d49347"
                },
                "rlp" : "0xf90280f901f8a048b5f8772649f2b76c6f4b354c44447958eabd2be6a11ca9d3da8d98133599e9a01dcc4de8dec75d7aab85b567b6ccd41ad312451b948a7413f0a142fd40d49347942adc25665018aa1fe0e6bc666dac8fc2697ff9baa0dd3154040a261cc76de8c3a4d1df99e3a71f5fa6915e768c62b18108cd9e0130a08f24e0c5dc86996e9ed5034cca996ceb7b6044fbb1effbc59bb00aad9788a521a068ba6c6060bce18ea95d3920206a7c51d56e77984aa2781561aa207249d4dd9eb9010000000000000000000000000000000000000000000000000000000000000000000000000000000000000000000000000000000000000000000000000000000000000000000000000000000000000000000000000000000000000000000000000000000000000000000000000000000000000000000000000000000000000000000000000000000000000000000000000000000000000000000000000000000000000000000000000000000000000000000000000000000000000000000000000000000000000000000000000000000000000000000000000000000000000000000000000000000000000000000000000000000000000000000000000000000000830200000183989680830109a08203e880a018e35297921bb08c0fcbe33479eb111e48546a79bebff0b84e53fbb59e174f3b8876e134a77c4b7430f882f8808001830109a094b94f5374fce5edbc8e2a8697c15331677e6ebf0b80a0000000000000000000000000b94f5374fce5edbc8e2a8697c15331677e6ebf0b1ca061d2fa757acaa2f6adf2f80ab8796847ed36ab3cd5832d570ba58887ef3203e8a02f36e284cdc7a7dce6cef630c9dacaac36b041ad4ef7f5c693de4593ae9c286ac0",
                "transactions" : [
                    {
                        "data" : "0x000000000000000000000000b94f5374fce5edbc8e2a8697c15331677e6ebf0b",
                        "gasLimit" : "0x0109a0",
                        "gasPrice" : "0x01",
                        "nonce" : "0x00",
                        "r" : "0x61d2fa757acaa2f6adf2f80ab8796847ed36ab3cd5832d570ba58887ef3203e8",
                        "s" : "0x2f36e284cdc7a7dce6cef630c9dacaac36b041ad4ef7f5c693de4593ae9c286a",
                        "to" : "0xb94f5374fce5edbc8e2a8697c15331677e6ebf0b",
                        "v" : "0x1c",
                        "value" : "0x00"
                    }
                ],
                "uncleHeaders" : [
                ]
            }
        ],
        "genesisBlockHeader" : {
            "bloom" : "0x00000000000000000000000000000000000000000000000000000000000000000000000000000000000000000000000000000000000000000000000000000000000000000000000000000000000000000000000000000000000000000000000000000000000000000000000000000000000000000000000000000000000000000000000000000000000000000000000000000000000000000000000000000000000000000000000000000000000000000000000000000000000000000000000000000000000000000000000000000000000000000000000000000000000000000000000000000000000000000000000000000000000000000000000000000000",
            "coinbase" : "0x2adc25665018aa1fe0e6bc666dac8fc2697ff9ba",
            "difficulty" : "0x020000",
            "extraData" : "0x42",
            "gasLimit" : "0x989680",
            "gasUsed" : "0x00",
            "hash" : "0x48b5f8772649f2b76c6f4b354c44447958eabd2be6a11ca9d3da8d98133599e9",
            "mixHash" : "0x56e81f171bcc55a6ff8345e692c0f86e5b48e01b996cadc001622fb5e363b421",
            "nonce" : "0x0102030405060708",
            "number" : "0x00",
            "parentHash" : "0x0000000000000000000000000000000000000000000000000000000000000000",
            "receiptTrie" : "0x56e81f171bcc55a6ff8345e692c0f86e5b48e01b996cadc001622fb5e363b421",
            "stateRoot" : "0x009eac12fad0a21887d19514dea3d9b6ffd0fa031cf3d7b3dfb581ece4167b11",
            "timestamp" : "0x03b6",
            "transactionsTrie" : "0x56e81f171bcc55a6ff8345e692c0f86e5b48e01b996cadc001622fb5e363b421",
            "uncleHash" : "0x1dcc4de8dec75d7aab85b567b6ccd41ad312451b948a7413f0a142fd40d49347"
        },
        "genesisRLP" : "0xf901faf901f5a00000000000000000000000000000000000000000000000000000000000000000a01dcc4de8dec75d7aab85b567b6ccd41ad312451b948a7413f0a142fd40d49347942adc25665018aa1fe0e6bc666dac8fc2697ff9baa0009eac12fad0a21887d19514dea3d9b6ffd0fa031cf3d7b3dfb581ece4167b11a056e81f171bcc55a6ff8345e692c0f86e5b48e01b996cadc001622fb5e363b421a056e81f171bcc55a6ff8345e692c0f86e5b48e01b996cadc001622fb5e363b421b9010000000000000000000000000000000000000000000000000000000000000000000000000000000000000000000000000000000000000000000000000000000000000000000000000000000000000000000000000000000000000000000000000000000000000000000000000000000000000000000000000000000000000000000000000000000000000000000000000000000000000000000000000000000000000000000000000000000000000000000000000000000000000000000000000000000000000000000000000000000000000000000000000000000000000000000000000000000000000000000000000000000000000000000000000000000000830200008083989680808203b642a056e81f171bcc55a6ff8345e692c0f86e5b48e01b996cadc001622fb5e363b421880102030405060708c0c0",
        "lastblockhash" : "0x71994b44871ad3fbc30ec19a921aa36fe2b87baf1a056c76d940b206150ad0ac",
        "network" : "Byzantium",
        "postState" : {
            "0x094f5374fce5edbc8e2a8697c15331677e6ebf0b" : {
                "balance" : "0x01",
                "code" : "0x6000600060006000600060003561ea60f1600a55",
                "nonce" : "0x00",
                "storage" : {
                }
            },
            "0x2adc25665018aa1fe0e6bc666dac8fc2697ff9ba" : {
                "balance" : "0x29a2241af62d09a0",
                "code" : "",
                "nonce" : "0x00",
                "storage" : {
                }
            },
            "0xa94f5374fce5edbc8e2a8697c15331677e6ebf0b" : {
                "balance" : "0xe8d4a40660",
                "code" : "",
                "nonce" : "0x01",
                "storage" : {
                }
            },
            "0xb94f5374fce5edbc8e2a8697c15331677e6ebf0b" : {
                "balance" : "0x01",
                "code" : "0x6000600060006000600073c94f5374fce5edbc8e2a8697c15331677e6ebf0b61c350f1600055600e600255",
                "nonce" : "0x00",
                "storage" : {
                }
            },
            "0xc94f5374fce5edbc8e2a8697c15331677e6ebf0b" : {
                "balance" : "0x01",
                "code" : "0x600c60015560016000fd600d600355",
                "nonce" : "0x00",
                "storage" : {
                }
            }
        },
        "pre" : {
            "0x094f5374fce5edbc8e2a8697c15331677e6ebf0b" : {
                "balance" : "0x01",
                "code" : "0x6000600060006000600060003561ea60f1600a55",
                "nonce" : "0x00",
                "storage" : {
                }
            },
            "0xa94f5374fce5edbc8e2a8697c15331677e6ebf0b" : {
                "balance" : "0xe8d4a51000",
                "code" : "",
                "nonce" : "0x00",
                "storage" : {
                }
            },
            "0xb94f5374fce5edbc8e2a8697c15331677e6ebf0b" : {
                "balance" : "0x01",
                "code" : "0x6000600060006000600073c94f5374fce5edbc8e2a8697c15331677e6ebf0b61c350f1600055600e600255",
                "nonce" : "0x00",
                "storage" : {
                }
            },
            "0xc94f5374fce5edbc8e2a8697c15331677e6ebf0b" : {
                "balance" : "0x01",
                "code" : "0x600c60015560016000fd600d600355",
                "nonce" : "0x00",
                "storage" : {
                }
            }
        }
    },
    "RevertOpcodeDirectCall_d0g1v0_EIP150" : {
        "_info" : {
            "comment" : "",
            "filledwith" : "cpp-1.3.0+commit.6e0ce939.Linux.g++",
            "lllcversion" : "Version: 0.4.18-develop.2017.9.25+commit.a72237f2.Linux.g++",
            "source" : "src/BlockchainTestsFiller/GeneralStateTests/stRevertTest/RevertOpcodeDirectCall_d0g1v0Filler.json",
            "sourceHash" : "4eb0ece98385fa5fe08ed695a51e7ab229ff7f9d6191888c46c89fd277694c75"
        },
        "blocks" : [
            {
                "blockHeader" : {
                    "bloom" : "0x00000000000000000000000000000000000000000000000000000000000000000000000000000000000000000000000000000000000000000000000000000000000000000000000000000000000000000000000000000000000000000000000000000000000000000000000000000000000000000000000000000000000000000000000000000000000000000000000000000000000000000000000000000000000000000000000000000000000000000000000000000000000000000000000000000000000000000000000000000000000000000000000000000000000000000000000000000000000000000000000000000000000000000000000000000000",
                    "coinbase" : "0x2adc25665018aa1fe0e6bc666dac8fc2697ff9ba",
                    "difficulty" : "0x020000",
                    "extraData" : "",
                    "gasLimit" : "0x989680",
                    "gasUsed" : "0x0109a0",
                    "hash" : "0xdfb63ad9aa6045cbcd1cb42d01e4239301e5d001f5faf6d6935bad2a0866f208",
                    "mixHash" : "0xeea0e93972c597b12ba9c3381c283e050bbe7f15820d92e37078d5554fa39962",
                    "nonce" : "0x2a5e271ad4c46330",
                    "number" : "0x01",
                    "parentHash" : "0x48b5f8772649f2b76c6f4b354c44447958eabd2be6a11ca9d3da8d98133599e9",
                    "receiptTrie" : "0xf5718fbf61b52401f67ab44fbc2ae82f4150f479668ff88c075278814e990d35",
                    "stateRoot" : "0x52849aa4ee8ff2178656caaa5405ce13cd1c6c8feac508fdedea119bf6eba59c",
                    "timestamp" : "0x03e8",
                    "transactionsTrie" : "0x8f24e0c5dc86996e9ed5034cca996ceb7b6044fbb1effbc59bb00aad9788a521",
                    "uncleHash" : "0x1dcc4de8dec75d7aab85b567b6ccd41ad312451b948a7413f0a142fd40d49347"
                },
                "rlp" : "0xf90280f901f8a048b5f8772649f2b76c6f4b354c44447958eabd2be6a11ca9d3da8d98133599e9a01dcc4de8dec75d7aab85b567b6ccd41ad312451b948a7413f0a142fd40d49347942adc25665018aa1fe0e6bc666dac8fc2697ff9baa052849aa4ee8ff2178656caaa5405ce13cd1c6c8feac508fdedea119bf6eba59ca08f24e0c5dc86996e9ed5034cca996ceb7b6044fbb1effbc59bb00aad9788a521a0f5718fbf61b52401f67ab44fbc2ae82f4150f479668ff88c075278814e990d35b9010000000000000000000000000000000000000000000000000000000000000000000000000000000000000000000000000000000000000000000000000000000000000000000000000000000000000000000000000000000000000000000000000000000000000000000000000000000000000000000000000000000000000000000000000000000000000000000000000000000000000000000000000000000000000000000000000000000000000000000000000000000000000000000000000000000000000000000000000000000000000000000000000000000000000000000000000000000000000000000000000000000000000000000000000000000000830200000183989680830109a08203e880a0eea0e93972c597b12ba9c3381c283e050bbe7f15820d92e37078d5554fa39962882a5e271ad4c46330f882f8808001830109a094b94f5374fce5edbc8e2a8697c15331677e6ebf0b80a0000000000000000000000000b94f5374fce5edbc8e2a8697c15331677e6ebf0b1ca061d2fa757acaa2f6adf2f80ab8796847ed36ab3cd5832d570ba58887ef3203e8a02f36e284cdc7a7dce6cef630c9dacaac36b041ad4ef7f5c693de4593ae9c286ac0",
                "transactions" : [
                    {
                        "data" : "0x000000000000000000000000b94f5374fce5edbc8e2a8697c15331677e6ebf0b",
                        "gasLimit" : "0x0109a0",
                        "gasPrice" : "0x01",
                        "nonce" : "0x00",
                        "r" : "0x61d2fa757acaa2f6adf2f80ab8796847ed36ab3cd5832d570ba58887ef3203e8",
                        "s" : "0x2f36e284cdc7a7dce6cef630c9dacaac36b041ad4ef7f5c693de4593ae9c286a",
                        "to" : "0xb94f5374fce5edbc8e2a8697c15331677e6ebf0b",
                        "v" : "0x1c",
                        "value" : "0x00"
                    }
                ],
                "uncleHeaders" : [
                ]
            }
        ],
        "genesisBlockHeader" : {
            "bloom" : "0x00000000000000000000000000000000000000000000000000000000000000000000000000000000000000000000000000000000000000000000000000000000000000000000000000000000000000000000000000000000000000000000000000000000000000000000000000000000000000000000000000000000000000000000000000000000000000000000000000000000000000000000000000000000000000000000000000000000000000000000000000000000000000000000000000000000000000000000000000000000000000000000000000000000000000000000000000000000000000000000000000000000000000000000000000000000",
            "coinbase" : "0x2adc25665018aa1fe0e6bc666dac8fc2697ff9ba",
            "difficulty" : "0x020000",
            "extraData" : "0x42",
            "gasLimit" : "0x989680",
            "gasUsed" : "0x00",
            "hash" : "0x48b5f8772649f2b76c6f4b354c44447958eabd2be6a11ca9d3da8d98133599e9",
            "mixHash" : "0x56e81f171bcc55a6ff8345e692c0f86e5b48e01b996cadc001622fb5e363b421",
            "nonce" : "0x0102030405060708",
            "number" : "0x00",
            "parentHash" : "0x0000000000000000000000000000000000000000000000000000000000000000",
            "receiptTrie" : "0x56e81f171bcc55a6ff8345e692c0f86e5b48e01b996cadc001622fb5e363b421",
            "stateRoot" : "0x009eac12fad0a21887d19514dea3d9b6ffd0fa031cf3d7b3dfb581ece4167b11",
            "timestamp" : "0x03b6",
            "transactionsTrie" : "0x56e81f171bcc55a6ff8345e692c0f86e5b48e01b996cadc001622fb5e363b421",
            "uncleHash" : "0x1dcc4de8dec75d7aab85b567b6ccd41ad312451b948a7413f0a142fd40d49347"
        },
        "genesisRLP" : "0xf901faf901f5a00000000000000000000000000000000000000000000000000000000000000000a01dcc4de8dec75d7aab85b567b6ccd41ad312451b948a7413f0a142fd40d49347942adc25665018aa1fe0e6bc666dac8fc2697ff9baa0009eac12fad0a21887d19514dea3d9b6ffd0fa031cf3d7b3dfb581ece4167b11a056e81f171bcc55a6ff8345e692c0f86e5b48e01b996cadc001622fb5e363b421a056e81f171bcc55a6ff8345e692c0f86e5b48e01b996cadc001622fb5e363b421b9010000000000000000000000000000000000000000000000000000000000000000000000000000000000000000000000000000000000000000000000000000000000000000000000000000000000000000000000000000000000000000000000000000000000000000000000000000000000000000000000000000000000000000000000000000000000000000000000000000000000000000000000000000000000000000000000000000000000000000000000000000000000000000000000000000000000000000000000000000000000000000000000000000000000000000000000000000000000000000000000000000000000000000000000000000000000830200008083989680808203b642a056e81f171bcc55a6ff8345e692c0f86e5b48e01b996cadc001622fb5e363b421880102030405060708c0c0",
        "lastblockhash" : "0xdfb63ad9aa6045cbcd1cb42d01e4239301e5d001f5faf6d6935bad2a0866f208",
        "network" : "EIP150",
        "postState" : {
            "0x094f5374fce5edbc8e2a8697c15331677e6ebf0b" : {
                "balance" : "0x01",
                "code" : "0x6000600060006000600060003561ea60f1600a55",
                "nonce" : "0x00",
                "storage" : {
                }
            },
            "0x2adc25665018aa1fe0e6bc666dac8fc2697ff9ba" : {
                "balance" : "0x4563918244f509a0",
                "code" : "",
                "nonce" : "0x00",
                "storage" : {
                }
            },
            "0xa94f5374fce5edbc8e2a8697c15331677e6ebf0b" : {
                "balance" : "0xe8d4a40660",
                "code" : "",
                "nonce" : "0x01",
                "storage" : {
                }
            },
            "0xb94f5374fce5edbc8e2a8697c15331677e6ebf0b" : {
                "balance" : "0x01",
                "code" : "0x6000600060006000600073c94f5374fce5edbc8e2a8697c15331677e6ebf0b61c350f1600055600e600255",
                "nonce" : "0x00",
                "storage" : {
                }
            },
            "0xc94f5374fce5edbc8e2a8697c15331677e6ebf0b" : {
                "balance" : "0x01",
                "code" : "0x600c60015560016000fd600d600355",
                "nonce" : "0x00",
                "storage" : {
                }
            }
        },
        "pre" : {
            "0x094f5374fce5edbc8e2a8697c15331677e6ebf0b" : {
                "balance" : "0x01",
                "code" : "0x6000600060006000600060003561ea60f1600a55",
                "nonce" : "0x00",
                "storage" : {
                }
            },
            "0xa94f5374fce5edbc8e2a8697c15331677e6ebf0b" : {
                "balance" : "0xe8d4a51000",
                "code" : "",
                "nonce" : "0x00",
                "storage" : {
                }
            },
            "0xb94f5374fce5edbc8e2a8697c15331677e6ebf0b" : {
                "balance" : "0x01",
                "code" : "0x6000600060006000600073c94f5374fce5edbc8e2a8697c15331677e6ebf0b61c350f1600055600e600255",
                "nonce" : "0x00",
                "storage" : {
                }
            },
            "0xc94f5374fce5edbc8e2a8697c15331677e6ebf0b" : {
                "balance" : "0x01",
                "code" : "0x600c60015560016000fd600d600355",
                "nonce" : "0x00",
                "storage" : {
                }
            }
        }
    },
    "RevertOpcodeDirectCall_d0g1v0_EIP158" : {
        "_info" : {
            "comment" : "",
            "filledwith" : "cpp-1.3.0+commit.6e0ce939.Linux.g++",
            "lllcversion" : "Version: 0.4.18-develop.2017.9.25+commit.a72237f2.Linux.g++",
            "source" : "src/BlockchainTestsFiller/GeneralStateTests/stRevertTest/RevertOpcodeDirectCall_d0g1v0Filler.json",
            "sourceHash" : "4eb0ece98385fa5fe08ed695a51e7ab229ff7f9d6191888c46c89fd277694c75"
        },
        "blocks" : [
            {
                "blockHeader" : {
                    "bloom" : "0x00000000000000000000000000000000000000000000000000000000000000000000000000000000000000000000000000000000000000000000000000000000000000000000000000000000000000000000000000000000000000000000000000000000000000000000000000000000000000000000000000000000000000000000000000000000000000000000000000000000000000000000000000000000000000000000000000000000000000000000000000000000000000000000000000000000000000000000000000000000000000000000000000000000000000000000000000000000000000000000000000000000000000000000000000000000",
                    "coinbase" : "0x2adc25665018aa1fe0e6bc666dac8fc2697ff9ba",
                    "difficulty" : "0x020000",
                    "extraData" : "",
                    "gasLimit" : "0x989680",
                    "gasUsed" : "0x0109a0",
                    "hash" : "0xc49094eb828302d6cacdaec1e6a052658414dd02eecef79a04312c73742bb090",
                    "mixHash" : "0x6b17175a24c84fb7615f42ab0f12937087393eb1da2b2b1ddb3a8275761846e2",
                    "nonce" : "0x23242596d33acab3",
                    "number" : "0x01",
                    "parentHash" : "0x48b5f8772649f2b76c6f4b354c44447958eabd2be6a11ca9d3da8d98133599e9",
                    "receiptTrie" : "0xf5718fbf61b52401f67ab44fbc2ae82f4150f479668ff88c075278814e990d35",
                    "stateRoot" : "0x52849aa4ee8ff2178656caaa5405ce13cd1c6c8feac508fdedea119bf6eba59c",
                    "timestamp" : "0x03e8",
                    "transactionsTrie" : "0x8f24e0c5dc86996e9ed5034cca996ceb7b6044fbb1effbc59bb00aad9788a521",
                    "uncleHash" : "0x1dcc4de8dec75d7aab85b567b6ccd41ad312451b948a7413f0a142fd40d49347"
                },
                "rlp" : "0xf90280f901f8a048b5f8772649f2b76c6f4b354c44447958eabd2be6a11ca9d3da8d98133599e9a01dcc4de8dec75d7aab85b567b6ccd41ad312451b948a7413f0a142fd40d49347942adc25665018aa1fe0e6bc666dac8fc2697ff9baa052849aa4ee8ff2178656caaa5405ce13cd1c6c8feac508fdedea119bf6eba59ca08f24e0c5dc86996e9ed5034cca996ceb7b6044fbb1effbc59bb00aad9788a521a0f5718fbf61b52401f67ab44fbc2ae82f4150f479668ff88c075278814e990d35b9010000000000000000000000000000000000000000000000000000000000000000000000000000000000000000000000000000000000000000000000000000000000000000000000000000000000000000000000000000000000000000000000000000000000000000000000000000000000000000000000000000000000000000000000000000000000000000000000000000000000000000000000000000000000000000000000000000000000000000000000000000000000000000000000000000000000000000000000000000000000000000000000000000000000000000000000000000000000000000000000000000000000000000000000000000000000830200000183989680830109a08203e880a06b17175a24c84fb7615f42ab0f12937087393eb1da2b2b1ddb3a8275761846e28823242596d33acab3f882f8808001830109a094b94f5374fce5edbc8e2a8697c15331677e6ebf0b80a0000000000000000000000000b94f5374fce5edbc8e2a8697c15331677e6ebf0b1ca061d2fa757acaa2f6adf2f80ab8796847ed36ab3cd5832d570ba58887ef3203e8a02f36e284cdc7a7dce6cef630c9dacaac36b041ad4ef7f5c693de4593ae9c286ac0",
                "transactions" : [
                    {
                        "data" : "0x000000000000000000000000b94f5374fce5edbc8e2a8697c15331677e6ebf0b",
                        "gasLimit" : "0x0109a0",
                        "gasPrice" : "0x01",
                        "nonce" : "0x00",
                        "r" : "0x61d2fa757acaa2f6adf2f80ab8796847ed36ab3cd5832d570ba58887ef3203e8",
                        "s" : "0x2f36e284cdc7a7dce6cef630c9dacaac36b041ad4ef7f5c693de4593ae9c286a",
                        "to" : "0xb94f5374fce5edbc8e2a8697c15331677e6ebf0b",
                        "v" : "0x1c",
                        "value" : "0x00"
                    }
                ],
                "uncleHeaders" : [
                ]
            }
        ],
        "genesisBlockHeader" : {
            "bloom" : "0x00000000000000000000000000000000000000000000000000000000000000000000000000000000000000000000000000000000000000000000000000000000000000000000000000000000000000000000000000000000000000000000000000000000000000000000000000000000000000000000000000000000000000000000000000000000000000000000000000000000000000000000000000000000000000000000000000000000000000000000000000000000000000000000000000000000000000000000000000000000000000000000000000000000000000000000000000000000000000000000000000000000000000000000000000000000",
            "coinbase" : "0x2adc25665018aa1fe0e6bc666dac8fc2697ff9ba",
            "difficulty" : "0x020000",
            "extraData" : "0x42",
            "gasLimit" : "0x989680",
            "gasUsed" : "0x00",
            "hash" : "0x48b5f8772649f2b76c6f4b354c44447958eabd2be6a11ca9d3da8d98133599e9",
            "mixHash" : "0x56e81f171bcc55a6ff8345e692c0f86e5b48e01b996cadc001622fb5e363b421",
            "nonce" : "0x0102030405060708",
            "number" : "0x00",
            "parentHash" : "0x0000000000000000000000000000000000000000000000000000000000000000",
            "receiptTrie" : "0x56e81f171bcc55a6ff8345e692c0f86e5b48e01b996cadc001622fb5e363b421",
            "stateRoot" : "0x009eac12fad0a21887d19514dea3d9b6ffd0fa031cf3d7b3dfb581ece4167b11",
            "timestamp" : "0x03b6",
            "transactionsTrie" : "0x56e81f171bcc55a6ff8345e692c0f86e5b48e01b996cadc001622fb5e363b421",
            "uncleHash" : "0x1dcc4de8dec75d7aab85b567b6ccd41ad312451b948a7413f0a142fd40d49347"
        },
        "genesisRLP" : "0xf901faf901f5a00000000000000000000000000000000000000000000000000000000000000000a01dcc4de8dec75d7aab85b567b6ccd41ad312451b948a7413f0a142fd40d49347942adc25665018aa1fe0e6bc666dac8fc2697ff9baa0009eac12fad0a21887d19514dea3d9b6ffd0fa031cf3d7b3dfb581ece4167b11a056e81f171bcc55a6ff8345e692c0f86e5b48e01b996cadc001622fb5e363b421a056e81f171bcc55a6ff8345e692c0f86e5b48e01b996cadc001622fb5e363b421b9010000000000000000000000000000000000000000000000000000000000000000000000000000000000000000000000000000000000000000000000000000000000000000000000000000000000000000000000000000000000000000000000000000000000000000000000000000000000000000000000000000000000000000000000000000000000000000000000000000000000000000000000000000000000000000000000000000000000000000000000000000000000000000000000000000000000000000000000000000000000000000000000000000000000000000000000000000000000000000000000000000000000000000000000000000000000830200008083989680808203b642a056e81f171bcc55a6ff8345e692c0f86e5b48e01b996cadc001622fb5e363b421880102030405060708c0c0",
        "lastblockhash" : "0xc49094eb828302d6cacdaec1e6a052658414dd02eecef79a04312c73742bb090",
        "network" : "EIP158",
        "postState" : {
            "0x094f5374fce5edbc8e2a8697c15331677e6ebf0b" : {
                "balance" : "0x01",
                "code" : "0x6000600060006000600060003561ea60f1600a55",
                "nonce" : "0x00",
                "storage" : {
                }
            },
            "0x2adc25665018aa1fe0e6bc666dac8fc2697ff9ba" : {
                "balance" : "0x4563918244f509a0",
                "code" : "",
                "nonce" : "0x00",
                "storage" : {
                }
            },
            "0xa94f5374fce5edbc8e2a8697c15331677e6ebf0b" : {
                "balance" : "0xe8d4a40660",
                "code" : "",
                "nonce" : "0x01",
                "storage" : {
                }
            },
            "0xb94f5374fce5edbc8e2a8697c15331677e6ebf0b" : {
                "balance" : "0x01",
                "code" : "0x6000600060006000600073c94f5374fce5edbc8e2a8697c15331677e6ebf0b61c350f1600055600e600255",
                "nonce" : "0x00",
                "storage" : {
                }
            },
            "0xc94f5374fce5edbc8e2a8697c15331677e6ebf0b" : {
                "balance" : "0x01",
                "code" : "0x600c60015560016000fd600d600355",
                "nonce" : "0x00",
                "storage" : {
                }
            }
        },
        "pre" : {
            "0x094f5374fce5edbc8e2a8697c15331677e6ebf0b" : {
                "balance" : "0x01",
                "code" : "0x6000600060006000600060003561ea60f1600a55",
                "nonce" : "0x00",
                "storage" : {
                }
            },
            "0xa94f5374fce5edbc8e2a8697c15331677e6ebf0b" : {
                "balance" : "0xe8d4a51000",
                "code" : "",
                "nonce" : "0x00",
                "storage" : {
                }
            },
            "0xb94f5374fce5edbc8e2a8697c15331677e6ebf0b" : {
                "balance" : "0x01",
                "code" : "0x6000600060006000600073c94f5374fce5edbc8e2a8697c15331677e6ebf0b61c350f1600055600e600255",
                "nonce" : "0x00",
                "storage" : {
                }
            },
            "0xc94f5374fce5edbc8e2a8697c15331677e6ebf0b" : {
                "balance" : "0x01",
                "code" : "0x600c60015560016000fd600d600355",
                "nonce" : "0x00",
                "storage" : {
                }
            }
        }
    },
    "RevertOpcodeDirectCall_d0g1v0_Frontier" : {
        "_info" : {
            "comment" : "",
            "filledwith" : "cpp-1.3.0+commit.6e0ce939.Linux.g++",
            "lllcversion" : "Version: 0.4.18-develop.2017.9.25+commit.a72237f2.Linux.g++",
            "source" : "src/BlockchainTestsFiller/GeneralStateTests/stRevertTest/RevertOpcodeDirectCall_d0g1v0Filler.json",
            "sourceHash" : "4eb0ece98385fa5fe08ed695a51e7ab229ff7f9d6191888c46c89fd277694c75"
        },
        "blocks" : [
            {
                "blockHeader" : {
                    "bloom" : "0x00000000000000000000000000000000000000000000000000000000000000000000000000000000000000000000000000000000000000000000000000000000000000000000000000000000000000000000000000000000000000000000000000000000000000000000000000000000000000000000000000000000000000000000000000000000000000000000000000000000000000000000000000000000000000000000000000000000000000000000000000000000000000000000000000000000000000000000000000000000000000000000000000000000000000000000000000000000000000000000000000000000000000000000000000000000",
                    "coinbase" : "0x2adc25665018aa1fe0e6bc666dac8fc2697ff9ba",
                    "difficulty" : "0x020000",
                    "extraData" : "",
                    "gasLimit" : "0x989680",
                    "gasUsed" : "0x0109a0",
                    "hash" : "0xe6e291443e038fe4791f2079a1f988d11885b430d1e2f070e2fe0fbb49eb4d20",
                    "mixHash" : "0x66b71d2c1783b83447ed0274ba6d5d1918b4c23ad57440ce5e0d173f8d321289",
                    "nonce" : "0x95f438a0655f5328",
                    "number" : "0x01",
                    "parentHash" : "0x48b5f8772649f2b76c6f4b354c44447958eabd2be6a11ca9d3da8d98133599e9",
                    "receiptTrie" : "0xf5718fbf61b52401f67ab44fbc2ae82f4150f479668ff88c075278814e990d35",
                    "stateRoot" : "0x52849aa4ee8ff2178656caaa5405ce13cd1c6c8feac508fdedea119bf6eba59c",
                    "timestamp" : "0x03e8",
                    "transactionsTrie" : "0x8f24e0c5dc86996e9ed5034cca996ceb7b6044fbb1effbc59bb00aad9788a521",
                    "uncleHash" : "0x1dcc4de8dec75d7aab85b567b6ccd41ad312451b948a7413f0a142fd40d49347"
                },
                "rlp" : "0xf90280f901f8a048b5f8772649f2b76c6f4b354c44447958eabd2be6a11ca9d3da8d98133599e9a01dcc4de8dec75d7aab85b567b6ccd41ad312451b948a7413f0a142fd40d49347942adc25665018aa1fe0e6bc666dac8fc2697ff9baa052849aa4ee8ff2178656caaa5405ce13cd1c6c8feac508fdedea119bf6eba59ca08f24e0c5dc86996e9ed5034cca996ceb7b6044fbb1effbc59bb00aad9788a521a0f5718fbf61b52401f67ab44fbc2ae82f4150f479668ff88c075278814e990d35b9010000000000000000000000000000000000000000000000000000000000000000000000000000000000000000000000000000000000000000000000000000000000000000000000000000000000000000000000000000000000000000000000000000000000000000000000000000000000000000000000000000000000000000000000000000000000000000000000000000000000000000000000000000000000000000000000000000000000000000000000000000000000000000000000000000000000000000000000000000000000000000000000000000000000000000000000000000000000000000000000000000000000000000000000000000000000830200000183989680830109a08203e880a066b71d2c1783b83447ed0274ba6d5d1918b4c23ad57440ce5e0d173f8d3212898895f438a0655f5328f882f8808001830109a094b94f5374fce5edbc8e2a8697c15331677e6ebf0b80a0000000000000000000000000b94f5374fce5edbc8e2a8697c15331677e6ebf0b1ca061d2fa757acaa2f6adf2f80ab8796847ed36ab3cd5832d570ba58887ef3203e8a02f36e284cdc7a7dce6cef630c9dacaac36b041ad4ef7f5c693de4593ae9c286ac0",
                "transactions" : [
                    {
                        "data" : "0x000000000000000000000000b94f5374fce5edbc8e2a8697c15331677e6ebf0b",
                        "gasLimit" : "0x0109a0",
                        "gasPrice" : "0x01",
                        "nonce" : "0x00",
                        "r" : "0x61d2fa757acaa2f6adf2f80ab8796847ed36ab3cd5832d570ba58887ef3203e8",
                        "s" : "0x2f36e284cdc7a7dce6cef630c9dacaac36b041ad4ef7f5c693de4593ae9c286a",
                        "to" : "0xb94f5374fce5edbc8e2a8697c15331677e6ebf0b",
                        "v" : "0x1c",
                        "value" : "0x00"
                    }
                ],
                "uncleHeaders" : [
                ]
            }
        ],
        "genesisBlockHeader" : {
            "bloom" : "0x00000000000000000000000000000000000000000000000000000000000000000000000000000000000000000000000000000000000000000000000000000000000000000000000000000000000000000000000000000000000000000000000000000000000000000000000000000000000000000000000000000000000000000000000000000000000000000000000000000000000000000000000000000000000000000000000000000000000000000000000000000000000000000000000000000000000000000000000000000000000000000000000000000000000000000000000000000000000000000000000000000000000000000000000000000000",
            "coinbase" : "0x2adc25665018aa1fe0e6bc666dac8fc2697ff9ba",
            "difficulty" : "0x020000",
            "extraData" : "0x42",
            "gasLimit" : "0x989680",
            "gasUsed" : "0x00",
            "hash" : "0x48b5f8772649f2b76c6f4b354c44447958eabd2be6a11ca9d3da8d98133599e9",
            "mixHash" : "0x56e81f171bcc55a6ff8345e692c0f86e5b48e01b996cadc001622fb5e363b421",
            "nonce" : "0x0102030405060708",
            "number" : "0x00",
            "parentHash" : "0x0000000000000000000000000000000000000000000000000000000000000000",
            "receiptTrie" : "0x56e81f171bcc55a6ff8345e692c0f86e5b48e01b996cadc001622fb5e363b421",
            "stateRoot" : "0x009eac12fad0a21887d19514dea3d9b6ffd0fa031cf3d7b3dfb581ece4167b11",
            "timestamp" : "0x03b6",
            "transactionsTrie" : "0x56e81f171bcc55a6ff8345e692c0f86e5b48e01b996cadc001622fb5e363b421",
            "uncleHash" : "0x1dcc4de8dec75d7aab85b567b6ccd41ad312451b948a7413f0a142fd40d49347"
        },
        "genesisRLP" : "0xf901faf901f5a00000000000000000000000000000000000000000000000000000000000000000a01dcc4de8dec75d7aab85b567b6ccd41ad312451b948a7413f0a142fd40d49347942adc25665018aa1fe0e6bc666dac8fc2697ff9baa0009eac12fad0a21887d19514dea3d9b6ffd0fa031cf3d7b3dfb581ece4167b11a056e81f171bcc55a6ff8345e692c0f86e5b48e01b996cadc001622fb5e363b421a056e81f171bcc55a6ff8345e692c0f86e5b48e01b996cadc001622fb5e363b421b9010000000000000000000000000000000000000000000000000000000000000000000000000000000000000000000000000000000000000000000000000000000000000000000000000000000000000000000000000000000000000000000000000000000000000000000000000000000000000000000000000000000000000000000000000000000000000000000000000000000000000000000000000000000000000000000000000000000000000000000000000000000000000000000000000000000000000000000000000000000000000000000000000000000000000000000000000000000000000000000000000000000000000000000000000000000000830200008083989680808203b642a056e81f171bcc55a6ff8345e692c0f86e5b48e01b996cadc001622fb5e363b421880102030405060708c0c0",
        "lastblockhash" : "0xe6e291443e038fe4791f2079a1f988d11885b430d1e2f070e2fe0fbb49eb4d20",
        "network" : "Frontier",
        "postState" : {
            "0x094f5374fce5edbc8e2a8697c15331677e6ebf0b" : {
                "balance" : "0x01",
                "code" : "0x6000600060006000600060003561ea60f1600a55",
                "nonce" : "0x00",
                "storage" : {
                }
            },
            "0x2adc25665018aa1fe0e6bc666dac8fc2697ff9ba" : {
                "balance" : "0x4563918244f509a0",
                "code" : "",
                "nonce" : "0x00",
                "storage" : {
                }
            },
            "0xa94f5374fce5edbc8e2a8697c15331677e6ebf0b" : {
                "balance" : "0xe8d4a40660",
                "code" : "",
                "nonce" : "0x01",
                "storage" : {
                }
            },
            "0xb94f5374fce5edbc8e2a8697c15331677e6ebf0b" : {
                "balance" : "0x01",
                "code" : "0x6000600060006000600073c94f5374fce5edbc8e2a8697c15331677e6ebf0b61c350f1600055600e600255",
                "nonce" : "0x00",
                "storage" : {
                }
            },
            "0xc94f5374fce5edbc8e2a8697c15331677e6ebf0b" : {
                "balance" : "0x01",
                "code" : "0x600c60015560016000fd600d600355",
                "nonce" : "0x00",
                "storage" : {
                }
            }
        },
        "pre" : {
            "0x094f5374fce5edbc8e2a8697c15331677e6ebf0b" : {
                "balance" : "0x01",
                "code" : "0x6000600060006000600060003561ea60f1600a55",
                "nonce" : "0x00",
                "storage" : {
                }
            },
            "0xa94f5374fce5edbc8e2a8697c15331677e6ebf0b" : {
                "balance" : "0xe8d4a51000",
                "code" : "",
                "nonce" : "0x00",
                "storage" : {
                }
            },
            "0xb94f5374fce5edbc8e2a8697c15331677e6ebf0b" : {
                "balance" : "0x01",
                "code" : "0x6000600060006000600073c94f5374fce5edbc8e2a8697c15331677e6ebf0b61c350f1600055600e600255",
                "nonce" : "0x00",
                "storage" : {
                }
            },
            "0xc94f5374fce5edbc8e2a8697c15331677e6ebf0b" : {
                "balance" : "0x01",
                "code" : "0x600c60015560016000fd600d600355",
                "nonce" : "0x00",
                "storage" : {
                }
            }
        }
    },
    "RevertOpcodeDirectCall_d0g1v0_Homestead" : {
        "_info" : {
            "comment" : "",
            "filledwith" : "cpp-1.3.0+commit.6e0ce939.Linux.g++",
            "lllcversion" : "Version: 0.4.18-develop.2017.9.25+commit.a72237f2.Linux.g++",
            "source" : "src/BlockchainTestsFiller/GeneralStateTests/stRevertTest/RevertOpcodeDirectCall_d0g1v0Filler.json",
            "sourceHash" : "4eb0ece98385fa5fe08ed695a51e7ab229ff7f9d6191888c46c89fd277694c75"
        },
        "blocks" : [
            {
                "blockHeader" : {
                    "bloom" : "0x00000000000000000000000000000000000000000000000000000000000000000000000000000000000000000000000000000000000000000000000000000000000000000000000000000000000000000000000000000000000000000000000000000000000000000000000000000000000000000000000000000000000000000000000000000000000000000000000000000000000000000000000000000000000000000000000000000000000000000000000000000000000000000000000000000000000000000000000000000000000000000000000000000000000000000000000000000000000000000000000000000000000000000000000000000000",
                    "coinbase" : "0x2adc25665018aa1fe0e6bc666dac8fc2697ff9ba",
                    "difficulty" : "0x020000",
                    "extraData" : "",
                    "gasLimit" : "0x989680",
                    "gasUsed" : "0x0109a0",
                    "hash" : "0xc2e119c108889da6fae253d3be3eac04d596491b1f7764a6ea8a52b3b265ca63",
                    "mixHash" : "0x72e4019c0fb67d701fa39945e1f2ae80ebaefba21162a57f1856e9295d73f169",
                    "nonce" : "0x7036abaf8ed034d6",
                    "number" : "0x01",
                    "parentHash" : "0x48b5f8772649f2b76c6f4b354c44447958eabd2be6a11ca9d3da8d98133599e9",
                    "receiptTrie" : "0xf5718fbf61b52401f67ab44fbc2ae82f4150f479668ff88c075278814e990d35",
                    "stateRoot" : "0x52849aa4ee8ff2178656caaa5405ce13cd1c6c8feac508fdedea119bf6eba59c",
                    "timestamp" : "0x03e8",
                    "transactionsTrie" : "0x8f24e0c5dc86996e9ed5034cca996ceb7b6044fbb1effbc59bb00aad9788a521",
                    "uncleHash" : "0x1dcc4de8dec75d7aab85b567b6ccd41ad312451b948a7413f0a142fd40d49347"
                },
                "rlp" : "0xf90280f901f8a048b5f8772649f2b76c6f4b354c44447958eabd2be6a11ca9d3da8d98133599e9a01dcc4de8dec75d7aab85b567b6ccd41ad312451b948a7413f0a142fd40d49347942adc25665018aa1fe0e6bc666dac8fc2697ff9baa052849aa4ee8ff2178656caaa5405ce13cd1c6c8feac508fdedea119bf6eba59ca08f24e0c5dc86996e9ed5034cca996ceb7b6044fbb1effbc59bb00aad9788a521a0f5718fbf61b52401f67ab44fbc2ae82f4150f479668ff88c075278814e990d35b9010000000000000000000000000000000000000000000000000000000000000000000000000000000000000000000000000000000000000000000000000000000000000000000000000000000000000000000000000000000000000000000000000000000000000000000000000000000000000000000000000000000000000000000000000000000000000000000000000000000000000000000000000000000000000000000000000000000000000000000000000000000000000000000000000000000000000000000000000000000000000000000000000000000000000000000000000000000000000000000000000000000000000000000000000000000000830200000183989680830109a08203e880a072e4019c0fb67d701fa39945e1f2ae80ebaefba21162a57f1856e9295d73f169887036abaf8ed034d6f882f8808001830109a094b94f5374fce5edbc8e2a8697c15331677e6ebf0b80a0000000000000000000000000b94f5374fce5edbc8e2a8697c15331677e6ebf0b1ca061d2fa757acaa2f6adf2f80ab8796847ed36ab3cd5832d570ba58887ef3203e8a02f36e284cdc7a7dce6cef630c9dacaac36b041ad4ef7f5c693de4593ae9c286ac0",
                "transactions" : [
                    {
                        "data" : "0x000000000000000000000000b94f5374fce5edbc8e2a8697c15331677e6ebf0b",
                        "gasLimit" : "0x0109a0",
                        "gasPrice" : "0x01",
                        "nonce" : "0x00",
                        "r" : "0x61d2fa757acaa2f6adf2f80ab8796847ed36ab3cd5832d570ba58887ef3203e8",
                        "s" : "0x2f36e284cdc7a7dce6cef630c9dacaac36b041ad4ef7f5c693de4593ae9c286a",
                        "to" : "0xb94f5374fce5edbc8e2a8697c15331677e6ebf0b",
                        "v" : "0x1c",
                        "value" : "0x00"
                    }
                ],
                "uncleHeaders" : [
                ]
            }
        ],
        "genesisBlockHeader" : {
            "bloom" : "0x00000000000000000000000000000000000000000000000000000000000000000000000000000000000000000000000000000000000000000000000000000000000000000000000000000000000000000000000000000000000000000000000000000000000000000000000000000000000000000000000000000000000000000000000000000000000000000000000000000000000000000000000000000000000000000000000000000000000000000000000000000000000000000000000000000000000000000000000000000000000000000000000000000000000000000000000000000000000000000000000000000000000000000000000000000000",
            "coinbase" : "0x2adc25665018aa1fe0e6bc666dac8fc2697ff9ba",
            "difficulty" : "0x020000",
            "extraData" : "0x42",
            "gasLimit" : "0x989680",
            "gasUsed" : "0x00",
            "hash" : "0x48b5f8772649f2b76c6f4b354c44447958eabd2be6a11ca9d3da8d98133599e9",
            "mixHash" : "0x56e81f171bcc55a6ff8345e692c0f86e5b48e01b996cadc001622fb5e363b421",
            "nonce" : "0x0102030405060708",
            "number" : "0x00",
            "parentHash" : "0x0000000000000000000000000000000000000000000000000000000000000000",
            "receiptTrie" : "0x56e81f171bcc55a6ff8345e692c0f86e5b48e01b996cadc001622fb5e363b421",
            "stateRoot" : "0x009eac12fad0a21887d19514dea3d9b6ffd0fa031cf3d7b3dfb581ece4167b11",
            "timestamp" : "0x03b6",
            "transactionsTrie" : "0x56e81f171bcc55a6ff8345e692c0f86e5b48e01b996cadc001622fb5e363b421",
            "uncleHash" : "0x1dcc4de8dec75d7aab85b567b6ccd41ad312451b948a7413f0a142fd40d49347"
        },
        "genesisRLP" : "0xf901faf901f5a00000000000000000000000000000000000000000000000000000000000000000a01dcc4de8dec75d7aab85b567b6ccd41ad312451b948a7413f0a142fd40d49347942adc25665018aa1fe0e6bc666dac8fc2697ff9baa0009eac12fad0a21887d19514dea3d9b6ffd0fa031cf3d7b3dfb581ece4167b11a056e81f171bcc55a6ff8345e692c0f86e5b48e01b996cadc001622fb5e363b421a056e81f171bcc55a6ff8345e692c0f86e5b48e01b996cadc001622fb5e363b421b9010000000000000000000000000000000000000000000000000000000000000000000000000000000000000000000000000000000000000000000000000000000000000000000000000000000000000000000000000000000000000000000000000000000000000000000000000000000000000000000000000000000000000000000000000000000000000000000000000000000000000000000000000000000000000000000000000000000000000000000000000000000000000000000000000000000000000000000000000000000000000000000000000000000000000000000000000000000000000000000000000000000000000000000000000000000000830200008083989680808203b642a056e81f171bcc55a6ff8345e692c0f86e5b48e01b996cadc001622fb5e363b421880102030405060708c0c0",
        "lastblockhash" : "0xc2e119c108889da6fae253d3be3eac04d596491b1f7764a6ea8a52b3b265ca63",
        "network" : "Homestead",
        "postState" : {
            "0x094f5374fce5edbc8e2a8697c15331677e6ebf0b" : {
                "balance" : "0x01",
                "code" : "0x6000600060006000600060003561ea60f1600a55",
                "nonce" : "0x00",
                "storage" : {
                }
            },
            "0x2adc25665018aa1fe0e6bc666dac8fc2697ff9ba" : {
                "balance" : "0x4563918244f509a0",
                "code" : "",
                "nonce" : "0x00",
                "storage" : {
                }
            },
            "0xa94f5374fce5edbc8e2a8697c15331677e6ebf0b" : {
                "balance" : "0xe8d4a40660",
                "code" : "",
                "nonce" : "0x01",
                "storage" : {
                }
            },
            "0xb94f5374fce5edbc8e2a8697c15331677e6ebf0b" : {
                "balance" : "0x01",
                "code" : "0x6000600060006000600073c94f5374fce5edbc8e2a8697c15331677e6ebf0b61c350f1600055600e600255",
                "nonce" : "0x00",
                "storage" : {
                }
            },
            "0xc94f5374fce5edbc8e2a8697c15331677e6ebf0b" : {
                "balance" : "0x01",
                "code" : "0x600c60015560016000fd600d600355",
                "nonce" : "0x00",
                "storage" : {
                }
            }
        },
        "pre" : {
            "0x094f5374fce5edbc8e2a8697c15331677e6ebf0b" : {
                "balance" : "0x01",
                "code" : "0x6000600060006000600060003561ea60f1600a55",
                "nonce" : "0x00",
                "storage" : {
                }
            },
            "0xa94f5374fce5edbc8e2a8697c15331677e6ebf0b" : {
                "balance" : "0xe8d4a51000",
                "code" : "",
                "nonce" : "0x00",
                "storage" : {
                }
            },
            "0xb94f5374fce5edbc8e2a8697c15331677e6ebf0b" : {
                "balance" : "0x01",
                "code" : "0x6000600060006000600073c94f5374fce5edbc8e2a8697c15331677e6ebf0b61c350f1600055600e600255",
                "nonce" : "0x00",
                "storage" : {
                }
            },
            "0xc94f5374fce5edbc8e2a8697c15331677e6ebf0b" : {
                "balance" : "0x01",
                "code" : "0x600c60015560016000fd600d600355",
                "nonce" : "0x00",
                "storage" : {
                }
            }
        }
    }
}