{
    "TouchToEmptyAccountRevert_d0g0v0_Byzantium" : {
        "_info" : {
            "comment" : "",
            "filledwith" : "cpp-1.3.0+commit.6e0ce939.Linux.g++",
            "lllcversion" : "Version: 0.4.18-develop.2017.9.25+commit.a72237f2.Linux.g++",
            "source" : "src/BlockchainTestsFiller/GeneralStateTests/stRevertTest/TouchToEmptyAccountRevert_d0g0v0Filler.json",
            "sourceHash" : "8aab0c9375729bacc69c0a06bb58b242bb9364150f4b9893a09cca216b7aae4b"
        },
        "blocks" : [
            {
                "blockHeader" : {
                    "bloom" : "0x00000000000000000000000000000000000000000000000000000000000000000000000000000000000000000000000000000000000000000000000000000000000000000000000000000000000000000000000000000000000000000000000000000000000000000000000000000000000000000000000000000000000000000000000000000000000000000000000000000000000000000000000000000000000000000000000000000000000000000000000000000000000000000000000000000000000000000000000000000000000000000000000000000000000000000000000000000000000000000000000000000000000000000000000000000000",
                    "coinbase" : "0x2adc25665018aa1fe0e6bc666dac8fc2697ff9ba",
                    "difficulty" : "0x020000",
                    "extraData" : "",
                    "gasLimit" : "0x989680",
                    "gasUsed" : "0x011170",
                    "hash" : "0xf2b74fca7c4bc47fd46856e5a7e3b435c9f6aeb52964dad72d2dae364d0cd96b",
                    "mixHash" : "0x3c5bdf5bca8c2485a96928d838ac7c63d06d8364eef3d50fae4d8a0922082926",
                    "nonce" : "0x1f523d253d67e381",
                    "number" : "0x01",
                    "parentHash" : "0x315de2669b104120b392b9509423fdf81d5c015d4cfe702926064bb1c0092416",
                    "receiptTrie" : "0x33206fdb0b04af73aed5fcc49c377894a2ad7acc74a06782884999e9c75de4ba",
                    "stateRoot" : "0x8370cf68d185b74066bdfaea98788ae9a9246cc183ad3203ca762f132650da0a",
                    "timestamp" : "0x03e8",
                    "transactionsTrie" : "0xd807f8bb79d14c4fec93e6f45c181ea9926a3a7dacc86b275b394b36b841f867",
                    "uncleHash" : "0x1dcc4de8dec75d7aab85b567b6ccd41ad312451b948a7413f0a142fd40d49347"
                },
                "rlp" : "0xf90260f901f8a0315de2669b104120b392b9509423fdf81d5c015d4cfe702926064bb1c0092416a01dcc4de8dec75d7aab85b567b6ccd41ad312451b948a7413f0a142fd40d49347942adc25665018aa1fe0e6bc666dac8fc2697ff9baa08370cf68d185b74066bdfaea98788ae9a9246cc183ad3203ca762f132650da0aa0d807f8bb79d14c4fec93e6f45c181ea9926a3a7dacc86b275b394b36b841f867a033206fdb0b04af73aed5fcc49c377894a2ad7acc74a06782884999e9c75de4bab9010000000000000000000000000000000000000000000000000000000000000000000000000000000000000000000000000000000000000000000000000000000000000000000000000000000000000000000000000000000000000000000000000000000000000000000000000000000000000000000000000000000000000000000000000000000000000000000000000000000000000000000000000000000000000000000000000000000000000000000000000000000000000000000000000000000000000000000000000000000000000000000000000000000000000000000000000000000000000000000000000000000000000000000000000000000000830200000183989680830111708203e880a03c5bdf5bca8c2485a96928d838ac7c63d06d8364eef3d50fae4d8a0922082926881f523d253d67e381f862f86080018301117094b94f5374fce5edbc8e2a8697c15331677e6ebf0b80801ba02263a45338e3fd8975ecb00bb2be4f23ab279a8c7565d97c2b33420b3003d97ea059d5152e2d60f87cbb7a9d8c790730849553b2181514a6cd58564a29aeefad0ec0",
                "transactions" : [
                    {
                        "data" : "",
                        "gasLimit" : "0x011170",
                        "gasPrice" : "0x01",
                        "nonce" : "0x00",
                        "r" : "0x2263a45338e3fd8975ecb00bb2be4f23ab279a8c7565d97c2b33420b3003d97e",
                        "s" : "0x59d5152e2d60f87cbb7a9d8c790730849553b2181514a6cd58564a29aeefad0e",
                        "to" : "0xb94f5374fce5edbc8e2a8697c15331677e6ebf0b",
                        "v" : "0x1b",
                        "value" : "0x00"
                    }
                ],
                "uncleHeaders" : [
                ]
            }
        ],
        "genesisBlockHeader" : {
            "bloom" : "0x00000000000000000000000000000000000000000000000000000000000000000000000000000000000000000000000000000000000000000000000000000000000000000000000000000000000000000000000000000000000000000000000000000000000000000000000000000000000000000000000000000000000000000000000000000000000000000000000000000000000000000000000000000000000000000000000000000000000000000000000000000000000000000000000000000000000000000000000000000000000000000000000000000000000000000000000000000000000000000000000000000000000000000000000000000000",
            "coinbase" : "0x2adc25665018aa1fe0e6bc666dac8fc2697ff9ba",
            "difficulty" : "0x020000",
            "extraData" : "0x42",
            "gasLimit" : "0x989680",
            "gasUsed" : "0x00",
            "hash" : "0x315de2669b104120b392b9509423fdf81d5c015d4cfe702926064bb1c0092416",
            "mixHash" : "0x56e81f171bcc55a6ff8345e692c0f86e5b48e01b996cadc001622fb5e363b421",
            "nonce" : "0x0102030405060708",
            "number" : "0x00",
            "parentHash" : "0x0000000000000000000000000000000000000000000000000000000000000000",
            "receiptTrie" : "0x56e81f171bcc55a6ff8345e692c0f86e5b48e01b996cadc001622fb5e363b421",
            "stateRoot" : "0xdbc6ae9218631af51abf428b88d44c9b4b97c81d3fea9d88203cd307f05cce58",
            "timestamp" : "0x03b6",
            "transactionsTrie" : "0x56e81f171bcc55a6ff8345e692c0f86e5b48e01b996cadc001622fb5e363b421",
            "uncleHash" : "0x1dcc4de8dec75d7aab85b567b6ccd41ad312451b948a7413f0a142fd40d49347"
        },
        "genesisRLP" : "0xf901faf901f5a00000000000000000000000000000000000000000000000000000000000000000a01dcc4de8dec75d7aab85b567b6ccd41ad312451b948a7413f0a142fd40d49347942adc25665018aa1fe0e6bc666dac8fc2697ff9baa0dbc6ae9218631af51abf428b88d44c9b4b97c81d3fea9d88203cd307f05cce58a056e81f171bcc55a6ff8345e692c0f86e5b48e01b996cadc001622fb5e363b421a056e81f171bcc55a6ff8345e692c0f86e5b48e01b996cadc001622fb5e363b421b9010000000000000000000000000000000000000000000000000000000000000000000000000000000000000000000000000000000000000000000000000000000000000000000000000000000000000000000000000000000000000000000000000000000000000000000000000000000000000000000000000000000000000000000000000000000000000000000000000000000000000000000000000000000000000000000000000000000000000000000000000000000000000000000000000000000000000000000000000000000000000000000000000000000000000000000000000000000000000000000000000000000000000000000000000000000000830200008083989680808203b642a056e81f171bcc55a6ff8345e692c0f86e5b48e01b996cadc001622fb5e363b421880102030405060708c0c0",
        "lastblockhash" : "0xf2b74fca7c4bc47fd46856e5a7e3b435c9f6aeb52964dad72d2dae364d0cd96b",
        "network" : "Byzantium",
        "postState" : {
            "0x1000000000000000000000000000000000000000" : {
                "balance" : "0x00",
                "code" : "",
                "nonce" : "0x00",
                "storage" : {
                }
            },
            "0x2adc25665018aa1fe0e6bc666dac8fc2697ff9ba" : {
                "balance" : "0x29a2241af62d1170",
                "code" : "",
                "nonce" : "0x00",
                "storage" : {
                }
            },
            "0xa94f5374fce5edbc8e2a8697c15331677e6ebf0b" : {
                "balance" : "0xe8d4a3fe90",
                "code" : "",
                "nonce" : "0x01",
                "storage" : {
                }
            },
            "0xb94f5374fce5edbc8e2a8697c15331677e6ebf0b" : {
                "balance" : "0x00",
                "code" : "0x6000600060006000600073c94f5374fce5edbc8e2a8697c15331677e6ebf0b617530f16000556001600255",
                "nonce" : "0x00",
                "storage" : {
                }
            },
            "0xc94f5374fce5edbc8e2a8697c15331677e6ebf0b" : {
                "balance" : "0x00",
                "code" : "0x60006000600060006000731000000000000000000000000000000000000000617530f1600155",
                "nonce" : "0x00",
                "storage" : {
                }
            }
        },
        "pre" : {
            "0x1000000000000000000000000000000000000000" : {
                "balance" : "0x00",
                "code" : "",
                "nonce" : "0x00",
                "storage" : {
                }
            },
            "0xa94f5374fce5edbc8e2a8697c15331677e6ebf0b" : {
                "balance" : "0xe8d4a51000",
                "code" : "",
                "nonce" : "0x00",
                "storage" : {
                }
            },
            "0xb94f5374fce5edbc8e2a8697c15331677e6ebf0b" : {
                "balance" : "0x00",
                "code" : "0x6000600060006000600073c94f5374fce5edbc8e2a8697c15331677e6ebf0b617530f16000556001600255",
                "nonce" : "0x00",
                "storage" : {
                }
            },
            "0xc94f5374fce5edbc8e2a8697c15331677e6ebf0b" : {
                "balance" : "0x00",
                "code" : "0x60006000600060006000731000000000000000000000000000000000000000617530f1600155",
                "nonce" : "0x00",
                "storage" : {
                }
            }
        }
    },
    "TouchToEmptyAccountRevert_d0g0v0_EIP150" : {
        "_info" : {
            "comment" : "",
            "filledwith" : "cpp-1.3.0+commit.6e0ce939.Linux.g++",
            "lllcversion" : "Version: 0.4.18-develop.2017.9.25+commit.a72237f2.Linux.g++",
            "source" : "src/BlockchainTestsFiller/GeneralStateTests/stRevertTest/TouchToEmptyAccountRevert_d0g0v0Filler.json",
            "sourceHash" : "8aab0c9375729bacc69c0a06bb58b242bb9364150f4b9893a09cca216b7aae4b"
        },
        "blocks" : [
            {
                "blockHeader" : {
                    "bloom" : "0x00000000000000000000000000000000000000000000000000000000000000000000000000000000000000000000000000000000000000000000000000000000000000000000000000000000000000000000000000000000000000000000000000000000000000000000000000000000000000000000000000000000000000000000000000000000000000000000000000000000000000000000000000000000000000000000000000000000000000000000000000000000000000000000000000000000000000000000000000000000000000000000000000000000000000000000000000000000000000000000000000000000000000000000000000000000",
                    "coinbase" : "0x2adc25665018aa1fe0e6bc666dac8fc2697ff9ba",
                    "difficulty" : "0x020000",
                    "extraData" : "",
                    "gasLimit" : "0x989680",
                    "gasUsed" : "0x011170",
                    "hash" : "0xd5a5e32df438aef511602d64f3a5f0df179d4b8942d6c521c8a970e287c8f5f3",
                    "mixHash" : "0x442823afa641802597038af0e19d1cf1c324d6853b1ff3281e4e83121e3e9177",
                    "nonce" : "0x51321286b6545c88",
                    "number" : "0x01",
                    "parentHash" : "0x315de2669b104120b392b9509423fdf81d5c015d4cfe702926064bb1c0092416",
                    "receiptTrie" : "0x3f8578a5df8bb8949052794afae34c2f203261cf9d8d66831c8bf1375454f56a",
                    "stateRoot" : "0xf84fb9fd05a6169e6e31f15f527fce50b1b92cb905d38b614cf99afa1c1df23b",
                    "timestamp" : "0x03e8",
                    "transactionsTrie" : "0xd807f8bb79d14c4fec93e6f45c181ea9926a3a7dacc86b275b394b36b841f867",
                    "uncleHash" : "0x1dcc4de8dec75d7aab85b567b6ccd41ad312451b948a7413f0a142fd40d49347"
                },
                "rlp" : "0xf90260f901f8a0315de2669b104120b392b9509423fdf81d5c015d4cfe702926064bb1c0092416a01dcc4de8dec75d7aab85b567b6ccd41ad312451b948a7413f0a142fd40d49347942adc25665018aa1fe0e6bc666dac8fc2697ff9baa0f84fb9fd05a6169e6e31f15f527fce50b1b92cb905d38b614cf99afa1c1df23ba0d807f8bb79d14c4fec93e6f45c181ea9926a3a7dacc86b275b394b36b841f867a03f8578a5df8bb8949052794afae34c2f203261cf9d8d66831c8bf1375454f56ab9010000000000000000000000000000000000000000000000000000000000000000000000000000000000000000000000000000000000000000000000000000000000000000000000000000000000000000000000000000000000000000000000000000000000000000000000000000000000000000000000000000000000000000000000000000000000000000000000000000000000000000000000000000000000000000000000000000000000000000000000000000000000000000000000000000000000000000000000000000000000000000000000000000000000000000000000000000000000000000000000000000000000000000000000000000000000830200000183989680830111708203e880a0442823afa641802597038af0e19d1cf1c324d6853b1ff3281e4e83121e3e91778851321286b6545c88f862f86080018301117094b94f5374fce5edbc8e2a8697c15331677e6ebf0b80801ba02263a45338e3fd8975ecb00bb2be4f23ab279a8c7565d97c2b33420b3003d97ea059d5152e2d60f87cbb7a9d8c790730849553b2181514a6cd58564a29aeefad0ec0",
                "transactions" : [
                    {
                        "data" : "",
                        "gasLimit" : "0x011170",
                        "gasPrice" : "0x01",
                        "nonce" : "0x00",
                        "r" : "0x2263a45338e3fd8975ecb00bb2be4f23ab279a8c7565d97c2b33420b3003d97e",
                        "s" : "0x59d5152e2d60f87cbb7a9d8c790730849553b2181514a6cd58564a29aeefad0e",
                        "to" : "0xb94f5374fce5edbc8e2a8697c15331677e6ebf0b",
                        "v" : "0x1b",
                        "value" : "0x00"
                    }
                ],
                "uncleHeaders" : [
                ]
            }
        ],
        "genesisBlockHeader" : {
            "bloom" : "0x00000000000000000000000000000000000000000000000000000000000000000000000000000000000000000000000000000000000000000000000000000000000000000000000000000000000000000000000000000000000000000000000000000000000000000000000000000000000000000000000000000000000000000000000000000000000000000000000000000000000000000000000000000000000000000000000000000000000000000000000000000000000000000000000000000000000000000000000000000000000000000000000000000000000000000000000000000000000000000000000000000000000000000000000000000000",
            "coinbase" : "0x2adc25665018aa1fe0e6bc666dac8fc2697ff9ba",
            "difficulty" : "0x020000",
            "extraData" : "0x42",
            "gasLimit" : "0x989680",
            "gasUsed" : "0x00",
            "hash" : "0x315de2669b104120b392b9509423fdf81d5c015d4cfe702926064bb1c0092416",
            "mixHash" : "0x56e81f171bcc55a6ff8345e692c0f86e5b48e01b996cadc001622fb5e363b421",
            "nonce" : "0x0102030405060708",
            "number" : "0x00",
            "parentHash" : "0x0000000000000000000000000000000000000000000000000000000000000000",
            "receiptTrie" : "0x56e81f171bcc55a6ff8345e692c0f86e5b48e01b996cadc001622fb5e363b421",
            "stateRoot" : "0xdbc6ae9218631af51abf428b88d44c9b4b97c81d3fea9d88203cd307f05cce58",
            "timestamp" : "0x03b6",
            "transactionsTrie" : "0x56e81f171bcc55a6ff8345e692c0f86e5b48e01b996cadc001622fb5e363b421",
            "uncleHash" : "0x1dcc4de8dec75d7aab85b567b6ccd41ad312451b948a7413f0a142fd40d49347"
        },
        "genesisRLP" : "0xf901faf901f5a00000000000000000000000000000000000000000000000000000000000000000a01dcc4de8dec75d7aab85b567b6ccd41ad312451b948a7413f0a142fd40d49347942adc25665018aa1fe0e6bc666dac8fc2697ff9baa0dbc6ae9218631af51abf428b88d44c9b4b97c81d3fea9d88203cd307f05cce58a056e81f171bcc55a6ff8345e692c0f86e5b48e01b996cadc001622fb5e363b421a056e81f171bcc55a6ff8345e692c0f86e5b48e01b996cadc001622fb5e363b421b9010000000000000000000000000000000000000000000000000000000000000000000000000000000000000000000000000000000000000000000000000000000000000000000000000000000000000000000000000000000000000000000000000000000000000000000000000000000000000000000000000000000000000000000000000000000000000000000000000000000000000000000000000000000000000000000000000000000000000000000000000000000000000000000000000000000000000000000000000000000000000000000000000000000000000000000000000000000000000000000000000000000000000000000000000000000000830200008083989680808203b642a056e81f171bcc55a6ff8345e692c0f86e5b48e01b996cadc001622fb5e363b421880102030405060708c0c0",
        "lastblockhash" : "0xd5a5e32df438aef511602d64f3a5f0df179d4b8942d6c521c8a970e287c8f5f3",
        "network" : "EIP150",
        "postState" : {
            "0x1000000000000000000000000000000000000000" : {
                "balance" : "0x00",
                "code" : "",
                "nonce" : "0x00",
                "storage" : {
                }
            },
            "0x2adc25665018aa1fe0e6bc666dac8fc2697ff9ba" : {
                "balance" : "0x4563918244f51170",
                "code" : "",
                "nonce" : "0x00",
                "storage" : {
                }
            },
            "0xa94f5374fce5edbc8e2a8697c15331677e6ebf0b" : {
                "balance" : "0xe8d4a3fe90",
                "code" : "",
                "nonce" : "0x01",
                "storage" : {
                }
            },
            "0xb94f5374fce5edbc8e2a8697c15331677e6ebf0b" : {
                "balance" : "0x00",
                "code" : "0x6000600060006000600073c94f5374fce5edbc8e2a8697c15331677e6ebf0b617530f16000556001600255",
                "nonce" : "0x00",
                "storage" : {
                }
            },
            "0xc94f5374fce5edbc8e2a8697c15331677e6ebf0b" : {
                "balance" : "0x00",
                "code" : "0x60006000600060006000731000000000000000000000000000000000000000617530f1600155",
                "nonce" : "0x00",
                "storage" : {
                }
            }
        },
        "pre" : {
            "0x1000000000000000000000000000000000000000" : {
                "balance" : "0x00",
                "code" : "",
                "nonce" : "0x00",
                "storage" : {
                }
            },
            "0xa94f5374fce5edbc8e2a8697c15331677e6ebf0b" : {
                "balance" : "0xe8d4a51000",
                "code" : "",
                "nonce" : "0x00",
                "storage" : {
                }
            },
            "0xb94f5374fce5edbc8e2a8697c15331677e6ebf0b" : {
                "balance" : "0x00",
                "code" : "0x6000600060006000600073c94f5374fce5edbc8e2a8697c15331677e6ebf0b617530f16000556001600255",
                "nonce" : "0x00",
                "storage" : {
                }
            },
            "0xc94f5374fce5edbc8e2a8697c15331677e6ebf0b" : {
                "balance" : "0x00",
                "code" : "0x60006000600060006000731000000000000000000000000000000000000000617530f1600155",
                "nonce" : "0x00",
                "storage" : {
                }
            }
        }
    },
    "TouchToEmptyAccountRevert_d0g0v0_EIP158" : {
        "_info" : {
            "comment" : "",
            "filledwith" : "cpp-1.3.0+commit.6e0ce939.Linux.g++",
            "lllcversion" : "Version: 0.4.18-develop.2017.9.25+commit.a72237f2.Linux.g++",
            "source" : "src/BlockchainTestsFiller/GeneralStateTests/stRevertTest/TouchToEmptyAccountRevert_d0g0v0Filler.json",
            "sourceHash" : "8aab0c9375729bacc69c0a06bb58b242bb9364150f4b9893a09cca216b7aae4b"
        },
        "blocks" : [
            {
                "blockHeader" : {
                    "bloom" : "0x00000000000000000000000000000000000000000000000000000000000000000000000000000000000000000000000000000000000000000000000000000000000000000000000000000000000000000000000000000000000000000000000000000000000000000000000000000000000000000000000000000000000000000000000000000000000000000000000000000000000000000000000000000000000000000000000000000000000000000000000000000000000000000000000000000000000000000000000000000000000000000000000000000000000000000000000000000000000000000000000000000000000000000000000000000000",
                    "coinbase" : "0x2adc25665018aa1fe0e6bc666dac8fc2697ff9ba",
                    "difficulty" : "0x020000",
                    "extraData" : "",
                    "gasLimit" : "0x989680",
                    "gasUsed" : "0x011170",
                    "hash" : "0x4ffee5eb895688292f9886dfe93a4256a5a336f0fd76618766124e68d9aad9d2",
                    "mixHash" : "0x7c6610ad0f687383c6c887b815dea87291c7cac1ffce6d5b727729bdb649abd3",
                    "nonce" : "0x79ad47193f7c29c8",
                    "number" : "0x01",
                    "parentHash" : "0x315de2669b104120b392b9509423fdf81d5c015d4cfe702926064bb1c0092416",
                    "receiptTrie" : "0x3f8578a5df8bb8949052794afae34c2f203261cf9d8d66831c8bf1375454f56a",
                    "stateRoot" : "0xf84fb9fd05a6169e6e31f15f527fce50b1b92cb905d38b614cf99afa1c1df23b",
                    "timestamp" : "0x03e8",
                    "transactionsTrie" : "0xd807f8bb79d14c4fec93e6f45c181ea9926a3a7dacc86b275b394b36b841f867",
                    "uncleHash" : "0x1dcc4de8dec75d7aab85b567b6ccd41ad312451b948a7413f0a142fd40d49347"
                },
                "rlp" : "0xf90260f901f8a0315de2669b104120b392b9509423fdf81d5c015d4cfe702926064bb1c0092416a01dcc4de8dec75d7aab85b567b6ccd41ad312451b948a7413f0a142fd40d49347942adc25665018aa1fe0e6bc666dac8fc2697ff9baa0f84fb9fd05a6169e6e31f15f527fce50b1b92cb905d38b614cf99afa1c1df23ba0d807f8bb79d14c4fec93e6f45c181ea9926a3a7dacc86b275b394b36b841f867a03f8578a5df8bb8949052794afae34c2f203261cf9d8d66831c8bf1375454f56ab9010000000000000000000000000000000000000000000000000000000000000000000000000000000000000000000000000000000000000000000000000000000000000000000000000000000000000000000000000000000000000000000000000000000000000000000000000000000000000000000000000000000000000000000000000000000000000000000000000000000000000000000000000000000000000000000000000000000000000000000000000000000000000000000000000000000000000000000000000000000000000000000000000000000000000000000000000000000000000000000000000000000000000000000000000000000000830200000183989680830111708203e880a07c6610ad0f687383c6c887b815dea87291c7cac1ffce6d5b727729bdb649abd38879ad47193f7c29c8f862f86080018301117094b94f5374fce5edbc8e2a8697c15331677e6ebf0b80801ba02263a45338e3fd8975ecb00bb2be4f23ab279a8c7565d97c2b33420b3003d97ea059d5152e2d60f87cbb7a9d8c790730849553b2181514a6cd58564a29aeefad0ec0",
                "transactions" : [
                    {
                        "data" : "",
                        "gasLimit" : "0x011170",
                        "gasPrice" : "0x01",
                        "nonce" : "0x00",
                        "r" : "0x2263a45338e3fd8975ecb00bb2be4f23ab279a8c7565d97c2b33420b3003d97e",
                        "s" : "0x59d5152e2d60f87cbb7a9d8c790730849553b2181514a6cd58564a29aeefad0e",
                        "to" : "0xb94f5374fce5edbc8e2a8697c15331677e6ebf0b",
                        "v" : "0x1b",
                        "value" : "0x00"
                    }
                ],
                "uncleHeaders" : [
                ]
            }
        ],
        "genesisBlockHeader" : {
            "bloom" : "0x00000000000000000000000000000000000000000000000000000000000000000000000000000000000000000000000000000000000000000000000000000000000000000000000000000000000000000000000000000000000000000000000000000000000000000000000000000000000000000000000000000000000000000000000000000000000000000000000000000000000000000000000000000000000000000000000000000000000000000000000000000000000000000000000000000000000000000000000000000000000000000000000000000000000000000000000000000000000000000000000000000000000000000000000000000000",
            "coinbase" : "0x2adc25665018aa1fe0e6bc666dac8fc2697ff9ba",
            "difficulty" : "0x020000",
            "extraData" : "0x42",
            "gasLimit" : "0x989680",
            "gasUsed" : "0x00",
            "hash" : "0x315de2669b104120b392b9509423fdf81d5c015d4cfe702926064bb1c0092416",
            "mixHash" : "0x56e81f171bcc55a6ff8345e692c0f86e5b48e01b996cadc001622fb5e363b421",
            "nonce" : "0x0102030405060708",
            "number" : "0x00",
            "parentHash" : "0x0000000000000000000000000000000000000000000000000000000000000000",
            "receiptTrie" : "0x56e81f171bcc55a6ff8345e692c0f86e5b48e01b996cadc001622fb5e363b421",
            "stateRoot" : "0xdbc6ae9218631af51abf428b88d44c9b4b97c81d3fea9d88203cd307f05cce58",
            "timestamp" : "0x03b6",
            "transactionsTrie" : "0x56e81f171bcc55a6ff8345e692c0f86e5b48e01b996cadc001622fb5e363b421",
            "uncleHash" : "0x1dcc4de8dec75d7aab85b567b6ccd41ad312451b948a7413f0a142fd40d49347"
        },
        "genesisRLP" : "0xf901faf901f5a00000000000000000000000000000000000000000000000000000000000000000a01dcc4de8dec75d7aab85b567b6ccd41ad312451b948a7413f0a142fd40d49347942adc25665018aa1fe0e6bc666dac8fc2697ff9baa0dbc6ae9218631af51abf428b88d44c9b4b97c81d3fea9d88203cd307f05cce58a056e81f171bcc55a6ff8345e692c0f86e5b48e01b996cadc001622fb5e363b421a056e81f171bcc55a6ff8345e692c0f86e5b48e01b996cadc001622fb5e363b421b9010000000000000000000000000000000000000000000000000000000000000000000000000000000000000000000000000000000000000000000000000000000000000000000000000000000000000000000000000000000000000000000000000000000000000000000000000000000000000000000000000000000000000000000000000000000000000000000000000000000000000000000000000000000000000000000000000000000000000000000000000000000000000000000000000000000000000000000000000000000000000000000000000000000000000000000000000000000000000000000000000000000000000000000000000000000000830200008083989680808203b642a056e81f171bcc55a6ff8345e692c0f86e5b48e01b996cadc001622fb5e363b421880102030405060708c0c0",
        "lastblockhash" : "0x4ffee5eb895688292f9886dfe93a4256a5a336f0fd76618766124e68d9aad9d2",
        "network" : "EIP158",
        "postState" : {
            "0x1000000000000000000000000000000000000000" : {
                "balance" : "0x00",
                "code" : "",
                "nonce" : "0x00",
                "storage" : {
                }
            },
            "0x2adc25665018aa1fe0e6bc666dac8fc2697ff9ba" : {
                "balance" : "0x4563918244f51170",
                "code" : "",
                "nonce" : "0x00",
                "storage" : {
                }
            },
            "0xa94f5374fce5edbc8e2a8697c15331677e6ebf0b" : {
                "balance" : "0xe8d4a3fe90",
                "code" : "",
                "nonce" : "0x01",
                "storage" : {
                }
            },
            "0xb94f5374fce5edbc8e2a8697c15331677e6ebf0b" : {
                "balance" : "0x00",
                "code" : "0x6000600060006000600073c94f5374fce5edbc8e2a8697c15331677e6ebf0b617530f16000556001600255",
                "nonce" : "0x00",
                "storage" : {
                }
            },
            "0xc94f5374fce5edbc8e2a8697c15331677e6ebf0b" : {
                "balance" : "0x00",
                "code" : "0x60006000600060006000731000000000000000000000000000000000000000617530f1600155",
                "nonce" : "0x00",
                "storage" : {
                }
            }
        },
        "pre" : {
            "0x1000000000000000000000000000000000000000" : {
                "balance" : "0x00",
                "code" : "",
                "nonce" : "0x00",
                "storage" : {
                }
            },
            "0xa94f5374fce5edbc8e2a8697c15331677e6ebf0b" : {
                "balance" : "0xe8d4a51000",
                "code" : "",
                "nonce" : "0x00",
                "storage" : {
                }
            },
            "0xb94f5374fce5edbc8e2a8697c15331677e6ebf0b" : {
                "balance" : "0x00",
                "code" : "0x6000600060006000600073c94f5374fce5edbc8e2a8697c15331677e6ebf0b617530f16000556001600255",
                "nonce" : "0x00",
                "storage" : {
                }
            },
            "0xc94f5374fce5edbc8e2a8697c15331677e6ebf0b" : {
                "balance" : "0x00",
                "code" : "0x60006000600060006000731000000000000000000000000000000000000000617530f1600155",
                "nonce" : "0x00",
                "storage" : {
                }
            }
        }
    },
    "TouchToEmptyAccountRevert_d0g0v0_Frontier" : {
        "_info" : {
            "comment" : "",
            "filledwith" : "cpp-1.3.0+commit.6e0ce939.Linux.g++",
            "lllcversion" : "Version: 0.4.18-develop.2017.9.25+commit.a72237f2.Linux.g++",
            "source" : "src/BlockchainTestsFiller/GeneralStateTests/stRevertTest/TouchToEmptyAccountRevert_d0g0v0Filler.json",
            "sourceHash" : "8aab0c9375729bacc69c0a06bb58b242bb9364150f4b9893a09cca216b7aae4b"
        },
        "blocks" : [
            {
                "blockHeader" : {
                    "bloom" : "0x00000000000000000000000000000000000000000000000000000000000000000000000000000000000000000000000000000000000000000000000000000000000000000000000000000000000000000000000000000000000000000000000000000000000000000000000000000000000000000000000000000000000000000000000000000000000000000000000000000000000000000000000000000000000000000000000000000000000000000000000000000000000000000000000000000000000000000000000000000000000000000000000000000000000000000000000000000000000000000000000000000000000000000000000000000000",
                    "coinbase" : "0x2adc25665018aa1fe0e6bc666dac8fc2697ff9ba",
                    "difficulty" : "0x020000",
                    "extraData" : "",
                    "gasLimit" : "0x989680",
                    "gasUsed" : "0x011170",
                    "hash" : "0xd29b64769b2beec9b484b3f008076760d34b5fe20a216dbaaf6226d7840a9ca9",
                    "mixHash" : "0xc5ec076d52e2ae4d3022557cda166847c86892e1484de62f79a98d18bfeda0d7",
                    "nonce" : "0x8c8fc42e1fabc99d",
                    "number" : "0x01",
                    "parentHash" : "0x315de2669b104120b392b9509423fdf81d5c015d4cfe702926064bb1c0092416",
                    "receiptTrie" : "0x3f8578a5df8bb8949052794afae34c2f203261cf9d8d66831c8bf1375454f56a",
                    "stateRoot" : "0xf84fb9fd05a6169e6e31f15f527fce50b1b92cb905d38b614cf99afa1c1df23b",
                    "timestamp" : "0x03e8",
                    "transactionsTrie" : "0xd807f8bb79d14c4fec93e6f45c181ea9926a3a7dacc86b275b394b36b841f867",
                    "uncleHash" : "0x1dcc4de8dec75d7aab85b567b6ccd41ad312451b948a7413f0a142fd40d49347"
                },
                "rlp" : "0xf90260f901f8a0315de2669b104120b392b9509423fdf81d5c015d4cfe702926064bb1c0092416a01dcc4de8dec75d7aab85b567b6ccd41ad312451b948a7413f0a142fd40d49347942adc25665018aa1fe0e6bc666dac8fc2697ff9baa0f84fb9fd05a6169e6e31f15f527fce50b1b92cb905d38b614cf99afa1c1df23ba0d807f8bb79d14c4fec93e6f45c181ea9926a3a7dacc86b275b394b36b841f867a03f8578a5df8bb8949052794afae34c2f203261cf9d8d66831c8bf1375454f56ab9010000000000000000000000000000000000000000000000000000000000000000000000000000000000000000000000000000000000000000000000000000000000000000000000000000000000000000000000000000000000000000000000000000000000000000000000000000000000000000000000000000000000000000000000000000000000000000000000000000000000000000000000000000000000000000000000000000000000000000000000000000000000000000000000000000000000000000000000000000000000000000000000000000000000000000000000000000000000000000000000000000000000000000000000000000000000830200000183989680830111708203e880a0c5ec076d52e2ae4d3022557cda166847c86892e1484de62f79a98d18bfeda0d7888c8fc42e1fabc99df862f86080018301117094b94f5374fce5edbc8e2a8697c15331677e6ebf0b80801ba02263a45338e3fd8975ecb00bb2be4f23ab279a8c7565d97c2b33420b3003d97ea059d5152e2d60f87cbb7a9d8c790730849553b2181514a6cd58564a29aeefad0ec0",
                "transactions" : [
                    {
                        "data" : "",
                        "gasLimit" : "0x011170",
                        "gasPrice" : "0x01",
                        "nonce" : "0x00",
                        "r" : "0x2263a45338e3fd8975ecb00bb2be4f23ab279a8c7565d97c2b33420b3003d97e",
                        "s" : "0x59d5152e2d60f87cbb7a9d8c790730849553b2181514a6cd58564a29aeefad0e",
                        "to" : "0xb94f5374fce5edbc8e2a8697c15331677e6ebf0b",
                        "v" : "0x1b",
                        "value" : "0x00"
                    }
                ],
                "uncleHeaders" : [
                ]
            }
        ],
        "genesisBlockHeader" : {
            "bloom" : "0x00000000000000000000000000000000000000000000000000000000000000000000000000000000000000000000000000000000000000000000000000000000000000000000000000000000000000000000000000000000000000000000000000000000000000000000000000000000000000000000000000000000000000000000000000000000000000000000000000000000000000000000000000000000000000000000000000000000000000000000000000000000000000000000000000000000000000000000000000000000000000000000000000000000000000000000000000000000000000000000000000000000000000000000000000000000",
            "coinbase" : "0x2adc25665018aa1fe0e6bc666dac8fc2697ff9ba",
            "difficulty" : "0x020000",
            "extraData" : "0x42",
            "gasLimit" : "0x989680",
            "gasUsed" : "0x00",
            "hash" : "0x315de2669b104120b392b9509423fdf81d5c015d4cfe702926064bb1c0092416",
            "mixHash" : "0x56e81f171bcc55a6ff8345e692c0f86e5b48e01b996cadc001622fb5e363b421",
            "nonce" : "0x0102030405060708",
            "number" : "0x00",
            "parentHash" : "0x0000000000000000000000000000000000000000000000000000000000000000",
            "receiptTrie" : "0x56e81f171bcc55a6ff8345e692c0f86e5b48e01b996cadc001622fb5e363b421",
            "stateRoot" : "0xdbc6ae9218631af51abf428b88d44c9b4b97c81d3fea9d88203cd307f05cce58",
            "timestamp" : "0x03b6",
            "transactionsTrie" : "0x56e81f171bcc55a6ff8345e692c0f86e5b48e01b996cadc001622fb5e363b421",
            "uncleHash" : "0x1dcc4de8dec75d7aab85b567b6ccd41ad312451b948a7413f0a142fd40d49347"
        },
        "genesisRLP" : "0xf901faf901f5a00000000000000000000000000000000000000000000000000000000000000000a01dcc4de8dec75d7aab85b567b6ccd41ad312451b948a7413f0a142fd40d49347942adc25665018aa1fe0e6bc666dac8fc2697ff9baa0dbc6ae9218631af51abf428b88d44c9b4b97c81d3fea9d88203cd307f05cce58a056e81f171bcc55a6ff8345e692c0f86e5b48e01b996cadc001622fb5e363b421a056e81f171bcc55a6ff8345e692c0f86e5b48e01b996cadc001622fb5e363b421b9010000000000000000000000000000000000000000000000000000000000000000000000000000000000000000000000000000000000000000000000000000000000000000000000000000000000000000000000000000000000000000000000000000000000000000000000000000000000000000000000000000000000000000000000000000000000000000000000000000000000000000000000000000000000000000000000000000000000000000000000000000000000000000000000000000000000000000000000000000000000000000000000000000000000000000000000000000000000000000000000000000000000000000000000000000000000830200008083989680808203b642a056e81f171bcc55a6ff8345e692c0f86e5b48e01b996cadc001622fb5e363b421880102030405060708c0c0",
        "lastblockhash" : "0xd29b64769b2beec9b484b3f008076760d34b5fe20a216dbaaf6226d7840a9ca9",
        "network" : "Frontier",
        "postState" : {
            "0x1000000000000000000000000000000000000000" : {
                "balance" : "0x00",
                "code" : "",
                "nonce" : "0x00",
                "storage" : {
                }
            },
            "0x2adc25665018aa1fe0e6bc666dac8fc2697ff9ba" : {
                "balance" : "0x4563918244f51170",
                "code" : "",
                "nonce" : "0x00",
                "storage" : {
                }
            },
            "0xa94f5374fce5edbc8e2a8697c15331677e6ebf0b" : {
                "balance" : "0xe8d4a3fe90",
                "code" : "",
                "nonce" : "0x01",
                "storage" : {
                }
            },
            "0xb94f5374fce5edbc8e2a8697c15331677e6ebf0b" : {
                "balance" : "0x00",
                "code" : "0x6000600060006000600073c94f5374fce5edbc8e2a8697c15331677e6ebf0b617530f16000556001600255",
                "nonce" : "0x00",
                "storage" : {
                }
            },
            "0xc94f5374fce5edbc8e2a8697c15331677e6ebf0b" : {
                "balance" : "0x00",
                "code" : "0x60006000600060006000731000000000000000000000000000000000000000617530f1600155",
                "nonce" : "0x00",
                "storage" : {
                }
            }
        },
        "pre" : {
            "0x1000000000000000000000000000000000000000" : {
                "balance" : "0x00",
                "code" : "",
                "nonce" : "0x00",
                "storage" : {
                }
            },
            "0xa94f5374fce5edbc8e2a8697c15331677e6ebf0b" : {
                "balance" : "0xe8d4a51000",
                "code" : "",
                "nonce" : "0x00",
                "storage" : {
                }
            },
            "0xb94f5374fce5edbc8e2a8697c15331677e6ebf0b" : {
                "balance" : "0x00",
                "code" : "0x6000600060006000600073c94f5374fce5edbc8e2a8697c15331677e6ebf0b617530f16000556001600255",
                "nonce" : "0x00",
                "storage" : {
                }
            },
            "0xc94f5374fce5edbc8e2a8697c15331677e6ebf0b" : {
                "balance" : "0x00",
                "code" : "0x60006000600060006000731000000000000000000000000000000000000000617530f1600155",
                "nonce" : "0x00",
                "storage" : {
                }
            }
        }
    },
    "TouchToEmptyAccountRevert_d0g0v0_Homestead" : {
        "_info" : {
            "comment" : "",
            "filledwith" : "cpp-1.3.0+commit.6e0ce939.Linux.g++",
            "lllcversion" : "Version: 0.4.18-develop.2017.9.25+commit.a72237f2.Linux.g++",
            "source" : "src/BlockchainTestsFiller/GeneralStateTests/stRevertTest/TouchToEmptyAccountRevert_d0g0v0Filler.json",
            "sourceHash" : "8aab0c9375729bacc69c0a06bb58b242bb9364150f4b9893a09cca216b7aae4b"
        },
        "blocks" : [
            {
                "blockHeader" : {
                    "bloom" : "0x00000000000000000000000000000000000000000000000000000000000000000000000000000000000000000000000000000000000000000000000000000000000000000000000000000000000000000000000000000000000000000000000000000000000000000000000000000000000000000000000000000000000000000000000000000000000000000000000000000000000000000000000000000000000000000000000000000000000000000000000000000000000000000000000000000000000000000000000000000000000000000000000000000000000000000000000000000000000000000000000000000000000000000000000000000000",
                    "coinbase" : "0x2adc25665018aa1fe0e6bc666dac8fc2697ff9ba",
                    "difficulty" : "0x020000",
                    "extraData" : "",
                    "gasLimit" : "0x989680",
                    "gasUsed" : "0x011170",
                    "hash" : "0x6c3941c6f9a14844f44c5e25fdeeeef415d4fac1c998df2ef248215677b9c1b0",
                    "mixHash" : "0x36ba8e49525f67e3f8cd4826456b920dfc24df4ba4eada312623d534e787024f",
                    "nonce" : "0x9f1020c1ba2cf396",
                    "number" : "0x01",
                    "parentHash" : "0x315de2669b104120b392b9509423fdf81d5c015d4cfe702926064bb1c0092416",
                    "receiptTrie" : "0x3f8578a5df8bb8949052794afae34c2f203261cf9d8d66831c8bf1375454f56a",
                    "stateRoot" : "0xf84fb9fd05a6169e6e31f15f527fce50b1b92cb905d38b614cf99afa1c1df23b",
                    "timestamp" : "0x03e8",
                    "transactionsTrie" : "0xd807f8bb79d14c4fec93e6f45c181ea9926a3a7dacc86b275b394b36b841f867",
                    "uncleHash" : "0x1dcc4de8dec75d7aab85b567b6ccd41ad312451b948a7413f0a142fd40d49347"
                },
                "rlp" : "0xf90260f901f8a0315de2669b104120b392b9509423fdf81d5c015d4cfe702926064bb1c0092416a01dcc4de8dec75d7aab85b567b6ccd41ad312451b948a7413f0a142fd40d49347942adc25665018aa1fe0e6bc666dac8fc2697ff9baa0f84fb9fd05a6169e6e31f15f527fce50b1b92cb905d38b614cf99afa1c1df23ba0d807f8bb79d14c4fec93e6f45c181ea9926a3a7dacc86b275b394b36b841f867a03f8578a5df8bb8949052794afae34c2f203261cf9d8d66831c8bf1375454f56ab9010000000000000000000000000000000000000000000000000000000000000000000000000000000000000000000000000000000000000000000000000000000000000000000000000000000000000000000000000000000000000000000000000000000000000000000000000000000000000000000000000000000000000000000000000000000000000000000000000000000000000000000000000000000000000000000000000000000000000000000000000000000000000000000000000000000000000000000000000000000000000000000000000000000000000000000000000000000000000000000000000000000000000000000000000000000000830200000183989680830111708203e880a036ba8e49525f67e3f8cd4826456b920dfc24df4ba4eada312623d534e787024f889f1020c1ba2cf396f862f86080018301117094b94f5374fce5edbc8e2a8697c15331677e6ebf0b80801ba02263a45338e3fd8975ecb00bb2be4f23ab279a8c7565d97c2b33420b3003d97ea059d5152e2d60f87cbb7a9d8c790730849553b2181514a6cd58564a29aeefad0ec0",
                "transactions" : [
                    {
                        "data" : "",
                        "gasLimit" : "0x011170",
                        "gasPrice" : "0x01",
                        "nonce" : "0x00",
                        "r" : "0x2263a45338e3fd8975ecb00bb2be4f23ab279a8c7565d97c2b33420b3003d97e",
                        "s" : "0x59d5152e2d60f87cbb7a9d8c790730849553b2181514a6cd58564a29aeefad0e",
                        "to" : "0xb94f5374fce5edbc8e2a8697c15331677e6ebf0b",
                        "v" : "0x1b",
                        "value" : "0x00"
                    }
                ],
                "uncleHeaders" : [
                ]
            }
        ],
        "genesisBlockHeader" : {
            "bloom" : "0x00000000000000000000000000000000000000000000000000000000000000000000000000000000000000000000000000000000000000000000000000000000000000000000000000000000000000000000000000000000000000000000000000000000000000000000000000000000000000000000000000000000000000000000000000000000000000000000000000000000000000000000000000000000000000000000000000000000000000000000000000000000000000000000000000000000000000000000000000000000000000000000000000000000000000000000000000000000000000000000000000000000000000000000000000000000",
            "coinbase" : "0x2adc25665018aa1fe0e6bc666dac8fc2697ff9ba",
            "difficulty" : "0x020000",
            "extraData" : "0x42",
            "gasLimit" : "0x989680",
            "gasUsed" : "0x00",
            "hash" : "0x315de2669b104120b392b9509423fdf81d5c015d4cfe702926064bb1c0092416",
            "mixHash" : "0x56e81f171bcc55a6ff8345e692c0f86e5b48e01b996cadc001622fb5e363b421",
            "nonce" : "0x0102030405060708",
            "number" : "0x00",
            "parentHash" : "0x0000000000000000000000000000000000000000000000000000000000000000",
            "receiptTrie" : "0x56e81f171bcc55a6ff8345e692c0f86e5b48e01b996cadc001622fb5e363b421",
            "stateRoot" : "0xdbc6ae9218631af51abf428b88d44c9b4b97c81d3fea9d88203cd307f05cce58",
            "timestamp" : "0x03b6",
            "transactionsTrie" : "0x56e81f171bcc55a6ff8345e692c0f86e5b48e01b996cadc001622fb5e363b421",
            "uncleHash" : "0x1dcc4de8dec75d7aab85b567b6ccd41ad312451b948a7413f0a142fd40d49347"
        },
        "genesisRLP" : "0xf901faf901f5a00000000000000000000000000000000000000000000000000000000000000000a01dcc4de8dec75d7aab85b567b6ccd41ad312451b948a7413f0a142fd40d49347942adc25665018aa1fe0e6bc666dac8fc2697ff9baa0dbc6ae9218631af51abf428b88d44c9b4b97c81d3fea9d88203cd307f05cce58a056e81f171bcc55a6ff8345e692c0f86e5b48e01b996cadc001622fb5e363b421a056e81f171bcc55a6ff8345e692c0f86e5b48e01b996cadc001622fb5e363b421b9010000000000000000000000000000000000000000000000000000000000000000000000000000000000000000000000000000000000000000000000000000000000000000000000000000000000000000000000000000000000000000000000000000000000000000000000000000000000000000000000000000000000000000000000000000000000000000000000000000000000000000000000000000000000000000000000000000000000000000000000000000000000000000000000000000000000000000000000000000000000000000000000000000000000000000000000000000000000000000000000000000000000000000000000000000000000830200008083989680808203b642a056e81f171bcc55a6ff8345e692c0f86e5b48e01b996cadc001622fb5e363b421880102030405060708c0c0",
        "lastblockhash" : "0x6c3941c6f9a14844f44c5e25fdeeeef415d4fac1c998df2ef248215677b9c1b0",
        "network" : "Homestead",
        "postState" : {
            "0x1000000000000000000000000000000000000000" : {
                "balance" : "0x00",
                "code" : "",
                "nonce" : "0x00",
                "storage" : {
                }
            },
            "0x2adc25665018aa1fe0e6bc666dac8fc2697ff9ba" : {
                "balance" : "0x4563918244f51170",
                "code" : "",
                "nonce" : "0x00",
                "storage" : {
                }
            },
            "0xa94f5374fce5edbc8e2a8697c15331677e6ebf0b" : {
                "balance" : "0xe8d4a3fe90",
                "code" : "",
                "nonce" : "0x01",
                "storage" : {
                }
            },
            "0xb94f5374fce5edbc8e2a8697c15331677e6ebf0b" : {
                "balance" : "0x00",
                "code" : "0x6000600060006000600073c94f5374fce5edbc8e2a8697c15331677e6ebf0b617530f16000556001600255",
                "nonce" : "0x00",
                "storage" : {
                }
            },
            "0xc94f5374fce5edbc8e2a8697c15331677e6ebf0b" : {
                "balance" : "0x00",
                "code" : "0x60006000600060006000731000000000000000000000000000000000000000617530f1600155",
                "nonce" : "0x00",
                "storage" : {
                }
            }
        },
        "pre" : {
            "0x1000000000000000000000000000000000000000" : {
                "balance" : "0x00",
                "code" : "",
                "nonce" : "0x00",
                "storage" : {
                }
            },
            "0xa94f5374fce5edbc8e2a8697c15331677e6ebf0b" : {
                "balance" : "0xe8d4a51000",
                "code" : "",
                "nonce" : "0x00",
                "storage" : {
                }
            },
            "0xb94f5374fce5edbc8e2a8697c15331677e6ebf0b" : {
                "balance" : "0x00",
                "code" : "0x6000600060006000600073c94f5374fce5edbc8e2a8697c15331677e6ebf0b617530f16000556001600255",
                "nonce" : "0x00",
                "storage" : {
                }
            },
            "0xc94f5374fce5edbc8e2a8697c15331677e6ebf0b" : {
                "balance" : "0x00",
                "code" : "0x60006000600060006000731000000000000000000000000000000000000000617530f1600155",
                "nonce" : "0x00",
                "storage" : {
                }
            }
        }
    }
}