{
    "CALL_ZeroVCallSuicide_d0g0v0_Byzantium" : {
        "_info" : {
            "comment" : "",
            "filledwith" : "cpp-1.3.0+commit.6e0ce939.Linux.g++",
            "lllcversion" : "Version: 0.4.18-develop.2017.9.25+commit.a72237f2.Linux.g++",
            "source" : "src/BlockchainTestsFiller/GeneralStateTests/stEIP158Specific/CALL_ZeroVCallSuicide_d0g0v0Filler.json",
            "sourceHash" : "6df92377682f3a0c2d39fb39d6af6e4ea9b196728bf5b20b5086d6f5a8410c27"
        },
        "blocks" : [
            {
                "blockHeader" : {
                    "bloom" : "0x00000000000000000000000000000000000000000000000000000000000000000000000000000000000000000000000000000000000000000000000000000000000000000000000000000000000000000000000000000000000000000000000000000000000000000000000000000000000000000000000000000000000000000000000000000000000000000000000000000000000000000000000000000000000000000000000000000000000000000000000000000000000000000000000000000000000000000000000000000000000000000000000000000000000000000000000000000000000000000000000000000000000000000000000000000000",
                    "coinbase" : "0x2adc25665018aa1fe0e6bc666dac8fc2697ff9ba",
                    "difficulty" : "0x020000",
                    "extraData" : "",
                    "gasLimit" : "0x989680",
                    "gasUsed" : "0xa6f0",
                    "hash" : "0xe9bb7ae60ee42a32faaddbc70df85b47196e00803b1282dedd186cf5b2841ce6",
                    "mixHash" : "0xac9413961b8b4cc475279d7cb2af7d7155b78e8e74172ee33a9c59bb15df3c86",
                    "nonce" : "0x935d736451f68c39",
                    "number" : "0x01",
                    "parentHash" : "0x6f10790773563d507d707ba2eaf77246a85ab965636d02c5d7b6869c01f6c223",
                    "receiptTrie" : "0x83f881f4fedce5bee20bd337c21af308695d18b5b12d22aad2108a471425f458",
                    "stateRoot" : "0x36f8a429472e9366fe8c5d793fe0f37393e1d530f6f89bfe60383f70ced5cf8f",
                    "timestamp" : "0x03e8",
                    "transactionsTrie" : "0x59652e5662eb625efd106d67b9b25d3c12a15e69494d1d24f59d867c211f6761",
                    "uncleHash" : "0x1dcc4de8dec75d7aab85b567b6ccd41ad312451b948a7413f0a142fd40d49347"
                },
                "rlp" : "0xf9025ff901f7a06f10790773563d507d707ba2eaf77246a85ab965636d02c5d7b6869c01f6c223a01dcc4de8dec75d7aab85b567b6ccd41ad312451b948a7413f0a142fd40d49347942adc25665018aa1fe0e6bc666dac8fc2697ff9baa036f8a429472e9366fe8c5d793fe0f37393e1d530f6f89bfe60383f70ced5cf8fa059652e5662eb625efd106d67b9b25d3c12a15e69494d1d24f59d867c211f6761a083f881f4fedce5bee20bd337c21af308695d18b5b12d22aad2108a471425f458b901000000000000000000000000000000000000000000000000000000000000000000000000000000000000000000000000000000000000000000000000000000000000000000000000000000000000000000000000000000000000000000000000000000000000000000000000000000000000000000000000000000000000000000000000000000000000000000000000000000000000000000000000000000000000000000000000000000000000000000000000000000000000000000000000000000000000000000000000000000000000000000000000000000000000000000000000000000000000000000000000000000000000000000000000000000000083020000018398968082a6f08203e880a0ac9413961b8b4cc475279d7cb2af7d7155b78e8e74172ee33a9c59bb15df3c8688935d736451f68c39f862f8608001830927c094b94f5374fce5edbc8e2a8697c15331677e6ebf0b80801ba08d0699f23d032b86db35ed7bb39c2357bec870fbfbe7db30b1795d320d8965c6a002f578fd949e84f0dc1307f5dd714c9a7158b31891d43f45459edcb52e345f7cc0",
                "transactions" : [
                    {
                        "data" : "",
                        "gasLimit" : "0x0927c0",
                        "gasPrice" : "0x01",
                        "nonce" : "0x00",
                        "r" : "0x8d0699f23d032b86db35ed7bb39c2357bec870fbfbe7db30b1795d320d8965c6",
                        "s" : "0x02f578fd949e84f0dc1307f5dd714c9a7158b31891d43f45459edcb52e345f7c",
                        "to" : "0xb94f5374fce5edbc8e2a8697c15331677e6ebf0b",
                        "v" : "0x1b",
                        "value" : "0x00"
                    }
                ],
                "uncleHeaders" : [
                ]
            }
        ],
        "genesisBlockHeader" : {
            "bloom" : "0x00000000000000000000000000000000000000000000000000000000000000000000000000000000000000000000000000000000000000000000000000000000000000000000000000000000000000000000000000000000000000000000000000000000000000000000000000000000000000000000000000000000000000000000000000000000000000000000000000000000000000000000000000000000000000000000000000000000000000000000000000000000000000000000000000000000000000000000000000000000000000000000000000000000000000000000000000000000000000000000000000000000000000000000000000000000",
            "coinbase" : "0x2adc25665018aa1fe0e6bc666dac8fc2697ff9ba",
            "difficulty" : "0x020000",
            "extraData" : "0x42",
            "gasLimit" : "0x989680",
            "gasUsed" : "0x00",
            "hash" : "0x6f10790773563d507d707ba2eaf77246a85ab965636d02c5d7b6869c01f6c223",
            "mixHash" : "0x56e81f171bcc55a6ff8345e692c0f86e5b48e01b996cadc001622fb5e363b421",
            "nonce" : "0x0102030405060708",
            "number" : "0x00",
            "parentHash" : "0x0000000000000000000000000000000000000000000000000000000000000000",
            "receiptTrie" : "0x56e81f171bcc55a6ff8345e692c0f86e5b48e01b996cadc001622fb5e363b421",
            "stateRoot" : "0x3fbe88d50d6389d79f198113abd0da882b644ecd2bbecb9f8a59b3c16c03fb45",
            "timestamp" : "0x03b6",
            "transactionsTrie" : "0x56e81f171bcc55a6ff8345e692c0f86e5b48e01b996cadc001622fb5e363b421",
            "uncleHash" : "0x1dcc4de8dec75d7aab85b567b6ccd41ad312451b948a7413f0a142fd40d49347"
        },
        "genesisRLP" : "0xf901faf901f5a00000000000000000000000000000000000000000000000000000000000000000a01dcc4de8dec75d7aab85b567b6ccd41ad312451b948a7413f0a142fd40d49347942adc25665018aa1fe0e6bc666dac8fc2697ff9baa03fbe88d50d6389d79f198113abd0da882b644ecd2bbecb9f8a59b3c16c03fb45a056e81f171bcc55a6ff8345e692c0f86e5b48e01b996cadc001622fb5e363b421a056e81f171bcc55a6ff8345e692c0f86e5b48e01b996cadc001622fb5e363b421b9010000000000000000000000000000000000000000000000000000000000000000000000000000000000000000000000000000000000000000000000000000000000000000000000000000000000000000000000000000000000000000000000000000000000000000000000000000000000000000000000000000000000000000000000000000000000000000000000000000000000000000000000000000000000000000000000000000000000000000000000000000000000000000000000000000000000000000000000000000000000000000000000000000000000000000000000000000000000000000000000000000000000000000000000000000000000830200008083989680808203b642a056e81f171bcc55a6ff8345e692c0f86e5b48e01b996cadc001622fb5e363b421880102030405060708c0c0",
        "lastblockhash" : "0xe9bb7ae60ee42a32faaddbc70df85b47196e00803b1282dedd186cf5b2841ce6",
        "network" : "Byzantium",
        "postState" : {
            "0x2adc25665018aa1fe0e6bc666dac8fc2697ff9ba" : {
                "balance" : "0x29a2241af62ca6f0",
                "code" : "",
                "nonce" : "0x00",
                "storage" : {
                }
            },
            "0xa94f5374fce5edbc8e2a8697c15331677e6ebf0b" : {
                "balance" : "0xe8d4a46910",
                "code" : "",
                "nonce" : "0x01",
                "storage" : {
                }
            },
            "0xb94f5374fce5edbc8e2a8697c15331677e6ebf0b" : {
                "balance" : "0x00",
                "code" : "0x5a6000556000600060006000600073c94f5374fce5edbc8e2a8697c15331677e6ebf0b61ea60f1505a606455",
                "nonce" : "0x00",
                "storage" : {
                    "0x00" : "0x08d5b6",
                    "0x64" : "0x087133"
                }
            }
        },
        "pre" : {
            "0xa94f5374fce5edbc8e2a8697c15331677e6ebf0b" : {
                "balance" : "0xe8d4a51000",
                "code" : "",
                "nonce" : "0x00",
                "storage" : {
                }
            },
            "0xb94f5374fce5edbc8e2a8697c15331677e6ebf0b" : {
                "balance" : "0x00",
                "code" : "0x5a6000556000600060006000600073c94f5374fce5edbc8e2a8697c15331677e6ebf0b61ea60f1505a606455",
                "nonce" : "0x00",
                "storage" : {
                }
            },
            "0xc94f5374fce5edbc8e2a8697c15331677e6ebf0b" : {
                "balance" : "0x00",
                "code" : "0x73b94f5374fce5edbc8e2a8697c15331677e6ebf0bff",
                "nonce" : "0x00",
                "storage" : {
                }
            }
        }
    },
    "CALL_ZeroVCallSuicide_d0g0v0_EIP150" : {
        "_info" : {
            "comment" : "",
            "filledwith" : "cpp-1.3.0+commit.6e0ce939.Linux.g++",
            "lllcversion" : "Version: 0.4.18-develop.2017.9.25+commit.a72237f2.Linux.g++",
            "source" : "src/BlockchainTestsFiller/GeneralStateTests/stEIP158Specific/CALL_ZeroVCallSuicide_d0g0v0Filler.json",
            "sourceHash" : "6df92377682f3a0c2d39fb39d6af6e4ea9b196728bf5b20b5086d6f5a8410c27"
        },
        "blocks" : [
            {
                "blockHeader" : {
                    "bloom" : "0x00000000000000000000000000000000000000000000000000000000000000000000000000000000000000000000000000000000000000000000000000000000000000000000000000000000000000000000000000000000000000000000000000000000000000000000000000000000000000000000000000000000000000000000000000000000000000000000000000000000000000000000000000000000000000000000000000000000000000000000000000000000000000000000000000000000000000000000000000000000000000000000000000000000000000000000000000000000000000000000000000000000000000000000000000000000",
                    "coinbase" : "0x2adc25665018aa1fe0e6bc666dac8fc2697ff9ba",
                    "difficulty" : "0x020000",
                    "extraData" : "",
                    "gasLimit" : "0x989680",
                    "gasUsed" : "0xa6f0",
                    "hash" : "0xd4bc893a48a2191a0d2371e52fdc83dc3b42921f3f66d104462602148eaf73cd",
                    "mixHash" : "0x47ccf574932091fb79f8f480aa343f5edf9862cc159bf8d08c20294d89f4b19c",
                    "nonce" : "0x442e6c7c5baf9399",
                    "number" : "0x01",
                    "parentHash" : "0x6f10790773563d507d707ba2eaf77246a85ab965636d02c5d7b6869c01f6c223",
                    "receiptTrie" : "0xe9d70aa96a5475ec4d2df6797593839fa3d745755ca386cf740760ed3fe03db7",
                    "stateRoot" : "0x2b5aea78f0ec6dc373a814b81acc10d0728e9eb7f2da7cc197aeee294b41d9e3",
                    "timestamp" : "0x03e8",
                    "transactionsTrie" : "0x59652e5662eb625efd106d67b9b25d3c12a15e69494d1d24f59d867c211f6761",
                    "uncleHash" : "0x1dcc4de8dec75d7aab85b567b6ccd41ad312451b948a7413f0a142fd40d49347"
                },
                "rlp" : "0xf9025ff901f7a06f10790773563d507d707ba2eaf77246a85ab965636d02c5d7b6869c01f6c223a01dcc4de8dec75d7aab85b567b6ccd41ad312451b948a7413f0a142fd40d49347942adc25665018aa1fe0e6bc666dac8fc2697ff9baa02b5aea78f0ec6dc373a814b81acc10d0728e9eb7f2da7cc197aeee294b41d9e3a059652e5662eb625efd106d67b9b25d3c12a15e69494d1d24f59d867c211f6761a0e9d70aa96a5475ec4d2df6797593839fa3d745755ca386cf740760ed3fe03db7b901000000000000000000000000000000000000000000000000000000000000000000000000000000000000000000000000000000000000000000000000000000000000000000000000000000000000000000000000000000000000000000000000000000000000000000000000000000000000000000000000000000000000000000000000000000000000000000000000000000000000000000000000000000000000000000000000000000000000000000000000000000000000000000000000000000000000000000000000000000000000000000000000000000000000000000000000000000000000000000000000000000000000000000000000000000000083020000018398968082a6f08203e880a047ccf574932091fb79f8f480aa343f5edf9862cc159bf8d08c20294d89f4b19c88442e6c7c5baf9399f862f8608001830927c094b94f5374fce5edbc8e2a8697c15331677e6ebf0b80801ba08d0699f23d032b86db35ed7bb39c2357bec870fbfbe7db30b1795d320d8965c6a002f578fd949e84f0dc1307f5dd714c9a7158b31891d43f45459edcb52e345f7cc0",
                "transactions" : [
                    {
                        "data" : "",
                        "gasLimit" : "0x0927c0",
                        "gasPrice" : "0x01",
                        "nonce" : "0x00",
                        "r" : "0x8d0699f23d032b86db35ed7bb39c2357bec870fbfbe7db30b1795d320d8965c6",
                        "s" : "0x02f578fd949e84f0dc1307f5dd714c9a7158b31891d43f45459edcb52e345f7c",
                        "to" : "0xb94f5374fce5edbc8e2a8697c15331677e6ebf0b",
                        "v" : "0x1b",
                        "value" : "0x00"
                    }
                ],
                "uncleHeaders" : [
                ]
            }
        ],
        "genesisBlockHeader" : {
            "bloom" : "0x00000000000000000000000000000000000000000000000000000000000000000000000000000000000000000000000000000000000000000000000000000000000000000000000000000000000000000000000000000000000000000000000000000000000000000000000000000000000000000000000000000000000000000000000000000000000000000000000000000000000000000000000000000000000000000000000000000000000000000000000000000000000000000000000000000000000000000000000000000000000000000000000000000000000000000000000000000000000000000000000000000000000000000000000000000000",
            "coinbase" : "0x2adc25665018aa1fe0e6bc666dac8fc2697ff9ba",
            "difficulty" : "0x020000",
            "extraData" : "0x42",
            "gasLimit" : "0x989680",
            "gasUsed" : "0x00",
            "hash" : "0x6f10790773563d507d707ba2eaf77246a85ab965636d02c5d7b6869c01f6c223",
            "mixHash" : "0x56e81f171bcc55a6ff8345e692c0f86e5b48e01b996cadc001622fb5e363b421",
            "nonce" : "0x0102030405060708",
            "number" : "0x00",
            "parentHash" : "0x0000000000000000000000000000000000000000000000000000000000000000",
            "receiptTrie" : "0x56e81f171bcc55a6ff8345e692c0f86e5b48e01b996cadc001622fb5e363b421",
            "stateRoot" : "0x3fbe88d50d6389d79f198113abd0da882b644ecd2bbecb9f8a59b3c16c03fb45",
            "timestamp" : "0x03b6",
            "transactionsTrie" : "0x56e81f171bcc55a6ff8345e692c0f86e5b48e01b996cadc001622fb5e363b421",
            "uncleHash" : "0x1dcc4de8dec75d7aab85b567b6ccd41ad312451b948a7413f0a142fd40d49347"
        },
        "genesisRLP" : "0xf901faf901f5a00000000000000000000000000000000000000000000000000000000000000000a01dcc4de8dec75d7aab85b567b6ccd41ad312451b948a7413f0a142fd40d49347942adc25665018aa1fe0e6bc666dac8fc2697ff9baa03fbe88d50d6389d79f198113abd0da882b644ecd2bbecb9f8a59b3c16c03fb45a056e81f171bcc55a6ff8345e692c0f86e5b48e01b996cadc001622fb5e363b421a056e81f171bcc55a6ff8345e692c0f86e5b48e01b996cadc001622fb5e363b421b9010000000000000000000000000000000000000000000000000000000000000000000000000000000000000000000000000000000000000000000000000000000000000000000000000000000000000000000000000000000000000000000000000000000000000000000000000000000000000000000000000000000000000000000000000000000000000000000000000000000000000000000000000000000000000000000000000000000000000000000000000000000000000000000000000000000000000000000000000000000000000000000000000000000000000000000000000000000000000000000000000000000000000000000000000000000000830200008083989680808203b642a056e81f171bcc55a6ff8345e692c0f86e5b48e01b996cadc001622fb5e363b421880102030405060708c0c0",
        "lastblockhash" : "0xd4bc893a48a2191a0d2371e52fdc83dc3b42921f3f66d104462602148eaf73cd",
        "network" : "EIP150",
        "postState" : {
            "0x2adc25665018aa1fe0e6bc666dac8fc2697ff9ba" : {
                "balance" : "0x4563918244f4a6f0",
                "code" : "",
                "nonce" : "0x00",
                "storage" : {
                }
            },
            "0xa94f5374fce5edbc8e2a8697c15331677e6ebf0b" : {
                "balance" : "0xe8d4a46910",
                "code" : "",
                "nonce" : "0x01",
                "storage" : {
                }
            },
            "0xb94f5374fce5edbc8e2a8697c15331677e6ebf0b" : {
                "balance" : "0x00",
                "code" : "0x5a6000556000600060006000600073c94f5374fce5edbc8e2a8697c15331677e6ebf0b61ea60f1505a606455",
                "nonce" : "0x00",
                "storage" : {
                    "0x00" : "0x08d5b6",
                    "0x64" : "0x087133"
                }
            }
        },
        "pre" : {
            "0xa94f5374fce5edbc8e2a8697c15331677e6ebf0b" : {
                "balance" : "0xe8d4a51000",
                "code" : "",
                "nonce" : "0x00",
                "storage" : {
                }
            },
            "0xb94f5374fce5edbc8e2a8697c15331677e6ebf0b" : {
                "balance" : "0x00",
                "code" : "0x5a6000556000600060006000600073c94f5374fce5edbc8e2a8697c15331677e6ebf0b61ea60f1505a606455",
                "nonce" : "0x00",
                "storage" : {
                }
            },
            "0xc94f5374fce5edbc8e2a8697c15331677e6ebf0b" : {
                "balance" : "0x00",
                "code" : "0x73b94f5374fce5edbc8e2a8697c15331677e6ebf0bff",
                "nonce" : "0x00",
                "storage" : {
                }
            }
        }
    },
    "CALL_ZeroVCallSuicide_d0g0v0_EIP158" : {
        "_info" : {
            "comment" : "",
            "filledwith" : "cpp-1.3.0+commit.6e0ce939.Linux.g++",
            "lllcversion" : "Version: 0.4.18-develop.2017.9.25+commit.a72237f2.Linux.g++",
            "source" : "src/BlockchainTestsFiller/GeneralStateTests/stEIP158Specific/CALL_ZeroVCallSuicide_d0g0v0Filler.json",
            "sourceHash" : "6df92377682f3a0c2d39fb39d6af6e4ea9b196728bf5b20b5086d6f5a8410c27"
        },
        "blocks" : [
            {
                "blockHeader" : {
                    "bloom" : "0x00000000000000000000000000000000000000000000000000000000000000000000000000000000000000000000000000000000000000000000000000000000000000000000000000000000000000000000000000000000000000000000000000000000000000000000000000000000000000000000000000000000000000000000000000000000000000000000000000000000000000000000000000000000000000000000000000000000000000000000000000000000000000000000000000000000000000000000000000000000000000000000000000000000000000000000000000000000000000000000000000000000000000000000000000000000",
                    "coinbase" : "0x2adc25665018aa1fe0e6bc666dac8fc2697ff9ba",
                    "difficulty" : "0x020000",
                    "extraData" : "",
                    "gasLimit" : "0x989680",
                    "gasUsed" : "0xa6f0",
                    "hash" : "0x68245cc53d598b71c8cd7e716cb342abe5e97f3fc59b63963e56d1c4394a1e23",
                    "mixHash" : "0x68d09e42c0eba7939205d3853bb4892577a42bafa77c363a13cb9a1a2e49f3c0",
                    "nonce" : "0x02d1869af3b23158",
                    "number" : "0x01",
                    "parentHash" : "0x6f10790773563d507d707ba2eaf77246a85ab965636d02c5d7b6869c01f6c223",
                    "receiptTrie" : "0xe9d70aa96a5475ec4d2df6797593839fa3d745755ca386cf740760ed3fe03db7",
                    "stateRoot" : "0x2b5aea78f0ec6dc373a814b81acc10d0728e9eb7f2da7cc197aeee294b41d9e3",
                    "timestamp" : "0x03e8",
                    "transactionsTrie" : "0x59652e5662eb625efd106d67b9b25d3c12a15e69494d1d24f59d867c211f6761",
                    "uncleHash" : "0x1dcc4de8dec75d7aab85b567b6ccd41ad312451b948a7413f0a142fd40d49347"
                },
                "rlp" : "0xf9025ff901f7a06f10790773563d507d707ba2eaf77246a85ab965636d02c5d7b6869c01f6c223a01dcc4de8dec75d7aab85b567b6ccd41ad312451b948a7413f0a142fd40d49347942adc25665018aa1fe0e6bc666dac8fc2697ff9baa02b5aea78f0ec6dc373a814b81acc10d0728e9eb7f2da7cc197aeee294b41d9e3a059652e5662eb625efd106d67b9b25d3c12a15e69494d1d24f59d867c211f6761a0e9d70aa96a5475ec4d2df6797593839fa3d745755ca386cf740760ed3fe03db7b901000000000000000000000000000000000000000000000000000000000000000000000000000000000000000000000000000000000000000000000000000000000000000000000000000000000000000000000000000000000000000000000000000000000000000000000000000000000000000000000000000000000000000000000000000000000000000000000000000000000000000000000000000000000000000000000000000000000000000000000000000000000000000000000000000000000000000000000000000000000000000000000000000000000000000000000000000000000000000000000000000000000000000000000000000000000083020000018398968082a6f08203e880a068d09e42c0eba7939205d3853bb4892577a42bafa77c363a13cb9a1a2e49f3c08802d1869af3b23158f862f8608001830927c094b94f5374fce5edbc8e2a8697c15331677e6ebf0b80801ba08d0699f23d032b86db35ed7bb39c2357bec870fbfbe7db30b1795d320d8965c6a002f578fd949e84f0dc1307f5dd714c9a7158b31891d43f45459edcb52e345f7cc0",
                "transactions" : [
                    {
                        "data" : "",
                        "gasLimit" : "0x0927c0",
                        "gasPrice" : "0x01",
                        "nonce" : "0x00",
                        "r" : "0x8d0699f23d032b86db35ed7bb39c2357bec870fbfbe7db30b1795d320d8965c6",
                        "s" : "0x02f578fd949e84f0dc1307f5dd714c9a7158b31891d43f45459edcb52e345f7c",
                        "to" : "0xb94f5374fce5edbc8e2a8697c15331677e6ebf0b",
                        "v" : "0x1b",
                        "value" : "0x00"
                    }
                ],
                "uncleHeaders" : [
                ]
            }
        ],
        "genesisBlockHeader" : {
            "bloom" : "0x00000000000000000000000000000000000000000000000000000000000000000000000000000000000000000000000000000000000000000000000000000000000000000000000000000000000000000000000000000000000000000000000000000000000000000000000000000000000000000000000000000000000000000000000000000000000000000000000000000000000000000000000000000000000000000000000000000000000000000000000000000000000000000000000000000000000000000000000000000000000000000000000000000000000000000000000000000000000000000000000000000000000000000000000000000000",
            "coinbase" : "0x2adc25665018aa1fe0e6bc666dac8fc2697ff9ba",
            "difficulty" : "0x020000",
            "extraData" : "0x42",
            "gasLimit" : "0x989680",
            "gasUsed" : "0x00",
            "hash" : "0x6f10790773563d507d707ba2eaf77246a85ab965636d02c5d7b6869c01f6c223",
            "mixHash" : "0x56e81f171bcc55a6ff8345e692c0f86e5b48e01b996cadc001622fb5e363b421",
            "nonce" : "0x0102030405060708",
            "number" : "0x00",
            "parentHash" : "0x0000000000000000000000000000000000000000000000000000000000000000",
            "receiptTrie" : "0x56e81f171bcc55a6ff8345e692c0f86e5b48e01b996cadc001622fb5e363b421",
            "stateRoot" : "0x3fbe88d50d6389d79f198113abd0da882b644ecd2bbecb9f8a59b3c16c03fb45",
            "timestamp" : "0x03b6",
            "transactionsTrie" : "0x56e81f171bcc55a6ff8345e692c0f86e5b48e01b996cadc001622fb5e363b421",
            "uncleHash" : "0x1dcc4de8dec75d7aab85b567b6ccd41ad312451b948a7413f0a142fd40d49347"
        },
        "genesisRLP" : "0xf901faf901f5a00000000000000000000000000000000000000000000000000000000000000000a01dcc4de8dec75d7aab85b567b6ccd41ad312451b948a7413f0a142fd40d49347942adc25665018aa1fe0e6bc666dac8fc2697ff9baa03fbe88d50d6389d79f198113abd0da882b644ecd2bbecb9f8a59b3c16c03fb45a056e81f171bcc55a6ff8345e692c0f86e5b48e01b996cadc001622fb5e363b421a056e81f171bcc55a6ff8345e692c0f86e5b48e01b996cadc001622fb5e363b421b9010000000000000000000000000000000000000000000000000000000000000000000000000000000000000000000000000000000000000000000000000000000000000000000000000000000000000000000000000000000000000000000000000000000000000000000000000000000000000000000000000000000000000000000000000000000000000000000000000000000000000000000000000000000000000000000000000000000000000000000000000000000000000000000000000000000000000000000000000000000000000000000000000000000000000000000000000000000000000000000000000000000000000000000000000000000000830200008083989680808203b642a056e81f171bcc55a6ff8345e692c0f86e5b48e01b996cadc001622fb5e363b421880102030405060708c0c0",
        "lastblockhash" : "0x68245cc53d598b71c8cd7e716cb342abe5e97f3fc59b63963e56d1c4394a1e23",
        "network" : "EIP158",
        "postState" : {
            "0x2adc25665018aa1fe0e6bc666dac8fc2697ff9ba" : {
                "balance" : "0x4563918244f4a6f0",
                "code" : "",
                "nonce" : "0x00",
                "storage" : {
                }
            },
            "0xa94f5374fce5edbc8e2a8697c15331677e6ebf0b" : {
                "balance" : "0xe8d4a46910",
                "code" : "",
                "nonce" : "0x01",
                "storage" : {
                }
            },
            "0xb94f5374fce5edbc8e2a8697c15331677e6ebf0b" : {
                "balance" : "0x00",
                "code" : "0x5a6000556000600060006000600073c94f5374fce5edbc8e2a8697c15331677e6ebf0b61ea60f1505a606455",
                "nonce" : "0x00",
                "storage" : {
                    "0x00" : "0x08d5b6",
                    "0x64" : "0x087133"
                }
            }
        },
        "pre" : {
            "0xa94f5374fce5edbc8e2a8697c15331677e6ebf0b" : {
                "balance" : "0xe8d4a51000",
                "code" : "",
                "nonce" : "0x00",
                "storage" : {
                }
            },
            "0xb94f5374fce5edbc8e2a8697c15331677e6ebf0b" : {
                "balance" : "0x00",
                "code" : "0x5a6000556000600060006000600073c94f5374fce5edbc8e2a8697c15331677e6ebf0b61ea60f1505a606455",
                "nonce" : "0x00",
                "storage" : {
                }
            },
            "0xc94f5374fce5edbc8e2a8697c15331677e6ebf0b" : {
                "balance" : "0x00",
                "code" : "0x73b94f5374fce5edbc8e2a8697c15331677e6ebf0bff",
                "nonce" : "0x00",
                "storage" : {
                }
            }
        }
    },
    "CALL_ZeroVCallSuicide_d0g0v0_Frontier" : {
        "_info" : {
            "comment" : "",
            "filledwith" : "cpp-1.3.0+commit.6e0ce939.Linux.g++",
            "lllcversion" : "Version: 0.4.18-develop.2017.9.25+commit.a72237f2.Linux.g++",
            "source" : "src/BlockchainTestsFiller/GeneralStateTests/stEIP158Specific/CALL_ZeroVCallSuicide_d0g0v0Filler.json",
            "sourceHash" : "6df92377682f3a0c2d39fb39d6af6e4ea9b196728bf5b20b5086d6f5a8410c27"
        },
        "blocks" : [
            {
                "blockHeader" : {
                    "bloom" : "0x00000000000000000000000000000000000000000000000000000000000000000000000000000000000000000000000000000000000000000000000000000000000000000000000000000000000000000000000000000000000000000000000000000000000000000000000000000000000000000000000000000000000000000000000000000000000000000000000000000000000000000000000000000000000000000000000000000000000000000000000000000000000000000000000000000000000000000000000000000000000000000000000000000000000000000000000000000000000000000000000000000000000000000000000000000000",
                    "coinbase" : "0x2adc25665018aa1fe0e6bc666dac8fc2697ff9ba",
                    "difficulty" : "0x020000",
                    "extraData" : "",
                    "gasLimit" : "0x989680",
                    "gasUsed" : "0x90d4",
                    "hash" : "0xfa61c3c2182c7e11ef94eb8dd2c3589e264002c772b6984d306f494f8cd09df1",
                    "mixHash" : "0x3189232992e751e3d31ec6b041b559da39ba5d4e304825548a0d2d776c267b4a",
                    "nonce" : "0x0056c6cf8e03e886",
                    "number" : "0x01",
                    "parentHash" : "0x6f10790773563d507d707ba2eaf77246a85ab965636d02c5d7b6869c01f6c223",
                    "receiptTrie" : "0x05f373d36b75e5f79e762de82408a8d90d436e6aa3aa678c8494f1183f4bf6ef",
                    "stateRoot" : "0xa0c7efed00f40dbe3b565b5494ca49d77cf9a2669f554962a285df72a1094a64",
                    "timestamp" : "0x03e8",
                    "transactionsTrie" : "0x59652e5662eb625efd106d67b9b25d3c12a15e69494d1d24f59d867c211f6761",
                    "uncleHash" : "0x1dcc4de8dec75d7aab85b567b6ccd41ad312451b948a7413f0a142fd40d49347"
                },
                "rlp" : "0xf9025ff901f7a06f10790773563d507d707ba2eaf77246a85ab965636d02c5d7b6869c01f6c223a01dcc4de8dec75d7aab85b567b6ccd41ad312451b948a7413f0a142fd40d49347942adc25665018aa1fe0e6bc666dac8fc2697ff9baa0a0c7efed00f40dbe3b565b5494ca49d77cf9a2669f554962a285df72a1094a64a059652e5662eb625efd106d67b9b25d3c12a15e69494d1d24f59d867c211f6761a005f373d36b75e5f79e762de82408a8d90d436e6aa3aa678c8494f1183f4bf6efb90100000000000000000000000000000000000000000000000000000000000000000000000000000000000000000000000000000000000000000000000000000000000000000000000000000000000000000000000000000000000000000000000000000000000000000000000000000000000000000000000000000000000000000000000000000000000000000000000000000000000000000000000000000000000000000000000000000000000000000000000000000000000000000000000000000000000000000000000000000000000000000000000000000000000000000000000000000000000000000000000000000000000000000000000000000000008302000001839896808290d48203e880a03189232992e751e3d31ec6b041b559da39ba5d4e304825548a0d2d776c267b4a880056c6cf8e03e886f862f8608001830927c094b94f5374fce5edbc8e2a8697c15331677e6ebf0b80801ba08d0699f23d032b86db35ed7bb39c2357bec870fbfbe7db30b1795d320d8965c6a002f578fd949e84f0dc1307f5dd714c9a7158b31891d43f45459edcb52e345f7cc0",
                "transactions" : [
                    {
                        "data" : "",
                        "gasLimit" : "0x0927c0",
                        "gasPrice" : "0x01",
                        "nonce" : "0x00",
                        "r" : "0x8d0699f23d032b86db35ed7bb39c2357bec870fbfbe7db30b1795d320d8965c6",
                        "s" : "0x02f578fd949e84f0dc1307f5dd714c9a7158b31891d43f45459edcb52e345f7c",
                        "to" : "0xb94f5374fce5edbc8e2a8697c15331677e6ebf0b",
                        "v" : "0x1b",
                        "value" : "0x00"
                    }
                ],
                "uncleHeaders" : [
                ]
            }
        ],
        "genesisBlockHeader" : {
            "bloom" : "0x00000000000000000000000000000000000000000000000000000000000000000000000000000000000000000000000000000000000000000000000000000000000000000000000000000000000000000000000000000000000000000000000000000000000000000000000000000000000000000000000000000000000000000000000000000000000000000000000000000000000000000000000000000000000000000000000000000000000000000000000000000000000000000000000000000000000000000000000000000000000000000000000000000000000000000000000000000000000000000000000000000000000000000000000000000000",
            "coinbase" : "0x2adc25665018aa1fe0e6bc666dac8fc2697ff9ba",
            "difficulty" : "0x020000",
            "extraData" : "0x42",
            "gasLimit" : "0x989680",
            "gasUsed" : "0x00",
            "hash" : "0x6f10790773563d507d707ba2eaf77246a85ab965636d02c5d7b6869c01f6c223",
            "mixHash" : "0x56e81f171bcc55a6ff8345e692c0f86e5b48e01b996cadc001622fb5e363b421",
            "nonce" : "0x0102030405060708",
            "number" : "0x00",
            "parentHash" : "0x0000000000000000000000000000000000000000000000000000000000000000",
            "receiptTrie" : "0x56e81f171bcc55a6ff8345e692c0f86e5b48e01b996cadc001622fb5e363b421",
            "stateRoot" : "0x3fbe88d50d6389d79f198113abd0da882b644ecd2bbecb9f8a59b3c16c03fb45",
            "timestamp" : "0x03b6",
            "transactionsTrie" : "0x56e81f171bcc55a6ff8345e692c0f86e5b48e01b996cadc001622fb5e363b421",
            "uncleHash" : "0x1dcc4de8dec75d7aab85b567b6ccd41ad312451b948a7413f0a142fd40d49347"
        },
        "genesisRLP" : "0xf901faf901f5a00000000000000000000000000000000000000000000000000000000000000000a01dcc4de8dec75d7aab85b567b6ccd41ad312451b948a7413f0a142fd40d49347942adc25665018aa1fe0e6bc666dac8fc2697ff9baa03fbe88d50d6389d79f198113abd0da882b644ecd2bbecb9f8a59b3c16c03fb45a056e81f171bcc55a6ff8345e692c0f86e5b48e01b996cadc001622fb5e363b421a056e81f171bcc55a6ff8345e692c0f86e5b48e01b996cadc001622fb5e363b421b9010000000000000000000000000000000000000000000000000000000000000000000000000000000000000000000000000000000000000000000000000000000000000000000000000000000000000000000000000000000000000000000000000000000000000000000000000000000000000000000000000000000000000000000000000000000000000000000000000000000000000000000000000000000000000000000000000000000000000000000000000000000000000000000000000000000000000000000000000000000000000000000000000000000000000000000000000000000000000000000000000000000000000000000000000000000000830200008083989680808203b642a056e81f171bcc55a6ff8345e692c0f86e5b48e01b996cadc001622fb5e363b421880102030405060708c0c0",
        "lastblockhash" : "0xfa61c3c2182c7e11ef94eb8dd2c3589e264002c772b6984d306f494f8cd09df1",
        "network" : "Frontier",
        "postState" : {
            "0x2adc25665018aa1fe0e6bc666dac8fc2697ff9ba" : {
                "balance" : "0x4563918244f490d4",
                "code" : "",
                "nonce" : "0x00",
                "storage" : {
                }
            },
            "0xa94f5374fce5edbc8e2a8697c15331677e6ebf0b" : {
                "balance" : "0xe8d4a47f2c",
                "code" : "",
                "nonce" : "0x01",
                "storage" : {
                }
            },
            "0xb94f5374fce5edbc8e2a8697c15331677e6ebf0b" : {
                "balance" : "0x00",
                "code" : "0x5a6000556000600060006000600073c94f5374fce5edbc8e2a8697c15331677e6ebf0b61ea60f1505a606455",
                "nonce" : "0x00",
                "storage" : {
                    "0x00" : "0x08d5b6",
                    "0x64" : "0x08874f"
                }
            }
        },
        "pre" : {
            "0xa94f5374fce5edbc8e2a8697c15331677e6ebf0b" : {
                "balance" : "0xe8d4a51000",
                "code" : "",
                "nonce" : "0x00",
                "storage" : {
                }
            },
            "0xb94f5374fce5edbc8e2a8697c15331677e6ebf0b" : {
                "balance" : "0x00",
                "code" : "0x5a6000556000600060006000600073c94f5374fce5edbc8e2a8697c15331677e6ebf0b61ea60f1505a606455",
                "nonce" : "0x00",
                "storage" : {
                }
            },
            "0xc94f5374fce5edbc8e2a8697c15331677e6ebf0b" : {
                "balance" : "0x00",
                "code" : "0x73b94f5374fce5edbc8e2a8697c15331677e6ebf0bff",
                "nonce" : "0x00",
                "storage" : {
                }
            }
        }
    },
    "CALL_ZeroVCallSuicide_d0g0v0_Homestead" : {
        "_info" : {
            "comment" : "",
            "filledwith" : "cpp-1.3.0+commit.6e0ce939.Linux.g++",
            "lllcversion" : "Version: 0.4.18-develop.2017.9.25+commit.a72237f2.Linux.g++",
            "source" : "src/BlockchainTestsFiller/GeneralStateTests/stEIP158Specific/CALL_ZeroVCallSuicide_d0g0v0Filler.json",
            "sourceHash" : "6df92377682f3a0c2d39fb39d6af6e4ea9b196728bf5b20b5086d6f5a8410c27"
        },
        "blocks" : [
            {
                "blockHeader" : {
                    "bloom" : "0x00000000000000000000000000000000000000000000000000000000000000000000000000000000000000000000000000000000000000000000000000000000000000000000000000000000000000000000000000000000000000000000000000000000000000000000000000000000000000000000000000000000000000000000000000000000000000000000000000000000000000000000000000000000000000000000000000000000000000000000000000000000000000000000000000000000000000000000000000000000000000000000000000000000000000000000000000000000000000000000000000000000000000000000000000000000",
                    "coinbase" : "0x2adc25665018aa1fe0e6bc666dac8fc2697ff9ba",
                    "difficulty" : "0x020000",
                    "extraData" : "",
                    "gasLimit" : "0x989680",
                    "gasUsed" : "0x90d4",
                    "hash" : "0xc8ad8b9935f052a5b40bb433a4ff00d07cb727c67263b35c7a7409b1faf95805",
                    "mixHash" : "0xb5707ceddac736451b7201cf94aae4047d27a7af3137178681c292596f353435",
                    "nonce" : "0x9e84ccb1caa00fbf",
                    "number" : "0x01",
                    "parentHash" : "0x6f10790773563d507d707ba2eaf77246a85ab965636d02c5d7b6869c01f6c223",
                    "receiptTrie" : "0x05f373d36b75e5f79e762de82408a8d90d436e6aa3aa678c8494f1183f4bf6ef",
                    "stateRoot" : "0xa0c7efed00f40dbe3b565b5494ca49d77cf9a2669f554962a285df72a1094a64",
                    "timestamp" : "0x03e8",
                    "transactionsTrie" : "0x59652e5662eb625efd106d67b9b25d3c12a15e69494d1d24f59d867c211f6761",
                    "uncleHash" : "0x1dcc4de8dec75d7aab85b567b6ccd41ad312451b948a7413f0a142fd40d49347"
                },
                "rlp" : "0xf9025ff901f7a06f10790773563d507d707ba2eaf77246a85ab965636d02c5d7b6869c01f6c223a01dcc4de8dec75d7aab85b567b6ccd41ad312451b948a7413f0a142fd40d49347942adc25665018aa1fe0e6bc666dac8fc2697ff9baa0a0c7efed00f40dbe3b565b5494ca49d77cf9a2669f554962a285df72a1094a64a059652e5662eb625efd106d67b9b25d3c12a15e69494d1d24f59d867c211f6761a005f373d36b75e5f79e762de82408a8d90d436e6aa3aa678c8494f1183f4bf6efb90100000000000000000000000000000000000000000000000000000000000000000000000000000000000000000000000000000000000000000000000000000000000000000000000000000000000000000000000000000000000000000000000000000000000000000000000000000000000000000000000000000000000000000000000000000000000000000000000000000000000000000000000000000000000000000000000000000000000000000000000000000000000000000000000000000000000000000000000000000000000000000000000000000000000000000000000000000000000000000000000000000000000000000000000000000000008302000001839896808290d48203e880a0b5707ceddac736451b7201cf94aae4047d27a7af3137178681c292596f353435889e84ccb1caa00fbff862f8608001830927c094b94f5374fce5edbc8e2a8697c15331677e6ebf0b80801ba08d0699f23d032b86db35ed7bb39c2357bec870fbfbe7db30b1795d320d8965c6a002f578fd949e84f0dc1307f5dd714c9a7158b31891d43f45459edcb52e345f7cc0",
                "transactions" : [
                    {
                        "data" : "",
                        "gasLimit" : "0x0927c0",
                        "gasPrice" : "0x01",
                        "nonce" : "0x00",
                        "r" : "0x8d0699f23d032b86db35ed7bb39c2357bec870fbfbe7db30b1795d320d8965c6",
                        "s" : "0x02f578fd949e84f0dc1307f5dd714c9a7158b31891d43f45459edcb52e345f7c",
                        "to" : "0xb94f5374fce5edbc8e2a8697c15331677e6ebf0b",
                        "v" : "0x1b",
                        "value" : "0x00"
                    }
                ],
                "uncleHeaders" : [
                ]
            }
        ],
        "genesisBlockHeader" : {
            "bloom" : "0x00000000000000000000000000000000000000000000000000000000000000000000000000000000000000000000000000000000000000000000000000000000000000000000000000000000000000000000000000000000000000000000000000000000000000000000000000000000000000000000000000000000000000000000000000000000000000000000000000000000000000000000000000000000000000000000000000000000000000000000000000000000000000000000000000000000000000000000000000000000000000000000000000000000000000000000000000000000000000000000000000000000000000000000000000000000",
            "coinbase" : "0x2adc25665018aa1fe0e6bc666dac8fc2697ff9ba",
            "difficulty" : "0x020000",
            "extraData" : "0x42",
            "gasLimit" : "0x989680",
            "gasUsed" : "0x00",
            "hash" : "0x6f10790773563d507d707ba2eaf77246a85ab965636d02c5d7b6869c01f6c223",
            "mixHash" : "0x56e81f171bcc55a6ff8345e692c0f86e5b48e01b996cadc001622fb5e363b421",
            "nonce" : "0x0102030405060708",
            "number" : "0x00",
            "parentHash" : "0x0000000000000000000000000000000000000000000000000000000000000000",
            "receiptTrie" : "0x56e81f171bcc55a6ff8345e692c0f86e5b48e01b996cadc001622fb5e363b421",
            "stateRoot" : "0x3fbe88d50d6389d79f198113abd0da882b644ecd2bbecb9f8a59b3c16c03fb45",
            "timestamp" : "0x03b6",
            "transactionsTrie" : "0x56e81f171bcc55a6ff8345e692c0f86e5b48e01b996cadc001622fb5e363b421",
            "uncleHash" : "0x1dcc4de8dec75d7aab85b567b6ccd41ad312451b948a7413f0a142fd40d49347"
        },
        "genesisRLP" : "0xf901faf901f5a00000000000000000000000000000000000000000000000000000000000000000a01dcc4de8dec75d7aab85b567b6ccd41ad312451b948a7413f0a142fd40d49347942adc25665018aa1fe0e6bc666dac8fc2697ff9baa03fbe88d50d6389d79f198113abd0da882b644ecd2bbecb9f8a59b3c16c03fb45a056e81f171bcc55a6ff8345e692c0f86e5b48e01b996cadc001622fb5e363b421a056e81f171bcc55a6ff8345e692c0f86e5b48e01b996cadc001622fb5e363b421b9010000000000000000000000000000000000000000000000000000000000000000000000000000000000000000000000000000000000000000000000000000000000000000000000000000000000000000000000000000000000000000000000000000000000000000000000000000000000000000000000000000000000000000000000000000000000000000000000000000000000000000000000000000000000000000000000000000000000000000000000000000000000000000000000000000000000000000000000000000000000000000000000000000000000000000000000000000000000000000000000000000000000000000000000000000000000830200008083989680808203b642a056e81f171bcc55a6ff8345e692c0f86e5b48e01b996cadc001622fb5e363b421880102030405060708c0c0",
        "lastblockhash" : "0xc8ad8b9935f052a5b40bb433a4ff00d07cb727c67263b35c7a7409b1faf95805",
        "network" : "Homestead",
        "postState" : {
            "0x2adc25665018aa1fe0e6bc666dac8fc2697ff9ba" : {
                "balance" : "0x4563918244f490d4",
                "code" : "",
                "nonce" : "0x00",
                "storage" : {
                }
            },
            "0xa94f5374fce5edbc8e2a8697c15331677e6ebf0b" : {
                "balance" : "0xe8d4a47f2c",
                "code" : "",
                "nonce" : "0x01",
                "storage" : {
                }
            },
            "0xb94f5374fce5edbc8e2a8697c15331677e6ebf0b" : {
                "balance" : "0x00",
                "code" : "0x5a6000556000600060006000600073c94f5374fce5edbc8e2a8697c15331677e6ebf0b61ea60f1505a606455",
                "nonce" : "0x00",
                "storage" : {
                    "0x00" : "0x08d5b6",
                    "0x64" : "0x08874f"
                }
            }
        },
        "pre" : {
            "0xa94f5374fce5edbc8e2a8697c15331677e6ebf0b" : {
                "balance" : "0xe8d4a51000",
                "code" : "",
                "nonce" : "0x00",
                "storage" : {
                }
            },
            "0xb94f5374fce5edbc8e2a8697c15331677e6ebf0b" : {
                "balance" : "0x00",
                "code" : "0x5a6000556000600060006000600073c94f5374fce5edbc8e2a8697c15331677e6ebf0b61ea60f1505a606455",
                "nonce" : "0x00",
                "storage" : {
                }
            },
            "0xc94f5374fce5edbc8e2a8697c15331677e6ebf0b" : {
                "balance" : "0x00",
                "code" : "0x73b94f5374fce5edbc8e2a8697c15331677e6ebf0bff",
                "nonce" : "0x00",
                "storage" : {
                }
            }
        }
    }
}