{
    "AddressLessThan20" : {
        "rlp" : "0xf85280018207d0870b9331677e6ebf0a801ca098ff921201554726367d2be8c804a7ff89ccf285ebc57dff8ae4c44b9c19ac4aa08887321be575c8095f789dd4c743dfe42c1820f9231f98a962b210e3ac2452a3"
    },
    "AddressLessThan20Prefixed0" : {
        "rlp" : "0xf85f80018207d094000000000000000000000000000b9331677e6ebf0a801ca098ff921201554726367d2be8c804a7ff89ccf285ebc57dff8ae4c44b9c19ac4aa08887321be575c8095f789dd4c743dfe42c1820f9231f98a962b210e3ac2452a3",
        "sender" : "23f0d6e160851f7b435f743d2ec368449bb06c0f",
        "transaction" : {
            "data" : "",
            "gasLimit" : "2000",
            "gasPrice" : "1",
            "nonce" : "0",
            "r" : "0x98ff921201554726367d2be8c804a7ff89ccf285ebc57dff8ae4c44b9c19ac4a",
            "s" : "0x8887321be575c8095f789dd4c743dfe42c1820f9231f98a962b210e3ac2452a3",
            "to" : "0x000000000000000000000000000b9331677e6ebf",
            "v" : "28",
            "value" : "10"
        }
    },
    "AddressMoreThan20" : {
        "rlp" : "0xf86080018207d095b94f5374fce5edbc8e2a8697c15331677e6ebf0b1c0a801ca098ff921201554726367d2be8c804a7ff89ccf285ebc57dff8ae4c44b9c19ac4aa08887321be575c8095f789dd4c743dfe42c1820f9231f98a962b210e3ac2452a3"
    },
    "AddressMoreThan20PrefixedBy0" : {
        "rlp" : "0xf867367b8203e89c0000000000000000095e7baea6a6c7c4c2dfeb977efac326af552d870b121ba048b55bfa915ac795c431978d8a6a992b628d557da5ff759b307d495a36649353a0efffd310ac743f371de3b9f7f9cb56c0b28ad43601b4ab949f53faa07bd2c804"
    },
    "DataTest" : {
        "rlp" : "0xf86d800182035294095e7baea6a6c7c4c2dfeb977efac326af552d870a8e0358ac39584bc98a7c979f984b031ba048b55bfa915ac795c431978d8a6a992b628d557da5ff759b307d495a36649353a0efffd310ac743f371de3b9f7f9cb56c0b28ad43601b4ab949f53faa07bd2c804",
        "sender" : "33f4b78a24c0b941c385dd0bb4a635b8f5dd21d8",
        "transaction" : {
            "data" : "0x0358ac39584bc98a7c979f984b03",
            "gasLimit" : "850",
            "gasPrice" : "1",
            "nonce" : "0",
            "r" : "0x48b55bfa915ac795c431978d8a6a992b628d557da5ff759b307d495a36649353",
            "s" : "0xefffd310ac743f371de3b9f7f9cb56c0b28ad43601b4ab949f53faa07bd2c804",
            "to" : "095e7baea6a6c7c4c2dfeb977efac326af552d87",
            "v" : "27",
            "value" : "10"
        }
    },
    "EmptyTransaction" : {
        "rlp" : "0xf85d80808094095e7baea6a6c7c4c2dfeb977efac326af552d8780801ba048b55bfa915ac795c431978d8a6a992b628d557da5ff759b307d495a36649353a0efffd310ac743f371de3b9f7f9cb56c0b28ad43601b4ab949f53faa07bd2c804",
        "sender" : "3e2ddf4fea89f584a735a1234cf20d8627421564",
        "transaction" : {
            "data" : "",
            "gasLimit" : "",
            "gasPrice" : "",
            "nonce" : "",
            "r" : "0x48b55bfa915ac795c431978d8a6a992b628d557da5ff759b307d495a36649353",
            "s" : "0xefffd310ac743f371de3b9f7f9cb56c0b28ad43601b4ab949f53faa07bd2c804",
            "to" : "095e7baea6a6c7c4c2dfeb977efac326af552d87",
            "v" : "27",
            "value" : ""
        }
    },
    "RightVRSTest" : {
        "rlp" : "0xf86103018207d094b94f5374fce5edbc8e2a8697c15331677e6ebf0b0a8255441ca098ff921201554726367d2be8c804a7ff89ccf285ebc57dff8ae4c44b9c19ac4aa08887321be575c8095f789dd4c743dfe42c1820f9231f98a962b210e3ac2452a3",
        "sender" : "5ba306ae3650c72c3586da6f1dbac3c9fa7e529e",
        "transaction" : {
            "data" : "0x5544",
            "gasLimit" : "2000",
            "gasPrice" : "1",
            "nonce" : "3",
            "r" : "0x98ff921201554726367d2be8c804a7ff89ccf285ebc57dff8ae4c44b9c19ac4a",
            "s" : "0x8887321be575c8095f789dd4c743dfe42c1820f9231f98a962b210e3ac2452a3",
            "to" : "b94f5374fce5edbc8e2a8697c15331677e6ebf0b",
            "v" : "28",
            "value" : "10"
        }
    },
    "SenderTest" : {
        "//" : "sender a94f5374fce5edbc8e2a8697c15331677e6ebf0b",
        "rlp" : "0xf85f800182035294095e7baea6a6c7c4c2dfeb977efac326af552d870a801ba048b55bfa915ac795c431978d8a6a992b628d557da5ff759b307d495a36649353a0efffd310ac743f371de3b9f7f9cb56c0b28ad43601b4ab949f53faa07bd2c804",
        "sender" : "a94f5374fce5edbc8e2a8697c15331677e6ebf0b",
        "transaction" : {
            "data" : "",
            "gasLimit" : "850",
            "gasPrice" : "1",
            "nonce" : "0",
            "r" : "0x48b55bfa915ac795c431978d8a6a992b628d557da5ff759b307d495a36649353",
            "s" : "0xefffd310ac743f371de3b9f7f9cb56c0b28ad43601b4ab949f53faa07bd2c804",
            "to" : "095e7baea6a6c7c4c2dfeb977efac326af552d87",
            "v" : "27",
            "value" : "10"
        }
    },
    "TransactionWithGasLimitOverflow" : {
        "rlp" : "0xf87e807ba101000000000000000000000000000000000000000000000000000000000000000094095e7baea6a6c7c4c2dfeb977efac326af552d870b801ba048b55bfa915ac795c431978d8a6a992b628d557da5ff759b307d495a36649353a0efffd310ac743f371de3b9f7f9cb56c0b28ad43601b4ab949f53faa07bd2c804"
    },
    "TransactionWithGasLimitxPriceOverflow" : {
        "rlp" : "0xf8858088016345785d8a0000a0ffffffffffffffffffffffffffffffffffffffffffffffffffffffffffffffff94095e7baea6a6c7c4c2dfeb977efac326af552d8780801ba048b55bfa915ac795c431978d8a6a992b628d557da5ff759b307d495a36649353a0efffd310ac743f371de3b9f7f9cb56c0b28ad43601b4ab949f53faa07bd2c804",
        "sender" : "700764607c82cf3e9cf4ecbd49185f8914f1a361",
        "transaction" : {
            "data" : "",
            "gasLimit" : "115792089237316195423570985008687907853269984665640564039457584007913129639935",
            "gasPrice" : "100000000000000000",
            "nonce" : "0",
            "r" : "0x48b55bfa915ac795c431978d8a6a992b628d557da5ff759b307d495a36649353",
            "s" : "0xefffd310ac743f371de3b9f7f9cb56c0b28ad43601b4ab949f53faa07bd2c804",
            "to" : "095e7baea6a6c7c4c2dfeb977efac326af552d87",
            "v" : "27",
            "value" : "0"
        }
    },
    "TransactionWithGasPriceOverflow" : {
        "rlp" : "0xf88080a101000000000000000000000000000000000000000000000000000000000000000082035294095e7baea6a6c7c4c2dfeb977efac326af552d870b801ba048b55bfa915ac795c431978d8a6a992b628d557da5ff759b307d495a36649353a0efffd310ac743f371de3b9f7f9cb56c0b28ad43601b4ab949f53faa07bd2c804"
    },
    "TransactionWithHihghGas" : {
        "rlp" : "0xf87d8001a0ffffffffffffffffffffffffffffffffffffffffffffffffffffffffffffffff94095e7baea6a6c7c4c2dfeb977efac326af552d8780801ba048b55bfa915ac795c431978d8a6a992b628d557da5ff759b307d495a36649353a0efffd310ac743f371de3b9f7f9cb56c0b28ad43601b4ab949f53faa07bd2c804",
        "sender" : "9e92c26895f279d68ad7b57b803dc522717d5572",
        "transaction" : {
            "data" : "",
            "gasLimit" : "115792089237316195423570985008687907853269984665640564039457584007913129639935",
            "gasPrice" : "1",
            "nonce" : "0",
            "r" : "0x48b55bfa915ac795c431978d8a6a992b628d557da5ff759b307d495a36649353",
            "s" : "0xefffd310ac743f371de3b9f7f9cb56c0b28ad43601b4ab949f53faa07bd2c804",
            "to" : "095e7baea6a6c7c4c2dfeb977efac326af552d87",
            "v" : "27",
            "value" : "0"
        }
    },
    "TransactionWithHihghGasPrice" : {
        "rlp" : "0xf87f80a0ffffffffffffffffffffffffffffffffffffffffffffffffffffffffffffffff8203e894095e7baea6a6c7c4c2dfeb977efac326af552d8780801ba048b55bfa915ac795c431978d8a6a992b628d557da5ff759b307d495a36649353a0efffd310ac743f371de3b9f7f9cb56c0b28ad43601b4ab949f53faa07bd2c804",
        "sender" : "16fd9197d7c7e37ac06ef78a2c2fcf5a70ae2db3",
        "transaction" : {
            "data" : "",
            "gasLimit" : "1000",
            "gasPrice" : "115792089237316195423570985008687907853269984665640564039457584007913129639935",
            "nonce" : "0",
            "r" : "0x48b55bfa915ac795c431978d8a6a992b628d557da5ff759b307d495a36649353",
            "s" : "0xefffd310ac743f371de3b9f7f9cb56c0b28ad43601b4ab949f53faa07bd2c804",
            "to" : "095e7baea6a6c7c4c2dfeb977efac326af552d87",
            "v" : "27",
            "value" : "0"
        }
    },
    "TransactionWithHihghNonce" : {
        "rlp" : "0xf87fa0ffffffffffffffffffffffffffffffffffffffffffffffffffffffffffffffff0182035294095e7baea6a6c7c4c2dfeb977efac326af552d8780801ba048b55bfa915ac795c431978d8a6a992b628d557da5ff759b307d495a36649353a0efffd310ac743f371de3b9f7f9cb56c0b28ad43601b4ab949f53faa07bd2c804",
        "sender" : "224fdba918cbedf058c4694f2e88a35fae134623",
        "transaction" : {
            "data" : "",
            "gasLimit" : "850",
            "gasPrice" : "1",
            "nonce" : "115792089237316195423570985008687907853269984665640564039457584007913129639935",
            "r" : "0x48b55bfa915ac795c431978d8a6a992b628d557da5ff759b307d495a36649353",
            "s" : "0xefffd310ac743f371de3b9f7f9cb56c0b28ad43601b4ab949f53faa07bd2c804",
            "to" : "095e7baea6a6c7c4c2dfeb977efac326af552d87",
            "v" : "27",
            "value" : "0"
        }
    },
    "TransactionWithHihghValue" : {
        "rlp" : "0xf87f800182035294095e7baea6a6c7c4c2dfeb977efac326af552d87a0ffffffffffffffffffffffffffffffffffffffffffffffffffffffffffffffff801ba048b55bfa915ac795c431978d8a6a992b628d557da5ff759b307d495a36649353a0efffd310ac743f371de3b9f7f9cb56c0b28ad43601b4ab949f53faa07bd2c804",
        "sender" : "50702f47f1c4bfc6b75e65e2b995a8024fe25be9",
        "transaction" : {
            "data" : "",
            "gasLimit" : "850",
            "gasPrice" : "1",
            "nonce" : "0",
            "r" : "0x48b55bfa915ac795c431978d8a6a992b628d557da5ff759b307d495a36649353",
            "s" : "0xefffd310ac743f371de3b9f7f9cb56c0b28ad43601b4ab949f53faa07bd2c804",
            "to" : "095e7baea6a6c7c4c2dfeb977efac326af552d87",
            "v" : "27",
            "value" : "115792089237316195423570985008687907853269984665640564039457584007913129639935"
        }
    },
    "TransactionWithHihghValueOverflow" : {
        "rlp" : "0xf880800182035294095e7baea6a6c7c4c2dfeb977efac326af552d87a1010000000000000000000000000000000000000000000000000000000000000000801ba048b55bfa915ac795c431978d8a6a992b628d557da5ff759b307d495a36649353a0efffd310ac743f371de3b9f7f9cb56c0b28ad43601b4ab949f53faa07bd2c804"
    },
    "TransactionWithNonceOverflow" : {
        "rlp" : "0xf880a10100000000000000000000000000000000000000000000000000000000000000000182035294095e7baea6a6c7c4c2dfeb977efac326af552d870b801ba048b55bfa915ac795c431978d8a6a992b628d557da5ff759b307d495a36649353a0efffd310ac743f371de3b9f7f9cb56c0b28ad43601b4ab949f53faa07bd2c804"
    },
    "TransactionWithRvalueHigh" : {
        "rlp" : "0xf85f800182035294095e7baea6a6c7c4c2dfeb977efac326af552d870b801ba0fffffffffffffffffffffffffffffffebaaedce6af48a03bbfd25e8cd0364140a08887321be575c8095f789dd4c743dfe42c1820f9231f98a962b210e3ac2452a3"
    },
    "TransactionWithRvalueOverflow" : {
        "rlp" : "0xf861800182035294095e7baea6a6c7c4c2dfeb977efac326af552d870b801ba2fffffffffffffffffffffffffffffffebaaedce6af48a03bbfd25e8cd03641410000a0efffd310ac743f371de3b9f7f9cb56c0b28ad43601b4ab949f53faa07bd2c804"
    },
    "TransactionWithRvalueTooHigh" : {
        "rlp" : "0xf85f800182035294095e7baea6a6c7c4c2dfeb977efac326af552d870b801ba0fffffffffffffffffffffffffffffffebaaedce6af48a03bbfd25e8cd0364141a0efffd310ac743f371de3b9f7f9cb56c0b28ad43601b4ab949f53faa07bd2c804"
    },
    "TransactionWithRvalueWrongSize" : {
        "rlp" : "0xf850800182035294095e7baea6a6c7c4c2dfeb977efac326af552d870b801b910ebaaedce6af48a03bbfd25e8cd0364141a0efffd310ac743f371de3b9f7f9cb56c0b28ad43601b4ab949f53faa07bd2c804",
        "sender" : "590233a2475e255fcdbc91d70da548315ca938a8",
        "transaction" : {
            "data" : "",
            "gasLimit" : "850",
            "gasPrice" : "1",
            "nonce" : "0",
            "r" : "0xebaaedce6af48a03bbfd25e8cd0364141",
            "s" : "0xefffd310ac743f371de3b9f7f9cb56c0b28ad43601b4ab949f53faa07bd2c804",
            "to" : "095e7baea6a6c7c4c2dfeb977efac326af552d87",
            "v" : "27",
            "value" : "11"
        }
    },
    "TransactionWithSvalueHigh" : {
        "rlp" : "0xf85f800182035294095e7baea6a6c7c4c2dfeb977efac326af552d870b801ba048b55bfa915ac795c431978d8a6a992b628d557da5ff759b307d495a36649353a0fffffffffffffffffffffffffffffffffffffffffffffffffffffffefffffc2e",
        "sender" : "53ea6a7f58d1b13a32147d908c2631611680e2ac",
        "transaction" : {
            "data" : "",
            "gasLimit" : "850",
            "gasPrice" : "1",
            "nonce" : "0",
            "r" : "0x48b55bfa915ac795c431978d8a6a992b628d557da5ff759b307d495a36649353",
            "s" : "0xfffffffffffffffffffffffffffffffffffffffffffffffffffffffefffffc2e",
            "to" : "095e7baea6a6c7c4c2dfeb977efac326af552d87",
            "v" : "27",
            "value" : "11"
        }
    },
    "TransactionWithSvalueOverflow" : {
        "rlp" : "0xf861800182035294095e7baea6a6c7c4c2dfeb977efac326af552d870b801ba048b55bfa915ac795c431978d8a6a992b628d557da5ff759b307d495a36649353a2fffffffffffffffffffffffffffffffffffffffffffffffffffffffefffffc2f0000"
    },
    "TransactionWithSvalueTooHigh" : {
        "rlp" : "0xf85f800182035294095e7baea6a6c7c4c2dfeb977efac326af552d870b801ba048b55bfa915ac795c431978d8a6a992b628d557da5ff759b307d495a36649353a0fffffffffffffffffffffffffffffffffffffffffffffffffffffffefffffc2f"
    },
    "TransactionWithSvalueWrongSize" : {
        "rlp" : "0xf851800182035294095e7baea6a6c7c4c2dfeb977efac326af552d870b801ba098ff921201554726367d2be8c804a7ff89ccf285ebc57dff8ae4c44b9c19ac4a920ef0b28ad43601b4ab949f53faa07bd2c804",
        "sender" : "3a9f53e51de6314acdcfb604fcb2a11f10345d8e",
        "transaction" : {
            "data" : "",
            "gasLimit" : "850",
            "gasPrice" : "1",
            "nonce" : "0",
            "r" : "0x98ff921201554726367d2be8c804a7ff89ccf285ebc57dff8ae4c44b9c19ac4a",
            "s" : "0xef0b28ad43601b4ab949f53faa07bd2c804",
            "to" : "095e7baea6a6c7c4c2dfeb977efac326af552d87",
            "v" : "27",
            "value" : "11"
        }
    },
    "TransactionWithTooFewRLPElements" : {
        "rlp" : "0xf85b800194095e7baea6a6c7c4c2dfeb977efac326af552d87801ba048b55bfa915ac795c431978d8a6a992b628d557da5ff759b307d495a36649353a0efffd310ac743f371de3b9f7f9cb56c0b28ad43601b4ab949f53faa07bd2c804"
    },
    "TransactionWithTooManyRLPElements" : {
        "rlp" : "0xf865800182035294095e7baea6a6c7c4c2dfeb977efac326af552d870a801ba048b55bfa915ac795c431978d8a6a992b628d557da5ff759b307d495a36649353a0efffd310ac743f371de3b9f7f9cb56c0b28ad43601b4ab949f53faa07bd2c804851de98d0edd"
    },
    "V_overflow32bit" : {
        "rlp" : "0xf86603018207d094b94f5374fce5edbc8e2a8697c15331677e6ebf0b0a82554485010000001ba098ff921201554726367d2be8c804a7ff89ccf285ebc57dff8ae4c44b9c19ac4aa08887321be575c8095f789dd4c743dfe42c1820f9231f98a962b210e3ac2452a3"
    },
    "V_overflow32bitSigned" : {
        "rlp" : "0xf86503018207d094b94f5374fce5edbc8e2a8697c15331677e6ebf0b0a825544847fffffffa098ff921201554726367d2be8c804a7ff89ccf285ebc57dff8ae4c44b9c19ac4aa08887321be575c8095f789dd4c743dfe42c1820f9231f98a962b210e3ac2452a3"
    },
    "V_overflow64bit" : {
        "rlp" : "0xf86a03018207d094b94f5374fce5edbc8e2a8697c15331677e6ebf0b0a8255448901000000000000001ba098ff921201554726367d2be8c804a7ff89ccf285ebc57dff8ae4c44b9c19ac4aa08887321be575c8095f789dd4c743dfe42c1820f9231f98a962b210e3ac2452a3"
    },
    "V_overflow64bitSigned" : {
        "rlp" : "0xf86903018207d094b94f5374fce5edbc8e2a8697c15331677e6ebf0b0a82554488ffffffffffffff1ca098ff921201554726367d2be8c804a7ff89ccf285ebc57dff8ae4c44b9c19ac4aa08887321be575c8095f789dd4c743dfe42c1820f9231f98a962b210e3ac2452a3"
    },
    "ValuesAsDec" : {
        "rlp" : "0xf86a830ffdc50183adc05394b94f5374fce5edbc8e2a8697c15331677e6ebf0b870ffdc5fffdc12c801ca098ff921201554726367d2be8c804a7ff89ccf285ebc57dff8ae4c44b9c19ac4aa08887321be575c8095f789dd4c743dfe42c1820f9231f98a962b210e3ac2452a3",
        "sender" : "3eb583df408b324b4ba3a8d63e6b2dba1c4f28f6",
        "transaction" : {
            "data" : "",
            "gasLimit" : "11386963",
            "gasPrice" : "1",
            "nonce" : "1048005",
            "r" : "0x98ff921201554726367d2be8c804a7ff89ccf285ebc57dff8ae4c44b9c19ac4a",
            "s" : "0x8887321be575c8095f789dd4c743dfe42c1820f9231f98a962b210e3ac2452a3",
            "to" : "b94f5374fce5edbc8e2a8697c15331677e6ebf0b",
            "v" : "28",
            "value" : "4501151495864620"
        }
    },
    "ValuesAsHex" : {
        "rlp" : "0xf867830ffdc50183adc05394b94f5374fce5edbc8e2a8697c15331677e6ebf0b84fffdc12c801ca098ff921201554726367d2be8c804a7ff89ccf285ebc57dff8ae4c44b9c19ac4aa08887321be575c8095f789dd4c743dfe42c1820f9231f98a962b210e3ac2452a3",
        "sender" : "24ef2c911b7b98e481e4c97c201194ee7889501b",
        "transaction" : {
            "data" : "",
            "gasLimit" : "0xadc053",
            "gasPrice" : "1",
            "nonce" : "0xffdc5",
            "r" : "0x98ff921201554726367d2be8c804a7ff89ccf285ebc57dff8ae4c44b9c19ac4a",
            "s" : "0x8887321be575c8095f789dd4c743dfe42c1820f9231f98a962b210e3ac2452a3",
            "to" : "b94f5374fce5edbc8e2a8697c15331677e6ebf0b",
            "v" : "28",
            "value" : "4294820140"
        }
    },
    "WrongVRSTestIncorrectSize" : {
        "rlp" : "0xf86380018207d094b94f5374fce5edbc8e2a8697c15331677e6ebf0b0a801ca298ff921201554726367d2be8c804a7ff89ccf285ebc57dff8ae4c44b9c19ac4a02c3a28887321be575c8095f789dd4c743dfe42c1820f9231f98a962b210e3ac2452a302c3"
    },
    "WrongVRSTestVEqual26" : {
        "rlp" : "0xf85f80018207d094b94f5374fce5edbc8e2a8697c15331677e6ebf0b0a801aa098ff921201554726367d2be8c804a7ff89ccf285ebc57dff8ae4c44b9c19ac4aa08887321be575c8095f789dd4c743dfe42c1820f9231f98a962b210e3ac2452a3"
    },
    "WrongVRSTestVEqual29" : {
        "rlp" : "0xf85f80018207d094b94f5374fce5edbc8e2a8697c15331677e6ebf0b0a801da098ff921201554726367d2be8c804a7ff89ccf285ebc57dff8ae4c44b9c19ac4aa08887321be575c8095f789dd4c743dfe42c1820f9231f98a962b210e3ac2452a3"
    },
    "WrongVRSTestVEqual31" : {
        "rlp" : "0xf85f80018207d094b94f5374fce5edbc8e2a8697c15331677e6ebf0b0a801fa098ff921201554726367d2be8c804a7ff89ccf285ebc57dff8ae4c44b9c19ac4aa08887321be575c8095f789dd4c743dfe42c1820f9231f98a962b210e3ac2452a3"
    },
    "WrongVRSTestVOverflow" : {
        "rlp" : "0xf86180018207d094b94f5374fce5edbc8e2a8697c15331677e6ebf0b0a80820136a098ff921201554726367d2be8c804a7ff89ccf285ebc57dff8ae4c44b9c19ac4aa08887321be575c8095f789dd4c743dfe42c1820f9231f98a962b210e3ac2452a3"
    },
    "libsecp256k1test" : {
        "rlp" : "0xd1808609184e72a0008213888080801b2c04",
        "sender" : "847c8602054c653f489398f0fc2de507083d6f1c",
        "transaction" : {
            "data" : "",
            "gasLimit" : "0x1388",
            "gasPrice" : "0x09184e72a000",
            "nonce" : "",
            "r" : "44",
            "s" : "4",
            "to" : "",
            "v" : "27",
            "value" : ""
        }
    },
    "unpadedRValue" : {
        "rlp" : "0xf8880d8609184e72a000822710947c47ef93268a311f4cad0c750724299e9b72c26880a4379607f500000000000000000000000000000000000000000000000000000000000000051c9f6ab6dda9f4df56ea45583af36660329147f1753f3724ea5eb9ed83e812ca77a0495701e230667832c8999e884e366a61028633ecf951e8cd66d119f381ae5718",
        "sender" : "7adf3b3bce3a5c8c17e8b243f4c331dd97c60579",
        "transaction" : {
            "data" : "0x379607f50000000000000000000000000000000000000000000000000000000000000005",
            "gasLimit" : "0x2710",
            "gasPrice" : "0x09184e72a000",
            "nonce" : "13",
            "r" : "0x006ab6dda9f4df56ea45583af36660329147f1753f3724ea5eb9ed83e812ca77",
            "s" : "0x495701e230667832c8999e884e366a61028633ecf951e8cd66d119f381ae5718",
            "to" : "7c47ef93268a311f4cad0c750724299e9b72c268",
            "v" : "28",
            "value" : ""
        }
    }
}