{
    "callcallcallcode_001_SuicideMiddle_d0g0v0_Byzantium" : {
        "_info" : {
            "comment" : "",
            "filledwith" : "cpp-1.3.0+commit.6e0ce939.Linux.g++",
            "lllcversion" : "Version: 0.4.18-develop.2017.9.25+commit.a72237f2.Linux.g++",
            "source" : "src/BlockchainTestsFiller/GeneralStateTests/stCallDelegateCodesCallCodeHomestead/callcallcallcode_001_SuicideMiddle_d0g0v0Filler.json",
            "sourceHash" : "c10bbc183a8a75e04af345426d3abf7970ca3f36679986c9483735f843fb38ac"
        },
        "blocks" : [
            {
                "blockHeader" : {
                    "bloom" : "0x00000000000000000000000000000000000000000000000000000000000000000000000000000000000000000000000000000000000000000000000000000000000000000000000000000000000000000000000000000000000000000000000000000000000000000000000000000000000000000000000000000000000000000000000000000000000000000000000000000000000000000000000000000000000000000000000000000000000000000000000000000000000000000000000000000000000000000000000000000000000000000000000000000000000000000000000000000000000000000000000000000000000000000000000000000000",
                    "coinbase" : "0x2adc25665018aa1fe0e6bc666dac8fc2697ff9ba",
                    "difficulty" : "0x020000",
                    "extraData" : "",
                    "gasLimit" : "0x01c9c380",
                    "gasUsed" : "0xa9c7",
                    "hash" : "0xdcbc4088bea517ab181b58b1c1c05043a4f39ce7342b1e2113f515c05700d743",
                    "mixHash" : "0x21407f96dd398a39094d416de2c7abb2c3329040982e0892c021b8065863faeb",
                    "nonce" : "0x7fff7fe53919768f",
                    "number" : "0x01",
                    "parentHash" : "0x65bfcd329bcf9af6f743f523ff7530bacc26e153a0bb4928ce7dc1455a4c2ce5",
                    "receiptTrie" : "0x09430c47ad57170f4a897ec85dfeb6757301084dd1b8169f5e0a0712a40057c0",
                    "stateRoot" : "0x36cc5898fd1ab0eb027d39d108d36851df48724dfeee459d49dc02c1179eca9b",
                    "timestamp" : "0x03e8",
                    "transactionsTrie" : "0x5d88595a2b9f129f2901f79a207ca2d95f38ac387707e6cb1de43679d06079d4",
                    "uncleHash" : "0x1dcc4de8dec75d7aab85b567b6ccd41ad312451b948a7413f0a142fd40d49347"
                },
                "rlp" : "0xf90260f901f8a065bfcd329bcf9af6f743f523ff7530bacc26e153a0bb4928ce7dc1455a4c2ce5a01dcc4de8dec75d7aab85b567b6ccd41ad312451b948a7413f0a142fd40d49347942adc25665018aa1fe0e6bc666dac8fc2697ff9baa036cc5898fd1ab0eb027d39d108d36851df48724dfeee459d49dc02c1179eca9ba05d88595a2b9f129f2901f79a207ca2d95f38ac387707e6cb1de43679d06079d4a009430c47ad57170f4a897ec85dfeb6757301084dd1b8169f5e0a0712a40057c0b901000000000000000000000000000000000000000000000000000000000000000000000000000000000000000000000000000000000000000000000000000000000000000000000000000000000000000000000000000000000000000000000000000000000000000000000000000000000000000000000000000000000000000000000000000000000000000000000000000000000000000000000000000000000000000000000000000000000000000000000000000000000000000000000000000000000000000000000000000000000000000000000000000000000000000000000000000000000000000000000000000000000000000000000000000000000083020000018401c9c38082a9c78203e880a021407f96dd398a39094d416de2c7abb2c3329040982e0892c021b8065863faeb887fff7fe53919768ff862f8608001832dc6c094100000000000000000000000000000000000000080801ba0bc3f717090c5b3d46550833ec05cc91a3c352bd18be2c0eed5ed3e54e8af58f9a03a7d01021289eca372726c91175e4f422da3147bd3961cd66ca95f1cf3619fb2c0",
                "transactions" : [
                    {
                        "data" : "",
                        "gasLimit" : "0x2dc6c0",
                        "gasPrice" : "0x01",
                        "nonce" : "0x00",
                        "r" : "0xbc3f717090c5b3d46550833ec05cc91a3c352bd18be2c0eed5ed3e54e8af58f9",
                        "s" : "0x3a7d01021289eca372726c91175e4f422da3147bd3961cd66ca95f1cf3619fb2",
                        "to" : "0x1000000000000000000000000000000000000000",
                        "v" : "0x1b",
                        "value" : "0x00"
                    }
                ],
                "uncleHeaders" : [
                ]
            }
        ],
        "genesisBlockHeader" : {
            "bloom" : "0x00000000000000000000000000000000000000000000000000000000000000000000000000000000000000000000000000000000000000000000000000000000000000000000000000000000000000000000000000000000000000000000000000000000000000000000000000000000000000000000000000000000000000000000000000000000000000000000000000000000000000000000000000000000000000000000000000000000000000000000000000000000000000000000000000000000000000000000000000000000000000000000000000000000000000000000000000000000000000000000000000000000000000000000000000000000",
            "coinbase" : "0x2adc25665018aa1fe0e6bc666dac8fc2697ff9ba",
            "difficulty" : "0x020000",
            "extraData" : "0x42",
            "gasLimit" : "0x01c9c380",
            "gasUsed" : "0x00",
            "hash" : "0x65bfcd329bcf9af6f743f523ff7530bacc26e153a0bb4928ce7dc1455a4c2ce5",
            "mixHash" : "0x56e81f171bcc55a6ff8345e692c0f86e5b48e01b996cadc001622fb5e363b421",
            "nonce" : "0x0102030405060708",
            "number" : "0x00",
            "parentHash" : "0x0000000000000000000000000000000000000000000000000000000000000000",
            "receiptTrie" : "0x56e81f171bcc55a6ff8345e692c0f86e5b48e01b996cadc001622fb5e363b421",
            "stateRoot" : "0xd0e51486c42278c7f4814f8897083d0bbc4a25cda3f1d8d24361110a149dc05e",
            "timestamp" : "0x03b6",
            "transactionsTrie" : "0x56e81f171bcc55a6ff8345e692c0f86e5b48e01b996cadc001622fb5e363b421",
            "uncleHash" : "0x1dcc4de8dec75d7aab85b567b6ccd41ad312451b948a7413f0a142fd40d49347"
        },
        "genesisRLP" : "0xf901fbf901f6a00000000000000000000000000000000000000000000000000000000000000000a01dcc4de8dec75d7aab85b567b6ccd41ad312451b948a7413f0a142fd40d49347942adc25665018aa1fe0e6bc666dac8fc2697ff9baa0d0e51486c42278c7f4814f8897083d0bbc4a25cda3f1d8d24361110a149dc05ea056e81f171bcc55a6ff8345e692c0f86e5b48e01b996cadc001622fb5e363b421a056e81f171bcc55a6ff8345e692c0f86e5b48e01b996cadc001622fb5e363b421b901000000000000000000000000000000000000000000000000000000000000000000000000000000000000000000000000000000000000000000000000000000000000000000000000000000000000000000000000000000000000000000000000000000000000000000000000000000000000000000000000000000000000000000000000000000000000000000000000000000000000000000000000000000000000000000000000000000000000000000000000000000000000000000000000000000000000000000000000000000000000000000000000000000000000000000000000000000000000000000000000000000000000000000000000000000000083020000808401c9c380808203b642a056e81f171bcc55a6ff8345e692c0f86e5b48e01b996cadc001622fb5e363b421880102030405060708c0c0",
        "lastblockhash" : "0xdcbc4088bea517ab181b58b1c1c05043a4f39ce7342b1e2113f515c05700d743",
        "network" : "Byzantium",
        "postState" : {
            "0x1000000000000000000000000000000000000001" : {
                "balance" : "0x02540be400",
                "code" : "0x60406000604060006000731000000000000000000000000000000000000002620186a0f2600155",
                "nonce" : "0x00",
                "storage" : {
                }
            },
            "0x1000000000000000000000000000000000000002" : {
                "balance" : "0x02540be400",
                "code" : "0x731000000000000000000000000000000000000000ff604060006040600073100000000000000000000000000000000000000361c350f4600255",
                "nonce" : "0x00",
                "storage" : {
                }
            },
            "0x1000000000000000000000000000000000000003" : {
                "balance" : "0x02540be400",
                "code" : "0x6001600355",
                "nonce" : "0x00",
                "storage" : {
                }
            },
            "0x2adc25665018aa1fe0e6bc666dac8fc2697ff9ba" : {
                "balance" : "0x29a2241af62ca9c7",
                "code" : "",
                "nonce" : "0x00",
                "storage" : {
                }
            },
            "0xa94f5374fce5edbc8e2a8697c15331677e6ebf0b" : {
                "balance" : "0x0de0b6b3a7635639",
                "code" : "",
                "nonce" : "0x01",
                "storage" : {
                }
            }
        },
        "pre" : {
            "0x1000000000000000000000000000000000000000" : {
                "balance" : "0x0de0b6b3a7640000",
                "code" : "0x60406000604060006000731000000000000000000000000000000000000001620249f0f2600055",
                "nonce" : "0x00",
                "storage" : {
                }
            },
            "0x1000000000000000000000000000000000000001" : {
                "balance" : "0x02540be400",
                "code" : "0x60406000604060006000731000000000000000000000000000000000000002620186a0f2600155",
                "nonce" : "0x00",
                "storage" : {
                }
            },
            "0x1000000000000000000000000000000000000002" : {
                "balance" : "0x02540be400",
                "code" : "0x731000000000000000000000000000000000000000ff604060006040600073100000000000000000000000000000000000000361c350f4600255",
                "nonce" : "0x00",
                "storage" : {
                }
            },
            "0x1000000000000000000000000000000000000003" : {
                "balance" : "0x02540be400",
                "code" : "0x6001600355",
                "nonce" : "0x00",
                "storage" : {
                }
            },
            "0xa94f5374fce5edbc8e2a8697c15331677e6ebf0b" : {
                "balance" : "0x0de0b6b3a7640000",
                "code" : "",
                "nonce" : "0x00",
                "storage" : {
                }
            }
        }
    },
    "callcallcallcode_001_SuicideMiddle_d0g0v0_EIP150" : {
        "_info" : {
            "comment" : "",
            "filledwith" : "cpp-1.3.0+commit.6e0ce939.Linux.g++",
            "lllcversion" : "Version: 0.4.18-develop.2017.9.25+commit.a72237f2.Linux.g++",
            "source" : "src/BlockchainTestsFiller/GeneralStateTests/stCallDelegateCodesCallCodeHomestead/callcallcallcode_001_SuicideMiddle_d0g0v0Filler.json",
            "sourceHash" : "c10bbc183a8a75e04af345426d3abf7970ca3f36679986c9483735f843fb38ac"
        },
        "blocks" : [
            {
                "blockHeader" : {
                    "bloom" : "0x00000000000000000000000000000000000000000000000000000000000000000000000000000000000000000000000000000000000000000000000000000000000000000000000000000000000000000000000000000000000000000000000000000000000000000000000000000000000000000000000000000000000000000000000000000000000000000000000000000000000000000000000000000000000000000000000000000000000000000000000000000000000000000000000000000000000000000000000000000000000000000000000000000000000000000000000000000000000000000000000000000000000000000000000000000000",
                    "coinbase" : "0x2adc25665018aa1fe0e6bc666dac8fc2697ff9ba",
                    "difficulty" : "0x020000",
                    "extraData" : "",
                    "gasLimit" : "0x01c9c380",
                    "gasUsed" : "0xa9c7",
                    "hash" : "0x9b04fd3052288ae26d6c06a52fe137bde536ff71c662b6eb85f99b0f4c67c425",
                    "mixHash" : "0x58eda0829e71aa1ab230660a012ffa6083f43400f901410b3c1b0a3ea18e60c4",
                    "nonce" : "0x952a3d33c3e18909",
                    "number" : "0x01",
                    "parentHash" : "0x65bfcd329bcf9af6f743f523ff7530bacc26e153a0bb4928ce7dc1455a4c2ce5",
                    "receiptTrie" : "0xea1af5c5db83a4c4e496ee107ee971b43165baf6469a7bbb31872fffecc4ed3d",
                    "stateRoot" : "0x421cc897cf14202745385e38ab5a21ef2af99f25a988e9176c921c6b8b38d446",
                    "timestamp" : "0x03e8",
                    "transactionsTrie" : "0x5d88595a2b9f129f2901f79a207ca2d95f38ac387707e6cb1de43679d06079d4",
                    "uncleHash" : "0x1dcc4de8dec75d7aab85b567b6ccd41ad312451b948a7413f0a142fd40d49347"
                },
                "rlp" : "0xf90260f901f8a065bfcd329bcf9af6f743f523ff7530bacc26e153a0bb4928ce7dc1455a4c2ce5a01dcc4de8dec75d7aab85b567b6ccd41ad312451b948a7413f0a142fd40d49347942adc25665018aa1fe0e6bc666dac8fc2697ff9baa0421cc897cf14202745385e38ab5a21ef2af99f25a988e9176c921c6b8b38d446a05d88595a2b9f129f2901f79a207ca2d95f38ac387707e6cb1de43679d06079d4a0ea1af5c5db83a4c4e496ee107ee971b43165baf6469a7bbb31872fffecc4ed3db901000000000000000000000000000000000000000000000000000000000000000000000000000000000000000000000000000000000000000000000000000000000000000000000000000000000000000000000000000000000000000000000000000000000000000000000000000000000000000000000000000000000000000000000000000000000000000000000000000000000000000000000000000000000000000000000000000000000000000000000000000000000000000000000000000000000000000000000000000000000000000000000000000000000000000000000000000000000000000000000000000000000000000000000000000000000083020000018401c9c38082a9c78203e880a058eda0829e71aa1ab230660a012ffa6083f43400f901410b3c1b0a3ea18e60c488952a3d33c3e18909f862f8608001832dc6c094100000000000000000000000000000000000000080801ba0bc3f717090c5b3d46550833ec05cc91a3c352bd18be2c0eed5ed3e54e8af58f9a03a7d01021289eca372726c91175e4f422da3147bd3961cd66ca95f1cf3619fb2c0",
                "transactions" : [
                    {
                        "data" : "",
                        "gasLimit" : "0x2dc6c0",
                        "gasPrice" : "0x01",
                        "nonce" : "0x00",
                        "r" : "0xbc3f717090c5b3d46550833ec05cc91a3c352bd18be2c0eed5ed3e54e8af58f9",
                        "s" : "0x3a7d01021289eca372726c91175e4f422da3147bd3961cd66ca95f1cf3619fb2",
                        "to" : "0x1000000000000000000000000000000000000000",
                        "v" : "0x1b",
                        "value" : "0x00"
                    }
                ],
                "uncleHeaders" : [
                ]
            }
        ],
        "genesisBlockHeader" : {
            "bloom" : "0x00000000000000000000000000000000000000000000000000000000000000000000000000000000000000000000000000000000000000000000000000000000000000000000000000000000000000000000000000000000000000000000000000000000000000000000000000000000000000000000000000000000000000000000000000000000000000000000000000000000000000000000000000000000000000000000000000000000000000000000000000000000000000000000000000000000000000000000000000000000000000000000000000000000000000000000000000000000000000000000000000000000000000000000000000000000",
            "coinbase" : "0x2adc25665018aa1fe0e6bc666dac8fc2697ff9ba",
            "difficulty" : "0x020000",
            "extraData" : "0x42",
            "gasLimit" : "0x01c9c380",
            "gasUsed" : "0x00",
            "hash" : "0x65bfcd329bcf9af6f743f523ff7530bacc26e153a0bb4928ce7dc1455a4c2ce5",
            "mixHash" : "0x56e81f171bcc55a6ff8345e692c0f86e5b48e01b996cadc001622fb5e363b421",
            "nonce" : "0x0102030405060708",
            "number" : "0x00",
            "parentHash" : "0x0000000000000000000000000000000000000000000000000000000000000000",
            "receiptTrie" : "0x56e81f171bcc55a6ff8345e692c0f86e5b48e01b996cadc001622fb5e363b421",
            "stateRoot" : "0xd0e51486c42278c7f4814f8897083d0bbc4a25cda3f1d8d24361110a149dc05e",
            "timestamp" : "0x03b6",
            "transactionsTrie" : "0x56e81f171bcc55a6ff8345e692c0f86e5b48e01b996cadc001622fb5e363b421",
            "uncleHash" : "0x1dcc4de8dec75d7aab85b567b6ccd41ad312451b948a7413f0a142fd40d49347"
        },
        "genesisRLP" : "0xf901fbf901f6a00000000000000000000000000000000000000000000000000000000000000000a01dcc4de8dec75d7aab85b567b6ccd41ad312451b948a7413f0a142fd40d49347942adc25665018aa1fe0e6bc666dac8fc2697ff9baa0d0e51486c42278c7f4814f8897083d0bbc4a25cda3f1d8d24361110a149dc05ea056e81f171bcc55a6ff8345e692c0f86e5b48e01b996cadc001622fb5e363b421a056e81f171bcc55a6ff8345e692c0f86e5b48e01b996cadc001622fb5e363b421b901000000000000000000000000000000000000000000000000000000000000000000000000000000000000000000000000000000000000000000000000000000000000000000000000000000000000000000000000000000000000000000000000000000000000000000000000000000000000000000000000000000000000000000000000000000000000000000000000000000000000000000000000000000000000000000000000000000000000000000000000000000000000000000000000000000000000000000000000000000000000000000000000000000000000000000000000000000000000000000000000000000000000000000000000000000000083020000808401c9c380808203b642a056e81f171bcc55a6ff8345e692c0f86e5b48e01b996cadc001622fb5e363b421880102030405060708c0c0",
        "lastblockhash" : "0x9b04fd3052288ae26d6c06a52fe137bde536ff71c662b6eb85f99b0f4c67c425",
        "network" : "EIP150",
        "postState" : {
            "0x1000000000000000000000000000000000000001" : {
                "balance" : "0x02540be400",
                "code" : "0x60406000604060006000731000000000000000000000000000000000000002620186a0f2600155",
                "nonce" : "0x00",
                "storage" : {
                }
            },
            "0x1000000000000000000000000000000000000002" : {
                "balance" : "0x02540be400",
                "code" : "0x731000000000000000000000000000000000000000ff604060006040600073100000000000000000000000000000000000000361c350f4600255",
                "nonce" : "0x00",
                "storage" : {
                }
            },
            "0x1000000000000000000000000000000000000003" : {
                "balance" : "0x02540be400",
                "code" : "0x6001600355",
                "nonce" : "0x00",
                "storage" : {
                }
            },
            "0x2adc25665018aa1fe0e6bc666dac8fc2697ff9ba" : {
                "balance" : "0x4563918244f4a9c7",
                "code" : "",
                "nonce" : "0x00",
                "storage" : {
                }
            },
            "0xa94f5374fce5edbc8e2a8697c15331677e6ebf0b" : {
                "balance" : "0x0de0b6b3a7635639",
                "code" : "",
                "nonce" : "0x01",
                "storage" : {
                }
            }
        },
        "pre" : {
            "0x1000000000000000000000000000000000000000" : {
                "balance" : "0x0de0b6b3a7640000",
                "code" : "0x60406000604060006000731000000000000000000000000000000000000001620249f0f2600055",
                "nonce" : "0x00",
                "storage" : {
                }
            },
            "0x1000000000000000000000000000000000000001" : {
                "balance" : "0x02540be400",
                "code" : "0x60406000604060006000731000000000000000000000000000000000000002620186a0f2600155",
                "nonce" : "0x00",
                "storage" : {
                }
            },
            "0x1000000000000000000000000000000000000002" : {
                "balance" : "0x02540be400",
                "code" : "0x731000000000000000000000000000000000000000ff604060006040600073100000000000000000000000000000000000000361c350f4600255",
                "nonce" : "0x00",
                "storage" : {
                }
            },
            "0x1000000000000000000000000000000000000003" : {
                "balance" : "0x02540be400",
                "code" : "0x6001600355",
                "nonce" : "0x00",
                "storage" : {
                }
            },
            "0xa94f5374fce5edbc8e2a8697c15331677e6ebf0b" : {
                "balance" : "0x0de0b6b3a7640000",
                "code" : "",
                "nonce" : "0x00",
                "storage" : {
                }
            }
        }
    },
    "callcallcallcode_001_SuicideMiddle_d0g0v0_EIP158" : {
        "_info" : {
            "comment" : "",
            "filledwith" : "cpp-1.3.0+commit.6e0ce939.Linux.g++",
            "lllcversion" : "Version: 0.4.18-develop.2017.9.25+commit.a72237f2.Linux.g++",
            "source" : "src/BlockchainTestsFiller/GeneralStateTests/stCallDelegateCodesCallCodeHomestead/callcallcallcode_001_SuicideMiddle_d0g0v0Filler.json",
            "sourceHash" : "c10bbc183a8a75e04af345426d3abf7970ca3f36679986c9483735f843fb38ac"
        },
        "blocks" : [
            {
                "blockHeader" : {
                    "bloom" : "0x00000000000000000000000000000000000000000000000000000000000000000000000000000000000000000000000000000000000000000000000000000000000000000000000000000000000000000000000000000000000000000000000000000000000000000000000000000000000000000000000000000000000000000000000000000000000000000000000000000000000000000000000000000000000000000000000000000000000000000000000000000000000000000000000000000000000000000000000000000000000000000000000000000000000000000000000000000000000000000000000000000000000000000000000000000000",
                    "coinbase" : "0x2adc25665018aa1fe0e6bc666dac8fc2697ff9ba",
                    "difficulty" : "0x020000",
                    "extraData" : "",
                    "gasLimit" : "0x01c9c380",
                    "gasUsed" : "0xa9c7",
                    "hash" : "0x5e2dc2484fef5a9314bf4ae2e70c78367c82c4019b12e0dcc2ada39ecfe923b2",
                    "mixHash" : "0x5b0e60a842ca6847ac8e836ad82ea7584039c221f5421fec306b95b8a047c061",
                    "nonce" : "0xfe0f54eb75539a29",
                    "number" : "0x01",
                    "parentHash" : "0x65bfcd329bcf9af6f743f523ff7530bacc26e153a0bb4928ce7dc1455a4c2ce5",
                    "receiptTrie" : "0xea1af5c5db83a4c4e496ee107ee971b43165baf6469a7bbb31872fffecc4ed3d",
                    "stateRoot" : "0x421cc897cf14202745385e38ab5a21ef2af99f25a988e9176c921c6b8b38d446",
                    "timestamp" : "0x03e8",
                    "transactionsTrie" : "0x5d88595a2b9f129f2901f79a207ca2d95f38ac387707e6cb1de43679d06079d4",
                    "uncleHash" : "0x1dcc4de8dec75d7aab85b567b6ccd41ad312451b948a7413f0a142fd40d49347"
                },
                "rlp" : "0xf90260f901f8a065bfcd329bcf9af6f743f523ff7530bacc26e153a0bb4928ce7dc1455a4c2ce5a01dcc4de8dec75d7aab85b567b6ccd41ad312451b948a7413f0a142fd40d49347942adc25665018aa1fe0e6bc666dac8fc2697ff9baa0421cc897cf14202745385e38ab5a21ef2af99f25a988e9176c921c6b8b38d446a05d88595a2b9f129f2901f79a207ca2d95f38ac387707e6cb1de43679d06079d4a0ea1af5c5db83a4c4e496ee107ee971b43165baf6469a7bbb31872fffecc4ed3db901000000000000000000000000000000000000000000000000000000000000000000000000000000000000000000000000000000000000000000000000000000000000000000000000000000000000000000000000000000000000000000000000000000000000000000000000000000000000000000000000000000000000000000000000000000000000000000000000000000000000000000000000000000000000000000000000000000000000000000000000000000000000000000000000000000000000000000000000000000000000000000000000000000000000000000000000000000000000000000000000000000000000000000000000000000000083020000018401c9c38082a9c78203e880a05b0e60a842ca6847ac8e836ad82ea7584039c221f5421fec306b95b8a047c06188fe0f54eb75539a29f862f8608001832dc6c094100000000000000000000000000000000000000080801ba0bc3f717090c5b3d46550833ec05cc91a3c352bd18be2c0eed5ed3e54e8af58f9a03a7d01021289eca372726c91175e4f422da3147bd3961cd66ca95f1cf3619fb2c0",
                "transactions" : [
                    {
                        "data" : "",
                        "gasLimit" : "0x2dc6c0",
                        "gasPrice" : "0x01",
                        "nonce" : "0x00",
                        "r" : "0xbc3f717090c5b3d46550833ec05cc91a3c352bd18be2c0eed5ed3e54e8af58f9",
                        "s" : "0x3a7d01021289eca372726c91175e4f422da3147bd3961cd66ca95f1cf3619fb2",
                        "to" : "0x1000000000000000000000000000000000000000",
                        "v" : "0x1b",
                        "value" : "0x00"
                    }
                ],
                "uncleHeaders" : [
                ]
            }
        ],
        "genesisBlockHeader" : {
            "bloom" : "0x00000000000000000000000000000000000000000000000000000000000000000000000000000000000000000000000000000000000000000000000000000000000000000000000000000000000000000000000000000000000000000000000000000000000000000000000000000000000000000000000000000000000000000000000000000000000000000000000000000000000000000000000000000000000000000000000000000000000000000000000000000000000000000000000000000000000000000000000000000000000000000000000000000000000000000000000000000000000000000000000000000000000000000000000000000000",
            "coinbase" : "0x2adc25665018aa1fe0e6bc666dac8fc2697ff9ba",
            "difficulty" : "0x020000",
            "extraData" : "0x42",
            "gasLimit" : "0x01c9c380",
            "gasUsed" : "0x00",
            "hash" : "0x65bfcd329bcf9af6f743f523ff7530bacc26e153a0bb4928ce7dc1455a4c2ce5",
            "mixHash" : "0x56e81f171bcc55a6ff8345e692c0f86e5b48e01b996cadc001622fb5e363b421",
            "nonce" : "0x0102030405060708",
            "number" : "0x00",
            "parentHash" : "0x0000000000000000000000000000000000000000000000000000000000000000",
            "receiptTrie" : "0x56e81f171bcc55a6ff8345e692c0f86e5b48e01b996cadc001622fb5e363b421",
            "stateRoot" : "0xd0e51486c42278c7f4814f8897083d0bbc4a25cda3f1d8d24361110a149dc05e",
            "timestamp" : "0x03b6",
            "transactionsTrie" : "0x56e81f171bcc55a6ff8345e692c0f86e5b48e01b996cadc001622fb5e363b421",
            "uncleHash" : "0x1dcc4de8dec75d7aab85b567b6ccd41ad312451b948a7413f0a142fd40d49347"
        },
        "genesisRLP" : "0xf901fbf901f6a00000000000000000000000000000000000000000000000000000000000000000a01dcc4de8dec75d7aab85b567b6ccd41ad312451b948a7413f0a142fd40d49347942adc25665018aa1fe0e6bc666dac8fc2697ff9baa0d0e51486c42278c7f4814f8897083d0bbc4a25cda3f1d8d24361110a149dc05ea056e81f171bcc55a6ff8345e692c0f86e5b48e01b996cadc001622fb5e363b421a056e81f171bcc55a6ff8345e692c0f86e5b48e01b996cadc001622fb5e363b421b901000000000000000000000000000000000000000000000000000000000000000000000000000000000000000000000000000000000000000000000000000000000000000000000000000000000000000000000000000000000000000000000000000000000000000000000000000000000000000000000000000000000000000000000000000000000000000000000000000000000000000000000000000000000000000000000000000000000000000000000000000000000000000000000000000000000000000000000000000000000000000000000000000000000000000000000000000000000000000000000000000000000000000000000000000000000083020000808401c9c380808203b642a056e81f171bcc55a6ff8345e692c0f86e5b48e01b996cadc001622fb5e363b421880102030405060708c0c0",
        "lastblockhash" : "0x5e2dc2484fef5a9314bf4ae2e70c78367c82c4019b12e0dcc2ada39ecfe923b2",
        "network" : "EIP158",
        "postState" : {
            "0x1000000000000000000000000000000000000001" : {
                "balance" : "0x02540be400",
                "code" : "0x60406000604060006000731000000000000000000000000000000000000002620186a0f2600155",
                "nonce" : "0x00",
                "storage" : {
                }
            },
            "0x1000000000000000000000000000000000000002" : {
                "balance" : "0x02540be400",
                "code" : "0x731000000000000000000000000000000000000000ff604060006040600073100000000000000000000000000000000000000361c350f4600255",
                "nonce" : "0x00",
                "storage" : {
                }
            },
            "0x1000000000000000000000000000000000000003" : {
                "balance" : "0x02540be400",
                "code" : "0x6001600355",
                "nonce" : "0x00",
                "storage" : {
                }
            },
            "0x2adc25665018aa1fe0e6bc666dac8fc2697ff9ba" : {
                "balance" : "0x4563918244f4a9c7",
                "code" : "",
                "nonce" : "0x00",
                "storage" : {
                }
            },
            "0xa94f5374fce5edbc8e2a8697c15331677e6ebf0b" : {
                "balance" : "0x0de0b6b3a7635639",
                "code" : "",
                "nonce" : "0x01",
                "storage" : {
                }
            }
        },
        "pre" : {
            "0x1000000000000000000000000000000000000000" : {
                "balance" : "0x0de0b6b3a7640000",
                "code" : "0x60406000604060006000731000000000000000000000000000000000000001620249f0f2600055",
                "nonce" : "0x00",
                "storage" : {
                }
            },
            "0x1000000000000000000000000000000000000001" : {
                "balance" : "0x02540be400",
                "code" : "0x60406000604060006000731000000000000000000000000000000000000002620186a0f2600155",
                "nonce" : "0x00",
                "storage" : {
                }
            },
            "0x1000000000000000000000000000000000000002" : {
                "balance" : "0x02540be400",
                "code" : "0x731000000000000000000000000000000000000000ff604060006040600073100000000000000000000000000000000000000361c350f4600255",
                "nonce" : "0x00",
                "storage" : {
                }
            },
            "0x1000000000000000000000000000000000000003" : {
                "balance" : "0x02540be400",
                "code" : "0x6001600355",
                "nonce" : "0x00",
                "storage" : {
                }
            },
            "0xa94f5374fce5edbc8e2a8697c15331677e6ebf0b" : {
                "balance" : "0x0de0b6b3a7640000",
                "code" : "",
                "nonce" : "0x00",
                "storage" : {
                }
            }
        }
    },
    "callcallcallcode_001_SuicideMiddle_d0g0v0_Frontier" : {
        "_info" : {
            "comment" : "",
            "filledwith" : "cpp-1.3.0+commit.6e0ce939.Linux.g++",
            "lllcversion" : "Version: 0.4.18-develop.2017.9.25+commit.a72237f2.Linux.g++",
            "source" : "src/BlockchainTestsFiller/GeneralStateTests/stCallDelegateCodesCallCodeHomestead/callcallcallcode_001_SuicideMiddle_d0g0v0Filler.json",
            "sourceHash" : "c10bbc183a8a75e04af345426d3abf7970ca3f36679986c9483735f843fb38ac"
        },
        "blocks" : [
            {
                "blockHeader" : {
                    "bloom" : "0x00000000000000000000000000000000000000000000000000000000000000000000000000000000000000000000000000000000000000000000000000000000000000000000000000000000000000000000000000000000000000000000000000000000000000000000000000000000000000000000000000000000000000000000000000000000000000000000000000000000000000000000000000000000000000000000000000000000000000000000000000000000000000000000000000000000000000000000000000000000000000000000000000000000000000000000000000000000000000000000000000000000000000000000000000000000",
                    "coinbase" : "0x2adc25665018aa1fe0e6bc666dac8fc2697ff9ba",
                    "difficulty" : "0x020000",
                    "extraData" : "",
                    "gasLimit" : "0x01c9c380",
                    "gasUsed" : "0x9117",
                    "hash" : "0x139a1591099a564b1f172bebfda473c5185a8c627178a0dfecc318decb8b4643",
                    "mixHash" : "0x878d90d334ba1304dc3d7cbbee709736bd2437dbf4b5c57cf419060e08dedfd5",
                    "nonce" : "0x2489b137e9e10033",
                    "number" : "0x01",
                    "parentHash" : "0x65bfcd329bcf9af6f743f523ff7530bacc26e153a0bb4928ce7dc1455a4c2ce5",
                    "receiptTrie" : "0x4fb0b023b94e0e6650633a5d31dae5366295c532164aee6d714bbebeb6b260f3",
                    "stateRoot" : "0xda786951fe0e580920dc66fa672f4c09f2f9961432e02ed76d602a729985bb34",
                    "timestamp" : "0x03e8",
                    "transactionsTrie" : "0x5d88595a2b9f129f2901f79a207ca2d95f38ac387707e6cb1de43679d06079d4",
                    "uncleHash" : "0x1dcc4de8dec75d7aab85b567b6ccd41ad312451b948a7413f0a142fd40d49347"
                },
                "rlp" : "0xf90260f901f8a065bfcd329bcf9af6f743f523ff7530bacc26e153a0bb4928ce7dc1455a4c2ce5a01dcc4de8dec75d7aab85b567b6ccd41ad312451b948a7413f0a142fd40d49347942adc25665018aa1fe0e6bc666dac8fc2697ff9baa0da786951fe0e580920dc66fa672f4c09f2f9961432e02ed76d602a729985bb34a05d88595a2b9f129f2901f79a207ca2d95f38ac387707e6cb1de43679d06079d4a04fb0b023b94e0e6650633a5d31dae5366295c532164aee6d714bbebeb6b260f3b901000000000000000000000000000000000000000000000000000000000000000000000000000000000000000000000000000000000000000000000000000000000000000000000000000000000000000000000000000000000000000000000000000000000000000000000000000000000000000000000000000000000000000000000000000000000000000000000000000000000000000000000000000000000000000000000000000000000000000000000000000000000000000000000000000000000000000000000000000000000000000000000000000000000000000000000000000000000000000000000000000000000000000000000000000000000083020000018401c9c3808291178203e880a0878d90d334ba1304dc3d7cbbee709736bd2437dbf4b5c57cf419060e08dedfd5882489b137e9e10033f862f8608001832dc6c094100000000000000000000000000000000000000080801ba0bc3f717090c5b3d46550833ec05cc91a3c352bd18be2c0eed5ed3e54e8af58f9a03a7d01021289eca372726c91175e4f422da3147bd3961cd66ca95f1cf3619fb2c0",
                "transactions" : [
                    {
                        "data" : "",
                        "gasLimit" : "0x2dc6c0",
                        "gasPrice" : "0x01",
                        "nonce" : "0x00",
                        "r" : "0xbc3f717090c5b3d46550833ec05cc91a3c352bd18be2c0eed5ed3e54e8af58f9",
                        "s" : "0x3a7d01021289eca372726c91175e4f422da3147bd3961cd66ca95f1cf3619fb2",
                        "to" : "0x1000000000000000000000000000000000000000",
                        "v" : "0x1b",
                        "value" : "0x00"
                    }
                ],
                "uncleHeaders" : [
                ]
            }
        ],
        "genesisBlockHeader" : {
            "bloom" : "0x00000000000000000000000000000000000000000000000000000000000000000000000000000000000000000000000000000000000000000000000000000000000000000000000000000000000000000000000000000000000000000000000000000000000000000000000000000000000000000000000000000000000000000000000000000000000000000000000000000000000000000000000000000000000000000000000000000000000000000000000000000000000000000000000000000000000000000000000000000000000000000000000000000000000000000000000000000000000000000000000000000000000000000000000000000000",
            "coinbase" : "0x2adc25665018aa1fe0e6bc666dac8fc2697ff9ba",
            "difficulty" : "0x020000",
            "extraData" : "0x42",
            "gasLimit" : "0x01c9c380",
            "gasUsed" : "0x00",
            "hash" : "0x65bfcd329bcf9af6f743f523ff7530bacc26e153a0bb4928ce7dc1455a4c2ce5",
            "mixHash" : "0x56e81f171bcc55a6ff8345e692c0f86e5b48e01b996cadc001622fb5e363b421",
            "nonce" : "0x0102030405060708",
            "number" : "0x00",
            "parentHash" : "0x0000000000000000000000000000000000000000000000000000000000000000",
            "receiptTrie" : "0x56e81f171bcc55a6ff8345e692c0f86e5b48e01b996cadc001622fb5e363b421",
            "stateRoot" : "0xd0e51486c42278c7f4814f8897083d0bbc4a25cda3f1d8d24361110a149dc05e",
            "timestamp" : "0x03b6",
            "transactionsTrie" : "0x56e81f171bcc55a6ff8345e692c0f86e5b48e01b996cadc001622fb5e363b421",
            "uncleHash" : "0x1dcc4de8dec75d7aab85b567b6ccd41ad312451b948a7413f0a142fd40d49347"
        },
        "genesisRLP" : "0xf901fbf901f6a00000000000000000000000000000000000000000000000000000000000000000a01dcc4de8dec75d7aab85b567b6ccd41ad312451b948a7413f0a142fd40d49347942adc25665018aa1fe0e6bc666dac8fc2697ff9baa0d0e51486c42278c7f4814f8897083d0bbc4a25cda3f1d8d24361110a149dc05ea056e81f171bcc55a6ff8345e692c0f86e5b48e01b996cadc001622fb5e363b421a056e81f171bcc55a6ff8345e692c0f86e5b48e01b996cadc001622fb5e363b421b901000000000000000000000000000000000000000000000000000000000000000000000000000000000000000000000000000000000000000000000000000000000000000000000000000000000000000000000000000000000000000000000000000000000000000000000000000000000000000000000000000000000000000000000000000000000000000000000000000000000000000000000000000000000000000000000000000000000000000000000000000000000000000000000000000000000000000000000000000000000000000000000000000000000000000000000000000000000000000000000000000000000000000000000000000000000083020000808401c9c380808203b642a056e81f171bcc55a6ff8345e692c0f86e5b48e01b996cadc001622fb5e363b421880102030405060708c0c0",
        "lastblockhash" : "0x139a1591099a564b1f172bebfda473c5185a8c627178a0dfecc318decb8b4643",
        "network" : "Frontier",
        "postState" : {
            "0x1000000000000000000000000000000000000001" : {
                "balance" : "0x02540be400",
                "code" : "0x60406000604060006000731000000000000000000000000000000000000002620186a0f2600155",
                "nonce" : "0x00",
                "storage" : {
                }
            },
            "0x1000000000000000000000000000000000000002" : {
                "balance" : "0x02540be400",
                "code" : "0x731000000000000000000000000000000000000000ff604060006040600073100000000000000000000000000000000000000361c350f4600255",
                "nonce" : "0x00",
                "storage" : {
                }
            },
            "0x1000000000000000000000000000000000000003" : {
                "balance" : "0x02540be400",
                "code" : "0x6001600355",
                "nonce" : "0x00",
                "storage" : {
                }
            },
            "0x2adc25665018aa1fe0e6bc666dac8fc2697ff9ba" : {
                "balance" : "0x4563918244f49117",
                "code" : "",
                "nonce" : "0x00",
                "storage" : {
                }
            },
            "0xa94f5374fce5edbc8e2a8697c15331677e6ebf0b" : {
                "balance" : "0x0de0b6b3a7636ee9",
                "code" : "",
                "nonce" : "0x01",
                "storage" : {
                }
            }
        },
        "pre" : {
            "0x1000000000000000000000000000000000000000" : {
                "balance" : "0x0de0b6b3a7640000",
                "code" : "0x60406000604060006000731000000000000000000000000000000000000001620249f0f2600055",
                "nonce" : "0x00",
                "storage" : {
                }
            },
            "0x1000000000000000000000000000000000000001" : {
                "balance" : "0x02540be400",
                "code" : "0x60406000604060006000731000000000000000000000000000000000000002620186a0f2600155",
                "nonce" : "0x00",
                "storage" : {
                }
            },
            "0x1000000000000000000000000000000000000002" : {
                "balance" : "0x02540be400",
                "code" : "0x731000000000000000000000000000000000000000ff604060006040600073100000000000000000000000000000000000000361c350f4600255",
                "nonce" : "0x00",
                "storage" : {
                }
            },
            "0x1000000000000000000000000000000000000003" : {
                "balance" : "0x02540be400",
                "code" : "0x6001600355",
                "nonce" : "0x00",
                "storage" : {
                }
            },
            "0xa94f5374fce5edbc8e2a8697c15331677e6ebf0b" : {
                "balance" : "0x0de0b6b3a7640000",
                "code" : "",
                "nonce" : "0x00",
                "storage" : {
                }
            }
        }
    },
    "callcallcallcode_001_SuicideMiddle_d0g0v0_Homestead" : {
        "_info" : {
            "comment" : "",
            "filledwith" : "cpp-1.3.0+commit.6e0ce939.Linux.g++",
            "lllcversion" : "Version: 0.4.18-develop.2017.9.25+commit.a72237f2.Linux.g++",
            "source" : "src/BlockchainTestsFiller/GeneralStateTests/stCallDelegateCodesCallCodeHomestead/callcallcallcode_001_SuicideMiddle_d0g0v0Filler.json",
            "sourceHash" : "c10bbc183a8a75e04af345426d3abf7970ca3f36679986c9483735f843fb38ac"
        },
        "blocks" : [
            {
                "blockHeader" : {
                    "bloom" : "0x00000000000000000000000000000000000000000000000000000000000000000000000000000000000000000000000000000000000000000000000000000000000000000000000000000000000000000000000000000000000000000000000000000000000000000000000000000000000000000000000000000000000000000000000000000000000000000000000000000000000000000000000000000000000000000000000000000000000000000000000000000000000000000000000000000000000000000000000000000000000000000000000000000000000000000000000000000000000000000000000000000000000000000000000000000000",
                    "coinbase" : "0x2adc25665018aa1fe0e6bc666dac8fc2697ff9ba",
                    "difficulty" : "0x020000",
                    "extraData" : "",
                    "gasLimit" : "0x01c9c380",
                    "gasUsed" : "0x9117",
                    "hash" : "0xa6b43f0ec065062ef51b0e9f17fb9ecd1ea3c34bb800b7f357c72eafaa3aa4b3",
                    "mixHash" : "0xaf4e73234ad24ba2662433356058953021e63517fd572c152b48478b526271a1",
                    "nonce" : "0xd870eedc8636bb71",
                    "number" : "0x01",
                    "parentHash" : "0x65bfcd329bcf9af6f743f523ff7530bacc26e153a0bb4928ce7dc1455a4c2ce5",
                    "receiptTrie" : "0x4fb0b023b94e0e6650633a5d31dae5366295c532164aee6d714bbebeb6b260f3",
                    "stateRoot" : "0xda786951fe0e580920dc66fa672f4c09f2f9961432e02ed76d602a729985bb34",
                    "timestamp" : "0x03e8",
                    "transactionsTrie" : "0x5d88595a2b9f129f2901f79a207ca2d95f38ac387707e6cb1de43679d06079d4",
                    "uncleHash" : "0x1dcc4de8dec75d7aab85b567b6ccd41ad312451b948a7413f0a142fd40d49347"
                },
                "rlp" : "0xf90260f901f8a065bfcd329bcf9af6f743f523ff7530bacc26e153a0bb4928ce7dc1455a4c2ce5a01dcc4de8dec75d7aab85b567b6ccd41ad312451b948a7413f0a142fd40d49347942adc25665018aa1fe0e6bc666dac8fc2697ff9baa0da786951fe0e580920dc66fa672f4c09f2f9961432e02ed76d602a729985bb34a05d88595a2b9f129f2901f79a207ca2d95f38ac387707e6cb1de43679d06079d4a04fb0b023b94e0e6650633a5d31dae5366295c532164aee6d714bbebeb6b260f3b901000000000000000000000000000000000000000000000000000000000000000000000000000000000000000000000000000000000000000000000000000000000000000000000000000000000000000000000000000000000000000000000000000000000000000000000000000000000000000000000000000000000000000000000000000000000000000000000000000000000000000000000000000000000000000000000000000000000000000000000000000000000000000000000000000000000000000000000000000000000000000000000000000000000000000000000000000000000000000000000000000000000000000000000000000000000083020000018401c9c3808291178203e880a0af4e73234ad24ba2662433356058953021e63517fd572c152b48478b526271a188d870eedc8636bb71f862f8608001832dc6c094100000000000000000000000000000000000000080801ba0bc3f717090c5b3d46550833ec05cc91a3c352bd18be2c0eed5ed3e54e8af58f9a03a7d01021289eca372726c91175e4f422da3147bd3961cd66ca95f1cf3619fb2c0",
                "transactions" : [
                    {
                        "data" : "",
                        "gasLimit" : "0x2dc6c0",
                        "gasPrice" : "0x01",
                        "nonce" : "0x00",
                        "r" : "0xbc3f717090c5b3d46550833ec05cc91a3c352bd18be2c0eed5ed3e54e8af58f9",
                        "s" : "0x3a7d01021289eca372726c91175e4f422da3147bd3961cd66ca95f1cf3619fb2",
                        "to" : "0x1000000000000000000000000000000000000000",
                        "v" : "0x1b",
                        "value" : "0x00"
                    }
                ],
                "uncleHeaders" : [
                ]
            }
        ],
        "genesisBlockHeader" : {
            "bloom" : "0x00000000000000000000000000000000000000000000000000000000000000000000000000000000000000000000000000000000000000000000000000000000000000000000000000000000000000000000000000000000000000000000000000000000000000000000000000000000000000000000000000000000000000000000000000000000000000000000000000000000000000000000000000000000000000000000000000000000000000000000000000000000000000000000000000000000000000000000000000000000000000000000000000000000000000000000000000000000000000000000000000000000000000000000000000000000",
            "coinbase" : "0x2adc25665018aa1fe0e6bc666dac8fc2697ff9ba",
            "difficulty" : "0x020000",
            "extraData" : "0x42",
            "gasLimit" : "0x01c9c380",
            "gasUsed" : "0x00",
            "hash" : "0x65bfcd329bcf9af6f743f523ff7530bacc26e153a0bb4928ce7dc1455a4c2ce5",
            "mixHash" : "0x56e81f171bcc55a6ff8345e692c0f86e5b48e01b996cadc001622fb5e363b421",
            "nonce" : "0x0102030405060708",
            "number" : "0x00",
            "parentHash" : "0x0000000000000000000000000000000000000000000000000000000000000000",
            "receiptTrie" : "0x56e81f171bcc55a6ff8345e692c0f86e5b48e01b996cadc001622fb5e363b421",
            "stateRoot" : "0xd0e51486c42278c7f4814f8897083d0bbc4a25cda3f1d8d24361110a149dc05e",
            "timestamp" : "0x03b6",
            "transactionsTrie" : "0x56e81f171bcc55a6ff8345e692c0f86e5b48e01b996cadc001622fb5e363b421",
            "uncleHash" : "0x1dcc4de8dec75d7aab85b567b6ccd41ad312451b948a7413f0a142fd40d49347"
        },
        "genesisRLP" : "0xf901fbf901f6a00000000000000000000000000000000000000000000000000000000000000000a01dcc4de8dec75d7aab85b567b6ccd41ad312451b948a7413f0a142fd40d49347942adc25665018aa1fe0e6bc666dac8fc2697ff9baa0d0e51486c42278c7f4814f8897083d0bbc4a25cda3f1d8d24361110a149dc05ea056e81f171bcc55a6ff8345e692c0f86e5b48e01b996cadc001622fb5e363b421a056e81f171bcc55a6ff8345e692c0f86e5b48e01b996cadc001622fb5e363b421b901000000000000000000000000000000000000000000000000000000000000000000000000000000000000000000000000000000000000000000000000000000000000000000000000000000000000000000000000000000000000000000000000000000000000000000000000000000000000000000000000000000000000000000000000000000000000000000000000000000000000000000000000000000000000000000000000000000000000000000000000000000000000000000000000000000000000000000000000000000000000000000000000000000000000000000000000000000000000000000000000000000000000000000000000000000000083020000808401c9c380808203b642a056e81f171bcc55a6ff8345e692c0f86e5b48e01b996cadc001622fb5e363b421880102030405060708c0c0",
        "lastblockhash" : "0xa6b43f0ec065062ef51b0e9f17fb9ecd1ea3c34bb800b7f357c72eafaa3aa4b3",
        "network" : "Homestead",
        "postState" : {
            "0x1000000000000000000000000000000000000001" : {
                "balance" : "0x02540be400",
                "code" : "0x60406000604060006000731000000000000000000000000000000000000002620186a0f2600155",
                "nonce" : "0x00",
                "storage" : {
                }
            },
            "0x1000000000000000000000000000000000000002" : {
                "balance" : "0x02540be400",
                "code" : "0x731000000000000000000000000000000000000000ff604060006040600073100000000000000000000000000000000000000361c350f4600255",
                "nonce" : "0x00",
                "storage" : {
                }
            },
            "0x1000000000000000000000000000000000000003" : {
                "balance" : "0x02540be400",
                "code" : "0x6001600355",
                "nonce" : "0x00",
                "storage" : {
                }
            },
            "0x2adc25665018aa1fe0e6bc666dac8fc2697ff9ba" : {
                "balance" : "0x4563918244f49117",
                "code" : "",
                "nonce" : "0x00",
                "storage" : {
                }
            },
            "0xa94f5374fce5edbc8e2a8697c15331677e6ebf0b" : {
                "balance" : "0x0de0b6b3a7636ee9",
                "code" : "",
                "nonce" : "0x01",
                "storage" : {
                }
            }
        },
        "pre" : {
            "0x1000000000000000000000000000000000000000" : {
                "balance" : "0x0de0b6b3a7640000",
                "code" : "0x60406000604060006000731000000000000000000000000000000000000001620249f0f2600055",
                "nonce" : "0x00",
                "storage" : {
                }
            },
            "0x1000000000000000000000000000000000000001" : {
                "balance" : "0x02540be400",
                "code" : "0x60406000604060006000731000000000000000000000000000000000000002620186a0f2600155",
                "nonce" : "0x00",
                "storage" : {
                }
            },
            "0x1000000000000000000000000000000000000002" : {
                "balance" : "0x02540be400",
                "code" : "0x731000000000000000000000000000000000000000ff604060006040600073100000000000000000000000000000000000000361c350f4600255",
                "nonce" : "0x00",
                "storage" : {
                }
            },
            "0x1000000000000000000000000000000000000003" : {
                "balance" : "0x02540be400",
                "code" : "0x6001600355",
                "nonce" : "0x00",
                "storage" : {
                }
            },
            "0xa94f5374fce5edbc8e2a8697c15331677e6ebf0b" : {
                "balance" : "0x0de0b6b3a7640000",
                "code" : "",
                "nonce" : "0x00",
                "storage" : {
                }
            }
        }
    }
}