{
    "CallGoesOOGOnSecondLevelWithMemExpandingCalls_d0g0v0_Byzantium" : {
        "_info" : {
            "comment" : "",
            "filledwith" : "cpp-1.3.0+commit.6e0ce939.Linux.g++",
            "lllcversion" : "Version: 0.4.18-develop.2017.9.25+commit.a72237f2.Linux.g++",
            "source" : "src/BlockchainTestsFiller/GeneralStateTests/stMemExpandingEIP150Calls/CallGoesOOGOnSecondLevelWithMemExpandingCalls_d0g0v0Filler.json",
            "sourceHash" : "8a304e48616a5fb70b55285ffc6a2d6f0108795204285da684daae05c708e597"
        },
        "blocks" : [
            {
                "blockHeader" : {
                    "bloom" : "0x00000000000000000000000000000000000000000000000000000000000000000000000000000000000000000000000000000000000000000000000000000000000000000000000000000000000000000000000000000000000000000000000000000000000000000000000000000000000000000000000000000000000000000000000000000000000000000000000000000000000000000000000000000000000000000000000000000000000000000000000000000000000000000000000000000000000000000000000000000000000000000000000000000000000000000000000000000000000000000000000000000000000000000000000000000000",
                    "coinbase" : "0x2adc25665018aa1fe0e6bc666dac8fc2697ff9ba",
                    "difficulty" : "0x020000",
                    "extraData" : "",
                    "gasLimit" : "0x989680",
                    "gasUsed" : "0x035b60",
                    "hash" : "0x0774f61f3d696b9aee3fc70f490b17d18f49939ac6274f47cf0c8c16c6cbe5b4",
                    "mixHash" : "0x78b507eb9f8b9146180f15ce5b38225accb23466ff92a1a40088bad14b92be4f",
                    "nonce" : "0x8ef65d05b6a8c593",
                    "number" : "0x01",
                    "parentHash" : "0x40e989adb8c32ef72ae0a33ea2292124bd9f71cd1b1b85e68ff3ee61e479b6b9",
                    "receiptTrie" : "0xbc509029849afaf54cf15e3aa49d1facdba9d1e5cb03029f91f40c7ee0f456ae",
                    "stateRoot" : "0xc35d724a71c61523d030cb04df41e3e4dd7459ea2b67f9f5cb2bd4e199b07522",
                    "timestamp" : "0x03e8",
                    "transactionsTrie" : "0x778299110270c362288957e29ef88d9c7315bacd67359f9f8c03f6ffe6b79ec3",
                    "uncleHash" : "0x1dcc4de8dec75d7aab85b567b6ccd41ad312451b948a7413f0a142fd40d49347"
                },
                "rlp" : "0xf90260f901f8a040e989adb8c32ef72ae0a33ea2292124bd9f71cd1b1b85e68ff3ee61e479b6b9a01dcc4de8dec75d7aab85b567b6ccd41ad312451b948a7413f0a142fd40d49347942adc25665018aa1fe0e6bc666dac8fc2697ff9baa0c35d724a71c61523d030cb04df41e3e4dd7459ea2b67f9f5cb2bd4e199b07522a0778299110270c362288957e29ef88d9c7315bacd67359f9f8c03f6ffe6b79ec3a0bc509029849afaf54cf15e3aa49d1facdba9d1e5cb03029f91f40c7ee0f456aeb901000000000000000000000000000000000000000000000000000000000000000000000000000000000000000000000000000000000000000000000000000000000000000000000000000000000000000000000000000000000000000000000000000000000000000000000000000000000000000000000000000000000000000000000000000000000000000000000000000000000000000000000000000000000000000000000000000000000000000000000000000000000000000000000000000000000000000000000000000000000000000000000000000000000000000000000000000000000000000000000000000000000000000000000000000000000083020000018398968083035b608203e880a078b507eb9f8b9146180f15ce5b38225accb23466ff92a1a40088bad14b92be4f888ef65d05b6a8c593f862f860800183035b6094b94f5374fce5edbc8e2a8697c15331677e6ebf0b80801ba0847209ee699a77891570bb06744dd6075a828587c935e45dfb023c2b3a95a5c6a031e90653d76ee3cc7651b1964b207777f83768aaf80ac05c8304e134c636bc36c0",
                "transactions" : [
                    {
                        "data" : "",
                        "gasLimit" : "0x035b60",
                        "gasPrice" : "0x01",
                        "nonce" : "0x00",
                        "r" : "0x847209ee699a77891570bb06744dd6075a828587c935e45dfb023c2b3a95a5c6",
                        "s" : "0x31e90653d76ee3cc7651b1964b207777f83768aaf80ac05c8304e134c636bc36",
                        "to" : "0xb94f5374fce5edbc8e2a8697c15331677e6ebf0b",
                        "v" : "0x1b",
                        "value" : "0x00"
                    }
                ],
                "uncleHeaders" : [
                ]
            }
        ],
        "genesisBlockHeader" : {
            "bloom" : "0x00000000000000000000000000000000000000000000000000000000000000000000000000000000000000000000000000000000000000000000000000000000000000000000000000000000000000000000000000000000000000000000000000000000000000000000000000000000000000000000000000000000000000000000000000000000000000000000000000000000000000000000000000000000000000000000000000000000000000000000000000000000000000000000000000000000000000000000000000000000000000000000000000000000000000000000000000000000000000000000000000000000000000000000000000000000",
            "coinbase" : "0x2adc25665018aa1fe0e6bc666dac8fc2697ff9ba",
            "difficulty" : "0x020000",
            "extraData" : "0x42",
            "gasLimit" : "0x989680",
            "gasUsed" : "0x00",
            "hash" : "0x40e989adb8c32ef72ae0a33ea2292124bd9f71cd1b1b85e68ff3ee61e479b6b9",
            "mixHash" : "0x56e81f171bcc55a6ff8345e692c0f86e5b48e01b996cadc001622fb5e363b421",
            "nonce" : "0x0102030405060708",
            "number" : "0x00",
            "parentHash" : "0x0000000000000000000000000000000000000000000000000000000000000000",
            "receiptTrie" : "0x56e81f171bcc55a6ff8345e692c0f86e5b48e01b996cadc001622fb5e363b421",
            "stateRoot" : "0x297fdd0d67c8bd5e3ff4c3375bb704571bc8d7beb6106bdcc9683b8c4d21183a",
            "timestamp" : "0x03b6",
            "transactionsTrie" : "0x56e81f171bcc55a6ff8345e692c0f86e5b48e01b996cadc001622fb5e363b421",
            "uncleHash" : "0x1dcc4de8dec75d7aab85b567b6ccd41ad312451b948a7413f0a142fd40d49347"
        },
        "genesisRLP" : "0xf901faf901f5a00000000000000000000000000000000000000000000000000000000000000000a01dcc4de8dec75d7aab85b567b6ccd41ad312451b948a7413f0a142fd40d49347942adc25665018aa1fe0e6bc666dac8fc2697ff9baa0297fdd0d67c8bd5e3ff4c3375bb704571bc8d7beb6106bdcc9683b8c4d21183aa056e81f171bcc55a6ff8345e692c0f86e5b48e01b996cadc001622fb5e363b421a056e81f171bcc55a6ff8345e692c0f86e5b48e01b996cadc001622fb5e363b421b9010000000000000000000000000000000000000000000000000000000000000000000000000000000000000000000000000000000000000000000000000000000000000000000000000000000000000000000000000000000000000000000000000000000000000000000000000000000000000000000000000000000000000000000000000000000000000000000000000000000000000000000000000000000000000000000000000000000000000000000000000000000000000000000000000000000000000000000000000000000000000000000000000000000000000000000000000000000000000000000000000000000000000000000000000000000000830200008083989680808203b642a056e81f171bcc55a6ff8345e692c0f86e5b48e01b996cadc001622fb5e363b421880102030405060708c0c0",
        "lastblockhash" : "0x0774f61f3d696b9aee3fc70f490b17d18f49939ac6274f47cf0c8c16c6cbe5b4",
        "network" : "Byzantium",
        "postState" : {
            "0x1000000000000000000000000000000000000110" : {
                "balance" : "0x00",
                "code" : "0x5a60085560ff60ff60ff60ff6000731000000000000000000000000000000000000111620927c0f1600955",
                "nonce" : "0x00",
                "storage" : {
                }
            },
            "0x1000000000000000000000000000000000000111" : {
                "balance" : "0x00",
                "code" : "0x5a600855600060006000f050600060006000f0505a6009555a600a55",
                "nonce" : "0x00",
                "storage" : {
                }
            },
            "0x2adc25665018aa1fe0e6bc666dac8fc2697ff9ba" : {
                "balance" : "0x29a2241af62f5b60",
                "code" : "",
                "nonce" : "0x00",
                "storage" : {
                }
            },
            "0xa94f5374fce5edbc8e2a8697c15331677e6ebf0b" : {
                "balance" : "0xe8d4a1b4a0",
                "code" : "",
                "nonce" : "0x01",
                "storage" : {
                }
            },
            "0xb94f5374fce5edbc8e2a8697c15331677e6ebf0b" : {
                "balance" : "0x00",
                "code" : "0x5a60085560ff60ff60ff60ff6000731000000000000000000000000000000000000110620927c0f1600955",
                "nonce" : "0x00",
                "storage" : {
                }
            }
        },
        "pre" : {
            "0x1000000000000000000000000000000000000110" : {
                "balance" : "0x00",
                "code" : "0x5a60085560ff60ff60ff60ff6000731000000000000000000000000000000000000111620927c0f1600955",
                "nonce" : "0x00",
                "storage" : {
                }
            },
            "0x1000000000000000000000000000000000000111" : {
                "balance" : "0x00",
                "code" : "0x5a600855600060006000f050600060006000f0505a6009555a600a55",
                "nonce" : "0x00",
                "storage" : {
                }
            },
            "0xa94f5374fce5edbc8e2a8697c15331677e6ebf0b" : {
                "balance" : "0xe8d4a51000",
                "code" : "",
                "nonce" : "0x00",
                "storage" : {
                }
            },
            "0xb94f5374fce5edbc8e2a8697c15331677e6ebf0b" : {
                "balance" : "0x00",
                "code" : "0x5a60085560ff60ff60ff60ff6000731000000000000000000000000000000000000110620927c0f1600955",
                "nonce" : "0x00",
                "storage" : {
                }
            }
        }
    },
    "CallGoesOOGOnSecondLevelWithMemExpandingCalls_d0g0v0_EIP150" : {
        "_info" : {
            "comment" : "",
            "filledwith" : "cpp-1.3.0+commit.6e0ce939.Linux.g++",
            "lllcversion" : "Version: 0.4.18-develop.2017.9.25+commit.a72237f2.Linux.g++",
            "source" : "src/BlockchainTestsFiller/GeneralStateTests/stMemExpandingEIP150Calls/CallGoesOOGOnSecondLevelWithMemExpandingCalls_d0g0v0Filler.json",
            "sourceHash" : "8a304e48616a5fb70b55285ffc6a2d6f0108795204285da684daae05c708e597"
        },
        "blocks" : [
            {
                "blockHeader" : {
                    "bloom" : "0x00000000000000000000000000000000000000000000000000000000000000000000000000000000000000000000000000000000000000000000000000000000000000000000000000000000000000000000000000000000000000000000000000000000000000000000000000000000000000000000000000000000000000000000000000000000000000000000000000000000000000000000000000000000000000000000000000000000000000000000000000000000000000000000000000000000000000000000000000000000000000000000000000000000000000000000000000000000000000000000000000000000000000000000000000000000",
                    "coinbase" : "0x2adc25665018aa1fe0e6bc666dac8fc2697ff9ba",
                    "difficulty" : "0x020000",
                    "extraData" : "",
                    "gasLimit" : "0x989680",
                    "gasUsed" : "0x035b60",
                    "hash" : "0x853dfd7d5514d93fc4cb56495f2f7a99463cc08aa465e6d261d5d8343099dc40",
                    "mixHash" : "0x88a4cddad2fb48b0256fca4f510a5237b31b6daf2898d7f1879b2804e972b398",
                    "nonce" : "0x3229e35c9ae82858",
                    "number" : "0x01",
                    "parentHash" : "0x40e989adb8c32ef72ae0a33ea2292124bd9f71cd1b1b85e68ff3ee61e479b6b9",
                    "receiptTrie" : "0x6476d9670d5389f0d8cd1a6fb2e035f4e54b32a27518e4ed8238f9a9c3aaa296",
                    "stateRoot" : "0xde723f3eb98f34d4421f21a99583d413bcbf67a38b3f53df625eacf70431392e",
                    "timestamp" : "0x03e8",
                    "transactionsTrie" : "0x778299110270c362288957e29ef88d9c7315bacd67359f9f8c03f6ffe6b79ec3",
                    "uncleHash" : "0x1dcc4de8dec75d7aab85b567b6ccd41ad312451b948a7413f0a142fd40d49347"
                },
                "rlp" : "0xf90260f901f8a040e989adb8c32ef72ae0a33ea2292124bd9f71cd1b1b85e68ff3ee61e479b6b9a01dcc4de8dec75d7aab85b567b6ccd41ad312451b948a7413f0a142fd40d49347942adc25665018aa1fe0e6bc666dac8fc2697ff9baa0de723f3eb98f34d4421f21a99583d413bcbf67a38b3f53df625eacf70431392ea0778299110270c362288957e29ef88d9c7315bacd67359f9f8c03f6ffe6b79ec3a06476d9670d5389f0d8cd1a6fb2e035f4e54b32a27518e4ed8238f9a9c3aaa296b901000000000000000000000000000000000000000000000000000000000000000000000000000000000000000000000000000000000000000000000000000000000000000000000000000000000000000000000000000000000000000000000000000000000000000000000000000000000000000000000000000000000000000000000000000000000000000000000000000000000000000000000000000000000000000000000000000000000000000000000000000000000000000000000000000000000000000000000000000000000000000000000000000000000000000000000000000000000000000000000000000000000000000000000000000000000083020000018398968083035b608203e880a088a4cddad2fb48b0256fca4f510a5237b31b6daf2898d7f1879b2804e972b398883229e35c9ae82858f862f860800183035b6094b94f5374fce5edbc8e2a8697c15331677e6ebf0b80801ba0847209ee699a77891570bb06744dd6075a828587c935e45dfb023c2b3a95a5c6a031e90653d76ee3cc7651b1964b207777f83768aaf80ac05c8304e134c636bc36c0",
                "transactions" : [
                    {
                        "data" : "",
                        "gasLimit" : "0x035b60",
                        "gasPrice" : "0x01",
                        "nonce" : "0x00",
                        "r" : "0x847209ee699a77891570bb06744dd6075a828587c935e45dfb023c2b3a95a5c6",
                        "s" : "0x31e90653d76ee3cc7651b1964b207777f83768aaf80ac05c8304e134c636bc36",
                        "to" : "0xb94f5374fce5edbc8e2a8697c15331677e6ebf0b",
                        "v" : "0x1b",
                        "value" : "0x00"
                    }
                ],
                "uncleHeaders" : [
                ]
            }
        ],
        "genesisBlockHeader" : {
            "bloom" : "0x00000000000000000000000000000000000000000000000000000000000000000000000000000000000000000000000000000000000000000000000000000000000000000000000000000000000000000000000000000000000000000000000000000000000000000000000000000000000000000000000000000000000000000000000000000000000000000000000000000000000000000000000000000000000000000000000000000000000000000000000000000000000000000000000000000000000000000000000000000000000000000000000000000000000000000000000000000000000000000000000000000000000000000000000000000000",
            "coinbase" : "0x2adc25665018aa1fe0e6bc666dac8fc2697ff9ba",
            "difficulty" : "0x020000",
            "extraData" : "0x42",
            "gasLimit" : "0x989680",
            "gasUsed" : "0x00",
            "hash" : "0x40e989adb8c32ef72ae0a33ea2292124bd9f71cd1b1b85e68ff3ee61e479b6b9",
            "mixHash" : "0x56e81f171bcc55a6ff8345e692c0f86e5b48e01b996cadc001622fb5e363b421",
            "nonce" : "0x0102030405060708",
            "number" : "0x00",
            "parentHash" : "0x0000000000000000000000000000000000000000000000000000000000000000",
            "receiptTrie" : "0x56e81f171bcc55a6ff8345e692c0f86e5b48e01b996cadc001622fb5e363b421",
            "stateRoot" : "0x297fdd0d67c8bd5e3ff4c3375bb704571bc8d7beb6106bdcc9683b8c4d21183a",
            "timestamp" : "0x03b6",
            "transactionsTrie" : "0x56e81f171bcc55a6ff8345e692c0f86e5b48e01b996cadc001622fb5e363b421",
            "uncleHash" : "0x1dcc4de8dec75d7aab85b567b6ccd41ad312451b948a7413f0a142fd40d49347"
        },
        "genesisRLP" : "0xf901faf901f5a00000000000000000000000000000000000000000000000000000000000000000a01dcc4de8dec75d7aab85b567b6ccd41ad312451b948a7413f0a142fd40d49347942adc25665018aa1fe0e6bc666dac8fc2697ff9baa0297fdd0d67c8bd5e3ff4c3375bb704571bc8d7beb6106bdcc9683b8c4d21183aa056e81f171bcc55a6ff8345e692c0f86e5b48e01b996cadc001622fb5e363b421a056e81f171bcc55a6ff8345e692c0f86e5b48e01b996cadc001622fb5e363b421b9010000000000000000000000000000000000000000000000000000000000000000000000000000000000000000000000000000000000000000000000000000000000000000000000000000000000000000000000000000000000000000000000000000000000000000000000000000000000000000000000000000000000000000000000000000000000000000000000000000000000000000000000000000000000000000000000000000000000000000000000000000000000000000000000000000000000000000000000000000000000000000000000000000000000000000000000000000000000000000000000000000000000000000000000000000000000830200008083989680808203b642a056e81f171bcc55a6ff8345e692c0f86e5b48e01b996cadc001622fb5e363b421880102030405060708c0c0",
        "lastblockhash" : "0x853dfd7d5514d93fc4cb56495f2f7a99463cc08aa465e6d261d5d8343099dc40",
        "network" : "EIP150",
        "postState" : {
            "0x1000000000000000000000000000000000000110" : {
                "balance" : "0x00",
                "code" : "0x5a60085560ff60ff60ff60ff6000731000000000000000000000000000000000000111620927c0f1600955",
                "nonce" : "0x00",
                "storage" : {
                }
            },
            "0x1000000000000000000000000000000000000111" : {
                "balance" : "0x00",
                "code" : "0x5a600855600060006000f050600060006000f0505a6009555a600a55",
                "nonce" : "0x00",
                "storage" : {
                }
            },
            "0x2adc25665018aa1fe0e6bc666dac8fc2697ff9ba" : {
                "balance" : "0x4563918244f75b60",
                "code" : "",
                "nonce" : "0x00",
                "storage" : {
                }
            },
            "0xa94f5374fce5edbc8e2a8697c15331677e6ebf0b" : {
                "balance" : "0xe8d4a1b4a0",
                "code" : "",
                "nonce" : "0x01",
                "storage" : {
                }
            },
            "0xb94f5374fce5edbc8e2a8697c15331677e6ebf0b" : {
                "balance" : "0x00",
                "code" : "0x5a60085560ff60ff60ff60ff6000731000000000000000000000000000000000000110620927c0f1600955",
                "nonce" : "0x00",
                "storage" : {
                }
            }
        },
        "pre" : {
            "0x1000000000000000000000000000000000000110" : {
                "balance" : "0x00",
                "code" : "0x5a60085560ff60ff60ff60ff6000731000000000000000000000000000000000000111620927c0f1600955",
                "nonce" : "0x00",
                "storage" : {
                }
            },
            "0x1000000000000000000000000000000000000111" : {
                "balance" : "0x00",
                "code" : "0x5a600855600060006000f050600060006000f0505a6009555a600a55",
                "nonce" : "0x00",
                "storage" : {
                }
            },
            "0xa94f5374fce5edbc8e2a8697c15331677e6ebf0b" : {
                "balance" : "0xe8d4a51000",
                "code" : "",
                "nonce" : "0x00",
                "storage" : {
                }
            },
            "0xb94f5374fce5edbc8e2a8697c15331677e6ebf0b" : {
                "balance" : "0x00",
                "code" : "0x5a60085560ff60ff60ff60ff6000731000000000000000000000000000000000000110620927c0f1600955",
                "nonce" : "0x00",
                "storage" : {
                }
            }
        }
    },
    "CallGoesOOGOnSecondLevelWithMemExpandingCalls_d0g0v0_EIP158" : {
        "_info" : {
            "comment" : "",
            "filledwith" : "cpp-1.3.0+commit.6e0ce939.Linux.g++",
            "lllcversion" : "Version: 0.4.18-develop.2017.9.25+commit.a72237f2.Linux.g++",
            "source" : "src/BlockchainTestsFiller/GeneralStateTests/stMemExpandingEIP150Calls/CallGoesOOGOnSecondLevelWithMemExpandingCalls_d0g0v0Filler.json",
            "sourceHash" : "8a304e48616a5fb70b55285ffc6a2d6f0108795204285da684daae05c708e597"
        },
        "blocks" : [
            {
                "blockHeader" : {
                    "bloom" : "0x00000000000000000000000000000000000000000000000000000000000000000000000000000000000000000000000000000000000000000000000000000000000000000000000000000000000000000000000000000000000000000000000000000000000000000000000000000000000000000000000000000000000000000000000000000000000000000000000000000000000000000000000000000000000000000000000000000000000000000000000000000000000000000000000000000000000000000000000000000000000000000000000000000000000000000000000000000000000000000000000000000000000000000000000000000000",
                    "coinbase" : "0x2adc25665018aa1fe0e6bc666dac8fc2697ff9ba",
                    "difficulty" : "0x020000",
                    "extraData" : "",
                    "gasLimit" : "0x989680",
                    "gasUsed" : "0x035b60",
                    "hash" : "0x1696e43343de27dbf9dab2c22842f1d5bcea09cd1f2d9a2a254bba6511b2b034",
                    "mixHash" : "0xad390882fb375a27ebaf97770695c820dbc6250a0ba22a014981c866fdf754d8",
                    "nonce" : "0x85012517646dee2a",
                    "number" : "0x01",
                    "parentHash" : "0x40e989adb8c32ef72ae0a33ea2292124bd9f71cd1b1b85e68ff3ee61e479b6b9",
                    "receiptTrie" : "0x6476d9670d5389f0d8cd1a6fb2e035f4e54b32a27518e4ed8238f9a9c3aaa296",
                    "stateRoot" : "0xde723f3eb98f34d4421f21a99583d413bcbf67a38b3f53df625eacf70431392e",
                    "timestamp" : "0x03e8",
                    "transactionsTrie" : "0x778299110270c362288957e29ef88d9c7315bacd67359f9f8c03f6ffe6b79ec3",
                    "uncleHash" : "0x1dcc4de8dec75d7aab85b567b6ccd41ad312451b948a7413f0a142fd40d49347"
                },
                "rlp" : "0xf90260f901f8a040e989adb8c32ef72ae0a33ea2292124bd9f71cd1b1b85e68ff3ee61e479b6b9a01dcc4de8dec75d7aab85b567b6ccd41ad312451b948a7413f0a142fd40d49347942adc25665018aa1fe0e6bc666dac8fc2697ff9baa0de723f3eb98f34d4421f21a99583d413bcbf67a38b3f53df625eacf70431392ea0778299110270c362288957e29ef88d9c7315bacd67359f9f8c03f6ffe6b79ec3a06476d9670d5389f0d8cd1a6fb2e035f4e54b32a27518e4ed8238f9a9c3aaa296b901000000000000000000000000000000000000000000000000000000000000000000000000000000000000000000000000000000000000000000000000000000000000000000000000000000000000000000000000000000000000000000000000000000000000000000000000000000000000000000000000000000000000000000000000000000000000000000000000000000000000000000000000000000000000000000000000000000000000000000000000000000000000000000000000000000000000000000000000000000000000000000000000000000000000000000000000000000000000000000000000000000000000000000000000000000000083020000018398968083035b608203e880a0ad390882fb375a27ebaf97770695c820dbc6250a0ba22a014981c866fdf754d88885012517646dee2af862f860800183035b6094b94f5374fce5edbc8e2a8697c15331677e6ebf0b80801ba0847209ee699a77891570bb06744dd6075a828587c935e45dfb023c2b3a95a5c6a031e90653d76ee3cc7651b1964b207777f83768aaf80ac05c8304e134c636bc36c0",
                "transactions" : [
                    {
                        "data" : "",
                        "gasLimit" : "0x035b60",
                        "gasPrice" : "0x01",
                        "nonce" : "0x00",
                        "r" : "0x847209ee699a77891570bb06744dd6075a828587c935e45dfb023c2b3a95a5c6",
                        "s" : "0x31e90653d76ee3cc7651b1964b207777f83768aaf80ac05c8304e134c636bc36",
                        "to" : "0xb94f5374fce5edbc8e2a8697c15331677e6ebf0b",
                        "v" : "0x1b",
                        "value" : "0x00"
                    }
                ],
                "uncleHeaders" : [
                ]
            }
        ],
        "genesisBlockHeader" : {
            "bloom" : "0x00000000000000000000000000000000000000000000000000000000000000000000000000000000000000000000000000000000000000000000000000000000000000000000000000000000000000000000000000000000000000000000000000000000000000000000000000000000000000000000000000000000000000000000000000000000000000000000000000000000000000000000000000000000000000000000000000000000000000000000000000000000000000000000000000000000000000000000000000000000000000000000000000000000000000000000000000000000000000000000000000000000000000000000000000000000",
            "coinbase" : "0x2adc25665018aa1fe0e6bc666dac8fc2697ff9ba",
            "difficulty" : "0x020000",
            "extraData" : "0x42",
            "gasLimit" : "0x989680",
            "gasUsed" : "0x00",
            "hash" : "0x40e989adb8c32ef72ae0a33ea2292124bd9f71cd1b1b85e68ff3ee61e479b6b9",
            "mixHash" : "0x56e81f171bcc55a6ff8345e692c0f86e5b48e01b996cadc001622fb5e363b421",
            "nonce" : "0x0102030405060708",
            "number" : "0x00",
            "parentHash" : "0x0000000000000000000000000000000000000000000000000000000000000000",
            "receiptTrie" : "0x56e81f171bcc55a6ff8345e692c0f86e5b48e01b996cadc001622fb5e363b421",
            "stateRoot" : "0x297fdd0d67c8bd5e3ff4c3375bb704571bc8d7beb6106bdcc9683b8c4d21183a",
            "timestamp" : "0x03b6",
            "transactionsTrie" : "0x56e81f171bcc55a6ff8345e692c0f86e5b48e01b996cadc001622fb5e363b421",
            "uncleHash" : "0x1dcc4de8dec75d7aab85b567b6ccd41ad312451b948a7413f0a142fd40d49347"
        },
        "genesisRLP" : "0xf901faf901f5a00000000000000000000000000000000000000000000000000000000000000000a01dcc4de8dec75d7aab85b567b6ccd41ad312451b948a7413f0a142fd40d49347942adc25665018aa1fe0e6bc666dac8fc2697ff9baa0297fdd0d67c8bd5e3ff4c3375bb704571bc8d7beb6106bdcc9683b8c4d21183aa056e81f171bcc55a6ff8345e692c0f86e5b48e01b996cadc001622fb5e363b421a056e81f171bcc55a6ff8345e692c0f86e5b48e01b996cadc001622fb5e363b421b9010000000000000000000000000000000000000000000000000000000000000000000000000000000000000000000000000000000000000000000000000000000000000000000000000000000000000000000000000000000000000000000000000000000000000000000000000000000000000000000000000000000000000000000000000000000000000000000000000000000000000000000000000000000000000000000000000000000000000000000000000000000000000000000000000000000000000000000000000000000000000000000000000000000000000000000000000000000000000000000000000000000000000000000000000000000000830200008083989680808203b642a056e81f171bcc55a6ff8345e692c0f86e5b48e01b996cadc001622fb5e363b421880102030405060708c0c0",
        "lastblockhash" : "0x1696e43343de27dbf9dab2c22842f1d5bcea09cd1f2d9a2a254bba6511b2b034",
        "network" : "EIP158",
        "postState" : {
            "0x1000000000000000000000000000000000000110" : {
                "balance" : "0x00",
                "code" : "0x5a60085560ff60ff60ff60ff6000731000000000000000000000000000000000000111620927c0f1600955",
                "nonce" : "0x00",
                "storage" : {
                }
            },
            "0x1000000000000000000000000000000000000111" : {
                "balance" : "0x00",
                "code" : "0x5a600855600060006000f050600060006000f0505a6009555a600a55",
                "nonce" : "0x00",
                "storage" : {
                }
            },
            "0x2adc25665018aa1fe0e6bc666dac8fc2697ff9ba" : {
                "balance" : "0x4563918244f75b60",
                "code" : "",
                "nonce" : "0x00",
                "storage" : {
                }
            },
            "0xa94f5374fce5edbc8e2a8697c15331677e6ebf0b" : {
                "balance" : "0xe8d4a1b4a0",
                "code" : "",
                "nonce" : "0x01",
                "storage" : {
                }
            },
            "0xb94f5374fce5edbc8e2a8697c15331677e6ebf0b" : {
                "balance" : "0x00",
                "code" : "0x5a60085560ff60ff60ff60ff6000731000000000000000000000000000000000000110620927c0f1600955",
                "nonce" : "0x00",
                "storage" : {
                }
            }
        },
        "pre" : {
            "0x1000000000000000000000000000000000000110" : {
                "balance" : "0x00",
                "code" : "0x5a60085560ff60ff60ff60ff6000731000000000000000000000000000000000000111620927c0f1600955",
                "nonce" : "0x00",
                "storage" : {
                }
            },
            "0x1000000000000000000000000000000000000111" : {
                "balance" : "0x00",
                "code" : "0x5a600855600060006000f050600060006000f0505a6009555a600a55",
                "nonce" : "0x00",
                "storage" : {
                }
            },
            "0xa94f5374fce5edbc8e2a8697c15331677e6ebf0b" : {
                "balance" : "0xe8d4a51000",
                "code" : "",
                "nonce" : "0x00",
                "storage" : {
                }
            },
            "0xb94f5374fce5edbc8e2a8697c15331677e6ebf0b" : {
                "balance" : "0x00",
                "code" : "0x5a60085560ff60ff60ff60ff6000731000000000000000000000000000000000000110620927c0f1600955",
                "nonce" : "0x00",
                "storage" : {
                }
            }
        }
    },
    "CallGoesOOGOnSecondLevelWithMemExpandingCalls_d0g0v0_Frontier" : {
        "_info" : {
            "comment" : "",
            "filledwith" : "cpp-1.3.0+commit.6e0ce939.Linux.g++",
            "lllcversion" : "Version: 0.4.18-develop.2017.9.25+commit.a72237f2.Linux.g++",
            "source" : "src/BlockchainTestsFiller/GeneralStateTests/stMemExpandingEIP150Calls/CallGoesOOGOnSecondLevelWithMemExpandingCalls_d0g0v0Filler.json",
            "sourceHash" : "8a304e48616a5fb70b55285ffc6a2d6f0108795204285da684daae05c708e597"
        },
        "blocks" : [
            {
                "blockHeader" : {
                    "bloom" : "0x00000000000000000000000000000000000000000000000000000000000000000000000000000000000000000000000000000000000000000000000000000000000000000000000000000000000000000000000000000000000000000000000000000000000000000000000000000000000000000000000000000000000000000000000000000000000000000000000000000000000000000000000000000000000000000000000000000000000000000000000000000000000000000000000000000000000000000000000000000000000000000000000000000000000000000000000000000000000000000000000000000000000000000000000000000000",
                    "coinbase" : "0x2adc25665018aa1fe0e6bc666dac8fc2697ff9ba",
                    "difficulty" : "0x020000",
                    "extraData" : "",
                    "gasLimit" : "0x989680",
                    "gasUsed" : "0x035b60",
                    "hash" : "0xd612d0ae94f6a893371b12e5345e35745b0a205cc9ea444fd54193ef296deb25",
                    "mixHash" : "0x1005e31dddd1fc7a5c6c970359089b38cb62739e6a3f627d067675d30cfb17f6",
                    "nonce" : "0x9197d5696d2b2e15",
                    "number" : "0x01",
                    "parentHash" : "0x40e989adb8c32ef72ae0a33ea2292124bd9f71cd1b1b85e68ff3ee61e479b6b9",
                    "receiptTrie" : "0x6476d9670d5389f0d8cd1a6fb2e035f4e54b32a27518e4ed8238f9a9c3aaa296",
                    "stateRoot" : "0xde723f3eb98f34d4421f21a99583d413bcbf67a38b3f53df625eacf70431392e",
                    "timestamp" : "0x03e8",
                    "transactionsTrie" : "0x778299110270c362288957e29ef88d9c7315bacd67359f9f8c03f6ffe6b79ec3",
                    "uncleHash" : "0x1dcc4de8dec75d7aab85b567b6ccd41ad312451b948a7413f0a142fd40d49347"
                },
                "rlp" : "0xf90260f901f8a040e989adb8c32ef72ae0a33ea2292124bd9f71cd1b1b85e68ff3ee61e479b6b9a01dcc4de8dec75d7aab85b567b6ccd41ad312451b948a7413f0a142fd40d49347942adc25665018aa1fe0e6bc666dac8fc2697ff9baa0de723f3eb98f34d4421f21a99583d413bcbf67a38b3f53df625eacf70431392ea0778299110270c362288957e29ef88d9c7315bacd67359f9f8c03f6ffe6b79ec3a06476d9670d5389f0d8cd1a6fb2e035f4e54b32a27518e4ed8238f9a9c3aaa296b901000000000000000000000000000000000000000000000000000000000000000000000000000000000000000000000000000000000000000000000000000000000000000000000000000000000000000000000000000000000000000000000000000000000000000000000000000000000000000000000000000000000000000000000000000000000000000000000000000000000000000000000000000000000000000000000000000000000000000000000000000000000000000000000000000000000000000000000000000000000000000000000000000000000000000000000000000000000000000000000000000000000000000000000000000000000083020000018398968083035b608203e880a01005e31dddd1fc7a5c6c970359089b38cb62739e6a3f627d067675d30cfb17f6889197d5696d2b2e15f862f860800183035b6094b94f5374fce5edbc8e2a8697c15331677e6ebf0b80801ba0847209ee699a77891570bb06744dd6075a828587c935e45dfb023c2b3a95a5c6a031e90653d76ee3cc7651b1964b207777f83768aaf80ac05c8304e134c636bc36c0",
                "transactions" : [
                    {
                        "data" : "",
                        "gasLimit" : "0x035b60",
                        "gasPrice" : "0x01",
                        "nonce" : "0x00",
                        "r" : "0x847209ee699a77891570bb06744dd6075a828587c935e45dfb023c2b3a95a5c6",
                        "s" : "0x31e90653d76ee3cc7651b1964b207777f83768aaf80ac05c8304e134c636bc36",
                        "to" : "0xb94f5374fce5edbc8e2a8697c15331677e6ebf0b",
                        "v" : "0x1b",
                        "value" : "0x00"
                    }
                ],
                "uncleHeaders" : [
                ]
            }
        ],
        "genesisBlockHeader" : {
            "bloom" : "0x00000000000000000000000000000000000000000000000000000000000000000000000000000000000000000000000000000000000000000000000000000000000000000000000000000000000000000000000000000000000000000000000000000000000000000000000000000000000000000000000000000000000000000000000000000000000000000000000000000000000000000000000000000000000000000000000000000000000000000000000000000000000000000000000000000000000000000000000000000000000000000000000000000000000000000000000000000000000000000000000000000000000000000000000000000000",
            "coinbase" : "0x2adc25665018aa1fe0e6bc666dac8fc2697ff9ba",
            "difficulty" : "0x020000",
            "extraData" : "0x42",
            "gasLimit" : "0x989680",
            "gasUsed" : "0x00",
            "hash" : "0x40e989adb8c32ef72ae0a33ea2292124bd9f71cd1b1b85e68ff3ee61e479b6b9",
            "mixHash" : "0x56e81f171bcc55a6ff8345e692c0f86e5b48e01b996cadc001622fb5e363b421",
            "nonce" : "0x0102030405060708",
            "number" : "0x00",
            "parentHash" : "0x0000000000000000000000000000000000000000000000000000000000000000",
            "receiptTrie" : "0x56e81f171bcc55a6ff8345e692c0f86e5b48e01b996cadc001622fb5e363b421",
            "stateRoot" : "0x297fdd0d67c8bd5e3ff4c3375bb704571bc8d7beb6106bdcc9683b8c4d21183a",
            "timestamp" : "0x03b6",
            "transactionsTrie" : "0x56e81f171bcc55a6ff8345e692c0f86e5b48e01b996cadc001622fb5e363b421",
            "uncleHash" : "0x1dcc4de8dec75d7aab85b567b6ccd41ad312451b948a7413f0a142fd40d49347"
        },
        "genesisRLP" : "0xf901faf901f5a00000000000000000000000000000000000000000000000000000000000000000a01dcc4de8dec75d7aab85b567b6ccd41ad312451b948a7413f0a142fd40d49347942adc25665018aa1fe0e6bc666dac8fc2697ff9baa0297fdd0d67c8bd5e3ff4c3375bb704571bc8d7beb6106bdcc9683b8c4d21183aa056e81f171bcc55a6ff8345e692c0f86e5b48e01b996cadc001622fb5e363b421a056e81f171bcc55a6ff8345e692c0f86e5b48e01b996cadc001622fb5e363b421b9010000000000000000000000000000000000000000000000000000000000000000000000000000000000000000000000000000000000000000000000000000000000000000000000000000000000000000000000000000000000000000000000000000000000000000000000000000000000000000000000000000000000000000000000000000000000000000000000000000000000000000000000000000000000000000000000000000000000000000000000000000000000000000000000000000000000000000000000000000000000000000000000000000000000000000000000000000000000000000000000000000000000000000000000000000000000830200008083989680808203b642a056e81f171bcc55a6ff8345e692c0f86e5b48e01b996cadc001622fb5e363b421880102030405060708c0c0",
        "lastblockhash" : "0xd612d0ae94f6a893371b12e5345e35745b0a205cc9ea444fd54193ef296deb25",
        "network" : "Frontier",
        "postState" : {
            "0x1000000000000000000000000000000000000110" : {
                "balance" : "0x00",
                "code" : "0x5a60085560ff60ff60ff60ff6000731000000000000000000000000000000000000111620927c0f1600955",
                "nonce" : "0x00",
                "storage" : {
                }
            },
            "0x1000000000000000000000000000000000000111" : {
                "balance" : "0x00",
                "code" : "0x5a600855600060006000f050600060006000f0505a6009555a600a55",
                "nonce" : "0x00",
                "storage" : {
                }
            },
            "0x2adc25665018aa1fe0e6bc666dac8fc2697ff9ba" : {
                "balance" : "0x4563918244f75b60",
                "code" : "",
                "nonce" : "0x00",
                "storage" : {
                }
            },
            "0xa94f5374fce5edbc8e2a8697c15331677e6ebf0b" : {
                "balance" : "0xe8d4a1b4a0",
                "code" : "",
                "nonce" : "0x01",
                "storage" : {
                }
            },
            "0xb94f5374fce5edbc8e2a8697c15331677e6ebf0b" : {
                "balance" : "0x00",
                "code" : "0x5a60085560ff60ff60ff60ff6000731000000000000000000000000000000000000110620927c0f1600955",
                "nonce" : "0x00",
                "storage" : {
                }
            }
        },
        "pre" : {
            "0x1000000000000000000000000000000000000110" : {
                "balance" : "0x00",
                "code" : "0x5a60085560ff60ff60ff60ff6000731000000000000000000000000000000000000111620927c0f1600955",
                "nonce" : "0x00",
                "storage" : {
                }
            },
            "0x1000000000000000000000000000000000000111" : {
                "balance" : "0x00",
                "code" : "0x5a600855600060006000f050600060006000f0505a6009555a600a55",
                "nonce" : "0x00",
                "storage" : {
                }
            },
            "0xa94f5374fce5edbc8e2a8697c15331677e6ebf0b" : {
                "balance" : "0xe8d4a51000",
                "code" : "",
                "nonce" : "0x00",
                "storage" : {
                }
            },
            "0xb94f5374fce5edbc8e2a8697c15331677e6ebf0b" : {
                "balance" : "0x00",
                "code" : "0x5a60085560ff60ff60ff60ff6000731000000000000000000000000000000000000110620927c0f1600955",
                "nonce" : "0x00",
                "storage" : {
                }
            }
        }
    },
    "CallGoesOOGOnSecondLevelWithMemExpandingCalls_d0g0v0_Homestead" : {
        "_info" : {
            "comment" : "",
            "filledwith" : "cpp-1.3.0+commit.6e0ce939.Linux.g++",
            "lllcversion" : "Version: 0.4.18-develop.2017.9.25+commit.a72237f2.Linux.g++",
            "source" : "src/BlockchainTestsFiller/GeneralStateTests/stMemExpandingEIP150Calls/CallGoesOOGOnSecondLevelWithMemExpandingCalls_d0g0v0Filler.json",
            "sourceHash" : "8a304e48616a5fb70b55285ffc6a2d6f0108795204285da684daae05c708e597"
        },
        "blocks" : [
            {
                "blockHeader" : {
                    "bloom" : "0x00000000000000000000000000000000000000000000000000000000000000000000000000000000000000000000000000000000000000000000000000000000000000000000000000000000000000000000000000000000000000000000000000000000000000000000000000000000000000000000000000000000000000000000000000000000000000000000000000000000000000000000000000000000000000000000000000000000000000000000000000000000000000000000000000000000000000000000000000000000000000000000000000000000000000000000000000000000000000000000000000000000000000000000000000000000",
                    "coinbase" : "0x2adc25665018aa1fe0e6bc666dac8fc2697ff9ba",
                    "difficulty" : "0x020000",
                    "extraData" : "",
                    "gasLimit" : "0x989680",
                    "gasUsed" : "0x035b60",
                    "hash" : "0xe0bc869b21e67cd4a2f8a3ea27f69908e0e3b8ff09c80041316496e2183c375e",
                    "mixHash" : "0xba0af6f7202471d0254865b3f7109113e4858334ecdf462614e22684ee5b4661",
                    "nonce" : "0x6256daa3c4003463",
                    "number" : "0x01",
                    "parentHash" : "0x40e989adb8c32ef72ae0a33ea2292124bd9f71cd1b1b85e68ff3ee61e479b6b9",
                    "receiptTrie" : "0x6476d9670d5389f0d8cd1a6fb2e035f4e54b32a27518e4ed8238f9a9c3aaa296",
                    "stateRoot" : "0xde723f3eb98f34d4421f21a99583d413bcbf67a38b3f53df625eacf70431392e",
                    "timestamp" : "0x03e8",
                    "transactionsTrie" : "0x778299110270c362288957e29ef88d9c7315bacd67359f9f8c03f6ffe6b79ec3",
                    "uncleHash" : "0x1dcc4de8dec75d7aab85b567b6ccd41ad312451b948a7413f0a142fd40d49347"
                },
                "rlp" : "0xf90260f901f8a040e989adb8c32ef72ae0a33ea2292124bd9f71cd1b1b85e68ff3ee61e479b6b9a01dcc4de8dec75d7aab85b567b6ccd41ad312451b948a7413f0a142fd40d49347942adc25665018aa1fe0e6bc666dac8fc2697ff9baa0de723f3eb98f34d4421f21a99583d413bcbf67a38b3f53df625eacf70431392ea0778299110270c362288957e29ef88d9c7315bacd67359f9f8c03f6ffe6b79ec3a06476d9670d5389f0d8cd1a6fb2e035f4e54b32a27518e4ed8238f9a9c3aaa296b901000000000000000000000000000000000000000000000000000000000000000000000000000000000000000000000000000000000000000000000000000000000000000000000000000000000000000000000000000000000000000000000000000000000000000000000000000000000000000000000000000000000000000000000000000000000000000000000000000000000000000000000000000000000000000000000000000000000000000000000000000000000000000000000000000000000000000000000000000000000000000000000000000000000000000000000000000000000000000000000000000000000000000000000000000000000083020000018398968083035b608203e880a0ba0af6f7202471d0254865b3f7109113e4858334ecdf462614e22684ee5b4661886256daa3c4003463f862f860800183035b6094b94f5374fce5edbc8e2a8697c15331677e6ebf0b80801ba0847209ee699a77891570bb06744dd6075a828587c935e45dfb023c2b3a95a5c6a031e90653d76ee3cc7651b1964b207777f83768aaf80ac05c8304e134c636bc36c0",
                "transactions" : [
                    {
                        "data" : "",
                        "gasLimit" : "0x035b60",
                        "gasPrice" : "0x01",
                        "nonce" : "0x00",
                        "r" : "0x847209ee699a77891570bb06744dd6075a828587c935e45dfb023c2b3a95a5c6",
                        "s" : "0x31e90653d76ee3cc7651b1964b207777f83768aaf80ac05c8304e134c636bc36",
                        "to" : "0xb94f5374fce5edbc8e2a8697c15331677e6ebf0b",
                        "v" : "0x1b",
                        "value" : "0x00"
                    }
                ],
                "uncleHeaders" : [
                ]
            }
        ],
        "genesisBlockHeader" : {
            "bloom" : "0x00000000000000000000000000000000000000000000000000000000000000000000000000000000000000000000000000000000000000000000000000000000000000000000000000000000000000000000000000000000000000000000000000000000000000000000000000000000000000000000000000000000000000000000000000000000000000000000000000000000000000000000000000000000000000000000000000000000000000000000000000000000000000000000000000000000000000000000000000000000000000000000000000000000000000000000000000000000000000000000000000000000000000000000000000000000",
            "coinbase" : "0x2adc25665018aa1fe0e6bc666dac8fc2697ff9ba",
            "difficulty" : "0x020000",
            "extraData" : "0x42",
            "gasLimit" : "0x989680",
            "gasUsed" : "0x00",
            "hash" : "0x40e989adb8c32ef72ae0a33ea2292124bd9f71cd1b1b85e68ff3ee61e479b6b9",
            "mixHash" : "0x56e81f171bcc55a6ff8345e692c0f86e5b48e01b996cadc001622fb5e363b421",
            "nonce" : "0x0102030405060708",
            "number" : "0x00",
            "parentHash" : "0x0000000000000000000000000000000000000000000000000000000000000000",
            "receiptTrie" : "0x56e81f171bcc55a6ff8345e692c0f86e5b48e01b996cadc001622fb5e363b421",
            "stateRoot" : "0x297fdd0d67c8bd5e3ff4c3375bb704571bc8d7beb6106bdcc9683b8c4d21183a",
            "timestamp" : "0x03b6",
            "transactionsTrie" : "0x56e81f171bcc55a6ff8345e692c0f86e5b48e01b996cadc001622fb5e363b421",
            "uncleHash" : "0x1dcc4de8dec75d7aab85b567b6ccd41ad312451b948a7413f0a142fd40d49347"
        },
        "genesisRLP" : "0xf901faf901f5a00000000000000000000000000000000000000000000000000000000000000000a01dcc4de8dec75d7aab85b567b6ccd41ad312451b948a7413f0a142fd40d49347942adc25665018aa1fe0e6bc666dac8fc2697ff9baa0297fdd0d67c8bd5e3ff4c3375bb704571bc8d7beb6106bdcc9683b8c4d21183aa056e81f171bcc55a6ff8345e692c0f86e5b48e01b996cadc001622fb5e363b421a056e81f171bcc55a6ff8345e692c0f86e5b48e01b996cadc001622fb5e363b421b9010000000000000000000000000000000000000000000000000000000000000000000000000000000000000000000000000000000000000000000000000000000000000000000000000000000000000000000000000000000000000000000000000000000000000000000000000000000000000000000000000000000000000000000000000000000000000000000000000000000000000000000000000000000000000000000000000000000000000000000000000000000000000000000000000000000000000000000000000000000000000000000000000000000000000000000000000000000000000000000000000000000000000000000000000000000000830200008083989680808203b642a056e81f171bcc55a6ff8345e692c0f86e5b48e01b996cadc001622fb5e363b421880102030405060708c0c0",
        "lastblockhash" : "0xe0bc869b21e67cd4a2f8a3ea27f69908e0e3b8ff09c80041316496e2183c375e",
        "network" : "Homestead",
        "postState" : {
            "0x1000000000000000000000000000000000000110" : {
                "balance" : "0x00",
                "code" : "0x5a60085560ff60ff60ff60ff6000731000000000000000000000000000000000000111620927c0f1600955",
                "nonce" : "0x00",
                "storage" : {
                }
            },
            "0x1000000000000000000000000000000000000111" : {
                "balance" : "0x00",
                "code" : "0x5a600855600060006000f050600060006000f0505a6009555a600a55",
                "nonce" : "0x00",
                "storage" : {
                }
            },
            "0x2adc25665018aa1fe0e6bc666dac8fc2697ff9ba" : {
                "balance" : "0x4563918244f75b60",
                "code" : "",
                "nonce" : "0x00",
                "storage" : {
                }
            },
            "0xa94f5374fce5edbc8e2a8697c15331677e6ebf0b" : {
                "balance" : "0xe8d4a1b4a0",
                "code" : "",
                "nonce" : "0x01",
                "storage" : {
                }
            },
            "0xb94f5374fce5edbc8e2a8697c15331677e6ebf0b" : {
                "balance" : "0x00",
                "code" : "0x5a60085560ff60ff60ff60ff6000731000000000000000000000000000000000000110620927c0f1600955",
                "nonce" : "0x00",
                "storage" : {
                }
            }
        },
        "pre" : {
            "0x1000000000000000000000000000000000000110" : {
                "balance" : "0x00",
                "code" : "0x5a60085560ff60ff60ff60ff6000731000000000000000000000000000000000000111620927c0f1600955",
                "nonce" : "0x00",
                "storage" : {
                }
            },
            "0x1000000000000000000000000000000000000111" : {
                "balance" : "0x00",
                "code" : "0x5a600855600060006000f050600060006000f0505a6009555a600a55",
                "nonce" : "0x00",
                "storage" : {
                }
            },
            "0xa94f5374fce5edbc8e2a8697c15331677e6ebf0b" : {
                "balance" : "0xe8d4a51000",
                "code" : "",
                "nonce" : "0x00",
                "storage" : {
                }
            },
            "0xb94f5374fce5edbc8e2a8697c15331677e6ebf0b" : {
                "balance" : "0x00",
                "code" : "0x5a60085560ff60ff60ff60ff6000731000000000000000000000000000000000000110620927c0f1600955",
                "nonce" : "0x00",
                "storage" : {
                }
            }
        }
    }
}