{
    "DelegateCallOnEIPWithMemExpandingCalls_d0g0v0_Byzantium" : {
        "_info" : {
            "comment" : "",
            "filledwith" : "cpp-1.3.0+commit.6e0ce939.Linux.g++",
            "lllcversion" : "Version: 0.4.18-develop.2017.9.25+commit.a72237f2.Linux.g++",
            "source" : "src/BlockchainTestsFiller/GeneralStateTests/stMemExpandingEIP150Calls/DelegateCallOnEIPWithMemExpandingCalls_d0g0v0Filler.json",
            "sourceHash" : "adeb8f01960fe670397b6bb4c7ceee3a0bacab741ff7d0c34febd27ca03750f5"
        },
        "blocks" : [
            {
                "blockHeader" : {
                    "bloom" : "0x00000000000000000000000000000000000000000000000000000000000000000000000000000000000000000000000000000000000000000000000000000000000000000000000000000000000000000000000000000000000000000000000000000000000000000000000000000000000000000000000000000000000000000000000000000000000000000000000000000000000000000000000000000000000000000000000000000000000000000000000000000000000000000000000000000000000000000000000000000000000000000000000000000000000000000000000000000000000000000000000000000000000000000000000000000000",
                    "coinbase" : "0x2adc25665018aa1fe0e6bc666dac8fc2697ff9ba",
                    "difficulty" : "0x020000",
                    "extraData" : "",
                    "gasLimit" : "0x989680",
                    "gasUsed" : "0x013f74",
                    "hash" : "0xe9b94a27228e696bd6266072148c79570ad7e3d5e09e4b9df7b67a3447aaf6ab",
                    "mixHash" : "0x3bdb417f5e58f00f05ad097499d63b149c0a7a79308715d1f2d3c08f0a16ae8d",
                    "nonce" : "0x3feed481d50d4125",
                    "number" : "0x01",
                    "parentHash" : "0x8f131fa00a91627034e948aa05872ca70fc3c7a9912318684738d7139f40130d",
                    "receiptTrie" : "0xef404013a935286016e9c0ff07d702f880f4f3f26c8fac6cbc64d3f0a7f99aee",
                    "stateRoot" : "0xe324c7241464ee33440996fa09bce994a0c4e5ef1d1cb681b7d6357881a84abf",
                    "timestamp" : "0x03e8",
                    "transactionsTrie" : "0x59652e5662eb625efd106d67b9b25d3c12a15e69494d1d24f59d867c211f6761",
                    "uncleHash" : "0x1dcc4de8dec75d7aab85b567b6ccd41ad312451b948a7413f0a142fd40d49347"
                },
                "rlp" : "0xf90260f901f8a08f131fa00a91627034e948aa05872ca70fc3c7a9912318684738d7139f40130da01dcc4de8dec75d7aab85b567b6ccd41ad312451b948a7413f0a142fd40d49347942adc25665018aa1fe0e6bc666dac8fc2697ff9baa0e324c7241464ee33440996fa09bce994a0c4e5ef1d1cb681b7d6357881a84abfa059652e5662eb625efd106d67b9b25d3c12a15e69494d1d24f59d867c211f6761a0ef404013a935286016e9c0ff07d702f880f4f3f26c8fac6cbc64d3f0a7f99aeeb901000000000000000000000000000000000000000000000000000000000000000000000000000000000000000000000000000000000000000000000000000000000000000000000000000000000000000000000000000000000000000000000000000000000000000000000000000000000000000000000000000000000000000000000000000000000000000000000000000000000000000000000000000000000000000000000000000000000000000000000000000000000000000000000000000000000000000000000000000000000000000000000000000000000000000000000000000000000000000000000000000000000000000000000000000000000083020000018398968083013f748203e880a03bdb417f5e58f00f05ad097499d63b149c0a7a79308715d1f2d3c08f0a16ae8d883feed481d50d4125f862f8608001830927c094b94f5374fce5edbc8e2a8697c15331677e6ebf0b80801ba08d0699f23d032b86db35ed7bb39c2357bec870fbfbe7db30b1795d320d8965c6a002f578fd949e84f0dc1307f5dd714c9a7158b31891d43f45459edcb52e345f7cc0",
                "transactions" : [
                    {
                        "data" : "",
                        "gasLimit" : "0x0927c0",
                        "gasPrice" : "0x01",
                        "nonce" : "0x00",
                        "r" : "0x8d0699f23d032b86db35ed7bb39c2357bec870fbfbe7db30b1795d320d8965c6",
                        "s" : "0x02f578fd949e84f0dc1307f5dd714c9a7158b31891d43f45459edcb52e345f7c",
                        "to" : "0xb94f5374fce5edbc8e2a8697c15331677e6ebf0b",
                        "v" : "0x1b",
                        "value" : "0x00"
                    }
                ],
                "uncleHeaders" : [
                ]
            }
        ],
        "genesisBlockHeader" : {
            "bloom" : "0x00000000000000000000000000000000000000000000000000000000000000000000000000000000000000000000000000000000000000000000000000000000000000000000000000000000000000000000000000000000000000000000000000000000000000000000000000000000000000000000000000000000000000000000000000000000000000000000000000000000000000000000000000000000000000000000000000000000000000000000000000000000000000000000000000000000000000000000000000000000000000000000000000000000000000000000000000000000000000000000000000000000000000000000000000000000",
            "coinbase" : "0x2adc25665018aa1fe0e6bc666dac8fc2697ff9ba",
            "difficulty" : "0x020000",
            "extraData" : "0x42",
            "gasLimit" : "0x989680",
            "gasUsed" : "0x00",
            "hash" : "0x8f131fa00a91627034e948aa05872ca70fc3c7a9912318684738d7139f40130d",
            "mixHash" : "0x56e81f171bcc55a6ff8345e692c0f86e5b48e01b996cadc001622fb5e363b421",
            "nonce" : "0x0102030405060708",
            "number" : "0x00",
            "parentHash" : "0x0000000000000000000000000000000000000000000000000000000000000000",
            "receiptTrie" : "0x56e81f171bcc55a6ff8345e692c0f86e5b48e01b996cadc001622fb5e363b421",
            "stateRoot" : "0x0724373379ac54e8416a38e60b623eb362c06dce43ff7cfba0c1aca91ff3cc86",
            "timestamp" : "0x03b6",
            "transactionsTrie" : "0x56e81f171bcc55a6ff8345e692c0f86e5b48e01b996cadc001622fb5e363b421",
            "uncleHash" : "0x1dcc4de8dec75d7aab85b567b6ccd41ad312451b948a7413f0a142fd40d49347"
        },
        "genesisRLP" : "0xf901faf901f5a00000000000000000000000000000000000000000000000000000000000000000a01dcc4de8dec75d7aab85b567b6ccd41ad312451b948a7413f0a142fd40d49347942adc25665018aa1fe0e6bc666dac8fc2697ff9baa00724373379ac54e8416a38e60b623eb362c06dce43ff7cfba0c1aca91ff3cc86a056e81f171bcc55a6ff8345e692c0f86e5b48e01b996cadc001622fb5e363b421a056e81f171bcc55a6ff8345e692c0f86e5b48e01b996cadc001622fb5e363b421b9010000000000000000000000000000000000000000000000000000000000000000000000000000000000000000000000000000000000000000000000000000000000000000000000000000000000000000000000000000000000000000000000000000000000000000000000000000000000000000000000000000000000000000000000000000000000000000000000000000000000000000000000000000000000000000000000000000000000000000000000000000000000000000000000000000000000000000000000000000000000000000000000000000000000000000000000000000000000000000000000000000000000000000000000000000000000830200008083989680808203b642a056e81f171bcc55a6ff8345e692c0f86e5b48e01b996cadc001622fb5e363b421880102030405060708c0c0",
        "lastblockhash" : "0xe9b94a27228e696bd6266072148c79570ad7e3d5e09e4b9df7b67a3447aaf6ab",
        "network" : "Byzantium",
        "postState" : {
            "0x1000000000000000000000000000000000000105" : {
                "balance" : "0x00",
                "code" : "0x6012600055",
                "nonce" : "0x00",
                "storage" : {
                }
            },
            "0x2adc25665018aa1fe0e6bc666dac8fc2697ff9ba" : {
                "balance" : "0x29a2241af62d3f74",
                "code" : "",
                "nonce" : "0x00",
                "storage" : {
                }
            },
            "0xa94f5374fce5edbc8e2a8697c15331677e6ebf0b" : {
                "balance" : "0xe8d4a3d08c",
                "code" : "",
                "nonce" : "0x01",
                "storage" : {
                }
            },
            "0xb94f5374fce5edbc8e2a8697c15331677e6ebf0b" : {
                "balance" : "0x00",
                "code" : "0x5a60085560ff60ff60ff60ff731000000000000000000000000000000000000105620927c0f4600955",
                "nonce" : "0x00",
                "storage" : {
                    "0x00" : "0x12",
                    "0x08" : "0x08d5b6",
                    "0x09" : "0x01"
                }
            }
        },
        "pre" : {
            "0x1000000000000000000000000000000000000105" : {
                "balance" : "0x00",
                "code" : "0x6012600055",
                "nonce" : "0x00",
                "storage" : {
                }
            },
            "0xa94f5374fce5edbc8e2a8697c15331677e6ebf0b" : {
                "balance" : "0xe8d4a51000",
                "code" : "",
                "nonce" : "0x00",
                "storage" : {
                }
            },
            "0xb94f5374fce5edbc8e2a8697c15331677e6ebf0b" : {
                "balance" : "0x00",
                "code" : "0x5a60085560ff60ff60ff60ff731000000000000000000000000000000000000105620927c0f4600955",
                "nonce" : "0x00",
                "storage" : {
                }
            }
        }
    },
    "DelegateCallOnEIPWithMemExpandingCalls_d0g0v0_EIP150" : {
        "_info" : {
            "comment" : "",
            "filledwith" : "cpp-1.3.0+commit.6e0ce939.Linux.g++",
            "lllcversion" : "Version: 0.4.18-develop.2017.9.25+commit.a72237f2.Linux.g++",
            "source" : "src/BlockchainTestsFiller/GeneralStateTests/stMemExpandingEIP150Calls/DelegateCallOnEIPWithMemExpandingCalls_d0g0v0Filler.json",
            "sourceHash" : "adeb8f01960fe670397b6bb4c7ceee3a0bacab741ff7d0c34febd27ca03750f5"
        },
        "blocks" : [
            {
                "blockHeader" : {
                    "bloom" : "0x00000000000000000000000000000000000000000000000000000000000000000000000000000000000000000000000000000000000000000000000000000000000000000000000000000000000000000000000000000000000000000000000000000000000000000000000000000000000000000000000000000000000000000000000000000000000000000000000000000000000000000000000000000000000000000000000000000000000000000000000000000000000000000000000000000000000000000000000000000000000000000000000000000000000000000000000000000000000000000000000000000000000000000000000000000000",
                    "coinbase" : "0x2adc25665018aa1fe0e6bc666dac8fc2697ff9ba",
                    "difficulty" : "0x020000",
                    "extraData" : "",
                    "gasLimit" : "0x989680",
                    "gasUsed" : "0x013f74",
                    "hash" : "0xcbdfc8bb616177c88fc6aac390f495de431abe7c3e6c1b98ea058bb554338545",
                    "mixHash" : "0xc40b33a4d0d486d081aaf81c57cf9a07d1218d187e7d8bdc0057ca9a2162d9d0",
                    "nonce" : "0xeb49cfe8ebc2542f",
                    "number" : "0x01",
                    "parentHash" : "0x8f131fa00a91627034e948aa05872ca70fc3c7a9912318684738d7139f40130d",
                    "receiptTrie" : "0xee07dfbb7e78b7d86754aacb3f0952501c9effb3fd3534b5449507e0ed8dbf1e",
                    "stateRoot" : "0x1cd0fa5473e87ac76060dfaddecef70bf8a63f564ecac1c20633b4a51cac210c",
                    "timestamp" : "0x03e8",
                    "transactionsTrie" : "0x59652e5662eb625efd106d67b9b25d3c12a15e69494d1d24f59d867c211f6761",
                    "uncleHash" : "0x1dcc4de8dec75d7aab85b567b6ccd41ad312451b948a7413f0a142fd40d49347"
                },
                "rlp" : "0xf90260f901f8a08f131fa00a91627034e948aa05872ca70fc3c7a9912318684738d7139f40130da01dcc4de8dec75d7aab85b567b6ccd41ad312451b948a7413f0a142fd40d49347942adc25665018aa1fe0e6bc666dac8fc2697ff9baa01cd0fa5473e87ac76060dfaddecef70bf8a63f564ecac1c20633b4a51cac210ca059652e5662eb625efd106d67b9b25d3c12a15e69494d1d24f59d867c211f6761a0ee07dfbb7e78b7d86754aacb3f0952501c9effb3fd3534b5449507e0ed8dbf1eb901000000000000000000000000000000000000000000000000000000000000000000000000000000000000000000000000000000000000000000000000000000000000000000000000000000000000000000000000000000000000000000000000000000000000000000000000000000000000000000000000000000000000000000000000000000000000000000000000000000000000000000000000000000000000000000000000000000000000000000000000000000000000000000000000000000000000000000000000000000000000000000000000000000000000000000000000000000000000000000000000000000000000000000000000000000000083020000018398968083013f748203e880a0c40b33a4d0d486d081aaf81c57cf9a07d1218d187e7d8bdc0057ca9a2162d9d088eb49cfe8ebc2542ff862f8608001830927c094b94f5374fce5edbc8e2a8697c15331677e6ebf0b80801ba08d0699f23d032b86db35ed7bb39c2357bec870fbfbe7db30b1795d320d8965c6a002f578fd949e84f0dc1307f5dd714c9a7158b31891d43f45459edcb52e345f7cc0",
                "transactions" : [
                    {
                        "data" : "",
                        "gasLimit" : "0x0927c0",
                        "gasPrice" : "0x01",
                        "nonce" : "0x00",
                        "r" : "0x8d0699f23d032b86db35ed7bb39c2357bec870fbfbe7db30b1795d320d8965c6",
                        "s" : "0x02f578fd949e84f0dc1307f5dd714c9a7158b31891d43f45459edcb52e345f7c",
                        "to" : "0xb94f5374fce5edbc8e2a8697c15331677e6ebf0b",
                        "v" : "0x1b",
                        "value" : "0x00"
                    }
                ],
                "uncleHeaders" : [
                ]
            }
        ],
        "genesisBlockHeader" : {
            "bloom" : "0x00000000000000000000000000000000000000000000000000000000000000000000000000000000000000000000000000000000000000000000000000000000000000000000000000000000000000000000000000000000000000000000000000000000000000000000000000000000000000000000000000000000000000000000000000000000000000000000000000000000000000000000000000000000000000000000000000000000000000000000000000000000000000000000000000000000000000000000000000000000000000000000000000000000000000000000000000000000000000000000000000000000000000000000000000000000",
            "coinbase" : "0x2adc25665018aa1fe0e6bc666dac8fc2697ff9ba",
            "difficulty" : "0x020000",
            "extraData" : "0x42",
            "gasLimit" : "0x989680",
            "gasUsed" : "0x00",
            "hash" : "0x8f131fa00a91627034e948aa05872ca70fc3c7a9912318684738d7139f40130d",
            "mixHash" : "0x56e81f171bcc55a6ff8345e692c0f86e5b48e01b996cadc001622fb5e363b421",
            "nonce" : "0x0102030405060708",
            "number" : "0x00",
            "parentHash" : "0x0000000000000000000000000000000000000000000000000000000000000000",
            "receiptTrie" : "0x56e81f171bcc55a6ff8345e692c0f86e5b48e01b996cadc001622fb5e363b421",
            "stateRoot" : "0x0724373379ac54e8416a38e60b623eb362c06dce43ff7cfba0c1aca91ff3cc86",
            "timestamp" : "0x03b6",
            "transactionsTrie" : "0x56e81f171bcc55a6ff8345e692c0f86e5b48e01b996cadc001622fb5e363b421",
            "uncleHash" : "0x1dcc4de8dec75d7aab85b567b6ccd41ad312451b948a7413f0a142fd40d49347"
        },
        "genesisRLP" : "0xf901faf901f5a00000000000000000000000000000000000000000000000000000000000000000a01dcc4de8dec75d7aab85b567b6ccd41ad312451b948a7413f0a142fd40d49347942adc25665018aa1fe0e6bc666dac8fc2697ff9baa00724373379ac54e8416a38e60b623eb362c06dce43ff7cfba0c1aca91ff3cc86a056e81f171bcc55a6ff8345e692c0f86e5b48e01b996cadc001622fb5e363b421a056e81f171bcc55a6ff8345e692c0f86e5b48e01b996cadc001622fb5e363b421b9010000000000000000000000000000000000000000000000000000000000000000000000000000000000000000000000000000000000000000000000000000000000000000000000000000000000000000000000000000000000000000000000000000000000000000000000000000000000000000000000000000000000000000000000000000000000000000000000000000000000000000000000000000000000000000000000000000000000000000000000000000000000000000000000000000000000000000000000000000000000000000000000000000000000000000000000000000000000000000000000000000000000000000000000000000000000830200008083989680808203b642a056e81f171bcc55a6ff8345e692c0f86e5b48e01b996cadc001622fb5e363b421880102030405060708c0c0",
        "lastblockhash" : "0xcbdfc8bb616177c88fc6aac390f495de431abe7c3e6c1b98ea058bb554338545",
        "network" : "EIP150",
        "postState" : {
            "0x1000000000000000000000000000000000000105" : {
                "balance" : "0x00",
                "code" : "0x6012600055",
                "nonce" : "0x00",
                "storage" : {
                }
            },
            "0x2adc25665018aa1fe0e6bc666dac8fc2697ff9ba" : {
                "balance" : "0x4563918244f53f74",
                "code" : "",
                "nonce" : "0x00",
                "storage" : {
                }
            },
            "0xa94f5374fce5edbc8e2a8697c15331677e6ebf0b" : {
                "balance" : "0xe8d4a3d08c",
                "code" : "",
                "nonce" : "0x01",
                "storage" : {
                }
            },
            "0xb94f5374fce5edbc8e2a8697c15331677e6ebf0b" : {
                "balance" : "0x00",
                "code" : "0x5a60085560ff60ff60ff60ff731000000000000000000000000000000000000105620927c0f4600955",
                "nonce" : "0x00",
                "storage" : {
                    "0x00" : "0x12",
                    "0x08" : "0x08d5b6",
                    "0x09" : "0x01"
                }
            }
        },
        "pre" : {
            "0x1000000000000000000000000000000000000105" : {
                "balance" : "0x00",
                "code" : "0x6012600055",
                "nonce" : "0x00",
                "storage" : {
                }
            },
            "0xa94f5374fce5edbc8e2a8697c15331677e6ebf0b" : {
                "balance" : "0xe8d4a51000",
                "code" : "",
                "nonce" : "0x00",
                "storage" : {
                }
            },
            "0xb94f5374fce5edbc8e2a8697c15331677e6ebf0b" : {
                "balance" : "0x00",
                "code" : "0x5a60085560ff60ff60ff60ff731000000000000000000000000000000000000105620927c0f4600955",
                "nonce" : "0x00",
                "storage" : {
                }
            }
        }
    },
    "DelegateCallOnEIPWithMemExpandingCalls_d0g0v0_EIP158" : {
        "_info" : {
            "comment" : "",
            "filledwith" : "cpp-1.3.0+commit.6e0ce939.Linux.g++",
            "lllcversion" : "Version: 0.4.18-develop.2017.9.25+commit.a72237f2.Linux.g++",
            "source" : "src/BlockchainTestsFiller/GeneralStateTests/stMemExpandingEIP150Calls/DelegateCallOnEIPWithMemExpandingCalls_d0g0v0Filler.json",
            "sourceHash" : "adeb8f01960fe670397b6bb4c7ceee3a0bacab741ff7d0c34febd27ca03750f5"
        },
        "blocks" : [
            {
                "blockHeader" : {
                    "bloom" : "0x00000000000000000000000000000000000000000000000000000000000000000000000000000000000000000000000000000000000000000000000000000000000000000000000000000000000000000000000000000000000000000000000000000000000000000000000000000000000000000000000000000000000000000000000000000000000000000000000000000000000000000000000000000000000000000000000000000000000000000000000000000000000000000000000000000000000000000000000000000000000000000000000000000000000000000000000000000000000000000000000000000000000000000000000000000000",
                    "coinbase" : "0x2adc25665018aa1fe0e6bc666dac8fc2697ff9ba",
                    "difficulty" : "0x020000",
                    "extraData" : "",
                    "gasLimit" : "0x989680",
                    "gasUsed" : "0x013f74",
                    "hash" : "0x4532f931fb7909f4ef873b6fa15db0b37b5b37e9098c5313c43feb148b9e0b27",
                    "mixHash" : "0x880e0c530e936505e72a76509eaa94219476c26c9c225c45e96dcd5be730a134",
                    "nonce" : "0xfcf9a75c8a484bba",
                    "number" : "0x01",
                    "parentHash" : "0x8f131fa00a91627034e948aa05872ca70fc3c7a9912318684738d7139f40130d",
                    "receiptTrie" : "0xee07dfbb7e78b7d86754aacb3f0952501c9effb3fd3534b5449507e0ed8dbf1e",
                    "stateRoot" : "0x1cd0fa5473e87ac76060dfaddecef70bf8a63f564ecac1c20633b4a51cac210c",
                    "timestamp" : "0x03e8",
                    "transactionsTrie" : "0x59652e5662eb625efd106d67b9b25d3c12a15e69494d1d24f59d867c211f6761",
                    "uncleHash" : "0x1dcc4de8dec75d7aab85b567b6ccd41ad312451b948a7413f0a142fd40d49347"
                },
                "rlp" : "0xf90260f901f8a08f131fa00a91627034e948aa05872ca70fc3c7a9912318684738d7139f40130da01dcc4de8dec75d7aab85b567b6ccd41ad312451b948a7413f0a142fd40d49347942adc25665018aa1fe0e6bc666dac8fc2697ff9baa01cd0fa5473e87ac76060dfaddecef70bf8a63f564ecac1c20633b4a51cac210ca059652e5662eb625efd106d67b9b25d3c12a15e69494d1d24f59d867c211f6761a0ee07dfbb7e78b7d86754aacb3f0952501c9effb3fd3534b5449507e0ed8dbf1eb901000000000000000000000000000000000000000000000000000000000000000000000000000000000000000000000000000000000000000000000000000000000000000000000000000000000000000000000000000000000000000000000000000000000000000000000000000000000000000000000000000000000000000000000000000000000000000000000000000000000000000000000000000000000000000000000000000000000000000000000000000000000000000000000000000000000000000000000000000000000000000000000000000000000000000000000000000000000000000000000000000000000000000000000000000000000083020000018398968083013f748203e880a0880e0c530e936505e72a76509eaa94219476c26c9c225c45e96dcd5be730a13488fcf9a75c8a484bbaf862f8608001830927c094b94f5374fce5edbc8e2a8697c15331677e6ebf0b80801ba08d0699f23d032b86db35ed7bb39c2357bec870fbfbe7db30b1795d320d8965c6a002f578fd949e84f0dc1307f5dd714c9a7158b31891d43f45459edcb52e345f7cc0",
                "transactions" : [
                    {
                        "data" : "",
                        "gasLimit" : "0x0927c0",
                        "gasPrice" : "0x01",
                        "nonce" : "0x00",
                        "r" : "0x8d0699f23d032b86db35ed7bb39c2357bec870fbfbe7db30b1795d320d8965c6",
                        "s" : "0x02f578fd949e84f0dc1307f5dd714c9a7158b31891d43f45459edcb52e345f7c",
                        "to" : "0xb94f5374fce5edbc8e2a8697c15331677e6ebf0b",
                        "v" : "0x1b",
                        "value" : "0x00"
                    }
                ],
                "uncleHeaders" : [
                ]
            }
        ],
        "genesisBlockHeader" : {
            "bloom" : "0x00000000000000000000000000000000000000000000000000000000000000000000000000000000000000000000000000000000000000000000000000000000000000000000000000000000000000000000000000000000000000000000000000000000000000000000000000000000000000000000000000000000000000000000000000000000000000000000000000000000000000000000000000000000000000000000000000000000000000000000000000000000000000000000000000000000000000000000000000000000000000000000000000000000000000000000000000000000000000000000000000000000000000000000000000000000",
            "coinbase" : "0x2adc25665018aa1fe0e6bc666dac8fc2697ff9ba",
            "difficulty" : "0x020000",
            "extraData" : "0x42",
            "gasLimit" : "0x989680",
            "gasUsed" : "0x00",
            "hash" : "0x8f131fa00a91627034e948aa05872ca70fc3c7a9912318684738d7139f40130d",
            "mixHash" : "0x56e81f171bcc55a6ff8345e692c0f86e5b48e01b996cadc001622fb5e363b421",
            "nonce" : "0x0102030405060708",
            "number" : "0x00",
            "parentHash" : "0x0000000000000000000000000000000000000000000000000000000000000000",
            "receiptTrie" : "0x56e81f171bcc55a6ff8345e692c0f86e5b48e01b996cadc001622fb5e363b421",
            "stateRoot" : "0x0724373379ac54e8416a38e60b623eb362c06dce43ff7cfba0c1aca91ff3cc86",
            "timestamp" : "0x03b6",
            "transactionsTrie" : "0x56e81f171bcc55a6ff8345e692c0f86e5b48e01b996cadc001622fb5e363b421",
            "uncleHash" : "0x1dcc4de8dec75d7aab85b567b6ccd41ad312451b948a7413f0a142fd40d49347"
        },
        "genesisRLP" : "0xf901faf901f5a00000000000000000000000000000000000000000000000000000000000000000a01dcc4de8dec75d7aab85b567b6ccd41ad312451b948a7413f0a142fd40d49347942adc25665018aa1fe0e6bc666dac8fc2697ff9baa00724373379ac54e8416a38e60b623eb362c06dce43ff7cfba0c1aca91ff3cc86a056e81f171bcc55a6ff8345e692c0f86e5b48e01b996cadc001622fb5e363b421a056e81f171bcc55a6ff8345e692c0f86e5b48e01b996cadc001622fb5e363b421b9010000000000000000000000000000000000000000000000000000000000000000000000000000000000000000000000000000000000000000000000000000000000000000000000000000000000000000000000000000000000000000000000000000000000000000000000000000000000000000000000000000000000000000000000000000000000000000000000000000000000000000000000000000000000000000000000000000000000000000000000000000000000000000000000000000000000000000000000000000000000000000000000000000000000000000000000000000000000000000000000000000000000000000000000000000000000830200008083989680808203b642a056e81f171bcc55a6ff8345e692c0f86e5b48e01b996cadc001622fb5e363b421880102030405060708c0c0",
        "lastblockhash" : "0x4532f931fb7909f4ef873b6fa15db0b37b5b37e9098c5313c43feb148b9e0b27",
        "network" : "EIP158",
        "postState" : {
            "0x1000000000000000000000000000000000000105" : {
                "balance" : "0x00",
                "code" : "0x6012600055",
                "nonce" : "0x00",
                "storage" : {
                }
            },
            "0x2adc25665018aa1fe0e6bc666dac8fc2697ff9ba" : {
                "balance" : "0x4563918244f53f74",
                "code" : "",
                "nonce" : "0x00",
                "storage" : {
                }
            },
            "0xa94f5374fce5edbc8e2a8697c15331677e6ebf0b" : {
                "balance" : "0xe8d4a3d08c",
                "code" : "",
                "nonce" : "0x01",
                "storage" : {
                }
            },
            "0xb94f5374fce5edbc8e2a8697c15331677e6ebf0b" : {
                "balance" : "0x00",
                "code" : "0x5a60085560ff60ff60ff60ff731000000000000000000000000000000000000105620927c0f4600955",
                "nonce" : "0x00",
                "storage" : {
                    "0x00" : "0x12",
                    "0x08" : "0x08d5b6",
                    "0x09" : "0x01"
                }
            }
        },
        "pre" : {
            "0x1000000000000000000000000000000000000105" : {
                "balance" : "0x00",
                "code" : "0x6012600055",
                "nonce" : "0x00",
                "storage" : {
                }
            },
            "0xa94f5374fce5edbc8e2a8697c15331677e6ebf0b" : {
                "balance" : "0xe8d4a51000",
                "code" : "",
                "nonce" : "0x00",
                "storage" : {
                }
            },
            "0xb94f5374fce5edbc8e2a8697c15331677e6ebf0b" : {
                "balance" : "0x00",
                "code" : "0x5a60085560ff60ff60ff60ff731000000000000000000000000000000000000105620927c0f4600955",
                "nonce" : "0x00",
                "storage" : {
                }
            }
        }
    },
    "DelegateCallOnEIPWithMemExpandingCalls_d0g0v0_Frontier" : {
        "_info" : {
            "comment" : "",
            "filledwith" : "cpp-1.3.0+commit.6e0ce939.Linux.g++",
            "lllcversion" : "Version: 0.4.18-develop.2017.9.25+commit.a72237f2.Linux.g++",
            "source" : "src/BlockchainTestsFiller/GeneralStateTests/stMemExpandingEIP150Calls/DelegateCallOnEIPWithMemExpandingCalls_d0g0v0Filler.json",
            "sourceHash" : "adeb8f01960fe670397b6bb4c7ceee3a0bacab741ff7d0c34febd27ca03750f5"
        },
        "blocks" : [
            {
                "blockHeader" : {
                    "bloom" : "0x00000000000000000000000000000000000000000000000000000000000000000000000000000000000000000000000000000000000000000000000000000000000000000000000000000000000000000000000000000000000000000000000000000000000000000000000000000000000000000000000000000000000000000000000000000000000000000000000000000000000000000000000000000000000000000000000000000000000000000000000000000000000000000000000000000000000000000000000000000000000000000000000000000000000000000000000000000000000000000000000000000000000000000000000000000000",
                    "coinbase" : "0x2adc25665018aa1fe0e6bc666dac8fc2697ff9ba",
                    "difficulty" : "0x020000",
                    "extraData" : "",
                    "gasLimit" : "0x989680",
                    "gasUsed" : "0x0927c0",
                    "hash" : "0x459163aad17d4a503020ffffc146478a768a859318189e1d3b7bf6ed2646b841",
                    "mixHash" : "0xeb20046e88307d78e17d0c84ac98427cf7190b09167c758220001ef85f062fdd",
                    "nonce" : "0x46bd49ead42c89bb",
                    "number" : "0x01",
                    "parentHash" : "0x8f131fa00a91627034e948aa05872ca70fc3c7a9912318684738d7139f40130d",
                    "receiptTrie" : "0x0ee24bef0bd27c2b39f647841a1443a81d39e7f6a03a8376fb307b18e7da8a4c",
                    "stateRoot" : "0x8b79aab9fe48a6ea1373caa63995f404004a7e8265403a94b888db5b4cb25c27",
                    "timestamp" : "0x03e8",
                    "transactionsTrie" : "0x59652e5662eb625efd106d67b9b25d3c12a15e69494d1d24f59d867c211f6761",
                    "uncleHash" : "0x1dcc4de8dec75d7aab85b567b6ccd41ad312451b948a7413f0a142fd40d49347"
                },
                "rlp" : "0xf90260f901f8a08f131fa00a91627034e948aa05872ca70fc3c7a9912318684738d7139f40130da01dcc4de8dec75d7aab85b567b6ccd41ad312451b948a7413f0a142fd40d49347942adc25665018aa1fe0e6bc666dac8fc2697ff9baa08b79aab9fe48a6ea1373caa63995f404004a7e8265403a94b888db5b4cb25c27a059652e5662eb625efd106d67b9b25d3c12a15e69494d1d24f59d867c211f6761a00ee24bef0bd27c2b39f647841a1443a81d39e7f6a03a8376fb307b18e7da8a4cb9010000000000000000000000000000000000000000000000000000000000000000000000000000000000000000000000000000000000000000000000000000000000000000000000000000000000000000000000000000000000000000000000000000000000000000000000000000000000000000000000000000000000000000000000000000000000000000000000000000000000000000000000000000000000000000000000000000000000000000000000000000000000000000000000000000000000000000000000000000000000000000000000000000000000000000000000000000000000000000000000000000000000000000000000000000000000830200000183989680830927c08203e880a0eb20046e88307d78e17d0c84ac98427cf7190b09167c758220001ef85f062fdd8846bd49ead42c89bbf862f8608001830927c094b94f5374fce5edbc8e2a8697c15331677e6ebf0b80801ba08d0699f23d032b86db35ed7bb39c2357bec870fbfbe7db30b1795d320d8965c6a002f578fd949e84f0dc1307f5dd714c9a7158b31891d43f45459edcb52e345f7cc0",
                "transactions" : [
                    {
                        "data" : "",
                        "gasLimit" : "0x0927c0",
                        "gasPrice" : "0x01",
                        "nonce" : "0x00",
                        "r" : "0x8d0699f23d032b86db35ed7bb39c2357bec870fbfbe7db30b1795d320d8965c6",
                        "s" : "0x02f578fd949e84f0dc1307f5dd714c9a7158b31891d43f45459edcb52e345f7c",
                        "to" : "0xb94f5374fce5edbc8e2a8697c15331677e6ebf0b",
                        "v" : "0x1b",
                        "value" : "0x00"
                    }
                ],
                "uncleHeaders" : [
                ]
            }
        ],
        "genesisBlockHeader" : {
            "bloom" : "0x00000000000000000000000000000000000000000000000000000000000000000000000000000000000000000000000000000000000000000000000000000000000000000000000000000000000000000000000000000000000000000000000000000000000000000000000000000000000000000000000000000000000000000000000000000000000000000000000000000000000000000000000000000000000000000000000000000000000000000000000000000000000000000000000000000000000000000000000000000000000000000000000000000000000000000000000000000000000000000000000000000000000000000000000000000000",
            "coinbase" : "0x2adc25665018aa1fe0e6bc666dac8fc2697ff9ba",
            "difficulty" : "0x020000",
            "extraData" : "0x42",
            "gasLimit" : "0x989680",
            "gasUsed" : "0x00",
            "hash" : "0x8f131fa00a91627034e948aa05872ca70fc3c7a9912318684738d7139f40130d",
            "mixHash" : "0x56e81f171bcc55a6ff8345e692c0f86e5b48e01b996cadc001622fb5e363b421",
            "nonce" : "0x0102030405060708",
            "number" : "0x00",
            "parentHash" : "0x0000000000000000000000000000000000000000000000000000000000000000",
            "receiptTrie" : "0x56e81f171bcc55a6ff8345e692c0f86e5b48e01b996cadc001622fb5e363b421",
            "stateRoot" : "0x0724373379ac54e8416a38e60b623eb362c06dce43ff7cfba0c1aca91ff3cc86",
            "timestamp" : "0x03b6",
            "transactionsTrie" : "0x56e81f171bcc55a6ff8345e692c0f86e5b48e01b996cadc001622fb5e363b421",
            "uncleHash" : "0x1dcc4de8dec75d7aab85b567b6ccd41ad312451b948a7413f0a142fd40d49347"
        },
        "genesisRLP" : "0xf901faf901f5a00000000000000000000000000000000000000000000000000000000000000000a01dcc4de8dec75d7aab85b567b6ccd41ad312451b948a7413f0a142fd40d49347942adc25665018aa1fe0e6bc666dac8fc2697ff9baa00724373379ac54e8416a38e60b623eb362c06dce43ff7cfba0c1aca91ff3cc86a056e81f171bcc55a6ff8345e692c0f86e5b48e01b996cadc001622fb5e363b421a056e81f171bcc55a6ff8345e692c0f86e5b48e01b996cadc001622fb5e363b421b9010000000000000000000000000000000000000000000000000000000000000000000000000000000000000000000000000000000000000000000000000000000000000000000000000000000000000000000000000000000000000000000000000000000000000000000000000000000000000000000000000000000000000000000000000000000000000000000000000000000000000000000000000000000000000000000000000000000000000000000000000000000000000000000000000000000000000000000000000000000000000000000000000000000000000000000000000000000000000000000000000000000000000000000000000000000000830200008083989680808203b642a056e81f171bcc55a6ff8345e692c0f86e5b48e01b996cadc001622fb5e363b421880102030405060708c0c0",
        "lastblockhash" : "0x459163aad17d4a503020ffffc146478a768a859318189e1d3b7bf6ed2646b841",
        "network" : "Frontier",
        "postState" : {
            "0x1000000000000000000000000000000000000105" : {
                "balance" : "0x00",
                "code" : "0x6012600055",
                "nonce" : "0x00",
                "storage" : {
                }
            },
            "0x2adc25665018aa1fe0e6bc666dac8fc2697ff9ba" : {
                "balance" : "0x4563918244fd27c0",
                "code" : "",
                "nonce" : "0x00",
                "storage" : {
                }
            },
            "0xa94f5374fce5edbc8e2a8697c15331677e6ebf0b" : {
                "balance" : "0xe8d49be840",
                "code" : "",
                "nonce" : "0x01",
                "storage" : {
                }
            },
            "0xb94f5374fce5edbc8e2a8697c15331677e6ebf0b" : {
                "balance" : "0x00",
                "code" : "0x5a60085560ff60ff60ff60ff731000000000000000000000000000000000000105620927c0f4600955",
                "nonce" : "0x00",
                "storage" : {
                }
            }
        },
        "pre" : {
            "0x1000000000000000000000000000000000000105" : {
                "balance" : "0x00",
                "code" : "0x6012600055",
                "nonce" : "0x00",
                "storage" : {
                }
            },
            "0xa94f5374fce5edbc8e2a8697c15331677e6ebf0b" : {
                "balance" : "0xe8d4a51000",
                "code" : "",
                "nonce" : "0x00",
                "storage" : {
                }
            },
            "0xb94f5374fce5edbc8e2a8697c15331677e6ebf0b" : {
                "balance" : "0x00",
                "code" : "0x5a60085560ff60ff60ff60ff731000000000000000000000000000000000000105620927c0f4600955",
                "nonce" : "0x00",
                "storage" : {
                }
            }
        }
    },
    "DelegateCallOnEIPWithMemExpandingCalls_d0g0v0_Homestead" : {
        "_info" : {
            "comment" : "",
            "filledwith" : "cpp-1.3.0+commit.6e0ce939.Linux.g++",
            "lllcversion" : "Version: 0.4.18-develop.2017.9.25+commit.a72237f2.Linux.g++",
            "source" : "src/BlockchainTestsFiller/GeneralStateTests/stMemExpandingEIP150Calls/DelegateCallOnEIPWithMemExpandingCalls_d0g0v0Filler.json",
            "sourceHash" : "adeb8f01960fe670397b6bb4c7ceee3a0bacab741ff7d0c34febd27ca03750f5"
        },
        "blocks" : [
            {
                "blockHeader" : {
                    "bloom" : "0x00000000000000000000000000000000000000000000000000000000000000000000000000000000000000000000000000000000000000000000000000000000000000000000000000000000000000000000000000000000000000000000000000000000000000000000000000000000000000000000000000000000000000000000000000000000000000000000000000000000000000000000000000000000000000000000000000000000000000000000000000000000000000000000000000000000000000000000000000000000000000000000000000000000000000000000000000000000000000000000000000000000000000000000000000000000",
                    "coinbase" : "0x2adc25665018aa1fe0e6bc666dac8fc2697ff9ba",
                    "difficulty" : "0x020000",
                    "extraData" : "",
                    "gasLimit" : "0x989680",
                    "gasUsed" : "0x0927c0",
                    "hash" : "0x6f4d4d7e58e5d98057300572ab2581846b4b051f9aca64c59128c22c07a1ee48",
                    "mixHash" : "0x82396c62198bc67f76f570d7acb7ac89d6c0bc2302bf27dacbb9622e1d2862a0",
                    "nonce" : "0x5d5aa2e5172e34de",
                    "number" : "0x01",
                    "parentHash" : "0x8f131fa00a91627034e948aa05872ca70fc3c7a9912318684738d7139f40130d",
                    "receiptTrie" : "0x0ee24bef0bd27c2b39f647841a1443a81d39e7f6a03a8376fb307b18e7da8a4c",
                    "stateRoot" : "0x8b79aab9fe48a6ea1373caa63995f404004a7e8265403a94b888db5b4cb25c27",
                    "timestamp" : "0x03e8",
                    "transactionsTrie" : "0x59652e5662eb625efd106d67b9b25d3c12a15e69494d1d24f59d867c211f6761",
                    "uncleHash" : "0x1dcc4de8dec75d7aab85b567b6ccd41ad312451b948a7413f0a142fd40d49347"
                },
                "rlp" : "0xf90260f901f8a08f131fa00a91627034e948aa05872ca70fc3c7a9912318684738d7139f40130da01dcc4de8dec75d7aab85b567b6ccd41ad312451b948a7413f0a142fd40d49347942adc25665018aa1fe0e6bc666dac8fc2697ff9baa08b79aab9fe48a6ea1373caa63995f404004a7e8265403a94b888db5b4cb25c27a059652e5662eb625efd106d67b9b25d3c12a15e69494d1d24f59d867c211f6761a00ee24bef0bd27c2b39f647841a1443a81d39e7f6a03a8376fb307b18e7da8a4cb9010000000000000000000000000000000000000000000000000000000000000000000000000000000000000000000000000000000000000000000000000000000000000000000000000000000000000000000000000000000000000000000000000000000000000000000000000000000000000000000000000000000000000000000000000000000000000000000000000000000000000000000000000000000000000000000000000000000000000000000000000000000000000000000000000000000000000000000000000000000000000000000000000000000000000000000000000000000000000000000000000000000000000000000000000000000000830200000183989680830927c08203e880a082396c62198bc67f76f570d7acb7ac89d6c0bc2302bf27dacbb9622e1d2862a0885d5aa2e5172e34def862f8608001830927c094b94f5374fce5edbc8e2a8697c15331677e6ebf0b80801ba08d0699f23d032b86db35ed7bb39c2357bec870fbfbe7db30b1795d320d8965c6a002f578fd949e84f0dc1307f5dd714c9a7158b31891d43f45459edcb52e345f7cc0",
                "transactions" : [
                    {
                        "data" : "",
                        "gasLimit" : "0x0927c0",
                        "gasPrice" : "0x01",
                        "nonce" : "0x00",
                        "r" : "0x8d0699f23d032b86db35ed7bb39c2357bec870fbfbe7db30b1795d320d8965c6",
                        "s" : "0x02f578fd949e84f0dc1307f5dd714c9a7158b31891d43f45459edcb52e345f7c",
                        "to" : "0xb94f5374fce5edbc8e2a8697c15331677e6ebf0b",
                        "v" : "0x1b",
                        "value" : "0x00"
                    }
                ],
                "uncleHeaders" : [
                ]
            }
        ],
        "genesisBlockHeader" : {
            "bloom" : "0x00000000000000000000000000000000000000000000000000000000000000000000000000000000000000000000000000000000000000000000000000000000000000000000000000000000000000000000000000000000000000000000000000000000000000000000000000000000000000000000000000000000000000000000000000000000000000000000000000000000000000000000000000000000000000000000000000000000000000000000000000000000000000000000000000000000000000000000000000000000000000000000000000000000000000000000000000000000000000000000000000000000000000000000000000000000",
            "coinbase" : "0x2adc25665018aa1fe0e6bc666dac8fc2697ff9ba",
            "difficulty" : "0x020000",
            "extraData" : "0x42",
            "gasLimit" : "0x989680",
            "gasUsed" : "0x00",
            "hash" : "0x8f131fa00a91627034e948aa05872ca70fc3c7a9912318684738d7139f40130d",
            "mixHash" : "0x56e81f171bcc55a6ff8345e692c0f86e5b48e01b996cadc001622fb5e363b421",
            "nonce" : "0x0102030405060708",
            "number" : "0x00",
            "parentHash" : "0x0000000000000000000000000000000000000000000000000000000000000000",
            "receiptTrie" : "0x56e81f171bcc55a6ff8345e692c0f86e5b48e01b996cadc001622fb5e363b421",
            "stateRoot" : "0x0724373379ac54e8416a38e60b623eb362c06dce43ff7cfba0c1aca91ff3cc86",
            "timestamp" : "0x03b6",
            "transactionsTrie" : "0x56e81f171bcc55a6ff8345e692c0f86e5b48e01b996cadc001622fb5e363b421",
            "uncleHash" : "0x1dcc4de8dec75d7aab85b567b6ccd41ad312451b948a7413f0a142fd40d49347"
        },
        "genesisRLP" : "0xf901faf901f5a00000000000000000000000000000000000000000000000000000000000000000a01dcc4de8dec75d7aab85b567b6ccd41ad312451b948a7413f0a142fd40d49347942adc25665018aa1fe0e6bc666dac8fc2697ff9baa00724373379ac54e8416a38e60b623eb362c06dce43ff7cfba0c1aca91ff3cc86a056e81f171bcc55a6ff8345e692c0f86e5b48e01b996cadc001622fb5e363b421a056e81f171bcc55a6ff8345e692c0f86e5b48e01b996cadc001622fb5e363b421b9010000000000000000000000000000000000000000000000000000000000000000000000000000000000000000000000000000000000000000000000000000000000000000000000000000000000000000000000000000000000000000000000000000000000000000000000000000000000000000000000000000000000000000000000000000000000000000000000000000000000000000000000000000000000000000000000000000000000000000000000000000000000000000000000000000000000000000000000000000000000000000000000000000000000000000000000000000000000000000000000000000000000000000000000000000000000830200008083989680808203b642a056e81f171bcc55a6ff8345e692c0f86e5b48e01b996cadc001622fb5e363b421880102030405060708c0c0",
        "lastblockhash" : "0x6f4d4d7e58e5d98057300572ab2581846b4b051f9aca64c59128c22c07a1ee48",
        "network" : "Homestead",
        "postState" : {
            "0x1000000000000000000000000000000000000105" : {
                "balance" : "0x00",
                "code" : "0x6012600055",
                "nonce" : "0x00",
                "storage" : {
                }
            },
            "0x2adc25665018aa1fe0e6bc666dac8fc2697ff9ba" : {
                "balance" : "0x4563918244fd27c0",
                "code" : "",
                "nonce" : "0x00",
                "storage" : {
                }
            },
            "0xa94f5374fce5edbc8e2a8697c15331677e6ebf0b" : {
                "balance" : "0xe8d49be840",
                "code" : "",
                "nonce" : "0x01",
                "storage" : {
                }
            },
            "0xb94f5374fce5edbc8e2a8697c15331677e6ebf0b" : {
                "balance" : "0x00",
                "code" : "0x5a60085560ff60ff60ff60ff731000000000000000000000000000000000000105620927c0f4600955",
                "nonce" : "0x00",
                "storage" : {
                }
            }
        },
        "pre" : {
            "0x1000000000000000000000000000000000000105" : {
                "balance" : "0x00",
                "code" : "0x6012600055",
                "nonce" : "0x00",
                "storage" : {
                }
            },
            "0xa94f5374fce5edbc8e2a8697c15331677e6ebf0b" : {
                "balance" : "0xe8d4a51000",
                "code" : "",
                "nonce" : "0x00",
                "storage" : {
                }
            },
            "0xb94f5374fce5edbc8e2a8697c15331677e6ebf0b" : {
                "balance" : "0x00",
                "code" : "0x5a60085560ff60ff60ff60ff731000000000000000000000000000000000000105620927c0f4600955",
                "nonce" : "0x00",
                "storage" : {
                }
            }
        }
    }
}