{
    "randomStatetest572_d0g0v0_Byzantium" : {
        "_info" : {
            "comment" : "",
            "filledwith" : "cpp-1.3.0+commit.4e101574.Linux.g++",
            "lllcversion" : "Version: 0.4.18-develop.2017.10.11+commit.81f9f86c.Linux.g++",
            "source" : "src/BlockchainTestsFiller/GeneralStateTests/stRandom2/randomStatetest572_d0g0v0Filler.json",
            "sourceHash" : "509b5986c0c6d7d8737ca644894a3ceeeae11bf7aadd7efeb6f4868d4ae9b746"
        },
        "blocks" : [
            {
                "blockHeader" : {
                    "bloom" : "0x00000000000000001000000000000000000000000000000000000000000000000000000000000000000000000000000000000000000000000000000000000000000000000000000000000000000000000000000000000000000000000000000000000010000000000000000000000000000000000000000000000000000000000000000000000000000000002000000000000000000000000000000000000000000000000000000004000000000000000000000000000000000000000000000000000000000000000000000000000000000000000000000000000000000000000000000040080000000000000000000000000000000000000000000000000000",
                    "coinbase" : "0x945304eb96065b2a98b57a48a06ae28d285a71b5",
                    "difficulty" : "0x020000",
                    "extraData" : "",
                    "gasLimit" : "0x7fffffffffffffff",
                    "gasUsed" : "0x7f84",
                    "hash" : "0x06c94526fe89eb66d078296125826e8bf7424e1dfa5598197182415ebc6cd11b",
                    "mixHash" : "0xe4b260273b8e31e9761ba94c4be7ad74482accb0722377b1cecd6f1d378768cb",
                    "nonce" : "0xdd0a3411acd09f49",
                    "number" : "0x01",
                    "parentHash" : "0x82c052a703c437c17ceb79c38ccdc89e237f3e80be0ebe1a5a629f5d47d66f80",
                    "receiptTrie" : "0x563f9075c052bb1df9e327e4e294d261dd7e55cb2c073bb14abc6b2433dd09e1",
                    "stateRoot" : "0xde803138be781ac17171aeaf681c9d811ef6d4b4cbdb8b6738dca623e42abc06",
                    "timestamp" : "0x03e8",
                    "transactionsTrie" : "0x988267e6fff28c0b124134639e70442a5c783585dd0a546de2f5616138b9df61",
                    "uncleHash" : "0x1dcc4de8dec75d7aab85b567b6ccd41ad312451b948a7413f0a142fd40d49347"
                },
                "rlp" : "0xf90318f901fca082c052a703c437c17ceb79c38ccdc89e237f3e80be0ebe1a5a629f5d47d66f80a01dcc4de8dec75d7aab85b567b6ccd41ad312451b948a7413f0a142fd40d4934794945304eb96065b2a98b57a48a06ae28d285a71b5a0de803138be781ac17171aeaf681c9d811ef6d4b4cbdb8b6738dca623e42abc06a0988267e6fff28c0b124134639e70442a5c783585dd0a546de2f5616138b9df61a0563f9075c052bb1df9e327e4e294d261dd7e55cb2c073bb14abc6b2433dd09e1b90100000000000000000010000000000000000000000000000000000000000000000000000000000000000000000000000000000000000000000000000000000000000000000000000000000000000000000000000000000000000000000000000000000000100000000000000000000000000000000000000000000000000000000000000000000000000000000020000000000000000000000000000000000000000000000000000000040000000000000000000000000000000000000000000000000000000000000000000000000000000000000000000000000000000000000000000000400800000000000000000000000000000000000000000000000000008302000001887fffffffffffffff827f848203e880a0e4b260273b8e31e9761ba94c4be7ad74482accb0722377b1cecd6f1d378768cb88dd0a3411acd09f49f90115f901128001843291d5d594095e7baea6a6c7c4c2dfeb977efac326af552d878473d5af9cb8ac457f000000000000000000000000ffffffffffffffffffffffffffffffffffffffff7ffffffffffffffffffffffffffffffffffffffffffffffffffffffffffffffffe7ffffffffffffffffffffffffffffffffffffffffffffffffffffffffffffffffe7ffffffffffffffffffffffffffffffffffffffffffffffffffffffffffffffffe097f000000000000000000000000945304eb96065b2a98b57a48a06ae28d285a71b5440ba13b381ba0f6d664b914c8f891c2db28c8e6cb52f94eea16c8ef3aaafbccc6868722a3aee2a07ec8d74ee37af9b021081b0f2b923a00b5f37377290f33bb8452bba1df0ae8dec0",
                "transactions" : [
                    {
                        "data" : "0x457f000000000000000000000000ffffffffffffffffffffffffffffffffffffffff7ffffffffffffffffffffffffffffffffffffffffffffffffffffffffffffffffe7ffffffffffffffffffffffffffffffffffffffffffffffffffffffffffffffffe7ffffffffffffffffffffffffffffffffffffffffffffffffffffffffffffffffe097f000000000000000000000000945304eb96065b2a98b57a48a06ae28d285a71b5440ba13b38",
                        "gasLimit" : "0x3291d5d5",
                        "gasPrice" : "0x01",
                        "nonce" : "0x00",
                        "r" : "0xf6d664b914c8f891c2db28c8e6cb52f94eea16c8ef3aaafbccc6868722a3aee2",
                        "s" : "0x7ec8d74ee37af9b021081b0f2b923a00b5f37377290f33bb8452bba1df0ae8de",
                        "to" : "0x095e7baea6a6c7c4c2dfeb977efac326af552d87",
                        "v" : "0x1b",
                        "value" : "0x73d5af9c"
                    }
                ],
                "uncleHeaders" : [
                ]
            }
        ],
        "genesisBlockHeader" : {
            "bloom" : "0x00000000000000000000000000000000000000000000000000000000000000000000000000000000000000000000000000000000000000000000000000000000000000000000000000000000000000000000000000000000000000000000000000000000000000000000000000000000000000000000000000000000000000000000000000000000000000000000000000000000000000000000000000000000000000000000000000000000000000000000000000000000000000000000000000000000000000000000000000000000000000000000000000000000000000000000000000000000000000000000000000000000000000000000000000000000",
            "coinbase" : "0x945304eb96065b2a98b57a48a06ae28d285a71b5",
            "difficulty" : "0x020000",
            "extraData" : "0x42",
            "gasLimit" : "0x7fffffffffffffff",
            "gasUsed" : "0x00",
            "hash" : "0x82c052a703c437c17ceb79c38ccdc89e237f3e80be0ebe1a5a629f5d47d66f80",
            "mixHash" : "0x56e81f171bcc55a6ff8345e692c0f86e5b48e01b996cadc001622fb5e363b421",
            "nonce" : "0x0102030405060708",
            "number" : "0x00",
            "parentHash" : "0x0000000000000000000000000000000000000000000000000000000000000000",
            "receiptTrie" : "0x56e81f171bcc55a6ff8345e692c0f86e5b48e01b996cadc001622fb5e363b421",
            "stateRoot" : "0xabad7f21fb0fa620fb04fc5a7fb500a87fea77050ad33c24966166b9a6daa3e0",
            "timestamp" : "0x03b6",
            "transactionsTrie" : "0x56e81f171bcc55a6ff8345e692c0f86e5b48e01b996cadc001622fb5e363b421",
            "uncleHash" : "0x1dcc4de8dec75d7aab85b567b6ccd41ad312451b948a7413f0a142fd40d49347"
        },
        "genesisRLP" : "0xf901fff901faa00000000000000000000000000000000000000000000000000000000000000000a01dcc4de8dec75d7aab85b567b6ccd41ad312451b948a7413f0a142fd40d4934794945304eb96065b2a98b57a48a06ae28d285a71b5a0abad7f21fb0fa620fb04fc5a7fb500a87fea77050ad33c24966166b9a6daa3e0a056e81f171bcc55a6ff8345e692c0f86e5b48e01b996cadc001622fb5e363b421a056e81f171bcc55a6ff8345e692c0f86e5b48e01b996cadc001622fb5e363b421b90100000000000000000000000000000000000000000000000000000000000000000000000000000000000000000000000000000000000000000000000000000000000000000000000000000000000000000000000000000000000000000000000000000000000000000000000000000000000000000000000000000000000000000000000000000000000000000000000000000000000000000000000000000000000000000000000000000000000000000000000000000000000000000000000000000000000000000000000000000000000000000000000000000000000000000000000000000000000000000000000000000000000000000000000000000000008302000080887fffffffffffffff808203b642a056e81f171bcc55a6ff8345e692c0f86e5b48e01b996cadc001622fb5e363b421880102030405060708c0c0",
        "lastblockhash" : "0x06c94526fe89eb66d078296125826e8bf7424e1dfa5598197182415ebc6cd11b",
        "network" : "Byzantium",
        "postState" : {
            "0x095e7baea6a6c7c4c2dfeb977efac326af552d87" : {
                "balance" : "0x73d5af9c",
                "code" : "0x457f000000000000000000000000ffffffffffffffffffffffffffffffffffffffff7ffffffffffffffffffffffffffffffffffffffffffffffffffffffffffffffffe7ffffffffffffffffffffffffffffffffffffffffffffffffffffffffffffffffe7ffffffffffffffffffffffffffffffffffffffffffffffffffffffffffffffffe097f000000000000000000000000945304eb96065b2a98b57a48a06ae28d285a71b5440ba13b38",
                "nonce" : "0x00",
                "storage" : {
                }
            },
            "0x945304eb96065b2a98b57a48a06ae28d285a71b5" : {
                "balance" : "0x29a2241af62c7fb2",
                "code" : "0x6000355415600957005b60203560003555",
                "nonce" : "0x00",
                "storage" : {
                }
            },
            "0xa94f5374fce5edbc8e2a8697c15331677e6ebf0b" : {
                "balance" : "0x0de0b6b3338dd0e0",
                "code" : "",
                "nonce" : "0x01",
                "storage" : {
                }
            }
        },
        "pre" : {
            "0x095e7baea6a6c7c4c2dfeb977efac326af552d87" : {
                "balance" : "0x00",
                "code" : "0x457f000000000000000000000000ffffffffffffffffffffffffffffffffffffffff7ffffffffffffffffffffffffffffffffffffffffffffffffffffffffffffffffe7ffffffffffffffffffffffffffffffffffffffffffffffffffffffffffffffffe7ffffffffffffffffffffffffffffffffffffffffffffffffffffffffffffffffe097f000000000000000000000000945304eb96065b2a98b57a48a06ae28d285a71b5440ba13b38",
                "nonce" : "0x00",
                "storage" : {
                }
            },
            "0x945304eb96065b2a98b57a48a06ae28d285a71b5" : {
                "balance" : "0x2e",
                "code" : "0x6000355415600957005b60203560003555",
                "nonce" : "0x00",
                "storage" : {
                }
            },
            "0xa94f5374fce5edbc8e2a8697c15331677e6ebf0b" : {
                "balance" : "0x0de0b6b3a7640000",
                "code" : "",
                "nonce" : "0x00",
                "storage" : {
                }
            }
        }
    },
    "randomStatetest572_d0g0v0_EIP150" : {
        "_info" : {
            "comment" : "",
            "filledwith" : "cpp-1.3.0+commit.4e101574.Linux.g++",
            "lllcversion" : "Version: 0.4.18-develop.2017.10.11+commit.81f9f86c.Linux.g++",
            "source" : "src/BlockchainTestsFiller/GeneralStateTests/stRandom2/randomStatetest572_d0g0v0Filler.json",
            "sourceHash" : "509b5986c0c6d7d8737ca644894a3ceeeae11bf7aadd7efeb6f4868d4ae9b746"
        },
        "blocks" : [
            {
                "blockHeader" : {
                    "bloom" : "0x00000000000000001000000000000000000000000000000000000000000000000000000000000000000000000000000000000000000000000000000000000000000000000000000000000000000000000000000000000000000000000000000000000010000000000000000000000000000000000000000000000000000000000000000000000000000000002000000000000000000000000000000000000000000000000000000004000000000000000000000000000000000000000000000000000000000000000000000000000000000000000000000000000000000000000000000040080000000000000000000000000000000000000000000000000000",
                    "coinbase" : "0x945304eb96065b2a98b57a48a06ae28d285a71b5",
                    "difficulty" : "0x020000",
                    "extraData" : "",
                    "gasLimit" : "0x7fffffffffffffff",
                    "gasUsed" : "0x7f84",
                    "hash" : "0xf970d6045cb794be16a0d2b5cab484b2cbacfb164ab5c2c4b93901175d7ab49c",
                    "mixHash" : "0x04e329de9f290658aa1a6f1f84e44075fa4e94015daac9d515c565126d240ec8",
                    "nonce" : "0x7f0317351ca689c8",
                    "number" : "0x01",
                    "parentHash" : "0x82c052a703c437c17ceb79c38ccdc89e237f3e80be0ebe1a5a629f5d47d66f80",
                    "receiptTrie" : "0x111306405d2377ebb6be4981315d59f51522085ec74fa427e676c9c71950969c",
                    "stateRoot" : "0x28585d7654a65e00c2d9046f916fe0f64c460ea6bbdcc4fe2505b6cf366e257f",
                    "timestamp" : "0x03e8",
                    "transactionsTrie" : "0x988267e6fff28c0b124134639e70442a5c783585dd0a546de2f5616138b9df61",
                    "uncleHash" : "0x1dcc4de8dec75d7aab85b567b6ccd41ad312451b948a7413f0a142fd40d49347"
                },
                "rlp" : "0xf90318f901fca082c052a703c437c17ceb79c38ccdc89e237f3e80be0ebe1a5a629f5d47d66f80a01dcc4de8dec75d7aab85b567b6ccd41ad312451b948a7413f0a142fd40d4934794945304eb96065b2a98b57a48a06ae28d285a71b5a028585d7654a65e00c2d9046f916fe0f64c460ea6bbdcc4fe2505b6cf366e257fa0988267e6fff28c0b124134639e70442a5c783585dd0a546de2f5616138b9df61a0111306405d2377ebb6be4981315d59f51522085ec74fa427e676c9c71950969cb90100000000000000000010000000000000000000000000000000000000000000000000000000000000000000000000000000000000000000000000000000000000000000000000000000000000000000000000000000000000000000000000000000000000100000000000000000000000000000000000000000000000000000000000000000000000000000000020000000000000000000000000000000000000000000000000000000040000000000000000000000000000000000000000000000000000000000000000000000000000000000000000000000000000000000000000000000400800000000000000000000000000000000000000000000000000008302000001887fffffffffffffff827f848203e880a004e329de9f290658aa1a6f1f84e44075fa4e94015daac9d515c565126d240ec8887f0317351ca689c8f90115f901128001843291d5d594095e7baea6a6c7c4c2dfeb977efac326af552d878473d5af9cb8ac457f000000000000000000000000ffffffffffffffffffffffffffffffffffffffff7ffffffffffffffffffffffffffffffffffffffffffffffffffffffffffffffffe7ffffffffffffffffffffffffffffffffffffffffffffffffffffffffffffffffe7ffffffffffffffffffffffffffffffffffffffffffffffffffffffffffffffffe097f000000000000000000000000945304eb96065b2a98b57a48a06ae28d285a71b5440ba13b381ba0f6d664b914c8f891c2db28c8e6cb52f94eea16c8ef3aaafbccc6868722a3aee2a07ec8d74ee37af9b021081b0f2b923a00b5f37377290f33bb8452bba1df0ae8dec0",
                "transactions" : [
                    {
                        "data" : "0x457f000000000000000000000000ffffffffffffffffffffffffffffffffffffffff7ffffffffffffffffffffffffffffffffffffffffffffffffffffffffffffffffe7ffffffffffffffffffffffffffffffffffffffffffffffffffffffffffffffffe7ffffffffffffffffffffffffffffffffffffffffffffffffffffffffffffffffe097f000000000000000000000000945304eb96065b2a98b57a48a06ae28d285a71b5440ba13b38",
                        "gasLimit" : "0x3291d5d5",
                        "gasPrice" : "0x01",
                        "nonce" : "0x00",
                        "r" : "0xf6d664b914c8f891c2db28c8e6cb52f94eea16c8ef3aaafbccc6868722a3aee2",
                        "s" : "0x7ec8d74ee37af9b021081b0f2b923a00b5f37377290f33bb8452bba1df0ae8de",
                        "to" : "0x095e7baea6a6c7c4c2dfeb977efac326af552d87",
                        "v" : "0x1b",
                        "value" : "0x73d5af9c"
                    }
                ],
                "uncleHeaders" : [
                ]
            }
        ],
        "genesisBlockHeader" : {
            "bloom" : "0x00000000000000000000000000000000000000000000000000000000000000000000000000000000000000000000000000000000000000000000000000000000000000000000000000000000000000000000000000000000000000000000000000000000000000000000000000000000000000000000000000000000000000000000000000000000000000000000000000000000000000000000000000000000000000000000000000000000000000000000000000000000000000000000000000000000000000000000000000000000000000000000000000000000000000000000000000000000000000000000000000000000000000000000000000000000",
            "coinbase" : "0x945304eb96065b2a98b57a48a06ae28d285a71b5",
            "difficulty" : "0x020000",
            "extraData" : "0x42",
            "gasLimit" : "0x7fffffffffffffff",
            "gasUsed" : "0x00",
            "hash" : "0x82c052a703c437c17ceb79c38ccdc89e237f3e80be0ebe1a5a629f5d47d66f80",
            "mixHash" : "0x56e81f171bcc55a6ff8345e692c0f86e5b48e01b996cadc001622fb5e363b421",
            "nonce" : "0x0102030405060708",
            "number" : "0x00",
            "parentHash" : "0x0000000000000000000000000000000000000000000000000000000000000000",
            "receiptTrie" : "0x56e81f171bcc55a6ff8345e692c0f86e5b48e01b996cadc001622fb5e363b421",
            "stateRoot" : "0xabad7f21fb0fa620fb04fc5a7fb500a87fea77050ad33c24966166b9a6daa3e0",
            "timestamp" : "0x03b6",
            "transactionsTrie" : "0x56e81f171bcc55a6ff8345e692c0f86e5b48e01b996cadc001622fb5e363b421",
            "uncleHash" : "0x1dcc4de8dec75d7aab85b567b6ccd41ad312451b948a7413f0a142fd40d49347"
        },
        "genesisRLP" : "0xf901fff901faa00000000000000000000000000000000000000000000000000000000000000000a01dcc4de8dec75d7aab85b567b6ccd41ad312451b948a7413f0a142fd40d4934794945304eb96065b2a98b57a48a06ae28d285a71b5a0abad7f21fb0fa620fb04fc5a7fb500a87fea77050ad33c24966166b9a6daa3e0a056e81f171bcc55a6ff8345e692c0f86e5b48e01b996cadc001622fb5e363b421a056e81f171bcc55a6ff8345e692c0f86e5b48e01b996cadc001622fb5e363b421b90100000000000000000000000000000000000000000000000000000000000000000000000000000000000000000000000000000000000000000000000000000000000000000000000000000000000000000000000000000000000000000000000000000000000000000000000000000000000000000000000000000000000000000000000000000000000000000000000000000000000000000000000000000000000000000000000000000000000000000000000000000000000000000000000000000000000000000000000000000000000000000000000000000000000000000000000000000000000000000000000000000000000000000000000000000000008302000080887fffffffffffffff808203b642a056e81f171bcc55a6ff8345e692c0f86e5b48e01b996cadc001622fb5e363b421880102030405060708c0c0",
        "lastblockhash" : "0xf970d6045cb794be16a0d2b5cab484b2cbacfb164ab5c2c4b93901175d7ab49c",
        "network" : "EIP150",
        "postState" : {
            "0x095e7baea6a6c7c4c2dfeb977efac326af552d87" : {
                "balance" : "0x73d5af9c",
                "code" : "0x457f000000000000000000000000ffffffffffffffffffffffffffffffffffffffff7ffffffffffffffffffffffffffffffffffffffffffffffffffffffffffffffffe7ffffffffffffffffffffffffffffffffffffffffffffffffffffffffffffffffe7ffffffffffffffffffffffffffffffffffffffffffffffffffffffffffffffffe097f000000000000000000000000945304eb96065b2a98b57a48a06ae28d285a71b5440ba13b38",
                "nonce" : "0x00",
                "storage" : {
                }
            },
            "0x945304eb96065b2a98b57a48a06ae28d285a71b5" : {
                "balance" : "0x4563918244f47fb2",
                "code" : "0x6000355415600957005b60203560003555",
                "nonce" : "0x00",
                "storage" : {
                }
            },
            "0xa94f5374fce5edbc8e2a8697c15331677e6ebf0b" : {
                "balance" : "0x0de0b6b3338dd0e0",
                "code" : "",
                "nonce" : "0x01",
                "storage" : {
                }
            }
        },
        "pre" : {
            "0x095e7baea6a6c7c4c2dfeb977efac326af552d87" : {
                "balance" : "0x00",
                "code" : "0x457f000000000000000000000000ffffffffffffffffffffffffffffffffffffffff7ffffffffffffffffffffffffffffffffffffffffffffffffffffffffffffffffe7ffffffffffffffffffffffffffffffffffffffffffffffffffffffffffffffffe7ffffffffffffffffffffffffffffffffffffffffffffffffffffffffffffffffe097f000000000000000000000000945304eb96065b2a98b57a48a06ae28d285a71b5440ba13b38",
                "nonce" : "0x00",
                "storage" : {
                }
            },
            "0x945304eb96065b2a98b57a48a06ae28d285a71b5" : {
                "balance" : "0x2e",
                "code" : "0x6000355415600957005b60203560003555",
                "nonce" : "0x00",
                "storage" : {
                }
            },
            "0xa94f5374fce5edbc8e2a8697c15331677e6ebf0b" : {
                "balance" : "0x0de0b6b3a7640000",
                "code" : "",
                "nonce" : "0x00",
                "storage" : {
                }
            }
        }
    },
    "randomStatetest572_d0g0v0_EIP158" : {
        "_info" : {
            "comment" : "",
            "filledwith" : "cpp-1.3.0+commit.4e101574.Linux.g++",
            "lllcversion" : "Version: 0.4.18-develop.2017.10.11+commit.81f9f86c.Linux.g++",
            "source" : "src/BlockchainTestsFiller/GeneralStateTests/stRandom2/randomStatetest572_d0g0v0Filler.json",
            "sourceHash" : "509b5986c0c6d7d8737ca644894a3ceeeae11bf7aadd7efeb6f4868d4ae9b746"
        },
        "blocks" : [
            {
                "blockHeader" : {
                    "bloom" : "0x00000000000000001000000000000000000000000000000000000000000000000000000000000000000000000000000000000000000000000000000000000000000000000000000000000000000000000000000000000000000000000000000000000010000000000000000000000000000000000000000000000000000000000000000000000000000000002000000000000000000000000000000000000000000000000000000004000000000000000000000000000000000000000000000000000000000000000000000000000000000000000000000000000000000000000000000040080000000000000000000000000000000000000000000000000000",
                    "coinbase" : "0x945304eb96065b2a98b57a48a06ae28d285a71b5",
                    "difficulty" : "0x020000",
                    "extraData" : "",
                    "gasLimit" : "0x7fffffffffffffff",
                    "gasUsed" : "0x7f84",
                    "hash" : "0x0b5a1f51215694fac224e5f16c5588cdf9c05c0e044171d07afb8048edb51302",
                    "mixHash" : "0x584f2d16b63eda418c60b5646d87bb732b208af9113ea2cc105413feb3c4eca3",
                    "nonce" : "0xfe379afde6b37950",
                    "number" : "0x01",
                    "parentHash" : "0x82c052a703c437c17ceb79c38ccdc89e237f3e80be0ebe1a5a629f5d47d66f80",
                    "receiptTrie" : "0x111306405d2377ebb6be4981315d59f51522085ec74fa427e676c9c71950969c",
                    "stateRoot" : "0x28585d7654a65e00c2d9046f916fe0f64c460ea6bbdcc4fe2505b6cf366e257f",
                    "timestamp" : "0x03e8",
                    "transactionsTrie" : "0x988267e6fff28c0b124134639e70442a5c783585dd0a546de2f5616138b9df61",
                    "uncleHash" : "0x1dcc4de8dec75d7aab85b567b6ccd41ad312451b948a7413f0a142fd40d49347"
                },
                "rlp" : "0xf90318f901fca082c052a703c437c17ceb79c38ccdc89e237f3e80be0ebe1a5a629f5d47d66f80a01dcc4de8dec75d7aab85b567b6ccd41ad312451b948a7413f0a142fd40d4934794945304eb96065b2a98b57a48a06ae28d285a71b5a028585d7654a65e00c2d9046f916fe0f64c460ea6bbdcc4fe2505b6cf366e257fa0988267e6fff28c0b124134639e70442a5c783585dd0a546de2f5616138b9df61a0111306405d2377ebb6be4981315d59f51522085ec74fa427e676c9c71950969cb90100000000000000000010000000000000000000000000000000000000000000000000000000000000000000000000000000000000000000000000000000000000000000000000000000000000000000000000000000000000000000000000000000000000100000000000000000000000000000000000000000000000000000000000000000000000000000000020000000000000000000000000000000000000000000000000000000040000000000000000000000000000000000000000000000000000000000000000000000000000000000000000000000000000000000000000000000400800000000000000000000000000000000000000000000000000008302000001887fffffffffffffff827f848203e880a0584f2d16b63eda418c60b5646d87bb732b208af9113ea2cc105413feb3c4eca388fe379afde6b37950f90115f901128001843291d5d594095e7baea6a6c7c4c2dfeb977efac326af552d878473d5af9cb8ac457f000000000000000000000000ffffffffffffffffffffffffffffffffffffffff7ffffffffffffffffffffffffffffffffffffffffffffffffffffffffffffffffe7ffffffffffffffffffffffffffffffffffffffffffffffffffffffffffffffffe7ffffffffffffffffffffffffffffffffffffffffffffffffffffffffffffffffe097f000000000000000000000000945304eb96065b2a98b57a48a06ae28d285a71b5440ba13b381ba0f6d664b914c8f891c2db28c8e6cb52f94eea16c8ef3aaafbccc6868722a3aee2a07ec8d74ee37af9b021081b0f2b923a00b5f37377290f33bb8452bba1df0ae8dec0",
                "transactions" : [
                    {
                        "data" : "0x457f000000000000000000000000ffffffffffffffffffffffffffffffffffffffff7ffffffffffffffffffffffffffffffffffffffffffffffffffffffffffffffffe7ffffffffffffffffffffffffffffffffffffffffffffffffffffffffffffffffe7ffffffffffffffffffffffffffffffffffffffffffffffffffffffffffffffffe097f000000000000000000000000945304eb96065b2a98b57a48a06ae28d285a71b5440ba13b38",
                        "gasLimit" : "0x3291d5d5",
                        "gasPrice" : "0x01",
                        "nonce" : "0x00",
                        "r" : "0xf6d664b914c8f891c2db28c8e6cb52f94eea16c8ef3aaafbccc6868722a3aee2",
                        "s" : "0x7ec8d74ee37af9b021081b0f2b923a00b5f37377290f33bb8452bba1df0ae8de",
                        "to" : "0x095e7baea6a6c7c4c2dfeb977efac326af552d87",
                        "v" : "0x1b",
                        "value" : "0x73d5af9c"
                    }
                ],
                "uncleHeaders" : [
                ]
            }
        ],
        "genesisBlockHeader" : {
            "bloom" : "0x00000000000000000000000000000000000000000000000000000000000000000000000000000000000000000000000000000000000000000000000000000000000000000000000000000000000000000000000000000000000000000000000000000000000000000000000000000000000000000000000000000000000000000000000000000000000000000000000000000000000000000000000000000000000000000000000000000000000000000000000000000000000000000000000000000000000000000000000000000000000000000000000000000000000000000000000000000000000000000000000000000000000000000000000000000000",
            "coinbase" : "0x945304eb96065b2a98b57a48a06ae28d285a71b5",
            "difficulty" : "0x020000",
            "extraData" : "0x42",
            "gasLimit" : "0x7fffffffffffffff",
            "gasUsed" : "0x00",
            "hash" : "0x82c052a703c437c17ceb79c38ccdc89e237f3e80be0ebe1a5a629f5d47d66f80",
            "mixHash" : "0x56e81f171bcc55a6ff8345e692c0f86e5b48e01b996cadc001622fb5e363b421",
            "nonce" : "0x0102030405060708",
            "number" : "0x00",
            "parentHash" : "0x0000000000000000000000000000000000000000000000000000000000000000",
            "receiptTrie" : "0x56e81f171bcc55a6ff8345e692c0f86e5b48e01b996cadc001622fb5e363b421",
            "stateRoot" : "0xabad7f21fb0fa620fb04fc5a7fb500a87fea77050ad33c24966166b9a6daa3e0",
            "timestamp" : "0x03b6",
            "transactionsTrie" : "0x56e81f171bcc55a6ff8345e692c0f86e5b48e01b996cadc001622fb5e363b421",
            "uncleHash" : "0x1dcc4de8dec75d7aab85b567b6ccd41ad312451b948a7413f0a142fd40d49347"
        },
        "genesisRLP" : "0xf901fff901faa00000000000000000000000000000000000000000000000000000000000000000a01dcc4de8dec75d7aab85b567b6ccd41ad312451b948a7413f0a142fd40d4934794945304eb96065b2a98b57a48a06ae28d285a71b5a0abad7f21fb0fa620fb04fc5a7fb500a87fea77050ad33c24966166b9a6daa3e0a056e81f171bcc55a6ff8345e692c0f86e5b48e01b996cadc001622fb5e363b421a056e81f171bcc55a6ff8345e692c0f86e5b48e01b996cadc001622fb5e363b421b90100000000000000000000000000000000000000000000000000000000000000000000000000000000000000000000000000000000000000000000000000000000000000000000000000000000000000000000000000000000000000000000000000000000000000000000000000000000000000000000000000000000000000000000000000000000000000000000000000000000000000000000000000000000000000000000000000000000000000000000000000000000000000000000000000000000000000000000000000000000000000000000000000000000000000000000000000000000000000000000000000000000000000000000000000000000008302000080887fffffffffffffff808203b642a056e81f171bcc55a6ff8345e692c0f86e5b48e01b996cadc001622fb5e363b421880102030405060708c0c0",
        "lastblockhash" : "0x0b5a1f51215694fac224e5f16c5588cdf9c05c0e044171d07afb8048edb51302",
        "network" : "EIP158",
        "postState" : {
            "0x095e7baea6a6c7c4c2dfeb977efac326af552d87" : {
                "balance" : "0x73d5af9c",
                "code" : "0x457f000000000000000000000000ffffffffffffffffffffffffffffffffffffffff7ffffffffffffffffffffffffffffffffffffffffffffffffffffffffffffffffe7ffffffffffffffffffffffffffffffffffffffffffffffffffffffffffffffffe7ffffffffffffffffffffffffffffffffffffffffffffffffffffffffffffffffe097f000000000000000000000000945304eb96065b2a98b57a48a06ae28d285a71b5440ba13b38",
                "nonce" : "0x00",
                "storage" : {
                }
            },
            "0x945304eb96065b2a98b57a48a06ae28d285a71b5" : {
                "balance" : "0x4563918244f47fb2",
                "code" : "0x6000355415600957005b60203560003555",
                "nonce" : "0x00",
                "storage" : {
                }
            },
            "0xa94f5374fce5edbc8e2a8697c15331677e6ebf0b" : {
                "balance" : "0x0de0b6b3338dd0e0",
                "code" : "",
                "nonce" : "0x01",
                "storage" : {
                }
            }
        },
        "pre" : {
            "0x095e7baea6a6c7c4c2dfeb977efac326af552d87" : {
                "balance" : "0x00",
                "code" : "0x457f000000000000000000000000ffffffffffffffffffffffffffffffffffffffff7ffffffffffffffffffffffffffffffffffffffffffffffffffffffffffffffffe7ffffffffffffffffffffffffffffffffffffffffffffffffffffffffffffffffe7ffffffffffffffffffffffffffffffffffffffffffffffffffffffffffffffffe097f000000000000000000000000945304eb96065b2a98b57a48a06ae28d285a71b5440ba13b38",
                "nonce" : "0x00",
                "storage" : {
                }
            },
            "0x945304eb96065b2a98b57a48a06ae28d285a71b5" : {
                "balance" : "0x2e",
                "code" : "0x6000355415600957005b60203560003555",
                "nonce" : "0x00",
                "storage" : {
                }
            },
            "0xa94f5374fce5edbc8e2a8697c15331677e6ebf0b" : {
                "balance" : "0x0de0b6b3a7640000",
                "code" : "",
                "nonce" : "0x00",
                "storage" : {
                }
            }
        }
    },
    "randomStatetest572_d0g0v0_Frontier" : {
        "_info" : {
            "comment" : "",
            "filledwith" : "cpp-1.3.0+commit.4e101574.Linux.g++",
            "lllcversion" : "Version: 0.4.18-develop.2017.10.11+commit.81f9f86c.Linux.g++",
            "source" : "src/BlockchainTestsFiller/GeneralStateTests/stRandom2/randomStatetest572_d0g0v0Filler.json",
            "sourceHash" : "509b5986c0c6d7d8737ca644894a3ceeeae11bf7aadd7efeb6f4868d4ae9b746"
        },
        "blocks" : [
            {
                "blockHeader" : {
                    "bloom" : "0x00000000000000001000000000000000000000000000000000000000000000000000000000000000000000000000000000000000000000000000000000000000000000000000000000000000000000000000000000000000000000000000000000000010000000000000000000000000000000000000000000000000000000000000000000000000000000002000000000000000000000000000000000000000000000000000000004000000000000000000000000000000000000000000000000000000000000000000000000000000000000000000000000000000000000000000000040080000000000000000000000000000000000000000000000000000",
                    "coinbase" : "0x945304eb96065b2a98b57a48a06ae28d285a71b5",
                    "difficulty" : "0x020000",
                    "extraData" : "",
                    "gasLimit" : "0x7fffffffffffffff",
                    "gasUsed" : "0x7cdc",
                    "hash" : "0xf601af93edb01a856b2c035cf0d329a02212536fd90d7a8c8ff987f1ac13fe0f",
                    "mixHash" : "0x2627c408d4fabd24db61eb332a6a633c4038b00e4a17c2679e87ffcd9ed835f9",
                    "nonce" : "0x68fc1adc207b4e7b",
                    "number" : "0x01",
                    "parentHash" : "0x82c052a703c437c17ceb79c38ccdc89e237f3e80be0ebe1a5a629f5d47d66f80",
                    "receiptTrie" : "0xf2cc81c6c9028d05086ec45d43257349f65e9eb00433b05565d3f74a81309a24",
                    "stateRoot" : "0x11e3ae74b71ea171cc65dcfeb99c1ae42ea355b4a716ce643fc691e0309ffc34",
                    "timestamp" : "0x03e8",
                    "transactionsTrie" : "0x988267e6fff28c0b124134639e70442a5c783585dd0a546de2f5616138b9df61",
                    "uncleHash" : "0x1dcc4de8dec75d7aab85b567b6ccd41ad312451b948a7413f0a142fd40d49347"
                },
                "rlp" : "0xf90318f901fca082c052a703c437c17ceb79c38ccdc89e237f3e80be0ebe1a5a629f5d47d66f80a01dcc4de8dec75d7aab85b567b6ccd41ad312451b948a7413f0a142fd40d4934794945304eb96065b2a98b57a48a06ae28d285a71b5a011e3ae74b71ea171cc65dcfeb99c1ae42ea355b4a716ce643fc691e0309ffc34a0988267e6fff28c0b124134639e70442a5c783585dd0a546de2f5616138b9df61a0f2cc81c6c9028d05086ec45d43257349f65e9eb00433b05565d3f74a81309a24b90100000000000000000010000000000000000000000000000000000000000000000000000000000000000000000000000000000000000000000000000000000000000000000000000000000000000000000000000000000000000000000000000000000000100000000000000000000000000000000000000000000000000000000000000000000000000000000020000000000000000000000000000000000000000000000000000000040000000000000000000000000000000000000000000000000000000000000000000000000000000000000000000000000000000000000000000000400800000000000000000000000000000000000000000000000000008302000001887fffffffffffffff827cdc8203e880a02627c408d4fabd24db61eb332a6a633c4038b00e4a17c2679e87ffcd9ed835f98868fc1adc207b4e7bf90115f901128001843291d5d594095e7baea6a6c7c4c2dfeb977efac326af552d878473d5af9cb8ac457f000000000000000000000000ffffffffffffffffffffffffffffffffffffffff7ffffffffffffffffffffffffffffffffffffffffffffffffffffffffffffffffe7ffffffffffffffffffffffffffffffffffffffffffffffffffffffffffffffffe7ffffffffffffffffffffffffffffffffffffffffffffffffffffffffffffffffe097f000000000000000000000000945304eb96065b2a98b57a48a06ae28d285a71b5440ba13b381ba0f6d664b914c8f891c2db28c8e6cb52f94eea16c8ef3aaafbccc6868722a3aee2a07ec8d74ee37af9b021081b0f2b923a00b5f37377290f33bb8452bba1df0ae8dec0",
                "transactions" : [
                    {
                        "data" : "0x457f000000000000000000000000ffffffffffffffffffffffffffffffffffffffff7ffffffffffffffffffffffffffffffffffffffffffffffffffffffffffffffffe7ffffffffffffffffffffffffffffffffffffffffffffffffffffffffffffffffe7ffffffffffffffffffffffffffffffffffffffffffffffffffffffffffffffffe097f000000000000000000000000945304eb96065b2a98b57a48a06ae28d285a71b5440ba13b38",
                        "gasLimit" : "0x3291d5d5",
                        "gasPrice" : "0x01",
                        "nonce" : "0x00",
                        "r" : "0xf6d664b914c8f891c2db28c8e6cb52f94eea16c8ef3aaafbccc6868722a3aee2",
                        "s" : "0x7ec8d74ee37af9b021081b0f2b923a00b5f37377290f33bb8452bba1df0ae8de",
                        "to" : "0x095e7baea6a6c7c4c2dfeb977efac326af552d87",
                        "v" : "0x1b",
                        "value" : "0x73d5af9c"
                    }
                ],
                "uncleHeaders" : [
                ]
            }
        ],
        "genesisBlockHeader" : {
            "bloom" : "0x00000000000000000000000000000000000000000000000000000000000000000000000000000000000000000000000000000000000000000000000000000000000000000000000000000000000000000000000000000000000000000000000000000000000000000000000000000000000000000000000000000000000000000000000000000000000000000000000000000000000000000000000000000000000000000000000000000000000000000000000000000000000000000000000000000000000000000000000000000000000000000000000000000000000000000000000000000000000000000000000000000000000000000000000000000000",
            "coinbase" : "0x945304eb96065b2a98b57a48a06ae28d285a71b5",
            "difficulty" : "0x020000",
            "extraData" : "0x42",
            "gasLimit" : "0x7fffffffffffffff",
            "gasUsed" : "0x00",
            "hash" : "0x82c052a703c437c17ceb79c38ccdc89e237f3e80be0ebe1a5a629f5d47d66f80",
            "mixHash" : "0x56e81f171bcc55a6ff8345e692c0f86e5b48e01b996cadc001622fb5e363b421",
            "nonce" : "0x0102030405060708",
            "number" : "0x00",
            "parentHash" : "0x0000000000000000000000000000000000000000000000000000000000000000",
            "receiptTrie" : "0x56e81f171bcc55a6ff8345e692c0f86e5b48e01b996cadc001622fb5e363b421",
            "stateRoot" : "0xabad7f21fb0fa620fb04fc5a7fb500a87fea77050ad33c24966166b9a6daa3e0",
            "timestamp" : "0x03b6",
            "transactionsTrie" : "0x56e81f171bcc55a6ff8345e692c0f86e5b48e01b996cadc001622fb5e363b421",
            "uncleHash" : "0x1dcc4de8dec75d7aab85b567b6ccd41ad312451b948a7413f0a142fd40d49347"
        },
        "genesisRLP" : "0xf901fff901faa00000000000000000000000000000000000000000000000000000000000000000a01dcc4de8dec75d7aab85b567b6ccd41ad312451b948a7413f0a142fd40d4934794945304eb96065b2a98b57a48a06ae28d285a71b5a0abad7f21fb0fa620fb04fc5a7fb500a87fea77050ad33c24966166b9a6daa3e0a056e81f171bcc55a6ff8345e692c0f86e5b48e01b996cadc001622fb5e363b421a056e81f171bcc55a6ff8345e692c0f86e5b48e01b996cadc001622fb5e363b421b90100000000000000000000000000000000000000000000000000000000000000000000000000000000000000000000000000000000000000000000000000000000000000000000000000000000000000000000000000000000000000000000000000000000000000000000000000000000000000000000000000000000000000000000000000000000000000000000000000000000000000000000000000000000000000000000000000000000000000000000000000000000000000000000000000000000000000000000000000000000000000000000000000000000000000000000000000000000000000000000000000000000000000000000000000000000008302000080887fffffffffffffff808203b642a056e81f171bcc55a6ff8345e692c0f86e5b48e01b996cadc001622fb5e363b421880102030405060708c0c0",
        "lastblockhash" : "0xf601af93edb01a856b2c035cf0d329a02212536fd90d7a8c8ff987f1ac13fe0f",
        "network" : "Frontier",
        "postState" : {
            "0x095e7baea6a6c7c4c2dfeb977efac326af552d87" : {
                "balance" : "0x73d5af9c",
                "code" : "0x457f000000000000000000000000ffffffffffffffffffffffffffffffffffffffff7ffffffffffffffffffffffffffffffffffffffffffffffffffffffffffffffffe7ffffffffffffffffffffffffffffffffffffffffffffffffffffffffffffffffe7ffffffffffffffffffffffffffffffffffffffffffffffffffffffffffffffffe097f000000000000000000000000945304eb96065b2a98b57a48a06ae28d285a71b5440ba13b38",
                "nonce" : "0x00",
                "storage" : {
                }
            },
            "0x945304eb96065b2a98b57a48a06ae28d285a71b5" : {
                "balance" : "0x4563918244f47d0a",
                "code" : "0x6000355415600957005b60203560003555",
                "nonce" : "0x00",
                "storage" : {
                }
            },
            "0xa94f5374fce5edbc8e2a8697c15331677e6ebf0b" : {
                "balance" : "0x0de0b6b3338dd388",
                "code" : "",
                "nonce" : "0x01",
                "storage" : {
                }
            }
        },
        "pre" : {
            "0x095e7baea6a6c7c4c2dfeb977efac326af552d87" : {
                "balance" : "0x00",
                "code" : "0x457f000000000000000000000000ffffffffffffffffffffffffffffffffffffffff7ffffffffffffffffffffffffffffffffffffffffffffffffffffffffffffffffe7ffffffffffffffffffffffffffffffffffffffffffffffffffffffffffffffffe7ffffffffffffffffffffffffffffffffffffffffffffffffffffffffffffffffe097f000000000000000000000000945304eb96065b2a98b57a48a06ae28d285a71b5440ba13b38",
                "nonce" : "0x00",
                "storage" : {
                }
            },
            "0x945304eb96065b2a98b57a48a06ae28d285a71b5" : {
                "balance" : "0x2e",
                "code" : "0x6000355415600957005b60203560003555",
                "nonce" : "0x00",
                "storage" : {
                }
            },
            "0xa94f5374fce5edbc8e2a8697c15331677e6ebf0b" : {
                "balance" : "0x0de0b6b3a7640000",
                "code" : "",
                "nonce" : "0x00",
                "storage" : {
                }
            }
        }
    },
    "randomStatetest572_d0g0v0_Homestead" : {
        "_info" : {
            "comment" : "",
            "filledwith" : "cpp-1.3.0+commit.4e101574.Linux.g++",
            "lllcversion" : "Version: 0.4.18-develop.2017.10.11+commit.81f9f86c.Linux.g++",
            "source" : "src/BlockchainTestsFiller/GeneralStateTests/stRandom2/randomStatetest572_d0g0v0Filler.json",
            "sourceHash" : "509b5986c0c6d7d8737ca644894a3ceeeae11bf7aadd7efeb6f4868d4ae9b746"
        },
        "blocks" : [
            {
                "blockHeader" : {
                    "bloom" : "0x00000000000000001000000000000000000000000000000000000000000000000000000000000000000000000000000000000000000000000000000000000000000000000000000000000000000000000000000000000000000000000000000000000010000000000000000000000000000000000000000000000000000000000000000000000000000000002000000000000000000000000000000000000000000000000000000004000000000000000000000000000000000000000000000000000000000000000000000000000000000000000000000000000000000000000000000040080000000000000000000000000000000000000000000000000000",
                    "coinbase" : "0x945304eb96065b2a98b57a48a06ae28d285a71b5",
                    "difficulty" : "0x020000",
                    "extraData" : "",
                    "gasLimit" : "0x7fffffffffffffff",
                    "gasUsed" : "0x7cdc",
                    "hash" : "0x299f6fb704f981178211c67a63020afad47ca63aa66d70dc0f9762ad7a09dd1b",
                    "mixHash" : "0x3f099d20a19f7e1e9f7d746017d56ac0be40c481a1df3a138df555b71824fe86",
                    "nonce" : "0x31111d5341300164",
                    "number" : "0x01",
                    "parentHash" : "0x82c052a703c437c17ceb79c38ccdc89e237f3e80be0ebe1a5a629f5d47d66f80",
                    "receiptTrie" : "0xf2cc81c6c9028d05086ec45d43257349f65e9eb00433b05565d3f74a81309a24",
                    "stateRoot" : "0x11e3ae74b71ea171cc65dcfeb99c1ae42ea355b4a716ce643fc691e0309ffc34",
                    "timestamp" : "0x03e8",
                    "transactionsTrie" : "0x988267e6fff28c0b124134639e70442a5c783585dd0a546de2f5616138b9df61",
                    "uncleHash" : "0x1dcc4de8dec75d7aab85b567b6ccd41ad312451b948a7413f0a142fd40d49347"
                },
                "rlp" : "0xf90318f901fca082c052a703c437c17ceb79c38ccdc89e237f3e80be0ebe1a5a629f5d47d66f80a01dcc4de8dec75d7aab85b567b6ccd41ad312451b948a7413f0a142fd40d4934794945304eb96065b2a98b57a48a06ae28d285a71b5a011e3ae74b71ea171cc65dcfeb99c1ae42ea355b4a716ce643fc691e0309ffc34a0988267e6fff28c0b124134639e70442a5c783585dd0a546de2f5616138b9df61a0f2cc81c6c9028d05086ec45d43257349f65e9eb00433b05565d3f74a81309a24b90100000000000000000010000000000000000000000000000000000000000000000000000000000000000000000000000000000000000000000000000000000000000000000000000000000000000000000000000000000000000000000000000000000000100000000000000000000000000000000000000000000000000000000000000000000000000000000020000000000000000000000000000000000000000000000000000000040000000000000000000000000000000000000000000000000000000000000000000000000000000000000000000000000000000000000000000000400800000000000000000000000000000000000000000000000000008302000001887fffffffffffffff827cdc8203e880a03f099d20a19f7e1e9f7d746017d56ac0be40c481a1df3a138df555b71824fe868831111d5341300164f90115f901128001843291d5d594095e7baea6a6c7c4c2dfeb977efac326af552d878473d5af9cb8ac457f000000000000000000000000ffffffffffffffffffffffffffffffffffffffff7ffffffffffffffffffffffffffffffffffffffffffffffffffffffffffffffffe7ffffffffffffffffffffffffffffffffffffffffffffffffffffffffffffffffe7ffffffffffffffffffffffffffffffffffffffffffffffffffffffffffffffffe097f000000000000000000000000945304eb96065b2a98b57a48a06ae28d285a71b5440ba13b381ba0f6d664b914c8f891c2db28c8e6cb52f94eea16c8ef3aaafbccc6868722a3aee2a07ec8d74ee37af9b021081b0f2b923a00b5f37377290f33bb8452bba1df0ae8dec0",
                "transactions" : [
                    {
                        "data" : "0x457f000000000000000000000000ffffffffffffffffffffffffffffffffffffffff7ffffffffffffffffffffffffffffffffffffffffffffffffffffffffffffffffe7ffffffffffffffffffffffffffffffffffffffffffffffffffffffffffffffffe7ffffffffffffffffffffffffffffffffffffffffffffffffffffffffffffffffe097f000000000000000000000000945304eb96065b2a98b57a48a06ae28d285a71b5440ba13b38",
                        "gasLimit" : "0x3291d5d5",
                        "gasPrice" : "0x01",
                        "nonce" : "0x00",
                        "r" : "0xf6d664b914c8f891c2db28c8e6cb52f94eea16c8ef3aaafbccc6868722a3aee2",
                        "s" : "0x7ec8d74ee37af9b021081b0f2b923a00b5f37377290f33bb8452bba1df0ae8de",
                        "to" : "0x095e7baea6a6c7c4c2dfeb977efac326af552d87",
                        "v" : "0x1b",
                        "value" : "0x73d5af9c"
                    }
                ],
                "uncleHeaders" : [
                ]
            }
        ],
        "genesisBlockHeader" : {
            "bloom" : "0x00000000000000000000000000000000000000000000000000000000000000000000000000000000000000000000000000000000000000000000000000000000000000000000000000000000000000000000000000000000000000000000000000000000000000000000000000000000000000000000000000000000000000000000000000000000000000000000000000000000000000000000000000000000000000000000000000000000000000000000000000000000000000000000000000000000000000000000000000000000000000000000000000000000000000000000000000000000000000000000000000000000000000000000000000000000",
            "coinbase" : "0x945304eb96065b2a98b57a48a06ae28d285a71b5",
            "difficulty" : "0x020000",
            "extraData" : "0x42",
            "gasLimit" : "0x7fffffffffffffff",
            "gasUsed" : "0x00",
            "hash" : "0x82c052a703c437c17ceb79c38ccdc89e237f3e80be0ebe1a5a629f5d47d66f80",
            "mixHash" : "0x56e81f171bcc55a6ff8345e692c0f86e5b48e01b996cadc001622fb5e363b421",
            "nonce" : "0x0102030405060708",
            "number" : "0x00",
            "parentHash" : "0x0000000000000000000000000000000000000000000000000000000000000000",
            "receiptTrie" : "0x56e81f171bcc55a6ff8345e692c0f86e5b48e01b996cadc001622fb5e363b421",
            "stateRoot" : "0xabad7f21fb0fa620fb04fc5a7fb500a87fea77050ad33c24966166b9a6daa3e0",
            "timestamp" : "0x03b6",
            "transactionsTrie" : "0x56e81f171bcc55a6ff8345e692c0f86e5b48e01b996cadc001622fb5e363b421",
            "uncleHash" : "0x1dcc4de8dec75d7aab85b567b6ccd41ad312451b948a7413f0a142fd40d49347"
        },
        "genesisRLP" : "0xf901fff901faa00000000000000000000000000000000000000000000000000000000000000000a01dcc4de8dec75d7aab85b567b6ccd41ad312451b948a7413f0a142fd40d4934794945304eb96065b2a98b57a48a06ae28d285a71b5a0abad7f21fb0fa620fb04fc5a7fb500a87fea77050ad33c24966166b9a6daa3e0a056e81f171bcc55a6ff8345e692c0f86e5b48e01b996cadc001622fb5e363b421a056e81f171bcc55a6ff8345e692c0f86e5b48e01b996cadc001622fb5e363b421b90100000000000000000000000000000000000000000000000000000000000000000000000000000000000000000000000000000000000000000000000000000000000000000000000000000000000000000000000000000000000000000000000000000000000000000000000000000000000000000000000000000000000000000000000000000000000000000000000000000000000000000000000000000000000000000000000000000000000000000000000000000000000000000000000000000000000000000000000000000000000000000000000000000000000000000000000000000000000000000000000000000000000000000000000000000000008302000080887fffffffffffffff808203b642a056e81f171bcc55a6ff8345e692c0f86e5b48e01b996cadc001622fb5e363b421880102030405060708c0c0",
        "lastblockhash" : "0x299f6fb704f981178211c67a63020afad47ca63aa66d70dc0f9762ad7a09dd1b",
        "network" : "Homestead",
        "postState" : {
            "0x095e7baea6a6c7c4c2dfeb977efac326af552d87" : {
                "balance" : "0x73d5af9c",
                "code" : "0x457f000000000000000000000000ffffffffffffffffffffffffffffffffffffffff7ffffffffffffffffffffffffffffffffffffffffffffffffffffffffffffffffe7ffffffffffffffffffffffffffffffffffffffffffffffffffffffffffffffffe7ffffffffffffffffffffffffffffffffffffffffffffffffffffffffffffffffe097f000000000000000000000000945304eb96065b2a98b57a48a06ae28d285a71b5440ba13b38",
                "nonce" : "0x00",
                "storage" : {
                }
            },
            "0x945304eb96065b2a98b57a48a06ae28d285a71b5" : {
                "balance" : "0x4563918244f47d0a",
                "code" : "0x6000355415600957005b60203560003555",
                "nonce" : "0x00",
                "storage" : {
                }
            },
            "0xa94f5374fce5edbc8e2a8697c15331677e6ebf0b" : {
                "balance" : "0x0de0b6b3338dd388",
                "code" : "",
                "nonce" : "0x01",
                "storage" : {
                }
            }
        },
        "pre" : {
            "0x095e7baea6a6c7c4c2dfeb977efac326af552d87" : {
                "balance" : "0x00",
                "code" : "0x457f000000000000000000000000ffffffffffffffffffffffffffffffffffffffff7ffffffffffffffffffffffffffffffffffffffffffffffffffffffffffffffffe7ffffffffffffffffffffffffffffffffffffffffffffffffffffffffffffffffe7ffffffffffffffffffffffffffffffffffffffffffffffffffffffffffffffffe097f000000000000000000000000945304eb96065b2a98b57a48a06ae28d285a71b5440ba13b38",
                "nonce" : "0x00",
                "storage" : {
                }
            },
            "0x945304eb96065b2a98b57a48a06ae28d285a71b5" : {
                "balance" : "0x2e",
                "code" : "0x6000355415600957005b60203560003555",
                "nonce" : "0x00",
                "storage" : {
                }
            },
            "0xa94f5374fce5edbc8e2a8697c15331677e6ebf0b" : {
                "balance" : "0x0de0b6b3a7640000",
                "code" : "",
                "nonce" : "0x00",
                "storage" : {
                }
            }
        }
    }
}