{
    "randomStatetest647_d0g0v0_Byzantium" : {
        "_info" : {
            "comment" : "",
            "filledwith" : "cpp-1.3.0+commit.c5d2b48b.Linux.g++",
            "lllcversion" : "Version: 0.4.18-develop.2017.10.11+commit.81f9f86c.Linux.g++",
            "source" : "src/BlockchainTestsFiller/GeneralStateTests/stRandom2/randomStatetest647_d0g0v0Filler.json",
            "sourceHash" : "093d8b33b55d37bb15bf0d0fa502f89e0c0e4143fba4cc8deb1390f9b750e85c"
        },
        "blocks" : [
            {
                "blockHeader" : {
                    "bloom" : "0x00000000000000000000000000000000000000000000000000000000000000000000000000000000000000000000000000000000000000000000000000000000000000000000000000000000000000000000000000000000000000000000000000000000000000000000000000000000000000000000000000000000000000000000000000000000000000000000000000000000000000000000000000000000000000000000000000000000000000000000000000000000000000000000000000000000000000000000000000000000000000000000000000000000000000000000000000000000000000000000000000000000000000000000000000000000",
                    "coinbase" : "0xd94f5374fce5edbc8e2a8697c15331677e6ebf0b",
                    "difficulty" : "0x020000",
                    "extraData" : "",
                    "gasLimit" : "0x42fe8c95373ea1",
                    "gasUsed" : "0x584d31",
                    "hash" : "0xd710211c6ca45a2beda99cb244442687c0402a2ac195631f0f5c29d69fba58f9",
                    "mixHash" : "0x486d0894f13299c0508aa5ba6fc9a4a132054c513d78f8b3fdd3c00282e4222c",
                    "nonce" : "0xe5249a90ab6f74a6",
                    "number" : "0x01",
                    "parentHash" : "0xb5fd5beb3033f29852143c5d21f7980d5d7a4fe23d885bb7ff95eae3145c200d",
                    "receiptTrie" : "0x53077ec6f582974cc36542550f228b891d4fa732272a6984075dd3eaef9a432a",
                    "stateRoot" : "0xae5f027b3c6c87136e06e1d2b11c4a57e68dff068bdb136b0f09785d8b2a6230",
                    "timestamp" : "0x03e8",
                    "transactionsTrie" : "0xc193cd14bc6a219c73fe6c2fb573bf3680e6e4140259eb06fdfccaebb4c3a9e9",
                    "uncleHash" : "0x1dcc4de8dec75d7aab85b567b6ccd41ad312451b948a7413f0a142fd40d49347"
                },
                "rlp" : "0xf90264f901fca0b5fd5beb3033f29852143c5d21f7980d5d7a4fe23d885bb7ff95eae3145c200da01dcc4de8dec75d7aab85b567b6ccd41ad312451b948a7413f0a142fd40d4934794d94f5374fce5edbc8e2a8697c15331677e6ebf0ba0ae5f027b3c6c87136e06e1d2b11c4a57e68dff068bdb136b0f09785d8b2a6230a0c193cd14bc6a219c73fe6c2fb573bf3680e6e4140259eb06fdfccaebb4c3a9e9a053077ec6f582974cc36542550f228b891d4fa732272a6984075dd3eaef9a432ab901000000000000000000000000000000000000000000000000000000000000000000000000000000000000000000000000000000000000000000000000000000000000000000000000000000000000000000000000000000000000000000000000000000000000000000000000000000000000000000000000000000000000000000000000000000000000000000000000000000000000000000000000000000000000000000000000000000000000000000000000000000000000000000000000000000000000000000000000000000000000000000000000000000000000000000000000000000000000000000000000000000000000000000000000000000000083020000018742fe8c95373ea183584d318203e880a0486d0894f13299c0508aa5ba6fc9a4a132054c513d78f8b3fdd3c00282e4222c88e5249a90ab6f74a6f862f860800183584d3194c94f5374fce5edbc8e2a8697c15331677e6ebf0b80801ba0b8b4255ee0ebbc999fd83d5247c119f9c089e9a2ce40d52b234288fd77856839a0362d599ccebcbc12dae17e88f74e55df047a99916bc7b4e164f203ba7c1106efc0",
                "transactions" : [
                    {
                        "data" : "",
                        "gasLimit" : "0x584d31",
                        "gasPrice" : "0x01",
                        "nonce" : "0x00",
                        "r" : "0xb8b4255ee0ebbc999fd83d5247c119f9c089e9a2ce40d52b234288fd77856839",
                        "s" : "0x362d599ccebcbc12dae17e88f74e55df047a99916bc7b4e164f203ba7c1106ef",
                        "to" : "0xc94f5374fce5edbc8e2a8697c15331677e6ebf0b",
                        "v" : "0x1b",
                        "value" : "0x00"
                    }
                ],
                "uncleHeaders" : [
                ]
            }
        ],
        "genesisBlockHeader" : {
            "bloom" : "0x00000000000000000000000000000000000000000000000000000000000000000000000000000000000000000000000000000000000000000000000000000000000000000000000000000000000000000000000000000000000000000000000000000000000000000000000000000000000000000000000000000000000000000000000000000000000000000000000000000000000000000000000000000000000000000000000000000000000000000000000000000000000000000000000000000000000000000000000000000000000000000000000000000000000000000000000000000000000000000000000000000000000000000000000000000000",
            "coinbase" : "0xd94f5374fce5edbc8e2a8697c15331677e6ebf0b",
            "difficulty" : "0x020000",
            "extraData" : "0x42",
            "gasLimit" : "0x42fe8c95373ea1",
            "gasUsed" : "0x00",
            "hash" : "0xb5fd5beb3033f29852143c5d21f7980d5d7a4fe23d885bb7ff95eae3145c200d",
            "mixHash" : "0x56e81f171bcc55a6ff8345e692c0f86e5b48e01b996cadc001622fb5e363b421",
            "nonce" : "0x0102030405060708",
            "number" : "0x00",
            "parentHash" : "0x0000000000000000000000000000000000000000000000000000000000000000",
            "receiptTrie" : "0x56e81f171bcc55a6ff8345e692c0f86e5b48e01b996cadc001622fb5e363b421",
            "stateRoot" : "0x944fb0a526a187102d61ed0141bf0bf4b7326a7b40108e200999de04ccc9b261",
            "timestamp" : "0x03b6",
            "transactionsTrie" : "0x56e81f171bcc55a6ff8345e692c0f86e5b48e01b996cadc001622fb5e363b421",
            "uncleHash" : "0x1dcc4de8dec75d7aab85b567b6ccd41ad312451b948a7413f0a142fd40d49347"
        },
        "genesisRLP" : "0xf901fef901f9a00000000000000000000000000000000000000000000000000000000000000000a01dcc4de8dec75d7aab85b567b6ccd41ad312451b948a7413f0a142fd40d4934794d94f5374fce5edbc8e2a8697c15331677e6ebf0ba0944fb0a526a187102d61ed0141bf0bf4b7326a7b40108e200999de04ccc9b261a056e81f171bcc55a6ff8345e692c0f86e5b48e01b996cadc001622fb5e363b421a056e81f171bcc55a6ff8345e692c0f86e5b48e01b996cadc001622fb5e363b421b901000000000000000000000000000000000000000000000000000000000000000000000000000000000000000000000000000000000000000000000000000000000000000000000000000000000000000000000000000000000000000000000000000000000000000000000000000000000000000000000000000000000000000000000000000000000000000000000000000000000000000000000000000000000000000000000000000000000000000000000000000000000000000000000000000000000000000000000000000000000000000000000000000000000000000000000000000000000000000000000000000000000000000000000000000000000083020000808742fe8c95373ea1808203b642a056e81f171bcc55a6ff8345e692c0f86e5b48e01b996cadc001622fb5e363b421880102030405060708c0c0",
        "lastblockhash" : "0xd710211c6ca45a2beda99cb244442687c0402a2ac195631f0f5c29d69fba58f9",
        "network" : "Byzantium",
        "postState" : {
            "0xa94f5374fce5edbc8e2a8697c15331677e6ebf0b" : {
                "balance" : "0x3b427ccf",
                "code" : "",
                "nonce" : "0x01",
                "storage" : {
                }
            },
            "0xc94f5374fce5edbc8e2a8697c15331677e6ebf0b" : {
                "balance" : "0x00",
                "code" : "0x6001600160000360003e00",
                "nonce" : "0x07",
                "storage" : {
                }
            },
            "0xd94f5374fce5edbc8e2a8697c15331677e6ebf0b" : {
                "balance" : "0x29a2241af6844d31",
                "code" : "",
                "nonce" : "0x00",
                "storage" : {
                }
            }
        },
        "pre" : {
            "0xa94f5374fce5edbc8e2a8697c15331677e6ebf0b" : {
                "balance" : "0x3b9aca00",
                "code" : "",
                "nonce" : "0x00",
                "storage" : {
                }
            },
            "0xc94f5374fce5edbc8e2a8697c15331677e6ebf0b" : {
                "balance" : "0x00",
                "code" : "0x6001600160000360003e00",
                "nonce" : "0x07",
                "storage" : {
                }
            }
        }
    },
    "randomStatetest647_d0g0v0_Constantinople" : {
        "_info" : {
            "comment" : "",
            "filledwith" : "cpp-1.3.0+commit.c5d2b48b.Linux.g++",
            "lllcversion" : "Version: 0.4.18-develop.2017.10.11+commit.81f9f86c.Linux.g++",
            "source" : "src/BlockchainTestsFiller/GeneralStateTests/stRandom2/randomStatetest647_d0g0v0Filler.json",
            "sourceHash" : "093d8b33b55d37bb15bf0d0fa502f89e0c0e4143fba4cc8deb1390f9b750e85c"
        },
        "blocks" : [
            {
                "blockHeader" : {
                    "bloom" : "0x00000000000000000000000000000000000000000000000000000000000000000000000000000000000000000000000000000000000000000000000000000000000000000000000000000000000000000000000000000000000000000000000000000000000000000000000000000000000000000000000000000000000000000000000000000000000000000000000000000000000000000000000000000000000000000000000000000000000000000000000000000000000000000000000000000000000000000000000000000000000000000000000000000000000000000000000000000000000000000000000000000000000000000000000000000000",
                    "coinbase" : "0xd94f5374fce5edbc8e2a8697c15331677e6ebf0b",
                    "difficulty" : "0x020000",
                    "extraData" : "",
                    "gasLimit" : "0x42fe8c95373ea1",
                    "gasUsed" : "0x584d31",
                    "hash" : "0x405a75529183f1884dd9af7414289db974adb15f2e5599ce2060ecc37c6312ce",
                    "mixHash" : "0x6b0ad2ab6b82baeabc0634f6bb05d128274ee342f1e31a98be6eb8a1fa4b061e",
                    "nonce" : "0x7f74993913cfe9a7",
                    "number" : "0x01",
                    "parentHash" : "0xb5fd5beb3033f29852143c5d21f7980d5d7a4fe23d885bb7ff95eae3145c200d",
                    "receiptTrie" : "0x53077ec6f582974cc36542550f228b891d4fa732272a6984075dd3eaef9a432a",
                    "stateRoot" : "0xae5f027b3c6c87136e06e1d2b11c4a57e68dff068bdb136b0f09785d8b2a6230",
                    "timestamp" : "0x03e8",
                    "transactionsTrie" : "0xc193cd14bc6a219c73fe6c2fb573bf3680e6e4140259eb06fdfccaebb4c3a9e9",
                    "uncleHash" : "0x1dcc4de8dec75d7aab85b567b6ccd41ad312451b948a7413f0a142fd40d49347"
                },
                "rlp" : "0xf90264f901fca0b5fd5beb3033f29852143c5d21f7980d5d7a4fe23d885bb7ff95eae3145c200da01dcc4de8dec75d7aab85b567b6ccd41ad312451b948a7413f0a142fd40d4934794d94f5374fce5edbc8e2a8697c15331677e6ebf0ba0ae5f027b3c6c87136e06e1d2b11c4a57e68dff068bdb136b0f09785d8b2a6230a0c193cd14bc6a219c73fe6c2fb573bf3680e6e4140259eb06fdfccaebb4c3a9e9a053077ec6f582974cc36542550f228b891d4fa732272a6984075dd3eaef9a432ab901000000000000000000000000000000000000000000000000000000000000000000000000000000000000000000000000000000000000000000000000000000000000000000000000000000000000000000000000000000000000000000000000000000000000000000000000000000000000000000000000000000000000000000000000000000000000000000000000000000000000000000000000000000000000000000000000000000000000000000000000000000000000000000000000000000000000000000000000000000000000000000000000000000000000000000000000000000000000000000000000000000000000000000000000000000000083020000018742fe8c95373ea183584d318203e880a06b0ad2ab6b82baeabc0634f6bb05d128274ee342f1e31a98be6eb8a1fa4b061e887f74993913cfe9a7f862f860800183584d3194c94f5374fce5edbc8e2a8697c15331677e6ebf0b80801ba0b8b4255ee0ebbc999fd83d5247c119f9c089e9a2ce40d52b234288fd77856839a0362d599ccebcbc12dae17e88f74e55df047a99916bc7b4e164f203ba7c1106efc0",
                "transactions" : [
                    {
                        "data" : "",
                        "gasLimit" : "0x584d31",
                        "gasPrice" : "0x01",
                        "nonce" : "0x00",
                        "r" : "0xb8b4255ee0ebbc999fd83d5247c119f9c089e9a2ce40d52b234288fd77856839",
                        "s" : "0x362d599ccebcbc12dae17e88f74e55df047a99916bc7b4e164f203ba7c1106ef",
                        "to" : "0xc94f5374fce5edbc8e2a8697c15331677e6ebf0b",
                        "v" : "0x1b",
                        "value" : "0x00"
                    }
                ],
                "uncleHeaders" : [
                ]
            }
        ],
        "genesisBlockHeader" : {
            "bloom" : "0x00000000000000000000000000000000000000000000000000000000000000000000000000000000000000000000000000000000000000000000000000000000000000000000000000000000000000000000000000000000000000000000000000000000000000000000000000000000000000000000000000000000000000000000000000000000000000000000000000000000000000000000000000000000000000000000000000000000000000000000000000000000000000000000000000000000000000000000000000000000000000000000000000000000000000000000000000000000000000000000000000000000000000000000000000000000",
            "coinbase" : "0xd94f5374fce5edbc8e2a8697c15331677e6ebf0b",
            "difficulty" : "0x020000",
            "extraData" : "0x42",
            "gasLimit" : "0x42fe8c95373ea1",
            "gasUsed" : "0x00",
            "hash" : "0xb5fd5beb3033f29852143c5d21f7980d5d7a4fe23d885bb7ff95eae3145c200d",
            "mixHash" : "0x56e81f171bcc55a6ff8345e692c0f86e5b48e01b996cadc001622fb5e363b421",
            "nonce" : "0x0102030405060708",
            "number" : "0x00",
            "parentHash" : "0x0000000000000000000000000000000000000000000000000000000000000000",
            "receiptTrie" : "0x56e81f171bcc55a6ff8345e692c0f86e5b48e01b996cadc001622fb5e363b421",
            "stateRoot" : "0x944fb0a526a187102d61ed0141bf0bf4b7326a7b40108e200999de04ccc9b261",
            "timestamp" : "0x03b6",
            "transactionsTrie" : "0x56e81f171bcc55a6ff8345e692c0f86e5b48e01b996cadc001622fb5e363b421",
            "uncleHash" : "0x1dcc4de8dec75d7aab85b567b6ccd41ad312451b948a7413f0a142fd40d49347"
        },
        "genesisRLP" : "0xf901fef901f9a00000000000000000000000000000000000000000000000000000000000000000a01dcc4de8dec75d7aab85b567b6ccd41ad312451b948a7413f0a142fd40d4934794d94f5374fce5edbc8e2a8697c15331677e6ebf0ba0944fb0a526a187102d61ed0141bf0bf4b7326a7b40108e200999de04ccc9b261a056e81f171bcc55a6ff8345e692c0f86e5b48e01b996cadc001622fb5e363b421a056e81f171bcc55a6ff8345e692c0f86e5b48e01b996cadc001622fb5e363b421b901000000000000000000000000000000000000000000000000000000000000000000000000000000000000000000000000000000000000000000000000000000000000000000000000000000000000000000000000000000000000000000000000000000000000000000000000000000000000000000000000000000000000000000000000000000000000000000000000000000000000000000000000000000000000000000000000000000000000000000000000000000000000000000000000000000000000000000000000000000000000000000000000000000000000000000000000000000000000000000000000000000000000000000000000000000000083020000808742fe8c95373ea1808203b642a056e81f171bcc55a6ff8345e692c0f86e5b48e01b996cadc001622fb5e363b421880102030405060708c0c0",
        "lastblockhash" : "0x405a75529183f1884dd9af7414289db974adb15f2e5599ce2060ecc37c6312ce",
        "network" : "Constantinople",
        "postState" : {
            "0xa94f5374fce5edbc8e2a8697c15331677e6ebf0b" : {
                "balance" : "0x3b427ccf",
                "code" : "",
                "nonce" : "0x01",
                "storage" : {
                }
            },
            "0xc94f5374fce5edbc8e2a8697c15331677e6ebf0b" : {
                "balance" : "0x00",
                "code" : "0x6001600160000360003e00",
                "nonce" : "0x07",
                "storage" : {
                }
            },
            "0xd94f5374fce5edbc8e2a8697c15331677e6ebf0b" : {
                "balance" : "0x29a2241af6844d31",
                "code" : "",
                "nonce" : "0x00",
                "storage" : {
                }
            }
        },
        "pre" : {
            "0xa94f5374fce5edbc8e2a8697c15331677e6ebf0b" : {
                "balance" : "0x3b9aca00",
                "code" : "",
                "nonce" : "0x00",
                "storage" : {
                }
            },
            "0xc94f5374fce5edbc8e2a8697c15331677e6ebf0b" : {
                "balance" : "0x00",
                "code" : "0x6001600160000360003e00",
                "nonce" : "0x07",
                "storage" : {
                }
            }
        }
    },
    "randomStatetest647_d0g0v0_EIP150" : {
        "_info" : {
            "comment" : "",
            "filledwith" : "cpp-1.3.0+commit.c5d2b48b.Linux.g++",
            "lllcversion" : "Version: 0.4.18-develop.2017.10.11+commit.81f9f86c.Linux.g++",
            "source" : "src/BlockchainTestsFiller/GeneralStateTests/stRandom2/randomStatetest647_d0g0v0Filler.json",
            "sourceHash" : "093d8b33b55d37bb15bf0d0fa502f89e0c0e4143fba4cc8deb1390f9b750e85c"
        },
        "blocks" : [
            {
                "blockHeader" : {
                    "bloom" : "0x00000000000000000000000000000000000000000000000000000000000000000000000000000000000000000000000000000000000000000000000000000000000000000000000000000000000000000000000000000000000000000000000000000000000000000000000000000000000000000000000000000000000000000000000000000000000000000000000000000000000000000000000000000000000000000000000000000000000000000000000000000000000000000000000000000000000000000000000000000000000000000000000000000000000000000000000000000000000000000000000000000000000000000000000000000000",
                    "coinbase" : "0xd94f5374fce5edbc8e2a8697c15331677e6ebf0b",
                    "difficulty" : "0x020000",
                    "extraData" : "",
                    "gasLimit" : "0x42fe8c95373ea1",
                    "gasUsed" : "0x584d31",
                    "hash" : "0x3777128f4b08f14b893ffe5a31969574d227fab3df543fbca5426f1df5d76c6f",
                    "mixHash" : "0x348b5415faec1fba7e973babb27f3f1486ce850d107638b5a8f07ad323afe161",
                    "nonce" : "0xea6db845c00320d0",
                    "number" : "0x01",
                    "parentHash" : "0xb5fd5beb3033f29852143c5d21f7980d5d7a4fe23d885bb7ff95eae3145c200d",
                    "receiptTrie" : "0x34c9f0bad0356d93e7b68da4be37440662c1eaa38234b4059332181cc9e4f66f",
                    "stateRoot" : "0xfc04ff9af90c53b4bf2b093af72ffdd5b9a90eb3838fe594a6a40412dea2ef9b",
                    "timestamp" : "0x03e8",
                    "transactionsTrie" : "0xc193cd14bc6a219c73fe6c2fb573bf3680e6e4140259eb06fdfccaebb4c3a9e9",
                    "uncleHash" : "0x1dcc4de8dec75d7aab85b567b6ccd41ad312451b948a7413f0a142fd40d49347"
                },
                "rlp" : "0xf90264f901fca0b5fd5beb3033f29852143c5d21f7980d5d7a4fe23d885bb7ff95eae3145c200da01dcc4de8dec75d7aab85b567b6ccd41ad312451b948a7413f0a142fd40d4934794d94f5374fce5edbc8e2a8697c15331677e6ebf0ba0fc04ff9af90c53b4bf2b093af72ffdd5b9a90eb3838fe594a6a40412dea2ef9ba0c193cd14bc6a219c73fe6c2fb573bf3680e6e4140259eb06fdfccaebb4c3a9e9a034c9f0bad0356d93e7b68da4be37440662c1eaa38234b4059332181cc9e4f66fb901000000000000000000000000000000000000000000000000000000000000000000000000000000000000000000000000000000000000000000000000000000000000000000000000000000000000000000000000000000000000000000000000000000000000000000000000000000000000000000000000000000000000000000000000000000000000000000000000000000000000000000000000000000000000000000000000000000000000000000000000000000000000000000000000000000000000000000000000000000000000000000000000000000000000000000000000000000000000000000000000000000000000000000000000000000000083020000018742fe8c95373ea183584d318203e880a0348b5415faec1fba7e973babb27f3f1486ce850d107638b5a8f07ad323afe16188ea6db845c00320d0f862f860800183584d3194c94f5374fce5edbc8e2a8697c15331677e6ebf0b80801ba0b8b4255ee0ebbc999fd83d5247c119f9c089e9a2ce40d52b234288fd77856839a0362d599ccebcbc12dae17e88f74e55df047a99916bc7b4e164f203ba7c1106efc0",
                "transactions" : [
                    {
                        "data" : "",
                        "gasLimit" : "0x584d31",
                        "gasPrice" : "0x01",
                        "nonce" : "0x00",
                        "r" : "0xb8b4255ee0ebbc999fd83d5247c119f9c089e9a2ce40d52b234288fd77856839",
                        "s" : "0x362d599ccebcbc12dae17e88f74e55df047a99916bc7b4e164f203ba7c1106ef",
                        "to" : "0xc94f5374fce5edbc8e2a8697c15331677e6ebf0b",
                        "v" : "0x1b",
                        "value" : "0x00"
                    }
                ],
                "uncleHeaders" : [
                ]
            }
        ],
        "genesisBlockHeader" : {
            "bloom" : "0x00000000000000000000000000000000000000000000000000000000000000000000000000000000000000000000000000000000000000000000000000000000000000000000000000000000000000000000000000000000000000000000000000000000000000000000000000000000000000000000000000000000000000000000000000000000000000000000000000000000000000000000000000000000000000000000000000000000000000000000000000000000000000000000000000000000000000000000000000000000000000000000000000000000000000000000000000000000000000000000000000000000000000000000000000000000",
            "coinbase" : "0xd94f5374fce5edbc8e2a8697c15331677e6ebf0b",
            "difficulty" : "0x020000",
            "extraData" : "0x42",
            "gasLimit" : "0x42fe8c95373ea1",
            "gasUsed" : "0x00",
            "hash" : "0xb5fd5beb3033f29852143c5d21f7980d5d7a4fe23d885bb7ff95eae3145c200d",
            "mixHash" : "0x56e81f171bcc55a6ff8345e692c0f86e5b48e01b996cadc001622fb5e363b421",
            "nonce" : "0x0102030405060708",
            "number" : "0x00",
            "parentHash" : "0x0000000000000000000000000000000000000000000000000000000000000000",
            "receiptTrie" : "0x56e81f171bcc55a6ff8345e692c0f86e5b48e01b996cadc001622fb5e363b421",
            "stateRoot" : "0x944fb0a526a187102d61ed0141bf0bf4b7326a7b40108e200999de04ccc9b261",
            "timestamp" : "0x03b6",
            "transactionsTrie" : "0x56e81f171bcc55a6ff8345e692c0f86e5b48e01b996cadc001622fb5e363b421",
            "uncleHash" : "0x1dcc4de8dec75d7aab85b567b6ccd41ad312451b948a7413f0a142fd40d49347"
        },
        "genesisRLP" : "0xf901fef901f9a00000000000000000000000000000000000000000000000000000000000000000a01dcc4de8dec75d7aab85b567b6ccd41ad312451b948a7413f0a142fd40d4934794d94f5374fce5edbc8e2a8697c15331677e6ebf0ba0944fb0a526a187102d61ed0141bf0bf4b7326a7b40108e200999de04ccc9b261a056e81f171bcc55a6ff8345e692c0f86e5b48e01b996cadc001622fb5e363b421a056e81f171bcc55a6ff8345e692c0f86e5b48e01b996cadc001622fb5e363b421b901000000000000000000000000000000000000000000000000000000000000000000000000000000000000000000000000000000000000000000000000000000000000000000000000000000000000000000000000000000000000000000000000000000000000000000000000000000000000000000000000000000000000000000000000000000000000000000000000000000000000000000000000000000000000000000000000000000000000000000000000000000000000000000000000000000000000000000000000000000000000000000000000000000000000000000000000000000000000000000000000000000000000000000000000000000000083020000808742fe8c95373ea1808203b642a056e81f171bcc55a6ff8345e692c0f86e5b48e01b996cadc001622fb5e363b421880102030405060708c0c0",
        "lastblockhash" : "0x3777128f4b08f14b893ffe5a31969574d227fab3df543fbca5426f1df5d76c6f",
        "network" : "EIP150",
        "postState" : {
            "0xa94f5374fce5edbc8e2a8697c15331677e6ebf0b" : {
                "balance" : "0x3b427ccf",
                "code" : "",
                "nonce" : "0x01",
                "storage" : {
                }
            },
            "0xc94f5374fce5edbc8e2a8697c15331677e6ebf0b" : {
                "balance" : "0x00",
                "code" : "0x6001600160000360003e00",
                "nonce" : "0x07",
                "storage" : {
                }
            },
            "0xd94f5374fce5edbc8e2a8697c15331677e6ebf0b" : {
                "balance" : "0x45639182454c4d31",
                "code" : "",
                "nonce" : "0x00",
                "storage" : {
                }
            }
        },
        "pre" : {
            "0xa94f5374fce5edbc8e2a8697c15331677e6ebf0b" : {
                "balance" : "0x3b9aca00",
                "code" : "",
                "nonce" : "0x00",
                "storage" : {
                }
            },
            "0xc94f5374fce5edbc8e2a8697c15331677e6ebf0b" : {
                "balance" : "0x00",
                "code" : "0x6001600160000360003e00",
                "nonce" : "0x07",
                "storage" : {
                }
            }
        }
    },
    "randomStatetest647_d0g0v0_EIP158" : {
        "_info" : {
            "comment" : "",
            "filledwith" : "cpp-1.3.0+commit.c5d2b48b.Linux.g++",
            "lllcversion" : "Version: 0.4.18-develop.2017.10.11+commit.81f9f86c.Linux.g++",
            "source" : "src/BlockchainTestsFiller/GeneralStateTests/stRandom2/randomStatetest647_d0g0v0Filler.json",
            "sourceHash" : "093d8b33b55d37bb15bf0d0fa502f89e0c0e4143fba4cc8deb1390f9b750e85c"
        },
        "blocks" : [
            {
                "blockHeader" : {
                    "bloom" : "0x00000000000000000000000000000000000000000000000000000000000000000000000000000000000000000000000000000000000000000000000000000000000000000000000000000000000000000000000000000000000000000000000000000000000000000000000000000000000000000000000000000000000000000000000000000000000000000000000000000000000000000000000000000000000000000000000000000000000000000000000000000000000000000000000000000000000000000000000000000000000000000000000000000000000000000000000000000000000000000000000000000000000000000000000000000000",
                    "coinbase" : "0xd94f5374fce5edbc8e2a8697c15331677e6ebf0b",
                    "difficulty" : "0x020000",
                    "extraData" : "",
                    "gasLimit" : "0x42fe8c95373ea1",
                    "gasUsed" : "0x584d31",
                    "hash" : "0xdfdd61dcbe7d31b4d7a237f304006f7527cc41bc5e5e8fe742b82a4bcb51d9d4",
                    "mixHash" : "0x18203e6b63028a637e9d8da60afc968fb6b8a55d9071a721604e30fbaf42f29c",
                    "nonce" : "0x408c3019bcb72ce5",
                    "number" : "0x01",
                    "parentHash" : "0xb5fd5beb3033f29852143c5d21f7980d5d7a4fe23d885bb7ff95eae3145c200d",
                    "receiptTrie" : "0x34c9f0bad0356d93e7b68da4be37440662c1eaa38234b4059332181cc9e4f66f",
                    "stateRoot" : "0xfc04ff9af90c53b4bf2b093af72ffdd5b9a90eb3838fe594a6a40412dea2ef9b",
                    "timestamp" : "0x03e8",
                    "transactionsTrie" : "0xc193cd14bc6a219c73fe6c2fb573bf3680e6e4140259eb06fdfccaebb4c3a9e9",
                    "uncleHash" : "0x1dcc4de8dec75d7aab85b567b6ccd41ad312451b948a7413f0a142fd40d49347"
                },
                "rlp" : "0xf90264f901fca0b5fd5beb3033f29852143c5d21f7980d5d7a4fe23d885bb7ff95eae3145c200da01dcc4de8dec75d7aab85b567b6ccd41ad312451b948a7413f0a142fd40d4934794d94f5374fce5edbc8e2a8697c15331677e6ebf0ba0fc04ff9af90c53b4bf2b093af72ffdd5b9a90eb3838fe594a6a40412dea2ef9ba0c193cd14bc6a219c73fe6c2fb573bf3680e6e4140259eb06fdfccaebb4c3a9e9a034c9f0bad0356d93e7b68da4be37440662c1eaa38234b4059332181cc9e4f66fb901000000000000000000000000000000000000000000000000000000000000000000000000000000000000000000000000000000000000000000000000000000000000000000000000000000000000000000000000000000000000000000000000000000000000000000000000000000000000000000000000000000000000000000000000000000000000000000000000000000000000000000000000000000000000000000000000000000000000000000000000000000000000000000000000000000000000000000000000000000000000000000000000000000000000000000000000000000000000000000000000000000000000000000000000000000000083020000018742fe8c95373ea183584d318203e880a018203e6b63028a637e9d8da60afc968fb6b8a55d9071a721604e30fbaf42f29c88408c3019bcb72ce5f862f860800183584d3194c94f5374fce5edbc8e2a8697c15331677e6ebf0b80801ba0b8b4255ee0ebbc999fd83d5247c119f9c089e9a2ce40d52b234288fd77856839a0362d599ccebcbc12dae17e88f74e55df047a99916bc7b4e164f203ba7c1106efc0",
                "transactions" : [
                    {
                        "data" : "",
                        "gasLimit" : "0x584d31",
                        "gasPrice" : "0x01",
                        "nonce" : "0x00",
                        "r" : "0xb8b4255ee0ebbc999fd83d5247c119f9c089e9a2ce40d52b234288fd77856839",
                        "s" : "0x362d599ccebcbc12dae17e88f74e55df047a99916bc7b4e164f203ba7c1106ef",
                        "to" : "0xc94f5374fce5edbc8e2a8697c15331677e6ebf0b",
                        "v" : "0x1b",
                        "value" : "0x00"
                    }
                ],
                "uncleHeaders" : [
                ]
            }
        ],
        "genesisBlockHeader" : {
            "bloom" : "0x00000000000000000000000000000000000000000000000000000000000000000000000000000000000000000000000000000000000000000000000000000000000000000000000000000000000000000000000000000000000000000000000000000000000000000000000000000000000000000000000000000000000000000000000000000000000000000000000000000000000000000000000000000000000000000000000000000000000000000000000000000000000000000000000000000000000000000000000000000000000000000000000000000000000000000000000000000000000000000000000000000000000000000000000000000000",
            "coinbase" : "0xd94f5374fce5edbc8e2a8697c15331677e6ebf0b",
            "difficulty" : "0x020000",
            "extraData" : "0x42",
            "gasLimit" : "0x42fe8c95373ea1",
            "gasUsed" : "0x00",
            "hash" : "0xb5fd5beb3033f29852143c5d21f7980d5d7a4fe23d885bb7ff95eae3145c200d",
            "mixHash" : "0x56e81f171bcc55a6ff8345e692c0f86e5b48e01b996cadc001622fb5e363b421",
            "nonce" : "0x0102030405060708",
            "number" : "0x00",
            "parentHash" : "0x0000000000000000000000000000000000000000000000000000000000000000",
            "receiptTrie" : "0x56e81f171bcc55a6ff8345e692c0f86e5b48e01b996cadc001622fb5e363b421",
            "stateRoot" : "0x944fb0a526a187102d61ed0141bf0bf4b7326a7b40108e200999de04ccc9b261",
            "timestamp" : "0x03b6",
            "transactionsTrie" : "0x56e81f171bcc55a6ff8345e692c0f86e5b48e01b996cadc001622fb5e363b421",
            "uncleHash" : "0x1dcc4de8dec75d7aab85b567b6ccd41ad312451b948a7413f0a142fd40d49347"
        },
        "genesisRLP" : "0xf901fef901f9a00000000000000000000000000000000000000000000000000000000000000000a01dcc4de8dec75d7aab85b567b6ccd41ad312451b948a7413f0a142fd40d4934794d94f5374fce5edbc8e2a8697c15331677e6ebf0ba0944fb0a526a187102d61ed0141bf0bf4b7326a7b40108e200999de04ccc9b261a056e81f171bcc55a6ff8345e692c0f86e5b48e01b996cadc001622fb5e363b421a056e81f171bcc55a6ff8345e692c0f86e5b48e01b996cadc001622fb5e363b421b901000000000000000000000000000000000000000000000000000000000000000000000000000000000000000000000000000000000000000000000000000000000000000000000000000000000000000000000000000000000000000000000000000000000000000000000000000000000000000000000000000000000000000000000000000000000000000000000000000000000000000000000000000000000000000000000000000000000000000000000000000000000000000000000000000000000000000000000000000000000000000000000000000000000000000000000000000000000000000000000000000000000000000000000000000000000083020000808742fe8c95373ea1808203b642a056e81f171bcc55a6ff8345e692c0f86e5b48e01b996cadc001622fb5e363b421880102030405060708c0c0",
        "lastblockhash" : "0xdfdd61dcbe7d31b4d7a237f304006f7527cc41bc5e5e8fe742b82a4bcb51d9d4",
        "network" : "EIP158",
        "postState" : {
            "0xa94f5374fce5edbc8e2a8697c15331677e6ebf0b" : {
                "balance" : "0x3b427ccf",
                "code" : "",
                "nonce" : "0x01",
                "storage" : {
                }
            },
            "0xc94f5374fce5edbc8e2a8697c15331677e6ebf0b" : {
                "balance" : "0x00",
                "code" : "0x6001600160000360003e00",
                "nonce" : "0x07",
                "storage" : {
                }
            },
            "0xd94f5374fce5edbc8e2a8697c15331677e6ebf0b" : {
                "balance" : "0x45639182454c4d31",
                "code" : "",
                "nonce" : "0x00",
                "storage" : {
                }
            }
        },
        "pre" : {
            "0xa94f5374fce5edbc8e2a8697c15331677e6ebf0b" : {
                "balance" : "0x3b9aca00",
                "code" : "",
                "nonce" : "0x00",
                "storage" : {
                }
            },
            "0xc94f5374fce5edbc8e2a8697c15331677e6ebf0b" : {
                "balance" : "0x00",
                "code" : "0x6001600160000360003e00",
                "nonce" : "0x07",
                "storage" : {
                }
            }
        }
    },
    "randomStatetest647_d0g0v0_Frontier" : {
        "_info" : {
            "comment" : "",
            "filledwith" : "cpp-1.3.0+commit.c5d2b48b.Linux.g++",
            "lllcversion" : "Version: 0.4.18-develop.2017.10.11+commit.81f9f86c.Linux.g++",
            "source" : "src/BlockchainTestsFiller/GeneralStateTests/stRandom2/randomStatetest647_d0g0v0Filler.json",
            "sourceHash" : "093d8b33b55d37bb15bf0d0fa502f89e0c0e4143fba4cc8deb1390f9b750e85c"
        },
        "blocks" : [
            {
                "blockHeader" : {
                    "bloom" : "0x00000000000000000000000000000000000000000000000000000000000000000000000000000000000000000000000000000000000000000000000000000000000000000000000000000000000000000000000000000000000000000000000000000000000000000000000000000000000000000000000000000000000000000000000000000000000000000000000000000000000000000000000000000000000000000000000000000000000000000000000000000000000000000000000000000000000000000000000000000000000000000000000000000000000000000000000000000000000000000000000000000000000000000000000000000000",
                    "coinbase" : "0xd94f5374fce5edbc8e2a8697c15331677e6ebf0b",
                    "difficulty" : "0x020000",
                    "extraData" : "",
                    "gasLimit" : "0x42fe8c95373ea1",
                    "gasUsed" : "0x584d31",
                    "hash" : "0x070b81d821095f49d5d47db433a66d542adc6524668e06a3ba17f44971f7c84e",
                    "mixHash" : "0xd6122f9d56bd64fbfc9b6ce7da9496c4854719d01e8a49468c6e81c8e1bf6962",
                    "nonce" : "0x7c0ab26bbaaceda2",
                    "number" : "0x01",
                    "parentHash" : "0xb5fd5beb3033f29852143c5d21f7980d5d7a4fe23d885bb7ff95eae3145c200d",
                    "receiptTrie" : "0x34c9f0bad0356d93e7b68da4be37440662c1eaa38234b4059332181cc9e4f66f",
                    "stateRoot" : "0xfc04ff9af90c53b4bf2b093af72ffdd5b9a90eb3838fe594a6a40412dea2ef9b",
                    "timestamp" : "0x03e8",
                    "transactionsTrie" : "0xc193cd14bc6a219c73fe6c2fb573bf3680e6e4140259eb06fdfccaebb4c3a9e9",
                    "uncleHash" : "0x1dcc4de8dec75d7aab85b567b6ccd41ad312451b948a7413f0a142fd40d49347"
                },
                "rlp" : "0xf90264f901fca0b5fd5beb3033f29852143c5d21f7980d5d7a4fe23d885bb7ff95eae3145c200da01dcc4de8dec75d7aab85b567b6ccd41ad312451b948a7413f0a142fd40d4934794d94f5374fce5edbc8e2a8697c15331677e6ebf0ba0fc04ff9af90c53b4bf2b093af72ffdd5b9a90eb3838fe594a6a40412dea2ef9ba0c193cd14bc6a219c73fe6c2fb573bf3680e6e4140259eb06fdfccaebb4c3a9e9a034c9f0bad0356d93e7b68da4be37440662c1eaa38234b4059332181cc9e4f66fb901000000000000000000000000000000000000000000000000000000000000000000000000000000000000000000000000000000000000000000000000000000000000000000000000000000000000000000000000000000000000000000000000000000000000000000000000000000000000000000000000000000000000000000000000000000000000000000000000000000000000000000000000000000000000000000000000000000000000000000000000000000000000000000000000000000000000000000000000000000000000000000000000000000000000000000000000000000000000000000000000000000000000000000000000000000000083020000018742fe8c95373ea183584d318203e880a0d6122f9d56bd64fbfc9b6ce7da9496c4854719d01e8a49468c6e81c8e1bf6962887c0ab26bbaaceda2f862f860800183584d3194c94f5374fce5edbc8e2a8697c15331677e6ebf0b80801ba0b8b4255ee0ebbc999fd83d5247c119f9c089e9a2ce40d52b234288fd77856839a0362d599ccebcbc12dae17e88f74e55df047a99916bc7b4e164f203ba7c1106efc0",
                "transactions" : [
                    {
                        "data" : "",
                        "gasLimit" : "0x584d31",
                        "gasPrice" : "0x01",
                        "nonce" : "0x00",
                        "r" : "0xb8b4255ee0ebbc999fd83d5247c119f9c089e9a2ce40d52b234288fd77856839",
                        "s" : "0x362d599ccebcbc12dae17e88f74e55df047a99916bc7b4e164f203ba7c1106ef",
                        "to" : "0xc94f5374fce5edbc8e2a8697c15331677e6ebf0b",
                        "v" : "0x1b",
                        "value" : "0x00"
                    }
                ],
                "uncleHeaders" : [
                ]
            }
        ],
        "genesisBlockHeader" : {
            "bloom" : "0x00000000000000000000000000000000000000000000000000000000000000000000000000000000000000000000000000000000000000000000000000000000000000000000000000000000000000000000000000000000000000000000000000000000000000000000000000000000000000000000000000000000000000000000000000000000000000000000000000000000000000000000000000000000000000000000000000000000000000000000000000000000000000000000000000000000000000000000000000000000000000000000000000000000000000000000000000000000000000000000000000000000000000000000000000000000",
            "coinbase" : "0xd94f5374fce5edbc8e2a8697c15331677e6ebf0b",
            "difficulty" : "0x020000",
            "extraData" : "0x42",
            "gasLimit" : "0x42fe8c95373ea1",
            "gasUsed" : "0x00",
            "hash" : "0xb5fd5beb3033f29852143c5d21f7980d5d7a4fe23d885bb7ff95eae3145c200d",
            "mixHash" : "0x56e81f171bcc55a6ff8345e692c0f86e5b48e01b996cadc001622fb5e363b421",
            "nonce" : "0x0102030405060708",
            "number" : "0x00",
            "parentHash" : "0x0000000000000000000000000000000000000000000000000000000000000000",
            "receiptTrie" : "0x56e81f171bcc55a6ff8345e692c0f86e5b48e01b996cadc001622fb5e363b421",
            "stateRoot" : "0x944fb0a526a187102d61ed0141bf0bf4b7326a7b40108e200999de04ccc9b261",
            "timestamp" : "0x03b6",
            "transactionsTrie" : "0x56e81f171bcc55a6ff8345e692c0f86e5b48e01b996cadc001622fb5e363b421",
            "uncleHash" : "0x1dcc4de8dec75d7aab85b567b6ccd41ad312451b948a7413f0a142fd40d49347"
        },
        "genesisRLP" : "0xf901fef901f9a00000000000000000000000000000000000000000000000000000000000000000a01dcc4de8dec75d7aab85b567b6ccd41ad312451b948a7413f0a142fd40d4934794d94f5374fce5edbc8e2a8697c15331677e6ebf0ba0944fb0a526a187102d61ed0141bf0bf4b7326a7b40108e200999de04ccc9b261a056e81f171bcc55a6ff8345e692c0f86e5b48e01b996cadc001622fb5e363b421a056e81f171bcc55a6ff8345e692c0f86e5b48e01b996cadc001622fb5e363b421b901000000000000000000000000000000000000000000000000000000000000000000000000000000000000000000000000000000000000000000000000000000000000000000000000000000000000000000000000000000000000000000000000000000000000000000000000000000000000000000000000000000000000000000000000000000000000000000000000000000000000000000000000000000000000000000000000000000000000000000000000000000000000000000000000000000000000000000000000000000000000000000000000000000000000000000000000000000000000000000000000000000000000000000000000000000000083020000808742fe8c95373ea1808203b642a056e81f171bcc55a6ff8345e692c0f86e5b48e01b996cadc001622fb5e363b421880102030405060708c0c0",
        "lastblockhash" : "0x070b81d821095f49d5d47db433a66d542adc6524668e06a3ba17f44971f7c84e",
        "network" : "Frontier",
        "postState" : {
            "0xa94f5374fce5edbc8e2a8697c15331677e6ebf0b" : {
                "balance" : "0x3b427ccf",
                "code" : "",
                "nonce" : "0x01",
                "storage" : {
                }
            },
            "0xc94f5374fce5edbc8e2a8697c15331677e6ebf0b" : {
                "balance" : "0x00",
                "code" : "0x6001600160000360003e00",
                "nonce" : "0x07",
                "storage" : {
                }
            },
            "0xd94f5374fce5edbc8e2a8697c15331677e6ebf0b" : {
                "balance" : "0x45639182454c4d31",
                "code" : "",
                "nonce" : "0x00",
                "storage" : {
                }
            }
        },
        "pre" : {
            "0xa94f5374fce5edbc8e2a8697c15331677e6ebf0b" : {
                "balance" : "0x3b9aca00",
                "code" : "",
                "nonce" : "0x00",
                "storage" : {
                }
            },
            "0xc94f5374fce5edbc8e2a8697c15331677e6ebf0b" : {
                "balance" : "0x00",
                "code" : "0x6001600160000360003e00",
                "nonce" : "0x07",
                "storage" : {
                }
            }
        }
    },
    "randomStatetest647_d0g0v0_Homestead" : {
        "_info" : {
            "comment" : "",
            "filledwith" : "cpp-1.3.0+commit.c5d2b48b.Linux.g++",
            "lllcversion" : "Version: 0.4.18-develop.2017.10.11+commit.81f9f86c.Linux.g++",
            "source" : "src/BlockchainTestsFiller/GeneralStateTests/stRandom2/randomStatetest647_d0g0v0Filler.json",
            "sourceHash" : "093d8b33b55d37bb15bf0d0fa502f89e0c0e4143fba4cc8deb1390f9b750e85c"
        },
        "blocks" : [
            {
                "blockHeader" : {
                    "bloom" : "0x00000000000000000000000000000000000000000000000000000000000000000000000000000000000000000000000000000000000000000000000000000000000000000000000000000000000000000000000000000000000000000000000000000000000000000000000000000000000000000000000000000000000000000000000000000000000000000000000000000000000000000000000000000000000000000000000000000000000000000000000000000000000000000000000000000000000000000000000000000000000000000000000000000000000000000000000000000000000000000000000000000000000000000000000000000000",
                    "coinbase" : "0xd94f5374fce5edbc8e2a8697c15331677e6ebf0b",
                    "difficulty" : "0x020000",
                    "extraData" : "",
                    "gasLimit" : "0x42fe8c95373ea1",
                    "gasUsed" : "0x584d31",
                    "hash" : "0xcc8720795cb453cdeca6f7581613b44cf53499154baeea6f844fc24d6c417f4f",
                    "mixHash" : "0x41a97a58d1dade9d06ca22d252cf61143dcb8228a2c18df29ec637e35d12cd28",
                    "nonce" : "0x965d563b54b23144",
                    "number" : "0x01",
                    "parentHash" : "0xb5fd5beb3033f29852143c5d21f7980d5d7a4fe23d885bb7ff95eae3145c200d",
                    "receiptTrie" : "0x34c9f0bad0356d93e7b68da4be37440662c1eaa38234b4059332181cc9e4f66f",
                    "stateRoot" : "0xfc04ff9af90c53b4bf2b093af72ffdd5b9a90eb3838fe594a6a40412dea2ef9b",
                    "timestamp" : "0x03e8",
                    "transactionsTrie" : "0xc193cd14bc6a219c73fe6c2fb573bf3680e6e4140259eb06fdfccaebb4c3a9e9",
                    "uncleHash" : "0x1dcc4de8dec75d7aab85b567b6ccd41ad312451b948a7413f0a142fd40d49347"
                },
                "rlp" : "0xf90264f901fca0b5fd5beb3033f29852143c5d21f7980d5d7a4fe23d885bb7ff95eae3145c200da01dcc4de8dec75d7aab85b567b6ccd41ad312451b948a7413f0a142fd40d4934794d94f5374fce5edbc8e2a8697c15331677e6ebf0ba0fc04ff9af90c53b4bf2b093af72ffdd5b9a90eb3838fe594a6a40412dea2ef9ba0c193cd14bc6a219c73fe6c2fb573bf3680e6e4140259eb06fdfccaebb4c3a9e9a034c9f0bad0356d93e7b68da4be37440662c1eaa38234b4059332181cc9e4f66fb901000000000000000000000000000000000000000000000000000000000000000000000000000000000000000000000000000000000000000000000000000000000000000000000000000000000000000000000000000000000000000000000000000000000000000000000000000000000000000000000000000000000000000000000000000000000000000000000000000000000000000000000000000000000000000000000000000000000000000000000000000000000000000000000000000000000000000000000000000000000000000000000000000000000000000000000000000000000000000000000000000000000000000000000000000000000083020000018742fe8c95373ea183584d318203e880a041a97a58d1dade9d06ca22d252cf61143dcb8228a2c18df29ec637e35d12cd2888965d563b54b23144f862f860800183584d3194c94f5374fce5edbc8e2a8697c15331677e6ebf0b80801ba0b8b4255ee0ebbc999fd83d5247c119f9c089e9a2ce40d52b234288fd77856839a0362d599ccebcbc12dae17e88f74e55df047a99916bc7b4e164f203ba7c1106efc0",
                "transactions" : [
                    {
                        "data" : "",
                        "gasLimit" : "0x584d31",
                        "gasPrice" : "0x01",
                        "nonce" : "0x00",
                        "r" : "0xb8b4255ee0ebbc999fd83d5247c119f9c089e9a2ce40d52b234288fd77856839",
                        "s" : "0x362d599ccebcbc12dae17e88f74e55df047a99916bc7b4e164f203ba7c1106ef",
                        "to" : "0xc94f5374fce5edbc8e2a8697c15331677e6ebf0b",
                        "v" : "0x1b",
                        "value" : "0x00"
                    }
                ],
                "uncleHeaders" : [
                ]
            }
        ],
        "genesisBlockHeader" : {
            "bloom" : "0x00000000000000000000000000000000000000000000000000000000000000000000000000000000000000000000000000000000000000000000000000000000000000000000000000000000000000000000000000000000000000000000000000000000000000000000000000000000000000000000000000000000000000000000000000000000000000000000000000000000000000000000000000000000000000000000000000000000000000000000000000000000000000000000000000000000000000000000000000000000000000000000000000000000000000000000000000000000000000000000000000000000000000000000000000000000",
            "coinbase" : "0xd94f5374fce5edbc8e2a8697c15331677e6ebf0b",
            "difficulty" : "0x020000",
            "extraData" : "0x42",
            "gasLimit" : "0x42fe8c95373ea1",
            "gasUsed" : "0x00",
            "hash" : "0xb5fd5beb3033f29852143c5d21f7980d5d7a4fe23d885bb7ff95eae3145c200d",
            "mixHash" : "0x56e81f171bcc55a6ff8345e692c0f86e5b48e01b996cadc001622fb5e363b421",
            "nonce" : "0x0102030405060708",
            "number" : "0x00",
            "parentHash" : "0x0000000000000000000000000000000000000000000000000000000000000000",
            "receiptTrie" : "0x56e81f171bcc55a6ff8345e692c0f86e5b48e01b996cadc001622fb5e363b421",
            "stateRoot" : "0x944fb0a526a187102d61ed0141bf0bf4b7326a7b40108e200999de04ccc9b261",
            "timestamp" : "0x03b6",
            "transactionsTrie" : "0x56e81f171bcc55a6ff8345e692c0f86e5b48e01b996cadc001622fb5e363b421",
            "uncleHash" : "0x1dcc4de8dec75d7aab85b567b6ccd41ad312451b948a7413f0a142fd40d49347"
        },
        "genesisRLP" : "0xf901fef901f9a00000000000000000000000000000000000000000000000000000000000000000a01dcc4de8dec75d7aab85b567b6ccd41ad312451b948a7413f0a142fd40d4934794d94f5374fce5edbc8e2a8697c15331677e6ebf0ba0944fb0a526a187102d61ed0141bf0bf4b7326a7b40108e200999de04ccc9b261a056e81f171bcc55a6ff8345e692c0f86e5b48e01b996cadc001622fb5e363b421a056e81f171bcc55a6ff8345e692c0f86e5b48e01b996cadc001622fb5e363b421b901000000000000000000000000000000000000000000000000000000000000000000000000000000000000000000000000000000000000000000000000000000000000000000000000000000000000000000000000000000000000000000000000000000000000000000000000000000000000000000000000000000000000000000000000000000000000000000000000000000000000000000000000000000000000000000000000000000000000000000000000000000000000000000000000000000000000000000000000000000000000000000000000000000000000000000000000000000000000000000000000000000000000000000000000000000000083020000808742fe8c95373ea1808203b642a056e81f171bcc55a6ff8345e692c0f86e5b48e01b996cadc001622fb5e363b421880102030405060708c0c0",
        "lastblockhash" : "0xcc8720795cb453cdeca6f7581613b44cf53499154baeea6f844fc24d6c417f4f",
        "network" : "Homestead",
        "postState" : {
            "0xa94f5374fce5edbc8e2a8697c15331677e6ebf0b" : {
                "balance" : "0x3b427ccf",
                "code" : "",
                "nonce" : "0x01",
                "storage" : {
                }
            },
            "0xc94f5374fce5edbc8e2a8697c15331677e6ebf0b" : {
                "balance" : "0x00",
                "code" : "0x6001600160000360003e00",
                "nonce" : "0x07",
                "storage" : {
                }
            },
            "0xd94f5374fce5edbc8e2a8697c15331677e6ebf0b" : {
                "balance" : "0x45639182454c4d31",
                "code" : "",
                "nonce" : "0x00",
                "storage" : {
                }
            }
        },
        "pre" : {
            "0xa94f5374fce5edbc8e2a8697c15331677e6ebf0b" : {
                "balance" : "0x3b9aca00",
                "code" : "",
                "nonce" : "0x00",
                "storage" : {
                }
            },
            "0xc94f5374fce5edbc8e2a8697c15331677e6ebf0b" : {
                "balance" : "0x00",
                "code" : "0x6001600160000360003e00",
                "nonce" : "0x07",
                "storage" : {
                }
            }
        }
    }
}