{
    "randomStatetest401_d0g0v0_Byzantium" : {
        "_info" : {
            "comment" : "",
            "filledwith" : "cpp-1.3.0+commit.4e101574.Linux.g++",
            "lllcversion" : "Version: 0.4.18-develop.2017.10.11+commit.81f9f86c.Linux.g++",
            "source" : "src/BlockchainTestsFiller/GeneralStateTests/stRandom2/randomStatetest401_d0g0v0Filler.json",
            "sourceHash" : "73175cdf0d70e943501d355d1ce3c59f5c65333b05991c56168a66ac3e10daa5"
        },
        "blocks" : [
            {
                "blockHeader" : {
                    "bloom" : "0x00000000000000000000000000000000000000000000000000000000000000000000000000000000000000000000000000000000000000000000000000000000000000000000000000000000000000000000000000000000000000000000000000000000000000000000000000000000000000000000000000000000000000000000000000000000000000000000000000000000000000000000000000000000000000000000000000000000000000000000000000000000000000000000000000000000000000000000000000000000000000000000000000000000000000000000000000000000000000000000000000000000000000000000000000000000",
                    "coinbase" : "0x945304eb96065b2a98b57a48a06ae28d285a71b5",
                    "difficulty" : "0x020000",
                    "extraData" : "",
                    "gasLimit" : "0x7fffffffffffffff",
                    "gasUsed" : "0x3da5",
                    "hash" : "0x7b40d812bcc9e4ccc640f73adff53d9285d9194a65752b273265da4b7ac20497",
                    "mixHash" : "0xf5acc806add7c0206444bd3df38c48dbb60e79c6bfdeb29eecc7d61cc66f1de1",
                    "nonce" : "0xd0c6573cd923c96e",
                    "number" : "0x01",
                    "parentHash" : "0x0c364db2576467e6c839935f9d1f8b2be4016fb811ea16770bfed015040188bf",
                    "receiptTrie" : "0x1e906a2452e6e70094b5f4715db1c51a6457206e09044fe1892cf406d8536334",
                    "stateRoot" : "0xe5d1edcacc682542755642d2a36c48ec96ad493a0edd3365cae6aed642853519",
                    "timestamp" : "0x03e8",
                    "transactionsTrie" : "0x20879969a966cccc5f9a6a66ffac67a9408dbda70b2c58cf1bd3e3f8ab86c776",
                    "uncleHash" : "0x1dcc4de8dec75d7aab85b567b6ccd41ad312451b948a7413f0a142fd40d49347"
                },
                "rlp" : "0xf90335f901fca00c364db2576467e6c839935f9d1f8b2be4016fb811ea16770bfed015040188bfa01dcc4de8dec75d7aab85b567b6ccd41ad312451b948a7413f0a142fd40d4934794945304eb96065b2a98b57a48a06ae28d285a71b5a0e5d1edcacc682542755642d2a36c48ec96ad493a0edd3365cae6aed642853519a020879969a966cccc5f9a6a66ffac67a9408dbda70b2c58cf1bd3e3f8ab86c776a01e906a2452e6e70094b5f4715db1c51a6457206e09044fe1892cf406d8536334b90100000000000000000000000000000000000000000000000000000000000000000000000000000000000000000000000000000000000000000000000000000000000000000000000000000000000000000000000000000000000000000000000000000000000000000000000000000000000000000000000000000000000000000000000000000000000000000000000000000000000000000000000000000000000000000000000000000000000000000000000000000000000000000000000000000000000000000000000000000000000000000000000000000000000000000000000000000000000000000000000000000000000000000000000000000000008302000001887fffffffffffffff823da58203e880a0f5acc806add7c0206444bd3df38c48dbb60e79c6bfdeb29eecc7d61cc66f1de188d0c6573cd923c96ef90132f9012f8001841bc8784694095e7baea6a6c7c4c2dfeb977efac326af552d8784230f1c8eb8c97f00000000000000000000000100000000000000000000000000000000000000007f000000000000000000000000945304eb96065b2a98b57a48a06ae28d285a71b57f000000000000000000000000000000000000000000000000000000000000c3507f000000000000000000000000945304eb96065b2a98b57a48a06ae28d285a71b57f000000000000000000000000000000000000000000000000000000000000c35044427f000000000000000000000000945304eb96065b2a98b57a48a06ae28d285a71b5ff1ba0f3363803dedbd5024db217608a4825f674738c2b2a5eaac2cae746c1914d799da06913857207a9c3c09b69e7b9af6919a207430fda708338413d59448aab49e7c0c0",
                "transactions" : [
                    {
                        "data" : "0x7f00000000000000000000000100000000000000000000000000000000000000007f000000000000000000000000945304eb96065b2a98b57a48a06ae28d285a71b57f000000000000000000000000000000000000000000000000000000000000c3507f000000000000000000000000945304eb96065b2a98b57a48a06ae28d285a71b57f000000000000000000000000000000000000000000000000000000000000c35044427f000000000000000000000000945304eb96065b2a98b57a48a06ae28d285a71b5ff",
                        "gasLimit" : "0x1bc87846",
                        "gasPrice" : "0x01",
                        "nonce" : "0x00",
                        "r" : "0xf3363803dedbd5024db217608a4825f674738c2b2a5eaac2cae746c1914d799d",
                        "s" : "0x6913857207a9c3c09b69e7b9af6919a207430fda708338413d59448aab49e7c0",
                        "to" : "0x095e7baea6a6c7c4c2dfeb977efac326af552d87",
                        "v" : "0x1b",
                        "value" : "0x230f1c8e"
                    }
                ],
                "uncleHeaders" : [
                ]
            }
        ],
        "genesisBlockHeader" : {
            "bloom" : "0x00000000000000000000000000000000000000000000000000000000000000000000000000000000000000000000000000000000000000000000000000000000000000000000000000000000000000000000000000000000000000000000000000000000000000000000000000000000000000000000000000000000000000000000000000000000000000000000000000000000000000000000000000000000000000000000000000000000000000000000000000000000000000000000000000000000000000000000000000000000000000000000000000000000000000000000000000000000000000000000000000000000000000000000000000000000",
            "coinbase" : "0x945304eb96065b2a98b57a48a06ae28d285a71b5",
            "difficulty" : "0x020000",
            "extraData" : "0x42",
            "gasLimit" : "0x7fffffffffffffff",
            "gasUsed" : "0x00",
            "hash" : "0x0c364db2576467e6c839935f9d1f8b2be4016fb811ea16770bfed015040188bf",
            "mixHash" : "0x56e81f171bcc55a6ff8345e692c0f86e5b48e01b996cadc001622fb5e363b421",
            "nonce" : "0x0102030405060708",
            "number" : "0x00",
            "parentHash" : "0x0000000000000000000000000000000000000000000000000000000000000000",
            "receiptTrie" : "0x56e81f171bcc55a6ff8345e692c0f86e5b48e01b996cadc001622fb5e363b421",
            "stateRoot" : "0xa39fa207a7c55ed2c862e7701533b77e6a9a85a52f426abe7445d496c2ef3e42",
            "timestamp" : "0x03b6",
            "transactionsTrie" : "0x56e81f171bcc55a6ff8345e692c0f86e5b48e01b996cadc001622fb5e363b421",
            "uncleHash" : "0x1dcc4de8dec75d7aab85b567b6ccd41ad312451b948a7413f0a142fd40d49347"
        },
        "genesisRLP" : "0xf901fff901faa00000000000000000000000000000000000000000000000000000000000000000a01dcc4de8dec75d7aab85b567b6ccd41ad312451b948a7413f0a142fd40d4934794945304eb96065b2a98b57a48a06ae28d285a71b5a0a39fa207a7c55ed2c862e7701533b77e6a9a85a52f426abe7445d496c2ef3e42a056e81f171bcc55a6ff8345e692c0f86e5b48e01b996cadc001622fb5e363b421a056e81f171bcc55a6ff8345e692c0f86e5b48e01b996cadc001622fb5e363b421b90100000000000000000000000000000000000000000000000000000000000000000000000000000000000000000000000000000000000000000000000000000000000000000000000000000000000000000000000000000000000000000000000000000000000000000000000000000000000000000000000000000000000000000000000000000000000000000000000000000000000000000000000000000000000000000000000000000000000000000000000000000000000000000000000000000000000000000000000000000000000000000000000000000000000000000000000000000000000000000000000000000000000000000000000000000000008302000080887fffffffffffffff808203b642a056e81f171bcc55a6ff8345e692c0f86e5b48e01b996cadc001622fb5e363b421880102030405060708c0c0",
        "lastblockhash" : "0x7b40d812bcc9e4ccc640f73adff53d9285d9194a65752b273265da4b7ac20497",
        "network" : "Byzantium",
        "postState" : {
            "0x945304eb96065b2a98b57a48a06ae28d285a71b5" : {
                "balance" : "0x29a2241b193b5a61",
                "code" : "0x6000355415600957005b60203560003555",
                "nonce" : "0x00",
                "storage" : {
                }
            },
            "0xa94f5374fce5edbc8e2a8697c15331677e6ebf0b" : {
                "balance" : "0x0de0b6b38454a5cd",
                "code" : "",
                "nonce" : "0x01",
                "storage" : {
                }
            }
        },
        "pre" : {
            "0x095e7baea6a6c7c4c2dfeb977efac326af552d87" : {
                "balance" : "0x00",
                "code" : "0x7f00000000000000000000000100000000000000000000000000000000000000007f000000000000000000000000945304eb96065b2a98b57a48a06ae28d285a71b57f000000000000000000000000000000000000000000000000000000000000c3507f000000000000000000000000945304eb96065b2a98b57a48a06ae28d285a71b57f000000000000000000000000000000000000000000000000000000000000c35044427f000000000000000000000000945304eb96065b2a98b57a48a06ae28d285a71b5ff60005155",
                "nonce" : "0x00",
                "storage" : {
                }
            },
            "0x945304eb96065b2a98b57a48a06ae28d285a71b5" : {
                "balance" : "0x2e",
                "code" : "0x6000355415600957005b60203560003555",
                "nonce" : "0x00",
                "storage" : {
                }
            },
            "0xa94f5374fce5edbc8e2a8697c15331677e6ebf0b" : {
                "balance" : "0x0de0b6b3a7640000",
                "code" : "",
                "nonce" : "0x00",
                "storage" : {
                }
            }
        }
    },
    "randomStatetest401_d0g0v0_EIP150" : {
        "_info" : {
            "comment" : "",
            "filledwith" : "cpp-1.3.0+commit.4e101574.Linux.g++",
            "lllcversion" : "Version: 0.4.18-develop.2017.10.11+commit.81f9f86c.Linux.g++",
            "source" : "src/BlockchainTestsFiller/GeneralStateTests/stRandom2/randomStatetest401_d0g0v0Filler.json",
            "sourceHash" : "73175cdf0d70e943501d355d1ce3c59f5c65333b05991c56168a66ac3e10daa5"
        },
        "blocks" : [
            {
                "blockHeader" : {
                    "bloom" : "0x00000000000000000000000000000000000000000000000000000000000000000000000000000000000000000000000000000000000000000000000000000000000000000000000000000000000000000000000000000000000000000000000000000000000000000000000000000000000000000000000000000000000000000000000000000000000000000000000000000000000000000000000000000000000000000000000000000000000000000000000000000000000000000000000000000000000000000000000000000000000000000000000000000000000000000000000000000000000000000000000000000000000000000000000000000000",
                    "coinbase" : "0x945304eb96065b2a98b57a48a06ae28d285a71b5",
                    "difficulty" : "0x020000",
                    "extraData" : "",
                    "gasLimit" : "0x7fffffffffffffff",
                    "gasUsed" : "0x3da5",
                    "hash" : "0x5df2516b540184911260bb2a630888d17e0bdb068764d836d4f5e1fb6d7a22cf",
                    "mixHash" : "0xd5b49ed2d4a98df0cce5e021c7ee29b01ce585160f280cd62dc9610075fe5f9c",
                    "nonce" : "0x60394aac45f08a5e",
                    "number" : "0x01",
                    "parentHash" : "0x0c364db2576467e6c839935f9d1f8b2be4016fb811ea16770bfed015040188bf",
                    "receiptTrie" : "0x8b42f4d919cd1be9d41e5ca86061e8afee1b209d53d1266127cd1f6a5024d52a",
                    "stateRoot" : "0x3024bf6283f55950ba52003f4ff36d6b1054162cd7ecc4e873e36a2370fe0c4b",
                    "timestamp" : "0x03e8",
                    "transactionsTrie" : "0x20879969a966cccc5f9a6a66ffac67a9408dbda70b2c58cf1bd3e3f8ab86c776",
                    "uncleHash" : "0x1dcc4de8dec75d7aab85b567b6ccd41ad312451b948a7413f0a142fd40d49347"
                },
                "rlp" : "0xf90335f901fca00c364db2576467e6c839935f9d1f8b2be4016fb811ea16770bfed015040188bfa01dcc4de8dec75d7aab85b567b6ccd41ad312451b948a7413f0a142fd40d4934794945304eb96065b2a98b57a48a06ae28d285a71b5a03024bf6283f55950ba52003f4ff36d6b1054162cd7ecc4e873e36a2370fe0c4ba020879969a966cccc5f9a6a66ffac67a9408dbda70b2c58cf1bd3e3f8ab86c776a08b42f4d919cd1be9d41e5ca86061e8afee1b209d53d1266127cd1f6a5024d52ab90100000000000000000000000000000000000000000000000000000000000000000000000000000000000000000000000000000000000000000000000000000000000000000000000000000000000000000000000000000000000000000000000000000000000000000000000000000000000000000000000000000000000000000000000000000000000000000000000000000000000000000000000000000000000000000000000000000000000000000000000000000000000000000000000000000000000000000000000000000000000000000000000000000000000000000000000000000000000000000000000000000000000000000000000000000000008302000001887fffffffffffffff823da58203e880a0d5b49ed2d4a98df0cce5e021c7ee29b01ce585160f280cd62dc9610075fe5f9c8860394aac45f08a5ef90132f9012f8001841bc8784694095e7baea6a6c7c4c2dfeb977efac326af552d8784230f1c8eb8c97f00000000000000000000000100000000000000000000000000000000000000007f000000000000000000000000945304eb96065b2a98b57a48a06ae28d285a71b57f000000000000000000000000000000000000000000000000000000000000c3507f000000000000000000000000945304eb96065b2a98b57a48a06ae28d285a71b57f000000000000000000000000000000000000000000000000000000000000c35044427f000000000000000000000000945304eb96065b2a98b57a48a06ae28d285a71b5ff1ba0f3363803dedbd5024db217608a4825f674738c2b2a5eaac2cae746c1914d799da06913857207a9c3c09b69e7b9af6919a207430fda708338413d59448aab49e7c0c0",
                "transactions" : [
                    {
                        "data" : "0x7f00000000000000000000000100000000000000000000000000000000000000007f000000000000000000000000945304eb96065b2a98b57a48a06ae28d285a71b57f000000000000000000000000000000000000000000000000000000000000c3507f000000000000000000000000945304eb96065b2a98b57a48a06ae28d285a71b57f000000000000000000000000000000000000000000000000000000000000c35044427f000000000000000000000000945304eb96065b2a98b57a48a06ae28d285a71b5ff",
                        "gasLimit" : "0x1bc87846",
                        "gasPrice" : "0x01",
                        "nonce" : "0x00",
                        "r" : "0xf3363803dedbd5024db217608a4825f674738c2b2a5eaac2cae746c1914d799d",
                        "s" : "0x6913857207a9c3c09b69e7b9af6919a207430fda708338413d59448aab49e7c0",
                        "to" : "0x095e7baea6a6c7c4c2dfeb977efac326af552d87",
                        "v" : "0x1b",
                        "value" : "0x230f1c8e"
                    }
                ],
                "uncleHeaders" : [
                ]
            }
        ],
        "genesisBlockHeader" : {
            "bloom" : "0x00000000000000000000000000000000000000000000000000000000000000000000000000000000000000000000000000000000000000000000000000000000000000000000000000000000000000000000000000000000000000000000000000000000000000000000000000000000000000000000000000000000000000000000000000000000000000000000000000000000000000000000000000000000000000000000000000000000000000000000000000000000000000000000000000000000000000000000000000000000000000000000000000000000000000000000000000000000000000000000000000000000000000000000000000000000",
            "coinbase" : "0x945304eb96065b2a98b57a48a06ae28d285a71b5",
            "difficulty" : "0x020000",
            "extraData" : "0x42",
            "gasLimit" : "0x7fffffffffffffff",
            "gasUsed" : "0x00",
            "hash" : "0x0c364db2576467e6c839935f9d1f8b2be4016fb811ea16770bfed015040188bf",
            "mixHash" : "0x56e81f171bcc55a6ff8345e692c0f86e5b48e01b996cadc001622fb5e363b421",
            "nonce" : "0x0102030405060708",
            "number" : "0x00",
            "parentHash" : "0x0000000000000000000000000000000000000000000000000000000000000000",
            "receiptTrie" : "0x56e81f171bcc55a6ff8345e692c0f86e5b48e01b996cadc001622fb5e363b421",
            "stateRoot" : "0xa39fa207a7c55ed2c862e7701533b77e6a9a85a52f426abe7445d496c2ef3e42",
            "timestamp" : "0x03b6",
            "transactionsTrie" : "0x56e81f171bcc55a6ff8345e692c0f86e5b48e01b996cadc001622fb5e363b421",
            "uncleHash" : "0x1dcc4de8dec75d7aab85b567b6ccd41ad312451b948a7413f0a142fd40d49347"
        },
        "genesisRLP" : "0xf901fff901faa00000000000000000000000000000000000000000000000000000000000000000a01dcc4de8dec75d7aab85b567b6ccd41ad312451b948a7413f0a142fd40d4934794945304eb96065b2a98b57a48a06ae28d285a71b5a0a39fa207a7c55ed2c862e7701533b77e6a9a85a52f426abe7445d496c2ef3e42a056e81f171bcc55a6ff8345e692c0f86e5b48e01b996cadc001622fb5e363b421a056e81f171bcc55a6ff8345e692c0f86e5b48e01b996cadc001622fb5e363b421b90100000000000000000000000000000000000000000000000000000000000000000000000000000000000000000000000000000000000000000000000000000000000000000000000000000000000000000000000000000000000000000000000000000000000000000000000000000000000000000000000000000000000000000000000000000000000000000000000000000000000000000000000000000000000000000000000000000000000000000000000000000000000000000000000000000000000000000000000000000000000000000000000000000000000000000000000000000000000000000000000000000000000000000000000000000000008302000080887fffffffffffffff808203b642a056e81f171bcc55a6ff8345e692c0f86e5b48e01b996cadc001622fb5e363b421880102030405060708c0c0",
        "lastblockhash" : "0x5df2516b540184911260bb2a630888d17e0bdb068764d836d4f5e1fb6d7a22cf",
        "network" : "EIP150",
        "postState" : {
            "0x945304eb96065b2a98b57a48a06ae28d285a71b5" : {
                "balance" : "0x4563918268035a61",
                "code" : "0x6000355415600957005b60203560003555",
                "nonce" : "0x00",
                "storage" : {
                }
            },
            "0xa94f5374fce5edbc8e2a8697c15331677e6ebf0b" : {
                "balance" : "0x0de0b6b38454a5cd",
                "code" : "",
                "nonce" : "0x01",
                "storage" : {
                }
            }
        },
        "pre" : {
            "0x095e7baea6a6c7c4c2dfeb977efac326af552d87" : {
                "balance" : "0x00",
                "code" : "0x7f00000000000000000000000100000000000000000000000000000000000000007f000000000000000000000000945304eb96065b2a98b57a48a06ae28d285a71b57f000000000000000000000000000000000000000000000000000000000000c3507f000000000000000000000000945304eb96065b2a98b57a48a06ae28d285a71b57f000000000000000000000000000000000000000000000000000000000000c35044427f000000000000000000000000945304eb96065b2a98b57a48a06ae28d285a71b5ff60005155",
                "nonce" : "0x00",
                "storage" : {
                }
            },
            "0x945304eb96065b2a98b57a48a06ae28d285a71b5" : {
                "balance" : "0x2e",
                "code" : "0x6000355415600957005b60203560003555",
                "nonce" : "0x00",
                "storage" : {
                }
            },
            "0xa94f5374fce5edbc8e2a8697c15331677e6ebf0b" : {
                "balance" : "0x0de0b6b3a7640000",
                "code" : "",
                "nonce" : "0x00",
                "storage" : {
                }
            }
        }
    },
    "randomStatetest401_d0g0v0_EIP158" : {
        "_info" : {
            "comment" : "",
            "filledwith" : "cpp-1.3.0+commit.4e101574.Linux.g++",
            "lllcversion" : "Version: 0.4.18-develop.2017.10.11+commit.81f9f86c.Linux.g++",
            "source" : "src/BlockchainTestsFiller/GeneralStateTests/stRandom2/randomStatetest401_d0g0v0Filler.json",
            "sourceHash" : "73175cdf0d70e943501d355d1ce3c59f5c65333b05991c56168a66ac3e10daa5"
        },
        "blocks" : [
            {
                "blockHeader" : {
                    "bloom" : "0x00000000000000000000000000000000000000000000000000000000000000000000000000000000000000000000000000000000000000000000000000000000000000000000000000000000000000000000000000000000000000000000000000000000000000000000000000000000000000000000000000000000000000000000000000000000000000000000000000000000000000000000000000000000000000000000000000000000000000000000000000000000000000000000000000000000000000000000000000000000000000000000000000000000000000000000000000000000000000000000000000000000000000000000000000000000",
                    "coinbase" : "0x945304eb96065b2a98b57a48a06ae28d285a71b5",
                    "difficulty" : "0x020000",
                    "extraData" : "",
                    "gasLimit" : "0x7fffffffffffffff",
                    "gasUsed" : "0x3da5",
                    "hash" : "0x691b0524919fd15f94c74cd3544d5f753d011488e8470949935a4582c621f327",
                    "mixHash" : "0x0fdd06c586764f3d3b3a471481604d222d96c20cc1703d5cbf06aa2a958e35f0",
                    "nonce" : "0xcc327d8e3e8061ca",
                    "number" : "0x01",
                    "parentHash" : "0x0c364db2576467e6c839935f9d1f8b2be4016fb811ea16770bfed015040188bf",
                    "receiptTrie" : "0x8b42f4d919cd1be9d41e5ca86061e8afee1b209d53d1266127cd1f6a5024d52a",
                    "stateRoot" : "0x3024bf6283f55950ba52003f4ff36d6b1054162cd7ecc4e873e36a2370fe0c4b",
                    "timestamp" : "0x03e8",
                    "transactionsTrie" : "0x20879969a966cccc5f9a6a66ffac67a9408dbda70b2c58cf1bd3e3f8ab86c776",
                    "uncleHash" : "0x1dcc4de8dec75d7aab85b567b6ccd41ad312451b948a7413f0a142fd40d49347"
                },
                "rlp" : "0xf90335f901fca00c364db2576467e6c839935f9d1f8b2be4016fb811ea16770bfed015040188bfa01dcc4de8dec75d7aab85b567b6ccd41ad312451b948a7413f0a142fd40d4934794945304eb96065b2a98b57a48a06ae28d285a71b5a03024bf6283f55950ba52003f4ff36d6b1054162cd7ecc4e873e36a2370fe0c4ba020879969a966cccc5f9a6a66ffac67a9408dbda70b2c58cf1bd3e3f8ab86c776a08b42f4d919cd1be9d41e5ca86061e8afee1b209d53d1266127cd1f6a5024d52ab90100000000000000000000000000000000000000000000000000000000000000000000000000000000000000000000000000000000000000000000000000000000000000000000000000000000000000000000000000000000000000000000000000000000000000000000000000000000000000000000000000000000000000000000000000000000000000000000000000000000000000000000000000000000000000000000000000000000000000000000000000000000000000000000000000000000000000000000000000000000000000000000000000000000000000000000000000000000000000000000000000000000000000000000000000000000008302000001887fffffffffffffff823da58203e880a00fdd06c586764f3d3b3a471481604d222d96c20cc1703d5cbf06aa2a958e35f088cc327d8e3e8061caf90132f9012f8001841bc8784694095e7baea6a6c7c4c2dfeb977efac326af552d8784230f1c8eb8c97f00000000000000000000000100000000000000000000000000000000000000007f000000000000000000000000945304eb96065b2a98b57a48a06ae28d285a71b57f000000000000000000000000000000000000000000000000000000000000c3507f000000000000000000000000945304eb96065b2a98b57a48a06ae28d285a71b57f000000000000000000000000000000000000000000000000000000000000c35044427f000000000000000000000000945304eb96065b2a98b57a48a06ae28d285a71b5ff1ba0f3363803dedbd5024db217608a4825f674738c2b2a5eaac2cae746c1914d799da06913857207a9c3c09b69e7b9af6919a207430fda708338413d59448aab49e7c0c0",
                "transactions" : [
                    {
                        "data" : "0x7f00000000000000000000000100000000000000000000000000000000000000007f000000000000000000000000945304eb96065b2a98b57a48a06ae28d285a71b57f000000000000000000000000000000000000000000000000000000000000c3507f000000000000000000000000945304eb96065b2a98b57a48a06ae28d285a71b57f000000000000000000000000000000000000000000000000000000000000c35044427f000000000000000000000000945304eb96065b2a98b57a48a06ae28d285a71b5ff",
                        "gasLimit" : "0x1bc87846",
                        "gasPrice" : "0x01",
                        "nonce" : "0x00",
                        "r" : "0xf3363803dedbd5024db217608a4825f674738c2b2a5eaac2cae746c1914d799d",
                        "s" : "0x6913857207a9c3c09b69e7b9af6919a207430fda708338413d59448aab49e7c0",
                        "to" : "0x095e7baea6a6c7c4c2dfeb977efac326af552d87",
                        "v" : "0x1b",
                        "value" : "0x230f1c8e"
                    }
                ],
                "uncleHeaders" : [
                ]
            }
        ],
        "genesisBlockHeader" : {
            "bloom" : "0x00000000000000000000000000000000000000000000000000000000000000000000000000000000000000000000000000000000000000000000000000000000000000000000000000000000000000000000000000000000000000000000000000000000000000000000000000000000000000000000000000000000000000000000000000000000000000000000000000000000000000000000000000000000000000000000000000000000000000000000000000000000000000000000000000000000000000000000000000000000000000000000000000000000000000000000000000000000000000000000000000000000000000000000000000000000",
            "coinbase" : "0x945304eb96065b2a98b57a48a06ae28d285a71b5",
            "difficulty" : "0x020000",
            "extraData" : "0x42",
            "gasLimit" : "0x7fffffffffffffff",
            "gasUsed" : "0x00",
            "hash" : "0x0c364db2576467e6c839935f9d1f8b2be4016fb811ea16770bfed015040188bf",
            "mixHash" : "0x56e81f171bcc55a6ff8345e692c0f86e5b48e01b996cadc001622fb5e363b421",
            "nonce" : "0x0102030405060708",
            "number" : "0x00",
            "parentHash" : "0x0000000000000000000000000000000000000000000000000000000000000000",
            "receiptTrie" : "0x56e81f171bcc55a6ff8345e692c0f86e5b48e01b996cadc001622fb5e363b421",
            "stateRoot" : "0xa39fa207a7c55ed2c862e7701533b77e6a9a85a52f426abe7445d496c2ef3e42",
            "timestamp" : "0x03b6",
            "transactionsTrie" : "0x56e81f171bcc55a6ff8345e692c0f86e5b48e01b996cadc001622fb5e363b421",
            "uncleHash" : "0x1dcc4de8dec75d7aab85b567b6ccd41ad312451b948a7413f0a142fd40d49347"
        },
        "genesisRLP" : "0xf901fff901faa00000000000000000000000000000000000000000000000000000000000000000a01dcc4de8dec75d7aab85b567b6ccd41ad312451b948a7413f0a142fd40d4934794945304eb96065b2a98b57a48a06ae28d285a71b5a0a39fa207a7c55ed2c862e7701533b77e6a9a85a52f426abe7445d496c2ef3e42a056e81f171bcc55a6ff8345e692c0f86e5b48e01b996cadc001622fb5e363b421a056e81f171bcc55a6ff8345e692c0f86e5b48e01b996cadc001622fb5e363b421b90100000000000000000000000000000000000000000000000000000000000000000000000000000000000000000000000000000000000000000000000000000000000000000000000000000000000000000000000000000000000000000000000000000000000000000000000000000000000000000000000000000000000000000000000000000000000000000000000000000000000000000000000000000000000000000000000000000000000000000000000000000000000000000000000000000000000000000000000000000000000000000000000000000000000000000000000000000000000000000000000000000000000000000000000000000000008302000080887fffffffffffffff808203b642a056e81f171bcc55a6ff8345e692c0f86e5b48e01b996cadc001622fb5e363b421880102030405060708c0c0",
        "lastblockhash" : "0x691b0524919fd15f94c74cd3544d5f753d011488e8470949935a4582c621f327",
        "network" : "EIP158",
        "postState" : {
            "0x945304eb96065b2a98b57a48a06ae28d285a71b5" : {
                "balance" : "0x4563918268035a61",
                "code" : "0x6000355415600957005b60203560003555",
                "nonce" : "0x00",
                "storage" : {
                }
            },
            "0xa94f5374fce5edbc8e2a8697c15331677e6ebf0b" : {
                "balance" : "0x0de0b6b38454a5cd",
                "code" : "",
                "nonce" : "0x01",
                "storage" : {
                }
            }
        },
        "pre" : {
            "0x095e7baea6a6c7c4c2dfeb977efac326af552d87" : {
                "balance" : "0x00",
                "code" : "0x7f00000000000000000000000100000000000000000000000000000000000000007f000000000000000000000000945304eb96065b2a98b57a48a06ae28d285a71b57f000000000000000000000000000000000000000000000000000000000000c3507f000000000000000000000000945304eb96065b2a98b57a48a06ae28d285a71b57f000000000000000000000000000000000000000000000000000000000000c35044427f000000000000000000000000945304eb96065b2a98b57a48a06ae28d285a71b5ff60005155",
                "nonce" : "0x00",
                "storage" : {
                }
            },
            "0x945304eb96065b2a98b57a48a06ae28d285a71b5" : {
                "balance" : "0x2e",
                "code" : "0x6000355415600957005b60203560003555",
                "nonce" : "0x00",
                "storage" : {
                }
            },
            "0xa94f5374fce5edbc8e2a8697c15331677e6ebf0b" : {
                "balance" : "0x0de0b6b3a7640000",
                "code" : "",
                "nonce" : "0x00",
                "storage" : {
                }
            }
        }
    },
    "randomStatetest401_d0g0v0_Frontier" : {
        "_info" : {
            "comment" : "",
            "filledwith" : "cpp-1.3.0+commit.4e101574.Linux.g++",
            "lllcversion" : "Version: 0.4.18-develop.2017.10.11+commit.81f9f86c.Linux.g++",
            "source" : "src/BlockchainTestsFiller/GeneralStateTests/stRandom2/randomStatetest401_d0g0v0Filler.json",
            "sourceHash" : "73175cdf0d70e943501d355d1ce3c59f5c65333b05991c56168a66ac3e10daa5"
        },
        "blocks" : [
            {
                "blockHeader" : {
                    "bloom" : "0x00000000000000000000000000000000000000000000000000000000000000000000000000000000000000000000000000000000000000000000000000000000000000000000000000000000000000000000000000000000000000000000000000000000000000000000000000000000000000000000000000000000000000000000000000000000000000000000000000000000000000000000000000000000000000000000000000000000000000000000000000000000000000000000000000000000000000000000000000000000000000000000000000000000000000000000000000000000000000000000000000000000000000000000000000000000",
                    "coinbase" : "0x945304eb96065b2a98b57a48a06ae28d285a71b5",
                    "difficulty" : "0x020000",
                    "extraData" : "",
                    "gasLimit" : "0x7fffffffffffffff",
                    "gasUsed" : "0x33e1",
                    "hash" : "0x2c5daef5eaf5efb9bd08bd998e29ab9019f47199180a7538f825c46d2c5b1382",
                    "mixHash" : "0xbc081f8cf911bf4d6797ce858a2962a96e33b933f0d54ee04af3ef11e2740181",
                    "nonce" : "0xb311fab1291c5f65",
                    "number" : "0x01",
                    "parentHash" : "0x0c364db2576467e6c839935f9d1f8b2be4016fb811ea16770bfed015040188bf",
                    "receiptTrie" : "0x2f1a12d50929ae9412a066cb2bb5b3b8f332f558347dc516610707d5786f7a39",
                    "stateRoot" : "0x16f70bbd1fb2d33c5e5dd955d575aa324ac6c0c107545c58e307937c92b3ff8d",
                    "timestamp" : "0x03e8",
                    "transactionsTrie" : "0x20879969a966cccc5f9a6a66ffac67a9408dbda70b2c58cf1bd3e3f8ab86c776",
                    "uncleHash" : "0x1dcc4de8dec75d7aab85b567b6ccd41ad312451b948a7413f0a142fd40d49347"
                },
                "rlp" : "0xf90335f901fca00c364db2576467e6c839935f9d1f8b2be4016fb811ea16770bfed015040188bfa01dcc4de8dec75d7aab85b567b6ccd41ad312451b948a7413f0a142fd40d4934794945304eb96065b2a98b57a48a06ae28d285a71b5a016f70bbd1fb2d33c5e5dd955d575aa324ac6c0c107545c58e307937c92b3ff8da020879969a966cccc5f9a6a66ffac67a9408dbda70b2c58cf1bd3e3f8ab86c776a02f1a12d50929ae9412a066cb2bb5b3b8f332f558347dc516610707d5786f7a39b90100000000000000000000000000000000000000000000000000000000000000000000000000000000000000000000000000000000000000000000000000000000000000000000000000000000000000000000000000000000000000000000000000000000000000000000000000000000000000000000000000000000000000000000000000000000000000000000000000000000000000000000000000000000000000000000000000000000000000000000000000000000000000000000000000000000000000000000000000000000000000000000000000000000000000000000000000000000000000000000000000000000000000000000000000000000008302000001887fffffffffffffff8233e18203e880a0bc081f8cf911bf4d6797ce858a2962a96e33b933f0d54ee04af3ef11e274018188b311fab1291c5f65f90132f9012f8001841bc8784694095e7baea6a6c7c4c2dfeb977efac326af552d8784230f1c8eb8c97f00000000000000000000000100000000000000000000000000000000000000007f000000000000000000000000945304eb96065b2a98b57a48a06ae28d285a71b57f000000000000000000000000000000000000000000000000000000000000c3507f000000000000000000000000945304eb96065b2a98b57a48a06ae28d285a71b57f000000000000000000000000000000000000000000000000000000000000c35044427f000000000000000000000000945304eb96065b2a98b57a48a06ae28d285a71b5ff1ba0f3363803dedbd5024db217608a4825f674738c2b2a5eaac2cae746c1914d799da06913857207a9c3c09b69e7b9af6919a207430fda708338413d59448aab49e7c0c0",
                "transactions" : [
                    {
                        "data" : "0x7f00000000000000000000000100000000000000000000000000000000000000007f000000000000000000000000945304eb96065b2a98b57a48a06ae28d285a71b57f000000000000000000000000000000000000000000000000000000000000c3507f000000000000000000000000945304eb96065b2a98b57a48a06ae28d285a71b57f000000000000000000000000000000000000000000000000000000000000c35044427f000000000000000000000000945304eb96065b2a98b57a48a06ae28d285a71b5ff",
                        "gasLimit" : "0x1bc87846",
                        "gasPrice" : "0x01",
                        "nonce" : "0x00",
                        "r" : "0xf3363803dedbd5024db217608a4825f674738c2b2a5eaac2cae746c1914d799d",
                        "s" : "0x6913857207a9c3c09b69e7b9af6919a207430fda708338413d59448aab49e7c0",
                        "to" : "0x095e7baea6a6c7c4c2dfeb977efac326af552d87",
                        "v" : "0x1b",
                        "value" : "0x230f1c8e"
                    }
                ],
                "uncleHeaders" : [
                ]
            }
        ],
        "genesisBlockHeader" : {
            "bloom" : "0x00000000000000000000000000000000000000000000000000000000000000000000000000000000000000000000000000000000000000000000000000000000000000000000000000000000000000000000000000000000000000000000000000000000000000000000000000000000000000000000000000000000000000000000000000000000000000000000000000000000000000000000000000000000000000000000000000000000000000000000000000000000000000000000000000000000000000000000000000000000000000000000000000000000000000000000000000000000000000000000000000000000000000000000000000000000",
            "coinbase" : "0x945304eb96065b2a98b57a48a06ae28d285a71b5",
            "difficulty" : "0x020000",
            "extraData" : "0x42",
            "gasLimit" : "0x7fffffffffffffff",
            "gasUsed" : "0x00",
            "hash" : "0x0c364db2576467e6c839935f9d1f8b2be4016fb811ea16770bfed015040188bf",
            "mixHash" : "0x56e81f171bcc55a6ff8345e692c0f86e5b48e01b996cadc001622fb5e363b421",
            "nonce" : "0x0102030405060708",
            "number" : "0x00",
            "parentHash" : "0x0000000000000000000000000000000000000000000000000000000000000000",
            "receiptTrie" : "0x56e81f171bcc55a6ff8345e692c0f86e5b48e01b996cadc001622fb5e363b421",
            "stateRoot" : "0xa39fa207a7c55ed2c862e7701533b77e6a9a85a52f426abe7445d496c2ef3e42",
            "timestamp" : "0x03b6",
            "transactionsTrie" : "0x56e81f171bcc55a6ff8345e692c0f86e5b48e01b996cadc001622fb5e363b421",
            "uncleHash" : "0x1dcc4de8dec75d7aab85b567b6ccd41ad312451b948a7413f0a142fd40d49347"
        },
        "genesisRLP" : "0xf901fff901faa00000000000000000000000000000000000000000000000000000000000000000a01dcc4de8dec75d7aab85b567b6ccd41ad312451b948a7413f0a142fd40d4934794945304eb96065b2a98b57a48a06ae28d285a71b5a0a39fa207a7c55ed2c862e7701533b77e6a9a85a52f426abe7445d496c2ef3e42a056e81f171bcc55a6ff8345e692c0f86e5b48e01b996cadc001622fb5e363b421a056e81f171bcc55a6ff8345e692c0f86e5b48e01b996cadc001622fb5e363b421b90100000000000000000000000000000000000000000000000000000000000000000000000000000000000000000000000000000000000000000000000000000000000000000000000000000000000000000000000000000000000000000000000000000000000000000000000000000000000000000000000000000000000000000000000000000000000000000000000000000000000000000000000000000000000000000000000000000000000000000000000000000000000000000000000000000000000000000000000000000000000000000000000000000000000000000000000000000000000000000000000000000000000000000000000000000000008302000080887fffffffffffffff808203b642a056e81f171bcc55a6ff8345e692c0f86e5b48e01b996cadc001622fb5e363b421880102030405060708c0c0",
        "lastblockhash" : "0x2c5daef5eaf5efb9bd08bd998e29ab9019f47199180a7538f825c46d2c5b1382",
        "network" : "Frontier",
        "postState" : {
            "0x945304eb96065b2a98b57a48a06ae28d285a71b5" : {
                "balance" : "0x456391826803509d",
                "code" : "0x6000355415600957005b60203560003555",
                "nonce" : "0x00",
                "storage" : {
                }
            },
            "0xa94f5374fce5edbc8e2a8697c15331677e6ebf0b" : {
                "balance" : "0x0de0b6b38454af91",
                "code" : "",
                "nonce" : "0x01",
                "storage" : {
                }
            }
        },
        "pre" : {
            "0x095e7baea6a6c7c4c2dfeb977efac326af552d87" : {
                "balance" : "0x00",
                "code" : "0x7f00000000000000000000000100000000000000000000000000000000000000007f000000000000000000000000945304eb96065b2a98b57a48a06ae28d285a71b57f000000000000000000000000000000000000000000000000000000000000c3507f000000000000000000000000945304eb96065b2a98b57a48a06ae28d285a71b57f000000000000000000000000000000000000000000000000000000000000c35044427f000000000000000000000000945304eb96065b2a98b57a48a06ae28d285a71b5ff60005155",
                "nonce" : "0x00",
                "storage" : {
                }
            },
            "0x945304eb96065b2a98b57a48a06ae28d285a71b5" : {
                "balance" : "0x2e",
                "code" : "0x6000355415600957005b60203560003555",
                "nonce" : "0x00",
                "storage" : {
                }
            },
            "0xa94f5374fce5edbc8e2a8697c15331677e6ebf0b" : {
                "balance" : "0x0de0b6b3a7640000",
                "code" : "",
                "nonce" : "0x00",
                "storage" : {
                }
            }
        }
    },
    "randomStatetest401_d0g0v0_Homestead" : {
        "_info" : {
            "comment" : "",
            "filledwith" : "cpp-1.3.0+commit.4e101574.Linux.g++",
            "lllcversion" : "Version: 0.4.18-develop.2017.10.11+commit.81f9f86c.Linux.g++",
            "source" : "src/BlockchainTestsFiller/GeneralStateTests/stRandom2/randomStatetest401_d0g0v0Filler.json",
            "sourceHash" : "73175cdf0d70e943501d355d1ce3c59f5c65333b05991c56168a66ac3e10daa5"
        },
        "blocks" : [
            {
                "blockHeader" : {
                    "bloom" : "0x00000000000000000000000000000000000000000000000000000000000000000000000000000000000000000000000000000000000000000000000000000000000000000000000000000000000000000000000000000000000000000000000000000000000000000000000000000000000000000000000000000000000000000000000000000000000000000000000000000000000000000000000000000000000000000000000000000000000000000000000000000000000000000000000000000000000000000000000000000000000000000000000000000000000000000000000000000000000000000000000000000000000000000000000000000000",
                    "coinbase" : "0x945304eb96065b2a98b57a48a06ae28d285a71b5",
                    "difficulty" : "0x020000",
                    "extraData" : "",
                    "gasLimit" : "0x7fffffffffffffff",
                    "gasUsed" : "0x33e1",
                    "hash" : "0xe7cc266200270909a889b892db85085459f37b69d705c5c3dfdbc20168b1ae5c",
                    "mixHash" : "0xb242a0c6c1c1f8efde276fd9bc6b1f24c0c71e022e1aab98497836a69c260c07",
                    "nonce" : "0x994b979cbdf8ad92",
                    "number" : "0x01",
                    "parentHash" : "0x0c364db2576467e6c839935f9d1f8b2be4016fb811ea16770bfed015040188bf",
                    "receiptTrie" : "0x2f1a12d50929ae9412a066cb2bb5b3b8f332f558347dc516610707d5786f7a39",
                    "stateRoot" : "0x16f70bbd1fb2d33c5e5dd955d575aa324ac6c0c107545c58e307937c92b3ff8d",
                    "timestamp" : "0x03e8",
                    "transactionsTrie" : "0x20879969a966cccc5f9a6a66ffac67a9408dbda70b2c58cf1bd3e3f8ab86c776",
                    "uncleHash" : "0x1dcc4de8dec75d7aab85b567b6ccd41ad312451b948a7413f0a142fd40d49347"
                },
                "rlp" : "0xf90335f901fca00c364db2576467e6c839935f9d1f8b2be4016fb811ea16770bfed015040188bfa01dcc4de8dec75d7aab85b567b6ccd41ad312451b948a7413f0a142fd40d4934794945304eb96065b2a98b57a48a06ae28d285a71b5a016f70bbd1fb2d33c5e5dd955d575aa324ac6c0c107545c58e307937c92b3ff8da020879969a966cccc5f9a6a66ffac67a9408dbda70b2c58cf1bd3e3f8ab86c776a02f1a12d50929ae9412a066cb2bb5b3b8f332f558347dc516610707d5786f7a39b90100000000000000000000000000000000000000000000000000000000000000000000000000000000000000000000000000000000000000000000000000000000000000000000000000000000000000000000000000000000000000000000000000000000000000000000000000000000000000000000000000000000000000000000000000000000000000000000000000000000000000000000000000000000000000000000000000000000000000000000000000000000000000000000000000000000000000000000000000000000000000000000000000000000000000000000000000000000000000000000000000000000000000000000000000000000008302000001887fffffffffffffff8233e18203e880a0b242a0c6c1c1f8efde276fd9bc6b1f24c0c71e022e1aab98497836a69c260c0788994b979cbdf8ad92f90132f9012f8001841bc8784694095e7baea6a6c7c4c2dfeb977efac326af552d8784230f1c8eb8c97f00000000000000000000000100000000000000000000000000000000000000007f000000000000000000000000945304eb96065b2a98b57a48a06ae28d285a71b57f000000000000000000000000000000000000000000000000000000000000c3507f000000000000000000000000945304eb96065b2a98b57a48a06ae28d285a71b57f000000000000000000000000000000000000000000000000000000000000c35044427f000000000000000000000000945304eb96065b2a98b57a48a06ae28d285a71b5ff1ba0f3363803dedbd5024db217608a4825f674738c2b2a5eaac2cae746c1914d799da06913857207a9c3c09b69e7b9af6919a207430fda708338413d59448aab49e7c0c0",
                "transactions" : [
                    {
                        "data" : "0x7f00000000000000000000000100000000000000000000000000000000000000007f000000000000000000000000945304eb96065b2a98b57a48a06ae28d285a71b57f000000000000000000000000000000000000000000000000000000000000c3507f000000000000000000000000945304eb96065b2a98b57a48a06ae28d285a71b57f000000000000000000000000000000000000000000000000000000000000c35044427f000000000000000000000000945304eb96065b2a98b57a48a06ae28d285a71b5ff",
                        "gasLimit" : "0x1bc87846",
                        "gasPrice" : "0x01",
                        "nonce" : "0x00",
                        "r" : "0xf3363803dedbd5024db217608a4825f674738c2b2a5eaac2cae746c1914d799d",
                        "s" : "0x6913857207a9c3c09b69e7b9af6919a207430fda708338413d59448aab49e7c0",
                        "to" : "0x095e7baea6a6c7c4c2dfeb977efac326af552d87",
                        "v" : "0x1b",
                        "value" : "0x230f1c8e"
                    }
                ],
                "uncleHeaders" : [
                ]
            }
        ],
        "genesisBlockHeader" : {
            "bloom" : "0x00000000000000000000000000000000000000000000000000000000000000000000000000000000000000000000000000000000000000000000000000000000000000000000000000000000000000000000000000000000000000000000000000000000000000000000000000000000000000000000000000000000000000000000000000000000000000000000000000000000000000000000000000000000000000000000000000000000000000000000000000000000000000000000000000000000000000000000000000000000000000000000000000000000000000000000000000000000000000000000000000000000000000000000000000000000",
            "coinbase" : "0x945304eb96065b2a98b57a48a06ae28d285a71b5",
            "difficulty" : "0x020000",
            "extraData" : "0x42",
            "gasLimit" : "0x7fffffffffffffff",
            "gasUsed" : "0x00",
            "hash" : "0x0c364db2576467e6c839935f9d1f8b2be4016fb811ea16770bfed015040188bf",
            "mixHash" : "0x56e81f171bcc55a6ff8345e692c0f86e5b48e01b996cadc001622fb5e363b421",
            "nonce" : "0x0102030405060708",
            "number" : "0x00",
            "parentHash" : "0x0000000000000000000000000000000000000000000000000000000000000000",
            "receiptTrie" : "0x56e81f171bcc55a6ff8345e692c0f86e5b48e01b996cadc001622fb5e363b421",
            "stateRoot" : "0xa39fa207a7c55ed2c862e7701533b77e6a9a85a52f426abe7445d496c2ef3e42",
            "timestamp" : "0x03b6",
            "transactionsTrie" : "0x56e81f171bcc55a6ff8345e692c0f86e5b48e01b996cadc001622fb5e363b421",
            "uncleHash" : "0x1dcc4de8dec75d7aab85b567b6ccd41ad312451b948a7413f0a142fd40d49347"
        },
        "genesisRLP" : "0xf901fff901faa00000000000000000000000000000000000000000000000000000000000000000a01dcc4de8dec75d7aab85b567b6ccd41ad312451b948a7413f0a142fd40d4934794945304eb96065b2a98b57a48a06ae28d285a71b5a0a39fa207a7c55ed2c862e7701533b77e6a9a85a52f426abe7445d496c2ef3e42a056e81f171bcc55a6ff8345e692c0f86e5b48e01b996cadc001622fb5e363b421a056e81f171bcc55a6ff8345e692c0f86e5b48e01b996cadc001622fb5e363b421b90100000000000000000000000000000000000000000000000000000000000000000000000000000000000000000000000000000000000000000000000000000000000000000000000000000000000000000000000000000000000000000000000000000000000000000000000000000000000000000000000000000000000000000000000000000000000000000000000000000000000000000000000000000000000000000000000000000000000000000000000000000000000000000000000000000000000000000000000000000000000000000000000000000000000000000000000000000000000000000000000000000000000000000000000000000000008302000080887fffffffffffffff808203b642a056e81f171bcc55a6ff8345e692c0f86e5b48e01b996cadc001622fb5e363b421880102030405060708c0c0",
        "lastblockhash" : "0xe7cc266200270909a889b892db85085459f37b69d705c5c3dfdbc20168b1ae5c",
        "network" : "Homestead",
        "postState" : {
            "0x945304eb96065b2a98b57a48a06ae28d285a71b5" : {
                "balance" : "0x456391826803509d",
                "code" : "0x6000355415600957005b60203560003555",
                "nonce" : "0x00",
                "storage" : {
                }
            },
            "0xa94f5374fce5edbc8e2a8697c15331677e6ebf0b" : {
                "balance" : "0x0de0b6b38454af91",
                "code" : "",
                "nonce" : "0x01",
                "storage" : {
                }
            }
        },
        "pre" : {
            "0x095e7baea6a6c7c4c2dfeb977efac326af552d87" : {
                "balance" : "0x00",
                "code" : "0x7f00000000000000000000000100000000000000000000000000000000000000007f000000000000000000000000945304eb96065b2a98b57a48a06ae28d285a71b57f000000000000000000000000000000000000000000000000000000000000c3507f000000000000000000000000945304eb96065b2a98b57a48a06ae28d285a71b57f000000000000000000000000000000000000000000000000000000000000c35044427f000000000000000000000000945304eb96065b2a98b57a48a06ae28d285a71b5ff60005155",
                "nonce" : "0x00",
                "storage" : {
                }
            },
            "0x945304eb96065b2a98b57a48a06ae28d285a71b5" : {
                "balance" : "0x2e",
                "code" : "0x6000355415600957005b60203560003555",
                "nonce" : "0x00",
                "storage" : {
                }
            },
            "0xa94f5374fce5edbc8e2a8697c15331677e6ebf0b" : {
                "balance" : "0x0de0b6b3a7640000",
                "code" : "",
                "nonce" : "0x00",
                "storage" : {
                }
            }
        }
    }
}