{
    "randomStatetest496_d0g0v0_Byzantium" : {
        "_info" : {
            "comment" : "",
            "filledwith" : "cpp-1.3.0+commit.4e101574.Linux.g++",
            "lllcversion" : "Version: 0.4.18-develop.2017.10.11+commit.81f9f86c.Linux.g++",
            "source" : "src/BlockchainTestsFiller/GeneralStateTests/stRandom2/randomStatetest496_d0g0v0Filler.json",
            "sourceHash" : "18c6e3c8b6ffc50e945b09ee943ca5ea09b770fde33b20ddedd9550cf51f2b27"
        },
        "blocks" : [
            {
                "blockHeader" : {
                    "bloom" : "0x00000000000000000000000000000000000000000000000000000000000000000000000000000000000000000000000000000000000000000000000000000000000000000000000000000000000000000000000000000000000000000000000000000000000000000000000000000000000000000000000000000000000000000000000000000000000000000000000000000000000000000000000000000000000000000000000000000000000000000000000000000000000000000000000000000000000000000000000000000000000000000000000000000000000000000000000000000000000000000000000000000000000000000000000000000000",
                    "coinbase" : "0x945304eb96065b2a98b57a48a06ae28d285a71b5",
                    "difficulty" : "0x020000",
                    "extraData" : "",
                    "gasLimit" : "0x7fffffffffffffff",
                    "gasUsed" : "0x5419707a",
                    "hash" : "0x4b6f37e713c257d4568a9136d5a4ab5950757d34640c5ab654f06536a70dc53b",
                    "mixHash" : "0xf5ec261bd8cd9b89df2d360b6110db97a9a157e34879e8b89d0dcb7835879a44",
                    "nonce" : "0x4fbdec328672e837",
                    "number" : "0x01",
                    "parentHash" : "0xdc1f7bc615c2c32d580a9a60c0a963bfefcc70b5ac878dd322db3996282441d4",
                    "receiptTrie" : "0x15ba659f57e55ebeb90038ed73dfed6054bb203aed56b6f631f748b324887918",
                    "stateRoot" : "0x9c87c2c26d64ec8f082d2bfa8be0888bf85f31eaaf30f059172f1819a549ed61",
                    "timestamp" : "0x03e8",
                    "transactionsTrie" : "0x0aae7c1e5752bb0fb378c2f92bb6207e9c80d1c44683039d37017dee7752fe0a",
                    "uncleHash" : "0x1dcc4de8dec75d7aab85b567b6ccd41ad312451b948a7413f0a142fd40d49347"
                },
                "rlp" : "0xf902f8f901fea0dc1f7bc615c2c32d580a9a60c0a963bfefcc70b5ac878dd322db3996282441d4a01dcc4de8dec75d7aab85b567b6ccd41ad312451b948a7413f0a142fd40d4934794945304eb96065b2a98b57a48a06ae28d285a71b5a09c87c2c26d64ec8f082d2bfa8be0888bf85f31eaaf30f059172f1819a549ed61a00aae7c1e5752bb0fb378c2f92bb6207e9c80d1c44683039d37017dee7752fe0aa015ba659f57e55ebeb90038ed73dfed6054bb203aed56b6f631f748b324887918b90100000000000000000000000000000000000000000000000000000000000000000000000000000000000000000000000000000000000000000000000000000000000000000000000000000000000000000000000000000000000000000000000000000000000000000000000000000000000000000000000000000000000000000000000000000000000000000000000000000000000000000000000000000000000000000000000000000000000000000000000000000000000000000000000000000000000000000000000000000000000000000000000000000000000000000000000000000000000000000000000000000000000000000000000000000000008302000001887fffffffffffffff845419707a8203e880a0f5ec261bd8cd9b89df2d360b6110db97a9a157e34879e8b89d0dcb7835879a44884fbdec328672e837f8f4f8f28001845419707a94095e7baea6a6c7c4c2dfeb977efac326af552d87840f4c9558b88c7f000000000000000000000000ffffffffffffffffffffffffffffffffffffffff457f0000000000000000000000000000000000000000000000000000000000000000355b7f00000000000000000000000000000000000000000000000000000000000000017f000000000000000000000000000000000000000000000000000000000000c3500b0b0207961ba02af3876ea2cb7ac69fff853889fa4ee32a2e7215d4974ceae61ffab03ce1e12fa03645f05e572f7622ac9139108b8432fd5e15cd1149a3c922babf46bbe7049320c0",
                "transactions" : [
                    {
                        "data" : "0x7f000000000000000000000000ffffffffffffffffffffffffffffffffffffffff457f0000000000000000000000000000000000000000000000000000000000000000355b7f00000000000000000000000000000000000000000000000000000000000000017f000000000000000000000000000000000000000000000000000000000000c3500b0b020796",
                        "gasLimit" : "0x5419707a",
                        "gasPrice" : "0x01",
                        "nonce" : "0x00",
                        "r" : "0x2af3876ea2cb7ac69fff853889fa4ee32a2e7215d4974ceae61ffab03ce1e12f",
                        "s" : "0x3645f05e572f7622ac9139108b8432fd5e15cd1149a3c922babf46bbe7049320",
                        "to" : "0x095e7baea6a6c7c4c2dfeb977efac326af552d87",
                        "v" : "0x1b",
                        "value" : "0x0f4c9558"
                    }
                ],
                "uncleHeaders" : [
                ]
            }
        ],
        "genesisBlockHeader" : {
            "bloom" : "0x00000000000000000000000000000000000000000000000000000000000000000000000000000000000000000000000000000000000000000000000000000000000000000000000000000000000000000000000000000000000000000000000000000000000000000000000000000000000000000000000000000000000000000000000000000000000000000000000000000000000000000000000000000000000000000000000000000000000000000000000000000000000000000000000000000000000000000000000000000000000000000000000000000000000000000000000000000000000000000000000000000000000000000000000000000000",
            "coinbase" : "0x945304eb96065b2a98b57a48a06ae28d285a71b5",
            "difficulty" : "0x020000",
            "extraData" : "0x42",
            "gasLimit" : "0x7fffffffffffffff",
            "gasUsed" : "0x00",
            "hash" : "0xdc1f7bc615c2c32d580a9a60c0a963bfefcc70b5ac878dd322db3996282441d4",
            "mixHash" : "0x56e81f171bcc55a6ff8345e692c0f86e5b48e01b996cadc001622fb5e363b421",
            "nonce" : "0x0102030405060708",
            "number" : "0x00",
            "parentHash" : "0x0000000000000000000000000000000000000000000000000000000000000000",
            "receiptTrie" : "0x56e81f171bcc55a6ff8345e692c0f86e5b48e01b996cadc001622fb5e363b421",
            "stateRoot" : "0x24367ec473118cba8014abaa3e3142610259ea66efc1c7fafd9ed3d38bf4f385",
            "timestamp" : "0x03b6",
            "transactionsTrie" : "0x56e81f171bcc55a6ff8345e692c0f86e5b48e01b996cadc001622fb5e363b421",
            "uncleHash" : "0x1dcc4de8dec75d7aab85b567b6ccd41ad312451b948a7413f0a142fd40d49347"
        },
        "genesisRLP" : "0xf901fff901faa00000000000000000000000000000000000000000000000000000000000000000a01dcc4de8dec75d7aab85b567b6ccd41ad312451b948a7413f0a142fd40d4934794945304eb96065b2a98b57a48a06ae28d285a71b5a024367ec473118cba8014abaa3e3142610259ea66efc1c7fafd9ed3d38bf4f385a056e81f171bcc55a6ff8345e692c0f86e5b48e01b996cadc001622fb5e363b421a056e81f171bcc55a6ff8345e692c0f86e5b48e01b996cadc001622fb5e363b421b90100000000000000000000000000000000000000000000000000000000000000000000000000000000000000000000000000000000000000000000000000000000000000000000000000000000000000000000000000000000000000000000000000000000000000000000000000000000000000000000000000000000000000000000000000000000000000000000000000000000000000000000000000000000000000000000000000000000000000000000000000000000000000000000000000000000000000000000000000000000000000000000000000000000000000000000000000000000000000000000000000000000000000000000000000000000008302000080887fffffffffffffff808203b642a056e81f171bcc55a6ff8345e692c0f86e5b48e01b996cadc001622fb5e363b421880102030405060708c0c0",
        "lastblockhash" : "0x4b6f37e713c257d4568a9136d5a4ab5950757d34640c5ab654f06536a70dc53b",
        "network" : "Byzantium",
        "postState" : {
            "0x095e7baea6a6c7c4c2dfeb977efac326af552d87" : {
                "balance" : "0x00",
                "code" : "0x7f000000000000000000000000ffffffffffffffffffffffffffffffffffffffff457f0000000000000000000000000000000000000000000000000000000000000000355b7f00000000000000000000000000000000000000000000000000000000000000017f000000000000000000000000000000000000000000000000000000000000c3500b0b0207965560005155",
                "nonce" : "0x00",
                "storage" : {
                }
            },
            "0x945304eb96065b2a98b57a48a06ae28d285a71b5" : {
                "balance" : "0x29a2241b4a4570a8",
                "code" : "0x6000355415600957005b60203560003555",
                "nonce" : "0x00",
                "storage" : {
                }
            },
            "0xa94f5374fce5edbc8e2a8697c15331677e6ebf0b" : {
                "balance" : "0x0de0b6b3534a8f86",
                "code" : "",
                "nonce" : "0x01",
                "storage" : {
                }
            }
        },
        "pre" : {
            "0x095e7baea6a6c7c4c2dfeb977efac326af552d87" : {
                "balance" : "0x00",
                "code" : "0x7f000000000000000000000000ffffffffffffffffffffffffffffffffffffffff457f0000000000000000000000000000000000000000000000000000000000000000355b7f00000000000000000000000000000000000000000000000000000000000000017f000000000000000000000000000000000000000000000000000000000000c3500b0b0207965560005155",
                "nonce" : "0x00",
                "storage" : {
                }
            },
            "0x945304eb96065b2a98b57a48a06ae28d285a71b5" : {
                "balance" : "0x2e",
                "code" : "0x6000355415600957005b60203560003555",
                "nonce" : "0x00",
                "storage" : {
                }
            },
            "0xa94f5374fce5edbc8e2a8697c15331677e6ebf0b" : {
                "balance" : "0x0de0b6b3a7640000",
                "code" : "",
                "nonce" : "0x00",
                "storage" : {
                }
            }
        }
    },
    "randomStatetest496_d0g0v0_EIP150" : {
        "_info" : {
            "comment" : "",
            "filledwith" : "cpp-1.3.0+commit.4e101574.Linux.g++",
            "lllcversion" : "Version: 0.4.18-develop.2017.10.11+commit.81f9f86c.Linux.g++",
            "source" : "src/BlockchainTestsFiller/GeneralStateTests/stRandom2/randomStatetest496_d0g0v0Filler.json",
            "sourceHash" : "18c6e3c8b6ffc50e945b09ee943ca5ea09b770fde33b20ddedd9550cf51f2b27"
        },
        "blocks" : [
            {
                "blockHeader" : {
                    "bloom" : "0x00000000000000000000000000000000000000000000000000000000000000000000000000000000000000000000000000000000000000000000000000000000000000000000000000000000000000000000000000000000000000000000000000000000000000000000000000000000000000000000000000000000000000000000000000000000000000000000000000000000000000000000000000000000000000000000000000000000000000000000000000000000000000000000000000000000000000000000000000000000000000000000000000000000000000000000000000000000000000000000000000000000000000000000000000000000",
                    "coinbase" : "0x945304eb96065b2a98b57a48a06ae28d285a71b5",
                    "difficulty" : "0x020000",
                    "extraData" : "",
                    "gasLimit" : "0x7fffffffffffffff",
                    "gasUsed" : "0x5419707a",
                    "hash" : "0xe2c1ea61f00cedf1d3dd5f828471f8800cb41d78257b9757fe61f65d2cf88f11",
                    "mixHash" : "0xd02820ffbf2a52639b535d6e0f36c11f82240460cd6d3c2fae7dd0d988233d50",
                    "nonce" : "0xcda1568d20857ede",
                    "number" : "0x01",
                    "parentHash" : "0xdc1f7bc615c2c32d580a9a60c0a963bfefcc70b5ac878dd322db3996282441d4",
                    "receiptTrie" : "0x03b7a9dc804c99ebb05893e47bc597b5517ff5993333a39ed92ac45e9b0ba17a",
                    "stateRoot" : "0x2895ee8dbb59be0b4686eefef15817defe38c79c46e9f5b62472e18121da5a2a",
                    "timestamp" : "0x03e8",
                    "transactionsTrie" : "0x0aae7c1e5752bb0fb378c2f92bb6207e9c80d1c44683039d37017dee7752fe0a",
                    "uncleHash" : "0x1dcc4de8dec75d7aab85b567b6ccd41ad312451b948a7413f0a142fd40d49347"
                },
                "rlp" : "0xf902f8f901fea0dc1f7bc615c2c32d580a9a60c0a963bfefcc70b5ac878dd322db3996282441d4a01dcc4de8dec75d7aab85b567b6ccd41ad312451b948a7413f0a142fd40d4934794945304eb96065b2a98b57a48a06ae28d285a71b5a02895ee8dbb59be0b4686eefef15817defe38c79c46e9f5b62472e18121da5a2aa00aae7c1e5752bb0fb378c2f92bb6207e9c80d1c44683039d37017dee7752fe0aa003b7a9dc804c99ebb05893e47bc597b5517ff5993333a39ed92ac45e9b0ba17ab90100000000000000000000000000000000000000000000000000000000000000000000000000000000000000000000000000000000000000000000000000000000000000000000000000000000000000000000000000000000000000000000000000000000000000000000000000000000000000000000000000000000000000000000000000000000000000000000000000000000000000000000000000000000000000000000000000000000000000000000000000000000000000000000000000000000000000000000000000000000000000000000000000000000000000000000000000000000000000000000000000000000000000000000000000000000008302000001887fffffffffffffff845419707a8203e880a0d02820ffbf2a52639b535d6e0f36c11f82240460cd6d3c2fae7dd0d988233d5088cda1568d20857edef8f4f8f28001845419707a94095e7baea6a6c7c4c2dfeb977efac326af552d87840f4c9558b88c7f000000000000000000000000ffffffffffffffffffffffffffffffffffffffff457f0000000000000000000000000000000000000000000000000000000000000000355b7f00000000000000000000000000000000000000000000000000000000000000017f000000000000000000000000000000000000000000000000000000000000c3500b0b0207961ba02af3876ea2cb7ac69fff853889fa4ee32a2e7215d4974ceae61ffab03ce1e12fa03645f05e572f7622ac9139108b8432fd5e15cd1149a3c922babf46bbe7049320c0",
                "transactions" : [
                    {
                        "data" : "0x7f000000000000000000000000ffffffffffffffffffffffffffffffffffffffff457f0000000000000000000000000000000000000000000000000000000000000000355b7f00000000000000000000000000000000000000000000000000000000000000017f000000000000000000000000000000000000000000000000000000000000c3500b0b020796",
                        "gasLimit" : "0x5419707a",
                        "gasPrice" : "0x01",
                        "nonce" : "0x00",
                        "r" : "0x2af3876ea2cb7ac69fff853889fa4ee32a2e7215d4974ceae61ffab03ce1e12f",
                        "s" : "0x3645f05e572f7622ac9139108b8432fd5e15cd1149a3c922babf46bbe7049320",
                        "to" : "0x095e7baea6a6c7c4c2dfeb977efac326af552d87",
                        "v" : "0x1b",
                        "value" : "0x0f4c9558"
                    }
                ],
                "uncleHeaders" : [
                ]
            }
        ],
        "genesisBlockHeader" : {
            "bloom" : "0x00000000000000000000000000000000000000000000000000000000000000000000000000000000000000000000000000000000000000000000000000000000000000000000000000000000000000000000000000000000000000000000000000000000000000000000000000000000000000000000000000000000000000000000000000000000000000000000000000000000000000000000000000000000000000000000000000000000000000000000000000000000000000000000000000000000000000000000000000000000000000000000000000000000000000000000000000000000000000000000000000000000000000000000000000000000",
            "coinbase" : "0x945304eb96065b2a98b57a48a06ae28d285a71b5",
            "difficulty" : "0x020000",
            "extraData" : "0x42",
            "gasLimit" : "0x7fffffffffffffff",
            "gasUsed" : "0x00",
            "hash" : "0xdc1f7bc615c2c32d580a9a60c0a963bfefcc70b5ac878dd322db3996282441d4",
            "mixHash" : "0x56e81f171bcc55a6ff8345e692c0f86e5b48e01b996cadc001622fb5e363b421",
            "nonce" : "0x0102030405060708",
            "number" : "0x00",
            "parentHash" : "0x0000000000000000000000000000000000000000000000000000000000000000",
            "receiptTrie" : "0x56e81f171bcc55a6ff8345e692c0f86e5b48e01b996cadc001622fb5e363b421",
            "stateRoot" : "0x24367ec473118cba8014abaa3e3142610259ea66efc1c7fafd9ed3d38bf4f385",
            "timestamp" : "0x03b6",
            "transactionsTrie" : "0x56e81f171bcc55a6ff8345e692c0f86e5b48e01b996cadc001622fb5e363b421",
            "uncleHash" : "0x1dcc4de8dec75d7aab85b567b6ccd41ad312451b948a7413f0a142fd40d49347"
        },
        "genesisRLP" : "0xf901fff901faa00000000000000000000000000000000000000000000000000000000000000000a01dcc4de8dec75d7aab85b567b6ccd41ad312451b948a7413f0a142fd40d4934794945304eb96065b2a98b57a48a06ae28d285a71b5a024367ec473118cba8014abaa3e3142610259ea66efc1c7fafd9ed3d38bf4f385a056e81f171bcc55a6ff8345e692c0f86e5b48e01b996cadc001622fb5e363b421a056e81f171bcc55a6ff8345e692c0f86e5b48e01b996cadc001622fb5e363b421b90100000000000000000000000000000000000000000000000000000000000000000000000000000000000000000000000000000000000000000000000000000000000000000000000000000000000000000000000000000000000000000000000000000000000000000000000000000000000000000000000000000000000000000000000000000000000000000000000000000000000000000000000000000000000000000000000000000000000000000000000000000000000000000000000000000000000000000000000000000000000000000000000000000000000000000000000000000000000000000000000000000000000000000000000000000000008302000080887fffffffffffffff808203b642a056e81f171bcc55a6ff8345e692c0f86e5b48e01b996cadc001622fb5e363b421880102030405060708c0c0",
        "lastblockhash" : "0xe2c1ea61f00cedf1d3dd5f828471f8800cb41d78257b9757fe61f65d2cf88f11",
        "network" : "EIP150",
        "postState" : {
            "0x095e7baea6a6c7c4c2dfeb977efac326af552d87" : {
                "balance" : "0x00",
                "code" : "0x7f000000000000000000000000ffffffffffffffffffffffffffffffffffffffff457f0000000000000000000000000000000000000000000000000000000000000000355b7f00000000000000000000000000000000000000000000000000000000000000017f000000000000000000000000000000000000000000000000000000000000c3500b0b0207965560005155",
                "nonce" : "0x00",
                "storage" : {
                }
            },
            "0x945304eb96065b2a98b57a48a06ae28d285a71b5" : {
                "balance" : "0x45639182990d70a8",
                "code" : "0x6000355415600957005b60203560003555",
                "nonce" : "0x00",
                "storage" : {
                }
            },
            "0xa94f5374fce5edbc8e2a8697c15331677e6ebf0b" : {
                "balance" : "0x0de0b6b3534a8f86",
                "code" : "",
                "nonce" : "0x01",
                "storage" : {
                }
            }
        },
        "pre" : {
            "0x095e7baea6a6c7c4c2dfeb977efac326af552d87" : {
                "balance" : "0x00",
                "code" : "0x7f000000000000000000000000ffffffffffffffffffffffffffffffffffffffff457f0000000000000000000000000000000000000000000000000000000000000000355b7f00000000000000000000000000000000000000000000000000000000000000017f000000000000000000000000000000000000000000000000000000000000c3500b0b0207965560005155",
                "nonce" : "0x00",
                "storage" : {
                }
            },
            "0x945304eb96065b2a98b57a48a06ae28d285a71b5" : {
                "balance" : "0x2e",
                "code" : "0x6000355415600957005b60203560003555",
                "nonce" : "0x00",
                "storage" : {
                }
            },
            "0xa94f5374fce5edbc8e2a8697c15331677e6ebf0b" : {
                "balance" : "0x0de0b6b3a7640000",
                "code" : "",
                "nonce" : "0x00",
                "storage" : {
                }
            }
        }
    },
    "randomStatetest496_d0g0v0_EIP158" : {
        "_info" : {
            "comment" : "",
            "filledwith" : "cpp-1.3.0+commit.4e101574.Linux.g++",
            "lllcversion" : "Version: 0.4.18-develop.2017.10.11+commit.81f9f86c.Linux.g++",
            "source" : "src/BlockchainTestsFiller/GeneralStateTests/stRandom2/randomStatetest496_d0g0v0Filler.json",
            "sourceHash" : "18c6e3c8b6ffc50e945b09ee943ca5ea09b770fde33b20ddedd9550cf51f2b27"
        },
        "blocks" : [
            {
                "blockHeader" : {
                    "bloom" : "0x00000000000000000000000000000000000000000000000000000000000000000000000000000000000000000000000000000000000000000000000000000000000000000000000000000000000000000000000000000000000000000000000000000000000000000000000000000000000000000000000000000000000000000000000000000000000000000000000000000000000000000000000000000000000000000000000000000000000000000000000000000000000000000000000000000000000000000000000000000000000000000000000000000000000000000000000000000000000000000000000000000000000000000000000000000000",
                    "coinbase" : "0x945304eb96065b2a98b57a48a06ae28d285a71b5",
                    "difficulty" : "0x020000",
                    "extraData" : "",
                    "gasLimit" : "0x7fffffffffffffff",
                    "gasUsed" : "0x5419707a",
                    "hash" : "0xe9ffe86732cf74c1d71efa6e161d741afeafdf1b465e16221cda3241ef361e7d",
                    "mixHash" : "0x18d3bcf015591750eca1b6b5f9a66ceaafc4e3cba448c833c00b4c87145dc19c",
                    "nonce" : "0x7e0e84b50ca21862",
                    "number" : "0x01",
                    "parentHash" : "0xdc1f7bc615c2c32d580a9a60c0a963bfefcc70b5ac878dd322db3996282441d4",
                    "receiptTrie" : "0x03b7a9dc804c99ebb05893e47bc597b5517ff5993333a39ed92ac45e9b0ba17a",
                    "stateRoot" : "0x2895ee8dbb59be0b4686eefef15817defe38c79c46e9f5b62472e18121da5a2a",
                    "timestamp" : "0x03e8",
                    "transactionsTrie" : "0x0aae7c1e5752bb0fb378c2f92bb6207e9c80d1c44683039d37017dee7752fe0a",
                    "uncleHash" : "0x1dcc4de8dec75d7aab85b567b6ccd41ad312451b948a7413f0a142fd40d49347"
                },
                "rlp" : "0xf902f8f901fea0dc1f7bc615c2c32d580a9a60c0a963bfefcc70b5ac878dd322db3996282441d4a01dcc4de8dec75d7aab85b567b6ccd41ad312451b948a7413f0a142fd40d4934794945304eb96065b2a98b57a48a06ae28d285a71b5a02895ee8dbb59be0b4686eefef15817defe38c79c46e9f5b62472e18121da5a2aa00aae7c1e5752bb0fb378c2f92bb6207e9c80d1c44683039d37017dee7752fe0aa003b7a9dc804c99ebb05893e47bc597b5517ff5993333a39ed92ac45e9b0ba17ab90100000000000000000000000000000000000000000000000000000000000000000000000000000000000000000000000000000000000000000000000000000000000000000000000000000000000000000000000000000000000000000000000000000000000000000000000000000000000000000000000000000000000000000000000000000000000000000000000000000000000000000000000000000000000000000000000000000000000000000000000000000000000000000000000000000000000000000000000000000000000000000000000000000000000000000000000000000000000000000000000000000000000000000000000000000000008302000001887fffffffffffffff845419707a8203e880a018d3bcf015591750eca1b6b5f9a66ceaafc4e3cba448c833c00b4c87145dc19c887e0e84b50ca21862f8f4f8f28001845419707a94095e7baea6a6c7c4c2dfeb977efac326af552d87840f4c9558b88c7f000000000000000000000000ffffffffffffffffffffffffffffffffffffffff457f0000000000000000000000000000000000000000000000000000000000000000355b7f00000000000000000000000000000000000000000000000000000000000000017f000000000000000000000000000000000000000000000000000000000000c3500b0b0207961ba02af3876ea2cb7ac69fff853889fa4ee32a2e7215d4974ceae61ffab03ce1e12fa03645f05e572f7622ac9139108b8432fd5e15cd1149a3c922babf46bbe7049320c0",
                "transactions" : [
                    {
                        "data" : "0x7f000000000000000000000000ffffffffffffffffffffffffffffffffffffffff457f0000000000000000000000000000000000000000000000000000000000000000355b7f00000000000000000000000000000000000000000000000000000000000000017f000000000000000000000000000000000000000000000000000000000000c3500b0b020796",
                        "gasLimit" : "0x5419707a",
                        "gasPrice" : "0x01",
                        "nonce" : "0x00",
                        "r" : "0x2af3876ea2cb7ac69fff853889fa4ee32a2e7215d4974ceae61ffab03ce1e12f",
                        "s" : "0x3645f05e572f7622ac9139108b8432fd5e15cd1149a3c922babf46bbe7049320",
                        "to" : "0x095e7baea6a6c7c4c2dfeb977efac326af552d87",
                        "v" : "0x1b",
                        "value" : "0x0f4c9558"
                    }
                ],
                "uncleHeaders" : [
                ]
            }
        ],
        "genesisBlockHeader" : {
            "bloom" : "0x00000000000000000000000000000000000000000000000000000000000000000000000000000000000000000000000000000000000000000000000000000000000000000000000000000000000000000000000000000000000000000000000000000000000000000000000000000000000000000000000000000000000000000000000000000000000000000000000000000000000000000000000000000000000000000000000000000000000000000000000000000000000000000000000000000000000000000000000000000000000000000000000000000000000000000000000000000000000000000000000000000000000000000000000000000000",
            "coinbase" : "0x945304eb96065b2a98b57a48a06ae28d285a71b5",
            "difficulty" : "0x020000",
            "extraData" : "0x42",
            "gasLimit" : "0x7fffffffffffffff",
            "gasUsed" : "0x00",
            "hash" : "0xdc1f7bc615c2c32d580a9a60c0a963bfefcc70b5ac878dd322db3996282441d4",
            "mixHash" : "0x56e81f171bcc55a6ff8345e692c0f86e5b48e01b996cadc001622fb5e363b421",
            "nonce" : "0x0102030405060708",
            "number" : "0x00",
            "parentHash" : "0x0000000000000000000000000000000000000000000000000000000000000000",
            "receiptTrie" : "0x56e81f171bcc55a6ff8345e692c0f86e5b48e01b996cadc001622fb5e363b421",
            "stateRoot" : "0x24367ec473118cba8014abaa3e3142610259ea66efc1c7fafd9ed3d38bf4f385",
            "timestamp" : "0x03b6",
            "transactionsTrie" : "0x56e81f171bcc55a6ff8345e692c0f86e5b48e01b996cadc001622fb5e363b421",
            "uncleHash" : "0x1dcc4de8dec75d7aab85b567b6ccd41ad312451b948a7413f0a142fd40d49347"
        },
        "genesisRLP" : "0xf901fff901faa00000000000000000000000000000000000000000000000000000000000000000a01dcc4de8dec75d7aab85b567b6ccd41ad312451b948a7413f0a142fd40d4934794945304eb96065b2a98b57a48a06ae28d285a71b5a024367ec473118cba8014abaa3e3142610259ea66efc1c7fafd9ed3d38bf4f385a056e81f171bcc55a6ff8345e692c0f86e5b48e01b996cadc001622fb5e363b421a056e81f171bcc55a6ff8345e692c0f86e5b48e01b996cadc001622fb5e363b421b90100000000000000000000000000000000000000000000000000000000000000000000000000000000000000000000000000000000000000000000000000000000000000000000000000000000000000000000000000000000000000000000000000000000000000000000000000000000000000000000000000000000000000000000000000000000000000000000000000000000000000000000000000000000000000000000000000000000000000000000000000000000000000000000000000000000000000000000000000000000000000000000000000000000000000000000000000000000000000000000000000000000000000000000000000000000008302000080887fffffffffffffff808203b642a056e81f171bcc55a6ff8345e692c0f86e5b48e01b996cadc001622fb5e363b421880102030405060708c0c0",
        "lastblockhash" : "0xe9ffe86732cf74c1d71efa6e161d741afeafdf1b465e16221cda3241ef361e7d",
        "network" : "EIP158",
        "postState" : {
            "0x095e7baea6a6c7c4c2dfeb977efac326af552d87" : {
                "balance" : "0x00",
                "code" : "0x7f000000000000000000000000ffffffffffffffffffffffffffffffffffffffff457f0000000000000000000000000000000000000000000000000000000000000000355b7f00000000000000000000000000000000000000000000000000000000000000017f000000000000000000000000000000000000000000000000000000000000c3500b0b0207965560005155",
                "nonce" : "0x00",
                "storage" : {
                }
            },
            "0x945304eb96065b2a98b57a48a06ae28d285a71b5" : {
                "balance" : "0x45639182990d70a8",
                "code" : "0x6000355415600957005b60203560003555",
                "nonce" : "0x00",
                "storage" : {
                }
            },
            "0xa94f5374fce5edbc8e2a8697c15331677e6ebf0b" : {
                "balance" : "0x0de0b6b3534a8f86",
                "code" : "",
                "nonce" : "0x01",
                "storage" : {
                }
            }
        },
        "pre" : {
            "0x095e7baea6a6c7c4c2dfeb977efac326af552d87" : {
                "balance" : "0x00",
                "code" : "0x7f000000000000000000000000ffffffffffffffffffffffffffffffffffffffff457f0000000000000000000000000000000000000000000000000000000000000000355b7f00000000000000000000000000000000000000000000000000000000000000017f000000000000000000000000000000000000000000000000000000000000c3500b0b0207965560005155",
                "nonce" : "0x00",
                "storage" : {
                }
            },
            "0x945304eb96065b2a98b57a48a06ae28d285a71b5" : {
                "balance" : "0x2e",
                "code" : "0x6000355415600957005b60203560003555",
                "nonce" : "0x00",
                "storage" : {
                }
            },
            "0xa94f5374fce5edbc8e2a8697c15331677e6ebf0b" : {
                "balance" : "0x0de0b6b3a7640000",
                "code" : "",
                "nonce" : "0x00",
                "storage" : {
                }
            }
        }
    },
    "randomStatetest496_d0g0v0_Frontier" : {
        "_info" : {
            "comment" : "",
            "filledwith" : "cpp-1.3.0+commit.4e101574.Linux.g++",
            "lllcversion" : "Version: 0.4.18-develop.2017.10.11+commit.81f9f86c.Linux.g++",
            "source" : "src/BlockchainTestsFiller/GeneralStateTests/stRandom2/randomStatetest496_d0g0v0Filler.json",
            "sourceHash" : "18c6e3c8b6ffc50e945b09ee943ca5ea09b770fde33b20ddedd9550cf51f2b27"
        },
        "blocks" : [
            {
                "blockHeader" : {
                    "bloom" : "0x00000000000000000000000000000000000000000000000000000000000000000000000000000000000000000000000000000000000000000000000000000000000000000000000000000000000000000000000000000000000000000000000000000000000000000000000000000000000000000000000000000000000000000000000000000000000000000000000000000000000000000000000000000000000000000000000000000000000000000000000000000000000000000000000000000000000000000000000000000000000000000000000000000000000000000000000000000000000000000000000000000000000000000000000000000000",
                    "coinbase" : "0x945304eb96065b2a98b57a48a06ae28d285a71b5",
                    "difficulty" : "0x020000",
                    "extraData" : "",
                    "gasLimit" : "0x7fffffffffffffff",
                    "gasUsed" : "0x5419707a",
                    "hash" : "0xcab92b3de8eff09cbbf690ad81c75b6a1f9ffce8b3487020d4053a64e9bb4e53",
                    "mixHash" : "0x471e190b79d9dc6dd9c9bb4819f0c25e3bdb84c6346350774b38b5c7876f6a45",
                    "nonce" : "0x1a8c5100cb723819",
                    "number" : "0x01",
                    "parentHash" : "0xdc1f7bc615c2c32d580a9a60c0a963bfefcc70b5ac878dd322db3996282441d4",
                    "receiptTrie" : "0x03b7a9dc804c99ebb05893e47bc597b5517ff5993333a39ed92ac45e9b0ba17a",
                    "stateRoot" : "0x2895ee8dbb59be0b4686eefef15817defe38c79c46e9f5b62472e18121da5a2a",
                    "timestamp" : "0x03e8",
                    "transactionsTrie" : "0x0aae7c1e5752bb0fb378c2f92bb6207e9c80d1c44683039d37017dee7752fe0a",
                    "uncleHash" : "0x1dcc4de8dec75d7aab85b567b6ccd41ad312451b948a7413f0a142fd40d49347"
                },
                "rlp" : "0xf902f8f901fea0dc1f7bc615c2c32d580a9a60c0a963bfefcc70b5ac878dd322db3996282441d4a01dcc4de8dec75d7aab85b567b6ccd41ad312451b948a7413f0a142fd40d4934794945304eb96065b2a98b57a48a06ae28d285a71b5a02895ee8dbb59be0b4686eefef15817defe38c79c46e9f5b62472e18121da5a2aa00aae7c1e5752bb0fb378c2f92bb6207e9c80d1c44683039d37017dee7752fe0aa003b7a9dc804c99ebb05893e47bc597b5517ff5993333a39ed92ac45e9b0ba17ab90100000000000000000000000000000000000000000000000000000000000000000000000000000000000000000000000000000000000000000000000000000000000000000000000000000000000000000000000000000000000000000000000000000000000000000000000000000000000000000000000000000000000000000000000000000000000000000000000000000000000000000000000000000000000000000000000000000000000000000000000000000000000000000000000000000000000000000000000000000000000000000000000000000000000000000000000000000000000000000000000000000000000000000000000000000000008302000001887fffffffffffffff845419707a8203e880a0471e190b79d9dc6dd9c9bb4819f0c25e3bdb84c6346350774b38b5c7876f6a45881a8c5100cb723819f8f4f8f28001845419707a94095e7baea6a6c7c4c2dfeb977efac326af552d87840f4c9558b88c7f000000000000000000000000ffffffffffffffffffffffffffffffffffffffff457f0000000000000000000000000000000000000000000000000000000000000000355b7f00000000000000000000000000000000000000000000000000000000000000017f000000000000000000000000000000000000000000000000000000000000c3500b0b0207961ba02af3876ea2cb7ac69fff853889fa4ee32a2e7215d4974ceae61ffab03ce1e12fa03645f05e572f7622ac9139108b8432fd5e15cd1149a3c922babf46bbe7049320c0",
                "transactions" : [
                    {
                        "data" : "0x7f000000000000000000000000ffffffffffffffffffffffffffffffffffffffff457f0000000000000000000000000000000000000000000000000000000000000000355b7f00000000000000000000000000000000000000000000000000000000000000017f000000000000000000000000000000000000000000000000000000000000c3500b0b020796",
                        "gasLimit" : "0x5419707a",
                        "gasPrice" : "0x01",
                        "nonce" : "0x00",
                        "r" : "0x2af3876ea2cb7ac69fff853889fa4ee32a2e7215d4974ceae61ffab03ce1e12f",
                        "s" : "0x3645f05e572f7622ac9139108b8432fd5e15cd1149a3c922babf46bbe7049320",
                        "to" : "0x095e7baea6a6c7c4c2dfeb977efac326af552d87",
                        "v" : "0x1b",
                        "value" : "0x0f4c9558"
                    }
                ],
                "uncleHeaders" : [
                ]
            }
        ],
        "genesisBlockHeader" : {
            "bloom" : "0x00000000000000000000000000000000000000000000000000000000000000000000000000000000000000000000000000000000000000000000000000000000000000000000000000000000000000000000000000000000000000000000000000000000000000000000000000000000000000000000000000000000000000000000000000000000000000000000000000000000000000000000000000000000000000000000000000000000000000000000000000000000000000000000000000000000000000000000000000000000000000000000000000000000000000000000000000000000000000000000000000000000000000000000000000000000",
            "coinbase" : "0x945304eb96065b2a98b57a48a06ae28d285a71b5",
            "difficulty" : "0x020000",
            "extraData" : "0x42",
            "gasLimit" : "0x7fffffffffffffff",
            "gasUsed" : "0x00",
            "hash" : "0xdc1f7bc615c2c32d580a9a60c0a963bfefcc70b5ac878dd322db3996282441d4",
            "mixHash" : "0x56e81f171bcc55a6ff8345e692c0f86e5b48e01b996cadc001622fb5e363b421",
            "nonce" : "0x0102030405060708",
            "number" : "0x00",
            "parentHash" : "0x0000000000000000000000000000000000000000000000000000000000000000",
            "receiptTrie" : "0x56e81f171bcc55a6ff8345e692c0f86e5b48e01b996cadc001622fb5e363b421",
            "stateRoot" : "0x24367ec473118cba8014abaa3e3142610259ea66efc1c7fafd9ed3d38bf4f385",
            "timestamp" : "0x03b6",
            "transactionsTrie" : "0x56e81f171bcc55a6ff8345e692c0f86e5b48e01b996cadc001622fb5e363b421",
            "uncleHash" : "0x1dcc4de8dec75d7aab85b567b6ccd41ad312451b948a7413f0a142fd40d49347"
        },
        "genesisRLP" : "0xf901fff901faa00000000000000000000000000000000000000000000000000000000000000000a01dcc4de8dec75d7aab85b567b6ccd41ad312451b948a7413f0a142fd40d4934794945304eb96065b2a98b57a48a06ae28d285a71b5a024367ec473118cba8014abaa3e3142610259ea66efc1c7fafd9ed3d38bf4f385a056e81f171bcc55a6ff8345e692c0f86e5b48e01b996cadc001622fb5e363b421a056e81f171bcc55a6ff8345e692c0f86e5b48e01b996cadc001622fb5e363b421b90100000000000000000000000000000000000000000000000000000000000000000000000000000000000000000000000000000000000000000000000000000000000000000000000000000000000000000000000000000000000000000000000000000000000000000000000000000000000000000000000000000000000000000000000000000000000000000000000000000000000000000000000000000000000000000000000000000000000000000000000000000000000000000000000000000000000000000000000000000000000000000000000000000000000000000000000000000000000000000000000000000000000000000000000000000000008302000080887fffffffffffffff808203b642a056e81f171bcc55a6ff8345e692c0f86e5b48e01b996cadc001622fb5e363b421880102030405060708c0c0",
        "lastblockhash" : "0xcab92b3de8eff09cbbf690ad81c75b6a1f9ffce8b3487020d4053a64e9bb4e53",
        "network" : "Frontier",
        "postState" : {
            "0x095e7baea6a6c7c4c2dfeb977efac326af552d87" : {
                "balance" : "0x00",
                "code" : "0x7f000000000000000000000000ffffffffffffffffffffffffffffffffffffffff457f0000000000000000000000000000000000000000000000000000000000000000355b7f00000000000000000000000000000000000000000000000000000000000000017f000000000000000000000000000000000000000000000000000000000000c3500b0b0207965560005155",
                "nonce" : "0x00",
                "storage" : {
                }
            },
            "0x945304eb96065b2a98b57a48a06ae28d285a71b5" : {
                "balance" : "0x45639182990d70a8",
                "code" : "0x6000355415600957005b60203560003555",
                "nonce" : "0x00",
                "storage" : {
                }
            },
            "0xa94f5374fce5edbc8e2a8697c15331677e6ebf0b" : {
                "balance" : "0x0de0b6b3534a8f86",
                "code" : "",
                "nonce" : "0x01",
                "storage" : {
                }
            }
        },
        "pre" : {
            "0x095e7baea6a6c7c4c2dfeb977efac326af552d87" : {
                "balance" : "0x00",
                "code" : "0x7f000000000000000000000000ffffffffffffffffffffffffffffffffffffffff457f0000000000000000000000000000000000000000000000000000000000000000355b7f00000000000000000000000000000000000000000000000000000000000000017f000000000000000000000000000000000000000000000000000000000000c3500b0b0207965560005155",
                "nonce" : "0x00",
                "storage" : {
                }
            },
            "0x945304eb96065b2a98b57a48a06ae28d285a71b5" : {
                "balance" : "0x2e",
                "code" : "0x6000355415600957005b60203560003555",
                "nonce" : "0x00",
                "storage" : {
                }
            },
            "0xa94f5374fce5edbc8e2a8697c15331677e6ebf0b" : {
                "balance" : "0x0de0b6b3a7640000",
                "code" : "",
                "nonce" : "0x00",
                "storage" : {
                }
            }
        }
    },
    "randomStatetest496_d0g0v0_Homestead" : {
        "_info" : {
            "comment" : "",
            "filledwith" : "cpp-1.3.0+commit.4e101574.Linux.g++",
            "lllcversion" : "Version: 0.4.18-develop.2017.10.11+commit.81f9f86c.Linux.g++",
            "source" : "src/BlockchainTestsFiller/GeneralStateTests/stRandom2/randomStatetest496_d0g0v0Filler.json",
            "sourceHash" : "18c6e3c8b6ffc50e945b09ee943ca5ea09b770fde33b20ddedd9550cf51f2b27"
        },
        "blocks" : [
            {
                "blockHeader" : {
                    "bloom" : "0x00000000000000000000000000000000000000000000000000000000000000000000000000000000000000000000000000000000000000000000000000000000000000000000000000000000000000000000000000000000000000000000000000000000000000000000000000000000000000000000000000000000000000000000000000000000000000000000000000000000000000000000000000000000000000000000000000000000000000000000000000000000000000000000000000000000000000000000000000000000000000000000000000000000000000000000000000000000000000000000000000000000000000000000000000000000",
                    "coinbase" : "0x945304eb96065b2a98b57a48a06ae28d285a71b5",
                    "difficulty" : "0x020000",
                    "extraData" : "",
                    "gasLimit" : "0x7fffffffffffffff",
                    "gasUsed" : "0x5419707a",
                    "hash" : "0xd287de68aad5f3e04786480331ebf76c657a67f09368a09a5526a63a3c46e4a1",
                    "mixHash" : "0x690f8c8ee4643a88022ddbef49c0742bf282ad9b47bafd3b747395fb4b0defb8",
                    "nonce" : "0x82056408ab77de53",
                    "number" : "0x01",
                    "parentHash" : "0xdc1f7bc615c2c32d580a9a60c0a963bfefcc70b5ac878dd322db3996282441d4",
                    "receiptTrie" : "0x03b7a9dc804c99ebb05893e47bc597b5517ff5993333a39ed92ac45e9b0ba17a",
                    "stateRoot" : "0x2895ee8dbb59be0b4686eefef15817defe38c79c46e9f5b62472e18121da5a2a",
                    "timestamp" : "0x03e8",
                    "transactionsTrie" : "0x0aae7c1e5752bb0fb378c2f92bb6207e9c80d1c44683039d37017dee7752fe0a",
                    "uncleHash" : "0x1dcc4de8dec75d7aab85b567b6ccd41ad312451b948a7413f0a142fd40d49347"
                },
                "rlp" : "0xf902f8f901fea0dc1f7bc615c2c32d580a9a60c0a963bfefcc70b5ac878dd322db3996282441d4a01dcc4de8dec75d7aab85b567b6ccd41ad312451b948a7413f0a142fd40d4934794945304eb96065b2a98b57a48a06ae28d285a71b5a02895ee8dbb59be0b4686eefef15817defe38c79c46e9f5b62472e18121da5a2aa00aae7c1e5752bb0fb378c2f92bb6207e9c80d1c44683039d37017dee7752fe0aa003b7a9dc804c99ebb05893e47bc597b5517ff5993333a39ed92ac45e9b0ba17ab90100000000000000000000000000000000000000000000000000000000000000000000000000000000000000000000000000000000000000000000000000000000000000000000000000000000000000000000000000000000000000000000000000000000000000000000000000000000000000000000000000000000000000000000000000000000000000000000000000000000000000000000000000000000000000000000000000000000000000000000000000000000000000000000000000000000000000000000000000000000000000000000000000000000000000000000000000000000000000000000000000000000000000000000000000000000008302000001887fffffffffffffff845419707a8203e880a0690f8c8ee4643a88022ddbef49c0742bf282ad9b47bafd3b747395fb4b0defb88882056408ab77de53f8f4f8f28001845419707a94095e7baea6a6c7c4c2dfeb977efac326af552d87840f4c9558b88c7f000000000000000000000000ffffffffffffffffffffffffffffffffffffffff457f0000000000000000000000000000000000000000000000000000000000000000355b7f00000000000000000000000000000000000000000000000000000000000000017f000000000000000000000000000000000000000000000000000000000000c3500b0b0207961ba02af3876ea2cb7ac69fff853889fa4ee32a2e7215d4974ceae61ffab03ce1e12fa03645f05e572f7622ac9139108b8432fd5e15cd1149a3c922babf46bbe7049320c0",
                "transactions" : [
                    {
                        "data" : "0x7f000000000000000000000000ffffffffffffffffffffffffffffffffffffffff457f0000000000000000000000000000000000000000000000000000000000000000355b7f00000000000000000000000000000000000000000000000000000000000000017f000000000000000000000000000000000000000000000000000000000000c3500b0b020796",
                        "gasLimit" : "0x5419707a",
                        "gasPrice" : "0x01",
                        "nonce" : "0x00",
                        "r" : "0x2af3876ea2cb7ac69fff853889fa4ee32a2e7215d4974ceae61ffab03ce1e12f",
                        "s" : "0x3645f05e572f7622ac9139108b8432fd5e15cd1149a3c922babf46bbe7049320",
                        "to" : "0x095e7baea6a6c7c4c2dfeb977efac326af552d87",
                        "v" : "0x1b",
                        "value" : "0x0f4c9558"
                    }
                ],
                "uncleHeaders" : [
                ]
            }
        ],
        "genesisBlockHeader" : {
            "bloom" : "0x00000000000000000000000000000000000000000000000000000000000000000000000000000000000000000000000000000000000000000000000000000000000000000000000000000000000000000000000000000000000000000000000000000000000000000000000000000000000000000000000000000000000000000000000000000000000000000000000000000000000000000000000000000000000000000000000000000000000000000000000000000000000000000000000000000000000000000000000000000000000000000000000000000000000000000000000000000000000000000000000000000000000000000000000000000000",
            "coinbase" : "0x945304eb96065b2a98b57a48a06ae28d285a71b5",
            "difficulty" : "0x020000",
            "extraData" : "0x42",
            "gasLimit" : "0x7fffffffffffffff",
            "gasUsed" : "0x00",
            "hash" : "0xdc1f7bc615c2c32d580a9a60c0a963bfefcc70b5ac878dd322db3996282441d4",
            "mixHash" : "0x56e81f171bcc55a6ff8345e692c0f86e5b48e01b996cadc001622fb5e363b421",
            "nonce" : "0x0102030405060708",
            "number" : "0x00",
            "parentHash" : "0x0000000000000000000000000000000000000000000000000000000000000000",
            "receiptTrie" : "0x56e81f171bcc55a6ff8345e692c0f86e5b48e01b996cadc001622fb5e363b421",
            "stateRoot" : "0x24367ec473118cba8014abaa3e3142610259ea66efc1c7fafd9ed3d38bf4f385",
            "timestamp" : "0x03b6",
            "transactionsTrie" : "0x56e81f171bcc55a6ff8345e692c0f86e5b48e01b996cadc001622fb5e363b421",
            "uncleHash" : "0x1dcc4de8dec75d7aab85b567b6ccd41ad312451b948a7413f0a142fd40d49347"
        },
        "genesisRLP" : "0xf901fff901faa00000000000000000000000000000000000000000000000000000000000000000a01dcc4de8dec75d7aab85b567b6ccd41ad312451b948a7413f0a142fd40d4934794945304eb96065b2a98b57a48a06ae28d285a71b5a024367ec473118cba8014abaa3e3142610259ea66efc1c7fafd9ed3d38bf4f385a056e81f171bcc55a6ff8345e692c0f86e5b48e01b996cadc001622fb5e363b421a056e81f171bcc55a6ff8345e692c0f86e5b48e01b996cadc001622fb5e363b421b90100000000000000000000000000000000000000000000000000000000000000000000000000000000000000000000000000000000000000000000000000000000000000000000000000000000000000000000000000000000000000000000000000000000000000000000000000000000000000000000000000000000000000000000000000000000000000000000000000000000000000000000000000000000000000000000000000000000000000000000000000000000000000000000000000000000000000000000000000000000000000000000000000000000000000000000000000000000000000000000000000000000000000000000000000000000008302000080887fffffffffffffff808203b642a056e81f171bcc55a6ff8345e692c0f86e5b48e01b996cadc001622fb5e363b421880102030405060708c0c0",
        "lastblockhash" : "0xd287de68aad5f3e04786480331ebf76c657a67f09368a09a5526a63a3c46e4a1",
        "network" : "Homestead",
        "postState" : {
            "0x095e7baea6a6c7c4c2dfeb977efac326af552d87" : {
                "balance" : "0x00",
                "code" : "0x7f000000000000000000000000ffffffffffffffffffffffffffffffffffffffff457f0000000000000000000000000000000000000000000000000000000000000000355b7f00000000000000000000000000000000000000000000000000000000000000017f000000000000000000000000000000000000000000000000000000000000c3500b0b0207965560005155",
                "nonce" : "0x00",
                "storage" : {
                }
            },
            "0x945304eb96065b2a98b57a48a06ae28d285a71b5" : {
                "balance" : "0x45639182990d70a8",
                "code" : "0x6000355415600957005b60203560003555",
                "nonce" : "0x00",
                "storage" : {
                }
            },
            "0xa94f5374fce5edbc8e2a8697c15331677e6ebf0b" : {
                "balance" : "0x0de0b6b3534a8f86",
                "code" : "",
                "nonce" : "0x01",
                "storage" : {
                }
            }
        },
        "pre" : {
            "0x095e7baea6a6c7c4c2dfeb977efac326af552d87" : {
                "balance" : "0x00",
                "code" : "0x7f000000000000000000000000ffffffffffffffffffffffffffffffffffffffff457f0000000000000000000000000000000000000000000000000000000000000000355b7f00000000000000000000000000000000000000000000000000000000000000017f000000000000000000000000000000000000000000000000000000000000c3500b0b0207965560005155",
                "nonce" : "0x00",
                "storage" : {
                }
            },
            "0x945304eb96065b2a98b57a48a06ae28d285a71b5" : {
                "balance" : "0x2e",
                "code" : "0x6000355415600957005b60203560003555",
                "nonce" : "0x00",
                "storage" : {
                }
            },
            "0xa94f5374fce5edbc8e2a8697c15331677e6ebf0b" : {
                "balance" : "0x0de0b6b3a7640000",
                "code" : "",
                "nonce" : "0x00",
                "storage" : {
                }
            }
        }
    }
}