{
    "randomStatetest457_d0g0v0_Byzantium" : {
        "_info" : {
            "comment" : "",
            "filledwith" : "cpp-1.3.0+commit.4e101574.Linux.g++",
            "lllcversion" : "Version: 0.4.18-develop.2017.10.11+commit.81f9f86c.Linux.g++",
            "source" : "src/BlockchainTestsFiller/GeneralStateTests/stRandom2/randomStatetest457_d0g0v0Filler.json",
            "sourceHash" : "e970daa4540d7304da1e1f9d8d599999a2758d394f978a05b52ce46472dc54e4"
        },
        "blocks" : [
            {
                "blockHeader" : {
                    "bloom" : "0x00000000000000000000000000000000000000000000000000000000000000000000000000000000000000000000000000000000000000000000000000000000000000000000000000000000000000000000000000000000000000000000000000000000000000000000000000000000000000000000000000000000000000000000000000000000000000000000000000000000000000000000000000000000000000000000000000000000000000000000000000000000000000000000000000000000000000000000000000000000000000000000000000000000000000000000000000000000000000000000000000000000000000000000000000000000",
                    "coinbase" : "0x945304eb96065b2a98b57a48a06ae28d285a71b5",
                    "difficulty" : "0x020000",
                    "extraData" : "",
                    "gasLimit" : "0x7fffffffffffffff",
                    "gasUsed" : "0xb09c",
                    "hash" : "0x9ac007a20a1c92ab191d6b0c41e41ff26c4ef29f79427b6d9a83a49e4ef8bd18",
                    "mixHash" : "0x2acb389b9de2616d5510fe48298a1f4f028e6aefed6ef03fabe9e69057752138",
                    "nonce" : "0xc07a26b762fecab8",
                    "number" : "0x01",
                    "parentHash" : "0xf31a624c6576cf9d6050f3870f6eba276752b9386a1804faa4aaaf2faf8ff663",
                    "receiptTrie" : "0x42f7b730bb40aa383f8db7f7a01a95824b8caeb5e9b323fae8330216587bdcba",
                    "stateRoot" : "0xf6196a5b6cbc9cb9ab866ffdab0a0ba9a780195fb1abb45190cb7e89da2c7a66",
                    "timestamp" : "0x03e8",
                    "transactionsTrie" : "0x15e1340a42d8fee163a12cabeb186e17ce9ffaca9798f19ccc9948942b3c0b18",
                    "uncleHash" : "0x1dcc4de8dec75d7aab85b567b6ccd41ad312451b948a7413f0a142fd40d49347"
                },
                "rlp" : "0xf90300f901fca0f31a624c6576cf9d6050f3870f6eba276752b9386a1804faa4aaaf2faf8ff663a01dcc4de8dec75d7aab85b567b6ccd41ad312451b948a7413f0a142fd40d4934794945304eb96065b2a98b57a48a06ae28d285a71b5a0f6196a5b6cbc9cb9ab866ffdab0a0ba9a780195fb1abb45190cb7e89da2c7a66a015e1340a42d8fee163a12cabeb186e17ce9ffaca9798f19ccc9948942b3c0b18a042f7b730bb40aa383f8db7f7a01a95824b8caeb5e9b323fae8330216587bdcbab90100000000000000000000000000000000000000000000000000000000000000000000000000000000000000000000000000000000000000000000000000000000000000000000000000000000000000000000000000000000000000000000000000000000000000000000000000000000000000000000000000000000000000000000000000000000000000000000000000000000000000000000000000000000000000000000000000000000000000000000000000000000000000000000000000000000000000000000000000000000000000000000000000000000000000000000000000000000000000000000000000000000000000000000000000000000008302000001887fffffffffffffff82b09c8203e880a02acb389b9de2616d5510fe48298a1f4f028e6aefed6ef03fabe9e6905775213888c07a26b762fecab8f8fef8fc80018422e280c994095e7baea6a6c7c4c2dfeb977efac326af552d878412de4990b89644417f00000000000000000000000000000000000000000000000000000000000000017f00000000000000000000000100000000000000000000000000000000000000007f00000000000000000000000000000000000000000000000000000000000000007ffffffffffffffffffffffffffffffffffffffffffffffffffffffffffffffffe6f949fa28af308a37a136c626218927d1ca031b7a89abdfb05cadc1d0998a8ccf3ea82924de98274e78681bf3acf27f61d25a018227a22fb664a2d6db188206392b6e4ccdfcd491abff3b7dde8fc3dc22224cbc0",
                "transactions" : [
                    {
                        "data" : "0x44417f00000000000000000000000000000000000000000000000000000000000000017f00000000000000000000000100000000000000000000000000000000000000007f00000000000000000000000000000000000000000000000000000000000000007ffffffffffffffffffffffffffffffffffffffffffffffffffffffffffffffffe6f949fa28af308a37a136c626218927d",
                        "gasLimit" : "0x22e280c9",
                        "gasPrice" : "0x01",
                        "nonce" : "0x00",
                        "r" : "0x31b7a89abdfb05cadc1d0998a8ccf3ea82924de98274e78681bf3acf27f61d25",
                        "s" : "0x18227a22fb664a2d6db188206392b6e4ccdfcd491abff3b7dde8fc3dc22224cb",
                        "to" : "0x095e7baea6a6c7c4c2dfeb977efac326af552d87",
                        "v" : "0x1c",
                        "value" : "0x12de4990"
                    }
                ],
                "uncleHeaders" : [
                ]
            }
        ],
        "genesisBlockHeader" : {
            "bloom" : "0x00000000000000000000000000000000000000000000000000000000000000000000000000000000000000000000000000000000000000000000000000000000000000000000000000000000000000000000000000000000000000000000000000000000000000000000000000000000000000000000000000000000000000000000000000000000000000000000000000000000000000000000000000000000000000000000000000000000000000000000000000000000000000000000000000000000000000000000000000000000000000000000000000000000000000000000000000000000000000000000000000000000000000000000000000000000",
            "coinbase" : "0x945304eb96065b2a98b57a48a06ae28d285a71b5",
            "difficulty" : "0x020000",
            "extraData" : "0x42",
            "gasLimit" : "0x7fffffffffffffff",
            "gasUsed" : "0x00",
            "hash" : "0xf31a624c6576cf9d6050f3870f6eba276752b9386a1804faa4aaaf2faf8ff663",
            "mixHash" : "0x56e81f171bcc55a6ff8345e692c0f86e5b48e01b996cadc001622fb5e363b421",
            "nonce" : "0x0102030405060708",
            "number" : "0x00",
            "parentHash" : "0x0000000000000000000000000000000000000000000000000000000000000000",
            "receiptTrie" : "0x56e81f171bcc55a6ff8345e692c0f86e5b48e01b996cadc001622fb5e363b421",
            "stateRoot" : "0x382fa0abc449d873c179a640ed5ed194b4da3c6d4e4738bc5a9e3de1650e07f1",
            "timestamp" : "0x03b6",
            "transactionsTrie" : "0x56e81f171bcc55a6ff8345e692c0f86e5b48e01b996cadc001622fb5e363b421",
            "uncleHash" : "0x1dcc4de8dec75d7aab85b567b6ccd41ad312451b948a7413f0a142fd40d49347"
        },
        "genesisRLP" : "0xf901fff901faa00000000000000000000000000000000000000000000000000000000000000000a01dcc4de8dec75d7aab85b567b6ccd41ad312451b948a7413f0a142fd40d4934794945304eb96065b2a98b57a48a06ae28d285a71b5a0382fa0abc449d873c179a640ed5ed194b4da3c6d4e4738bc5a9e3de1650e07f1a056e81f171bcc55a6ff8345e692c0f86e5b48e01b996cadc001622fb5e363b421a056e81f171bcc55a6ff8345e692c0f86e5b48e01b996cadc001622fb5e363b421b90100000000000000000000000000000000000000000000000000000000000000000000000000000000000000000000000000000000000000000000000000000000000000000000000000000000000000000000000000000000000000000000000000000000000000000000000000000000000000000000000000000000000000000000000000000000000000000000000000000000000000000000000000000000000000000000000000000000000000000000000000000000000000000000000000000000000000000000000000000000000000000000000000000000000000000000000000000000000000000000000000000000000000000000000000000000008302000080887fffffffffffffff808203b642a056e81f171bcc55a6ff8345e692c0f86e5b48e01b996cadc001622fb5e363b421880102030405060708c0c0",
        "lastblockhash" : "0x9ac007a20a1c92ab191d6b0c41e41ff26c4ef29f79427b6d9a83a49e4ef8bd18",
        "network" : "Byzantium",
        "postState" : {
            "0x095e7baea6a6c7c4c2dfeb977efac326af552d87" : {
                "balance" : "0x12de4990",
                "code" : "0x44417f00000000000000000000000000000000000000000000000000000000000000017f00000000000000000000000100000000000000000000000000000000000000007f00000000000000000000000000000000000000000000000000000000000000007ffffffffffffffffffffffffffffffffffffffffffffffffffffffffffffffffe6f949fa28af308a37a136c626218927d5560005155",
                "nonce" : "0x00",
                "storage" : {
                    "0x00" : "0x949fa28af308a37a136c626218927d55"
                }
            },
            "0x945304eb96065b2a98b57a48a06ae28d285a71b5" : {
                "balance" : "0x29a2241af62cb0ca",
                "code" : "0x6000355415600957005b60203560003555",
                "nonce" : "0x00",
                "storage" : {
                }
            },
            "0xa94f5374fce5edbc8e2a8697c15331677e6ebf0b" : {
                "balance" : "0x0de0b6b3948505d4",
                "code" : "",
                "nonce" : "0x01",
                "storage" : {
                }
            }
        },
        "pre" : {
            "0x095e7baea6a6c7c4c2dfeb977efac326af552d87" : {
                "balance" : "0x00",
                "code" : "0x44417f00000000000000000000000000000000000000000000000000000000000000017f00000000000000000000000100000000000000000000000000000000000000007f00000000000000000000000000000000000000000000000000000000000000007ffffffffffffffffffffffffffffffffffffffffffffffffffffffffffffffffe6f949fa28af308a37a136c626218927d5560005155",
                "nonce" : "0x00",
                "storage" : {
                }
            },
            "0x945304eb96065b2a98b57a48a06ae28d285a71b5" : {
                "balance" : "0x2e",
                "code" : "0x6000355415600957005b60203560003555",
                "nonce" : "0x00",
                "storage" : {
                }
            },
            "0xa94f5374fce5edbc8e2a8697c15331677e6ebf0b" : {
                "balance" : "0x0de0b6b3a7640000",
                "code" : "",
                "nonce" : "0x00",
                "storage" : {
                }
            }
        }
    },
    "randomStatetest457_d0g0v0_EIP150" : {
        "_info" : {
            "comment" : "",
            "filledwith" : "cpp-1.3.0+commit.4e101574.Linux.g++",
            "lllcversion" : "Version: 0.4.18-develop.2017.10.11+commit.81f9f86c.Linux.g++",
            "source" : "src/BlockchainTestsFiller/GeneralStateTests/stRandom2/randomStatetest457_d0g0v0Filler.json",
            "sourceHash" : "e970daa4540d7304da1e1f9d8d599999a2758d394f978a05b52ce46472dc54e4"
        },
        "blocks" : [
            {
                "blockHeader" : {
                    "bloom" : "0x00000000000000000000000000000000000000000000000000000000000000000000000000000000000000000000000000000000000000000000000000000000000000000000000000000000000000000000000000000000000000000000000000000000000000000000000000000000000000000000000000000000000000000000000000000000000000000000000000000000000000000000000000000000000000000000000000000000000000000000000000000000000000000000000000000000000000000000000000000000000000000000000000000000000000000000000000000000000000000000000000000000000000000000000000000000",
                    "coinbase" : "0x945304eb96065b2a98b57a48a06ae28d285a71b5",
                    "difficulty" : "0x020000",
                    "extraData" : "",
                    "gasLimit" : "0x7fffffffffffffff",
                    "gasUsed" : "0xb09c",
                    "hash" : "0xaf95003c5e95ee8eb123885b04f0e781a276518e1a9bf75417dadb6f7d68af2d",
                    "mixHash" : "0x1f4684283effa179c9b8b081fa697cd2fb8e2928219b5f89848bf8fd2fb1637a",
                    "nonce" : "0xedae7649376a1040",
                    "number" : "0x01",
                    "parentHash" : "0xf31a624c6576cf9d6050f3870f6eba276752b9386a1804faa4aaaf2faf8ff663",
                    "receiptTrie" : "0x181d598ae4105e0b9a4c0ec1f3b5fb3d4366926ebcbf3facb19e8fa070a94942",
                    "stateRoot" : "0xbc3e90d82e28eab4ea9e249c535f23a3b9b50cd00e4ab0cbf798ccbd2e116112",
                    "timestamp" : "0x03e8",
                    "transactionsTrie" : "0x15e1340a42d8fee163a12cabeb186e17ce9ffaca9798f19ccc9948942b3c0b18",
                    "uncleHash" : "0x1dcc4de8dec75d7aab85b567b6ccd41ad312451b948a7413f0a142fd40d49347"
                },
                "rlp" : "0xf90300f901fca0f31a624c6576cf9d6050f3870f6eba276752b9386a1804faa4aaaf2faf8ff663a01dcc4de8dec75d7aab85b567b6ccd41ad312451b948a7413f0a142fd40d4934794945304eb96065b2a98b57a48a06ae28d285a71b5a0bc3e90d82e28eab4ea9e249c535f23a3b9b50cd00e4ab0cbf798ccbd2e116112a015e1340a42d8fee163a12cabeb186e17ce9ffaca9798f19ccc9948942b3c0b18a0181d598ae4105e0b9a4c0ec1f3b5fb3d4366926ebcbf3facb19e8fa070a94942b90100000000000000000000000000000000000000000000000000000000000000000000000000000000000000000000000000000000000000000000000000000000000000000000000000000000000000000000000000000000000000000000000000000000000000000000000000000000000000000000000000000000000000000000000000000000000000000000000000000000000000000000000000000000000000000000000000000000000000000000000000000000000000000000000000000000000000000000000000000000000000000000000000000000000000000000000000000000000000000000000000000000000000000000000000000000008302000001887fffffffffffffff82b09c8203e880a01f4684283effa179c9b8b081fa697cd2fb8e2928219b5f89848bf8fd2fb1637a88edae7649376a1040f8fef8fc80018422e280c994095e7baea6a6c7c4c2dfeb977efac326af552d878412de4990b89644417f00000000000000000000000000000000000000000000000000000000000000017f00000000000000000000000100000000000000000000000000000000000000007f00000000000000000000000000000000000000000000000000000000000000007ffffffffffffffffffffffffffffffffffffffffffffffffffffffffffffffffe6f949fa28af308a37a136c626218927d1ca031b7a89abdfb05cadc1d0998a8ccf3ea82924de98274e78681bf3acf27f61d25a018227a22fb664a2d6db188206392b6e4ccdfcd491abff3b7dde8fc3dc22224cbc0",
                "transactions" : [
                    {
                        "data" : "0x44417f00000000000000000000000000000000000000000000000000000000000000017f00000000000000000000000100000000000000000000000000000000000000007f00000000000000000000000000000000000000000000000000000000000000007ffffffffffffffffffffffffffffffffffffffffffffffffffffffffffffffffe6f949fa28af308a37a136c626218927d",
                        "gasLimit" : "0x22e280c9",
                        "gasPrice" : "0x01",
                        "nonce" : "0x00",
                        "r" : "0x31b7a89abdfb05cadc1d0998a8ccf3ea82924de98274e78681bf3acf27f61d25",
                        "s" : "0x18227a22fb664a2d6db188206392b6e4ccdfcd491abff3b7dde8fc3dc22224cb",
                        "to" : "0x095e7baea6a6c7c4c2dfeb977efac326af552d87",
                        "v" : "0x1c",
                        "value" : "0x12de4990"
                    }
                ],
                "uncleHeaders" : [
                ]
            }
        ],
        "genesisBlockHeader" : {
            "bloom" : "0x00000000000000000000000000000000000000000000000000000000000000000000000000000000000000000000000000000000000000000000000000000000000000000000000000000000000000000000000000000000000000000000000000000000000000000000000000000000000000000000000000000000000000000000000000000000000000000000000000000000000000000000000000000000000000000000000000000000000000000000000000000000000000000000000000000000000000000000000000000000000000000000000000000000000000000000000000000000000000000000000000000000000000000000000000000000",
            "coinbase" : "0x945304eb96065b2a98b57a48a06ae28d285a71b5",
            "difficulty" : "0x020000",
            "extraData" : "0x42",
            "gasLimit" : "0x7fffffffffffffff",
            "gasUsed" : "0x00",
            "hash" : "0xf31a624c6576cf9d6050f3870f6eba276752b9386a1804faa4aaaf2faf8ff663",
            "mixHash" : "0x56e81f171bcc55a6ff8345e692c0f86e5b48e01b996cadc001622fb5e363b421",
            "nonce" : "0x0102030405060708",
            "number" : "0x00",
            "parentHash" : "0x0000000000000000000000000000000000000000000000000000000000000000",
            "receiptTrie" : "0x56e81f171bcc55a6ff8345e692c0f86e5b48e01b996cadc001622fb5e363b421",
            "stateRoot" : "0x382fa0abc449d873c179a640ed5ed194b4da3c6d4e4738bc5a9e3de1650e07f1",
            "timestamp" : "0x03b6",
            "transactionsTrie" : "0x56e81f171bcc55a6ff8345e692c0f86e5b48e01b996cadc001622fb5e363b421",
            "uncleHash" : "0x1dcc4de8dec75d7aab85b567b6ccd41ad312451b948a7413f0a142fd40d49347"
        },
        "genesisRLP" : "0xf901fff901faa00000000000000000000000000000000000000000000000000000000000000000a01dcc4de8dec75d7aab85b567b6ccd41ad312451b948a7413f0a142fd40d4934794945304eb96065b2a98b57a48a06ae28d285a71b5a0382fa0abc449d873c179a640ed5ed194b4da3c6d4e4738bc5a9e3de1650e07f1a056e81f171bcc55a6ff8345e692c0f86e5b48e01b996cadc001622fb5e363b421a056e81f171bcc55a6ff8345e692c0f86e5b48e01b996cadc001622fb5e363b421b90100000000000000000000000000000000000000000000000000000000000000000000000000000000000000000000000000000000000000000000000000000000000000000000000000000000000000000000000000000000000000000000000000000000000000000000000000000000000000000000000000000000000000000000000000000000000000000000000000000000000000000000000000000000000000000000000000000000000000000000000000000000000000000000000000000000000000000000000000000000000000000000000000000000000000000000000000000000000000000000000000000000000000000000000000000000008302000080887fffffffffffffff808203b642a056e81f171bcc55a6ff8345e692c0f86e5b48e01b996cadc001622fb5e363b421880102030405060708c0c0",
        "lastblockhash" : "0xaf95003c5e95ee8eb123885b04f0e781a276518e1a9bf75417dadb6f7d68af2d",
        "network" : "EIP150",
        "postState" : {
            "0x095e7baea6a6c7c4c2dfeb977efac326af552d87" : {
                "balance" : "0x12de4990",
                "code" : "0x44417f00000000000000000000000000000000000000000000000000000000000000017f00000000000000000000000100000000000000000000000000000000000000007f00000000000000000000000000000000000000000000000000000000000000007ffffffffffffffffffffffffffffffffffffffffffffffffffffffffffffffffe6f949fa28af308a37a136c626218927d5560005155",
                "nonce" : "0x00",
                "storage" : {
                    "0x00" : "0x949fa28af308a37a136c626218927d55"
                }
            },
            "0x945304eb96065b2a98b57a48a06ae28d285a71b5" : {
                "balance" : "0x4563918244f4b0ca",
                "code" : "0x6000355415600957005b60203560003555",
                "nonce" : "0x00",
                "storage" : {
                }
            },
            "0xa94f5374fce5edbc8e2a8697c15331677e6ebf0b" : {
                "balance" : "0x0de0b6b3948505d4",
                "code" : "",
                "nonce" : "0x01",
                "storage" : {
                }
            }
        },
        "pre" : {
            "0x095e7baea6a6c7c4c2dfeb977efac326af552d87" : {
                "balance" : "0x00",
                "code" : "0x44417f00000000000000000000000000000000000000000000000000000000000000017f00000000000000000000000100000000000000000000000000000000000000007f00000000000000000000000000000000000000000000000000000000000000007ffffffffffffffffffffffffffffffffffffffffffffffffffffffffffffffffe6f949fa28af308a37a136c626218927d5560005155",
                "nonce" : "0x00",
                "storage" : {
                }
            },
            "0x945304eb96065b2a98b57a48a06ae28d285a71b5" : {
                "balance" : "0x2e",
                "code" : "0x6000355415600957005b60203560003555",
                "nonce" : "0x00",
                "storage" : {
                }
            },
            "0xa94f5374fce5edbc8e2a8697c15331677e6ebf0b" : {
                "balance" : "0x0de0b6b3a7640000",
                "code" : "",
                "nonce" : "0x00",
                "storage" : {
                }
            }
        }
    },
    "randomStatetest457_d0g0v0_EIP158" : {
        "_info" : {
            "comment" : "",
            "filledwith" : "cpp-1.3.0+commit.4e101574.Linux.g++",
            "lllcversion" : "Version: 0.4.18-develop.2017.10.11+commit.81f9f86c.Linux.g++",
            "source" : "src/BlockchainTestsFiller/GeneralStateTests/stRandom2/randomStatetest457_d0g0v0Filler.json",
            "sourceHash" : "e970daa4540d7304da1e1f9d8d599999a2758d394f978a05b52ce46472dc54e4"
        },
        "blocks" : [
            {
                "blockHeader" : {
                    "bloom" : "0x00000000000000000000000000000000000000000000000000000000000000000000000000000000000000000000000000000000000000000000000000000000000000000000000000000000000000000000000000000000000000000000000000000000000000000000000000000000000000000000000000000000000000000000000000000000000000000000000000000000000000000000000000000000000000000000000000000000000000000000000000000000000000000000000000000000000000000000000000000000000000000000000000000000000000000000000000000000000000000000000000000000000000000000000000000000",
                    "coinbase" : "0x945304eb96065b2a98b57a48a06ae28d285a71b5",
                    "difficulty" : "0x020000",
                    "extraData" : "",
                    "gasLimit" : "0x7fffffffffffffff",
                    "gasUsed" : "0xb09c",
                    "hash" : "0xb6e4f6387ab204cc61810ecc7a03452846f88680497e9f192d55cb3c94a513ff",
                    "mixHash" : "0xfb5c120c661bf5d3c980afb836736dd2fda053a43d7489fe7132a1e19388899d",
                    "nonce" : "0xa743788823fb8f89",
                    "number" : "0x01",
                    "parentHash" : "0xf31a624c6576cf9d6050f3870f6eba276752b9386a1804faa4aaaf2faf8ff663",
                    "receiptTrie" : "0x181d598ae4105e0b9a4c0ec1f3b5fb3d4366926ebcbf3facb19e8fa070a94942",
                    "stateRoot" : "0xbc3e90d82e28eab4ea9e249c535f23a3b9b50cd00e4ab0cbf798ccbd2e116112",
                    "timestamp" : "0x03e8",
                    "transactionsTrie" : "0x15e1340a42d8fee163a12cabeb186e17ce9ffaca9798f19ccc9948942b3c0b18",
                    "uncleHash" : "0x1dcc4de8dec75d7aab85b567b6ccd41ad312451b948a7413f0a142fd40d49347"
                },
                "rlp" : "0xf90300f901fca0f31a624c6576cf9d6050f3870f6eba276752b9386a1804faa4aaaf2faf8ff663a01dcc4de8dec75d7aab85b567b6ccd41ad312451b948a7413f0a142fd40d4934794945304eb96065b2a98b57a48a06ae28d285a71b5a0bc3e90d82e28eab4ea9e249c535f23a3b9b50cd00e4ab0cbf798ccbd2e116112a015e1340a42d8fee163a12cabeb186e17ce9ffaca9798f19ccc9948942b3c0b18a0181d598ae4105e0b9a4c0ec1f3b5fb3d4366926ebcbf3facb19e8fa070a94942b90100000000000000000000000000000000000000000000000000000000000000000000000000000000000000000000000000000000000000000000000000000000000000000000000000000000000000000000000000000000000000000000000000000000000000000000000000000000000000000000000000000000000000000000000000000000000000000000000000000000000000000000000000000000000000000000000000000000000000000000000000000000000000000000000000000000000000000000000000000000000000000000000000000000000000000000000000000000000000000000000000000000000000000000000000000000008302000001887fffffffffffffff82b09c8203e880a0fb5c120c661bf5d3c980afb836736dd2fda053a43d7489fe7132a1e19388899d88a743788823fb8f89f8fef8fc80018422e280c994095e7baea6a6c7c4c2dfeb977efac326af552d878412de4990b89644417f00000000000000000000000000000000000000000000000000000000000000017f00000000000000000000000100000000000000000000000000000000000000007f00000000000000000000000000000000000000000000000000000000000000007ffffffffffffffffffffffffffffffffffffffffffffffffffffffffffffffffe6f949fa28af308a37a136c626218927d1ca031b7a89abdfb05cadc1d0998a8ccf3ea82924de98274e78681bf3acf27f61d25a018227a22fb664a2d6db188206392b6e4ccdfcd491abff3b7dde8fc3dc22224cbc0",
                "transactions" : [
                    {
                        "data" : "0x44417f00000000000000000000000000000000000000000000000000000000000000017f00000000000000000000000100000000000000000000000000000000000000007f00000000000000000000000000000000000000000000000000000000000000007ffffffffffffffffffffffffffffffffffffffffffffffffffffffffffffffffe6f949fa28af308a37a136c626218927d",
                        "gasLimit" : "0x22e280c9",
                        "gasPrice" : "0x01",
                        "nonce" : "0x00",
                        "r" : "0x31b7a89abdfb05cadc1d0998a8ccf3ea82924de98274e78681bf3acf27f61d25",
                        "s" : "0x18227a22fb664a2d6db188206392b6e4ccdfcd491abff3b7dde8fc3dc22224cb",
                        "to" : "0x095e7baea6a6c7c4c2dfeb977efac326af552d87",
                        "v" : "0x1c",
                        "value" : "0x12de4990"
                    }
                ],
                "uncleHeaders" : [
                ]
            }
        ],
        "genesisBlockHeader" : {
            "bloom" : "0x00000000000000000000000000000000000000000000000000000000000000000000000000000000000000000000000000000000000000000000000000000000000000000000000000000000000000000000000000000000000000000000000000000000000000000000000000000000000000000000000000000000000000000000000000000000000000000000000000000000000000000000000000000000000000000000000000000000000000000000000000000000000000000000000000000000000000000000000000000000000000000000000000000000000000000000000000000000000000000000000000000000000000000000000000000000",
            "coinbase" : "0x945304eb96065b2a98b57a48a06ae28d285a71b5",
            "difficulty" : "0x020000",
            "extraData" : "0x42",
            "gasLimit" : "0x7fffffffffffffff",
            "gasUsed" : "0x00",
            "hash" : "0xf31a624c6576cf9d6050f3870f6eba276752b9386a1804faa4aaaf2faf8ff663",
            "mixHash" : "0x56e81f171bcc55a6ff8345e692c0f86e5b48e01b996cadc001622fb5e363b421",
            "nonce" : "0x0102030405060708",
            "number" : "0x00",
            "parentHash" : "0x0000000000000000000000000000000000000000000000000000000000000000",
            "receiptTrie" : "0x56e81f171bcc55a6ff8345e692c0f86e5b48e01b996cadc001622fb5e363b421",
            "stateRoot" : "0x382fa0abc449d873c179a640ed5ed194b4da3c6d4e4738bc5a9e3de1650e07f1",
            "timestamp" : "0x03b6",
            "transactionsTrie" : "0x56e81f171bcc55a6ff8345e692c0f86e5b48e01b996cadc001622fb5e363b421",
            "uncleHash" : "0x1dcc4de8dec75d7aab85b567b6ccd41ad312451b948a7413f0a142fd40d49347"
        },
        "genesisRLP" : "0xf901fff901faa00000000000000000000000000000000000000000000000000000000000000000a01dcc4de8dec75d7aab85b567b6ccd41ad312451b948a7413f0a142fd40d4934794945304eb96065b2a98b57a48a06ae28d285a71b5a0382fa0abc449d873c179a640ed5ed194b4da3c6d4e4738bc5a9e3de1650e07f1a056e81f171bcc55a6ff8345e692c0f86e5b48e01b996cadc001622fb5e363b421a056e81f171bcc55a6ff8345e692c0f86e5b48e01b996cadc001622fb5e363b421b90100000000000000000000000000000000000000000000000000000000000000000000000000000000000000000000000000000000000000000000000000000000000000000000000000000000000000000000000000000000000000000000000000000000000000000000000000000000000000000000000000000000000000000000000000000000000000000000000000000000000000000000000000000000000000000000000000000000000000000000000000000000000000000000000000000000000000000000000000000000000000000000000000000000000000000000000000000000000000000000000000000000000000000000000000000000008302000080887fffffffffffffff808203b642a056e81f171bcc55a6ff8345e692c0f86e5b48e01b996cadc001622fb5e363b421880102030405060708c0c0",
        "lastblockhash" : "0xb6e4f6387ab204cc61810ecc7a03452846f88680497e9f192d55cb3c94a513ff",
        "network" : "EIP158",
        "postState" : {
            "0x095e7baea6a6c7c4c2dfeb977efac326af552d87" : {
                "balance" : "0x12de4990",
                "code" : "0x44417f00000000000000000000000000000000000000000000000000000000000000017f00000000000000000000000100000000000000000000000000000000000000007f00000000000000000000000000000000000000000000000000000000000000007ffffffffffffffffffffffffffffffffffffffffffffffffffffffffffffffffe6f949fa28af308a37a136c626218927d5560005155",
                "nonce" : "0x00",
                "storage" : {
                    "0x00" : "0x949fa28af308a37a136c626218927d55"
                }
            },
            "0x945304eb96065b2a98b57a48a06ae28d285a71b5" : {
                "balance" : "0x4563918244f4b0ca",
                "code" : "0x6000355415600957005b60203560003555",
                "nonce" : "0x00",
                "storage" : {
                }
            },
            "0xa94f5374fce5edbc8e2a8697c15331677e6ebf0b" : {
                "balance" : "0x0de0b6b3948505d4",
                "code" : "",
                "nonce" : "0x01",
                "storage" : {
                }
            }
        },
        "pre" : {
            "0x095e7baea6a6c7c4c2dfeb977efac326af552d87" : {
                "balance" : "0x00",
                "code" : "0x44417f00000000000000000000000000000000000000000000000000000000000000017f00000000000000000000000100000000000000000000000000000000000000007f00000000000000000000000000000000000000000000000000000000000000007ffffffffffffffffffffffffffffffffffffffffffffffffffffffffffffffffe6f949fa28af308a37a136c626218927d5560005155",
                "nonce" : "0x00",
                "storage" : {
                }
            },
            "0x945304eb96065b2a98b57a48a06ae28d285a71b5" : {
                "balance" : "0x2e",
                "code" : "0x6000355415600957005b60203560003555",
                "nonce" : "0x00",
                "storage" : {
                }
            },
            "0xa94f5374fce5edbc8e2a8697c15331677e6ebf0b" : {
                "balance" : "0x0de0b6b3a7640000",
                "code" : "",
                "nonce" : "0x00",
                "storage" : {
                }
            }
        }
    },
    "randomStatetest457_d0g0v0_Frontier" : {
        "_info" : {
            "comment" : "",
            "filledwith" : "cpp-1.3.0+commit.4e101574.Linux.g++",
            "lllcversion" : "Version: 0.4.18-develop.2017.10.11+commit.81f9f86c.Linux.g++",
            "source" : "src/BlockchainTestsFiller/GeneralStateTests/stRandom2/randomStatetest457_d0g0v0Filler.json",
            "sourceHash" : "e970daa4540d7304da1e1f9d8d599999a2758d394f978a05b52ce46472dc54e4"
        },
        "blocks" : [
            {
                "blockHeader" : {
                    "bloom" : "0x00000000000000000000000000000000000000000000000000000000000000000000000000000000000000000000000000000000000000000000000000000000000000000000000000000000000000000000000000000000000000000000000000000000000000000000000000000000000000000000000000000000000000000000000000000000000000000000000000000000000000000000000000000000000000000000000000000000000000000000000000000000000000000000000000000000000000000000000000000000000000000000000000000000000000000000000000000000000000000000000000000000000000000000000000000000",
                    "coinbase" : "0x945304eb96065b2a98b57a48a06ae28d285a71b5",
                    "difficulty" : "0x020000",
                    "extraData" : "",
                    "gasLimit" : "0x7fffffffffffffff",
                    "gasUsed" : "0xb09c",
                    "hash" : "0x43958b6d5c5e166446af8660fa92880fd4a917100e3859b95baf2bd98aff5603",
                    "mixHash" : "0xe9499bfa0cad4c67c4b6512444556e301b16ebacce979f99e0d0aa6de694cf8b",
                    "nonce" : "0x179b424d93b54c52",
                    "number" : "0x01",
                    "parentHash" : "0xf31a624c6576cf9d6050f3870f6eba276752b9386a1804faa4aaaf2faf8ff663",
                    "receiptTrie" : "0x181d598ae4105e0b9a4c0ec1f3b5fb3d4366926ebcbf3facb19e8fa070a94942",
                    "stateRoot" : "0xbc3e90d82e28eab4ea9e249c535f23a3b9b50cd00e4ab0cbf798ccbd2e116112",
                    "timestamp" : "0x03e8",
                    "transactionsTrie" : "0x15e1340a42d8fee163a12cabeb186e17ce9ffaca9798f19ccc9948942b3c0b18",
                    "uncleHash" : "0x1dcc4de8dec75d7aab85b567b6ccd41ad312451b948a7413f0a142fd40d49347"
                },
                "rlp" : "0xf90300f901fca0f31a624c6576cf9d6050f3870f6eba276752b9386a1804faa4aaaf2faf8ff663a01dcc4de8dec75d7aab85b567b6ccd41ad312451b948a7413f0a142fd40d4934794945304eb96065b2a98b57a48a06ae28d285a71b5a0bc3e90d82e28eab4ea9e249c535f23a3b9b50cd00e4ab0cbf798ccbd2e116112a015e1340a42d8fee163a12cabeb186e17ce9ffaca9798f19ccc9948942b3c0b18a0181d598ae4105e0b9a4c0ec1f3b5fb3d4366926ebcbf3facb19e8fa070a94942b90100000000000000000000000000000000000000000000000000000000000000000000000000000000000000000000000000000000000000000000000000000000000000000000000000000000000000000000000000000000000000000000000000000000000000000000000000000000000000000000000000000000000000000000000000000000000000000000000000000000000000000000000000000000000000000000000000000000000000000000000000000000000000000000000000000000000000000000000000000000000000000000000000000000000000000000000000000000000000000000000000000000000000000000000000000000008302000001887fffffffffffffff82b09c8203e880a0e9499bfa0cad4c67c4b6512444556e301b16ebacce979f99e0d0aa6de694cf8b88179b424d93b54c52f8fef8fc80018422e280c994095e7baea6a6c7c4c2dfeb977efac326af552d878412de4990b89644417f00000000000000000000000000000000000000000000000000000000000000017f00000000000000000000000100000000000000000000000000000000000000007f00000000000000000000000000000000000000000000000000000000000000007ffffffffffffffffffffffffffffffffffffffffffffffffffffffffffffffffe6f949fa28af308a37a136c626218927d1ca031b7a89abdfb05cadc1d0998a8ccf3ea82924de98274e78681bf3acf27f61d25a018227a22fb664a2d6db188206392b6e4ccdfcd491abff3b7dde8fc3dc22224cbc0",
                "transactions" : [
                    {
                        "data" : "0x44417f00000000000000000000000000000000000000000000000000000000000000017f00000000000000000000000100000000000000000000000000000000000000007f00000000000000000000000000000000000000000000000000000000000000007ffffffffffffffffffffffffffffffffffffffffffffffffffffffffffffffffe6f949fa28af308a37a136c626218927d",
                        "gasLimit" : "0x22e280c9",
                        "gasPrice" : "0x01",
                        "nonce" : "0x00",
                        "r" : "0x31b7a89abdfb05cadc1d0998a8ccf3ea82924de98274e78681bf3acf27f61d25",
                        "s" : "0x18227a22fb664a2d6db188206392b6e4ccdfcd491abff3b7dde8fc3dc22224cb",
                        "to" : "0x095e7baea6a6c7c4c2dfeb977efac326af552d87",
                        "v" : "0x1c",
                        "value" : "0x12de4990"
                    }
                ],
                "uncleHeaders" : [
                ]
            }
        ],
        "genesisBlockHeader" : {
            "bloom" : "0x00000000000000000000000000000000000000000000000000000000000000000000000000000000000000000000000000000000000000000000000000000000000000000000000000000000000000000000000000000000000000000000000000000000000000000000000000000000000000000000000000000000000000000000000000000000000000000000000000000000000000000000000000000000000000000000000000000000000000000000000000000000000000000000000000000000000000000000000000000000000000000000000000000000000000000000000000000000000000000000000000000000000000000000000000000000",
            "coinbase" : "0x945304eb96065b2a98b57a48a06ae28d285a71b5",
            "difficulty" : "0x020000",
            "extraData" : "0x42",
            "gasLimit" : "0x7fffffffffffffff",
            "gasUsed" : "0x00",
            "hash" : "0xf31a624c6576cf9d6050f3870f6eba276752b9386a1804faa4aaaf2faf8ff663",
            "mixHash" : "0x56e81f171bcc55a6ff8345e692c0f86e5b48e01b996cadc001622fb5e363b421",
            "nonce" : "0x0102030405060708",
            "number" : "0x00",
            "parentHash" : "0x0000000000000000000000000000000000000000000000000000000000000000",
            "receiptTrie" : "0x56e81f171bcc55a6ff8345e692c0f86e5b48e01b996cadc001622fb5e363b421",
            "stateRoot" : "0x382fa0abc449d873c179a640ed5ed194b4da3c6d4e4738bc5a9e3de1650e07f1",
            "timestamp" : "0x03b6",
            "transactionsTrie" : "0x56e81f171bcc55a6ff8345e692c0f86e5b48e01b996cadc001622fb5e363b421",
            "uncleHash" : "0x1dcc4de8dec75d7aab85b567b6ccd41ad312451b948a7413f0a142fd40d49347"
        },
        "genesisRLP" : "0xf901fff901faa00000000000000000000000000000000000000000000000000000000000000000a01dcc4de8dec75d7aab85b567b6ccd41ad312451b948a7413f0a142fd40d4934794945304eb96065b2a98b57a48a06ae28d285a71b5a0382fa0abc449d873c179a640ed5ed194b4da3c6d4e4738bc5a9e3de1650e07f1a056e81f171bcc55a6ff8345e692c0f86e5b48e01b996cadc001622fb5e363b421a056e81f171bcc55a6ff8345e692c0f86e5b48e01b996cadc001622fb5e363b421b90100000000000000000000000000000000000000000000000000000000000000000000000000000000000000000000000000000000000000000000000000000000000000000000000000000000000000000000000000000000000000000000000000000000000000000000000000000000000000000000000000000000000000000000000000000000000000000000000000000000000000000000000000000000000000000000000000000000000000000000000000000000000000000000000000000000000000000000000000000000000000000000000000000000000000000000000000000000000000000000000000000000000000000000000000000000008302000080887fffffffffffffff808203b642a056e81f171bcc55a6ff8345e692c0f86e5b48e01b996cadc001622fb5e363b421880102030405060708c0c0",
        "lastblockhash" : "0x43958b6d5c5e166446af8660fa92880fd4a917100e3859b95baf2bd98aff5603",
        "network" : "Frontier",
        "postState" : {
            "0x095e7baea6a6c7c4c2dfeb977efac326af552d87" : {
                "balance" : "0x12de4990",
                "code" : "0x44417f00000000000000000000000000000000000000000000000000000000000000017f00000000000000000000000100000000000000000000000000000000000000007f00000000000000000000000000000000000000000000000000000000000000007ffffffffffffffffffffffffffffffffffffffffffffffffffffffffffffffffe6f949fa28af308a37a136c626218927d5560005155",
                "nonce" : "0x00",
                "storage" : {
                    "0x00" : "0x949fa28af308a37a136c626218927d55"
                }
            },
            "0x945304eb96065b2a98b57a48a06ae28d285a71b5" : {
                "balance" : "0x4563918244f4b0ca",
                "code" : "0x6000355415600957005b60203560003555",
                "nonce" : "0x00",
                "storage" : {
                }
            },
            "0xa94f5374fce5edbc8e2a8697c15331677e6ebf0b" : {
                "balance" : "0x0de0b6b3948505d4",
                "code" : "",
                "nonce" : "0x01",
                "storage" : {
                }
            }
        },
        "pre" : {
            "0x095e7baea6a6c7c4c2dfeb977efac326af552d87" : {
                "balance" : "0x00",
                "code" : "0x44417f00000000000000000000000000000000000000000000000000000000000000017f00000000000000000000000100000000000000000000000000000000000000007f00000000000000000000000000000000000000000000000000000000000000007ffffffffffffffffffffffffffffffffffffffffffffffffffffffffffffffffe6f949fa28af308a37a136c626218927d5560005155",
                "nonce" : "0x00",
                "storage" : {
                }
            },
            "0x945304eb96065b2a98b57a48a06ae28d285a71b5" : {
                "balance" : "0x2e",
                "code" : "0x6000355415600957005b60203560003555",
                "nonce" : "0x00",
                "storage" : {
                }
            },
            "0xa94f5374fce5edbc8e2a8697c15331677e6ebf0b" : {
                "balance" : "0x0de0b6b3a7640000",
                "code" : "",
                "nonce" : "0x00",
                "storage" : {
                }
            }
        }
    },
    "randomStatetest457_d0g0v0_Homestead" : {
        "_info" : {
            "comment" : "",
            "filledwith" : "cpp-1.3.0+commit.4e101574.Linux.g++",
            "lllcversion" : "Version: 0.4.18-develop.2017.10.11+commit.81f9f86c.Linux.g++",
            "source" : "src/BlockchainTestsFiller/GeneralStateTests/stRandom2/randomStatetest457_d0g0v0Filler.json",
            "sourceHash" : "e970daa4540d7304da1e1f9d8d599999a2758d394f978a05b52ce46472dc54e4"
        },
        "blocks" : [
            {
                "blockHeader" : {
                    "bloom" : "0x00000000000000000000000000000000000000000000000000000000000000000000000000000000000000000000000000000000000000000000000000000000000000000000000000000000000000000000000000000000000000000000000000000000000000000000000000000000000000000000000000000000000000000000000000000000000000000000000000000000000000000000000000000000000000000000000000000000000000000000000000000000000000000000000000000000000000000000000000000000000000000000000000000000000000000000000000000000000000000000000000000000000000000000000000000000",
                    "coinbase" : "0x945304eb96065b2a98b57a48a06ae28d285a71b5",
                    "difficulty" : "0x020000",
                    "extraData" : "",
                    "gasLimit" : "0x7fffffffffffffff",
                    "gasUsed" : "0xb09c",
                    "hash" : "0x5698c3eba7d2dfda271a390e3df60d6eb9428f480138abef10880f653131521f",
                    "mixHash" : "0x435a3f11741000c0cdc77d1bd1878867df1faf306e993e545b409526e3410d28",
                    "nonce" : "0x6b93981bffe39924",
                    "number" : "0x01",
                    "parentHash" : "0xf31a624c6576cf9d6050f3870f6eba276752b9386a1804faa4aaaf2faf8ff663",
                    "receiptTrie" : "0x181d598ae4105e0b9a4c0ec1f3b5fb3d4366926ebcbf3facb19e8fa070a94942",
                    "stateRoot" : "0xbc3e90d82e28eab4ea9e249c535f23a3b9b50cd00e4ab0cbf798ccbd2e116112",
                    "timestamp" : "0x03e8",
                    "transactionsTrie" : "0x15e1340a42d8fee163a12cabeb186e17ce9ffaca9798f19ccc9948942b3c0b18",
                    "uncleHash" : "0x1dcc4de8dec75d7aab85b567b6ccd41ad312451b948a7413f0a142fd40d49347"
                },
                "rlp" : "0xf90300f901fca0f31a624c6576cf9d6050f3870f6eba276752b9386a1804faa4aaaf2faf8ff663a01dcc4de8dec75d7aab85b567b6ccd41ad312451b948a7413f0a142fd40d4934794945304eb96065b2a98b57a48a06ae28d285a71b5a0bc3e90d82e28eab4ea9e249c535f23a3b9b50cd00e4ab0cbf798ccbd2e116112a015e1340a42d8fee163a12cabeb186e17ce9ffaca9798f19ccc9948942b3c0b18a0181d598ae4105e0b9a4c0ec1f3b5fb3d4366926ebcbf3facb19e8fa070a94942b90100000000000000000000000000000000000000000000000000000000000000000000000000000000000000000000000000000000000000000000000000000000000000000000000000000000000000000000000000000000000000000000000000000000000000000000000000000000000000000000000000000000000000000000000000000000000000000000000000000000000000000000000000000000000000000000000000000000000000000000000000000000000000000000000000000000000000000000000000000000000000000000000000000000000000000000000000000000000000000000000000000000000000000000000000000000008302000001887fffffffffffffff82b09c8203e880a0435a3f11741000c0cdc77d1bd1878867df1faf306e993e545b409526e3410d28886b93981bffe39924f8fef8fc80018422e280c994095e7baea6a6c7c4c2dfeb977efac326af552d878412de4990b89644417f00000000000000000000000000000000000000000000000000000000000000017f00000000000000000000000100000000000000000000000000000000000000007f00000000000000000000000000000000000000000000000000000000000000007ffffffffffffffffffffffffffffffffffffffffffffffffffffffffffffffffe6f949fa28af308a37a136c626218927d1ca031b7a89abdfb05cadc1d0998a8ccf3ea82924de98274e78681bf3acf27f61d25a018227a22fb664a2d6db188206392b6e4ccdfcd491abff3b7dde8fc3dc22224cbc0",
                "transactions" : [
                    {
                        "data" : "0x44417f00000000000000000000000000000000000000000000000000000000000000017f00000000000000000000000100000000000000000000000000000000000000007f00000000000000000000000000000000000000000000000000000000000000007ffffffffffffffffffffffffffffffffffffffffffffffffffffffffffffffffe6f949fa28af308a37a136c626218927d",
                        "gasLimit" : "0x22e280c9",
                        "gasPrice" : "0x01",
                        "nonce" : "0x00",
                        "r" : "0x31b7a89abdfb05cadc1d0998a8ccf3ea82924de98274e78681bf3acf27f61d25",
                        "s" : "0x18227a22fb664a2d6db188206392b6e4ccdfcd491abff3b7dde8fc3dc22224cb",
                        "to" : "0x095e7baea6a6c7c4c2dfeb977efac326af552d87",
                        "v" : "0x1c",
                        "value" : "0x12de4990"
                    }
                ],
                "uncleHeaders" : [
                ]
            }
        ],
        "genesisBlockHeader" : {
            "bloom" : "0x00000000000000000000000000000000000000000000000000000000000000000000000000000000000000000000000000000000000000000000000000000000000000000000000000000000000000000000000000000000000000000000000000000000000000000000000000000000000000000000000000000000000000000000000000000000000000000000000000000000000000000000000000000000000000000000000000000000000000000000000000000000000000000000000000000000000000000000000000000000000000000000000000000000000000000000000000000000000000000000000000000000000000000000000000000000",
            "coinbase" : "0x945304eb96065b2a98b57a48a06ae28d285a71b5",
            "difficulty" : "0x020000",
            "extraData" : "0x42",
            "gasLimit" : "0x7fffffffffffffff",
            "gasUsed" : "0x00",
            "hash" : "0xf31a624c6576cf9d6050f3870f6eba276752b9386a1804faa4aaaf2faf8ff663",
            "mixHash" : "0x56e81f171bcc55a6ff8345e692c0f86e5b48e01b996cadc001622fb5e363b421",
            "nonce" : "0x0102030405060708",
            "number" : "0x00",
            "parentHash" : "0x0000000000000000000000000000000000000000000000000000000000000000",
            "receiptTrie" : "0x56e81f171bcc55a6ff8345e692c0f86e5b48e01b996cadc001622fb5e363b421",
            "stateRoot" : "0x382fa0abc449d873c179a640ed5ed194b4da3c6d4e4738bc5a9e3de1650e07f1",
            "timestamp" : "0x03b6",
            "transactionsTrie" : "0x56e81f171bcc55a6ff8345e692c0f86e5b48e01b996cadc001622fb5e363b421",
            "uncleHash" : "0x1dcc4de8dec75d7aab85b567b6ccd41ad312451b948a7413f0a142fd40d49347"
        },
        "genesisRLP" : "0xf901fff901faa00000000000000000000000000000000000000000000000000000000000000000a01dcc4de8dec75d7aab85b567b6ccd41ad312451b948a7413f0a142fd40d4934794945304eb96065b2a98b57a48a06ae28d285a71b5a0382fa0abc449d873c179a640ed5ed194b4da3c6d4e4738bc5a9e3de1650e07f1a056e81f171bcc55a6ff8345e692c0f86e5b48e01b996cadc001622fb5e363b421a056e81f171bcc55a6ff8345e692c0f86e5b48e01b996cadc001622fb5e363b421b90100000000000000000000000000000000000000000000000000000000000000000000000000000000000000000000000000000000000000000000000000000000000000000000000000000000000000000000000000000000000000000000000000000000000000000000000000000000000000000000000000000000000000000000000000000000000000000000000000000000000000000000000000000000000000000000000000000000000000000000000000000000000000000000000000000000000000000000000000000000000000000000000000000000000000000000000000000000000000000000000000000000000000000000000000000000008302000080887fffffffffffffff808203b642a056e81f171bcc55a6ff8345e692c0f86e5b48e01b996cadc001622fb5e363b421880102030405060708c0c0",
        "lastblockhash" : "0x5698c3eba7d2dfda271a390e3df60d6eb9428f480138abef10880f653131521f",
        "network" : "Homestead",
        "postState" : {
            "0x095e7baea6a6c7c4c2dfeb977efac326af552d87" : {
                "balance" : "0x12de4990",
                "code" : "0x44417f00000000000000000000000000000000000000000000000000000000000000017f00000000000000000000000100000000000000000000000000000000000000007f00000000000000000000000000000000000000000000000000000000000000007ffffffffffffffffffffffffffffffffffffffffffffffffffffffffffffffffe6f949fa28af308a37a136c626218927d5560005155",
                "nonce" : "0x00",
                "storage" : {
                    "0x00" : "0x949fa28af308a37a136c626218927d55"
                }
            },
            "0x945304eb96065b2a98b57a48a06ae28d285a71b5" : {
                "balance" : "0x4563918244f4b0ca",
                "code" : "0x6000355415600957005b60203560003555",
                "nonce" : "0x00",
                "storage" : {
                }
            },
            "0xa94f5374fce5edbc8e2a8697c15331677e6ebf0b" : {
                "balance" : "0x0de0b6b3948505d4",
                "code" : "",
                "nonce" : "0x01",
                "storage" : {
                }
            }
        },
        "pre" : {
            "0x095e7baea6a6c7c4c2dfeb977efac326af552d87" : {
                "balance" : "0x00",
                "code" : "0x44417f00000000000000000000000000000000000000000000000000000000000000017f00000000000000000000000100000000000000000000000000000000000000007f00000000000000000000000000000000000000000000000000000000000000007ffffffffffffffffffffffffffffffffffffffffffffffffffffffffffffffffe6f949fa28af308a37a136c626218927d5560005155",
                "nonce" : "0x00",
                "storage" : {
                }
            },
            "0x945304eb96065b2a98b57a48a06ae28d285a71b5" : {
                "balance" : "0x2e",
                "code" : "0x6000355415600957005b60203560003555",
                "nonce" : "0x00",
                "storage" : {
                }
            },
            "0xa94f5374fce5edbc8e2a8697c15331677e6ebf0b" : {
                "balance" : "0x0de0b6b3a7640000",
                "code" : "",
                "nonce" : "0x00",
                "storage" : {
                }
            }
        }
    }
}