{
    "randomStatetest495_d0g0v0_Byzantium" : {
        "_info" : {
            "comment" : "",
            "filledwith" : "cpp-1.3.0+commit.4e101574.Linux.g++",
            "lllcversion" : "Version: 0.4.18-develop.2017.10.11+commit.81f9f86c.Linux.g++",
            "source" : "src/BlockchainTestsFiller/GeneralStateTests/stRandom2/randomStatetest495_d0g0v0Filler.json",
            "sourceHash" : "301f5c434adeda66c6745aff338a539024a2c29f9abe7267c2c0e5a5a0fcb448"
        },
        "blocks" : [
            {
                "blockHeader" : {
                    "bloom" : "0x00000000000000000000000000000000000000000000000000000000000000000000000000000000000000000000000000000000000000000000000000000000000000000000000000000000000000000000000000000000000000000000000000000000000000000000000000000000000000000000000000000000000000000000000000000000000000000000000000000000000000000000000000000000000000000000000000000000000000000000000000000000000000000000000000000000000000000000000000000000000000000000000000000000000000000000000000000000000000000000000000000000000000000000000000000000",
                    "coinbase" : "0x945304eb96065b2a98b57a48a06ae28d285a71b5",
                    "difficulty" : "0x020000",
                    "extraData" : "",
                    "gasLimit" : "0x7fffffffffffffff",
                    "gasUsed" : "0x915e",
                    "hash" : "0xd92eef9c3e85025a754e71112779f7bbbeae74cd39361ce0d4324af4a929cc7d",
                    "mixHash" : "0x26936b0dc3d8c34b2350446287b5bff6a4bf4c54928d8bdea5e4df072250ddc5",
                    "nonce" : "0xc171d3e2d1e382b3",
                    "number" : "0x01",
                    "parentHash" : "0x0691d2021bddbffd66ff7fd8db4cf9286dbe255d2f77b6cd5baf1465e67cc382",
                    "receiptTrie" : "0xa88a2daaea68004ba399c262d37025e7998d911bd287c22e443a0715fc23faa8",
                    "stateRoot" : "0xf265bbbe988d76fea9a0028fb43cab9fe50d5314a9c51cf697405c29d681e5c9",
                    "timestamp" : "0x03e8",
                    "transactionsTrie" : "0xe11789e6b8911294f69cc08bb70af6271d581249c582aa1a9de2a99249ae043c",
                    "uncleHash" : "0x1dcc4de8dec75d7aab85b567b6ccd41ad312451b948a7413f0a142fd40d49347"
                },
                "rlp" : "0xf90341f901fca00691d2021bddbffd66ff7fd8db4cf9286dbe255d2f77b6cd5baf1465e67cc382a01dcc4de8dec75d7aab85b567b6ccd41ad312451b948a7413f0a142fd40d4934794945304eb96065b2a98b57a48a06ae28d285a71b5a0f265bbbe988d76fea9a0028fb43cab9fe50d5314a9c51cf697405c29d681e5c9a0e11789e6b8911294f69cc08bb70af6271d581249c582aa1a9de2a99249ae043ca0a88a2daaea68004ba399c262d37025e7998d911bd287c22e443a0715fc23faa8b90100000000000000000000000000000000000000000000000000000000000000000000000000000000000000000000000000000000000000000000000000000000000000000000000000000000000000000000000000000000000000000000000000000000000000000000000000000000000000000000000000000000000000000000000000000000000000000000000000000000000000000000000000000000000000000000000000000000000000000000000000000000000000000000000000000000000000000000000000000000000000000000000000000000000000000000000000000000000000000000000000000000000000000000000000000000008302000001887fffffffffffffff82915e8203e880a026936b0dc3d8c34b2350446287b5bff6a4bf4c54928d8bdea5e4df072250ddc588c171d3e2d1e382b3f9013ef9013b8001842c138ff594095e7baea6a6c7c4c2dfeb977efac326af552d87840ca044eeb8d57f000000000000000000000000945304eb96065b2a98b57a48a06ae28d285a71b57f000000000000000000000000ffffffffffffffffffffffffffffffffffffffff7ffffffffffffffffffffffffffffffffffffffffffffffffffffffffffffffffe7f000000000000000000000000945304eb96065b2a98b57a48a06ae28d285a71b57f00000000000000000000000100000000000000000000000000000000000000006f427ffffffffffffffffffffffffffffffffffffffffffffffffffffffffffffffffe7e6410f26f519c538ea2070a6c1ba012d14f817ac5eb6503dd2a4eb2df836837f80b6ae4ffc4f840483094ec6ba372a01c857cf245da039cc1a41f8870ba9a9b0be7eabb5889542b16c411f7781cb49bc0",
                "transactions" : [
                    {
                        "data" : "0x7f000000000000000000000000945304eb96065b2a98b57a48a06ae28d285a71b57f000000000000000000000000ffffffffffffffffffffffffffffffffffffffff7ffffffffffffffffffffffffffffffffffffffffffffffffffffffffffffffffe7f000000000000000000000000945304eb96065b2a98b57a48a06ae28d285a71b57f00000000000000000000000100000000000000000000000000000000000000006f427ffffffffffffffffffffffffffffffffffffffffffffffffffffffffffffffffe7e6410f26f519c538ea2070a6c",
                        "gasLimit" : "0x2c138ff5",
                        "gasPrice" : "0x01",
                        "nonce" : "0x00",
                        "r" : "0x12d14f817ac5eb6503dd2a4eb2df836837f80b6ae4ffc4f840483094ec6ba372",
                        "s" : "0x1c857cf245da039cc1a41f8870ba9a9b0be7eabb5889542b16c411f7781cb49b",
                        "to" : "0x095e7baea6a6c7c4c2dfeb977efac326af552d87",
                        "v" : "0x1b",
                        "value" : "0x0ca044ee"
                    }
                ],
                "uncleHeaders" : [
                ]
            }
        ],
        "genesisBlockHeader" : {
            "bloom" : "0x00000000000000000000000000000000000000000000000000000000000000000000000000000000000000000000000000000000000000000000000000000000000000000000000000000000000000000000000000000000000000000000000000000000000000000000000000000000000000000000000000000000000000000000000000000000000000000000000000000000000000000000000000000000000000000000000000000000000000000000000000000000000000000000000000000000000000000000000000000000000000000000000000000000000000000000000000000000000000000000000000000000000000000000000000000000",
            "coinbase" : "0x945304eb96065b2a98b57a48a06ae28d285a71b5",
            "difficulty" : "0x020000",
            "extraData" : "0x42",
            "gasLimit" : "0x7fffffffffffffff",
            "gasUsed" : "0x00",
            "hash" : "0x0691d2021bddbffd66ff7fd8db4cf9286dbe255d2f77b6cd5baf1465e67cc382",
            "mixHash" : "0x56e81f171bcc55a6ff8345e692c0f86e5b48e01b996cadc001622fb5e363b421",
            "nonce" : "0x0102030405060708",
            "number" : "0x00",
            "parentHash" : "0x0000000000000000000000000000000000000000000000000000000000000000",
            "receiptTrie" : "0x56e81f171bcc55a6ff8345e692c0f86e5b48e01b996cadc001622fb5e363b421",
            "stateRoot" : "0x4cf4fcb0d44641db5cbbf8f741539da4e0aa9e943185111a69016c5b61267bac",
            "timestamp" : "0x03b6",
            "transactionsTrie" : "0x56e81f171bcc55a6ff8345e692c0f86e5b48e01b996cadc001622fb5e363b421",
            "uncleHash" : "0x1dcc4de8dec75d7aab85b567b6ccd41ad312451b948a7413f0a142fd40d49347"
        },
        "genesisRLP" : "0xf901fff901faa00000000000000000000000000000000000000000000000000000000000000000a01dcc4de8dec75d7aab85b567b6ccd41ad312451b948a7413f0a142fd40d4934794945304eb96065b2a98b57a48a06ae28d285a71b5a04cf4fcb0d44641db5cbbf8f741539da4e0aa9e943185111a69016c5b61267baca056e81f171bcc55a6ff8345e692c0f86e5b48e01b996cadc001622fb5e363b421a056e81f171bcc55a6ff8345e692c0f86e5b48e01b996cadc001622fb5e363b421b90100000000000000000000000000000000000000000000000000000000000000000000000000000000000000000000000000000000000000000000000000000000000000000000000000000000000000000000000000000000000000000000000000000000000000000000000000000000000000000000000000000000000000000000000000000000000000000000000000000000000000000000000000000000000000000000000000000000000000000000000000000000000000000000000000000000000000000000000000000000000000000000000000000000000000000000000000000000000000000000000000000000000000000000000000000000008302000080887fffffffffffffff808203b642a056e81f171bcc55a6ff8345e692c0f86e5b48e01b996cadc001622fb5e363b421880102030405060708c0c0",
        "lastblockhash" : "0xd92eef9c3e85025a754e71112779f7bbbeae74cd39361ce0d4324af4a929cc7d",
        "network" : "Byzantium",
        "postState" : {
            "0x00000000427fffffffffffffffffffffffffffff" : {
                "balance" : "0x0ca044ee",
                "code" : "",
                "nonce" : "0x00",
                "storage" : {
                }
            },
            "0x945304eb96065b2a98b57a48a06ae28d285a71b5" : {
                "balance" : "0x29a2241af62c918c",
                "code" : "0x6000355415600957005b60203560003555",
                "nonce" : "0x00",
                "storage" : {
                }
            },
            "0xa94f5374fce5edbc8e2a8697c15331677e6ebf0b" : {
                "balance" : "0x0de0b6b39ac329b4",
                "code" : "",
                "nonce" : "0x01",
                "storage" : {
                }
            }
        },
        "pre" : {
            "0x095e7baea6a6c7c4c2dfeb977efac326af552d87" : {
                "balance" : "0x00",
                "code" : "0x7f000000000000000000000000945304eb96065b2a98b57a48a06ae28d285a71b57f000000000000000000000000ffffffffffffffffffffffffffffffffffffffff7ffffffffffffffffffffffffffffffffffffffffffffffffffffffffffffffffe7f000000000000000000000000945304eb96065b2a98b57a48a06ae28d285a71b57f00000000000000000000000100000000000000000000000000000000000000006f427ffffffffffffffffffffffffffffffffffffffffffffffffffffffffffffffffe7e6410f26f519c538ea2070a6c60005155",
                "nonce" : "0x00",
                "storage" : {
                }
            },
            "0x945304eb96065b2a98b57a48a06ae28d285a71b5" : {
                "balance" : "0x2e",
                "code" : "0x6000355415600957005b60203560003555",
                "nonce" : "0x00",
                "storage" : {
                }
            },
            "0xa94f5374fce5edbc8e2a8697c15331677e6ebf0b" : {
                "balance" : "0x0de0b6b3a7640000",
                "code" : "",
                "nonce" : "0x00",
                "storage" : {
                }
            }
        }
    },
    "randomStatetest495_d0g0v0_EIP150" : {
        "_info" : {
            "comment" : "",
            "filledwith" : "cpp-1.3.0+commit.4e101574.Linux.g++",
            "lllcversion" : "Version: 0.4.18-develop.2017.10.11+commit.81f9f86c.Linux.g++",
            "source" : "src/BlockchainTestsFiller/GeneralStateTests/stRandom2/randomStatetest495_d0g0v0Filler.json",
            "sourceHash" : "301f5c434adeda66c6745aff338a539024a2c29f9abe7267c2c0e5a5a0fcb448"
        },
        "blocks" : [
            {
                "blockHeader" : {
                    "bloom" : "0x00000000000000000000000000000000000000000000000000000000000000000000000000000000000000000000000000000000000000000000000000000000000000000000000000000000000000000000000000000000000000000000000000000000000000000000000000000000000000000000000000000000000000000000000000000000000000000000000000000000000000000000000000000000000000000000000000000000000000000000000000000000000000000000000000000000000000000000000000000000000000000000000000000000000000000000000000000000000000000000000000000000000000000000000000000000",
                    "coinbase" : "0x945304eb96065b2a98b57a48a06ae28d285a71b5",
                    "difficulty" : "0x020000",
                    "extraData" : "",
                    "gasLimit" : "0x7fffffffffffffff",
                    "gasUsed" : "0x915e",
                    "hash" : "0x129c78e4095106e223fe1306dbd33ff66d0cf96cf3e25497f5ba7465673e14e9",
                    "mixHash" : "0x8005fd33e6ed902cef30a9114b908cb7e082bcc37ed6a71c4cf18e9707c11108",
                    "nonce" : "0x30925f2692794f52",
                    "number" : "0x01",
                    "parentHash" : "0x0691d2021bddbffd66ff7fd8db4cf9286dbe255d2f77b6cd5baf1465e67cc382",
                    "receiptTrie" : "0xda6e49b18b44a3cd6fbcc9aca1cf5243d7ca100d8ed0c89f7e1ed54d9dacd7dd",
                    "stateRoot" : "0xa0dbe12403bba1f57c59064febfde2daff204dbd9f8ad5062f90778276669716",
                    "timestamp" : "0x03e8",
                    "transactionsTrie" : "0xe11789e6b8911294f69cc08bb70af6271d581249c582aa1a9de2a99249ae043c",
                    "uncleHash" : "0x1dcc4de8dec75d7aab85b567b6ccd41ad312451b948a7413f0a142fd40d49347"
                },
                "rlp" : "0xf90341f901fca00691d2021bddbffd66ff7fd8db4cf9286dbe255d2f77b6cd5baf1465e67cc382a01dcc4de8dec75d7aab85b567b6ccd41ad312451b948a7413f0a142fd40d4934794945304eb96065b2a98b57a48a06ae28d285a71b5a0a0dbe12403bba1f57c59064febfde2daff204dbd9f8ad5062f90778276669716a0e11789e6b8911294f69cc08bb70af6271d581249c582aa1a9de2a99249ae043ca0da6e49b18b44a3cd6fbcc9aca1cf5243d7ca100d8ed0c89f7e1ed54d9dacd7ddb90100000000000000000000000000000000000000000000000000000000000000000000000000000000000000000000000000000000000000000000000000000000000000000000000000000000000000000000000000000000000000000000000000000000000000000000000000000000000000000000000000000000000000000000000000000000000000000000000000000000000000000000000000000000000000000000000000000000000000000000000000000000000000000000000000000000000000000000000000000000000000000000000000000000000000000000000000000000000000000000000000000000000000000000000000000000008302000001887fffffffffffffff82915e8203e880a08005fd33e6ed902cef30a9114b908cb7e082bcc37ed6a71c4cf18e9707c111088830925f2692794f52f9013ef9013b8001842c138ff594095e7baea6a6c7c4c2dfeb977efac326af552d87840ca044eeb8d57f000000000000000000000000945304eb96065b2a98b57a48a06ae28d285a71b57f000000000000000000000000ffffffffffffffffffffffffffffffffffffffff7ffffffffffffffffffffffffffffffffffffffffffffffffffffffffffffffffe7f000000000000000000000000945304eb96065b2a98b57a48a06ae28d285a71b57f00000000000000000000000100000000000000000000000000000000000000006f427ffffffffffffffffffffffffffffffffffffffffffffffffffffffffffffffffe7e6410f26f519c538ea2070a6c1ba012d14f817ac5eb6503dd2a4eb2df836837f80b6ae4ffc4f840483094ec6ba372a01c857cf245da039cc1a41f8870ba9a9b0be7eabb5889542b16c411f7781cb49bc0",
                "transactions" : [
                    {
                        "data" : "0x7f000000000000000000000000945304eb96065b2a98b57a48a06ae28d285a71b57f000000000000000000000000ffffffffffffffffffffffffffffffffffffffff7ffffffffffffffffffffffffffffffffffffffffffffffffffffffffffffffffe7f000000000000000000000000945304eb96065b2a98b57a48a06ae28d285a71b57f00000000000000000000000100000000000000000000000000000000000000006f427ffffffffffffffffffffffffffffffffffffffffffffffffffffffffffffffffe7e6410f26f519c538ea2070a6c",
                        "gasLimit" : "0x2c138ff5",
                        "gasPrice" : "0x01",
                        "nonce" : "0x00",
                        "r" : "0x12d14f817ac5eb6503dd2a4eb2df836837f80b6ae4ffc4f840483094ec6ba372",
                        "s" : "0x1c857cf245da039cc1a41f8870ba9a9b0be7eabb5889542b16c411f7781cb49b",
                        "to" : "0x095e7baea6a6c7c4c2dfeb977efac326af552d87",
                        "v" : "0x1b",
                        "value" : "0x0ca044ee"
                    }
                ],
                "uncleHeaders" : [
                ]
            }
        ],
        "genesisBlockHeader" : {
            "bloom" : "0x00000000000000000000000000000000000000000000000000000000000000000000000000000000000000000000000000000000000000000000000000000000000000000000000000000000000000000000000000000000000000000000000000000000000000000000000000000000000000000000000000000000000000000000000000000000000000000000000000000000000000000000000000000000000000000000000000000000000000000000000000000000000000000000000000000000000000000000000000000000000000000000000000000000000000000000000000000000000000000000000000000000000000000000000000000000",
            "coinbase" : "0x945304eb96065b2a98b57a48a06ae28d285a71b5",
            "difficulty" : "0x020000",
            "extraData" : "0x42",
            "gasLimit" : "0x7fffffffffffffff",
            "gasUsed" : "0x00",
            "hash" : "0x0691d2021bddbffd66ff7fd8db4cf9286dbe255d2f77b6cd5baf1465e67cc382",
            "mixHash" : "0x56e81f171bcc55a6ff8345e692c0f86e5b48e01b996cadc001622fb5e363b421",
            "nonce" : "0x0102030405060708",
            "number" : "0x00",
            "parentHash" : "0x0000000000000000000000000000000000000000000000000000000000000000",
            "receiptTrie" : "0x56e81f171bcc55a6ff8345e692c0f86e5b48e01b996cadc001622fb5e363b421",
            "stateRoot" : "0x4cf4fcb0d44641db5cbbf8f741539da4e0aa9e943185111a69016c5b61267bac",
            "timestamp" : "0x03b6",
            "transactionsTrie" : "0x56e81f171bcc55a6ff8345e692c0f86e5b48e01b996cadc001622fb5e363b421",
            "uncleHash" : "0x1dcc4de8dec75d7aab85b567b6ccd41ad312451b948a7413f0a142fd40d49347"
        },
        "genesisRLP" : "0xf901fff901faa00000000000000000000000000000000000000000000000000000000000000000a01dcc4de8dec75d7aab85b567b6ccd41ad312451b948a7413f0a142fd40d4934794945304eb96065b2a98b57a48a06ae28d285a71b5a04cf4fcb0d44641db5cbbf8f741539da4e0aa9e943185111a69016c5b61267baca056e81f171bcc55a6ff8345e692c0f86e5b48e01b996cadc001622fb5e363b421a056e81f171bcc55a6ff8345e692c0f86e5b48e01b996cadc001622fb5e363b421b90100000000000000000000000000000000000000000000000000000000000000000000000000000000000000000000000000000000000000000000000000000000000000000000000000000000000000000000000000000000000000000000000000000000000000000000000000000000000000000000000000000000000000000000000000000000000000000000000000000000000000000000000000000000000000000000000000000000000000000000000000000000000000000000000000000000000000000000000000000000000000000000000000000000000000000000000000000000000000000000000000000000000000000000000000000000008302000080887fffffffffffffff808203b642a056e81f171bcc55a6ff8345e692c0f86e5b48e01b996cadc001622fb5e363b421880102030405060708c0c0",
        "lastblockhash" : "0x129c78e4095106e223fe1306dbd33ff66d0cf96cf3e25497f5ba7465673e14e9",
        "network" : "EIP150",
        "postState" : {
            "0x00000000427fffffffffffffffffffffffffffff" : {
                "balance" : "0x0ca044ee",
                "code" : "",
                "nonce" : "0x00",
                "storage" : {
                }
            },
            "0x945304eb96065b2a98b57a48a06ae28d285a71b5" : {
                "balance" : "0x4563918244f4918c",
                "code" : "0x6000355415600957005b60203560003555",
                "nonce" : "0x00",
                "storage" : {
                }
            },
            "0xa94f5374fce5edbc8e2a8697c15331677e6ebf0b" : {
                "balance" : "0x0de0b6b39ac329b4",
                "code" : "",
                "nonce" : "0x01",
                "storage" : {
                }
            }
        },
        "pre" : {
            "0x095e7baea6a6c7c4c2dfeb977efac326af552d87" : {
                "balance" : "0x00",
                "code" : "0x7f000000000000000000000000945304eb96065b2a98b57a48a06ae28d285a71b57f000000000000000000000000ffffffffffffffffffffffffffffffffffffffff7ffffffffffffffffffffffffffffffffffffffffffffffffffffffffffffffffe7f000000000000000000000000945304eb96065b2a98b57a48a06ae28d285a71b57f00000000000000000000000100000000000000000000000000000000000000006f427ffffffffffffffffffffffffffffffffffffffffffffffffffffffffffffffffe7e6410f26f519c538ea2070a6c60005155",
                "nonce" : "0x00",
                "storage" : {
                }
            },
            "0x945304eb96065b2a98b57a48a06ae28d285a71b5" : {
                "balance" : "0x2e",
                "code" : "0x6000355415600957005b60203560003555",
                "nonce" : "0x00",
                "storage" : {
                }
            },
            "0xa94f5374fce5edbc8e2a8697c15331677e6ebf0b" : {
                "balance" : "0x0de0b6b3a7640000",
                "code" : "",
                "nonce" : "0x00",
                "storage" : {
                }
            }
        }
    },
    "randomStatetest495_d0g0v0_EIP158" : {
        "_info" : {
            "comment" : "",
            "filledwith" : "cpp-1.3.0+commit.4e101574.Linux.g++",
            "lllcversion" : "Version: 0.4.18-develop.2017.10.11+commit.81f9f86c.Linux.g++",
            "source" : "src/BlockchainTestsFiller/GeneralStateTests/stRandom2/randomStatetest495_d0g0v0Filler.json",
            "sourceHash" : "301f5c434adeda66c6745aff338a539024a2c29f9abe7267c2c0e5a5a0fcb448"
        },
        "blocks" : [
            {
                "blockHeader" : {
                    "bloom" : "0x00000000000000000000000000000000000000000000000000000000000000000000000000000000000000000000000000000000000000000000000000000000000000000000000000000000000000000000000000000000000000000000000000000000000000000000000000000000000000000000000000000000000000000000000000000000000000000000000000000000000000000000000000000000000000000000000000000000000000000000000000000000000000000000000000000000000000000000000000000000000000000000000000000000000000000000000000000000000000000000000000000000000000000000000000000000",
                    "coinbase" : "0x945304eb96065b2a98b57a48a06ae28d285a71b5",
                    "difficulty" : "0x020000",
                    "extraData" : "",
                    "gasLimit" : "0x7fffffffffffffff",
                    "gasUsed" : "0x915e",
                    "hash" : "0x2bb60825362f1e2221d8e2dad3c966d3914ff53d9c0e3c6c5c44d48089d75e81",
                    "mixHash" : "0x6f830a47c87227d3ce3fa6075a2257825bfa103155a117101ffe27282be680ff",
                    "nonce" : "0x273b96906c0c523a",
                    "number" : "0x01",
                    "parentHash" : "0x0691d2021bddbffd66ff7fd8db4cf9286dbe255d2f77b6cd5baf1465e67cc382",
                    "receiptTrie" : "0xda6e49b18b44a3cd6fbcc9aca1cf5243d7ca100d8ed0c89f7e1ed54d9dacd7dd",
                    "stateRoot" : "0xa0dbe12403bba1f57c59064febfde2daff204dbd9f8ad5062f90778276669716",
                    "timestamp" : "0x03e8",
                    "transactionsTrie" : "0xe11789e6b8911294f69cc08bb70af6271d581249c582aa1a9de2a99249ae043c",
                    "uncleHash" : "0x1dcc4de8dec75d7aab85b567b6ccd41ad312451b948a7413f0a142fd40d49347"
                },
                "rlp" : "0xf90341f901fca00691d2021bddbffd66ff7fd8db4cf9286dbe255d2f77b6cd5baf1465e67cc382a01dcc4de8dec75d7aab85b567b6ccd41ad312451b948a7413f0a142fd40d4934794945304eb96065b2a98b57a48a06ae28d285a71b5a0a0dbe12403bba1f57c59064febfde2daff204dbd9f8ad5062f90778276669716a0e11789e6b8911294f69cc08bb70af6271d581249c582aa1a9de2a99249ae043ca0da6e49b18b44a3cd6fbcc9aca1cf5243d7ca100d8ed0c89f7e1ed54d9dacd7ddb90100000000000000000000000000000000000000000000000000000000000000000000000000000000000000000000000000000000000000000000000000000000000000000000000000000000000000000000000000000000000000000000000000000000000000000000000000000000000000000000000000000000000000000000000000000000000000000000000000000000000000000000000000000000000000000000000000000000000000000000000000000000000000000000000000000000000000000000000000000000000000000000000000000000000000000000000000000000000000000000000000000000000000000000000000000000008302000001887fffffffffffffff82915e8203e880a06f830a47c87227d3ce3fa6075a2257825bfa103155a117101ffe27282be680ff88273b96906c0c523af9013ef9013b8001842c138ff594095e7baea6a6c7c4c2dfeb977efac326af552d87840ca044eeb8d57f000000000000000000000000945304eb96065b2a98b57a48a06ae28d285a71b57f000000000000000000000000ffffffffffffffffffffffffffffffffffffffff7ffffffffffffffffffffffffffffffffffffffffffffffffffffffffffffffffe7f000000000000000000000000945304eb96065b2a98b57a48a06ae28d285a71b57f00000000000000000000000100000000000000000000000000000000000000006f427ffffffffffffffffffffffffffffffffffffffffffffffffffffffffffffffffe7e6410f26f519c538ea2070a6c1ba012d14f817ac5eb6503dd2a4eb2df836837f80b6ae4ffc4f840483094ec6ba372a01c857cf245da039cc1a41f8870ba9a9b0be7eabb5889542b16c411f7781cb49bc0",
                "transactions" : [
                    {
                        "data" : "0x7f000000000000000000000000945304eb96065b2a98b57a48a06ae28d285a71b57f000000000000000000000000ffffffffffffffffffffffffffffffffffffffff7ffffffffffffffffffffffffffffffffffffffffffffffffffffffffffffffffe7f000000000000000000000000945304eb96065b2a98b57a48a06ae28d285a71b57f00000000000000000000000100000000000000000000000000000000000000006f427ffffffffffffffffffffffffffffffffffffffffffffffffffffffffffffffffe7e6410f26f519c538ea2070a6c",
                        "gasLimit" : "0x2c138ff5",
                        "gasPrice" : "0x01",
                        "nonce" : "0x00",
                        "r" : "0x12d14f817ac5eb6503dd2a4eb2df836837f80b6ae4ffc4f840483094ec6ba372",
                        "s" : "0x1c857cf245da039cc1a41f8870ba9a9b0be7eabb5889542b16c411f7781cb49b",
                        "to" : "0x095e7baea6a6c7c4c2dfeb977efac326af552d87",
                        "v" : "0x1b",
                        "value" : "0x0ca044ee"
                    }
                ],
                "uncleHeaders" : [
                ]
            }
        ],
        "genesisBlockHeader" : {
            "bloom" : "0x00000000000000000000000000000000000000000000000000000000000000000000000000000000000000000000000000000000000000000000000000000000000000000000000000000000000000000000000000000000000000000000000000000000000000000000000000000000000000000000000000000000000000000000000000000000000000000000000000000000000000000000000000000000000000000000000000000000000000000000000000000000000000000000000000000000000000000000000000000000000000000000000000000000000000000000000000000000000000000000000000000000000000000000000000000000",
            "coinbase" : "0x945304eb96065b2a98b57a48a06ae28d285a71b5",
            "difficulty" : "0x020000",
            "extraData" : "0x42",
            "gasLimit" : "0x7fffffffffffffff",
            "gasUsed" : "0x00",
            "hash" : "0x0691d2021bddbffd66ff7fd8db4cf9286dbe255d2f77b6cd5baf1465e67cc382",
            "mixHash" : "0x56e81f171bcc55a6ff8345e692c0f86e5b48e01b996cadc001622fb5e363b421",
            "nonce" : "0x0102030405060708",
            "number" : "0x00",
            "parentHash" : "0x0000000000000000000000000000000000000000000000000000000000000000",
            "receiptTrie" : "0x56e81f171bcc55a6ff8345e692c0f86e5b48e01b996cadc001622fb5e363b421",
            "stateRoot" : "0x4cf4fcb0d44641db5cbbf8f741539da4e0aa9e943185111a69016c5b61267bac",
            "timestamp" : "0x03b6",
            "transactionsTrie" : "0x56e81f171bcc55a6ff8345e692c0f86e5b48e01b996cadc001622fb5e363b421",
            "uncleHash" : "0x1dcc4de8dec75d7aab85b567b6ccd41ad312451b948a7413f0a142fd40d49347"
        },
        "genesisRLP" : "0xf901fff901faa00000000000000000000000000000000000000000000000000000000000000000a01dcc4de8dec75d7aab85b567b6ccd41ad312451b948a7413f0a142fd40d4934794945304eb96065b2a98b57a48a06ae28d285a71b5a04cf4fcb0d44641db5cbbf8f741539da4e0aa9e943185111a69016c5b61267baca056e81f171bcc55a6ff8345e692c0f86e5b48e01b996cadc001622fb5e363b421a056e81f171bcc55a6ff8345e692c0f86e5b48e01b996cadc001622fb5e363b421b90100000000000000000000000000000000000000000000000000000000000000000000000000000000000000000000000000000000000000000000000000000000000000000000000000000000000000000000000000000000000000000000000000000000000000000000000000000000000000000000000000000000000000000000000000000000000000000000000000000000000000000000000000000000000000000000000000000000000000000000000000000000000000000000000000000000000000000000000000000000000000000000000000000000000000000000000000000000000000000000000000000000000000000000000000000000008302000080887fffffffffffffff808203b642a056e81f171bcc55a6ff8345e692c0f86e5b48e01b996cadc001622fb5e363b421880102030405060708c0c0",
        "lastblockhash" : "0x2bb60825362f1e2221d8e2dad3c966d3914ff53d9c0e3c6c5c44d48089d75e81",
        "network" : "EIP158",
        "postState" : {
            "0x00000000427fffffffffffffffffffffffffffff" : {
                "balance" : "0x0ca044ee",
                "code" : "",
                "nonce" : "0x00",
                "storage" : {
                }
            },
            "0x945304eb96065b2a98b57a48a06ae28d285a71b5" : {
                "balance" : "0x4563918244f4918c",
                "code" : "0x6000355415600957005b60203560003555",
                "nonce" : "0x00",
                "storage" : {
                }
            },
            "0xa94f5374fce5edbc8e2a8697c15331677e6ebf0b" : {
                "balance" : "0x0de0b6b39ac329b4",
                "code" : "",
                "nonce" : "0x01",
                "storage" : {
                }
            }
        },
        "pre" : {
            "0x095e7baea6a6c7c4c2dfeb977efac326af552d87" : {
                "balance" : "0x00",
                "code" : "0x7f000000000000000000000000945304eb96065b2a98b57a48a06ae28d285a71b57f000000000000000000000000ffffffffffffffffffffffffffffffffffffffff7ffffffffffffffffffffffffffffffffffffffffffffffffffffffffffffffffe7f000000000000000000000000945304eb96065b2a98b57a48a06ae28d285a71b57f00000000000000000000000100000000000000000000000000000000000000006f427ffffffffffffffffffffffffffffffffffffffffffffffffffffffffffffffffe7e6410f26f519c538ea2070a6c60005155",
                "nonce" : "0x00",
                "storage" : {
                }
            },
            "0x945304eb96065b2a98b57a48a06ae28d285a71b5" : {
                "balance" : "0x2e",
                "code" : "0x6000355415600957005b60203560003555",
                "nonce" : "0x00",
                "storage" : {
                }
            },
            "0xa94f5374fce5edbc8e2a8697c15331677e6ebf0b" : {
                "balance" : "0x0de0b6b3a7640000",
                "code" : "",
                "nonce" : "0x00",
                "storage" : {
                }
            }
        }
    },
    "randomStatetest495_d0g0v0_Frontier" : {
        "_info" : {
            "comment" : "",
            "filledwith" : "cpp-1.3.0+commit.4e101574.Linux.g++",
            "lllcversion" : "Version: 0.4.18-develop.2017.10.11+commit.81f9f86c.Linux.g++",
            "source" : "src/BlockchainTestsFiller/GeneralStateTests/stRandom2/randomStatetest495_d0g0v0Filler.json",
            "sourceHash" : "301f5c434adeda66c6745aff338a539024a2c29f9abe7267c2c0e5a5a0fcb448"
        },
        "blocks" : [
            {
                "blockHeader" : {
                    "bloom" : "0x00000000000000000000000000000000000000000000000000000000000000000000000000000000000000000000000000000000000000000000000000000000000000000000000000000000000000000000000000000000000000000000000000000000000000000000000000000000000000000000000000000000000000000000000000000000000000000000000000000000000000000000000000000000000000000000000000000000000000000000000000000000000000000000000000000000000000000000000000000000000000000000000000000000000000000000000000000000000000000000000000000000000000000000000000000000",
                    "coinbase" : "0x945304eb96065b2a98b57a48a06ae28d285a71b5",
                    "difficulty" : "0x020000",
                    "extraData" : "",
                    "gasLimit" : "0x7fffffffffffffff",
                    "gasUsed" : "0x3cf7",
                    "hash" : "0x41eb4452144fe8df4b0bf31102cd6449c913742293be3e45b87ea59a741f93fa",
                    "mixHash" : "0x4b2cf9d069aba992d8e65ac262adeeff9217bffd85e2444878cf5be99ac9fa9b",
                    "nonce" : "0x88545caeafe2896a",
                    "number" : "0x01",
                    "parentHash" : "0x0691d2021bddbffd66ff7fd8db4cf9286dbe255d2f77b6cd5baf1465e67cc382",
                    "receiptTrie" : "0x780e554e03cb58d9a5a83a67fa5eb42701b012e1b82053cf24727e751989c048",
                    "stateRoot" : "0x5b51a25853826bf9ebde468bf4c0a857b6013b6f41ff9cc670818f66573f0b82",
                    "timestamp" : "0x03e8",
                    "transactionsTrie" : "0xe11789e6b8911294f69cc08bb70af6271d581249c582aa1a9de2a99249ae043c",
                    "uncleHash" : "0x1dcc4de8dec75d7aab85b567b6ccd41ad312451b948a7413f0a142fd40d49347"
                },
                "rlp" : "0xf90341f901fca00691d2021bddbffd66ff7fd8db4cf9286dbe255d2f77b6cd5baf1465e67cc382a01dcc4de8dec75d7aab85b567b6ccd41ad312451b948a7413f0a142fd40d4934794945304eb96065b2a98b57a48a06ae28d285a71b5a05b51a25853826bf9ebde468bf4c0a857b6013b6f41ff9cc670818f66573f0b82a0e11789e6b8911294f69cc08bb70af6271d581249c582aa1a9de2a99249ae043ca0780e554e03cb58d9a5a83a67fa5eb42701b012e1b82053cf24727e751989c048b90100000000000000000000000000000000000000000000000000000000000000000000000000000000000000000000000000000000000000000000000000000000000000000000000000000000000000000000000000000000000000000000000000000000000000000000000000000000000000000000000000000000000000000000000000000000000000000000000000000000000000000000000000000000000000000000000000000000000000000000000000000000000000000000000000000000000000000000000000000000000000000000000000000000000000000000000000000000000000000000000000000000000000000000000000000000008302000001887fffffffffffffff823cf78203e880a04b2cf9d069aba992d8e65ac262adeeff9217bffd85e2444878cf5be99ac9fa9b8888545caeafe2896af9013ef9013b8001842c138ff594095e7baea6a6c7c4c2dfeb977efac326af552d87840ca044eeb8d57f000000000000000000000000945304eb96065b2a98b57a48a06ae28d285a71b57f000000000000000000000000ffffffffffffffffffffffffffffffffffffffff7ffffffffffffffffffffffffffffffffffffffffffffffffffffffffffffffffe7f000000000000000000000000945304eb96065b2a98b57a48a06ae28d285a71b57f00000000000000000000000100000000000000000000000000000000000000006f427ffffffffffffffffffffffffffffffffffffffffffffffffffffffffffffffffe7e6410f26f519c538ea2070a6c1ba012d14f817ac5eb6503dd2a4eb2df836837f80b6ae4ffc4f840483094ec6ba372a01c857cf245da039cc1a41f8870ba9a9b0be7eabb5889542b16c411f7781cb49bc0",
                "transactions" : [
                    {
                        "data" : "0x7f000000000000000000000000945304eb96065b2a98b57a48a06ae28d285a71b57f000000000000000000000000ffffffffffffffffffffffffffffffffffffffff7ffffffffffffffffffffffffffffffffffffffffffffffffffffffffffffffffe7f000000000000000000000000945304eb96065b2a98b57a48a06ae28d285a71b57f00000000000000000000000100000000000000000000000000000000000000006f427ffffffffffffffffffffffffffffffffffffffffffffffffffffffffffffffffe7e6410f26f519c538ea2070a6c",
                        "gasLimit" : "0x2c138ff5",
                        "gasPrice" : "0x01",
                        "nonce" : "0x00",
                        "r" : "0x12d14f817ac5eb6503dd2a4eb2df836837f80b6ae4ffc4f840483094ec6ba372",
                        "s" : "0x1c857cf245da039cc1a41f8870ba9a9b0be7eabb5889542b16c411f7781cb49b",
                        "to" : "0x095e7baea6a6c7c4c2dfeb977efac326af552d87",
                        "v" : "0x1b",
                        "value" : "0x0ca044ee"
                    }
                ],
                "uncleHeaders" : [
                ]
            }
        ],
        "genesisBlockHeader" : {
            "bloom" : "0x00000000000000000000000000000000000000000000000000000000000000000000000000000000000000000000000000000000000000000000000000000000000000000000000000000000000000000000000000000000000000000000000000000000000000000000000000000000000000000000000000000000000000000000000000000000000000000000000000000000000000000000000000000000000000000000000000000000000000000000000000000000000000000000000000000000000000000000000000000000000000000000000000000000000000000000000000000000000000000000000000000000000000000000000000000000",
            "coinbase" : "0x945304eb96065b2a98b57a48a06ae28d285a71b5",
            "difficulty" : "0x020000",
            "extraData" : "0x42",
            "gasLimit" : "0x7fffffffffffffff",
            "gasUsed" : "0x00",
            "hash" : "0x0691d2021bddbffd66ff7fd8db4cf9286dbe255d2f77b6cd5baf1465e67cc382",
            "mixHash" : "0x56e81f171bcc55a6ff8345e692c0f86e5b48e01b996cadc001622fb5e363b421",
            "nonce" : "0x0102030405060708",
            "number" : "0x00",
            "parentHash" : "0x0000000000000000000000000000000000000000000000000000000000000000",
            "receiptTrie" : "0x56e81f171bcc55a6ff8345e692c0f86e5b48e01b996cadc001622fb5e363b421",
            "stateRoot" : "0x4cf4fcb0d44641db5cbbf8f741539da4e0aa9e943185111a69016c5b61267bac",
            "timestamp" : "0x03b6",
            "transactionsTrie" : "0x56e81f171bcc55a6ff8345e692c0f86e5b48e01b996cadc001622fb5e363b421",
            "uncleHash" : "0x1dcc4de8dec75d7aab85b567b6ccd41ad312451b948a7413f0a142fd40d49347"
        },
        "genesisRLP" : "0xf901fff901faa00000000000000000000000000000000000000000000000000000000000000000a01dcc4de8dec75d7aab85b567b6ccd41ad312451b948a7413f0a142fd40d4934794945304eb96065b2a98b57a48a06ae28d285a71b5a04cf4fcb0d44641db5cbbf8f741539da4e0aa9e943185111a69016c5b61267baca056e81f171bcc55a6ff8345e692c0f86e5b48e01b996cadc001622fb5e363b421a056e81f171bcc55a6ff8345e692c0f86e5b48e01b996cadc001622fb5e363b421b90100000000000000000000000000000000000000000000000000000000000000000000000000000000000000000000000000000000000000000000000000000000000000000000000000000000000000000000000000000000000000000000000000000000000000000000000000000000000000000000000000000000000000000000000000000000000000000000000000000000000000000000000000000000000000000000000000000000000000000000000000000000000000000000000000000000000000000000000000000000000000000000000000000000000000000000000000000000000000000000000000000000000000000000000000000000008302000080887fffffffffffffff808203b642a056e81f171bcc55a6ff8345e692c0f86e5b48e01b996cadc001622fb5e363b421880102030405060708c0c0",
        "lastblockhash" : "0x41eb4452144fe8df4b0bf31102cd6449c913742293be3e45b87ea59a741f93fa",
        "network" : "Frontier",
        "postState" : {
            "0x00000000427fffffffffffffffffffffffffffff" : {
                "balance" : "0x0ca044ee",
                "code" : "",
                "nonce" : "0x00",
                "storage" : {
                }
            },
            "0x945304eb96065b2a98b57a48a06ae28d285a71b5" : {
                "balance" : "0x4563918244f43d25",
                "code" : "0x6000355415600957005b60203560003555",
                "nonce" : "0x00",
                "storage" : {
                }
            },
            "0xa94f5374fce5edbc8e2a8697c15331677e6ebf0b" : {
                "balance" : "0x0de0b6b39ac37e1b",
                "code" : "",
                "nonce" : "0x01",
                "storage" : {
                }
            }
        },
        "pre" : {
            "0x095e7baea6a6c7c4c2dfeb977efac326af552d87" : {
                "balance" : "0x00",
                "code" : "0x7f000000000000000000000000945304eb96065b2a98b57a48a06ae28d285a71b57f000000000000000000000000ffffffffffffffffffffffffffffffffffffffff7ffffffffffffffffffffffffffffffffffffffffffffffffffffffffffffffffe7f000000000000000000000000945304eb96065b2a98b57a48a06ae28d285a71b57f00000000000000000000000100000000000000000000000000000000000000006f427ffffffffffffffffffffffffffffffffffffffffffffffffffffffffffffffffe7e6410f26f519c538ea2070a6c60005155",
                "nonce" : "0x00",
                "storage" : {
                }
            },
            "0x945304eb96065b2a98b57a48a06ae28d285a71b5" : {
                "balance" : "0x2e",
                "code" : "0x6000355415600957005b60203560003555",
                "nonce" : "0x00",
                "storage" : {
                }
            },
            "0xa94f5374fce5edbc8e2a8697c15331677e6ebf0b" : {
                "balance" : "0x0de0b6b3a7640000",
                "code" : "",
                "nonce" : "0x00",
                "storage" : {
                }
            }
        }
    },
    "randomStatetest495_d0g0v0_Homestead" : {
        "_info" : {
            "comment" : "",
            "filledwith" : "cpp-1.3.0+commit.4e101574.Linux.g++",
            "lllcversion" : "Version: 0.4.18-develop.2017.10.11+commit.81f9f86c.Linux.g++",
            "source" : "src/BlockchainTestsFiller/GeneralStateTests/stRandom2/randomStatetest495_d0g0v0Filler.json",
            "sourceHash" : "301f5c434adeda66c6745aff338a539024a2c29f9abe7267c2c0e5a5a0fcb448"
        },
        "blocks" : [
            {
                "blockHeader" : {
                    "bloom" : "0x00000000000000000000000000000000000000000000000000000000000000000000000000000000000000000000000000000000000000000000000000000000000000000000000000000000000000000000000000000000000000000000000000000000000000000000000000000000000000000000000000000000000000000000000000000000000000000000000000000000000000000000000000000000000000000000000000000000000000000000000000000000000000000000000000000000000000000000000000000000000000000000000000000000000000000000000000000000000000000000000000000000000000000000000000000000",
                    "coinbase" : "0x945304eb96065b2a98b57a48a06ae28d285a71b5",
                    "difficulty" : "0x020000",
                    "extraData" : "",
                    "gasLimit" : "0x7fffffffffffffff",
                    "gasUsed" : "0x3cf7",
                    "hash" : "0xd8efdfd3d6f7e4f9e1a50117df5c634f54bb812f721511c4b799d3bc8ba38499",
                    "mixHash" : "0xa95ec1ad93b0792dc2ceae37db7c73893e1db55c6606c5f7fc0627011ce434f8",
                    "nonce" : "0x6c34787193ec9331",
                    "number" : "0x01",
                    "parentHash" : "0x0691d2021bddbffd66ff7fd8db4cf9286dbe255d2f77b6cd5baf1465e67cc382",
                    "receiptTrie" : "0x780e554e03cb58d9a5a83a67fa5eb42701b012e1b82053cf24727e751989c048",
                    "stateRoot" : "0x5b51a25853826bf9ebde468bf4c0a857b6013b6f41ff9cc670818f66573f0b82",
                    "timestamp" : "0x03e8",
                    "transactionsTrie" : "0xe11789e6b8911294f69cc08bb70af6271d581249c582aa1a9de2a99249ae043c",
                    "uncleHash" : "0x1dcc4de8dec75d7aab85b567b6ccd41ad312451b948a7413f0a142fd40d49347"
                },
                "rlp" : "0xf90341f901fca00691d2021bddbffd66ff7fd8db4cf9286dbe255d2f77b6cd5baf1465e67cc382a01dcc4de8dec75d7aab85b567b6ccd41ad312451b948a7413f0a142fd40d4934794945304eb96065b2a98b57a48a06ae28d285a71b5a05b51a25853826bf9ebde468bf4c0a857b6013b6f41ff9cc670818f66573f0b82a0e11789e6b8911294f69cc08bb70af6271d581249c582aa1a9de2a99249ae043ca0780e554e03cb58d9a5a83a67fa5eb42701b012e1b82053cf24727e751989c048b90100000000000000000000000000000000000000000000000000000000000000000000000000000000000000000000000000000000000000000000000000000000000000000000000000000000000000000000000000000000000000000000000000000000000000000000000000000000000000000000000000000000000000000000000000000000000000000000000000000000000000000000000000000000000000000000000000000000000000000000000000000000000000000000000000000000000000000000000000000000000000000000000000000000000000000000000000000000000000000000000000000000000000000000000000000000008302000001887fffffffffffffff823cf78203e880a0a95ec1ad93b0792dc2ceae37db7c73893e1db55c6606c5f7fc0627011ce434f8886c34787193ec9331f9013ef9013b8001842c138ff594095e7baea6a6c7c4c2dfeb977efac326af552d87840ca044eeb8d57f000000000000000000000000945304eb96065b2a98b57a48a06ae28d285a71b57f000000000000000000000000ffffffffffffffffffffffffffffffffffffffff7ffffffffffffffffffffffffffffffffffffffffffffffffffffffffffffffffe7f000000000000000000000000945304eb96065b2a98b57a48a06ae28d285a71b57f00000000000000000000000100000000000000000000000000000000000000006f427ffffffffffffffffffffffffffffffffffffffffffffffffffffffffffffffffe7e6410f26f519c538ea2070a6c1ba012d14f817ac5eb6503dd2a4eb2df836837f80b6ae4ffc4f840483094ec6ba372a01c857cf245da039cc1a41f8870ba9a9b0be7eabb5889542b16c411f7781cb49bc0",
                "transactions" : [
                    {
                        "data" : "0x7f000000000000000000000000945304eb96065b2a98b57a48a06ae28d285a71b57f000000000000000000000000ffffffffffffffffffffffffffffffffffffffff7ffffffffffffffffffffffffffffffffffffffffffffffffffffffffffffffffe7f000000000000000000000000945304eb96065b2a98b57a48a06ae28d285a71b57f00000000000000000000000100000000000000000000000000000000000000006f427ffffffffffffffffffffffffffffffffffffffffffffffffffffffffffffffffe7e6410f26f519c538ea2070a6c",
                        "gasLimit" : "0x2c138ff5",
                        "gasPrice" : "0x01",
                        "nonce" : "0x00",
                        "r" : "0x12d14f817ac5eb6503dd2a4eb2df836837f80b6ae4ffc4f840483094ec6ba372",
                        "s" : "0x1c857cf245da039cc1a41f8870ba9a9b0be7eabb5889542b16c411f7781cb49b",
                        "to" : "0x095e7baea6a6c7c4c2dfeb977efac326af552d87",
                        "v" : "0x1b",
                        "value" : "0x0ca044ee"
                    }
                ],
                "uncleHeaders" : [
                ]
            }
        ],
        "genesisBlockHeader" : {
            "bloom" : "0x00000000000000000000000000000000000000000000000000000000000000000000000000000000000000000000000000000000000000000000000000000000000000000000000000000000000000000000000000000000000000000000000000000000000000000000000000000000000000000000000000000000000000000000000000000000000000000000000000000000000000000000000000000000000000000000000000000000000000000000000000000000000000000000000000000000000000000000000000000000000000000000000000000000000000000000000000000000000000000000000000000000000000000000000000000000",
            "coinbase" : "0x945304eb96065b2a98b57a48a06ae28d285a71b5",
            "difficulty" : "0x020000",
            "extraData" : "0x42",
            "gasLimit" : "0x7fffffffffffffff",
            "gasUsed" : "0x00",
            "hash" : "0x0691d2021bddbffd66ff7fd8db4cf9286dbe255d2f77b6cd5baf1465e67cc382",
            "mixHash" : "0x56e81f171bcc55a6ff8345e692c0f86e5b48e01b996cadc001622fb5e363b421",
            "nonce" : "0x0102030405060708",
            "number" : "0x00",
            "parentHash" : "0x0000000000000000000000000000000000000000000000000000000000000000",
            "receiptTrie" : "0x56e81f171bcc55a6ff8345e692c0f86e5b48e01b996cadc001622fb5e363b421",
            "stateRoot" : "0x4cf4fcb0d44641db5cbbf8f741539da4e0aa9e943185111a69016c5b61267bac",
            "timestamp" : "0x03b6",
            "transactionsTrie" : "0x56e81f171bcc55a6ff8345e692c0f86e5b48e01b996cadc001622fb5e363b421",
            "uncleHash" : "0x1dcc4de8dec75d7aab85b567b6ccd41ad312451b948a7413f0a142fd40d49347"
        },
        "genesisRLP" : "0xf901fff901faa00000000000000000000000000000000000000000000000000000000000000000a01dcc4de8dec75d7aab85b567b6ccd41ad312451b948a7413f0a142fd40d4934794945304eb96065b2a98b57a48a06ae28d285a71b5a04cf4fcb0d44641db5cbbf8f741539da4e0aa9e943185111a69016c5b61267baca056e81f171bcc55a6ff8345e692c0f86e5b48e01b996cadc001622fb5e363b421a056e81f171bcc55a6ff8345e692c0f86e5b48e01b996cadc001622fb5e363b421b90100000000000000000000000000000000000000000000000000000000000000000000000000000000000000000000000000000000000000000000000000000000000000000000000000000000000000000000000000000000000000000000000000000000000000000000000000000000000000000000000000000000000000000000000000000000000000000000000000000000000000000000000000000000000000000000000000000000000000000000000000000000000000000000000000000000000000000000000000000000000000000000000000000000000000000000000000000000000000000000000000000000000000000000000000000000008302000080887fffffffffffffff808203b642a056e81f171bcc55a6ff8345e692c0f86e5b48e01b996cadc001622fb5e363b421880102030405060708c0c0",
        "lastblockhash" : "0xd8efdfd3d6f7e4f9e1a50117df5c634f54bb812f721511c4b799d3bc8ba38499",
        "network" : "Homestead",
        "postState" : {
            "0x00000000427fffffffffffffffffffffffffffff" : {
                "balance" : "0x0ca044ee",
                "code" : "",
                "nonce" : "0x00",
                "storage" : {
                }
            },
            "0x945304eb96065b2a98b57a48a06ae28d285a71b5" : {
                "balance" : "0x4563918244f43d25",
                "code" : "0x6000355415600957005b60203560003555",
                "nonce" : "0x00",
                "storage" : {
                }
            },
            "0xa94f5374fce5edbc8e2a8697c15331677e6ebf0b" : {
                "balance" : "0x0de0b6b39ac37e1b",
                "code" : "",
                "nonce" : "0x01",
                "storage" : {
                }
            }
        },
        "pre" : {
            "0x095e7baea6a6c7c4c2dfeb977efac326af552d87" : {
                "balance" : "0x00",
                "code" : "0x7f000000000000000000000000945304eb96065b2a98b57a48a06ae28d285a71b57f000000000000000000000000ffffffffffffffffffffffffffffffffffffffff7ffffffffffffffffffffffffffffffffffffffffffffffffffffffffffffffffe7f000000000000000000000000945304eb96065b2a98b57a48a06ae28d285a71b57f00000000000000000000000100000000000000000000000000000000000000006f427ffffffffffffffffffffffffffffffffffffffffffffffffffffffffffffffffe7e6410f26f519c538ea2070a6c60005155",
                "nonce" : "0x00",
                "storage" : {
                }
            },
            "0x945304eb96065b2a98b57a48a06ae28d285a71b5" : {
                "balance" : "0x2e",
                "code" : "0x6000355415600957005b60203560003555",
                "nonce" : "0x00",
                "storage" : {
                }
            },
            "0xa94f5374fce5edbc8e2a8697c15331677e6ebf0b" : {
                "balance" : "0x0de0b6b3a7640000",
                "code" : "",
                "nonce" : "0x00",
                "storage" : {
                }
            }
        }
    }
}