{
    "randomStatetest436_d0g0v0_Byzantium" : {
        "_info" : {
            "comment" : "",
            "filledwith" : "cpp-1.3.0+commit.4e101574.Linux.g++",
            "lllcversion" : "Version: 0.4.18-develop.2017.10.11+commit.81f9f86c.Linux.g++",
            "source" : "src/BlockchainTestsFiller/GeneralStateTests/stRandom2/randomStatetest436_d0g0v0Filler.json",
            "sourceHash" : "9591b7a6a8a6f2906b433f7949d61df98c3901e474267aeccfc94b7463fbfd01"
        },
        "blocks" : [
            {
                "blockHeader" : {
                    "bloom" : "0x00000000000000000000000000000000000000000000000000000000000000000000000000000000000000000000000000000000000000000000000000000000000000000000000000000000000000000000000000000000000000000000000000000000000000000000000000000000000000000000000000000000000000000000000000000000000000000000000000000000000000000000000000000000000000000000000000000000000000000000000000000000000000000000000000000000000000000000000000000000000000000000000000000000000000000000000000000000000000000000000000000000000000000000000000000000",
                    "coinbase" : "0x945304eb96065b2a98b57a48a06ae28d285a71b5",
                    "difficulty" : "0x020000",
                    "extraData" : "",
                    "gasLimit" : "0x7fffffffffffffff",
                    "gasUsed" : "0xbde6",
                    "hash" : "0x55aa974b27eeabb036c7472ebafe69b6b5d32e8734a3b572faa37e49618f4b0b",
                    "mixHash" : "0xf0df9486eab8ececa8da386384d97c098df6b033d2505867e55fad434b400731",
                    "nonce" : "0x65d58afe060ec137",
                    "number" : "0x01",
                    "parentHash" : "0x634f0c92b14aa39d22fcfab6e852154e4f62f92d30c49071ba91bc9f60d42dce",
                    "receiptTrie" : "0x2eab0df861c791031a1cefdfc6346620eb557ac75b919c32b107714ad459f2fe",
                    "stateRoot" : "0x64b59921147dadcd8aecab98bcae59e7cbbc5b2038581d0286dc2181e9fe0ac9",
                    "timestamp" : "0x03e8",
                    "transactionsTrie" : "0x71dff6284dbf2e0da1930b6b5a32a58f5501456451a0c3f94bf8d4d6cb160f23",
                    "uncleHash" : "0x1dcc4de8dec75d7aab85b567b6ccd41ad312451b948a7413f0a142fd40d49347"
                },
                "rlp" : "0xf90303f901fca0634f0c92b14aa39d22fcfab6e852154e4f62f92d30c49071ba91bc9f60d42dcea01dcc4de8dec75d7aab85b567b6ccd41ad312451b948a7413f0a142fd40d4934794945304eb96065b2a98b57a48a06ae28d285a71b5a064b59921147dadcd8aecab98bcae59e7cbbc5b2038581d0286dc2181e9fe0ac9a071dff6284dbf2e0da1930b6b5a32a58f5501456451a0c3f94bf8d4d6cb160f23a02eab0df861c791031a1cefdfc6346620eb557ac75b919c32b107714ad459f2feb90100000000000000000000000000000000000000000000000000000000000000000000000000000000000000000000000000000000000000000000000000000000000000000000000000000000000000000000000000000000000000000000000000000000000000000000000000000000000000000000000000000000000000000000000000000000000000000000000000000000000000000000000000000000000000000000000000000000000000000000000000000000000000000000000000000000000000000000000000000000000000000000000000000000000000000000000000000000000000000000000000000000000000000000000000000000008302000001887fffffffffffffff82bde68203e880a0f0df9486eab8ececa8da386384d97c098df6b033d2505867e55fad434b4007318865d58afe060ec137f90100f8fe800184458f872c94095e7baea6a6c7c4c2dfeb977efac326af552d878457454f1eb898367f00000000000000000000000000000000000000000000000000000000000000017fffffffffffffffffffffffffffffffffffffffffffffffffffffffffffffffff417fffffffffffffffffffffffffffffffffffffffffffffffffffffffffffffffff7f000000000000000000000000945304eb96065b2a98b57a48a06ae28d285a71b5456f8108067a345b7a76a20a835a0a0b6c101ca039f166799340d1f34dd1215ca88555fa9184eb20e242c0bb7608e10edaaaaf0da035acb6060535485745c4209e73e60851983af289d9525fa77d8411862e401cd8c0",
                "transactions" : [
                    {
                        "data" : "0x367f00000000000000000000000000000000000000000000000000000000000000017fffffffffffffffffffffffffffffffffffffffffffffffffffffffffffffffff417fffffffffffffffffffffffffffffffffffffffffffffffffffffffffffffffff7f000000000000000000000000945304eb96065b2a98b57a48a06ae28d285a71b5456f8108067a345b7a76a20a835a0a0b6c10",
                        "gasLimit" : "0x458f872c",
                        "gasPrice" : "0x01",
                        "nonce" : "0x00",
                        "r" : "0x39f166799340d1f34dd1215ca88555fa9184eb20e242c0bb7608e10edaaaaf0d",
                        "s" : "0x35acb6060535485745c4209e73e60851983af289d9525fa77d8411862e401cd8",
                        "to" : "0x095e7baea6a6c7c4c2dfeb977efac326af552d87",
                        "v" : "0x1c",
                        "value" : "0x57454f1e"
                    }
                ],
                "uncleHeaders" : [
                ]
            }
        ],
        "genesisBlockHeader" : {
            "bloom" : "0x00000000000000000000000000000000000000000000000000000000000000000000000000000000000000000000000000000000000000000000000000000000000000000000000000000000000000000000000000000000000000000000000000000000000000000000000000000000000000000000000000000000000000000000000000000000000000000000000000000000000000000000000000000000000000000000000000000000000000000000000000000000000000000000000000000000000000000000000000000000000000000000000000000000000000000000000000000000000000000000000000000000000000000000000000000000",
            "coinbase" : "0x945304eb96065b2a98b57a48a06ae28d285a71b5",
            "difficulty" : "0x020000",
            "extraData" : "0x42",
            "gasLimit" : "0x7fffffffffffffff",
            "gasUsed" : "0x00",
            "hash" : "0x634f0c92b14aa39d22fcfab6e852154e4f62f92d30c49071ba91bc9f60d42dce",
            "mixHash" : "0x56e81f171bcc55a6ff8345e692c0f86e5b48e01b996cadc001622fb5e363b421",
            "nonce" : "0x0102030405060708",
            "number" : "0x00",
            "parentHash" : "0x0000000000000000000000000000000000000000000000000000000000000000",
            "receiptTrie" : "0x56e81f171bcc55a6ff8345e692c0f86e5b48e01b996cadc001622fb5e363b421",
            "stateRoot" : "0xeba6efdde3a6d3a9de3c0ef8500e07682cad60e69da9f3322dbf72d11cf07340",
            "timestamp" : "0x03b6",
            "transactionsTrie" : "0x56e81f171bcc55a6ff8345e692c0f86e5b48e01b996cadc001622fb5e363b421",
            "uncleHash" : "0x1dcc4de8dec75d7aab85b567b6ccd41ad312451b948a7413f0a142fd40d49347"
        },
        "genesisRLP" : "0xf901fff901faa00000000000000000000000000000000000000000000000000000000000000000a01dcc4de8dec75d7aab85b567b6ccd41ad312451b948a7413f0a142fd40d4934794945304eb96065b2a98b57a48a06ae28d285a71b5a0eba6efdde3a6d3a9de3c0ef8500e07682cad60e69da9f3322dbf72d11cf07340a056e81f171bcc55a6ff8345e692c0f86e5b48e01b996cadc001622fb5e363b421a056e81f171bcc55a6ff8345e692c0f86e5b48e01b996cadc001622fb5e363b421b90100000000000000000000000000000000000000000000000000000000000000000000000000000000000000000000000000000000000000000000000000000000000000000000000000000000000000000000000000000000000000000000000000000000000000000000000000000000000000000000000000000000000000000000000000000000000000000000000000000000000000000000000000000000000000000000000000000000000000000000000000000000000000000000000000000000000000000000000000000000000000000000000000000000000000000000000000000000000000000000000000000000000000000000000000000000008302000080887fffffffffffffff808203b642a056e81f171bcc55a6ff8345e692c0f86e5b48e01b996cadc001622fb5e363b421880102030405060708c0c0",
        "lastblockhash" : "0x55aa974b27eeabb036c7472ebafe69b6b5d32e8734a3b572faa37e49618f4b0b",
        "network" : "Byzantium",
        "postState" : {
            "0x095e7baea6a6c7c4c2dfeb977efac326af552d87" : {
                "balance" : "0x57454f1e",
                "code" : "0x367f00000000000000000000000000000000000000000000000000000000000000017fffffffffffffffffffffffffffffffffffffffffffffffffffffffffffffffff417fffffffffffffffffffffffffffffffffffffffffffffffffffffffffffffffff7f000000000000000000000000945304eb96065b2a98b57a48a06ae28d285a71b5456f8108067a345b7a76a20a835a0a0b6c1060005155",
                "nonce" : "0x00",
                "storage" : {
                    "0x00" : "0x8108067a345b7a76a20a835a0a0b6c10"
                }
            },
            "0x945304eb96065b2a98b57a48a06ae28d285a71b5" : {
                "balance" : "0x29a2241af62cbe14",
                "code" : "0x6000355415600957005b60203560003555",
                "nonce" : "0x00",
                "storage" : {
                }
            },
            "0xa94f5374fce5edbc8e2a8697c15331677e6ebf0b" : {
                "balance" : "0x0de0b6b3501df2fc",
                "code" : "",
                "nonce" : "0x01",
                "storage" : {
                }
            }
        },
        "pre" : {
            "0x095e7baea6a6c7c4c2dfeb977efac326af552d87" : {
                "balance" : "0x00",
                "code" : "0x367f00000000000000000000000000000000000000000000000000000000000000017fffffffffffffffffffffffffffffffffffffffffffffffffffffffffffffffff417fffffffffffffffffffffffffffffffffffffffffffffffffffffffffffffffff7f000000000000000000000000945304eb96065b2a98b57a48a06ae28d285a71b5456f8108067a345b7a76a20a835a0a0b6c1060005155",
                "nonce" : "0x00",
                "storage" : {
                }
            },
            "0x945304eb96065b2a98b57a48a06ae28d285a71b5" : {
                "balance" : "0x2e",
                "code" : "0x6000355415600957005b60203560003555",
                "nonce" : "0x00",
                "storage" : {
                }
            },
            "0xa94f5374fce5edbc8e2a8697c15331677e6ebf0b" : {
                "balance" : "0x0de0b6b3a7640000",
                "code" : "",
                "nonce" : "0x00",
                "storage" : {
                }
            }
        }
    },
    "randomStatetest436_d0g0v0_EIP150" : {
        "_info" : {
            "comment" : "",
            "filledwith" : "cpp-1.3.0+commit.4e101574.Linux.g++",
            "lllcversion" : "Version: 0.4.18-develop.2017.10.11+commit.81f9f86c.Linux.g++",
            "source" : "src/BlockchainTestsFiller/GeneralStateTests/stRandom2/randomStatetest436_d0g0v0Filler.json",
            "sourceHash" : "9591b7a6a8a6f2906b433f7949d61df98c3901e474267aeccfc94b7463fbfd01"
        },
        "blocks" : [
            {
                "blockHeader" : {
                    "bloom" : "0x00000000000000000000000000000000000000000000000000000000000000000000000000000000000000000000000000000000000000000000000000000000000000000000000000000000000000000000000000000000000000000000000000000000000000000000000000000000000000000000000000000000000000000000000000000000000000000000000000000000000000000000000000000000000000000000000000000000000000000000000000000000000000000000000000000000000000000000000000000000000000000000000000000000000000000000000000000000000000000000000000000000000000000000000000000000",
                    "coinbase" : "0x945304eb96065b2a98b57a48a06ae28d285a71b5",
                    "difficulty" : "0x020000",
                    "extraData" : "",
                    "gasLimit" : "0x7fffffffffffffff",
                    "gasUsed" : "0xbde6",
                    "hash" : "0x25d626ca47715bc525097417fe5d7775cd7d4b39687a5cfa034d29536a934e8f",
                    "mixHash" : "0xd2f7850ff01b3fdf503b2839f1af8490d042b863a5149a984784715f34bc1861",
                    "nonce" : "0x88ce95c2b1bb2272",
                    "number" : "0x01",
                    "parentHash" : "0x634f0c92b14aa39d22fcfab6e852154e4f62f92d30c49071ba91bc9f60d42dce",
                    "receiptTrie" : "0x88d82fd6ea42ebafe81f9c3889d4ebfd5ed6967a45dd715dcddac8559645ac5a",
                    "stateRoot" : "0xc773ac87adf544806598c9fe2b6a81d77a571eec53c18c70648f11bd371354b7",
                    "timestamp" : "0x03e8",
                    "transactionsTrie" : "0x71dff6284dbf2e0da1930b6b5a32a58f5501456451a0c3f94bf8d4d6cb160f23",
                    "uncleHash" : "0x1dcc4de8dec75d7aab85b567b6ccd41ad312451b948a7413f0a142fd40d49347"
                },
                "rlp" : "0xf90303f901fca0634f0c92b14aa39d22fcfab6e852154e4f62f92d30c49071ba91bc9f60d42dcea01dcc4de8dec75d7aab85b567b6ccd41ad312451b948a7413f0a142fd40d4934794945304eb96065b2a98b57a48a06ae28d285a71b5a0c773ac87adf544806598c9fe2b6a81d77a571eec53c18c70648f11bd371354b7a071dff6284dbf2e0da1930b6b5a32a58f5501456451a0c3f94bf8d4d6cb160f23a088d82fd6ea42ebafe81f9c3889d4ebfd5ed6967a45dd715dcddac8559645ac5ab90100000000000000000000000000000000000000000000000000000000000000000000000000000000000000000000000000000000000000000000000000000000000000000000000000000000000000000000000000000000000000000000000000000000000000000000000000000000000000000000000000000000000000000000000000000000000000000000000000000000000000000000000000000000000000000000000000000000000000000000000000000000000000000000000000000000000000000000000000000000000000000000000000000000000000000000000000000000000000000000000000000000000000000000000000000000008302000001887fffffffffffffff82bde68203e880a0d2f7850ff01b3fdf503b2839f1af8490d042b863a5149a984784715f34bc18618888ce95c2b1bb2272f90100f8fe800184458f872c94095e7baea6a6c7c4c2dfeb977efac326af552d878457454f1eb898367f00000000000000000000000000000000000000000000000000000000000000017fffffffffffffffffffffffffffffffffffffffffffffffffffffffffffffffff417fffffffffffffffffffffffffffffffffffffffffffffffffffffffffffffffff7f000000000000000000000000945304eb96065b2a98b57a48a06ae28d285a71b5456f8108067a345b7a76a20a835a0a0b6c101ca039f166799340d1f34dd1215ca88555fa9184eb20e242c0bb7608e10edaaaaf0da035acb6060535485745c4209e73e60851983af289d9525fa77d8411862e401cd8c0",
                "transactions" : [
                    {
                        "data" : "0x367f00000000000000000000000000000000000000000000000000000000000000017fffffffffffffffffffffffffffffffffffffffffffffffffffffffffffffffff417fffffffffffffffffffffffffffffffffffffffffffffffffffffffffffffffff7f000000000000000000000000945304eb96065b2a98b57a48a06ae28d285a71b5456f8108067a345b7a76a20a835a0a0b6c10",
                        "gasLimit" : "0x458f872c",
                        "gasPrice" : "0x01",
                        "nonce" : "0x00",
                        "r" : "0x39f166799340d1f34dd1215ca88555fa9184eb20e242c0bb7608e10edaaaaf0d",
                        "s" : "0x35acb6060535485745c4209e73e60851983af289d9525fa77d8411862e401cd8",
                        "to" : "0x095e7baea6a6c7c4c2dfeb977efac326af552d87",
                        "v" : "0x1c",
                        "value" : "0x57454f1e"
                    }
                ],
                "uncleHeaders" : [
                ]
            }
        ],
        "genesisBlockHeader" : {
            "bloom" : "0x00000000000000000000000000000000000000000000000000000000000000000000000000000000000000000000000000000000000000000000000000000000000000000000000000000000000000000000000000000000000000000000000000000000000000000000000000000000000000000000000000000000000000000000000000000000000000000000000000000000000000000000000000000000000000000000000000000000000000000000000000000000000000000000000000000000000000000000000000000000000000000000000000000000000000000000000000000000000000000000000000000000000000000000000000000000",
            "coinbase" : "0x945304eb96065b2a98b57a48a06ae28d285a71b5",
            "difficulty" : "0x020000",
            "extraData" : "0x42",
            "gasLimit" : "0x7fffffffffffffff",
            "gasUsed" : "0x00",
            "hash" : "0x634f0c92b14aa39d22fcfab6e852154e4f62f92d30c49071ba91bc9f60d42dce",
            "mixHash" : "0x56e81f171bcc55a6ff8345e692c0f86e5b48e01b996cadc001622fb5e363b421",
            "nonce" : "0x0102030405060708",
            "number" : "0x00",
            "parentHash" : "0x0000000000000000000000000000000000000000000000000000000000000000",
            "receiptTrie" : "0x56e81f171bcc55a6ff8345e692c0f86e5b48e01b996cadc001622fb5e363b421",
            "stateRoot" : "0xeba6efdde3a6d3a9de3c0ef8500e07682cad60e69da9f3322dbf72d11cf07340",
            "timestamp" : "0x03b6",
            "transactionsTrie" : "0x56e81f171bcc55a6ff8345e692c0f86e5b48e01b996cadc001622fb5e363b421",
            "uncleHash" : "0x1dcc4de8dec75d7aab85b567b6ccd41ad312451b948a7413f0a142fd40d49347"
        },
        "genesisRLP" : "0xf901fff901faa00000000000000000000000000000000000000000000000000000000000000000a01dcc4de8dec75d7aab85b567b6ccd41ad312451b948a7413f0a142fd40d4934794945304eb96065b2a98b57a48a06ae28d285a71b5a0eba6efdde3a6d3a9de3c0ef8500e07682cad60e69da9f3322dbf72d11cf07340a056e81f171bcc55a6ff8345e692c0f86e5b48e01b996cadc001622fb5e363b421a056e81f171bcc55a6ff8345e692c0f86e5b48e01b996cadc001622fb5e363b421b90100000000000000000000000000000000000000000000000000000000000000000000000000000000000000000000000000000000000000000000000000000000000000000000000000000000000000000000000000000000000000000000000000000000000000000000000000000000000000000000000000000000000000000000000000000000000000000000000000000000000000000000000000000000000000000000000000000000000000000000000000000000000000000000000000000000000000000000000000000000000000000000000000000000000000000000000000000000000000000000000000000000000000000000000000000000008302000080887fffffffffffffff808203b642a056e81f171bcc55a6ff8345e692c0f86e5b48e01b996cadc001622fb5e363b421880102030405060708c0c0",
        "lastblockhash" : "0x25d626ca47715bc525097417fe5d7775cd7d4b39687a5cfa034d29536a934e8f",
        "network" : "EIP150",
        "postState" : {
            "0x095e7baea6a6c7c4c2dfeb977efac326af552d87" : {
                "balance" : "0x57454f1e",
                "code" : "0x367f00000000000000000000000000000000000000000000000000000000000000017fffffffffffffffffffffffffffffffffffffffffffffffffffffffffffffffff417fffffffffffffffffffffffffffffffffffffffffffffffffffffffffffffffff7f000000000000000000000000945304eb96065b2a98b57a48a06ae28d285a71b5456f8108067a345b7a76a20a835a0a0b6c1060005155",
                "nonce" : "0x00",
                "storage" : {
                    "0x00" : "0x8108067a345b7a76a20a835a0a0b6c10"
                }
            },
            "0x945304eb96065b2a98b57a48a06ae28d285a71b5" : {
                "balance" : "0x4563918244f4be14",
                "code" : "0x6000355415600957005b60203560003555",
                "nonce" : "0x00",
                "storage" : {
                }
            },
            "0xa94f5374fce5edbc8e2a8697c15331677e6ebf0b" : {
                "balance" : "0x0de0b6b3501df2fc",
                "code" : "",
                "nonce" : "0x01",
                "storage" : {
                }
            }
        },
        "pre" : {
            "0x095e7baea6a6c7c4c2dfeb977efac326af552d87" : {
                "balance" : "0x00",
                "code" : "0x367f00000000000000000000000000000000000000000000000000000000000000017fffffffffffffffffffffffffffffffffffffffffffffffffffffffffffffffff417fffffffffffffffffffffffffffffffffffffffffffffffffffffffffffffffff7f000000000000000000000000945304eb96065b2a98b57a48a06ae28d285a71b5456f8108067a345b7a76a20a835a0a0b6c1060005155",
                "nonce" : "0x00",
                "storage" : {
                }
            },
            "0x945304eb96065b2a98b57a48a06ae28d285a71b5" : {
                "balance" : "0x2e",
                "code" : "0x6000355415600957005b60203560003555",
                "nonce" : "0x00",
                "storage" : {
                }
            },
            "0xa94f5374fce5edbc8e2a8697c15331677e6ebf0b" : {
                "balance" : "0x0de0b6b3a7640000",
                "code" : "",
                "nonce" : "0x00",
                "storage" : {
                }
            }
        }
    },
    "randomStatetest436_d0g0v0_EIP158" : {
        "_info" : {
            "comment" : "",
            "filledwith" : "cpp-1.3.0+commit.4e101574.Linux.g++",
            "lllcversion" : "Version: 0.4.18-develop.2017.10.11+commit.81f9f86c.Linux.g++",
            "source" : "src/BlockchainTestsFiller/GeneralStateTests/stRandom2/randomStatetest436_d0g0v0Filler.json",
            "sourceHash" : "9591b7a6a8a6f2906b433f7949d61df98c3901e474267aeccfc94b7463fbfd01"
        },
        "blocks" : [
            {
                "blockHeader" : {
                    "bloom" : "0x00000000000000000000000000000000000000000000000000000000000000000000000000000000000000000000000000000000000000000000000000000000000000000000000000000000000000000000000000000000000000000000000000000000000000000000000000000000000000000000000000000000000000000000000000000000000000000000000000000000000000000000000000000000000000000000000000000000000000000000000000000000000000000000000000000000000000000000000000000000000000000000000000000000000000000000000000000000000000000000000000000000000000000000000000000000",
                    "coinbase" : "0x945304eb96065b2a98b57a48a06ae28d285a71b5",
                    "difficulty" : "0x020000",
                    "extraData" : "",
                    "gasLimit" : "0x7fffffffffffffff",
                    "gasUsed" : "0xbde6",
                    "hash" : "0x3bbc48a4aeac2a96d1825fed11166c9a920fcf99ccf94dbc1c8fc453d11d0555",
                    "mixHash" : "0xc175a04c6da510284ce803ced766a4e0a885d7310645035b753a8266981bfd65",
                    "nonce" : "0x9a980c663a942d75",
                    "number" : "0x01",
                    "parentHash" : "0x634f0c92b14aa39d22fcfab6e852154e4f62f92d30c49071ba91bc9f60d42dce",
                    "receiptTrie" : "0x88d82fd6ea42ebafe81f9c3889d4ebfd5ed6967a45dd715dcddac8559645ac5a",
                    "stateRoot" : "0xc773ac87adf544806598c9fe2b6a81d77a571eec53c18c70648f11bd371354b7",
                    "timestamp" : "0x03e8",
                    "transactionsTrie" : "0x71dff6284dbf2e0da1930b6b5a32a58f5501456451a0c3f94bf8d4d6cb160f23",
                    "uncleHash" : "0x1dcc4de8dec75d7aab85b567b6ccd41ad312451b948a7413f0a142fd40d49347"
                },
                "rlp" : "0xf90303f901fca0634f0c92b14aa39d22fcfab6e852154e4f62f92d30c49071ba91bc9f60d42dcea01dcc4de8dec75d7aab85b567b6ccd41ad312451b948a7413f0a142fd40d4934794945304eb96065b2a98b57a48a06ae28d285a71b5a0c773ac87adf544806598c9fe2b6a81d77a571eec53c18c70648f11bd371354b7a071dff6284dbf2e0da1930b6b5a32a58f5501456451a0c3f94bf8d4d6cb160f23a088d82fd6ea42ebafe81f9c3889d4ebfd5ed6967a45dd715dcddac8559645ac5ab90100000000000000000000000000000000000000000000000000000000000000000000000000000000000000000000000000000000000000000000000000000000000000000000000000000000000000000000000000000000000000000000000000000000000000000000000000000000000000000000000000000000000000000000000000000000000000000000000000000000000000000000000000000000000000000000000000000000000000000000000000000000000000000000000000000000000000000000000000000000000000000000000000000000000000000000000000000000000000000000000000000000000000000000000000000000008302000001887fffffffffffffff82bde68203e880a0c175a04c6da510284ce803ced766a4e0a885d7310645035b753a8266981bfd65889a980c663a942d75f90100f8fe800184458f872c94095e7baea6a6c7c4c2dfeb977efac326af552d878457454f1eb898367f00000000000000000000000000000000000000000000000000000000000000017fffffffffffffffffffffffffffffffffffffffffffffffffffffffffffffffff417fffffffffffffffffffffffffffffffffffffffffffffffffffffffffffffffff7f000000000000000000000000945304eb96065b2a98b57a48a06ae28d285a71b5456f8108067a345b7a76a20a835a0a0b6c101ca039f166799340d1f34dd1215ca88555fa9184eb20e242c0bb7608e10edaaaaf0da035acb6060535485745c4209e73e60851983af289d9525fa77d8411862e401cd8c0",
                "transactions" : [
                    {
                        "data" : "0x367f00000000000000000000000000000000000000000000000000000000000000017fffffffffffffffffffffffffffffffffffffffffffffffffffffffffffffffff417fffffffffffffffffffffffffffffffffffffffffffffffffffffffffffffffff7f000000000000000000000000945304eb96065b2a98b57a48a06ae28d285a71b5456f8108067a345b7a76a20a835a0a0b6c10",
                        "gasLimit" : "0x458f872c",
                        "gasPrice" : "0x01",
                        "nonce" : "0x00",
                        "r" : "0x39f166799340d1f34dd1215ca88555fa9184eb20e242c0bb7608e10edaaaaf0d",
                        "s" : "0x35acb6060535485745c4209e73e60851983af289d9525fa77d8411862e401cd8",
                        "to" : "0x095e7baea6a6c7c4c2dfeb977efac326af552d87",
                        "v" : "0x1c",
                        "value" : "0x57454f1e"
                    }
                ],
                "uncleHeaders" : [
                ]
            }
        ],
        "genesisBlockHeader" : {
            "bloom" : "0x00000000000000000000000000000000000000000000000000000000000000000000000000000000000000000000000000000000000000000000000000000000000000000000000000000000000000000000000000000000000000000000000000000000000000000000000000000000000000000000000000000000000000000000000000000000000000000000000000000000000000000000000000000000000000000000000000000000000000000000000000000000000000000000000000000000000000000000000000000000000000000000000000000000000000000000000000000000000000000000000000000000000000000000000000000000",
            "coinbase" : "0x945304eb96065b2a98b57a48a06ae28d285a71b5",
            "difficulty" : "0x020000",
            "extraData" : "0x42",
            "gasLimit" : "0x7fffffffffffffff",
            "gasUsed" : "0x00",
            "hash" : "0x634f0c92b14aa39d22fcfab6e852154e4f62f92d30c49071ba91bc9f60d42dce",
            "mixHash" : "0x56e81f171bcc55a6ff8345e692c0f86e5b48e01b996cadc001622fb5e363b421",
            "nonce" : "0x0102030405060708",
            "number" : "0x00",
            "parentHash" : "0x0000000000000000000000000000000000000000000000000000000000000000",
            "receiptTrie" : "0x56e81f171bcc55a6ff8345e692c0f86e5b48e01b996cadc001622fb5e363b421",
            "stateRoot" : "0xeba6efdde3a6d3a9de3c0ef8500e07682cad60e69da9f3322dbf72d11cf07340",
            "timestamp" : "0x03b6",
            "transactionsTrie" : "0x56e81f171bcc55a6ff8345e692c0f86e5b48e01b996cadc001622fb5e363b421",
            "uncleHash" : "0x1dcc4de8dec75d7aab85b567b6ccd41ad312451b948a7413f0a142fd40d49347"
        },
        "genesisRLP" : "0xf901fff901faa00000000000000000000000000000000000000000000000000000000000000000a01dcc4de8dec75d7aab85b567b6ccd41ad312451b948a7413f0a142fd40d4934794945304eb96065b2a98b57a48a06ae28d285a71b5a0eba6efdde3a6d3a9de3c0ef8500e07682cad60e69da9f3322dbf72d11cf07340a056e81f171bcc55a6ff8345e692c0f86e5b48e01b996cadc001622fb5e363b421a056e81f171bcc55a6ff8345e692c0f86e5b48e01b996cadc001622fb5e363b421b90100000000000000000000000000000000000000000000000000000000000000000000000000000000000000000000000000000000000000000000000000000000000000000000000000000000000000000000000000000000000000000000000000000000000000000000000000000000000000000000000000000000000000000000000000000000000000000000000000000000000000000000000000000000000000000000000000000000000000000000000000000000000000000000000000000000000000000000000000000000000000000000000000000000000000000000000000000000000000000000000000000000000000000000000000000000008302000080887fffffffffffffff808203b642a056e81f171bcc55a6ff8345e692c0f86e5b48e01b996cadc001622fb5e363b421880102030405060708c0c0",
        "lastblockhash" : "0x3bbc48a4aeac2a96d1825fed11166c9a920fcf99ccf94dbc1c8fc453d11d0555",
        "network" : "EIP158",
        "postState" : {
            "0x095e7baea6a6c7c4c2dfeb977efac326af552d87" : {
                "balance" : "0x57454f1e",
                "code" : "0x367f00000000000000000000000000000000000000000000000000000000000000017fffffffffffffffffffffffffffffffffffffffffffffffffffffffffffffffff417fffffffffffffffffffffffffffffffffffffffffffffffffffffffffffffffff7f000000000000000000000000945304eb96065b2a98b57a48a06ae28d285a71b5456f8108067a345b7a76a20a835a0a0b6c1060005155",
                "nonce" : "0x00",
                "storage" : {
                    "0x00" : "0x8108067a345b7a76a20a835a0a0b6c10"
                }
            },
            "0x945304eb96065b2a98b57a48a06ae28d285a71b5" : {
                "balance" : "0x4563918244f4be14",
                "code" : "0x6000355415600957005b60203560003555",
                "nonce" : "0x00",
                "storage" : {
                }
            },
            "0xa94f5374fce5edbc8e2a8697c15331677e6ebf0b" : {
                "balance" : "0x0de0b6b3501df2fc",
                "code" : "",
                "nonce" : "0x01",
                "storage" : {
                }
            }
        },
        "pre" : {
            "0x095e7baea6a6c7c4c2dfeb977efac326af552d87" : {
                "balance" : "0x00",
                "code" : "0x367f00000000000000000000000000000000000000000000000000000000000000017fffffffffffffffffffffffffffffffffffffffffffffffffffffffffffffffff417fffffffffffffffffffffffffffffffffffffffffffffffffffffffffffffffff7f000000000000000000000000945304eb96065b2a98b57a48a06ae28d285a71b5456f8108067a345b7a76a20a835a0a0b6c1060005155",
                "nonce" : "0x00",
                "storage" : {
                }
            },
            "0x945304eb96065b2a98b57a48a06ae28d285a71b5" : {
                "balance" : "0x2e",
                "code" : "0x6000355415600957005b60203560003555",
                "nonce" : "0x00",
                "storage" : {
                }
            },
            "0xa94f5374fce5edbc8e2a8697c15331677e6ebf0b" : {
                "balance" : "0x0de0b6b3a7640000",
                "code" : "",
                "nonce" : "0x00",
                "storage" : {
                }
            }
        }
    },
    "randomStatetest436_d0g0v0_Frontier" : {
        "_info" : {
            "comment" : "",
            "filledwith" : "cpp-1.3.0+commit.4e101574.Linux.g++",
            "lllcversion" : "Version: 0.4.18-develop.2017.10.11+commit.81f9f86c.Linux.g++",
            "source" : "src/BlockchainTestsFiller/GeneralStateTests/stRandom2/randomStatetest436_d0g0v0Filler.json",
            "sourceHash" : "9591b7a6a8a6f2906b433f7949d61df98c3901e474267aeccfc94b7463fbfd01"
        },
        "blocks" : [
            {
                "blockHeader" : {
                    "bloom" : "0x00000000000000000000000000000000000000000000000000000000000000000000000000000000000000000000000000000000000000000000000000000000000000000000000000000000000000000000000000000000000000000000000000000000000000000000000000000000000000000000000000000000000000000000000000000000000000000000000000000000000000000000000000000000000000000000000000000000000000000000000000000000000000000000000000000000000000000000000000000000000000000000000000000000000000000000000000000000000000000000000000000000000000000000000000000000",
                    "coinbase" : "0x945304eb96065b2a98b57a48a06ae28d285a71b5",
                    "difficulty" : "0x020000",
                    "extraData" : "",
                    "gasLimit" : "0x7fffffffffffffff",
                    "gasUsed" : "0xbde6",
                    "hash" : "0x09a4afb06bc15b8487b6229d676268e35b23b728c745ad5d113b04eb1bac56fa",
                    "mixHash" : "0x267c92339e8cfeca7d45442ae348eddb1deb2b004eb95e278976632635f50bc5",
                    "nonce" : "0xd25d731f4fb633a5",
                    "number" : "0x01",
                    "parentHash" : "0x634f0c92b14aa39d22fcfab6e852154e4f62f92d30c49071ba91bc9f60d42dce",
                    "receiptTrie" : "0x88d82fd6ea42ebafe81f9c3889d4ebfd5ed6967a45dd715dcddac8559645ac5a",
                    "stateRoot" : "0xc773ac87adf544806598c9fe2b6a81d77a571eec53c18c70648f11bd371354b7",
                    "timestamp" : "0x03e8",
                    "transactionsTrie" : "0x71dff6284dbf2e0da1930b6b5a32a58f5501456451a0c3f94bf8d4d6cb160f23",
                    "uncleHash" : "0x1dcc4de8dec75d7aab85b567b6ccd41ad312451b948a7413f0a142fd40d49347"
                },
                "rlp" : "0xf90303f901fca0634f0c92b14aa39d22fcfab6e852154e4f62f92d30c49071ba91bc9f60d42dcea01dcc4de8dec75d7aab85b567b6ccd41ad312451b948a7413f0a142fd40d4934794945304eb96065b2a98b57a48a06ae28d285a71b5a0c773ac87adf544806598c9fe2b6a81d77a571eec53c18c70648f11bd371354b7a071dff6284dbf2e0da1930b6b5a32a58f5501456451a0c3f94bf8d4d6cb160f23a088d82fd6ea42ebafe81f9c3889d4ebfd5ed6967a45dd715dcddac8559645ac5ab90100000000000000000000000000000000000000000000000000000000000000000000000000000000000000000000000000000000000000000000000000000000000000000000000000000000000000000000000000000000000000000000000000000000000000000000000000000000000000000000000000000000000000000000000000000000000000000000000000000000000000000000000000000000000000000000000000000000000000000000000000000000000000000000000000000000000000000000000000000000000000000000000000000000000000000000000000000000000000000000000000000000000000000000000000000000008302000001887fffffffffffffff82bde68203e880a0267c92339e8cfeca7d45442ae348eddb1deb2b004eb95e278976632635f50bc588d25d731f4fb633a5f90100f8fe800184458f872c94095e7baea6a6c7c4c2dfeb977efac326af552d878457454f1eb898367f00000000000000000000000000000000000000000000000000000000000000017fffffffffffffffffffffffffffffffffffffffffffffffffffffffffffffffff417fffffffffffffffffffffffffffffffffffffffffffffffffffffffffffffffff7f000000000000000000000000945304eb96065b2a98b57a48a06ae28d285a71b5456f8108067a345b7a76a20a835a0a0b6c101ca039f166799340d1f34dd1215ca88555fa9184eb20e242c0bb7608e10edaaaaf0da035acb6060535485745c4209e73e60851983af289d9525fa77d8411862e401cd8c0",
                "transactions" : [
                    {
                        "data" : "0x367f00000000000000000000000000000000000000000000000000000000000000017fffffffffffffffffffffffffffffffffffffffffffffffffffffffffffffffff417fffffffffffffffffffffffffffffffffffffffffffffffffffffffffffffffff7f000000000000000000000000945304eb96065b2a98b57a48a06ae28d285a71b5456f8108067a345b7a76a20a835a0a0b6c10",
                        "gasLimit" : "0x458f872c",
                        "gasPrice" : "0x01",
                        "nonce" : "0x00",
                        "r" : "0x39f166799340d1f34dd1215ca88555fa9184eb20e242c0bb7608e10edaaaaf0d",
                        "s" : "0x35acb6060535485745c4209e73e60851983af289d9525fa77d8411862e401cd8",
                        "to" : "0x095e7baea6a6c7c4c2dfeb977efac326af552d87",
                        "v" : "0x1c",
                        "value" : "0x57454f1e"
                    }
                ],
                "uncleHeaders" : [
                ]
            }
        ],
        "genesisBlockHeader" : {
            "bloom" : "0x00000000000000000000000000000000000000000000000000000000000000000000000000000000000000000000000000000000000000000000000000000000000000000000000000000000000000000000000000000000000000000000000000000000000000000000000000000000000000000000000000000000000000000000000000000000000000000000000000000000000000000000000000000000000000000000000000000000000000000000000000000000000000000000000000000000000000000000000000000000000000000000000000000000000000000000000000000000000000000000000000000000000000000000000000000000",
            "coinbase" : "0x945304eb96065b2a98b57a48a06ae28d285a71b5",
            "difficulty" : "0x020000",
            "extraData" : "0x42",
            "gasLimit" : "0x7fffffffffffffff",
            "gasUsed" : "0x00",
            "hash" : "0x634f0c92b14aa39d22fcfab6e852154e4f62f92d30c49071ba91bc9f60d42dce",
            "mixHash" : "0x56e81f171bcc55a6ff8345e692c0f86e5b48e01b996cadc001622fb5e363b421",
            "nonce" : "0x0102030405060708",
            "number" : "0x00",
            "parentHash" : "0x0000000000000000000000000000000000000000000000000000000000000000",
            "receiptTrie" : "0x56e81f171bcc55a6ff8345e692c0f86e5b48e01b996cadc001622fb5e363b421",
            "stateRoot" : "0xeba6efdde3a6d3a9de3c0ef8500e07682cad60e69da9f3322dbf72d11cf07340",
            "timestamp" : "0x03b6",
            "transactionsTrie" : "0x56e81f171bcc55a6ff8345e692c0f86e5b48e01b996cadc001622fb5e363b421",
            "uncleHash" : "0x1dcc4de8dec75d7aab85b567b6ccd41ad312451b948a7413f0a142fd40d49347"
        },
        "genesisRLP" : "0xf901fff901faa00000000000000000000000000000000000000000000000000000000000000000a01dcc4de8dec75d7aab85b567b6ccd41ad312451b948a7413f0a142fd40d4934794945304eb96065b2a98b57a48a06ae28d285a71b5a0eba6efdde3a6d3a9de3c0ef8500e07682cad60e69da9f3322dbf72d11cf07340a056e81f171bcc55a6ff8345e692c0f86e5b48e01b996cadc001622fb5e363b421a056e81f171bcc55a6ff8345e692c0f86e5b48e01b996cadc001622fb5e363b421b90100000000000000000000000000000000000000000000000000000000000000000000000000000000000000000000000000000000000000000000000000000000000000000000000000000000000000000000000000000000000000000000000000000000000000000000000000000000000000000000000000000000000000000000000000000000000000000000000000000000000000000000000000000000000000000000000000000000000000000000000000000000000000000000000000000000000000000000000000000000000000000000000000000000000000000000000000000000000000000000000000000000000000000000000000000000008302000080887fffffffffffffff808203b642a056e81f171bcc55a6ff8345e692c0f86e5b48e01b996cadc001622fb5e363b421880102030405060708c0c0",
        "lastblockhash" : "0x09a4afb06bc15b8487b6229d676268e35b23b728c745ad5d113b04eb1bac56fa",
        "network" : "Frontier",
        "postState" : {
            "0x095e7baea6a6c7c4c2dfeb977efac326af552d87" : {
                "balance" : "0x57454f1e",
                "code" : "0x367f00000000000000000000000000000000000000000000000000000000000000017fffffffffffffffffffffffffffffffffffffffffffffffffffffffffffffffff417fffffffffffffffffffffffffffffffffffffffffffffffffffffffffffffffff7f000000000000000000000000945304eb96065b2a98b57a48a06ae28d285a71b5456f8108067a345b7a76a20a835a0a0b6c1060005155",
                "nonce" : "0x00",
                "storage" : {
                    "0x00" : "0x8108067a345b7a76a20a835a0a0b6c10"
                }
            },
            "0x945304eb96065b2a98b57a48a06ae28d285a71b5" : {
                "balance" : "0x4563918244f4be14",
                "code" : "0x6000355415600957005b60203560003555",
                "nonce" : "0x00",
                "storage" : {
                }
            },
            "0xa94f5374fce5edbc8e2a8697c15331677e6ebf0b" : {
                "balance" : "0x0de0b6b3501df2fc",
                "code" : "",
                "nonce" : "0x01",
                "storage" : {
                }
            }
        },
        "pre" : {
            "0x095e7baea6a6c7c4c2dfeb977efac326af552d87" : {
                "balance" : "0x00",
                "code" : "0x367f00000000000000000000000000000000000000000000000000000000000000017fffffffffffffffffffffffffffffffffffffffffffffffffffffffffffffffff417fffffffffffffffffffffffffffffffffffffffffffffffffffffffffffffffff7f000000000000000000000000945304eb96065b2a98b57a48a06ae28d285a71b5456f8108067a345b7a76a20a835a0a0b6c1060005155",
                "nonce" : "0x00",
                "storage" : {
                }
            },
            "0x945304eb96065b2a98b57a48a06ae28d285a71b5" : {
                "balance" : "0x2e",
                "code" : "0x6000355415600957005b60203560003555",
                "nonce" : "0x00",
                "storage" : {
                }
            },
            "0xa94f5374fce5edbc8e2a8697c15331677e6ebf0b" : {
                "balance" : "0x0de0b6b3a7640000",
                "code" : "",
                "nonce" : "0x00",
                "storage" : {
                }
            }
        }
    },
    "randomStatetest436_d0g0v0_Homestead" : {
        "_info" : {
            "comment" : "",
            "filledwith" : "cpp-1.3.0+commit.4e101574.Linux.g++",
            "lllcversion" : "Version: 0.4.18-develop.2017.10.11+commit.81f9f86c.Linux.g++",
            "source" : "src/BlockchainTestsFiller/GeneralStateTests/stRandom2/randomStatetest436_d0g0v0Filler.json",
            "sourceHash" : "9591b7a6a8a6f2906b433f7949d61df98c3901e474267aeccfc94b7463fbfd01"
        },
        "blocks" : [
            {
                "blockHeader" : {
                    "bloom" : "0x00000000000000000000000000000000000000000000000000000000000000000000000000000000000000000000000000000000000000000000000000000000000000000000000000000000000000000000000000000000000000000000000000000000000000000000000000000000000000000000000000000000000000000000000000000000000000000000000000000000000000000000000000000000000000000000000000000000000000000000000000000000000000000000000000000000000000000000000000000000000000000000000000000000000000000000000000000000000000000000000000000000000000000000000000000000",
                    "coinbase" : "0x945304eb96065b2a98b57a48a06ae28d285a71b5",
                    "difficulty" : "0x020000",
                    "extraData" : "",
                    "gasLimit" : "0x7fffffffffffffff",
                    "gasUsed" : "0xbde6",
                    "hash" : "0x2eb00e0e2e4568b1847d996a06b6a77889694c828043dd360cc1f3b26fd2a950",
                    "mixHash" : "0xfb052177380920e557f81d242478d884d7d6be6256db51933d8db6308f9e0a1b",
                    "nonce" : "0x8982e41db2d632b4",
                    "number" : "0x01",
                    "parentHash" : "0x634f0c92b14aa39d22fcfab6e852154e4f62f92d30c49071ba91bc9f60d42dce",
                    "receiptTrie" : "0x88d82fd6ea42ebafe81f9c3889d4ebfd5ed6967a45dd715dcddac8559645ac5a",
                    "stateRoot" : "0xc773ac87adf544806598c9fe2b6a81d77a571eec53c18c70648f11bd371354b7",
                    "timestamp" : "0x03e8",
                    "transactionsTrie" : "0x71dff6284dbf2e0da1930b6b5a32a58f5501456451a0c3f94bf8d4d6cb160f23",
                    "uncleHash" : "0x1dcc4de8dec75d7aab85b567b6ccd41ad312451b948a7413f0a142fd40d49347"
                },
                "rlp" : "0xf90303f901fca0634f0c92b14aa39d22fcfab6e852154e4f62f92d30c49071ba91bc9f60d42dcea01dcc4de8dec75d7aab85b567b6ccd41ad312451b948a7413f0a142fd40d4934794945304eb96065b2a98b57a48a06ae28d285a71b5a0c773ac87adf544806598c9fe2b6a81d77a571eec53c18c70648f11bd371354b7a071dff6284dbf2e0da1930b6b5a32a58f5501456451a0c3f94bf8d4d6cb160f23a088d82fd6ea42ebafe81f9c3889d4ebfd5ed6967a45dd715dcddac8559645ac5ab90100000000000000000000000000000000000000000000000000000000000000000000000000000000000000000000000000000000000000000000000000000000000000000000000000000000000000000000000000000000000000000000000000000000000000000000000000000000000000000000000000000000000000000000000000000000000000000000000000000000000000000000000000000000000000000000000000000000000000000000000000000000000000000000000000000000000000000000000000000000000000000000000000000000000000000000000000000000000000000000000000000000000000000000000000000000008302000001887fffffffffffffff82bde68203e880a0fb052177380920e557f81d242478d884d7d6be6256db51933d8db6308f9e0a1b888982e41db2d632b4f90100f8fe800184458f872c94095e7baea6a6c7c4c2dfeb977efac326af552d878457454f1eb898367f00000000000000000000000000000000000000000000000000000000000000017fffffffffffffffffffffffffffffffffffffffffffffffffffffffffffffffff417fffffffffffffffffffffffffffffffffffffffffffffffffffffffffffffffff7f000000000000000000000000945304eb96065b2a98b57a48a06ae28d285a71b5456f8108067a345b7a76a20a835a0a0b6c101ca039f166799340d1f34dd1215ca88555fa9184eb20e242c0bb7608e10edaaaaf0da035acb6060535485745c4209e73e60851983af289d9525fa77d8411862e401cd8c0",
                "transactions" : [
                    {
                        "data" : "0x367f00000000000000000000000000000000000000000000000000000000000000017fffffffffffffffffffffffffffffffffffffffffffffffffffffffffffffffff417fffffffffffffffffffffffffffffffffffffffffffffffffffffffffffffffff7f000000000000000000000000945304eb96065b2a98b57a48a06ae28d285a71b5456f8108067a345b7a76a20a835a0a0b6c10",
                        "gasLimit" : "0x458f872c",
                        "gasPrice" : "0x01",
                        "nonce" : "0x00",
                        "r" : "0x39f166799340d1f34dd1215ca88555fa9184eb20e242c0bb7608e10edaaaaf0d",
                        "s" : "0x35acb6060535485745c4209e73e60851983af289d9525fa77d8411862e401cd8",
                        "to" : "0x095e7baea6a6c7c4c2dfeb977efac326af552d87",
                        "v" : "0x1c",
                        "value" : "0x57454f1e"
                    }
                ],
                "uncleHeaders" : [
                ]
            }
        ],
        "genesisBlockHeader" : {
            "bloom" : "0x00000000000000000000000000000000000000000000000000000000000000000000000000000000000000000000000000000000000000000000000000000000000000000000000000000000000000000000000000000000000000000000000000000000000000000000000000000000000000000000000000000000000000000000000000000000000000000000000000000000000000000000000000000000000000000000000000000000000000000000000000000000000000000000000000000000000000000000000000000000000000000000000000000000000000000000000000000000000000000000000000000000000000000000000000000000",
            "coinbase" : "0x945304eb96065b2a98b57a48a06ae28d285a71b5",
            "difficulty" : "0x020000",
            "extraData" : "0x42",
            "gasLimit" : "0x7fffffffffffffff",
            "gasUsed" : "0x00",
            "hash" : "0x634f0c92b14aa39d22fcfab6e852154e4f62f92d30c49071ba91bc9f60d42dce",
            "mixHash" : "0x56e81f171bcc55a6ff8345e692c0f86e5b48e01b996cadc001622fb5e363b421",
            "nonce" : "0x0102030405060708",
            "number" : "0x00",
            "parentHash" : "0x0000000000000000000000000000000000000000000000000000000000000000",
            "receiptTrie" : "0x56e81f171bcc55a6ff8345e692c0f86e5b48e01b996cadc001622fb5e363b421",
            "stateRoot" : "0xeba6efdde3a6d3a9de3c0ef8500e07682cad60e69da9f3322dbf72d11cf07340",
            "timestamp" : "0x03b6",
            "transactionsTrie" : "0x56e81f171bcc55a6ff8345e692c0f86e5b48e01b996cadc001622fb5e363b421",
            "uncleHash" : "0x1dcc4de8dec75d7aab85b567b6ccd41ad312451b948a7413f0a142fd40d49347"
        },
        "genesisRLP" : "0xf901fff901faa00000000000000000000000000000000000000000000000000000000000000000a01dcc4de8dec75d7aab85b567b6ccd41ad312451b948a7413f0a142fd40d4934794945304eb96065b2a98b57a48a06ae28d285a71b5a0eba6efdde3a6d3a9de3c0ef8500e07682cad60e69da9f3322dbf72d11cf07340a056e81f171bcc55a6ff8345e692c0f86e5b48e01b996cadc001622fb5e363b421a056e81f171bcc55a6ff8345e692c0f86e5b48e01b996cadc001622fb5e363b421b90100000000000000000000000000000000000000000000000000000000000000000000000000000000000000000000000000000000000000000000000000000000000000000000000000000000000000000000000000000000000000000000000000000000000000000000000000000000000000000000000000000000000000000000000000000000000000000000000000000000000000000000000000000000000000000000000000000000000000000000000000000000000000000000000000000000000000000000000000000000000000000000000000000000000000000000000000000000000000000000000000000000000000000000000000000000008302000080887fffffffffffffff808203b642a056e81f171bcc55a6ff8345e692c0f86e5b48e01b996cadc001622fb5e363b421880102030405060708c0c0",
        "lastblockhash" : "0x2eb00e0e2e4568b1847d996a06b6a77889694c828043dd360cc1f3b26fd2a950",
        "network" : "Homestead",
        "postState" : {
            "0x095e7baea6a6c7c4c2dfeb977efac326af552d87" : {
                "balance" : "0x57454f1e",
                "code" : "0x367f00000000000000000000000000000000000000000000000000000000000000017fffffffffffffffffffffffffffffffffffffffffffffffffffffffffffffffff417fffffffffffffffffffffffffffffffffffffffffffffffffffffffffffffffff7f000000000000000000000000945304eb96065b2a98b57a48a06ae28d285a71b5456f8108067a345b7a76a20a835a0a0b6c1060005155",
                "nonce" : "0x00",
                "storage" : {
                    "0x00" : "0x8108067a345b7a76a20a835a0a0b6c10"
                }
            },
            "0x945304eb96065b2a98b57a48a06ae28d285a71b5" : {
                "balance" : "0x4563918244f4be14",
                "code" : "0x6000355415600957005b60203560003555",
                "nonce" : "0x00",
                "storage" : {
                }
            },
            "0xa94f5374fce5edbc8e2a8697c15331677e6ebf0b" : {
                "balance" : "0x0de0b6b3501df2fc",
                "code" : "",
                "nonce" : "0x01",
                "storage" : {
                }
            }
        },
        "pre" : {
            "0x095e7baea6a6c7c4c2dfeb977efac326af552d87" : {
                "balance" : "0x00",
                "code" : "0x367f00000000000000000000000000000000000000000000000000000000000000017fffffffffffffffffffffffffffffffffffffffffffffffffffffffffffffffff417fffffffffffffffffffffffffffffffffffffffffffffffffffffffffffffffff7f000000000000000000000000945304eb96065b2a98b57a48a06ae28d285a71b5456f8108067a345b7a76a20a835a0a0b6c1060005155",
                "nonce" : "0x00",
                "storage" : {
                }
            },
            "0x945304eb96065b2a98b57a48a06ae28d285a71b5" : {
                "balance" : "0x2e",
                "code" : "0x6000355415600957005b60203560003555",
                "nonce" : "0x00",
                "storage" : {
                }
            },
            "0xa94f5374fce5edbc8e2a8697c15331677e6ebf0b" : {
                "balance" : "0x0de0b6b3a7640000",
                "code" : "",
                "nonce" : "0x00",
                "storage" : {
                }
            }
        }
    }
}