{
    "AddressLessThan20" : {
        "blocknumber" : "3500000",
        "rlp" : "0xf8528001825208870b9331677e6ebf0a8026a098ff921201554726367d2be8c804a7ff89ccf285ebc57dff8ae4c44b9c19ac4aa01887321be575c8095f789dd4c743dfe42c1820f9231f98a962b210e3ac2452a3"
    },
    "AddressLessThan20Prefixed0" : {
        "blocknumber" : "3500000",
        "hash" : "0ead26bb5ed25d99ebe267348bc0a4456f2c73bd3bf3d97273d462518dcf7413",
        "rlp" : "0xf85f800182520894000000000000000000000000000b9331677e6ebf0a8026a098ff921201554726367d2be8c804a7ff89ccf285ebc57dff8ae4c44b9c19ac4aa02887321be575c8095f789dd4c743dfe42c1820f9231f98a962b210e3ac2452a3",
        "sender" : "d204d104fd106428498704a699cc43090db733ed",
        "transaction" : {
            "data" : "",
            "gasLimit" : "0x5208",
            "gasPrice" : "0x01",
            "nonce" : "0x00",
            "r" : "0x98ff921201554726367d2be8c804a7ff89ccf285ebc57dff8ae4c44b9c19ac4a",
            "s" : "0x2887321be575c8095f789dd4c743dfe42c1820f9231f98a962b210e3ac2452a3",
            "to" : "0x000000000000000000000000000b9331677e6ebf",
            "v" : "0x26",
            "value" : "0x0a"
        }
    },
    "AddressMoreThan20" : {
        "blocknumber" : "3500000",
        "rlp" : "0xf860800182520895b94f5374fce5edbc8e2a8697c15331677e6ebf0b1c0a8026a098ff921201554726367d2be8c804a7ff89ccf285ebc57dff8ae4c44b9c19ac4aa01887321be575c8095f789dd4c743dfe42c1820f9231f98a962b210e3ac2452a3"
    },
    "AddressMoreThan20PrefixedBy0" : {
        "blocknumber" : "3500000",
        "rlp" : "0xf867367b8252089c0000000000000000095e7baea6a6c7c4c2dfeb977efac326af552d870b1225a048b55bfa915ac795c431978d8a6a992b628d557da5ff759b307d495a36649353a01887321be575c8095f789dd4c743dfe42c1820f9231f98a962b210e3ac2452a3"
    },
    "DataTestEnoughGAS" : {
        "blocknumber" : "3500000",
        "hash" : "2c094ec05e430c5e2f4dee4dd4d2ce4225ec0bf24ca18cd73ccf7cc55a736c7a",
        "rlp" : "0xf86d80018259d894095e7baea6a6c7c4c2dfeb977efac326af552d870a8e0358ac39584bc98a7c979f984b0325a048b55bfa915ac795c431978d8a6a992b628d557da5ff759b307d495a36649353a01fffd310ac743f371de3b9f7f9cb56c0b28ad43601b4ab949f53faa07bd2c804",
        "sender" : "bb9bae7f623ce877bddf6cd0a81baa08f19ead8b",
        "transaction" : {
            "data" : "0x0358ac39584bc98a7c979f984b03",
            "gasLimit" : "0x59d8",
            "gasPrice" : "0x01",
            "nonce" : "0x00",
            "r" : "0x48b55bfa915ac795c431978d8a6a992b628d557da5ff759b307d495a36649353",
            "s" : "0x1fffd310ac743f371de3b9f7f9cb56c0b28ad43601b4ab949f53faa07bd2c804",
            "to" : "095e7baea6a6c7c4c2dfeb977efac326af552d87",
            "v" : "0x25",
            "value" : "0x0a"
        }
    },
    "DataTestFirstZeroBytes" : {
        "blocknumber" : "3500000",
        "hash" : "12b615f2a21301aac2a5ca79365e7f15683c050d1d499e3d47114b9e4b542612",
        "rlp" : "0xf87c80018261a894095e7baea6a6c7c4c2dfeb977efac326af552d870a9d000000000000000000000000000100000000000000000000000000000026a048b55bfa915ac795c431978d8a6a992b628d557da5ff759b307d495a36649353a01fffd310ac743f371de3b9f7f9cb56c0b28ad43601b4ab949f53faa07bd2c804",
        "sender" : "2cfae4703c0ddb70605c514c2f5d9d7dfcad96b6",
        "transaction" : {
            "data" : "0x000000000000000000000000001000000000000000000000000000000",
            "gasLimit" : "0x61a8",
            "gasPrice" : "0x01",
            "nonce" : "0x00",
            "r" : "0x48b55bfa915ac795c431978d8a6a992b628d557da5ff759b307d495a36649353",
            "s" : "0x1fffd310ac743f371de3b9f7f9cb56c0b28ad43601b4ab949f53faa07bd2c804",
            "to" : "095e7baea6a6c7c4c2dfeb977efac326af552d87",
            "v" : "0x26",
            "value" : "0x0a"
        }
    },
    "DataTestLastZeroBytes" : {
        "blocknumber" : "3500000",
        "hash" : "31b5b360ec13e6d4faf850a21e7ae1c9aad3837f57dd046175d8d2221ac6c032",
        "rlp" : "0xf87c80018261a894095e7baea6a6c7c4c2dfeb977efac326af552d870a9d001000000000000000000000000000000000000000000000000000000025a048b55bfa915ac795c431978d8a6a992b628d557da5ff759b307d495a36649353a01fffd310ac743f371de3b9f7f9cb56c0b28ad43601b4ab949f53faa07bd2c804",
        "sender" : "61d68e49910b96c3310b0260e347b03eb763a33f",
        "transaction" : {
            "data" : "0x010000000000000000000000000000000000000000000000000000000",
            "gasLimit" : "0x61a8",
            "gasPrice" : "0x01",
            "nonce" : "0x00",
            "r" : "0x48b55bfa915ac795c431978d8a6a992b628d557da5ff759b307d495a36649353",
            "s" : "0x1fffd310ac743f371de3b9f7f9cb56c0b28ad43601b4ab949f53faa07bd2c804",
            "to" : "095e7baea6a6c7c4c2dfeb977efac326af552d87",
            "v" : "0x25",
            "value" : "0x0a"
        }
    },
    "DataTestNotEnoughGAS" : {
        "blocknumber" : "3500000",
        "rlp" : "0xf86d800182521c94095e7baea6a6c7c4c2dfeb977efac326af552d870a8e0358ac39584bc98a7c979f984b0326a048b55bfa915ac795c431978d8a6a992b628d557da5ff759b307d495a36649353a01887321be575c8095f789dd4c743dfe42c1820f9231f98a962b210e3ac2452a3"
    },
    "DataTestZeroBytes" : {
        "blocknumber" : "3500000",
        "hash" : "eb5246c9e161c73ca50f8d03c3270bfec4d6e146187a9491df430fbf4bee7df0",
        "rlp" : "0xf87c80018261a894095e7baea6a6c7c4c2dfeb977efac326af552d870a9d000000000000000000000000000000000000000000000000000000000026a048b55bfa915ac795c431978d8a6a992b628d557da5ff759b307d495a36649353a01fffd310ac743f371de3b9f7f9cb56c0b28ad43601b4ab949f53faa07bd2c804",
        "sender" : "ec3384dee0d5bac4163635cdd31289d6f0920bc5",
        "transaction" : {
            "data" : "0x000000000000000000000000000000000000000000000000000000000",
            "gasLimit" : "0x61a8",
            "gasPrice" : "0x01",
            "nonce" : "0x00",
            "r" : "0x48b55bfa915ac795c431978d8a6a992b628d557da5ff759b307d495a36649353",
            "s" : "0x1fffd310ac743f371de3b9f7f9cb56c0b28ad43601b4ab949f53faa07bd2c804",
            "to" : "095e7baea6a6c7c4c2dfeb977efac326af552d87",
            "v" : "0x26",
            "value" : "0x0a"
        }
    },
    "EmptyTransaction" : {
        "blocknumber" : "3500000",
        "rlp" : "0xf85d80808094095e7baea6a6c7c4c2dfeb977efac326af552d87808025a048b55bfa915ac795c431978d8a6a992b628d557da5ff759b307d495a36649353a01887321be575c8095f789dd4c743dfe42c1820f9231f98a962b210e3ac2452a3"
    },
    "NotEnoughGasLimit" : {
        "blocknumber" : "3500000",
        "rlp" : "0xf85f0301824e2094b94f5374fce5edbc8e2a8697c15331677e6ebf0b0a8026a098ff921201554726367d2be8c804a7ff89ccf285ebc57dff8ae4c44b9c19ac4aa01887321be575c8095f789dd4c743dfe42c1820f9231f98a962b210e3ac2452a3"
    },
    "RSsecp256k1" : {
        "blocknumber" : "3500000",
        "rlp" : "0xf85f030182520894b94f5374fce5edbc8e2a8697c15331677e6ebf0b0a8026a0fffffffffffffffffffffffffffffffebaaedce6af48a03bbfd25e8cd0364141a0fffffffffffffffffffffffffffffffebaaedce6af48a03bbfd25e8cd0364141"
    },
    "RightVRSTest" : {
        "blocknumber" : "3500000",
        "hash" : "50515b954d2d6c7705340822885566b92a8fd8c6513ebcb6798d2d649b4cc419",
        "rlp" : "0xf85f030182520894b94f5374fce5edbc8e2a8697c15331677e6ebf0b0a8026a098ff921201554726367d2be8c804a7ff89ccf285ebc57dff8ae4c44b9c19ac4aa01887321be575c8095f789dd4c743dfe42c1820f9231f98a962b210e3ac2452a3",
        "sender" : "a498686d147f218089fc81cec973dea1cb01ef00",
        "transaction" : {
            "data" : "0x",
            "gasLimit" : "0x5208",
            "gasPrice" : "0x01",
            "nonce" : "0x03",
            "r" : "0x98ff921201554726367d2be8c804a7ff89ccf285ebc57dff8ae4c44b9c19ac4a",
            "s" : "0x1887321be575c8095f789dd4c743dfe42c1820f9231f98a962b210e3ac2452a3",
            "to" : "b94f5374fce5edbc8e2a8697c15331677e6ebf0b",
            "v" : "0x26",
            "value" : "0x0a"
        }
    },
    "SenderTest" : {
        "blocknumber" : "3500000",
        "hash" : "cefb14dda7c39d35f249dfb657ce9da3084c79b33f04a9ef456b6c8eb311c96b",
        "rlp" : "0xf85f800182520894095e7baea6a6c7c4c2dfeb977efac326af552d870a8025a048b55bfa915ac795c431978d8a6a992b628d557da5ff759b307d495a36649353a01fffd310ac743f371de3b9f7f9cb56c0b28ad43601b4ab949f53faa07bd2c804",
        "sender" : "d2e069655a831ea8f80b402c9e6dbcb7b526bd44",
        "senderExpect" : "sender 963f4a0d8a11b758de8d5b99ab4ac898d6438ea6",
        "transaction" : {
            "data" : "",
            "gasLimit" : "0x5208",
            "gasPrice" : "0x01",
            "nonce" : "0x00",
            "r" : "0x48b55bfa915ac795c431978d8a6a992b628d557da5ff759b307d495a36649353",
            "s" : "0x1fffd310ac743f371de3b9f7f9cb56c0b28ad43601b4ab949f53faa07bd2c804",
            "to" : "095e7baea6a6c7c4c2dfeb977efac326af552d87",
            "v" : "0x25",
            "value" : "0x0a"
        }
    },
    "TransactionWithGasLimitOverflow" : {
        "blocknumber" : "3500000",
        "rlp" : "0xf87e8001a101000000000000000000000000000000000000000000000000000000000000000094095e7baea6a6c7c4c2dfeb977efac326af552d870b8026a048b55bfa915ac795c431978d8a6a992b628d557da5ff759b307d495a36649353a01887321be575c8095f789dd4c743dfe42c1820f9231f98a962b210e3ac2452a3"
    },
    "TransactionWithGasLimitOverflow2" : {
        "blocknumber" : "3500000",
        "hash" : "bda8bc663de0b4d5dc7442161b97f110d4a8597870f7ec62726f914473a99950",
        "rlp" : "0xf865800188800000000000000094095e7baea6a6c7c4c2dfeb977efac326af552d870b8025a048b55bfa915ac795c431978d8a6a992b628d557da5ff759b307d495a36649353a01887321be575c8095f789dd4c743dfe42c1820f9231f98a962b210e3ac2452a3",
        "sender" : "a63ef76db6b15ffefb0f8c032f28183321989e7c",
        "transaction" : {
            "data" : "",
            "gasLimit" : "0x8000000000000000",
            "gasPrice" : "0x01",
            "nonce" : "0x00",
            "r" : "0x48b55bfa915ac795c431978d8a6a992b628d557da5ff759b307d495a36649353",
            "s" : "0x1887321be575c8095f789dd4c743dfe42c1820f9231f98a962b210e3ac2452a3",
            "to" : "095e7baea6a6c7c4c2dfeb977efac326af552d87",
            "v" : "0x25",
            "value" : "0x0b"
        }
    },
    "TransactionWithGasLimitOverflow63" : {
        "blocknumber" : "3500000",
        "hash" : "bda8bc663de0b4d5dc7442161b97f110d4a8597870f7ec62726f914473a99950",
        "rlp" : "0xf865800188800000000000000094095e7baea6a6c7c4c2dfeb977efac326af552d870b8025a048b55bfa915ac795c431978d8a6a992b628d557da5ff759b307d495a36649353a01887321be575c8095f789dd4c743dfe42c1820f9231f98a962b210e3ac2452a3",
        "sender" : "a63ef76db6b15ffefb0f8c032f28183321989e7c",
        "transaction" : {
            "data" : "",
            "gasLimit" : "0x8000000000000000",
            "gasPrice" : "0x01",
            "nonce" : "0x00",
            "r" : "0x48b55bfa915ac795c431978d8a6a992b628d557da5ff759b307d495a36649353",
            "s" : "0x1887321be575c8095f789dd4c743dfe42c1820f9231f98a962b210e3ac2452a3",
            "to" : "095e7baea6a6c7c4c2dfeb977efac326af552d87",
            "v" : "0x25",
            "value" : "0x0b"
        }
    },
    "TransactionWithGasLimitOverflow63_1" : {
        "blocknumber" : "3500000",
        "hash" : "513f437334f21933fac2b06bcd0168fd4e472efaa74a6737345eceb377c770f2",
        "rlp" : "0xf865800188800000000000000194095e7baea6a6c7c4c2dfeb977efac326af552d870b8025a048b55bfa915ac795c431978d8a6a992b628d557da5ff759b307d495a36649353a01887321be575c8095f789dd4c743dfe42c1820f9231f98a962b210e3ac2452a3",
        "sender" : "71a3ce808f414abb864415a2712094db80904198",
        "transaction" : {
            "data" : "",
            "gasLimit" : "0x8000000000000001",
            "gasPrice" : "0x01",
            "nonce" : "0x00",
            "r" : "0x48b55bfa915ac795c431978d8a6a992b628d557da5ff759b307d495a36649353",
            "s" : "0x1887321be575c8095f789dd4c743dfe42c1820f9231f98a962b210e3ac2452a3",
            "to" : "095e7baea6a6c7c4c2dfeb977efac326af552d87",
            "v" : "0x25",
            "value" : "0x0b"
        }
    },
    "TransactionWithGasLimitxPriceOverflow" : {
        "blocknumber" : "3500000",
        "hash" : "2b01af27d1adf523db95397a04c5064a33e4d1e02ff581e6c8a5d5e1e98632bb",
        "rlp" : "0xf8858088016345785d8a0000a0ffffffffffffffffffffffffffffffffffffffffffffffffffffffffffffffff94095e7baea6a6c7c4c2dfeb977efac326af552d87808026a048b55bfa915ac795c431978d8a6a992b628d557da5ff759b307d495a36649353a01887321be575c8095f789dd4c743dfe42c1820f9231f98a962b210e3ac2452a3",
        "sender" : "31a82d8828a987dfd1b08469534642c620aec301",
        "transaction" : {
            "data" : "",
            "gasLimit" : "0xffffffffffffffffffffffffffffffffffffffffffffffffffffffffffffffff",
            "gasPrice" : "0x016345785d8a0000",
            "nonce" : "0x00",
            "r" : "0x48b55bfa915ac795c431978d8a6a992b628d557da5ff759b307d495a36649353",
            "s" : "0x1887321be575c8095f789dd4c743dfe42c1820f9231f98a962b210e3ac2452a3",
            "to" : "095e7baea6a6c7c4c2dfeb977efac326af552d87",
            "v" : "0x26",
            "value" : "0x00"
        }
    },
    "TransactionWithGasLimitxPriceOverflow2" : {
        "blocknumber" : "3500000",
        "hash" : "ff75a56f7a210c2e7d7f5da26626f259f5487fd7b2083c0dfaa97c759dc6bc12",
        "rlp" : "0xf86780873b9403b9403b5c8398968094095e7baea6a6c7c4c2dfeb977efac326af552d87808025a098ff921201554726367d2be8c804a7ff89ccf285ebc57dff8ae4c44b9c19ac4aa01887321be575c8095f789dd4c743dfe42c1820f9231f98a962b210e3ac2452a3",
        "sender" : "3568da1a203ea7e6b73ccfbb1696fad2ddfe5243",
        "transaction" : {
            "data" : "",
            "gasLimit" : "0x989680",
            "gasPrice" : "0x3b9403b9403b5c",
            "nonce" : "0x00",
            "r" : "0x98ff921201554726367d2be8c804a7ff89ccf285ebc57dff8ae4c44b9c19ac4a",
            "s" : "0x1887321be575c8095f789dd4c743dfe42c1820f9231f98a962b210e3ac2452a3",
            "to" : "095e7baea6a6c7c4c2dfeb977efac326af552d87",
            "v" : "0x25",
            "value" : "0x00"
        }
    },
    "TransactionWithGasPriceOverflow" : {
        "blocknumber" : "3500000",
        "rlp" : "0xf88080a101000000000000000000000000000000000000000000000000000000000000000082520894095e7baea6a6c7c4c2dfeb977efac326af552d870b8025a048b55bfa915ac795c431978d8a6a992b628d557da5ff759b307d495a36649353a01887321be575c8095f789dd4c743dfe42c1820f9231f98a962b210e3ac2452a3"
    },
    "TransactionWithHighValueOverflow" : {
        "blocknumber" : "3500000",
        "rlp" : "0xf880800182520894095e7baea6a6c7c4c2dfeb977efac326af552d87a10100000000000000000000000000000000000000000000000000000000000000008026a048b55bfa915ac795c431978d8a6a992b628d557da5ff759b307d495a36649353a01887321be575c8095f789dd4c743dfe42c1820f9231f98a962b210e3ac2452a3"
    },
    "TransactionWithHihghGasLimit63m1" : {
        "blocknumber" : "3500000",
        "hash" : "f22df231b9c8594dae8e422d8c925d6b08d77145fe69b7aff143292b2ded9b6e",
        "rlp" : "0xf8658001887fffffffffffffff94095e7baea6a6c7c4c2dfeb977efac326af552d87808025a098ff921201554726367d2be8c804a7ff89ccf285ebc57dff8ae4c44b9c19ac4aa01887321be575c8095f789dd4c743dfe42c1820f9231f98a962b210e3ac2452a3",
        "sender" : "bc3ed33da0fb6d392781b29e2b33135e944ffe16",
        "transaction" : {
            "data" : "",
            "gasLimit" : "0x7fffffffffffffff",
            "gasPrice" : "0x01",
            "nonce" : "0x00",
            "r" : "0x98ff921201554726367d2be8c804a7ff89ccf285ebc57dff8ae4c44b9c19ac4a",
            "s" : "0x1887321be575c8095f789dd4c743dfe42c1820f9231f98a962b210e3ac2452a3",
            "to" : "095e7baea6a6c7c4c2dfeb977efac326af552d87",
            "v" : "0x25",
            "value" : "0x00"
        }
    },
    "TransactionWithHihghGasPrice" : {
        "blocknumber" : "3500000",
        "hash" : "0057ed53bf3af645ce0ac0b944f63630887d07d7cbdbf026bb217fb8b0f57850",
        "rlp" : "0xf87f80a0ffffffffffffffffffffffffffffffffffffffffffffffffffffffffffffffff82520894095e7baea6a6c7c4c2dfeb977efac326af552d87808026a098ff921201554726367d2be8c804a7ff89ccf285ebc57dff8ae4c44b9c19ac4aa01887321be575c8095f789dd4c743dfe42c1820f9231f98a962b210e3ac2452a3",
        "sender" : "10d1d0f00e24ed10a9290ab187ab008a2a210559",
        "transaction" : {
            "data" : "",
            "gasLimit" : "0x5208",
            "gasPrice" : "0xffffffffffffffffffffffffffffffffffffffffffffffffffffffffffffffff",
            "nonce" : "0x00",
            "r" : "0x98ff921201554726367d2be8c804a7ff89ccf285ebc57dff8ae4c44b9c19ac4a",
            "s" : "0x1887321be575c8095f789dd4c743dfe42c1820f9231f98a962b210e3ac2452a3",
            "to" : "095e7baea6a6c7c4c2dfeb977efac326af552d87",
            "v" : "0x26",
            "value" : "0x00"
        }
    },
    "TransactionWithHihghGasPrice2" : {
        "blocknumber" : "3500000",
        "hash" : "3b8f98e1f21fcd317ab6ce05185e97134075ba43e392eb7f156528892bebf6b6",
        "rlp" : "0xf865808698852840a46f82d6d894095e7baea6a6c7c4c2dfeb977efac326af552d87808025a098ff921201554726367d2be8c804a7ff89ccf285ebc57dff8ae4c44b9c19ac4aa01887321be575c8095f789dd4c743dfe42c1820f9231f98a962b210e3ac2452a3",
        "sender" : "2ea991808ba979ba103147edfd72304ebd95c028",
        "transaction" : {
            "data" : "",
            "gasLimit" : "0xd6d8",
            "gasPrice" : "0x98852840a46f",
            "nonce" : "0x00",
            "r" : "0x98ff921201554726367d2be8c804a7ff89ccf285ebc57dff8ae4c44b9c19ac4a",
            "s" : "0x1887321be575c8095f789dd4c743dfe42c1820f9231f98a962b210e3ac2452a3",
            "to" : "095e7baea6a6c7c4c2dfeb977efac326af552d87",
            "v" : "0x25",
            "value" : "0x00"
        }
    },
    "TransactionWithHihghNonce256" : {
        "blocknumber" : "3500000",
        "hash" : "4309b5810b08957e786d3bc761eef6340eeb1591b0401e6af69968171a6c2579",
        "rlp" : "0xf87fa0ffffffffffffffffffffffffffffffffffffffffffffffffffffffffffffffff0182520894095e7baea6a6c7c4c2dfeb977efac326af552d87808026a048b55bfa915ac795c431978d8a6a992b628d557da5ff759b307d495a36649353a01fffd310ac743f371de3b9f7f9cb56c0b28ad43601b4ab949f53faa07bd2c804",
        "sender" : "26a65c040336970137fee14e4053f4549c116e62",
        "transaction" : {
            "data" : "",
            "gasLimit" : "0x5208",
            "gasPrice" : "0x01",
            "nonce" : "0xffffffffffffffffffffffffffffffffffffffffffffffffffffffffffffffff",
            "r" : "0x48b55bfa915ac795c431978d8a6a992b628d557da5ff759b307d495a36649353",
            "s" : "0x1fffd310ac743f371de3b9f7f9cb56c0b28ad43601b4ab949f53faa07bd2c804",
            "to" : "095e7baea6a6c7c4c2dfeb977efac326af552d87",
            "v" : "0x26",
            "value" : "0x00"
        }
    },
    "TransactionWithHihghNonce32" : {
        "blocknumber" : "3500000",
        "hash" : "77b29ce9dd33e1ea1d07ff834974af41820b90dd9d6d961d53415e13e667000e",
        "rlp" : "0xf8648501000000000182520894095e7baea6a6c7c4c2dfeb977efac326af552d87808025a048b55bfa915ac795c431978d8a6a992b628d557da5ff759b307d495a36649353a01fffd310ac743f371de3b9f7f9cb56c0b28ad43601b4ab949f53faa07bd2c804",
        "sender" : "c7c52aa0937af05c26178068e6c9bff28507c65a",
        "transaction" : {
            "data" : "",
            "gasLimit" : "0x5208",
            "gasPrice" : "0x01",
            "nonce" : "0x0100000000",
            "r" : "0x48b55bfa915ac795c431978d8a6a992b628d557da5ff759b307d495a36649353",
            "s" : "0x1fffd310ac743f371de3b9f7f9cb56c0b28ad43601b4ab949f53faa07bd2c804",
            "to" : "095e7baea6a6c7c4c2dfeb977efac326af552d87",
            "v" : "0x25",
            "value" : "0x00"
        }
    },
    "TransactionWithHihghValue" : {
        "blocknumber" : "3500000",
        "hash" : "2e5367d6379c6caab57978acbd3d1d4454324acccdd49ce315adba773ddd8dcb",
        "rlp" : "0xf87f800182520894095e7baea6a6c7c4c2dfeb977efac326af552d87a0ffffffffffffffffffffffffffffffffffffffffffffffffffffffffffffffff8025a048b55bfa915ac795c431978d8a6a992b628d557da5ff759b307d495a36649353a01fffd310ac743f371de3b9f7f9cb56c0b28ad43601b4ab949f53faa07bd2c804",
        "sender" : "0ed21e574a49800f4b3dba646d8ea38c2d64a1ff",
        "transaction" : {
            "data" : "",
            "gasLimit" : "0x5208",
            "gasPrice" : "0x01",
            "nonce" : "0x00",
            "r" : "0x48b55bfa915ac795c431978d8a6a992b628d557da5ff759b307d495a36649353",
            "s" : "0x1fffd310ac743f371de3b9f7f9cb56c0b28ad43601b4ab949f53faa07bd2c804",
            "to" : "095e7baea6a6c7c4c2dfeb977efac326af552d87",
            "v" : "0x25",
            "value" : "0xffffffffffffffffffffffffffffffffffffffffffffffffffffffffffffffff"
        }
    },
    "TransactionWithNonceOverflow" : {
        "blocknumber" : "3500000",
        "rlp" : "0xf880a10100000000000000000000000000000000000000000000000000000000000000000182520894095e7baea6a6c7c4c2dfeb977efac326af552d870b8026a048b55bfa915ac795c431978d8a6a992b628d557da5ff759b307d495a36649353a01887321be575c8095f789dd4c743dfe42c1820f9231f98a962b210e3ac2452a3"
    },
    "TransactionWithRSvalue0" : {
        "blocknumber" : "3500000",
        "rlp" : "0xdf800182520894095e7baea6a6c7c4c2dfeb977efac326af552d870b80258080"
    },
    "TransactionWithRSvalue1" : {
        "blocknumber" : "3500000",
        "hash" : "d71fcad14606ac671fc0372ddd57115a11cb7e88ef20b15ed131725d5a1a013d",
        "rlp" : "0xdf800182520894095e7baea6a6c7c4c2dfeb977efac326af552d870b80260101",
        "sender" : "34d858a9b020920858646624388d432bc407aa23",
        "transaction" : {
            "data" : "",
            "gasLimit" : "0x5208",
            "gasPrice" : "0x01",
            "nonce" : "0x00",
            "r" : "0x01",
            "s" : "0x01",
            "to" : "095e7baea6a6c7c4c2dfeb977efac326af552d87",
            "v" : "0x26",
            "value" : "0x0b"
        }
    },
    "TransactionWithRvalue0" : {
        "blocknumber" : "3500000",
        "rlp" : "0xf83f800182520894095e7baea6a6c7c4c2dfeb977efac326af552d870b802680a01887321be575c8095f789dd4c743dfe42c1820f9231f98a962b210e3ac2452a3"
    },
    "TransactionWithRvalue1" : {
        "blocknumber" : "3500000",
        "hash" : "d71fcad14606ac671fc0372ddd57115a11cb7e88ef20b15ed131725d5a1a013d",
        "rlp" : "0xf83f800182520894095e7baea6a6c7c4c2dfeb977efac326af552d870b802501a01fffd310ac743f371de3b9f7f9cb56c0b28ad43601b4ab949f53faa07bd2c804",
        "sender" : "77316e07ab2795f2419574b058732cdc7e770fd4",
        "transaction" : {
            "data" : "",
            "gasLimit" : "0x5208",
            "gasPrice" : "0x01",
            "nonce" : "0x00",
            "r" : "0x01",
            "s" : "0x1fffd310ac743f371de3b9f7f9cb56c0b28ad43601b4ab949f53faa07bd2c804",
            "to" : "095e7baea6a6c7c4c2dfeb977efac326af552d87",
            "v" : "0x25",
            "value" : "0x0b"
        }
    },
    "TransactionWithRvalueHigh" : {
        "blocknumber" : "3500000",
        "rlp" : "0xf85f800182520894095e7baea6a6c7c4c2dfeb977efac326af552d870b8025a0fffffffffffffffffffffffffffffffebaaedce6af48a03bbfd25e8cd0364140a01887321be575c8095f789dd4c743dfe42c1820f9231f98a962b210e3ac2452a3"
    },
    "TransactionWithRvalueOverflow" : {
        "blocknumber" : "3500000",
        "rlp" : "0xf861800182520894095e7baea6a6c7c4c2dfeb977efac326af552d870b8026a2fffffffffffffffffffffffffffffffebaaedce6af48a03bbfd25e8cd03641410000a0efffd310ac743f371de3b9f7f9cb56c0b28ad43601b4ab949f53faa07bd2c804"
    },
    "TransactionWithRvaluePrefixed00" : {
        "blocknumber" : "3500000",
        "hash" : "d71fcad14606ac671fc0372ddd57115a11cb7e88ef20b15ed131725d5a1a013d",
        "rlp" : "0xf850800182520894095e7baea6a6c7c4c2dfeb977efac326af552d870b8026910ebaaedce6af48a03bbfd25e8cd0364141a01fffd310ac743f371de3b9f7f9cb56c0b28ad43601b4ab949f53faa07bd2c804",
        "sender" : "638e0cc2ce0fd0482f7039ea01a6203fe1c7f8f6",
        "transaction" : {
            "data" : "",
            "gasLimit" : "0x5208",
            "gasPrice" : "0x01",
            "nonce" : "0x00",
            "r" : "0xebaaedce6af48a03bbfd25e8cd0364141",
            "s" : "0x1fffd310ac743f371de3b9f7f9cb56c0b28ad43601b4ab949f53faa07bd2c804",
            "to" : "095e7baea6a6c7c4c2dfeb977efac326af552d87",
            "v" : "0x26",
            "value" : "0x0b"
        }
    },
    "TransactionWithRvalueTooHigh" : {
        "blocknumber" : "3500000",
        "rlp" : "0xf85f800182520894095e7baea6a6c7c4c2dfeb977efac326af552d870b8025a0fffffffffffffffffffffffffffffffebaaedce6af48a03bbfd25e8cd0364141a01887321be575c8095f789dd4c743dfe42c1820f9231f98a962b210e3ac2452a3"
    },
    "TransactionWithSvalue0" : {
        "blocknumber" : "3500000",
        "rlp" : "0xf83f800182520894095e7baea6a6c7c4c2dfeb977efac326af552d870b8026a048b55bfa915ac795c431978d8a6a992b628d557da5ff759b307d495a3664935380"
    },
    "TransactionWithSvalue1" : {
        "blocknumber" : "3500000",
        "hash" : "d71fcad14606ac671fc0372ddd57115a11cb7e88ef20b15ed131725d5a1a013d",
        "rlp" : "0xf83f800182520894095e7baea6a6c7c4c2dfeb977efac326af552d870b8025a048b55bfa915ac795c431978d8a6a992b628d557da5ff759b307d495a3664935301",
        "sender" : "a85c3f0baf13c5736b7bbdfe419e517d732e47c6",
        "transaction" : {
            "data" : "",
            "gasLimit" : "0x5208",
            "gasPrice" : "0x01",
            "nonce" : "0x00",
            "r" : "0x48b55bfa915ac795c431978d8a6a992b628d557da5ff759b307d495a36649353",
            "s" : "0x01",
            "to" : "095e7baea6a6c7c4c2dfeb977efac326af552d87",
            "v" : "0x25",
            "value" : "0x0b"
        }
    },
    "TransactionWithSvalueEqual_c_secp256k1n_x05" : {
        "blocknumber" : "3500000",
        "hash" : "d71fcad14606ac671fc0372ddd57115a11cb7e88ef20b15ed131725d5a1a013d",
        "rlp" : "0xf85f800182520894095e7baea6a6c7c4c2dfeb977efac326af552d870b8026a048b55bfa915ac795c431978d8a6a992b628d557da5ff759b307d495a36649353a07fffffffffffffffffffffffffffffff5d576e7357a4501ddfe92f46681b20a0",
        "sender" : "3cc9d66a6a81b7c614ca5cf7ed62a932e1463d8d",
        "transaction" : {
            "data" : "",
            "gasLimit" : "0x5208",
            "gasPrice" : "0x01",
            "nonce" : "0x00",
            "r" : "0x48b55bfa915ac795c431978d8a6a992b628d557da5ff759b307d495a36649353",
            "s" : "0x7fffffffffffffffffffffffffffffff5d576e7357a4501ddfe92f46681b20a0",
            "to" : "095e7baea6a6c7c4c2dfeb977efac326af552d87",
            "v" : "0x26",
            "value" : "0x0b"
        }
    },
    "TransactionWithSvalueHigh" : {
        "blocknumber" : "3500000",
        "rlp" : "0xf85f800182520894095e7baea6a6c7c4c2dfeb977efac326af552d870b8025a048b55bfa915ac795c431978d8a6a992b628d557da5ff759b307d495a36649353a0fffffffffffffffffffffffffffffffebaaedce6af48a03bbfd25e8cd0364140"
    },
    "TransactionWithSvalueLargerThan_c_secp256k1n_x05" : {
        "blocknumber" : "3500000",
        "rlp" : "0xf85f800182520894095e7baea6a6c7c4c2dfeb977efac326af552d870b8025a048b55bfa915ac795c431978d8a6a992b628d557da5ff759b307d495a36649353a07fffffffffffffffffffffffffffffff5d576e7357a4501ddfe92f46681b20a1"
    },
    "TransactionWithSvalueLessThan_c_secp256k1n_x05" : {
        "blocknumber" : "3500000",
        "hash" : "d71fcad14606ac671fc0372ddd57115a11cb7e88ef20b15ed131725d5a1a013d",
        "rlp" : "0xf85f800182520894095e7baea6a6c7c4c2dfeb977efac326af552d870b8025a048b55bfa915ac795c431978d8a6a992b628d557da5ff759b307d495a36649353a07fffffffffffffffffffffffffffffff5d576e7357a4501ddfe92f46681b2090",
        "sender" : "4f6dec67d2ab10d076a30e51a9eec998ff484d44",
        "transaction" : {
            "data" : "",
            "gasLimit" : "0x5208",
            "gasPrice" : "0x01",
            "nonce" : "0x00",
            "r" : "0x48b55bfa915ac795c431978d8a6a992b628d557da5ff759b307d495a36649353",
            "s" : "0x7fffffffffffffffffffffffffffffff5d576e7357a4501ddfe92f46681b2090",
            "to" : "095e7baea6a6c7c4c2dfeb977efac326af552d87",
            "v" : "0x25",
            "value" : "0x0b"
        }
    },
    "TransactionWithSvalueOverflow" : {
        "blocknumber" : "3500000",
        "rlp" : "0xf861800182520894095e7baea6a6c7c4c2dfeb977efac326af552d870b8025a048b55bfa915ac795c431978d8a6a992b628d557da5ff759b307d495a36649353a2fffffffffffffffffffffffffffffffffffffffffffffffffffffffefffffc2f0000"
    },
    "TransactionWithSvaluePrefixed00" : {
        "blocknumber" : "3500000",
        "hash" : "d71fcad14606ac671fc0372ddd57115a11cb7e88ef20b15ed131725d5a1a013d",
        "rlp" : "0xf851800182520894095e7baea6a6c7c4c2dfeb977efac326af552d870b8025a098ff921201554726367d2be8c804a7ff89ccf285ebc57dff8ae4c44b9c19ac4a920ef0b28ad43601b4ab949f53faa07bd2c804",
        "sender" : "91c920e7b8a806bd0e96a8a0b2e27c8bd0fa201d",
        "transaction" : {
            "data" : "",
            "gasLimit" : "0x5208",
            "gasPrice" : "0x01",
            "nonce" : "0x00",
            "r" : "0x98ff921201554726367d2be8c804a7ff89ccf285ebc57dff8ae4c44b9c19ac4a",
            "s" : "0xef0b28ad43601b4ab949f53faa07bd2c804",
            "to" : "095e7baea6a6c7c4c2dfeb977efac326af552d87",
            "v" : "0x25",
            "value" : "0x0b"
        }
    },
    "TransactionWithSvalueTooHigh" : {
        "blocknumber" : "3500000",
        "rlp" : "0xf85f800182520894095e7baea6a6c7c4c2dfeb977efac326af552d870b8026a048b55bfa915ac795c431978d8a6a992b628d557da5ff759b307d495a36649353a0fffffffffffffffffffffffffffffffebaaedce6af48a03bbfd25e8cd0364141"
    },
    "TransactionWithTooFewRLPElements" : {
        "blocknumber" : "3500000",
        "rlp" : "0xf85b800194095e7baea6a6c7c4c2dfeb977efac326af552d878026a048b55bfa915ac795c431978d8a6a992b628d557da5ff759b307d495a36649353a01887321be575c8095f789dd4c743dfe42c1820f9231f98a962b210e3ac2452a3"
    },
    "TransactionWithTooManyRLPElements" : {
        "blocknumber" : "3500000",
        "rlp" : "0xf865800182520894095e7baea6a6c7c4c2dfeb977efac326af552d870a8025a048b55bfa915ac795c431978d8a6a992b628d557da5ff759b307d495a36649353a01887321be575c8095f789dd4c743dfe42c1820f9231f98a962b210e3ac2452a3851de98d0edd"
    },
    "WrongVRSTestIncorrectSize" : {
        "blocknumber" : "3500000",
        "rlp" : "0xf861800182520894b94f5374fce5edbc8e2a8697c15331677e6ebf0b0a8026a298ff921201554726367d2be8c804a7ff89ccf285ebc57dff8ae4c44b9c19ac4a02c3a01887321be575c8095f789dd4c743dfe42c1820f9231f98a962b210e3ac2452a3"
    },
    "WrongVRSTestVEqual36" : {
        "blocknumber" : "3500000",
        "rlp" : "0xf85f800182520894b94f5374fce5edbc8e2a8697c15331677e6ebf0b0a8024a098ff921201554726367d2be8c804a7ff89ccf285ebc57dff8ae4c44b9c19ac4aa01887321be575c8095f789dd4c743dfe42c1820f9231f98a962b210e3ac2452a3"
    },
    "WrongVRSTestVEqual39" : {
        "blocknumber" : "3500000",
        "rlp" : "0xf85f800182520894b94f5374fce5edbc8e2a8697c15331677e6ebf0b0a8027a098ff921201554726367d2be8c804a7ff89ccf285ebc57dff8ae4c44b9c19ac4aa01887321be575c8095f789dd4c743dfe42c1820f9231f98a962b210e3ac2452a3"
    },
    "WrongVRSTestVEqual41" : {
        "blocknumber" : "3500000",
        "rlp" : "0xf85f800182520894b94f5374fce5edbc8e2a8697c15331677e6ebf0b0a8029a098ff921201554726367d2be8c804a7ff89ccf285ebc57dff8ae4c44b9c19ac4aa01887321be575c8095f789dd4c743dfe42c1820f9231f98a962b210e3ac2452a3"
    },
    "dataTx_bcValidBlockTest" : {
        "blocknumber" : "3500000",
        "hash" : "914787ef087daa4143b45cfd8439ae3fa211be02745b553c5fdea8bc8bb0fb8d",
        "rlp" : "0xf901fc8032830138808080b901ae60056013565b6101918061001d6000396000f35b3360008190555056006001600060e060020a6000350480630a874df61461003a57806341c0e1b514610058578063a02b161e14610066578063dbbdf0831461007757005b610045600435610149565b80600160a060020a031660005260206000f35b610060610161565b60006000f35b6100716004356100d4565b60006000f35b61008560043560243561008b565b60006000f35b600054600160a060020a031632600160a060020a031614156100ac576100b1565b6100d0565b8060018360005260205260406000208190555081600060005260206000a15b5050565b600054600160a060020a031633600160a060020a031614158015610118575033600160a060020a0316600182600052602052604060002054600160a060020a031614155b61012157610126565b610146565b600060018260005260205260406000208190555080600060005260206000a15b50565b60006001826000526020526040600020549050919050565b600054600160a060020a031633600160a060020a0316146101815761018f565b600054600160a060020a0316ff5b5626a0c5689ed1ad124753d54576dfb4b571465a41900a1dff4058d8adf16f752013d0a01221cbd70ec28c94a3b55ec771bcbc70778d6ee0b51ca7ea9514594c861b1884",
        "sender" : "54fcfde0ec2110a8c91e8a7134ab9f2b994b2c80",
        "transaction" : {
            "data" : "0x60056013565b6101918061001d6000396000f35b3360008190555056006001600060e060020a6000350480630a874df61461003a57806341c0e1b514610058578063a02b161e14610066578063dbbdf0831461007757005b610045600435610149565b80600160a060020a031660005260206000f35b610060610161565b60006000f35b6100716004356100d4565b60006000f35b61008560043560243561008b565b60006000f35b600054600160a060020a031632600160a060020a031614156100ac576100b1565b6100d0565b8060018360005260205260406000208190555081600060005260206000a15b5050565b600054600160a060020a031633600160a060020a031614158015610118575033600160a060020a0316600182600052602052604060002054600160a060020a031614155b61012157610126565b610146565b600060018260005260205260406000208190555080600060005260206000a15b50565b60006001826000526020526040600020549050919050565b600054600160a060020a031633600160a060020a0316146101815761018f565b600054600160a060020a0316ff5b56",
            "gasLimit" : "0x013880",
            "gasPrice" : "0x32",
            "nonce" : "0x00",
            "r" : "0xc5689ed1ad124753d54576dfb4b571465a41900a1dff4058d8adf16f752013d0",
            "s" : "0x1221cbd70ec28c94a3b55ec771bcbc70778d6ee0b51ca7ea9514594c861b1884",
            "to" : "",
            "v" : "0x26",
            "value" : "0x00"
        }
    },
    "invalidSignature" : {
        "blocknumber" : "3500000",
        "rlp" : "0xf8638080830f424094095e7baea6a6c7c4c2dfeb977efac326af552d87830186a08025a0ffffffffffffffffffffffffffffffffffffffffffffffffffffffffffffffffa0badf00d70ec28c94a3b55ec771bcbc70778d6ee0b51ca7ea9514594c861b1884"
    },
    "libsecp256k1test" : {
        "blocknumber" : "3500000",
        "hash" : "867c3e54c3cd53973143102c41ce080df57bc5ef9eac726b9d7af09351dfdb77",
        "rlp" : "0xd1808609184e72a00082f388808080252c04",
        "sender" : "3083fa49b0b07c94130966d0b0b8963ff457db4a",
        "transaction" : {
            "data" : "0x",
            "gasLimit" : "0xf388",
            "gasPrice" : "0x09184e72a000",
            "nonce" : "0x00",
            "r" : "0x2c",
            "s" : "0x04",
            "to" : "",
            "v" : "0x25",
            "value" : "0x00"
        }
    },
    "unpadedRValue" : {
        "blocknumber" : "3500000",
        "hash" : "18dabe31c949525a79707fa13c88370a97efc50b14c66eca337163c46274dace",
        "rlp" : "0xf8880d8609184e72a00082f710947c47ef93268a311f4cad0c750724299e9b72c26880a4379607f50000000000000000000000000000000000000000000000000000000000000005269f6ab6dda9f4df56ea45583af36660329147f1753f3724ea5eb9ed83e812ca77a0495701e230667832c8999e884e366a61028633ecf951e8cd66d119f381ae5718",
        "sender" : "6a5e65d08dbe3cce190121907013693003993dc4",
        "transaction" : {
            "data" : "0x379607f50000000000000000000000000000000000000000000000000000000000000005",
            "gasLimit" : "0xf710",
            "gasPrice" : "0x09184e72a000",
            "nonce" : "0x0d",
            "r" : "0x006ab6dda9f4df56ea45583af36660329147f1753f3724ea5eb9ed83e812ca77",
            "s" : "0x495701e230667832c8999e884e366a61028633ecf951e8cd66d119f381ae5718",
            "to" : "7c47ef93268a311f4cad0c750724299e9b72c268",
            "v" : "0x26",
            "value" : "0x00"
        }
    }
}