{
  "eip1559_burn_grayGlacier": {
    "blocks": [
      {
        "BlockHeader": {
          "BaseFeePerGas": "0x342770c0",
          "BlobGasUsed": null,
          "Bloom": "0x00000000000000000000000000000000000000000000000000000000000000000000000000000000000000000000000000000000000000000000000000000000000000000000000000000000000000000000000000000000000000000000000000000000000000000000000000000000000000000000000000000000000000000000000000000000000000000000000000000000000000000000000000000000000000000000000000000000000000000000000000000000000000000000000000000000000000000000000000000000000000000000000000000000000000000000000000000000000000000000000000000000000000000000000000000000",
          "Coinbase": "0x0100000000000000000000000000000000000000",
          "Difficulty": "0x20000",
          "ExcessBlobGas": null,
          "ExtraData": "0x",
          "GasLimit": "0x47e7c4",
          "GasUsed": "0x5208",
          "Hash": "0x7891c11e0cc121c578c62c4b42622b909f4ded1a66fea03336c303e6bc8d6f88",
          "MixHash": "0x0000000000000000000000000000000000000000000000000000000000000000",
          "Nonce": "0x0000000000000000",
          "Number": "0x1",
          "ParentBeaconBlockRoot": null,
          "ParentHash": "0xc4265421181cafc43e4b97ae4f21530e37e00320f219a13311482c9c552bcdc7",
          "ReceiptTrie": "0xf78dfb743fbd92ade140711c8bbc542b5e307f0ab7984eff35d751969fe57efa",
          "StateRoot": "0x208dc296c4dc37b673a99aed4837174a2ed7f5380ad802d5aed0295e6795241d",
          "Timestamp": "0xa",
          "TransactionsTrie": "0x4ff793bd96fb3d8d186476e59a5118de9f1813b3f22bd8a64875a535422ac62f",
          "UncleHash": "0x1dcc4de8dec75d7aab85b567b6ccd41ad312451b948a7413f0a142fd40d49347",
          "WithdrawalsRoot": null
        },
        "ExpectException": "",
        "Rlp": "0xf9026cf901faa0c4265421181cafc43e4b97ae4f21530e37e00320f219a13311482c9c552bcdc7a01dcc4de8dec75d7aab85b567b6ccd41ad312451b948a7413f0a142fd40d49347940100000000000000000000000000000000000000a0208dc296c4dc37b673a99aed4837174a2ed7f5380ad802d5aed0295e6795241da04ff793bd96fb3d8d186476e59a5118de9f1813b3f22bd8a64875a535422ac62fa0f78dfb743fbd92ade140711c8bbc542b5e307f0ab7984eff35d751969fe57efab901000000000000000000000000000000000000000000000000000000000000000000000000000000000000000000000000000000000000000000000000000000000000000000000000000000000000000000000000000000000000000000000000000000000000000000000000000000000000000000000000000000000000000000000000000000000000000000000000000000000000000000000000000000000000000000000000000000000000000000000000000000000000000000000000000000000000000000000000000000000000000000000000000000000000000000000000000000000000000000000000000000000000000000000000000000000083020000018347e7c48252080a80a0000000000000000000000000000000000000000000000000000000000000000088000000000000000084342770c0f86cb86a02f86701800285012a05f20082520894000000000000000000000000000000000000aaaa8080c001a083b46f9cdfcb2c087934d9ae79eedeaa53df39b73c58b7cba5c77d69039bdc64a05af6144d3123f5b9850f9c40fc4b8ce02bf4782f6d6bca3f88e553689d66480bc0",
        "UncleHeaders": null
      }
    ],
    "expected": [
      {
        "issuance": {
          "genesisAlloc": "0xde0b6b3a7640000"
        },
        "blockNumber": 0,
        "hash": "0xc4265421181cafc43e4b97ae4f21530e37e00320f219a13311482c9c552bcdc7",
        "parentHash": "0x0000000000000000000000000000000000000000000000000000000000000000"
      },
      {
        "issuance": {
          "reward": "0x1bc16d674ec80000"
        },
        "burn": {
          "1559": "0x10b643590600"
        },
        "blockNumber": 1,
        "hash": "0x7891c11e0cc121c578c62c4b42622b909f4ded1a66fea03336c303e6bc8d6f88",
        "parentHash": "0xc4265421181cafc43e4b97ae4f21530e37e00320f219a13311482c9c552bcdc7"
      }
    ],
    "genesisBlockHeader": {
      "BaseFeePerGas": "0x3b9aca00",
      "BlobGasUsed": null,
      "Bloom": "0x00000000000000000000000000000000000000000000000000000000000000000000000000000000000000000000000000000000000000000000000000000000000000000000000000000000000000000000000000000000000000000000000000000000000000000000000000000000000000000000000000000000000000000000000000000000000000000000000000000000000000000000000000000000000000000000000000000000000000000000000000000000000000000000000000000000000000000000000000000000000000000000000000000000000000000000000000000000000000000000000000000000000000000000000000000000",
      "Coinbase": "0x0000000000000000000000000000000000000000",
      "Difficulty": "0x20000",
      "ExcessBlobGas": null,
      "ExtraData": "0x",
      "GasLimit": "0x47e7c4",
      "GasUsed": "0x0",
      "Hash": "0xc4265421181cafc43e4b97ae4f21530e37e00320f219a13311482c9c552bcdc7",
      "MixHash": "0x0000000000000000000000000000000000000000000000000000000000000000",
      "Nonce": "0x0000000000000000",
      "Number": "0x0",
      "ParentBeaconBlockRoot": null,
      "ParentHash": "0x0000000000000000000000000000000000000000000000000000000000000000",
      "ReceiptTrie": "0x56e81f171bcc55a6ff8345e692c0f86e5b48e01b996cadc001622fb5e363b421",
      "StateRoot": "0x9f88be00eee1114edfd9372f52560aab3980a142efe8b5b39a09644075084275",
      "Timestamp": "0x0",
      "TransactionsTrie": "0x56e81f171bcc55a6ff8345e692c0f86e5b48e01b996cadc001622fb5e363b421",
      "UncleHash": "0x1dcc4de8dec75d7aab85b567b6ccd41ad312451b948a7413f0a142fd40d49347",
      "WithdrawalsRoot": null
    },
    "lastblockhash": "7891c11e0cc121c578c62c4b42622b909f4ded1a66fea03336c303e6bc8d6f88",
    "network": "GrayGlacier",
    "postState": {},
    "pre": {
      "0x71562b71999873db5b286df957af199ec94617f7": {
        "balance": "0xde0b6b3a7640000"
      }
    },
    "sealEngine": ""
  }
}