{
  "omitted_fields_cancun": {
    "blocks": [
      {
        "BlockHeader": {
          "BaseFeePerGas": "0x342770c0",
          "BlobGasUsed": "0x0",
          "Bloom": "0x00000000000000000000000000000000000000000000000000000000000000000000000000000000000000000000000000000000000000000000000000000000000000000000000000000000000000000000000000000000000000000000000000000000000000000000000000000000000000000000000000000000000000000000000000000000000000000000000000000000000000000000000000000000000000000000000000000000000000000000000000000000000000000000000000000000000000000000000000000000000000000000000000000000000000000000000000000000000000000000000000000000000000000000000000000000",
          "Coinbase": "0x0100000000000000000000000000000000000000",
          "Difficulty": "0x0",
          "ExcessBlobGas": "0x0",
          "ExtraData": "0x",
          "GasLimit": "0x47e7c4",
          "GasUsed": "0x0",
          "Hash": "0x2aa3c443e44f958a52d9dc13a3748a23094892675bfedb362afbf6068248572b",
          "MixHash": "0x0000000000000000000000000000000000000000000000000000000000000000",
          "Nonce": "0x0000000000000000",
          "Number": "0x1",
          "ParentBeaconBlockRoot": "0x0000000000000000000000000000000000000000000000000000000000000000",
          "ParentHash": "0xc02ee8ee5b54a40e43f0fa827d431e1bd4f217e941790dda10b2521d1925a20b",
          "ReceiptTrie": "0x56e81f171bcc55a6ff8345e692c0f86e5b48e01b996cadc001622fb5e363b421",
          "StateRoot": "0x56e81f171bcc55a6ff8345e692c0f86e5b48e01b996cadc001622fb5e363b421",
          "Timestamp": "0xa",
          "TransactionsTrie": "0x56e81f171bcc55a6ff8345e692c0f86e5b48e01b996cadc001622fb5e363b421",
          "UncleHash": "0x1dcc4de8dec75d7aab85b567b6ccd41ad312451b948a7413f0a142fd40d49347",
          "WithdrawalsRoot": "0x56e81f171bcc55a6ff8345e692c0f86e5b48e01b996cadc001622fb5e363b421"
        },
        "ExpectException": "",
        "Rlp": "0xf90260f9025aa0c02ee8ee5b54a40e43f0fa827d431e1bd4f217e941790dda10b2521d1925a20ba01dcc4de8dec75d7aab85b567b6ccd41ad312451b948a7413f0a142fd40d49347940100000000000000000000000000000000000000a056e81f171bcc55a6ff8345e692c0f86e5b48e01b996cadc001622fb5e363b421a056e81f171bcc55a6ff8345e692c0f86e5b48e01b996cadc001622fb5e363b421a056e81f171bcc55a6ff8345e692c0f86e5b48e01b996cadc001622fb5e363b421b901000000000000000000000000000000000000000000000000000000000000000000000000000000000000000000000000000000000000000000000000000000000000000000000000000000000000000000000000000000000000000000000000000000000000000000000000000000000000000000000000000000000000000000000000000000000000000000000000000000000000000000000000000000000000000000000000000000000000000000000000000000000000000000000000000000000000000000000000000000000000000000000000000000000000000000000000000000000000000000000000000000000000000000000000000000000080018347e7c4800a80a0000000000000000000000000000000000000000000000000000000000000000088000000000000000084342770c0a056e81f171bcc55a6ff8345e692c0f86e5b48e01b996cadc001622fb5e363b4218080a00000000000000000000000000000000000000000000000000000000000000000a06036c41849da9c076ed79654d434017387a88fb833c2856b32e18218b3341c5fc0c0c0",
        "UncleHeaders": null
      }
    ],
    "expected": [
      {
        "blockNumber": 0,
        "hash": "0xc02ee8ee5b54a40e43f0fa827d431e1bd4f217e941790dda10b2521d1925a20b",
        "parentHash": "0x0000000000000000000000000000000000000000000000000000000000000000"
      },
      {
        "blockNumber": 1,
        "hash": "0x2aa3c443e44f958a52d9dc13a3748a23094892675bfedb362afbf6068248572b",
        "parentHash": "0xc02ee8ee5b54a40e43f0fa827d431e1bd4f217e941790dda10b2521d1925a20b"
      }
    ],
    "genesisBlockHeader": {
      "BaseFeePerGas": "0x3b9aca00",
      "BlobGasUsed": "0x0",
      "Bloom": "0x00000000000000000000000000000000000000000000000000000000000000000000000000000000000000000000000000000000000000000000000000000000000000000000000000000000000000000000000000000000000000000000000000000000000000000000000000000000000000000000000000000000000000000000000000000000000000000000000000000000000000000000000000000000000000000000000000000000000000000000000000000000000000000000000000000000000000000000000000000000000000000000000000000000000000000000000000000000000000000000000000000000000000000000000000000000",
      "Coinbase": "0x0000000000000000000000000000000000000000",
      "Difficulty": "0x20000",
      "ExcessBlobGas": "0x0",
      "ExtraData": "0x",
      "GasLimit": "0x47e7c4",
      "GasUsed": "0x0",
      "Hash": "0xc02ee8ee5b54a40e43f0fa827d431e1bd4f217e941790dda10b2521d1925a20b",
      "MixHash": "0x0000000000000000000000000000000000000000000000000000000000000000",
      "Nonce": "0x0000000000000000",
      "Number": "0x0",
      "ParentBeaconBlockRoot": "0x0000000000000000000000000000000000000000000000000000000000000000",
      "ParentHash": "0x0000000000000000000000000000000000000000000000000000000000000000",
      "ReceiptTrie": "0x56e81f171bcc55a6ff8345e692c0f86e5b48e01b996cadc001622fb5e363b421",
      "StateRoot": "0x56e81f171bcc55a6ff8345e692c0f86e5b48e01b996cadc001622fb5e363b421",
      "Timestamp": "0x0",
      "TransactionsTrie": "0x56e81f171bcc55a6ff8345e692c0f86e5b48e01b996cadc001622fb5e363b421",
      "UncleHash": "0x1dcc4de8dec75d7aab85b567b6ccd41ad312451b948a7413f0a142fd40d49347",
      "WithdrawalsRoot": "0x56e81f171bcc55a6ff8345e692c0f86e5b48e01b996cadc001622fb5e363b421"
    },
    "lastblockhash": "2aa3c443e44f958a52d9dc13a3748a23094892675bfedb362afbf6068248572b",
    "network": "Prague",
    "postState": {},
    "pre": {},
    "sealEngine": ""
  }
}