{
  "selfdestruct_cancun": {
    "blocks": [
      {
        "BlockHeader": {
          "BaseFeePerGas": "0x342770c0",
          "BlobGasUsed": "0x0",
          "Bloom": "0x00000000000000000000000000000000000000000000000000000000000000000000000000000000000000000000000000000000000000000000000000000000000000000000000000000000000000000000000000000000000000000000000000000000000000000000000000000000000000000000000000000000000000000000000000000000000000000000000000000000000000000000000000000000000000000000000000000000000000000000000000000000000000000000000000000000000000000000000000000000000000000000000000000000000000000000000000000000000000000000000000000000000000000000000000000000",
          "Coinbase": "0x0100000000000000000000000000000000000000",
          "Difficulty": "0x0",
          "ExcessBlobGas": "0x0",
          "ExtraData": "0x",
          "GasLimit": "0x47e7c4",
          "GasUsed": "0xf6d4",
          "Hash": "0xd5a0d7e4b5fa687dd355938a24e34229db3c01cd2a999e5023369016371a98ac",
          "MixHash": "0x0000000000000000000000000000000000000000000000000000000000000000",
          "Nonce": "0x0000000000000000",
          "Number": "0x1",
          "ParentBeaconBlockRoot": "0x0000000000000000000000000000000000000000000000000000000000000000",
          "ParentHash": "0x16d2bb0b366d3963bf2d8d75cb4b3bc0f233047c948fa746cbd38ac82bf9cfe9",
          "ReceiptTrie": "0x6bd5a500652764abb50a6bfd441a2f52f9dc2a38644170adb7951804998e0176",
          "StateRoot": "0x90899467081bda450d3ef7a6fb0f0c37ddfefea28c810a38323af55f79122c50",
          "Timestamp": "0xa",
          "TransactionsTrie": "0x8cfce1fa6bf3370d316650ab9ac77c2cfd69c9b3fd4e3def07b9e650769836e0",
          "UncleHash": "0x1dcc4de8dec75d7aab85b567b6ccd41ad312451b948a7413f0a142fd40d49347",
          "WithdrawalsRoot": "0x56e81f171bcc55a6ff8345e692c0f86e5b48e01b996cadc001622fb5e363b421"
        },
        "ExpectException": "",
        "Rlp": "0xf902aef9023ba016d2bb0b366d3963bf2d8d75cb4b3bc0f233047c948fa746cbd38ac82bf9cfe9a01dcc4de8dec75d7aab85b567b6ccd41ad312451b948a7413f0a142fd40d49347940100000000000000000000000000000000000000a090899467081bda450d3ef7a6fb0f0c37ddfefea28c810a38323af55f79122c50a08cfce1fa6bf3370d316650ab9ac77c2cfd69c9b3fd4e3def07b9e650769836e0a06bd5a500652764abb50a6bfd441a2f52f9dc2a38644170adb7951804998e0176b901000000000000000000000000000000000000000000000000000000000000000000000000000000000000000000000000000000000000000000000000000000000000000000000000000000000000000000000000000000000000000000000000000000000000000000000000000000000000000000000000000000000000000000000000000000000000000000000000000000000000000000000000000000000000000000000000000000000000000000000000000000000000000000000000000000000000000000000000000000000000000000000000000000000000000000000000000000000000000000000000000000000000000000000000000000000080018347e7c482f6d40a80a0000000000000000000000000000000000000000000000000000000000000000088000000000000000084342770c0a056e81f171bcc55a6ff8345e692c0f86e5b48e01b996cadc001622fb5e363b4218080a00000000000000000000000000000000000000000000000000000000000000000f86cf86a8085012a05f200830249f094111111111111111111111111111111111111111185012a05f2008026a03c8f16fd94b4c5e56c1c2ff249685a19b2afedb5d6529fc2950a79c3f9c8d599a01a7882a80e333850532a917631347435237f751c9f7a0b810aae8098f5a6225ec0c0",
        "UncleHeaders": null
      }
    ],
    "expected": [
      {
        "issuance": {
          "genesisAlloc": "0x1bc16d674ec80000"
        },
        "blockNumber": 0,
        "hash": "0x16d2bb0b366d3963bf2d8d75cb4b3bc0f233047c948fa746cbd38ac82bf9cfe9",
        "parentHash": "0x0000000000000000000000000000000000000000000000000000000000000000"
      },
      {
        "burn": {
          "1559": "0x32491701df00"
        },
        "blockNumber": 1,
        "hash": "0xd5a0d7e4b5fa687dd355938a24e34229db3c01cd2a999e5023369016371a98ac",
        "parentHash": "0x16d2bb0b366d3963bf2d8d75cb4b3bc0f233047c948fa746cbd38ac82bf9cfe9"
      }
    ],
    "genesisBlockHeader": {
      "BaseFeePerGas": "0x3b9aca00",
      "BlobGasUsed": "0x0",
      "Bloom": "0x00000000000000000000000000000000000000000000000000000000000000000000000000000000000000000000000000000000000000000000000000000000000000000000000000000000000000000000000000000000000000000000000000000000000000000000000000000000000000000000000000000000000000000000000000000000000000000000000000000000000000000000000000000000000000000000000000000000000000000000000000000000000000000000000000000000000000000000000000000000000000000000000000000000000000000000000000000000000000000000000000000000000000000000000000000000",
      "Coinbase": "0x0000000000000000000000000000000000000000",
      "Difficulty": "0x20000",
      "ExcessBlobGas": "0x0",
      "ExtraData": "0x",
      "GasLimit": "0x47e7c4",
      "GasUsed": "0x0",
      "Hash": "0x16d2bb0b366d3963bf2d8d75cb4b3bc0f233047c948fa746cbd38ac82bf9cfe9",
      "MixHash": "0x0000000000000000000000000000000000000000000000000000000000000000",
      "Nonce": "0x0000000000000000",
      "Number": "0x0",
      "ParentBeaconBlockRoot": "0x0000000000000000000000000000000000000000000000000000000000000000",
      "ParentHash": "0x0000000000000000000000000000000000000000000000000000000000000000",
      "ReceiptTrie": "0x56e81f171bcc55a6ff8345e692c0f86e5b48e01b996cadc001622fb5e363b421",
      "StateRoot": "0xb4187a1038a0611c5ca076f45fdbcf3d741c3e126a57b966edd44f844323a72f",
      "Timestamp": "0x0",
      "TransactionsTrie": "0x56e81f171bcc55a6ff8345e692c0f86e5b48e01b996cadc001622fb5e363b421",
      "UncleHash": "0x1dcc4de8dec75d7aab85b567b6ccd41ad312451b948a7413f0a142fd40d49347",
      "WithdrawalsRoot": "0x56e81f171bcc55a6ff8345e692c0f86e5b48e01b996cadc001622fb5e363b421"
    },
    "lastblockhash": "d5a0d7e4b5fa687dd355938a24e34229db3c01cd2a999e5023369016371a98ac",
    "network": "Cancun",
    "postState": {},
    "pre": {
      "0x1111111111111111111111111111111111111111": {
        "balance": "0x0",
        "code": "0x61face60f01b6000527322222222222222222222222222222222222222226000806002600080855af160008103603457600080fd5b60008060008034865af1905060008103604c57600080fd5b5050"
      },
      "0x2222222222222222222222222222222222222222": {
        "balance": "0xde0b6b3a7640000",
        "code": "0x6000357fface000000000000000000000000000000000000000000000000000000000000808203602f57610dad80ff5b5050"
      },
      "0x71562b71999873db5b286df957af199ec94617f7": {
        "balance": "0xde0b6b3a7640000"
      }
    },
    "sealEngine": ""
  },
  "selfdestruct_grayGlacier": {
    "blocks": [
      {
        "BlockHeader": {
          "BaseFeePerGas": "0x342770c0",
          "BlobGasUsed": null,
          "Bloom": "0x00000000000000000000000000000000000000000000000000000000000000000000000000000000000000000000000000000000000000000000000000000000000000000000000000000000000000000000000000000000000000000000000000000000000000000000000000000000000000000000000000000000000000000000000000000000000000000000000000000000000000000000000000000000000000000000000000000000000000000000000000000000000000000000000000000000000000000000000000000000000000000000000000000000000000000000000000000000000000000000000000000000000000000000000000000000",
          "Coinbase": "0x0100000000000000000000000000000000000000",
          "Difficulty": "0x20000",
          "ExcessBlobGas": null,
          "ExtraData": "0x",
          "GasLimit": "0x47e7c4",
          "GasUsed": "0xf6d4",
          "Hash": "0xf7f68f34d07d7acc5dad5ba9bbde99c82347a74471801e7c0c22e5b2ed6d0bc6",
          "MixHash": "0x0000000000000000000000000000000000000000000000000000000000000000",
          "Nonce": "0x0000000000000000",
          "Number": "0x1",
          "ParentBeaconBlockRoot": null,
          "ParentHash": "0xdd9fbe877f0b43987d2f0cda0df176b7939be14f33eb5137f16e6eddf4562706",
          "ReceiptTrie": "0x6bd5a500652764abb50a6bfd441a2f52f9dc2a38644170adb7951804998e0176",
          "StateRoot": "0xbd0a2414c9584c14678caa39773fa17db8aab8667f897b251bb3fc025822e449",
          "Timestamp": "0xa",
          "TransactionsTrie": "0x8cfce1fa6bf3370d316650ab9ac77c2cfd69c9b3fd4e3def07b9e650769836e0",
          "UncleHash": "0x1dcc4de8dec75d7aab85b567b6ccd41ad312451b948a7413f0a142fd40d49347",
          "WithdrawalsRoot": null
        },
        "ExpectException": "",
        "Rlp": "0xf9026cf901faa0dd9fbe877f0b43987d2f0cda0df176b7939be14f33eb5137f16e6eddf4562706a01dcc4de8dec75d7aab85b567b6ccd41ad312451b948a7413f0a142fd40d49347940100000000000000000000000000000000000000a0bd0a2414c9584c14678caa39773fa17db8aab8667f897b251bb3fc025822e449a08cfce1fa6bf3370d316650ab9ac77c2cfd69c9b3fd4e3def07b9e650769836e0a06bd5a500652764abb50a6bfd441a2f52f9dc2a38644170adb7951804998e0176b901000000000000000000000000000000000000000000000000000000000000000000000000000000000000000000000000000000000000000000000000000000000000000000000000000000000000000000000000000000000000000000000000000000000000000000000000000000000000000000000000000000000000000000000000000000000000000000000000000000000000000000000000000000000000000000000000000000000000000000000000000000000000000000000000000000000000000000000000000000000000000000000000000000000000000000000000000000000000000000000000000000000000000000000000000000000083020000018347e7c482f6d40a80a0000000000000000000000000000000000000000000000000000000000000000088000000000000000084342770c0f86cf86a8085012a05f200830249f094111111111111111111111111111111111111111185012a05f2008026a03c8f16fd94b4c5e56c1c2ff249685a19b2afedb5d6529fc2950a79c3f9c8d599a01a7882a80e333850532a917631347435237f751c9f7a0b810aae8098f5a6225ec0",
        "UncleHeaders": null
      }
    ],
    "expected": [
      {
        "issuance": {
          "genesisAlloc": "0x1bc16d674ec80000"
        },
        "blockNumber": 0,
        "hash": "0xdd9fbe877f0b43987d2f0cda0df176b7939be14f33eb5137f16e6eddf4562706",
        "parentHash": "0x0000000000000000000000000000000000000000000000000000000000000000"
      },
      {
        "issuance": {
          "reward": "0x1bc16d674ec80000"
        },
        "burn": {
          "1559": "0x32491701df00",
          "misc": "0x12a05f200"
        },
        "blockNumber": 1,
        "hash": "0xf7f68f34d07d7acc5dad5ba9bbde99c82347a74471801e7c0c22e5b2ed6d0bc6",
        "parentHash": "0xdd9fbe877f0b43987d2f0cda0df176b7939be14f33eb5137f16e6eddf4562706"
      }
    ],
    "genesisBlockHeader": {
      "BaseFeePerGas": "0x3b9aca00",
      "BlobGasUsed": null,
      "Bloom": "0x00000000000000000000000000000000000000000000000000000000000000000000000000000000000000000000000000000000000000000000000000000000000000000000000000000000000000000000000000000000000000000000000000000000000000000000000000000000000000000000000000000000000000000000000000000000000000000000000000000000000000000000000000000000000000000000000000000000000000000000000000000000000000000000000000000000000000000000000000000000000000000000000000000000000000000000000000000000000000000000000000000000000000000000000000000000",
      "Coinbase": "0x0000000000000000000000000000000000000000",
      "Difficulty": "0x20000",
      "ExcessBlobGas": null,
      "ExtraData": "0x",
      "GasLimit": "0x47e7c4",
      "GasUsed": "0x0",
      "Hash": "0xdd9fbe877f0b43987d2f0cda0df176b7939be14f33eb5137f16e6eddf4562706",
      "MixHash": "0x0000000000000000000000000000000000000000000000000000000000000000",
      "Nonce": "0x0000000000000000",
      "Number": "0x0",
      "ParentBeaconBlockRoot": null,
      "ParentHash": "0x0000000000000000000000000000000000000000000000000000000000000000",
      "ReceiptTrie": "0x56e81f171bcc55a6ff8345e692c0f86e5b48e01b996cadc001622fb5e363b421",
      "StateRoot": "0xb4187a1038a0611c5ca076f45fdbcf3d741c3e126a57b966edd44f844323a72f",
      "Timestamp": "0x0",
      "TransactionsTrie": "0x56e81f171bcc55a6ff8345e692c0f86e5b48e01b996cadc001622fb5e363b421",
      "UncleHash": "0x1dcc4de8dec75d7aab85b567b6ccd41ad312451b948a7413f0a142fd40d49347",
      "WithdrawalsRoot": null
    },
    "lastblockhash": "f7f68f34d07d7acc5dad5ba9bbde99c82347a74471801e7c0c22e5b2ed6d0bc6",
    "network": "GrayGlacier",
    "postState": {},
    "pre": {
      "0x1111111111111111111111111111111111111111": {
        "balance": "0x0",
        "code": "0x61face60f01b6000527322222222222222222222222222222222222222226000806002600080855af160008103603457600080fd5b60008060008034865af1905060008103604c57600080fd5b5050"
      },
      "0x2222222222222222222222222222222222222222": {
        "balance": "0xde0b6b3a7640000",
        "code": "0x6000357fface000000000000000000000000000000000000000000000000000000000000808203602f57610dad80ff5b5050"
      },
      "0x71562b71999873db5b286df957af199ec94617f7": {
        "balance": "0xde0b6b3a7640000"
      }
    },
    "sealEngine": ""
  }
}