{
  "withdrawals_cancun": {
    "blocks": [
      {
        "BlockHeader": {
          "BaseFeePerGas": "0x342770c0",
          "BlobGasUsed": "0x0",
          "Bloom": "0x00000000000000000000000000000000000000000000000000000000000000000000000000000000000000000000000000000000000000000000000000000000000000000000000000000000000000000000000000000000000000000000000000000000000000000000000000000000000000000000000000000000000000000000000000000000000000000000000000000000000000000000000000000000000000000000000000000000000000000000000000000000000000000000000000000000000000000000000000000000000000000000000000000000000000000000000000000000000000000000000000000000000000000000000000000000",
          "Coinbase": "0x0100000000000000000000000000000000000000",
          "Difficulty": "0x0",
          "ExcessBlobGas": "0x0",
          "ExtraData": "0x",
          "GasLimit": "0x47e7c4",
          "GasUsed": "0x0",
          "Hash": "0x273c5dc5beed8249b8103b9a168b1c693c17f371be39d675dec50120f4d93402",
          "MixHash": "0x0000000000000000000000000000000000000000000000000000000000000000",
          "Nonce": "0x0000000000000000",
          "Number": "0x1",
          "ParentBeaconBlockRoot": "0x0000000000000000000000000000000000000000000000000000000000000000",
          "ParentHash": "0x52f276d96f0afaaf2c3cb358868bdc2779c4b0cb8de3e7e5302e247c0b66a703",
          "ReceiptTrie": "0x56e81f171bcc55a6ff8345e692c0f86e5b48e01b996cadc001622fb5e363b421",
          "StateRoot": "0x6e2ae8cee635793fd04490934e7b7d8f727c74534c5a01e42051116e12ba6a1a",
          "Timestamp": "0xa",
          "TransactionsTrie": "0x56e81f171bcc55a6ff8345e692c0f86e5b48e01b996cadc001622fb5e363b421",
          "UncleHash": "0x1dcc4de8dec75d7aab85b567b6ccd41ad312451b948a7413f0a142fd40d49347",
          "WithdrawalsRoot": "0xad2dcd8b054415c239ed4cdfff00f865a00f28676fc12e33fec0ce91e4be10d6"
        },
        "ExpectException": "",
        "Rlp": "0xf9025af90239a052f276d96f0afaaf2c3cb358868bdc2779c4b0cb8de3e7e5302e247c0b66a703a01dcc4de8dec75d7aab85b567b6ccd41ad312451b948a7413f0a142fd40d49347940100000000000000000000000000000000000000a06e2ae8cee635793fd04490934e7b7d8f727c74534c5a01e42051116e12ba6a1aa056e81f171bcc55a6ff8345e692c0f86e5b48e01b996cadc001622fb5e363b421a056e81f171bcc55a6ff8345e692c0f86e5b48e01b996cadc001622fb5e363b421b901000000000000000000000000000000000000000000000000000000000000000000000000000000000000000000000000000000000000000000000000000000000000000000000000000000000000000000000000000000000000000000000000000000000000000000000000000000000000000000000000000000000000000000000000000000000000000000000000000000000000000000000000000000000000000000000000000000000000000000000000000000000000000000000000000000000000000000000000000000000000000000000000000000000000000000000000000000000000000000000000000000000000000000000000000000000080018347e7c4800a80a0000000000000000000000000000000000000000000000000000000000000000088000000000000000084342770c0a0ad2dcd8b054415c239ed4cdfff00f865a00f28676fc12e33fec0ce91e4be10d68080a00000000000000000000000000000000000000000000000000000000000000000c0c0dbda802a94ee00000000000000000000000000000000000000820539",
        "UncleHeaders": null
      }
    ],
    "expected": [
      {
        "blockNumber": 0,
        "hash": "0x52f276d96f0afaaf2c3cb358868bdc2779c4b0cb8de3e7e5302e247c0b66a703",
        "parentHash": "0x0000000000000000000000000000000000000000000000000000000000000000"
      },
      {
        "issuance": {
          "withdrawals": "0x1374b68fa00"
        },
        "blockNumber": 1,
        "hash": "0x273c5dc5beed8249b8103b9a168b1c693c17f371be39d675dec50120f4d93402",
        "parentHash": "0x52f276d96f0afaaf2c3cb358868bdc2779c4b0cb8de3e7e5302e247c0b66a703"
      }
    ],
    "genesisBlockHeader": {
      "BaseFeePerGas": "0x3b9aca00",
      "BlobGasUsed": "0x0",
      "Bloom": "0x00000000000000000000000000000000000000000000000000000000000000000000000000000000000000000000000000000000000000000000000000000000000000000000000000000000000000000000000000000000000000000000000000000000000000000000000000000000000000000000000000000000000000000000000000000000000000000000000000000000000000000000000000000000000000000000000000000000000000000000000000000000000000000000000000000000000000000000000000000000000000000000000000000000000000000000000000000000000000000000000000000000000000000000000000000000",
      "Coinbase": "0x0000000000000000000000000000000000000000",
      "Difficulty": "0x20000",
      "ExcessBlobGas": "0x0",
      "ExtraData": "0x",
      "GasLimit": "0x47e7c4",
      "GasUsed": "0x0",
      "Hash": "0x52f276d96f0afaaf2c3cb358868bdc2779c4b0cb8de3e7e5302e247c0b66a703",
      "MixHash": "0x0000000000000000000000000000000000000000000000000000000000000000",
      "Nonce": "0x0000000000000000",
      "Number": "0x0",
      "ParentBeaconBlockRoot": "0x0000000000000000000000000000000000000000000000000000000000000000",
      "ParentHash": "0x0000000000000000000000000000000000000000000000000000000000000000",
      "ReceiptTrie": "0x56e81f171bcc55a6ff8345e692c0f86e5b48e01b996cadc001622fb5e363b421",
      "StateRoot": "0x56e81f171bcc55a6ff8345e692c0f86e5b48e01b996cadc001622fb5e363b421",
      "Timestamp": "0x0",
      "TransactionsTrie": "0x56e81f171bcc55a6ff8345e692c0f86e5b48e01b996cadc001622fb5e363b421",
      "UncleHash": "0x1dcc4de8dec75d7aab85b567b6ccd41ad312451b948a7413f0a142fd40d49347",
      "WithdrawalsRoot": "0x56e81f171bcc55a6ff8345e692c0f86e5b48e01b996cadc001622fb5e363b421"
    },
    "lastblockhash": "273c5dc5beed8249b8103b9a168b1c693c17f371be39d675dec50120f4d93402",
    "network": "Cancun",
    "postState": {},
    "pre": {},
    "sealEngine": ""
  }
}