{
  "rlp": "f916e7f901f6a02bb50258633ccfdf3f5b07258e3c9866ed9f878a7582230569d4ffc45952a66ca01dcc4de8dec75d7aab85b567b6ccd41ad312451b948a7413f0a142fd40d49347940100000000000000000000000000000000000000a0a55899fdbfa99a7feaabb51608ce4b0c2912596f2229ffeacb2ef05fb55b71b7a0e28fe6b703978af3d2eda206f6f959e2d833afaf418028a9503271f4f20a40d9a03f8954dac53eb0caa13809bae6c1bbfb729aa10778ac528e62113114b758e633b901000000000000000000000000000000000000000000000000000000000000000000000000000000000000000000000000000000000000000000000000000000000000000000000000000000000000000000000000000000000000000000000000000000000000000000000000000000000000000000000000000000000000000000000000000000000000000000000000000000000000000000000000000000000000000000000000000000000000000000000000000000000000000000000000000000000000000000000000000000000000000000000000000000000000000000000000000000000000000000000000000000000000000000000000000000000083020000088347e7c48307b6585080a00000000000000000000000000000000000000000000000000000000000000000880000000000000000f914eab902eb01f902e786796f6c6f76321c0a8301e24194000000000000000000000000000000000000aaaa8080f9027df859940000000000000000000000000000000000000000f842a00000000000000000000000000000000000000000000000000000000000000000a00000000000000000000000000000000000000000000000000000000000000000f859940100000000000000000000000000000000000000f842a00000000000000000000000000000000000000000000000000000000000000000a00100000000000000000000000000000000000000000000000000000000000000f859940200000000000000000000000000000000000000f842a00000000000000000000000000000000000000000000000000000000000000000a00200000000000000000000000000000000000000000000000000000000000000f859940300000000000000000000000000000000000000f842a00000000000000000000000000000000000000000000000000000000000000000a00300000000000000000000000000000000000000000000000000000000000000f859940400000000000000000000000000000000000000f842a00000000000000000000000000000000000000000000000000000000000000000a00400000000000000000000000000000000000000000000000000000000000000f859940500000000000000000000000000000000000000f842a00000000000000000000000000000000000000000000000000000000000000000a00500000000000000000000000000000000000000000000000000000000000000f859940600000000000000000000000000000000000000f842a00000000000000000000000000000000000000000000000000000000000000000a0060000000000000000000000000000000000000000000000000000000000000080a0643459a4e9aba8d232302442f95e7f6d89b06f273443a8710f9bb55496df1994a06e3f8765c4f399486454c64cf54b1396df2812c7d5fdcadb47a66f83ec553cd5b902eb01f902e786796f6c6f76321d0a8301e24194000000000000000000000000000000000000aaaa8080f9027df859940000000000000000000000000000000000000000f842a00000000000000000000000000000000000000000000000000000000000000000a00000000000000000000000000000000000000000000000000000000000000000f859940100000000000000000000000000000000000000f842a00000000000000000000000000000000000000000000000000000000000000000a00100000000000000000000000000000000000000000000000000000000000000f859940200000000000000000000000000000000000000f842a00000000000000000000000000000000000000000000000000000000000000000a00200000000000000000000000000000000000000000000000000000000000000f859940300000000000000000000000000000000000000f842a00000000000000000000000000000000000000000000000000000000000000000a00300000000000000000000000000000000000000000000000000000000000000f859940400000000000000000000000000000000000000f842a00000000000000000000000000000000000000000000000000000000000000000a00400000000000000000000000000000000000000000000000000000000000000f859940500000000000000000000000000000000000000f842a00000000000000000000000000000000000000000000000000000000000000000a00500000000000000000000000000000000000000000000000000000000000000f859940600000000000000000000000000000000000000f842a00000000000000000000000000000000000000000000000000000000000000000a0060000000000000000000000000000000000000000000000000000000000000001a09862a3737fe1d45c7b256ff22a50d567b88c04212b39396ab41a1e9c62d4f44ea04c797c4b78681cc16aea9a18e59923264c744c17d9861560693473f927c28f54b902eb01f902e786796f6c6f76321e0a8301e24194000000000000000000000000000000000000aaaa8080f9027df859940000000000000000000000000000000000000000f842a00000000000000000000000000000000000000000000000000000000000000000a00000000000000000000000000000000000000000000000000000000000000000f859940100000000000000000000000000000000000000f842a00000000000000000000000000000000000000000000000000000000000000000a00100000000000000000000000000000000000000000000000000000000000000f859940200000000000000000000000000000000000000f842a00000000000000000000000000000000000000000000000000000000000000000a00200000000000000000000000000000000000000000000000000000000000000f859940300000000000000000000000000000000000000f842a00000000000000000000000000000000000000000000000000000000000000000a00300000000000000000000000000000000000000000000000000000000000000f859940400000000000000000000000000000000000000f842a00000000000000000000000000000000000000000000000000000000000000000a00400000000000000000000000000000000000000000000000000000000000000f859940500000000000000000000000000000000000000f842a00000000000000000000000000000000000000000000000000000000000000000a00500000000000000000000000000000000000000000000000000000000000000f859940600000000000000000000000000000000000000f842a00000000000000000000000000000000000000000000000000000000000000000a0060000000000000000000000000000000000000000000000000000000000000080a08e24d4c713f644e38223cd600c56c65fd64d74fa3c1659ebf2ef719284c74802a00412a2733ba0c5fa7da40dc6b199351f0c04ed4c455607546d25d6efbc3e9a12b902eb01f902e786796f6c6f76321f0a8301e24194000000000000000000000000000000000000aaaa8080f9027df859940000000000000000000000000000000000000000f842a00000000000000000000000000000000000000000000000000000000000000000a00000000000000000000000000000000000000000000000000000000000000000f859940100000000000000000000000000000000000000f842a00000000000000000000000000000000000000000000000000000000000000000a00100000000000000000000000000000000000000000000000000000000000000f859940200000000000000000000000000000000000000f842a00000000000000000000000000000000000000000000000000000000000000000a00200000000000000000000000000000000000000000000000000000000000000f859940300000000000000000000000000000000000000f842a00000000000000000000000000000000000000000000000000000000000000000a00300000000000000000000000000000000000000000000000000000000000000f859940400000000000000000000000000000000000000f842a00000000000000000000000000000000000000000000000000000000000000000a00400000000000000000000000000000000000000000000000000000000000000f859940500000000000000000000000000000000000000f842a00000000000000000000000000000000000000000000000000000000000000000a00500000000000000000000000000000000000000000000000000000000000000f859940600000000000000000000000000000000000000f842a00000000000000000000000000000000000000000000000000000000000000000a0060000000000000000000000000000000000000000000000000000000000000080a0fc7721a6ca78e74eaadbbbbbfd6fa990fd9993a29a6d552f5c12d7256feebaa5a0166a3b40a0e0d86b95dac8a83dd1f0eb61f107bcb6f670cc114c3dd67f193d01b902eb01f902e786796f6c6f7632200a8301e24194000000000000000000000000000000000000aaaa8080f9027df859940000000000000000000000000000000000000000f842a00000000000000000000000000000000000000000000000000000000000000000a00000000000000000000000000000000000000000000000000000000000000000f859940100000000000000000000000000000000000000f842a00000000000000000000000000000000000000000000000000000000000000000a00100000000000000000000000000000000000000000000000000000000000000f859940200000000000000000000000000000000000000f842a00000000000000000000000000000000000000000000000000000000000000000a00200000000000000000000000000000000000000000000000000000000000000f859940300000000000000000000000000000000000000f842a00000000000000000000000000000000000000000000000000000000000000000a00300000000000000000000000000000000000000000000000000000000000000f859940400000000000000000000000000000000000000f842a00000000000000000000000000000000000000000000000000000000000000000a00400000000000000000000000000000000000000000000000000000000000000f859940500000000000000000000000000000000000000f842a00000000000000000000000000000000000000000000000000000000000000000a00500000000000000000000000000000000000000000000000000000000000000f859940600000000000000000000000000000000000000f842a00000000000000000000000000000000000000000000000000000000000000000a0060000000000000000000000000000000000000000000000000000000000000080a0d1dac5d229b36766e7cc6a3d87596c6b72c1b579cccdc62a5b4438a04a46d3fea0053a8afe9e411247a65370e1d4e83cdcec9dc41a0b595999f3e41b07be014d10b902eb01f902e786796f6c6f7632210a8301e24194000000000000000000000000000000000000aaaa8080f9027df859940000000000000000000000000000000000000000f842a00000000000000000000000000000000000000000000000000000000000000000a00000000000000000000000000000000000000000000000000000000000000000f859940100000000000000000000000000000000000000f842a00000000000000000000000000000000000000000000000000000000000000000a00100000000000000000000000000000000000000000000000000000000000000f859940200000000000000000000000000000000000000f842a00000000000000000000000000000000000000000000000000000000000000000a00200000000000000000000000000000000000000000000000000000000000000f859940300000000000000000000000000000000000000f842a00000000000000000000000000000000000000000000000000000000000000000a00300000000000000000000000000000000000000000000000000000000000000f859940400000000000000000000000000000000000000f842a00000000000000000000000000000000000000000000000000000000000000000a00400000000000000000000000000000000000000000000000000000000000000f859940500000000000000000000000000000000000000f842a00000000000000000000000000000000000000000000000000000000000000000a00500000000000000000000000000000000000000000000000000000000000000f859940600000000000000000000000000000000000000f842a00000000000000000000000000000000000000000000000000000000000000000a0060000000000000000000000000000000000000000000000000000000000000001a0251ab5147fb99b3c222fc99157ef6a6603659c2465bb9bb2662679fce6c12077a03c4ed0c45754fc479583126bf2d88c0bf323310f2f946f3bbeee44e73bf744c0b902eb01f902e786796f6c6f7632220a8301e24194000000000000000000000000000000000000aaaa8080f9027df859940000000000000000000000000000000000000000f842a00000000000000000000000000000000000000000000000000000000000000000a00000000000000000000000000000000000000000000000000000000000000000f859940100000000000000000000000000000000000000f842a00000000000000000000000000000000000000000000000000000000000000000a00100000000000000000000000000000000000000000000000000000000000000f859940200000000000000000000000000000000000000f842a00000000000000000000000000000000000000000000000000000000000000000a00200000000000000000000000000000000000000000000000000000000000000f859940300000000000000000000000000000000000000f842a00000000000000000000000000000000000000000000000000000000000000000a00300000000000000000000000000000000000000000000000000000000000000f859940400000000000000000000000000000000000000f842a00000000000000000000000000000000000000000000000000000000000000000a00400000000000000000000000000000000000000000000000000000000000000f859940500000000000000000000000000000000000000f842a00000000000000000000000000000000000000000000000000000000000000000a00500000000000000000000000000000000000000000000000000000000000000f859940600000000000000000000000000000000000000f842a00000000000000000000000000000000000000000000000000000000000000000a0060000000000000000000000000000000000000000000000000000000000000001a0664de330a9c9b3e4041e347332a30d0f88358063de52c6cefcc5a8ce397f96f3a013ea85012f7a62739610e48ea51e170275c56f0f8d1896520f1ef84d4f3e389ef866230a8301e24194000000000000000000000000000000000000aaaa808086f2ded8deec87a0a3bdc8174d2fbe9c404ff490e77555039f1c37bddbe60d8e60c1228f9964f02da015572f4a595159746f9f11554059312ccdbc05e6bf8831469338bb78dcb43b5ac0",
  "json": {
    "header": {
      "parentHash": "0x2bb50258633ccfdf3f5b07258e3c9866ed9f878a7582230569d4ffc45952a66c",
      "sha3Uncles": "0x1dcc4de8dec75d7aab85b567b6ccd41ad312451b948a7413f0a142fd40d49347",
      "miner": "0x0100000000000000000000000000000000000000",
      "stateRoot": "0xa55899fdbfa99a7feaabb51608ce4b0c2912596f2229ffeacb2ef05fb55b71b7",
      "transactionsRoot": "0xe28fe6b703978af3d2eda206f6f959e2d833afaf418028a9503271f4f20a40d9",
      "receiptsRoot": "0x3f8954dac53eb0caa13809bae6c1bbfb729aa10778ac528e62113114b758e633",
      "logsBloom": "0x00000000000000000000000000000000000000000000000000000000000000000000000000000000000000000000000000000000000000000000000000000000000000000000000000000000000000000000000000000000000000000000000000000000000000000000000000000000000000000000000000000000000000000000000000000000000000000000000000000000000000000000000000000000000000000000000000000000000000000000000000000000000000000000000000000000000000000000000000000000000000000000000000000000000000000000000000000000000000000000000000000000000000000000000000000000",
      "difficulty": "0x20000",
      "number": "0x8",
      "gasLimit": "0x47e7c4",
      "gasUsed": "0x7b658",
      "timestamp": "0x50",
      "extraData": "0x",
      "mixHash": "0x0000000000000000000000000000000000000000000000000000000000000000",
      "nonce": "0x0000000000000000",
      "hash": "0xfa221b6492050cfc24b906b20ce208b3dc4ba841e564395f2900c4a175158a1e"
    },
    "transactions": [
      {
        "type": "0x1",
        "chainId": "0x796f6c6f7632",
        "nonce": "0x1c",
        "gasPrice": "0xa",
        "gas": "0x1e241",
        "to": "0x000000000000000000000000000000000000aaaa",
        "value": "0x0",
        "input": "0x",
        "accessList": [
          {
            "address": "0x0000000000000000000000000000000000000000",
            "storageKeys": [
              "0x0000000000000000000000000000000000000000000000000000000000000000",
              "0x0000000000000000000000000000000000000000000000000000000000000000"
            ]
          },
          {
            "address": "0x0100000000000000000000000000000000000000",
            "storageKeys": [
              "0x0000000000000000000000000000000000000000000000000000000000000000",
              "0x0100000000000000000000000000000000000000000000000000000000000000"
            ]
          },
          {
            "address": "0x0200000000000000000000000000000000000000",
            "storageKeys": [
              "0x0000000000000000000000000000000000000000000000000000000000000000",
              "0x0200000000000000000000000000000000000000000000000000000000000000"
            ]
          },
          {
            "address": "0x0300000000000000000000000000000000000000",
            "storageKeys": [
              "0x0000000000000000000000000000000000000000000000000000000000000000",
              "0x0300000000000000000000000000000000000000000000000000000000000000"
            ]
          },
          {
            "address": "0x0400000000000000000000000000000000000000",
            "storageKeys": [
              "0x0000000000000000000000000000000000000000000000000000000000000000",
              "0x0400000000000000000000000000000000000000000000000000000000000000"
            ]
          },
          {
            "address": "0x0500000000000000000000000000000000000000",
            "storageKeys": [
              "0x0000000000000000000000000000000000000000000000000000000000000000",
              "0x0500000000000000000000000000000000000000000000000000000000000000"
            ]
          },
          {
            "address": "0x0600000000000000000000000000000000000000",
            "storageKeys": [
              "0x0000000000000000000000000000000000000000000000000000000000000000",
              "0x0600000000000000000000000000000000000000000000000000000000000000"
            ]
          }
        ],
        "v": "0x0",
        "r": "0x643459a4e9aba8d232302442f95e7f6d89b06f273443a8710f9bb55496df1994",
        "s": "0x6e3f8765c4f399486454c64cf54b1396df2812c7d5fdcadb47a66f83ec553cd5",
        "hash": "0x21840bf8b516a15569f253f9b7900d052f86f9173b02a240ccbddbc38f912498"
      },
      {
        "type": "0x1",
        "chainId": "0x796f6c6f7632",
        "nonce": "0x1d",
        "gasPrice": "0xa",
        "gas": "0x1e241",
        "to": "0x000000000000000000000000000000000000aaaa",
        "value": "0x0",
        "input": "0x",
        "accessList": [
          {
            "address": "0x0000000000000000000000000000000000000000",
            "storageKeys": [
              "0x0000000000000000000000000000000000000000000000000000000000000000",
              "0x0000000000000000000000000000000000000000000000000000000000000000"
            ]
          },
          {
            "address": "0x0100000000000000000000000000000000000000",
            "storageKeys": [
              "0x0000000000000000000000000000000000000000000000000000000000000000",
              "0x0100000000000000000000000000000000000000000000000000000000000000"
            ]
          },
          {
            "address": "0x0200000000000000000000000000000000000000",
            "storageKeys": [
              "0x0000000000000000000000000000000000000000000000000000000000000000",
              "0x0200000000000000000000000000000000000000000000000000000000000000"
            ]
          },
          {
            "address": "0x0300000000000000000000000000000000000000",
            "storageKeys": [
              "0x0000000000000000000000000000000000000000000000000000000000000000",
              "0x0300000000000000000000000000000000000000000000000000000000000000"
            ]
          },
          {
            "address": "0x0400000000000000000000000000000000000000",
            "storageKeys": [
              "0x0000000000000000000000000000000000000000000000000000000000000000",
              "0x0400000000000000000000000000000000000000000000000000000000000000"
            ]
          },
          {
            "address": "0x0500000000000000000000000000000000000000",
            "storageKeys": [
              "0x0000000000000000000000000000000000000000000000000000000000000000",
              "0x0500000000000000000000000000000000000000000000000000000000000000"
            ]
          },
          {
            "address": "0x0600000000000000000000000000000000000000",
            "storageKeys": [
              "0x0000000000000000000000000000000000000000000000000000000000000000",
              "0x0600000000000000000000000000000000000000000000000000000000000000"
            ]
          }
        ],
        "v": "0x1",
        "r": "0x9862a3737fe1d45c7b256ff22a50d567b88c04212b39396ab41a1e9c62d4f44e",
        "s": "0x4c797c4b78681cc16aea9a18e59923264c744c17d9861560693473f927c28f54",
        "hash": "0x5ed7369fea0e90818ced675a993efa699628286583417244fb136a4f73a2e90f"
      },
      {
        "type": "0x1",
        "chainId": "0x796f6c6f7632",
        "nonce": "0x1e",
        "gasPrice": "0xa",
        "gas": "0x1e241",
        "to": "0x000000000000000000000000000000000000aaaa",
        "value": "0x0",
        "input": "0x",
        "accessList": [
          {
            "address": "0x0000000000000000000000000000000000000000",
            "storageKeys": [
              "0x0000000000000000000000000000000000000000000000000000000000000000",
              "0x0000000000000000000000000000000000000000000000000000000000000000"
            ]
          },
          {
            "address": "0x0100000000000000000000000000000000000000",
            "storageKeys": [
              "0x0000000000000000000000000000000000000000000000000000000000000000",
              "0x0100000000000000000000000000000000000000000000000000000000000000"
            ]
          },
          {
            "address": "0x0200000000000000000000000000000000000000",
            "storageKeys": [
              "0x0000000000000000000000000000000000000000000000000000000000000000",
              "0x0200000000000000000000000000000000000000000000000000000000000000"
            ]
          },
          {
            "address": "0x0300000000000000000000000000000000000000",
            "storageKeys": [
              "0x0000000000000000000000000000000000000000000000000000000000000000",
              "0x0300000000000000000000000000000000000000000000000000000000000000"
            ]
          },
          {
            "address": "0x0400000000000000000000000000000000000000",
            "storageKeys": [
              "0x0000000000000000000000000000000000000000000000000000000000000000",
              "0x0400000000000000000000000000000000000000000000000000000000000000"
            ]
          },
          {
            "address": "0x0500000000000000000000000000000000000000",
            "storageKeys": [
              "0x0000000000000000000000000000000000000000000000000000000000000000",
              "0x0500000000000000000000000000000000000000000000000000000000000000"
            ]
          },
          {
            "address": "0x0600000000000000000000000000000000000000",
            "storageKeys": [
              "0x0000000000000000000000000000000000000000000000000000000000000000",
              "0x0600000000000000000000000000000000000000000000000000000000000000"
            ]
          }
        ],
        "v": "0x0",
        "r": "0x8e24d4c713f644e38223cd600c56c65fd64d74fa3c1659ebf2ef719284c74802",
        "s": "0x412a2733ba0c5fa7da40dc6b199351f0c04ed4c455607546d25d6efbc3e9a12",
        "hash": "0x24c0cd928e6bce21401dce170c98a80acd33ef4c6c6be3d0ea58127c0a049185"
      },
      {
        "type": "0x1",
        "chainId": "0x796f6c6f7632",
        "nonce": "0x1f",
        "gasPrice": "0xa",
        "gas": "0x1e241",
        "to": "0x000000000000000000000000000000000000aaaa",
        "value": "0x0",
        "input": "0x",
        "accessList": [
          {
            "address": "0x0000000000000000000000000000000000000000",
            "storageKeys": [
              "0x0000000000000000000000000000000000000000000000000000000000000000",
              "0x0000000000000000000000000000000000000000000000000000000000000000"
            ]
          },
          {
            "address": "0x0100000000000000000000000000000000000000",
            "storageKeys": [
              "0x0000000000000000000000000000000000000000000000000000000000000000",
              "0x0100000000000000000000000000000000000000000000000000000000000000"
            ]
          },
          {
            "address": "0x0200000000000000000000000000000000000000",
            "storageKeys": [
              "0x0000000000000000000000000000000000000000000000000000000000000000",
              "0x0200000000000000000000000000000000000000000000000000000000000000"
            ]
          },
          {
            "address": "0x0300000000000000000000000000000000000000",
            "storageKeys": [
              "0x0000000000000000000000000000000000000000000000000000000000000000",
              "0x0300000000000000000000000000000000000000000000000000000000000000"
            ]
          },
          {
            "address": "0x0400000000000000000000000000000000000000",
            "storageKeys": [
              "0x0000000000000000000000000000000000000000000000000000000000000000",
              "0x0400000000000000000000000000000000000000000000000000000000000000"
            ]
          },
          {
            "address": "0x0500000000000000000000000000000000000000",
            "storageKeys": [
              "0x0000000000000000000000000000000000000000000000000000000000000000",
              "0x0500000000000000000000000000000000000000000000000000000000000000"
            ]
          },
          {
            "address": "0x0600000000000000000000000000000000000000",
            "storageKeys": [
              "0x0000000000000000000000000000000000000000000000000000000000000000",
              "0x0600000000000000000000000000000000000000000000000000000000000000"
            ]
          }
        ],
        "v": "0x0",
        "r": "0xfc7721a6ca78e74eaadbbbbbfd6fa990fd9993a29a6d552f5c12d7256feebaa5",
        "s": "0x166a3b40a0e0d86b95dac8a83dd1f0eb61f107bcb6f670cc114c3dd67f193d01",
        "hash": "0x755cc55d927e952bff7e51f70471c7a8b53cbbb76e855d0fe6148afc099967f8"
      },
      {
        "type": "0x1",
        "chainId": "0x796f6c6f7632",
        "nonce": "0x20",
        "gasPrice": "0xa",
        "gas": "0x1e241",
        "to": "0x000000000000000000000000000000000000aaaa",
        "value": "0x0",
        "input": "0x",
        "accessList": [
          {
            "address": "0x0000000000000000000000000000000000000000",
            "storageKeys": [
              "0x0000000000000000000000000000000000000000000000000000000000000000",
              "0x0000000000000000000000000000000000000000000000000000000000000000"
            ]
          },
          {
            "address": "0x0100000000000000000000000000000000000000",
            "storageKeys": [
              "0x0000000000000000000000000000000000000000000000000000000000000000",
              "0x0100000000000000000000000000000000000000000000000000000000000000"
            ]
          },
          {
            "address": "0x0200000000000000000000000000000000000000",
            "storageKeys": [
              "0x0000000000000000000000000000000000000000000000000000000000000000",
              "0x0200000000000000000000000000000000000000000000000000000000000000"
            ]
          },
          {
            "address": "0x0300000000000000000000000000000000000000",
            "storageKeys": [
              "0x0000000000000000000000000000000000000000000000000000000000000000",
              "0x0300000000000000000000000000000000000000000000000000000000000000"
            ]
          },
          {
            "address": "0x0400000000000000000000000000000000000000",
            "storageKeys": [
              "0x0000000000000000000000000000000000000000000000000000000000000000",
              "0x0400000000000000000000000000000000000000000000000000000000000000"
            ]
          },
          {
            "address": "0x0500000000000000000000000000000000000000",
            "storageKeys": [
              "0x0000000000000000000000000000000000000000000000000000000000000000",
              "0x0500000000000000000000000000000000000000000000000000000000000000"
            ]
          },
          {
            "address": "0x0600000000000000000000000000000000000000",
            "storageKeys": [
              "0x0000000000000000000000000000000000000000000000000000000000000000",
              "0x0600000000000000000000000000000000000000000000000000000000000000"
            ]
          }
        ],
        "v": "0x0",
        "r": "0xd1dac5d229b36766e7cc6a3d87596c6b72c1b579cccdc62a5b4438a04a46d3fe",
        "s": "0x53a8afe9e411247a65370e1d4e83cdcec9dc41a0b595999f3e41b07be014d10",
        "hash": "0xabd736140ee8fe129b0db888c7808298e015be3f52cf530bfb064828b9801806"
      },
      {
        "type": "0x1",
        "chainId": "0x796f6c6f7632",
        "nonce": "0x21",
        "gasPrice": "0xa",
        "gas": "0x1e241",
        "to": "0x000000000000000000000000000000000000aaaa",
        "value": "0x0",
        "input": "0x",
        "accessList": [
          {
            "address": "0x0000000000000000000000000000000000000000",
            "storageKeys": [
              "0x0000000000000000000000000000000000000000000000000000000000000000",
              "0x0000000000000000000000000000000000000000000000000000000000000000"
            ]
          },
          {
            "address": "0x0100000000000000000000000000000000000000",
            "storageKeys": [
              "0x0000000000000000000000000000000000000000000000000000000000000000",
              "0x0100000000000000000000000000000000000000000000000000000000000000"
            ]
          },
          {
            "address": "0x0200000000000000000000000000000000000000",
            "storageKeys": [
              "0x0000000000000000000000000000000000000000000000000000000000000000",
              "0x0200000000000000000000000000000000000000000000000000000000000000"
            ]
          },
          {
            "address": "0x0300000000000000000000000000000000000000",
            "storageKeys": [
              "0x0000000000000000000000000000000000000000000000000000000000000000",
              "0x0300000000000000000000000000000000000000000000000000000000000000"
            ]
          },
          {
            "address": "0x0400000000000000000000000000000000000000",
            "storageKeys": [
              "0x0000000000000000000000000000000000000000000000000000000000000000",
              "0x0400000000000000000000000000000000000000000000000000000000000000"
            ]
          },
          {
            "address": "0x0500000000000000000000000000000000000000",
            "storageKeys": [
              "0x0000000000000000000000000000000000000000000000000000000000000000",
              "0x0500000000000000000000000000000000000000000000000000000000000000"
            ]
          },
          {
            "address": "0x0600000000000000000000000000000000000000",
            "storageKeys": [
              "0x0000000000000000000000000000000000000000000000000000000000000000",
              "0x0600000000000000000000000000000000000000000000000000000000000000"
            ]
          }
        ],
        "v": "0x1",
        "r": "0x251ab5147fb99b3c222fc99157ef6a6603659c2465bb9bb2662679fce6c12077",
        "s": "0x3c4ed0c45754fc479583126bf2d88c0bf323310f2f946f3bbeee44e73bf744c0",
        "hash": "0x1c71ff8b515e449b4597ba4e08f4bd1558716e5253e9fb62c117a01f0c859124"
      },
      {
        "type": "0x1",
        "chainId": "0x796f6c6f7632",
        "nonce": "0x22",
        "gasPrice": "0xa",
        "gas": "0x1e241",
        "to": "0x000000000000000000000000000000000000aaaa",
        "value": "0x0",
        "input": "0x",
        "accessList": [
          {
            "address": "0x0000000000000000000000000000000000000000",
            "storageKeys": [
              "0x0000000000000000000000000000000000000000000000000000000000000000",
              "0x0000000000000000000000000000000000000000000000000000000000000000"
            ]
          },
          {
            "address": "0x0100000000000000000000000000000000000000",
            "storageKeys": [
              "0x0000000000000000000000000000000000000000000000000000000000000000",
              "0x0100000000000000000000000000000000000000000000000000000000000000"
            ]
          },
          {
            "address": "0x0200000000000000000000000000000000000000",
            "storageKeys": [
              "0x0000000000000000000000000000000000000000000000000000000000000000",
              "0x0200000000000000000000000000000000000000000000000000000000000000"
            ]
          },
          {
            "address": "0x0300000000000000000000000000000000000000",
            "storageKeys": [
              "0x0000000000000000000000000000000000000000000000000000000000000000",
              "0x0300000000000000000000000000000000000000000000000000000000000000"
            ]
          },
          {
            "address": "0x0400000000000000000000000000000000000000",
            "storageKeys": [
              "0x0000000000000000000000000000000000000000000000000000000000000000",
              "0x0400000000000000000000000000000000000000000000000000000000000000"
            ]
          },
          {
            "address": "0x0500000000000000000000000000000000000000",
            "storageKeys": [
              "0x0000000000000000000000000000000000000000000000000000000000000000",
              "0x0500000000000000000000000000000000000000000000000000000000000000"
            ]
          },
          {
            "address": "0x0600000000000000000000000000000000000000",
            "storageKeys": [
              "0x0000000000000000000000000000000000000000000000000000000000000000",
              "0x0600000000000000000000000000000000000000000000000000000000000000"
            ]
          }
        ],
        "v": "0x1",
        "r": "0x664de330a9c9b3e4041e347332a30d0f88358063de52c6cefcc5a8ce397f96f3",
        "s": "0x13ea85012f7a62739610e48ea51e170275c56f0f8d1896520f1ef84d4f3e389e",
        "hash": "0x698566ee27aac8dda0c7bfd0b3e5b9c122a9ac81053dce700b3ef9fa156b35f7"
      },
      {
        "type": "0x0",
        "chainId": null,
        "nonce": "0x23",
        "gasPrice": "0xa",
        "gas": "0x1e241",
        "to": "0x000000000000000000000000000000000000aaaa",
        "value": "0x0",
        "input": "0x",
        "accessList": null,
        "v": "0xf2ded8deec87",
        "r": "0xa3bdc8174d2fbe9c404ff490e77555039f1c37bddbe60d8e60c1228f9964f02d",
        "s": "0x15572f4a595159746f9f11554059312ccdbc05e6bf8831469338bb78dcb43b5a",
        "hash": "0x95aa3328bed08bb31056e79cdb10c890d3c645493c928e4546a2d65b821380ca"
      }
    ],
    "uncles": null,
    "receipts": null
  }
}