{
    "RawCallCodeGasValueTransferAsk_d0g0v0_Byzantium" : {
        "_info" : {
            "comment" : "",
            "filledwith" : "cpp-1.3.0+commit.6e0ce939.Linux.g++",
            "lllcversion" : "Version: 0.4.18-develop.2017.9.25+commit.a72237f2.Linux.g++",
            "source" : "src/BlockchainTestsFiller/GeneralStateTests/stEIP150singleCodeGasPrices/RawCallCodeGasValueTransferAsk_d0g0v0Filler.json",
            "sourceHash" : "e57e3514b982556ee4b8b6481e61df994b6ff14547424dfc081a7990ebd595d3"
        },
        "blocks" : [
            {
                "blockHeader" : {
                    "bloom" : "0x00000000000000000000000000000000000000000000000000000000000000000000000000000000000000000000000000000000000000000000000000000000000000000000000000000000000000000000000000000000000000000000000000000000000000000000000000000000000000000000000000000000000000000000000000000000000000000000000000000000000000000000000000000000000000000000000000000000000000000000000000000000000000000000000000000000000000000000000000000000000000000000000000000000000000000000000000000000000000000000000000000000000000000000000000000000",
                    "coinbase" : "0x2adc25665018aa1fe0e6bc666dac8fc2697ff9ba",
                    "difficulty" : "0x020000",
                    "extraData" : "",
                    "gasLimit" : "0x989680",
                    "gasUsed" : "0x015976",
                    "hash" : "0x565bbfe83d49fd501d59c4dc87ee1b08b43725cf222aa876afe64c5e4dd52179",
                    "mixHash" : "0x1798979104eb9adced56df9b21ff1d787ca4e4338c7e6296041dcec5a90611a4",
                    "nonce" : "0x02151acb50c98cdd",
                    "number" : "0x01",
                    "parentHash" : "0x686b41b1b5b90d21b745637204068cfaf94c674acaf81ec2a95e3caf347c02b5",
                    "receiptTrie" : "0x84c3e8bbe2c4a65187ca201df5fafe44303d910bb0ebfa8a336c6c9f6e1681b7",
                    "stateRoot" : "0x1e89a46a50e8e6450422cb1807c734e3cb40e5b710dbadaf36ddee722954c3bd",
                    "timestamp" : "0x03e8",
                    "transactionsTrie" : "0x1384d4af33ac6b019131e808ca5f18a8845fa6b185c9939f71fe44c7fd34e468",
                    "uncleHash" : "0x1dcc4de8dec75d7aab85b567b6ccd41ad312451b948a7413f0a142fd40d49347"
                },
                "rlp" : "0xf90260f901f8a0686b41b1b5b90d21b745637204068cfaf94c674acaf81ec2a95e3caf347c02b5a01dcc4de8dec75d7aab85b567b6ccd41ad312451b948a7413f0a142fd40d49347942adc25665018aa1fe0e6bc666dac8fc2697ff9baa01e89a46a50e8e6450422cb1807c734e3cb40e5b710dbadaf36ddee722954c3bda01384d4af33ac6b019131e808ca5f18a8845fa6b185c9939f71fe44c7fd34e468a084c3e8bbe2c4a65187ca201df5fafe44303d910bb0ebfa8a336c6c9f6e1681b7b9010000000000000000000000000000000000000000000000000000000000000000000000000000000000000000000000000000000000000000000000000000000000000000000000000000000000000000000000000000000000000000000000000000000000000000000000000000000000000000000000000000000000000000000000000000000000000000000000000000000000000000000000000000000000000000000000000000000000000000000000000000000000000000000000000000000000000000000000000000000000000000000000000000000000000000000000000000000000000000000000000000000000000000000000000000000000830200000183989680830159768203e880a01798979104eb9adced56df9b21ff1d787ca4e4338c7e6296041dcec5a90611a48802151acb50c98cddf862f86080018307a12094b94f5374fce5edbc8e2a8697c15331677e6ebf0b0a801ba0b1159810e8fb83901e6b2cfb738fcb6e551c98aa64736c6330fbc349de7cb81ea04a8eadc208134504d2abb1b5845f8b6bcafb3fd9cc53bd055f10c68a42ecd24bc0",
                "transactions" : [
                    {
                        "data" : "",
                        "gasLimit" : "0x07a120",
                        "gasPrice" : "0x01",
                        "nonce" : "0x00",
                        "r" : "0xb1159810e8fb83901e6b2cfb738fcb6e551c98aa64736c6330fbc349de7cb81e",
                        "s" : "0x4a8eadc208134504d2abb1b5845f8b6bcafb3fd9cc53bd055f10c68a42ecd24b",
                        "to" : "0xb94f5374fce5edbc8e2a8697c15331677e6ebf0b",
                        "v" : "0x1b",
                        "value" : "0x0a"
                    }
                ],
                "uncleHeaders" : [
                ]
            }
        ],
        "genesisBlockHeader" : {
            "bloom" : "0x00000000000000000000000000000000000000000000000000000000000000000000000000000000000000000000000000000000000000000000000000000000000000000000000000000000000000000000000000000000000000000000000000000000000000000000000000000000000000000000000000000000000000000000000000000000000000000000000000000000000000000000000000000000000000000000000000000000000000000000000000000000000000000000000000000000000000000000000000000000000000000000000000000000000000000000000000000000000000000000000000000000000000000000000000000000",
            "coinbase" : "0x2adc25665018aa1fe0e6bc666dac8fc2697ff9ba",
            "difficulty" : "0x020000",
            "extraData" : "0x42",
            "gasLimit" : "0x989680",
            "gasUsed" : "0x00",
            "hash" : "0x686b41b1b5b90d21b745637204068cfaf94c674acaf81ec2a95e3caf347c02b5",
            "mixHash" : "0x56e81f171bcc55a6ff8345e692c0f86e5b48e01b996cadc001622fb5e363b421",
            "nonce" : "0x0102030405060708",
            "number" : "0x00",
            "parentHash" : "0x0000000000000000000000000000000000000000000000000000000000000000",
            "receiptTrie" : "0x56e81f171bcc55a6ff8345e692c0f86e5b48e01b996cadc001622fb5e363b421",
            "stateRoot" : "0xbea07ffb5d7bc315159ec2249ae85d29a4673cac5c6ef6b6e21bc329985301c9",
            "timestamp" : "0x03b6",
            "transactionsTrie" : "0x56e81f171bcc55a6ff8345e692c0f86e5b48e01b996cadc001622fb5e363b421",
            "uncleHash" : "0x1dcc4de8dec75d7aab85b567b6ccd41ad312451b948a7413f0a142fd40d49347"
        },
        "genesisRLP" : "0xf901faf901f5a00000000000000000000000000000000000000000000000000000000000000000a01dcc4de8dec75d7aab85b567b6ccd41ad312451b948a7413f0a142fd40d49347942adc25665018aa1fe0e6bc666dac8fc2697ff9baa0bea07ffb5d7bc315159ec2249ae85d29a4673cac5c6ef6b6e21bc329985301c9a056e81f171bcc55a6ff8345e692c0f86e5b48e01b996cadc001622fb5e363b421a056e81f171bcc55a6ff8345e692c0f86e5b48e01b996cadc001622fb5e363b421b9010000000000000000000000000000000000000000000000000000000000000000000000000000000000000000000000000000000000000000000000000000000000000000000000000000000000000000000000000000000000000000000000000000000000000000000000000000000000000000000000000000000000000000000000000000000000000000000000000000000000000000000000000000000000000000000000000000000000000000000000000000000000000000000000000000000000000000000000000000000000000000000000000000000000000000000000000000000000000000000000000000000000000000000000000000000000830200008083989680808203b642a056e81f171bcc55a6ff8345e692c0f86e5b48e01b996cadc001622fb5e363b421880102030405060708c0c0",
        "lastblockhash" : "0x565bbfe83d49fd501d59c4dc87ee1b08b43725cf222aa876afe64c5e4dd52179",
        "network" : "Byzantium",
        "postState" : {
            "0x094f5374fce5edbc8e2a8697c15331677e6ebf0b" : {
                "balance" : "0x00",
                "code" : "0x5a600255",
                "nonce" : "0x00",
                "storage" : {
                }
            },
            "0x2adc25665018aa1fe0e6bc666dac8fc2697ff9ba" : {
                "balance" : "0x29a2241af62d5976",
                "code" : "",
                "nonce" : "0x00",
                "storage" : {
                }
            },
            "0xa94f5374fce5edbc8e2a8697c15331677e6ebf0b" : {
                "balance" : "0xe8d4a3b680",
                "code" : "",
                "nonce" : "0x01",
                "storage" : {
                }
            },
            "0xb94f5374fce5edbc8e2a8697c15331677e6ebf0b" : {
                "balance" : "0x0a",
                "code" : "0x5a6000556000600060006000600a73094f5374fce5edbc8e2a8697c15331677e6ebf0b622dc6c0f2505a600155",
                "nonce" : "0x00",
                "storage" : {
                    "0x00" : "0x074f16",
                    "0x01" : "0x0695cd",
                    "0x02" : "0x06c889"
                }
            }
        },
        "pre" : {
            "0x094f5374fce5edbc8e2a8697c15331677e6ebf0b" : {
                "balance" : "0x00",
                "code" : "0x5a600255",
                "nonce" : "0x00",
                "storage" : {
                }
            },
            "0xa94f5374fce5edbc8e2a8697c15331677e6ebf0b" : {
                "balance" : "0xe8d4a51000",
                "code" : "",
                "nonce" : "0x00",
                "storage" : {
                }
            },
            "0xb94f5374fce5edbc8e2a8697c15331677e6ebf0b" : {
                "balance" : "0x00",
                "code" : "0x5a6000556000600060006000600a73094f5374fce5edbc8e2a8697c15331677e6ebf0b622dc6c0f2505a600155",
                "nonce" : "0x00",
                "storage" : {
                }
            }
        }
    },
    "RawCallCodeGasValueTransferAsk_d0g0v0_EIP150" : {
        "_info" : {
            "comment" : "",
            "filledwith" : "cpp-1.3.0+commit.6e0ce939.Linux.g++",
            "lllcversion" : "Version: 0.4.18-develop.2017.9.25+commit.a72237f2.Linux.g++",
            "source" : "src/BlockchainTestsFiller/GeneralStateTests/stEIP150singleCodeGasPrices/RawCallCodeGasValueTransferAsk_d0g0v0Filler.json",
            "sourceHash" : "e57e3514b982556ee4b8b6481e61df994b6ff14547424dfc081a7990ebd595d3"
        },
        "blocks" : [
            {
                "blockHeader" : {
                    "bloom" : "0x00000000000000000000000000000000000000000000000000000000000000000000000000000000000000000000000000000000000000000000000000000000000000000000000000000000000000000000000000000000000000000000000000000000000000000000000000000000000000000000000000000000000000000000000000000000000000000000000000000000000000000000000000000000000000000000000000000000000000000000000000000000000000000000000000000000000000000000000000000000000000000000000000000000000000000000000000000000000000000000000000000000000000000000000000000000",
                    "coinbase" : "0x2adc25665018aa1fe0e6bc666dac8fc2697ff9ba",
                    "difficulty" : "0x020000",
                    "extraData" : "",
                    "gasLimit" : "0x989680",
                    "gasUsed" : "0x015976",
                    "hash" : "0x73db8e97f6c40c01a471455594d07fdd7a77d288de5b6f12344ad40b084ee6d8",
                    "mixHash" : "0x8949ed49ede58b9842ce13dd5fa5816df4020d69c15eddc3ddca83f8ed430b0f",
                    "nonce" : "0x60f0e473402c49b5",
                    "number" : "0x01",
                    "parentHash" : "0x686b41b1b5b90d21b745637204068cfaf94c674acaf81ec2a95e3caf347c02b5",
                    "receiptTrie" : "0x18052b199a911dbf8a7338583208c7918bd7a8f453b6d2c450da070b920d9104",
                    "stateRoot" : "0x830dc475adccd0226ddcac1512445723e05a20e3b84eb225ee98e2748f0ce445",
                    "timestamp" : "0x03e8",
                    "transactionsTrie" : "0x1384d4af33ac6b019131e808ca5f18a8845fa6b185c9939f71fe44c7fd34e468",
                    "uncleHash" : "0x1dcc4de8dec75d7aab85b567b6ccd41ad312451b948a7413f0a142fd40d49347"
                },
                "rlp" : "0xf90260f901f8a0686b41b1b5b90d21b745637204068cfaf94c674acaf81ec2a95e3caf347c02b5a01dcc4de8dec75d7aab85b567b6ccd41ad312451b948a7413f0a142fd40d49347942adc25665018aa1fe0e6bc666dac8fc2697ff9baa0830dc475adccd0226ddcac1512445723e05a20e3b84eb225ee98e2748f0ce445a01384d4af33ac6b019131e808ca5f18a8845fa6b185c9939f71fe44c7fd34e468a018052b199a911dbf8a7338583208c7918bd7a8f453b6d2c450da070b920d9104b9010000000000000000000000000000000000000000000000000000000000000000000000000000000000000000000000000000000000000000000000000000000000000000000000000000000000000000000000000000000000000000000000000000000000000000000000000000000000000000000000000000000000000000000000000000000000000000000000000000000000000000000000000000000000000000000000000000000000000000000000000000000000000000000000000000000000000000000000000000000000000000000000000000000000000000000000000000000000000000000000000000000000000000000000000000000000830200000183989680830159768203e880a08949ed49ede58b9842ce13dd5fa5816df4020d69c15eddc3ddca83f8ed430b0f8860f0e473402c49b5f862f86080018307a12094b94f5374fce5edbc8e2a8697c15331677e6ebf0b0a801ba0b1159810e8fb83901e6b2cfb738fcb6e551c98aa64736c6330fbc349de7cb81ea04a8eadc208134504d2abb1b5845f8b6bcafb3fd9cc53bd055f10c68a42ecd24bc0",
                "transactions" : [
                    {
                        "data" : "",
                        "gasLimit" : "0x07a120",
                        "gasPrice" : "0x01",
                        "nonce" : "0x00",
                        "r" : "0xb1159810e8fb83901e6b2cfb738fcb6e551c98aa64736c6330fbc349de7cb81e",
                        "s" : "0x4a8eadc208134504d2abb1b5845f8b6bcafb3fd9cc53bd055f10c68a42ecd24b",
                        "to" : "0xb94f5374fce5edbc8e2a8697c15331677e6ebf0b",
                        "v" : "0x1b",
                        "value" : "0x0a"
                    }
                ],
                "uncleHeaders" : [
                ]
            }
        ],
        "genesisBlockHeader" : {
            "bloom" : "0x00000000000000000000000000000000000000000000000000000000000000000000000000000000000000000000000000000000000000000000000000000000000000000000000000000000000000000000000000000000000000000000000000000000000000000000000000000000000000000000000000000000000000000000000000000000000000000000000000000000000000000000000000000000000000000000000000000000000000000000000000000000000000000000000000000000000000000000000000000000000000000000000000000000000000000000000000000000000000000000000000000000000000000000000000000000",
            "coinbase" : "0x2adc25665018aa1fe0e6bc666dac8fc2697ff9ba",
            "difficulty" : "0x020000",
            "extraData" : "0x42",
            "gasLimit" : "0x989680",
            "gasUsed" : "0x00",
            "hash" : "0x686b41b1b5b90d21b745637204068cfaf94c674acaf81ec2a95e3caf347c02b5",
            "mixHash" : "0x56e81f171bcc55a6ff8345e692c0f86e5b48e01b996cadc001622fb5e363b421",
            "nonce" : "0x0102030405060708",
            "number" : "0x00",
            "parentHash" : "0x0000000000000000000000000000000000000000000000000000000000000000",
            "receiptTrie" : "0x56e81f171bcc55a6ff8345e692c0f86e5b48e01b996cadc001622fb5e363b421",
            "stateRoot" : "0xbea07ffb5d7bc315159ec2249ae85d29a4673cac5c6ef6b6e21bc329985301c9",
            "timestamp" : "0x03b6",
            "transactionsTrie" : "0x56e81f171bcc55a6ff8345e692c0f86e5b48e01b996cadc001622fb5e363b421",
            "uncleHash" : "0x1dcc4de8dec75d7aab85b567b6ccd41ad312451b948a7413f0a142fd40d49347"
        },
        "genesisRLP" : "0xf901faf901f5a00000000000000000000000000000000000000000000000000000000000000000a01dcc4de8dec75d7aab85b567b6ccd41ad312451b948a7413f0a142fd40d49347942adc25665018aa1fe0e6bc666dac8fc2697ff9baa0bea07ffb5d7bc315159ec2249ae85d29a4673cac5c6ef6b6e21bc329985301c9a056e81f171bcc55a6ff8345e692c0f86e5b48e01b996cadc001622fb5e363b421a056e81f171bcc55a6ff8345e692c0f86e5b48e01b996cadc001622fb5e363b421b9010000000000000000000000000000000000000000000000000000000000000000000000000000000000000000000000000000000000000000000000000000000000000000000000000000000000000000000000000000000000000000000000000000000000000000000000000000000000000000000000000000000000000000000000000000000000000000000000000000000000000000000000000000000000000000000000000000000000000000000000000000000000000000000000000000000000000000000000000000000000000000000000000000000000000000000000000000000000000000000000000000000000000000000000000000000000830200008083989680808203b642a056e81f171bcc55a6ff8345e692c0f86e5b48e01b996cadc001622fb5e363b421880102030405060708c0c0",
        "lastblockhash" : "0x73db8e97f6c40c01a471455594d07fdd7a77d288de5b6f12344ad40b084ee6d8",
        "network" : "EIP150",
        "postState" : {
            "0x094f5374fce5edbc8e2a8697c15331677e6ebf0b" : {
                "balance" : "0x00",
                "code" : "0x5a600255",
                "nonce" : "0x00",
                "storage" : {
                }
            },
            "0x2adc25665018aa1fe0e6bc666dac8fc2697ff9ba" : {
                "balance" : "0x4563918244f55976",
                "code" : "",
                "nonce" : "0x00",
                "storage" : {
                }
            },
            "0xa94f5374fce5edbc8e2a8697c15331677e6ebf0b" : {
                "balance" : "0xe8d4a3b680",
                "code" : "",
                "nonce" : "0x01",
                "storage" : {
                }
            },
            "0xb94f5374fce5edbc8e2a8697c15331677e6ebf0b" : {
                "balance" : "0x0a",
                "code" : "0x5a6000556000600060006000600a73094f5374fce5edbc8e2a8697c15331677e6ebf0b622dc6c0f2505a600155",
                "nonce" : "0x00",
                "storage" : {
                    "0x00" : "0x074f16",
                    "0x01" : "0x0695cd",
                    "0x02" : "0x06c889"
                }
            }
        },
        "pre" : {
            "0x094f5374fce5edbc8e2a8697c15331677e6ebf0b" : {
                "balance" : "0x00",
                "code" : "0x5a600255",
                "nonce" : "0x00",
                "storage" : {
                }
            },
            "0xa94f5374fce5edbc8e2a8697c15331677e6ebf0b" : {
                "balance" : "0xe8d4a51000",
                "code" : "",
                "nonce" : "0x00",
                "storage" : {
                }
            },
            "0xb94f5374fce5edbc8e2a8697c15331677e6ebf0b" : {
                "balance" : "0x00",
                "code" : "0x5a6000556000600060006000600a73094f5374fce5edbc8e2a8697c15331677e6ebf0b622dc6c0f2505a600155",
                "nonce" : "0x00",
                "storage" : {
                }
            }
        }
    },
    "RawCallCodeGasValueTransferAsk_d0g0v0_EIP158" : {
        "_info" : {
            "comment" : "",
            "filledwith" : "cpp-1.3.0+commit.6e0ce939.Linux.g++",
            "lllcversion" : "Version: 0.4.18-develop.2017.9.25+commit.a72237f2.Linux.g++",
            "source" : "src/BlockchainTestsFiller/GeneralStateTests/stEIP150singleCodeGasPrices/RawCallCodeGasValueTransferAsk_d0g0v0Filler.json",
            "sourceHash" : "e57e3514b982556ee4b8b6481e61df994b6ff14547424dfc081a7990ebd595d3"
        },
        "blocks" : [
            {
                "blockHeader" : {
                    "bloom" : "0x00000000000000000000000000000000000000000000000000000000000000000000000000000000000000000000000000000000000000000000000000000000000000000000000000000000000000000000000000000000000000000000000000000000000000000000000000000000000000000000000000000000000000000000000000000000000000000000000000000000000000000000000000000000000000000000000000000000000000000000000000000000000000000000000000000000000000000000000000000000000000000000000000000000000000000000000000000000000000000000000000000000000000000000000000000000",
                    "coinbase" : "0x2adc25665018aa1fe0e6bc666dac8fc2697ff9ba",
                    "difficulty" : "0x020000",
                    "extraData" : "",
                    "gasLimit" : "0x989680",
                    "gasUsed" : "0x015976",
                    "hash" : "0xa9113c8135c00f842005f926d48197079d031dafcb1a80daaf4c09d13297ca85",
                    "mixHash" : "0xa224fede21af896ce86b94f51965e2f64f045b960b60d4e8745c02e3d7ebf44e",
                    "nonce" : "0xd68a61e89c29d085",
                    "number" : "0x01",
                    "parentHash" : "0x686b41b1b5b90d21b745637204068cfaf94c674acaf81ec2a95e3caf347c02b5",
                    "receiptTrie" : "0x18052b199a911dbf8a7338583208c7918bd7a8f453b6d2c450da070b920d9104",
                    "stateRoot" : "0x830dc475adccd0226ddcac1512445723e05a20e3b84eb225ee98e2748f0ce445",
                    "timestamp" : "0x03e8",
                    "transactionsTrie" : "0x1384d4af33ac6b019131e808ca5f18a8845fa6b185c9939f71fe44c7fd34e468",
                    "uncleHash" : "0x1dcc4de8dec75d7aab85b567b6ccd41ad312451b948a7413f0a142fd40d49347"
                },
                "rlp" : "0xf90260f901f8a0686b41b1b5b90d21b745637204068cfaf94c674acaf81ec2a95e3caf347c02b5a01dcc4de8dec75d7aab85b567b6ccd41ad312451b948a7413f0a142fd40d49347942adc25665018aa1fe0e6bc666dac8fc2697ff9baa0830dc475adccd0226ddcac1512445723e05a20e3b84eb225ee98e2748f0ce445a01384d4af33ac6b019131e808ca5f18a8845fa6b185c9939f71fe44c7fd34e468a018052b199a911dbf8a7338583208c7918bd7a8f453b6d2c450da070b920d9104b9010000000000000000000000000000000000000000000000000000000000000000000000000000000000000000000000000000000000000000000000000000000000000000000000000000000000000000000000000000000000000000000000000000000000000000000000000000000000000000000000000000000000000000000000000000000000000000000000000000000000000000000000000000000000000000000000000000000000000000000000000000000000000000000000000000000000000000000000000000000000000000000000000000000000000000000000000000000000000000000000000000000000000000000000000000000000830200000183989680830159768203e880a0a224fede21af896ce86b94f51965e2f64f045b960b60d4e8745c02e3d7ebf44e88d68a61e89c29d085f862f86080018307a12094b94f5374fce5edbc8e2a8697c15331677e6ebf0b0a801ba0b1159810e8fb83901e6b2cfb738fcb6e551c98aa64736c6330fbc349de7cb81ea04a8eadc208134504d2abb1b5845f8b6bcafb3fd9cc53bd055f10c68a42ecd24bc0",
                "transactions" : [
                    {
                        "data" : "",
                        "gasLimit" : "0x07a120",
                        "gasPrice" : "0x01",
                        "nonce" : "0x00",
                        "r" : "0xb1159810e8fb83901e6b2cfb738fcb6e551c98aa64736c6330fbc349de7cb81e",
                        "s" : "0x4a8eadc208134504d2abb1b5845f8b6bcafb3fd9cc53bd055f10c68a42ecd24b",
                        "to" : "0xb94f5374fce5edbc8e2a8697c15331677e6ebf0b",
                        "v" : "0x1b",
                        "value" : "0x0a"
                    }
                ],
                "uncleHeaders" : [
                ]
            }
        ],
        "genesisBlockHeader" : {
            "bloom" : "0x00000000000000000000000000000000000000000000000000000000000000000000000000000000000000000000000000000000000000000000000000000000000000000000000000000000000000000000000000000000000000000000000000000000000000000000000000000000000000000000000000000000000000000000000000000000000000000000000000000000000000000000000000000000000000000000000000000000000000000000000000000000000000000000000000000000000000000000000000000000000000000000000000000000000000000000000000000000000000000000000000000000000000000000000000000000",
            "coinbase" : "0x2adc25665018aa1fe0e6bc666dac8fc2697ff9ba",
            "difficulty" : "0x020000",
            "extraData" : "0x42",
            "gasLimit" : "0x989680",
            "gasUsed" : "0x00",
            "hash" : "0x686b41b1b5b90d21b745637204068cfaf94c674acaf81ec2a95e3caf347c02b5",
            "mixHash" : "0x56e81f171bcc55a6ff8345e692c0f86e5b48e01b996cadc001622fb5e363b421",
            "nonce" : "0x0102030405060708",
            "number" : "0x00",
            "parentHash" : "0x0000000000000000000000000000000000000000000000000000000000000000",
            "receiptTrie" : "0x56e81f171bcc55a6ff8345e692c0f86e5b48e01b996cadc001622fb5e363b421",
            "stateRoot" : "0xbea07ffb5d7bc315159ec2249ae85d29a4673cac5c6ef6b6e21bc329985301c9",
            "timestamp" : "0x03b6",
            "transactionsTrie" : "0x56e81f171bcc55a6ff8345e692c0f86e5b48e01b996cadc001622fb5e363b421",
            "uncleHash" : "0x1dcc4de8dec75d7aab85b567b6ccd41ad312451b948a7413f0a142fd40d49347"
        },
        "genesisRLP" : "0xf901faf901f5a00000000000000000000000000000000000000000000000000000000000000000a01dcc4de8dec75d7aab85b567b6ccd41ad312451b948a7413f0a142fd40d49347942adc25665018aa1fe0e6bc666dac8fc2697ff9baa0bea07ffb5d7bc315159ec2249ae85d29a4673cac5c6ef6b6e21bc329985301c9a056e81f171bcc55a6ff8345e692c0f86e5b48e01b996cadc001622fb5e363b421a056e81f171bcc55a6ff8345e692c0f86e5b48e01b996cadc001622fb5e363b421b9010000000000000000000000000000000000000000000000000000000000000000000000000000000000000000000000000000000000000000000000000000000000000000000000000000000000000000000000000000000000000000000000000000000000000000000000000000000000000000000000000000000000000000000000000000000000000000000000000000000000000000000000000000000000000000000000000000000000000000000000000000000000000000000000000000000000000000000000000000000000000000000000000000000000000000000000000000000000000000000000000000000000000000000000000000000000830200008083989680808203b642a056e81f171bcc55a6ff8345e692c0f86e5b48e01b996cadc001622fb5e363b421880102030405060708c0c0",
        "lastblockhash" : "0xa9113c8135c00f842005f926d48197079d031dafcb1a80daaf4c09d13297ca85",
        "network" : "EIP158",
        "postState" : {
            "0x094f5374fce5edbc8e2a8697c15331677e6ebf0b" : {
                "balance" : "0x00",
                "code" : "0x5a600255",
                "nonce" : "0x00",
                "storage" : {
                }
            },
            "0x2adc25665018aa1fe0e6bc666dac8fc2697ff9ba" : {
                "balance" : "0x4563918244f55976",
                "code" : "",
                "nonce" : "0x00",
                "storage" : {
                }
            },
            "0xa94f5374fce5edbc8e2a8697c15331677e6ebf0b" : {
                "balance" : "0xe8d4a3b680",
                "code" : "",
                "nonce" : "0x01",
                "storage" : {
                }
            },
            "0xb94f5374fce5edbc8e2a8697c15331677e6ebf0b" : {
                "balance" : "0x0a",
                "code" : "0x5a6000556000600060006000600a73094f5374fce5edbc8e2a8697c15331677e6ebf0b622dc6c0f2505a600155",
                "nonce" : "0x00",
                "storage" : {
                    "0x00" : "0x074f16",
                    "0x01" : "0x0695cd",
                    "0x02" : "0x06c889"
                }
            }
        },
        "pre" : {
            "0x094f5374fce5edbc8e2a8697c15331677e6ebf0b" : {
                "balance" : "0x00",
                "code" : "0x5a600255",
                "nonce" : "0x00",
                "storage" : {
                }
            },
            "0xa94f5374fce5edbc8e2a8697c15331677e6ebf0b" : {
                "balance" : "0xe8d4a51000",
                "code" : "",
                "nonce" : "0x00",
                "storage" : {
                }
            },
            "0xb94f5374fce5edbc8e2a8697c15331677e6ebf0b" : {
                "balance" : "0x00",
                "code" : "0x5a6000556000600060006000600a73094f5374fce5edbc8e2a8697c15331677e6ebf0b622dc6c0f2505a600155",
                "nonce" : "0x00",
                "storage" : {
                }
            }
        }
    },
    "RawCallCodeGasValueTransferAsk_d0g0v0_Frontier" : {
        "_info" : {
            "comment" : "",
            "filledwith" : "cpp-1.3.0+commit.6e0ce939.Linux.g++",
            "lllcversion" : "Version: 0.4.18-develop.2017.9.25+commit.a72237f2.Linux.g++",
            "source" : "src/BlockchainTestsFiller/GeneralStateTests/stEIP150singleCodeGasPrices/RawCallCodeGasValueTransferAsk_d0g0v0Filler.json",
            "sourceHash" : "e57e3514b982556ee4b8b6481e61df994b6ff14547424dfc081a7990ebd595d3"
        },
        "blocks" : [
            {
                "blockHeader" : {
                    "bloom" : "0x00000000000000000000000000000000000000000000000000000000000000000000000000000000000000000000000000000000000000000000000000000000000000000000000000000000000000000000000000000000000000000000000000000000000000000000000000000000000000000000000000000000000000000000000000000000000000000000000000000000000000000000000000000000000000000000000000000000000000000000000000000000000000000000000000000000000000000000000000000000000000000000000000000000000000000000000000000000000000000000000000000000000000000000000000000000",
                    "coinbase" : "0x2adc25665018aa1fe0e6bc666dac8fc2697ff9ba",
                    "difficulty" : "0x020000",
                    "extraData" : "",
                    "gasLimit" : "0x989680",
                    "gasUsed" : "0x07a120",
                    "hash" : "0xf5f9db0e82f18b709e57324f72e7d1e8b183e83cf1af27707951eead488a083d",
                    "mixHash" : "0x5df129f8a27083c06c773f3e2bf6cd3ad5a3a918144c403d7a914c5ee7fc7e37",
                    "nonce" : "0x0e8a9cb307a63911",
                    "number" : "0x01",
                    "parentHash" : "0x686b41b1b5b90d21b745637204068cfaf94c674acaf81ec2a95e3caf347c02b5",
                    "receiptTrie" : "0xbbd35c2c2df48f92d2ed3254fbf54a2bafe691b446a2fe988071d4aa73182c64",
                    "stateRoot" : "0x7c987209a240fa8d5e365ed2c8a2fbfe25b5ff89c3b6071154d95b080e995a87",
                    "timestamp" : "0x03e8",
                    "transactionsTrie" : "0x1384d4af33ac6b019131e808ca5f18a8845fa6b185c9939f71fe44c7fd34e468",
                    "uncleHash" : "0x1dcc4de8dec75d7aab85b567b6ccd41ad312451b948a7413f0a142fd40d49347"
                },
                "rlp" : "0xf90260f901f8a0686b41b1b5b90d21b745637204068cfaf94c674acaf81ec2a95e3caf347c02b5a01dcc4de8dec75d7aab85b567b6ccd41ad312451b948a7413f0a142fd40d49347942adc25665018aa1fe0e6bc666dac8fc2697ff9baa07c987209a240fa8d5e365ed2c8a2fbfe25b5ff89c3b6071154d95b080e995a87a01384d4af33ac6b019131e808ca5f18a8845fa6b185c9939f71fe44c7fd34e468a0bbd35c2c2df48f92d2ed3254fbf54a2bafe691b446a2fe988071d4aa73182c64b90100000000000000000000000000000000000000000000000000000000000000000000000000000000000000000000000000000000000000000000000000000000000000000000000000000000000000000000000000000000000000000000000000000000000000000000000000000000000000000000000000000000000000000000000000000000000000000000000000000000000000000000000000000000000000000000000000000000000000000000000000000000000000000000000000000000000000000000000000000000000000000000000000000000000000000000000000000000000000000000000000000000000000000000000000000000008302000001839896808307a1208203e880a05df129f8a27083c06c773f3e2bf6cd3ad5a3a918144c403d7a914c5ee7fc7e37880e8a9cb307a63911f862f86080018307a12094b94f5374fce5edbc8e2a8697c15331677e6ebf0b0a801ba0b1159810e8fb83901e6b2cfb738fcb6e551c98aa64736c6330fbc349de7cb81ea04a8eadc208134504d2abb1b5845f8b6bcafb3fd9cc53bd055f10c68a42ecd24bc0",
                "transactions" : [
                    {
                        "data" : "",
                        "gasLimit" : "0x07a120",
                        "gasPrice" : "0x01",
                        "nonce" : "0x00",
                        "r" : "0xb1159810e8fb83901e6b2cfb738fcb6e551c98aa64736c6330fbc349de7cb81e",
                        "s" : "0x4a8eadc208134504d2abb1b5845f8b6bcafb3fd9cc53bd055f10c68a42ecd24b",
                        "to" : "0xb94f5374fce5edbc8e2a8697c15331677e6ebf0b",
                        "v" : "0x1b",
                        "value" : "0x0a"
                    }
                ],
                "uncleHeaders" : [
                ]
            }
        ],
        "genesisBlockHeader" : {
            "bloom" : "0x00000000000000000000000000000000000000000000000000000000000000000000000000000000000000000000000000000000000000000000000000000000000000000000000000000000000000000000000000000000000000000000000000000000000000000000000000000000000000000000000000000000000000000000000000000000000000000000000000000000000000000000000000000000000000000000000000000000000000000000000000000000000000000000000000000000000000000000000000000000000000000000000000000000000000000000000000000000000000000000000000000000000000000000000000000000",
            "coinbase" : "0x2adc25665018aa1fe0e6bc666dac8fc2697ff9ba",
            "difficulty" : "0x020000",
            "extraData" : "0x42",
            "gasLimit" : "0x989680",
            "gasUsed" : "0x00",
            "hash" : "0x686b41b1b5b90d21b745637204068cfaf94c674acaf81ec2a95e3caf347c02b5",
            "mixHash" : "0x56e81f171bcc55a6ff8345e692c0f86e5b48e01b996cadc001622fb5e363b421",
            "nonce" : "0x0102030405060708",
            "number" : "0x00",
            "parentHash" : "0x0000000000000000000000000000000000000000000000000000000000000000",
            "receiptTrie" : "0x56e81f171bcc55a6ff8345e692c0f86e5b48e01b996cadc001622fb5e363b421",
            "stateRoot" : "0xbea07ffb5d7bc315159ec2249ae85d29a4673cac5c6ef6b6e21bc329985301c9",
            "timestamp" : "0x03b6",
            "transactionsTrie" : "0x56e81f171bcc55a6ff8345e692c0f86e5b48e01b996cadc001622fb5e363b421",
            "uncleHash" : "0x1dcc4de8dec75d7aab85b567b6ccd41ad312451b948a7413f0a142fd40d49347"
        },
        "genesisRLP" : "0xf901faf901f5a00000000000000000000000000000000000000000000000000000000000000000a01dcc4de8dec75d7aab85b567b6ccd41ad312451b948a7413f0a142fd40d49347942adc25665018aa1fe0e6bc666dac8fc2697ff9baa0bea07ffb5d7bc315159ec2249ae85d29a4673cac5c6ef6b6e21bc329985301c9a056e81f171bcc55a6ff8345e692c0f86e5b48e01b996cadc001622fb5e363b421a056e81f171bcc55a6ff8345e692c0f86e5b48e01b996cadc001622fb5e363b421b9010000000000000000000000000000000000000000000000000000000000000000000000000000000000000000000000000000000000000000000000000000000000000000000000000000000000000000000000000000000000000000000000000000000000000000000000000000000000000000000000000000000000000000000000000000000000000000000000000000000000000000000000000000000000000000000000000000000000000000000000000000000000000000000000000000000000000000000000000000000000000000000000000000000000000000000000000000000000000000000000000000000000000000000000000000000000830200008083989680808203b642a056e81f171bcc55a6ff8345e692c0f86e5b48e01b996cadc001622fb5e363b421880102030405060708c0c0",
        "lastblockhash" : "0xf5f9db0e82f18b709e57324f72e7d1e8b183e83cf1af27707951eead488a083d",
        "network" : "Frontier",
        "postState" : {
            "0x094f5374fce5edbc8e2a8697c15331677e6ebf0b" : {
                "balance" : "0x00",
                "code" : "0x5a600255",
                "nonce" : "0x00",
                "storage" : {
                }
            },
            "0x2adc25665018aa1fe0e6bc666dac8fc2697ff9ba" : {
                "balance" : "0x4563918244fba120",
                "code" : "",
                "nonce" : "0x00",
                "storage" : {
                }
            },
            "0xa94f5374fce5edbc8e2a8697c15331677e6ebf0b" : {
                "balance" : "0xe8d49d6ee0",
                "code" : "",
                "nonce" : "0x01",
                "storage" : {
                }
            },
            "0xb94f5374fce5edbc8e2a8697c15331677e6ebf0b" : {
                "balance" : "0x00",
                "code" : "0x5a6000556000600060006000600a73094f5374fce5edbc8e2a8697c15331677e6ebf0b622dc6c0f2505a600155",
                "nonce" : "0x00",
                "storage" : {
                }
            }
        },
        "pre" : {
            "0x094f5374fce5edbc8e2a8697c15331677e6ebf0b" : {
                "balance" : "0x00",
                "code" : "0x5a600255",
                "nonce" : "0x00",
                "storage" : {
                }
            },
            "0xa94f5374fce5edbc8e2a8697c15331677e6ebf0b" : {
                "balance" : "0xe8d4a51000",
                "code" : "",
                "nonce" : "0x00",
                "storage" : {
                }
            },
            "0xb94f5374fce5edbc8e2a8697c15331677e6ebf0b" : {
                "balance" : "0x00",
                "code" : "0x5a6000556000600060006000600a73094f5374fce5edbc8e2a8697c15331677e6ebf0b622dc6c0f2505a600155",
                "nonce" : "0x00",
                "storage" : {
                }
            }
        }
    },
    "RawCallCodeGasValueTransferAsk_d0g0v0_Homestead" : {
        "_info" : {
            "comment" : "",
            "filledwith" : "cpp-1.3.0+commit.6e0ce939.Linux.g++",
            "lllcversion" : "Version: 0.4.18-develop.2017.9.25+commit.a72237f2.Linux.g++",
            "source" : "src/BlockchainTestsFiller/GeneralStateTests/stEIP150singleCodeGasPrices/RawCallCodeGasValueTransferAsk_d0g0v0Filler.json",
            "sourceHash" : "e57e3514b982556ee4b8b6481e61df994b6ff14547424dfc081a7990ebd595d3"
        },
        "blocks" : [
            {
                "blockHeader" : {
                    "bloom" : "0x00000000000000000000000000000000000000000000000000000000000000000000000000000000000000000000000000000000000000000000000000000000000000000000000000000000000000000000000000000000000000000000000000000000000000000000000000000000000000000000000000000000000000000000000000000000000000000000000000000000000000000000000000000000000000000000000000000000000000000000000000000000000000000000000000000000000000000000000000000000000000000000000000000000000000000000000000000000000000000000000000000000000000000000000000000000",
                    "coinbase" : "0x2adc25665018aa1fe0e6bc666dac8fc2697ff9ba",
                    "difficulty" : "0x020000",
                    "extraData" : "",
                    "gasLimit" : "0x989680",
                    "gasUsed" : "0x07a120",
                    "hash" : "0xbe4c5663917dbacd0716b23595e66a1fa0cc37953ecbcd834559a7aae2346203",
                    "mixHash" : "0x1e82cfe53942b0f673e7a53f35b05484568a46fbe3ccec559d4bc1a17a14fdd8",
                    "nonce" : "0x2535616912e6e0a2",
                    "number" : "0x01",
                    "parentHash" : "0x686b41b1b5b90d21b745637204068cfaf94c674acaf81ec2a95e3caf347c02b5",
                    "receiptTrie" : "0xbbd35c2c2df48f92d2ed3254fbf54a2bafe691b446a2fe988071d4aa73182c64",
                    "stateRoot" : "0x7c987209a240fa8d5e365ed2c8a2fbfe25b5ff89c3b6071154d95b080e995a87",
                    "timestamp" : "0x03e8",
                    "transactionsTrie" : "0x1384d4af33ac6b019131e808ca5f18a8845fa6b185c9939f71fe44c7fd34e468",
                    "uncleHash" : "0x1dcc4de8dec75d7aab85b567b6ccd41ad312451b948a7413f0a142fd40d49347"
                },
                "rlp" : "0xf90260f901f8a0686b41b1b5b90d21b745637204068cfaf94c674acaf81ec2a95e3caf347c02b5a01dcc4de8dec75d7aab85b567b6ccd41ad312451b948a7413f0a142fd40d49347942adc25665018aa1fe0e6bc666dac8fc2697ff9baa07c987209a240fa8d5e365ed2c8a2fbfe25b5ff89c3b6071154d95b080e995a87a01384d4af33ac6b019131e808ca5f18a8845fa6b185c9939f71fe44c7fd34e468a0bbd35c2c2df48f92d2ed3254fbf54a2bafe691b446a2fe988071d4aa73182c64b90100000000000000000000000000000000000000000000000000000000000000000000000000000000000000000000000000000000000000000000000000000000000000000000000000000000000000000000000000000000000000000000000000000000000000000000000000000000000000000000000000000000000000000000000000000000000000000000000000000000000000000000000000000000000000000000000000000000000000000000000000000000000000000000000000000000000000000000000000000000000000000000000000000000000000000000000000000000000000000000000000000000000000000000000000000000008302000001839896808307a1208203e880a01e82cfe53942b0f673e7a53f35b05484568a46fbe3ccec559d4bc1a17a14fdd8882535616912e6e0a2f862f86080018307a12094b94f5374fce5edbc8e2a8697c15331677e6ebf0b0a801ba0b1159810e8fb83901e6b2cfb738fcb6e551c98aa64736c6330fbc349de7cb81ea04a8eadc208134504d2abb1b5845f8b6bcafb3fd9cc53bd055f10c68a42ecd24bc0",
                "transactions" : [
                    {
                        "data" : "",
                        "gasLimit" : "0x07a120",
                        "gasPrice" : "0x01",
                        "nonce" : "0x00",
                        "r" : "0xb1159810e8fb83901e6b2cfb738fcb6e551c98aa64736c6330fbc349de7cb81e",
                        "s" : "0x4a8eadc208134504d2abb1b5845f8b6bcafb3fd9cc53bd055f10c68a42ecd24b",
                        "to" : "0xb94f5374fce5edbc8e2a8697c15331677e6ebf0b",
                        "v" : "0x1b",
                        "value" : "0x0a"
                    }
                ],
                "uncleHeaders" : [
                ]
            }
        ],
        "genesisBlockHeader" : {
            "bloom" : "0x00000000000000000000000000000000000000000000000000000000000000000000000000000000000000000000000000000000000000000000000000000000000000000000000000000000000000000000000000000000000000000000000000000000000000000000000000000000000000000000000000000000000000000000000000000000000000000000000000000000000000000000000000000000000000000000000000000000000000000000000000000000000000000000000000000000000000000000000000000000000000000000000000000000000000000000000000000000000000000000000000000000000000000000000000000000",
            "coinbase" : "0x2adc25665018aa1fe0e6bc666dac8fc2697ff9ba",
            "difficulty" : "0x020000",
            "extraData" : "0x42",
            "gasLimit" : "0x989680",
            "gasUsed" : "0x00",
            "hash" : "0x686b41b1b5b90d21b745637204068cfaf94c674acaf81ec2a95e3caf347c02b5",
            "mixHash" : "0x56e81f171bcc55a6ff8345e692c0f86e5b48e01b996cadc001622fb5e363b421",
            "nonce" : "0x0102030405060708",
            "number" : "0x00",
            "parentHash" : "0x0000000000000000000000000000000000000000000000000000000000000000",
            "receiptTrie" : "0x56e81f171bcc55a6ff8345e692c0f86e5b48e01b996cadc001622fb5e363b421",
            "stateRoot" : "0xbea07ffb5d7bc315159ec2249ae85d29a4673cac5c6ef6b6e21bc329985301c9",
            "timestamp" : "0x03b6",
            "transactionsTrie" : "0x56e81f171bcc55a6ff8345e692c0f86e5b48e01b996cadc001622fb5e363b421",
            "uncleHash" : "0x1dcc4de8dec75d7aab85b567b6ccd41ad312451b948a7413f0a142fd40d49347"
        },
        "genesisRLP" : "0xf901faf901f5a00000000000000000000000000000000000000000000000000000000000000000a01dcc4de8dec75d7aab85b567b6ccd41ad312451b948a7413f0a142fd40d49347942adc25665018aa1fe0e6bc666dac8fc2697ff9baa0bea07ffb5d7bc315159ec2249ae85d29a4673cac5c6ef6b6e21bc329985301c9a056e81f171bcc55a6ff8345e692c0f86e5b48e01b996cadc001622fb5e363b421a056e81f171bcc55a6ff8345e692c0f86e5b48e01b996cadc001622fb5e363b421b9010000000000000000000000000000000000000000000000000000000000000000000000000000000000000000000000000000000000000000000000000000000000000000000000000000000000000000000000000000000000000000000000000000000000000000000000000000000000000000000000000000000000000000000000000000000000000000000000000000000000000000000000000000000000000000000000000000000000000000000000000000000000000000000000000000000000000000000000000000000000000000000000000000000000000000000000000000000000000000000000000000000000000000000000000000000000830200008083989680808203b642a056e81f171bcc55a6ff8345e692c0f86e5b48e01b996cadc001622fb5e363b421880102030405060708c0c0",
        "lastblockhash" : "0xbe4c5663917dbacd0716b23595e66a1fa0cc37953ecbcd834559a7aae2346203",
        "network" : "Homestead",
        "postState" : {
            "0x094f5374fce5edbc8e2a8697c15331677e6ebf0b" : {
                "balance" : "0x00",
                "code" : "0x5a600255",
                "nonce" : "0x00",
                "storage" : {
                }
            },
            "0x2adc25665018aa1fe0e6bc666dac8fc2697ff9ba" : {
                "balance" : "0x4563918244fba120",
                "code" : "",
                "nonce" : "0x00",
                "storage" : {
                }
            },
            "0xa94f5374fce5edbc8e2a8697c15331677e6ebf0b" : {
                "balance" : "0xe8d49d6ee0",
                "code" : "",
                "nonce" : "0x01",
                "storage" : {
                }
            },
            "0xb94f5374fce5edbc8e2a8697c15331677e6ebf0b" : {
                "balance" : "0x00",
                "code" : "0x5a6000556000600060006000600a73094f5374fce5edbc8e2a8697c15331677e6ebf0b622dc6c0f2505a600155",
                "nonce" : "0x00",
                "storage" : {
                }
            }
        },
        "pre" : {
            "0x094f5374fce5edbc8e2a8697c15331677e6ebf0b" : {
                "balance" : "0x00",
                "code" : "0x5a600255",
                "nonce" : "0x00",
                "storage" : {
                }
            },
            "0xa94f5374fce5edbc8e2a8697c15331677e6ebf0b" : {
                "balance" : "0xe8d4a51000",
                "code" : "",
                "nonce" : "0x00",
                "storage" : {
                }
            },
            "0xb94f5374fce5edbc8e2a8697c15331677e6ebf0b" : {
                "balance" : "0x00",
                "code" : "0x5a6000556000600060006000600a73094f5374fce5edbc8e2a8697c15331677e6ebf0b622dc6c0f2505a600155",
                "nonce" : "0x00",
                "storage" : {
                }
            }
        }
    }
}