{
    "ContractStoreClearsSuccess_d0g0v0_Byzantium" : {
        "_info" : {
            "comment" : "",
            "filledwith" : "cpp-1.3.0+commit.6e0ce939.Linux.g++",
            "lllcversion" : "Version: 0.4.18-develop.2017.9.25+commit.a72237f2.Linux.g++",
            "source" : "src/BlockchainTestsFiller/GeneralStateTests/stTransactionTest/ContractStoreClearsSuccess_d0g0v0Filler.json",
            "sourceHash" : "7644ec6e31aa4fd6e0678d94fe67f29f68673455ef5fcd522337ad0caa06e29d"
        },
        "blocks" : [
            {
                "blockHeader" : {
                    "bloom" : "0x00000000000000000000000000000000000000000000000000000000000000000000000000000000000000000000000000000000000000000000000000000000000000000000000000000000000000000000000000000000000000000000000000000000000000000000000000000000000000000000000000000000000000000000000000000000000000000000000000000000000000000000000000000000000000000000000000000000000000000000000000000000000000000000000000000000000000000000000000000000000000000000000000000000000000000000000000000000000000000000000000000000000000000000000000000000",
                    "coinbase" : "0xb94f5374fce5edbc8e2a8697c15331677e6ebf0b",
                    "difficulty" : "0x020000",
                    "extraData" : "",
                    "gasLimit" : "0x989680",
                    "gasUsed" : "0x8aca",
                    "hash" : "0x88416f377ea9916f413fd8019f7182877a25a86e42d999b24b63b349a387a995",
                    "mixHash" : "0x37749fff224abfefb8b0c7684dd573385aa743394123a474c855ea284d5ed333",
                    "nonce" : "0x243d1660a3a5c309",
                    "number" : "0x01",
                    "parentHash" : "0x150566c4493bbb2b325bcbcc1ff287b820d86032e6b6e599e11497cc2a3b8a7c",
                    "receiptTrie" : "0x31fa23f9c695b6360bc6f77185da99e67d963166980f76e60ab5d8ed16c958f6",
                    "stateRoot" : "0x1f340585829bb6e0e47254220ddebf95990ac4726797a6202598f57887d9160a",
                    "timestamp" : "0x03e8",
                    "transactionsTrie" : "0xb41b7c02a43e5d4ffdfc21028950a5b5c483a59d34b017d0f4b4199bc3f9e4c3",
                    "uncleHash" : "0x1dcc4de8dec75d7aab85b567b6ccd41ad312451b948a7413f0a142fd40d49347"
                },
                "rlp" : "0xf9025ff901f7a0150566c4493bbb2b325bcbcc1ff287b820d86032e6b6e599e11497cc2a3b8a7ca01dcc4de8dec75d7aab85b567b6ccd41ad312451b948a7413f0a142fd40d4934794b94f5374fce5edbc8e2a8697c15331677e6ebf0ba01f340585829bb6e0e47254220ddebf95990ac4726797a6202598f57887d9160aa0b41b7c02a43e5d4ffdfc21028950a5b5c483a59d34b017d0f4b4199bc3f9e4c3a031fa23f9c695b6360bc6f77185da99e67d963166980f76e60ab5d8ed16c958f6b9010000000000000000000000000000000000000000000000000000000000000000000000000000000000000000000000000000000000000000000000000000000000000000000000000000000000000000000000000000000000000000000000000000000000000000000000000000000000000000000000000000000000000000000000000000000000000000000000000000000000000000000000000000000000000000000000000000000000000000000000000000000000000000000000000000000000000000000000000000000000000000000000000000000000000000000000000000000000000000000000000000000000000000000000000000000000830200000183989680828aca8203e880a037749fff224abfefb8b0c7684dd573385aa743394123a474c855ea284d5ed33388243d1660a3a5c309f862f86080018301fbd094d2571607e241ecf590ed94b12d87c94babe36db60a801ba049a56862d8cea002206dc16fa588e7f278a60c6a39077bde5bbec6f3ea029517a0405d48f39291133032d6bff688c9a2e6cfec064a52ba2c060427ed5a50ff478dc0",
                "transactions" : [
                    {
                        "data" : "",
                        "gasLimit" : "0x01fbd0",
                        "gasPrice" : "0x01",
                        "nonce" : "0x00",
                        "r" : "0x49a56862d8cea002206dc16fa588e7f278a60c6a39077bde5bbec6f3ea029517",
                        "s" : "0x405d48f39291133032d6bff688c9a2e6cfec064a52ba2c060427ed5a50ff478d",
                        "to" : "0xd2571607e241ecf590ed94b12d87c94babe36db6",
                        "v" : "0x1b",
                        "value" : "0x0a"
                    }
                ],
                "uncleHeaders" : [
                ]
            }
        ],
        "genesisBlockHeader" : {
            "bloom" : "0x00000000000000000000000000000000000000000000000000000000000000000000000000000000000000000000000000000000000000000000000000000000000000000000000000000000000000000000000000000000000000000000000000000000000000000000000000000000000000000000000000000000000000000000000000000000000000000000000000000000000000000000000000000000000000000000000000000000000000000000000000000000000000000000000000000000000000000000000000000000000000000000000000000000000000000000000000000000000000000000000000000000000000000000000000000000",
            "coinbase" : "0xb94f5374fce5edbc8e2a8697c15331677e6ebf0b",
            "difficulty" : "0x020000",
            "extraData" : "0x42",
            "gasLimit" : "0x989680",
            "gasUsed" : "0x00",
            "hash" : "0x150566c4493bbb2b325bcbcc1ff287b820d86032e6b6e599e11497cc2a3b8a7c",
            "mixHash" : "0x56e81f171bcc55a6ff8345e692c0f86e5b48e01b996cadc001622fb5e363b421",
            "nonce" : "0x0102030405060708",
            "number" : "0x00",
            "parentHash" : "0x0000000000000000000000000000000000000000000000000000000000000000",
            "receiptTrie" : "0x56e81f171bcc55a6ff8345e692c0f86e5b48e01b996cadc001622fb5e363b421",
            "stateRoot" : "0xf3d2a26b4c88a5c1bad339ae8fccf12a7272eb5173443d4f75c4a772cb22fc6b",
            "timestamp" : "0x03b6",
            "transactionsTrie" : "0x56e81f171bcc55a6ff8345e692c0f86e5b48e01b996cadc001622fb5e363b421",
            "uncleHash" : "0x1dcc4de8dec75d7aab85b567b6ccd41ad312451b948a7413f0a142fd40d49347"
        },
        "genesisRLP" : "0xf901faf901f5a00000000000000000000000000000000000000000000000000000000000000000a01dcc4de8dec75d7aab85b567b6ccd41ad312451b948a7413f0a142fd40d4934794b94f5374fce5edbc8e2a8697c15331677e6ebf0ba0f3d2a26b4c88a5c1bad339ae8fccf12a7272eb5173443d4f75c4a772cb22fc6ba056e81f171bcc55a6ff8345e692c0f86e5b48e01b996cadc001622fb5e363b421a056e81f171bcc55a6ff8345e692c0f86e5b48e01b996cadc001622fb5e363b421b9010000000000000000000000000000000000000000000000000000000000000000000000000000000000000000000000000000000000000000000000000000000000000000000000000000000000000000000000000000000000000000000000000000000000000000000000000000000000000000000000000000000000000000000000000000000000000000000000000000000000000000000000000000000000000000000000000000000000000000000000000000000000000000000000000000000000000000000000000000000000000000000000000000000000000000000000000000000000000000000000000000000000000000000000000000000000830200008083989680808203b642a056e81f171bcc55a6ff8345e692c0f86e5b48e01b996cadc001622fb5e363b421880102030405060708c0c0",
        "lastblockhash" : "0x88416f377ea9916f413fd8019f7182877a25a86e42d999b24b63b349a387a995",
        "network" : "Byzantium",
        "postState" : {
            "0xa94f5374fce5edbc8e2a8697c15331677e6ebf0b" : {
                "balance" : "0x01980c",
                "code" : "",
                "nonce" : "0x01",
                "storage" : {
                }
            },
            "0xb94f5374fce5edbc8e2a8697c15331677e6ebf0b" : {
                "balance" : "0x29a2241af62c8aca",
                "code" : "",
                "nonce" : "0x00",
                "storage" : {
                }
            },
            "0xd2571607e241ecf590ed94b12d87c94babe36db6" : {
                "balance" : "0x0a",
                "code" : "0x6000600055600060015560006002556000600355600060045560006005556000600655600060075560006008556000600955",
                "nonce" : "0x00",
                "storage" : {
                }
            }
        },
        "pre" : {
            "0xa94f5374fce5edbc8e2a8697c15331677e6ebf0b" : {
                "balance" : "0x0222e0",
                "code" : "",
                "nonce" : "0x00",
                "storage" : {
                }
            },
            "0xd2571607e241ecf590ed94b12d87c94babe36db6" : {
                "balance" : "0x00",
                "code" : "0x6000600055600060015560006002556000600355600060045560006005556000600655600060075560006008556000600955",
                "nonce" : "0x00",
                "storage" : {
                    "0x00" : "0x0c",
                    "0x01" : "0x0c",
                    "0x02" : "0x0c",
                    "0x03" : "0x0c",
                    "0x04" : "0x0c",
                    "0x05" : "0x0c",
                    "0x06" : "0x0c",
                    "0x07" : "0x0c",
                    "0x08" : "0x0c",
                    "0x09" : "0x0c"
                }
            }
        }
    },
    "ContractStoreClearsSuccess_d0g0v0_EIP150" : {
        "_info" : {
            "comment" : "",
            "filledwith" : "cpp-1.3.0+commit.6e0ce939.Linux.g++",
            "lllcversion" : "Version: 0.4.18-develop.2017.9.25+commit.a72237f2.Linux.g++",
            "source" : "src/BlockchainTestsFiller/GeneralStateTests/stTransactionTest/ContractStoreClearsSuccess_d0g0v0Filler.json",
            "sourceHash" : "7644ec6e31aa4fd6e0678d94fe67f29f68673455ef5fcd522337ad0caa06e29d"
        },
        "blocks" : [
            {
                "blockHeader" : {
                    "bloom" : "0x00000000000000000000000000000000000000000000000000000000000000000000000000000000000000000000000000000000000000000000000000000000000000000000000000000000000000000000000000000000000000000000000000000000000000000000000000000000000000000000000000000000000000000000000000000000000000000000000000000000000000000000000000000000000000000000000000000000000000000000000000000000000000000000000000000000000000000000000000000000000000000000000000000000000000000000000000000000000000000000000000000000000000000000000000000000",
                    "coinbase" : "0xb94f5374fce5edbc8e2a8697c15331677e6ebf0b",
                    "difficulty" : "0x020000",
                    "extraData" : "",
                    "gasLimit" : "0x989680",
                    "gasUsed" : "0x8aca",
                    "hash" : "0xfd5d6533ae6bd6c0de71a25e5f31458d486d59ed918f7d9c0971d52e5ab946e4",
                    "mixHash" : "0xafcc8884cffa4a048dbb3595ac97892dcabe2639b7b31c9c0d4ba00012082cb2",
                    "nonce" : "0x1cf557233c344970",
                    "number" : "0x01",
                    "parentHash" : "0x150566c4493bbb2b325bcbcc1ff287b820d86032e6b6e599e11497cc2a3b8a7c",
                    "receiptTrie" : "0xa5ac558ae399b791e41afa6f13b6e7fdccb332ab95e751ddc73b9ef268314446",
                    "stateRoot" : "0x1e653e20db4d1c9bab748a50e103d964141379dd751f1552b41a15830cbf38f7",
                    "timestamp" : "0x03e8",
                    "transactionsTrie" : "0xb41b7c02a43e5d4ffdfc21028950a5b5c483a59d34b017d0f4b4199bc3f9e4c3",
                    "uncleHash" : "0x1dcc4de8dec75d7aab85b567b6ccd41ad312451b948a7413f0a142fd40d49347"
                },
                "rlp" : "0xf9025ff901f7a0150566c4493bbb2b325bcbcc1ff287b820d86032e6b6e599e11497cc2a3b8a7ca01dcc4de8dec75d7aab85b567b6ccd41ad312451b948a7413f0a142fd40d4934794b94f5374fce5edbc8e2a8697c15331677e6ebf0ba01e653e20db4d1c9bab748a50e103d964141379dd751f1552b41a15830cbf38f7a0b41b7c02a43e5d4ffdfc21028950a5b5c483a59d34b017d0f4b4199bc3f9e4c3a0a5ac558ae399b791e41afa6f13b6e7fdccb332ab95e751ddc73b9ef268314446b9010000000000000000000000000000000000000000000000000000000000000000000000000000000000000000000000000000000000000000000000000000000000000000000000000000000000000000000000000000000000000000000000000000000000000000000000000000000000000000000000000000000000000000000000000000000000000000000000000000000000000000000000000000000000000000000000000000000000000000000000000000000000000000000000000000000000000000000000000000000000000000000000000000000000000000000000000000000000000000000000000000000000000000000000000000000000830200000183989680828aca8203e880a0afcc8884cffa4a048dbb3595ac97892dcabe2639b7b31c9c0d4ba00012082cb2881cf557233c344970f862f86080018301fbd094d2571607e241ecf590ed94b12d87c94babe36db60a801ba049a56862d8cea002206dc16fa588e7f278a60c6a39077bde5bbec6f3ea029517a0405d48f39291133032d6bff688c9a2e6cfec064a52ba2c060427ed5a50ff478dc0",
                "transactions" : [
                    {
                        "data" : "",
                        "gasLimit" : "0x01fbd0",
                        "gasPrice" : "0x01",
                        "nonce" : "0x00",
                        "r" : "0x49a56862d8cea002206dc16fa588e7f278a60c6a39077bde5bbec6f3ea029517",
                        "s" : "0x405d48f39291133032d6bff688c9a2e6cfec064a52ba2c060427ed5a50ff478d",
                        "to" : "0xd2571607e241ecf590ed94b12d87c94babe36db6",
                        "v" : "0x1b",
                        "value" : "0x0a"
                    }
                ],
                "uncleHeaders" : [
                ]
            }
        ],
        "genesisBlockHeader" : {
            "bloom" : "0x00000000000000000000000000000000000000000000000000000000000000000000000000000000000000000000000000000000000000000000000000000000000000000000000000000000000000000000000000000000000000000000000000000000000000000000000000000000000000000000000000000000000000000000000000000000000000000000000000000000000000000000000000000000000000000000000000000000000000000000000000000000000000000000000000000000000000000000000000000000000000000000000000000000000000000000000000000000000000000000000000000000000000000000000000000000",
            "coinbase" : "0xb94f5374fce5edbc8e2a8697c15331677e6ebf0b",
            "difficulty" : "0x020000",
            "extraData" : "0x42",
            "gasLimit" : "0x989680",
            "gasUsed" : "0x00",
            "hash" : "0x150566c4493bbb2b325bcbcc1ff287b820d86032e6b6e599e11497cc2a3b8a7c",
            "mixHash" : "0x56e81f171bcc55a6ff8345e692c0f86e5b48e01b996cadc001622fb5e363b421",
            "nonce" : "0x0102030405060708",
            "number" : "0x00",
            "parentHash" : "0x0000000000000000000000000000000000000000000000000000000000000000",
            "receiptTrie" : "0x56e81f171bcc55a6ff8345e692c0f86e5b48e01b996cadc001622fb5e363b421",
            "stateRoot" : "0xf3d2a26b4c88a5c1bad339ae8fccf12a7272eb5173443d4f75c4a772cb22fc6b",
            "timestamp" : "0x03b6",
            "transactionsTrie" : "0x56e81f171bcc55a6ff8345e692c0f86e5b48e01b996cadc001622fb5e363b421",
            "uncleHash" : "0x1dcc4de8dec75d7aab85b567b6ccd41ad312451b948a7413f0a142fd40d49347"
        },
        "genesisRLP" : "0xf901faf901f5a00000000000000000000000000000000000000000000000000000000000000000a01dcc4de8dec75d7aab85b567b6ccd41ad312451b948a7413f0a142fd40d4934794b94f5374fce5edbc8e2a8697c15331677e6ebf0ba0f3d2a26b4c88a5c1bad339ae8fccf12a7272eb5173443d4f75c4a772cb22fc6ba056e81f171bcc55a6ff8345e692c0f86e5b48e01b996cadc001622fb5e363b421a056e81f171bcc55a6ff8345e692c0f86e5b48e01b996cadc001622fb5e363b421b9010000000000000000000000000000000000000000000000000000000000000000000000000000000000000000000000000000000000000000000000000000000000000000000000000000000000000000000000000000000000000000000000000000000000000000000000000000000000000000000000000000000000000000000000000000000000000000000000000000000000000000000000000000000000000000000000000000000000000000000000000000000000000000000000000000000000000000000000000000000000000000000000000000000000000000000000000000000000000000000000000000000000000000000000000000000000830200008083989680808203b642a056e81f171bcc55a6ff8345e692c0f86e5b48e01b996cadc001622fb5e363b421880102030405060708c0c0",
        "lastblockhash" : "0xfd5d6533ae6bd6c0de71a25e5f31458d486d59ed918f7d9c0971d52e5ab946e4",
        "network" : "EIP150",
        "postState" : {
            "0xa94f5374fce5edbc8e2a8697c15331677e6ebf0b" : {
                "balance" : "0x01980c",
                "code" : "",
                "nonce" : "0x01",
                "storage" : {
                }
            },
            "0xb94f5374fce5edbc8e2a8697c15331677e6ebf0b" : {
                "balance" : "0x4563918244f48aca",
                "code" : "",
                "nonce" : "0x00",
                "storage" : {
                }
            },
            "0xd2571607e241ecf590ed94b12d87c94babe36db6" : {
                "balance" : "0x0a",
                "code" : "0x6000600055600060015560006002556000600355600060045560006005556000600655600060075560006008556000600955",
                "nonce" : "0x00",
                "storage" : {
                }
            }
        },
        "pre" : {
            "0xa94f5374fce5edbc8e2a8697c15331677e6ebf0b" : {
                "balance" : "0x0222e0",
                "code" : "",
                "nonce" : "0x00",
                "storage" : {
                }
            },
            "0xd2571607e241ecf590ed94b12d87c94babe36db6" : {
                "balance" : "0x00",
                "code" : "0x6000600055600060015560006002556000600355600060045560006005556000600655600060075560006008556000600955",
                "nonce" : "0x00",
                "storage" : {
                    "0x00" : "0x0c",
                    "0x01" : "0x0c",
                    "0x02" : "0x0c",
                    "0x03" : "0x0c",
                    "0x04" : "0x0c",
                    "0x05" : "0x0c",
                    "0x06" : "0x0c",
                    "0x07" : "0x0c",
                    "0x08" : "0x0c",
                    "0x09" : "0x0c"
                }
            }
        }
    },
    "ContractStoreClearsSuccess_d0g0v0_EIP158" : {
        "_info" : {
            "comment" : "",
            "filledwith" : "cpp-1.3.0+commit.6e0ce939.Linux.g++",
            "lllcversion" : "Version: 0.4.18-develop.2017.9.25+commit.a72237f2.Linux.g++",
            "source" : "src/BlockchainTestsFiller/GeneralStateTests/stTransactionTest/ContractStoreClearsSuccess_d0g0v0Filler.json",
            "sourceHash" : "7644ec6e31aa4fd6e0678d94fe67f29f68673455ef5fcd522337ad0caa06e29d"
        },
        "blocks" : [
            {
                "blockHeader" : {
                    "bloom" : "0x00000000000000000000000000000000000000000000000000000000000000000000000000000000000000000000000000000000000000000000000000000000000000000000000000000000000000000000000000000000000000000000000000000000000000000000000000000000000000000000000000000000000000000000000000000000000000000000000000000000000000000000000000000000000000000000000000000000000000000000000000000000000000000000000000000000000000000000000000000000000000000000000000000000000000000000000000000000000000000000000000000000000000000000000000000000",
                    "coinbase" : "0xb94f5374fce5edbc8e2a8697c15331677e6ebf0b",
                    "difficulty" : "0x020000",
                    "extraData" : "",
                    "gasLimit" : "0x989680",
                    "gasUsed" : "0x8aca",
                    "hash" : "0x72134c01b9913cdf84a9c3af2fc5e52e3ac9730dc2fdaeab1ef2a17964544234",
                    "mixHash" : "0xf9ff32e1dcad6891d989b8c6b5ee030c869e573cb58082cd83a33345cfd9a3bf",
                    "nonce" : "0xca0ac99fc535bfbd",
                    "number" : "0x01",
                    "parentHash" : "0x150566c4493bbb2b325bcbcc1ff287b820d86032e6b6e599e11497cc2a3b8a7c",
                    "receiptTrie" : "0xa5ac558ae399b791e41afa6f13b6e7fdccb332ab95e751ddc73b9ef268314446",
                    "stateRoot" : "0x1e653e20db4d1c9bab748a50e103d964141379dd751f1552b41a15830cbf38f7",
                    "timestamp" : "0x03e8",
                    "transactionsTrie" : "0xb41b7c02a43e5d4ffdfc21028950a5b5c483a59d34b017d0f4b4199bc3f9e4c3",
                    "uncleHash" : "0x1dcc4de8dec75d7aab85b567b6ccd41ad312451b948a7413f0a142fd40d49347"
                },
                "rlp" : "0xf9025ff901f7a0150566c4493bbb2b325bcbcc1ff287b820d86032e6b6e599e11497cc2a3b8a7ca01dcc4de8dec75d7aab85b567b6ccd41ad312451b948a7413f0a142fd40d4934794b94f5374fce5edbc8e2a8697c15331677e6ebf0ba01e653e20db4d1c9bab748a50e103d964141379dd751f1552b41a15830cbf38f7a0b41b7c02a43e5d4ffdfc21028950a5b5c483a59d34b017d0f4b4199bc3f9e4c3a0a5ac558ae399b791e41afa6f13b6e7fdccb332ab95e751ddc73b9ef268314446b9010000000000000000000000000000000000000000000000000000000000000000000000000000000000000000000000000000000000000000000000000000000000000000000000000000000000000000000000000000000000000000000000000000000000000000000000000000000000000000000000000000000000000000000000000000000000000000000000000000000000000000000000000000000000000000000000000000000000000000000000000000000000000000000000000000000000000000000000000000000000000000000000000000000000000000000000000000000000000000000000000000000000000000000000000000000000830200000183989680828aca8203e880a0f9ff32e1dcad6891d989b8c6b5ee030c869e573cb58082cd83a33345cfd9a3bf88ca0ac99fc535bfbdf862f86080018301fbd094d2571607e241ecf590ed94b12d87c94babe36db60a801ba049a56862d8cea002206dc16fa588e7f278a60c6a39077bde5bbec6f3ea029517a0405d48f39291133032d6bff688c9a2e6cfec064a52ba2c060427ed5a50ff478dc0",
                "transactions" : [
                    {
                        "data" : "",
                        "gasLimit" : "0x01fbd0",
                        "gasPrice" : "0x01",
                        "nonce" : "0x00",
                        "r" : "0x49a56862d8cea002206dc16fa588e7f278a60c6a39077bde5bbec6f3ea029517",
                        "s" : "0x405d48f39291133032d6bff688c9a2e6cfec064a52ba2c060427ed5a50ff478d",
                        "to" : "0xd2571607e241ecf590ed94b12d87c94babe36db6",
                        "v" : "0x1b",
                        "value" : "0x0a"
                    }
                ],
                "uncleHeaders" : [
                ]
            }
        ],
        "genesisBlockHeader" : {
            "bloom" : "0x00000000000000000000000000000000000000000000000000000000000000000000000000000000000000000000000000000000000000000000000000000000000000000000000000000000000000000000000000000000000000000000000000000000000000000000000000000000000000000000000000000000000000000000000000000000000000000000000000000000000000000000000000000000000000000000000000000000000000000000000000000000000000000000000000000000000000000000000000000000000000000000000000000000000000000000000000000000000000000000000000000000000000000000000000000000",
            "coinbase" : "0xb94f5374fce5edbc8e2a8697c15331677e6ebf0b",
            "difficulty" : "0x020000",
            "extraData" : "0x42",
            "gasLimit" : "0x989680",
            "gasUsed" : "0x00",
            "hash" : "0x150566c4493bbb2b325bcbcc1ff287b820d86032e6b6e599e11497cc2a3b8a7c",
            "mixHash" : "0x56e81f171bcc55a6ff8345e692c0f86e5b48e01b996cadc001622fb5e363b421",
            "nonce" : "0x0102030405060708",
            "number" : "0x00",
            "parentHash" : "0x0000000000000000000000000000000000000000000000000000000000000000",
            "receiptTrie" : "0x56e81f171bcc55a6ff8345e692c0f86e5b48e01b996cadc001622fb5e363b421",
            "stateRoot" : "0xf3d2a26b4c88a5c1bad339ae8fccf12a7272eb5173443d4f75c4a772cb22fc6b",
            "timestamp" : "0x03b6",
            "transactionsTrie" : "0x56e81f171bcc55a6ff8345e692c0f86e5b48e01b996cadc001622fb5e363b421",
            "uncleHash" : "0x1dcc4de8dec75d7aab85b567b6ccd41ad312451b948a7413f0a142fd40d49347"
        },
        "genesisRLP" : "0xf901faf901f5a00000000000000000000000000000000000000000000000000000000000000000a01dcc4de8dec75d7aab85b567b6ccd41ad312451b948a7413f0a142fd40d4934794b94f5374fce5edbc8e2a8697c15331677e6ebf0ba0f3d2a26b4c88a5c1bad339ae8fccf12a7272eb5173443d4f75c4a772cb22fc6ba056e81f171bcc55a6ff8345e692c0f86e5b48e01b996cadc001622fb5e363b421a056e81f171bcc55a6ff8345e692c0f86e5b48e01b996cadc001622fb5e363b421b9010000000000000000000000000000000000000000000000000000000000000000000000000000000000000000000000000000000000000000000000000000000000000000000000000000000000000000000000000000000000000000000000000000000000000000000000000000000000000000000000000000000000000000000000000000000000000000000000000000000000000000000000000000000000000000000000000000000000000000000000000000000000000000000000000000000000000000000000000000000000000000000000000000000000000000000000000000000000000000000000000000000000000000000000000000000000830200008083989680808203b642a056e81f171bcc55a6ff8345e692c0f86e5b48e01b996cadc001622fb5e363b421880102030405060708c0c0",
        "lastblockhash" : "0x72134c01b9913cdf84a9c3af2fc5e52e3ac9730dc2fdaeab1ef2a17964544234",
        "network" : "EIP158",
        "postState" : {
            "0xa94f5374fce5edbc8e2a8697c15331677e6ebf0b" : {
                "balance" : "0x01980c",
                "code" : "",
                "nonce" : "0x01",
                "storage" : {
                }
            },
            "0xb94f5374fce5edbc8e2a8697c15331677e6ebf0b" : {
                "balance" : "0x4563918244f48aca",
                "code" : "",
                "nonce" : "0x00",
                "storage" : {
                }
            },
            "0xd2571607e241ecf590ed94b12d87c94babe36db6" : {
                "balance" : "0x0a",
                "code" : "0x6000600055600060015560006002556000600355600060045560006005556000600655600060075560006008556000600955",
                "nonce" : "0x00",
                "storage" : {
                }
            }
        },
        "pre" : {
            "0xa94f5374fce5edbc8e2a8697c15331677e6ebf0b" : {
                "balance" : "0x0222e0",
                "code" : "",
                "nonce" : "0x00",
                "storage" : {
                }
            },
            "0xd2571607e241ecf590ed94b12d87c94babe36db6" : {
                "balance" : "0x00",
                "code" : "0x6000600055600060015560006002556000600355600060045560006005556000600655600060075560006008556000600955",
                "nonce" : "0x00",
                "storage" : {
                    "0x00" : "0x0c",
                    "0x01" : "0x0c",
                    "0x02" : "0x0c",
                    "0x03" : "0x0c",
                    "0x04" : "0x0c",
                    "0x05" : "0x0c",
                    "0x06" : "0x0c",
                    "0x07" : "0x0c",
                    "0x08" : "0x0c",
                    "0x09" : "0x0c"
                }
            }
        }
    },
    "ContractStoreClearsSuccess_d0g0v0_Frontier" : {
        "_info" : {
            "comment" : "",
            "filledwith" : "cpp-1.3.0+commit.6e0ce939.Linux.g++",
            "lllcversion" : "Version: 0.4.18-develop.2017.9.25+commit.a72237f2.Linux.g++",
            "source" : "src/BlockchainTestsFiller/GeneralStateTests/stTransactionTest/ContractStoreClearsSuccess_d0g0v0Filler.json",
            "sourceHash" : "7644ec6e31aa4fd6e0678d94fe67f29f68673455ef5fcd522337ad0caa06e29d"
        },
        "blocks" : [
            {
                "blockHeader" : {
                    "bloom" : "0x00000000000000000000000000000000000000000000000000000000000000000000000000000000000000000000000000000000000000000000000000000000000000000000000000000000000000000000000000000000000000000000000000000000000000000000000000000000000000000000000000000000000000000000000000000000000000000000000000000000000000000000000000000000000000000000000000000000000000000000000000000000000000000000000000000000000000000000000000000000000000000000000000000000000000000000000000000000000000000000000000000000000000000000000000000000",
                    "coinbase" : "0xb94f5374fce5edbc8e2a8697c15331677e6ebf0b",
                    "difficulty" : "0x020000",
                    "extraData" : "",
                    "gasLimit" : "0x989680",
                    "gasUsed" : "0x8aca",
                    "hash" : "0xd3994f46576c14a513f13f068ef0eb3621d6af8408267a9d3a4962083a15e1ed",
                    "mixHash" : "0xfb3d23412b938ea791b4786aeed47bd0a5fcadb3f66a107dc368a3930432b87b",
                    "nonce" : "0x989a593ad4c538ce",
                    "number" : "0x01",
                    "parentHash" : "0x150566c4493bbb2b325bcbcc1ff287b820d86032e6b6e599e11497cc2a3b8a7c",
                    "receiptTrie" : "0xa5ac558ae399b791e41afa6f13b6e7fdccb332ab95e751ddc73b9ef268314446",
                    "stateRoot" : "0x1e653e20db4d1c9bab748a50e103d964141379dd751f1552b41a15830cbf38f7",
                    "timestamp" : "0x03e8",
                    "transactionsTrie" : "0xb41b7c02a43e5d4ffdfc21028950a5b5c483a59d34b017d0f4b4199bc3f9e4c3",
                    "uncleHash" : "0x1dcc4de8dec75d7aab85b567b6ccd41ad312451b948a7413f0a142fd40d49347"
                },
                "rlp" : "0xf9025ff901f7a0150566c4493bbb2b325bcbcc1ff287b820d86032e6b6e599e11497cc2a3b8a7ca01dcc4de8dec75d7aab85b567b6ccd41ad312451b948a7413f0a142fd40d4934794b94f5374fce5edbc8e2a8697c15331677e6ebf0ba01e653e20db4d1c9bab748a50e103d964141379dd751f1552b41a15830cbf38f7a0b41b7c02a43e5d4ffdfc21028950a5b5c483a59d34b017d0f4b4199bc3f9e4c3a0a5ac558ae399b791e41afa6f13b6e7fdccb332ab95e751ddc73b9ef268314446b9010000000000000000000000000000000000000000000000000000000000000000000000000000000000000000000000000000000000000000000000000000000000000000000000000000000000000000000000000000000000000000000000000000000000000000000000000000000000000000000000000000000000000000000000000000000000000000000000000000000000000000000000000000000000000000000000000000000000000000000000000000000000000000000000000000000000000000000000000000000000000000000000000000000000000000000000000000000000000000000000000000000000000000000000000000000000830200000183989680828aca8203e880a0fb3d23412b938ea791b4786aeed47bd0a5fcadb3f66a107dc368a3930432b87b88989a593ad4c538cef862f86080018301fbd094d2571607e241ecf590ed94b12d87c94babe36db60a801ba049a56862d8cea002206dc16fa588e7f278a60c6a39077bde5bbec6f3ea029517a0405d48f39291133032d6bff688c9a2e6cfec064a52ba2c060427ed5a50ff478dc0",
                "transactions" : [
                    {
                        "data" : "",
                        "gasLimit" : "0x01fbd0",
                        "gasPrice" : "0x01",
                        "nonce" : "0x00",
                        "r" : "0x49a56862d8cea002206dc16fa588e7f278a60c6a39077bde5bbec6f3ea029517",
                        "s" : "0x405d48f39291133032d6bff688c9a2e6cfec064a52ba2c060427ed5a50ff478d",
                        "to" : "0xd2571607e241ecf590ed94b12d87c94babe36db6",
                        "v" : "0x1b",
                        "value" : "0x0a"
                    }
                ],
                "uncleHeaders" : [
                ]
            }
        ],
        "genesisBlockHeader" : {
            "bloom" : "0x00000000000000000000000000000000000000000000000000000000000000000000000000000000000000000000000000000000000000000000000000000000000000000000000000000000000000000000000000000000000000000000000000000000000000000000000000000000000000000000000000000000000000000000000000000000000000000000000000000000000000000000000000000000000000000000000000000000000000000000000000000000000000000000000000000000000000000000000000000000000000000000000000000000000000000000000000000000000000000000000000000000000000000000000000000000",
            "coinbase" : "0xb94f5374fce5edbc8e2a8697c15331677e6ebf0b",
            "difficulty" : "0x020000",
            "extraData" : "0x42",
            "gasLimit" : "0x989680",
            "gasUsed" : "0x00",
            "hash" : "0x150566c4493bbb2b325bcbcc1ff287b820d86032e6b6e599e11497cc2a3b8a7c",
            "mixHash" : "0x56e81f171bcc55a6ff8345e692c0f86e5b48e01b996cadc001622fb5e363b421",
            "nonce" : "0x0102030405060708",
            "number" : "0x00",
            "parentHash" : "0x0000000000000000000000000000000000000000000000000000000000000000",
            "receiptTrie" : "0x56e81f171bcc55a6ff8345e692c0f86e5b48e01b996cadc001622fb5e363b421",
            "stateRoot" : "0xf3d2a26b4c88a5c1bad339ae8fccf12a7272eb5173443d4f75c4a772cb22fc6b",
            "timestamp" : "0x03b6",
            "transactionsTrie" : "0x56e81f171bcc55a6ff8345e692c0f86e5b48e01b996cadc001622fb5e363b421",
            "uncleHash" : "0x1dcc4de8dec75d7aab85b567b6ccd41ad312451b948a7413f0a142fd40d49347"
        },
        "genesisRLP" : "0xf901faf901f5a00000000000000000000000000000000000000000000000000000000000000000a01dcc4de8dec75d7aab85b567b6ccd41ad312451b948a7413f0a142fd40d4934794b94f5374fce5edbc8e2a8697c15331677e6ebf0ba0f3d2a26b4c88a5c1bad339ae8fccf12a7272eb5173443d4f75c4a772cb22fc6ba056e81f171bcc55a6ff8345e692c0f86e5b48e01b996cadc001622fb5e363b421a056e81f171bcc55a6ff8345e692c0f86e5b48e01b996cadc001622fb5e363b421b9010000000000000000000000000000000000000000000000000000000000000000000000000000000000000000000000000000000000000000000000000000000000000000000000000000000000000000000000000000000000000000000000000000000000000000000000000000000000000000000000000000000000000000000000000000000000000000000000000000000000000000000000000000000000000000000000000000000000000000000000000000000000000000000000000000000000000000000000000000000000000000000000000000000000000000000000000000000000000000000000000000000000000000000000000000000000830200008083989680808203b642a056e81f171bcc55a6ff8345e692c0f86e5b48e01b996cadc001622fb5e363b421880102030405060708c0c0",
        "lastblockhash" : "0xd3994f46576c14a513f13f068ef0eb3621d6af8408267a9d3a4962083a15e1ed",
        "network" : "Frontier",
        "postState" : {
            "0xa94f5374fce5edbc8e2a8697c15331677e6ebf0b" : {
                "balance" : "0x01980c",
                "code" : "",
                "nonce" : "0x01",
                "storage" : {
                }
            },
            "0xb94f5374fce5edbc8e2a8697c15331677e6ebf0b" : {
                "balance" : "0x4563918244f48aca",
                "code" : "",
                "nonce" : "0x00",
                "storage" : {
                }
            },
            "0xd2571607e241ecf590ed94b12d87c94babe36db6" : {
                "balance" : "0x0a",
                "code" : "0x6000600055600060015560006002556000600355600060045560006005556000600655600060075560006008556000600955",
                "nonce" : "0x00",
                "storage" : {
                }
            }
        },
        "pre" : {
            "0xa94f5374fce5edbc8e2a8697c15331677e6ebf0b" : {
                "balance" : "0x0222e0",
                "code" : "",
                "nonce" : "0x00",
                "storage" : {
                }
            },
            "0xd2571607e241ecf590ed94b12d87c94babe36db6" : {
                "balance" : "0x00",
                "code" : "0x6000600055600060015560006002556000600355600060045560006005556000600655600060075560006008556000600955",
                "nonce" : "0x00",
                "storage" : {
                    "0x00" : "0x0c",
                    "0x01" : "0x0c",
                    "0x02" : "0x0c",
                    "0x03" : "0x0c",
                    "0x04" : "0x0c",
                    "0x05" : "0x0c",
                    "0x06" : "0x0c",
                    "0x07" : "0x0c",
                    "0x08" : "0x0c",
                    "0x09" : "0x0c"
                }
            }
        }
    },
    "ContractStoreClearsSuccess_d0g0v0_Homestead" : {
        "_info" : {
            "comment" : "",
            "filledwith" : "cpp-1.3.0+commit.6e0ce939.Linux.g++",
            "lllcversion" : "Version: 0.4.18-develop.2017.9.25+commit.a72237f2.Linux.g++",
            "source" : "src/BlockchainTestsFiller/GeneralStateTests/stTransactionTest/ContractStoreClearsSuccess_d0g0v0Filler.json",
            "sourceHash" : "7644ec6e31aa4fd6e0678d94fe67f29f68673455ef5fcd522337ad0caa06e29d"
        },
        "blocks" : [
            {
                "blockHeader" : {
                    "bloom" : "0x00000000000000000000000000000000000000000000000000000000000000000000000000000000000000000000000000000000000000000000000000000000000000000000000000000000000000000000000000000000000000000000000000000000000000000000000000000000000000000000000000000000000000000000000000000000000000000000000000000000000000000000000000000000000000000000000000000000000000000000000000000000000000000000000000000000000000000000000000000000000000000000000000000000000000000000000000000000000000000000000000000000000000000000000000000000",
                    "coinbase" : "0xb94f5374fce5edbc8e2a8697c15331677e6ebf0b",
                    "difficulty" : "0x020000",
                    "extraData" : "",
                    "gasLimit" : "0x989680",
                    "gasUsed" : "0x8aca",
                    "hash" : "0x1820d056f1ca2c4f8ff9896a424ad976f2ff3b4ca967156bf6ccb6eb19b97aa9",
                    "mixHash" : "0x43eedec007088d771e49b546fcebfbd90dafb0b13c6d4478dc9ef6e1f1dd925b",
                    "nonce" : "0x1d8a41a622194d5e",
                    "number" : "0x01",
                    "parentHash" : "0x150566c4493bbb2b325bcbcc1ff287b820d86032e6b6e599e11497cc2a3b8a7c",
                    "receiptTrie" : "0xa5ac558ae399b791e41afa6f13b6e7fdccb332ab95e751ddc73b9ef268314446",
                    "stateRoot" : "0x1e653e20db4d1c9bab748a50e103d964141379dd751f1552b41a15830cbf38f7",
                    "timestamp" : "0x03e8",
                    "transactionsTrie" : "0xb41b7c02a43e5d4ffdfc21028950a5b5c483a59d34b017d0f4b4199bc3f9e4c3",
                    "uncleHash" : "0x1dcc4de8dec75d7aab85b567b6ccd41ad312451b948a7413f0a142fd40d49347"
                },
                "rlp" : "0xf9025ff901f7a0150566c4493bbb2b325bcbcc1ff287b820d86032e6b6e599e11497cc2a3b8a7ca01dcc4de8dec75d7aab85b567b6ccd41ad312451b948a7413f0a142fd40d4934794b94f5374fce5edbc8e2a8697c15331677e6ebf0ba01e653e20db4d1c9bab748a50e103d964141379dd751f1552b41a15830cbf38f7a0b41b7c02a43e5d4ffdfc21028950a5b5c483a59d34b017d0f4b4199bc3f9e4c3a0a5ac558ae399b791e41afa6f13b6e7fdccb332ab95e751ddc73b9ef268314446b9010000000000000000000000000000000000000000000000000000000000000000000000000000000000000000000000000000000000000000000000000000000000000000000000000000000000000000000000000000000000000000000000000000000000000000000000000000000000000000000000000000000000000000000000000000000000000000000000000000000000000000000000000000000000000000000000000000000000000000000000000000000000000000000000000000000000000000000000000000000000000000000000000000000000000000000000000000000000000000000000000000000000000000000000000000000000830200000183989680828aca8203e880a043eedec007088d771e49b546fcebfbd90dafb0b13c6d4478dc9ef6e1f1dd925b881d8a41a622194d5ef862f86080018301fbd094d2571607e241ecf590ed94b12d87c94babe36db60a801ba049a56862d8cea002206dc16fa588e7f278a60c6a39077bde5bbec6f3ea029517a0405d48f39291133032d6bff688c9a2e6cfec064a52ba2c060427ed5a50ff478dc0",
                "transactions" : [
                    {
                        "data" : "",
                        "gasLimit" : "0x01fbd0",
                        "gasPrice" : "0x01",
                        "nonce" : "0x00",
                        "r" : "0x49a56862d8cea002206dc16fa588e7f278a60c6a39077bde5bbec6f3ea029517",
                        "s" : "0x405d48f39291133032d6bff688c9a2e6cfec064a52ba2c060427ed5a50ff478d",
                        "to" : "0xd2571607e241ecf590ed94b12d87c94babe36db6",
                        "v" : "0x1b",
                        "value" : "0x0a"
                    }
                ],
                "uncleHeaders" : [
                ]
            }
        ],
        "genesisBlockHeader" : {
            "bloom" : "0x00000000000000000000000000000000000000000000000000000000000000000000000000000000000000000000000000000000000000000000000000000000000000000000000000000000000000000000000000000000000000000000000000000000000000000000000000000000000000000000000000000000000000000000000000000000000000000000000000000000000000000000000000000000000000000000000000000000000000000000000000000000000000000000000000000000000000000000000000000000000000000000000000000000000000000000000000000000000000000000000000000000000000000000000000000000",
            "coinbase" : "0xb94f5374fce5edbc8e2a8697c15331677e6ebf0b",
            "difficulty" : "0x020000",
            "extraData" : "0x42",
            "gasLimit" : "0x989680",
            "gasUsed" : "0x00",
            "hash" : "0x150566c4493bbb2b325bcbcc1ff287b820d86032e6b6e599e11497cc2a3b8a7c",
            "mixHash" : "0x56e81f171bcc55a6ff8345e692c0f86e5b48e01b996cadc001622fb5e363b421",
            "nonce" : "0x0102030405060708",
            "number" : "0x00",
            "parentHash" : "0x0000000000000000000000000000000000000000000000000000000000000000",
            "receiptTrie" : "0x56e81f171bcc55a6ff8345e692c0f86e5b48e01b996cadc001622fb5e363b421",
            "stateRoot" : "0xf3d2a26b4c88a5c1bad339ae8fccf12a7272eb5173443d4f75c4a772cb22fc6b",
            "timestamp" : "0x03b6",
            "transactionsTrie" : "0x56e81f171bcc55a6ff8345e692c0f86e5b48e01b996cadc001622fb5e363b421",
            "uncleHash" : "0x1dcc4de8dec75d7aab85b567b6ccd41ad312451b948a7413f0a142fd40d49347"
        },
        "genesisRLP" : "0xf901faf901f5a00000000000000000000000000000000000000000000000000000000000000000a01dcc4de8dec75d7aab85b567b6ccd41ad312451b948a7413f0a142fd40d4934794b94f5374fce5edbc8e2a8697c15331677e6ebf0ba0f3d2a26b4c88a5c1bad339ae8fccf12a7272eb5173443d4f75c4a772cb22fc6ba056e81f171bcc55a6ff8345e692c0f86e5b48e01b996cadc001622fb5e363b421a056e81f171bcc55a6ff8345e692c0f86e5b48e01b996cadc001622fb5e363b421b9010000000000000000000000000000000000000000000000000000000000000000000000000000000000000000000000000000000000000000000000000000000000000000000000000000000000000000000000000000000000000000000000000000000000000000000000000000000000000000000000000000000000000000000000000000000000000000000000000000000000000000000000000000000000000000000000000000000000000000000000000000000000000000000000000000000000000000000000000000000000000000000000000000000000000000000000000000000000000000000000000000000000000000000000000000000000830200008083989680808203b642a056e81f171bcc55a6ff8345e692c0f86e5b48e01b996cadc001622fb5e363b421880102030405060708c0c0",
        "lastblockhash" : "0x1820d056f1ca2c4f8ff9896a424ad976f2ff3b4ca967156bf6ccb6eb19b97aa9",
        "network" : "Homestead",
        "postState" : {
            "0xa94f5374fce5edbc8e2a8697c15331677e6ebf0b" : {
                "balance" : "0x01980c",
                "code" : "",
                "nonce" : "0x01",
                "storage" : {
                }
            },
            "0xb94f5374fce5edbc8e2a8697c15331677e6ebf0b" : {
                "balance" : "0x4563918244f48aca",
                "code" : "",
                "nonce" : "0x00",
                "storage" : {
                }
            },
            "0xd2571607e241ecf590ed94b12d87c94babe36db6" : {
                "balance" : "0x0a",
                "code" : "0x6000600055600060015560006002556000600355600060045560006005556000600655600060075560006008556000600955",
                "nonce" : "0x00",
                "storage" : {
                }
            }
        },
        "pre" : {
            "0xa94f5374fce5edbc8e2a8697c15331677e6ebf0b" : {
                "balance" : "0x0222e0",
                "code" : "",
                "nonce" : "0x00",
                "storage" : {
                }
            },
            "0xd2571607e241ecf590ed94b12d87c94babe36db6" : {
                "balance" : "0x00",
                "code" : "0x6000600055600060015560006002556000600355600060045560006005556000600655600060075560006008556000600955",
                "nonce" : "0x00",
                "storage" : {
                    "0x00" : "0x0c",
                    "0x01" : "0x0c",
                    "0x02" : "0x0c",
                    "0x03" : "0x0c",
                    "0x04" : "0x0c",
                    "0x05" : "0x0c",
                    "0x06" : "0x0c",
                    "0x07" : "0x0c",
                    "0x08" : "0x0c",
                    "0x09" : "0x0c"
                }
            }
        }
    }
}