{
    "ContractStoreClearsOOG_d0g0v0_Byzantium" : {
        "_info" : {
            "comment" : "",
            "filledwith" : "cpp-1.3.0+commit.6e0ce939.Linux.g++",
            "lllcversion" : "Version: 0.4.18-develop.2017.9.25+commit.a72237f2.Linux.g++",
            "source" : "src/BlockchainTestsFiller/GeneralStateTests/stTransactionTest/ContractStoreClearsOOG_d0g0v0Filler.json",
            "sourceHash" : "dfac96fff0b455f65e11f728ab5571869204765a46b14b3251e4ff1798a4136a"
        },
        "blocks" : [
            {
                "blockHeader" : {
                    "bloom" : "0x00000000000000000000000000000000000000000000000000000000000000000000000000000000000000000000000000000000000000000000000000000000000000000000000000000000000000000000000000000000000000000000000000000000000000000000000000000000000000000000000000000000000000000000000000000000000000000000000000000000000000000000000000000000000000000000000000000000000000000000000000000000000000000000000000000000000000000000000000000000000000000000000000000000000000000000000000000000000000000000000000000000000000000000000000000000",
                    "coinbase" : "0xb94f5374fce5edbc8e2a8697c15331677e6ebf0b",
                    "difficulty" : "0x020000",
                    "extraData" : "",
                    "gasLimit" : "0x0186a0",
                    "gasUsed" : "0x59d8",
                    "hash" : "0x9f6afdcf497f6149424bd9d64680566e7afa4c4c1b85c193675d1cb2af4c7afd",
                    "mixHash" : "0xc4c55a3fa83d26ffef958f3aab123ebcd46fedb60a8ec7dbdeeca7e6955546aa",
                    "nonce" : "0x67d1a5c1516e75da",
                    "number" : "0x01",
                    "parentHash" : "0xb4e1a7e1826029d08eaf551bd218677773459093a06840ce12dada7f0cc1893c",
                    "receiptTrie" : "0x373de1da75dd9d50e359596d3e8cc328b712dc555a823b1bebbe593a1ba54051",
                    "stateRoot" : "0xebea627770abf1f0d8cb3cdf7118abd0f362bd97751b9618112eb921733e8d53",
                    "timestamp" : "0x03e8",
                    "transactionsTrie" : "0x073fdc92ed39f73cf06fd98da8177617251c94db7e50d844acb13f48d624fe0a",
                    "uncleHash" : "0x1dcc4de8dec75d7aab85b567b6ccd41ad312451b948a7413f0a142fd40d49347"
                },
                "rlp" : "0xf9025ef901f7a0b4e1a7e1826029d08eaf551bd218677773459093a06840ce12dada7f0cc1893ca01dcc4de8dec75d7aab85b567b6ccd41ad312451b948a7413f0a142fd40d4934794b94f5374fce5edbc8e2a8697c15331677e6ebf0ba0ebea627770abf1f0d8cb3cdf7118abd0f362bd97751b9618112eb921733e8d53a0073fdc92ed39f73cf06fd98da8177617251c94db7e50d844acb13f48d624fe0aa0373de1da75dd9d50e359596d3e8cc328b712dc555a823b1bebbe593a1ba54051b90100000000000000000000000000000000000000000000000000000000000000000000000000000000000000000000000000000000000000000000000000000000000000000000000000000000000000000000000000000000000000000000000000000000000000000000000000000000000000000000000000000000000000000000000000000000000000000000000000000000000000000000000000000000000000000000000000000000000000000000000000000000000000000000000000000000000000000000000000000000000000000000000000000000000000000000000000000000000000000000000000000000000000000000000000000000008302000001830186a08259d88203e880a0c4c55a3fa83d26ffef958f3aab123ebcd46fedb60a8ec7dbdeeca7e6955546aa8867d1a5c1516e75daf861f85f80018259d894d2571607e241ecf590ed94b12d87c94babe36db60a801ca0078898154e50fdfdaa1f64855a288f0ca10b822dc72b8ef2fce036e9db2edbaaa06c53d939df28d8da2adc4a724609cf49ddca3017ba777c5eafadb84b352400d9c0",
                "transactions" : [
                    {
                        "data" : "",
                        "gasLimit" : "0x59d8",
                        "gasPrice" : "0x01",
                        "nonce" : "0x00",
                        "r" : "0x078898154e50fdfdaa1f64855a288f0ca10b822dc72b8ef2fce036e9db2edbaa",
                        "s" : "0x6c53d939df28d8da2adc4a724609cf49ddca3017ba777c5eafadb84b352400d9",
                        "to" : "0xd2571607e241ecf590ed94b12d87c94babe36db6",
                        "v" : "0x1c",
                        "value" : "0x0a"
                    }
                ],
                "uncleHeaders" : [
                ]
            }
        ],
        "genesisBlockHeader" : {
            "bloom" : "0x00000000000000000000000000000000000000000000000000000000000000000000000000000000000000000000000000000000000000000000000000000000000000000000000000000000000000000000000000000000000000000000000000000000000000000000000000000000000000000000000000000000000000000000000000000000000000000000000000000000000000000000000000000000000000000000000000000000000000000000000000000000000000000000000000000000000000000000000000000000000000000000000000000000000000000000000000000000000000000000000000000000000000000000000000000000",
            "coinbase" : "0xb94f5374fce5edbc8e2a8697c15331677e6ebf0b",
            "difficulty" : "0x020000",
            "extraData" : "0x42",
            "gasLimit" : "0x0186a0",
            "gasUsed" : "0x00",
            "hash" : "0xb4e1a7e1826029d08eaf551bd218677773459093a06840ce12dada7f0cc1893c",
            "mixHash" : "0x56e81f171bcc55a6ff8345e692c0f86e5b48e01b996cadc001622fb5e363b421",
            "nonce" : "0x0102030405060708",
            "number" : "0x00",
            "parentHash" : "0x0000000000000000000000000000000000000000000000000000000000000000",
            "receiptTrie" : "0x56e81f171bcc55a6ff8345e692c0f86e5b48e01b996cadc001622fb5e363b421",
            "stateRoot" : "0x97c082ed288657d8a7423572c7218321dbe91f117bce11e5a30981feef01711e",
            "timestamp" : "0x03b6",
            "transactionsTrie" : "0x56e81f171bcc55a6ff8345e692c0f86e5b48e01b996cadc001622fb5e363b421",
            "uncleHash" : "0x1dcc4de8dec75d7aab85b567b6ccd41ad312451b948a7413f0a142fd40d49347"
        },
        "genesisRLP" : "0xf901faf901f5a00000000000000000000000000000000000000000000000000000000000000000a01dcc4de8dec75d7aab85b567b6ccd41ad312451b948a7413f0a142fd40d4934794b94f5374fce5edbc8e2a8697c15331677e6ebf0ba097c082ed288657d8a7423572c7218321dbe91f117bce11e5a30981feef01711ea056e81f171bcc55a6ff8345e692c0f86e5b48e01b996cadc001622fb5e363b421a056e81f171bcc55a6ff8345e692c0f86e5b48e01b996cadc001622fb5e363b421b90100000000000000000000000000000000000000000000000000000000000000000000000000000000000000000000000000000000000000000000000000000000000000000000000000000000000000000000000000000000000000000000000000000000000000000000000000000000000000000000000000000000000000000000000000000000000000000000000000000000000000000000000000000000000000000000000000000000000000000000000000000000000000000000000000000000000000000000000000000000000000000000000000000000000000000000000000000000000000000000000000000000000000000000000000000000008302000080830186a0808203b642a056e81f171bcc55a6ff8345e692c0f86e5b48e01b996cadc001622fb5e363b421880102030405060708c0c0",
        "lastblockhash" : "0x9f6afdcf497f6149424bd9d64680566e7afa4c4c1b85c193675d1cb2af4c7afd",
        "network" : "Byzantium",
        "postState" : {
            "0xa94f5374fce5edbc8e2a8697c15331677e6ebf0b" : {
                "balance" : "0x1b58",
                "code" : "",
                "nonce" : "0x01",
                "storage" : {
                }
            },
            "0xb94f5374fce5edbc8e2a8697c15331677e6ebf0b" : {
                "balance" : "0x29a2241af62c59d8",
                "code" : "",
                "nonce" : "0x00",
                "storage" : {
                }
            },
            "0xd2571607e241ecf590ed94b12d87c94babe36db6" : {
                "balance" : "0x00",
                "code" : "0x600060005560006001556000600255600060035560006004556000600555600060065560006007556000600855600c600955",
                "nonce" : "0x00",
                "storage" : {
                    "0x00" : "0x0c",
                    "0x01" : "0x0c",
                    "0x02" : "0x0c",
                    "0x03" : "0x0c",
                    "0x04" : "0x0c",
                    "0x05" : "0x0c",
                    "0x06" : "0x0c",
                    "0x07" : "0x0c",
                    "0x08" : "0x0c",
                    "0x09" : "0x0c"
                }
            }
        },
        "pre" : {
            "0xa94f5374fce5edbc8e2a8697c15331677e6ebf0b" : {
                "balance" : "0x7530",
                "code" : "",
                "nonce" : "0x00",
                "storage" : {
                }
            },
            "0xd2571607e241ecf590ed94b12d87c94babe36db6" : {
                "balance" : "0x00",
                "code" : "0x600060005560006001556000600255600060035560006004556000600555600060065560006007556000600855600c600955",
                "nonce" : "0x00",
                "storage" : {
                    "0x00" : "0x0c",
                    "0x01" : "0x0c",
                    "0x02" : "0x0c",
                    "0x03" : "0x0c",
                    "0x04" : "0x0c",
                    "0x05" : "0x0c",
                    "0x06" : "0x0c",
                    "0x07" : "0x0c",
                    "0x08" : "0x0c",
                    "0x09" : "0x0c"
                }
            }
        }
    },
    "ContractStoreClearsOOG_d0g0v0_EIP150" : {
        "_info" : {
            "comment" : "",
            "filledwith" : "cpp-1.3.0+commit.6e0ce939.Linux.g++",
            "lllcversion" : "Version: 0.4.18-develop.2017.9.25+commit.a72237f2.Linux.g++",
            "source" : "src/BlockchainTestsFiller/GeneralStateTests/stTransactionTest/ContractStoreClearsOOG_d0g0v0Filler.json",
            "sourceHash" : "dfac96fff0b455f65e11f728ab5571869204765a46b14b3251e4ff1798a4136a"
        },
        "blocks" : [
            {
                "blockHeader" : {
                    "bloom" : "0x00000000000000000000000000000000000000000000000000000000000000000000000000000000000000000000000000000000000000000000000000000000000000000000000000000000000000000000000000000000000000000000000000000000000000000000000000000000000000000000000000000000000000000000000000000000000000000000000000000000000000000000000000000000000000000000000000000000000000000000000000000000000000000000000000000000000000000000000000000000000000000000000000000000000000000000000000000000000000000000000000000000000000000000000000000000",
                    "coinbase" : "0xb94f5374fce5edbc8e2a8697c15331677e6ebf0b",
                    "difficulty" : "0x020000",
                    "extraData" : "",
                    "gasLimit" : "0x0186a0",
                    "gasUsed" : "0x59d8",
                    "hash" : "0xa36c45b93154a6de0b563503efc90ec214edcca6021b19b54d17ef82657c6ab9",
                    "mixHash" : "0x778bda1c8edfe22f33f0543670c5402ae6c5bd25717db008705ad0e637b282d2",
                    "nonce" : "0x1d9042791865bd26",
                    "number" : "0x01",
                    "parentHash" : "0xb4e1a7e1826029d08eaf551bd218677773459093a06840ce12dada7f0cc1893c",
                    "receiptTrie" : "0x00ff8a415b26ab8a9cbe545672725127b4c333d1e9a1339ba23550bc5721a25e",
                    "stateRoot" : "0x04bcfcae18d20ea4c815175606598c3875e29ba9951f5c87f1e4651130457894",
                    "timestamp" : "0x03e8",
                    "transactionsTrie" : "0x073fdc92ed39f73cf06fd98da8177617251c94db7e50d844acb13f48d624fe0a",
                    "uncleHash" : "0x1dcc4de8dec75d7aab85b567b6ccd41ad312451b948a7413f0a142fd40d49347"
                },
                "rlp" : "0xf9025ef901f7a0b4e1a7e1826029d08eaf551bd218677773459093a06840ce12dada7f0cc1893ca01dcc4de8dec75d7aab85b567b6ccd41ad312451b948a7413f0a142fd40d4934794b94f5374fce5edbc8e2a8697c15331677e6ebf0ba004bcfcae18d20ea4c815175606598c3875e29ba9951f5c87f1e4651130457894a0073fdc92ed39f73cf06fd98da8177617251c94db7e50d844acb13f48d624fe0aa000ff8a415b26ab8a9cbe545672725127b4c333d1e9a1339ba23550bc5721a25eb90100000000000000000000000000000000000000000000000000000000000000000000000000000000000000000000000000000000000000000000000000000000000000000000000000000000000000000000000000000000000000000000000000000000000000000000000000000000000000000000000000000000000000000000000000000000000000000000000000000000000000000000000000000000000000000000000000000000000000000000000000000000000000000000000000000000000000000000000000000000000000000000000000000000000000000000000000000000000000000000000000000000000000000000000000000000008302000001830186a08259d88203e880a0778bda1c8edfe22f33f0543670c5402ae6c5bd25717db008705ad0e637b282d2881d9042791865bd26f861f85f80018259d894d2571607e241ecf590ed94b12d87c94babe36db60a801ca0078898154e50fdfdaa1f64855a288f0ca10b822dc72b8ef2fce036e9db2edbaaa06c53d939df28d8da2adc4a724609cf49ddca3017ba777c5eafadb84b352400d9c0",
                "transactions" : [
                    {
                        "data" : "",
                        "gasLimit" : "0x59d8",
                        "gasPrice" : "0x01",
                        "nonce" : "0x00",
                        "r" : "0x078898154e50fdfdaa1f64855a288f0ca10b822dc72b8ef2fce036e9db2edbaa",
                        "s" : "0x6c53d939df28d8da2adc4a724609cf49ddca3017ba777c5eafadb84b352400d9",
                        "to" : "0xd2571607e241ecf590ed94b12d87c94babe36db6",
                        "v" : "0x1c",
                        "value" : "0x0a"
                    }
                ],
                "uncleHeaders" : [
                ]
            }
        ],
        "genesisBlockHeader" : {
            "bloom" : "0x00000000000000000000000000000000000000000000000000000000000000000000000000000000000000000000000000000000000000000000000000000000000000000000000000000000000000000000000000000000000000000000000000000000000000000000000000000000000000000000000000000000000000000000000000000000000000000000000000000000000000000000000000000000000000000000000000000000000000000000000000000000000000000000000000000000000000000000000000000000000000000000000000000000000000000000000000000000000000000000000000000000000000000000000000000000",
            "coinbase" : "0xb94f5374fce5edbc8e2a8697c15331677e6ebf0b",
            "difficulty" : "0x020000",
            "extraData" : "0x42",
            "gasLimit" : "0x0186a0",
            "gasUsed" : "0x00",
            "hash" : "0xb4e1a7e1826029d08eaf551bd218677773459093a06840ce12dada7f0cc1893c",
            "mixHash" : "0x56e81f171bcc55a6ff8345e692c0f86e5b48e01b996cadc001622fb5e363b421",
            "nonce" : "0x0102030405060708",
            "number" : "0x00",
            "parentHash" : "0x0000000000000000000000000000000000000000000000000000000000000000",
            "receiptTrie" : "0x56e81f171bcc55a6ff8345e692c0f86e5b48e01b996cadc001622fb5e363b421",
            "stateRoot" : "0x97c082ed288657d8a7423572c7218321dbe91f117bce11e5a30981feef01711e",
            "timestamp" : "0x03b6",
            "transactionsTrie" : "0x56e81f171bcc55a6ff8345e692c0f86e5b48e01b996cadc001622fb5e363b421",
            "uncleHash" : "0x1dcc4de8dec75d7aab85b567b6ccd41ad312451b948a7413f0a142fd40d49347"
        },
        "genesisRLP" : "0xf901faf901f5a00000000000000000000000000000000000000000000000000000000000000000a01dcc4de8dec75d7aab85b567b6ccd41ad312451b948a7413f0a142fd40d4934794b94f5374fce5edbc8e2a8697c15331677e6ebf0ba097c082ed288657d8a7423572c7218321dbe91f117bce11e5a30981feef01711ea056e81f171bcc55a6ff8345e692c0f86e5b48e01b996cadc001622fb5e363b421a056e81f171bcc55a6ff8345e692c0f86e5b48e01b996cadc001622fb5e363b421b90100000000000000000000000000000000000000000000000000000000000000000000000000000000000000000000000000000000000000000000000000000000000000000000000000000000000000000000000000000000000000000000000000000000000000000000000000000000000000000000000000000000000000000000000000000000000000000000000000000000000000000000000000000000000000000000000000000000000000000000000000000000000000000000000000000000000000000000000000000000000000000000000000000000000000000000000000000000000000000000000000000000000000000000000000000000008302000080830186a0808203b642a056e81f171bcc55a6ff8345e692c0f86e5b48e01b996cadc001622fb5e363b421880102030405060708c0c0",
        "lastblockhash" : "0xa36c45b93154a6de0b563503efc90ec214edcca6021b19b54d17ef82657c6ab9",
        "network" : "EIP150",
        "postState" : {
            "0xa94f5374fce5edbc8e2a8697c15331677e6ebf0b" : {
                "balance" : "0x1b58",
                "code" : "",
                "nonce" : "0x01",
                "storage" : {
                }
            },
            "0xb94f5374fce5edbc8e2a8697c15331677e6ebf0b" : {
                "balance" : "0x4563918244f459d8",
                "code" : "",
                "nonce" : "0x00",
                "storage" : {
                }
            },
            "0xd2571607e241ecf590ed94b12d87c94babe36db6" : {
                "balance" : "0x00",
                "code" : "0x600060005560006001556000600255600060035560006004556000600555600060065560006007556000600855600c600955",
                "nonce" : "0x00",
                "storage" : {
                    "0x00" : "0x0c",
                    "0x01" : "0x0c",
                    "0x02" : "0x0c",
                    "0x03" : "0x0c",
                    "0x04" : "0x0c",
                    "0x05" : "0x0c",
                    "0x06" : "0x0c",
                    "0x07" : "0x0c",
                    "0x08" : "0x0c",
                    "0x09" : "0x0c"
                }
            }
        },
        "pre" : {
            "0xa94f5374fce5edbc8e2a8697c15331677e6ebf0b" : {
                "balance" : "0x7530",
                "code" : "",
                "nonce" : "0x00",
                "storage" : {
                }
            },
            "0xd2571607e241ecf590ed94b12d87c94babe36db6" : {
                "balance" : "0x00",
                "code" : "0x600060005560006001556000600255600060035560006004556000600555600060065560006007556000600855600c600955",
                "nonce" : "0x00",
                "storage" : {
                    "0x00" : "0x0c",
                    "0x01" : "0x0c",
                    "0x02" : "0x0c",
                    "0x03" : "0x0c",
                    "0x04" : "0x0c",
                    "0x05" : "0x0c",
                    "0x06" : "0x0c",
                    "0x07" : "0x0c",
                    "0x08" : "0x0c",
                    "0x09" : "0x0c"
                }
            }
        }
    },
    "ContractStoreClearsOOG_d0g0v0_EIP158" : {
        "_info" : {
            "comment" : "",
            "filledwith" : "cpp-1.3.0+commit.6e0ce939.Linux.g++",
            "lllcversion" : "Version: 0.4.18-develop.2017.9.25+commit.a72237f2.Linux.g++",
            "source" : "src/BlockchainTestsFiller/GeneralStateTests/stTransactionTest/ContractStoreClearsOOG_d0g0v0Filler.json",
            "sourceHash" : "dfac96fff0b455f65e11f728ab5571869204765a46b14b3251e4ff1798a4136a"
        },
        "blocks" : [
            {
                "blockHeader" : {
                    "bloom" : "0x00000000000000000000000000000000000000000000000000000000000000000000000000000000000000000000000000000000000000000000000000000000000000000000000000000000000000000000000000000000000000000000000000000000000000000000000000000000000000000000000000000000000000000000000000000000000000000000000000000000000000000000000000000000000000000000000000000000000000000000000000000000000000000000000000000000000000000000000000000000000000000000000000000000000000000000000000000000000000000000000000000000000000000000000000000000",
                    "coinbase" : "0xb94f5374fce5edbc8e2a8697c15331677e6ebf0b",
                    "difficulty" : "0x020000",
                    "extraData" : "",
                    "gasLimit" : "0x0186a0",
                    "gasUsed" : "0x59d8",
                    "hash" : "0xdc77d512b5bc310ee61e9d1c6bffb0eb1f8d43f0b9d19fad35a80fc0687c8f8c",
                    "mixHash" : "0xb00e51b9cd76b94b00b440ae57046a6ae55d33d9557c49792fe47c693939473a",
                    "nonce" : "0x2fca99d14108ce57",
                    "number" : "0x01",
                    "parentHash" : "0xb4e1a7e1826029d08eaf551bd218677773459093a06840ce12dada7f0cc1893c",
                    "receiptTrie" : "0x00ff8a415b26ab8a9cbe545672725127b4c333d1e9a1339ba23550bc5721a25e",
                    "stateRoot" : "0x04bcfcae18d20ea4c815175606598c3875e29ba9951f5c87f1e4651130457894",
                    "timestamp" : "0x03e8",
                    "transactionsTrie" : "0x073fdc92ed39f73cf06fd98da8177617251c94db7e50d844acb13f48d624fe0a",
                    "uncleHash" : "0x1dcc4de8dec75d7aab85b567b6ccd41ad312451b948a7413f0a142fd40d49347"
                },
                "rlp" : "0xf9025ef901f7a0b4e1a7e1826029d08eaf551bd218677773459093a06840ce12dada7f0cc1893ca01dcc4de8dec75d7aab85b567b6ccd41ad312451b948a7413f0a142fd40d4934794b94f5374fce5edbc8e2a8697c15331677e6ebf0ba004bcfcae18d20ea4c815175606598c3875e29ba9951f5c87f1e4651130457894a0073fdc92ed39f73cf06fd98da8177617251c94db7e50d844acb13f48d624fe0aa000ff8a415b26ab8a9cbe545672725127b4c333d1e9a1339ba23550bc5721a25eb90100000000000000000000000000000000000000000000000000000000000000000000000000000000000000000000000000000000000000000000000000000000000000000000000000000000000000000000000000000000000000000000000000000000000000000000000000000000000000000000000000000000000000000000000000000000000000000000000000000000000000000000000000000000000000000000000000000000000000000000000000000000000000000000000000000000000000000000000000000000000000000000000000000000000000000000000000000000000000000000000000000000000000000000000000000000008302000001830186a08259d88203e880a0b00e51b9cd76b94b00b440ae57046a6ae55d33d9557c49792fe47c693939473a882fca99d14108ce57f861f85f80018259d894d2571607e241ecf590ed94b12d87c94babe36db60a801ca0078898154e50fdfdaa1f64855a288f0ca10b822dc72b8ef2fce036e9db2edbaaa06c53d939df28d8da2adc4a724609cf49ddca3017ba777c5eafadb84b352400d9c0",
                "transactions" : [
                    {
                        "data" : "",
                        "gasLimit" : "0x59d8",
                        "gasPrice" : "0x01",
                        "nonce" : "0x00",
                        "r" : "0x078898154e50fdfdaa1f64855a288f0ca10b822dc72b8ef2fce036e9db2edbaa",
                        "s" : "0x6c53d939df28d8da2adc4a724609cf49ddca3017ba777c5eafadb84b352400d9",
                        "to" : "0xd2571607e241ecf590ed94b12d87c94babe36db6",
                        "v" : "0x1c",
                        "value" : "0x0a"
                    }
                ],
                "uncleHeaders" : [
                ]
            }
        ],
        "genesisBlockHeader" : {
            "bloom" : "0x00000000000000000000000000000000000000000000000000000000000000000000000000000000000000000000000000000000000000000000000000000000000000000000000000000000000000000000000000000000000000000000000000000000000000000000000000000000000000000000000000000000000000000000000000000000000000000000000000000000000000000000000000000000000000000000000000000000000000000000000000000000000000000000000000000000000000000000000000000000000000000000000000000000000000000000000000000000000000000000000000000000000000000000000000000000",
            "coinbase" : "0xb94f5374fce5edbc8e2a8697c15331677e6ebf0b",
            "difficulty" : "0x020000",
            "extraData" : "0x42",
            "gasLimit" : "0x0186a0",
            "gasUsed" : "0x00",
            "hash" : "0xb4e1a7e1826029d08eaf551bd218677773459093a06840ce12dada7f0cc1893c",
            "mixHash" : "0x56e81f171bcc55a6ff8345e692c0f86e5b48e01b996cadc001622fb5e363b421",
            "nonce" : "0x0102030405060708",
            "number" : "0x00",
            "parentHash" : "0x0000000000000000000000000000000000000000000000000000000000000000",
            "receiptTrie" : "0x56e81f171bcc55a6ff8345e692c0f86e5b48e01b996cadc001622fb5e363b421",
            "stateRoot" : "0x97c082ed288657d8a7423572c7218321dbe91f117bce11e5a30981feef01711e",
            "timestamp" : "0x03b6",
            "transactionsTrie" : "0x56e81f171bcc55a6ff8345e692c0f86e5b48e01b996cadc001622fb5e363b421",
            "uncleHash" : "0x1dcc4de8dec75d7aab85b567b6ccd41ad312451b948a7413f0a142fd40d49347"
        },
        "genesisRLP" : "0xf901faf901f5a00000000000000000000000000000000000000000000000000000000000000000a01dcc4de8dec75d7aab85b567b6ccd41ad312451b948a7413f0a142fd40d4934794b94f5374fce5edbc8e2a8697c15331677e6ebf0ba097c082ed288657d8a7423572c7218321dbe91f117bce11e5a30981feef01711ea056e81f171bcc55a6ff8345e692c0f86e5b48e01b996cadc001622fb5e363b421a056e81f171bcc55a6ff8345e692c0f86e5b48e01b996cadc001622fb5e363b421b90100000000000000000000000000000000000000000000000000000000000000000000000000000000000000000000000000000000000000000000000000000000000000000000000000000000000000000000000000000000000000000000000000000000000000000000000000000000000000000000000000000000000000000000000000000000000000000000000000000000000000000000000000000000000000000000000000000000000000000000000000000000000000000000000000000000000000000000000000000000000000000000000000000000000000000000000000000000000000000000000000000000000000000000000000000000008302000080830186a0808203b642a056e81f171bcc55a6ff8345e692c0f86e5b48e01b996cadc001622fb5e363b421880102030405060708c0c0",
        "lastblockhash" : "0xdc77d512b5bc310ee61e9d1c6bffb0eb1f8d43f0b9d19fad35a80fc0687c8f8c",
        "network" : "EIP158",
        "postState" : {
            "0xa94f5374fce5edbc8e2a8697c15331677e6ebf0b" : {
                "balance" : "0x1b58",
                "code" : "",
                "nonce" : "0x01",
                "storage" : {
                }
            },
            "0xb94f5374fce5edbc8e2a8697c15331677e6ebf0b" : {
                "balance" : "0x4563918244f459d8",
                "code" : "",
                "nonce" : "0x00",
                "storage" : {
                }
            },
            "0xd2571607e241ecf590ed94b12d87c94babe36db6" : {
                "balance" : "0x00",
                "code" : "0x600060005560006001556000600255600060035560006004556000600555600060065560006007556000600855600c600955",
                "nonce" : "0x00",
                "storage" : {
                    "0x00" : "0x0c",
                    "0x01" : "0x0c",
                    "0x02" : "0x0c",
                    "0x03" : "0x0c",
                    "0x04" : "0x0c",
                    "0x05" : "0x0c",
                    "0x06" : "0x0c",
                    "0x07" : "0x0c",
                    "0x08" : "0x0c",
                    "0x09" : "0x0c"
                }
            }
        },
        "pre" : {
            "0xa94f5374fce5edbc8e2a8697c15331677e6ebf0b" : {
                "balance" : "0x7530",
                "code" : "",
                "nonce" : "0x00",
                "storage" : {
                }
            },
            "0xd2571607e241ecf590ed94b12d87c94babe36db6" : {
                "balance" : "0x00",
                "code" : "0x600060005560006001556000600255600060035560006004556000600555600060065560006007556000600855600c600955",
                "nonce" : "0x00",
                "storage" : {
                    "0x00" : "0x0c",
                    "0x01" : "0x0c",
                    "0x02" : "0x0c",
                    "0x03" : "0x0c",
                    "0x04" : "0x0c",
                    "0x05" : "0x0c",
                    "0x06" : "0x0c",
                    "0x07" : "0x0c",
                    "0x08" : "0x0c",
                    "0x09" : "0x0c"
                }
            }
        }
    },
    "ContractStoreClearsOOG_d0g0v0_Frontier" : {
        "_info" : {
            "comment" : "",
            "filledwith" : "cpp-1.3.0+commit.6e0ce939.Linux.g++",
            "lllcversion" : "Version: 0.4.18-develop.2017.9.25+commit.a72237f2.Linux.g++",
            "source" : "src/BlockchainTestsFiller/GeneralStateTests/stTransactionTest/ContractStoreClearsOOG_d0g0v0Filler.json",
            "sourceHash" : "dfac96fff0b455f65e11f728ab5571869204765a46b14b3251e4ff1798a4136a"
        },
        "blocks" : [
            {
                "blockHeader" : {
                    "bloom" : "0x00000000000000000000000000000000000000000000000000000000000000000000000000000000000000000000000000000000000000000000000000000000000000000000000000000000000000000000000000000000000000000000000000000000000000000000000000000000000000000000000000000000000000000000000000000000000000000000000000000000000000000000000000000000000000000000000000000000000000000000000000000000000000000000000000000000000000000000000000000000000000000000000000000000000000000000000000000000000000000000000000000000000000000000000000000000",
                    "coinbase" : "0xb94f5374fce5edbc8e2a8697c15331677e6ebf0b",
                    "difficulty" : "0x020000",
                    "extraData" : "",
                    "gasLimit" : "0x0186a0",
                    "gasUsed" : "0x59d8",
                    "hash" : "0x08d1478c38b9c4b18aa5f0e62ef4581b6dedcd62f40af4583e652b37cf553ace",
                    "mixHash" : "0x272251f6e89be4a608fcfa9d28be140c9bb2170bf9c6e1135d5848b531bc2720",
                    "nonce" : "0xab865184860485d5",
                    "number" : "0x01",
                    "parentHash" : "0xb4e1a7e1826029d08eaf551bd218677773459093a06840ce12dada7f0cc1893c",
                    "receiptTrie" : "0x00ff8a415b26ab8a9cbe545672725127b4c333d1e9a1339ba23550bc5721a25e",
                    "stateRoot" : "0x04bcfcae18d20ea4c815175606598c3875e29ba9951f5c87f1e4651130457894",
                    "timestamp" : "0x03e8",
                    "transactionsTrie" : "0x073fdc92ed39f73cf06fd98da8177617251c94db7e50d844acb13f48d624fe0a",
                    "uncleHash" : "0x1dcc4de8dec75d7aab85b567b6ccd41ad312451b948a7413f0a142fd40d49347"
                },
                "rlp" : "0xf9025ef901f7a0b4e1a7e1826029d08eaf551bd218677773459093a06840ce12dada7f0cc1893ca01dcc4de8dec75d7aab85b567b6ccd41ad312451b948a7413f0a142fd40d4934794b94f5374fce5edbc8e2a8697c15331677e6ebf0ba004bcfcae18d20ea4c815175606598c3875e29ba9951f5c87f1e4651130457894a0073fdc92ed39f73cf06fd98da8177617251c94db7e50d844acb13f48d624fe0aa000ff8a415b26ab8a9cbe545672725127b4c333d1e9a1339ba23550bc5721a25eb90100000000000000000000000000000000000000000000000000000000000000000000000000000000000000000000000000000000000000000000000000000000000000000000000000000000000000000000000000000000000000000000000000000000000000000000000000000000000000000000000000000000000000000000000000000000000000000000000000000000000000000000000000000000000000000000000000000000000000000000000000000000000000000000000000000000000000000000000000000000000000000000000000000000000000000000000000000000000000000000000000000000000000000000000000000000008302000001830186a08259d88203e880a0272251f6e89be4a608fcfa9d28be140c9bb2170bf9c6e1135d5848b531bc272088ab865184860485d5f861f85f80018259d894d2571607e241ecf590ed94b12d87c94babe36db60a801ca0078898154e50fdfdaa1f64855a288f0ca10b822dc72b8ef2fce036e9db2edbaaa06c53d939df28d8da2adc4a724609cf49ddca3017ba777c5eafadb84b352400d9c0",
                "transactions" : [
                    {
                        "data" : "",
                        "gasLimit" : "0x59d8",
                        "gasPrice" : "0x01",
                        "nonce" : "0x00",
                        "r" : "0x078898154e50fdfdaa1f64855a288f0ca10b822dc72b8ef2fce036e9db2edbaa",
                        "s" : "0x6c53d939df28d8da2adc4a724609cf49ddca3017ba777c5eafadb84b352400d9",
                        "to" : "0xd2571607e241ecf590ed94b12d87c94babe36db6",
                        "v" : "0x1c",
                        "value" : "0x0a"
                    }
                ],
                "uncleHeaders" : [
                ]
            }
        ],
        "genesisBlockHeader" : {
            "bloom" : "0x00000000000000000000000000000000000000000000000000000000000000000000000000000000000000000000000000000000000000000000000000000000000000000000000000000000000000000000000000000000000000000000000000000000000000000000000000000000000000000000000000000000000000000000000000000000000000000000000000000000000000000000000000000000000000000000000000000000000000000000000000000000000000000000000000000000000000000000000000000000000000000000000000000000000000000000000000000000000000000000000000000000000000000000000000000000",
            "coinbase" : "0xb94f5374fce5edbc8e2a8697c15331677e6ebf0b",
            "difficulty" : "0x020000",
            "extraData" : "0x42",
            "gasLimit" : "0x0186a0",
            "gasUsed" : "0x00",
            "hash" : "0xb4e1a7e1826029d08eaf551bd218677773459093a06840ce12dada7f0cc1893c",
            "mixHash" : "0x56e81f171bcc55a6ff8345e692c0f86e5b48e01b996cadc001622fb5e363b421",
            "nonce" : "0x0102030405060708",
            "number" : "0x00",
            "parentHash" : "0x0000000000000000000000000000000000000000000000000000000000000000",
            "receiptTrie" : "0x56e81f171bcc55a6ff8345e692c0f86e5b48e01b996cadc001622fb5e363b421",
            "stateRoot" : "0x97c082ed288657d8a7423572c7218321dbe91f117bce11e5a30981feef01711e",
            "timestamp" : "0x03b6",
            "transactionsTrie" : "0x56e81f171bcc55a6ff8345e692c0f86e5b48e01b996cadc001622fb5e363b421",
            "uncleHash" : "0x1dcc4de8dec75d7aab85b567b6ccd41ad312451b948a7413f0a142fd40d49347"
        },
        "genesisRLP" : "0xf901faf901f5a00000000000000000000000000000000000000000000000000000000000000000a01dcc4de8dec75d7aab85b567b6ccd41ad312451b948a7413f0a142fd40d4934794b94f5374fce5edbc8e2a8697c15331677e6ebf0ba097c082ed288657d8a7423572c7218321dbe91f117bce11e5a30981feef01711ea056e81f171bcc55a6ff8345e692c0f86e5b48e01b996cadc001622fb5e363b421a056e81f171bcc55a6ff8345e692c0f86e5b48e01b996cadc001622fb5e363b421b90100000000000000000000000000000000000000000000000000000000000000000000000000000000000000000000000000000000000000000000000000000000000000000000000000000000000000000000000000000000000000000000000000000000000000000000000000000000000000000000000000000000000000000000000000000000000000000000000000000000000000000000000000000000000000000000000000000000000000000000000000000000000000000000000000000000000000000000000000000000000000000000000000000000000000000000000000000000000000000000000000000000000000000000000000000000008302000080830186a0808203b642a056e81f171bcc55a6ff8345e692c0f86e5b48e01b996cadc001622fb5e363b421880102030405060708c0c0",
        "lastblockhash" : "0x08d1478c38b9c4b18aa5f0e62ef4581b6dedcd62f40af4583e652b37cf553ace",
        "network" : "Frontier",
        "postState" : {
            "0xa94f5374fce5edbc8e2a8697c15331677e6ebf0b" : {
                "balance" : "0x1b58",
                "code" : "",
                "nonce" : "0x01",
                "storage" : {
                }
            },
            "0xb94f5374fce5edbc8e2a8697c15331677e6ebf0b" : {
                "balance" : "0x4563918244f459d8",
                "code" : "",
                "nonce" : "0x00",
                "storage" : {
                }
            },
            "0xd2571607e241ecf590ed94b12d87c94babe36db6" : {
                "balance" : "0x00",
                "code" : "0x600060005560006001556000600255600060035560006004556000600555600060065560006007556000600855600c600955",
                "nonce" : "0x00",
                "storage" : {
                    "0x00" : "0x0c",
                    "0x01" : "0x0c",
                    "0x02" : "0x0c",
                    "0x03" : "0x0c",
                    "0x04" : "0x0c",
                    "0x05" : "0x0c",
                    "0x06" : "0x0c",
                    "0x07" : "0x0c",
                    "0x08" : "0x0c",
                    "0x09" : "0x0c"
                }
            }
        },
        "pre" : {
            "0xa94f5374fce5edbc8e2a8697c15331677e6ebf0b" : {
                "balance" : "0x7530",
                "code" : "",
                "nonce" : "0x00",
                "storage" : {
                }
            },
            "0xd2571607e241ecf590ed94b12d87c94babe36db6" : {
                "balance" : "0x00",
                "code" : "0x600060005560006001556000600255600060035560006004556000600555600060065560006007556000600855600c600955",
                "nonce" : "0x00",
                "storage" : {
                    "0x00" : "0x0c",
                    "0x01" : "0x0c",
                    "0x02" : "0x0c",
                    "0x03" : "0x0c",
                    "0x04" : "0x0c",
                    "0x05" : "0x0c",
                    "0x06" : "0x0c",
                    "0x07" : "0x0c",
                    "0x08" : "0x0c",
                    "0x09" : "0x0c"
                }
            }
        }
    },
    "ContractStoreClearsOOG_d0g0v0_Homestead" : {
        "_info" : {
            "comment" : "",
            "filledwith" : "cpp-1.3.0+commit.6e0ce939.Linux.g++",
            "lllcversion" : "Version: 0.4.18-develop.2017.9.25+commit.a72237f2.Linux.g++",
            "source" : "src/BlockchainTestsFiller/GeneralStateTests/stTransactionTest/ContractStoreClearsOOG_d0g0v0Filler.json",
            "sourceHash" : "dfac96fff0b455f65e11f728ab5571869204765a46b14b3251e4ff1798a4136a"
        },
        "blocks" : [
            {
                "blockHeader" : {
                    "bloom" : "0x00000000000000000000000000000000000000000000000000000000000000000000000000000000000000000000000000000000000000000000000000000000000000000000000000000000000000000000000000000000000000000000000000000000000000000000000000000000000000000000000000000000000000000000000000000000000000000000000000000000000000000000000000000000000000000000000000000000000000000000000000000000000000000000000000000000000000000000000000000000000000000000000000000000000000000000000000000000000000000000000000000000000000000000000000000000",
                    "coinbase" : "0xb94f5374fce5edbc8e2a8697c15331677e6ebf0b",
                    "difficulty" : "0x020000",
                    "extraData" : "",
                    "gasLimit" : "0x0186a0",
                    "gasUsed" : "0x59d8",
                    "hash" : "0x44c485cdcafc44effdb0d247a6e91fffaa6784ddbcdd9069adfb73df46019cd1",
                    "mixHash" : "0x1d1d623d52b3af9d45c1a5c4b682b18088af74b7ccf44a340246556191b26313",
                    "nonce" : "0xb08721c1b57c0046",
                    "number" : "0x01",
                    "parentHash" : "0xb4e1a7e1826029d08eaf551bd218677773459093a06840ce12dada7f0cc1893c",
                    "receiptTrie" : "0x00ff8a415b26ab8a9cbe545672725127b4c333d1e9a1339ba23550bc5721a25e",
                    "stateRoot" : "0x04bcfcae18d20ea4c815175606598c3875e29ba9951f5c87f1e4651130457894",
                    "timestamp" : "0x03e8",
                    "transactionsTrie" : "0x073fdc92ed39f73cf06fd98da8177617251c94db7e50d844acb13f48d624fe0a",
                    "uncleHash" : "0x1dcc4de8dec75d7aab85b567b6ccd41ad312451b948a7413f0a142fd40d49347"
                },
                "rlp" : "0xf9025ef901f7a0b4e1a7e1826029d08eaf551bd218677773459093a06840ce12dada7f0cc1893ca01dcc4de8dec75d7aab85b567b6ccd41ad312451b948a7413f0a142fd40d4934794b94f5374fce5edbc8e2a8697c15331677e6ebf0ba004bcfcae18d20ea4c815175606598c3875e29ba9951f5c87f1e4651130457894a0073fdc92ed39f73cf06fd98da8177617251c94db7e50d844acb13f48d624fe0aa000ff8a415b26ab8a9cbe545672725127b4c333d1e9a1339ba23550bc5721a25eb90100000000000000000000000000000000000000000000000000000000000000000000000000000000000000000000000000000000000000000000000000000000000000000000000000000000000000000000000000000000000000000000000000000000000000000000000000000000000000000000000000000000000000000000000000000000000000000000000000000000000000000000000000000000000000000000000000000000000000000000000000000000000000000000000000000000000000000000000000000000000000000000000000000000000000000000000000000000000000000000000000000000000000000000000000000000008302000001830186a08259d88203e880a01d1d623d52b3af9d45c1a5c4b682b18088af74b7ccf44a340246556191b2631388b08721c1b57c0046f861f85f80018259d894d2571607e241ecf590ed94b12d87c94babe36db60a801ca0078898154e50fdfdaa1f64855a288f0ca10b822dc72b8ef2fce036e9db2edbaaa06c53d939df28d8da2adc4a724609cf49ddca3017ba777c5eafadb84b352400d9c0",
                "transactions" : [
                    {
                        "data" : "",
                        "gasLimit" : "0x59d8",
                        "gasPrice" : "0x01",
                        "nonce" : "0x00",
                        "r" : "0x078898154e50fdfdaa1f64855a288f0ca10b822dc72b8ef2fce036e9db2edbaa",
                        "s" : "0x6c53d939df28d8da2adc4a724609cf49ddca3017ba777c5eafadb84b352400d9",
                        "to" : "0xd2571607e241ecf590ed94b12d87c94babe36db6",
                        "v" : "0x1c",
                        "value" : "0x0a"
                    }
                ],
                "uncleHeaders" : [
                ]
            }
        ],
        "genesisBlockHeader" : {
            "bloom" : "0x00000000000000000000000000000000000000000000000000000000000000000000000000000000000000000000000000000000000000000000000000000000000000000000000000000000000000000000000000000000000000000000000000000000000000000000000000000000000000000000000000000000000000000000000000000000000000000000000000000000000000000000000000000000000000000000000000000000000000000000000000000000000000000000000000000000000000000000000000000000000000000000000000000000000000000000000000000000000000000000000000000000000000000000000000000000",
            "coinbase" : "0xb94f5374fce5edbc8e2a8697c15331677e6ebf0b",
            "difficulty" : "0x020000",
            "extraData" : "0x42",
            "gasLimit" : "0x0186a0",
            "gasUsed" : "0x00",
            "hash" : "0xb4e1a7e1826029d08eaf551bd218677773459093a06840ce12dada7f0cc1893c",
            "mixHash" : "0x56e81f171bcc55a6ff8345e692c0f86e5b48e01b996cadc001622fb5e363b421",
            "nonce" : "0x0102030405060708",
            "number" : "0x00",
            "parentHash" : "0x0000000000000000000000000000000000000000000000000000000000000000",
            "receiptTrie" : "0x56e81f171bcc55a6ff8345e692c0f86e5b48e01b996cadc001622fb5e363b421",
            "stateRoot" : "0x97c082ed288657d8a7423572c7218321dbe91f117bce11e5a30981feef01711e",
            "timestamp" : "0x03b6",
            "transactionsTrie" : "0x56e81f171bcc55a6ff8345e692c0f86e5b48e01b996cadc001622fb5e363b421",
            "uncleHash" : "0x1dcc4de8dec75d7aab85b567b6ccd41ad312451b948a7413f0a142fd40d49347"
        },
        "genesisRLP" : "0xf901faf901f5a00000000000000000000000000000000000000000000000000000000000000000a01dcc4de8dec75d7aab85b567b6ccd41ad312451b948a7413f0a142fd40d4934794b94f5374fce5edbc8e2a8697c15331677e6ebf0ba097c082ed288657d8a7423572c7218321dbe91f117bce11e5a30981feef01711ea056e81f171bcc55a6ff8345e692c0f86e5b48e01b996cadc001622fb5e363b421a056e81f171bcc55a6ff8345e692c0f86e5b48e01b996cadc001622fb5e363b421b90100000000000000000000000000000000000000000000000000000000000000000000000000000000000000000000000000000000000000000000000000000000000000000000000000000000000000000000000000000000000000000000000000000000000000000000000000000000000000000000000000000000000000000000000000000000000000000000000000000000000000000000000000000000000000000000000000000000000000000000000000000000000000000000000000000000000000000000000000000000000000000000000000000000000000000000000000000000000000000000000000000000000000000000000000000000008302000080830186a0808203b642a056e81f171bcc55a6ff8345e692c0f86e5b48e01b996cadc001622fb5e363b421880102030405060708c0c0",
        "lastblockhash" : "0x44c485cdcafc44effdb0d247a6e91fffaa6784ddbcdd9069adfb73df46019cd1",
        "network" : "Homestead",
        "postState" : {
            "0xa94f5374fce5edbc8e2a8697c15331677e6ebf0b" : {
                "balance" : "0x1b58",
                "code" : "",
                "nonce" : "0x01",
                "storage" : {
                }
            },
            "0xb94f5374fce5edbc8e2a8697c15331677e6ebf0b" : {
                "balance" : "0x4563918244f459d8",
                "code" : "",
                "nonce" : "0x00",
                "storage" : {
                }
            },
            "0xd2571607e241ecf590ed94b12d87c94babe36db6" : {
                "balance" : "0x00",
                "code" : "0x600060005560006001556000600255600060035560006004556000600555600060065560006007556000600855600c600955",
                "nonce" : "0x00",
                "storage" : {
                    "0x00" : "0x0c",
                    "0x01" : "0x0c",
                    "0x02" : "0x0c",
                    "0x03" : "0x0c",
                    "0x04" : "0x0c",
                    "0x05" : "0x0c",
                    "0x06" : "0x0c",
                    "0x07" : "0x0c",
                    "0x08" : "0x0c",
                    "0x09" : "0x0c"
                }
            }
        },
        "pre" : {
            "0xa94f5374fce5edbc8e2a8697c15331677e6ebf0b" : {
                "balance" : "0x7530",
                "code" : "",
                "nonce" : "0x00",
                "storage" : {
                }
            },
            "0xd2571607e241ecf590ed94b12d87c94babe36db6" : {
                "balance" : "0x00",
                "code" : "0x600060005560006001556000600255600060035560006004556000600555600060065560006007556000600855600c600955",
                "nonce" : "0x00",
                "storage" : {
                    "0x00" : "0x0c",
                    "0x01" : "0x0c",
                    "0x02" : "0x0c",
                    "0x03" : "0x0c",
                    "0x04" : "0x0c",
                    "0x05" : "0x0c",
                    "0x06" : "0x0c",
                    "0x07" : "0x0c",
                    "0x08" : "0x0c",
                    "0x09" : "0x0c"
                }
            }
        }
    }
}