{
    "CreateMessageSuccess_d0g0v0_Byzantium" : {
        "_info" : {
            "comment" : "",
            "filledwith" : "cpp-1.3.0+commit.6e0ce939.Linux.g++",
            "lllcversion" : "Version: 0.4.18-develop.2017.9.25+commit.a72237f2.Linux.g++",
            "source" : "src/BlockchainTestsFiller/GeneralStateTests/stTransactionTest/CreateMessageSuccess_d0g0v0Filler.json",
            "sourceHash" : "edd7a80b1f2f14f671d1b33395de5c35a696a6f99832c4e8b8b4890bf1e1a33c"
        },
        "blocks" : [
            {
                "blockHeader" : {
                    "bloom" : "0x00000000000000000000000000000000000000000000000000000000000000000000000000000000000000000000000000000000000000000000000000000000000000000000000000000000000000000000000000000000000000000000000000000000000000000000000000000000000000000000000000000000000000000000000000000000000000000000000000000000000000000000000000000000000000000000000000000000000000000000000000000000000000000000000000000000000000000000000000000000000000000000000000000000000000000000000000000000000000000000000000000000000000000000000000000000",
                    "coinbase" : "0x2adc25665018aa1fe0e6bc666dac8fc2697ff9ba",
                    "difficulty" : "0x020000",
                    "extraData" : "",
                    "gasLimit" : "0xe8d4a51000",
                    "gasUsed" : "0x011d43",
                    "hash" : "0x9b4caee701470ef38d3917a7c3875bb158b7114a0ed65d01202496e611fa921b",
                    "mixHash" : "0xe3851995ac28eb641ec4f398b8a7b29f40671350ce53ff0d8cc6ed9fb9ef1cd6",
                    "nonce" : "0xb8b45c4d64cc45bd",
                    "number" : "0x01",
                    "parentHash" : "0x92a8d6713604324484b49c23e74531cbe99568f08bbf93a40a3f82f778cca8e6",
                    "receiptTrie" : "0xa2779b4593b8cabc218f0e89fd203b68fb5f7767d3c7ef3f99d7bfe06141d85e",
                    "stateRoot" : "0xd3236a4d570ff3355666d19182021d47bcf6b97d7703c1df9122b622f71e96f7",
                    "timestamp" : "0x03e8",
                    "transactionsTrie" : "0xbe70b05b1df4522aec758c4f6d268369e578251620b129377f8d38f5a4373ef5",
                    "uncleHash" : "0x1dcc4de8dec75d7aab85b567b6ccd41ad312451b948a7413f0a142fd40d49347"
                },
                "rlp" : "0xf90262f901faa092a8d6713604324484b49c23e74531cbe99568f08bbf93a40a3f82f778cca8e6a01dcc4de8dec75d7aab85b567b6ccd41ad312451b948a7413f0a142fd40d49347942adc25665018aa1fe0e6bc666dac8fc2697ff9baa0d3236a4d570ff3355666d19182021d47bcf6b97d7703c1df9122b622f71e96f7a0be70b05b1df4522aec758c4f6d268369e578251620b129377f8d38f5a4373ef5a0a2779b4593b8cabc218f0e89fd203b68fb5f7767d3c7ef3f99d7bfe06141d85eb9010000000000000000000000000000000000000000000000000000000000000000000000000000000000000000000000000000000000000000000000000000000000000000000000000000000000000000000000000000000000000000000000000000000000000000000000000000000000000000000000000000000000000000000000000000000000000000000000000000000000000000000000000000000000000000000000000000000000000000000000000000000000000000000000000000000000000000000000000000000000000000000000000000000000000000000000000000000000000000000000000000000000000000000000000000000000830200000185e8d4a5100083011d438203e880a0e3851995ac28eb641ec4f398b8a7b29f40671350ce53ff0d8cc6ed9fb9ef1cd688b8b45c4d64cc45bdf862f86080018302032a94b94f5374fce5edbc8e2a8697c15331677e6ebf0b64801ca0e50d3284baffc47daf12571b58a6b472a679708b3b417fd8f233a1762f862561a067228488d10eced039910ed1b669a24baf0c7537751a78af977cdc22d0b4a17dc0",
                "transactions" : [
                    {
                        "data" : "",
                        "gasLimit" : "0x02032a",
                        "gasPrice" : "0x01",
                        "nonce" : "0x00",
                        "r" : "0xe50d3284baffc47daf12571b58a6b472a679708b3b417fd8f233a1762f862561",
                        "s" : "0x67228488d10eced039910ed1b669a24baf0c7537751a78af977cdc22d0b4a17d",
                        "to" : "0xb94f5374fce5edbc8e2a8697c15331677e6ebf0b",
                        "v" : "0x1c",
                        "value" : "0x64"
                    }
                ],
                "uncleHeaders" : [
                ]
            }
        ],
        "genesisBlockHeader" : {
            "bloom" : "0x00000000000000000000000000000000000000000000000000000000000000000000000000000000000000000000000000000000000000000000000000000000000000000000000000000000000000000000000000000000000000000000000000000000000000000000000000000000000000000000000000000000000000000000000000000000000000000000000000000000000000000000000000000000000000000000000000000000000000000000000000000000000000000000000000000000000000000000000000000000000000000000000000000000000000000000000000000000000000000000000000000000000000000000000000000000",
            "coinbase" : "0x2adc25665018aa1fe0e6bc666dac8fc2697ff9ba",
            "difficulty" : "0x020000",
            "extraData" : "0x42",
            "gasLimit" : "0xe8d4a51000",
            "gasUsed" : "0x00",
            "hash" : "0x92a8d6713604324484b49c23e74531cbe99568f08bbf93a40a3f82f778cca8e6",
            "mixHash" : "0x56e81f171bcc55a6ff8345e692c0f86e5b48e01b996cadc001622fb5e363b421",
            "nonce" : "0x0102030405060708",
            "number" : "0x00",
            "parentHash" : "0x0000000000000000000000000000000000000000000000000000000000000000",
            "receiptTrie" : "0x56e81f171bcc55a6ff8345e692c0f86e5b48e01b996cadc001622fb5e363b421",
            "stateRoot" : "0x156953be8213367ec86d77358ff7bc67ef8e71c17abf310ffc147c8487bae2af",
            "timestamp" : "0x03b6",
            "transactionsTrie" : "0x56e81f171bcc55a6ff8345e692c0f86e5b48e01b996cadc001622fb5e363b421",
            "uncleHash" : "0x1dcc4de8dec75d7aab85b567b6ccd41ad312451b948a7413f0a142fd40d49347"
        },
        "genesisRLP" : "0xf901fcf901f7a00000000000000000000000000000000000000000000000000000000000000000a01dcc4de8dec75d7aab85b567b6ccd41ad312451b948a7413f0a142fd40d49347942adc25665018aa1fe0e6bc666dac8fc2697ff9baa0156953be8213367ec86d77358ff7bc67ef8e71c17abf310ffc147c8487bae2afa056e81f171bcc55a6ff8345e692c0f86e5b48e01b996cadc001622fb5e363b421a056e81f171bcc55a6ff8345e692c0f86e5b48e01b996cadc001622fb5e363b421b9010000000000000000000000000000000000000000000000000000000000000000000000000000000000000000000000000000000000000000000000000000000000000000000000000000000000000000000000000000000000000000000000000000000000000000000000000000000000000000000000000000000000000000000000000000000000000000000000000000000000000000000000000000000000000000000000000000000000000000000000000000000000000000000000000000000000000000000000000000000000000000000000000000000000000000000000000000000000000000000000000000000000000000000000000000000000830200008085e8d4a51000808203b642a056e81f171bcc55a6ff8345e692c0f86e5b48e01b996cadc001622fb5e363b421880102030405060708c0c0",
        "lastblockhash" : "0x9b4caee701470ef38d3917a7c3875bb158b7114a0ed65d01202496e611fa921b",
        "network" : "Byzantium",
        "postState" : {
            "0x2adc25665018aa1fe0e6bc666dac8fc2697ff9ba" : {
                "balance" : "0x29a2241af62d1d43",
                "code" : "",
                "nonce" : "0x00",
                "storage" : {
                }
            },
            "0xa94f5374fce5edbc8e2a8697c15331677e6ebf0b" : {
                "balance" : "0x04fcd9",
                "code" : "",
                "nonce" : "0x01",
                "storage" : {
                }
            },
            "0xb94f5374fce5edbc8e2a8697c15331677e6ebf0b" : {
                "balance" : "0x64",
                "code" : "0x64600c6000556000526005601b6000f0",
                "nonce" : "0x01",
                "storage" : {
                }
            },
            "0xf1ecf98489fa9ed60a664fc4998db699cfa39d40" : {
                "balance" : "0x00",
                "code" : "",
                "nonce" : "0x01",
                "storage" : {
                    "0x00" : "0x0c"
                }
            }
        },
        "pre" : {
            "0xa94f5374fce5edbc8e2a8697c15331677e6ebf0b" : {
                "balance" : "0x061a80",
                "code" : "",
                "nonce" : "0x00",
                "storage" : {
                }
            },
            "0xb94f5374fce5edbc8e2a8697c15331677e6ebf0b" : {
                "balance" : "0x00",
                "code" : "0x64600c6000556000526005601b6000f0",
                "nonce" : "0x00",
                "storage" : {
                }
            }
        }
    },
    "CreateMessageSuccess_d0g0v0_EIP150" : {
        "_info" : {
            "comment" : "",
            "filledwith" : "cpp-1.3.0+commit.6e0ce939.Linux.g++",
            "lllcversion" : "Version: 0.4.18-develop.2017.9.25+commit.a72237f2.Linux.g++",
            "source" : "src/BlockchainTestsFiller/GeneralStateTests/stTransactionTest/CreateMessageSuccess_d0g0v0Filler.json",
            "sourceHash" : "edd7a80b1f2f14f671d1b33395de5c35a696a6f99832c4e8b8b4890bf1e1a33c"
        },
        "blocks" : [
            {
                "blockHeader" : {
                    "bloom" : "0x00000000000000000000000000000000000000000000000000000000000000000000000000000000000000000000000000000000000000000000000000000000000000000000000000000000000000000000000000000000000000000000000000000000000000000000000000000000000000000000000000000000000000000000000000000000000000000000000000000000000000000000000000000000000000000000000000000000000000000000000000000000000000000000000000000000000000000000000000000000000000000000000000000000000000000000000000000000000000000000000000000000000000000000000000000000",
                    "coinbase" : "0x2adc25665018aa1fe0e6bc666dac8fc2697ff9ba",
                    "difficulty" : "0x020000",
                    "extraData" : "",
                    "gasLimit" : "0xe8d4a51000",
                    "gasUsed" : "0x011d43",
                    "hash" : "0xaaa710c4a2148fe3176d9546f0f851e42e93f652f733ec90147891ee23aab3c5",
                    "mixHash" : "0xc0f5951951a3369944f9d961c678a44b04453f1c2ec779c5a782061d90884076",
                    "nonce" : "0x18d70fc62ca1b060",
                    "number" : "0x01",
                    "parentHash" : "0x92a8d6713604324484b49c23e74531cbe99568f08bbf93a40a3f82f778cca8e6",
                    "receiptTrie" : "0xf7ddad3544696e654f97b4df93f62b76b0ad5d6fdd59785a4da0fcf97e007be6",
                    "stateRoot" : "0xc63122846103f1f0d5f537faa69ce3c93b525d204699d7c211cbc17e3ac1f80a",
                    "timestamp" : "0x03e8",
                    "transactionsTrie" : "0xbe70b05b1df4522aec758c4f6d268369e578251620b129377f8d38f5a4373ef5",
                    "uncleHash" : "0x1dcc4de8dec75d7aab85b567b6ccd41ad312451b948a7413f0a142fd40d49347"
                },
                "rlp" : "0xf90262f901faa092a8d6713604324484b49c23e74531cbe99568f08bbf93a40a3f82f778cca8e6a01dcc4de8dec75d7aab85b567b6ccd41ad312451b948a7413f0a142fd40d49347942adc25665018aa1fe0e6bc666dac8fc2697ff9baa0c63122846103f1f0d5f537faa69ce3c93b525d204699d7c211cbc17e3ac1f80aa0be70b05b1df4522aec758c4f6d268369e578251620b129377f8d38f5a4373ef5a0f7ddad3544696e654f97b4df93f62b76b0ad5d6fdd59785a4da0fcf97e007be6b9010000000000000000000000000000000000000000000000000000000000000000000000000000000000000000000000000000000000000000000000000000000000000000000000000000000000000000000000000000000000000000000000000000000000000000000000000000000000000000000000000000000000000000000000000000000000000000000000000000000000000000000000000000000000000000000000000000000000000000000000000000000000000000000000000000000000000000000000000000000000000000000000000000000000000000000000000000000000000000000000000000000000000000000000000000000000830200000185e8d4a5100083011d438203e880a0c0f5951951a3369944f9d961c678a44b04453f1c2ec779c5a782061d908840768818d70fc62ca1b060f862f86080018302032a94b94f5374fce5edbc8e2a8697c15331677e6ebf0b64801ca0e50d3284baffc47daf12571b58a6b472a679708b3b417fd8f233a1762f862561a067228488d10eced039910ed1b669a24baf0c7537751a78af977cdc22d0b4a17dc0",
                "transactions" : [
                    {
                        "data" : "",
                        "gasLimit" : "0x02032a",
                        "gasPrice" : "0x01",
                        "nonce" : "0x00",
                        "r" : "0xe50d3284baffc47daf12571b58a6b472a679708b3b417fd8f233a1762f862561",
                        "s" : "0x67228488d10eced039910ed1b669a24baf0c7537751a78af977cdc22d0b4a17d",
                        "to" : "0xb94f5374fce5edbc8e2a8697c15331677e6ebf0b",
                        "v" : "0x1c",
                        "value" : "0x64"
                    }
                ],
                "uncleHeaders" : [
                ]
            }
        ],
        "genesisBlockHeader" : {
            "bloom" : "0x00000000000000000000000000000000000000000000000000000000000000000000000000000000000000000000000000000000000000000000000000000000000000000000000000000000000000000000000000000000000000000000000000000000000000000000000000000000000000000000000000000000000000000000000000000000000000000000000000000000000000000000000000000000000000000000000000000000000000000000000000000000000000000000000000000000000000000000000000000000000000000000000000000000000000000000000000000000000000000000000000000000000000000000000000000000",
            "coinbase" : "0x2adc25665018aa1fe0e6bc666dac8fc2697ff9ba",
            "difficulty" : "0x020000",
            "extraData" : "0x42",
            "gasLimit" : "0xe8d4a51000",
            "gasUsed" : "0x00",
            "hash" : "0x92a8d6713604324484b49c23e74531cbe99568f08bbf93a40a3f82f778cca8e6",
            "mixHash" : "0x56e81f171bcc55a6ff8345e692c0f86e5b48e01b996cadc001622fb5e363b421",
            "nonce" : "0x0102030405060708",
            "number" : "0x00",
            "parentHash" : "0x0000000000000000000000000000000000000000000000000000000000000000",
            "receiptTrie" : "0x56e81f171bcc55a6ff8345e692c0f86e5b48e01b996cadc001622fb5e363b421",
            "stateRoot" : "0x156953be8213367ec86d77358ff7bc67ef8e71c17abf310ffc147c8487bae2af",
            "timestamp" : "0x03b6",
            "transactionsTrie" : "0x56e81f171bcc55a6ff8345e692c0f86e5b48e01b996cadc001622fb5e363b421",
            "uncleHash" : "0x1dcc4de8dec75d7aab85b567b6ccd41ad312451b948a7413f0a142fd40d49347"
        },
        "genesisRLP" : "0xf901fcf901f7a00000000000000000000000000000000000000000000000000000000000000000a01dcc4de8dec75d7aab85b567b6ccd41ad312451b948a7413f0a142fd40d49347942adc25665018aa1fe0e6bc666dac8fc2697ff9baa0156953be8213367ec86d77358ff7bc67ef8e71c17abf310ffc147c8487bae2afa056e81f171bcc55a6ff8345e692c0f86e5b48e01b996cadc001622fb5e363b421a056e81f171bcc55a6ff8345e692c0f86e5b48e01b996cadc001622fb5e363b421b9010000000000000000000000000000000000000000000000000000000000000000000000000000000000000000000000000000000000000000000000000000000000000000000000000000000000000000000000000000000000000000000000000000000000000000000000000000000000000000000000000000000000000000000000000000000000000000000000000000000000000000000000000000000000000000000000000000000000000000000000000000000000000000000000000000000000000000000000000000000000000000000000000000000000000000000000000000000000000000000000000000000000000000000000000000000000830200008085e8d4a51000808203b642a056e81f171bcc55a6ff8345e692c0f86e5b48e01b996cadc001622fb5e363b421880102030405060708c0c0",
        "lastblockhash" : "0xaaa710c4a2148fe3176d9546f0f851e42e93f652f733ec90147891ee23aab3c5",
        "network" : "EIP150",
        "postState" : {
            "0x2adc25665018aa1fe0e6bc666dac8fc2697ff9ba" : {
                "balance" : "0x4563918244f51d43",
                "code" : "",
                "nonce" : "0x00",
                "storage" : {
                }
            },
            "0xa94f5374fce5edbc8e2a8697c15331677e6ebf0b" : {
                "balance" : "0x04fcd9",
                "code" : "",
                "nonce" : "0x01",
                "storage" : {
                }
            },
            "0xb94f5374fce5edbc8e2a8697c15331677e6ebf0b" : {
                "balance" : "0x64",
                "code" : "0x64600c6000556000526005601b6000f0",
                "nonce" : "0x01",
                "storage" : {
                }
            },
            "0xf1ecf98489fa9ed60a664fc4998db699cfa39d40" : {
                "balance" : "0x00",
                "code" : "",
                "nonce" : "0x00",
                "storage" : {
                    "0x00" : "0x0c"
                }
            }
        },
        "pre" : {
            "0xa94f5374fce5edbc8e2a8697c15331677e6ebf0b" : {
                "balance" : "0x061a80",
                "code" : "",
                "nonce" : "0x00",
                "storage" : {
                }
            },
            "0xb94f5374fce5edbc8e2a8697c15331677e6ebf0b" : {
                "balance" : "0x00",
                "code" : "0x64600c6000556000526005601b6000f0",
                "nonce" : "0x00",
                "storage" : {
                }
            }
        }
    },
    "CreateMessageSuccess_d0g0v0_EIP158" : {
        "_info" : {
            "comment" : "",
            "filledwith" : "cpp-1.3.0+commit.6e0ce939.Linux.g++",
            "lllcversion" : "Version: 0.4.18-develop.2017.9.25+commit.a72237f2.Linux.g++",
            "source" : "src/BlockchainTestsFiller/GeneralStateTests/stTransactionTest/CreateMessageSuccess_d0g0v0Filler.json",
            "sourceHash" : "edd7a80b1f2f14f671d1b33395de5c35a696a6f99832c4e8b8b4890bf1e1a33c"
        },
        "blocks" : [
            {
                "blockHeader" : {
                    "bloom" : "0x00000000000000000000000000000000000000000000000000000000000000000000000000000000000000000000000000000000000000000000000000000000000000000000000000000000000000000000000000000000000000000000000000000000000000000000000000000000000000000000000000000000000000000000000000000000000000000000000000000000000000000000000000000000000000000000000000000000000000000000000000000000000000000000000000000000000000000000000000000000000000000000000000000000000000000000000000000000000000000000000000000000000000000000000000000000",
                    "coinbase" : "0x2adc25665018aa1fe0e6bc666dac8fc2697ff9ba",
                    "difficulty" : "0x020000",
                    "extraData" : "",
                    "gasLimit" : "0xe8d4a51000",
                    "gasUsed" : "0x011d43",
                    "hash" : "0xccfec675f1cee62bbf0ed065cba0b8c1416b76605846cbcbe03767fa62ed62d0",
                    "mixHash" : "0x58e34be662383316164814da8dd5a1d53e13b51ed004a2b7f67ac7f1afdf8357",
                    "nonce" : "0x8f3c4f18cc14f481",
                    "number" : "0x01",
                    "parentHash" : "0x92a8d6713604324484b49c23e74531cbe99568f08bbf93a40a3f82f778cca8e6",
                    "receiptTrie" : "0xd81ce2a45d6de02de6afd07b3127631de708f1caab554853e90e060ef9776961",
                    "stateRoot" : "0xe7aa9cfcf78f24ceca24301dbeeb934530aea7073de076b40f83c4d58f308a58",
                    "timestamp" : "0x03e8",
                    "transactionsTrie" : "0xbe70b05b1df4522aec758c4f6d268369e578251620b129377f8d38f5a4373ef5",
                    "uncleHash" : "0x1dcc4de8dec75d7aab85b567b6ccd41ad312451b948a7413f0a142fd40d49347"
                },
                "rlp" : "0xf90262f901faa092a8d6713604324484b49c23e74531cbe99568f08bbf93a40a3f82f778cca8e6a01dcc4de8dec75d7aab85b567b6ccd41ad312451b948a7413f0a142fd40d49347942adc25665018aa1fe0e6bc666dac8fc2697ff9baa0e7aa9cfcf78f24ceca24301dbeeb934530aea7073de076b40f83c4d58f308a58a0be70b05b1df4522aec758c4f6d268369e578251620b129377f8d38f5a4373ef5a0d81ce2a45d6de02de6afd07b3127631de708f1caab554853e90e060ef9776961b9010000000000000000000000000000000000000000000000000000000000000000000000000000000000000000000000000000000000000000000000000000000000000000000000000000000000000000000000000000000000000000000000000000000000000000000000000000000000000000000000000000000000000000000000000000000000000000000000000000000000000000000000000000000000000000000000000000000000000000000000000000000000000000000000000000000000000000000000000000000000000000000000000000000000000000000000000000000000000000000000000000000000000000000000000000000000830200000185e8d4a5100083011d438203e880a058e34be662383316164814da8dd5a1d53e13b51ed004a2b7f67ac7f1afdf8357888f3c4f18cc14f481f862f86080018302032a94b94f5374fce5edbc8e2a8697c15331677e6ebf0b64801ca0e50d3284baffc47daf12571b58a6b472a679708b3b417fd8f233a1762f862561a067228488d10eced039910ed1b669a24baf0c7537751a78af977cdc22d0b4a17dc0",
                "transactions" : [
                    {
                        "data" : "",
                        "gasLimit" : "0x02032a",
                        "gasPrice" : "0x01",
                        "nonce" : "0x00",
                        "r" : "0xe50d3284baffc47daf12571b58a6b472a679708b3b417fd8f233a1762f862561",
                        "s" : "0x67228488d10eced039910ed1b669a24baf0c7537751a78af977cdc22d0b4a17d",
                        "to" : "0xb94f5374fce5edbc8e2a8697c15331677e6ebf0b",
                        "v" : "0x1c",
                        "value" : "0x64"
                    }
                ],
                "uncleHeaders" : [
                ]
            }
        ],
        "genesisBlockHeader" : {
            "bloom" : "0x00000000000000000000000000000000000000000000000000000000000000000000000000000000000000000000000000000000000000000000000000000000000000000000000000000000000000000000000000000000000000000000000000000000000000000000000000000000000000000000000000000000000000000000000000000000000000000000000000000000000000000000000000000000000000000000000000000000000000000000000000000000000000000000000000000000000000000000000000000000000000000000000000000000000000000000000000000000000000000000000000000000000000000000000000000000",
            "coinbase" : "0x2adc25665018aa1fe0e6bc666dac8fc2697ff9ba",
            "difficulty" : "0x020000",
            "extraData" : "0x42",
            "gasLimit" : "0xe8d4a51000",
            "gasUsed" : "0x00",
            "hash" : "0x92a8d6713604324484b49c23e74531cbe99568f08bbf93a40a3f82f778cca8e6",
            "mixHash" : "0x56e81f171bcc55a6ff8345e692c0f86e5b48e01b996cadc001622fb5e363b421",
            "nonce" : "0x0102030405060708",
            "number" : "0x00",
            "parentHash" : "0x0000000000000000000000000000000000000000000000000000000000000000",
            "receiptTrie" : "0x56e81f171bcc55a6ff8345e692c0f86e5b48e01b996cadc001622fb5e363b421",
            "stateRoot" : "0x156953be8213367ec86d77358ff7bc67ef8e71c17abf310ffc147c8487bae2af",
            "timestamp" : "0x03b6",
            "transactionsTrie" : "0x56e81f171bcc55a6ff8345e692c0f86e5b48e01b996cadc001622fb5e363b421",
            "uncleHash" : "0x1dcc4de8dec75d7aab85b567b6ccd41ad312451b948a7413f0a142fd40d49347"
        },
        "genesisRLP" : "0xf901fcf901f7a00000000000000000000000000000000000000000000000000000000000000000a01dcc4de8dec75d7aab85b567b6ccd41ad312451b948a7413f0a142fd40d49347942adc25665018aa1fe0e6bc666dac8fc2697ff9baa0156953be8213367ec86d77358ff7bc67ef8e71c17abf310ffc147c8487bae2afa056e81f171bcc55a6ff8345e692c0f86e5b48e01b996cadc001622fb5e363b421a056e81f171bcc55a6ff8345e692c0f86e5b48e01b996cadc001622fb5e363b421b9010000000000000000000000000000000000000000000000000000000000000000000000000000000000000000000000000000000000000000000000000000000000000000000000000000000000000000000000000000000000000000000000000000000000000000000000000000000000000000000000000000000000000000000000000000000000000000000000000000000000000000000000000000000000000000000000000000000000000000000000000000000000000000000000000000000000000000000000000000000000000000000000000000000000000000000000000000000000000000000000000000000000000000000000000000000000830200008085e8d4a51000808203b642a056e81f171bcc55a6ff8345e692c0f86e5b48e01b996cadc001622fb5e363b421880102030405060708c0c0",
        "lastblockhash" : "0xccfec675f1cee62bbf0ed065cba0b8c1416b76605846cbcbe03767fa62ed62d0",
        "network" : "EIP158",
        "postState" : {
            "0x2adc25665018aa1fe0e6bc666dac8fc2697ff9ba" : {
                "balance" : "0x4563918244f51d43",
                "code" : "",
                "nonce" : "0x00",
                "storage" : {
                }
            },
            "0xa94f5374fce5edbc8e2a8697c15331677e6ebf0b" : {
                "balance" : "0x04fcd9",
                "code" : "",
                "nonce" : "0x01",
                "storage" : {
                }
            },
            "0xb94f5374fce5edbc8e2a8697c15331677e6ebf0b" : {
                "balance" : "0x64",
                "code" : "0x64600c6000556000526005601b6000f0",
                "nonce" : "0x01",
                "storage" : {
                }
            },
            "0xf1ecf98489fa9ed60a664fc4998db699cfa39d40" : {
                "balance" : "0x00",
                "code" : "",
                "nonce" : "0x01",
                "storage" : {
                    "0x00" : "0x0c"
                }
            }
        },
        "pre" : {
            "0xa94f5374fce5edbc8e2a8697c15331677e6ebf0b" : {
                "balance" : "0x061a80",
                "code" : "",
                "nonce" : "0x00",
                "storage" : {
                }
            },
            "0xb94f5374fce5edbc8e2a8697c15331677e6ebf0b" : {
                "balance" : "0x00",
                "code" : "0x64600c6000556000526005601b6000f0",
                "nonce" : "0x00",
                "storage" : {
                }
            }
        }
    },
    "CreateMessageSuccess_d0g0v0_Frontier" : {
        "_info" : {
            "comment" : "",
            "filledwith" : "cpp-1.3.0+commit.6e0ce939.Linux.g++",
            "lllcversion" : "Version: 0.4.18-develop.2017.9.25+commit.a72237f2.Linux.g++",
            "source" : "src/BlockchainTestsFiller/GeneralStateTests/stTransactionTest/CreateMessageSuccess_d0g0v0Filler.json",
            "sourceHash" : "edd7a80b1f2f14f671d1b33395de5c35a696a6f99832c4e8b8b4890bf1e1a33c"
        },
        "blocks" : [
            {
                "blockHeader" : {
                    "bloom" : "0x00000000000000000000000000000000000000000000000000000000000000000000000000000000000000000000000000000000000000000000000000000000000000000000000000000000000000000000000000000000000000000000000000000000000000000000000000000000000000000000000000000000000000000000000000000000000000000000000000000000000000000000000000000000000000000000000000000000000000000000000000000000000000000000000000000000000000000000000000000000000000000000000000000000000000000000000000000000000000000000000000000000000000000000000000000000",
                    "coinbase" : "0x2adc25665018aa1fe0e6bc666dac8fc2697ff9ba",
                    "difficulty" : "0x020000",
                    "extraData" : "",
                    "gasLimit" : "0xe8d4a51000",
                    "gasUsed" : "0x011d43",
                    "hash" : "0xa487b0d6995206224964aa70034f0d07786b5f78b4c8ebbac01b7c837fe60ac4",
                    "mixHash" : "0x1f0faccd125dd53d06c55ca5768693eb39f882cc40073af9e77002d674933a55",
                    "nonce" : "0x0ee252ec7efe3df6",
                    "number" : "0x01",
                    "parentHash" : "0x92a8d6713604324484b49c23e74531cbe99568f08bbf93a40a3f82f778cca8e6",
                    "receiptTrie" : "0xf7ddad3544696e654f97b4df93f62b76b0ad5d6fdd59785a4da0fcf97e007be6",
                    "stateRoot" : "0xc63122846103f1f0d5f537faa69ce3c93b525d204699d7c211cbc17e3ac1f80a",
                    "timestamp" : "0x03e8",
                    "transactionsTrie" : "0xbe70b05b1df4522aec758c4f6d268369e578251620b129377f8d38f5a4373ef5",
                    "uncleHash" : "0x1dcc4de8dec75d7aab85b567b6ccd41ad312451b948a7413f0a142fd40d49347"
                },
                "rlp" : "0xf90262f901faa092a8d6713604324484b49c23e74531cbe99568f08bbf93a40a3f82f778cca8e6a01dcc4de8dec75d7aab85b567b6ccd41ad312451b948a7413f0a142fd40d49347942adc25665018aa1fe0e6bc666dac8fc2697ff9baa0c63122846103f1f0d5f537faa69ce3c93b525d204699d7c211cbc17e3ac1f80aa0be70b05b1df4522aec758c4f6d268369e578251620b129377f8d38f5a4373ef5a0f7ddad3544696e654f97b4df93f62b76b0ad5d6fdd59785a4da0fcf97e007be6b9010000000000000000000000000000000000000000000000000000000000000000000000000000000000000000000000000000000000000000000000000000000000000000000000000000000000000000000000000000000000000000000000000000000000000000000000000000000000000000000000000000000000000000000000000000000000000000000000000000000000000000000000000000000000000000000000000000000000000000000000000000000000000000000000000000000000000000000000000000000000000000000000000000000000000000000000000000000000000000000000000000000000000000000000000000000000830200000185e8d4a5100083011d438203e880a01f0faccd125dd53d06c55ca5768693eb39f882cc40073af9e77002d674933a55880ee252ec7efe3df6f862f86080018302032a94b94f5374fce5edbc8e2a8697c15331677e6ebf0b64801ca0e50d3284baffc47daf12571b58a6b472a679708b3b417fd8f233a1762f862561a067228488d10eced039910ed1b669a24baf0c7537751a78af977cdc22d0b4a17dc0",
                "transactions" : [
                    {
                        "data" : "",
                        "gasLimit" : "0x02032a",
                        "gasPrice" : "0x01",
                        "nonce" : "0x00",
                        "r" : "0xe50d3284baffc47daf12571b58a6b472a679708b3b417fd8f233a1762f862561",
                        "s" : "0x67228488d10eced039910ed1b669a24baf0c7537751a78af977cdc22d0b4a17d",
                        "to" : "0xb94f5374fce5edbc8e2a8697c15331677e6ebf0b",
                        "v" : "0x1c",
                        "value" : "0x64"
                    }
                ],
                "uncleHeaders" : [
                ]
            }
        ],
        "genesisBlockHeader" : {
            "bloom" : "0x00000000000000000000000000000000000000000000000000000000000000000000000000000000000000000000000000000000000000000000000000000000000000000000000000000000000000000000000000000000000000000000000000000000000000000000000000000000000000000000000000000000000000000000000000000000000000000000000000000000000000000000000000000000000000000000000000000000000000000000000000000000000000000000000000000000000000000000000000000000000000000000000000000000000000000000000000000000000000000000000000000000000000000000000000000000",
            "coinbase" : "0x2adc25665018aa1fe0e6bc666dac8fc2697ff9ba",
            "difficulty" : "0x020000",
            "extraData" : "0x42",
            "gasLimit" : "0xe8d4a51000",
            "gasUsed" : "0x00",
            "hash" : "0x92a8d6713604324484b49c23e74531cbe99568f08bbf93a40a3f82f778cca8e6",
            "mixHash" : "0x56e81f171bcc55a6ff8345e692c0f86e5b48e01b996cadc001622fb5e363b421",
            "nonce" : "0x0102030405060708",
            "number" : "0x00",
            "parentHash" : "0x0000000000000000000000000000000000000000000000000000000000000000",
            "receiptTrie" : "0x56e81f171bcc55a6ff8345e692c0f86e5b48e01b996cadc001622fb5e363b421",
            "stateRoot" : "0x156953be8213367ec86d77358ff7bc67ef8e71c17abf310ffc147c8487bae2af",
            "timestamp" : "0x03b6",
            "transactionsTrie" : "0x56e81f171bcc55a6ff8345e692c0f86e5b48e01b996cadc001622fb5e363b421",
            "uncleHash" : "0x1dcc4de8dec75d7aab85b567b6ccd41ad312451b948a7413f0a142fd40d49347"
        },
        "genesisRLP" : "0xf901fcf901f7a00000000000000000000000000000000000000000000000000000000000000000a01dcc4de8dec75d7aab85b567b6ccd41ad312451b948a7413f0a142fd40d49347942adc25665018aa1fe0e6bc666dac8fc2697ff9baa0156953be8213367ec86d77358ff7bc67ef8e71c17abf310ffc147c8487bae2afa056e81f171bcc55a6ff8345e692c0f86e5b48e01b996cadc001622fb5e363b421a056e81f171bcc55a6ff8345e692c0f86e5b48e01b996cadc001622fb5e363b421b9010000000000000000000000000000000000000000000000000000000000000000000000000000000000000000000000000000000000000000000000000000000000000000000000000000000000000000000000000000000000000000000000000000000000000000000000000000000000000000000000000000000000000000000000000000000000000000000000000000000000000000000000000000000000000000000000000000000000000000000000000000000000000000000000000000000000000000000000000000000000000000000000000000000000000000000000000000000000000000000000000000000000000000000000000000000000830200008085e8d4a51000808203b642a056e81f171bcc55a6ff8345e692c0f86e5b48e01b996cadc001622fb5e363b421880102030405060708c0c0",
        "lastblockhash" : "0xa487b0d6995206224964aa70034f0d07786b5f78b4c8ebbac01b7c837fe60ac4",
        "network" : "Frontier",
        "postState" : {
            "0x2adc25665018aa1fe0e6bc666dac8fc2697ff9ba" : {
                "balance" : "0x4563918244f51d43",
                "code" : "",
                "nonce" : "0x00",
                "storage" : {
                }
            },
            "0xa94f5374fce5edbc8e2a8697c15331677e6ebf0b" : {
                "balance" : "0x04fcd9",
                "code" : "",
                "nonce" : "0x01",
                "storage" : {
                }
            },
            "0xb94f5374fce5edbc8e2a8697c15331677e6ebf0b" : {
                "balance" : "0x64",
                "code" : "0x64600c6000556000526005601b6000f0",
                "nonce" : "0x01",
                "storage" : {
                }
            },
            "0xf1ecf98489fa9ed60a664fc4998db699cfa39d40" : {
                "balance" : "0x00",
                "code" : "",
                "nonce" : "0x00",
                "storage" : {
                    "0x00" : "0x0c"
                }
            }
        },
        "pre" : {
            "0xa94f5374fce5edbc8e2a8697c15331677e6ebf0b" : {
                "balance" : "0x061a80",
                "code" : "",
                "nonce" : "0x00",
                "storage" : {
                }
            },
            "0xb94f5374fce5edbc8e2a8697c15331677e6ebf0b" : {
                "balance" : "0x00",
                "code" : "0x64600c6000556000526005601b6000f0",
                "nonce" : "0x00",
                "storage" : {
                }
            }
        }
    },
    "CreateMessageSuccess_d0g0v0_Homestead" : {
        "_info" : {
            "comment" : "",
            "filledwith" : "cpp-1.3.0+commit.6e0ce939.Linux.g++",
            "lllcversion" : "Version: 0.4.18-develop.2017.9.25+commit.a72237f2.Linux.g++",
            "source" : "src/BlockchainTestsFiller/GeneralStateTests/stTransactionTest/CreateMessageSuccess_d0g0v0Filler.json",
            "sourceHash" : "edd7a80b1f2f14f671d1b33395de5c35a696a6f99832c4e8b8b4890bf1e1a33c"
        },
        "blocks" : [
            {
                "blockHeader" : {
                    "bloom" : "0x00000000000000000000000000000000000000000000000000000000000000000000000000000000000000000000000000000000000000000000000000000000000000000000000000000000000000000000000000000000000000000000000000000000000000000000000000000000000000000000000000000000000000000000000000000000000000000000000000000000000000000000000000000000000000000000000000000000000000000000000000000000000000000000000000000000000000000000000000000000000000000000000000000000000000000000000000000000000000000000000000000000000000000000000000000000",
                    "coinbase" : "0x2adc25665018aa1fe0e6bc666dac8fc2697ff9ba",
                    "difficulty" : "0x020000",
                    "extraData" : "",
                    "gasLimit" : "0xe8d4a51000",
                    "gasUsed" : "0x011d43",
                    "hash" : "0x3f2901083588de58ba670cb3ad4c5f54f5e21d6ff0fee296254bc0192d31986a",
                    "mixHash" : "0x0c87f56c13259b0e453c6f12b2cf02f10616bcdb2a29ce81fb90ecc87fe9333e",
                    "nonce" : "0x2de18ab0fe59f9bd",
                    "number" : "0x01",
                    "parentHash" : "0x92a8d6713604324484b49c23e74531cbe99568f08bbf93a40a3f82f778cca8e6",
                    "receiptTrie" : "0xf7ddad3544696e654f97b4df93f62b76b0ad5d6fdd59785a4da0fcf97e007be6",
                    "stateRoot" : "0xc63122846103f1f0d5f537faa69ce3c93b525d204699d7c211cbc17e3ac1f80a",
                    "timestamp" : "0x03e8",
                    "transactionsTrie" : "0xbe70b05b1df4522aec758c4f6d268369e578251620b129377f8d38f5a4373ef5",
                    "uncleHash" : "0x1dcc4de8dec75d7aab85b567b6ccd41ad312451b948a7413f0a142fd40d49347"
                },
                "rlp" : "0xf90262f901faa092a8d6713604324484b49c23e74531cbe99568f08bbf93a40a3f82f778cca8e6a01dcc4de8dec75d7aab85b567b6ccd41ad312451b948a7413f0a142fd40d49347942adc25665018aa1fe0e6bc666dac8fc2697ff9baa0c63122846103f1f0d5f537faa69ce3c93b525d204699d7c211cbc17e3ac1f80aa0be70b05b1df4522aec758c4f6d268369e578251620b129377f8d38f5a4373ef5a0f7ddad3544696e654f97b4df93f62b76b0ad5d6fdd59785a4da0fcf97e007be6b9010000000000000000000000000000000000000000000000000000000000000000000000000000000000000000000000000000000000000000000000000000000000000000000000000000000000000000000000000000000000000000000000000000000000000000000000000000000000000000000000000000000000000000000000000000000000000000000000000000000000000000000000000000000000000000000000000000000000000000000000000000000000000000000000000000000000000000000000000000000000000000000000000000000000000000000000000000000000000000000000000000000000000000000000000000000000830200000185e8d4a5100083011d438203e880a00c87f56c13259b0e453c6f12b2cf02f10616bcdb2a29ce81fb90ecc87fe9333e882de18ab0fe59f9bdf862f86080018302032a94b94f5374fce5edbc8e2a8697c15331677e6ebf0b64801ca0e50d3284baffc47daf12571b58a6b472a679708b3b417fd8f233a1762f862561a067228488d10eced039910ed1b669a24baf0c7537751a78af977cdc22d0b4a17dc0",
                "transactions" : [
                    {
                        "data" : "",
                        "gasLimit" : "0x02032a",
                        "gasPrice" : "0x01",
                        "nonce" : "0x00",
                        "r" : "0xe50d3284baffc47daf12571b58a6b472a679708b3b417fd8f233a1762f862561",
                        "s" : "0x67228488d10eced039910ed1b669a24baf0c7537751a78af977cdc22d0b4a17d",
                        "to" : "0xb94f5374fce5edbc8e2a8697c15331677e6ebf0b",
                        "v" : "0x1c",
                        "value" : "0x64"
                    }
                ],
                "uncleHeaders" : [
                ]
            }
        ],
        "genesisBlockHeader" : {
            "bloom" : "0x00000000000000000000000000000000000000000000000000000000000000000000000000000000000000000000000000000000000000000000000000000000000000000000000000000000000000000000000000000000000000000000000000000000000000000000000000000000000000000000000000000000000000000000000000000000000000000000000000000000000000000000000000000000000000000000000000000000000000000000000000000000000000000000000000000000000000000000000000000000000000000000000000000000000000000000000000000000000000000000000000000000000000000000000000000000",
            "coinbase" : "0x2adc25665018aa1fe0e6bc666dac8fc2697ff9ba",
            "difficulty" : "0x020000",
            "extraData" : "0x42",
            "gasLimit" : "0xe8d4a51000",
            "gasUsed" : "0x00",
            "hash" : "0x92a8d6713604324484b49c23e74531cbe99568f08bbf93a40a3f82f778cca8e6",
            "mixHash" : "0x56e81f171bcc55a6ff8345e692c0f86e5b48e01b996cadc001622fb5e363b421",
            "nonce" : "0x0102030405060708",
            "number" : "0x00",
            "parentHash" : "0x0000000000000000000000000000000000000000000000000000000000000000",
            "receiptTrie" : "0x56e81f171bcc55a6ff8345e692c0f86e5b48e01b996cadc001622fb5e363b421",
            "stateRoot" : "0x156953be8213367ec86d77358ff7bc67ef8e71c17abf310ffc147c8487bae2af",
            "timestamp" : "0x03b6",
            "transactionsTrie" : "0x56e81f171bcc55a6ff8345e692c0f86e5b48e01b996cadc001622fb5e363b421",
            "uncleHash" : "0x1dcc4de8dec75d7aab85b567b6ccd41ad312451b948a7413f0a142fd40d49347"
        },
        "genesisRLP" : "0xf901fcf901f7a00000000000000000000000000000000000000000000000000000000000000000a01dcc4de8dec75d7aab85b567b6ccd41ad312451b948a7413f0a142fd40d49347942adc25665018aa1fe0e6bc666dac8fc2697ff9baa0156953be8213367ec86d77358ff7bc67ef8e71c17abf310ffc147c8487bae2afa056e81f171bcc55a6ff8345e692c0f86e5b48e01b996cadc001622fb5e363b421a056e81f171bcc55a6ff8345e692c0f86e5b48e01b996cadc001622fb5e363b421b9010000000000000000000000000000000000000000000000000000000000000000000000000000000000000000000000000000000000000000000000000000000000000000000000000000000000000000000000000000000000000000000000000000000000000000000000000000000000000000000000000000000000000000000000000000000000000000000000000000000000000000000000000000000000000000000000000000000000000000000000000000000000000000000000000000000000000000000000000000000000000000000000000000000000000000000000000000000000000000000000000000000000000000000000000000000000830200008085e8d4a51000808203b642a056e81f171bcc55a6ff8345e692c0f86e5b48e01b996cadc001622fb5e363b421880102030405060708c0c0",
        "lastblockhash" : "0x3f2901083588de58ba670cb3ad4c5f54f5e21d6ff0fee296254bc0192d31986a",
        "network" : "Homestead",
        "postState" : {
            "0x2adc25665018aa1fe0e6bc666dac8fc2697ff9ba" : {
                "balance" : "0x4563918244f51d43",
                "code" : "",
                "nonce" : "0x00",
                "storage" : {
                }
            },
            "0xa94f5374fce5edbc8e2a8697c15331677e6ebf0b" : {
                "balance" : "0x04fcd9",
                "code" : "",
                "nonce" : "0x01",
                "storage" : {
                }
            },
            "0xb94f5374fce5edbc8e2a8697c15331677e6ebf0b" : {
                "balance" : "0x64",
                "code" : "0x64600c6000556000526005601b6000f0",
                "nonce" : "0x01",
                "storage" : {
                }
            },
            "0xf1ecf98489fa9ed60a664fc4998db699cfa39d40" : {
                "balance" : "0x00",
                "code" : "",
                "nonce" : "0x00",
                "storage" : {
                    "0x00" : "0x0c"
                }
            }
        },
        "pre" : {
            "0xa94f5374fce5edbc8e2a8697c15331677e6ebf0b" : {
                "balance" : "0x061a80",
                "code" : "",
                "nonce" : "0x00",
                "storage" : {
                }
            },
            "0xb94f5374fce5edbc8e2a8697c15331677e6ebf0b" : {
                "balance" : "0x00",
                "code" : "0x64600c6000556000526005601b6000f0",
                "nonce" : "0x00",
                "storage" : {
                }
            }
        }
    }
}