{
    "CreateTransactionSuccess_d0g0v0_Byzantium" : {
        "_info" : {
            "comment" : "",
            "filledwith" : "cpp-1.3.0+commit.6e0ce939.Linux.g++",
            "lllcversion" : "Version: 0.4.18-develop.2017.9.25+commit.a72237f2.Linux.g++",
            "source" : "src/BlockchainTestsFiller/GeneralStateTests/stTransactionTest/CreateTransactionSuccess_d0g0v0Filler.json",
            "sourceHash" : "dbb738d2bcff74ae483ad20590f9d52fd4dc002487f5ee9da408e9735b948356"
        },
        "blocks" : [
            {
                "blockHeader" : {
                    "bloom" : "0x00000000000000000000000000000000000000000000000000000000000000000000000000000000000000000000000000000000000000000000000000000000000000000000000000000000000000000000000000000000000000000000000000000000000000000000000000000000000000000000000000000000000000000000000000000000000000000000000000000000000000000000000000000000000000000000000000000000000000000000000000000000000000000000000000000000000000000000000000000000000000000000000000000000000000000000000000000000000000000000000000000000000000000000000000000000",
                    "coinbase" : "0x2adc25665018aa1fe0e6bc666dac8fc2697ff9ba",
                    "difficulty" : "0x020000",
                    "extraData" : "",
                    "gasLimit" : "0xe8d4a51000",
                    "gasUsed" : "0xf42e",
                    "hash" : "0xdfbbb3160d86371497287f0845f19d772a5ec8287237376de1aa82b7c5dd5e65",
                    "mixHash" : "0xd733fb92c74fda1240745e5da50adf1b1b8b08514c8ab8fc741931fde2b0a3e6",
                    "nonce" : "0x5504869eb8b643a5",
                    "number" : "0x01",
                    "parentHash" : "0xce072901809059ecf3aac3d23169d290b34c557bdab6e6a97217320c9b9c962b",
                    "receiptTrie" : "0xabe4db087fe5331544e22b006d610e7e18001f53c17c856752a50a85d0add7b4",
                    "stateRoot" : "0x6662f66388c29ffa35fefdc291aadd0aed9b962e544bede336431eb73c0d2b97",
                    "timestamp" : "0x03e8",
                    "transactionsTrie" : "0xbae8e9273546528dffc1096e056e73ffbdf000a5673d777d3d3dc68adca44ee9",
                    "uncleHash" : "0x1dcc4de8dec75d7aab85b567b6ccd41ad312451b948a7413f0a142fd40d49347"
                },
                "rlp" : "0xf9027bf901f9a0ce072901809059ecf3aac3d23169d290b34c557bdab6e6a97217320c9b9c962ba01dcc4de8dec75d7aab85b567b6ccd41ad312451b948a7413f0a142fd40d49347942adc25665018aa1fe0e6bc666dac8fc2697ff9baa06662f66388c29ffa35fefdc291aadd0aed9b962e544bede336431eb73c0d2b97a0bae8e9273546528dffc1096e056e73ffbdf000a5673d777d3d3dc68adca44ee9a0abe4db087fe5331544e22b006d610e7e18001f53c17c856752a50a85d0add7b4b9010000000000000000000000000000000000000000000000000000000000000000000000000000000000000000000000000000000000000000000000000000000000000000000000000000000000000000000000000000000000000000000000000000000000000000000000000000000000000000000000000000000000000000000000000000000000000000000000000000000000000000000000000000000000000000000000000000000000000000000000000000000000000000000000000000000000000000000000000000000000000000000000000000000000000000000000000000000000000000000000000000000000000000000000000000000000830200000185e8d4a5100082f42e8203e880a0d733fb92c74fda1240745e5da50adf1b1b8b08514c8ab8fc741931fde2b0a3e6885504869eb8b643a5f87cf87a8001830111708064ae602280600c6000396000f30060e060020a600035048063f8a8fd6d14601457005b601a6020565b60006000f35b561ba01dce1dede104bc6f68b8af4c343eb75494039c7f28b0769425732ef00a4027cca014091d84ea5ebbd4503fad626cca170400acdf4161f7a5aca06e365066230693c0",
                "transactions" : [
                    {
                        "data" : "0x602280600c6000396000f30060e060020a600035048063f8a8fd6d14601457005b601a6020565b60006000f35b56",
                        "gasLimit" : "0x011170",
                        "gasPrice" : "0x01",
                        "nonce" : "0x00",
                        "r" : "0x1dce1dede104bc6f68b8af4c343eb75494039c7f28b0769425732ef00a4027cc",
                        "s" : "0x14091d84ea5ebbd4503fad626cca170400acdf4161f7a5aca06e365066230693",
                        "to" : "",
                        "v" : "0x1b",
                        "value" : "0x64"
                    }
                ],
                "uncleHeaders" : [
                ]
            }
        ],
        "genesisBlockHeader" : {
            "bloom" : "0x00000000000000000000000000000000000000000000000000000000000000000000000000000000000000000000000000000000000000000000000000000000000000000000000000000000000000000000000000000000000000000000000000000000000000000000000000000000000000000000000000000000000000000000000000000000000000000000000000000000000000000000000000000000000000000000000000000000000000000000000000000000000000000000000000000000000000000000000000000000000000000000000000000000000000000000000000000000000000000000000000000000000000000000000000000000",
            "coinbase" : "0x2adc25665018aa1fe0e6bc666dac8fc2697ff9ba",
            "difficulty" : "0x020000",
            "extraData" : "0x42",
            "gasLimit" : "0xe8d4a51000",
            "gasUsed" : "0x00",
            "hash" : "0xce072901809059ecf3aac3d23169d290b34c557bdab6e6a97217320c9b9c962b",
            "mixHash" : "0x56e81f171bcc55a6ff8345e692c0f86e5b48e01b996cadc001622fb5e363b421",
            "nonce" : "0x0102030405060708",
            "number" : "0x00",
            "parentHash" : "0x0000000000000000000000000000000000000000000000000000000000000000",
            "receiptTrie" : "0x56e81f171bcc55a6ff8345e692c0f86e5b48e01b996cadc001622fb5e363b421",
            "stateRoot" : "0xa3e1c133a5a51b03399ed9ad0380f3182e9e18322f232b816dd4b9094f871e1b",
            "timestamp" : "0x03b6",
            "transactionsTrie" : "0x56e81f171bcc55a6ff8345e692c0f86e5b48e01b996cadc001622fb5e363b421",
            "uncleHash" : "0x1dcc4de8dec75d7aab85b567b6ccd41ad312451b948a7413f0a142fd40d49347"
        },
        "genesisRLP" : "0xf901fcf901f7a00000000000000000000000000000000000000000000000000000000000000000a01dcc4de8dec75d7aab85b567b6ccd41ad312451b948a7413f0a142fd40d49347942adc25665018aa1fe0e6bc666dac8fc2697ff9baa0a3e1c133a5a51b03399ed9ad0380f3182e9e18322f232b816dd4b9094f871e1ba056e81f171bcc55a6ff8345e692c0f86e5b48e01b996cadc001622fb5e363b421a056e81f171bcc55a6ff8345e692c0f86e5b48e01b996cadc001622fb5e363b421b9010000000000000000000000000000000000000000000000000000000000000000000000000000000000000000000000000000000000000000000000000000000000000000000000000000000000000000000000000000000000000000000000000000000000000000000000000000000000000000000000000000000000000000000000000000000000000000000000000000000000000000000000000000000000000000000000000000000000000000000000000000000000000000000000000000000000000000000000000000000000000000000000000000000000000000000000000000000000000000000000000000000000000000000000000000000000830200008085e8d4a51000808203b642a056e81f171bcc55a6ff8345e692c0f86e5b48e01b996cadc001622fb5e363b421880102030405060708c0c0",
        "lastblockhash" : "0xdfbbb3160d86371497287f0845f19d772a5ec8287237376de1aa82b7c5dd5e65",
        "network" : "Byzantium",
        "postState" : {
            "0x2adc25665018aa1fe0e6bc666dac8fc2697ff9ba" : {
                "balance" : "0x29a2241af62cf42e",
                "code" : "",
                "nonce" : "0x00",
                "storage" : {
                }
            },
            "0x6295ee1b4f6dd65047762f924ecd367c17eabf8f" : {
                "balance" : "0x64",
                "code" : "0x60e060020a600035048063f8a8fd6d14601457005b601a6020565b60006000f35b56",
                "nonce" : "0x01",
                "storage" : {
                }
            },
            "0xa94f5374fce5edbc8e2a8697c15331677e6ebf0b" : {
                "balance" : "0x920e",
                "code" : "",
                "nonce" : "0x01",
                "storage" : {
                }
            }
        },
        "pre" : {
            "0xa94f5374fce5edbc8e2a8697c15331677e6ebf0b" : {
                "balance" : "0x0186a0",
                "code" : "",
                "nonce" : "0x00",
                "storage" : {
                }
            }
        }
    },
    "CreateTransactionSuccess_d0g0v0_EIP150" : {
        "_info" : {
            "comment" : "",
            "filledwith" : "cpp-1.3.0+commit.6e0ce939.Linux.g++",
            "lllcversion" : "Version: 0.4.18-develop.2017.9.25+commit.a72237f2.Linux.g++",
            "source" : "src/BlockchainTestsFiller/GeneralStateTests/stTransactionTest/CreateTransactionSuccess_d0g0v0Filler.json",
            "sourceHash" : "dbb738d2bcff74ae483ad20590f9d52fd4dc002487f5ee9da408e9735b948356"
        },
        "blocks" : [
            {
                "blockHeader" : {
                    "bloom" : "0x00000000000000000000000000000000000000000000000000000000000000000000000000000000000000000000000000000000000000000000000000000000000000000000000000000000000000000000000000000000000000000000000000000000000000000000000000000000000000000000000000000000000000000000000000000000000000000000000000000000000000000000000000000000000000000000000000000000000000000000000000000000000000000000000000000000000000000000000000000000000000000000000000000000000000000000000000000000000000000000000000000000000000000000000000000000",
                    "coinbase" : "0x2adc25665018aa1fe0e6bc666dac8fc2697ff9ba",
                    "difficulty" : "0x020000",
                    "extraData" : "",
                    "gasLimit" : "0xe8d4a51000",
                    "gasUsed" : "0xf42e",
                    "hash" : "0x9f269862d9f228fcb8df8b5d526de7b1a044105541b00972205416e97d0a6fc9",
                    "mixHash" : "0xe86ced195d4e0b4fe4dcf5e411be1c1fdd0f6e4434cf76a6d297dd8e41a3bc63",
                    "nonce" : "0xf40ad7fb50ff7df3",
                    "number" : "0x01",
                    "parentHash" : "0xce072901809059ecf3aac3d23169d290b34c557bdab6e6a97217320c9b9c962b",
                    "receiptTrie" : "0xe2fccb72e2ad34d27363bf4bef31d2853bfa6af7ede39586787fb556aa89de01",
                    "stateRoot" : "0x3e02953073ae7a31f5cd9fa1f8e4f17476f9eb3666dbb36b0b7314a0a4dbf370",
                    "timestamp" : "0x03e8",
                    "transactionsTrie" : "0xbae8e9273546528dffc1096e056e73ffbdf000a5673d777d3d3dc68adca44ee9",
                    "uncleHash" : "0x1dcc4de8dec75d7aab85b567b6ccd41ad312451b948a7413f0a142fd40d49347"
                },
                "rlp" : "0xf9027bf901f9a0ce072901809059ecf3aac3d23169d290b34c557bdab6e6a97217320c9b9c962ba01dcc4de8dec75d7aab85b567b6ccd41ad312451b948a7413f0a142fd40d49347942adc25665018aa1fe0e6bc666dac8fc2697ff9baa03e02953073ae7a31f5cd9fa1f8e4f17476f9eb3666dbb36b0b7314a0a4dbf370a0bae8e9273546528dffc1096e056e73ffbdf000a5673d777d3d3dc68adca44ee9a0e2fccb72e2ad34d27363bf4bef31d2853bfa6af7ede39586787fb556aa89de01b9010000000000000000000000000000000000000000000000000000000000000000000000000000000000000000000000000000000000000000000000000000000000000000000000000000000000000000000000000000000000000000000000000000000000000000000000000000000000000000000000000000000000000000000000000000000000000000000000000000000000000000000000000000000000000000000000000000000000000000000000000000000000000000000000000000000000000000000000000000000000000000000000000000000000000000000000000000000000000000000000000000000000000000000000000000000000830200000185e8d4a5100082f42e8203e880a0e86ced195d4e0b4fe4dcf5e411be1c1fdd0f6e4434cf76a6d297dd8e41a3bc6388f40ad7fb50ff7df3f87cf87a8001830111708064ae602280600c6000396000f30060e060020a600035048063f8a8fd6d14601457005b601a6020565b60006000f35b561ba01dce1dede104bc6f68b8af4c343eb75494039c7f28b0769425732ef00a4027cca014091d84ea5ebbd4503fad626cca170400acdf4161f7a5aca06e365066230693c0",
                "transactions" : [
                    {
                        "data" : "0x602280600c6000396000f30060e060020a600035048063f8a8fd6d14601457005b601a6020565b60006000f35b56",
                        "gasLimit" : "0x011170",
                        "gasPrice" : "0x01",
                        "nonce" : "0x00",
                        "r" : "0x1dce1dede104bc6f68b8af4c343eb75494039c7f28b0769425732ef00a4027cc",
                        "s" : "0x14091d84ea5ebbd4503fad626cca170400acdf4161f7a5aca06e365066230693",
                        "to" : "",
                        "v" : "0x1b",
                        "value" : "0x64"
                    }
                ],
                "uncleHeaders" : [
                ]
            }
        ],
        "genesisBlockHeader" : {
            "bloom" : "0x00000000000000000000000000000000000000000000000000000000000000000000000000000000000000000000000000000000000000000000000000000000000000000000000000000000000000000000000000000000000000000000000000000000000000000000000000000000000000000000000000000000000000000000000000000000000000000000000000000000000000000000000000000000000000000000000000000000000000000000000000000000000000000000000000000000000000000000000000000000000000000000000000000000000000000000000000000000000000000000000000000000000000000000000000000000",
            "coinbase" : "0x2adc25665018aa1fe0e6bc666dac8fc2697ff9ba",
            "difficulty" : "0x020000",
            "extraData" : "0x42",
            "gasLimit" : "0xe8d4a51000",
            "gasUsed" : "0x00",
            "hash" : "0xce072901809059ecf3aac3d23169d290b34c557bdab6e6a97217320c9b9c962b",
            "mixHash" : "0x56e81f171bcc55a6ff8345e692c0f86e5b48e01b996cadc001622fb5e363b421",
            "nonce" : "0x0102030405060708",
            "number" : "0x00",
            "parentHash" : "0x0000000000000000000000000000000000000000000000000000000000000000",
            "receiptTrie" : "0x56e81f171bcc55a6ff8345e692c0f86e5b48e01b996cadc001622fb5e363b421",
            "stateRoot" : "0xa3e1c133a5a51b03399ed9ad0380f3182e9e18322f232b816dd4b9094f871e1b",
            "timestamp" : "0x03b6",
            "transactionsTrie" : "0x56e81f171bcc55a6ff8345e692c0f86e5b48e01b996cadc001622fb5e363b421",
            "uncleHash" : "0x1dcc4de8dec75d7aab85b567b6ccd41ad312451b948a7413f0a142fd40d49347"
        },
        "genesisRLP" : "0xf901fcf901f7a00000000000000000000000000000000000000000000000000000000000000000a01dcc4de8dec75d7aab85b567b6ccd41ad312451b948a7413f0a142fd40d49347942adc25665018aa1fe0e6bc666dac8fc2697ff9baa0a3e1c133a5a51b03399ed9ad0380f3182e9e18322f232b816dd4b9094f871e1ba056e81f171bcc55a6ff8345e692c0f86e5b48e01b996cadc001622fb5e363b421a056e81f171bcc55a6ff8345e692c0f86e5b48e01b996cadc001622fb5e363b421b9010000000000000000000000000000000000000000000000000000000000000000000000000000000000000000000000000000000000000000000000000000000000000000000000000000000000000000000000000000000000000000000000000000000000000000000000000000000000000000000000000000000000000000000000000000000000000000000000000000000000000000000000000000000000000000000000000000000000000000000000000000000000000000000000000000000000000000000000000000000000000000000000000000000000000000000000000000000000000000000000000000000000000000000000000000000000830200008085e8d4a51000808203b642a056e81f171bcc55a6ff8345e692c0f86e5b48e01b996cadc001622fb5e363b421880102030405060708c0c0",
        "lastblockhash" : "0x9f269862d9f228fcb8df8b5d526de7b1a044105541b00972205416e97d0a6fc9",
        "network" : "EIP150",
        "postState" : {
            "0x2adc25665018aa1fe0e6bc666dac8fc2697ff9ba" : {
                "balance" : "0x4563918244f4f42e",
                "code" : "",
                "nonce" : "0x00",
                "storage" : {
                }
            },
            "0x6295ee1b4f6dd65047762f924ecd367c17eabf8f" : {
                "balance" : "0x64",
                "code" : "0x60e060020a600035048063f8a8fd6d14601457005b601a6020565b60006000f35b56",
                "nonce" : "0x00",
                "storage" : {
                }
            },
            "0xa94f5374fce5edbc8e2a8697c15331677e6ebf0b" : {
                "balance" : "0x920e",
                "code" : "",
                "nonce" : "0x01",
                "storage" : {
                }
            }
        },
        "pre" : {
            "0xa94f5374fce5edbc8e2a8697c15331677e6ebf0b" : {
                "balance" : "0x0186a0",
                "code" : "",
                "nonce" : "0x00",
                "storage" : {
                }
            }
        }
    },
    "CreateTransactionSuccess_d0g0v0_EIP158" : {
        "_info" : {
            "comment" : "",
            "filledwith" : "cpp-1.3.0+commit.6e0ce939.Linux.g++",
            "lllcversion" : "Version: 0.4.18-develop.2017.9.25+commit.a72237f2.Linux.g++",
            "source" : "src/BlockchainTestsFiller/GeneralStateTests/stTransactionTest/CreateTransactionSuccess_d0g0v0Filler.json",
            "sourceHash" : "dbb738d2bcff74ae483ad20590f9d52fd4dc002487f5ee9da408e9735b948356"
        },
        "blocks" : [
            {
                "blockHeader" : {
                    "bloom" : "0x00000000000000000000000000000000000000000000000000000000000000000000000000000000000000000000000000000000000000000000000000000000000000000000000000000000000000000000000000000000000000000000000000000000000000000000000000000000000000000000000000000000000000000000000000000000000000000000000000000000000000000000000000000000000000000000000000000000000000000000000000000000000000000000000000000000000000000000000000000000000000000000000000000000000000000000000000000000000000000000000000000000000000000000000000000000",
                    "coinbase" : "0x2adc25665018aa1fe0e6bc666dac8fc2697ff9ba",
                    "difficulty" : "0x020000",
                    "extraData" : "",
                    "gasLimit" : "0xe8d4a51000",
                    "gasUsed" : "0xf42e",
                    "hash" : "0xdf7c96c83a1be35147c5dfeb698cfdb43f3da7e25e4ab201c6a61986f67830b0",
                    "mixHash" : "0xabb0bf83006bc14edb7990c67bddb4ab4721cd36c273d0b297d2ff7f54f32e35",
                    "nonce" : "0x8afee82c35c86fb9",
                    "number" : "0x01",
                    "parentHash" : "0xce072901809059ecf3aac3d23169d290b34c557bdab6e6a97217320c9b9c962b",
                    "receiptTrie" : "0xb2c29ce60646cfb67ed22acec5f2771c1d5afeac6a4d285e9d8f498bab1f6b02",
                    "stateRoot" : "0xe958d2e90d44bdb5c088530ddb64966c25b8c575bccbcaf709bf3891f5e4c872",
                    "timestamp" : "0x03e8",
                    "transactionsTrie" : "0xbae8e9273546528dffc1096e056e73ffbdf000a5673d777d3d3dc68adca44ee9",
                    "uncleHash" : "0x1dcc4de8dec75d7aab85b567b6ccd41ad312451b948a7413f0a142fd40d49347"
                },
                "rlp" : "0xf9027bf901f9a0ce072901809059ecf3aac3d23169d290b34c557bdab6e6a97217320c9b9c962ba01dcc4de8dec75d7aab85b567b6ccd41ad312451b948a7413f0a142fd40d49347942adc25665018aa1fe0e6bc666dac8fc2697ff9baa0e958d2e90d44bdb5c088530ddb64966c25b8c575bccbcaf709bf3891f5e4c872a0bae8e9273546528dffc1096e056e73ffbdf000a5673d777d3d3dc68adca44ee9a0b2c29ce60646cfb67ed22acec5f2771c1d5afeac6a4d285e9d8f498bab1f6b02b9010000000000000000000000000000000000000000000000000000000000000000000000000000000000000000000000000000000000000000000000000000000000000000000000000000000000000000000000000000000000000000000000000000000000000000000000000000000000000000000000000000000000000000000000000000000000000000000000000000000000000000000000000000000000000000000000000000000000000000000000000000000000000000000000000000000000000000000000000000000000000000000000000000000000000000000000000000000000000000000000000000000000000000000000000000000000830200000185e8d4a5100082f42e8203e880a0abb0bf83006bc14edb7990c67bddb4ab4721cd36c273d0b297d2ff7f54f32e35888afee82c35c86fb9f87cf87a8001830111708064ae602280600c6000396000f30060e060020a600035048063f8a8fd6d14601457005b601a6020565b60006000f35b561ba01dce1dede104bc6f68b8af4c343eb75494039c7f28b0769425732ef00a4027cca014091d84ea5ebbd4503fad626cca170400acdf4161f7a5aca06e365066230693c0",
                "transactions" : [
                    {
                        "data" : "0x602280600c6000396000f30060e060020a600035048063f8a8fd6d14601457005b601a6020565b60006000f35b56",
                        "gasLimit" : "0x011170",
                        "gasPrice" : "0x01",
                        "nonce" : "0x00",
                        "r" : "0x1dce1dede104bc6f68b8af4c343eb75494039c7f28b0769425732ef00a4027cc",
                        "s" : "0x14091d84ea5ebbd4503fad626cca170400acdf4161f7a5aca06e365066230693",
                        "to" : "",
                        "v" : "0x1b",
                        "value" : "0x64"
                    }
                ],
                "uncleHeaders" : [
                ]
            }
        ],
        "genesisBlockHeader" : {
            "bloom" : "0x00000000000000000000000000000000000000000000000000000000000000000000000000000000000000000000000000000000000000000000000000000000000000000000000000000000000000000000000000000000000000000000000000000000000000000000000000000000000000000000000000000000000000000000000000000000000000000000000000000000000000000000000000000000000000000000000000000000000000000000000000000000000000000000000000000000000000000000000000000000000000000000000000000000000000000000000000000000000000000000000000000000000000000000000000000000",
            "coinbase" : "0x2adc25665018aa1fe0e6bc666dac8fc2697ff9ba",
            "difficulty" : "0x020000",
            "extraData" : "0x42",
            "gasLimit" : "0xe8d4a51000",
            "gasUsed" : "0x00",
            "hash" : "0xce072901809059ecf3aac3d23169d290b34c557bdab6e6a97217320c9b9c962b",
            "mixHash" : "0x56e81f171bcc55a6ff8345e692c0f86e5b48e01b996cadc001622fb5e363b421",
            "nonce" : "0x0102030405060708",
            "number" : "0x00",
            "parentHash" : "0x0000000000000000000000000000000000000000000000000000000000000000",
            "receiptTrie" : "0x56e81f171bcc55a6ff8345e692c0f86e5b48e01b996cadc001622fb5e363b421",
            "stateRoot" : "0xa3e1c133a5a51b03399ed9ad0380f3182e9e18322f232b816dd4b9094f871e1b",
            "timestamp" : "0x03b6",
            "transactionsTrie" : "0x56e81f171bcc55a6ff8345e692c0f86e5b48e01b996cadc001622fb5e363b421",
            "uncleHash" : "0x1dcc4de8dec75d7aab85b567b6ccd41ad312451b948a7413f0a142fd40d49347"
        },
        "genesisRLP" : "0xf901fcf901f7a00000000000000000000000000000000000000000000000000000000000000000a01dcc4de8dec75d7aab85b567b6ccd41ad312451b948a7413f0a142fd40d49347942adc25665018aa1fe0e6bc666dac8fc2697ff9baa0a3e1c133a5a51b03399ed9ad0380f3182e9e18322f232b816dd4b9094f871e1ba056e81f171bcc55a6ff8345e692c0f86e5b48e01b996cadc001622fb5e363b421a056e81f171bcc55a6ff8345e692c0f86e5b48e01b996cadc001622fb5e363b421b9010000000000000000000000000000000000000000000000000000000000000000000000000000000000000000000000000000000000000000000000000000000000000000000000000000000000000000000000000000000000000000000000000000000000000000000000000000000000000000000000000000000000000000000000000000000000000000000000000000000000000000000000000000000000000000000000000000000000000000000000000000000000000000000000000000000000000000000000000000000000000000000000000000000000000000000000000000000000000000000000000000000000000000000000000000000000830200008085e8d4a51000808203b642a056e81f171bcc55a6ff8345e692c0f86e5b48e01b996cadc001622fb5e363b421880102030405060708c0c0",
        "lastblockhash" : "0xdf7c96c83a1be35147c5dfeb698cfdb43f3da7e25e4ab201c6a61986f67830b0",
        "network" : "EIP158",
        "postState" : {
            "0x2adc25665018aa1fe0e6bc666dac8fc2697ff9ba" : {
                "balance" : "0x4563918244f4f42e",
                "code" : "",
                "nonce" : "0x00",
                "storage" : {
                }
            },
            "0x6295ee1b4f6dd65047762f924ecd367c17eabf8f" : {
                "balance" : "0x64",
                "code" : "0x60e060020a600035048063f8a8fd6d14601457005b601a6020565b60006000f35b56",
                "nonce" : "0x01",
                "storage" : {
                }
            },
            "0xa94f5374fce5edbc8e2a8697c15331677e6ebf0b" : {
                "balance" : "0x920e",
                "code" : "",
                "nonce" : "0x01",
                "storage" : {
                }
            }
        },
        "pre" : {
            "0xa94f5374fce5edbc8e2a8697c15331677e6ebf0b" : {
                "balance" : "0x0186a0",
                "code" : "",
                "nonce" : "0x00",
                "storage" : {
                }
            }
        }
    },
    "CreateTransactionSuccess_d0g0v0_Frontier" : {
        "_info" : {
            "comment" : "",
            "filledwith" : "cpp-1.3.0+commit.6e0ce939.Linux.g++",
            "lllcversion" : "Version: 0.4.18-develop.2017.9.25+commit.a72237f2.Linux.g++",
            "source" : "src/BlockchainTestsFiller/GeneralStateTests/stTransactionTest/CreateTransactionSuccess_d0g0v0Filler.json",
            "sourceHash" : "dbb738d2bcff74ae483ad20590f9d52fd4dc002487f5ee9da408e9735b948356"
        },
        "blocks" : [
            {
                "blockHeader" : {
                    "bloom" : "0x00000000000000000000000000000000000000000000000000000000000000000000000000000000000000000000000000000000000000000000000000000000000000000000000000000000000000000000000000000000000000000000000000000000000000000000000000000000000000000000000000000000000000000000000000000000000000000000000000000000000000000000000000000000000000000000000000000000000000000000000000000000000000000000000000000000000000000000000000000000000000000000000000000000000000000000000000000000000000000000000000000000000000000000000000000000",
                    "coinbase" : "0x2adc25665018aa1fe0e6bc666dac8fc2697ff9ba",
                    "difficulty" : "0x020000",
                    "extraData" : "",
                    "gasLimit" : "0xe8d4a51000",
                    "gasUsed" : "0x772e",
                    "hash" : "0xdda7233f8b6ba60ee45b9a51d9c1a8897fbd6c1a5137fdedb1cbd546819d45f7",
                    "mixHash" : "0x16926d91e9b6438dc8a76d4540c1accf49e6ab6edc0fa1c278549493cee50ea7",
                    "nonce" : "0x3e225933bd77832e",
                    "number" : "0x01",
                    "parentHash" : "0xce072901809059ecf3aac3d23169d290b34c557bdab6e6a97217320c9b9c962b",
                    "receiptTrie" : "0xc1e055238ee4b5933166aa883f1600aec36a0b3d75ee79e4438fa0213972cdea",
                    "stateRoot" : "0x50874b0bc9f13659e48a44343edb6b8958929ba626f5a221538479a65ea9f852",
                    "timestamp" : "0x03e8",
                    "transactionsTrie" : "0xbae8e9273546528dffc1096e056e73ffbdf000a5673d777d3d3dc68adca44ee9",
                    "uncleHash" : "0x1dcc4de8dec75d7aab85b567b6ccd41ad312451b948a7413f0a142fd40d49347"
                },
                "rlp" : "0xf9027bf901f9a0ce072901809059ecf3aac3d23169d290b34c557bdab6e6a97217320c9b9c962ba01dcc4de8dec75d7aab85b567b6ccd41ad312451b948a7413f0a142fd40d49347942adc25665018aa1fe0e6bc666dac8fc2697ff9baa050874b0bc9f13659e48a44343edb6b8958929ba626f5a221538479a65ea9f852a0bae8e9273546528dffc1096e056e73ffbdf000a5673d777d3d3dc68adca44ee9a0c1e055238ee4b5933166aa883f1600aec36a0b3d75ee79e4438fa0213972cdeab9010000000000000000000000000000000000000000000000000000000000000000000000000000000000000000000000000000000000000000000000000000000000000000000000000000000000000000000000000000000000000000000000000000000000000000000000000000000000000000000000000000000000000000000000000000000000000000000000000000000000000000000000000000000000000000000000000000000000000000000000000000000000000000000000000000000000000000000000000000000000000000000000000000000000000000000000000000000000000000000000000000000000000000000000000000000000830200000185e8d4a5100082772e8203e880a016926d91e9b6438dc8a76d4540c1accf49e6ab6edc0fa1c278549493cee50ea7883e225933bd77832ef87cf87a8001830111708064ae602280600c6000396000f30060e060020a600035048063f8a8fd6d14601457005b601a6020565b60006000f35b561ba01dce1dede104bc6f68b8af4c343eb75494039c7f28b0769425732ef00a4027cca014091d84ea5ebbd4503fad626cca170400acdf4161f7a5aca06e365066230693c0",
                "transactions" : [
                    {
                        "data" : "0x602280600c6000396000f30060e060020a600035048063f8a8fd6d14601457005b601a6020565b60006000f35b56",
                        "gasLimit" : "0x011170",
                        "gasPrice" : "0x01",
                        "nonce" : "0x00",
                        "r" : "0x1dce1dede104bc6f68b8af4c343eb75494039c7f28b0769425732ef00a4027cc",
                        "s" : "0x14091d84ea5ebbd4503fad626cca170400acdf4161f7a5aca06e365066230693",
                        "to" : "",
                        "v" : "0x1b",
                        "value" : "0x64"
                    }
                ],
                "uncleHeaders" : [
                ]
            }
        ],
        "genesisBlockHeader" : {
            "bloom" : "0x00000000000000000000000000000000000000000000000000000000000000000000000000000000000000000000000000000000000000000000000000000000000000000000000000000000000000000000000000000000000000000000000000000000000000000000000000000000000000000000000000000000000000000000000000000000000000000000000000000000000000000000000000000000000000000000000000000000000000000000000000000000000000000000000000000000000000000000000000000000000000000000000000000000000000000000000000000000000000000000000000000000000000000000000000000000",
            "coinbase" : "0x2adc25665018aa1fe0e6bc666dac8fc2697ff9ba",
            "difficulty" : "0x020000",
            "extraData" : "0x42",
            "gasLimit" : "0xe8d4a51000",
            "gasUsed" : "0x00",
            "hash" : "0xce072901809059ecf3aac3d23169d290b34c557bdab6e6a97217320c9b9c962b",
            "mixHash" : "0x56e81f171bcc55a6ff8345e692c0f86e5b48e01b996cadc001622fb5e363b421",
            "nonce" : "0x0102030405060708",
            "number" : "0x00",
            "parentHash" : "0x0000000000000000000000000000000000000000000000000000000000000000",
            "receiptTrie" : "0x56e81f171bcc55a6ff8345e692c0f86e5b48e01b996cadc001622fb5e363b421",
            "stateRoot" : "0xa3e1c133a5a51b03399ed9ad0380f3182e9e18322f232b816dd4b9094f871e1b",
            "timestamp" : "0x03b6",
            "transactionsTrie" : "0x56e81f171bcc55a6ff8345e692c0f86e5b48e01b996cadc001622fb5e363b421",
            "uncleHash" : "0x1dcc4de8dec75d7aab85b567b6ccd41ad312451b948a7413f0a142fd40d49347"
        },
        "genesisRLP" : "0xf901fcf901f7a00000000000000000000000000000000000000000000000000000000000000000a01dcc4de8dec75d7aab85b567b6ccd41ad312451b948a7413f0a142fd40d49347942adc25665018aa1fe0e6bc666dac8fc2697ff9baa0a3e1c133a5a51b03399ed9ad0380f3182e9e18322f232b816dd4b9094f871e1ba056e81f171bcc55a6ff8345e692c0f86e5b48e01b996cadc001622fb5e363b421a056e81f171bcc55a6ff8345e692c0f86e5b48e01b996cadc001622fb5e363b421b9010000000000000000000000000000000000000000000000000000000000000000000000000000000000000000000000000000000000000000000000000000000000000000000000000000000000000000000000000000000000000000000000000000000000000000000000000000000000000000000000000000000000000000000000000000000000000000000000000000000000000000000000000000000000000000000000000000000000000000000000000000000000000000000000000000000000000000000000000000000000000000000000000000000000000000000000000000000000000000000000000000000000000000000000000000000000830200008085e8d4a51000808203b642a056e81f171bcc55a6ff8345e692c0f86e5b48e01b996cadc001622fb5e363b421880102030405060708c0c0",
        "lastblockhash" : "0xdda7233f8b6ba60ee45b9a51d9c1a8897fbd6c1a5137fdedb1cbd546819d45f7",
        "network" : "Frontier",
        "postState" : {
            "0x2adc25665018aa1fe0e6bc666dac8fc2697ff9ba" : {
                "balance" : "0x4563918244f4772e",
                "code" : "",
                "nonce" : "0x00",
                "storage" : {
                }
            },
            "0x6295ee1b4f6dd65047762f924ecd367c17eabf8f" : {
                "balance" : "0x64",
                "code" : "0x60e060020a600035048063f8a8fd6d14601457005b601a6020565b60006000f35b56",
                "nonce" : "0x00",
                "storage" : {
                }
            },
            "0xa94f5374fce5edbc8e2a8697c15331677e6ebf0b" : {
                "balance" : "0x010f0e",
                "code" : "",
                "nonce" : "0x01",
                "storage" : {
                }
            }
        },
        "pre" : {
            "0xa94f5374fce5edbc8e2a8697c15331677e6ebf0b" : {
                "balance" : "0x0186a0",
                "code" : "",
                "nonce" : "0x00",
                "storage" : {
                }
            }
        }
    },
    "CreateTransactionSuccess_d0g0v0_Homestead" : {
        "_info" : {
            "comment" : "",
            "filledwith" : "cpp-1.3.0+commit.6e0ce939.Linux.g++",
            "lllcversion" : "Version: 0.4.18-develop.2017.9.25+commit.a72237f2.Linux.g++",
            "source" : "src/BlockchainTestsFiller/GeneralStateTests/stTransactionTest/CreateTransactionSuccess_d0g0v0Filler.json",
            "sourceHash" : "dbb738d2bcff74ae483ad20590f9d52fd4dc002487f5ee9da408e9735b948356"
        },
        "blocks" : [
            {
                "blockHeader" : {
                    "bloom" : "0x00000000000000000000000000000000000000000000000000000000000000000000000000000000000000000000000000000000000000000000000000000000000000000000000000000000000000000000000000000000000000000000000000000000000000000000000000000000000000000000000000000000000000000000000000000000000000000000000000000000000000000000000000000000000000000000000000000000000000000000000000000000000000000000000000000000000000000000000000000000000000000000000000000000000000000000000000000000000000000000000000000000000000000000000000000000",
                    "coinbase" : "0x2adc25665018aa1fe0e6bc666dac8fc2697ff9ba",
                    "difficulty" : "0x020000",
                    "extraData" : "",
                    "gasLimit" : "0xe8d4a51000",
                    "gasUsed" : "0xf42e",
                    "hash" : "0x4775d1a00517267a595ef984f3be609b5485a742b43252a307cf63b3841429dd",
                    "mixHash" : "0x8518a211e73180fe9fe42a60971e0205b19b567028f028b2d1bef4c005090009",
                    "nonce" : "0xca3b2a8162967607",
                    "number" : "0x01",
                    "parentHash" : "0xce072901809059ecf3aac3d23169d290b34c557bdab6e6a97217320c9b9c962b",
                    "receiptTrie" : "0xe2fccb72e2ad34d27363bf4bef31d2853bfa6af7ede39586787fb556aa89de01",
                    "stateRoot" : "0x3e02953073ae7a31f5cd9fa1f8e4f17476f9eb3666dbb36b0b7314a0a4dbf370",
                    "timestamp" : "0x03e8",
                    "transactionsTrie" : "0xbae8e9273546528dffc1096e056e73ffbdf000a5673d777d3d3dc68adca44ee9",
                    "uncleHash" : "0x1dcc4de8dec75d7aab85b567b6ccd41ad312451b948a7413f0a142fd40d49347"
                },
                "rlp" : "0xf9027bf901f9a0ce072901809059ecf3aac3d23169d290b34c557bdab6e6a97217320c9b9c962ba01dcc4de8dec75d7aab85b567b6ccd41ad312451b948a7413f0a142fd40d49347942adc25665018aa1fe0e6bc666dac8fc2697ff9baa03e02953073ae7a31f5cd9fa1f8e4f17476f9eb3666dbb36b0b7314a0a4dbf370a0bae8e9273546528dffc1096e056e73ffbdf000a5673d777d3d3dc68adca44ee9a0e2fccb72e2ad34d27363bf4bef31d2853bfa6af7ede39586787fb556aa89de01b9010000000000000000000000000000000000000000000000000000000000000000000000000000000000000000000000000000000000000000000000000000000000000000000000000000000000000000000000000000000000000000000000000000000000000000000000000000000000000000000000000000000000000000000000000000000000000000000000000000000000000000000000000000000000000000000000000000000000000000000000000000000000000000000000000000000000000000000000000000000000000000000000000000000000000000000000000000000000000000000000000000000000000000000000000000000000830200000185e8d4a5100082f42e8203e880a08518a211e73180fe9fe42a60971e0205b19b567028f028b2d1bef4c00509000988ca3b2a8162967607f87cf87a8001830111708064ae602280600c6000396000f30060e060020a600035048063f8a8fd6d14601457005b601a6020565b60006000f35b561ba01dce1dede104bc6f68b8af4c343eb75494039c7f28b0769425732ef00a4027cca014091d84ea5ebbd4503fad626cca170400acdf4161f7a5aca06e365066230693c0",
                "transactions" : [
                    {
                        "data" : "0x602280600c6000396000f30060e060020a600035048063f8a8fd6d14601457005b601a6020565b60006000f35b56",
                        "gasLimit" : "0x011170",
                        "gasPrice" : "0x01",
                        "nonce" : "0x00",
                        "r" : "0x1dce1dede104bc6f68b8af4c343eb75494039c7f28b0769425732ef00a4027cc",
                        "s" : "0x14091d84ea5ebbd4503fad626cca170400acdf4161f7a5aca06e365066230693",
                        "to" : "",
                        "v" : "0x1b",
                        "value" : "0x64"
                    }
                ],
                "uncleHeaders" : [
                ]
            }
        ],
        "genesisBlockHeader" : {
            "bloom" : "0x00000000000000000000000000000000000000000000000000000000000000000000000000000000000000000000000000000000000000000000000000000000000000000000000000000000000000000000000000000000000000000000000000000000000000000000000000000000000000000000000000000000000000000000000000000000000000000000000000000000000000000000000000000000000000000000000000000000000000000000000000000000000000000000000000000000000000000000000000000000000000000000000000000000000000000000000000000000000000000000000000000000000000000000000000000000",
            "coinbase" : "0x2adc25665018aa1fe0e6bc666dac8fc2697ff9ba",
            "difficulty" : "0x020000",
            "extraData" : "0x42",
            "gasLimit" : "0xe8d4a51000",
            "gasUsed" : "0x00",
            "hash" : "0xce072901809059ecf3aac3d23169d290b34c557bdab6e6a97217320c9b9c962b",
            "mixHash" : "0x56e81f171bcc55a6ff8345e692c0f86e5b48e01b996cadc001622fb5e363b421",
            "nonce" : "0x0102030405060708",
            "number" : "0x00",
            "parentHash" : "0x0000000000000000000000000000000000000000000000000000000000000000",
            "receiptTrie" : "0x56e81f171bcc55a6ff8345e692c0f86e5b48e01b996cadc001622fb5e363b421",
            "stateRoot" : "0xa3e1c133a5a51b03399ed9ad0380f3182e9e18322f232b816dd4b9094f871e1b",
            "timestamp" : "0x03b6",
            "transactionsTrie" : "0x56e81f171bcc55a6ff8345e692c0f86e5b48e01b996cadc001622fb5e363b421",
            "uncleHash" : "0x1dcc4de8dec75d7aab85b567b6ccd41ad312451b948a7413f0a142fd40d49347"
        },
        "genesisRLP" : "0xf901fcf901f7a00000000000000000000000000000000000000000000000000000000000000000a01dcc4de8dec75d7aab85b567b6ccd41ad312451b948a7413f0a142fd40d49347942adc25665018aa1fe0e6bc666dac8fc2697ff9baa0a3e1c133a5a51b03399ed9ad0380f3182e9e18322f232b816dd4b9094f871e1ba056e81f171bcc55a6ff8345e692c0f86e5b48e01b996cadc001622fb5e363b421a056e81f171bcc55a6ff8345e692c0f86e5b48e01b996cadc001622fb5e363b421b9010000000000000000000000000000000000000000000000000000000000000000000000000000000000000000000000000000000000000000000000000000000000000000000000000000000000000000000000000000000000000000000000000000000000000000000000000000000000000000000000000000000000000000000000000000000000000000000000000000000000000000000000000000000000000000000000000000000000000000000000000000000000000000000000000000000000000000000000000000000000000000000000000000000000000000000000000000000000000000000000000000000000000000000000000000000000830200008085e8d4a51000808203b642a056e81f171bcc55a6ff8345e692c0f86e5b48e01b996cadc001622fb5e363b421880102030405060708c0c0",
        "lastblockhash" : "0x4775d1a00517267a595ef984f3be609b5485a742b43252a307cf63b3841429dd",
        "network" : "Homestead",
        "postState" : {
            "0x2adc25665018aa1fe0e6bc666dac8fc2697ff9ba" : {
                "balance" : "0x4563918244f4f42e",
                "code" : "",
                "nonce" : "0x00",
                "storage" : {
                }
            },
            "0x6295ee1b4f6dd65047762f924ecd367c17eabf8f" : {
                "balance" : "0x64",
                "code" : "0x60e060020a600035048063f8a8fd6d14601457005b601a6020565b60006000f35b56",
                "nonce" : "0x00",
                "storage" : {
                }
            },
            "0xa94f5374fce5edbc8e2a8697c15331677e6ebf0b" : {
                "balance" : "0x920e",
                "code" : "",
                "nonce" : "0x01",
                "storage" : {
                }
            }
        },
        "pre" : {
            "0xa94f5374fce5edbc8e2a8697c15331677e6ebf0b" : {
                "balance" : "0x0186a0",
                "code" : "",
                "nonce" : "0x00",
                "storage" : {
                }
            }
        }
    }
}