{
    "HighGasLimit_d0g0v0_Byzantium" : {
        "_info" : {
            "comment" : "",
            "filledwith" : "cpp-1.3.0+commit.6e0ce939.Linux.g++",
            "lllcversion" : "Version: 0.4.18-develop.2017.9.25+commit.a72237f2.Linux.g++",
            "source" : "src/BlockchainTestsFiller/GeneralStateTests/stTransactionTest/HighGasLimit_d0g0v0Filler.json",
            "sourceHash" : "a4431ec977ab7becb27c4c9f4db6e0949103c9488fccea9924c12b908b64840c"
        },
        "blocks" : [
            {
                "blockHeader" : {
                    "bloom" : "0x00000000000000000000000000000000000000000000000000000000000000000000000000000000000000000000000000000000000000000000000000000000000000000000000000000000000000000000000000000000000000000000000000000000000000000000000000000000000000000000000000000000000000000000000000000000000000000000000000000000000000000000000000000000000000000000000000000000000000000000000000000000000000000000000000000000000000000000000000000000000000000000000000000000000000000000000000000000000000000000000000000000000000000000000000000000",
                    "coinbase" : "0x2adc25665018aa1fe0e6bc666dac8fc2697ff9ba",
                    "difficulty" : "0x020000",
                    "extraData" : "",
                    "gasLimit" : "0x7fffffffffffffff",
                    "gasUsed" : "0x5428",
                    "hash" : "0xba6a5163d3467dffc79ca2d3d769f663b12d72340a7e204173f830bf1db5e577",
                    "mixHash" : "0xf029feb1878e728294551317b14d5384e7f00ef006fadfdb2ec6dcb0adc0c274",
                    "nonce" : "0x7d7396e782124d9d",
                    "number" : "0x01",
                    "parentHash" : "0xf5903f8fbb4316e7572f99463b026f47ed8a9707e67c6339e560016c1d9906c4",
                    "receiptTrie" : "0x45671daf07412c1ffe3483fd1fc0884ab0d4b99cc537b3e3155d1665cf5e83f0",
                    "stateRoot" : "0x92a0bb2d6a139da44f0523fa9680e16f049059a872a4cbe8aad19d1f68b82bd8",
                    "timestamp" : "0x03e8",
                    "transactionsTrie" : "0x7483d098844e335f70966b0d9c417c341328d347e5d5c1368fbc51587bc7c0c7",
                    "uncleHash" : "0x1dcc4de8dec75d7aab85b567b6ccd41ad312451b948a7413f0a142fd40d49347"
                },
                "rlp" : "0xf90273f901fca0f5903f8fbb4316e7572f99463b026f47ed8a9707e67c6339e560016c1d9906c4a01dcc4de8dec75d7aab85b567b6ccd41ad312451b948a7413f0a142fd40d49347942adc25665018aa1fe0e6bc666dac8fc2697ff9baa092a0bb2d6a139da44f0523fa9680e16f049059a872a4cbe8aad19d1f68b82bd8a07483d098844e335f70966b0d9c417c341328d347e5d5c1368fbc51587bc7c0c7a045671daf07412c1ffe3483fd1fc0884ab0d4b99cc537b3e3155d1665cf5e83f0b90100000000000000000000000000000000000000000000000000000000000000000000000000000000000000000000000000000000000000000000000000000000000000000000000000000000000000000000000000000000000000000000000000000000000000000000000000000000000000000000000000000000000000000000000000000000000000000000000000000000000000000000000000000000000000000000000000000000000000000000000000000000000000000000000000000000000000000000000000000000000000000000000000000000000000000000000000000000000000000000000000000000000000000000000000000000008302000001887fffffffffffffff8254288203e880a0f029feb1878e728294551317b14d5384e7f00ef006fadfdb2ec6dcb0adc0c274887d7396e782124d9df871f86f800788100000000000000094b94f5374fce5edbc8e2a8697c15331677e6ebf0b8203848832403495489834541ba010898022c73e87daa54dd1c540d64dab2d558bfca21ff4d7717890c565a6a8c7a040380f6c50f41656af6409c3bd87ce2e57de75f25f7dc00f746d31a9b60331f2c0",
                "transactions" : [
                    {
                        "data" : "0x3240349548983454",
                        "gasLimit" : "0x1000000000000000",
                        "gasPrice" : "0x07",
                        "nonce" : "0x00",
                        "r" : "0x10898022c73e87daa54dd1c540d64dab2d558bfca21ff4d7717890c565a6a8c7",
                        "s" : "0x40380f6c50f41656af6409c3bd87ce2e57de75f25f7dc00f746d31a9b60331f2",
                        "to" : "0xb94f5374fce5edbc8e2a8697c15331677e6ebf0b",
                        "v" : "0x1b",
                        "value" : "0x0384"
                    }
                ],
                "uncleHeaders" : [
                ]
            }
        ],
        "genesisBlockHeader" : {
            "bloom" : "0x00000000000000000000000000000000000000000000000000000000000000000000000000000000000000000000000000000000000000000000000000000000000000000000000000000000000000000000000000000000000000000000000000000000000000000000000000000000000000000000000000000000000000000000000000000000000000000000000000000000000000000000000000000000000000000000000000000000000000000000000000000000000000000000000000000000000000000000000000000000000000000000000000000000000000000000000000000000000000000000000000000000000000000000000000000000",
            "coinbase" : "0x2adc25665018aa1fe0e6bc666dac8fc2697ff9ba",
            "difficulty" : "0x020000",
            "extraData" : "0x42",
            "gasLimit" : "0x7fffffffffffffff",
            "gasUsed" : "0x00",
            "hash" : "0xf5903f8fbb4316e7572f99463b026f47ed8a9707e67c6339e560016c1d9906c4",
            "mixHash" : "0x56e81f171bcc55a6ff8345e692c0f86e5b48e01b996cadc001622fb5e363b421",
            "nonce" : "0x0102030405060708",
            "number" : "0x00",
            "parentHash" : "0x0000000000000000000000000000000000000000000000000000000000000000",
            "receiptTrie" : "0x56e81f171bcc55a6ff8345e692c0f86e5b48e01b996cadc001622fb5e363b421",
            "stateRoot" : "0x21e74bd5b4b29e241d402d6d7483d050bbdfcf2ae943522c2875c3f293e1ce70",
            "timestamp" : "0x03b6",
            "transactionsTrie" : "0x56e81f171bcc55a6ff8345e692c0f86e5b48e01b996cadc001622fb5e363b421",
            "uncleHash" : "0x1dcc4de8dec75d7aab85b567b6ccd41ad312451b948a7413f0a142fd40d49347"
        },
        "genesisRLP" : "0xf901fff901faa00000000000000000000000000000000000000000000000000000000000000000a01dcc4de8dec75d7aab85b567b6ccd41ad312451b948a7413f0a142fd40d49347942adc25665018aa1fe0e6bc666dac8fc2697ff9baa021e74bd5b4b29e241d402d6d7483d050bbdfcf2ae943522c2875c3f293e1ce70a056e81f171bcc55a6ff8345e692c0f86e5b48e01b996cadc001622fb5e363b421a056e81f171bcc55a6ff8345e692c0f86e5b48e01b996cadc001622fb5e363b421b90100000000000000000000000000000000000000000000000000000000000000000000000000000000000000000000000000000000000000000000000000000000000000000000000000000000000000000000000000000000000000000000000000000000000000000000000000000000000000000000000000000000000000000000000000000000000000000000000000000000000000000000000000000000000000000000000000000000000000000000000000000000000000000000000000000000000000000000000000000000000000000000000000000000000000000000000000000000000000000000000000000000000000000000000000000000008302000080887fffffffffffffff808203b642a056e81f171bcc55a6ff8345e692c0f86e5b48e01b996cadc001622fb5e363b421880102030405060708c0c0",
        "lastblockhash" : "0xba6a5163d3467dffc79ca2d3d769f663b12d72340a7e204173f830bf1db5e577",
        "network" : "Byzantium",
        "postState" : {
            "0x2adc25665018aa1fe0e6bc666dac8fc2697ff9ba" : {
                "balance" : "0x29a2241af62e4d18",
                "code" : "",
                "nonce" : "0x00",
                "storage" : {
                }
            },
            "0xa94f5374fce5edbc8e2a8697c15331677e6ebf0b" : {
                "balance" : "0xfffffffffffffffffffffffffffffffffffffffffffffffffffffffffffdaf63",
                "code" : "",
                "nonce" : "0x01",
                "storage" : {
                }
            },
            "0xb94f5374fce5edbc8e2a8697c15331677e6ebf0b" : {
                "balance" : "0x0384",
                "code" : "",
                "nonce" : "0x00",
                "storage" : {
                }
            }
        },
        "pre" : {
            "0xa94f5374fce5edbc8e2a8697c15331677e6ebf0b" : {
                "balance" : "0xffffffffffffffffffffffffffffffffffffffffffffffffffffffffffffffff",
                "code" : "",
                "nonce" : "0x00",
                "storage" : {
                }
            }
        }
    },
    "HighGasLimit_d0g0v0_EIP150" : {
        "_info" : {
            "comment" : "",
            "filledwith" : "cpp-1.3.0+commit.6e0ce939.Linux.g++",
            "lllcversion" : "Version: 0.4.18-develop.2017.9.25+commit.a72237f2.Linux.g++",
            "source" : "src/BlockchainTestsFiller/GeneralStateTests/stTransactionTest/HighGasLimit_d0g0v0Filler.json",
            "sourceHash" : "a4431ec977ab7becb27c4c9f4db6e0949103c9488fccea9924c12b908b64840c"
        },
        "blocks" : [
            {
                "blockHeader" : {
                    "bloom" : "0x00000000000000000000000000000000000000000000000000000000000000000000000000000000000000000000000000000000000000000000000000000000000000000000000000000000000000000000000000000000000000000000000000000000000000000000000000000000000000000000000000000000000000000000000000000000000000000000000000000000000000000000000000000000000000000000000000000000000000000000000000000000000000000000000000000000000000000000000000000000000000000000000000000000000000000000000000000000000000000000000000000000000000000000000000000000",
                    "coinbase" : "0x2adc25665018aa1fe0e6bc666dac8fc2697ff9ba",
                    "difficulty" : "0x020000",
                    "extraData" : "",
                    "gasLimit" : "0x7fffffffffffffff",
                    "gasUsed" : "0x5428",
                    "hash" : "0x36f58815a126cc0c3081a6430d5547ad2220d69b9f66cce633fe3460d3018d3f",
                    "mixHash" : "0xdaee4ace25569781b8ed9dba8f458f7f1c8020e1375543b3a1941f3e7a33e210",
                    "nonce" : "0x7388d8d435d99bb8",
                    "number" : "0x01",
                    "parentHash" : "0xf5903f8fbb4316e7572f99463b026f47ed8a9707e67c6339e560016c1d9906c4",
                    "receiptTrie" : "0x3c906e146ba68000f9bffb3ece82f22a6114465c6121d73179d43de0b3e8947f",
                    "stateRoot" : "0x3b1fafdebade0537f6b50f2fefb909c226b2acc3e43a73ebad6c3c53877b71b1",
                    "timestamp" : "0x03e8",
                    "transactionsTrie" : "0x7483d098844e335f70966b0d9c417c341328d347e5d5c1368fbc51587bc7c0c7",
                    "uncleHash" : "0x1dcc4de8dec75d7aab85b567b6ccd41ad312451b948a7413f0a142fd40d49347"
                },
                "rlp" : "0xf90273f901fca0f5903f8fbb4316e7572f99463b026f47ed8a9707e67c6339e560016c1d9906c4a01dcc4de8dec75d7aab85b567b6ccd41ad312451b948a7413f0a142fd40d49347942adc25665018aa1fe0e6bc666dac8fc2697ff9baa03b1fafdebade0537f6b50f2fefb909c226b2acc3e43a73ebad6c3c53877b71b1a07483d098844e335f70966b0d9c417c341328d347e5d5c1368fbc51587bc7c0c7a03c906e146ba68000f9bffb3ece82f22a6114465c6121d73179d43de0b3e8947fb90100000000000000000000000000000000000000000000000000000000000000000000000000000000000000000000000000000000000000000000000000000000000000000000000000000000000000000000000000000000000000000000000000000000000000000000000000000000000000000000000000000000000000000000000000000000000000000000000000000000000000000000000000000000000000000000000000000000000000000000000000000000000000000000000000000000000000000000000000000000000000000000000000000000000000000000000000000000000000000000000000000000000000000000000000000000008302000001887fffffffffffffff8254288203e880a0daee4ace25569781b8ed9dba8f458f7f1c8020e1375543b3a1941f3e7a33e210887388d8d435d99bb8f871f86f800788100000000000000094b94f5374fce5edbc8e2a8697c15331677e6ebf0b8203848832403495489834541ba010898022c73e87daa54dd1c540d64dab2d558bfca21ff4d7717890c565a6a8c7a040380f6c50f41656af6409c3bd87ce2e57de75f25f7dc00f746d31a9b60331f2c0",
                "transactions" : [
                    {
                        "data" : "0x3240349548983454",
                        "gasLimit" : "0x1000000000000000",
                        "gasPrice" : "0x07",
                        "nonce" : "0x00",
                        "r" : "0x10898022c73e87daa54dd1c540d64dab2d558bfca21ff4d7717890c565a6a8c7",
                        "s" : "0x40380f6c50f41656af6409c3bd87ce2e57de75f25f7dc00f746d31a9b60331f2",
                        "to" : "0xb94f5374fce5edbc8e2a8697c15331677e6ebf0b",
                        "v" : "0x1b",
                        "value" : "0x0384"
                    }
                ],
                "uncleHeaders" : [
                ]
            }
        ],
        "genesisBlockHeader" : {
            "bloom" : "0x00000000000000000000000000000000000000000000000000000000000000000000000000000000000000000000000000000000000000000000000000000000000000000000000000000000000000000000000000000000000000000000000000000000000000000000000000000000000000000000000000000000000000000000000000000000000000000000000000000000000000000000000000000000000000000000000000000000000000000000000000000000000000000000000000000000000000000000000000000000000000000000000000000000000000000000000000000000000000000000000000000000000000000000000000000000",
            "coinbase" : "0x2adc25665018aa1fe0e6bc666dac8fc2697ff9ba",
            "difficulty" : "0x020000",
            "extraData" : "0x42",
            "gasLimit" : "0x7fffffffffffffff",
            "gasUsed" : "0x00",
            "hash" : "0xf5903f8fbb4316e7572f99463b026f47ed8a9707e67c6339e560016c1d9906c4",
            "mixHash" : "0x56e81f171bcc55a6ff8345e692c0f86e5b48e01b996cadc001622fb5e363b421",
            "nonce" : "0x0102030405060708",
            "number" : "0x00",
            "parentHash" : "0x0000000000000000000000000000000000000000000000000000000000000000",
            "receiptTrie" : "0x56e81f171bcc55a6ff8345e692c0f86e5b48e01b996cadc001622fb5e363b421",
            "stateRoot" : "0x21e74bd5b4b29e241d402d6d7483d050bbdfcf2ae943522c2875c3f293e1ce70",
            "timestamp" : "0x03b6",
            "transactionsTrie" : "0x56e81f171bcc55a6ff8345e692c0f86e5b48e01b996cadc001622fb5e363b421",
            "uncleHash" : "0x1dcc4de8dec75d7aab85b567b6ccd41ad312451b948a7413f0a142fd40d49347"
        },
        "genesisRLP" : "0xf901fff901faa00000000000000000000000000000000000000000000000000000000000000000a01dcc4de8dec75d7aab85b567b6ccd41ad312451b948a7413f0a142fd40d49347942adc25665018aa1fe0e6bc666dac8fc2697ff9baa021e74bd5b4b29e241d402d6d7483d050bbdfcf2ae943522c2875c3f293e1ce70a056e81f171bcc55a6ff8345e692c0f86e5b48e01b996cadc001622fb5e363b421a056e81f171bcc55a6ff8345e692c0f86e5b48e01b996cadc001622fb5e363b421b90100000000000000000000000000000000000000000000000000000000000000000000000000000000000000000000000000000000000000000000000000000000000000000000000000000000000000000000000000000000000000000000000000000000000000000000000000000000000000000000000000000000000000000000000000000000000000000000000000000000000000000000000000000000000000000000000000000000000000000000000000000000000000000000000000000000000000000000000000000000000000000000000000000000000000000000000000000000000000000000000000000000000000000000000000000000008302000080887fffffffffffffff808203b642a056e81f171bcc55a6ff8345e692c0f86e5b48e01b996cadc001622fb5e363b421880102030405060708c0c0",
        "lastblockhash" : "0x36f58815a126cc0c3081a6430d5547ad2220d69b9f66cce633fe3460d3018d3f",
        "network" : "EIP150",
        "postState" : {
            "0x2adc25665018aa1fe0e6bc666dac8fc2697ff9ba" : {
                "balance" : "0x4563918244f64d18",
                "code" : "",
                "nonce" : "0x00",
                "storage" : {
                }
            },
            "0xa94f5374fce5edbc8e2a8697c15331677e6ebf0b" : {
                "balance" : "0xfffffffffffffffffffffffffffffffffffffffffffffffffffffffffffdaf63",
                "code" : "",
                "nonce" : "0x01",
                "storage" : {
                }
            },
            "0xb94f5374fce5edbc8e2a8697c15331677e6ebf0b" : {
                "balance" : "0x0384",
                "code" : "",
                "nonce" : "0x00",
                "storage" : {
                }
            }
        },
        "pre" : {
            "0xa94f5374fce5edbc8e2a8697c15331677e6ebf0b" : {
                "balance" : "0xffffffffffffffffffffffffffffffffffffffffffffffffffffffffffffffff",
                "code" : "",
                "nonce" : "0x00",
                "storage" : {
                }
            }
        }
    },
    "HighGasLimit_d0g0v0_EIP158" : {
        "_info" : {
            "comment" : "",
            "filledwith" : "cpp-1.3.0+commit.6e0ce939.Linux.g++",
            "lllcversion" : "Version: 0.4.18-develop.2017.9.25+commit.a72237f2.Linux.g++",
            "source" : "src/BlockchainTestsFiller/GeneralStateTests/stTransactionTest/HighGasLimit_d0g0v0Filler.json",
            "sourceHash" : "a4431ec977ab7becb27c4c9f4db6e0949103c9488fccea9924c12b908b64840c"
        },
        "blocks" : [
            {
                "blockHeader" : {
                    "bloom" : "0x00000000000000000000000000000000000000000000000000000000000000000000000000000000000000000000000000000000000000000000000000000000000000000000000000000000000000000000000000000000000000000000000000000000000000000000000000000000000000000000000000000000000000000000000000000000000000000000000000000000000000000000000000000000000000000000000000000000000000000000000000000000000000000000000000000000000000000000000000000000000000000000000000000000000000000000000000000000000000000000000000000000000000000000000000000000",
                    "coinbase" : "0x2adc25665018aa1fe0e6bc666dac8fc2697ff9ba",
                    "difficulty" : "0x020000",
                    "extraData" : "",
                    "gasLimit" : "0x7fffffffffffffff",
                    "gasUsed" : "0x5428",
                    "hash" : "0x7ce4d35aca998faf76788c897418c0e812cf7c6ad78342008e707dc8209d1ef6",
                    "mixHash" : "0x5dfca3bf3bea7bb0a1705106608140eebfea570caaabab8a618c9a030a0d7af1",
                    "nonce" : "0xf81ed4e2d6a43fcc",
                    "number" : "0x01",
                    "parentHash" : "0xf5903f8fbb4316e7572f99463b026f47ed8a9707e67c6339e560016c1d9906c4",
                    "receiptTrie" : "0x3c906e146ba68000f9bffb3ece82f22a6114465c6121d73179d43de0b3e8947f",
                    "stateRoot" : "0x3b1fafdebade0537f6b50f2fefb909c226b2acc3e43a73ebad6c3c53877b71b1",
                    "timestamp" : "0x03e8",
                    "transactionsTrie" : "0x7483d098844e335f70966b0d9c417c341328d347e5d5c1368fbc51587bc7c0c7",
                    "uncleHash" : "0x1dcc4de8dec75d7aab85b567b6ccd41ad312451b948a7413f0a142fd40d49347"
                },
                "rlp" : "0xf90273f901fca0f5903f8fbb4316e7572f99463b026f47ed8a9707e67c6339e560016c1d9906c4a01dcc4de8dec75d7aab85b567b6ccd41ad312451b948a7413f0a142fd40d49347942adc25665018aa1fe0e6bc666dac8fc2697ff9baa03b1fafdebade0537f6b50f2fefb909c226b2acc3e43a73ebad6c3c53877b71b1a07483d098844e335f70966b0d9c417c341328d347e5d5c1368fbc51587bc7c0c7a03c906e146ba68000f9bffb3ece82f22a6114465c6121d73179d43de0b3e8947fb90100000000000000000000000000000000000000000000000000000000000000000000000000000000000000000000000000000000000000000000000000000000000000000000000000000000000000000000000000000000000000000000000000000000000000000000000000000000000000000000000000000000000000000000000000000000000000000000000000000000000000000000000000000000000000000000000000000000000000000000000000000000000000000000000000000000000000000000000000000000000000000000000000000000000000000000000000000000000000000000000000000000000000000000000000000000008302000001887fffffffffffffff8254288203e880a05dfca3bf3bea7bb0a1705106608140eebfea570caaabab8a618c9a030a0d7af188f81ed4e2d6a43fccf871f86f800788100000000000000094b94f5374fce5edbc8e2a8697c15331677e6ebf0b8203848832403495489834541ba010898022c73e87daa54dd1c540d64dab2d558bfca21ff4d7717890c565a6a8c7a040380f6c50f41656af6409c3bd87ce2e57de75f25f7dc00f746d31a9b60331f2c0",
                "transactions" : [
                    {
                        "data" : "0x3240349548983454",
                        "gasLimit" : "0x1000000000000000",
                        "gasPrice" : "0x07",
                        "nonce" : "0x00",
                        "r" : "0x10898022c73e87daa54dd1c540d64dab2d558bfca21ff4d7717890c565a6a8c7",
                        "s" : "0x40380f6c50f41656af6409c3bd87ce2e57de75f25f7dc00f746d31a9b60331f2",
                        "to" : "0xb94f5374fce5edbc8e2a8697c15331677e6ebf0b",
                        "v" : "0x1b",
                        "value" : "0x0384"
                    }
                ],
                "uncleHeaders" : [
                ]
            }
        ],
        "genesisBlockHeader" : {
            "bloom" : "0x00000000000000000000000000000000000000000000000000000000000000000000000000000000000000000000000000000000000000000000000000000000000000000000000000000000000000000000000000000000000000000000000000000000000000000000000000000000000000000000000000000000000000000000000000000000000000000000000000000000000000000000000000000000000000000000000000000000000000000000000000000000000000000000000000000000000000000000000000000000000000000000000000000000000000000000000000000000000000000000000000000000000000000000000000000000",
            "coinbase" : "0x2adc25665018aa1fe0e6bc666dac8fc2697ff9ba",
            "difficulty" : "0x020000",
            "extraData" : "0x42",
            "gasLimit" : "0x7fffffffffffffff",
            "gasUsed" : "0x00",
            "hash" : "0xf5903f8fbb4316e7572f99463b026f47ed8a9707e67c6339e560016c1d9906c4",
            "mixHash" : "0x56e81f171bcc55a6ff8345e692c0f86e5b48e01b996cadc001622fb5e363b421",
            "nonce" : "0x0102030405060708",
            "number" : "0x00",
            "parentHash" : "0x0000000000000000000000000000000000000000000000000000000000000000",
            "receiptTrie" : "0x56e81f171bcc55a6ff8345e692c0f86e5b48e01b996cadc001622fb5e363b421",
            "stateRoot" : "0x21e74bd5b4b29e241d402d6d7483d050bbdfcf2ae943522c2875c3f293e1ce70",
            "timestamp" : "0x03b6",
            "transactionsTrie" : "0x56e81f171bcc55a6ff8345e692c0f86e5b48e01b996cadc001622fb5e363b421",
            "uncleHash" : "0x1dcc4de8dec75d7aab85b567b6ccd41ad312451b948a7413f0a142fd40d49347"
        },
        "genesisRLP" : "0xf901fff901faa00000000000000000000000000000000000000000000000000000000000000000a01dcc4de8dec75d7aab85b567b6ccd41ad312451b948a7413f0a142fd40d49347942adc25665018aa1fe0e6bc666dac8fc2697ff9baa021e74bd5b4b29e241d402d6d7483d050bbdfcf2ae943522c2875c3f293e1ce70a056e81f171bcc55a6ff8345e692c0f86e5b48e01b996cadc001622fb5e363b421a056e81f171bcc55a6ff8345e692c0f86e5b48e01b996cadc001622fb5e363b421b90100000000000000000000000000000000000000000000000000000000000000000000000000000000000000000000000000000000000000000000000000000000000000000000000000000000000000000000000000000000000000000000000000000000000000000000000000000000000000000000000000000000000000000000000000000000000000000000000000000000000000000000000000000000000000000000000000000000000000000000000000000000000000000000000000000000000000000000000000000000000000000000000000000000000000000000000000000000000000000000000000000000000000000000000000000000008302000080887fffffffffffffff808203b642a056e81f171bcc55a6ff8345e692c0f86e5b48e01b996cadc001622fb5e363b421880102030405060708c0c0",
        "lastblockhash" : "0x7ce4d35aca998faf76788c897418c0e812cf7c6ad78342008e707dc8209d1ef6",
        "network" : "EIP158",
        "postState" : {
            "0x2adc25665018aa1fe0e6bc666dac8fc2697ff9ba" : {
                "balance" : "0x4563918244f64d18",
                "code" : "",
                "nonce" : "0x00",
                "storage" : {
                }
            },
            "0xa94f5374fce5edbc8e2a8697c15331677e6ebf0b" : {
                "balance" : "0xfffffffffffffffffffffffffffffffffffffffffffffffffffffffffffdaf63",
                "code" : "",
                "nonce" : "0x01",
                "storage" : {
                }
            },
            "0xb94f5374fce5edbc8e2a8697c15331677e6ebf0b" : {
                "balance" : "0x0384",
                "code" : "",
                "nonce" : "0x00",
                "storage" : {
                }
            }
        },
        "pre" : {
            "0xa94f5374fce5edbc8e2a8697c15331677e6ebf0b" : {
                "balance" : "0xffffffffffffffffffffffffffffffffffffffffffffffffffffffffffffffff",
                "code" : "",
                "nonce" : "0x00",
                "storage" : {
                }
            }
        }
    },
    "HighGasLimit_d0g0v0_Frontier" : {
        "_info" : {
            "comment" : "",
            "filledwith" : "cpp-1.3.0+commit.6e0ce939.Linux.g++",
            "lllcversion" : "Version: 0.4.18-develop.2017.9.25+commit.a72237f2.Linux.g++",
            "source" : "src/BlockchainTestsFiller/GeneralStateTests/stTransactionTest/HighGasLimit_d0g0v0Filler.json",
            "sourceHash" : "a4431ec977ab7becb27c4c9f4db6e0949103c9488fccea9924c12b908b64840c"
        },
        "blocks" : [
            {
                "blockHeader" : {
                    "bloom" : "0x00000000000000000000000000000000000000000000000000000000000000000000000000000000000000000000000000000000000000000000000000000000000000000000000000000000000000000000000000000000000000000000000000000000000000000000000000000000000000000000000000000000000000000000000000000000000000000000000000000000000000000000000000000000000000000000000000000000000000000000000000000000000000000000000000000000000000000000000000000000000000000000000000000000000000000000000000000000000000000000000000000000000000000000000000000000",
                    "coinbase" : "0x2adc25665018aa1fe0e6bc666dac8fc2697ff9ba",
                    "difficulty" : "0x020000",
                    "extraData" : "",
                    "gasLimit" : "0x7fffffffffffffff",
                    "gasUsed" : "0x5428",
                    "hash" : "0x1ad0269115a817094c50ea34877b1be9c4ef5e630da5a15ed8cea334682125cc",
                    "mixHash" : "0x248004578cd33dde77512f2801f2c492a81018eee2f81d4b7e9b8b517df28e2f",
                    "nonce" : "0x2f0190362326351e",
                    "number" : "0x01",
                    "parentHash" : "0xf5903f8fbb4316e7572f99463b026f47ed8a9707e67c6339e560016c1d9906c4",
                    "receiptTrie" : "0x3c906e146ba68000f9bffb3ece82f22a6114465c6121d73179d43de0b3e8947f",
                    "stateRoot" : "0x3b1fafdebade0537f6b50f2fefb909c226b2acc3e43a73ebad6c3c53877b71b1",
                    "timestamp" : "0x03e8",
                    "transactionsTrie" : "0x7483d098844e335f70966b0d9c417c341328d347e5d5c1368fbc51587bc7c0c7",
                    "uncleHash" : "0x1dcc4de8dec75d7aab85b567b6ccd41ad312451b948a7413f0a142fd40d49347"
                },
                "rlp" : "0xf90273f901fca0f5903f8fbb4316e7572f99463b026f47ed8a9707e67c6339e560016c1d9906c4a01dcc4de8dec75d7aab85b567b6ccd41ad312451b948a7413f0a142fd40d49347942adc25665018aa1fe0e6bc666dac8fc2697ff9baa03b1fafdebade0537f6b50f2fefb909c226b2acc3e43a73ebad6c3c53877b71b1a07483d098844e335f70966b0d9c417c341328d347e5d5c1368fbc51587bc7c0c7a03c906e146ba68000f9bffb3ece82f22a6114465c6121d73179d43de0b3e8947fb90100000000000000000000000000000000000000000000000000000000000000000000000000000000000000000000000000000000000000000000000000000000000000000000000000000000000000000000000000000000000000000000000000000000000000000000000000000000000000000000000000000000000000000000000000000000000000000000000000000000000000000000000000000000000000000000000000000000000000000000000000000000000000000000000000000000000000000000000000000000000000000000000000000000000000000000000000000000000000000000000000000000000000000000000000000000008302000001887fffffffffffffff8254288203e880a0248004578cd33dde77512f2801f2c492a81018eee2f81d4b7e9b8b517df28e2f882f0190362326351ef871f86f800788100000000000000094b94f5374fce5edbc8e2a8697c15331677e6ebf0b8203848832403495489834541ba010898022c73e87daa54dd1c540d64dab2d558bfca21ff4d7717890c565a6a8c7a040380f6c50f41656af6409c3bd87ce2e57de75f25f7dc00f746d31a9b60331f2c0",
                "transactions" : [
                    {
                        "data" : "0x3240349548983454",
                        "gasLimit" : "0x1000000000000000",
                        "gasPrice" : "0x07",
                        "nonce" : "0x00",
                        "r" : "0x10898022c73e87daa54dd1c540d64dab2d558bfca21ff4d7717890c565a6a8c7",
                        "s" : "0x40380f6c50f41656af6409c3bd87ce2e57de75f25f7dc00f746d31a9b60331f2",
                        "to" : "0xb94f5374fce5edbc8e2a8697c15331677e6ebf0b",
                        "v" : "0x1b",
                        "value" : "0x0384"
                    }
                ],
                "uncleHeaders" : [
                ]
            }
        ],
        "genesisBlockHeader" : {
            "bloom" : "0x00000000000000000000000000000000000000000000000000000000000000000000000000000000000000000000000000000000000000000000000000000000000000000000000000000000000000000000000000000000000000000000000000000000000000000000000000000000000000000000000000000000000000000000000000000000000000000000000000000000000000000000000000000000000000000000000000000000000000000000000000000000000000000000000000000000000000000000000000000000000000000000000000000000000000000000000000000000000000000000000000000000000000000000000000000000",
            "coinbase" : "0x2adc25665018aa1fe0e6bc666dac8fc2697ff9ba",
            "difficulty" : "0x020000",
            "extraData" : "0x42",
            "gasLimit" : "0x7fffffffffffffff",
            "gasUsed" : "0x00",
            "hash" : "0xf5903f8fbb4316e7572f99463b026f47ed8a9707e67c6339e560016c1d9906c4",
            "mixHash" : "0x56e81f171bcc55a6ff8345e692c0f86e5b48e01b996cadc001622fb5e363b421",
            "nonce" : "0x0102030405060708",
            "number" : "0x00",
            "parentHash" : "0x0000000000000000000000000000000000000000000000000000000000000000",
            "receiptTrie" : "0x56e81f171bcc55a6ff8345e692c0f86e5b48e01b996cadc001622fb5e363b421",
            "stateRoot" : "0x21e74bd5b4b29e241d402d6d7483d050bbdfcf2ae943522c2875c3f293e1ce70",
            "timestamp" : "0x03b6",
            "transactionsTrie" : "0x56e81f171bcc55a6ff8345e692c0f86e5b48e01b996cadc001622fb5e363b421",
            "uncleHash" : "0x1dcc4de8dec75d7aab85b567b6ccd41ad312451b948a7413f0a142fd40d49347"
        },
        "genesisRLP" : "0xf901fff901faa00000000000000000000000000000000000000000000000000000000000000000a01dcc4de8dec75d7aab85b567b6ccd41ad312451b948a7413f0a142fd40d49347942adc25665018aa1fe0e6bc666dac8fc2697ff9baa021e74bd5b4b29e241d402d6d7483d050bbdfcf2ae943522c2875c3f293e1ce70a056e81f171bcc55a6ff8345e692c0f86e5b48e01b996cadc001622fb5e363b421a056e81f171bcc55a6ff8345e692c0f86e5b48e01b996cadc001622fb5e363b421b90100000000000000000000000000000000000000000000000000000000000000000000000000000000000000000000000000000000000000000000000000000000000000000000000000000000000000000000000000000000000000000000000000000000000000000000000000000000000000000000000000000000000000000000000000000000000000000000000000000000000000000000000000000000000000000000000000000000000000000000000000000000000000000000000000000000000000000000000000000000000000000000000000000000000000000000000000000000000000000000000000000000000000000000000000000000008302000080887fffffffffffffff808203b642a056e81f171bcc55a6ff8345e692c0f86e5b48e01b996cadc001622fb5e363b421880102030405060708c0c0",
        "lastblockhash" : "0x1ad0269115a817094c50ea34877b1be9c4ef5e630da5a15ed8cea334682125cc",
        "network" : "Frontier",
        "postState" : {
            "0x2adc25665018aa1fe0e6bc666dac8fc2697ff9ba" : {
                "balance" : "0x4563918244f64d18",
                "code" : "",
                "nonce" : "0x00",
                "storage" : {
                }
            },
            "0xa94f5374fce5edbc8e2a8697c15331677e6ebf0b" : {
                "balance" : "0xfffffffffffffffffffffffffffffffffffffffffffffffffffffffffffdaf63",
                "code" : "",
                "nonce" : "0x01",
                "storage" : {
                }
            },
            "0xb94f5374fce5edbc8e2a8697c15331677e6ebf0b" : {
                "balance" : "0x0384",
                "code" : "",
                "nonce" : "0x00",
                "storage" : {
                }
            }
        },
        "pre" : {
            "0xa94f5374fce5edbc8e2a8697c15331677e6ebf0b" : {
                "balance" : "0xffffffffffffffffffffffffffffffffffffffffffffffffffffffffffffffff",
                "code" : "",
                "nonce" : "0x00",
                "storage" : {
                }
            }
        }
    },
    "HighGasLimit_d0g0v0_Homestead" : {
        "_info" : {
            "comment" : "",
            "filledwith" : "cpp-1.3.0+commit.6e0ce939.Linux.g++",
            "lllcversion" : "Version: 0.4.18-develop.2017.9.25+commit.a72237f2.Linux.g++",
            "source" : "src/BlockchainTestsFiller/GeneralStateTests/stTransactionTest/HighGasLimit_d0g0v0Filler.json",
            "sourceHash" : "a4431ec977ab7becb27c4c9f4db6e0949103c9488fccea9924c12b908b64840c"
        },
        "blocks" : [
            {
                "blockHeader" : {
                    "bloom" : "0x00000000000000000000000000000000000000000000000000000000000000000000000000000000000000000000000000000000000000000000000000000000000000000000000000000000000000000000000000000000000000000000000000000000000000000000000000000000000000000000000000000000000000000000000000000000000000000000000000000000000000000000000000000000000000000000000000000000000000000000000000000000000000000000000000000000000000000000000000000000000000000000000000000000000000000000000000000000000000000000000000000000000000000000000000000000",
                    "coinbase" : "0x2adc25665018aa1fe0e6bc666dac8fc2697ff9ba",
                    "difficulty" : "0x020000",
                    "extraData" : "",
                    "gasLimit" : "0x7fffffffffffffff",
                    "gasUsed" : "0x5428",
                    "hash" : "0xfca47500ed8061e00de0cff09a5d7855661190cd755ea7428d235a67ea9c5257",
                    "mixHash" : "0xa5db102e43fc9e701905d52c80283ecd04fcb69b6845d30ef605dad3269bbe15",
                    "nonce" : "0xe7eafb2db492c929",
                    "number" : "0x01",
                    "parentHash" : "0xf5903f8fbb4316e7572f99463b026f47ed8a9707e67c6339e560016c1d9906c4",
                    "receiptTrie" : "0x3c906e146ba68000f9bffb3ece82f22a6114465c6121d73179d43de0b3e8947f",
                    "stateRoot" : "0x3b1fafdebade0537f6b50f2fefb909c226b2acc3e43a73ebad6c3c53877b71b1",
                    "timestamp" : "0x03e8",
                    "transactionsTrie" : "0x7483d098844e335f70966b0d9c417c341328d347e5d5c1368fbc51587bc7c0c7",
                    "uncleHash" : "0x1dcc4de8dec75d7aab85b567b6ccd41ad312451b948a7413f0a142fd40d49347"
                },
                "rlp" : "0xf90273f901fca0f5903f8fbb4316e7572f99463b026f47ed8a9707e67c6339e560016c1d9906c4a01dcc4de8dec75d7aab85b567b6ccd41ad312451b948a7413f0a142fd40d49347942adc25665018aa1fe0e6bc666dac8fc2697ff9baa03b1fafdebade0537f6b50f2fefb909c226b2acc3e43a73ebad6c3c53877b71b1a07483d098844e335f70966b0d9c417c341328d347e5d5c1368fbc51587bc7c0c7a03c906e146ba68000f9bffb3ece82f22a6114465c6121d73179d43de0b3e8947fb90100000000000000000000000000000000000000000000000000000000000000000000000000000000000000000000000000000000000000000000000000000000000000000000000000000000000000000000000000000000000000000000000000000000000000000000000000000000000000000000000000000000000000000000000000000000000000000000000000000000000000000000000000000000000000000000000000000000000000000000000000000000000000000000000000000000000000000000000000000000000000000000000000000000000000000000000000000000000000000000000000000000000000000000000000000000008302000001887fffffffffffffff8254288203e880a0a5db102e43fc9e701905d52c80283ecd04fcb69b6845d30ef605dad3269bbe1588e7eafb2db492c929f871f86f800788100000000000000094b94f5374fce5edbc8e2a8697c15331677e6ebf0b8203848832403495489834541ba010898022c73e87daa54dd1c540d64dab2d558bfca21ff4d7717890c565a6a8c7a040380f6c50f41656af6409c3bd87ce2e57de75f25f7dc00f746d31a9b60331f2c0",
                "transactions" : [
                    {
                        "data" : "0x3240349548983454",
                        "gasLimit" : "0x1000000000000000",
                        "gasPrice" : "0x07",
                        "nonce" : "0x00",
                        "r" : "0x10898022c73e87daa54dd1c540d64dab2d558bfca21ff4d7717890c565a6a8c7",
                        "s" : "0x40380f6c50f41656af6409c3bd87ce2e57de75f25f7dc00f746d31a9b60331f2",
                        "to" : "0xb94f5374fce5edbc8e2a8697c15331677e6ebf0b",
                        "v" : "0x1b",
                        "value" : "0x0384"
                    }
                ],
                "uncleHeaders" : [
                ]
            }
        ],
        "genesisBlockHeader" : {
            "bloom" : "0x00000000000000000000000000000000000000000000000000000000000000000000000000000000000000000000000000000000000000000000000000000000000000000000000000000000000000000000000000000000000000000000000000000000000000000000000000000000000000000000000000000000000000000000000000000000000000000000000000000000000000000000000000000000000000000000000000000000000000000000000000000000000000000000000000000000000000000000000000000000000000000000000000000000000000000000000000000000000000000000000000000000000000000000000000000000",
            "coinbase" : "0x2adc25665018aa1fe0e6bc666dac8fc2697ff9ba",
            "difficulty" : "0x020000",
            "extraData" : "0x42",
            "gasLimit" : "0x7fffffffffffffff",
            "gasUsed" : "0x00",
            "hash" : "0xf5903f8fbb4316e7572f99463b026f47ed8a9707e67c6339e560016c1d9906c4",
            "mixHash" : "0x56e81f171bcc55a6ff8345e692c0f86e5b48e01b996cadc001622fb5e363b421",
            "nonce" : "0x0102030405060708",
            "number" : "0x00",
            "parentHash" : "0x0000000000000000000000000000000000000000000000000000000000000000",
            "receiptTrie" : "0x56e81f171bcc55a6ff8345e692c0f86e5b48e01b996cadc001622fb5e363b421",
            "stateRoot" : "0x21e74bd5b4b29e241d402d6d7483d050bbdfcf2ae943522c2875c3f293e1ce70",
            "timestamp" : "0x03b6",
            "transactionsTrie" : "0x56e81f171bcc55a6ff8345e692c0f86e5b48e01b996cadc001622fb5e363b421",
            "uncleHash" : "0x1dcc4de8dec75d7aab85b567b6ccd41ad312451b948a7413f0a142fd40d49347"
        },
        "genesisRLP" : "0xf901fff901faa00000000000000000000000000000000000000000000000000000000000000000a01dcc4de8dec75d7aab85b567b6ccd41ad312451b948a7413f0a142fd40d49347942adc25665018aa1fe0e6bc666dac8fc2697ff9baa021e74bd5b4b29e241d402d6d7483d050bbdfcf2ae943522c2875c3f293e1ce70a056e81f171bcc55a6ff8345e692c0f86e5b48e01b996cadc001622fb5e363b421a056e81f171bcc55a6ff8345e692c0f86e5b48e01b996cadc001622fb5e363b421b90100000000000000000000000000000000000000000000000000000000000000000000000000000000000000000000000000000000000000000000000000000000000000000000000000000000000000000000000000000000000000000000000000000000000000000000000000000000000000000000000000000000000000000000000000000000000000000000000000000000000000000000000000000000000000000000000000000000000000000000000000000000000000000000000000000000000000000000000000000000000000000000000000000000000000000000000000000000000000000000000000000000000000000000000000000000008302000080887fffffffffffffff808203b642a056e81f171bcc55a6ff8345e692c0f86e5b48e01b996cadc001622fb5e363b421880102030405060708c0c0",
        "lastblockhash" : "0xfca47500ed8061e00de0cff09a5d7855661190cd755ea7428d235a67ea9c5257",
        "network" : "Homestead",
        "postState" : {
            "0x2adc25665018aa1fe0e6bc666dac8fc2697ff9ba" : {
                "balance" : "0x4563918244f64d18",
                "code" : "",
                "nonce" : "0x00",
                "storage" : {
                }
            },
            "0xa94f5374fce5edbc8e2a8697c15331677e6ebf0b" : {
                "balance" : "0xfffffffffffffffffffffffffffffffffffffffffffffffffffffffffffdaf63",
                "code" : "",
                "nonce" : "0x01",
                "storage" : {
                }
            },
            "0xb94f5374fce5edbc8e2a8697c15331677e6ebf0b" : {
                "balance" : "0x0384",
                "code" : "",
                "nonce" : "0x00",
                "storage" : {
                }
            }
        },
        "pre" : {
            "0xa94f5374fce5edbc8e2a8697c15331677e6ebf0b" : {
                "balance" : "0xffffffffffffffffffffffffffffffffffffffffffffffffffffffffffffffff",
                "code" : "",
                "nonce" : "0x00",
                "storage" : {
                }
            }
        }
    }
}