{
    "InternalCallHittingGasLimitSuccess_d0g0v0_Byzantium" : {
        "_info" : {
            "comment" : "",
            "filledwith" : "cpp-1.3.0+commit.6e0ce939.Linux.g++",
            "lllcversion" : "Version: 0.4.18-develop.2017.9.25+commit.a72237f2.Linux.g++",
            "source" : "src/BlockchainTestsFiller/GeneralStateTests/stTransactionTest/InternalCallHittingGasLimitSuccess_d0g0v0Filler.json",
            "sourceHash" : "cae16b6f71bbfc4a217cb2ed43af897e675167119c2be58e8e09ef570da10a0a"
        },
        "blocks" : [
            {
                "blockHeader" : {
                    "bloom" : "0x00000000000000000000000000000000000000000000000000000000000000000000000000000000000000000000000000000000000000000000000000000000000000000000000000000000000000000000000000000000000000000000000000000000000000000000000000000000000000000000000000000000000000000000000000000000000000000000000000000000000000000000000000000000000000000000000000000000000000000000000000000000000000000000000000000000000000000000000000000000000000000000000000000000000000000000000000000000000000000000000000000000000000000000000000000000",
                    "coinbase" : "0x2adf5374fce5edbc8e2a8697c15331677e6ebf0b",
                    "difficulty" : "0x020000",
                    "extraData" : "",
                    "gasLimit" : "0x035b60",
                    "gasUsed" : "0xbd2b",
                    "hash" : "0x987372bb8d2c8a449eea615f4a049e1ede844046d05cdfde992068ba2eafd3bb",
                    "mixHash" : "0xeb47417b96e1f276aaf81e8b87460182c3fad8331857fd15b40d04eb0fa6f29a",
                    "nonce" : "0x1c4fc519a2b0f37a",
                    "number" : "0x01",
                    "parentHash" : "0xd895192a20cacfae6b3e6fb32125c7d3a39a67cb353735f4199553dfe28edaf0",
                    "receiptTrie" : "0xb437820554e69b3fc2fdcd4a55264f3e4c2035f12b5f182ba47bff3d36a9f86b",
                    "stateRoot" : "0xa513e36b4e6600e6a434e4f2e932e6d8fb5976906aa649c1b60e34d48c10c616",
                    "timestamp" : "0x03e8",
                    "transactionsTrie" : "0x414170b02f9713807dd6c97babba184f8a9df9be36b7f9f52d3999b86856dc9c",
                    "uncleHash" : "0x1dcc4de8dec75d7aab85b567b6ccd41ad312451b948a7413f0a142fd40d49347"
                },
                "rlp" : "0xf9025ef901f7a0d895192a20cacfae6b3e6fb32125c7d3a39a67cb353735f4199553dfe28edaf0a01dcc4de8dec75d7aab85b567b6ccd41ad312451b948a7413f0a142fd40d49347942adf5374fce5edbc8e2a8697c15331677e6ebf0ba0a513e36b4e6600e6a434e4f2e932e6d8fb5976906aa649c1b60e34d48c10c616a0414170b02f9713807dd6c97babba184f8a9df9be36b7f9f52d3999b86856dc9ca0b437820554e69b3fc2fdcd4a55264f3e4c2035f12b5f182ba47bff3d36a9f86bb9010000000000000000000000000000000000000000000000000000000000000000000000000000000000000000000000000000000000000000000000000000000000000000000000000000000000000000000000000000000000000000000000000000000000000000000000000000000000000000000000000000000000000000000000000000000000000000000000000000000000000000000000000000000000000000000000000000000000000000000000000000000000000000000000000000000000000000000000000000000000000000000000000000000000000000000000000000000000000000000000000000000000000000000000000000000000830200000183035b6082bd2b8203e880a0eb47417b96e1f276aaf81e8b87460182c3fad8331857fd15b40d04eb0fa6f29a881c4fc519a2b0f37af861f85f8001830249f094b94f5374fce5edbc8e2a8697c15331677e6ebf0b0a801ca0cc06b2a23b9e06e523e58aee975ac7bfcba2b4572301bf38097e40d35c56ed9f9f7e5b3848522c5a56111df734596e1cf1e719df3b4b7400fc94028efdcc8482c0",
                "transactions" : [
                    {
                        "data" : "",
                        "gasLimit" : "0x0249f0",
                        "gasPrice" : "0x01",
                        "nonce" : "0x00",
                        "r" : "0xcc06b2a23b9e06e523e58aee975ac7bfcba2b4572301bf38097e40d35c56ed9f",
                        "s" : "0x7e5b3848522c5a56111df734596e1cf1e719df3b4b7400fc94028efdcc8482",
                        "to" : "0xb94f5374fce5edbc8e2a8697c15331677e6ebf0b",
                        "v" : "0x1c",
                        "value" : "0x0a"
                    }
                ],
                "uncleHeaders" : [
                ]
            }
        ],
        "genesisBlockHeader" : {
            "bloom" : "0x00000000000000000000000000000000000000000000000000000000000000000000000000000000000000000000000000000000000000000000000000000000000000000000000000000000000000000000000000000000000000000000000000000000000000000000000000000000000000000000000000000000000000000000000000000000000000000000000000000000000000000000000000000000000000000000000000000000000000000000000000000000000000000000000000000000000000000000000000000000000000000000000000000000000000000000000000000000000000000000000000000000000000000000000000000000",
            "coinbase" : "0x2adf5374fce5edbc8e2a8697c15331677e6ebf0b",
            "difficulty" : "0x020000",
            "extraData" : "0x42",
            "gasLimit" : "0x035b60",
            "gasUsed" : "0x00",
            "hash" : "0xd895192a20cacfae6b3e6fb32125c7d3a39a67cb353735f4199553dfe28edaf0",
            "mixHash" : "0x56e81f171bcc55a6ff8345e692c0f86e5b48e01b996cadc001622fb5e363b421",
            "nonce" : "0x0102030405060708",
            "number" : "0x00",
            "parentHash" : "0x0000000000000000000000000000000000000000000000000000000000000000",
            "receiptTrie" : "0x56e81f171bcc55a6ff8345e692c0f86e5b48e01b996cadc001622fb5e363b421",
            "stateRoot" : "0x8067ae4e6ecf3be140b56f07720113015d55154e45a44ecc290669b357299bfd",
            "timestamp" : "0x03b6",
            "transactionsTrie" : "0x56e81f171bcc55a6ff8345e692c0f86e5b48e01b996cadc001622fb5e363b421",
            "uncleHash" : "0x1dcc4de8dec75d7aab85b567b6ccd41ad312451b948a7413f0a142fd40d49347"
        },
        "genesisRLP" : "0xf901faf901f5a00000000000000000000000000000000000000000000000000000000000000000a01dcc4de8dec75d7aab85b567b6ccd41ad312451b948a7413f0a142fd40d49347942adf5374fce5edbc8e2a8697c15331677e6ebf0ba08067ae4e6ecf3be140b56f07720113015d55154e45a44ecc290669b357299bfda056e81f171bcc55a6ff8345e692c0f86e5b48e01b996cadc001622fb5e363b421a056e81f171bcc55a6ff8345e692c0f86e5b48e01b996cadc001622fb5e363b421b9010000000000000000000000000000000000000000000000000000000000000000000000000000000000000000000000000000000000000000000000000000000000000000000000000000000000000000000000000000000000000000000000000000000000000000000000000000000000000000000000000000000000000000000000000000000000000000000000000000000000000000000000000000000000000000000000000000000000000000000000000000000000000000000000000000000000000000000000000000000000000000000000000000000000000000000000000000000000000000000000000000000000000000000000000000000000830200008083035b60808203b642a056e81f171bcc55a6ff8345e692c0f86e5b48e01b996cadc001622fb5e363b421880102030405060708c0c0",
        "lastblockhash" : "0x987372bb8d2c8a449eea615f4a049e1ede844046d05cdfde992068ba2eafd3bb",
        "network" : "Byzantium",
        "postState" : {
            "0x2adf5374fce5edbc8e2a8697c15331677e6ebf0b" : {
                "balance" : "0x29a2241af62cbd2b",
                "code" : "",
                "nonce" : "0x00",
                "storage" : {
                }
            },
            "0xa94f5374fce5edbc8e2a8697c15331677e6ebf0b" : {
                "balance" : "0x0e850b",
                "code" : "",
                "nonce" : "0x01",
                "storage" : {
                }
            },
            "0xb94f5374fce5edbc8e2a8697c15331677e6ebf0b" : {
                "balance" : "0x09",
                "code" : "0x6000600060006000600173c94f5374fce5edbc8e2a8697c15331677e6ebf0b6161a8f1",
                "nonce" : "0x00",
                "storage" : {
                }
            },
            "0xc94f5374fce5edbc8e2a8697c15331677e6ebf0b" : {
                "balance" : "0x01",
                "code" : "0x6037600155",
                "nonce" : "0x00",
                "storage" : {
                    "0x01" : "0x37"
                }
            }
        },
        "pre" : {
            "0xa94f5374fce5edbc8e2a8697c15331677e6ebf0b" : {
                "balance" : "0x0f4240",
                "code" : "",
                "nonce" : "0x00",
                "storage" : {
                }
            },
            "0xb94f5374fce5edbc8e2a8697c15331677e6ebf0b" : {
                "balance" : "0x00",
                "code" : "0x6000600060006000600173c94f5374fce5edbc8e2a8697c15331677e6ebf0b6161a8f1",
                "nonce" : "0x00",
                "storage" : {
                }
            },
            "0xc94f5374fce5edbc8e2a8697c15331677e6ebf0b" : {
                "balance" : "0x00",
                "code" : "0x6037600155",
                "nonce" : "0x00",
                "storage" : {
                }
            }
        }
    },
    "InternalCallHittingGasLimitSuccess_d0g0v0_EIP150" : {
        "_info" : {
            "comment" : "",
            "filledwith" : "cpp-1.3.0+commit.6e0ce939.Linux.g++",
            "lllcversion" : "Version: 0.4.18-develop.2017.9.25+commit.a72237f2.Linux.g++",
            "source" : "src/BlockchainTestsFiller/GeneralStateTests/stTransactionTest/InternalCallHittingGasLimitSuccess_d0g0v0Filler.json",
            "sourceHash" : "cae16b6f71bbfc4a217cb2ed43af897e675167119c2be58e8e09ef570da10a0a"
        },
        "blocks" : [
            {
                "blockHeader" : {
                    "bloom" : "0x00000000000000000000000000000000000000000000000000000000000000000000000000000000000000000000000000000000000000000000000000000000000000000000000000000000000000000000000000000000000000000000000000000000000000000000000000000000000000000000000000000000000000000000000000000000000000000000000000000000000000000000000000000000000000000000000000000000000000000000000000000000000000000000000000000000000000000000000000000000000000000000000000000000000000000000000000000000000000000000000000000000000000000000000000000000",
                    "coinbase" : "0x2adf5374fce5edbc8e2a8697c15331677e6ebf0b",
                    "difficulty" : "0x020000",
                    "extraData" : "",
                    "gasLimit" : "0x035b60",
                    "gasUsed" : "0xbd2b",
                    "hash" : "0x3b94df09faa5d6694e338756de7134bc05d8bbe2a6620a2da956e61562a3c336",
                    "mixHash" : "0x394752721f4421823e1ba2891c374e4409a5dca4bc3130c235d7bbf06608429c",
                    "nonce" : "0xa9eaf408c9c8d9e4",
                    "number" : "0x01",
                    "parentHash" : "0xd895192a20cacfae6b3e6fb32125c7d3a39a67cb353735f4199553dfe28edaf0",
                    "receiptTrie" : "0xedc8555f460d4f13dcd67bd1bd79d15ff5fb324e53ca38f044a4d44b3cab197e",
                    "stateRoot" : "0xec020b18c6286a9438e55bee9f8b09f9fa39fe087658b7745e8a603d0b7d53f0",
                    "timestamp" : "0x03e8",
                    "transactionsTrie" : "0x414170b02f9713807dd6c97babba184f8a9df9be36b7f9f52d3999b86856dc9c",
                    "uncleHash" : "0x1dcc4de8dec75d7aab85b567b6ccd41ad312451b948a7413f0a142fd40d49347"
                },
                "rlp" : "0xf9025ef901f7a0d895192a20cacfae6b3e6fb32125c7d3a39a67cb353735f4199553dfe28edaf0a01dcc4de8dec75d7aab85b567b6ccd41ad312451b948a7413f0a142fd40d49347942adf5374fce5edbc8e2a8697c15331677e6ebf0ba0ec020b18c6286a9438e55bee9f8b09f9fa39fe087658b7745e8a603d0b7d53f0a0414170b02f9713807dd6c97babba184f8a9df9be36b7f9f52d3999b86856dc9ca0edc8555f460d4f13dcd67bd1bd79d15ff5fb324e53ca38f044a4d44b3cab197eb9010000000000000000000000000000000000000000000000000000000000000000000000000000000000000000000000000000000000000000000000000000000000000000000000000000000000000000000000000000000000000000000000000000000000000000000000000000000000000000000000000000000000000000000000000000000000000000000000000000000000000000000000000000000000000000000000000000000000000000000000000000000000000000000000000000000000000000000000000000000000000000000000000000000000000000000000000000000000000000000000000000000000000000000000000000000000830200000183035b6082bd2b8203e880a0394752721f4421823e1ba2891c374e4409a5dca4bc3130c235d7bbf06608429c88a9eaf408c9c8d9e4f861f85f8001830249f094b94f5374fce5edbc8e2a8697c15331677e6ebf0b0a801ca0cc06b2a23b9e06e523e58aee975ac7bfcba2b4572301bf38097e40d35c56ed9f9f7e5b3848522c5a56111df734596e1cf1e719df3b4b7400fc94028efdcc8482c0",
                "transactions" : [
                    {
                        "data" : "",
                        "gasLimit" : "0x0249f0",
                        "gasPrice" : "0x01",
                        "nonce" : "0x00",
                        "r" : "0xcc06b2a23b9e06e523e58aee975ac7bfcba2b4572301bf38097e40d35c56ed9f",
                        "s" : "0x7e5b3848522c5a56111df734596e1cf1e719df3b4b7400fc94028efdcc8482",
                        "to" : "0xb94f5374fce5edbc8e2a8697c15331677e6ebf0b",
                        "v" : "0x1c",
                        "value" : "0x0a"
                    }
                ],
                "uncleHeaders" : [
                ]
            }
        ],
        "genesisBlockHeader" : {
            "bloom" : "0x00000000000000000000000000000000000000000000000000000000000000000000000000000000000000000000000000000000000000000000000000000000000000000000000000000000000000000000000000000000000000000000000000000000000000000000000000000000000000000000000000000000000000000000000000000000000000000000000000000000000000000000000000000000000000000000000000000000000000000000000000000000000000000000000000000000000000000000000000000000000000000000000000000000000000000000000000000000000000000000000000000000000000000000000000000000",
            "coinbase" : "0x2adf5374fce5edbc8e2a8697c15331677e6ebf0b",
            "difficulty" : "0x020000",
            "extraData" : "0x42",
            "gasLimit" : "0x035b60",
            "gasUsed" : "0x00",
            "hash" : "0xd895192a20cacfae6b3e6fb32125c7d3a39a67cb353735f4199553dfe28edaf0",
            "mixHash" : "0x56e81f171bcc55a6ff8345e692c0f86e5b48e01b996cadc001622fb5e363b421",
            "nonce" : "0x0102030405060708",
            "number" : "0x00",
            "parentHash" : "0x0000000000000000000000000000000000000000000000000000000000000000",
            "receiptTrie" : "0x56e81f171bcc55a6ff8345e692c0f86e5b48e01b996cadc001622fb5e363b421",
            "stateRoot" : "0x8067ae4e6ecf3be140b56f07720113015d55154e45a44ecc290669b357299bfd",
            "timestamp" : "0x03b6",
            "transactionsTrie" : "0x56e81f171bcc55a6ff8345e692c0f86e5b48e01b996cadc001622fb5e363b421",
            "uncleHash" : "0x1dcc4de8dec75d7aab85b567b6ccd41ad312451b948a7413f0a142fd40d49347"
        },
        "genesisRLP" : "0xf901faf901f5a00000000000000000000000000000000000000000000000000000000000000000a01dcc4de8dec75d7aab85b567b6ccd41ad312451b948a7413f0a142fd40d49347942adf5374fce5edbc8e2a8697c15331677e6ebf0ba08067ae4e6ecf3be140b56f07720113015d55154e45a44ecc290669b357299bfda056e81f171bcc55a6ff8345e692c0f86e5b48e01b996cadc001622fb5e363b421a056e81f171bcc55a6ff8345e692c0f86e5b48e01b996cadc001622fb5e363b421b9010000000000000000000000000000000000000000000000000000000000000000000000000000000000000000000000000000000000000000000000000000000000000000000000000000000000000000000000000000000000000000000000000000000000000000000000000000000000000000000000000000000000000000000000000000000000000000000000000000000000000000000000000000000000000000000000000000000000000000000000000000000000000000000000000000000000000000000000000000000000000000000000000000000000000000000000000000000000000000000000000000000000000000000000000000000000830200008083035b60808203b642a056e81f171bcc55a6ff8345e692c0f86e5b48e01b996cadc001622fb5e363b421880102030405060708c0c0",
        "lastblockhash" : "0x3b94df09faa5d6694e338756de7134bc05d8bbe2a6620a2da956e61562a3c336",
        "network" : "EIP150",
        "postState" : {
            "0x2adf5374fce5edbc8e2a8697c15331677e6ebf0b" : {
                "balance" : "0x4563918244f4bd2b",
                "code" : "",
                "nonce" : "0x00",
                "storage" : {
                }
            },
            "0xa94f5374fce5edbc8e2a8697c15331677e6ebf0b" : {
                "balance" : "0x0e850b",
                "code" : "",
                "nonce" : "0x01",
                "storage" : {
                }
            },
            "0xb94f5374fce5edbc8e2a8697c15331677e6ebf0b" : {
                "balance" : "0x09",
                "code" : "0x6000600060006000600173c94f5374fce5edbc8e2a8697c15331677e6ebf0b6161a8f1",
                "nonce" : "0x00",
                "storage" : {
                }
            },
            "0xc94f5374fce5edbc8e2a8697c15331677e6ebf0b" : {
                "balance" : "0x01",
                "code" : "0x6037600155",
                "nonce" : "0x00",
                "storage" : {
                    "0x01" : "0x37"
                }
            }
        },
        "pre" : {
            "0xa94f5374fce5edbc8e2a8697c15331677e6ebf0b" : {
                "balance" : "0x0f4240",
                "code" : "",
                "nonce" : "0x00",
                "storage" : {
                }
            },
            "0xb94f5374fce5edbc8e2a8697c15331677e6ebf0b" : {
                "balance" : "0x00",
                "code" : "0x6000600060006000600173c94f5374fce5edbc8e2a8697c15331677e6ebf0b6161a8f1",
                "nonce" : "0x00",
                "storage" : {
                }
            },
            "0xc94f5374fce5edbc8e2a8697c15331677e6ebf0b" : {
                "balance" : "0x00",
                "code" : "0x6037600155",
                "nonce" : "0x00",
                "storage" : {
                }
            }
        }
    },
    "InternalCallHittingGasLimitSuccess_d0g0v0_EIP158" : {
        "_info" : {
            "comment" : "",
            "filledwith" : "cpp-1.3.0+commit.6e0ce939.Linux.g++",
            "lllcversion" : "Version: 0.4.18-develop.2017.9.25+commit.a72237f2.Linux.g++",
            "source" : "src/BlockchainTestsFiller/GeneralStateTests/stTransactionTest/InternalCallHittingGasLimitSuccess_d0g0v0Filler.json",
            "sourceHash" : "cae16b6f71bbfc4a217cb2ed43af897e675167119c2be58e8e09ef570da10a0a"
        },
        "blocks" : [
            {
                "blockHeader" : {
                    "bloom" : "0x00000000000000000000000000000000000000000000000000000000000000000000000000000000000000000000000000000000000000000000000000000000000000000000000000000000000000000000000000000000000000000000000000000000000000000000000000000000000000000000000000000000000000000000000000000000000000000000000000000000000000000000000000000000000000000000000000000000000000000000000000000000000000000000000000000000000000000000000000000000000000000000000000000000000000000000000000000000000000000000000000000000000000000000000000000000",
                    "coinbase" : "0x2adf5374fce5edbc8e2a8697c15331677e6ebf0b",
                    "difficulty" : "0x020000",
                    "extraData" : "",
                    "gasLimit" : "0x035b60",
                    "gasUsed" : "0xbd2b",
                    "hash" : "0xb3612b8ca724924d8279b79e964d35296e4f9a1edd052fb08b9327373222b062",
                    "mixHash" : "0x6c3272addd6f0394bfdf990245a467ab88acdc8d8a1cfc95ff399aaf9b3ab2ad",
                    "nonce" : "0xf3e5d6fc77170f03",
                    "number" : "0x01",
                    "parentHash" : "0xd895192a20cacfae6b3e6fb32125c7d3a39a67cb353735f4199553dfe28edaf0",
                    "receiptTrie" : "0xedc8555f460d4f13dcd67bd1bd79d15ff5fb324e53ca38f044a4d44b3cab197e",
                    "stateRoot" : "0xec020b18c6286a9438e55bee9f8b09f9fa39fe087658b7745e8a603d0b7d53f0",
                    "timestamp" : "0x03e8",
                    "transactionsTrie" : "0x414170b02f9713807dd6c97babba184f8a9df9be36b7f9f52d3999b86856dc9c",
                    "uncleHash" : "0x1dcc4de8dec75d7aab85b567b6ccd41ad312451b948a7413f0a142fd40d49347"
                },
                "rlp" : "0xf9025ef901f7a0d895192a20cacfae6b3e6fb32125c7d3a39a67cb353735f4199553dfe28edaf0a01dcc4de8dec75d7aab85b567b6ccd41ad312451b948a7413f0a142fd40d49347942adf5374fce5edbc8e2a8697c15331677e6ebf0ba0ec020b18c6286a9438e55bee9f8b09f9fa39fe087658b7745e8a603d0b7d53f0a0414170b02f9713807dd6c97babba184f8a9df9be36b7f9f52d3999b86856dc9ca0edc8555f460d4f13dcd67bd1bd79d15ff5fb324e53ca38f044a4d44b3cab197eb9010000000000000000000000000000000000000000000000000000000000000000000000000000000000000000000000000000000000000000000000000000000000000000000000000000000000000000000000000000000000000000000000000000000000000000000000000000000000000000000000000000000000000000000000000000000000000000000000000000000000000000000000000000000000000000000000000000000000000000000000000000000000000000000000000000000000000000000000000000000000000000000000000000000000000000000000000000000000000000000000000000000000000000000000000000000000830200000183035b6082bd2b8203e880a06c3272addd6f0394bfdf990245a467ab88acdc8d8a1cfc95ff399aaf9b3ab2ad88f3e5d6fc77170f03f861f85f8001830249f094b94f5374fce5edbc8e2a8697c15331677e6ebf0b0a801ca0cc06b2a23b9e06e523e58aee975ac7bfcba2b4572301bf38097e40d35c56ed9f9f7e5b3848522c5a56111df734596e1cf1e719df3b4b7400fc94028efdcc8482c0",
                "transactions" : [
                    {
                        "data" : "",
                        "gasLimit" : "0x0249f0",
                        "gasPrice" : "0x01",
                        "nonce" : "0x00",
                        "r" : "0xcc06b2a23b9e06e523e58aee975ac7bfcba2b4572301bf38097e40d35c56ed9f",
                        "s" : "0x7e5b3848522c5a56111df734596e1cf1e719df3b4b7400fc94028efdcc8482",
                        "to" : "0xb94f5374fce5edbc8e2a8697c15331677e6ebf0b",
                        "v" : "0x1c",
                        "value" : "0x0a"
                    }
                ],
                "uncleHeaders" : [
                ]
            }
        ],
        "genesisBlockHeader" : {
            "bloom" : "0x00000000000000000000000000000000000000000000000000000000000000000000000000000000000000000000000000000000000000000000000000000000000000000000000000000000000000000000000000000000000000000000000000000000000000000000000000000000000000000000000000000000000000000000000000000000000000000000000000000000000000000000000000000000000000000000000000000000000000000000000000000000000000000000000000000000000000000000000000000000000000000000000000000000000000000000000000000000000000000000000000000000000000000000000000000000",
            "coinbase" : "0x2adf5374fce5edbc8e2a8697c15331677e6ebf0b",
            "difficulty" : "0x020000",
            "extraData" : "0x42",
            "gasLimit" : "0x035b60",
            "gasUsed" : "0x00",
            "hash" : "0xd895192a20cacfae6b3e6fb32125c7d3a39a67cb353735f4199553dfe28edaf0",
            "mixHash" : "0x56e81f171bcc55a6ff8345e692c0f86e5b48e01b996cadc001622fb5e363b421",
            "nonce" : "0x0102030405060708",
            "number" : "0x00",
            "parentHash" : "0x0000000000000000000000000000000000000000000000000000000000000000",
            "receiptTrie" : "0x56e81f171bcc55a6ff8345e692c0f86e5b48e01b996cadc001622fb5e363b421",
            "stateRoot" : "0x8067ae4e6ecf3be140b56f07720113015d55154e45a44ecc290669b357299bfd",
            "timestamp" : "0x03b6",
            "transactionsTrie" : "0x56e81f171bcc55a6ff8345e692c0f86e5b48e01b996cadc001622fb5e363b421",
            "uncleHash" : "0x1dcc4de8dec75d7aab85b567b6ccd41ad312451b948a7413f0a142fd40d49347"
        },
        "genesisRLP" : "0xf901faf901f5a00000000000000000000000000000000000000000000000000000000000000000a01dcc4de8dec75d7aab85b567b6ccd41ad312451b948a7413f0a142fd40d49347942adf5374fce5edbc8e2a8697c15331677e6ebf0ba08067ae4e6ecf3be140b56f07720113015d55154e45a44ecc290669b357299bfda056e81f171bcc55a6ff8345e692c0f86e5b48e01b996cadc001622fb5e363b421a056e81f171bcc55a6ff8345e692c0f86e5b48e01b996cadc001622fb5e363b421b9010000000000000000000000000000000000000000000000000000000000000000000000000000000000000000000000000000000000000000000000000000000000000000000000000000000000000000000000000000000000000000000000000000000000000000000000000000000000000000000000000000000000000000000000000000000000000000000000000000000000000000000000000000000000000000000000000000000000000000000000000000000000000000000000000000000000000000000000000000000000000000000000000000000000000000000000000000000000000000000000000000000000000000000000000000000000830200008083035b60808203b642a056e81f171bcc55a6ff8345e692c0f86e5b48e01b996cadc001622fb5e363b421880102030405060708c0c0",
        "lastblockhash" : "0xb3612b8ca724924d8279b79e964d35296e4f9a1edd052fb08b9327373222b062",
        "network" : "EIP158",
        "postState" : {
            "0x2adf5374fce5edbc8e2a8697c15331677e6ebf0b" : {
                "balance" : "0x4563918244f4bd2b",
                "code" : "",
                "nonce" : "0x00",
                "storage" : {
                }
            },
            "0xa94f5374fce5edbc8e2a8697c15331677e6ebf0b" : {
                "balance" : "0x0e850b",
                "code" : "",
                "nonce" : "0x01",
                "storage" : {
                }
            },
            "0xb94f5374fce5edbc8e2a8697c15331677e6ebf0b" : {
                "balance" : "0x09",
                "code" : "0x6000600060006000600173c94f5374fce5edbc8e2a8697c15331677e6ebf0b6161a8f1",
                "nonce" : "0x00",
                "storage" : {
                }
            },
            "0xc94f5374fce5edbc8e2a8697c15331677e6ebf0b" : {
                "balance" : "0x01",
                "code" : "0x6037600155",
                "nonce" : "0x00",
                "storage" : {
                    "0x01" : "0x37"
                }
            }
        },
        "pre" : {
            "0xa94f5374fce5edbc8e2a8697c15331677e6ebf0b" : {
                "balance" : "0x0f4240",
                "code" : "",
                "nonce" : "0x00",
                "storage" : {
                }
            },
            "0xb94f5374fce5edbc8e2a8697c15331677e6ebf0b" : {
                "balance" : "0x00",
                "code" : "0x6000600060006000600173c94f5374fce5edbc8e2a8697c15331677e6ebf0b6161a8f1",
                "nonce" : "0x00",
                "storage" : {
                }
            },
            "0xc94f5374fce5edbc8e2a8697c15331677e6ebf0b" : {
                "balance" : "0x00",
                "code" : "0x6037600155",
                "nonce" : "0x00",
                "storage" : {
                }
            }
        }
    },
    "InternalCallHittingGasLimitSuccess_d0g0v0_Frontier" : {
        "_info" : {
            "comment" : "",
            "filledwith" : "cpp-1.3.0+commit.6e0ce939.Linux.g++",
            "lllcversion" : "Version: 0.4.18-develop.2017.9.25+commit.a72237f2.Linux.g++",
            "source" : "src/BlockchainTestsFiller/GeneralStateTests/stTransactionTest/InternalCallHittingGasLimitSuccess_d0g0v0Filler.json",
            "sourceHash" : "cae16b6f71bbfc4a217cb2ed43af897e675167119c2be58e8e09ef570da10a0a"
        },
        "blocks" : [
            {
                "blockHeader" : {
                    "bloom" : "0x00000000000000000000000000000000000000000000000000000000000000000000000000000000000000000000000000000000000000000000000000000000000000000000000000000000000000000000000000000000000000000000000000000000000000000000000000000000000000000000000000000000000000000000000000000000000000000000000000000000000000000000000000000000000000000000000000000000000000000000000000000000000000000000000000000000000000000000000000000000000000000000000000000000000000000000000000000000000000000000000000000000000000000000000000000000",
                    "coinbase" : "0x2adf5374fce5edbc8e2a8697c15331677e6ebf0b",
                    "difficulty" : "0x020000",
                    "extraData" : "",
                    "gasLimit" : "0x035b60",
                    "gasUsed" : "0xba97",
                    "hash" : "0x2357e5b1d5aaad16b7a06b7ebeb265777c4c692f613560d356e9cdf1f71d619a",
                    "mixHash" : "0x35a958abae1193c91f8e624d152cccc87b39a04b170e74b18228f49df7fede74",
                    "nonce" : "0xd742c1d0a487ae60",
                    "number" : "0x01",
                    "parentHash" : "0xd895192a20cacfae6b3e6fb32125c7d3a39a67cb353735f4199553dfe28edaf0",
                    "receiptTrie" : "0xe91828b2b2e25c0351786f9fd404695fd27958a869a67b50ff8050f4d4773996",
                    "stateRoot" : "0xa30f733f71a1210ee633c55f58aadd6bba4ea666f951517f36a431fa523f8141",
                    "timestamp" : "0x03e8",
                    "transactionsTrie" : "0x414170b02f9713807dd6c97babba184f8a9df9be36b7f9f52d3999b86856dc9c",
                    "uncleHash" : "0x1dcc4de8dec75d7aab85b567b6ccd41ad312451b948a7413f0a142fd40d49347"
                },
                "rlp" : "0xf9025ef901f7a0d895192a20cacfae6b3e6fb32125c7d3a39a67cb353735f4199553dfe28edaf0a01dcc4de8dec75d7aab85b567b6ccd41ad312451b948a7413f0a142fd40d49347942adf5374fce5edbc8e2a8697c15331677e6ebf0ba0a30f733f71a1210ee633c55f58aadd6bba4ea666f951517f36a431fa523f8141a0414170b02f9713807dd6c97babba184f8a9df9be36b7f9f52d3999b86856dc9ca0e91828b2b2e25c0351786f9fd404695fd27958a869a67b50ff8050f4d4773996b9010000000000000000000000000000000000000000000000000000000000000000000000000000000000000000000000000000000000000000000000000000000000000000000000000000000000000000000000000000000000000000000000000000000000000000000000000000000000000000000000000000000000000000000000000000000000000000000000000000000000000000000000000000000000000000000000000000000000000000000000000000000000000000000000000000000000000000000000000000000000000000000000000000000000000000000000000000000000000000000000000000000000000000000000000000000000830200000183035b6082ba978203e880a035a958abae1193c91f8e624d152cccc87b39a04b170e74b18228f49df7fede7488d742c1d0a487ae60f861f85f8001830249f094b94f5374fce5edbc8e2a8697c15331677e6ebf0b0a801ca0cc06b2a23b9e06e523e58aee975ac7bfcba2b4572301bf38097e40d35c56ed9f9f7e5b3848522c5a56111df734596e1cf1e719df3b4b7400fc94028efdcc8482c0",
                "transactions" : [
                    {
                        "data" : "",
                        "gasLimit" : "0x0249f0",
                        "gasPrice" : "0x01",
                        "nonce" : "0x00",
                        "r" : "0xcc06b2a23b9e06e523e58aee975ac7bfcba2b4572301bf38097e40d35c56ed9f",
                        "s" : "0x7e5b3848522c5a56111df734596e1cf1e719df3b4b7400fc94028efdcc8482",
                        "to" : "0xb94f5374fce5edbc8e2a8697c15331677e6ebf0b",
                        "v" : "0x1c",
                        "value" : "0x0a"
                    }
                ],
                "uncleHeaders" : [
                ]
            }
        ],
        "genesisBlockHeader" : {
            "bloom" : "0x00000000000000000000000000000000000000000000000000000000000000000000000000000000000000000000000000000000000000000000000000000000000000000000000000000000000000000000000000000000000000000000000000000000000000000000000000000000000000000000000000000000000000000000000000000000000000000000000000000000000000000000000000000000000000000000000000000000000000000000000000000000000000000000000000000000000000000000000000000000000000000000000000000000000000000000000000000000000000000000000000000000000000000000000000000000",
            "coinbase" : "0x2adf5374fce5edbc8e2a8697c15331677e6ebf0b",
            "difficulty" : "0x020000",
            "extraData" : "0x42",
            "gasLimit" : "0x035b60",
            "gasUsed" : "0x00",
            "hash" : "0xd895192a20cacfae6b3e6fb32125c7d3a39a67cb353735f4199553dfe28edaf0",
            "mixHash" : "0x56e81f171bcc55a6ff8345e692c0f86e5b48e01b996cadc001622fb5e363b421",
            "nonce" : "0x0102030405060708",
            "number" : "0x00",
            "parentHash" : "0x0000000000000000000000000000000000000000000000000000000000000000",
            "receiptTrie" : "0x56e81f171bcc55a6ff8345e692c0f86e5b48e01b996cadc001622fb5e363b421",
            "stateRoot" : "0x8067ae4e6ecf3be140b56f07720113015d55154e45a44ecc290669b357299bfd",
            "timestamp" : "0x03b6",
            "transactionsTrie" : "0x56e81f171bcc55a6ff8345e692c0f86e5b48e01b996cadc001622fb5e363b421",
            "uncleHash" : "0x1dcc4de8dec75d7aab85b567b6ccd41ad312451b948a7413f0a142fd40d49347"
        },
        "genesisRLP" : "0xf901faf901f5a00000000000000000000000000000000000000000000000000000000000000000a01dcc4de8dec75d7aab85b567b6ccd41ad312451b948a7413f0a142fd40d49347942adf5374fce5edbc8e2a8697c15331677e6ebf0ba08067ae4e6ecf3be140b56f07720113015d55154e45a44ecc290669b357299bfda056e81f171bcc55a6ff8345e692c0f86e5b48e01b996cadc001622fb5e363b421a056e81f171bcc55a6ff8345e692c0f86e5b48e01b996cadc001622fb5e363b421b9010000000000000000000000000000000000000000000000000000000000000000000000000000000000000000000000000000000000000000000000000000000000000000000000000000000000000000000000000000000000000000000000000000000000000000000000000000000000000000000000000000000000000000000000000000000000000000000000000000000000000000000000000000000000000000000000000000000000000000000000000000000000000000000000000000000000000000000000000000000000000000000000000000000000000000000000000000000000000000000000000000000000000000000000000000000000830200008083035b60808203b642a056e81f171bcc55a6ff8345e692c0f86e5b48e01b996cadc001622fb5e363b421880102030405060708c0c0",
        "lastblockhash" : "0x2357e5b1d5aaad16b7a06b7ebeb265777c4c692f613560d356e9cdf1f71d619a",
        "network" : "Frontier",
        "postState" : {
            "0x2adf5374fce5edbc8e2a8697c15331677e6ebf0b" : {
                "balance" : "0x4563918244f4ba97",
                "code" : "",
                "nonce" : "0x00",
                "storage" : {
                }
            },
            "0xa94f5374fce5edbc8e2a8697c15331677e6ebf0b" : {
                "balance" : "0x0e879f",
                "code" : "",
                "nonce" : "0x01",
                "storage" : {
                }
            },
            "0xb94f5374fce5edbc8e2a8697c15331677e6ebf0b" : {
                "balance" : "0x09",
                "code" : "0x6000600060006000600173c94f5374fce5edbc8e2a8697c15331677e6ebf0b6161a8f1",
                "nonce" : "0x00",
                "storage" : {
                }
            },
            "0xc94f5374fce5edbc8e2a8697c15331677e6ebf0b" : {
                "balance" : "0x01",
                "code" : "0x6037600155",
                "nonce" : "0x00",
                "storage" : {
                    "0x01" : "0x37"
                }
            }
        },
        "pre" : {
            "0xa94f5374fce5edbc8e2a8697c15331677e6ebf0b" : {
                "balance" : "0x0f4240",
                "code" : "",
                "nonce" : "0x00",
                "storage" : {
                }
            },
            "0xb94f5374fce5edbc8e2a8697c15331677e6ebf0b" : {
                "balance" : "0x00",
                "code" : "0x6000600060006000600173c94f5374fce5edbc8e2a8697c15331677e6ebf0b6161a8f1",
                "nonce" : "0x00",
                "storage" : {
                }
            },
            "0xc94f5374fce5edbc8e2a8697c15331677e6ebf0b" : {
                "balance" : "0x00",
                "code" : "0x6037600155",
                "nonce" : "0x00",
                "storage" : {
                }
            }
        }
    },
    "InternalCallHittingGasLimitSuccess_d0g0v0_Homestead" : {
        "_info" : {
            "comment" : "",
            "filledwith" : "cpp-1.3.0+commit.6e0ce939.Linux.g++",
            "lllcversion" : "Version: 0.4.18-develop.2017.9.25+commit.a72237f2.Linux.g++",
            "source" : "src/BlockchainTestsFiller/GeneralStateTests/stTransactionTest/InternalCallHittingGasLimitSuccess_d0g0v0Filler.json",
            "sourceHash" : "cae16b6f71bbfc4a217cb2ed43af897e675167119c2be58e8e09ef570da10a0a"
        },
        "blocks" : [
            {
                "blockHeader" : {
                    "bloom" : "0x00000000000000000000000000000000000000000000000000000000000000000000000000000000000000000000000000000000000000000000000000000000000000000000000000000000000000000000000000000000000000000000000000000000000000000000000000000000000000000000000000000000000000000000000000000000000000000000000000000000000000000000000000000000000000000000000000000000000000000000000000000000000000000000000000000000000000000000000000000000000000000000000000000000000000000000000000000000000000000000000000000000000000000000000000000000",
                    "coinbase" : "0x2adf5374fce5edbc8e2a8697c15331677e6ebf0b",
                    "difficulty" : "0x020000",
                    "extraData" : "",
                    "gasLimit" : "0x035b60",
                    "gasUsed" : "0xba97",
                    "hash" : "0xf17c7f4ff6ea4ee6d8aefd098968f192ad37c02643e18082ce8ace5c2b16df3e",
                    "mixHash" : "0xc8c11a543ca97d1ad46a961153f04f3ac568098bbe08aa6b85169eab5f385bd0",
                    "nonce" : "0xa5b354991e971014",
                    "number" : "0x01",
                    "parentHash" : "0xd895192a20cacfae6b3e6fb32125c7d3a39a67cb353735f4199553dfe28edaf0",
                    "receiptTrie" : "0xe91828b2b2e25c0351786f9fd404695fd27958a869a67b50ff8050f4d4773996",
                    "stateRoot" : "0xa30f733f71a1210ee633c55f58aadd6bba4ea666f951517f36a431fa523f8141",
                    "timestamp" : "0x03e8",
                    "transactionsTrie" : "0x414170b02f9713807dd6c97babba184f8a9df9be36b7f9f52d3999b86856dc9c",
                    "uncleHash" : "0x1dcc4de8dec75d7aab85b567b6ccd41ad312451b948a7413f0a142fd40d49347"
                },
                "rlp" : "0xf9025ef901f7a0d895192a20cacfae6b3e6fb32125c7d3a39a67cb353735f4199553dfe28edaf0a01dcc4de8dec75d7aab85b567b6ccd41ad312451b948a7413f0a142fd40d49347942adf5374fce5edbc8e2a8697c15331677e6ebf0ba0a30f733f71a1210ee633c55f58aadd6bba4ea666f951517f36a431fa523f8141a0414170b02f9713807dd6c97babba184f8a9df9be36b7f9f52d3999b86856dc9ca0e91828b2b2e25c0351786f9fd404695fd27958a869a67b50ff8050f4d4773996b9010000000000000000000000000000000000000000000000000000000000000000000000000000000000000000000000000000000000000000000000000000000000000000000000000000000000000000000000000000000000000000000000000000000000000000000000000000000000000000000000000000000000000000000000000000000000000000000000000000000000000000000000000000000000000000000000000000000000000000000000000000000000000000000000000000000000000000000000000000000000000000000000000000000000000000000000000000000000000000000000000000000000000000000000000000000000830200000183035b6082ba978203e880a0c8c11a543ca97d1ad46a961153f04f3ac568098bbe08aa6b85169eab5f385bd088a5b354991e971014f861f85f8001830249f094b94f5374fce5edbc8e2a8697c15331677e6ebf0b0a801ca0cc06b2a23b9e06e523e58aee975ac7bfcba2b4572301bf38097e40d35c56ed9f9f7e5b3848522c5a56111df734596e1cf1e719df3b4b7400fc94028efdcc8482c0",
                "transactions" : [
                    {
                        "data" : "",
                        "gasLimit" : "0x0249f0",
                        "gasPrice" : "0x01",
                        "nonce" : "0x00",
                        "r" : "0xcc06b2a23b9e06e523e58aee975ac7bfcba2b4572301bf38097e40d35c56ed9f",
                        "s" : "0x7e5b3848522c5a56111df734596e1cf1e719df3b4b7400fc94028efdcc8482",
                        "to" : "0xb94f5374fce5edbc8e2a8697c15331677e6ebf0b",
                        "v" : "0x1c",
                        "value" : "0x0a"
                    }
                ],
                "uncleHeaders" : [
                ]
            }
        ],
        "genesisBlockHeader" : {
            "bloom" : "0x00000000000000000000000000000000000000000000000000000000000000000000000000000000000000000000000000000000000000000000000000000000000000000000000000000000000000000000000000000000000000000000000000000000000000000000000000000000000000000000000000000000000000000000000000000000000000000000000000000000000000000000000000000000000000000000000000000000000000000000000000000000000000000000000000000000000000000000000000000000000000000000000000000000000000000000000000000000000000000000000000000000000000000000000000000000",
            "coinbase" : "0x2adf5374fce5edbc8e2a8697c15331677e6ebf0b",
            "difficulty" : "0x020000",
            "extraData" : "0x42",
            "gasLimit" : "0x035b60",
            "gasUsed" : "0x00",
            "hash" : "0xd895192a20cacfae6b3e6fb32125c7d3a39a67cb353735f4199553dfe28edaf0",
            "mixHash" : "0x56e81f171bcc55a6ff8345e692c0f86e5b48e01b996cadc001622fb5e363b421",
            "nonce" : "0x0102030405060708",
            "number" : "0x00",
            "parentHash" : "0x0000000000000000000000000000000000000000000000000000000000000000",
            "receiptTrie" : "0x56e81f171bcc55a6ff8345e692c0f86e5b48e01b996cadc001622fb5e363b421",
            "stateRoot" : "0x8067ae4e6ecf3be140b56f07720113015d55154e45a44ecc290669b357299bfd",
            "timestamp" : "0x03b6",
            "transactionsTrie" : "0x56e81f171bcc55a6ff8345e692c0f86e5b48e01b996cadc001622fb5e363b421",
            "uncleHash" : "0x1dcc4de8dec75d7aab85b567b6ccd41ad312451b948a7413f0a142fd40d49347"
        },
        "genesisRLP" : "0xf901faf901f5a00000000000000000000000000000000000000000000000000000000000000000a01dcc4de8dec75d7aab85b567b6ccd41ad312451b948a7413f0a142fd40d49347942adf5374fce5edbc8e2a8697c15331677e6ebf0ba08067ae4e6ecf3be140b56f07720113015d55154e45a44ecc290669b357299bfda056e81f171bcc55a6ff8345e692c0f86e5b48e01b996cadc001622fb5e363b421a056e81f171bcc55a6ff8345e692c0f86e5b48e01b996cadc001622fb5e363b421b9010000000000000000000000000000000000000000000000000000000000000000000000000000000000000000000000000000000000000000000000000000000000000000000000000000000000000000000000000000000000000000000000000000000000000000000000000000000000000000000000000000000000000000000000000000000000000000000000000000000000000000000000000000000000000000000000000000000000000000000000000000000000000000000000000000000000000000000000000000000000000000000000000000000000000000000000000000000000000000000000000000000000000000000000000000000000830200008083035b60808203b642a056e81f171bcc55a6ff8345e692c0f86e5b48e01b996cadc001622fb5e363b421880102030405060708c0c0",
        "lastblockhash" : "0xf17c7f4ff6ea4ee6d8aefd098968f192ad37c02643e18082ce8ace5c2b16df3e",
        "network" : "Homestead",
        "postState" : {
            "0x2adf5374fce5edbc8e2a8697c15331677e6ebf0b" : {
                "balance" : "0x4563918244f4ba97",
                "code" : "",
                "nonce" : "0x00",
                "storage" : {
                }
            },
            "0xa94f5374fce5edbc8e2a8697c15331677e6ebf0b" : {
                "balance" : "0x0e879f",
                "code" : "",
                "nonce" : "0x01",
                "storage" : {
                }
            },
            "0xb94f5374fce5edbc8e2a8697c15331677e6ebf0b" : {
                "balance" : "0x09",
                "code" : "0x6000600060006000600173c94f5374fce5edbc8e2a8697c15331677e6ebf0b6161a8f1",
                "nonce" : "0x00",
                "storage" : {
                }
            },
            "0xc94f5374fce5edbc8e2a8697c15331677e6ebf0b" : {
                "balance" : "0x01",
                "code" : "0x6037600155",
                "nonce" : "0x00",
                "storage" : {
                    "0x01" : "0x37"
                }
            }
        },
        "pre" : {
            "0xa94f5374fce5edbc8e2a8697c15331677e6ebf0b" : {
                "balance" : "0x0f4240",
                "code" : "",
                "nonce" : "0x00",
                "storage" : {
                }
            },
            "0xb94f5374fce5edbc8e2a8697c15331677e6ebf0b" : {
                "balance" : "0x00",
                "code" : "0x6000600060006000600173c94f5374fce5edbc8e2a8697c15331677e6ebf0b6161a8f1",
                "nonce" : "0x00",
                "storage" : {
                }
            },
            "0xc94f5374fce5edbc8e2a8697c15331677e6ebf0b" : {
                "balance" : "0x00",
                "code" : "0x6037600155",
                "nonce" : "0x00",
                "storage" : {
                }
            }
        }
    }
}