{
    "InternalCallHittingGasLimit2_d0g0v0_Byzantium" : {
        "_info" : {
            "comment" : "",
            "filledwith" : "cpp-1.3.0+commit.6e0ce939.Linux.g++",
            "lllcversion" : "Version: 0.4.18-develop.2017.9.25+commit.a72237f2.Linux.g++",
            "source" : "src/BlockchainTestsFiller/GeneralStateTests/stTransactionTest/InternalCallHittingGasLimit2_d0g0v0Filler.json",
            "sourceHash" : "89063d8b60337c736bd1af083f6d50a77e6a7433b3fa6f34289bb79435256d4a"
        },
        "blocks" : [
            {
                "blockHeader" : {
                    "bloom" : "0x00000000000000000000000000000000000000000000000000000000000000000000000000000000000000000000000000000000000000000000000000000000000000000000000000000000000000000000000000000000000000000000000000000000000000000000000000000000000000000000000000000000000000000000000000000000000000000000000000000000000000000000000000000000000000000000000000000000000000000000000000000000000000000000000000000000000000000000000000000000000000000000000000000000000000000000000000000000000000000000000000000000000000000000000000000000",
                    "coinbase" : "0x2adf5374fce5edbc8e2a8697c15331677e6ebf0b",
                    "difficulty" : "0x020000",
                    "extraData" : "",
                    "gasLimit" : "0xba96",
                    "gasUsed" : "0xb98c",
                    "hash" : "0x94be39dc006b7a2fef886a4ddd5c08cd24ba1dc05e1596dfe65df079c3771350",
                    "mixHash" : "0x562eb7548cea0681d02c60d34ac706f3cbbe5397cf66a8b557467b045766b1f5",
                    "nonce" : "0x6429232b3983e7f8",
                    "number" : "0x01",
                    "parentHash" : "0x88cd503fad3a0d8b78143a1903ef8a13e8b2851756b4c8b126bed003ed756382",
                    "receiptTrie" : "0x24fc4628f217491c29d0bb826486dc4907af9dfe1db7740c8e81696f1a718f75",
                    "stateRoot" : "0x2f05358792dcbafae0403b76dd9775f36600d6a2700eb405831e5988d6964e9c",
                    "timestamp" : "0x03e8",
                    "transactionsTrie" : "0x6ae0c2896963e0df5dd0937ab85bea97636aeb7ade44e00dacf1ea55e806a731",
                    "uncleHash" : "0x1dcc4de8dec75d7aab85b567b6ccd41ad312451b948a7413f0a142fd40d49347"
                },
                "rlp" : "0xf9025df901f6a088cd503fad3a0d8b78143a1903ef8a13e8b2851756b4c8b126bed003ed756382a01dcc4de8dec75d7aab85b567b6ccd41ad312451b948a7413f0a142fd40d49347942adf5374fce5edbc8e2a8697c15331677e6ebf0ba02f05358792dcbafae0403b76dd9775f36600d6a2700eb405831e5988d6964e9ca06ae0c2896963e0df5dd0937ab85bea97636aeb7ade44e00dacf1ea55e806a731a024fc4628f217491c29d0bb826486dc4907af9dfe1db7740c8e81696f1a718f75b9010000000000000000000000000000000000000000000000000000000000000000000000000000000000000000000000000000000000000000000000000000000000000000000000000000000000000000000000000000000000000000000000000000000000000000000000000000000000000000000000000000000000000000000000000000000000000000000000000000000000000000000000000000000000000000000000000000000000000000000000000000000000000000000000000000000000000000000000000000000000000000000000000000000000000000000000000000000000000000000000000000000000000000000000000000000000830200000182ba9682b98c8203e880a0562eb7548cea0681d02c60d34ac706f3cbbe5397cf66a8b557467b045766b1f5886429232b3983e7f8f861f85f800182ba9694b94f5374fce5edbc8e2a8697c15331677e6ebf0b0a801ba06c4b0b744d75661ed4b2363c3a76c2c461466d65ae411da8924a1241c40ff455a03918cb4144bef595486e4a1006076026552e8077d858b9b99d3e3d9fc5d8b9a9c0",
                "transactions" : [
                    {
                        "data" : "",
                        "gasLimit" : "0xba96",
                        "gasPrice" : "0x01",
                        "nonce" : "0x00",
                        "r" : "0x6c4b0b744d75661ed4b2363c3a76c2c461466d65ae411da8924a1241c40ff455",
                        "s" : "0x3918cb4144bef595486e4a1006076026552e8077d858b9b99d3e3d9fc5d8b9a9",
                        "to" : "0xb94f5374fce5edbc8e2a8697c15331677e6ebf0b",
                        "v" : "0x1b",
                        "value" : "0x0a"
                    }
                ],
                "uncleHeaders" : [
                ]
            }
        ],
        "genesisBlockHeader" : {
            "bloom" : "0x00000000000000000000000000000000000000000000000000000000000000000000000000000000000000000000000000000000000000000000000000000000000000000000000000000000000000000000000000000000000000000000000000000000000000000000000000000000000000000000000000000000000000000000000000000000000000000000000000000000000000000000000000000000000000000000000000000000000000000000000000000000000000000000000000000000000000000000000000000000000000000000000000000000000000000000000000000000000000000000000000000000000000000000000000000000",
            "coinbase" : "0x2adf5374fce5edbc8e2a8697c15331677e6ebf0b",
            "difficulty" : "0x020000",
            "extraData" : "0x42",
            "gasLimit" : "0xba96",
            "gasUsed" : "0x00",
            "hash" : "0x88cd503fad3a0d8b78143a1903ef8a13e8b2851756b4c8b126bed003ed756382",
            "mixHash" : "0x56e81f171bcc55a6ff8345e692c0f86e5b48e01b996cadc001622fb5e363b421",
            "nonce" : "0x0102030405060708",
            "number" : "0x00",
            "parentHash" : "0x0000000000000000000000000000000000000000000000000000000000000000",
            "receiptTrie" : "0x56e81f171bcc55a6ff8345e692c0f86e5b48e01b996cadc001622fb5e363b421",
            "stateRoot" : "0x8067ae4e6ecf3be140b56f07720113015d55154e45a44ecc290669b357299bfd",
            "timestamp" : "0x03b6",
            "transactionsTrie" : "0x56e81f171bcc55a6ff8345e692c0f86e5b48e01b996cadc001622fb5e363b421",
            "uncleHash" : "0x1dcc4de8dec75d7aab85b567b6ccd41ad312451b948a7413f0a142fd40d49347"
        },
        "genesisRLP" : "0xf901f9f901f4a00000000000000000000000000000000000000000000000000000000000000000a01dcc4de8dec75d7aab85b567b6ccd41ad312451b948a7413f0a142fd40d49347942adf5374fce5edbc8e2a8697c15331677e6ebf0ba08067ae4e6ecf3be140b56f07720113015d55154e45a44ecc290669b357299bfda056e81f171bcc55a6ff8345e692c0f86e5b48e01b996cadc001622fb5e363b421a056e81f171bcc55a6ff8345e692c0f86e5b48e01b996cadc001622fb5e363b421b9010000000000000000000000000000000000000000000000000000000000000000000000000000000000000000000000000000000000000000000000000000000000000000000000000000000000000000000000000000000000000000000000000000000000000000000000000000000000000000000000000000000000000000000000000000000000000000000000000000000000000000000000000000000000000000000000000000000000000000000000000000000000000000000000000000000000000000000000000000000000000000000000000000000000000000000000000000000000000000000000000000000000000000000000000000000000830200008082ba96808203b642a056e81f171bcc55a6ff8345e692c0f86e5b48e01b996cadc001622fb5e363b421880102030405060708c0c0",
        "lastblockhash" : "0x94be39dc006b7a2fef886a4ddd5c08cd24ba1dc05e1596dfe65df079c3771350",
        "network" : "Byzantium",
        "postState" : {
            "0x2adf5374fce5edbc8e2a8697c15331677e6ebf0b" : {
                "balance" : "0x29a2241af62cb98c",
                "code" : "",
                "nonce" : "0x00",
                "storage" : {
                }
            },
            "0xa94f5374fce5edbc8e2a8697c15331677e6ebf0b" : {
                "balance" : "0x0e88aa",
                "code" : "",
                "nonce" : "0x01",
                "storage" : {
                }
            },
            "0xb94f5374fce5edbc8e2a8697c15331677e6ebf0b" : {
                "balance" : "0x0a",
                "code" : "0x6000600060006000600173c94f5374fce5edbc8e2a8697c15331677e6ebf0b6161a8f1",
                "nonce" : "0x00",
                "storage" : {
                }
            },
            "0xc94f5374fce5edbc8e2a8697c15331677e6ebf0b" : {
                "balance" : "0x00",
                "code" : "0x6037600155",
                "nonce" : "0x00",
                "storage" : {
                }
            }
        },
        "pre" : {
            "0xa94f5374fce5edbc8e2a8697c15331677e6ebf0b" : {
                "balance" : "0x0f4240",
                "code" : "",
                "nonce" : "0x00",
                "storage" : {
                }
            },
            "0xb94f5374fce5edbc8e2a8697c15331677e6ebf0b" : {
                "balance" : "0x00",
                "code" : "0x6000600060006000600173c94f5374fce5edbc8e2a8697c15331677e6ebf0b6161a8f1",
                "nonce" : "0x00",
                "storage" : {
                }
            },
            "0xc94f5374fce5edbc8e2a8697c15331677e6ebf0b" : {
                "balance" : "0x00",
                "code" : "0x6037600155",
                "nonce" : "0x00",
                "storage" : {
                }
            }
        }
    },
    "InternalCallHittingGasLimit2_d0g0v0_EIP150" : {
        "_info" : {
            "comment" : "",
            "filledwith" : "cpp-1.3.0+commit.6e0ce939.Linux.g++",
            "lllcversion" : "Version: 0.4.18-develop.2017.9.25+commit.a72237f2.Linux.g++",
            "source" : "src/BlockchainTestsFiller/GeneralStateTests/stTransactionTest/InternalCallHittingGasLimit2_d0g0v0Filler.json",
            "sourceHash" : "89063d8b60337c736bd1af083f6d50a77e6a7433b3fa6f34289bb79435256d4a"
        },
        "blocks" : [
            {
                "blockHeader" : {
                    "bloom" : "0x00000000000000000000000000000000000000000000000000000000000000000000000000000000000000000000000000000000000000000000000000000000000000000000000000000000000000000000000000000000000000000000000000000000000000000000000000000000000000000000000000000000000000000000000000000000000000000000000000000000000000000000000000000000000000000000000000000000000000000000000000000000000000000000000000000000000000000000000000000000000000000000000000000000000000000000000000000000000000000000000000000000000000000000000000000000",
                    "coinbase" : "0x2adf5374fce5edbc8e2a8697c15331677e6ebf0b",
                    "difficulty" : "0x020000",
                    "extraData" : "",
                    "gasLimit" : "0xba96",
                    "gasUsed" : "0xb98c",
                    "hash" : "0x37ba46430257b84e88eec1ceae39aa8a472e956484133bf959a6a5faaca54ec1",
                    "mixHash" : "0x4c2bb443ceea6a6fb2b4168bd1fed2cd2c6d121179aa10bab919877e3e534d69",
                    "nonce" : "0x7d34377bff11628b",
                    "number" : "0x01",
                    "parentHash" : "0x88cd503fad3a0d8b78143a1903ef8a13e8b2851756b4c8b126bed003ed756382",
                    "receiptTrie" : "0x236a1294ef399ffebe35ca648094c91676c1a5ecb13eb259161eefe850b10bcc",
                    "stateRoot" : "0x7860a9737398b6b0f890342c720d732e6144a1fc1a58240aac66003dc3697d47",
                    "timestamp" : "0x03e8",
                    "transactionsTrie" : "0x6ae0c2896963e0df5dd0937ab85bea97636aeb7ade44e00dacf1ea55e806a731",
                    "uncleHash" : "0x1dcc4de8dec75d7aab85b567b6ccd41ad312451b948a7413f0a142fd40d49347"
                },
                "rlp" : "0xf9025df901f6a088cd503fad3a0d8b78143a1903ef8a13e8b2851756b4c8b126bed003ed756382a01dcc4de8dec75d7aab85b567b6ccd41ad312451b948a7413f0a142fd40d49347942adf5374fce5edbc8e2a8697c15331677e6ebf0ba07860a9737398b6b0f890342c720d732e6144a1fc1a58240aac66003dc3697d47a06ae0c2896963e0df5dd0937ab85bea97636aeb7ade44e00dacf1ea55e806a731a0236a1294ef399ffebe35ca648094c91676c1a5ecb13eb259161eefe850b10bccb9010000000000000000000000000000000000000000000000000000000000000000000000000000000000000000000000000000000000000000000000000000000000000000000000000000000000000000000000000000000000000000000000000000000000000000000000000000000000000000000000000000000000000000000000000000000000000000000000000000000000000000000000000000000000000000000000000000000000000000000000000000000000000000000000000000000000000000000000000000000000000000000000000000000000000000000000000000000000000000000000000000000000000000000000000000000000830200000182ba9682b98c8203e880a04c2bb443ceea6a6fb2b4168bd1fed2cd2c6d121179aa10bab919877e3e534d69887d34377bff11628bf861f85f800182ba9694b94f5374fce5edbc8e2a8697c15331677e6ebf0b0a801ba06c4b0b744d75661ed4b2363c3a76c2c461466d65ae411da8924a1241c40ff455a03918cb4144bef595486e4a1006076026552e8077d858b9b99d3e3d9fc5d8b9a9c0",
                "transactions" : [
                    {
                        "data" : "",
                        "gasLimit" : "0xba96",
                        "gasPrice" : "0x01",
                        "nonce" : "0x00",
                        "r" : "0x6c4b0b744d75661ed4b2363c3a76c2c461466d65ae411da8924a1241c40ff455",
                        "s" : "0x3918cb4144bef595486e4a1006076026552e8077d858b9b99d3e3d9fc5d8b9a9",
                        "to" : "0xb94f5374fce5edbc8e2a8697c15331677e6ebf0b",
                        "v" : "0x1b",
                        "value" : "0x0a"
                    }
                ],
                "uncleHeaders" : [
                ]
            }
        ],
        "genesisBlockHeader" : {
            "bloom" : "0x00000000000000000000000000000000000000000000000000000000000000000000000000000000000000000000000000000000000000000000000000000000000000000000000000000000000000000000000000000000000000000000000000000000000000000000000000000000000000000000000000000000000000000000000000000000000000000000000000000000000000000000000000000000000000000000000000000000000000000000000000000000000000000000000000000000000000000000000000000000000000000000000000000000000000000000000000000000000000000000000000000000000000000000000000000000",
            "coinbase" : "0x2adf5374fce5edbc8e2a8697c15331677e6ebf0b",
            "difficulty" : "0x020000",
            "extraData" : "0x42",
            "gasLimit" : "0xba96",
            "gasUsed" : "0x00",
            "hash" : "0x88cd503fad3a0d8b78143a1903ef8a13e8b2851756b4c8b126bed003ed756382",
            "mixHash" : "0x56e81f171bcc55a6ff8345e692c0f86e5b48e01b996cadc001622fb5e363b421",
            "nonce" : "0x0102030405060708",
            "number" : "0x00",
            "parentHash" : "0x0000000000000000000000000000000000000000000000000000000000000000",
            "receiptTrie" : "0x56e81f171bcc55a6ff8345e692c0f86e5b48e01b996cadc001622fb5e363b421",
            "stateRoot" : "0x8067ae4e6ecf3be140b56f07720113015d55154e45a44ecc290669b357299bfd",
            "timestamp" : "0x03b6",
            "transactionsTrie" : "0x56e81f171bcc55a6ff8345e692c0f86e5b48e01b996cadc001622fb5e363b421",
            "uncleHash" : "0x1dcc4de8dec75d7aab85b567b6ccd41ad312451b948a7413f0a142fd40d49347"
        },
        "genesisRLP" : "0xf901f9f901f4a00000000000000000000000000000000000000000000000000000000000000000a01dcc4de8dec75d7aab85b567b6ccd41ad312451b948a7413f0a142fd40d49347942adf5374fce5edbc8e2a8697c15331677e6ebf0ba08067ae4e6ecf3be140b56f07720113015d55154e45a44ecc290669b357299bfda056e81f171bcc55a6ff8345e692c0f86e5b48e01b996cadc001622fb5e363b421a056e81f171bcc55a6ff8345e692c0f86e5b48e01b996cadc001622fb5e363b421b9010000000000000000000000000000000000000000000000000000000000000000000000000000000000000000000000000000000000000000000000000000000000000000000000000000000000000000000000000000000000000000000000000000000000000000000000000000000000000000000000000000000000000000000000000000000000000000000000000000000000000000000000000000000000000000000000000000000000000000000000000000000000000000000000000000000000000000000000000000000000000000000000000000000000000000000000000000000000000000000000000000000000000000000000000000000000830200008082ba96808203b642a056e81f171bcc55a6ff8345e692c0f86e5b48e01b996cadc001622fb5e363b421880102030405060708c0c0",
        "lastblockhash" : "0x37ba46430257b84e88eec1ceae39aa8a472e956484133bf959a6a5faaca54ec1",
        "network" : "EIP150",
        "postState" : {
            "0x2adf5374fce5edbc8e2a8697c15331677e6ebf0b" : {
                "balance" : "0x4563918244f4b98c",
                "code" : "",
                "nonce" : "0x00",
                "storage" : {
                }
            },
            "0xa94f5374fce5edbc8e2a8697c15331677e6ebf0b" : {
                "balance" : "0x0e88aa",
                "code" : "",
                "nonce" : "0x01",
                "storage" : {
                }
            },
            "0xb94f5374fce5edbc8e2a8697c15331677e6ebf0b" : {
                "balance" : "0x0a",
                "code" : "0x6000600060006000600173c94f5374fce5edbc8e2a8697c15331677e6ebf0b6161a8f1",
                "nonce" : "0x00",
                "storage" : {
                }
            },
            "0xc94f5374fce5edbc8e2a8697c15331677e6ebf0b" : {
                "balance" : "0x00",
                "code" : "0x6037600155",
                "nonce" : "0x00",
                "storage" : {
                }
            }
        },
        "pre" : {
            "0xa94f5374fce5edbc8e2a8697c15331677e6ebf0b" : {
                "balance" : "0x0f4240",
                "code" : "",
                "nonce" : "0x00",
                "storage" : {
                }
            },
            "0xb94f5374fce5edbc8e2a8697c15331677e6ebf0b" : {
                "balance" : "0x00",
                "code" : "0x6000600060006000600173c94f5374fce5edbc8e2a8697c15331677e6ebf0b6161a8f1",
                "nonce" : "0x00",
                "storage" : {
                }
            },
            "0xc94f5374fce5edbc8e2a8697c15331677e6ebf0b" : {
                "balance" : "0x00",
                "code" : "0x6037600155",
                "nonce" : "0x00",
                "storage" : {
                }
            }
        }
    },
    "InternalCallHittingGasLimit2_d0g0v0_EIP158" : {
        "_info" : {
            "comment" : "",
            "filledwith" : "cpp-1.3.0+commit.6e0ce939.Linux.g++",
            "lllcversion" : "Version: 0.4.18-develop.2017.9.25+commit.a72237f2.Linux.g++",
            "source" : "src/BlockchainTestsFiller/GeneralStateTests/stTransactionTest/InternalCallHittingGasLimit2_d0g0v0Filler.json",
            "sourceHash" : "89063d8b60337c736bd1af083f6d50a77e6a7433b3fa6f34289bb79435256d4a"
        },
        "blocks" : [
            {
                "blockHeader" : {
                    "bloom" : "0x00000000000000000000000000000000000000000000000000000000000000000000000000000000000000000000000000000000000000000000000000000000000000000000000000000000000000000000000000000000000000000000000000000000000000000000000000000000000000000000000000000000000000000000000000000000000000000000000000000000000000000000000000000000000000000000000000000000000000000000000000000000000000000000000000000000000000000000000000000000000000000000000000000000000000000000000000000000000000000000000000000000000000000000000000000000",
                    "coinbase" : "0x2adf5374fce5edbc8e2a8697c15331677e6ebf0b",
                    "difficulty" : "0x020000",
                    "extraData" : "",
                    "gasLimit" : "0xba96",
                    "gasUsed" : "0xb98c",
                    "hash" : "0x7a367d9b5dde9fcd2278b415faf602bdab0ed16efe2bbfdd58ae8bf87b4e8798",
                    "mixHash" : "0xa3eaa498425756266e6c9545ac473e37f538e269607859a303db4a5c54a0ed68",
                    "nonce" : "0x9bd4e3d5c3d9338b",
                    "number" : "0x01",
                    "parentHash" : "0x88cd503fad3a0d8b78143a1903ef8a13e8b2851756b4c8b126bed003ed756382",
                    "receiptTrie" : "0x236a1294ef399ffebe35ca648094c91676c1a5ecb13eb259161eefe850b10bcc",
                    "stateRoot" : "0x7860a9737398b6b0f890342c720d732e6144a1fc1a58240aac66003dc3697d47",
                    "timestamp" : "0x03e8",
                    "transactionsTrie" : "0x6ae0c2896963e0df5dd0937ab85bea97636aeb7ade44e00dacf1ea55e806a731",
                    "uncleHash" : "0x1dcc4de8dec75d7aab85b567b6ccd41ad312451b948a7413f0a142fd40d49347"
                },
                "rlp" : "0xf9025df901f6a088cd503fad3a0d8b78143a1903ef8a13e8b2851756b4c8b126bed003ed756382a01dcc4de8dec75d7aab85b567b6ccd41ad312451b948a7413f0a142fd40d49347942adf5374fce5edbc8e2a8697c15331677e6ebf0ba07860a9737398b6b0f890342c720d732e6144a1fc1a58240aac66003dc3697d47a06ae0c2896963e0df5dd0937ab85bea97636aeb7ade44e00dacf1ea55e806a731a0236a1294ef399ffebe35ca648094c91676c1a5ecb13eb259161eefe850b10bccb9010000000000000000000000000000000000000000000000000000000000000000000000000000000000000000000000000000000000000000000000000000000000000000000000000000000000000000000000000000000000000000000000000000000000000000000000000000000000000000000000000000000000000000000000000000000000000000000000000000000000000000000000000000000000000000000000000000000000000000000000000000000000000000000000000000000000000000000000000000000000000000000000000000000000000000000000000000000000000000000000000000000000000000000000000000000000830200000182ba9682b98c8203e880a0a3eaa498425756266e6c9545ac473e37f538e269607859a303db4a5c54a0ed68889bd4e3d5c3d9338bf861f85f800182ba9694b94f5374fce5edbc8e2a8697c15331677e6ebf0b0a801ba06c4b0b744d75661ed4b2363c3a76c2c461466d65ae411da8924a1241c40ff455a03918cb4144bef595486e4a1006076026552e8077d858b9b99d3e3d9fc5d8b9a9c0",
                "transactions" : [
                    {
                        "data" : "",
                        "gasLimit" : "0xba96",
                        "gasPrice" : "0x01",
                        "nonce" : "0x00",
                        "r" : "0x6c4b0b744d75661ed4b2363c3a76c2c461466d65ae411da8924a1241c40ff455",
                        "s" : "0x3918cb4144bef595486e4a1006076026552e8077d858b9b99d3e3d9fc5d8b9a9",
                        "to" : "0xb94f5374fce5edbc8e2a8697c15331677e6ebf0b",
                        "v" : "0x1b",
                        "value" : "0x0a"
                    }
                ],
                "uncleHeaders" : [
                ]
            }
        ],
        "genesisBlockHeader" : {
            "bloom" : "0x00000000000000000000000000000000000000000000000000000000000000000000000000000000000000000000000000000000000000000000000000000000000000000000000000000000000000000000000000000000000000000000000000000000000000000000000000000000000000000000000000000000000000000000000000000000000000000000000000000000000000000000000000000000000000000000000000000000000000000000000000000000000000000000000000000000000000000000000000000000000000000000000000000000000000000000000000000000000000000000000000000000000000000000000000000000",
            "coinbase" : "0x2adf5374fce5edbc8e2a8697c15331677e6ebf0b",
            "difficulty" : "0x020000",
            "extraData" : "0x42",
            "gasLimit" : "0xba96",
            "gasUsed" : "0x00",
            "hash" : "0x88cd503fad3a0d8b78143a1903ef8a13e8b2851756b4c8b126bed003ed756382",
            "mixHash" : "0x56e81f171bcc55a6ff8345e692c0f86e5b48e01b996cadc001622fb5e363b421",
            "nonce" : "0x0102030405060708",
            "number" : "0x00",
            "parentHash" : "0x0000000000000000000000000000000000000000000000000000000000000000",
            "receiptTrie" : "0x56e81f171bcc55a6ff8345e692c0f86e5b48e01b996cadc001622fb5e363b421",
            "stateRoot" : "0x8067ae4e6ecf3be140b56f07720113015d55154e45a44ecc290669b357299bfd",
            "timestamp" : "0x03b6",
            "transactionsTrie" : "0x56e81f171bcc55a6ff8345e692c0f86e5b48e01b996cadc001622fb5e363b421",
            "uncleHash" : "0x1dcc4de8dec75d7aab85b567b6ccd41ad312451b948a7413f0a142fd40d49347"
        },
        "genesisRLP" : "0xf901f9f901f4a00000000000000000000000000000000000000000000000000000000000000000a01dcc4de8dec75d7aab85b567b6ccd41ad312451b948a7413f0a142fd40d49347942adf5374fce5edbc8e2a8697c15331677e6ebf0ba08067ae4e6ecf3be140b56f07720113015d55154e45a44ecc290669b357299bfda056e81f171bcc55a6ff8345e692c0f86e5b48e01b996cadc001622fb5e363b421a056e81f171bcc55a6ff8345e692c0f86e5b48e01b996cadc001622fb5e363b421b9010000000000000000000000000000000000000000000000000000000000000000000000000000000000000000000000000000000000000000000000000000000000000000000000000000000000000000000000000000000000000000000000000000000000000000000000000000000000000000000000000000000000000000000000000000000000000000000000000000000000000000000000000000000000000000000000000000000000000000000000000000000000000000000000000000000000000000000000000000000000000000000000000000000000000000000000000000000000000000000000000000000000000000000000000000000000830200008082ba96808203b642a056e81f171bcc55a6ff8345e692c0f86e5b48e01b996cadc001622fb5e363b421880102030405060708c0c0",
        "lastblockhash" : "0x7a367d9b5dde9fcd2278b415faf602bdab0ed16efe2bbfdd58ae8bf87b4e8798",
        "network" : "EIP158",
        "postState" : {
            "0x2adf5374fce5edbc8e2a8697c15331677e6ebf0b" : {
                "balance" : "0x4563918244f4b98c",
                "code" : "",
                "nonce" : "0x00",
                "storage" : {
                }
            },
            "0xa94f5374fce5edbc8e2a8697c15331677e6ebf0b" : {
                "balance" : "0x0e88aa",
                "code" : "",
                "nonce" : "0x01",
                "storage" : {
                }
            },
            "0xb94f5374fce5edbc8e2a8697c15331677e6ebf0b" : {
                "balance" : "0x0a",
                "code" : "0x6000600060006000600173c94f5374fce5edbc8e2a8697c15331677e6ebf0b6161a8f1",
                "nonce" : "0x00",
                "storage" : {
                }
            },
            "0xc94f5374fce5edbc8e2a8697c15331677e6ebf0b" : {
                "balance" : "0x00",
                "code" : "0x6037600155",
                "nonce" : "0x00",
                "storage" : {
                }
            }
        },
        "pre" : {
            "0xa94f5374fce5edbc8e2a8697c15331677e6ebf0b" : {
                "balance" : "0x0f4240",
                "code" : "",
                "nonce" : "0x00",
                "storage" : {
                }
            },
            "0xb94f5374fce5edbc8e2a8697c15331677e6ebf0b" : {
                "balance" : "0x00",
                "code" : "0x6000600060006000600173c94f5374fce5edbc8e2a8697c15331677e6ebf0b6161a8f1",
                "nonce" : "0x00",
                "storage" : {
                }
            },
            "0xc94f5374fce5edbc8e2a8697c15331677e6ebf0b" : {
                "balance" : "0x00",
                "code" : "0x6037600155",
                "nonce" : "0x00",
                "storage" : {
                }
            }
        }
    },
    "InternalCallHittingGasLimit2_d0g0v0_Frontier" : {
        "_info" : {
            "comment" : "",
            "filledwith" : "cpp-1.3.0+commit.6e0ce939.Linux.g++",
            "lllcversion" : "Version: 0.4.18-develop.2017.9.25+commit.a72237f2.Linux.g++",
            "source" : "src/BlockchainTestsFiller/GeneralStateTests/stTransactionTest/InternalCallHittingGasLimit2_d0g0v0Filler.json",
            "sourceHash" : "89063d8b60337c736bd1af083f6d50a77e6a7433b3fa6f34289bb79435256d4a"
        },
        "blocks" : [
            {
                "blockHeader" : {
                    "bloom" : "0x00000000000000000000000000000000000000000000000000000000000000000000000000000000000000000000000000000000000000000000000000000000000000000000000000000000000000000000000000000000000000000000000000000000000000000000000000000000000000000000000000000000000000000000000000000000000000000000000000000000000000000000000000000000000000000000000000000000000000000000000000000000000000000000000000000000000000000000000000000000000000000000000000000000000000000000000000000000000000000000000000000000000000000000000000000000",
                    "coinbase" : "0x2adf5374fce5edbc8e2a8697c15331677e6ebf0b",
                    "difficulty" : "0x020000",
                    "extraData" : "",
                    "gasLimit" : "0xba96",
                    "gasUsed" : "0xba96",
                    "hash" : "0xf79b2a5dd698c941fbc0f04642f937a7c000df62b949ba6b49682229ded8c7f2",
                    "mixHash" : "0x48115c7df8d81039ba23fcdf1d0580f45212a72d44104cc4d67cda9a4bd1345b",
                    "nonce" : "0x3db37e00f44e7284",
                    "number" : "0x01",
                    "parentHash" : "0x88cd503fad3a0d8b78143a1903ef8a13e8b2851756b4c8b126bed003ed756382",
                    "receiptTrie" : "0x755bf28d5eb58d16e4a5987b14fdedd78a01a2807115b957b20178203aa3d7a1",
                    "stateRoot" : "0x69edbc86d9a69aa2e61b2accc5c5d805f681b702457630e4d19991cc6c198419",
                    "timestamp" : "0x03e8",
                    "transactionsTrie" : "0x6ae0c2896963e0df5dd0937ab85bea97636aeb7ade44e00dacf1ea55e806a731",
                    "uncleHash" : "0x1dcc4de8dec75d7aab85b567b6ccd41ad312451b948a7413f0a142fd40d49347"
                },
                "rlp" : "0xf9025df901f6a088cd503fad3a0d8b78143a1903ef8a13e8b2851756b4c8b126bed003ed756382a01dcc4de8dec75d7aab85b567b6ccd41ad312451b948a7413f0a142fd40d49347942adf5374fce5edbc8e2a8697c15331677e6ebf0ba069edbc86d9a69aa2e61b2accc5c5d805f681b702457630e4d19991cc6c198419a06ae0c2896963e0df5dd0937ab85bea97636aeb7ade44e00dacf1ea55e806a731a0755bf28d5eb58d16e4a5987b14fdedd78a01a2807115b957b20178203aa3d7a1b9010000000000000000000000000000000000000000000000000000000000000000000000000000000000000000000000000000000000000000000000000000000000000000000000000000000000000000000000000000000000000000000000000000000000000000000000000000000000000000000000000000000000000000000000000000000000000000000000000000000000000000000000000000000000000000000000000000000000000000000000000000000000000000000000000000000000000000000000000000000000000000000000000000000000000000000000000000000000000000000000000000000000000000000000000000000000830200000182ba9682ba968203e880a048115c7df8d81039ba23fcdf1d0580f45212a72d44104cc4d67cda9a4bd1345b883db37e00f44e7284f861f85f800182ba9694b94f5374fce5edbc8e2a8697c15331677e6ebf0b0a801ba06c4b0b744d75661ed4b2363c3a76c2c461466d65ae411da8924a1241c40ff455a03918cb4144bef595486e4a1006076026552e8077d858b9b99d3e3d9fc5d8b9a9c0",
                "transactions" : [
                    {
                        "data" : "",
                        "gasLimit" : "0xba96",
                        "gasPrice" : "0x01",
                        "nonce" : "0x00",
                        "r" : "0x6c4b0b744d75661ed4b2363c3a76c2c461466d65ae411da8924a1241c40ff455",
                        "s" : "0x3918cb4144bef595486e4a1006076026552e8077d858b9b99d3e3d9fc5d8b9a9",
                        "to" : "0xb94f5374fce5edbc8e2a8697c15331677e6ebf0b",
                        "v" : "0x1b",
                        "value" : "0x0a"
                    }
                ],
                "uncleHeaders" : [
                ]
            }
        ],
        "genesisBlockHeader" : {
            "bloom" : "0x00000000000000000000000000000000000000000000000000000000000000000000000000000000000000000000000000000000000000000000000000000000000000000000000000000000000000000000000000000000000000000000000000000000000000000000000000000000000000000000000000000000000000000000000000000000000000000000000000000000000000000000000000000000000000000000000000000000000000000000000000000000000000000000000000000000000000000000000000000000000000000000000000000000000000000000000000000000000000000000000000000000000000000000000000000000",
            "coinbase" : "0x2adf5374fce5edbc8e2a8697c15331677e6ebf0b",
            "difficulty" : "0x020000",
            "extraData" : "0x42",
            "gasLimit" : "0xba96",
            "gasUsed" : "0x00",
            "hash" : "0x88cd503fad3a0d8b78143a1903ef8a13e8b2851756b4c8b126bed003ed756382",
            "mixHash" : "0x56e81f171bcc55a6ff8345e692c0f86e5b48e01b996cadc001622fb5e363b421",
            "nonce" : "0x0102030405060708",
            "number" : "0x00",
            "parentHash" : "0x0000000000000000000000000000000000000000000000000000000000000000",
            "receiptTrie" : "0x56e81f171bcc55a6ff8345e692c0f86e5b48e01b996cadc001622fb5e363b421",
            "stateRoot" : "0x8067ae4e6ecf3be140b56f07720113015d55154e45a44ecc290669b357299bfd",
            "timestamp" : "0x03b6",
            "transactionsTrie" : "0x56e81f171bcc55a6ff8345e692c0f86e5b48e01b996cadc001622fb5e363b421",
            "uncleHash" : "0x1dcc4de8dec75d7aab85b567b6ccd41ad312451b948a7413f0a142fd40d49347"
        },
        "genesisRLP" : "0xf901f9f901f4a00000000000000000000000000000000000000000000000000000000000000000a01dcc4de8dec75d7aab85b567b6ccd41ad312451b948a7413f0a142fd40d49347942adf5374fce5edbc8e2a8697c15331677e6ebf0ba08067ae4e6ecf3be140b56f07720113015d55154e45a44ecc290669b357299bfda056e81f171bcc55a6ff8345e692c0f86e5b48e01b996cadc001622fb5e363b421a056e81f171bcc55a6ff8345e692c0f86e5b48e01b996cadc001622fb5e363b421b9010000000000000000000000000000000000000000000000000000000000000000000000000000000000000000000000000000000000000000000000000000000000000000000000000000000000000000000000000000000000000000000000000000000000000000000000000000000000000000000000000000000000000000000000000000000000000000000000000000000000000000000000000000000000000000000000000000000000000000000000000000000000000000000000000000000000000000000000000000000000000000000000000000000000000000000000000000000000000000000000000000000000000000000000000000000000830200008082ba96808203b642a056e81f171bcc55a6ff8345e692c0f86e5b48e01b996cadc001622fb5e363b421880102030405060708c0c0",
        "lastblockhash" : "0xf79b2a5dd698c941fbc0f04642f937a7c000df62b949ba6b49682229ded8c7f2",
        "network" : "Frontier",
        "postState" : {
            "0x2adf5374fce5edbc8e2a8697c15331677e6ebf0b" : {
                "balance" : "0x4563918244f4ba96",
                "code" : "",
                "nonce" : "0x00",
                "storage" : {
                }
            },
            "0xa94f5374fce5edbc8e2a8697c15331677e6ebf0b" : {
                "balance" : "0x0e87aa",
                "code" : "",
                "nonce" : "0x01",
                "storage" : {
                }
            },
            "0xb94f5374fce5edbc8e2a8697c15331677e6ebf0b" : {
                "balance" : "0x00",
                "code" : "0x6000600060006000600173c94f5374fce5edbc8e2a8697c15331677e6ebf0b6161a8f1",
                "nonce" : "0x00",
                "storage" : {
                }
            },
            "0xc94f5374fce5edbc8e2a8697c15331677e6ebf0b" : {
                "balance" : "0x00",
                "code" : "0x6037600155",
                "nonce" : "0x00",
                "storage" : {
                }
            }
        },
        "pre" : {
            "0xa94f5374fce5edbc8e2a8697c15331677e6ebf0b" : {
                "balance" : "0x0f4240",
                "code" : "",
                "nonce" : "0x00",
                "storage" : {
                }
            },
            "0xb94f5374fce5edbc8e2a8697c15331677e6ebf0b" : {
                "balance" : "0x00",
                "code" : "0x6000600060006000600173c94f5374fce5edbc8e2a8697c15331677e6ebf0b6161a8f1",
                "nonce" : "0x00",
                "storage" : {
                }
            },
            "0xc94f5374fce5edbc8e2a8697c15331677e6ebf0b" : {
                "balance" : "0x00",
                "code" : "0x6037600155",
                "nonce" : "0x00",
                "storage" : {
                }
            }
        }
    },
    "InternalCallHittingGasLimit2_d0g0v0_Homestead" : {
        "_info" : {
            "comment" : "",
            "filledwith" : "cpp-1.3.0+commit.6e0ce939.Linux.g++",
            "lllcversion" : "Version: 0.4.18-develop.2017.9.25+commit.a72237f2.Linux.g++",
            "source" : "src/BlockchainTestsFiller/GeneralStateTests/stTransactionTest/InternalCallHittingGasLimit2_d0g0v0Filler.json",
            "sourceHash" : "89063d8b60337c736bd1af083f6d50a77e6a7433b3fa6f34289bb79435256d4a"
        },
        "blocks" : [
            {
                "blockHeader" : {
                    "bloom" : "0x00000000000000000000000000000000000000000000000000000000000000000000000000000000000000000000000000000000000000000000000000000000000000000000000000000000000000000000000000000000000000000000000000000000000000000000000000000000000000000000000000000000000000000000000000000000000000000000000000000000000000000000000000000000000000000000000000000000000000000000000000000000000000000000000000000000000000000000000000000000000000000000000000000000000000000000000000000000000000000000000000000000000000000000000000000000",
                    "coinbase" : "0x2adf5374fce5edbc8e2a8697c15331677e6ebf0b",
                    "difficulty" : "0x020000",
                    "extraData" : "",
                    "gasLimit" : "0xba96",
                    "gasUsed" : "0xba96",
                    "hash" : "0x9e77d47c99ba1ba638630ce3e260d172bf23c40760e472d9423694f87b25b938",
                    "mixHash" : "0x971a1491e312b19d313a69d9e2d87e9fd0efdb8a2d644b67380705ff553cdd4c",
                    "nonce" : "0x974c6513ac9f3a63",
                    "number" : "0x01",
                    "parentHash" : "0x88cd503fad3a0d8b78143a1903ef8a13e8b2851756b4c8b126bed003ed756382",
                    "receiptTrie" : "0x755bf28d5eb58d16e4a5987b14fdedd78a01a2807115b957b20178203aa3d7a1",
                    "stateRoot" : "0x69edbc86d9a69aa2e61b2accc5c5d805f681b702457630e4d19991cc6c198419",
                    "timestamp" : "0x03e8",
                    "transactionsTrie" : "0x6ae0c2896963e0df5dd0937ab85bea97636aeb7ade44e00dacf1ea55e806a731",
                    "uncleHash" : "0x1dcc4de8dec75d7aab85b567b6ccd41ad312451b948a7413f0a142fd40d49347"
                },
                "rlp" : "0xf9025df901f6a088cd503fad3a0d8b78143a1903ef8a13e8b2851756b4c8b126bed003ed756382a01dcc4de8dec75d7aab85b567b6ccd41ad312451b948a7413f0a142fd40d49347942adf5374fce5edbc8e2a8697c15331677e6ebf0ba069edbc86d9a69aa2e61b2accc5c5d805f681b702457630e4d19991cc6c198419a06ae0c2896963e0df5dd0937ab85bea97636aeb7ade44e00dacf1ea55e806a731a0755bf28d5eb58d16e4a5987b14fdedd78a01a2807115b957b20178203aa3d7a1b9010000000000000000000000000000000000000000000000000000000000000000000000000000000000000000000000000000000000000000000000000000000000000000000000000000000000000000000000000000000000000000000000000000000000000000000000000000000000000000000000000000000000000000000000000000000000000000000000000000000000000000000000000000000000000000000000000000000000000000000000000000000000000000000000000000000000000000000000000000000000000000000000000000000000000000000000000000000000000000000000000000000000000000000000000000000000830200000182ba9682ba968203e880a0971a1491e312b19d313a69d9e2d87e9fd0efdb8a2d644b67380705ff553cdd4c88974c6513ac9f3a63f861f85f800182ba9694b94f5374fce5edbc8e2a8697c15331677e6ebf0b0a801ba06c4b0b744d75661ed4b2363c3a76c2c461466d65ae411da8924a1241c40ff455a03918cb4144bef595486e4a1006076026552e8077d858b9b99d3e3d9fc5d8b9a9c0",
                "transactions" : [
                    {
                        "data" : "",
                        "gasLimit" : "0xba96",
                        "gasPrice" : "0x01",
                        "nonce" : "0x00",
                        "r" : "0x6c4b0b744d75661ed4b2363c3a76c2c461466d65ae411da8924a1241c40ff455",
                        "s" : "0x3918cb4144bef595486e4a1006076026552e8077d858b9b99d3e3d9fc5d8b9a9",
                        "to" : "0xb94f5374fce5edbc8e2a8697c15331677e6ebf0b",
                        "v" : "0x1b",
                        "value" : "0x0a"
                    }
                ],
                "uncleHeaders" : [
                ]
            }
        ],
        "genesisBlockHeader" : {
            "bloom" : "0x00000000000000000000000000000000000000000000000000000000000000000000000000000000000000000000000000000000000000000000000000000000000000000000000000000000000000000000000000000000000000000000000000000000000000000000000000000000000000000000000000000000000000000000000000000000000000000000000000000000000000000000000000000000000000000000000000000000000000000000000000000000000000000000000000000000000000000000000000000000000000000000000000000000000000000000000000000000000000000000000000000000000000000000000000000000",
            "coinbase" : "0x2adf5374fce5edbc8e2a8697c15331677e6ebf0b",
            "difficulty" : "0x020000",
            "extraData" : "0x42",
            "gasLimit" : "0xba96",
            "gasUsed" : "0x00",
            "hash" : "0x88cd503fad3a0d8b78143a1903ef8a13e8b2851756b4c8b126bed003ed756382",
            "mixHash" : "0x56e81f171bcc55a6ff8345e692c0f86e5b48e01b996cadc001622fb5e363b421",
            "nonce" : "0x0102030405060708",
            "number" : "0x00",
            "parentHash" : "0x0000000000000000000000000000000000000000000000000000000000000000",
            "receiptTrie" : "0x56e81f171bcc55a6ff8345e692c0f86e5b48e01b996cadc001622fb5e363b421",
            "stateRoot" : "0x8067ae4e6ecf3be140b56f07720113015d55154e45a44ecc290669b357299bfd",
            "timestamp" : "0x03b6",
            "transactionsTrie" : "0x56e81f171bcc55a6ff8345e692c0f86e5b48e01b996cadc001622fb5e363b421",
            "uncleHash" : "0x1dcc4de8dec75d7aab85b567b6ccd41ad312451b948a7413f0a142fd40d49347"
        },
        "genesisRLP" : "0xf901f9f901f4a00000000000000000000000000000000000000000000000000000000000000000a01dcc4de8dec75d7aab85b567b6ccd41ad312451b948a7413f0a142fd40d49347942adf5374fce5edbc8e2a8697c15331677e6ebf0ba08067ae4e6ecf3be140b56f07720113015d55154e45a44ecc290669b357299bfda056e81f171bcc55a6ff8345e692c0f86e5b48e01b996cadc001622fb5e363b421a056e81f171bcc55a6ff8345e692c0f86e5b48e01b996cadc001622fb5e363b421b9010000000000000000000000000000000000000000000000000000000000000000000000000000000000000000000000000000000000000000000000000000000000000000000000000000000000000000000000000000000000000000000000000000000000000000000000000000000000000000000000000000000000000000000000000000000000000000000000000000000000000000000000000000000000000000000000000000000000000000000000000000000000000000000000000000000000000000000000000000000000000000000000000000000000000000000000000000000000000000000000000000000000000000000000000000000000830200008082ba96808203b642a056e81f171bcc55a6ff8345e692c0f86e5b48e01b996cadc001622fb5e363b421880102030405060708c0c0",
        "lastblockhash" : "0x9e77d47c99ba1ba638630ce3e260d172bf23c40760e472d9423694f87b25b938",
        "network" : "Homestead",
        "postState" : {
            "0x2adf5374fce5edbc8e2a8697c15331677e6ebf0b" : {
                "balance" : "0x4563918244f4ba96",
                "code" : "",
                "nonce" : "0x00",
                "storage" : {
                }
            },
            "0xa94f5374fce5edbc8e2a8697c15331677e6ebf0b" : {
                "balance" : "0x0e87aa",
                "code" : "",
                "nonce" : "0x01",
                "storage" : {
                }
            },
            "0xb94f5374fce5edbc8e2a8697c15331677e6ebf0b" : {
                "balance" : "0x00",
                "code" : "0x6000600060006000600173c94f5374fce5edbc8e2a8697c15331677e6ebf0b6161a8f1",
                "nonce" : "0x00",
                "storage" : {
                }
            },
            "0xc94f5374fce5edbc8e2a8697c15331677e6ebf0b" : {
                "balance" : "0x00",
                "code" : "0x6037600155",
                "nonce" : "0x00",
                "storage" : {
                }
            }
        },
        "pre" : {
            "0xa94f5374fce5edbc8e2a8697c15331677e6ebf0b" : {
                "balance" : "0x0f4240",
                "code" : "",
                "nonce" : "0x00",
                "storage" : {
                }
            },
            "0xb94f5374fce5edbc8e2a8697c15331677e6ebf0b" : {
                "balance" : "0x00",
                "code" : "0x6000600060006000600173c94f5374fce5edbc8e2a8697c15331677e6ebf0b6161a8f1",
                "nonce" : "0x00",
                "storage" : {
                }
            },
            "0xc94f5374fce5edbc8e2a8697c15331677e6ebf0b" : {
                "balance" : "0x00",
                "code" : "0x6037600155",
                "nonce" : "0x00",
                "storage" : {
                }
            }
        }
    }
}