{
    "Opcodes_TransactionInit_d13g0v0_Byzantium" : {
        "_info" : {
            "comment" : "",
            "filledwith" : "cpp-1.3.0+commit.6e0ce939.Linux.g++",
            "lllcversion" : "Version: 0.4.18-develop.2017.9.25+commit.a72237f2.Linux.g++",
            "source" : "src/BlockchainTestsFiller/GeneralStateTests/stTransactionTest/Opcodes_TransactionInit_d13g0v0Filler.json",
            "sourceHash" : "cddf5d472debe5cda0f0e93adecf5a5c0c3e122cbc834a0ea61d4a724a6405ad"
        },
        "blocks" : [
            {
                "blockHeader" : {
                    "bloom" : "0x00000000000000000000000000000000000000000000000000000000000000000000000000000000000000000000000000000000000000000000000000000000000000000000000000000000000000000000000000000000000000000000000000000000000000000000000000000000000000000000000000000000000000000000000000000000000000000000000000000000000000000000000000000000000000000000000000000000000000000000000000000000000000000000000000000000000000000000000000000000000000000000000000000000000000000000000000000000000000000000000000000000000000000000000000000000",
                    "coinbase" : "0x2adc25665018aa1fe0e6bc666dac8fc2697ff9ba",
                    "difficulty" : "0x020000",
                    "extraData" : "",
                    "gasLimit" : "0x0f4240",
                    "gasUsed" : "0xd185",
                    "hash" : "0xfb08df41f138227e072e79c1b779890994e76f6e92587550dbf6c7ac55510040",
                    "mixHash" : "0x0acd0419db0483a0dd1277b8904e164f5c0d86247507a7b0dba2a881f033b142",
                    "nonce" : "0xb03ff3023ad2ba40",
                    "number" : "0x01",
                    "parentHash" : "0xa9b003c176d2037cf7095f0b73892729cba523a7b887ad67d3c517ed26b9e31b",
                    "receiptTrie" : "0x0a0951d7facdd778cc421466d75f114439fefa71fd6abc8245d781cc735ea937",
                    "stateRoot" : "0x42132779e8226ddbb3196a370c2c26dd48d1526f91ca11676dc423ed5f42f51e",
                    "timestamp" : "0x03e8",
                    "transactionsTrie" : "0xd06619475acc821b4af0ee894d887d8ecebb86f4e9398af7181d70a11c9a9999",
                    "uncleHash" : "0x1dcc4de8dec75d7aab85b567b6ccd41ad312451b948a7413f0a142fd40d49347"
                },
                "rlp" : "0xf90259f901f7a0a9b003c176d2037cf7095f0b73892729cba523a7b887ad67d3c517ed26b9e31ba01dcc4de8dec75d7aab85b567b6ccd41ad312451b948a7413f0a142fd40d49347942adc25665018aa1fe0e6bc666dac8fc2697ff9baa042132779e8226ddbb3196a370c2c26dd48d1526f91ca11676dc423ed5f42f51ea0d06619475acc821b4af0ee894d887d8ecebb86f4e9398af7181d70a11c9a9999a00a0951d7facdd778cc421466d75f114439fefa71fd6abc8245d781cc735ea937b90100000000000000000000000000000000000000000000000000000000000000000000000000000000000000000000000000000000000000000000000000000000000000000000000000000000000000000000000000000000000000000000000000000000000000000000000000000000000000000000000000000000000000000000000000000000000000000000000000000000000000000000000000000000000000000000000000000000000000000000000000000000000000000000000000000000000000000000000000000000000000000000000000000000000000000000000000000000000000000000000000000000000000000000000000000000008302000001830f424082d1858203e880a00acd0419db0483a0dd1277b8904e164f5c0d86247507a7b0dba2a881f033b14288b03ff3023ad2ba40f85cf85a800183061a8080830186a08b60016001115060006000f31ca0ada6acf10d051f208ecd48ff77019c5ee2053819e4b28c118f569fdf44a781dda03f69ab285f41b1f98dedbedea6806f13860288cf0fa8353c1f053042fedb3defc0",
                "transactions" : [
                    {
                        "data" : "0x60016001115060006000f3",
                        "gasLimit" : "0x061a80",
                        "gasPrice" : "0x01",
                        "nonce" : "0x00",
                        "r" : "0xada6acf10d051f208ecd48ff77019c5ee2053819e4b28c118f569fdf44a781dd",
                        "s" : "0x3f69ab285f41b1f98dedbedea6806f13860288cf0fa8353c1f053042fedb3def",
                        "to" : "",
                        "v" : "0x1c",
                        "value" : "0x0186a0"
                    }
                ],
                "uncleHeaders" : [
                ]
            }
        ],
        "genesisBlockHeader" : {
            "bloom" : "0x00000000000000000000000000000000000000000000000000000000000000000000000000000000000000000000000000000000000000000000000000000000000000000000000000000000000000000000000000000000000000000000000000000000000000000000000000000000000000000000000000000000000000000000000000000000000000000000000000000000000000000000000000000000000000000000000000000000000000000000000000000000000000000000000000000000000000000000000000000000000000000000000000000000000000000000000000000000000000000000000000000000000000000000000000000000",
            "coinbase" : "0x2adc25665018aa1fe0e6bc666dac8fc2697ff9ba",
            "difficulty" : "0x020000",
            "extraData" : "0x42",
            "gasLimit" : "0x0f4240",
            "gasUsed" : "0x00",
            "hash" : "0xa9b003c176d2037cf7095f0b73892729cba523a7b887ad67d3c517ed26b9e31b",
            "mixHash" : "0x56e81f171bcc55a6ff8345e692c0f86e5b48e01b996cadc001622fb5e363b421",
            "nonce" : "0x0102030405060708",
            "number" : "0x00",
            "parentHash" : "0x0000000000000000000000000000000000000000000000000000000000000000",
            "receiptTrie" : "0x56e81f171bcc55a6ff8345e692c0f86e5b48e01b996cadc001622fb5e363b421",
            "stateRoot" : "0xe77f3052601feb5eee19025a8b8caa2b6c4374448dc40d5ef15cec0b8e129ac7",
            "timestamp" : "0x03b6",
            "transactionsTrie" : "0x56e81f171bcc55a6ff8345e692c0f86e5b48e01b996cadc001622fb5e363b421",
            "uncleHash" : "0x1dcc4de8dec75d7aab85b567b6ccd41ad312451b948a7413f0a142fd40d49347"
        },
        "genesisRLP" : "0xf901faf901f5a00000000000000000000000000000000000000000000000000000000000000000a01dcc4de8dec75d7aab85b567b6ccd41ad312451b948a7413f0a142fd40d49347942adc25665018aa1fe0e6bc666dac8fc2697ff9baa0e77f3052601feb5eee19025a8b8caa2b6c4374448dc40d5ef15cec0b8e129ac7a056e81f171bcc55a6ff8345e692c0f86e5b48e01b996cadc001622fb5e363b421a056e81f171bcc55a6ff8345e692c0f86e5b48e01b996cadc001622fb5e363b421b90100000000000000000000000000000000000000000000000000000000000000000000000000000000000000000000000000000000000000000000000000000000000000000000000000000000000000000000000000000000000000000000000000000000000000000000000000000000000000000000000000000000000000000000000000000000000000000000000000000000000000000000000000000000000000000000000000000000000000000000000000000000000000000000000000000000000000000000000000000000000000000000000000000000000000000000000000000000000000000000000000000000000000000000000000000000008302000080830f4240808203b642a056e81f171bcc55a6ff8345e692c0f86e5b48e01b996cadc001622fb5e363b421880102030405060708c0c0",
        "lastblockhash" : "0xfb08df41f138227e072e79c1b779890994e76f6e92587550dbf6c7ac55510040",
        "network" : "Byzantium",
        "postState" : {
            "0x0f572e5295c57f15886f9b263e2f6d2d6c7b5ec6" : {
                "balance" : "0x0de0b6b3a7640000",
                "code" : "0x61ffff5060046000f3",
                "nonce" : "0x01",
                "storage" : {
                }
            },
            "0x2adc25665018aa1fe0e6bc666dac8fc2697ff9ba" : {
                "balance" : "0x29a2241af62cd185",
                "code" : "",
                "nonce" : "0x00",
                "storage" : {
                }
            },
            "0x6295ee1b4f6dd65047762f924ecd367c17eabf8f" : {
                "balance" : "0x0186a0",
                "code" : "",
                "nonce" : "0x01",
                "storage" : {
                }
            },
            "0xa94f5374fce5edbc8e2a8697c15331677e6ebf0b" : {
                "balance" : "0x0de0b6b3a761a7db",
                "code" : "",
                "nonce" : "0x01",
                "storage" : {
                }
            }
        },
        "pre" : {
            "0x0f572e5295c57f15886f9b263e2f6d2d6c7b5ec6" : {
                "balance" : "0x0de0b6b3a7640000",
                "code" : "0x61ffff5060046000f3",
                "nonce" : "0x01",
                "storage" : {
                }
            },
            "0xa94f5374fce5edbc8e2a8697c15331677e6ebf0b" : {
                "balance" : "0x0de0b6b3a7640000",
                "code" : "",
                "nonce" : "0x00",
                "storage" : {
                }
            }
        }
    },
    "Opcodes_TransactionInit_d13g0v0_EIP150" : {
        "_info" : {
            "comment" : "",
            "filledwith" : "cpp-1.3.0+commit.6e0ce939.Linux.g++",
            "lllcversion" : "Version: 0.4.18-develop.2017.9.25+commit.a72237f2.Linux.g++",
            "source" : "src/BlockchainTestsFiller/GeneralStateTests/stTransactionTest/Opcodes_TransactionInit_d13g0v0Filler.json",
            "sourceHash" : "cddf5d472debe5cda0f0e93adecf5a5c0c3e122cbc834a0ea61d4a724a6405ad"
        },
        "blocks" : [
            {
                "blockHeader" : {
                    "bloom" : "0x00000000000000000000000000000000000000000000000000000000000000000000000000000000000000000000000000000000000000000000000000000000000000000000000000000000000000000000000000000000000000000000000000000000000000000000000000000000000000000000000000000000000000000000000000000000000000000000000000000000000000000000000000000000000000000000000000000000000000000000000000000000000000000000000000000000000000000000000000000000000000000000000000000000000000000000000000000000000000000000000000000000000000000000000000000000",
                    "coinbase" : "0x2adc25665018aa1fe0e6bc666dac8fc2697ff9ba",
                    "difficulty" : "0x020000",
                    "extraData" : "",
                    "gasLimit" : "0x0f4240",
                    "gasUsed" : "0xd185",
                    "hash" : "0xbe76764999a5c10f5906edb57f62cb8d82d36721c52a617432a794957be6dad3",
                    "mixHash" : "0xa84d4d29956e58950f558d52057bf81d84f1fe1115eb89a3f05080d50b93d6ee",
                    "nonce" : "0x5b5c86cdd175e585",
                    "number" : "0x01",
                    "parentHash" : "0xa9b003c176d2037cf7095f0b73892729cba523a7b887ad67d3c517ed26b9e31b",
                    "receiptTrie" : "0xd756c02ecc1a954bd21dd242312000d01c55e5a7401e4abb9429bcc3c84cd839",
                    "stateRoot" : "0x291c3c3e283376b31ead8a23f9360544fe82ed414773d86333d7944219027f68",
                    "timestamp" : "0x03e8",
                    "transactionsTrie" : "0xd06619475acc821b4af0ee894d887d8ecebb86f4e9398af7181d70a11c9a9999",
                    "uncleHash" : "0x1dcc4de8dec75d7aab85b567b6ccd41ad312451b948a7413f0a142fd40d49347"
                },
                "rlp" : "0xf90259f901f7a0a9b003c176d2037cf7095f0b73892729cba523a7b887ad67d3c517ed26b9e31ba01dcc4de8dec75d7aab85b567b6ccd41ad312451b948a7413f0a142fd40d49347942adc25665018aa1fe0e6bc666dac8fc2697ff9baa0291c3c3e283376b31ead8a23f9360544fe82ed414773d86333d7944219027f68a0d06619475acc821b4af0ee894d887d8ecebb86f4e9398af7181d70a11c9a9999a0d756c02ecc1a954bd21dd242312000d01c55e5a7401e4abb9429bcc3c84cd839b90100000000000000000000000000000000000000000000000000000000000000000000000000000000000000000000000000000000000000000000000000000000000000000000000000000000000000000000000000000000000000000000000000000000000000000000000000000000000000000000000000000000000000000000000000000000000000000000000000000000000000000000000000000000000000000000000000000000000000000000000000000000000000000000000000000000000000000000000000000000000000000000000000000000000000000000000000000000000000000000000000000000000000000000000000000000008302000001830f424082d1858203e880a0a84d4d29956e58950f558d52057bf81d84f1fe1115eb89a3f05080d50b93d6ee885b5c86cdd175e585f85cf85a800183061a8080830186a08b60016001115060006000f31ca0ada6acf10d051f208ecd48ff77019c5ee2053819e4b28c118f569fdf44a781dda03f69ab285f41b1f98dedbedea6806f13860288cf0fa8353c1f053042fedb3defc0",
                "transactions" : [
                    {
                        "data" : "0x60016001115060006000f3",
                        "gasLimit" : "0x061a80",
                        "gasPrice" : "0x01",
                        "nonce" : "0x00",
                        "r" : "0xada6acf10d051f208ecd48ff77019c5ee2053819e4b28c118f569fdf44a781dd",
                        "s" : "0x3f69ab285f41b1f98dedbedea6806f13860288cf0fa8353c1f053042fedb3def",
                        "to" : "",
                        "v" : "0x1c",
                        "value" : "0x0186a0"
                    }
                ],
                "uncleHeaders" : [
                ]
            }
        ],
        "genesisBlockHeader" : {
            "bloom" : "0x00000000000000000000000000000000000000000000000000000000000000000000000000000000000000000000000000000000000000000000000000000000000000000000000000000000000000000000000000000000000000000000000000000000000000000000000000000000000000000000000000000000000000000000000000000000000000000000000000000000000000000000000000000000000000000000000000000000000000000000000000000000000000000000000000000000000000000000000000000000000000000000000000000000000000000000000000000000000000000000000000000000000000000000000000000000",
            "coinbase" : "0x2adc25665018aa1fe0e6bc666dac8fc2697ff9ba",
            "difficulty" : "0x020000",
            "extraData" : "0x42",
            "gasLimit" : "0x0f4240",
            "gasUsed" : "0x00",
            "hash" : "0xa9b003c176d2037cf7095f0b73892729cba523a7b887ad67d3c517ed26b9e31b",
            "mixHash" : "0x56e81f171bcc55a6ff8345e692c0f86e5b48e01b996cadc001622fb5e363b421",
            "nonce" : "0x0102030405060708",
            "number" : "0x00",
            "parentHash" : "0x0000000000000000000000000000000000000000000000000000000000000000",
            "receiptTrie" : "0x56e81f171bcc55a6ff8345e692c0f86e5b48e01b996cadc001622fb5e363b421",
            "stateRoot" : "0xe77f3052601feb5eee19025a8b8caa2b6c4374448dc40d5ef15cec0b8e129ac7",
            "timestamp" : "0x03b6",
            "transactionsTrie" : "0x56e81f171bcc55a6ff8345e692c0f86e5b48e01b996cadc001622fb5e363b421",
            "uncleHash" : "0x1dcc4de8dec75d7aab85b567b6ccd41ad312451b948a7413f0a142fd40d49347"
        },
        "genesisRLP" : "0xf901faf901f5a00000000000000000000000000000000000000000000000000000000000000000a01dcc4de8dec75d7aab85b567b6ccd41ad312451b948a7413f0a142fd40d49347942adc25665018aa1fe0e6bc666dac8fc2697ff9baa0e77f3052601feb5eee19025a8b8caa2b6c4374448dc40d5ef15cec0b8e129ac7a056e81f171bcc55a6ff8345e692c0f86e5b48e01b996cadc001622fb5e363b421a056e81f171bcc55a6ff8345e692c0f86e5b48e01b996cadc001622fb5e363b421b90100000000000000000000000000000000000000000000000000000000000000000000000000000000000000000000000000000000000000000000000000000000000000000000000000000000000000000000000000000000000000000000000000000000000000000000000000000000000000000000000000000000000000000000000000000000000000000000000000000000000000000000000000000000000000000000000000000000000000000000000000000000000000000000000000000000000000000000000000000000000000000000000000000000000000000000000000000000000000000000000000000000000000000000000000000000008302000080830f4240808203b642a056e81f171bcc55a6ff8345e692c0f86e5b48e01b996cadc001622fb5e363b421880102030405060708c0c0",
        "lastblockhash" : "0xbe76764999a5c10f5906edb57f62cb8d82d36721c52a617432a794957be6dad3",
        "network" : "EIP150",
        "postState" : {
            "0x0f572e5295c57f15886f9b263e2f6d2d6c7b5ec6" : {
                "balance" : "0x0de0b6b3a7640000",
                "code" : "0x61ffff5060046000f3",
                "nonce" : "0x01",
                "storage" : {
                }
            },
            "0x2adc25665018aa1fe0e6bc666dac8fc2697ff9ba" : {
                "balance" : "0x4563918244f4d185",
                "code" : "",
                "nonce" : "0x00",
                "storage" : {
                }
            },
            "0x6295ee1b4f6dd65047762f924ecd367c17eabf8f" : {
                "balance" : "0x0186a0",
                "code" : "",
                "nonce" : "0x00",
                "storage" : {
                }
            },
            "0xa94f5374fce5edbc8e2a8697c15331677e6ebf0b" : {
                "balance" : "0x0de0b6b3a761a7db",
                "code" : "",
                "nonce" : "0x01",
                "storage" : {
                }
            }
        },
        "pre" : {
            "0x0f572e5295c57f15886f9b263e2f6d2d6c7b5ec6" : {
                "balance" : "0x0de0b6b3a7640000",
                "code" : "0x61ffff5060046000f3",
                "nonce" : "0x01",
                "storage" : {
                }
            },
            "0xa94f5374fce5edbc8e2a8697c15331677e6ebf0b" : {
                "balance" : "0x0de0b6b3a7640000",
                "code" : "",
                "nonce" : "0x00",
                "storage" : {
                }
            }
        }
    },
    "Opcodes_TransactionInit_d13g0v0_EIP158" : {
        "_info" : {
            "comment" : "",
            "filledwith" : "cpp-1.3.0+commit.6e0ce939.Linux.g++",
            "lllcversion" : "Version: 0.4.18-develop.2017.9.25+commit.a72237f2.Linux.g++",
            "source" : "src/BlockchainTestsFiller/GeneralStateTests/stTransactionTest/Opcodes_TransactionInit_d13g0v0Filler.json",
            "sourceHash" : "cddf5d472debe5cda0f0e93adecf5a5c0c3e122cbc834a0ea61d4a724a6405ad"
        },
        "blocks" : [
            {
                "blockHeader" : {
                    "bloom" : "0x00000000000000000000000000000000000000000000000000000000000000000000000000000000000000000000000000000000000000000000000000000000000000000000000000000000000000000000000000000000000000000000000000000000000000000000000000000000000000000000000000000000000000000000000000000000000000000000000000000000000000000000000000000000000000000000000000000000000000000000000000000000000000000000000000000000000000000000000000000000000000000000000000000000000000000000000000000000000000000000000000000000000000000000000000000000",
                    "coinbase" : "0x2adc25665018aa1fe0e6bc666dac8fc2697ff9ba",
                    "difficulty" : "0x020000",
                    "extraData" : "",
                    "gasLimit" : "0x0f4240",
                    "gasUsed" : "0xd185",
                    "hash" : "0x3ec4c3f698f6e78ee75afd5a475922bd8838b961700bdca893d9f3c777c4bbdd",
                    "mixHash" : "0xa52bdeb99a5d736f46ff12ecabe66d42666af52827bf4ffbd20f7ca281bf908f",
                    "nonce" : "0x9124d88860fa5825",
                    "number" : "0x01",
                    "parentHash" : "0xa9b003c176d2037cf7095f0b73892729cba523a7b887ad67d3c517ed26b9e31b",
                    "receiptTrie" : "0x87d9fc8cc82693aa52f8ff3d0029b25be9372859c754554db9f3117012a0f1bb",
                    "stateRoot" : "0x87908ff29c74d322c2dad26614b0c4e2229e335c8f3275d8eb1b91936659cf66",
                    "timestamp" : "0x03e8",
                    "transactionsTrie" : "0xd06619475acc821b4af0ee894d887d8ecebb86f4e9398af7181d70a11c9a9999",
                    "uncleHash" : "0x1dcc4de8dec75d7aab85b567b6ccd41ad312451b948a7413f0a142fd40d49347"
                },
                "rlp" : "0xf90259f901f7a0a9b003c176d2037cf7095f0b73892729cba523a7b887ad67d3c517ed26b9e31ba01dcc4de8dec75d7aab85b567b6ccd41ad312451b948a7413f0a142fd40d49347942adc25665018aa1fe0e6bc666dac8fc2697ff9baa087908ff29c74d322c2dad26614b0c4e2229e335c8f3275d8eb1b91936659cf66a0d06619475acc821b4af0ee894d887d8ecebb86f4e9398af7181d70a11c9a9999a087d9fc8cc82693aa52f8ff3d0029b25be9372859c754554db9f3117012a0f1bbb90100000000000000000000000000000000000000000000000000000000000000000000000000000000000000000000000000000000000000000000000000000000000000000000000000000000000000000000000000000000000000000000000000000000000000000000000000000000000000000000000000000000000000000000000000000000000000000000000000000000000000000000000000000000000000000000000000000000000000000000000000000000000000000000000000000000000000000000000000000000000000000000000000000000000000000000000000000000000000000000000000000000000000000000000000000000008302000001830f424082d1858203e880a0a52bdeb99a5d736f46ff12ecabe66d42666af52827bf4ffbd20f7ca281bf908f889124d88860fa5825f85cf85a800183061a8080830186a08b60016001115060006000f31ca0ada6acf10d051f208ecd48ff77019c5ee2053819e4b28c118f569fdf44a781dda03f69ab285f41b1f98dedbedea6806f13860288cf0fa8353c1f053042fedb3defc0",
                "transactions" : [
                    {
                        "data" : "0x60016001115060006000f3",
                        "gasLimit" : "0x061a80",
                        "gasPrice" : "0x01",
                        "nonce" : "0x00",
                        "r" : "0xada6acf10d051f208ecd48ff77019c5ee2053819e4b28c118f569fdf44a781dd",
                        "s" : "0x3f69ab285f41b1f98dedbedea6806f13860288cf0fa8353c1f053042fedb3def",
                        "to" : "",
                        "v" : "0x1c",
                        "value" : "0x0186a0"
                    }
                ],
                "uncleHeaders" : [
                ]
            }
        ],
        "genesisBlockHeader" : {
            "bloom" : "0x00000000000000000000000000000000000000000000000000000000000000000000000000000000000000000000000000000000000000000000000000000000000000000000000000000000000000000000000000000000000000000000000000000000000000000000000000000000000000000000000000000000000000000000000000000000000000000000000000000000000000000000000000000000000000000000000000000000000000000000000000000000000000000000000000000000000000000000000000000000000000000000000000000000000000000000000000000000000000000000000000000000000000000000000000000000",
            "coinbase" : "0x2adc25665018aa1fe0e6bc666dac8fc2697ff9ba",
            "difficulty" : "0x020000",
            "extraData" : "0x42",
            "gasLimit" : "0x0f4240",
            "gasUsed" : "0x00",
            "hash" : "0xa9b003c176d2037cf7095f0b73892729cba523a7b887ad67d3c517ed26b9e31b",
            "mixHash" : "0x56e81f171bcc55a6ff8345e692c0f86e5b48e01b996cadc001622fb5e363b421",
            "nonce" : "0x0102030405060708",
            "number" : "0x00",
            "parentHash" : "0x0000000000000000000000000000000000000000000000000000000000000000",
            "receiptTrie" : "0x56e81f171bcc55a6ff8345e692c0f86e5b48e01b996cadc001622fb5e363b421",
            "stateRoot" : "0xe77f3052601feb5eee19025a8b8caa2b6c4374448dc40d5ef15cec0b8e129ac7",
            "timestamp" : "0x03b6",
            "transactionsTrie" : "0x56e81f171bcc55a6ff8345e692c0f86e5b48e01b996cadc001622fb5e363b421",
            "uncleHash" : "0x1dcc4de8dec75d7aab85b567b6ccd41ad312451b948a7413f0a142fd40d49347"
        },
        "genesisRLP" : "0xf901faf901f5a00000000000000000000000000000000000000000000000000000000000000000a01dcc4de8dec75d7aab85b567b6ccd41ad312451b948a7413f0a142fd40d49347942adc25665018aa1fe0e6bc666dac8fc2697ff9baa0e77f3052601feb5eee19025a8b8caa2b6c4374448dc40d5ef15cec0b8e129ac7a056e81f171bcc55a6ff8345e692c0f86e5b48e01b996cadc001622fb5e363b421a056e81f171bcc55a6ff8345e692c0f86e5b48e01b996cadc001622fb5e363b421b90100000000000000000000000000000000000000000000000000000000000000000000000000000000000000000000000000000000000000000000000000000000000000000000000000000000000000000000000000000000000000000000000000000000000000000000000000000000000000000000000000000000000000000000000000000000000000000000000000000000000000000000000000000000000000000000000000000000000000000000000000000000000000000000000000000000000000000000000000000000000000000000000000000000000000000000000000000000000000000000000000000000000000000000000000000000008302000080830f4240808203b642a056e81f171bcc55a6ff8345e692c0f86e5b48e01b996cadc001622fb5e363b421880102030405060708c0c0",
        "lastblockhash" : "0x3ec4c3f698f6e78ee75afd5a475922bd8838b961700bdca893d9f3c777c4bbdd",
        "network" : "EIP158",
        "postState" : {
            "0x0f572e5295c57f15886f9b263e2f6d2d6c7b5ec6" : {
                "balance" : "0x0de0b6b3a7640000",
                "code" : "0x61ffff5060046000f3",
                "nonce" : "0x01",
                "storage" : {
                }
            },
            "0x2adc25665018aa1fe0e6bc666dac8fc2697ff9ba" : {
                "balance" : "0x4563918244f4d185",
                "code" : "",
                "nonce" : "0x00",
                "storage" : {
                }
            },
            "0x6295ee1b4f6dd65047762f924ecd367c17eabf8f" : {
                "balance" : "0x0186a0",
                "code" : "",
                "nonce" : "0x01",
                "storage" : {
                }
            },
            "0xa94f5374fce5edbc8e2a8697c15331677e6ebf0b" : {
                "balance" : "0x0de0b6b3a761a7db",
                "code" : "",
                "nonce" : "0x01",
                "storage" : {
                }
            }
        },
        "pre" : {
            "0x0f572e5295c57f15886f9b263e2f6d2d6c7b5ec6" : {
                "balance" : "0x0de0b6b3a7640000",
                "code" : "0x61ffff5060046000f3",
                "nonce" : "0x01",
                "storage" : {
                }
            },
            "0xa94f5374fce5edbc8e2a8697c15331677e6ebf0b" : {
                "balance" : "0x0de0b6b3a7640000",
                "code" : "",
                "nonce" : "0x00",
                "storage" : {
                }
            }
        }
    },
    "Opcodes_TransactionInit_d13g0v0_Frontier" : {
        "_info" : {
            "comment" : "",
            "filledwith" : "cpp-1.3.0+commit.6e0ce939.Linux.g++",
            "lllcversion" : "Version: 0.4.18-develop.2017.9.25+commit.a72237f2.Linux.g++",
            "source" : "src/BlockchainTestsFiller/GeneralStateTests/stTransactionTest/Opcodes_TransactionInit_d13g0v0Filler.json",
            "sourceHash" : "cddf5d472debe5cda0f0e93adecf5a5c0c3e122cbc834a0ea61d4a724a6405ad"
        },
        "blocks" : [
            {
                "blockHeader" : {
                    "bloom" : "0x00000000000000000000000000000000000000000000000000000000000000000000000000000000000000000000000000000000000000000000000000000000000000000000000000000000000000000000000000000000000000000000000000000000000000000000000000000000000000000000000000000000000000000000000000000000000000000000000000000000000000000000000000000000000000000000000000000000000000000000000000000000000000000000000000000000000000000000000000000000000000000000000000000000000000000000000000000000000000000000000000000000000000000000000000000000",
                    "coinbase" : "0x2adc25665018aa1fe0e6bc666dac8fc2697ff9ba",
                    "difficulty" : "0x020000",
                    "extraData" : "",
                    "gasLimit" : "0x0f4240",
                    "gasUsed" : "0x5485",
                    "hash" : "0xd421a5387f21d5d46b9bad1e9d8a3e246dc6cf57b79d0128409cfc6bc83c0dfa",
                    "mixHash" : "0x2c8643e7ad7aebb2c12e6387369610bb9c2d7b76776136c02ee161d59fa7b704",
                    "nonce" : "0xe5b148dd6f022704",
                    "number" : "0x01",
                    "parentHash" : "0xa9b003c176d2037cf7095f0b73892729cba523a7b887ad67d3c517ed26b9e31b",
                    "receiptTrie" : "0x72f2b7c66c02e65c1fe12e463016226d1187d230199fff1974833383ac2602fd",
                    "stateRoot" : "0x13081c9918f5ee60dc30028db9042f275f85b00c0fea91af42cce1d4f7229a18",
                    "timestamp" : "0x03e8",
                    "transactionsTrie" : "0xd06619475acc821b4af0ee894d887d8ecebb86f4e9398af7181d70a11c9a9999",
                    "uncleHash" : "0x1dcc4de8dec75d7aab85b567b6ccd41ad312451b948a7413f0a142fd40d49347"
                },
                "rlp" : "0xf90259f901f7a0a9b003c176d2037cf7095f0b73892729cba523a7b887ad67d3c517ed26b9e31ba01dcc4de8dec75d7aab85b567b6ccd41ad312451b948a7413f0a142fd40d49347942adc25665018aa1fe0e6bc666dac8fc2697ff9baa013081c9918f5ee60dc30028db9042f275f85b00c0fea91af42cce1d4f7229a18a0d06619475acc821b4af0ee894d887d8ecebb86f4e9398af7181d70a11c9a9999a072f2b7c66c02e65c1fe12e463016226d1187d230199fff1974833383ac2602fdb90100000000000000000000000000000000000000000000000000000000000000000000000000000000000000000000000000000000000000000000000000000000000000000000000000000000000000000000000000000000000000000000000000000000000000000000000000000000000000000000000000000000000000000000000000000000000000000000000000000000000000000000000000000000000000000000000000000000000000000000000000000000000000000000000000000000000000000000000000000000000000000000000000000000000000000000000000000000000000000000000000000000000000000000000000000000008302000001830f42408254858203e880a02c8643e7ad7aebb2c12e6387369610bb9c2d7b76776136c02ee161d59fa7b70488e5b148dd6f022704f85cf85a800183061a8080830186a08b60016001115060006000f31ca0ada6acf10d051f208ecd48ff77019c5ee2053819e4b28c118f569fdf44a781dda03f69ab285f41b1f98dedbedea6806f13860288cf0fa8353c1f053042fedb3defc0",
                "transactions" : [
                    {
                        "data" : "0x60016001115060006000f3",
                        "gasLimit" : "0x061a80",
                        "gasPrice" : "0x01",
                        "nonce" : "0x00",
                        "r" : "0xada6acf10d051f208ecd48ff77019c5ee2053819e4b28c118f569fdf44a781dd",
                        "s" : "0x3f69ab285f41b1f98dedbedea6806f13860288cf0fa8353c1f053042fedb3def",
                        "to" : "",
                        "v" : "0x1c",
                        "value" : "0x0186a0"
                    }
                ],
                "uncleHeaders" : [
                ]
            }
        ],
        "genesisBlockHeader" : {
            "bloom" : "0x00000000000000000000000000000000000000000000000000000000000000000000000000000000000000000000000000000000000000000000000000000000000000000000000000000000000000000000000000000000000000000000000000000000000000000000000000000000000000000000000000000000000000000000000000000000000000000000000000000000000000000000000000000000000000000000000000000000000000000000000000000000000000000000000000000000000000000000000000000000000000000000000000000000000000000000000000000000000000000000000000000000000000000000000000000000",
            "coinbase" : "0x2adc25665018aa1fe0e6bc666dac8fc2697ff9ba",
            "difficulty" : "0x020000",
            "extraData" : "0x42",
            "gasLimit" : "0x0f4240",
            "gasUsed" : "0x00",
            "hash" : "0xa9b003c176d2037cf7095f0b73892729cba523a7b887ad67d3c517ed26b9e31b",
            "mixHash" : "0x56e81f171bcc55a6ff8345e692c0f86e5b48e01b996cadc001622fb5e363b421",
            "nonce" : "0x0102030405060708",
            "number" : "0x00",
            "parentHash" : "0x0000000000000000000000000000000000000000000000000000000000000000",
            "receiptTrie" : "0x56e81f171bcc55a6ff8345e692c0f86e5b48e01b996cadc001622fb5e363b421",
            "stateRoot" : "0xe77f3052601feb5eee19025a8b8caa2b6c4374448dc40d5ef15cec0b8e129ac7",
            "timestamp" : "0x03b6",
            "transactionsTrie" : "0x56e81f171bcc55a6ff8345e692c0f86e5b48e01b996cadc001622fb5e363b421",
            "uncleHash" : "0x1dcc4de8dec75d7aab85b567b6ccd41ad312451b948a7413f0a142fd40d49347"
        },
        "genesisRLP" : "0xf901faf901f5a00000000000000000000000000000000000000000000000000000000000000000a01dcc4de8dec75d7aab85b567b6ccd41ad312451b948a7413f0a142fd40d49347942adc25665018aa1fe0e6bc666dac8fc2697ff9baa0e77f3052601feb5eee19025a8b8caa2b6c4374448dc40d5ef15cec0b8e129ac7a056e81f171bcc55a6ff8345e692c0f86e5b48e01b996cadc001622fb5e363b421a056e81f171bcc55a6ff8345e692c0f86e5b48e01b996cadc001622fb5e363b421b90100000000000000000000000000000000000000000000000000000000000000000000000000000000000000000000000000000000000000000000000000000000000000000000000000000000000000000000000000000000000000000000000000000000000000000000000000000000000000000000000000000000000000000000000000000000000000000000000000000000000000000000000000000000000000000000000000000000000000000000000000000000000000000000000000000000000000000000000000000000000000000000000000000000000000000000000000000000000000000000000000000000000000000000000000000000008302000080830f4240808203b642a056e81f171bcc55a6ff8345e692c0f86e5b48e01b996cadc001622fb5e363b421880102030405060708c0c0",
        "lastblockhash" : "0xd421a5387f21d5d46b9bad1e9d8a3e246dc6cf57b79d0128409cfc6bc83c0dfa",
        "network" : "Frontier",
        "postState" : {
            "0x0f572e5295c57f15886f9b263e2f6d2d6c7b5ec6" : {
                "balance" : "0x0de0b6b3a7640000",
                "code" : "0x61ffff5060046000f3",
                "nonce" : "0x01",
                "storage" : {
                }
            },
            "0x2adc25665018aa1fe0e6bc666dac8fc2697ff9ba" : {
                "balance" : "0x4563918244f45485",
                "code" : "",
                "nonce" : "0x00",
                "storage" : {
                }
            },
            "0x6295ee1b4f6dd65047762f924ecd367c17eabf8f" : {
                "balance" : "0x0186a0",
                "code" : "",
                "nonce" : "0x00",
                "storage" : {
                }
            },
            "0xa94f5374fce5edbc8e2a8697c15331677e6ebf0b" : {
                "balance" : "0x0de0b6b3a76224db",
                "code" : "",
                "nonce" : "0x01",
                "storage" : {
                }
            }
        },
        "pre" : {
            "0x0f572e5295c57f15886f9b263e2f6d2d6c7b5ec6" : {
                "balance" : "0x0de0b6b3a7640000",
                "code" : "0x61ffff5060046000f3",
                "nonce" : "0x01",
                "storage" : {
                }
            },
            "0xa94f5374fce5edbc8e2a8697c15331677e6ebf0b" : {
                "balance" : "0x0de0b6b3a7640000",
                "code" : "",
                "nonce" : "0x00",
                "storage" : {
                }
            }
        }
    },
    "Opcodes_TransactionInit_d13g0v0_Homestead" : {
        "_info" : {
            "comment" : "",
            "filledwith" : "cpp-1.3.0+commit.6e0ce939.Linux.g++",
            "lllcversion" : "Version: 0.4.18-develop.2017.9.25+commit.a72237f2.Linux.g++",
            "source" : "src/BlockchainTestsFiller/GeneralStateTests/stTransactionTest/Opcodes_TransactionInit_d13g0v0Filler.json",
            "sourceHash" : "cddf5d472debe5cda0f0e93adecf5a5c0c3e122cbc834a0ea61d4a724a6405ad"
        },
        "blocks" : [
            {
                "blockHeader" : {
                    "bloom" : "0x00000000000000000000000000000000000000000000000000000000000000000000000000000000000000000000000000000000000000000000000000000000000000000000000000000000000000000000000000000000000000000000000000000000000000000000000000000000000000000000000000000000000000000000000000000000000000000000000000000000000000000000000000000000000000000000000000000000000000000000000000000000000000000000000000000000000000000000000000000000000000000000000000000000000000000000000000000000000000000000000000000000000000000000000000000000",
                    "coinbase" : "0x2adc25665018aa1fe0e6bc666dac8fc2697ff9ba",
                    "difficulty" : "0x020000",
                    "extraData" : "",
                    "gasLimit" : "0x0f4240",
                    "gasUsed" : "0xd185",
                    "hash" : "0x2a12257c4eb01751b885e4148111f4c239c3535739763fc1047be63c70546644",
                    "mixHash" : "0xec04562ff238ef5cccd067d46e2f729f7e6e94c6b34672b50b5ded6d27c6ee70",
                    "nonce" : "0x434b84a0a5442a29",
                    "number" : "0x01",
                    "parentHash" : "0xa9b003c176d2037cf7095f0b73892729cba523a7b887ad67d3c517ed26b9e31b",
                    "receiptTrie" : "0xd756c02ecc1a954bd21dd242312000d01c55e5a7401e4abb9429bcc3c84cd839",
                    "stateRoot" : "0x291c3c3e283376b31ead8a23f9360544fe82ed414773d86333d7944219027f68",
                    "timestamp" : "0x03e8",
                    "transactionsTrie" : "0xd06619475acc821b4af0ee894d887d8ecebb86f4e9398af7181d70a11c9a9999",
                    "uncleHash" : "0x1dcc4de8dec75d7aab85b567b6ccd41ad312451b948a7413f0a142fd40d49347"
                },
                "rlp" : "0xf90259f901f7a0a9b003c176d2037cf7095f0b73892729cba523a7b887ad67d3c517ed26b9e31ba01dcc4de8dec75d7aab85b567b6ccd41ad312451b948a7413f0a142fd40d49347942adc25665018aa1fe0e6bc666dac8fc2697ff9baa0291c3c3e283376b31ead8a23f9360544fe82ed414773d86333d7944219027f68a0d06619475acc821b4af0ee894d887d8ecebb86f4e9398af7181d70a11c9a9999a0d756c02ecc1a954bd21dd242312000d01c55e5a7401e4abb9429bcc3c84cd839b90100000000000000000000000000000000000000000000000000000000000000000000000000000000000000000000000000000000000000000000000000000000000000000000000000000000000000000000000000000000000000000000000000000000000000000000000000000000000000000000000000000000000000000000000000000000000000000000000000000000000000000000000000000000000000000000000000000000000000000000000000000000000000000000000000000000000000000000000000000000000000000000000000000000000000000000000000000000000000000000000000000000000000000000000000000000008302000001830f424082d1858203e880a0ec04562ff238ef5cccd067d46e2f729f7e6e94c6b34672b50b5ded6d27c6ee7088434b84a0a5442a29f85cf85a800183061a8080830186a08b60016001115060006000f31ca0ada6acf10d051f208ecd48ff77019c5ee2053819e4b28c118f569fdf44a781dda03f69ab285f41b1f98dedbedea6806f13860288cf0fa8353c1f053042fedb3defc0",
                "transactions" : [
                    {
                        "data" : "0x60016001115060006000f3",
                        "gasLimit" : "0x061a80",
                        "gasPrice" : "0x01",
                        "nonce" : "0x00",
                        "r" : "0xada6acf10d051f208ecd48ff77019c5ee2053819e4b28c118f569fdf44a781dd",
                        "s" : "0x3f69ab285f41b1f98dedbedea6806f13860288cf0fa8353c1f053042fedb3def",
                        "to" : "",
                        "v" : "0x1c",
                        "value" : "0x0186a0"
                    }
                ],
                "uncleHeaders" : [
                ]
            }
        ],
        "genesisBlockHeader" : {
            "bloom" : "0x00000000000000000000000000000000000000000000000000000000000000000000000000000000000000000000000000000000000000000000000000000000000000000000000000000000000000000000000000000000000000000000000000000000000000000000000000000000000000000000000000000000000000000000000000000000000000000000000000000000000000000000000000000000000000000000000000000000000000000000000000000000000000000000000000000000000000000000000000000000000000000000000000000000000000000000000000000000000000000000000000000000000000000000000000000000",
            "coinbase" : "0x2adc25665018aa1fe0e6bc666dac8fc2697ff9ba",
            "difficulty" : "0x020000",
            "extraData" : "0x42",
            "gasLimit" : "0x0f4240",
            "gasUsed" : "0x00",
            "hash" : "0xa9b003c176d2037cf7095f0b73892729cba523a7b887ad67d3c517ed26b9e31b",
            "mixHash" : "0x56e81f171bcc55a6ff8345e692c0f86e5b48e01b996cadc001622fb5e363b421",
            "nonce" : "0x0102030405060708",
            "number" : "0x00",
            "parentHash" : "0x0000000000000000000000000000000000000000000000000000000000000000",
            "receiptTrie" : "0x56e81f171bcc55a6ff8345e692c0f86e5b48e01b996cadc001622fb5e363b421",
            "stateRoot" : "0xe77f3052601feb5eee19025a8b8caa2b6c4374448dc40d5ef15cec0b8e129ac7",
            "timestamp" : "0x03b6",
            "transactionsTrie" : "0x56e81f171bcc55a6ff8345e692c0f86e5b48e01b996cadc001622fb5e363b421",
            "uncleHash" : "0x1dcc4de8dec75d7aab85b567b6ccd41ad312451b948a7413f0a142fd40d49347"
        },
        "genesisRLP" : "0xf901faf901f5a00000000000000000000000000000000000000000000000000000000000000000a01dcc4de8dec75d7aab85b567b6ccd41ad312451b948a7413f0a142fd40d49347942adc25665018aa1fe0e6bc666dac8fc2697ff9baa0e77f3052601feb5eee19025a8b8caa2b6c4374448dc40d5ef15cec0b8e129ac7a056e81f171bcc55a6ff8345e692c0f86e5b48e01b996cadc001622fb5e363b421a056e81f171bcc55a6ff8345e692c0f86e5b48e01b996cadc001622fb5e363b421b90100000000000000000000000000000000000000000000000000000000000000000000000000000000000000000000000000000000000000000000000000000000000000000000000000000000000000000000000000000000000000000000000000000000000000000000000000000000000000000000000000000000000000000000000000000000000000000000000000000000000000000000000000000000000000000000000000000000000000000000000000000000000000000000000000000000000000000000000000000000000000000000000000000000000000000000000000000000000000000000000000000000000000000000000000000000008302000080830f4240808203b642a056e81f171bcc55a6ff8345e692c0f86e5b48e01b996cadc001622fb5e363b421880102030405060708c0c0",
        "lastblockhash" : "0x2a12257c4eb01751b885e4148111f4c239c3535739763fc1047be63c70546644",
        "network" : "Homestead",
        "postState" : {
            "0x0f572e5295c57f15886f9b263e2f6d2d6c7b5ec6" : {
                "balance" : "0x0de0b6b3a7640000",
                "code" : "0x61ffff5060046000f3",
                "nonce" : "0x01",
                "storage" : {
                }
            },
            "0x2adc25665018aa1fe0e6bc666dac8fc2697ff9ba" : {
                "balance" : "0x4563918244f4d185",
                "code" : "",
                "nonce" : "0x00",
                "storage" : {
                }
            },
            "0x6295ee1b4f6dd65047762f924ecd367c17eabf8f" : {
                "balance" : "0x0186a0",
                "code" : "",
                "nonce" : "0x00",
                "storage" : {
                }
            },
            "0xa94f5374fce5edbc8e2a8697c15331677e6ebf0b" : {
                "balance" : "0x0de0b6b3a761a7db",
                "code" : "",
                "nonce" : "0x01",
                "storage" : {
                }
            }
        },
        "pre" : {
            "0x0f572e5295c57f15886f9b263e2f6d2d6c7b5ec6" : {
                "balance" : "0x0de0b6b3a7640000",
                "code" : "0x61ffff5060046000f3",
                "nonce" : "0x01",
                "storage" : {
                }
            },
            "0xa94f5374fce5edbc8e2a8697c15331677e6ebf0b" : {
                "balance" : "0x0de0b6b3a7640000",
                "code" : "",
                "nonce" : "0x00",
                "storage" : {
                }
            }
        }
    }
}