{
    "Opcodes_TransactionInit_d120g0v0_Byzantium" : {
        "_info" : {
            "comment" : "",
            "filledwith" : "cpp-1.3.0+commit.6e0ce939.Linux.g++",
            "lllcversion" : "Version: 0.4.18-develop.2017.9.25+commit.a72237f2.Linux.g++",
            "source" : "src/BlockchainTestsFiller/GeneralStateTests/stTransactionTest/Opcodes_TransactionInit_d120g0v0Filler.json",
            "sourceHash" : "12f63d3e8dd25014937adee57390eb6c4b1e44c02a00f6c1b173bbdf6afefc1c"
        },
        "blocks" : [
            {
                "blockHeader" : {
                    "bloom" : "0x00000000000000000000000000000000000000000000000000000000000000000000000000000000000000000000000000000000000000000000000000000000000000000000000000000000000000000000000000000000000000000000000000000000000000000000000000000000000000000000000000000000000000000000000000000000000000000000000000000000000000000000000000000000000000000000000000000000000000000000000000000000000000000000000000000000000000000000000000000000000000000000000000000000000000000000000000000000000000000000000000000000000000000000000000000000",
                    "coinbase" : "0x2adc25665018aa1fe0e6bc666dac8fc2697ff9ba",
                    "difficulty" : "0x020000",
                    "extraData" : "",
                    "gasLimit" : "0x0f4240",
                    "gasUsed" : "0x014e8d",
                    "hash" : "0xd8b9e0fdff51ba620b2642508ce88b4030c53a52469640ed18f5cf4ef35dca20",
                    "mixHash" : "0x2466139b446112a0603dcfbed5a08e56aa3b20caefa12b3aeecc26e76212e0c6",
                    "nonce" : "0xb6f5a2f1a4080c17",
                    "number" : "0x01",
                    "parentHash" : "0xa9b003c176d2037cf7095f0b73892729cba523a7b887ad67d3c517ed26b9e31b",
                    "receiptTrie" : "0x640afd8626e2440a59e21775b46a3451c283307babfa79e9d4b7f8f4bb9ee1bf",
                    "stateRoot" : "0x54d5139980988314d89abf54bde432428da4e38e9883ea4e94c558e20320b2d5",
                    "timestamp" : "0x03e8",
                    "transactionsTrie" : "0x9ef1a8562c56567d7e8c5e80af4eebe7b7732b59e880b3d63b41edc9bc8dee3c",
                    "uncleHash" : "0x1dcc4de8dec75d7aab85b567b6ccd41ad312451b948a7413f0a142fd40d49347"
                },
                "rlp" : "0xf9025cf901f8a0a9b003c176d2037cf7095f0b73892729cba523a7b887ad67d3c517ed26b9e31ba01dcc4de8dec75d7aab85b567b6ccd41ad312451b948a7413f0a142fd40d49347942adc25665018aa1fe0e6bc666dac8fc2697ff9baa054d5139980988314d89abf54bde432428da4e38e9883ea4e94c558e20320b2d5a09ef1a8562c56567d7e8c5e80af4eebe7b7732b59e880b3d63b41edc9bc8dee3ca0640afd8626e2440a59e21775b46a3451c283307babfa79e9d4b7f8f4bb9ee1bfb90100000000000000000000000000000000000000000000000000000000000000000000000000000000000000000000000000000000000000000000000000000000000000000000000000000000000000000000000000000000000000000000000000000000000000000000000000000000000000000000000000000000000000000000000000000000000000000000000000000000000000000000000000000000000000000000000000000000000000000000000000000000000000000000000000000000000000000000000000000000000000000000000000000000000000000000000000000000000000000000000000000000000000000000000000000000008302000001830f424083014e8d8203e880a02466139b446112a0603dcfbed5a08e56aa3b20caefa12b3aeecc26e76212e0c688b6f5a2f1a4080c17f85ef85c800183061a8080830186a08d6000600060fff05060006000f31ca0aa733f7efdabb91c6d646e96732107cd8553585ce75ca93de78488ff79be4d00a044e78dd6b74e5bea5c8595770262a9130290b5562127a8a7c326a90a9330c7fec0",
                "transactions" : [
                    {
                        "data" : "0x6000600060fff05060006000f3",
                        "gasLimit" : "0x061a80",
                        "gasPrice" : "0x01",
                        "nonce" : "0x00",
                        "r" : "0xaa733f7efdabb91c6d646e96732107cd8553585ce75ca93de78488ff79be4d00",
                        "s" : "0x44e78dd6b74e5bea5c8595770262a9130290b5562127a8a7c326a90a9330c7fe",
                        "to" : "",
                        "v" : "0x1c",
                        "value" : "0x0186a0"
                    }
                ],
                "uncleHeaders" : [
                ]
            }
        ],
        "genesisBlockHeader" : {
            "bloom" : "0x00000000000000000000000000000000000000000000000000000000000000000000000000000000000000000000000000000000000000000000000000000000000000000000000000000000000000000000000000000000000000000000000000000000000000000000000000000000000000000000000000000000000000000000000000000000000000000000000000000000000000000000000000000000000000000000000000000000000000000000000000000000000000000000000000000000000000000000000000000000000000000000000000000000000000000000000000000000000000000000000000000000000000000000000000000000",
            "coinbase" : "0x2adc25665018aa1fe0e6bc666dac8fc2697ff9ba",
            "difficulty" : "0x020000",
            "extraData" : "0x42",
            "gasLimit" : "0x0f4240",
            "gasUsed" : "0x00",
            "hash" : "0xa9b003c176d2037cf7095f0b73892729cba523a7b887ad67d3c517ed26b9e31b",
            "mixHash" : "0x56e81f171bcc55a6ff8345e692c0f86e5b48e01b996cadc001622fb5e363b421",
            "nonce" : "0x0102030405060708",
            "number" : "0x00",
            "parentHash" : "0x0000000000000000000000000000000000000000000000000000000000000000",
            "receiptTrie" : "0x56e81f171bcc55a6ff8345e692c0f86e5b48e01b996cadc001622fb5e363b421",
            "stateRoot" : "0xe77f3052601feb5eee19025a8b8caa2b6c4374448dc40d5ef15cec0b8e129ac7",
            "timestamp" : "0x03b6",
            "transactionsTrie" : "0x56e81f171bcc55a6ff8345e692c0f86e5b48e01b996cadc001622fb5e363b421",
            "uncleHash" : "0x1dcc4de8dec75d7aab85b567b6ccd41ad312451b948a7413f0a142fd40d49347"
        },
        "genesisRLP" : "0xf901faf901f5a00000000000000000000000000000000000000000000000000000000000000000a01dcc4de8dec75d7aab85b567b6ccd41ad312451b948a7413f0a142fd40d49347942adc25665018aa1fe0e6bc666dac8fc2697ff9baa0e77f3052601feb5eee19025a8b8caa2b6c4374448dc40d5ef15cec0b8e129ac7a056e81f171bcc55a6ff8345e692c0f86e5b48e01b996cadc001622fb5e363b421a056e81f171bcc55a6ff8345e692c0f86e5b48e01b996cadc001622fb5e363b421b90100000000000000000000000000000000000000000000000000000000000000000000000000000000000000000000000000000000000000000000000000000000000000000000000000000000000000000000000000000000000000000000000000000000000000000000000000000000000000000000000000000000000000000000000000000000000000000000000000000000000000000000000000000000000000000000000000000000000000000000000000000000000000000000000000000000000000000000000000000000000000000000000000000000000000000000000000000000000000000000000000000000000000000000000000000000008302000080830f4240808203b642a056e81f171bcc55a6ff8345e692c0f86e5b48e01b996cadc001622fb5e363b421880102030405060708c0c0",
        "lastblockhash" : "0xd8b9e0fdff51ba620b2642508ce88b4030c53a52469640ed18f5cf4ef35dca20",
        "network" : "Byzantium",
        "postState" : {
            "0x0f572e5295c57f15886f9b263e2f6d2d6c7b5ec6" : {
                "balance" : "0x0de0b6b3a7640000",
                "code" : "0x61ffff5060046000f3",
                "nonce" : "0x01",
                "storage" : {
                }
            },
            "0x2adc25665018aa1fe0e6bc666dac8fc2697ff9ba" : {
                "balance" : "0x29a2241af62d4e8d",
                "code" : "",
                "nonce" : "0x00",
                "storage" : {
                }
            },
            "0x6295ee1b4f6dd65047762f924ecd367c17eabf8f" : {
                "balance" : "0x0185a1",
                "code" : "",
                "nonce" : "0x02",
                "storage" : {
                }
            },
            "0x64e2ebd6405af8cb348aec519084d3fff42ebba6" : {
                "balance" : "0xff",
                "code" : "",
                "nonce" : "0x01",
                "storage" : {
                }
            },
            "0xa94f5374fce5edbc8e2a8697c15331677e6ebf0b" : {
                "balance" : "0x0de0b6b3a7612ad3",
                "code" : "",
                "nonce" : "0x01",
                "storage" : {
                }
            }
        },
        "pre" : {
            "0x0f572e5295c57f15886f9b263e2f6d2d6c7b5ec6" : {
                "balance" : "0x0de0b6b3a7640000",
                "code" : "0x61ffff5060046000f3",
                "nonce" : "0x01",
                "storage" : {
                }
            },
            "0xa94f5374fce5edbc8e2a8697c15331677e6ebf0b" : {
                "balance" : "0x0de0b6b3a7640000",
                "code" : "",
                "nonce" : "0x00",
                "storage" : {
                }
            }
        }
    },
    "Opcodes_TransactionInit_d120g0v0_EIP150" : {
        "_info" : {
            "comment" : "",
            "filledwith" : "cpp-1.3.0+commit.6e0ce939.Linux.g++",
            "lllcversion" : "Version: 0.4.18-develop.2017.9.25+commit.a72237f2.Linux.g++",
            "source" : "src/BlockchainTestsFiller/GeneralStateTests/stTransactionTest/Opcodes_TransactionInit_d120g0v0Filler.json",
            "sourceHash" : "12f63d3e8dd25014937adee57390eb6c4b1e44c02a00f6c1b173bbdf6afefc1c"
        },
        "blocks" : [
            {
                "blockHeader" : {
                    "bloom" : "0x00000000000000000000000000000000000000000000000000000000000000000000000000000000000000000000000000000000000000000000000000000000000000000000000000000000000000000000000000000000000000000000000000000000000000000000000000000000000000000000000000000000000000000000000000000000000000000000000000000000000000000000000000000000000000000000000000000000000000000000000000000000000000000000000000000000000000000000000000000000000000000000000000000000000000000000000000000000000000000000000000000000000000000000000000000000",
                    "coinbase" : "0x2adc25665018aa1fe0e6bc666dac8fc2697ff9ba",
                    "difficulty" : "0x020000",
                    "extraData" : "",
                    "gasLimit" : "0x0f4240",
                    "gasUsed" : "0x014e8d",
                    "hash" : "0x639d2deac99b319ce4ba58ea0a9930678e5cbd679de0f87336d926fb81a00e42",
                    "mixHash" : "0xf0dbe0d5b468510f6f537237d470feeff1b04d54a0b6b76df3fdbc1714f3064a",
                    "nonce" : "0xc165461ab7cb389a",
                    "number" : "0x01",
                    "parentHash" : "0xa9b003c176d2037cf7095f0b73892729cba523a7b887ad67d3c517ed26b9e31b",
                    "receiptTrie" : "0x8aa22644d5aa788c8249a049a19f229c22b90249b6e4943c88ff5c77a9288682",
                    "stateRoot" : "0x505518eec7ed0a86f0b381ad81bb23462f0750b84fd6f048869492ff90d56625",
                    "timestamp" : "0x03e8",
                    "transactionsTrie" : "0x9ef1a8562c56567d7e8c5e80af4eebe7b7732b59e880b3d63b41edc9bc8dee3c",
                    "uncleHash" : "0x1dcc4de8dec75d7aab85b567b6ccd41ad312451b948a7413f0a142fd40d49347"
                },
                "rlp" : "0xf9025cf901f8a0a9b003c176d2037cf7095f0b73892729cba523a7b887ad67d3c517ed26b9e31ba01dcc4de8dec75d7aab85b567b6ccd41ad312451b948a7413f0a142fd40d49347942adc25665018aa1fe0e6bc666dac8fc2697ff9baa0505518eec7ed0a86f0b381ad81bb23462f0750b84fd6f048869492ff90d56625a09ef1a8562c56567d7e8c5e80af4eebe7b7732b59e880b3d63b41edc9bc8dee3ca08aa22644d5aa788c8249a049a19f229c22b90249b6e4943c88ff5c77a9288682b90100000000000000000000000000000000000000000000000000000000000000000000000000000000000000000000000000000000000000000000000000000000000000000000000000000000000000000000000000000000000000000000000000000000000000000000000000000000000000000000000000000000000000000000000000000000000000000000000000000000000000000000000000000000000000000000000000000000000000000000000000000000000000000000000000000000000000000000000000000000000000000000000000000000000000000000000000000000000000000000000000000000000000000000000000000000008302000001830f424083014e8d8203e880a0f0dbe0d5b468510f6f537237d470feeff1b04d54a0b6b76df3fdbc1714f3064a88c165461ab7cb389af85ef85c800183061a8080830186a08d6000600060fff05060006000f31ca0aa733f7efdabb91c6d646e96732107cd8553585ce75ca93de78488ff79be4d00a044e78dd6b74e5bea5c8595770262a9130290b5562127a8a7c326a90a9330c7fec0",
                "transactions" : [
                    {
                        "data" : "0x6000600060fff05060006000f3",
                        "gasLimit" : "0x061a80",
                        "gasPrice" : "0x01",
                        "nonce" : "0x00",
                        "r" : "0xaa733f7efdabb91c6d646e96732107cd8553585ce75ca93de78488ff79be4d00",
                        "s" : "0x44e78dd6b74e5bea5c8595770262a9130290b5562127a8a7c326a90a9330c7fe",
                        "to" : "",
                        "v" : "0x1c",
                        "value" : "0x0186a0"
                    }
                ],
                "uncleHeaders" : [
                ]
            }
        ],
        "genesisBlockHeader" : {
            "bloom" : "0x00000000000000000000000000000000000000000000000000000000000000000000000000000000000000000000000000000000000000000000000000000000000000000000000000000000000000000000000000000000000000000000000000000000000000000000000000000000000000000000000000000000000000000000000000000000000000000000000000000000000000000000000000000000000000000000000000000000000000000000000000000000000000000000000000000000000000000000000000000000000000000000000000000000000000000000000000000000000000000000000000000000000000000000000000000000",
            "coinbase" : "0x2adc25665018aa1fe0e6bc666dac8fc2697ff9ba",
            "difficulty" : "0x020000",
            "extraData" : "0x42",
            "gasLimit" : "0x0f4240",
            "gasUsed" : "0x00",
            "hash" : "0xa9b003c176d2037cf7095f0b73892729cba523a7b887ad67d3c517ed26b9e31b",
            "mixHash" : "0x56e81f171bcc55a6ff8345e692c0f86e5b48e01b996cadc001622fb5e363b421",
            "nonce" : "0x0102030405060708",
            "number" : "0x00",
            "parentHash" : "0x0000000000000000000000000000000000000000000000000000000000000000",
            "receiptTrie" : "0x56e81f171bcc55a6ff8345e692c0f86e5b48e01b996cadc001622fb5e363b421",
            "stateRoot" : "0xe77f3052601feb5eee19025a8b8caa2b6c4374448dc40d5ef15cec0b8e129ac7",
            "timestamp" : "0x03b6",
            "transactionsTrie" : "0x56e81f171bcc55a6ff8345e692c0f86e5b48e01b996cadc001622fb5e363b421",
            "uncleHash" : "0x1dcc4de8dec75d7aab85b567b6ccd41ad312451b948a7413f0a142fd40d49347"
        },
        "genesisRLP" : "0xf901faf901f5a00000000000000000000000000000000000000000000000000000000000000000a01dcc4de8dec75d7aab85b567b6ccd41ad312451b948a7413f0a142fd40d49347942adc25665018aa1fe0e6bc666dac8fc2697ff9baa0e77f3052601feb5eee19025a8b8caa2b6c4374448dc40d5ef15cec0b8e129ac7a056e81f171bcc55a6ff8345e692c0f86e5b48e01b996cadc001622fb5e363b421a056e81f171bcc55a6ff8345e692c0f86e5b48e01b996cadc001622fb5e363b421b90100000000000000000000000000000000000000000000000000000000000000000000000000000000000000000000000000000000000000000000000000000000000000000000000000000000000000000000000000000000000000000000000000000000000000000000000000000000000000000000000000000000000000000000000000000000000000000000000000000000000000000000000000000000000000000000000000000000000000000000000000000000000000000000000000000000000000000000000000000000000000000000000000000000000000000000000000000000000000000000000000000000000000000000000000000000008302000080830f4240808203b642a056e81f171bcc55a6ff8345e692c0f86e5b48e01b996cadc001622fb5e363b421880102030405060708c0c0",
        "lastblockhash" : "0x639d2deac99b319ce4ba58ea0a9930678e5cbd679de0f87336d926fb81a00e42",
        "network" : "EIP150",
        "postState" : {
            "0x0f572e5295c57f15886f9b263e2f6d2d6c7b5ec6" : {
                "balance" : "0x0de0b6b3a7640000",
                "code" : "0x61ffff5060046000f3",
                "nonce" : "0x01",
                "storage" : {
                }
            },
            "0x2adc25665018aa1fe0e6bc666dac8fc2697ff9ba" : {
                "balance" : "0x4563918244f54e8d",
                "code" : "",
                "nonce" : "0x00",
                "storage" : {
                }
            },
            "0x6295ee1b4f6dd65047762f924ecd367c17eabf8f" : {
                "balance" : "0x0185a1",
                "code" : "",
                "nonce" : "0x01",
                "storage" : {
                }
            },
            "0xa42676447b7cedfa5fde894d1d3df24aab362701" : {
                "balance" : "0xff",
                "code" : "",
                "nonce" : "0x00",
                "storage" : {
                }
            },
            "0xa94f5374fce5edbc8e2a8697c15331677e6ebf0b" : {
                "balance" : "0x0de0b6b3a7612ad3",
                "code" : "",
                "nonce" : "0x01",
                "storage" : {
                }
            }
        },
        "pre" : {
            "0x0f572e5295c57f15886f9b263e2f6d2d6c7b5ec6" : {
                "balance" : "0x0de0b6b3a7640000",
                "code" : "0x61ffff5060046000f3",
                "nonce" : "0x01",
                "storage" : {
                }
            },
            "0xa94f5374fce5edbc8e2a8697c15331677e6ebf0b" : {
                "balance" : "0x0de0b6b3a7640000",
                "code" : "",
                "nonce" : "0x00",
                "storage" : {
                }
            }
        }
    },
    "Opcodes_TransactionInit_d120g0v0_EIP158" : {
        "_info" : {
            "comment" : "",
            "filledwith" : "cpp-1.3.0+commit.6e0ce939.Linux.g++",
            "lllcversion" : "Version: 0.4.18-develop.2017.9.25+commit.a72237f2.Linux.g++",
            "source" : "src/BlockchainTestsFiller/GeneralStateTests/stTransactionTest/Opcodes_TransactionInit_d120g0v0Filler.json",
            "sourceHash" : "12f63d3e8dd25014937adee57390eb6c4b1e44c02a00f6c1b173bbdf6afefc1c"
        },
        "blocks" : [
            {
                "blockHeader" : {
                    "bloom" : "0x00000000000000000000000000000000000000000000000000000000000000000000000000000000000000000000000000000000000000000000000000000000000000000000000000000000000000000000000000000000000000000000000000000000000000000000000000000000000000000000000000000000000000000000000000000000000000000000000000000000000000000000000000000000000000000000000000000000000000000000000000000000000000000000000000000000000000000000000000000000000000000000000000000000000000000000000000000000000000000000000000000000000000000000000000000000",
                    "coinbase" : "0x2adc25665018aa1fe0e6bc666dac8fc2697ff9ba",
                    "difficulty" : "0x020000",
                    "extraData" : "",
                    "gasLimit" : "0x0f4240",
                    "gasUsed" : "0x014e8d",
                    "hash" : "0x5f44073ee8911b723e2a88a83a781b745d8457a539a4ee6a2717bd24151ae114",
                    "mixHash" : "0x74e534c47e117499fa87a941f86ade395d2657e54f4022395bbd44776b3baa74",
                    "nonce" : "0x8bddbcb56e1b4e18",
                    "number" : "0x01",
                    "parentHash" : "0xa9b003c176d2037cf7095f0b73892729cba523a7b887ad67d3c517ed26b9e31b",
                    "receiptTrie" : "0xfff068451765a555b4642862ce5e32a78c9d224d048f6b41577cc0a57ed9622c",
                    "stateRoot" : "0xe700c260ecece0e68aea581ba0e0511cad0d2afdd219ff231bcd2a1e46096e1e",
                    "timestamp" : "0x03e8",
                    "transactionsTrie" : "0x9ef1a8562c56567d7e8c5e80af4eebe7b7732b59e880b3d63b41edc9bc8dee3c",
                    "uncleHash" : "0x1dcc4de8dec75d7aab85b567b6ccd41ad312451b948a7413f0a142fd40d49347"
                },
                "rlp" : "0xf9025cf901f8a0a9b003c176d2037cf7095f0b73892729cba523a7b887ad67d3c517ed26b9e31ba01dcc4de8dec75d7aab85b567b6ccd41ad312451b948a7413f0a142fd40d49347942adc25665018aa1fe0e6bc666dac8fc2697ff9baa0e700c260ecece0e68aea581ba0e0511cad0d2afdd219ff231bcd2a1e46096e1ea09ef1a8562c56567d7e8c5e80af4eebe7b7732b59e880b3d63b41edc9bc8dee3ca0fff068451765a555b4642862ce5e32a78c9d224d048f6b41577cc0a57ed9622cb90100000000000000000000000000000000000000000000000000000000000000000000000000000000000000000000000000000000000000000000000000000000000000000000000000000000000000000000000000000000000000000000000000000000000000000000000000000000000000000000000000000000000000000000000000000000000000000000000000000000000000000000000000000000000000000000000000000000000000000000000000000000000000000000000000000000000000000000000000000000000000000000000000000000000000000000000000000000000000000000000000000000000000000000000000000000008302000001830f424083014e8d8203e880a074e534c47e117499fa87a941f86ade395d2657e54f4022395bbd44776b3baa74888bddbcb56e1b4e18f85ef85c800183061a8080830186a08d6000600060fff05060006000f31ca0aa733f7efdabb91c6d646e96732107cd8553585ce75ca93de78488ff79be4d00a044e78dd6b74e5bea5c8595770262a9130290b5562127a8a7c326a90a9330c7fec0",
                "transactions" : [
                    {
                        "data" : "0x6000600060fff05060006000f3",
                        "gasLimit" : "0x061a80",
                        "gasPrice" : "0x01",
                        "nonce" : "0x00",
                        "r" : "0xaa733f7efdabb91c6d646e96732107cd8553585ce75ca93de78488ff79be4d00",
                        "s" : "0x44e78dd6b74e5bea5c8595770262a9130290b5562127a8a7c326a90a9330c7fe",
                        "to" : "",
                        "v" : "0x1c",
                        "value" : "0x0186a0"
                    }
                ],
                "uncleHeaders" : [
                ]
            }
        ],
        "genesisBlockHeader" : {
            "bloom" : "0x00000000000000000000000000000000000000000000000000000000000000000000000000000000000000000000000000000000000000000000000000000000000000000000000000000000000000000000000000000000000000000000000000000000000000000000000000000000000000000000000000000000000000000000000000000000000000000000000000000000000000000000000000000000000000000000000000000000000000000000000000000000000000000000000000000000000000000000000000000000000000000000000000000000000000000000000000000000000000000000000000000000000000000000000000000000",
            "coinbase" : "0x2adc25665018aa1fe0e6bc666dac8fc2697ff9ba",
            "difficulty" : "0x020000",
            "extraData" : "0x42",
            "gasLimit" : "0x0f4240",
            "gasUsed" : "0x00",
            "hash" : "0xa9b003c176d2037cf7095f0b73892729cba523a7b887ad67d3c517ed26b9e31b",
            "mixHash" : "0x56e81f171bcc55a6ff8345e692c0f86e5b48e01b996cadc001622fb5e363b421",
            "nonce" : "0x0102030405060708",
            "number" : "0x00",
            "parentHash" : "0x0000000000000000000000000000000000000000000000000000000000000000",
            "receiptTrie" : "0x56e81f171bcc55a6ff8345e692c0f86e5b48e01b996cadc001622fb5e363b421",
            "stateRoot" : "0xe77f3052601feb5eee19025a8b8caa2b6c4374448dc40d5ef15cec0b8e129ac7",
            "timestamp" : "0x03b6",
            "transactionsTrie" : "0x56e81f171bcc55a6ff8345e692c0f86e5b48e01b996cadc001622fb5e363b421",
            "uncleHash" : "0x1dcc4de8dec75d7aab85b567b6ccd41ad312451b948a7413f0a142fd40d49347"
        },
        "genesisRLP" : "0xf901faf901f5a00000000000000000000000000000000000000000000000000000000000000000a01dcc4de8dec75d7aab85b567b6ccd41ad312451b948a7413f0a142fd40d49347942adc25665018aa1fe0e6bc666dac8fc2697ff9baa0e77f3052601feb5eee19025a8b8caa2b6c4374448dc40d5ef15cec0b8e129ac7a056e81f171bcc55a6ff8345e692c0f86e5b48e01b996cadc001622fb5e363b421a056e81f171bcc55a6ff8345e692c0f86e5b48e01b996cadc001622fb5e363b421b90100000000000000000000000000000000000000000000000000000000000000000000000000000000000000000000000000000000000000000000000000000000000000000000000000000000000000000000000000000000000000000000000000000000000000000000000000000000000000000000000000000000000000000000000000000000000000000000000000000000000000000000000000000000000000000000000000000000000000000000000000000000000000000000000000000000000000000000000000000000000000000000000000000000000000000000000000000000000000000000000000000000000000000000000000000000008302000080830f4240808203b642a056e81f171bcc55a6ff8345e692c0f86e5b48e01b996cadc001622fb5e363b421880102030405060708c0c0",
        "lastblockhash" : "0x5f44073ee8911b723e2a88a83a781b745d8457a539a4ee6a2717bd24151ae114",
        "network" : "EIP158",
        "postState" : {
            "0x0f572e5295c57f15886f9b263e2f6d2d6c7b5ec6" : {
                "balance" : "0x0de0b6b3a7640000",
                "code" : "0x61ffff5060046000f3",
                "nonce" : "0x01",
                "storage" : {
                }
            },
            "0x2adc25665018aa1fe0e6bc666dac8fc2697ff9ba" : {
                "balance" : "0x4563918244f54e8d",
                "code" : "",
                "nonce" : "0x00",
                "storage" : {
                }
            },
            "0x6295ee1b4f6dd65047762f924ecd367c17eabf8f" : {
                "balance" : "0x0185a1",
                "code" : "",
                "nonce" : "0x02",
                "storage" : {
                }
            },
            "0x64e2ebd6405af8cb348aec519084d3fff42ebba6" : {
                "balance" : "0xff",
                "code" : "",
                "nonce" : "0x01",
                "storage" : {
                }
            },
            "0xa94f5374fce5edbc8e2a8697c15331677e6ebf0b" : {
                "balance" : "0x0de0b6b3a7612ad3",
                "code" : "",
                "nonce" : "0x01",
                "storage" : {
                }
            }
        },
        "pre" : {
            "0x0f572e5295c57f15886f9b263e2f6d2d6c7b5ec6" : {
                "balance" : "0x0de0b6b3a7640000",
                "code" : "0x61ffff5060046000f3",
                "nonce" : "0x01",
                "storage" : {
                }
            },
            "0xa94f5374fce5edbc8e2a8697c15331677e6ebf0b" : {
                "balance" : "0x0de0b6b3a7640000",
                "code" : "",
                "nonce" : "0x00",
                "storage" : {
                }
            }
        }
    },
    "Opcodes_TransactionInit_d120g0v0_Frontier" : {
        "_info" : {
            "comment" : "",
            "filledwith" : "cpp-1.3.0+commit.6e0ce939.Linux.g++",
            "lllcversion" : "Version: 0.4.18-develop.2017.9.25+commit.a72237f2.Linux.g++",
            "source" : "src/BlockchainTestsFiller/GeneralStateTests/stTransactionTest/Opcodes_TransactionInit_d120g0v0Filler.json",
            "sourceHash" : "12f63d3e8dd25014937adee57390eb6c4b1e44c02a00f6c1b173bbdf6afefc1c"
        },
        "blocks" : [
            {
                "blockHeader" : {
                    "bloom" : "0x00000000000000000000000000000000000000000000000000000000000000000000000000000000000000000000000000000000000000000000000000000000000000000000000000000000000000000000000000000000000000000000000000000000000000000000000000000000000000000000000000000000000000000000000000000000000000000000000000000000000000000000000000000000000000000000000000000000000000000000000000000000000000000000000000000000000000000000000000000000000000000000000000000000000000000000000000000000000000000000000000000000000000000000000000000000",
                    "coinbase" : "0x2adc25665018aa1fe0e6bc666dac8fc2697ff9ba",
                    "difficulty" : "0x020000",
                    "extraData" : "",
                    "gasLimit" : "0x0f4240",
                    "gasUsed" : "0xd18d",
                    "hash" : "0xa7f5f8a7f7d8c9c32dfcfdaa77fd41e021215b9809b8063e486fe328a14bdbb4",
                    "mixHash" : "0xc47e71c5d73d399eb3270a9e925983ec58c4aaccccefc501c1a3fb1d0fbcff57",
                    "nonce" : "0xaf47e6aa255018d6",
                    "number" : "0x01",
                    "parentHash" : "0xa9b003c176d2037cf7095f0b73892729cba523a7b887ad67d3c517ed26b9e31b",
                    "receiptTrie" : "0x4f0c2738bab04b51aa787051e4c76fa66c7a51fefa77cb1b98650a2b5402043c",
                    "stateRoot" : "0x0ce9e1cc1066222561e5c1a26f0dd7fd3fc9b72f4444dfeb77971df70fdadf57",
                    "timestamp" : "0x03e8",
                    "transactionsTrie" : "0x9ef1a8562c56567d7e8c5e80af4eebe7b7732b59e880b3d63b41edc9bc8dee3c",
                    "uncleHash" : "0x1dcc4de8dec75d7aab85b567b6ccd41ad312451b948a7413f0a142fd40d49347"
                },
                "rlp" : "0xf9025bf901f7a0a9b003c176d2037cf7095f0b73892729cba523a7b887ad67d3c517ed26b9e31ba01dcc4de8dec75d7aab85b567b6ccd41ad312451b948a7413f0a142fd40d49347942adc25665018aa1fe0e6bc666dac8fc2697ff9baa00ce9e1cc1066222561e5c1a26f0dd7fd3fc9b72f4444dfeb77971df70fdadf57a09ef1a8562c56567d7e8c5e80af4eebe7b7732b59e880b3d63b41edc9bc8dee3ca04f0c2738bab04b51aa787051e4c76fa66c7a51fefa77cb1b98650a2b5402043cb90100000000000000000000000000000000000000000000000000000000000000000000000000000000000000000000000000000000000000000000000000000000000000000000000000000000000000000000000000000000000000000000000000000000000000000000000000000000000000000000000000000000000000000000000000000000000000000000000000000000000000000000000000000000000000000000000000000000000000000000000000000000000000000000000000000000000000000000000000000000000000000000000000000000000000000000000000000000000000000000000000000000000000000000000000000000008302000001830f424082d18d8203e880a0c47e71c5d73d399eb3270a9e925983ec58c4aaccccefc501c1a3fb1d0fbcff5788af47e6aa255018d6f85ef85c800183061a8080830186a08d6000600060fff05060006000f31ca0aa733f7efdabb91c6d646e96732107cd8553585ce75ca93de78488ff79be4d00a044e78dd6b74e5bea5c8595770262a9130290b5562127a8a7c326a90a9330c7fec0",
                "transactions" : [
                    {
                        "data" : "0x6000600060fff05060006000f3",
                        "gasLimit" : "0x061a80",
                        "gasPrice" : "0x01",
                        "nonce" : "0x00",
                        "r" : "0xaa733f7efdabb91c6d646e96732107cd8553585ce75ca93de78488ff79be4d00",
                        "s" : "0x44e78dd6b74e5bea5c8595770262a9130290b5562127a8a7c326a90a9330c7fe",
                        "to" : "",
                        "v" : "0x1c",
                        "value" : "0x0186a0"
                    }
                ],
                "uncleHeaders" : [
                ]
            }
        ],
        "genesisBlockHeader" : {
            "bloom" : "0x00000000000000000000000000000000000000000000000000000000000000000000000000000000000000000000000000000000000000000000000000000000000000000000000000000000000000000000000000000000000000000000000000000000000000000000000000000000000000000000000000000000000000000000000000000000000000000000000000000000000000000000000000000000000000000000000000000000000000000000000000000000000000000000000000000000000000000000000000000000000000000000000000000000000000000000000000000000000000000000000000000000000000000000000000000000",
            "coinbase" : "0x2adc25665018aa1fe0e6bc666dac8fc2697ff9ba",
            "difficulty" : "0x020000",
            "extraData" : "0x42",
            "gasLimit" : "0x0f4240",
            "gasUsed" : "0x00",
            "hash" : "0xa9b003c176d2037cf7095f0b73892729cba523a7b887ad67d3c517ed26b9e31b",
            "mixHash" : "0x56e81f171bcc55a6ff8345e692c0f86e5b48e01b996cadc001622fb5e363b421",
            "nonce" : "0x0102030405060708",
            "number" : "0x00",
            "parentHash" : "0x0000000000000000000000000000000000000000000000000000000000000000",
            "receiptTrie" : "0x56e81f171bcc55a6ff8345e692c0f86e5b48e01b996cadc001622fb5e363b421",
            "stateRoot" : "0xe77f3052601feb5eee19025a8b8caa2b6c4374448dc40d5ef15cec0b8e129ac7",
            "timestamp" : "0x03b6",
            "transactionsTrie" : "0x56e81f171bcc55a6ff8345e692c0f86e5b48e01b996cadc001622fb5e363b421",
            "uncleHash" : "0x1dcc4de8dec75d7aab85b567b6ccd41ad312451b948a7413f0a142fd40d49347"
        },
        "genesisRLP" : "0xf901faf901f5a00000000000000000000000000000000000000000000000000000000000000000a01dcc4de8dec75d7aab85b567b6ccd41ad312451b948a7413f0a142fd40d49347942adc25665018aa1fe0e6bc666dac8fc2697ff9baa0e77f3052601feb5eee19025a8b8caa2b6c4374448dc40d5ef15cec0b8e129ac7a056e81f171bcc55a6ff8345e692c0f86e5b48e01b996cadc001622fb5e363b421a056e81f171bcc55a6ff8345e692c0f86e5b48e01b996cadc001622fb5e363b421b90100000000000000000000000000000000000000000000000000000000000000000000000000000000000000000000000000000000000000000000000000000000000000000000000000000000000000000000000000000000000000000000000000000000000000000000000000000000000000000000000000000000000000000000000000000000000000000000000000000000000000000000000000000000000000000000000000000000000000000000000000000000000000000000000000000000000000000000000000000000000000000000000000000000000000000000000000000000000000000000000000000000000000000000000000000000008302000080830f4240808203b642a056e81f171bcc55a6ff8345e692c0f86e5b48e01b996cadc001622fb5e363b421880102030405060708c0c0",
        "lastblockhash" : "0xa7f5f8a7f7d8c9c32dfcfdaa77fd41e021215b9809b8063e486fe328a14bdbb4",
        "network" : "Frontier",
        "postState" : {
            "0x0f572e5295c57f15886f9b263e2f6d2d6c7b5ec6" : {
                "balance" : "0x0de0b6b3a7640000",
                "code" : "0x61ffff5060046000f3",
                "nonce" : "0x01",
                "storage" : {
                }
            },
            "0x2adc25665018aa1fe0e6bc666dac8fc2697ff9ba" : {
                "balance" : "0x4563918244f4d18d",
                "code" : "",
                "nonce" : "0x00",
                "storage" : {
                }
            },
            "0x6295ee1b4f6dd65047762f924ecd367c17eabf8f" : {
                "balance" : "0x0185a1",
                "code" : "",
                "nonce" : "0x01",
                "storage" : {
                }
            },
            "0xa42676447b7cedfa5fde894d1d3df24aab362701" : {
                "balance" : "0xff",
                "code" : "",
                "nonce" : "0x00",
                "storage" : {
                }
            },
            "0xa94f5374fce5edbc8e2a8697c15331677e6ebf0b" : {
                "balance" : "0x0de0b6b3a761a7d3",
                "code" : "",
                "nonce" : "0x01",
                "storage" : {
                }
            }
        },
        "pre" : {
            "0x0f572e5295c57f15886f9b263e2f6d2d6c7b5ec6" : {
                "balance" : "0x0de0b6b3a7640000",
                "code" : "0x61ffff5060046000f3",
                "nonce" : "0x01",
                "storage" : {
                }
            },
            "0xa94f5374fce5edbc8e2a8697c15331677e6ebf0b" : {
                "balance" : "0x0de0b6b3a7640000",
                "code" : "",
                "nonce" : "0x00",
                "storage" : {
                }
            }
        }
    },
    "Opcodes_TransactionInit_d120g0v0_Homestead" : {
        "_info" : {
            "comment" : "",
            "filledwith" : "cpp-1.3.0+commit.6e0ce939.Linux.g++",
            "lllcversion" : "Version: 0.4.18-develop.2017.9.25+commit.a72237f2.Linux.g++",
            "source" : "src/BlockchainTestsFiller/GeneralStateTests/stTransactionTest/Opcodes_TransactionInit_d120g0v0Filler.json",
            "sourceHash" : "12f63d3e8dd25014937adee57390eb6c4b1e44c02a00f6c1b173bbdf6afefc1c"
        },
        "blocks" : [
            {
                "blockHeader" : {
                    "bloom" : "0x00000000000000000000000000000000000000000000000000000000000000000000000000000000000000000000000000000000000000000000000000000000000000000000000000000000000000000000000000000000000000000000000000000000000000000000000000000000000000000000000000000000000000000000000000000000000000000000000000000000000000000000000000000000000000000000000000000000000000000000000000000000000000000000000000000000000000000000000000000000000000000000000000000000000000000000000000000000000000000000000000000000000000000000000000000000",
                    "coinbase" : "0x2adc25665018aa1fe0e6bc666dac8fc2697ff9ba",
                    "difficulty" : "0x020000",
                    "extraData" : "",
                    "gasLimit" : "0x0f4240",
                    "gasUsed" : "0x014e8d",
                    "hash" : "0x5b981ec3f574c7bf2c64994b622304bc7cd48cf494ae1dbfba989d34b09af42c",
                    "mixHash" : "0x86813b0196b05c74233739787a7f21fe49788ae2814404202f3bf5dc5b639c82",
                    "nonce" : "0xd3516e563bd0adc8",
                    "number" : "0x01",
                    "parentHash" : "0xa9b003c176d2037cf7095f0b73892729cba523a7b887ad67d3c517ed26b9e31b",
                    "receiptTrie" : "0x8aa22644d5aa788c8249a049a19f229c22b90249b6e4943c88ff5c77a9288682",
                    "stateRoot" : "0x505518eec7ed0a86f0b381ad81bb23462f0750b84fd6f048869492ff90d56625",
                    "timestamp" : "0x03e8",
                    "transactionsTrie" : "0x9ef1a8562c56567d7e8c5e80af4eebe7b7732b59e880b3d63b41edc9bc8dee3c",
                    "uncleHash" : "0x1dcc4de8dec75d7aab85b567b6ccd41ad312451b948a7413f0a142fd40d49347"
                },
                "rlp" : "0xf9025cf901f8a0a9b003c176d2037cf7095f0b73892729cba523a7b887ad67d3c517ed26b9e31ba01dcc4de8dec75d7aab85b567b6ccd41ad312451b948a7413f0a142fd40d49347942adc25665018aa1fe0e6bc666dac8fc2697ff9baa0505518eec7ed0a86f0b381ad81bb23462f0750b84fd6f048869492ff90d56625a09ef1a8562c56567d7e8c5e80af4eebe7b7732b59e880b3d63b41edc9bc8dee3ca08aa22644d5aa788c8249a049a19f229c22b90249b6e4943c88ff5c77a9288682b90100000000000000000000000000000000000000000000000000000000000000000000000000000000000000000000000000000000000000000000000000000000000000000000000000000000000000000000000000000000000000000000000000000000000000000000000000000000000000000000000000000000000000000000000000000000000000000000000000000000000000000000000000000000000000000000000000000000000000000000000000000000000000000000000000000000000000000000000000000000000000000000000000000000000000000000000000000000000000000000000000000000000000000000000000000000008302000001830f424083014e8d8203e880a086813b0196b05c74233739787a7f21fe49788ae2814404202f3bf5dc5b639c8288d3516e563bd0adc8f85ef85c800183061a8080830186a08d6000600060fff05060006000f31ca0aa733f7efdabb91c6d646e96732107cd8553585ce75ca93de78488ff79be4d00a044e78dd6b74e5bea5c8595770262a9130290b5562127a8a7c326a90a9330c7fec0",
                "transactions" : [
                    {
                        "data" : "0x6000600060fff05060006000f3",
                        "gasLimit" : "0x061a80",
                        "gasPrice" : "0x01",
                        "nonce" : "0x00",
                        "r" : "0xaa733f7efdabb91c6d646e96732107cd8553585ce75ca93de78488ff79be4d00",
                        "s" : "0x44e78dd6b74e5bea5c8595770262a9130290b5562127a8a7c326a90a9330c7fe",
                        "to" : "",
                        "v" : "0x1c",
                        "value" : "0x0186a0"
                    }
                ],
                "uncleHeaders" : [
                ]
            }
        ],
        "genesisBlockHeader" : {
            "bloom" : "0x00000000000000000000000000000000000000000000000000000000000000000000000000000000000000000000000000000000000000000000000000000000000000000000000000000000000000000000000000000000000000000000000000000000000000000000000000000000000000000000000000000000000000000000000000000000000000000000000000000000000000000000000000000000000000000000000000000000000000000000000000000000000000000000000000000000000000000000000000000000000000000000000000000000000000000000000000000000000000000000000000000000000000000000000000000000",
            "coinbase" : "0x2adc25665018aa1fe0e6bc666dac8fc2697ff9ba",
            "difficulty" : "0x020000",
            "extraData" : "0x42",
            "gasLimit" : "0x0f4240",
            "gasUsed" : "0x00",
            "hash" : "0xa9b003c176d2037cf7095f0b73892729cba523a7b887ad67d3c517ed26b9e31b",
            "mixHash" : "0x56e81f171bcc55a6ff8345e692c0f86e5b48e01b996cadc001622fb5e363b421",
            "nonce" : "0x0102030405060708",
            "number" : "0x00",
            "parentHash" : "0x0000000000000000000000000000000000000000000000000000000000000000",
            "receiptTrie" : "0x56e81f171bcc55a6ff8345e692c0f86e5b48e01b996cadc001622fb5e363b421",
            "stateRoot" : "0xe77f3052601feb5eee19025a8b8caa2b6c4374448dc40d5ef15cec0b8e129ac7",
            "timestamp" : "0x03b6",
            "transactionsTrie" : "0x56e81f171bcc55a6ff8345e692c0f86e5b48e01b996cadc001622fb5e363b421",
            "uncleHash" : "0x1dcc4de8dec75d7aab85b567b6ccd41ad312451b948a7413f0a142fd40d49347"
        },
        "genesisRLP" : "0xf901faf901f5a00000000000000000000000000000000000000000000000000000000000000000a01dcc4de8dec75d7aab85b567b6ccd41ad312451b948a7413f0a142fd40d49347942adc25665018aa1fe0e6bc666dac8fc2697ff9baa0e77f3052601feb5eee19025a8b8caa2b6c4374448dc40d5ef15cec0b8e129ac7a056e81f171bcc55a6ff8345e692c0f86e5b48e01b996cadc001622fb5e363b421a056e81f171bcc55a6ff8345e692c0f86e5b48e01b996cadc001622fb5e363b421b90100000000000000000000000000000000000000000000000000000000000000000000000000000000000000000000000000000000000000000000000000000000000000000000000000000000000000000000000000000000000000000000000000000000000000000000000000000000000000000000000000000000000000000000000000000000000000000000000000000000000000000000000000000000000000000000000000000000000000000000000000000000000000000000000000000000000000000000000000000000000000000000000000000000000000000000000000000000000000000000000000000000000000000000000000000000008302000080830f4240808203b642a056e81f171bcc55a6ff8345e692c0f86e5b48e01b996cadc001622fb5e363b421880102030405060708c0c0",
        "lastblockhash" : "0x5b981ec3f574c7bf2c64994b622304bc7cd48cf494ae1dbfba989d34b09af42c",
        "network" : "Homestead",
        "postState" : {
            "0x0f572e5295c57f15886f9b263e2f6d2d6c7b5ec6" : {
                "balance" : "0x0de0b6b3a7640000",
                "code" : "0x61ffff5060046000f3",
                "nonce" : "0x01",
                "storage" : {
                }
            },
            "0x2adc25665018aa1fe0e6bc666dac8fc2697ff9ba" : {
                "balance" : "0x4563918244f54e8d",
                "code" : "",
                "nonce" : "0x00",
                "storage" : {
                }
            },
            "0x6295ee1b4f6dd65047762f924ecd367c17eabf8f" : {
                "balance" : "0x0185a1",
                "code" : "",
                "nonce" : "0x01",
                "storage" : {
                }
            },
            "0xa42676447b7cedfa5fde894d1d3df24aab362701" : {
                "balance" : "0xff",
                "code" : "",
                "nonce" : "0x00",
                "storage" : {
                }
            },
            "0xa94f5374fce5edbc8e2a8697c15331677e6ebf0b" : {
                "balance" : "0x0de0b6b3a7612ad3",
                "code" : "",
                "nonce" : "0x01",
                "storage" : {
                }
            }
        },
        "pre" : {
            "0x0f572e5295c57f15886f9b263e2f6d2d6c7b5ec6" : {
                "balance" : "0x0de0b6b3a7640000",
                "code" : "0x61ffff5060046000f3",
                "nonce" : "0x01",
                "storage" : {
                }
            },
            "0xa94f5374fce5edbc8e2a8697c15331677e6ebf0b" : {
                "balance" : "0x0de0b6b3a7640000",
                "code" : "",
                "nonce" : "0x00",
                "storage" : {
                }
            }
        }
    }
}