{
    "StoreClearsAndInternlCallStoreClearsSuccess_d0g0v0_Byzantium" : {
        "_info" : {
            "comment" : "",
            "filledwith" : "cpp-1.3.0+commit.6e0ce939.Linux.g++",
            "lllcversion" : "Version: 0.4.18-develop.2017.9.25+commit.a72237f2.Linux.g++",
            "source" : "src/BlockchainTestsFiller/GeneralStateTests/stTransactionTest/StoreClearsAndInternlCallStoreClearsSuccess_d0g0v0Filler.json",
            "sourceHash" : "c74e31e85903f0208f98b68769e74fe5014b32f0991ab3cc6dd22486999c0182"
        },
        "blocks" : [
            {
                "blockHeader" : {
                    "bloom" : "0x00000000000000000000000000000000000000000000000000000000000000000000000000000000000000000000000000000000000000000000000000000000000000000000000000000000000000000000000000000000000000000000000000000000000000000000000000000000000000000000000000000000000000000000000000000000000000000000000000000000000000000000000000000000000000000000000000000000000000000000000000000000000000000000000000000000000000000000000000000000000000000000000000000000000000000000000000000000000000000000000000000000000000000000000000000000",
                    "coinbase" : "0xb94f5374fce5edbc8e2a8697c15331677e6ebf0b",
                    "difficulty" : "0x020000",
                    "extraData" : "",
                    "gasLimit" : "0x989680",
                    "gasUsed" : "0xc065",
                    "hash" : "0xcfe629776d2be69ea1741098c996debe353ce90a92a331b79c75e7c099f16f4e",
                    "mixHash" : "0x43842e47173c95d63b908e15375a41ac272a74d3b9e83f76f6a63494c34f8cf5",
                    "nonce" : "0xb99b813d8d996707",
                    "number" : "0x01",
                    "parentHash" : "0x7de8cade80a2f10350ff0586ac067139e8e9a72ce344a47d2aa51b70abf95045",
                    "receiptTrie" : "0x1e8b4650d9acf0570038a1ee3f2c0cac01e333fd7b53d6e8d1dfd602feb56ad9",
                    "stateRoot" : "0x99b470bf428ca98c0d96b3260ad8f72bbd666e7c38c87be6a4eba2f039e847dd",
                    "timestamp" : "0x03e8",
                    "transactionsTrie" : "0x1e33dec8f8bcfa97b05c985988a668b694b06df138212e8680c788bad2ec0bae",
                    "uncleHash" : "0x1dcc4de8dec75d7aab85b567b6ccd41ad312451b948a7413f0a142fd40d49347"
                },
                "rlp" : "0xf9025ff901f7a07de8cade80a2f10350ff0586ac067139e8e9a72ce344a47d2aa51b70abf95045a01dcc4de8dec75d7aab85b567b6ccd41ad312451b948a7413f0a142fd40d4934794b94f5374fce5edbc8e2a8697c15331677e6ebf0ba099b470bf428ca98c0d96b3260ad8f72bbd666e7c38c87be6a4eba2f039e847dda01e33dec8f8bcfa97b05c985988a668b694b06df138212e8680c788bad2ec0baea01e8b4650d9acf0570038a1ee3f2c0cac01e333fd7b53d6e8d1dfd602feb56ad9b901000000000000000000000000000000000000000000000000000000000000000000000000000000000000000000000000000000000000000000000000000000000000000000000000000000000000000000000000000000000000000000000000000000000000000000000000000000000000000000000000000000000000000000000000000000000000000000000000000000000000000000000000000000000000000000000000000000000000000000000000000000000000000000000000000000000000000000000000000000000000000000000000000000000000000000000000000000000000000000000000000000000000000000000000000000000083020000018398968082c0658203e880a043842e47173c95d63b908e15375a41ac272a74d3b9e83f76f6a63494c34f8cf588b99b813d8d996707f862f860800183030d4094c94f5374fce5edbc8e2a8697c15331677e6ebf0b0a801ba06f109e4c3936cdf76c69176a1c1143141a249e08b2724b636fd5191e4c3503c5a007c20efee46c20d804ba68f87d807e74b1a6ab5bd687902d3cdc071699f446c6c0",
                "transactions" : [
                    {
                        "data" : "",
                        "gasLimit" : "0x030d40",
                        "gasPrice" : "0x01",
                        "nonce" : "0x00",
                        "r" : "0x6f109e4c3936cdf76c69176a1c1143141a249e08b2724b636fd5191e4c3503c5",
                        "s" : "0x07c20efee46c20d804ba68f87d807e74b1a6ab5bd687902d3cdc071699f446c6",
                        "to" : "0xc94f5374fce5edbc8e2a8697c15331677e6ebf0b",
                        "v" : "0x1b",
                        "value" : "0x0a"
                    }
                ],
                "uncleHeaders" : [
                ]
            }
        ],
        "genesisBlockHeader" : {
            "bloom" : "0x00000000000000000000000000000000000000000000000000000000000000000000000000000000000000000000000000000000000000000000000000000000000000000000000000000000000000000000000000000000000000000000000000000000000000000000000000000000000000000000000000000000000000000000000000000000000000000000000000000000000000000000000000000000000000000000000000000000000000000000000000000000000000000000000000000000000000000000000000000000000000000000000000000000000000000000000000000000000000000000000000000000000000000000000000000000",
            "coinbase" : "0xb94f5374fce5edbc8e2a8697c15331677e6ebf0b",
            "difficulty" : "0x020000",
            "extraData" : "0x42",
            "gasLimit" : "0x989680",
            "gasUsed" : "0x00",
            "hash" : "0x7de8cade80a2f10350ff0586ac067139e8e9a72ce344a47d2aa51b70abf95045",
            "mixHash" : "0x56e81f171bcc55a6ff8345e692c0f86e5b48e01b996cadc001622fb5e363b421",
            "nonce" : "0x0102030405060708",
            "number" : "0x00",
            "parentHash" : "0x0000000000000000000000000000000000000000000000000000000000000000",
            "receiptTrie" : "0x56e81f171bcc55a6ff8345e692c0f86e5b48e01b996cadc001622fb5e363b421",
            "stateRoot" : "0x031accb37c21b275d28ce69d13290d4754574cc957bf52571827d1b25ddbe79c",
            "timestamp" : "0x03b6",
            "transactionsTrie" : "0x56e81f171bcc55a6ff8345e692c0f86e5b48e01b996cadc001622fb5e363b421",
            "uncleHash" : "0x1dcc4de8dec75d7aab85b567b6ccd41ad312451b948a7413f0a142fd40d49347"
        },
        "genesisRLP" : "0xf901faf901f5a00000000000000000000000000000000000000000000000000000000000000000a01dcc4de8dec75d7aab85b567b6ccd41ad312451b948a7413f0a142fd40d4934794b94f5374fce5edbc8e2a8697c15331677e6ebf0ba0031accb37c21b275d28ce69d13290d4754574cc957bf52571827d1b25ddbe79ca056e81f171bcc55a6ff8345e692c0f86e5b48e01b996cadc001622fb5e363b421a056e81f171bcc55a6ff8345e692c0f86e5b48e01b996cadc001622fb5e363b421b9010000000000000000000000000000000000000000000000000000000000000000000000000000000000000000000000000000000000000000000000000000000000000000000000000000000000000000000000000000000000000000000000000000000000000000000000000000000000000000000000000000000000000000000000000000000000000000000000000000000000000000000000000000000000000000000000000000000000000000000000000000000000000000000000000000000000000000000000000000000000000000000000000000000000000000000000000000000000000000000000000000000000000000000000000000000000830200008083989680808203b642a056e81f171bcc55a6ff8345e692c0f86e5b48e01b996cadc001622fb5e363b421880102030405060708c0c0",
        "lastblockhash" : "0xcfe629776d2be69ea1741098c996debe353ce90a92a331b79c75e7c099f16f4e",
        "network" : "Byzantium",
        "postState" : {
            "0x0000000000000000000000000000000000000000" : {
                "balance" : "0x01",
                "code" : "0x6000600055600060015560006002556000600355600060045560006005556000600655600060075560006008556000600955",
                "nonce" : "0x00",
                "storage" : {
                }
            },
            "0xa94f5374fce5edbc8e2a8697c15331677e6ebf0b" : {
                "balance" : "0x06e0b1",
                "code" : "",
                "nonce" : "0x01",
                "storage" : {
                }
            },
            "0xb94f5374fce5edbc8e2a8697c15331677e6ebf0b" : {
                "balance" : "0x29a2241af62cc065",
                "code" : "",
                "nonce" : "0x00",
                "storage" : {
                }
            },
            "0xc94f5374fce5edbc8e2a8697c15331677e6ebf0b" : {
                "balance" : "0x13",
                "code" : "0x600060005560006001556000600255600060035560006000600060006001600061c350f1",
                "nonce" : "0x00",
                "storage" : {
                    "0x04" : "0x0c"
                }
            }
        },
        "pre" : {
            "0x0000000000000000000000000000000000000000" : {
                "balance" : "0x00",
                "code" : "0x6000600055600060015560006002556000600355600060045560006005556000600655600060075560006008556000600955",
                "nonce" : "0x00",
                "storage" : {
                    "0x00" : "0x0c",
                    "0x01" : "0x0c",
                    "0x02" : "0x0c",
                    "0x03" : "0x0c",
                    "0x04" : "0x0c",
                    "0x05" : "0x0c",
                    "0x06" : "0x0c",
                    "0x07" : "0x0c",
                    "0x08" : "0x0c",
                    "0x09" : "0x0c"
                }
            },
            "0xa94f5374fce5edbc8e2a8697c15331677e6ebf0b" : {
                "balance" : "0x07a120",
                "code" : "",
                "nonce" : "0x00",
                "storage" : {
                }
            },
            "0xc94f5374fce5edbc8e2a8697c15331677e6ebf0b" : {
                "balance" : "0x0a",
                "code" : "0x600060005560006001556000600255600060035560006000600060006001600061c350f1",
                "nonce" : "0x00",
                "storage" : {
                    "0x00" : "0x0c",
                    "0x01" : "0x0c",
                    "0x02" : "0x0c",
                    "0x03" : "0x0c",
                    "0x04" : "0x0c"
                }
            }
        }
    },
    "StoreClearsAndInternlCallStoreClearsSuccess_d0g0v0_EIP150" : {
        "_info" : {
            "comment" : "",
            "filledwith" : "cpp-1.3.0+commit.6e0ce939.Linux.g++",
            "lllcversion" : "Version: 0.4.18-develop.2017.9.25+commit.a72237f2.Linux.g++",
            "source" : "src/BlockchainTestsFiller/GeneralStateTests/stTransactionTest/StoreClearsAndInternlCallStoreClearsSuccess_d0g0v0Filler.json",
            "sourceHash" : "c74e31e85903f0208f98b68769e74fe5014b32f0991ab3cc6dd22486999c0182"
        },
        "blocks" : [
            {
                "blockHeader" : {
                    "bloom" : "0x00000000000000000000000000000000000000000000000000000000000000000000000000000000000000000000000000000000000000000000000000000000000000000000000000000000000000000000000000000000000000000000000000000000000000000000000000000000000000000000000000000000000000000000000000000000000000000000000000000000000000000000000000000000000000000000000000000000000000000000000000000000000000000000000000000000000000000000000000000000000000000000000000000000000000000000000000000000000000000000000000000000000000000000000000000000",
                    "coinbase" : "0xb94f5374fce5edbc8e2a8697c15331677e6ebf0b",
                    "difficulty" : "0x020000",
                    "extraData" : "",
                    "gasLimit" : "0x989680",
                    "gasUsed" : "0xc065",
                    "hash" : "0x162621b87eee6386fe4a92a6316591cd57ef01f8444c71479eb5d704d69b66a9",
                    "mixHash" : "0x559b5fbd4ed1c27507cbcf61d6f8218b9a717834f029c5a0c8b04ac8ff46cef8",
                    "nonce" : "0x5951f088a91ba456",
                    "number" : "0x01",
                    "parentHash" : "0x7de8cade80a2f10350ff0586ac067139e8e9a72ce344a47d2aa51b70abf95045",
                    "receiptTrie" : "0xdc777bc0f5131080da2deadd549cf2743bfee4c6c2d02e8ba3b01ca1242c5c71",
                    "stateRoot" : "0x34333eb3c72c6edf2902e83b3b36adec1d1032f4157b6dcb7909393e99f81d2d",
                    "timestamp" : "0x03e8",
                    "transactionsTrie" : "0x1e33dec8f8bcfa97b05c985988a668b694b06df138212e8680c788bad2ec0bae",
                    "uncleHash" : "0x1dcc4de8dec75d7aab85b567b6ccd41ad312451b948a7413f0a142fd40d49347"
                },
                "rlp" : "0xf9025ff901f7a07de8cade80a2f10350ff0586ac067139e8e9a72ce344a47d2aa51b70abf95045a01dcc4de8dec75d7aab85b567b6ccd41ad312451b948a7413f0a142fd40d4934794b94f5374fce5edbc8e2a8697c15331677e6ebf0ba034333eb3c72c6edf2902e83b3b36adec1d1032f4157b6dcb7909393e99f81d2da01e33dec8f8bcfa97b05c985988a668b694b06df138212e8680c788bad2ec0baea0dc777bc0f5131080da2deadd549cf2743bfee4c6c2d02e8ba3b01ca1242c5c71b901000000000000000000000000000000000000000000000000000000000000000000000000000000000000000000000000000000000000000000000000000000000000000000000000000000000000000000000000000000000000000000000000000000000000000000000000000000000000000000000000000000000000000000000000000000000000000000000000000000000000000000000000000000000000000000000000000000000000000000000000000000000000000000000000000000000000000000000000000000000000000000000000000000000000000000000000000000000000000000000000000000000000000000000000000000000083020000018398968082c0658203e880a0559b5fbd4ed1c27507cbcf61d6f8218b9a717834f029c5a0c8b04ac8ff46cef8885951f088a91ba456f862f860800183030d4094c94f5374fce5edbc8e2a8697c15331677e6ebf0b0a801ba06f109e4c3936cdf76c69176a1c1143141a249e08b2724b636fd5191e4c3503c5a007c20efee46c20d804ba68f87d807e74b1a6ab5bd687902d3cdc071699f446c6c0",
                "transactions" : [
                    {
                        "data" : "",
                        "gasLimit" : "0x030d40",
                        "gasPrice" : "0x01",
                        "nonce" : "0x00",
                        "r" : "0x6f109e4c3936cdf76c69176a1c1143141a249e08b2724b636fd5191e4c3503c5",
                        "s" : "0x07c20efee46c20d804ba68f87d807e74b1a6ab5bd687902d3cdc071699f446c6",
                        "to" : "0xc94f5374fce5edbc8e2a8697c15331677e6ebf0b",
                        "v" : "0x1b",
                        "value" : "0x0a"
                    }
                ],
                "uncleHeaders" : [
                ]
            }
        ],
        "genesisBlockHeader" : {
            "bloom" : "0x00000000000000000000000000000000000000000000000000000000000000000000000000000000000000000000000000000000000000000000000000000000000000000000000000000000000000000000000000000000000000000000000000000000000000000000000000000000000000000000000000000000000000000000000000000000000000000000000000000000000000000000000000000000000000000000000000000000000000000000000000000000000000000000000000000000000000000000000000000000000000000000000000000000000000000000000000000000000000000000000000000000000000000000000000000000",
            "coinbase" : "0xb94f5374fce5edbc8e2a8697c15331677e6ebf0b",
            "difficulty" : "0x020000",
            "extraData" : "0x42",
            "gasLimit" : "0x989680",
            "gasUsed" : "0x00",
            "hash" : "0x7de8cade80a2f10350ff0586ac067139e8e9a72ce344a47d2aa51b70abf95045",
            "mixHash" : "0x56e81f171bcc55a6ff8345e692c0f86e5b48e01b996cadc001622fb5e363b421",
            "nonce" : "0x0102030405060708",
            "number" : "0x00",
            "parentHash" : "0x0000000000000000000000000000000000000000000000000000000000000000",
            "receiptTrie" : "0x56e81f171bcc55a6ff8345e692c0f86e5b48e01b996cadc001622fb5e363b421",
            "stateRoot" : "0x031accb37c21b275d28ce69d13290d4754574cc957bf52571827d1b25ddbe79c",
            "timestamp" : "0x03b6",
            "transactionsTrie" : "0x56e81f171bcc55a6ff8345e692c0f86e5b48e01b996cadc001622fb5e363b421",
            "uncleHash" : "0x1dcc4de8dec75d7aab85b567b6ccd41ad312451b948a7413f0a142fd40d49347"
        },
        "genesisRLP" : "0xf901faf901f5a00000000000000000000000000000000000000000000000000000000000000000a01dcc4de8dec75d7aab85b567b6ccd41ad312451b948a7413f0a142fd40d4934794b94f5374fce5edbc8e2a8697c15331677e6ebf0ba0031accb37c21b275d28ce69d13290d4754574cc957bf52571827d1b25ddbe79ca056e81f171bcc55a6ff8345e692c0f86e5b48e01b996cadc001622fb5e363b421a056e81f171bcc55a6ff8345e692c0f86e5b48e01b996cadc001622fb5e363b421b9010000000000000000000000000000000000000000000000000000000000000000000000000000000000000000000000000000000000000000000000000000000000000000000000000000000000000000000000000000000000000000000000000000000000000000000000000000000000000000000000000000000000000000000000000000000000000000000000000000000000000000000000000000000000000000000000000000000000000000000000000000000000000000000000000000000000000000000000000000000000000000000000000000000000000000000000000000000000000000000000000000000000000000000000000000000000830200008083989680808203b642a056e81f171bcc55a6ff8345e692c0f86e5b48e01b996cadc001622fb5e363b421880102030405060708c0c0",
        "lastblockhash" : "0x162621b87eee6386fe4a92a6316591cd57ef01f8444c71479eb5d704d69b66a9",
        "network" : "EIP150",
        "postState" : {
            "0x0000000000000000000000000000000000000000" : {
                "balance" : "0x01",
                "code" : "0x6000600055600060015560006002556000600355600060045560006005556000600655600060075560006008556000600955",
                "nonce" : "0x00",
                "storage" : {
                }
            },
            "0xa94f5374fce5edbc8e2a8697c15331677e6ebf0b" : {
                "balance" : "0x06e0b1",
                "code" : "",
                "nonce" : "0x01",
                "storage" : {
                }
            },
            "0xb94f5374fce5edbc8e2a8697c15331677e6ebf0b" : {
                "balance" : "0x4563918244f4c065",
                "code" : "",
                "nonce" : "0x00",
                "storage" : {
                }
            },
            "0xc94f5374fce5edbc8e2a8697c15331677e6ebf0b" : {
                "balance" : "0x13",
                "code" : "0x600060005560006001556000600255600060035560006000600060006001600061c350f1",
                "nonce" : "0x00",
                "storage" : {
                    "0x04" : "0x0c"
                }
            }
        },
        "pre" : {
            "0x0000000000000000000000000000000000000000" : {
                "balance" : "0x00",
                "code" : "0x6000600055600060015560006002556000600355600060045560006005556000600655600060075560006008556000600955",
                "nonce" : "0x00",
                "storage" : {
                    "0x00" : "0x0c",
                    "0x01" : "0x0c",
                    "0x02" : "0x0c",
                    "0x03" : "0x0c",
                    "0x04" : "0x0c",
                    "0x05" : "0x0c",
                    "0x06" : "0x0c",
                    "0x07" : "0x0c",
                    "0x08" : "0x0c",
                    "0x09" : "0x0c"
                }
            },
            "0xa94f5374fce5edbc8e2a8697c15331677e6ebf0b" : {
                "balance" : "0x07a120",
                "code" : "",
                "nonce" : "0x00",
                "storage" : {
                }
            },
            "0xc94f5374fce5edbc8e2a8697c15331677e6ebf0b" : {
                "balance" : "0x0a",
                "code" : "0x600060005560006001556000600255600060035560006000600060006001600061c350f1",
                "nonce" : "0x00",
                "storage" : {
                    "0x00" : "0x0c",
                    "0x01" : "0x0c",
                    "0x02" : "0x0c",
                    "0x03" : "0x0c",
                    "0x04" : "0x0c"
                }
            }
        }
    },
    "StoreClearsAndInternlCallStoreClearsSuccess_d0g0v0_EIP158" : {
        "_info" : {
            "comment" : "",
            "filledwith" : "cpp-1.3.0+commit.6e0ce939.Linux.g++",
            "lllcversion" : "Version: 0.4.18-develop.2017.9.25+commit.a72237f2.Linux.g++",
            "source" : "src/BlockchainTestsFiller/GeneralStateTests/stTransactionTest/StoreClearsAndInternlCallStoreClearsSuccess_d0g0v0Filler.json",
            "sourceHash" : "c74e31e85903f0208f98b68769e74fe5014b32f0991ab3cc6dd22486999c0182"
        },
        "blocks" : [
            {
                "blockHeader" : {
                    "bloom" : "0x00000000000000000000000000000000000000000000000000000000000000000000000000000000000000000000000000000000000000000000000000000000000000000000000000000000000000000000000000000000000000000000000000000000000000000000000000000000000000000000000000000000000000000000000000000000000000000000000000000000000000000000000000000000000000000000000000000000000000000000000000000000000000000000000000000000000000000000000000000000000000000000000000000000000000000000000000000000000000000000000000000000000000000000000000000000",
                    "coinbase" : "0xb94f5374fce5edbc8e2a8697c15331677e6ebf0b",
                    "difficulty" : "0x020000",
                    "extraData" : "",
                    "gasLimit" : "0x989680",
                    "gasUsed" : "0xc065",
                    "hash" : "0x348eaca74e63f5e596aa569e06e91025e74313a4b748df9610614c990dba943c",
                    "mixHash" : "0x784c7aa268ad744038616cc9549034cc1f291903049c9cf66f58cb44fe4392e5",
                    "nonce" : "0xf1ff70c61f982d99",
                    "number" : "0x01",
                    "parentHash" : "0x7de8cade80a2f10350ff0586ac067139e8e9a72ce344a47d2aa51b70abf95045",
                    "receiptTrie" : "0xdc777bc0f5131080da2deadd549cf2743bfee4c6c2d02e8ba3b01ca1242c5c71",
                    "stateRoot" : "0x34333eb3c72c6edf2902e83b3b36adec1d1032f4157b6dcb7909393e99f81d2d",
                    "timestamp" : "0x03e8",
                    "transactionsTrie" : "0x1e33dec8f8bcfa97b05c985988a668b694b06df138212e8680c788bad2ec0bae",
                    "uncleHash" : "0x1dcc4de8dec75d7aab85b567b6ccd41ad312451b948a7413f0a142fd40d49347"
                },
                "rlp" : "0xf9025ff901f7a07de8cade80a2f10350ff0586ac067139e8e9a72ce344a47d2aa51b70abf95045a01dcc4de8dec75d7aab85b567b6ccd41ad312451b948a7413f0a142fd40d4934794b94f5374fce5edbc8e2a8697c15331677e6ebf0ba034333eb3c72c6edf2902e83b3b36adec1d1032f4157b6dcb7909393e99f81d2da01e33dec8f8bcfa97b05c985988a668b694b06df138212e8680c788bad2ec0baea0dc777bc0f5131080da2deadd549cf2743bfee4c6c2d02e8ba3b01ca1242c5c71b901000000000000000000000000000000000000000000000000000000000000000000000000000000000000000000000000000000000000000000000000000000000000000000000000000000000000000000000000000000000000000000000000000000000000000000000000000000000000000000000000000000000000000000000000000000000000000000000000000000000000000000000000000000000000000000000000000000000000000000000000000000000000000000000000000000000000000000000000000000000000000000000000000000000000000000000000000000000000000000000000000000000000000000000000000000000083020000018398968082c0658203e880a0784c7aa268ad744038616cc9549034cc1f291903049c9cf66f58cb44fe4392e588f1ff70c61f982d99f862f860800183030d4094c94f5374fce5edbc8e2a8697c15331677e6ebf0b0a801ba06f109e4c3936cdf76c69176a1c1143141a249e08b2724b636fd5191e4c3503c5a007c20efee46c20d804ba68f87d807e74b1a6ab5bd687902d3cdc071699f446c6c0",
                "transactions" : [
                    {
                        "data" : "",
                        "gasLimit" : "0x030d40",
                        "gasPrice" : "0x01",
                        "nonce" : "0x00",
                        "r" : "0x6f109e4c3936cdf76c69176a1c1143141a249e08b2724b636fd5191e4c3503c5",
                        "s" : "0x07c20efee46c20d804ba68f87d807e74b1a6ab5bd687902d3cdc071699f446c6",
                        "to" : "0xc94f5374fce5edbc8e2a8697c15331677e6ebf0b",
                        "v" : "0x1b",
                        "value" : "0x0a"
                    }
                ],
                "uncleHeaders" : [
                ]
            }
        ],
        "genesisBlockHeader" : {
            "bloom" : "0x00000000000000000000000000000000000000000000000000000000000000000000000000000000000000000000000000000000000000000000000000000000000000000000000000000000000000000000000000000000000000000000000000000000000000000000000000000000000000000000000000000000000000000000000000000000000000000000000000000000000000000000000000000000000000000000000000000000000000000000000000000000000000000000000000000000000000000000000000000000000000000000000000000000000000000000000000000000000000000000000000000000000000000000000000000000",
            "coinbase" : "0xb94f5374fce5edbc8e2a8697c15331677e6ebf0b",
            "difficulty" : "0x020000",
            "extraData" : "0x42",
            "gasLimit" : "0x989680",
            "gasUsed" : "0x00",
            "hash" : "0x7de8cade80a2f10350ff0586ac067139e8e9a72ce344a47d2aa51b70abf95045",
            "mixHash" : "0x56e81f171bcc55a6ff8345e692c0f86e5b48e01b996cadc001622fb5e363b421",
            "nonce" : "0x0102030405060708",
            "number" : "0x00",
            "parentHash" : "0x0000000000000000000000000000000000000000000000000000000000000000",
            "receiptTrie" : "0x56e81f171bcc55a6ff8345e692c0f86e5b48e01b996cadc001622fb5e363b421",
            "stateRoot" : "0x031accb37c21b275d28ce69d13290d4754574cc957bf52571827d1b25ddbe79c",
            "timestamp" : "0x03b6",
            "transactionsTrie" : "0x56e81f171bcc55a6ff8345e692c0f86e5b48e01b996cadc001622fb5e363b421",
            "uncleHash" : "0x1dcc4de8dec75d7aab85b567b6ccd41ad312451b948a7413f0a142fd40d49347"
        },
        "genesisRLP" : "0xf901faf901f5a00000000000000000000000000000000000000000000000000000000000000000a01dcc4de8dec75d7aab85b567b6ccd41ad312451b948a7413f0a142fd40d4934794b94f5374fce5edbc8e2a8697c15331677e6ebf0ba0031accb37c21b275d28ce69d13290d4754574cc957bf52571827d1b25ddbe79ca056e81f171bcc55a6ff8345e692c0f86e5b48e01b996cadc001622fb5e363b421a056e81f171bcc55a6ff8345e692c0f86e5b48e01b996cadc001622fb5e363b421b9010000000000000000000000000000000000000000000000000000000000000000000000000000000000000000000000000000000000000000000000000000000000000000000000000000000000000000000000000000000000000000000000000000000000000000000000000000000000000000000000000000000000000000000000000000000000000000000000000000000000000000000000000000000000000000000000000000000000000000000000000000000000000000000000000000000000000000000000000000000000000000000000000000000000000000000000000000000000000000000000000000000000000000000000000000000000830200008083989680808203b642a056e81f171bcc55a6ff8345e692c0f86e5b48e01b996cadc001622fb5e363b421880102030405060708c0c0",
        "lastblockhash" : "0x348eaca74e63f5e596aa569e06e91025e74313a4b748df9610614c990dba943c",
        "network" : "EIP158",
        "postState" : {
            "0x0000000000000000000000000000000000000000" : {
                "balance" : "0x01",
                "code" : "0x6000600055600060015560006002556000600355600060045560006005556000600655600060075560006008556000600955",
                "nonce" : "0x00",
                "storage" : {
                }
            },
            "0xa94f5374fce5edbc8e2a8697c15331677e6ebf0b" : {
                "balance" : "0x06e0b1",
                "code" : "",
                "nonce" : "0x01",
                "storage" : {
                }
            },
            "0xb94f5374fce5edbc8e2a8697c15331677e6ebf0b" : {
                "balance" : "0x4563918244f4c065",
                "code" : "",
                "nonce" : "0x00",
                "storage" : {
                }
            },
            "0xc94f5374fce5edbc8e2a8697c15331677e6ebf0b" : {
                "balance" : "0x13",
                "code" : "0x600060005560006001556000600255600060035560006000600060006001600061c350f1",
                "nonce" : "0x00",
                "storage" : {
                    "0x04" : "0x0c"
                }
            }
        },
        "pre" : {
            "0x0000000000000000000000000000000000000000" : {
                "balance" : "0x00",
                "code" : "0x6000600055600060015560006002556000600355600060045560006005556000600655600060075560006008556000600955",
                "nonce" : "0x00",
                "storage" : {
                    "0x00" : "0x0c",
                    "0x01" : "0x0c",
                    "0x02" : "0x0c",
                    "0x03" : "0x0c",
                    "0x04" : "0x0c",
                    "0x05" : "0x0c",
                    "0x06" : "0x0c",
                    "0x07" : "0x0c",
                    "0x08" : "0x0c",
                    "0x09" : "0x0c"
                }
            },
            "0xa94f5374fce5edbc8e2a8697c15331677e6ebf0b" : {
                "balance" : "0x07a120",
                "code" : "",
                "nonce" : "0x00",
                "storage" : {
                }
            },
            "0xc94f5374fce5edbc8e2a8697c15331677e6ebf0b" : {
                "balance" : "0x0a",
                "code" : "0x600060005560006001556000600255600060035560006000600060006001600061c350f1",
                "nonce" : "0x00",
                "storage" : {
                    "0x00" : "0x0c",
                    "0x01" : "0x0c",
                    "0x02" : "0x0c",
                    "0x03" : "0x0c",
                    "0x04" : "0x0c"
                }
            }
        }
    },
    "StoreClearsAndInternlCallStoreClearsSuccess_d0g0v0_Frontier" : {
        "_info" : {
            "comment" : "",
            "filledwith" : "cpp-1.3.0+commit.6e0ce939.Linux.g++",
            "lllcversion" : "Version: 0.4.18-develop.2017.9.25+commit.a72237f2.Linux.g++",
            "source" : "src/BlockchainTestsFiller/GeneralStateTests/stTransactionTest/StoreClearsAndInternlCallStoreClearsSuccess_d0g0v0Filler.json",
            "sourceHash" : "c74e31e85903f0208f98b68769e74fe5014b32f0991ab3cc6dd22486999c0182"
        },
        "blocks" : [
            {
                "blockHeader" : {
                    "bloom" : "0x00000000000000000000000000000000000000000000000000000000000000000000000000000000000000000000000000000000000000000000000000000000000000000000000000000000000000000000000000000000000000000000000000000000000000000000000000000000000000000000000000000000000000000000000000000000000000000000000000000000000000000000000000000000000000000000000000000000000000000000000000000000000000000000000000000000000000000000000000000000000000000000000000000000000000000000000000000000000000000000000000000000000000000000000000000000",
                    "coinbase" : "0xb94f5374fce5edbc8e2a8697c15331677e6ebf0b",
                    "difficulty" : "0x020000",
                    "extraData" : "",
                    "gasLimit" : "0x989680",
                    "gasUsed" : "0xbf1b",
                    "hash" : "0x807bd1fd1b6b487ddf2aad423dd4c89036b34e4623e38861a2bc2d75fc906c6a",
                    "mixHash" : "0x2ad78029fc7d4c6d2b53544dae794ba80d755f5f793bd2eca79ae15c8b586284",
                    "nonce" : "0x56c1f88ffd7334dc",
                    "number" : "0x01",
                    "parentHash" : "0x7de8cade80a2f10350ff0586ac067139e8e9a72ce344a47d2aa51b70abf95045",
                    "receiptTrie" : "0x2b317860236a9a2097dda9c4af9b2bf48cc4a06dcff5b8f97744f34bcc243683",
                    "stateRoot" : "0xf75075184f8b3cfbbfb4a5a4f734b811c559f686177871afb229a546808d1221",
                    "timestamp" : "0x03e8",
                    "transactionsTrie" : "0x1e33dec8f8bcfa97b05c985988a668b694b06df138212e8680c788bad2ec0bae",
                    "uncleHash" : "0x1dcc4de8dec75d7aab85b567b6ccd41ad312451b948a7413f0a142fd40d49347"
                },
                "rlp" : "0xf9025ff901f7a07de8cade80a2f10350ff0586ac067139e8e9a72ce344a47d2aa51b70abf95045a01dcc4de8dec75d7aab85b567b6ccd41ad312451b948a7413f0a142fd40d4934794b94f5374fce5edbc8e2a8697c15331677e6ebf0ba0f75075184f8b3cfbbfb4a5a4f734b811c559f686177871afb229a546808d1221a01e33dec8f8bcfa97b05c985988a668b694b06df138212e8680c788bad2ec0baea02b317860236a9a2097dda9c4af9b2bf48cc4a06dcff5b8f97744f34bcc243683b901000000000000000000000000000000000000000000000000000000000000000000000000000000000000000000000000000000000000000000000000000000000000000000000000000000000000000000000000000000000000000000000000000000000000000000000000000000000000000000000000000000000000000000000000000000000000000000000000000000000000000000000000000000000000000000000000000000000000000000000000000000000000000000000000000000000000000000000000000000000000000000000000000000000000000000000000000000000000000000000000000000000000000000000000000000000083020000018398968082bf1b8203e880a02ad78029fc7d4c6d2b53544dae794ba80d755f5f793bd2eca79ae15c8b5862848856c1f88ffd7334dcf862f860800183030d4094c94f5374fce5edbc8e2a8697c15331677e6ebf0b0a801ba06f109e4c3936cdf76c69176a1c1143141a249e08b2724b636fd5191e4c3503c5a007c20efee46c20d804ba68f87d807e74b1a6ab5bd687902d3cdc071699f446c6c0",
                "transactions" : [
                    {
                        "data" : "",
                        "gasLimit" : "0x030d40",
                        "gasPrice" : "0x01",
                        "nonce" : "0x00",
                        "r" : "0x6f109e4c3936cdf76c69176a1c1143141a249e08b2724b636fd5191e4c3503c5",
                        "s" : "0x07c20efee46c20d804ba68f87d807e74b1a6ab5bd687902d3cdc071699f446c6",
                        "to" : "0xc94f5374fce5edbc8e2a8697c15331677e6ebf0b",
                        "v" : "0x1b",
                        "value" : "0x0a"
                    }
                ],
                "uncleHeaders" : [
                ]
            }
        ],
        "genesisBlockHeader" : {
            "bloom" : "0x00000000000000000000000000000000000000000000000000000000000000000000000000000000000000000000000000000000000000000000000000000000000000000000000000000000000000000000000000000000000000000000000000000000000000000000000000000000000000000000000000000000000000000000000000000000000000000000000000000000000000000000000000000000000000000000000000000000000000000000000000000000000000000000000000000000000000000000000000000000000000000000000000000000000000000000000000000000000000000000000000000000000000000000000000000000",
            "coinbase" : "0xb94f5374fce5edbc8e2a8697c15331677e6ebf0b",
            "difficulty" : "0x020000",
            "extraData" : "0x42",
            "gasLimit" : "0x989680",
            "gasUsed" : "0x00",
            "hash" : "0x7de8cade80a2f10350ff0586ac067139e8e9a72ce344a47d2aa51b70abf95045",
            "mixHash" : "0x56e81f171bcc55a6ff8345e692c0f86e5b48e01b996cadc001622fb5e363b421",
            "nonce" : "0x0102030405060708",
            "number" : "0x00",
            "parentHash" : "0x0000000000000000000000000000000000000000000000000000000000000000",
            "receiptTrie" : "0x56e81f171bcc55a6ff8345e692c0f86e5b48e01b996cadc001622fb5e363b421",
            "stateRoot" : "0x031accb37c21b275d28ce69d13290d4754574cc957bf52571827d1b25ddbe79c",
            "timestamp" : "0x03b6",
            "transactionsTrie" : "0x56e81f171bcc55a6ff8345e692c0f86e5b48e01b996cadc001622fb5e363b421",
            "uncleHash" : "0x1dcc4de8dec75d7aab85b567b6ccd41ad312451b948a7413f0a142fd40d49347"
        },
        "genesisRLP" : "0xf901faf901f5a00000000000000000000000000000000000000000000000000000000000000000a01dcc4de8dec75d7aab85b567b6ccd41ad312451b948a7413f0a142fd40d4934794b94f5374fce5edbc8e2a8697c15331677e6ebf0ba0031accb37c21b275d28ce69d13290d4754574cc957bf52571827d1b25ddbe79ca056e81f171bcc55a6ff8345e692c0f86e5b48e01b996cadc001622fb5e363b421a056e81f171bcc55a6ff8345e692c0f86e5b48e01b996cadc001622fb5e363b421b9010000000000000000000000000000000000000000000000000000000000000000000000000000000000000000000000000000000000000000000000000000000000000000000000000000000000000000000000000000000000000000000000000000000000000000000000000000000000000000000000000000000000000000000000000000000000000000000000000000000000000000000000000000000000000000000000000000000000000000000000000000000000000000000000000000000000000000000000000000000000000000000000000000000000000000000000000000000000000000000000000000000000000000000000000000000000830200008083989680808203b642a056e81f171bcc55a6ff8345e692c0f86e5b48e01b996cadc001622fb5e363b421880102030405060708c0c0",
        "lastblockhash" : "0x807bd1fd1b6b487ddf2aad423dd4c89036b34e4623e38861a2bc2d75fc906c6a",
        "network" : "Frontier",
        "postState" : {
            "0x0000000000000000000000000000000000000000" : {
                "balance" : "0x01",
                "code" : "0x6000600055600060015560006002556000600355600060045560006005556000600655600060075560006008556000600955",
                "nonce" : "0x00",
                "storage" : {
                }
            },
            "0xa94f5374fce5edbc8e2a8697c15331677e6ebf0b" : {
                "balance" : "0x06e1fb",
                "code" : "",
                "nonce" : "0x01",
                "storage" : {
                }
            },
            "0xb94f5374fce5edbc8e2a8697c15331677e6ebf0b" : {
                "balance" : "0x4563918244f4bf1b",
                "code" : "",
                "nonce" : "0x00",
                "storage" : {
                }
            },
            "0xc94f5374fce5edbc8e2a8697c15331677e6ebf0b" : {
                "balance" : "0x13",
                "code" : "0x600060005560006001556000600255600060035560006000600060006001600061c350f1",
                "nonce" : "0x00",
                "storage" : {
                    "0x04" : "0x0c"
                }
            }
        },
        "pre" : {
            "0x0000000000000000000000000000000000000000" : {
                "balance" : "0x00",
                "code" : "0x6000600055600060015560006002556000600355600060045560006005556000600655600060075560006008556000600955",
                "nonce" : "0x00",
                "storage" : {
                    "0x00" : "0x0c",
                    "0x01" : "0x0c",
                    "0x02" : "0x0c",
                    "0x03" : "0x0c",
                    "0x04" : "0x0c",
                    "0x05" : "0x0c",
                    "0x06" : "0x0c",
                    "0x07" : "0x0c",
                    "0x08" : "0x0c",
                    "0x09" : "0x0c"
                }
            },
            "0xa94f5374fce5edbc8e2a8697c15331677e6ebf0b" : {
                "balance" : "0x07a120",
                "code" : "",
                "nonce" : "0x00",
                "storage" : {
                }
            },
            "0xc94f5374fce5edbc8e2a8697c15331677e6ebf0b" : {
                "balance" : "0x0a",
                "code" : "0x600060005560006001556000600255600060035560006000600060006001600061c350f1",
                "nonce" : "0x00",
                "storage" : {
                    "0x00" : "0x0c",
                    "0x01" : "0x0c",
                    "0x02" : "0x0c",
                    "0x03" : "0x0c",
                    "0x04" : "0x0c"
                }
            }
        }
    },
    "StoreClearsAndInternlCallStoreClearsSuccess_d0g0v0_Homestead" : {
        "_info" : {
            "comment" : "",
            "filledwith" : "cpp-1.3.0+commit.6e0ce939.Linux.g++",
            "lllcversion" : "Version: 0.4.18-develop.2017.9.25+commit.a72237f2.Linux.g++",
            "source" : "src/BlockchainTestsFiller/GeneralStateTests/stTransactionTest/StoreClearsAndInternlCallStoreClearsSuccess_d0g0v0Filler.json",
            "sourceHash" : "c74e31e85903f0208f98b68769e74fe5014b32f0991ab3cc6dd22486999c0182"
        },
        "blocks" : [
            {
                "blockHeader" : {
                    "bloom" : "0x00000000000000000000000000000000000000000000000000000000000000000000000000000000000000000000000000000000000000000000000000000000000000000000000000000000000000000000000000000000000000000000000000000000000000000000000000000000000000000000000000000000000000000000000000000000000000000000000000000000000000000000000000000000000000000000000000000000000000000000000000000000000000000000000000000000000000000000000000000000000000000000000000000000000000000000000000000000000000000000000000000000000000000000000000000000",
                    "coinbase" : "0xb94f5374fce5edbc8e2a8697c15331677e6ebf0b",
                    "difficulty" : "0x020000",
                    "extraData" : "",
                    "gasLimit" : "0x989680",
                    "gasUsed" : "0xbf1b",
                    "hash" : "0x95015a1063d82d22f7d9d7ccc6b16799a0defcb0083954677d75716943a774f4",
                    "mixHash" : "0xd3a02b7c869e6c9100e4157531a1c919c356627a554cf6e5aa256893f96eb27c",
                    "nonce" : "0x2c096208fb7bec35",
                    "number" : "0x01",
                    "parentHash" : "0x7de8cade80a2f10350ff0586ac067139e8e9a72ce344a47d2aa51b70abf95045",
                    "receiptTrie" : "0x2b317860236a9a2097dda9c4af9b2bf48cc4a06dcff5b8f97744f34bcc243683",
                    "stateRoot" : "0xf75075184f8b3cfbbfb4a5a4f734b811c559f686177871afb229a546808d1221",
                    "timestamp" : "0x03e8",
                    "transactionsTrie" : "0x1e33dec8f8bcfa97b05c985988a668b694b06df138212e8680c788bad2ec0bae",
                    "uncleHash" : "0x1dcc4de8dec75d7aab85b567b6ccd41ad312451b948a7413f0a142fd40d49347"
                },
                "rlp" : "0xf9025ff901f7a07de8cade80a2f10350ff0586ac067139e8e9a72ce344a47d2aa51b70abf95045a01dcc4de8dec75d7aab85b567b6ccd41ad312451b948a7413f0a142fd40d4934794b94f5374fce5edbc8e2a8697c15331677e6ebf0ba0f75075184f8b3cfbbfb4a5a4f734b811c559f686177871afb229a546808d1221a01e33dec8f8bcfa97b05c985988a668b694b06df138212e8680c788bad2ec0baea02b317860236a9a2097dda9c4af9b2bf48cc4a06dcff5b8f97744f34bcc243683b901000000000000000000000000000000000000000000000000000000000000000000000000000000000000000000000000000000000000000000000000000000000000000000000000000000000000000000000000000000000000000000000000000000000000000000000000000000000000000000000000000000000000000000000000000000000000000000000000000000000000000000000000000000000000000000000000000000000000000000000000000000000000000000000000000000000000000000000000000000000000000000000000000000000000000000000000000000000000000000000000000000000000000000000000000000000083020000018398968082bf1b8203e880a0d3a02b7c869e6c9100e4157531a1c919c356627a554cf6e5aa256893f96eb27c882c096208fb7bec35f862f860800183030d4094c94f5374fce5edbc8e2a8697c15331677e6ebf0b0a801ba06f109e4c3936cdf76c69176a1c1143141a249e08b2724b636fd5191e4c3503c5a007c20efee46c20d804ba68f87d807e74b1a6ab5bd687902d3cdc071699f446c6c0",
                "transactions" : [
                    {
                        "data" : "",
                        "gasLimit" : "0x030d40",
                        "gasPrice" : "0x01",
                        "nonce" : "0x00",
                        "r" : "0x6f109e4c3936cdf76c69176a1c1143141a249e08b2724b636fd5191e4c3503c5",
                        "s" : "0x07c20efee46c20d804ba68f87d807e74b1a6ab5bd687902d3cdc071699f446c6",
                        "to" : "0xc94f5374fce5edbc8e2a8697c15331677e6ebf0b",
                        "v" : "0x1b",
                        "value" : "0x0a"
                    }
                ],
                "uncleHeaders" : [
                ]
            }
        ],
        "genesisBlockHeader" : {
            "bloom" : "0x00000000000000000000000000000000000000000000000000000000000000000000000000000000000000000000000000000000000000000000000000000000000000000000000000000000000000000000000000000000000000000000000000000000000000000000000000000000000000000000000000000000000000000000000000000000000000000000000000000000000000000000000000000000000000000000000000000000000000000000000000000000000000000000000000000000000000000000000000000000000000000000000000000000000000000000000000000000000000000000000000000000000000000000000000000000",
            "coinbase" : "0xb94f5374fce5edbc8e2a8697c15331677e6ebf0b",
            "difficulty" : "0x020000",
            "extraData" : "0x42",
            "gasLimit" : "0x989680",
            "gasUsed" : "0x00",
            "hash" : "0x7de8cade80a2f10350ff0586ac067139e8e9a72ce344a47d2aa51b70abf95045",
            "mixHash" : "0x56e81f171bcc55a6ff8345e692c0f86e5b48e01b996cadc001622fb5e363b421",
            "nonce" : "0x0102030405060708",
            "number" : "0x00",
            "parentHash" : "0x0000000000000000000000000000000000000000000000000000000000000000",
            "receiptTrie" : "0x56e81f171bcc55a6ff8345e692c0f86e5b48e01b996cadc001622fb5e363b421",
            "stateRoot" : "0x031accb37c21b275d28ce69d13290d4754574cc957bf52571827d1b25ddbe79c",
            "timestamp" : "0x03b6",
            "transactionsTrie" : "0x56e81f171bcc55a6ff8345e692c0f86e5b48e01b996cadc001622fb5e363b421",
            "uncleHash" : "0x1dcc4de8dec75d7aab85b567b6ccd41ad312451b948a7413f0a142fd40d49347"
        },
        "genesisRLP" : "0xf901faf901f5a00000000000000000000000000000000000000000000000000000000000000000a01dcc4de8dec75d7aab85b567b6ccd41ad312451b948a7413f0a142fd40d4934794b94f5374fce5edbc8e2a8697c15331677e6ebf0ba0031accb37c21b275d28ce69d13290d4754574cc957bf52571827d1b25ddbe79ca056e81f171bcc55a6ff8345e692c0f86e5b48e01b996cadc001622fb5e363b421a056e81f171bcc55a6ff8345e692c0f86e5b48e01b996cadc001622fb5e363b421b9010000000000000000000000000000000000000000000000000000000000000000000000000000000000000000000000000000000000000000000000000000000000000000000000000000000000000000000000000000000000000000000000000000000000000000000000000000000000000000000000000000000000000000000000000000000000000000000000000000000000000000000000000000000000000000000000000000000000000000000000000000000000000000000000000000000000000000000000000000000000000000000000000000000000000000000000000000000000000000000000000000000000000000000000000000000000830200008083989680808203b642a056e81f171bcc55a6ff8345e692c0f86e5b48e01b996cadc001622fb5e363b421880102030405060708c0c0",
        "lastblockhash" : "0x95015a1063d82d22f7d9d7ccc6b16799a0defcb0083954677d75716943a774f4",
        "network" : "Homestead",
        "postState" : {
            "0x0000000000000000000000000000000000000000" : {
                "balance" : "0x01",
                "code" : "0x6000600055600060015560006002556000600355600060045560006005556000600655600060075560006008556000600955",
                "nonce" : "0x00",
                "storage" : {
                }
            },
            "0xa94f5374fce5edbc8e2a8697c15331677e6ebf0b" : {
                "balance" : "0x06e1fb",
                "code" : "",
                "nonce" : "0x01",
                "storage" : {
                }
            },
            "0xb94f5374fce5edbc8e2a8697c15331677e6ebf0b" : {
                "balance" : "0x4563918244f4bf1b",
                "code" : "",
                "nonce" : "0x00",
                "storage" : {
                }
            },
            "0xc94f5374fce5edbc8e2a8697c15331677e6ebf0b" : {
                "balance" : "0x13",
                "code" : "0x600060005560006001556000600255600060035560006000600060006001600061c350f1",
                "nonce" : "0x00",
                "storage" : {
                    "0x04" : "0x0c"
                }
            }
        },
        "pre" : {
            "0x0000000000000000000000000000000000000000" : {
                "balance" : "0x00",
                "code" : "0x6000600055600060015560006002556000600355600060045560006005556000600655600060075560006008556000600955",
                "nonce" : "0x00",
                "storage" : {
                    "0x00" : "0x0c",
                    "0x01" : "0x0c",
                    "0x02" : "0x0c",
                    "0x03" : "0x0c",
                    "0x04" : "0x0c",
                    "0x05" : "0x0c",
                    "0x06" : "0x0c",
                    "0x07" : "0x0c",
                    "0x08" : "0x0c",
                    "0x09" : "0x0c"
                }
            },
            "0xa94f5374fce5edbc8e2a8697c15331677e6ebf0b" : {
                "balance" : "0x07a120",
                "code" : "",
                "nonce" : "0x00",
                "storage" : {
                }
            },
            "0xc94f5374fce5edbc8e2a8697c15331677e6ebf0b" : {
                "balance" : "0x0a",
                "code" : "0x600060005560006001556000600255600060035560006000600060006001600061c350f1",
                "nonce" : "0x00",
                "storage" : {
                    "0x00" : "0x0c",
                    "0x01" : "0x0c",
                    "0x02" : "0x0c",
                    "0x03" : "0x0c",
                    "0x04" : "0x0c"
                }
            }
        }
    }
}