{
    "StoreGasOnCreate_d0g0v0_Byzantium" : {
        "_info" : {
            "comment" : "",
            "filledwith" : "cpp-1.3.0+commit.6e0ce939.Linux.g++",
            "lllcversion" : "Version: 0.4.18-develop.2017.9.25+commit.a72237f2.Linux.g++",
            "source" : "src/BlockchainTestsFiller/GeneralStateTests/stTransactionTest/StoreGasOnCreate_d0g0v0Filler.json",
            "sourceHash" : "5a8c5b88fca8a8f9ffa38d9bc5a057bdd853acbe197eadf7f02eded72f4c98d4"
        },
        "blocks" : [
            {
                "blockHeader" : {
                    "bloom" : "0x00000000000000000000000000000000000000000000000000000000000000000000000000000000000000000000000000000000000000000000000000000000000000000000000000000000000000000000000000000000000000000000000000000000000000000000000000000000000000000000000000000000000000000000000000000000000000000000000000000000000000000000000000000000000000000000000000000000000000000000000000000000000000000000000000000000000000000000000000000000000000000000000000000000000000000000000000000000000000000000000000000000000000000000000000000000",
                    "coinbase" : "0xb94f5374fce5edbc8e2a8697c15331677e6ebf0b",
                    "difficulty" : "0x020000",
                    "extraData" : "",
                    "gasLimit" : "0x0f4240",
                    "gasUsed" : "0x011d42",
                    "hash" : "0x6f3aebbd57b49e1ad616640215ce43901bc7ae7c6e85124da92addbab7073a52",
                    "mixHash" : "0xb5a8bc71dc49801190edd3f8ecd130a07c585d7a9cd36c34941cc040c45802cc",
                    "nonce" : "0x799819e58c98cb5b",
                    "number" : "0x01",
                    "parentHash" : "0xdaf5049877c5fe0266eab89c02f5c9b9bd132fac57fbad13d3ef909f9097dbc8",
                    "receiptTrie" : "0x9aff0795d3e543580f20c6827dd7582d4d9d28589a71010c501850310620bf9b",
                    "stateRoot" : "0xf26ebb5762ec3da859f272b40da52521cca9391d3e9ea89568317d528f06eb12",
                    "timestamp" : "0x03e8",
                    "transactionsTrie" : "0xbe70b05b1df4522aec758c4f6d268369e578251620b129377f8d38f5a4373ef5",
                    "uncleHash" : "0x1dcc4de8dec75d7aab85b567b6ccd41ad312451b948a7413f0a142fd40d49347"
                },
                "rlp" : "0xf90260f901f8a0daf5049877c5fe0266eab89c02f5c9b9bd132fac57fbad13d3ef909f9097dbc8a01dcc4de8dec75d7aab85b567b6ccd41ad312451b948a7413f0a142fd40d4934794b94f5374fce5edbc8e2a8697c15331677e6ebf0ba0f26ebb5762ec3da859f272b40da52521cca9391d3e9ea89568317d528f06eb12a0be70b05b1df4522aec758c4f6d268369e578251620b129377f8d38f5a4373ef5a09aff0795d3e543580f20c6827dd7582d4d9d28589a71010c501850310620bf9bb90100000000000000000000000000000000000000000000000000000000000000000000000000000000000000000000000000000000000000000000000000000000000000000000000000000000000000000000000000000000000000000000000000000000000000000000000000000000000000000000000000000000000000000000000000000000000000000000000000000000000000000000000000000000000000000000000000000000000000000000000000000000000000000000000000000000000000000000000000000000000000000000000000000000000000000000000000000000000000000000000000000000000000000000000000000000008302000001830f424083011d428203e880a0b5a8bc71dc49801190edd3f8ecd130a07c585d7a9cd36c34941cc040c45802cc88799819e58c98cb5bf862f86080018302032a94b94f5374fce5edbc8e2a8697c15331677e6ebf0b64801ca0e50d3284baffc47daf12571b58a6b472a679708b3b417fd8f233a1762f862561a067228488d10eced039910ed1b669a24baf0c7537751a78af977cdc22d0b4a17dc0",
                "transactions" : [
                    {
                        "data" : "",
                        "gasLimit" : "0x02032a",
                        "gasPrice" : "0x01",
                        "nonce" : "0x00",
                        "r" : "0xe50d3284baffc47daf12571b58a6b472a679708b3b417fd8f233a1762f862561",
                        "s" : "0x67228488d10eced039910ed1b669a24baf0c7537751a78af977cdc22d0b4a17d",
                        "to" : "0xb94f5374fce5edbc8e2a8697c15331677e6ebf0b",
                        "v" : "0x1c",
                        "value" : "0x64"
                    }
                ],
                "uncleHeaders" : [
                ]
            }
        ],
        "genesisBlockHeader" : {
            "bloom" : "0x00000000000000000000000000000000000000000000000000000000000000000000000000000000000000000000000000000000000000000000000000000000000000000000000000000000000000000000000000000000000000000000000000000000000000000000000000000000000000000000000000000000000000000000000000000000000000000000000000000000000000000000000000000000000000000000000000000000000000000000000000000000000000000000000000000000000000000000000000000000000000000000000000000000000000000000000000000000000000000000000000000000000000000000000000000000",
            "coinbase" : "0xb94f5374fce5edbc8e2a8697c15331677e6ebf0b",
            "difficulty" : "0x020000",
            "extraData" : "0x42",
            "gasLimit" : "0x0f4240",
            "gasUsed" : "0x00",
            "hash" : "0xdaf5049877c5fe0266eab89c02f5c9b9bd132fac57fbad13d3ef909f9097dbc8",
            "mixHash" : "0x56e81f171bcc55a6ff8345e692c0f86e5b48e01b996cadc001622fb5e363b421",
            "nonce" : "0x0102030405060708",
            "number" : "0x00",
            "parentHash" : "0x0000000000000000000000000000000000000000000000000000000000000000",
            "receiptTrie" : "0x56e81f171bcc55a6ff8345e692c0f86e5b48e01b996cadc001622fb5e363b421",
            "stateRoot" : "0xf6918d02bd8d819afd08bdfad13813cc7f7672e62ee18a07e3a52f627069cc4b",
            "timestamp" : "0x03b6",
            "transactionsTrie" : "0x56e81f171bcc55a6ff8345e692c0f86e5b48e01b996cadc001622fb5e363b421",
            "uncleHash" : "0x1dcc4de8dec75d7aab85b567b6ccd41ad312451b948a7413f0a142fd40d49347"
        },
        "genesisRLP" : "0xf901faf901f5a00000000000000000000000000000000000000000000000000000000000000000a01dcc4de8dec75d7aab85b567b6ccd41ad312451b948a7413f0a142fd40d4934794b94f5374fce5edbc8e2a8697c15331677e6ebf0ba0f6918d02bd8d819afd08bdfad13813cc7f7672e62ee18a07e3a52f627069cc4ba056e81f171bcc55a6ff8345e692c0f86e5b48e01b996cadc001622fb5e363b421a056e81f171bcc55a6ff8345e692c0f86e5b48e01b996cadc001622fb5e363b421b90100000000000000000000000000000000000000000000000000000000000000000000000000000000000000000000000000000000000000000000000000000000000000000000000000000000000000000000000000000000000000000000000000000000000000000000000000000000000000000000000000000000000000000000000000000000000000000000000000000000000000000000000000000000000000000000000000000000000000000000000000000000000000000000000000000000000000000000000000000000000000000000000000000000000000000000000000000000000000000000000000000000000000000000000000000000008302000080830f4240808203b642a056e81f171bcc55a6ff8345e692c0f86e5b48e01b996cadc001622fb5e363b421880102030405060708c0c0",
        "lastblockhash" : "0x6f3aebbd57b49e1ad616640215ce43901bc7ae7c6e85124da92addbab7073a52",
        "network" : "Byzantium",
        "postState" : {
            "0xa94f5374fce5edbc8e2a8697c15331677e6ebf0b" : {
                "balance" : "0x04fcda",
                "code" : "",
                "nonce" : "0x01",
                "storage" : {
                }
            },
            "0xb94f5374fce5edbc8e2a8697c15331677e6ebf0b" : {
                "balance" : "0x29a2241af62d1da6",
                "code" : "0x635a60fd556000526004601c6000f0",
                "nonce" : "0x01",
                "storage" : {
                }
            },
            "0xf1ecf98489fa9ed60a664fc4998db699cfa39d40" : {
                "balance" : "0x00",
                "code" : "",
                "nonce" : "0x01",
                "storage" : {
                    "0xfd" : "0x012f3b"
                }
            }
        },
        "pre" : {
            "0xa94f5374fce5edbc8e2a8697c15331677e6ebf0b" : {
                "balance" : "0x061a80",
                "code" : "",
                "nonce" : "0x00",
                "storage" : {
                }
            },
            "0xb94f5374fce5edbc8e2a8697c15331677e6ebf0b" : {
                "balance" : "0x00",
                "code" : "0x635a60fd556000526004601c6000f0",
                "nonce" : "0x00",
                "storage" : {
                }
            }
        }
    },
    "StoreGasOnCreate_d0g0v0_EIP150" : {
        "_info" : {
            "comment" : "",
            "filledwith" : "cpp-1.3.0+commit.6e0ce939.Linux.g++",
            "lllcversion" : "Version: 0.4.18-develop.2017.9.25+commit.a72237f2.Linux.g++",
            "source" : "src/BlockchainTestsFiller/GeneralStateTests/stTransactionTest/StoreGasOnCreate_d0g0v0Filler.json",
            "sourceHash" : "5a8c5b88fca8a8f9ffa38d9bc5a057bdd853acbe197eadf7f02eded72f4c98d4"
        },
        "blocks" : [
            {
                "blockHeader" : {
                    "bloom" : "0x00000000000000000000000000000000000000000000000000000000000000000000000000000000000000000000000000000000000000000000000000000000000000000000000000000000000000000000000000000000000000000000000000000000000000000000000000000000000000000000000000000000000000000000000000000000000000000000000000000000000000000000000000000000000000000000000000000000000000000000000000000000000000000000000000000000000000000000000000000000000000000000000000000000000000000000000000000000000000000000000000000000000000000000000000000000",
                    "coinbase" : "0xb94f5374fce5edbc8e2a8697c15331677e6ebf0b",
                    "difficulty" : "0x020000",
                    "extraData" : "",
                    "gasLimit" : "0x0f4240",
                    "gasUsed" : "0x011d42",
                    "hash" : "0x66a09546c4ac1963f7d1ea3bd8563e39834e25fa73c775b5beb2e4123032f7f7",
                    "mixHash" : "0x1a94bac5cc320dc606e3f4eff1f3b4e30623aeadbf899840d22fab689c78cc3f",
                    "nonce" : "0x08f16002f4f2d01c",
                    "number" : "0x01",
                    "parentHash" : "0xdaf5049877c5fe0266eab89c02f5c9b9bd132fac57fbad13d3ef909f9097dbc8",
                    "receiptTrie" : "0x6ebdb5354c5f6c07619dbeedfc87ba9c721305a2dee32cac6731b98ed6af1e37",
                    "stateRoot" : "0xa5efca3bf20283cd422c9aa2742395d72c0ee871a14349d98661686a1a51ef38",
                    "timestamp" : "0x03e8",
                    "transactionsTrie" : "0xbe70b05b1df4522aec758c4f6d268369e578251620b129377f8d38f5a4373ef5",
                    "uncleHash" : "0x1dcc4de8dec75d7aab85b567b6ccd41ad312451b948a7413f0a142fd40d49347"
                },
                "rlp" : "0xf90260f901f8a0daf5049877c5fe0266eab89c02f5c9b9bd132fac57fbad13d3ef909f9097dbc8a01dcc4de8dec75d7aab85b567b6ccd41ad312451b948a7413f0a142fd40d4934794b94f5374fce5edbc8e2a8697c15331677e6ebf0ba0a5efca3bf20283cd422c9aa2742395d72c0ee871a14349d98661686a1a51ef38a0be70b05b1df4522aec758c4f6d268369e578251620b129377f8d38f5a4373ef5a06ebdb5354c5f6c07619dbeedfc87ba9c721305a2dee32cac6731b98ed6af1e37b90100000000000000000000000000000000000000000000000000000000000000000000000000000000000000000000000000000000000000000000000000000000000000000000000000000000000000000000000000000000000000000000000000000000000000000000000000000000000000000000000000000000000000000000000000000000000000000000000000000000000000000000000000000000000000000000000000000000000000000000000000000000000000000000000000000000000000000000000000000000000000000000000000000000000000000000000000000000000000000000000000000000000000000000000000000000008302000001830f424083011d428203e880a01a94bac5cc320dc606e3f4eff1f3b4e30623aeadbf899840d22fab689c78cc3f8808f16002f4f2d01cf862f86080018302032a94b94f5374fce5edbc8e2a8697c15331677e6ebf0b64801ca0e50d3284baffc47daf12571b58a6b472a679708b3b417fd8f233a1762f862561a067228488d10eced039910ed1b669a24baf0c7537751a78af977cdc22d0b4a17dc0",
                "transactions" : [
                    {
                        "data" : "",
                        "gasLimit" : "0x02032a",
                        "gasPrice" : "0x01",
                        "nonce" : "0x00",
                        "r" : "0xe50d3284baffc47daf12571b58a6b472a679708b3b417fd8f233a1762f862561",
                        "s" : "0x67228488d10eced039910ed1b669a24baf0c7537751a78af977cdc22d0b4a17d",
                        "to" : "0xb94f5374fce5edbc8e2a8697c15331677e6ebf0b",
                        "v" : "0x1c",
                        "value" : "0x64"
                    }
                ],
                "uncleHeaders" : [
                ]
            }
        ],
        "genesisBlockHeader" : {
            "bloom" : "0x00000000000000000000000000000000000000000000000000000000000000000000000000000000000000000000000000000000000000000000000000000000000000000000000000000000000000000000000000000000000000000000000000000000000000000000000000000000000000000000000000000000000000000000000000000000000000000000000000000000000000000000000000000000000000000000000000000000000000000000000000000000000000000000000000000000000000000000000000000000000000000000000000000000000000000000000000000000000000000000000000000000000000000000000000000000",
            "coinbase" : "0xb94f5374fce5edbc8e2a8697c15331677e6ebf0b",
            "difficulty" : "0x020000",
            "extraData" : "0x42",
            "gasLimit" : "0x0f4240",
            "gasUsed" : "0x00",
            "hash" : "0xdaf5049877c5fe0266eab89c02f5c9b9bd132fac57fbad13d3ef909f9097dbc8",
            "mixHash" : "0x56e81f171bcc55a6ff8345e692c0f86e5b48e01b996cadc001622fb5e363b421",
            "nonce" : "0x0102030405060708",
            "number" : "0x00",
            "parentHash" : "0x0000000000000000000000000000000000000000000000000000000000000000",
            "receiptTrie" : "0x56e81f171bcc55a6ff8345e692c0f86e5b48e01b996cadc001622fb5e363b421",
            "stateRoot" : "0xf6918d02bd8d819afd08bdfad13813cc7f7672e62ee18a07e3a52f627069cc4b",
            "timestamp" : "0x03b6",
            "transactionsTrie" : "0x56e81f171bcc55a6ff8345e692c0f86e5b48e01b996cadc001622fb5e363b421",
            "uncleHash" : "0x1dcc4de8dec75d7aab85b567b6ccd41ad312451b948a7413f0a142fd40d49347"
        },
        "genesisRLP" : "0xf901faf901f5a00000000000000000000000000000000000000000000000000000000000000000a01dcc4de8dec75d7aab85b567b6ccd41ad312451b948a7413f0a142fd40d4934794b94f5374fce5edbc8e2a8697c15331677e6ebf0ba0f6918d02bd8d819afd08bdfad13813cc7f7672e62ee18a07e3a52f627069cc4ba056e81f171bcc55a6ff8345e692c0f86e5b48e01b996cadc001622fb5e363b421a056e81f171bcc55a6ff8345e692c0f86e5b48e01b996cadc001622fb5e363b421b90100000000000000000000000000000000000000000000000000000000000000000000000000000000000000000000000000000000000000000000000000000000000000000000000000000000000000000000000000000000000000000000000000000000000000000000000000000000000000000000000000000000000000000000000000000000000000000000000000000000000000000000000000000000000000000000000000000000000000000000000000000000000000000000000000000000000000000000000000000000000000000000000000000000000000000000000000000000000000000000000000000000000000000000000000000000008302000080830f4240808203b642a056e81f171bcc55a6ff8345e692c0f86e5b48e01b996cadc001622fb5e363b421880102030405060708c0c0",
        "lastblockhash" : "0x66a09546c4ac1963f7d1ea3bd8563e39834e25fa73c775b5beb2e4123032f7f7",
        "network" : "EIP150",
        "postState" : {
            "0xa94f5374fce5edbc8e2a8697c15331677e6ebf0b" : {
                "balance" : "0x04fcda",
                "code" : "",
                "nonce" : "0x01",
                "storage" : {
                }
            },
            "0xb94f5374fce5edbc8e2a8697c15331677e6ebf0b" : {
                "balance" : "0x4563918244f51da6",
                "code" : "0x635a60fd556000526004601c6000f0",
                "nonce" : "0x01",
                "storage" : {
                }
            },
            "0xf1ecf98489fa9ed60a664fc4998db699cfa39d40" : {
                "balance" : "0x00",
                "code" : "",
                "nonce" : "0x00",
                "storage" : {
                    "0xfd" : "0x012f3b"
                }
            }
        },
        "pre" : {
            "0xa94f5374fce5edbc8e2a8697c15331677e6ebf0b" : {
                "balance" : "0x061a80",
                "code" : "",
                "nonce" : "0x00",
                "storage" : {
                }
            },
            "0xb94f5374fce5edbc8e2a8697c15331677e6ebf0b" : {
                "balance" : "0x00",
                "code" : "0x635a60fd556000526004601c6000f0",
                "nonce" : "0x00",
                "storage" : {
                }
            }
        }
    },
    "StoreGasOnCreate_d0g0v0_EIP158" : {
        "_info" : {
            "comment" : "",
            "filledwith" : "cpp-1.3.0+commit.6e0ce939.Linux.g++",
            "lllcversion" : "Version: 0.4.18-develop.2017.9.25+commit.a72237f2.Linux.g++",
            "source" : "src/BlockchainTestsFiller/GeneralStateTests/stTransactionTest/StoreGasOnCreate_d0g0v0Filler.json",
            "sourceHash" : "5a8c5b88fca8a8f9ffa38d9bc5a057bdd853acbe197eadf7f02eded72f4c98d4"
        },
        "blocks" : [
            {
                "blockHeader" : {
                    "bloom" : "0x00000000000000000000000000000000000000000000000000000000000000000000000000000000000000000000000000000000000000000000000000000000000000000000000000000000000000000000000000000000000000000000000000000000000000000000000000000000000000000000000000000000000000000000000000000000000000000000000000000000000000000000000000000000000000000000000000000000000000000000000000000000000000000000000000000000000000000000000000000000000000000000000000000000000000000000000000000000000000000000000000000000000000000000000000000000",
                    "coinbase" : "0xb94f5374fce5edbc8e2a8697c15331677e6ebf0b",
                    "difficulty" : "0x020000",
                    "extraData" : "",
                    "gasLimit" : "0x0f4240",
                    "gasUsed" : "0x011d42",
                    "hash" : "0x5679d4c7839326c92122de46469ede8507b9bd3da591850a5a1dc16c3fd3a542",
                    "mixHash" : "0xe6f7c98f98f2dc90373d325c38e2c283c4ddec12291f69319ef6e875b9d6cdc5",
                    "nonce" : "0xfefdffc51d0fb9a7",
                    "number" : "0x01",
                    "parentHash" : "0xdaf5049877c5fe0266eab89c02f5c9b9bd132fac57fbad13d3ef909f9097dbc8",
                    "receiptTrie" : "0x0b80ea784768bd9dd3aeda477fd2d2c863cd7b18341c2b90d70e73de219a43f5",
                    "stateRoot" : "0xcc70629b66a429ab9660ef4dd3531a99ed1d8c6fff39c2c5e74ebb7af75fe307",
                    "timestamp" : "0x03e8",
                    "transactionsTrie" : "0xbe70b05b1df4522aec758c4f6d268369e578251620b129377f8d38f5a4373ef5",
                    "uncleHash" : "0x1dcc4de8dec75d7aab85b567b6ccd41ad312451b948a7413f0a142fd40d49347"
                },
                "rlp" : "0xf90260f901f8a0daf5049877c5fe0266eab89c02f5c9b9bd132fac57fbad13d3ef909f9097dbc8a01dcc4de8dec75d7aab85b567b6ccd41ad312451b948a7413f0a142fd40d4934794b94f5374fce5edbc8e2a8697c15331677e6ebf0ba0cc70629b66a429ab9660ef4dd3531a99ed1d8c6fff39c2c5e74ebb7af75fe307a0be70b05b1df4522aec758c4f6d268369e578251620b129377f8d38f5a4373ef5a00b80ea784768bd9dd3aeda477fd2d2c863cd7b18341c2b90d70e73de219a43f5b90100000000000000000000000000000000000000000000000000000000000000000000000000000000000000000000000000000000000000000000000000000000000000000000000000000000000000000000000000000000000000000000000000000000000000000000000000000000000000000000000000000000000000000000000000000000000000000000000000000000000000000000000000000000000000000000000000000000000000000000000000000000000000000000000000000000000000000000000000000000000000000000000000000000000000000000000000000000000000000000000000000000000000000000000000000000008302000001830f424083011d428203e880a0e6f7c98f98f2dc90373d325c38e2c283c4ddec12291f69319ef6e875b9d6cdc588fefdffc51d0fb9a7f862f86080018302032a94b94f5374fce5edbc8e2a8697c15331677e6ebf0b64801ca0e50d3284baffc47daf12571b58a6b472a679708b3b417fd8f233a1762f862561a067228488d10eced039910ed1b669a24baf0c7537751a78af977cdc22d0b4a17dc0",
                "transactions" : [
                    {
                        "data" : "",
                        "gasLimit" : "0x02032a",
                        "gasPrice" : "0x01",
                        "nonce" : "0x00",
                        "r" : "0xe50d3284baffc47daf12571b58a6b472a679708b3b417fd8f233a1762f862561",
                        "s" : "0x67228488d10eced039910ed1b669a24baf0c7537751a78af977cdc22d0b4a17d",
                        "to" : "0xb94f5374fce5edbc8e2a8697c15331677e6ebf0b",
                        "v" : "0x1c",
                        "value" : "0x64"
                    }
                ],
                "uncleHeaders" : [
                ]
            }
        ],
        "genesisBlockHeader" : {
            "bloom" : "0x00000000000000000000000000000000000000000000000000000000000000000000000000000000000000000000000000000000000000000000000000000000000000000000000000000000000000000000000000000000000000000000000000000000000000000000000000000000000000000000000000000000000000000000000000000000000000000000000000000000000000000000000000000000000000000000000000000000000000000000000000000000000000000000000000000000000000000000000000000000000000000000000000000000000000000000000000000000000000000000000000000000000000000000000000000000",
            "coinbase" : "0xb94f5374fce5edbc8e2a8697c15331677e6ebf0b",
            "difficulty" : "0x020000",
            "extraData" : "0x42",
            "gasLimit" : "0x0f4240",
            "gasUsed" : "0x00",
            "hash" : "0xdaf5049877c5fe0266eab89c02f5c9b9bd132fac57fbad13d3ef909f9097dbc8",
            "mixHash" : "0x56e81f171bcc55a6ff8345e692c0f86e5b48e01b996cadc001622fb5e363b421",
            "nonce" : "0x0102030405060708",
            "number" : "0x00",
            "parentHash" : "0x0000000000000000000000000000000000000000000000000000000000000000",
            "receiptTrie" : "0x56e81f171bcc55a6ff8345e692c0f86e5b48e01b996cadc001622fb5e363b421",
            "stateRoot" : "0xf6918d02bd8d819afd08bdfad13813cc7f7672e62ee18a07e3a52f627069cc4b",
            "timestamp" : "0x03b6",
            "transactionsTrie" : "0x56e81f171bcc55a6ff8345e692c0f86e5b48e01b996cadc001622fb5e363b421",
            "uncleHash" : "0x1dcc4de8dec75d7aab85b567b6ccd41ad312451b948a7413f0a142fd40d49347"
        },
        "genesisRLP" : "0xf901faf901f5a00000000000000000000000000000000000000000000000000000000000000000a01dcc4de8dec75d7aab85b567b6ccd41ad312451b948a7413f0a142fd40d4934794b94f5374fce5edbc8e2a8697c15331677e6ebf0ba0f6918d02bd8d819afd08bdfad13813cc7f7672e62ee18a07e3a52f627069cc4ba056e81f171bcc55a6ff8345e692c0f86e5b48e01b996cadc001622fb5e363b421a056e81f171bcc55a6ff8345e692c0f86e5b48e01b996cadc001622fb5e363b421b90100000000000000000000000000000000000000000000000000000000000000000000000000000000000000000000000000000000000000000000000000000000000000000000000000000000000000000000000000000000000000000000000000000000000000000000000000000000000000000000000000000000000000000000000000000000000000000000000000000000000000000000000000000000000000000000000000000000000000000000000000000000000000000000000000000000000000000000000000000000000000000000000000000000000000000000000000000000000000000000000000000000000000000000000000000000008302000080830f4240808203b642a056e81f171bcc55a6ff8345e692c0f86e5b48e01b996cadc001622fb5e363b421880102030405060708c0c0",
        "lastblockhash" : "0x5679d4c7839326c92122de46469ede8507b9bd3da591850a5a1dc16c3fd3a542",
        "network" : "EIP158",
        "postState" : {
            "0xa94f5374fce5edbc8e2a8697c15331677e6ebf0b" : {
                "balance" : "0x04fcda",
                "code" : "",
                "nonce" : "0x01",
                "storage" : {
                }
            },
            "0xb94f5374fce5edbc8e2a8697c15331677e6ebf0b" : {
                "balance" : "0x4563918244f51da6",
                "code" : "0x635a60fd556000526004601c6000f0",
                "nonce" : "0x01",
                "storage" : {
                }
            },
            "0xf1ecf98489fa9ed60a664fc4998db699cfa39d40" : {
                "balance" : "0x00",
                "code" : "",
                "nonce" : "0x01",
                "storage" : {
                    "0xfd" : "0x012f3b"
                }
            }
        },
        "pre" : {
            "0xa94f5374fce5edbc8e2a8697c15331677e6ebf0b" : {
                "balance" : "0x061a80",
                "code" : "",
                "nonce" : "0x00",
                "storage" : {
                }
            },
            "0xb94f5374fce5edbc8e2a8697c15331677e6ebf0b" : {
                "balance" : "0x00",
                "code" : "0x635a60fd556000526004601c6000f0",
                "nonce" : "0x00",
                "storage" : {
                }
            }
        }
    },
    "StoreGasOnCreate_d0g0v0_Frontier" : {
        "_info" : {
            "comment" : "",
            "filledwith" : "cpp-1.3.0+commit.6e0ce939.Linux.g++",
            "lllcversion" : "Version: 0.4.18-develop.2017.9.25+commit.a72237f2.Linux.g++",
            "source" : "src/BlockchainTestsFiller/GeneralStateTests/stTransactionTest/StoreGasOnCreate_d0g0v0Filler.json",
            "sourceHash" : "5a8c5b88fca8a8f9ffa38d9bc5a057bdd853acbe197eadf7f02eded72f4c98d4"
        },
        "blocks" : [
            {
                "blockHeader" : {
                    "bloom" : "0x00000000000000000000000000000000000000000000000000000000000000000000000000000000000000000000000000000000000000000000000000000000000000000000000000000000000000000000000000000000000000000000000000000000000000000000000000000000000000000000000000000000000000000000000000000000000000000000000000000000000000000000000000000000000000000000000000000000000000000000000000000000000000000000000000000000000000000000000000000000000000000000000000000000000000000000000000000000000000000000000000000000000000000000000000000000",
                    "coinbase" : "0xb94f5374fce5edbc8e2a8697c15331677e6ebf0b",
                    "difficulty" : "0x020000",
                    "extraData" : "",
                    "gasLimit" : "0x0f4240",
                    "gasUsed" : "0x011d42",
                    "hash" : "0x35a529440a19dc4c12a30ad9617d61cf2f07a5110b8454a7159a39f0125c8704",
                    "mixHash" : "0x9472c0a97b41398d89de2aa5d478760435e46dd799e91207e9274effa852c91a",
                    "nonce" : "0x6cfb6dd04f9705a6",
                    "number" : "0x01",
                    "parentHash" : "0xdaf5049877c5fe0266eab89c02f5c9b9bd132fac57fbad13d3ef909f9097dbc8",
                    "receiptTrie" : "0x16b309c510bec7011464bfaad4ba29495b6272164e552fb0c2bb0b90cd163f7b",
                    "stateRoot" : "0x7de8bb3aaee3cb16376e97490cdbb96c33c716e98a65db14912818ac1ac8f663",
                    "timestamp" : "0x03e8",
                    "transactionsTrie" : "0xbe70b05b1df4522aec758c4f6d268369e578251620b129377f8d38f5a4373ef5",
                    "uncleHash" : "0x1dcc4de8dec75d7aab85b567b6ccd41ad312451b948a7413f0a142fd40d49347"
                },
                "rlp" : "0xf90260f901f8a0daf5049877c5fe0266eab89c02f5c9b9bd132fac57fbad13d3ef909f9097dbc8a01dcc4de8dec75d7aab85b567b6ccd41ad312451b948a7413f0a142fd40d4934794b94f5374fce5edbc8e2a8697c15331677e6ebf0ba07de8bb3aaee3cb16376e97490cdbb96c33c716e98a65db14912818ac1ac8f663a0be70b05b1df4522aec758c4f6d268369e578251620b129377f8d38f5a4373ef5a016b309c510bec7011464bfaad4ba29495b6272164e552fb0c2bb0b90cd163f7bb90100000000000000000000000000000000000000000000000000000000000000000000000000000000000000000000000000000000000000000000000000000000000000000000000000000000000000000000000000000000000000000000000000000000000000000000000000000000000000000000000000000000000000000000000000000000000000000000000000000000000000000000000000000000000000000000000000000000000000000000000000000000000000000000000000000000000000000000000000000000000000000000000000000000000000000000000000000000000000000000000000000000000000000000000000000000008302000001830f424083011d428203e880a09472c0a97b41398d89de2aa5d478760435e46dd799e91207e9274effa852c91a886cfb6dd04f9705a6f862f86080018302032a94b94f5374fce5edbc8e2a8697c15331677e6ebf0b64801ca0e50d3284baffc47daf12571b58a6b472a679708b3b417fd8f233a1762f862561a067228488d10eced039910ed1b669a24baf0c7537751a78af977cdc22d0b4a17dc0",
                "transactions" : [
                    {
                        "data" : "",
                        "gasLimit" : "0x02032a",
                        "gasPrice" : "0x01",
                        "nonce" : "0x00",
                        "r" : "0xe50d3284baffc47daf12571b58a6b472a679708b3b417fd8f233a1762f862561",
                        "s" : "0x67228488d10eced039910ed1b669a24baf0c7537751a78af977cdc22d0b4a17d",
                        "to" : "0xb94f5374fce5edbc8e2a8697c15331677e6ebf0b",
                        "v" : "0x1c",
                        "value" : "0x64"
                    }
                ],
                "uncleHeaders" : [
                ]
            }
        ],
        "genesisBlockHeader" : {
            "bloom" : "0x00000000000000000000000000000000000000000000000000000000000000000000000000000000000000000000000000000000000000000000000000000000000000000000000000000000000000000000000000000000000000000000000000000000000000000000000000000000000000000000000000000000000000000000000000000000000000000000000000000000000000000000000000000000000000000000000000000000000000000000000000000000000000000000000000000000000000000000000000000000000000000000000000000000000000000000000000000000000000000000000000000000000000000000000000000000",
            "coinbase" : "0xb94f5374fce5edbc8e2a8697c15331677e6ebf0b",
            "difficulty" : "0x020000",
            "extraData" : "0x42",
            "gasLimit" : "0x0f4240",
            "gasUsed" : "0x00",
            "hash" : "0xdaf5049877c5fe0266eab89c02f5c9b9bd132fac57fbad13d3ef909f9097dbc8",
            "mixHash" : "0x56e81f171bcc55a6ff8345e692c0f86e5b48e01b996cadc001622fb5e363b421",
            "nonce" : "0x0102030405060708",
            "number" : "0x00",
            "parentHash" : "0x0000000000000000000000000000000000000000000000000000000000000000",
            "receiptTrie" : "0x56e81f171bcc55a6ff8345e692c0f86e5b48e01b996cadc001622fb5e363b421",
            "stateRoot" : "0xf6918d02bd8d819afd08bdfad13813cc7f7672e62ee18a07e3a52f627069cc4b",
            "timestamp" : "0x03b6",
            "transactionsTrie" : "0x56e81f171bcc55a6ff8345e692c0f86e5b48e01b996cadc001622fb5e363b421",
            "uncleHash" : "0x1dcc4de8dec75d7aab85b567b6ccd41ad312451b948a7413f0a142fd40d49347"
        },
        "genesisRLP" : "0xf901faf901f5a00000000000000000000000000000000000000000000000000000000000000000a01dcc4de8dec75d7aab85b567b6ccd41ad312451b948a7413f0a142fd40d4934794b94f5374fce5edbc8e2a8697c15331677e6ebf0ba0f6918d02bd8d819afd08bdfad13813cc7f7672e62ee18a07e3a52f627069cc4ba056e81f171bcc55a6ff8345e692c0f86e5b48e01b996cadc001622fb5e363b421a056e81f171bcc55a6ff8345e692c0f86e5b48e01b996cadc001622fb5e363b421b90100000000000000000000000000000000000000000000000000000000000000000000000000000000000000000000000000000000000000000000000000000000000000000000000000000000000000000000000000000000000000000000000000000000000000000000000000000000000000000000000000000000000000000000000000000000000000000000000000000000000000000000000000000000000000000000000000000000000000000000000000000000000000000000000000000000000000000000000000000000000000000000000000000000000000000000000000000000000000000000000000000000000000000000000000000000008302000080830f4240808203b642a056e81f171bcc55a6ff8345e692c0f86e5b48e01b996cadc001622fb5e363b421880102030405060708c0c0",
        "lastblockhash" : "0x35a529440a19dc4c12a30ad9617d61cf2f07a5110b8454a7159a39f0125c8704",
        "network" : "Frontier",
        "postState" : {
            "0xa94f5374fce5edbc8e2a8697c15331677e6ebf0b" : {
                "balance" : "0x04fcda",
                "code" : "",
                "nonce" : "0x01",
                "storage" : {
                }
            },
            "0xb94f5374fce5edbc8e2a8697c15331677e6ebf0b" : {
                "balance" : "0x4563918244f51da6",
                "code" : "0x635a60fd556000526004601c6000f0",
                "nonce" : "0x01",
                "storage" : {
                }
            },
            "0xf1ecf98489fa9ed60a664fc4998db699cfa39d40" : {
                "balance" : "0x00",
                "code" : "",
                "nonce" : "0x00",
                "storage" : {
                    "0xfd" : "0x01340b"
                }
            }
        },
        "pre" : {
            "0xa94f5374fce5edbc8e2a8697c15331677e6ebf0b" : {
                "balance" : "0x061a80",
                "code" : "",
                "nonce" : "0x00",
                "storage" : {
                }
            },
            "0xb94f5374fce5edbc8e2a8697c15331677e6ebf0b" : {
                "balance" : "0x00",
                "code" : "0x635a60fd556000526004601c6000f0",
                "nonce" : "0x00",
                "storage" : {
                }
            }
        }
    },
    "StoreGasOnCreate_d0g0v0_Homestead" : {
        "_info" : {
            "comment" : "",
            "filledwith" : "cpp-1.3.0+commit.6e0ce939.Linux.g++",
            "lllcversion" : "Version: 0.4.18-develop.2017.9.25+commit.a72237f2.Linux.g++",
            "source" : "src/BlockchainTestsFiller/GeneralStateTests/stTransactionTest/StoreGasOnCreate_d0g0v0Filler.json",
            "sourceHash" : "5a8c5b88fca8a8f9ffa38d9bc5a057bdd853acbe197eadf7f02eded72f4c98d4"
        },
        "blocks" : [
            {
                "blockHeader" : {
                    "bloom" : "0x00000000000000000000000000000000000000000000000000000000000000000000000000000000000000000000000000000000000000000000000000000000000000000000000000000000000000000000000000000000000000000000000000000000000000000000000000000000000000000000000000000000000000000000000000000000000000000000000000000000000000000000000000000000000000000000000000000000000000000000000000000000000000000000000000000000000000000000000000000000000000000000000000000000000000000000000000000000000000000000000000000000000000000000000000000000",
                    "coinbase" : "0xb94f5374fce5edbc8e2a8697c15331677e6ebf0b",
                    "difficulty" : "0x020000",
                    "extraData" : "",
                    "gasLimit" : "0x0f4240",
                    "gasUsed" : "0x011d42",
                    "hash" : "0x67082ce7316ef894a09df49d83f02191ea6da36584ec372af119b2a5d78c33bd",
                    "mixHash" : "0x353369e4bf2e8e4e60817179f12d0184247e0c6bfdc678b825fd6be0bd62422e",
                    "nonce" : "0x1a3f93a4c03ad0c3",
                    "number" : "0x01",
                    "parentHash" : "0xdaf5049877c5fe0266eab89c02f5c9b9bd132fac57fbad13d3ef909f9097dbc8",
                    "receiptTrie" : "0x16b309c510bec7011464bfaad4ba29495b6272164e552fb0c2bb0b90cd163f7b",
                    "stateRoot" : "0x7de8bb3aaee3cb16376e97490cdbb96c33c716e98a65db14912818ac1ac8f663",
                    "timestamp" : "0x03e8",
                    "transactionsTrie" : "0xbe70b05b1df4522aec758c4f6d268369e578251620b129377f8d38f5a4373ef5",
                    "uncleHash" : "0x1dcc4de8dec75d7aab85b567b6ccd41ad312451b948a7413f0a142fd40d49347"
                },
                "rlp" : "0xf90260f901f8a0daf5049877c5fe0266eab89c02f5c9b9bd132fac57fbad13d3ef909f9097dbc8a01dcc4de8dec75d7aab85b567b6ccd41ad312451b948a7413f0a142fd40d4934794b94f5374fce5edbc8e2a8697c15331677e6ebf0ba07de8bb3aaee3cb16376e97490cdbb96c33c716e98a65db14912818ac1ac8f663a0be70b05b1df4522aec758c4f6d268369e578251620b129377f8d38f5a4373ef5a016b309c510bec7011464bfaad4ba29495b6272164e552fb0c2bb0b90cd163f7bb90100000000000000000000000000000000000000000000000000000000000000000000000000000000000000000000000000000000000000000000000000000000000000000000000000000000000000000000000000000000000000000000000000000000000000000000000000000000000000000000000000000000000000000000000000000000000000000000000000000000000000000000000000000000000000000000000000000000000000000000000000000000000000000000000000000000000000000000000000000000000000000000000000000000000000000000000000000000000000000000000000000000000000000000000000000000008302000001830f424083011d428203e880a0353369e4bf2e8e4e60817179f12d0184247e0c6bfdc678b825fd6be0bd62422e881a3f93a4c03ad0c3f862f86080018302032a94b94f5374fce5edbc8e2a8697c15331677e6ebf0b64801ca0e50d3284baffc47daf12571b58a6b472a679708b3b417fd8f233a1762f862561a067228488d10eced039910ed1b669a24baf0c7537751a78af977cdc22d0b4a17dc0",
                "transactions" : [
                    {
                        "data" : "",
                        "gasLimit" : "0x02032a",
                        "gasPrice" : "0x01",
                        "nonce" : "0x00",
                        "r" : "0xe50d3284baffc47daf12571b58a6b472a679708b3b417fd8f233a1762f862561",
                        "s" : "0x67228488d10eced039910ed1b669a24baf0c7537751a78af977cdc22d0b4a17d",
                        "to" : "0xb94f5374fce5edbc8e2a8697c15331677e6ebf0b",
                        "v" : "0x1c",
                        "value" : "0x64"
                    }
                ],
                "uncleHeaders" : [
                ]
            }
        ],
        "genesisBlockHeader" : {
            "bloom" : "0x00000000000000000000000000000000000000000000000000000000000000000000000000000000000000000000000000000000000000000000000000000000000000000000000000000000000000000000000000000000000000000000000000000000000000000000000000000000000000000000000000000000000000000000000000000000000000000000000000000000000000000000000000000000000000000000000000000000000000000000000000000000000000000000000000000000000000000000000000000000000000000000000000000000000000000000000000000000000000000000000000000000000000000000000000000000",
            "coinbase" : "0xb94f5374fce5edbc8e2a8697c15331677e6ebf0b",
            "difficulty" : "0x020000",
            "extraData" : "0x42",
            "gasLimit" : "0x0f4240",
            "gasUsed" : "0x00",
            "hash" : "0xdaf5049877c5fe0266eab89c02f5c9b9bd132fac57fbad13d3ef909f9097dbc8",
            "mixHash" : "0x56e81f171bcc55a6ff8345e692c0f86e5b48e01b996cadc001622fb5e363b421",
            "nonce" : "0x0102030405060708",
            "number" : "0x00",
            "parentHash" : "0x0000000000000000000000000000000000000000000000000000000000000000",
            "receiptTrie" : "0x56e81f171bcc55a6ff8345e692c0f86e5b48e01b996cadc001622fb5e363b421",
            "stateRoot" : "0xf6918d02bd8d819afd08bdfad13813cc7f7672e62ee18a07e3a52f627069cc4b",
            "timestamp" : "0x03b6",
            "transactionsTrie" : "0x56e81f171bcc55a6ff8345e692c0f86e5b48e01b996cadc001622fb5e363b421",
            "uncleHash" : "0x1dcc4de8dec75d7aab85b567b6ccd41ad312451b948a7413f0a142fd40d49347"
        },
        "genesisRLP" : "0xf901faf901f5a00000000000000000000000000000000000000000000000000000000000000000a01dcc4de8dec75d7aab85b567b6ccd41ad312451b948a7413f0a142fd40d4934794b94f5374fce5edbc8e2a8697c15331677e6ebf0ba0f6918d02bd8d819afd08bdfad13813cc7f7672e62ee18a07e3a52f627069cc4ba056e81f171bcc55a6ff8345e692c0f86e5b48e01b996cadc001622fb5e363b421a056e81f171bcc55a6ff8345e692c0f86e5b48e01b996cadc001622fb5e363b421b90100000000000000000000000000000000000000000000000000000000000000000000000000000000000000000000000000000000000000000000000000000000000000000000000000000000000000000000000000000000000000000000000000000000000000000000000000000000000000000000000000000000000000000000000000000000000000000000000000000000000000000000000000000000000000000000000000000000000000000000000000000000000000000000000000000000000000000000000000000000000000000000000000000000000000000000000000000000000000000000000000000000000000000000000000000000008302000080830f4240808203b642a056e81f171bcc55a6ff8345e692c0f86e5b48e01b996cadc001622fb5e363b421880102030405060708c0c0",
        "lastblockhash" : "0x67082ce7316ef894a09df49d83f02191ea6da36584ec372af119b2a5d78c33bd",
        "network" : "Homestead",
        "postState" : {
            "0xa94f5374fce5edbc8e2a8697c15331677e6ebf0b" : {
                "balance" : "0x04fcda",
                "code" : "",
                "nonce" : "0x01",
                "storage" : {
                }
            },
            "0xb94f5374fce5edbc8e2a8697c15331677e6ebf0b" : {
                "balance" : "0x4563918244f51da6",
                "code" : "0x635a60fd556000526004601c6000f0",
                "nonce" : "0x01",
                "storage" : {
                }
            },
            "0xf1ecf98489fa9ed60a664fc4998db699cfa39d40" : {
                "balance" : "0x00",
                "code" : "",
                "nonce" : "0x00",
                "storage" : {
                    "0xfd" : "0x01340b"
                }
            }
        },
        "pre" : {
            "0xa94f5374fce5edbc8e2a8697c15331677e6ebf0b" : {
                "balance" : "0x061a80",
                "code" : "",
                "nonce" : "0x00",
                "storage" : {
                }
            },
            "0xb94f5374fce5edbc8e2a8697c15331677e6ebf0b" : {
                "balance" : "0x00",
                "code" : "0x635a60fd556000526004601c6000f0",
                "nonce" : "0x00",
                "storage" : {
                }
            }
        }
    }
}