{
    "SuicidesAndSendMoneyToItselfEtherDestroyed_d0g0v0_Byzantium" : {
        "_info" : {
            "comment" : "",
            "filledwith" : "cpp-1.3.0+commit.6e0ce939.Linux.g++",
            "lllcversion" : "Version: 0.4.18-develop.2017.9.25+commit.a72237f2.Linux.g++",
            "source" : "src/BlockchainTestsFiller/GeneralStateTests/stTransactionTest/SuicidesAndSendMoneyToItselfEtherDestroyed_d0g0v0Filler.json",
            "sourceHash" : "928429dde3d40b008c3cff9aae56385b627c539a66e7a15c8f66b045268acbab"
        },
        "blocks" : [
            {
                "blockHeader" : {
                    "bloom" : "0x00000000000000000000000000000000000000000000000000000000000000000000000000000000000000000000000000000000000000000000000000000000000000000000000000000000000000000000000000000000000000000000000000000000000000000000000000000000000000000000000000000000000000000000000000000000000000000000000000000000000000000000000000000000000000000000000000000000000000000000000000000000000000000000000000000000000000000000000000000000000000000000000000000000000000000000000000000000000000000000000000000000000000000000000000000000",
                    "coinbase" : "0xb94f5374fce5edbc8e2a8697c15331677e6ebf0b",
                    "difficulty" : "0x020000",
                    "extraData" : "",
                    "gasLimit" : "0x0f4240",
                    "gasUsed" : "0x32ca",
                    "hash" : "0x88dd4938f047c16e0607566ff4a4515aafa3102a3d9bdf42b5b5dc35d7eea557",
                    "mixHash" : "0xf2bb5ce1faca772142acbc702ea413e8487653be2406ce493b109ba56b836a63",
                    "nonce" : "0x174a068baa8e18b7",
                    "number" : "0x01",
                    "parentHash" : "0x301ebf82aa4c9ad02471be3ce3830ae2f8f8dc305121ae0ca5e8c57dcc6df77e",
                    "receiptTrie" : "0xbdc6970604c358a6e29ea6d74bc6182566b1d8479b2d5fdae39ff17df01813d7",
                    "stateRoot" : "0x478be84446ee5c06613d24b61ef6c8fb29d8d48b0a173185d8d73a7adc88b418",
                    "timestamp" : "0x03e8",
                    "transactionsTrie" : "0xf8ef0f433c71d5409ac963458019707c150b363eeb124020e7af0e8273e31584",
                    "uncleHash" : "0x1dcc4de8dec75d7aab85b567b6ccd41ad312451b948a7413f0a142fd40d49347"
                },
                "rlp" : "0xf9025ef901f7a0301ebf82aa4c9ad02471be3ce3830ae2f8f8dc305121ae0ca5e8c57dcc6df77ea01dcc4de8dec75d7aab85b567b6ccd41ad312451b948a7413f0a142fd40d4934794b94f5374fce5edbc8e2a8697c15331677e6ebf0ba0478be84446ee5c06613d24b61ef6c8fb29d8d48b0a173185d8d73a7adc88b418a0f8ef0f433c71d5409ac963458019707c150b363eeb124020e7af0e8273e31584a0bdc6970604c358a6e29ea6d74bc6182566b1d8479b2d5fdae39ff17df01813d7b90100000000000000000000000000000000000000000000000000000000000000000000000000000000000000000000000000000000000000000000000000000000000000000000000000000000000000000000000000000000000000000000000000000000000000000000000000000000000000000000000000000000000000000000000000000000000000000000000000000000000000000000000000000000000000000000000000000000000000000000000000000000000000000000000000000000000000000000000000000000000000000000000000000000000000000000000000000000000000000000000000000000000000000000000000000000008302000001830f42408232ca8203e880a0f2bb5ce1faca772142acbc702ea413e8487653be2406ce493b109ba56b836a6388174a068baa8e18b7f861f85f8001827bd494c94f5374fce5edbc8e2a8697c15331677e6ebf0b0a801ba0cc54ba9df3c3437ad6c19db46d967f38cac33f6db0e9adb48d807274acbb31d4a019bd4afccf2863066d7ff166426db8634e9cd35a5bbc5fe5210eb2478446f4e6c0",
                "transactions" : [
                    {
                        "data" : "",
                        "gasLimit" : "0x7bd4",
                        "gasPrice" : "0x01",
                        "nonce" : "0x00",
                        "r" : "0xcc54ba9df3c3437ad6c19db46d967f38cac33f6db0e9adb48d807274acbb31d4",
                        "s" : "0x19bd4afccf2863066d7ff166426db8634e9cd35a5bbc5fe5210eb2478446f4e6",
                        "to" : "0xc94f5374fce5edbc8e2a8697c15331677e6ebf0b",
                        "v" : "0x1b",
                        "value" : "0x0a"
                    }
                ],
                "uncleHeaders" : [
                ]
            }
        ],
        "genesisBlockHeader" : {
            "bloom" : "0x00000000000000000000000000000000000000000000000000000000000000000000000000000000000000000000000000000000000000000000000000000000000000000000000000000000000000000000000000000000000000000000000000000000000000000000000000000000000000000000000000000000000000000000000000000000000000000000000000000000000000000000000000000000000000000000000000000000000000000000000000000000000000000000000000000000000000000000000000000000000000000000000000000000000000000000000000000000000000000000000000000000000000000000000000000000",
            "coinbase" : "0xb94f5374fce5edbc8e2a8697c15331677e6ebf0b",
            "difficulty" : "0x020000",
            "extraData" : "0x42",
            "gasLimit" : "0x0f4240",
            "gasUsed" : "0x00",
            "hash" : "0x301ebf82aa4c9ad02471be3ce3830ae2f8f8dc305121ae0ca5e8c57dcc6df77e",
            "mixHash" : "0x56e81f171bcc55a6ff8345e692c0f86e5b48e01b996cadc001622fb5e363b421",
            "nonce" : "0x0102030405060708",
            "number" : "0x00",
            "parentHash" : "0x0000000000000000000000000000000000000000000000000000000000000000",
            "receiptTrie" : "0x56e81f171bcc55a6ff8345e692c0f86e5b48e01b996cadc001622fb5e363b421",
            "stateRoot" : "0x3380a16e2fc358b2db99fef699ad95a91a37d7fbd510820e8351a6d46f149d99",
            "timestamp" : "0x03b6",
            "transactionsTrie" : "0x56e81f171bcc55a6ff8345e692c0f86e5b48e01b996cadc001622fb5e363b421",
            "uncleHash" : "0x1dcc4de8dec75d7aab85b567b6ccd41ad312451b948a7413f0a142fd40d49347"
        },
        "genesisRLP" : "0xf901faf901f5a00000000000000000000000000000000000000000000000000000000000000000a01dcc4de8dec75d7aab85b567b6ccd41ad312451b948a7413f0a142fd40d4934794b94f5374fce5edbc8e2a8697c15331677e6ebf0ba03380a16e2fc358b2db99fef699ad95a91a37d7fbd510820e8351a6d46f149d99a056e81f171bcc55a6ff8345e692c0f86e5b48e01b996cadc001622fb5e363b421a056e81f171bcc55a6ff8345e692c0f86e5b48e01b996cadc001622fb5e363b421b90100000000000000000000000000000000000000000000000000000000000000000000000000000000000000000000000000000000000000000000000000000000000000000000000000000000000000000000000000000000000000000000000000000000000000000000000000000000000000000000000000000000000000000000000000000000000000000000000000000000000000000000000000000000000000000000000000000000000000000000000000000000000000000000000000000000000000000000000000000000000000000000000000000000000000000000000000000000000000000000000000000000000000000000000000000000008302000080830f4240808203b642a056e81f171bcc55a6ff8345e692c0f86e5b48e01b996cadc001622fb5e363b421880102030405060708c0c0",
        "lastblockhash" : "0x88dd4938f047c16e0607566ff4a4515aafa3102a3d9bdf42b5b5dc35d7eea557",
        "network" : "Byzantium",
        "postState" : {
            "0xa94f5374fce5edbc8e2a8697c15331677e6ebf0b" : {
                "balance" : "0x01a9bc",
                "code" : "",
                "nonce" : "0x01",
                "storage" : {
                }
            },
            "0xb94f5374fce5edbc8e2a8697c15331677e6ebf0b" : {
                "balance" : "0x29a2241af62c32ca",
                "code" : "",
                "nonce" : "0x00",
                "storage" : {
                }
            }
        },
        "pre" : {
            "0xa94f5374fce5edbc8e2a8697c15331677e6ebf0b" : {
                "balance" : "0x01dc90",
                "code" : "",
                "nonce" : "0x00",
                "storage" : {
                }
            },
            "0xc94f5374fce5edbc8e2a8697c15331677e6ebf0b" : {
                "balance" : "0x03e8",
                "code" : "0x73c94f5374fce5edbc8e2a8697c15331677e6ebf0bff",
                "nonce" : "0x00",
                "storage" : {
                }
            }
        }
    },
    "SuicidesAndSendMoneyToItselfEtherDestroyed_d0g0v0_EIP150" : {
        "_info" : {
            "comment" : "",
            "filledwith" : "cpp-1.3.0+commit.6e0ce939.Linux.g++",
            "lllcversion" : "Version: 0.4.18-develop.2017.9.25+commit.a72237f2.Linux.g++",
            "source" : "src/BlockchainTestsFiller/GeneralStateTests/stTransactionTest/SuicidesAndSendMoneyToItselfEtherDestroyed_d0g0v0Filler.json",
            "sourceHash" : "928429dde3d40b008c3cff9aae56385b627c539a66e7a15c8f66b045268acbab"
        },
        "blocks" : [
            {
                "blockHeader" : {
                    "bloom" : "0x00000000000000000000000000000000000000000000000000000000000000000000000000000000000000000000000000000000000000000000000000000000000000000000000000000000000000000000000000000000000000000000000000000000000000000000000000000000000000000000000000000000000000000000000000000000000000000000000000000000000000000000000000000000000000000000000000000000000000000000000000000000000000000000000000000000000000000000000000000000000000000000000000000000000000000000000000000000000000000000000000000000000000000000000000000000",
                    "coinbase" : "0xb94f5374fce5edbc8e2a8697c15331677e6ebf0b",
                    "difficulty" : "0x020000",
                    "extraData" : "",
                    "gasLimit" : "0x0f4240",
                    "gasUsed" : "0x32ca",
                    "hash" : "0x173c7ab952ff1e46c2f59dcd796530b17444e1911771a774b707b5498d1d2501",
                    "mixHash" : "0x6f2df78cdabe0090e1f442d5ab53ba9e430e4ad59f3c10c14956e4b42540d6fe",
                    "nonce" : "0x13903fc9df7958b1",
                    "number" : "0x01",
                    "parentHash" : "0x301ebf82aa4c9ad02471be3ce3830ae2f8f8dc305121ae0ca5e8c57dcc6df77e",
                    "receiptTrie" : "0x2f0824b5b50a9a11fc7be73d8f9e3cc4e0f4da7f99ccb85ff67c3bf9fd862308",
                    "stateRoot" : "0xb068146827804dd89ed7cbfbc7b7d91b4c336c06da584cab3d5debbc566d76aa",
                    "timestamp" : "0x03e8",
                    "transactionsTrie" : "0xf8ef0f433c71d5409ac963458019707c150b363eeb124020e7af0e8273e31584",
                    "uncleHash" : "0x1dcc4de8dec75d7aab85b567b6ccd41ad312451b948a7413f0a142fd40d49347"
                },
                "rlp" : "0xf9025ef901f7a0301ebf82aa4c9ad02471be3ce3830ae2f8f8dc305121ae0ca5e8c57dcc6df77ea01dcc4de8dec75d7aab85b567b6ccd41ad312451b948a7413f0a142fd40d4934794b94f5374fce5edbc8e2a8697c15331677e6ebf0ba0b068146827804dd89ed7cbfbc7b7d91b4c336c06da584cab3d5debbc566d76aaa0f8ef0f433c71d5409ac963458019707c150b363eeb124020e7af0e8273e31584a02f0824b5b50a9a11fc7be73d8f9e3cc4e0f4da7f99ccb85ff67c3bf9fd862308b90100000000000000000000000000000000000000000000000000000000000000000000000000000000000000000000000000000000000000000000000000000000000000000000000000000000000000000000000000000000000000000000000000000000000000000000000000000000000000000000000000000000000000000000000000000000000000000000000000000000000000000000000000000000000000000000000000000000000000000000000000000000000000000000000000000000000000000000000000000000000000000000000000000000000000000000000000000000000000000000000000000000000000000000000000000000008302000001830f42408232ca8203e880a06f2df78cdabe0090e1f442d5ab53ba9e430e4ad59f3c10c14956e4b42540d6fe8813903fc9df7958b1f861f85f8001827bd494c94f5374fce5edbc8e2a8697c15331677e6ebf0b0a801ba0cc54ba9df3c3437ad6c19db46d967f38cac33f6db0e9adb48d807274acbb31d4a019bd4afccf2863066d7ff166426db8634e9cd35a5bbc5fe5210eb2478446f4e6c0",
                "transactions" : [
                    {
                        "data" : "",
                        "gasLimit" : "0x7bd4",
                        "gasPrice" : "0x01",
                        "nonce" : "0x00",
                        "r" : "0xcc54ba9df3c3437ad6c19db46d967f38cac33f6db0e9adb48d807274acbb31d4",
                        "s" : "0x19bd4afccf2863066d7ff166426db8634e9cd35a5bbc5fe5210eb2478446f4e6",
                        "to" : "0xc94f5374fce5edbc8e2a8697c15331677e6ebf0b",
                        "v" : "0x1b",
                        "value" : "0x0a"
                    }
                ],
                "uncleHeaders" : [
                ]
            }
        ],
        "genesisBlockHeader" : {
            "bloom" : "0x00000000000000000000000000000000000000000000000000000000000000000000000000000000000000000000000000000000000000000000000000000000000000000000000000000000000000000000000000000000000000000000000000000000000000000000000000000000000000000000000000000000000000000000000000000000000000000000000000000000000000000000000000000000000000000000000000000000000000000000000000000000000000000000000000000000000000000000000000000000000000000000000000000000000000000000000000000000000000000000000000000000000000000000000000000000",
            "coinbase" : "0xb94f5374fce5edbc8e2a8697c15331677e6ebf0b",
            "difficulty" : "0x020000",
            "extraData" : "0x42",
            "gasLimit" : "0x0f4240",
            "gasUsed" : "0x00",
            "hash" : "0x301ebf82aa4c9ad02471be3ce3830ae2f8f8dc305121ae0ca5e8c57dcc6df77e",
            "mixHash" : "0x56e81f171bcc55a6ff8345e692c0f86e5b48e01b996cadc001622fb5e363b421",
            "nonce" : "0x0102030405060708",
            "number" : "0x00",
            "parentHash" : "0x0000000000000000000000000000000000000000000000000000000000000000",
            "receiptTrie" : "0x56e81f171bcc55a6ff8345e692c0f86e5b48e01b996cadc001622fb5e363b421",
            "stateRoot" : "0x3380a16e2fc358b2db99fef699ad95a91a37d7fbd510820e8351a6d46f149d99",
            "timestamp" : "0x03b6",
            "transactionsTrie" : "0x56e81f171bcc55a6ff8345e692c0f86e5b48e01b996cadc001622fb5e363b421",
            "uncleHash" : "0x1dcc4de8dec75d7aab85b567b6ccd41ad312451b948a7413f0a142fd40d49347"
        },
        "genesisRLP" : "0xf901faf901f5a00000000000000000000000000000000000000000000000000000000000000000a01dcc4de8dec75d7aab85b567b6ccd41ad312451b948a7413f0a142fd40d4934794b94f5374fce5edbc8e2a8697c15331677e6ebf0ba03380a16e2fc358b2db99fef699ad95a91a37d7fbd510820e8351a6d46f149d99a056e81f171bcc55a6ff8345e692c0f86e5b48e01b996cadc001622fb5e363b421a056e81f171bcc55a6ff8345e692c0f86e5b48e01b996cadc001622fb5e363b421b90100000000000000000000000000000000000000000000000000000000000000000000000000000000000000000000000000000000000000000000000000000000000000000000000000000000000000000000000000000000000000000000000000000000000000000000000000000000000000000000000000000000000000000000000000000000000000000000000000000000000000000000000000000000000000000000000000000000000000000000000000000000000000000000000000000000000000000000000000000000000000000000000000000000000000000000000000000000000000000000000000000000000000000000000000000000008302000080830f4240808203b642a056e81f171bcc55a6ff8345e692c0f86e5b48e01b996cadc001622fb5e363b421880102030405060708c0c0",
        "lastblockhash" : "0x173c7ab952ff1e46c2f59dcd796530b17444e1911771a774b707b5498d1d2501",
        "network" : "EIP150",
        "postState" : {
            "0xa94f5374fce5edbc8e2a8697c15331677e6ebf0b" : {
                "balance" : "0x01a9bc",
                "code" : "",
                "nonce" : "0x01",
                "storage" : {
                }
            },
            "0xb94f5374fce5edbc8e2a8697c15331677e6ebf0b" : {
                "balance" : "0x4563918244f432ca",
                "code" : "",
                "nonce" : "0x00",
                "storage" : {
                }
            }
        },
        "pre" : {
            "0xa94f5374fce5edbc8e2a8697c15331677e6ebf0b" : {
                "balance" : "0x01dc90",
                "code" : "",
                "nonce" : "0x00",
                "storage" : {
                }
            },
            "0xc94f5374fce5edbc8e2a8697c15331677e6ebf0b" : {
                "balance" : "0x03e8",
                "code" : "0x73c94f5374fce5edbc8e2a8697c15331677e6ebf0bff",
                "nonce" : "0x00",
                "storage" : {
                }
            }
        }
    },
    "SuicidesAndSendMoneyToItselfEtherDestroyed_d0g0v0_EIP158" : {
        "_info" : {
            "comment" : "",
            "filledwith" : "cpp-1.3.0+commit.6e0ce939.Linux.g++",
            "lllcversion" : "Version: 0.4.18-develop.2017.9.25+commit.a72237f2.Linux.g++",
            "source" : "src/BlockchainTestsFiller/GeneralStateTests/stTransactionTest/SuicidesAndSendMoneyToItselfEtherDestroyed_d0g0v0Filler.json",
            "sourceHash" : "928429dde3d40b008c3cff9aae56385b627c539a66e7a15c8f66b045268acbab"
        },
        "blocks" : [
            {
                "blockHeader" : {
                    "bloom" : "0x00000000000000000000000000000000000000000000000000000000000000000000000000000000000000000000000000000000000000000000000000000000000000000000000000000000000000000000000000000000000000000000000000000000000000000000000000000000000000000000000000000000000000000000000000000000000000000000000000000000000000000000000000000000000000000000000000000000000000000000000000000000000000000000000000000000000000000000000000000000000000000000000000000000000000000000000000000000000000000000000000000000000000000000000000000000",
                    "coinbase" : "0xb94f5374fce5edbc8e2a8697c15331677e6ebf0b",
                    "difficulty" : "0x020000",
                    "extraData" : "",
                    "gasLimit" : "0x0f4240",
                    "gasUsed" : "0x32ca",
                    "hash" : "0x4b93b5fe75e64054cd6d4dc314f65ad8b93dd0e0c96cfff12e0da34020f6c3bd",
                    "mixHash" : "0x94fc086289648ca6ddfb73d9d1553569ef315c1127aec7b9f080e882156405de",
                    "nonce" : "0xf9c268893ffd3e6a",
                    "number" : "0x01",
                    "parentHash" : "0x301ebf82aa4c9ad02471be3ce3830ae2f8f8dc305121ae0ca5e8c57dcc6df77e",
                    "receiptTrie" : "0x2f0824b5b50a9a11fc7be73d8f9e3cc4e0f4da7f99ccb85ff67c3bf9fd862308",
                    "stateRoot" : "0xb068146827804dd89ed7cbfbc7b7d91b4c336c06da584cab3d5debbc566d76aa",
                    "timestamp" : "0x03e8",
                    "transactionsTrie" : "0xf8ef0f433c71d5409ac963458019707c150b363eeb124020e7af0e8273e31584",
                    "uncleHash" : "0x1dcc4de8dec75d7aab85b567b6ccd41ad312451b948a7413f0a142fd40d49347"
                },
                "rlp" : "0xf9025ef901f7a0301ebf82aa4c9ad02471be3ce3830ae2f8f8dc305121ae0ca5e8c57dcc6df77ea01dcc4de8dec75d7aab85b567b6ccd41ad312451b948a7413f0a142fd40d4934794b94f5374fce5edbc8e2a8697c15331677e6ebf0ba0b068146827804dd89ed7cbfbc7b7d91b4c336c06da584cab3d5debbc566d76aaa0f8ef0f433c71d5409ac963458019707c150b363eeb124020e7af0e8273e31584a02f0824b5b50a9a11fc7be73d8f9e3cc4e0f4da7f99ccb85ff67c3bf9fd862308b90100000000000000000000000000000000000000000000000000000000000000000000000000000000000000000000000000000000000000000000000000000000000000000000000000000000000000000000000000000000000000000000000000000000000000000000000000000000000000000000000000000000000000000000000000000000000000000000000000000000000000000000000000000000000000000000000000000000000000000000000000000000000000000000000000000000000000000000000000000000000000000000000000000000000000000000000000000000000000000000000000000000000000000000000000000000008302000001830f42408232ca8203e880a094fc086289648ca6ddfb73d9d1553569ef315c1127aec7b9f080e882156405de88f9c268893ffd3e6af861f85f8001827bd494c94f5374fce5edbc8e2a8697c15331677e6ebf0b0a801ba0cc54ba9df3c3437ad6c19db46d967f38cac33f6db0e9adb48d807274acbb31d4a019bd4afccf2863066d7ff166426db8634e9cd35a5bbc5fe5210eb2478446f4e6c0",
                "transactions" : [
                    {
                        "data" : "",
                        "gasLimit" : "0x7bd4",
                        "gasPrice" : "0x01",
                        "nonce" : "0x00",
                        "r" : "0xcc54ba9df3c3437ad6c19db46d967f38cac33f6db0e9adb48d807274acbb31d4",
                        "s" : "0x19bd4afccf2863066d7ff166426db8634e9cd35a5bbc5fe5210eb2478446f4e6",
                        "to" : "0xc94f5374fce5edbc8e2a8697c15331677e6ebf0b",
                        "v" : "0x1b",
                        "value" : "0x0a"
                    }
                ],
                "uncleHeaders" : [
                ]
            }
        ],
        "genesisBlockHeader" : {
            "bloom" : "0x00000000000000000000000000000000000000000000000000000000000000000000000000000000000000000000000000000000000000000000000000000000000000000000000000000000000000000000000000000000000000000000000000000000000000000000000000000000000000000000000000000000000000000000000000000000000000000000000000000000000000000000000000000000000000000000000000000000000000000000000000000000000000000000000000000000000000000000000000000000000000000000000000000000000000000000000000000000000000000000000000000000000000000000000000000000",
            "coinbase" : "0xb94f5374fce5edbc8e2a8697c15331677e6ebf0b",
            "difficulty" : "0x020000",
            "extraData" : "0x42",
            "gasLimit" : "0x0f4240",
            "gasUsed" : "0x00",
            "hash" : "0x301ebf82aa4c9ad02471be3ce3830ae2f8f8dc305121ae0ca5e8c57dcc6df77e",
            "mixHash" : "0x56e81f171bcc55a6ff8345e692c0f86e5b48e01b996cadc001622fb5e363b421",
            "nonce" : "0x0102030405060708",
            "number" : "0x00",
            "parentHash" : "0x0000000000000000000000000000000000000000000000000000000000000000",
            "receiptTrie" : "0x56e81f171bcc55a6ff8345e692c0f86e5b48e01b996cadc001622fb5e363b421",
            "stateRoot" : "0x3380a16e2fc358b2db99fef699ad95a91a37d7fbd510820e8351a6d46f149d99",
            "timestamp" : "0x03b6",
            "transactionsTrie" : "0x56e81f171bcc55a6ff8345e692c0f86e5b48e01b996cadc001622fb5e363b421",
            "uncleHash" : "0x1dcc4de8dec75d7aab85b567b6ccd41ad312451b948a7413f0a142fd40d49347"
        },
        "genesisRLP" : "0xf901faf901f5a00000000000000000000000000000000000000000000000000000000000000000a01dcc4de8dec75d7aab85b567b6ccd41ad312451b948a7413f0a142fd40d4934794b94f5374fce5edbc8e2a8697c15331677e6ebf0ba03380a16e2fc358b2db99fef699ad95a91a37d7fbd510820e8351a6d46f149d99a056e81f171bcc55a6ff8345e692c0f86e5b48e01b996cadc001622fb5e363b421a056e81f171bcc55a6ff8345e692c0f86e5b48e01b996cadc001622fb5e363b421b90100000000000000000000000000000000000000000000000000000000000000000000000000000000000000000000000000000000000000000000000000000000000000000000000000000000000000000000000000000000000000000000000000000000000000000000000000000000000000000000000000000000000000000000000000000000000000000000000000000000000000000000000000000000000000000000000000000000000000000000000000000000000000000000000000000000000000000000000000000000000000000000000000000000000000000000000000000000000000000000000000000000000000000000000000000000008302000080830f4240808203b642a056e81f171bcc55a6ff8345e692c0f86e5b48e01b996cadc001622fb5e363b421880102030405060708c0c0",
        "lastblockhash" : "0x4b93b5fe75e64054cd6d4dc314f65ad8b93dd0e0c96cfff12e0da34020f6c3bd",
        "network" : "EIP158",
        "postState" : {
            "0xa94f5374fce5edbc8e2a8697c15331677e6ebf0b" : {
                "balance" : "0x01a9bc",
                "code" : "",
                "nonce" : "0x01",
                "storage" : {
                }
            },
            "0xb94f5374fce5edbc8e2a8697c15331677e6ebf0b" : {
                "balance" : "0x4563918244f432ca",
                "code" : "",
                "nonce" : "0x00",
                "storage" : {
                }
            }
        },
        "pre" : {
            "0xa94f5374fce5edbc8e2a8697c15331677e6ebf0b" : {
                "balance" : "0x01dc90",
                "code" : "",
                "nonce" : "0x00",
                "storage" : {
                }
            },
            "0xc94f5374fce5edbc8e2a8697c15331677e6ebf0b" : {
                "balance" : "0x03e8",
                "code" : "0x73c94f5374fce5edbc8e2a8697c15331677e6ebf0bff",
                "nonce" : "0x00",
                "storage" : {
                }
            }
        }
    },
    "SuicidesAndSendMoneyToItselfEtherDestroyed_d0g0v0_Frontier" : {
        "_info" : {
            "comment" : "",
            "filledwith" : "cpp-1.3.0+commit.6e0ce939.Linux.g++",
            "lllcversion" : "Version: 0.4.18-develop.2017.9.25+commit.a72237f2.Linux.g++",
            "source" : "src/BlockchainTestsFiller/GeneralStateTests/stTransactionTest/SuicidesAndSendMoneyToItselfEtherDestroyed_d0g0v0Filler.json",
            "sourceHash" : "928429dde3d40b008c3cff9aae56385b627c539a66e7a15c8f66b045268acbab"
        },
        "blocks" : [
            {
                "blockHeader" : {
                    "bloom" : "0x00000000000000000000000000000000000000000000000000000000000000000000000000000000000000000000000000000000000000000000000000000000000000000000000000000000000000000000000000000000000000000000000000000000000000000000000000000000000000000000000000000000000000000000000000000000000000000000000000000000000000000000000000000000000000000000000000000000000000000000000000000000000000000000000000000000000000000000000000000000000000000000000000000000000000000000000000000000000000000000000000000000000000000000000000000000",
                    "coinbase" : "0xb94f5374fce5edbc8e2a8697c15331677e6ebf0b",
                    "difficulty" : "0x020000",
                    "extraData" : "",
                    "gasLimit" : "0x0f4240",
                    "gasUsed" : "0x2906",
                    "hash" : "0x450d32917f80a3b3880b274d625dd8a3947e0bc5eb7c8ad67fca37d171458025",
                    "mixHash" : "0x6094a6bee71359162217184592ddfa3f31f8c26d3d5e9775327524be838de096",
                    "nonce" : "0xe600cc96b116b50c",
                    "number" : "0x01",
                    "parentHash" : "0x301ebf82aa4c9ad02471be3ce3830ae2f8f8dc305121ae0ca5e8c57dcc6df77e",
                    "receiptTrie" : "0x095ecac9951fc6536ebeb3d355c8776987225facb4249af13850ce0f4e5e6d03",
                    "stateRoot" : "0x3b630983deefb776e8dc45ffa9ef88ac31f990727e1ac0e4a0a59d2730056e08",
                    "timestamp" : "0x03e8",
                    "transactionsTrie" : "0xf8ef0f433c71d5409ac963458019707c150b363eeb124020e7af0e8273e31584",
                    "uncleHash" : "0x1dcc4de8dec75d7aab85b567b6ccd41ad312451b948a7413f0a142fd40d49347"
                },
                "rlp" : "0xf9025ef901f7a0301ebf82aa4c9ad02471be3ce3830ae2f8f8dc305121ae0ca5e8c57dcc6df77ea01dcc4de8dec75d7aab85b567b6ccd41ad312451b948a7413f0a142fd40d4934794b94f5374fce5edbc8e2a8697c15331677e6ebf0ba03b630983deefb776e8dc45ffa9ef88ac31f990727e1ac0e4a0a59d2730056e08a0f8ef0f433c71d5409ac963458019707c150b363eeb124020e7af0e8273e31584a0095ecac9951fc6536ebeb3d355c8776987225facb4249af13850ce0f4e5e6d03b90100000000000000000000000000000000000000000000000000000000000000000000000000000000000000000000000000000000000000000000000000000000000000000000000000000000000000000000000000000000000000000000000000000000000000000000000000000000000000000000000000000000000000000000000000000000000000000000000000000000000000000000000000000000000000000000000000000000000000000000000000000000000000000000000000000000000000000000000000000000000000000000000000000000000000000000000000000000000000000000000000000000000000000000000000000000008302000001830f42408229068203e880a06094a6bee71359162217184592ddfa3f31f8c26d3d5e9775327524be838de09688e600cc96b116b50cf861f85f8001827bd494c94f5374fce5edbc8e2a8697c15331677e6ebf0b0a801ba0cc54ba9df3c3437ad6c19db46d967f38cac33f6db0e9adb48d807274acbb31d4a019bd4afccf2863066d7ff166426db8634e9cd35a5bbc5fe5210eb2478446f4e6c0",
                "transactions" : [
                    {
                        "data" : "",
                        "gasLimit" : "0x7bd4",
                        "gasPrice" : "0x01",
                        "nonce" : "0x00",
                        "r" : "0xcc54ba9df3c3437ad6c19db46d967f38cac33f6db0e9adb48d807274acbb31d4",
                        "s" : "0x19bd4afccf2863066d7ff166426db8634e9cd35a5bbc5fe5210eb2478446f4e6",
                        "to" : "0xc94f5374fce5edbc8e2a8697c15331677e6ebf0b",
                        "v" : "0x1b",
                        "value" : "0x0a"
                    }
                ],
                "uncleHeaders" : [
                ]
            }
        ],
        "genesisBlockHeader" : {
            "bloom" : "0x00000000000000000000000000000000000000000000000000000000000000000000000000000000000000000000000000000000000000000000000000000000000000000000000000000000000000000000000000000000000000000000000000000000000000000000000000000000000000000000000000000000000000000000000000000000000000000000000000000000000000000000000000000000000000000000000000000000000000000000000000000000000000000000000000000000000000000000000000000000000000000000000000000000000000000000000000000000000000000000000000000000000000000000000000000000",
            "coinbase" : "0xb94f5374fce5edbc8e2a8697c15331677e6ebf0b",
            "difficulty" : "0x020000",
            "extraData" : "0x42",
            "gasLimit" : "0x0f4240",
            "gasUsed" : "0x00",
            "hash" : "0x301ebf82aa4c9ad02471be3ce3830ae2f8f8dc305121ae0ca5e8c57dcc6df77e",
            "mixHash" : "0x56e81f171bcc55a6ff8345e692c0f86e5b48e01b996cadc001622fb5e363b421",
            "nonce" : "0x0102030405060708",
            "number" : "0x00",
            "parentHash" : "0x0000000000000000000000000000000000000000000000000000000000000000",
            "receiptTrie" : "0x56e81f171bcc55a6ff8345e692c0f86e5b48e01b996cadc001622fb5e363b421",
            "stateRoot" : "0x3380a16e2fc358b2db99fef699ad95a91a37d7fbd510820e8351a6d46f149d99",
            "timestamp" : "0x03b6",
            "transactionsTrie" : "0x56e81f171bcc55a6ff8345e692c0f86e5b48e01b996cadc001622fb5e363b421",
            "uncleHash" : "0x1dcc4de8dec75d7aab85b567b6ccd41ad312451b948a7413f0a142fd40d49347"
        },
        "genesisRLP" : "0xf901faf901f5a00000000000000000000000000000000000000000000000000000000000000000a01dcc4de8dec75d7aab85b567b6ccd41ad312451b948a7413f0a142fd40d4934794b94f5374fce5edbc8e2a8697c15331677e6ebf0ba03380a16e2fc358b2db99fef699ad95a91a37d7fbd510820e8351a6d46f149d99a056e81f171bcc55a6ff8345e692c0f86e5b48e01b996cadc001622fb5e363b421a056e81f171bcc55a6ff8345e692c0f86e5b48e01b996cadc001622fb5e363b421b90100000000000000000000000000000000000000000000000000000000000000000000000000000000000000000000000000000000000000000000000000000000000000000000000000000000000000000000000000000000000000000000000000000000000000000000000000000000000000000000000000000000000000000000000000000000000000000000000000000000000000000000000000000000000000000000000000000000000000000000000000000000000000000000000000000000000000000000000000000000000000000000000000000000000000000000000000000000000000000000000000000000000000000000000000000000008302000080830f4240808203b642a056e81f171bcc55a6ff8345e692c0f86e5b48e01b996cadc001622fb5e363b421880102030405060708c0c0",
        "lastblockhash" : "0x450d32917f80a3b3880b274d625dd8a3947e0bc5eb7c8ad67fca37d171458025",
        "network" : "Frontier",
        "postState" : {
            "0xa94f5374fce5edbc8e2a8697c15331677e6ebf0b" : {
                "balance" : "0x01b380",
                "code" : "",
                "nonce" : "0x01",
                "storage" : {
                }
            },
            "0xb94f5374fce5edbc8e2a8697c15331677e6ebf0b" : {
                "balance" : "0x4563918244f42906",
                "code" : "",
                "nonce" : "0x00",
                "storage" : {
                }
            }
        },
        "pre" : {
            "0xa94f5374fce5edbc8e2a8697c15331677e6ebf0b" : {
                "balance" : "0x01dc90",
                "code" : "",
                "nonce" : "0x00",
                "storage" : {
                }
            },
            "0xc94f5374fce5edbc8e2a8697c15331677e6ebf0b" : {
                "balance" : "0x03e8",
                "code" : "0x73c94f5374fce5edbc8e2a8697c15331677e6ebf0bff",
                "nonce" : "0x00",
                "storage" : {
                }
            }
        }
    },
    "SuicidesAndSendMoneyToItselfEtherDestroyed_d0g0v0_Homestead" : {
        "_info" : {
            "comment" : "",
            "filledwith" : "cpp-1.3.0+commit.6e0ce939.Linux.g++",
            "lllcversion" : "Version: 0.4.18-develop.2017.9.25+commit.a72237f2.Linux.g++",
            "source" : "src/BlockchainTestsFiller/GeneralStateTests/stTransactionTest/SuicidesAndSendMoneyToItselfEtherDestroyed_d0g0v0Filler.json",
            "sourceHash" : "928429dde3d40b008c3cff9aae56385b627c539a66e7a15c8f66b045268acbab"
        },
        "blocks" : [
            {
                "blockHeader" : {
                    "bloom" : "0x00000000000000000000000000000000000000000000000000000000000000000000000000000000000000000000000000000000000000000000000000000000000000000000000000000000000000000000000000000000000000000000000000000000000000000000000000000000000000000000000000000000000000000000000000000000000000000000000000000000000000000000000000000000000000000000000000000000000000000000000000000000000000000000000000000000000000000000000000000000000000000000000000000000000000000000000000000000000000000000000000000000000000000000000000000000",
                    "coinbase" : "0xb94f5374fce5edbc8e2a8697c15331677e6ebf0b",
                    "difficulty" : "0x020000",
                    "extraData" : "",
                    "gasLimit" : "0x0f4240",
                    "gasUsed" : "0x2906",
                    "hash" : "0xc7643b183ffa3511eae97e668bffb9ec828c6e9b7c92244e17dd6502c097d453",
                    "mixHash" : "0xd6462709fae43ac4be1812abab75e4285dcef467ee3835021963e67167afb9f3",
                    "nonce" : "0x1411f364d29e27d4",
                    "number" : "0x01",
                    "parentHash" : "0x301ebf82aa4c9ad02471be3ce3830ae2f8f8dc305121ae0ca5e8c57dcc6df77e",
                    "receiptTrie" : "0x095ecac9951fc6536ebeb3d355c8776987225facb4249af13850ce0f4e5e6d03",
                    "stateRoot" : "0x3b630983deefb776e8dc45ffa9ef88ac31f990727e1ac0e4a0a59d2730056e08",
                    "timestamp" : "0x03e8",
                    "transactionsTrie" : "0xf8ef0f433c71d5409ac963458019707c150b363eeb124020e7af0e8273e31584",
                    "uncleHash" : "0x1dcc4de8dec75d7aab85b567b6ccd41ad312451b948a7413f0a142fd40d49347"
                },
                "rlp" : "0xf9025ef901f7a0301ebf82aa4c9ad02471be3ce3830ae2f8f8dc305121ae0ca5e8c57dcc6df77ea01dcc4de8dec75d7aab85b567b6ccd41ad312451b948a7413f0a142fd40d4934794b94f5374fce5edbc8e2a8697c15331677e6ebf0ba03b630983deefb776e8dc45ffa9ef88ac31f990727e1ac0e4a0a59d2730056e08a0f8ef0f433c71d5409ac963458019707c150b363eeb124020e7af0e8273e31584a0095ecac9951fc6536ebeb3d355c8776987225facb4249af13850ce0f4e5e6d03b90100000000000000000000000000000000000000000000000000000000000000000000000000000000000000000000000000000000000000000000000000000000000000000000000000000000000000000000000000000000000000000000000000000000000000000000000000000000000000000000000000000000000000000000000000000000000000000000000000000000000000000000000000000000000000000000000000000000000000000000000000000000000000000000000000000000000000000000000000000000000000000000000000000000000000000000000000000000000000000000000000000000000000000000000000000000008302000001830f42408229068203e880a0d6462709fae43ac4be1812abab75e4285dcef467ee3835021963e67167afb9f3881411f364d29e27d4f861f85f8001827bd494c94f5374fce5edbc8e2a8697c15331677e6ebf0b0a801ba0cc54ba9df3c3437ad6c19db46d967f38cac33f6db0e9adb48d807274acbb31d4a019bd4afccf2863066d7ff166426db8634e9cd35a5bbc5fe5210eb2478446f4e6c0",
                "transactions" : [
                    {
                        "data" : "",
                        "gasLimit" : "0x7bd4",
                        "gasPrice" : "0x01",
                        "nonce" : "0x00",
                        "r" : "0xcc54ba9df3c3437ad6c19db46d967f38cac33f6db0e9adb48d807274acbb31d4",
                        "s" : "0x19bd4afccf2863066d7ff166426db8634e9cd35a5bbc5fe5210eb2478446f4e6",
                        "to" : "0xc94f5374fce5edbc8e2a8697c15331677e6ebf0b",
                        "v" : "0x1b",
                        "value" : "0x0a"
                    }
                ],
                "uncleHeaders" : [
                ]
            }
        ],
        "genesisBlockHeader" : {
            "bloom" : "0x00000000000000000000000000000000000000000000000000000000000000000000000000000000000000000000000000000000000000000000000000000000000000000000000000000000000000000000000000000000000000000000000000000000000000000000000000000000000000000000000000000000000000000000000000000000000000000000000000000000000000000000000000000000000000000000000000000000000000000000000000000000000000000000000000000000000000000000000000000000000000000000000000000000000000000000000000000000000000000000000000000000000000000000000000000000",
            "coinbase" : "0xb94f5374fce5edbc8e2a8697c15331677e6ebf0b",
            "difficulty" : "0x020000",
            "extraData" : "0x42",
            "gasLimit" : "0x0f4240",
            "gasUsed" : "0x00",
            "hash" : "0x301ebf82aa4c9ad02471be3ce3830ae2f8f8dc305121ae0ca5e8c57dcc6df77e",
            "mixHash" : "0x56e81f171bcc55a6ff8345e692c0f86e5b48e01b996cadc001622fb5e363b421",
            "nonce" : "0x0102030405060708",
            "number" : "0x00",
            "parentHash" : "0x0000000000000000000000000000000000000000000000000000000000000000",
            "receiptTrie" : "0x56e81f171bcc55a6ff8345e692c0f86e5b48e01b996cadc001622fb5e363b421",
            "stateRoot" : "0x3380a16e2fc358b2db99fef699ad95a91a37d7fbd510820e8351a6d46f149d99",
            "timestamp" : "0x03b6",
            "transactionsTrie" : "0x56e81f171bcc55a6ff8345e692c0f86e5b48e01b996cadc001622fb5e363b421",
            "uncleHash" : "0x1dcc4de8dec75d7aab85b567b6ccd41ad312451b948a7413f0a142fd40d49347"
        },
        "genesisRLP" : "0xf901faf901f5a00000000000000000000000000000000000000000000000000000000000000000a01dcc4de8dec75d7aab85b567b6ccd41ad312451b948a7413f0a142fd40d4934794b94f5374fce5edbc8e2a8697c15331677e6ebf0ba03380a16e2fc358b2db99fef699ad95a91a37d7fbd510820e8351a6d46f149d99a056e81f171bcc55a6ff8345e692c0f86e5b48e01b996cadc001622fb5e363b421a056e81f171bcc55a6ff8345e692c0f86e5b48e01b996cadc001622fb5e363b421b90100000000000000000000000000000000000000000000000000000000000000000000000000000000000000000000000000000000000000000000000000000000000000000000000000000000000000000000000000000000000000000000000000000000000000000000000000000000000000000000000000000000000000000000000000000000000000000000000000000000000000000000000000000000000000000000000000000000000000000000000000000000000000000000000000000000000000000000000000000000000000000000000000000000000000000000000000000000000000000000000000000000000000000000000000000000008302000080830f4240808203b642a056e81f171bcc55a6ff8345e692c0f86e5b48e01b996cadc001622fb5e363b421880102030405060708c0c0",
        "lastblockhash" : "0xc7643b183ffa3511eae97e668bffb9ec828c6e9b7c92244e17dd6502c097d453",
        "network" : "Homestead",
        "postState" : {
            "0xa94f5374fce5edbc8e2a8697c15331677e6ebf0b" : {
                "balance" : "0x01b380",
                "code" : "",
                "nonce" : "0x01",
                "storage" : {
                }
            },
            "0xb94f5374fce5edbc8e2a8697c15331677e6ebf0b" : {
                "balance" : "0x4563918244f42906",
                "code" : "",
                "nonce" : "0x00",
                "storage" : {
                }
            }
        },
        "pre" : {
            "0xa94f5374fce5edbc8e2a8697c15331677e6ebf0b" : {
                "balance" : "0x01dc90",
                "code" : "",
                "nonce" : "0x00",
                "storage" : {
                }
            },
            "0xc94f5374fce5edbc8e2a8697c15331677e6ebf0b" : {
                "balance" : "0x03e8",
                "code" : "0x73c94f5374fce5edbc8e2a8697c15331677e6ebf0bff",
                "nonce" : "0x00",
                "storage" : {
                }
            }
        }
    }
}