{
    "SuicidesMixingCoinbase_d0g1v0_Byzantium" : {
        "_info" : {
            "comment" : "",
            "filledwith" : "cpp-1.3.0+commit.6e0ce939.Linux.g++",
            "lllcversion" : "Version: 0.4.18-develop.2017.9.25+commit.a72237f2.Linux.g++",
            "source" : "src/BlockchainTestsFiller/GeneralStateTests/stTransactionTest/SuicidesMixingCoinbase_d0g1v0Filler.json",
            "sourceHash" : "21bf085a791d4dacf929877f28e1bbf38b7f7aa62d86348096993163b2ddd086"
        },
        "blocks" : [
            {
                "blockHeader" : {
                    "bloom" : "0x00000000000000000000000000000000000000000000000000000000000000000000000000000000000000000000000000000000000000000000000000000000000000000000000000000000000000000000000000000000000000000000000000000000000000000000000000000000000000000000000000000000000000000000000000000000000000000000000000000000000000000000000000000000000000000000000000000000000000000000000000000000000000000000000000000000000000000000000000000000000000000000000000000000000000000000000000000000000000000000000000000000000000000000000000000000",
                    "coinbase" : "0xb94f5374fce5edbc8e2a8697c15331677e6ebf0b",
                    "difficulty" : "0x020000",
                    "extraData" : "",
                    "gasLimit" : "0x0f4240",
                    "gasUsed" : "0x697b",
                    "hash" : "0x148d6834d55a1171e1c2e38baa5a7b879b3d0f6d4a11c6fdc6a2cd0125142fbc",
                    "mixHash" : "0xdee5a9659816d6a2f5d37d59fe83b7d8283f0880b62317b5e5919075ab0eca5d",
                    "nonce" : "0x2b0c199f6a601857",
                    "number" : "0x01",
                    "parentHash" : "0x872cfc663d77a6fa8be53ab283ab744d8bf39fb311e46bf67a045a638d2ccdd0",
                    "receiptTrie" : "0x11b9a3af527495821ab161c2237f35f6a032d0dc5e9ee404f60ba12f9b7c26a9",
                    "stateRoot" : "0x274751e6928363906971d440bdd1ff6983b055e7148eb0a7680a326d76114035",
                    "timestamp" : "0x03e8",
                    "transactionsTrie" : "0xcba46c8aefada3d051c01ad95ceab22383b9bb97da8b83a2bc0bb8e23dc572ce",
                    "uncleHash" : "0x1dcc4de8dec75d7aab85b567b6ccd41ad312451b948a7413f0a142fd40d49347"
                },
                "rlp" : "0xf9025ef901f7a0872cfc663d77a6fa8be53ab283ab744d8bf39fb311e46bf67a045a638d2ccdd0a01dcc4de8dec75d7aab85b567b6ccd41ad312451b948a7413f0a142fd40d4934794b94f5374fce5edbc8e2a8697c15331677e6ebf0ba0274751e6928363906971d440bdd1ff6983b055e7148eb0a7680a326d76114035a0cba46c8aefada3d051c01ad95ceab22383b9bb97da8b83a2bc0bb8e23dc572cea011b9a3af527495821ab161c2237f35f6a032d0dc5e9ee404f60ba12f9b7c26a9b90100000000000000000000000000000000000000000000000000000000000000000000000000000000000000000000000000000000000000000000000000000000000000000000000000000000000000000000000000000000000000000000000000000000000000000000000000000000000000000000000000000000000000000000000000000000000000000000000000000000000000000000000000000000000000000000000000000000000000000000000000000000000000000000000000000000000000000000000000000000000000000000000000000000000000000000000000000000000000000000000000000000000000000000000000000000008302000001830f424082697b8203e880a0dee5a9659816d6a2f5d37d59fe83b7d8283f0880b62317b5e5919075ab0eca5d882b0c199f6a601857f861f85f800182ea6094b94f5374fce5edbc8e2a8697c15331677e6ebf0b0a801ca0179021729fddd757a7ffe18dcd36c403c485ef764408ce5aff33b3332a3068e2a074073a3531dd4c6cd60d2b13e5c0424eac0e961f973f373cea6b1dc1cefdf324c0",
                "transactions" : [
                    {
                        "data" : "",
                        "gasLimit" : "0xea60",
                        "gasPrice" : "0x01",
                        "nonce" : "0x00",
                        "r" : "0x179021729fddd757a7ffe18dcd36c403c485ef764408ce5aff33b3332a3068e2",
                        "s" : "0x74073a3531dd4c6cd60d2b13e5c0424eac0e961f973f373cea6b1dc1cefdf324",
                        "to" : "0xb94f5374fce5edbc8e2a8697c15331677e6ebf0b",
                        "v" : "0x1c",
                        "value" : "0x0a"
                    }
                ],
                "uncleHeaders" : [
                ]
            }
        ],
        "genesisBlockHeader" : {
            "bloom" : "0x00000000000000000000000000000000000000000000000000000000000000000000000000000000000000000000000000000000000000000000000000000000000000000000000000000000000000000000000000000000000000000000000000000000000000000000000000000000000000000000000000000000000000000000000000000000000000000000000000000000000000000000000000000000000000000000000000000000000000000000000000000000000000000000000000000000000000000000000000000000000000000000000000000000000000000000000000000000000000000000000000000000000000000000000000000000",
            "coinbase" : "0xb94f5374fce5edbc8e2a8697c15331677e6ebf0b",
            "difficulty" : "0x020000",
            "extraData" : "0x42",
            "gasLimit" : "0x0f4240",
            "gasUsed" : "0x00",
            "hash" : "0x872cfc663d77a6fa8be53ab283ab744d8bf39fb311e46bf67a045a638d2ccdd0",
            "mixHash" : "0x56e81f171bcc55a6ff8345e692c0f86e5b48e01b996cadc001622fb5e363b421",
            "nonce" : "0x0102030405060708",
            "number" : "0x00",
            "parentHash" : "0x0000000000000000000000000000000000000000000000000000000000000000",
            "receiptTrie" : "0x56e81f171bcc55a6ff8345e692c0f86e5b48e01b996cadc001622fb5e363b421",
            "stateRoot" : "0x9efcaf6c528edf3293a9ad96dcc231e67dc4effe34ad5251e2fd71048e00365b",
            "timestamp" : "0x03b6",
            "transactionsTrie" : "0x56e81f171bcc55a6ff8345e692c0f86e5b48e01b996cadc001622fb5e363b421",
            "uncleHash" : "0x1dcc4de8dec75d7aab85b567b6ccd41ad312451b948a7413f0a142fd40d49347"
        },
        "genesisRLP" : "0xf901faf901f5a00000000000000000000000000000000000000000000000000000000000000000a01dcc4de8dec75d7aab85b567b6ccd41ad312451b948a7413f0a142fd40d4934794b94f5374fce5edbc8e2a8697c15331677e6ebf0ba09efcaf6c528edf3293a9ad96dcc231e67dc4effe34ad5251e2fd71048e00365ba056e81f171bcc55a6ff8345e692c0f86e5b48e01b996cadc001622fb5e363b421a056e81f171bcc55a6ff8345e692c0f86e5b48e01b996cadc001622fb5e363b421b90100000000000000000000000000000000000000000000000000000000000000000000000000000000000000000000000000000000000000000000000000000000000000000000000000000000000000000000000000000000000000000000000000000000000000000000000000000000000000000000000000000000000000000000000000000000000000000000000000000000000000000000000000000000000000000000000000000000000000000000000000000000000000000000000000000000000000000000000000000000000000000000000000000000000000000000000000000000000000000000000000000000000000000000000000000000008302000080830f4240808203b642a056e81f171bcc55a6ff8345e692c0f86e5b48e01b996cadc001622fb5e363b421880102030405060708c0c0",
        "lastblockhash" : "0x148d6834d55a1171e1c2e38baa5a7b879b3d0f6d4a11c6fdc6a2cd0125142fbc",
        "network" : "Byzantium",
        "postState" : {
            "0xa94f5374fce5edbc8e2a8697c15331677e6ebf0b" : {
                "balance" : "0x02f1db",
                "code" : "",
                "nonce" : "0x01",
                "storage" : {
                }
            },
            "0xb94f5374fce5edbc8e2a8697c15331677e6ebf0b" : {
                "balance" : "0x29a2241af62c0000",
                "code" : "",
                "nonce" : "0x00",
                "storage" : {
                }
            },
            "0xc94f5374fce5edbc8e2a8697c15331677e6ebf0b" : {
                "balance" : "0x03f2",
                "code" : "",
                "nonce" : "0x00",
                "storage" : {
                }
            }
        },
        "pre" : {
            "0xa94f5374fce5edbc8e2a8697c15331677e6ebf0b" : {
                "balance" : "0x035b60",
                "code" : "",
                "nonce" : "0x00",
                "storage" : {
                }
            },
            "0xb94f5374fce5edbc8e2a8697c15331677e6ebf0b" : {
                "balance" : "0x03e8",
                "code" : "0x73c94f5374fce5edbc8e2a8697c15331677e6ebf0bff",
                "nonce" : "0x00",
                "storage" : {
                }
            }
        }
    },
    "SuicidesMixingCoinbase_d0g1v0_EIP150" : {
        "_info" : {
            "comment" : "",
            "filledwith" : "cpp-1.3.0+commit.6e0ce939.Linux.g++",
            "lllcversion" : "Version: 0.4.18-develop.2017.9.25+commit.a72237f2.Linux.g++",
            "source" : "src/BlockchainTestsFiller/GeneralStateTests/stTransactionTest/SuicidesMixingCoinbase_d0g1v0Filler.json",
            "sourceHash" : "21bf085a791d4dacf929877f28e1bbf38b7f7aa62d86348096993163b2ddd086"
        },
        "blocks" : [
            {
                "blockHeader" : {
                    "bloom" : "0x00000000000000000000000000000000000000000000000000000000000000000000000000000000000000000000000000000000000000000000000000000000000000000000000000000000000000000000000000000000000000000000000000000000000000000000000000000000000000000000000000000000000000000000000000000000000000000000000000000000000000000000000000000000000000000000000000000000000000000000000000000000000000000000000000000000000000000000000000000000000000000000000000000000000000000000000000000000000000000000000000000000000000000000000000000000",
                    "coinbase" : "0xb94f5374fce5edbc8e2a8697c15331677e6ebf0b",
                    "difficulty" : "0x020000",
                    "extraData" : "",
                    "gasLimit" : "0x0f4240",
                    "gasUsed" : "0x697b",
                    "hash" : "0x4ece346f9cd362afe0f92ef3429fed4fb46901a191bdee6c71f56095cf3440a6",
                    "mixHash" : "0xfcee6749408cef08e4ad445450d3682827c4df31b77b16ca1586596d629ff1b0",
                    "nonce" : "0x2a40780c9799cbdb",
                    "number" : "0x01",
                    "parentHash" : "0x872cfc663d77a6fa8be53ab283ab744d8bf39fb311e46bf67a045a638d2ccdd0",
                    "receiptTrie" : "0x9ae0b3ac2f9a19fe2ea6d104b6dca27eed96a75827fd83ee77a1e45094f92e47",
                    "stateRoot" : "0x7fda4d41c53db74a4b27399ae948a2bce1388dd99591d9bcbffe32f08fc4559b",
                    "timestamp" : "0x03e8",
                    "transactionsTrie" : "0xcba46c8aefada3d051c01ad95ceab22383b9bb97da8b83a2bc0bb8e23dc572ce",
                    "uncleHash" : "0x1dcc4de8dec75d7aab85b567b6ccd41ad312451b948a7413f0a142fd40d49347"
                },
                "rlp" : "0xf9025ef901f7a0872cfc663d77a6fa8be53ab283ab744d8bf39fb311e46bf67a045a638d2ccdd0a01dcc4de8dec75d7aab85b567b6ccd41ad312451b948a7413f0a142fd40d4934794b94f5374fce5edbc8e2a8697c15331677e6ebf0ba07fda4d41c53db74a4b27399ae948a2bce1388dd99591d9bcbffe32f08fc4559ba0cba46c8aefada3d051c01ad95ceab22383b9bb97da8b83a2bc0bb8e23dc572cea09ae0b3ac2f9a19fe2ea6d104b6dca27eed96a75827fd83ee77a1e45094f92e47b90100000000000000000000000000000000000000000000000000000000000000000000000000000000000000000000000000000000000000000000000000000000000000000000000000000000000000000000000000000000000000000000000000000000000000000000000000000000000000000000000000000000000000000000000000000000000000000000000000000000000000000000000000000000000000000000000000000000000000000000000000000000000000000000000000000000000000000000000000000000000000000000000000000000000000000000000000000000000000000000000000000000000000000000000000000000008302000001830f424082697b8203e880a0fcee6749408cef08e4ad445450d3682827c4df31b77b16ca1586596d629ff1b0882a40780c9799cbdbf861f85f800182ea6094b94f5374fce5edbc8e2a8697c15331677e6ebf0b0a801ca0179021729fddd757a7ffe18dcd36c403c485ef764408ce5aff33b3332a3068e2a074073a3531dd4c6cd60d2b13e5c0424eac0e961f973f373cea6b1dc1cefdf324c0",
                "transactions" : [
                    {
                        "data" : "",
                        "gasLimit" : "0xea60",
                        "gasPrice" : "0x01",
                        "nonce" : "0x00",
                        "r" : "0x179021729fddd757a7ffe18dcd36c403c485ef764408ce5aff33b3332a3068e2",
                        "s" : "0x74073a3531dd4c6cd60d2b13e5c0424eac0e961f973f373cea6b1dc1cefdf324",
                        "to" : "0xb94f5374fce5edbc8e2a8697c15331677e6ebf0b",
                        "v" : "0x1c",
                        "value" : "0x0a"
                    }
                ],
                "uncleHeaders" : [
                ]
            }
        ],
        "genesisBlockHeader" : {
            "bloom" : "0x00000000000000000000000000000000000000000000000000000000000000000000000000000000000000000000000000000000000000000000000000000000000000000000000000000000000000000000000000000000000000000000000000000000000000000000000000000000000000000000000000000000000000000000000000000000000000000000000000000000000000000000000000000000000000000000000000000000000000000000000000000000000000000000000000000000000000000000000000000000000000000000000000000000000000000000000000000000000000000000000000000000000000000000000000000000",
            "coinbase" : "0xb94f5374fce5edbc8e2a8697c15331677e6ebf0b",
            "difficulty" : "0x020000",
            "extraData" : "0x42",
            "gasLimit" : "0x0f4240",
            "gasUsed" : "0x00",
            "hash" : "0x872cfc663d77a6fa8be53ab283ab744d8bf39fb311e46bf67a045a638d2ccdd0",
            "mixHash" : "0x56e81f171bcc55a6ff8345e692c0f86e5b48e01b996cadc001622fb5e363b421",
            "nonce" : "0x0102030405060708",
            "number" : "0x00",
            "parentHash" : "0x0000000000000000000000000000000000000000000000000000000000000000",
            "receiptTrie" : "0x56e81f171bcc55a6ff8345e692c0f86e5b48e01b996cadc001622fb5e363b421",
            "stateRoot" : "0x9efcaf6c528edf3293a9ad96dcc231e67dc4effe34ad5251e2fd71048e00365b",
            "timestamp" : "0x03b6",
            "transactionsTrie" : "0x56e81f171bcc55a6ff8345e692c0f86e5b48e01b996cadc001622fb5e363b421",
            "uncleHash" : "0x1dcc4de8dec75d7aab85b567b6ccd41ad312451b948a7413f0a142fd40d49347"
        },
        "genesisRLP" : "0xf901faf901f5a00000000000000000000000000000000000000000000000000000000000000000a01dcc4de8dec75d7aab85b567b6ccd41ad312451b948a7413f0a142fd40d4934794b94f5374fce5edbc8e2a8697c15331677e6ebf0ba09efcaf6c528edf3293a9ad96dcc231e67dc4effe34ad5251e2fd71048e00365ba056e81f171bcc55a6ff8345e692c0f86e5b48e01b996cadc001622fb5e363b421a056e81f171bcc55a6ff8345e692c0f86e5b48e01b996cadc001622fb5e363b421b90100000000000000000000000000000000000000000000000000000000000000000000000000000000000000000000000000000000000000000000000000000000000000000000000000000000000000000000000000000000000000000000000000000000000000000000000000000000000000000000000000000000000000000000000000000000000000000000000000000000000000000000000000000000000000000000000000000000000000000000000000000000000000000000000000000000000000000000000000000000000000000000000000000000000000000000000000000000000000000000000000000000000000000000000000000000008302000080830f4240808203b642a056e81f171bcc55a6ff8345e692c0f86e5b48e01b996cadc001622fb5e363b421880102030405060708c0c0",
        "lastblockhash" : "0x4ece346f9cd362afe0f92ef3429fed4fb46901a191bdee6c71f56095cf3440a6",
        "network" : "EIP150",
        "postState" : {
            "0xa94f5374fce5edbc8e2a8697c15331677e6ebf0b" : {
                "balance" : "0x02f1db",
                "code" : "",
                "nonce" : "0x01",
                "storage" : {
                }
            },
            "0xb94f5374fce5edbc8e2a8697c15331677e6ebf0b" : {
                "balance" : "0x4563918244f40000",
                "code" : "",
                "nonce" : "0x00",
                "storage" : {
                }
            },
            "0xc94f5374fce5edbc8e2a8697c15331677e6ebf0b" : {
                "balance" : "0x03f2",
                "code" : "",
                "nonce" : "0x00",
                "storage" : {
                }
            }
        },
        "pre" : {
            "0xa94f5374fce5edbc8e2a8697c15331677e6ebf0b" : {
                "balance" : "0x035b60",
                "code" : "",
                "nonce" : "0x00",
                "storage" : {
                }
            },
            "0xb94f5374fce5edbc8e2a8697c15331677e6ebf0b" : {
                "balance" : "0x03e8",
                "code" : "0x73c94f5374fce5edbc8e2a8697c15331677e6ebf0bff",
                "nonce" : "0x00",
                "storage" : {
                }
            }
        }
    },
    "SuicidesMixingCoinbase_d0g1v0_EIP158" : {
        "_info" : {
            "comment" : "",
            "filledwith" : "cpp-1.3.0+commit.6e0ce939.Linux.g++",
            "lllcversion" : "Version: 0.4.18-develop.2017.9.25+commit.a72237f2.Linux.g++",
            "source" : "src/BlockchainTestsFiller/GeneralStateTests/stTransactionTest/SuicidesMixingCoinbase_d0g1v0Filler.json",
            "sourceHash" : "21bf085a791d4dacf929877f28e1bbf38b7f7aa62d86348096993163b2ddd086"
        },
        "blocks" : [
            {
                "blockHeader" : {
                    "bloom" : "0x00000000000000000000000000000000000000000000000000000000000000000000000000000000000000000000000000000000000000000000000000000000000000000000000000000000000000000000000000000000000000000000000000000000000000000000000000000000000000000000000000000000000000000000000000000000000000000000000000000000000000000000000000000000000000000000000000000000000000000000000000000000000000000000000000000000000000000000000000000000000000000000000000000000000000000000000000000000000000000000000000000000000000000000000000000000",
                    "coinbase" : "0xb94f5374fce5edbc8e2a8697c15331677e6ebf0b",
                    "difficulty" : "0x020000",
                    "extraData" : "",
                    "gasLimit" : "0x0f4240",
                    "gasUsed" : "0x697b",
                    "hash" : "0x6430a9fccde875dd2f496abc4e1b62b16870a3f593d9f37f2e83969513733581",
                    "mixHash" : "0x57188e9837dfb9ec3f7fcd37043d6c5194a200eaf2702204d4b916f41d0b9acf",
                    "nonce" : "0x01ad8de6ab8f45c5",
                    "number" : "0x01",
                    "parentHash" : "0x872cfc663d77a6fa8be53ab283ab744d8bf39fb311e46bf67a045a638d2ccdd0",
                    "receiptTrie" : "0x9ae0b3ac2f9a19fe2ea6d104b6dca27eed96a75827fd83ee77a1e45094f92e47",
                    "stateRoot" : "0x7fda4d41c53db74a4b27399ae948a2bce1388dd99591d9bcbffe32f08fc4559b",
                    "timestamp" : "0x03e8",
                    "transactionsTrie" : "0xcba46c8aefada3d051c01ad95ceab22383b9bb97da8b83a2bc0bb8e23dc572ce",
                    "uncleHash" : "0x1dcc4de8dec75d7aab85b567b6ccd41ad312451b948a7413f0a142fd40d49347"
                },
                "rlp" : "0xf9025ef901f7a0872cfc663d77a6fa8be53ab283ab744d8bf39fb311e46bf67a045a638d2ccdd0a01dcc4de8dec75d7aab85b567b6ccd41ad312451b948a7413f0a142fd40d4934794b94f5374fce5edbc8e2a8697c15331677e6ebf0ba07fda4d41c53db74a4b27399ae948a2bce1388dd99591d9bcbffe32f08fc4559ba0cba46c8aefada3d051c01ad95ceab22383b9bb97da8b83a2bc0bb8e23dc572cea09ae0b3ac2f9a19fe2ea6d104b6dca27eed96a75827fd83ee77a1e45094f92e47b90100000000000000000000000000000000000000000000000000000000000000000000000000000000000000000000000000000000000000000000000000000000000000000000000000000000000000000000000000000000000000000000000000000000000000000000000000000000000000000000000000000000000000000000000000000000000000000000000000000000000000000000000000000000000000000000000000000000000000000000000000000000000000000000000000000000000000000000000000000000000000000000000000000000000000000000000000000000000000000000000000000000000000000000000000000000008302000001830f424082697b8203e880a057188e9837dfb9ec3f7fcd37043d6c5194a200eaf2702204d4b916f41d0b9acf8801ad8de6ab8f45c5f861f85f800182ea6094b94f5374fce5edbc8e2a8697c15331677e6ebf0b0a801ca0179021729fddd757a7ffe18dcd36c403c485ef764408ce5aff33b3332a3068e2a074073a3531dd4c6cd60d2b13e5c0424eac0e961f973f373cea6b1dc1cefdf324c0",
                "transactions" : [
                    {
                        "data" : "",
                        "gasLimit" : "0xea60",
                        "gasPrice" : "0x01",
                        "nonce" : "0x00",
                        "r" : "0x179021729fddd757a7ffe18dcd36c403c485ef764408ce5aff33b3332a3068e2",
                        "s" : "0x74073a3531dd4c6cd60d2b13e5c0424eac0e961f973f373cea6b1dc1cefdf324",
                        "to" : "0xb94f5374fce5edbc8e2a8697c15331677e6ebf0b",
                        "v" : "0x1c",
                        "value" : "0x0a"
                    }
                ],
                "uncleHeaders" : [
                ]
            }
        ],
        "genesisBlockHeader" : {
            "bloom" : "0x00000000000000000000000000000000000000000000000000000000000000000000000000000000000000000000000000000000000000000000000000000000000000000000000000000000000000000000000000000000000000000000000000000000000000000000000000000000000000000000000000000000000000000000000000000000000000000000000000000000000000000000000000000000000000000000000000000000000000000000000000000000000000000000000000000000000000000000000000000000000000000000000000000000000000000000000000000000000000000000000000000000000000000000000000000000",
            "coinbase" : "0xb94f5374fce5edbc8e2a8697c15331677e6ebf0b",
            "difficulty" : "0x020000",
            "extraData" : "0x42",
            "gasLimit" : "0x0f4240",
            "gasUsed" : "0x00",
            "hash" : "0x872cfc663d77a6fa8be53ab283ab744d8bf39fb311e46bf67a045a638d2ccdd0",
            "mixHash" : "0x56e81f171bcc55a6ff8345e692c0f86e5b48e01b996cadc001622fb5e363b421",
            "nonce" : "0x0102030405060708",
            "number" : "0x00",
            "parentHash" : "0x0000000000000000000000000000000000000000000000000000000000000000",
            "receiptTrie" : "0x56e81f171bcc55a6ff8345e692c0f86e5b48e01b996cadc001622fb5e363b421",
            "stateRoot" : "0x9efcaf6c528edf3293a9ad96dcc231e67dc4effe34ad5251e2fd71048e00365b",
            "timestamp" : "0x03b6",
            "transactionsTrie" : "0x56e81f171bcc55a6ff8345e692c0f86e5b48e01b996cadc001622fb5e363b421",
            "uncleHash" : "0x1dcc4de8dec75d7aab85b567b6ccd41ad312451b948a7413f0a142fd40d49347"
        },
        "genesisRLP" : "0xf901faf901f5a00000000000000000000000000000000000000000000000000000000000000000a01dcc4de8dec75d7aab85b567b6ccd41ad312451b948a7413f0a142fd40d4934794b94f5374fce5edbc8e2a8697c15331677e6ebf0ba09efcaf6c528edf3293a9ad96dcc231e67dc4effe34ad5251e2fd71048e00365ba056e81f171bcc55a6ff8345e692c0f86e5b48e01b996cadc001622fb5e363b421a056e81f171bcc55a6ff8345e692c0f86e5b48e01b996cadc001622fb5e363b421b90100000000000000000000000000000000000000000000000000000000000000000000000000000000000000000000000000000000000000000000000000000000000000000000000000000000000000000000000000000000000000000000000000000000000000000000000000000000000000000000000000000000000000000000000000000000000000000000000000000000000000000000000000000000000000000000000000000000000000000000000000000000000000000000000000000000000000000000000000000000000000000000000000000000000000000000000000000000000000000000000000000000000000000000000000000000008302000080830f4240808203b642a056e81f171bcc55a6ff8345e692c0f86e5b48e01b996cadc001622fb5e363b421880102030405060708c0c0",
        "lastblockhash" : "0x6430a9fccde875dd2f496abc4e1b62b16870a3f593d9f37f2e83969513733581",
        "network" : "EIP158",
        "postState" : {
            "0xa94f5374fce5edbc8e2a8697c15331677e6ebf0b" : {
                "balance" : "0x02f1db",
                "code" : "",
                "nonce" : "0x01",
                "storage" : {
                }
            },
            "0xb94f5374fce5edbc8e2a8697c15331677e6ebf0b" : {
                "balance" : "0x4563918244f40000",
                "code" : "",
                "nonce" : "0x00",
                "storage" : {
                }
            },
            "0xc94f5374fce5edbc8e2a8697c15331677e6ebf0b" : {
                "balance" : "0x03f2",
                "code" : "",
                "nonce" : "0x00",
                "storage" : {
                }
            }
        },
        "pre" : {
            "0xa94f5374fce5edbc8e2a8697c15331677e6ebf0b" : {
                "balance" : "0x035b60",
                "code" : "",
                "nonce" : "0x00",
                "storage" : {
                }
            },
            "0xb94f5374fce5edbc8e2a8697c15331677e6ebf0b" : {
                "balance" : "0x03e8",
                "code" : "0x73c94f5374fce5edbc8e2a8697c15331677e6ebf0bff",
                "nonce" : "0x00",
                "storage" : {
                }
            }
        }
    },
    "SuicidesMixingCoinbase_d0g1v0_Frontier" : {
        "_info" : {
            "comment" : "",
            "filledwith" : "cpp-1.3.0+commit.6e0ce939.Linux.g++",
            "lllcversion" : "Version: 0.4.18-develop.2017.9.25+commit.a72237f2.Linux.g++",
            "source" : "src/BlockchainTestsFiller/GeneralStateTests/stTransactionTest/SuicidesMixingCoinbase_d0g1v0Filler.json",
            "sourceHash" : "21bf085a791d4dacf929877f28e1bbf38b7f7aa62d86348096993163b2ddd086"
        },
        "blocks" : [
            {
                "blockHeader" : {
                    "bloom" : "0x00000000000000000000000000000000000000000000000000000000000000000000000000000000000000000000000000000000000000000000000000000000000000000000000000000000000000000000000000000000000000000000000000000000000000000000000000000000000000000000000000000000000000000000000000000000000000000000000000000000000000000000000000000000000000000000000000000000000000000000000000000000000000000000000000000000000000000000000000000000000000000000000000000000000000000000000000000000000000000000000000000000000000000000000000000000",
                    "coinbase" : "0xb94f5374fce5edbc8e2a8697c15331677e6ebf0b",
                    "difficulty" : "0x020000",
                    "extraData" : "",
                    "gasLimit" : "0x0f4240",
                    "gasUsed" : "0x2906",
                    "hash" : "0xfb2d0dabfc76faca35a934b3a68a68cbe33585c0203d1370af5ee26d9da06284",
                    "mixHash" : "0x8c1507ee0444612e9c37c472ba93549bdc7105e4e477c28a640df16409a5897c",
                    "nonce" : "0x558cd1975c118536",
                    "number" : "0x01",
                    "parentHash" : "0x872cfc663d77a6fa8be53ab283ab744d8bf39fb311e46bf67a045a638d2ccdd0",
                    "receiptTrie" : "0xbe369121a1e67a168d19f587393e8699194cb46325341366187d375c6ee462f4",
                    "stateRoot" : "0x9457d1b8b835bcbc3ef4389b0c37d22410741d0e5600f9a188d4a084cccb3137",
                    "timestamp" : "0x03e8",
                    "transactionsTrie" : "0xcba46c8aefada3d051c01ad95ceab22383b9bb97da8b83a2bc0bb8e23dc572ce",
                    "uncleHash" : "0x1dcc4de8dec75d7aab85b567b6ccd41ad312451b948a7413f0a142fd40d49347"
                },
                "rlp" : "0xf9025ef901f7a0872cfc663d77a6fa8be53ab283ab744d8bf39fb311e46bf67a045a638d2ccdd0a01dcc4de8dec75d7aab85b567b6ccd41ad312451b948a7413f0a142fd40d4934794b94f5374fce5edbc8e2a8697c15331677e6ebf0ba09457d1b8b835bcbc3ef4389b0c37d22410741d0e5600f9a188d4a084cccb3137a0cba46c8aefada3d051c01ad95ceab22383b9bb97da8b83a2bc0bb8e23dc572cea0be369121a1e67a168d19f587393e8699194cb46325341366187d375c6ee462f4b90100000000000000000000000000000000000000000000000000000000000000000000000000000000000000000000000000000000000000000000000000000000000000000000000000000000000000000000000000000000000000000000000000000000000000000000000000000000000000000000000000000000000000000000000000000000000000000000000000000000000000000000000000000000000000000000000000000000000000000000000000000000000000000000000000000000000000000000000000000000000000000000000000000000000000000000000000000000000000000000000000000000000000000000000000000000008302000001830f42408229068203e880a08c1507ee0444612e9c37c472ba93549bdc7105e4e477c28a640df16409a5897c88558cd1975c118536f861f85f800182ea6094b94f5374fce5edbc8e2a8697c15331677e6ebf0b0a801ca0179021729fddd757a7ffe18dcd36c403c485ef764408ce5aff33b3332a3068e2a074073a3531dd4c6cd60d2b13e5c0424eac0e961f973f373cea6b1dc1cefdf324c0",
                "transactions" : [
                    {
                        "data" : "",
                        "gasLimit" : "0xea60",
                        "gasPrice" : "0x01",
                        "nonce" : "0x00",
                        "r" : "0x179021729fddd757a7ffe18dcd36c403c485ef764408ce5aff33b3332a3068e2",
                        "s" : "0x74073a3531dd4c6cd60d2b13e5c0424eac0e961f973f373cea6b1dc1cefdf324",
                        "to" : "0xb94f5374fce5edbc8e2a8697c15331677e6ebf0b",
                        "v" : "0x1c",
                        "value" : "0x0a"
                    }
                ],
                "uncleHeaders" : [
                ]
            }
        ],
        "genesisBlockHeader" : {
            "bloom" : "0x00000000000000000000000000000000000000000000000000000000000000000000000000000000000000000000000000000000000000000000000000000000000000000000000000000000000000000000000000000000000000000000000000000000000000000000000000000000000000000000000000000000000000000000000000000000000000000000000000000000000000000000000000000000000000000000000000000000000000000000000000000000000000000000000000000000000000000000000000000000000000000000000000000000000000000000000000000000000000000000000000000000000000000000000000000000",
            "coinbase" : "0xb94f5374fce5edbc8e2a8697c15331677e6ebf0b",
            "difficulty" : "0x020000",
            "extraData" : "0x42",
            "gasLimit" : "0x0f4240",
            "gasUsed" : "0x00",
            "hash" : "0x872cfc663d77a6fa8be53ab283ab744d8bf39fb311e46bf67a045a638d2ccdd0",
            "mixHash" : "0x56e81f171bcc55a6ff8345e692c0f86e5b48e01b996cadc001622fb5e363b421",
            "nonce" : "0x0102030405060708",
            "number" : "0x00",
            "parentHash" : "0x0000000000000000000000000000000000000000000000000000000000000000",
            "receiptTrie" : "0x56e81f171bcc55a6ff8345e692c0f86e5b48e01b996cadc001622fb5e363b421",
            "stateRoot" : "0x9efcaf6c528edf3293a9ad96dcc231e67dc4effe34ad5251e2fd71048e00365b",
            "timestamp" : "0x03b6",
            "transactionsTrie" : "0x56e81f171bcc55a6ff8345e692c0f86e5b48e01b996cadc001622fb5e363b421",
            "uncleHash" : "0x1dcc4de8dec75d7aab85b567b6ccd41ad312451b948a7413f0a142fd40d49347"
        },
        "genesisRLP" : "0xf901faf901f5a00000000000000000000000000000000000000000000000000000000000000000a01dcc4de8dec75d7aab85b567b6ccd41ad312451b948a7413f0a142fd40d4934794b94f5374fce5edbc8e2a8697c15331677e6ebf0ba09efcaf6c528edf3293a9ad96dcc231e67dc4effe34ad5251e2fd71048e00365ba056e81f171bcc55a6ff8345e692c0f86e5b48e01b996cadc001622fb5e363b421a056e81f171bcc55a6ff8345e692c0f86e5b48e01b996cadc001622fb5e363b421b90100000000000000000000000000000000000000000000000000000000000000000000000000000000000000000000000000000000000000000000000000000000000000000000000000000000000000000000000000000000000000000000000000000000000000000000000000000000000000000000000000000000000000000000000000000000000000000000000000000000000000000000000000000000000000000000000000000000000000000000000000000000000000000000000000000000000000000000000000000000000000000000000000000000000000000000000000000000000000000000000000000000000000000000000000000000008302000080830f4240808203b642a056e81f171bcc55a6ff8345e692c0f86e5b48e01b996cadc001622fb5e363b421880102030405060708c0c0",
        "lastblockhash" : "0xfb2d0dabfc76faca35a934b3a68a68cbe33585c0203d1370af5ee26d9da06284",
        "network" : "Frontier",
        "postState" : {
            "0xa94f5374fce5edbc8e2a8697c15331677e6ebf0b" : {
                "balance" : "0x033250",
                "code" : "",
                "nonce" : "0x01",
                "storage" : {
                }
            },
            "0xb94f5374fce5edbc8e2a8697c15331677e6ebf0b" : {
                "balance" : "0x4563918244f40000",
                "code" : "",
                "nonce" : "0x00",
                "storage" : {
                }
            },
            "0xc94f5374fce5edbc8e2a8697c15331677e6ebf0b" : {
                "balance" : "0x03f2",
                "code" : "",
                "nonce" : "0x00",
                "storage" : {
                }
            }
        },
        "pre" : {
            "0xa94f5374fce5edbc8e2a8697c15331677e6ebf0b" : {
                "balance" : "0x035b60",
                "code" : "",
                "nonce" : "0x00",
                "storage" : {
                }
            },
            "0xb94f5374fce5edbc8e2a8697c15331677e6ebf0b" : {
                "balance" : "0x03e8",
                "code" : "0x73c94f5374fce5edbc8e2a8697c15331677e6ebf0bff",
                "nonce" : "0x00",
                "storage" : {
                }
            }
        }
    },
    "SuicidesMixingCoinbase_d0g1v0_Homestead" : {
        "_info" : {
            "comment" : "",
            "filledwith" : "cpp-1.3.0+commit.6e0ce939.Linux.g++",
            "lllcversion" : "Version: 0.4.18-develop.2017.9.25+commit.a72237f2.Linux.g++",
            "source" : "src/BlockchainTestsFiller/GeneralStateTests/stTransactionTest/SuicidesMixingCoinbase_d0g1v0Filler.json",
            "sourceHash" : "21bf085a791d4dacf929877f28e1bbf38b7f7aa62d86348096993163b2ddd086"
        },
        "blocks" : [
            {
                "blockHeader" : {
                    "bloom" : "0x00000000000000000000000000000000000000000000000000000000000000000000000000000000000000000000000000000000000000000000000000000000000000000000000000000000000000000000000000000000000000000000000000000000000000000000000000000000000000000000000000000000000000000000000000000000000000000000000000000000000000000000000000000000000000000000000000000000000000000000000000000000000000000000000000000000000000000000000000000000000000000000000000000000000000000000000000000000000000000000000000000000000000000000000000000000",
                    "coinbase" : "0xb94f5374fce5edbc8e2a8697c15331677e6ebf0b",
                    "difficulty" : "0x020000",
                    "extraData" : "",
                    "gasLimit" : "0x0f4240",
                    "gasUsed" : "0x2906",
                    "hash" : "0x636ef1daa86128012ccdfe7d10cb5f33b47c113f9af58dacda8f0213fc270881",
                    "mixHash" : "0x249908c7b6d040f81535fd64edfec5862f680c37dbecb3e089c49d91f1180b14",
                    "nonce" : "0xfeefa26065ffb661",
                    "number" : "0x01",
                    "parentHash" : "0x872cfc663d77a6fa8be53ab283ab744d8bf39fb311e46bf67a045a638d2ccdd0",
                    "receiptTrie" : "0xbe369121a1e67a168d19f587393e8699194cb46325341366187d375c6ee462f4",
                    "stateRoot" : "0x9457d1b8b835bcbc3ef4389b0c37d22410741d0e5600f9a188d4a084cccb3137",
                    "timestamp" : "0x03e8",
                    "transactionsTrie" : "0xcba46c8aefada3d051c01ad95ceab22383b9bb97da8b83a2bc0bb8e23dc572ce",
                    "uncleHash" : "0x1dcc4de8dec75d7aab85b567b6ccd41ad312451b948a7413f0a142fd40d49347"
                },
                "rlp" : "0xf9025ef901f7a0872cfc663d77a6fa8be53ab283ab744d8bf39fb311e46bf67a045a638d2ccdd0a01dcc4de8dec75d7aab85b567b6ccd41ad312451b948a7413f0a142fd40d4934794b94f5374fce5edbc8e2a8697c15331677e6ebf0ba09457d1b8b835bcbc3ef4389b0c37d22410741d0e5600f9a188d4a084cccb3137a0cba46c8aefada3d051c01ad95ceab22383b9bb97da8b83a2bc0bb8e23dc572cea0be369121a1e67a168d19f587393e8699194cb46325341366187d375c6ee462f4b90100000000000000000000000000000000000000000000000000000000000000000000000000000000000000000000000000000000000000000000000000000000000000000000000000000000000000000000000000000000000000000000000000000000000000000000000000000000000000000000000000000000000000000000000000000000000000000000000000000000000000000000000000000000000000000000000000000000000000000000000000000000000000000000000000000000000000000000000000000000000000000000000000000000000000000000000000000000000000000000000000000000000000000000000000000000008302000001830f42408229068203e880a0249908c7b6d040f81535fd64edfec5862f680c37dbecb3e089c49d91f1180b1488feefa26065ffb661f861f85f800182ea6094b94f5374fce5edbc8e2a8697c15331677e6ebf0b0a801ca0179021729fddd757a7ffe18dcd36c403c485ef764408ce5aff33b3332a3068e2a074073a3531dd4c6cd60d2b13e5c0424eac0e961f973f373cea6b1dc1cefdf324c0",
                "transactions" : [
                    {
                        "data" : "",
                        "gasLimit" : "0xea60",
                        "gasPrice" : "0x01",
                        "nonce" : "0x00",
                        "r" : "0x179021729fddd757a7ffe18dcd36c403c485ef764408ce5aff33b3332a3068e2",
                        "s" : "0x74073a3531dd4c6cd60d2b13e5c0424eac0e961f973f373cea6b1dc1cefdf324",
                        "to" : "0xb94f5374fce5edbc8e2a8697c15331677e6ebf0b",
                        "v" : "0x1c",
                        "value" : "0x0a"
                    }
                ],
                "uncleHeaders" : [
                ]
            }
        ],
        "genesisBlockHeader" : {
            "bloom" : "0x00000000000000000000000000000000000000000000000000000000000000000000000000000000000000000000000000000000000000000000000000000000000000000000000000000000000000000000000000000000000000000000000000000000000000000000000000000000000000000000000000000000000000000000000000000000000000000000000000000000000000000000000000000000000000000000000000000000000000000000000000000000000000000000000000000000000000000000000000000000000000000000000000000000000000000000000000000000000000000000000000000000000000000000000000000000",
            "coinbase" : "0xb94f5374fce5edbc8e2a8697c15331677e6ebf0b",
            "difficulty" : "0x020000",
            "extraData" : "0x42",
            "gasLimit" : "0x0f4240",
            "gasUsed" : "0x00",
            "hash" : "0x872cfc663d77a6fa8be53ab283ab744d8bf39fb311e46bf67a045a638d2ccdd0",
            "mixHash" : "0x56e81f171bcc55a6ff8345e692c0f86e5b48e01b996cadc001622fb5e363b421",
            "nonce" : "0x0102030405060708",
            "number" : "0x00",
            "parentHash" : "0x0000000000000000000000000000000000000000000000000000000000000000",
            "receiptTrie" : "0x56e81f171bcc55a6ff8345e692c0f86e5b48e01b996cadc001622fb5e363b421",
            "stateRoot" : "0x9efcaf6c528edf3293a9ad96dcc231e67dc4effe34ad5251e2fd71048e00365b",
            "timestamp" : "0x03b6",
            "transactionsTrie" : "0x56e81f171bcc55a6ff8345e692c0f86e5b48e01b996cadc001622fb5e363b421",
            "uncleHash" : "0x1dcc4de8dec75d7aab85b567b6ccd41ad312451b948a7413f0a142fd40d49347"
        },
        "genesisRLP" : "0xf901faf901f5a00000000000000000000000000000000000000000000000000000000000000000a01dcc4de8dec75d7aab85b567b6ccd41ad312451b948a7413f0a142fd40d4934794b94f5374fce5edbc8e2a8697c15331677e6ebf0ba09efcaf6c528edf3293a9ad96dcc231e67dc4effe34ad5251e2fd71048e00365ba056e81f171bcc55a6ff8345e692c0f86e5b48e01b996cadc001622fb5e363b421a056e81f171bcc55a6ff8345e692c0f86e5b48e01b996cadc001622fb5e363b421b90100000000000000000000000000000000000000000000000000000000000000000000000000000000000000000000000000000000000000000000000000000000000000000000000000000000000000000000000000000000000000000000000000000000000000000000000000000000000000000000000000000000000000000000000000000000000000000000000000000000000000000000000000000000000000000000000000000000000000000000000000000000000000000000000000000000000000000000000000000000000000000000000000000000000000000000000000000000000000000000000000000000000000000000000000000000008302000080830f4240808203b642a056e81f171bcc55a6ff8345e692c0f86e5b48e01b996cadc001622fb5e363b421880102030405060708c0c0",
        "lastblockhash" : "0x636ef1daa86128012ccdfe7d10cb5f33b47c113f9af58dacda8f0213fc270881",
        "network" : "Homestead",
        "postState" : {
            "0xa94f5374fce5edbc8e2a8697c15331677e6ebf0b" : {
                "balance" : "0x033250",
                "code" : "",
                "nonce" : "0x01",
                "storage" : {
                }
            },
            "0xb94f5374fce5edbc8e2a8697c15331677e6ebf0b" : {
                "balance" : "0x4563918244f40000",
                "code" : "",
                "nonce" : "0x00",
                "storage" : {
                }
            },
            "0xc94f5374fce5edbc8e2a8697c15331677e6ebf0b" : {
                "balance" : "0x03f2",
                "code" : "",
                "nonce" : "0x00",
                "storage" : {
                }
            }
        },
        "pre" : {
            "0xa94f5374fce5edbc8e2a8697c15331677e6ebf0b" : {
                "balance" : "0x035b60",
                "code" : "",
                "nonce" : "0x00",
                "storage" : {
                }
            },
            "0xb94f5374fce5edbc8e2a8697c15331677e6ebf0b" : {
                "balance" : "0x03e8",
                "code" : "0x73c94f5374fce5edbc8e2a8697c15331677e6ebf0bff",
                "nonce" : "0x00",
                "storage" : {
                }
            }
        }
    }
}