{
    "SuicidesAndInternlCallSuicidesSuccess_d0g0v0_Byzantium" : {
        "_info" : {
            "comment" : "",
            "filledwith" : "cpp-1.3.0+commit.6e0ce939.Linux.g++",
            "lllcversion" : "Version: 0.4.18-develop.2017.9.25+commit.a72237f2.Linux.g++",
            "source" : "src/BlockchainTestsFiller/GeneralStateTests/stTransactionTest/SuicidesAndInternlCallSuicidesSuccess_d0g0v0Filler.json",
            "sourceHash" : "69f8c532f0d04173019ca1126362c69568a876ed3a8eb4132f122895ce1bcc7b"
        },
        "blocks" : [
            {
                "blockHeader" : {
                    "bloom" : "0x00000000000000000000000000000000000000000000000000000000000000000000000000000000000000000000000000000000000000000000000000000000000000000000000000000000000000000000000000000000000000000000000000000000000000000000000000000000000000000000000000000000000000000000000000000000000000000000000000000000000000000000000000000000000000000000000000000000000000000000000000000000000000000000000000000000000000000000000000000000000000000000000000000000000000000000000000000000000000000000000000000000000000000000000000000000",
                    "coinbase" : "0xb94f5374fce5edbc8e2a8697c15331677e6ebf0b",
                    "difficulty" : "0x020000",
                    "extraData" : "",
                    "gasLimit" : "0x989680",
                    "gasUsed" : "0x84c1",
                    "hash" : "0x868e6013173ede8b36bee8f7be42eeffa2db3b282972a84fbde1e166b24a5a58",
                    "mixHash" : "0x9cbf50a7c4d77d3a137bcd61c0159139faaa1e59ff2a183141d321cd8e9ee7c5",
                    "nonce" : "0x48adaa8d056f76b8",
                    "number" : "0x01",
                    "parentHash" : "0xcbfc8296a05acb65da6b02355a83d0314d6fc330ba1c6e5dfc7c430bd0a11b20",
                    "receiptTrie" : "0xe845d26c579ea4d260a3b1796d1f39d22648b181271704d7dc6d4c6dc1a8bf1e",
                    "stateRoot" : "0x2aab1d61525b3cfc14778a8066b7117af8ebe8577c8e61b79b24c66bf04bc071",
                    "timestamp" : "0x03e8",
                    "transactionsTrie" : "0x24bde6e3c80a3d190bff24a4adacd0f9517242bf4fd0f8c3efd766ae2ec9a88f",
                    "uncleHash" : "0x1dcc4de8dec75d7aab85b567b6ccd41ad312451b948a7413f0a142fd40d49347"
                },
                "rlp" : "0xf9027ff901f7a0cbfc8296a05acb65da6b02355a83d0314d6fc330ba1c6e5dfc7c430bd0a11b20a01dcc4de8dec75d7aab85b567b6ccd41ad312451b948a7413f0a142fd40d4934794b94f5374fce5edbc8e2a8697c15331677e6ebf0ba02aab1d61525b3cfc14778a8066b7117af8ebe8577c8e61b79b24c66bf04bc071a024bde6e3c80a3d190bff24a4adacd0f9517242bf4fd0f8c3efd766ae2ec9a88fa0e845d26c579ea4d260a3b1796d1f39d22648b181271704d7dc6d4c6dc1a8bf1eb90100000000000000000000000000000000000000000000000000000000000000000000000000000000000000000000000000000000000000000000000000000000000000000000000000000000000000000000000000000000000000000000000000000000000000000000000000000000000000000000000000000000000000000000000000000000000000000000000000000000000000000000000000000000000000000000000000000000000000000000000000000000000000000000000000000000000000000000000000000000000000000000000000000000000000000000000000000000000000000000000000000000000000000000000000000000008302000001839896808284c18203e880a09cbf50a7c4d77d3a137bcd61c0159139faaa1e59ff2a183141d321cd8e9ee7c58848adaa8d056f76b8f882f8808001830249f094c94f5374fce5edbc8e2a8697c15331677e6ebf0b0aa000000000000000000000000000000000000000000000000000000000000055f01ba04e64e95f563f664980d5e9640c45e6d521997c02b7c0e3872142092a44ed31e4a025faaf4bcb2b7d3a896f9c5902afef5959f67ff021c27e116ba20ded8cc55b79c0",
                "transactions" : [
                    {
                        "data" : "0x00000000000000000000000000000000000000000000000000000000000055f0",
                        "gasLimit" : "0x0249f0",
                        "gasPrice" : "0x01",
                        "nonce" : "0x00",
                        "r" : "0x4e64e95f563f664980d5e9640c45e6d521997c02b7c0e3872142092a44ed31e4",
                        "s" : "0x25faaf4bcb2b7d3a896f9c5902afef5959f67ff021c27e116ba20ded8cc55b79",
                        "to" : "0xc94f5374fce5edbc8e2a8697c15331677e6ebf0b",
                        "v" : "0x1b",
                        "value" : "0x0a"
                    }
                ],
                "uncleHeaders" : [
                ]
            }
        ],
        "genesisBlockHeader" : {
            "bloom" : "0x00000000000000000000000000000000000000000000000000000000000000000000000000000000000000000000000000000000000000000000000000000000000000000000000000000000000000000000000000000000000000000000000000000000000000000000000000000000000000000000000000000000000000000000000000000000000000000000000000000000000000000000000000000000000000000000000000000000000000000000000000000000000000000000000000000000000000000000000000000000000000000000000000000000000000000000000000000000000000000000000000000000000000000000000000000000",
            "coinbase" : "0xb94f5374fce5edbc8e2a8697c15331677e6ebf0b",
            "difficulty" : "0x020000",
            "extraData" : "0x42",
            "gasLimit" : "0x989680",
            "gasUsed" : "0x00",
            "hash" : "0xcbfc8296a05acb65da6b02355a83d0314d6fc330ba1c6e5dfc7c430bd0a11b20",
            "mixHash" : "0x56e81f171bcc55a6ff8345e692c0f86e5b48e01b996cadc001622fb5e363b421",
            "nonce" : "0x0102030405060708",
            "number" : "0x00",
            "parentHash" : "0x0000000000000000000000000000000000000000000000000000000000000000",
            "receiptTrie" : "0x56e81f171bcc55a6ff8345e692c0f86e5b48e01b996cadc001622fb5e363b421",
            "stateRoot" : "0x332038ba5f3f0d8a215cb6603b7682f60838cd1ba4f68a6a216f884da8cb5a16",
            "timestamp" : "0x03b6",
            "transactionsTrie" : "0x56e81f171bcc55a6ff8345e692c0f86e5b48e01b996cadc001622fb5e363b421",
            "uncleHash" : "0x1dcc4de8dec75d7aab85b567b6ccd41ad312451b948a7413f0a142fd40d49347"
        },
        "genesisRLP" : "0xf901faf901f5a00000000000000000000000000000000000000000000000000000000000000000a01dcc4de8dec75d7aab85b567b6ccd41ad312451b948a7413f0a142fd40d4934794b94f5374fce5edbc8e2a8697c15331677e6ebf0ba0332038ba5f3f0d8a215cb6603b7682f60838cd1ba4f68a6a216f884da8cb5a16a056e81f171bcc55a6ff8345e692c0f86e5b48e01b996cadc001622fb5e363b421a056e81f171bcc55a6ff8345e692c0f86e5b48e01b996cadc001622fb5e363b421b9010000000000000000000000000000000000000000000000000000000000000000000000000000000000000000000000000000000000000000000000000000000000000000000000000000000000000000000000000000000000000000000000000000000000000000000000000000000000000000000000000000000000000000000000000000000000000000000000000000000000000000000000000000000000000000000000000000000000000000000000000000000000000000000000000000000000000000000000000000000000000000000000000000000000000000000000000000000000000000000000000000000000000000000000000000000000830200008083989680808203b642a056e81f171bcc55a6ff8345e692c0f86e5b48e01b996cadc001622fb5e363b421880102030405060708c0c0",
        "lastblockhash" : "0x868e6013173ede8b36bee8f7be42eeffa2db3b282972a84fbde1e166b24a5a58",
        "network" : "Byzantium",
        "postState" : {
            "0x0000000000000000000000000000000000000000" : {
                "balance" : "0x03f2",
                "code" : "0x6001ff",
                "nonce" : "0x00",
                "storage" : {
                }
            },
            "0xa94f5374fce5edbc8e2a8697c15331677e6ebf0b" : {
                "balance" : "0x023a55",
                "code" : "",
                "nonce" : "0x01",
                "storage" : {
                }
            },
            "0xb94f5374fce5edbc8e2a8697c15331677e6ebf0b" : {
                "balance" : "0x29a2241af62c84c1",
                "code" : "",
                "nonce" : "0x00",
                "storage" : {
                }
            }
        },
        "pre" : {
            "0x0000000000000000000000000000000000000000" : {
                "balance" : "0x00",
                "code" : "0x6001ff",
                "nonce" : "0x00",
                "storage" : {
                }
            },
            "0xa94f5374fce5edbc8e2a8697c15331677e6ebf0b" : {
                "balance" : "0x02bf20",
                "code" : "",
                "nonce" : "0x00",
                "storage" : {
                }
            },
            "0xc94f5374fce5edbc8e2a8697c15331677e6ebf0b" : {
                "balance" : "0x03e8",
                "code" : "0x600060006000600060016000600035f1506000ff",
                "nonce" : "0x00",
                "storage" : {
                }
            }
        }
    },
    "SuicidesAndInternlCallSuicidesSuccess_d0g0v0_EIP150" : {
        "_info" : {
            "comment" : "",
            "filledwith" : "cpp-1.3.0+commit.6e0ce939.Linux.g++",
            "lllcversion" : "Version: 0.4.18-develop.2017.9.25+commit.a72237f2.Linux.g++",
            "source" : "src/BlockchainTestsFiller/GeneralStateTests/stTransactionTest/SuicidesAndInternlCallSuicidesSuccess_d0g0v0Filler.json",
            "sourceHash" : "69f8c532f0d04173019ca1126362c69568a876ed3a8eb4132f122895ce1bcc7b"
        },
        "blocks" : [
            {
                "blockHeader" : {
                    "bloom" : "0x00000000000000000000000000000000000000000000000000000000000000000000000000000000000000000000000000000000000000000000000000000000000000000000000000000000000000000000000000000000000000000000000000000000000000000000000000000000000000000000000000000000000000000000000000000000000000000000000000000000000000000000000000000000000000000000000000000000000000000000000000000000000000000000000000000000000000000000000000000000000000000000000000000000000000000000000000000000000000000000000000000000000000000000000000000000",
                    "coinbase" : "0xb94f5374fce5edbc8e2a8697c15331677e6ebf0b",
                    "difficulty" : "0x020000",
                    "extraData" : "",
                    "gasLimit" : "0x989680",
                    "gasUsed" : "0x84c1",
                    "hash" : "0xa6ed9ca3e0fb496d03ed49c30974416563964993dea25b5c82878212a2ac0abe",
                    "mixHash" : "0xc23e5bacab4a63c4cf262b0fa3ca4dfca6a74f0ddf52ea53d317372217523787",
                    "nonce" : "0xd188e11e173b0d5d",
                    "number" : "0x01",
                    "parentHash" : "0xcbfc8296a05acb65da6b02355a83d0314d6fc330ba1c6e5dfc7c430bd0a11b20",
                    "receiptTrie" : "0x51a0313bc67f037ad7866b844d92f03736cd42ae1687fefb6f44f4e06924c889",
                    "stateRoot" : "0xc2357e57feda4a7d6b9b0ff8bd94b9e922a3634c2925e5d2c0aa3f93ec29884d",
                    "timestamp" : "0x03e8",
                    "transactionsTrie" : "0x24bde6e3c80a3d190bff24a4adacd0f9517242bf4fd0f8c3efd766ae2ec9a88f",
                    "uncleHash" : "0x1dcc4de8dec75d7aab85b567b6ccd41ad312451b948a7413f0a142fd40d49347"
                },
                "rlp" : "0xf9027ff901f7a0cbfc8296a05acb65da6b02355a83d0314d6fc330ba1c6e5dfc7c430bd0a11b20a01dcc4de8dec75d7aab85b567b6ccd41ad312451b948a7413f0a142fd40d4934794b94f5374fce5edbc8e2a8697c15331677e6ebf0ba0c2357e57feda4a7d6b9b0ff8bd94b9e922a3634c2925e5d2c0aa3f93ec29884da024bde6e3c80a3d190bff24a4adacd0f9517242bf4fd0f8c3efd766ae2ec9a88fa051a0313bc67f037ad7866b844d92f03736cd42ae1687fefb6f44f4e06924c889b90100000000000000000000000000000000000000000000000000000000000000000000000000000000000000000000000000000000000000000000000000000000000000000000000000000000000000000000000000000000000000000000000000000000000000000000000000000000000000000000000000000000000000000000000000000000000000000000000000000000000000000000000000000000000000000000000000000000000000000000000000000000000000000000000000000000000000000000000000000000000000000000000000000000000000000000000000000000000000000000000000000000000000000000000000000000008302000001839896808284c18203e880a0c23e5bacab4a63c4cf262b0fa3ca4dfca6a74f0ddf52ea53d31737221752378788d188e11e173b0d5df882f8808001830249f094c94f5374fce5edbc8e2a8697c15331677e6ebf0b0aa000000000000000000000000000000000000000000000000000000000000055f01ba04e64e95f563f664980d5e9640c45e6d521997c02b7c0e3872142092a44ed31e4a025faaf4bcb2b7d3a896f9c5902afef5959f67ff021c27e116ba20ded8cc55b79c0",
                "transactions" : [
                    {
                        "data" : "0x00000000000000000000000000000000000000000000000000000000000055f0",
                        "gasLimit" : "0x0249f0",
                        "gasPrice" : "0x01",
                        "nonce" : "0x00",
                        "r" : "0x4e64e95f563f664980d5e9640c45e6d521997c02b7c0e3872142092a44ed31e4",
                        "s" : "0x25faaf4bcb2b7d3a896f9c5902afef5959f67ff021c27e116ba20ded8cc55b79",
                        "to" : "0xc94f5374fce5edbc8e2a8697c15331677e6ebf0b",
                        "v" : "0x1b",
                        "value" : "0x0a"
                    }
                ],
                "uncleHeaders" : [
                ]
            }
        ],
        "genesisBlockHeader" : {
            "bloom" : "0x00000000000000000000000000000000000000000000000000000000000000000000000000000000000000000000000000000000000000000000000000000000000000000000000000000000000000000000000000000000000000000000000000000000000000000000000000000000000000000000000000000000000000000000000000000000000000000000000000000000000000000000000000000000000000000000000000000000000000000000000000000000000000000000000000000000000000000000000000000000000000000000000000000000000000000000000000000000000000000000000000000000000000000000000000000000",
            "coinbase" : "0xb94f5374fce5edbc8e2a8697c15331677e6ebf0b",
            "difficulty" : "0x020000",
            "extraData" : "0x42",
            "gasLimit" : "0x989680",
            "gasUsed" : "0x00",
            "hash" : "0xcbfc8296a05acb65da6b02355a83d0314d6fc330ba1c6e5dfc7c430bd0a11b20",
            "mixHash" : "0x56e81f171bcc55a6ff8345e692c0f86e5b48e01b996cadc001622fb5e363b421",
            "nonce" : "0x0102030405060708",
            "number" : "0x00",
            "parentHash" : "0x0000000000000000000000000000000000000000000000000000000000000000",
            "receiptTrie" : "0x56e81f171bcc55a6ff8345e692c0f86e5b48e01b996cadc001622fb5e363b421",
            "stateRoot" : "0x332038ba5f3f0d8a215cb6603b7682f60838cd1ba4f68a6a216f884da8cb5a16",
            "timestamp" : "0x03b6",
            "transactionsTrie" : "0x56e81f171bcc55a6ff8345e692c0f86e5b48e01b996cadc001622fb5e363b421",
            "uncleHash" : "0x1dcc4de8dec75d7aab85b567b6ccd41ad312451b948a7413f0a142fd40d49347"
        },
        "genesisRLP" : "0xf901faf901f5a00000000000000000000000000000000000000000000000000000000000000000a01dcc4de8dec75d7aab85b567b6ccd41ad312451b948a7413f0a142fd40d4934794b94f5374fce5edbc8e2a8697c15331677e6ebf0ba0332038ba5f3f0d8a215cb6603b7682f60838cd1ba4f68a6a216f884da8cb5a16a056e81f171bcc55a6ff8345e692c0f86e5b48e01b996cadc001622fb5e363b421a056e81f171bcc55a6ff8345e692c0f86e5b48e01b996cadc001622fb5e363b421b9010000000000000000000000000000000000000000000000000000000000000000000000000000000000000000000000000000000000000000000000000000000000000000000000000000000000000000000000000000000000000000000000000000000000000000000000000000000000000000000000000000000000000000000000000000000000000000000000000000000000000000000000000000000000000000000000000000000000000000000000000000000000000000000000000000000000000000000000000000000000000000000000000000000000000000000000000000000000000000000000000000000000000000000000000000000000830200008083989680808203b642a056e81f171bcc55a6ff8345e692c0f86e5b48e01b996cadc001622fb5e363b421880102030405060708c0c0",
        "lastblockhash" : "0xa6ed9ca3e0fb496d03ed49c30974416563964993dea25b5c82878212a2ac0abe",
        "network" : "EIP150",
        "postState" : {
            "0x0000000000000000000000000000000000000000" : {
                "balance" : "0x03f2",
                "code" : "0x6001ff",
                "nonce" : "0x00",
                "storage" : {
                }
            },
            "0xa94f5374fce5edbc8e2a8697c15331677e6ebf0b" : {
                "balance" : "0x023a55",
                "code" : "",
                "nonce" : "0x01",
                "storage" : {
                }
            },
            "0xb94f5374fce5edbc8e2a8697c15331677e6ebf0b" : {
                "balance" : "0x4563918244f484c1",
                "code" : "",
                "nonce" : "0x00",
                "storage" : {
                }
            }
        },
        "pre" : {
            "0x0000000000000000000000000000000000000000" : {
                "balance" : "0x00",
                "code" : "0x6001ff",
                "nonce" : "0x00",
                "storage" : {
                }
            },
            "0xa94f5374fce5edbc8e2a8697c15331677e6ebf0b" : {
                "balance" : "0x02bf20",
                "code" : "",
                "nonce" : "0x00",
                "storage" : {
                }
            },
            "0xc94f5374fce5edbc8e2a8697c15331677e6ebf0b" : {
                "balance" : "0x03e8",
                "code" : "0x600060006000600060016000600035f1506000ff",
                "nonce" : "0x00",
                "storage" : {
                }
            }
        }
    },
    "SuicidesAndInternlCallSuicidesSuccess_d0g0v0_EIP158" : {
        "_info" : {
            "comment" : "",
            "filledwith" : "cpp-1.3.0+commit.6e0ce939.Linux.g++",
            "lllcversion" : "Version: 0.4.18-develop.2017.9.25+commit.a72237f2.Linux.g++",
            "source" : "src/BlockchainTestsFiller/GeneralStateTests/stTransactionTest/SuicidesAndInternlCallSuicidesSuccess_d0g0v0Filler.json",
            "sourceHash" : "69f8c532f0d04173019ca1126362c69568a876ed3a8eb4132f122895ce1bcc7b"
        },
        "blocks" : [
            {
                "blockHeader" : {
                    "bloom" : "0x00000000000000000000000000000000000000000000000000000000000000000000000000000000000000000000000000000000000000000000000000000000000000000000000000000000000000000000000000000000000000000000000000000000000000000000000000000000000000000000000000000000000000000000000000000000000000000000000000000000000000000000000000000000000000000000000000000000000000000000000000000000000000000000000000000000000000000000000000000000000000000000000000000000000000000000000000000000000000000000000000000000000000000000000000000000",
                    "coinbase" : "0xb94f5374fce5edbc8e2a8697c15331677e6ebf0b",
                    "difficulty" : "0x020000",
                    "extraData" : "",
                    "gasLimit" : "0x989680",
                    "gasUsed" : "0x84c1",
                    "hash" : "0xe50a5224a9e6c906cf2c6f3d2502f05c4d227a7aede6c708a0c6f5e901404074",
                    "mixHash" : "0xe3c77fa4e5c8ba1e614dae41f8d8d5347525d6423e30e65a135d84660456906a",
                    "nonce" : "0x71ba38939a5fe1d9",
                    "number" : "0x01",
                    "parentHash" : "0xcbfc8296a05acb65da6b02355a83d0314d6fc330ba1c6e5dfc7c430bd0a11b20",
                    "receiptTrie" : "0x51a0313bc67f037ad7866b844d92f03736cd42ae1687fefb6f44f4e06924c889",
                    "stateRoot" : "0xc2357e57feda4a7d6b9b0ff8bd94b9e922a3634c2925e5d2c0aa3f93ec29884d",
                    "timestamp" : "0x03e8",
                    "transactionsTrie" : "0x24bde6e3c80a3d190bff24a4adacd0f9517242bf4fd0f8c3efd766ae2ec9a88f",
                    "uncleHash" : "0x1dcc4de8dec75d7aab85b567b6ccd41ad312451b948a7413f0a142fd40d49347"
                },
                "rlp" : "0xf9027ff901f7a0cbfc8296a05acb65da6b02355a83d0314d6fc330ba1c6e5dfc7c430bd0a11b20a01dcc4de8dec75d7aab85b567b6ccd41ad312451b948a7413f0a142fd40d4934794b94f5374fce5edbc8e2a8697c15331677e6ebf0ba0c2357e57feda4a7d6b9b0ff8bd94b9e922a3634c2925e5d2c0aa3f93ec29884da024bde6e3c80a3d190bff24a4adacd0f9517242bf4fd0f8c3efd766ae2ec9a88fa051a0313bc67f037ad7866b844d92f03736cd42ae1687fefb6f44f4e06924c889b90100000000000000000000000000000000000000000000000000000000000000000000000000000000000000000000000000000000000000000000000000000000000000000000000000000000000000000000000000000000000000000000000000000000000000000000000000000000000000000000000000000000000000000000000000000000000000000000000000000000000000000000000000000000000000000000000000000000000000000000000000000000000000000000000000000000000000000000000000000000000000000000000000000000000000000000000000000000000000000000000000000000000000000000000000000000008302000001839896808284c18203e880a0e3c77fa4e5c8ba1e614dae41f8d8d5347525d6423e30e65a135d84660456906a8871ba38939a5fe1d9f882f8808001830249f094c94f5374fce5edbc8e2a8697c15331677e6ebf0b0aa000000000000000000000000000000000000000000000000000000000000055f01ba04e64e95f563f664980d5e9640c45e6d521997c02b7c0e3872142092a44ed31e4a025faaf4bcb2b7d3a896f9c5902afef5959f67ff021c27e116ba20ded8cc55b79c0",
                "transactions" : [
                    {
                        "data" : "0x00000000000000000000000000000000000000000000000000000000000055f0",
                        "gasLimit" : "0x0249f0",
                        "gasPrice" : "0x01",
                        "nonce" : "0x00",
                        "r" : "0x4e64e95f563f664980d5e9640c45e6d521997c02b7c0e3872142092a44ed31e4",
                        "s" : "0x25faaf4bcb2b7d3a896f9c5902afef5959f67ff021c27e116ba20ded8cc55b79",
                        "to" : "0xc94f5374fce5edbc8e2a8697c15331677e6ebf0b",
                        "v" : "0x1b",
                        "value" : "0x0a"
                    }
                ],
                "uncleHeaders" : [
                ]
            }
        ],
        "genesisBlockHeader" : {
            "bloom" : "0x00000000000000000000000000000000000000000000000000000000000000000000000000000000000000000000000000000000000000000000000000000000000000000000000000000000000000000000000000000000000000000000000000000000000000000000000000000000000000000000000000000000000000000000000000000000000000000000000000000000000000000000000000000000000000000000000000000000000000000000000000000000000000000000000000000000000000000000000000000000000000000000000000000000000000000000000000000000000000000000000000000000000000000000000000000000",
            "coinbase" : "0xb94f5374fce5edbc8e2a8697c15331677e6ebf0b",
            "difficulty" : "0x020000",
            "extraData" : "0x42",
            "gasLimit" : "0x989680",
            "gasUsed" : "0x00",
            "hash" : "0xcbfc8296a05acb65da6b02355a83d0314d6fc330ba1c6e5dfc7c430bd0a11b20",
            "mixHash" : "0x56e81f171bcc55a6ff8345e692c0f86e5b48e01b996cadc001622fb5e363b421",
            "nonce" : "0x0102030405060708",
            "number" : "0x00",
            "parentHash" : "0x0000000000000000000000000000000000000000000000000000000000000000",
            "receiptTrie" : "0x56e81f171bcc55a6ff8345e692c0f86e5b48e01b996cadc001622fb5e363b421",
            "stateRoot" : "0x332038ba5f3f0d8a215cb6603b7682f60838cd1ba4f68a6a216f884da8cb5a16",
            "timestamp" : "0x03b6",
            "transactionsTrie" : "0x56e81f171bcc55a6ff8345e692c0f86e5b48e01b996cadc001622fb5e363b421",
            "uncleHash" : "0x1dcc4de8dec75d7aab85b567b6ccd41ad312451b948a7413f0a142fd40d49347"
        },
        "genesisRLP" : "0xf901faf901f5a00000000000000000000000000000000000000000000000000000000000000000a01dcc4de8dec75d7aab85b567b6ccd41ad312451b948a7413f0a142fd40d4934794b94f5374fce5edbc8e2a8697c15331677e6ebf0ba0332038ba5f3f0d8a215cb6603b7682f60838cd1ba4f68a6a216f884da8cb5a16a056e81f171bcc55a6ff8345e692c0f86e5b48e01b996cadc001622fb5e363b421a056e81f171bcc55a6ff8345e692c0f86e5b48e01b996cadc001622fb5e363b421b9010000000000000000000000000000000000000000000000000000000000000000000000000000000000000000000000000000000000000000000000000000000000000000000000000000000000000000000000000000000000000000000000000000000000000000000000000000000000000000000000000000000000000000000000000000000000000000000000000000000000000000000000000000000000000000000000000000000000000000000000000000000000000000000000000000000000000000000000000000000000000000000000000000000000000000000000000000000000000000000000000000000000000000000000000000000000830200008083989680808203b642a056e81f171bcc55a6ff8345e692c0f86e5b48e01b996cadc001622fb5e363b421880102030405060708c0c0",
        "lastblockhash" : "0xe50a5224a9e6c906cf2c6f3d2502f05c4d227a7aede6c708a0c6f5e901404074",
        "network" : "EIP158",
        "postState" : {
            "0x0000000000000000000000000000000000000000" : {
                "balance" : "0x03f2",
                "code" : "0x6001ff",
                "nonce" : "0x00",
                "storage" : {
                }
            },
            "0xa94f5374fce5edbc8e2a8697c15331677e6ebf0b" : {
                "balance" : "0x023a55",
                "code" : "",
                "nonce" : "0x01",
                "storage" : {
                }
            },
            "0xb94f5374fce5edbc8e2a8697c15331677e6ebf0b" : {
                "balance" : "0x4563918244f484c1",
                "code" : "",
                "nonce" : "0x00",
                "storage" : {
                }
            }
        },
        "pre" : {
            "0x0000000000000000000000000000000000000000" : {
                "balance" : "0x00",
                "code" : "0x6001ff",
                "nonce" : "0x00",
                "storage" : {
                }
            },
            "0xa94f5374fce5edbc8e2a8697c15331677e6ebf0b" : {
                "balance" : "0x02bf20",
                "code" : "",
                "nonce" : "0x00",
                "storage" : {
                }
            },
            "0xc94f5374fce5edbc8e2a8697c15331677e6ebf0b" : {
                "balance" : "0x03e8",
                "code" : "0x600060006000600060016000600035f1506000ff",
                "nonce" : "0x00",
                "storage" : {
                }
            }
        }
    },
    "SuicidesAndInternlCallSuicidesSuccess_d0g0v0_Frontier" : {
        "_info" : {
            "comment" : "",
            "filledwith" : "cpp-1.3.0+commit.6e0ce939.Linux.g++",
            "lllcversion" : "Version: 0.4.18-develop.2017.9.25+commit.a72237f2.Linux.g++",
            "source" : "src/BlockchainTestsFiller/GeneralStateTests/stTransactionTest/SuicidesAndInternlCallSuicidesSuccess_d0g0v0Filler.json",
            "sourceHash" : "69f8c532f0d04173019ca1126362c69568a876ed3a8eb4132f122895ce1bcc7b"
        },
        "blocks" : [
            {
                "blockHeader" : {
                    "bloom" : "0x00000000000000000000000000000000000000000000000000000000000000000000000000000000000000000000000000000000000000000000000000000000000000000000000000000000000000000000000000000000000000000000000000000000000000000000000000000000000000000000000000000000000000000000000000000000000000000000000000000000000000000000000000000000000000000000000000000000000000000000000000000000000000000000000000000000000000000000000000000000000000000000000000000000000000000000000000000000000000000000000000000000000000000000000000000000",
                    "coinbase" : "0xb94f5374fce5edbc8e2a8697c15331677e6ebf0b",
                    "difficulty" : "0x020000",
                    "extraData" : "",
                    "gasLimit" : "0x989680",
                    "gasUsed" : "0x36be",
                    "hash" : "0xe76f2dd1a5b9b2cdd0da5df90a3967f5c536add2192c24f95e1d9e0075404af1",
                    "mixHash" : "0x00bb4f129b573c7ebe153e1de34b886558e0065c3e4745b85fc6a61d9ae8ad48",
                    "nonce" : "0x50ac762fccb979b8",
                    "number" : "0x01",
                    "parentHash" : "0xcbfc8296a05acb65da6b02355a83d0314d6fc330ba1c6e5dfc7c430bd0a11b20",
                    "receiptTrie" : "0x27cc8c6eb49b3129c8c61c4b66b0d0750a598c72bd325b3bbc77155497cfa8eb",
                    "stateRoot" : "0xcaf53bf26700e4609de711b8d45f5ff5810ebf8dbdcc6ec949bb98aa3a691424",
                    "timestamp" : "0x03e8",
                    "transactionsTrie" : "0x24bde6e3c80a3d190bff24a4adacd0f9517242bf4fd0f8c3efd766ae2ec9a88f",
                    "uncleHash" : "0x1dcc4de8dec75d7aab85b567b6ccd41ad312451b948a7413f0a142fd40d49347"
                },
                "rlp" : "0xf9027ff901f7a0cbfc8296a05acb65da6b02355a83d0314d6fc330ba1c6e5dfc7c430bd0a11b20a01dcc4de8dec75d7aab85b567b6ccd41ad312451b948a7413f0a142fd40d4934794b94f5374fce5edbc8e2a8697c15331677e6ebf0ba0caf53bf26700e4609de711b8d45f5ff5810ebf8dbdcc6ec949bb98aa3a691424a024bde6e3c80a3d190bff24a4adacd0f9517242bf4fd0f8c3efd766ae2ec9a88fa027cc8c6eb49b3129c8c61c4b66b0d0750a598c72bd325b3bbc77155497cfa8ebb90100000000000000000000000000000000000000000000000000000000000000000000000000000000000000000000000000000000000000000000000000000000000000000000000000000000000000000000000000000000000000000000000000000000000000000000000000000000000000000000000000000000000000000000000000000000000000000000000000000000000000000000000000000000000000000000000000000000000000000000000000000000000000000000000000000000000000000000000000000000000000000000000000000000000000000000000000000000000000000000000000000000000000000000000000000000008302000001839896808236be8203e880a000bb4f129b573c7ebe153e1de34b886558e0065c3e4745b85fc6a61d9ae8ad488850ac762fccb979b8f882f8808001830249f094c94f5374fce5edbc8e2a8697c15331677e6ebf0b0aa000000000000000000000000000000000000000000000000000000000000055f01ba04e64e95f563f664980d5e9640c45e6d521997c02b7c0e3872142092a44ed31e4a025faaf4bcb2b7d3a896f9c5902afef5959f67ff021c27e116ba20ded8cc55b79c0",
                "transactions" : [
                    {
                        "data" : "0x00000000000000000000000000000000000000000000000000000000000055f0",
                        "gasLimit" : "0x0249f0",
                        "gasPrice" : "0x01",
                        "nonce" : "0x00",
                        "r" : "0x4e64e95f563f664980d5e9640c45e6d521997c02b7c0e3872142092a44ed31e4",
                        "s" : "0x25faaf4bcb2b7d3a896f9c5902afef5959f67ff021c27e116ba20ded8cc55b79",
                        "to" : "0xc94f5374fce5edbc8e2a8697c15331677e6ebf0b",
                        "v" : "0x1b",
                        "value" : "0x0a"
                    }
                ],
                "uncleHeaders" : [
                ]
            }
        ],
        "genesisBlockHeader" : {
            "bloom" : "0x00000000000000000000000000000000000000000000000000000000000000000000000000000000000000000000000000000000000000000000000000000000000000000000000000000000000000000000000000000000000000000000000000000000000000000000000000000000000000000000000000000000000000000000000000000000000000000000000000000000000000000000000000000000000000000000000000000000000000000000000000000000000000000000000000000000000000000000000000000000000000000000000000000000000000000000000000000000000000000000000000000000000000000000000000000000",
            "coinbase" : "0xb94f5374fce5edbc8e2a8697c15331677e6ebf0b",
            "difficulty" : "0x020000",
            "extraData" : "0x42",
            "gasLimit" : "0x989680",
            "gasUsed" : "0x00",
            "hash" : "0xcbfc8296a05acb65da6b02355a83d0314d6fc330ba1c6e5dfc7c430bd0a11b20",
            "mixHash" : "0x56e81f171bcc55a6ff8345e692c0f86e5b48e01b996cadc001622fb5e363b421",
            "nonce" : "0x0102030405060708",
            "number" : "0x00",
            "parentHash" : "0x0000000000000000000000000000000000000000000000000000000000000000",
            "receiptTrie" : "0x56e81f171bcc55a6ff8345e692c0f86e5b48e01b996cadc001622fb5e363b421",
            "stateRoot" : "0x332038ba5f3f0d8a215cb6603b7682f60838cd1ba4f68a6a216f884da8cb5a16",
            "timestamp" : "0x03b6",
            "transactionsTrie" : "0x56e81f171bcc55a6ff8345e692c0f86e5b48e01b996cadc001622fb5e363b421",
            "uncleHash" : "0x1dcc4de8dec75d7aab85b567b6ccd41ad312451b948a7413f0a142fd40d49347"
        },
        "genesisRLP" : "0xf901faf901f5a00000000000000000000000000000000000000000000000000000000000000000a01dcc4de8dec75d7aab85b567b6ccd41ad312451b948a7413f0a142fd40d4934794b94f5374fce5edbc8e2a8697c15331677e6ebf0ba0332038ba5f3f0d8a215cb6603b7682f60838cd1ba4f68a6a216f884da8cb5a16a056e81f171bcc55a6ff8345e692c0f86e5b48e01b996cadc001622fb5e363b421a056e81f171bcc55a6ff8345e692c0f86e5b48e01b996cadc001622fb5e363b421b9010000000000000000000000000000000000000000000000000000000000000000000000000000000000000000000000000000000000000000000000000000000000000000000000000000000000000000000000000000000000000000000000000000000000000000000000000000000000000000000000000000000000000000000000000000000000000000000000000000000000000000000000000000000000000000000000000000000000000000000000000000000000000000000000000000000000000000000000000000000000000000000000000000000000000000000000000000000000000000000000000000000000000000000000000000000000830200008083989680808203b642a056e81f171bcc55a6ff8345e692c0f86e5b48e01b996cadc001622fb5e363b421880102030405060708c0c0",
        "lastblockhash" : "0xe76f2dd1a5b9b2cdd0da5df90a3967f5c536add2192c24f95e1d9e0075404af1",
        "network" : "Frontier",
        "postState" : {
            "0x0000000000000000000000000000000000000001" : {
                "balance" : "0x01",
                "code" : "",
                "nonce" : "0x00",
                "storage" : {
                }
            },
            "0xa94f5374fce5edbc8e2a8697c15331677e6ebf0b" : {
                "balance" : "0x028858",
                "code" : "",
                "nonce" : "0x01",
                "storage" : {
                }
            },
            "0xb94f5374fce5edbc8e2a8697c15331677e6ebf0b" : {
                "balance" : "0x4563918244f436be",
                "code" : "",
                "nonce" : "0x00",
                "storage" : {
                }
            }
        },
        "pre" : {
            "0x0000000000000000000000000000000000000000" : {
                "balance" : "0x00",
                "code" : "0x6001ff",
                "nonce" : "0x00",
                "storage" : {
                }
            },
            "0xa94f5374fce5edbc8e2a8697c15331677e6ebf0b" : {
                "balance" : "0x02bf20",
                "code" : "",
                "nonce" : "0x00",
                "storage" : {
                }
            },
            "0xc94f5374fce5edbc8e2a8697c15331677e6ebf0b" : {
                "balance" : "0x03e8",
                "code" : "0x600060006000600060016000600035f1506000ff",
                "nonce" : "0x00",
                "storage" : {
                }
            }
        }
    },
    "SuicidesAndInternlCallSuicidesSuccess_d0g0v0_Homestead" : {
        "_info" : {
            "comment" : "",
            "filledwith" : "cpp-1.3.0+commit.6e0ce939.Linux.g++",
            "lllcversion" : "Version: 0.4.18-develop.2017.9.25+commit.a72237f2.Linux.g++",
            "source" : "src/BlockchainTestsFiller/GeneralStateTests/stTransactionTest/SuicidesAndInternlCallSuicidesSuccess_d0g0v0Filler.json",
            "sourceHash" : "69f8c532f0d04173019ca1126362c69568a876ed3a8eb4132f122895ce1bcc7b"
        },
        "blocks" : [
            {
                "blockHeader" : {
                    "bloom" : "0x00000000000000000000000000000000000000000000000000000000000000000000000000000000000000000000000000000000000000000000000000000000000000000000000000000000000000000000000000000000000000000000000000000000000000000000000000000000000000000000000000000000000000000000000000000000000000000000000000000000000000000000000000000000000000000000000000000000000000000000000000000000000000000000000000000000000000000000000000000000000000000000000000000000000000000000000000000000000000000000000000000000000000000000000000000000",
                    "coinbase" : "0xb94f5374fce5edbc8e2a8697c15331677e6ebf0b",
                    "difficulty" : "0x020000",
                    "extraData" : "",
                    "gasLimit" : "0x989680",
                    "gasUsed" : "0x36be",
                    "hash" : "0x78680524a59aac44e2f9f8be70bcc6b9593518a51e309135aae8a71201a71b81",
                    "mixHash" : "0xc318e4bf0434e314e7f3fe890a1e5853a8c0901b833342d181cd426763f30bab",
                    "nonce" : "0x9b993a35b2b36577",
                    "number" : "0x01",
                    "parentHash" : "0xcbfc8296a05acb65da6b02355a83d0314d6fc330ba1c6e5dfc7c430bd0a11b20",
                    "receiptTrie" : "0x27cc8c6eb49b3129c8c61c4b66b0d0750a598c72bd325b3bbc77155497cfa8eb",
                    "stateRoot" : "0xcaf53bf26700e4609de711b8d45f5ff5810ebf8dbdcc6ec949bb98aa3a691424",
                    "timestamp" : "0x03e8",
                    "transactionsTrie" : "0x24bde6e3c80a3d190bff24a4adacd0f9517242bf4fd0f8c3efd766ae2ec9a88f",
                    "uncleHash" : "0x1dcc4de8dec75d7aab85b567b6ccd41ad312451b948a7413f0a142fd40d49347"
                },
                "rlp" : "0xf9027ff901f7a0cbfc8296a05acb65da6b02355a83d0314d6fc330ba1c6e5dfc7c430bd0a11b20a01dcc4de8dec75d7aab85b567b6ccd41ad312451b948a7413f0a142fd40d4934794b94f5374fce5edbc8e2a8697c15331677e6ebf0ba0caf53bf26700e4609de711b8d45f5ff5810ebf8dbdcc6ec949bb98aa3a691424a024bde6e3c80a3d190bff24a4adacd0f9517242bf4fd0f8c3efd766ae2ec9a88fa027cc8c6eb49b3129c8c61c4b66b0d0750a598c72bd325b3bbc77155497cfa8ebb90100000000000000000000000000000000000000000000000000000000000000000000000000000000000000000000000000000000000000000000000000000000000000000000000000000000000000000000000000000000000000000000000000000000000000000000000000000000000000000000000000000000000000000000000000000000000000000000000000000000000000000000000000000000000000000000000000000000000000000000000000000000000000000000000000000000000000000000000000000000000000000000000000000000000000000000000000000000000000000000000000000000000000000000000000000000008302000001839896808236be8203e880a0c318e4bf0434e314e7f3fe890a1e5853a8c0901b833342d181cd426763f30bab889b993a35b2b36577f882f8808001830249f094c94f5374fce5edbc8e2a8697c15331677e6ebf0b0aa000000000000000000000000000000000000000000000000000000000000055f01ba04e64e95f563f664980d5e9640c45e6d521997c02b7c0e3872142092a44ed31e4a025faaf4bcb2b7d3a896f9c5902afef5959f67ff021c27e116ba20ded8cc55b79c0",
                "transactions" : [
                    {
                        "data" : "0x00000000000000000000000000000000000000000000000000000000000055f0",
                        "gasLimit" : "0x0249f0",
                        "gasPrice" : "0x01",
                        "nonce" : "0x00",
                        "r" : "0x4e64e95f563f664980d5e9640c45e6d521997c02b7c0e3872142092a44ed31e4",
                        "s" : "0x25faaf4bcb2b7d3a896f9c5902afef5959f67ff021c27e116ba20ded8cc55b79",
                        "to" : "0xc94f5374fce5edbc8e2a8697c15331677e6ebf0b",
                        "v" : "0x1b",
                        "value" : "0x0a"
                    }
                ],
                "uncleHeaders" : [
                ]
            }
        ],
        "genesisBlockHeader" : {
            "bloom" : "0x00000000000000000000000000000000000000000000000000000000000000000000000000000000000000000000000000000000000000000000000000000000000000000000000000000000000000000000000000000000000000000000000000000000000000000000000000000000000000000000000000000000000000000000000000000000000000000000000000000000000000000000000000000000000000000000000000000000000000000000000000000000000000000000000000000000000000000000000000000000000000000000000000000000000000000000000000000000000000000000000000000000000000000000000000000000",
            "coinbase" : "0xb94f5374fce5edbc8e2a8697c15331677e6ebf0b",
            "difficulty" : "0x020000",
            "extraData" : "0x42",
            "gasLimit" : "0x989680",
            "gasUsed" : "0x00",
            "hash" : "0xcbfc8296a05acb65da6b02355a83d0314d6fc330ba1c6e5dfc7c430bd0a11b20",
            "mixHash" : "0x56e81f171bcc55a6ff8345e692c0f86e5b48e01b996cadc001622fb5e363b421",
            "nonce" : "0x0102030405060708",
            "number" : "0x00",
            "parentHash" : "0x0000000000000000000000000000000000000000000000000000000000000000",
            "receiptTrie" : "0x56e81f171bcc55a6ff8345e692c0f86e5b48e01b996cadc001622fb5e363b421",
            "stateRoot" : "0x332038ba5f3f0d8a215cb6603b7682f60838cd1ba4f68a6a216f884da8cb5a16",
            "timestamp" : "0x03b6",
            "transactionsTrie" : "0x56e81f171bcc55a6ff8345e692c0f86e5b48e01b996cadc001622fb5e363b421",
            "uncleHash" : "0x1dcc4de8dec75d7aab85b567b6ccd41ad312451b948a7413f0a142fd40d49347"
        },
        "genesisRLP" : "0xf901faf901f5a00000000000000000000000000000000000000000000000000000000000000000a01dcc4de8dec75d7aab85b567b6ccd41ad312451b948a7413f0a142fd40d4934794b94f5374fce5edbc8e2a8697c15331677e6ebf0ba0332038ba5f3f0d8a215cb6603b7682f60838cd1ba4f68a6a216f884da8cb5a16a056e81f171bcc55a6ff8345e692c0f86e5b48e01b996cadc001622fb5e363b421a056e81f171bcc55a6ff8345e692c0f86e5b48e01b996cadc001622fb5e363b421b9010000000000000000000000000000000000000000000000000000000000000000000000000000000000000000000000000000000000000000000000000000000000000000000000000000000000000000000000000000000000000000000000000000000000000000000000000000000000000000000000000000000000000000000000000000000000000000000000000000000000000000000000000000000000000000000000000000000000000000000000000000000000000000000000000000000000000000000000000000000000000000000000000000000000000000000000000000000000000000000000000000000000000000000000000000000000830200008083989680808203b642a056e81f171bcc55a6ff8345e692c0f86e5b48e01b996cadc001622fb5e363b421880102030405060708c0c0",
        "lastblockhash" : "0x78680524a59aac44e2f9f8be70bcc6b9593518a51e309135aae8a71201a71b81",
        "network" : "Homestead",
        "postState" : {
            "0x0000000000000000000000000000000000000001" : {
                "balance" : "0x01",
                "code" : "",
                "nonce" : "0x00",
                "storage" : {
                }
            },
            "0xa94f5374fce5edbc8e2a8697c15331677e6ebf0b" : {
                "balance" : "0x028858",
                "code" : "",
                "nonce" : "0x01",
                "storage" : {
                }
            },
            "0xb94f5374fce5edbc8e2a8697c15331677e6ebf0b" : {
                "balance" : "0x4563918244f436be",
                "code" : "",
                "nonce" : "0x00",
                "storage" : {
                }
            }
        },
        "pre" : {
            "0x0000000000000000000000000000000000000000" : {
                "balance" : "0x00",
                "code" : "0x6001ff",
                "nonce" : "0x00",
                "storage" : {
                }
            },
            "0xa94f5374fce5edbc8e2a8697c15331677e6ebf0b" : {
                "balance" : "0x02bf20",
                "code" : "",
                "nonce" : "0x00",
                "storage" : {
                }
            },
            "0xc94f5374fce5edbc8e2a8697c15331677e6ebf0b" : {
                "balance" : "0x03e8",
                "code" : "0x600060006000600060016000600035f1506000ff",
                "nonce" : "0x00",
                "storage" : {
                }
            }
        }
    }
}