{
    "TransactionFromCoinbaseNotEnoughFounds_d0g0v0_Byzantium" : {
        "_info" : {
            "comment" : "",
            "filledwith" : "cpp-1.3.0+commit.6e0ce939.Linux.g++",
            "lllcversion" : "Version: 0.4.18-develop.2017.9.25+commit.a72237f2.Linux.g++",
            "source" : "src/BlockchainTestsFiller/GeneralStateTests/stTransactionTest/TransactionFromCoinbaseNotEnoughFounds_d0g0v0Filler.json",
            "sourceHash" : "cbb00ffc4188a2a532647ff0a7a00e8bff0cae923795c9367cc1da7be652c34b"
        },
        "blocks" : [
            {
                "blockHeader" : {
                    "bloom" : "0x00000000000000000000000000000000000000000000000000000000000000000000000000000000000000000000000000000000000000000000000000000000000000000000000000000000000000000000000000000000000000000000000000000000000000000000000000000000000000000000000000000000000000000000000000000000000000000000000000000000000000000000000000000000000000000000000000000000000000000000000000000000000000000000000000000000000000000000000000000000000000000000000000000000000000000000000000000000000000000000000000000000000000000000000000000000",
                    "coinbase" : "0xa94f5374fce5edbc8e2a8697c15331677e6ebf0b",
                    "difficulty" : "0x020000",
                    "extraData" : "",
                    "gasLimit" : "0x01adb0",
                    "gasUsed" : "0x00",
                    "hash" : "0x9a5cb8025faf1f29f383f763bbd9c25dc7f9ab5761a45c00dc8b46c70cc5b6ac",
                    "mixHash" : "0x005abb45af15ef148566a212585742c94848248074e1e7b313754a72aee849cc",
                    "nonce" : "0xced6bb299f0fcbe3",
                    "number" : "0x01",
                    "parentHash" : "0x5534cbb1b6b4b79ddd5cf6ff97946765a48330c6ce4975159d4854d0637662db",
                    "receiptTrie" : "0x56e81f171bcc55a6ff8345e692c0f86e5b48e01b996cadc001622fb5e363b421",
                    "stateRoot" : "0x768709fcb2f7363588e934bf0ceedbb195e3d23908b5a42c387f1c86a1a67fe7",
                    "timestamp" : "0x03e8",
                    "transactionsTrie" : "0x56e81f171bcc55a6ff8345e692c0f86e5b48e01b996cadc001622fb5e363b421",
                    "uncleHash" : "0x1dcc4de8dec75d7aab85b567b6ccd41ad312451b948a7413f0a142fd40d49347"
                },
                "rlp" : "0xf901faf901f5a05534cbb1b6b4b79ddd5cf6ff97946765a48330c6ce4975159d4854d0637662dba01dcc4de8dec75d7aab85b567b6ccd41ad312451b948a7413f0a142fd40d4934794a94f5374fce5edbc8e2a8697c15331677e6ebf0ba0768709fcb2f7363588e934bf0ceedbb195e3d23908b5a42c387f1c86a1a67fe7a056e81f171bcc55a6ff8345e692c0f86e5b48e01b996cadc001622fb5e363b421a056e81f171bcc55a6ff8345e692c0f86e5b48e01b996cadc001622fb5e363b421b901000000000000000000000000000000000000000000000000000000000000000000000000000000000000000000000000000000000000000000000000000000000000000000000000000000000000000000000000000000000000000000000000000000000000000000000000000000000000000000000000000000000000000000000000000000000000000000000000000000000000000000000000000000000000000000000000000000000000000000000000000000000000000000000000000000000000000000000000000000000000000000000000000000000000000000000000000000000000000000000000000000000000000000000000000000000083020000018301adb0808203e880a0005abb45af15ef148566a212585742c94848248074e1e7b313754a72aee849cc88ced6bb299f0fcbe3c0c0",
                "transactions" : [
                ],
                "uncleHeaders" : [
                ]
            }
        ],
        "genesisBlockHeader" : {
            "bloom" : "0x00000000000000000000000000000000000000000000000000000000000000000000000000000000000000000000000000000000000000000000000000000000000000000000000000000000000000000000000000000000000000000000000000000000000000000000000000000000000000000000000000000000000000000000000000000000000000000000000000000000000000000000000000000000000000000000000000000000000000000000000000000000000000000000000000000000000000000000000000000000000000000000000000000000000000000000000000000000000000000000000000000000000000000000000000000000",
            "coinbase" : "0xa94f5374fce5edbc8e2a8697c15331677e6ebf0b",
            "difficulty" : "0x020000",
            "extraData" : "0x42",
            "gasLimit" : "0x01adb0",
            "gasUsed" : "0x00",
            "hash" : "0x5534cbb1b6b4b79ddd5cf6ff97946765a48330c6ce4975159d4854d0637662db",
            "mixHash" : "0x56e81f171bcc55a6ff8345e692c0f86e5b48e01b996cadc001622fb5e363b421",
            "nonce" : "0x0102030405060708",
            "number" : "0x00",
            "parentHash" : "0x0000000000000000000000000000000000000000000000000000000000000000",
            "receiptTrie" : "0x56e81f171bcc55a6ff8345e692c0f86e5b48e01b996cadc001622fb5e363b421",
            "stateRoot" : "0xaaf022c10376f6d4542ba13ab000910f5aea0ea458395b8f074a64006f6e1ec2",
            "timestamp" : "0x03b6",
            "transactionsTrie" : "0x56e81f171bcc55a6ff8345e692c0f86e5b48e01b996cadc001622fb5e363b421",
            "uncleHash" : "0x1dcc4de8dec75d7aab85b567b6ccd41ad312451b948a7413f0a142fd40d49347"
        },
        "genesisRLP" : "0xf901faf901f5a00000000000000000000000000000000000000000000000000000000000000000a01dcc4de8dec75d7aab85b567b6ccd41ad312451b948a7413f0a142fd40d4934794a94f5374fce5edbc8e2a8697c15331677e6ebf0ba0aaf022c10376f6d4542ba13ab000910f5aea0ea458395b8f074a64006f6e1ec2a056e81f171bcc55a6ff8345e692c0f86e5b48e01b996cadc001622fb5e363b421a056e81f171bcc55a6ff8345e692c0f86e5b48e01b996cadc001622fb5e363b421b901000000000000000000000000000000000000000000000000000000000000000000000000000000000000000000000000000000000000000000000000000000000000000000000000000000000000000000000000000000000000000000000000000000000000000000000000000000000000000000000000000000000000000000000000000000000000000000000000000000000000000000000000000000000000000000000000000000000000000000000000000000000000000000000000000000000000000000000000000000000000000000000000000000000000000000000000000000000000000000000000000000000000000000000000000000000083020000808301adb0808203b642a056e81f171bcc55a6ff8345e692c0f86e5b48e01b996cadc001622fb5e363b421880102030405060708c0c0",
        "lastblockhash" : "0x9a5cb8025faf1f29f383f763bbd9c25dc7f9ab5761a45c00dc8b46c70cc5b6ac",
        "network" : "Byzantium",
        "postState" : {
            "0xa94f5374fce5edbc8e2a8697c15331677e6ebf0b" : {
                "balance" : "0x29a2241af62c55f0",
                "code" : "",
                "nonce" : "0x00",
                "storage" : {
                }
            }
        },
        "pre" : {
            "0xa94f5374fce5edbc8e2a8697c15331677e6ebf0b" : {
                "balance" : "0x55f0",
                "code" : "",
                "nonce" : "0x00",
                "storage" : {
                }
            }
        }
    },
    "TransactionFromCoinbaseNotEnoughFounds_d0g0v0_EIP150" : {
        "_info" : {
            "comment" : "",
            "filledwith" : "cpp-1.3.0+commit.6e0ce939.Linux.g++",
            "lllcversion" : "Version: 0.4.18-develop.2017.9.25+commit.a72237f2.Linux.g++",
            "source" : "src/BlockchainTestsFiller/GeneralStateTests/stTransactionTest/TransactionFromCoinbaseNotEnoughFounds_d0g0v0Filler.json",
            "sourceHash" : "cbb00ffc4188a2a532647ff0a7a00e8bff0cae923795c9367cc1da7be652c34b"
        },
        "blocks" : [
            {
                "blockHeader" : {
                    "bloom" : "0x00000000000000000000000000000000000000000000000000000000000000000000000000000000000000000000000000000000000000000000000000000000000000000000000000000000000000000000000000000000000000000000000000000000000000000000000000000000000000000000000000000000000000000000000000000000000000000000000000000000000000000000000000000000000000000000000000000000000000000000000000000000000000000000000000000000000000000000000000000000000000000000000000000000000000000000000000000000000000000000000000000000000000000000000000000000",
                    "coinbase" : "0xa94f5374fce5edbc8e2a8697c15331677e6ebf0b",
                    "difficulty" : "0x020000",
                    "extraData" : "",
                    "gasLimit" : "0x01adb0",
                    "gasUsed" : "0x00",
                    "hash" : "0xcd60e3677de71909d3d1612b7decb0accbf84872f6e3a746c6613c449aad68b2",
                    "mixHash" : "0xb56831f67f39818f4a06361c2bcfed81cd3400740a597d8cfe700060c9663fc3",
                    "nonce" : "0x0540b6bd50944b9c",
                    "number" : "0x01",
                    "parentHash" : "0x5534cbb1b6b4b79ddd5cf6ff97946765a48330c6ce4975159d4854d0637662db",
                    "receiptTrie" : "0x56e81f171bcc55a6ff8345e692c0f86e5b48e01b996cadc001622fb5e363b421",
                    "stateRoot" : "0xe0792f1eb4cf1fb871e4a630ff720eed960c7ec7dceabc695006c026b98ba105",
                    "timestamp" : "0x03e8",
                    "transactionsTrie" : "0x56e81f171bcc55a6ff8345e692c0f86e5b48e01b996cadc001622fb5e363b421",
                    "uncleHash" : "0x1dcc4de8dec75d7aab85b567b6ccd41ad312451b948a7413f0a142fd40d49347"
                },
                "rlp" : "0xf901faf901f5a05534cbb1b6b4b79ddd5cf6ff97946765a48330c6ce4975159d4854d0637662dba01dcc4de8dec75d7aab85b567b6ccd41ad312451b948a7413f0a142fd40d4934794a94f5374fce5edbc8e2a8697c15331677e6ebf0ba0e0792f1eb4cf1fb871e4a630ff720eed960c7ec7dceabc695006c026b98ba105a056e81f171bcc55a6ff8345e692c0f86e5b48e01b996cadc001622fb5e363b421a056e81f171bcc55a6ff8345e692c0f86e5b48e01b996cadc001622fb5e363b421b901000000000000000000000000000000000000000000000000000000000000000000000000000000000000000000000000000000000000000000000000000000000000000000000000000000000000000000000000000000000000000000000000000000000000000000000000000000000000000000000000000000000000000000000000000000000000000000000000000000000000000000000000000000000000000000000000000000000000000000000000000000000000000000000000000000000000000000000000000000000000000000000000000000000000000000000000000000000000000000000000000000000000000000000000000000000083020000018301adb0808203e880a0b56831f67f39818f4a06361c2bcfed81cd3400740a597d8cfe700060c9663fc3880540b6bd50944b9cc0c0",
                "transactions" : [
                ],
                "uncleHeaders" : [
                ]
            }
        ],
        "genesisBlockHeader" : {
            "bloom" : "0x00000000000000000000000000000000000000000000000000000000000000000000000000000000000000000000000000000000000000000000000000000000000000000000000000000000000000000000000000000000000000000000000000000000000000000000000000000000000000000000000000000000000000000000000000000000000000000000000000000000000000000000000000000000000000000000000000000000000000000000000000000000000000000000000000000000000000000000000000000000000000000000000000000000000000000000000000000000000000000000000000000000000000000000000000000000",
            "coinbase" : "0xa94f5374fce5edbc8e2a8697c15331677e6ebf0b",
            "difficulty" : "0x020000",
            "extraData" : "0x42",
            "gasLimit" : "0x01adb0",
            "gasUsed" : "0x00",
            "hash" : "0x5534cbb1b6b4b79ddd5cf6ff97946765a48330c6ce4975159d4854d0637662db",
            "mixHash" : "0x56e81f171bcc55a6ff8345e692c0f86e5b48e01b996cadc001622fb5e363b421",
            "nonce" : "0x0102030405060708",
            "number" : "0x00",
            "parentHash" : "0x0000000000000000000000000000000000000000000000000000000000000000",
            "receiptTrie" : "0x56e81f171bcc55a6ff8345e692c0f86e5b48e01b996cadc001622fb5e363b421",
            "stateRoot" : "0xaaf022c10376f6d4542ba13ab000910f5aea0ea458395b8f074a64006f6e1ec2",
            "timestamp" : "0x03b6",
            "transactionsTrie" : "0x56e81f171bcc55a6ff8345e692c0f86e5b48e01b996cadc001622fb5e363b421",
            "uncleHash" : "0x1dcc4de8dec75d7aab85b567b6ccd41ad312451b948a7413f0a142fd40d49347"
        },
        "genesisRLP" : "0xf901faf901f5a00000000000000000000000000000000000000000000000000000000000000000a01dcc4de8dec75d7aab85b567b6ccd41ad312451b948a7413f0a142fd40d4934794a94f5374fce5edbc8e2a8697c15331677e6ebf0ba0aaf022c10376f6d4542ba13ab000910f5aea0ea458395b8f074a64006f6e1ec2a056e81f171bcc55a6ff8345e692c0f86e5b48e01b996cadc001622fb5e363b421a056e81f171bcc55a6ff8345e692c0f86e5b48e01b996cadc001622fb5e363b421b901000000000000000000000000000000000000000000000000000000000000000000000000000000000000000000000000000000000000000000000000000000000000000000000000000000000000000000000000000000000000000000000000000000000000000000000000000000000000000000000000000000000000000000000000000000000000000000000000000000000000000000000000000000000000000000000000000000000000000000000000000000000000000000000000000000000000000000000000000000000000000000000000000000000000000000000000000000000000000000000000000000000000000000000000000000000083020000808301adb0808203b642a056e81f171bcc55a6ff8345e692c0f86e5b48e01b996cadc001622fb5e363b421880102030405060708c0c0",
        "lastblockhash" : "0xcd60e3677de71909d3d1612b7decb0accbf84872f6e3a746c6613c449aad68b2",
        "network" : "EIP150",
        "postState" : {
            "0xa94f5374fce5edbc8e2a8697c15331677e6ebf0b" : {
                "balance" : "0x4563918244f455f0",
                "code" : "",
                "nonce" : "0x00",
                "storage" : {
                }
            }
        },
        "pre" : {
            "0xa94f5374fce5edbc8e2a8697c15331677e6ebf0b" : {
                "balance" : "0x55f0",
                "code" : "",
                "nonce" : "0x00",
                "storage" : {
                }
            }
        }
    },
    "TransactionFromCoinbaseNotEnoughFounds_d0g0v0_EIP158" : {
        "_info" : {
            "comment" : "",
            "filledwith" : "cpp-1.3.0+commit.6e0ce939.Linux.g++",
            "lllcversion" : "Version: 0.4.18-develop.2017.9.25+commit.a72237f2.Linux.g++",
            "source" : "src/BlockchainTestsFiller/GeneralStateTests/stTransactionTest/TransactionFromCoinbaseNotEnoughFounds_d0g0v0Filler.json",
            "sourceHash" : "cbb00ffc4188a2a532647ff0a7a00e8bff0cae923795c9367cc1da7be652c34b"
        },
        "blocks" : [
            {
                "blockHeader" : {
                    "bloom" : "0x00000000000000000000000000000000000000000000000000000000000000000000000000000000000000000000000000000000000000000000000000000000000000000000000000000000000000000000000000000000000000000000000000000000000000000000000000000000000000000000000000000000000000000000000000000000000000000000000000000000000000000000000000000000000000000000000000000000000000000000000000000000000000000000000000000000000000000000000000000000000000000000000000000000000000000000000000000000000000000000000000000000000000000000000000000000",
                    "coinbase" : "0xa94f5374fce5edbc8e2a8697c15331677e6ebf0b",
                    "difficulty" : "0x020000",
                    "extraData" : "",
                    "gasLimit" : "0x01adb0",
                    "gasUsed" : "0x00",
                    "hash" : "0x311c4a166e44bf4558ebb587087209014cd456f10cc4d6f37f5daf8af96ff32a",
                    "mixHash" : "0x18558271ae4b10ce6e6c1a9cd33ce4ae0b39f53838439fcaa5520234a215bccb",
                    "nonce" : "0x29871be6c674d90d",
                    "number" : "0x01",
                    "parentHash" : "0x5534cbb1b6b4b79ddd5cf6ff97946765a48330c6ce4975159d4854d0637662db",
                    "receiptTrie" : "0x56e81f171bcc55a6ff8345e692c0f86e5b48e01b996cadc001622fb5e363b421",
                    "stateRoot" : "0xe0792f1eb4cf1fb871e4a630ff720eed960c7ec7dceabc695006c026b98ba105",
                    "timestamp" : "0x03e8",
                    "transactionsTrie" : "0x56e81f171bcc55a6ff8345e692c0f86e5b48e01b996cadc001622fb5e363b421",
                    "uncleHash" : "0x1dcc4de8dec75d7aab85b567b6ccd41ad312451b948a7413f0a142fd40d49347"
                },
                "rlp" : "0xf901faf901f5a05534cbb1b6b4b79ddd5cf6ff97946765a48330c6ce4975159d4854d0637662dba01dcc4de8dec75d7aab85b567b6ccd41ad312451b948a7413f0a142fd40d4934794a94f5374fce5edbc8e2a8697c15331677e6ebf0ba0e0792f1eb4cf1fb871e4a630ff720eed960c7ec7dceabc695006c026b98ba105a056e81f171bcc55a6ff8345e692c0f86e5b48e01b996cadc001622fb5e363b421a056e81f171bcc55a6ff8345e692c0f86e5b48e01b996cadc001622fb5e363b421b901000000000000000000000000000000000000000000000000000000000000000000000000000000000000000000000000000000000000000000000000000000000000000000000000000000000000000000000000000000000000000000000000000000000000000000000000000000000000000000000000000000000000000000000000000000000000000000000000000000000000000000000000000000000000000000000000000000000000000000000000000000000000000000000000000000000000000000000000000000000000000000000000000000000000000000000000000000000000000000000000000000000000000000000000000000000083020000018301adb0808203e880a018558271ae4b10ce6e6c1a9cd33ce4ae0b39f53838439fcaa5520234a215bccb8829871be6c674d90dc0c0",
                "transactions" : [
                ],
                "uncleHeaders" : [
                ]
            }
        ],
        "genesisBlockHeader" : {
            "bloom" : "0x00000000000000000000000000000000000000000000000000000000000000000000000000000000000000000000000000000000000000000000000000000000000000000000000000000000000000000000000000000000000000000000000000000000000000000000000000000000000000000000000000000000000000000000000000000000000000000000000000000000000000000000000000000000000000000000000000000000000000000000000000000000000000000000000000000000000000000000000000000000000000000000000000000000000000000000000000000000000000000000000000000000000000000000000000000000",
            "coinbase" : "0xa94f5374fce5edbc8e2a8697c15331677e6ebf0b",
            "difficulty" : "0x020000",
            "extraData" : "0x42",
            "gasLimit" : "0x01adb0",
            "gasUsed" : "0x00",
            "hash" : "0x5534cbb1b6b4b79ddd5cf6ff97946765a48330c6ce4975159d4854d0637662db",
            "mixHash" : "0x56e81f171bcc55a6ff8345e692c0f86e5b48e01b996cadc001622fb5e363b421",
            "nonce" : "0x0102030405060708",
            "number" : "0x00",
            "parentHash" : "0x0000000000000000000000000000000000000000000000000000000000000000",
            "receiptTrie" : "0x56e81f171bcc55a6ff8345e692c0f86e5b48e01b996cadc001622fb5e363b421",
            "stateRoot" : "0xaaf022c10376f6d4542ba13ab000910f5aea0ea458395b8f074a64006f6e1ec2",
            "timestamp" : "0x03b6",
            "transactionsTrie" : "0x56e81f171bcc55a6ff8345e692c0f86e5b48e01b996cadc001622fb5e363b421",
            "uncleHash" : "0x1dcc4de8dec75d7aab85b567b6ccd41ad312451b948a7413f0a142fd40d49347"
        },
        "genesisRLP" : "0xf901faf901f5a00000000000000000000000000000000000000000000000000000000000000000a01dcc4de8dec75d7aab85b567b6ccd41ad312451b948a7413f0a142fd40d4934794a94f5374fce5edbc8e2a8697c15331677e6ebf0ba0aaf022c10376f6d4542ba13ab000910f5aea0ea458395b8f074a64006f6e1ec2a056e81f171bcc55a6ff8345e692c0f86e5b48e01b996cadc001622fb5e363b421a056e81f171bcc55a6ff8345e692c0f86e5b48e01b996cadc001622fb5e363b421b901000000000000000000000000000000000000000000000000000000000000000000000000000000000000000000000000000000000000000000000000000000000000000000000000000000000000000000000000000000000000000000000000000000000000000000000000000000000000000000000000000000000000000000000000000000000000000000000000000000000000000000000000000000000000000000000000000000000000000000000000000000000000000000000000000000000000000000000000000000000000000000000000000000000000000000000000000000000000000000000000000000000000000000000000000000000083020000808301adb0808203b642a056e81f171bcc55a6ff8345e692c0f86e5b48e01b996cadc001622fb5e363b421880102030405060708c0c0",
        "lastblockhash" : "0x311c4a166e44bf4558ebb587087209014cd456f10cc4d6f37f5daf8af96ff32a",
        "network" : "EIP158",
        "postState" : {
            "0xa94f5374fce5edbc8e2a8697c15331677e6ebf0b" : {
                "balance" : "0x4563918244f455f0",
                "code" : "",
                "nonce" : "0x00",
                "storage" : {
                }
            }
        },
        "pre" : {
            "0xa94f5374fce5edbc8e2a8697c15331677e6ebf0b" : {
                "balance" : "0x55f0",
                "code" : "",
                "nonce" : "0x00",
                "storage" : {
                }
            }
        }
    },
    "TransactionFromCoinbaseNotEnoughFounds_d0g0v0_Frontier" : {
        "_info" : {
            "comment" : "",
            "filledwith" : "cpp-1.3.0+commit.6e0ce939.Linux.g++",
            "lllcversion" : "Version: 0.4.18-develop.2017.9.25+commit.a72237f2.Linux.g++",
            "source" : "src/BlockchainTestsFiller/GeneralStateTests/stTransactionTest/TransactionFromCoinbaseNotEnoughFounds_d0g0v0Filler.json",
            "sourceHash" : "cbb00ffc4188a2a532647ff0a7a00e8bff0cae923795c9367cc1da7be652c34b"
        },
        "blocks" : [
            {
                "blockHeader" : {
                    "bloom" : "0x00000000000000000000000000000000000000000000000000000000000000000000000000000000000000000000000000000000000000000000000000000000000000000000000000000000000000000000000000000000000000000000000000000000000000000000000000000000000000000000000000000000000000000000000000000000000000000000000000000000000000000000000000000000000000000000000000000000000000000000000000000000000000000000000000000000000000000000000000000000000000000000000000000000000000000000000000000000000000000000000000000000000000000000000000000000",
                    "coinbase" : "0xa94f5374fce5edbc8e2a8697c15331677e6ebf0b",
                    "difficulty" : "0x020000",
                    "extraData" : "",
                    "gasLimit" : "0x01adb0",
                    "gasUsed" : "0x00",
                    "hash" : "0x60a26d449f8e79f7420f616ec2cf53352028243da239dea1344c63475e4a63d1",
                    "mixHash" : "0x6ac1fbf6d5a41b86f4a96674113d1941b9370b32a8a61f743c8bd10284865f06",
                    "nonce" : "0x4ed10b16fd0f0325",
                    "number" : "0x01",
                    "parentHash" : "0x5534cbb1b6b4b79ddd5cf6ff97946765a48330c6ce4975159d4854d0637662db",
                    "receiptTrie" : "0x56e81f171bcc55a6ff8345e692c0f86e5b48e01b996cadc001622fb5e363b421",
                    "stateRoot" : "0xe0792f1eb4cf1fb871e4a630ff720eed960c7ec7dceabc695006c026b98ba105",
                    "timestamp" : "0x03e8",
                    "transactionsTrie" : "0x56e81f171bcc55a6ff8345e692c0f86e5b48e01b996cadc001622fb5e363b421",
                    "uncleHash" : "0x1dcc4de8dec75d7aab85b567b6ccd41ad312451b948a7413f0a142fd40d49347"
                },
                "rlp" : "0xf901faf901f5a05534cbb1b6b4b79ddd5cf6ff97946765a48330c6ce4975159d4854d0637662dba01dcc4de8dec75d7aab85b567b6ccd41ad312451b948a7413f0a142fd40d4934794a94f5374fce5edbc8e2a8697c15331677e6ebf0ba0e0792f1eb4cf1fb871e4a630ff720eed960c7ec7dceabc695006c026b98ba105a056e81f171bcc55a6ff8345e692c0f86e5b48e01b996cadc001622fb5e363b421a056e81f171bcc55a6ff8345e692c0f86e5b48e01b996cadc001622fb5e363b421b901000000000000000000000000000000000000000000000000000000000000000000000000000000000000000000000000000000000000000000000000000000000000000000000000000000000000000000000000000000000000000000000000000000000000000000000000000000000000000000000000000000000000000000000000000000000000000000000000000000000000000000000000000000000000000000000000000000000000000000000000000000000000000000000000000000000000000000000000000000000000000000000000000000000000000000000000000000000000000000000000000000000000000000000000000000000083020000018301adb0808203e880a06ac1fbf6d5a41b86f4a96674113d1941b9370b32a8a61f743c8bd10284865f06884ed10b16fd0f0325c0c0",
                "transactions" : [
                ],
                "uncleHeaders" : [
                ]
            }
        ],
        "genesisBlockHeader" : {
            "bloom" : "0x00000000000000000000000000000000000000000000000000000000000000000000000000000000000000000000000000000000000000000000000000000000000000000000000000000000000000000000000000000000000000000000000000000000000000000000000000000000000000000000000000000000000000000000000000000000000000000000000000000000000000000000000000000000000000000000000000000000000000000000000000000000000000000000000000000000000000000000000000000000000000000000000000000000000000000000000000000000000000000000000000000000000000000000000000000000",
            "coinbase" : "0xa94f5374fce5edbc8e2a8697c15331677e6ebf0b",
            "difficulty" : "0x020000",
            "extraData" : "0x42",
            "gasLimit" : "0x01adb0",
            "gasUsed" : "0x00",
            "hash" : "0x5534cbb1b6b4b79ddd5cf6ff97946765a48330c6ce4975159d4854d0637662db",
            "mixHash" : "0x56e81f171bcc55a6ff8345e692c0f86e5b48e01b996cadc001622fb5e363b421",
            "nonce" : "0x0102030405060708",
            "number" : "0x00",
            "parentHash" : "0x0000000000000000000000000000000000000000000000000000000000000000",
            "receiptTrie" : "0x56e81f171bcc55a6ff8345e692c0f86e5b48e01b996cadc001622fb5e363b421",
            "stateRoot" : "0xaaf022c10376f6d4542ba13ab000910f5aea0ea458395b8f074a64006f6e1ec2",
            "timestamp" : "0x03b6",
            "transactionsTrie" : "0x56e81f171bcc55a6ff8345e692c0f86e5b48e01b996cadc001622fb5e363b421",
            "uncleHash" : "0x1dcc4de8dec75d7aab85b567b6ccd41ad312451b948a7413f0a142fd40d49347"
        },
        "genesisRLP" : "0xf901faf901f5a00000000000000000000000000000000000000000000000000000000000000000a01dcc4de8dec75d7aab85b567b6ccd41ad312451b948a7413f0a142fd40d4934794a94f5374fce5edbc8e2a8697c15331677e6ebf0ba0aaf022c10376f6d4542ba13ab000910f5aea0ea458395b8f074a64006f6e1ec2a056e81f171bcc55a6ff8345e692c0f86e5b48e01b996cadc001622fb5e363b421a056e81f171bcc55a6ff8345e692c0f86e5b48e01b996cadc001622fb5e363b421b901000000000000000000000000000000000000000000000000000000000000000000000000000000000000000000000000000000000000000000000000000000000000000000000000000000000000000000000000000000000000000000000000000000000000000000000000000000000000000000000000000000000000000000000000000000000000000000000000000000000000000000000000000000000000000000000000000000000000000000000000000000000000000000000000000000000000000000000000000000000000000000000000000000000000000000000000000000000000000000000000000000000000000000000000000000000083020000808301adb0808203b642a056e81f171bcc55a6ff8345e692c0f86e5b48e01b996cadc001622fb5e363b421880102030405060708c0c0",
        "lastblockhash" : "0x60a26d449f8e79f7420f616ec2cf53352028243da239dea1344c63475e4a63d1",
        "network" : "Frontier",
        "postState" : {
            "0xa94f5374fce5edbc8e2a8697c15331677e6ebf0b" : {
                "balance" : "0x4563918244f455f0",
                "code" : "",
                "nonce" : "0x00",
                "storage" : {
                }
            }
        },
        "pre" : {
            "0xa94f5374fce5edbc8e2a8697c15331677e6ebf0b" : {
                "balance" : "0x55f0",
                "code" : "",
                "nonce" : "0x00",
                "storage" : {
                }
            }
        }
    },
    "TransactionFromCoinbaseNotEnoughFounds_d0g0v0_Homestead" : {
        "_info" : {
            "comment" : "",
            "filledwith" : "cpp-1.3.0+commit.6e0ce939.Linux.g++",
            "lllcversion" : "Version: 0.4.18-develop.2017.9.25+commit.a72237f2.Linux.g++",
            "source" : "src/BlockchainTestsFiller/GeneralStateTests/stTransactionTest/TransactionFromCoinbaseNotEnoughFounds_d0g0v0Filler.json",
            "sourceHash" : "cbb00ffc4188a2a532647ff0a7a00e8bff0cae923795c9367cc1da7be652c34b"
        },
        "blocks" : [
            {
                "blockHeader" : {
                    "bloom" : "0x00000000000000000000000000000000000000000000000000000000000000000000000000000000000000000000000000000000000000000000000000000000000000000000000000000000000000000000000000000000000000000000000000000000000000000000000000000000000000000000000000000000000000000000000000000000000000000000000000000000000000000000000000000000000000000000000000000000000000000000000000000000000000000000000000000000000000000000000000000000000000000000000000000000000000000000000000000000000000000000000000000000000000000000000000000000",
                    "coinbase" : "0xa94f5374fce5edbc8e2a8697c15331677e6ebf0b",
                    "difficulty" : "0x020000",
                    "extraData" : "",
                    "gasLimit" : "0x01adb0",
                    "gasUsed" : "0x00",
                    "hash" : "0x83718ed588ad9c84435cb9a8caa04ef09becf80f4bcb9e6fec3b5882bebe5bcf",
                    "mixHash" : "0x1edf217d78df338e10cb338f260c85977d1eaef1e296053d9a30a7ec8acda2c4",
                    "nonce" : "0x6ef4029cd92c8e36",
                    "number" : "0x01",
                    "parentHash" : "0x5534cbb1b6b4b79ddd5cf6ff97946765a48330c6ce4975159d4854d0637662db",
                    "receiptTrie" : "0x56e81f171bcc55a6ff8345e692c0f86e5b48e01b996cadc001622fb5e363b421",
                    "stateRoot" : "0xe0792f1eb4cf1fb871e4a630ff720eed960c7ec7dceabc695006c026b98ba105",
                    "timestamp" : "0x03e8",
                    "transactionsTrie" : "0x56e81f171bcc55a6ff8345e692c0f86e5b48e01b996cadc001622fb5e363b421",
                    "uncleHash" : "0x1dcc4de8dec75d7aab85b567b6ccd41ad312451b948a7413f0a142fd40d49347"
                },
                "rlp" : "0xf901faf901f5a05534cbb1b6b4b79ddd5cf6ff97946765a48330c6ce4975159d4854d0637662dba01dcc4de8dec75d7aab85b567b6ccd41ad312451b948a7413f0a142fd40d4934794a94f5374fce5edbc8e2a8697c15331677e6ebf0ba0e0792f1eb4cf1fb871e4a630ff720eed960c7ec7dceabc695006c026b98ba105a056e81f171bcc55a6ff8345e692c0f86e5b48e01b996cadc001622fb5e363b421a056e81f171bcc55a6ff8345e692c0f86e5b48e01b996cadc001622fb5e363b421b901000000000000000000000000000000000000000000000000000000000000000000000000000000000000000000000000000000000000000000000000000000000000000000000000000000000000000000000000000000000000000000000000000000000000000000000000000000000000000000000000000000000000000000000000000000000000000000000000000000000000000000000000000000000000000000000000000000000000000000000000000000000000000000000000000000000000000000000000000000000000000000000000000000000000000000000000000000000000000000000000000000000000000000000000000000000083020000018301adb0808203e880a01edf217d78df338e10cb338f260c85977d1eaef1e296053d9a30a7ec8acda2c4886ef4029cd92c8e36c0c0",
                "transactions" : [
                ],
                "uncleHeaders" : [
                ]
            }
        ],
        "genesisBlockHeader" : {
            "bloom" : "0x00000000000000000000000000000000000000000000000000000000000000000000000000000000000000000000000000000000000000000000000000000000000000000000000000000000000000000000000000000000000000000000000000000000000000000000000000000000000000000000000000000000000000000000000000000000000000000000000000000000000000000000000000000000000000000000000000000000000000000000000000000000000000000000000000000000000000000000000000000000000000000000000000000000000000000000000000000000000000000000000000000000000000000000000000000000",
            "coinbase" : "0xa94f5374fce5edbc8e2a8697c15331677e6ebf0b",
            "difficulty" : "0x020000",
            "extraData" : "0x42",
            "gasLimit" : "0x01adb0",
            "gasUsed" : "0x00",
            "hash" : "0x5534cbb1b6b4b79ddd5cf6ff97946765a48330c6ce4975159d4854d0637662db",
            "mixHash" : "0x56e81f171bcc55a6ff8345e692c0f86e5b48e01b996cadc001622fb5e363b421",
            "nonce" : "0x0102030405060708",
            "number" : "0x00",
            "parentHash" : "0x0000000000000000000000000000000000000000000000000000000000000000",
            "receiptTrie" : "0x56e81f171bcc55a6ff8345e692c0f86e5b48e01b996cadc001622fb5e363b421",
            "stateRoot" : "0xaaf022c10376f6d4542ba13ab000910f5aea0ea458395b8f074a64006f6e1ec2",
            "timestamp" : "0x03b6",
            "transactionsTrie" : "0x56e81f171bcc55a6ff8345e692c0f86e5b48e01b996cadc001622fb5e363b421",
            "uncleHash" : "0x1dcc4de8dec75d7aab85b567b6ccd41ad312451b948a7413f0a142fd40d49347"
        },
        "genesisRLP" : "0xf901faf901f5a00000000000000000000000000000000000000000000000000000000000000000a01dcc4de8dec75d7aab85b567b6ccd41ad312451b948a7413f0a142fd40d4934794a94f5374fce5edbc8e2a8697c15331677e6ebf0ba0aaf022c10376f6d4542ba13ab000910f5aea0ea458395b8f074a64006f6e1ec2a056e81f171bcc55a6ff8345e692c0f86e5b48e01b996cadc001622fb5e363b421a056e81f171bcc55a6ff8345e692c0f86e5b48e01b996cadc001622fb5e363b421b901000000000000000000000000000000000000000000000000000000000000000000000000000000000000000000000000000000000000000000000000000000000000000000000000000000000000000000000000000000000000000000000000000000000000000000000000000000000000000000000000000000000000000000000000000000000000000000000000000000000000000000000000000000000000000000000000000000000000000000000000000000000000000000000000000000000000000000000000000000000000000000000000000000000000000000000000000000000000000000000000000000000000000000000000000000000083020000808301adb0808203b642a056e81f171bcc55a6ff8345e692c0f86e5b48e01b996cadc001622fb5e363b421880102030405060708c0c0",
        "lastblockhash" : "0x83718ed588ad9c84435cb9a8caa04ef09becf80f4bcb9e6fec3b5882bebe5bcf",
        "network" : "Homestead",
        "postState" : {
            "0xa94f5374fce5edbc8e2a8697c15331677e6ebf0b" : {
                "balance" : "0x4563918244f455f0",
                "code" : "",
                "nonce" : "0x00",
                "storage" : {
                }
            }
        },
        "pre" : {
            "0xa94f5374fce5edbc8e2a8697c15331677e6ebf0b" : {
                "balance" : "0x55f0",
                "code" : "",
                "nonce" : "0x00",
                "storage" : {
                }
            }
        }
    }
}