{
    "TransactionDataCosts652_d0g0v0_Byzantium" : {
        "_info" : {
            "comment" : "",
            "filledwith" : "cpp-1.3.0+commit.6e0ce939.Linux.g++",
            "lllcversion" : "Version: 0.4.18-develop.2017.9.25+commit.a72237f2.Linux.g++",
            "source" : "src/BlockchainTestsFiller/GeneralStateTests/stTransactionTest/TransactionDataCosts652_d0g0v0Filler.json",
            "sourceHash" : "43ddaaebeaf164cffc7291094d84b6070f293d3b9d85f9de20895d495651f26b"
        },
        "blocks" : [
            {
                "blockHeader" : {
                    "bloom" : "0x00000000000000000000000000000000000000000000000000000000000000000000000000000000000000000000000000000000000000000000000000000000000000000000000000000000000000000000000000000000000000000000000000000000000000000000000000000000000000000000000000000000000000000000000000000000000000000000000000000000000000000000000000000000000000000000000000000000000000000000000000000000000000000000000000000000000000000000000000000000000000000000000000000000000000000000000000000000000000000000000000000000000000000000000000000000",
                    "coinbase" : "0x2adc25665018aa1fe0e6bc666dac8fc2697ff9ba",
                    "difficulty" : "0x020000",
                    "extraData" : "",
                    "gasLimit" : "0x989680",
                    "gasUsed" : "0x5494",
                    "hash" : "0x4b94381375f898f04417a1ea5c3e504c0f215ba00f7d1258a782e5f0c0aba245",
                    "mixHash" : "0x5b671c8b23698e6845e3501fd8954bcafcb75150cd11aa0f98bbbf3e660748e5",
                    "nonce" : "0xf163df9a61a23d7d",
                    "number" : "0x01",
                    "parentHash" : "0xbf1ca004ba162fc114bffcd01cf3f8a5ed533ceb9a64c5bcd68fca41ebf7d077",
                    "receiptTrie" : "0xc2397710425d5aa58b9245a71d0cd878f959b20df6916d805206e6ca26e75de2",
                    "stateRoot" : "0xc8c43742a51a4369d58ad09703cf727b9cad7eaaeec20351a8573dabc6f2244a",
                    "timestamp" : "0x03e8",
                    "transactionsTrie" : "0xddacdc3071d9641efe5836dc7eb01f797eb21d9130cf91e0d48dbb555276df13",
                    "uncleHash" : "0x1dcc4de8dec75d7aab85b567b6ccd41ad312451b948a7413f0a142fd40d49347"
                },
                "rlp" : "0xf90271f901f7a0bf1ca004ba162fc114bffcd01cf3f8a5ed533ceb9a64c5bcd68fca41ebf7d077a01dcc4de8dec75d7aab85b567b6ccd41ad312451b948a7413f0a142fd40d49347942adc25665018aa1fe0e6bc666dac8fc2697ff9baa0c8c43742a51a4369d58ad09703cf727b9cad7eaaeec20351a8573dabc6f2244aa0ddacdc3071d9641efe5836dc7eb01f797eb21d9130cf91e0d48dbb555276df13a0c2397710425d5aa58b9245a71d0cd878f959b20df6916d805206e6ca26e75de2b90100000000000000000000000000000000000000000000000000000000000000000000000000000000000000000000000000000000000000000000000000000000000000000000000000000000000000000000000000000000000000000000000000000000000000000000000000000000000000000000000000000000000000000000000000000000000000000000000000000000000000000000000000000000000000000000000000000000000000000000000000000000000000000000000000000000000000000000000000000000000000000000000000000000000000000000000000000000000000000000000000000000000000000000000000000000008302000001839896808254948203e880a05b671c8b23698e6845e3501fd8954bcafcb75150cd11aa0f98bbbf3e660748e588f163df9a61a23d7df874f87280018255f094b94f5374fce5edbc8e2a8697c15331677e6ebf0b809300000000000000000000112233445566778f321ba083e3f029a0a6377275730c004d4294ecaaec9c8e27b5b760a71306b0ae96dfbfa009ac545affb9151e21047d78f59c106a4f615a1de44cc1018847ec5121a402ccc0",
                "transactions" : [
                    {
                        "data" : "0x00000000000000000000112233445566778f32",
                        "gasLimit" : "0x55f0",
                        "gasPrice" : "0x01",
                        "nonce" : "0x00",
                        "r" : "0x83e3f029a0a6377275730c004d4294ecaaec9c8e27b5b760a71306b0ae96dfbf",
                        "s" : "0x09ac545affb9151e21047d78f59c106a4f615a1de44cc1018847ec5121a402cc",
                        "to" : "0xb94f5374fce5edbc8e2a8697c15331677e6ebf0b",
                        "v" : "0x1b",
                        "value" : "0x00"
                    }
                ],
                "uncleHeaders" : [
                ]
            }
        ],
        "genesisBlockHeader" : {
            "bloom" : "0x00000000000000000000000000000000000000000000000000000000000000000000000000000000000000000000000000000000000000000000000000000000000000000000000000000000000000000000000000000000000000000000000000000000000000000000000000000000000000000000000000000000000000000000000000000000000000000000000000000000000000000000000000000000000000000000000000000000000000000000000000000000000000000000000000000000000000000000000000000000000000000000000000000000000000000000000000000000000000000000000000000000000000000000000000000000",
            "coinbase" : "0x2adc25665018aa1fe0e6bc666dac8fc2697ff9ba",
            "difficulty" : "0x020000",
            "extraData" : "0x42",
            "gasLimit" : "0x989680",
            "gasUsed" : "0x00",
            "hash" : "0xbf1ca004ba162fc114bffcd01cf3f8a5ed533ceb9a64c5bcd68fca41ebf7d077",
            "mixHash" : "0x56e81f171bcc55a6ff8345e692c0f86e5b48e01b996cadc001622fb5e363b421",
            "nonce" : "0x0102030405060708",
            "number" : "0x00",
            "parentHash" : "0x0000000000000000000000000000000000000000000000000000000000000000",
            "receiptTrie" : "0x56e81f171bcc55a6ff8345e692c0f86e5b48e01b996cadc001622fb5e363b421",
            "stateRoot" : "0xa3e1c133a5a51b03399ed9ad0380f3182e9e18322f232b816dd4b9094f871e1b",
            "timestamp" : "0x03b6",
            "transactionsTrie" : "0x56e81f171bcc55a6ff8345e692c0f86e5b48e01b996cadc001622fb5e363b421",
            "uncleHash" : "0x1dcc4de8dec75d7aab85b567b6ccd41ad312451b948a7413f0a142fd40d49347"
        },
        "genesisRLP" : "0xf901faf901f5a00000000000000000000000000000000000000000000000000000000000000000a01dcc4de8dec75d7aab85b567b6ccd41ad312451b948a7413f0a142fd40d49347942adc25665018aa1fe0e6bc666dac8fc2697ff9baa0a3e1c133a5a51b03399ed9ad0380f3182e9e18322f232b816dd4b9094f871e1ba056e81f171bcc55a6ff8345e692c0f86e5b48e01b996cadc001622fb5e363b421a056e81f171bcc55a6ff8345e692c0f86e5b48e01b996cadc001622fb5e363b421b9010000000000000000000000000000000000000000000000000000000000000000000000000000000000000000000000000000000000000000000000000000000000000000000000000000000000000000000000000000000000000000000000000000000000000000000000000000000000000000000000000000000000000000000000000000000000000000000000000000000000000000000000000000000000000000000000000000000000000000000000000000000000000000000000000000000000000000000000000000000000000000000000000000000000000000000000000000000000000000000000000000000000000000000000000000000000830200008083989680808203b642a056e81f171bcc55a6ff8345e692c0f86e5b48e01b996cadc001622fb5e363b421880102030405060708c0c0",
        "lastblockhash" : "0x4b94381375f898f04417a1ea5c3e504c0f215ba00f7d1258a782e5f0c0aba245",
        "network" : "Byzantium",
        "postState" : {
            "0x2adc25665018aa1fe0e6bc666dac8fc2697ff9ba" : {
                "balance" : "0x29a2241af62c5494",
                "code" : "",
                "nonce" : "0x00",
                "storage" : {
                }
            },
            "0xa94f5374fce5edbc8e2a8697c15331677e6ebf0b" : {
                "balance" : "0x01320c",
                "code" : "",
                "nonce" : "0x01",
                "storage" : {
                }
            }
        },
        "pre" : {
            "0xa94f5374fce5edbc8e2a8697c15331677e6ebf0b" : {
                "balance" : "0x0186a0",
                "code" : "",
                "nonce" : "0x00",
                "storage" : {
                }
            }
        }
    },
    "TransactionDataCosts652_d0g0v0_EIP150" : {
        "_info" : {
            "comment" : "",
            "filledwith" : "cpp-1.3.0+commit.6e0ce939.Linux.g++",
            "lllcversion" : "Version: 0.4.18-develop.2017.9.25+commit.a72237f2.Linux.g++",
            "source" : "src/BlockchainTestsFiller/GeneralStateTests/stTransactionTest/TransactionDataCosts652_d0g0v0Filler.json",
            "sourceHash" : "43ddaaebeaf164cffc7291094d84b6070f293d3b9d85f9de20895d495651f26b"
        },
        "blocks" : [
            {
                "blockHeader" : {
                    "bloom" : "0x00000000000000000000000000000000000000000000000000000000000000000000000000000000000000000000000000000000000000000000000000000000000000000000000000000000000000000000000000000000000000000000000000000000000000000000000000000000000000000000000000000000000000000000000000000000000000000000000000000000000000000000000000000000000000000000000000000000000000000000000000000000000000000000000000000000000000000000000000000000000000000000000000000000000000000000000000000000000000000000000000000000000000000000000000000000",
                    "coinbase" : "0x2adc25665018aa1fe0e6bc666dac8fc2697ff9ba",
                    "difficulty" : "0x020000",
                    "extraData" : "",
                    "gasLimit" : "0x989680",
                    "gasUsed" : "0x5494",
                    "hash" : "0xb394d4e13074b199e7330329ff5ec3a18999bd0513d95c6e804bababa8cc730e",
                    "mixHash" : "0x9bee2a4894b0e59f033c37e3d385edd3ca19eeac6a3d1f119628c11b59c6ef36",
                    "nonce" : "0xe4bd7f1543162dd8",
                    "number" : "0x01",
                    "parentHash" : "0xbf1ca004ba162fc114bffcd01cf3f8a5ed533ceb9a64c5bcd68fca41ebf7d077",
                    "receiptTrie" : "0x306509a077a5a7c8ad5bb4592553bee11fcf36930cb59646296e35036ec65903",
                    "stateRoot" : "0xda29a043e9c7485cab3815b1515d5894c56c2527915cea51dba2f0c41507cfb4",
                    "timestamp" : "0x03e8",
                    "transactionsTrie" : "0xddacdc3071d9641efe5836dc7eb01f797eb21d9130cf91e0d48dbb555276df13",
                    "uncleHash" : "0x1dcc4de8dec75d7aab85b567b6ccd41ad312451b948a7413f0a142fd40d49347"
                },
                "rlp" : "0xf90271f901f7a0bf1ca004ba162fc114bffcd01cf3f8a5ed533ceb9a64c5bcd68fca41ebf7d077a01dcc4de8dec75d7aab85b567b6ccd41ad312451b948a7413f0a142fd40d49347942adc25665018aa1fe0e6bc666dac8fc2697ff9baa0da29a043e9c7485cab3815b1515d5894c56c2527915cea51dba2f0c41507cfb4a0ddacdc3071d9641efe5836dc7eb01f797eb21d9130cf91e0d48dbb555276df13a0306509a077a5a7c8ad5bb4592553bee11fcf36930cb59646296e35036ec65903b90100000000000000000000000000000000000000000000000000000000000000000000000000000000000000000000000000000000000000000000000000000000000000000000000000000000000000000000000000000000000000000000000000000000000000000000000000000000000000000000000000000000000000000000000000000000000000000000000000000000000000000000000000000000000000000000000000000000000000000000000000000000000000000000000000000000000000000000000000000000000000000000000000000000000000000000000000000000000000000000000000000000000000000000000000000000008302000001839896808254948203e880a09bee2a4894b0e59f033c37e3d385edd3ca19eeac6a3d1f119628c11b59c6ef3688e4bd7f1543162dd8f874f87280018255f094b94f5374fce5edbc8e2a8697c15331677e6ebf0b809300000000000000000000112233445566778f321ba083e3f029a0a6377275730c004d4294ecaaec9c8e27b5b760a71306b0ae96dfbfa009ac545affb9151e21047d78f59c106a4f615a1de44cc1018847ec5121a402ccc0",
                "transactions" : [
                    {
                        "data" : "0x00000000000000000000112233445566778f32",
                        "gasLimit" : "0x55f0",
                        "gasPrice" : "0x01",
                        "nonce" : "0x00",
                        "r" : "0x83e3f029a0a6377275730c004d4294ecaaec9c8e27b5b760a71306b0ae96dfbf",
                        "s" : "0x09ac545affb9151e21047d78f59c106a4f615a1de44cc1018847ec5121a402cc",
                        "to" : "0xb94f5374fce5edbc8e2a8697c15331677e6ebf0b",
                        "v" : "0x1b",
                        "value" : "0x00"
                    }
                ],
                "uncleHeaders" : [
                ]
            }
        ],
        "genesisBlockHeader" : {
            "bloom" : "0x00000000000000000000000000000000000000000000000000000000000000000000000000000000000000000000000000000000000000000000000000000000000000000000000000000000000000000000000000000000000000000000000000000000000000000000000000000000000000000000000000000000000000000000000000000000000000000000000000000000000000000000000000000000000000000000000000000000000000000000000000000000000000000000000000000000000000000000000000000000000000000000000000000000000000000000000000000000000000000000000000000000000000000000000000000000",
            "coinbase" : "0x2adc25665018aa1fe0e6bc666dac8fc2697ff9ba",
            "difficulty" : "0x020000",
            "extraData" : "0x42",
            "gasLimit" : "0x989680",
            "gasUsed" : "0x00",
            "hash" : "0xbf1ca004ba162fc114bffcd01cf3f8a5ed533ceb9a64c5bcd68fca41ebf7d077",
            "mixHash" : "0x56e81f171bcc55a6ff8345e692c0f86e5b48e01b996cadc001622fb5e363b421",
            "nonce" : "0x0102030405060708",
            "number" : "0x00",
            "parentHash" : "0x0000000000000000000000000000000000000000000000000000000000000000",
            "receiptTrie" : "0x56e81f171bcc55a6ff8345e692c0f86e5b48e01b996cadc001622fb5e363b421",
            "stateRoot" : "0xa3e1c133a5a51b03399ed9ad0380f3182e9e18322f232b816dd4b9094f871e1b",
            "timestamp" : "0x03b6",
            "transactionsTrie" : "0x56e81f171bcc55a6ff8345e692c0f86e5b48e01b996cadc001622fb5e363b421",
            "uncleHash" : "0x1dcc4de8dec75d7aab85b567b6ccd41ad312451b948a7413f0a142fd40d49347"
        },
        "genesisRLP" : "0xf901faf901f5a00000000000000000000000000000000000000000000000000000000000000000a01dcc4de8dec75d7aab85b567b6ccd41ad312451b948a7413f0a142fd40d49347942adc25665018aa1fe0e6bc666dac8fc2697ff9baa0a3e1c133a5a51b03399ed9ad0380f3182e9e18322f232b816dd4b9094f871e1ba056e81f171bcc55a6ff8345e692c0f86e5b48e01b996cadc001622fb5e363b421a056e81f171bcc55a6ff8345e692c0f86e5b48e01b996cadc001622fb5e363b421b9010000000000000000000000000000000000000000000000000000000000000000000000000000000000000000000000000000000000000000000000000000000000000000000000000000000000000000000000000000000000000000000000000000000000000000000000000000000000000000000000000000000000000000000000000000000000000000000000000000000000000000000000000000000000000000000000000000000000000000000000000000000000000000000000000000000000000000000000000000000000000000000000000000000000000000000000000000000000000000000000000000000000000000000000000000000000830200008083989680808203b642a056e81f171bcc55a6ff8345e692c0f86e5b48e01b996cadc001622fb5e363b421880102030405060708c0c0",
        "lastblockhash" : "0xb394d4e13074b199e7330329ff5ec3a18999bd0513d95c6e804bababa8cc730e",
        "network" : "EIP150",
        "postState" : {
            "0x2adc25665018aa1fe0e6bc666dac8fc2697ff9ba" : {
                "balance" : "0x4563918244f45494",
                "code" : "",
                "nonce" : "0x00",
                "storage" : {
                }
            },
            "0xa94f5374fce5edbc8e2a8697c15331677e6ebf0b" : {
                "balance" : "0x01320c",
                "code" : "",
                "nonce" : "0x01",
                "storage" : {
                }
            },
            "0xb94f5374fce5edbc8e2a8697c15331677e6ebf0b" : {
                "balance" : "0x00",
                "code" : "",
                "nonce" : "0x00",
                "storage" : {
                }
            }
        },
        "pre" : {
            "0xa94f5374fce5edbc8e2a8697c15331677e6ebf0b" : {
                "balance" : "0x0186a0",
                "code" : "",
                "nonce" : "0x00",
                "storage" : {
                }
            }
        }
    },
    "TransactionDataCosts652_d0g0v0_EIP158" : {
        "_info" : {
            "comment" : "",
            "filledwith" : "cpp-1.3.0+commit.6e0ce939.Linux.g++",
            "lllcversion" : "Version: 0.4.18-develop.2017.9.25+commit.a72237f2.Linux.g++",
            "source" : "src/BlockchainTestsFiller/GeneralStateTests/stTransactionTest/TransactionDataCosts652_d0g0v0Filler.json",
            "sourceHash" : "43ddaaebeaf164cffc7291094d84b6070f293d3b9d85f9de20895d495651f26b"
        },
        "blocks" : [
            {
                "blockHeader" : {
                    "bloom" : "0x00000000000000000000000000000000000000000000000000000000000000000000000000000000000000000000000000000000000000000000000000000000000000000000000000000000000000000000000000000000000000000000000000000000000000000000000000000000000000000000000000000000000000000000000000000000000000000000000000000000000000000000000000000000000000000000000000000000000000000000000000000000000000000000000000000000000000000000000000000000000000000000000000000000000000000000000000000000000000000000000000000000000000000000000000000000",
                    "coinbase" : "0x2adc25665018aa1fe0e6bc666dac8fc2697ff9ba",
                    "difficulty" : "0x020000",
                    "extraData" : "",
                    "gasLimit" : "0x989680",
                    "gasUsed" : "0x5494",
                    "hash" : "0xc850c527599a892f8deaa84588333125b91d42f096a591a8dec510bcd80f540c",
                    "mixHash" : "0x275fb350192bb5d9f84ac9aeb39c843d2c0f740fc8cea48c8c67e3e03a43efb2",
                    "nonce" : "0x0b27ec11277ce52f",
                    "number" : "0x01",
                    "parentHash" : "0xbf1ca004ba162fc114bffcd01cf3f8a5ed533ceb9a64c5bcd68fca41ebf7d077",
                    "receiptTrie" : "0x7ba7b01ce9027facd5e423cc81ab0b39e6ed0b7d5607df6b36f78a98e3788c5c",
                    "stateRoot" : "0x1d01bc67f275a558306fcb3147faa453df100d103259802d5abee4828be9a8c0",
                    "timestamp" : "0x03e8",
                    "transactionsTrie" : "0xddacdc3071d9641efe5836dc7eb01f797eb21d9130cf91e0d48dbb555276df13",
                    "uncleHash" : "0x1dcc4de8dec75d7aab85b567b6ccd41ad312451b948a7413f0a142fd40d49347"
                },
                "rlp" : "0xf90271f901f7a0bf1ca004ba162fc114bffcd01cf3f8a5ed533ceb9a64c5bcd68fca41ebf7d077a01dcc4de8dec75d7aab85b567b6ccd41ad312451b948a7413f0a142fd40d49347942adc25665018aa1fe0e6bc666dac8fc2697ff9baa01d01bc67f275a558306fcb3147faa453df100d103259802d5abee4828be9a8c0a0ddacdc3071d9641efe5836dc7eb01f797eb21d9130cf91e0d48dbb555276df13a07ba7b01ce9027facd5e423cc81ab0b39e6ed0b7d5607df6b36f78a98e3788c5cb90100000000000000000000000000000000000000000000000000000000000000000000000000000000000000000000000000000000000000000000000000000000000000000000000000000000000000000000000000000000000000000000000000000000000000000000000000000000000000000000000000000000000000000000000000000000000000000000000000000000000000000000000000000000000000000000000000000000000000000000000000000000000000000000000000000000000000000000000000000000000000000000000000000000000000000000000000000000000000000000000000000000000000000000000000000000008302000001839896808254948203e880a0275fb350192bb5d9f84ac9aeb39c843d2c0f740fc8cea48c8c67e3e03a43efb2880b27ec11277ce52ff874f87280018255f094b94f5374fce5edbc8e2a8697c15331677e6ebf0b809300000000000000000000112233445566778f321ba083e3f029a0a6377275730c004d4294ecaaec9c8e27b5b760a71306b0ae96dfbfa009ac545affb9151e21047d78f59c106a4f615a1de44cc1018847ec5121a402ccc0",
                "transactions" : [
                    {
                        "data" : "0x00000000000000000000112233445566778f32",
                        "gasLimit" : "0x55f0",
                        "gasPrice" : "0x01",
                        "nonce" : "0x00",
                        "r" : "0x83e3f029a0a6377275730c004d4294ecaaec9c8e27b5b760a71306b0ae96dfbf",
                        "s" : "0x09ac545affb9151e21047d78f59c106a4f615a1de44cc1018847ec5121a402cc",
                        "to" : "0xb94f5374fce5edbc8e2a8697c15331677e6ebf0b",
                        "v" : "0x1b",
                        "value" : "0x00"
                    }
                ],
                "uncleHeaders" : [
                ]
            }
        ],
        "genesisBlockHeader" : {
            "bloom" : "0x00000000000000000000000000000000000000000000000000000000000000000000000000000000000000000000000000000000000000000000000000000000000000000000000000000000000000000000000000000000000000000000000000000000000000000000000000000000000000000000000000000000000000000000000000000000000000000000000000000000000000000000000000000000000000000000000000000000000000000000000000000000000000000000000000000000000000000000000000000000000000000000000000000000000000000000000000000000000000000000000000000000000000000000000000000000",
            "coinbase" : "0x2adc25665018aa1fe0e6bc666dac8fc2697ff9ba",
            "difficulty" : "0x020000",
            "extraData" : "0x42",
            "gasLimit" : "0x989680",
            "gasUsed" : "0x00",
            "hash" : "0xbf1ca004ba162fc114bffcd01cf3f8a5ed533ceb9a64c5bcd68fca41ebf7d077",
            "mixHash" : "0x56e81f171bcc55a6ff8345e692c0f86e5b48e01b996cadc001622fb5e363b421",
            "nonce" : "0x0102030405060708",
            "number" : "0x00",
            "parentHash" : "0x0000000000000000000000000000000000000000000000000000000000000000",
            "receiptTrie" : "0x56e81f171bcc55a6ff8345e692c0f86e5b48e01b996cadc001622fb5e363b421",
            "stateRoot" : "0xa3e1c133a5a51b03399ed9ad0380f3182e9e18322f232b816dd4b9094f871e1b",
            "timestamp" : "0x03b6",
            "transactionsTrie" : "0x56e81f171bcc55a6ff8345e692c0f86e5b48e01b996cadc001622fb5e363b421",
            "uncleHash" : "0x1dcc4de8dec75d7aab85b567b6ccd41ad312451b948a7413f0a142fd40d49347"
        },
        "genesisRLP" : "0xf901faf901f5a00000000000000000000000000000000000000000000000000000000000000000a01dcc4de8dec75d7aab85b567b6ccd41ad312451b948a7413f0a142fd40d49347942adc25665018aa1fe0e6bc666dac8fc2697ff9baa0a3e1c133a5a51b03399ed9ad0380f3182e9e18322f232b816dd4b9094f871e1ba056e81f171bcc55a6ff8345e692c0f86e5b48e01b996cadc001622fb5e363b421a056e81f171bcc55a6ff8345e692c0f86e5b48e01b996cadc001622fb5e363b421b9010000000000000000000000000000000000000000000000000000000000000000000000000000000000000000000000000000000000000000000000000000000000000000000000000000000000000000000000000000000000000000000000000000000000000000000000000000000000000000000000000000000000000000000000000000000000000000000000000000000000000000000000000000000000000000000000000000000000000000000000000000000000000000000000000000000000000000000000000000000000000000000000000000000000000000000000000000000000000000000000000000000000000000000000000000000000830200008083989680808203b642a056e81f171bcc55a6ff8345e692c0f86e5b48e01b996cadc001622fb5e363b421880102030405060708c0c0",
        "lastblockhash" : "0xc850c527599a892f8deaa84588333125b91d42f096a591a8dec510bcd80f540c",
        "network" : "EIP158",
        "postState" : {
            "0x2adc25665018aa1fe0e6bc666dac8fc2697ff9ba" : {
                "balance" : "0x4563918244f45494",
                "code" : "",
                "nonce" : "0x00",
                "storage" : {
                }
            },
            "0xa94f5374fce5edbc8e2a8697c15331677e6ebf0b" : {
                "balance" : "0x01320c",
                "code" : "",
                "nonce" : "0x01",
                "storage" : {
                }
            }
        },
        "pre" : {
            "0xa94f5374fce5edbc8e2a8697c15331677e6ebf0b" : {
                "balance" : "0x0186a0",
                "code" : "",
                "nonce" : "0x00",
                "storage" : {
                }
            }
        }
    },
    "TransactionDataCosts652_d0g0v0_Frontier" : {
        "_info" : {
            "comment" : "",
            "filledwith" : "cpp-1.3.0+commit.6e0ce939.Linux.g++",
            "lllcversion" : "Version: 0.4.18-develop.2017.9.25+commit.a72237f2.Linux.g++",
            "source" : "src/BlockchainTestsFiller/GeneralStateTests/stTransactionTest/TransactionDataCosts652_d0g0v0Filler.json",
            "sourceHash" : "43ddaaebeaf164cffc7291094d84b6070f293d3b9d85f9de20895d495651f26b"
        },
        "blocks" : [
            {
                "blockHeader" : {
                    "bloom" : "0x00000000000000000000000000000000000000000000000000000000000000000000000000000000000000000000000000000000000000000000000000000000000000000000000000000000000000000000000000000000000000000000000000000000000000000000000000000000000000000000000000000000000000000000000000000000000000000000000000000000000000000000000000000000000000000000000000000000000000000000000000000000000000000000000000000000000000000000000000000000000000000000000000000000000000000000000000000000000000000000000000000000000000000000000000000000",
                    "coinbase" : "0x2adc25665018aa1fe0e6bc666dac8fc2697ff9ba",
                    "difficulty" : "0x020000",
                    "extraData" : "",
                    "gasLimit" : "0x989680",
                    "gasUsed" : "0x5494",
                    "hash" : "0x6ccf9319c98979b286ef8b6a62dda57e9807d2e21202127491d84c3ad5f77f80",
                    "mixHash" : "0x1816d9b4808258492054a177210b5d0e22426a5efae2c23fecd48d79a77f170b",
                    "nonce" : "0x140bb522da6b65b3",
                    "number" : "0x01",
                    "parentHash" : "0xbf1ca004ba162fc114bffcd01cf3f8a5ed533ceb9a64c5bcd68fca41ebf7d077",
                    "receiptTrie" : "0x306509a077a5a7c8ad5bb4592553bee11fcf36930cb59646296e35036ec65903",
                    "stateRoot" : "0xda29a043e9c7485cab3815b1515d5894c56c2527915cea51dba2f0c41507cfb4",
                    "timestamp" : "0x03e8",
                    "transactionsTrie" : "0xddacdc3071d9641efe5836dc7eb01f797eb21d9130cf91e0d48dbb555276df13",
                    "uncleHash" : "0x1dcc4de8dec75d7aab85b567b6ccd41ad312451b948a7413f0a142fd40d49347"
                },
                "rlp" : "0xf90271f901f7a0bf1ca004ba162fc114bffcd01cf3f8a5ed533ceb9a64c5bcd68fca41ebf7d077a01dcc4de8dec75d7aab85b567b6ccd41ad312451b948a7413f0a142fd40d49347942adc25665018aa1fe0e6bc666dac8fc2697ff9baa0da29a043e9c7485cab3815b1515d5894c56c2527915cea51dba2f0c41507cfb4a0ddacdc3071d9641efe5836dc7eb01f797eb21d9130cf91e0d48dbb555276df13a0306509a077a5a7c8ad5bb4592553bee11fcf36930cb59646296e35036ec65903b90100000000000000000000000000000000000000000000000000000000000000000000000000000000000000000000000000000000000000000000000000000000000000000000000000000000000000000000000000000000000000000000000000000000000000000000000000000000000000000000000000000000000000000000000000000000000000000000000000000000000000000000000000000000000000000000000000000000000000000000000000000000000000000000000000000000000000000000000000000000000000000000000000000000000000000000000000000000000000000000000000000000000000000000000000000000008302000001839896808254948203e880a01816d9b4808258492054a177210b5d0e22426a5efae2c23fecd48d79a77f170b88140bb522da6b65b3f874f87280018255f094b94f5374fce5edbc8e2a8697c15331677e6ebf0b809300000000000000000000112233445566778f321ba083e3f029a0a6377275730c004d4294ecaaec9c8e27b5b760a71306b0ae96dfbfa009ac545affb9151e21047d78f59c106a4f615a1de44cc1018847ec5121a402ccc0",
                "transactions" : [
                    {
                        "data" : "0x00000000000000000000112233445566778f32",
                        "gasLimit" : "0x55f0",
                        "gasPrice" : "0x01",
                        "nonce" : "0x00",
                        "r" : "0x83e3f029a0a6377275730c004d4294ecaaec9c8e27b5b760a71306b0ae96dfbf",
                        "s" : "0x09ac545affb9151e21047d78f59c106a4f615a1de44cc1018847ec5121a402cc",
                        "to" : "0xb94f5374fce5edbc8e2a8697c15331677e6ebf0b",
                        "v" : "0x1b",
                        "value" : "0x00"
                    }
                ],
                "uncleHeaders" : [
                ]
            }
        ],
        "genesisBlockHeader" : {
            "bloom" : "0x00000000000000000000000000000000000000000000000000000000000000000000000000000000000000000000000000000000000000000000000000000000000000000000000000000000000000000000000000000000000000000000000000000000000000000000000000000000000000000000000000000000000000000000000000000000000000000000000000000000000000000000000000000000000000000000000000000000000000000000000000000000000000000000000000000000000000000000000000000000000000000000000000000000000000000000000000000000000000000000000000000000000000000000000000000000",
            "coinbase" : "0x2adc25665018aa1fe0e6bc666dac8fc2697ff9ba",
            "difficulty" : "0x020000",
            "extraData" : "0x42",
            "gasLimit" : "0x989680",
            "gasUsed" : "0x00",
            "hash" : "0xbf1ca004ba162fc114bffcd01cf3f8a5ed533ceb9a64c5bcd68fca41ebf7d077",
            "mixHash" : "0x56e81f171bcc55a6ff8345e692c0f86e5b48e01b996cadc001622fb5e363b421",
            "nonce" : "0x0102030405060708",
            "number" : "0x00",
            "parentHash" : "0x0000000000000000000000000000000000000000000000000000000000000000",
            "receiptTrie" : "0x56e81f171bcc55a6ff8345e692c0f86e5b48e01b996cadc001622fb5e363b421",
            "stateRoot" : "0xa3e1c133a5a51b03399ed9ad0380f3182e9e18322f232b816dd4b9094f871e1b",
            "timestamp" : "0x03b6",
            "transactionsTrie" : "0x56e81f171bcc55a6ff8345e692c0f86e5b48e01b996cadc001622fb5e363b421",
            "uncleHash" : "0x1dcc4de8dec75d7aab85b567b6ccd41ad312451b948a7413f0a142fd40d49347"
        },
        "genesisRLP" : "0xf901faf901f5a00000000000000000000000000000000000000000000000000000000000000000a01dcc4de8dec75d7aab85b567b6ccd41ad312451b948a7413f0a142fd40d49347942adc25665018aa1fe0e6bc666dac8fc2697ff9baa0a3e1c133a5a51b03399ed9ad0380f3182e9e18322f232b816dd4b9094f871e1ba056e81f171bcc55a6ff8345e692c0f86e5b48e01b996cadc001622fb5e363b421a056e81f171bcc55a6ff8345e692c0f86e5b48e01b996cadc001622fb5e363b421b9010000000000000000000000000000000000000000000000000000000000000000000000000000000000000000000000000000000000000000000000000000000000000000000000000000000000000000000000000000000000000000000000000000000000000000000000000000000000000000000000000000000000000000000000000000000000000000000000000000000000000000000000000000000000000000000000000000000000000000000000000000000000000000000000000000000000000000000000000000000000000000000000000000000000000000000000000000000000000000000000000000000000000000000000000000000000830200008083989680808203b642a056e81f171bcc55a6ff8345e692c0f86e5b48e01b996cadc001622fb5e363b421880102030405060708c0c0",
        "lastblockhash" : "0x6ccf9319c98979b286ef8b6a62dda57e9807d2e21202127491d84c3ad5f77f80",
        "network" : "Frontier",
        "postState" : {
            "0x2adc25665018aa1fe0e6bc666dac8fc2697ff9ba" : {
                "balance" : "0x4563918244f45494",
                "code" : "",
                "nonce" : "0x00",
                "storage" : {
                }
            },
            "0xa94f5374fce5edbc8e2a8697c15331677e6ebf0b" : {
                "balance" : "0x01320c",
                "code" : "",
                "nonce" : "0x01",
                "storage" : {
                }
            },
            "0xb94f5374fce5edbc8e2a8697c15331677e6ebf0b" : {
                "balance" : "0x00",
                "code" : "",
                "nonce" : "0x00",
                "storage" : {
                }
            }
        },
        "pre" : {
            "0xa94f5374fce5edbc8e2a8697c15331677e6ebf0b" : {
                "balance" : "0x0186a0",
                "code" : "",
                "nonce" : "0x00",
                "storage" : {
                }
            }
        }
    },
    "TransactionDataCosts652_d0g0v0_Homestead" : {
        "_info" : {
            "comment" : "",
            "filledwith" : "cpp-1.3.0+commit.6e0ce939.Linux.g++",
            "lllcversion" : "Version: 0.4.18-develop.2017.9.25+commit.a72237f2.Linux.g++",
            "source" : "src/BlockchainTestsFiller/GeneralStateTests/stTransactionTest/TransactionDataCosts652_d0g0v0Filler.json",
            "sourceHash" : "43ddaaebeaf164cffc7291094d84b6070f293d3b9d85f9de20895d495651f26b"
        },
        "blocks" : [
            {
                "blockHeader" : {
                    "bloom" : "0x00000000000000000000000000000000000000000000000000000000000000000000000000000000000000000000000000000000000000000000000000000000000000000000000000000000000000000000000000000000000000000000000000000000000000000000000000000000000000000000000000000000000000000000000000000000000000000000000000000000000000000000000000000000000000000000000000000000000000000000000000000000000000000000000000000000000000000000000000000000000000000000000000000000000000000000000000000000000000000000000000000000000000000000000000000000",
                    "coinbase" : "0x2adc25665018aa1fe0e6bc666dac8fc2697ff9ba",
                    "difficulty" : "0x020000",
                    "extraData" : "",
                    "gasLimit" : "0x989680",
                    "gasUsed" : "0x5494",
                    "hash" : "0xcddb786d8b7123aa42e50ca499aa450ef21582609888b2520d04bac49d1ef3ac",
                    "mixHash" : "0x21407dfce32d42a30e0b3ac5f811437e603261f6eafcdebc82593936aa5c6801",
                    "nonce" : "0xe197c5c5f048bfb7",
                    "number" : "0x01",
                    "parentHash" : "0xbf1ca004ba162fc114bffcd01cf3f8a5ed533ceb9a64c5bcd68fca41ebf7d077",
                    "receiptTrie" : "0x306509a077a5a7c8ad5bb4592553bee11fcf36930cb59646296e35036ec65903",
                    "stateRoot" : "0xda29a043e9c7485cab3815b1515d5894c56c2527915cea51dba2f0c41507cfb4",
                    "timestamp" : "0x03e8",
                    "transactionsTrie" : "0xddacdc3071d9641efe5836dc7eb01f797eb21d9130cf91e0d48dbb555276df13",
                    "uncleHash" : "0x1dcc4de8dec75d7aab85b567b6ccd41ad312451b948a7413f0a142fd40d49347"
                },
                "rlp" : "0xf90271f901f7a0bf1ca004ba162fc114bffcd01cf3f8a5ed533ceb9a64c5bcd68fca41ebf7d077a01dcc4de8dec75d7aab85b567b6ccd41ad312451b948a7413f0a142fd40d49347942adc25665018aa1fe0e6bc666dac8fc2697ff9baa0da29a043e9c7485cab3815b1515d5894c56c2527915cea51dba2f0c41507cfb4a0ddacdc3071d9641efe5836dc7eb01f797eb21d9130cf91e0d48dbb555276df13a0306509a077a5a7c8ad5bb4592553bee11fcf36930cb59646296e35036ec65903b90100000000000000000000000000000000000000000000000000000000000000000000000000000000000000000000000000000000000000000000000000000000000000000000000000000000000000000000000000000000000000000000000000000000000000000000000000000000000000000000000000000000000000000000000000000000000000000000000000000000000000000000000000000000000000000000000000000000000000000000000000000000000000000000000000000000000000000000000000000000000000000000000000000000000000000000000000000000000000000000000000000000000000000000000000000000008302000001839896808254948203e880a021407dfce32d42a30e0b3ac5f811437e603261f6eafcdebc82593936aa5c680188e197c5c5f048bfb7f874f87280018255f094b94f5374fce5edbc8e2a8697c15331677e6ebf0b809300000000000000000000112233445566778f321ba083e3f029a0a6377275730c004d4294ecaaec9c8e27b5b760a71306b0ae96dfbfa009ac545affb9151e21047d78f59c106a4f615a1de44cc1018847ec5121a402ccc0",
                "transactions" : [
                    {
                        "data" : "0x00000000000000000000112233445566778f32",
                        "gasLimit" : "0x55f0",
                        "gasPrice" : "0x01",
                        "nonce" : "0x00",
                        "r" : "0x83e3f029a0a6377275730c004d4294ecaaec9c8e27b5b760a71306b0ae96dfbf",
                        "s" : "0x09ac545affb9151e21047d78f59c106a4f615a1de44cc1018847ec5121a402cc",
                        "to" : "0xb94f5374fce5edbc8e2a8697c15331677e6ebf0b",
                        "v" : "0x1b",
                        "value" : "0x00"
                    }
                ],
                "uncleHeaders" : [
                ]
            }
        ],
        "genesisBlockHeader" : {
            "bloom" : "0x00000000000000000000000000000000000000000000000000000000000000000000000000000000000000000000000000000000000000000000000000000000000000000000000000000000000000000000000000000000000000000000000000000000000000000000000000000000000000000000000000000000000000000000000000000000000000000000000000000000000000000000000000000000000000000000000000000000000000000000000000000000000000000000000000000000000000000000000000000000000000000000000000000000000000000000000000000000000000000000000000000000000000000000000000000000",
            "coinbase" : "0x2adc25665018aa1fe0e6bc666dac8fc2697ff9ba",
            "difficulty" : "0x020000",
            "extraData" : "0x42",
            "gasLimit" : "0x989680",
            "gasUsed" : "0x00",
            "hash" : "0xbf1ca004ba162fc114bffcd01cf3f8a5ed533ceb9a64c5bcd68fca41ebf7d077",
            "mixHash" : "0x56e81f171bcc55a6ff8345e692c0f86e5b48e01b996cadc001622fb5e363b421",
            "nonce" : "0x0102030405060708",
            "number" : "0x00",
            "parentHash" : "0x0000000000000000000000000000000000000000000000000000000000000000",
            "receiptTrie" : "0x56e81f171bcc55a6ff8345e692c0f86e5b48e01b996cadc001622fb5e363b421",
            "stateRoot" : "0xa3e1c133a5a51b03399ed9ad0380f3182e9e18322f232b816dd4b9094f871e1b",
            "timestamp" : "0x03b6",
            "transactionsTrie" : "0x56e81f171bcc55a6ff8345e692c0f86e5b48e01b996cadc001622fb5e363b421",
            "uncleHash" : "0x1dcc4de8dec75d7aab85b567b6ccd41ad312451b948a7413f0a142fd40d49347"
        },
        "genesisRLP" : "0xf901faf901f5a00000000000000000000000000000000000000000000000000000000000000000a01dcc4de8dec75d7aab85b567b6ccd41ad312451b948a7413f0a142fd40d49347942adc25665018aa1fe0e6bc666dac8fc2697ff9baa0a3e1c133a5a51b03399ed9ad0380f3182e9e18322f232b816dd4b9094f871e1ba056e81f171bcc55a6ff8345e692c0f86e5b48e01b996cadc001622fb5e363b421a056e81f171bcc55a6ff8345e692c0f86e5b48e01b996cadc001622fb5e363b421b9010000000000000000000000000000000000000000000000000000000000000000000000000000000000000000000000000000000000000000000000000000000000000000000000000000000000000000000000000000000000000000000000000000000000000000000000000000000000000000000000000000000000000000000000000000000000000000000000000000000000000000000000000000000000000000000000000000000000000000000000000000000000000000000000000000000000000000000000000000000000000000000000000000000000000000000000000000000000000000000000000000000000000000000000000000000000830200008083989680808203b642a056e81f171bcc55a6ff8345e692c0f86e5b48e01b996cadc001622fb5e363b421880102030405060708c0c0",
        "lastblockhash" : "0xcddb786d8b7123aa42e50ca499aa450ef21582609888b2520d04bac49d1ef3ac",
        "network" : "Homestead",
        "postState" : {
            "0x2adc25665018aa1fe0e6bc666dac8fc2697ff9ba" : {
                "balance" : "0x4563918244f45494",
                "code" : "",
                "nonce" : "0x00",
                "storage" : {
                }
            },
            "0xa94f5374fce5edbc8e2a8697c15331677e6ebf0b" : {
                "balance" : "0x01320c",
                "code" : "",
                "nonce" : "0x01",
                "storage" : {
                }
            },
            "0xb94f5374fce5edbc8e2a8697c15331677e6ebf0b" : {
                "balance" : "0x00",
                "code" : "",
                "nonce" : "0x00",
                "storage" : {
                }
            }
        },
        "pre" : {
            "0xa94f5374fce5edbc8e2a8697c15331677e6ebf0b" : {
                "balance" : "0x0186a0",
                "code" : "",
                "nonce" : "0x00",
                "storage" : {
                }
            }
        }
    }
}