{
    "TransactionSendingToZero_d0g0v0_Byzantium" : {
        "_info" : {
            "comment" : "",
            "filledwith" : "cpp-1.3.0+commit.6e0ce939.Linux.g++",
            "lllcversion" : "Version: 0.4.18-develop.2017.9.25+commit.a72237f2.Linux.g++",
            "source" : "src/BlockchainTestsFiller/GeneralStateTests/stTransactionTest/TransactionSendingToZero_d0g0v0Filler.json",
            "sourceHash" : "e4d6d0e99af4a62801e8f71dfefb0a63208f4f9b6ab5a67eca66a9f063dfa043"
        },
        "blocks" : [
            {
                "blockHeader" : {
                    "bloom" : "0x00000000000000000000000000000000000000000000000000000000000000000000000000000000000000000000000000000000000000000000000000000000000000000000000000000000000000000000000000000000000000000000000000000000000000000000000000000000000000000000000000000000000000000000000000000000000000000000000000000000000000000000000000000000000000000000000000000000000000000000000000000000000000000000000000000000000000000000000000000000000000000000000000000000000000000000000000000000000000000000000000000000000000000000000000000000",
                    "coinbase" : "0x2adc25665018aa1fe0e6bc666dac8fc2697ff9ba",
                    "difficulty" : "0x020000",
                    "extraData" : "",
                    "gasLimit" : "0x0f4240",
                    "gasUsed" : "0x5208",
                    "hash" : "0x4c044c26869fa7447230ec783b083f366b2d26a2be4033329fcf96009429dad5",
                    "mixHash" : "0x06f89491832c6c90f3b8e9415e534a89c71d00deb2e9e26c6acb2314fa5cfe40",
                    "nonce" : "0x7b71ccdfc8c2dae9",
                    "number" : "0x01",
                    "parentHash" : "0xa35295e248019d92600a60b59a979ce901ef66ecce774eb31fa3455fade18546",
                    "receiptTrie" : "0x056b23fbba480696b65fe5a59b8f2148a1299103c4f57df839233af2cf4ca2d2",
                    "stateRoot" : "0x4553bbecd0f65021c696f80ad25365a728fac84a0f92da172f016c8354cef1b4",
                    "timestamp" : "0x03e8",
                    "transactionsTrie" : "0x6aa1c347c8687861c3290e99ef8b22fbe580c7b1a40766620103ff0f0f62aaed",
                    "uncleHash" : "0x1dcc4de8dec75d7aab85b567b6ccd41ad312451b948a7413f0a142fd40d49347"
                },
                "rlp" : "0xf9025ef901f7a0a35295e248019d92600a60b59a979ce901ef66ecce774eb31fa3455fade18546a01dcc4de8dec75d7aab85b567b6ccd41ad312451b948a7413f0a142fd40d49347942adc25665018aa1fe0e6bc666dac8fc2697ff9baa04553bbecd0f65021c696f80ad25365a728fac84a0f92da172f016c8354cef1b4a06aa1c347c8687861c3290e99ef8b22fbe580c7b1a40766620103ff0f0f62aaeda0056b23fbba480696b65fe5a59b8f2148a1299103c4f57df839233af2cf4ca2d2b90100000000000000000000000000000000000000000000000000000000000000000000000000000000000000000000000000000000000000000000000000000000000000000000000000000000000000000000000000000000000000000000000000000000000000000000000000000000000000000000000000000000000000000000000000000000000000000000000000000000000000000000000000000000000000000000000000000000000000000000000000000000000000000000000000000000000000000000000000000000000000000000000000000000000000000000000000000000000000000000000000000000000000000000000000000000008302000001830f42408252088203e880a006f89491832c6c90f3b8e9415e534a89c71d00deb2e9e26c6acb2314fa5cfe40887b71ccdfc8c2dae9f861f85f80018261a894000000000000000000000000000000000000000001801ca02c9d3aaa3ff7df69c3da528262ea2cbba9ebb24b8719ea5fb245e76c8b773636a0228c9a77bddc22e6cdde47c6c78a63ab002869db7370c132e07273ec4e9d54a3c0",
                "transactions" : [
                    {
                        "data" : "",
                        "gasLimit" : "0x61a8",
                        "gasPrice" : "0x01",
                        "nonce" : "0x00",
                        "r" : "0x2c9d3aaa3ff7df69c3da528262ea2cbba9ebb24b8719ea5fb245e76c8b773636",
                        "s" : "0x228c9a77bddc22e6cdde47c6c78a63ab002869db7370c132e07273ec4e9d54a3",
                        "to" : "0x0000000000000000000000000000000000000000",
                        "v" : "0x1c",
                        "value" : "0x01"
                    }
                ],
                "uncleHeaders" : [
                ]
            }
        ],
        "genesisBlockHeader" : {
            "bloom" : "0x00000000000000000000000000000000000000000000000000000000000000000000000000000000000000000000000000000000000000000000000000000000000000000000000000000000000000000000000000000000000000000000000000000000000000000000000000000000000000000000000000000000000000000000000000000000000000000000000000000000000000000000000000000000000000000000000000000000000000000000000000000000000000000000000000000000000000000000000000000000000000000000000000000000000000000000000000000000000000000000000000000000000000000000000000000000",
            "coinbase" : "0x2adc25665018aa1fe0e6bc666dac8fc2697ff9ba",
            "difficulty" : "0x020000",
            "extraData" : "0x42",
            "gasLimit" : "0x0f4240",
            "gasUsed" : "0x00",
            "hash" : "0xa35295e248019d92600a60b59a979ce901ef66ecce774eb31fa3455fade18546",
            "mixHash" : "0x56e81f171bcc55a6ff8345e692c0f86e5b48e01b996cadc001622fb5e363b421",
            "nonce" : "0x0102030405060708",
            "number" : "0x00",
            "parentHash" : "0x0000000000000000000000000000000000000000000000000000000000000000",
            "receiptTrie" : "0x56e81f171bcc55a6ff8345e692c0f86e5b48e01b996cadc001622fb5e363b421",
            "stateRoot" : "0xa3e1c133a5a51b03399ed9ad0380f3182e9e18322f232b816dd4b9094f871e1b",
            "timestamp" : "0x03b6",
            "transactionsTrie" : "0x56e81f171bcc55a6ff8345e692c0f86e5b48e01b996cadc001622fb5e363b421",
            "uncleHash" : "0x1dcc4de8dec75d7aab85b567b6ccd41ad312451b948a7413f0a142fd40d49347"
        },
        "genesisRLP" : "0xf901faf901f5a00000000000000000000000000000000000000000000000000000000000000000a01dcc4de8dec75d7aab85b567b6ccd41ad312451b948a7413f0a142fd40d49347942adc25665018aa1fe0e6bc666dac8fc2697ff9baa0a3e1c133a5a51b03399ed9ad0380f3182e9e18322f232b816dd4b9094f871e1ba056e81f171bcc55a6ff8345e692c0f86e5b48e01b996cadc001622fb5e363b421a056e81f171bcc55a6ff8345e692c0f86e5b48e01b996cadc001622fb5e363b421b90100000000000000000000000000000000000000000000000000000000000000000000000000000000000000000000000000000000000000000000000000000000000000000000000000000000000000000000000000000000000000000000000000000000000000000000000000000000000000000000000000000000000000000000000000000000000000000000000000000000000000000000000000000000000000000000000000000000000000000000000000000000000000000000000000000000000000000000000000000000000000000000000000000000000000000000000000000000000000000000000000000000000000000000000000000000008302000080830f4240808203b642a056e81f171bcc55a6ff8345e692c0f86e5b48e01b996cadc001622fb5e363b421880102030405060708c0c0",
        "lastblockhash" : "0x4c044c26869fa7447230ec783b083f366b2d26a2be4033329fcf96009429dad5",
        "network" : "Byzantium",
        "postState" : {
            "0x0000000000000000000000000000000000000000" : {
                "balance" : "0x01",
                "code" : "",
                "nonce" : "0x00",
                "storage" : {
                }
            },
            "0x2adc25665018aa1fe0e6bc666dac8fc2697ff9ba" : {
                "balance" : "0x29a2241af62c5208",
                "code" : "",
                "nonce" : "0x00",
                "storage" : {
                }
            },
            "0xa94f5374fce5edbc8e2a8697c15331677e6ebf0b" : {
                "balance" : "0x013497",
                "code" : "",
                "nonce" : "0x01",
                "storage" : {
                }
            }
        },
        "pre" : {
            "0xa94f5374fce5edbc8e2a8697c15331677e6ebf0b" : {
                "balance" : "0x0186a0",
                "code" : "",
                "nonce" : "0x00",
                "storage" : {
                }
            }
        }
    },
    "TransactionSendingToZero_d0g0v0_EIP150" : {
        "_info" : {
            "comment" : "",
            "filledwith" : "cpp-1.3.0+commit.6e0ce939.Linux.g++",
            "lllcversion" : "Version: 0.4.18-develop.2017.9.25+commit.a72237f2.Linux.g++",
            "source" : "src/BlockchainTestsFiller/GeneralStateTests/stTransactionTest/TransactionSendingToZero_d0g0v0Filler.json",
            "sourceHash" : "e4d6d0e99af4a62801e8f71dfefb0a63208f4f9b6ab5a67eca66a9f063dfa043"
        },
        "blocks" : [
            {
                "blockHeader" : {
                    "bloom" : "0x00000000000000000000000000000000000000000000000000000000000000000000000000000000000000000000000000000000000000000000000000000000000000000000000000000000000000000000000000000000000000000000000000000000000000000000000000000000000000000000000000000000000000000000000000000000000000000000000000000000000000000000000000000000000000000000000000000000000000000000000000000000000000000000000000000000000000000000000000000000000000000000000000000000000000000000000000000000000000000000000000000000000000000000000000000000",
                    "coinbase" : "0x2adc25665018aa1fe0e6bc666dac8fc2697ff9ba",
                    "difficulty" : "0x020000",
                    "extraData" : "",
                    "gasLimit" : "0x0f4240",
                    "gasUsed" : "0x5208",
                    "hash" : "0xce11eba7a67cae7c95f94df34f05339d60a60d509fb2f13976740e001def9f3e",
                    "mixHash" : "0xe46ef6a836a58b6ee4e4de2d7273d67fa64cd6dad7fdc20acb771aca837fa30f",
                    "nonce" : "0x13f2ad420d9813d9",
                    "number" : "0x01",
                    "parentHash" : "0xa35295e248019d92600a60b59a979ce901ef66ecce774eb31fa3455fade18546",
                    "receiptTrie" : "0x6878323b82ba45a87dc96b25f229bbeb158c6fd01d3bde6c92da350fbeb77165",
                    "stateRoot" : "0x8998b3c490fc8aedd7555558f2107b073fe20d3d84d7dc3942fd18a8e228c0a5",
                    "timestamp" : "0x03e8",
                    "transactionsTrie" : "0x6aa1c347c8687861c3290e99ef8b22fbe580c7b1a40766620103ff0f0f62aaed",
                    "uncleHash" : "0x1dcc4de8dec75d7aab85b567b6ccd41ad312451b948a7413f0a142fd40d49347"
                },
                "rlp" : "0xf9025ef901f7a0a35295e248019d92600a60b59a979ce901ef66ecce774eb31fa3455fade18546a01dcc4de8dec75d7aab85b567b6ccd41ad312451b948a7413f0a142fd40d49347942adc25665018aa1fe0e6bc666dac8fc2697ff9baa08998b3c490fc8aedd7555558f2107b073fe20d3d84d7dc3942fd18a8e228c0a5a06aa1c347c8687861c3290e99ef8b22fbe580c7b1a40766620103ff0f0f62aaeda06878323b82ba45a87dc96b25f229bbeb158c6fd01d3bde6c92da350fbeb77165b90100000000000000000000000000000000000000000000000000000000000000000000000000000000000000000000000000000000000000000000000000000000000000000000000000000000000000000000000000000000000000000000000000000000000000000000000000000000000000000000000000000000000000000000000000000000000000000000000000000000000000000000000000000000000000000000000000000000000000000000000000000000000000000000000000000000000000000000000000000000000000000000000000000000000000000000000000000000000000000000000000000000000000000000000000000000008302000001830f42408252088203e880a0e46ef6a836a58b6ee4e4de2d7273d67fa64cd6dad7fdc20acb771aca837fa30f8813f2ad420d9813d9f861f85f80018261a894000000000000000000000000000000000000000001801ca02c9d3aaa3ff7df69c3da528262ea2cbba9ebb24b8719ea5fb245e76c8b773636a0228c9a77bddc22e6cdde47c6c78a63ab002869db7370c132e07273ec4e9d54a3c0",
                "transactions" : [
                    {
                        "data" : "",
                        "gasLimit" : "0x61a8",
                        "gasPrice" : "0x01",
                        "nonce" : "0x00",
                        "r" : "0x2c9d3aaa3ff7df69c3da528262ea2cbba9ebb24b8719ea5fb245e76c8b773636",
                        "s" : "0x228c9a77bddc22e6cdde47c6c78a63ab002869db7370c132e07273ec4e9d54a3",
                        "to" : "0x0000000000000000000000000000000000000000",
                        "v" : "0x1c",
                        "value" : "0x01"
                    }
                ],
                "uncleHeaders" : [
                ]
            }
        ],
        "genesisBlockHeader" : {
            "bloom" : "0x00000000000000000000000000000000000000000000000000000000000000000000000000000000000000000000000000000000000000000000000000000000000000000000000000000000000000000000000000000000000000000000000000000000000000000000000000000000000000000000000000000000000000000000000000000000000000000000000000000000000000000000000000000000000000000000000000000000000000000000000000000000000000000000000000000000000000000000000000000000000000000000000000000000000000000000000000000000000000000000000000000000000000000000000000000000",
            "coinbase" : "0x2adc25665018aa1fe0e6bc666dac8fc2697ff9ba",
            "difficulty" : "0x020000",
            "extraData" : "0x42",
            "gasLimit" : "0x0f4240",
            "gasUsed" : "0x00",
            "hash" : "0xa35295e248019d92600a60b59a979ce901ef66ecce774eb31fa3455fade18546",
            "mixHash" : "0x56e81f171bcc55a6ff8345e692c0f86e5b48e01b996cadc001622fb5e363b421",
            "nonce" : "0x0102030405060708",
            "number" : "0x00",
            "parentHash" : "0x0000000000000000000000000000000000000000000000000000000000000000",
            "receiptTrie" : "0x56e81f171bcc55a6ff8345e692c0f86e5b48e01b996cadc001622fb5e363b421",
            "stateRoot" : "0xa3e1c133a5a51b03399ed9ad0380f3182e9e18322f232b816dd4b9094f871e1b",
            "timestamp" : "0x03b6",
            "transactionsTrie" : "0x56e81f171bcc55a6ff8345e692c0f86e5b48e01b996cadc001622fb5e363b421",
            "uncleHash" : "0x1dcc4de8dec75d7aab85b567b6ccd41ad312451b948a7413f0a142fd40d49347"
        },
        "genesisRLP" : "0xf901faf901f5a00000000000000000000000000000000000000000000000000000000000000000a01dcc4de8dec75d7aab85b567b6ccd41ad312451b948a7413f0a142fd40d49347942adc25665018aa1fe0e6bc666dac8fc2697ff9baa0a3e1c133a5a51b03399ed9ad0380f3182e9e18322f232b816dd4b9094f871e1ba056e81f171bcc55a6ff8345e692c0f86e5b48e01b996cadc001622fb5e363b421a056e81f171bcc55a6ff8345e692c0f86e5b48e01b996cadc001622fb5e363b421b90100000000000000000000000000000000000000000000000000000000000000000000000000000000000000000000000000000000000000000000000000000000000000000000000000000000000000000000000000000000000000000000000000000000000000000000000000000000000000000000000000000000000000000000000000000000000000000000000000000000000000000000000000000000000000000000000000000000000000000000000000000000000000000000000000000000000000000000000000000000000000000000000000000000000000000000000000000000000000000000000000000000000000000000000000000000008302000080830f4240808203b642a056e81f171bcc55a6ff8345e692c0f86e5b48e01b996cadc001622fb5e363b421880102030405060708c0c0",
        "lastblockhash" : "0xce11eba7a67cae7c95f94df34f05339d60a60d509fb2f13976740e001def9f3e",
        "network" : "EIP150",
        "postState" : {
            "0x0000000000000000000000000000000000000000" : {
                "balance" : "0x01",
                "code" : "",
                "nonce" : "0x00",
                "storage" : {
                }
            },
            "0x2adc25665018aa1fe0e6bc666dac8fc2697ff9ba" : {
                "balance" : "0x4563918244f45208",
                "code" : "",
                "nonce" : "0x00",
                "storage" : {
                }
            },
            "0xa94f5374fce5edbc8e2a8697c15331677e6ebf0b" : {
                "balance" : "0x013497",
                "code" : "",
                "nonce" : "0x01",
                "storage" : {
                }
            }
        },
        "pre" : {
            "0xa94f5374fce5edbc8e2a8697c15331677e6ebf0b" : {
                "balance" : "0x0186a0",
                "code" : "",
                "nonce" : "0x00",
                "storage" : {
                }
            }
        }
    },
    "TransactionSendingToZero_d0g0v0_EIP158" : {
        "_info" : {
            "comment" : "",
            "filledwith" : "cpp-1.3.0+commit.6e0ce939.Linux.g++",
            "lllcversion" : "Version: 0.4.18-develop.2017.9.25+commit.a72237f2.Linux.g++",
            "source" : "src/BlockchainTestsFiller/GeneralStateTests/stTransactionTest/TransactionSendingToZero_d0g0v0Filler.json",
            "sourceHash" : "e4d6d0e99af4a62801e8f71dfefb0a63208f4f9b6ab5a67eca66a9f063dfa043"
        },
        "blocks" : [
            {
                "blockHeader" : {
                    "bloom" : "0x00000000000000000000000000000000000000000000000000000000000000000000000000000000000000000000000000000000000000000000000000000000000000000000000000000000000000000000000000000000000000000000000000000000000000000000000000000000000000000000000000000000000000000000000000000000000000000000000000000000000000000000000000000000000000000000000000000000000000000000000000000000000000000000000000000000000000000000000000000000000000000000000000000000000000000000000000000000000000000000000000000000000000000000000000000000",
                    "coinbase" : "0x2adc25665018aa1fe0e6bc666dac8fc2697ff9ba",
                    "difficulty" : "0x020000",
                    "extraData" : "",
                    "gasLimit" : "0x0f4240",
                    "gasUsed" : "0x5208",
                    "hash" : "0x9ecffb9f1721bed939f33b2bcca74ea9d601c9eea1d422011f70ca6ebbd60a5d",
                    "mixHash" : "0x1a2da2038762a35eb82458997e9bfd5ea11c10b7fd9c84d97eb46102c8d2a726",
                    "nonce" : "0xb6b823e37766ccf1",
                    "number" : "0x01",
                    "parentHash" : "0xa35295e248019d92600a60b59a979ce901ef66ecce774eb31fa3455fade18546",
                    "receiptTrie" : "0x6878323b82ba45a87dc96b25f229bbeb158c6fd01d3bde6c92da350fbeb77165",
                    "stateRoot" : "0x8998b3c490fc8aedd7555558f2107b073fe20d3d84d7dc3942fd18a8e228c0a5",
                    "timestamp" : "0x03e8",
                    "transactionsTrie" : "0x6aa1c347c8687861c3290e99ef8b22fbe580c7b1a40766620103ff0f0f62aaed",
                    "uncleHash" : "0x1dcc4de8dec75d7aab85b567b6ccd41ad312451b948a7413f0a142fd40d49347"
                },
                "rlp" : "0xf9025ef901f7a0a35295e248019d92600a60b59a979ce901ef66ecce774eb31fa3455fade18546a01dcc4de8dec75d7aab85b567b6ccd41ad312451b948a7413f0a142fd40d49347942adc25665018aa1fe0e6bc666dac8fc2697ff9baa08998b3c490fc8aedd7555558f2107b073fe20d3d84d7dc3942fd18a8e228c0a5a06aa1c347c8687861c3290e99ef8b22fbe580c7b1a40766620103ff0f0f62aaeda06878323b82ba45a87dc96b25f229bbeb158c6fd01d3bde6c92da350fbeb77165b90100000000000000000000000000000000000000000000000000000000000000000000000000000000000000000000000000000000000000000000000000000000000000000000000000000000000000000000000000000000000000000000000000000000000000000000000000000000000000000000000000000000000000000000000000000000000000000000000000000000000000000000000000000000000000000000000000000000000000000000000000000000000000000000000000000000000000000000000000000000000000000000000000000000000000000000000000000000000000000000000000000000000000000000000000000000008302000001830f42408252088203e880a01a2da2038762a35eb82458997e9bfd5ea11c10b7fd9c84d97eb46102c8d2a72688b6b823e37766ccf1f861f85f80018261a894000000000000000000000000000000000000000001801ca02c9d3aaa3ff7df69c3da528262ea2cbba9ebb24b8719ea5fb245e76c8b773636a0228c9a77bddc22e6cdde47c6c78a63ab002869db7370c132e07273ec4e9d54a3c0",
                "transactions" : [
                    {
                        "data" : "",
                        "gasLimit" : "0x61a8",
                        "gasPrice" : "0x01",
                        "nonce" : "0x00",
                        "r" : "0x2c9d3aaa3ff7df69c3da528262ea2cbba9ebb24b8719ea5fb245e76c8b773636",
                        "s" : "0x228c9a77bddc22e6cdde47c6c78a63ab002869db7370c132e07273ec4e9d54a3",
                        "to" : "0x0000000000000000000000000000000000000000",
                        "v" : "0x1c",
                        "value" : "0x01"
                    }
                ],
                "uncleHeaders" : [
                ]
            }
        ],
        "genesisBlockHeader" : {
            "bloom" : "0x00000000000000000000000000000000000000000000000000000000000000000000000000000000000000000000000000000000000000000000000000000000000000000000000000000000000000000000000000000000000000000000000000000000000000000000000000000000000000000000000000000000000000000000000000000000000000000000000000000000000000000000000000000000000000000000000000000000000000000000000000000000000000000000000000000000000000000000000000000000000000000000000000000000000000000000000000000000000000000000000000000000000000000000000000000000",
            "coinbase" : "0x2adc25665018aa1fe0e6bc666dac8fc2697ff9ba",
            "difficulty" : "0x020000",
            "extraData" : "0x42",
            "gasLimit" : "0x0f4240",
            "gasUsed" : "0x00",
            "hash" : "0xa35295e248019d92600a60b59a979ce901ef66ecce774eb31fa3455fade18546",
            "mixHash" : "0x56e81f171bcc55a6ff8345e692c0f86e5b48e01b996cadc001622fb5e363b421",
            "nonce" : "0x0102030405060708",
            "number" : "0x00",
            "parentHash" : "0x0000000000000000000000000000000000000000000000000000000000000000",
            "receiptTrie" : "0x56e81f171bcc55a6ff8345e692c0f86e5b48e01b996cadc001622fb5e363b421",
            "stateRoot" : "0xa3e1c133a5a51b03399ed9ad0380f3182e9e18322f232b816dd4b9094f871e1b",
            "timestamp" : "0x03b6",
            "transactionsTrie" : "0x56e81f171bcc55a6ff8345e692c0f86e5b48e01b996cadc001622fb5e363b421",
            "uncleHash" : "0x1dcc4de8dec75d7aab85b567b6ccd41ad312451b948a7413f0a142fd40d49347"
        },
        "genesisRLP" : "0xf901faf901f5a00000000000000000000000000000000000000000000000000000000000000000a01dcc4de8dec75d7aab85b567b6ccd41ad312451b948a7413f0a142fd40d49347942adc25665018aa1fe0e6bc666dac8fc2697ff9baa0a3e1c133a5a51b03399ed9ad0380f3182e9e18322f232b816dd4b9094f871e1ba056e81f171bcc55a6ff8345e692c0f86e5b48e01b996cadc001622fb5e363b421a056e81f171bcc55a6ff8345e692c0f86e5b48e01b996cadc001622fb5e363b421b90100000000000000000000000000000000000000000000000000000000000000000000000000000000000000000000000000000000000000000000000000000000000000000000000000000000000000000000000000000000000000000000000000000000000000000000000000000000000000000000000000000000000000000000000000000000000000000000000000000000000000000000000000000000000000000000000000000000000000000000000000000000000000000000000000000000000000000000000000000000000000000000000000000000000000000000000000000000000000000000000000000000000000000000000000000000008302000080830f4240808203b642a056e81f171bcc55a6ff8345e692c0f86e5b48e01b996cadc001622fb5e363b421880102030405060708c0c0",
        "lastblockhash" : "0x9ecffb9f1721bed939f33b2bcca74ea9d601c9eea1d422011f70ca6ebbd60a5d",
        "network" : "EIP158",
        "postState" : {
            "0x0000000000000000000000000000000000000000" : {
                "balance" : "0x01",
                "code" : "",
                "nonce" : "0x00",
                "storage" : {
                }
            },
            "0x2adc25665018aa1fe0e6bc666dac8fc2697ff9ba" : {
                "balance" : "0x4563918244f45208",
                "code" : "",
                "nonce" : "0x00",
                "storage" : {
                }
            },
            "0xa94f5374fce5edbc8e2a8697c15331677e6ebf0b" : {
                "balance" : "0x013497",
                "code" : "",
                "nonce" : "0x01",
                "storage" : {
                }
            }
        },
        "pre" : {
            "0xa94f5374fce5edbc8e2a8697c15331677e6ebf0b" : {
                "balance" : "0x0186a0",
                "code" : "",
                "nonce" : "0x00",
                "storage" : {
                }
            }
        }
    },
    "TransactionSendingToZero_d0g0v0_Frontier" : {
        "_info" : {
            "comment" : "",
            "filledwith" : "cpp-1.3.0+commit.6e0ce939.Linux.g++",
            "lllcversion" : "Version: 0.4.18-develop.2017.9.25+commit.a72237f2.Linux.g++",
            "source" : "src/BlockchainTestsFiller/GeneralStateTests/stTransactionTest/TransactionSendingToZero_d0g0v0Filler.json",
            "sourceHash" : "e4d6d0e99af4a62801e8f71dfefb0a63208f4f9b6ab5a67eca66a9f063dfa043"
        },
        "blocks" : [
            {
                "blockHeader" : {
                    "bloom" : "0x00000000000000000000000000000000000000000000000000000000000000000000000000000000000000000000000000000000000000000000000000000000000000000000000000000000000000000000000000000000000000000000000000000000000000000000000000000000000000000000000000000000000000000000000000000000000000000000000000000000000000000000000000000000000000000000000000000000000000000000000000000000000000000000000000000000000000000000000000000000000000000000000000000000000000000000000000000000000000000000000000000000000000000000000000000000",
                    "coinbase" : "0x2adc25665018aa1fe0e6bc666dac8fc2697ff9ba",
                    "difficulty" : "0x020000",
                    "extraData" : "",
                    "gasLimit" : "0x0f4240",
                    "gasUsed" : "0x5208",
                    "hash" : "0xc5d053b033c34e694cba96adfacb6c3eba3bac2aedafadccc283b37373bacd78",
                    "mixHash" : "0x553073c587548900ff074db59b35c1748c14c613a814c4dc0bbb012124e1c87c",
                    "nonce" : "0xcbfaf2a03f48f4bd",
                    "number" : "0x01",
                    "parentHash" : "0xa35295e248019d92600a60b59a979ce901ef66ecce774eb31fa3455fade18546",
                    "receiptTrie" : "0x6878323b82ba45a87dc96b25f229bbeb158c6fd01d3bde6c92da350fbeb77165",
                    "stateRoot" : "0x8998b3c490fc8aedd7555558f2107b073fe20d3d84d7dc3942fd18a8e228c0a5",
                    "timestamp" : "0x03e8",
                    "transactionsTrie" : "0x6aa1c347c8687861c3290e99ef8b22fbe580c7b1a40766620103ff0f0f62aaed",
                    "uncleHash" : "0x1dcc4de8dec75d7aab85b567b6ccd41ad312451b948a7413f0a142fd40d49347"
                },
                "rlp" : "0xf9025ef901f7a0a35295e248019d92600a60b59a979ce901ef66ecce774eb31fa3455fade18546a01dcc4de8dec75d7aab85b567b6ccd41ad312451b948a7413f0a142fd40d49347942adc25665018aa1fe0e6bc666dac8fc2697ff9baa08998b3c490fc8aedd7555558f2107b073fe20d3d84d7dc3942fd18a8e228c0a5a06aa1c347c8687861c3290e99ef8b22fbe580c7b1a40766620103ff0f0f62aaeda06878323b82ba45a87dc96b25f229bbeb158c6fd01d3bde6c92da350fbeb77165b90100000000000000000000000000000000000000000000000000000000000000000000000000000000000000000000000000000000000000000000000000000000000000000000000000000000000000000000000000000000000000000000000000000000000000000000000000000000000000000000000000000000000000000000000000000000000000000000000000000000000000000000000000000000000000000000000000000000000000000000000000000000000000000000000000000000000000000000000000000000000000000000000000000000000000000000000000000000000000000000000000000000000000000000000000000000008302000001830f42408252088203e880a0553073c587548900ff074db59b35c1748c14c613a814c4dc0bbb012124e1c87c88cbfaf2a03f48f4bdf861f85f80018261a894000000000000000000000000000000000000000001801ca02c9d3aaa3ff7df69c3da528262ea2cbba9ebb24b8719ea5fb245e76c8b773636a0228c9a77bddc22e6cdde47c6c78a63ab002869db7370c132e07273ec4e9d54a3c0",
                "transactions" : [
                    {
                        "data" : "",
                        "gasLimit" : "0x61a8",
                        "gasPrice" : "0x01",
                        "nonce" : "0x00",
                        "r" : "0x2c9d3aaa3ff7df69c3da528262ea2cbba9ebb24b8719ea5fb245e76c8b773636",
                        "s" : "0x228c9a77bddc22e6cdde47c6c78a63ab002869db7370c132e07273ec4e9d54a3",
                        "to" : "0x0000000000000000000000000000000000000000",
                        "v" : "0x1c",
                        "value" : "0x01"
                    }
                ],
                "uncleHeaders" : [
                ]
            }
        ],
        "genesisBlockHeader" : {
            "bloom" : "0x00000000000000000000000000000000000000000000000000000000000000000000000000000000000000000000000000000000000000000000000000000000000000000000000000000000000000000000000000000000000000000000000000000000000000000000000000000000000000000000000000000000000000000000000000000000000000000000000000000000000000000000000000000000000000000000000000000000000000000000000000000000000000000000000000000000000000000000000000000000000000000000000000000000000000000000000000000000000000000000000000000000000000000000000000000000",
            "coinbase" : "0x2adc25665018aa1fe0e6bc666dac8fc2697ff9ba",
            "difficulty" : "0x020000",
            "extraData" : "0x42",
            "gasLimit" : "0x0f4240",
            "gasUsed" : "0x00",
            "hash" : "0xa35295e248019d92600a60b59a979ce901ef66ecce774eb31fa3455fade18546",
            "mixHash" : "0x56e81f171bcc55a6ff8345e692c0f86e5b48e01b996cadc001622fb5e363b421",
            "nonce" : "0x0102030405060708",
            "number" : "0x00",
            "parentHash" : "0x0000000000000000000000000000000000000000000000000000000000000000",
            "receiptTrie" : "0x56e81f171bcc55a6ff8345e692c0f86e5b48e01b996cadc001622fb5e363b421",
            "stateRoot" : "0xa3e1c133a5a51b03399ed9ad0380f3182e9e18322f232b816dd4b9094f871e1b",
            "timestamp" : "0x03b6",
            "transactionsTrie" : "0x56e81f171bcc55a6ff8345e692c0f86e5b48e01b996cadc001622fb5e363b421",
            "uncleHash" : "0x1dcc4de8dec75d7aab85b567b6ccd41ad312451b948a7413f0a142fd40d49347"
        },
        "genesisRLP" : "0xf901faf901f5a00000000000000000000000000000000000000000000000000000000000000000a01dcc4de8dec75d7aab85b567b6ccd41ad312451b948a7413f0a142fd40d49347942adc25665018aa1fe0e6bc666dac8fc2697ff9baa0a3e1c133a5a51b03399ed9ad0380f3182e9e18322f232b816dd4b9094f871e1ba056e81f171bcc55a6ff8345e692c0f86e5b48e01b996cadc001622fb5e363b421a056e81f171bcc55a6ff8345e692c0f86e5b48e01b996cadc001622fb5e363b421b90100000000000000000000000000000000000000000000000000000000000000000000000000000000000000000000000000000000000000000000000000000000000000000000000000000000000000000000000000000000000000000000000000000000000000000000000000000000000000000000000000000000000000000000000000000000000000000000000000000000000000000000000000000000000000000000000000000000000000000000000000000000000000000000000000000000000000000000000000000000000000000000000000000000000000000000000000000000000000000000000000000000000000000000000000000000008302000080830f4240808203b642a056e81f171bcc55a6ff8345e692c0f86e5b48e01b996cadc001622fb5e363b421880102030405060708c0c0",
        "lastblockhash" : "0xc5d053b033c34e694cba96adfacb6c3eba3bac2aedafadccc283b37373bacd78",
        "network" : "Frontier",
        "postState" : {
            "0x0000000000000000000000000000000000000000" : {
                "balance" : "0x01",
                "code" : "",
                "nonce" : "0x00",
                "storage" : {
                }
            },
            "0x2adc25665018aa1fe0e6bc666dac8fc2697ff9ba" : {
                "balance" : "0x4563918244f45208",
                "code" : "",
                "nonce" : "0x00",
                "storage" : {
                }
            },
            "0xa94f5374fce5edbc8e2a8697c15331677e6ebf0b" : {
                "balance" : "0x013497",
                "code" : "",
                "nonce" : "0x01",
                "storage" : {
                }
            }
        },
        "pre" : {
            "0xa94f5374fce5edbc8e2a8697c15331677e6ebf0b" : {
                "balance" : "0x0186a0",
                "code" : "",
                "nonce" : "0x00",
                "storage" : {
                }
            }
        }
    },
    "TransactionSendingToZero_d0g0v0_Homestead" : {
        "_info" : {
            "comment" : "",
            "filledwith" : "cpp-1.3.0+commit.6e0ce939.Linux.g++",
            "lllcversion" : "Version: 0.4.18-develop.2017.9.25+commit.a72237f2.Linux.g++",
            "source" : "src/BlockchainTestsFiller/GeneralStateTests/stTransactionTest/TransactionSendingToZero_d0g0v0Filler.json",
            "sourceHash" : "e4d6d0e99af4a62801e8f71dfefb0a63208f4f9b6ab5a67eca66a9f063dfa043"
        },
        "blocks" : [
            {
                "blockHeader" : {
                    "bloom" : "0x00000000000000000000000000000000000000000000000000000000000000000000000000000000000000000000000000000000000000000000000000000000000000000000000000000000000000000000000000000000000000000000000000000000000000000000000000000000000000000000000000000000000000000000000000000000000000000000000000000000000000000000000000000000000000000000000000000000000000000000000000000000000000000000000000000000000000000000000000000000000000000000000000000000000000000000000000000000000000000000000000000000000000000000000000000000",
                    "coinbase" : "0x2adc25665018aa1fe0e6bc666dac8fc2697ff9ba",
                    "difficulty" : "0x020000",
                    "extraData" : "",
                    "gasLimit" : "0x0f4240",
                    "gasUsed" : "0x5208",
                    "hash" : "0xee6ed6a353fdea9c627a0193a41125f219df151f95ac911d14b7567a16aedab4",
                    "mixHash" : "0x024b24710dad15a21d0b6c7f7d39da100456c93753c202f596f4e209481fdb23",
                    "nonce" : "0x29de2aaea21aedbc",
                    "number" : "0x01",
                    "parentHash" : "0xa35295e248019d92600a60b59a979ce901ef66ecce774eb31fa3455fade18546",
                    "receiptTrie" : "0x6878323b82ba45a87dc96b25f229bbeb158c6fd01d3bde6c92da350fbeb77165",
                    "stateRoot" : "0x8998b3c490fc8aedd7555558f2107b073fe20d3d84d7dc3942fd18a8e228c0a5",
                    "timestamp" : "0x03e8",
                    "transactionsTrie" : "0x6aa1c347c8687861c3290e99ef8b22fbe580c7b1a40766620103ff0f0f62aaed",
                    "uncleHash" : "0x1dcc4de8dec75d7aab85b567b6ccd41ad312451b948a7413f0a142fd40d49347"
                },
                "rlp" : "0xf9025ef901f7a0a35295e248019d92600a60b59a979ce901ef66ecce774eb31fa3455fade18546a01dcc4de8dec75d7aab85b567b6ccd41ad312451b948a7413f0a142fd40d49347942adc25665018aa1fe0e6bc666dac8fc2697ff9baa08998b3c490fc8aedd7555558f2107b073fe20d3d84d7dc3942fd18a8e228c0a5a06aa1c347c8687861c3290e99ef8b22fbe580c7b1a40766620103ff0f0f62aaeda06878323b82ba45a87dc96b25f229bbeb158c6fd01d3bde6c92da350fbeb77165b90100000000000000000000000000000000000000000000000000000000000000000000000000000000000000000000000000000000000000000000000000000000000000000000000000000000000000000000000000000000000000000000000000000000000000000000000000000000000000000000000000000000000000000000000000000000000000000000000000000000000000000000000000000000000000000000000000000000000000000000000000000000000000000000000000000000000000000000000000000000000000000000000000000000000000000000000000000000000000000000000000000000000000000000000000000000008302000001830f42408252088203e880a0024b24710dad15a21d0b6c7f7d39da100456c93753c202f596f4e209481fdb238829de2aaea21aedbcf861f85f80018261a894000000000000000000000000000000000000000001801ca02c9d3aaa3ff7df69c3da528262ea2cbba9ebb24b8719ea5fb245e76c8b773636a0228c9a77bddc22e6cdde47c6c78a63ab002869db7370c132e07273ec4e9d54a3c0",
                "transactions" : [
                    {
                        "data" : "",
                        "gasLimit" : "0x61a8",
                        "gasPrice" : "0x01",
                        "nonce" : "0x00",
                        "r" : "0x2c9d3aaa3ff7df69c3da528262ea2cbba9ebb24b8719ea5fb245e76c8b773636",
                        "s" : "0x228c9a77bddc22e6cdde47c6c78a63ab002869db7370c132e07273ec4e9d54a3",
                        "to" : "0x0000000000000000000000000000000000000000",
                        "v" : "0x1c",
                        "value" : "0x01"
                    }
                ],
                "uncleHeaders" : [
                ]
            }
        ],
        "genesisBlockHeader" : {
            "bloom" : "0x00000000000000000000000000000000000000000000000000000000000000000000000000000000000000000000000000000000000000000000000000000000000000000000000000000000000000000000000000000000000000000000000000000000000000000000000000000000000000000000000000000000000000000000000000000000000000000000000000000000000000000000000000000000000000000000000000000000000000000000000000000000000000000000000000000000000000000000000000000000000000000000000000000000000000000000000000000000000000000000000000000000000000000000000000000000",
            "coinbase" : "0x2adc25665018aa1fe0e6bc666dac8fc2697ff9ba",
            "difficulty" : "0x020000",
            "extraData" : "0x42",
            "gasLimit" : "0x0f4240",
            "gasUsed" : "0x00",
            "hash" : "0xa35295e248019d92600a60b59a979ce901ef66ecce774eb31fa3455fade18546",
            "mixHash" : "0x56e81f171bcc55a6ff8345e692c0f86e5b48e01b996cadc001622fb5e363b421",
            "nonce" : "0x0102030405060708",
            "number" : "0x00",
            "parentHash" : "0x0000000000000000000000000000000000000000000000000000000000000000",
            "receiptTrie" : "0x56e81f171bcc55a6ff8345e692c0f86e5b48e01b996cadc001622fb5e363b421",
            "stateRoot" : "0xa3e1c133a5a51b03399ed9ad0380f3182e9e18322f232b816dd4b9094f871e1b",
            "timestamp" : "0x03b6",
            "transactionsTrie" : "0x56e81f171bcc55a6ff8345e692c0f86e5b48e01b996cadc001622fb5e363b421",
            "uncleHash" : "0x1dcc4de8dec75d7aab85b567b6ccd41ad312451b948a7413f0a142fd40d49347"
        },
        "genesisRLP" : "0xf901faf901f5a00000000000000000000000000000000000000000000000000000000000000000a01dcc4de8dec75d7aab85b567b6ccd41ad312451b948a7413f0a142fd40d49347942adc25665018aa1fe0e6bc666dac8fc2697ff9baa0a3e1c133a5a51b03399ed9ad0380f3182e9e18322f232b816dd4b9094f871e1ba056e81f171bcc55a6ff8345e692c0f86e5b48e01b996cadc001622fb5e363b421a056e81f171bcc55a6ff8345e692c0f86e5b48e01b996cadc001622fb5e363b421b90100000000000000000000000000000000000000000000000000000000000000000000000000000000000000000000000000000000000000000000000000000000000000000000000000000000000000000000000000000000000000000000000000000000000000000000000000000000000000000000000000000000000000000000000000000000000000000000000000000000000000000000000000000000000000000000000000000000000000000000000000000000000000000000000000000000000000000000000000000000000000000000000000000000000000000000000000000000000000000000000000000000000000000000000000000000008302000080830f4240808203b642a056e81f171bcc55a6ff8345e692c0f86e5b48e01b996cadc001622fb5e363b421880102030405060708c0c0",
        "lastblockhash" : "0xee6ed6a353fdea9c627a0193a41125f219df151f95ac911d14b7567a16aedab4",
        "network" : "Homestead",
        "postState" : {
            "0x0000000000000000000000000000000000000000" : {
                "balance" : "0x01",
                "code" : "",
                "nonce" : "0x00",
                "storage" : {
                }
            },
            "0x2adc25665018aa1fe0e6bc666dac8fc2697ff9ba" : {
                "balance" : "0x4563918244f45208",
                "code" : "",
                "nonce" : "0x00",
                "storage" : {
                }
            },
            "0xa94f5374fce5edbc8e2a8697c15331677e6ebf0b" : {
                "balance" : "0x013497",
                "code" : "",
                "nonce" : "0x01",
                "storage" : {
                }
            }
        },
        "pre" : {
            "0xa94f5374fce5edbc8e2a8697c15331677e6ebf0b" : {
                "balance" : "0x0186a0",
                "code" : "",
                "nonce" : "0x00",
                "storage" : {
                }
            }
        }
    }
}