{
    "UserTransactionZeroCost_d0g0v0_Byzantium" : {
        "_info" : {
            "comment" : "",
            "filledwith" : "cpp-1.3.0+commit.6e0ce939.Linux.g++",
            "lllcversion" : "Version: 0.4.18-develop.2017.9.25+commit.a72237f2.Linux.g++",
            "source" : "src/BlockchainTestsFiller/GeneralStateTests/stTransactionTest/UserTransactionZeroCost_d0g0v0Filler.json",
            "sourceHash" : "c4b1a5298986a473fc42ed58b946427191ca258933d91ea777b18e899370b364"
        },
        "blocks" : [
            {
                "blockHeader" : {
                    "bloom" : "0x00000000000000000000000000000000000000000000000000000000000000000000000000000000000000000000000000000000000000000000000000000000000000000000000000000000000000000000000000000000000000000000000000000000000000000000000000000000000000000000000000000000000000000000000000000000000000000000000000000000000000000000000000000000000000000000000000000000000000000000000000000000000000000000000000000000000000000000000000000000000000000000000000000000000000000000000000000000000000000000000000000000000000000000000000000000",
                    "coinbase" : "0x2adc25665018aa1fe0e6bc666dac8fc2697ff9ba",
                    "difficulty" : "0x020000",
                    "extraData" : "",
                    "gasLimit" : "0x989680",
                    "gasUsed" : "0x5208",
                    "hash" : "0x8cc8a8d730f7d8967e77139cccc65456ff2460975d93e38517524621dae323ad",
                    "mixHash" : "0x3974a8a3c661271710ae6b4ecef3e17d2c121be471a2220cfaba0e8f218aa5d4",
                    "nonce" : "0xe92dbc5f71131cc0",
                    "number" : "0x01",
                    "parentHash" : "0xad7754b94f4d1872201b382beb8a0c202814afe094d30b7845bdd39f49330697",
                    "receiptTrie" : "0x056b23fbba480696b65fe5a59b8f2148a1299103c4f57df839233af2cf4ca2d2",
                    "stateRoot" : "0xc468e7eddb5c931c9529e974f1862e157e867c9358e263589b8a31ce8bdaecac",
                    "timestamp" : "0x03e8",
                    "transactionsTrie" : "0x9b3d0b5b152f8cefa72d87b2924f193e1bc90264d79e6b6c62039d52110ee808",
                    "uncleHash" : "0x1dcc4de8dec75d7aab85b567b6ccd41ad312451b948a7413f0a142fd40d49347"
                },
                "rlp" : "0xf90260f901f7a0ad7754b94f4d1872201b382beb8a0c202814afe094d30b7845bdd39f49330697a01dcc4de8dec75d7aab85b567b6ccd41ad312451b948a7413f0a142fd40d49347942adc25665018aa1fe0e6bc666dac8fc2697ff9baa0c468e7eddb5c931c9529e974f1862e157e867c9358e263589b8a31ce8bdaecaca09b3d0b5b152f8cefa72d87b2924f193e1bc90264d79e6b6c62039d52110ee808a0056b23fbba480696b65fe5a59b8f2148a1299103c4f57df839233af2cf4ca2d2b90100000000000000000000000000000000000000000000000000000000000000000000000000000000000000000000000000000000000000000000000000000000000000000000000000000000000000000000000000000000000000000000000000000000000000000000000000000000000000000000000000000000000000000000000000000000000000000000000000000000000000000000000000000000000000000000000000000000000000000000000000000000000000000000000000000000000000000000000000000000000000000000000000000000000000000000000000000000000000000000000000000000000000000000000000000000008302000001839896808252088203e880a03974a8a3c661271710ae6b4ecef3e17d2c121be471a2220cfaba0e8f218aa5d488e92dbc5f71131cc0f863f861808082891c94b94f5374fce5edbc8e2a8697c15331677e6ebf0b820384801ba018901e14391533304b51e748a49ce73d28d6dd6ec08edee23e27a8adea24698fa04848ca6f6396a96b507143738a46fc562bcf4dac1e2067e6c5471e93322f507dc0",
                "transactions" : [
                    {
                        "data" : "",
                        "gasLimit" : "0x891c",
                        "gasPrice" : "0x00",
                        "nonce" : "0x00",
                        "r" : "0x18901e14391533304b51e748a49ce73d28d6dd6ec08edee23e27a8adea24698f",
                        "s" : "0x4848ca6f6396a96b507143738a46fc562bcf4dac1e2067e6c5471e93322f507d",
                        "to" : "0xb94f5374fce5edbc8e2a8697c15331677e6ebf0b",
                        "v" : "0x1b",
                        "value" : "0x0384"
                    }
                ],
                "uncleHeaders" : [
                ]
            }
        ],
        "genesisBlockHeader" : {
            "bloom" : "0x00000000000000000000000000000000000000000000000000000000000000000000000000000000000000000000000000000000000000000000000000000000000000000000000000000000000000000000000000000000000000000000000000000000000000000000000000000000000000000000000000000000000000000000000000000000000000000000000000000000000000000000000000000000000000000000000000000000000000000000000000000000000000000000000000000000000000000000000000000000000000000000000000000000000000000000000000000000000000000000000000000000000000000000000000000000",
            "coinbase" : "0x2adc25665018aa1fe0e6bc666dac8fc2697ff9ba",
            "difficulty" : "0x020000",
            "extraData" : "0x42",
            "gasLimit" : "0x989680",
            "gasUsed" : "0x00",
            "hash" : "0xad7754b94f4d1872201b382beb8a0c202814afe094d30b7845bdd39f49330697",
            "mixHash" : "0x56e81f171bcc55a6ff8345e692c0f86e5b48e01b996cadc001622fb5e363b421",
            "nonce" : "0x0102030405060708",
            "number" : "0x00",
            "parentHash" : "0x0000000000000000000000000000000000000000000000000000000000000000",
            "receiptTrie" : "0x56e81f171bcc55a6ff8345e692c0f86e5b48e01b996cadc001622fb5e363b421",
            "stateRoot" : "0x49a138558457f1bd05bfedb71b03fdc742c26ef09fa3862f643c81246d105f60",
            "timestamp" : "0x03b6",
            "transactionsTrie" : "0x56e81f171bcc55a6ff8345e692c0f86e5b48e01b996cadc001622fb5e363b421",
            "uncleHash" : "0x1dcc4de8dec75d7aab85b567b6ccd41ad312451b948a7413f0a142fd40d49347"
        },
        "genesisRLP" : "0xf901faf901f5a00000000000000000000000000000000000000000000000000000000000000000a01dcc4de8dec75d7aab85b567b6ccd41ad312451b948a7413f0a142fd40d49347942adc25665018aa1fe0e6bc666dac8fc2697ff9baa049a138558457f1bd05bfedb71b03fdc742c26ef09fa3862f643c81246d105f60a056e81f171bcc55a6ff8345e692c0f86e5b48e01b996cadc001622fb5e363b421a056e81f171bcc55a6ff8345e692c0f86e5b48e01b996cadc001622fb5e363b421b9010000000000000000000000000000000000000000000000000000000000000000000000000000000000000000000000000000000000000000000000000000000000000000000000000000000000000000000000000000000000000000000000000000000000000000000000000000000000000000000000000000000000000000000000000000000000000000000000000000000000000000000000000000000000000000000000000000000000000000000000000000000000000000000000000000000000000000000000000000000000000000000000000000000000000000000000000000000000000000000000000000000000000000000000000000000000830200008083989680808203b642a056e81f171bcc55a6ff8345e692c0f86e5b48e01b996cadc001622fb5e363b421880102030405060708c0c0",
        "lastblockhash" : "0x8cc8a8d730f7d8967e77139cccc65456ff2460975d93e38517524621dae323ad",
        "network" : "Byzantium",
        "postState" : {
            "0x2adc25665018aa1fe0e6bc666dac8fc2697ff9ba" : {
                "balance" : "0x29a2241af62c0000",
                "code" : "",
                "nonce" : "0x00",
                "storage" : {
                }
            },
            "0xa94f5374fce5edbc8e2a8697c15331677e6ebf0b" : {
                "balance" : "0xa474",
                "code" : "",
                "nonce" : "0x01",
                "storage" : {
                }
            },
            "0xb94f5374fce5edbc8e2a8697c15331677e6ebf0b" : {
                "balance" : "0x0384",
                "code" : "",
                "nonce" : "0x00",
                "storage" : {
                }
            }
        },
        "pre" : {
            "0xa94f5374fce5edbc8e2a8697c15331677e6ebf0b" : {
                "balance" : "0xa7f8",
                "code" : "",
                "nonce" : "0x00",
                "storage" : {
                }
            }
        }
    },
    "UserTransactionZeroCost_d0g0v0_EIP150" : {
        "_info" : {
            "comment" : "",
            "filledwith" : "cpp-1.3.0+commit.6e0ce939.Linux.g++",
            "lllcversion" : "Version: 0.4.18-develop.2017.9.25+commit.a72237f2.Linux.g++",
            "source" : "src/BlockchainTestsFiller/GeneralStateTests/stTransactionTest/UserTransactionZeroCost_d0g0v0Filler.json",
            "sourceHash" : "c4b1a5298986a473fc42ed58b946427191ca258933d91ea777b18e899370b364"
        },
        "blocks" : [
            {
                "blockHeader" : {
                    "bloom" : "0x00000000000000000000000000000000000000000000000000000000000000000000000000000000000000000000000000000000000000000000000000000000000000000000000000000000000000000000000000000000000000000000000000000000000000000000000000000000000000000000000000000000000000000000000000000000000000000000000000000000000000000000000000000000000000000000000000000000000000000000000000000000000000000000000000000000000000000000000000000000000000000000000000000000000000000000000000000000000000000000000000000000000000000000000000000000",
                    "coinbase" : "0x2adc25665018aa1fe0e6bc666dac8fc2697ff9ba",
                    "difficulty" : "0x020000",
                    "extraData" : "",
                    "gasLimit" : "0x989680",
                    "gasUsed" : "0x5208",
                    "hash" : "0xaa8889c8b9748db04d0ba8f09bdea067e86756a1304298145d4d2afba3b44458",
                    "mixHash" : "0x11d8c08f0a808659e25c31c2e42397c71c0bfedfe3af292b77f8f2abf40da555",
                    "nonce" : "0x5b26fb5d1e3879fd",
                    "number" : "0x01",
                    "parentHash" : "0xad7754b94f4d1872201b382beb8a0c202814afe094d30b7845bdd39f49330697",
                    "receiptTrie" : "0xbc08b128ed689b88c562b86cdc9994a85c36ba23473fe1187d9ac8c22b612a8d",
                    "stateRoot" : "0xd6dbb855c3ac219c7f498886343bc91b4aa15932755dda2caffa4950dbba2293",
                    "timestamp" : "0x03e8",
                    "transactionsTrie" : "0x9b3d0b5b152f8cefa72d87b2924f193e1bc90264d79e6b6c62039d52110ee808",
                    "uncleHash" : "0x1dcc4de8dec75d7aab85b567b6ccd41ad312451b948a7413f0a142fd40d49347"
                },
                "rlp" : "0xf90260f901f7a0ad7754b94f4d1872201b382beb8a0c202814afe094d30b7845bdd39f49330697a01dcc4de8dec75d7aab85b567b6ccd41ad312451b948a7413f0a142fd40d49347942adc25665018aa1fe0e6bc666dac8fc2697ff9baa0d6dbb855c3ac219c7f498886343bc91b4aa15932755dda2caffa4950dbba2293a09b3d0b5b152f8cefa72d87b2924f193e1bc90264d79e6b6c62039d52110ee808a0bc08b128ed689b88c562b86cdc9994a85c36ba23473fe1187d9ac8c22b612a8db90100000000000000000000000000000000000000000000000000000000000000000000000000000000000000000000000000000000000000000000000000000000000000000000000000000000000000000000000000000000000000000000000000000000000000000000000000000000000000000000000000000000000000000000000000000000000000000000000000000000000000000000000000000000000000000000000000000000000000000000000000000000000000000000000000000000000000000000000000000000000000000000000000000000000000000000000000000000000000000000000000000000000000000000000000000000008302000001839896808252088203e880a011d8c08f0a808659e25c31c2e42397c71c0bfedfe3af292b77f8f2abf40da555885b26fb5d1e3879fdf863f861808082891c94b94f5374fce5edbc8e2a8697c15331677e6ebf0b820384801ba018901e14391533304b51e748a49ce73d28d6dd6ec08edee23e27a8adea24698fa04848ca6f6396a96b507143738a46fc562bcf4dac1e2067e6c5471e93322f507dc0",
                "transactions" : [
                    {
                        "data" : "",
                        "gasLimit" : "0x891c",
                        "gasPrice" : "0x00",
                        "nonce" : "0x00",
                        "r" : "0x18901e14391533304b51e748a49ce73d28d6dd6ec08edee23e27a8adea24698f",
                        "s" : "0x4848ca6f6396a96b507143738a46fc562bcf4dac1e2067e6c5471e93322f507d",
                        "to" : "0xb94f5374fce5edbc8e2a8697c15331677e6ebf0b",
                        "v" : "0x1b",
                        "value" : "0x0384"
                    }
                ],
                "uncleHeaders" : [
                ]
            }
        ],
        "genesisBlockHeader" : {
            "bloom" : "0x00000000000000000000000000000000000000000000000000000000000000000000000000000000000000000000000000000000000000000000000000000000000000000000000000000000000000000000000000000000000000000000000000000000000000000000000000000000000000000000000000000000000000000000000000000000000000000000000000000000000000000000000000000000000000000000000000000000000000000000000000000000000000000000000000000000000000000000000000000000000000000000000000000000000000000000000000000000000000000000000000000000000000000000000000000000",
            "coinbase" : "0x2adc25665018aa1fe0e6bc666dac8fc2697ff9ba",
            "difficulty" : "0x020000",
            "extraData" : "0x42",
            "gasLimit" : "0x989680",
            "gasUsed" : "0x00",
            "hash" : "0xad7754b94f4d1872201b382beb8a0c202814afe094d30b7845bdd39f49330697",
            "mixHash" : "0x56e81f171bcc55a6ff8345e692c0f86e5b48e01b996cadc001622fb5e363b421",
            "nonce" : "0x0102030405060708",
            "number" : "0x00",
            "parentHash" : "0x0000000000000000000000000000000000000000000000000000000000000000",
            "receiptTrie" : "0x56e81f171bcc55a6ff8345e692c0f86e5b48e01b996cadc001622fb5e363b421",
            "stateRoot" : "0x49a138558457f1bd05bfedb71b03fdc742c26ef09fa3862f643c81246d105f60",
            "timestamp" : "0x03b6",
            "transactionsTrie" : "0x56e81f171bcc55a6ff8345e692c0f86e5b48e01b996cadc001622fb5e363b421",
            "uncleHash" : "0x1dcc4de8dec75d7aab85b567b6ccd41ad312451b948a7413f0a142fd40d49347"
        },
        "genesisRLP" : "0xf901faf901f5a00000000000000000000000000000000000000000000000000000000000000000a01dcc4de8dec75d7aab85b567b6ccd41ad312451b948a7413f0a142fd40d49347942adc25665018aa1fe0e6bc666dac8fc2697ff9baa049a138558457f1bd05bfedb71b03fdc742c26ef09fa3862f643c81246d105f60a056e81f171bcc55a6ff8345e692c0f86e5b48e01b996cadc001622fb5e363b421a056e81f171bcc55a6ff8345e692c0f86e5b48e01b996cadc001622fb5e363b421b9010000000000000000000000000000000000000000000000000000000000000000000000000000000000000000000000000000000000000000000000000000000000000000000000000000000000000000000000000000000000000000000000000000000000000000000000000000000000000000000000000000000000000000000000000000000000000000000000000000000000000000000000000000000000000000000000000000000000000000000000000000000000000000000000000000000000000000000000000000000000000000000000000000000000000000000000000000000000000000000000000000000000000000000000000000000000830200008083989680808203b642a056e81f171bcc55a6ff8345e692c0f86e5b48e01b996cadc001622fb5e363b421880102030405060708c0c0",
        "lastblockhash" : "0xaa8889c8b9748db04d0ba8f09bdea067e86756a1304298145d4d2afba3b44458",
        "network" : "EIP150",
        "postState" : {
            "0x2adc25665018aa1fe0e6bc666dac8fc2697ff9ba" : {
                "balance" : "0x4563918244f40000",
                "code" : "",
                "nonce" : "0x00",
                "storage" : {
                }
            },
            "0xa94f5374fce5edbc8e2a8697c15331677e6ebf0b" : {
                "balance" : "0xa474",
                "code" : "",
                "nonce" : "0x01",
                "storage" : {
                }
            },
            "0xb94f5374fce5edbc8e2a8697c15331677e6ebf0b" : {
                "balance" : "0x0384",
                "code" : "",
                "nonce" : "0x00",
                "storage" : {
                }
            }
        },
        "pre" : {
            "0xa94f5374fce5edbc8e2a8697c15331677e6ebf0b" : {
                "balance" : "0xa7f8",
                "code" : "",
                "nonce" : "0x00",
                "storage" : {
                }
            }
        }
    },
    "UserTransactionZeroCost_d0g0v0_EIP158" : {
        "_info" : {
            "comment" : "",
            "filledwith" : "cpp-1.3.0+commit.6e0ce939.Linux.g++",
            "lllcversion" : "Version: 0.4.18-develop.2017.9.25+commit.a72237f2.Linux.g++",
            "source" : "src/BlockchainTestsFiller/GeneralStateTests/stTransactionTest/UserTransactionZeroCost_d0g0v0Filler.json",
            "sourceHash" : "c4b1a5298986a473fc42ed58b946427191ca258933d91ea777b18e899370b364"
        },
        "blocks" : [
            {
                "blockHeader" : {
                    "bloom" : "0x00000000000000000000000000000000000000000000000000000000000000000000000000000000000000000000000000000000000000000000000000000000000000000000000000000000000000000000000000000000000000000000000000000000000000000000000000000000000000000000000000000000000000000000000000000000000000000000000000000000000000000000000000000000000000000000000000000000000000000000000000000000000000000000000000000000000000000000000000000000000000000000000000000000000000000000000000000000000000000000000000000000000000000000000000000000",
                    "coinbase" : "0x2adc25665018aa1fe0e6bc666dac8fc2697ff9ba",
                    "difficulty" : "0x020000",
                    "extraData" : "",
                    "gasLimit" : "0x989680",
                    "gasUsed" : "0x5208",
                    "hash" : "0xfecd7e69b194b31f234a702b4cd43cb0e2904df207e61352693df1713e9cdd67",
                    "mixHash" : "0xe9a21df880fbb5040a8d173c86fd2fd47e2b1f400067d7a3465833860d60e8ef",
                    "nonce" : "0x47e849dba6f38aef",
                    "number" : "0x01",
                    "parentHash" : "0xad7754b94f4d1872201b382beb8a0c202814afe094d30b7845bdd39f49330697",
                    "receiptTrie" : "0x53c2370688a680c1910195dd8fa0739b6a3032231507e2c4e47ba6f2f127c53b",
                    "stateRoot" : "0xd6dbb855c3ac219c7f498886343bc91b4aa15932755dda2caffa4950dbba2293",
                    "timestamp" : "0x03e8",
                    "transactionsTrie" : "0x9b3d0b5b152f8cefa72d87b2924f193e1bc90264d79e6b6c62039d52110ee808",
                    "uncleHash" : "0x1dcc4de8dec75d7aab85b567b6ccd41ad312451b948a7413f0a142fd40d49347"
                },
                "rlp" : "0xf90260f901f7a0ad7754b94f4d1872201b382beb8a0c202814afe094d30b7845bdd39f49330697a01dcc4de8dec75d7aab85b567b6ccd41ad312451b948a7413f0a142fd40d49347942adc25665018aa1fe0e6bc666dac8fc2697ff9baa0d6dbb855c3ac219c7f498886343bc91b4aa15932755dda2caffa4950dbba2293a09b3d0b5b152f8cefa72d87b2924f193e1bc90264d79e6b6c62039d52110ee808a053c2370688a680c1910195dd8fa0739b6a3032231507e2c4e47ba6f2f127c53bb90100000000000000000000000000000000000000000000000000000000000000000000000000000000000000000000000000000000000000000000000000000000000000000000000000000000000000000000000000000000000000000000000000000000000000000000000000000000000000000000000000000000000000000000000000000000000000000000000000000000000000000000000000000000000000000000000000000000000000000000000000000000000000000000000000000000000000000000000000000000000000000000000000000000000000000000000000000000000000000000000000000000000000000000000000000000008302000001839896808252088203e880a0e9a21df880fbb5040a8d173c86fd2fd47e2b1f400067d7a3465833860d60e8ef8847e849dba6f38aeff863f861808082891c94b94f5374fce5edbc8e2a8697c15331677e6ebf0b820384801ba018901e14391533304b51e748a49ce73d28d6dd6ec08edee23e27a8adea24698fa04848ca6f6396a96b507143738a46fc562bcf4dac1e2067e6c5471e93322f507dc0",
                "transactions" : [
                    {
                        "data" : "",
                        "gasLimit" : "0x891c",
                        "gasPrice" : "0x00",
                        "nonce" : "0x00",
                        "r" : "0x18901e14391533304b51e748a49ce73d28d6dd6ec08edee23e27a8adea24698f",
                        "s" : "0x4848ca6f6396a96b507143738a46fc562bcf4dac1e2067e6c5471e93322f507d",
                        "to" : "0xb94f5374fce5edbc8e2a8697c15331677e6ebf0b",
                        "v" : "0x1b",
                        "value" : "0x0384"
                    }
                ],
                "uncleHeaders" : [
                ]
            }
        ],
        "genesisBlockHeader" : {
            "bloom" : "0x00000000000000000000000000000000000000000000000000000000000000000000000000000000000000000000000000000000000000000000000000000000000000000000000000000000000000000000000000000000000000000000000000000000000000000000000000000000000000000000000000000000000000000000000000000000000000000000000000000000000000000000000000000000000000000000000000000000000000000000000000000000000000000000000000000000000000000000000000000000000000000000000000000000000000000000000000000000000000000000000000000000000000000000000000000000",
            "coinbase" : "0x2adc25665018aa1fe0e6bc666dac8fc2697ff9ba",
            "difficulty" : "0x020000",
            "extraData" : "0x42",
            "gasLimit" : "0x989680",
            "gasUsed" : "0x00",
            "hash" : "0xad7754b94f4d1872201b382beb8a0c202814afe094d30b7845bdd39f49330697",
            "mixHash" : "0x56e81f171bcc55a6ff8345e692c0f86e5b48e01b996cadc001622fb5e363b421",
            "nonce" : "0x0102030405060708",
            "number" : "0x00",
            "parentHash" : "0x0000000000000000000000000000000000000000000000000000000000000000",
            "receiptTrie" : "0x56e81f171bcc55a6ff8345e692c0f86e5b48e01b996cadc001622fb5e363b421",
            "stateRoot" : "0x49a138558457f1bd05bfedb71b03fdc742c26ef09fa3862f643c81246d105f60",
            "timestamp" : "0x03b6",
            "transactionsTrie" : "0x56e81f171bcc55a6ff8345e692c0f86e5b48e01b996cadc001622fb5e363b421",
            "uncleHash" : "0x1dcc4de8dec75d7aab85b567b6ccd41ad312451b948a7413f0a142fd40d49347"
        },
        "genesisRLP" : "0xf901faf901f5a00000000000000000000000000000000000000000000000000000000000000000a01dcc4de8dec75d7aab85b567b6ccd41ad312451b948a7413f0a142fd40d49347942adc25665018aa1fe0e6bc666dac8fc2697ff9baa049a138558457f1bd05bfedb71b03fdc742c26ef09fa3862f643c81246d105f60a056e81f171bcc55a6ff8345e692c0f86e5b48e01b996cadc001622fb5e363b421a056e81f171bcc55a6ff8345e692c0f86e5b48e01b996cadc001622fb5e363b421b9010000000000000000000000000000000000000000000000000000000000000000000000000000000000000000000000000000000000000000000000000000000000000000000000000000000000000000000000000000000000000000000000000000000000000000000000000000000000000000000000000000000000000000000000000000000000000000000000000000000000000000000000000000000000000000000000000000000000000000000000000000000000000000000000000000000000000000000000000000000000000000000000000000000000000000000000000000000000000000000000000000000000000000000000000000000000830200008083989680808203b642a056e81f171bcc55a6ff8345e692c0f86e5b48e01b996cadc001622fb5e363b421880102030405060708c0c0",
        "lastblockhash" : "0xfecd7e69b194b31f234a702b4cd43cb0e2904df207e61352693df1713e9cdd67",
        "network" : "EIP158",
        "postState" : {
            "0x2adc25665018aa1fe0e6bc666dac8fc2697ff9ba" : {
                "balance" : "0x4563918244f40000",
                "code" : "",
                "nonce" : "0x00",
                "storage" : {
                }
            },
            "0xa94f5374fce5edbc8e2a8697c15331677e6ebf0b" : {
                "balance" : "0xa474",
                "code" : "",
                "nonce" : "0x01",
                "storage" : {
                }
            },
            "0xb94f5374fce5edbc8e2a8697c15331677e6ebf0b" : {
                "balance" : "0x0384",
                "code" : "",
                "nonce" : "0x00",
                "storage" : {
                }
            }
        },
        "pre" : {
            "0xa94f5374fce5edbc8e2a8697c15331677e6ebf0b" : {
                "balance" : "0xa7f8",
                "code" : "",
                "nonce" : "0x00",
                "storage" : {
                }
            }
        }
    },
    "UserTransactionZeroCost_d0g0v0_Frontier" : {
        "_info" : {
            "comment" : "",
            "filledwith" : "cpp-1.3.0+commit.6e0ce939.Linux.g++",
            "lllcversion" : "Version: 0.4.18-develop.2017.9.25+commit.a72237f2.Linux.g++",
            "source" : "src/BlockchainTestsFiller/GeneralStateTests/stTransactionTest/UserTransactionZeroCost_d0g0v0Filler.json",
            "sourceHash" : "c4b1a5298986a473fc42ed58b946427191ca258933d91ea777b18e899370b364"
        },
        "blocks" : [
            {
                "blockHeader" : {
                    "bloom" : "0x00000000000000000000000000000000000000000000000000000000000000000000000000000000000000000000000000000000000000000000000000000000000000000000000000000000000000000000000000000000000000000000000000000000000000000000000000000000000000000000000000000000000000000000000000000000000000000000000000000000000000000000000000000000000000000000000000000000000000000000000000000000000000000000000000000000000000000000000000000000000000000000000000000000000000000000000000000000000000000000000000000000000000000000000000000000",
                    "coinbase" : "0x2adc25665018aa1fe0e6bc666dac8fc2697ff9ba",
                    "difficulty" : "0x020000",
                    "extraData" : "",
                    "gasLimit" : "0x989680",
                    "gasUsed" : "0x5208",
                    "hash" : "0x3d023abc1ada0d2cda2e6ea6087fce9ca9a527158f955c4bb1a19f785d6d5979",
                    "mixHash" : "0x007f9045ad4ef475b28efaa84b93afafafe39c90eb61c043eee8d35f5c300594",
                    "nonce" : "0x0d86f05319b25087",
                    "number" : "0x01",
                    "parentHash" : "0xad7754b94f4d1872201b382beb8a0c202814afe094d30b7845bdd39f49330697",
                    "receiptTrie" : "0xbc08b128ed689b88c562b86cdc9994a85c36ba23473fe1187d9ac8c22b612a8d",
                    "stateRoot" : "0xd6dbb855c3ac219c7f498886343bc91b4aa15932755dda2caffa4950dbba2293",
                    "timestamp" : "0x03e8",
                    "transactionsTrie" : "0x9b3d0b5b152f8cefa72d87b2924f193e1bc90264d79e6b6c62039d52110ee808",
                    "uncleHash" : "0x1dcc4de8dec75d7aab85b567b6ccd41ad312451b948a7413f0a142fd40d49347"
                },
                "rlp" : "0xf90260f901f7a0ad7754b94f4d1872201b382beb8a0c202814afe094d30b7845bdd39f49330697a01dcc4de8dec75d7aab85b567b6ccd41ad312451b948a7413f0a142fd40d49347942adc25665018aa1fe0e6bc666dac8fc2697ff9baa0d6dbb855c3ac219c7f498886343bc91b4aa15932755dda2caffa4950dbba2293a09b3d0b5b152f8cefa72d87b2924f193e1bc90264d79e6b6c62039d52110ee808a0bc08b128ed689b88c562b86cdc9994a85c36ba23473fe1187d9ac8c22b612a8db90100000000000000000000000000000000000000000000000000000000000000000000000000000000000000000000000000000000000000000000000000000000000000000000000000000000000000000000000000000000000000000000000000000000000000000000000000000000000000000000000000000000000000000000000000000000000000000000000000000000000000000000000000000000000000000000000000000000000000000000000000000000000000000000000000000000000000000000000000000000000000000000000000000000000000000000000000000000000000000000000000000000000000000000000000000000008302000001839896808252088203e880a0007f9045ad4ef475b28efaa84b93afafafe39c90eb61c043eee8d35f5c300594880d86f05319b25087f863f861808082891c94b94f5374fce5edbc8e2a8697c15331677e6ebf0b820384801ba018901e14391533304b51e748a49ce73d28d6dd6ec08edee23e27a8adea24698fa04848ca6f6396a96b507143738a46fc562bcf4dac1e2067e6c5471e93322f507dc0",
                "transactions" : [
                    {
                        "data" : "",
                        "gasLimit" : "0x891c",
                        "gasPrice" : "0x00",
                        "nonce" : "0x00",
                        "r" : "0x18901e14391533304b51e748a49ce73d28d6dd6ec08edee23e27a8adea24698f",
                        "s" : "0x4848ca6f6396a96b507143738a46fc562bcf4dac1e2067e6c5471e93322f507d",
                        "to" : "0xb94f5374fce5edbc8e2a8697c15331677e6ebf0b",
                        "v" : "0x1b",
                        "value" : "0x0384"
                    }
                ],
                "uncleHeaders" : [
                ]
            }
        ],
        "genesisBlockHeader" : {
            "bloom" : "0x00000000000000000000000000000000000000000000000000000000000000000000000000000000000000000000000000000000000000000000000000000000000000000000000000000000000000000000000000000000000000000000000000000000000000000000000000000000000000000000000000000000000000000000000000000000000000000000000000000000000000000000000000000000000000000000000000000000000000000000000000000000000000000000000000000000000000000000000000000000000000000000000000000000000000000000000000000000000000000000000000000000000000000000000000000000",
            "coinbase" : "0x2adc25665018aa1fe0e6bc666dac8fc2697ff9ba",
            "difficulty" : "0x020000",
            "extraData" : "0x42",
            "gasLimit" : "0x989680",
            "gasUsed" : "0x00",
            "hash" : "0xad7754b94f4d1872201b382beb8a0c202814afe094d30b7845bdd39f49330697",
            "mixHash" : "0x56e81f171bcc55a6ff8345e692c0f86e5b48e01b996cadc001622fb5e363b421",
            "nonce" : "0x0102030405060708",
            "number" : "0x00",
            "parentHash" : "0x0000000000000000000000000000000000000000000000000000000000000000",
            "receiptTrie" : "0x56e81f171bcc55a6ff8345e692c0f86e5b48e01b996cadc001622fb5e363b421",
            "stateRoot" : "0x49a138558457f1bd05bfedb71b03fdc742c26ef09fa3862f643c81246d105f60",
            "timestamp" : "0x03b6",
            "transactionsTrie" : "0x56e81f171bcc55a6ff8345e692c0f86e5b48e01b996cadc001622fb5e363b421",
            "uncleHash" : "0x1dcc4de8dec75d7aab85b567b6ccd41ad312451b948a7413f0a142fd40d49347"
        },
        "genesisRLP" : "0xf901faf901f5a00000000000000000000000000000000000000000000000000000000000000000a01dcc4de8dec75d7aab85b567b6ccd41ad312451b948a7413f0a142fd40d49347942adc25665018aa1fe0e6bc666dac8fc2697ff9baa049a138558457f1bd05bfedb71b03fdc742c26ef09fa3862f643c81246d105f60a056e81f171bcc55a6ff8345e692c0f86e5b48e01b996cadc001622fb5e363b421a056e81f171bcc55a6ff8345e692c0f86e5b48e01b996cadc001622fb5e363b421b9010000000000000000000000000000000000000000000000000000000000000000000000000000000000000000000000000000000000000000000000000000000000000000000000000000000000000000000000000000000000000000000000000000000000000000000000000000000000000000000000000000000000000000000000000000000000000000000000000000000000000000000000000000000000000000000000000000000000000000000000000000000000000000000000000000000000000000000000000000000000000000000000000000000000000000000000000000000000000000000000000000000000000000000000000000000000830200008083989680808203b642a056e81f171bcc55a6ff8345e692c0f86e5b48e01b996cadc001622fb5e363b421880102030405060708c0c0",
        "lastblockhash" : "0x3d023abc1ada0d2cda2e6ea6087fce9ca9a527158f955c4bb1a19f785d6d5979",
        "network" : "Frontier",
        "postState" : {
            "0x2adc25665018aa1fe0e6bc666dac8fc2697ff9ba" : {
                "balance" : "0x4563918244f40000",
                "code" : "",
                "nonce" : "0x00",
                "storage" : {
                }
            },
            "0xa94f5374fce5edbc8e2a8697c15331677e6ebf0b" : {
                "balance" : "0xa474",
                "code" : "",
                "nonce" : "0x01",
                "storage" : {
                }
            },
            "0xb94f5374fce5edbc8e2a8697c15331677e6ebf0b" : {
                "balance" : "0x0384",
                "code" : "",
                "nonce" : "0x00",
                "storage" : {
                }
            }
        },
        "pre" : {
            "0xa94f5374fce5edbc8e2a8697c15331677e6ebf0b" : {
                "balance" : "0xa7f8",
                "code" : "",
                "nonce" : "0x00",
                "storage" : {
                }
            }
        }
    },
    "UserTransactionZeroCost_d0g0v0_Homestead" : {
        "_info" : {
            "comment" : "",
            "filledwith" : "cpp-1.3.0+commit.6e0ce939.Linux.g++",
            "lllcversion" : "Version: 0.4.18-develop.2017.9.25+commit.a72237f2.Linux.g++",
            "source" : "src/BlockchainTestsFiller/GeneralStateTests/stTransactionTest/UserTransactionZeroCost_d0g0v0Filler.json",
            "sourceHash" : "c4b1a5298986a473fc42ed58b946427191ca258933d91ea777b18e899370b364"
        },
        "blocks" : [
            {
                "blockHeader" : {
                    "bloom" : "0x00000000000000000000000000000000000000000000000000000000000000000000000000000000000000000000000000000000000000000000000000000000000000000000000000000000000000000000000000000000000000000000000000000000000000000000000000000000000000000000000000000000000000000000000000000000000000000000000000000000000000000000000000000000000000000000000000000000000000000000000000000000000000000000000000000000000000000000000000000000000000000000000000000000000000000000000000000000000000000000000000000000000000000000000000000000",
                    "coinbase" : "0x2adc25665018aa1fe0e6bc666dac8fc2697ff9ba",
                    "difficulty" : "0x020000",
                    "extraData" : "",
                    "gasLimit" : "0x989680",
                    "gasUsed" : "0x5208",
                    "hash" : "0x99b9e6bb502d64b388b3b6456a72bdafcbcd6714d9a202443104341fbec8457c",
                    "mixHash" : "0x7101a14e9b63cca1675b71a1a0dac1bb34ba06d342310863c3455abf0b7e3778",
                    "nonce" : "0x5567c72db387c380",
                    "number" : "0x01",
                    "parentHash" : "0xad7754b94f4d1872201b382beb8a0c202814afe094d30b7845bdd39f49330697",
                    "receiptTrie" : "0xbc08b128ed689b88c562b86cdc9994a85c36ba23473fe1187d9ac8c22b612a8d",
                    "stateRoot" : "0xd6dbb855c3ac219c7f498886343bc91b4aa15932755dda2caffa4950dbba2293",
                    "timestamp" : "0x03e8",
                    "transactionsTrie" : "0x9b3d0b5b152f8cefa72d87b2924f193e1bc90264d79e6b6c62039d52110ee808",
                    "uncleHash" : "0x1dcc4de8dec75d7aab85b567b6ccd41ad312451b948a7413f0a142fd40d49347"
                },
                "rlp" : "0xf90260f901f7a0ad7754b94f4d1872201b382beb8a0c202814afe094d30b7845bdd39f49330697a01dcc4de8dec75d7aab85b567b6ccd41ad312451b948a7413f0a142fd40d49347942adc25665018aa1fe0e6bc666dac8fc2697ff9baa0d6dbb855c3ac219c7f498886343bc91b4aa15932755dda2caffa4950dbba2293a09b3d0b5b152f8cefa72d87b2924f193e1bc90264d79e6b6c62039d52110ee808a0bc08b128ed689b88c562b86cdc9994a85c36ba23473fe1187d9ac8c22b612a8db90100000000000000000000000000000000000000000000000000000000000000000000000000000000000000000000000000000000000000000000000000000000000000000000000000000000000000000000000000000000000000000000000000000000000000000000000000000000000000000000000000000000000000000000000000000000000000000000000000000000000000000000000000000000000000000000000000000000000000000000000000000000000000000000000000000000000000000000000000000000000000000000000000000000000000000000000000000000000000000000000000000000000000000000000000000000008302000001839896808252088203e880a07101a14e9b63cca1675b71a1a0dac1bb34ba06d342310863c3455abf0b7e3778885567c72db387c380f863f861808082891c94b94f5374fce5edbc8e2a8697c15331677e6ebf0b820384801ba018901e14391533304b51e748a49ce73d28d6dd6ec08edee23e27a8adea24698fa04848ca6f6396a96b507143738a46fc562bcf4dac1e2067e6c5471e93322f507dc0",
                "transactions" : [
                    {
                        "data" : "",
                        "gasLimit" : "0x891c",
                        "gasPrice" : "0x00",
                        "nonce" : "0x00",
                        "r" : "0x18901e14391533304b51e748a49ce73d28d6dd6ec08edee23e27a8adea24698f",
                        "s" : "0x4848ca6f6396a96b507143738a46fc562bcf4dac1e2067e6c5471e93322f507d",
                        "to" : "0xb94f5374fce5edbc8e2a8697c15331677e6ebf0b",
                        "v" : "0x1b",
                        "value" : "0x0384"
                    }
                ],
                "uncleHeaders" : [
                ]
            }
        ],
        "genesisBlockHeader" : {
            "bloom" : "0x00000000000000000000000000000000000000000000000000000000000000000000000000000000000000000000000000000000000000000000000000000000000000000000000000000000000000000000000000000000000000000000000000000000000000000000000000000000000000000000000000000000000000000000000000000000000000000000000000000000000000000000000000000000000000000000000000000000000000000000000000000000000000000000000000000000000000000000000000000000000000000000000000000000000000000000000000000000000000000000000000000000000000000000000000000000",
            "coinbase" : "0x2adc25665018aa1fe0e6bc666dac8fc2697ff9ba",
            "difficulty" : "0x020000",
            "extraData" : "0x42",
            "gasLimit" : "0x989680",
            "gasUsed" : "0x00",
            "hash" : "0xad7754b94f4d1872201b382beb8a0c202814afe094d30b7845bdd39f49330697",
            "mixHash" : "0x56e81f171bcc55a6ff8345e692c0f86e5b48e01b996cadc001622fb5e363b421",
            "nonce" : "0x0102030405060708",
            "number" : "0x00",
            "parentHash" : "0x0000000000000000000000000000000000000000000000000000000000000000",
            "receiptTrie" : "0x56e81f171bcc55a6ff8345e692c0f86e5b48e01b996cadc001622fb5e363b421",
            "stateRoot" : "0x49a138558457f1bd05bfedb71b03fdc742c26ef09fa3862f643c81246d105f60",
            "timestamp" : "0x03b6",
            "transactionsTrie" : "0x56e81f171bcc55a6ff8345e692c0f86e5b48e01b996cadc001622fb5e363b421",
            "uncleHash" : "0x1dcc4de8dec75d7aab85b567b6ccd41ad312451b948a7413f0a142fd40d49347"
        },
        "genesisRLP" : "0xf901faf901f5a00000000000000000000000000000000000000000000000000000000000000000a01dcc4de8dec75d7aab85b567b6ccd41ad312451b948a7413f0a142fd40d49347942adc25665018aa1fe0e6bc666dac8fc2697ff9baa049a138558457f1bd05bfedb71b03fdc742c26ef09fa3862f643c81246d105f60a056e81f171bcc55a6ff8345e692c0f86e5b48e01b996cadc001622fb5e363b421a056e81f171bcc55a6ff8345e692c0f86e5b48e01b996cadc001622fb5e363b421b9010000000000000000000000000000000000000000000000000000000000000000000000000000000000000000000000000000000000000000000000000000000000000000000000000000000000000000000000000000000000000000000000000000000000000000000000000000000000000000000000000000000000000000000000000000000000000000000000000000000000000000000000000000000000000000000000000000000000000000000000000000000000000000000000000000000000000000000000000000000000000000000000000000000000000000000000000000000000000000000000000000000000000000000000000000000000830200008083989680808203b642a056e81f171bcc55a6ff8345e692c0f86e5b48e01b996cadc001622fb5e363b421880102030405060708c0c0",
        "lastblockhash" : "0x99b9e6bb502d64b388b3b6456a72bdafcbcd6714d9a202443104341fbec8457c",
        "network" : "Homestead",
        "postState" : {
            "0x2adc25665018aa1fe0e6bc666dac8fc2697ff9ba" : {
                "balance" : "0x4563918244f40000",
                "code" : "",
                "nonce" : "0x00",
                "storage" : {
                }
            },
            "0xa94f5374fce5edbc8e2a8697c15331677e6ebf0b" : {
                "balance" : "0xa474",
                "code" : "",
                "nonce" : "0x01",
                "storage" : {
                }
            },
            "0xb94f5374fce5edbc8e2a8697c15331677e6ebf0b" : {
                "balance" : "0x0384",
                "code" : "",
                "nonce" : "0x00",
                "storage" : {
                }
            }
        },
        "pre" : {
            "0xa94f5374fce5edbc8e2a8697c15331677e6ebf0b" : {
                "balance" : "0xa7f8",
                "code" : "",
                "nonce" : "0x00",
                "storage" : {
                }
            }
        }
    }
}