{
    "UserTransactionZeroCostWithData_d0g1v0_Byzantium" : {
        "_info" : {
            "comment" : "",
            "filledwith" : "cpp-1.3.0+commit.6e0ce939.Linux.g++",
            "lllcversion" : "Version: 0.4.18-develop.2017.9.25+commit.a72237f2.Linux.g++",
            "source" : "src/BlockchainTestsFiller/GeneralStateTests/stTransactionTest/UserTransactionZeroCostWithData_d0g1v0Filler.json",
            "sourceHash" : "888eeaca1dbfe1335f2039e5ac6f85ec059e9232487af6a8ad0384c505234bd8"
        },
        "blocks" : [
            {
                "blockHeader" : {
                    "bloom" : "0x00000000000000000000000000000000000000000000000000000000000000000000000000000000000000000000000000000000000000000000000000000000000000000000000000000000000000000000000000000000000000000000000000000000000000000000000000000000000000000000000000000000000000000000000000000000000000000000000000000000000000000000000000000000000000000000000000000000000000000000000000000000000000000000000000000000000000000000000000000000000000000000000000000000000000000000000000000000000000000000000000000000000000000000000000000000",
                    "coinbase" : "0x2adc25665018aa1fe0e6bc666dac8fc2697ff9ba",
                    "difficulty" : "0x020000",
                    "extraData" : "",
                    "gasLimit" : "0x989680",
                    "gasUsed" : "0x5428",
                    "hash" : "0x88537f2841425c47a277a038e55d5dcb0516d2e91f92d034dcfec0aab603b799",
                    "mixHash" : "0x98a325baa3129c0b12c9410cea650648d5be7d8d5ba0ecac984453153f21936e",
                    "nonce" : "0xa2a83de25277364d",
                    "number" : "0x01",
                    "parentHash" : "0xbbec0f957dd48724286f07ab8315a50b452b999d48f63f4891d7a3e30e6ad903",
                    "receiptTrie" : "0x45671daf07412c1ffe3483fd1fc0884ab0d4b99cc537b3e3155d1665cf5e83f0",
                    "stateRoot" : "0xbd2178482370da120ee42d9e5cb24635fd752fd2b7be67de3a78d7bf8b907852",
                    "timestamp" : "0x03e8",
                    "transactionsTrie" : "0xd99f9ab7f81bf2df751f4179cc38e8ff45bf466189304bec941e7dd6f45f88ea",
                    "uncleHash" : "0x1dcc4de8dec75d7aab85b567b6ccd41ad312451b948a7413f0a142fd40d49347"
                },
                "rlp" : "0xf90268f901f7a0bbec0f957dd48724286f07ab8315a50b452b999d48f63f4891d7a3e30e6ad903a01dcc4de8dec75d7aab85b567b6ccd41ad312451b948a7413f0a142fd40d49347942adc25665018aa1fe0e6bc666dac8fc2697ff9baa0bd2178482370da120ee42d9e5cb24635fd752fd2b7be67de3a78d7bf8b907852a0d99f9ab7f81bf2df751f4179cc38e8ff45bf466189304bec941e7dd6f45f88eaa045671daf07412c1ffe3483fd1fc0884ab0d4b99cc537b3e3155d1665cf5e83f0b90100000000000000000000000000000000000000000000000000000000000000000000000000000000000000000000000000000000000000000000000000000000000000000000000000000000000000000000000000000000000000000000000000000000000000000000000000000000000000000000000000000000000000000000000000000000000000000000000000000000000000000000000000000000000000000000000000000000000000000000000000000000000000000000000000000000000000000000000000000000000000000000000000000000000000000000000000000000000000000000000000000000000000000000000000000000008302000001839896808254288203e880a098a325baa3129c0b12c9410cea650648d5be7d8d5ba0ecac984453153f21936e88a2a83de25277364df86bf869808082ea6094b94f5374fce5edbc8e2a8697c15331677e6ebf0b8203848832403495489834541ba0e4f1cfe4f9297928fc4a67bb8aee4bce39750030811c0cbd89dd66a1b0e74520a056cf3c8558cefb42ab24ec12aca4c38aa91d669da85d25d5722d7a2e1c01190ec0",
                "transactions" : [
                    {
                        "data" : "0x3240349548983454",
                        "gasLimit" : "0xea60",
                        "gasPrice" : "0x00",
                        "nonce" : "0x00",
                        "r" : "0xe4f1cfe4f9297928fc4a67bb8aee4bce39750030811c0cbd89dd66a1b0e74520",
                        "s" : "0x56cf3c8558cefb42ab24ec12aca4c38aa91d669da85d25d5722d7a2e1c01190e",
                        "to" : "0xb94f5374fce5edbc8e2a8697c15331677e6ebf0b",
                        "v" : "0x1b",
                        "value" : "0x0384"
                    }
                ],
                "uncleHeaders" : [
                ]
            }
        ],
        "genesisBlockHeader" : {
            "bloom" : "0x00000000000000000000000000000000000000000000000000000000000000000000000000000000000000000000000000000000000000000000000000000000000000000000000000000000000000000000000000000000000000000000000000000000000000000000000000000000000000000000000000000000000000000000000000000000000000000000000000000000000000000000000000000000000000000000000000000000000000000000000000000000000000000000000000000000000000000000000000000000000000000000000000000000000000000000000000000000000000000000000000000000000000000000000000000000",
            "coinbase" : "0x2adc25665018aa1fe0e6bc666dac8fc2697ff9ba",
            "difficulty" : "0x020000",
            "extraData" : "0x42",
            "gasLimit" : "0x989680",
            "gasUsed" : "0x00",
            "hash" : "0xbbec0f957dd48724286f07ab8315a50b452b999d48f63f4891d7a3e30e6ad903",
            "mixHash" : "0x56e81f171bcc55a6ff8345e692c0f86e5b48e01b996cadc001622fb5e363b421",
            "nonce" : "0x0102030405060708",
            "number" : "0x00",
            "parentHash" : "0x0000000000000000000000000000000000000000000000000000000000000000",
            "receiptTrie" : "0x56e81f171bcc55a6ff8345e692c0f86e5b48e01b996cadc001622fb5e363b421",
            "stateRoot" : "0xa93612260c90849d92f6927f54ede2ff801e30d12ec30907bb6ee30be2c97961",
            "timestamp" : "0x03b6",
            "transactionsTrie" : "0x56e81f171bcc55a6ff8345e692c0f86e5b48e01b996cadc001622fb5e363b421",
            "uncleHash" : "0x1dcc4de8dec75d7aab85b567b6ccd41ad312451b948a7413f0a142fd40d49347"
        },
        "genesisRLP" : "0xf901faf901f5a00000000000000000000000000000000000000000000000000000000000000000a01dcc4de8dec75d7aab85b567b6ccd41ad312451b948a7413f0a142fd40d49347942adc25665018aa1fe0e6bc666dac8fc2697ff9baa0a93612260c90849d92f6927f54ede2ff801e30d12ec30907bb6ee30be2c97961a056e81f171bcc55a6ff8345e692c0f86e5b48e01b996cadc001622fb5e363b421a056e81f171bcc55a6ff8345e692c0f86e5b48e01b996cadc001622fb5e363b421b9010000000000000000000000000000000000000000000000000000000000000000000000000000000000000000000000000000000000000000000000000000000000000000000000000000000000000000000000000000000000000000000000000000000000000000000000000000000000000000000000000000000000000000000000000000000000000000000000000000000000000000000000000000000000000000000000000000000000000000000000000000000000000000000000000000000000000000000000000000000000000000000000000000000000000000000000000000000000000000000000000000000000000000000000000000000000830200008083989680808203b642a056e81f171bcc55a6ff8345e692c0f86e5b48e01b996cadc001622fb5e363b421880102030405060708c0c0",
        "lastblockhash" : "0x88537f2841425c47a277a038e55d5dcb0516d2e91f92d034dcfec0aab603b799",
        "network" : "Byzantium",
        "postState" : {
            "0x2adc25665018aa1fe0e6bc666dac8fc2697ff9ba" : {
                "balance" : "0x29a2241af62c0000",
                "code" : "",
                "nonce" : "0x00",
                "storage" : {
                }
            },
            "0xa94f5374fce5edbc8e2a8697c15331677e6ebf0b" : {
                "balance" : "0x020404",
                "code" : "",
                "nonce" : "0x01",
                "storage" : {
                }
            },
            "0xb94f5374fce5edbc8e2a8697c15331677e6ebf0b" : {
                "balance" : "0x0384",
                "code" : "",
                "nonce" : "0x00",
                "storage" : {
                }
            }
        },
        "pre" : {
            "0xa94f5374fce5edbc8e2a8697c15331677e6ebf0b" : {
                "balance" : "0x020788",
                "code" : "",
                "nonce" : "0x00",
                "storage" : {
                }
            }
        }
    },
    "UserTransactionZeroCostWithData_d0g1v0_EIP150" : {
        "_info" : {
            "comment" : "",
            "filledwith" : "cpp-1.3.0+commit.6e0ce939.Linux.g++",
            "lllcversion" : "Version: 0.4.18-develop.2017.9.25+commit.a72237f2.Linux.g++",
            "source" : "src/BlockchainTestsFiller/GeneralStateTests/stTransactionTest/UserTransactionZeroCostWithData_d0g1v0Filler.json",
            "sourceHash" : "888eeaca1dbfe1335f2039e5ac6f85ec059e9232487af6a8ad0384c505234bd8"
        },
        "blocks" : [
            {
                "blockHeader" : {
                    "bloom" : "0x00000000000000000000000000000000000000000000000000000000000000000000000000000000000000000000000000000000000000000000000000000000000000000000000000000000000000000000000000000000000000000000000000000000000000000000000000000000000000000000000000000000000000000000000000000000000000000000000000000000000000000000000000000000000000000000000000000000000000000000000000000000000000000000000000000000000000000000000000000000000000000000000000000000000000000000000000000000000000000000000000000000000000000000000000000000",
                    "coinbase" : "0x2adc25665018aa1fe0e6bc666dac8fc2697ff9ba",
                    "difficulty" : "0x020000",
                    "extraData" : "",
                    "gasLimit" : "0x989680",
                    "gasUsed" : "0x5428",
                    "hash" : "0xa22975d2dbad58c93a77b52d70eca1e92c57c6e19d113860ff01ba0a08c4ab0d",
                    "mixHash" : "0x214fa1341a00da379830e5589c38ed26024c57ae486248f910ad96c98bcc28a8",
                    "nonce" : "0x57863bd75d20b607",
                    "number" : "0x01",
                    "parentHash" : "0xbbec0f957dd48724286f07ab8315a50b452b999d48f63f4891d7a3e30e6ad903",
                    "receiptTrie" : "0xbd5f2814eabd2b7c6ef519b399c74777481af40ec38c2fff6d45dc41fede4a94",
                    "stateRoot" : "0xcd1c98dbcfdc3ac6ad6a9ae85ad4ff205444560e209178e151784b8b2ef57f5f",
                    "timestamp" : "0x03e8",
                    "transactionsTrie" : "0xd99f9ab7f81bf2df751f4179cc38e8ff45bf466189304bec941e7dd6f45f88ea",
                    "uncleHash" : "0x1dcc4de8dec75d7aab85b567b6ccd41ad312451b948a7413f0a142fd40d49347"
                },
                "rlp" : "0xf90268f901f7a0bbec0f957dd48724286f07ab8315a50b452b999d48f63f4891d7a3e30e6ad903a01dcc4de8dec75d7aab85b567b6ccd41ad312451b948a7413f0a142fd40d49347942adc25665018aa1fe0e6bc666dac8fc2697ff9baa0cd1c98dbcfdc3ac6ad6a9ae85ad4ff205444560e209178e151784b8b2ef57f5fa0d99f9ab7f81bf2df751f4179cc38e8ff45bf466189304bec941e7dd6f45f88eaa0bd5f2814eabd2b7c6ef519b399c74777481af40ec38c2fff6d45dc41fede4a94b90100000000000000000000000000000000000000000000000000000000000000000000000000000000000000000000000000000000000000000000000000000000000000000000000000000000000000000000000000000000000000000000000000000000000000000000000000000000000000000000000000000000000000000000000000000000000000000000000000000000000000000000000000000000000000000000000000000000000000000000000000000000000000000000000000000000000000000000000000000000000000000000000000000000000000000000000000000000000000000000000000000000000000000000000000000000008302000001839896808254288203e880a0214fa1341a00da379830e5589c38ed26024c57ae486248f910ad96c98bcc28a88857863bd75d20b607f86bf869808082ea6094b94f5374fce5edbc8e2a8697c15331677e6ebf0b8203848832403495489834541ba0e4f1cfe4f9297928fc4a67bb8aee4bce39750030811c0cbd89dd66a1b0e74520a056cf3c8558cefb42ab24ec12aca4c38aa91d669da85d25d5722d7a2e1c01190ec0",
                "transactions" : [
                    {
                        "data" : "0x3240349548983454",
                        "gasLimit" : "0xea60",
                        "gasPrice" : "0x00",
                        "nonce" : "0x00",
                        "r" : "0xe4f1cfe4f9297928fc4a67bb8aee4bce39750030811c0cbd89dd66a1b0e74520",
                        "s" : "0x56cf3c8558cefb42ab24ec12aca4c38aa91d669da85d25d5722d7a2e1c01190e",
                        "to" : "0xb94f5374fce5edbc8e2a8697c15331677e6ebf0b",
                        "v" : "0x1b",
                        "value" : "0x0384"
                    }
                ],
                "uncleHeaders" : [
                ]
            }
        ],
        "genesisBlockHeader" : {
            "bloom" : "0x00000000000000000000000000000000000000000000000000000000000000000000000000000000000000000000000000000000000000000000000000000000000000000000000000000000000000000000000000000000000000000000000000000000000000000000000000000000000000000000000000000000000000000000000000000000000000000000000000000000000000000000000000000000000000000000000000000000000000000000000000000000000000000000000000000000000000000000000000000000000000000000000000000000000000000000000000000000000000000000000000000000000000000000000000000000",
            "coinbase" : "0x2adc25665018aa1fe0e6bc666dac8fc2697ff9ba",
            "difficulty" : "0x020000",
            "extraData" : "0x42",
            "gasLimit" : "0x989680",
            "gasUsed" : "0x00",
            "hash" : "0xbbec0f957dd48724286f07ab8315a50b452b999d48f63f4891d7a3e30e6ad903",
            "mixHash" : "0x56e81f171bcc55a6ff8345e692c0f86e5b48e01b996cadc001622fb5e363b421",
            "nonce" : "0x0102030405060708",
            "number" : "0x00",
            "parentHash" : "0x0000000000000000000000000000000000000000000000000000000000000000",
            "receiptTrie" : "0x56e81f171bcc55a6ff8345e692c0f86e5b48e01b996cadc001622fb5e363b421",
            "stateRoot" : "0xa93612260c90849d92f6927f54ede2ff801e30d12ec30907bb6ee30be2c97961",
            "timestamp" : "0x03b6",
            "transactionsTrie" : "0x56e81f171bcc55a6ff8345e692c0f86e5b48e01b996cadc001622fb5e363b421",
            "uncleHash" : "0x1dcc4de8dec75d7aab85b567b6ccd41ad312451b948a7413f0a142fd40d49347"
        },
        "genesisRLP" : "0xf901faf901f5a00000000000000000000000000000000000000000000000000000000000000000a01dcc4de8dec75d7aab85b567b6ccd41ad312451b948a7413f0a142fd40d49347942adc25665018aa1fe0e6bc666dac8fc2697ff9baa0a93612260c90849d92f6927f54ede2ff801e30d12ec30907bb6ee30be2c97961a056e81f171bcc55a6ff8345e692c0f86e5b48e01b996cadc001622fb5e363b421a056e81f171bcc55a6ff8345e692c0f86e5b48e01b996cadc001622fb5e363b421b9010000000000000000000000000000000000000000000000000000000000000000000000000000000000000000000000000000000000000000000000000000000000000000000000000000000000000000000000000000000000000000000000000000000000000000000000000000000000000000000000000000000000000000000000000000000000000000000000000000000000000000000000000000000000000000000000000000000000000000000000000000000000000000000000000000000000000000000000000000000000000000000000000000000000000000000000000000000000000000000000000000000000000000000000000000000000830200008083989680808203b642a056e81f171bcc55a6ff8345e692c0f86e5b48e01b996cadc001622fb5e363b421880102030405060708c0c0",
        "lastblockhash" : "0xa22975d2dbad58c93a77b52d70eca1e92c57c6e19d113860ff01ba0a08c4ab0d",
        "network" : "EIP150",
        "postState" : {
            "0x2adc25665018aa1fe0e6bc666dac8fc2697ff9ba" : {
                "balance" : "0x4563918244f40000",
                "code" : "",
                "nonce" : "0x00",
                "storage" : {
                }
            },
            "0xa94f5374fce5edbc8e2a8697c15331677e6ebf0b" : {
                "balance" : "0x020404",
                "code" : "",
                "nonce" : "0x01",
                "storage" : {
                }
            },
            "0xb94f5374fce5edbc8e2a8697c15331677e6ebf0b" : {
                "balance" : "0x0384",
                "code" : "",
                "nonce" : "0x00",
                "storage" : {
                }
            }
        },
        "pre" : {
            "0xa94f5374fce5edbc8e2a8697c15331677e6ebf0b" : {
                "balance" : "0x020788",
                "code" : "",
                "nonce" : "0x00",
                "storage" : {
                }
            }
        }
    },
    "UserTransactionZeroCostWithData_d0g1v0_EIP158" : {
        "_info" : {
            "comment" : "",
            "filledwith" : "cpp-1.3.0+commit.6e0ce939.Linux.g++",
            "lllcversion" : "Version: 0.4.18-develop.2017.9.25+commit.a72237f2.Linux.g++",
            "source" : "src/BlockchainTestsFiller/GeneralStateTests/stTransactionTest/UserTransactionZeroCostWithData_d0g1v0Filler.json",
            "sourceHash" : "888eeaca1dbfe1335f2039e5ac6f85ec059e9232487af6a8ad0384c505234bd8"
        },
        "blocks" : [
            {
                "blockHeader" : {
                    "bloom" : "0x00000000000000000000000000000000000000000000000000000000000000000000000000000000000000000000000000000000000000000000000000000000000000000000000000000000000000000000000000000000000000000000000000000000000000000000000000000000000000000000000000000000000000000000000000000000000000000000000000000000000000000000000000000000000000000000000000000000000000000000000000000000000000000000000000000000000000000000000000000000000000000000000000000000000000000000000000000000000000000000000000000000000000000000000000000000",
                    "coinbase" : "0x2adc25665018aa1fe0e6bc666dac8fc2697ff9ba",
                    "difficulty" : "0x020000",
                    "extraData" : "",
                    "gasLimit" : "0x989680",
                    "gasUsed" : "0x5428",
                    "hash" : "0xd6b2aa8da537bbb428fe492ac83dbee7886af5959f272171662c583589209be3",
                    "mixHash" : "0x8c294bf0ded354ad6b1ff369c1601d4ada6215b01d8c81bd3f68a37c7ead75ca",
                    "nonce" : "0xdc1f568c1ca310af",
                    "number" : "0x01",
                    "parentHash" : "0xbbec0f957dd48724286f07ab8315a50b452b999d48f63f4891d7a3e30e6ad903",
                    "receiptTrie" : "0x40d36606f9aa004ce1c185fae5c92257456c76e6215862eb8f4e3c35d7d03960",
                    "stateRoot" : "0xcd1c98dbcfdc3ac6ad6a9ae85ad4ff205444560e209178e151784b8b2ef57f5f",
                    "timestamp" : "0x03e8",
                    "transactionsTrie" : "0xd99f9ab7f81bf2df751f4179cc38e8ff45bf466189304bec941e7dd6f45f88ea",
                    "uncleHash" : "0x1dcc4de8dec75d7aab85b567b6ccd41ad312451b948a7413f0a142fd40d49347"
                },
                "rlp" : "0xf90268f901f7a0bbec0f957dd48724286f07ab8315a50b452b999d48f63f4891d7a3e30e6ad903a01dcc4de8dec75d7aab85b567b6ccd41ad312451b948a7413f0a142fd40d49347942adc25665018aa1fe0e6bc666dac8fc2697ff9baa0cd1c98dbcfdc3ac6ad6a9ae85ad4ff205444560e209178e151784b8b2ef57f5fa0d99f9ab7f81bf2df751f4179cc38e8ff45bf466189304bec941e7dd6f45f88eaa040d36606f9aa004ce1c185fae5c92257456c76e6215862eb8f4e3c35d7d03960b90100000000000000000000000000000000000000000000000000000000000000000000000000000000000000000000000000000000000000000000000000000000000000000000000000000000000000000000000000000000000000000000000000000000000000000000000000000000000000000000000000000000000000000000000000000000000000000000000000000000000000000000000000000000000000000000000000000000000000000000000000000000000000000000000000000000000000000000000000000000000000000000000000000000000000000000000000000000000000000000000000000000000000000000000000000000008302000001839896808254288203e880a08c294bf0ded354ad6b1ff369c1601d4ada6215b01d8c81bd3f68a37c7ead75ca88dc1f568c1ca310aff86bf869808082ea6094b94f5374fce5edbc8e2a8697c15331677e6ebf0b8203848832403495489834541ba0e4f1cfe4f9297928fc4a67bb8aee4bce39750030811c0cbd89dd66a1b0e74520a056cf3c8558cefb42ab24ec12aca4c38aa91d669da85d25d5722d7a2e1c01190ec0",
                "transactions" : [
                    {
                        "data" : "0x3240349548983454",
                        "gasLimit" : "0xea60",
                        "gasPrice" : "0x00",
                        "nonce" : "0x00",
                        "r" : "0xe4f1cfe4f9297928fc4a67bb8aee4bce39750030811c0cbd89dd66a1b0e74520",
                        "s" : "0x56cf3c8558cefb42ab24ec12aca4c38aa91d669da85d25d5722d7a2e1c01190e",
                        "to" : "0xb94f5374fce5edbc8e2a8697c15331677e6ebf0b",
                        "v" : "0x1b",
                        "value" : "0x0384"
                    }
                ],
                "uncleHeaders" : [
                ]
            }
        ],
        "genesisBlockHeader" : {
            "bloom" : "0x00000000000000000000000000000000000000000000000000000000000000000000000000000000000000000000000000000000000000000000000000000000000000000000000000000000000000000000000000000000000000000000000000000000000000000000000000000000000000000000000000000000000000000000000000000000000000000000000000000000000000000000000000000000000000000000000000000000000000000000000000000000000000000000000000000000000000000000000000000000000000000000000000000000000000000000000000000000000000000000000000000000000000000000000000000000",
            "coinbase" : "0x2adc25665018aa1fe0e6bc666dac8fc2697ff9ba",
            "difficulty" : "0x020000",
            "extraData" : "0x42",
            "gasLimit" : "0x989680",
            "gasUsed" : "0x00",
            "hash" : "0xbbec0f957dd48724286f07ab8315a50b452b999d48f63f4891d7a3e30e6ad903",
            "mixHash" : "0x56e81f171bcc55a6ff8345e692c0f86e5b48e01b996cadc001622fb5e363b421",
            "nonce" : "0x0102030405060708",
            "number" : "0x00",
            "parentHash" : "0x0000000000000000000000000000000000000000000000000000000000000000",
            "receiptTrie" : "0x56e81f171bcc55a6ff8345e692c0f86e5b48e01b996cadc001622fb5e363b421",
            "stateRoot" : "0xa93612260c90849d92f6927f54ede2ff801e30d12ec30907bb6ee30be2c97961",
            "timestamp" : "0x03b6",
            "transactionsTrie" : "0x56e81f171bcc55a6ff8345e692c0f86e5b48e01b996cadc001622fb5e363b421",
            "uncleHash" : "0x1dcc4de8dec75d7aab85b567b6ccd41ad312451b948a7413f0a142fd40d49347"
        },
        "genesisRLP" : "0xf901faf901f5a00000000000000000000000000000000000000000000000000000000000000000a01dcc4de8dec75d7aab85b567b6ccd41ad312451b948a7413f0a142fd40d49347942adc25665018aa1fe0e6bc666dac8fc2697ff9baa0a93612260c90849d92f6927f54ede2ff801e30d12ec30907bb6ee30be2c97961a056e81f171bcc55a6ff8345e692c0f86e5b48e01b996cadc001622fb5e363b421a056e81f171bcc55a6ff8345e692c0f86e5b48e01b996cadc001622fb5e363b421b9010000000000000000000000000000000000000000000000000000000000000000000000000000000000000000000000000000000000000000000000000000000000000000000000000000000000000000000000000000000000000000000000000000000000000000000000000000000000000000000000000000000000000000000000000000000000000000000000000000000000000000000000000000000000000000000000000000000000000000000000000000000000000000000000000000000000000000000000000000000000000000000000000000000000000000000000000000000000000000000000000000000000000000000000000000000000830200008083989680808203b642a056e81f171bcc55a6ff8345e692c0f86e5b48e01b996cadc001622fb5e363b421880102030405060708c0c0",
        "lastblockhash" : "0xd6b2aa8da537bbb428fe492ac83dbee7886af5959f272171662c583589209be3",
        "network" : "EIP158",
        "postState" : {
            "0x2adc25665018aa1fe0e6bc666dac8fc2697ff9ba" : {
                "balance" : "0x4563918244f40000",
                "code" : "",
                "nonce" : "0x00",
                "storage" : {
                }
            },
            "0xa94f5374fce5edbc8e2a8697c15331677e6ebf0b" : {
                "balance" : "0x020404",
                "code" : "",
                "nonce" : "0x01",
                "storage" : {
                }
            },
            "0xb94f5374fce5edbc8e2a8697c15331677e6ebf0b" : {
                "balance" : "0x0384",
                "code" : "",
                "nonce" : "0x00",
                "storage" : {
                }
            }
        },
        "pre" : {
            "0xa94f5374fce5edbc8e2a8697c15331677e6ebf0b" : {
                "balance" : "0x020788",
                "code" : "",
                "nonce" : "0x00",
                "storage" : {
                }
            }
        }
    },
    "UserTransactionZeroCostWithData_d0g1v0_Frontier" : {
        "_info" : {
            "comment" : "",
            "filledwith" : "cpp-1.3.0+commit.6e0ce939.Linux.g++",
            "lllcversion" : "Version: 0.4.18-develop.2017.9.25+commit.a72237f2.Linux.g++",
            "source" : "src/BlockchainTestsFiller/GeneralStateTests/stTransactionTest/UserTransactionZeroCostWithData_d0g1v0Filler.json",
            "sourceHash" : "888eeaca1dbfe1335f2039e5ac6f85ec059e9232487af6a8ad0384c505234bd8"
        },
        "blocks" : [
            {
                "blockHeader" : {
                    "bloom" : "0x00000000000000000000000000000000000000000000000000000000000000000000000000000000000000000000000000000000000000000000000000000000000000000000000000000000000000000000000000000000000000000000000000000000000000000000000000000000000000000000000000000000000000000000000000000000000000000000000000000000000000000000000000000000000000000000000000000000000000000000000000000000000000000000000000000000000000000000000000000000000000000000000000000000000000000000000000000000000000000000000000000000000000000000000000000000",
                    "coinbase" : "0x2adc25665018aa1fe0e6bc666dac8fc2697ff9ba",
                    "difficulty" : "0x020000",
                    "extraData" : "",
                    "gasLimit" : "0x989680",
                    "gasUsed" : "0x5428",
                    "hash" : "0x5ee4e807070d5a3ae880076d0c520acb7c0abd24d5038df6ff63f9cbddc58fee",
                    "mixHash" : "0x95862011f60b4c9e90a51b72e174c92cca9d19c4f59fb5e069c4874296933943",
                    "nonce" : "0x1903533d37cdba32",
                    "number" : "0x01",
                    "parentHash" : "0xbbec0f957dd48724286f07ab8315a50b452b999d48f63f4891d7a3e30e6ad903",
                    "receiptTrie" : "0xbd5f2814eabd2b7c6ef519b399c74777481af40ec38c2fff6d45dc41fede4a94",
                    "stateRoot" : "0xcd1c98dbcfdc3ac6ad6a9ae85ad4ff205444560e209178e151784b8b2ef57f5f",
                    "timestamp" : "0x03e8",
                    "transactionsTrie" : "0xd99f9ab7f81bf2df751f4179cc38e8ff45bf466189304bec941e7dd6f45f88ea",
                    "uncleHash" : "0x1dcc4de8dec75d7aab85b567b6ccd41ad312451b948a7413f0a142fd40d49347"
                },
                "rlp" : "0xf90268f901f7a0bbec0f957dd48724286f07ab8315a50b452b999d48f63f4891d7a3e30e6ad903a01dcc4de8dec75d7aab85b567b6ccd41ad312451b948a7413f0a142fd40d49347942adc25665018aa1fe0e6bc666dac8fc2697ff9baa0cd1c98dbcfdc3ac6ad6a9ae85ad4ff205444560e209178e151784b8b2ef57f5fa0d99f9ab7f81bf2df751f4179cc38e8ff45bf466189304bec941e7dd6f45f88eaa0bd5f2814eabd2b7c6ef519b399c74777481af40ec38c2fff6d45dc41fede4a94b90100000000000000000000000000000000000000000000000000000000000000000000000000000000000000000000000000000000000000000000000000000000000000000000000000000000000000000000000000000000000000000000000000000000000000000000000000000000000000000000000000000000000000000000000000000000000000000000000000000000000000000000000000000000000000000000000000000000000000000000000000000000000000000000000000000000000000000000000000000000000000000000000000000000000000000000000000000000000000000000000000000000000000000000000000000000008302000001839896808254288203e880a095862011f60b4c9e90a51b72e174c92cca9d19c4f59fb5e069c4874296933943881903533d37cdba32f86bf869808082ea6094b94f5374fce5edbc8e2a8697c15331677e6ebf0b8203848832403495489834541ba0e4f1cfe4f9297928fc4a67bb8aee4bce39750030811c0cbd89dd66a1b0e74520a056cf3c8558cefb42ab24ec12aca4c38aa91d669da85d25d5722d7a2e1c01190ec0",
                "transactions" : [
                    {
                        "data" : "0x3240349548983454",
                        "gasLimit" : "0xea60",
                        "gasPrice" : "0x00",
                        "nonce" : "0x00",
                        "r" : "0xe4f1cfe4f9297928fc4a67bb8aee4bce39750030811c0cbd89dd66a1b0e74520",
                        "s" : "0x56cf3c8558cefb42ab24ec12aca4c38aa91d669da85d25d5722d7a2e1c01190e",
                        "to" : "0xb94f5374fce5edbc8e2a8697c15331677e6ebf0b",
                        "v" : "0x1b",
                        "value" : "0x0384"
                    }
                ],
                "uncleHeaders" : [
                ]
            }
        ],
        "genesisBlockHeader" : {
            "bloom" : "0x00000000000000000000000000000000000000000000000000000000000000000000000000000000000000000000000000000000000000000000000000000000000000000000000000000000000000000000000000000000000000000000000000000000000000000000000000000000000000000000000000000000000000000000000000000000000000000000000000000000000000000000000000000000000000000000000000000000000000000000000000000000000000000000000000000000000000000000000000000000000000000000000000000000000000000000000000000000000000000000000000000000000000000000000000000000",
            "coinbase" : "0x2adc25665018aa1fe0e6bc666dac8fc2697ff9ba",
            "difficulty" : "0x020000",
            "extraData" : "0x42",
            "gasLimit" : "0x989680",
            "gasUsed" : "0x00",
            "hash" : "0xbbec0f957dd48724286f07ab8315a50b452b999d48f63f4891d7a3e30e6ad903",
            "mixHash" : "0x56e81f171bcc55a6ff8345e692c0f86e5b48e01b996cadc001622fb5e363b421",
            "nonce" : "0x0102030405060708",
            "number" : "0x00",
            "parentHash" : "0x0000000000000000000000000000000000000000000000000000000000000000",
            "receiptTrie" : "0x56e81f171bcc55a6ff8345e692c0f86e5b48e01b996cadc001622fb5e363b421",
            "stateRoot" : "0xa93612260c90849d92f6927f54ede2ff801e30d12ec30907bb6ee30be2c97961",
            "timestamp" : "0x03b6",
            "transactionsTrie" : "0x56e81f171bcc55a6ff8345e692c0f86e5b48e01b996cadc001622fb5e363b421",
            "uncleHash" : "0x1dcc4de8dec75d7aab85b567b6ccd41ad312451b948a7413f0a142fd40d49347"
        },
        "genesisRLP" : "0xf901faf901f5a00000000000000000000000000000000000000000000000000000000000000000a01dcc4de8dec75d7aab85b567b6ccd41ad312451b948a7413f0a142fd40d49347942adc25665018aa1fe0e6bc666dac8fc2697ff9baa0a93612260c90849d92f6927f54ede2ff801e30d12ec30907bb6ee30be2c97961a056e81f171bcc55a6ff8345e692c0f86e5b48e01b996cadc001622fb5e363b421a056e81f171bcc55a6ff8345e692c0f86e5b48e01b996cadc001622fb5e363b421b9010000000000000000000000000000000000000000000000000000000000000000000000000000000000000000000000000000000000000000000000000000000000000000000000000000000000000000000000000000000000000000000000000000000000000000000000000000000000000000000000000000000000000000000000000000000000000000000000000000000000000000000000000000000000000000000000000000000000000000000000000000000000000000000000000000000000000000000000000000000000000000000000000000000000000000000000000000000000000000000000000000000000000000000000000000000000830200008083989680808203b642a056e81f171bcc55a6ff8345e692c0f86e5b48e01b996cadc001622fb5e363b421880102030405060708c0c0",
        "lastblockhash" : "0x5ee4e807070d5a3ae880076d0c520acb7c0abd24d5038df6ff63f9cbddc58fee",
        "network" : "Frontier",
        "postState" : {
            "0x2adc25665018aa1fe0e6bc666dac8fc2697ff9ba" : {
                "balance" : "0x4563918244f40000",
                "code" : "",
                "nonce" : "0x00",
                "storage" : {
                }
            },
            "0xa94f5374fce5edbc8e2a8697c15331677e6ebf0b" : {
                "balance" : "0x020404",
                "code" : "",
                "nonce" : "0x01",
                "storage" : {
                }
            },
            "0xb94f5374fce5edbc8e2a8697c15331677e6ebf0b" : {
                "balance" : "0x0384",
                "code" : "",
                "nonce" : "0x00",
                "storage" : {
                }
            }
        },
        "pre" : {
            "0xa94f5374fce5edbc8e2a8697c15331677e6ebf0b" : {
                "balance" : "0x020788",
                "code" : "",
                "nonce" : "0x00",
                "storage" : {
                }
            }
        }
    },
    "UserTransactionZeroCostWithData_d0g1v0_Homestead" : {
        "_info" : {
            "comment" : "",
            "filledwith" : "cpp-1.3.0+commit.6e0ce939.Linux.g++",
            "lllcversion" : "Version: 0.4.18-develop.2017.9.25+commit.a72237f2.Linux.g++",
            "source" : "src/BlockchainTestsFiller/GeneralStateTests/stTransactionTest/UserTransactionZeroCostWithData_d0g1v0Filler.json",
            "sourceHash" : "888eeaca1dbfe1335f2039e5ac6f85ec059e9232487af6a8ad0384c505234bd8"
        },
        "blocks" : [
            {
                "blockHeader" : {
                    "bloom" : "0x00000000000000000000000000000000000000000000000000000000000000000000000000000000000000000000000000000000000000000000000000000000000000000000000000000000000000000000000000000000000000000000000000000000000000000000000000000000000000000000000000000000000000000000000000000000000000000000000000000000000000000000000000000000000000000000000000000000000000000000000000000000000000000000000000000000000000000000000000000000000000000000000000000000000000000000000000000000000000000000000000000000000000000000000000000000",
                    "coinbase" : "0x2adc25665018aa1fe0e6bc666dac8fc2697ff9ba",
                    "difficulty" : "0x020000",
                    "extraData" : "",
                    "gasLimit" : "0x989680",
                    "gasUsed" : "0x5428",
                    "hash" : "0x41cf85fc87fd132bb6815523d8ab14b3c7ab6fa51605b05531d24effbec12bee",
                    "mixHash" : "0xceb775ca136390cd9b09bdab8e8780416c46f44be20c37cf1db4940104624719",
                    "nonce" : "0xc3fc6a4527f6bb8d",
                    "number" : "0x01",
                    "parentHash" : "0xbbec0f957dd48724286f07ab8315a50b452b999d48f63f4891d7a3e30e6ad903",
                    "receiptTrie" : "0xbd5f2814eabd2b7c6ef519b399c74777481af40ec38c2fff6d45dc41fede4a94",
                    "stateRoot" : "0xcd1c98dbcfdc3ac6ad6a9ae85ad4ff205444560e209178e151784b8b2ef57f5f",
                    "timestamp" : "0x03e8",
                    "transactionsTrie" : "0xd99f9ab7f81bf2df751f4179cc38e8ff45bf466189304bec941e7dd6f45f88ea",
                    "uncleHash" : "0x1dcc4de8dec75d7aab85b567b6ccd41ad312451b948a7413f0a142fd40d49347"
                },
                "rlp" : "0xf90268f901f7a0bbec0f957dd48724286f07ab8315a50b452b999d48f63f4891d7a3e30e6ad903a01dcc4de8dec75d7aab85b567b6ccd41ad312451b948a7413f0a142fd40d49347942adc25665018aa1fe0e6bc666dac8fc2697ff9baa0cd1c98dbcfdc3ac6ad6a9ae85ad4ff205444560e209178e151784b8b2ef57f5fa0d99f9ab7f81bf2df751f4179cc38e8ff45bf466189304bec941e7dd6f45f88eaa0bd5f2814eabd2b7c6ef519b399c74777481af40ec38c2fff6d45dc41fede4a94b90100000000000000000000000000000000000000000000000000000000000000000000000000000000000000000000000000000000000000000000000000000000000000000000000000000000000000000000000000000000000000000000000000000000000000000000000000000000000000000000000000000000000000000000000000000000000000000000000000000000000000000000000000000000000000000000000000000000000000000000000000000000000000000000000000000000000000000000000000000000000000000000000000000000000000000000000000000000000000000000000000000000000000000000000000000000008302000001839896808254288203e880a0ceb775ca136390cd9b09bdab8e8780416c46f44be20c37cf1db494010462471988c3fc6a4527f6bb8df86bf869808082ea6094b94f5374fce5edbc8e2a8697c15331677e6ebf0b8203848832403495489834541ba0e4f1cfe4f9297928fc4a67bb8aee4bce39750030811c0cbd89dd66a1b0e74520a056cf3c8558cefb42ab24ec12aca4c38aa91d669da85d25d5722d7a2e1c01190ec0",
                "transactions" : [
                    {
                        "data" : "0x3240349548983454",
                        "gasLimit" : "0xea60",
                        "gasPrice" : "0x00",
                        "nonce" : "0x00",
                        "r" : "0xe4f1cfe4f9297928fc4a67bb8aee4bce39750030811c0cbd89dd66a1b0e74520",
                        "s" : "0x56cf3c8558cefb42ab24ec12aca4c38aa91d669da85d25d5722d7a2e1c01190e",
                        "to" : "0xb94f5374fce5edbc8e2a8697c15331677e6ebf0b",
                        "v" : "0x1b",
                        "value" : "0x0384"
                    }
                ],
                "uncleHeaders" : [
                ]
            }
        ],
        "genesisBlockHeader" : {
            "bloom" : "0x00000000000000000000000000000000000000000000000000000000000000000000000000000000000000000000000000000000000000000000000000000000000000000000000000000000000000000000000000000000000000000000000000000000000000000000000000000000000000000000000000000000000000000000000000000000000000000000000000000000000000000000000000000000000000000000000000000000000000000000000000000000000000000000000000000000000000000000000000000000000000000000000000000000000000000000000000000000000000000000000000000000000000000000000000000000",
            "coinbase" : "0x2adc25665018aa1fe0e6bc666dac8fc2697ff9ba",
            "difficulty" : "0x020000",
            "extraData" : "0x42",
            "gasLimit" : "0x989680",
            "gasUsed" : "0x00",
            "hash" : "0xbbec0f957dd48724286f07ab8315a50b452b999d48f63f4891d7a3e30e6ad903",
            "mixHash" : "0x56e81f171bcc55a6ff8345e692c0f86e5b48e01b996cadc001622fb5e363b421",
            "nonce" : "0x0102030405060708",
            "number" : "0x00",
            "parentHash" : "0x0000000000000000000000000000000000000000000000000000000000000000",
            "receiptTrie" : "0x56e81f171bcc55a6ff8345e692c0f86e5b48e01b996cadc001622fb5e363b421",
            "stateRoot" : "0xa93612260c90849d92f6927f54ede2ff801e30d12ec30907bb6ee30be2c97961",
            "timestamp" : "0x03b6",
            "transactionsTrie" : "0x56e81f171bcc55a6ff8345e692c0f86e5b48e01b996cadc001622fb5e363b421",
            "uncleHash" : "0x1dcc4de8dec75d7aab85b567b6ccd41ad312451b948a7413f0a142fd40d49347"
        },
        "genesisRLP" : "0xf901faf901f5a00000000000000000000000000000000000000000000000000000000000000000a01dcc4de8dec75d7aab85b567b6ccd41ad312451b948a7413f0a142fd40d49347942adc25665018aa1fe0e6bc666dac8fc2697ff9baa0a93612260c90849d92f6927f54ede2ff801e30d12ec30907bb6ee30be2c97961a056e81f171bcc55a6ff8345e692c0f86e5b48e01b996cadc001622fb5e363b421a056e81f171bcc55a6ff8345e692c0f86e5b48e01b996cadc001622fb5e363b421b9010000000000000000000000000000000000000000000000000000000000000000000000000000000000000000000000000000000000000000000000000000000000000000000000000000000000000000000000000000000000000000000000000000000000000000000000000000000000000000000000000000000000000000000000000000000000000000000000000000000000000000000000000000000000000000000000000000000000000000000000000000000000000000000000000000000000000000000000000000000000000000000000000000000000000000000000000000000000000000000000000000000000000000000000000000000000830200008083989680808203b642a056e81f171bcc55a6ff8345e692c0f86e5b48e01b996cadc001622fb5e363b421880102030405060708c0c0",
        "lastblockhash" : "0x41cf85fc87fd132bb6815523d8ab14b3c7ab6fa51605b05531d24effbec12bee",
        "network" : "Homestead",
        "postState" : {
            "0x2adc25665018aa1fe0e6bc666dac8fc2697ff9ba" : {
                "balance" : "0x4563918244f40000",
                "code" : "",
                "nonce" : "0x00",
                "storage" : {
                }
            },
            "0xa94f5374fce5edbc8e2a8697c15331677e6ebf0b" : {
                "balance" : "0x020404",
                "code" : "",
                "nonce" : "0x01",
                "storage" : {
                }
            },
            "0xb94f5374fce5edbc8e2a8697c15331677e6ebf0b" : {
                "balance" : "0x0384",
                "code" : "",
                "nonce" : "0x00",
                "storage" : {
                }
            }
        },
        "pre" : {
            "0xa94f5374fce5edbc8e2a8697c15331677e6ebf0b" : {
                "balance" : "0x020788",
                "code" : "",
                "nonce" : "0x00",
                "storage" : {
                }
            }
        }
    }
}