{
    "UserTransactionZeroCostWithData_d0g0v0_Byzantium" : {
        "_info" : {
            "comment" : "",
            "filledwith" : "cpp-1.3.0+commit.6e0ce939.Linux.g++",
            "lllcversion" : "Version: 0.4.18-develop.2017.9.25+commit.a72237f2.Linux.g++",
            "source" : "src/BlockchainTestsFiller/GeneralStateTests/stTransactionTest/UserTransactionZeroCostWithData_d0g0v0Filler.json",
            "sourceHash" : "42be257167f4d9f1c6b0676b33ff595a69e86400a348d466031c5c0ad9a8ad8a"
        },
        "blocks" : [
            {
                "blockHeader" : {
                    "bloom" : "0x00000000000000000000000000000000000000000000000000000000000000000000000000000000000000000000000000000000000000000000000000000000000000000000000000000000000000000000000000000000000000000000000000000000000000000000000000000000000000000000000000000000000000000000000000000000000000000000000000000000000000000000000000000000000000000000000000000000000000000000000000000000000000000000000000000000000000000000000000000000000000000000000000000000000000000000000000000000000000000000000000000000000000000000000000000000",
                    "coinbase" : "0x2adc25665018aa1fe0e6bc666dac8fc2697ff9ba",
                    "difficulty" : "0x020000",
                    "extraData" : "",
                    "gasLimit" : "0x989680",
                    "gasUsed" : "0x5428",
                    "hash" : "0x3d961dd7ba5202b721a80d2680a0180b90096a41418b9a276e5e9a75731826c6",
                    "mixHash" : "0x86564b8039fb105f283bdb5593e7abca68711933a71f793a6b0dd173970b28a6",
                    "nonce" : "0xed5d5d0f206b4d5d",
                    "number" : "0x01",
                    "parentHash" : "0xbbec0f957dd48724286f07ab8315a50b452b999d48f63f4891d7a3e30e6ad903",
                    "receiptTrie" : "0x45671daf07412c1ffe3483fd1fc0884ab0d4b99cc537b3e3155d1665cf5e83f0",
                    "stateRoot" : "0xbd2178482370da120ee42d9e5cb24635fd752fd2b7be67de3a78d7bf8b907852",
                    "timestamp" : "0x03e8",
                    "transactionsTrie" : "0x06ff309a9aa698853b7994f857058e35e973322cf472684f25614447acc6bfb1",
                    "uncleHash" : "0x1dcc4de8dec75d7aab85b567b6ccd41ad312451b948a7413f0a142fd40d49347"
                },
                "rlp" : "0xf90268f901f7a0bbec0f957dd48724286f07ab8315a50b452b999d48f63f4891d7a3e30e6ad903a01dcc4de8dec75d7aab85b567b6ccd41ad312451b948a7413f0a142fd40d49347942adc25665018aa1fe0e6bc666dac8fc2697ff9baa0bd2178482370da120ee42d9e5cb24635fd752fd2b7be67de3a78d7bf8b907852a006ff309a9aa698853b7994f857058e35e973322cf472684f25614447acc6bfb1a045671daf07412c1ffe3483fd1fc0884ab0d4b99cc537b3e3155d1665cf5e83f0b90100000000000000000000000000000000000000000000000000000000000000000000000000000000000000000000000000000000000000000000000000000000000000000000000000000000000000000000000000000000000000000000000000000000000000000000000000000000000000000000000000000000000000000000000000000000000000000000000000000000000000000000000000000000000000000000000000000000000000000000000000000000000000000000000000000000000000000000000000000000000000000000000000000000000000000000000000000000000000000000000000000000000000000000000000000000008302000001839896808254288203e880a086564b8039fb105f283bdb5593e7abca68711933a71f793a6b0dd173970b28a688ed5d5d0f206b4d5df86bf8698080827f5894b94f5374fce5edbc8e2a8697c15331677e6ebf0b8203848832403495489834541ca0d8c0f168276fbface0bf8e84d3e24b640df4b374f6d62ec75bf11a15fe922b30a013cf00b9b751ef4461a7ba3f84b2c5aff2b1482b34383270731dbea4a6a43831c0",
                "transactions" : [
                    {
                        "data" : "0x3240349548983454",
                        "gasLimit" : "0x7f58",
                        "gasPrice" : "0x00",
                        "nonce" : "0x00",
                        "r" : "0xd8c0f168276fbface0bf8e84d3e24b640df4b374f6d62ec75bf11a15fe922b30",
                        "s" : "0x13cf00b9b751ef4461a7ba3f84b2c5aff2b1482b34383270731dbea4a6a43831",
                        "to" : "0xb94f5374fce5edbc8e2a8697c15331677e6ebf0b",
                        "v" : "0x1c",
                        "value" : "0x0384"
                    }
                ],
                "uncleHeaders" : [
                ]
            }
        ],
        "genesisBlockHeader" : {
            "bloom" : "0x00000000000000000000000000000000000000000000000000000000000000000000000000000000000000000000000000000000000000000000000000000000000000000000000000000000000000000000000000000000000000000000000000000000000000000000000000000000000000000000000000000000000000000000000000000000000000000000000000000000000000000000000000000000000000000000000000000000000000000000000000000000000000000000000000000000000000000000000000000000000000000000000000000000000000000000000000000000000000000000000000000000000000000000000000000000",
            "coinbase" : "0x2adc25665018aa1fe0e6bc666dac8fc2697ff9ba",
            "difficulty" : "0x020000",
            "extraData" : "0x42",
            "gasLimit" : "0x989680",
            "gasUsed" : "0x00",
            "hash" : "0xbbec0f957dd48724286f07ab8315a50b452b999d48f63f4891d7a3e30e6ad903",
            "mixHash" : "0x56e81f171bcc55a6ff8345e692c0f86e5b48e01b996cadc001622fb5e363b421",
            "nonce" : "0x0102030405060708",
            "number" : "0x00",
            "parentHash" : "0x0000000000000000000000000000000000000000000000000000000000000000",
            "receiptTrie" : "0x56e81f171bcc55a6ff8345e692c0f86e5b48e01b996cadc001622fb5e363b421",
            "stateRoot" : "0xa93612260c90849d92f6927f54ede2ff801e30d12ec30907bb6ee30be2c97961",
            "timestamp" : "0x03b6",
            "transactionsTrie" : "0x56e81f171bcc55a6ff8345e692c0f86e5b48e01b996cadc001622fb5e363b421",
            "uncleHash" : "0x1dcc4de8dec75d7aab85b567b6ccd41ad312451b948a7413f0a142fd40d49347"
        },
        "genesisRLP" : "0xf901faf901f5a00000000000000000000000000000000000000000000000000000000000000000a01dcc4de8dec75d7aab85b567b6ccd41ad312451b948a7413f0a142fd40d49347942adc25665018aa1fe0e6bc666dac8fc2697ff9baa0a93612260c90849d92f6927f54ede2ff801e30d12ec30907bb6ee30be2c97961a056e81f171bcc55a6ff8345e692c0f86e5b48e01b996cadc001622fb5e363b421a056e81f171bcc55a6ff8345e692c0f86e5b48e01b996cadc001622fb5e363b421b9010000000000000000000000000000000000000000000000000000000000000000000000000000000000000000000000000000000000000000000000000000000000000000000000000000000000000000000000000000000000000000000000000000000000000000000000000000000000000000000000000000000000000000000000000000000000000000000000000000000000000000000000000000000000000000000000000000000000000000000000000000000000000000000000000000000000000000000000000000000000000000000000000000000000000000000000000000000000000000000000000000000000000000000000000000000000830200008083989680808203b642a056e81f171bcc55a6ff8345e692c0f86e5b48e01b996cadc001622fb5e363b421880102030405060708c0c0",
        "lastblockhash" : "0x3d961dd7ba5202b721a80d2680a0180b90096a41418b9a276e5e9a75731826c6",
        "network" : "Byzantium",
        "postState" : {
            "0x2adc25665018aa1fe0e6bc666dac8fc2697ff9ba" : {
                "balance" : "0x29a2241af62c0000",
                "code" : "",
                "nonce" : "0x00",
                "storage" : {
                }
            },
            "0xa94f5374fce5edbc8e2a8697c15331677e6ebf0b" : {
                "balance" : "0x020404",
                "code" : "",
                "nonce" : "0x01",
                "storage" : {
                }
            },
            "0xb94f5374fce5edbc8e2a8697c15331677e6ebf0b" : {
                "balance" : "0x0384",
                "code" : "",
                "nonce" : "0x00",
                "storage" : {
                }
            }
        },
        "pre" : {
            "0xa94f5374fce5edbc8e2a8697c15331677e6ebf0b" : {
                "balance" : "0x020788",
                "code" : "",
                "nonce" : "0x00",
                "storage" : {
                }
            }
        }
    },
    "UserTransactionZeroCostWithData_d0g0v0_EIP150" : {
        "_info" : {
            "comment" : "",
            "filledwith" : "cpp-1.3.0+commit.6e0ce939.Linux.g++",
            "lllcversion" : "Version: 0.4.18-develop.2017.9.25+commit.a72237f2.Linux.g++",
            "source" : "src/BlockchainTestsFiller/GeneralStateTests/stTransactionTest/UserTransactionZeroCostWithData_d0g0v0Filler.json",
            "sourceHash" : "42be257167f4d9f1c6b0676b33ff595a69e86400a348d466031c5c0ad9a8ad8a"
        },
        "blocks" : [
            {
                "blockHeader" : {
                    "bloom" : "0x00000000000000000000000000000000000000000000000000000000000000000000000000000000000000000000000000000000000000000000000000000000000000000000000000000000000000000000000000000000000000000000000000000000000000000000000000000000000000000000000000000000000000000000000000000000000000000000000000000000000000000000000000000000000000000000000000000000000000000000000000000000000000000000000000000000000000000000000000000000000000000000000000000000000000000000000000000000000000000000000000000000000000000000000000000000",
                    "coinbase" : "0x2adc25665018aa1fe0e6bc666dac8fc2697ff9ba",
                    "difficulty" : "0x020000",
                    "extraData" : "",
                    "gasLimit" : "0x989680",
                    "gasUsed" : "0x5428",
                    "hash" : "0x32e8634153f99fc11eb5f9ea6fd4d376698c2293a9996971419ffe84be171a39",
                    "mixHash" : "0xad8084c4c58b90d49ec7e5fe62b03016d6056d78d1a6d6e2f7565cd99b07487f",
                    "nonce" : "0xa0894e53aaca2a43",
                    "number" : "0x01",
                    "parentHash" : "0xbbec0f957dd48724286f07ab8315a50b452b999d48f63f4891d7a3e30e6ad903",
                    "receiptTrie" : "0xbd5f2814eabd2b7c6ef519b399c74777481af40ec38c2fff6d45dc41fede4a94",
                    "stateRoot" : "0xcd1c98dbcfdc3ac6ad6a9ae85ad4ff205444560e209178e151784b8b2ef57f5f",
                    "timestamp" : "0x03e8",
                    "transactionsTrie" : "0x06ff309a9aa698853b7994f857058e35e973322cf472684f25614447acc6bfb1",
                    "uncleHash" : "0x1dcc4de8dec75d7aab85b567b6ccd41ad312451b948a7413f0a142fd40d49347"
                },
                "rlp" : "0xf90268f901f7a0bbec0f957dd48724286f07ab8315a50b452b999d48f63f4891d7a3e30e6ad903a01dcc4de8dec75d7aab85b567b6ccd41ad312451b948a7413f0a142fd40d49347942adc25665018aa1fe0e6bc666dac8fc2697ff9baa0cd1c98dbcfdc3ac6ad6a9ae85ad4ff205444560e209178e151784b8b2ef57f5fa006ff309a9aa698853b7994f857058e35e973322cf472684f25614447acc6bfb1a0bd5f2814eabd2b7c6ef519b399c74777481af40ec38c2fff6d45dc41fede4a94b90100000000000000000000000000000000000000000000000000000000000000000000000000000000000000000000000000000000000000000000000000000000000000000000000000000000000000000000000000000000000000000000000000000000000000000000000000000000000000000000000000000000000000000000000000000000000000000000000000000000000000000000000000000000000000000000000000000000000000000000000000000000000000000000000000000000000000000000000000000000000000000000000000000000000000000000000000000000000000000000000000000000000000000000000000000000008302000001839896808254288203e880a0ad8084c4c58b90d49ec7e5fe62b03016d6056d78d1a6d6e2f7565cd99b07487f88a0894e53aaca2a43f86bf8698080827f5894b94f5374fce5edbc8e2a8697c15331677e6ebf0b8203848832403495489834541ca0d8c0f168276fbface0bf8e84d3e24b640df4b374f6d62ec75bf11a15fe922b30a013cf00b9b751ef4461a7ba3f84b2c5aff2b1482b34383270731dbea4a6a43831c0",
                "transactions" : [
                    {
                        "data" : "0x3240349548983454",
                        "gasLimit" : "0x7f58",
                        "gasPrice" : "0x00",
                        "nonce" : "0x00",
                        "r" : "0xd8c0f168276fbface0bf8e84d3e24b640df4b374f6d62ec75bf11a15fe922b30",
                        "s" : "0x13cf00b9b751ef4461a7ba3f84b2c5aff2b1482b34383270731dbea4a6a43831",
                        "to" : "0xb94f5374fce5edbc8e2a8697c15331677e6ebf0b",
                        "v" : "0x1c",
                        "value" : "0x0384"
                    }
                ],
                "uncleHeaders" : [
                ]
            }
        ],
        "genesisBlockHeader" : {
            "bloom" : "0x00000000000000000000000000000000000000000000000000000000000000000000000000000000000000000000000000000000000000000000000000000000000000000000000000000000000000000000000000000000000000000000000000000000000000000000000000000000000000000000000000000000000000000000000000000000000000000000000000000000000000000000000000000000000000000000000000000000000000000000000000000000000000000000000000000000000000000000000000000000000000000000000000000000000000000000000000000000000000000000000000000000000000000000000000000000",
            "coinbase" : "0x2adc25665018aa1fe0e6bc666dac8fc2697ff9ba",
            "difficulty" : "0x020000",
            "extraData" : "0x42",
            "gasLimit" : "0x989680",
            "gasUsed" : "0x00",
            "hash" : "0xbbec0f957dd48724286f07ab8315a50b452b999d48f63f4891d7a3e30e6ad903",
            "mixHash" : "0x56e81f171bcc55a6ff8345e692c0f86e5b48e01b996cadc001622fb5e363b421",
            "nonce" : "0x0102030405060708",
            "number" : "0x00",
            "parentHash" : "0x0000000000000000000000000000000000000000000000000000000000000000",
            "receiptTrie" : "0x56e81f171bcc55a6ff8345e692c0f86e5b48e01b996cadc001622fb5e363b421",
            "stateRoot" : "0xa93612260c90849d92f6927f54ede2ff801e30d12ec30907bb6ee30be2c97961",
            "timestamp" : "0x03b6",
            "transactionsTrie" : "0x56e81f171bcc55a6ff8345e692c0f86e5b48e01b996cadc001622fb5e363b421",
            "uncleHash" : "0x1dcc4de8dec75d7aab85b567b6ccd41ad312451b948a7413f0a142fd40d49347"
        },
        "genesisRLP" : "0xf901faf901f5a00000000000000000000000000000000000000000000000000000000000000000a01dcc4de8dec75d7aab85b567b6ccd41ad312451b948a7413f0a142fd40d49347942adc25665018aa1fe0e6bc666dac8fc2697ff9baa0a93612260c90849d92f6927f54ede2ff801e30d12ec30907bb6ee30be2c97961a056e81f171bcc55a6ff8345e692c0f86e5b48e01b996cadc001622fb5e363b421a056e81f171bcc55a6ff8345e692c0f86e5b48e01b996cadc001622fb5e363b421b9010000000000000000000000000000000000000000000000000000000000000000000000000000000000000000000000000000000000000000000000000000000000000000000000000000000000000000000000000000000000000000000000000000000000000000000000000000000000000000000000000000000000000000000000000000000000000000000000000000000000000000000000000000000000000000000000000000000000000000000000000000000000000000000000000000000000000000000000000000000000000000000000000000000000000000000000000000000000000000000000000000000000000000000000000000000000830200008083989680808203b642a056e81f171bcc55a6ff8345e692c0f86e5b48e01b996cadc001622fb5e363b421880102030405060708c0c0",
        "lastblockhash" : "0x32e8634153f99fc11eb5f9ea6fd4d376698c2293a9996971419ffe84be171a39",
        "network" : "EIP150",
        "postState" : {
            "0x2adc25665018aa1fe0e6bc666dac8fc2697ff9ba" : {
                "balance" : "0x4563918244f40000",
                "code" : "",
                "nonce" : "0x00",
                "storage" : {
                }
            },
            "0xa94f5374fce5edbc8e2a8697c15331677e6ebf0b" : {
                "balance" : "0x020404",
                "code" : "",
                "nonce" : "0x01",
                "storage" : {
                }
            },
            "0xb94f5374fce5edbc8e2a8697c15331677e6ebf0b" : {
                "balance" : "0x0384",
                "code" : "",
                "nonce" : "0x00",
                "storage" : {
                }
            }
        },
        "pre" : {
            "0xa94f5374fce5edbc8e2a8697c15331677e6ebf0b" : {
                "balance" : "0x020788",
                "code" : "",
                "nonce" : "0x00",
                "storage" : {
                }
            }
        }
    },
    "UserTransactionZeroCostWithData_d0g0v0_EIP158" : {
        "_info" : {
            "comment" : "",
            "filledwith" : "cpp-1.3.0+commit.6e0ce939.Linux.g++",
            "lllcversion" : "Version: 0.4.18-develop.2017.9.25+commit.a72237f2.Linux.g++",
            "source" : "src/BlockchainTestsFiller/GeneralStateTests/stTransactionTest/UserTransactionZeroCostWithData_d0g0v0Filler.json",
            "sourceHash" : "42be257167f4d9f1c6b0676b33ff595a69e86400a348d466031c5c0ad9a8ad8a"
        },
        "blocks" : [
            {
                "blockHeader" : {
                    "bloom" : "0x00000000000000000000000000000000000000000000000000000000000000000000000000000000000000000000000000000000000000000000000000000000000000000000000000000000000000000000000000000000000000000000000000000000000000000000000000000000000000000000000000000000000000000000000000000000000000000000000000000000000000000000000000000000000000000000000000000000000000000000000000000000000000000000000000000000000000000000000000000000000000000000000000000000000000000000000000000000000000000000000000000000000000000000000000000000",
                    "coinbase" : "0x2adc25665018aa1fe0e6bc666dac8fc2697ff9ba",
                    "difficulty" : "0x020000",
                    "extraData" : "",
                    "gasLimit" : "0x989680",
                    "gasUsed" : "0x5428",
                    "hash" : "0x5ce3e3642323ee95e16898be7a718dc8944ce13816c71309169e26a450445e2a",
                    "mixHash" : "0x0a51a93a8aa7f0956de018fbe0010410aa503097609dc8b58d9dfaa218135483",
                    "nonce" : "0xec3f2f22e2c26a0a",
                    "number" : "0x01",
                    "parentHash" : "0xbbec0f957dd48724286f07ab8315a50b452b999d48f63f4891d7a3e30e6ad903",
                    "receiptTrie" : "0x40d36606f9aa004ce1c185fae5c92257456c76e6215862eb8f4e3c35d7d03960",
                    "stateRoot" : "0xcd1c98dbcfdc3ac6ad6a9ae85ad4ff205444560e209178e151784b8b2ef57f5f",
                    "timestamp" : "0x03e8",
                    "transactionsTrie" : "0x06ff309a9aa698853b7994f857058e35e973322cf472684f25614447acc6bfb1",
                    "uncleHash" : "0x1dcc4de8dec75d7aab85b567b6ccd41ad312451b948a7413f0a142fd40d49347"
                },
                "rlp" : "0xf90268f901f7a0bbec0f957dd48724286f07ab8315a50b452b999d48f63f4891d7a3e30e6ad903a01dcc4de8dec75d7aab85b567b6ccd41ad312451b948a7413f0a142fd40d49347942adc25665018aa1fe0e6bc666dac8fc2697ff9baa0cd1c98dbcfdc3ac6ad6a9ae85ad4ff205444560e209178e151784b8b2ef57f5fa006ff309a9aa698853b7994f857058e35e973322cf472684f25614447acc6bfb1a040d36606f9aa004ce1c185fae5c92257456c76e6215862eb8f4e3c35d7d03960b90100000000000000000000000000000000000000000000000000000000000000000000000000000000000000000000000000000000000000000000000000000000000000000000000000000000000000000000000000000000000000000000000000000000000000000000000000000000000000000000000000000000000000000000000000000000000000000000000000000000000000000000000000000000000000000000000000000000000000000000000000000000000000000000000000000000000000000000000000000000000000000000000000000000000000000000000000000000000000000000000000000000000000000000000000000000008302000001839896808254288203e880a00a51a93a8aa7f0956de018fbe0010410aa503097609dc8b58d9dfaa21813548388ec3f2f22e2c26a0af86bf8698080827f5894b94f5374fce5edbc8e2a8697c15331677e6ebf0b8203848832403495489834541ca0d8c0f168276fbface0bf8e84d3e24b640df4b374f6d62ec75bf11a15fe922b30a013cf00b9b751ef4461a7ba3f84b2c5aff2b1482b34383270731dbea4a6a43831c0",
                "transactions" : [
                    {
                        "data" : "0x3240349548983454",
                        "gasLimit" : "0x7f58",
                        "gasPrice" : "0x00",
                        "nonce" : "0x00",
                        "r" : "0xd8c0f168276fbface0bf8e84d3e24b640df4b374f6d62ec75bf11a15fe922b30",
                        "s" : "0x13cf00b9b751ef4461a7ba3f84b2c5aff2b1482b34383270731dbea4a6a43831",
                        "to" : "0xb94f5374fce5edbc8e2a8697c15331677e6ebf0b",
                        "v" : "0x1c",
                        "value" : "0x0384"
                    }
                ],
                "uncleHeaders" : [
                ]
            }
        ],
        "genesisBlockHeader" : {
            "bloom" : "0x00000000000000000000000000000000000000000000000000000000000000000000000000000000000000000000000000000000000000000000000000000000000000000000000000000000000000000000000000000000000000000000000000000000000000000000000000000000000000000000000000000000000000000000000000000000000000000000000000000000000000000000000000000000000000000000000000000000000000000000000000000000000000000000000000000000000000000000000000000000000000000000000000000000000000000000000000000000000000000000000000000000000000000000000000000000",
            "coinbase" : "0x2adc25665018aa1fe0e6bc666dac8fc2697ff9ba",
            "difficulty" : "0x020000",
            "extraData" : "0x42",
            "gasLimit" : "0x989680",
            "gasUsed" : "0x00",
            "hash" : "0xbbec0f957dd48724286f07ab8315a50b452b999d48f63f4891d7a3e30e6ad903",
            "mixHash" : "0x56e81f171bcc55a6ff8345e692c0f86e5b48e01b996cadc001622fb5e363b421",
            "nonce" : "0x0102030405060708",
            "number" : "0x00",
            "parentHash" : "0x0000000000000000000000000000000000000000000000000000000000000000",
            "receiptTrie" : "0x56e81f171bcc55a6ff8345e692c0f86e5b48e01b996cadc001622fb5e363b421",
            "stateRoot" : "0xa93612260c90849d92f6927f54ede2ff801e30d12ec30907bb6ee30be2c97961",
            "timestamp" : "0x03b6",
            "transactionsTrie" : "0x56e81f171bcc55a6ff8345e692c0f86e5b48e01b996cadc001622fb5e363b421",
            "uncleHash" : "0x1dcc4de8dec75d7aab85b567b6ccd41ad312451b948a7413f0a142fd40d49347"
        },
        "genesisRLP" : "0xf901faf901f5a00000000000000000000000000000000000000000000000000000000000000000a01dcc4de8dec75d7aab85b567b6ccd41ad312451b948a7413f0a142fd40d49347942adc25665018aa1fe0e6bc666dac8fc2697ff9baa0a93612260c90849d92f6927f54ede2ff801e30d12ec30907bb6ee30be2c97961a056e81f171bcc55a6ff8345e692c0f86e5b48e01b996cadc001622fb5e363b421a056e81f171bcc55a6ff8345e692c0f86e5b48e01b996cadc001622fb5e363b421b9010000000000000000000000000000000000000000000000000000000000000000000000000000000000000000000000000000000000000000000000000000000000000000000000000000000000000000000000000000000000000000000000000000000000000000000000000000000000000000000000000000000000000000000000000000000000000000000000000000000000000000000000000000000000000000000000000000000000000000000000000000000000000000000000000000000000000000000000000000000000000000000000000000000000000000000000000000000000000000000000000000000000000000000000000000000000830200008083989680808203b642a056e81f171bcc55a6ff8345e692c0f86e5b48e01b996cadc001622fb5e363b421880102030405060708c0c0",
        "lastblockhash" : "0x5ce3e3642323ee95e16898be7a718dc8944ce13816c71309169e26a450445e2a",
        "network" : "EIP158",
        "postState" : {
            "0x2adc25665018aa1fe0e6bc666dac8fc2697ff9ba" : {
                "balance" : "0x4563918244f40000",
                "code" : "",
                "nonce" : "0x00",
                "storage" : {
                }
            },
            "0xa94f5374fce5edbc8e2a8697c15331677e6ebf0b" : {
                "balance" : "0x020404",
                "code" : "",
                "nonce" : "0x01",
                "storage" : {
                }
            },
            "0xb94f5374fce5edbc8e2a8697c15331677e6ebf0b" : {
                "balance" : "0x0384",
                "code" : "",
                "nonce" : "0x00",
                "storage" : {
                }
            }
        },
        "pre" : {
            "0xa94f5374fce5edbc8e2a8697c15331677e6ebf0b" : {
                "balance" : "0x020788",
                "code" : "",
                "nonce" : "0x00",
                "storage" : {
                }
            }
        }
    },
    "UserTransactionZeroCostWithData_d0g0v0_Frontier" : {
        "_info" : {
            "comment" : "",
            "filledwith" : "cpp-1.3.0+commit.6e0ce939.Linux.g++",
            "lllcversion" : "Version: 0.4.18-develop.2017.9.25+commit.a72237f2.Linux.g++",
            "source" : "src/BlockchainTestsFiller/GeneralStateTests/stTransactionTest/UserTransactionZeroCostWithData_d0g0v0Filler.json",
            "sourceHash" : "42be257167f4d9f1c6b0676b33ff595a69e86400a348d466031c5c0ad9a8ad8a"
        },
        "blocks" : [
            {
                "blockHeader" : {
                    "bloom" : "0x00000000000000000000000000000000000000000000000000000000000000000000000000000000000000000000000000000000000000000000000000000000000000000000000000000000000000000000000000000000000000000000000000000000000000000000000000000000000000000000000000000000000000000000000000000000000000000000000000000000000000000000000000000000000000000000000000000000000000000000000000000000000000000000000000000000000000000000000000000000000000000000000000000000000000000000000000000000000000000000000000000000000000000000000000000000",
                    "coinbase" : "0x2adc25665018aa1fe0e6bc666dac8fc2697ff9ba",
                    "difficulty" : "0x020000",
                    "extraData" : "",
                    "gasLimit" : "0x989680",
                    "gasUsed" : "0x5428",
                    "hash" : "0xe47d7fa90bba691e40fa41f4fc904c3d5e5b683ad6eba4bbfbaea637a91820b1",
                    "mixHash" : "0x3938e757d804a2f289e98a223e84dd0240931c5d71b8b4bd62f83f095aa98c02",
                    "nonce" : "0x0ac08850575ce4b3",
                    "number" : "0x01",
                    "parentHash" : "0xbbec0f957dd48724286f07ab8315a50b452b999d48f63f4891d7a3e30e6ad903",
                    "receiptTrie" : "0xbd5f2814eabd2b7c6ef519b399c74777481af40ec38c2fff6d45dc41fede4a94",
                    "stateRoot" : "0xcd1c98dbcfdc3ac6ad6a9ae85ad4ff205444560e209178e151784b8b2ef57f5f",
                    "timestamp" : "0x03e8",
                    "transactionsTrie" : "0x06ff309a9aa698853b7994f857058e35e973322cf472684f25614447acc6bfb1",
                    "uncleHash" : "0x1dcc4de8dec75d7aab85b567b6ccd41ad312451b948a7413f0a142fd40d49347"
                },
                "rlp" : "0xf90268f901f7a0bbec0f957dd48724286f07ab8315a50b452b999d48f63f4891d7a3e30e6ad903a01dcc4de8dec75d7aab85b567b6ccd41ad312451b948a7413f0a142fd40d49347942adc25665018aa1fe0e6bc666dac8fc2697ff9baa0cd1c98dbcfdc3ac6ad6a9ae85ad4ff205444560e209178e151784b8b2ef57f5fa006ff309a9aa698853b7994f857058e35e973322cf472684f25614447acc6bfb1a0bd5f2814eabd2b7c6ef519b399c74777481af40ec38c2fff6d45dc41fede4a94b90100000000000000000000000000000000000000000000000000000000000000000000000000000000000000000000000000000000000000000000000000000000000000000000000000000000000000000000000000000000000000000000000000000000000000000000000000000000000000000000000000000000000000000000000000000000000000000000000000000000000000000000000000000000000000000000000000000000000000000000000000000000000000000000000000000000000000000000000000000000000000000000000000000000000000000000000000000000000000000000000000000000000000000000000000000000008302000001839896808254288203e880a03938e757d804a2f289e98a223e84dd0240931c5d71b8b4bd62f83f095aa98c02880ac08850575ce4b3f86bf8698080827f5894b94f5374fce5edbc8e2a8697c15331677e6ebf0b8203848832403495489834541ca0d8c0f168276fbface0bf8e84d3e24b640df4b374f6d62ec75bf11a15fe922b30a013cf00b9b751ef4461a7ba3f84b2c5aff2b1482b34383270731dbea4a6a43831c0",
                "transactions" : [
                    {
                        "data" : "0x3240349548983454",
                        "gasLimit" : "0x7f58",
                        "gasPrice" : "0x00",
                        "nonce" : "0x00",
                        "r" : "0xd8c0f168276fbface0bf8e84d3e24b640df4b374f6d62ec75bf11a15fe922b30",
                        "s" : "0x13cf00b9b751ef4461a7ba3f84b2c5aff2b1482b34383270731dbea4a6a43831",
                        "to" : "0xb94f5374fce5edbc8e2a8697c15331677e6ebf0b",
                        "v" : "0x1c",
                        "value" : "0x0384"
                    }
                ],
                "uncleHeaders" : [
                ]
            }
        ],
        "genesisBlockHeader" : {
            "bloom" : "0x00000000000000000000000000000000000000000000000000000000000000000000000000000000000000000000000000000000000000000000000000000000000000000000000000000000000000000000000000000000000000000000000000000000000000000000000000000000000000000000000000000000000000000000000000000000000000000000000000000000000000000000000000000000000000000000000000000000000000000000000000000000000000000000000000000000000000000000000000000000000000000000000000000000000000000000000000000000000000000000000000000000000000000000000000000000",
            "coinbase" : "0x2adc25665018aa1fe0e6bc666dac8fc2697ff9ba",
            "difficulty" : "0x020000",
            "extraData" : "0x42",
            "gasLimit" : "0x989680",
            "gasUsed" : "0x00",
            "hash" : "0xbbec0f957dd48724286f07ab8315a50b452b999d48f63f4891d7a3e30e6ad903",
            "mixHash" : "0x56e81f171bcc55a6ff8345e692c0f86e5b48e01b996cadc001622fb5e363b421",
            "nonce" : "0x0102030405060708",
            "number" : "0x00",
            "parentHash" : "0x0000000000000000000000000000000000000000000000000000000000000000",
            "receiptTrie" : "0x56e81f171bcc55a6ff8345e692c0f86e5b48e01b996cadc001622fb5e363b421",
            "stateRoot" : "0xa93612260c90849d92f6927f54ede2ff801e30d12ec30907bb6ee30be2c97961",
            "timestamp" : "0x03b6",
            "transactionsTrie" : "0x56e81f171bcc55a6ff8345e692c0f86e5b48e01b996cadc001622fb5e363b421",
            "uncleHash" : "0x1dcc4de8dec75d7aab85b567b6ccd41ad312451b948a7413f0a142fd40d49347"
        },
        "genesisRLP" : "0xf901faf901f5a00000000000000000000000000000000000000000000000000000000000000000a01dcc4de8dec75d7aab85b567b6ccd41ad312451b948a7413f0a142fd40d49347942adc25665018aa1fe0e6bc666dac8fc2697ff9baa0a93612260c90849d92f6927f54ede2ff801e30d12ec30907bb6ee30be2c97961a056e81f171bcc55a6ff8345e692c0f86e5b48e01b996cadc001622fb5e363b421a056e81f171bcc55a6ff8345e692c0f86e5b48e01b996cadc001622fb5e363b421b9010000000000000000000000000000000000000000000000000000000000000000000000000000000000000000000000000000000000000000000000000000000000000000000000000000000000000000000000000000000000000000000000000000000000000000000000000000000000000000000000000000000000000000000000000000000000000000000000000000000000000000000000000000000000000000000000000000000000000000000000000000000000000000000000000000000000000000000000000000000000000000000000000000000000000000000000000000000000000000000000000000000000000000000000000000000000830200008083989680808203b642a056e81f171bcc55a6ff8345e692c0f86e5b48e01b996cadc001622fb5e363b421880102030405060708c0c0",
        "lastblockhash" : "0xe47d7fa90bba691e40fa41f4fc904c3d5e5b683ad6eba4bbfbaea637a91820b1",
        "network" : "Frontier",
        "postState" : {
            "0x2adc25665018aa1fe0e6bc666dac8fc2697ff9ba" : {
                "balance" : "0x4563918244f40000",
                "code" : "",
                "nonce" : "0x00",
                "storage" : {
                }
            },
            "0xa94f5374fce5edbc8e2a8697c15331677e6ebf0b" : {
                "balance" : "0x020404",
                "code" : "",
                "nonce" : "0x01",
                "storage" : {
                }
            },
            "0xb94f5374fce5edbc8e2a8697c15331677e6ebf0b" : {
                "balance" : "0x0384",
                "code" : "",
                "nonce" : "0x00",
                "storage" : {
                }
            }
        },
        "pre" : {
            "0xa94f5374fce5edbc8e2a8697c15331677e6ebf0b" : {
                "balance" : "0x020788",
                "code" : "",
                "nonce" : "0x00",
                "storage" : {
                }
            }
        }
    },
    "UserTransactionZeroCostWithData_d0g0v0_Homestead" : {
        "_info" : {
            "comment" : "",
            "filledwith" : "cpp-1.3.0+commit.6e0ce939.Linux.g++",
            "lllcversion" : "Version: 0.4.18-develop.2017.9.25+commit.a72237f2.Linux.g++",
            "source" : "src/BlockchainTestsFiller/GeneralStateTests/stTransactionTest/UserTransactionZeroCostWithData_d0g0v0Filler.json",
            "sourceHash" : "42be257167f4d9f1c6b0676b33ff595a69e86400a348d466031c5c0ad9a8ad8a"
        },
        "blocks" : [
            {
                "blockHeader" : {
                    "bloom" : "0x00000000000000000000000000000000000000000000000000000000000000000000000000000000000000000000000000000000000000000000000000000000000000000000000000000000000000000000000000000000000000000000000000000000000000000000000000000000000000000000000000000000000000000000000000000000000000000000000000000000000000000000000000000000000000000000000000000000000000000000000000000000000000000000000000000000000000000000000000000000000000000000000000000000000000000000000000000000000000000000000000000000000000000000000000000000",
                    "coinbase" : "0x2adc25665018aa1fe0e6bc666dac8fc2697ff9ba",
                    "difficulty" : "0x020000",
                    "extraData" : "",
                    "gasLimit" : "0x989680",
                    "gasUsed" : "0x5428",
                    "hash" : "0x28880a3ae0ef0f3f2213b5c35d61457d6e988806d6decef5588694bc4eee24ca",
                    "mixHash" : "0x5e3d1f81b11ebb2764cffbd8c05dd29602d8c7c99556e1d6ceb3e88e3685b6bc",
                    "nonce" : "0xb7eda71d32366a2c",
                    "number" : "0x01",
                    "parentHash" : "0xbbec0f957dd48724286f07ab8315a50b452b999d48f63f4891d7a3e30e6ad903",
                    "receiptTrie" : "0xbd5f2814eabd2b7c6ef519b399c74777481af40ec38c2fff6d45dc41fede4a94",
                    "stateRoot" : "0xcd1c98dbcfdc3ac6ad6a9ae85ad4ff205444560e209178e151784b8b2ef57f5f",
                    "timestamp" : "0x03e8",
                    "transactionsTrie" : "0x06ff309a9aa698853b7994f857058e35e973322cf472684f25614447acc6bfb1",
                    "uncleHash" : "0x1dcc4de8dec75d7aab85b567b6ccd41ad312451b948a7413f0a142fd40d49347"
                },
                "rlp" : "0xf90268f901f7a0bbec0f957dd48724286f07ab8315a50b452b999d48f63f4891d7a3e30e6ad903a01dcc4de8dec75d7aab85b567b6ccd41ad312451b948a7413f0a142fd40d49347942adc25665018aa1fe0e6bc666dac8fc2697ff9baa0cd1c98dbcfdc3ac6ad6a9ae85ad4ff205444560e209178e151784b8b2ef57f5fa006ff309a9aa698853b7994f857058e35e973322cf472684f25614447acc6bfb1a0bd5f2814eabd2b7c6ef519b399c74777481af40ec38c2fff6d45dc41fede4a94b90100000000000000000000000000000000000000000000000000000000000000000000000000000000000000000000000000000000000000000000000000000000000000000000000000000000000000000000000000000000000000000000000000000000000000000000000000000000000000000000000000000000000000000000000000000000000000000000000000000000000000000000000000000000000000000000000000000000000000000000000000000000000000000000000000000000000000000000000000000000000000000000000000000000000000000000000000000000000000000000000000000000000000000000000000000000008302000001839896808254288203e880a05e3d1f81b11ebb2764cffbd8c05dd29602d8c7c99556e1d6ceb3e88e3685b6bc88b7eda71d32366a2cf86bf8698080827f5894b94f5374fce5edbc8e2a8697c15331677e6ebf0b8203848832403495489834541ca0d8c0f168276fbface0bf8e84d3e24b640df4b374f6d62ec75bf11a15fe922b30a013cf00b9b751ef4461a7ba3f84b2c5aff2b1482b34383270731dbea4a6a43831c0",
                "transactions" : [
                    {
                        "data" : "0x3240349548983454",
                        "gasLimit" : "0x7f58",
                        "gasPrice" : "0x00",
                        "nonce" : "0x00",
                        "r" : "0xd8c0f168276fbface0bf8e84d3e24b640df4b374f6d62ec75bf11a15fe922b30",
                        "s" : "0x13cf00b9b751ef4461a7ba3f84b2c5aff2b1482b34383270731dbea4a6a43831",
                        "to" : "0xb94f5374fce5edbc8e2a8697c15331677e6ebf0b",
                        "v" : "0x1c",
                        "value" : "0x0384"
                    }
                ],
                "uncleHeaders" : [
                ]
            }
        ],
        "genesisBlockHeader" : {
            "bloom" : "0x00000000000000000000000000000000000000000000000000000000000000000000000000000000000000000000000000000000000000000000000000000000000000000000000000000000000000000000000000000000000000000000000000000000000000000000000000000000000000000000000000000000000000000000000000000000000000000000000000000000000000000000000000000000000000000000000000000000000000000000000000000000000000000000000000000000000000000000000000000000000000000000000000000000000000000000000000000000000000000000000000000000000000000000000000000000",
            "coinbase" : "0x2adc25665018aa1fe0e6bc666dac8fc2697ff9ba",
            "difficulty" : "0x020000",
            "extraData" : "0x42",
            "gasLimit" : "0x989680",
            "gasUsed" : "0x00",
            "hash" : "0xbbec0f957dd48724286f07ab8315a50b452b999d48f63f4891d7a3e30e6ad903",
            "mixHash" : "0x56e81f171bcc55a6ff8345e692c0f86e5b48e01b996cadc001622fb5e363b421",
            "nonce" : "0x0102030405060708",
            "number" : "0x00",
            "parentHash" : "0x0000000000000000000000000000000000000000000000000000000000000000",
            "receiptTrie" : "0x56e81f171bcc55a6ff8345e692c0f86e5b48e01b996cadc001622fb5e363b421",
            "stateRoot" : "0xa93612260c90849d92f6927f54ede2ff801e30d12ec30907bb6ee30be2c97961",
            "timestamp" : "0x03b6",
            "transactionsTrie" : "0x56e81f171bcc55a6ff8345e692c0f86e5b48e01b996cadc001622fb5e363b421",
            "uncleHash" : "0x1dcc4de8dec75d7aab85b567b6ccd41ad312451b948a7413f0a142fd40d49347"
        },
        "genesisRLP" : "0xf901faf901f5a00000000000000000000000000000000000000000000000000000000000000000a01dcc4de8dec75d7aab85b567b6ccd41ad312451b948a7413f0a142fd40d49347942adc25665018aa1fe0e6bc666dac8fc2697ff9baa0a93612260c90849d92f6927f54ede2ff801e30d12ec30907bb6ee30be2c97961a056e81f171bcc55a6ff8345e692c0f86e5b48e01b996cadc001622fb5e363b421a056e81f171bcc55a6ff8345e692c0f86e5b48e01b996cadc001622fb5e363b421b9010000000000000000000000000000000000000000000000000000000000000000000000000000000000000000000000000000000000000000000000000000000000000000000000000000000000000000000000000000000000000000000000000000000000000000000000000000000000000000000000000000000000000000000000000000000000000000000000000000000000000000000000000000000000000000000000000000000000000000000000000000000000000000000000000000000000000000000000000000000000000000000000000000000000000000000000000000000000000000000000000000000000000000000000000000000000830200008083989680808203b642a056e81f171bcc55a6ff8345e692c0f86e5b48e01b996cadc001622fb5e363b421880102030405060708c0c0",
        "lastblockhash" : "0x28880a3ae0ef0f3f2213b5c35d61457d6e988806d6decef5588694bc4eee24ca",
        "network" : "Homestead",
        "postState" : {
            "0x2adc25665018aa1fe0e6bc666dac8fc2697ff9ba" : {
                "balance" : "0x4563918244f40000",
                "code" : "",
                "nonce" : "0x00",
                "storage" : {
                }
            },
            "0xa94f5374fce5edbc8e2a8697c15331677e6ebf0b" : {
                "balance" : "0x020404",
                "code" : "",
                "nonce" : "0x01",
                "storage" : {
                }
            },
            "0xb94f5374fce5edbc8e2a8697c15331677e6ebf0b" : {
                "balance" : "0x0384",
                "code" : "",
                "nonce" : "0x00",
                "storage" : {
                }
            }
        },
        "pre" : {
            "0xa94f5374fce5edbc8e2a8697c15331677e6ebf0b" : {
                "balance" : "0x020788",
                "code" : "",
                "nonce" : "0x00",
                "storage" : {
                }
            }
        }
    }
}