{
    "static_LoopCallsThenRevert_d0g1v0_Byzantium" : {
        "_info" : {
            "comment" : "",
            "filledwith" : "cpp-1.3.0+commit.6e0ce939.Linux.g++",
            "lllcversion" : "Version: 0.4.18-develop.2017.9.25+commit.a72237f2.Linux.g++",
            "source" : "src/BlockchainTestsFiller/GeneralStateTests/stStaticCall/static_LoopCallsThenRevert_d0g1v0Filler.json",
            "sourceHash" : "99a9f6d7db974568350190f659304aa51024a47ac4fc83ffc6814c88dbce0587"
        },
        "blocks" : [
            {
                "blockHeader" : {
                    "bloom" : "0x00000000000000000000000000000000000000000000000000000000000000000000000000000000000000000000000000000000000000000000000000000000000000000000000000000000000000000000000000000000000000000000000000000000000000000000000000000000000000000000000000000000000000000000000000000000000000000000000000000000000000000000000000000000000000000000000000000000000000000000000000000000000000000000000000000000000000000000000000000000000000000000000000000000000000000000000000000000000000000000000000000000000000000000000000000000",
                    "coinbase" : "0x2adc25665018aa1fe0e6bc666dac8fc2697ff9ba",
                    "difficulty" : "0x020000",
                    "extraData" : "",
                    "gasLimit" : "0x989680",
                    "gasUsed" : "0x8791f3",
                    "hash" : "0x7f2a484fdc4d4ea1a70ec5b6b73221d8673bfe9fdc0ade3223e14755a349e249",
                    "mixHash" : "0x4f97a75b044d0f1c85ce2178f1b8eb86184b6c02d60f204f194be31ebb1ed4cd",
                    "nonce" : "0xda26b4f1d5d2fd5f",
                    "number" : "0x01",
                    "parentHash" : "0xe3ddb900224835013cd35fff070ff631b117b62677c5c579b5c305c7c681a801",
                    "receiptTrie" : "0x82b7952b2f182d46559c4474badf0028ac018a0ce2357a2f5f440a244edbdde0",
                    "stateRoot" : "0x31b5bd60da77ace7586fc8a16ffc9cf73595a95cbd801ac9e7ef6db74f9ad405",
                    "timestamp" : "0x03e8",
                    "transactionsTrie" : "0x81493849ad5828f9331f2c8a877f69e3d5bc1e7ede6c0f0457db373b129b96a2",
                    "uncleHash" : "0x1dcc4de8dec75d7aab85b567b6ccd41ad312451b948a7413f0a142fd40d49347"
                },
                "rlp" : "0xf90260f901f8a0e3ddb900224835013cd35fff070ff631b117b62677c5c579b5c305c7c681a801a01dcc4de8dec75d7aab85b567b6ccd41ad312451b948a7413f0a142fd40d49347942adc25665018aa1fe0e6bc666dac8fc2697ff9baa031b5bd60da77ace7586fc8a16ffc9cf73595a95cbd801ac9e7ef6db74f9ad405a081493849ad5828f9331f2c8a877f69e3d5bc1e7ede6c0f0457db373b129b96a2a082b7952b2f182d46559c4474badf0028ac018a0ce2357a2f5f440a244edbdde0b9010000000000000000000000000000000000000000000000000000000000000000000000000000000000000000000000000000000000000000000000000000000000000000000000000000000000000000000000000000000000000000000000000000000000000000000000000000000000000000000000000000000000000000000000000000000000000000000000000000000000000000000000000000000000000000000000000000000000000000000000000000000000000000000000000000000000000000000000000000000000000000000000000000000000000000000000000000000000000000000000000000000000000000000000000000000000830200000183989680838791f38203e880a04f97a75b044d0f1c85ce2178f1b8eb86184b6c02d60f204f194be31ebb1ed4cd88da26b4f1d5d2fd5ff862f86080018389544094100000000000000000000000000000000000000080801ba073c6fc401d96e8f4ac0c03b220ce80e6c24cf80ef823acc5952c24f420eede3ea06711fe14217e98757e67cc81b199a23099497909ca3277a80c119f55625402a3c0",
                "transactions" : [
                    {
                        "data" : "",
                        "gasLimit" : "0x895440",
                        "gasPrice" : "0x01",
                        "nonce" : "0x00",
                        "r" : "0x73c6fc401d96e8f4ac0c03b220ce80e6c24cf80ef823acc5952c24f420eede3e",
                        "s" : "0x6711fe14217e98757e67cc81b199a23099497909ca3277a80c119f55625402a3",
                        "to" : "0x1000000000000000000000000000000000000000",
                        "v" : "0x1b",
                        "value" : "0x00"
                    }
                ],
                "uncleHeaders" : [
                ]
            }
        ],
        "genesisBlockHeader" : {
            "bloom" : "0x00000000000000000000000000000000000000000000000000000000000000000000000000000000000000000000000000000000000000000000000000000000000000000000000000000000000000000000000000000000000000000000000000000000000000000000000000000000000000000000000000000000000000000000000000000000000000000000000000000000000000000000000000000000000000000000000000000000000000000000000000000000000000000000000000000000000000000000000000000000000000000000000000000000000000000000000000000000000000000000000000000000000000000000000000000000",
            "coinbase" : "0x2adc25665018aa1fe0e6bc666dac8fc2697ff9ba",
            "difficulty" : "0x020000",
            "extraData" : "0x42",
            "gasLimit" : "0x989680",
            "gasUsed" : "0x00",
            "hash" : "0xe3ddb900224835013cd35fff070ff631b117b62677c5c579b5c305c7c681a801",
            "mixHash" : "0x56e81f171bcc55a6ff8345e692c0f86e5b48e01b996cadc001622fb5e363b421",
            "nonce" : "0x0102030405060708",
            "number" : "0x00",
            "parentHash" : "0x0000000000000000000000000000000000000000000000000000000000000000",
            "receiptTrie" : "0x56e81f171bcc55a6ff8345e692c0f86e5b48e01b996cadc001622fb5e363b421",
            "stateRoot" : "0x4b45b95a7e8625a0465216c17b7d2b8ec3308235a98533684bb98bc7deaa03ff",
            "timestamp" : "0x03b6",
            "transactionsTrie" : "0x56e81f171bcc55a6ff8345e692c0f86e5b48e01b996cadc001622fb5e363b421",
            "uncleHash" : "0x1dcc4de8dec75d7aab85b567b6ccd41ad312451b948a7413f0a142fd40d49347"
        },
        "genesisRLP" : "0xf901faf901f5a00000000000000000000000000000000000000000000000000000000000000000a01dcc4de8dec75d7aab85b567b6ccd41ad312451b948a7413f0a142fd40d49347942adc25665018aa1fe0e6bc666dac8fc2697ff9baa04b45b95a7e8625a0465216c17b7d2b8ec3308235a98533684bb98bc7deaa03ffa056e81f171bcc55a6ff8345e692c0f86e5b48e01b996cadc001622fb5e363b421a056e81f171bcc55a6ff8345e692c0f86e5b48e01b996cadc001622fb5e363b421b9010000000000000000000000000000000000000000000000000000000000000000000000000000000000000000000000000000000000000000000000000000000000000000000000000000000000000000000000000000000000000000000000000000000000000000000000000000000000000000000000000000000000000000000000000000000000000000000000000000000000000000000000000000000000000000000000000000000000000000000000000000000000000000000000000000000000000000000000000000000000000000000000000000000000000000000000000000000000000000000000000000000000000000000000000000000000830200008083989680808203b642a056e81f171bcc55a6ff8345e692c0f86e5b48e01b996cadc001622fb5e363b421880102030405060708c0c0",
        "lastblockhash" : "0x7f2a484fdc4d4ea1a70ec5b6b73221d8673bfe9fdc0ade3223e14755a349e249",
        "network" : "Byzantium",
        "postState" : {
            "0x1000000000000000000000000000000000000000" : {
                "balance" : "0x00",
                "code" : "0x6103526000526000600060206000600073a0000000000000000000000000000000000000006127105a03f16000555a600155",
                "nonce" : "0x00",
                "storage" : {
                    "0x01" : "0x021070"
                }
            },
            "0x2adc25665018aa1fe0e6bc666dac8fc2697ff9ba" : {
                "balance" : "0x29a2241af6b391f3",
                "code" : "",
                "nonce" : "0x00",
                "storage" : {
                }
            },
            "0xa000000000000000000000000000000000000000" : {
                "balance" : "0x00",
                "code" : "0x5b600160003503600052600060006000600073b00000000000000000000000000000000000000061c350fa50600051600057",
                "nonce" : "0x00",
                "storage" : {
                    "0x00" : "0x0352"
                }
            },
            "0xa94f5374fce5edbc8e2a8697c15331677e6ebf0b" : {
                "balance" : "0xe8d41d7e0d",
                "code" : "",
                "nonce" : "0x01",
                "storage" : {
                }
            },
            "0xb000000000000000000000000000000000000000" : {
                "balance" : "0x00",
                "code" : "0x600051600101600052",
                "nonce" : "0x00",
                "storage" : {
                }
            }
        },
        "pre" : {
            "0x1000000000000000000000000000000000000000" : {
                "balance" : "0x00",
                "code" : "0x6103526000526000600060206000600073a0000000000000000000000000000000000000006127105a03f16000555a600155",
                "nonce" : "0x00",
                "storage" : {
                }
            },
            "0xa000000000000000000000000000000000000000" : {
                "balance" : "0x00",
                "code" : "0x5b600160003503600052600060006000600073b00000000000000000000000000000000000000061c350fa50600051600057",
                "nonce" : "0x00",
                "storage" : {
                    "0x00" : "0x0352"
                }
            },
            "0xa94f5374fce5edbc8e2a8697c15331677e6ebf0b" : {
                "balance" : "0xe8d4a51000",
                "code" : "",
                "nonce" : "0x00",
                "storage" : {
                }
            },
            "0xb000000000000000000000000000000000000000" : {
                "balance" : "0x00",
                "code" : "0x600051600101600052",
                "nonce" : "0x00",
                "storage" : {
                }
            }
        }
    },
    "static_LoopCallsThenRevert_d0g1v0_EIP150" : {
        "_info" : {
            "comment" : "",
            "filledwith" : "cpp-1.3.0+commit.6e0ce939.Linux.g++",
            "lllcversion" : "Version: 0.4.18-develop.2017.9.25+commit.a72237f2.Linux.g++",
            "source" : "src/BlockchainTestsFiller/GeneralStateTests/stStaticCall/static_LoopCallsThenRevert_d0g1v0Filler.json",
            "sourceHash" : "99a9f6d7db974568350190f659304aa51024a47ac4fc83ffc6814c88dbce0587"
        },
        "blocks" : [
            {
                "blockHeader" : {
                    "bloom" : "0x00000000000000000000000000000000000000000000000000000000000000000000000000000000000000000000000000000000000000000000000000000000000000000000000000000000000000000000000000000000000000000000000000000000000000000000000000000000000000000000000000000000000000000000000000000000000000000000000000000000000000000000000000000000000000000000000000000000000000000000000000000000000000000000000000000000000000000000000000000000000000000000000000000000000000000000000000000000000000000000000000000000000000000000000000000000",
                    "coinbase" : "0x2adc25665018aa1fe0e6bc666dac8fc2697ff9ba",
                    "difficulty" : "0x020000",
                    "extraData" : "",
                    "gasLimit" : "0x989680",
                    "gasUsed" : "0x8791f3",
                    "hash" : "0x3b70b0751a7b2d622e9a1c49f88dcc2db536ebf6f5a4fafce3bb9647d4b99ae5",
                    "mixHash" : "0x7afbc9ee910aeab216dadea71b38720268c7af9b9678c036a4b95b54ee69d8c6",
                    "nonce" : "0xa830d4618959fc94",
                    "number" : "0x01",
                    "parentHash" : "0xe3ddb900224835013cd35fff070ff631b117b62677c5c579b5c305c7c681a801",
                    "receiptTrie" : "0x5ec9b5ebf347fd62ec8750aa3132c4141d8d734bb042551b5f20beadeadad189",
                    "stateRoot" : "0xfdf3157ec51390d3a6f4c30553dbae4a5d3f56079e5194718f89d275848e3ebe",
                    "timestamp" : "0x03e8",
                    "transactionsTrie" : "0x81493849ad5828f9331f2c8a877f69e3d5bc1e7ede6c0f0457db373b129b96a2",
                    "uncleHash" : "0x1dcc4de8dec75d7aab85b567b6ccd41ad312451b948a7413f0a142fd40d49347"
                },
                "rlp" : "0xf90260f901f8a0e3ddb900224835013cd35fff070ff631b117b62677c5c579b5c305c7c681a801a01dcc4de8dec75d7aab85b567b6ccd41ad312451b948a7413f0a142fd40d49347942adc25665018aa1fe0e6bc666dac8fc2697ff9baa0fdf3157ec51390d3a6f4c30553dbae4a5d3f56079e5194718f89d275848e3ebea081493849ad5828f9331f2c8a877f69e3d5bc1e7ede6c0f0457db373b129b96a2a05ec9b5ebf347fd62ec8750aa3132c4141d8d734bb042551b5f20beadeadad189b9010000000000000000000000000000000000000000000000000000000000000000000000000000000000000000000000000000000000000000000000000000000000000000000000000000000000000000000000000000000000000000000000000000000000000000000000000000000000000000000000000000000000000000000000000000000000000000000000000000000000000000000000000000000000000000000000000000000000000000000000000000000000000000000000000000000000000000000000000000000000000000000000000000000000000000000000000000000000000000000000000000000000000000000000000000000000830200000183989680838791f38203e880a07afbc9ee910aeab216dadea71b38720268c7af9b9678c036a4b95b54ee69d8c688a830d4618959fc94f862f86080018389544094100000000000000000000000000000000000000080801ba073c6fc401d96e8f4ac0c03b220ce80e6c24cf80ef823acc5952c24f420eede3ea06711fe14217e98757e67cc81b199a23099497909ca3277a80c119f55625402a3c0",
                "transactions" : [
                    {
                        "data" : "",
                        "gasLimit" : "0x895440",
                        "gasPrice" : "0x01",
                        "nonce" : "0x00",
                        "r" : "0x73c6fc401d96e8f4ac0c03b220ce80e6c24cf80ef823acc5952c24f420eede3e",
                        "s" : "0x6711fe14217e98757e67cc81b199a23099497909ca3277a80c119f55625402a3",
                        "to" : "0x1000000000000000000000000000000000000000",
                        "v" : "0x1b",
                        "value" : "0x00"
                    }
                ],
                "uncleHeaders" : [
                ]
            }
        ],
        "genesisBlockHeader" : {
            "bloom" : "0x00000000000000000000000000000000000000000000000000000000000000000000000000000000000000000000000000000000000000000000000000000000000000000000000000000000000000000000000000000000000000000000000000000000000000000000000000000000000000000000000000000000000000000000000000000000000000000000000000000000000000000000000000000000000000000000000000000000000000000000000000000000000000000000000000000000000000000000000000000000000000000000000000000000000000000000000000000000000000000000000000000000000000000000000000000000",
            "coinbase" : "0x2adc25665018aa1fe0e6bc666dac8fc2697ff9ba",
            "difficulty" : "0x020000",
            "extraData" : "0x42",
            "gasLimit" : "0x989680",
            "gasUsed" : "0x00",
            "hash" : "0xe3ddb900224835013cd35fff070ff631b117b62677c5c579b5c305c7c681a801",
            "mixHash" : "0x56e81f171bcc55a6ff8345e692c0f86e5b48e01b996cadc001622fb5e363b421",
            "nonce" : "0x0102030405060708",
            "number" : "0x00",
            "parentHash" : "0x0000000000000000000000000000000000000000000000000000000000000000",
            "receiptTrie" : "0x56e81f171bcc55a6ff8345e692c0f86e5b48e01b996cadc001622fb5e363b421",
            "stateRoot" : "0x4b45b95a7e8625a0465216c17b7d2b8ec3308235a98533684bb98bc7deaa03ff",
            "timestamp" : "0x03b6",
            "transactionsTrie" : "0x56e81f171bcc55a6ff8345e692c0f86e5b48e01b996cadc001622fb5e363b421",
            "uncleHash" : "0x1dcc4de8dec75d7aab85b567b6ccd41ad312451b948a7413f0a142fd40d49347"
        },
        "genesisRLP" : "0xf901faf901f5a00000000000000000000000000000000000000000000000000000000000000000a01dcc4de8dec75d7aab85b567b6ccd41ad312451b948a7413f0a142fd40d49347942adc25665018aa1fe0e6bc666dac8fc2697ff9baa04b45b95a7e8625a0465216c17b7d2b8ec3308235a98533684bb98bc7deaa03ffa056e81f171bcc55a6ff8345e692c0f86e5b48e01b996cadc001622fb5e363b421a056e81f171bcc55a6ff8345e692c0f86e5b48e01b996cadc001622fb5e363b421b9010000000000000000000000000000000000000000000000000000000000000000000000000000000000000000000000000000000000000000000000000000000000000000000000000000000000000000000000000000000000000000000000000000000000000000000000000000000000000000000000000000000000000000000000000000000000000000000000000000000000000000000000000000000000000000000000000000000000000000000000000000000000000000000000000000000000000000000000000000000000000000000000000000000000000000000000000000000000000000000000000000000000000000000000000000000000830200008083989680808203b642a056e81f171bcc55a6ff8345e692c0f86e5b48e01b996cadc001622fb5e363b421880102030405060708c0c0",
        "lastblockhash" : "0x3b70b0751a7b2d622e9a1c49f88dcc2db536ebf6f5a4fafce3bb9647d4b99ae5",
        "network" : "EIP150",
        "postState" : {
            "0x1000000000000000000000000000000000000000" : {
                "balance" : "0x00",
                "code" : "0x6103526000526000600060206000600073a0000000000000000000000000000000000000006127105a03f16000555a600155",
                "nonce" : "0x00",
                "storage" : {
                    "0x01" : "0x021070"
                }
            },
            "0x2adc25665018aa1fe0e6bc666dac8fc2697ff9ba" : {
                "balance" : "0x45639182457b91f3",
                "code" : "",
                "nonce" : "0x00",
                "storage" : {
                }
            },
            "0xa000000000000000000000000000000000000000" : {
                "balance" : "0x00",
                "code" : "0x5b600160003503600052600060006000600073b00000000000000000000000000000000000000061c350fa50600051600057",
                "nonce" : "0x00",
                "storage" : {
                    "0x00" : "0x0352"
                }
            },
            "0xa94f5374fce5edbc8e2a8697c15331677e6ebf0b" : {
                "balance" : "0xe8d41d7e0d",
                "code" : "",
                "nonce" : "0x01",
                "storage" : {
                }
            },
            "0xb000000000000000000000000000000000000000" : {
                "balance" : "0x00",
                "code" : "0x600051600101600052",
                "nonce" : "0x00",
                "storage" : {
                }
            }
        },
        "pre" : {
            "0x1000000000000000000000000000000000000000" : {
                "balance" : "0x00",
                "code" : "0x6103526000526000600060206000600073a0000000000000000000000000000000000000006127105a03f16000555a600155",
                "nonce" : "0x00",
                "storage" : {
                }
            },
            "0xa000000000000000000000000000000000000000" : {
                "balance" : "0x00",
                "code" : "0x5b600160003503600052600060006000600073b00000000000000000000000000000000000000061c350fa50600051600057",
                "nonce" : "0x00",
                "storage" : {
                    "0x00" : "0x0352"
                }
            },
            "0xa94f5374fce5edbc8e2a8697c15331677e6ebf0b" : {
                "balance" : "0xe8d4a51000",
                "code" : "",
                "nonce" : "0x00",
                "storage" : {
                }
            },
            "0xb000000000000000000000000000000000000000" : {
                "balance" : "0x00",
                "code" : "0x600051600101600052",
                "nonce" : "0x00",
                "storage" : {
                }
            }
        }
    },
    "static_LoopCallsThenRevert_d0g1v0_EIP158" : {
        "_info" : {
            "comment" : "",
            "filledwith" : "cpp-1.3.0+commit.6e0ce939.Linux.g++",
            "lllcversion" : "Version: 0.4.18-develop.2017.9.25+commit.a72237f2.Linux.g++",
            "source" : "src/BlockchainTestsFiller/GeneralStateTests/stStaticCall/static_LoopCallsThenRevert_d0g1v0Filler.json",
            "sourceHash" : "99a9f6d7db974568350190f659304aa51024a47ac4fc83ffc6814c88dbce0587"
        },
        "blocks" : [
            {
                "blockHeader" : {
                    "bloom" : "0x00000000000000000000000000000000000000000000000000000000000000000000000000000000000000000000000000000000000000000000000000000000000000000000000000000000000000000000000000000000000000000000000000000000000000000000000000000000000000000000000000000000000000000000000000000000000000000000000000000000000000000000000000000000000000000000000000000000000000000000000000000000000000000000000000000000000000000000000000000000000000000000000000000000000000000000000000000000000000000000000000000000000000000000000000000000",
                    "coinbase" : "0x2adc25665018aa1fe0e6bc666dac8fc2697ff9ba",
                    "difficulty" : "0x020000",
                    "extraData" : "",
                    "gasLimit" : "0x989680",
                    "gasUsed" : "0x8791f3",
                    "hash" : "0x6242cc0af157d1ff6d96ec4eb073120211562682ad4edaf7ce1d58e345b305c5",
                    "mixHash" : "0xa62c5237e901338d21cc7189ef2ca1791188f98940c3d4a08d0a59ebc1abeb6d",
                    "nonce" : "0x5772dd4192d2c4b4",
                    "number" : "0x01",
                    "parentHash" : "0xe3ddb900224835013cd35fff070ff631b117b62677c5c579b5c305c7c681a801",
                    "receiptTrie" : "0x5ec9b5ebf347fd62ec8750aa3132c4141d8d734bb042551b5f20beadeadad189",
                    "stateRoot" : "0xfdf3157ec51390d3a6f4c30553dbae4a5d3f56079e5194718f89d275848e3ebe",
                    "timestamp" : "0x03e8",
                    "transactionsTrie" : "0x81493849ad5828f9331f2c8a877f69e3d5bc1e7ede6c0f0457db373b129b96a2",
                    "uncleHash" : "0x1dcc4de8dec75d7aab85b567b6ccd41ad312451b948a7413f0a142fd40d49347"
                },
                "rlp" : "0xf90260f901f8a0e3ddb900224835013cd35fff070ff631b117b62677c5c579b5c305c7c681a801a01dcc4de8dec75d7aab85b567b6ccd41ad312451b948a7413f0a142fd40d49347942adc25665018aa1fe0e6bc666dac8fc2697ff9baa0fdf3157ec51390d3a6f4c30553dbae4a5d3f56079e5194718f89d275848e3ebea081493849ad5828f9331f2c8a877f69e3d5bc1e7ede6c0f0457db373b129b96a2a05ec9b5ebf347fd62ec8750aa3132c4141d8d734bb042551b5f20beadeadad189b9010000000000000000000000000000000000000000000000000000000000000000000000000000000000000000000000000000000000000000000000000000000000000000000000000000000000000000000000000000000000000000000000000000000000000000000000000000000000000000000000000000000000000000000000000000000000000000000000000000000000000000000000000000000000000000000000000000000000000000000000000000000000000000000000000000000000000000000000000000000000000000000000000000000000000000000000000000000000000000000000000000000000000000000000000000000000830200000183989680838791f38203e880a0a62c5237e901338d21cc7189ef2ca1791188f98940c3d4a08d0a59ebc1abeb6d885772dd4192d2c4b4f862f86080018389544094100000000000000000000000000000000000000080801ba073c6fc401d96e8f4ac0c03b220ce80e6c24cf80ef823acc5952c24f420eede3ea06711fe14217e98757e67cc81b199a23099497909ca3277a80c119f55625402a3c0",
                "transactions" : [
                    {
                        "data" : "",
                        "gasLimit" : "0x895440",
                        "gasPrice" : "0x01",
                        "nonce" : "0x00",
                        "r" : "0x73c6fc401d96e8f4ac0c03b220ce80e6c24cf80ef823acc5952c24f420eede3e",
                        "s" : "0x6711fe14217e98757e67cc81b199a23099497909ca3277a80c119f55625402a3",
                        "to" : "0x1000000000000000000000000000000000000000",
                        "v" : "0x1b",
                        "value" : "0x00"
                    }
                ],
                "uncleHeaders" : [
                ]
            }
        ],
        "genesisBlockHeader" : {
            "bloom" : "0x00000000000000000000000000000000000000000000000000000000000000000000000000000000000000000000000000000000000000000000000000000000000000000000000000000000000000000000000000000000000000000000000000000000000000000000000000000000000000000000000000000000000000000000000000000000000000000000000000000000000000000000000000000000000000000000000000000000000000000000000000000000000000000000000000000000000000000000000000000000000000000000000000000000000000000000000000000000000000000000000000000000000000000000000000000000",
            "coinbase" : "0x2adc25665018aa1fe0e6bc666dac8fc2697ff9ba",
            "difficulty" : "0x020000",
            "extraData" : "0x42",
            "gasLimit" : "0x989680",
            "gasUsed" : "0x00",
            "hash" : "0xe3ddb900224835013cd35fff070ff631b117b62677c5c579b5c305c7c681a801",
            "mixHash" : "0x56e81f171bcc55a6ff8345e692c0f86e5b48e01b996cadc001622fb5e363b421",
            "nonce" : "0x0102030405060708",
            "number" : "0x00",
            "parentHash" : "0x0000000000000000000000000000000000000000000000000000000000000000",
            "receiptTrie" : "0x56e81f171bcc55a6ff8345e692c0f86e5b48e01b996cadc001622fb5e363b421",
            "stateRoot" : "0x4b45b95a7e8625a0465216c17b7d2b8ec3308235a98533684bb98bc7deaa03ff",
            "timestamp" : "0x03b6",
            "transactionsTrie" : "0x56e81f171bcc55a6ff8345e692c0f86e5b48e01b996cadc001622fb5e363b421",
            "uncleHash" : "0x1dcc4de8dec75d7aab85b567b6ccd41ad312451b948a7413f0a142fd40d49347"
        },
        "genesisRLP" : "0xf901faf901f5a00000000000000000000000000000000000000000000000000000000000000000a01dcc4de8dec75d7aab85b567b6ccd41ad312451b948a7413f0a142fd40d49347942adc25665018aa1fe0e6bc666dac8fc2697ff9baa04b45b95a7e8625a0465216c17b7d2b8ec3308235a98533684bb98bc7deaa03ffa056e81f171bcc55a6ff8345e692c0f86e5b48e01b996cadc001622fb5e363b421a056e81f171bcc55a6ff8345e692c0f86e5b48e01b996cadc001622fb5e363b421b9010000000000000000000000000000000000000000000000000000000000000000000000000000000000000000000000000000000000000000000000000000000000000000000000000000000000000000000000000000000000000000000000000000000000000000000000000000000000000000000000000000000000000000000000000000000000000000000000000000000000000000000000000000000000000000000000000000000000000000000000000000000000000000000000000000000000000000000000000000000000000000000000000000000000000000000000000000000000000000000000000000000000000000000000000000000000830200008083989680808203b642a056e81f171bcc55a6ff8345e692c0f86e5b48e01b996cadc001622fb5e363b421880102030405060708c0c0",
        "lastblockhash" : "0x6242cc0af157d1ff6d96ec4eb073120211562682ad4edaf7ce1d58e345b305c5",
        "network" : "EIP158",
        "postState" : {
            "0x1000000000000000000000000000000000000000" : {
                "balance" : "0x00",
                "code" : "0x6103526000526000600060206000600073a0000000000000000000000000000000000000006127105a03f16000555a600155",
                "nonce" : "0x00",
                "storage" : {
                    "0x01" : "0x021070"
                }
            },
            "0x2adc25665018aa1fe0e6bc666dac8fc2697ff9ba" : {
                "balance" : "0x45639182457b91f3",
                "code" : "",
                "nonce" : "0x00",
                "storage" : {
                }
            },
            "0xa000000000000000000000000000000000000000" : {
                "balance" : "0x00",
                "code" : "0x5b600160003503600052600060006000600073b00000000000000000000000000000000000000061c350fa50600051600057",
                "nonce" : "0x00",
                "storage" : {
                    "0x00" : "0x0352"
                }
            },
            "0xa94f5374fce5edbc8e2a8697c15331677e6ebf0b" : {
                "balance" : "0xe8d41d7e0d",
                "code" : "",
                "nonce" : "0x01",
                "storage" : {
                }
            },
            "0xb000000000000000000000000000000000000000" : {
                "balance" : "0x00",
                "code" : "0x600051600101600052",
                "nonce" : "0x00",
                "storage" : {
                }
            }
        },
        "pre" : {
            "0x1000000000000000000000000000000000000000" : {
                "balance" : "0x00",
                "code" : "0x6103526000526000600060206000600073a0000000000000000000000000000000000000006127105a03f16000555a600155",
                "nonce" : "0x00",
                "storage" : {
                }
            },
            "0xa000000000000000000000000000000000000000" : {
                "balance" : "0x00",
                "code" : "0x5b600160003503600052600060006000600073b00000000000000000000000000000000000000061c350fa50600051600057",
                "nonce" : "0x00",
                "storage" : {
                    "0x00" : "0x0352"
                }
            },
            "0xa94f5374fce5edbc8e2a8697c15331677e6ebf0b" : {
                "balance" : "0xe8d4a51000",
                "code" : "",
                "nonce" : "0x00",
                "storage" : {
                }
            },
            "0xb000000000000000000000000000000000000000" : {
                "balance" : "0x00",
                "code" : "0x600051600101600052",
                "nonce" : "0x00",
                "storage" : {
                }
            }
        }
    },
    "static_LoopCallsThenRevert_d0g1v0_Frontier" : {
        "_info" : {
            "comment" : "",
            "filledwith" : "cpp-1.3.0+commit.6e0ce939.Linux.g++",
            "lllcversion" : "Version: 0.4.18-develop.2017.9.25+commit.a72237f2.Linux.g++",
            "source" : "src/BlockchainTestsFiller/GeneralStateTests/stStaticCall/static_LoopCallsThenRevert_d0g1v0Filler.json",
            "sourceHash" : "99a9f6d7db974568350190f659304aa51024a47ac4fc83ffc6814c88dbce0587"
        },
        "blocks" : [
            {
                "blockHeader" : {
                    "bloom" : "0x00000000000000000000000000000000000000000000000000000000000000000000000000000000000000000000000000000000000000000000000000000000000000000000000000000000000000000000000000000000000000000000000000000000000000000000000000000000000000000000000000000000000000000000000000000000000000000000000000000000000000000000000000000000000000000000000000000000000000000000000000000000000000000000000000000000000000000000000000000000000000000000000000000000000000000000000000000000000000000000000000000000000000000000000000000000",
                    "coinbase" : "0x2adc25665018aa1fe0e6bc666dac8fc2697ff9ba",
                    "difficulty" : "0x020000",
                    "extraData" : "",
                    "gasLimit" : "0x989680",
                    "gasUsed" : "0x895440",
                    "hash" : "0xe24e1912afd2dd92542455faaa9034e745b54efb7bd1021d22d465316572a2f2",
                    "mixHash" : "0x00992f63d28c093fdf92c56a0ec3f17ed2a211617e0abcdb1601adc7fef017b1",
                    "nonce" : "0x103b38bb2f5a0070",
                    "number" : "0x01",
                    "parentHash" : "0xe3ddb900224835013cd35fff070ff631b117b62677c5c579b5c305c7c681a801",
                    "receiptTrie" : "0x0303cf68ec9b49d0cc72db000d8a0e78324879a593e64bb23d2131fe36ed626b",
                    "stateRoot" : "0xb61fe3782401f43b63be270015742ddfa171ff77daf01cf6ba1583cb8f12b508",
                    "timestamp" : "0x03e8",
                    "transactionsTrie" : "0x81493849ad5828f9331f2c8a877f69e3d5bc1e7ede6c0f0457db373b129b96a2",
                    "uncleHash" : "0x1dcc4de8dec75d7aab85b567b6ccd41ad312451b948a7413f0a142fd40d49347"
                },
                "rlp" : "0xf90260f901f8a0e3ddb900224835013cd35fff070ff631b117b62677c5c579b5c305c7c681a801a01dcc4de8dec75d7aab85b567b6ccd41ad312451b948a7413f0a142fd40d49347942adc25665018aa1fe0e6bc666dac8fc2697ff9baa0b61fe3782401f43b63be270015742ddfa171ff77daf01cf6ba1583cb8f12b508a081493849ad5828f9331f2c8a877f69e3d5bc1e7ede6c0f0457db373b129b96a2a00303cf68ec9b49d0cc72db000d8a0e78324879a593e64bb23d2131fe36ed626bb9010000000000000000000000000000000000000000000000000000000000000000000000000000000000000000000000000000000000000000000000000000000000000000000000000000000000000000000000000000000000000000000000000000000000000000000000000000000000000000000000000000000000000000000000000000000000000000000000000000000000000000000000000000000000000000000000000000000000000000000000000000000000000000000000000000000000000000000000000000000000000000000000000000000000000000000000000000000000000000000000000000000000000000000000000000000000830200000183989680838954408203e880a000992f63d28c093fdf92c56a0ec3f17ed2a211617e0abcdb1601adc7fef017b188103b38bb2f5a0070f862f86080018389544094100000000000000000000000000000000000000080801ba073c6fc401d96e8f4ac0c03b220ce80e6c24cf80ef823acc5952c24f420eede3ea06711fe14217e98757e67cc81b199a23099497909ca3277a80c119f55625402a3c0",
                "transactions" : [
                    {
                        "data" : "",
                        "gasLimit" : "0x895440",
                        "gasPrice" : "0x01",
                        "nonce" : "0x00",
                        "r" : "0x73c6fc401d96e8f4ac0c03b220ce80e6c24cf80ef823acc5952c24f420eede3e",
                        "s" : "0x6711fe14217e98757e67cc81b199a23099497909ca3277a80c119f55625402a3",
                        "to" : "0x1000000000000000000000000000000000000000",
                        "v" : "0x1b",
                        "value" : "0x00"
                    }
                ],
                "uncleHeaders" : [
                ]
            }
        ],
        "genesisBlockHeader" : {
            "bloom" : "0x00000000000000000000000000000000000000000000000000000000000000000000000000000000000000000000000000000000000000000000000000000000000000000000000000000000000000000000000000000000000000000000000000000000000000000000000000000000000000000000000000000000000000000000000000000000000000000000000000000000000000000000000000000000000000000000000000000000000000000000000000000000000000000000000000000000000000000000000000000000000000000000000000000000000000000000000000000000000000000000000000000000000000000000000000000000",
            "coinbase" : "0x2adc25665018aa1fe0e6bc666dac8fc2697ff9ba",
            "difficulty" : "0x020000",
            "extraData" : "0x42",
            "gasLimit" : "0x989680",
            "gasUsed" : "0x00",
            "hash" : "0xe3ddb900224835013cd35fff070ff631b117b62677c5c579b5c305c7c681a801",
            "mixHash" : "0x56e81f171bcc55a6ff8345e692c0f86e5b48e01b996cadc001622fb5e363b421",
            "nonce" : "0x0102030405060708",
            "number" : "0x00",
            "parentHash" : "0x0000000000000000000000000000000000000000000000000000000000000000",
            "receiptTrie" : "0x56e81f171bcc55a6ff8345e692c0f86e5b48e01b996cadc001622fb5e363b421",
            "stateRoot" : "0x4b45b95a7e8625a0465216c17b7d2b8ec3308235a98533684bb98bc7deaa03ff",
            "timestamp" : "0x03b6",
            "transactionsTrie" : "0x56e81f171bcc55a6ff8345e692c0f86e5b48e01b996cadc001622fb5e363b421",
            "uncleHash" : "0x1dcc4de8dec75d7aab85b567b6ccd41ad312451b948a7413f0a142fd40d49347"
        },
        "genesisRLP" : "0xf901faf901f5a00000000000000000000000000000000000000000000000000000000000000000a01dcc4de8dec75d7aab85b567b6ccd41ad312451b948a7413f0a142fd40d49347942adc25665018aa1fe0e6bc666dac8fc2697ff9baa04b45b95a7e8625a0465216c17b7d2b8ec3308235a98533684bb98bc7deaa03ffa056e81f171bcc55a6ff8345e692c0f86e5b48e01b996cadc001622fb5e363b421a056e81f171bcc55a6ff8345e692c0f86e5b48e01b996cadc001622fb5e363b421b9010000000000000000000000000000000000000000000000000000000000000000000000000000000000000000000000000000000000000000000000000000000000000000000000000000000000000000000000000000000000000000000000000000000000000000000000000000000000000000000000000000000000000000000000000000000000000000000000000000000000000000000000000000000000000000000000000000000000000000000000000000000000000000000000000000000000000000000000000000000000000000000000000000000000000000000000000000000000000000000000000000000000000000000000000000000000830200008083989680808203b642a056e81f171bcc55a6ff8345e692c0f86e5b48e01b996cadc001622fb5e363b421880102030405060708c0c0",
        "lastblockhash" : "0xe24e1912afd2dd92542455faaa9034e745b54efb7bd1021d22d465316572a2f2",
        "network" : "Frontier",
        "postState" : {
            "0x1000000000000000000000000000000000000000" : {
                "balance" : "0x00",
                "code" : "0x6103526000526000600060206000600073a0000000000000000000000000000000000000006127105a03f16000555a600155",
                "nonce" : "0x00",
                "storage" : {
                }
            },
            "0x2adc25665018aa1fe0e6bc666dac8fc2697ff9ba" : {
                "balance" : "0x45639182457d5440",
                "code" : "",
                "nonce" : "0x00",
                "storage" : {
                }
            },
            "0xa000000000000000000000000000000000000000" : {
                "balance" : "0x00",
                "code" : "0x5b600160003503600052600060006000600073b00000000000000000000000000000000000000061c350fa50600051600057",
                "nonce" : "0x00",
                "storage" : {
                    "0x00" : "0x0352"
                }
            },
            "0xa94f5374fce5edbc8e2a8697c15331677e6ebf0b" : {
                "balance" : "0xe8d41bbbc0",
                "code" : "",
                "nonce" : "0x01",
                "storage" : {
                }
            },
            "0xb000000000000000000000000000000000000000" : {
                "balance" : "0x00",
                "code" : "0x600051600101600052",
                "nonce" : "0x00",
                "storage" : {
                }
            }
        },
        "pre" : {
            "0x1000000000000000000000000000000000000000" : {
                "balance" : "0x00",
                "code" : "0x6103526000526000600060206000600073a0000000000000000000000000000000000000006127105a03f16000555a600155",
                "nonce" : "0x00",
                "storage" : {
                }
            },
            "0xa000000000000000000000000000000000000000" : {
                "balance" : "0x00",
                "code" : "0x5b600160003503600052600060006000600073b00000000000000000000000000000000000000061c350fa50600051600057",
                "nonce" : "0x00",
                "storage" : {
                    "0x00" : "0x0352"
                }
            },
            "0xa94f5374fce5edbc8e2a8697c15331677e6ebf0b" : {
                "balance" : "0xe8d4a51000",
                "code" : "",
                "nonce" : "0x00",
                "storage" : {
                }
            },
            "0xb000000000000000000000000000000000000000" : {
                "balance" : "0x00",
                "code" : "0x600051600101600052",
                "nonce" : "0x00",
                "storage" : {
                }
            }
        }
    },
    "static_LoopCallsThenRevert_d0g1v0_Homestead" : {
        "_info" : {
            "comment" : "",
            "filledwith" : "cpp-1.3.0+commit.6e0ce939.Linux.g++",
            "lllcversion" : "Version: 0.4.18-develop.2017.9.25+commit.a72237f2.Linux.g++",
            "source" : "src/BlockchainTestsFiller/GeneralStateTests/stStaticCall/static_LoopCallsThenRevert_d0g1v0Filler.json",
            "sourceHash" : "99a9f6d7db974568350190f659304aa51024a47ac4fc83ffc6814c88dbce0587"
        },
        "blocks" : [
            {
                "blockHeader" : {
                    "bloom" : "0x00000000000000000000000000000000000000000000000000000000000000000000000000000000000000000000000000000000000000000000000000000000000000000000000000000000000000000000000000000000000000000000000000000000000000000000000000000000000000000000000000000000000000000000000000000000000000000000000000000000000000000000000000000000000000000000000000000000000000000000000000000000000000000000000000000000000000000000000000000000000000000000000000000000000000000000000000000000000000000000000000000000000000000000000000000000",
                    "coinbase" : "0x2adc25665018aa1fe0e6bc666dac8fc2697ff9ba",
                    "difficulty" : "0x020000",
                    "extraData" : "",
                    "gasLimit" : "0x989680",
                    "gasUsed" : "0x895440",
                    "hash" : "0x267c40de37f13ecca9178eccb5cabb81087b0a8a0633bccbc195ab6add82f864",
                    "mixHash" : "0x103634e492afa8e375d314776e73862cfbe9bdb898ed3dd831acf8b2eafb056d",
                    "nonce" : "0x9aa08e0ec98f51f0",
                    "number" : "0x01",
                    "parentHash" : "0xe3ddb900224835013cd35fff070ff631b117b62677c5c579b5c305c7c681a801",
                    "receiptTrie" : "0x0303cf68ec9b49d0cc72db000d8a0e78324879a593e64bb23d2131fe36ed626b",
                    "stateRoot" : "0xb61fe3782401f43b63be270015742ddfa171ff77daf01cf6ba1583cb8f12b508",
                    "timestamp" : "0x03e8",
                    "transactionsTrie" : "0x81493849ad5828f9331f2c8a877f69e3d5bc1e7ede6c0f0457db373b129b96a2",
                    "uncleHash" : "0x1dcc4de8dec75d7aab85b567b6ccd41ad312451b948a7413f0a142fd40d49347"
                },
                "rlp" : "0xf90260f901f8a0e3ddb900224835013cd35fff070ff631b117b62677c5c579b5c305c7c681a801a01dcc4de8dec75d7aab85b567b6ccd41ad312451b948a7413f0a142fd40d49347942adc25665018aa1fe0e6bc666dac8fc2697ff9baa0b61fe3782401f43b63be270015742ddfa171ff77daf01cf6ba1583cb8f12b508a081493849ad5828f9331f2c8a877f69e3d5bc1e7ede6c0f0457db373b129b96a2a00303cf68ec9b49d0cc72db000d8a0e78324879a593e64bb23d2131fe36ed626bb9010000000000000000000000000000000000000000000000000000000000000000000000000000000000000000000000000000000000000000000000000000000000000000000000000000000000000000000000000000000000000000000000000000000000000000000000000000000000000000000000000000000000000000000000000000000000000000000000000000000000000000000000000000000000000000000000000000000000000000000000000000000000000000000000000000000000000000000000000000000000000000000000000000000000000000000000000000000000000000000000000000000000000000000000000000000000830200000183989680838954408203e880a0103634e492afa8e375d314776e73862cfbe9bdb898ed3dd831acf8b2eafb056d889aa08e0ec98f51f0f862f86080018389544094100000000000000000000000000000000000000080801ba073c6fc401d96e8f4ac0c03b220ce80e6c24cf80ef823acc5952c24f420eede3ea06711fe14217e98757e67cc81b199a23099497909ca3277a80c119f55625402a3c0",
                "transactions" : [
                    {
                        "data" : "",
                        "gasLimit" : "0x895440",
                        "gasPrice" : "0x01",
                        "nonce" : "0x00",
                        "r" : "0x73c6fc401d96e8f4ac0c03b220ce80e6c24cf80ef823acc5952c24f420eede3e",
                        "s" : "0x6711fe14217e98757e67cc81b199a23099497909ca3277a80c119f55625402a3",
                        "to" : "0x1000000000000000000000000000000000000000",
                        "v" : "0x1b",
                        "value" : "0x00"
                    }
                ],
                "uncleHeaders" : [
                ]
            }
        ],
        "genesisBlockHeader" : {
            "bloom" : "0x00000000000000000000000000000000000000000000000000000000000000000000000000000000000000000000000000000000000000000000000000000000000000000000000000000000000000000000000000000000000000000000000000000000000000000000000000000000000000000000000000000000000000000000000000000000000000000000000000000000000000000000000000000000000000000000000000000000000000000000000000000000000000000000000000000000000000000000000000000000000000000000000000000000000000000000000000000000000000000000000000000000000000000000000000000000",
            "coinbase" : "0x2adc25665018aa1fe0e6bc666dac8fc2697ff9ba",
            "difficulty" : "0x020000",
            "extraData" : "0x42",
            "gasLimit" : "0x989680",
            "gasUsed" : "0x00",
            "hash" : "0xe3ddb900224835013cd35fff070ff631b117b62677c5c579b5c305c7c681a801",
            "mixHash" : "0x56e81f171bcc55a6ff8345e692c0f86e5b48e01b996cadc001622fb5e363b421",
            "nonce" : "0x0102030405060708",
            "number" : "0x00",
            "parentHash" : "0x0000000000000000000000000000000000000000000000000000000000000000",
            "receiptTrie" : "0x56e81f171bcc55a6ff8345e692c0f86e5b48e01b996cadc001622fb5e363b421",
            "stateRoot" : "0x4b45b95a7e8625a0465216c17b7d2b8ec3308235a98533684bb98bc7deaa03ff",
            "timestamp" : "0x03b6",
            "transactionsTrie" : "0x56e81f171bcc55a6ff8345e692c0f86e5b48e01b996cadc001622fb5e363b421",
            "uncleHash" : "0x1dcc4de8dec75d7aab85b567b6ccd41ad312451b948a7413f0a142fd40d49347"
        },
        "genesisRLP" : "0xf901faf901f5a00000000000000000000000000000000000000000000000000000000000000000a01dcc4de8dec75d7aab85b567b6ccd41ad312451b948a7413f0a142fd40d49347942adc25665018aa1fe0e6bc666dac8fc2697ff9baa04b45b95a7e8625a0465216c17b7d2b8ec3308235a98533684bb98bc7deaa03ffa056e81f171bcc55a6ff8345e692c0f86e5b48e01b996cadc001622fb5e363b421a056e81f171bcc55a6ff8345e692c0f86e5b48e01b996cadc001622fb5e363b421b9010000000000000000000000000000000000000000000000000000000000000000000000000000000000000000000000000000000000000000000000000000000000000000000000000000000000000000000000000000000000000000000000000000000000000000000000000000000000000000000000000000000000000000000000000000000000000000000000000000000000000000000000000000000000000000000000000000000000000000000000000000000000000000000000000000000000000000000000000000000000000000000000000000000000000000000000000000000000000000000000000000000000000000000000000000000000830200008083989680808203b642a056e81f171bcc55a6ff8345e692c0f86e5b48e01b996cadc001622fb5e363b421880102030405060708c0c0",
        "lastblockhash" : "0x267c40de37f13ecca9178eccb5cabb81087b0a8a0633bccbc195ab6add82f864",
        "network" : "Homestead",
        "postState" : {
            "0x1000000000000000000000000000000000000000" : {
                "balance" : "0x00",
                "code" : "0x6103526000526000600060206000600073a0000000000000000000000000000000000000006127105a03f16000555a600155",
                "nonce" : "0x00",
                "storage" : {
                }
            },
            "0x2adc25665018aa1fe0e6bc666dac8fc2697ff9ba" : {
                "balance" : "0x45639182457d5440",
                "code" : "",
                "nonce" : "0x00",
                "storage" : {
                }
            },
            "0xa000000000000000000000000000000000000000" : {
                "balance" : "0x00",
                "code" : "0x5b600160003503600052600060006000600073b00000000000000000000000000000000000000061c350fa50600051600057",
                "nonce" : "0x00",
                "storage" : {
                    "0x00" : "0x0352"
                }
            },
            "0xa94f5374fce5edbc8e2a8697c15331677e6ebf0b" : {
                "balance" : "0xe8d41bbbc0",
                "code" : "",
                "nonce" : "0x01",
                "storage" : {
                }
            },
            "0xb000000000000000000000000000000000000000" : {
                "balance" : "0x00",
                "code" : "0x600051600101600052",
                "nonce" : "0x00",
                "storage" : {
                }
            }
        },
        "pre" : {
            "0x1000000000000000000000000000000000000000" : {
                "balance" : "0x00",
                "code" : "0x6103526000526000600060206000600073a0000000000000000000000000000000000000006127105a03f16000555a600155",
                "nonce" : "0x00",
                "storage" : {
                }
            },
            "0xa000000000000000000000000000000000000000" : {
                "balance" : "0x00",
                "code" : "0x5b600160003503600052600060006000600073b00000000000000000000000000000000000000061c350fa50600051600057",
                "nonce" : "0x00",
                "storage" : {
                    "0x00" : "0x0352"
                }
            },
            "0xa94f5374fce5edbc8e2a8697c15331677e6ebf0b" : {
                "balance" : "0xe8d4a51000",
                "code" : "",
                "nonce" : "0x00",
                "storage" : {
                }
            },
            "0xb000000000000000000000000000000000000000" : {
                "balance" : "0x00",
                "code" : "0x600051600101600052",
                "nonce" : "0x00",
                "storage" : {
                }
            }
        }
    }
}