{
    "static_LoopCallsDepthThenRevert3_d0g0v0_Byzantium" : {
        "_info" : {
            "comment" : "",
            "filledwith" : "cpp-1.3.0+commit.6e0ce939.Linux.g++",
            "lllcversion" : "Version: 0.4.18-develop.2017.9.25+commit.a72237f2.Linux.g++",
            "source" : "src/BlockchainTestsFiller/GeneralStateTests/stStaticCall/static_LoopCallsDepthThenRevert3_d0g0v0Filler.json",
            "sourceHash" : "f27039e9409245b25722a9fe4bb7ed787c9464798a94a752c90ef19e3fecc5eb"
        },
        "blocks" : [
            {
                "blockHeader" : {
                    "bloom" : "0x00000000000000000000000000000000000000000000000000000000000000000000000000000000000000000000000000000000000000000000000000000000000000000000000000000000000000000000000000000000000000000000000000000000000000000000000000000000000000000000000000000000000000000000000000000000000000000000000000000000000000000000000000000000000000000000000000000000000000000000000000000000000000000000000000000000000000000000000000000000000000000000000000000000000000000000000000000000000000000000000000000000000000000000000000000000",
                    "coinbase" : "0x2adc25665018aa1fe0e6bc666dac8fc2697ff9ba",
                    "difficulty" : "0x020000",
                    "extraData" : "",
                    "gasLimit" : "0x7fffffffffffffff",
                    "gasUsed" : "0xdbce2e9c1e",
                    "hash" : "0x973702e36282d3e1d4632e69a0855ee6097acd24518ad39a1c4347489978fb31",
                    "mixHash" : "0x192df70cd30ad55a3d6580f7cfe6c7d875234d2e1effcba2c275038c5e2b9fca",
                    "nonce" : "0xeb98c86afb4aa8ba",
                    "number" : "0x01",
                    "parentHash" : "0x7b7ccb5bdeff4cc1de12b7cb4851eaf8e174fee578f65d2148a23e492edbc3dc",
                    "receiptTrie" : "0x13fc7185fff886a5ae2d9a266535f62bd6a1ed9bd7dd90c8263f196ac01a6c5b",
                    "stateRoot" : "0xf93e1b4e391f010928f17f08def5a3818687c1cd65e01fb34734aba60d45fd6b",
                    "timestamp" : "0x03e8",
                    "transactionsTrie" : "0x84e5036f9cf532e8fbf3c0ac0355c029f4837793e32be7bf51262adb82d6fcaa",
                    "uncleHash" : "0x1dcc4de8dec75d7aab85b567b6ccd41ad312451b948a7413f0a142fd40d49347"
                },
                "rlp" : "0xf9026cf901ffa07b7ccb5bdeff4cc1de12b7cb4851eaf8e174fee578f65d2148a23e492edbc3dca01dcc4de8dec75d7aab85b567b6ccd41ad312451b948a7413f0a142fd40d49347942adc25665018aa1fe0e6bc666dac8fc2697ff9baa0f93e1b4e391f010928f17f08def5a3818687c1cd65e01fb34734aba60d45fd6ba084e5036f9cf532e8fbf3c0ac0355c029f4837793e32be7bf51262adb82d6fcaaa013fc7185fff886a5ae2d9a266535f62bd6a1ed9bd7dd90c8263f196ac01a6c5bb90100000000000000000000000000000000000000000000000000000000000000000000000000000000000000000000000000000000000000000000000000000000000000000000000000000000000000000000000000000000000000000000000000000000000000000000000000000000000000000000000000000000000000000000000000000000000000000000000000000000000000000000000000000000000000000000000000000000000000000000000000000000000000000000000000000000000000000000000000000000000000000000000000000000000000000000000000000000000000000000000000000000000000000000000000000000008302000001887fffffffffffffff85dbce2e9c1e8203e880a0192df70cd30ad55a3d6580f7cfe6c7d875234d2e1effcba2c275038c5e2b9fca88eb98c86afb4aa8baf867f8658001887ffffffffffffff094a00000000000000000000000000000000000000080801ca031bd4c1d75c2daa04386e8431dc78f8e93a10c07927898061e4f188dcea8e708a008afbb59317063ad40204147fb0e6d640f2a055b58fffc1d85ec248265a7bb54c0",
                "transactions" : [
                    {
                        "data" : "",
                        "gasLimit" : "0x7ffffffffffffff0",
                        "gasPrice" : "0x01",
                        "nonce" : "0x00",
                        "r" : "0x31bd4c1d75c2daa04386e8431dc78f8e93a10c07927898061e4f188dcea8e708",
                        "s" : "0x08afbb59317063ad40204147fb0e6d640f2a055b58fffc1d85ec248265a7bb54",
                        "to" : "0xa000000000000000000000000000000000000000",
                        "v" : "0x1c",
                        "value" : "0x00"
                    }
                ],
                "uncleHeaders" : [
                ]
            }
        ],
        "genesisBlockHeader" : {
            "bloom" : "0x00000000000000000000000000000000000000000000000000000000000000000000000000000000000000000000000000000000000000000000000000000000000000000000000000000000000000000000000000000000000000000000000000000000000000000000000000000000000000000000000000000000000000000000000000000000000000000000000000000000000000000000000000000000000000000000000000000000000000000000000000000000000000000000000000000000000000000000000000000000000000000000000000000000000000000000000000000000000000000000000000000000000000000000000000000000",
            "coinbase" : "0x2adc25665018aa1fe0e6bc666dac8fc2697ff9ba",
            "difficulty" : "0x020000",
            "extraData" : "0x42",
            "gasLimit" : "0x7fffffffffffffff",
            "gasUsed" : "0x00",
            "hash" : "0x7b7ccb5bdeff4cc1de12b7cb4851eaf8e174fee578f65d2148a23e492edbc3dc",
            "mixHash" : "0x56e81f171bcc55a6ff8345e692c0f86e5b48e01b996cadc001622fb5e363b421",
            "nonce" : "0x0102030405060708",
            "number" : "0x00",
            "parentHash" : "0x0000000000000000000000000000000000000000000000000000000000000000",
            "receiptTrie" : "0x56e81f171bcc55a6ff8345e692c0f86e5b48e01b996cadc001622fb5e363b421",
            "stateRoot" : "0xaea971c2254b7547872f9156d0bc25e7989121b29e0f599d37b4e697808f78f3",
            "timestamp" : "0x03b6",
            "transactionsTrie" : "0x56e81f171bcc55a6ff8345e692c0f86e5b48e01b996cadc001622fb5e363b421",
            "uncleHash" : "0x1dcc4de8dec75d7aab85b567b6ccd41ad312451b948a7413f0a142fd40d49347"
        },
        "genesisRLP" : "0xf901fff901faa00000000000000000000000000000000000000000000000000000000000000000a01dcc4de8dec75d7aab85b567b6ccd41ad312451b948a7413f0a142fd40d49347942adc25665018aa1fe0e6bc666dac8fc2697ff9baa0aea971c2254b7547872f9156d0bc25e7989121b29e0f599d37b4e697808f78f3a056e81f171bcc55a6ff8345e692c0f86e5b48e01b996cadc001622fb5e363b421a056e81f171bcc55a6ff8345e692c0f86e5b48e01b996cadc001622fb5e363b421b90100000000000000000000000000000000000000000000000000000000000000000000000000000000000000000000000000000000000000000000000000000000000000000000000000000000000000000000000000000000000000000000000000000000000000000000000000000000000000000000000000000000000000000000000000000000000000000000000000000000000000000000000000000000000000000000000000000000000000000000000000000000000000000000000000000000000000000000000000000000000000000000000000000000000000000000000000000000000000000000000000000000000000000000000000000000008302000080887fffffffffffffff808203b642a056e81f171bcc55a6ff8345e692c0f86e5b48e01b996cadc001622fb5e363b421880102030405060708c0c0",
        "lastblockhash" : "0x973702e36282d3e1d4632e69a0855ee6097acd24518ad39a1c4347489978fb31",
        "network" : "Byzantium",
        "postState" : {
            "0x2adc25665018aa1fe0e6bc666dac8fc2697ff9ba" : {
                "balance" : "0x29a224f6c45a9c1e",
                "code" : "",
                "nonce" : "0x00",
                "storage" : {
                }
            },
            "0xa000000000000000000000000000000000000000" : {
                "balance" : "0x0a",
                "code" : "0x6103fe60003514603d57600160003501600052600060006020600073a0000000000000000000000000000000000000005afa5061041a600035106051575b66600060006002f0600052600760196003f0505b",
                "nonce" : "0x00",
                "storage" : {
                }
            },
            "0xa94f5374fce5edbc8e2a8697c15331677e6ebf0b" : {
                "balance" : "0x13426172c74d822b878f0c31d163e2",
                "code" : "",
                "nonce" : "0x01",
                "storage" : {
                }
            }
        },
        "pre" : {
            "0xa000000000000000000000000000000000000000" : {
                "balance" : "0x0a",
                "code" : "0x6103fe60003514603d57600160003501600052600060006020600073a0000000000000000000000000000000000000005afa5061041a600035106051575b66600060006002f0600052600760196003f0505b",
                "nonce" : "0x00",
                "storage" : {
                }
            },
            "0xa94f5374fce5edbc8e2a8697c15331677e6ebf0b" : {
                "balance" : "0x13426172c74d822b878fe800000000",
                "code" : "",
                "nonce" : "0x00",
                "storage" : {
                }
            }
        }
    },
    "static_LoopCallsDepthThenRevert3_d0g0v0_EIP150" : {
        "_info" : {
            "comment" : "",
            "filledwith" : "cpp-1.3.0+commit.6e0ce939.Linux.g++",
            "lllcversion" : "Version: 0.4.18-develop.2017.9.25+commit.a72237f2.Linux.g++",
            "source" : "src/BlockchainTestsFiller/GeneralStateTests/stStaticCall/static_LoopCallsDepthThenRevert3_d0g0v0Filler.json",
            "sourceHash" : "f27039e9409245b25722a9fe4bb7ed787c9464798a94a752c90ef19e3fecc5eb"
        },
        "blocks" : [
            {
                "blockHeader" : {
                    "bloom" : "0x00000000000000000000000000000000000000000000000000000000000000000000000000000000000000000000000000000000000000000000000000000000000000000000000000000000000000000000000000000000000000000000000000000000000000000000000000000000000000000000000000000000000000000000000000000000000000000000000000000000000000000000000000000000000000000000000000000000000000000000000000000000000000000000000000000000000000000000000000000000000000000000000000000000000000000000000000000000000000000000000000000000000000000000000000000000",
                    "coinbase" : "0x2adc25665018aa1fe0e6bc666dac8fc2697ff9ba",
                    "difficulty" : "0x020000",
                    "extraData" : "",
                    "gasLimit" : "0x7fffffffffffffff",
                    "gasUsed" : "0x7ffffffffffffff0",
                    "hash" : "0xd4bd77ebb47f660627766d3d1d14744a5b61ba33aec853b19afcb764cafdcccb",
                    "mixHash" : "0x6c0e45085da23c478dfa35148ee28d42587db263c4d8c0555d9a728994f4a399",
                    "nonce" : "0x5fa0614c237c2e8b",
                    "number" : "0x01",
                    "parentHash" : "0x7b7ccb5bdeff4cc1de12b7cb4851eaf8e174fee578f65d2148a23e492edbc3dc",
                    "receiptTrie" : "0x51e6dfd4690566e735b59e83be3d65e4dc2471c2f0c1007b8be0e67bbeacf66e",
                    "stateRoot" : "0xc8fda7327c4d926686837324b1bd960c773eb6e52513a24f35780e6cf39bf3a6",
                    "timestamp" : "0x03e8",
                    "transactionsTrie" : "0x84e5036f9cf532e8fbf3c0ac0355c029f4837793e32be7bf51262adb82d6fcaa",
                    "uncleHash" : "0x1dcc4de8dec75d7aab85b567b6ccd41ad312451b948a7413f0a142fd40d49347"
                },
                "rlp" : "0xf9026ff90202a07b7ccb5bdeff4cc1de12b7cb4851eaf8e174fee578f65d2148a23e492edbc3dca01dcc4de8dec75d7aab85b567b6ccd41ad312451b948a7413f0a142fd40d49347942adc25665018aa1fe0e6bc666dac8fc2697ff9baa0c8fda7327c4d926686837324b1bd960c773eb6e52513a24f35780e6cf39bf3a6a084e5036f9cf532e8fbf3c0ac0355c029f4837793e32be7bf51262adb82d6fcaaa051e6dfd4690566e735b59e83be3d65e4dc2471c2f0c1007b8be0e67bbeacf66eb90100000000000000000000000000000000000000000000000000000000000000000000000000000000000000000000000000000000000000000000000000000000000000000000000000000000000000000000000000000000000000000000000000000000000000000000000000000000000000000000000000000000000000000000000000000000000000000000000000000000000000000000000000000000000000000000000000000000000000000000000000000000000000000000000000000000000000000000000000000000000000000000000000000000000000000000000000000000000000000000000000000000000000000000000000000000008302000001887fffffffffffffff887ffffffffffffff08203e880a06c0e45085da23c478dfa35148ee28d42587db263c4d8c0555d9a728994f4a399885fa0614c237c2e8bf867f8658001887ffffffffffffff094a00000000000000000000000000000000000000080801ca031bd4c1d75c2daa04386e8431dc78f8e93a10c07927898061e4f188dcea8e708a008afbb59317063ad40204147fb0e6d640f2a055b58fffc1d85ec248265a7bb54c0",
                "transactions" : [
                    {
                        "data" : "",
                        "gasLimit" : "0x7ffffffffffffff0",
                        "gasPrice" : "0x01",
                        "nonce" : "0x00",
                        "r" : "0x31bd4c1d75c2daa04386e8431dc78f8e93a10c07927898061e4f188dcea8e708",
                        "s" : "0x08afbb59317063ad40204147fb0e6d640f2a055b58fffc1d85ec248265a7bb54",
                        "to" : "0xa000000000000000000000000000000000000000",
                        "v" : "0x1c",
                        "value" : "0x00"
                    }
                ],
                "uncleHeaders" : [
                ]
            }
        ],
        "genesisBlockHeader" : {
            "bloom" : "0x00000000000000000000000000000000000000000000000000000000000000000000000000000000000000000000000000000000000000000000000000000000000000000000000000000000000000000000000000000000000000000000000000000000000000000000000000000000000000000000000000000000000000000000000000000000000000000000000000000000000000000000000000000000000000000000000000000000000000000000000000000000000000000000000000000000000000000000000000000000000000000000000000000000000000000000000000000000000000000000000000000000000000000000000000000000",
            "coinbase" : "0x2adc25665018aa1fe0e6bc666dac8fc2697ff9ba",
            "difficulty" : "0x020000",
            "extraData" : "0x42",
            "gasLimit" : "0x7fffffffffffffff",
            "gasUsed" : "0x00",
            "hash" : "0x7b7ccb5bdeff4cc1de12b7cb4851eaf8e174fee578f65d2148a23e492edbc3dc",
            "mixHash" : "0x56e81f171bcc55a6ff8345e692c0f86e5b48e01b996cadc001622fb5e363b421",
            "nonce" : "0x0102030405060708",
            "number" : "0x00",
            "parentHash" : "0x0000000000000000000000000000000000000000000000000000000000000000",
            "receiptTrie" : "0x56e81f171bcc55a6ff8345e692c0f86e5b48e01b996cadc001622fb5e363b421",
            "stateRoot" : "0xaea971c2254b7547872f9156d0bc25e7989121b29e0f599d37b4e697808f78f3",
            "timestamp" : "0x03b6",
            "transactionsTrie" : "0x56e81f171bcc55a6ff8345e692c0f86e5b48e01b996cadc001622fb5e363b421",
            "uncleHash" : "0x1dcc4de8dec75d7aab85b567b6ccd41ad312451b948a7413f0a142fd40d49347"
        },
        "genesisRLP" : "0xf901fff901faa00000000000000000000000000000000000000000000000000000000000000000a01dcc4de8dec75d7aab85b567b6ccd41ad312451b948a7413f0a142fd40d49347942adc25665018aa1fe0e6bc666dac8fc2697ff9baa0aea971c2254b7547872f9156d0bc25e7989121b29e0f599d37b4e697808f78f3a056e81f171bcc55a6ff8345e692c0f86e5b48e01b996cadc001622fb5e363b421a056e81f171bcc55a6ff8345e692c0f86e5b48e01b996cadc001622fb5e363b421b90100000000000000000000000000000000000000000000000000000000000000000000000000000000000000000000000000000000000000000000000000000000000000000000000000000000000000000000000000000000000000000000000000000000000000000000000000000000000000000000000000000000000000000000000000000000000000000000000000000000000000000000000000000000000000000000000000000000000000000000000000000000000000000000000000000000000000000000000000000000000000000000000000000000000000000000000000000000000000000000000000000000000000000000000000000000008302000080887fffffffffffffff808203b642a056e81f171bcc55a6ff8345e692c0f86e5b48e01b996cadc001622fb5e363b421880102030405060708c0c0",
        "lastblockhash" : "0xd4bd77ebb47f660627766d3d1d14744a5b61ba33aec853b19afcb764cafdcccb",
        "network" : "EIP150",
        "postState" : {
            "0x2adc25665018aa1fe0e6bc666dac8fc2697ff9ba" : {
                "balance" : "0xc563918244f3fff0",
                "code" : "",
                "nonce" : "0x00",
                "storage" : {
                }
            },
            "0xa000000000000000000000000000000000000000" : {
                "balance" : "0x0a",
                "code" : "0x6103fe60003514603d57600160003501600052600060006020600073a0000000000000000000000000000000000000005afa5061041a600035106051575b66600060006002f0600052600760196003f0505b",
                "nonce" : "0x00",
                "storage" : {
                }
            },
            "0xa94f5374fce5edbc8e2a8697c15331677e6ebf0b" : {
                "balance" : "0x13426172c74d81ab878fe800000010",
                "code" : "",
                "nonce" : "0x01",
                "storage" : {
                }
            }
        },
        "pre" : {
            "0xa000000000000000000000000000000000000000" : {
                "balance" : "0x0a",
                "code" : "0x6103fe60003514603d57600160003501600052600060006020600073a0000000000000000000000000000000000000005afa5061041a600035106051575b66600060006002f0600052600760196003f0505b",
                "nonce" : "0x00",
                "storage" : {
                }
            },
            "0xa94f5374fce5edbc8e2a8697c15331677e6ebf0b" : {
                "balance" : "0x13426172c74d822b878fe800000000",
                "code" : "",
                "nonce" : "0x00",
                "storage" : {
                }
            }
        }
    },
    "static_LoopCallsDepthThenRevert3_d0g0v0_EIP158" : {
        "_info" : {
            "comment" : "",
            "filledwith" : "cpp-1.3.0+commit.6e0ce939.Linux.g++",
            "lllcversion" : "Version: 0.4.18-develop.2017.9.25+commit.a72237f2.Linux.g++",
            "source" : "src/BlockchainTestsFiller/GeneralStateTests/stStaticCall/static_LoopCallsDepthThenRevert3_d0g0v0Filler.json",
            "sourceHash" : "f27039e9409245b25722a9fe4bb7ed787c9464798a94a752c90ef19e3fecc5eb"
        },
        "blocks" : [
            {
                "blockHeader" : {
                    "bloom" : "0x00000000000000000000000000000000000000000000000000000000000000000000000000000000000000000000000000000000000000000000000000000000000000000000000000000000000000000000000000000000000000000000000000000000000000000000000000000000000000000000000000000000000000000000000000000000000000000000000000000000000000000000000000000000000000000000000000000000000000000000000000000000000000000000000000000000000000000000000000000000000000000000000000000000000000000000000000000000000000000000000000000000000000000000000000000000",
                    "coinbase" : "0x2adc25665018aa1fe0e6bc666dac8fc2697ff9ba",
                    "difficulty" : "0x020000",
                    "extraData" : "",
                    "gasLimit" : "0x7fffffffffffffff",
                    "gasUsed" : "0x7ffffffffffffff0",
                    "hash" : "0x68abb4b53497702a02c999047370d0c6c9fc3f00232bf8f40ee9f8c9acc3c6c5",
                    "mixHash" : "0x607e8c76d4ba073bd37a366d32440e0305ae218eec523605ed34b2fa3404beab",
                    "nonce" : "0xa41b3f182c202360",
                    "number" : "0x01",
                    "parentHash" : "0x7b7ccb5bdeff4cc1de12b7cb4851eaf8e174fee578f65d2148a23e492edbc3dc",
                    "receiptTrie" : "0x51e6dfd4690566e735b59e83be3d65e4dc2471c2f0c1007b8be0e67bbeacf66e",
                    "stateRoot" : "0xc8fda7327c4d926686837324b1bd960c773eb6e52513a24f35780e6cf39bf3a6",
                    "timestamp" : "0x03e8",
                    "transactionsTrie" : "0x84e5036f9cf532e8fbf3c0ac0355c029f4837793e32be7bf51262adb82d6fcaa",
                    "uncleHash" : "0x1dcc4de8dec75d7aab85b567b6ccd41ad312451b948a7413f0a142fd40d49347"
                },
                "rlp" : "0xf9026ff90202a07b7ccb5bdeff4cc1de12b7cb4851eaf8e174fee578f65d2148a23e492edbc3dca01dcc4de8dec75d7aab85b567b6ccd41ad312451b948a7413f0a142fd40d49347942adc25665018aa1fe0e6bc666dac8fc2697ff9baa0c8fda7327c4d926686837324b1bd960c773eb6e52513a24f35780e6cf39bf3a6a084e5036f9cf532e8fbf3c0ac0355c029f4837793e32be7bf51262adb82d6fcaaa051e6dfd4690566e735b59e83be3d65e4dc2471c2f0c1007b8be0e67bbeacf66eb90100000000000000000000000000000000000000000000000000000000000000000000000000000000000000000000000000000000000000000000000000000000000000000000000000000000000000000000000000000000000000000000000000000000000000000000000000000000000000000000000000000000000000000000000000000000000000000000000000000000000000000000000000000000000000000000000000000000000000000000000000000000000000000000000000000000000000000000000000000000000000000000000000000000000000000000000000000000000000000000000000000000000000000000000000000000008302000001887fffffffffffffff887ffffffffffffff08203e880a0607e8c76d4ba073bd37a366d32440e0305ae218eec523605ed34b2fa3404beab88a41b3f182c202360f867f8658001887ffffffffffffff094a00000000000000000000000000000000000000080801ca031bd4c1d75c2daa04386e8431dc78f8e93a10c07927898061e4f188dcea8e708a008afbb59317063ad40204147fb0e6d640f2a055b58fffc1d85ec248265a7bb54c0",
                "transactions" : [
                    {
                        "data" : "",
                        "gasLimit" : "0x7ffffffffffffff0",
                        "gasPrice" : "0x01",
                        "nonce" : "0x00",
                        "r" : "0x31bd4c1d75c2daa04386e8431dc78f8e93a10c07927898061e4f188dcea8e708",
                        "s" : "0x08afbb59317063ad40204147fb0e6d640f2a055b58fffc1d85ec248265a7bb54",
                        "to" : "0xa000000000000000000000000000000000000000",
                        "v" : "0x1c",
                        "value" : "0x00"
                    }
                ],
                "uncleHeaders" : [
                ]
            }
        ],
        "genesisBlockHeader" : {
            "bloom" : "0x00000000000000000000000000000000000000000000000000000000000000000000000000000000000000000000000000000000000000000000000000000000000000000000000000000000000000000000000000000000000000000000000000000000000000000000000000000000000000000000000000000000000000000000000000000000000000000000000000000000000000000000000000000000000000000000000000000000000000000000000000000000000000000000000000000000000000000000000000000000000000000000000000000000000000000000000000000000000000000000000000000000000000000000000000000000",
            "coinbase" : "0x2adc25665018aa1fe0e6bc666dac8fc2697ff9ba",
            "difficulty" : "0x020000",
            "extraData" : "0x42",
            "gasLimit" : "0x7fffffffffffffff",
            "gasUsed" : "0x00",
            "hash" : "0x7b7ccb5bdeff4cc1de12b7cb4851eaf8e174fee578f65d2148a23e492edbc3dc",
            "mixHash" : "0x56e81f171bcc55a6ff8345e692c0f86e5b48e01b996cadc001622fb5e363b421",
            "nonce" : "0x0102030405060708",
            "number" : "0x00",
            "parentHash" : "0x0000000000000000000000000000000000000000000000000000000000000000",
            "receiptTrie" : "0x56e81f171bcc55a6ff8345e692c0f86e5b48e01b996cadc001622fb5e363b421",
            "stateRoot" : "0xaea971c2254b7547872f9156d0bc25e7989121b29e0f599d37b4e697808f78f3",
            "timestamp" : "0x03b6",
            "transactionsTrie" : "0x56e81f171bcc55a6ff8345e692c0f86e5b48e01b996cadc001622fb5e363b421",
            "uncleHash" : "0x1dcc4de8dec75d7aab85b567b6ccd41ad312451b948a7413f0a142fd40d49347"
        },
        "genesisRLP" : "0xf901fff901faa00000000000000000000000000000000000000000000000000000000000000000a01dcc4de8dec75d7aab85b567b6ccd41ad312451b948a7413f0a142fd40d49347942adc25665018aa1fe0e6bc666dac8fc2697ff9baa0aea971c2254b7547872f9156d0bc25e7989121b29e0f599d37b4e697808f78f3a056e81f171bcc55a6ff8345e692c0f86e5b48e01b996cadc001622fb5e363b421a056e81f171bcc55a6ff8345e692c0f86e5b48e01b996cadc001622fb5e363b421b90100000000000000000000000000000000000000000000000000000000000000000000000000000000000000000000000000000000000000000000000000000000000000000000000000000000000000000000000000000000000000000000000000000000000000000000000000000000000000000000000000000000000000000000000000000000000000000000000000000000000000000000000000000000000000000000000000000000000000000000000000000000000000000000000000000000000000000000000000000000000000000000000000000000000000000000000000000000000000000000000000000000000000000000000000000000008302000080887fffffffffffffff808203b642a056e81f171bcc55a6ff8345e692c0f86e5b48e01b996cadc001622fb5e363b421880102030405060708c0c0",
        "lastblockhash" : "0x68abb4b53497702a02c999047370d0c6c9fc3f00232bf8f40ee9f8c9acc3c6c5",
        "network" : "EIP158",
        "postState" : {
            "0x2adc25665018aa1fe0e6bc666dac8fc2697ff9ba" : {
                "balance" : "0xc563918244f3fff0",
                "code" : "",
                "nonce" : "0x00",
                "storage" : {
                }
            },
            "0xa000000000000000000000000000000000000000" : {
                "balance" : "0x0a",
                "code" : "0x6103fe60003514603d57600160003501600052600060006020600073a0000000000000000000000000000000000000005afa5061041a600035106051575b66600060006002f0600052600760196003f0505b",
                "nonce" : "0x00",
                "storage" : {
                }
            },
            "0xa94f5374fce5edbc8e2a8697c15331677e6ebf0b" : {
                "balance" : "0x13426172c74d81ab878fe800000010",
                "code" : "",
                "nonce" : "0x01",
                "storage" : {
                }
            }
        },
        "pre" : {
            "0xa000000000000000000000000000000000000000" : {
                "balance" : "0x0a",
                "code" : "0x6103fe60003514603d57600160003501600052600060006020600073a0000000000000000000000000000000000000005afa5061041a600035106051575b66600060006002f0600052600760196003f0505b",
                "nonce" : "0x00",
                "storage" : {
                }
            },
            "0xa94f5374fce5edbc8e2a8697c15331677e6ebf0b" : {
                "balance" : "0x13426172c74d822b878fe800000000",
                "code" : "",
                "nonce" : "0x00",
                "storage" : {
                }
            }
        }
    },
    "static_LoopCallsDepthThenRevert3_d0g0v0_Frontier" : {
        "_info" : {
            "comment" : "",
            "filledwith" : "cpp-1.3.0+commit.6e0ce939.Linux.g++",
            "lllcversion" : "Version: 0.4.18-develop.2017.9.25+commit.a72237f2.Linux.g++",
            "source" : "src/BlockchainTestsFiller/GeneralStateTests/stStaticCall/static_LoopCallsDepthThenRevert3_d0g0v0Filler.json",
            "sourceHash" : "f27039e9409245b25722a9fe4bb7ed787c9464798a94a752c90ef19e3fecc5eb"
        },
        "blocks" : [
            {
                "blockHeader" : {
                    "bloom" : "0x00000000000000000000000000000000000000000000000000000000000000000000000000000000000000000000000000000000000000000000000000000000000000000000000000000000000000000000000000000000000000000000000000000000000000000000000000000000000000000000000000000000000000000000000000000000000000000000000000000000000000000000000000000000000000000000000000000000000000000000000000000000000000000000000000000000000000000000000000000000000000000000000000000000000000000000000000000000000000000000000000000000000000000000000000000000",
                    "coinbase" : "0x2adc25665018aa1fe0e6bc666dac8fc2697ff9ba",
                    "difficulty" : "0x020000",
                    "extraData" : "",
                    "gasLimit" : "0x7fffffffffffffff",
                    "gasUsed" : "0x7ffffffffffffff0",
                    "hash" : "0xeb1522b1e09bca79e34abe30bdf407b567c9fdbd455c5dbb3da6f3bbe64ecf01",
                    "mixHash" : "0x938667b575a1d92d20c6a41307c4340b61d9ce48da8ce16d545d702dc45a1819",
                    "nonce" : "0x77fe2a12dadb003e",
                    "number" : "0x01",
                    "parentHash" : "0x7b7ccb5bdeff4cc1de12b7cb4851eaf8e174fee578f65d2148a23e492edbc3dc",
                    "receiptTrie" : "0x51e6dfd4690566e735b59e83be3d65e4dc2471c2f0c1007b8be0e67bbeacf66e",
                    "stateRoot" : "0xc8fda7327c4d926686837324b1bd960c773eb6e52513a24f35780e6cf39bf3a6",
                    "timestamp" : "0x03e8",
                    "transactionsTrie" : "0x84e5036f9cf532e8fbf3c0ac0355c029f4837793e32be7bf51262adb82d6fcaa",
                    "uncleHash" : "0x1dcc4de8dec75d7aab85b567b6ccd41ad312451b948a7413f0a142fd40d49347"
                },
                "rlp" : "0xf9026ff90202a07b7ccb5bdeff4cc1de12b7cb4851eaf8e174fee578f65d2148a23e492edbc3dca01dcc4de8dec75d7aab85b567b6ccd41ad312451b948a7413f0a142fd40d49347942adc25665018aa1fe0e6bc666dac8fc2697ff9baa0c8fda7327c4d926686837324b1bd960c773eb6e52513a24f35780e6cf39bf3a6a084e5036f9cf532e8fbf3c0ac0355c029f4837793e32be7bf51262adb82d6fcaaa051e6dfd4690566e735b59e83be3d65e4dc2471c2f0c1007b8be0e67bbeacf66eb90100000000000000000000000000000000000000000000000000000000000000000000000000000000000000000000000000000000000000000000000000000000000000000000000000000000000000000000000000000000000000000000000000000000000000000000000000000000000000000000000000000000000000000000000000000000000000000000000000000000000000000000000000000000000000000000000000000000000000000000000000000000000000000000000000000000000000000000000000000000000000000000000000000000000000000000000000000000000000000000000000000000000000000000000000000000008302000001887fffffffffffffff887ffffffffffffff08203e880a0938667b575a1d92d20c6a41307c4340b61d9ce48da8ce16d545d702dc45a18198877fe2a12dadb003ef867f8658001887ffffffffffffff094a00000000000000000000000000000000000000080801ca031bd4c1d75c2daa04386e8431dc78f8e93a10c07927898061e4f188dcea8e708a008afbb59317063ad40204147fb0e6d640f2a055b58fffc1d85ec248265a7bb54c0",
                "transactions" : [
                    {
                        "data" : "",
                        "gasLimit" : "0x7ffffffffffffff0",
                        "gasPrice" : "0x01",
                        "nonce" : "0x00",
                        "r" : "0x31bd4c1d75c2daa04386e8431dc78f8e93a10c07927898061e4f188dcea8e708",
                        "s" : "0x08afbb59317063ad40204147fb0e6d640f2a055b58fffc1d85ec248265a7bb54",
                        "to" : "0xa000000000000000000000000000000000000000",
                        "v" : "0x1c",
                        "value" : "0x00"
                    }
                ],
                "uncleHeaders" : [
                ]
            }
        ],
        "genesisBlockHeader" : {
            "bloom" : "0x00000000000000000000000000000000000000000000000000000000000000000000000000000000000000000000000000000000000000000000000000000000000000000000000000000000000000000000000000000000000000000000000000000000000000000000000000000000000000000000000000000000000000000000000000000000000000000000000000000000000000000000000000000000000000000000000000000000000000000000000000000000000000000000000000000000000000000000000000000000000000000000000000000000000000000000000000000000000000000000000000000000000000000000000000000000",
            "coinbase" : "0x2adc25665018aa1fe0e6bc666dac8fc2697ff9ba",
            "difficulty" : "0x020000",
            "extraData" : "0x42",
            "gasLimit" : "0x7fffffffffffffff",
            "gasUsed" : "0x00",
            "hash" : "0x7b7ccb5bdeff4cc1de12b7cb4851eaf8e174fee578f65d2148a23e492edbc3dc",
            "mixHash" : "0x56e81f171bcc55a6ff8345e692c0f86e5b48e01b996cadc001622fb5e363b421",
            "nonce" : "0x0102030405060708",
            "number" : "0x00",
            "parentHash" : "0x0000000000000000000000000000000000000000000000000000000000000000",
            "receiptTrie" : "0x56e81f171bcc55a6ff8345e692c0f86e5b48e01b996cadc001622fb5e363b421",
            "stateRoot" : "0xaea971c2254b7547872f9156d0bc25e7989121b29e0f599d37b4e697808f78f3",
            "timestamp" : "0x03b6",
            "transactionsTrie" : "0x56e81f171bcc55a6ff8345e692c0f86e5b48e01b996cadc001622fb5e363b421",
            "uncleHash" : "0x1dcc4de8dec75d7aab85b567b6ccd41ad312451b948a7413f0a142fd40d49347"
        },
        "genesisRLP" : "0xf901fff901faa00000000000000000000000000000000000000000000000000000000000000000a01dcc4de8dec75d7aab85b567b6ccd41ad312451b948a7413f0a142fd40d49347942adc25665018aa1fe0e6bc666dac8fc2697ff9baa0aea971c2254b7547872f9156d0bc25e7989121b29e0f599d37b4e697808f78f3a056e81f171bcc55a6ff8345e692c0f86e5b48e01b996cadc001622fb5e363b421a056e81f171bcc55a6ff8345e692c0f86e5b48e01b996cadc001622fb5e363b421b90100000000000000000000000000000000000000000000000000000000000000000000000000000000000000000000000000000000000000000000000000000000000000000000000000000000000000000000000000000000000000000000000000000000000000000000000000000000000000000000000000000000000000000000000000000000000000000000000000000000000000000000000000000000000000000000000000000000000000000000000000000000000000000000000000000000000000000000000000000000000000000000000000000000000000000000000000000000000000000000000000000000000000000000000000000000008302000080887fffffffffffffff808203b642a056e81f171bcc55a6ff8345e692c0f86e5b48e01b996cadc001622fb5e363b421880102030405060708c0c0",
        "lastblockhash" : "0xeb1522b1e09bca79e34abe30bdf407b567c9fdbd455c5dbb3da6f3bbe64ecf01",
        "network" : "Frontier",
        "postState" : {
            "0x2adc25665018aa1fe0e6bc666dac8fc2697ff9ba" : {
                "balance" : "0xc563918244f3fff0",
                "code" : "",
                "nonce" : "0x00",
                "storage" : {
                }
            },
            "0xa000000000000000000000000000000000000000" : {
                "balance" : "0x0a",
                "code" : "0x6103fe60003514603d57600160003501600052600060006020600073a0000000000000000000000000000000000000005afa5061041a600035106051575b66600060006002f0600052600760196003f0505b",
                "nonce" : "0x00",
                "storage" : {
                }
            },
            "0xa94f5374fce5edbc8e2a8697c15331677e6ebf0b" : {
                "balance" : "0x13426172c74d81ab878fe800000010",
                "code" : "",
                "nonce" : "0x01",
                "storage" : {
                }
            }
        },
        "pre" : {
            "0xa000000000000000000000000000000000000000" : {
                "balance" : "0x0a",
                "code" : "0x6103fe60003514603d57600160003501600052600060006020600073a0000000000000000000000000000000000000005afa5061041a600035106051575b66600060006002f0600052600760196003f0505b",
                "nonce" : "0x00",
                "storage" : {
                }
            },
            "0xa94f5374fce5edbc8e2a8697c15331677e6ebf0b" : {
                "balance" : "0x13426172c74d822b878fe800000000",
                "code" : "",
                "nonce" : "0x00",
                "storage" : {
                }
            }
        }
    },
    "static_LoopCallsDepthThenRevert3_d0g0v0_Homestead" : {
        "_info" : {
            "comment" : "",
            "filledwith" : "cpp-1.3.0+commit.6e0ce939.Linux.g++",
            "lllcversion" : "Version: 0.4.18-develop.2017.9.25+commit.a72237f2.Linux.g++",
            "source" : "src/BlockchainTestsFiller/GeneralStateTests/stStaticCall/static_LoopCallsDepthThenRevert3_d0g0v0Filler.json",
            "sourceHash" : "f27039e9409245b25722a9fe4bb7ed787c9464798a94a752c90ef19e3fecc5eb"
        },
        "blocks" : [
            {
                "blockHeader" : {
                    "bloom" : "0x00000000000000000000000000000000000000000000000000000000000000000000000000000000000000000000000000000000000000000000000000000000000000000000000000000000000000000000000000000000000000000000000000000000000000000000000000000000000000000000000000000000000000000000000000000000000000000000000000000000000000000000000000000000000000000000000000000000000000000000000000000000000000000000000000000000000000000000000000000000000000000000000000000000000000000000000000000000000000000000000000000000000000000000000000000000",
                    "coinbase" : "0x2adc25665018aa1fe0e6bc666dac8fc2697ff9ba",
                    "difficulty" : "0x020000",
                    "extraData" : "",
                    "gasLimit" : "0x7fffffffffffffff",
                    "gasUsed" : "0x7ffffffffffffff0",
                    "hash" : "0x7640ea9ccecb23ebdeef0ffa5365ef01ada7e30f1b42381a9108f5dc84dc3ab9",
                    "mixHash" : "0x6fb00ca38ccc39da1883630ec381101fd2d09c00e29a748f521a47613abf14d4",
                    "nonce" : "0xc41c2a191321554c",
                    "number" : "0x01",
                    "parentHash" : "0x7b7ccb5bdeff4cc1de12b7cb4851eaf8e174fee578f65d2148a23e492edbc3dc",
                    "receiptTrie" : "0x51e6dfd4690566e735b59e83be3d65e4dc2471c2f0c1007b8be0e67bbeacf66e",
                    "stateRoot" : "0xc8fda7327c4d926686837324b1bd960c773eb6e52513a24f35780e6cf39bf3a6",
                    "timestamp" : "0x03e8",
                    "transactionsTrie" : "0x84e5036f9cf532e8fbf3c0ac0355c029f4837793e32be7bf51262adb82d6fcaa",
                    "uncleHash" : "0x1dcc4de8dec75d7aab85b567b6ccd41ad312451b948a7413f0a142fd40d49347"
                },
                "rlp" : "0xf9026ff90202a07b7ccb5bdeff4cc1de12b7cb4851eaf8e174fee578f65d2148a23e492edbc3dca01dcc4de8dec75d7aab85b567b6ccd41ad312451b948a7413f0a142fd40d49347942adc25665018aa1fe0e6bc666dac8fc2697ff9baa0c8fda7327c4d926686837324b1bd960c773eb6e52513a24f35780e6cf39bf3a6a084e5036f9cf532e8fbf3c0ac0355c029f4837793e32be7bf51262adb82d6fcaaa051e6dfd4690566e735b59e83be3d65e4dc2471c2f0c1007b8be0e67bbeacf66eb90100000000000000000000000000000000000000000000000000000000000000000000000000000000000000000000000000000000000000000000000000000000000000000000000000000000000000000000000000000000000000000000000000000000000000000000000000000000000000000000000000000000000000000000000000000000000000000000000000000000000000000000000000000000000000000000000000000000000000000000000000000000000000000000000000000000000000000000000000000000000000000000000000000000000000000000000000000000000000000000000000000000000000000000000000000000008302000001887fffffffffffffff887ffffffffffffff08203e880a06fb00ca38ccc39da1883630ec381101fd2d09c00e29a748f521a47613abf14d488c41c2a191321554cf867f8658001887ffffffffffffff094a00000000000000000000000000000000000000080801ca031bd4c1d75c2daa04386e8431dc78f8e93a10c07927898061e4f188dcea8e708a008afbb59317063ad40204147fb0e6d640f2a055b58fffc1d85ec248265a7bb54c0",
                "transactions" : [
                    {
                        "data" : "",
                        "gasLimit" : "0x7ffffffffffffff0",
                        "gasPrice" : "0x01",
                        "nonce" : "0x00",
                        "r" : "0x31bd4c1d75c2daa04386e8431dc78f8e93a10c07927898061e4f188dcea8e708",
                        "s" : "0x08afbb59317063ad40204147fb0e6d640f2a055b58fffc1d85ec248265a7bb54",
                        "to" : "0xa000000000000000000000000000000000000000",
                        "v" : "0x1c",
                        "value" : "0x00"
                    }
                ],
                "uncleHeaders" : [
                ]
            }
        ],
        "genesisBlockHeader" : {
            "bloom" : "0x00000000000000000000000000000000000000000000000000000000000000000000000000000000000000000000000000000000000000000000000000000000000000000000000000000000000000000000000000000000000000000000000000000000000000000000000000000000000000000000000000000000000000000000000000000000000000000000000000000000000000000000000000000000000000000000000000000000000000000000000000000000000000000000000000000000000000000000000000000000000000000000000000000000000000000000000000000000000000000000000000000000000000000000000000000000",
            "coinbase" : "0x2adc25665018aa1fe0e6bc666dac8fc2697ff9ba",
            "difficulty" : "0x020000",
            "extraData" : "0x42",
            "gasLimit" : "0x7fffffffffffffff",
            "gasUsed" : "0x00",
            "hash" : "0x7b7ccb5bdeff4cc1de12b7cb4851eaf8e174fee578f65d2148a23e492edbc3dc",
            "mixHash" : "0x56e81f171bcc55a6ff8345e692c0f86e5b48e01b996cadc001622fb5e363b421",
            "nonce" : "0x0102030405060708",
            "number" : "0x00",
            "parentHash" : "0x0000000000000000000000000000000000000000000000000000000000000000",
            "receiptTrie" : "0x56e81f171bcc55a6ff8345e692c0f86e5b48e01b996cadc001622fb5e363b421",
            "stateRoot" : "0xaea971c2254b7547872f9156d0bc25e7989121b29e0f599d37b4e697808f78f3",
            "timestamp" : "0x03b6",
            "transactionsTrie" : "0x56e81f171bcc55a6ff8345e692c0f86e5b48e01b996cadc001622fb5e363b421",
            "uncleHash" : "0x1dcc4de8dec75d7aab85b567b6ccd41ad312451b948a7413f0a142fd40d49347"
        },
        "genesisRLP" : "0xf901fff901faa00000000000000000000000000000000000000000000000000000000000000000a01dcc4de8dec75d7aab85b567b6ccd41ad312451b948a7413f0a142fd40d49347942adc25665018aa1fe0e6bc666dac8fc2697ff9baa0aea971c2254b7547872f9156d0bc25e7989121b29e0f599d37b4e697808f78f3a056e81f171bcc55a6ff8345e692c0f86e5b48e01b996cadc001622fb5e363b421a056e81f171bcc55a6ff8345e692c0f86e5b48e01b996cadc001622fb5e363b421b90100000000000000000000000000000000000000000000000000000000000000000000000000000000000000000000000000000000000000000000000000000000000000000000000000000000000000000000000000000000000000000000000000000000000000000000000000000000000000000000000000000000000000000000000000000000000000000000000000000000000000000000000000000000000000000000000000000000000000000000000000000000000000000000000000000000000000000000000000000000000000000000000000000000000000000000000000000000000000000000000000000000000000000000000000000000008302000080887fffffffffffffff808203b642a056e81f171bcc55a6ff8345e692c0f86e5b48e01b996cadc001622fb5e363b421880102030405060708c0c0",
        "lastblockhash" : "0x7640ea9ccecb23ebdeef0ffa5365ef01ada7e30f1b42381a9108f5dc84dc3ab9",
        "network" : "Homestead",
        "postState" : {
            "0x2adc25665018aa1fe0e6bc666dac8fc2697ff9ba" : {
                "balance" : "0xc563918244f3fff0",
                "code" : "",
                "nonce" : "0x00",
                "storage" : {
                }
            },
            "0xa000000000000000000000000000000000000000" : {
                "balance" : "0x0a",
                "code" : "0x6103fe60003514603d57600160003501600052600060006020600073a0000000000000000000000000000000000000005afa5061041a600035106051575b66600060006002f0600052600760196003f0505b",
                "nonce" : "0x00",
                "storage" : {
                }
            },
            "0xa94f5374fce5edbc8e2a8697c15331677e6ebf0b" : {
                "balance" : "0x13426172c74d81ab878fe800000010",
                "code" : "",
                "nonce" : "0x01",
                "storage" : {
                }
            }
        },
        "pre" : {
            "0xa000000000000000000000000000000000000000" : {
                "balance" : "0x0a",
                "code" : "0x6103fe60003514603d57600160003501600052600060006020600073a0000000000000000000000000000000000000005afa5061041a600035106051575b66600060006002f0600052600760196003f0505b",
                "nonce" : "0x00",
                "storage" : {
                }
            },
            "0xa94f5374fce5edbc8e2a8697c15331677e6ebf0b" : {
                "balance" : "0x13426172c74d822b878fe800000000",
                "code" : "",
                "nonce" : "0x00",
                "storage" : {
                }
            }
        }
    }
}