{
    "static_LoopCallsDepthThenRevert2_d0g0v0_Byzantium" : {
        "_info" : {
            "comment" : "",
            "filledwith" : "cpp-1.3.0+commit.6e0ce939.Linux.g++",
            "lllcversion" : "Version: 0.4.18-develop.2017.9.25+commit.a72237f2.Linux.g++",
            "source" : "src/BlockchainTestsFiller/GeneralStateTests/stStaticCall/static_LoopCallsDepthThenRevert2_d0g0v0Filler.json",
            "sourceHash" : "11d96a43bb35fe991df5cb00eb9af37db7af0f127d65469b831568ed195b4fc1"
        },
        "blocks" : [
            {
                "blockHeader" : {
                    "bloom" : "0x00000000000000000000000000000000000000000000000000000000000000000000000000000000000000000000000000000000000000000000000000000000000000000000000000000000000000000000000000000000000000000000000000000000000000000000000000000000000000000000000000000000000000000000000000000000000000000000000000000000000000000000000000000000000000000000000000000000000000000000000000000000000000000000000000000000000000000000000000000000000000000000000000000000000000000000000000000000000000000000000000000000000000000000000000000000",
                    "coinbase" : "0x2adc25665018aa1fe0e6bc666dac8fc2697ff9ba",
                    "difficulty" : "0x020000",
                    "extraData" : "",
                    "gasLimit" : "0x7fffffffffffffff",
                    "gasUsed" : "0xd85ef61475",
                    "hash" : "0x4808d2e2f82ec82aa0bcdd59e2e02604824749876d2490e20ae797e4d220a7a6",
                    "mixHash" : "0x048e782cc97d85dc0b0df4e010c001e92fcd238836a9a949997cbc39631f0cfc",
                    "nonce" : "0xbf91194717303e20",
                    "number" : "0x01",
                    "parentHash" : "0x0db3d97d2a8274f3f06cf0cbaecd7432acacc831aa2ad2978e871f3a8b911bf8",
                    "receiptTrie" : "0xa5f4ca9176bea8e95a6206d66f2b3c6585ddb2188422cc07acb92b4464b440c6",
                    "stateRoot" : "0xacc1d60ac62bb9bff66fc9696c73207658359b8927a00fc93d2ec20e258561eb",
                    "timestamp" : "0x03e8",
                    "transactionsTrie" : "0x84e5036f9cf532e8fbf3c0ac0355c029f4837793e32be7bf51262adb82d6fcaa",
                    "uncleHash" : "0x1dcc4de8dec75d7aab85b567b6ccd41ad312451b948a7413f0a142fd40d49347"
                },
                "rlp" : "0xf9026cf901ffa00db3d97d2a8274f3f06cf0cbaecd7432acacc831aa2ad2978e871f3a8b911bf8a01dcc4de8dec75d7aab85b567b6ccd41ad312451b948a7413f0a142fd40d49347942adc25665018aa1fe0e6bc666dac8fc2697ff9baa0acc1d60ac62bb9bff66fc9696c73207658359b8927a00fc93d2ec20e258561eba084e5036f9cf532e8fbf3c0ac0355c029f4837793e32be7bf51262adb82d6fcaaa0a5f4ca9176bea8e95a6206d66f2b3c6585ddb2188422cc07acb92b4464b440c6b90100000000000000000000000000000000000000000000000000000000000000000000000000000000000000000000000000000000000000000000000000000000000000000000000000000000000000000000000000000000000000000000000000000000000000000000000000000000000000000000000000000000000000000000000000000000000000000000000000000000000000000000000000000000000000000000000000000000000000000000000000000000000000000000000000000000000000000000000000000000000000000000000000000000000000000000000000000000000000000000000000000000000000000000000000000000008302000001887fffffffffffffff85d85ef614758203e880a0048e782cc97d85dc0b0df4e010c001e92fcd238836a9a949997cbc39631f0cfc88bf91194717303e20f867f8658001887ffffffffffffff094a00000000000000000000000000000000000000080801ca031bd4c1d75c2daa04386e8431dc78f8e93a10c07927898061e4f188dcea8e708a008afbb59317063ad40204147fb0e6d640f2a055b58fffc1d85ec248265a7bb54c0",
                "transactions" : [
                    {
                        "data" : "",
                        "gasLimit" : "0x7ffffffffffffff0",
                        "gasPrice" : "0x01",
                        "nonce" : "0x00",
                        "r" : "0x31bd4c1d75c2daa04386e8431dc78f8e93a10c07927898061e4f188dcea8e708",
                        "s" : "0x08afbb59317063ad40204147fb0e6d640f2a055b58fffc1d85ec248265a7bb54",
                        "to" : "0xa000000000000000000000000000000000000000",
                        "v" : "0x1c",
                        "value" : "0x00"
                    }
                ],
                "uncleHeaders" : [
                ]
            }
        ],
        "genesisBlockHeader" : {
            "bloom" : "0x00000000000000000000000000000000000000000000000000000000000000000000000000000000000000000000000000000000000000000000000000000000000000000000000000000000000000000000000000000000000000000000000000000000000000000000000000000000000000000000000000000000000000000000000000000000000000000000000000000000000000000000000000000000000000000000000000000000000000000000000000000000000000000000000000000000000000000000000000000000000000000000000000000000000000000000000000000000000000000000000000000000000000000000000000000000",
            "coinbase" : "0x2adc25665018aa1fe0e6bc666dac8fc2697ff9ba",
            "difficulty" : "0x020000",
            "extraData" : "0x42",
            "gasLimit" : "0x7fffffffffffffff",
            "gasUsed" : "0x00",
            "hash" : "0x0db3d97d2a8274f3f06cf0cbaecd7432acacc831aa2ad2978e871f3a8b911bf8",
            "mixHash" : "0x56e81f171bcc55a6ff8345e692c0f86e5b48e01b996cadc001622fb5e363b421",
            "nonce" : "0x0102030405060708",
            "number" : "0x00",
            "parentHash" : "0x0000000000000000000000000000000000000000000000000000000000000000",
            "receiptTrie" : "0x56e81f171bcc55a6ff8345e692c0f86e5b48e01b996cadc001622fb5e363b421",
            "stateRoot" : "0x157313b0631e7662224a1ce87ece91bd5ee33124d2ecb116fb8d5d79460bd7a4",
            "timestamp" : "0x03b6",
            "transactionsTrie" : "0x56e81f171bcc55a6ff8345e692c0f86e5b48e01b996cadc001622fb5e363b421",
            "uncleHash" : "0x1dcc4de8dec75d7aab85b567b6ccd41ad312451b948a7413f0a142fd40d49347"
        },
        "genesisRLP" : "0xf901fff901faa00000000000000000000000000000000000000000000000000000000000000000a01dcc4de8dec75d7aab85b567b6ccd41ad312451b948a7413f0a142fd40d49347942adc25665018aa1fe0e6bc666dac8fc2697ff9baa0157313b0631e7662224a1ce87ece91bd5ee33124d2ecb116fb8d5d79460bd7a4a056e81f171bcc55a6ff8345e692c0f86e5b48e01b996cadc001622fb5e363b421a056e81f171bcc55a6ff8345e692c0f86e5b48e01b996cadc001622fb5e363b421b90100000000000000000000000000000000000000000000000000000000000000000000000000000000000000000000000000000000000000000000000000000000000000000000000000000000000000000000000000000000000000000000000000000000000000000000000000000000000000000000000000000000000000000000000000000000000000000000000000000000000000000000000000000000000000000000000000000000000000000000000000000000000000000000000000000000000000000000000000000000000000000000000000000000000000000000000000000000000000000000000000000000000000000000000000000000008302000080887fffffffffffffff808203b642a056e81f171bcc55a6ff8345e692c0f86e5b48e01b996cadc001622fb5e363b421880102030405060708c0c0",
        "lastblockhash" : "0x4808d2e2f82ec82aa0bcdd59e2e02604824749876d2490e20ae797e4d220a7a6",
        "network" : "Byzantium",
        "postState" : {
            "0x2adc25665018aa1fe0e6bc666dac8fc2697ff9ba" : {
                "balance" : "0x29a224f355221475",
                "code" : "",
                "nonce" : "0x00",
                "storage" : {
                }
            },
            "0xa000000000000000000000000000000000000000" : {
                "balance" : "0x0a",
                "code" : "0x6103ff60003514603d57600160003501600052600060006020600073a0000000000000000000000000000000000000005afa5061041a600051106051575b66600060006002f0600052600760196003f0505b",
                "nonce" : "0x00",
                "storage" : {
                }
            },
            "0xa94f5374fce5edbc8e2a8697c15331677e6ebf0b" : {
                "balance" : "0x13426172c74d822b878f0fa109eb8b",
                "code" : "",
                "nonce" : "0x01",
                "storage" : {
                }
            }
        },
        "pre" : {
            "0xa000000000000000000000000000000000000000" : {
                "balance" : "0x0a",
                "code" : "0x6103ff60003514603d57600160003501600052600060006020600073a0000000000000000000000000000000000000005afa5061041a600051106051575b66600060006002f0600052600760196003f0505b",
                "nonce" : "0x00",
                "storage" : {
                }
            },
            "0xa94f5374fce5edbc8e2a8697c15331677e6ebf0b" : {
                "balance" : "0x13426172c74d822b878fe800000000",
                "code" : "",
                "nonce" : "0x00",
                "storage" : {
                }
            }
        }
    },
    "static_LoopCallsDepthThenRevert2_d0g0v0_EIP150" : {
        "_info" : {
            "comment" : "",
            "filledwith" : "cpp-1.3.0+commit.6e0ce939.Linux.g++",
            "lllcversion" : "Version: 0.4.18-develop.2017.9.25+commit.a72237f2.Linux.g++",
            "source" : "src/BlockchainTestsFiller/GeneralStateTests/stStaticCall/static_LoopCallsDepthThenRevert2_d0g0v0Filler.json",
            "sourceHash" : "11d96a43bb35fe991df5cb00eb9af37db7af0f127d65469b831568ed195b4fc1"
        },
        "blocks" : [
            {
                "blockHeader" : {
                    "bloom" : "0x00000000000000000000000000000000000000000000000000000000000000000000000000000000000000000000000000000000000000000000000000000000000000000000000000000000000000000000000000000000000000000000000000000000000000000000000000000000000000000000000000000000000000000000000000000000000000000000000000000000000000000000000000000000000000000000000000000000000000000000000000000000000000000000000000000000000000000000000000000000000000000000000000000000000000000000000000000000000000000000000000000000000000000000000000000000",
                    "coinbase" : "0x2adc25665018aa1fe0e6bc666dac8fc2697ff9ba",
                    "difficulty" : "0x020000",
                    "extraData" : "",
                    "gasLimit" : "0x7fffffffffffffff",
                    "gasUsed" : "0x7ffffffffffffff0",
                    "hash" : "0x6469d88681d44c119e734d57e57a0976c4a4f46c1f65d3617685f7046d12b11c",
                    "mixHash" : "0x7904ed14fcee055e8f70d66671ddf3ede7faff077e2d90ff6bbeafe58ef8813c",
                    "nonce" : "0x91a5658eadf2237a",
                    "number" : "0x01",
                    "parentHash" : "0x0db3d97d2a8274f3f06cf0cbaecd7432acacc831aa2ad2978e871f3a8b911bf8",
                    "receiptTrie" : "0x0f3e7b2230228525244088e6a08708e1db0e383920316416d83cbac6e6eb8fdf",
                    "stateRoot" : "0xfebf5cf0b0ef8e89c241d5225d94da186e130ececec4fdca9d815537cbdd055a",
                    "timestamp" : "0x03e8",
                    "transactionsTrie" : "0x84e5036f9cf532e8fbf3c0ac0355c029f4837793e32be7bf51262adb82d6fcaa",
                    "uncleHash" : "0x1dcc4de8dec75d7aab85b567b6ccd41ad312451b948a7413f0a142fd40d49347"
                },
                "rlp" : "0xf9026ff90202a00db3d97d2a8274f3f06cf0cbaecd7432acacc831aa2ad2978e871f3a8b911bf8a01dcc4de8dec75d7aab85b567b6ccd41ad312451b948a7413f0a142fd40d49347942adc25665018aa1fe0e6bc666dac8fc2697ff9baa0febf5cf0b0ef8e89c241d5225d94da186e130ececec4fdca9d815537cbdd055aa084e5036f9cf532e8fbf3c0ac0355c029f4837793e32be7bf51262adb82d6fcaaa00f3e7b2230228525244088e6a08708e1db0e383920316416d83cbac6e6eb8fdfb90100000000000000000000000000000000000000000000000000000000000000000000000000000000000000000000000000000000000000000000000000000000000000000000000000000000000000000000000000000000000000000000000000000000000000000000000000000000000000000000000000000000000000000000000000000000000000000000000000000000000000000000000000000000000000000000000000000000000000000000000000000000000000000000000000000000000000000000000000000000000000000000000000000000000000000000000000000000000000000000000000000000000000000000000000000000008302000001887fffffffffffffff887ffffffffffffff08203e880a07904ed14fcee055e8f70d66671ddf3ede7faff077e2d90ff6bbeafe58ef8813c8891a5658eadf2237af867f8658001887ffffffffffffff094a00000000000000000000000000000000000000080801ca031bd4c1d75c2daa04386e8431dc78f8e93a10c07927898061e4f188dcea8e708a008afbb59317063ad40204147fb0e6d640f2a055b58fffc1d85ec248265a7bb54c0",
                "transactions" : [
                    {
                        "data" : "",
                        "gasLimit" : "0x7ffffffffffffff0",
                        "gasPrice" : "0x01",
                        "nonce" : "0x00",
                        "r" : "0x31bd4c1d75c2daa04386e8431dc78f8e93a10c07927898061e4f188dcea8e708",
                        "s" : "0x08afbb59317063ad40204147fb0e6d640f2a055b58fffc1d85ec248265a7bb54",
                        "to" : "0xa000000000000000000000000000000000000000",
                        "v" : "0x1c",
                        "value" : "0x00"
                    }
                ],
                "uncleHeaders" : [
                ]
            }
        ],
        "genesisBlockHeader" : {
            "bloom" : "0x00000000000000000000000000000000000000000000000000000000000000000000000000000000000000000000000000000000000000000000000000000000000000000000000000000000000000000000000000000000000000000000000000000000000000000000000000000000000000000000000000000000000000000000000000000000000000000000000000000000000000000000000000000000000000000000000000000000000000000000000000000000000000000000000000000000000000000000000000000000000000000000000000000000000000000000000000000000000000000000000000000000000000000000000000000000",
            "coinbase" : "0x2adc25665018aa1fe0e6bc666dac8fc2697ff9ba",
            "difficulty" : "0x020000",
            "extraData" : "0x42",
            "gasLimit" : "0x7fffffffffffffff",
            "gasUsed" : "0x00",
            "hash" : "0x0db3d97d2a8274f3f06cf0cbaecd7432acacc831aa2ad2978e871f3a8b911bf8",
            "mixHash" : "0x56e81f171bcc55a6ff8345e692c0f86e5b48e01b996cadc001622fb5e363b421",
            "nonce" : "0x0102030405060708",
            "number" : "0x00",
            "parentHash" : "0x0000000000000000000000000000000000000000000000000000000000000000",
            "receiptTrie" : "0x56e81f171bcc55a6ff8345e692c0f86e5b48e01b996cadc001622fb5e363b421",
            "stateRoot" : "0x157313b0631e7662224a1ce87ece91bd5ee33124d2ecb116fb8d5d79460bd7a4",
            "timestamp" : "0x03b6",
            "transactionsTrie" : "0x56e81f171bcc55a6ff8345e692c0f86e5b48e01b996cadc001622fb5e363b421",
            "uncleHash" : "0x1dcc4de8dec75d7aab85b567b6ccd41ad312451b948a7413f0a142fd40d49347"
        },
        "genesisRLP" : "0xf901fff901faa00000000000000000000000000000000000000000000000000000000000000000a01dcc4de8dec75d7aab85b567b6ccd41ad312451b948a7413f0a142fd40d49347942adc25665018aa1fe0e6bc666dac8fc2697ff9baa0157313b0631e7662224a1ce87ece91bd5ee33124d2ecb116fb8d5d79460bd7a4a056e81f171bcc55a6ff8345e692c0f86e5b48e01b996cadc001622fb5e363b421a056e81f171bcc55a6ff8345e692c0f86e5b48e01b996cadc001622fb5e363b421b90100000000000000000000000000000000000000000000000000000000000000000000000000000000000000000000000000000000000000000000000000000000000000000000000000000000000000000000000000000000000000000000000000000000000000000000000000000000000000000000000000000000000000000000000000000000000000000000000000000000000000000000000000000000000000000000000000000000000000000000000000000000000000000000000000000000000000000000000000000000000000000000000000000000000000000000000000000000000000000000000000000000000000000000000000000000008302000080887fffffffffffffff808203b642a056e81f171bcc55a6ff8345e692c0f86e5b48e01b996cadc001622fb5e363b421880102030405060708c0c0",
        "lastblockhash" : "0x6469d88681d44c119e734d57e57a0976c4a4f46c1f65d3617685f7046d12b11c",
        "network" : "EIP150",
        "postState" : {
            "0x2adc25665018aa1fe0e6bc666dac8fc2697ff9ba" : {
                "balance" : "0xc563918244f3fff0",
                "code" : "",
                "nonce" : "0x00",
                "storage" : {
                }
            },
            "0xa000000000000000000000000000000000000000" : {
                "balance" : "0x0a",
                "code" : "0x6103ff60003514603d57600160003501600052600060006020600073a0000000000000000000000000000000000000005afa5061041a600051106051575b66600060006002f0600052600760196003f0505b",
                "nonce" : "0x00",
                "storage" : {
                }
            },
            "0xa94f5374fce5edbc8e2a8697c15331677e6ebf0b" : {
                "balance" : "0x13426172c74d81ab878fe800000010",
                "code" : "",
                "nonce" : "0x01",
                "storage" : {
                }
            }
        },
        "pre" : {
            "0xa000000000000000000000000000000000000000" : {
                "balance" : "0x0a",
                "code" : "0x6103ff60003514603d57600160003501600052600060006020600073a0000000000000000000000000000000000000005afa5061041a600051106051575b66600060006002f0600052600760196003f0505b",
                "nonce" : "0x00",
                "storage" : {
                }
            },
            "0xa94f5374fce5edbc8e2a8697c15331677e6ebf0b" : {
                "balance" : "0x13426172c74d822b878fe800000000",
                "code" : "",
                "nonce" : "0x00",
                "storage" : {
                }
            }
        }
    },
    "static_LoopCallsDepthThenRevert2_d0g0v0_EIP158" : {
        "_info" : {
            "comment" : "",
            "filledwith" : "cpp-1.3.0+commit.6e0ce939.Linux.g++",
            "lllcversion" : "Version: 0.4.18-develop.2017.9.25+commit.a72237f2.Linux.g++",
            "source" : "src/BlockchainTestsFiller/GeneralStateTests/stStaticCall/static_LoopCallsDepthThenRevert2_d0g0v0Filler.json",
            "sourceHash" : "11d96a43bb35fe991df5cb00eb9af37db7af0f127d65469b831568ed195b4fc1"
        },
        "blocks" : [
            {
                "blockHeader" : {
                    "bloom" : "0x00000000000000000000000000000000000000000000000000000000000000000000000000000000000000000000000000000000000000000000000000000000000000000000000000000000000000000000000000000000000000000000000000000000000000000000000000000000000000000000000000000000000000000000000000000000000000000000000000000000000000000000000000000000000000000000000000000000000000000000000000000000000000000000000000000000000000000000000000000000000000000000000000000000000000000000000000000000000000000000000000000000000000000000000000000000",
                    "coinbase" : "0x2adc25665018aa1fe0e6bc666dac8fc2697ff9ba",
                    "difficulty" : "0x020000",
                    "extraData" : "",
                    "gasLimit" : "0x7fffffffffffffff",
                    "gasUsed" : "0x7ffffffffffffff0",
                    "hash" : "0x176ed7274855a9f5d32063c1b336d863204dea74d7941fc308792cf67702679a",
                    "mixHash" : "0x3f7d74d4d15ea3e360a9aaaab487bdbb05db2caab11fdcaa1fda7d761c1e6c1f",
                    "nonce" : "0x79177a98a72a6c53",
                    "number" : "0x01",
                    "parentHash" : "0x0db3d97d2a8274f3f06cf0cbaecd7432acacc831aa2ad2978e871f3a8b911bf8",
                    "receiptTrie" : "0x0f3e7b2230228525244088e6a08708e1db0e383920316416d83cbac6e6eb8fdf",
                    "stateRoot" : "0xfebf5cf0b0ef8e89c241d5225d94da186e130ececec4fdca9d815537cbdd055a",
                    "timestamp" : "0x03e8",
                    "transactionsTrie" : "0x84e5036f9cf532e8fbf3c0ac0355c029f4837793e32be7bf51262adb82d6fcaa",
                    "uncleHash" : "0x1dcc4de8dec75d7aab85b567b6ccd41ad312451b948a7413f0a142fd40d49347"
                },
                "rlp" : "0xf9026ff90202a00db3d97d2a8274f3f06cf0cbaecd7432acacc831aa2ad2978e871f3a8b911bf8a01dcc4de8dec75d7aab85b567b6ccd41ad312451b948a7413f0a142fd40d49347942adc25665018aa1fe0e6bc666dac8fc2697ff9baa0febf5cf0b0ef8e89c241d5225d94da186e130ececec4fdca9d815537cbdd055aa084e5036f9cf532e8fbf3c0ac0355c029f4837793e32be7bf51262adb82d6fcaaa00f3e7b2230228525244088e6a08708e1db0e383920316416d83cbac6e6eb8fdfb90100000000000000000000000000000000000000000000000000000000000000000000000000000000000000000000000000000000000000000000000000000000000000000000000000000000000000000000000000000000000000000000000000000000000000000000000000000000000000000000000000000000000000000000000000000000000000000000000000000000000000000000000000000000000000000000000000000000000000000000000000000000000000000000000000000000000000000000000000000000000000000000000000000000000000000000000000000000000000000000000000000000000000000000000000000000008302000001887fffffffffffffff887ffffffffffffff08203e880a03f7d74d4d15ea3e360a9aaaab487bdbb05db2caab11fdcaa1fda7d761c1e6c1f8879177a98a72a6c53f867f8658001887ffffffffffffff094a00000000000000000000000000000000000000080801ca031bd4c1d75c2daa04386e8431dc78f8e93a10c07927898061e4f188dcea8e708a008afbb59317063ad40204147fb0e6d640f2a055b58fffc1d85ec248265a7bb54c0",
                "transactions" : [
                    {
                        "data" : "",
                        "gasLimit" : "0x7ffffffffffffff0",
                        "gasPrice" : "0x01",
                        "nonce" : "0x00",
                        "r" : "0x31bd4c1d75c2daa04386e8431dc78f8e93a10c07927898061e4f188dcea8e708",
                        "s" : "0x08afbb59317063ad40204147fb0e6d640f2a055b58fffc1d85ec248265a7bb54",
                        "to" : "0xa000000000000000000000000000000000000000",
                        "v" : "0x1c",
                        "value" : "0x00"
                    }
                ],
                "uncleHeaders" : [
                ]
            }
        ],
        "genesisBlockHeader" : {
            "bloom" : "0x00000000000000000000000000000000000000000000000000000000000000000000000000000000000000000000000000000000000000000000000000000000000000000000000000000000000000000000000000000000000000000000000000000000000000000000000000000000000000000000000000000000000000000000000000000000000000000000000000000000000000000000000000000000000000000000000000000000000000000000000000000000000000000000000000000000000000000000000000000000000000000000000000000000000000000000000000000000000000000000000000000000000000000000000000000000",
            "coinbase" : "0x2adc25665018aa1fe0e6bc666dac8fc2697ff9ba",
            "difficulty" : "0x020000",
            "extraData" : "0x42",
            "gasLimit" : "0x7fffffffffffffff",
            "gasUsed" : "0x00",
            "hash" : "0x0db3d97d2a8274f3f06cf0cbaecd7432acacc831aa2ad2978e871f3a8b911bf8",
            "mixHash" : "0x56e81f171bcc55a6ff8345e692c0f86e5b48e01b996cadc001622fb5e363b421",
            "nonce" : "0x0102030405060708",
            "number" : "0x00",
            "parentHash" : "0x0000000000000000000000000000000000000000000000000000000000000000",
            "receiptTrie" : "0x56e81f171bcc55a6ff8345e692c0f86e5b48e01b996cadc001622fb5e363b421",
            "stateRoot" : "0x157313b0631e7662224a1ce87ece91bd5ee33124d2ecb116fb8d5d79460bd7a4",
            "timestamp" : "0x03b6",
            "transactionsTrie" : "0x56e81f171bcc55a6ff8345e692c0f86e5b48e01b996cadc001622fb5e363b421",
            "uncleHash" : "0x1dcc4de8dec75d7aab85b567b6ccd41ad312451b948a7413f0a142fd40d49347"
        },
        "genesisRLP" : "0xf901fff901faa00000000000000000000000000000000000000000000000000000000000000000a01dcc4de8dec75d7aab85b567b6ccd41ad312451b948a7413f0a142fd40d49347942adc25665018aa1fe0e6bc666dac8fc2697ff9baa0157313b0631e7662224a1ce87ece91bd5ee33124d2ecb116fb8d5d79460bd7a4a056e81f171bcc55a6ff8345e692c0f86e5b48e01b996cadc001622fb5e363b421a056e81f171bcc55a6ff8345e692c0f86e5b48e01b996cadc001622fb5e363b421b90100000000000000000000000000000000000000000000000000000000000000000000000000000000000000000000000000000000000000000000000000000000000000000000000000000000000000000000000000000000000000000000000000000000000000000000000000000000000000000000000000000000000000000000000000000000000000000000000000000000000000000000000000000000000000000000000000000000000000000000000000000000000000000000000000000000000000000000000000000000000000000000000000000000000000000000000000000000000000000000000000000000000000000000000000000000008302000080887fffffffffffffff808203b642a056e81f171bcc55a6ff8345e692c0f86e5b48e01b996cadc001622fb5e363b421880102030405060708c0c0",
        "lastblockhash" : "0x176ed7274855a9f5d32063c1b336d863204dea74d7941fc308792cf67702679a",
        "network" : "EIP158",
        "postState" : {
            "0x2adc25665018aa1fe0e6bc666dac8fc2697ff9ba" : {
                "balance" : "0xc563918244f3fff0",
                "code" : "",
                "nonce" : "0x00",
                "storage" : {
                }
            },
            "0xa000000000000000000000000000000000000000" : {
                "balance" : "0x0a",
                "code" : "0x6103ff60003514603d57600160003501600052600060006020600073a0000000000000000000000000000000000000005afa5061041a600051106051575b66600060006002f0600052600760196003f0505b",
                "nonce" : "0x00",
                "storage" : {
                }
            },
            "0xa94f5374fce5edbc8e2a8697c15331677e6ebf0b" : {
                "balance" : "0x13426172c74d81ab878fe800000010",
                "code" : "",
                "nonce" : "0x01",
                "storage" : {
                }
            }
        },
        "pre" : {
            "0xa000000000000000000000000000000000000000" : {
                "balance" : "0x0a",
                "code" : "0x6103ff60003514603d57600160003501600052600060006020600073a0000000000000000000000000000000000000005afa5061041a600051106051575b66600060006002f0600052600760196003f0505b",
                "nonce" : "0x00",
                "storage" : {
                }
            },
            "0xa94f5374fce5edbc8e2a8697c15331677e6ebf0b" : {
                "balance" : "0x13426172c74d822b878fe800000000",
                "code" : "",
                "nonce" : "0x00",
                "storage" : {
                }
            }
        }
    },
    "static_LoopCallsDepthThenRevert2_d0g0v0_Frontier" : {
        "_info" : {
            "comment" : "",
            "filledwith" : "cpp-1.3.0+commit.6e0ce939.Linux.g++",
            "lllcversion" : "Version: 0.4.18-develop.2017.9.25+commit.a72237f2.Linux.g++",
            "source" : "src/BlockchainTestsFiller/GeneralStateTests/stStaticCall/static_LoopCallsDepthThenRevert2_d0g0v0Filler.json",
            "sourceHash" : "11d96a43bb35fe991df5cb00eb9af37db7af0f127d65469b831568ed195b4fc1"
        },
        "blocks" : [
            {
                "blockHeader" : {
                    "bloom" : "0x00000000000000000000000000000000000000000000000000000000000000000000000000000000000000000000000000000000000000000000000000000000000000000000000000000000000000000000000000000000000000000000000000000000000000000000000000000000000000000000000000000000000000000000000000000000000000000000000000000000000000000000000000000000000000000000000000000000000000000000000000000000000000000000000000000000000000000000000000000000000000000000000000000000000000000000000000000000000000000000000000000000000000000000000000000000",
                    "coinbase" : "0x2adc25665018aa1fe0e6bc666dac8fc2697ff9ba",
                    "difficulty" : "0x020000",
                    "extraData" : "",
                    "gasLimit" : "0x7fffffffffffffff",
                    "gasUsed" : "0x7ffffffffffffff0",
                    "hash" : "0x263e7aeceab9f8523ced10b1fb461f162c0b0ba13afce10c14b07e1f3d5c324d",
                    "mixHash" : "0x514850f29694394c2f0e26476275bd77947ec78809e96836ae398837f629f331",
                    "nonce" : "0x73447be12e2728f5",
                    "number" : "0x01",
                    "parentHash" : "0x0db3d97d2a8274f3f06cf0cbaecd7432acacc831aa2ad2978e871f3a8b911bf8",
                    "receiptTrie" : "0x0f3e7b2230228525244088e6a08708e1db0e383920316416d83cbac6e6eb8fdf",
                    "stateRoot" : "0xfebf5cf0b0ef8e89c241d5225d94da186e130ececec4fdca9d815537cbdd055a",
                    "timestamp" : "0x03e8",
                    "transactionsTrie" : "0x84e5036f9cf532e8fbf3c0ac0355c029f4837793e32be7bf51262adb82d6fcaa",
                    "uncleHash" : "0x1dcc4de8dec75d7aab85b567b6ccd41ad312451b948a7413f0a142fd40d49347"
                },
                "rlp" : "0xf9026ff90202a00db3d97d2a8274f3f06cf0cbaecd7432acacc831aa2ad2978e871f3a8b911bf8a01dcc4de8dec75d7aab85b567b6ccd41ad312451b948a7413f0a142fd40d49347942adc25665018aa1fe0e6bc666dac8fc2697ff9baa0febf5cf0b0ef8e89c241d5225d94da186e130ececec4fdca9d815537cbdd055aa084e5036f9cf532e8fbf3c0ac0355c029f4837793e32be7bf51262adb82d6fcaaa00f3e7b2230228525244088e6a08708e1db0e383920316416d83cbac6e6eb8fdfb90100000000000000000000000000000000000000000000000000000000000000000000000000000000000000000000000000000000000000000000000000000000000000000000000000000000000000000000000000000000000000000000000000000000000000000000000000000000000000000000000000000000000000000000000000000000000000000000000000000000000000000000000000000000000000000000000000000000000000000000000000000000000000000000000000000000000000000000000000000000000000000000000000000000000000000000000000000000000000000000000000000000000000000000000000000000008302000001887fffffffffffffff887ffffffffffffff08203e880a0514850f29694394c2f0e26476275bd77947ec78809e96836ae398837f629f3318873447be12e2728f5f867f8658001887ffffffffffffff094a00000000000000000000000000000000000000080801ca031bd4c1d75c2daa04386e8431dc78f8e93a10c07927898061e4f188dcea8e708a008afbb59317063ad40204147fb0e6d640f2a055b58fffc1d85ec248265a7bb54c0",
                "transactions" : [
                    {
                        "data" : "",
                        "gasLimit" : "0x7ffffffffffffff0",
                        "gasPrice" : "0x01",
                        "nonce" : "0x00",
                        "r" : "0x31bd4c1d75c2daa04386e8431dc78f8e93a10c07927898061e4f188dcea8e708",
                        "s" : "0x08afbb59317063ad40204147fb0e6d640f2a055b58fffc1d85ec248265a7bb54",
                        "to" : "0xa000000000000000000000000000000000000000",
                        "v" : "0x1c",
                        "value" : "0x00"
                    }
                ],
                "uncleHeaders" : [
                ]
            }
        ],
        "genesisBlockHeader" : {
            "bloom" : "0x00000000000000000000000000000000000000000000000000000000000000000000000000000000000000000000000000000000000000000000000000000000000000000000000000000000000000000000000000000000000000000000000000000000000000000000000000000000000000000000000000000000000000000000000000000000000000000000000000000000000000000000000000000000000000000000000000000000000000000000000000000000000000000000000000000000000000000000000000000000000000000000000000000000000000000000000000000000000000000000000000000000000000000000000000000000",
            "coinbase" : "0x2adc25665018aa1fe0e6bc666dac8fc2697ff9ba",
            "difficulty" : "0x020000",
            "extraData" : "0x42",
            "gasLimit" : "0x7fffffffffffffff",
            "gasUsed" : "0x00",
            "hash" : "0x0db3d97d2a8274f3f06cf0cbaecd7432acacc831aa2ad2978e871f3a8b911bf8",
            "mixHash" : "0x56e81f171bcc55a6ff8345e692c0f86e5b48e01b996cadc001622fb5e363b421",
            "nonce" : "0x0102030405060708",
            "number" : "0x00",
            "parentHash" : "0x0000000000000000000000000000000000000000000000000000000000000000",
            "receiptTrie" : "0x56e81f171bcc55a6ff8345e692c0f86e5b48e01b996cadc001622fb5e363b421",
            "stateRoot" : "0x157313b0631e7662224a1ce87ece91bd5ee33124d2ecb116fb8d5d79460bd7a4",
            "timestamp" : "0x03b6",
            "transactionsTrie" : "0x56e81f171bcc55a6ff8345e692c0f86e5b48e01b996cadc001622fb5e363b421",
            "uncleHash" : "0x1dcc4de8dec75d7aab85b567b6ccd41ad312451b948a7413f0a142fd40d49347"
        },
        "genesisRLP" : "0xf901fff901faa00000000000000000000000000000000000000000000000000000000000000000a01dcc4de8dec75d7aab85b567b6ccd41ad312451b948a7413f0a142fd40d49347942adc25665018aa1fe0e6bc666dac8fc2697ff9baa0157313b0631e7662224a1ce87ece91bd5ee33124d2ecb116fb8d5d79460bd7a4a056e81f171bcc55a6ff8345e692c0f86e5b48e01b996cadc001622fb5e363b421a056e81f171bcc55a6ff8345e692c0f86e5b48e01b996cadc001622fb5e363b421b90100000000000000000000000000000000000000000000000000000000000000000000000000000000000000000000000000000000000000000000000000000000000000000000000000000000000000000000000000000000000000000000000000000000000000000000000000000000000000000000000000000000000000000000000000000000000000000000000000000000000000000000000000000000000000000000000000000000000000000000000000000000000000000000000000000000000000000000000000000000000000000000000000000000000000000000000000000000000000000000000000000000000000000000000000000000008302000080887fffffffffffffff808203b642a056e81f171bcc55a6ff8345e692c0f86e5b48e01b996cadc001622fb5e363b421880102030405060708c0c0",
        "lastblockhash" : "0x263e7aeceab9f8523ced10b1fb461f162c0b0ba13afce10c14b07e1f3d5c324d",
        "network" : "Frontier",
        "postState" : {
            "0x2adc25665018aa1fe0e6bc666dac8fc2697ff9ba" : {
                "balance" : "0xc563918244f3fff0",
                "code" : "",
                "nonce" : "0x00",
                "storage" : {
                }
            },
            "0xa000000000000000000000000000000000000000" : {
                "balance" : "0x0a",
                "code" : "0x6103ff60003514603d57600160003501600052600060006020600073a0000000000000000000000000000000000000005afa5061041a600051106051575b66600060006002f0600052600760196003f0505b",
                "nonce" : "0x00",
                "storage" : {
                }
            },
            "0xa94f5374fce5edbc8e2a8697c15331677e6ebf0b" : {
                "balance" : "0x13426172c74d81ab878fe800000010",
                "code" : "",
                "nonce" : "0x01",
                "storage" : {
                }
            }
        },
        "pre" : {
            "0xa000000000000000000000000000000000000000" : {
                "balance" : "0x0a",
                "code" : "0x6103ff60003514603d57600160003501600052600060006020600073a0000000000000000000000000000000000000005afa5061041a600051106051575b66600060006002f0600052600760196003f0505b",
                "nonce" : "0x00",
                "storage" : {
                }
            },
            "0xa94f5374fce5edbc8e2a8697c15331677e6ebf0b" : {
                "balance" : "0x13426172c74d822b878fe800000000",
                "code" : "",
                "nonce" : "0x00",
                "storage" : {
                }
            }
        }
    },
    "static_LoopCallsDepthThenRevert2_d0g0v0_Homestead" : {
        "_info" : {
            "comment" : "",
            "filledwith" : "cpp-1.3.0+commit.6e0ce939.Linux.g++",
            "lllcversion" : "Version: 0.4.18-develop.2017.9.25+commit.a72237f2.Linux.g++",
            "source" : "src/BlockchainTestsFiller/GeneralStateTests/stStaticCall/static_LoopCallsDepthThenRevert2_d0g0v0Filler.json",
            "sourceHash" : "11d96a43bb35fe991df5cb00eb9af37db7af0f127d65469b831568ed195b4fc1"
        },
        "blocks" : [
            {
                "blockHeader" : {
                    "bloom" : "0x00000000000000000000000000000000000000000000000000000000000000000000000000000000000000000000000000000000000000000000000000000000000000000000000000000000000000000000000000000000000000000000000000000000000000000000000000000000000000000000000000000000000000000000000000000000000000000000000000000000000000000000000000000000000000000000000000000000000000000000000000000000000000000000000000000000000000000000000000000000000000000000000000000000000000000000000000000000000000000000000000000000000000000000000000000000",
                    "coinbase" : "0x2adc25665018aa1fe0e6bc666dac8fc2697ff9ba",
                    "difficulty" : "0x020000",
                    "extraData" : "",
                    "gasLimit" : "0x7fffffffffffffff",
                    "gasUsed" : "0x7ffffffffffffff0",
                    "hash" : "0xd3419da5d5df90eb52d168ac218fa0e8d29f4b4ead1536bd950685eb33259ad7",
                    "mixHash" : "0x4e6b04775258ec6cfc9f496a93a4ce2dc388e030dbeacef1f478513839d98627",
                    "nonce" : "0xfe8bba92d99864cd",
                    "number" : "0x01",
                    "parentHash" : "0x0db3d97d2a8274f3f06cf0cbaecd7432acacc831aa2ad2978e871f3a8b911bf8",
                    "receiptTrie" : "0x0f3e7b2230228525244088e6a08708e1db0e383920316416d83cbac6e6eb8fdf",
                    "stateRoot" : "0xfebf5cf0b0ef8e89c241d5225d94da186e130ececec4fdca9d815537cbdd055a",
                    "timestamp" : "0x03e8",
                    "transactionsTrie" : "0x84e5036f9cf532e8fbf3c0ac0355c029f4837793e32be7bf51262adb82d6fcaa",
                    "uncleHash" : "0x1dcc4de8dec75d7aab85b567b6ccd41ad312451b948a7413f0a142fd40d49347"
                },
                "rlp" : "0xf9026ff90202a00db3d97d2a8274f3f06cf0cbaecd7432acacc831aa2ad2978e871f3a8b911bf8a01dcc4de8dec75d7aab85b567b6ccd41ad312451b948a7413f0a142fd40d49347942adc25665018aa1fe0e6bc666dac8fc2697ff9baa0febf5cf0b0ef8e89c241d5225d94da186e130ececec4fdca9d815537cbdd055aa084e5036f9cf532e8fbf3c0ac0355c029f4837793e32be7bf51262adb82d6fcaaa00f3e7b2230228525244088e6a08708e1db0e383920316416d83cbac6e6eb8fdfb90100000000000000000000000000000000000000000000000000000000000000000000000000000000000000000000000000000000000000000000000000000000000000000000000000000000000000000000000000000000000000000000000000000000000000000000000000000000000000000000000000000000000000000000000000000000000000000000000000000000000000000000000000000000000000000000000000000000000000000000000000000000000000000000000000000000000000000000000000000000000000000000000000000000000000000000000000000000000000000000000000000000000000000000000000000000008302000001887fffffffffffffff887ffffffffffffff08203e880a04e6b04775258ec6cfc9f496a93a4ce2dc388e030dbeacef1f478513839d9862788fe8bba92d99864cdf867f8658001887ffffffffffffff094a00000000000000000000000000000000000000080801ca031bd4c1d75c2daa04386e8431dc78f8e93a10c07927898061e4f188dcea8e708a008afbb59317063ad40204147fb0e6d640f2a055b58fffc1d85ec248265a7bb54c0",
                "transactions" : [
                    {
                        "data" : "",
                        "gasLimit" : "0x7ffffffffffffff0",
                        "gasPrice" : "0x01",
                        "nonce" : "0x00",
                        "r" : "0x31bd4c1d75c2daa04386e8431dc78f8e93a10c07927898061e4f188dcea8e708",
                        "s" : "0x08afbb59317063ad40204147fb0e6d640f2a055b58fffc1d85ec248265a7bb54",
                        "to" : "0xa000000000000000000000000000000000000000",
                        "v" : "0x1c",
                        "value" : "0x00"
                    }
                ],
                "uncleHeaders" : [
                ]
            }
        ],
        "genesisBlockHeader" : {
            "bloom" : "0x00000000000000000000000000000000000000000000000000000000000000000000000000000000000000000000000000000000000000000000000000000000000000000000000000000000000000000000000000000000000000000000000000000000000000000000000000000000000000000000000000000000000000000000000000000000000000000000000000000000000000000000000000000000000000000000000000000000000000000000000000000000000000000000000000000000000000000000000000000000000000000000000000000000000000000000000000000000000000000000000000000000000000000000000000000000",
            "coinbase" : "0x2adc25665018aa1fe0e6bc666dac8fc2697ff9ba",
            "difficulty" : "0x020000",
            "extraData" : "0x42",
            "gasLimit" : "0x7fffffffffffffff",
            "gasUsed" : "0x00",
            "hash" : "0x0db3d97d2a8274f3f06cf0cbaecd7432acacc831aa2ad2978e871f3a8b911bf8",
            "mixHash" : "0x56e81f171bcc55a6ff8345e692c0f86e5b48e01b996cadc001622fb5e363b421",
            "nonce" : "0x0102030405060708",
            "number" : "0x00",
            "parentHash" : "0x0000000000000000000000000000000000000000000000000000000000000000",
            "receiptTrie" : "0x56e81f171bcc55a6ff8345e692c0f86e5b48e01b996cadc001622fb5e363b421",
            "stateRoot" : "0x157313b0631e7662224a1ce87ece91bd5ee33124d2ecb116fb8d5d79460bd7a4",
            "timestamp" : "0x03b6",
            "transactionsTrie" : "0x56e81f171bcc55a6ff8345e692c0f86e5b48e01b996cadc001622fb5e363b421",
            "uncleHash" : "0x1dcc4de8dec75d7aab85b567b6ccd41ad312451b948a7413f0a142fd40d49347"
        },
        "genesisRLP" : "0xf901fff901faa00000000000000000000000000000000000000000000000000000000000000000a01dcc4de8dec75d7aab85b567b6ccd41ad312451b948a7413f0a142fd40d49347942adc25665018aa1fe0e6bc666dac8fc2697ff9baa0157313b0631e7662224a1ce87ece91bd5ee33124d2ecb116fb8d5d79460bd7a4a056e81f171bcc55a6ff8345e692c0f86e5b48e01b996cadc001622fb5e363b421a056e81f171bcc55a6ff8345e692c0f86e5b48e01b996cadc001622fb5e363b421b90100000000000000000000000000000000000000000000000000000000000000000000000000000000000000000000000000000000000000000000000000000000000000000000000000000000000000000000000000000000000000000000000000000000000000000000000000000000000000000000000000000000000000000000000000000000000000000000000000000000000000000000000000000000000000000000000000000000000000000000000000000000000000000000000000000000000000000000000000000000000000000000000000000000000000000000000000000000000000000000000000000000000000000000000000000000008302000080887fffffffffffffff808203b642a056e81f171bcc55a6ff8345e692c0f86e5b48e01b996cadc001622fb5e363b421880102030405060708c0c0",
        "lastblockhash" : "0xd3419da5d5df90eb52d168ac218fa0e8d29f4b4ead1536bd950685eb33259ad7",
        "network" : "Homestead",
        "postState" : {
            "0x2adc25665018aa1fe0e6bc666dac8fc2697ff9ba" : {
                "balance" : "0xc563918244f3fff0",
                "code" : "",
                "nonce" : "0x00",
                "storage" : {
                }
            },
            "0xa000000000000000000000000000000000000000" : {
                "balance" : "0x0a",
                "code" : "0x6103ff60003514603d57600160003501600052600060006020600073a0000000000000000000000000000000000000005afa5061041a600051106051575b66600060006002f0600052600760196003f0505b",
                "nonce" : "0x00",
                "storage" : {
                }
            },
            "0xa94f5374fce5edbc8e2a8697c15331677e6ebf0b" : {
                "balance" : "0x13426172c74d81ab878fe800000010",
                "code" : "",
                "nonce" : "0x01",
                "storage" : {
                }
            }
        },
        "pre" : {
            "0xa000000000000000000000000000000000000000" : {
                "balance" : "0x0a",
                "code" : "0x6103ff60003514603d57600160003501600052600060006020600073a0000000000000000000000000000000000000005afa5061041a600051106051575b66600060006002f0600052600760196003f0505b",
                "nonce" : "0x00",
                "storage" : {
                }
            },
            "0xa94f5374fce5edbc8e2a8697c15331677e6ebf0b" : {
                "balance" : "0x13426172c74d822b878fe800000000",
                "code" : "",
                "nonce" : "0x00",
                "storage" : {
                }
            }
        }
    }
}