{
    "static_call_OOG_additionalGasCosts2_d0g0v0_Byzantium" : {
        "_info" : {
            "comment" : "",
            "filledwith" : "cpp-1.3.0+commit.6e0ce939.Linux.g++",
            "lllcversion" : "Version: 0.4.18-develop.2017.9.25+commit.a72237f2.Linux.g++",
            "source" : "src/BlockchainTestsFiller/GeneralStateTests/stStaticCall/static_call_OOG_additionalGasCosts2_d0g0v0Filler.json",
            "sourceHash" : "acc218a9952c51d3e2eb78e5673ed8971eb782a586553cb1c88ab56147aa3c6d"
        },
        "blocks" : [
            {
                "blockHeader" : {
                    "bloom" : "0x00000000000000000000000000000000000000000000000000000000000000000000000000000000000000000000000000000000000000000000000000000000000000000000000000000000000000000000000000000000000000000000000000000000000000000000000000000000000000000000000000000000000000000000000000000000000000000000000000000000000000000000000000000000000000000000000000000000000000000000000000000000000000000000000000000000000000000000000000000000000000000000000000000000000000000000000000000000000000000000000000000000000000000000000000000000",
                    "coinbase" : "0x2adc25665018aa1fe0e6bc666dac8fc2697ff9ba",
                    "difficulty" : "0x020000",
                    "extraData" : "",
                    "gasLimit" : "0xb2d05e00",
                    "gasUsed" : "0x7530",
                    "hash" : "0xafdf5979737f2ae60f5fb106ed0dc54d6ecd2c49bfc6dc2584005ae173c69168",
                    "mixHash" : "0xb91cad562df5cd8f9c3284b2e5c78ded40f2245b191d0b7259b2129aee37e3a6",
                    "nonce" : "0x5d48974de89ec3cf",
                    "number" : "0x01",
                    "parentHash" : "0x5a74acb19552d03e18c08e792f66b8fd0f3ce592ebf86e0a6295c43a015b881a",
                    "receiptTrie" : "0x534bc8a8ee133a0149a231d40d07e2c48f12f5efa5a83b4384664950ad49de0b",
                    "stateRoot" : "0xdcc4f9396560faeaa83cc3349eb3a423df82ee2cb9f02756dbd6c452b7b94eb2",
                    "timestamp" : "0x03e8",
                    "transactionsTrie" : "0x2502bb435e833b0f29e4796c5b1d9afaf66fa21ccfa2666d6b2814d6ae43fc01",
                    "uncleHash" : "0x1dcc4de8dec75d7aab85b567b6ccd41ad312451b948a7413f0a142fd40d49347"
                },
                "rlp" : "0xf9025ff901f8a05a74acb19552d03e18c08e792f66b8fd0f3ce592ebf86e0a6295c43a015b881aa01dcc4de8dec75d7aab85b567b6ccd41ad312451b948a7413f0a142fd40d49347942adc25665018aa1fe0e6bc666dac8fc2697ff9baa0dcc4f9396560faeaa83cc3349eb3a423df82ee2cb9f02756dbd6c452b7b94eb2a02502bb435e833b0f29e4796c5b1d9afaf66fa21ccfa2666d6b2814d6ae43fc01a0534bc8a8ee133a0149a231d40d07e2c48f12f5efa5a83b4384664950ad49de0bb9010000000000000000000000000000000000000000000000000000000000000000000000000000000000000000000000000000000000000000000000000000000000000000000000000000000000000000000000000000000000000000000000000000000000000000000000000000000000000000000000000000000000000000000000000000000000000000000000000000000000000000000000000000000000000000000000000000000000000000000000000000000000000000000000000000000000000000000000000000000000000000000000000000000000000000000000000000000000000000000000000000000000000000000000000000000000830200000184b2d05e008275308203e880a0b91cad562df5cd8f9c3284b2e5c78ded40f2245b191d0b7259b2129aee37e3a6885d48974de89ec3cff861f85f800182753094100000000000000000000000000000000000000080801ba06f7662bd87cd5f4859e87e9e35b1f1428809c2b7e5dc96bcb18f1e1ecb3578bfa053a364d78ab6b27e1cd11be8a164e5060798ca450f06ad4c48b4e134d9d8b1dbc0",
                "transactions" : [
                    {
                        "data" : "",
                        "gasLimit" : "0x7530",
                        "gasPrice" : "0x01",
                        "nonce" : "0x00",
                        "r" : "0x6f7662bd87cd5f4859e87e9e35b1f1428809c2b7e5dc96bcb18f1e1ecb3578bf",
                        "s" : "0x53a364d78ab6b27e1cd11be8a164e5060798ca450f06ad4c48b4e134d9d8b1db",
                        "to" : "0x1000000000000000000000000000000000000000",
                        "v" : "0x1b",
                        "value" : "0x00"
                    }
                ],
                "uncleHeaders" : [
                ]
            }
        ],
        "genesisBlockHeader" : {
            "bloom" : "0x00000000000000000000000000000000000000000000000000000000000000000000000000000000000000000000000000000000000000000000000000000000000000000000000000000000000000000000000000000000000000000000000000000000000000000000000000000000000000000000000000000000000000000000000000000000000000000000000000000000000000000000000000000000000000000000000000000000000000000000000000000000000000000000000000000000000000000000000000000000000000000000000000000000000000000000000000000000000000000000000000000000000000000000000000000000",
            "coinbase" : "0x2adc25665018aa1fe0e6bc666dac8fc2697ff9ba",
            "difficulty" : "0x020000",
            "extraData" : "0x42",
            "gasLimit" : "0xb2d05e00",
            "gasUsed" : "0x00",
            "hash" : "0x5a74acb19552d03e18c08e792f66b8fd0f3ce592ebf86e0a6295c43a015b881a",
            "mixHash" : "0x56e81f171bcc55a6ff8345e692c0f86e5b48e01b996cadc001622fb5e363b421",
            "nonce" : "0x0102030405060708",
            "number" : "0x00",
            "parentHash" : "0x0000000000000000000000000000000000000000000000000000000000000000",
            "receiptTrie" : "0x56e81f171bcc55a6ff8345e692c0f86e5b48e01b996cadc001622fb5e363b421",
            "stateRoot" : "0x8db07749f04061e8041aa7907eeed40bc6ed3d3592ced5a531b88dd0043ed51b",
            "timestamp" : "0x03b6",
            "transactionsTrie" : "0x56e81f171bcc55a6ff8345e692c0f86e5b48e01b996cadc001622fb5e363b421",
            "uncleHash" : "0x1dcc4de8dec75d7aab85b567b6ccd41ad312451b948a7413f0a142fd40d49347"
        },
        "genesisRLP" : "0xf901fbf901f6a00000000000000000000000000000000000000000000000000000000000000000a01dcc4de8dec75d7aab85b567b6ccd41ad312451b948a7413f0a142fd40d49347942adc25665018aa1fe0e6bc666dac8fc2697ff9baa08db07749f04061e8041aa7907eeed40bc6ed3d3592ced5a531b88dd0043ed51ba056e81f171bcc55a6ff8345e692c0f86e5b48e01b996cadc001622fb5e363b421a056e81f171bcc55a6ff8345e692c0f86e5b48e01b996cadc001622fb5e363b421b9010000000000000000000000000000000000000000000000000000000000000000000000000000000000000000000000000000000000000000000000000000000000000000000000000000000000000000000000000000000000000000000000000000000000000000000000000000000000000000000000000000000000000000000000000000000000000000000000000000000000000000000000000000000000000000000000000000000000000000000000000000000000000000000000000000000000000000000000000000000000000000000000000000000000000000000000000000000000000000000000000000000000000000000000000000000000830200008084b2d05e00808203b642a056e81f171bcc55a6ff8345e692c0f86e5b48e01b996cadc001622fb5e363b421880102030405060708c0c0",
        "lastblockhash" : "0xafdf5979737f2ae60f5fb106ed0dc54d6ecd2c49bfc6dc2584005ae173c69168",
        "network" : "Byzantium",
        "postState" : {
            "0x1000000000000000000000000000000000000000" : {
                "balance" : "0x0de0b6b3a7640000",
                "code" : "0x6040600060406000731000000000000000000000000000000000000001611770fa6000555a600155",
                "nonce" : "0x00",
                "storage" : {
                }
            },
            "0x1000000000000000000000000000000000000001" : {
                "balance" : "0x00",
                "code" : "",
                "nonce" : "0x00",
                "storage" : {
                }
            },
            "0x2adc25665018aa1fe0e6bc666dac8fc2697ff9ba" : {
                "balance" : "0x29a2241af62c7530",
                "code" : "",
                "nonce" : "0x00",
                "storage" : {
                }
            },
            "0xa94f5374fce5edbc8e2a8697c15331677e6ebf0b" : {
                "balance" : "0x0de0b6b3a7638ad0",
                "code" : "",
                "nonce" : "0x01",
                "storage" : {
                }
            }
        },
        "pre" : {
            "0x1000000000000000000000000000000000000000" : {
                "balance" : "0x0de0b6b3a7640000",
                "code" : "0x6040600060406000731000000000000000000000000000000000000001611770fa6000555a600155",
                "nonce" : "0x00",
                "storage" : {
                }
            },
            "0x1000000000000000000000000000000000000001" : {
                "balance" : "0x00",
                "code" : "",
                "nonce" : "0x00",
                "storage" : {
                }
            },
            "0xa94f5374fce5edbc8e2a8697c15331677e6ebf0b" : {
                "balance" : "0x0de0b6b3a7640000",
                "code" : "",
                "nonce" : "0x00",
                "storage" : {
                }
            }
        }
    },
    "static_call_OOG_additionalGasCosts2_d0g0v0_EIP150" : {
        "_info" : {
            "comment" : "",
            "filledwith" : "cpp-1.3.0+commit.6e0ce939.Linux.g++",
            "lllcversion" : "Version: 0.4.18-develop.2017.9.25+commit.a72237f2.Linux.g++",
            "source" : "src/BlockchainTestsFiller/GeneralStateTests/stStaticCall/static_call_OOG_additionalGasCosts2_d0g0v0Filler.json",
            "sourceHash" : "acc218a9952c51d3e2eb78e5673ed8971eb782a586553cb1c88ab56147aa3c6d"
        },
        "blocks" : [
            {
                "blockHeader" : {
                    "bloom" : "0x00000000000000000000000000000000000000000000000000000000000000000000000000000000000000000000000000000000000000000000000000000000000000000000000000000000000000000000000000000000000000000000000000000000000000000000000000000000000000000000000000000000000000000000000000000000000000000000000000000000000000000000000000000000000000000000000000000000000000000000000000000000000000000000000000000000000000000000000000000000000000000000000000000000000000000000000000000000000000000000000000000000000000000000000000000000",
                    "coinbase" : "0x2adc25665018aa1fe0e6bc666dac8fc2697ff9ba",
                    "difficulty" : "0x020000",
                    "extraData" : "",
                    "gasLimit" : "0xb2d05e00",
                    "gasUsed" : "0x7530",
                    "hash" : "0xb1ed5a814e61965267043f22d66502e08d4f473dad906c2604f36180ae34f0ee",
                    "mixHash" : "0xf283724b8691b99fa7b5d90e90e54b9ba977373877d2f6fd609a32131b72063f",
                    "nonce" : "0x29d81fcf279fd357",
                    "number" : "0x01",
                    "parentHash" : "0x5a74acb19552d03e18c08e792f66b8fd0f3ce592ebf86e0a6295c43a015b881a",
                    "receiptTrie" : "0xaece75da6d10b87d4bafd678e0485089adb6424fd38799acc13a17cf3fedea1c",
                    "stateRoot" : "0x736f1b1f86abad5ce8f9d29adee228f6a965e8bfe68580b328568c48aac8fd5c",
                    "timestamp" : "0x03e8",
                    "transactionsTrie" : "0x2502bb435e833b0f29e4796c5b1d9afaf66fa21ccfa2666d6b2814d6ae43fc01",
                    "uncleHash" : "0x1dcc4de8dec75d7aab85b567b6ccd41ad312451b948a7413f0a142fd40d49347"
                },
                "rlp" : "0xf9025ff901f8a05a74acb19552d03e18c08e792f66b8fd0f3ce592ebf86e0a6295c43a015b881aa01dcc4de8dec75d7aab85b567b6ccd41ad312451b948a7413f0a142fd40d49347942adc25665018aa1fe0e6bc666dac8fc2697ff9baa0736f1b1f86abad5ce8f9d29adee228f6a965e8bfe68580b328568c48aac8fd5ca02502bb435e833b0f29e4796c5b1d9afaf66fa21ccfa2666d6b2814d6ae43fc01a0aece75da6d10b87d4bafd678e0485089adb6424fd38799acc13a17cf3fedea1cb9010000000000000000000000000000000000000000000000000000000000000000000000000000000000000000000000000000000000000000000000000000000000000000000000000000000000000000000000000000000000000000000000000000000000000000000000000000000000000000000000000000000000000000000000000000000000000000000000000000000000000000000000000000000000000000000000000000000000000000000000000000000000000000000000000000000000000000000000000000000000000000000000000000000000000000000000000000000000000000000000000000000000000000000000000000000000830200000184b2d05e008275308203e880a0f283724b8691b99fa7b5d90e90e54b9ba977373877d2f6fd609a32131b72063f8829d81fcf279fd357f861f85f800182753094100000000000000000000000000000000000000080801ba06f7662bd87cd5f4859e87e9e35b1f1428809c2b7e5dc96bcb18f1e1ecb3578bfa053a364d78ab6b27e1cd11be8a164e5060798ca450f06ad4c48b4e134d9d8b1dbc0",
                "transactions" : [
                    {
                        "data" : "",
                        "gasLimit" : "0x7530",
                        "gasPrice" : "0x01",
                        "nonce" : "0x00",
                        "r" : "0x6f7662bd87cd5f4859e87e9e35b1f1428809c2b7e5dc96bcb18f1e1ecb3578bf",
                        "s" : "0x53a364d78ab6b27e1cd11be8a164e5060798ca450f06ad4c48b4e134d9d8b1db",
                        "to" : "0x1000000000000000000000000000000000000000",
                        "v" : "0x1b",
                        "value" : "0x00"
                    }
                ],
                "uncleHeaders" : [
                ]
            }
        ],
        "genesisBlockHeader" : {
            "bloom" : "0x00000000000000000000000000000000000000000000000000000000000000000000000000000000000000000000000000000000000000000000000000000000000000000000000000000000000000000000000000000000000000000000000000000000000000000000000000000000000000000000000000000000000000000000000000000000000000000000000000000000000000000000000000000000000000000000000000000000000000000000000000000000000000000000000000000000000000000000000000000000000000000000000000000000000000000000000000000000000000000000000000000000000000000000000000000000",
            "coinbase" : "0x2adc25665018aa1fe0e6bc666dac8fc2697ff9ba",
            "difficulty" : "0x020000",
            "extraData" : "0x42",
            "gasLimit" : "0xb2d05e00",
            "gasUsed" : "0x00",
            "hash" : "0x5a74acb19552d03e18c08e792f66b8fd0f3ce592ebf86e0a6295c43a015b881a",
            "mixHash" : "0x56e81f171bcc55a6ff8345e692c0f86e5b48e01b996cadc001622fb5e363b421",
            "nonce" : "0x0102030405060708",
            "number" : "0x00",
            "parentHash" : "0x0000000000000000000000000000000000000000000000000000000000000000",
            "receiptTrie" : "0x56e81f171bcc55a6ff8345e692c0f86e5b48e01b996cadc001622fb5e363b421",
            "stateRoot" : "0x8db07749f04061e8041aa7907eeed40bc6ed3d3592ced5a531b88dd0043ed51b",
            "timestamp" : "0x03b6",
            "transactionsTrie" : "0x56e81f171bcc55a6ff8345e692c0f86e5b48e01b996cadc001622fb5e363b421",
            "uncleHash" : "0x1dcc4de8dec75d7aab85b567b6ccd41ad312451b948a7413f0a142fd40d49347"
        },
        "genesisRLP" : "0xf901fbf901f6a00000000000000000000000000000000000000000000000000000000000000000a01dcc4de8dec75d7aab85b567b6ccd41ad312451b948a7413f0a142fd40d49347942adc25665018aa1fe0e6bc666dac8fc2697ff9baa08db07749f04061e8041aa7907eeed40bc6ed3d3592ced5a531b88dd0043ed51ba056e81f171bcc55a6ff8345e692c0f86e5b48e01b996cadc001622fb5e363b421a056e81f171bcc55a6ff8345e692c0f86e5b48e01b996cadc001622fb5e363b421b9010000000000000000000000000000000000000000000000000000000000000000000000000000000000000000000000000000000000000000000000000000000000000000000000000000000000000000000000000000000000000000000000000000000000000000000000000000000000000000000000000000000000000000000000000000000000000000000000000000000000000000000000000000000000000000000000000000000000000000000000000000000000000000000000000000000000000000000000000000000000000000000000000000000000000000000000000000000000000000000000000000000000000000000000000000000000830200008084b2d05e00808203b642a056e81f171bcc55a6ff8345e692c0f86e5b48e01b996cadc001622fb5e363b421880102030405060708c0c0",
        "lastblockhash" : "0xb1ed5a814e61965267043f22d66502e08d4f473dad906c2604f36180ae34f0ee",
        "network" : "EIP150",
        "postState" : {
            "0x1000000000000000000000000000000000000000" : {
                "balance" : "0x0de0b6b3a7640000",
                "code" : "0x6040600060406000731000000000000000000000000000000000000001611770fa6000555a600155",
                "nonce" : "0x00",
                "storage" : {
                }
            },
            "0x1000000000000000000000000000000000000001" : {
                "balance" : "0x00",
                "code" : "",
                "nonce" : "0x00",
                "storage" : {
                }
            },
            "0x2adc25665018aa1fe0e6bc666dac8fc2697ff9ba" : {
                "balance" : "0x4563918244f47530",
                "code" : "",
                "nonce" : "0x00",
                "storage" : {
                }
            },
            "0xa94f5374fce5edbc8e2a8697c15331677e6ebf0b" : {
                "balance" : "0x0de0b6b3a7638ad0",
                "code" : "",
                "nonce" : "0x01",
                "storage" : {
                }
            }
        },
        "pre" : {
            "0x1000000000000000000000000000000000000000" : {
                "balance" : "0x0de0b6b3a7640000",
                "code" : "0x6040600060406000731000000000000000000000000000000000000001611770fa6000555a600155",
                "nonce" : "0x00",
                "storage" : {
                }
            },
            "0x1000000000000000000000000000000000000001" : {
                "balance" : "0x00",
                "code" : "",
                "nonce" : "0x00",
                "storage" : {
                }
            },
            "0xa94f5374fce5edbc8e2a8697c15331677e6ebf0b" : {
                "balance" : "0x0de0b6b3a7640000",
                "code" : "",
                "nonce" : "0x00",
                "storage" : {
                }
            }
        }
    },
    "static_call_OOG_additionalGasCosts2_d0g0v0_EIP158" : {
        "_info" : {
            "comment" : "",
            "filledwith" : "cpp-1.3.0+commit.6e0ce939.Linux.g++",
            "lllcversion" : "Version: 0.4.18-develop.2017.9.25+commit.a72237f2.Linux.g++",
            "source" : "src/BlockchainTestsFiller/GeneralStateTests/stStaticCall/static_call_OOG_additionalGasCosts2_d0g0v0Filler.json",
            "sourceHash" : "acc218a9952c51d3e2eb78e5673ed8971eb782a586553cb1c88ab56147aa3c6d"
        },
        "blocks" : [
            {
                "blockHeader" : {
                    "bloom" : "0x00000000000000000000000000000000000000000000000000000000000000000000000000000000000000000000000000000000000000000000000000000000000000000000000000000000000000000000000000000000000000000000000000000000000000000000000000000000000000000000000000000000000000000000000000000000000000000000000000000000000000000000000000000000000000000000000000000000000000000000000000000000000000000000000000000000000000000000000000000000000000000000000000000000000000000000000000000000000000000000000000000000000000000000000000000000",
                    "coinbase" : "0x2adc25665018aa1fe0e6bc666dac8fc2697ff9ba",
                    "difficulty" : "0x020000",
                    "extraData" : "",
                    "gasLimit" : "0xb2d05e00",
                    "gasUsed" : "0x7530",
                    "hash" : "0x9605f1168d5e70954bdcb76a199c097dc37216cdb6ed90630821ec08efb5e703",
                    "mixHash" : "0x26cd1482f549cb44bfcb7e0c54b4d94bc0d5f3f41ce876d327847f74363bbd39",
                    "nonce" : "0x2a3e50a054a84eb2",
                    "number" : "0x01",
                    "parentHash" : "0x5a74acb19552d03e18c08e792f66b8fd0f3ce592ebf86e0a6295c43a015b881a",
                    "receiptTrie" : "0xaece75da6d10b87d4bafd678e0485089adb6424fd38799acc13a17cf3fedea1c",
                    "stateRoot" : "0x736f1b1f86abad5ce8f9d29adee228f6a965e8bfe68580b328568c48aac8fd5c",
                    "timestamp" : "0x03e8",
                    "transactionsTrie" : "0x2502bb435e833b0f29e4796c5b1d9afaf66fa21ccfa2666d6b2814d6ae43fc01",
                    "uncleHash" : "0x1dcc4de8dec75d7aab85b567b6ccd41ad312451b948a7413f0a142fd40d49347"
                },
                "rlp" : "0xf9025ff901f8a05a74acb19552d03e18c08e792f66b8fd0f3ce592ebf86e0a6295c43a015b881aa01dcc4de8dec75d7aab85b567b6ccd41ad312451b948a7413f0a142fd40d49347942adc25665018aa1fe0e6bc666dac8fc2697ff9baa0736f1b1f86abad5ce8f9d29adee228f6a965e8bfe68580b328568c48aac8fd5ca02502bb435e833b0f29e4796c5b1d9afaf66fa21ccfa2666d6b2814d6ae43fc01a0aece75da6d10b87d4bafd678e0485089adb6424fd38799acc13a17cf3fedea1cb9010000000000000000000000000000000000000000000000000000000000000000000000000000000000000000000000000000000000000000000000000000000000000000000000000000000000000000000000000000000000000000000000000000000000000000000000000000000000000000000000000000000000000000000000000000000000000000000000000000000000000000000000000000000000000000000000000000000000000000000000000000000000000000000000000000000000000000000000000000000000000000000000000000000000000000000000000000000000000000000000000000000000000000000000000000000000830200000184b2d05e008275308203e880a026cd1482f549cb44bfcb7e0c54b4d94bc0d5f3f41ce876d327847f74363bbd39882a3e50a054a84eb2f861f85f800182753094100000000000000000000000000000000000000080801ba06f7662bd87cd5f4859e87e9e35b1f1428809c2b7e5dc96bcb18f1e1ecb3578bfa053a364d78ab6b27e1cd11be8a164e5060798ca450f06ad4c48b4e134d9d8b1dbc0",
                "transactions" : [
                    {
                        "data" : "",
                        "gasLimit" : "0x7530",
                        "gasPrice" : "0x01",
                        "nonce" : "0x00",
                        "r" : "0x6f7662bd87cd5f4859e87e9e35b1f1428809c2b7e5dc96bcb18f1e1ecb3578bf",
                        "s" : "0x53a364d78ab6b27e1cd11be8a164e5060798ca450f06ad4c48b4e134d9d8b1db",
                        "to" : "0x1000000000000000000000000000000000000000",
                        "v" : "0x1b",
                        "value" : "0x00"
                    }
                ],
                "uncleHeaders" : [
                ]
            }
        ],
        "genesisBlockHeader" : {
            "bloom" : "0x00000000000000000000000000000000000000000000000000000000000000000000000000000000000000000000000000000000000000000000000000000000000000000000000000000000000000000000000000000000000000000000000000000000000000000000000000000000000000000000000000000000000000000000000000000000000000000000000000000000000000000000000000000000000000000000000000000000000000000000000000000000000000000000000000000000000000000000000000000000000000000000000000000000000000000000000000000000000000000000000000000000000000000000000000000000",
            "coinbase" : "0x2adc25665018aa1fe0e6bc666dac8fc2697ff9ba",
            "difficulty" : "0x020000",
            "extraData" : "0x42",
            "gasLimit" : "0xb2d05e00",
            "gasUsed" : "0x00",
            "hash" : "0x5a74acb19552d03e18c08e792f66b8fd0f3ce592ebf86e0a6295c43a015b881a",
            "mixHash" : "0x56e81f171bcc55a6ff8345e692c0f86e5b48e01b996cadc001622fb5e363b421",
            "nonce" : "0x0102030405060708",
            "number" : "0x00",
            "parentHash" : "0x0000000000000000000000000000000000000000000000000000000000000000",
            "receiptTrie" : "0x56e81f171bcc55a6ff8345e692c0f86e5b48e01b996cadc001622fb5e363b421",
            "stateRoot" : "0x8db07749f04061e8041aa7907eeed40bc6ed3d3592ced5a531b88dd0043ed51b",
            "timestamp" : "0x03b6",
            "transactionsTrie" : "0x56e81f171bcc55a6ff8345e692c0f86e5b48e01b996cadc001622fb5e363b421",
            "uncleHash" : "0x1dcc4de8dec75d7aab85b567b6ccd41ad312451b948a7413f0a142fd40d49347"
        },
        "genesisRLP" : "0xf901fbf901f6a00000000000000000000000000000000000000000000000000000000000000000a01dcc4de8dec75d7aab85b567b6ccd41ad312451b948a7413f0a142fd40d49347942adc25665018aa1fe0e6bc666dac8fc2697ff9baa08db07749f04061e8041aa7907eeed40bc6ed3d3592ced5a531b88dd0043ed51ba056e81f171bcc55a6ff8345e692c0f86e5b48e01b996cadc001622fb5e363b421a056e81f171bcc55a6ff8345e692c0f86e5b48e01b996cadc001622fb5e363b421b9010000000000000000000000000000000000000000000000000000000000000000000000000000000000000000000000000000000000000000000000000000000000000000000000000000000000000000000000000000000000000000000000000000000000000000000000000000000000000000000000000000000000000000000000000000000000000000000000000000000000000000000000000000000000000000000000000000000000000000000000000000000000000000000000000000000000000000000000000000000000000000000000000000000000000000000000000000000000000000000000000000000000000000000000000000000000830200008084b2d05e00808203b642a056e81f171bcc55a6ff8345e692c0f86e5b48e01b996cadc001622fb5e363b421880102030405060708c0c0",
        "lastblockhash" : "0x9605f1168d5e70954bdcb76a199c097dc37216cdb6ed90630821ec08efb5e703",
        "network" : "EIP158",
        "postState" : {
            "0x1000000000000000000000000000000000000000" : {
                "balance" : "0x0de0b6b3a7640000",
                "code" : "0x6040600060406000731000000000000000000000000000000000000001611770fa6000555a600155",
                "nonce" : "0x00",
                "storage" : {
                }
            },
            "0x1000000000000000000000000000000000000001" : {
                "balance" : "0x00",
                "code" : "",
                "nonce" : "0x00",
                "storage" : {
                }
            },
            "0x2adc25665018aa1fe0e6bc666dac8fc2697ff9ba" : {
                "balance" : "0x4563918244f47530",
                "code" : "",
                "nonce" : "0x00",
                "storage" : {
                }
            },
            "0xa94f5374fce5edbc8e2a8697c15331677e6ebf0b" : {
                "balance" : "0x0de0b6b3a7638ad0",
                "code" : "",
                "nonce" : "0x01",
                "storage" : {
                }
            }
        },
        "pre" : {
            "0x1000000000000000000000000000000000000000" : {
                "balance" : "0x0de0b6b3a7640000",
                "code" : "0x6040600060406000731000000000000000000000000000000000000001611770fa6000555a600155",
                "nonce" : "0x00",
                "storage" : {
                }
            },
            "0x1000000000000000000000000000000000000001" : {
                "balance" : "0x00",
                "code" : "",
                "nonce" : "0x00",
                "storage" : {
                }
            },
            "0xa94f5374fce5edbc8e2a8697c15331677e6ebf0b" : {
                "balance" : "0x0de0b6b3a7640000",
                "code" : "",
                "nonce" : "0x00",
                "storage" : {
                }
            }
        }
    },
    "static_call_OOG_additionalGasCosts2_d0g0v0_Frontier" : {
        "_info" : {
            "comment" : "",
            "filledwith" : "cpp-1.3.0+commit.6e0ce939.Linux.g++",
            "lllcversion" : "Version: 0.4.18-develop.2017.9.25+commit.a72237f2.Linux.g++",
            "source" : "src/BlockchainTestsFiller/GeneralStateTests/stStaticCall/static_call_OOG_additionalGasCosts2_d0g0v0Filler.json",
            "sourceHash" : "acc218a9952c51d3e2eb78e5673ed8971eb782a586553cb1c88ab56147aa3c6d"
        },
        "blocks" : [
            {
                "blockHeader" : {
                    "bloom" : "0x00000000000000000000000000000000000000000000000000000000000000000000000000000000000000000000000000000000000000000000000000000000000000000000000000000000000000000000000000000000000000000000000000000000000000000000000000000000000000000000000000000000000000000000000000000000000000000000000000000000000000000000000000000000000000000000000000000000000000000000000000000000000000000000000000000000000000000000000000000000000000000000000000000000000000000000000000000000000000000000000000000000000000000000000000000000",
                    "coinbase" : "0x2adc25665018aa1fe0e6bc666dac8fc2697ff9ba",
                    "difficulty" : "0x020000",
                    "extraData" : "",
                    "gasLimit" : "0xb2d05e00",
                    "gasUsed" : "0x7530",
                    "hash" : "0x776f37f5971c8b74d06f61ca89a61f147eb417733c51bfe7f673f4fc70ca54f8",
                    "mixHash" : "0x6cc38e1876e761447b4b88bcbfa5d3373ddd5fbee797d82fe2353dbb5eaec902",
                    "nonce" : "0x04bfa42baeb00609",
                    "number" : "0x01",
                    "parentHash" : "0x5a74acb19552d03e18c08e792f66b8fd0f3ce592ebf86e0a6295c43a015b881a",
                    "receiptTrie" : "0xaece75da6d10b87d4bafd678e0485089adb6424fd38799acc13a17cf3fedea1c",
                    "stateRoot" : "0x736f1b1f86abad5ce8f9d29adee228f6a965e8bfe68580b328568c48aac8fd5c",
                    "timestamp" : "0x03e8",
                    "transactionsTrie" : "0x2502bb435e833b0f29e4796c5b1d9afaf66fa21ccfa2666d6b2814d6ae43fc01",
                    "uncleHash" : "0x1dcc4de8dec75d7aab85b567b6ccd41ad312451b948a7413f0a142fd40d49347"
                },
                "rlp" : "0xf9025ff901f8a05a74acb19552d03e18c08e792f66b8fd0f3ce592ebf86e0a6295c43a015b881aa01dcc4de8dec75d7aab85b567b6ccd41ad312451b948a7413f0a142fd40d49347942adc25665018aa1fe0e6bc666dac8fc2697ff9baa0736f1b1f86abad5ce8f9d29adee228f6a965e8bfe68580b328568c48aac8fd5ca02502bb435e833b0f29e4796c5b1d9afaf66fa21ccfa2666d6b2814d6ae43fc01a0aece75da6d10b87d4bafd678e0485089adb6424fd38799acc13a17cf3fedea1cb9010000000000000000000000000000000000000000000000000000000000000000000000000000000000000000000000000000000000000000000000000000000000000000000000000000000000000000000000000000000000000000000000000000000000000000000000000000000000000000000000000000000000000000000000000000000000000000000000000000000000000000000000000000000000000000000000000000000000000000000000000000000000000000000000000000000000000000000000000000000000000000000000000000000000000000000000000000000000000000000000000000000000000000000000000000000000830200000184b2d05e008275308203e880a06cc38e1876e761447b4b88bcbfa5d3373ddd5fbee797d82fe2353dbb5eaec9028804bfa42baeb00609f861f85f800182753094100000000000000000000000000000000000000080801ba06f7662bd87cd5f4859e87e9e35b1f1428809c2b7e5dc96bcb18f1e1ecb3578bfa053a364d78ab6b27e1cd11be8a164e5060798ca450f06ad4c48b4e134d9d8b1dbc0",
                "transactions" : [
                    {
                        "data" : "",
                        "gasLimit" : "0x7530",
                        "gasPrice" : "0x01",
                        "nonce" : "0x00",
                        "r" : "0x6f7662bd87cd5f4859e87e9e35b1f1428809c2b7e5dc96bcb18f1e1ecb3578bf",
                        "s" : "0x53a364d78ab6b27e1cd11be8a164e5060798ca450f06ad4c48b4e134d9d8b1db",
                        "to" : "0x1000000000000000000000000000000000000000",
                        "v" : "0x1b",
                        "value" : "0x00"
                    }
                ],
                "uncleHeaders" : [
                ]
            }
        ],
        "genesisBlockHeader" : {
            "bloom" : "0x00000000000000000000000000000000000000000000000000000000000000000000000000000000000000000000000000000000000000000000000000000000000000000000000000000000000000000000000000000000000000000000000000000000000000000000000000000000000000000000000000000000000000000000000000000000000000000000000000000000000000000000000000000000000000000000000000000000000000000000000000000000000000000000000000000000000000000000000000000000000000000000000000000000000000000000000000000000000000000000000000000000000000000000000000000000",
            "coinbase" : "0x2adc25665018aa1fe0e6bc666dac8fc2697ff9ba",
            "difficulty" : "0x020000",
            "extraData" : "0x42",
            "gasLimit" : "0xb2d05e00",
            "gasUsed" : "0x00",
            "hash" : "0x5a74acb19552d03e18c08e792f66b8fd0f3ce592ebf86e0a6295c43a015b881a",
            "mixHash" : "0x56e81f171bcc55a6ff8345e692c0f86e5b48e01b996cadc001622fb5e363b421",
            "nonce" : "0x0102030405060708",
            "number" : "0x00",
            "parentHash" : "0x0000000000000000000000000000000000000000000000000000000000000000",
            "receiptTrie" : "0x56e81f171bcc55a6ff8345e692c0f86e5b48e01b996cadc001622fb5e363b421",
            "stateRoot" : "0x8db07749f04061e8041aa7907eeed40bc6ed3d3592ced5a531b88dd0043ed51b",
            "timestamp" : "0x03b6",
            "transactionsTrie" : "0x56e81f171bcc55a6ff8345e692c0f86e5b48e01b996cadc001622fb5e363b421",
            "uncleHash" : "0x1dcc4de8dec75d7aab85b567b6ccd41ad312451b948a7413f0a142fd40d49347"
        },
        "genesisRLP" : "0xf901fbf901f6a00000000000000000000000000000000000000000000000000000000000000000a01dcc4de8dec75d7aab85b567b6ccd41ad312451b948a7413f0a142fd40d49347942adc25665018aa1fe0e6bc666dac8fc2697ff9baa08db07749f04061e8041aa7907eeed40bc6ed3d3592ced5a531b88dd0043ed51ba056e81f171bcc55a6ff8345e692c0f86e5b48e01b996cadc001622fb5e363b421a056e81f171bcc55a6ff8345e692c0f86e5b48e01b996cadc001622fb5e363b421b9010000000000000000000000000000000000000000000000000000000000000000000000000000000000000000000000000000000000000000000000000000000000000000000000000000000000000000000000000000000000000000000000000000000000000000000000000000000000000000000000000000000000000000000000000000000000000000000000000000000000000000000000000000000000000000000000000000000000000000000000000000000000000000000000000000000000000000000000000000000000000000000000000000000000000000000000000000000000000000000000000000000000000000000000000000000000830200008084b2d05e00808203b642a056e81f171bcc55a6ff8345e692c0f86e5b48e01b996cadc001622fb5e363b421880102030405060708c0c0",
        "lastblockhash" : "0x776f37f5971c8b74d06f61ca89a61f147eb417733c51bfe7f673f4fc70ca54f8",
        "network" : "Frontier",
        "postState" : {
            "0x1000000000000000000000000000000000000000" : {
                "balance" : "0x0de0b6b3a7640000",
                "code" : "0x6040600060406000731000000000000000000000000000000000000001611770fa6000555a600155",
                "nonce" : "0x00",
                "storage" : {
                }
            },
            "0x1000000000000000000000000000000000000001" : {
                "balance" : "0x00",
                "code" : "",
                "nonce" : "0x00",
                "storage" : {
                }
            },
            "0x2adc25665018aa1fe0e6bc666dac8fc2697ff9ba" : {
                "balance" : "0x4563918244f47530",
                "code" : "",
                "nonce" : "0x00",
                "storage" : {
                }
            },
            "0xa94f5374fce5edbc8e2a8697c15331677e6ebf0b" : {
                "balance" : "0x0de0b6b3a7638ad0",
                "code" : "",
                "nonce" : "0x01",
                "storage" : {
                }
            }
        },
        "pre" : {
            "0x1000000000000000000000000000000000000000" : {
                "balance" : "0x0de0b6b3a7640000",
                "code" : "0x6040600060406000731000000000000000000000000000000000000001611770fa6000555a600155",
                "nonce" : "0x00",
                "storage" : {
                }
            },
            "0x1000000000000000000000000000000000000001" : {
                "balance" : "0x00",
                "code" : "",
                "nonce" : "0x00",
                "storage" : {
                }
            },
            "0xa94f5374fce5edbc8e2a8697c15331677e6ebf0b" : {
                "balance" : "0x0de0b6b3a7640000",
                "code" : "",
                "nonce" : "0x00",
                "storage" : {
                }
            }
        }
    },
    "static_call_OOG_additionalGasCosts2_d0g0v0_Homestead" : {
        "_info" : {
            "comment" : "",
            "filledwith" : "cpp-1.3.0+commit.6e0ce939.Linux.g++",
            "lllcversion" : "Version: 0.4.18-develop.2017.9.25+commit.a72237f2.Linux.g++",
            "source" : "src/BlockchainTestsFiller/GeneralStateTests/stStaticCall/static_call_OOG_additionalGasCosts2_d0g0v0Filler.json",
            "sourceHash" : "acc218a9952c51d3e2eb78e5673ed8971eb782a586553cb1c88ab56147aa3c6d"
        },
        "blocks" : [
            {
                "blockHeader" : {
                    "bloom" : "0x00000000000000000000000000000000000000000000000000000000000000000000000000000000000000000000000000000000000000000000000000000000000000000000000000000000000000000000000000000000000000000000000000000000000000000000000000000000000000000000000000000000000000000000000000000000000000000000000000000000000000000000000000000000000000000000000000000000000000000000000000000000000000000000000000000000000000000000000000000000000000000000000000000000000000000000000000000000000000000000000000000000000000000000000000000000",
                    "coinbase" : "0x2adc25665018aa1fe0e6bc666dac8fc2697ff9ba",
                    "difficulty" : "0x020000",
                    "extraData" : "",
                    "gasLimit" : "0xb2d05e00",
                    "gasUsed" : "0x7530",
                    "hash" : "0x102b15061a115a477a9125fbed30243c1e648188d5e1fb8880a11614d51b506e",
                    "mixHash" : "0x53ca408137f7bc24231db1cd7062b52866d5e0143d9eb74f3f4be770fa98baa8",
                    "nonce" : "0x47da92ce0c929ca4",
                    "number" : "0x01",
                    "parentHash" : "0x5a74acb19552d03e18c08e792f66b8fd0f3ce592ebf86e0a6295c43a015b881a",
                    "receiptTrie" : "0xaece75da6d10b87d4bafd678e0485089adb6424fd38799acc13a17cf3fedea1c",
                    "stateRoot" : "0x736f1b1f86abad5ce8f9d29adee228f6a965e8bfe68580b328568c48aac8fd5c",
                    "timestamp" : "0x03e8",
                    "transactionsTrie" : "0x2502bb435e833b0f29e4796c5b1d9afaf66fa21ccfa2666d6b2814d6ae43fc01",
                    "uncleHash" : "0x1dcc4de8dec75d7aab85b567b6ccd41ad312451b948a7413f0a142fd40d49347"
                },
                "rlp" : "0xf9025ff901f8a05a74acb19552d03e18c08e792f66b8fd0f3ce592ebf86e0a6295c43a015b881aa01dcc4de8dec75d7aab85b567b6ccd41ad312451b948a7413f0a142fd40d49347942adc25665018aa1fe0e6bc666dac8fc2697ff9baa0736f1b1f86abad5ce8f9d29adee228f6a965e8bfe68580b328568c48aac8fd5ca02502bb435e833b0f29e4796c5b1d9afaf66fa21ccfa2666d6b2814d6ae43fc01a0aece75da6d10b87d4bafd678e0485089adb6424fd38799acc13a17cf3fedea1cb9010000000000000000000000000000000000000000000000000000000000000000000000000000000000000000000000000000000000000000000000000000000000000000000000000000000000000000000000000000000000000000000000000000000000000000000000000000000000000000000000000000000000000000000000000000000000000000000000000000000000000000000000000000000000000000000000000000000000000000000000000000000000000000000000000000000000000000000000000000000000000000000000000000000000000000000000000000000000000000000000000000000000000000000000000000000000830200000184b2d05e008275308203e880a053ca408137f7bc24231db1cd7062b52866d5e0143d9eb74f3f4be770fa98baa88847da92ce0c929ca4f861f85f800182753094100000000000000000000000000000000000000080801ba06f7662bd87cd5f4859e87e9e35b1f1428809c2b7e5dc96bcb18f1e1ecb3578bfa053a364d78ab6b27e1cd11be8a164e5060798ca450f06ad4c48b4e134d9d8b1dbc0",
                "transactions" : [
                    {
                        "data" : "",
                        "gasLimit" : "0x7530",
                        "gasPrice" : "0x01",
                        "nonce" : "0x00",
                        "r" : "0x6f7662bd87cd5f4859e87e9e35b1f1428809c2b7e5dc96bcb18f1e1ecb3578bf",
                        "s" : "0x53a364d78ab6b27e1cd11be8a164e5060798ca450f06ad4c48b4e134d9d8b1db",
                        "to" : "0x1000000000000000000000000000000000000000",
                        "v" : "0x1b",
                        "value" : "0x00"
                    }
                ],
                "uncleHeaders" : [
                ]
            }
        ],
        "genesisBlockHeader" : {
            "bloom" : "0x00000000000000000000000000000000000000000000000000000000000000000000000000000000000000000000000000000000000000000000000000000000000000000000000000000000000000000000000000000000000000000000000000000000000000000000000000000000000000000000000000000000000000000000000000000000000000000000000000000000000000000000000000000000000000000000000000000000000000000000000000000000000000000000000000000000000000000000000000000000000000000000000000000000000000000000000000000000000000000000000000000000000000000000000000000000",
            "coinbase" : "0x2adc25665018aa1fe0e6bc666dac8fc2697ff9ba",
            "difficulty" : "0x020000",
            "extraData" : "0x42",
            "gasLimit" : "0xb2d05e00",
            "gasUsed" : "0x00",
            "hash" : "0x5a74acb19552d03e18c08e792f66b8fd0f3ce592ebf86e0a6295c43a015b881a",
            "mixHash" : "0x56e81f171bcc55a6ff8345e692c0f86e5b48e01b996cadc001622fb5e363b421",
            "nonce" : "0x0102030405060708",
            "number" : "0x00",
            "parentHash" : "0x0000000000000000000000000000000000000000000000000000000000000000",
            "receiptTrie" : "0x56e81f171bcc55a6ff8345e692c0f86e5b48e01b996cadc001622fb5e363b421",
            "stateRoot" : "0x8db07749f04061e8041aa7907eeed40bc6ed3d3592ced5a531b88dd0043ed51b",
            "timestamp" : "0x03b6",
            "transactionsTrie" : "0x56e81f171bcc55a6ff8345e692c0f86e5b48e01b996cadc001622fb5e363b421",
            "uncleHash" : "0x1dcc4de8dec75d7aab85b567b6ccd41ad312451b948a7413f0a142fd40d49347"
        },
        "genesisRLP" : "0xf901fbf901f6a00000000000000000000000000000000000000000000000000000000000000000a01dcc4de8dec75d7aab85b567b6ccd41ad312451b948a7413f0a142fd40d49347942adc25665018aa1fe0e6bc666dac8fc2697ff9baa08db07749f04061e8041aa7907eeed40bc6ed3d3592ced5a531b88dd0043ed51ba056e81f171bcc55a6ff8345e692c0f86e5b48e01b996cadc001622fb5e363b421a056e81f171bcc55a6ff8345e692c0f86e5b48e01b996cadc001622fb5e363b421b9010000000000000000000000000000000000000000000000000000000000000000000000000000000000000000000000000000000000000000000000000000000000000000000000000000000000000000000000000000000000000000000000000000000000000000000000000000000000000000000000000000000000000000000000000000000000000000000000000000000000000000000000000000000000000000000000000000000000000000000000000000000000000000000000000000000000000000000000000000000000000000000000000000000000000000000000000000000000000000000000000000000000000000000000000000000000830200008084b2d05e00808203b642a056e81f171bcc55a6ff8345e692c0f86e5b48e01b996cadc001622fb5e363b421880102030405060708c0c0",
        "lastblockhash" : "0x102b15061a115a477a9125fbed30243c1e648188d5e1fb8880a11614d51b506e",
        "network" : "Homestead",
        "postState" : {
            "0x1000000000000000000000000000000000000000" : {
                "balance" : "0x0de0b6b3a7640000",
                "code" : "0x6040600060406000731000000000000000000000000000000000000001611770fa6000555a600155",
                "nonce" : "0x00",
                "storage" : {
                }
            },
            "0x1000000000000000000000000000000000000001" : {
                "balance" : "0x00",
                "code" : "",
                "nonce" : "0x00",
                "storage" : {
                }
            },
            "0x2adc25665018aa1fe0e6bc666dac8fc2697ff9ba" : {
                "balance" : "0x4563918244f47530",
                "code" : "",
                "nonce" : "0x00",
                "storage" : {
                }
            },
            "0xa94f5374fce5edbc8e2a8697c15331677e6ebf0b" : {
                "balance" : "0x0de0b6b3a7638ad0",
                "code" : "",
                "nonce" : "0x01",
                "storage" : {
                }
            }
        },
        "pre" : {
            "0x1000000000000000000000000000000000000000" : {
                "balance" : "0x0de0b6b3a7640000",
                "code" : "0x6040600060406000731000000000000000000000000000000000000001611770fa6000555a600155",
                "nonce" : "0x00",
                "storage" : {
                }
            },
            "0x1000000000000000000000000000000000000001" : {
                "balance" : "0x00",
                "code" : "",
                "nonce" : "0x00",
                "storage" : {
                }
            },
            "0xa94f5374fce5edbc8e2a8697c15331677e6ebf0b" : {
                "balance" : "0x0de0b6b3a7640000",
                "code" : "",
                "nonce" : "0x00",
                "storage" : {
                }
            }
        }
    }
}