{
    "static_ZeroValue_SUICIDE_OOGRevert_d0g0v0_Byzantium" : {
        "_info" : {
            "comment" : "",
            "filledwith" : "cpp-1.3.0+commit.6e0ce939.Linux.g++",
            "lllcversion" : "Version: 0.4.18-develop.2017.9.25+commit.a72237f2.Linux.g++",
            "source" : "src/BlockchainTestsFiller/GeneralStateTests/stStaticCall/static_ZeroValue_SUICIDE_OOGRevert_d0g0v0Filler.json",
            "sourceHash" : "1f86b926836b21f00f6ee525156b8cf74746d10db9ce1372cf8264c6d722e86e"
        },
        "blocks" : [
            {
                "blockHeader" : {
                    "bloom" : "0x00000000000000000000000000000000000000000000000000000000000000000000000000000000000000000000000000000000000000000000000000000000000000000000000000000000000000000000000000000000000000000000000000000000000000000000000000000000000000000000000000000000000000000000000000000000000000000000000000000000000000000000000000000000000000000000000000000000000000000000000000000000000000000000000000000000000000000000000000000000000000000000000000000000000000000000000000000000000000000000000000000000000000000000000000000000",
                    "coinbase" : "0x2adc25665018aa1fe0e6bc666dac8fc2697ff9ba",
                    "difficulty" : "0x020000",
                    "extraData" : "",
                    "gasLimit" : "0x989680",
                    "gasUsed" : "0x0186a0",
                    "hash" : "0x9ed65356b99ce906b32033d9b59c28f4015553d6b1f5d2fc697640a8b404ddc4",
                    "mixHash" : "0x526c4bcbbe171e1b9e704495ea2b05c65bdf92232a974f9e4c633d1835168eee",
                    "nonce" : "0x20059a9085445bbb",
                    "number" : "0x01",
                    "parentHash" : "0x1f1b15448da77af47c10b04fb9806d2b246a6275ad5c90e2d95dc9452b1b9b34",
                    "receiptTrie" : "0x777f1c1c378807634128348e4f0eeca6a0e7f516ea411690ca04266323f671a4",
                    "stateRoot" : "0xc300a3778a2d5e6037b89cd43090ef491dae7a6f7c1ebc9e1260d511df6470b1",
                    "timestamp" : "0x03e8",
                    "transactionsTrie" : "0x35d0179810f808ab57286e10ad2d3c6cec1bd53fd556e8c08e759cd2a022e2fa",
                    "uncleHash" : "0x1dcc4de8dec75d7aab85b567b6ccd41ad312451b948a7413f0a142fd40d49347"
                },
                "rlp" : "0xf90260f901f8a01f1b15448da77af47c10b04fb9806d2b246a6275ad5c90e2d95dc9452b1b9b34a01dcc4de8dec75d7aab85b567b6ccd41ad312451b948a7413f0a142fd40d49347942adc25665018aa1fe0e6bc666dac8fc2697ff9baa0c300a3778a2d5e6037b89cd43090ef491dae7a6f7c1ebc9e1260d511df6470b1a035d0179810f808ab57286e10ad2d3c6cec1bd53fd556e8c08e759cd2a022e2faa0777f1c1c378807634128348e4f0eeca6a0e7f516ea411690ca04266323f671a4b9010000000000000000000000000000000000000000000000000000000000000000000000000000000000000000000000000000000000000000000000000000000000000000000000000000000000000000000000000000000000000000000000000000000000000000000000000000000000000000000000000000000000000000000000000000000000000000000000000000000000000000000000000000000000000000000000000000000000000000000000000000000000000000000000000000000000000000000000000000000000000000000000000000000000000000000000000000000000000000000000000000000000000000000000000000000000830200000183989680830186a08203e880a0526c4bcbbe171e1b9e704495ea2b05c65bdf92232a974f9e4c633d1835168eee8820059a9085445bbbf862f8608001830186a094b94f5374fce5edbc8e2a8697c15331677e6ebf0b80801ca083ab9a4b442353a1c16e436911c07e3727e3b8e22f682d6dc9fa2ed86bdb5317a04659371aed349c8145fc7dd61b924223d30b1c59a9994d8789495ca7ff1c4e15c0",
                "transactions" : [
                    {
                        "data" : "",
                        "gasLimit" : "0x0186a0",
                        "gasPrice" : "0x01",
                        "nonce" : "0x00",
                        "r" : "0x83ab9a4b442353a1c16e436911c07e3727e3b8e22f682d6dc9fa2ed86bdb5317",
                        "s" : "0x4659371aed349c8145fc7dd61b924223d30b1c59a9994d8789495ca7ff1c4e15",
                        "to" : "0xb94f5374fce5edbc8e2a8697c15331677e6ebf0b",
                        "v" : "0x1c",
                        "value" : "0x00"
                    }
                ],
                "uncleHeaders" : [
                ]
            }
        ],
        "genesisBlockHeader" : {
            "bloom" : "0x00000000000000000000000000000000000000000000000000000000000000000000000000000000000000000000000000000000000000000000000000000000000000000000000000000000000000000000000000000000000000000000000000000000000000000000000000000000000000000000000000000000000000000000000000000000000000000000000000000000000000000000000000000000000000000000000000000000000000000000000000000000000000000000000000000000000000000000000000000000000000000000000000000000000000000000000000000000000000000000000000000000000000000000000000000000",
            "coinbase" : "0x2adc25665018aa1fe0e6bc666dac8fc2697ff9ba",
            "difficulty" : "0x020000",
            "extraData" : "0x42",
            "gasLimit" : "0x989680",
            "gasUsed" : "0x00",
            "hash" : "0x1f1b15448da77af47c10b04fb9806d2b246a6275ad5c90e2d95dc9452b1b9b34",
            "mixHash" : "0x56e81f171bcc55a6ff8345e692c0f86e5b48e01b996cadc001622fb5e363b421",
            "nonce" : "0x0102030405060708",
            "number" : "0x00",
            "parentHash" : "0x0000000000000000000000000000000000000000000000000000000000000000",
            "receiptTrie" : "0x56e81f171bcc55a6ff8345e692c0f86e5b48e01b996cadc001622fb5e363b421",
            "stateRoot" : "0xa0476debee3a16a3363735678b297401f63c3e9a6f64fc162566ad96c042602e",
            "timestamp" : "0x03b6",
            "transactionsTrie" : "0x56e81f171bcc55a6ff8345e692c0f86e5b48e01b996cadc001622fb5e363b421",
            "uncleHash" : "0x1dcc4de8dec75d7aab85b567b6ccd41ad312451b948a7413f0a142fd40d49347"
        },
        "genesisRLP" : "0xf901faf901f5a00000000000000000000000000000000000000000000000000000000000000000a01dcc4de8dec75d7aab85b567b6ccd41ad312451b948a7413f0a142fd40d49347942adc25665018aa1fe0e6bc666dac8fc2697ff9baa0a0476debee3a16a3363735678b297401f63c3e9a6f64fc162566ad96c042602ea056e81f171bcc55a6ff8345e692c0f86e5b48e01b996cadc001622fb5e363b421a056e81f171bcc55a6ff8345e692c0f86e5b48e01b996cadc001622fb5e363b421b9010000000000000000000000000000000000000000000000000000000000000000000000000000000000000000000000000000000000000000000000000000000000000000000000000000000000000000000000000000000000000000000000000000000000000000000000000000000000000000000000000000000000000000000000000000000000000000000000000000000000000000000000000000000000000000000000000000000000000000000000000000000000000000000000000000000000000000000000000000000000000000000000000000000000000000000000000000000000000000000000000000000000000000000000000000000000830200008083989680808203b642a056e81f171bcc55a6ff8345e692c0f86e5b48e01b996cadc001622fb5e363b421880102030405060708c0c0",
        "lastblockhash" : "0x9ed65356b99ce906b32033d9b59c28f4015553d6b1f5d2fc697640a8b404ddc4",
        "network" : "Byzantium",
        "postState" : {
            "0x2adc25665018aa1fe0e6bc666dac8fc2697ff9ba" : {
                "balance" : "0x29a2241af62d86a0",
                "code" : "",
                "nonce" : "0x00",
                "storage" : {
                }
            },
            "0xa94f5374fce5edbc8e2a8697c15331677e6ebf0b" : {
                "balance" : "0xe8d4a38960",
                "code" : "",
                "nonce" : "0x01",
                "storage" : {
                }
            },
            "0xb94f5374fce5edbc8e2a8697c15331677e6ebf0b" : {
                "balance" : "0x00",
                "code" : "0x600060006000600073c94f5374fce5edbc8e2a8697c15331677e6ebf0b619c40fa50600c600255600c600355600c6004555a606455",
                "nonce" : "0x00",
                "storage" : {
                }
            },
            "0xc94f5374fce5edbc8e2a8697c15331677e6ebf0b" : {
                "balance" : "0x00",
                "code" : "0x73c94f5374fce5edbc8e2a8697c15331677e6ebf0bff",
                "nonce" : "0x00",
                "storage" : {
                }
            }
        },
        "pre" : {
            "0xa94f5374fce5edbc8e2a8697c15331677e6ebf0b" : {
                "balance" : "0xe8d4a51000",
                "code" : "",
                "nonce" : "0x00",
                "storage" : {
                }
            },
            "0xb94f5374fce5edbc8e2a8697c15331677e6ebf0b" : {
                "balance" : "0x00",
                "code" : "0x600060006000600073c94f5374fce5edbc8e2a8697c15331677e6ebf0b619c40fa50600c600255600c600355600c6004555a606455",
                "nonce" : "0x00",
                "storage" : {
                }
            },
            "0xc94f5374fce5edbc8e2a8697c15331677e6ebf0b" : {
                "balance" : "0x00",
                "code" : "0x73c94f5374fce5edbc8e2a8697c15331677e6ebf0bff",
                "nonce" : "0x00",
                "storage" : {
                }
            }
        }
    },
    "static_ZeroValue_SUICIDE_OOGRevert_d0g0v0_EIP150" : {
        "_info" : {
            "comment" : "",
            "filledwith" : "cpp-1.3.0+commit.6e0ce939.Linux.g++",
            "lllcversion" : "Version: 0.4.18-develop.2017.9.25+commit.a72237f2.Linux.g++",
            "source" : "src/BlockchainTestsFiller/GeneralStateTests/stStaticCall/static_ZeroValue_SUICIDE_OOGRevert_d0g0v0Filler.json",
            "sourceHash" : "1f86b926836b21f00f6ee525156b8cf74746d10db9ce1372cf8264c6d722e86e"
        },
        "blocks" : [
            {
                "blockHeader" : {
                    "bloom" : "0x00000000000000000000000000000000000000000000000000000000000000000000000000000000000000000000000000000000000000000000000000000000000000000000000000000000000000000000000000000000000000000000000000000000000000000000000000000000000000000000000000000000000000000000000000000000000000000000000000000000000000000000000000000000000000000000000000000000000000000000000000000000000000000000000000000000000000000000000000000000000000000000000000000000000000000000000000000000000000000000000000000000000000000000000000000000",
                    "coinbase" : "0x2adc25665018aa1fe0e6bc666dac8fc2697ff9ba",
                    "difficulty" : "0x020000",
                    "extraData" : "",
                    "gasLimit" : "0x989680",
                    "gasUsed" : "0x0186a0",
                    "hash" : "0x45ee2b4ab3fd01ce37b6eb058267737140e6deed75b9c3d8c00e9e02131fec85",
                    "mixHash" : "0x7b0fbf9427135a0499a9eb9cab160a014f3677f7985ec736d1fb8be2f3ab1ec0",
                    "nonce" : "0x27e66881b8299b51",
                    "number" : "0x01",
                    "parentHash" : "0x1f1b15448da77af47c10b04fb9806d2b246a6275ad5c90e2d95dc9452b1b9b34",
                    "receiptTrie" : "0x5fbd8bf5ddcbb6c1fc87b81526d30fa86e70090b191c3623b5af1939b4a3de94",
                    "stateRoot" : "0x8890ce3e2c5903f3a3426d8980595f0610be0668b9906153c1c97b2b359f6450",
                    "timestamp" : "0x03e8",
                    "transactionsTrie" : "0x35d0179810f808ab57286e10ad2d3c6cec1bd53fd556e8c08e759cd2a022e2fa",
                    "uncleHash" : "0x1dcc4de8dec75d7aab85b567b6ccd41ad312451b948a7413f0a142fd40d49347"
                },
                "rlp" : "0xf90260f901f8a01f1b15448da77af47c10b04fb9806d2b246a6275ad5c90e2d95dc9452b1b9b34a01dcc4de8dec75d7aab85b567b6ccd41ad312451b948a7413f0a142fd40d49347942adc25665018aa1fe0e6bc666dac8fc2697ff9baa08890ce3e2c5903f3a3426d8980595f0610be0668b9906153c1c97b2b359f6450a035d0179810f808ab57286e10ad2d3c6cec1bd53fd556e8c08e759cd2a022e2faa05fbd8bf5ddcbb6c1fc87b81526d30fa86e70090b191c3623b5af1939b4a3de94b9010000000000000000000000000000000000000000000000000000000000000000000000000000000000000000000000000000000000000000000000000000000000000000000000000000000000000000000000000000000000000000000000000000000000000000000000000000000000000000000000000000000000000000000000000000000000000000000000000000000000000000000000000000000000000000000000000000000000000000000000000000000000000000000000000000000000000000000000000000000000000000000000000000000000000000000000000000000000000000000000000000000000000000000000000000000000830200000183989680830186a08203e880a07b0fbf9427135a0499a9eb9cab160a014f3677f7985ec736d1fb8be2f3ab1ec08827e66881b8299b51f862f8608001830186a094b94f5374fce5edbc8e2a8697c15331677e6ebf0b80801ca083ab9a4b442353a1c16e436911c07e3727e3b8e22f682d6dc9fa2ed86bdb5317a04659371aed349c8145fc7dd61b924223d30b1c59a9994d8789495ca7ff1c4e15c0",
                "transactions" : [
                    {
                        "data" : "",
                        "gasLimit" : "0x0186a0",
                        "gasPrice" : "0x01",
                        "nonce" : "0x00",
                        "r" : "0x83ab9a4b442353a1c16e436911c07e3727e3b8e22f682d6dc9fa2ed86bdb5317",
                        "s" : "0x4659371aed349c8145fc7dd61b924223d30b1c59a9994d8789495ca7ff1c4e15",
                        "to" : "0xb94f5374fce5edbc8e2a8697c15331677e6ebf0b",
                        "v" : "0x1c",
                        "value" : "0x00"
                    }
                ],
                "uncleHeaders" : [
                ]
            }
        ],
        "genesisBlockHeader" : {
            "bloom" : "0x00000000000000000000000000000000000000000000000000000000000000000000000000000000000000000000000000000000000000000000000000000000000000000000000000000000000000000000000000000000000000000000000000000000000000000000000000000000000000000000000000000000000000000000000000000000000000000000000000000000000000000000000000000000000000000000000000000000000000000000000000000000000000000000000000000000000000000000000000000000000000000000000000000000000000000000000000000000000000000000000000000000000000000000000000000000",
            "coinbase" : "0x2adc25665018aa1fe0e6bc666dac8fc2697ff9ba",
            "difficulty" : "0x020000",
            "extraData" : "0x42",
            "gasLimit" : "0x989680",
            "gasUsed" : "0x00",
            "hash" : "0x1f1b15448da77af47c10b04fb9806d2b246a6275ad5c90e2d95dc9452b1b9b34",
            "mixHash" : "0x56e81f171bcc55a6ff8345e692c0f86e5b48e01b996cadc001622fb5e363b421",
            "nonce" : "0x0102030405060708",
            "number" : "0x00",
            "parentHash" : "0x0000000000000000000000000000000000000000000000000000000000000000",
            "receiptTrie" : "0x56e81f171bcc55a6ff8345e692c0f86e5b48e01b996cadc001622fb5e363b421",
            "stateRoot" : "0xa0476debee3a16a3363735678b297401f63c3e9a6f64fc162566ad96c042602e",
            "timestamp" : "0x03b6",
            "transactionsTrie" : "0x56e81f171bcc55a6ff8345e692c0f86e5b48e01b996cadc001622fb5e363b421",
            "uncleHash" : "0x1dcc4de8dec75d7aab85b567b6ccd41ad312451b948a7413f0a142fd40d49347"
        },
        "genesisRLP" : "0xf901faf901f5a00000000000000000000000000000000000000000000000000000000000000000a01dcc4de8dec75d7aab85b567b6ccd41ad312451b948a7413f0a142fd40d49347942adc25665018aa1fe0e6bc666dac8fc2697ff9baa0a0476debee3a16a3363735678b297401f63c3e9a6f64fc162566ad96c042602ea056e81f171bcc55a6ff8345e692c0f86e5b48e01b996cadc001622fb5e363b421a056e81f171bcc55a6ff8345e692c0f86e5b48e01b996cadc001622fb5e363b421b9010000000000000000000000000000000000000000000000000000000000000000000000000000000000000000000000000000000000000000000000000000000000000000000000000000000000000000000000000000000000000000000000000000000000000000000000000000000000000000000000000000000000000000000000000000000000000000000000000000000000000000000000000000000000000000000000000000000000000000000000000000000000000000000000000000000000000000000000000000000000000000000000000000000000000000000000000000000000000000000000000000000000000000000000000000000000830200008083989680808203b642a056e81f171bcc55a6ff8345e692c0f86e5b48e01b996cadc001622fb5e363b421880102030405060708c0c0",
        "lastblockhash" : "0x45ee2b4ab3fd01ce37b6eb058267737140e6deed75b9c3d8c00e9e02131fec85",
        "network" : "EIP150",
        "postState" : {
            "0x2adc25665018aa1fe0e6bc666dac8fc2697ff9ba" : {
                "balance" : "0x4563918244f586a0",
                "code" : "",
                "nonce" : "0x00",
                "storage" : {
                }
            },
            "0xa94f5374fce5edbc8e2a8697c15331677e6ebf0b" : {
                "balance" : "0xe8d4a38960",
                "code" : "",
                "nonce" : "0x01",
                "storage" : {
                }
            },
            "0xb94f5374fce5edbc8e2a8697c15331677e6ebf0b" : {
                "balance" : "0x00",
                "code" : "0x600060006000600073c94f5374fce5edbc8e2a8697c15331677e6ebf0b619c40fa50600c600255600c600355600c6004555a606455",
                "nonce" : "0x00",
                "storage" : {
                }
            },
            "0xc94f5374fce5edbc8e2a8697c15331677e6ebf0b" : {
                "balance" : "0x00",
                "code" : "0x73c94f5374fce5edbc8e2a8697c15331677e6ebf0bff",
                "nonce" : "0x00",
                "storage" : {
                }
            }
        },
        "pre" : {
            "0xa94f5374fce5edbc8e2a8697c15331677e6ebf0b" : {
                "balance" : "0xe8d4a51000",
                "code" : "",
                "nonce" : "0x00",
                "storage" : {
                }
            },
            "0xb94f5374fce5edbc8e2a8697c15331677e6ebf0b" : {
                "balance" : "0x00",
                "code" : "0x600060006000600073c94f5374fce5edbc8e2a8697c15331677e6ebf0b619c40fa50600c600255600c600355600c6004555a606455",
                "nonce" : "0x00",
                "storage" : {
                }
            },
            "0xc94f5374fce5edbc8e2a8697c15331677e6ebf0b" : {
                "balance" : "0x00",
                "code" : "0x73c94f5374fce5edbc8e2a8697c15331677e6ebf0bff",
                "nonce" : "0x00",
                "storage" : {
                }
            }
        }
    },
    "static_ZeroValue_SUICIDE_OOGRevert_d0g0v0_EIP158" : {
        "_info" : {
            "comment" : "",
            "filledwith" : "cpp-1.3.0+commit.6e0ce939.Linux.g++",
            "lllcversion" : "Version: 0.4.18-develop.2017.9.25+commit.a72237f2.Linux.g++",
            "source" : "src/BlockchainTestsFiller/GeneralStateTests/stStaticCall/static_ZeroValue_SUICIDE_OOGRevert_d0g0v0Filler.json",
            "sourceHash" : "1f86b926836b21f00f6ee525156b8cf74746d10db9ce1372cf8264c6d722e86e"
        },
        "blocks" : [
            {
                "blockHeader" : {
                    "bloom" : "0x00000000000000000000000000000000000000000000000000000000000000000000000000000000000000000000000000000000000000000000000000000000000000000000000000000000000000000000000000000000000000000000000000000000000000000000000000000000000000000000000000000000000000000000000000000000000000000000000000000000000000000000000000000000000000000000000000000000000000000000000000000000000000000000000000000000000000000000000000000000000000000000000000000000000000000000000000000000000000000000000000000000000000000000000000000000",
                    "coinbase" : "0x2adc25665018aa1fe0e6bc666dac8fc2697ff9ba",
                    "difficulty" : "0x020000",
                    "extraData" : "",
                    "gasLimit" : "0x989680",
                    "gasUsed" : "0x0186a0",
                    "hash" : "0xfcf4047532058d47fe73c49ed54283279eb2e790e69947d1eb214043d3e37fa6",
                    "mixHash" : "0xd3a13a7834f6c9c7599e37f3ca9a8075207778dabbb953d979f6956f128be102",
                    "nonce" : "0x31a3ee0774a04278",
                    "number" : "0x01",
                    "parentHash" : "0x1f1b15448da77af47c10b04fb9806d2b246a6275ad5c90e2d95dc9452b1b9b34",
                    "receiptTrie" : "0x5fbd8bf5ddcbb6c1fc87b81526d30fa86e70090b191c3623b5af1939b4a3de94",
                    "stateRoot" : "0x8890ce3e2c5903f3a3426d8980595f0610be0668b9906153c1c97b2b359f6450",
                    "timestamp" : "0x03e8",
                    "transactionsTrie" : "0x35d0179810f808ab57286e10ad2d3c6cec1bd53fd556e8c08e759cd2a022e2fa",
                    "uncleHash" : "0x1dcc4de8dec75d7aab85b567b6ccd41ad312451b948a7413f0a142fd40d49347"
                },
                "rlp" : "0xf90260f901f8a01f1b15448da77af47c10b04fb9806d2b246a6275ad5c90e2d95dc9452b1b9b34a01dcc4de8dec75d7aab85b567b6ccd41ad312451b948a7413f0a142fd40d49347942adc25665018aa1fe0e6bc666dac8fc2697ff9baa08890ce3e2c5903f3a3426d8980595f0610be0668b9906153c1c97b2b359f6450a035d0179810f808ab57286e10ad2d3c6cec1bd53fd556e8c08e759cd2a022e2faa05fbd8bf5ddcbb6c1fc87b81526d30fa86e70090b191c3623b5af1939b4a3de94b9010000000000000000000000000000000000000000000000000000000000000000000000000000000000000000000000000000000000000000000000000000000000000000000000000000000000000000000000000000000000000000000000000000000000000000000000000000000000000000000000000000000000000000000000000000000000000000000000000000000000000000000000000000000000000000000000000000000000000000000000000000000000000000000000000000000000000000000000000000000000000000000000000000000000000000000000000000000000000000000000000000000000000000000000000000000000830200000183989680830186a08203e880a0d3a13a7834f6c9c7599e37f3ca9a8075207778dabbb953d979f6956f128be1028831a3ee0774a04278f862f8608001830186a094b94f5374fce5edbc8e2a8697c15331677e6ebf0b80801ca083ab9a4b442353a1c16e436911c07e3727e3b8e22f682d6dc9fa2ed86bdb5317a04659371aed349c8145fc7dd61b924223d30b1c59a9994d8789495ca7ff1c4e15c0",
                "transactions" : [
                    {
                        "data" : "",
                        "gasLimit" : "0x0186a0",
                        "gasPrice" : "0x01",
                        "nonce" : "0x00",
                        "r" : "0x83ab9a4b442353a1c16e436911c07e3727e3b8e22f682d6dc9fa2ed86bdb5317",
                        "s" : "0x4659371aed349c8145fc7dd61b924223d30b1c59a9994d8789495ca7ff1c4e15",
                        "to" : "0xb94f5374fce5edbc8e2a8697c15331677e6ebf0b",
                        "v" : "0x1c",
                        "value" : "0x00"
                    }
                ],
                "uncleHeaders" : [
                ]
            }
        ],
        "genesisBlockHeader" : {
            "bloom" : "0x00000000000000000000000000000000000000000000000000000000000000000000000000000000000000000000000000000000000000000000000000000000000000000000000000000000000000000000000000000000000000000000000000000000000000000000000000000000000000000000000000000000000000000000000000000000000000000000000000000000000000000000000000000000000000000000000000000000000000000000000000000000000000000000000000000000000000000000000000000000000000000000000000000000000000000000000000000000000000000000000000000000000000000000000000000000",
            "coinbase" : "0x2adc25665018aa1fe0e6bc666dac8fc2697ff9ba",
            "difficulty" : "0x020000",
            "extraData" : "0x42",
            "gasLimit" : "0x989680",
            "gasUsed" : "0x00",
            "hash" : "0x1f1b15448da77af47c10b04fb9806d2b246a6275ad5c90e2d95dc9452b1b9b34",
            "mixHash" : "0x56e81f171bcc55a6ff8345e692c0f86e5b48e01b996cadc001622fb5e363b421",
            "nonce" : "0x0102030405060708",
            "number" : "0x00",
            "parentHash" : "0x0000000000000000000000000000000000000000000000000000000000000000",
            "receiptTrie" : "0x56e81f171bcc55a6ff8345e692c0f86e5b48e01b996cadc001622fb5e363b421",
            "stateRoot" : "0xa0476debee3a16a3363735678b297401f63c3e9a6f64fc162566ad96c042602e",
            "timestamp" : "0x03b6",
            "transactionsTrie" : "0x56e81f171bcc55a6ff8345e692c0f86e5b48e01b996cadc001622fb5e363b421",
            "uncleHash" : "0x1dcc4de8dec75d7aab85b567b6ccd41ad312451b948a7413f0a142fd40d49347"
        },
        "genesisRLP" : "0xf901faf901f5a00000000000000000000000000000000000000000000000000000000000000000a01dcc4de8dec75d7aab85b567b6ccd41ad312451b948a7413f0a142fd40d49347942adc25665018aa1fe0e6bc666dac8fc2697ff9baa0a0476debee3a16a3363735678b297401f63c3e9a6f64fc162566ad96c042602ea056e81f171bcc55a6ff8345e692c0f86e5b48e01b996cadc001622fb5e363b421a056e81f171bcc55a6ff8345e692c0f86e5b48e01b996cadc001622fb5e363b421b9010000000000000000000000000000000000000000000000000000000000000000000000000000000000000000000000000000000000000000000000000000000000000000000000000000000000000000000000000000000000000000000000000000000000000000000000000000000000000000000000000000000000000000000000000000000000000000000000000000000000000000000000000000000000000000000000000000000000000000000000000000000000000000000000000000000000000000000000000000000000000000000000000000000000000000000000000000000000000000000000000000000000000000000000000000000000830200008083989680808203b642a056e81f171bcc55a6ff8345e692c0f86e5b48e01b996cadc001622fb5e363b421880102030405060708c0c0",
        "lastblockhash" : "0xfcf4047532058d47fe73c49ed54283279eb2e790e69947d1eb214043d3e37fa6",
        "network" : "EIP158",
        "postState" : {
            "0x2adc25665018aa1fe0e6bc666dac8fc2697ff9ba" : {
                "balance" : "0x4563918244f586a0",
                "code" : "",
                "nonce" : "0x00",
                "storage" : {
                }
            },
            "0xa94f5374fce5edbc8e2a8697c15331677e6ebf0b" : {
                "balance" : "0xe8d4a38960",
                "code" : "",
                "nonce" : "0x01",
                "storage" : {
                }
            },
            "0xb94f5374fce5edbc8e2a8697c15331677e6ebf0b" : {
                "balance" : "0x00",
                "code" : "0x600060006000600073c94f5374fce5edbc8e2a8697c15331677e6ebf0b619c40fa50600c600255600c600355600c6004555a606455",
                "nonce" : "0x00",
                "storage" : {
                }
            },
            "0xc94f5374fce5edbc8e2a8697c15331677e6ebf0b" : {
                "balance" : "0x00",
                "code" : "0x73c94f5374fce5edbc8e2a8697c15331677e6ebf0bff",
                "nonce" : "0x00",
                "storage" : {
                }
            }
        },
        "pre" : {
            "0xa94f5374fce5edbc8e2a8697c15331677e6ebf0b" : {
                "balance" : "0xe8d4a51000",
                "code" : "",
                "nonce" : "0x00",
                "storage" : {
                }
            },
            "0xb94f5374fce5edbc8e2a8697c15331677e6ebf0b" : {
                "balance" : "0x00",
                "code" : "0x600060006000600073c94f5374fce5edbc8e2a8697c15331677e6ebf0b619c40fa50600c600255600c600355600c6004555a606455",
                "nonce" : "0x00",
                "storage" : {
                }
            },
            "0xc94f5374fce5edbc8e2a8697c15331677e6ebf0b" : {
                "balance" : "0x00",
                "code" : "0x73c94f5374fce5edbc8e2a8697c15331677e6ebf0bff",
                "nonce" : "0x00",
                "storage" : {
                }
            }
        }
    },
    "static_ZeroValue_SUICIDE_OOGRevert_d0g0v0_Frontier" : {
        "_info" : {
            "comment" : "",
            "filledwith" : "cpp-1.3.0+commit.6e0ce939.Linux.g++",
            "lllcversion" : "Version: 0.4.18-develop.2017.9.25+commit.a72237f2.Linux.g++",
            "source" : "src/BlockchainTestsFiller/GeneralStateTests/stStaticCall/static_ZeroValue_SUICIDE_OOGRevert_d0g0v0Filler.json",
            "sourceHash" : "1f86b926836b21f00f6ee525156b8cf74746d10db9ce1372cf8264c6d722e86e"
        },
        "blocks" : [
            {
                "blockHeader" : {
                    "bloom" : "0x00000000000000000000000000000000000000000000000000000000000000000000000000000000000000000000000000000000000000000000000000000000000000000000000000000000000000000000000000000000000000000000000000000000000000000000000000000000000000000000000000000000000000000000000000000000000000000000000000000000000000000000000000000000000000000000000000000000000000000000000000000000000000000000000000000000000000000000000000000000000000000000000000000000000000000000000000000000000000000000000000000000000000000000000000000000",
                    "coinbase" : "0x2adc25665018aa1fe0e6bc666dac8fc2697ff9ba",
                    "difficulty" : "0x020000",
                    "extraData" : "",
                    "gasLimit" : "0x989680",
                    "gasUsed" : "0x0186a0",
                    "hash" : "0x28b8d781c1386c01a5a52b35bebca56a9b32d72271808cf7792ae89481a00ccc",
                    "mixHash" : "0x341ce68a9d04755285fc51ad099e76317d23d680b45504713743ef7833de153b",
                    "nonce" : "0x2baf60fe8d68c867",
                    "number" : "0x01",
                    "parentHash" : "0x1f1b15448da77af47c10b04fb9806d2b246a6275ad5c90e2d95dc9452b1b9b34",
                    "receiptTrie" : "0x5fbd8bf5ddcbb6c1fc87b81526d30fa86e70090b191c3623b5af1939b4a3de94",
                    "stateRoot" : "0x8890ce3e2c5903f3a3426d8980595f0610be0668b9906153c1c97b2b359f6450",
                    "timestamp" : "0x03e8",
                    "transactionsTrie" : "0x35d0179810f808ab57286e10ad2d3c6cec1bd53fd556e8c08e759cd2a022e2fa",
                    "uncleHash" : "0x1dcc4de8dec75d7aab85b567b6ccd41ad312451b948a7413f0a142fd40d49347"
                },
                "rlp" : "0xf90260f901f8a01f1b15448da77af47c10b04fb9806d2b246a6275ad5c90e2d95dc9452b1b9b34a01dcc4de8dec75d7aab85b567b6ccd41ad312451b948a7413f0a142fd40d49347942adc25665018aa1fe0e6bc666dac8fc2697ff9baa08890ce3e2c5903f3a3426d8980595f0610be0668b9906153c1c97b2b359f6450a035d0179810f808ab57286e10ad2d3c6cec1bd53fd556e8c08e759cd2a022e2faa05fbd8bf5ddcbb6c1fc87b81526d30fa86e70090b191c3623b5af1939b4a3de94b9010000000000000000000000000000000000000000000000000000000000000000000000000000000000000000000000000000000000000000000000000000000000000000000000000000000000000000000000000000000000000000000000000000000000000000000000000000000000000000000000000000000000000000000000000000000000000000000000000000000000000000000000000000000000000000000000000000000000000000000000000000000000000000000000000000000000000000000000000000000000000000000000000000000000000000000000000000000000000000000000000000000000000000000000000000000000830200000183989680830186a08203e880a0341ce68a9d04755285fc51ad099e76317d23d680b45504713743ef7833de153b882baf60fe8d68c867f862f8608001830186a094b94f5374fce5edbc8e2a8697c15331677e6ebf0b80801ca083ab9a4b442353a1c16e436911c07e3727e3b8e22f682d6dc9fa2ed86bdb5317a04659371aed349c8145fc7dd61b924223d30b1c59a9994d8789495ca7ff1c4e15c0",
                "transactions" : [
                    {
                        "data" : "",
                        "gasLimit" : "0x0186a0",
                        "gasPrice" : "0x01",
                        "nonce" : "0x00",
                        "r" : "0x83ab9a4b442353a1c16e436911c07e3727e3b8e22f682d6dc9fa2ed86bdb5317",
                        "s" : "0x4659371aed349c8145fc7dd61b924223d30b1c59a9994d8789495ca7ff1c4e15",
                        "to" : "0xb94f5374fce5edbc8e2a8697c15331677e6ebf0b",
                        "v" : "0x1c",
                        "value" : "0x00"
                    }
                ],
                "uncleHeaders" : [
                ]
            }
        ],
        "genesisBlockHeader" : {
            "bloom" : "0x00000000000000000000000000000000000000000000000000000000000000000000000000000000000000000000000000000000000000000000000000000000000000000000000000000000000000000000000000000000000000000000000000000000000000000000000000000000000000000000000000000000000000000000000000000000000000000000000000000000000000000000000000000000000000000000000000000000000000000000000000000000000000000000000000000000000000000000000000000000000000000000000000000000000000000000000000000000000000000000000000000000000000000000000000000000",
            "coinbase" : "0x2adc25665018aa1fe0e6bc666dac8fc2697ff9ba",
            "difficulty" : "0x020000",
            "extraData" : "0x42",
            "gasLimit" : "0x989680",
            "gasUsed" : "0x00",
            "hash" : "0x1f1b15448da77af47c10b04fb9806d2b246a6275ad5c90e2d95dc9452b1b9b34",
            "mixHash" : "0x56e81f171bcc55a6ff8345e692c0f86e5b48e01b996cadc001622fb5e363b421",
            "nonce" : "0x0102030405060708",
            "number" : "0x00",
            "parentHash" : "0x0000000000000000000000000000000000000000000000000000000000000000",
            "receiptTrie" : "0x56e81f171bcc55a6ff8345e692c0f86e5b48e01b996cadc001622fb5e363b421",
            "stateRoot" : "0xa0476debee3a16a3363735678b297401f63c3e9a6f64fc162566ad96c042602e",
            "timestamp" : "0x03b6",
            "transactionsTrie" : "0x56e81f171bcc55a6ff8345e692c0f86e5b48e01b996cadc001622fb5e363b421",
            "uncleHash" : "0x1dcc4de8dec75d7aab85b567b6ccd41ad312451b948a7413f0a142fd40d49347"
        },
        "genesisRLP" : "0xf901faf901f5a00000000000000000000000000000000000000000000000000000000000000000a01dcc4de8dec75d7aab85b567b6ccd41ad312451b948a7413f0a142fd40d49347942adc25665018aa1fe0e6bc666dac8fc2697ff9baa0a0476debee3a16a3363735678b297401f63c3e9a6f64fc162566ad96c042602ea056e81f171bcc55a6ff8345e692c0f86e5b48e01b996cadc001622fb5e363b421a056e81f171bcc55a6ff8345e692c0f86e5b48e01b996cadc001622fb5e363b421b9010000000000000000000000000000000000000000000000000000000000000000000000000000000000000000000000000000000000000000000000000000000000000000000000000000000000000000000000000000000000000000000000000000000000000000000000000000000000000000000000000000000000000000000000000000000000000000000000000000000000000000000000000000000000000000000000000000000000000000000000000000000000000000000000000000000000000000000000000000000000000000000000000000000000000000000000000000000000000000000000000000000000000000000000000000000000830200008083989680808203b642a056e81f171bcc55a6ff8345e692c0f86e5b48e01b996cadc001622fb5e363b421880102030405060708c0c0",
        "lastblockhash" : "0x28b8d781c1386c01a5a52b35bebca56a9b32d72271808cf7792ae89481a00ccc",
        "network" : "Frontier",
        "postState" : {
            "0x2adc25665018aa1fe0e6bc666dac8fc2697ff9ba" : {
                "balance" : "0x4563918244f586a0",
                "code" : "",
                "nonce" : "0x00",
                "storage" : {
                }
            },
            "0xa94f5374fce5edbc8e2a8697c15331677e6ebf0b" : {
                "balance" : "0xe8d4a38960",
                "code" : "",
                "nonce" : "0x01",
                "storage" : {
                }
            },
            "0xb94f5374fce5edbc8e2a8697c15331677e6ebf0b" : {
                "balance" : "0x00",
                "code" : "0x600060006000600073c94f5374fce5edbc8e2a8697c15331677e6ebf0b619c40fa50600c600255600c600355600c6004555a606455",
                "nonce" : "0x00",
                "storage" : {
                }
            },
            "0xc94f5374fce5edbc8e2a8697c15331677e6ebf0b" : {
                "balance" : "0x00",
                "code" : "0x73c94f5374fce5edbc8e2a8697c15331677e6ebf0bff",
                "nonce" : "0x00",
                "storage" : {
                }
            }
        },
        "pre" : {
            "0xa94f5374fce5edbc8e2a8697c15331677e6ebf0b" : {
                "balance" : "0xe8d4a51000",
                "code" : "",
                "nonce" : "0x00",
                "storage" : {
                }
            },
            "0xb94f5374fce5edbc8e2a8697c15331677e6ebf0b" : {
                "balance" : "0x00",
                "code" : "0x600060006000600073c94f5374fce5edbc8e2a8697c15331677e6ebf0b619c40fa50600c600255600c600355600c6004555a606455",
                "nonce" : "0x00",
                "storage" : {
                }
            },
            "0xc94f5374fce5edbc8e2a8697c15331677e6ebf0b" : {
                "balance" : "0x00",
                "code" : "0x73c94f5374fce5edbc8e2a8697c15331677e6ebf0bff",
                "nonce" : "0x00",
                "storage" : {
                }
            }
        }
    },
    "static_ZeroValue_SUICIDE_OOGRevert_d0g0v0_Homestead" : {
        "_info" : {
            "comment" : "",
            "filledwith" : "cpp-1.3.0+commit.6e0ce939.Linux.g++",
            "lllcversion" : "Version: 0.4.18-develop.2017.9.25+commit.a72237f2.Linux.g++",
            "source" : "src/BlockchainTestsFiller/GeneralStateTests/stStaticCall/static_ZeroValue_SUICIDE_OOGRevert_d0g0v0Filler.json",
            "sourceHash" : "1f86b926836b21f00f6ee525156b8cf74746d10db9ce1372cf8264c6d722e86e"
        },
        "blocks" : [
            {
                "blockHeader" : {
                    "bloom" : "0x00000000000000000000000000000000000000000000000000000000000000000000000000000000000000000000000000000000000000000000000000000000000000000000000000000000000000000000000000000000000000000000000000000000000000000000000000000000000000000000000000000000000000000000000000000000000000000000000000000000000000000000000000000000000000000000000000000000000000000000000000000000000000000000000000000000000000000000000000000000000000000000000000000000000000000000000000000000000000000000000000000000000000000000000000000000",
                    "coinbase" : "0x2adc25665018aa1fe0e6bc666dac8fc2697ff9ba",
                    "difficulty" : "0x020000",
                    "extraData" : "",
                    "gasLimit" : "0x989680",
                    "gasUsed" : "0x0186a0",
                    "hash" : "0x9e97b89f5c479121219506abdfe2e60aa92eaab3a5cfc1d5c2d888049ca4f89f",
                    "mixHash" : "0x2e8c99f3491a88466b9220131284373e27ff73f0e64acf0884533a2e35ef3ccf",
                    "nonce" : "0x698ed639d9525320",
                    "number" : "0x01",
                    "parentHash" : "0x1f1b15448da77af47c10b04fb9806d2b246a6275ad5c90e2d95dc9452b1b9b34",
                    "receiptTrie" : "0x5fbd8bf5ddcbb6c1fc87b81526d30fa86e70090b191c3623b5af1939b4a3de94",
                    "stateRoot" : "0x8890ce3e2c5903f3a3426d8980595f0610be0668b9906153c1c97b2b359f6450",
                    "timestamp" : "0x03e8",
                    "transactionsTrie" : "0x35d0179810f808ab57286e10ad2d3c6cec1bd53fd556e8c08e759cd2a022e2fa",
                    "uncleHash" : "0x1dcc4de8dec75d7aab85b567b6ccd41ad312451b948a7413f0a142fd40d49347"
                },
                "rlp" : "0xf90260f901f8a01f1b15448da77af47c10b04fb9806d2b246a6275ad5c90e2d95dc9452b1b9b34a01dcc4de8dec75d7aab85b567b6ccd41ad312451b948a7413f0a142fd40d49347942adc25665018aa1fe0e6bc666dac8fc2697ff9baa08890ce3e2c5903f3a3426d8980595f0610be0668b9906153c1c97b2b359f6450a035d0179810f808ab57286e10ad2d3c6cec1bd53fd556e8c08e759cd2a022e2faa05fbd8bf5ddcbb6c1fc87b81526d30fa86e70090b191c3623b5af1939b4a3de94b9010000000000000000000000000000000000000000000000000000000000000000000000000000000000000000000000000000000000000000000000000000000000000000000000000000000000000000000000000000000000000000000000000000000000000000000000000000000000000000000000000000000000000000000000000000000000000000000000000000000000000000000000000000000000000000000000000000000000000000000000000000000000000000000000000000000000000000000000000000000000000000000000000000000000000000000000000000000000000000000000000000000000000000000000000000000000830200000183989680830186a08203e880a02e8c99f3491a88466b9220131284373e27ff73f0e64acf0884533a2e35ef3ccf88698ed639d9525320f862f8608001830186a094b94f5374fce5edbc8e2a8697c15331677e6ebf0b80801ca083ab9a4b442353a1c16e436911c07e3727e3b8e22f682d6dc9fa2ed86bdb5317a04659371aed349c8145fc7dd61b924223d30b1c59a9994d8789495ca7ff1c4e15c0",
                "transactions" : [
                    {
                        "data" : "",
                        "gasLimit" : "0x0186a0",
                        "gasPrice" : "0x01",
                        "nonce" : "0x00",
                        "r" : "0x83ab9a4b442353a1c16e436911c07e3727e3b8e22f682d6dc9fa2ed86bdb5317",
                        "s" : "0x4659371aed349c8145fc7dd61b924223d30b1c59a9994d8789495ca7ff1c4e15",
                        "to" : "0xb94f5374fce5edbc8e2a8697c15331677e6ebf0b",
                        "v" : "0x1c",
                        "value" : "0x00"
                    }
                ],
                "uncleHeaders" : [
                ]
            }
        ],
        "genesisBlockHeader" : {
            "bloom" : "0x00000000000000000000000000000000000000000000000000000000000000000000000000000000000000000000000000000000000000000000000000000000000000000000000000000000000000000000000000000000000000000000000000000000000000000000000000000000000000000000000000000000000000000000000000000000000000000000000000000000000000000000000000000000000000000000000000000000000000000000000000000000000000000000000000000000000000000000000000000000000000000000000000000000000000000000000000000000000000000000000000000000000000000000000000000000",
            "coinbase" : "0x2adc25665018aa1fe0e6bc666dac8fc2697ff9ba",
            "difficulty" : "0x020000",
            "extraData" : "0x42",
            "gasLimit" : "0x989680",
            "gasUsed" : "0x00",
            "hash" : "0x1f1b15448da77af47c10b04fb9806d2b246a6275ad5c90e2d95dc9452b1b9b34",
            "mixHash" : "0x56e81f171bcc55a6ff8345e692c0f86e5b48e01b996cadc001622fb5e363b421",
            "nonce" : "0x0102030405060708",
            "number" : "0x00",
            "parentHash" : "0x0000000000000000000000000000000000000000000000000000000000000000",
            "receiptTrie" : "0x56e81f171bcc55a6ff8345e692c0f86e5b48e01b996cadc001622fb5e363b421",
            "stateRoot" : "0xa0476debee3a16a3363735678b297401f63c3e9a6f64fc162566ad96c042602e",
            "timestamp" : "0x03b6",
            "transactionsTrie" : "0x56e81f171bcc55a6ff8345e692c0f86e5b48e01b996cadc001622fb5e363b421",
            "uncleHash" : "0x1dcc4de8dec75d7aab85b567b6ccd41ad312451b948a7413f0a142fd40d49347"
        },
        "genesisRLP" : "0xf901faf901f5a00000000000000000000000000000000000000000000000000000000000000000a01dcc4de8dec75d7aab85b567b6ccd41ad312451b948a7413f0a142fd40d49347942adc25665018aa1fe0e6bc666dac8fc2697ff9baa0a0476debee3a16a3363735678b297401f63c3e9a6f64fc162566ad96c042602ea056e81f171bcc55a6ff8345e692c0f86e5b48e01b996cadc001622fb5e363b421a056e81f171bcc55a6ff8345e692c0f86e5b48e01b996cadc001622fb5e363b421b9010000000000000000000000000000000000000000000000000000000000000000000000000000000000000000000000000000000000000000000000000000000000000000000000000000000000000000000000000000000000000000000000000000000000000000000000000000000000000000000000000000000000000000000000000000000000000000000000000000000000000000000000000000000000000000000000000000000000000000000000000000000000000000000000000000000000000000000000000000000000000000000000000000000000000000000000000000000000000000000000000000000000000000000000000000000000830200008083989680808203b642a056e81f171bcc55a6ff8345e692c0f86e5b48e01b996cadc001622fb5e363b421880102030405060708c0c0",
        "lastblockhash" : "0x9e97b89f5c479121219506abdfe2e60aa92eaab3a5cfc1d5c2d888049ca4f89f",
        "network" : "Homestead",
        "postState" : {
            "0x2adc25665018aa1fe0e6bc666dac8fc2697ff9ba" : {
                "balance" : "0x4563918244f586a0",
                "code" : "",
                "nonce" : "0x00",
                "storage" : {
                }
            },
            "0xa94f5374fce5edbc8e2a8697c15331677e6ebf0b" : {
                "balance" : "0xe8d4a38960",
                "code" : "",
                "nonce" : "0x01",
                "storage" : {
                }
            },
            "0xb94f5374fce5edbc8e2a8697c15331677e6ebf0b" : {
                "balance" : "0x00",
                "code" : "0x600060006000600073c94f5374fce5edbc8e2a8697c15331677e6ebf0b619c40fa50600c600255600c600355600c6004555a606455",
                "nonce" : "0x00",
                "storage" : {
                }
            },
            "0xc94f5374fce5edbc8e2a8697c15331677e6ebf0b" : {
                "balance" : "0x00",
                "code" : "0x73c94f5374fce5edbc8e2a8697c15331677e6ebf0bff",
                "nonce" : "0x00",
                "storage" : {
                }
            }
        },
        "pre" : {
            "0xa94f5374fce5edbc8e2a8697c15331677e6ebf0b" : {
                "balance" : "0xe8d4a51000",
                "code" : "",
                "nonce" : "0x00",
                "storage" : {
                }
            },
            "0xb94f5374fce5edbc8e2a8697c15331677e6ebf0b" : {
                "balance" : "0x00",
                "code" : "0x600060006000600073c94f5374fce5edbc8e2a8697c15331677e6ebf0b619c40fa50600c600255600c600355600c6004555a606455",
                "nonce" : "0x00",
                "storage" : {
                }
            },
            "0xc94f5374fce5edbc8e2a8697c15331677e6ebf0b" : {
                "balance" : "0x00",
                "code" : "0x73c94f5374fce5edbc8e2a8697c15331677e6ebf0bff",
                "nonce" : "0x00",
                "storage" : {
                }
            }
        }
    }
}