{
    "static_callWithHighValueAndOOGatTxLevel_d0g0v0_Byzantium" : {
        "_info" : {
            "comment" : "",
            "filledwith" : "cpp-1.3.0+commit.6e0ce939.Linux.g++",
            "lllcversion" : "Version: 0.4.18-develop.2017.9.25+commit.a72237f2.Linux.g++",
            "source" : "src/BlockchainTestsFiller/GeneralStateTests/stStaticCall/static_callWithHighValueAndOOGatTxLevel_d0g0v0Filler.json",
            "sourceHash" : "9e005b92f60763d1d79f72aa0c46cca243c709ca1fc60ad87aa78f6d6377af66"
        },
        "blocks" : [
            {
                "blockHeader" : {
                    "bloom" : "0x00000000000000000000000000000000000000000000000000000000000000000000000000000000000000000000000000000000000000000000000000000000000000000000000000000000000000000000000000000000000000000000000000000000000000000000000000000000000000000000000000000000000000000000000000000000000000000000000000000000000000000000000000000000000000000000000000000000000000000000000000000000000000000000000000000000000000000000000000000000000000000000000000000000000000000000000000000000000000000000000000000000000000000000000000000000",
                    "coinbase" : "0x2adc25665018aa1fe0e6bc666dac8fc2697ff9ba",
                    "difficulty" : "0x020000",
                    "extraData" : "",
                    "gasLimit" : "0x01c9c380",
                    "gasUsed" : "0xb69f",
                    "hash" : "0x4e06f6217d1545f2935ae9603e0488e8b574ed3d38acefea0fa40b8a17b2347c",
                    "mixHash" : "0xbfbbda0475a904fd3dd5500d97134f4932b53868bc967cc1e8478cdbc61b9361",
                    "nonce" : "0x91c7b80ca188441b",
                    "number" : "0x01",
                    "parentHash" : "0x4db64c2b8febd1f325aa1427aa7642402450d927c8fdfa643d4362008d56f849",
                    "receiptTrie" : "0x8303f32c0f453858c14f7aa1b322f68ec8f6359439426fc169f4032212c04863",
                    "stateRoot" : "0x804e3f0b6247b65bd049a4892762d501d8c739dfec457ac4265ed26fb65deab2",
                    "timestamp" : "0x03e8",
                    "transactionsTrie" : "0x3c263f26889a2249612b8057a77007a00ad873cbf85ba2aced30b5c7feb1c8c8",
                    "uncleHash" : "0x1dcc4de8dec75d7aab85b567b6ccd41ad312451b948a7413f0a142fd40d49347"
                },
                "rlp" : "0xf90260f901f8a04db64c2b8febd1f325aa1427aa7642402450d927c8fdfa643d4362008d56f849a01dcc4de8dec75d7aab85b567b6ccd41ad312451b948a7413f0a142fd40d49347942adc25665018aa1fe0e6bc666dac8fc2697ff9baa0804e3f0b6247b65bd049a4892762d501d8c739dfec457ac4265ed26fb65deab2a03c263f26889a2249612b8057a77007a00ad873cbf85ba2aced30b5c7feb1c8c8a08303f32c0f453858c14f7aa1b322f68ec8f6359439426fc169f4032212c04863b901000000000000000000000000000000000000000000000000000000000000000000000000000000000000000000000000000000000000000000000000000000000000000000000000000000000000000000000000000000000000000000000000000000000000000000000000000000000000000000000000000000000000000000000000000000000000000000000000000000000000000000000000000000000000000000000000000000000000000000000000000000000000000000000000000000000000000000000000000000000000000000000000000000000000000000000000000000000000000000000000000000000000000000000000000000000083020000018401c9c38082b69f8203e880a0bfbbda0475a904fd3dd5500d97134f4932b53868bc967cc1e8478cdbc61b93618891c7b80ca188441bf862f8608001832dc6c094095e7baea6a6c7c4c2dfeb977efac326af552d8780801ba0c980cc618a5b9cb1ac487e6f794c548f104b18a5987b531cdf3f90d85b4d1557a05113d252a095f1b8a80121f08956f3af1d2ac155ea11d6ed81e1038166096668c0",
                "transactions" : [
                    {
                        "data" : "",
                        "gasLimit" : "0x2dc6c0",
                        "gasPrice" : "0x01",
                        "nonce" : "0x00",
                        "r" : "0xc980cc618a5b9cb1ac487e6f794c548f104b18a5987b531cdf3f90d85b4d1557",
                        "s" : "0x5113d252a095f1b8a80121f08956f3af1d2ac155ea11d6ed81e1038166096668",
                        "to" : "0x095e7baea6a6c7c4c2dfeb977efac326af552d87",
                        "v" : "0x1b",
                        "value" : "0x00"
                    }
                ],
                "uncleHeaders" : [
                ]
            }
        ],
        "genesisBlockHeader" : {
            "bloom" : "0x00000000000000000000000000000000000000000000000000000000000000000000000000000000000000000000000000000000000000000000000000000000000000000000000000000000000000000000000000000000000000000000000000000000000000000000000000000000000000000000000000000000000000000000000000000000000000000000000000000000000000000000000000000000000000000000000000000000000000000000000000000000000000000000000000000000000000000000000000000000000000000000000000000000000000000000000000000000000000000000000000000000000000000000000000000000",
            "coinbase" : "0x2adc25665018aa1fe0e6bc666dac8fc2697ff9ba",
            "difficulty" : "0x020000",
            "extraData" : "0x42",
            "gasLimit" : "0x01c9c380",
            "gasUsed" : "0x00",
            "hash" : "0x4db64c2b8febd1f325aa1427aa7642402450d927c8fdfa643d4362008d56f849",
            "mixHash" : "0x56e81f171bcc55a6ff8345e692c0f86e5b48e01b996cadc001622fb5e363b421",
            "nonce" : "0x0102030405060708",
            "number" : "0x00",
            "parentHash" : "0x0000000000000000000000000000000000000000000000000000000000000000",
            "receiptTrie" : "0x56e81f171bcc55a6ff8345e692c0f86e5b48e01b996cadc001622fb5e363b421",
            "stateRoot" : "0x0748f2cacd01808b22fa604a8f08fa1f492e375bcdc408f2de04819e71992694",
            "timestamp" : "0x03b6",
            "transactionsTrie" : "0x56e81f171bcc55a6ff8345e692c0f86e5b48e01b996cadc001622fb5e363b421",
            "uncleHash" : "0x1dcc4de8dec75d7aab85b567b6ccd41ad312451b948a7413f0a142fd40d49347"
        },
        "genesisRLP" : "0xf901fbf901f6a00000000000000000000000000000000000000000000000000000000000000000a01dcc4de8dec75d7aab85b567b6ccd41ad312451b948a7413f0a142fd40d49347942adc25665018aa1fe0e6bc666dac8fc2697ff9baa00748f2cacd01808b22fa604a8f08fa1f492e375bcdc408f2de04819e71992694a056e81f171bcc55a6ff8345e692c0f86e5b48e01b996cadc001622fb5e363b421a056e81f171bcc55a6ff8345e692c0f86e5b48e01b996cadc001622fb5e363b421b901000000000000000000000000000000000000000000000000000000000000000000000000000000000000000000000000000000000000000000000000000000000000000000000000000000000000000000000000000000000000000000000000000000000000000000000000000000000000000000000000000000000000000000000000000000000000000000000000000000000000000000000000000000000000000000000000000000000000000000000000000000000000000000000000000000000000000000000000000000000000000000000000000000000000000000000000000000000000000000000000000000000000000000000000000000000083020000808401c9c380808203b642a056e81f171bcc55a6ff8345e692c0f86e5b48e01b996cadc001622fb5e363b421880102030405060708c0c0",
        "lastblockhash" : "0x4e06f6217d1545f2935ae9603e0488e8b574ed3d38acefea0fa40b8a17b2347c",
        "network" : "Byzantium",
        "postState" : {
            "0x095e7baea6a6c7c4c2dfeb977efac326af552d87" : {
                "balance" : "0x0186a0",
                "code" : "0x600060006000600073945304eb96065b2a98b57a48a06ae28d285a71b5622dc6c1fa600055600051600155",
                "nonce" : "0x00",
                "storage" : {
                    "0x00" : "0x01"
                }
            },
            "0x2adc25665018aa1fe0e6bc666dac8fc2697ff9ba" : {
                "balance" : "0x29a2241af62cb69f",
                "code" : "",
                "nonce" : "0x00",
                "storage" : {
                }
            },
            "0x945304eb96065b2a98b57a48a06ae28d285a71b5" : {
                "balance" : "0x17",
                "code" : "0x603760005360026000f3",
                "nonce" : "0x00",
                "storage" : {
                }
            },
            "0xa94f5374fce5edbc8e2a8697c15331677e6ebf0b" : {
                "balance" : "0x0de0b6b3a7634961",
                "code" : "",
                "nonce" : "0x01",
                "storage" : {
                }
            }
        },
        "pre" : {
            "0x095e7baea6a6c7c4c2dfeb977efac326af552d87" : {
                "balance" : "0x0186a0",
                "code" : "0x600060006000600073945304eb96065b2a98b57a48a06ae28d285a71b5622dc6c1fa600055600051600155",
                "nonce" : "0x00",
                "storage" : {
                }
            },
            "0x945304eb96065b2a98b57a48a06ae28d285a71b5" : {
                "balance" : "0x17",
                "code" : "0x603760005360026000f3",
                "nonce" : "0x00",
                "storage" : {
                }
            },
            "0xa94f5374fce5edbc8e2a8697c15331677e6ebf0b" : {
                "balance" : "0x0de0b6b3a7640000",
                "code" : "",
                "nonce" : "0x00",
                "storage" : {
                }
            }
        }
    },
    "static_callWithHighValueAndOOGatTxLevel_d0g0v0_EIP150" : {
        "_info" : {
            "comment" : "",
            "filledwith" : "cpp-1.3.0+commit.6e0ce939.Linux.g++",
            "lllcversion" : "Version: 0.4.18-develop.2017.9.25+commit.a72237f2.Linux.g++",
            "source" : "src/BlockchainTestsFiller/GeneralStateTests/stStaticCall/static_callWithHighValueAndOOGatTxLevel_d0g0v0Filler.json",
            "sourceHash" : "9e005b92f60763d1d79f72aa0c46cca243c709ca1fc60ad87aa78f6d6377af66"
        },
        "blocks" : [
            {
                "blockHeader" : {
                    "bloom" : "0x00000000000000000000000000000000000000000000000000000000000000000000000000000000000000000000000000000000000000000000000000000000000000000000000000000000000000000000000000000000000000000000000000000000000000000000000000000000000000000000000000000000000000000000000000000000000000000000000000000000000000000000000000000000000000000000000000000000000000000000000000000000000000000000000000000000000000000000000000000000000000000000000000000000000000000000000000000000000000000000000000000000000000000000000000000000",
                    "coinbase" : "0x2adc25665018aa1fe0e6bc666dac8fc2697ff9ba",
                    "difficulty" : "0x020000",
                    "extraData" : "",
                    "gasLimit" : "0x01c9c380",
                    "gasUsed" : "0x2dc6c0",
                    "hash" : "0xbbeaee52f0c13143e67e8cf50eb68f97991e436bc38139f599dc1cb2bb9ab983",
                    "mixHash" : "0xbe140772b030ca187906e4d5d980b45a4375ae831ee401610c0cf22af96aa995",
                    "nonce" : "0x8a856c3fa2a1a168",
                    "number" : "0x01",
                    "parentHash" : "0x4db64c2b8febd1f325aa1427aa7642402450d927c8fdfa643d4362008d56f849",
                    "receiptTrie" : "0x8350d94f60c2cbcfde0ccf334f424e256d59882b1f1509cac3cc36fbad70b6ca",
                    "stateRoot" : "0x6e24f001fcc50a933ef3d986acc742da40f644f89f617c1485ad61582b736b7d",
                    "timestamp" : "0x03e8",
                    "transactionsTrie" : "0x3c263f26889a2249612b8057a77007a00ad873cbf85ba2aced30b5c7feb1c8c8",
                    "uncleHash" : "0x1dcc4de8dec75d7aab85b567b6ccd41ad312451b948a7413f0a142fd40d49347"
                },
                "rlp" : "0xf90261f901f9a04db64c2b8febd1f325aa1427aa7642402450d927c8fdfa643d4362008d56f849a01dcc4de8dec75d7aab85b567b6ccd41ad312451b948a7413f0a142fd40d49347942adc25665018aa1fe0e6bc666dac8fc2697ff9baa06e24f001fcc50a933ef3d986acc742da40f644f89f617c1485ad61582b736b7da03c263f26889a2249612b8057a77007a00ad873cbf85ba2aced30b5c7feb1c8c8a08350d94f60c2cbcfde0ccf334f424e256d59882b1f1509cac3cc36fbad70b6cab901000000000000000000000000000000000000000000000000000000000000000000000000000000000000000000000000000000000000000000000000000000000000000000000000000000000000000000000000000000000000000000000000000000000000000000000000000000000000000000000000000000000000000000000000000000000000000000000000000000000000000000000000000000000000000000000000000000000000000000000000000000000000000000000000000000000000000000000000000000000000000000000000000000000000000000000000000000000000000000000000000000000000000000000000000000000083020000018401c9c380832dc6c08203e880a0be140772b030ca187906e4d5d980b45a4375ae831ee401610c0cf22af96aa995888a856c3fa2a1a168f862f8608001832dc6c094095e7baea6a6c7c4c2dfeb977efac326af552d8780801ba0c980cc618a5b9cb1ac487e6f794c548f104b18a5987b531cdf3f90d85b4d1557a05113d252a095f1b8a80121f08956f3af1d2ac155ea11d6ed81e1038166096668c0",
                "transactions" : [
                    {
                        "data" : "",
                        "gasLimit" : "0x2dc6c0",
                        "gasPrice" : "0x01",
                        "nonce" : "0x00",
                        "r" : "0xc980cc618a5b9cb1ac487e6f794c548f104b18a5987b531cdf3f90d85b4d1557",
                        "s" : "0x5113d252a095f1b8a80121f08956f3af1d2ac155ea11d6ed81e1038166096668",
                        "to" : "0x095e7baea6a6c7c4c2dfeb977efac326af552d87",
                        "v" : "0x1b",
                        "value" : "0x00"
                    }
                ],
                "uncleHeaders" : [
                ]
            }
        ],
        "genesisBlockHeader" : {
            "bloom" : "0x00000000000000000000000000000000000000000000000000000000000000000000000000000000000000000000000000000000000000000000000000000000000000000000000000000000000000000000000000000000000000000000000000000000000000000000000000000000000000000000000000000000000000000000000000000000000000000000000000000000000000000000000000000000000000000000000000000000000000000000000000000000000000000000000000000000000000000000000000000000000000000000000000000000000000000000000000000000000000000000000000000000000000000000000000000000",
            "coinbase" : "0x2adc25665018aa1fe0e6bc666dac8fc2697ff9ba",
            "difficulty" : "0x020000",
            "extraData" : "0x42",
            "gasLimit" : "0x01c9c380",
            "gasUsed" : "0x00",
            "hash" : "0x4db64c2b8febd1f325aa1427aa7642402450d927c8fdfa643d4362008d56f849",
            "mixHash" : "0x56e81f171bcc55a6ff8345e692c0f86e5b48e01b996cadc001622fb5e363b421",
            "nonce" : "0x0102030405060708",
            "number" : "0x00",
            "parentHash" : "0x0000000000000000000000000000000000000000000000000000000000000000",
            "receiptTrie" : "0x56e81f171bcc55a6ff8345e692c0f86e5b48e01b996cadc001622fb5e363b421",
            "stateRoot" : "0x0748f2cacd01808b22fa604a8f08fa1f492e375bcdc408f2de04819e71992694",
            "timestamp" : "0x03b6",
            "transactionsTrie" : "0x56e81f171bcc55a6ff8345e692c0f86e5b48e01b996cadc001622fb5e363b421",
            "uncleHash" : "0x1dcc4de8dec75d7aab85b567b6ccd41ad312451b948a7413f0a142fd40d49347"
        },
        "genesisRLP" : "0xf901fbf901f6a00000000000000000000000000000000000000000000000000000000000000000a01dcc4de8dec75d7aab85b567b6ccd41ad312451b948a7413f0a142fd40d49347942adc25665018aa1fe0e6bc666dac8fc2697ff9baa00748f2cacd01808b22fa604a8f08fa1f492e375bcdc408f2de04819e71992694a056e81f171bcc55a6ff8345e692c0f86e5b48e01b996cadc001622fb5e363b421a056e81f171bcc55a6ff8345e692c0f86e5b48e01b996cadc001622fb5e363b421b901000000000000000000000000000000000000000000000000000000000000000000000000000000000000000000000000000000000000000000000000000000000000000000000000000000000000000000000000000000000000000000000000000000000000000000000000000000000000000000000000000000000000000000000000000000000000000000000000000000000000000000000000000000000000000000000000000000000000000000000000000000000000000000000000000000000000000000000000000000000000000000000000000000000000000000000000000000000000000000000000000000000000000000000000000000000083020000808401c9c380808203b642a056e81f171bcc55a6ff8345e692c0f86e5b48e01b996cadc001622fb5e363b421880102030405060708c0c0",
        "lastblockhash" : "0xbbeaee52f0c13143e67e8cf50eb68f97991e436bc38139f599dc1cb2bb9ab983",
        "network" : "EIP150",
        "postState" : {
            "0x095e7baea6a6c7c4c2dfeb977efac326af552d87" : {
                "balance" : "0x0186a0",
                "code" : "0x600060006000600073945304eb96065b2a98b57a48a06ae28d285a71b5622dc6c1fa600055600051600155",
                "nonce" : "0x00",
                "storage" : {
                }
            },
            "0x2adc25665018aa1fe0e6bc666dac8fc2697ff9ba" : {
                "balance" : "0x456391824521c6c0",
                "code" : "",
                "nonce" : "0x00",
                "storage" : {
                }
            },
            "0x945304eb96065b2a98b57a48a06ae28d285a71b5" : {
                "balance" : "0x17",
                "code" : "0x603760005360026000f3",
                "nonce" : "0x00",
                "storage" : {
                }
            },
            "0xa94f5374fce5edbc8e2a8697c15331677e6ebf0b" : {
                "balance" : "0x0de0b6b3a7363940",
                "code" : "",
                "nonce" : "0x01",
                "storage" : {
                }
            }
        },
        "pre" : {
            "0x095e7baea6a6c7c4c2dfeb977efac326af552d87" : {
                "balance" : "0x0186a0",
                "code" : "0x600060006000600073945304eb96065b2a98b57a48a06ae28d285a71b5622dc6c1fa600055600051600155",
                "nonce" : "0x00",
                "storage" : {
                }
            },
            "0x945304eb96065b2a98b57a48a06ae28d285a71b5" : {
                "balance" : "0x17",
                "code" : "0x603760005360026000f3",
                "nonce" : "0x00",
                "storage" : {
                }
            },
            "0xa94f5374fce5edbc8e2a8697c15331677e6ebf0b" : {
                "balance" : "0x0de0b6b3a7640000",
                "code" : "",
                "nonce" : "0x00",
                "storage" : {
                }
            }
        }
    },
    "static_callWithHighValueAndOOGatTxLevel_d0g0v0_EIP158" : {
        "_info" : {
            "comment" : "",
            "filledwith" : "cpp-1.3.0+commit.6e0ce939.Linux.g++",
            "lllcversion" : "Version: 0.4.18-develop.2017.9.25+commit.a72237f2.Linux.g++",
            "source" : "src/BlockchainTestsFiller/GeneralStateTests/stStaticCall/static_callWithHighValueAndOOGatTxLevel_d0g0v0Filler.json",
            "sourceHash" : "9e005b92f60763d1d79f72aa0c46cca243c709ca1fc60ad87aa78f6d6377af66"
        },
        "blocks" : [
            {
                "blockHeader" : {
                    "bloom" : "0x00000000000000000000000000000000000000000000000000000000000000000000000000000000000000000000000000000000000000000000000000000000000000000000000000000000000000000000000000000000000000000000000000000000000000000000000000000000000000000000000000000000000000000000000000000000000000000000000000000000000000000000000000000000000000000000000000000000000000000000000000000000000000000000000000000000000000000000000000000000000000000000000000000000000000000000000000000000000000000000000000000000000000000000000000000000",
                    "coinbase" : "0x2adc25665018aa1fe0e6bc666dac8fc2697ff9ba",
                    "difficulty" : "0x020000",
                    "extraData" : "",
                    "gasLimit" : "0x01c9c380",
                    "gasUsed" : "0x2dc6c0",
                    "hash" : "0xeaff625d3284c82450ab030446659c17bbf93043278b841eb2ce9b770371504d",
                    "mixHash" : "0xc0a4bcaf81b8d86a34cfe647dc11c45e5b418e78de361bdb01bc347e1de4805f",
                    "nonce" : "0xd083e16a771905b1",
                    "number" : "0x01",
                    "parentHash" : "0x4db64c2b8febd1f325aa1427aa7642402450d927c8fdfa643d4362008d56f849",
                    "receiptTrie" : "0x8350d94f60c2cbcfde0ccf334f424e256d59882b1f1509cac3cc36fbad70b6ca",
                    "stateRoot" : "0x6e24f001fcc50a933ef3d986acc742da40f644f89f617c1485ad61582b736b7d",
                    "timestamp" : "0x03e8",
                    "transactionsTrie" : "0x3c263f26889a2249612b8057a77007a00ad873cbf85ba2aced30b5c7feb1c8c8",
                    "uncleHash" : "0x1dcc4de8dec75d7aab85b567b6ccd41ad312451b948a7413f0a142fd40d49347"
                },
                "rlp" : "0xf90261f901f9a04db64c2b8febd1f325aa1427aa7642402450d927c8fdfa643d4362008d56f849a01dcc4de8dec75d7aab85b567b6ccd41ad312451b948a7413f0a142fd40d49347942adc25665018aa1fe0e6bc666dac8fc2697ff9baa06e24f001fcc50a933ef3d986acc742da40f644f89f617c1485ad61582b736b7da03c263f26889a2249612b8057a77007a00ad873cbf85ba2aced30b5c7feb1c8c8a08350d94f60c2cbcfde0ccf334f424e256d59882b1f1509cac3cc36fbad70b6cab901000000000000000000000000000000000000000000000000000000000000000000000000000000000000000000000000000000000000000000000000000000000000000000000000000000000000000000000000000000000000000000000000000000000000000000000000000000000000000000000000000000000000000000000000000000000000000000000000000000000000000000000000000000000000000000000000000000000000000000000000000000000000000000000000000000000000000000000000000000000000000000000000000000000000000000000000000000000000000000000000000000000000000000000000000000000083020000018401c9c380832dc6c08203e880a0c0a4bcaf81b8d86a34cfe647dc11c45e5b418e78de361bdb01bc347e1de4805f88d083e16a771905b1f862f8608001832dc6c094095e7baea6a6c7c4c2dfeb977efac326af552d8780801ba0c980cc618a5b9cb1ac487e6f794c548f104b18a5987b531cdf3f90d85b4d1557a05113d252a095f1b8a80121f08956f3af1d2ac155ea11d6ed81e1038166096668c0",
                "transactions" : [
                    {
                        "data" : "",
                        "gasLimit" : "0x2dc6c0",
                        "gasPrice" : "0x01",
                        "nonce" : "0x00",
                        "r" : "0xc980cc618a5b9cb1ac487e6f794c548f104b18a5987b531cdf3f90d85b4d1557",
                        "s" : "0x5113d252a095f1b8a80121f08956f3af1d2ac155ea11d6ed81e1038166096668",
                        "to" : "0x095e7baea6a6c7c4c2dfeb977efac326af552d87",
                        "v" : "0x1b",
                        "value" : "0x00"
                    }
                ],
                "uncleHeaders" : [
                ]
            }
        ],
        "genesisBlockHeader" : {
            "bloom" : "0x00000000000000000000000000000000000000000000000000000000000000000000000000000000000000000000000000000000000000000000000000000000000000000000000000000000000000000000000000000000000000000000000000000000000000000000000000000000000000000000000000000000000000000000000000000000000000000000000000000000000000000000000000000000000000000000000000000000000000000000000000000000000000000000000000000000000000000000000000000000000000000000000000000000000000000000000000000000000000000000000000000000000000000000000000000000",
            "coinbase" : "0x2adc25665018aa1fe0e6bc666dac8fc2697ff9ba",
            "difficulty" : "0x020000",
            "extraData" : "0x42",
            "gasLimit" : "0x01c9c380",
            "gasUsed" : "0x00",
            "hash" : "0x4db64c2b8febd1f325aa1427aa7642402450d927c8fdfa643d4362008d56f849",
            "mixHash" : "0x56e81f171bcc55a6ff8345e692c0f86e5b48e01b996cadc001622fb5e363b421",
            "nonce" : "0x0102030405060708",
            "number" : "0x00",
            "parentHash" : "0x0000000000000000000000000000000000000000000000000000000000000000",
            "receiptTrie" : "0x56e81f171bcc55a6ff8345e692c0f86e5b48e01b996cadc001622fb5e363b421",
            "stateRoot" : "0x0748f2cacd01808b22fa604a8f08fa1f492e375bcdc408f2de04819e71992694",
            "timestamp" : "0x03b6",
            "transactionsTrie" : "0x56e81f171bcc55a6ff8345e692c0f86e5b48e01b996cadc001622fb5e363b421",
            "uncleHash" : "0x1dcc4de8dec75d7aab85b567b6ccd41ad312451b948a7413f0a142fd40d49347"
        },
        "genesisRLP" : "0xf901fbf901f6a00000000000000000000000000000000000000000000000000000000000000000a01dcc4de8dec75d7aab85b567b6ccd41ad312451b948a7413f0a142fd40d49347942adc25665018aa1fe0e6bc666dac8fc2697ff9baa00748f2cacd01808b22fa604a8f08fa1f492e375bcdc408f2de04819e71992694a056e81f171bcc55a6ff8345e692c0f86e5b48e01b996cadc001622fb5e363b421a056e81f171bcc55a6ff8345e692c0f86e5b48e01b996cadc001622fb5e363b421b901000000000000000000000000000000000000000000000000000000000000000000000000000000000000000000000000000000000000000000000000000000000000000000000000000000000000000000000000000000000000000000000000000000000000000000000000000000000000000000000000000000000000000000000000000000000000000000000000000000000000000000000000000000000000000000000000000000000000000000000000000000000000000000000000000000000000000000000000000000000000000000000000000000000000000000000000000000000000000000000000000000000000000000000000000000000083020000808401c9c380808203b642a056e81f171bcc55a6ff8345e692c0f86e5b48e01b996cadc001622fb5e363b421880102030405060708c0c0",
        "lastblockhash" : "0xeaff625d3284c82450ab030446659c17bbf93043278b841eb2ce9b770371504d",
        "network" : "EIP158",
        "postState" : {
            "0x095e7baea6a6c7c4c2dfeb977efac326af552d87" : {
                "balance" : "0x0186a0",
                "code" : "0x600060006000600073945304eb96065b2a98b57a48a06ae28d285a71b5622dc6c1fa600055600051600155",
                "nonce" : "0x00",
                "storage" : {
                }
            },
            "0x2adc25665018aa1fe0e6bc666dac8fc2697ff9ba" : {
                "balance" : "0x456391824521c6c0",
                "code" : "",
                "nonce" : "0x00",
                "storage" : {
                }
            },
            "0x945304eb96065b2a98b57a48a06ae28d285a71b5" : {
                "balance" : "0x17",
                "code" : "0x603760005360026000f3",
                "nonce" : "0x00",
                "storage" : {
                }
            },
            "0xa94f5374fce5edbc8e2a8697c15331677e6ebf0b" : {
                "balance" : "0x0de0b6b3a7363940",
                "code" : "",
                "nonce" : "0x01",
                "storage" : {
                }
            }
        },
        "pre" : {
            "0x095e7baea6a6c7c4c2dfeb977efac326af552d87" : {
                "balance" : "0x0186a0",
                "code" : "0x600060006000600073945304eb96065b2a98b57a48a06ae28d285a71b5622dc6c1fa600055600051600155",
                "nonce" : "0x00",
                "storage" : {
                }
            },
            "0x945304eb96065b2a98b57a48a06ae28d285a71b5" : {
                "balance" : "0x17",
                "code" : "0x603760005360026000f3",
                "nonce" : "0x00",
                "storage" : {
                }
            },
            "0xa94f5374fce5edbc8e2a8697c15331677e6ebf0b" : {
                "balance" : "0x0de0b6b3a7640000",
                "code" : "",
                "nonce" : "0x00",
                "storage" : {
                }
            }
        }
    },
    "static_callWithHighValueAndOOGatTxLevel_d0g0v0_Frontier" : {
        "_info" : {
            "comment" : "",
            "filledwith" : "cpp-1.3.0+commit.6e0ce939.Linux.g++",
            "lllcversion" : "Version: 0.4.18-develop.2017.9.25+commit.a72237f2.Linux.g++",
            "source" : "src/BlockchainTestsFiller/GeneralStateTests/stStaticCall/static_callWithHighValueAndOOGatTxLevel_d0g0v0Filler.json",
            "sourceHash" : "9e005b92f60763d1d79f72aa0c46cca243c709ca1fc60ad87aa78f6d6377af66"
        },
        "blocks" : [
            {
                "blockHeader" : {
                    "bloom" : "0x00000000000000000000000000000000000000000000000000000000000000000000000000000000000000000000000000000000000000000000000000000000000000000000000000000000000000000000000000000000000000000000000000000000000000000000000000000000000000000000000000000000000000000000000000000000000000000000000000000000000000000000000000000000000000000000000000000000000000000000000000000000000000000000000000000000000000000000000000000000000000000000000000000000000000000000000000000000000000000000000000000000000000000000000000000000",
                    "coinbase" : "0x2adc25665018aa1fe0e6bc666dac8fc2697ff9ba",
                    "difficulty" : "0x020000",
                    "extraData" : "",
                    "gasLimit" : "0x01c9c380",
                    "gasUsed" : "0x2dc6c0",
                    "hash" : "0x08768640c7e67259632b1ed395ac90aeab3df12530d54dc732b3e4d3406d35cb",
                    "mixHash" : "0x936706387d5817132b36ddf8826dc85a0fe815e4859b82e267c2373af7af5e0b",
                    "nonce" : "0x1a488c39af48b231",
                    "number" : "0x01",
                    "parentHash" : "0x4db64c2b8febd1f325aa1427aa7642402450d927c8fdfa643d4362008d56f849",
                    "receiptTrie" : "0x8350d94f60c2cbcfde0ccf334f424e256d59882b1f1509cac3cc36fbad70b6ca",
                    "stateRoot" : "0x6e24f001fcc50a933ef3d986acc742da40f644f89f617c1485ad61582b736b7d",
                    "timestamp" : "0x03e8",
                    "transactionsTrie" : "0x3c263f26889a2249612b8057a77007a00ad873cbf85ba2aced30b5c7feb1c8c8",
                    "uncleHash" : "0x1dcc4de8dec75d7aab85b567b6ccd41ad312451b948a7413f0a142fd40d49347"
                },
                "rlp" : "0xf90261f901f9a04db64c2b8febd1f325aa1427aa7642402450d927c8fdfa643d4362008d56f849a01dcc4de8dec75d7aab85b567b6ccd41ad312451b948a7413f0a142fd40d49347942adc25665018aa1fe0e6bc666dac8fc2697ff9baa06e24f001fcc50a933ef3d986acc742da40f644f89f617c1485ad61582b736b7da03c263f26889a2249612b8057a77007a00ad873cbf85ba2aced30b5c7feb1c8c8a08350d94f60c2cbcfde0ccf334f424e256d59882b1f1509cac3cc36fbad70b6cab901000000000000000000000000000000000000000000000000000000000000000000000000000000000000000000000000000000000000000000000000000000000000000000000000000000000000000000000000000000000000000000000000000000000000000000000000000000000000000000000000000000000000000000000000000000000000000000000000000000000000000000000000000000000000000000000000000000000000000000000000000000000000000000000000000000000000000000000000000000000000000000000000000000000000000000000000000000000000000000000000000000000000000000000000000000000083020000018401c9c380832dc6c08203e880a0936706387d5817132b36ddf8826dc85a0fe815e4859b82e267c2373af7af5e0b881a488c39af48b231f862f8608001832dc6c094095e7baea6a6c7c4c2dfeb977efac326af552d8780801ba0c980cc618a5b9cb1ac487e6f794c548f104b18a5987b531cdf3f90d85b4d1557a05113d252a095f1b8a80121f08956f3af1d2ac155ea11d6ed81e1038166096668c0",
                "transactions" : [
                    {
                        "data" : "",
                        "gasLimit" : "0x2dc6c0",
                        "gasPrice" : "0x01",
                        "nonce" : "0x00",
                        "r" : "0xc980cc618a5b9cb1ac487e6f794c548f104b18a5987b531cdf3f90d85b4d1557",
                        "s" : "0x5113d252a095f1b8a80121f08956f3af1d2ac155ea11d6ed81e1038166096668",
                        "to" : "0x095e7baea6a6c7c4c2dfeb977efac326af552d87",
                        "v" : "0x1b",
                        "value" : "0x00"
                    }
                ],
                "uncleHeaders" : [
                ]
            }
        ],
        "genesisBlockHeader" : {
            "bloom" : "0x00000000000000000000000000000000000000000000000000000000000000000000000000000000000000000000000000000000000000000000000000000000000000000000000000000000000000000000000000000000000000000000000000000000000000000000000000000000000000000000000000000000000000000000000000000000000000000000000000000000000000000000000000000000000000000000000000000000000000000000000000000000000000000000000000000000000000000000000000000000000000000000000000000000000000000000000000000000000000000000000000000000000000000000000000000000",
            "coinbase" : "0x2adc25665018aa1fe0e6bc666dac8fc2697ff9ba",
            "difficulty" : "0x020000",
            "extraData" : "0x42",
            "gasLimit" : "0x01c9c380",
            "gasUsed" : "0x00",
            "hash" : "0x4db64c2b8febd1f325aa1427aa7642402450d927c8fdfa643d4362008d56f849",
            "mixHash" : "0x56e81f171bcc55a6ff8345e692c0f86e5b48e01b996cadc001622fb5e363b421",
            "nonce" : "0x0102030405060708",
            "number" : "0x00",
            "parentHash" : "0x0000000000000000000000000000000000000000000000000000000000000000",
            "receiptTrie" : "0x56e81f171bcc55a6ff8345e692c0f86e5b48e01b996cadc001622fb5e363b421",
            "stateRoot" : "0x0748f2cacd01808b22fa604a8f08fa1f492e375bcdc408f2de04819e71992694",
            "timestamp" : "0x03b6",
            "transactionsTrie" : "0x56e81f171bcc55a6ff8345e692c0f86e5b48e01b996cadc001622fb5e363b421",
            "uncleHash" : "0x1dcc4de8dec75d7aab85b567b6ccd41ad312451b948a7413f0a142fd40d49347"
        },
        "genesisRLP" : "0xf901fbf901f6a00000000000000000000000000000000000000000000000000000000000000000a01dcc4de8dec75d7aab85b567b6ccd41ad312451b948a7413f0a142fd40d49347942adc25665018aa1fe0e6bc666dac8fc2697ff9baa00748f2cacd01808b22fa604a8f08fa1f492e375bcdc408f2de04819e71992694a056e81f171bcc55a6ff8345e692c0f86e5b48e01b996cadc001622fb5e363b421a056e81f171bcc55a6ff8345e692c0f86e5b48e01b996cadc001622fb5e363b421b901000000000000000000000000000000000000000000000000000000000000000000000000000000000000000000000000000000000000000000000000000000000000000000000000000000000000000000000000000000000000000000000000000000000000000000000000000000000000000000000000000000000000000000000000000000000000000000000000000000000000000000000000000000000000000000000000000000000000000000000000000000000000000000000000000000000000000000000000000000000000000000000000000000000000000000000000000000000000000000000000000000000000000000000000000000000083020000808401c9c380808203b642a056e81f171bcc55a6ff8345e692c0f86e5b48e01b996cadc001622fb5e363b421880102030405060708c0c0",
        "lastblockhash" : "0x08768640c7e67259632b1ed395ac90aeab3df12530d54dc732b3e4d3406d35cb",
        "network" : "Frontier",
        "postState" : {
            "0x095e7baea6a6c7c4c2dfeb977efac326af552d87" : {
                "balance" : "0x0186a0",
                "code" : "0x600060006000600073945304eb96065b2a98b57a48a06ae28d285a71b5622dc6c1fa600055600051600155",
                "nonce" : "0x00",
                "storage" : {
                }
            },
            "0x2adc25665018aa1fe0e6bc666dac8fc2697ff9ba" : {
                "balance" : "0x456391824521c6c0",
                "code" : "",
                "nonce" : "0x00",
                "storage" : {
                }
            },
            "0x945304eb96065b2a98b57a48a06ae28d285a71b5" : {
                "balance" : "0x17",
                "code" : "0x603760005360026000f3",
                "nonce" : "0x00",
                "storage" : {
                }
            },
            "0xa94f5374fce5edbc8e2a8697c15331677e6ebf0b" : {
                "balance" : "0x0de0b6b3a7363940",
                "code" : "",
                "nonce" : "0x01",
                "storage" : {
                }
            }
        },
        "pre" : {
            "0x095e7baea6a6c7c4c2dfeb977efac326af552d87" : {
                "balance" : "0x0186a0",
                "code" : "0x600060006000600073945304eb96065b2a98b57a48a06ae28d285a71b5622dc6c1fa600055600051600155",
                "nonce" : "0x00",
                "storage" : {
                }
            },
            "0x945304eb96065b2a98b57a48a06ae28d285a71b5" : {
                "balance" : "0x17",
                "code" : "0x603760005360026000f3",
                "nonce" : "0x00",
                "storage" : {
                }
            },
            "0xa94f5374fce5edbc8e2a8697c15331677e6ebf0b" : {
                "balance" : "0x0de0b6b3a7640000",
                "code" : "",
                "nonce" : "0x00",
                "storage" : {
                }
            }
        }
    },
    "static_callWithHighValueAndOOGatTxLevel_d0g0v0_Homestead" : {
        "_info" : {
            "comment" : "",
            "filledwith" : "cpp-1.3.0+commit.6e0ce939.Linux.g++",
            "lllcversion" : "Version: 0.4.18-develop.2017.9.25+commit.a72237f2.Linux.g++",
            "source" : "src/BlockchainTestsFiller/GeneralStateTests/stStaticCall/static_callWithHighValueAndOOGatTxLevel_d0g0v0Filler.json",
            "sourceHash" : "9e005b92f60763d1d79f72aa0c46cca243c709ca1fc60ad87aa78f6d6377af66"
        },
        "blocks" : [
            {
                "blockHeader" : {
                    "bloom" : "0x00000000000000000000000000000000000000000000000000000000000000000000000000000000000000000000000000000000000000000000000000000000000000000000000000000000000000000000000000000000000000000000000000000000000000000000000000000000000000000000000000000000000000000000000000000000000000000000000000000000000000000000000000000000000000000000000000000000000000000000000000000000000000000000000000000000000000000000000000000000000000000000000000000000000000000000000000000000000000000000000000000000000000000000000000000000",
                    "coinbase" : "0x2adc25665018aa1fe0e6bc666dac8fc2697ff9ba",
                    "difficulty" : "0x020000",
                    "extraData" : "",
                    "gasLimit" : "0x01c9c380",
                    "gasUsed" : "0x2dc6c0",
                    "hash" : "0xd2b981fc118419c315bdd4ee8d8473d24fe920988244783628a6fad2402621e6",
                    "mixHash" : "0x1bf025d9b40b26f7037926620a750ac3781fb993afa0ba5e5d937448c7ee0c82",
                    "nonce" : "0xbfc622daaae2dfc2",
                    "number" : "0x01",
                    "parentHash" : "0x4db64c2b8febd1f325aa1427aa7642402450d927c8fdfa643d4362008d56f849",
                    "receiptTrie" : "0x8350d94f60c2cbcfde0ccf334f424e256d59882b1f1509cac3cc36fbad70b6ca",
                    "stateRoot" : "0x6e24f001fcc50a933ef3d986acc742da40f644f89f617c1485ad61582b736b7d",
                    "timestamp" : "0x03e8",
                    "transactionsTrie" : "0x3c263f26889a2249612b8057a77007a00ad873cbf85ba2aced30b5c7feb1c8c8",
                    "uncleHash" : "0x1dcc4de8dec75d7aab85b567b6ccd41ad312451b948a7413f0a142fd40d49347"
                },
                "rlp" : "0xf90261f901f9a04db64c2b8febd1f325aa1427aa7642402450d927c8fdfa643d4362008d56f849a01dcc4de8dec75d7aab85b567b6ccd41ad312451b948a7413f0a142fd40d49347942adc25665018aa1fe0e6bc666dac8fc2697ff9baa06e24f001fcc50a933ef3d986acc742da40f644f89f617c1485ad61582b736b7da03c263f26889a2249612b8057a77007a00ad873cbf85ba2aced30b5c7feb1c8c8a08350d94f60c2cbcfde0ccf334f424e256d59882b1f1509cac3cc36fbad70b6cab901000000000000000000000000000000000000000000000000000000000000000000000000000000000000000000000000000000000000000000000000000000000000000000000000000000000000000000000000000000000000000000000000000000000000000000000000000000000000000000000000000000000000000000000000000000000000000000000000000000000000000000000000000000000000000000000000000000000000000000000000000000000000000000000000000000000000000000000000000000000000000000000000000000000000000000000000000000000000000000000000000000000000000000000000000000000083020000018401c9c380832dc6c08203e880a01bf025d9b40b26f7037926620a750ac3781fb993afa0ba5e5d937448c7ee0c8288bfc622daaae2dfc2f862f8608001832dc6c094095e7baea6a6c7c4c2dfeb977efac326af552d8780801ba0c980cc618a5b9cb1ac487e6f794c548f104b18a5987b531cdf3f90d85b4d1557a05113d252a095f1b8a80121f08956f3af1d2ac155ea11d6ed81e1038166096668c0",
                "transactions" : [
                    {
                        "data" : "",
                        "gasLimit" : "0x2dc6c0",
                        "gasPrice" : "0x01",
                        "nonce" : "0x00",
                        "r" : "0xc980cc618a5b9cb1ac487e6f794c548f104b18a5987b531cdf3f90d85b4d1557",
                        "s" : "0x5113d252a095f1b8a80121f08956f3af1d2ac155ea11d6ed81e1038166096668",
                        "to" : "0x095e7baea6a6c7c4c2dfeb977efac326af552d87",
                        "v" : "0x1b",
                        "value" : "0x00"
                    }
                ],
                "uncleHeaders" : [
                ]
            }
        ],
        "genesisBlockHeader" : {
            "bloom" : "0x00000000000000000000000000000000000000000000000000000000000000000000000000000000000000000000000000000000000000000000000000000000000000000000000000000000000000000000000000000000000000000000000000000000000000000000000000000000000000000000000000000000000000000000000000000000000000000000000000000000000000000000000000000000000000000000000000000000000000000000000000000000000000000000000000000000000000000000000000000000000000000000000000000000000000000000000000000000000000000000000000000000000000000000000000000000",
            "coinbase" : "0x2adc25665018aa1fe0e6bc666dac8fc2697ff9ba",
            "difficulty" : "0x020000",
            "extraData" : "0x42",
            "gasLimit" : "0x01c9c380",
            "gasUsed" : "0x00",
            "hash" : "0x4db64c2b8febd1f325aa1427aa7642402450d927c8fdfa643d4362008d56f849",
            "mixHash" : "0x56e81f171bcc55a6ff8345e692c0f86e5b48e01b996cadc001622fb5e363b421",
            "nonce" : "0x0102030405060708",
            "number" : "0x00",
            "parentHash" : "0x0000000000000000000000000000000000000000000000000000000000000000",
            "receiptTrie" : "0x56e81f171bcc55a6ff8345e692c0f86e5b48e01b996cadc001622fb5e363b421",
            "stateRoot" : "0x0748f2cacd01808b22fa604a8f08fa1f492e375bcdc408f2de04819e71992694",
            "timestamp" : "0x03b6",
            "transactionsTrie" : "0x56e81f171bcc55a6ff8345e692c0f86e5b48e01b996cadc001622fb5e363b421",
            "uncleHash" : "0x1dcc4de8dec75d7aab85b567b6ccd41ad312451b948a7413f0a142fd40d49347"
        },
        "genesisRLP" : "0xf901fbf901f6a00000000000000000000000000000000000000000000000000000000000000000a01dcc4de8dec75d7aab85b567b6ccd41ad312451b948a7413f0a142fd40d49347942adc25665018aa1fe0e6bc666dac8fc2697ff9baa00748f2cacd01808b22fa604a8f08fa1f492e375bcdc408f2de04819e71992694a056e81f171bcc55a6ff8345e692c0f86e5b48e01b996cadc001622fb5e363b421a056e81f171bcc55a6ff8345e692c0f86e5b48e01b996cadc001622fb5e363b421b901000000000000000000000000000000000000000000000000000000000000000000000000000000000000000000000000000000000000000000000000000000000000000000000000000000000000000000000000000000000000000000000000000000000000000000000000000000000000000000000000000000000000000000000000000000000000000000000000000000000000000000000000000000000000000000000000000000000000000000000000000000000000000000000000000000000000000000000000000000000000000000000000000000000000000000000000000000000000000000000000000000000000000000000000000000000083020000808401c9c380808203b642a056e81f171bcc55a6ff8345e692c0f86e5b48e01b996cadc001622fb5e363b421880102030405060708c0c0",
        "lastblockhash" : "0xd2b981fc118419c315bdd4ee8d8473d24fe920988244783628a6fad2402621e6",
        "network" : "Homestead",
        "postState" : {
            "0x095e7baea6a6c7c4c2dfeb977efac326af552d87" : {
                "balance" : "0x0186a0",
                "code" : "0x600060006000600073945304eb96065b2a98b57a48a06ae28d285a71b5622dc6c1fa600055600051600155",
                "nonce" : "0x00",
                "storage" : {
                }
            },
            "0x2adc25665018aa1fe0e6bc666dac8fc2697ff9ba" : {
                "balance" : "0x456391824521c6c0",
                "code" : "",
                "nonce" : "0x00",
                "storage" : {
                }
            },
            "0x945304eb96065b2a98b57a48a06ae28d285a71b5" : {
                "balance" : "0x17",
                "code" : "0x603760005360026000f3",
                "nonce" : "0x00",
                "storage" : {
                }
            },
            "0xa94f5374fce5edbc8e2a8697c15331677e6ebf0b" : {
                "balance" : "0x0de0b6b3a7363940",
                "code" : "",
                "nonce" : "0x01",
                "storage" : {
                }
            }
        },
        "pre" : {
            "0x095e7baea6a6c7c4c2dfeb977efac326af552d87" : {
                "balance" : "0x0186a0",
                "code" : "0x600060006000600073945304eb96065b2a98b57a48a06ae28d285a71b5622dc6c1fa600055600051600155",
                "nonce" : "0x00",
                "storage" : {
                }
            },
            "0x945304eb96065b2a98b57a48a06ae28d285a71b5" : {
                "balance" : "0x17",
                "code" : "0x603760005360026000f3",
                "nonce" : "0x00",
                "storage" : {
                }
            },
            "0xa94f5374fce5edbc8e2a8697c15331677e6ebf0b" : {
                "balance" : "0x0de0b6b3a7640000",
                "code" : "",
                "nonce" : "0x00",
                "storage" : {
                }
            }
        }
    }
}