{
    "static_callOutput3_d0g0v0_Byzantium" : {
        "_info" : {
            "comment" : "",
            "filledwith" : "cpp-1.3.0+commit.6e0ce939.Linux.g++",
            "lllcversion" : "Version: 0.4.18-develop.2017.9.25+commit.a72237f2.Linux.g++",
            "source" : "src/BlockchainTestsFiller/GeneralStateTests/stStaticCall/static_callOutput3_d0g0v0Filler.json",
            "sourceHash" : "e8c9a1a0b384875176f2d6d586fe9f3a8a844d5b0669eb73b63af1573d34c097"
        },
        "blocks" : [
            {
                "blockHeader" : {
                    "bloom" : "0x00000000000000000000000000000000000000000000000000000000000000000000000000000000000000000000000000000000000000000000000000000000000000000000000000000000000000000000000000000000000000000000000000000000000000000000000000000000000000000000000000000000000000000000000000000000000000000000000000000000000000000000000000000000000000000000000000000000000000000000000000000000000000000000000000000000000000000000000000000000000000000000000000000000000000000000000000000000000000000000000000000000000000000000000000000000",
                    "coinbase" : "0x2adc25665018aa1fe0e6bc666dac8fc2697ff9ba",
                    "difficulty" : "0x020000",
                    "extraData" : "",
                    "gasLimit" : "0x0f4240",
                    "gasUsed" : "0x01665d",
                    "hash" : "0x1797835542b603ea04abbbbf7ceae1a71049fee23d8396f8212545a2c30f23ea",
                    "mixHash" : "0xb1d216d05198be94fa65707fc2b0e86b3d3a40463729e36b632761e7f7337000",
                    "nonce" : "0x3d929c308f9f8793",
                    "number" : "0x01",
                    "parentHash" : "0x11544b89a79eb399c043fad59d1642c1777213dff9c9fe6cf35ea8b80e7f0951",
                    "receiptTrie" : "0x835e171b6c8add0df6184b14ee2e55bba46f28763729bfcdf37e6119e584a834",
                    "stateRoot" : "0xb492e45e1e9a15ed0d3c8caa6df153be129270c937e3c5a5a05b1f61fede967b",
                    "timestamp" : "0x03e8",
                    "transactionsTrie" : "0x7f85854b8b30dcca56f94318c7332e05eafa1635dafc57e2abe1fac35c7efa8d",
                    "uncleHash" : "0x1dcc4de8dec75d7aab85b567b6ccd41ad312451b948a7413f0a142fd40d49347"
                },
                "rlp" : "0xf90263f901f8a011544b89a79eb399c043fad59d1642c1777213dff9c9fe6cf35ea8b80e7f0951a01dcc4de8dec75d7aab85b567b6ccd41ad312451b948a7413f0a142fd40d49347942adc25665018aa1fe0e6bc666dac8fc2697ff9baa0b492e45e1e9a15ed0d3c8caa6df153be129270c937e3c5a5a05b1f61fede967ba07f85854b8b30dcca56f94318c7332e05eafa1635dafc57e2abe1fac35c7efa8da0835e171b6c8add0df6184b14ee2e55bba46f28763729bfcdf37e6119e584a834b90100000000000000000000000000000000000000000000000000000000000000000000000000000000000000000000000000000000000000000000000000000000000000000000000000000000000000000000000000000000000000000000000000000000000000000000000000000000000000000000000000000000000000000000000000000000000000000000000000000000000000000000000000000000000000000000000000000000000000000000000000000000000000000000000000000000000000000000000000000000000000000000000000000000000000000000000000000000000000000000000000000000000000000000000000000000008302000001830f42408301665d8203e880a0b1d216d05198be94fa65707fc2b0e86b3d3a40463729e36b632761e7f7337000883d929c308f9f8793f865f8638080830f424094095e7baea6a6c7c4c2dfeb977efac326af552d87830186a0801ba0c15d34d194f0b39f15741df45c99593bf0cb642d4ca50088d1f8a289c430c9d4a005478f3b062fccb0c87482a930aa211a8dcfdcc00cafbfbb5b60995fe7b15e7bc0",
                "transactions" : [
                    {
                        "data" : "",
                        "gasLimit" : "0x0f4240",
                        "gasPrice" : "0x00",
                        "nonce" : "0x00",
                        "r" : "0xc15d34d194f0b39f15741df45c99593bf0cb642d4ca50088d1f8a289c430c9d4",
                        "s" : "0x05478f3b062fccb0c87482a930aa211a8dcfdcc00cafbfbb5b60995fe7b15e7b",
                        "to" : "0x095e7baea6a6c7c4c2dfeb977efac326af552d87",
                        "v" : "0x1b",
                        "value" : "0x0186a0"
                    }
                ],
                "uncleHeaders" : [
                ]
            }
        ],
        "genesisBlockHeader" : {
            "bloom" : "0x00000000000000000000000000000000000000000000000000000000000000000000000000000000000000000000000000000000000000000000000000000000000000000000000000000000000000000000000000000000000000000000000000000000000000000000000000000000000000000000000000000000000000000000000000000000000000000000000000000000000000000000000000000000000000000000000000000000000000000000000000000000000000000000000000000000000000000000000000000000000000000000000000000000000000000000000000000000000000000000000000000000000000000000000000000000",
            "coinbase" : "0x2adc25665018aa1fe0e6bc666dac8fc2697ff9ba",
            "difficulty" : "0x020000",
            "extraData" : "0x42",
            "gasLimit" : "0x0f4240",
            "gasUsed" : "0x00",
            "hash" : "0x11544b89a79eb399c043fad59d1642c1777213dff9c9fe6cf35ea8b80e7f0951",
            "mixHash" : "0x56e81f171bcc55a6ff8345e692c0f86e5b48e01b996cadc001622fb5e363b421",
            "nonce" : "0x0102030405060708",
            "number" : "0x00",
            "parentHash" : "0x0000000000000000000000000000000000000000000000000000000000000000",
            "receiptTrie" : "0x56e81f171bcc55a6ff8345e692c0f86e5b48e01b996cadc001622fb5e363b421",
            "stateRoot" : "0x203aafa726810612f9f73bc52ad8a71567c2fd6284c4d79678ea73b66f9ecc8a",
            "timestamp" : "0x03b6",
            "transactionsTrie" : "0x56e81f171bcc55a6ff8345e692c0f86e5b48e01b996cadc001622fb5e363b421",
            "uncleHash" : "0x1dcc4de8dec75d7aab85b567b6ccd41ad312451b948a7413f0a142fd40d49347"
        },
        "genesisRLP" : "0xf901faf901f5a00000000000000000000000000000000000000000000000000000000000000000a01dcc4de8dec75d7aab85b567b6ccd41ad312451b948a7413f0a142fd40d49347942adc25665018aa1fe0e6bc666dac8fc2697ff9baa0203aafa726810612f9f73bc52ad8a71567c2fd6284c4d79678ea73b66f9ecc8aa056e81f171bcc55a6ff8345e692c0f86e5b48e01b996cadc001622fb5e363b421a056e81f171bcc55a6ff8345e692c0f86e5b48e01b996cadc001622fb5e363b421b90100000000000000000000000000000000000000000000000000000000000000000000000000000000000000000000000000000000000000000000000000000000000000000000000000000000000000000000000000000000000000000000000000000000000000000000000000000000000000000000000000000000000000000000000000000000000000000000000000000000000000000000000000000000000000000000000000000000000000000000000000000000000000000000000000000000000000000000000000000000000000000000000000000000000000000000000000000000000000000000000000000000000000000000000000000000008302000080830f4240808203b642a056e81f171bcc55a6ff8345e692c0f86e5b48e01b996cadc001622fb5e363b421880102030405060708c0c0",
        "lastblockhash" : "0x1797835542b603ea04abbbbf7ceae1a71049fee23d8396f8212545a2c30f23ea",
        "network" : "Byzantium",
        "postState" : {
            "0x095e7baea6a6c7c4c2dfeb977efac326af552d87" : {
                "balance" : "0x0de0b6b3a76586a0",
                "code" : "0x7f5e20a0453cecd065ea59c37ac63e079ee08998b6045136a8ce6635c7912ec0b6600052602060006000600073aaae7baea6a6c7c4c2dfeb977efac326af552d8761c350fa50600051600055",
                "nonce" : "0x00",
                "storage" : {
                    "0x00" : "0x5e20a0453cecd065ea59c37ac63e079ee08998b6045136a8ce6635c7912ec0b6"
                }
            },
            "0x2adc25665018aa1fe0e6bc666dac8fc2697ff9ba" : {
                "balance" : "0x29a2241af62c0000",
                "code" : "",
                "nonce" : "0x00",
                "storage" : {
                }
            },
            "0xa94f5374fce5edbc8e2a8697c15331677e6ebf0b" : {
                "balance" : "0x0de0b6b3a7627960",
                "code" : "",
                "nonce" : "0x01",
                "storage" : {
                }
            },
            "0xaaae7baea6a6c7c4c2dfeb977efac326af552d87" : {
                "balance" : "0x0de0b6b3a7640000",
                "code" : "0x6001600101600055",
                "nonce" : "0x00",
                "storage" : {
                }
            }
        },
        "pre" : {
            "0x095e7baea6a6c7c4c2dfeb977efac326af552d87" : {
                "balance" : "0x0de0b6b3a7640000",
                "code" : "0x7f5e20a0453cecd065ea59c37ac63e079ee08998b6045136a8ce6635c7912ec0b6600052602060006000600073aaae7baea6a6c7c4c2dfeb977efac326af552d8761c350fa50600051600055",
                "nonce" : "0x00",
                "storage" : {
                }
            },
            "0xa94f5374fce5edbc8e2a8697c15331677e6ebf0b" : {
                "balance" : "0x0de0b6b3a7640000",
                "code" : "",
                "nonce" : "0x00",
                "storage" : {
                }
            },
            "0xaaae7baea6a6c7c4c2dfeb977efac326af552d87" : {
                "balance" : "0x0de0b6b3a7640000",
                "code" : "0x6001600101600055",
                "nonce" : "0x00",
                "storage" : {
                }
            }
        }
    },
    "static_callOutput3_d0g0v0_EIP150" : {
        "_info" : {
            "comment" : "",
            "filledwith" : "cpp-1.3.0+commit.6e0ce939.Linux.g++",
            "lllcversion" : "Version: 0.4.18-develop.2017.9.25+commit.a72237f2.Linux.g++",
            "source" : "src/BlockchainTestsFiller/GeneralStateTests/stStaticCall/static_callOutput3_d0g0v0Filler.json",
            "sourceHash" : "e8c9a1a0b384875176f2d6d586fe9f3a8a844d5b0669eb73b63af1573d34c097"
        },
        "blocks" : [
            {
                "blockHeader" : {
                    "bloom" : "0x00000000000000000000000000000000000000000000000000000000000000000000000000000000000000000000000000000000000000000000000000000000000000000000000000000000000000000000000000000000000000000000000000000000000000000000000000000000000000000000000000000000000000000000000000000000000000000000000000000000000000000000000000000000000000000000000000000000000000000000000000000000000000000000000000000000000000000000000000000000000000000000000000000000000000000000000000000000000000000000000000000000000000000000000000000000",
                    "coinbase" : "0x2adc25665018aa1fe0e6bc666dac8fc2697ff9ba",
                    "difficulty" : "0x020000",
                    "extraData" : "",
                    "gasLimit" : "0x0f4240",
                    "gasUsed" : "0x0f4240",
                    "hash" : "0x092cde595fc6223d91cf1a1b42b48492166a0a6f0967e2c3b516b14c1442b82b",
                    "mixHash" : "0x27e2de6acf5a3489c0aa35950825dd545bceb2e5e99ed048134c8775b2d255be",
                    "nonce" : "0xfad612a070c08e33",
                    "number" : "0x01",
                    "parentHash" : "0x11544b89a79eb399c043fad59d1642c1777213dff9c9fe6cf35ea8b80e7f0951",
                    "receiptTrie" : "0x7b74c323b1ebd48d6cfe1444fc53021b97d1e61b67314c137468b7dd689bfa1b",
                    "stateRoot" : "0x3df736ac37a90744165f1a039d9cecfdbdd71b3a5df83490c6a0f623f79f5e6f",
                    "timestamp" : "0x03e8",
                    "transactionsTrie" : "0x7f85854b8b30dcca56f94318c7332e05eafa1635dafc57e2abe1fac35c7efa8d",
                    "uncleHash" : "0x1dcc4de8dec75d7aab85b567b6ccd41ad312451b948a7413f0a142fd40d49347"
                },
                "rlp" : "0xf90263f901f8a011544b89a79eb399c043fad59d1642c1777213dff9c9fe6cf35ea8b80e7f0951a01dcc4de8dec75d7aab85b567b6ccd41ad312451b948a7413f0a142fd40d49347942adc25665018aa1fe0e6bc666dac8fc2697ff9baa03df736ac37a90744165f1a039d9cecfdbdd71b3a5df83490c6a0f623f79f5e6fa07f85854b8b30dcca56f94318c7332e05eafa1635dafc57e2abe1fac35c7efa8da07b74c323b1ebd48d6cfe1444fc53021b97d1e61b67314c137468b7dd689bfa1bb90100000000000000000000000000000000000000000000000000000000000000000000000000000000000000000000000000000000000000000000000000000000000000000000000000000000000000000000000000000000000000000000000000000000000000000000000000000000000000000000000000000000000000000000000000000000000000000000000000000000000000000000000000000000000000000000000000000000000000000000000000000000000000000000000000000000000000000000000000000000000000000000000000000000000000000000000000000000000000000000000000000000000000000000000000000000008302000001830f4240830f42408203e880a027e2de6acf5a3489c0aa35950825dd545bceb2e5e99ed048134c8775b2d255be88fad612a070c08e33f865f8638080830f424094095e7baea6a6c7c4c2dfeb977efac326af552d87830186a0801ba0c15d34d194f0b39f15741df45c99593bf0cb642d4ca50088d1f8a289c430c9d4a005478f3b062fccb0c87482a930aa211a8dcfdcc00cafbfbb5b60995fe7b15e7bc0",
                "transactions" : [
                    {
                        "data" : "",
                        "gasLimit" : "0x0f4240",
                        "gasPrice" : "0x00",
                        "nonce" : "0x00",
                        "r" : "0xc15d34d194f0b39f15741df45c99593bf0cb642d4ca50088d1f8a289c430c9d4",
                        "s" : "0x05478f3b062fccb0c87482a930aa211a8dcfdcc00cafbfbb5b60995fe7b15e7b",
                        "to" : "0x095e7baea6a6c7c4c2dfeb977efac326af552d87",
                        "v" : "0x1b",
                        "value" : "0x0186a0"
                    }
                ],
                "uncleHeaders" : [
                ]
            }
        ],
        "genesisBlockHeader" : {
            "bloom" : "0x00000000000000000000000000000000000000000000000000000000000000000000000000000000000000000000000000000000000000000000000000000000000000000000000000000000000000000000000000000000000000000000000000000000000000000000000000000000000000000000000000000000000000000000000000000000000000000000000000000000000000000000000000000000000000000000000000000000000000000000000000000000000000000000000000000000000000000000000000000000000000000000000000000000000000000000000000000000000000000000000000000000000000000000000000000000",
            "coinbase" : "0x2adc25665018aa1fe0e6bc666dac8fc2697ff9ba",
            "difficulty" : "0x020000",
            "extraData" : "0x42",
            "gasLimit" : "0x0f4240",
            "gasUsed" : "0x00",
            "hash" : "0x11544b89a79eb399c043fad59d1642c1777213dff9c9fe6cf35ea8b80e7f0951",
            "mixHash" : "0x56e81f171bcc55a6ff8345e692c0f86e5b48e01b996cadc001622fb5e363b421",
            "nonce" : "0x0102030405060708",
            "number" : "0x00",
            "parentHash" : "0x0000000000000000000000000000000000000000000000000000000000000000",
            "receiptTrie" : "0x56e81f171bcc55a6ff8345e692c0f86e5b48e01b996cadc001622fb5e363b421",
            "stateRoot" : "0x203aafa726810612f9f73bc52ad8a71567c2fd6284c4d79678ea73b66f9ecc8a",
            "timestamp" : "0x03b6",
            "transactionsTrie" : "0x56e81f171bcc55a6ff8345e692c0f86e5b48e01b996cadc001622fb5e363b421",
            "uncleHash" : "0x1dcc4de8dec75d7aab85b567b6ccd41ad312451b948a7413f0a142fd40d49347"
        },
        "genesisRLP" : "0xf901faf901f5a00000000000000000000000000000000000000000000000000000000000000000a01dcc4de8dec75d7aab85b567b6ccd41ad312451b948a7413f0a142fd40d49347942adc25665018aa1fe0e6bc666dac8fc2697ff9baa0203aafa726810612f9f73bc52ad8a71567c2fd6284c4d79678ea73b66f9ecc8aa056e81f171bcc55a6ff8345e692c0f86e5b48e01b996cadc001622fb5e363b421a056e81f171bcc55a6ff8345e692c0f86e5b48e01b996cadc001622fb5e363b421b90100000000000000000000000000000000000000000000000000000000000000000000000000000000000000000000000000000000000000000000000000000000000000000000000000000000000000000000000000000000000000000000000000000000000000000000000000000000000000000000000000000000000000000000000000000000000000000000000000000000000000000000000000000000000000000000000000000000000000000000000000000000000000000000000000000000000000000000000000000000000000000000000000000000000000000000000000000000000000000000000000000000000000000000000000000000008302000080830f4240808203b642a056e81f171bcc55a6ff8345e692c0f86e5b48e01b996cadc001622fb5e363b421880102030405060708c0c0",
        "lastblockhash" : "0x092cde595fc6223d91cf1a1b42b48492166a0a6f0967e2c3b516b14c1442b82b",
        "network" : "EIP150",
        "postState" : {
            "0x095e7baea6a6c7c4c2dfeb977efac326af552d87" : {
                "balance" : "0x0de0b6b3a7640000",
                "code" : "0x7f5e20a0453cecd065ea59c37ac63e079ee08998b6045136a8ce6635c7912ec0b6600052602060006000600073aaae7baea6a6c7c4c2dfeb977efac326af552d8761c350fa50600051600055",
                "nonce" : "0x00",
                "storage" : {
                }
            },
            "0x2adc25665018aa1fe0e6bc666dac8fc2697ff9ba" : {
                "balance" : "0x4563918244f40000",
                "code" : "",
                "nonce" : "0x00",
                "storage" : {
                }
            },
            "0xa94f5374fce5edbc8e2a8697c15331677e6ebf0b" : {
                "balance" : "0x0de0b6b3a7640000",
                "code" : "",
                "nonce" : "0x01",
                "storage" : {
                }
            },
            "0xaaae7baea6a6c7c4c2dfeb977efac326af552d87" : {
                "balance" : "0x0de0b6b3a7640000",
                "code" : "0x6001600101600055",
                "nonce" : "0x00",
                "storage" : {
                }
            }
        },
        "pre" : {
            "0x095e7baea6a6c7c4c2dfeb977efac326af552d87" : {
                "balance" : "0x0de0b6b3a7640000",
                "code" : "0x7f5e20a0453cecd065ea59c37ac63e079ee08998b6045136a8ce6635c7912ec0b6600052602060006000600073aaae7baea6a6c7c4c2dfeb977efac326af552d8761c350fa50600051600055",
                "nonce" : "0x00",
                "storage" : {
                }
            },
            "0xa94f5374fce5edbc8e2a8697c15331677e6ebf0b" : {
                "balance" : "0x0de0b6b3a7640000",
                "code" : "",
                "nonce" : "0x00",
                "storage" : {
                }
            },
            "0xaaae7baea6a6c7c4c2dfeb977efac326af552d87" : {
                "balance" : "0x0de0b6b3a7640000",
                "code" : "0x6001600101600055",
                "nonce" : "0x00",
                "storage" : {
                }
            }
        }
    },
    "static_callOutput3_d0g0v0_EIP158" : {
        "_info" : {
            "comment" : "",
            "filledwith" : "cpp-1.3.0+commit.6e0ce939.Linux.g++",
            "lllcversion" : "Version: 0.4.18-develop.2017.9.25+commit.a72237f2.Linux.g++",
            "source" : "src/BlockchainTestsFiller/GeneralStateTests/stStaticCall/static_callOutput3_d0g0v0Filler.json",
            "sourceHash" : "e8c9a1a0b384875176f2d6d586fe9f3a8a844d5b0669eb73b63af1573d34c097"
        },
        "blocks" : [
            {
                "blockHeader" : {
                    "bloom" : "0x00000000000000000000000000000000000000000000000000000000000000000000000000000000000000000000000000000000000000000000000000000000000000000000000000000000000000000000000000000000000000000000000000000000000000000000000000000000000000000000000000000000000000000000000000000000000000000000000000000000000000000000000000000000000000000000000000000000000000000000000000000000000000000000000000000000000000000000000000000000000000000000000000000000000000000000000000000000000000000000000000000000000000000000000000000000",
                    "coinbase" : "0x2adc25665018aa1fe0e6bc666dac8fc2697ff9ba",
                    "difficulty" : "0x020000",
                    "extraData" : "",
                    "gasLimit" : "0x0f4240",
                    "gasUsed" : "0x0f4240",
                    "hash" : "0x6962c69f0140480abb6ae4352cc1dcfeb3ed116ac3b4a0d3687f11c6d0036346",
                    "mixHash" : "0x0f33a0c5f50ea44354e51905b8e375b67e382e6d30fd96fe4da889a7b930c311",
                    "nonce" : "0xa968ee85c0bf5471",
                    "number" : "0x01",
                    "parentHash" : "0x11544b89a79eb399c043fad59d1642c1777213dff9c9fe6cf35ea8b80e7f0951",
                    "receiptTrie" : "0x68b57555ac65b99ba4abad00f78b9c4e47123986f644a55d651c17b3b3b449f9",
                    "stateRoot" : "0x3df736ac37a90744165f1a039d9cecfdbdd71b3a5df83490c6a0f623f79f5e6f",
                    "timestamp" : "0x03e8",
                    "transactionsTrie" : "0x7f85854b8b30dcca56f94318c7332e05eafa1635dafc57e2abe1fac35c7efa8d",
                    "uncleHash" : "0x1dcc4de8dec75d7aab85b567b6ccd41ad312451b948a7413f0a142fd40d49347"
                },
                "rlp" : "0xf90263f901f8a011544b89a79eb399c043fad59d1642c1777213dff9c9fe6cf35ea8b80e7f0951a01dcc4de8dec75d7aab85b567b6ccd41ad312451b948a7413f0a142fd40d49347942adc25665018aa1fe0e6bc666dac8fc2697ff9baa03df736ac37a90744165f1a039d9cecfdbdd71b3a5df83490c6a0f623f79f5e6fa07f85854b8b30dcca56f94318c7332e05eafa1635dafc57e2abe1fac35c7efa8da068b57555ac65b99ba4abad00f78b9c4e47123986f644a55d651c17b3b3b449f9b90100000000000000000000000000000000000000000000000000000000000000000000000000000000000000000000000000000000000000000000000000000000000000000000000000000000000000000000000000000000000000000000000000000000000000000000000000000000000000000000000000000000000000000000000000000000000000000000000000000000000000000000000000000000000000000000000000000000000000000000000000000000000000000000000000000000000000000000000000000000000000000000000000000000000000000000000000000000000000000000000000000000000000000000000000000000008302000001830f4240830f42408203e880a00f33a0c5f50ea44354e51905b8e375b67e382e6d30fd96fe4da889a7b930c31188a968ee85c0bf5471f865f8638080830f424094095e7baea6a6c7c4c2dfeb977efac326af552d87830186a0801ba0c15d34d194f0b39f15741df45c99593bf0cb642d4ca50088d1f8a289c430c9d4a005478f3b062fccb0c87482a930aa211a8dcfdcc00cafbfbb5b60995fe7b15e7bc0",
                "transactions" : [
                    {
                        "data" : "",
                        "gasLimit" : "0x0f4240",
                        "gasPrice" : "0x00",
                        "nonce" : "0x00",
                        "r" : "0xc15d34d194f0b39f15741df45c99593bf0cb642d4ca50088d1f8a289c430c9d4",
                        "s" : "0x05478f3b062fccb0c87482a930aa211a8dcfdcc00cafbfbb5b60995fe7b15e7b",
                        "to" : "0x095e7baea6a6c7c4c2dfeb977efac326af552d87",
                        "v" : "0x1b",
                        "value" : "0x0186a0"
                    }
                ],
                "uncleHeaders" : [
                ]
            }
        ],
        "genesisBlockHeader" : {
            "bloom" : "0x00000000000000000000000000000000000000000000000000000000000000000000000000000000000000000000000000000000000000000000000000000000000000000000000000000000000000000000000000000000000000000000000000000000000000000000000000000000000000000000000000000000000000000000000000000000000000000000000000000000000000000000000000000000000000000000000000000000000000000000000000000000000000000000000000000000000000000000000000000000000000000000000000000000000000000000000000000000000000000000000000000000000000000000000000000000",
            "coinbase" : "0x2adc25665018aa1fe0e6bc666dac8fc2697ff9ba",
            "difficulty" : "0x020000",
            "extraData" : "0x42",
            "gasLimit" : "0x0f4240",
            "gasUsed" : "0x00",
            "hash" : "0x11544b89a79eb399c043fad59d1642c1777213dff9c9fe6cf35ea8b80e7f0951",
            "mixHash" : "0x56e81f171bcc55a6ff8345e692c0f86e5b48e01b996cadc001622fb5e363b421",
            "nonce" : "0x0102030405060708",
            "number" : "0x00",
            "parentHash" : "0x0000000000000000000000000000000000000000000000000000000000000000",
            "receiptTrie" : "0x56e81f171bcc55a6ff8345e692c0f86e5b48e01b996cadc001622fb5e363b421",
            "stateRoot" : "0x203aafa726810612f9f73bc52ad8a71567c2fd6284c4d79678ea73b66f9ecc8a",
            "timestamp" : "0x03b6",
            "transactionsTrie" : "0x56e81f171bcc55a6ff8345e692c0f86e5b48e01b996cadc001622fb5e363b421",
            "uncleHash" : "0x1dcc4de8dec75d7aab85b567b6ccd41ad312451b948a7413f0a142fd40d49347"
        },
        "genesisRLP" : "0xf901faf901f5a00000000000000000000000000000000000000000000000000000000000000000a01dcc4de8dec75d7aab85b567b6ccd41ad312451b948a7413f0a142fd40d49347942adc25665018aa1fe0e6bc666dac8fc2697ff9baa0203aafa726810612f9f73bc52ad8a71567c2fd6284c4d79678ea73b66f9ecc8aa056e81f171bcc55a6ff8345e692c0f86e5b48e01b996cadc001622fb5e363b421a056e81f171bcc55a6ff8345e692c0f86e5b48e01b996cadc001622fb5e363b421b90100000000000000000000000000000000000000000000000000000000000000000000000000000000000000000000000000000000000000000000000000000000000000000000000000000000000000000000000000000000000000000000000000000000000000000000000000000000000000000000000000000000000000000000000000000000000000000000000000000000000000000000000000000000000000000000000000000000000000000000000000000000000000000000000000000000000000000000000000000000000000000000000000000000000000000000000000000000000000000000000000000000000000000000000000000000008302000080830f4240808203b642a056e81f171bcc55a6ff8345e692c0f86e5b48e01b996cadc001622fb5e363b421880102030405060708c0c0",
        "lastblockhash" : "0x6962c69f0140480abb6ae4352cc1dcfeb3ed116ac3b4a0d3687f11c6d0036346",
        "network" : "EIP158",
        "postState" : {
            "0x095e7baea6a6c7c4c2dfeb977efac326af552d87" : {
                "balance" : "0x0de0b6b3a7640000",
                "code" : "0x7f5e20a0453cecd065ea59c37ac63e079ee08998b6045136a8ce6635c7912ec0b6600052602060006000600073aaae7baea6a6c7c4c2dfeb977efac326af552d8761c350fa50600051600055",
                "nonce" : "0x00",
                "storage" : {
                }
            },
            "0x2adc25665018aa1fe0e6bc666dac8fc2697ff9ba" : {
                "balance" : "0x4563918244f40000",
                "code" : "",
                "nonce" : "0x00",
                "storage" : {
                }
            },
            "0xa94f5374fce5edbc8e2a8697c15331677e6ebf0b" : {
                "balance" : "0x0de0b6b3a7640000",
                "code" : "",
                "nonce" : "0x01",
                "storage" : {
                }
            },
            "0xaaae7baea6a6c7c4c2dfeb977efac326af552d87" : {
                "balance" : "0x0de0b6b3a7640000",
                "code" : "0x6001600101600055",
                "nonce" : "0x00",
                "storage" : {
                }
            }
        },
        "pre" : {
            "0x095e7baea6a6c7c4c2dfeb977efac326af552d87" : {
                "balance" : "0x0de0b6b3a7640000",
                "code" : "0x7f5e20a0453cecd065ea59c37ac63e079ee08998b6045136a8ce6635c7912ec0b6600052602060006000600073aaae7baea6a6c7c4c2dfeb977efac326af552d8761c350fa50600051600055",
                "nonce" : "0x00",
                "storage" : {
                }
            },
            "0xa94f5374fce5edbc8e2a8697c15331677e6ebf0b" : {
                "balance" : "0x0de0b6b3a7640000",
                "code" : "",
                "nonce" : "0x00",
                "storage" : {
                }
            },
            "0xaaae7baea6a6c7c4c2dfeb977efac326af552d87" : {
                "balance" : "0x0de0b6b3a7640000",
                "code" : "0x6001600101600055",
                "nonce" : "0x00",
                "storage" : {
                }
            }
        }
    },
    "static_callOutput3_d0g0v0_Frontier" : {
        "_info" : {
            "comment" : "",
            "filledwith" : "cpp-1.3.0+commit.6e0ce939.Linux.g++",
            "lllcversion" : "Version: 0.4.18-develop.2017.9.25+commit.a72237f2.Linux.g++",
            "source" : "src/BlockchainTestsFiller/GeneralStateTests/stStaticCall/static_callOutput3_d0g0v0Filler.json",
            "sourceHash" : "e8c9a1a0b384875176f2d6d586fe9f3a8a844d5b0669eb73b63af1573d34c097"
        },
        "blocks" : [
            {
                "blockHeader" : {
                    "bloom" : "0x00000000000000000000000000000000000000000000000000000000000000000000000000000000000000000000000000000000000000000000000000000000000000000000000000000000000000000000000000000000000000000000000000000000000000000000000000000000000000000000000000000000000000000000000000000000000000000000000000000000000000000000000000000000000000000000000000000000000000000000000000000000000000000000000000000000000000000000000000000000000000000000000000000000000000000000000000000000000000000000000000000000000000000000000000000000",
                    "coinbase" : "0x2adc25665018aa1fe0e6bc666dac8fc2697ff9ba",
                    "difficulty" : "0x020000",
                    "extraData" : "",
                    "gasLimit" : "0x0f4240",
                    "gasUsed" : "0x0f4240",
                    "hash" : "0x5ca187a991dee85a7bf64c3f064322b195e65e10464a083a04342ff848a20cb0",
                    "mixHash" : "0xa6d50a34cb1c986583fe24d428ea960e6c70e3141535e6fed8db42b0b899f114",
                    "nonce" : "0x7383109c703d76ce",
                    "number" : "0x01",
                    "parentHash" : "0x11544b89a79eb399c043fad59d1642c1777213dff9c9fe6cf35ea8b80e7f0951",
                    "receiptTrie" : "0x7b74c323b1ebd48d6cfe1444fc53021b97d1e61b67314c137468b7dd689bfa1b",
                    "stateRoot" : "0x3df736ac37a90744165f1a039d9cecfdbdd71b3a5df83490c6a0f623f79f5e6f",
                    "timestamp" : "0x03e8",
                    "transactionsTrie" : "0x7f85854b8b30dcca56f94318c7332e05eafa1635dafc57e2abe1fac35c7efa8d",
                    "uncleHash" : "0x1dcc4de8dec75d7aab85b567b6ccd41ad312451b948a7413f0a142fd40d49347"
                },
                "rlp" : "0xf90263f901f8a011544b89a79eb399c043fad59d1642c1777213dff9c9fe6cf35ea8b80e7f0951a01dcc4de8dec75d7aab85b567b6ccd41ad312451b948a7413f0a142fd40d49347942adc25665018aa1fe0e6bc666dac8fc2697ff9baa03df736ac37a90744165f1a039d9cecfdbdd71b3a5df83490c6a0f623f79f5e6fa07f85854b8b30dcca56f94318c7332e05eafa1635dafc57e2abe1fac35c7efa8da07b74c323b1ebd48d6cfe1444fc53021b97d1e61b67314c137468b7dd689bfa1bb90100000000000000000000000000000000000000000000000000000000000000000000000000000000000000000000000000000000000000000000000000000000000000000000000000000000000000000000000000000000000000000000000000000000000000000000000000000000000000000000000000000000000000000000000000000000000000000000000000000000000000000000000000000000000000000000000000000000000000000000000000000000000000000000000000000000000000000000000000000000000000000000000000000000000000000000000000000000000000000000000000000000000000000000000000000000008302000001830f4240830f42408203e880a0a6d50a34cb1c986583fe24d428ea960e6c70e3141535e6fed8db42b0b899f114887383109c703d76cef865f8638080830f424094095e7baea6a6c7c4c2dfeb977efac326af552d87830186a0801ba0c15d34d194f0b39f15741df45c99593bf0cb642d4ca50088d1f8a289c430c9d4a005478f3b062fccb0c87482a930aa211a8dcfdcc00cafbfbb5b60995fe7b15e7bc0",
                "transactions" : [
                    {
                        "data" : "",
                        "gasLimit" : "0x0f4240",
                        "gasPrice" : "0x00",
                        "nonce" : "0x00",
                        "r" : "0xc15d34d194f0b39f15741df45c99593bf0cb642d4ca50088d1f8a289c430c9d4",
                        "s" : "0x05478f3b062fccb0c87482a930aa211a8dcfdcc00cafbfbb5b60995fe7b15e7b",
                        "to" : "0x095e7baea6a6c7c4c2dfeb977efac326af552d87",
                        "v" : "0x1b",
                        "value" : "0x0186a0"
                    }
                ],
                "uncleHeaders" : [
                ]
            }
        ],
        "genesisBlockHeader" : {
            "bloom" : "0x00000000000000000000000000000000000000000000000000000000000000000000000000000000000000000000000000000000000000000000000000000000000000000000000000000000000000000000000000000000000000000000000000000000000000000000000000000000000000000000000000000000000000000000000000000000000000000000000000000000000000000000000000000000000000000000000000000000000000000000000000000000000000000000000000000000000000000000000000000000000000000000000000000000000000000000000000000000000000000000000000000000000000000000000000000000",
            "coinbase" : "0x2adc25665018aa1fe0e6bc666dac8fc2697ff9ba",
            "difficulty" : "0x020000",
            "extraData" : "0x42",
            "gasLimit" : "0x0f4240",
            "gasUsed" : "0x00",
            "hash" : "0x11544b89a79eb399c043fad59d1642c1777213dff9c9fe6cf35ea8b80e7f0951",
            "mixHash" : "0x56e81f171bcc55a6ff8345e692c0f86e5b48e01b996cadc001622fb5e363b421",
            "nonce" : "0x0102030405060708",
            "number" : "0x00",
            "parentHash" : "0x0000000000000000000000000000000000000000000000000000000000000000",
            "receiptTrie" : "0x56e81f171bcc55a6ff8345e692c0f86e5b48e01b996cadc001622fb5e363b421",
            "stateRoot" : "0x203aafa726810612f9f73bc52ad8a71567c2fd6284c4d79678ea73b66f9ecc8a",
            "timestamp" : "0x03b6",
            "transactionsTrie" : "0x56e81f171bcc55a6ff8345e692c0f86e5b48e01b996cadc001622fb5e363b421",
            "uncleHash" : "0x1dcc4de8dec75d7aab85b567b6ccd41ad312451b948a7413f0a142fd40d49347"
        },
        "genesisRLP" : "0xf901faf901f5a00000000000000000000000000000000000000000000000000000000000000000a01dcc4de8dec75d7aab85b567b6ccd41ad312451b948a7413f0a142fd40d49347942adc25665018aa1fe0e6bc666dac8fc2697ff9baa0203aafa726810612f9f73bc52ad8a71567c2fd6284c4d79678ea73b66f9ecc8aa056e81f171bcc55a6ff8345e692c0f86e5b48e01b996cadc001622fb5e363b421a056e81f171bcc55a6ff8345e692c0f86e5b48e01b996cadc001622fb5e363b421b90100000000000000000000000000000000000000000000000000000000000000000000000000000000000000000000000000000000000000000000000000000000000000000000000000000000000000000000000000000000000000000000000000000000000000000000000000000000000000000000000000000000000000000000000000000000000000000000000000000000000000000000000000000000000000000000000000000000000000000000000000000000000000000000000000000000000000000000000000000000000000000000000000000000000000000000000000000000000000000000000000000000000000000000000000000000008302000080830f4240808203b642a056e81f171bcc55a6ff8345e692c0f86e5b48e01b996cadc001622fb5e363b421880102030405060708c0c0",
        "lastblockhash" : "0x5ca187a991dee85a7bf64c3f064322b195e65e10464a083a04342ff848a20cb0",
        "network" : "Frontier",
        "postState" : {
            "0x095e7baea6a6c7c4c2dfeb977efac326af552d87" : {
                "balance" : "0x0de0b6b3a7640000",
                "code" : "0x7f5e20a0453cecd065ea59c37ac63e079ee08998b6045136a8ce6635c7912ec0b6600052602060006000600073aaae7baea6a6c7c4c2dfeb977efac326af552d8761c350fa50600051600055",
                "nonce" : "0x00",
                "storage" : {
                }
            },
            "0x2adc25665018aa1fe0e6bc666dac8fc2697ff9ba" : {
                "balance" : "0x4563918244f40000",
                "code" : "",
                "nonce" : "0x00",
                "storage" : {
                }
            },
            "0xa94f5374fce5edbc8e2a8697c15331677e6ebf0b" : {
                "balance" : "0x0de0b6b3a7640000",
                "code" : "",
                "nonce" : "0x01",
                "storage" : {
                }
            },
            "0xaaae7baea6a6c7c4c2dfeb977efac326af552d87" : {
                "balance" : "0x0de0b6b3a7640000",
                "code" : "0x6001600101600055",
                "nonce" : "0x00",
                "storage" : {
                }
            }
        },
        "pre" : {
            "0x095e7baea6a6c7c4c2dfeb977efac326af552d87" : {
                "balance" : "0x0de0b6b3a7640000",
                "code" : "0x7f5e20a0453cecd065ea59c37ac63e079ee08998b6045136a8ce6635c7912ec0b6600052602060006000600073aaae7baea6a6c7c4c2dfeb977efac326af552d8761c350fa50600051600055",
                "nonce" : "0x00",
                "storage" : {
                }
            },
            "0xa94f5374fce5edbc8e2a8697c15331677e6ebf0b" : {
                "balance" : "0x0de0b6b3a7640000",
                "code" : "",
                "nonce" : "0x00",
                "storage" : {
                }
            },
            "0xaaae7baea6a6c7c4c2dfeb977efac326af552d87" : {
                "balance" : "0x0de0b6b3a7640000",
                "code" : "0x6001600101600055",
                "nonce" : "0x00",
                "storage" : {
                }
            }
        }
    },
    "static_callOutput3_d0g0v0_Homestead" : {
        "_info" : {
            "comment" : "",
            "filledwith" : "cpp-1.3.0+commit.6e0ce939.Linux.g++",
            "lllcversion" : "Version: 0.4.18-develop.2017.9.25+commit.a72237f2.Linux.g++",
            "source" : "src/BlockchainTestsFiller/GeneralStateTests/stStaticCall/static_callOutput3_d0g0v0Filler.json",
            "sourceHash" : "e8c9a1a0b384875176f2d6d586fe9f3a8a844d5b0669eb73b63af1573d34c097"
        },
        "blocks" : [
            {
                "blockHeader" : {
                    "bloom" : "0x00000000000000000000000000000000000000000000000000000000000000000000000000000000000000000000000000000000000000000000000000000000000000000000000000000000000000000000000000000000000000000000000000000000000000000000000000000000000000000000000000000000000000000000000000000000000000000000000000000000000000000000000000000000000000000000000000000000000000000000000000000000000000000000000000000000000000000000000000000000000000000000000000000000000000000000000000000000000000000000000000000000000000000000000000000000",
                    "coinbase" : "0x2adc25665018aa1fe0e6bc666dac8fc2697ff9ba",
                    "difficulty" : "0x020000",
                    "extraData" : "",
                    "gasLimit" : "0x0f4240",
                    "gasUsed" : "0x0f4240",
                    "hash" : "0x36ba9dca153065529a6e3d13923eaa9175bdefe7c4c2ba7302a61143fffe16a9",
                    "mixHash" : "0x2d51d630eff15134433391983f9f391b32c61931e902c224b282112c9379c098",
                    "nonce" : "0x9639cd02157dfa16",
                    "number" : "0x01",
                    "parentHash" : "0x11544b89a79eb399c043fad59d1642c1777213dff9c9fe6cf35ea8b80e7f0951",
                    "receiptTrie" : "0x7b74c323b1ebd48d6cfe1444fc53021b97d1e61b67314c137468b7dd689bfa1b",
                    "stateRoot" : "0x3df736ac37a90744165f1a039d9cecfdbdd71b3a5df83490c6a0f623f79f5e6f",
                    "timestamp" : "0x03e8",
                    "transactionsTrie" : "0x7f85854b8b30dcca56f94318c7332e05eafa1635dafc57e2abe1fac35c7efa8d",
                    "uncleHash" : "0x1dcc4de8dec75d7aab85b567b6ccd41ad312451b948a7413f0a142fd40d49347"
                },
                "rlp" : "0xf90263f901f8a011544b89a79eb399c043fad59d1642c1777213dff9c9fe6cf35ea8b80e7f0951a01dcc4de8dec75d7aab85b567b6ccd41ad312451b948a7413f0a142fd40d49347942adc25665018aa1fe0e6bc666dac8fc2697ff9baa03df736ac37a90744165f1a039d9cecfdbdd71b3a5df83490c6a0f623f79f5e6fa07f85854b8b30dcca56f94318c7332e05eafa1635dafc57e2abe1fac35c7efa8da07b74c323b1ebd48d6cfe1444fc53021b97d1e61b67314c137468b7dd689bfa1bb90100000000000000000000000000000000000000000000000000000000000000000000000000000000000000000000000000000000000000000000000000000000000000000000000000000000000000000000000000000000000000000000000000000000000000000000000000000000000000000000000000000000000000000000000000000000000000000000000000000000000000000000000000000000000000000000000000000000000000000000000000000000000000000000000000000000000000000000000000000000000000000000000000000000000000000000000000000000000000000000000000000000000000000000000000000000008302000001830f4240830f42408203e880a02d51d630eff15134433391983f9f391b32c61931e902c224b282112c9379c098889639cd02157dfa16f865f8638080830f424094095e7baea6a6c7c4c2dfeb977efac326af552d87830186a0801ba0c15d34d194f0b39f15741df45c99593bf0cb642d4ca50088d1f8a289c430c9d4a005478f3b062fccb0c87482a930aa211a8dcfdcc00cafbfbb5b60995fe7b15e7bc0",
                "transactions" : [
                    {
                        "data" : "",
                        "gasLimit" : "0x0f4240",
                        "gasPrice" : "0x00",
                        "nonce" : "0x00",
                        "r" : "0xc15d34d194f0b39f15741df45c99593bf0cb642d4ca50088d1f8a289c430c9d4",
                        "s" : "0x05478f3b062fccb0c87482a930aa211a8dcfdcc00cafbfbb5b60995fe7b15e7b",
                        "to" : "0x095e7baea6a6c7c4c2dfeb977efac326af552d87",
                        "v" : "0x1b",
                        "value" : "0x0186a0"
                    }
                ],
                "uncleHeaders" : [
                ]
            }
        ],
        "genesisBlockHeader" : {
            "bloom" : "0x00000000000000000000000000000000000000000000000000000000000000000000000000000000000000000000000000000000000000000000000000000000000000000000000000000000000000000000000000000000000000000000000000000000000000000000000000000000000000000000000000000000000000000000000000000000000000000000000000000000000000000000000000000000000000000000000000000000000000000000000000000000000000000000000000000000000000000000000000000000000000000000000000000000000000000000000000000000000000000000000000000000000000000000000000000000",
            "coinbase" : "0x2adc25665018aa1fe0e6bc666dac8fc2697ff9ba",
            "difficulty" : "0x020000",
            "extraData" : "0x42",
            "gasLimit" : "0x0f4240",
            "gasUsed" : "0x00",
            "hash" : "0x11544b89a79eb399c043fad59d1642c1777213dff9c9fe6cf35ea8b80e7f0951",
            "mixHash" : "0x56e81f171bcc55a6ff8345e692c0f86e5b48e01b996cadc001622fb5e363b421",
            "nonce" : "0x0102030405060708",
            "number" : "0x00",
            "parentHash" : "0x0000000000000000000000000000000000000000000000000000000000000000",
            "receiptTrie" : "0x56e81f171bcc55a6ff8345e692c0f86e5b48e01b996cadc001622fb5e363b421",
            "stateRoot" : "0x203aafa726810612f9f73bc52ad8a71567c2fd6284c4d79678ea73b66f9ecc8a",
            "timestamp" : "0x03b6",
            "transactionsTrie" : "0x56e81f171bcc55a6ff8345e692c0f86e5b48e01b996cadc001622fb5e363b421",
            "uncleHash" : "0x1dcc4de8dec75d7aab85b567b6ccd41ad312451b948a7413f0a142fd40d49347"
        },
        "genesisRLP" : "0xf901faf901f5a00000000000000000000000000000000000000000000000000000000000000000a01dcc4de8dec75d7aab85b567b6ccd41ad312451b948a7413f0a142fd40d49347942adc25665018aa1fe0e6bc666dac8fc2697ff9baa0203aafa726810612f9f73bc52ad8a71567c2fd6284c4d79678ea73b66f9ecc8aa056e81f171bcc55a6ff8345e692c0f86e5b48e01b996cadc001622fb5e363b421a056e81f171bcc55a6ff8345e692c0f86e5b48e01b996cadc001622fb5e363b421b90100000000000000000000000000000000000000000000000000000000000000000000000000000000000000000000000000000000000000000000000000000000000000000000000000000000000000000000000000000000000000000000000000000000000000000000000000000000000000000000000000000000000000000000000000000000000000000000000000000000000000000000000000000000000000000000000000000000000000000000000000000000000000000000000000000000000000000000000000000000000000000000000000000000000000000000000000000000000000000000000000000000000000000000000000000000008302000080830f4240808203b642a056e81f171bcc55a6ff8345e692c0f86e5b48e01b996cadc001622fb5e363b421880102030405060708c0c0",
        "lastblockhash" : "0x36ba9dca153065529a6e3d13923eaa9175bdefe7c4c2ba7302a61143fffe16a9",
        "network" : "Homestead",
        "postState" : {
            "0x095e7baea6a6c7c4c2dfeb977efac326af552d87" : {
                "balance" : "0x0de0b6b3a7640000",
                "code" : "0x7f5e20a0453cecd065ea59c37ac63e079ee08998b6045136a8ce6635c7912ec0b6600052602060006000600073aaae7baea6a6c7c4c2dfeb977efac326af552d8761c350fa50600051600055",
                "nonce" : "0x00",
                "storage" : {
                }
            },
            "0x2adc25665018aa1fe0e6bc666dac8fc2697ff9ba" : {
                "balance" : "0x4563918244f40000",
                "code" : "",
                "nonce" : "0x00",
                "storage" : {
                }
            },
            "0xa94f5374fce5edbc8e2a8697c15331677e6ebf0b" : {
                "balance" : "0x0de0b6b3a7640000",
                "code" : "",
                "nonce" : "0x01",
                "storage" : {
                }
            },
            "0xaaae7baea6a6c7c4c2dfeb977efac326af552d87" : {
                "balance" : "0x0de0b6b3a7640000",
                "code" : "0x6001600101600055",
                "nonce" : "0x00",
                "storage" : {
                }
            }
        },
        "pre" : {
            "0x095e7baea6a6c7c4c2dfeb977efac326af552d87" : {
                "balance" : "0x0de0b6b3a7640000",
                "code" : "0x7f5e20a0453cecd065ea59c37ac63e079ee08998b6045136a8ce6635c7912ec0b6600052602060006000600073aaae7baea6a6c7c4c2dfeb977efac326af552d8761c350fa50600051600055",
                "nonce" : "0x00",
                "storage" : {
                }
            },
            "0xa94f5374fce5edbc8e2a8697c15331677e6ebf0b" : {
                "balance" : "0x0de0b6b3a7640000",
                "code" : "",
                "nonce" : "0x00",
                "storage" : {
                }
            },
            "0xaaae7baea6a6c7c4c2dfeb977efac326af552d87" : {
                "balance" : "0x0de0b6b3a7640000",
                "code" : "0x6001600101600055",
                "nonce" : "0x00",
                "storage" : {
                }
            }
        }
    }
}