{
    "static_CallGoesOOGOnSecondLevel_d0g0v0_Byzantium" : {
        "_info" : {
            "comment" : "",
            "filledwith" : "cpp-1.3.0+commit.6e0ce939.Linux.g++",
            "lllcversion" : "Version: 0.4.18-develop.2017.9.25+commit.a72237f2.Linux.g++",
            "source" : "src/BlockchainTestsFiller/GeneralStateTests/stStaticCall/static_CallGoesOOGOnSecondLevel_d0g0v0Filler.json",
            "sourceHash" : "c54ab6d3dd71f29d6401ad5fadc2b013ce7419a628ecbbe5b94d7716a343d7e9"
        },
        "blocks" : [
            {
                "blockHeader" : {
                    "bloom" : "0x00000000000000000000000000000000000000000000000000000000000000000000000000000000000000000000000000000000000000000000000000000000000000000000000000000000000000000000000000000000000000000000000000000000000000000000000000000000000000000000000000000000000000000000000000000000000000000000000000000000000000000000000000000000000000000000000000000000000000000000000000000000000000000000000000000000000000000000000000000000000000000000000000000000000000000000000000000000000000000000000000000000000000000000000000000000",
                    "coinbase" : "0x2adc25665018aa1fe0e6bc666dac8fc2697ff9ba",
                    "difficulty" : "0x020000",
                    "extraData" : "",
                    "gasLimit" : "0x989680",
                    "gasUsed" : "0x035b60",
                    "hash" : "0xa888ba45a790bcc419e15a37a5edff59a1f5ef60f60eb5b76ac82cad4aba9c5b",
                    "mixHash" : "0x7fc17849611375b3d1ef66c70318626ff6b2397044f04a51083c8b3c4d0d3ea8",
                    "nonce" : "0x46f42e9f2ac5c802",
                    "number" : "0x01",
                    "parentHash" : "0x783c6a3413f22217a622528ad8b9453cd5d7b333e153574d3503957267620d0d",
                    "receiptTrie" : "0xbc509029849afaf54cf15e3aa49d1facdba9d1e5cb03029f91f40c7ee0f456ae",
                    "stateRoot" : "0x533ebbe73a9d5c2ab6a5cb2f6b3a24df7e75689f04873f48ebd4589b61e46715",
                    "timestamp" : "0x03e8",
                    "transactionsTrie" : "0x778299110270c362288957e29ef88d9c7315bacd67359f9f8c03f6ffe6b79ec3",
                    "uncleHash" : "0x1dcc4de8dec75d7aab85b567b6ccd41ad312451b948a7413f0a142fd40d49347"
                },
                "rlp" : "0xf90260f901f8a0783c6a3413f22217a622528ad8b9453cd5d7b333e153574d3503957267620d0da01dcc4de8dec75d7aab85b567b6ccd41ad312451b948a7413f0a142fd40d49347942adc25665018aa1fe0e6bc666dac8fc2697ff9baa0533ebbe73a9d5c2ab6a5cb2f6b3a24df7e75689f04873f48ebd4589b61e46715a0778299110270c362288957e29ef88d9c7315bacd67359f9f8c03f6ffe6b79ec3a0bc509029849afaf54cf15e3aa49d1facdba9d1e5cb03029f91f40c7ee0f456aeb901000000000000000000000000000000000000000000000000000000000000000000000000000000000000000000000000000000000000000000000000000000000000000000000000000000000000000000000000000000000000000000000000000000000000000000000000000000000000000000000000000000000000000000000000000000000000000000000000000000000000000000000000000000000000000000000000000000000000000000000000000000000000000000000000000000000000000000000000000000000000000000000000000000000000000000000000000000000000000000000000000000000000000000000000000000000083020000018398968083035b608203e880a07fc17849611375b3d1ef66c70318626ff6b2397044f04a51083c8b3c4d0d3ea88846f42e9f2ac5c802f862f860800183035b6094b94f5374fce5edbc8e2a8697c15331677e6ebf0b80801ba0847209ee699a77891570bb06744dd6075a828587c935e45dfb023c2b3a95a5c6a031e90653d76ee3cc7651b1964b207777f83768aaf80ac05c8304e134c636bc36c0",
                "transactions" : [
                    {
                        "data" : "",
                        "gasLimit" : "0x035b60",
                        "gasPrice" : "0x01",
                        "nonce" : "0x00",
                        "r" : "0x847209ee699a77891570bb06744dd6075a828587c935e45dfb023c2b3a95a5c6",
                        "s" : "0x31e90653d76ee3cc7651b1964b207777f83768aaf80ac05c8304e134c636bc36",
                        "to" : "0xb94f5374fce5edbc8e2a8697c15331677e6ebf0b",
                        "v" : "0x1b",
                        "value" : "0x00"
                    }
                ],
                "uncleHeaders" : [
                ]
            }
        ],
        "genesisBlockHeader" : {
            "bloom" : "0x00000000000000000000000000000000000000000000000000000000000000000000000000000000000000000000000000000000000000000000000000000000000000000000000000000000000000000000000000000000000000000000000000000000000000000000000000000000000000000000000000000000000000000000000000000000000000000000000000000000000000000000000000000000000000000000000000000000000000000000000000000000000000000000000000000000000000000000000000000000000000000000000000000000000000000000000000000000000000000000000000000000000000000000000000000000",
            "coinbase" : "0x2adc25665018aa1fe0e6bc666dac8fc2697ff9ba",
            "difficulty" : "0x020000",
            "extraData" : "0x42",
            "gasLimit" : "0x989680",
            "gasUsed" : "0x00",
            "hash" : "0x783c6a3413f22217a622528ad8b9453cd5d7b333e153574d3503957267620d0d",
            "mixHash" : "0x56e81f171bcc55a6ff8345e692c0f86e5b48e01b996cadc001622fb5e363b421",
            "nonce" : "0x0102030405060708",
            "number" : "0x00",
            "parentHash" : "0x0000000000000000000000000000000000000000000000000000000000000000",
            "receiptTrie" : "0x56e81f171bcc55a6ff8345e692c0f86e5b48e01b996cadc001622fb5e363b421",
            "stateRoot" : "0x4c9444498ddf360221c4d220ec5e81acf18186fa4415dd5dbe76e1654bd2d5f3",
            "timestamp" : "0x03b6",
            "transactionsTrie" : "0x56e81f171bcc55a6ff8345e692c0f86e5b48e01b996cadc001622fb5e363b421",
            "uncleHash" : "0x1dcc4de8dec75d7aab85b567b6ccd41ad312451b948a7413f0a142fd40d49347"
        },
        "genesisRLP" : "0xf901faf901f5a00000000000000000000000000000000000000000000000000000000000000000a01dcc4de8dec75d7aab85b567b6ccd41ad312451b948a7413f0a142fd40d49347942adc25665018aa1fe0e6bc666dac8fc2697ff9baa04c9444498ddf360221c4d220ec5e81acf18186fa4415dd5dbe76e1654bd2d5f3a056e81f171bcc55a6ff8345e692c0f86e5b48e01b996cadc001622fb5e363b421a056e81f171bcc55a6ff8345e692c0f86e5b48e01b996cadc001622fb5e363b421b9010000000000000000000000000000000000000000000000000000000000000000000000000000000000000000000000000000000000000000000000000000000000000000000000000000000000000000000000000000000000000000000000000000000000000000000000000000000000000000000000000000000000000000000000000000000000000000000000000000000000000000000000000000000000000000000000000000000000000000000000000000000000000000000000000000000000000000000000000000000000000000000000000000000000000000000000000000000000000000000000000000000000000000000000000000000000830200008083989680808203b642a056e81f171bcc55a6ff8345e692c0f86e5b48e01b996cadc001622fb5e363b421880102030405060708c0c0",
        "lastblockhash" : "0xa888ba45a790bcc419e15a37a5edff59a1f5ef60f60eb5b76ac82cad4aba9c5b",
        "network" : "Byzantium",
        "postState" : {
            "0x1000000000000000000000000000000000000110" : {
                "balance" : "0x00",
                "code" : "0x5a6008526000600060006000731000000000000000000000000000000000000111620927c0fa600952",
                "nonce" : "0x00",
                "storage" : {
                }
            },
            "0x1000000000000000000000000000000000000111" : {
                "balance" : "0x00",
                "code" : "0x600060006000f050600060006000f0",
                "nonce" : "0x00",
                "storage" : {
                }
            },
            "0x2adc25665018aa1fe0e6bc666dac8fc2697ff9ba" : {
                "balance" : "0x29a2241af62f5b60",
                "code" : "",
                "nonce" : "0x00",
                "storage" : {
                }
            },
            "0xa94f5374fce5edbc8e2a8697c15331677e6ebf0b" : {
                "balance" : "0xe8d4a1b4a0",
                "code" : "",
                "nonce" : "0x01",
                "storage" : {
                }
            },
            "0xb94f5374fce5edbc8e2a8697c15331677e6ebf0b" : {
                "balance" : "0x00",
                "code" : "0x6000600060006000731000000000000000000000000000000000000110620927c0fa6009555a600a55",
                "nonce" : "0x00",
                "storage" : {
                }
            }
        },
        "pre" : {
            "0x1000000000000000000000000000000000000110" : {
                "balance" : "0x00",
                "code" : "0x5a6008526000600060006000731000000000000000000000000000000000000111620927c0fa600952",
                "nonce" : "0x00",
                "storage" : {
                }
            },
            "0x1000000000000000000000000000000000000111" : {
                "balance" : "0x00",
                "code" : "0x600060006000f050600060006000f0",
                "nonce" : "0x00",
                "storage" : {
                }
            },
            "0xa94f5374fce5edbc8e2a8697c15331677e6ebf0b" : {
                "balance" : "0xe8d4a51000",
                "code" : "",
                "nonce" : "0x00",
                "storage" : {
                }
            },
            "0xb94f5374fce5edbc8e2a8697c15331677e6ebf0b" : {
                "balance" : "0x00",
                "code" : "0x6000600060006000731000000000000000000000000000000000000110620927c0fa6009555a600a55",
                "nonce" : "0x00",
                "storage" : {
                }
            }
        }
    },
    "static_CallGoesOOGOnSecondLevel_d0g0v0_EIP150" : {
        "_info" : {
            "comment" : "",
            "filledwith" : "cpp-1.3.0+commit.6e0ce939.Linux.g++",
            "lllcversion" : "Version: 0.4.18-develop.2017.9.25+commit.a72237f2.Linux.g++",
            "source" : "src/BlockchainTestsFiller/GeneralStateTests/stStaticCall/static_CallGoesOOGOnSecondLevel_d0g0v0Filler.json",
            "sourceHash" : "c54ab6d3dd71f29d6401ad5fadc2b013ce7419a628ecbbe5b94d7716a343d7e9"
        },
        "blocks" : [
            {
                "blockHeader" : {
                    "bloom" : "0x00000000000000000000000000000000000000000000000000000000000000000000000000000000000000000000000000000000000000000000000000000000000000000000000000000000000000000000000000000000000000000000000000000000000000000000000000000000000000000000000000000000000000000000000000000000000000000000000000000000000000000000000000000000000000000000000000000000000000000000000000000000000000000000000000000000000000000000000000000000000000000000000000000000000000000000000000000000000000000000000000000000000000000000000000000000",
                    "coinbase" : "0x2adc25665018aa1fe0e6bc666dac8fc2697ff9ba",
                    "difficulty" : "0x020000",
                    "extraData" : "",
                    "gasLimit" : "0x989680",
                    "gasUsed" : "0x035b60",
                    "hash" : "0xfd62269d253bfabf7dbe7ee8ce7f0691dfe51251470bec57e8539ac2304ef97f",
                    "mixHash" : "0x6549545dd2b5349652ed65dda1db073ac3bbfd5a916e206aef57b7c12bb04fb3",
                    "nonce" : "0x5c3fd64320a7d560",
                    "number" : "0x01",
                    "parentHash" : "0x783c6a3413f22217a622528ad8b9453cd5d7b333e153574d3503957267620d0d",
                    "receiptTrie" : "0x13d7ad87a9cfd3e2c8b3c0627ef15e847d8384b9f21161656dc04a1704516d99",
                    "stateRoot" : "0xe1654357984c97b586d67c5e21cdbff315972689b8b2c7cd6b5574d0c81ef1e7",
                    "timestamp" : "0x03e8",
                    "transactionsTrie" : "0x778299110270c362288957e29ef88d9c7315bacd67359f9f8c03f6ffe6b79ec3",
                    "uncleHash" : "0x1dcc4de8dec75d7aab85b567b6ccd41ad312451b948a7413f0a142fd40d49347"
                },
                "rlp" : "0xf90260f901f8a0783c6a3413f22217a622528ad8b9453cd5d7b333e153574d3503957267620d0da01dcc4de8dec75d7aab85b567b6ccd41ad312451b948a7413f0a142fd40d49347942adc25665018aa1fe0e6bc666dac8fc2697ff9baa0e1654357984c97b586d67c5e21cdbff315972689b8b2c7cd6b5574d0c81ef1e7a0778299110270c362288957e29ef88d9c7315bacd67359f9f8c03f6ffe6b79ec3a013d7ad87a9cfd3e2c8b3c0627ef15e847d8384b9f21161656dc04a1704516d99b901000000000000000000000000000000000000000000000000000000000000000000000000000000000000000000000000000000000000000000000000000000000000000000000000000000000000000000000000000000000000000000000000000000000000000000000000000000000000000000000000000000000000000000000000000000000000000000000000000000000000000000000000000000000000000000000000000000000000000000000000000000000000000000000000000000000000000000000000000000000000000000000000000000000000000000000000000000000000000000000000000000000000000000000000000000000083020000018398968083035b608203e880a06549545dd2b5349652ed65dda1db073ac3bbfd5a916e206aef57b7c12bb04fb3885c3fd64320a7d560f862f860800183035b6094b94f5374fce5edbc8e2a8697c15331677e6ebf0b80801ba0847209ee699a77891570bb06744dd6075a828587c935e45dfb023c2b3a95a5c6a031e90653d76ee3cc7651b1964b207777f83768aaf80ac05c8304e134c636bc36c0",
                "transactions" : [
                    {
                        "data" : "",
                        "gasLimit" : "0x035b60",
                        "gasPrice" : "0x01",
                        "nonce" : "0x00",
                        "r" : "0x847209ee699a77891570bb06744dd6075a828587c935e45dfb023c2b3a95a5c6",
                        "s" : "0x31e90653d76ee3cc7651b1964b207777f83768aaf80ac05c8304e134c636bc36",
                        "to" : "0xb94f5374fce5edbc8e2a8697c15331677e6ebf0b",
                        "v" : "0x1b",
                        "value" : "0x00"
                    }
                ],
                "uncleHeaders" : [
                ]
            }
        ],
        "genesisBlockHeader" : {
            "bloom" : "0x00000000000000000000000000000000000000000000000000000000000000000000000000000000000000000000000000000000000000000000000000000000000000000000000000000000000000000000000000000000000000000000000000000000000000000000000000000000000000000000000000000000000000000000000000000000000000000000000000000000000000000000000000000000000000000000000000000000000000000000000000000000000000000000000000000000000000000000000000000000000000000000000000000000000000000000000000000000000000000000000000000000000000000000000000000000",
            "coinbase" : "0x2adc25665018aa1fe0e6bc666dac8fc2697ff9ba",
            "difficulty" : "0x020000",
            "extraData" : "0x42",
            "gasLimit" : "0x989680",
            "gasUsed" : "0x00",
            "hash" : "0x783c6a3413f22217a622528ad8b9453cd5d7b333e153574d3503957267620d0d",
            "mixHash" : "0x56e81f171bcc55a6ff8345e692c0f86e5b48e01b996cadc001622fb5e363b421",
            "nonce" : "0x0102030405060708",
            "number" : "0x00",
            "parentHash" : "0x0000000000000000000000000000000000000000000000000000000000000000",
            "receiptTrie" : "0x56e81f171bcc55a6ff8345e692c0f86e5b48e01b996cadc001622fb5e363b421",
            "stateRoot" : "0x4c9444498ddf360221c4d220ec5e81acf18186fa4415dd5dbe76e1654bd2d5f3",
            "timestamp" : "0x03b6",
            "transactionsTrie" : "0x56e81f171bcc55a6ff8345e692c0f86e5b48e01b996cadc001622fb5e363b421",
            "uncleHash" : "0x1dcc4de8dec75d7aab85b567b6ccd41ad312451b948a7413f0a142fd40d49347"
        },
        "genesisRLP" : "0xf901faf901f5a00000000000000000000000000000000000000000000000000000000000000000a01dcc4de8dec75d7aab85b567b6ccd41ad312451b948a7413f0a142fd40d49347942adc25665018aa1fe0e6bc666dac8fc2697ff9baa04c9444498ddf360221c4d220ec5e81acf18186fa4415dd5dbe76e1654bd2d5f3a056e81f171bcc55a6ff8345e692c0f86e5b48e01b996cadc001622fb5e363b421a056e81f171bcc55a6ff8345e692c0f86e5b48e01b996cadc001622fb5e363b421b9010000000000000000000000000000000000000000000000000000000000000000000000000000000000000000000000000000000000000000000000000000000000000000000000000000000000000000000000000000000000000000000000000000000000000000000000000000000000000000000000000000000000000000000000000000000000000000000000000000000000000000000000000000000000000000000000000000000000000000000000000000000000000000000000000000000000000000000000000000000000000000000000000000000000000000000000000000000000000000000000000000000000000000000000000000000000830200008083989680808203b642a056e81f171bcc55a6ff8345e692c0f86e5b48e01b996cadc001622fb5e363b421880102030405060708c0c0",
        "lastblockhash" : "0xfd62269d253bfabf7dbe7ee8ce7f0691dfe51251470bec57e8539ac2304ef97f",
        "network" : "EIP150",
        "postState" : {
            "0x1000000000000000000000000000000000000110" : {
                "balance" : "0x00",
                "code" : "0x5a6008526000600060006000731000000000000000000000000000000000000111620927c0fa600952",
                "nonce" : "0x00",
                "storage" : {
                }
            },
            "0x1000000000000000000000000000000000000111" : {
                "balance" : "0x00",
                "code" : "0x600060006000f050600060006000f0",
                "nonce" : "0x00",
                "storage" : {
                }
            },
            "0x2adc25665018aa1fe0e6bc666dac8fc2697ff9ba" : {
                "balance" : "0x4563918244f75b60",
                "code" : "",
                "nonce" : "0x00",
                "storage" : {
                }
            },
            "0xa94f5374fce5edbc8e2a8697c15331677e6ebf0b" : {
                "balance" : "0xe8d4a1b4a0",
                "code" : "",
                "nonce" : "0x01",
                "storage" : {
                }
            },
            "0xb94f5374fce5edbc8e2a8697c15331677e6ebf0b" : {
                "balance" : "0x00",
                "code" : "0x6000600060006000731000000000000000000000000000000000000110620927c0fa6009555a600a55",
                "nonce" : "0x00",
                "storage" : {
                }
            }
        },
        "pre" : {
            "0x1000000000000000000000000000000000000110" : {
                "balance" : "0x00",
                "code" : "0x5a6008526000600060006000731000000000000000000000000000000000000111620927c0fa600952",
                "nonce" : "0x00",
                "storage" : {
                }
            },
            "0x1000000000000000000000000000000000000111" : {
                "balance" : "0x00",
                "code" : "0x600060006000f050600060006000f0",
                "nonce" : "0x00",
                "storage" : {
                }
            },
            "0xa94f5374fce5edbc8e2a8697c15331677e6ebf0b" : {
                "balance" : "0xe8d4a51000",
                "code" : "",
                "nonce" : "0x00",
                "storage" : {
                }
            },
            "0xb94f5374fce5edbc8e2a8697c15331677e6ebf0b" : {
                "balance" : "0x00",
                "code" : "0x6000600060006000731000000000000000000000000000000000000110620927c0fa6009555a600a55",
                "nonce" : "0x00",
                "storage" : {
                }
            }
        }
    },
    "static_CallGoesOOGOnSecondLevel_d0g0v0_EIP158" : {
        "_info" : {
            "comment" : "",
            "filledwith" : "cpp-1.3.0+commit.6e0ce939.Linux.g++",
            "lllcversion" : "Version: 0.4.18-develop.2017.9.25+commit.a72237f2.Linux.g++",
            "source" : "src/BlockchainTestsFiller/GeneralStateTests/stStaticCall/static_CallGoesOOGOnSecondLevel_d0g0v0Filler.json",
            "sourceHash" : "c54ab6d3dd71f29d6401ad5fadc2b013ce7419a628ecbbe5b94d7716a343d7e9"
        },
        "blocks" : [
            {
                "blockHeader" : {
                    "bloom" : "0x00000000000000000000000000000000000000000000000000000000000000000000000000000000000000000000000000000000000000000000000000000000000000000000000000000000000000000000000000000000000000000000000000000000000000000000000000000000000000000000000000000000000000000000000000000000000000000000000000000000000000000000000000000000000000000000000000000000000000000000000000000000000000000000000000000000000000000000000000000000000000000000000000000000000000000000000000000000000000000000000000000000000000000000000000000000",
                    "coinbase" : "0x2adc25665018aa1fe0e6bc666dac8fc2697ff9ba",
                    "difficulty" : "0x020000",
                    "extraData" : "",
                    "gasLimit" : "0x989680",
                    "gasUsed" : "0x035b60",
                    "hash" : "0x2bace064df9f59c6d4df589f9a16c74e6c4aaf5bd50e779803b8789d132d25c6",
                    "mixHash" : "0xd65510a124a77ee096cbbf2083093396b252e194e908f7b3ba0660560494db65",
                    "nonce" : "0x3e5fb5b2037b18ad",
                    "number" : "0x01",
                    "parentHash" : "0x783c6a3413f22217a622528ad8b9453cd5d7b333e153574d3503957267620d0d",
                    "receiptTrie" : "0x13d7ad87a9cfd3e2c8b3c0627ef15e847d8384b9f21161656dc04a1704516d99",
                    "stateRoot" : "0xe1654357984c97b586d67c5e21cdbff315972689b8b2c7cd6b5574d0c81ef1e7",
                    "timestamp" : "0x03e8",
                    "transactionsTrie" : "0x778299110270c362288957e29ef88d9c7315bacd67359f9f8c03f6ffe6b79ec3",
                    "uncleHash" : "0x1dcc4de8dec75d7aab85b567b6ccd41ad312451b948a7413f0a142fd40d49347"
                },
                "rlp" : "0xf90260f901f8a0783c6a3413f22217a622528ad8b9453cd5d7b333e153574d3503957267620d0da01dcc4de8dec75d7aab85b567b6ccd41ad312451b948a7413f0a142fd40d49347942adc25665018aa1fe0e6bc666dac8fc2697ff9baa0e1654357984c97b586d67c5e21cdbff315972689b8b2c7cd6b5574d0c81ef1e7a0778299110270c362288957e29ef88d9c7315bacd67359f9f8c03f6ffe6b79ec3a013d7ad87a9cfd3e2c8b3c0627ef15e847d8384b9f21161656dc04a1704516d99b901000000000000000000000000000000000000000000000000000000000000000000000000000000000000000000000000000000000000000000000000000000000000000000000000000000000000000000000000000000000000000000000000000000000000000000000000000000000000000000000000000000000000000000000000000000000000000000000000000000000000000000000000000000000000000000000000000000000000000000000000000000000000000000000000000000000000000000000000000000000000000000000000000000000000000000000000000000000000000000000000000000000000000000000000000000000083020000018398968083035b608203e880a0d65510a124a77ee096cbbf2083093396b252e194e908f7b3ba0660560494db65883e5fb5b2037b18adf862f860800183035b6094b94f5374fce5edbc8e2a8697c15331677e6ebf0b80801ba0847209ee699a77891570bb06744dd6075a828587c935e45dfb023c2b3a95a5c6a031e90653d76ee3cc7651b1964b207777f83768aaf80ac05c8304e134c636bc36c0",
                "transactions" : [
                    {
                        "data" : "",
                        "gasLimit" : "0x035b60",
                        "gasPrice" : "0x01",
                        "nonce" : "0x00",
                        "r" : "0x847209ee699a77891570bb06744dd6075a828587c935e45dfb023c2b3a95a5c6",
                        "s" : "0x31e90653d76ee3cc7651b1964b207777f83768aaf80ac05c8304e134c636bc36",
                        "to" : "0xb94f5374fce5edbc8e2a8697c15331677e6ebf0b",
                        "v" : "0x1b",
                        "value" : "0x00"
                    }
                ],
                "uncleHeaders" : [
                ]
            }
        ],
        "genesisBlockHeader" : {
            "bloom" : "0x00000000000000000000000000000000000000000000000000000000000000000000000000000000000000000000000000000000000000000000000000000000000000000000000000000000000000000000000000000000000000000000000000000000000000000000000000000000000000000000000000000000000000000000000000000000000000000000000000000000000000000000000000000000000000000000000000000000000000000000000000000000000000000000000000000000000000000000000000000000000000000000000000000000000000000000000000000000000000000000000000000000000000000000000000000000",
            "coinbase" : "0x2adc25665018aa1fe0e6bc666dac8fc2697ff9ba",
            "difficulty" : "0x020000",
            "extraData" : "0x42",
            "gasLimit" : "0x989680",
            "gasUsed" : "0x00",
            "hash" : "0x783c6a3413f22217a622528ad8b9453cd5d7b333e153574d3503957267620d0d",
            "mixHash" : "0x56e81f171bcc55a6ff8345e692c0f86e5b48e01b996cadc001622fb5e363b421",
            "nonce" : "0x0102030405060708",
            "number" : "0x00",
            "parentHash" : "0x0000000000000000000000000000000000000000000000000000000000000000",
            "receiptTrie" : "0x56e81f171bcc55a6ff8345e692c0f86e5b48e01b996cadc001622fb5e363b421",
            "stateRoot" : "0x4c9444498ddf360221c4d220ec5e81acf18186fa4415dd5dbe76e1654bd2d5f3",
            "timestamp" : "0x03b6",
            "transactionsTrie" : "0x56e81f171bcc55a6ff8345e692c0f86e5b48e01b996cadc001622fb5e363b421",
            "uncleHash" : "0x1dcc4de8dec75d7aab85b567b6ccd41ad312451b948a7413f0a142fd40d49347"
        },
        "genesisRLP" : "0xf901faf901f5a00000000000000000000000000000000000000000000000000000000000000000a01dcc4de8dec75d7aab85b567b6ccd41ad312451b948a7413f0a142fd40d49347942adc25665018aa1fe0e6bc666dac8fc2697ff9baa04c9444498ddf360221c4d220ec5e81acf18186fa4415dd5dbe76e1654bd2d5f3a056e81f171bcc55a6ff8345e692c0f86e5b48e01b996cadc001622fb5e363b421a056e81f171bcc55a6ff8345e692c0f86e5b48e01b996cadc001622fb5e363b421b9010000000000000000000000000000000000000000000000000000000000000000000000000000000000000000000000000000000000000000000000000000000000000000000000000000000000000000000000000000000000000000000000000000000000000000000000000000000000000000000000000000000000000000000000000000000000000000000000000000000000000000000000000000000000000000000000000000000000000000000000000000000000000000000000000000000000000000000000000000000000000000000000000000000000000000000000000000000000000000000000000000000000000000000000000000000000830200008083989680808203b642a056e81f171bcc55a6ff8345e692c0f86e5b48e01b996cadc001622fb5e363b421880102030405060708c0c0",
        "lastblockhash" : "0x2bace064df9f59c6d4df589f9a16c74e6c4aaf5bd50e779803b8789d132d25c6",
        "network" : "EIP158",
        "postState" : {
            "0x1000000000000000000000000000000000000110" : {
                "balance" : "0x00",
                "code" : "0x5a6008526000600060006000731000000000000000000000000000000000000111620927c0fa600952",
                "nonce" : "0x00",
                "storage" : {
                }
            },
            "0x1000000000000000000000000000000000000111" : {
                "balance" : "0x00",
                "code" : "0x600060006000f050600060006000f0",
                "nonce" : "0x00",
                "storage" : {
                }
            },
            "0x2adc25665018aa1fe0e6bc666dac8fc2697ff9ba" : {
                "balance" : "0x4563918244f75b60",
                "code" : "",
                "nonce" : "0x00",
                "storage" : {
                }
            },
            "0xa94f5374fce5edbc8e2a8697c15331677e6ebf0b" : {
                "balance" : "0xe8d4a1b4a0",
                "code" : "",
                "nonce" : "0x01",
                "storage" : {
                }
            },
            "0xb94f5374fce5edbc8e2a8697c15331677e6ebf0b" : {
                "balance" : "0x00",
                "code" : "0x6000600060006000731000000000000000000000000000000000000110620927c0fa6009555a600a55",
                "nonce" : "0x00",
                "storage" : {
                }
            }
        },
        "pre" : {
            "0x1000000000000000000000000000000000000110" : {
                "balance" : "0x00",
                "code" : "0x5a6008526000600060006000731000000000000000000000000000000000000111620927c0fa600952",
                "nonce" : "0x00",
                "storage" : {
                }
            },
            "0x1000000000000000000000000000000000000111" : {
                "balance" : "0x00",
                "code" : "0x600060006000f050600060006000f0",
                "nonce" : "0x00",
                "storage" : {
                }
            },
            "0xa94f5374fce5edbc8e2a8697c15331677e6ebf0b" : {
                "balance" : "0xe8d4a51000",
                "code" : "",
                "nonce" : "0x00",
                "storage" : {
                }
            },
            "0xb94f5374fce5edbc8e2a8697c15331677e6ebf0b" : {
                "balance" : "0x00",
                "code" : "0x6000600060006000731000000000000000000000000000000000000110620927c0fa6009555a600a55",
                "nonce" : "0x00",
                "storage" : {
                }
            }
        }
    },
    "static_CallGoesOOGOnSecondLevel_d0g0v0_Frontier" : {
        "_info" : {
            "comment" : "",
            "filledwith" : "cpp-1.3.0+commit.6e0ce939.Linux.g++",
            "lllcversion" : "Version: 0.4.18-develop.2017.9.25+commit.a72237f2.Linux.g++",
            "source" : "src/BlockchainTestsFiller/GeneralStateTests/stStaticCall/static_CallGoesOOGOnSecondLevel_d0g0v0Filler.json",
            "sourceHash" : "c54ab6d3dd71f29d6401ad5fadc2b013ce7419a628ecbbe5b94d7716a343d7e9"
        },
        "blocks" : [
            {
                "blockHeader" : {
                    "bloom" : "0x00000000000000000000000000000000000000000000000000000000000000000000000000000000000000000000000000000000000000000000000000000000000000000000000000000000000000000000000000000000000000000000000000000000000000000000000000000000000000000000000000000000000000000000000000000000000000000000000000000000000000000000000000000000000000000000000000000000000000000000000000000000000000000000000000000000000000000000000000000000000000000000000000000000000000000000000000000000000000000000000000000000000000000000000000000000",
                    "coinbase" : "0x2adc25665018aa1fe0e6bc666dac8fc2697ff9ba",
                    "difficulty" : "0x020000",
                    "extraData" : "",
                    "gasLimit" : "0x989680",
                    "gasUsed" : "0x035b60",
                    "hash" : "0xbb4b39b2a7825ae824aff6dbdc417279bd622f4b7bebb224d1b6fc71d91db366",
                    "mixHash" : "0x37250feb5359d22d7fb0f86abff653b7621e59a074b461d3e3df5e0a5d095cde",
                    "nonce" : "0x6422d3e20b5a5cd3",
                    "number" : "0x01",
                    "parentHash" : "0x783c6a3413f22217a622528ad8b9453cd5d7b333e153574d3503957267620d0d",
                    "receiptTrie" : "0x13d7ad87a9cfd3e2c8b3c0627ef15e847d8384b9f21161656dc04a1704516d99",
                    "stateRoot" : "0xe1654357984c97b586d67c5e21cdbff315972689b8b2c7cd6b5574d0c81ef1e7",
                    "timestamp" : "0x03e8",
                    "transactionsTrie" : "0x778299110270c362288957e29ef88d9c7315bacd67359f9f8c03f6ffe6b79ec3",
                    "uncleHash" : "0x1dcc4de8dec75d7aab85b567b6ccd41ad312451b948a7413f0a142fd40d49347"
                },
                "rlp" : "0xf90260f901f8a0783c6a3413f22217a622528ad8b9453cd5d7b333e153574d3503957267620d0da01dcc4de8dec75d7aab85b567b6ccd41ad312451b948a7413f0a142fd40d49347942adc25665018aa1fe0e6bc666dac8fc2697ff9baa0e1654357984c97b586d67c5e21cdbff315972689b8b2c7cd6b5574d0c81ef1e7a0778299110270c362288957e29ef88d9c7315bacd67359f9f8c03f6ffe6b79ec3a013d7ad87a9cfd3e2c8b3c0627ef15e847d8384b9f21161656dc04a1704516d99b901000000000000000000000000000000000000000000000000000000000000000000000000000000000000000000000000000000000000000000000000000000000000000000000000000000000000000000000000000000000000000000000000000000000000000000000000000000000000000000000000000000000000000000000000000000000000000000000000000000000000000000000000000000000000000000000000000000000000000000000000000000000000000000000000000000000000000000000000000000000000000000000000000000000000000000000000000000000000000000000000000000000000000000000000000000000083020000018398968083035b608203e880a037250feb5359d22d7fb0f86abff653b7621e59a074b461d3e3df5e0a5d095cde886422d3e20b5a5cd3f862f860800183035b6094b94f5374fce5edbc8e2a8697c15331677e6ebf0b80801ba0847209ee699a77891570bb06744dd6075a828587c935e45dfb023c2b3a95a5c6a031e90653d76ee3cc7651b1964b207777f83768aaf80ac05c8304e134c636bc36c0",
                "transactions" : [
                    {
                        "data" : "",
                        "gasLimit" : "0x035b60",
                        "gasPrice" : "0x01",
                        "nonce" : "0x00",
                        "r" : "0x847209ee699a77891570bb06744dd6075a828587c935e45dfb023c2b3a95a5c6",
                        "s" : "0x31e90653d76ee3cc7651b1964b207777f83768aaf80ac05c8304e134c636bc36",
                        "to" : "0xb94f5374fce5edbc8e2a8697c15331677e6ebf0b",
                        "v" : "0x1b",
                        "value" : "0x00"
                    }
                ],
                "uncleHeaders" : [
                ]
            }
        ],
        "genesisBlockHeader" : {
            "bloom" : "0x00000000000000000000000000000000000000000000000000000000000000000000000000000000000000000000000000000000000000000000000000000000000000000000000000000000000000000000000000000000000000000000000000000000000000000000000000000000000000000000000000000000000000000000000000000000000000000000000000000000000000000000000000000000000000000000000000000000000000000000000000000000000000000000000000000000000000000000000000000000000000000000000000000000000000000000000000000000000000000000000000000000000000000000000000000000",
            "coinbase" : "0x2adc25665018aa1fe0e6bc666dac8fc2697ff9ba",
            "difficulty" : "0x020000",
            "extraData" : "0x42",
            "gasLimit" : "0x989680",
            "gasUsed" : "0x00",
            "hash" : "0x783c6a3413f22217a622528ad8b9453cd5d7b333e153574d3503957267620d0d",
            "mixHash" : "0x56e81f171bcc55a6ff8345e692c0f86e5b48e01b996cadc001622fb5e363b421",
            "nonce" : "0x0102030405060708",
            "number" : "0x00",
            "parentHash" : "0x0000000000000000000000000000000000000000000000000000000000000000",
            "receiptTrie" : "0x56e81f171bcc55a6ff8345e692c0f86e5b48e01b996cadc001622fb5e363b421",
            "stateRoot" : "0x4c9444498ddf360221c4d220ec5e81acf18186fa4415dd5dbe76e1654bd2d5f3",
            "timestamp" : "0x03b6",
            "transactionsTrie" : "0x56e81f171bcc55a6ff8345e692c0f86e5b48e01b996cadc001622fb5e363b421",
            "uncleHash" : "0x1dcc4de8dec75d7aab85b567b6ccd41ad312451b948a7413f0a142fd40d49347"
        },
        "genesisRLP" : "0xf901faf901f5a00000000000000000000000000000000000000000000000000000000000000000a01dcc4de8dec75d7aab85b567b6ccd41ad312451b948a7413f0a142fd40d49347942adc25665018aa1fe0e6bc666dac8fc2697ff9baa04c9444498ddf360221c4d220ec5e81acf18186fa4415dd5dbe76e1654bd2d5f3a056e81f171bcc55a6ff8345e692c0f86e5b48e01b996cadc001622fb5e363b421a056e81f171bcc55a6ff8345e692c0f86e5b48e01b996cadc001622fb5e363b421b9010000000000000000000000000000000000000000000000000000000000000000000000000000000000000000000000000000000000000000000000000000000000000000000000000000000000000000000000000000000000000000000000000000000000000000000000000000000000000000000000000000000000000000000000000000000000000000000000000000000000000000000000000000000000000000000000000000000000000000000000000000000000000000000000000000000000000000000000000000000000000000000000000000000000000000000000000000000000000000000000000000000000000000000000000000000000830200008083989680808203b642a056e81f171bcc55a6ff8345e692c0f86e5b48e01b996cadc001622fb5e363b421880102030405060708c0c0",
        "lastblockhash" : "0xbb4b39b2a7825ae824aff6dbdc417279bd622f4b7bebb224d1b6fc71d91db366",
        "network" : "Frontier",
        "postState" : {
            "0x1000000000000000000000000000000000000110" : {
                "balance" : "0x00",
                "code" : "0x5a6008526000600060006000731000000000000000000000000000000000000111620927c0fa600952",
                "nonce" : "0x00",
                "storage" : {
                }
            },
            "0x1000000000000000000000000000000000000111" : {
                "balance" : "0x00",
                "code" : "0x600060006000f050600060006000f0",
                "nonce" : "0x00",
                "storage" : {
                }
            },
            "0x2adc25665018aa1fe0e6bc666dac8fc2697ff9ba" : {
                "balance" : "0x4563918244f75b60",
                "code" : "",
                "nonce" : "0x00",
                "storage" : {
                }
            },
            "0xa94f5374fce5edbc8e2a8697c15331677e6ebf0b" : {
                "balance" : "0xe8d4a1b4a0",
                "code" : "",
                "nonce" : "0x01",
                "storage" : {
                }
            },
            "0xb94f5374fce5edbc8e2a8697c15331677e6ebf0b" : {
                "balance" : "0x00",
                "code" : "0x6000600060006000731000000000000000000000000000000000000110620927c0fa6009555a600a55",
                "nonce" : "0x00",
                "storage" : {
                }
            }
        },
        "pre" : {
            "0x1000000000000000000000000000000000000110" : {
                "balance" : "0x00",
                "code" : "0x5a6008526000600060006000731000000000000000000000000000000000000111620927c0fa600952",
                "nonce" : "0x00",
                "storage" : {
                }
            },
            "0x1000000000000000000000000000000000000111" : {
                "balance" : "0x00",
                "code" : "0x600060006000f050600060006000f0",
                "nonce" : "0x00",
                "storage" : {
                }
            },
            "0xa94f5374fce5edbc8e2a8697c15331677e6ebf0b" : {
                "balance" : "0xe8d4a51000",
                "code" : "",
                "nonce" : "0x00",
                "storage" : {
                }
            },
            "0xb94f5374fce5edbc8e2a8697c15331677e6ebf0b" : {
                "balance" : "0x00",
                "code" : "0x6000600060006000731000000000000000000000000000000000000110620927c0fa6009555a600a55",
                "nonce" : "0x00",
                "storage" : {
                }
            }
        }
    },
    "static_CallGoesOOGOnSecondLevel_d0g0v0_Homestead" : {
        "_info" : {
            "comment" : "",
            "filledwith" : "cpp-1.3.0+commit.6e0ce939.Linux.g++",
            "lllcversion" : "Version: 0.4.18-develop.2017.9.25+commit.a72237f2.Linux.g++",
            "source" : "src/BlockchainTestsFiller/GeneralStateTests/stStaticCall/static_CallGoesOOGOnSecondLevel_d0g0v0Filler.json",
            "sourceHash" : "c54ab6d3dd71f29d6401ad5fadc2b013ce7419a628ecbbe5b94d7716a343d7e9"
        },
        "blocks" : [
            {
                "blockHeader" : {
                    "bloom" : "0x00000000000000000000000000000000000000000000000000000000000000000000000000000000000000000000000000000000000000000000000000000000000000000000000000000000000000000000000000000000000000000000000000000000000000000000000000000000000000000000000000000000000000000000000000000000000000000000000000000000000000000000000000000000000000000000000000000000000000000000000000000000000000000000000000000000000000000000000000000000000000000000000000000000000000000000000000000000000000000000000000000000000000000000000000000000",
                    "coinbase" : "0x2adc25665018aa1fe0e6bc666dac8fc2697ff9ba",
                    "difficulty" : "0x020000",
                    "extraData" : "",
                    "gasLimit" : "0x989680",
                    "gasUsed" : "0x035b60",
                    "hash" : "0x27e586fbc713694e10e8879788733cbb8ddd46786d591c1fcbd7a3145cb0d3b7",
                    "mixHash" : "0x438115db554c9af682733e484b917322458efe071e4fd11fda2bc73f9811a32c",
                    "nonce" : "0x539cf9cd4e6b09d1",
                    "number" : "0x01",
                    "parentHash" : "0x783c6a3413f22217a622528ad8b9453cd5d7b333e153574d3503957267620d0d",
                    "receiptTrie" : "0x13d7ad87a9cfd3e2c8b3c0627ef15e847d8384b9f21161656dc04a1704516d99",
                    "stateRoot" : "0xe1654357984c97b586d67c5e21cdbff315972689b8b2c7cd6b5574d0c81ef1e7",
                    "timestamp" : "0x03e8",
                    "transactionsTrie" : "0x778299110270c362288957e29ef88d9c7315bacd67359f9f8c03f6ffe6b79ec3",
                    "uncleHash" : "0x1dcc4de8dec75d7aab85b567b6ccd41ad312451b948a7413f0a142fd40d49347"
                },
                "rlp" : "0xf90260f901f8a0783c6a3413f22217a622528ad8b9453cd5d7b333e153574d3503957267620d0da01dcc4de8dec75d7aab85b567b6ccd41ad312451b948a7413f0a142fd40d49347942adc25665018aa1fe0e6bc666dac8fc2697ff9baa0e1654357984c97b586d67c5e21cdbff315972689b8b2c7cd6b5574d0c81ef1e7a0778299110270c362288957e29ef88d9c7315bacd67359f9f8c03f6ffe6b79ec3a013d7ad87a9cfd3e2c8b3c0627ef15e847d8384b9f21161656dc04a1704516d99b901000000000000000000000000000000000000000000000000000000000000000000000000000000000000000000000000000000000000000000000000000000000000000000000000000000000000000000000000000000000000000000000000000000000000000000000000000000000000000000000000000000000000000000000000000000000000000000000000000000000000000000000000000000000000000000000000000000000000000000000000000000000000000000000000000000000000000000000000000000000000000000000000000000000000000000000000000000000000000000000000000000000000000000000000000000000083020000018398968083035b608203e880a0438115db554c9af682733e484b917322458efe071e4fd11fda2bc73f9811a32c88539cf9cd4e6b09d1f862f860800183035b6094b94f5374fce5edbc8e2a8697c15331677e6ebf0b80801ba0847209ee699a77891570bb06744dd6075a828587c935e45dfb023c2b3a95a5c6a031e90653d76ee3cc7651b1964b207777f83768aaf80ac05c8304e134c636bc36c0",
                "transactions" : [
                    {
                        "data" : "",
                        "gasLimit" : "0x035b60",
                        "gasPrice" : "0x01",
                        "nonce" : "0x00",
                        "r" : "0x847209ee699a77891570bb06744dd6075a828587c935e45dfb023c2b3a95a5c6",
                        "s" : "0x31e90653d76ee3cc7651b1964b207777f83768aaf80ac05c8304e134c636bc36",
                        "to" : "0xb94f5374fce5edbc8e2a8697c15331677e6ebf0b",
                        "v" : "0x1b",
                        "value" : "0x00"
                    }
                ],
                "uncleHeaders" : [
                ]
            }
        ],
        "genesisBlockHeader" : {
            "bloom" : "0x00000000000000000000000000000000000000000000000000000000000000000000000000000000000000000000000000000000000000000000000000000000000000000000000000000000000000000000000000000000000000000000000000000000000000000000000000000000000000000000000000000000000000000000000000000000000000000000000000000000000000000000000000000000000000000000000000000000000000000000000000000000000000000000000000000000000000000000000000000000000000000000000000000000000000000000000000000000000000000000000000000000000000000000000000000000",
            "coinbase" : "0x2adc25665018aa1fe0e6bc666dac8fc2697ff9ba",
            "difficulty" : "0x020000",
            "extraData" : "0x42",
            "gasLimit" : "0x989680",
            "gasUsed" : "0x00",
            "hash" : "0x783c6a3413f22217a622528ad8b9453cd5d7b333e153574d3503957267620d0d",
            "mixHash" : "0x56e81f171bcc55a6ff8345e692c0f86e5b48e01b996cadc001622fb5e363b421",
            "nonce" : "0x0102030405060708",
            "number" : "0x00",
            "parentHash" : "0x0000000000000000000000000000000000000000000000000000000000000000",
            "receiptTrie" : "0x56e81f171bcc55a6ff8345e692c0f86e5b48e01b996cadc001622fb5e363b421",
            "stateRoot" : "0x4c9444498ddf360221c4d220ec5e81acf18186fa4415dd5dbe76e1654bd2d5f3",
            "timestamp" : "0x03b6",
            "transactionsTrie" : "0x56e81f171bcc55a6ff8345e692c0f86e5b48e01b996cadc001622fb5e363b421",
            "uncleHash" : "0x1dcc4de8dec75d7aab85b567b6ccd41ad312451b948a7413f0a142fd40d49347"
        },
        "genesisRLP" : "0xf901faf901f5a00000000000000000000000000000000000000000000000000000000000000000a01dcc4de8dec75d7aab85b567b6ccd41ad312451b948a7413f0a142fd40d49347942adc25665018aa1fe0e6bc666dac8fc2697ff9baa04c9444498ddf360221c4d220ec5e81acf18186fa4415dd5dbe76e1654bd2d5f3a056e81f171bcc55a6ff8345e692c0f86e5b48e01b996cadc001622fb5e363b421a056e81f171bcc55a6ff8345e692c0f86e5b48e01b996cadc001622fb5e363b421b9010000000000000000000000000000000000000000000000000000000000000000000000000000000000000000000000000000000000000000000000000000000000000000000000000000000000000000000000000000000000000000000000000000000000000000000000000000000000000000000000000000000000000000000000000000000000000000000000000000000000000000000000000000000000000000000000000000000000000000000000000000000000000000000000000000000000000000000000000000000000000000000000000000000000000000000000000000000000000000000000000000000000000000000000000000000000830200008083989680808203b642a056e81f171bcc55a6ff8345e692c0f86e5b48e01b996cadc001622fb5e363b421880102030405060708c0c0",
        "lastblockhash" : "0x27e586fbc713694e10e8879788733cbb8ddd46786d591c1fcbd7a3145cb0d3b7",
        "network" : "Homestead",
        "postState" : {
            "0x1000000000000000000000000000000000000110" : {
                "balance" : "0x00",
                "code" : "0x5a6008526000600060006000731000000000000000000000000000000000000111620927c0fa600952",
                "nonce" : "0x00",
                "storage" : {
                }
            },
            "0x1000000000000000000000000000000000000111" : {
                "balance" : "0x00",
                "code" : "0x600060006000f050600060006000f0",
                "nonce" : "0x00",
                "storage" : {
                }
            },
            "0x2adc25665018aa1fe0e6bc666dac8fc2697ff9ba" : {
                "balance" : "0x4563918244f75b60",
                "code" : "",
                "nonce" : "0x00",
                "storage" : {
                }
            },
            "0xa94f5374fce5edbc8e2a8697c15331677e6ebf0b" : {
                "balance" : "0xe8d4a1b4a0",
                "code" : "",
                "nonce" : "0x01",
                "storage" : {
                }
            },
            "0xb94f5374fce5edbc8e2a8697c15331677e6ebf0b" : {
                "balance" : "0x00",
                "code" : "0x6000600060006000731000000000000000000000000000000000000110620927c0fa6009555a600a55",
                "nonce" : "0x00",
                "storage" : {
                }
            }
        },
        "pre" : {
            "0x1000000000000000000000000000000000000110" : {
                "balance" : "0x00",
                "code" : "0x5a6008526000600060006000731000000000000000000000000000000000000111620927c0fa600952",
                "nonce" : "0x00",
                "storage" : {
                }
            },
            "0x1000000000000000000000000000000000000111" : {
                "balance" : "0x00",
                "code" : "0x600060006000f050600060006000f0",
                "nonce" : "0x00",
                "storage" : {
                }
            },
            "0xa94f5374fce5edbc8e2a8697c15331677e6ebf0b" : {
                "balance" : "0xe8d4a51000",
                "code" : "",
                "nonce" : "0x00",
                "storage" : {
                }
            },
            "0xb94f5374fce5edbc8e2a8697c15331677e6ebf0b" : {
                "balance" : "0x00",
                "code" : "0x6000600060006000731000000000000000000000000000000000000110620927c0fa6009555a600a55",
                "nonce" : "0x00",
                "storage" : {
                }
            }
        }
    }
}