{
    "static_CallRecursiveBombLog_d0g0v0_Byzantium" : {
        "_info" : {
            "comment" : "",
            "filledwith" : "cpp-1.3.0+commit.6e0ce939.Linux.g++",
            "lllcversion" : "Version: 0.4.18-develop.2017.9.25+commit.a72237f2.Linux.g++",
            "source" : "src/BlockchainTestsFiller/GeneralStateTests/stStaticCall/static_CallRecursiveBombLog_d0g0v0Filler.json",
            "sourceHash" : "0b3e6d9025a531445c64eaa16f5f6d039a93e8df820e18dc0f4d3bd7e48e369b"
        },
        "blocks" : [
            {
                "blockHeader" : {
                    "bloom" : "0x00000000000000000000000000000000000000000000000000000000000000000000000000000000000000000000000000000000000000000000000000000000000000000000000000000000000000000000000000000000000000000000000000000000000000000000000000000000000000000000000000000000000000000000000000000000000000000000000000000000000000000000000000000000000000000000000000000000000000000000000000000000000000000000000000000000000000000000000000000000000000000000000000000000000000000000000000000000000000000000000000000000000000000000000000000000",
                    "coinbase" : "0x2adc25665018aa1fe0e6bc666dac8fc2697ff9ba",
                    "difficulty" : "0x020000",
                    "extraData" : "",
                    "gasLimit" : "0x02540be400",
                    "gasUsed" : "0x024abc1774",
                    "hash" : "0xb7b1e590a3eda3bb3b350d358b0f7ac54809e1326a36d12ce1c153cbeba778b1",
                    "mixHash" : "0xdc481456aa5ea36a163f0002aad12baa2b886b0155e8e782028af0d2bd40c38a",
                    "nonce" : "0xe2d12672c043871b",
                    "number" : "0x01",
                    "parentHash" : "0x00d7cc67385ce655a610656e93015d9c1860157c3598994a52a8eb723fcb716b",
                    "receiptTrie" : "0x07be49a70cd1c8db70560df27a432099db28b2d7a7027c9555f0a03a25eaf7ef",
                    "stateRoot" : "0xa3d4e388a347242a6eaf9e0955999defa9b8578a7a1ac7f7709fd79b5eb4a962",
                    "timestamp" : "0x03e8",
                    "transactionsTrie" : "0x0af7b181de6f4a1f154aa23eb601a797bb2289b039c5756fbe0cbf66a3132e9b",
                    "uncleHash" : "0x1dcc4de8dec75d7aab85b567b6ccd41ad312451b948a7413f0a142fd40d49347"
                },
                "rlp" : "0xf90269f901fca000d7cc67385ce655a610656e93015d9c1860157c3598994a52a8eb723fcb716ba01dcc4de8dec75d7aab85b567b6ccd41ad312451b948a7413f0a142fd40d49347942adc25665018aa1fe0e6bc666dac8fc2697ff9baa0a3d4e388a347242a6eaf9e0955999defa9b8578a7a1ac7f7709fd79b5eb4a962a00af7b181de6f4a1f154aa23eb601a797bb2289b039c5756fbe0cbf66a3132e9ba007be49a70cd1c8db70560df27a432099db28b2d7a7027c9555f0a03a25eaf7efb901000000000000000000000000000000000000000000000000000000000000000000000000000000000000000000000000000000000000000000000000000000000000000000000000000000000000000000000000000000000000000000000000000000000000000000000000000000000000000000000000000000000000000000000000000000000000000000000000000000000000000000000000000000000000000000000000000000000000000000000000000000000000000000000000000000000000000000000000000000000000000000000000000000000000000000000000000000000000000000000000000000000000000000000000000000000083020000018502540be40085024abc17748203e880a0dc481456aa5ea36a163f0002aad12baa2b886b0155e8e782028af0d2bd40c38a88e2d12672c043871bf867f86580018502540be40094095e7baea6a6c7c4c2dfeb977efac326af552d87830186a0801ba03874910128913e29e0a4feea2af012d8269da44cc1bfacad5d847a8707399affa069ae4529ef229bdb5d99ec7af5293277639304e6eedd39bddbe0a0199ce2783dc0",
                "transactions" : [
                    {
                        "data" : "",
                        "gasLimit" : "0x02540be400",
                        "gasPrice" : "0x01",
                        "nonce" : "0x00",
                        "r" : "0x3874910128913e29e0a4feea2af012d8269da44cc1bfacad5d847a8707399aff",
                        "s" : "0x69ae4529ef229bdb5d99ec7af5293277639304e6eedd39bddbe0a0199ce2783d",
                        "to" : "0x095e7baea6a6c7c4c2dfeb977efac326af552d87",
                        "v" : "0x1b",
                        "value" : "0x0186a0"
                    }
                ],
                "uncleHeaders" : [
                ]
            }
        ],
        "genesisBlockHeader" : {
            "bloom" : "0x00000000000000000000000000000000000000000000000000000000000000000000000000000000000000000000000000000000000000000000000000000000000000000000000000000000000000000000000000000000000000000000000000000000000000000000000000000000000000000000000000000000000000000000000000000000000000000000000000000000000000000000000000000000000000000000000000000000000000000000000000000000000000000000000000000000000000000000000000000000000000000000000000000000000000000000000000000000000000000000000000000000000000000000000000000000",
            "coinbase" : "0x2adc25665018aa1fe0e6bc666dac8fc2697ff9ba",
            "difficulty" : "0x020000",
            "extraData" : "0x42",
            "gasLimit" : "0x02540be400",
            "gasUsed" : "0x00",
            "hash" : "0x00d7cc67385ce655a610656e93015d9c1860157c3598994a52a8eb723fcb716b",
            "mixHash" : "0x56e81f171bcc55a6ff8345e692c0f86e5b48e01b996cadc001622fb5e363b421",
            "nonce" : "0x0102030405060708",
            "number" : "0x00",
            "parentHash" : "0x0000000000000000000000000000000000000000000000000000000000000000",
            "receiptTrie" : "0x56e81f171bcc55a6ff8345e692c0f86e5b48e01b996cadc001622fb5e363b421",
            "stateRoot" : "0x733e37aef686586189ec4671da977adc2aa48bd1f82b794d9675c360d4432b8c",
            "timestamp" : "0x03b6",
            "transactionsTrie" : "0x56e81f171bcc55a6ff8345e692c0f86e5b48e01b996cadc001622fb5e363b421",
            "uncleHash" : "0x1dcc4de8dec75d7aab85b567b6ccd41ad312451b948a7413f0a142fd40d49347"
        },
        "genesisRLP" : "0xf901fcf901f7a00000000000000000000000000000000000000000000000000000000000000000a01dcc4de8dec75d7aab85b567b6ccd41ad312451b948a7413f0a142fd40d49347942adc25665018aa1fe0e6bc666dac8fc2697ff9baa0733e37aef686586189ec4671da977adc2aa48bd1f82b794d9675c360d4432b8ca056e81f171bcc55a6ff8345e692c0f86e5b48e01b996cadc001622fb5e363b421a056e81f171bcc55a6ff8345e692c0f86e5b48e01b996cadc001622fb5e363b421b901000000000000000000000000000000000000000000000000000000000000000000000000000000000000000000000000000000000000000000000000000000000000000000000000000000000000000000000000000000000000000000000000000000000000000000000000000000000000000000000000000000000000000000000000000000000000000000000000000000000000000000000000000000000000000000000000000000000000000000000000000000000000000000000000000000000000000000000000000000000000000000000000000000000000000000000000000000000000000000000000000000000000000000000000000000000083020000808502540be400808203b642a056e81f171bcc55a6ff8345e692c0f86e5b48e01b996cadc001622fb5e363b421880102030405060708c0c0",
        "lastblockhash" : "0xb7b1e590a3eda3bb3b350d358b0f7ac54809e1326a36d12ce1c153cbeba778b1",
        "network" : "Byzantium",
        "postState" : {
            "0x095e7baea6a6c7c4c2dfeb977efac326af552d87" : {
                "balance" : "0x0132b3a0",
                "code" : "0x600060006000600073945304eb96065b2a98b57a48a06ae28d285a71b5620186a05a03fa6000555a600155",
                "nonce" : "0x00",
                "storage" : {
                    "0x01" : "0x09501aaf"
                }
            },
            "0x2adc25665018aa1fe0e6bc666dac8fc2697ff9ba" : {
                "balance" : "0x29a2241d40e81774",
                "code" : "",
                "nonce" : "0x00",
                "storage" : {
                }
            },
            "0x945304eb96065b2a98b57a48a06ae28d285a71b5" : {
                "balance" : "0x0de0b6b3a7640000",
                "code" : "0x7fffffffffffffffffffffffffffffffffffffffffffffffffffffffffffffffff60005260206000a06000600060006000306161a85a03fa",
                "nonce" : "0x00",
                "storage" : {
                }
            },
            "0xa94f5374fce5edbc8e2a8697c15331677e6ebf0b" : {
                "balance" : "0x0de0b6b15ca661ec",
                "code" : "",
                "nonce" : "0x01",
                "storage" : {
                }
            }
        },
        "pre" : {
            "0x095e7baea6a6c7c4c2dfeb977efac326af552d87" : {
                "balance" : "0x01312d00",
                "code" : "0x600060006000600073945304eb96065b2a98b57a48a06ae28d285a71b5620186a05a03fa6000555a600155",
                "nonce" : "0x00",
                "storage" : {
                }
            },
            "0x945304eb96065b2a98b57a48a06ae28d285a71b5" : {
                "balance" : "0x0de0b6b3a7640000",
                "code" : "0x7fffffffffffffffffffffffffffffffffffffffffffffffffffffffffffffffff60005260206000a06000600060006000306161a85a03fa",
                "nonce" : "0x00",
                "storage" : {
                }
            },
            "0xa94f5374fce5edbc8e2a8697c15331677e6ebf0b" : {
                "balance" : "0x0de0b6b3a7640000",
                "code" : "",
                "nonce" : "0x00",
                "storage" : {
                }
            }
        }
    },
    "static_CallRecursiveBombLog_d0g0v0_EIP150" : {
        "_info" : {
            "comment" : "",
            "filledwith" : "cpp-1.3.0+commit.6e0ce939.Linux.g++",
            "lllcversion" : "Version: 0.4.18-develop.2017.9.25+commit.a72237f2.Linux.g++",
            "source" : "src/BlockchainTestsFiller/GeneralStateTests/stStaticCall/static_CallRecursiveBombLog_d0g0v0Filler.json",
            "sourceHash" : "0b3e6d9025a531445c64eaa16f5f6d039a93e8df820e18dc0f4d3bd7e48e369b"
        },
        "blocks" : [
            {
                "blockHeader" : {
                    "bloom" : "0x00000000000000000000000000000000000000000000000000000000000000000000000000000000000000000000000000000000000000000000000000000000000000000000000000000000000000000000000000000000000000000000000000000000000000000000000000000000000000000000000000000000000000000000000000000000000000000000000000000000000000000000000000000000000000000000000000000000000000000000000000000000000000000000000000000000000000000000000000000000000000000000000000000000000000000000000000000000000000000000000000000000000000000000000000000000",
                    "coinbase" : "0x2adc25665018aa1fe0e6bc666dac8fc2697ff9ba",
                    "difficulty" : "0x020000",
                    "extraData" : "",
                    "gasLimit" : "0x02540be400",
                    "gasUsed" : "0x02540be400",
                    "hash" : "0xdf56ed372e3aac82191d598bd7e2cf300d397783bff13b37079d252d6a6d5cc4",
                    "mixHash" : "0xe53b75cb2366f5b1dd71948916cfd11bbcaeedb95725b8d975c1759e1e60aca0",
                    "nonce" : "0x19c0667ca5c695d8",
                    "number" : "0x01",
                    "parentHash" : "0x00d7cc67385ce655a610656e93015d9c1860157c3598994a52a8eb723fcb716b",
                    "receiptTrie" : "0x10592e78cd3d3ca6703b2c7701a670901a7ca4bfcb9e21aa998956d39be76d40",
                    "stateRoot" : "0x93d14d7f305b098c079305f17d8aeafac815bc9c619d9778928e44d70c1bdb22",
                    "timestamp" : "0x03e8",
                    "transactionsTrie" : "0x0af7b181de6f4a1f154aa23eb601a797bb2289b039c5756fbe0cbf66a3132e9b",
                    "uncleHash" : "0x1dcc4de8dec75d7aab85b567b6ccd41ad312451b948a7413f0a142fd40d49347"
                },
                "rlp" : "0xf90269f901fca000d7cc67385ce655a610656e93015d9c1860157c3598994a52a8eb723fcb716ba01dcc4de8dec75d7aab85b567b6ccd41ad312451b948a7413f0a142fd40d49347942adc25665018aa1fe0e6bc666dac8fc2697ff9baa093d14d7f305b098c079305f17d8aeafac815bc9c619d9778928e44d70c1bdb22a00af7b181de6f4a1f154aa23eb601a797bb2289b039c5756fbe0cbf66a3132e9ba010592e78cd3d3ca6703b2c7701a670901a7ca4bfcb9e21aa998956d39be76d40b901000000000000000000000000000000000000000000000000000000000000000000000000000000000000000000000000000000000000000000000000000000000000000000000000000000000000000000000000000000000000000000000000000000000000000000000000000000000000000000000000000000000000000000000000000000000000000000000000000000000000000000000000000000000000000000000000000000000000000000000000000000000000000000000000000000000000000000000000000000000000000000000000000000000000000000000000000000000000000000000000000000000000000000000000000000000083020000018502540be4008502540be4008203e880a0e53b75cb2366f5b1dd71948916cfd11bbcaeedb95725b8d975c1759e1e60aca08819c0667ca5c695d8f867f86580018502540be40094095e7baea6a6c7c4c2dfeb977efac326af552d87830186a0801ba03874910128913e29e0a4feea2af012d8269da44cc1bfacad5d847a8707399affa069ae4529ef229bdb5d99ec7af5293277639304e6eedd39bddbe0a0199ce2783dc0",
                "transactions" : [
                    {
                        "data" : "",
                        "gasLimit" : "0x02540be400",
                        "gasPrice" : "0x01",
                        "nonce" : "0x00",
                        "r" : "0x3874910128913e29e0a4feea2af012d8269da44cc1bfacad5d847a8707399aff",
                        "s" : "0x69ae4529ef229bdb5d99ec7af5293277639304e6eedd39bddbe0a0199ce2783d",
                        "to" : "0x095e7baea6a6c7c4c2dfeb977efac326af552d87",
                        "v" : "0x1b",
                        "value" : "0x0186a0"
                    }
                ],
                "uncleHeaders" : [
                ]
            }
        ],
        "genesisBlockHeader" : {
            "bloom" : "0x00000000000000000000000000000000000000000000000000000000000000000000000000000000000000000000000000000000000000000000000000000000000000000000000000000000000000000000000000000000000000000000000000000000000000000000000000000000000000000000000000000000000000000000000000000000000000000000000000000000000000000000000000000000000000000000000000000000000000000000000000000000000000000000000000000000000000000000000000000000000000000000000000000000000000000000000000000000000000000000000000000000000000000000000000000000",
            "coinbase" : "0x2adc25665018aa1fe0e6bc666dac8fc2697ff9ba",
            "difficulty" : "0x020000",
            "extraData" : "0x42",
            "gasLimit" : "0x02540be400",
            "gasUsed" : "0x00",
            "hash" : "0x00d7cc67385ce655a610656e93015d9c1860157c3598994a52a8eb723fcb716b",
            "mixHash" : "0x56e81f171bcc55a6ff8345e692c0f86e5b48e01b996cadc001622fb5e363b421",
            "nonce" : "0x0102030405060708",
            "number" : "0x00",
            "parentHash" : "0x0000000000000000000000000000000000000000000000000000000000000000",
            "receiptTrie" : "0x56e81f171bcc55a6ff8345e692c0f86e5b48e01b996cadc001622fb5e363b421",
            "stateRoot" : "0x733e37aef686586189ec4671da977adc2aa48bd1f82b794d9675c360d4432b8c",
            "timestamp" : "0x03b6",
            "transactionsTrie" : "0x56e81f171bcc55a6ff8345e692c0f86e5b48e01b996cadc001622fb5e363b421",
            "uncleHash" : "0x1dcc4de8dec75d7aab85b567b6ccd41ad312451b948a7413f0a142fd40d49347"
        },
        "genesisRLP" : "0xf901fcf901f7a00000000000000000000000000000000000000000000000000000000000000000a01dcc4de8dec75d7aab85b567b6ccd41ad312451b948a7413f0a142fd40d49347942adc25665018aa1fe0e6bc666dac8fc2697ff9baa0733e37aef686586189ec4671da977adc2aa48bd1f82b794d9675c360d4432b8ca056e81f171bcc55a6ff8345e692c0f86e5b48e01b996cadc001622fb5e363b421a056e81f171bcc55a6ff8345e692c0f86e5b48e01b996cadc001622fb5e363b421b901000000000000000000000000000000000000000000000000000000000000000000000000000000000000000000000000000000000000000000000000000000000000000000000000000000000000000000000000000000000000000000000000000000000000000000000000000000000000000000000000000000000000000000000000000000000000000000000000000000000000000000000000000000000000000000000000000000000000000000000000000000000000000000000000000000000000000000000000000000000000000000000000000000000000000000000000000000000000000000000000000000000000000000000000000000000083020000808502540be400808203b642a056e81f171bcc55a6ff8345e692c0f86e5b48e01b996cadc001622fb5e363b421880102030405060708c0c0",
        "lastblockhash" : "0xdf56ed372e3aac82191d598bd7e2cf300d397783bff13b37079d252d6a6d5cc4",
        "network" : "EIP150",
        "postState" : {
            "0x095e7baea6a6c7c4c2dfeb977efac326af552d87" : {
                "balance" : "0x01312d00",
                "code" : "0x600060006000600073945304eb96065b2a98b57a48a06ae28d285a71b5620186a05a03fa6000555a600155",
                "nonce" : "0x00",
                "storage" : {
                }
            },
            "0x2adc25665018aa1fe0e6bc666dac8fc2697ff9ba" : {
                "balance" : "0x4563918498ffe400",
                "code" : "",
                "nonce" : "0x00",
                "storage" : {
                }
            },
            "0x945304eb96065b2a98b57a48a06ae28d285a71b5" : {
                "balance" : "0x0de0b6b3a7640000",
                "code" : "0x7fffffffffffffffffffffffffffffffffffffffffffffffffffffffffffffffff60005260206000a06000600060006000306161a85a03fa",
                "nonce" : "0x00",
                "storage" : {
                }
            },
            "0xa94f5374fce5edbc8e2a8697c15331677e6ebf0b" : {
                "balance" : "0x0de0b6b153581c00",
                "code" : "",
                "nonce" : "0x01",
                "storage" : {
                }
            }
        },
        "pre" : {
            "0x095e7baea6a6c7c4c2dfeb977efac326af552d87" : {
                "balance" : "0x01312d00",
                "code" : "0x600060006000600073945304eb96065b2a98b57a48a06ae28d285a71b5620186a05a03fa6000555a600155",
                "nonce" : "0x00",
                "storage" : {
                }
            },
            "0x945304eb96065b2a98b57a48a06ae28d285a71b5" : {
                "balance" : "0x0de0b6b3a7640000",
                "code" : "0x7fffffffffffffffffffffffffffffffffffffffffffffffffffffffffffffffff60005260206000a06000600060006000306161a85a03fa",
                "nonce" : "0x00",
                "storage" : {
                }
            },
            "0xa94f5374fce5edbc8e2a8697c15331677e6ebf0b" : {
                "balance" : "0x0de0b6b3a7640000",
                "code" : "",
                "nonce" : "0x00",
                "storage" : {
                }
            }
        }
    },
    "static_CallRecursiveBombLog_d0g0v0_EIP158" : {
        "_info" : {
            "comment" : "",
            "filledwith" : "cpp-1.3.0+commit.6e0ce939.Linux.g++",
            "lllcversion" : "Version: 0.4.18-develop.2017.9.25+commit.a72237f2.Linux.g++",
            "source" : "src/BlockchainTestsFiller/GeneralStateTests/stStaticCall/static_CallRecursiveBombLog_d0g0v0Filler.json",
            "sourceHash" : "0b3e6d9025a531445c64eaa16f5f6d039a93e8df820e18dc0f4d3bd7e48e369b"
        },
        "blocks" : [
            {
                "blockHeader" : {
                    "bloom" : "0x00000000000000000000000000000000000000000000000000000000000000000000000000000000000000000000000000000000000000000000000000000000000000000000000000000000000000000000000000000000000000000000000000000000000000000000000000000000000000000000000000000000000000000000000000000000000000000000000000000000000000000000000000000000000000000000000000000000000000000000000000000000000000000000000000000000000000000000000000000000000000000000000000000000000000000000000000000000000000000000000000000000000000000000000000000000",
                    "coinbase" : "0x2adc25665018aa1fe0e6bc666dac8fc2697ff9ba",
                    "difficulty" : "0x020000",
                    "extraData" : "",
                    "gasLimit" : "0x02540be400",
                    "gasUsed" : "0x02540be400",
                    "hash" : "0x8a7d25ccd164f051651f5eaf472ea3c1cd174da6acae82ea7c20da6b5f5e0a94",
                    "mixHash" : "0x8361e87f22ba685c8f2e72979641fdf5c8bdfdebeeba27cbff8c10eee3f2c029",
                    "nonce" : "0xc057326bf83b67a7",
                    "number" : "0x01",
                    "parentHash" : "0x00d7cc67385ce655a610656e93015d9c1860157c3598994a52a8eb723fcb716b",
                    "receiptTrie" : "0x10592e78cd3d3ca6703b2c7701a670901a7ca4bfcb9e21aa998956d39be76d40",
                    "stateRoot" : "0x93d14d7f305b098c079305f17d8aeafac815bc9c619d9778928e44d70c1bdb22",
                    "timestamp" : "0x03e8",
                    "transactionsTrie" : "0x0af7b181de6f4a1f154aa23eb601a797bb2289b039c5756fbe0cbf66a3132e9b",
                    "uncleHash" : "0x1dcc4de8dec75d7aab85b567b6ccd41ad312451b948a7413f0a142fd40d49347"
                },
                "rlp" : "0xf90269f901fca000d7cc67385ce655a610656e93015d9c1860157c3598994a52a8eb723fcb716ba01dcc4de8dec75d7aab85b567b6ccd41ad312451b948a7413f0a142fd40d49347942adc25665018aa1fe0e6bc666dac8fc2697ff9baa093d14d7f305b098c079305f17d8aeafac815bc9c619d9778928e44d70c1bdb22a00af7b181de6f4a1f154aa23eb601a797bb2289b039c5756fbe0cbf66a3132e9ba010592e78cd3d3ca6703b2c7701a670901a7ca4bfcb9e21aa998956d39be76d40b901000000000000000000000000000000000000000000000000000000000000000000000000000000000000000000000000000000000000000000000000000000000000000000000000000000000000000000000000000000000000000000000000000000000000000000000000000000000000000000000000000000000000000000000000000000000000000000000000000000000000000000000000000000000000000000000000000000000000000000000000000000000000000000000000000000000000000000000000000000000000000000000000000000000000000000000000000000000000000000000000000000000000000000000000000000000083020000018502540be4008502540be4008203e880a08361e87f22ba685c8f2e72979641fdf5c8bdfdebeeba27cbff8c10eee3f2c02988c057326bf83b67a7f867f86580018502540be40094095e7baea6a6c7c4c2dfeb977efac326af552d87830186a0801ba03874910128913e29e0a4feea2af012d8269da44cc1bfacad5d847a8707399affa069ae4529ef229bdb5d99ec7af5293277639304e6eedd39bddbe0a0199ce2783dc0",
                "transactions" : [
                    {
                        "data" : "",
                        "gasLimit" : "0x02540be400",
                        "gasPrice" : "0x01",
                        "nonce" : "0x00",
                        "r" : "0x3874910128913e29e0a4feea2af012d8269da44cc1bfacad5d847a8707399aff",
                        "s" : "0x69ae4529ef229bdb5d99ec7af5293277639304e6eedd39bddbe0a0199ce2783d",
                        "to" : "0x095e7baea6a6c7c4c2dfeb977efac326af552d87",
                        "v" : "0x1b",
                        "value" : "0x0186a0"
                    }
                ],
                "uncleHeaders" : [
                ]
            }
        ],
        "genesisBlockHeader" : {
            "bloom" : "0x00000000000000000000000000000000000000000000000000000000000000000000000000000000000000000000000000000000000000000000000000000000000000000000000000000000000000000000000000000000000000000000000000000000000000000000000000000000000000000000000000000000000000000000000000000000000000000000000000000000000000000000000000000000000000000000000000000000000000000000000000000000000000000000000000000000000000000000000000000000000000000000000000000000000000000000000000000000000000000000000000000000000000000000000000000000",
            "coinbase" : "0x2adc25665018aa1fe0e6bc666dac8fc2697ff9ba",
            "difficulty" : "0x020000",
            "extraData" : "0x42",
            "gasLimit" : "0x02540be400",
            "gasUsed" : "0x00",
            "hash" : "0x00d7cc67385ce655a610656e93015d9c1860157c3598994a52a8eb723fcb716b",
            "mixHash" : "0x56e81f171bcc55a6ff8345e692c0f86e5b48e01b996cadc001622fb5e363b421",
            "nonce" : "0x0102030405060708",
            "number" : "0x00",
            "parentHash" : "0x0000000000000000000000000000000000000000000000000000000000000000",
            "receiptTrie" : "0x56e81f171bcc55a6ff8345e692c0f86e5b48e01b996cadc001622fb5e363b421",
            "stateRoot" : "0x733e37aef686586189ec4671da977adc2aa48bd1f82b794d9675c360d4432b8c",
            "timestamp" : "0x03b6",
            "transactionsTrie" : "0x56e81f171bcc55a6ff8345e692c0f86e5b48e01b996cadc001622fb5e363b421",
            "uncleHash" : "0x1dcc4de8dec75d7aab85b567b6ccd41ad312451b948a7413f0a142fd40d49347"
        },
        "genesisRLP" : "0xf901fcf901f7a00000000000000000000000000000000000000000000000000000000000000000a01dcc4de8dec75d7aab85b567b6ccd41ad312451b948a7413f0a142fd40d49347942adc25665018aa1fe0e6bc666dac8fc2697ff9baa0733e37aef686586189ec4671da977adc2aa48bd1f82b794d9675c360d4432b8ca056e81f171bcc55a6ff8345e692c0f86e5b48e01b996cadc001622fb5e363b421a056e81f171bcc55a6ff8345e692c0f86e5b48e01b996cadc001622fb5e363b421b901000000000000000000000000000000000000000000000000000000000000000000000000000000000000000000000000000000000000000000000000000000000000000000000000000000000000000000000000000000000000000000000000000000000000000000000000000000000000000000000000000000000000000000000000000000000000000000000000000000000000000000000000000000000000000000000000000000000000000000000000000000000000000000000000000000000000000000000000000000000000000000000000000000000000000000000000000000000000000000000000000000000000000000000000000000000083020000808502540be400808203b642a056e81f171bcc55a6ff8345e692c0f86e5b48e01b996cadc001622fb5e363b421880102030405060708c0c0",
        "lastblockhash" : "0x8a7d25ccd164f051651f5eaf472ea3c1cd174da6acae82ea7c20da6b5f5e0a94",
        "network" : "EIP158",
        "postState" : {
            "0x095e7baea6a6c7c4c2dfeb977efac326af552d87" : {
                "balance" : "0x01312d00",
                "code" : "0x600060006000600073945304eb96065b2a98b57a48a06ae28d285a71b5620186a05a03fa6000555a600155",
                "nonce" : "0x00",
                "storage" : {
                }
            },
            "0x2adc25665018aa1fe0e6bc666dac8fc2697ff9ba" : {
                "balance" : "0x4563918498ffe400",
                "code" : "",
                "nonce" : "0x00",
                "storage" : {
                }
            },
            "0x945304eb96065b2a98b57a48a06ae28d285a71b5" : {
                "balance" : "0x0de0b6b3a7640000",
                "code" : "0x7fffffffffffffffffffffffffffffffffffffffffffffffffffffffffffffffff60005260206000a06000600060006000306161a85a03fa",
                "nonce" : "0x00",
                "storage" : {
                }
            },
            "0xa94f5374fce5edbc8e2a8697c15331677e6ebf0b" : {
                "balance" : "0x0de0b6b153581c00",
                "code" : "",
                "nonce" : "0x01",
                "storage" : {
                }
            }
        },
        "pre" : {
            "0x095e7baea6a6c7c4c2dfeb977efac326af552d87" : {
                "balance" : "0x01312d00",
                "code" : "0x600060006000600073945304eb96065b2a98b57a48a06ae28d285a71b5620186a05a03fa6000555a600155",
                "nonce" : "0x00",
                "storage" : {
                }
            },
            "0x945304eb96065b2a98b57a48a06ae28d285a71b5" : {
                "balance" : "0x0de0b6b3a7640000",
                "code" : "0x7fffffffffffffffffffffffffffffffffffffffffffffffffffffffffffffffff60005260206000a06000600060006000306161a85a03fa",
                "nonce" : "0x00",
                "storage" : {
                }
            },
            "0xa94f5374fce5edbc8e2a8697c15331677e6ebf0b" : {
                "balance" : "0x0de0b6b3a7640000",
                "code" : "",
                "nonce" : "0x00",
                "storage" : {
                }
            }
        }
    },
    "static_CallRecursiveBombLog_d0g0v0_Frontier" : {
        "_info" : {
            "comment" : "",
            "filledwith" : "cpp-1.3.0+commit.6e0ce939.Linux.g++",
            "lllcversion" : "Version: 0.4.18-develop.2017.9.25+commit.a72237f2.Linux.g++",
            "source" : "src/BlockchainTestsFiller/GeneralStateTests/stStaticCall/static_CallRecursiveBombLog_d0g0v0Filler.json",
            "sourceHash" : "0b3e6d9025a531445c64eaa16f5f6d039a93e8df820e18dc0f4d3bd7e48e369b"
        },
        "blocks" : [
            {
                "blockHeader" : {
                    "bloom" : "0x00000000000000000000000000000000000000000000000000000000000000000000000000000000000000000000000000000000000000000000000000000000000000000000000000000000000000000000000000000000000000000000000000000000000000000000000000000000000000000000000000000000000000000000000000000000000000000000000000000000000000000000000000000000000000000000000000000000000000000000000000000000000000000000000000000000000000000000000000000000000000000000000000000000000000000000000000000000000000000000000000000000000000000000000000000000",
                    "coinbase" : "0x2adc25665018aa1fe0e6bc666dac8fc2697ff9ba",
                    "difficulty" : "0x020000",
                    "extraData" : "",
                    "gasLimit" : "0x02540be400",
                    "gasUsed" : "0x02540be400",
                    "hash" : "0x4c5047410c2ed384a879343db260f19b8e727a3970c5f1d7e9e7517fae228ea0",
                    "mixHash" : "0x83e62e5960f95cf0fd15872a2b9531113c13a9fe43ae56942ed6dc047100310f",
                    "nonce" : "0x087a00a87a360938",
                    "number" : "0x01",
                    "parentHash" : "0x00d7cc67385ce655a610656e93015d9c1860157c3598994a52a8eb723fcb716b",
                    "receiptTrie" : "0x10592e78cd3d3ca6703b2c7701a670901a7ca4bfcb9e21aa998956d39be76d40",
                    "stateRoot" : "0x93d14d7f305b098c079305f17d8aeafac815bc9c619d9778928e44d70c1bdb22",
                    "timestamp" : "0x03e8",
                    "transactionsTrie" : "0x0af7b181de6f4a1f154aa23eb601a797bb2289b039c5756fbe0cbf66a3132e9b",
                    "uncleHash" : "0x1dcc4de8dec75d7aab85b567b6ccd41ad312451b948a7413f0a142fd40d49347"
                },
                "rlp" : "0xf90269f901fca000d7cc67385ce655a610656e93015d9c1860157c3598994a52a8eb723fcb716ba01dcc4de8dec75d7aab85b567b6ccd41ad312451b948a7413f0a142fd40d49347942adc25665018aa1fe0e6bc666dac8fc2697ff9baa093d14d7f305b098c079305f17d8aeafac815bc9c619d9778928e44d70c1bdb22a00af7b181de6f4a1f154aa23eb601a797bb2289b039c5756fbe0cbf66a3132e9ba010592e78cd3d3ca6703b2c7701a670901a7ca4bfcb9e21aa998956d39be76d40b901000000000000000000000000000000000000000000000000000000000000000000000000000000000000000000000000000000000000000000000000000000000000000000000000000000000000000000000000000000000000000000000000000000000000000000000000000000000000000000000000000000000000000000000000000000000000000000000000000000000000000000000000000000000000000000000000000000000000000000000000000000000000000000000000000000000000000000000000000000000000000000000000000000000000000000000000000000000000000000000000000000000000000000000000000000000083020000018502540be4008502540be4008203e880a083e62e5960f95cf0fd15872a2b9531113c13a9fe43ae56942ed6dc047100310f88087a00a87a360938f867f86580018502540be40094095e7baea6a6c7c4c2dfeb977efac326af552d87830186a0801ba03874910128913e29e0a4feea2af012d8269da44cc1bfacad5d847a8707399affa069ae4529ef229bdb5d99ec7af5293277639304e6eedd39bddbe0a0199ce2783dc0",
                "transactions" : [
                    {
                        "data" : "",
                        "gasLimit" : "0x02540be400",
                        "gasPrice" : "0x01",
                        "nonce" : "0x00",
                        "r" : "0x3874910128913e29e0a4feea2af012d8269da44cc1bfacad5d847a8707399aff",
                        "s" : "0x69ae4529ef229bdb5d99ec7af5293277639304e6eedd39bddbe0a0199ce2783d",
                        "to" : "0x095e7baea6a6c7c4c2dfeb977efac326af552d87",
                        "v" : "0x1b",
                        "value" : "0x0186a0"
                    }
                ],
                "uncleHeaders" : [
                ]
            }
        ],
        "genesisBlockHeader" : {
            "bloom" : "0x00000000000000000000000000000000000000000000000000000000000000000000000000000000000000000000000000000000000000000000000000000000000000000000000000000000000000000000000000000000000000000000000000000000000000000000000000000000000000000000000000000000000000000000000000000000000000000000000000000000000000000000000000000000000000000000000000000000000000000000000000000000000000000000000000000000000000000000000000000000000000000000000000000000000000000000000000000000000000000000000000000000000000000000000000000000",
            "coinbase" : "0x2adc25665018aa1fe0e6bc666dac8fc2697ff9ba",
            "difficulty" : "0x020000",
            "extraData" : "0x42",
            "gasLimit" : "0x02540be400",
            "gasUsed" : "0x00",
            "hash" : "0x00d7cc67385ce655a610656e93015d9c1860157c3598994a52a8eb723fcb716b",
            "mixHash" : "0x56e81f171bcc55a6ff8345e692c0f86e5b48e01b996cadc001622fb5e363b421",
            "nonce" : "0x0102030405060708",
            "number" : "0x00",
            "parentHash" : "0x0000000000000000000000000000000000000000000000000000000000000000",
            "receiptTrie" : "0x56e81f171bcc55a6ff8345e692c0f86e5b48e01b996cadc001622fb5e363b421",
            "stateRoot" : "0x733e37aef686586189ec4671da977adc2aa48bd1f82b794d9675c360d4432b8c",
            "timestamp" : "0x03b6",
            "transactionsTrie" : "0x56e81f171bcc55a6ff8345e692c0f86e5b48e01b996cadc001622fb5e363b421",
            "uncleHash" : "0x1dcc4de8dec75d7aab85b567b6ccd41ad312451b948a7413f0a142fd40d49347"
        },
        "genesisRLP" : "0xf901fcf901f7a00000000000000000000000000000000000000000000000000000000000000000a01dcc4de8dec75d7aab85b567b6ccd41ad312451b948a7413f0a142fd40d49347942adc25665018aa1fe0e6bc666dac8fc2697ff9baa0733e37aef686586189ec4671da977adc2aa48bd1f82b794d9675c360d4432b8ca056e81f171bcc55a6ff8345e692c0f86e5b48e01b996cadc001622fb5e363b421a056e81f171bcc55a6ff8345e692c0f86e5b48e01b996cadc001622fb5e363b421b901000000000000000000000000000000000000000000000000000000000000000000000000000000000000000000000000000000000000000000000000000000000000000000000000000000000000000000000000000000000000000000000000000000000000000000000000000000000000000000000000000000000000000000000000000000000000000000000000000000000000000000000000000000000000000000000000000000000000000000000000000000000000000000000000000000000000000000000000000000000000000000000000000000000000000000000000000000000000000000000000000000000000000000000000000000000083020000808502540be400808203b642a056e81f171bcc55a6ff8345e692c0f86e5b48e01b996cadc001622fb5e363b421880102030405060708c0c0",
        "lastblockhash" : "0x4c5047410c2ed384a879343db260f19b8e727a3970c5f1d7e9e7517fae228ea0",
        "network" : "Frontier",
        "postState" : {
            "0x095e7baea6a6c7c4c2dfeb977efac326af552d87" : {
                "balance" : "0x01312d00",
                "code" : "0x600060006000600073945304eb96065b2a98b57a48a06ae28d285a71b5620186a05a03fa6000555a600155",
                "nonce" : "0x00",
                "storage" : {
                }
            },
            "0x2adc25665018aa1fe0e6bc666dac8fc2697ff9ba" : {
                "balance" : "0x4563918498ffe400",
                "code" : "",
                "nonce" : "0x00",
                "storage" : {
                }
            },
            "0x945304eb96065b2a98b57a48a06ae28d285a71b5" : {
                "balance" : "0x0de0b6b3a7640000",
                "code" : "0x7fffffffffffffffffffffffffffffffffffffffffffffffffffffffffffffffff60005260206000a06000600060006000306161a85a03fa",
                "nonce" : "0x00",
                "storage" : {
                }
            },
            "0xa94f5374fce5edbc8e2a8697c15331677e6ebf0b" : {
                "balance" : "0x0de0b6b153581c00",
                "code" : "",
                "nonce" : "0x01",
                "storage" : {
                }
            }
        },
        "pre" : {
            "0x095e7baea6a6c7c4c2dfeb977efac326af552d87" : {
                "balance" : "0x01312d00",
                "code" : "0x600060006000600073945304eb96065b2a98b57a48a06ae28d285a71b5620186a05a03fa6000555a600155",
                "nonce" : "0x00",
                "storage" : {
                }
            },
            "0x945304eb96065b2a98b57a48a06ae28d285a71b5" : {
                "balance" : "0x0de0b6b3a7640000",
                "code" : "0x7fffffffffffffffffffffffffffffffffffffffffffffffffffffffffffffffff60005260206000a06000600060006000306161a85a03fa",
                "nonce" : "0x00",
                "storage" : {
                }
            },
            "0xa94f5374fce5edbc8e2a8697c15331677e6ebf0b" : {
                "balance" : "0x0de0b6b3a7640000",
                "code" : "",
                "nonce" : "0x00",
                "storage" : {
                }
            }
        }
    },
    "static_CallRecursiveBombLog_d0g0v0_Homestead" : {
        "_info" : {
            "comment" : "",
            "filledwith" : "cpp-1.3.0+commit.6e0ce939.Linux.g++",
            "lllcversion" : "Version: 0.4.18-develop.2017.9.25+commit.a72237f2.Linux.g++",
            "source" : "src/BlockchainTestsFiller/GeneralStateTests/stStaticCall/static_CallRecursiveBombLog_d0g0v0Filler.json",
            "sourceHash" : "0b3e6d9025a531445c64eaa16f5f6d039a93e8df820e18dc0f4d3bd7e48e369b"
        },
        "blocks" : [
            {
                "blockHeader" : {
                    "bloom" : "0x00000000000000000000000000000000000000000000000000000000000000000000000000000000000000000000000000000000000000000000000000000000000000000000000000000000000000000000000000000000000000000000000000000000000000000000000000000000000000000000000000000000000000000000000000000000000000000000000000000000000000000000000000000000000000000000000000000000000000000000000000000000000000000000000000000000000000000000000000000000000000000000000000000000000000000000000000000000000000000000000000000000000000000000000000000000",
                    "coinbase" : "0x2adc25665018aa1fe0e6bc666dac8fc2697ff9ba",
                    "difficulty" : "0x020000",
                    "extraData" : "",
                    "gasLimit" : "0x02540be400",
                    "gasUsed" : "0x02540be400",
                    "hash" : "0x3477fc72101d9ee04cc033d3440b032b9db596e5df8c77923a8de8634977fa5b",
                    "mixHash" : "0xd240065d9e6f5e7bfb490d62ca3887304977a2f25c7d809aa066d8a4deb6103b",
                    "nonce" : "0x5bcd960b0b086ea0",
                    "number" : "0x01",
                    "parentHash" : "0x00d7cc67385ce655a610656e93015d9c1860157c3598994a52a8eb723fcb716b",
                    "receiptTrie" : "0x10592e78cd3d3ca6703b2c7701a670901a7ca4bfcb9e21aa998956d39be76d40",
                    "stateRoot" : "0x93d14d7f305b098c079305f17d8aeafac815bc9c619d9778928e44d70c1bdb22",
                    "timestamp" : "0x03e8",
                    "transactionsTrie" : "0x0af7b181de6f4a1f154aa23eb601a797bb2289b039c5756fbe0cbf66a3132e9b",
                    "uncleHash" : "0x1dcc4de8dec75d7aab85b567b6ccd41ad312451b948a7413f0a142fd40d49347"
                },
                "rlp" : "0xf90269f901fca000d7cc67385ce655a610656e93015d9c1860157c3598994a52a8eb723fcb716ba01dcc4de8dec75d7aab85b567b6ccd41ad312451b948a7413f0a142fd40d49347942adc25665018aa1fe0e6bc666dac8fc2697ff9baa093d14d7f305b098c079305f17d8aeafac815bc9c619d9778928e44d70c1bdb22a00af7b181de6f4a1f154aa23eb601a797bb2289b039c5756fbe0cbf66a3132e9ba010592e78cd3d3ca6703b2c7701a670901a7ca4bfcb9e21aa998956d39be76d40b901000000000000000000000000000000000000000000000000000000000000000000000000000000000000000000000000000000000000000000000000000000000000000000000000000000000000000000000000000000000000000000000000000000000000000000000000000000000000000000000000000000000000000000000000000000000000000000000000000000000000000000000000000000000000000000000000000000000000000000000000000000000000000000000000000000000000000000000000000000000000000000000000000000000000000000000000000000000000000000000000000000000000000000000000000000000083020000018502540be4008502540be4008203e880a0d240065d9e6f5e7bfb490d62ca3887304977a2f25c7d809aa066d8a4deb6103b885bcd960b0b086ea0f867f86580018502540be40094095e7baea6a6c7c4c2dfeb977efac326af552d87830186a0801ba03874910128913e29e0a4feea2af012d8269da44cc1bfacad5d847a8707399affa069ae4529ef229bdb5d99ec7af5293277639304e6eedd39bddbe0a0199ce2783dc0",
                "transactions" : [
                    {
                        "data" : "",
                        "gasLimit" : "0x02540be400",
                        "gasPrice" : "0x01",
                        "nonce" : "0x00",
                        "r" : "0x3874910128913e29e0a4feea2af012d8269da44cc1bfacad5d847a8707399aff",
                        "s" : "0x69ae4529ef229bdb5d99ec7af5293277639304e6eedd39bddbe0a0199ce2783d",
                        "to" : "0x095e7baea6a6c7c4c2dfeb977efac326af552d87",
                        "v" : "0x1b",
                        "value" : "0x0186a0"
                    }
                ],
                "uncleHeaders" : [
                ]
            }
        ],
        "genesisBlockHeader" : {
            "bloom" : "0x00000000000000000000000000000000000000000000000000000000000000000000000000000000000000000000000000000000000000000000000000000000000000000000000000000000000000000000000000000000000000000000000000000000000000000000000000000000000000000000000000000000000000000000000000000000000000000000000000000000000000000000000000000000000000000000000000000000000000000000000000000000000000000000000000000000000000000000000000000000000000000000000000000000000000000000000000000000000000000000000000000000000000000000000000000000",
            "coinbase" : "0x2adc25665018aa1fe0e6bc666dac8fc2697ff9ba",
            "difficulty" : "0x020000",
            "extraData" : "0x42",
            "gasLimit" : "0x02540be400",
            "gasUsed" : "0x00",
            "hash" : "0x00d7cc67385ce655a610656e93015d9c1860157c3598994a52a8eb723fcb716b",
            "mixHash" : "0x56e81f171bcc55a6ff8345e692c0f86e5b48e01b996cadc001622fb5e363b421",
            "nonce" : "0x0102030405060708",
            "number" : "0x00",
            "parentHash" : "0x0000000000000000000000000000000000000000000000000000000000000000",
            "receiptTrie" : "0x56e81f171bcc55a6ff8345e692c0f86e5b48e01b996cadc001622fb5e363b421",
            "stateRoot" : "0x733e37aef686586189ec4671da977adc2aa48bd1f82b794d9675c360d4432b8c",
            "timestamp" : "0x03b6",
            "transactionsTrie" : "0x56e81f171bcc55a6ff8345e692c0f86e5b48e01b996cadc001622fb5e363b421",
            "uncleHash" : "0x1dcc4de8dec75d7aab85b567b6ccd41ad312451b948a7413f0a142fd40d49347"
        },
        "genesisRLP" : "0xf901fcf901f7a00000000000000000000000000000000000000000000000000000000000000000a01dcc4de8dec75d7aab85b567b6ccd41ad312451b948a7413f0a142fd40d49347942adc25665018aa1fe0e6bc666dac8fc2697ff9baa0733e37aef686586189ec4671da977adc2aa48bd1f82b794d9675c360d4432b8ca056e81f171bcc55a6ff8345e692c0f86e5b48e01b996cadc001622fb5e363b421a056e81f171bcc55a6ff8345e692c0f86e5b48e01b996cadc001622fb5e363b421b901000000000000000000000000000000000000000000000000000000000000000000000000000000000000000000000000000000000000000000000000000000000000000000000000000000000000000000000000000000000000000000000000000000000000000000000000000000000000000000000000000000000000000000000000000000000000000000000000000000000000000000000000000000000000000000000000000000000000000000000000000000000000000000000000000000000000000000000000000000000000000000000000000000000000000000000000000000000000000000000000000000000000000000000000000000000083020000808502540be400808203b642a056e81f171bcc55a6ff8345e692c0f86e5b48e01b996cadc001622fb5e363b421880102030405060708c0c0",
        "lastblockhash" : "0x3477fc72101d9ee04cc033d3440b032b9db596e5df8c77923a8de8634977fa5b",
        "network" : "Homestead",
        "postState" : {
            "0x095e7baea6a6c7c4c2dfeb977efac326af552d87" : {
                "balance" : "0x01312d00",
                "code" : "0x600060006000600073945304eb96065b2a98b57a48a06ae28d285a71b5620186a05a03fa6000555a600155",
                "nonce" : "0x00",
                "storage" : {
                }
            },
            "0x2adc25665018aa1fe0e6bc666dac8fc2697ff9ba" : {
                "balance" : "0x4563918498ffe400",
                "code" : "",
                "nonce" : "0x00",
                "storage" : {
                }
            },
            "0x945304eb96065b2a98b57a48a06ae28d285a71b5" : {
                "balance" : "0x0de0b6b3a7640000",
                "code" : "0x7fffffffffffffffffffffffffffffffffffffffffffffffffffffffffffffffff60005260206000a06000600060006000306161a85a03fa",
                "nonce" : "0x00",
                "storage" : {
                }
            },
            "0xa94f5374fce5edbc8e2a8697c15331677e6ebf0b" : {
                "balance" : "0x0de0b6b153581c00",
                "code" : "",
                "nonce" : "0x01",
                "storage" : {
                }
            }
        },
        "pre" : {
            "0x095e7baea6a6c7c4c2dfeb977efac326af552d87" : {
                "balance" : "0x01312d00",
                "code" : "0x600060006000600073945304eb96065b2a98b57a48a06ae28d285a71b5620186a05a03fa6000555a600155",
                "nonce" : "0x00",
                "storage" : {
                }
            },
            "0x945304eb96065b2a98b57a48a06ae28d285a71b5" : {
                "balance" : "0x0de0b6b3a7640000",
                "code" : "0x7fffffffffffffffffffffffffffffffffffffffffffffffffffffffffffffffff60005260206000a06000600060006000306161a85a03fa",
                "nonce" : "0x00",
                "storage" : {
                }
            },
            "0xa94f5374fce5edbc8e2a8697c15331677e6ebf0b" : {
                "balance" : "0x0de0b6b3a7640000",
                "code" : "",
                "nonce" : "0x00",
                "storage" : {
                }
            }
        }
    }
}