{
    "static_LoopCallsDepthThenRevert_d0g0v0_Byzantium" : {
        "_info" : {
            "comment" : "",
            "filledwith" : "cpp-1.3.0+commit.6e0ce939.Linux.g++",
            "lllcversion" : "Version: 0.4.18-develop.2017.9.25+commit.a72237f2.Linux.g++",
            "source" : "src/BlockchainTestsFiller/GeneralStateTests/stStaticCall/static_LoopCallsDepthThenRevert_d0g0v0Filler.json",
            "sourceHash" : "0635ea8da14993e4c0b422a29d2eb791b49795610c87d80c26a3ed04edd74c15"
        },
        "blocks" : [
            {
                "blockHeader" : {
                    "bloom" : "0x00000000000000000000000000000000000000000000000000000000000000000000000000000000000000000000000000000000000000000000000000000000000000000000000000000000000000000000000000000000000000000000000000000000000000000000000000000000000000000000000000000000000000000000000000000000000000000000000000000000000000000000000000000000000000000000000000000000000000000000000000000000000000000000000000000000000000000000000000000000000000000000000000000000000000000000000000000000000000000000000000000000000000000000000000000000",
                    "coinbase" : "0x2adc25665018aa1fe0e6bc666dac8fc2697ff9ba",
                    "difficulty" : "0x020000",
                    "extraData" : "",
                    "gasLimit" : "0x989680",
                    "gasUsed" : "0x0fe145",
                    "hash" : "0x7bfdb101871bf91000e2890fa020140350449080f4524279b53e218845f05c32",
                    "mixHash" : "0x1c89093ad37f9f3ae9652955bd47c1a46916360b7f22e35b84202b30c265b011",
                    "nonce" : "0x48b0024129af9270",
                    "number" : "0x01",
                    "parentHash" : "0xd9df0ba663510d71e7c09537ff694cf3cf4536593bf180d2f20c1cfecb99e244",
                    "receiptTrie" : "0x7c899e567348da299f0bda4690f2bed22115212435f87da2a177fdf2be965672",
                    "stateRoot" : "0x24f2cc1e1c9de5f9336701a25bf7db816e4724e03c2d9c63662d21f114654a80",
                    "timestamp" : "0x03e8",
                    "transactionsTrie" : "0xd5b0ba9bc3b539c234278d761d356fdf93a264cc3c8ba38e570b7ecc2c3d124b",
                    "uncleHash" : "0x1dcc4de8dec75d7aab85b567b6ccd41ad312451b948a7413f0a142fd40d49347"
                },
                "rlp" : "0xf90260f901f8a0d9df0ba663510d71e7c09537ff694cf3cf4536593bf180d2f20c1cfecb99e244a01dcc4de8dec75d7aab85b567b6ccd41ad312451b948a7413f0a142fd40d49347942adc25665018aa1fe0e6bc666dac8fc2697ff9baa024f2cc1e1c9de5f9336701a25bf7db816e4724e03c2d9c63662d21f114654a80a0d5b0ba9bc3b539c234278d761d356fdf93a264cc3c8ba38e570b7ecc2c3d124ba07c899e567348da299f0bda4690f2bed22115212435f87da2a177fdf2be965672b9010000000000000000000000000000000000000000000000000000000000000000000000000000000000000000000000000000000000000000000000000000000000000000000000000000000000000000000000000000000000000000000000000000000000000000000000000000000000000000000000000000000000000000000000000000000000000000000000000000000000000000000000000000000000000000000000000000000000000000000000000000000000000000000000000000000000000000000000000000000000000000000000000000000000000000000000000000000000000000000000000000000000000000000000000000000000830200000183989680830fe1458203e880a01c89093ad37f9f3ae9652955bd47c1a46916360b7f22e35b84202b30c265b0118848b0024129af9270f862f86080018398968094100000000000000000000000000000000000000080801ca075de0c8388f398cb3a1cf4734a8665b413a85cc79d32c55a43fa4fc6ea483242a03b6d584d591d4f4fd1f6ade0bfdee9cc58ac704940ff1654e10f7e495c90f358c0",
                "transactions" : [
                    {
                        "data" : "",
                        "gasLimit" : "0x989680",
                        "gasPrice" : "0x01",
                        "nonce" : "0x00",
                        "r" : "0x75de0c8388f398cb3a1cf4734a8665b413a85cc79d32c55a43fa4fc6ea483242",
                        "s" : "0x3b6d584d591d4f4fd1f6ade0bfdee9cc58ac704940ff1654e10f7e495c90f358",
                        "to" : "0x1000000000000000000000000000000000000000",
                        "v" : "0x1c",
                        "value" : "0x00"
                    }
                ],
                "uncleHeaders" : [
                ]
            }
        ],
        "genesisBlockHeader" : {
            "bloom" : "0x00000000000000000000000000000000000000000000000000000000000000000000000000000000000000000000000000000000000000000000000000000000000000000000000000000000000000000000000000000000000000000000000000000000000000000000000000000000000000000000000000000000000000000000000000000000000000000000000000000000000000000000000000000000000000000000000000000000000000000000000000000000000000000000000000000000000000000000000000000000000000000000000000000000000000000000000000000000000000000000000000000000000000000000000000000000",
            "coinbase" : "0x2adc25665018aa1fe0e6bc666dac8fc2697ff9ba",
            "difficulty" : "0x020000",
            "extraData" : "0x42",
            "gasLimit" : "0x989680",
            "gasUsed" : "0x00",
            "hash" : "0xd9df0ba663510d71e7c09537ff694cf3cf4536593bf180d2f20c1cfecb99e244",
            "mixHash" : "0x56e81f171bcc55a6ff8345e692c0f86e5b48e01b996cadc001622fb5e363b421",
            "nonce" : "0x0102030405060708",
            "number" : "0x00",
            "parentHash" : "0x0000000000000000000000000000000000000000000000000000000000000000",
            "receiptTrie" : "0x56e81f171bcc55a6ff8345e692c0f86e5b48e01b996cadc001622fb5e363b421",
            "stateRoot" : "0xbe14251d411a9ca54b403bac88b7f57fa0ed4aa5db3c0b6f86290c915c692939",
            "timestamp" : "0x03b6",
            "transactionsTrie" : "0x56e81f171bcc55a6ff8345e692c0f86e5b48e01b996cadc001622fb5e363b421",
            "uncleHash" : "0x1dcc4de8dec75d7aab85b567b6ccd41ad312451b948a7413f0a142fd40d49347"
        },
        "genesisRLP" : "0xf901faf901f5a00000000000000000000000000000000000000000000000000000000000000000a01dcc4de8dec75d7aab85b567b6ccd41ad312451b948a7413f0a142fd40d49347942adc25665018aa1fe0e6bc666dac8fc2697ff9baa0be14251d411a9ca54b403bac88b7f57fa0ed4aa5db3c0b6f86290c915c692939a056e81f171bcc55a6ff8345e692c0f86e5b48e01b996cadc001622fb5e363b421a056e81f171bcc55a6ff8345e692c0f86e5b48e01b996cadc001622fb5e363b421b9010000000000000000000000000000000000000000000000000000000000000000000000000000000000000000000000000000000000000000000000000000000000000000000000000000000000000000000000000000000000000000000000000000000000000000000000000000000000000000000000000000000000000000000000000000000000000000000000000000000000000000000000000000000000000000000000000000000000000000000000000000000000000000000000000000000000000000000000000000000000000000000000000000000000000000000000000000000000000000000000000000000000000000000000000000000000830200008083989680808203b642a056e81f171bcc55a6ff8345e692c0f86e5b48e01b996cadc001622fb5e363b421880102030405060708c0c0",
        "lastblockhash" : "0x7bfdb101871bf91000e2890fa020140350449080f4524279b53e218845f05c32",
        "network" : "Byzantium",
        "postState" : {
            "0x1000000000000000000000000000000000000000" : {
                "balance" : "0x00",
                "code" : "0x60006000600060006000731000000000000000000000000000000000000000620186a05a03f16000555a600155",
                "nonce" : "0x00",
                "storage" : {
                    "0x00" : "0x01",
                    "0x01" : "0x88c8c6"
                }
            },
            "0x2adc25665018aa1fe0e6bc666dac8fc2697ff9ba" : {
                "balance" : "0x29a2241af63be145",
                "code" : "",
                "nonce" : "0x00",
                "storage" : {
                }
            },
            "0xa000000000000000000000000000000000000000" : {
                "balance" : "0x00",
                "code" : "0x600060006000600073b0000000000000000000000000000000000000005afa",
                "nonce" : "0x00",
                "storage" : {
                }
            },
            "0xa94f5374fce5edbc8e2a8697c15331677e6ebf0b" : {
                "balance" : "0xe8d4952ebb",
                "code" : "",
                "nonce" : "0x01",
                "storage" : {
                }
            },
            "0xb000000000000000000000000000000000000000" : {
                "balance" : "0x00",
                "code" : "0x600060006000600073a0000000000000000000000000000000000000005afa",
                "nonce" : "0x00",
                "storage" : {
                }
            }
        },
        "pre" : {
            "0x1000000000000000000000000000000000000000" : {
                "balance" : "0x00",
                "code" : "0x60006000600060006000731000000000000000000000000000000000000000620186a05a03f16000555a600155",
                "nonce" : "0x00",
                "storage" : {
                }
            },
            "0xa000000000000000000000000000000000000000" : {
                "balance" : "0x00",
                "code" : "0x600060006000600073b0000000000000000000000000000000000000005afa",
                "nonce" : "0x00",
                "storage" : {
                }
            },
            "0xa94f5374fce5edbc8e2a8697c15331677e6ebf0b" : {
                "balance" : "0xe8d4a51000",
                "code" : "",
                "nonce" : "0x00",
                "storage" : {
                }
            },
            "0xb000000000000000000000000000000000000000" : {
                "balance" : "0x00",
                "code" : "0x600060006000600073a0000000000000000000000000000000000000005afa",
                "nonce" : "0x00",
                "storage" : {
                }
            }
        }
    },
    "static_LoopCallsDepthThenRevert_d0g0v0_EIP150" : {
        "_info" : {
            "comment" : "",
            "filledwith" : "cpp-1.3.0+commit.6e0ce939.Linux.g++",
            "lllcversion" : "Version: 0.4.18-develop.2017.9.25+commit.a72237f2.Linux.g++",
            "source" : "src/BlockchainTestsFiller/GeneralStateTests/stStaticCall/static_LoopCallsDepthThenRevert_d0g0v0Filler.json",
            "sourceHash" : "0635ea8da14993e4c0b422a29d2eb791b49795610c87d80c26a3ed04edd74c15"
        },
        "blocks" : [
            {
                "blockHeader" : {
                    "bloom" : "0x00000000000000000000000000000000000000000000000000000000000000000000000000000000000000000000000000000000000000000000000000000000000000000000000000000000000000000000000000000000000000000000000000000000000000000000000000000000000000000000000000000000000000000000000000000000000000000000000000000000000000000000000000000000000000000000000000000000000000000000000000000000000000000000000000000000000000000000000000000000000000000000000000000000000000000000000000000000000000000000000000000000000000000000000000000000",
                    "coinbase" : "0x2adc25665018aa1fe0e6bc666dac8fc2697ff9ba",
                    "difficulty" : "0x020000",
                    "extraData" : "",
                    "gasLimit" : "0x989680",
                    "gasUsed" : "0x0fe145",
                    "hash" : "0xa09a054f6300922f92d21f5b69db13eb09b898f05b0697f0ef8d874beebc1601",
                    "mixHash" : "0x0c8db9d4008cdfa90ec823ec3ceaee81074388eabd7431cf40211de775d57c7a",
                    "nonce" : "0x92c1e72e68ca1093",
                    "number" : "0x01",
                    "parentHash" : "0xd9df0ba663510d71e7c09537ff694cf3cf4536593bf180d2f20c1cfecb99e244",
                    "receiptTrie" : "0xfb9a685d012df616bfa3d5296857c13af5b13dd3cba9677f710ac7748a1b87b4",
                    "stateRoot" : "0x5b515a605249d6ed81f6472222f41936aaf048429aef7e80131b3e79224cff8d",
                    "timestamp" : "0x03e8",
                    "transactionsTrie" : "0xd5b0ba9bc3b539c234278d761d356fdf93a264cc3c8ba38e570b7ecc2c3d124b",
                    "uncleHash" : "0x1dcc4de8dec75d7aab85b567b6ccd41ad312451b948a7413f0a142fd40d49347"
                },
                "rlp" : "0xf90260f901f8a0d9df0ba663510d71e7c09537ff694cf3cf4536593bf180d2f20c1cfecb99e244a01dcc4de8dec75d7aab85b567b6ccd41ad312451b948a7413f0a142fd40d49347942adc25665018aa1fe0e6bc666dac8fc2697ff9baa05b515a605249d6ed81f6472222f41936aaf048429aef7e80131b3e79224cff8da0d5b0ba9bc3b539c234278d761d356fdf93a264cc3c8ba38e570b7ecc2c3d124ba0fb9a685d012df616bfa3d5296857c13af5b13dd3cba9677f710ac7748a1b87b4b9010000000000000000000000000000000000000000000000000000000000000000000000000000000000000000000000000000000000000000000000000000000000000000000000000000000000000000000000000000000000000000000000000000000000000000000000000000000000000000000000000000000000000000000000000000000000000000000000000000000000000000000000000000000000000000000000000000000000000000000000000000000000000000000000000000000000000000000000000000000000000000000000000000000000000000000000000000000000000000000000000000000000000000000000000000000000830200000183989680830fe1458203e880a00c8db9d4008cdfa90ec823ec3ceaee81074388eabd7431cf40211de775d57c7a8892c1e72e68ca1093f862f86080018398968094100000000000000000000000000000000000000080801ca075de0c8388f398cb3a1cf4734a8665b413a85cc79d32c55a43fa4fc6ea483242a03b6d584d591d4f4fd1f6ade0bfdee9cc58ac704940ff1654e10f7e495c90f358c0",
                "transactions" : [
                    {
                        "data" : "",
                        "gasLimit" : "0x989680",
                        "gasPrice" : "0x01",
                        "nonce" : "0x00",
                        "r" : "0x75de0c8388f398cb3a1cf4734a8665b413a85cc79d32c55a43fa4fc6ea483242",
                        "s" : "0x3b6d584d591d4f4fd1f6ade0bfdee9cc58ac704940ff1654e10f7e495c90f358",
                        "to" : "0x1000000000000000000000000000000000000000",
                        "v" : "0x1c",
                        "value" : "0x00"
                    }
                ],
                "uncleHeaders" : [
                ]
            }
        ],
        "genesisBlockHeader" : {
            "bloom" : "0x00000000000000000000000000000000000000000000000000000000000000000000000000000000000000000000000000000000000000000000000000000000000000000000000000000000000000000000000000000000000000000000000000000000000000000000000000000000000000000000000000000000000000000000000000000000000000000000000000000000000000000000000000000000000000000000000000000000000000000000000000000000000000000000000000000000000000000000000000000000000000000000000000000000000000000000000000000000000000000000000000000000000000000000000000000000",
            "coinbase" : "0x2adc25665018aa1fe0e6bc666dac8fc2697ff9ba",
            "difficulty" : "0x020000",
            "extraData" : "0x42",
            "gasLimit" : "0x989680",
            "gasUsed" : "0x00",
            "hash" : "0xd9df0ba663510d71e7c09537ff694cf3cf4536593bf180d2f20c1cfecb99e244",
            "mixHash" : "0x56e81f171bcc55a6ff8345e692c0f86e5b48e01b996cadc001622fb5e363b421",
            "nonce" : "0x0102030405060708",
            "number" : "0x00",
            "parentHash" : "0x0000000000000000000000000000000000000000000000000000000000000000",
            "receiptTrie" : "0x56e81f171bcc55a6ff8345e692c0f86e5b48e01b996cadc001622fb5e363b421",
            "stateRoot" : "0xbe14251d411a9ca54b403bac88b7f57fa0ed4aa5db3c0b6f86290c915c692939",
            "timestamp" : "0x03b6",
            "transactionsTrie" : "0x56e81f171bcc55a6ff8345e692c0f86e5b48e01b996cadc001622fb5e363b421",
            "uncleHash" : "0x1dcc4de8dec75d7aab85b567b6ccd41ad312451b948a7413f0a142fd40d49347"
        },
        "genesisRLP" : "0xf901faf901f5a00000000000000000000000000000000000000000000000000000000000000000a01dcc4de8dec75d7aab85b567b6ccd41ad312451b948a7413f0a142fd40d49347942adc25665018aa1fe0e6bc666dac8fc2697ff9baa0be14251d411a9ca54b403bac88b7f57fa0ed4aa5db3c0b6f86290c915c692939a056e81f171bcc55a6ff8345e692c0f86e5b48e01b996cadc001622fb5e363b421a056e81f171bcc55a6ff8345e692c0f86e5b48e01b996cadc001622fb5e363b421b9010000000000000000000000000000000000000000000000000000000000000000000000000000000000000000000000000000000000000000000000000000000000000000000000000000000000000000000000000000000000000000000000000000000000000000000000000000000000000000000000000000000000000000000000000000000000000000000000000000000000000000000000000000000000000000000000000000000000000000000000000000000000000000000000000000000000000000000000000000000000000000000000000000000000000000000000000000000000000000000000000000000000000000000000000000000000830200008083989680808203b642a056e81f171bcc55a6ff8345e692c0f86e5b48e01b996cadc001622fb5e363b421880102030405060708c0c0",
        "lastblockhash" : "0xa09a054f6300922f92d21f5b69db13eb09b898f05b0697f0ef8d874beebc1601",
        "network" : "EIP150",
        "postState" : {
            "0x1000000000000000000000000000000000000000" : {
                "balance" : "0x00",
                "code" : "0x60006000600060006000731000000000000000000000000000000000000000620186a05a03f16000555a600155",
                "nonce" : "0x00",
                "storage" : {
                    "0x00" : "0x01",
                    "0x01" : "0x88c8c6"
                }
            },
            "0x2adc25665018aa1fe0e6bc666dac8fc2697ff9ba" : {
                "balance" : "0x456391824503e145",
                "code" : "",
                "nonce" : "0x00",
                "storage" : {
                }
            },
            "0xa000000000000000000000000000000000000000" : {
                "balance" : "0x00",
                "code" : "0x600060006000600073b0000000000000000000000000000000000000005afa",
                "nonce" : "0x00",
                "storage" : {
                }
            },
            "0xa94f5374fce5edbc8e2a8697c15331677e6ebf0b" : {
                "balance" : "0xe8d4952ebb",
                "code" : "",
                "nonce" : "0x01",
                "storage" : {
                }
            },
            "0xb000000000000000000000000000000000000000" : {
                "balance" : "0x00",
                "code" : "0x600060006000600073a0000000000000000000000000000000000000005afa",
                "nonce" : "0x00",
                "storage" : {
                }
            }
        },
        "pre" : {
            "0x1000000000000000000000000000000000000000" : {
                "balance" : "0x00",
                "code" : "0x60006000600060006000731000000000000000000000000000000000000000620186a05a03f16000555a600155",
                "nonce" : "0x00",
                "storage" : {
                }
            },
            "0xa000000000000000000000000000000000000000" : {
                "balance" : "0x00",
                "code" : "0x600060006000600073b0000000000000000000000000000000000000005afa",
                "nonce" : "0x00",
                "storage" : {
                }
            },
            "0xa94f5374fce5edbc8e2a8697c15331677e6ebf0b" : {
                "balance" : "0xe8d4a51000",
                "code" : "",
                "nonce" : "0x00",
                "storage" : {
                }
            },
            "0xb000000000000000000000000000000000000000" : {
                "balance" : "0x00",
                "code" : "0x600060006000600073a0000000000000000000000000000000000000005afa",
                "nonce" : "0x00",
                "storage" : {
                }
            }
        }
    },
    "static_LoopCallsDepthThenRevert_d0g0v0_EIP158" : {
        "_info" : {
            "comment" : "",
            "filledwith" : "cpp-1.3.0+commit.6e0ce939.Linux.g++",
            "lllcversion" : "Version: 0.4.18-develop.2017.9.25+commit.a72237f2.Linux.g++",
            "source" : "src/BlockchainTestsFiller/GeneralStateTests/stStaticCall/static_LoopCallsDepthThenRevert_d0g0v0Filler.json",
            "sourceHash" : "0635ea8da14993e4c0b422a29d2eb791b49795610c87d80c26a3ed04edd74c15"
        },
        "blocks" : [
            {
                "blockHeader" : {
                    "bloom" : "0x00000000000000000000000000000000000000000000000000000000000000000000000000000000000000000000000000000000000000000000000000000000000000000000000000000000000000000000000000000000000000000000000000000000000000000000000000000000000000000000000000000000000000000000000000000000000000000000000000000000000000000000000000000000000000000000000000000000000000000000000000000000000000000000000000000000000000000000000000000000000000000000000000000000000000000000000000000000000000000000000000000000000000000000000000000000",
                    "coinbase" : "0x2adc25665018aa1fe0e6bc666dac8fc2697ff9ba",
                    "difficulty" : "0x020000",
                    "extraData" : "",
                    "gasLimit" : "0x989680",
                    "gasUsed" : "0x0fe145",
                    "hash" : "0xa4202202173437d877e57864845c599439136648b07b5aa81159ac9b8ee7f658",
                    "mixHash" : "0x9d14631ab40e5c154ffb9b1b6ff974f7709a7ff8c3843fae03cf273b6dc39f58",
                    "nonce" : "0x19add3bc8af280df",
                    "number" : "0x01",
                    "parentHash" : "0xd9df0ba663510d71e7c09537ff694cf3cf4536593bf180d2f20c1cfecb99e244",
                    "receiptTrie" : "0xfb9a685d012df616bfa3d5296857c13af5b13dd3cba9677f710ac7748a1b87b4",
                    "stateRoot" : "0x5b515a605249d6ed81f6472222f41936aaf048429aef7e80131b3e79224cff8d",
                    "timestamp" : "0x03e8",
                    "transactionsTrie" : "0xd5b0ba9bc3b539c234278d761d356fdf93a264cc3c8ba38e570b7ecc2c3d124b",
                    "uncleHash" : "0x1dcc4de8dec75d7aab85b567b6ccd41ad312451b948a7413f0a142fd40d49347"
                },
                "rlp" : "0xf90260f901f8a0d9df0ba663510d71e7c09537ff694cf3cf4536593bf180d2f20c1cfecb99e244a01dcc4de8dec75d7aab85b567b6ccd41ad312451b948a7413f0a142fd40d49347942adc25665018aa1fe0e6bc666dac8fc2697ff9baa05b515a605249d6ed81f6472222f41936aaf048429aef7e80131b3e79224cff8da0d5b0ba9bc3b539c234278d761d356fdf93a264cc3c8ba38e570b7ecc2c3d124ba0fb9a685d012df616bfa3d5296857c13af5b13dd3cba9677f710ac7748a1b87b4b9010000000000000000000000000000000000000000000000000000000000000000000000000000000000000000000000000000000000000000000000000000000000000000000000000000000000000000000000000000000000000000000000000000000000000000000000000000000000000000000000000000000000000000000000000000000000000000000000000000000000000000000000000000000000000000000000000000000000000000000000000000000000000000000000000000000000000000000000000000000000000000000000000000000000000000000000000000000000000000000000000000000000000000000000000000000000830200000183989680830fe1458203e880a09d14631ab40e5c154ffb9b1b6ff974f7709a7ff8c3843fae03cf273b6dc39f588819add3bc8af280dff862f86080018398968094100000000000000000000000000000000000000080801ca075de0c8388f398cb3a1cf4734a8665b413a85cc79d32c55a43fa4fc6ea483242a03b6d584d591d4f4fd1f6ade0bfdee9cc58ac704940ff1654e10f7e495c90f358c0",
                "transactions" : [
                    {
                        "data" : "",
                        "gasLimit" : "0x989680",
                        "gasPrice" : "0x01",
                        "nonce" : "0x00",
                        "r" : "0x75de0c8388f398cb3a1cf4734a8665b413a85cc79d32c55a43fa4fc6ea483242",
                        "s" : "0x3b6d584d591d4f4fd1f6ade0bfdee9cc58ac704940ff1654e10f7e495c90f358",
                        "to" : "0x1000000000000000000000000000000000000000",
                        "v" : "0x1c",
                        "value" : "0x00"
                    }
                ],
                "uncleHeaders" : [
                ]
            }
        ],
        "genesisBlockHeader" : {
            "bloom" : "0x00000000000000000000000000000000000000000000000000000000000000000000000000000000000000000000000000000000000000000000000000000000000000000000000000000000000000000000000000000000000000000000000000000000000000000000000000000000000000000000000000000000000000000000000000000000000000000000000000000000000000000000000000000000000000000000000000000000000000000000000000000000000000000000000000000000000000000000000000000000000000000000000000000000000000000000000000000000000000000000000000000000000000000000000000000000",
            "coinbase" : "0x2adc25665018aa1fe0e6bc666dac8fc2697ff9ba",
            "difficulty" : "0x020000",
            "extraData" : "0x42",
            "gasLimit" : "0x989680",
            "gasUsed" : "0x00",
            "hash" : "0xd9df0ba663510d71e7c09537ff694cf3cf4536593bf180d2f20c1cfecb99e244",
            "mixHash" : "0x56e81f171bcc55a6ff8345e692c0f86e5b48e01b996cadc001622fb5e363b421",
            "nonce" : "0x0102030405060708",
            "number" : "0x00",
            "parentHash" : "0x0000000000000000000000000000000000000000000000000000000000000000",
            "receiptTrie" : "0x56e81f171bcc55a6ff8345e692c0f86e5b48e01b996cadc001622fb5e363b421",
            "stateRoot" : "0xbe14251d411a9ca54b403bac88b7f57fa0ed4aa5db3c0b6f86290c915c692939",
            "timestamp" : "0x03b6",
            "transactionsTrie" : "0x56e81f171bcc55a6ff8345e692c0f86e5b48e01b996cadc001622fb5e363b421",
            "uncleHash" : "0x1dcc4de8dec75d7aab85b567b6ccd41ad312451b948a7413f0a142fd40d49347"
        },
        "genesisRLP" : "0xf901faf901f5a00000000000000000000000000000000000000000000000000000000000000000a01dcc4de8dec75d7aab85b567b6ccd41ad312451b948a7413f0a142fd40d49347942adc25665018aa1fe0e6bc666dac8fc2697ff9baa0be14251d411a9ca54b403bac88b7f57fa0ed4aa5db3c0b6f86290c915c692939a056e81f171bcc55a6ff8345e692c0f86e5b48e01b996cadc001622fb5e363b421a056e81f171bcc55a6ff8345e692c0f86e5b48e01b996cadc001622fb5e363b421b9010000000000000000000000000000000000000000000000000000000000000000000000000000000000000000000000000000000000000000000000000000000000000000000000000000000000000000000000000000000000000000000000000000000000000000000000000000000000000000000000000000000000000000000000000000000000000000000000000000000000000000000000000000000000000000000000000000000000000000000000000000000000000000000000000000000000000000000000000000000000000000000000000000000000000000000000000000000000000000000000000000000000000000000000000000000000830200008083989680808203b642a056e81f171bcc55a6ff8345e692c0f86e5b48e01b996cadc001622fb5e363b421880102030405060708c0c0",
        "lastblockhash" : "0xa4202202173437d877e57864845c599439136648b07b5aa81159ac9b8ee7f658",
        "network" : "EIP158",
        "postState" : {
            "0x1000000000000000000000000000000000000000" : {
                "balance" : "0x00",
                "code" : "0x60006000600060006000731000000000000000000000000000000000000000620186a05a03f16000555a600155",
                "nonce" : "0x00",
                "storage" : {
                    "0x00" : "0x01",
                    "0x01" : "0x88c8c6"
                }
            },
            "0x2adc25665018aa1fe0e6bc666dac8fc2697ff9ba" : {
                "balance" : "0x456391824503e145",
                "code" : "",
                "nonce" : "0x00",
                "storage" : {
                }
            },
            "0xa000000000000000000000000000000000000000" : {
                "balance" : "0x00",
                "code" : "0x600060006000600073b0000000000000000000000000000000000000005afa",
                "nonce" : "0x00",
                "storage" : {
                }
            },
            "0xa94f5374fce5edbc8e2a8697c15331677e6ebf0b" : {
                "balance" : "0xe8d4952ebb",
                "code" : "",
                "nonce" : "0x01",
                "storage" : {
                }
            },
            "0xb000000000000000000000000000000000000000" : {
                "balance" : "0x00",
                "code" : "0x600060006000600073a0000000000000000000000000000000000000005afa",
                "nonce" : "0x00",
                "storage" : {
                }
            }
        },
        "pre" : {
            "0x1000000000000000000000000000000000000000" : {
                "balance" : "0x00",
                "code" : "0x60006000600060006000731000000000000000000000000000000000000000620186a05a03f16000555a600155",
                "nonce" : "0x00",
                "storage" : {
                }
            },
            "0xa000000000000000000000000000000000000000" : {
                "balance" : "0x00",
                "code" : "0x600060006000600073b0000000000000000000000000000000000000005afa",
                "nonce" : "0x00",
                "storage" : {
                }
            },
            "0xa94f5374fce5edbc8e2a8697c15331677e6ebf0b" : {
                "balance" : "0xe8d4a51000",
                "code" : "",
                "nonce" : "0x00",
                "storage" : {
                }
            },
            "0xb000000000000000000000000000000000000000" : {
                "balance" : "0x00",
                "code" : "0x600060006000600073a0000000000000000000000000000000000000005afa",
                "nonce" : "0x00",
                "storage" : {
                }
            }
        }
    },
    "static_LoopCallsDepthThenRevert_d0g0v0_Frontier" : {
        "_info" : {
            "comment" : "",
            "filledwith" : "cpp-1.3.0+commit.6e0ce939.Linux.g++",
            "lllcversion" : "Version: 0.4.18-develop.2017.9.25+commit.a72237f2.Linux.g++",
            "source" : "src/BlockchainTestsFiller/GeneralStateTests/stStaticCall/static_LoopCallsDepthThenRevert_d0g0v0Filler.json",
            "sourceHash" : "0635ea8da14993e4c0b422a29d2eb791b49795610c87d80c26a3ed04edd74c15"
        },
        "blocks" : [
            {
                "blockHeader" : {
                    "bloom" : "0x00000000000000000000000000000000000000000000000000000000000000000000000000000000000000000000000000000000000000000000000000000000000000000000000000000000000000000000000000000000000000000000000000000000000000000000000000000000000000000000000000000000000000000000000000000000000000000000000000000000000000000000000000000000000000000000000000000000000000000000000000000000000000000000000000000000000000000000000000000000000000000000000000000000000000000000000000000000000000000000000000000000000000000000000000000000",
                    "coinbase" : "0x2adc25665018aa1fe0e6bc666dac8fc2697ff9ba",
                    "difficulty" : "0x020000",
                    "extraData" : "",
                    "gasLimit" : "0x989680",
                    "gasUsed" : "0x112ab9",
                    "hash" : "0x79e1881c426abfed59138228905ac84f866e74dd6a1a2475d299f5b07c63f723",
                    "mixHash" : "0xbfce9eacfd5a6546678d570c5c23c60b9253a8bdf12e7a7bba90927429a3aebb",
                    "nonce" : "0x4fd34c8b8a65df38",
                    "number" : "0x01",
                    "parentHash" : "0xd9df0ba663510d71e7c09537ff694cf3cf4536593bf180d2f20c1cfecb99e244",
                    "receiptTrie" : "0x7a0bdc1e00bc2ff6b67f6452cbd4d7debea212f520c2c71f2ec3624a0d4d4102",
                    "stateRoot" : "0xeb17283b8b3063ca9258dcbf27711170aa99b6d91d9edbe9c70eacc934ef6631",
                    "timestamp" : "0x03e8",
                    "transactionsTrie" : "0xd5b0ba9bc3b539c234278d761d356fdf93a264cc3c8ba38e570b7ecc2c3d124b",
                    "uncleHash" : "0x1dcc4de8dec75d7aab85b567b6ccd41ad312451b948a7413f0a142fd40d49347"
                },
                "rlp" : "0xf90260f901f8a0d9df0ba663510d71e7c09537ff694cf3cf4536593bf180d2f20c1cfecb99e244a01dcc4de8dec75d7aab85b567b6ccd41ad312451b948a7413f0a142fd40d49347942adc25665018aa1fe0e6bc666dac8fc2697ff9baa0eb17283b8b3063ca9258dcbf27711170aa99b6d91d9edbe9c70eacc934ef6631a0d5b0ba9bc3b539c234278d761d356fdf93a264cc3c8ba38e570b7ecc2c3d124ba07a0bdc1e00bc2ff6b67f6452cbd4d7debea212f520c2c71f2ec3624a0d4d4102b901000000000000000000000000000000000000000000000000000000000000000000000000000000000000000000000000000000000000000000000000000000000000000000000000000000000000000000000000000000000000000000000000000000000000000000000000000000000000000000000000000000000000000000000000000000000000000000000000000000000000000000000000000000000000000000000000000000000000000000000000000000000000000000000000000000000000000000000000000000000000000000000000000000000000000000000000000000000000000000000000000000000000000000000000000000000083020000018398968083112ab98203e880a0bfce9eacfd5a6546678d570c5c23c60b9253a8bdf12e7a7bba90927429a3aebb884fd34c8b8a65df38f862f86080018398968094100000000000000000000000000000000000000080801ca075de0c8388f398cb3a1cf4734a8665b413a85cc79d32c55a43fa4fc6ea483242a03b6d584d591d4f4fd1f6ade0bfdee9cc58ac704940ff1654e10f7e495c90f358c0",
                "transactions" : [
                    {
                        "data" : "",
                        "gasLimit" : "0x989680",
                        "gasPrice" : "0x01",
                        "nonce" : "0x00",
                        "r" : "0x75de0c8388f398cb3a1cf4734a8665b413a85cc79d32c55a43fa4fc6ea483242",
                        "s" : "0x3b6d584d591d4f4fd1f6ade0bfdee9cc58ac704940ff1654e10f7e495c90f358",
                        "to" : "0x1000000000000000000000000000000000000000",
                        "v" : "0x1c",
                        "value" : "0x00"
                    }
                ],
                "uncleHeaders" : [
                ]
            }
        ],
        "genesisBlockHeader" : {
            "bloom" : "0x00000000000000000000000000000000000000000000000000000000000000000000000000000000000000000000000000000000000000000000000000000000000000000000000000000000000000000000000000000000000000000000000000000000000000000000000000000000000000000000000000000000000000000000000000000000000000000000000000000000000000000000000000000000000000000000000000000000000000000000000000000000000000000000000000000000000000000000000000000000000000000000000000000000000000000000000000000000000000000000000000000000000000000000000000000000",
            "coinbase" : "0x2adc25665018aa1fe0e6bc666dac8fc2697ff9ba",
            "difficulty" : "0x020000",
            "extraData" : "0x42",
            "gasLimit" : "0x989680",
            "gasUsed" : "0x00",
            "hash" : "0xd9df0ba663510d71e7c09537ff694cf3cf4536593bf180d2f20c1cfecb99e244",
            "mixHash" : "0x56e81f171bcc55a6ff8345e692c0f86e5b48e01b996cadc001622fb5e363b421",
            "nonce" : "0x0102030405060708",
            "number" : "0x00",
            "parentHash" : "0x0000000000000000000000000000000000000000000000000000000000000000",
            "receiptTrie" : "0x56e81f171bcc55a6ff8345e692c0f86e5b48e01b996cadc001622fb5e363b421",
            "stateRoot" : "0xbe14251d411a9ca54b403bac88b7f57fa0ed4aa5db3c0b6f86290c915c692939",
            "timestamp" : "0x03b6",
            "transactionsTrie" : "0x56e81f171bcc55a6ff8345e692c0f86e5b48e01b996cadc001622fb5e363b421",
            "uncleHash" : "0x1dcc4de8dec75d7aab85b567b6ccd41ad312451b948a7413f0a142fd40d49347"
        },
        "genesisRLP" : "0xf901faf901f5a00000000000000000000000000000000000000000000000000000000000000000a01dcc4de8dec75d7aab85b567b6ccd41ad312451b948a7413f0a142fd40d49347942adc25665018aa1fe0e6bc666dac8fc2697ff9baa0be14251d411a9ca54b403bac88b7f57fa0ed4aa5db3c0b6f86290c915c692939a056e81f171bcc55a6ff8345e692c0f86e5b48e01b996cadc001622fb5e363b421a056e81f171bcc55a6ff8345e692c0f86e5b48e01b996cadc001622fb5e363b421b9010000000000000000000000000000000000000000000000000000000000000000000000000000000000000000000000000000000000000000000000000000000000000000000000000000000000000000000000000000000000000000000000000000000000000000000000000000000000000000000000000000000000000000000000000000000000000000000000000000000000000000000000000000000000000000000000000000000000000000000000000000000000000000000000000000000000000000000000000000000000000000000000000000000000000000000000000000000000000000000000000000000000000000000000000000000000830200008083989680808203b642a056e81f171bcc55a6ff8345e692c0f86e5b48e01b996cadc001622fb5e363b421880102030405060708c0c0",
        "lastblockhash" : "0x79e1881c426abfed59138228905ac84f866e74dd6a1a2475d299f5b07c63f723",
        "network" : "Frontier",
        "postState" : {
            "0x1000000000000000000000000000000000000000" : {
                "balance" : "0x00",
                "code" : "0x60006000600060006000731000000000000000000000000000000000000000620186a05a03f16000555a600155",
                "nonce" : "0x00",
                "storage" : {
                    "0x00" : "0x01",
                    "0x01" : "0x877f52"
                }
            },
            "0x2adc25665018aa1fe0e6bc666dac8fc2697ff9ba" : {
                "balance" : "0x4563918245052ab9",
                "code" : "",
                "nonce" : "0x00",
                "storage" : {
                }
            },
            "0xa000000000000000000000000000000000000000" : {
                "balance" : "0x00",
                "code" : "0x600060006000600073b0000000000000000000000000000000000000005afa",
                "nonce" : "0x00",
                "storage" : {
                }
            },
            "0xa94f5374fce5edbc8e2a8697c15331677e6ebf0b" : {
                "balance" : "0xe8d493e547",
                "code" : "",
                "nonce" : "0x01",
                "storage" : {
                }
            },
            "0xb000000000000000000000000000000000000000" : {
                "balance" : "0x00",
                "code" : "0x600060006000600073a0000000000000000000000000000000000000005afa",
                "nonce" : "0x00",
                "storage" : {
                }
            }
        },
        "pre" : {
            "0x1000000000000000000000000000000000000000" : {
                "balance" : "0x00",
                "code" : "0x60006000600060006000731000000000000000000000000000000000000000620186a05a03f16000555a600155",
                "nonce" : "0x00",
                "storage" : {
                }
            },
            "0xa000000000000000000000000000000000000000" : {
                "balance" : "0x00",
                "code" : "0x600060006000600073b0000000000000000000000000000000000000005afa",
                "nonce" : "0x00",
                "storage" : {
                }
            },
            "0xa94f5374fce5edbc8e2a8697c15331677e6ebf0b" : {
                "balance" : "0xe8d4a51000",
                "code" : "",
                "nonce" : "0x00",
                "storage" : {
                }
            },
            "0xb000000000000000000000000000000000000000" : {
                "balance" : "0x00",
                "code" : "0x600060006000600073a0000000000000000000000000000000000000005afa",
                "nonce" : "0x00",
                "storage" : {
                }
            }
        }
    },
    "static_LoopCallsDepthThenRevert_d0g0v0_Homestead" : {
        "_info" : {
            "comment" : "",
            "filledwith" : "cpp-1.3.0+commit.6e0ce939.Linux.g++",
            "lllcversion" : "Version: 0.4.18-develop.2017.9.25+commit.a72237f2.Linux.g++",
            "source" : "src/BlockchainTestsFiller/GeneralStateTests/stStaticCall/static_LoopCallsDepthThenRevert_d0g0v0Filler.json",
            "sourceHash" : "0635ea8da14993e4c0b422a29d2eb791b49795610c87d80c26a3ed04edd74c15"
        },
        "blocks" : [
            {
                "blockHeader" : {
                    "bloom" : "0x00000000000000000000000000000000000000000000000000000000000000000000000000000000000000000000000000000000000000000000000000000000000000000000000000000000000000000000000000000000000000000000000000000000000000000000000000000000000000000000000000000000000000000000000000000000000000000000000000000000000000000000000000000000000000000000000000000000000000000000000000000000000000000000000000000000000000000000000000000000000000000000000000000000000000000000000000000000000000000000000000000000000000000000000000000000",
                    "coinbase" : "0x2adc25665018aa1fe0e6bc666dac8fc2697ff9ba",
                    "difficulty" : "0x020000",
                    "extraData" : "",
                    "gasLimit" : "0x989680",
                    "gasUsed" : "0x112ab9",
                    "hash" : "0xfa1e3cb00c43f901dbb9d23f69749e6234d3e98950337d8686cc414fad5953cc",
                    "mixHash" : "0x550812947ed216f9b73c81347d885154e4d848bb8ec21386ea60c43c6ab26917",
                    "nonce" : "0x4b39ea0705dfb928",
                    "number" : "0x01",
                    "parentHash" : "0xd9df0ba663510d71e7c09537ff694cf3cf4536593bf180d2f20c1cfecb99e244",
                    "receiptTrie" : "0x7a0bdc1e00bc2ff6b67f6452cbd4d7debea212f520c2c71f2ec3624a0d4d4102",
                    "stateRoot" : "0xeb17283b8b3063ca9258dcbf27711170aa99b6d91d9edbe9c70eacc934ef6631",
                    "timestamp" : "0x03e8",
                    "transactionsTrie" : "0xd5b0ba9bc3b539c234278d761d356fdf93a264cc3c8ba38e570b7ecc2c3d124b",
                    "uncleHash" : "0x1dcc4de8dec75d7aab85b567b6ccd41ad312451b948a7413f0a142fd40d49347"
                },
                "rlp" : "0xf90260f901f8a0d9df0ba663510d71e7c09537ff694cf3cf4536593bf180d2f20c1cfecb99e244a01dcc4de8dec75d7aab85b567b6ccd41ad312451b948a7413f0a142fd40d49347942adc25665018aa1fe0e6bc666dac8fc2697ff9baa0eb17283b8b3063ca9258dcbf27711170aa99b6d91d9edbe9c70eacc934ef6631a0d5b0ba9bc3b539c234278d761d356fdf93a264cc3c8ba38e570b7ecc2c3d124ba07a0bdc1e00bc2ff6b67f6452cbd4d7debea212f520c2c71f2ec3624a0d4d4102b901000000000000000000000000000000000000000000000000000000000000000000000000000000000000000000000000000000000000000000000000000000000000000000000000000000000000000000000000000000000000000000000000000000000000000000000000000000000000000000000000000000000000000000000000000000000000000000000000000000000000000000000000000000000000000000000000000000000000000000000000000000000000000000000000000000000000000000000000000000000000000000000000000000000000000000000000000000000000000000000000000000000000000000000000000000000083020000018398968083112ab98203e880a0550812947ed216f9b73c81347d885154e4d848bb8ec21386ea60c43c6ab26917884b39ea0705dfb928f862f86080018398968094100000000000000000000000000000000000000080801ca075de0c8388f398cb3a1cf4734a8665b413a85cc79d32c55a43fa4fc6ea483242a03b6d584d591d4f4fd1f6ade0bfdee9cc58ac704940ff1654e10f7e495c90f358c0",
                "transactions" : [
                    {
                        "data" : "",
                        "gasLimit" : "0x989680",
                        "gasPrice" : "0x01",
                        "nonce" : "0x00",
                        "r" : "0x75de0c8388f398cb3a1cf4734a8665b413a85cc79d32c55a43fa4fc6ea483242",
                        "s" : "0x3b6d584d591d4f4fd1f6ade0bfdee9cc58ac704940ff1654e10f7e495c90f358",
                        "to" : "0x1000000000000000000000000000000000000000",
                        "v" : "0x1c",
                        "value" : "0x00"
                    }
                ],
                "uncleHeaders" : [
                ]
            }
        ],
        "genesisBlockHeader" : {
            "bloom" : "0x00000000000000000000000000000000000000000000000000000000000000000000000000000000000000000000000000000000000000000000000000000000000000000000000000000000000000000000000000000000000000000000000000000000000000000000000000000000000000000000000000000000000000000000000000000000000000000000000000000000000000000000000000000000000000000000000000000000000000000000000000000000000000000000000000000000000000000000000000000000000000000000000000000000000000000000000000000000000000000000000000000000000000000000000000000000",
            "coinbase" : "0x2adc25665018aa1fe0e6bc666dac8fc2697ff9ba",
            "difficulty" : "0x020000",
            "extraData" : "0x42",
            "gasLimit" : "0x989680",
            "gasUsed" : "0x00",
            "hash" : "0xd9df0ba663510d71e7c09537ff694cf3cf4536593bf180d2f20c1cfecb99e244",
            "mixHash" : "0x56e81f171bcc55a6ff8345e692c0f86e5b48e01b996cadc001622fb5e363b421",
            "nonce" : "0x0102030405060708",
            "number" : "0x00",
            "parentHash" : "0x0000000000000000000000000000000000000000000000000000000000000000",
            "receiptTrie" : "0x56e81f171bcc55a6ff8345e692c0f86e5b48e01b996cadc001622fb5e363b421",
            "stateRoot" : "0xbe14251d411a9ca54b403bac88b7f57fa0ed4aa5db3c0b6f86290c915c692939",
            "timestamp" : "0x03b6",
            "transactionsTrie" : "0x56e81f171bcc55a6ff8345e692c0f86e5b48e01b996cadc001622fb5e363b421",
            "uncleHash" : "0x1dcc4de8dec75d7aab85b567b6ccd41ad312451b948a7413f0a142fd40d49347"
        },
        "genesisRLP" : "0xf901faf901f5a00000000000000000000000000000000000000000000000000000000000000000a01dcc4de8dec75d7aab85b567b6ccd41ad312451b948a7413f0a142fd40d49347942adc25665018aa1fe0e6bc666dac8fc2697ff9baa0be14251d411a9ca54b403bac88b7f57fa0ed4aa5db3c0b6f86290c915c692939a056e81f171bcc55a6ff8345e692c0f86e5b48e01b996cadc001622fb5e363b421a056e81f171bcc55a6ff8345e692c0f86e5b48e01b996cadc001622fb5e363b421b9010000000000000000000000000000000000000000000000000000000000000000000000000000000000000000000000000000000000000000000000000000000000000000000000000000000000000000000000000000000000000000000000000000000000000000000000000000000000000000000000000000000000000000000000000000000000000000000000000000000000000000000000000000000000000000000000000000000000000000000000000000000000000000000000000000000000000000000000000000000000000000000000000000000000000000000000000000000000000000000000000000000000000000000000000000000000830200008083989680808203b642a056e81f171bcc55a6ff8345e692c0f86e5b48e01b996cadc001622fb5e363b421880102030405060708c0c0",
        "lastblockhash" : "0xfa1e3cb00c43f901dbb9d23f69749e6234d3e98950337d8686cc414fad5953cc",
        "network" : "Homestead",
        "postState" : {
            "0x1000000000000000000000000000000000000000" : {
                "balance" : "0x00",
                "code" : "0x60006000600060006000731000000000000000000000000000000000000000620186a05a03f16000555a600155",
                "nonce" : "0x00",
                "storage" : {
                    "0x00" : "0x01",
                    "0x01" : "0x877f52"
                }
            },
            "0x2adc25665018aa1fe0e6bc666dac8fc2697ff9ba" : {
                "balance" : "0x4563918245052ab9",
                "code" : "",
                "nonce" : "0x00",
                "storage" : {
                }
            },
            "0xa000000000000000000000000000000000000000" : {
                "balance" : "0x00",
                "code" : "0x600060006000600073b0000000000000000000000000000000000000005afa",
                "nonce" : "0x00",
                "storage" : {
                }
            },
            "0xa94f5374fce5edbc8e2a8697c15331677e6ebf0b" : {
                "balance" : "0xe8d493e547",
                "code" : "",
                "nonce" : "0x01",
                "storage" : {
                }
            },
            "0xb000000000000000000000000000000000000000" : {
                "balance" : "0x00",
                "code" : "0x600060006000600073a0000000000000000000000000000000000000005afa",
                "nonce" : "0x00",
                "storage" : {
                }
            }
        },
        "pre" : {
            "0x1000000000000000000000000000000000000000" : {
                "balance" : "0x00",
                "code" : "0x60006000600060006000731000000000000000000000000000000000000000620186a05a03f16000555a600155",
                "nonce" : "0x00",
                "storage" : {
                }
            },
            "0xa000000000000000000000000000000000000000" : {
                "balance" : "0x00",
                "code" : "0x600060006000600073b0000000000000000000000000000000000000005afa",
                "nonce" : "0x00",
                "storage" : {
                }
            },
            "0xa94f5374fce5edbc8e2a8697c15331677e6ebf0b" : {
                "balance" : "0xe8d4a51000",
                "code" : "",
                "nonce" : "0x00",
                "storage" : {
                }
            },
            "0xb000000000000000000000000000000000000000" : {
                "balance" : "0x00",
                "code" : "0x600060006000600073a0000000000000000000000000000000000000005afa",
                "nonce" : "0x00",
                "storage" : {
                }
            }
        }
    }
}