{
    "static_CallRecursiveBomb3_d0g0v0_Byzantium" : {
        "_info" : {
            "comment" : "",
            "filledwith" : "cpp-1.3.0+commit.6e0ce939.Linux.g++",
            "lllcversion" : "Version: 0.4.18-develop.2017.9.25+commit.a72237f2.Linux.g++",
            "source" : "src/BlockchainTestsFiller/GeneralStateTests/stStaticCall/static_CallRecursiveBomb3_d0g0v0Filler.json",
            "sourceHash" : "d309a6c02e04fc214edbd2ed69a967bcc7489587e2f25e5fc4bf404bd5cceff2"
        },
        "blocks" : [
            {
                "blockHeader" : {
                    "bloom" : "0x00000000000000000000000000000000000000000000000000000000000000000000000000000000000000000000000000000000000000000000000000000000000000000000000000000000000000000000000000000000000000000000000000000000000000000000000000000000000000000000000000000000000000000000000000000000000000000000000000000000000000000000000000000000000000000000000000000000000000000000000000000000000000000000000000000000000000000000000000000000000000000000000000000000000000000000000000000000000000000000000000000000000000000000000000000000",
                    "coinbase" : "0x2adc25665018aa1fe0e6bc666dac8fc2697ff9ba",
                    "difficulty" : "0x020000",
                    "extraData" : "",
                    "gasLimit" : "0x989680",
                    "gasUsed" : "0x0e2510",
                    "hash" : "0x8cfda44bcf6d2d16582061d90bccbbff9784e3e6cb2f3d113340baf7a940f10d",
                    "mixHash" : "0xdc1c6e05ff16d23e6ba2cda458bf3ca94e7327a7a66c51d181f6adbbc6bd7819",
                    "nonce" : "0xf8ba7e541aa3eba6",
                    "number" : "0x01",
                    "parentHash" : "0x307c336b404da318528971cbfb5acf67c5cf85f15d614bf9fc9b9b2823403054",
                    "receiptTrie" : "0x879c71623f405cea2d2ed3271d76c7981a7d3c1b5510d131cf812910f8f65fb8",
                    "stateRoot" : "0xc4dc94571341bb1c8b07b2613897aa7fcef73ee52e73b2e12b92781f529b37b4",
                    "timestamp" : "0x03e8",
                    "transactionsTrie" : "0xada1cce94dc37a788386e0b9d92caf0a21ef007d33dee17e15a9f18fd0f6c8b1",
                    "uncleHash" : "0x1dcc4de8dec75d7aab85b567b6ccd41ad312451b948a7413f0a142fd40d49347"
                },
                "rlp" : "0xf90263f901f8a0307c336b404da318528971cbfb5acf67c5cf85f15d614bf9fc9b9b2823403054a01dcc4de8dec75d7aab85b567b6ccd41ad312451b948a7413f0a142fd40d49347942adc25665018aa1fe0e6bc666dac8fc2697ff9baa0c4dc94571341bb1c8b07b2613897aa7fcef73ee52e73b2e12b92781f529b37b4a0ada1cce94dc37a788386e0b9d92caf0a21ef007d33dee17e15a9f18fd0f6c8b1a0879c71623f405cea2d2ed3271d76c7981a7d3c1b5510d131cf812910f8f65fb8b9010000000000000000000000000000000000000000000000000000000000000000000000000000000000000000000000000000000000000000000000000000000000000000000000000000000000000000000000000000000000000000000000000000000000000000000000000000000000000000000000000000000000000000000000000000000000000000000000000000000000000000000000000000000000000000000000000000000000000000000000000000000000000000000000000000000000000000000000000000000000000000000000000000000000000000000000000000000000000000000000000000000000000000000000000000000000830200000183989680830e25108203e880a0dc1c6e05ff16d23e6ba2cda458bf3ca94e7327a7a66c51d181f6adbbc6bd781988f8ba7e541aa3eba6f865f8638001830f424094195e7baea6a6c7c4c2dfeb977efac326af552d87830186a0801ca0658fb55ad84ad40e8fa0bf7fccc03ed7e730ccf139bcccdc216e92ee85cafd1da036c06b21cb81c39ccd211b28b6bd6c5e8c6b6bc2ff16b47c47272c8d506392bec0",
                "transactions" : [
                    {
                        "data" : "",
                        "gasLimit" : "0x0f4240",
                        "gasPrice" : "0x01",
                        "nonce" : "0x00",
                        "r" : "0x658fb55ad84ad40e8fa0bf7fccc03ed7e730ccf139bcccdc216e92ee85cafd1d",
                        "s" : "0x36c06b21cb81c39ccd211b28b6bd6c5e8c6b6bc2ff16b47c47272c8d506392be",
                        "to" : "0x195e7baea6a6c7c4c2dfeb977efac326af552d87",
                        "v" : "0x1c",
                        "value" : "0x0186a0"
                    }
                ],
                "uncleHeaders" : [
                ]
            }
        ],
        "genesisBlockHeader" : {
            "bloom" : "0x00000000000000000000000000000000000000000000000000000000000000000000000000000000000000000000000000000000000000000000000000000000000000000000000000000000000000000000000000000000000000000000000000000000000000000000000000000000000000000000000000000000000000000000000000000000000000000000000000000000000000000000000000000000000000000000000000000000000000000000000000000000000000000000000000000000000000000000000000000000000000000000000000000000000000000000000000000000000000000000000000000000000000000000000000000000",
            "coinbase" : "0x2adc25665018aa1fe0e6bc666dac8fc2697ff9ba",
            "difficulty" : "0x020000",
            "extraData" : "0x42",
            "gasLimit" : "0x989680",
            "gasUsed" : "0x00",
            "hash" : "0x307c336b404da318528971cbfb5acf67c5cf85f15d614bf9fc9b9b2823403054",
            "mixHash" : "0x56e81f171bcc55a6ff8345e692c0f86e5b48e01b996cadc001622fb5e363b421",
            "nonce" : "0x0102030405060708",
            "number" : "0x00",
            "parentHash" : "0x0000000000000000000000000000000000000000000000000000000000000000",
            "receiptTrie" : "0x56e81f171bcc55a6ff8345e692c0f86e5b48e01b996cadc001622fb5e363b421",
            "stateRoot" : "0x3d23b0c8a981117094824a65a46fe428eb052535ef435e6cc4f951346ce780af",
            "timestamp" : "0x03b6",
            "transactionsTrie" : "0x56e81f171bcc55a6ff8345e692c0f86e5b48e01b996cadc001622fb5e363b421",
            "uncleHash" : "0x1dcc4de8dec75d7aab85b567b6ccd41ad312451b948a7413f0a142fd40d49347"
        },
        "genesisRLP" : "0xf901faf901f5a00000000000000000000000000000000000000000000000000000000000000000a01dcc4de8dec75d7aab85b567b6ccd41ad312451b948a7413f0a142fd40d49347942adc25665018aa1fe0e6bc666dac8fc2697ff9baa03d23b0c8a981117094824a65a46fe428eb052535ef435e6cc4f951346ce780afa056e81f171bcc55a6ff8345e692c0f86e5b48e01b996cadc001622fb5e363b421a056e81f171bcc55a6ff8345e692c0f86e5b48e01b996cadc001622fb5e363b421b9010000000000000000000000000000000000000000000000000000000000000000000000000000000000000000000000000000000000000000000000000000000000000000000000000000000000000000000000000000000000000000000000000000000000000000000000000000000000000000000000000000000000000000000000000000000000000000000000000000000000000000000000000000000000000000000000000000000000000000000000000000000000000000000000000000000000000000000000000000000000000000000000000000000000000000000000000000000000000000000000000000000000000000000000000000000000830200008083989680808203b642a056e81f171bcc55a6ff8345e692c0f86e5b48e01b996cadc001622fb5e363b421880102030405060708c0c0",
        "lastblockhash" : "0x8cfda44bcf6d2d16582061d90bccbbff9784e3e6cb2f3d113340baf7a940f10d",
        "network" : "Byzantium",
        "postState" : {
            "0x095e7baea6a6c7c4c2dfeb977efac326af552d87" : {
                "balance" : "0x01312d00",
                "code" : "0x60016000540160005260006000600060003060e05a03fa",
                "nonce" : "0x00",
                "storage" : {
                }
            },
            "0x195e7baea6a6c7c4c2dfeb977efac326af552d87" : {
                "balance" : "0x0132b3a0",
                "code" : "0x6000600060006000600073095e7baea6a6c7c4c2dfeb977efac326af552d87620186a05a03f26000555a600155",
                "nonce" : "0x00",
                "storage" : {
                    "0x00" : "0x01",
                    "0x01" : "0x016b53"
                }
            },
            "0x2adc25665018aa1fe0e6bc666dac8fc2697ff9ba" : {
                "balance" : "0x29a2241af63a2510",
                "code" : "",
                "nonce" : "0x00",
                "storage" : {
                }
            },
            "0xa94f5374fce5edbc8e2a8697c15331677e6ebf0b" : {
                "balance" : "0x0de0b6b3a7545450",
                "code" : "",
                "nonce" : "0x01",
                "storage" : {
                }
            }
        },
        "pre" : {
            "0x095e7baea6a6c7c4c2dfeb977efac326af552d87" : {
                "balance" : "0x01312d00",
                "code" : "0x60016000540160005260006000600060003060e05a03fa",
                "nonce" : "0x00",
                "storage" : {
                }
            },
            "0x195e7baea6a6c7c4c2dfeb977efac326af552d87" : {
                "balance" : "0x01312d00",
                "code" : "0x6000600060006000600073095e7baea6a6c7c4c2dfeb977efac326af552d87620186a05a03f26000555a600155",
                "nonce" : "0x00",
                "storage" : {
                }
            },
            "0xa94f5374fce5edbc8e2a8697c15331677e6ebf0b" : {
                "balance" : "0x0de0b6b3a7640000",
                "code" : "",
                "nonce" : "0x00",
                "storage" : {
                }
            }
        }
    },
    "static_CallRecursiveBomb3_d0g0v0_EIP150" : {
        "_info" : {
            "comment" : "",
            "filledwith" : "cpp-1.3.0+commit.6e0ce939.Linux.g++",
            "lllcversion" : "Version: 0.4.18-develop.2017.9.25+commit.a72237f2.Linux.g++",
            "source" : "src/BlockchainTestsFiller/GeneralStateTests/stStaticCall/static_CallRecursiveBomb3_d0g0v0Filler.json",
            "sourceHash" : "d309a6c02e04fc214edbd2ed69a967bcc7489587e2f25e5fc4bf404bd5cceff2"
        },
        "blocks" : [
            {
                "blockHeader" : {
                    "bloom" : "0x00000000000000000000000000000000000000000000000000000000000000000000000000000000000000000000000000000000000000000000000000000000000000000000000000000000000000000000000000000000000000000000000000000000000000000000000000000000000000000000000000000000000000000000000000000000000000000000000000000000000000000000000000000000000000000000000000000000000000000000000000000000000000000000000000000000000000000000000000000000000000000000000000000000000000000000000000000000000000000000000000000000000000000000000000000000",
                    "coinbase" : "0x2adc25665018aa1fe0e6bc666dac8fc2697ff9ba",
                    "difficulty" : "0x020000",
                    "extraData" : "",
                    "gasLimit" : "0x989680",
                    "gasUsed" : "0x0e200f",
                    "hash" : "0x92f51bdf9047c427a8c734b4ee9027d53b9459f2e0d588d5c60eed4380b50ac8",
                    "mixHash" : "0xafa66bcd6ee78948a16ead3559275602ea5c1f62ae295a670f73feed760061ef",
                    "nonce" : "0xfcc29d9730319fbe",
                    "number" : "0x01",
                    "parentHash" : "0x307c336b404da318528971cbfb5acf67c5cf85f15d614bf9fc9b9b2823403054",
                    "receiptTrie" : "0xb63a2931f3521596ef4e755ada08e6ff8e952f1989933f967c1e5c24ae789b98",
                    "stateRoot" : "0x0c7646c7a01f7d32c6e32a65a1f7ef3adb31641186ba3c38168cf6e9a66e55e4",
                    "timestamp" : "0x03e8",
                    "transactionsTrie" : "0xada1cce94dc37a788386e0b9d92caf0a21ef007d33dee17e15a9f18fd0f6c8b1",
                    "uncleHash" : "0x1dcc4de8dec75d7aab85b567b6ccd41ad312451b948a7413f0a142fd40d49347"
                },
                "rlp" : "0xf90263f901f8a0307c336b404da318528971cbfb5acf67c5cf85f15d614bf9fc9b9b2823403054a01dcc4de8dec75d7aab85b567b6ccd41ad312451b948a7413f0a142fd40d49347942adc25665018aa1fe0e6bc666dac8fc2697ff9baa00c7646c7a01f7d32c6e32a65a1f7ef3adb31641186ba3c38168cf6e9a66e55e4a0ada1cce94dc37a788386e0b9d92caf0a21ef007d33dee17e15a9f18fd0f6c8b1a0b63a2931f3521596ef4e755ada08e6ff8e952f1989933f967c1e5c24ae789b98b9010000000000000000000000000000000000000000000000000000000000000000000000000000000000000000000000000000000000000000000000000000000000000000000000000000000000000000000000000000000000000000000000000000000000000000000000000000000000000000000000000000000000000000000000000000000000000000000000000000000000000000000000000000000000000000000000000000000000000000000000000000000000000000000000000000000000000000000000000000000000000000000000000000000000000000000000000000000000000000000000000000000000000000000000000000000000830200000183989680830e200f8203e880a0afa66bcd6ee78948a16ead3559275602ea5c1f62ae295a670f73feed760061ef88fcc29d9730319fbef865f8638001830f424094195e7baea6a6c7c4c2dfeb977efac326af552d87830186a0801ca0658fb55ad84ad40e8fa0bf7fccc03ed7e730ccf139bcccdc216e92ee85cafd1da036c06b21cb81c39ccd211b28b6bd6c5e8c6b6bc2ff16b47c47272c8d506392bec0",
                "transactions" : [
                    {
                        "data" : "",
                        "gasLimit" : "0x0f4240",
                        "gasPrice" : "0x01",
                        "nonce" : "0x00",
                        "r" : "0x658fb55ad84ad40e8fa0bf7fccc03ed7e730ccf139bcccdc216e92ee85cafd1d",
                        "s" : "0x36c06b21cb81c39ccd211b28b6bd6c5e8c6b6bc2ff16b47c47272c8d506392be",
                        "to" : "0x195e7baea6a6c7c4c2dfeb977efac326af552d87",
                        "v" : "0x1c",
                        "value" : "0x0186a0"
                    }
                ],
                "uncleHeaders" : [
                ]
            }
        ],
        "genesisBlockHeader" : {
            "bloom" : "0x00000000000000000000000000000000000000000000000000000000000000000000000000000000000000000000000000000000000000000000000000000000000000000000000000000000000000000000000000000000000000000000000000000000000000000000000000000000000000000000000000000000000000000000000000000000000000000000000000000000000000000000000000000000000000000000000000000000000000000000000000000000000000000000000000000000000000000000000000000000000000000000000000000000000000000000000000000000000000000000000000000000000000000000000000000000",
            "coinbase" : "0x2adc25665018aa1fe0e6bc666dac8fc2697ff9ba",
            "difficulty" : "0x020000",
            "extraData" : "0x42",
            "gasLimit" : "0x989680",
            "gasUsed" : "0x00",
            "hash" : "0x307c336b404da318528971cbfb5acf67c5cf85f15d614bf9fc9b9b2823403054",
            "mixHash" : "0x56e81f171bcc55a6ff8345e692c0f86e5b48e01b996cadc001622fb5e363b421",
            "nonce" : "0x0102030405060708",
            "number" : "0x00",
            "parentHash" : "0x0000000000000000000000000000000000000000000000000000000000000000",
            "receiptTrie" : "0x56e81f171bcc55a6ff8345e692c0f86e5b48e01b996cadc001622fb5e363b421",
            "stateRoot" : "0x3d23b0c8a981117094824a65a46fe428eb052535ef435e6cc4f951346ce780af",
            "timestamp" : "0x03b6",
            "transactionsTrie" : "0x56e81f171bcc55a6ff8345e692c0f86e5b48e01b996cadc001622fb5e363b421",
            "uncleHash" : "0x1dcc4de8dec75d7aab85b567b6ccd41ad312451b948a7413f0a142fd40d49347"
        },
        "genesisRLP" : "0xf901faf901f5a00000000000000000000000000000000000000000000000000000000000000000a01dcc4de8dec75d7aab85b567b6ccd41ad312451b948a7413f0a142fd40d49347942adc25665018aa1fe0e6bc666dac8fc2697ff9baa03d23b0c8a981117094824a65a46fe428eb052535ef435e6cc4f951346ce780afa056e81f171bcc55a6ff8345e692c0f86e5b48e01b996cadc001622fb5e363b421a056e81f171bcc55a6ff8345e692c0f86e5b48e01b996cadc001622fb5e363b421b9010000000000000000000000000000000000000000000000000000000000000000000000000000000000000000000000000000000000000000000000000000000000000000000000000000000000000000000000000000000000000000000000000000000000000000000000000000000000000000000000000000000000000000000000000000000000000000000000000000000000000000000000000000000000000000000000000000000000000000000000000000000000000000000000000000000000000000000000000000000000000000000000000000000000000000000000000000000000000000000000000000000000000000000000000000000000830200008083989680808203b642a056e81f171bcc55a6ff8345e692c0f86e5b48e01b996cadc001622fb5e363b421880102030405060708c0c0",
        "lastblockhash" : "0x92f51bdf9047c427a8c734b4ee9027d53b9459f2e0d588d5c60eed4380b50ac8",
        "network" : "EIP150",
        "postState" : {
            "0x095e7baea6a6c7c4c2dfeb977efac326af552d87" : {
                "balance" : "0x01312d00",
                "code" : "0x60016000540160005260006000600060003060e05a03fa",
                "nonce" : "0x00",
                "storage" : {
                }
            },
            "0x195e7baea6a6c7c4c2dfeb977efac326af552d87" : {
                "balance" : "0x0132b3a0",
                "code" : "0x6000600060006000600073095e7baea6a6c7c4c2dfeb977efac326af552d87620186a05a03f26000555a600155",
                "nonce" : "0x00",
                "storage" : {
                    "0x01" : "0x017054"
                }
            },
            "0x2adc25665018aa1fe0e6bc666dac8fc2697ff9ba" : {
                "balance" : "0x456391824502200f",
                "code" : "",
                "nonce" : "0x00",
                "storage" : {
                }
            },
            "0xa94f5374fce5edbc8e2a8697c15331677e6ebf0b" : {
                "balance" : "0x0de0b6b3a7545951",
                "code" : "",
                "nonce" : "0x01",
                "storage" : {
                }
            }
        },
        "pre" : {
            "0x095e7baea6a6c7c4c2dfeb977efac326af552d87" : {
                "balance" : "0x01312d00",
                "code" : "0x60016000540160005260006000600060003060e05a03fa",
                "nonce" : "0x00",
                "storage" : {
                }
            },
            "0x195e7baea6a6c7c4c2dfeb977efac326af552d87" : {
                "balance" : "0x01312d00",
                "code" : "0x6000600060006000600073095e7baea6a6c7c4c2dfeb977efac326af552d87620186a05a03f26000555a600155",
                "nonce" : "0x00",
                "storage" : {
                }
            },
            "0xa94f5374fce5edbc8e2a8697c15331677e6ebf0b" : {
                "balance" : "0x0de0b6b3a7640000",
                "code" : "",
                "nonce" : "0x00",
                "storage" : {
                }
            }
        }
    },
    "static_CallRecursiveBomb3_d0g0v0_EIP158" : {
        "_info" : {
            "comment" : "",
            "filledwith" : "cpp-1.3.0+commit.6e0ce939.Linux.g++",
            "lllcversion" : "Version: 0.4.18-develop.2017.9.25+commit.a72237f2.Linux.g++",
            "source" : "src/BlockchainTestsFiller/GeneralStateTests/stStaticCall/static_CallRecursiveBomb3_d0g0v0Filler.json",
            "sourceHash" : "d309a6c02e04fc214edbd2ed69a967bcc7489587e2f25e5fc4bf404bd5cceff2"
        },
        "blocks" : [
            {
                "blockHeader" : {
                    "bloom" : "0x00000000000000000000000000000000000000000000000000000000000000000000000000000000000000000000000000000000000000000000000000000000000000000000000000000000000000000000000000000000000000000000000000000000000000000000000000000000000000000000000000000000000000000000000000000000000000000000000000000000000000000000000000000000000000000000000000000000000000000000000000000000000000000000000000000000000000000000000000000000000000000000000000000000000000000000000000000000000000000000000000000000000000000000000000000000",
                    "coinbase" : "0x2adc25665018aa1fe0e6bc666dac8fc2697ff9ba",
                    "difficulty" : "0x020000",
                    "extraData" : "",
                    "gasLimit" : "0x989680",
                    "gasUsed" : "0x0e200f",
                    "hash" : "0xdb1e76570a7378d52e2d5c8c544fe888778aaa30ed943a3cbbda29510dc0ed9b",
                    "mixHash" : "0x6c28a320337385ecf034b752cf56be718eb29c16f4944fd4dd13a3f5a405f552",
                    "nonce" : "0xd42895c7478c2191",
                    "number" : "0x01",
                    "parentHash" : "0x307c336b404da318528971cbfb5acf67c5cf85f15d614bf9fc9b9b2823403054",
                    "receiptTrie" : "0xb63a2931f3521596ef4e755ada08e6ff8e952f1989933f967c1e5c24ae789b98",
                    "stateRoot" : "0x0c7646c7a01f7d32c6e32a65a1f7ef3adb31641186ba3c38168cf6e9a66e55e4",
                    "timestamp" : "0x03e8",
                    "transactionsTrie" : "0xada1cce94dc37a788386e0b9d92caf0a21ef007d33dee17e15a9f18fd0f6c8b1",
                    "uncleHash" : "0x1dcc4de8dec75d7aab85b567b6ccd41ad312451b948a7413f0a142fd40d49347"
                },
                "rlp" : "0xf90263f901f8a0307c336b404da318528971cbfb5acf67c5cf85f15d614bf9fc9b9b2823403054a01dcc4de8dec75d7aab85b567b6ccd41ad312451b948a7413f0a142fd40d49347942adc25665018aa1fe0e6bc666dac8fc2697ff9baa00c7646c7a01f7d32c6e32a65a1f7ef3adb31641186ba3c38168cf6e9a66e55e4a0ada1cce94dc37a788386e0b9d92caf0a21ef007d33dee17e15a9f18fd0f6c8b1a0b63a2931f3521596ef4e755ada08e6ff8e952f1989933f967c1e5c24ae789b98b9010000000000000000000000000000000000000000000000000000000000000000000000000000000000000000000000000000000000000000000000000000000000000000000000000000000000000000000000000000000000000000000000000000000000000000000000000000000000000000000000000000000000000000000000000000000000000000000000000000000000000000000000000000000000000000000000000000000000000000000000000000000000000000000000000000000000000000000000000000000000000000000000000000000000000000000000000000000000000000000000000000000000000000000000000000000000830200000183989680830e200f8203e880a06c28a320337385ecf034b752cf56be718eb29c16f4944fd4dd13a3f5a405f55288d42895c7478c2191f865f8638001830f424094195e7baea6a6c7c4c2dfeb977efac326af552d87830186a0801ca0658fb55ad84ad40e8fa0bf7fccc03ed7e730ccf139bcccdc216e92ee85cafd1da036c06b21cb81c39ccd211b28b6bd6c5e8c6b6bc2ff16b47c47272c8d506392bec0",
                "transactions" : [
                    {
                        "data" : "",
                        "gasLimit" : "0x0f4240",
                        "gasPrice" : "0x01",
                        "nonce" : "0x00",
                        "r" : "0x658fb55ad84ad40e8fa0bf7fccc03ed7e730ccf139bcccdc216e92ee85cafd1d",
                        "s" : "0x36c06b21cb81c39ccd211b28b6bd6c5e8c6b6bc2ff16b47c47272c8d506392be",
                        "to" : "0x195e7baea6a6c7c4c2dfeb977efac326af552d87",
                        "v" : "0x1c",
                        "value" : "0x0186a0"
                    }
                ],
                "uncleHeaders" : [
                ]
            }
        ],
        "genesisBlockHeader" : {
            "bloom" : "0x00000000000000000000000000000000000000000000000000000000000000000000000000000000000000000000000000000000000000000000000000000000000000000000000000000000000000000000000000000000000000000000000000000000000000000000000000000000000000000000000000000000000000000000000000000000000000000000000000000000000000000000000000000000000000000000000000000000000000000000000000000000000000000000000000000000000000000000000000000000000000000000000000000000000000000000000000000000000000000000000000000000000000000000000000000000",
            "coinbase" : "0x2adc25665018aa1fe0e6bc666dac8fc2697ff9ba",
            "difficulty" : "0x020000",
            "extraData" : "0x42",
            "gasLimit" : "0x989680",
            "gasUsed" : "0x00",
            "hash" : "0x307c336b404da318528971cbfb5acf67c5cf85f15d614bf9fc9b9b2823403054",
            "mixHash" : "0x56e81f171bcc55a6ff8345e692c0f86e5b48e01b996cadc001622fb5e363b421",
            "nonce" : "0x0102030405060708",
            "number" : "0x00",
            "parentHash" : "0x0000000000000000000000000000000000000000000000000000000000000000",
            "receiptTrie" : "0x56e81f171bcc55a6ff8345e692c0f86e5b48e01b996cadc001622fb5e363b421",
            "stateRoot" : "0x3d23b0c8a981117094824a65a46fe428eb052535ef435e6cc4f951346ce780af",
            "timestamp" : "0x03b6",
            "transactionsTrie" : "0x56e81f171bcc55a6ff8345e692c0f86e5b48e01b996cadc001622fb5e363b421",
            "uncleHash" : "0x1dcc4de8dec75d7aab85b567b6ccd41ad312451b948a7413f0a142fd40d49347"
        },
        "genesisRLP" : "0xf901faf901f5a00000000000000000000000000000000000000000000000000000000000000000a01dcc4de8dec75d7aab85b567b6ccd41ad312451b948a7413f0a142fd40d49347942adc25665018aa1fe0e6bc666dac8fc2697ff9baa03d23b0c8a981117094824a65a46fe428eb052535ef435e6cc4f951346ce780afa056e81f171bcc55a6ff8345e692c0f86e5b48e01b996cadc001622fb5e363b421a056e81f171bcc55a6ff8345e692c0f86e5b48e01b996cadc001622fb5e363b421b9010000000000000000000000000000000000000000000000000000000000000000000000000000000000000000000000000000000000000000000000000000000000000000000000000000000000000000000000000000000000000000000000000000000000000000000000000000000000000000000000000000000000000000000000000000000000000000000000000000000000000000000000000000000000000000000000000000000000000000000000000000000000000000000000000000000000000000000000000000000000000000000000000000000000000000000000000000000000000000000000000000000000000000000000000000000000830200008083989680808203b642a056e81f171bcc55a6ff8345e692c0f86e5b48e01b996cadc001622fb5e363b421880102030405060708c0c0",
        "lastblockhash" : "0xdb1e76570a7378d52e2d5c8c544fe888778aaa30ed943a3cbbda29510dc0ed9b",
        "network" : "EIP158",
        "postState" : {
            "0x095e7baea6a6c7c4c2dfeb977efac326af552d87" : {
                "balance" : "0x01312d00",
                "code" : "0x60016000540160005260006000600060003060e05a03fa",
                "nonce" : "0x00",
                "storage" : {
                }
            },
            "0x195e7baea6a6c7c4c2dfeb977efac326af552d87" : {
                "balance" : "0x0132b3a0",
                "code" : "0x6000600060006000600073095e7baea6a6c7c4c2dfeb977efac326af552d87620186a05a03f26000555a600155",
                "nonce" : "0x00",
                "storage" : {
                    "0x01" : "0x017054"
                }
            },
            "0x2adc25665018aa1fe0e6bc666dac8fc2697ff9ba" : {
                "balance" : "0x456391824502200f",
                "code" : "",
                "nonce" : "0x00",
                "storage" : {
                }
            },
            "0xa94f5374fce5edbc8e2a8697c15331677e6ebf0b" : {
                "balance" : "0x0de0b6b3a7545951",
                "code" : "",
                "nonce" : "0x01",
                "storage" : {
                }
            }
        },
        "pre" : {
            "0x095e7baea6a6c7c4c2dfeb977efac326af552d87" : {
                "balance" : "0x01312d00",
                "code" : "0x60016000540160005260006000600060003060e05a03fa",
                "nonce" : "0x00",
                "storage" : {
                }
            },
            "0x195e7baea6a6c7c4c2dfeb977efac326af552d87" : {
                "balance" : "0x01312d00",
                "code" : "0x6000600060006000600073095e7baea6a6c7c4c2dfeb977efac326af552d87620186a05a03f26000555a600155",
                "nonce" : "0x00",
                "storage" : {
                }
            },
            "0xa94f5374fce5edbc8e2a8697c15331677e6ebf0b" : {
                "balance" : "0x0de0b6b3a7640000",
                "code" : "",
                "nonce" : "0x00",
                "storage" : {
                }
            }
        }
    },
    "static_CallRecursiveBomb3_d0g0v0_Frontier" : {
        "_info" : {
            "comment" : "",
            "filledwith" : "cpp-1.3.0+commit.6e0ce939.Linux.g++",
            "lllcversion" : "Version: 0.4.18-develop.2017.9.25+commit.a72237f2.Linux.g++",
            "source" : "src/BlockchainTestsFiller/GeneralStateTests/stStaticCall/static_CallRecursiveBomb3_d0g0v0Filler.json",
            "sourceHash" : "d309a6c02e04fc214edbd2ed69a967bcc7489587e2f25e5fc4bf404bd5cceff2"
        },
        "blocks" : [
            {
                "blockHeader" : {
                    "bloom" : "0x00000000000000000000000000000000000000000000000000000000000000000000000000000000000000000000000000000000000000000000000000000000000000000000000000000000000000000000000000000000000000000000000000000000000000000000000000000000000000000000000000000000000000000000000000000000000000000000000000000000000000000000000000000000000000000000000000000000000000000000000000000000000000000000000000000000000000000000000000000000000000000000000000000000000000000000000000000000000000000000000000000000000000000000000000000000",
                    "coinbase" : "0x2adc25665018aa1fe0e6bc666dac8fc2697ff9ba",
                    "difficulty" : "0x020000",
                    "extraData" : "",
                    "gasLimit" : "0x989680",
                    "gasUsed" : "0x0e1d7b",
                    "hash" : "0xb0120f23d655b7b31a3291e4c34537edd9fb839ebd28c36d48dd7ebf5e57c17a",
                    "mixHash" : "0x18e677918c7e003a10ced7c1ec4da2eb6e02beea204843b8dafa0acc07ca8b02",
                    "nonce" : "0x59e03de7486f13cf",
                    "number" : "0x01",
                    "parentHash" : "0x307c336b404da318528971cbfb5acf67c5cf85f15d614bf9fc9b9b2823403054",
                    "receiptTrie" : "0x231887ae2f6c6a3d1e5eb53173294fd72d6dc8ab4c40300ee6b76eee468455c3",
                    "stateRoot" : "0x658f9dc040ba811687f0a74f863d2eaf0009de1ef34e999d190eac90debcc4df",
                    "timestamp" : "0x03e8",
                    "transactionsTrie" : "0xada1cce94dc37a788386e0b9d92caf0a21ef007d33dee17e15a9f18fd0f6c8b1",
                    "uncleHash" : "0x1dcc4de8dec75d7aab85b567b6ccd41ad312451b948a7413f0a142fd40d49347"
                },
                "rlp" : "0xf90263f901f8a0307c336b404da318528971cbfb5acf67c5cf85f15d614bf9fc9b9b2823403054a01dcc4de8dec75d7aab85b567b6ccd41ad312451b948a7413f0a142fd40d49347942adc25665018aa1fe0e6bc666dac8fc2697ff9baa0658f9dc040ba811687f0a74f863d2eaf0009de1ef34e999d190eac90debcc4dfa0ada1cce94dc37a788386e0b9d92caf0a21ef007d33dee17e15a9f18fd0f6c8b1a0231887ae2f6c6a3d1e5eb53173294fd72d6dc8ab4c40300ee6b76eee468455c3b9010000000000000000000000000000000000000000000000000000000000000000000000000000000000000000000000000000000000000000000000000000000000000000000000000000000000000000000000000000000000000000000000000000000000000000000000000000000000000000000000000000000000000000000000000000000000000000000000000000000000000000000000000000000000000000000000000000000000000000000000000000000000000000000000000000000000000000000000000000000000000000000000000000000000000000000000000000000000000000000000000000000000000000000000000000000000830200000183989680830e1d7b8203e880a018e677918c7e003a10ced7c1ec4da2eb6e02beea204843b8dafa0acc07ca8b028859e03de7486f13cff865f8638001830f424094195e7baea6a6c7c4c2dfeb977efac326af552d87830186a0801ca0658fb55ad84ad40e8fa0bf7fccc03ed7e730ccf139bcccdc216e92ee85cafd1da036c06b21cb81c39ccd211b28b6bd6c5e8c6b6bc2ff16b47c47272c8d506392bec0",
                "transactions" : [
                    {
                        "data" : "",
                        "gasLimit" : "0x0f4240",
                        "gasPrice" : "0x01",
                        "nonce" : "0x00",
                        "r" : "0x658fb55ad84ad40e8fa0bf7fccc03ed7e730ccf139bcccdc216e92ee85cafd1d",
                        "s" : "0x36c06b21cb81c39ccd211b28b6bd6c5e8c6b6bc2ff16b47c47272c8d506392be",
                        "to" : "0x195e7baea6a6c7c4c2dfeb977efac326af552d87",
                        "v" : "0x1c",
                        "value" : "0x0186a0"
                    }
                ],
                "uncleHeaders" : [
                ]
            }
        ],
        "genesisBlockHeader" : {
            "bloom" : "0x00000000000000000000000000000000000000000000000000000000000000000000000000000000000000000000000000000000000000000000000000000000000000000000000000000000000000000000000000000000000000000000000000000000000000000000000000000000000000000000000000000000000000000000000000000000000000000000000000000000000000000000000000000000000000000000000000000000000000000000000000000000000000000000000000000000000000000000000000000000000000000000000000000000000000000000000000000000000000000000000000000000000000000000000000000000",
            "coinbase" : "0x2adc25665018aa1fe0e6bc666dac8fc2697ff9ba",
            "difficulty" : "0x020000",
            "extraData" : "0x42",
            "gasLimit" : "0x989680",
            "gasUsed" : "0x00",
            "hash" : "0x307c336b404da318528971cbfb5acf67c5cf85f15d614bf9fc9b9b2823403054",
            "mixHash" : "0x56e81f171bcc55a6ff8345e692c0f86e5b48e01b996cadc001622fb5e363b421",
            "nonce" : "0x0102030405060708",
            "number" : "0x00",
            "parentHash" : "0x0000000000000000000000000000000000000000000000000000000000000000",
            "receiptTrie" : "0x56e81f171bcc55a6ff8345e692c0f86e5b48e01b996cadc001622fb5e363b421",
            "stateRoot" : "0x3d23b0c8a981117094824a65a46fe428eb052535ef435e6cc4f951346ce780af",
            "timestamp" : "0x03b6",
            "transactionsTrie" : "0x56e81f171bcc55a6ff8345e692c0f86e5b48e01b996cadc001622fb5e363b421",
            "uncleHash" : "0x1dcc4de8dec75d7aab85b567b6ccd41ad312451b948a7413f0a142fd40d49347"
        },
        "genesisRLP" : "0xf901faf901f5a00000000000000000000000000000000000000000000000000000000000000000a01dcc4de8dec75d7aab85b567b6ccd41ad312451b948a7413f0a142fd40d49347942adc25665018aa1fe0e6bc666dac8fc2697ff9baa03d23b0c8a981117094824a65a46fe428eb052535ef435e6cc4f951346ce780afa056e81f171bcc55a6ff8345e692c0f86e5b48e01b996cadc001622fb5e363b421a056e81f171bcc55a6ff8345e692c0f86e5b48e01b996cadc001622fb5e363b421b9010000000000000000000000000000000000000000000000000000000000000000000000000000000000000000000000000000000000000000000000000000000000000000000000000000000000000000000000000000000000000000000000000000000000000000000000000000000000000000000000000000000000000000000000000000000000000000000000000000000000000000000000000000000000000000000000000000000000000000000000000000000000000000000000000000000000000000000000000000000000000000000000000000000000000000000000000000000000000000000000000000000000000000000000000000000000830200008083989680808203b642a056e81f171bcc55a6ff8345e692c0f86e5b48e01b996cadc001622fb5e363b421880102030405060708c0c0",
        "lastblockhash" : "0xb0120f23d655b7b31a3291e4c34537edd9fb839ebd28c36d48dd7ebf5e57c17a",
        "network" : "Frontier",
        "postState" : {
            "0x095e7baea6a6c7c4c2dfeb977efac326af552d87" : {
                "balance" : "0x01312d00",
                "code" : "0x60016000540160005260006000600060003060e05a03fa",
                "nonce" : "0x00",
                "storage" : {
                }
            },
            "0x195e7baea6a6c7c4c2dfeb977efac326af552d87" : {
                "balance" : "0x0132b3a0",
                "code" : "0x6000600060006000600073095e7baea6a6c7c4c2dfeb977efac326af552d87620186a05a03f26000555a600155",
                "nonce" : "0x00",
                "storage" : {
                    "0x01" : "0x0172e8"
                }
            },
            "0x2adc25665018aa1fe0e6bc666dac8fc2697ff9ba" : {
                "balance" : "0x4563918245021d7b",
                "code" : "",
                "nonce" : "0x00",
                "storage" : {
                }
            },
            "0xa94f5374fce5edbc8e2a8697c15331677e6ebf0b" : {
                "balance" : "0x0de0b6b3a7545be5",
                "code" : "",
                "nonce" : "0x01",
                "storage" : {
                }
            }
        },
        "pre" : {
            "0x095e7baea6a6c7c4c2dfeb977efac326af552d87" : {
                "balance" : "0x01312d00",
                "code" : "0x60016000540160005260006000600060003060e05a03fa",
                "nonce" : "0x00",
                "storage" : {
                }
            },
            "0x195e7baea6a6c7c4c2dfeb977efac326af552d87" : {
                "balance" : "0x01312d00",
                "code" : "0x6000600060006000600073095e7baea6a6c7c4c2dfeb977efac326af552d87620186a05a03f26000555a600155",
                "nonce" : "0x00",
                "storage" : {
                }
            },
            "0xa94f5374fce5edbc8e2a8697c15331677e6ebf0b" : {
                "balance" : "0x0de0b6b3a7640000",
                "code" : "",
                "nonce" : "0x00",
                "storage" : {
                }
            }
        }
    },
    "static_CallRecursiveBomb3_d0g0v0_Homestead" : {
        "_info" : {
            "comment" : "",
            "filledwith" : "cpp-1.3.0+commit.6e0ce939.Linux.g++",
            "lllcversion" : "Version: 0.4.18-develop.2017.9.25+commit.a72237f2.Linux.g++",
            "source" : "src/BlockchainTestsFiller/GeneralStateTests/stStaticCall/static_CallRecursiveBomb3_d0g0v0Filler.json",
            "sourceHash" : "d309a6c02e04fc214edbd2ed69a967bcc7489587e2f25e5fc4bf404bd5cceff2"
        },
        "blocks" : [
            {
                "blockHeader" : {
                    "bloom" : "0x00000000000000000000000000000000000000000000000000000000000000000000000000000000000000000000000000000000000000000000000000000000000000000000000000000000000000000000000000000000000000000000000000000000000000000000000000000000000000000000000000000000000000000000000000000000000000000000000000000000000000000000000000000000000000000000000000000000000000000000000000000000000000000000000000000000000000000000000000000000000000000000000000000000000000000000000000000000000000000000000000000000000000000000000000000000",
                    "coinbase" : "0x2adc25665018aa1fe0e6bc666dac8fc2697ff9ba",
                    "difficulty" : "0x020000",
                    "extraData" : "",
                    "gasLimit" : "0x989680",
                    "gasUsed" : "0x0e1d7b",
                    "hash" : "0x8ff7364deddc80ca89e3d8fdb50f5ad44a6436831fbc9dd719c1fd9fead3120f",
                    "mixHash" : "0xde14c999370003e721a8066e21e92f387aae472481a92fd5d587fe2b4fa720b7",
                    "nonce" : "0xa5bccd25336df4f9",
                    "number" : "0x01",
                    "parentHash" : "0x307c336b404da318528971cbfb5acf67c5cf85f15d614bf9fc9b9b2823403054",
                    "receiptTrie" : "0x231887ae2f6c6a3d1e5eb53173294fd72d6dc8ab4c40300ee6b76eee468455c3",
                    "stateRoot" : "0x658f9dc040ba811687f0a74f863d2eaf0009de1ef34e999d190eac90debcc4df",
                    "timestamp" : "0x03e8",
                    "transactionsTrie" : "0xada1cce94dc37a788386e0b9d92caf0a21ef007d33dee17e15a9f18fd0f6c8b1",
                    "uncleHash" : "0x1dcc4de8dec75d7aab85b567b6ccd41ad312451b948a7413f0a142fd40d49347"
                },
                "rlp" : "0xf90263f901f8a0307c336b404da318528971cbfb5acf67c5cf85f15d614bf9fc9b9b2823403054a01dcc4de8dec75d7aab85b567b6ccd41ad312451b948a7413f0a142fd40d49347942adc25665018aa1fe0e6bc666dac8fc2697ff9baa0658f9dc040ba811687f0a74f863d2eaf0009de1ef34e999d190eac90debcc4dfa0ada1cce94dc37a788386e0b9d92caf0a21ef007d33dee17e15a9f18fd0f6c8b1a0231887ae2f6c6a3d1e5eb53173294fd72d6dc8ab4c40300ee6b76eee468455c3b9010000000000000000000000000000000000000000000000000000000000000000000000000000000000000000000000000000000000000000000000000000000000000000000000000000000000000000000000000000000000000000000000000000000000000000000000000000000000000000000000000000000000000000000000000000000000000000000000000000000000000000000000000000000000000000000000000000000000000000000000000000000000000000000000000000000000000000000000000000000000000000000000000000000000000000000000000000000000000000000000000000000000000000000000000000000000830200000183989680830e1d7b8203e880a0de14c999370003e721a8066e21e92f387aae472481a92fd5d587fe2b4fa720b788a5bccd25336df4f9f865f8638001830f424094195e7baea6a6c7c4c2dfeb977efac326af552d87830186a0801ca0658fb55ad84ad40e8fa0bf7fccc03ed7e730ccf139bcccdc216e92ee85cafd1da036c06b21cb81c39ccd211b28b6bd6c5e8c6b6bc2ff16b47c47272c8d506392bec0",
                "transactions" : [
                    {
                        "data" : "",
                        "gasLimit" : "0x0f4240",
                        "gasPrice" : "0x01",
                        "nonce" : "0x00",
                        "r" : "0x658fb55ad84ad40e8fa0bf7fccc03ed7e730ccf139bcccdc216e92ee85cafd1d",
                        "s" : "0x36c06b21cb81c39ccd211b28b6bd6c5e8c6b6bc2ff16b47c47272c8d506392be",
                        "to" : "0x195e7baea6a6c7c4c2dfeb977efac326af552d87",
                        "v" : "0x1c",
                        "value" : "0x0186a0"
                    }
                ],
                "uncleHeaders" : [
                ]
            }
        ],
        "genesisBlockHeader" : {
            "bloom" : "0x00000000000000000000000000000000000000000000000000000000000000000000000000000000000000000000000000000000000000000000000000000000000000000000000000000000000000000000000000000000000000000000000000000000000000000000000000000000000000000000000000000000000000000000000000000000000000000000000000000000000000000000000000000000000000000000000000000000000000000000000000000000000000000000000000000000000000000000000000000000000000000000000000000000000000000000000000000000000000000000000000000000000000000000000000000000",
            "coinbase" : "0x2adc25665018aa1fe0e6bc666dac8fc2697ff9ba",
            "difficulty" : "0x020000",
            "extraData" : "0x42",
            "gasLimit" : "0x989680",
            "gasUsed" : "0x00",
            "hash" : "0x307c336b404da318528971cbfb5acf67c5cf85f15d614bf9fc9b9b2823403054",
            "mixHash" : "0x56e81f171bcc55a6ff8345e692c0f86e5b48e01b996cadc001622fb5e363b421",
            "nonce" : "0x0102030405060708",
            "number" : "0x00",
            "parentHash" : "0x0000000000000000000000000000000000000000000000000000000000000000",
            "receiptTrie" : "0x56e81f171bcc55a6ff8345e692c0f86e5b48e01b996cadc001622fb5e363b421",
            "stateRoot" : "0x3d23b0c8a981117094824a65a46fe428eb052535ef435e6cc4f951346ce780af",
            "timestamp" : "0x03b6",
            "transactionsTrie" : "0x56e81f171bcc55a6ff8345e692c0f86e5b48e01b996cadc001622fb5e363b421",
            "uncleHash" : "0x1dcc4de8dec75d7aab85b567b6ccd41ad312451b948a7413f0a142fd40d49347"
        },
        "genesisRLP" : "0xf901faf901f5a00000000000000000000000000000000000000000000000000000000000000000a01dcc4de8dec75d7aab85b567b6ccd41ad312451b948a7413f0a142fd40d49347942adc25665018aa1fe0e6bc666dac8fc2697ff9baa03d23b0c8a981117094824a65a46fe428eb052535ef435e6cc4f951346ce780afa056e81f171bcc55a6ff8345e692c0f86e5b48e01b996cadc001622fb5e363b421a056e81f171bcc55a6ff8345e692c0f86e5b48e01b996cadc001622fb5e363b421b9010000000000000000000000000000000000000000000000000000000000000000000000000000000000000000000000000000000000000000000000000000000000000000000000000000000000000000000000000000000000000000000000000000000000000000000000000000000000000000000000000000000000000000000000000000000000000000000000000000000000000000000000000000000000000000000000000000000000000000000000000000000000000000000000000000000000000000000000000000000000000000000000000000000000000000000000000000000000000000000000000000000000000000000000000000000000830200008083989680808203b642a056e81f171bcc55a6ff8345e692c0f86e5b48e01b996cadc001622fb5e363b421880102030405060708c0c0",
        "lastblockhash" : "0x8ff7364deddc80ca89e3d8fdb50f5ad44a6436831fbc9dd719c1fd9fead3120f",
        "network" : "Homestead",
        "postState" : {
            "0x095e7baea6a6c7c4c2dfeb977efac326af552d87" : {
                "balance" : "0x01312d00",
                "code" : "0x60016000540160005260006000600060003060e05a03fa",
                "nonce" : "0x00",
                "storage" : {
                }
            },
            "0x195e7baea6a6c7c4c2dfeb977efac326af552d87" : {
                "balance" : "0x0132b3a0",
                "code" : "0x6000600060006000600073095e7baea6a6c7c4c2dfeb977efac326af552d87620186a05a03f26000555a600155",
                "nonce" : "0x00",
                "storage" : {
                    "0x01" : "0x0172e8"
                }
            },
            "0x2adc25665018aa1fe0e6bc666dac8fc2697ff9ba" : {
                "balance" : "0x4563918245021d7b",
                "code" : "",
                "nonce" : "0x00",
                "storage" : {
                }
            },
            "0xa94f5374fce5edbc8e2a8697c15331677e6ebf0b" : {
                "balance" : "0x0de0b6b3a7545be5",
                "code" : "",
                "nonce" : "0x01",
                "storage" : {
                }
            }
        },
        "pre" : {
            "0x095e7baea6a6c7c4c2dfeb977efac326af552d87" : {
                "balance" : "0x01312d00",
                "code" : "0x60016000540160005260006000600060003060e05a03fa",
                "nonce" : "0x00",
                "storage" : {
                }
            },
            "0x195e7baea6a6c7c4c2dfeb977efac326af552d87" : {
                "balance" : "0x01312d00",
                "code" : "0x6000600060006000600073095e7baea6a6c7c4c2dfeb977efac326af552d87620186a05a03f26000555a600155",
                "nonce" : "0x00",
                "storage" : {
                }
            },
            "0xa94f5374fce5edbc8e2a8697c15331677e6ebf0b" : {
                "balance" : "0x0de0b6b3a7640000",
                "code" : "",
                "nonce" : "0x00",
                "storage" : {
                }
            }
        }
    }
}