{
    "static_call_value_inherit_from_call_d0g0v0_Byzantium" : {
        "_info" : {
            "comment" : "",
            "filledwith" : "cpp-1.3.0+commit.6e0ce939.Linux.g++",
            "lllcversion" : "Version: 0.4.18-develop.2017.9.25+commit.a72237f2.Linux.g++",
            "source" : "src/BlockchainTestsFiller/GeneralStateTests/stStaticCall/static_call_value_inherit_from_call_d0g0v0Filler.json",
            "sourceHash" : "a2735d4902071b710470d22a312f91407db140fcdc3014f2fbfbfeb699a54c4b"
        },
        "blocks" : [
            {
                "blockHeader" : {
                    "bloom" : "0x00000000000000000000000000000000000000000000000000000000000000000000000000000000000000000000000000000000000000000000000000000000000000000000000000000000000000000000000000000000000000000000000000000000000000000000000000000000000000000000000000000000000000000000000000000000000000000000000000000000000000000000000000000000000000000000000000000000000000000000000000000000000000000000000000000000000000000000000000000000000000000000000000000000000000000000000000000000000000000000000000000000000000000000000000000000",
                    "coinbase" : "0x2adc25665018aa1fe0e6bc666dac8fc2697ff9ba",
                    "difficulty" : "0x020000",
                    "extraData" : "",
                    "gasLimit" : "0x989680",
                    "gasUsed" : "0x9903",
                    "hash" : "0x9a59e3cbda5a615cd18249ad52f34c5b7382a36880e50f267b92a47fb3d24b0d",
                    "mixHash" : "0x8a6c68cbf507fab721e25831652411066f83899bd611c05603d476ff59a61ac0",
                    "nonce" : "0xb984e1f7d917b4bc",
                    "number" : "0x01",
                    "parentHash" : "0x379f33f89971fe2d796595abca99d46fc06e255a281cacce24d40914c6a42cae",
                    "receiptTrie" : "0x2b5427a096c1734d9690daf5d6a4361f7c3e2d35ad2ca06073e3be97c02c3805",
                    "stateRoot" : "0x5c581b0d7018f376fb8758f94a23aa0478ca5c0417e0d1fa5a1d4dabfdcf8a92",
                    "timestamp" : "0x03e8",
                    "transactionsTrie" : "0x8fe059ef328bf3f09587650be1470385492fa33eb385f9a9701e0e3e0da01982",
                    "uncleHash" : "0x1dcc4de8dec75d7aab85b567b6ccd41ad312451b948a7413f0a142fd40d49347"
                },
                "rlp" : "0xf9025ff901f7a0379f33f89971fe2d796595abca99d46fc06e255a281cacce24d40914c6a42caea01dcc4de8dec75d7aab85b567b6ccd41ad312451b948a7413f0a142fd40d49347942adc25665018aa1fe0e6bc666dac8fc2697ff9baa05c581b0d7018f376fb8758f94a23aa0478ca5c0417e0d1fa5a1d4dabfdcf8a92a08fe059ef328bf3f09587650be1470385492fa33eb385f9a9701e0e3e0da01982a02b5427a096c1734d9690daf5d6a4361f7c3e2d35ad2ca06073e3be97c02c3805b90100000000000000000000000000000000000000000000000000000000000000000000000000000000000000000000000000000000000000000000000000000000000000000000000000000000000000000000000000000000000000000000000000000000000000000000000000000000000000000000000000000000000000000000000000000000000000000000000000000000000000000000000000000000000000000000000000000000000000000000000000000000000000000000000000000000000000000000000000000000000000000000000000000000000000000000000000000000000000000000000000000000000000000000000000000000008302000001839896808299038203e880a08a6c68cbf507fab721e25831652411066f83899bd611c05603d476ff59a61ac088b984e1f7d917b4bcf862f8608001830704e094c8b90f8d999d9d9988209481999a9889098a89a00a801ca01702a979476708f8d1bbd2e3ce44816cc0e51d3c9f735d7ec4b6aa4cc9b18741a0628529dcd52c4eeb75c8b8ab3bd7d58c8be946339ceb8adf2bd71ccbe63cd6bbc0",
                "transactions" : [
                    {
                        "data" : "",
                        "gasLimit" : "0x0704e0",
                        "gasPrice" : "0x01",
                        "nonce" : "0x00",
                        "r" : "0x1702a979476708f8d1bbd2e3ce44816cc0e51d3c9f735d7ec4b6aa4cc9b18741",
                        "s" : "0x628529dcd52c4eeb75c8b8ab3bd7d58c8be946339ceb8adf2bd71ccbe63cd6bb",
                        "to" : "0xc8b90f8d999d9d9988209481999a9889098a89a0",
                        "v" : "0x1c",
                        "value" : "0x0a"
                    }
                ],
                "uncleHeaders" : [
                ]
            }
        ],
        "genesisBlockHeader" : {
            "bloom" : "0x00000000000000000000000000000000000000000000000000000000000000000000000000000000000000000000000000000000000000000000000000000000000000000000000000000000000000000000000000000000000000000000000000000000000000000000000000000000000000000000000000000000000000000000000000000000000000000000000000000000000000000000000000000000000000000000000000000000000000000000000000000000000000000000000000000000000000000000000000000000000000000000000000000000000000000000000000000000000000000000000000000000000000000000000000000000",
            "coinbase" : "0x2adc25665018aa1fe0e6bc666dac8fc2697ff9ba",
            "difficulty" : "0x020000",
            "extraData" : "0x42",
            "gasLimit" : "0x989680",
            "gasUsed" : "0x00",
            "hash" : "0x379f33f89971fe2d796595abca99d46fc06e255a281cacce24d40914c6a42cae",
            "mixHash" : "0x56e81f171bcc55a6ff8345e692c0f86e5b48e01b996cadc001622fb5e363b421",
            "nonce" : "0x0102030405060708",
            "number" : "0x00",
            "parentHash" : "0x0000000000000000000000000000000000000000000000000000000000000000",
            "receiptTrie" : "0x56e81f171bcc55a6ff8345e692c0f86e5b48e01b996cadc001622fb5e363b421",
            "stateRoot" : "0x9eb4060e36d74c158f2a1ec43d0ab1c8022abe6b95e3954124c8c4f1980a1c1b",
            "timestamp" : "0x03b6",
            "transactionsTrie" : "0x56e81f171bcc55a6ff8345e692c0f86e5b48e01b996cadc001622fb5e363b421",
            "uncleHash" : "0x1dcc4de8dec75d7aab85b567b6ccd41ad312451b948a7413f0a142fd40d49347"
        },
        "genesisRLP" : "0xf901faf901f5a00000000000000000000000000000000000000000000000000000000000000000a01dcc4de8dec75d7aab85b567b6ccd41ad312451b948a7413f0a142fd40d49347942adc25665018aa1fe0e6bc666dac8fc2697ff9baa09eb4060e36d74c158f2a1ec43d0ab1c8022abe6b95e3954124c8c4f1980a1c1ba056e81f171bcc55a6ff8345e692c0f86e5b48e01b996cadc001622fb5e363b421a056e81f171bcc55a6ff8345e692c0f86e5b48e01b996cadc001622fb5e363b421b9010000000000000000000000000000000000000000000000000000000000000000000000000000000000000000000000000000000000000000000000000000000000000000000000000000000000000000000000000000000000000000000000000000000000000000000000000000000000000000000000000000000000000000000000000000000000000000000000000000000000000000000000000000000000000000000000000000000000000000000000000000000000000000000000000000000000000000000000000000000000000000000000000000000000000000000000000000000000000000000000000000000000000000000000000000000000830200008083989680808203b642a056e81f171bcc55a6ff8345e692c0f86e5b48e01b996cadc001622fb5e363b421880102030405060708c0c0",
        "lastblockhash" : "0x9a59e3cbda5a615cd18249ad52f34c5b7382a36880e50f267b92a47fb3d24b0d",
        "network" : "Byzantium",
        "postState" : {
            "0x094f5374fce5edbc8e2a8697c15331677e6ebf0b" : {
                "balance" : "0x0b",
                "code" : "0x602060006000600073c94f5374fce5edbc8e2a8697c15331677e6ebf0b61c350fa600055600051600155",
                "nonce" : "0x00",
                "storage" : {
                    "0x00" : "0x01"
                }
            },
            "0x2adc25665018aa1fe0e6bc666dac8fc2697ff9ba" : {
                "balance" : "0x29a2241af62c9903",
                "code" : "",
                "nonce" : "0x00",
                "storage" : {
                }
            },
            "0xa94f5374fce5edbc8e2a8697c15331677e6ebf0b" : {
                "balance" : "0xe8d4a476f3",
                "code" : "",
                "nonce" : "0x01",
                "storage" : {
                }
            },
            "0xc8b90f8d999d9d9988209481999a9889098a89a0" : {
                "balance" : "0x00",
                "code" : "0x6000600060006000600a73094f5374fce5edbc8e2a8697c15331677e6ebf0b620186a0f1",
                "nonce" : "0x00",
                "storage" : {
                }
            },
            "0xc94f5374fce5edbc8e2a8697c15331677e6ebf0b" : {
                "balance" : "0x01",
                "code" : "0x3460005260206000f3",
                "nonce" : "0x00",
                "storage" : {
                }
            }
        },
        "pre" : {
            "0x094f5374fce5edbc8e2a8697c15331677e6ebf0b" : {
                "balance" : "0x01",
                "code" : "0x602060006000600073c94f5374fce5edbc8e2a8697c15331677e6ebf0b61c350fa600055600051600155",
                "nonce" : "0x00",
                "storage" : {
                    "0x01" : "0x01"
                }
            },
            "0xa94f5374fce5edbc8e2a8697c15331677e6ebf0b" : {
                "balance" : "0xe8d4a51000",
                "code" : "",
                "nonce" : "0x00",
                "storage" : {
                }
            },
            "0xc8b90f8d999d9d9988209481999a9889098a89a0" : {
                "balance" : "0x00",
                "code" : "0x6000600060006000600a73094f5374fce5edbc8e2a8697c15331677e6ebf0b620186a0f1",
                "nonce" : "0x00",
                "storage" : {
                }
            },
            "0xc94f5374fce5edbc8e2a8697c15331677e6ebf0b" : {
                "balance" : "0x01",
                "code" : "0x3460005260206000f3",
                "nonce" : "0x00",
                "storage" : {
                }
            }
        }
    },
    "static_call_value_inherit_from_call_d0g0v0_EIP150" : {
        "_info" : {
            "comment" : "",
            "filledwith" : "cpp-1.3.0+commit.6e0ce939.Linux.g++",
            "lllcversion" : "Version: 0.4.18-develop.2017.9.25+commit.a72237f2.Linux.g++",
            "source" : "src/BlockchainTestsFiller/GeneralStateTests/stStaticCall/static_call_value_inherit_from_call_d0g0v0Filler.json",
            "sourceHash" : "a2735d4902071b710470d22a312f91407db140fcdc3014f2fbfbfeb699a54c4b"
        },
        "blocks" : [
            {
                "blockHeader" : {
                    "bloom" : "0x00000000000000000000000000000000000000000000000000000000000000000000000000000000000000000000000000000000000000000000000000000000000000000000000000000000000000000000000000000000000000000000000000000000000000000000000000000000000000000000000000000000000000000000000000000000000000000000000000000000000000000000000000000000000000000000000000000000000000000000000000000000000000000000000000000000000000000000000000000000000000000000000000000000000000000000000000000000000000000000000000000000000000000000000000000000",
                    "coinbase" : "0x2adc25665018aa1fe0e6bc666dac8fc2697ff9ba",
                    "difficulty" : "0x020000",
                    "extraData" : "",
                    "gasLimit" : "0x989680",
                    "gasUsed" : "0x01fea1",
                    "hash" : "0xfb1134eb47322f7fcc6d213ed82ecc8f455ab3a0a93fea02754e2f2f71a4da31",
                    "mixHash" : "0x17c95a68d2d6ce951965d3ddfda5a0237c1eb6857c8ae0328333f876e356a9fc",
                    "nonce" : "0x8e122343d91a0f71",
                    "number" : "0x01",
                    "parentHash" : "0x379f33f89971fe2d796595abca99d46fc06e255a281cacce24d40914c6a42cae",
                    "receiptTrie" : "0xe44a29fd77ebc89406abc487a5c3535a472f7c5831b3cf569b7df9ffb6267173",
                    "stateRoot" : "0xe7a4f8f7133f7f6cbb4c835d5e7618db8cc9cda690f948284aa6f47cc8050d34",
                    "timestamp" : "0x03e8",
                    "transactionsTrie" : "0x8fe059ef328bf3f09587650be1470385492fa33eb385f9a9701e0e3e0da01982",
                    "uncleHash" : "0x1dcc4de8dec75d7aab85b567b6ccd41ad312451b948a7413f0a142fd40d49347"
                },
                "rlp" : "0xf90260f901f8a0379f33f89971fe2d796595abca99d46fc06e255a281cacce24d40914c6a42caea01dcc4de8dec75d7aab85b567b6ccd41ad312451b948a7413f0a142fd40d49347942adc25665018aa1fe0e6bc666dac8fc2697ff9baa0e7a4f8f7133f7f6cbb4c835d5e7618db8cc9cda690f948284aa6f47cc8050d34a08fe059ef328bf3f09587650be1470385492fa33eb385f9a9701e0e3e0da01982a0e44a29fd77ebc89406abc487a5c3535a472f7c5831b3cf569b7df9ffb6267173b90100000000000000000000000000000000000000000000000000000000000000000000000000000000000000000000000000000000000000000000000000000000000000000000000000000000000000000000000000000000000000000000000000000000000000000000000000000000000000000000000000000000000000000000000000000000000000000000000000000000000000000000000000000000000000000000000000000000000000000000000000000000000000000000000000000000000000000000000000000000000000000000000000000000000000000000000000000000000000000000000000000000000000000000000000000000008302000001839896808301fea18203e880a017c95a68d2d6ce951965d3ddfda5a0237c1eb6857c8ae0328333f876e356a9fc888e122343d91a0f71f862f8608001830704e094c8b90f8d999d9d9988209481999a9889098a89a00a801ca01702a979476708f8d1bbd2e3ce44816cc0e51d3c9f735d7ec4b6aa4cc9b18741a0628529dcd52c4eeb75c8b8ab3bd7d58c8be946339ceb8adf2bd71ccbe63cd6bbc0",
                "transactions" : [
                    {
                        "data" : "",
                        "gasLimit" : "0x0704e0",
                        "gasPrice" : "0x01",
                        "nonce" : "0x00",
                        "r" : "0x1702a979476708f8d1bbd2e3ce44816cc0e51d3c9f735d7ec4b6aa4cc9b18741",
                        "s" : "0x628529dcd52c4eeb75c8b8ab3bd7d58c8be946339ceb8adf2bd71ccbe63cd6bb",
                        "to" : "0xc8b90f8d999d9d9988209481999a9889098a89a0",
                        "v" : "0x1c",
                        "value" : "0x0a"
                    }
                ],
                "uncleHeaders" : [
                ]
            }
        ],
        "genesisBlockHeader" : {
            "bloom" : "0x00000000000000000000000000000000000000000000000000000000000000000000000000000000000000000000000000000000000000000000000000000000000000000000000000000000000000000000000000000000000000000000000000000000000000000000000000000000000000000000000000000000000000000000000000000000000000000000000000000000000000000000000000000000000000000000000000000000000000000000000000000000000000000000000000000000000000000000000000000000000000000000000000000000000000000000000000000000000000000000000000000000000000000000000000000000",
            "coinbase" : "0x2adc25665018aa1fe0e6bc666dac8fc2697ff9ba",
            "difficulty" : "0x020000",
            "extraData" : "0x42",
            "gasLimit" : "0x989680",
            "gasUsed" : "0x00",
            "hash" : "0x379f33f89971fe2d796595abca99d46fc06e255a281cacce24d40914c6a42cae",
            "mixHash" : "0x56e81f171bcc55a6ff8345e692c0f86e5b48e01b996cadc001622fb5e363b421",
            "nonce" : "0x0102030405060708",
            "number" : "0x00",
            "parentHash" : "0x0000000000000000000000000000000000000000000000000000000000000000",
            "receiptTrie" : "0x56e81f171bcc55a6ff8345e692c0f86e5b48e01b996cadc001622fb5e363b421",
            "stateRoot" : "0x9eb4060e36d74c158f2a1ec43d0ab1c8022abe6b95e3954124c8c4f1980a1c1b",
            "timestamp" : "0x03b6",
            "transactionsTrie" : "0x56e81f171bcc55a6ff8345e692c0f86e5b48e01b996cadc001622fb5e363b421",
            "uncleHash" : "0x1dcc4de8dec75d7aab85b567b6ccd41ad312451b948a7413f0a142fd40d49347"
        },
        "genesisRLP" : "0xf901faf901f5a00000000000000000000000000000000000000000000000000000000000000000a01dcc4de8dec75d7aab85b567b6ccd41ad312451b948a7413f0a142fd40d49347942adc25665018aa1fe0e6bc666dac8fc2697ff9baa09eb4060e36d74c158f2a1ec43d0ab1c8022abe6b95e3954124c8c4f1980a1c1ba056e81f171bcc55a6ff8345e692c0f86e5b48e01b996cadc001622fb5e363b421a056e81f171bcc55a6ff8345e692c0f86e5b48e01b996cadc001622fb5e363b421b9010000000000000000000000000000000000000000000000000000000000000000000000000000000000000000000000000000000000000000000000000000000000000000000000000000000000000000000000000000000000000000000000000000000000000000000000000000000000000000000000000000000000000000000000000000000000000000000000000000000000000000000000000000000000000000000000000000000000000000000000000000000000000000000000000000000000000000000000000000000000000000000000000000000000000000000000000000000000000000000000000000000000000000000000000000000000830200008083989680808203b642a056e81f171bcc55a6ff8345e692c0f86e5b48e01b996cadc001622fb5e363b421880102030405060708c0c0",
        "lastblockhash" : "0xfb1134eb47322f7fcc6d213ed82ecc8f455ab3a0a93fea02754e2f2f71a4da31",
        "network" : "EIP150",
        "postState" : {
            "0x094f5374fce5edbc8e2a8697c15331677e6ebf0b" : {
                "balance" : "0x01",
                "code" : "0x602060006000600073c94f5374fce5edbc8e2a8697c15331677e6ebf0b61c350fa600055600051600155",
                "nonce" : "0x00",
                "storage" : {
                    "0x01" : "0x01"
                }
            },
            "0x2adc25665018aa1fe0e6bc666dac8fc2697ff9ba" : {
                "balance" : "0x4563918244f5fea1",
                "code" : "",
                "nonce" : "0x00",
                "storage" : {
                }
            },
            "0xa94f5374fce5edbc8e2a8697c15331677e6ebf0b" : {
                "balance" : "0xe8d4a31155",
                "code" : "",
                "nonce" : "0x01",
                "storage" : {
                }
            },
            "0xc8b90f8d999d9d9988209481999a9889098a89a0" : {
                "balance" : "0x0a",
                "code" : "0x6000600060006000600a73094f5374fce5edbc8e2a8697c15331677e6ebf0b620186a0f1",
                "nonce" : "0x00",
                "storage" : {
                }
            },
            "0xc94f5374fce5edbc8e2a8697c15331677e6ebf0b" : {
                "balance" : "0x01",
                "code" : "0x3460005260206000f3",
                "nonce" : "0x00",
                "storage" : {
                }
            }
        },
        "pre" : {
            "0x094f5374fce5edbc8e2a8697c15331677e6ebf0b" : {
                "balance" : "0x01",
                "code" : "0x602060006000600073c94f5374fce5edbc8e2a8697c15331677e6ebf0b61c350fa600055600051600155",
                "nonce" : "0x00",
                "storage" : {
                    "0x01" : "0x01"
                }
            },
            "0xa94f5374fce5edbc8e2a8697c15331677e6ebf0b" : {
                "balance" : "0xe8d4a51000",
                "code" : "",
                "nonce" : "0x00",
                "storage" : {
                }
            },
            "0xc8b90f8d999d9d9988209481999a9889098a89a0" : {
                "balance" : "0x00",
                "code" : "0x6000600060006000600a73094f5374fce5edbc8e2a8697c15331677e6ebf0b620186a0f1",
                "nonce" : "0x00",
                "storage" : {
                }
            },
            "0xc94f5374fce5edbc8e2a8697c15331677e6ebf0b" : {
                "balance" : "0x01",
                "code" : "0x3460005260206000f3",
                "nonce" : "0x00",
                "storage" : {
                }
            }
        }
    },
    "static_call_value_inherit_from_call_d0g0v0_EIP158" : {
        "_info" : {
            "comment" : "",
            "filledwith" : "cpp-1.3.0+commit.6e0ce939.Linux.g++",
            "lllcversion" : "Version: 0.4.18-develop.2017.9.25+commit.a72237f2.Linux.g++",
            "source" : "src/BlockchainTestsFiller/GeneralStateTests/stStaticCall/static_call_value_inherit_from_call_d0g0v0Filler.json",
            "sourceHash" : "a2735d4902071b710470d22a312f91407db140fcdc3014f2fbfbfeb699a54c4b"
        },
        "blocks" : [
            {
                "blockHeader" : {
                    "bloom" : "0x00000000000000000000000000000000000000000000000000000000000000000000000000000000000000000000000000000000000000000000000000000000000000000000000000000000000000000000000000000000000000000000000000000000000000000000000000000000000000000000000000000000000000000000000000000000000000000000000000000000000000000000000000000000000000000000000000000000000000000000000000000000000000000000000000000000000000000000000000000000000000000000000000000000000000000000000000000000000000000000000000000000000000000000000000000000",
                    "coinbase" : "0x2adc25665018aa1fe0e6bc666dac8fc2697ff9ba",
                    "difficulty" : "0x020000",
                    "extraData" : "",
                    "gasLimit" : "0x989680",
                    "gasUsed" : "0x01fea1",
                    "hash" : "0xba5964a2ac05bb1f15072141b3153770aced88f56932746a725abf3a9fbc5cde",
                    "mixHash" : "0xa8cbad5d32ac8d52f6f8ecdf6b895fc8daa4acf41ca23112c63a07fc7a475ea3",
                    "nonce" : "0x5bf80c5468b3c15d",
                    "number" : "0x01",
                    "parentHash" : "0x379f33f89971fe2d796595abca99d46fc06e255a281cacce24d40914c6a42cae",
                    "receiptTrie" : "0xe44a29fd77ebc89406abc487a5c3535a472f7c5831b3cf569b7df9ffb6267173",
                    "stateRoot" : "0xe7a4f8f7133f7f6cbb4c835d5e7618db8cc9cda690f948284aa6f47cc8050d34",
                    "timestamp" : "0x03e8",
                    "transactionsTrie" : "0x8fe059ef328bf3f09587650be1470385492fa33eb385f9a9701e0e3e0da01982",
                    "uncleHash" : "0x1dcc4de8dec75d7aab85b567b6ccd41ad312451b948a7413f0a142fd40d49347"
                },
                "rlp" : "0xf90260f901f8a0379f33f89971fe2d796595abca99d46fc06e255a281cacce24d40914c6a42caea01dcc4de8dec75d7aab85b567b6ccd41ad312451b948a7413f0a142fd40d49347942adc25665018aa1fe0e6bc666dac8fc2697ff9baa0e7a4f8f7133f7f6cbb4c835d5e7618db8cc9cda690f948284aa6f47cc8050d34a08fe059ef328bf3f09587650be1470385492fa33eb385f9a9701e0e3e0da01982a0e44a29fd77ebc89406abc487a5c3535a472f7c5831b3cf569b7df9ffb6267173b90100000000000000000000000000000000000000000000000000000000000000000000000000000000000000000000000000000000000000000000000000000000000000000000000000000000000000000000000000000000000000000000000000000000000000000000000000000000000000000000000000000000000000000000000000000000000000000000000000000000000000000000000000000000000000000000000000000000000000000000000000000000000000000000000000000000000000000000000000000000000000000000000000000000000000000000000000000000000000000000000000000000000000000000000000000000008302000001839896808301fea18203e880a0a8cbad5d32ac8d52f6f8ecdf6b895fc8daa4acf41ca23112c63a07fc7a475ea3885bf80c5468b3c15df862f8608001830704e094c8b90f8d999d9d9988209481999a9889098a89a00a801ca01702a979476708f8d1bbd2e3ce44816cc0e51d3c9f735d7ec4b6aa4cc9b18741a0628529dcd52c4eeb75c8b8ab3bd7d58c8be946339ceb8adf2bd71ccbe63cd6bbc0",
                "transactions" : [
                    {
                        "data" : "",
                        "gasLimit" : "0x0704e0",
                        "gasPrice" : "0x01",
                        "nonce" : "0x00",
                        "r" : "0x1702a979476708f8d1bbd2e3ce44816cc0e51d3c9f735d7ec4b6aa4cc9b18741",
                        "s" : "0x628529dcd52c4eeb75c8b8ab3bd7d58c8be946339ceb8adf2bd71ccbe63cd6bb",
                        "to" : "0xc8b90f8d999d9d9988209481999a9889098a89a0",
                        "v" : "0x1c",
                        "value" : "0x0a"
                    }
                ],
                "uncleHeaders" : [
                ]
            }
        ],
        "genesisBlockHeader" : {
            "bloom" : "0x00000000000000000000000000000000000000000000000000000000000000000000000000000000000000000000000000000000000000000000000000000000000000000000000000000000000000000000000000000000000000000000000000000000000000000000000000000000000000000000000000000000000000000000000000000000000000000000000000000000000000000000000000000000000000000000000000000000000000000000000000000000000000000000000000000000000000000000000000000000000000000000000000000000000000000000000000000000000000000000000000000000000000000000000000000000",
            "coinbase" : "0x2adc25665018aa1fe0e6bc666dac8fc2697ff9ba",
            "difficulty" : "0x020000",
            "extraData" : "0x42",
            "gasLimit" : "0x989680",
            "gasUsed" : "0x00",
            "hash" : "0x379f33f89971fe2d796595abca99d46fc06e255a281cacce24d40914c6a42cae",
            "mixHash" : "0x56e81f171bcc55a6ff8345e692c0f86e5b48e01b996cadc001622fb5e363b421",
            "nonce" : "0x0102030405060708",
            "number" : "0x00",
            "parentHash" : "0x0000000000000000000000000000000000000000000000000000000000000000",
            "receiptTrie" : "0x56e81f171bcc55a6ff8345e692c0f86e5b48e01b996cadc001622fb5e363b421",
            "stateRoot" : "0x9eb4060e36d74c158f2a1ec43d0ab1c8022abe6b95e3954124c8c4f1980a1c1b",
            "timestamp" : "0x03b6",
            "transactionsTrie" : "0x56e81f171bcc55a6ff8345e692c0f86e5b48e01b996cadc001622fb5e363b421",
            "uncleHash" : "0x1dcc4de8dec75d7aab85b567b6ccd41ad312451b948a7413f0a142fd40d49347"
        },
        "genesisRLP" : "0xf901faf901f5a00000000000000000000000000000000000000000000000000000000000000000a01dcc4de8dec75d7aab85b567b6ccd41ad312451b948a7413f0a142fd40d49347942adc25665018aa1fe0e6bc666dac8fc2697ff9baa09eb4060e36d74c158f2a1ec43d0ab1c8022abe6b95e3954124c8c4f1980a1c1ba056e81f171bcc55a6ff8345e692c0f86e5b48e01b996cadc001622fb5e363b421a056e81f171bcc55a6ff8345e692c0f86e5b48e01b996cadc001622fb5e363b421b9010000000000000000000000000000000000000000000000000000000000000000000000000000000000000000000000000000000000000000000000000000000000000000000000000000000000000000000000000000000000000000000000000000000000000000000000000000000000000000000000000000000000000000000000000000000000000000000000000000000000000000000000000000000000000000000000000000000000000000000000000000000000000000000000000000000000000000000000000000000000000000000000000000000000000000000000000000000000000000000000000000000000000000000000000000000000830200008083989680808203b642a056e81f171bcc55a6ff8345e692c0f86e5b48e01b996cadc001622fb5e363b421880102030405060708c0c0",
        "lastblockhash" : "0xba5964a2ac05bb1f15072141b3153770aced88f56932746a725abf3a9fbc5cde",
        "network" : "EIP158",
        "postState" : {
            "0x094f5374fce5edbc8e2a8697c15331677e6ebf0b" : {
                "balance" : "0x01",
                "code" : "0x602060006000600073c94f5374fce5edbc8e2a8697c15331677e6ebf0b61c350fa600055600051600155",
                "nonce" : "0x00",
                "storage" : {
                    "0x01" : "0x01"
                }
            },
            "0x2adc25665018aa1fe0e6bc666dac8fc2697ff9ba" : {
                "balance" : "0x4563918244f5fea1",
                "code" : "",
                "nonce" : "0x00",
                "storage" : {
                }
            },
            "0xa94f5374fce5edbc8e2a8697c15331677e6ebf0b" : {
                "balance" : "0xe8d4a31155",
                "code" : "",
                "nonce" : "0x01",
                "storage" : {
                }
            },
            "0xc8b90f8d999d9d9988209481999a9889098a89a0" : {
                "balance" : "0x0a",
                "code" : "0x6000600060006000600a73094f5374fce5edbc8e2a8697c15331677e6ebf0b620186a0f1",
                "nonce" : "0x00",
                "storage" : {
                }
            },
            "0xc94f5374fce5edbc8e2a8697c15331677e6ebf0b" : {
                "balance" : "0x01",
                "code" : "0x3460005260206000f3",
                "nonce" : "0x00",
                "storage" : {
                }
            }
        },
        "pre" : {
            "0x094f5374fce5edbc8e2a8697c15331677e6ebf0b" : {
                "balance" : "0x01",
                "code" : "0x602060006000600073c94f5374fce5edbc8e2a8697c15331677e6ebf0b61c350fa600055600051600155",
                "nonce" : "0x00",
                "storage" : {
                    "0x01" : "0x01"
                }
            },
            "0xa94f5374fce5edbc8e2a8697c15331677e6ebf0b" : {
                "balance" : "0xe8d4a51000",
                "code" : "",
                "nonce" : "0x00",
                "storage" : {
                }
            },
            "0xc8b90f8d999d9d9988209481999a9889098a89a0" : {
                "balance" : "0x00",
                "code" : "0x6000600060006000600a73094f5374fce5edbc8e2a8697c15331677e6ebf0b620186a0f1",
                "nonce" : "0x00",
                "storage" : {
                }
            },
            "0xc94f5374fce5edbc8e2a8697c15331677e6ebf0b" : {
                "balance" : "0x01",
                "code" : "0x3460005260206000f3",
                "nonce" : "0x00",
                "storage" : {
                }
            }
        }
    },
    "static_call_value_inherit_from_call_d0g0v0_Frontier" : {
        "_info" : {
            "comment" : "",
            "filledwith" : "cpp-1.3.0+commit.6e0ce939.Linux.g++",
            "lllcversion" : "Version: 0.4.18-develop.2017.9.25+commit.a72237f2.Linux.g++",
            "source" : "src/BlockchainTestsFiller/GeneralStateTests/stStaticCall/static_call_value_inherit_from_call_d0g0v0Filler.json",
            "sourceHash" : "a2735d4902071b710470d22a312f91407db140fcdc3014f2fbfbfeb699a54c4b"
        },
        "blocks" : [
            {
                "blockHeader" : {
                    "bloom" : "0x00000000000000000000000000000000000000000000000000000000000000000000000000000000000000000000000000000000000000000000000000000000000000000000000000000000000000000000000000000000000000000000000000000000000000000000000000000000000000000000000000000000000000000000000000000000000000000000000000000000000000000000000000000000000000000000000000000000000000000000000000000000000000000000000000000000000000000000000000000000000000000000000000000000000000000000000000000000000000000000000000000000000000000000000000000000",
                    "coinbase" : "0x2adc25665018aa1fe0e6bc666dac8fc2697ff9ba",
                    "difficulty" : "0x020000",
                    "extraData" : "",
                    "gasLimit" : "0x989680",
                    "gasUsed" : "0x01fc0d",
                    "hash" : "0x8d99dfc43f6133ca9d5f2cdf5860ca2cbefa5fee7f288b6fb9f1d05926bb142f",
                    "mixHash" : "0xc32d04adb61298c346392e158c79bec99bb4a8e0a0adec571a9cd0ac7a74c37b",
                    "nonce" : "0xf6af359a7995ba27",
                    "number" : "0x01",
                    "parentHash" : "0x379f33f89971fe2d796595abca99d46fc06e255a281cacce24d40914c6a42cae",
                    "receiptTrie" : "0xc8c6220031261be463a0f547da786cf2dd8f1fa889a027df52beaa90b17925ae",
                    "stateRoot" : "0xdd54c32a613fef76d10540503c2a0ee68cdceb0ec2d24ee581d43ec1fb284bf6",
                    "timestamp" : "0x03e8",
                    "transactionsTrie" : "0x8fe059ef328bf3f09587650be1470385492fa33eb385f9a9701e0e3e0da01982",
                    "uncleHash" : "0x1dcc4de8dec75d7aab85b567b6ccd41ad312451b948a7413f0a142fd40d49347"
                },
                "rlp" : "0xf90260f901f8a0379f33f89971fe2d796595abca99d46fc06e255a281cacce24d40914c6a42caea01dcc4de8dec75d7aab85b567b6ccd41ad312451b948a7413f0a142fd40d49347942adc25665018aa1fe0e6bc666dac8fc2697ff9baa0dd54c32a613fef76d10540503c2a0ee68cdceb0ec2d24ee581d43ec1fb284bf6a08fe059ef328bf3f09587650be1470385492fa33eb385f9a9701e0e3e0da01982a0c8c6220031261be463a0f547da786cf2dd8f1fa889a027df52beaa90b17925aeb90100000000000000000000000000000000000000000000000000000000000000000000000000000000000000000000000000000000000000000000000000000000000000000000000000000000000000000000000000000000000000000000000000000000000000000000000000000000000000000000000000000000000000000000000000000000000000000000000000000000000000000000000000000000000000000000000000000000000000000000000000000000000000000000000000000000000000000000000000000000000000000000000000000000000000000000000000000000000000000000000000000000000000000000000000000000008302000001839896808301fc0d8203e880a0c32d04adb61298c346392e158c79bec99bb4a8e0a0adec571a9cd0ac7a74c37b88f6af359a7995ba27f862f8608001830704e094c8b90f8d999d9d9988209481999a9889098a89a00a801ca01702a979476708f8d1bbd2e3ce44816cc0e51d3c9f735d7ec4b6aa4cc9b18741a0628529dcd52c4eeb75c8b8ab3bd7d58c8be946339ceb8adf2bd71ccbe63cd6bbc0",
                "transactions" : [
                    {
                        "data" : "",
                        "gasLimit" : "0x0704e0",
                        "gasPrice" : "0x01",
                        "nonce" : "0x00",
                        "r" : "0x1702a979476708f8d1bbd2e3ce44816cc0e51d3c9f735d7ec4b6aa4cc9b18741",
                        "s" : "0x628529dcd52c4eeb75c8b8ab3bd7d58c8be946339ceb8adf2bd71ccbe63cd6bb",
                        "to" : "0xc8b90f8d999d9d9988209481999a9889098a89a0",
                        "v" : "0x1c",
                        "value" : "0x0a"
                    }
                ],
                "uncleHeaders" : [
                ]
            }
        ],
        "genesisBlockHeader" : {
            "bloom" : "0x00000000000000000000000000000000000000000000000000000000000000000000000000000000000000000000000000000000000000000000000000000000000000000000000000000000000000000000000000000000000000000000000000000000000000000000000000000000000000000000000000000000000000000000000000000000000000000000000000000000000000000000000000000000000000000000000000000000000000000000000000000000000000000000000000000000000000000000000000000000000000000000000000000000000000000000000000000000000000000000000000000000000000000000000000000000",
            "coinbase" : "0x2adc25665018aa1fe0e6bc666dac8fc2697ff9ba",
            "difficulty" : "0x020000",
            "extraData" : "0x42",
            "gasLimit" : "0x989680",
            "gasUsed" : "0x00",
            "hash" : "0x379f33f89971fe2d796595abca99d46fc06e255a281cacce24d40914c6a42cae",
            "mixHash" : "0x56e81f171bcc55a6ff8345e692c0f86e5b48e01b996cadc001622fb5e363b421",
            "nonce" : "0x0102030405060708",
            "number" : "0x00",
            "parentHash" : "0x0000000000000000000000000000000000000000000000000000000000000000",
            "receiptTrie" : "0x56e81f171bcc55a6ff8345e692c0f86e5b48e01b996cadc001622fb5e363b421",
            "stateRoot" : "0x9eb4060e36d74c158f2a1ec43d0ab1c8022abe6b95e3954124c8c4f1980a1c1b",
            "timestamp" : "0x03b6",
            "transactionsTrie" : "0x56e81f171bcc55a6ff8345e692c0f86e5b48e01b996cadc001622fb5e363b421",
            "uncleHash" : "0x1dcc4de8dec75d7aab85b567b6ccd41ad312451b948a7413f0a142fd40d49347"
        },
        "genesisRLP" : "0xf901faf901f5a00000000000000000000000000000000000000000000000000000000000000000a01dcc4de8dec75d7aab85b567b6ccd41ad312451b948a7413f0a142fd40d49347942adc25665018aa1fe0e6bc666dac8fc2697ff9baa09eb4060e36d74c158f2a1ec43d0ab1c8022abe6b95e3954124c8c4f1980a1c1ba056e81f171bcc55a6ff8345e692c0f86e5b48e01b996cadc001622fb5e363b421a056e81f171bcc55a6ff8345e692c0f86e5b48e01b996cadc001622fb5e363b421b9010000000000000000000000000000000000000000000000000000000000000000000000000000000000000000000000000000000000000000000000000000000000000000000000000000000000000000000000000000000000000000000000000000000000000000000000000000000000000000000000000000000000000000000000000000000000000000000000000000000000000000000000000000000000000000000000000000000000000000000000000000000000000000000000000000000000000000000000000000000000000000000000000000000000000000000000000000000000000000000000000000000000000000000000000000000000830200008083989680808203b642a056e81f171bcc55a6ff8345e692c0f86e5b48e01b996cadc001622fb5e363b421880102030405060708c0c0",
        "lastblockhash" : "0x8d99dfc43f6133ca9d5f2cdf5860ca2cbefa5fee7f288b6fb9f1d05926bb142f",
        "network" : "Frontier",
        "postState" : {
            "0x094f5374fce5edbc8e2a8697c15331677e6ebf0b" : {
                "balance" : "0x01",
                "code" : "0x602060006000600073c94f5374fce5edbc8e2a8697c15331677e6ebf0b61c350fa600055600051600155",
                "nonce" : "0x00",
                "storage" : {
                    "0x01" : "0x01"
                }
            },
            "0x2adc25665018aa1fe0e6bc666dac8fc2697ff9ba" : {
                "balance" : "0x4563918244f5fc0d",
                "code" : "",
                "nonce" : "0x00",
                "storage" : {
                }
            },
            "0xa94f5374fce5edbc8e2a8697c15331677e6ebf0b" : {
                "balance" : "0xe8d4a313e9",
                "code" : "",
                "nonce" : "0x01",
                "storage" : {
                }
            },
            "0xc8b90f8d999d9d9988209481999a9889098a89a0" : {
                "balance" : "0x0a",
                "code" : "0x6000600060006000600a73094f5374fce5edbc8e2a8697c15331677e6ebf0b620186a0f1",
                "nonce" : "0x00",
                "storage" : {
                }
            },
            "0xc94f5374fce5edbc8e2a8697c15331677e6ebf0b" : {
                "balance" : "0x01",
                "code" : "0x3460005260206000f3",
                "nonce" : "0x00",
                "storage" : {
                }
            }
        },
        "pre" : {
            "0x094f5374fce5edbc8e2a8697c15331677e6ebf0b" : {
                "balance" : "0x01",
                "code" : "0x602060006000600073c94f5374fce5edbc8e2a8697c15331677e6ebf0b61c350fa600055600051600155",
                "nonce" : "0x00",
                "storage" : {
                    "0x01" : "0x01"
                }
            },
            "0xa94f5374fce5edbc8e2a8697c15331677e6ebf0b" : {
                "balance" : "0xe8d4a51000",
                "code" : "",
                "nonce" : "0x00",
                "storage" : {
                }
            },
            "0xc8b90f8d999d9d9988209481999a9889098a89a0" : {
                "balance" : "0x00",
                "code" : "0x6000600060006000600a73094f5374fce5edbc8e2a8697c15331677e6ebf0b620186a0f1",
                "nonce" : "0x00",
                "storage" : {
                }
            },
            "0xc94f5374fce5edbc8e2a8697c15331677e6ebf0b" : {
                "balance" : "0x01",
                "code" : "0x3460005260206000f3",
                "nonce" : "0x00",
                "storage" : {
                }
            }
        }
    },
    "static_call_value_inherit_from_call_d0g0v0_Homestead" : {
        "_info" : {
            "comment" : "",
            "filledwith" : "cpp-1.3.0+commit.6e0ce939.Linux.g++",
            "lllcversion" : "Version: 0.4.18-develop.2017.9.25+commit.a72237f2.Linux.g++",
            "source" : "src/BlockchainTestsFiller/GeneralStateTests/stStaticCall/static_call_value_inherit_from_call_d0g0v0Filler.json",
            "sourceHash" : "a2735d4902071b710470d22a312f91407db140fcdc3014f2fbfbfeb699a54c4b"
        },
        "blocks" : [
            {
                "blockHeader" : {
                    "bloom" : "0x00000000000000000000000000000000000000000000000000000000000000000000000000000000000000000000000000000000000000000000000000000000000000000000000000000000000000000000000000000000000000000000000000000000000000000000000000000000000000000000000000000000000000000000000000000000000000000000000000000000000000000000000000000000000000000000000000000000000000000000000000000000000000000000000000000000000000000000000000000000000000000000000000000000000000000000000000000000000000000000000000000000000000000000000000000000",
                    "coinbase" : "0x2adc25665018aa1fe0e6bc666dac8fc2697ff9ba",
                    "difficulty" : "0x020000",
                    "extraData" : "",
                    "gasLimit" : "0x989680",
                    "gasUsed" : "0x01fc0d",
                    "hash" : "0x90bdfa5ffbd9126f8a7e2c3bb9594b7dd45d65e2bd3cadad268abf25f42836a4",
                    "mixHash" : "0x05c8703f04de4766c9f00e6b81df0177f57a609d339a1de34b9353a131802844",
                    "nonce" : "0x6717b6e9e05f200c",
                    "number" : "0x01",
                    "parentHash" : "0x379f33f89971fe2d796595abca99d46fc06e255a281cacce24d40914c6a42cae",
                    "receiptTrie" : "0xc8c6220031261be463a0f547da786cf2dd8f1fa889a027df52beaa90b17925ae",
                    "stateRoot" : "0xdd54c32a613fef76d10540503c2a0ee68cdceb0ec2d24ee581d43ec1fb284bf6",
                    "timestamp" : "0x03e8",
                    "transactionsTrie" : "0x8fe059ef328bf3f09587650be1470385492fa33eb385f9a9701e0e3e0da01982",
                    "uncleHash" : "0x1dcc4de8dec75d7aab85b567b6ccd41ad312451b948a7413f0a142fd40d49347"
                },
                "rlp" : "0xf90260f901f8a0379f33f89971fe2d796595abca99d46fc06e255a281cacce24d40914c6a42caea01dcc4de8dec75d7aab85b567b6ccd41ad312451b948a7413f0a142fd40d49347942adc25665018aa1fe0e6bc666dac8fc2697ff9baa0dd54c32a613fef76d10540503c2a0ee68cdceb0ec2d24ee581d43ec1fb284bf6a08fe059ef328bf3f09587650be1470385492fa33eb385f9a9701e0e3e0da01982a0c8c6220031261be463a0f547da786cf2dd8f1fa889a027df52beaa90b17925aeb90100000000000000000000000000000000000000000000000000000000000000000000000000000000000000000000000000000000000000000000000000000000000000000000000000000000000000000000000000000000000000000000000000000000000000000000000000000000000000000000000000000000000000000000000000000000000000000000000000000000000000000000000000000000000000000000000000000000000000000000000000000000000000000000000000000000000000000000000000000000000000000000000000000000000000000000000000000000000000000000000000000000000000000000000000000000008302000001839896808301fc0d8203e880a005c8703f04de4766c9f00e6b81df0177f57a609d339a1de34b9353a131802844886717b6e9e05f200cf862f8608001830704e094c8b90f8d999d9d9988209481999a9889098a89a00a801ca01702a979476708f8d1bbd2e3ce44816cc0e51d3c9f735d7ec4b6aa4cc9b18741a0628529dcd52c4eeb75c8b8ab3bd7d58c8be946339ceb8adf2bd71ccbe63cd6bbc0",
                "transactions" : [
                    {
                        "data" : "",
                        "gasLimit" : "0x0704e0",
                        "gasPrice" : "0x01",
                        "nonce" : "0x00",
                        "r" : "0x1702a979476708f8d1bbd2e3ce44816cc0e51d3c9f735d7ec4b6aa4cc9b18741",
                        "s" : "0x628529dcd52c4eeb75c8b8ab3bd7d58c8be946339ceb8adf2bd71ccbe63cd6bb",
                        "to" : "0xc8b90f8d999d9d9988209481999a9889098a89a0",
                        "v" : "0x1c",
                        "value" : "0x0a"
                    }
                ],
                "uncleHeaders" : [
                ]
            }
        ],
        "genesisBlockHeader" : {
            "bloom" : "0x00000000000000000000000000000000000000000000000000000000000000000000000000000000000000000000000000000000000000000000000000000000000000000000000000000000000000000000000000000000000000000000000000000000000000000000000000000000000000000000000000000000000000000000000000000000000000000000000000000000000000000000000000000000000000000000000000000000000000000000000000000000000000000000000000000000000000000000000000000000000000000000000000000000000000000000000000000000000000000000000000000000000000000000000000000000",
            "coinbase" : "0x2adc25665018aa1fe0e6bc666dac8fc2697ff9ba",
            "difficulty" : "0x020000",
            "extraData" : "0x42",
            "gasLimit" : "0x989680",
            "gasUsed" : "0x00",
            "hash" : "0x379f33f89971fe2d796595abca99d46fc06e255a281cacce24d40914c6a42cae",
            "mixHash" : "0x56e81f171bcc55a6ff8345e692c0f86e5b48e01b996cadc001622fb5e363b421",
            "nonce" : "0x0102030405060708",
            "number" : "0x00",
            "parentHash" : "0x0000000000000000000000000000000000000000000000000000000000000000",
            "receiptTrie" : "0x56e81f171bcc55a6ff8345e692c0f86e5b48e01b996cadc001622fb5e363b421",
            "stateRoot" : "0x9eb4060e36d74c158f2a1ec43d0ab1c8022abe6b95e3954124c8c4f1980a1c1b",
            "timestamp" : "0x03b6",
            "transactionsTrie" : "0x56e81f171bcc55a6ff8345e692c0f86e5b48e01b996cadc001622fb5e363b421",
            "uncleHash" : "0x1dcc4de8dec75d7aab85b567b6ccd41ad312451b948a7413f0a142fd40d49347"
        },
        "genesisRLP" : "0xf901faf901f5a00000000000000000000000000000000000000000000000000000000000000000a01dcc4de8dec75d7aab85b567b6ccd41ad312451b948a7413f0a142fd40d49347942adc25665018aa1fe0e6bc666dac8fc2697ff9baa09eb4060e36d74c158f2a1ec43d0ab1c8022abe6b95e3954124c8c4f1980a1c1ba056e81f171bcc55a6ff8345e692c0f86e5b48e01b996cadc001622fb5e363b421a056e81f171bcc55a6ff8345e692c0f86e5b48e01b996cadc001622fb5e363b421b9010000000000000000000000000000000000000000000000000000000000000000000000000000000000000000000000000000000000000000000000000000000000000000000000000000000000000000000000000000000000000000000000000000000000000000000000000000000000000000000000000000000000000000000000000000000000000000000000000000000000000000000000000000000000000000000000000000000000000000000000000000000000000000000000000000000000000000000000000000000000000000000000000000000000000000000000000000000000000000000000000000000000000000000000000000000000830200008083989680808203b642a056e81f171bcc55a6ff8345e692c0f86e5b48e01b996cadc001622fb5e363b421880102030405060708c0c0",
        "lastblockhash" : "0x90bdfa5ffbd9126f8a7e2c3bb9594b7dd45d65e2bd3cadad268abf25f42836a4",
        "network" : "Homestead",
        "postState" : {
            "0x094f5374fce5edbc8e2a8697c15331677e6ebf0b" : {
                "balance" : "0x01",
                "code" : "0x602060006000600073c94f5374fce5edbc8e2a8697c15331677e6ebf0b61c350fa600055600051600155",
                "nonce" : "0x00",
                "storage" : {
                    "0x01" : "0x01"
                }
            },
            "0x2adc25665018aa1fe0e6bc666dac8fc2697ff9ba" : {
                "balance" : "0x4563918244f5fc0d",
                "code" : "",
                "nonce" : "0x00",
                "storage" : {
                }
            },
            "0xa94f5374fce5edbc8e2a8697c15331677e6ebf0b" : {
                "balance" : "0xe8d4a313e9",
                "code" : "",
                "nonce" : "0x01",
                "storage" : {
                }
            },
            "0xc8b90f8d999d9d9988209481999a9889098a89a0" : {
                "balance" : "0x0a",
                "code" : "0x6000600060006000600a73094f5374fce5edbc8e2a8697c15331677e6ebf0b620186a0f1",
                "nonce" : "0x00",
                "storage" : {
                }
            },
            "0xc94f5374fce5edbc8e2a8697c15331677e6ebf0b" : {
                "balance" : "0x01",
                "code" : "0x3460005260206000f3",
                "nonce" : "0x00",
                "storage" : {
                }
            }
        },
        "pre" : {
            "0x094f5374fce5edbc8e2a8697c15331677e6ebf0b" : {
                "balance" : "0x01",
                "code" : "0x602060006000600073c94f5374fce5edbc8e2a8697c15331677e6ebf0b61c350fa600055600051600155",
                "nonce" : "0x00",
                "storage" : {
                    "0x01" : "0x01"
                }
            },
            "0xa94f5374fce5edbc8e2a8697c15331677e6ebf0b" : {
                "balance" : "0xe8d4a51000",
                "code" : "",
                "nonce" : "0x00",
                "storage" : {
                }
            },
            "0xc8b90f8d999d9d9988209481999a9889098a89a0" : {
                "balance" : "0x00",
                "code" : "0x6000600060006000600a73094f5374fce5edbc8e2a8697c15331677e6ebf0b620186a0f1",
                "nonce" : "0x00",
                "storage" : {
                }
            },
            "0xc94f5374fce5edbc8e2a8697c15331677e6ebf0b" : {
                "balance" : "0x01",
                "code" : "0x3460005260206000f3",
                "nonce" : "0x00",
                "storage" : {
                }
            }
        }
    }
}