{
    "static_Call50000_sha256_d1g0v0_Byzantium" : {
        "_info" : {
            "comment" : "",
            "filledwith" : "cpp-1.3.0+commit.6e0ce939.Linux.g++",
            "lllcversion" : "Version: 0.4.18-develop.2017.9.25+commit.a72237f2.Linux.g++",
            "source" : "src/BlockchainTestsFiller/GeneralStateTests/stStaticCall/static_Call50000_sha256_d1g0v0Filler.json",
            "sourceHash" : "57ca052bb6e2b8999dffec42f9274552939180bb23d9947721d28dac6806dff8"
        },
        "blocks" : [
            {
                "blockHeader" : {
                    "bloom" : "0x00000000000000000000000000000000000000000000000000000000000000000000000000000000000000000000000000000000000000000000000000000000000000000000000000000000000000000000000000000000000000000000000000000000000000000000000000000000000000000000000000000000000000000000000000000000000000000000000000000000000000000000000000000000000000000000000000000000000000000000000000000000000000000000000000000000000000000000000000000000000000000000000000000000000000000000000000000000000000000000000000000000000000000000000000000000",
                    "coinbase" : "0xb94f5374fce5edbc8e2a8697c15331677e6ebf0b",
                    "difficulty" : "0x020000",
                    "extraData" : "",
                    "gasLimit" : "0xe9f2bf40",
                    "gasUsed" : "0x3a694c4c",
                    "hash" : "0xe1af86f3f17c44f0cb4e2e46ce55b57b0d97bbcf1730cd215657b6849d1962f9",
                    "mixHash" : "0xad50e5e96480d25dc9209cc8857f50adbd681b409770eeeb85fa7e83395c2ca7",
                    "nonce" : "0x6e6823dde0050adb",
                    "number" : "0x01",
                    "parentHash" : "0x4e818ebaff1d4dec8babc694cb01b22bd58828d45324e9037f5ff48c7ec4b959",
                    "receiptTrie" : "0x2e3b29f83642339b5b502b7f6c48dc891575473847e44e074dfa203d036e1028",
                    "stateRoot" : "0xea3cade6e9f13db8c94bcd1761340b7efd5cc7d94761976be2b9523fb5d4c551",
                    "timestamp" : "0x03e8",
                    "transactionsTrie" : "0x6d9d1fa1a577f0512d86b8e096160053d0329e10c90a96cde022e8313b9fd3be",
                    "uncleHash" : "0x1dcc4de8dec75d7aab85b567b6ccd41ad312451b948a7413f0a142fd40d49347"
                },
                "rlp" : "0xf90283f901faa04e818ebaff1d4dec8babc694cb01b22bd58828d45324e9037f5ff48c7ec4b959a01dcc4de8dec75d7aab85b567b6ccd41ad312451b948a7413f0a142fd40d4934794b94f5374fce5edbc8e2a8697c15331677e6ebf0ba0ea3cade6e9f13db8c94bcd1761340b7efd5cc7d94761976be2b9523fb5d4c551a06d9d1fa1a577f0512d86b8e096160053d0329e10c90a96cde022e8313b9fd3bea02e3b29f83642339b5b502b7f6c48dc891575473847e44e074dfa203d036e1028b9010000000000000000000000000000000000000000000000000000000000000000000000000000000000000000000000000000000000000000000000000000000000000000000000000000000000000000000000000000000000000000000000000000000000000000000000000000000000000000000000000000000000000000000000000000000000000000000000000000000000000000000000000000000000000000000000000000000000000000000000000000000000000000000000000000000000000000000000000000000000000000000000000000000000000000000000000000000000000000000000000000000000000000000000000000000000830200000184e9f2bf40843a694c4c8203e880a0ad50e5e96480d25dc9209cc8857f50adbd681b409770eeeb85fa7e83395c2ca7886e6823dde0050adbf883f881800184e9f2bf409410000000000000000000000000000000000000000aa0000000000000000000000000cccf5374fce5edbc8e2a8697c15331677e6ebf0b1ca0f18255723d794581ce3a63fab28778b56d4c6fe373df23d8a573e002ea5bb43da04d7093ebf45058b04fa0672e9621ee3a0a4396a15282232f37ff3516ae961c13c0",
                "transactions" : [
                    {
                        "data" : "0x000000000000000000000000cccf5374fce5edbc8e2a8697c15331677e6ebf0b",
                        "gasLimit" : "0xe9f2bf40",
                        "gasPrice" : "0x01",
                        "nonce" : "0x00",
                        "r" : "0xf18255723d794581ce3a63fab28778b56d4c6fe373df23d8a573e002ea5bb43d",
                        "s" : "0x4d7093ebf45058b04fa0672e9621ee3a0a4396a15282232f37ff3516ae961c13",
                        "to" : "0x1000000000000000000000000000000000000000",
                        "v" : "0x1c",
                        "value" : "0x0a"
                    }
                ],
                "uncleHeaders" : [
                ]
            }
        ],
        "genesisBlockHeader" : {
            "bloom" : "0x00000000000000000000000000000000000000000000000000000000000000000000000000000000000000000000000000000000000000000000000000000000000000000000000000000000000000000000000000000000000000000000000000000000000000000000000000000000000000000000000000000000000000000000000000000000000000000000000000000000000000000000000000000000000000000000000000000000000000000000000000000000000000000000000000000000000000000000000000000000000000000000000000000000000000000000000000000000000000000000000000000000000000000000000000000000",
            "coinbase" : "0xb94f5374fce5edbc8e2a8697c15331677e6ebf0b",
            "difficulty" : "0x020000",
            "extraData" : "0x42",
            "gasLimit" : "0xe9f2bf40",
            "gasUsed" : "0x00",
            "hash" : "0x4e818ebaff1d4dec8babc694cb01b22bd58828d45324e9037f5ff48c7ec4b959",
            "mixHash" : "0x56e81f171bcc55a6ff8345e692c0f86e5b48e01b996cadc001622fb5e363b421",
            "nonce" : "0x0102030405060708",
            "number" : "0x00",
            "parentHash" : "0x0000000000000000000000000000000000000000000000000000000000000000",
            "receiptTrie" : "0x56e81f171bcc55a6ff8345e692c0f86e5b48e01b996cadc001622fb5e363b421",
            "stateRoot" : "0xf32e45c902bcba3bca8870fda8bbad554d231a87eb46dd7401d9c5a855d6cf66",
            "timestamp" : "0x03b6",
            "transactionsTrie" : "0x56e81f171bcc55a6ff8345e692c0f86e5b48e01b996cadc001622fb5e363b421",
            "uncleHash" : "0x1dcc4de8dec75d7aab85b567b6ccd41ad312451b948a7413f0a142fd40d49347"
        },
        "genesisRLP" : "0xf901fbf901f6a00000000000000000000000000000000000000000000000000000000000000000a01dcc4de8dec75d7aab85b567b6ccd41ad312451b948a7413f0a142fd40d4934794b94f5374fce5edbc8e2a8697c15331677e6ebf0ba0f32e45c902bcba3bca8870fda8bbad554d231a87eb46dd7401d9c5a855d6cf66a056e81f171bcc55a6ff8345e692c0f86e5b48e01b996cadc001622fb5e363b421a056e81f171bcc55a6ff8345e692c0f86e5b48e01b996cadc001622fb5e363b421b9010000000000000000000000000000000000000000000000000000000000000000000000000000000000000000000000000000000000000000000000000000000000000000000000000000000000000000000000000000000000000000000000000000000000000000000000000000000000000000000000000000000000000000000000000000000000000000000000000000000000000000000000000000000000000000000000000000000000000000000000000000000000000000000000000000000000000000000000000000000000000000000000000000000000000000000000000000000000000000000000000000000000000000000000000000000000830200008084e9f2bf40808203b642a056e81f171bcc55a6ff8345e692c0f86e5b48e01b996cadc001622fb5e363b421880102030405060708c0c0",
        "lastblockhash" : "0xe1af86f3f17c44f0cb4e2e46ce55b57b0d97bbcf1730cd215657b6849d1962f9",
        "network" : "Byzantium",
        "postState" : {
            "0x1000000000000000000000000000000000000000" : {
                "balance" : "0x00",
                "code" : "0x6000600060006000346000355af16000555a600155",
                "nonce" : "0x00",
                "storage" : {
                    "0x00" : "0x01",
                    "0x01" : "0xaf89c117"
                }
            },
            "0xa94f5374fce5edbc8e2a8697c15331677e6ebf0b" : {
                "balance" : "0xffffffffffffffffffffffffc596b3a9",
                "code" : "",
                "nonce" : "0x01",
                "storage" : {
                }
            },
            "0xb94f5374fce5edbc8e2a8697c15331677e6ebf0b" : {
                "balance" : "0x29a2241b30954c4c",
                "code" : "",
                "nonce" : "0x00",
                "storage" : {
                }
            },
            "0xbbbf5374fce5edbc8e2a8697c15331677e6ebf0b" : {
                "balance" : "0x0fffffffffffff",
                "code" : "0x5b61c3506080511015602b576000600061c3506000600262013178fa6000556001608051016080526000565b608051600155",
                "nonce" : "0x00",
                "storage" : {
                }
            },
            "0xcccf5374fce5edbc8e2a8697c15331677e6ebf0b" : {
                "balance" : "0x10000000000009",
                "code" : "0x5b61c3506080511015602b576000600061c3506000600262013178fa6000526001608051016080526000565b608051602052",
                "nonce" : "0x00",
                "storage" : {
                }
            }
        },
        "pre" : {
            "0x1000000000000000000000000000000000000000" : {
                "balance" : "0x00",
                "code" : "0x6000600060006000346000355af16000555a600155",
                "nonce" : "0x00",
                "storage" : {
                }
            },
            "0xa94f5374fce5edbc8e2a8697c15331677e6ebf0b" : {
                "balance" : "0xffffffffffffffffffffffffffffffff",
                "code" : "",
                "nonce" : "0x00",
                "storage" : {
                }
            },
            "0xbbbf5374fce5edbc8e2a8697c15331677e6ebf0b" : {
                "balance" : "0x0fffffffffffff",
                "code" : "0x5b61c3506080511015602b576000600061c3506000600262013178fa6000556001608051016080526000565b608051600155",
                "nonce" : "0x00",
                "storage" : {
                }
            },
            "0xcccf5374fce5edbc8e2a8697c15331677e6ebf0b" : {
                "balance" : "0x0fffffffffffff",
                "code" : "0x5b61c3506080511015602b576000600061c3506000600262013178fa6000526001608051016080526000565b608051602052",
                "nonce" : "0x00",
                "storage" : {
                }
            }
        }
    },
    "static_Call50000_sha256_d1g0v0_EIP150" : {
        "_info" : {
            "comment" : "",
            "filledwith" : "cpp-1.3.0+commit.6e0ce939.Linux.g++",
            "lllcversion" : "Version: 0.4.18-develop.2017.9.25+commit.a72237f2.Linux.g++",
            "source" : "src/BlockchainTestsFiller/GeneralStateTests/stStaticCall/static_Call50000_sha256_d1g0v0Filler.json",
            "sourceHash" : "57ca052bb6e2b8999dffec42f9274552939180bb23d9947721d28dac6806dff8"
        },
        "blocks" : [
            {
                "blockHeader" : {
                    "bloom" : "0x00000000000000000000000000000000000000000000000000000000000000000000000000000000000000000000000000000000000000000000000000000000000000000000000000000000000000000000000000000000000000000000000000000000000000000000000000000000000000000000000000000000000000000000000000000000000000000000000000000000000000000000000000000000000000000000000000000000000000000000000000000000000000000000000000000000000000000000000000000000000000000000000000000000000000000000000000000000000000000000000000000000000000000000000000000000",
                    "coinbase" : "0xb94f5374fce5edbc8e2a8697c15331677e6ebf0b",
                    "difficulty" : "0x020000",
                    "extraData" : "",
                    "gasLimit" : "0xe9f2bf40",
                    "gasUsed" : "0xe64b57ea",
                    "hash" : "0x1b5ac0fa89f5400756a156994fdf0b498955eee97529044d3a612a127827d219",
                    "mixHash" : "0x8b9b267280697561815fd0388efd2f7906f3506f01c18992bef6a515dbc88cd0",
                    "nonce" : "0x517dd5e626068b64",
                    "number" : "0x01",
                    "parentHash" : "0x4e818ebaff1d4dec8babc694cb01b22bd58828d45324e9037f5ff48c7ec4b959",
                    "receiptTrie" : "0x54e546616aa4471ee75b6ee1e29da5e8a1ea758bff9e78a94e318fc01fa40c28",
                    "stateRoot" : "0xaea011b37df43b847817aa97c68d7fcd07ae10dc9b41c863091a57afe98498df",
                    "timestamp" : "0x03e8",
                    "transactionsTrie" : "0x6d9d1fa1a577f0512d86b8e096160053d0329e10c90a96cde022e8313b9fd3be",
                    "uncleHash" : "0x1dcc4de8dec75d7aab85b567b6ccd41ad312451b948a7413f0a142fd40d49347"
                },
                "rlp" : "0xf90283f901faa04e818ebaff1d4dec8babc694cb01b22bd58828d45324e9037f5ff48c7ec4b959a01dcc4de8dec75d7aab85b567b6ccd41ad312451b948a7413f0a142fd40d4934794b94f5374fce5edbc8e2a8697c15331677e6ebf0ba0aea011b37df43b847817aa97c68d7fcd07ae10dc9b41c863091a57afe98498dfa06d9d1fa1a577f0512d86b8e096160053d0329e10c90a96cde022e8313b9fd3bea054e546616aa4471ee75b6ee1e29da5e8a1ea758bff9e78a94e318fc01fa40c28b9010000000000000000000000000000000000000000000000000000000000000000000000000000000000000000000000000000000000000000000000000000000000000000000000000000000000000000000000000000000000000000000000000000000000000000000000000000000000000000000000000000000000000000000000000000000000000000000000000000000000000000000000000000000000000000000000000000000000000000000000000000000000000000000000000000000000000000000000000000000000000000000000000000000000000000000000000000000000000000000000000000000000000000000000000000000000830200000184e9f2bf4084e64b57ea8203e880a08b9b267280697561815fd0388efd2f7906f3506f01c18992bef6a515dbc88cd088517dd5e626068b64f883f881800184e9f2bf409410000000000000000000000000000000000000000aa0000000000000000000000000cccf5374fce5edbc8e2a8697c15331677e6ebf0b1ca0f18255723d794581ce3a63fab28778b56d4c6fe373df23d8a573e002ea5bb43da04d7093ebf45058b04fa0672e9621ee3a0a4396a15282232f37ff3516ae961c13c0",
                "transactions" : [
                    {
                        "data" : "0x000000000000000000000000cccf5374fce5edbc8e2a8697c15331677e6ebf0b",
                        "gasLimit" : "0xe9f2bf40",
                        "gasPrice" : "0x01",
                        "nonce" : "0x00",
                        "r" : "0xf18255723d794581ce3a63fab28778b56d4c6fe373df23d8a573e002ea5bb43d",
                        "s" : "0x4d7093ebf45058b04fa0672e9621ee3a0a4396a15282232f37ff3516ae961c13",
                        "to" : "0x1000000000000000000000000000000000000000",
                        "v" : "0x1c",
                        "value" : "0x0a"
                    }
                ],
                "uncleHeaders" : [
                ]
            }
        ],
        "genesisBlockHeader" : {
            "bloom" : "0x00000000000000000000000000000000000000000000000000000000000000000000000000000000000000000000000000000000000000000000000000000000000000000000000000000000000000000000000000000000000000000000000000000000000000000000000000000000000000000000000000000000000000000000000000000000000000000000000000000000000000000000000000000000000000000000000000000000000000000000000000000000000000000000000000000000000000000000000000000000000000000000000000000000000000000000000000000000000000000000000000000000000000000000000000000000",
            "coinbase" : "0xb94f5374fce5edbc8e2a8697c15331677e6ebf0b",
            "difficulty" : "0x020000",
            "extraData" : "0x42",
            "gasLimit" : "0xe9f2bf40",
            "gasUsed" : "0x00",
            "hash" : "0x4e818ebaff1d4dec8babc694cb01b22bd58828d45324e9037f5ff48c7ec4b959",
            "mixHash" : "0x56e81f171bcc55a6ff8345e692c0f86e5b48e01b996cadc001622fb5e363b421",
            "nonce" : "0x0102030405060708",
            "number" : "0x00",
            "parentHash" : "0x0000000000000000000000000000000000000000000000000000000000000000",
            "receiptTrie" : "0x56e81f171bcc55a6ff8345e692c0f86e5b48e01b996cadc001622fb5e363b421",
            "stateRoot" : "0xf32e45c902bcba3bca8870fda8bbad554d231a87eb46dd7401d9c5a855d6cf66",
            "timestamp" : "0x03b6",
            "transactionsTrie" : "0x56e81f171bcc55a6ff8345e692c0f86e5b48e01b996cadc001622fb5e363b421",
            "uncleHash" : "0x1dcc4de8dec75d7aab85b567b6ccd41ad312451b948a7413f0a142fd40d49347"
        },
        "genesisRLP" : "0xf901fbf901f6a00000000000000000000000000000000000000000000000000000000000000000a01dcc4de8dec75d7aab85b567b6ccd41ad312451b948a7413f0a142fd40d4934794b94f5374fce5edbc8e2a8697c15331677e6ebf0ba0f32e45c902bcba3bca8870fda8bbad554d231a87eb46dd7401d9c5a855d6cf66a056e81f171bcc55a6ff8345e692c0f86e5b48e01b996cadc001622fb5e363b421a056e81f171bcc55a6ff8345e692c0f86e5b48e01b996cadc001622fb5e363b421b9010000000000000000000000000000000000000000000000000000000000000000000000000000000000000000000000000000000000000000000000000000000000000000000000000000000000000000000000000000000000000000000000000000000000000000000000000000000000000000000000000000000000000000000000000000000000000000000000000000000000000000000000000000000000000000000000000000000000000000000000000000000000000000000000000000000000000000000000000000000000000000000000000000000000000000000000000000000000000000000000000000000000000000000000000000000000830200008084e9f2bf40808203b642a056e81f171bcc55a6ff8345e692c0f86e5b48e01b996cadc001622fb5e363b421880102030405060708c0c0",
        "lastblockhash" : "0x1b5ac0fa89f5400756a156994fdf0b498955eee97529044d3a612a127827d219",
        "network" : "EIP150",
        "postState" : {
            "0x1000000000000000000000000000000000000000" : {
                "balance" : "0x0a",
                "code" : "0x6000600060006000346000355af16000555a600155",
                "nonce" : "0x00",
                "storage" : {
                    "0x01" : "0x03a7b579"
                }
            },
            "0xa94f5374fce5edbc8e2a8697c15331677e6ebf0b" : {
                "balance" : "0xffffffffffffffffffffffff19b4a80b",
                "code" : "",
                "nonce" : "0x01",
                "storage" : {
                }
            },
            "0xb94f5374fce5edbc8e2a8697c15331677e6ebf0b" : {
                "balance" : "0x456391832b3f57ea",
                "code" : "",
                "nonce" : "0x00",
                "storage" : {
                }
            },
            "0xbbbf5374fce5edbc8e2a8697c15331677e6ebf0b" : {
                "balance" : "0x0fffffffffffff",
                "code" : "0x5b61c3506080511015602b576000600061c3506000600262013178fa6000556001608051016080526000565b608051600155",
                "nonce" : "0x00",
                "storage" : {
                }
            },
            "0xcccf5374fce5edbc8e2a8697c15331677e6ebf0b" : {
                "balance" : "0x0fffffffffffff",
                "code" : "0x5b61c3506080511015602b576000600061c3506000600262013178fa6000526001608051016080526000565b608051602052",
                "nonce" : "0x00",
                "storage" : {
                }
            }
        },
        "pre" : {
            "0x1000000000000000000000000000000000000000" : {
                "balance" : "0x00",
                "code" : "0x6000600060006000346000355af16000555a600155",
                "nonce" : "0x00",
                "storage" : {
                }
            },
            "0xa94f5374fce5edbc8e2a8697c15331677e6ebf0b" : {
                "balance" : "0xffffffffffffffffffffffffffffffff",
                "code" : "",
                "nonce" : "0x00",
                "storage" : {
                }
            },
            "0xbbbf5374fce5edbc8e2a8697c15331677e6ebf0b" : {
                "balance" : "0x0fffffffffffff",
                "code" : "0x5b61c3506080511015602b576000600061c3506000600262013178fa6000556001608051016080526000565b608051600155",
                "nonce" : "0x00",
                "storage" : {
                }
            },
            "0xcccf5374fce5edbc8e2a8697c15331677e6ebf0b" : {
                "balance" : "0x0fffffffffffff",
                "code" : "0x5b61c3506080511015602b576000600061c3506000600262013178fa6000526001608051016080526000565b608051602052",
                "nonce" : "0x00",
                "storage" : {
                }
            }
        }
    },
    "static_Call50000_sha256_d1g0v0_EIP158" : {
        "_info" : {
            "comment" : "",
            "filledwith" : "cpp-1.3.0+commit.6e0ce939.Linux.g++",
            "lllcversion" : "Version: 0.4.18-develop.2017.9.25+commit.a72237f2.Linux.g++",
            "source" : "src/BlockchainTestsFiller/GeneralStateTests/stStaticCall/static_Call50000_sha256_d1g0v0Filler.json",
            "sourceHash" : "57ca052bb6e2b8999dffec42f9274552939180bb23d9947721d28dac6806dff8"
        },
        "blocks" : [
            {
                "blockHeader" : {
                    "bloom" : "0x00000000000000000000000000000000000000000000000000000000000000000000000000000000000000000000000000000000000000000000000000000000000000000000000000000000000000000000000000000000000000000000000000000000000000000000000000000000000000000000000000000000000000000000000000000000000000000000000000000000000000000000000000000000000000000000000000000000000000000000000000000000000000000000000000000000000000000000000000000000000000000000000000000000000000000000000000000000000000000000000000000000000000000000000000000000",
                    "coinbase" : "0xb94f5374fce5edbc8e2a8697c15331677e6ebf0b",
                    "difficulty" : "0x020000",
                    "extraData" : "",
                    "gasLimit" : "0xe9f2bf40",
                    "gasUsed" : "0xe64b57ea",
                    "hash" : "0x93a5334a7cd3695270a59c2447d7fcad81fc7daa3823974990f70e4babc43ea1",
                    "mixHash" : "0x655a2ce84ae5c7333be74926828d77acecb82d2988cc71ae7ce06054932cc11b",
                    "nonce" : "0xe7d4fcfc6fa8a292",
                    "number" : "0x01",
                    "parentHash" : "0x4e818ebaff1d4dec8babc694cb01b22bd58828d45324e9037f5ff48c7ec4b959",
                    "receiptTrie" : "0x54e546616aa4471ee75b6ee1e29da5e8a1ea758bff9e78a94e318fc01fa40c28",
                    "stateRoot" : "0xaea011b37df43b847817aa97c68d7fcd07ae10dc9b41c863091a57afe98498df",
                    "timestamp" : "0x03e8",
                    "transactionsTrie" : "0x6d9d1fa1a577f0512d86b8e096160053d0329e10c90a96cde022e8313b9fd3be",
                    "uncleHash" : "0x1dcc4de8dec75d7aab85b567b6ccd41ad312451b948a7413f0a142fd40d49347"
                },
                "rlp" : "0xf90283f901faa04e818ebaff1d4dec8babc694cb01b22bd58828d45324e9037f5ff48c7ec4b959a01dcc4de8dec75d7aab85b567b6ccd41ad312451b948a7413f0a142fd40d4934794b94f5374fce5edbc8e2a8697c15331677e6ebf0ba0aea011b37df43b847817aa97c68d7fcd07ae10dc9b41c863091a57afe98498dfa06d9d1fa1a577f0512d86b8e096160053d0329e10c90a96cde022e8313b9fd3bea054e546616aa4471ee75b6ee1e29da5e8a1ea758bff9e78a94e318fc01fa40c28b9010000000000000000000000000000000000000000000000000000000000000000000000000000000000000000000000000000000000000000000000000000000000000000000000000000000000000000000000000000000000000000000000000000000000000000000000000000000000000000000000000000000000000000000000000000000000000000000000000000000000000000000000000000000000000000000000000000000000000000000000000000000000000000000000000000000000000000000000000000000000000000000000000000000000000000000000000000000000000000000000000000000000000000000000000000000000830200000184e9f2bf4084e64b57ea8203e880a0655a2ce84ae5c7333be74926828d77acecb82d2988cc71ae7ce06054932cc11b88e7d4fcfc6fa8a292f883f881800184e9f2bf409410000000000000000000000000000000000000000aa0000000000000000000000000cccf5374fce5edbc8e2a8697c15331677e6ebf0b1ca0f18255723d794581ce3a63fab28778b56d4c6fe373df23d8a573e002ea5bb43da04d7093ebf45058b04fa0672e9621ee3a0a4396a15282232f37ff3516ae961c13c0",
                "transactions" : [
                    {
                        "data" : "0x000000000000000000000000cccf5374fce5edbc8e2a8697c15331677e6ebf0b",
                        "gasLimit" : "0xe9f2bf40",
                        "gasPrice" : "0x01",
                        "nonce" : "0x00",
                        "r" : "0xf18255723d794581ce3a63fab28778b56d4c6fe373df23d8a573e002ea5bb43d",
                        "s" : "0x4d7093ebf45058b04fa0672e9621ee3a0a4396a15282232f37ff3516ae961c13",
                        "to" : "0x1000000000000000000000000000000000000000",
                        "v" : "0x1c",
                        "value" : "0x0a"
                    }
                ],
                "uncleHeaders" : [
                ]
            }
        ],
        "genesisBlockHeader" : {
            "bloom" : "0x00000000000000000000000000000000000000000000000000000000000000000000000000000000000000000000000000000000000000000000000000000000000000000000000000000000000000000000000000000000000000000000000000000000000000000000000000000000000000000000000000000000000000000000000000000000000000000000000000000000000000000000000000000000000000000000000000000000000000000000000000000000000000000000000000000000000000000000000000000000000000000000000000000000000000000000000000000000000000000000000000000000000000000000000000000000",
            "coinbase" : "0xb94f5374fce5edbc8e2a8697c15331677e6ebf0b",
            "difficulty" : "0x020000",
            "extraData" : "0x42",
            "gasLimit" : "0xe9f2bf40",
            "gasUsed" : "0x00",
            "hash" : "0x4e818ebaff1d4dec8babc694cb01b22bd58828d45324e9037f5ff48c7ec4b959",
            "mixHash" : "0x56e81f171bcc55a6ff8345e692c0f86e5b48e01b996cadc001622fb5e363b421",
            "nonce" : "0x0102030405060708",
            "number" : "0x00",
            "parentHash" : "0x0000000000000000000000000000000000000000000000000000000000000000",
            "receiptTrie" : "0x56e81f171bcc55a6ff8345e692c0f86e5b48e01b996cadc001622fb5e363b421",
            "stateRoot" : "0xf32e45c902bcba3bca8870fda8bbad554d231a87eb46dd7401d9c5a855d6cf66",
            "timestamp" : "0x03b6",
            "transactionsTrie" : "0x56e81f171bcc55a6ff8345e692c0f86e5b48e01b996cadc001622fb5e363b421",
            "uncleHash" : "0x1dcc4de8dec75d7aab85b567b6ccd41ad312451b948a7413f0a142fd40d49347"
        },
        "genesisRLP" : "0xf901fbf901f6a00000000000000000000000000000000000000000000000000000000000000000a01dcc4de8dec75d7aab85b567b6ccd41ad312451b948a7413f0a142fd40d4934794b94f5374fce5edbc8e2a8697c15331677e6ebf0ba0f32e45c902bcba3bca8870fda8bbad554d231a87eb46dd7401d9c5a855d6cf66a056e81f171bcc55a6ff8345e692c0f86e5b48e01b996cadc001622fb5e363b421a056e81f171bcc55a6ff8345e692c0f86e5b48e01b996cadc001622fb5e363b421b9010000000000000000000000000000000000000000000000000000000000000000000000000000000000000000000000000000000000000000000000000000000000000000000000000000000000000000000000000000000000000000000000000000000000000000000000000000000000000000000000000000000000000000000000000000000000000000000000000000000000000000000000000000000000000000000000000000000000000000000000000000000000000000000000000000000000000000000000000000000000000000000000000000000000000000000000000000000000000000000000000000000000000000000000000000000000830200008084e9f2bf40808203b642a056e81f171bcc55a6ff8345e692c0f86e5b48e01b996cadc001622fb5e363b421880102030405060708c0c0",
        "lastblockhash" : "0x93a5334a7cd3695270a59c2447d7fcad81fc7daa3823974990f70e4babc43ea1",
        "network" : "EIP158",
        "postState" : {
            "0x1000000000000000000000000000000000000000" : {
                "balance" : "0x0a",
                "code" : "0x6000600060006000346000355af16000555a600155",
                "nonce" : "0x00",
                "storage" : {
                    "0x01" : "0x03a7b579"
                }
            },
            "0xa94f5374fce5edbc8e2a8697c15331677e6ebf0b" : {
                "balance" : "0xffffffffffffffffffffffff19b4a80b",
                "code" : "",
                "nonce" : "0x01",
                "storage" : {
                }
            },
            "0xb94f5374fce5edbc8e2a8697c15331677e6ebf0b" : {
                "balance" : "0x456391832b3f57ea",
                "code" : "",
                "nonce" : "0x00",
                "storage" : {
                }
            },
            "0xbbbf5374fce5edbc8e2a8697c15331677e6ebf0b" : {
                "balance" : "0x0fffffffffffff",
                "code" : "0x5b61c3506080511015602b576000600061c3506000600262013178fa6000556001608051016080526000565b608051600155",
                "nonce" : "0x00",
                "storage" : {
                }
            },
            "0xcccf5374fce5edbc8e2a8697c15331677e6ebf0b" : {
                "balance" : "0x0fffffffffffff",
                "code" : "0x5b61c3506080511015602b576000600061c3506000600262013178fa6000526001608051016080526000565b608051602052",
                "nonce" : "0x00",
                "storage" : {
                }
            }
        },
        "pre" : {
            "0x1000000000000000000000000000000000000000" : {
                "balance" : "0x00",
                "code" : "0x6000600060006000346000355af16000555a600155",
                "nonce" : "0x00",
                "storage" : {
                }
            },
            "0xa94f5374fce5edbc8e2a8697c15331677e6ebf0b" : {
                "balance" : "0xffffffffffffffffffffffffffffffff",
                "code" : "",
                "nonce" : "0x00",
                "storage" : {
                }
            },
            "0xbbbf5374fce5edbc8e2a8697c15331677e6ebf0b" : {
                "balance" : "0x0fffffffffffff",
                "code" : "0x5b61c3506080511015602b576000600061c3506000600262013178fa6000556001608051016080526000565b608051600155",
                "nonce" : "0x00",
                "storage" : {
                }
            },
            "0xcccf5374fce5edbc8e2a8697c15331677e6ebf0b" : {
                "balance" : "0x0fffffffffffff",
                "code" : "0x5b61c3506080511015602b576000600061c3506000600262013178fa6000526001608051016080526000565b608051602052",
                "nonce" : "0x00",
                "storage" : {
                }
            }
        }
    },
    "static_Call50000_sha256_d1g0v0_Frontier" : {
        "_info" : {
            "comment" : "",
            "filledwith" : "cpp-1.3.0+commit.6e0ce939.Linux.g++",
            "lllcversion" : "Version: 0.4.18-develop.2017.9.25+commit.a72237f2.Linux.g++",
            "source" : "src/BlockchainTestsFiller/GeneralStateTests/stStaticCall/static_Call50000_sha256_d1g0v0Filler.json",
            "sourceHash" : "57ca052bb6e2b8999dffec42f9274552939180bb23d9947721d28dac6806dff8"
        },
        "blocks" : [
            {
                "blockHeader" : {
                    "bloom" : "0x00000000000000000000000000000000000000000000000000000000000000000000000000000000000000000000000000000000000000000000000000000000000000000000000000000000000000000000000000000000000000000000000000000000000000000000000000000000000000000000000000000000000000000000000000000000000000000000000000000000000000000000000000000000000000000000000000000000000000000000000000000000000000000000000000000000000000000000000000000000000000000000000000000000000000000000000000000000000000000000000000000000000000000000000000000000",
                    "coinbase" : "0xb94f5374fce5edbc8e2a8697c15331677e6ebf0b",
                    "difficulty" : "0x020000",
                    "extraData" : "",
                    "gasLimit" : "0xe9f2bf40",
                    "gasUsed" : "0xe9f2bf40",
                    "hash" : "0xc19836e2468f5d1a6dac9dd49a411f170b7a23af401f6ea30f4ac4cf05c35b77",
                    "mixHash" : "0x0fa1fc2ba55b3af5c61d605833a85420cb90b0cc3396ba529e1a0fbc805d6d44",
                    "nonce" : "0x537fb1e45b3ed277",
                    "number" : "0x01",
                    "parentHash" : "0x4e818ebaff1d4dec8babc694cb01b22bd58828d45324e9037f5ff48c7ec4b959",
                    "receiptTrie" : "0x57e1626bc05c6247421af03f4a1851b7712d86753eb5cd142ed3abec3a51f6b1",
                    "stateRoot" : "0x62f68cab47ac16febb2549baf492a83b514cecd4c2010ea031c9e4156a8cc439",
                    "timestamp" : "0x03e8",
                    "transactionsTrie" : "0x6d9d1fa1a577f0512d86b8e096160053d0329e10c90a96cde022e8313b9fd3be",
                    "uncleHash" : "0x1dcc4de8dec75d7aab85b567b6ccd41ad312451b948a7413f0a142fd40d49347"
                },
                "rlp" : "0xf90283f901faa04e818ebaff1d4dec8babc694cb01b22bd58828d45324e9037f5ff48c7ec4b959a01dcc4de8dec75d7aab85b567b6ccd41ad312451b948a7413f0a142fd40d4934794b94f5374fce5edbc8e2a8697c15331677e6ebf0ba062f68cab47ac16febb2549baf492a83b514cecd4c2010ea031c9e4156a8cc439a06d9d1fa1a577f0512d86b8e096160053d0329e10c90a96cde022e8313b9fd3bea057e1626bc05c6247421af03f4a1851b7712d86753eb5cd142ed3abec3a51f6b1b9010000000000000000000000000000000000000000000000000000000000000000000000000000000000000000000000000000000000000000000000000000000000000000000000000000000000000000000000000000000000000000000000000000000000000000000000000000000000000000000000000000000000000000000000000000000000000000000000000000000000000000000000000000000000000000000000000000000000000000000000000000000000000000000000000000000000000000000000000000000000000000000000000000000000000000000000000000000000000000000000000000000000000000000000000000000000830200000184e9f2bf4084e9f2bf408203e880a00fa1fc2ba55b3af5c61d605833a85420cb90b0cc3396ba529e1a0fbc805d6d4488537fb1e45b3ed277f883f881800184e9f2bf409410000000000000000000000000000000000000000aa0000000000000000000000000cccf5374fce5edbc8e2a8697c15331677e6ebf0b1ca0f18255723d794581ce3a63fab28778b56d4c6fe373df23d8a573e002ea5bb43da04d7093ebf45058b04fa0672e9621ee3a0a4396a15282232f37ff3516ae961c13c0",
                "transactions" : [
                    {
                        "data" : "0x000000000000000000000000cccf5374fce5edbc8e2a8697c15331677e6ebf0b",
                        "gasLimit" : "0xe9f2bf40",
                        "gasPrice" : "0x01",
                        "nonce" : "0x00",
                        "r" : "0xf18255723d794581ce3a63fab28778b56d4c6fe373df23d8a573e002ea5bb43d",
                        "s" : "0x4d7093ebf45058b04fa0672e9621ee3a0a4396a15282232f37ff3516ae961c13",
                        "to" : "0x1000000000000000000000000000000000000000",
                        "v" : "0x1c",
                        "value" : "0x0a"
                    }
                ],
                "uncleHeaders" : [
                ]
            }
        ],
        "genesisBlockHeader" : {
            "bloom" : "0x00000000000000000000000000000000000000000000000000000000000000000000000000000000000000000000000000000000000000000000000000000000000000000000000000000000000000000000000000000000000000000000000000000000000000000000000000000000000000000000000000000000000000000000000000000000000000000000000000000000000000000000000000000000000000000000000000000000000000000000000000000000000000000000000000000000000000000000000000000000000000000000000000000000000000000000000000000000000000000000000000000000000000000000000000000000",
            "coinbase" : "0xb94f5374fce5edbc8e2a8697c15331677e6ebf0b",
            "difficulty" : "0x020000",
            "extraData" : "0x42",
            "gasLimit" : "0xe9f2bf40",
            "gasUsed" : "0x00",
            "hash" : "0x4e818ebaff1d4dec8babc694cb01b22bd58828d45324e9037f5ff48c7ec4b959",
            "mixHash" : "0x56e81f171bcc55a6ff8345e692c0f86e5b48e01b996cadc001622fb5e363b421",
            "nonce" : "0x0102030405060708",
            "number" : "0x00",
            "parentHash" : "0x0000000000000000000000000000000000000000000000000000000000000000",
            "receiptTrie" : "0x56e81f171bcc55a6ff8345e692c0f86e5b48e01b996cadc001622fb5e363b421",
            "stateRoot" : "0xf32e45c902bcba3bca8870fda8bbad554d231a87eb46dd7401d9c5a855d6cf66",
            "timestamp" : "0x03b6",
            "transactionsTrie" : "0x56e81f171bcc55a6ff8345e692c0f86e5b48e01b996cadc001622fb5e363b421",
            "uncleHash" : "0x1dcc4de8dec75d7aab85b567b6ccd41ad312451b948a7413f0a142fd40d49347"
        },
        "genesisRLP" : "0xf901fbf901f6a00000000000000000000000000000000000000000000000000000000000000000a01dcc4de8dec75d7aab85b567b6ccd41ad312451b948a7413f0a142fd40d4934794b94f5374fce5edbc8e2a8697c15331677e6ebf0ba0f32e45c902bcba3bca8870fda8bbad554d231a87eb46dd7401d9c5a855d6cf66a056e81f171bcc55a6ff8345e692c0f86e5b48e01b996cadc001622fb5e363b421a056e81f171bcc55a6ff8345e692c0f86e5b48e01b996cadc001622fb5e363b421b9010000000000000000000000000000000000000000000000000000000000000000000000000000000000000000000000000000000000000000000000000000000000000000000000000000000000000000000000000000000000000000000000000000000000000000000000000000000000000000000000000000000000000000000000000000000000000000000000000000000000000000000000000000000000000000000000000000000000000000000000000000000000000000000000000000000000000000000000000000000000000000000000000000000000000000000000000000000000000000000000000000000000000000000000000000000000830200008084e9f2bf40808203b642a056e81f171bcc55a6ff8345e692c0f86e5b48e01b996cadc001622fb5e363b421880102030405060708c0c0",
        "lastblockhash" : "0xc19836e2468f5d1a6dac9dd49a411f170b7a23af401f6ea30f4ac4cf05c35b77",
        "network" : "Frontier",
        "postState" : {
            "0x1000000000000000000000000000000000000000" : {
                "balance" : "0x00",
                "code" : "0x6000600060006000346000355af16000555a600155",
                "nonce" : "0x00",
                "storage" : {
                }
            },
            "0xa94f5374fce5edbc8e2a8697c15331677e6ebf0b" : {
                "balance" : "0xffffffffffffffffffffffff160d40bf",
                "code" : "",
                "nonce" : "0x01",
                "storage" : {
                }
            },
            "0xb94f5374fce5edbc8e2a8697c15331677e6ebf0b" : {
                "balance" : "0x456391832ee6bf40",
                "code" : "",
                "nonce" : "0x00",
                "storage" : {
                }
            },
            "0xbbbf5374fce5edbc8e2a8697c15331677e6ebf0b" : {
                "balance" : "0x0fffffffffffff",
                "code" : "0x5b61c3506080511015602b576000600061c3506000600262013178fa6000556001608051016080526000565b608051600155",
                "nonce" : "0x00",
                "storage" : {
                }
            },
            "0xcccf5374fce5edbc8e2a8697c15331677e6ebf0b" : {
                "balance" : "0x0fffffffffffff",
                "code" : "0x5b61c3506080511015602b576000600061c3506000600262013178fa6000526001608051016080526000565b608051602052",
                "nonce" : "0x00",
                "storage" : {
                }
            }
        },
        "pre" : {
            "0x1000000000000000000000000000000000000000" : {
                "balance" : "0x00",
                "code" : "0x6000600060006000346000355af16000555a600155",
                "nonce" : "0x00",
                "storage" : {
                }
            },
            "0xa94f5374fce5edbc8e2a8697c15331677e6ebf0b" : {
                "balance" : "0xffffffffffffffffffffffffffffffff",
                "code" : "",
                "nonce" : "0x00",
                "storage" : {
                }
            },
            "0xbbbf5374fce5edbc8e2a8697c15331677e6ebf0b" : {
                "balance" : "0x0fffffffffffff",
                "code" : "0x5b61c3506080511015602b576000600061c3506000600262013178fa6000556001608051016080526000565b608051600155",
                "nonce" : "0x00",
                "storage" : {
                }
            },
            "0xcccf5374fce5edbc8e2a8697c15331677e6ebf0b" : {
                "balance" : "0x0fffffffffffff",
                "code" : "0x5b61c3506080511015602b576000600061c3506000600262013178fa6000526001608051016080526000565b608051602052",
                "nonce" : "0x00",
                "storage" : {
                }
            }
        }
    },
    "static_Call50000_sha256_d1g0v0_Homestead" : {
        "_info" : {
            "comment" : "",
            "filledwith" : "cpp-1.3.0+commit.6e0ce939.Linux.g++",
            "lllcversion" : "Version: 0.4.18-develop.2017.9.25+commit.a72237f2.Linux.g++",
            "source" : "src/BlockchainTestsFiller/GeneralStateTests/stStaticCall/static_Call50000_sha256_d1g0v0Filler.json",
            "sourceHash" : "57ca052bb6e2b8999dffec42f9274552939180bb23d9947721d28dac6806dff8"
        },
        "blocks" : [
            {
                "blockHeader" : {
                    "bloom" : "0x00000000000000000000000000000000000000000000000000000000000000000000000000000000000000000000000000000000000000000000000000000000000000000000000000000000000000000000000000000000000000000000000000000000000000000000000000000000000000000000000000000000000000000000000000000000000000000000000000000000000000000000000000000000000000000000000000000000000000000000000000000000000000000000000000000000000000000000000000000000000000000000000000000000000000000000000000000000000000000000000000000000000000000000000000000000",
                    "coinbase" : "0xb94f5374fce5edbc8e2a8697c15331677e6ebf0b",
                    "difficulty" : "0x020000",
                    "extraData" : "",
                    "gasLimit" : "0xe9f2bf40",
                    "gasUsed" : "0xe9f2bf40",
                    "hash" : "0xde2ef9ea0ba0f0254dae1b87fbc4f59cd5af09020731bf7e52e316762ddb22eb",
                    "mixHash" : "0x0c4a6088e96372c4b959d75b6d6d8b26f4692cf174c8c91b3cccbe7ab5ec1e0a",
                    "nonce" : "0x730c67971a0c3861",
                    "number" : "0x01",
                    "parentHash" : "0x4e818ebaff1d4dec8babc694cb01b22bd58828d45324e9037f5ff48c7ec4b959",
                    "receiptTrie" : "0x57e1626bc05c6247421af03f4a1851b7712d86753eb5cd142ed3abec3a51f6b1",
                    "stateRoot" : "0x62f68cab47ac16febb2549baf492a83b514cecd4c2010ea031c9e4156a8cc439",
                    "timestamp" : "0x03e8",
                    "transactionsTrie" : "0x6d9d1fa1a577f0512d86b8e096160053d0329e10c90a96cde022e8313b9fd3be",
                    "uncleHash" : "0x1dcc4de8dec75d7aab85b567b6ccd41ad312451b948a7413f0a142fd40d49347"
                },
                "rlp" : "0xf90283f901faa04e818ebaff1d4dec8babc694cb01b22bd58828d45324e9037f5ff48c7ec4b959a01dcc4de8dec75d7aab85b567b6ccd41ad312451b948a7413f0a142fd40d4934794b94f5374fce5edbc8e2a8697c15331677e6ebf0ba062f68cab47ac16febb2549baf492a83b514cecd4c2010ea031c9e4156a8cc439a06d9d1fa1a577f0512d86b8e096160053d0329e10c90a96cde022e8313b9fd3bea057e1626bc05c6247421af03f4a1851b7712d86753eb5cd142ed3abec3a51f6b1b9010000000000000000000000000000000000000000000000000000000000000000000000000000000000000000000000000000000000000000000000000000000000000000000000000000000000000000000000000000000000000000000000000000000000000000000000000000000000000000000000000000000000000000000000000000000000000000000000000000000000000000000000000000000000000000000000000000000000000000000000000000000000000000000000000000000000000000000000000000000000000000000000000000000000000000000000000000000000000000000000000000000000000000000000000000000000830200000184e9f2bf4084e9f2bf408203e880a00c4a6088e96372c4b959d75b6d6d8b26f4692cf174c8c91b3cccbe7ab5ec1e0a88730c67971a0c3861f883f881800184e9f2bf409410000000000000000000000000000000000000000aa0000000000000000000000000cccf5374fce5edbc8e2a8697c15331677e6ebf0b1ca0f18255723d794581ce3a63fab28778b56d4c6fe373df23d8a573e002ea5bb43da04d7093ebf45058b04fa0672e9621ee3a0a4396a15282232f37ff3516ae961c13c0",
                "transactions" : [
                    {
                        "data" : "0x000000000000000000000000cccf5374fce5edbc8e2a8697c15331677e6ebf0b",
                        "gasLimit" : "0xe9f2bf40",
                        "gasPrice" : "0x01",
                        "nonce" : "0x00",
                        "r" : "0xf18255723d794581ce3a63fab28778b56d4c6fe373df23d8a573e002ea5bb43d",
                        "s" : "0x4d7093ebf45058b04fa0672e9621ee3a0a4396a15282232f37ff3516ae961c13",
                        "to" : "0x1000000000000000000000000000000000000000",
                        "v" : "0x1c",
                        "value" : "0x0a"
                    }
                ],
                "uncleHeaders" : [
                ]
            }
        ],
        "genesisBlockHeader" : {
            "bloom" : "0x00000000000000000000000000000000000000000000000000000000000000000000000000000000000000000000000000000000000000000000000000000000000000000000000000000000000000000000000000000000000000000000000000000000000000000000000000000000000000000000000000000000000000000000000000000000000000000000000000000000000000000000000000000000000000000000000000000000000000000000000000000000000000000000000000000000000000000000000000000000000000000000000000000000000000000000000000000000000000000000000000000000000000000000000000000000",
            "coinbase" : "0xb94f5374fce5edbc8e2a8697c15331677e6ebf0b",
            "difficulty" : "0x020000",
            "extraData" : "0x42",
            "gasLimit" : "0xe9f2bf40",
            "gasUsed" : "0x00",
            "hash" : "0x4e818ebaff1d4dec8babc694cb01b22bd58828d45324e9037f5ff48c7ec4b959",
            "mixHash" : "0x56e81f171bcc55a6ff8345e692c0f86e5b48e01b996cadc001622fb5e363b421",
            "nonce" : "0x0102030405060708",
            "number" : "0x00",
            "parentHash" : "0x0000000000000000000000000000000000000000000000000000000000000000",
            "receiptTrie" : "0x56e81f171bcc55a6ff8345e692c0f86e5b48e01b996cadc001622fb5e363b421",
            "stateRoot" : "0xf32e45c902bcba3bca8870fda8bbad554d231a87eb46dd7401d9c5a855d6cf66",
            "timestamp" : "0x03b6",
            "transactionsTrie" : "0x56e81f171bcc55a6ff8345e692c0f86e5b48e01b996cadc001622fb5e363b421",
            "uncleHash" : "0x1dcc4de8dec75d7aab85b567b6ccd41ad312451b948a7413f0a142fd40d49347"
        },
        "genesisRLP" : "0xf901fbf901f6a00000000000000000000000000000000000000000000000000000000000000000a01dcc4de8dec75d7aab85b567b6ccd41ad312451b948a7413f0a142fd40d4934794b94f5374fce5edbc8e2a8697c15331677e6ebf0ba0f32e45c902bcba3bca8870fda8bbad554d231a87eb46dd7401d9c5a855d6cf66a056e81f171bcc55a6ff8345e692c0f86e5b48e01b996cadc001622fb5e363b421a056e81f171bcc55a6ff8345e692c0f86e5b48e01b996cadc001622fb5e363b421b9010000000000000000000000000000000000000000000000000000000000000000000000000000000000000000000000000000000000000000000000000000000000000000000000000000000000000000000000000000000000000000000000000000000000000000000000000000000000000000000000000000000000000000000000000000000000000000000000000000000000000000000000000000000000000000000000000000000000000000000000000000000000000000000000000000000000000000000000000000000000000000000000000000000000000000000000000000000000000000000000000000000000000000000000000000000000830200008084e9f2bf40808203b642a056e81f171bcc55a6ff8345e692c0f86e5b48e01b996cadc001622fb5e363b421880102030405060708c0c0",
        "lastblockhash" : "0xde2ef9ea0ba0f0254dae1b87fbc4f59cd5af09020731bf7e52e316762ddb22eb",
        "network" : "Homestead",
        "postState" : {
            "0x1000000000000000000000000000000000000000" : {
                "balance" : "0x00",
                "code" : "0x6000600060006000346000355af16000555a600155",
                "nonce" : "0x00",
                "storage" : {
                }
            },
            "0xa94f5374fce5edbc8e2a8697c15331677e6ebf0b" : {
                "balance" : "0xffffffffffffffffffffffff160d40bf",
                "code" : "",
                "nonce" : "0x01",
                "storage" : {
                }
            },
            "0xb94f5374fce5edbc8e2a8697c15331677e6ebf0b" : {
                "balance" : "0x456391832ee6bf40",
                "code" : "",
                "nonce" : "0x00",
                "storage" : {
                }
            },
            "0xbbbf5374fce5edbc8e2a8697c15331677e6ebf0b" : {
                "balance" : "0x0fffffffffffff",
                "code" : "0x5b61c3506080511015602b576000600061c3506000600262013178fa6000556001608051016080526000565b608051600155",
                "nonce" : "0x00",
                "storage" : {
                }
            },
            "0xcccf5374fce5edbc8e2a8697c15331677e6ebf0b" : {
                "balance" : "0x0fffffffffffff",
                "code" : "0x5b61c3506080511015602b576000600061c3506000600262013178fa6000526001608051016080526000565b608051602052",
                "nonce" : "0x00",
                "storage" : {
                }
            }
        },
        "pre" : {
            "0x1000000000000000000000000000000000000000" : {
                "balance" : "0x00",
                "code" : "0x6000600060006000346000355af16000555a600155",
                "nonce" : "0x00",
                "storage" : {
                }
            },
            "0xa94f5374fce5edbc8e2a8697c15331677e6ebf0b" : {
                "balance" : "0xffffffffffffffffffffffffffffffff",
                "code" : "",
                "nonce" : "0x00",
                "storage" : {
                }
            },
            "0xbbbf5374fce5edbc8e2a8697c15331677e6ebf0b" : {
                "balance" : "0x0fffffffffffff",
                "code" : "0x5b61c3506080511015602b576000600061c3506000600262013178fa6000556001608051016080526000565b608051600155",
                "nonce" : "0x00",
                "storage" : {
                }
            },
            "0xcccf5374fce5edbc8e2a8697c15331677e6ebf0b" : {
                "balance" : "0x0fffffffffffff",
                "code" : "0x5b61c3506080511015602b576000600061c3506000600262013178fa6000526001608051016080526000565b608051602052",
                "nonce" : "0x00",
                "storage" : {
                }
            }
        }
    }
}