{
    "modexp_d27g0v0_Byzantium" : {
        "_info" : {
            "comment" : "",
            "filledwith" : "cpp-1.3.0+commit.4e101574.Linux.g++",
            "lllcversion" : "Version: 0.4.18-develop.2017.10.11+commit.81f9f86c.Linux.g++",
            "source" : "src/BlockchainTestsFiller/GeneralStateTests/stPreCompiledContracts/modexp_d27g0v0Filler.json",
            "sourceHash" : "c1feb62e33ea317081f950c7dea9641b1ac4929499a6703ab6b106566c4c717e"
        },
        "blocks" : [
            {
                "blockHeader" : {
                    "bloom" : "0x00000000000000000000000000000000000000000000000000000000000000000000000000000000000000000000000000000000000000000000000000000000000000000000000000000000000000000000000000000000000000000000000000000000000000000000000000000000000000000000000000000000000000000000000000000000000000000000000000000000000000000000000000000000000000000000000000000000000000000000000000000000000000000000000000000000000000000000000000000000000000000000000000000000000000000000000000000000000000000000000000000000000000000000000000000000",
                    "coinbase" : "0x2adc25665018aa1fe0e6bc666dac8fc2697ff9ba",
                    "difficulty" : "0x020000",
                    "extraData" : "",
                    "gasLimit" : "0x02540be400",
                    "gasUsed" : "0xfa6f",
                    "hash" : "0x0e39cba8c96e7b29554f9d7acc8814dba6e6622cd0b1ae2394dfbd4eefa4b9f5",
                    "mixHash" : "0x7dc80f828305e1a241f4b4766ca1646625ba03c4ba9f5a8e665e92906aed576e",
                    "nonce" : "0xbccb211267f7f4da",
                    "number" : "0x01",
                    "parentHash" : "0x70fd8962467cac8e2412f97cc4f775613ccc23d5340252ee5cca67b868639273",
                    "receiptTrie" : "0xe0d79da65e3950bb5e58dc58384933a3b8ba94c6cea987eead12239bd2caf1ba",
                    "stateRoot" : "0x20cbdb326e7af03762393a134b4df833fbee0c2de71e624f2a648a4a3db21d33",
                    "timestamp" : "0x03e8",
                    "transactionsTrie" : "0x0fb70f48d1b4f0d2775840bb302e715733af908f38eab368d8212fa2a14558d6",
                    "uncleHash" : "0x1dcc4de8dec75d7aab85b567b6ccd41ad312451b948a7413f0a142fd40d49347"
                },
                "rlp" : "0xf903caf901f9a070fd8962467cac8e2412f97cc4f775613ccc23d5340252ee5cca67b868639273a01dcc4de8dec75d7aab85b567b6ccd41ad312451b948a7413f0a142fd40d49347942adc25665018aa1fe0e6bc666dac8fc2697ff9baa020cbdb326e7af03762393a134b4df833fbee0c2de71e624f2a648a4a3db21d33a00fb70f48d1b4f0d2775840bb302e715733af908f38eab368d8212fa2a14558d6a0e0d79da65e3950bb5e58dc58384933a3b8ba94c6cea987eead12239bd2caf1bab901000000000000000000000000000000000000000000000000000000000000000000000000000000000000000000000000000000000000000000000000000000000000000000000000000000000000000000000000000000000000000000000000000000000000000000000000000000000000000000000000000000000000000000000000000000000000000000000000000000000000000000000000000000000000000000000000000000000000000000000000000000000000000000000000000000000000000000000000000000000000000000000000000000000000000000000000000000000000000000000000000000000000000000000000000000000083020000018502540be40082fa6f8203e880a07dc80f828305e1a241f4b4766ca1646625ba03c4ba9f5a8e665e92906aed576e88bccb211267f7f4daf901caf901c780018405f5e10094100000000000000000000000000000000000000080b9016400000000000000000000000000000000000000000000000000000000000000010000000000000000000000000000000000000000000000000000000000000101000000000000000000000000000000000000000000000000000000000000000202000000000000000000000000000000000000000000000000000000000000000000000000000000000000000000000000000000000000000000000000000000000000000000000000000000000000000000000000000000000000000000000000000000000000000000000000000000000000000000000000000000000000000000000000000000000000000000000000000000000000000000000000000000000000000000000000000000000000000000000000000000000000000000000000000000000000000000000000000000000000000000000000000000000000000000000000000000000000000000000000000000000000000000000000000000000300061ba05361c1c6cbc2ba978f988fa5c75720dcd483a6fa87c46f81897fa7333e824b89a024fe194b3c3ab1499cc23bf96993220815b94c5454379370f5bbf057540fe326c0",
                "transactions" : [
                    {
                        "data" : "0x0000000000000000000000000000000000000000000000000000000000000001000000000000000000000000000000000000000000000000000000000000010100000000000000000000000000000000000000000000000000000000000000020200000000000000000000000000000000000000000000000000000000000000000000000000000000000000000000000000000000000000000000000000000000000000000000000000000000000000000000000000000000000000000000000000000000000000000000000000000000000000000000000000000000000000000000000000000000000000000000000000000000000000000000000000000000000000000000000000000000000000000000000000000000000000000000000000000000000000000000000000000000000000000000000000000000000000000000000000000000000000000000000000000000000000000000000000000000030006",
                        "gasLimit" : "0x05f5e100",
                        "gasPrice" : "0x01",
                        "nonce" : "0x00",
                        "r" : "0x5361c1c6cbc2ba978f988fa5c75720dcd483a6fa87c46f81897fa7333e824b89",
                        "s" : "0x24fe194b3c3ab1499cc23bf96993220815b94c5454379370f5bbf057540fe326",
                        "to" : "0x1000000000000000000000000000000000000000",
                        "v" : "0x1b",
                        "value" : "0x00"
                    }
                ],
                "uncleHeaders" : [
                ]
            }
        ],
        "genesisBlockHeader" : {
            "bloom" : "0x00000000000000000000000000000000000000000000000000000000000000000000000000000000000000000000000000000000000000000000000000000000000000000000000000000000000000000000000000000000000000000000000000000000000000000000000000000000000000000000000000000000000000000000000000000000000000000000000000000000000000000000000000000000000000000000000000000000000000000000000000000000000000000000000000000000000000000000000000000000000000000000000000000000000000000000000000000000000000000000000000000000000000000000000000000000",
            "coinbase" : "0x2adc25665018aa1fe0e6bc666dac8fc2697ff9ba",
            "difficulty" : "0x020000",
            "extraData" : "0x42",
            "gasLimit" : "0x02540be400",
            "gasUsed" : "0x00",
            "hash" : "0x70fd8962467cac8e2412f97cc4f775613ccc23d5340252ee5cca67b868639273",
            "mixHash" : "0x56e81f171bcc55a6ff8345e692c0f86e5b48e01b996cadc001622fb5e363b421",
            "nonce" : "0x0102030405060708",
            "number" : "0x00",
            "parentHash" : "0x0000000000000000000000000000000000000000000000000000000000000000",
            "receiptTrie" : "0x56e81f171bcc55a6ff8345e692c0f86e5b48e01b996cadc001622fb5e363b421",
            "stateRoot" : "0xb0afba507e6fef0e690450e0c590ea05c53f4d93ea93a7b92449c437591484ca",
            "timestamp" : "0x03b6",
            "transactionsTrie" : "0x56e81f171bcc55a6ff8345e692c0f86e5b48e01b996cadc001622fb5e363b421",
            "uncleHash" : "0x1dcc4de8dec75d7aab85b567b6ccd41ad312451b948a7413f0a142fd40d49347"
        },
        "genesisRLP" : "0xf901fcf901f7a00000000000000000000000000000000000000000000000000000000000000000a01dcc4de8dec75d7aab85b567b6ccd41ad312451b948a7413f0a142fd40d49347942adc25665018aa1fe0e6bc666dac8fc2697ff9baa0b0afba507e6fef0e690450e0c590ea05c53f4d93ea93a7b92449c437591484caa056e81f171bcc55a6ff8345e692c0f86e5b48e01b996cadc001622fb5e363b421a056e81f171bcc55a6ff8345e692c0f86e5b48e01b996cadc001622fb5e363b421b901000000000000000000000000000000000000000000000000000000000000000000000000000000000000000000000000000000000000000000000000000000000000000000000000000000000000000000000000000000000000000000000000000000000000000000000000000000000000000000000000000000000000000000000000000000000000000000000000000000000000000000000000000000000000000000000000000000000000000000000000000000000000000000000000000000000000000000000000000000000000000000000000000000000000000000000000000000000000000000000000000000000000000000000000000000000083020000808502540be400808203b642a056e81f171bcc55a6ff8345e692c0f86e5b48e01b996cadc001622fb5e363b421880102030405060708c0c0",
        "lastblockhash" : "0x0e39cba8c96e7b29554f9d7acc8814dba6e6622cd0b1ae2394dfbd4eefa4b9f5",
        "network" : "Byzantium",
        "postState" : {
            "0x1000000000000000000000000000000000000000" : {
                "balance" : "0x00",
                "code" : "0x36600060003760206103e8366000600060055af26001556103e851600255",
                "nonce" : "0x00",
                "storage" : {
                    "0x01" : "0x01",
                    "0x02" : "0x02000000000000000000000000000000000000000000000000000000000000"
                }
            },
            "0x2adc25665018aa1fe0e6bc666dac8fc2697ff9ba" : {
                "balance" : "0x29a2241af62cfa6f",
                "code" : "",
                "nonce" : "0x00",
                "storage" : {
                }
            },
            "0xa94f5374fce5edbc8e2a8697c15331677e6ebf0b" : {
                "balance" : "0x3635c9adc5de9f0591",
                "code" : "",
                "nonce" : "0x01",
                "storage" : {
                }
            }
        },
        "pre" : {
            "0x1000000000000000000000000000000000000000" : {
                "balance" : "0x00",
                "code" : "0x36600060003760206103e8366000600060055af26001556103e851600255",
                "nonce" : "0x00",
                "storage" : {
                }
            },
            "0xa94f5374fce5edbc8e2a8697c15331677e6ebf0b" : {
                "balance" : "0x3635c9adc5dea00000",
                "code" : "",
                "nonce" : "0x00",
                "storage" : {
                }
            }
        }
    },
    "modexp_d27g0v0_EIP150" : {
        "_info" : {
            "comment" : "",
            "filledwith" : "cpp-1.3.0+commit.4e101574.Linux.g++",
            "lllcversion" : "Version: 0.4.18-develop.2017.10.11+commit.81f9f86c.Linux.g++",
            "source" : "src/BlockchainTestsFiller/GeneralStateTests/stPreCompiledContracts/modexp_d27g0v0Filler.json",
            "sourceHash" : "c1feb62e33ea317081f950c7dea9641b1ac4929499a6703ab6b106566c4c717e"
        },
        "blocks" : [
            {
                "blockHeader" : {
                    "bloom" : "0x00000000000000000000000000000000000000000000000000000000000000000000000000000000000000000000000000000000000000000000000000000000000000000000000000000000000000000000000000000000000000000000000000000000000000000000000000000000000000000000000000000000000000000000000000000000000000000000000000000000000000000000000000000000000000000000000000000000000000000000000000000000000000000000000000000000000000000000000000000000000000000000000000000000000000000000000000000000000000000000000000000000000000000000000000000000",
                    "coinbase" : "0x2adc25665018aa1fe0e6bc666dac8fc2697ff9ba",
                    "difficulty" : "0x020000",
                    "extraData" : "",
                    "gasLimit" : "0x02540be400",
                    "gasUsed" : "0xbe6f",
                    "hash" : "0x1be35731e1965ef2ad59f3a1efb2917379fc7db1f85fb4e74bf7909e55ff7e0a",
                    "mixHash" : "0xb1f3bbd0f4e44decbce0917e9be9b967502c0cd7894cb7fe250949f213d26a2a",
                    "nonce" : "0xfb129e31138ec4f1",
                    "number" : "0x01",
                    "parentHash" : "0x70fd8962467cac8e2412f97cc4f775613ccc23d5340252ee5cca67b868639273",
                    "receiptTrie" : "0xaf7245eb1476783e5e241e1fb66ec2d080d84657815ab13309733ee6f2210177",
                    "stateRoot" : "0x32dfeeb69ddab06efe1fcb5e2a1fa62cdf46f38d7df43c74fc945984611ba54c",
                    "timestamp" : "0x03e8",
                    "transactionsTrie" : "0x0fb70f48d1b4f0d2775840bb302e715733af908f38eab368d8212fa2a14558d6",
                    "uncleHash" : "0x1dcc4de8dec75d7aab85b567b6ccd41ad312451b948a7413f0a142fd40d49347"
                },
                "rlp" : "0xf903caf901f9a070fd8962467cac8e2412f97cc4f775613ccc23d5340252ee5cca67b868639273a01dcc4de8dec75d7aab85b567b6ccd41ad312451b948a7413f0a142fd40d49347942adc25665018aa1fe0e6bc666dac8fc2697ff9baa032dfeeb69ddab06efe1fcb5e2a1fa62cdf46f38d7df43c74fc945984611ba54ca00fb70f48d1b4f0d2775840bb302e715733af908f38eab368d8212fa2a14558d6a0af7245eb1476783e5e241e1fb66ec2d080d84657815ab13309733ee6f2210177b901000000000000000000000000000000000000000000000000000000000000000000000000000000000000000000000000000000000000000000000000000000000000000000000000000000000000000000000000000000000000000000000000000000000000000000000000000000000000000000000000000000000000000000000000000000000000000000000000000000000000000000000000000000000000000000000000000000000000000000000000000000000000000000000000000000000000000000000000000000000000000000000000000000000000000000000000000000000000000000000000000000000000000000000000000000000083020000018502540be40082be6f8203e880a0b1f3bbd0f4e44decbce0917e9be9b967502c0cd7894cb7fe250949f213d26a2a88fb129e31138ec4f1f901caf901c780018405f5e10094100000000000000000000000000000000000000080b9016400000000000000000000000000000000000000000000000000000000000000010000000000000000000000000000000000000000000000000000000000000101000000000000000000000000000000000000000000000000000000000000000202000000000000000000000000000000000000000000000000000000000000000000000000000000000000000000000000000000000000000000000000000000000000000000000000000000000000000000000000000000000000000000000000000000000000000000000000000000000000000000000000000000000000000000000000000000000000000000000000000000000000000000000000000000000000000000000000000000000000000000000000000000000000000000000000000000000000000000000000000000000000000000000000000000000000000000000000000000000000000000000000000000000000000000000000000000000300061ba05361c1c6cbc2ba978f988fa5c75720dcd483a6fa87c46f81897fa7333e824b89a024fe194b3c3ab1499cc23bf96993220815b94c5454379370f5bbf057540fe326c0",
                "transactions" : [
                    {
                        "data" : "0x0000000000000000000000000000000000000000000000000000000000000001000000000000000000000000000000000000000000000000000000000000010100000000000000000000000000000000000000000000000000000000000000020200000000000000000000000000000000000000000000000000000000000000000000000000000000000000000000000000000000000000000000000000000000000000000000000000000000000000000000000000000000000000000000000000000000000000000000000000000000000000000000000000000000000000000000000000000000000000000000000000000000000000000000000000000000000000000000000000000000000000000000000000000000000000000000000000000000000000000000000000000000000000000000000000000000000000000000000000000000000000000000000000000000000000000000000000000000030006",
                        "gasLimit" : "0x05f5e100",
                        "gasPrice" : "0x01",
                        "nonce" : "0x00",
                        "r" : "0x5361c1c6cbc2ba978f988fa5c75720dcd483a6fa87c46f81897fa7333e824b89",
                        "s" : "0x24fe194b3c3ab1499cc23bf96993220815b94c5454379370f5bbf057540fe326",
                        "to" : "0x1000000000000000000000000000000000000000",
                        "v" : "0x1b",
                        "value" : "0x00"
                    }
                ],
                "uncleHeaders" : [
                ]
            }
        ],
        "genesisBlockHeader" : {
            "bloom" : "0x00000000000000000000000000000000000000000000000000000000000000000000000000000000000000000000000000000000000000000000000000000000000000000000000000000000000000000000000000000000000000000000000000000000000000000000000000000000000000000000000000000000000000000000000000000000000000000000000000000000000000000000000000000000000000000000000000000000000000000000000000000000000000000000000000000000000000000000000000000000000000000000000000000000000000000000000000000000000000000000000000000000000000000000000000000000",
            "coinbase" : "0x2adc25665018aa1fe0e6bc666dac8fc2697ff9ba",
            "difficulty" : "0x020000",
            "extraData" : "0x42",
            "gasLimit" : "0x02540be400",
            "gasUsed" : "0x00",
            "hash" : "0x70fd8962467cac8e2412f97cc4f775613ccc23d5340252ee5cca67b868639273",
            "mixHash" : "0x56e81f171bcc55a6ff8345e692c0f86e5b48e01b996cadc001622fb5e363b421",
            "nonce" : "0x0102030405060708",
            "number" : "0x00",
            "parentHash" : "0x0000000000000000000000000000000000000000000000000000000000000000",
            "receiptTrie" : "0x56e81f171bcc55a6ff8345e692c0f86e5b48e01b996cadc001622fb5e363b421",
            "stateRoot" : "0xb0afba507e6fef0e690450e0c590ea05c53f4d93ea93a7b92449c437591484ca",
            "timestamp" : "0x03b6",
            "transactionsTrie" : "0x56e81f171bcc55a6ff8345e692c0f86e5b48e01b996cadc001622fb5e363b421",
            "uncleHash" : "0x1dcc4de8dec75d7aab85b567b6ccd41ad312451b948a7413f0a142fd40d49347"
        },
        "genesisRLP" : "0xf901fcf901f7a00000000000000000000000000000000000000000000000000000000000000000a01dcc4de8dec75d7aab85b567b6ccd41ad312451b948a7413f0a142fd40d49347942adc25665018aa1fe0e6bc666dac8fc2697ff9baa0b0afba507e6fef0e690450e0c590ea05c53f4d93ea93a7b92449c437591484caa056e81f171bcc55a6ff8345e692c0f86e5b48e01b996cadc001622fb5e363b421a056e81f171bcc55a6ff8345e692c0f86e5b48e01b996cadc001622fb5e363b421b901000000000000000000000000000000000000000000000000000000000000000000000000000000000000000000000000000000000000000000000000000000000000000000000000000000000000000000000000000000000000000000000000000000000000000000000000000000000000000000000000000000000000000000000000000000000000000000000000000000000000000000000000000000000000000000000000000000000000000000000000000000000000000000000000000000000000000000000000000000000000000000000000000000000000000000000000000000000000000000000000000000000000000000000000000000000083020000808502540be400808203b642a056e81f171bcc55a6ff8345e692c0f86e5b48e01b996cadc001622fb5e363b421880102030405060708c0c0",
        "lastblockhash" : "0x1be35731e1965ef2ad59f3a1efb2917379fc7db1f85fb4e74bf7909e55ff7e0a",
        "network" : "EIP150",
        "postState" : {
            "0x1000000000000000000000000000000000000000" : {
                "balance" : "0x00",
                "code" : "0x36600060003760206103e8366000600060055af26001556103e851600255",
                "nonce" : "0x00",
                "storage" : {
                    "0x01" : "0x01"
                }
            },
            "0x2adc25665018aa1fe0e6bc666dac8fc2697ff9ba" : {
                "balance" : "0x4563918244f4be6f",
                "code" : "",
                "nonce" : "0x00",
                "storage" : {
                }
            },
            "0xa94f5374fce5edbc8e2a8697c15331677e6ebf0b" : {
                "balance" : "0x3635c9adc5de9f4191",
                "code" : "",
                "nonce" : "0x01",
                "storage" : {
                }
            }
        },
        "pre" : {
            "0x1000000000000000000000000000000000000000" : {
                "balance" : "0x00",
                "code" : "0x36600060003760206103e8366000600060055af26001556103e851600255",
                "nonce" : "0x00",
                "storage" : {
                }
            },
            "0xa94f5374fce5edbc8e2a8697c15331677e6ebf0b" : {
                "balance" : "0x3635c9adc5dea00000",
                "code" : "",
                "nonce" : "0x00",
                "storage" : {
                }
            }
        }
    },
    "modexp_d27g0v0_EIP158" : {
        "_info" : {
            "comment" : "",
            "filledwith" : "cpp-1.3.0+commit.4e101574.Linux.g++",
            "lllcversion" : "Version: 0.4.18-develop.2017.10.11+commit.81f9f86c.Linux.g++",
            "source" : "src/BlockchainTestsFiller/GeneralStateTests/stPreCompiledContracts/modexp_d27g0v0Filler.json",
            "sourceHash" : "c1feb62e33ea317081f950c7dea9641b1ac4929499a6703ab6b106566c4c717e"
        },
        "blocks" : [
            {
                "blockHeader" : {
                    "bloom" : "0x00000000000000000000000000000000000000000000000000000000000000000000000000000000000000000000000000000000000000000000000000000000000000000000000000000000000000000000000000000000000000000000000000000000000000000000000000000000000000000000000000000000000000000000000000000000000000000000000000000000000000000000000000000000000000000000000000000000000000000000000000000000000000000000000000000000000000000000000000000000000000000000000000000000000000000000000000000000000000000000000000000000000000000000000000000000",
                    "coinbase" : "0x2adc25665018aa1fe0e6bc666dac8fc2697ff9ba",
                    "difficulty" : "0x020000",
                    "extraData" : "",
                    "gasLimit" : "0x02540be400",
                    "gasUsed" : "0xbe6f",
                    "hash" : "0xf3d250fddd5b589eba2efafb882d9877ee50f66696ee15423660466d5f1ce027",
                    "mixHash" : "0x1e4cb134ceb312d4c6e672a0e435e0221c1378296e59777c2ef262bedfbc0881",
                    "nonce" : "0x303636796f04c9d6",
                    "number" : "0x01",
                    "parentHash" : "0x70fd8962467cac8e2412f97cc4f775613ccc23d5340252ee5cca67b868639273",
                    "receiptTrie" : "0xaf7245eb1476783e5e241e1fb66ec2d080d84657815ab13309733ee6f2210177",
                    "stateRoot" : "0x32dfeeb69ddab06efe1fcb5e2a1fa62cdf46f38d7df43c74fc945984611ba54c",
                    "timestamp" : "0x03e8",
                    "transactionsTrie" : "0x0fb70f48d1b4f0d2775840bb302e715733af908f38eab368d8212fa2a14558d6",
                    "uncleHash" : "0x1dcc4de8dec75d7aab85b567b6ccd41ad312451b948a7413f0a142fd40d49347"
                },
                "rlp" : "0xf903caf901f9a070fd8962467cac8e2412f97cc4f775613ccc23d5340252ee5cca67b868639273a01dcc4de8dec75d7aab85b567b6ccd41ad312451b948a7413f0a142fd40d49347942adc25665018aa1fe0e6bc666dac8fc2697ff9baa032dfeeb69ddab06efe1fcb5e2a1fa62cdf46f38d7df43c74fc945984611ba54ca00fb70f48d1b4f0d2775840bb302e715733af908f38eab368d8212fa2a14558d6a0af7245eb1476783e5e241e1fb66ec2d080d84657815ab13309733ee6f2210177b901000000000000000000000000000000000000000000000000000000000000000000000000000000000000000000000000000000000000000000000000000000000000000000000000000000000000000000000000000000000000000000000000000000000000000000000000000000000000000000000000000000000000000000000000000000000000000000000000000000000000000000000000000000000000000000000000000000000000000000000000000000000000000000000000000000000000000000000000000000000000000000000000000000000000000000000000000000000000000000000000000000000000000000000000000000000083020000018502540be40082be6f8203e880a01e4cb134ceb312d4c6e672a0e435e0221c1378296e59777c2ef262bedfbc088188303636796f04c9d6f901caf901c780018405f5e10094100000000000000000000000000000000000000080b9016400000000000000000000000000000000000000000000000000000000000000010000000000000000000000000000000000000000000000000000000000000101000000000000000000000000000000000000000000000000000000000000000202000000000000000000000000000000000000000000000000000000000000000000000000000000000000000000000000000000000000000000000000000000000000000000000000000000000000000000000000000000000000000000000000000000000000000000000000000000000000000000000000000000000000000000000000000000000000000000000000000000000000000000000000000000000000000000000000000000000000000000000000000000000000000000000000000000000000000000000000000000000000000000000000000000000000000000000000000000000000000000000000000000000000000000000000000000000300061ba05361c1c6cbc2ba978f988fa5c75720dcd483a6fa87c46f81897fa7333e824b89a024fe194b3c3ab1499cc23bf96993220815b94c5454379370f5bbf057540fe326c0",
                "transactions" : [
                    {
                        "data" : "0x0000000000000000000000000000000000000000000000000000000000000001000000000000000000000000000000000000000000000000000000000000010100000000000000000000000000000000000000000000000000000000000000020200000000000000000000000000000000000000000000000000000000000000000000000000000000000000000000000000000000000000000000000000000000000000000000000000000000000000000000000000000000000000000000000000000000000000000000000000000000000000000000000000000000000000000000000000000000000000000000000000000000000000000000000000000000000000000000000000000000000000000000000000000000000000000000000000000000000000000000000000000000000000000000000000000000000000000000000000000000000000000000000000000000000000000000000000000000030006",
                        "gasLimit" : "0x05f5e100",
                        "gasPrice" : "0x01",
                        "nonce" : "0x00",
                        "r" : "0x5361c1c6cbc2ba978f988fa5c75720dcd483a6fa87c46f81897fa7333e824b89",
                        "s" : "0x24fe194b3c3ab1499cc23bf96993220815b94c5454379370f5bbf057540fe326",
                        "to" : "0x1000000000000000000000000000000000000000",
                        "v" : "0x1b",
                        "value" : "0x00"
                    }
                ],
                "uncleHeaders" : [
                ]
            }
        ],
        "genesisBlockHeader" : {
            "bloom" : "0x00000000000000000000000000000000000000000000000000000000000000000000000000000000000000000000000000000000000000000000000000000000000000000000000000000000000000000000000000000000000000000000000000000000000000000000000000000000000000000000000000000000000000000000000000000000000000000000000000000000000000000000000000000000000000000000000000000000000000000000000000000000000000000000000000000000000000000000000000000000000000000000000000000000000000000000000000000000000000000000000000000000000000000000000000000000",
            "coinbase" : "0x2adc25665018aa1fe0e6bc666dac8fc2697ff9ba",
            "difficulty" : "0x020000",
            "extraData" : "0x42",
            "gasLimit" : "0x02540be400",
            "gasUsed" : "0x00",
            "hash" : "0x70fd8962467cac8e2412f97cc4f775613ccc23d5340252ee5cca67b868639273",
            "mixHash" : "0x56e81f171bcc55a6ff8345e692c0f86e5b48e01b996cadc001622fb5e363b421",
            "nonce" : "0x0102030405060708",
            "number" : "0x00",
            "parentHash" : "0x0000000000000000000000000000000000000000000000000000000000000000",
            "receiptTrie" : "0x56e81f171bcc55a6ff8345e692c0f86e5b48e01b996cadc001622fb5e363b421",
            "stateRoot" : "0xb0afba507e6fef0e690450e0c590ea05c53f4d93ea93a7b92449c437591484ca",
            "timestamp" : "0x03b6",
            "transactionsTrie" : "0x56e81f171bcc55a6ff8345e692c0f86e5b48e01b996cadc001622fb5e363b421",
            "uncleHash" : "0x1dcc4de8dec75d7aab85b567b6ccd41ad312451b948a7413f0a142fd40d49347"
        },
        "genesisRLP" : "0xf901fcf901f7a00000000000000000000000000000000000000000000000000000000000000000a01dcc4de8dec75d7aab85b567b6ccd41ad312451b948a7413f0a142fd40d49347942adc25665018aa1fe0e6bc666dac8fc2697ff9baa0b0afba507e6fef0e690450e0c590ea05c53f4d93ea93a7b92449c437591484caa056e81f171bcc55a6ff8345e692c0f86e5b48e01b996cadc001622fb5e363b421a056e81f171bcc55a6ff8345e692c0f86e5b48e01b996cadc001622fb5e363b421b901000000000000000000000000000000000000000000000000000000000000000000000000000000000000000000000000000000000000000000000000000000000000000000000000000000000000000000000000000000000000000000000000000000000000000000000000000000000000000000000000000000000000000000000000000000000000000000000000000000000000000000000000000000000000000000000000000000000000000000000000000000000000000000000000000000000000000000000000000000000000000000000000000000000000000000000000000000000000000000000000000000000000000000000000000000000083020000808502540be400808203b642a056e81f171bcc55a6ff8345e692c0f86e5b48e01b996cadc001622fb5e363b421880102030405060708c0c0",
        "lastblockhash" : "0xf3d250fddd5b589eba2efafb882d9877ee50f66696ee15423660466d5f1ce027",
        "network" : "EIP158",
        "postState" : {
            "0x1000000000000000000000000000000000000000" : {
                "balance" : "0x00",
                "code" : "0x36600060003760206103e8366000600060055af26001556103e851600255",
                "nonce" : "0x00",
                "storage" : {
                    "0x01" : "0x01"
                }
            },
            "0x2adc25665018aa1fe0e6bc666dac8fc2697ff9ba" : {
                "balance" : "0x4563918244f4be6f",
                "code" : "",
                "nonce" : "0x00",
                "storage" : {
                }
            },
            "0xa94f5374fce5edbc8e2a8697c15331677e6ebf0b" : {
                "balance" : "0x3635c9adc5de9f4191",
                "code" : "",
                "nonce" : "0x01",
                "storage" : {
                }
            }
        },
        "pre" : {
            "0x1000000000000000000000000000000000000000" : {
                "balance" : "0x00",
                "code" : "0x36600060003760206103e8366000600060055af26001556103e851600255",
                "nonce" : "0x00",
                "storage" : {
                }
            },
            "0xa94f5374fce5edbc8e2a8697c15331677e6ebf0b" : {
                "balance" : "0x3635c9adc5dea00000",
                "code" : "",
                "nonce" : "0x00",
                "storage" : {
                }
            }
        }
    },
    "modexp_d27g0v0_Frontier" : {
        "_info" : {
            "comment" : "",
            "filledwith" : "cpp-1.3.0+commit.4e101574.Linux.g++",
            "lllcversion" : "Version: 0.4.18-develop.2017.10.11+commit.81f9f86c.Linux.g++",
            "source" : "src/BlockchainTestsFiller/GeneralStateTests/stPreCompiledContracts/modexp_d27g0v0Filler.json",
            "sourceHash" : "c1feb62e33ea317081f950c7dea9641b1ac4929499a6703ab6b106566c4c717e"
        },
        "blocks" : [
            {
                "blockHeader" : {
                    "bloom" : "0x00000000000000000000000000000000000000000000000000000000000000000000000000000000000000000000000000000000000000000000000000000000000000000000000000000000000000000000000000000000000000000000000000000000000000000000000000000000000000000000000000000000000000000000000000000000000000000000000000000000000000000000000000000000000000000000000000000000000000000000000000000000000000000000000000000000000000000000000000000000000000000000000000000000000000000000000000000000000000000000000000000000000000000000000000000000",
                    "coinbase" : "0x2adc25665018aa1fe0e6bc666dac8fc2697ff9ba",
                    "difficulty" : "0x020000",
                    "extraData" : "",
                    "gasLimit" : "0x02540be400",
                    "gasUsed" : "0x05f5e100",
                    "hash" : "0x27ff1bc5af3303e5416d591dc55a37da19ae9a7ff9a4609d7ab3c086b0f8c5dd",
                    "mixHash" : "0xef565469f9a56c0eeacc7069a98792f96e113980f8d8a51136b6cd861c7183a5",
                    "nonce" : "0xfb451752921c7fed",
                    "number" : "0x01",
                    "parentHash" : "0x70fd8962467cac8e2412f97cc4f775613ccc23d5340252ee5cca67b868639273",
                    "receiptTrie" : "0x8c260d4e2be943a410d9e289f5c826464a7c71de230bf3ebf53cd365f26d0dfe",
                    "stateRoot" : "0x8935f97a1c08cc75c47ed2af4f96c76d025d18e81759f475797c25ed7f19f3ad",
                    "timestamp" : "0x03e8",
                    "transactionsTrie" : "0x0fb70f48d1b4f0d2775840bb302e715733af908f38eab368d8212fa2a14558d6",
                    "uncleHash" : "0x1dcc4de8dec75d7aab85b567b6ccd41ad312451b948a7413f0a142fd40d49347"
                },
                "rlp" : "0xf903ccf901fba070fd8962467cac8e2412f97cc4f775613ccc23d5340252ee5cca67b868639273a01dcc4de8dec75d7aab85b567b6ccd41ad312451b948a7413f0a142fd40d49347942adc25665018aa1fe0e6bc666dac8fc2697ff9baa08935f97a1c08cc75c47ed2af4f96c76d025d18e81759f475797c25ed7f19f3ada00fb70f48d1b4f0d2775840bb302e715733af908f38eab368d8212fa2a14558d6a08c260d4e2be943a410d9e289f5c826464a7c71de230bf3ebf53cd365f26d0dfeb901000000000000000000000000000000000000000000000000000000000000000000000000000000000000000000000000000000000000000000000000000000000000000000000000000000000000000000000000000000000000000000000000000000000000000000000000000000000000000000000000000000000000000000000000000000000000000000000000000000000000000000000000000000000000000000000000000000000000000000000000000000000000000000000000000000000000000000000000000000000000000000000000000000000000000000000000000000000000000000000000000000000000000000000000000000000083020000018502540be4008405f5e1008203e880a0ef565469f9a56c0eeacc7069a98792f96e113980f8d8a51136b6cd861c7183a588fb451752921c7fedf901caf901c780018405f5e10094100000000000000000000000000000000000000080b9016400000000000000000000000000000000000000000000000000000000000000010000000000000000000000000000000000000000000000000000000000000101000000000000000000000000000000000000000000000000000000000000000202000000000000000000000000000000000000000000000000000000000000000000000000000000000000000000000000000000000000000000000000000000000000000000000000000000000000000000000000000000000000000000000000000000000000000000000000000000000000000000000000000000000000000000000000000000000000000000000000000000000000000000000000000000000000000000000000000000000000000000000000000000000000000000000000000000000000000000000000000000000000000000000000000000000000000000000000000000000000000000000000000000000000000000000000000000000300061ba05361c1c6cbc2ba978f988fa5c75720dcd483a6fa87c46f81897fa7333e824b89a024fe194b3c3ab1499cc23bf96993220815b94c5454379370f5bbf057540fe326c0",
                "transactions" : [
                    {
                        "data" : "0x0000000000000000000000000000000000000000000000000000000000000001000000000000000000000000000000000000000000000000000000000000010100000000000000000000000000000000000000000000000000000000000000020200000000000000000000000000000000000000000000000000000000000000000000000000000000000000000000000000000000000000000000000000000000000000000000000000000000000000000000000000000000000000000000000000000000000000000000000000000000000000000000000000000000000000000000000000000000000000000000000000000000000000000000000000000000000000000000000000000000000000000000000000000000000000000000000000000000000000000000000000000000000000000000000000000000000000000000000000000000000000000000000000000000000000000000000000000000030006",
                        "gasLimit" : "0x05f5e100",
                        "gasPrice" : "0x01",
                        "nonce" : "0x00",
                        "r" : "0x5361c1c6cbc2ba978f988fa5c75720dcd483a6fa87c46f81897fa7333e824b89",
                        "s" : "0x24fe194b3c3ab1499cc23bf96993220815b94c5454379370f5bbf057540fe326",
                        "to" : "0x1000000000000000000000000000000000000000",
                        "v" : "0x1b",
                        "value" : "0x00"
                    }
                ],
                "uncleHeaders" : [
                ]
            }
        ],
        "genesisBlockHeader" : {
            "bloom" : "0x00000000000000000000000000000000000000000000000000000000000000000000000000000000000000000000000000000000000000000000000000000000000000000000000000000000000000000000000000000000000000000000000000000000000000000000000000000000000000000000000000000000000000000000000000000000000000000000000000000000000000000000000000000000000000000000000000000000000000000000000000000000000000000000000000000000000000000000000000000000000000000000000000000000000000000000000000000000000000000000000000000000000000000000000000000000",
            "coinbase" : "0x2adc25665018aa1fe0e6bc666dac8fc2697ff9ba",
            "difficulty" : "0x020000",
            "extraData" : "0x42",
            "gasLimit" : "0x02540be400",
            "gasUsed" : "0x00",
            "hash" : "0x70fd8962467cac8e2412f97cc4f775613ccc23d5340252ee5cca67b868639273",
            "mixHash" : "0x56e81f171bcc55a6ff8345e692c0f86e5b48e01b996cadc001622fb5e363b421",
            "nonce" : "0x0102030405060708",
            "number" : "0x00",
            "parentHash" : "0x0000000000000000000000000000000000000000000000000000000000000000",
            "receiptTrie" : "0x56e81f171bcc55a6ff8345e692c0f86e5b48e01b996cadc001622fb5e363b421",
            "stateRoot" : "0xb0afba507e6fef0e690450e0c590ea05c53f4d93ea93a7b92449c437591484ca",
            "timestamp" : "0x03b6",
            "transactionsTrie" : "0x56e81f171bcc55a6ff8345e692c0f86e5b48e01b996cadc001622fb5e363b421",
            "uncleHash" : "0x1dcc4de8dec75d7aab85b567b6ccd41ad312451b948a7413f0a142fd40d49347"
        },
        "genesisRLP" : "0xf901fcf901f7a00000000000000000000000000000000000000000000000000000000000000000a01dcc4de8dec75d7aab85b567b6ccd41ad312451b948a7413f0a142fd40d49347942adc25665018aa1fe0e6bc666dac8fc2697ff9baa0b0afba507e6fef0e690450e0c590ea05c53f4d93ea93a7b92449c437591484caa056e81f171bcc55a6ff8345e692c0f86e5b48e01b996cadc001622fb5e363b421a056e81f171bcc55a6ff8345e692c0f86e5b48e01b996cadc001622fb5e363b421b901000000000000000000000000000000000000000000000000000000000000000000000000000000000000000000000000000000000000000000000000000000000000000000000000000000000000000000000000000000000000000000000000000000000000000000000000000000000000000000000000000000000000000000000000000000000000000000000000000000000000000000000000000000000000000000000000000000000000000000000000000000000000000000000000000000000000000000000000000000000000000000000000000000000000000000000000000000000000000000000000000000000000000000000000000000000083020000808502540be400808203b642a056e81f171bcc55a6ff8345e692c0f86e5b48e01b996cadc001622fb5e363b421880102030405060708c0c0",
        "lastblockhash" : "0x27ff1bc5af3303e5416d591dc55a37da19ae9a7ff9a4609d7ab3c086b0f8c5dd",
        "network" : "Frontier",
        "postState" : {
            "0x1000000000000000000000000000000000000000" : {
                "balance" : "0x00",
                "code" : "0x36600060003760206103e8366000600060055af26001556103e851600255",
                "nonce" : "0x00",
                "storage" : {
                }
            },
            "0x2adc25665018aa1fe0e6bc666dac8fc2697ff9ba" : {
                "balance" : "0x456391824ae9e100",
                "code" : "",
                "nonce" : "0x00",
                "storage" : {
                }
            },
            "0xa94f5374fce5edbc8e2a8697c15331677e6ebf0b" : {
                "balance" : "0x3635c9adc5d8aa1f00",
                "code" : "",
                "nonce" : "0x01",
                "storage" : {
                }
            }
        },
        "pre" : {
            "0x1000000000000000000000000000000000000000" : {
                "balance" : "0x00",
                "code" : "0x36600060003760206103e8366000600060055af26001556103e851600255",
                "nonce" : "0x00",
                "storage" : {
                }
            },
            "0xa94f5374fce5edbc8e2a8697c15331677e6ebf0b" : {
                "balance" : "0x3635c9adc5dea00000",
                "code" : "",
                "nonce" : "0x00",
                "storage" : {
                }
            }
        }
    },
    "modexp_d27g0v0_Homestead" : {
        "_info" : {
            "comment" : "",
            "filledwith" : "cpp-1.3.0+commit.4e101574.Linux.g++",
            "lllcversion" : "Version: 0.4.18-develop.2017.10.11+commit.81f9f86c.Linux.g++",
            "source" : "src/BlockchainTestsFiller/GeneralStateTests/stPreCompiledContracts/modexp_d27g0v0Filler.json",
            "sourceHash" : "c1feb62e33ea317081f950c7dea9641b1ac4929499a6703ab6b106566c4c717e"
        },
        "blocks" : [
            {
                "blockHeader" : {
                    "bloom" : "0x00000000000000000000000000000000000000000000000000000000000000000000000000000000000000000000000000000000000000000000000000000000000000000000000000000000000000000000000000000000000000000000000000000000000000000000000000000000000000000000000000000000000000000000000000000000000000000000000000000000000000000000000000000000000000000000000000000000000000000000000000000000000000000000000000000000000000000000000000000000000000000000000000000000000000000000000000000000000000000000000000000000000000000000000000000000",
                    "coinbase" : "0x2adc25665018aa1fe0e6bc666dac8fc2697ff9ba",
                    "difficulty" : "0x020000",
                    "extraData" : "",
                    "gasLimit" : "0x02540be400",
                    "gasUsed" : "0x05f5e100",
                    "hash" : "0x6cb91c24fb9ba8e3cee5a27298c6a1c7981abaf5da5329ba0f602425ae904eba",
                    "mixHash" : "0x5a3e69b075a191a2d7d7942ec9125f2b1ff7b1323de1089c0ee2a587ead2c2cd",
                    "nonce" : "0x1151314523fdb0b6",
                    "number" : "0x01",
                    "parentHash" : "0x70fd8962467cac8e2412f97cc4f775613ccc23d5340252ee5cca67b868639273",
                    "receiptTrie" : "0x8c260d4e2be943a410d9e289f5c826464a7c71de230bf3ebf53cd365f26d0dfe",
                    "stateRoot" : "0x8935f97a1c08cc75c47ed2af4f96c76d025d18e81759f475797c25ed7f19f3ad",
                    "timestamp" : "0x03e8",
                    "transactionsTrie" : "0x0fb70f48d1b4f0d2775840bb302e715733af908f38eab368d8212fa2a14558d6",
                    "uncleHash" : "0x1dcc4de8dec75d7aab85b567b6ccd41ad312451b948a7413f0a142fd40d49347"
                },
                "rlp" : "0xf903ccf901fba070fd8962467cac8e2412f97cc4f775613ccc23d5340252ee5cca67b868639273a01dcc4de8dec75d7aab85b567b6ccd41ad312451b948a7413f0a142fd40d49347942adc25665018aa1fe0e6bc666dac8fc2697ff9baa08935f97a1c08cc75c47ed2af4f96c76d025d18e81759f475797c25ed7f19f3ada00fb70f48d1b4f0d2775840bb302e715733af908f38eab368d8212fa2a14558d6a08c260d4e2be943a410d9e289f5c826464a7c71de230bf3ebf53cd365f26d0dfeb901000000000000000000000000000000000000000000000000000000000000000000000000000000000000000000000000000000000000000000000000000000000000000000000000000000000000000000000000000000000000000000000000000000000000000000000000000000000000000000000000000000000000000000000000000000000000000000000000000000000000000000000000000000000000000000000000000000000000000000000000000000000000000000000000000000000000000000000000000000000000000000000000000000000000000000000000000000000000000000000000000000000000000000000000000000000083020000018502540be4008405f5e1008203e880a05a3e69b075a191a2d7d7942ec9125f2b1ff7b1323de1089c0ee2a587ead2c2cd881151314523fdb0b6f901caf901c780018405f5e10094100000000000000000000000000000000000000080b9016400000000000000000000000000000000000000000000000000000000000000010000000000000000000000000000000000000000000000000000000000000101000000000000000000000000000000000000000000000000000000000000000202000000000000000000000000000000000000000000000000000000000000000000000000000000000000000000000000000000000000000000000000000000000000000000000000000000000000000000000000000000000000000000000000000000000000000000000000000000000000000000000000000000000000000000000000000000000000000000000000000000000000000000000000000000000000000000000000000000000000000000000000000000000000000000000000000000000000000000000000000000000000000000000000000000000000000000000000000000000000000000000000000000000000000000000000000000000300061ba05361c1c6cbc2ba978f988fa5c75720dcd483a6fa87c46f81897fa7333e824b89a024fe194b3c3ab1499cc23bf96993220815b94c5454379370f5bbf057540fe326c0",
                "transactions" : [
                    {
                        "data" : "0x0000000000000000000000000000000000000000000000000000000000000001000000000000000000000000000000000000000000000000000000000000010100000000000000000000000000000000000000000000000000000000000000020200000000000000000000000000000000000000000000000000000000000000000000000000000000000000000000000000000000000000000000000000000000000000000000000000000000000000000000000000000000000000000000000000000000000000000000000000000000000000000000000000000000000000000000000000000000000000000000000000000000000000000000000000000000000000000000000000000000000000000000000000000000000000000000000000000000000000000000000000000000000000000000000000000000000000000000000000000000000000000000000000000000000000000000000000000000030006",
                        "gasLimit" : "0x05f5e100",
                        "gasPrice" : "0x01",
                        "nonce" : "0x00",
                        "r" : "0x5361c1c6cbc2ba978f988fa5c75720dcd483a6fa87c46f81897fa7333e824b89",
                        "s" : "0x24fe194b3c3ab1499cc23bf96993220815b94c5454379370f5bbf057540fe326",
                        "to" : "0x1000000000000000000000000000000000000000",
                        "v" : "0x1b",
                        "value" : "0x00"
                    }
                ],
                "uncleHeaders" : [
                ]
            }
        ],
        "genesisBlockHeader" : {
            "bloom" : "0x00000000000000000000000000000000000000000000000000000000000000000000000000000000000000000000000000000000000000000000000000000000000000000000000000000000000000000000000000000000000000000000000000000000000000000000000000000000000000000000000000000000000000000000000000000000000000000000000000000000000000000000000000000000000000000000000000000000000000000000000000000000000000000000000000000000000000000000000000000000000000000000000000000000000000000000000000000000000000000000000000000000000000000000000000000000",
            "coinbase" : "0x2adc25665018aa1fe0e6bc666dac8fc2697ff9ba",
            "difficulty" : "0x020000",
            "extraData" : "0x42",
            "gasLimit" : "0x02540be400",
            "gasUsed" : "0x00",
            "hash" : "0x70fd8962467cac8e2412f97cc4f775613ccc23d5340252ee5cca67b868639273",
            "mixHash" : "0x56e81f171bcc55a6ff8345e692c0f86e5b48e01b996cadc001622fb5e363b421",
            "nonce" : "0x0102030405060708",
            "number" : "0x00",
            "parentHash" : "0x0000000000000000000000000000000000000000000000000000000000000000",
            "receiptTrie" : "0x56e81f171bcc55a6ff8345e692c0f86e5b48e01b996cadc001622fb5e363b421",
            "stateRoot" : "0xb0afba507e6fef0e690450e0c590ea05c53f4d93ea93a7b92449c437591484ca",
            "timestamp" : "0x03b6",
            "transactionsTrie" : "0x56e81f171bcc55a6ff8345e692c0f86e5b48e01b996cadc001622fb5e363b421",
            "uncleHash" : "0x1dcc4de8dec75d7aab85b567b6ccd41ad312451b948a7413f0a142fd40d49347"
        },
        "genesisRLP" : "0xf901fcf901f7a00000000000000000000000000000000000000000000000000000000000000000a01dcc4de8dec75d7aab85b567b6ccd41ad312451b948a7413f0a142fd40d49347942adc25665018aa1fe0e6bc666dac8fc2697ff9baa0b0afba507e6fef0e690450e0c590ea05c53f4d93ea93a7b92449c437591484caa056e81f171bcc55a6ff8345e692c0f86e5b48e01b996cadc001622fb5e363b421a056e81f171bcc55a6ff8345e692c0f86e5b48e01b996cadc001622fb5e363b421b901000000000000000000000000000000000000000000000000000000000000000000000000000000000000000000000000000000000000000000000000000000000000000000000000000000000000000000000000000000000000000000000000000000000000000000000000000000000000000000000000000000000000000000000000000000000000000000000000000000000000000000000000000000000000000000000000000000000000000000000000000000000000000000000000000000000000000000000000000000000000000000000000000000000000000000000000000000000000000000000000000000000000000000000000000000000083020000808502540be400808203b642a056e81f171bcc55a6ff8345e692c0f86e5b48e01b996cadc001622fb5e363b421880102030405060708c0c0",
        "lastblockhash" : "0x6cb91c24fb9ba8e3cee5a27298c6a1c7981abaf5da5329ba0f602425ae904eba",
        "network" : "Homestead",
        "postState" : {
            "0x1000000000000000000000000000000000000000" : {
                "balance" : "0x00",
                "code" : "0x36600060003760206103e8366000600060055af26001556103e851600255",
                "nonce" : "0x00",
                "storage" : {
                }
            },
            "0x2adc25665018aa1fe0e6bc666dac8fc2697ff9ba" : {
                "balance" : "0x456391824ae9e100",
                "code" : "",
                "nonce" : "0x00",
                "storage" : {
                }
            },
            "0xa94f5374fce5edbc8e2a8697c15331677e6ebf0b" : {
                "balance" : "0x3635c9adc5d8aa1f00",
                "code" : "",
                "nonce" : "0x01",
                "storage" : {
                }
            }
        },
        "pre" : {
            "0x1000000000000000000000000000000000000000" : {
                "balance" : "0x00",
                "code" : "0x36600060003760206103e8366000600060055af26001556103e851600255",
                "nonce" : "0x00",
                "storage" : {
                }
            },
            "0xa94f5374fce5edbc8e2a8697c15331677e6ebf0b" : {
                "balance" : "0x3635c9adc5dea00000",
                "code" : "",
                "nonce" : "0x00",
                "storage" : {
                }
            }
        }
    }
}