{
    "modexp_d10g1v0_Byzantium" : {
        "_info" : {
            "comment" : "",
            "filledwith" : "cpp-1.3.0+commit.4e101574.Linux.g++",
            "lllcversion" : "Version: 0.4.18-develop.2017.10.11+commit.81f9f86c.Linux.g++",
            "source" : "src/BlockchainTestsFiller/GeneralStateTests/stPreCompiledContracts/modexp_d10g1v0Filler.json",
            "sourceHash" : "edb821bf9477429d52a2b80adee4f0ed91b8c7517ef0dffd24f1120b0a596bf3"
        },
        "blocks" : [
            {
                "blockHeader" : {
                    "bloom" : "0x00000000000000000000000000000000000000000000000000000000000000000000000000000000000000000000000000000000000000000000000000000000000000000000000000000000000000000000000000000000000000000000000000000000000000000000000000000000000000000000000000000000000000000000000000000000000000000000000000000000000000000000000000000000000000000000000000000000000000000000000000000000000000000000000000000000000000000000000000000000000000000000000000000000000000000000000000000000000000000000000000000000000000000000000000000000",
                    "coinbase" : "0x2adc25665018aa1fe0e6bc666dac8fc2697ff9ba",
                    "difficulty" : "0x020000",
                    "extraData" : "",
                    "gasLimit" : "0x02540be400",
                    "gasUsed" : "0xb9d3",
                    "hash" : "0xf25dde4a396edf59a5488eee962d9a3454c0ac07fc587244e64ecad0e7ea352b",
                    "mixHash" : "0x7fb8d8eaf69c027aac268cd975a3293ed14573c8e6f0872346a8b1bcb993f575",
                    "nonce" : "0x8a1f68893dd8dac9",
                    "number" : "0x01",
                    "parentHash" : "0x70fd8962467cac8e2412f97cc4f775613ccc23d5340252ee5cca67b868639273",
                    "receiptTrie" : "0x52a880139992d9beda254e496000e9759c33aca910ed71cc378957f728231eaa",
                    "stateRoot" : "0xf3ea25326493a66734d45114dfdc835ecb5ae077f9d321a3a2c495bb8614d6ff",
                    "timestamp" : "0x03e8",
                    "transactionsTrie" : "0x2a06db5c511e02891d1bab7022bf78e3a54122aa3be57464460bd0d18652d8b6",
                    "uncleHash" : "0x1dcc4de8dec75d7aab85b567b6ccd41ad312451b948a7413f0a142fd40d49347"
                },
                "rlp" : "0xf902c5f901f9a070fd8962467cac8e2412f97cc4f775613ccc23d5340252ee5cca67b868639273a01dcc4de8dec75d7aab85b567b6ccd41ad312451b948a7413f0a142fd40d49347942adc25665018aa1fe0e6bc666dac8fc2697ff9baa0f3ea25326493a66734d45114dfdc835ecb5ae077f9d321a3a2c495bb8614d6ffa02a06db5c511e02891d1bab7022bf78e3a54122aa3be57464460bd0d18652d8b6a052a880139992d9beda254e496000e9759c33aca910ed71cc378957f728231eaab901000000000000000000000000000000000000000000000000000000000000000000000000000000000000000000000000000000000000000000000000000000000000000000000000000000000000000000000000000000000000000000000000000000000000000000000000000000000000000000000000000000000000000000000000000000000000000000000000000000000000000000000000000000000000000000000000000000000000000000000000000000000000000000000000000000000000000000000000000000000000000000000000000000000000000000000000000000000000000000000000000000000000000000000000000000000083020000018502540be40082b9d38203e880a07fb8d8eaf69c027aac268cd975a3293ed14573c8e6f0872346a8b1bcb993f575888a1f68893dd8dac9f8c6f8c4800183015f9094100000000000000000000000000000000000000080b8630000000000000000000000000000000000000000000000000000000000000001000000000000000000000000000000000000000000000000000000000000000100000000000000000000000000000000000000000000000000000000000000010003041ba0df03a1147cc6b3cd356e866e8de948c4c9fc7aa7989307abf11641a6ede0a6c1a00e4d0f0f193dcdd41ce5b26f6ac3a5631735cfb81e8b4e614e01d006f69ef623c0",
                "transactions" : [
                    {
                        "data" : "0x000000000000000000000000000000000000000000000000000000000000000100000000000000000000000000000000000000000000000000000000000000010000000000000000000000000000000000000000000000000000000000000001000304",
                        "gasLimit" : "0x015f90",
                        "gasPrice" : "0x01",
                        "nonce" : "0x00",
                        "r" : "0xdf03a1147cc6b3cd356e866e8de948c4c9fc7aa7989307abf11641a6ede0a6c1",
                        "s" : "0x0e4d0f0f193dcdd41ce5b26f6ac3a5631735cfb81e8b4e614e01d006f69ef623",
                        "to" : "0x1000000000000000000000000000000000000000",
                        "v" : "0x1b",
                        "value" : "0x00"
                    }
                ],
                "uncleHeaders" : [
                ]
            }
        ],
        "genesisBlockHeader" : {
            "bloom" : "0x00000000000000000000000000000000000000000000000000000000000000000000000000000000000000000000000000000000000000000000000000000000000000000000000000000000000000000000000000000000000000000000000000000000000000000000000000000000000000000000000000000000000000000000000000000000000000000000000000000000000000000000000000000000000000000000000000000000000000000000000000000000000000000000000000000000000000000000000000000000000000000000000000000000000000000000000000000000000000000000000000000000000000000000000000000000",
            "coinbase" : "0x2adc25665018aa1fe0e6bc666dac8fc2697ff9ba",
            "difficulty" : "0x020000",
            "extraData" : "0x42",
            "gasLimit" : "0x02540be400",
            "gasUsed" : "0x00",
            "hash" : "0x70fd8962467cac8e2412f97cc4f775613ccc23d5340252ee5cca67b868639273",
            "mixHash" : "0x56e81f171bcc55a6ff8345e692c0f86e5b48e01b996cadc001622fb5e363b421",
            "nonce" : "0x0102030405060708",
            "number" : "0x00",
            "parentHash" : "0x0000000000000000000000000000000000000000000000000000000000000000",
            "receiptTrie" : "0x56e81f171bcc55a6ff8345e692c0f86e5b48e01b996cadc001622fb5e363b421",
            "stateRoot" : "0xb0afba507e6fef0e690450e0c590ea05c53f4d93ea93a7b92449c437591484ca",
            "timestamp" : "0x03b6",
            "transactionsTrie" : "0x56e81f171bcc55a6ff8345e692c0f86e5b48e01b996cadc001622fb5e363b421",
            "uncleHash" : "0x1dcc4de8dec75d7aab85b567b6ccd41ad312451b948a7413f0a142fd40d49347"
        },
        "genesisRLP" : "0xf901fcf901f7a00000000000000000000000000000000000000000000000000000000000000000a01dcc4de8dec75d7aab85b567b6ccd41ad312451b948a7413f0a142fd40d49347942adc25665018aa1fe0e6bc666dac8fc2697ff9baa0b0afba507e6fef0e690450e0c590ea05c53f4d93ea93a7b92449c437591484caa056e81f171bcc55a6ff8345e692c0f86e5b48e01b996cadc001622fb5e363b421a056e81f171bcc55a6ff8345e692c0f86e5b48e01b996cadc001622fb5e363b421b901000000000000000000000000000000000000000000000000000000000000000000000000000000000000000000000000000000000000000000000000000000000000000000000000000000000000000000000000000000000000000000000000000000000000000000000000000000000000000000000000000000000000000000000000000000000000000000000000000000000000000000000000000000000000000000000000000000000000000000000000000000000000000000000000000000000000000000000000000000000000000000000000000000000000000000000000000000000000000000000000000000000000000000000000000000000083020000808502540be400808203b642a056e81f171bcc55a6ff8345e692c0f86e5b48e01b996cadc001622fb5e363b421880102030405060708c0c0",
        "lastblockhash" : "0xf25dde4a396edf59a5488eee962d9a3454c0ac07fc587244e64ecad0e7ea352b",
        "network" : "Byzantium",
        "postState" : {
            "0x1000000000000000000000000000000000000000" : {
                "balance" : "0x00",
                "code" : "0x36600060003760206103e8366000600060055af26001556103e851600255",
                "nonce" : "0x00",
                "storage" : {
                    "0x01" : "0x01"
                }
            },
            "0x2adc25665018aa1fe0e6bc666dac8fc2697ff9ba" : {
                "balance" : "0x29a2241af62cb9d3",
                "code" : "",
                "nonce" : "0x00",
                "storage" : {
                }
            },
            "0xa94f5374fce5edbc8e2a8697c15331677e6ebf0b" : {
                "balance" : "0x3635c9adc5de9f462d",
                "code" : "",
                "nonce" : "0x01",
                "storage" : {
                }
            }
        },
        "pre" : {
            "0x1000000000000000000000000000000000000000" : {
                "balance" : "0x00",
                "code" : "0x36600060003760206103e8366000600060055af26001556103e851600255",
                "nonce" : "0x00",
                "storage" : {
                }
            },
            "0xa94f5374fce5edbc8e2a8697c15331677e6ebf0b" : {
                "balance" : "0x3635c9adc5dea00000",
                "code" : "",
                "nonce" : "0x00",
                "storage" : {
                }
            }
        }
    },
    "modexp_d10g1v0_EIP150" : {
        "_info" : {
            "comment" : "",
            "filledwith" : "cpp-1.3.0+commit.4e101574.Linux.g++",
            "lllcversion" : "Version: 0.4.18-develop.2017.10.11+commit.81f9f86c.Linux.g++",
            "source" : "src/BlockchainTestsFiller/GeneralStateTests/stPreCompiledContracts/modexp_d10g1v0Filler.json",
            "sourceHash" : "edb821bf9477429d52a2b80adee4f0ed91b8c7517ef0dffd24f1120b0a596bf3"
        },
        "blocks" : [
            {
                "blockHeader" : {
                    "bloom" : "0x00000000000000000000000000000000000000000000000000000000000000000000000000000000000000000000000000000000000000000000000000000000000000000000000000000000000000000000000000000000000000000000000000000000000000000000000000000000000000000000000000000000000000000000000000000000000000000000000000000000000000000000000000000000000000000000000000000000000000000000000000000000000000000000000000000000000000000000000000000000000000000000000000000000000000000000000000000000000000000000000000000000000000000000000000000000",
                    "coinbase" : "0x2adc25665018aa1fe0e6bc666dac8fc2697ff9ba",
                    "difficulty" : "0x020000",
                    "extraData" : "",
                    "gasLimit" : "0x02540be400",
                    "gasUsed" : "0xb9d3",
                    "hash" : "0xb4c6c9982898f71e81b0187c79e09aa1925658c07594c1b2a61340080ad9f0a3",
                    "mixHash" : "0x3a6c72bfdbe1469654e3f1bbebc457e74708be7c326471353494efaa4b79271d",
                    "nonce" : "0x363b51884aa8a3aa",
                    "number" : "0x01",
                    "parentHash" : "0x70fd8962467cac8e2412f97cc4f775613ccc23d5340252ee5cca67b868639273",
                    "receiptTrie" : "0x911513d533cf50d16a0e79a9d08443e4a5b4dd928618d8f4dca6bbe02d9e83df",
                    "stateRoot" : "0x2c32e61701383faa3e439268fbd2a4aacdd140fe280a6d35f252e63a851b05b6",
                    "timestamp" : "0x03e8",
                    "transactionsTrie" : "0x2a06db5c511e02891d1bab7022bf78e3a54122aa3be57464460bd0d18652d8b6",
                    "uncleHash" : "0x1dcc4de8dec75d7aab85b567b6ccd41ad312451b948a7413f0a142fd40d49347"
                },
                "rlp" : "0xf902c5f901f9a070fd8962467cac8e2412f97cc4f775613ccc23d5340252ee5cca67b868639273a01dcc4de8dec75d7aab85b567b6ccd41ad312451b948a7413f0a142fd40d49347942adc25665018aa1fe0e6bc666dac8fc2697ff9baa02c32e61701383faa3e439268fbd2a4aacdd140fe280a6d35f252e63a851b05b6a02a06db5c511e02891d1bab7022bf78e3a54122aa3be57464460bd0d18652d8b6a0911513d533cf50d16a0e79a9d08443e4a5b4dd928618d8f4dca6bbe02d9e83dfb901000000000000000000000000000000000000000000000000000000000000000000000000000000000000000000000000000000000000000000000000000000000000000000000000000000000000000000000000000000000000000000000000000000000000000000000000000000000000000000000000000000000000000000000000000000000000000000000000000000000000000000000000000000000000000000000000000000000000000000000000000000000000000000000000000000000000000000000000000000000000000000000000000000000000000000000000000000000000000000000000000000000000000000000000000000000083020000018502540be40082b9d38203e880a03a6c72bfdbe1469654e3f1bbebc457e74708be7c326471353494efaa4b79271d88363b51884aa8a3aaf8c6f8c4800183015f9094100000000000000000000000000000000000000080b8630000000000000000000000000000000000000000000000000000000000000001000000000000000000000000000000000000000000000000000000000000000100000000000000000000000000000000000000000000000000000000000000010003041ba0df03a1147cc6b3cd356e866e8de948c4c9fc7aa7989307abf11641a6ede0a6c1a00e4d0f0f193dcdd41ce5b26f6ac3a5631735cfb81e8b4e614e01d006f69ef623c0",
                "transactions" : [
                    {
                        "data" : "0x000000000000000000000000000000000000000000000000000000000000000100000000000000000000000000000000000000000000000000000000000000010000000000000000000000000000000000000000000000000000000000000001000304",
                        "gasLimit" : "0x015f90",
                        "gasPrice" : "0x01",
                        "nonce" : "0x00",
                        "r" : "0xdf03a1147cc6b3cd356e866e8de948c4c9fc7aa7989307abf11641a6ede0a6c1",
                        "s" : "0x0e4d0f0f193dcdd41ce5b26f6ac3a5631735cfb81e8b4e614e01d006f69ef623",
                        "to" : "0x1000000000000000000000000000000000000000",
                        "v" : "0x1b",
                        "value" : "0x00"
                    }
                ],
                "uncleHeaders" : [
                ]
            }
        ],
        "genesisBlockHeader" : {
            "bloom" : "0x00000000000000000000000000000000000000000000000000000000000000000000000000000000000000000000000000000000000000000000000000000000000000000000000000000000000000000000000000000000000000000000000000000000000000000000000000000000000000000000000000000000000000000000000000000000000000000000000000000000000000000000000000000000000000000000000000000000000000000000000000000000000000000000000000000000000000000000000000000000000000000000000000000000000000000000000000000000000000000000000000000000000000000000000000000000",
            "coinbase" : "0x2adc25665018aa1fe0e6bc666dac8fc2697ff9ba",
            "difficulty" : "0x020000",
            "extraData" : "0x42",
            "gasLimit" : "0x02540be400",
            "gasUsed" : "0x00",
            "hash" : "0x70fd8962467cac8e2412f97cc4f775613ccc23d5340252ee5cca67b868639273",
            "mixHash" : "0x56e81f171bcc55a6ff8345e692c0f86e5b48e01b996cadc001622fb5e363b421",
            "nonce" : "0x0102030405060708",
            "number" : "0x00",
            "parentHash" : "0x0000000000000000000000000000000000000000000000000000000000000000",
            "receiptTrie" : "0x56e81f171bcc55a6ff8345e692c0f86e5b48e01b996cadc001622fb5e363b421",
            "stateRoot" : "0xb0afba507e6fef0e690450e0c590ea05c53f4d93ea93a7b92449c437591484ca",
            "timestamp" : "0x03b6",
            "transactionsTrie" : "0x56e81f171bcc55a6ff8345e692c0f86e5b48e01b996cadc001622fb5e363b421",
            "uncleHash" : "0x1dcc4de8dec75d7aab85b567b6ccd41ad312451b948a7413f0a142fd40d49347"
        },
        "genesisRLP" : "0xf901fcf901f7a00000000000000000000000000000000000000000000000000000000000000000a01dcc4de8dec75d7aab85b567b6ccd41ad312451b948a7413f0a142fd40d49347942adc25665018aa1fe0e6bc666dac8fc2697ff9baa0b0afba507e6fef0e690450e0c590ea05c53f4d93ea93a7b92449c437591484caa056e81f171bcc55a6ff8345e692c0f86e5b48e01b996cadc001622fb5e363b421a056e81f171bcc55a6ff8345e692c0f86e5b48e01b996cadc001622fb5e363b421b901000000000000000000000000000000000000000000000000000000000000000000000000000000000000000000000000000000000000000000000000000000000000000000000000000000000000000000000000000000000000000000000000000000000000000000000000000000000000000000000000000000000000000000000000000000000000000000000000000000000000000000000000000000000000000000000000000000000000000000000000000000000000000000000000000000000000000000000000000000000000000000000000000000000000000000000000000000000000000000000000000000000000000000000000000000000083020000808502540be400808203b642a056e81f171bcc55a6ff8345e692c0f86e5b48e01b996cadc001622fb5e363b421880102030405060708c0c0",
        "lastblockhash" : "0xb4c6c9982898f71e81b0187c79e09aa1925658c07594c1b2a61340080ad9f0a3",
        "network" : "EIP150",
        "postState" : {
            "0x1000000000000000000000000000000000000000" : {
                "balance" : "0x00",
                "code" : "0x36600060003760206103e8366000600060055af26001556103e851600255",
                "nonce" : "0x00",
                "storage" : {
                    "0x01" : "0x01"
                }
            },
            "0x2adc25665018aa1fe0e6bc666dac8fc2697ff9ba" : {
                "balance" : "0x4563918244f4b9d3",
                "code" : "",
                "nonce" : "0x00",
                "storage" : {
                }
            },
            "0xa94f5374fce5edbc8e2a8697c15331677e6ebf0b" : {
                "balance" : "0x3635c9adc5de9f462d",
                "code" : "",
                "nonce" : "0x01",
                "storage" : {
                }
            }
        },
        "pre" : {
            "0x1000000000000000000000000000000000000000" : {
                "balance" : "0x00",
                "code" : "0x36600060003760206103e8366000600060055af26001556103e851600255",
                "nonce" : "0x00",
                "storage" : {
                }
            },
            "0xa94f5374fce5edbc8e2a8697c15331677e6ebf0b" : {
                "balance" : "0x3635c9adc5dea00000",
                "code" : "",
                "nonce" : "0x00",
                "storage" : {
                }
            }
        }
    },
    "modexp_d10g1v0_EIP158" : {
        "_info" : {
            "comment" : "",
            "filledwith" : "cpp-1.3.0+commit.4e101574.Linux.g++",
            "lllcversion" : "Version: 0.4.18-develop.2017.10.11+commit.81f9f86c.Linux.g++",
            "source" : "src/BlockchainTestsFiller/GeneralStateTests/stPreCompiledContracts/modexp_d10g1v0Filler.json",
            "sourceHash" : "edb821bf9477429d52a2b80adee4f0ed91b8c7517ef0dffd24f1120b0a596bf3"
        },
        "blocks" : [
            {
                "blockHeader" : {
                    "bloom" : "0x00000000000000000000000000000000000000000000000000000000000000000000000000000000000000000000000000000000000000000000000000000000000000000000000000000000000000000000000000000000000000000000000000000000000000000000000000000000000000000000000000000000000000000000000000000000000000000000000000000000000000000000000000000000000000000000000000000000000000000000000000000000000000000000000000000000000000000000000000000000000000000000000000000000000000000000000000000000000000000000000000000000000000000000000000000000",
                    "coinbase" : "0x2adc25665018aa1fe0e6bc666dac8fc2697ff9ba",
                    "difficulty" : "0x020000",
                    "extraData" : "",
                    "gasLimit" : "0x02540be400",
                    "gasUsed" : "0xb9d3",
                    "hash" : "0x8286c444a53de1d5c8db61bdacca96f895f0210711f755c59a07c0ebb0f8951f",
                    "mixHash" : "0x9facd715bd14fd79d07cec081a57077898237192ff6779f9a667c31d91898afe",
                    "nonce" : "0xd3cadc3d345d4da2",
                    "number" : "0x01",
                    "parentHash" : "0x70fd8962467cac8e2412f97cc4f775613ccc23d5340252ee5cca67b868639273",
                    "receiptTrie" : "0x911513d533cf50d16a0e79a9d08443e4a5b4dd928618d8f4dca6bbe02d9e83df",
                    "stateRoot" : "0x2c32e61701383faa3e439268fbd2a4aacdd140fe280a6d35f252e63a851b05b6",
                    "timestamp" : "0x03e8",
                    "transactionsTrie" : "0x2a06db5c511e02891d1bab7022bf78e3a54122aa3be57464460bd0d18652d8b6",
                    "uncleHash" : "0x1dcc4de8dec75d7aab85b567b6ccd41ad312451b948a7413f0a142fd40d49347"
                },
                "rlp" : "0xf902c5f901f9a070fd8962467cac8e2412f97cc4f775613ccc23d5340252ee5cca67b868639273a01dcc4de8dec75d7aab85b567b6ccd41ad312451b948a7413f0a142fd40d49347942adc25665018aa1fe0e6bc666dac8fc2697ff9baa02c32e61701383faa3e439268fbd2a4aacdd140fe280a6d35f252e63a851b05b6a02a06db5c511e02891d1bab7022bf78e3a54122aa3be57464460bd0d18652d8b6a0911513d533cf50d16a0e79a9d08443e4a5b4dd928618d8f4dca6bbe02d9e83dfb901000000000000000000000000000000000000000000000000000000000000000000000000000000000000000000000000000000000000000000000000000000000000000000000000000000000000000000000000000000000000000000000000000000000000000000000000000000000000000000000000000000000000000000000000000000000000000000000000000000000000000000000000000000000000000000000000000000000000000000000000000000000000000000000000000000000000000000000000000000000000000000000000000000000000000000000000000000000000000000000000000000000000000000000000000000000083020000018502540be40082b9d38203e880a09facd715bd14fd79d07cec081a57077898237192ff6779f9a667c31d91898afe88d3cadc3d345d4da2f8c6f8c4800183015f9094100000000000000000000000000000000000000080b8630000000000000000000000000000000000000000000000000000000000000001000000000000000000000000000000000000000000000000000000000000000100000000000000000000000000000000000000000000000000000000000000010003041ba0df03a1147cc6b3cd356e866e8de948c4c9fc7aa7989307abf11641a6ede0a6c1a00e4d0f0f193dcdd41ce5b26f6ac3a5631735cfb81e8b4e614e01d006f69ef623c0",
                "transactions" : [
                    {
                        "data" : "0x000000000000000000000000000000000000000000000000000000000000000100000000000000000000000000000000000000000000000000000000000000010000000000000000000000000000000000000000000000000000000000000001000304",
                        "gasLimit" : "0x015f90",
                        "gasPrice" : "0x01",
                        "nonce" : "0x00",
                        "r" : "0xdf03a1147cc6b3cd356e866e8de948c4c9fc7aa7989307abf11641a6ede0a6c1",
                        "s" : "0x0e4d0f0f193dcdd41ce5b26f6ac3a5631735cfb81e8b4e614e01d006f69ef623",
                        "to" : "0x1000000000000000000000000000000000000000",
                        "v" : "0x1b",
                        "value" : "0x00"
                    }
                ],
                "uncleHeaders" : [
                ]
            }
        ],
        "genesisBlockHeader" : {
            "bloom" : "0x00000000000000000000000000000000000000000000000000000000000000000000000000000000000000000000000000000000000000000000000000000000000000000000000000000000000000000000000000000000000000000000000000000000000000000000000000000000000000000000000000000000000000000000000000000000000000000000000000000000000000000000000000000000000000000000000000000000000000000000000000000000000000000000000000000000000000000000000000000000000000000000000000000000000000000000000000000000000000000000000000000000000000000000000000000000",
            "coinbase" : "0x2adc25665018aa1fe0e6bc666dac8fc2697ff9ba",
            "difficulty" : "0x020000",
            "extraData" : "0x42",
            "gasLimit" : "0x02540be400",
            "gasUsed" : "0x00",
            "hash" : "0x70fd8962467cac8e2412f97cc4f775613ccc23d5340252ee5cca67b868639273",
            "mixHash" : "0x56e81f171bcc55a6ff8345e692c0f86e5b48e01b996cadc001622fb5e363b421",
            "nonce" : "0x0102030405060708",
            "number" : "0x00",
            "parentHash" : "0x0000000000000000000000000000000000000000000000000000000000000000",
            "receiptTrie" : "0x56e81f171bcc55a6ff8345e692c0f86e5b48e01b996cadc001622fb5e363b421",
            "stateRoot" : "0xb0afba507e6fef0e690450e0c590ea05c53f4d93ea93a7b92449c437591484ca",
            "timestamp" : "0x03b6",
            "transactionsTrie" : "0x56e81f171bcc55a6ff8345e692c0f86e5b48e01b996cadc001622fb5e363b421",
            "uncleHash" : "0x1dcc4de8dec75d7aab85b567b6ccd41ad312451b948a7413f0a142fd40d49347"
        },
        "genesisRLP" : "0xf901fcf901f7a00000000000000000000000000000000000000000000000000000000000000000a01dcc4de8dec75d7aab85b567b6ccd41ad312451b948a7413f0a142fd40d49347942adc25665018aa1fe0e6bc666dac8fc2697ff9baa0b0afba507e6fef0e690450e0c590ea05c53f4d93ea93a7b92449c437591484caa056e81f171bcc55a6ff8345e692c0f86e5b48e01b996cadc001622fb5e363b421a056e81f171bcc55a6ff8345e692c0f86e5b48e01b996cadc001622fb5e363b421b901000000000000000000000000000000000000000000000000000000000000000000000000000000000000000000000000000000000000000000000000000000000000000000000000000000000000000000000000000000000000000000000000000000000000000000000000000000000000000000000000000000000000000000000000000000000000000000000000000000000000000000000000000000000000000000000000000000000000000000000000000000000000000000000000000000000000000000000000000000000000000000000000000000000000000000000000000000000000000000000000000000000000000000000000000000000083020000808502540be400808203b642a056e81f171bcc55a6ff8345e692c0f86e5b48e01b996cadc001622fb5e363b421880102030405060708c0c0",
        "lastblockhash" : "0x8286c444a53de1d5c8db61bdacca96f895f0210711f755c59a07c0ebb0f8951f",
        "network" : "EIP158",
        "postState" : {
            "0x1000000000000000000000000000000000000000" : {
                "balance" : "0x00",
                "code" : "0x36600060003760206103e8366000600060055af26001556103e851600255",
                "nonce" : "0x00",
                "storage" : {
                    "0x01" : "0x01"
                }
            },
            "0x2adc25665018aa1fe0e6bc666dac8fc2697ff9ba" : {
                "balance" : "0x4563918244f4b9d3",
                "code" : "",
                "nonce" : "0x00",
                "storage" : {
                }
            },
            "0xa94f5374fce5edbc8e2a8697c15331677e6ebf0b" : {
                "balance" : "0x3635c9adc5de9f462d",
                "code" : "",
                "nonce" : "0x01",
                "storage" : {
                }
            }
        },
        "pre" : {
            "0x1000000000000000000000000000000000000000" : {
                "balance" : "0x00",
                "code" : "0x36600060003760206103e8366000600060055af26001556103e851600255",
                "nonce" : "0x00",
                "storage" : {
                }
            },
            "0xa94f5374fce5edbc8e2a8697c15331677e6ebf0b" : {
                "balance" : "0x3635c9adc5dea00000",
                "code" : "",
                "nonce" : "0x00",
                "storage" : {
                }
            }
        }
    },
    "modexp_d10g1v0_Frontier" : {
        "_info" : {
            "comment" : "",
            "filledwith" : "cpp-1.3.0+commit.4e101574.Linux.g++",
            "lllcversion" : "Version: 0.4.18-develop.2017.10.11+commit.81f9f86c.Linux.g++",
            "source" : "src/BlockchainTestsFiller/GeneralStateTests/stPreCompiledContracts/modexp_d10g1v0Filler.json",
            "sourceHash" : "edb821bf9477429d52a2b80adee4f0ed91b8c7517ef0dffd24f1120b0a596bf3"
        },
        "blocks" : [
            {
                "blockHeader" : {
                    "bloom" : "0x00000000000000000000000000000000000000000000000000000000000000000000000000000000000000000000000000000000000000000000000000000000000000000000000000000000000000000000000000000000000000000000000000000000000000000000000000000000000000000000000000000000000000000000000000000000000000000000000000000000000000000000000000000000000000000000000000000000000000000000000000000000000000000000000000000000000000000000000000000000000000000000000000000000000000000000000000000000000000000000000000000000000000000000000000000000",
                    "coinbase" : "0x2adc25665018aa1fe0e6bc666dac8fc2697ff9ba",
                    "difficulty" : "0x020000",
                    "extraData" : "",
                    "gasLimit" : "0x02540be400",
                    "gasUsed" : "0x015f90",
                    "hash" : "0xd10f1117b728dfadd0ea4d302eb6b41ed2138fc6325e6633b2ca30282a21c264",
                    "mixHash" : "0x40a69efbfbaff2a9e55b9b80fbca3fedc2494ebbb65b8ad4c624c59ed5813038",
                    "nonce" : "0xf04e91938215603b",
                    "number" : "0x01",
                    "parentHash" : "0x70fd8962467cac8e2412f97cc4f775613ccc23d5340252ee5cca67b868639273",
                    "receiptTrie" : "0xf3cd158d09a867ec1e8fdd035d42701acc5cc8381c01a6bdf95d17c7ae12fe98",
                    "stateRoot" : "0xf1a237b17fbf06919db4cd0679c5879b91500dc0918920d3acb8a93b1c62f241",
                    "timestamp" : "0x03e8",
                    "transactionsTrie" : "0x2a06db5c511e02891d1bab7022bf78e3a54122aa3be57464460bd0d18652d8b6",
                    "uncleHash" : "0x1dcc4de8dec75d7aab85b567b6ccd41ad312451b948a7413f0a142fd40d49347"
                },
                "rlp" : "0xf902c6f901faa070fd8962467cac8e2412f97cc4f775613ccc23d5340252ee5cca67b868639273a01dcc4de8dec75d7aab85b567b6ccd41ad312451b948a7413f0a142fd40d49347942adc25665018aa1fe0e6bc666dac8fc2697ff9baa0f1a237b17fbf06919db4cd0679c5879b91500dc0918920d3acb8a93b1c62f241a02a06db5c511e02891d1bab7022bf78e3a54122aa3be57464460bd0d18652d8b6a0f3cd158d09a867ec1e8fdd035d42701acc5cc8381c01a6bdf95d17c7ae12fe98b901000000000000000000000000000000000000000000000000000000000000000000000000000000000000000000000000000000000000000000000000000000000000000000000000000000000000000000000000000000000000000000000000000000000000000000000000000000000000000000000000000000000000000000000000000000000000000000000000000000000000000000000000000000000000000000000000000000000000000000000000000000000000000000000000000000000000000000000000000000000000000000000000000000000000000000000000000000000000000000000000000000000000000000000000000000000083020000018502540be40083015f908203e880a040a69efbfbaff2a9e55b9b80fbca3fedc2494ebbb65b8ad4c624c59ed581303888f04e91938215603bf8c6f8c4800183015f9094100000000000000000000000000000000000000080b8630000000000000000000000000000000000000000000000000000000000000001000000000000000000000000000000000000000000000000000000000000000100000000000000000000000000000000000000000000000000000000000000010003041ba0df03a1147cc6b3cd356e866e8de948c4c9fc7aa7989307abf11641a6ede0a6c1a00e4d0f0f193dcdd41ce5b26f6ac3a5631735cfb81e8b4e614e01d006f69ef623c0",
                "transactions" : [
                    {
                        "data" : "0x000000000000000000000000000000000000000000000000000000000000000100000000000000000000000000000000000000000000000000000000000000010000000000000000000000000000000000000000000000000000000000000001000304",
                        "gasLimit" : "0x015f90",
                        "gasPrice" : "0x01",
                        "nonce" : "0x00",
                        "r" : "0xdf03a1147cc6b3cd356e866e8de948c4c9fc7aa7989307abf11641a6ede0a6c1",
                        "s" : "0x0e4d0f0f193dcdd41ce5b26f6ac3a5631735cfb81e8b4e614e01d006f69ef623",
                        "to" : "0x1000000000000000000000000000000000000000",
                        "v" : "0x1b",
                        "value" : "0x00"
                    }
                ],
                "uncleHeaders" : [
                ]
            }
        ],
        "genesisBlockHeader" : {
            "bloom" : "0x00000000000000000000000000000000000000000000000000000000000000000000000000000000000000000000000000000000000000000000000000000000000000000000000000000000000000000000000000000000000000000000000000000000000000000000000000000000000000000000000000000000000000000000000000000000000000000000000000000000000000000000000000000000000000000000000000000000000000000000000000000000000000000000000000000000000000000000000000000000000000000000000000000000000000000000000000000000000000000000000000000000000000000000000000000000",
            "coinbase" : "0x2adc25665018aa1fe0e6bc666dac8fc2697ff9ba",
            "difficulty" : "0x020000",
            "extraData" : "0x42",
            "gasLimit" : "0x02540be400",
            "gasUsed" : "0x00",
            "hash" : "0x70fd8962467cac8e2412f97cc4f775613ccc23d5340252ee5cca67b868639273",
            "mixHash" : "0x56e81f171bcc55a6ff8345e692c0f86e5b48e01b996cadc001622fb5e363b421",
            "nonce" : "0x0102030405060708",
            "number" : "0x00",
            "parentHash" : "0x0000000000000000000000000000000000000000000000000000000000000000",
            "receiptTrie" : "0x56e81f171bcc55a6ff8345e692c0f86e5b48e01b996cadc001622fb5e363b421",
            "stateRoot" : "0xb0afba507e6fef0e690450e0c590ea05c53f4d93ea93a7b92449c437591484ca",
            "timestamp" : "0x03b6",
            "transactionsTrie" : "0x56e81f171bcc55a6ff8345e692c0f86e5b48e01b996cadc001622fb5e363b421",
            "uncleHash" : "0x1dcc4de8dec75d7aab85b567b6ccd41ad312451b948a7413f0a142fd40d49347"
        },
        "genesisRLP" : "0xf901fcf901f7a00000000000000000000000000000000000000000000000000000000000000000a01dcc4de8dec75d7aab85b567b6ccd41ad312451b948a7413f0a142fd40d49347942adc25665018aa1fe0e6bc666dac8fc2697ff9baa0b0afba507e6fef0e690450e0c590ea05c53f4d93ea93a7b92449c437591484caa056e81f171bcc55a6ff8345e692c0f86e5b48e01b996cadc001622fb5e363b421a056e81f171bcc55a6ff8345e692c0f86e5b48e01b996cadc001622fb5e363b421b901000000000000000000000000000000000000000000000000000000000000000000000000000000000000000000000000000000000000000000000000000000000000000000000000000000000000000000000000000000000000000000000000000000000000000000000000000000000000000000000000000000000000000000000000000000000000000000000000000000000000000000000000000000000000000000000000000000000000000000000000000000000000000000000000000000000000000000000000000000000000000000000000000000000000000000000000000000000000000000000000000000000000000000000000000000000083020000808502540be400808203b642a056e81f171bcc55a6ff8345e692c0f86e5b48e01b996cadc001622fb5e363b421880102030405060708c0c0",
        "lastblockhash" : "0xd10f1117b728dfadd0ea4d302eb6b41ed2138fc6325e6633b2ca30282a21c264",
        "network" : "Frontier",
        "postState" : {
            "0x1000000000000000000000000000000000000000" : {
                "balance" : "0x00",
                "code" : "0x36600060003760206103e8366000600060055af26001556103e851600255",
                "nonce" : "0x00",
                "storage" : {
                }
            },
            "0x2adc25665018aa1fe0e6bc666dac8fc2697ff9ba" : {
                "balance" : "0x4563918244f55f90",
                "code" : "",
                "nonce" : "0x00",
                "storage" : {
                }
            },
            "0xa94f5374fce5edbc8e2a8697c15331677e6ebf0b" : {
                "balance" : "0x3635c9adc5de9ea070",
                "code" : "",
                "nonce" : "0x01",
                "storage" : {
                }
            }
        },
        "pre" : {
            "0x1000000000000000000000000000000000000000" : {
                "balance" : "0x00",
                "code" : "0x36600060003760206103e8366000600060055af26001556103e851600255",
                "nonce" : "0x00",
                "storage" : {
                }
            },
            "0xa94f5374fce5edbc8e2a8697c15331677e6ebf0b" : {
                "balance" : "0x3635c9adc5dea00000",
                "code" : "",
                "nonce" : "0x00",
                "storage" : {
                }
            }
        }
    },
    "modexp_d10g1v0_Homestead" : {
        "_info" : {
            "comment" : "",
            "filledwith" : "cpp-1.3.0+commit.4e101574.Linux.g++",
            "lllcversion" : "Version: 0.4.18-develop.2017.10.11+commit.81f9f86c.Linux.g++",
            "source" : "src/BlockchainTestsFiller/GeneralStateTests/stPreCompiledContracts/modexp_d10g1v0Filler.json",
            "sourceHash" : "edb821bf9477429d52a2b80adee4f0ed91b8c7517ef0dffd24f1120b0a596bf3"
        },
        "blocks" : [
            {
                "blockHeader" : {
                    "bloom" : "0x00000000000000000000000000000000000000000000000000000000000000000000000000000000000000000000000000000000000000000000000000000000000000000000000000000000000000000000000000000000000000000000000000000000000000000000000000000000000000000000000000000000000000000000000000000000000000000000000000000000000000000000000000000000000000000000000000000000000000000000000000000000000000000000000000000000000000000000000000000000000000000000000000000000000000000000000000000000000000000000000000000000000000000000000000000000",
                    "coinbase" : "0x2adc25665018aa1fe0e6bc666dac8fc2697ff9ba",
                    "difficulty" : "0x020000",
                    "extraData" : "",
                    "gasLimit" : "0x02540be400",
                    "gasUsed" : "0x015f90",
                    "hash" : "0x6b3fcdd76fb2914d3f1ed35036811ee266dc7d6733aed505bcb70a30896c631e",
                    "mixHash" : "0xc8302c4acbd02d26f0b2fbd308a5e5b2069999696be83353e51beb8be185a017",
                    "nonce" : "0xc124dc1d37fd7990",
                    "number" : "0x01",
                    "parentHash" : "0x70fd8962467cac8e2412f97cc4f775613ccc23d5340252ee5cca67b868639273",
                    "receiptTrie" : "0xf3cd158d09a867ec1e8fdd035d42701acc5cc8381c01a6bdf95d17c7ae12fe98",
                    "stateRoot" : "0xf1a237b17fbf06919db4cd0679c5879b91500dc0918920d3acb8a93b1c62f241",
                    "timestamp" : "0x03e8",
                    "transactionsTrie" : "0x2a06db5c511e02891d1bab7022bf78e3a54122aa3be57464460bd0d18652d8b6",
                    "uncleHash" : "0x1dcc4de8dec75d7aab85b567b6ccd41ad312451b948a7413f0a142fd40d49347"
                },
                "rlp" : "0xf902c6f901faa070fd8962467cac8e2412f97cc4f775613ccc23d5340252ee5cca67b868639273a01dcc4de8dec75d7aab85b567b6ccd41ad312451b948a7413f0a142fd40d49347942adc25665018aa1fe0e6bc666dac8fc2697ff9baa0f1a237b17fbf06919db4cd0679c5879b91500dc0918920d3acb8a93b1c62f241a02a06db5c511e02891d1bab7022bf78e3a54122aa3be57464460bd0d18652d8b6a0f3cd158d09a867ec1e8fdd035d42701acc5cc8381c01a6bdf95d17c7ae12fe98b901000000000000000000000000000000000000000000000000000000000000000000000000000000000000000000000000000000000000000000000000000000000000000000000000000000000000000000000000000000000000000000000000000000000000000000000000000000000000000000000000000000000000000000000000000000000000000000000000000000000000000000000000000000000000000000000000000000000000000000000000000000000000000000000000000000000000000000000000000000000000000000000000000000000000000000000000000000000000000000000000000000000000000000000000000000000083020000018502540be40083015f908203e880a0c8302c4acbd02d26f0b2fbd308a5e5b2069999696be83353e51beb8be185a01788c124dc1d37fd7990f8c6f8c4800183015f9094100000000000000000000000000000000000000080b8630000000000000000000000000000000000000000000000000000000000000001000000000000000000000000000000000000000000000000000000000000000100000000000000000000000000000000000000000000000000000000000000010003041ba0df03a1147cc6b3cd356e866e8de948c4c9fc7aa7989307abf11641a6ede0a6c1a00e4d0f0f193dcdd41ce5b26f6ac3a5631735cfb81e8b4e614e01d006f69ef623c0",
                "transactions" : [
                    {
                        "data" : "0x000000000000000000000000000000000000000000000000000000000000000100000000000000000000000000000000000000000000000000000000000000010000000000000000000000000000000000000000000000000000000000000001000304",
                        "gasLimit" : "0x015f90",
                        "gasPrice" : "0x01",
                        "nonce" : "0x00",
                        "r" : "0xdf03a1147cc6b3cd356e866e8de948c4c9fc7aa7989307abf11641a6ede0a6c1",
                        "s" : "0x0e4d0f0f193dcdd41ce5b26f6ac3a5631735cfb81e8b4e614e01d006f69ef623",
                        "to" : "0x1000000000000000000000000000000000000000",
                        "v" : "0x1b",
                        "value" : "0x00"
                    }
                ],
                "uncleHeaders" : [
                ]
            }
        ],
        "genesisBlockHeader" : {
            "bloom" : "0x00000000000000000000000000000000000000000000000000000000000000000000000000000000000000000000000000000000000000000000000000000000000000000000000000000000000000000000000000000000000000000000000000000000000000000000000000000000000000000000000000000000000000000000000000000000000000000000000000000000000000000000000000000000000000000000000000000000000000000000000000000000000000000000000000000000000000000000000000000000000000000000000000000000000000000000000000000000000000000000000000000000000000000000000000000000",
            "coinbase" : "0x2adc25665018aa1fe0e6bc666dac8fc2697ff9ba",
            "difficulty" : "0x020000",
            "extraData" : "0x42",
            "gasLimit" : "0x02540be400",
            "gasUsed" : "0x00",
            "hash" : "0x70fd8962467cac8e2412f97cc4f775613ccc23d5340252ee5cca67b868639273",
            "mixHash" : "0x56e81f171bcc55a6ff8345e692c0f86e5b48e01b996cadc001622fb5e363b421",
            "nonce" : "0x0102030405060708",
            "number" : "0x00",
            "parentHash" : "0x0000000000000000000000000000000000000000000000000000000000000000",
            "receiptTrie" : "0x56e81f171bcc55a6ff8345e692c0f86e5b48e01b996cadc001622fb5e363b421",
            "stateRoot" : "0xb0afba507e6fef0e690450e0c590ea05c53f4d93ea93a7b92449c437591484ca",
            "timestamp" : "0x03b6",
            "transactionsTrie" : "0x56e81f171bcc55a6ff8345e692c0f86e5b48e01b996cadc001622fb5e363b421",
            "uncleHash" : "0x1dcc4de8dec75d7aab85b567b6ccd41ad312451b948a7413f0a142fd40d49347"
        },
        "genesisRLP" : "0xf901fcf901f7a00000000000000000000000000000000000000000000000000000000000000000a01dcc4de8dec75d7aab85b567b6ccd41ad312451b948a7413f0a142fd40d49347942adc25665018aa1fe0e6bc666dac8fc2697ff9baa0b0afba507e6fef0e690450e0c590ea05c53f4d93ea93a7b92449c437591484caa056e81f171bcc55a6ff8345e692c0f86e5b48e01b996cadc001622fb5e363b421a056e81f171bcc55a6ff8345e692c0f86e5b48e01b996cadc001622fb5e363b421b901000000000000000000000000000000000000000000000000000000000000000000000000000000000000000000000000000000000000000000000000000000000000000000000000000000000000000000000000000000000000000000000000000000000000000000000000000000000000000000000000000000000000000000000000000000000000000000000000000000000000000000000000000000000000000000000000000000000000000000000000000000000000000000000000000000000000000000000000000000000000000000000000000000000000000000000000000000000000000000000000000000000000000000000000000000000083020000808502540be400808203b642a056e81f171bcc55a6ff8345e692c0f86e5b48e01b996cadc001622fb5e363b421880102030405060708c0c0",
        "lastblockhash" : "0x6b3fcdd76fb2914d3f1ed35036811ee266dc7d6733aed505bcb70a30896c631e",
        "network" : "Homestead",
        "postState" : {
            "0x1000000000000000000000000000000000000000" : {
                "balance" : "0x00",
                "code" : "0x36600060003760206103e8366000600060055af26001556103e851600255",
                "nonce" : "0x00",
                "storage" : {
                }
            },
            "0x2adc25665018aa1fe0e6bc666dac8fc2697ff9ba" : {
                "balance" : "0x4563918244f55f90",
                "code" : "",
                "nonce" : "0x00",
                "storage" : {
                }
            },
            "0xa94f5374fce5edbc8e2a8697c15331677e6ebf0b" : {
                "balance" : "0x3635c9adc5de9ea070",
                "code" : "",
                "nonce" : "0x01",
                "storage" : {
                }
            }
        },
        "pre" : {
            "0x1000000000000000000000000000000000000000" : {
                "balance" : "0x00",
                "code" : "0x36600060003760206103e8366000600060055af26001556103e851600255",
                "nonce" : "0x00",
                "storage" : {
                }
            },
            "0xa94f5374fce5edbc8e2a8697c15331677e6ebf0b" : {
                "balance" : "0x3635c9adc5dea00000",
                "code" : "",
                "nonce" : "0x00",
                "storage" : {
                }
            }
        }
    }
}