{
    "sec80_d0g0v0_Byzantium" : {
        "_info" : {
            "comment" : "",
            "filledwith" : "cpp-1.3.0+commit.4e101574.Linux.g++",
            "lllcversion" : "Version: 0.4.18-develop.2017.10.11+commit.81f9f86c.Linux.g++",
            "source" : "src/BlockchainTestsFiller/GeneralStateTests/stPreCompiledContracts/sec80_d0g0v0Filler.json",
            "sourceHash" : "5bcbb0814bb084fbc4e8f281228fe29fe52e95d47c290c5c7ee5efc8e5fee1b6"
        },
        "blocks" : [
            {
                "blockHeader" : {
                    "bloom" : "0x00000000000000000000000000000000000000000000000000000000000000000000000000000000000000000000000000000000000000000000000000000000000000000000000000000000000000000000000000000000000000000000000000000000000000000000000000000000000000000000000000000000000000000000000000000000000000000000000000000000000000000000000000000000000000000000000000000000000000000000000000000000000000000000000000000000000000000000000000000000000000000000000000000000000000000000000000000000000000000000000000000000000000000000000000000000",
                    "coinbase" : "0x2adc25665018aa1fe0e6bc666dac8fc2697ff9ba",
                    "difficulty" : "0x020000",
                    "extraData" : "",
                    "gasLimit" : "0x989680",
                    "gasUsed" : "0xaf2d",
                    "hash" : "0x6061809bb0ce67cd78806e937b305fe55c66cb29a2a891cfa719b4a9ff3bef95",
                    "mixHash" : "0xfc3d05843a859fb500a77d0ddf725b3400bd1b755c459d8b537b68f495f59f6a",
                    "nonce" : "0xc1ee2d16fc905886",
                    "number" : "0x01",
                    "parentHash" : "0x685e58a31539f57e51f4ae36f8e1559aa3d9f52b8a0dcdf5d545066111701abf",
                    "receiptTrie" : "0xcb01b5c5f4202602d4329ead8fb66227f8dfefd2d75b05ee01e76b6118d43517",
                    "stateRoot" : "0xce10dbcb9d2d598820a222faf6afe2b9dac77295062ab924717c8be82ce60f57",
                    "timestamp" : "0x03e8",
                    "transactionsTrie" : "0x138e622ff34e8a4bed7c2631ee946b094d23bd208e8285e710fc5fa254318627",
                    "uncleHash" : "0x1dcc4de8dec75d7aab85b567b6ccd41ad312451b948a7413f0a142fd40d49347"
                },
                "rlp" : "0xf90262f901f7a0685e58a31539f57e51f4ae36f8e1559aa3d9f52b8a0dcdf5d545066111701abfa01dcc4de8dec75d7aab85b567b6ccd41ad312451b948a7413f0a142fd40d49347942adc25665018aa1fe0e6bc666dac8fc2697ff9baa0ce10dbcb9d2d598820a222faf6afe2b9dac77295062ab924717c8be82ce60f57a0138e622ff34e8a4bed7c2631ee946b094d23bd208e8285e710fc5fa254318627a0cb01b5c5f4202602d4329ead8fb66227f8dfefd2d75b05ee01e76b6118d43517b901000000000000000000000000000000000000000000000000000000000000000000000000000000000000000000000000000000000000000000000000000000000000000000000000000000000000000000000000000000000000000000000000000000000000000000000000000000000000000000000000000000000000000000000000000000000000000000000000000000000000000000000000000000000000000000000000000000000000000000000000000000000000000000000000000000000000000000000000000000000000000000000000000000000000000000000000000000000000000000000000000000000000000000000000000000000083020000018398968082af2d8203e880a0fc3d05843a859fb500a77d0ddf725b3400bd1b755c459d8b537b68f495f59f6a88c1ee2d16fc905886f865f86380018398968094095e7baea6a6c7c4c2dfeb977efac326af552d87830186a0801ca0c8c5469bcab2d89c9083cecdf26c9d3a9e40597d1d82744bc0e5e582f9dc48a4a0433eb07127e317522d4e08b89cd3824eee8bf1c75a2871db940e0c54d0dd09d2c0",
                "transactions" : [
                    {
                        "data" : "",
                        "gasLimit" : "0x989680",
                        "gasPrice" : "0x01",
                        "nonce" : "0x00",
                        "r" : "0xc8c5469bcab2d89c9083cecdf26c9d3a9e40597d1d82744bc0e5e582f9dc48a4",
                        "s" : "0x433eb07127e317522d4e08b89cd3824eee8bf1c75a2871db940e0c54d0dd09d2",
                        "to" : "0x095e7baea6a6c7c4c2dfeb977efac326af552d87",
                        "v" : "0x1c",
                        "value" : "0x0186a0"
                    }
                ],
                "uncleHeaders" : [
                ]
            }
        ],
        "genesisBlockHeader" : {
            "bloom" : "0x00000000000000000000000000000000000000000000000000000000000000000000000000000000000000000000000000000000000000000000000000000000000000000000000000000000000000000000000000000000000000000000000000000000000000000000000000000000000000000000000000000000000000000000000000000000000000000000000000000000000000000000000000000000000000000000000000000000000000000000000000000000000000000000000000000000000000000000000000000000000000000000000000000000000000000000000000000000000000000000000000000000000000000000000000000000",
            "coinbase" : "0x2adc25665018aa1fe0e6bc666dac8fc2697ff9ba",
            "difficulty" : "0x020000",
            "extraData" : "0x42",
            "gasLimit" : "0x989680",
            "gasUsed" : "0x00",
            "hash" : "0x685e58a31539f57e51f4ae36f8e1559aa3d9f52b8a0dcdf5d545066111701abf",
            "mixHash" : "0x56e81f171bcc55a6ff8345e692c0f86e5b48e01b996cadc001622fb5e363b421",
            "nonce" : "0x0102030405060708",
            "number" : "0x00",
            "parentHash" : "0x0000000000000000000000000000000000000000000000000000000000000000",
            "receiptTrie" : "0x56e81f171bcc55a6ff8345e692c0f86e5b48e01b996cadc001622fb5e363b421",
            "stateRoot" : "0x25a4db33e2f4a0ef769302c3d94763756cd510430bdb2419ca098625180e2846",
            "timestamp" : "0x03b6",
            "transactionsTrie" : "0x56e81f171bcc55a6ff8345e692c0f86e5b48e01b996cadc001622fb5e363b421",
            "uncleHash" : "0x1dcc4de8dec75d7aab85b567b6ccd41ad312451b948a7413f0a142fd40d49347"
        },
        "genesisRLP" : "0xf901faf901f5a00000000000000000000000000000000000000000000000000000000000000000a01dcc4de8dec75d7aab85b567b6ccd41ad312451b948a7413f0a142fd40d49347942adc25665018aa1fe0e6bc666dac8fc2697ff9baa025a4db33e2f4a0ef769302c3d94763756cd510430bdb2419ca098625180e2846a056e81f171bcc55a6ff8345e692c0f86e5b48e01b996cadc001622fb5e363b421a056e81f171bcc55a6ff8345e692c0f86e5b48e01b996cadc001622fb5e363b421b9010000000000000000000000000000000000000000000000000000000000000000000000000000000000000000000000000000000000000000000000000000000000000000000000000000000000000000000000000000000000000000000000000000000000000000000000000000000000000000000000000000000000000000000000000000000000000000000000000000000000000000000000000000000000000000000000000000000000000000000000000000000000000000000000000000000000000000000000000000000000000000000000000000000000000000000000000000000000000000000000000000000000000000000000000000000000830200008083989680808203b642a056e81f171bcc55a6ff8345e692c0f86e5b48e01b996cadc001622fb5e363b421880102030405060708c0c0",
        "lastblockhash" : "0x6061809bb0ce67cd78806e937b305fe55c66cb29a2a891cfa719b4a9ff3bef95",
        "network" : "Byzantium",
        "postState" : {
            "0x095e7baea6a6c7c4c2dfeb977efac326af552d87" : {
                "balance" : "0x0132b3a0",
                "code" : "0x601b565b6000555b005b630badf00d6003565b63c001f00d6003565b7319e7e376e7c213b7e7e7e46cc70a5dd086daff2a7f22ae6da6b482f9b1b19b0b897c3fd43884180a1c5ee361e1107a1bc635649dda600052601b603f537f16433dce375ce6dc8151d3f0a22728bc4a1d9fd6ed39dfd18b4609331937367f6040527f306964c0cf5d74f04129fdc60b54d35b596dde1bf89ad92cb4123318f4c0e40060605260206080607f60006000600161fffff21560075760805114601257600956",
                "nonce" : "0x00",
                "storage" : {
                    "0x00" : "0xc001f00d"
                }
            },
            "0x2adc25665018aa1fe0e6bc666dac8fc2697ff9ba" : {
                "balance" : "0x29a2241af62caf2d",
                "code" : "",
                "nonce" : "0x00",
                "storage" : {
                }
            },
            "0xa94f5374fce5edbc8e2a8697c15331677e6ebf0b" : {
                "balance" : "0x0de0b6b3a761ca33",
                "code" : "",
                "nonce" : "0x01",
                "storage" : {
                }
            }
        },
        "pre" : {
            "0x095e7baea6a6c7c4c2dfeb977efac326af552d87" : {
                "balance" : "0x01312d00",
                "code" : "0x601b565b6000555b005b630badf00d6003565b63c001f00d6003565b7319e7e376e7c213b7e7e7e46cc70a5dd086daff2a7f22ae6da6b482f9b1b19b0b897c3fd43884180a1c5ee361e1107a1bc635649dda600052601b603f537f16433dce375ce6dc8151d3f0a22728bc4a1d9fd6ed39dfd18b4609331937367f6040527f306964c0cf5d74f04129fdc60b54d35b596dde1bf89ad92cb4123318f4c0e40060605260206080607f60006000600161fffff21560075760805114601257600956",
                "nonce" : "0x00",
                "storage" : {
                }
            },
            "0xa94f5374fce5edbc8e2a8697c15331677e6ebf0b" : {
                "balance" : "0x0de0b6b3a7640000",
                "code" : "",
                "nonce" : "0x00",
                "storage" : {
                }
            }
        }
    },
    "sec80_d0g0v0_EIP150" : {
        "_info" : {
            "comment" : "",
            "filledwith" : "cpp-1.3.0+commit.4e101574.Linux.g++",
            "lllcversion" : "Version: 0.4.18-develop.2017.10.11+commit.81f9f86c.Linux.g++",
            "source" : "src/BlockchainTestsFiller/GeneralStateTests/stPreCompiledContracts/sec80_d0g0v0Filler.json",
            "sourceHash" : "5bcbb0814bb084fbc4e8f281228fe29fe52e95d47c290c5c7ee5efc8e5fee1b6"
        },
        "blocks" : [
            {
                "blockHeader" : {
                    "bloom" : "0x00000000000000000000000000000000000000000000000000000000000000000000000000000000000000000000000000000000000000000000000000000000000000000000000000000000000000000000000000000000000000000000000000000000000000000000000000000000000000000000000000000000000000000000000000000000000000000000000000000000000000000000000000000000000000000000000000000000000000000000000000000000000000000000000000000000000000000000000000000000000000000000000000000000000000000000000000000000000000000000000000000000000000000000000000000000",
                    "coinbase" : "0x2adc25665018aa1fe0e6bc666dac8fc2697ff9ba",
                    "difficulty" : "0x020000",
                    "extraData" : "",
                    "gasLimit" : "0x989680",
                    "gasUsed" : "0xaf2d",
                    "hash" : "0x495fdde52fa5b2cafa7db40c896b31743f45ccaba6ac1d785c309bee4698f6c0",
                    "mixHash" : "0xd2eb313e7aea7885f9130362b98786dc03f70f4f32c835c2c6a859feea1f68a0",
                    "nonce" : "0x83293864067037e3",
                    "number" : "0x01",
                    "parentHash" : "0x685e58a31539f57e51f4ae36f8e1559aa3d9f52b8a0dcdf5d545066111701abf",
                    "receiptTrie" : "0x46f10f0f8ccd6ac607124cf3409bfb6b15029c132e210438999f7fd81171bb4c",
                    "stateRoot" : "0x48570c0e86f5bec15ac3a6453d0acd2736e0eecd350bf5e19e24bf616875993c",
                    "timestamp" : "0x03e8",
                    "transactionsTrie" : "0x138e622ff34e8a4bed7c2631ee946b094d23bd208e8285e710fc5fa254318627",
                    "uncleHash" : "0x1dcc4de8dec75d7aab85b567b6ccd41ad312451b948a7413f0a142fd40d49347"
                },
                "rlp" : "0xf90262f901f7a0685e58a31539f57e51f4ae36f8e1559aa3d9f52b8a0dcdf5d545066111701abfa01dcc4de8dec75d7aab85b567b6ccd41ad312451b948a7413f0a142fd40d49347942adc25665018aa1fe0e6bc666dac8fc2697ff9baa048570c0e86f5bec15ac3a6453d0acd2736e0eecd350bf5e19e24bf616875993ca0138e622ff34e8a4bed7c2631ee946b094d23bd208e8285e710fc5fa254318627a046f10f0f8ccd6ac607124cf3409bfb6b15029c132e210438999f7fd81171bb4cb901000000000000000000000000000000000000000000000000000000000000000000000000000000000000000000000000000000000000000000000000000000000000000000000000000000000000000000000000000000000000000000000000000000000000000000000000000000000000000000000000000000000000000000000000000000000000000000000000000000000000000000000000000000000000000000000000000000000000000000000000000000000000000000000000000000000000000000000000000000000000000000000000000000000000000000000000000000000000000000000000000000000000000000000000000000000083020000018398968082af2d8203e880a0d2eb313e7aea7885f9130362b98786dc03f70f4f32c835c2c6a859feea1f68a08883293864067037e3f865f86380018398968094095e7baea6a6c7c4c2dfeb977efac326af552d87830186a0801ca0c8c5469bcab2d89c9083cecdf26c9d3a9e40597d1d82744bc0e5e582f9dc48a4a0433eb07127e317522d4e08b89cd3824eee8bf1c75a2871db940e0c54d0dd09d2c0",
                "transactions" : [
                    {
                        "data" : "",
                        "gasLimit" : "0x989680",
                        "gasPrice" : "0x01",
                        "nonce" : "0x00",
                        "r" : "0xc8c5469bcab2d89c9083cecdf26c9d3a9e40597d1d82744bc0e5e582f9dc48a4",
                        "s" : "0x433eb07127e317522d4e08b89cd3824eee8bf1c75a2871db940e0c54d0dd09d2",
                        "to" : "0x095e7baea6a6c7c4c2dfeb977efac326af552d87",
                        "v" : "0x1c",
                        "value" : "0x0186a0"
                    }
                ],
                "uncleHeaders" : [
                ]
            }
        ],
        "genesisBlockHeader" : {
            "bloom" : "0x00000000000000000000000000000000000000000000000000000000000000000000000000000000000000000000000000000000000000000000000000000000000000000000000000000000000000000000000000000000000000000000000000000000000000000000000000000000000000000000000000000000000000000000000000000000000000000000000000000000000000000000000000000000000000000000000000000000000000000000000000000000000000000000000000000000000000000000000000000000000000000000000000000000000000000000000000000000000000000000000000000000000000000000000000000000",
            "coinbase" : "0x2adc25665018aa1fe0e6bc666dac8fc2697ff9ba",
            "difficulty" : "0x020000",
            "extraData" : "0x42",
            "gasLimit" : "0x989680",
            "gasUsed" : "0x00",
            "hash" : "0x685e58a31539f57e51f4ae36f8e1559aa3d9f52b8a0dcdf5d545066111701abf",
            "mixHash" : "0x56e81f171bcc55a6ff8345e692c0f86e5b48e01b996cadc001622fb5e363b421",
            "nonce" : "0x0102030405060708",
            "number" : "0x00",
            "parentHash" : "0x0000000000000000000000000000000000000000000000000000000000000000",
            "receiptTrie" : "0x56e81f171bcc55a6ff8345e692c0f86e5b48e01b996cadc001622fb5e363b421",
            "stateRoot" : "0x25a4db33e2f4a0ef769302c3d94763756cd510430bdb2419ca098625180e2846",
            "timestamp" : "0x03b6",
            "transactionsTrie" : "0x56e81f171bcc55a6ff8345e692c0f86e5b48e01b996cadc001622fb5e363b421",
            "uncleHash" : "0x1dcc4de8dec75d7aab85b567b6ccd41ad312451b948a7413f0a142fd40d49347"
        },
        "genesisRLP" : "0xf901faf901f5a00000000000000000000000000000000000000000000000000000000000000000a01dcc4de8dec75d7aab85b567b6ccd41ad312451b948a7413f0a142fd40d49347942adc25665018aa1fe0e6bc666dac8fc2697ff9baa025a4db33e2f4a0ef769302c3d94763756cd510430bdb2419ca098625180e2846a056e81f171bcc55a6ff8345e692c0f86e5b48e01b996cadc001622fb5e363b421a056e81f171bcc55a6ff8345e692c0f86e5b48e01b996cadc001622fb5e363b421b9010000000000000000000000000000000000000000000000000000000000000000000000000000000000000000000000000000000000000000000000000000000000000000000000000000000000000000000000000000000000000000000000000000000000000000000000000000000000000000000000000000000000000000000000000000000000000000000000000000000000000000000000000000000000000000000000000000000000000000000000000000000000000000000000000000000000000000000000000000000000000000000000000000000000000000000000000000000000000000000000000000000000000000000000000000000000830200008083989680808203b642a056e81f171bcc55a6ff8345e692c0f86e5b48e01b996cadc001622fb5e363b421880102030405060708c0c0",
        "lastblockhash" : "0x495fdde52fa5b2cafa7db40c896b31743f45ccaba6ac1d785c309bee4698f6c0",
        "network" : "EIP150",
        "postState" : {
            "0x095e7baea6a6c7c4c2dfeb977efac326af552d87" : {
                "balance" : "0x0132b3a0",
                "code" : "0x601b565b6000555b005b630badf00d6003565b63c001f00d6003565b7319e7e376e7c213b7e7e7e46cc70a5dd086daff2a7f22ae6da6b482f9b1b19b0b897c3fd43884180a1c5ee361e1107a1bc635649dda600052601b603f537f16433dce375ce6dc8151d3f0a22728bc4a1d9fd6ed39dfd18b4609331937367f6040527f306964c0cf5d74f04129fdc60b54d35b596dde1bf89ad92cb4123318f4c0e40060605260206080607f60006000600161fffff21560075760805114601257600956",
                "nonce" : "0x00",
                "storage" : {
                    "0x00" : "0xc001f00d"
                }
            },
            "0x2adc25665018aa1fe0e6bc666dac8fc2697ff9ba" : {
                "balance" : "0x4563918244f4af2d",
                "code" : "",
                "nonce" : "0x00",
                "storage" : {
                }
            },
            "0xa94f5374fce5edbc8e2a8697c15331677e6ebf0b" : {
                "balance" : "0x0de0b6b3a761ca33",
                "code" : "",
                "nonce" : "0x01",
                "storage" : {
                }
            }
        },
        "pre" : {
            "0x095e7baea6a6c7c4c2dfeb977efac326af552d87" : {
                "balance" : "0x01312d00",
                "code" : "0x601b565b6000555b005b630badf00d6003565b63c001f00d6003565b7319e7e376e7c213b7e7e7e46cc70a5dd086daff2a7f22ae6da6b482f9b1b19b0b897c3fd43884180a1c5ee361e1107a1bc635649dda600052601b603f537f16433dce375ce6dc8151d3f0a22728bc4a1d9fd6ed39dfd18b4609331937367f6040527f306964c0cf5d74f04129fdc60b54d35b596dde1bf89ad92cb4123318f4c0e40060605260206080607f60006000600161fffff21560075760805114601257600956",
                "nonce" : "0x00",
                "storage" : {
                }
            },
            "0xa94f5374fce5edbc8e2a8697c15331677e6ebf0b" : {
                "balance" : "0x0de0b6b3a7640000",
                "code" : "",
                "nonce" : "0x00",
                "storage" : {
                }
            }
        }
    },
    "sec80_d0g0v0_EIP158" : {
        "_info" : {
            "comment" : "",
            "filledwith" : "cpp-1.3.0+commit.4e101574.Linux.g++",
            "lllcversion" : "Version: 0.4.18-develop.2017.10.11+commit.81f9f86c.Linux.g++",
            "source" : "src/BlockchainTestsFiller/GeneralStateTests/stPreCompiledContracts/sec80_d0g0v0Filler.json",
            "sourceHash" : "5bcbb0814bb084fbc4e8f281228fe29fe52e95d47c290c5c7ee5efc8e5fee1b6"
        },
        "blocks" : [
            {
                "blockHeader" : {
                    "bloom" : "0x00000000000000000000000000000000000000000000000000000000000000000000000000000000000000000000000000000000000000000000000000000000000000000000000000000000000000000000000000000000000000000000000000000000000000000000000000000000000000000000000000000000000000000000000000000000000000000000000000000000000000000000000000000000000000000000000000000000000000000000000000000000000000000000000000000000000000000000000000000000000000000000000000000000000000000000000000000000000000000000000000000000000000000000000000000000",
                    "coinbase" : "0x2adc25665018aa1fe0e6bc666dac8fc2697ff9ba",
                    "difficulty" : "0x020000",
                    "extraData" : "",
                    "gasLimit" : "0x989680",
                    "gasUsed" : "0xaf2d",
                    "hash" : "0xafb75b61e5048da59c555cd41e1ff6182350d203fa5ef1ec75ac3a2d625f2b82",
                    "mixHash" : "0x72f24b34a9fb7cf0bff8fc874f22eb6652da480e2964de975cae665ac1819fe0",
                    "nonce" : "0xf6b75c07c2510619",
                    "number" : "0x01",
                    "parentHash" : "0x685e58a31539f57e51f4ae36f8e1559aa3d9f52b8a0dcdf5d545066111701abf",
                    "receiptTrie" : "0x46f10f0f8ccd6ac607124cf3409bfb6b15029c132e210438999f7fd81171bb4c",
                    "stateRoot" : "0x48570c0e86f5bec15ac3a6453d0acd2736e0eecd350bf5e19e24bf616875993c",
                    "timestamp" : "0x03e8",
                    "transactionsTrie" : "0x138e622ff34e8a4bed7c2631ee946b094d23bd208e8285e710fc5fa254318627",
                    "uncleHash" : "0x1dcc4de8dec75d7aab85b567b6ccd41ad312451b948a7413f0a142fd40d49347"
                },
                "rlp" : "0xf90262f901f7a0685e58a31539f57e51f4ae36f8e1559aa3d9f52b8a0dcdf5d545066111701abfa01dcc4de8dec75d7aab85b567b6ccd41ad312451b948a7413f0a142fd40d49347942adc25665018aa1fe0e6bc666dac8fc2697ff9baa048570c0e86f5bec15ac3a6453d0acd2736e0eecd350bf5e19e24bf616875993ca0138e622ff34e8a4bed7c2631ee946b094d23bd208e8285e710fc5fa254318627a046f10f0f8ccd6ac607124cf3409bfb6b15029c132e210438999f7fd81171bb4cb901000000000000000000000000000000000000000000000000000000000000000000000000000000000000000000000000000000000000000000000000000000000000000000000000000000000000000000000000000000000000000000000000000000000000000000000000000000000000000000000000000000000000000000000000000000000000000000000000000000000000000000000000000000000000000000000000000000000000000000000000000000000000000000000000000000000000000000000000000000000000000000000000000000000000000000000000000000000000000000000000000000000000000000000000000000000083020000018398968082af2d8203e880a072f24b34a9fb7cf0bff8fc874f22eb6652da480e2964de975cae665ac1819fe088f6b75c07c2510619f865f86380018398968094095e7baea6a6c7c4c2dfeb977efac326af552d87830186a0801ca0c8c5469bcab2d89c9083cecdf26c9d3a9e40597d1d82744bc0e5e582f9dc48a4a0433eb07127e317522d4e08b89cd3824eee8bf1c75a2871db940e0c54d0dd09d2c0",
                "transactions" : [
                    {
                        "data" : "",
                        "gasLimit" : "0x989680",
                        "gasPrice" : "0x01",
                        "nonce" : "0x00",
                        "r" : "0xc8c5469bcab2d89c9083cecdf26c9d3a9e40597d1d82744bc0e5e582f9dc48a4",
                        "s" : "0x433eb07127e317522d4e08b89cd3824eee8bf1c75a2871db940e0c54d0dd09d2",
                        "to" : "0x095e7baea6a6c7c4c2dfeb977efac326af552d87",
                        "v" : "0x1c",
                        "value" : "0x0186a0"
                    }
                ],
                "uncleHeaders" : [
                ]
            }
        ],
        "genesisBlockHeader" : {
            "bloom" : "0x00000000000000000000000000000000000000000000000000000000000000000000000000000000000000000000000000000000000000000000000000000000000000000000000000000000000000000000000000000000000000000000000000000000000000000000000000000000000000000000000000000000000000000000000000000000000000000000000000000000000000000000000000000000000000000000000000000000000000000000000000000000000000000000000000000000000000000000000000000000000000000000000000000000000000000000000000000000000000000000000000000000000000000000000000000000",
            "coinbase" : "0x2adc25665018aa1fe0e6bc666dac8fc2697ff9ba",
            "difficulty" : "0x020000",
            "extraData" : "0x42",
            "gasLimit" : "0x989680",
            "gasUsed" : "0x00",
            "hash" : "0x685e58a31539f57e51f4ae36f8e1559aa3d9f52b8a0dcdf5d545066111701abf",
            "mixHash" : "0x56e81f171bcc55a6ff8345e692c0f86e5b48e01b996cadc001622fb5e363b421",
            "nonce" : "0x0102030405060708",
            "number" : "0x00",
            "parentHash" : "0x0000000000000000000000000000000000000000000000000000000000000000",
            "receiptTrie" : "0x56e81f171bcc55a6ff8345e692c0f86e5b48e01b996cadc001622fb5e363b421",
            "stateRoot" : "0x25a4db33e2f4a0ef769302c3d94763756cd510430bdb2419ca098625180e2846",
            "timestamp" : "0x03b6",
            "transactionsTrie" : "0x56e81f171bcc55a6ff8345e692c0f86e5b48e01b996cadc001622fb5e363b421",
            "uncleHash" : "0x1dcc4de8dec75d7aab85b567b6ccd41ad312451b948a7413f0a142fd40d49347"
        },
        "genesisRLP" : "0xf901faf901f5a00000000000000000000000000000000000000000000000000000000000000000a01dcc4de8dec75d7aab85b567b6ccd41ad312451b948a7413f0a142fd40d49347942adc25665018aa1fe0e6bc666dac8fc2697ff9baa025a4db33e2f4a0ef769302c3d94763756cd510430bdb2419ca098625180e2846a056e81f171bcc55a6ff8345e692c0f86e5b48e01b996cadc001622fb5e363b421a056e81f171bcc55a6ff8345e692c0f86e5b48e01b996cadc001622fb5e363b421b9010000000000000000000000000000000000000000000000000000000000000000000000000000000000000000000000000000000000000000000000000000000000000000000000000000000000000000000000000000000000000000000000000000000000000000000000000000000000000000000000000000000000000000000000000000000000000000000000000000000000000000000000000000000000000000000000000000000000000000000000000000000000000000000000000000000000000000000000000000000000000000000000000000000000000000000000000000000000000000000000000000000000000000000000000000000000830200008083989680808203b642a056e81f171bcc55a6ff8345e692c0f86e5b48e01b996cadc001622fb5e363b421880102030405060708c0c0",
        "lastblockhash" : "0xafb75b61e5048da59c555cd41e1ff6182350d203fa5ef1ec75ac3a2d625f2b82",
        "network" : "EIP158",
        "postState" : {
            "0x095e7baea6a6c7c4c2dfeb977efac326af552d87" : {
                "balance" : "0x0132b3a0",
                "code" : "0x601b565b6000555b005b630badf00d6003565b63c001f00d6003565b7319e7e376e7c213b7e7e7e46cc70a5dd086daff2a7f22ae6da6b482f9b1b19b0b897c3fd43884180a1c5ee361e1107a1bc635649dda600052601b603f537f16433dce375ce6dc8151d3f0a22728bc4a1d9fd6ed39dfd18b4609331937367f6040527f306964c0cf5d74f04129fdc60b54d35b596dde1bf89ad92cb4123318f4c0e40060605260206080607f60006000600161fffff21560075760805114601257600956",
                "nonce" : "0x00",
                "storage" : {
                    "0x00" : "0xc001f00d"
                }
            },
            "0x2adc25665018aa1fe0e6bc666dac8fc2697ff9ba" : {
                "balance" : "0x4563918244f4af2d",
                "code" : "",
                "nonce" : "0x00",
                "storage" : {
                }
            },
            "0xa94f5374fce5edbc8e2a8697c15331677e6ebf0b" : {
                "balance" : "0x0de0b6b3a761ca33",
                "code" : "",
                "nonce" : "0x01",
                "storage" : {
                }
            }
        },
        "pre" : {
            "0x095e7baea6a6c7c4c2dfeb977efac326af552d87" : {
                "balance" : "0x01312d00",
                "code" : "0x601b565b6000555b005b630badf00d6003565b63c001f00d6003565b7319e7e376e7c213b7e7e7e46cc70a5dd086daff2a7f22ae6da6b482f9b1b19b0b897c3fd43884180a1c5ee361e1107a1bc635649dda600052601b603f537f16433dce375ce6dc8151d3f0a22728bc4a1d9fd6ed39dfd18b4609331937367f6040527f306964c0cf5d74f04129fdc60b54d35b596dde1bf89ad92cb4123318f4c0e40060605260206080607f60006000600161fffff21560075760805114601257600956",
                "nonce" : "0x00",
                "storage" : {
                }
            },
            "0xa94f5374fce5edbc8e2a8697c15331677e6ebf0b" : {
                "balance" : "0x0de0b6b3a7640000",
                "code" : "",
                "nonce" : "0x00",
                "storage" : {
                }
            }
        }
    },
    "sec80_d0g0v0_Frontier" : {
        "_info" : {
            "comment" : "",
            "filledwith" : "cpp-1.3.0+commit.4e101574.Linux.g++",
            "lllcversion" : "Version: 0.4.18-develop.2017.10.11+commit.81f9f86c.Linux.g++",
            "source" : "src/BlockchainTestsFiller/GeneralStateTests/stPreCompiledContracts/sec80_d0g0v0Filler.json",
            "sourceHash" : "5bcbb0814bb084fbc4e8f281228fe29fe52e95d47c290c5c7ee5efc8e5fee1b6"
        },
        "blocks" : [
            {
                "blockHeader" : {
                    "bloom" : "0x00000000000000000000000000000000000000000000000000000000000000000000000000000000000000000000000000000000000000000000000000000000000000000000000000000000000000000000000000000000000000000000000000000000000000000000000000000000000000000000000000000000000000000000000000000000000000000000000000000000000000000000000000000000000000000000000000000000000000000000000000000000000000000000000000000000000000000000000000000000000000000000000000000000000000000000000000000000000000000000000000000000000000000000000000000000",
                    "coinbase" : "0x2adc25665018aa1fe0e6bc666dac8fc2697ff9ba",
                    "difficulty" : "0x020000",
                    "extraData" : "",
                    "gasLimit" : "0x989680",
                    "gasUsed" : "0xac99",
                    "hash" : "0xfd0f783d0669c08dadd2e560ae6a77432ba9385a2acbce1352f6851e64061fac",
                    "mixHash" : "0xee6d7e74a651a89ba7b6e1cf659f0a134b251c2169cc0f392fe476c26690de44",
                    "nonce" : "0x790042e823fa9eaa",
                    "number" : "0x01",
                    "parentHash" : "0x685e58a31539f57e51f4ae36f8e1559aa3d9f52b8a0dcdf5d545066111701abf",
                    "receiptTrie" : "0xc3b37600736562a81dcb791a832b14322f11c72bb5ef8aef4d6e5fb0b3441594",
                    "stateRoot" : "0x63d62d88e6f9f7340dda62f6a7c81caf6e7e7212edb0df45b622399da6c9178f",
                    "timestamp" : "0x03e8",
                    "transactionsTrie" : "0x138e622ff34e8a4bed7c2631ee946b094d23bd208e8285e710fc5fa254318627",
                    "uncleHash" : "0x1dcc4de8dec75d7aab85b567b6ccd41ad312451b948a7413f0a142fd40d49347"
                },
                "rlp" : "0xf90262f901f7a0685e58a31539f57e51f4ae36f8e1559aa3d9f52b8a0dcdf5d545066111701abfa01dcc4de8dec75d7aab85b567b6ccd41ad312451b948a7413f0a142fd40d49347942adc25665018aa1fe0e6bc666dac8fc2697ff9baa063d62d88e6f9f7340dda62f6a7c81caf6e7e7212edb0df45b622399da6c9178fa0138e622ff34e8a4bed7c2631ee946b094d23bd208e8285e710fc5fa254318627a0c3b37600736562a81dcb791a832b14322f11c72bb5ef8aef4d6e5fb0b3441594b901000000000000000000000000000000000000000000000000000000000000000000000000000000000000000000000000000000000000000000000000000000000000000000000000000000000000000000000000000000000000000000000000000000000000000000000000000000000000000000000000000000000000000000000000000000000000000000000000000000000000000000000000000000000000000000000000000000000000000000000000000000000000000000000000000000000000000000000000000000000000000000000000000000000000000000000000000000000000000000000000000000000000000000000000000000000083020000018398968082ac998203e880a0ee6d7e74a651a89ba7b6e1cf659f0a134b251c2169cc0f392fe476c26690de4488790042e823fa9eaaf865f86380018398968094095e7baea6a6c7c4c2dfeb977efac326af552d87830186a0801ca0c8c5469bcab2d89c9083cecdf26c9d3a9e40597d1d82744bc0e5e582f9dc48a4a0433eb07127e317522d4e08b89cd3824eee8bf1c75a2871db940e0c54d0dd09d2c0",
                "transactions" : [
                    {
                        "data" : "",
                        "gasLimit" : "0x989680",
                        "gasPrice" : "0x01",
                        "nonce" : "0x00",
                        "r" : "0xc8c5469bcab2d89c9083cecdf26c9d3a9e40597d1d82744bc0e5e582f9dc48a4",
                        "s" : "0x433eb07127e317522d4e08b89cd3824eee8bf1c75a2871db940e0c54d0dd09d2",
                        "to" : "0x095e7baea6a6c7c4c2dfeb977efac326af552d87",
                        "v" : "0x1c",
                        "value" : "0x0186a0"
                    }
                ],
                "uncleHeaders" : [
                ]
            }
        ],
        "genesisBlockHeader" : {
            "bloom" : "0x00000000000000000000000000000000000000000000000000000000000000000000000000000000000000000000000000000000000000000000000000000000000000000000000000000000000000000000000000000000000000000000000000000000000000000000000000000000000000000000000000000000000000000000000000000000000000000000000000000000000000000000000000000000000000000000000000000000000000000000000000000000000000000000000000000000000000000000000000000000000000000000000000000000000000000000000000000000000000000000000000000000000000000000000000000000",
            "coinbase" : "0x2adc25665018aa1fe0e6bc666dac8fc2697ff9ba",
            "difficulty" : "0x020000",
            "extraData" : "0x42",
            "gasLimit" : "0x989680",
            "gasUsed" : "0x00",
            "hash" : "0x685e58a31539f57e51f4ae36f8e1559aa3d9f52b8a0dcdf5d545066111701abf",
            "mixHash" : "0x56e81f171bcc55a6ff8345e692c0f86e5b48e01b996cadc001622fb5e363b421",
            "nonce" : "0x0102030405060708",
            "number" : "0x00",
            "parentHash" : "0x0000000000000000000000000000000000000000000000000000000000000000",
            "receiptTrie" : "0x56e81f171bcc55a6ff8345e692c0f86e5b48e01b996cadc001622fb5e363b421",
            "stateRoot" : "0x25a4db33e2f4a0ef769302c3d94763756cd510430bdb2419ca098625180e2846",
            "timestamp" : "0x03b6",
            "transactionsTrie" : "0x56e81f171bcc55a6ff8345e692c0f86e5b48e01b996cadc001622fb5e363b421",
            "uncleHash" : "0x1dcc4de8dec75d7aab85b567b6ccd41ad312451b948a7413f0a142fd40d49347"
        },
        "genesisRLP" : "0xf901faf901f5a00000000000000000000000000000000000000000000000000000000000000000a01dcc4de8dec75d7aab85b567b6ccd41ad312451b948a7413f0a142fd40d49347942adc25665018aa1fe0e6bc666dac8fc2697ff9baa025a4db33e2f4a0ef769302c3d94763756cd510430bdb2419ca098625180e2846a056e81f171bcc55a6ff8345e692c0f86e5b48e01b996cadc001622fb5e363b421a056e81f171bcc55a6ff8345e692c0f86e5b48e01b996cadc001622fb5e363b421b9010000000000000000000000000000000000000000000000000000000000000000000000000000000000000000000000000000000000000000000000000000000000000000000000000000000000000000000000000000000000000000000000000000000000000000000000000000000000000000000000000000000000000000000000000000000000000000000000000000000000000000000000000000000000000000000000000000000000000000000000000000000000000000000000000000000000000000000000000000000000000000000000000000000000000000000000000000000000000000000000000000000000000000000000000000000000830200008083989680808203b642a056e81f171bcc55a6ff8345e692c0f86e5b48e01b996cadc001622fb5e363b421880102030405060708c0c0",
        "lastblockhash" : "0xfd0f783d0669c08dadd2e560ae6a77432ba9385a2acbce1352f6851e64061fac",
        "network" : "Frontier",
        "postState" : {
            "0x095e7baea6a6c7c4c2dfeb977efac326af552d87" : {
                "balance" : "0x0132b3a0",
                "code" : "0x601b565b6000555b005b630badf00d6003565b63c001f00d6003565b7319e7e376e7c213b7e7e7e46cc70a5dd086daff2a7f22ae6da6b482f9b1b19b0b897c3fd43884180a1c5ee361e1107a1bc635649dda600052601b603f537f16433dce375ce6dc8151d3f0a22728bc4a1d9fd6ed39dfd18b4609331937367f6040527f306964c0cf5d74f04129fdc60b54d35b596dde1bf89ad92cb4123318f4c0e40060605260206080607f60006000600161fffff21560075760805114601257600956",
                "nonce" : "0x00",
                "storage" : {
                    "0x00" : "0xc001f00d"
                }
            },
            "0x2adc25665018aa1fe0e6bc666dac8fc2697ff9ba" : {
                "balance" : "0x4563918244f4ac99",
                "code" : "",
                "nonce" : "0x00",
                "storage" : {
                }
            },
            "0xa94f5374fce5edbc8e2a8697c15331677e6ebf0b" : {
                "balance" : "0x0de0b6b3a761ccc7",
                "code" : "",
                "nonce" : "0x01",
                "storage" : {
                }
            }
        },
        "pre" : {
            "0x095e7baea6a6c7c4c2dfeb977efac326af552d87" : {
                "balance" : "0x01312d00",
                "code" : "0x601b565b6000555b005b630badf00d6003565b63c001f00d6003565b7319e7e376e7c213b7e7e7e46cc70a5dd086daff2a7f22ae6da6b482f9b1b19b0b897c3fd43884180a1c5ee361e1107a1bc635649dda600052601b603f537f16433dce375ce6dc8151d3f0a22728bc4a1d9fd6ed39dfd18b4609331937367f6040527f306964c0cf5d74f04129fdc60b54d35b596dde1bf89ad92cb4123318f4c0e40060605260206080607f60006000600161fffff21560075760805114601257600956",
                "nonce" : "0x00",
                "storage" : {
                }
            },
            "0xa94f5374fce5edbc8e2a8697c15331677e6ebf0b" : {
                "balance" : "0x0de0b6b3a7640000",
                "code" : "",
                "nonce" : "0x00",
                "storage" : {
                }
            }
        }
    },
    "sec80_d0g0v0_Homestead" : {
        "_info" : {
            "comment" : "",
            "filledwith" : "cpp-1.3.0+commit.4e101574.Linux.g++",
            "lllcversion" : "Version: 0.4.18-develop.2017.10.11+commit.81f9f86c.Linux.g++",
            "source" : "src/BlockchainTestsFiller/GeneralStateTests/stPreCompiledContracts/sec80_d0g0v0Filler.json",
            "sourceHash" : "5bcbb0814bb084fbc4e8f281228fe29fe52e95d47c290c5c7ee5efc8e5fee1b6"
        },
        "blocks" : [
            {
                "blockHeader" : {
                    "bloom" : "0x00000000000000000000000000000000000000000000000000000000000000000000000000000000000000000000000000000000000000000000000000000000000000000000000000000000000000000000000000000000000000000000000000000000000000000000000000000000000000000000000000000000000000000000000000000000000000000000000000000000000000000000000000000000000000000000000000000000000000000000000000000000000000000000000000000000000000000000000000000000000000000000000000000000000000000000000000000000000000000000000000000000000000000000000000000000",
                    "coinbase" : "0x2adc25665018aa1fe0e6bc666dac8fc2697ff9ba",
                    "difficulty" : "0x020000",
                    "extraData" : "",
                    "gasLimit" : "0x989680",
                    "gasUsed" : "0xac99",
                    "hash" : "0x4c00b751ea4b1604a4cf88f945e2f6cbe3ac18a1ff344cc17b1cede3527bcc50",
                    "mixHash" : "0x68284bb6eddeeabae4e8db32d10e4ed182aeb772e6c694406eadf6fa7ef08412",
                    "nonce" : "0x0516e3d600da6840",
                    "number" : "0x01",
                    "parentHash" : "0x685e58a31539f57e51f4ae36f8e1559aa3d9f52b8a0dcdf5d545066111701abf",
                    "receiptTrie" : "0xc3b37600736562a81dcb791a832b14322f11c72bb5ef8aef4d6e5fb0b3441594",
                    "stateRoot" : "0x63d62d88e6f9f7340dda62f6a7c81caf6e7e7212edb0df45b622399da6c9178f",
                    "timestamp" : "0x03e8",
                    "transactionsTrie" : "0x138e622ff34e8a4bed7c2631ee946b094d23bd208e8285e710fc5fa254318627",
                    "uncleHash" : "0x1dcc4de8dec75d7aab85b567b6ccd41ad312451b948a7413f0a142fd40d49347"
                },
                "rlp" : "0xf90262f901f7a0685e58a31539f57e51f4ae36f8e1559aa3d9f52b8a0dcdf5d545066111701abfa01dcc4de8dec75d7aab85b567b6ccd41ad312451b948a7413f0a142fd40d49347942adc25665018aa1fe0e6bc666dac8fc2697ff9baa063d62d88e6f9f7340dda62f6a7c81caf6e7e7212edb0df45b622399da6c9178fa0138e622ff34e8a4bed7c2631ee946b094d23bd208e8285e710fc5fa254318627a0c3b37600736562a81dcb791a832b14322f11c72bb5ef8aef4d6e5fb0b3441594b901000000000000000000000000000000000000000000000000000000000000000000000000000000000000000000000000000000000000000000000000000000000000000000000000000000000000000000000000000000000000000000000000000000000000000000000000000000000000000000000000000000000000000000000000000000000000000000000000000000000000000000000000000000000000000000000000000000000000000000000000000000000000000000000000000000000000000000000000000000000000000000000000000000000000000000000000000000000000000000000000000000000000000000000000000000000083020000018398968082ac998203e880a068284bb6eddeeabae4e8db32d10e4ed182aeb772e6c694406eadf6fa7ef08412880516e3d600da6840f865f86380018398968094095e7baea6a6c7c4c2dfeb977efac326af552d87830186a0801ca0c8c5469bcab2d89c9083cecdf26c9d3a9e40597d1d82744bc0e5e582f9dc48a4a0433eb07127e317522d4e08b89cd3824eee8bf1c75a2871db940e0c54d0dd09d2c0",
                "transactions" : [
                    {
                        "data" : "",
                        "gasLimit" : "0x989680",
                        "gasPrice" : "0x01",
                        "nonce" : "0x00",
                        "r" : "0xc8c5469bcab2d89c9083cecdf26c9d3a9e40597d1d82744bc0e5e582f9dc48a4",
                        "s" : "0x433eb07127e317522d4e08b89cd3824eee8bf1c75a2871db940e0c54d0dd09d2",
                        "to" : "0x095e7baea6a6c7c4c2dfeb977efac326af552d87",
                        "v" : "0x1c",
                        "value" : "0x0186a0"
                    }
                ],
                "uncleHeaders" : [
                ]
            }
        ],
        "genesisBlockHeader" : {
            "bloom" : "0x00000000000000000000000000000000000000000000000000000000000000000000000000000000000000000000000000000000000000000000000000000000000000000000000000000000000000000000000000000000000000000000000000000000000000000000000000000000000000000000000000000000000000000000000000000000000000000000000000000000000000000000000000000000000000000000000000000000000000000000000000000000000000000000000000000000000000000000000000000000000000000000000000000000000000000000000000000000000000000000000000000000000000000000000000000000",
            "coinbase" : "0x2adc25665018aa1fe0e6bc666dac8fc2697ff9ba",
            "difficulty" : "0x020000",
            "extraData" : "0x42",
            "gasLimit" : "0x989680",
            "gasUsed" : "0x00",
            "hash" : "0x685e58a31539f57e51f4ae36f8e1559aa3d9f52b8a0dcdf5d545066111701abf",
            "mixHash" : "0x56e81f171bcc55a6ff8345e692c0f86e5b48e01b996cadc001622fb5e363b421",
            "nonce" : "0x0102030405060708",
            "number" : "0x00",
            "parentHash" : "0x0000000000000000000000000000000000000000000000000000000000000000",
            "receiptTrie" : "0x56e81f171bcc55a6ff8345e692c0f86e5b48e01b996cadc001622fb5e363b421",
            "stateRoot" : "0x25a4db33e2f4a0ef769302c3d94763756cd510430bdb2419ca098625180e2846",
            "timestamp" : "0x03b6",
            "transactionsTrie" : "0x56e81f171bcc55a6ff8345e692c0f86e5b48e01b996cadc001622fb5e363b421",
            "uncleHash" : "0x1dcc4de8dec75d7aab85b567b6ccd41ad312451b948a7413f0a142fd40d49347"
        },
        "genesisRLP" : "0xf901faf901f5a00000000000000000000000000000000000000000000000000000000000000000a01dcc4de8dec75d7aab85b567b6ccd41ad312451b948a7413f0a142fd40d49347942adc25665018aa1fe0e6bc666dac8fc2697ff9baa025a4db33e2f4a0ef769302c3d94763756cd510430bdb2419ca098625180e2846a056e81f171bcc55a6ff8345e692c0f86e5b48e01b996cadc001622fb5e363b421a056e81f171bcc55a6ff8345e692c0f86e5b48e01b996cadc001622fb5e363b421b9010000000000000000000000000000000000000000000000000000000000000000000000000000000000000000000000000000000000000000000000000000000000000000000000000000000000000000000000000000000000000000000000000000000000000000000000000000000000000000000000000000000000000000000000000000000000000000000000000000000000000000000000000000000000000000000000000000000000000000000000000000000000000000000000000000000000000000000000000000000000000000000000000000000000000000000000000000000000000000000000000000000000000000000000000000000000830200008083989680808203b642a056e81f171bcc55a6ff8345e692c0f86e5b48e01b996cadc001622fb5e363b421880102030405060708c0c0",
        "lastblockhash" : "0x4c00b751ea4b1604a4cf88f945e2f6cbe3ac18a1ff344cc17b1cede3527bcc50",
        "network" : "Homestead",
        "postState" : {
            "0x095e7baea6a6c7c4c2dfeb977efac326af552d87" : {
                "balance" : "0x0132b3a0",
                "code" : "0x601b565b6000555b005b630badf00d6003565b63c001f00d6003565b7319e7e376e7c213b7e7e7e46cc70a5dd086daff2a7f22ae6da6b482f9b1b19b0b897c3fd43884180a1c5ee361e1107a1bc635649dda600052601b603f537f16433dce375ce6dc8151d3f0a22728bc4a1d9fd6ed39dfd18b4609331937367f6040527f306964c0cf5d74f04129fdc60b54d35b596dde1bf89ad92cb4123318f4c0e40060605260206080607f60006000600161fffff21560075760805114601257600956",
                "nonce" : "0x00",
                "storage" : {
                    "0x00" : "0xc001f00d"
                }
            },
            "0x2adc25665018aa1fe0e6bc666dac8fc2697ff9ba" : {
                "balance" : "0x4563918244f4ac99",
                "code" : "",
                "nonce" : "0x00",
                "storage" : {
                }
            },
            "0xa94f5374fce5edbc8e2a8697c15331677e6ebf0b" : {
                "balance" : "0x0de0b6b3a761ccc7",
                "code" : "",
                "nonce" : "0x01",
                "storage" : {
                }
            }
        },
        "pre" : {
            "0x095e7baea6a6c7c4c2dfeb977efac326af552d87" : {
                "balance" : "0x01312d00",
                "code" : "0x601b565b6000555b005b630badf00d6003565b63c001f00d6003565b7319e7e376e7c213b7e7e7e46cc70a5dd086daff2a7f22ae6da6b482f9b1b19b0b897c3fd43884180a1c5ee361e1107a1bc635649dda600052601b603f537f16433dce375ce6dc8151d3f0a22728bc4a1d9fd6ed39dfd18b4609331937367f6040527f306964c0cf5d74f04129fdc60b54d35b596dde1bf89ad92cb4123318f4c0e40060605260206080607f60006000600161fffff21560075760805114601257600956",
                "nonce" : "0x00",
                "storage" : {
                }
            },
            "0xa94f5374fce5edbc8e2a8697c15331677e6ebf0b" : {
                "balance" : "0x0de0b6b3a7640000",
                "code" : "",
                "nonce" : "0x00",
                "storage" : {
                }
            }
        }
    }
}