{
    "ZeroValue_DELEGATECALL_ToNonZeroBalance_OOGRevert_d0g0v0_Byzantium" : {
        "_info" : {
            "comment" : "",
            "filledwith" : "cpp-1.3.0+commit.6e0ce939.Linux.g++",
            "lllcversion" : "Version: 0.4.18-develop.2017.9.25+commit.a72237f2.Linux.g++",
            "source" : "src/BlockchainTestsFiller/GeneralStateTests/stZeroCallsRevert/ZeroValue_DELEGATECALL_ToNonZeroBalance_OOGRevert_d0g0v0Filler.json",
            "sourceHash" : "f038bc2505a7bdba5605fee4bacd71769f8fa60123f90e65ee259b80b2f2b06e"
        },
        "blocks" : [
            {
                "blockHeader" : {
                    "bloom" : "0x00000000000000000000000000000000000000000000000000000000000000000000000000000000000000000000000000000000000000000000000000000000000000000000000000000000000000000000000000000000000000000000000000000000000000000000000000000000000000000000000000000000000000000000000000000000000000000000000000000000000000000000000000000000000000000000000000000000000000000000000000000000000000000000000000000000000000000000000000000000000000000000000000000000000000000000000000000000000000000000000000000000000000000000000000000000",
                    "coinbase" : "0x2adc25665018aa1fe0e6bc666dac8fc2697ff9ba",
                    "difficulty" : "0x020000",
                    "extraData" : "",
                    "gasLimit" : "0x989680",
                    "gasUsed" : "0x020f58",
                    "hash" : "0x836990c058298071d76faae08f6e3d864b2ace1fde82844423a6e464431d4b6a",
                    "mixHash" : "0x167496abf778be5b8bbb1b8743fe699db7aeb8994959282632075e8a8f371f1d",
                    "nonce" : "0x812c9313ef8d5614",
                    "number" : "0x01",
                    "parentHash" : "0x3de6ac2960fd2d0c107bd36195a03ddf016daa78cd2965a73c20a54797a77717",
                    "receiptTrie" : "0x54eeafc8891222b787b9c9bfab7e0d99866447dad965b012fa2e09404455ec9d",
                    "stateRoot" : "0x1a17a68cebd5b79cadbc043fe868285241435842eb1d7eb630b35cf0d8995452",
                    "timestamp" : "0x03e8",
                    "transactionsTrie" : "0xaa88f8c92f1660ca93f6181e71ae0f3922f03c2634cf8c759793327a523efb40",
                    "uncleHash" : "0x1dcc4de8dec75d7aab85b567b6ccd41ad312451b948a7413f0a142fd40d49347"
                },
                "rlp" : "0xf90260f901f8a03de6ac2960fd2d0c107bd36195a03ddf016daa78cd2965a73c20a54797a77717a01dcc4de8dec75d7aab85b567b6ccd41ad312451b948a7413f0a142fd40d49347942adc25665018aa1fe0e6bc666dac8fc2697ff9baa01a17a68cebd5b79cadbc043fe868285241435842eb1d7eb630b35cf0d8995452a0aa88f8c92f1660ca93f6181e71ae0f3922f03c2634cf8c759793327a523efb40a054eeafc8891222b787b9c9bfab7e0d99866447dad965b012fa2e09404455ec9db901000000000000000000000000000000000000000000000000000000000000000000000000000000000000000000000000000000000000000000000000000000000000000000000000000000000000000000000000000000000000000000000000000000000000000000000000000000000000000000000000000000000000000000000000000000000000000000000000000000000000000000000000000000000000000000000000000000000000000000000000000000000000000000000000000000000000000000000000000000000000000000000000000000000000000000000000000000000000000000000000000000000000000000000000000000000083020000018398968083020f588203e880a0167496abf778be5b8bbb1b8743fe699db7aeb8994959282632075e8a8f371f1d88812c9313ef8d5614f862f860800183020f5894b94f5374fce5edbc8e2a8697c15331677e6ebf0b80801ba0a379f1c29785f2dbdf0e550632f4c8ec03817168d8be30fba39d51ddc5ede242a016db8cae0757ac3707f3c6c3e04f7384d33208d7cc2ea7f571965fdc9de023e7c0",
                "transactions" : [
                    {
                        "data" : "",
                        "gasLimit" : "0x020f58",
                        "gasPrice" : "0x01",
                        "nonce" : "0x00",
                        "r" : "0xa379f1c29785f2dbdf0e550632f4c8ec03817168d8be30fba39d51ddc5ede242",
                        "s" : "0x16db8cae0757ac3707f3c6c3e04f7384d33208d7cc2ea7f571965fdc9de023e7",
                        "to" : "0xb94f5374fce5edbc8e2a8697c15331677e6ebf0b",
                        "v" : "0x1b",
                        "value" : "0x00"
                    }
                ],
                "uncleHeaders" : [
                ]
            }
        ],
        "genesisBlockHeader" : {
            "bloom" : "0x00000000000000000000000000000000000000000000000000000000000000000000000000000000000000000000000000000000000000000000000000000000000000000000000000000000000000000000000000000000000000000000000000000000000000000000000000000000000000000000000000000000000000000000000000000000000000000000000000000000000000000000000000000000000000000000000000000000000000000000000000000000000000000000000000000000000000000000000000000000000000000000000000000000000000000000000000000000000000000000000000000000000000000000000000000000",
            "coinbase" : "0x2adc25665018aa1fe0e6bc666dac8fc2697ff9ba",
            "difficulty" : "0x020000",
            "extraData" : "0x42",
            "gasLimit" : "0x989680",
            "gasUsed" : "0x00",
            "hash" : "0x3de6ac2960fd2d0c107bd36195a03ddf016daa78cd2965a73c20a54797a77717",
            "mixHash" : "0x56e81f171bcc55a6ff8345e692c0f86e5b48e01b996cadc001622fb5e363b421",
            "nonce" : "0x0102030405060708",
            "number" : "0x00",
            "parentHash" : "0x0000000000000000000000000000000000000000000000000000000000000000",
            "receiptTrie" : "0x56e81f171bcc55a6ff8345e692c0f86e5b48e01b996cadc001622fb5e363b421",
            "stateRoot" : "0x2a8a64f4b10e862190adc0f0fd186fc6395bb37563ffdff6dc22395316fbec3b",
            "timestamp" : "0x03b6",
            "transactionsTrie" : "0x56e81f171bcc55a6ff8345e692c0f86e5b48e01b996cadc001622fb5e363b421",
            "uncleHash" : "0x1dcc4de8dec75d7aab85b567b6ccd41ad312451b948a7413f0a142fd40d49347"
        },
        "genesisRLP" : "0xf901faf901f5a00000000000000000000000000000000000000000000000000000000000000000a01dcc4de8dec75d7aab85b567b6ccd41ad312451b948a7413f0a142fd40d49347942adc25665018aa1fe0e6bc666dac8fc2697ff9baa02a8a64f4b10e862190adc0f0fd186fc6395bb37563ffdff6dc22395316fbec3ba056e81f171bcc55a6ff8345e692c0f86e5b48e01b996cadc001622fb5e363b421a056e81f171bcc55a6ff8345e692c0f86e5b48e01b996cadc001622fb5e363b421b9010000000000000000000000000000000000000000000000000000000000000000000000000000000000000000000000000000000000000000000000000000000000000000000000000000000000000000000000000000000000000000000000000000000000000000000000000000000000000000000000000000000000000000000000000000000000000000000000000000000000000000000000000000000000000000000000000000000000000000000000000000000000000000000000000000000000000000000000000000000000000000000000000000000000000000000000000000000000000000000000000000000000000000000000000000000000830200008083989680808203b642a056e81f171bcc55a6ff8345e692c0f86e5b48e01b996cadc001622fb5e363b421880102030405060708c0c0",
        "lastblockhash" : "0x836990c058298071d76faae08f6e3d864b2ace1fde82844423a6e464431d4b6a",
        "network" : "Byzantium",
        "postState" : {
            "0x2adc25665018aa1fe0e6bc666dac8fc2697ff9ba" : {
                "balance" : "0x29a2241af62e0f58",
                "code" : "",
                "nonce" : "0x00",
                "storage" : {
                }
            },
            "0xa94f5374fce5edbc8e2a8697c15331677e6ebf0b" : {
                "balance" : "0xe8d4a300a8",
                "code" : "",
                "nonce" : "0x01",
                "storage" : {
                }
            },
            "0xb94f5374fce5edbc8e2a8697c15331677e6ebf0b" : {
                "balance" : "0x00",
                "code" : "0x5a600055600060006000600073c94f5374fce5edbc8e2a8697c15331677e6ebf0b61ea60f4600155600c600255600c600355600c6004555a606455",
                "nonce" : "0x00",
                "storage" : {
                }
            },
            "0xc94f5374fce5edbc8e2a8697c15331677e6ebf0b" : {
                "balance" : "0x64",
                "code" : "",
                "nonce" : "0x00",
                "storage" : {
                }
            }
        },
        "pre" : {
            "0xa94f5374fce5edbc8e2a8697c15331677e6ebf0b" : {
                "balance" : "0xe8d4a51000",
                "code" : "",
                "nonce" : "0x00",
                "storage" : {
                }
            },
            "0xb94f5374fce5edbc8e2a8697c15331677e6ebf0b" : {
                "balance" : "0x00",
                "code" : "0x5a600055600060006000600073c94f5374fce5edbc8e2a8697c15331677e6ebf0b61ea60f4600155600c600255600c600355600c6004555a606455",
                "nonce" : "0x00",
                "storage" : {
                }
            },
            "0xc94f5374fce5edbc8e2a8697c15331677e6ebf0b" : {
                "balance" : "0x64",
                "code" : "",
                "nonce" : "0x00",
                "storage" : {
                }
            }
        }
    },
    "ZeroValue_DELEGATECALL_ToNonZeroBalance_OOGRevert_d0g0v0_EIP150" : {
        "_info" : {
            "comment" : "",
            "filledwith" : "cpp-1.3.0+commit.6e0ce939.Linux.g++",
            "lllcversion" : "Version: 0.4.18-develop.2017.9.25+commit.a72237f2.Linux.g++",
            "source" : "src/BlockchainTestsFiller/GeneralStateTests/stZeroCallsRevert/ZeroValue_DELEGATECALL_ToNonZeroBalance_OOGRevert_d0g0v0Filler.json",
            "sourceHash" : "f038bc2505a7bdba5605fee4bacd71769f8fa60123f90e65ee259b80b2f2b06e"
        },
        "blocks" : [
            {
                "blockHeader" : {
                    "bloom" : "0x00000000000000000000000000000000000000000000000000000000000000000000000000000000000000000000000000000000000000000000000000000000000000000000000000000000000000000000000000000000000000000000000000000000000000000000000000000000000000000000000000000000000000000000000000000000000000000000000000000000000000000000000000000000000000000000000000000000000000000000000000000000000000000000000000000000000000000000000000000000000000000000000000000000000000000000000000000000000000000000000000000000000000000000000000000000",
                    "coinbase" : "0x2adc25665018aa1fe0e6bc666dac8fc2697ff9ba",
                    "difficulty" : "0x020000",
                    "extraData" : "",
                    "gasLimit" : "0x989680",
                    "gasUsed" : "0x020f58",
                    "hash" : "0xe0a3c4e8e1545a1cbb4fb2ccdfa6c81650dbef9b0654dcd039559e3f27f6eee3",
                    "mixHash" : "0x60f5fe2c5dc6bbcac85397808ea17e4c94e457b998f64bea7b458ada8728a9f4",
                    "nonce" : "0x5350c2ebae1e467b",
                    "number" : "0x01",
                    "parentHash" : "0x3de6ac2960fd2d0c107bd36195a03ddf016daa78cd2965a73c20a54797a77717",
                    "receiptTrie" : "0xef2a406a2c6b71a26126f4bcc35ba10ffb09ca41b82a241875b4c01d4f83b7e7",
                    "stateRoot" : "0x5a5e23b1fefffde3998059b6a2f38f4bcb6bbd5f4ee049cb17987b8bc6d437d3",
                    "timestamp" : "0x03e8",
                    "transactionsTrie" : "0xaa88f8c92f1660ca93f6181e71ae0f3922f03c2634cf8c759793327a523efb40",
                    "uncleHash" : "0x1dcc4de8dec75d7aab85b567b6ccd41ad312451b948a7413f0a142fd40d49347"
                },
                "rlp" : "0xf90260f901f8a03de6ac2960fd2d0c107bd36195a03ddf016daa78cd2965a73c20a54797a77717a01dcc4de8dec75d7aab85b567b6ccd41ad312451b948a7413f0a142fd40d49347942adc25665018aa1fe0e6bc666dac8fc2697ff9baa05a5e23b1fefffde3998059b6a2f38f4bcb6bbd5f4ee049cb17987b8bc6d437d3a0aa88f8c92f1660ca93f6181e71ae0f3922f03c2634cf8c759793327a523efb40a0ef2a406a2c6b71a26126f4bcc35ba10ffb09ca41b82a241875b4c01d4f83b7e7b901000000000000000000000000000000000000000000000000000000000000000000000000000000000000000000000000000000000000000000000000000000000000000000000000000000000000000000000000000000000000000000000000000000000000000000000000000000000000000000000000000000000000000000000000000000000000000000000000000000000000000000000000000000000000000000000000000000000000000000000000000000000000000000000000000000000000000000000000000000000000000000000000000000000000000000000000000000000000000000000000000000000000000000000000000000000083020000018398968083020f588203e880a060f5fe2c5dc6bbcac85397808ea17e4c94e457b998f64bea7b458ada8728a9f4885350c2ebae1e467bf862f860800183020f5894b94f5374fce5edbc8e2a8697c15331677e6ebf0b80801ba0a379f1c29785f2dbdf0e550632f4c8ec03817168d8be30fba39d51ddc5ede242a016db8cae0757ac3707f3c6c3e04f7384d33208d7cc2ea7f571965fdc9de023e7c0",
                "transactions" : [
                    {
                        "data" : "",
                        "gasLimit" : "0x020f58",
                        "gasPrice" : "0x01",
                        "nonce" : "0x00",
                        "r" : "0xa379f1c29785f2dbdf0e550632f4c8ec03817168d8be30fba39d51ddc5ede242",
                        "s" : "0x16db8cae0757ac3707f3c6c3e04f7384d33208d7cc2ea7f571965fdc9de023e7",
                        "to" : "0xb94f5374fce5edbc8e2a8697c15331677e6ebf0b",
                        "v" : "0x1b",
                        "value" : "0x00"
                    }
                ],
                "uncleHeaders" : [
                ]
            }
        ],
        "genesisBlockHeader" : {
            "bloom" : "0x00000000000000000000000000000000000000000000000000000000000000000000000000000000000000000000000000000000000000000000000000000000000000000000000000000000000000000000000000000000000000000000000000000000000000000000000000000000000000000000000000000000000000000000000000000000000000000000000000000000000000000000000000000000000000000000000000000000000000000000000000000000000000000000000000000000000000000000000000000000000000000000000000000000000000000000000000000000000000000000000000000000000000000000000000000000",
            "coinbase" : "0x2adc25665018aa1fe0e6bc666dac8fc2697ff9ba",
            "difficulty" : "0x020000",
            "extraData" : "0x42",
            "gasLimit" : "0x989680",
            "gasUsed" : "0x00",
            "hash" : "0x3de6ac2960fd2d0c107bd36195a03ddf016daa78cd2965a73c20a54797a77717",
            "mixHash" : "0x56e81f171bcc55a6ff8345e692c0f86e5b48e01b996cadc001622fb5e363b421",
            "nonce" : "0x0102030405060708",
            "number" : "0x00",
            "parentHash" : "0x0000000000000000000000000000000000000000000000000000000000000000",
            "receiptTrie" : "0x56e81f171bcc55a6ff8345e692c0f86e5b48e01b996cadc001622fb5e363b421",
            "stateRoot" : "0x2a8a64f4b10e862190adc0f0fd186fc6395bb37563ffdff6dc22395316fbec3b",
            "timestamp" : "0x03b6",
            "transactionsTrie" : "0x56e81f171bcc55a6ff8345e692c0f86e5b48e01b996cadc001622fb5e363b421",
            "uncleHash" : "0x1dcc4de8dec75d7aab85b567b6ccd41ad312451b948a7413f0a142fd40d49347"
        },
        "genesisRLP" : "0xf901faf901f5a00000000000000000000000000000000000000000000000000000000000000000a01dcc4de8dec75d7aab85b567b6ccd41ad312451b948a7413f0a142fd40d49347942adc25665018aa1fe0e6bc666dac8fc2697ff9baa02a8a64f4b10e862190adc0f0fd186fc6395bb37563ffdff6dc22395316fbec3ba056e81f171bcc55a6ff8345e692c0f86e5b48e01b996cadc001622fb5e363b421a056e81f171bcc55a6ff8345e692c0f86e5b48e01b996cadc001622fb5e363b421b9010000000000000000000000000000000000000000000000000000000000000000000000000000000000000000000000000000000000000000000000000000000000000000000000000000000000000000000000000000000000000000000000000000000000000000000000000000000000000000000000000000000000000000000000000000000000000000000000000000000000000000000000000000000000000000000000000000000000000000000000000000000000000000000000000000000000000000000000000000000000000000000000000000000000000000000000000000000000000000000000000000000000000000000000000000000000830200008083989680808203b642a056e81f171bcc55a6ff8345e692c0f86e5b48e01b996cadc001622fb5e363b421880102030405060708c0c0",
        "lastblockhash" : "0xe0a3c4e8e1545a1cbb4fb2ccdfa6c81650dbef9b0654dcd039559e3f27f6eee3",
        "network" : "EIP150",
        "postState" : {
            "0x2adc25665018aa1fe0e6bc666dac8fc2697ff9ba" : {
                "balance" : "0x4563918244f60f58",
                "code" : "",
                "nonce" : "0x00",
                "storage" : {
                }
            },
            "0xa94f5374fce5edbc8e2a8697c15331677e6ebf0b" : {
                "balance" : "0xe8d4a300a8",
                "code" : "",
                "nonce" : "0x01",
                "storage" : {
                }
            },
            "0xb94f5374fce5edbc8e2a8697c15331677e6ebf0b" : {
                "balance" : "0x00",
                "code" : "0x5a600055600060006000600073c94f5374fce5edbc8e2a8697c15331677e6ebf0b61ea60f4600155600c600255600c600355600c6004555a606455",
                "nonce" : "0x00",
                "storage" : {
                }
            },
            "0xc94f5374fce5edbc8e2a8697c15331677e6ebf0b" : {
                "balance" : "0x64",
                "code" : "",
                "nonce" : "0x00",
                "storage" : {
                }
            }
        },
        "pre" : {
            "0xa94f5374fce5edbc8e2a8697c15331677e6ebf0b" : {
                "balance" : "0xe8d4a51000",
                "code" : "",
                "nonce" : "0x00",
                "storage" : {
                }
            },
            "0xb94f5374fce5edbc8e2a8697c15331677e6ebf0b" : {
                "balance" : "0x00",
                "code" : "0x5a600055600060006000600073c94f5374fce5edbc8e2a8697c15331677e6ebf0b61ea60f4600155600c600255600c600355600c6004555a606455",
                "nonce" : "0x00",
                "storage" : {
                }
            },
            "0xc94f5374fce5edbc8e2a8697c15331677e6ebf0b" : {
                "balance" : "0x64",
                "code" : "",
                "nonce" : "0x00",
                "storage" : {
                }
            }
        }
    },
    "ZeroValue_DELEGATECALL_ToNonZeroBalance_OOGRevert_d0g0v0_EIP158" : {
        "_info" : {
            "comment" : "",
            "filledwith" : "cpp-1.3.0+commit.6e0ce939.Linux.g++",
            "lllcversion" : "Version: 0.4.18-develop.2017.9.25+commit.a72237f2.Linux.g++",
            "source" : "src/BlockchainTestsFiller/GeneralStateTests/stZeroCallsRevert/ZeroValue_DELEGATECALL_ToNonZeroBalance_OOGRevert_d0g0v0Filler.json",
            "sourceHash" : "f038bc2505a7bdba5605fee4bacd71769f8fa60123f90e65ee259b80b2f2b06e"
        },
        "blocks" : [
            {
                "blockHeader" : {
                    "bloom" : "0x00000000000000000000000000000000000000000000000000000000000000000000000000000000000000000000000000000000000000000000000000000000000000000000000000000000000000000000000000000000000000000000000000000000000000000000000000000000000000000000000000000000000000000000000000000000000000000000000000000000000000000000000000000000000000000000000000000000000000000000000000000000000000000000000000000000000000000000000000000000000000000000000000000000000000000000000000000000000000000000000000000000000000000000000000000000",
                    "coinbase" : "0x2adc25665018aa1fe0e6bc666dac8fc2697ff9ba",
                    "difficulty" : "0x020000",
                    "extraData" : "",
                    "gasLimit" : "0x989680",
                    "gasUsed" : "0x020f58",
                    "hash" : "0x9eb899a605ec151fd4efc4bd811fef2c806dbf522705b0792c3dd220bf6a0606",
                    "mixHash" : "0xfee143fc7f2f6fef60a53d13de060e2ebb0b3073dc556d00e76187a1806eb766",
                    "nonce" : "0x95181a1b7e60f7d1",
                    "number" : "0x01",
                    "parentHash" : "0x3de6ac2960fd2d0c107bd36195a03ddf016daa78cd2965a73c20a54797a77717",
                    "receiptTrie" : "0xef2a406a2c6b71a26126f4bcc35ba10ffb09ca41b82a241875b4c01d4f83b7e7",
                    "stateRoot" : "0x5a5e23b1fefffde3998059b6a2f38f4bcb6bbd5f4ee049cb17987b8bc6d437d3",
                    "timestamp" : "0x03e8",
                    "transactionsTrie" : "0xaa88f8c92f1660ca93f6181e71ae0f3922f03c2634cf8c759793327a523efb40",
                    "uncleHash" : "0x1dcc4de8dec75d7aab85b567b6ccd41ad312451b948a7413f0a142fd40d49347"
                },
                "rlp" : "0xf90260f901f8a03de6ac2960fd2d0c107bd36195a03ddf016daa78cd2965a73c20a54797a77717a01dcc4de8dec75d7aab85b567b6ccd41ad312451b948a7413f0a142fd40d49347942adc25665018aa1fe0e6bc666dac8fc2697ff9baa05a5e23b1fefffde3998059b6a2f38f4bcb6bbd5f4ee049cb17987b8bc6d437d3a0aa88f8c92f1660ca93f6181e71ae0f3922f03c2634cf8c759793327a523efb40a0ef2a406a2c6b71a26126f4bcc35ba10ffb09ca41b82a241875b4c01d4f83b7e7b901000000000000000000000000000000000000000000000000000000000000000000000000000000000000000000000000000000000000000000000000000000000000000000000000000000000000000000000000000000000000000000000000000000000000000000000000000000000000000000000000000000000000000000000000000000000000000000000000000000000000000000000000000000000000000000000000000000000000000000000000000000000000000000000000000000000000000000000000000000000000000000000000000000000000000000000000000000000000000000000000000000000000000000000000000000000083020000018398968083020f588203e880a0fee143fc7f2f6fef60a53d13de060e2ebb0b3073dc556d00e76187a1806eb7668895181a1b7e60f7d1f862f860800183020f5894b94f5374fce5edbc8e2a8697c15331677e6ebf0b80801ba0a379f1c29785f2dbdf0e550632f4c8ec03817168d8be30fba39d51ddc5ede242a016db8cae0757ac3707f3c6c3e04f7384d33208d7cc2ea7f571965fdc9de023e7c0",
                "transactions" : [
                    {
                        "data" : "",
                        "gasLimit" : "0x020f58",
                        "gasPrice" : "0x01",
                        "nonce" : "0x00",
                        "r" : "0xa379f1c29785f2dbdf0e550632f4c8ec03817168d8be30fba39d51ddc5ede242",
                        "s" : "0x16db8cae0757ac3707f3c6c3e04f7384d33208d7cc2ea7f571965fdc9de023e7",
                        "to" : "0xb94f5374fce5edbc8e2a8697c15331677e6ebf0b",
                        "v" : "0x1b",
                        "value" : "0x00"
                    }
                ],
                "uncleHeaders" : [
                ]
            }
        ],
        "genesisBlockHeader" : {
            "bloom" : "0x00000000000000000000000000000000000000000000000000000000000000000000000000000000000000000000000000000000000000000000000000000000000000000000000000000000000000000000000000000000000000000000000000000000000000000000000000000000000000000000000000000000000000000000000000000000000000000000000000000000000000000000000000000000000000000000000000000000000000000000000000000000000000000000000000000000000000000000000000000000000000000000000000000000000000000000000000000000000000000000000000000000000000000000000000000000",
            "coinbase" : "0x2adc25665018aa1fe0e6bc666dac8fc2697ff9ba",
            "difficulty" : "0x020000",
            "extraData" : "0x42",
            "gasLimit" : "0x989680",
            "gasUsed" : "0x00",
            "hash" : "0x3de6ac2960fd2d0c107bd36195a03ddf016daa78cd2965a73c20a54797a77717",
            "mixHash" : "0x56e81f171bcc55a6ff8345e692c0f86e5b48e01b996cadc001622fb5e363b421",
            "nonce" : "0x0102030405060708",
            "number" : "0x00",
            "parentHash" : "0x0000000000000000000000000000000000000000000000000000000000000000",
            "receiptTrie" : "0x56e81f171bcc55a6ff8345e692c0f86e5b48e01b996cadc001622fb5e363b421",
            "stateRoot" : "0x2a8a64f4b10e862190adc0f0fd186fc6395bb37563ffdff6dc22395316fbec3b",
            "timestamp" : "0x03b6",
            "transactionsTrie" : "0x56e81f171bcc55a6ff8345e692c0f86e5b48e01b996cadc001622fb5e363b421",
            "uncleHash" : "0x1dcc4de8dec75d7aab85b567b6ccd41ad312451b948a7413f0a142fd40d49347"
        },
        "genesisRLP" : "0xf901faf901f5a00000000000000000000000000000000000000000000000000000000000000000a01dcc4de8dec75d7aab85b567b6ccd41ad312451b948a7413f0a142fd40d49347942adc25665018aa1fe0e6bc666dac8fc2697ff9baa02a8a64f4b10e862190adc0f0fd186fc6395bb37563ffdff6dc22395316fbec3ba056e81f171bcc55a6ff8345e692c0f86e5b48e01b996cadc001622fb5e363b421a056e81f171bcc55a6ff8345e692c0f86e5b48e01b996cadc001622fb5e363b421b9010000000000000000000000000000000000000000000000000000000000000000000000000000000000000000000000000000000000000000000000000000000000000000000000000000000000000000000000000000000000000000000000000000000000000000000000000000000000000000000000000000000000000000000000000000000000000000000000000000000000000000000000000000000000000000000000000000000000000000000000000000000000000000000000000000000000000000000000000000000000000000000000000000000000000000000000000000000000000000000000000000000000000000000000000000000000830200008083989680808203b642a056e81f171bcc55a6ff8345e692c0f86e5b48e01b996cadc001622fb5e363b421880102030405060708c0c0",
        "lastblockhash" : "0x9eb899a605ec151fd4efc4bd811fef2c806dbf522705b0792c3dd220bf6a0606",
        "network" : "EIP158",
        "postState" : {
            "0x2adc25665018aa1fe0e6bc666dac8fc2697ff9ba" : {
                "balance" : "0x4563918244f60f58",
                "code" : "",
                "nonce" : "0x00",
                "storage" : {
                }
            },
            "0xa94f5374fce5edbc8e2a8697c15331677e6ebf0b" : {
                "balance" : "0xe8d4a300a8",
                "code" : "",
                "nonce" : "0x01",
                "storage" : {
                }
            },
            "0xb94f5374fce5edbc8e2a8697c15331677e6ebf0b" : {
                "balance" : "0x00",
                "code" : "0x5a600055600060006000600073c94f5374fce5edbc8e2a8697c15331677e6ebf0b61ea60f4600155600c600255600c600355600c6004555a606455",
                "nonce" : "0x00",
                "storage" : {
                }
            },
            "0xc94f5374fce5edbc8e2a8697c15331677e6ebf0b" : {
                "balance" : "0x64",
                "code" : "",
                "nonce" : "0x00",
                "storage" : {
                }
            }
        },
        "pre" : {
            "0xa94f5374fce5edbc8e2a8697c15331677e6ebf0b" : {
                "balance" : "0xe8d4a51000",
                "code" : "",
                "nonce" : "0x00",
                "storage" : {
                }
            },
            "0xb94f5374fce5edbc8e2a8697c15331677e6ebf0b" : {
                "balance" : "0x00",
                "code" : "0x5a600055600060006000600073c94f5374fce5edbc8e2a8697c15331677e6ebf0b61ea60f4600155600c600255600c600355600c6004555a606455",
                "nonce" : "0x00",
                "storage" : {
                }
            },
            "0xc94f5374fce5edbc8e2a8697c15331677e6ebf0b" : {
                "balance" : "0x64",
                "code" : "",
                "nonce" : "0x00",
                "storage" : {
                }
            }
        }
    },
    "ZeroValue_DELEGATECALL_ToNonZeroBalance_OOGRevert_d0g0v0_Frontier" : {
        "_info" : {
            "comment" : "",
            "filledwith" : "cpp-1.3.0+commit.6e0ce939.Linux.g++",
            "lllcversion" : "Version: 0.4.18-develop.2017.9.25+commit.a72237f2.Linux.g++",
            "source" : "src/BlockchainTestsFiller/GeneralStateTests/stZeroCallsRevert/ZeroValue_DELEGATECALL_ToNonZeroBalance_OOGRevert_d0g0v0Filler.json",
            "sourceHash" : "f038bc2505a7bdba5605fee4bacd71769f8fa60123f90e65ee259b80b2f2b06e"
        },
        "blocks" : [
            {
                "blockHeader" : {
                    "bloom" : "0x00000000000000000000000000000000000000000000000000000000000000000000000000000000000000000000000000000000000000000000000000000000000000000000000000000000000000000000000000000000000000000000000000000000000000000000000000000000000000000000000000000000000000000000000000000000000000000000000000000000000000000000000000000000000000000000000000000000000000000000000000000000000000000000000000000000000000000000000000000000000000000000000000000000000000000000000000000000000000000000000000000000000000000000000000000000",
                    "coinbase" : "0x2adc25665018aa1fe0e6bc666dac8fc2697ff9ba",
                    "difficulty" : "0x020000",
                    "extraData" : "",
                    "gasLimit" : "0x989680",
                    "gasUsed" : "0x020f58",
                    "hash" : "0xc95cf30edceed5b9a96486bab55ee74ff3069cadb3e4b88bc7c37d14bd8fa45a",
                    "mixHash" : "0x599cb23f0bd942d401c8226429d9bb778feac5bb558b9208305961ff029afe86",
                    "nonce" : "0x90592d5d7bfd41c5",
                    "number" : "0x01",
                    "parentHash" : "0x3de6ac2960fd2d0c107bd36195a03ddf016daa78cd2965a73c20a54797a77717",
                    "receiptTrie" : "0xef2a406a2c6b71a26126f4bcc35ba10ffb09ca41b82a241875b4c01d4f83b7e7",
                    "stateRoot" : "0x5a5e23b1fefffde3998059b6a2f38f4bcb6bbd5f4ee049cb17987b8bc6d437d3",
                    "timestamp" : "0x03e8",
                    "transactionsTrie" : "0xaa88f8c92f1660ca93f6181e71ae0f3922f03c2634cf8c759793327a523efb40",
                    "uncleHash" : "0x1dcc4de8dec75d7aab85b567b6ccd41ad312451b948a7413f0a142fd40d49347"
                },
                "rlp" : "0xf90260f901f8a03de6ac2960fd2d0c107bd36195a03ddf016daa78cd2965a73c20a54797a77717a01dcc4de8dec75d7aab85b567b6ccd41ad312451b948a7413f0a142fd40d49347942adc25665018aa1fe0e6bc666dac8fc2697ff9baa05a5e23b1fefffde3998059b6a2f38f4bcb6bbd5f4ee049cb17987b8bc6d437d3a0aa88f8c92f1660ca93f6181e71ae0f3922f03c2634cf8c759793327a523efb40a0ef2a406a2c6b71a26126f4bcc35ba10ffb09ca41b82a241875b4c01d4f83b7e7b901000000000000000000000000000000000000000000000000000000000000000000000000000000000000000000000000000000000000000000000000000000000000000000000000000000000000000000000000000000000000000000000000000000000000000000000000000000000000000000000000000000000000000000000000000000000000000000000000000000000000000000000000000000000000000000000000000000000000000000000000000000000000000000000000000000000000000000000000000000000000000000000000000000000000000000000000000000000000000000000000000000000000000000000000000000000083020000018398968083020f588203e880a0599cb23f0bd942d401c8226429d9bb778feac5bb558b9208305961ff029afe868890592d5d7bfd41c5f862f860800183020f5894b94f5374fce5edbc8e2a8697c15331677e6ebf0b80801ba0a379f1c29785f2dbdf0e550632f4c8ec03817168d8be30fba39d51ddc5ede242a016db8cae0757ac3707f3c6c3e04f7384d33208d7cc2ea7f571965fdc9de023e7c0",
                "transactions" : [
                    {
                        "data" : "",
                        "gasLimit" : "0x020f58",
                        "gasPrice" : "0x01",
                        "nonce" : "0x00",
                        "r" : "0xa379f1c29785f2dbdf0e550632f4c8ec03817168d8be30fba39d51ddc5ede242",
                        "s" : "0x16db8cae0757ac3707f3c6c3e04f7384d33208d7cc2ea7f571965fdc9de023e7",
                        "to" : "0xb94f5374fce5edbc8e2a8697c15331677e6ebf0b",
                        "v" : "0x1b",
                        "value" : "0x00"
                    }
                ],
                "uncleHeaders" : [
                ]
            }
        ],
        "genesisBlockHeader" : {
            "bloom" : "0x00000000000000000000000000000000000000000000000000000000000000000000000000000000000000000000000000000000000000000000000000000000000000000000000000000000000000000000000000000000000000000000000000000000000000000000000000000000000000000000000000000000000000000000000000000000000000000000000000000000000000000000000000000000000000000000000000000000000000000000000000000000000000000000000000000000000000000000000000000000000000000000000000000000000000000000000000000000000000000000000000000000000000000000000000000000",
            "coinbase" : "0x2adc25665018aa1fe0e6bc666dac8fc2697ff9ba",
            "difficulty" : "0x020000",
            "extraData" : "0x42",
            "gasLimit" : "0x989680",
            "gasUsed" : "0x00",
            "hash" : "0x3de6ac2960fd2d0c107bd36195a03ddf016daa78cd2965a73c20a54797a77717",
            "mixHash" : "0x56e81f171bcc55a6ff8345e692c0f86e5b48e01b996cadc001622fb5e363b421",
            "nonce" : "0x0102030405060708",
            "number" : "0x00",
            "parentHash" : "0x0000000000000000000000000000000000000000000000000000000000000000",
            "receiptTrie" : "0x56e81f171bcc55a6ff8345e692c0f86e5b48e01b996cadc001622fb5e363b421",
            "stateRoot" : "0x2a8a64f4b10e862190adc0f0fd186fc6395bb37563ffdff6dc22395316fbec3b",
            "timestamp" : "0x03b6",
            "transactionsTrie" : "0x56e81f171bcc55a6ff8345e692c0f86e5b48e01b996cadc001622fb5e363b421",
            "uncleHash" : "0x1dcc4de8dec75d7aab85b567b6ccd41ad312451b948a7413f0a142fd40d49347"
        },
        "genesisRLP" : "0xf901faf901f5a00000000000000000000000000000000000000000000000000000000000000000a01dcc4de8dec75d7aab85b567b6ccd41ad312451b948a7413f0a142fd40d49347942adc25665018aa1fe0e6bc666dac8fc2697ff9baa02a8a64f4b10e862190adc0f0fd186fc6395bb37563ffdff6dc22395316fbec3ba056e81f171bcc55a6ff8345e692c0f86e5b48e01b996cadc001622fb5e363b421a056e81f171bcc55a6ff8345e692c0f86e5b48e01b996cadc001622fb5e363b421b9010000000000000000000000000000000000000000000000000000000000000000000000000000000000000000000000000000000000000000000000000000000000000000000000000000000000000000000000000000000000000000000000000000000000000000000000000000000000000000000000000000000000000000000000000000000000000000000000000000000000000000000000000000000000000000000000000000000000000000000000000000000000000000000000000000000000000000000000000000000000000000000000000000000000000000000000000000000000000000000000000000000000000000000000000000000000830200008083989680808203b642a056e81f171bcc55a6ff8345e692c0f86e5b48e01b996cadc001622fb5e363b421880102030405060708c0c0",
        "lastblockhash" : "0xc95cf30edceed5b9a96486bab55ee74ff3069cadb3e4b88bc7c37d14bd8fa45a",
        "network" : "Frontier",
        "postState" : {
            "0x2adc25665018aa1fe0e6bc666dac8fc2697ff9ba" : {
                "balance" : "0x4563918244f60f58",
                "code" : "",
                "nonce" : "0x00",
                "storage" : {
                }
            },
            "0xa94f5374fce5edbc8e2a8697c15331677e6ebf0b" : {
                "balance" : "0xe8d4a300a8",
                "code" : "",
                "nonce" : "0x01",
                "storage" : {
                }
            },
            "0xb94f5374fce5edbc8e2a8697c15331677e6ebf0b" : {
                "balance" : "0x00",
                "code" : "0x5a600055600060006000600073c94f5374fce5edbc8e2a8697c15331677e6ebf0b61ea60f4600155600c600255600c600355600c6004555a606455",
                "nonce" : "0x00",
                "storage" : {
                }
            },
            "0xc94f5374fce5edbc8e2a8697c15331677e6ebf0b" : {
                "balance" : "0x64",
                "code" : "",
                "nonce" : "0x00",
                "storage" : {
                }
            }
        },
        "pre" : {
            "0xa94f5374fce5edbc8e2a8697c15331677e6ebf0b" : {
                "balance" : "0xe8d4a51000",
                "code" : "",
                "nonce" : "0x00",
                "storage" : {
                }
            },
            "0xb94f5374fce5edbc8e2a8697c15331677e6ebf0b" : {
                "balance" : "0x00",
                "code" : "0x5a600055600060006000600073c94f5374fce5edbc8e2a8697c15331677e6ebf0b61ea60f4600155600c600255600c600355600c6004555a606455",
                "nonce" : "0x00",
                "storage" : {
                }
            },
            "0xc94f5374fce5edbc8e2a8697c15331677e6ebf0b" : {
                "balance" : "0x64",
                "code" : "",
                "nonce" : "0x00",
                "storage" : {
                }
            }
        }
    },
    "ZeroValue_DELEGATECALL_ToNonZeroBalance_OOGRevert_d0g0v0_Homestead" : {
        "_info" : {
            "comment" : "",
            "filledwith" : "cpp-1.3.0+commit.6e0ce939.Linux.g++",
            "lllcversion" : "Version: 0.4.18-develop.2017.9.25+commit.a72237f2.Linux.g++",
            "source" : "src/BlockchainTestsFiller/GeneralStateTests/stZeroCallsRevert/ZeroValue_DELEGATECALL_ToNonZeroBalance_OOGRevert_d0g0v0Filler.json",
            "sourceHash" : "f038bc2505a7bdba5605fee4bacd71769f8fa60123f90e65ee259b80b2f2b06e"
        },
        "blocks" : [
            {
                "blockHeader" : {
                    "bloom" : "0x00000000000000000000000000000000000000000000000000000000000000000000000000000000000000000000000000000000000000000000000000000000000000000000000000000000000000000000000000000000000000000000000000000000000000000000000000000000000000000000000000000000000000000000000000000000000000000000000000000000000000000000000000000000000000000000000000000000000000000000000000000000000000000000000000000000000000000000000000000000000000000000000000000000000000000000000000000000000000000000000000000000000000000000000000000000",
                    "coinbase" : "0x2adc25665018aa1fe0e6bc666dac8fc2697ff9ba",
                    "difficulty" : "0x020000",
                    "extraData" : "",
                    "gasLimit" : "0x989680",
                    "gasUsed" : "0x020f58",
                    "hash" : "0x7bfb7cae5f12dc9dd2b9ad81111d764164dc0c5e50bbe1e298db3e33401bdacf",
                    "mixHash" : "0x86db4fba97f877573a330298ccacc020c4a5eb6241d65badc0eeb366a525cd32",
                    "nonce" : "0x22845f42c87dacb7",
                    "number" : "0x01",
                    "parentHash" : "0x3de6ac2960fd2d0c107bd36195a03ddf016daa78cd2965a73c20a54797a77717",
                    "receiptTrie" : "0xef2a406a2c6b71a26126f4bcc35ba10ffb09ca41b82a241875b4c01d4f83b7e7",
                    "stateRoot" : "0x5a5e23b1fefffde3998059b6a2f38f4bcb6bbd5f4ee049cb17987b8bc6d437d3",
                    "timestamp" : "0x03e8",
                    "transactionsTrie" : "0xaa88f8c92f1660ca93f6181e71ae0f3922f03c2634cf8c759793327a523efb40",
                    "uncleHash" : "0x1dcc4de8dec75d7aab85b567b6ccd41ad312451b948a7413f0a142fd40d49347"
                },
                "rlp" : "0xf90260f901f8a03de6ac2960fd2d0c107bd36195a03ddf016daa78cd2965a73c20a54797a77717a01dcc4de8dec75d7aab85b567b6ccd41ad312451b948a7413f0a142fd40d49347942adc25665018aa1fe0e6bc666dac8fc2697ff9baa05a5e23b1fefffde3998059b6a2f38f4bcb6bbd5f4ee049cb17987b8bc6d437d3a0aa88f8c92f1660ca93f6181e71ae0f3922f03c2634cf8c759793327a523efb40a0ef2a406a2c6b71a26126f4bcc35ba10ffb09ca41b82a241875b4c01d4f83b7e7b901000000000000000000000000000000000000000000000000000000000000000000000000000000000000000000000000000000000000000000000000000000000000000000000000000000000000000000000000000000000000000000000000000000000000000000000000000000000000000000000000000000000000000000000000000000000000000000000000000000000000000000000000000000000000000000000000000000000000000000000000000000000000000000000000000000000000000000000000000000000000000000000000000000000000000000000000000000000000000000000000000000000000000000000000000000000083020000018398968083020f588203e880a086db4fba97f877573a330298ccacc020c4a5eb6241d65badc0eeb366a525cd328822845f42c87dacb7f862f860800183020f5894b94f5374fce5edbc8e2a8697c15331677e6ebf0b80801ba0a379f1c29785f2dbdf0e550632f4c8ec03817168d8be30fba39d51ddc5ede242a016db8cae0757ac3707f3c6c3e04f7384d33208d7cc2ea7f571965fdc9de023e7c0",
                "transactions" : [
                    {
                        "data" : "",
                        "gasLimit" : "0x020f58",
                        "gasPrice" : "0x01",
                        "nonce" : "0x00",
                        "r" : "0xa379f1c29785f2dbdf0e550632f4c8ec03817168d8be30fba39d51ddc5ede242",
                        "s" : "0x16db8cae0757ac3707f3c6c3e04f7384d33208d7cc2ea7f571965fdc9de023e7",
                        "to" : "0xb94f5374fce5edbc8e2a8697c15331677e6ebf0b",
                        "v" : "0x1b",
                        "value" : "0x00"
                    }
                ],
                "uncleHeaders" : [
                ]
            }
        ],
        "genesisBlockHeader" : {
            "bloom" : "0x00000000000000000000000000000000000000000000000000000000000000000000000000000000000000000000000000000000000000000000000000000000000000000000000000000000000000000000000000000000000000000000000000000000000000000000000000000000000000000000000000000000000000000000000000000000000000000000000000000000000000000000000000000000000000000000000000000000000000000000000000000000000000000000000000000000000000000000000000000000000000000000000000000000000000000000000000000000000000000000000000000000000000000000000000000000",
            "coinbase" : "0x2adc25665018aa1fe0e6bc666dac8fc2697ff9ba",
            "difficulty" : "0x020000",
            "extraData" : "0x42",
            "gasLimit" : "0x989680",
            "gasUsed" : "0x00",
            "hash" : "0x3de6ac2960fd2d0c107bd36195a03ddf016daa78cd2965a73c20a54797a77717",
            "mixHash" : "0x56e81f171bcc55a6ff8345e692c0f86e5b48e01b996cadc001622fb5e363b421",
            "nonce" : "0x0102030405060708",
            "number" : "0x00",
            "parentHash" : "0x0000000000000000000000000000000000000000000000000000000000000000",
            "receiptTrie" : "0x56e81f171bcc55a6ff8345e692c0f86e5b48e01b996cadc001622fb5e363b421",
            "stateRoot" : "0x2a8a64f4b10e862190adc0f0fd186fc6395bb37563ffdff6dc22395316fbec3b",
            "timestamp" : "0x03b6",
            "transactionsTrie" : "0x56e81f171bcc55a6ff8345e692c0f86e5b48e01b996cadc001622fb5e363b421",
            "uncleHash" : "0x1dcc4de8dec75d7aab85b567b6ccd41ad312451b948a7413f0a142fd40d49347"
        },
        "genesisRLP" : "0xf901faf901f5a00000000000000000000000000000000000000000000000000000000000000000a01dcc4de8dec75d7aab85b567b6ccd41ad312451b948a7413f0a142fd40d49347942adc25665018aa1fe0e6bc666dac8fc2697ff9baa02a8a64f4b10e862190adc0f0fd186fc6395bb37563ffdff6dc22395316fbec3ba056e81f171bcc55a6ff8345e692c0f86e5b48e01b996cadc001622fb5e363b421a056e81f171bcc55a6ff8345e692c0f86e5b48e01b996cadc001622fb5e363b421b9010000000000000000000000000000000000000000000000000000000000000000000000000000000000000000000000000000000000000000000000000000000000000000000000000000000000000000000000000000000000000000000000000000000000000000000000000000000000000000000000000000000000000000000000000000000000000000000000000000000000000000000000000000000000000000000000000000000000000000000000000000000000000000000000000000000000000000000000000000000000000000000000000000000000000000000000000000000000000000000000000000000000000000000000000000000000830200008083989680808203b642a056e81f171bcc55a6ff8345e692c0f86e5b48e01b996cadc001622fb5e363b421880102030405060708c0c0",
        "lastblockhash" : "0x7bfb7cae5f12dc9dd2b9ad81111d764164dc0c5e50bbe1e298db3e33401bdacf",
        "network" : "Homestead",
        "postState" : {
            "0x2adc25665018aa1fe0e6bc666dac8fc2697ff9ba" : {
                "balance" : "0x4563918244f60f58",
                "code" : "",
                "nonce" : "0x00",
                "storage" : {
                }
            },
            "0xa94f5374fce5edbc8e2a8697c15331677e6ebf0b" : {
                "balance" : "0xe8d4a300a8",
                "code" : "",
                "nonce" : "0x01",
                "storage" : {
                }
            },
            "0xb94f5374fce5edbc8e2a8697c15331677e6ebf0b" : {
                "balance" : "0x00",
                "code" : "0x5a600055600060006000600073c94f5374fce5edbc8e2a8697c15331677e6ebf0b61ea60f4600155600c600255600c600355600c6004555a606455",
                "nonce" : "0x00",
                "storage" : {
                }
            },
            "0xc94f5374fce5edbc8e2a8697c15331677e6ebf0b" : {
                "balance" : "0x64",
                "code" : "",
                "nonce" : "0x00",
                "storage" : {
                }
            }
        },
        "pre" : {
            "0xa94f5374fce5edbc8e2a8697c15331677e6ebf0b" : {
                "balance" : "0xe8d4a51000",
                "code" : "",
                "nonce" : "0x00",
                "storage" : {
                }
            },
            "0xb94f5374fce5edbc8e2a8697c15331677e6ebf0b" : {
                "balance" : "0x00",
                "code" : "0x5a600055600060006000600073c94f5374fce5edbc8e2a8697c15331677e6ebf0b61ea60f4600155600c600255600c600355600c6004555a606455",
                "nonce" : "0x00",
                "storage" : {
                }
            },
            "0xc94f5374fce5edbc8e2a8697c15331677e6ebf0b" : {
                "balance" : "0x64",
                "code" : "",
                "nonce" : "0x00",
                "storage" : {
                }
            }
        }
    }
}