{
    "ZeroValue_SUICIDE_ToOneStorageKey_OOGRevert_d0g0v0_Byzantium" : {
        "_info" : {
            "comment" : "",
            "filledwith" : "cpp-1.3.0+commit.6e0ce939.Linux.g++",
            "lllcversion" : "Version: 0.4.18-develop.2017.9.25+commit.a72237f2.Linux.g++",
            "source" : "src/BlockchainTestsFiller/GeneralStateTests/stZeroCallsRevert/ZeroValue_SUICIDE_ToOneStorageKey_OOGRevert_d0g0v0Filler.json",
            "sourceHash" : "5522604b4ed699bd088d1e8132cd5f64af2ebd6f2ae6bfc0a1a6bca13842fe86"
        },
        "blocks" : [
            {
                "blockHeader" : {
                    "bloom" : "0x00000000000000000000000000000000000000000000000000000000000000000000000000000000000000000000000000000000000000000000000000000000000000000000000000000000000000000000000000000000000000000000000000000000000000000000000000000000000000000000000000000000000000000000000000000000000000000000000000000000000000000000000000000000000000000000000000000000000000000000000000000000000000000000000000000000000000000000000000000000000000000000000000000000000000000000000000000000000000000000000000000000000000000000000000000000",
                    "coinbase" : "0x2adc25665018aa1fe0e6bc666dac8fc2697ff9ba",
                    "difficulty" : "0x020000",
                    "extraData" : "",
                    "gasLimit" : "0x989680",
                    "gasUsed" : "0x0124f8",
                    "hash" : "0x7b33e36c586c5140b0a9236d0420eea68d75fa755cb7c8174756cc627227f702",
                    "mixHash" : "0x3ea8df7f717824ae537b12d9fddfcea6fb955334ef8c42504850f583e4632899",
                    "nonce" : "0x2acbce80944afffe",
                    "number" : "0x01",
                    "parentHash" : "0xdc3f64c048a7012b0b62a6a60c4a26d9aa37ac15733fa233d6012e7d1aaa0139",
                    "receiptTrie" : "0x125ad3ea753d690f62898c2cc4ebd0b0beb8cd0940db90c6af7ca8c082829ae3",
                    "stateRoot" : "0x115af2d29b58be010a25797438d932f6d1fbf217729305045740c3bac306a029",
                    "timestamp" : "0x03e8",
                    "transactionsTrie" : "0x9a511166bed6422fb0dac78f4dfe3b6826fdd0e55485b9bf0e1f6893dfa94da3",
                    "uncleHash" : "0x1dcc4de8dec75d7aab85b567b6ccd41ad312451b948a7413f0a142fd40d49347"
                },
                "rlp" : "0xf90260f901f8a0dc3f64c048a7012b0b62a6a60c4a26d9aa37ac15733fa233d6012e7d1aaa0139a01dcc4de8dec75d7aab85b567b6ccd41ad312451b948a7413f0a142fd40d49347942adc25665018aa1fe0e6bc666dac8fc2697ff9baa0115af2d29b58be010a25797438d932f6d1fbf217729305045740c3bac306a029a09a511166bed6422fb0dac78f4dfe3b6826fdd0e55485b9bf0e1f6893dfa94da3a0125ad3ea753d690f62898c2cc4ebd0b0beb8cd0940db90c6af7ca8c082829ae3b9010000000000000000000000000000000000000000000000000000000000000000000000000000000000000000000000000000000000000000000000000000000000000000000000000000000000000000000000000000000000000000000000000000000000000000000000000000000000000000000000000000000000000000000000000000000000000000000000000000000000000000000000000000000000000000000000000000000000000000000000000000000000000000000000000000000000000000000000000000000000000000000000000000000000000000000000000000000000000000000000000000000000000000000000000000000000830200000183989680830124f88203e880a03ea8df7f717824ae537b12d9fddfcea6fb955334ef8c42504850f583e4632899882acbce80944afffef862f8608001830124f894b94f5374fce5edbc8e2a8697c15331677e6ebf0b80801ba06fab621529b9a7d4acafc1ae9708a15b9a5b19abe1d8fc79a31320725f9a4fafa07a1e4cc8b6cb36926e8d9cdb1245cd8eb77813e1fc63983cd3abd899f88b9f3dc0",
                "transactions" : [
                    {
                        "data" : "",
                        "gasLimit" : "0x0124f8",
                        "gasPrice" : "0x01",
                        "nonce" : "0x00",
                        "r" : "0x6fab621529b9a7d4acafc1ae9708a15b9a5b19abe1d8fc79a31320725f9a4faf",
                        "s" : "0x7a1e4cc8b6cb36926e8d9cdb1245cd8eb77813e1fc63983cd3abd899f88b9f3d",
                        "to" : "0xb94f5374fce5edbc8e2a8697c15331677e6ebf0b",
                        "v" : "0x1b",
                        "value" : "0x00"
                    }
                ],
                "uncleHeaders" : [
                ]
            }
        ],
        "genesisBlockHeader" : {
            "bloom" : "0x00000000000000000000000000000000000000000000000000000000000000000000000000000000000000000000000000000000000000000000000000000000000000000000000000000000000000000000000000000000000000000000000000000000000000000000000000000000000000000000000000000000000000000000000000000000000000000000000000000000000000000000000000000000000000000000000000000000000000000000000000000000000000000000000000000000000000000000000000000000000000000000000000000000000000000000000000000000000000000000000000000000000000000000000000000000",
            "coinbase" : "0x2adc25665018aa1fe0e6bc666dac8fc2697ff9ba",
            "difficulty" : "0x020000",
            "extraData" : "0x42",
            "gasLimit" : "0x989680",
            "gasUsed" : "0x00",
            "hash" : "0xdc3f64c048a7012b0b62a6a60c4a26d9aa37ac15733fa233d6012e7d1aaa0139",
            "mixHash" : "0x56e81f171bcc55a6ff8345e692c0f86e5b48e01b996cadc001622fb5e363b421",
            "nonce" : "0x0102030405060708",
            "number" : "0x00",
            "parentHash" : "0x0000000000000000000000000000000000000000000000000000000000000000",
            "receiptTrie" : "0x56e81f171bcc55a6ff8345e692c0f86e5b48e01b996cadc001622fb5e363b421",
            "stateRoot" : "0x8c7b6312f76093842dc86182264f34c4ad6d3615d535fa4bd79a9b2a48272011",
            "timestamp" : "0x03b6",
            "transactionsTrie" : "0x56e81f171bcc55a6ff8345e692c0f86e5b48e01b996cadc001622fb5e363b421",
            "uncleHash" : "0x1dcc4de8dec75d7aab85b567b6ccd41ad312451b948a7413f0a142fd40d49347"
        },
        "genesisRLP" : "0xf901faf901f5a00000000000000000000000000000000000000000000000000000000000000000a01dcc4de8dec75d7aab85b567b6ccd41ad312451b948a7413f0a142fd40d49347942adc25665018aa1fe0e6bc666dac8fc2697ff9baa08c7b6312f76093842dc86182264f34c4ad6d3615d535fa4bd79a9b2a48272011a056e81f171bcc55a6ff8345e692c0f86e5b48e01b996cadc001622fb5e363b421a056e81f171bcc55a6ff8345e692c0f86e5b48e01b996cadc001622fb5e363b421b9010000000000000000000000000000000000000000000000000000000000000000000000000000000000000000000000000000000000000000000000000000000000000000000000000000000000000000000000000000000000000000000000000000000000000000000000000000000000000000000000000000000000000000000000000000000000000000000000000000000000000000000000000000000000000000000000000000000000000000000000000000000000000000000000000000000000000000000000000000000000000000000000000000000000000000000000000000000000000000000000000000000000000000000000000000000000830200008083989680808203b642a056e81f171bcc55a6ff8345e692c0f86e5b48e01b996cadc001622fb5e363b421880102030405060708c0c0",
        "lastblockhash" : "0x7b33e36c586c5140b0a9236d0420eea68d75fa755cb7c8174756cc627227f702",
        "network" : "Byzantium",
        "postState" : {
            "0x2adc25665018aa1fe0e6bc666dac8fc2697ff9ba" : {
                "balance" : "0x29a2241af62d24f8",
                "code" : "",
                "nonce" : "0x00",
                "storage" : {
                }
            },
            "0xa94f5374fce5edbc8e2a8697c15331677e6ebf0b" : {
                "balance" : "0xe8d4a3eb08",
                "code" : "",
                "nonce" : "0x01",
                "storage" : {
                }
            },
            "0xb94f5374fce5edbc8e2a8697c15331677e6ebf0b" : {
                "balance" : "0x00",
                "code" : "0x6000600060006000600073d94f5374fce5edbc8e2a8697c15331677e6ebf0b61c350f150600c600255600c600355600c600455",
                "nonce" : "0x00",
                "storage" : {
                    "0x00" : "0x01"
                }
            },
            "0xc94f5374fce5edbc8e2a8697c15331677e6ebf0b" : {
                "balance" : "0x00",
                "code" : "",
                "nonce" : "0x00",
                "storage" : {
                    "0x00" : "0x01"
                }
            },
            "0xd94f5374fce5edbc8e2a8697c15331677e6ebf0b" : {
                "balance" : "0x00",
                "code" : "0x73c94f5374fce5edbc8e2a8697c15331677e6ebf0bff",
                "nonce" : "0x00",
                "storage" : {
                    "0x00" : "0x01"
                }
            }
        },
        "pre" : {
            "0xa94f5374fce5edbc8e2a8697c15331677e6ebf0b" : {
                "balance" : "0xe8d4a51000",
                "code" : "",
                "nonce" : "0x00",
                "storage" : {
                }
            },
            "0xb94f5374fce5edbc8e2a8697c15331677e6ebf0b" : {
                "balance" : "0x00",
                "code" : "0x6000600060006000600073d94f5374fce5edbc8e2a8697c15331677e6ebf0b61c350f150600c600255600c600355600c600455",
                "nonce" : "0x00",
                "storage" : {
                    "0x00" : "0x01"
                }
            },
            "0xc94f5374fce5edbc8e2a8697c15331677e6ebf0b" : {
                "balance" : "0x00",
                "code" : "",
                "nonce" : "0x00",
                "storage" : {
                    "0x00" : "0x01"
                }
            },
            "0xd94f5374fce5edbc8e2a8697c15331677e6ebf0b" : {
                "balance" : "0x00",
                "code" : "0x73c94f5374fce5edbc8e2a8697c15331677e6ebf0bff",
                "nonce" : "0x00",
                "storage" : {
                    "0x00" : "0x01"
                }
            }
        }
    },
    "ZeroValue_SUICIDE_ToOneStorageKey_OOGRevert_d0g0v0_EIP150" : {
        "_info" : {
            "comment" : "",
            "filledwith" : "cpp-1.3.0+commit.6e0ce939.Linux.g++",
            "lllcversion" : "Version: 0.4.18-develop.2017.9.25+commit.a72237f2.Linux.g++",
            "source" : "src/BlockchainTestsFiller/GeneralStateTests/stZeroCallsRevert/ZeroValue_SUICIDE_ToOneStorageKey_OOGRevert_d0g0v0Filler.json",
            "sourceHash" : "5522604b4ed699bd088d1e8132cd5f64af2ebd6f2ae6bfc0a1a6bca13842fe86"
        },
        "blocks" : [
            {
                "blockHeader" : {
                    "bloom" : "0x00000000000000000000000000000000000000000000000000000000000000000000000000000000000000000000000000000000000000000000000000000000000000000000000000000000000000000000000000000000000000000000000000000000000000000000000000000000000000000000000000000000000000000000000000000000000000000000000000000000000000000000000000000000000000000000000000000000000000000000000000000000000000000000000000000000000000000000000000000000000000000000000000000000000000000000000000000000000000000000000000000000000000000000000000000000",
                    "coinbase" : "0x2adc25665018aa1fe0e6bc666dac8fc2697ff9ba",
                    "difficulty" : "0x020000",
                    "extraData" : "",
                    "gasLimit" : "0x989680",
                    "gasUsed" : "0x0124f8",
                    "hash" : "0x61c636359b361415a3d8a377ebfe1a8bbfc6da015e9cdc60ae1aba753d38d6e5",
                    "mixHash" : "0x998c95dde1d27645a86ce1c2b15ed461da0ef05f92dc31c325f5d7cf7a553212",
                    "nonce" : "0xac75393f3c149558",
                    "number" : "0x01",
                    "parentHash" : "0xdc3f64c048a7012b0b62a6a60c4a26d9aa37ac15733fa233d6012e7d1aaa0139",
                    "receiptTrie" : "0xfe50760046d5aa36a6589af109751c873777c3f41650b7c7d0c9d4e766194d69",
                    "stateRoot" : "0x1f0fb75fa6c26e54fada2b1663ceb0c97287fc93515a37485caf81c85a0f0f39",
                    "timestamp" : "0x03e8",
                    "transactionsTrie" : "0x9a511166bed6422fb0dac78f4dfe3b6826fdd0e55485b9bf0e1f6893dfa94da3",
                    "uncleHash" : "0x1dcc4de8dec75d7aab85b567b6ccd41ad312451b948a7413f0a142fd40d49347"
                },
                "rlp" : "0xf90260f901f8a0dc3f64c048a7012b0b62a6a60c4a26d9aa37ac15733fa233d6012e7d1aaa0139a01dcc4de8dec75d7aab85b567b6ccd41ad312451b948a7413f0a142fd40d49347942adc25665018aa1fe0e6bc666dac8fc2697ff9baa01f0fb75fa6c26e54fada2b1663ceb0c97287fc93515a37485caf81c85a0f0f39a09a511166bed6422fb0dac78f4dfe3b6826fdd0e55485b9bf0e1f6893dfa94da3a0fe50760046d5aa36a6589af109751c873777c3f41650b7c7d0c9d4e766194d69b9010000000000000000000000000000000000000000000000000000000000000000000000000000000000000000000000000000000000000000000000000000000000000000000000000000000000000000000000000000000000000000000000000000000000000000000000000000000000000000000000000000000000000000000000000000000000000000000000000000000000000000000000000000000000000000000000000000000000000000000000000000000000000000000000000000000000000000000000000000000000000000000000000000000000000000000000000000000000000000000000000000000000000000000000000000000000830200000183989680830124f88203e880a0998c95dde1d27645a86ce1c2b15ed461da0ef05f92dc31c325f5d7cf7a55321288ac75393f3c149558f862f8608001830124f894b94f5374fce5edbc8e2a8697c15331677e6ebf0b80801ba06fab621529b9a7d4acafc1ae9708a15b9a5b19abe1d8fc79a31320725f9a4fafa07a1e4cc8b6cb36926e8d9cdb1245cd8eb77813e1fc63983cd3abd899f88b9f3dc0",
                "transactions" : [
                    {
                        "data" : "",
                        "gasLimit" : "0x0124f8",
                        "gasPrice" : "0x01",
                        "nonce" : "0x00",
                        "r" : "0x6fab621529b9a7d4acafc1ae9708a15b9a5b19abe1d8fc79a31320725f9a4faf",
                        "s" : "0x7a1e4cc8b6cb36926e8d9cdb1245cd8eb77813e1fc63983cd3abd899f88b9f3d",
                        "to" : "0xb94f5374fce5edbc8e2a8697c15331677e6ebf0b",
                        "v" : "0x1b",
                        "value" : "0x00"
                    }
                ],
                "uncleHeaders" : [
                ]
            }
        ],
        "genesisBlockHeader" : {
            "bloom" : "0x00000000000000000000000000000000000000000000000000000000000000000000000000000000000000000000000000000000000000000000000000000000000000000000000000000000000000000000000000000000000000000000000000000000000000000000000000000000000000000000000000000000000000000000000000000000000000000000000000000000000000000000000000000000000000000000000000000000000000000000000000000000000000000000000000000000000000000000000000000000000000000000000000000000000000000000000000000000000000000000000000000000000000000000000000000000",
            "coinbase" : "0x2adc25665018aa1fe0e6bc666dac8fc2697ff9ba",
            "difficulty" : "0x020000",
            "extraData" : "0x42",
            "gasLimit" : "0x989680",
            "gasUsed" : "0x00",
            "hash" : "0xdc3f64c048a7012b0b62a6a60c4a26d9aa37ac15733fa233d6012e7d1aaa0139",
            "mixHash" : "0x56e81f171bcc55a6ff8345e692c0f86e5b48e01b996cadc001622fb5e363b421",
            "nonce" : "0x0102030405060708",
            "number" : "0x00",
            "parentHash" : "0x0000000000000000000000000000000000000000000000000000000000000000",
            "receiptTrie" : "0x56e81f171bcc55a6ff8345e692c0f86e5b48e01b996cadc001622fb5e363b421",
            "stateRoot" : "0x8c7b6312f76093842dc86182264f34c4ad6d3615d535fa4bd79a9b2a48272011",
            "timestamp" : "0x03b6",
            "transactionsTrie" : "0x56e81f171bcc55a6ff8345e692c0f86e5b48e01b996cadc001622fb5e363b421",
            "uncleHash" : "0x1dcc4de8dec75d7aab85b567b6ccd41ad312451b948a7413f0a142fd40d49347"
        },
        "genesisRLP" : "0xf901faf901f5a00000000000000000000000000000000000000000000000000000000000000000a01dcc4de8dec75d7aab85b567b6ccd41ad312451b948a7413f0a142fd40d49347942adc25665018aa1fe0e6bc666dac8fc2697ff9baa08c7b6312f76093842dc86182264f34c4ad6d3615d535fa4bd79a9b2a48272011a056e81f171bcc55a6ff8345e692c0f86e5b48e01b996cadc001622fb5e363b421a056e81f171bcc55a6ff8345e692c0f86e5b48e01b996cadc001622fb5e363b421b9010000000000000000000000000000000000000000000000000000000000000000000000000000000000000000000000000000000000000000000000000000000000000000000000000000000000000000000000000000000000000000000000000000000000000000000000000000000000000000000000000000000000000000000000000000000000000000000000000000000000000000000000000000000000000000000000000000000000000000000000000000000000000000000000000000000000000000000000000000000000000000000000000000000000000000000000000000000000000000000000000000000000000000000000000000000000830200008083989680808203b642a056e81f171bcc55a6ff8345e692c0f86e5b48e01b996cadc001622fb5e363b421880102030405060708c0c0",
        "lastblockhash" : "0x61c636359b361415a3d8a377ebfe1a8bbfc6da015e9cdc60ae1aba753d38d6e5",
        "network" : "EIP150",
        "postState" : {
            "0x2adc25665018aa1fe0e6bc666dac8fc2697ff9ba" : {
                "balance" : "0x4563918244f524f8",
                "code" : "",
                "nonce" : "0x00",
                "storage" : {
                }
            },
            "0xa94f5374fce5edbc8e2a8697c15331677e6ebf0b" : {
                "balance" : "0xe8d4a3eb08",
                "code" : "",
                "nonce" : "0x01",
                "storage" : {
                }
            },
            "0xb94f5374fce5edbc8e2a8697c15331677e6ebf0b" : {
                "balance" : "0x00",
                "code" : "0x6000600060006000600073d94f5374fce5edbc8e2a8697c15331677e6ebf0b61c350f150600c600255600c600355600c600455",
                "nonce" : "0x00",
                "storage" : {
                    "0x00" : "0x01"
                }
            },
            "0xc94f5374fce5edbc8e2a8697c15331677e6ebf0b" : {
                "balance" : "0x00",
                "code" : "",
                "nonce" : "0x00",
                "storage" : {
                    "0x00" : "0x01"
                }
            },
            "0xd94f5374fce5edbc8e2a8697c15331677e6ebf0b" : {
                "balance" : "0x00",
                "code" : "0x73c94f5374fce5edbc8e2a8697c15331677e6ebf0bff",
                "nonce" : "0x00",
                "storage" : {
                    "0x00" : "0x01"
                }
            }
        },
        "pre" : {
            "0xa94f5374fce5edbc8e2a8697c15331677e6ebf0b" : {
                "balance" : "0xe8d4a51000",
                "code" : "",
                "nonce" : "0x00",
                "storage" : {
                }
            },
            "0xb94f5374fce5edbc8e2a8697c15331677e6ebf0b" : {
                "balance" : "0x00",
                "code" : "0x6000600060006000600073d94f5374fce5edbc8e2a8697c15331677e6ebf0b61c350f150600c600255600c600355600c600455",
                "nonce" : "0x00",
                "storage" : {
                    "0x00" : "0x01"
                }
            },
            "0xc94f5374fce5edbc8e2a8697c15331677e6ebf0b" : {
                "balance" : "0x00",
                "code" : "",
                "nonce" : "0x00",
                "storage" : {
                    "0x00" : "0x01"
                }
            },
            "0xd94f5374fce5edbc8e2a8697c15331677e6ebf0b" : {
                "balance" : "0x00",
                "code" : "0x73c94f5374fce5edbc8e2a8697c15331677e6ebf0bff",
                "nonce" : "0x00",
                "storage" : {
                    "0x00" : "0x01"
                }
            }
        }
    },
    "ZeroValue_SUICIDE_ToOneStorageKey_OOGRevert_d0g0v0_EIP158" : {
        "_info" : {
            "comment" : "",
            "filledwith" : "cpp-1.3.0+commit.6e0ce939.Linux.g++",
            "lllcversion" : "Version: 0.4.18-develop.2017.9.25+commit.a72237f2.Linux.g++",
            "source" : "src/BlockchainTestsFiller/GeneralStateTests/stZeroCallsRevert/ZeroValue_SUICIDE_ToOneStorageKey_OOGRevert_d0g0v0Filler.json",
            "sourceHash" : "5522604b4ed699bd088d1e8132cd5f64af2ebd6f2ae6bfc0a1a6bca13842fe86"
        },
        "blocks" : [
            {
                "blockHeader" : {
                    "bloom" : "0x00000000000000000000000000000000000000000000000000000000000000000000000000000000000000000000000000000000000000000000000000000000000000000000000000000000000000000000000000000000000000000000000000000000000000000000000000000000000000000000000000000000000000000000000000000000000000000000000000000000000000000000000000000000000000000000000000000000000000000000000000000000000000000000000000000000000000000000000000000000000000000000000000000000000000000000000000000000000000000000000000000000000000000000000000000000",
                    "coinbase" : "0x2adc25665018aa1fe0e6bc666dac8fc2697ff9ba",
                    "difficulty" : "0x020000",
                    "extraData" : "",
                    "gasLimit" : "0x989680",
                    "gasUsed" : "0x0124f8",
                    "hash" : "0xbfeda6070857cd647aed833d3c30778e4e02ea8b6cbaa51ce390df020d0a9afd",
                    "mixHash" : "0xbb92ab681a408786884857b130bdf563ab883a04a188b4a0bc2889b70c411bf3",
                    "nonce" : "0x0749b390e2937daf",
                    "number" : "0x01",
                    "parentHash" : "0xdc3f64c048a7012b0b62a6a60c4a26d9aa37ac15733fa233d6012e7d1aaa0139",
                    "receiptTrie" : "0xfe50760046d5aa36a6589af109751c873777c3f41650b7c7d0c9d4e766194d69",
                    "stateRoot" : "0x1f0fb75fa6c26e54fada2b1663ceb0c97287fc93515a37485caf81c85a0f0f39",
                    "timestamp" : "0x03e8",
                    "transactionsTrie" : "0x9a511166bed6422fb0dac78f4dfe3b6826fdd0e55485b9bf0e1f6893dfa94da3",
                    "uncleHash" : "0x1dcc4de8dec75d7aab85b567b6ccd41ad312451b948a7413f0a142fd40d49347"
                },
                "rlp" : "0xf90260f901f8a0dc3f64c048a7012b0b62a6a60c4a26d9aa37ac15733fa233d6012e7d1aaa0139a01dcc4de8dec75d7aab85b567b6ccd41ad312451b948a7413f0a142fd40d49347942adc25665018aa1fe0e6bc666dac8fc2697ff9baa01f0fb75fa6c26e54fada2b1663ceb0c97287fc93515a37485caf81c85a0f0f39a09a511166bed6422fb0dac78f4dfe3b6826fdd0e55485b9bf0e1f6893dfa94da3a0fe50760046d5aa36a6589af109751c873777c3f41650b7c7d0c9d4e766194d69b9010000000000000000000000000000000000000000000000000000000000000000000000000000000000000000000000000000000000000000000000000000000000000000000000000000000000000000000000000000000000000000000000000000000000000000000000000000000000000000000000000000000000000000000000000000000000000000000000000000000000000000000000000000000000000000000000000000000000000000000000000000000000000000000000000000000000000000000000000000000000000000000000000000000000000000000000000000000000000000000000000000000000000000000000000000000000830200000183989680830124f88203e880a0bb92ab681a408786884857b130bdf563ab883a04a188b4a0bc2889b70c411bf3880749b390e2937daff862f8608001830124f894b94f5374fce5edbc8e2a8697c15331677e6ebf0b80801ba06fab621529b9a7d4acafc1ae9708a15b9a5b19abe1d8fc79a31320725f9a4fafa07a1e4cc8b6cb36926e8d9cdb1245cd8eb77813e1fc63983cd3abd899f88b9f3dc0",
                "transactions" : [
                    {
                        "data" : "",
                        "gasLimit" : "0x0124f8",
                        "gasPrice" : "0x01",
                        "nonce" : "0x00",
                        "r" : "0x6fab621529b9a7d4acafc1ae9708a15b9a5b19abe1d8fc79a31320725f9a4faf",
                        "s" : "0x7a1e4cc8b6cb36926e8d9cdb1245cd8eb77813e1fc63983cd3abd899f88b9f3d",
                        "to" : "0xb94f5374fce5edbc8e2a8697c15331677e6ebf0b",
                        "v" : "0x1b",
                        "value" : "0x00"
                    }
                ],
                "uncleHeaders" : [
                ]
            }
        ],
        "genesisBlockHeader" : {
            "bloom" : "0x00000000000000000000000000000000000000000000000000000000000000000000000000000000000000000000000000000000000000000000000000000000000000000000000000000000000000000000000000000000000000000000000000000000000000000000000000000000000000000000000000000000000000000000000000000000000000000000000000000000000000000000000000000000000000000000000000000000000000000000000000000000000000000000000000000000000000000000000000000000000000000000000000000000000000000000000000000000000000000000000000000000000000000000000000000000",
            "coinbase" : "0x2adc25665018aa1fe0e6bc666dac8fc2697ff9ba",
            "difficulty" : "0x020000",
            "extraData" : "0x42",
            "gasLimit" : "0x989680",
            "gasUsed" : "0x00",
            "hash" : "0xdc3f64c048a7012b0b62a6a60c4a26d9aa37ac15733fa233d6012e7d1aaa0139",
            "mixHash" : "0x56e81f171bcc55a6ff8345e692c0f86e5b48e01b996cadc001622fb5e363b421",
            "nonce" : "0x0102030405060708",
            "number" : "0x00",
            "parentHash" : "0x0000000000000000000000000000000000000000000000000000000000000000",
            "receiptTrie" : "0x56e81f171bcc55a6ff8345e692c0f86e5b48e01b996cadc001622fb5e363b421",
            "stateRoot" : "0x8c7b6312f76093842dc86182264f34c4ad6d3615d535fa4bd79a9b2a48272011",
            "timestamp" : "0x03b6",
            "transactionsTrie" : "0x56e81f171bcc55a6ff8345e692c0f86e5b48e01b996cadc001622fb5e363b421",
            "uncleHash" : "0x1dcc4de8dec75d7aab85b567b6ccd41ad312451b948a7413f0a142fd40d49347"
        },
        "genesisRLP" : "0xf901faf901f5a00000000000000000000000000000000000000000000000000000000000000000a01dcc4de8dec75d7aab85b567b6ccd41ad312451b948a7413f0a142fd40d49347942adc25665018aa1fe0e6bc666dac8fc2697ff9baa08c7b6312f76093842dc86182264f34c4ad6d3615d535fa4bd79a9b2a48272011a056e81f171bcc55a6ff8345e692c0f86e5b48e01b996cadc001622fb5e363b421a056e81f171bcc55a6ff8345e692c0f86e5b48e01b996cadc001622fb5e363b421b9010000000000000000000000000000000000000000000000000000000000000000000000000000000000000000000000000000000000000000000000000000000000000000000000000000000000000000000000000000000000000000000000000000000000000000000000000000000000000000000000000000000000000000000000000000000000000000000000000000000000000000000000000000000000000000000000000000000000000000000000000000000000000000000000000000000000000000000000000000000000000000000000000000000000000000000000000000000000000000000000000000000000000000000000000000000000830200008083989680808203b642a056e81f171bcc55a6ff8345e692c0f86e5b48e01b996cadc001622fb5e363b421880102030405060708c0c0",
        "lastblockhash" : "0xbfeda6070857cd647aed833d3c30778e4e02ea8b6cbaa51ce390df020d0a9afd",
        "network" : "EIP158",
        "postState" : {
            "0x2adc25665018aa1fe0e6bc666dac8fc2697ff9ba" : {
                "balance" : "0x4563918244f524f8",
                "code" : "",
                "nonce" : "0x00",
                "storage" : {
                }
            },
            "0xa94f5374fce5edbc8e2a8697c15331677e6ebf0b" : {
                "balance" : "0xe8d4a3eb08",
                "code" : "",
                "nonce" : "0x01",
                "storage" : {
                }
            },
            "0xb94f5374fce5edbc8e2a8697c15331677e6ebf0b" : {
                "balance" : "0x00",
                "code" : "0x6000600060006000600073d94f5374fce5edbc8e2a8697c15331677e6ebf0b61c350f150600c600255600c600355600c600455",
                "nonce" : "0x00",
                "storage" : {
                    "0x00" : "0x01"
                }
            },
            "0xc94f5374fce5edbc8e2a8697c15331677e6ebf0b" : {
                "balance" : "0x00",
                "code" : "",
                "nonce" : "0x00",
                "storage" : {
                    "0x00" : "0x01"
                }
            },
            "0xd94f5374fce5edbc8e2a8697c15331677e6ebf0b" : {
                "balance" : "0x00",
                "code" : "0x73c94f5374fce5edbc8e2a8697c15331677e6ebf0bff",
                "nonce" : "0x00",
                "storage" : {
                    "0x00" : "0x01"
                }
            }
        },
        "pre" : {
            "0xa94f5374fce5edbc8e2a8697c15331677e6ebf0b" : {
                "balance" : "0xe8d4a51000",
                "code" : "",
                "nonce" : "0x00",
                "storage" : {
                }
            },
            "0xb94f5374fce5edbc8e2a8697c15331677e6ebf0b" : {
                "balance" : "0x00",
                "code" : "0x6000600060006000600073d94f5374fce5edbc8e2a8697c15331677e6ebf0b61c350f150600c600255600c600355600c600455",
                "nonce" : "0x00",
                "storage" : {
                    "0x00" : "0x01"
                }
            },
            "0xc94f5374fce5edbc8e2a8697c15331677e6ebf0b" : {
                "balance" : "0x00",
                "code" : "",
                "nonce" : "0x00",
                "storage" : {
                    "0x00" : "0x01"
                }
            },
            "0xd94f5374fce5edbc8e2a8697c15331677e6ebf0b" : {
                "balance" : "0x00",
                "code" : "0x73c94f5374fce5edbc8e2a8697c15331677e6ebf0bff",
                "nonce" : "0x00",
                "storage" : {
                    "0x00" : "0x01"
                }
            }
        }
    },
    "ZeroValue_SUICIDE_ToOneStorageKey_OOGRevert_d0g0v0_Frontier" : {
        "_info" : {
            "comment" : "",
            "filledwith" : "cpp-1.3.0+commit.6e0ce939.Linux.g++",
            "lllcversion" : "Version: 0.4.18-develop.2017.9.25+commit.a72237f2.Linux.g++",
            "source" : "src/BlockchainTestsFiller/GeneralStateTests/stZeroCallsRevert/ZeroValue_SUICIDE_ToOneStorageKey_OOGRevert_d0g0v0Filler.json",
            "sourceHash" : "5522604b4ed699bd088d1e8132cd5f64af2ebd6f2ae6bfc0a1a6bca13842fe86"
        },
        "blocks" : [
            {
                "blockHeader" : {
                    "bloom" : "0x00000000000000000000000000000000000000000000000000000000000000000000000000000000000000000000000000000000000000000000000000000000000000000000000000000000000000000000000000000000000000000000000000000000000000000000000000000000000000000000000000000000000000000000000000000000000000000000000000000000000000000000000000000000000000000000000000000000000000000000000000000000000000000000000000000000000000000000000000000000000000000000000000000000000000000000000000000000000000000000000000000000000000000000000000000000",
                    "coinbase" : "0x2adc25665018aa1fe0e6bc666dac8fc2697ff9ba",
                    "difficulty" : "0x020000",
                    "extraData" : "",
                    "gasLimit" : "0x989680",
                    "gasUsed" : "0x0124f8",
                    "hash" : "0x0c28363f947e48607dcd387b16931a72afdd56115b6f64324333d57561e28474",
                    "mixHash" : "0x4bf7042665eae683016bfd91a81759b35e4a4d8ed92db30f8f707de5e3ead3a1",
                    "nonce" : "0x6ab25a3f7e3a7f64",
                    "number" : "0x01",
                    "parentHash" : "0xdc3f64c048a7012b0b62a6a60c4a26d9aa37ac15733fa233d6012e7d1aaa0139",
                    "receiptTrie" : "0xfe50760046d5aa36a6589af109751c873777c3f41650b7c7d0c9d4e766194d69",
                    "stateRoot" : "0x1f0fb75fa6c26e54fada2b1663ceb0c97287fc93515a37485caf81c85a0f0f39",
                    "timestamp" : "0x03e8",
                    "transactionsTrie" : "0x9a511166bed6422fb0dac78f4dfe3b6826fdd0e55485b9bf0e1f6893dfa94da3",
                    "uncleHash" : "0x1dcc4de8dec75d7aab85b567b6ccd41ad312451b948a7413f0a142fd40d49347"
                },
                "rlp" : "0xf90260f901f8a0dc3f64c048a7012b0b62a6a60c4a26d9aa37ac15733fa233d6012e7d1aaa0139a01dcc4de8dec75d7aab85b567b6ccd41ad312451b948a7413f0a142fd40d49347942adc25665018aa1fe0e6bc666dac8fc2697ff9baa01f0fb75fa6c26e54fada2b1663ceb0c97287fc93515a37485caf81c85a0f0f39a09a511166bed6422fb0dac78f4dfe3b6826fdd0e55485b9bf0e1f6893dfa94da3a0fe50760046d5aa36a6589af109751c873777c3f41650b7c7d0c9d4e766194d69b9010000000000000000000000000000000000000000000000000000000000000000000000000000000000000000000000000000000000000000000000000000000000000000000000000000000000000000000000000000000000000000000000000000000000000000000000000000000000000000000000000000000000000000000000000000000000000000000000000000000000000000000000000000000000000000000000000000000000000000000000000000000000000000000000000000000000000000000000000000000000000000000000000000000000000000000000000000000000000000000000000000000000000000000000000000000000830200000183989680830124f88203e880a04bf7042665eae683016bfd91a81759b35e4a4d8ed92db30f8f707de5e3ead3a1886ab25a3f7e3a7f64f862f8608001830124f894b94f5374fce5edbc8e2a8697c15331677e6ebf0b80801ba06fab621529b9a7d4acafc1ae9708a15b9a5b19abe1d8fc79a31320725f9a4fafa07a1e4cc8b6cb36926e8d9cdb1245cd8eb77813e1fc63983cd3abd899f88b9f3dc0",
                "transactions" : [
                    {
                        "data" : "",
                        "gasLimit" : "0x0124f8",
                        "gasPrice" : "0x01",
                        "nonce" : "0x00",
                        "r" : "0x6fab621529b9a7d4acafc1ae9708a15b9a5b19abe1d8fc79a31320725f9a4faf",
                        "s" : "0x7a1e4cc8b6cb36926e8d9cdb1245cd8eb77813e1fc63983cd3abd899f88b9f3d",
                        "to" : "0xb94f5374fce5edbc8e2a8697c15331677e6ebf0b",
                        "v" : "0x1b",
                        "value" : "0x00"
                    }
                ],
                "uncleHeaders" : [
                ]
            }
        ],
        "genesisBlockHeader" : {
            "bloom" : "0x00000000000000000000000000000000000000000000000000000000000000000000000000000000000000000000000000000000000000000000000000000000000000000000000000000000000000000000000000000000000000000000000000000000000000000000000000000000000000000000000000000000000000000000000000000000000000000000000000000000000000000000000000000000000000000000000000000000000000000000000000000000000000000000000000000000000000000000000000000000000000000000000000000000000000000000000000000000000000000000000000000000000000000000000000000000",
            "coinbase" : "0x2adc25665018aa1fe0e6bc666dac8fc2697ff9ba",
            "difficulty" : "0x020000",
            "extraData" : "0x42",
            "gasLimit" : "0x989680",
            "gasUsed" : "0x00",
            "hash" : "0xdc3f64c048a7012b0b62a6a60c4a26d9aa37ac15733fa233d6012e7d1aaa0139",
            "mixHash" : "0x56e81f171bcc55a6ff8345e692c0f86e5b48e01b996cadc001622fb5e363b421",
            "nonce" : "0x0102030405060708",
            "number" : "0x00",
            "parentHash" : "0x0000000000000000000000000000000000000000000000000000000000000000",
            "receiptTrie" : "0x56e81f171bcc55a6ff8345e692c0f86e5b48e01b996cadc001622fb5e363b421",
            "stateRoot" : "0x8c7b6312f76093842dc86182264f34c4ad6d3615d535fa4bd79a9b2a48272011",
            "timestamp" : "0x03b6",
            "transactionsTrie" : "0x56e81f171bcc55a6ff8345e692c0f86e5b48e01b996cadc001622fb5e363b421",
            "uncleHash" : "0x1dcc4de8dec75d7aab85b567b6ccd41ad312451b948a7413f0a142fd40d49347"
        },
        "genesisRLP" : "0xf901faf901f5a00000000000000000000000000000000000000000000000000000000000000000a01dcc4de8dec75d7aab85b567b6ccd41ad312451b948a7413f0a142fd40d49347942adc25665018aa1fe0e6bc666dac8fc2697ff9baa08c7b6312f76093842dc86182264f34c4ad6d3615d535fa4bd79a9b2a48272011a056e81f171bcc55a6ff8345e692c0f86e5b48e01b996cadc001622fb5e363b421a056e81f171bcc55a6ff8345e692c0f86e5b48e01b996cadc001622fb5e363b421b9010000000000000000000000000000000000000000000000000000000000000000000000000000000000000000000000000000000000000000000000000000000000000000000000000000000000000000000000000000000000000000000000000000000000000000000000000000000000000000000000000000000000000000000000000000000000000000000000000000000000000000000000000000000000000000000000000000000000000000000000000000000000000000000000000000000000000000000000000000000000000000000000000000000000000000000000000000000000000000000000000000000000000000000000000000000000830200008083989680808203b642a056e81f171bcc55a6ff8345e692c0f86e5b48e01b996cadc001622fb5e363b421880102030405060708c0c0",
        "lastblockhash" : "0x0c28363f947e48607dcd387b16931a72afdd56115b6f64324333d57561e28474",
        "network" : "Frontier",
        "postState" : {
            "0x2adc25665018aa1fe0e6bc666dac8fc2697ff9ba" : {
                "balance" : "0x4563918244f524f8",
                "code" : "",
                "nonce" : "0x00",
                "storage" : {
                }
            },
            "0xa94f5374fce5edbc8e2a8697c15331677e6ebf0b" : {
                "balance" : "0xe8d4a3eb08",
                "code" : "",
                "nonce" : "0x01",
                "storage" : {
                }
            },
            "0xb94f5374fce5edbc8e2a8697c15331677e6ebf0b" : {
                "balance" : "0x00",
                "code" : "0x6000600060006000600073d94f5374fce5edbc8e2a8697c15331677e6ebf0b61c350f150600c600255600c600355600c600455",
                "nonce" : "0x00",
                "storage" : {
                    "0x00" : "0x01"
                }
            },
            "0xc94f5374fce5edbc8e2a8697c15331677e6ebf0b" : {
                "balance" : "0x00",
                "code" : "",
                "nonce" : "0x00",
                "storage" : {
                    "0x00" : "0x01"
                }
            },
            "0xd94f5374fce5edbc8e2a8697c15331677e6ebf0b" : {
                "balance" : "0x00",
                "code" : "0x73c94f5374fce5edbc8e2a8697c15331677e6ebf0bff",
                "nonce" : "0x00",
                "storage" : {
                    "0x00" : "0x01"
                }
            }
        },
        "pre" : {
            "0xa94f5374fce5edbc8e2a8697c15331677e6ebf0b" : {
                "balance" : "0xe8d4a51000",
                "code" : "",
                "nonce" : "0x00",
                "storage" : {
                }
            },
            "0xb94f5374fce5edbc8e2a8697c15331677e6ebf0b" : {
                "balance" : "0x00",
                "code" : "0x6000600060006000600073d94f5374fce5edbc8e2a8697c15331677e6ebf0b61c350f150600c600255600c600355600c600455",
                "nonce" : "0x00",
                "storage" : {
                    "0x00" : "0x01"
                }
            },
            "0xc94f5374fce5edbc8e2a8697c15331677e6ebf0b" : {
                "balance" : "0x00",
                "code" : "",
                "nonce" : "0x00",
                "storage" : {
                    "0x00" : "0x01"
                }
            },
            "0xd94f5374fce5edbc8e2a8697c15331677e6ebf0b" : {
                "balance" : "0x00",
                "code" : "0x73c94f5374fce5edbc8e2a8697c15331677e6ebf0bff",
                "nonce" : "0x00",
                "storage" : {
                    "0x00" : "0x01"
                }
            }
        }
    },
    "ZeroValue_SUICIDE_ToOneStorageKey_OOGRevert_d0g0v0_Homestead" : {
        "_info" : {
            "comment" : "",
            "filledwith" : "cpp-1.3.0+commit.6e0ce939.Linux.g++",
            "lllcversion" : "Version: 0.4.18-develop.2017.9.25+commit.a72237f2.Linux.g++",
            "source" : "src/BlockchainTestsFiller/GeneralStateTests/stZeroCallsRevert/ZeroValue_SUICIDE_ToOneStorageKey_OOGRevert_d0g0v0Filler.json",
            "sourceHash" : "5522604b4ed699bd088d1e8132cd5f64af2ebd6f2ae6bfc0a1a6bca13842fe86"
        },
        "blocks" : [
            {
                "blockHeader" : {
                    "bloom" : "0x00000000000000000000000000000000000000000000000000000000000000000000000000000000000000000000000000000000000000000000000000000000000000000000000000000000000000000000000000000000000000000000000000000000000000000000000000000000000000000000000000000000000000000000000000000000000000000000000000000000000000000000000000000000000000000000000000000000000000000000000000000000000000000000000000000000000000000000000000000000000000000000000000000000000000000000000000000000000000000000000000000000000000000000000000000000",
                    "coinbase" : "0x2adc25665018aa1fe0e6bc666dac8fc2697ff9ba",
                    "difficulty" : "0x020000",
                    "extraData" : "",
                    "gasLimit" : "0x989680",
                    "gasUsed" : "0x0124f8",
                    "hash" : "0xff65d5daafe745ea5847c90653d344b628ba6667a2c8f2b3faafb83e57a3e45b",
                    "mixHash" : "0xb1220c31317ffe5d3ff3da2cbb6cc62506308cb90c3af3fad19ba3d1ae957443",
                    "nonce" : "0xb7c0904ebbe9dde0",
                    "number" : "0x01",
                    "parentHash" : "0xdc3f64c048a7012b0b62a6a60c4a26d9aa37ac15733fa233d6012e7d1aaa0139",
                    "receiptTrie" : "0xfe50760046d5aa36a6589af109751c873777c3f41650b7c7d0c9d4e766194d69",
                    "stateRoot" : "0x1f0fb75fa6c26e54fada2b1663ceb0c97287fc93515a37485caf81c85a0f0f39",
                    "timestamp" : "0x03e8",
                    "transactionsTrie" : "0x9a511166bed6422fb0dac78f4dfe3b6826fdd0e55485b9bf0e1f6893dfa94da3",
                    "uncleHash" : "0x1dcc4de8dec75d7aab85b567b6ccd41ad312451b948a7413f0a142fd40d49347"
                },
                "rlp" : "0xf90260f901f8a0dc3f64c048a7012b0b62a6a60c4a26d9aa37ac15733fa233d6012e7d1aaa0139a01dcc4de8dec75d7aab85b567b6ccd41ad312451b948a7413f0a142fd40d49347942adc25665018aa1fe0e6bc666dac8fc2697ff9baa01f0fb75fa6c26e54fada2b1663ceb0c97287fc93515a37485caf81c85a0f0f39a09a511166bed6422fb0dac78f4dfe3b6826fdd0e55485b9bf0e1f6893dfa94da3a0fe50760046d5aa36a6589af109751c873777c3f41650b7c7d0c9d4e766194d69b9010000000000000000000000000000000000000000000000000000000000000000000000000000000000000000000000000000000000000000000000000000000000000000000000000000000000000000000000000000000000000000000000000000000000000000000000000000000000000000000000000000000000000000000000000000000000000000000000000000000000000000000000000000000000000000000000000000000000000000000000000000000000000000000000000000000000000000000000000000000000000000000000000000000000000000000000000000000000000000000000000000000000000000000000000000000000830200000183989680830124f88203e880a0b1220c31317ffe5d3ff3da2cbb6cc62506308cb90c3af3fad19ba3d1ae95744388b7c0904ebbe9dde0f862f8608001830124f894b94f5374fce5edbc8e2a8697c15331677e6ebf0b80801ba06fab621529b9a7d4acafc1ae9708a15b9a5b19abe1d8fc79a31320725f9a4fafa07a1e4cc8b6cb36926e8d9cdb1245cd8eb77813e1fc63983cd3abd899f88b9f3dc0",
                "transactions" : [
                    {
                        "data" : "",
                        "gasLimit" : "0x0124f8",
                        "gasPrice" : "0x01",
                        "nonce" : "0x00",
                        "r" : "0x6fab621529b9a7d4acafc1ae9708a15b9a5b19abe1d8fc79a31320725f9a4faf",
                        "s" : "0x7a1e4cc8b6cb36926e8d9cdb1245cd8eb77813e1fc63983cd3abd899f88b9f3d",
                        "to" : "0xb94f5374fce5edbc8e2a8697c15331677e6ebf0b",
                        "v" : "0x1b",
                        "value" : "0x00"
                    }
                ],
                "uncleHeaders" : [
                ]
            }
        ],
        "genesisBlockHeader" : {
            "bloom" : "0x00000000000000000000000000000000000000000000000000000000000000000000000000000000000000000000000000000000000000000000000000000000000000000000000000000000000000000000000000000000000000000000000000000000000000000000000000000000000000000000000000000000000000000000000000000000000000000000000000000000000000000000000000000000000000000000000000000000000000000000000000000000000000000000000000000000000000000000000000000000000000000000000000000000000000000000000000000000000000000000000000000000000000000000000000000000",
            "coinbase" : "0x2adc25665018aa1fe0e6bc666dac8fc2697ff9ba",
            "difficulty" : "0x020000",
            "extraData" : "0x42",
            "gasLimit" : "0x989680",
            "gasUsed" : "0x00",
            "hash" : "0xdc3f64c048a7012b0b62a6a60c4a26d9aa37ac15733fa233d6012e7d1aaa0139",
            "mixHash" : "0x56e81f171bcc55a6ff8345e692c0f86e5b48e01b996cadc001622fb5e363b421",
            "nonce" : "0x0102030405060708",
            "number" : "0x00",
            "parentHash" : "0x0000000000000000000000000000000000000000000000000000000000000000",
            "receiptTrie" : "0x56e81f171bcc55a6ff8345e692c0f86e5b48e01b996cadc001622fb5e363b421",
            "stateRoot" : "0x8c7b6312f76093842dc86182264f34c4ad6d3615d535fa4bd79a9b2a48272011",
            "timestamp" : "0x03b6",
            "transactionsTrie" : "0x56e81f171bcc55a6ff8345e692c0f86e5b48e01b996cadc001622fb5e363b421",
            "uncleHash" : "0x1dcc4de8dec75d7aab85b567b6ccd41ad312451b948a7413f0a142fd40d49347"
        },
        "genesisRLP" : "0xf901faf901f5a00000000000000000000000000000000000000000000000000000000000000000a01dcc4de8dec75d7aab85b567b6ccd41ad312451b948a7413f0a142fd40d49347942adc25665018aa1fe0e6bc666dac8fc2697ff9baa08c7b6312f76093842dc86182264f34c4ad6d3615d535fa4bd79a9b2a48272011a056e81f171bcc55a6ff8345e692c0f86e5b48e01b996cadc001622fb5e363b421a056e81f171bcc55a6ff8345e692c0f86e5b48e01b996cadc001622fb5e363b421b9010000000000000000000000000000000000000000000000000000000000000000000000000000000000000000000000000000000000000000000000000000000000000000000000000000000000000000000000000000000000000000000000000000000000000000000000000000000000000000000000000000000000000000000000000000000000000000000000000000000000000000000000000000000000000000000000000000000000000000000000000000000000000000000000000000000000000000000000000000000000000000000000000000000000000000000000000000000000000000000000000000000000000000000000000000000000830200008083989680808203b642a056e81f171bcc55a6ff8345e692c0f86e5b48e01b996cadc001622fb5e363b421880102030405060708c0c0",
        "lastblockhash" : "0xff65d5daafe745ea5847c90653d344b628ba6667a2c8f2b3faafb83e57a3e45b",
        "network" : "Homestead",
        "postState" : {
            "0x2adc25665018aa1fe0e6bc666dac8fc2697ff9ba" : {
                "balance" : "0x4563918244f524f8",
                "code" : "",
                "nonce" : "0x00",
                "storage" : {
                }
            },
            "0xa94f5374fce5edbc8e2a8697c15331677e6ebf0b" : {
                "balance" : "0xe8d4a3eb08",
                "code" : "",
                "nonce" : "0x01",
                "storage" : {
                }
            },
            "0xb94f5374fce5edbc8e2a8697c15331677e6ebf0b" : {
                "balance" : "0x00",
                "code" : "0x6000600060006000600073d94f5374fce5edbc8e2a8697c15331677e6ebf0b61c350f150600c600255600c600355600c600455",
                "nonce" : "0x00",
                "storage" : {
                    "0x00" : "0x01"
                }
            },
            "0xc94f5374fce5edbc8e2a8697c15331677e6ebf0b" : {
                "balance" : "0x00",
                "code" : "",
                "nonce" : "0x00",
                "storage" : {
                    "0x00" : "0x01"
                }
            },
            "0xd94f5374fce5edbc8e2a8697c15331677e6ebf0b" : {
                "balance" : "0x00",
                "code" : "0x73c94f5374fce5edbc8e2a8697c15331677e6ebf0bff",
                "nonce" : "0x00",
                "storage" : {
                    "0x00" : "0x01"
                }
            }
        },
        "pre" : {
            "0xa94f5374fce5edbc8e2a8697c15331677e6ebf0b" : {
                "balance" : "0xe8d4a51000",
                "code" : "",
                "nonce" : "0x00",
                "storage" : {
                }
            },
            "0xb94f5374fce5edbc8e2a8697c15331677e6ebf0b" : {
                "balance" : "0x00",
                "code" : "0x6000600060006000600073d94f5374fce5edbc8e2a8697c15331677e6ebf0b61c350f150600c600255600c600355600c600455",
                "nonce" : "0x00",
                "storage" : {
                    "0x00" : "0x01"
                }
            },
            "0xc94f5374fce5edbc8e2a8697c15331677e6ebf0b" : {
                "balance" : "0x00",
                "code" : "",
                "nonce" : "0x00",
                "storage" : {
                    "0x00" : "0x01"
                }
            },
            "0xd94f5374fce5edbc8e2a8697c15331677e6ebf0b" : {
                "balance" : "0x00",
                "code" : "0x73c94f5374fce5edbc8e2a8697c15331677e6ebf0bff",
                "nonce" : "0x00",
                "storage" : {
                    "0x00" : "0x01"
                }
            }
        }
    }
}