{
    "ZeroValue_CALL_ToEmpty_OOGRevert_d0g0v0_Byzantium" : {
        "_info" : {
            "comment" : "",
            "filledwith" : "cpp-1.3.0+commit.6e0ce939.Linux.g++",
            "lllcversion" : "Version: 0.4.18-develop.2017.9.25+commit.a72237f2.Linux.g++",
            "source" : "src/BlockchainTestsFiller/GeneralStateTests/stZeroCallsRevert/ZeroValue_CALL_ToEmpty_OOGRevert_d0g0v0Filler.json",
            "sourceHash" : "69bcfccbd5f3cf59b076c784cc1394841e386a5cb71abe1ffc0dd9ec57f1d8dd"
        },
        "blocks" : [
            {
                "blockHeader" : {
                    "bloom" : "0x00000000000000000000000000000000000000000000000000000000000000000000000000000000000000000000000000000000000000000000000000000000000000000000000000000000000000000000000000000000000000000000000000000000000000000000000000000000000000000000000000000000000000000000000000000000000000000000000000000000000000000000000000000000000000000000000000000000000000000000000000000000000000000000000000000000000000000000000000000000000000000000000000000000000000000000000000000000000000000000000000000000000000000000000000000000",
                    "coinbase" : "0x2adc25665018aa1fe0e6bc666dac8fc2697ff9ba",
                    "difficulty" : "0x020000",
                    "extraData" : "",
                    "gasLimit" : "0x989680",
                    "gasUsed" : "0x020f58",
                    "hash" : "0xf1a2c3aca48efe6f1e8535bd4b05fc572e5e4680a46edb0acf96036354b5867b",
                    "mixHash" : "0xba44ceb804f70740e57290e7d3acb1540eeaa300975831b2b3341f7726d013f8",
                    "nonce" : "0x92b6a477a7222534",
                    "number" : "0x01",
                    "parentHash" : "0x52988757e9635bd2d33912c3eaafae8e8ef8e0e1bd702d76d5ab9c3d5ad60250",
                    "receiptTrie" : "0x54eeafc8891222b787b9c9bfab7e0d99866447dad965b012fa2e09404455ec9d",
                    "stateRoot" : "0x17f4306b626f4ca95d2cd61f5da13e9e3995e6e9b554c287e72e3123fa46aae5",
                    "timestamp" : "0x03e8",
                    "transactionsTrie" : "0xaa88f8c92f1660ca93f6181e71ae0f3922f03c2634cf8c759793327a523efb40",
                    "uncleHash" : "0x1dcc4de8dec75d7aab85b567b6ccd41ad312451b948a7413f0a142fd40d49347"
                },
                "rlp" : "0xf90260f901f8a052988757e9635bd2d33912c3eaafae8e8ef8e0e1bd702d76d5ab9c3d5ad60250a01dcc4de8dec75d7aab85b567b6ccd41ad312451b948a7413f0a142fd40d49347942adc25665018aa1fe0e6bc666dac8fc2697ff9baa017f4306b626f4ca95d2cd61f5da13e9e3995e6e9b554c287e72e3123fa46aae5a0aa88f8c92f1660ca93f6181e71ae0f3922f03c2634cf8c759793327a523efb40a054eeafc8891222b787b9c9bfab7e0d99866447dad965b012fa2e09404455ec9db901000000000000000000000000000000000000000000000000000000000000000000000000000000000000000000000000000000000000000000000000000000000000000000000000000000000000000000000000000000000000000000000000000000000000000000000000000000000000000000000000000000000000000000000000000000000000000000000000000000000000000000000000000000000000000000000000000000000000000000000000000000000000000000000000000000000000000000000000000000000000000000000000000000000000000000000000000000000000000000000000000000000000000000000000000000000083020000018398968083020f588203e880a0ba44ceb804f70740e57290e7d3acb1540eeaa300975831b2b3341f7726d013f88892b6a477a7222534f862f860800183020f5894b94f5374fce5edbc8e2a8697c15331677e6ebf0b80801ba0a379f1c29785f2dbdf0e550632f4c8ec03817168d8be30fba39d51ddc5ede242a016db8cae0757ac3707f3c6c3e04f7384d33208d7cc2ea7f571965fdc9de023e7c0",
                "transactions" : [
                    {
                        "data" : "",
                        "gasLimit" : "0x020f58",
                        "gasPrice" : "0x01",
                        "nonce" : "0x00",
                        "r" : "0xa379f1c29785f2dbdf0e550632f4c8ec03817168d8be30fba39d51ddc5ede242",
                        "s" : "0x16db8cae0757ac3707f3c6c3e04f7384d33208d7cc2ea7f571965fdc9de023e7",
                        "to" : "0xb94f5374fce5edbc8e2a8697c15331677e6ebf0b",
                        "v" : "0x1b",
                        "value" : "0x00"
                    }
                ],
                "uncleHeaders" : [
                ]
            }
        ],
        "genesisBlockHeader" : {
            "bloom" : "0x00000000000000000000000000000000000000000000000000000000000000000000000000000000000000000000000000000000000000000000000000000000000000000000000000000000000000000000000000000000000000000000000000000000000000000000000000000000000000000000000000000000000000000000000000000000000000000000000000000000000000000000000000000000000000000000000000000000000000000000000000000000000000000000000000000000000000000000000000000000000000000000000000000000000000000000000000000000000000000000000000000000000000000000000000000000",
            "coinbase" : "0x2adc25665018aa1fe0e6bc666dac8fc2697ff9ba",
            "difficulty" : "0x020000",
            "extraData" : "0x42",
            "gasLimit" : "0x989680",
            "gasUsed" : "0x00",
            "hash" : "0x52988757e9635bd2d33912c3eaafae8e8ef8e0e1bd702d76d5ab9c3d5ad60250",
            "mixHash" : "0x56e81f171bcc55a6ff8345e692c0f86e5b48e01b996cadc001622fb5e363b421",
            "nonce" : "0x0102030405060708",
            "number" : "0x00",
            "parentHash" : "0x0000000000000000000000000000000000000000000000000000000000000000",
            "receiptTrie" : "0x56e81f171bcc55a6ff8345e692c0f86e5b48e01b996cadc001622fb5e363b421",
            "stateRoot" : "0xb94802402f43f70db4abff31d7ef75b1b5cb334b93f1dab5f6089729354bd5ad",
            "timestamp" : "0x03b6",
            "transactionsTrie" : "0x56e81f171bcc55a6ff8345e692c0f86e5b48e01b996cadc001622fb5e363b421",
            "uncleHash" : "0x1dcc4de8dec75d7aab85b567b6ccd41ad312451b948a7413f0a142fd40d49347"
        },
        "genesisRLP" : "0xf901faf901f5a00000000000000000000000000000000000000000000000000000000000000000a01dcc4de8dec75d7aab85b567b6ccd41ad312451b948a7413f0a142fd40d49347942adc25665018aa1fe0e6bc666dac8fc2697ff9baa0b94802402f43f70db4abff31d7ef75b1b5cb334b93f1dab5f6089729354bd5ada056e81f171bcc55a6ff8345e692c0f86e5b48e01b996cadc001622fb5e363b421a056e81f171bcc55a6ff8345e692c0f86e5b48e01b996cadc001622fb5e363b421b9010000000000000000000000000000000000000000000000000000000000000000000000000000000000000000000000000000000000000000000000000000000000000000000000000000000000000000000000000000000000000000000000000000000000000000000000000000000000000000000000000000000000000000000000000000000000000000000000000000000000000000000000000000000000000000000000000000000000000000000000000000000000000000000000000000000000000000000000000000000000000000000000000000000000000000000000000000000000000000000000000000000000000000000000000000000000830200008083989680808203b642a056e81f171bcc55a6ff8345e692c0f86e5b48e01b996cadc001622fb5e363b421880102030405060708c0c0",
        "lastblockhash" : "0xf1a2c3aca48efe6f1e8535bd4b05fc572e5e4680a46edb0acf96036354b5867b",
        "network" : "Byzantium",
        "postState" : {
            "0x2adc25665018aa1fe0e6bc666dac8fc2697ff9ba" : {
                "balance" : "0x29a2241af62e0f58",
                "code" : "",
                "nonce" : "0x00",
                "storage" : {
                }
            },
            "0xa94f5374fce5edbc8e2a8697c15331677e6ebf0b" : {
                "balance" : "0xe8d4a300a8",
                "code" : "",
                "nonce" : "0x01",
                "storage" : {
                }
            },
            "0xb94f5374fce5edbc8e2a8697c15331677e6ebf0b" : {
                "balance" : "0x00",
                "code" : "0x5a6000556000600060006000600073c94f5374fce5edbc8e2a8697c15331677e6ebf0b61ea60f1600155600c600255600c600355600c6004555a606455",
                "nonce" : "0x00",
                "storage" : {
                }
            },
            "0xc94f5374fce5edbc8e2a8697c15331677e6ebf0b" : {
                "balance" : "0x00",
                "code" : "",
                "nonce" : "0x00",
                "storage" : {
                }
            }
        },
        "pre" : {
            "0xa94f5374fce5edbc8e2a8697c15331677e6ebf0b" : {
                "balance" : "0xe8d4a51000",
                "code" : "",
                "nonce" : "0x00",
                "storage" : {
                }
            },
            "0xb94f5374fce5edbc8e2a8697c15331677e6ebf0b" : {
                "balance" : "0x00",
                "code" : "0x5a6000556000600060006000600073c94f5374fce5edbc8e2a8697c15331677e6ebf0b61ea60f1600155600c600255600c600355600c6004555a606455",
                "nonce" : "0x00",
                "storage" : {
                }
            },
            "0xc94f5374fce5edbc8e2a8697c15331677e6ebf0b" : {
                "balance" : "0x00",
                "code" : "",
                "nonce" : "0x00",
                "storage" : {
                }
            }
        }
    },
    "ZeroValue_CALL_ToEmpty_OOGRevert_d0g0v0_EIP150" : {
        "_info" : {
            "comment" : "",
            "filledwith" : "cpp-1.3.0+commit.6e0ce939.Linux.g++",
            "lllcversion" : "Version: 0.4.18-develop.2017.9.25+commit.a72237f2.Linux.g++",
            "source" : "src/BlockchainTestsFiller/GeneralStateTests/stZeroCallsRevert/ZeroValue_CALL_ToEmpty_OOGRevert_d0g0v0Filler.json",
            "sourceHash" : "69bcfccbd5f3cf59b076c784cc1394841e386a5cb71abe1ffc0dd9ec57f1d8dd"
        },
        "blocks" : [
            {
                "blockHeader" : {
                    "bloom" : "0x00000000000000000000000000000000000000000000000000000000000000000000000000000000000000000000000000000000000000000000000000000000000000000000000000000000000000000000000000000000000000000000000000000000000000000000000000000000000000000000000000000000000000000000000000000000000000000000000000000000000000000000000000000000000000000000000000000000000000000000000000000000000000000000000000000000000000000000000000000000000000000000000000000000000000000000000000000000000000000000000000000000000000000000000000000000",
                    "coinbase" : "0x2adc25665018aa1fe0e6bc666dac8fc2697ff9ba",
                    "difficulty" : "0x020000",
                    "extraData" : "",
                    "gasLimit" : "0x989680",
                    "gasUsed" : "0x020f58",
                    "hash" : "0xfa07a4af992d3c5268ad25227b21dcff9906539485da5cf32edd8f9581f38286",
                    "mixHash" : "0x499da32bc84eaae5c4584d7a5ebe05dbcac20c2022defe11190634c6b08948fd",
                    "nonce" : "0xc226defa1e70e15a",
                    "number" : "0x01",
                    "parentHash" : "0x52988757e9635bd2d33912c3eaafae8e8ef8e0e1bd702d76d5ab9c3d5ad60250",
                    "receiptTrie" : "0xdbb22b236464f7353b05ed39442fcd48fdedc280c8a5b43e07fe8915bd996096",
                    "stateRoot" : "0x730584665efab7ac455214594d79f95273aaed68b884f7985c2db1137e49ba44",
                    "timestamp" : "0x03e8",
                    "transactionsTrie" : "0xaa88f8c92f1660ca93f6181e71ae0f3922f03c2634cf8c759793327a523efb40",
                    "uncleHash" : "0x1dcc4de8dec75d7aab85b567b6ccd41ad312451b948a7413f0a142fd40d49347"
                },
                "rlp" : "0xf90260f901f8a052988757e9635bd2d33912c3eaafae8e8ef8e0e1bd702d76d5ab9c3d5ad60250a01dcc4de8dec75d7aab85b567b6ccd41ad312451b948a7413f0a142fd40d49347942adc25665018aa1fe0e6bc666dac8fc2697ff9baa0730584665efab7ac455214594d79f95273aaed68b884f7985c2db1137e49ba44a0aa88f8c92f1660ca93f6181e71ae0f3922f03c2634cf8c759793327a523efb40a0dbb22b236464f7353b05ed39442fcd48fdedc280c8a5b43e07fe8915bd996096b901000000000000000000000000000000000000000000000000000000000000000000000000000000000000000000000000000000000000000000000000000000000000000000000000000000000000000000000000000000000000000000000000000000000000000000000000000000000000000000000000000000000000000000000000000000000000000000000000000000000000000000000000000000000000000000000000000000000000000000000000000000000000000000000000000000000000000000000000000000000000000000000000000000000000000000000000000000000000000000000000000000000000000000000000000000000083020000018398968083020f588203e880a0499da32bc84eaae5c4584d7a5ebe05dbcac20c2022defe11190634c6b08948fd88c226defa1e70e15af862f860800183020f5894b94f5374fce5edbc8e2a8697c15331677e6ebf0b80801ba0a379f1c29785f2dbdf0e550632f4c8ec03817168d8be30fba39d51ddc5ede242a016db8cae0757ac3707f3c6c3e04f7384d33208d7cc2ea7f571965fdc9de023e7c0",
                "transactions" : [
                    {
                        "data" : "",
                        "gasLimit" : "0x020f58",
                        "gasPrice" : "0x01",
                        "nonce" : "0x00",
                        "r" : "0xa379f1c29785f2dbdf0e550632f4c8ec03817168d8be30fba39d51ddc5ede242",
                        "s" : "0x16db8cae0757ac3707f3c6c3e04f7384d33208d7cc2ea7f571965fdc9de023e7",
                        "to" : "0xb94f5374fce5edbc8e2a8697c15331677e6ebf0b",
                        "v" : "0x1b",
                        "value" : "0x00"
                    }
                ],
                "uncleHeaders" : [
                ]
            }
        ],
        "genesisBlockHeader" : {
            "bloom" : "0x00000000000000000000000000000000000000000000000000000000000000000000000000000000000000000000000000000000000000000000000000000000000000000000000000000000000000000000000000000000000000000000000000000000000000000000000000000000000000000000000000000000000000000000000000000000000000000000000000000000000000000000000000000000000000000000000000000000000000000000000000000000000000000000000000000000000000000000000000000000000000000000000000000000000000000000000000000000000000000000000000000000000000000000000000000000",
            "coinbase" : "0x2adc25665018aa1fe0e6bc666dac8fc2697ff9ba",
            "difficulty" : "0x020000",
            "extraData" : "0x42",
            "gasLimit" : "0x989680",
            "gasUsed" : "0x00",
            "hash" : "0x52988757e9635bd2d33912c3eaafae8e8ef8e0e1bd702d76d5ab9c3d5ad60250",
            "mixHash" : "0x56e81f171bcc55a6ff8345e692c0f86e5b48e01b996cadc001622fb5e363b421",
            "nonce" : "0x0102030405060708",
            "number" : "0x00",
            "parentHash" : "0x0000000000000000000000000000000000000000000000000000000000000000",
            "receiptTrie" : "0x56e81f171bcc55a6ff8345e692c0f86e5b48e01b996cadc001622fb5e363b421",
            "stateRoot" : "0xb94802402f43f70db4abff31d7ef75b1b5cb334b93f1dab5f6089729354bd5ad",
            "timestamp" : "0x03b6",
            "transactionsTrie" : "0x56e81f171bcc55a6ff8345e692c0f86e5b48e01b996cadc001622fb5e363b421",
            "uncleHash" : "0x1dcc4de8dec75d7aab85b567b6ccd41ad312451b948a7413f0a142fd40d49347"
        },
        "genesisRLP" : "0xf901faf901f5a00000000000000000000000000000000000000000000000000000000000000000a01dcc4de8dec75d7aab85b567b6ccd41ad312451b948a7413f0a142fd40d49347942adc25665018aa1fe0e6bc666dac8fc2697ff9baa0b94802402f43f70db4abff31d7ef75b1b5cb334b93f1dab5f6089729354bd5ada056e81f171bcc55a6ff8345e692c0f86e5b48e01b996cadc001622fb5e363b421a056e81f171bcc55a6ff8345e692c0f86e5b48e01b996cadc001622fb5e363b421b9010000000000000000000000000000000000000000000000000000000000000000000000000000000000000000000000000000000000000000000000000000000000000000000000000000000000000000000000000000000000000000000000000000000000000000000000000000000000000000000000000000000000000000000000000000000000000000000000000000000000000000000000000000000000000000000000000000000000000000000000000000000000000000000000000000000000000000000000000000000000000000000000000000000000000000000000000000000000000000000000000000000000000000000000000000000000830200008083989680808203b642a056e81f171bcc55a6ff8345e692c0f86e5b48e01b996cadc001622fb5e363b421880102030405060708c0c0",
        "lastblockhash" : "0xfa07a4af992d3c5268ad25227b21dcff9906539485da5cf32edd8f9581f38286",
        "network" : "EIP150",
        "postState" : {
            "0x2adc25665018aa1fe0e6bc666dac8fc2697ff9ba" : {
                "balance" : "0x4563918244f60f58",
                "code" : "",
                "nonce" : "0x00",
                "storage" : {
                }
            },
            "0xa94f5374fce5edbc8e2a8697c15331677e6ebf0b" : {
                "balance" : "0xe8d4a300a8",
                "code" : "",
                "nonce" : "0x01",
                "storage" : {
                }
            },
            "0xb94f5374fce5edbc8e2a8697c15331677e6ebf0b" : {
                "balance" : "0x00",
                "code" : "0x5a6000556000600060006000600073c94f5374fce5edbc8e2a8697c15331677e6ebf0b61ea60f1600155600c600255600c600355600c6004555a606455",
                "nonce" : "0x00",
                "storage" : {
                }
            },
            "0xc94f5374fce5edbc8e2a8697c15331677e6ebf0b" : {
                "balance" : "0x00",
                "code" : "",
                "nonce" : "0x00",
                "storage" : {
                }
            }
        },
        "pre" : {
            "0xa94f5374fce5edbc8e2a8697c15331677e6ebf0b" : {
                "balance" : "0xe8d4a51000",
                "code" : "",
                "nonce" : "0x00",
                "storage" : {
                }
            },
            "0xb94f5374fce5edbc8e2a8697c15331677e6ebf0b" : {
                "balance" : "0x00",
                "code" : "0x5a6000556000600060006000600073c94f5374fce5edbc8e2a8697c15331677e6ebf0b61ea60f1600155600c600255600c600355600c6004555a606455",
                "nonce" : "0x00",
                "storage" : {
                }
            },
            "0xc94f5374fce5edbc8e2a8697c15331677e6ebf0b" : {
                "balance" : "0x00",
                "code" : "",
                "nonce" : "0x00",
                "storage" : {
                }
            }
        }
    },
    "ZeroValue_CALL_ToEmpty_OOGRevert_d0g0v0_EIP158" : {
        "_info" : {
            "comment" : "",
            "filledwith" : "cpp-1.3.0+commit.6e0ce939.Linux.g++",
            "lllcversion" : "Version: 0.4.18-develop.2017.9.25+commit.a72237f2.Linux.g++",
            "source" : "src/BlockchainTestsFiller/GeneralStateTests/stZeroCallsRevert/ZeroValue_CALL_ToEmpty_OOGRevert_d0g0v0Filler.json",
            "sourceHash" : "69bcfccbd5f3cf59b076c784cc1394841e386a5cb71abe1ffc0dd9ec57f1d8dd"
        },
        "blocks" : [
            {
                "blockHeader" : {
                    "bloom" : "0x00000000000000000000000000000000000000000000000000000000000000000000000000000000000000000000000000000000000000000000000000000000000000000000000000000000000000000000000000000000000000000000000000000000000000000000000000000000000000000000000000000000000000000000000000000000000000000000000000000000000000000000000000000000000000000000000000000000000000000000000000000000000000000000000000000000000000000000000000000000000000000000000000000000000000000000000000000000000000000000000000000000000000000000000000000000",
                    "coinbase" : "0x2adc25665018aa1fe0e6bc666dac8fc2697ff9ba",
                    "difficulty" : "0x020000",
                    "extraData" : "",
                    "gasLimit" : "0x989680",
                    "gasUsed" : "0x020f58",
                    "hash" : "0x26b4399f77fdd323429eb16f1b781469e445e3f2461be2d0ab6eb80b688187d6",
                    "mixHash" : "0xf96311af2c478ae12592b2c7c7af6a74796a698ae9b574a364dd5d30ebf10bd8",
                    "nonce" : "0xd19a589e7e9f89cb",
                    "number" : "0x01",
                    "parentHash" : "0x52988757e9635bd2d33912c3eaafae8e8ef8e0e1bd702d76d5ab9c3d5ad60250",
                    "receiptTrie" : "0xdbb22b236464f7353b05ed39442fcd48fdedc280c8a5b43e07fe8915bd996096",
                    "stateRoot" : "0x730584665efab7ac455214594d79f95273aaed68b884f7985c2db1137e49ba44",
                    "timestamp" : "0x03e8",
                    "transactionsTrie" : "0xaa88f8c92f1660ca93f6181e71ae0f3922f03c2634cf8c759793327a523efb40",
                    "uncleHash" : "0x1dcc4de8dec75d7aab85b567b6ccd41ad312451b948a7413f0a142fd40d49347"
                },
                "rlp" : "0xf90260f901f8a052988757e9635bd2d33912c3eaafae8e8ef8e0e1bd702d76d5ab9c3d5ad60250a01dcc4de8dec75d7aab85b567b6ccd41ad312451b948a7413f0a142fd40d49347942adc25665018aa1fe0e6bc666dac8fc2697ff9baa0730584665efab7ac455214594d79f95273aaed68b884f7985c2db1137e49ba44a0aa88f8c92f1660ca93f6181e71ae0f3922f03c2634cf8c759793327a523efb40a0dbb22b236464f7353b05ed39442fcd48fdedc280c8a5b43e07fe8915bd996096b901000000000000000000000000000000000000000000000000000000000000000000000000000000000000000000000000000000000000000000000000000000000000000000000000000000000000000000000000000000000000000000000000000000000000000000000000000000000000000000000000000000000000000000000000000000000000000000000000000000000000000000000000000000000000000000000000000000000000000000000000000000000000000000000000000000000000000000000000000000000000000000000000000000000000000000000000000000000000000000000000000000000000000000000000000000000083020000018398968083020f588203e880a0f96311af2c478ae12592b2c7c7af6a74796a698ae9b574a364dd5d30ebf10bd888d19a589e7e9f89cbf862f860800183020f5894b94f5374fce5edbc8e2a8697c15331677e6ebf0b80801ba0a379f1c29785f2dbdf0e550632f4c8ec03817168d8be30fba39d51ddc5ede242a016db8cae0757ac3707f3c6c3e04f7384d33208d7cc2ea7f571965fdc9de023e7c0",
                "transactions" : [
                    {
                        "data" : "",
                        "gasLimit" : "0x020f58",
                        "gasPrice" : "0x01",
                        "nonce" : "0x00",
                        "r" : "0xa379f1c29785f2dbdf0e550632f4c8ec03817168d8be30fba39d51ddc5ede242",
                        "s" : "0x16db8cae0757ac3707f3c6c3e04f7384d33208d7cc2ea7f571965fdc9de023e7",
                        "to" : "0xb94f5374fce5edbc8e2a8697c15331677e6ebf0b",
                        "v" : "0x1b",
                        "value" : "0x00"
                    }
                ],
                "uncleHeaders" : [
                ]
            }
        ],
        "genesisBlockHeader" : {
            "bloom" : "0x00000000000000000000000000000000000000000000000000000000000000000000000000000000000000000000000000000000000000000000000000000000000000000000000000000000000000000000000000000000000000000000000000000000000000000000000000000000000000000000000000000000000000000000000000000000000000000000000000000000000000000000000000000000000000000000000000000000000000000000000000000000000000000000000000000000000000000000000000000000000000000000000000000000000000000000000000000000000000000000000000000000000000000000000000000000",
            "coinbase" : "0x2adc25665018aa1fe0e6bc666dac8fc2697ff9ba",
            "difficulty" : "0x020000",
            "extraData" : "0x42",
            "gasLimit" : "0x989680",
            "gasUsed" : "0x00",
            "hash" : "0x52988757e9635bd2d33912c3eaafae8e8ef8e0e1bd702d76d5ab9c3d5ad60250",
            "mixHash" : "0x56e81f171bcc55a6ff8345e692c0f86e5b48e01b996cadc001622fb5e363b421",
            "nonce" : "0x0102030405060708",
            "number" : "0x00",
            "parentHash" : "0x0000000000000000000000000000000000000000000000000000000000000000",
            "receiptTrie" : "0x56e81f171bcc55a6ff8345e692c0f86e5b48e01b996cadc001622fb5e363b421",
            "stateRoot" : "0xb94802402f43f70db4abff31d7ef75b1b5cb334b93f1dab5f6089729354bd5ad",
            "timestamp" : "0x03b6",
            "transactionsTrie" : "0x56e81f171bcc55a6ff8345e692c0f86e5b48e01b996cadc001622fb5e363b421",
            "uncleHash" : "0x1dcc4de8dec75d7aab85b567b6ccd41ad312451b948a7413f0a142fd40d49347"
        },
        "genesisRLP" : "0xf901faf901f5a00000000000000000000000000000000000000000000000000000000000000000a01dcc4de8dec75d7aab85b567b6ccd41ad312451b948a7413f0a142fd40d49347942adc25665018aa1fe0e6bc666dac8fc2697ff9baa0b94802402f43f70db4abff31d7ef75b1b5cb334b93f1dab5f6089729354bd5ada056e81f171bcc55a6ff8345e692c0f86e5b48e01b996cadc001622fb5e363b421a056e81f171bcc55a6ff8345e692c0f86e5b48e01b996cadc001622fb5e363b421b9010000000000000000000000000000000000000000000000000000000000000000000000000000000000000000000000000000000000000000000000000000000000000000000000000000000000000000000000000000000000000000000000000000000000000000000000000000000000000000000000000000000000000000000000000000000000000000000000000000000000000000000000000000000000000000000000000000000000000000000000000000000000000000000000000000000000000000000000000000000000000000000000000000000000000000000000000000000000000000000000000000000000000000000000000000000000830200008083989680808203b642a056e81f171bcc55a6ff8345e692c0f86e5b48e01b996cadc001622fb5e363b421880102030405060708c0c0",
        "lastblockhash" : "0x26b4399f77fdd323429eb16f1b781469e445e3f2461be2d0ab6eb80b688187d6",
        "network" : "EIP158",
        "postState" : {
            "0x2adc25665018aa1fe0e6bc666dac8fc2697ff9ba" : {
                "balance" : "0x4563918244f60f58",
                "code" : "",
                "nonce" : "0x00",
                "storage" : {
                }
            },
            "0xa94f5374fce5edbc8e2a8697c15331677e6ebf0b" : {
                "balance" : "0xe8d4a300a8",
                "code" : "",
                "nonce" : "0x01",
                "storage" : {
                }
            },
            "0xb94f5374fce5edbc8e2a8697c15331677e6ebf0b" : {
                "balance" : "0x00",
                "code" : "0x5a6000556000600060006000600073c94f5374fce5edbc8e2a8697c15331677e6ebf0b61ea60f1600155600c600255600c600355600c6004555a606455",
                "nonce" : "0x00",
                "storage" : {
                }
            },
            "0xc94f5374fce5edbc8e2a8697c15331677e6ebf0b" : {
                "balance" : "0x00",
                "code" : "",
                "nonce" : "0x00",
                "storage" : {
                }
            }
        },
        "pre" : {
            "0xa94f5374fce5edbc8e2a8697c15331677e6ebf0b" : {
                "balance" : "0xe8d4a51000",
                "code" : "",
                "nonce" : "0x00",
                "storage" : {
                }
            },
            "0xb94f5374fce5edbc8e2a8697c15331677e6ebf0b" : {
                "balance" : "0x00",
                "code" : "0x5a6000556000600060006000600073c94f5374fce5edbc8e2a8697c15331677e6ebf0b61ea60f1600155600c600255600c600355600c6004555a606455",
                "nonce" : "0x00",
                "storage" : {
                }
            },
            "0xc94f5374fce5edbc8e2a8697c15331677e6ebf0b" : {
                "balance" : "0x00",
                "code" : "",
                "nonce" : "0x00",
                "storage" : {
                }
            }
        }
    },
    "ZeroValue_CALL_ToEmpty_OOGRevert_d0g0v0_Frontier" : {
        "_info" : {
            "comment" : "",
            "filledwith" : "cpp-1.3.0+commit.6e0ce939.Linux.g++",
            "lllcversion" : "Version: 0.4.18-develop.2017.9.25+commit.a72237f2.Linux.g++",
            "source" : "src/BlockchainTestsFiller/GeneralStateTests/stZeroCallsRevert/ZeroValue_CALL_ToEmpty_OOGRevert_d0g0v0Filler.json",
            "sourceHash" : "69bcfccbd5f3cf59b076c784cc1394841e386a5cb71abe1ffc0dd9ec57f1d8dd"
        },
        "blocks" : [
            {
                "blockHeader" : {
                    "bloom" : "0x00000000000000000000000000000000000000000000000000000000000000000000000000000000000000000000000000000000000000000000000000000000000000000000000000000000000000000000000000000000000000000000000000000000000000000000000000000000000000000000000000000000000000000000000000000000000000000000000000000000000000000000000000000000000000000000000000000000000000000000000000000000000000000000000000000000000000000000000000000000000000000000000000000000000000000000000000000000000000000000000000000000000000000000000000000000",
                    "coinbase" : "0x2adc25665018aa1fe0e6bc666dac8fc2697ff9ba",
                    "difficulty" : "0x020000",
                    "extraData" : "",
                    "gasLimit" : "0x989680",
                    "gasUsed" : "0x020f58",
                    "hash" : "0x34e86f2baff7dbd6426a29539aa8981fc3c6838baa7092307d415bdac45583f2",
                    "mixHash" : "0x9d6b0a5e537aeea1735d5f7dbeb60b843b5f9936b0eaa272c2f266713db3fc39",
                    "nonce" : "0xd4d93393000c05e9",
                    "number" : "0x01",
                    "parentHash" : "0x52988757e9635bd2d33912c3eaafae8e8ef8e0e1bd702d76d5ab9c3d5ad60250",
                    "receiptTrie" : "0xdbb22b236464f7353b05ed39442fcd48fdedc280c8a5b43e07fe8915bd996096",
                    "stateRoot" : "0x730584665efab7ac455214594d79f95273aaed68b884f7985c2db1137e49ba44",
                    "timestamp" : "0x03e8",
                    "transactionsTrie" : "0xaa88f8c92f1660ca93f6181e71ae0f3922f03c2634cf8c759793327a523efb40",
                    "uncleHash" : "0x1dcc4de8dec75d7aab85b567b6ccd41ad312451b948a7413f0a142fd40d49347"
                },
                "rlp" : "0xf90260f901f8a052988757e9635bd2d33912c3eaafae8e8ef8e0e1bd702d76d5ab9c3d5ad60250a01dcc4de8dec75d7aab85b567b6ccd41ad312451b948a7413f0a142fd40d49347942adc25665018aa1fe0e6bc666dac8fc2697ff9baa0730584665efab7ac455214594d79f95273aaed68b884f7985c2db1137e49ba44a0aa88f8c92f1660ca93f6181e71ae0f3922f03c2634cf8c759793327a523efb40a0dbb22b236464f7353b05ed39442fcd48fdedc280c8a5b43e07fe8915bd996096b901000000000000000000000000000000000000000000000000000000000000000000000000000000000000000000000000000000000000000000000000000000000000000000000000000000000000000000000000000000000000000000000000000000000000000000000000000000000000000000000000000000000000000000000000000000000000000000000000000000000000000000000000000000000000000000000000000000000000000000000000000000000000000000000000000000000000000000000000000000000000000000000000000000000000000000000000000000000000000000000000000000000000000000000000000000000083020000018398968083020f588203e880a09d6b0a5e537aeea1735d5f7dbeb60b843b5f9936b0eaa272c2f266713db3fc3988d4d93393000c05e9f862f860800183020f5894b94f5374fce5edbc8e2a8697c15331677e6ebf0b80801ba0a379f1c29785f2dbdf0e550632f4c8ec03817168d8be30fba39d51ddc5ede242a016db8cae0757ac3707f3c6c3e04f7384d33208d7cc2ea7f571965fdc9de023e7c0",
                "transactions" : [
                    {
                        "data" : "",
                        "gasLimit" : "0x020f58",
                        "gasPrice" : "0x01",
                        "nonce" : "0x00",
                        "r" : "0xa379f1c29785f2dbdf0e550632f4c8ec03817168d8be30fba39d51ddc5ede242",
                        "s" : "0x16db8cae0757ac3707f3c6c3e04f7384d33208d7cc2ea7f571965fdc9de023e7",
                        "to" : "0xb94f5374fce5edbc8e2a8697c15331677e6ebf0b",
                        "v" : "0x1b",
                        "value" : "0x00"
                    }
                ],
                "uncleHeaders" : [
                ]
            }
        ],
        "genesisBlockHeader" : {
            "bloom" : "0x00000000000000000000000000000000000000000000000000000000000000000000000000000000000000000000000000000000000000000000000000000000000000000000000000000000000000000000000000000000000000000000000000000000000000000000000000000000000000000000000000000000000000000000000000000000000000000000000000000000000000000000000000000000000000000000000000000000000000000000000000000000000000000000000000000000000000000000000000000000000000000000000000000000000000000000000000000000000000000000000000000000000000000000000000000000",
            "coinbase" : "0x2adc25665018aa1fe0e6bc666dac8fc2697ff9ba",
            "difficulty" : "0x020000",
            "extraData" : "0x42",
            "gasLimit" : "0x989680",
            "gasUsed" : "0x00",
            "hash" : "0x52988757e9635bd2d33912c3eaafae8e8ef8e0e1bd702d76d5ab9c3d5ad60250",
            "mixHash" : "0x56e81f171bcc55a6ff8345e692c0f86e5b48e01b996cadc001622fb5e363b421",
            "nonce" : "0x0102030405060708",
            "number" : "0x00",
            "parentHash" : "0x0000000000000000000000000000000000000000000000000000000000000000",
            "receiptTrie" : "0x56e81f171bcc55a6ff8345e692c0f86e5b48e01b996cadc001622fb5e363b421",
            "stateRoot" : "0xb94802402f43f70db4abff31d7ef75b1b5cb334b93f1dab5f6089729354bd5ad",
            "timestamp" : "0x03b6",
            "transactionsTrie" : "0x56e81f171bcc55a6ff8345e692c0f86e5b48e01b996cadc001622fb5e363b421",
            "uncleHash" : "0x1dcc4de8dec75d7aab85b567b6ccd41ad312451b948a7413f0a142fd40d49347"
        },
        "genesisRLP" : "0xf901faf901f5a00000000000000000000000000000000000000000000000000000000000000000a01dcc4de8dec75d7aab85b567b6ccd41ad312451b948a7413f0a142fd40d49347942adc25665018aa1fe0e6bc666dac8fc2697ff9baa0b94802402f43f70db4abff31d7ef75b1b5cb334b93f1dab5f6089729354bd5ada056e81f171bcc55a6ff8345e692c0f86e5b48e01b996cadc001622fb5e363b421a056e81f171bcc55a6ff8345e692c0f86e5b48e01b996cadc001622fb5e363b421b9010000000000000000000000000000000000000000000000000000000000000000000000000000000000000000000000000000000000000000000000000000000000000000000000000000000000000000000000000000000000000000000000000000000000000000000000000000000000000000000000000000000000000000000000000000000000000000000000000000000000000000000000000000000000000000000000000000000000000000000000000000000000000000000000000000000000000000000000000000000000000000000000000000000000000000000000000000000000000000000000000000000000000000000000000000000000830200008083989680808203b642a056e81f171bcc55a6ff8345e692c0f86e5b48e01b996cadc001622fb5e363b421880102030405060708c0c0",
        "lastblockhash" : "0x34e86f2baff7dbd6426a29539aa8981fc3c6838baa7092307d415bdac45583f2",
        "network" : "Frontier",
        "postState" : {
            "0x2adc25665018aa1fe0e6bc666dac8fc2697ff9ba" : {
                "balance" : "0x4563918244f60f58",
                "code" : "",
                "nonce" : "0x00",
                "storage" : {
                }
            },
            "0xa94f5374fce5edbc8e2a8697c15331677e6ebf0b" : {
                "balance" : "0xe8d4a300a8",
                "code" : "",
                "nonce" : "0x01",
                "storage" : {
                }
            },
            "0xb94f5374fce5edbc8e2a8697c15331677e6ebf0b" : {
                "balance" : "0x00",
                "code" : "0x5a6000556000600060006000600073c94f5374fce5edbc8e2a8697c15331677e6ebf0b61ea60f1600155600c600255600c600355600c6004555a606455",
                "nonce" : "0x00",
                "storage" : {
                }
            },
            "0xc94f5374fce5edbc8e2a8697c15331677e6ebf0b" : {
                "balance" : "0x00",
                "code" : "",
                "nonce" : "0x00",
                "storage" : {
                }
            }
        },
        "pre" : {
            "0xa94f5374fce5edbc8e2a8697c15331677e6ebf0b" : {
                "balance" : "0xe8d4a51000",
                "code" : "",
                "nonce" : "0x00",
                "storage" : {
                }
            },
            "0xb94f5374fce5edbc8e2a8697c15331677e6ebf0b" : {
                "balance" : "0x00",
                "code" : "0x5a6000556000600060006000600073c94f5374fce5edbc8e2a8697c15331677e6ebf0b61ea60f1600155600c600255600c600355600c6004555a606455",
                "nonce" : "0x00",
                "storage" : {
                }
            },
            "0xc94f5374fce5edbc8e2a8697c15331677e6ebf0b" : {
                "balance" : "0x00",
                "code" : "",
                "nonce" : "0x00",
                "storage" : {
                }
            }
        }
    },
    "ZeroValue_CALL_ToEmpty_OOGRevert_d0g0v0_Homestead" : {
        "_info" : {
            "comment" : "",
            "filledwith" : "cpp-1.3.0+commit.6e0ce939.Linux.g++",
            "lllcversion" : "Version: 0.4.18-develop.2017.9.25+commit.a72237f2.Linux.g++",
            "source" : "src/BlockchainTestsFiller/GeneralStateTests/stZeroCallsRevert/ZeroValue_CALL_ToEmpty_OOGRevert_d0g0v0Filler.json",
            "sourceHash" : "69bcfccbd5f3cf59b076c784cc1394841e386a5cb71abe1ffc0dd9ec57f1d8dd"
        },
        "blocks" : [
            {
                "blockHeader" : {
                    "bloom" : "0x00000000000000000000000000000000000000000000000000000000000000000000000000000000000000000000000000000000000000000000000000000000000000000000000000000000000000000000000000000000000000000000000000000000000000000000000000000000000000000000000000000000000000000000000000000000000000000000000000000000000000000000000000000000000000000000000000000000000000000000000000000000000000000000000000000000000000000000000000000000000000000000000000000000000000000000000000000000000000000000000000000000000000000000000000000000",
                    "coinbase" : "0x2adc25665018aa1fe0e6bc666dac8fc2697ff9ba",
                    "difficulty" : "0x020000",
                    "extraData" : "",
                    "gasLimit" : "0x989680",
                    "gasUsed" : "0x020f58",
                    "hash" : "0x3fa53ecd42b75e23bf4d4b0bb113655267f9d400151f0fa9100805480b5808c1",
                    "mixHash" : "0x6cd0ad49c23b03df77bdbb62be57c250cc77b82fce4db61aceb8a646caf187d0",
                    "nonce" : "0x52355dc506a17a74",
                    "number" : "0x01",
                    "parentHash" : "0x52988757e9635bd2d33912c3eaafae8e8ef8e0e1bd702d76d5ab9c3d5ad60250",
                    "receiptTrie" : "0xdbb22b236464f7353b05ed39442fcd48fdedc280c8a5b43e07fe8915bd996096",
                    "stateRoot" : "0x730584665efab7ac455214594d79f95273aaed68b884f7985c2db1137e49ba44",
                    "timestamp" : "0x03e8",
                    "transactionsTrie" : "0xaa88f8c92f1660ca93f6181e71ae0f3922f03c2634cf8c759793327a523efb40",
                    "uncleHash" : "0x1dcc4de8dec75d7aab85b567b6ccd41ad312451b948a7413f0a142fd40d49347"
                },
                "rlp" : "0xf90260f901f8a052988757e9635bd2d33912c3eaafae8e8ef8e0e1bd702d76d5ab9c3d5ad60250a01dcc4de8dec75d7aab85b567b6ccd41ad312451b948a7413f0a142fd40d49347942adc25665018aa1fe0e6bc666dac8fc2697ff9baa0730584665efab7ac455214594d79f95273aaed68b884f7985c2db1137e49ba44a0aa88f8c92f1660ca93f6181e71ae0f3922f03c2634cf8c759793327a523efb40a0dbb22b236464f7353b05ed39442fcd48fdedc280c8a5b43e07fe8915bd996096b901000000000000000000000000000000000000000000000000000000000000000000000000000000000000000000000000000000000000000000000000000000000000000000000000000000000000000000000000000000000000000000000000000000000000000000000000000000000000000000000000000000000000000000000000000000000000000000000000000000000000000000000000000000000000000000000000000000000000000000000000000000000000000000000000000000000000000000000000000000000000000000000000000000000000000000000000000000000000000000000000000000000000000000000000000000000083020000018398968083020f588203e880a06cd0ad49c23b03df77bdbb62be57c250cc77b82fce4db61aceb8a646caf187d08852355dc506a17a74f862f860800183020f5894b94f5374fce5edbc8e2a8697c15331677e6ebf0b80801ba0a379f1c29785f2dbdf0e550632f4c8ec03817168d8be30fba39d51ddc5ede242a016db8cae0757ac3707f3c6c3e04f7384d33208d7cc2ea7f571965fdc9de023e7c0",
                "transactions" : [
                    {
                        "data" : "",
                        "gasLimit" : "0x020f58",
                        "gasPrice" : "0x01",
                        "nonce" : "0x00",
                        "r" : "0xa379f1c29785f2dbdf0e550632f4c8ec03817168d8be30fba39d51ddc5ede242",
                        "s" : "0x16db8cae0757ac3707f3c6c3e04f7384d33208d7cc2ea7f571965fdc9de023e7",
                        "to" : "0xb94f5374fce5edbc8e2a8697c15331677e6ebf0b",
                        "v" : "0x1b",
                        "value" : "0x00"
                    }
                ],
                "uncleHeaders" : [
                ]
            }
        ],
        "genesisBlockHeader" : {
            "bloom" : "0x00000000000000000000000000000000000000000000000000000000000000000000000000000000000000000000000000000000000000000000000000000000000000000000000000000000000000000000000000000000000000000000000000000000000000000000000000000000000000000000000000000000000000000000000000000000000000000000000000000000000000000000000000000000000000000000000000000000000000000000000000000000000000000000000000000000000000000000000000000000000000000000000000000000000000000000000000000000000000000000000000000000000000000000000000000000",
            "coinbase" : "0x2adc25665018aa1fe0e6bc666dac8fc2697ff9ba",
            "difficulty" : "0x020000",
            "extraData" : "0x42",
            "gasLimit" : "0x989680",
            "gasUsed" : "0x00",
            "hash" : "0x52988757e9635bd2d33912c3eaafae8e8ef8e0e1bd702d76d5ab9c3d5ad60250",
            "mixHash" : "0x56e81f171bcc55a6ff8345e692c0f86e5b48e01b996cadc001622fb5e363b421",
            "nonce" : "0x0102030405060708",
            "number" : "0x00",
            "parentHash" : "0x0000000000000000000000000000000000000000000000000000000000000000",
            "receiptTrie" : "0x56e81f171bcc55a6ff8345e692c0f86e5b48e01b996cadc001622fb5e363b421",
            "stateRoot" : "0xb94802402f43f70db4abff31d7ef75b1b5cb334b93f1dab5f6089729354bd5ad",
            "timestamp" : "0x03b6",
            "transactionsTrie" : "0x56e81f171bcc55a6ff8345e692c0f86e5b48e01b996cadc001622fb5e363b421",
            "uncleHash" : "0x1dcc4de8dec75d7aab85b567b6ccd41ad312451b948a7413f0a142fd40d49347"
        },
        "genesisRLP" : "0xf901faf901f5a00000000000000000000000000000000000000000000000000000000000000000a01dcc4de8dec75d7aab85b567b6ccd41ad312451b948a7413f0a142fd40d49347942adc25665018aa1fe0e6bc666dac8fc2697ff9baa0b94802402f43f70db4abff31d7ef75b1b5cb334b93f1dab5f6089729354bd5ada056e81f171bcc55a6ff8345e692c0f86e5b48e01b996cadc001622fb5e363b421a056e81f171bcc55a6ff8345e692c0f86e5b48e01b996cadc001622fb5e363b421b9010000000000000000000000000000000000000000000000000000000000000000000000000000000000000000000000000000000000000000000000000000000000000000000000000000000000000000000000000000000000000000000000000000000000000000000000000000000000000000000000000000000000000000000000000000000000000000000000000000000000000000000000000000000000000000000000000000000000000000000000000000000000000000000000000000000000000000000000000000000000000000000000000000000000000000000000000000000000000000000000000000000000000000000000000000000000830200008083989680808203b642a056e81f171bcc55a6ff8345e692c0f86e5b48e01b996cadc001622fb5e363b421880102030405060708c0c0",
        "lastblockhash" : "0x3fa53ecd42b75e23bf4d4b0bb113655267f9d400151f0fa9100805480b5808c1",
        "network" : "Homestead",
        "postState" : {
            "0x2adc25665018aa1fe0e6bc666dac8fc2697ff9ba" : {
                "balance" : "0x4563918244f60f58",
                "code" : "",
                "nonce" : "0x00",
                "storage" : {
                }
            },
            "0xa94f5374fce5edbc8e2a8697c15331677e6ebf0b" : {
                "balance" : "0xe8d4a300a8",
                "code" : "",
                "nonce" : "0x01",
                "storage" : {
                }
            },
            "0xb94f5374fce5edbc8e2a8697c15331677e6ebf0b" : {
                "balance" : "0x00",
                "code" : "0x5a6000556000600060006000600073c94f5374fce5edbc8e2a8697c15331677e6ebf0b61ea60f1600155600c600255600c600355600c6004555a606455",
                "nonce" : "0x00",
                "storage" : {
                }
            },
            "0xc94f5374fce5edbc8e2a8697c15331677e6ebf0b" : {
                "balance" : "0x00",
                "code" : "",
                "nonce" : "0x00",
                "storage" : {
                }
            }
        },
        "pre" : {
            "0xa94f5374fce5edbc8e2a8697c15331677e6ebf0b" : {
                "balance" : "0xe8d4a51000",
                "code" : "",
                "nonce" : "0x00",
                "storage" : {
                }
            },
            "0xb94f5374fce5edbc8e2a8697c15331677e6ebf0b" : {
                "balance" : "0x00",
                "code" : "0x5a6000556000600060006000600073c94f5374fce5edbc8e2a8697c15331677e6ebf0b61ea60f1600155600c600255600c600355600c6004555a606455",
                "nonce" : "0x00",
                "storage" : {
                }
            },
            "0xc94f5374fce5edbc8e2a8697c15331677e6ebf0b" : {
                "balance" : "0x00",
                "code" : "",
                "nonce" : "0x00",
                "storage" : {
                }
            }
        }
    }
}