{
  "genesis": {
    "difficulty": "45372803248884",
    "extraData": "0x65746865726d696e652e6f7267202855533129",
    "gasLimit": "4712388",
    "hash": "0xa2b18cc64ec062676680f2bb2d880205dcd372f4396722f2294d3fceece96193",
    "miner": "0xea674fdde714fd979de3edf0f56aa9716b898ec8",
    "mixHash": "0xce7c26a9238b249edcdcd51f0ea1ad0e632e872daf9a09f039d918bcaeb7194f",
    "nonce": "0x849d49e634e93bb5",
    "number": "1646451",
    "stateRoot": "0x2bd193b9911caf43204960cc7661ce864bf0bac7f9b60191aa02bbff24f061fb",
    "timestamp": "1465103859",
    "totalDifficulty": "24813742796574158431",
    "alloc": {
      "0x01115b41bd2731353dd3e6abf44818fdc035aaf1": {
        "balance": "0x16d99e16e809000",
        "nonce": "23"
      },
      "0x61c808d82a3ac53231750dadc13c777b59310bd9": {
        "balance": "0x6a636960e34bd696f4",
        "nonce": "36888"
      },
      "0xbb9bc244d798123fde783fcc1c72d3bb8c189413": {
        "balance": "0x9b37460cdbcba74181f81",
        "code": "0x6060604052361561020e5760e060020a6000350463013cf08b8114610247578063095ea7b3146102d05780630c3b7b96146103455780630e7082031461034e578063149acf9a1461036057806318160ddd146103725780631f2dc5ef1461037b57806321b5b8dd1461039b578063237e9492146103ad57806323b872dd1461040e5780632632bf2014610441578063341458081461047257806339d1f9081461047b5780634b6753bc146104935780634df6d6cc1461049c5780634e10c3ee146104b7578063590e1ae3146104ca578063612e45a3146104db578063643f7cdd1461057a578063674ed066146105925780636837ff1e1461059b57806370a08231146105e5578063749f98891461060b57806378524b2e1461062457806381f03fcb1461067e57806382661dc41461069657806382bf6464146106b75780638b15a605146106c95780638d7af473146106d257806396d7f3f5146106e1578063a1da2fb9146106ea578063a3912ec814610704578063a9059cbb1461070f578063b7bc2c841461073f578063baac53001461074b578063be7c29c1146107b1578063c9d27afe14610817578063cc9ae3f61461082d578063cdef91d014610841578063dbde198814610859578063dd62ed3e1461087e578063e33734fd146108b2578063e5962195146108c6578063e66f53b7146108de578063eceb2945146108f0578063f8c80d261461094f575b610966600f546000906234bc000142108015610239575060125433600160a060020a03908116911614155b156109785761098033610752565b6109866004356000805482908110156100025750808052600e8202600080516020612a3683398151915201905060038101546004820154600683015460018401548454600786015460058701546009880154600a890154600d8a0154600160a060020a039586169b509599600201989760ff81811698610100909204811697949691951693168c565b61096660043560243533600160a060020a03908116600081815260156020908152604080832094871680845294825280832086905580518681529051929493927f8c5be1e5ebec7d5bd14f71427d1e84f3dd0314c0f7b2291e5b200ac8c7c3b925929181900390910190a35060015b92915050565b61096660105481565b610a7d600754600160a060020a031681565b610a7d600e54600160a060020a031681565b61096660165481565b6109665b60004262127500600f60005054031115610de557506014610983565b610a7d601254600160a060020a031681565b60408051602060248035600481810135601f810185900485028601850190965285855261096695813595919460449492939092019181908401838280828437509496505050505050506000600060006000600060003411156116a857610002565b6109666004356024356044355b60115460009060ff1680156104315750600f5442115b80156124e957506124e78461044b565b6109666000610980335b600160a060020a0381166000908152600b602052604081205481908114156129cb57610b99565b61096660065481565b6109665b600d5430600160a060020a03163103610983565b610966600f5481565b61096660043560046020526000908152604090205460ff1681565b61096660043560243560006124cb610831565b610a9a6000341115610ba457610002565b604080516020604435600481810135601f8101849004840285018401909552848452610966948135946024803595939460649492939101918190840183828082843750506040805160209735808a0135601f81018a90048a0283018a01909352828252969897608497919650602491909101945090925082915084018382808284375094965050933593505060a435915050600060006110c1336105ec565b61096660043560096020526000908152604090205481565b61096660015481565b610a9a60043530600160a060020a031633600160a060020a03161415806105db5750600160a060020a03811660009081526004602052604090205460ff16155b156121cb576121c8565b6109666004355b600160a060020a0381166000908152601460205260409020545b919050565b6109666004356024356000600034111561259957610002565b610966600062e6b680420360026000505410806106505750600354600160a060020a0390811633909116145b80156106645750600254621274ff19420190105b156126145750426002908155600180549091028155610983565b610966600435600a6020526000908152604090205481565b610966600435602435600060006000600060006000341115611ba157610002565b610a7d600854600160a060020a031681565b610966600c5481565b61096660005460001901610983565b61096660025481565b61096660043560006000600060003411156121fc57610002565b6109665b6001610983565b6109666004356024355b60115460009060ff16801561072f5750600f5442115b801561248757506124853361044b565b61096660115460ff1681565b6109666004355b60006000600f600050544210801561076a5750600034115b80156107a457506011546101009004600160a060020a0316600014806107a457506011546101009004600160a060020a0390811633909116145b15610b9f57610a9c61037f565b610a7d600435600060006000508281548110156100025750508080527f290decd9548b62a8d60345a988386fc84ba6bc95484008f6362f93160ef3e56b600e83020180548290811015610002575081526020902060030154600160a060020a0316610606565b61096660043560243560006000610e1b336105ec565b6109665b6000600034111561247c57610002565b61096660043560056020526000908152604090205481565b610966600435602435604435600061252f845b6000600060003411156127ac57610002565b610966600435602435600160a060020a0382811660009081526015602090815260408083209385168352929052205461033f565b610a9a600435600034111561254557610002565b610966600435600b6020526000908152604090205481565b610a7d600354600160a060020a031681565b604080516020606435600481810135601f81018490048402850184019095528484526109669481359460248035956044359560849492019190819084018382808284375094965050505050505060006000600034111561103257610002565b610a7d6011546101009004600160a060020a031681565b60408051918252519081900360200190f35b610980610708565b90505b90565b604051808d600160a060020a031681526020018c8152602001806020018b81526020018a815260200189815260200188815260200187815260200186815260200185815260200184815260200183600160a060020a0316815260200182810382528c818154600181600116156101000203166002900481526020019150805460018160011615610100020316600290048015610a635780601f10610a3857610100808354040283529160200191610a63565b820191906000526020600020905b815481529060010190602001808311610a4657829003601f168201915b50509d505050505050505050505050505060405180910390f35b60408051600160a060020a03929092168252519081900360200190f35b005b604051601254601434908102939093049350600160a060020a03169183900390600081818185876185025a03f150505050600160a060020a038316600081815260146020908152604080832080548601905560168054860190556013825291829020805434019055815184815291517fdbccb92686efceafb9bb7e0394df7f58f71b954061b81afb57109bf247d3d75a9281900390910190a260105460165410801590610b4c575060115460ff16155b15610b94576011805460ff1916600117905560165460408051918252517ff381a3e2428fdda36615919e8d9c35878d9eb0cf85ac6edf575088e80e4c147e9181900360200190a15b600191505b50919050565b610002565b600f5442118015610bb8575060115460ff16155b15610de357601260009054906101000a9004600160a060020a0316600160a060020a031663d2cc718f6040518160e060020a0281526004018090506020604051808303816000876161da5a03f1156100025750506040516012549051600160a060020a039190911631109050610cc9576040805160125460e060020a63d2cc718f0282529151600160a060020a039290921691630221038a913091849163d2cc718f91600482810192602092919082900301816000876161da5a03f11561000257505060408051805160e160020a63011081c5028252600160a060020a039490941660048201526024810193909352516044838101936020935082900301816000876161da5a03f115610002575050505b33600160a060020a0316600081815260136020526040808220549051909181818185876185025a03f19250505015610de35733600160a060020a03167fbb28353e4598c3b9199101a66e0989549b659a59a54d2c27fbb183f1932c8e6d6013600050600033600160a060020a03168152602001908152602001600020600050546040518082815260200191505060405180910390a26014600050600033600160a060020a0316815260200190815260200160002060005054601660008282825054039250508190555060006014600050600033600160a060020a031681526020019081526020016000206000508190555060006013600050600033600160a060020a03168152602001908152602001600020600050819055505b565b4262054600600f60005054031115610e13576201518062127500600f60005054034203046014019050610983565b50601e610983565b60001415610e2857610002565b6000341115610e3657610002565b6000805485908110156100025750600160a060020a03331681527f290decd9548b62a8d60345a988386fc84ba6bc95484008f6362f93160ef3e56e600e8602908101602052604090912054600080516020612a3683398151915291909101915060ff1680610eb05750600c810160205260406000205460ff165b80610ebf575060038101544210155b15610ec957610002565b8215610f0f5733600160a060020a03166000908152601460209081526040808320546009850180549091019055600b84019091529020805460ff19166001179055610f4b565b33600160a060020a0316600090815260146020908152604080832054600a850180549091019055600c84019091529020805460ff191660011790555b33600160a060020a03166000908152600b60205260408120541415610f77576040600020849055610feb565b33600160a060020a03166000908152600b60205260408120548154811015610002579080527f290decd9548b62a8d60345a988386fc84ba6bc95484008f6362f93160ef3e566600e909102015460038201541115610feb5733600160a060020a03166000908152600b602052604090208490555b60408051848152905133600160a060020a03169186917f86abfce99b7dd908bec0169288797f85049ec73cbe046ed9de818fab3a497ae09181900360200190a35092915050565b6000805487908110156100025750808052600e8702600080516020612a3683398151915201905090508484846040518084600160a060020a0316606060020a0281526014018381526020018280519060200190808383829060006004602084601f0104600f02600301f15090500193505050506040518091039020816005016000505414915050949350505050565b600014156110ce57610002565b82801561111857508660001415806110e857508451600014155b806111005750600354600160a060020a038981169116145b8061110b5750600034115b80611118575062093a8084105b1561112257610002565b8215801561114257506111348861115c565b158061114257506212750084105b156111fe57610002565b83546118e590600160a060020a03165b600160a060020a03811660009081526004602052604081205460ff16806111f15750601254600160a060020a039081169083161480156111f15750601260009054906101000a9004600160a060020a0316600160a060020a031663d2cc718f6040518160e060020a0281526004018090506020604051808303816000876161da5a03f115610002575050604051516006541190505b156129a157506001610606565b6249d40084111561120e57610002565b60115460ff1615806112215750600f5442105b806112365750600c5434108015611236575082155b1561124057610002565b42844201101561124f57610002565b30600160a060020a031633600160a060020a0316141561126e57610002565b60008054600181018083559091908280158290116112a557600e0281600e0283600052602060002091820191016112a5919061136a565b505060008054929450918491508110156100025750808052600e8302600080516020612a368339815191520190508054600160a060020a031916891781556001818101899055875160028084018054600082815260209081902096975091959481161561010002600019011691909104601f908101829004840193918b019083901061146257805160ff19168380011785555b5061149292915061144a565b5050600060098201819055600a820155600d81018054600160a060020a03191690556001015b8082111561145e578054600160a060020a03191681556000600182810182905560028084018054848255909281161561010002600019011604601f81901061143057505b506000600383018190556004808401805461ffff19169055600584018290556006840182905560078401805460ff191690556008840180548382559083526020909220611344929091028101905b8082111561145e57600080825560018201818155600283019190915560039091018054600160a060020a03191690556113fc565b601f0160209004906000526020600020908101906113ae91905b8082111561145e576000815560010161144a565b5090565b82800160010185558215611338579182015b82811115611338578251826000505591602001919060010190611474565b50508787866040518084600160a060020a0316606060020a0281526014018381526020018280519060200190808383829060006004602084601f0104600f02600301f150905001935050505060405180910390208160050160005081905550834201816003016000508190555060018160040160006101000a81548160ff02191690830217905550828160070160006101000a81548160ff02191690830217905550821561157857600881018054600181018083559091908280158290116115735760040281600402836000526020600020918201910161157391906113fc565b505050505b600d8082018054600160a060020a031916331790553460068301819055815401905560408051600160a060020a038a16815260208181018a9052918101859052608060608201818152895191830191909152885185937f5790de2c279e58269b93b12828f56fd5f2bc8ad15e61ce08572585c81a38756f938d938d938a938e93929160a084019185810191908190849082908590600090600490601f850104600f02600301f150905090810190601f1680156116485780820380516001836020036101000a031916815260200191505b509550505050505060405180910390a2509695505050505050565b6040805186815260208101839052815189927fdfc78bdca8e3e0b18c16c5c99323c6cb9eb5e00afde190b4e7273f5158702b07928290030190a25b5050505092915050565b6000805488908110156100025750808052600e8802600080516020612a36833981519152019050600781015490945060ff166116e757620d2f006116ec565b622398805b600485015490935060ff16801561170857506003840154830142115b15611716576117b887611890565b600384015442108061172d5750600484015460ff16155b806117ae57508360000160009054906101000a9004600160a060020a03168460010160005054876040518084600160a060020a0316606060020a0281526014018381526020018280519060200190808383829060006004602084601f0104600f02600301f15090500193505050506040518091039020846005016000505414155b1561114c57610002565b61169e565b60048401805461ff001916610100179055835460019550600160a060020a03908116309091161480159061180157508354600754600160a060020a03908116911614155b801561181d57506008548454600160a060020a03908116911614155b801561183957508354601254600160a060020a03908116911614155b801561185557506003548454600160a060020a03908116911614155b1561188b5760018401805430600160a060020a031660009081526005602052604090208054919091019055546006805490910190555b611663875b6000600060005082815481101561000257908052600e02600080516020612a36833981519152018150600481015490915060ff16156118d757600d80546006830154900390555b600401805460ff1916905550565b15156118f45761190087611890565b6001915061193161047f565b604051600d8501546006860154600160a060020a0391909116916000919082818181858883f193505050505061169e565b6001850154111561194157600091505b50600a8301546009840154865191019060049010801590611986575085600081518110156100025790602001015160f860020a900460f860020a02606860f860020a02145b80156119b6575085600181518110156100025790602001015160f860020a900460f860020a02603760f860020a02145b80156119e6575085600281518110156100025790602001015160f860020a900460f860020a0260ff60f860020a02145b8015611a16575085600381518110156100025790602001015160f860020a900460f860020a02601e60f860020a02145b8015611a45575030600160a060020a0316600090815260056020526040902054611a4290611a5d61047f565b81105b15611a4f57600091505b6001840154611a8090611a5f565b015b30600160a060020a03166000908152600560205260408120546129a961047f565b8110611ad457604051600d8501546006860154600160a060020a0391909116916000919082818181858883f193505050501515611abc57610002565b4260025560165460059004811115611ad45760056001555b6001840154611ae290611a5f565b8110158015611af85750600a8401546009850154115b8015611b015750815b1561188b578360000160009054906101000a9004600160a060020a0316600160a060020a0316846001016000505487604051808280519060200190808383829060006004602084601f0104600f02600301f150905090810190601f168015611b7d5780820380516001836020036101000a031916815260200191505b5091505060006040518083038185876185025a03f19250505015156117bd57610002565b611baa336105ec565b60001415611bb757610002565b60008054889081101561000257508052600e87027f290decd9548b62a8d60345a988386fc84ba6bc95484008f6362f93160ef3e566810154600080516020612a36833981519152919091019450421080611c1957506003840154622398800142115b80611c3257508354600160a060020a0390811690871614155b80611c425750600784015460ff16155b80611c68575033600160a060020a03166000908152600b8501602052604090205460ff16155b80611c9c575033600160a060020a03166000908152600b60205260409020548714801590611c9c5750604060009081205414155b15611ca657610002565b600884018054600090811015610002579081526020812060030154600160a060020a03161415611e1257611efc86604051600090600160a060020a038316907f9046fefd66f538ab35263248a44217dcb70e2eb2cd136629e141b8b8f9f03b60908390a260408051600e547fe2faf044000000000000000000000000000000000000000000000000000000008252600160a060020a03858116600484015260248301859052604483018590526223988042016064840152925192169163e2faf04491608480820192602092909190829003018187876161da5a03f1156100025750506040515191506106069050565b6008850180546000908110156100025781815260208082209390935530600160a060020a031681526005909252604082205481549092908110156100025790815260208120905060020155601654600885018054600090811015610002579081526020812090506001015560048401805461ff0019166101001790555b6008840180546000908110156100025781548282526020822060010154929190811015610002579081526020812090505433600160a060020a031660009081526014602052604081205460088801805493909102939093049550908110156100025790815260208120905060030154604080517fbaac530000000000000000000000000000000000000000000000000000000000815233600160a060020a0390811660048301529151929091169163baac53009186916024808301926020929190829003018185886185025a03f11561000257505060405151600014159150611f78905057610002565b60088501805460009081101561000257818152602081206003018054600160a060020a03191690931790925580549091908110156100025790815260208120905060030154600160a060020a031660001415611f5757610002565b600d5430600160a060020a0316311015611f7057610002565b611d9561047f565b6008840180546000908110156100025781548282526020822060010154929190811015610002579081526020812090506002015433600160a060020a0390811660009081526014602090815260408083205430909416835260058083528184205460099093529083205460088b018054969095029690960497509487020494508593929091908290811015610002575260208120815060030154600160a060020a0390811682526020828101939093526040918201600090812080549095019094553016835260059091529020548290101561205357610002565b30600160a060020a031660009081526005602052604081208054849003905560088501805483926009929091829081101561000257508152602080822060030154600160a060020a039081168352929052604080822080549094019093553090911681522054819010156120c657610002565b30600160a060020a0390811660009081526009602090815260408083208054869003905533909316808352601482528383205484519081529351929390927fddf252ad1be2c89b69c2b068fc378daa952ba7f163c4a11628f55a4df523b3ef929181900390910190a36121383361086c565b5033600160a060020a03166000908152601460209081526040808320805460168054919091039055839055600a9091528120556001945061169e565b30600160a060020a0390811660008181526005602090815260408083208054958716808552828520805490970190965584845283905560099091528082208054948352908220805490940190935590815290555b50565b604051600160a060020a0382811691309091163190600081818185876185025a03f192505050151561217457610002565b33600160a060020a03818116600090815260096020908152604080832054815160065460085460e060020a63d2cc718f028352935197995091969195929092169363d2cc718f936004848101949193929183900301908290876161da5a03f11561000257505050604051805190602001506005600050600033600160a060020a03168152602001908152602001600020600050540204101561229d57610002565b600160a060020a03338116600090815260096020908152604080832054815160065460085460e060020a63d2cc718f02835293519296909593169363d2cc718f93600483810194929383900301908290876161da5a03f11561000257505050604051805190602001506005600050600033600160a060020a0316815260200190815260200160002060005054020403905083156123ec57600860009054906101000a9004600160a060020a0316600160a060020a0316630221038a83600160a060020a0316630e7082036040518160e060020a0281526004018090506020604051808303816000876161da5a03f11561000257505060408051805160e160020a63011081c5028252600160a060020a031660048201526024810186905290516044808301935060209282900301816000876161da5a03f115610002575050604051511515905061245457610002565b6040805160085460e160020a63011081c5028252600160a060020a038581166004840152602483018590529251921691630221038a9160448082019260209290919082900301816000876161da5a03f115610002575050604051511515905061245457610002565b600160a060020a03331660009081526009602052604090208054909101905550600192915050565b6109803361086c565b155b80156124a257506124a23384845b6000600061293a856105ec565b80156124be57506124be83836000600034111561261c57610002565b15610b9f5750600161033f565b15156124d657610002565b6124e08383610719565b905061033f565b155b80156124fb57506124fb848484612495565b80156125185750612518848484600060003411156126c157610002565b15610b9f57506001612528565b90505b9392505050565b151561253a57610002565b61252584848461041b565b30600160a060020a031633600160a060020a031614158061258a575030600160a060020a031660009081526005602052604090205460649061258561047f565b010481115b1561259457610002565b600c55565b600354600160a060020a0390811633909116146125b557610002565b600160a060020a038316600081815260046020908152604091829020805460ff191686179055815185815291517f73ad2a153c8b67991df9459024950b318a609782cee8c7eeda47b905f9baa91f9281900390910190a250600161033f565b506000610983565b33600160a060020a03166000908152601460205260409020548290108015906126455750600082115b156126b957600160a060020a03338116600081815260146020908152604080832080548890039055938716808352918490208054870190558351868152935191937fddf252ad1be2c89b69c2b068fc378daa952ba7f163c4a11628f55a4df523b3ef929081900390910190a350600161033f565b50600061033f565b600160a060020a03841660009081526014602052604090205482901080159061270a5750601560209081526040600081812033600160a060020a03168252909252902054829010155b80156127165750600082115b156127a457600160a060020a03838116600081815260146020908152604080832080548801905588851680845281842080548990039055601583528184203390961684529482529182902080548790039055815186815291519293927fddf252ad1be2c89b69c2b068fc378daa952ba7f163c4a11628f55a4df523b3ef9281900390910190a3506001612528565b506000612528565b600160a060020a038381166000908152600a6020908152604080832054601654600754835160e060020a63d2cc718f02815293519296919591169363d2cc718f9360048181019492939183900301908290876161da5a03f11561000257505060405151905061281a866105ec565b0204101561282757610002565b600160a060020a038381166000908152600a6020908152604080832054601654600754835160e060020a63d2cc718f02815293519296919591169363d2cc718f9360048181019492939183900301908290876161da5a03f115610002575050604051519050612895866105ec565b0204039050600760009054906101000a9004600160a060020a0316600160a060020a0316630221038a84836040518360e060020a0281526004018083600160a060020a03168152602001828152602001925050506020604051808303816000876161da5a03f115610002575050604051511515905061291357610002565b600160a060020a0383166000908152600a6020526040902080548201905560019150610b99565b600160a060020a0386166000908152600a602052604090205480850291909104915081111561296857610002565b600160a060020a038581166000908152600a60205260408082208054859003905591861681522080548201905560019150509392505050565b506000610606565b0160030260166000505483020460016000505460166000505404019050610606565b600160a060020a0383166000908152600b6020526040812054815481101561000257818052600e02600080516020612a368339815191520190506003810154909150421115610b9457600160a060020a0383166000908152600b602052604081208190559150610b9956290decd9548b62a8d60345a988386fc84ba6bc95484008f6362f93160ef3e563",
        "nonce": "3",
        "storage": {
          "0x000000000000000000000000000000000000000000000000000000000000000f": "0x0000000000000000000000000000000000000000000000000000000057495e10",
          "0x0000000000000000000000000000000000000000000000000000000000000012": "0x000000000000000000000000807640a13483f8ac783c557fcdf27be11ea4ac7a"
        }
      },
      "0xcf1476387d780169410d4e936d75a206fda2a68c": {
        "balance": "0x15fd0ad66ea7000",
        "code": "0x606060405236156100b95760e060020a6000350463173825d9811461010b5780632f54bf6e1461015f5780634123cb6b146101875780635c52c2f5146101905780637065cb48146101ba578063746c9171146101e7578063797af627146101f0578063b20d30a914610203578063b61d27f614610230578063b75c7dc614610251578063ba51a6df14610280578063c2cf7326146102ad578063cbf0b0c0146102eb578063f00d4b5d14610318578063f1736d861461034a575b61035460003411156101095760408051600160a060020a033316815234602082015281517fe1fffcc4923d04b559f4d29a8bfc6cda04eb5b0d3c460751c2402c5c5cc9109c929181900390910190a15b565b610354600435600060003660405180838380828437820191505092505050604051809103902061064a815b600160a060020a03331660009081526101026020526040812054818082811415610c6657610dbf565b6103566004355b600160a060020a03811660009081526101026020526040812054115b919050565b61035660015481565b61035460003660405180838380828437820191505092505050604051809103902061078b81610136565b6103546004356000366040518083838082843782019150509250505060405180910390206105c681610136565b61035660005481565b6103566004355b600081610a2781610136565b61035460043560003660405180838380828437820191505092505050604051809103902061077f81610136565b6103566004803590602480359160443591820191013560006107aa33610166565b610354600435600160a060020a03331660009081526101026020526040812054908082811415610368576103e7565b61035460043560003660405180838380828437820191505092505050604051809103902061070881610136565b610356600435602435600082815261010360209081526040808320600160a060020a0385168452610102909252822054828181141561076157610776565b61035460043560003660405180838380828437820191505092505050604051809103902061079981610136565b610354600435602435600060003660405180838380828437820191505092505050604051809103902061047281610136565b6103566101055481565b005b60408051918252519081900360200190f35b50506000828152610103602052604081206001810154600284900a9290831611156103e75780546001828101805492909101835590839003905560408051600160a060020a03331681526020810186905281517fc7fb647e59b18047309aa15aad418e5d7ca96d173ad704f1031a2c3d7591734b929181900390910190a15b50505050565b600160a060020a03831660028361010081101561000257508301819055600160a060020a03851660008181526101026020908152604080832083905584835291829020869055815192835282019290925281517fb532073b38c83145e3e5135377a08bf9aab55bc0fd7c1179cd4fb995d2a5159c929181900390910190a1505b505050565b156103e75761048083610166565b1561048b575061046d565b600160a060020a0384166000908152610102602052604081205492508214156104b4575061046d565b6103ed5b6101045460005b81811015610f0b57610104805461010891600091849081101561000257600080516020610fd88339815191520154825250602091909152604081208054600160a060020a0319168155600181810183905560028281018054858255939493909281161561010002600019011604601f819010610f9057505b5050506001016104bf565b60018054810190819055600160a060020a038316906002906101008110156100025790900160005055600154600160a060020a03831660008181526101026020908152604091829020939093558051918252517f994a936646fe87ffe4f1e469d3d6aa417d6b855598397f323de5b449f765f0c3929181900390910190a15b505b50565b156105c1576105d482610166565b156105df57506105c3565b6105e76104b8565b60015460fa90106105fa576105fa61060f565b60015460fa901061054257506105c3565b6106c75b60015b6001548110156105c3575b6001548110801561063d5750600281610100811015610002570154600014155b15610dc75760010161061d565b1561046d57600160a060020a03831660009081526101026020526040812054925082141561067857506105c1565b600160016000505403600060005054111561069357506105c1565b600060028361010081101561000257508301819055600160a060020a0384168152610102602052604081205561060b6104b8565b60408051600160a060020a038516815290517f58619076adf5bb0943d100ef88d52d7c3fd691b19d3a9071b555b651fbf418da9181900360200190a1505050565b156105c15760015482111561071d57506105c3565b600082905561072a6104b8565b6040805183815290517facbdb084c721332ac59f9b8e392196c9eb0e4932862da8eb9beaf0dad4f550da9181900360200190a15050565b506001820154600282900a9081166000141593505b50505092915050565b156105c1575061010555565b156105c35760006101065550565b156105c15781600160a060020a0316ff5b156109eb576107be846000610ea133610166565b1561087d577f92ca3a80853e6663fa31fa10b99225f18d4902939b4c53a9caae9043f6efd00433858786866040518086600160a060020a0316815260200185815260200184600160a060020a031681526020018060200182810382528484828181526020019250808284378201915050965050505050505060405180910390a184600160a060020a03168484846040518083838082843782019150509250505060006040518083038185876185025a03f150600093506109eb92505050565b6000364360405180848480828437820191505082815260200193505050506040518091039020905080506108b0816101f7565b1580156108d3575060008181526101086020526040812054600160a060020a0316145b156109eb5760008181526101086020908152604082208054600160a060020a0319168817815560018181018890556002918201805481865294849020909491821615610100026000190190911691909104601f9081019290920481019185919087908390106109f35760ff198135168380011785555b506109659291505b80821115610a235760008155600101610951565b50507f1733cbb53659d713b79580f79f3f9ff215f78a7c7aa45890f3b89fc5cddfbf328133868887876040518087815260200186600160a060020a0316815260200185815260200184600160a060020a03168152602001806020018281038252848482818152602001925080828437820191505097505050505050505060405180910390a15b949350505050565b82800160010185558215610949579182015b82811115610949578235826000505591602001919060010190610a05565b5090565b15610aaa5760008381526101086020526040812054600160a060020a031614610aaa5760408051600091909120805460018281015460029384018054600160a060020a0394909416959194909391928392859291811615610100026000190116048015610adb5780601f10610ab057610100808354040283529160200191610adb565b50919050565b820191906000526020600020905b815481529060010190602001808311610abe57829003601f168201915b505091505060006040518083038185876185025a03f1505050600084815261010860209081526040918290208054600180830154855133600160a060020a0381811683529682018c9052968101829052929094166060830181905260a06080840181815260029586018054948516156101000260001901909416959095049084018190527fe7c957c06e9a662c1a6c77366179f5b702b97651dc28eee7d5bf1dff6e40bb4a97508a95949193919060c083019084908015610bdd5780601f10610bb257610100808354040283529160200191610bdd565b820191906000526020600020905b815481529060010190602001808311610bc057829003601f168201915b5050965050505050505060405180910390a16000838152610108602052604081208054600160a060020a0319168155600181810183905560028281018054858255939493909281161561010002600019011604601f819010610c4857505b5050506001915050610182565b601f016020900490600052602060002090810190610c3b9190610951565b60008581526101036020526040812080549093501415610cee576000805483556001838101919091556101048054918201808255828015829011610cbd57818360005260206000209182019101610cbd9190610951565b50505060028301819055610104805487929081101561000257600091909152600080516020610fd883398151915201555b506001810154600283900a90811660001415610dbf5760408051600160a060020a03331681526020810187905281517fe1c52dc63b719ade82e8bea94cc41a0d5d28e4aaf536adb5e9cccc9ff8c1aeda929181900390910190a1815460019011610dac576000858152610103602052604090206002015461010480549091908110156100025760406000908120600080516020610fd8833981519152929092018190558082556001828101829055600292909201559450610dbf9050565b8154600019018255600182018054821790555b505050919050565b5b60018054118015610dea57506001546002906101008110156100025701546000145b15610dfe5760018054600019019055610dc8565b60015481108015610e215750600154600290610100811015610002570154600014155b8015610e3b57506002816101008110156100025701546000145b15610e9c57600154600290610100811015610002578101549082610100811015610002579090016000505580610102600060028361010081101561000257810154825260209290925260408120929092556001546101008110156100025701555b610612565b156101825761010754610eb75b62015180420490565b1115610ed057600061010655610ecb610eae565b610107555b6101065480830110801590610eed57506101055461010654830111155b15610f0357506101068054820190556001610182565b506000610182565b6105c16101045460005b81811015610fae5761010480548290811015610002576000918252600080516020610fd8833981519152015414610f8857610104805461010391600091849081101561000257600080516020610fd883398151915201548252506020919091526040812081815560018101829055600201555b600101610f15565b601f0160209004906000526020600020908101906105379190610951565b610104805460008083559190915261046d90600080516020610fd883398151915290810190610951564c0be60200faa20559308cb7b5a1bb3255c16cb1cab91f525b5ae7a03d02fabe",
        "storage": {
          "0x0000000000000000000000000000000000000000000000000000000000000105": "0x0000000000000000000000000000000000000000000000000000000000000000",
          "0x0000000000000000000000000000000000000000000000000000000000000106": "0x0000000000000000000000000000000000000000000000000000000000000000",
          "0x0000000000000000000000000000000000000000000000000000000000000107": "0x000000000000000000000000000000000000000000000000000000000000423d",
          "0xcabd288dcb1ace4f49c34e8ac2d843772952b4226b3c832bdb4ac1ddca0f7c05": "0x0000000000000000000000000000000000000000000000000000000000000002"
        }
      }
    },
    "config": {
      "chainId": 1,
      "homesteadBlock": 1150000,
      "daoForkBlock": 1920000,
      "daoForkSupport": true,
      "eip150Block": 2463000,
      "eip150Hash": "0x2086799aeebeae135c246c65021c82b4e15a2c451340993aacfd2751886514f0",
      "eip155Block": 2675000,
      "eip158Block": 2675000,
      "byzantiumBlock": 4370000,
      "constantinopleBlock": 7280000,
      "petersburgBlock": 7280000,
      "istanbulBlock": 9069000,
      "muirGlacierBlock": 9200000,
      "berlinBlock": 12244000,
      "londonBlock": 12965000,
      "arrowGlacierBlock": 13773000,
      "grayGlacierBlock": 15050000,
      "terminalTotalDifficultyPassed": true,
      "ethash": {}
    }
  },
  "context": {
    "number": "1646452",
    "difficulty": "45328493887096",
    "timestamp": "1465103894",
    "gasLimit": "4712388",
    "miner": "0x61c808d82a3ac53231750dadc13c777b59310bd9"
  },
  "input": "0xf9018b178504a817c80083030d4094cf1476387d780169410d4e936d75a206fda2a68c80b90124b61d27f6000000000000000000000000bb9bc244d798123fde783fcc1c72d3bb8c189413000000000000000000000000000000000000000000000000000000000000000000000000000000000000000000000000000000000000000000000000000000600000000000000000000000000000000000000000000000000000000000000088613930353963626230303030303030303030303030303030303030303030303039306433633138313264653236363962663830376264373735386365623165333439376163376534303030303030303030303030303030303030303030303030303030303030303030303030303030303030303030303030303030316336626635323633343030300000000000000000000000000000000000000000000000001ca0f1ae5ea07b1d00eb5e06fc854124ee0234ec61c8b393147f9d030804a75c98daa01d045d7633012cca74e30e975c3d00d11b4243dd8648f2e78d652f3a8aaafceb",
  "tracerConfig": {
    "withLog": true
  },
  "result": {
    "from": "0x01115b41bd2731353dd3e6abf44818fdc035aaf1",
    "gas": "0x30d40",
    "gasUsed": "0x288c9",
    "to": "0xcf1476387d780169410d4e936d75a206fda2a68c",
    "input": "0xb61d27f6000000000000000000000000bb9bc244d798123fde783fcc1c72d3bb8c18941300000000000000000000000000000000000000000000000000000000000000000000000000000000000000000000000000000000000000000000000000000060000000000000000000000000000000000000000000000000000000000000008861393035396362623030303030303030303030303030303030303030303030303930643363313831326465323636396266383037626437373538636562316533343937616337653430303030303030303030303030303030303030303030303030303030303030303030303030303030303030303030303030303031633662663532363334303030000000000000000000000000000000000000000000000000",
    "output": "0x0000000000000000000000000000000000000000000000000000000000000000",
    "calls": [
      {
        "from": "0xcf1476387d780169410d4e936d75a206fda2a68c",
        "gas": "0x1e30b",
        "gasUsed": "0x1e30b",
        "to": "0xbb9bc244d798123fde783fcc1c72d3bb8c189413",
        "input": "0x61393035396362623030303030303030303030303030303030303030303030303930643363313831326465323636396266383037626437373538636562316533343937616337653430303030303030303030303030303030303030303030303030303030303030303030303030303030303030303030303030303031633662663532363334303030",
        "error": "invalid jump destination",
        "value": "0x0",
        "type": "CALL"
      }
    ],
    "logs": [
      {
        "address": "0xcf1476387d780169410d4e936d75a206fda2a68c",
        "topics": [
          "0x92ca3a80853e6663fa31fa10b99225f18d4902939b4c53a9caae9043f6efd004"
        ],
        "data": "0x00000000000000000000000001115b41bd2731353dd3e6abf44818fdc035aaf10000000000000000000000000000000000000000000000000000000000000000000000000000000000000000bb9bc244d798123fde783fcc1c72d3bb8c1894130000000000000000000000000000000000000000000000000000000000000080000000000000000000000000000000000000000000000000000000000000008861393035396362623030303030303030303030303030303030303030303030303930643363313831326465323636396266383037626437373538636562316533343937616337653430303030303030303030303030303030303030303030303030303030303030303030303030303030303030303030303030303031633662663532363334303030",
        "position": "0x0"
      }
    ],
    "value": "0x0",
    "type": "CALL"
  }
}
