{
    "log1_nonEmptyMem_logMemSize1_d0g0v0_Byzantium" : {
        "_info" : {
            "comment" : "",
            "filledwith" : "cpp-1.3.0+commit.6e0ce939.Linux.g++",
            "lllcversion" : "Version: 0.4.18-develop.2017.9.25+commit.a72237f2.Linux.g++",
            "source" : "src/BlockchainTestsFiller/GeneralStateTests/stLogTests/log1_nonEmptyMem_logMemSize1_d0g0v0Filler.json",
            "sourceHash" : "1e0a01b746e6b52384f64df27e0e62206d885287804071df6159d696e59abe3f"
        },
        "blocks" : [
            {
                "blockHeader" : {
                    "bloom" : "0x00000000000000000000000000000000000000000000000000000000000000000000000000000000000000000000000000000000000000000000000000000000000000000000000000000000000000000000000000000000000008800000000000000000020000000000000000000800000000000000000000000000000000000000000000000000000000000000000000000000000000000000000000000000000000000000000000000000000000000000000000000000000000000000000000000000000000000000800000000000000000000000000000000000000020000000000000000000000000000000000000000000000000000000000000000000",
                    "coinbase" : "0x2adc25665018aa1fe0e6bc666dac8fc2697ff9ba",
                    "difficulty" : "0x020000",
                    "extraData" : "",
                    "gasLimit" : "0x0f4240",
                    "gasUsed" : "0xc033",
                    "hash" : "0x646b925aa0991a410d29ad3f0740557965d6fdad6103ea72ec05a5afb00f5c69",
                    "mixHash" : "0x7bbe9c88f2a04a7fac5aec43516c1504db5775f7c9f73adcd45eeaf717abf154",
                    "nonce" : "0xbeb82d8c5dfd3cb6",
                    "number" : "0x01",
                    "parentHash" : "0xa6e84a7c916e6bc2eb24c7b7746d421db827d7d44a18864cef3ca3d74ba8563f",
                    "receiptTrie" : "0xda8e02ff0f912466db29b95c36bca9d9e75bb9d33bdaaa0f6a413cd6bfd24d66",
                    "stateRoot" : "0x3bcad25ccba23e852f877fbb17652168e5913618ccf9d81400d68fd54f2a9ded",
                    "timestamp" : "0x03e8",
                    "transactionsTrie" : "0x466f1520dd2fb37a6abe5419439e4bc5fd5146708535d1984cde813519a28e61",
                    "uncleHash" : "0x1dcc4de8dec75d7aab85b567b6ccd41ad312451b948a7413f0a142fd40d49347"
                },
                "rlp" : "0xf90262f901f7a0a6e84a7c916e6bc2eb24c7b7746d421db827d7d44a18864cef3ca3d74ba8563fa01dcc4de8dec75d7aab85b567b6ccd41ad312451b948a7413f0a142fd40d49347942adc25665018aa1fe0e6bc666dac8fc2697ff9baa03bcad25ccba23e852f877fbb17652168e5913618ccf9d81400d68fd54f2a9deda0466f1520dd2fb37a6abe5419439e4bc5fd5146708535d1984cde813519a28e61a0da8e02ff0f912466db29b95c36bca9d9e75bb9d33bdaaa0f6a413cd6bfd24d66b90100000000000000000000000000000000000000000000000000000000000000000000000000000000000000000000000000000000000000000000000000000000000000000000000000000000000000000000000000000000000000088000000000000000000200000000000000000008000000000000000000000000000000000000000000000000000000000000000000000000000000000000000000000000000000000000000000000000000000000000000000000000000000000000000000000000000000000000008000000000000000000000000000000000000000200000000000000000000000000000000000000000000000000000000000000000008302000001830f424082c0338203e880a07bbe9c88f2a04a7fac5aec43516c1504db5775f7c9f73adcd45eeaf717abf15488beb82d8c5dfd3cb6f865f86380018303345094095e7baea6a6c7c4c2dfeb977efac326af552d87830186a0801ba09bae3efe7d9d16200582021c8f7c93c143c3fb1dd6be8a83213f3a5f1ad03926a0177d82a90f883a19de8c6d62ce79c753ae4ea076de047ca19a017879a1ce8bc1c0",
                "transactions" : [
                    {
                        "data" : "",
                        "gasLimit" : "0x033450",
                        "gasPrice" : "0x01",
                        "nonce" : "0x00",
                        "r" : "0x9bae3efe7d9d16200582021c8f7c93c143c3fb1dd6be8a83213f3a5f1ad03926",
                        "s" : "0x177d82a90f883a19de8c6d62ce79c753ae4ea076de047ca19a017879a1ce8bc1",
                        "to" : "0x095e7baea6a6c7c4c2dfeb977efac326af552d87",
                        "v" : "0x1b",
                        "value" : "0x0186a0"
                    }
                ],
                "uncleHeaders" : [
                ]
            }
        ],
        "genesisBlockHeader" : {
            "bloom" : "0x00000000000000000000000000000000000000000000000000000000000000000000000000000000000000000000000000000000000000000000000000000000000000000000000000000000000000000000000000000000000000000000000000000000000000000000000000000000000000000000000000000000000000000000000000000000000000000000000000000000000000000000000000000000000000000000000000000000000000000000000000000000000000000000000000000000000000000000000000000000000000000000000000000000000000000000000000000000000000000000000000000000000000000000000000000000",
            "coinbase" : "0x2adc25665018aa1fe0e6bc666dac8fc2697ff9ba",
            "difficulty" : "0x020000",
            "extraData" : "0x42",
            "gasLimit" : "0x0f4240",
            "gasUsed" : "0x00",
            "hash" : "0xa6e84a7c916e6bc2eb24c7b7746d421db827d7d44a18864cef3ca3d74ba8563f",
            "mixHash" : "0x56e81f171bcc55a6ff8345e692c0f86e5b48e01b996cadc001622fb5e363b421",
            "nonce" : "0x0102030405060708",
            "number" : "0x00",
            "parentHash" : "0x0000000000000000000000000000000000000000000000000000000000000000",
            "receiptTrie" : "0x56e81f171bcc55a6ff8345e692c0f86e5b48e01b996cadc001622fb5e363b421",
            "stateRoot" : "0xc761dd72b2eb8a286ebd70d9f7e8d6bb7aa8aa5c717db479cca2349a8dbe0df7",
            "timestamp" : "0x03b6",
            "transactionsTrie" : "0x56e81f171bcc55a6ff8345e692c0f86e5b48e01b996cadc001622fb5e363b421",
            "uncleHash" : "0x1dcc4de8dec75d7aab85b567b6ccd41ad312451b948a7413f0a142fd40d49347"
        },
        "genesisRLP" : "0xf901faf901f5a00000000000000000000000000000000000000000000000000000000000000000a01dcc4de8dec75d7aab85b567b6ccd41ad312451b948a7413f0a142fd40d49347942adc25665018aa1fe0e6bc666dac8fc2697ff9baa0c761dd72b2eb8a286ebd70d9f7e8d6bb7aa8aa5c717db479cca2349a8dbe0df7a056e81f171bcc55a6ff8345e692c0f86e5b48e01b996cadc001622fb5e363b421a056e81f171bcc55a6ff8345e692c0f86e5b48e01b996cadc001622fb5e363b421b90100000000000000000000000000000000000000000000000000000000000000000000000000000000000000000000000000000000000000000000000000000000000000000000000000000000000000000000000000000000000000000000000000000000000000000000000000000000000000000000000000000000000000000000000000000000000000000000000000000000000000000000000000000000000000000000000000000000000000000000000000000000000000000000000000000000000000000000000000000000000000000000000000000000000000000000000000000000000000000000000000000000000000000000000000000000008302000080830f4240808203b642a056e81f171bcc55a6ff8345e692c0f86e5b48e01b996cadc001622fb5e363b421880102030405060708c0c0",
        "lastblockhash" : "0x646b925aa0991a410d29ad3f0740557965d6fdad6103ea72ec05a5afb00f5c69",
        "network" : "Byzantium",
        "postState" : {
            "0x095e7baea6a6c7c4c2dfeb977efac326af552d87" : {
                "balance" : "0x0de0b6b3a7658689",
                "code" : "0x60006000600060006017730f572e5295c57f15886f9b263e2f6d2d6c7b5ec66103e8f1600055",
                "nonce" : "0x00",
                "storage" : {
                    "0x00" : "0x01"
                }
            },
            "0x0f572e5295c57f15886f9b263e2f6d2d6c7b5ec6" : {
                "balance" : "0x0de0b6b3a7640017",
                "code" : "0x7faabbffffffffffffffffffffffffffffffffffffffffffffffffffffffffccdd600052600060016000a1",
                "nonce" : "0x00",
                "storage" : {
                }
            },
            "0x2adc25665018aa1fe0e6bc666dac8fc2697ff9ba" : {
                "balance" : "0x29a2241af62cc033",
                "code" : "",
                "nonce" : "0x00",
                "storage" : {
                }
            },
            "0xa94f5374fce5edbc8e2a8697c15331677e6ebf0b" : {
                "balance" : "0x0de0b6b3a761b92d",
                "code" : "",
                "nonce" : "0x01",
                "storage" : {
                }
            }
        },
        "pre" : {
            "0x095e7baea6a6c7c4c2dfeb977efac326af552d87" : {
                "balance" : "0x0de0b6b3a7640000",
                "code" : "0x60006000600060006017730f572e5295c57f15886f9b263e2f6d2d6c7b5ec66103e8f1600055",
                "nonce" : "0x00",
                "storage" : {
                }
            },
            "0x0f572e5295c57f15886f9b263e2f6d2d6c7b5ec6" : {
                "balance" : "0x0de0b6b3a7640000",
                "code" : "0x7faabbffffffffffffffffffffffffffffffffffffffffffffffffffffffffccdd600052600060016000a1",
                "nonce" : "0x00",
                "storage" : {
                }
            },
            "0xa94f5374fce5edbc8e2a8697c15331677e6ebf0b" : {
                "balance" : "0x0de0b6b3a7640000",
                "code" : "",
                "nonce" : "0x00",
                "storage" : {
                }
            }
        }
    },
    "log1_nonEmptyMem_logMemSize1_d0g0v0_EIP150" : {
        "_info" : {
            "comment" : "",
            "filledwith" : "cpp-1.3.0+commit.6e0ce939.Linux.g++",
            "lllcversion" : "Version: 0.4.18-develop.2017.9.25+commit.a72237f2.Linux.g++",
            "source" : "src/BlockchainTestsFiller/GeneralStateTests/stLogTests/log1_nonEmptyMem_logMemSize1_d0g0v0Filler.json",
            "sourceHash" : "1e0a01b746e6b52384f64df27e0e62206d885287804071df6159d696e59abe3f"
        },
        "blocks" : [
            {
                "blockHeader" : {
                    "bloom" : "0x00000000000000000000000000000000000000000000000000000000000000000000000000000000000000000000000000000000000000000000000000000000000000000000000000000000000000000000000000000000000008800000000000000000020000000000000000000800000000000000000000000000000000000000000000000000000000000000000000000000000000000000000000000000000000000000000000000000000000000000000000000000000000000000000000000000000000000000800000000000000000000000000000000000000020000000000000000000000000000000000000000000000000000000000000000000",
                    "coinbase" : "0x2adc25665018aa1fe0e6bc666dac8fc2697ff9ba",
                    "difficulty" : "0x020000",
                    "extraData" : "",
                    "gasLimit" : "0x0f4240",
                    "gasUsed" : "0xc033",
                    "hash" : "0x1149f76072f154699e5e67351fb6fb179a603c65bd616d98435470fa56d339bb",
                    "mixHash" : "0xbf8eb17e73a4858d2005e3636da4c3020eb9a626352891f8bf651242f04abe8e",
                    "nonce" : "0x4ad7082b90732e28",
                    "number" : "0x01",
                    "parentHash" : "0xa6e84a7c916e6bc2eb24c7b7746d421db827d7d44a18864cef3ca3d74ba8563f",
                    "receiptTrie" : "0x998d5515095c8dc96573a76b48b5721c7531f4d88f05e5605af05b56e78d5f72",
                    "stateRoot" : "0x28d7fbe82b2eefaebc5b0ae7ae1dc5a506bcf76bc814cf80a7abc1f278bf9f9f",
                    "timestamp" : "0x03e8",
                    "transactionsTrie" : "0x466f1520dd2fb37a6abe5419439e4bc5fd5146708535d1984cde813519a28e61",
                    "uncleHash" : "0x1dcc4de8dec75d7aab85b567b6ccd41ad312451b948a7413f0a142fd40d49347"
                },
                "rlp" : "0xf90262f901f7a0a6e84a7c916e6bc2eb24c7b7746d421db827d7d44a18864cef3ca3d74ba8563fa01dcc4de8dec75d7aab85b567b6ccd41ad312451b948a7413f0a142fd40d49347942adc25665018aa1fe0e6bc666dac8fc2697ff9baa028d7fbe82b2eefaebc5b0ae7ae1dc5a506bcf76bc814cf80a7abc1f278bf9f9fa0466f1520dd2fb37a6abe5419439e4bc5fd5146708535d1984cde813519a28e61a0998d5515095c8dc96573a76b48b5721c7531f4d88f05e5605af05b56e78d5f72b90100000000000000000000000000000000000000000000000000000000000000000000000000000000000000000000000000000000000000000000000000000000000000000000000000000000000000000000000000000000000000088000000000000000000200000000000000000008000000000000000000000000000000000000000000000000000000000000000000000000000000000000000000000000000000000000000000000000000000000000000000000000000000000000000000000000000000000000008000000000000000000000000000000000000000200000000000000000000000000000000000000000000000000000000000000000008302000001830f424082c0338203e880a0bf8eb17e73a4858d2005e3636da4c3020eb9a626352891f8bf651242f04abe8e884ad7082b90732e28f865f86380018303345094095e7baea6a6c7c4c2dfeb977efac326af552d87830186a0801ba09bae3efe7d9d16200582021c8f7c93c143c3fb1dd6be8a83213f3a5f1ad03926a0177d82a90f883a19de8c6d62ce79c753ae4ea076de047ca19a017879a1ce8bc1c0",
                "transactions" : [
                    {
                        "data" : "",
                        "gasLimit" : "0x033450",
                        "gasPrice" : "0x01",
                        "nonce" : "0x00",
                        "r" : "0x9bae3efe7d9d16200582021c8f7c93c143c3fb1dd6be8a83213f3a5f1ad03926",
                        "s" : "0x177d82a90f883a19de8c6d62ce79c753ae4ea076de047ca19a017879a1ce8bc1",
                        "to" : "0x095e7baea6a6c7c4c2dfeb977efac326af552d87",
                        "v" : "0x1b",
                        "value" : "0x0186a0"
                    }
                ],
                "uncleHeaders" : [
                ]
            }
        ],
        "genesisBlockHeader" : {
            "bloom" : "0x00000000000000000000000000000000000000000000000000000000000000000000000000000000000000000000000000000000000000000000000000000000000000000000000000000000000000000000000000000000000000000000000000000000000000000000000000000000000000000000000000000000000000000000000000000000000000000000000000000000000000000000000000000000000000000000000000000000000000000000000000000000000000000000000000000000000000000000000000000000000000000000000000000000000000000000000000000000000000000000000000000000000000000000000000000000",
            "coinbase" : "0x2adc25665018aa1fe0e6bc666dac8fc2697ff9ba",
            "difficulty" : "0x020000",
            "extraData" : "0x42",
            "gasLimit" : "0x0f4240",
            "gasUsed" : "0x00",
            "hash" : "0xa6e84a7c916e6bc2eb24c7b7746d421db827d7d44a18864cef3ca3d74ba8563f",
            "mixHash" : "0x56e81f171bcc55a6ff8345e692c0f86e5b48e01b996cadc001622fb5e363b421",
            "nonce" : "0x0102030405060708",
            "number" : "0x00",
            "parentHash" : "0x0000000000000000000000000000000000000000000000000000000000000000",
            "receiptTrie" : "0x56e81f171bcc55a6ff8345e692c0f86e5b48e01b996cadc001622fb5e363b421",
            "stateRoot" : "0xc761dd72b2eb8a286ebd70d9f7e8d6bb7aa8aa5c717db479cca2349a8dbe0df7",
            "timestamp" : "0x03b6",
            "transactionsTrie" : "0x56e81f171bcc55a6ff8345e692c0f86e5b48e01b996cadc001622fb5e363b421",
            "uncleHash" : "0x1dcc4de8dec75d7aab85b567b6ccd41ad312451b948a7413f0a142fd40d49347"
        },
        "genesisRLP" : "0xf901faf901f5a00000000000000000000000000000000000000000000000000000000000000000a01dcc4de8dec75d7aab85b567b6ccd41ad312451b948a7413f0a142fd40d49347942adc25665018aa1fe0e6bc666dac8fc2697ff9baa0c761dd72b2eb8a286ebd70d9f7e8d6bb7aa8aa5c717db479cca2349a8dbe0df7a056e81f171bcc55a6ff8345e692c0f86e5b48e01b996cadc001622fb5e363b421a056e81f171bcc55a6ff8345e692c0f86e5b48e01b996cadc001622fb5e363b421b90100000000000000000000000000000000000000000000000000000000000000000000000000000000000000000000000000000000000000000000000000000000000000000000000000000000000000000000000000000000000000000000000000000000000000000000000000000000000000000000000000000000000000000000000000000000000000000000000000000000000000000000000000000000000000000000000000000000000000000000000000000000000000000000000000000000000000000000000000000000000000000000000000000000000000000000000000000000000000000000000000000000000000000000000000000000008302000080830f4240808203b642a056e81f171bcc55a6ff8345e692c0f86e5b48e01b996cadc001622fb5e363b421880102030405060708c0c0",
        "lastblockhash" : "0x1149f76072f154699e5e67351fb6fb179a603c65bd616d98435470fa56d339bb",
        "network" : "EIP150",
        "postState" : {
            "0x095e7baea6a6c7c4c2dfeb977efac326af552d87" : {
                "balance" : "0x0de0b6b3a7658689",
                "code" : "0x60006000600060006017730f572e5295c57f15886f9b263e2f6d2d6c7b5ec66103e8f1600055",
                "nonce" : "0x00",
                "storage" : {
                    "0x00" : "0x01"
                }
            },
            "0x0f572e5295c57f15886f9b263e2f6d2d6c7b5ec6" : {
                "balance" : "0x0de0b6b3a7640017",
                "code" : "0x7faabbffffffffffffffffffffffffffffffffffffffffffffffffffffffffccdd600052600060016000a1",
                "nonce" : "0x00",
                "storage" : {
                }
            },
            "0x2adc25665018aa1fe0e6bc666dac8fc2697ff9ba" : {
                "balance" : "0x4563918244f4c033",
                "code" : "",
                "nonce" : "0x00",
                "storage" : {
                }
            },
            "0xa94f5374fce5edbc8e2a8697c15331677e6ebf0b" : {
                "balance" : "0x0de0b6b3a761b92d",
                "code" : "",
                "nonce" : "0x01",
                "storage" : {
                }
            }
        },
        "pre" : {
            "0x095e7baea6a6c7c4c2dfeb977efac326af552d87" : {
                "balance" : "0x0de0b6b3a7640000",
                "code" : "0x60006000600060006017730f572e5295c57f15886f9b263e2f6d2d6c7b5ec66103e8f1600055",
                "nonce" : "0x00",
                "storage" : {
                }
            },
            "0x0f572e5295c57f15886f9b263e2f6d2d6c7b5ec6" : {
                "balance" : "0x0de0b6b3a7640000",
                "code" : "0x7faabbffffffffffffffffffffffffffffffffffffffffffffffffffffffffccdd600052600060016000a1",
                "nonce" : "0x00",
                "storage" : {
                }
            },
            "0xa94f5374fce5edbc8e2a8697c15331677e6ebf0b" : {
                "balance" : "0x0de0b6b3a7640000",
                "code" : "",
                "nonce" : "0x00",
                "storage" : {
                }
            }
        }
    },
    "log1_nonEmptyMem_logMemSize1_d0g0v0_EIP158" : {
        "_info" : {
            "comment" : "",
            "filledwith" : "cpp-1.3.0+commit.6e0ce939.Linux.g++",
            "lllcversion" : "Version: 0.4.18-develop.2017.9.25+commit.a72237f2.Linux.g++",
            "source" : "src/BlockchainTestsFiller/GeneralStateTests/stLogTests/log1_nonEmptyMem_logMemSize1_d0g0v0Filler.json",
            "sourceHash" : "1e0a01b746e6b52384f64df27e0e62206d885287804071df6159d696e59abe3f"
        },
        "blocks" : [
            {
                "blockHeader" : {
                    "bloom" : "0x00000000000000000000000000000000000000000000000000000000000000000000000000000000000000000000000000000000000000000000000000000000000000000000000000000000000000000000000000000000000008800000000000000000020000000000000000000800000000000000000000000000000000000000000000000000000000000000000000000000000000000000000000000000000000000000000000000000000000000000000000000000000000000000000000000000000000000000800000000000000000000000000000000000000020000000000000000000000000000000000000000000000000000000000000000000",
                    "coinbase" : "0x2adc25665018aa1fe0e6bc666dac8fc2697ff9ba",
                    "difficulty" : "0x020000",
                    "extraData" : "",
                    "gasLimit" : "0x0f4240",
                    "gasUsed" : "0xc033",
                    "hash" : "0x61156eb8fe4f8ce6541d100c0621c1d04e595f58d84a7d9af5fd068333a59760",
                    "mixHash" : "0x114895c0e6ff2092dc61206a91db8603b8c33e043488ebc13d070f4c5d954017",
                    "nonce" : "0x6730f45fde6aafbc",
                    "number" : "0x01",
                    "parentHash" : "0xa6e84a7c916e6bc2eb24c7b7746d421db827d7d44a18864cef3ca3d74ba8563f",
                    "receiptTrie" : "0x998d5515095c8dc96573a76b48b5721c7531f4d88f05e5605af05b56e78d5f72",
                    "stateRoot" : "0x28d7fbe82b2eefaebc5b0ae7ae1dc5a506bcf76bc814cf80a7abc1f278bf9f9f",
                    "timestamp" : "0x03e8",
                    "transactionsTrie" : "0x466f1520dd2fb37a6abe5419439e4bc5fd5146708535d1984cde813519a28e61",
                    "uncleHash" : "0x1dcc4de8dec75d7aab85b567b6ccd41ad312451b948a7413f0a142fd40d49347"
                },
                "rlp" : "0xf90262f901f7a0a6e84a7c916e6bc2eb24c7b7746d421db827d7d44a18864cef3ca3d74ba8563fa01dcc4de8dec75d7aab85b567b6ccd41ad312451b948a7413f0a142fd40d49347942adc25665018aa1fe0e6bc666dac8fc2697ff9baa028d7fbe82b2eefaebc5b0ae7ae1dc5a506bcf76bc814cf80a7abc1f278bf9f9fa0466f1520dd2fb37a6abe5419439e4bc5fd5146708535d1984cde813519a28e61a0998d5515095c8dc96573a76b48b5721c7531f4d88f05e5605af05b56e78d5f72b90100000000000000000000000000000000000000000000000000000000000000000000000000000000000000000000000000000000000000000000000000000000000000000000000000000000000000000000000000000000000000088000000000000000000200000000000000000008000000000000000000000000000000000000000000000000000000000000000000000000000000000000000000000000000000000000000000000000000000000000000000000000000000000000000000000000000000000000008000000000000000000000000000000000000000200000000000000000000000000000000000000000000000000000000000000000008302000001830f424082c0338203e880a0114895c0e6ff2092dc61206a91db8603b8c33e043488ebc13d070f4c5d954017886730f45fde6aafbcf865f86380018303345094095e7baea6a6c7c4c2dfeb977efac326af552d87830186a0801ba09bae3efe7d9d16200582021c8f7c93c143c3fb1dd6be8a83213f3a5f1ad03926a0177d82a90f883a19de8c6d62ce79c753ae4ea076de047ca19a017879a1ce8bc1c0",
                "transactions" : [
                    {
                        "data" : "",
                        "gasLimit" : "0x033450",
                        "gasPrice" : "0x01",
                        "nonce" : "0x00",
                        "r" : "0x9bae3efe7d9d16200582021c8f7c93c143c3fb1dd6be8a83213f3a5f1ad03926",
                        "s" : "0x177d82a90f883a19de8c6d62ce79c753ae4ea076de047ca19a017879a1ce8bc1",
                        "to" : "0x095e7baea6a6c7c4c2dfeb977efac326af552d87",
                        "v" : "0x1b",
                        "value" : "0x0186a0"
                    }
                ],
                "uncleHeaders" : [
                ]
            }
        ],
        "genesisBlockHeader" : {
            "bloom" : "0x00000000000000000000000000000000000000000000000000000000000000000000000000000000000000000000000000000000000000000000000000000000000000000000000000000000000000000000000000000000000000000000000000000000000000000000000000000000000000000000000000000000000000000000000000000000000000000000000000000000000000000000000000000000000000000000000000000000000000000000000000000000000000000000000000000000000000000000000000000000000000000000000000000000000000000000000000000000000000000000000000000000000000000000000000000000",
            "coinbase" : "0x2adc25665018aa1fe0e6bc666dac8fc2697ff9ba",
            "difficulty" : "0x020000",
            "extraData" : "0x42",
            "gasLimit" : "0x0f4240",
            "gasUsed" : "0x00",
            "hash" : "0xa6e84a7c916e6bc2eb24c7b7746d421db827d7d44a18864cef3ca3d74ba8563f",
            "mixHash" : "0x56e81f171bcc55a6ff8345e692c0f86e5b48e01b996cadc001622fb5e363b421",
            "nonce" : "0x0102030405060708",
            "number" : "0x00",
            "parentHash" : "0x0000000000000000000000000000000000000000000000000000000000000000",
            "receiptTrie" : "0x56e81f171bcc55a6ff8345e692c0f86e5b48e01b996cadc001622fb5e363b421",
            "stateRoot" : "0xc761dd72b2eb8a286ebd70d9f7e8d6bb7aa8aa5c717db479cca2349a8dbe0df7",
            "timestamp" : "0x03b6",
            "transactionsTrie" : "0x56e81f171bcc55a6ff8345e692c0f86e5b48e01b996cadc001622fb5e363b421",
            "uncleHash" : "0x1dcc4de8dec75d7aab85b567b6ccd41ad312451b948a7413f0a142fd40d49347"
        },
        "genesisRLP" : "0xf901faf901f5a00000000000000000000000000000000000000000000000000000000000000000a01dcc4de8dec75d7aab85b567b6ccd41ad312451b948a7413f0a142fd40d49347942adc25665018aa1fe0e6bc666dac8fc2697ff9baa0c761dd72b2eb8a286ebd70d9f7e8d6bb7aa8aa5c717db479cca2349a8dbe0df7a056e81f171bcc55a6ff8345e692c0f86e5b48e01b996cadc001622fb5e363b421a056e81f171bcc55a6ff8345e692c0f86e5b48e01b996cadc001622fb5e363b421b90100000000000000000000000000000000000000000000000000000000000000000000000000000000000000000000000000000000000000000000000000000000000000000000000000000000000000000000000000000000000000000000000000000000000000000000000000000000000000000000000000000000000000000000000000000000000000000000000000000000000000000000000000000000000000000000000000000000000000000000000000000000000000000000000000000000000000000000000000000000000000000000000000000000000000000000000000000000000000000000000000000000000000000000000000000000008302000080830f4240808203b642a056e81f171bcc55a6ff8345e692c0f86e5b48e01b996cadc001622fb5e363b421880102030405060708c0c0",
        "lastblockhash" : "0x61156eb8fe4f8ce6541d100c0621c1d04e595f58d84a7d9af5fd068333a59760",
        "network" : "EIP158",
        "postState" : {
            "0x095e7baea6a6c7c4c2dfeb977efac326af552d87" : {
                "balance" : "0x0de0b6b3a7658689",
                "code" : "0x60006000600060006017730f572e5295c57f15886f9b263e2f6d2d6c7b5ec66103e8f1600055",
                "nonce" : "0x00",
                "storage" : {
                    "0x00" : "0x01"
                }
            },
            "0x0f572e5295c57f15886f9b263e2f6d2d6c7b5ec6" : {
                "balance" : "0x0de0b6b3a7640017",
                "code" : "0x7faabbffffffffffffffffffffffffffffffffffffffffffffffffffffffffccdd600052600060016000a1",
                "nonce" : "0x00",
                "storage" : {
                }
            },
            "0x2adc25665018aa1fe0e6bc666dac8fc2697ff9ba" : {
                "balance" : "0x4563918244f4c033",
                "code" : "",
                "nonce" : "0x00",
                "storage" : {
                }
            },
            "0xa94f5374fce5edbc8e2a8697c15331677e6ebf0b" : {
                "balance" : "0x0de0b6b3a761b92d",
                "code" : "",
                "nonce" : "0x01",
                "storage" : {
                }
            }
        },
        "pre" : {
            "0x095e7baea6a6c7c4c2dfeb977efac326af552d87" : {
                "balance" : "0x0de0b6b3a7640000",
                "code" : "0x60006000600060006017730f572e5295c57f15886f9b263e2f6d2d6c7b5ec66103e8f1600055",
                "nonce" : "0x00",
                "storage" : {
                }
            },
            "0x0f572e5295c57f15886f9b263e2f6d2d6c7b5ec6" : {
                "balance" : "0x0de0b6b3a7640000",
                "code" : "0x7faabbffffffffffffffffffffffffffffffffffffffffffffffffffffffffccdd600052600060016000a1",
                "nonce" : "0x00",
                "storage" : {
                }
            },
            "0xa94f5374fce5edbc8e2a8697c15331677e6ebf0b" : {
                "balance" : "0x0de0b6b3a7640000",
                "code" : "",
                "nonce" : "0x00",
                "storage" : {
                }
            }
        }
    },
    "log1_nonEmptyMem_logMemSize1_d0g0v0_Frontier" : {
        "_info" : {
            "comment" : "",
            "filledwith" : "cpp-1.3.0+commit.6e0ce939.Linux.g++",
            "lllcversion" : "Version: 0.4.18-develop.2017.9.25+commit.a72237f2.Linux.g++",
            "source" : "src/BlockchainTestsFiller/GeneralStateTests/stLogTests/log1_nonEmptyMem_logMemSize1_d0g0v0Filler.json",
            "sourceHash" : "1e0a01b746e6b52384f64df27e0e62206d885287804071df6159d696e59abe3f"
        },
        "blocks" : [
            {
                "blockHeader" : {
                    "bloom" : "0x00000000000000000000000000000000000000000000000000000000000000000000000000000000000000000000000000000000000000000000000000000000000000000000000000000000000000000000000000000000000008800000000000000000020000000000000000000800000000000000000000000000000000000000000000000000000000000000000000000000000000000000000000000000000000000000000000000000000000000000000000000000000000000000000000000000000000000000800000000000000000000000000000000000000020000000000000000000000000000000000000000000000000000000000000000000",
                    "coinbase" : "0x2adc25665018aa1fe0e6bc666dac8fc2697ff9ba",
                    "difficulty" : "0x020000",
                    "extraData" : "",
                    "gasLimit" : "0x0f4240",
                    "gasUsed" : "0xbd9f",
                    "hash" : "0x8a8fd2426a0ea11f97c777956b42a48833a3be3a2f5b05248a998e0a99e0b76e",
                    "mixHash" : "0x19cdcbfdeeb1bfe20dc8013118619ae1460e9ff37660f1f2812aeaffbe3ff5c1",
                    "nonce" : "0x8b2329587978a8a5",
                    "number" : "0x01",
                    "parentHash" : "0xa6e84a7c916e6bc2eb24c7b7746d421db827d7d44a18864cef3ca3d74ba8563f",
                    "receiptTrie" : "0xed57bbc834ea5008ade07124dfe6ae6a262ac2d83a617a2124d918aacb5af835",
                    "stateRoot" : "0x6def49a4e9e8eab0723521d0ff1c9aca88221e11cc099948714db03fd9e5236a",
                    "timestamp" : "0x03e8",
                    "transactionsTrie" : "0x466f1520dd2fb37a6abe5419439e4bc5fd5146708535d1984cde813519a28e61",
                    "uncleHash" : "0x1dcc4de8dec75d7aab85b567b6ccd41ad312451b948a7413f0a142fd40d49347"
                },
                "rlp" : "0xf90262f901f7a0a6e84a7c916e6bc2eb24c7b7746d421db827d7d44a18864cef3ca3d74ba8563fa01dcc4de8dec75d7aab85b567b6ccd41ad312451b948a7413f0a142fd40d49347942adc25665018aa1fe0e6bc666dac8fc2697ff9baa06def49a4e9e8eab0723521d0ff1c9aca88221e11cc099948714db03fd9e5236aa0466f1520dd2fb37a6abe5419439e4bc5fd5146708535d1984cde813519a28e61a0ed57bbc834ea5008ade07124dfe6ae6a262ac2d83a617a2124d918aacb5af835b90100000000000000000000000000000000000000000000000000000000000000000000000000000000000000000000000000000000000000000000000000000000000000000000000000000000000000000000000000000000000000088000000000000000000200000000000000000008000000000000000000000000000000000000000000000000000000000000000000000000000000000000000000000000000000000000000000000000000000000000000000000000000000000000000000000000000000000000008000000000000000000000000000000000000000200000000000000000000000000000000000000000000000000000000000000000008302000001830f424082bd9f8203e880a019cdcbfdeeb1bfe20dc8013118619ae1460e9ff37660f1f2812aeaffbe3ff5c1888b2329587978a8a5f865f86380018303345094095e7baea6a6c7c4c2dfeb977efac326af552d87830186a0801ba09bae3efe7d9d16200582021c8f7c93c143c3fb1dd6be8a83213f3a5f1ad03926a0177d82a90f883a19de8c6d62ce79c753ae4ea076de047ca19a017879a1ce8bc1c0",
                "transactions" : [
                    {
                        "data" : "",
                        "gasLimit" : "0x033450",
                        "gasPrice" : "0x01",
                        "nonce" : "0x00",
                        "r" : "0x9bae3efe7d9d16200582021c8f7c93c143c3fb1dd6be8a83213f3a5f1ad03926",
                        "s" : "0x177d82a90f883a19de8c6d62ce79c753ae4ea076de047ca19a017879a1ce8bc1",
                        "to" : "0x095e7baea6a6c7c4c2dfeb977efac326af552d87",
                        "v" : "0x1b",
                        "value" : "0x0186a0"
                    }
                ],
                "uncleHeaders" : [
                ]
            }
        ],
        "genesisBlockHeader" : {
            "bloom" : "0x00000000000000000000000000000000000000000000000000000000000000000000000000000000000000000000000000000000000000000000000000000000000000000000000000000000000000000000000000000000000000000000000000000000000000000000000000000000000000000000000000000000000000000000000000000000000000000000000000000000000000000000000000000000000000000000000000000000000000000000000000000000000000000000000000000000000000000000000000000000000000000000000000000000000000000000000000000000000000000000000000000000000000000000000000000000",
            "coinbase" : "0x2adc25665018aa1fe0e6bc666dac8fc2697ff9ba",
            "difficulty" : "0x020000",
            "extraData" : "0x42",
            "gasLimit" : "0x0f4240",
            "gasUsed" : "0x00",
            "hash" : "0xa6e84a7c916e6bc2eb24c7b7746d421db827d7d44a18864cef3ca3d74ba8563f",
            "mixHash" : "0x56e81f171bcc55a6ff8345e692c0f86e5b48e01b996cadc001622fb5e363b421",
            "nonce" : "0x0102030405060708",
            "number" : "0x00",
            "parentHash" : "0x0000000000000000000000000000000000000000000000000000000000000000",
            "receiptTrie" : "0x56e81f171bcc55a6ff8345e692c0f86e5b48e01b996cadc001622fb5e363b421",
            "stateRoot" : "0xc761dd72b2eb8a286ebd70d9f7e8d6bb7aa8aa5c717db479cca2349a8dbe0df7",
            "timestamp" : "0x03b6",
            "transactionsTrie" : "0x56e81f171bcc55a6ff8345e692c0f86e5b48e01b996cadc001622fb5e363b421",
            "uncleHash" : "0x1dcc4de8dec75d7aab85b567b6ccd41ad312451b948a7413f0a142fd40d49347"
        },
        "genesisRLP" : "0xf901faf901f5a00000000000000000000000000000000000000000000000000000000000000000a01dcc4de8dec75d7aab85b567b6ccd41ad312451b948a7413f0a142fd40d49347942adc25665018aa1fe0e6bc666dac8fc2697ff9baa0c761dd72b2eb8a286ebd70d9f7e8d6bb7aa8aa5c717db479cca2349a8dbe0df7a056e81f171bcc55a6ff8345e692c0f86e5b48e01b996cadc001622fb5e363b421a056e81f171bcc55a6ff8345e692c0f86e5b48e01b996cadc001622fb5e363b421b90100000000000000000000000000000000000000000000000000000000000000000000000000000000000000000000000000000000000000000000000000000000000000000000000000000000000000000000000000000000000000000000000000000000000000000000000000000000000000000000000000000000000000000000000000000000000000000000000000000000000000000000000000000000000000000000000000000000000000000000000000000000000000000000000000000000000000000000000000000000000000000000000000000000000000000000000000000000000000000000000000000000000000000000000000000000008302000080830f4240808203b642a056e81f171bcc55a6ff8345e692c0f86e5b48e01b996cadc001622fb5e363b421880102030405060708c0c0",
        "lastblockhash" : "0x8a8fd2426a0ea11f97c777956b42a48833a3be3a2f5b05248a998e0a99e0b76e",
        "network" : "Frontier",
        "postState" : {
            "0x095e7baea6a6c7c4c2dfeb977efac326af552d87" : {
                "balance" : "0x0de0b6b3a7658689",
                "code" : "0x60006000600060006017730f572e5295c57f15886f9b263e2f6d2d6c7b5ec66103e8f1600055",
                "nonce" : "0x00",
                "storage" : {
                    "0x00" : "0x01"
                }
            },
            "0x0f572e5295c57f15886f9b263e2f6d2d6c7b5ec6" : {
                "balance" : "0x0de0b6b3a7640017",
                "code" : "0x7faabbffffffffffffffffffffffffffffffffffffffffffffffffffffffffccdd600052600060016000a1",
                "nonce" : "0x00",
                "storage" : {
                }
            },
            "0x2adc25665018aa1fe0e6bc666dac8fc2697ff9ba" : {
                "balance" : "0x4563918244f4bd9f",
                "code" : "",
                "nonce" : "0x00",
                "storage" : {
                }
            },
            "0xa94f5374fce5edbc8e2a8697c15331677e6ebf0b" : {
                "balance" : "0x0de0b6b3a761bbc1",
                "code" : "",
                "nonce" : "0x01",
                "storage" : {
                }
            }
        },
        "pre" : {
            "0x095e7baea6a6c7c4c2dfeb977efac326af552d87" : {
                "balance" : "0x0de0b6b3a7640000",
                "code" : "0x60006000600060006017730f572e5295c57f15886f9b263e2f6d2d6c7b5ec66103e8f1600055",
                "nonce" : "0x00",
                "storage" : {
                }
            },
            "0x0f572e5295c57f15886f9b263e2f6d2d6c7b5ec6" : {
                "balance" : "0x0de0b6b3a7640000",
                "code" : "0x7faabbffffffffffffffffffffffffffffffffffffffffffffffffffffffffccdd600052600060016000a1",
                "nonce" : "0x00",
                "storage" : {
                }
            },
            "0xa94f5374fce5edbc8e2a8697c15331677e6ebf0b" : {
                "balance" : "0x0de0b6b3a7640000",
                "code" : "",
                "nonce" : "0x00",
                "storage" : {
                }
            }
        }
    },
    "log1_nonEmptyMem_logMemSize1_d0g0v0_Homestead" : {
        "_info" : {
            "comment" : "",
            "filledwith" : "cpp-1.3.0+commit.6e0ce939.Linux.g++",
            "lllcversion" : "Version: 0.4.18-develop.2017.9.25+commit.a72237f2.Linux.g++",
            "source" : "src/BlockchainTestsFiller/GeneralStateTests/stLogTests/log1_nonEmptyMem_logMemSize1_d0g0v0Filler.json",
            "sourceHash" : "1e0a01b746e6b52384f64df27e0e62206d885287804071df6159d696e59abe3f"
        },
        "blocks" : [
            {
                "blockHeader" : {
                    "bloom" : "0x00000000000000000000000000000000000000000000000000000000000000000000000000000000000000000000000000000000000000000000000000000000000000000000000000000000000000000000000000000000000008800000000000000000020000000000000000000800000000000000000000000000000000000000000000000000000000000000000000000000000000000000000000000000000000000000000000000000000000000000000000000000000000000000000000000000000000000000800000000000000000000000000000000000000020000000000000000000000000000000000000000000000000000000000000000000",
                    "coinbase" : "0x2adc25665018aa1fe0e6bc666dac8fc2697ff9ba",
                    "difficulty" : "0x020000",
                    "extraData" : "",
                    "gasLimit" : "0x0f4240",
                    "gasUsed" : "0xbd9f",
                    "hash" : "0x74836e388fcff6081dd7592a7b0ce30f3607d1811d6d1f53216524e64e70e2ee",
                    "mixHash" : "0xec6ada60c6bbef5c57794735575083fc03434106d5be2f694a9e3206c9f7bc40",
                    "nonce" : "0xbdaf7bcc51baa308",
                    "number" : "0x01",
                    "parentHash" : "0xa6e84a7c916e6bc2eb24c7b7746d421db827d7d44a18864cef3ca3d74ba8563f",
                    "receiptTrie" : "0xed57bbc834ea5008ade07124dfe6ae6a262ac2d83a617a2124d918aacb5af835",
                    "stateRoot" : "0x6def49a4e9e8eab0723521d0ff1c9aca88221e11cc099948714db03fd9e5236a",
                    "timestamp" : "0x03e8",
                    "transactionsTrie" : "0x466f1520dd2fb37a6abe5419439e4bc5fd5146708535d1984cde813519a28e61",
                    "uncleHash" : "0x1dcc4de8dec75d7aab85b567b6ccd41ad312451b948a7413f0a142fd40d49347"
                },
                "rlp" : "0xf90262f901f7a0a6e84a7c916e6bc2eb24c7b7746d421db827d7d44a18864cef3ca3d74ba8563fa01dcc4de8dec75d7aab85b567b6ccd41ad312451b948a7413f0a142fd40d49347942adc25665018aa1fe0e6bc666dac8fc2697ff9baa06def49a4e9e8eab0723521d0ff1c9aca88221e11cc099948714db03fd9e5236aa0466f1520dd2fb37a6abe5419439e4bc5fd5146708535d1984cde813519a28e61a0ed57bbc834ea5008ade07124dfe6ae6a262ac2d83a617a2124d918aacb5af835b90100000000000000000000000000000000000000000000000000000000000000000000000000000000000000000000000000000000000000000000000000000000000000000000000000000000000000000000000000000000000000088000000000000000000200000000000000000008000000000000000000000000000000000000000000000000000000000000000000000000000000000000000000000000000000000000000000000000000000000000000000000000000000000000000000000000000000000000008000000000000000000000000000000000000000200000000000000000000000000000000000000000000000000000000000000000008302000001830f424082bd9f8203e880a0ec6ada60c6bbef5c57794735575083fc03434106d5be2f694a9e3206c9f7bc4088bdaf7bcc51baa308f865f86380018303345094095e7baea6a6c7c4c2dfeb977efac326af552d87830186a0801ba09bae3efe7d9d16200582021c8f7c93c143c3fb1dd6be8a83213f3a5f1ad03926a0177d82a90f883a19de8c6d62ce79c753ae4ea076de047ca19a017879a1ce8bc1c0",
                "transactions" : [
                    {
                        "data" : "",
                        "gasLimit" : "0x033450",
                        "gasPrice" : "0x01",
                        "nonce" : "0x00",
                        "r" : "0x9bae3efe7d9d16200582021c8f7c93c143c3fb1dd6be8a83213f3a5f1ad03926",
                        "s" : "0x177d82a90f883a19de8c6d62ce79c753ae4ea076de047ca19a017879a1ce8bc1",
                        "to" : "0x095e7baea6a6c7c4c2dfeb977efac326af552d87",
                        "v" : "0x1b",
                        "value" : "0x0186a0"
                    }
                ],
                "uncleHeaders" : [
                ]
            }
        ],
        "genesisBlockHeader" : {
            "bloom" : "0x00000000000000000000000000000000000000000000000000000000000000000000000000000000000000000000000000000000000000000000000000000000000000000000000000000000000000000000000000000000000000000000000000000000000000000000000000000000000000000000000000000000000000000000000000000000000000000000000000000000000000000000000000000000000000000000000000000000000000000000000000000000000000000000000000000000000000000000000000000000000000000000000000000000000000000000000000000000000000000000000000000000000000000000000000000000",
            "coinbase" : "0x2adc25665018aa1fe0e6bc666dac8fc2697ff9ba",
            "difficulty" : "0x020000",
            "extraData" : "0x42",
            "gasLimit" : "0x0f4240",
            "gasUsed" : "0x00",
            "hash" : "0xa6e84a7c916e6bc2eb24c7b7746d421db827d7d44a18864cef3ca3d74ba8563f",
            "mixHash" : "0x56e81f171bcc55a6ff8345e692c0f86e5b48e01b996cadc001622fb5e363b421",
            "nonce" : "0x0102030405060708",
            "number" : "0x00",
            "parentHash" : "0x0000000000000000000000000000000000000000000000000000000000000000",
            "receiptTrie" : "0x56e81f171bcc55a6ff8345e692c0f86e5b48e01b996cadc001622fb5e363b421",
            "stateRoot" : "0xc761dd72b2eb8a286ebd70d9f7e8d6bb7aa8aa5c717db479cca2349a8dbe0df7",
            "timestamp" : "0x03b6",
            "transactionsTrie" : "0x56e81f171bcc55a6ff8345e692c0f86e5b48e01b996cadc001622fb5e363b421",
            "uncleHash" : "0x1dcc4de8dec75d7aab85b567b6ccd41ad312451b948a7413f0a142fd40d49347"
        },
        "genesisRLP" : "0xf901faf901f5a00000000000000000000000000000000000000000000000000000000000000000a01dcc4de8dec75d7aab85b567b6ccd41ad312451b948a7413f0a142fd40d49347942adc25665018aa1fe0e6bc666dac8fc2697ff9baa0c761dd72b2eb8a286ebd70d9f7e8d6bb7aa8aa5c717db479cca2349a8dbe0df7a056e81f171bcc55a6ff8345e692c0f86e5b48e01b996cadc001622fb5e363b421a056e81f171bcc55a6ff8345e692c0f86e5b48e01b996cadc001622fb5e363b421b90100000000000000000000000000000000000000000000000000000000000000000000000000000000000000000000000000000000000000000000000000000000000000000000000000000000000000000000000000000000000000000000000000000000000000000000000000000000000000000000000000000000000000000000000000000000000000000000000000000000000000000000000000000000000000000000000000000000000000000000000000000000000000000000000000000000000000000000000000000000000000000000000000000000000000000000000000000000000000000000000000000000000000000000000000000000008302000080830f4240808203b642a056e81f171bcc55a6ff8345e692c0f86e5b48e01b996cadc001622fb5e363b421880102030405060708c0c0",
        "lastblockhash" : "0x74836e388fcff6081dd7592a7b0ce30f3607d1811d6d1f53216524e64e70e2ee",
        "network" : "Homestead",
        "postState" : {
            "0x095e7baea6a6c7c4c2dfeb977efac326af552d87" : {
                "balance" : "0x0de0b6b3a7658689",
                "code" : "0x60006000600060006017730f572e5295c57f15886f9b263e2f6d2d6c7b5ec66103e8f1600055",
                "nonce" : "0x00",
                "storage" : {
                    "0x00" : "0x01"
                }
            },
            "0x0f572e5295c57f15886f9b263e2f6d2d6c7b5ec6" : {
                "balance" : "0x0de0b6b3a7640017",
                "code" : "0x7faabbffffffffffffffffffffffffffffffffffffffffffffffffffffffffccdd600052600060016000a1",
                "nonce" : "0x00",
                "storage" : {
                }
            },
            "0x2adc25665018aa1fe0e6bc666dac8fc2697ff9ba" : {
                "balance" : "0x4563918244f4bd9f",
                "code" : "",
                "nonce" : "0x00",
                "storage" : {
                }
            },
            "0xa94f5374fce5edbc8e2a8697c15331677e6ebf0b" : {
                "balance" : "0x0de0b6b3a761bbc1",
                "code" : "",
                "nonce" : "0x01",
                "storage" : {
                }
            }
        },
        "pre" : {
            "0x095e7baea6a6c7c4c2dfeb977efac326af552d87" : {
                "balance" : "0x0de0b6b3a7640000",
                "code" : "0x60006000600060006017730f572e5295c57f15886f9b263e2f6d2d6c7b5ec66103e8f1600055",
                "nonce" : "0x00",
                "storage" : {
                }
            },
            "0x0f572e5295c57f15886f9b263e2f6d2d6c7b5ec6" : {
                "balance" : "0x0de0b6b3a7640000",
                "code" : "0x7faabbffffffffffffffffffffffffffffffffffffffffffffffffffffffffccdd600052600060016000a1",
                "nonce" : "0x00",
                "storage" : {
                }
            },
            "0xa94f5374fce5edbc8e2a8697c15331677e6ebf0b" : {
                "balance" : "0x0de0b6b3a7640000",
                "code" : "",
                "nonce" : "0x00",
                "storage" : {
                }
            }
        }
    }
}