{
    "contractCreationOOGdontLeaveEmptyContractViaTransaction_d0g0v0_Byzantium" : {
        "_info" : {
            "comment" : "",
            "filledwith" : "cpp-1.3.0+commit.6e0ce939.Linux.g++",
            "lllcversion" : "Version: 0.4.18-develop.2017.9.25+commit.a72237f2.Linux.g++",
            "source" : "src/BlockchainTestsFiller/GeneralStateTests/stHomesteadSpecific/contractCreationOOGdontLeaveEmptyContractViaTransaction_d0g0v0Filler.json",
            "sourceHash" : "d5f95fe15f932c1d045b367a772204ed2e9f335db5a97bcd7f4b2fc4cec49abd"
        },
        "blocks" : [
            {
                "blockHeader" : {
                    "bloom" : "0x00000000000000000000000000000000000000000000000000000000000000000000000000000000000000000000000000000000000000000000000000000000000000000000000000000000000000000000000000000000000000000000000000000000000000000000000000000000000000000000000000000000000000000000000000000000000000000000000000000000000000000000000000000000000000000000000000000000000000000000000000000000000000000000000000000000000000000000000000000000000000000000000000000000000000000000000000000000000000000000000000000000000000000000000000000000",
                    "coinbase" : "0x2adc25665018aa1fe0e6bc666dac8fc2697ff9ba",
                    "difficulty" : "0x020000",
                    "extraData" : "",
                    "gasLimit" : "0x0f4240",
                    "gasUsed" : "0x012411",
                    "hash" : "0x9028c9ef294f158bad27d071eb13009e5a79aa3caf70b823a6bfc7b0cf3b0c61",
                    "mixHash" : "0x94ae73acbe39a007d1eab29c4f953422b320722300446f4d03c2769afaeb470e",
                    "nonce" : "0x4f02fdec757d187f",
                    "number" : "0x01",
                    "parentHash" : "0xe5a437534ced7e31e44e28665f1e3cc47c479a7d58c28b2c526d31c7baefa9a8",
                    "receiptTrie" : "0xd3e8dadbfb4135b152b7668c12a668eb9404d351609ba709e236bc4b0289dfc7",
                    "stateRoot" : "0x454ca1f5bdf882cfe570d77233d527cd261894f41aa1751751ee80e21e690c19",
                    "timestamp" : "0x03e8",
                    "transactionsTrie" : "0xfadf0d215532cd6486a8ddfac719ca2eabd2547f7cda9f32185c1177c7f23d75",
                    "uncleHash" : "0x1dcc4de8dec75d7aab85b567b6ccd41ad312451b948a7413f0a142fd40d49347"
                },
                "rlp" : "0xf9026ff901f8a0e5a437534ced7e31e44e28665f1e3cc47c479a7d58c28b2c526d31c7baefa9a8a01dcc4de8dec75d7aab85b567b6ccd41ad312451b948a7413f0a142fd40d49347942adc25665018aa1fe0e6bc666dac8fc2697ff9baa0454ca1f5bdf882cfe570d77233d527cd261894f41aa1751751ee80e21e690c19a0fadf0d215532cd6486a8ddfac719ca2eabd2547f7cda9f32185c1177c7f23d75a0d3e8dadbfb4135b152b7668c12a668eb9404d351609ba709e236bc4b0289dfc7b90100000000000000000000000000000000000000000000000000000000000000000000000000000000000000000000000000000000000000000000000000000000000000000000000000000000000000000000000000000000000000000000000000000000000000000000000000000000000000000000000000000000000000000000000000000000000000000000000000000000000000000000000000000000000000000000000000000000000000000000000000000000000000000000000000000000000000000000000000000000000000000000000000000000000000000000000000000000000000000000000000000000000000000000000000000000008302000001830f4240830124118203e880a094ae73acbe39a007d1eab29c4f953422b320722300446f4d03c2769afaeb470e884f02fdec757d187ff871f86f8001830177008080a36040600060406000600073100000000000000000000000000000000000000161c350f11ba0853740cbaebf3b696c992d835f16e8159e521ad8b04ec513949cfba45c6b9e9ea035ac6d22ac62556b698ae2c76c368a2913b380732ba26254dc785e22926476a0c0",
                "transactions" : [
                    {
                        "data" : "0x6040600060406000600073100000000000000000000000000000000000000161c350f1",
                        "gasLimit" : "0x017700",
                        "gasPrice" : "0x01",
                        "nonce" : "0x00",
                        "r" : "0x853740cbaebf3b696c992d835f16e8159e521ad8b04ec513949cfba45c6b9e9e",
                        "s" : "0x35ac6d22ac62556b698ae2c76c368a2913b380732ba26254dc785e22926476a0",
                        "to" : "",
                        "v" : "0x1b",
                        "value" : "0x00"
                    }
                ],
                "uncleHeaders" : [
                ]
            }
        ],
        "genesisBlockHeader" : {
            "bloom" : "0x00000000000000000000000000000000000000000000000000000000000000000000000000000000000000000000000000000000000000000000000000000000000000000000000000000000000000000000000000000000000000000000000000000000000000000000000000000000000000000000000000000000000000000000000000000000000000000000000000000000000000000000000000000000000000000000000000000000000000000000000000000000000000000000000000000000000000000000000000000000000000000000000000000000000000000000000000000000000000000000000000000000000000000000000000000000",
            "coinbase" : "0x2adc25665018aa1fe0e6bc666dac8fc2697ff9ba",
            "difficulty" : "0x020000",
            "extraData" : "0x42",
            "gasLimit" : "0x0f4240",
            "gasUsed" : "0x00",
            "hash" : "0xe5a437534ced7e31e44e28665f1e3cc47c479a7d58c28b2c526d31c7baefa9a8",
            "mixHash" : "0x56e81f171bcc55a6ff8345e692c0f86e5b48e01b996cadc001622fb5e363b421",
            "nonce" : "0x0102030405060708",
            "number" : "0x00",
            "parentHash" : "0x0000000000000000000000000000000000000000000000000000000000000000",
            "receiptTrie" : "0x56e81f171bcc55a6ff8345e692c0f86e5b48e01b996cadc001622fb5e363b421",
            "stateRoot" : "0x26ca89fc47fe53d151a3cbbb0e2700c971eb046457d20cffe91c448f0b4d3df5",
            "timestamp" : "0x03b6",
            "transactionsTrie" : "0x56e81f171bcc55a6ff8345e692c0f86e5b48e01b996cadc001622fb5e363b421",
            "uncleHash" : "0x1dcc4de8dec75d7aab85b567b6ccd41ad312451b948a7413f0a142fd40d49347"
        },
        "genesisRLP" : "0xf901faf901f5a00000000000000000000000000000000000000000000000000000000000000000a01dcc4de8dec75d7aab85b567b6ccd41ad312451b948a7413f0a142fd40d49347942adc25665018aa1fe0e6bc666dac8fc2697ff9baa026ca89fc47fe53d151a3cbbb0e2700c971eb046457d20cffe91c448f0b4d3df5a056e81f171bcc55a6ff8345e692c0f86e5b48e01b996cadc001622fb5e363b421a056e81f171bcc55a6ff8345e692c0f86e5b48e01b996cadc001622fb5e363b421b90100000000000000000000000000000000000000000000000000000000000000000000000000000000000000000000000000000000000000000000000000000000000000000000000000000000000000000000000000000000000000000000000000000000000000000000000000000000000000000000000000000000000000000000000000000000000000000000000000000000000000000000000000000000000000000000000000000000000000000000000000000000000000000000000000000000000000000000000000000000000000000000000000000000000000000000000000000000000000000000000000000000000000000000000000000000008302000080830f4240808203b642a056e81f171bcc55a6ff8345e692c0f86e5b48e01b996cadc001622fb5e363b421880102030405060708c0c0",
        "lastblockhash" : "0x9028c9ef294f158bad27d071eb13009e5a79aa3caf70b823a6bfc7b0cf3b0c61",
        "network" : "Byzantium",
        "postState" : {
            "0x1000000000000000000000000000000000000001" : {
                "balance" : "0x00",
                "code" : "0x6001600155",
                "nonce" : "0x00",
                "storage" : {
                    "0x01" : "0x01"
                }
            },
            "0x2adc25665018aa1fe0e6bc666dac8fc2697ff9ba" : {
                "balance" : "0x29a2241af62d2411",
                "code" : "",
                "nonce" : "0x00",
                "storage" : {
                }
            },
            "0x6295ee1b4f6dd65047762f924ecd367c17eabf8f" : {
                "balance" : "0x00",
                "code" : "",
                "nonce" : "0x01",
                "storage" : {
                }
            },
            "0xa94f5374fce5edbc8e2a8697c15331677e6ebf0b" : {
                "balance" : "0x0fa4cf",
                "code" : "",
                "nonce" : "0x01",
                "storage" : {
                }
            },
            "0xb94f5374fce5edbc8e2a8697c15331677e6ebf0b" : {
                "balance" : "0x0186a0",
                "code" : "0x6040600060406000600073100000000000000000000000000000000000000161c350f1",
                "nonce" : "0x00",
                "storage" : {
                }
            }
        },
        "pre" : {
            "0x1000000000000000000000000000000000000001" : {
                "balance" : "0x00",
                "code" : "0x6001600155",
                "nonce" : "0x00",
                "storage" : {
                }
            },
            "0xa94f5374fce5edbc8e2a8697c15331677e6ebf0b" : {
                "balance" : "0x10c8e0",
                "code" : "",
                "nonce" : "0x00",
                "storage" : {
                }
            },
            "0xb94f5374fce5edbc8e2a8697c15331677e6ebf0b" : {
                "balance" : "0x0186a0",
                "code" : "0x6040600060406000600073100000000000000000000000000000000000000161c350f1",
                "nonce" : "0x00",
                "storage" : {
                }
            }
        }
    },
    "contractCreationOOGdontLeaveEmptyContractViaTransaction_d0g0v0_EIP150" : {
        "_info" : {
            "comment" : "",
            "filledwith" : "cpp-1.3.0+commit.6e0ce939.Linux.g++",
            "lllcversion" : "Version: 0.4.18-develop.2017.9.25+commit.a72237f2.Linux.g++",
            "source" : "src/BlockchainTestsFiller/GeneralStateTests/stHomesteadSpecific/contractCreationOOGdontLeaveEmptyContractViaTransaction_d0g0v0Filler.json",
            "sourceHash" : "d5f95fe15f932c1d045b367a772204ed2e9f335db5a97bcd7f4b2fc4cec49abd"
        },
        "blocks" : [
            {
                "blockHeader" : {
                    "bloom" : "0x00000000000000000000000000000000000000000000000000000000000000000000000000000000000000000000000000000000000000000000000000000000000000000000000000000000000000000000000000000000000000000000000000000000000000000000000000000000000000000000000000000000000000000000000000000000000000000000000000000000000000000000000000000000000000000000000000000000000000000000000000000000000000000000000000000000000000000000000000000000000000000000000000000000000000000000000000000000000000000000000000000000000000000000000000000000",
                    "coinbase" : "0x2adc25665018aa1fe0e6bc666dac8fc2697ff9ba",
                    "difficulty" : "0x020000",
                    "extraData" : "",
                    "gasLimit" : "0x0f4240",
                    "gasUsed" : "0x012411",
                    "hash" : "0x2568c8a29ec0ad66cb80e6c764ff34faa9f8ec885c6b2576158287344e2c9a7d",
                    "mixHash" : "0x0e1399ee58e4dc446bf6af654765ad3c628b802ea2177bc7fbc439fb00e4de5e",
                    "nonce" : "0x29c81d98ecbd8456",
                    "number" : "0x01",
                    "parentHash" : "0xe5a437534ced7e31e44e28665f1e3cc47c479a7d58c28b2c526d31c7baefa9a8",
                    "receiptTrie" : "0xa63ffb62c2696aaa17532b3586a6566b49593215b7638b0b26584099959c7c18",
                    "stateRoot" : "0x103b5b674d7a830696bf15e879c9fbe444b430115564e93a0b6a9fff57077a8a",
                    "timestamp" : "0x03e8",
                    "transactionsTrie" : "0xfadf0d215532cd6486a8ddfac719ca2eabd2547f7cda9f32185c1177c7f23d75",
                    "uncleHash" : "0x1dcc4de8dec75d7aab85b567b6ccd41ad312451b948a7413f0a142fd40d49347"
                },
                "rlp" : "0xf9026ff901f8a0e5a437534ced7e31e44e28665f1e3cc47c479a7d58c28b2c526d31c7baefa9a8a01dcc4de8dec75d7aab85b567b6ccd41ad312451b948a7413f0a142fd40d49347942adc25665018aa1fe0e6bc666dac8fc2697ff9baa0103b5b674d7a830696bf15e879c9fbe444b430115564e93a0b6a9fff57077a8aa0fadf0d215532cd6486a8ddfac719ca2eabd2547f7cda9f32185c1177c7f23d75a0a63ffb62c2696aaa17532b3586a6566b49593215b7638b0b26584099959c7c18b90100000000000000000000000000000000000000000000000000000000000000000000000000000000000000000000000000000000000000000000000000000000000000000000000000000000000000000000000000000000000000000000000000000000000000000000000000000000000000000000000000000000000000000000000000000000000000000000000000000000000000000000000000000000000000000000000000000000000000000000000000000000000000000000000000000000000000000000000000000000000000000000000000000000000000000000000000000000000000000000000000000000000000000000000000000000008302000001830f4240830124118203e880a00e1399ee58e4dc446bf6af654765ad3c628b802ea2177bc7fbc439fb00e4de5e8829c81d98ecbd8456f871f86f8001830177008080a36040600060406000600073100000000000000000000000000000000000000161c350f11ba0853740cbaebf3b696c992d835f16e8159e521ad8b04ec513949cfba45c6b9e9ea035ac6d22ac62556b698ae2c76c368a2913b380732ba26254dc785e22926476a0c0",
                "transactions" : [
                    {
                        "data" : "0x6040600060406000600073100000000000000000000000000000000000000161c350f1",
                        "gasLimit" : "0x017700",
                        "gasPrice" : "0x01",
                        "nonce" : "0x00",
                        "r" : "0x853740cbaebf3b696c992d835f16e8159e521ad8b04ec513949cfba45c6b9e9e",
                        "s" : "0x35ac6d22ac62556b698ae2c76c368a2913b380732ba26254dc785e22926476a0",
                        "to" : "",
                        "v" : "0x1b",
                        "value" : "0x00"
                    }
                ],
                "uncleHeaders" : [
                ]
            }
        ],
        "genesisBlockHeader" : {
            "bloom" : "0x00000000000000000000000000000000000000000000000000000000000000000000000000000000000000000000000000000000000000000000000000000000000000000000000000000000000000000000000000000000000000000000000000000000000000000000000000000000000000000000000000000000000000000000000000000000000000000000000000000000000000000000000000000000000000000000000000000000000000000000000000000000000000000000000000000000000000000000000000000000000000000000000000000000000000000000000000000000000000000000000000000000000000000000000000000000",
            "coinbase" : "0x2adc25665018aa1fe0e6bc666dac8fc2697ff9ba",
            "difficulty" : "0x020000",
            "extraData" : "0x42",
            "gasLimit" : "0x0f4240",
            "gasUsed" : "0x00",
            "hash" : "0xe5a437534ced7e31e44e28665f1e3cc47c479a7d58c28b2c526d31c7baefa9a8",
            "mixHash" : "0x56e81f171bcc55a6ff8345e692c0f86e5b48e01b996cadc001622fb5e363b421",
            "nonce" : "0x0102030405060708",
            "number" : "0x00",
            "parentHash" : "0x0000000000000000000000000000000000000000000000000000000000000000",
            "receiptTrie" : "0x56e81f171bcc55a6ff8345e692c0f86e5b48e01b996cadc001622fb5e363b421",
            "stateRoot" : "0x26ca89fc47fe53d151a3cbbb0e2700c971eb046457d20cffe91c448f0b4d3df5",
            "timestamp" : "0x03b6",
            "transactionsTrie" : "0x56e81f171bcc55a6ff8345e692c0f86e5b48e01b996cadc001622fb5e363b421",
            "uncleHash" : "0x1dcc4de8dec75d7aab85b567b6ccd41ad312451b948a7413f0a142fd40d49347"
        },
        "genesisRLP" : "0xf901faf901f5a00000000000000000000000000000000000000000000000000000000000000000a01dcc4de8dec75d7aab85b567b6ccd41ad312451b948a7413f0a142fd40d49347942adc25665018aa1fe0e6bc666dac8fc2697ff9baa026ca89fc47fe53d151a3cbbb0e2700c971eb046457d20cffe91c448f0b4d3df5a056e81f171bcc55a6ff8345e692c0f86e5b48e01b996cadc001622fb5e363b421a056e81f171bcc55a6ff8345e692c0f86e5b48e01b996cadc001622fb5e363b421b90100000000000000000000000000000000000000000000000000000000000000000000000000000000000000000000000000000000000000000000000000000000000000000000000000000000000000000000000000000000000000000000000000000000000000000000000000000000000000000000000000000000000000000000000000000000000000000000000000000000000000000000000000000000000000000000000000000000000000000000000000000000000000000000000000000000000000000000000000000000000000000000000000000000000000000000000000000000000000000000000000000000000000000000000000000000008302000080830f4240808203b642a056e81f171bcc55a6ff8345e692c0f86e5b48e01b996cadc001622fb5e363b421880102030405060708c0c0",
        "lastblockhash" : "0x2568c8a29ec0ad66cb80e6c764ff34faa9f8ec885c6b2576158287344e2c9a7d",
        "network" : "EIP150",
        "postState" : {
            "0x1000000000000000000000000000000000000001" : {
                "balance" : "0x00",
                "code" : "0x6001600155",
                "nonce" : "0x00",
                "storage" : {
                    "0x01" : "0x01"
                }
            },
            "0x2adc25665018aa1fe0e6bc666dac8fc2697ff9ba" : {
                "balance" : "0x4563918244f52411",
                "code" : "",
                "nonce" : "0x00",
                "storage" : {
                }
            },
            "0x6295ee1b4f6dd65047762f924ecd367c17eabf8f" : {
                "balance" : "0x00",
                "code" : "",
                "nonce" : "0x00",
                "storage" : {
                }
            },
            "0xa94f5374fce5edbc8e2a8697c15331677e6ebf0b" : {
                "balance" : "0x0fa4cf",
                "code" : "",
                "nonce" : "0x01",
                "storage" : {
                }
            },
            "0xb94f5374fce5edbc8e2a8697c15331677e6ebf0b" : {
                "balance" : "0x0186a0",
                "code" : "0x6040600060406000600073100000000000000000000000000000000000000161c350f1",
                "nonce" : "0x00",
                "storage" : {
                }
            }
        },
        "pre" : {
            "0x1000000000000000000000000000000000000001" : {
                "balance" : "0x00",
                "code" : "0x6001600155",
                "nonce" : "0x00",
                "storage" : {
                }
            },
            "0xa94f5374fce5edbc8e2a8697c15331677e6ebf0b" : {
                "balance" : "0x10c8e0",
                "code" : "",
                "nonce" : "0x00",
                "storage" : {
                }
            },
            "0xb94f5374fce5edbc8e2a8697c15331677e6ebf0b" : {
                "balance" : "0x0186a0",
                "code" : "0x6040600060406000600073100000000000000000000000000000000000000161c350f1",
                "nonce" : "0x00",
                "storage" : {
                }
            }
        }
    },
    "contractCreationOOGdontLeaveEmptyContractViaTransaction_d0g0v0_EIP158" : {
        "_info" : {
            "comment" : "",
            "filledwith" : "cpp-1.3.0+commit.6e0ce939.Linux.g++",
            "lllcversion" : "Version: 0.4.18-develop.2017.9.25+commit.a72237f2.Linux.g++",
            "source" : "src/BlockchainTestsFiller/GeneralStateTests/stHomesteadSpecific/contractCreationOOGdontLeaveEmptyContractViaTransaction_d0g0v0Filler.json",
            "sourceHash" : "d5f95fe15f932c1d045b367a772204ed2e9f335db5a97bcd7f4b2fc4cec49abd"
        },
        "blocks" : [
            {
                "blockHeader" : {
                    "bloom" : "0x00000000000000000000000000000000000000000000000000000000000000000000000000000000000000000000000000000000000000000000000000000000000000000000000000000000000000000000000000000000000000000000000000000000000000000000000000000000000000000000000000000000000000000000000000000000000000000000000000000000000000000000000000000000000000000000000000000000000000000000000000000000000000000000000000000000000000000000000000000000000000000000000000000000000000000000000000000000000000000000000000000000000000000000000000000000",
                    "coinbase" : "0x2adc25665018aa1fe0e6bc666dac8fc2697ff9ba",
                    "difficulty" : "0x020000",
                    "extraData" : "",
                    "gasLimit" : "0x0f4240",
                    "gasUsed" : "0x012411",
                    "hash" : "0x981c0d9220bf5be3b33b1982b231004f083b3d5cd79ff77515f7fae1261e188d",
                    "mixHash" : "0xa0329966971e0132af51ac60ee90c7fd44807a901039cbc8a20228ecae78dd45",
                    "nonce" : "0xc89bc850680236ea",
                    "number" : "0x01",
                    "parentHash" : "0xe5a437534ced7e31e44e28665f1e3cc47c479a7d58c28b2c526d31c7baefa9a8",
                    "receiptTrie" : "0x4e6e9fe6af22e3e907ed4065b100164275937966c9c0fb96c1c45db7121a25e3",
                    "stateRoot" : "0xb8f5c0cddc6e40944e9af47c34e7eb6d443d42601aa5ab9f92c96dfd7174467e",
                    "timestamp" : "0x03e8",
                    "transactionsTrie" : "0xfadf0d215532cd6486a8ddfac719ca2eabd2547f7cda9f32185c1177c7f23d75",
                    "uncleHash" : "0x1dcc4de8dec75d7aab85b567b6ccd41ad312451b948a7413f0a142fd40d49347"
                },
                "rlp" : "0xf9026ff901f8a0e5a437534ced7e31e44e28665f1e3cc47c479a7d58c28b2c526d31c7baefa9a8a01dcc4de8dec75d7aab85b567b6ccd41ad312451b948a7413f0a142fd40d49347942adc25665018aa1fe0e6bc666dac8fc2697ff9baa0b8f5c0cddc6e40944e9af47c34e7eb6d443d42601aa5ab9f92c96dfd7174467ea0fadf0d215532cd6486a8ddfac719ca2eabd2547f7cda9f32185c1177c7f23d75a04e6e9fe6af22e3e907ed4065b100164275937966c9c0fb96c1c45db7121a25e3b90100000000000000000000000000000000000000000000000000000000000000000000000000000000000000000000000000000000000000000000000000000000000000000000000000000000000000000000000000000000000000000000000000000000000000000000000000000000000000000000000000000000000000000000000000000000000000000000000000000000000000000000000000000000000000000000000000000000000000000000000000000000000000000000000000000000000000000000000000000000000000000000000000000000000000000000000000000000000000000000000000000000000000000000000000000000008302000001830f4240830124118203e880a0a0329966971e0132af51ac60ee90c7fd44807a901039cbc8a20228ecae78dd4588c89bc850680236eaf871f86f8001830177008080a36040600060406000600073100000000000000000000000000000000000000161c350f11ba0853740cbaebf3b696c992d835f16e8159e521ad8b04ec513949cfba45c6b9e9ea035ac6d22ac62556b698ae2c76c368a2913b380732ba26254dc785e22926476a0c0",
                "transactions" : [
                    {
                        "data" : "0x6040600060406000600073100000000000000000000000000000000000000161c350f1",
                        "gasLimit" : "0x017700",
                        "gasPrice" : "0x01",
                        "nonce" : "0x00",
                        "r" : "0x853740cbaebf3b696c992d835f16e8159e521ad8b04ec513949cfba45c6b9e9e",
                        "s" : "0x35ac6d22ac62556b698ae2c76c368a2913b380732ba26254dc785e22926476a0",
                        "to" : "",
                        "v" : "0x1b",
                        "value" : "0x00"
                    }
                ],
                "uncleHeaders" : [
                ]
            }
        ],
        "genesisBlockHeader" : {
            "bloom" : "0x00000000000000000000000000000000000000000000000000000000000000000000000000000000000000000000000000000000000000000000000000000000000000000000000000000000000000000000000000000000000000000000000000000000000000000000000000000000000000000000000000000000000000000000000000000000000000000000000000000000000000000000000000000000000000000000000000000000000000000000000000000000000000000000000000000000000000000000000000000000000000000000000000000000000000000000000000000000000000000000000000000000000000000000000000000000",
            "coinbase" : "0x2adc25665018aa1fe0e6bc666dac8fc2697ff9ba",
            "difficulty" : "0x020000",
            "extraData" : "0x42",
            "gasLimit" : "0x0f4240",
            "gasUsed" : "0x00",
            "hash" : "0xe5a437534ced7e31e44e28665f1e3cc47c479a7d58c28b2c526d31c7baefa9a8",
            "mixHash" : "0x56e81f171bcc55a6ff8345e692c0f86e5b48e01b996cadc001622fb5e363b421",
            "nonce" : "0x0102030405060708",
            "number" : "0x00",
            "parentHash" : "0x0000000000000000000000000000000000000000000000000000000000000000",
            "receiptTrie" : "0x56e81f171bcc55a6ff8345e692c0f86e5b48e01b996cadc001622fb5e363b421",
            "stateRoot" : "0x26ca89fc47fe53d151a3cbbb0e2700c971eb046457d20cffe91c448f0b4d3df5",
            "timestamp" : "0x03b6",
            "transactionsTrie" : "0x56e81f171bcc55a6ff8345e692c0f86e5b48e01b996cadc001622fb5e363b421",
            "uncleHash" : "0x1dcc4de8dec75d7aab85b567b6ccd41ad312451b948a7413f0a142fd40d49347"
        },
        "genesisRLP" : "0xf901faf901f5a00000000000000000000000000000000000000000000000000000000000000000a01dcc4de8dec75d7aab85b567b6ccd41ad312451b948a7413f0a142fd40d49347942adc25665018aa1fe0e6bc666dac8fc2697ff9baa026ca89fc47fe53d151a3cbbb0e2700c971eb046457d20cffe91c448f0b4d3df5a056e81f171bcc55a6ff8345e692c0f86e5b48e01b996cadc001622fb5e363b421a056e81f171bcc55a6ff8345e692c0f86e5b48e01b996cadc001622fb5e363b421b90100000000000000000000000000000000000000000000000000000000000000000000000000000000000000000000000000000000000000000000000000000000000000000000000000000000000000000000000000000000000000000000000000000000000000000000000000000000000000000000000000000000000000000000000000000000000000000000000000000000000000000000000000000000000000000000000000000000000000000000000000000000000000000000000000000000000000000000000000000000000000000000000000000000000000000000000000000000000000000000000000000000000000000000000000000000008302000080830f4240808203b642a056e81f171bcc55a6ff8345e692c0f86e5b48e01b996cadc001622fb5e363b421880102030405060708c0c0",
        "lastblockhash" : "0x981c0d9220bf5be3b33b1982b231004f083b3d5cd79ff77515f7fae1261e188d",
        "network" : "EIP158",
        "postState" : {
            "0x1000000000000000000000000000000000000001" : {
                "balance" : "0x00",
                "code" : "0x6001600155",
                "nonce" : "0x00",
                "storage" : {
                    "0x01" : "0x01"
                }
            },
            "0x2adc25665018aa1fe0e6bc666dac8fc2697ff9ba" : {
                "balance" : "0x4563918244f52411",
                "code" : "",
                "nonce" : "0x00",
                "storage" : {
                }
            },
            "0x6295ee1b4f6dd65047762f924ecd367c17eabf8f" : {
                "balance" : "0x00",
                "code" : "",
                "nonce" : "0x01",
                "storage" : {
                }
            },
            "0xa94f5374fce5edbc8e2a8697c15331677e6ebf0b" : {
                "balance" : "0x0fa4cf",
                "code" : "",
                "nonce" : "0x01",
                "storage" : {
                }
            },
            "0xb94f5374fce5edbc8e2a8697c15331677e6ebf0b" : {
                "balance" : "0x0186a0",
                "code" : "0x6040600060406000600073100000000000000000000000000000000000000161c350f1",
                "nonce" : "0x00",
                "storage" : {
                }
            }
        },
        "pre" : {
            "0x1000000000000000000000000000000000000001" : {
                "balance" : "0x00",
                "code" : "0x6001600155",
                "nonce" : "0x00",
                "storage" : {
                }
            },
            "0xa94f5374fce5edbc8e2a8697c15331677e6ebf0b" : {
                "balance" : "0x10c8e0",
                "code" : "",
                "nonce" : "0x00",
                "storage" : {
                }
            },
            "0xb94f5374fce5edbc8e2a8697c15331677e6ebf0b" : {
                "balance" : "0x0186a0",
                "code" : "0x6040600060406000600073100000000000000000000000000000000000000161c350f1",
                "nonce" : "0x00",
                "storage" : {
                }
            }
        }
    },
    "contractCreationOOGdontLeaveEmptyContractViaTransaction_d0g0v0_Frontier" : {
        "_info" : {
            "comment" : "",
            "filledwith" : "cpp-1.3.0+commit.6e0ce939.Linux.g++",
            "lllcversion" : "Version: 0.4.18-develop.2017.9.25+commit.a72237f2.Linux.g++",
            "source" : "src/BlockchainTestsFiller/GeneralStateTests/stHomesteadSpecific/contractCreationOOGdontLeaveEmptyContractViaTransaction_d0g0v0Filler.json",
            "sourceHash" : "d5f95fe15f932c1d045b367a772204ed2e9f335db5a97bcd7f4b2fc4cec49abd"
        },
        "blocks" : [
            {
                "blockHeader" : {
                    "bloom" : "0x00000000000000000000000000000000000000000000000000000000000000000000000000000000000000000000000000000000000000000000000000000000000000000000000000000000000000000000000000000000000000000000000000000000000000000000000000000000000000000000000000000000000000000000000000000000000000000000000000000000000000000000000000000000000000000000000000000000000000000000000000000000000000000000000000000000000000000000000000000000000000000000000000000000000000000000000000000000000000000000000000000000000000000000000000000000",
                    "coinbase" : "0x2adc25665018aa1fe0e6bc666dac8fc2697ff9ba",
                    "difficulty" : "0x020000",
                    "extraData" : "",
                    "gasLimit" : "0x0f4240",
                    "gasUsed" : "0xa47d",
                    "hash" : "0x4a029ed09d08407e20050fe4b3dcb7d74aedcc047ffd1f0725635c42ab07015e",
                    "mixHash" : "0x9c187cbec4da7574a286fe84a73079efcbd299efbd55cadd1b7e45b1a06ce9fd",
                    "nonce" : "0x34f4f02d3e7586b1",
                    "number" : "0x01",
                    "parentHash" : "0xe5a437534ced7e31e44e28665f1e3cc47c479a7d58c28b2c526d31c7baefa9a8",
                    "receiptTrie" : "0x9b272ec522fa063a87654d4e0b48c53dc6fbf4c8d5a6b2c43984f81def85ed37",
                    "stateRoot" : "0xd1a45c49b6abedf18effe65923902759e52367b5e7dfb08d1ef92c7b6a1dd280",
                    "timestamp" : "0x03e8",
                    "transactionsTrie" : "0xfadf0d215532cd6486a8ddfac719ca2eabd2547f7cda9f32185c1177c7f23d75",
                    "uncleHash" : "0x1dcc4de8dec75d7aab85b567b6ccd41ad312451b948a7413f0a142fd40d49347"
                },
                "rlp" : "0xf9026ef901f7a0e5a437534ced7e31e44e28665f1e3cc47c479a7d58c28b2c526d31c7baefa9a8a01dcc4de8dec75d7aab85b567b6ccd41ad312451b948a7413f0a142fd40d49347942adc25665018aa1fe0e6bc666dac8fc2697ff9baa0d1a45c49b6abedf18effe65923902759e52367b5e7dfb08d1ef92c7b6a1dd280a0fadf0d215532cd6486a8ddfac719ca2eabd2547f7cda9f32185c1177c7f23d75a09b272ec522fa063a87654d4e0b48c53dc6fbf4c8d5a6b2c43984f81def85ed37b90100000000000000000000000000000000000000000000000000000000000000000000000000000000000000000000000000000000000000000000000000000000000000000000000000000000000000000000000000000000000000000000000000000000000000000000000000000000000000000000000000000000000000000000000000000000000000000000000000000000000000000000000000000000000000000000000000000000000000000000000000000000000000000000000000000000000000000000000000000000000000000000000000000000000000000000000000000000000000000000000000000000000000000000000000000000008302000001830f424082a47d8203e880a09c187cbec4da7574a286fe84a73079efcbd299efbd55cadd1b7e45b1a06ce9fd8834f4f02d3e7586b1f871f86f8001830177008080a36040600060406000600073100000000000000000000000000000000000000161c350f11ba0853740cbaebf3b696c992d835f16e8159e521ad8b04ec513949cfba45c6b9e9ea035ac6d22ac62556b698ae2c76c368a2913b380732ba26254dc785e22926476a0c0",
                "transactions" : [
                    {
                        "data" : "0x6040600060406000600073100000000000000000000000000000000000000161c350f1",
                        "gasLimit" : "0x017700",
                        "gasPrice" : "0x01",
                        "nonce" : "0x00",
                        "r" : "0x853740cbaebf3b696c992d835f16e8159e521ad8b04ec513949cfba45c6b9e9e",
                        "s" : "0x35ac6d22ac62556b698ae2c76c368a2913b380732ba26254dc785e22926476a0",
                        "to" : "",
                        "v" : "0x1b",
                        "value" : "0x00"
                    }
                ],
                "uncleHeaders" : [
                ]
            }
        ],
        "genesisBlockHeader" : {
            "bloom" : "0x00000000000000000000000000000000000000000000000000000000000000000000000000000000000000000000000000000000000000000000000000000000000000000000000000000000000000000000000000000000000000000000000000000000000000000000000000000000000000000000000000000000000000000000000000000000000000000000000000000000000000000000000000000000000000000000000000000000000000000000000000000000000000000000000000000000000000000000000000000000000000000000000000000000000000000000000000000000000000000000000000000000000000000000000000000000",
            "coinbase" : "0x2adc25665018aa1fe0e6bc666dac8fc2697ff9ba",
            "difficulty" : "0x020000",
            "extraData" : "0x42",
            "gasLimit" : "0x0f4240",
            "gasUsed" : "0x00",
            "hash" : "0xe5a437534ced7e31e44e28665f1e3cc47c479a7d58c28b2c526d31c7baefa9a8",
            "mixHash" : "0x56e81f171bcc55a6ff8345e692c0f86e5b48e01b996cadc001622fb5e363b421",
            "nonce" : "0x0102030405060708",
            "number" : "0x00",
            "parentHash" : "0x0000000000000000000000000000000000000000000000000000000000000000",
            "receiptTrie" : "0x56e81f171bcc55a6ff8345e692c0f86e5b48e01b996cadc001622fb5e363b421",
            "stateRoot" : "0x26ca89fc47fe53d151a3cbbb0e2700c971eb046457d20cffe91c448f0b4d3df5",
            "timestamp" : "0x03b6",
            "transactionsTrie" : "0x56e81f171bcc55a6ff8345e692c0f86e5b48e01b996cadc001622fb5e363b421",
            "uncleHash" : "0x1dcc4de8dec75d7aab85b567b6ccd41ad312451b948a7413f0a142fd40d49347"
        },
        "genesisRLP" : "0xf901faf901f5a00000000000000000000000000000000000000000000000000000000000000000a01dcc4de8dec75d7aab85b567b6ccd41ad312451b948a7413f0a142fd40d49347942adc25665018aa1fe0e6bc666dac8fc2697ff9baa026ca89fc47fe53d151a3cbbb0e2700c971eb046457d20cffe91c448f0b4d3df5a056e81f171bcc55a6ff8345e692c0f86e5b48e01b996cadc001622fb5e363b421a056e81f171bcc55a6ff8345e692c0f86e5b48e01b996cadc001622fb5e363b421b90100000000000000000000000000000000000000000000000000000000000000000000000000000000000000000000000000000000000000000000000000000000000000000000000000000000000000000000000000000000000000000000000000000000000000000000000000000000000000000000000000000000000000000000000000000000000000000000000000000000000000000000000000000000000000000000000000000000000000000000000000000000000000000000000000000000000000000000000000000000000000000000000000000000000000000000000000000000000000000000000000000000000000000000000000000000008302000080830f4240808203b642a056e81f171bcc55a6ff8345e692c0f86e5b48e01b996cadc001622fb5e363b421880102030405060708c0c0",
        "lastblockhash" : "0x4a029ed09d08407e20050fe4b3dcb7d74aedcc047ffd1f0725635c42ab07015e",
        "network" : "Frontier",
        "postState" : {
            "0x1000000000000000000000000000000000000001" : {
                "balance" : "0x00",
                "code" : "0x6001600155",
                "nonce" : "0x00",
                "storage" : {
                    "0x01" : "0x01"
                }
            },
            "0x2adc25665018aa1fe0e6bc666dac8fc2697ff9ba" : {
                "balance" : "0x4563918244f4a47d",
                "code" : "",
                "nonce" : "0x00",
                "storage" : {
                }
            },
            "0x6295ee1b4f6dd65047762f924ecd367c17eabf8f" : {
                "balance" : "0x00",
                "code" : "",
                "nonce" : "0x00",
                "storage" : {
                }
            },
            "0xa94f5374fce5edbc8e2a8697c15331677e6ebf0b" : {
                "balance" : "0x102463",
                "code" : "",
                "nonce" : "0x01",
                "storage" : {
                }
            },
            "0xb94f5374fce5edbc8e2a8697c15331677e6ebf0b" : {
                "balance" : "0x0186a0",
                "code" : "0x6040600060406000600073100000000000000000000000000000000000000161c350f1",
                "nonce" : "0x00",
                "storage" : {
                }
            }
        },
        "pre" : {
            "0x1000000000000000000000000000000000000001" : {
                "balance" : "0x00",
                "code" : "0x6001600155",
                "nonce" : "0x00",
                "storage" : {
                }
            },
            "0xa94f5374fce5edbc8e2a8697c15331677e6ebf0b" : {
                "balance" : "0x10c8e0",
                "code" : "",
                "nonce" : "0x00",
                "storage" : {
                }
            },
            "0xb94f5374fce5edbc8e2a8697c15331677e6ebf0b" : {
                "balance" : "0x0186a0",
                "code" : "0x6040600060406000600073100000000000000000000000000000000000000161c350f1",
                "nonce" : "0x00",
                "storage" : {
                }
            }
        }
    },
    "contractCreationOOGdontLeaveEmptyContractViaTransaction_d0g0v0_Homestead" : {
        "_info" : {
            "comment" : "",
            "filledwith" : "cpp-1.3.0+commit.6e0ce939.Linux.g++",
            "lllcversion" : "Version: 0.4.18-develop.2017.9.25+commit.a72237f2.Linux.g++",
            "source" : "src/BlockchainTestsFiller/GeneralStateTests/stHomesteadSpecific/contractCreationOOGdontLeaveEmptyContractViaTransaction_d0g0v0Filler.json",
            "sourceHash" : "d5f95fe15f932c1d045b367a772204ed2e9f335db5a97bcd7f4b2fc4cec49abd"
        },
        "blocks" : [
            {
                "blockHeader" : {
                    "bloom" : "0x00000000000000000000000000000000000000000000000000000000000000000000000000000000000000000000000000000000000000000000000000000000000000000000000000000000000000000000000000000000000000000000000000000000000000000000000000000000000000000000000000000000000000000000000000000000000000000000000000000000000000000000000000000000000000000000000000000000000000000000000000000000000000000000000000000000000000000000000000000000000000000000000000000000000000000000000000000000000000000000000000000000000000000000000000000000",
                    "coinbase" : "0x2adc25665018aa1fe0e6bc666dac8fc2697ff9ba",
                    "difficulty" : "0x020000",
                    "extraData" : "",
                    "gasLimit" : "0x0f4240",
                    "gasUsed" : "0x017700",
                    "hash" : "0xb503eb1e4ad686789e5686cc53a43b4a58132f7aad8a21ee3952ab6fb898bfc6",
                    "mixHash" : "0x569f370adc0953a202007c1f15ce0ac7e8fe7e146eca01b35a4f6f5697815fd3",
                    "nonce" : "0x5e31d4348ea49e29",
                    "number" : "0x01",
                    "parentHash" : "0xe5a437534ced7e31e44e28665f1e3cc47c479a7d58c28b2c526d31c7baefa9a8",
                    "receiptTrie" : "0x52ebd4980507f15b1e600aafc55aad09e79cf6dc34778fc11cb4a7a6547e61be",
                    "stateRoot" : "0x20f67f4727a30a2a08b10addb6b064f4352155d1a33668d3037221e0477c053f",
                    "timestamp" : "0x03e8",
                    "transactionsTrie" : "0xfadf0d215532cd6486a8ddfac719ca2eabd2547f7cda9f32185c1177c7f23d75",
                    "uncleHash" : "0x1dcc4de8dec75d7aab85b567b6ccd41ad312451b948a7413f0a142fd40d49347"
                },
                "rlp" : "0xf9026ff901f8a0e5a437534ced7e31e44e28665f1e3cc47c479a7d58c28b2c526d31c7baefa9a8a01dcc4de8dec75d7aab85b567b6ccd41ad312451b948a7413f0a142fd40d49347942adc25665018aa1fe0e6bc666dac8fc2697ff9baa020f67f4727a30a2a08b10addb6b064f4352155d1a33668d3037221e0477c053fa0fadf0d215532cd6486a8ddfac719ca2eabd2547f7cda9f32185c1177c7f23d75a052ebd4980507f15b1e600aafc55aad09e79cf6dc34778fc11cb4a7a6547e61beb90100000000000000000000000000000000000000000000000000000000000000000000000000000000000000000000000000000000000000000000000000000000000000000000000000000000000000000000000000000000000000000000000000000000000000000000000000000000000000000000000000000000000000000000000000000000000000000000000000000000000000000000000000000000000000000000000000000000000000000000000000000000000000000000000000000000000000000000000000000000000000000000000000000000000000000000000000000000000000000000000000000000000000000000000000000000008302000001830f4240830177008203e880a0569f370adc0953a202007c1f15ce0ac7e8fe7e146eca01b35a4f6f5697815fd3885e31d4348ea49e29f871f86f8001830177008080a36040600060406000600073100000000000000000000000000000000000000161c350f11ba0853740cbaebf3b696c992d835f16e8159e521ad8b04ec513949cfba45c6b9e9ea035ac6d22ac62556b698ae2c76c368a2913b380732ba26254dc785e22926476a0c0",
                "transactions" : [
                    {
                        "data" : "0x6040600060406000600073100000000000000000000000000000000000000161c350f1",
                        "gasLimit" : "0x017700",
                        "gasPrice" : "0x01",
                        "nonce" : "0x00",
                        "r" : "0x853740cbaebf3b696c992d835f16e8159e521ad8b04ec513949cfba45c6b9e9e",
                        "s" : "0x35ac6d22ac62556b698ae2c76c368a2913b380732ba26254dc785e22926476a0",
                        "to" : "",
                        "v" : "0x1b",
                        "value" : "0x00"
                    }
                ],
                "uncleHeaders" : [
                ]
            }
        ],
        "genesisBlockHeader" : {
            "bloom" : "0x00000000000000000000000000000000000000000000000000000000000000000000000000000000000000000000000000000000000000000000000000000000000000000000000000000000000000000000000000000000000000000000000000000000000000000000000000000000000000000000000000000000000000000000000000000000000000000000000000000000000000000000000000000000000000000000000000000000000000000000000000000000000000000000000000000000000000000000000000000000000000000000000000000000000000000000000000000000000000000000000000000000000000000000000000000000",
            "coinbase" : "0x2adc25665018aa1fe0e6bc666dac8fc2697ff9ba",
            "difficulty" : "0x020000",
            "extraData" : "0x42",
            "gasLimit" : "0x0f4240",
            "gasUsed" : "0x00",
            "hash" : "0xe5a437534ced7e31e44e28665f1e3cc47c479a7d58c28b2c526d31c7baefa9a8",
            "mixHash" : "0x56e81f171bcc55a6ff8345e692c0f86e5b48e01b996cadc001622fb5e363b421",
            "nonce" : "0x0102030405060708",
            "number" : "0x00",
            "parentHash" : "0x0000000000000000000000000000000000000000000000000000000000000000",
            "receiptTrie" : "0x56e81f171bcc55a6ff8345e692c0f86e5b48e01b996cadc001622fb5e363b421",
            "stateRoot" : "0x26ca89fc47fe53d151a3cbbb0e2700c971eb046457d20cffe91c448f0b4d3df5",
            "timestamp" : "0x03b6",
            "transactionsTrie" : "0x56e81f171bcc55a6ff8345e692c0f86e5b48e01b996cadc001622fb5e363b421",
            "uncleHash" : "0x1dcc4de8dec75d7aab85b567b6ccd41ad312451b948a7413f0a142fd40d49347"
        },
        "genesisRLP" : "0xf901faf901f5a00000000000000000000000000000000000000000000000000000000000000000a01dcc4de8dec75d7aab85b567b6ccd41ad312451b948a7413f0a142fd40d49347942adc25665018aa1fe0e6bc666dac8fc2697ff9baa026ca89fc47fe53d151a3cbbb0e2700c971eb046457d20cffe91c448f0b4d3df5a056e81f171bcc55a6ff8345e692c0f86e5b48e01b996cadc001622fb5e363b421a056e81f171bcc55a6ff8345e692c0f86e5b48e01b996cadc001622fb5e363b421b90100000000000000000000000000000000000000000000000000000000000000000000000000000000000000000000000000000000000000000000000000000000000000000000000000000000000000000000000000000000000000000000000000000000000000000000000000000000000000000000000000000000000000000000000000000000000000000000000000000000000000000000000000000000000000000000000000000000000000000000000000000000000000000000000000000000000000000000000000000000000000000000000000000000000000000000000000000000000000000000000000000000000000000000000000000000008302000080830f4240808203b642a056e81f171bcc55a6ff8345e692c0f86e5b48e01b996cadc001622fb5e363b421880102030405060708c0c0",
        "lastblockhash" : "0xb503eb1e4ad686789e5686cc53a43b4a58132f7aad8a21ee3952ab6fb898bfc6",
        "network" : "Homestead",
        "postState" : {
            "0x1000000000000000000000000000000000000001" : {
                "balance" : "0x00",
                "code" : "0x6001600155",
                "nonce" : "0x00",
                "storage" : {
                }
            },
            "0x2adc25665018aa1fe0e6bc666dac8fc2697ff9ba" : {
                "balance" : "0x4563918244f57700",
                "code" : "",
                "nonce" : "0x00",
                "storage" : {
                }
            },
            "0xa94f5374fce5edbc8e2a8697c15331677e6ebf0b" : {
                "balance" : "0x0f51e0",
                "code" : "",
                "nonce" : "0x01",
                "storage" : {
                }
            },
            "0xb94f5374fce5edbc8e2a8697c15331677e6ebf0b" : {
                "balance" : "0x0186a0",
                "code" : "0x6040600060406000600073100000000000000000000000000000000000000161c350f1",
                "nonce" : "0x00",
                "storage" : {
                }
            }
        },
        "pre" : {
            "0x1000000000000000000000000000000000000001" : {
                "balance" : "0x00",
                "code" : "0x6001600155",
                "nonce" : "0x00",
                "storage" : {
                }
            },
            "0xa94f5374fce5edbc8e2a8697c15331677e6ebf0b" : {
                "balance" : "0x10c8e0",
                "code" : "",
                "nonce" : "0x00",
                "storage" : {
                }
            },
            "0xb94f5374fce5edbc8e2a8697c15331677e6ebf0b" : {
                "balance" : "0x0186a0",
                "code" : "0x6040600060406000600073100000000000000000000000000000000000000161c350f1",
                "nonce" : "0x00",
                "storage" : {
                }
            }
        }
    }
}