{
    "contractCreationOOGdontLeaveEmptyContract_d0g0v0_Byzantium" : {
        "_info" : {
            "comment" : "",
            "filledwith" : "cpp-1.3.0+commit.6e0ce939.Linux.g++",
            "lllcversion" : "Version: 0.4.18-develop.2017.9.25+commit.a72237f2.Linux.g++",
            "source" : "src/BlockchainTestsFiller/GeneralStateTests/stHomesteadSpecific/contractCreationOOGdontLeaveEmptyContract_d0g0v0Filler.json",
            "sourceHash" : "4e8ccf278c1c92a487a8872b6b7dc32d48c270c56f2b9e56074ee617b8765d0f"
        },
        "blocks" : [
            {
                "blockHeader" : {
                    "bloom" : "0x00000000000000000000000000000000000000000000000000000000000000000000000000000000000000000000000000000000000000000000000000000000000000000000000000000000000000000000000000000000000000000000000000000000000000000000000000000000000000000000000000000000000000000000000000000000000000000000000000000000000000000000000000000000000000000000000000000000000000000000000000000000000000000000000000000000000000000000000000000000000000000000000000000000000000000000000000000000000000000000000000000000000000000000000000000000",
                    "coinbase" : "0x2adc25665018aa1fe0e6bc666dac8fc2697ff9ba",
                    "difficulty" : "0x020000",
                    "extraData" : "",
                    "gasLimit" : "0x0f4240",
                    "gasUsed" : "0x016a48",
                    "hash" : "0xae0a2860f0199df2771de72bb13d5f68f5f33680ed5883b70a69089b9568cb68",
                    "mixHash" : "0xac4d3291cf24bbe3b0002a3aa6f559a4d7efadf0c2277ddc9149d45f694e4a9e",
                    "nonce" : "0x6fbb81f374f79775",
                    "number" : "0x01",
                    "parentHash" : "0xc197dd8d242ed404c45ba3296a0a3e60664a00eb52be61c81a750eb1f128ecde",
                    "receiptTrie" : "0x3668343422de198ffb815b81ab0f6d39d132bc7068af5fee12b292adc49098cd",
                    "stateRoot" : "0x6041faacfe4846f218280bfccb54b5d2a55d12a520e43a1c5237277e99d8d721",
                    "timestamp" : "0x03e8",
                    "transactionsTrie" : "0x5886f6d8c18d2ab5f33bb64a328d6eb09255443e2775248b610adabff31e790a",
                    "uncleHash" : "0x1dcc4de8dec75d7aab85b567b6ccd41ad312451b948a7413f0a142fd40d49347"
                },
                "rlp" : "0xf90260f901f8a0c197dd8d242ed404c45ba3296a0a3e60664a00eb52be61c81a750eb1f128ecdea01dcc4de8dec75d7aab85b567b6ccd41ad312451b948a7413f0a142fd40d49347942adc25665018aa1fe0e6bc666dac8fc2697ff9baa06041faacfe4846f218280bfccb54b5d2a55d12a520e43a1c5237277e99d8d721a05886f6d8c18d2ab5f33bb64a328d6eb09255443e2775248b610adabff31e790aa03668343422de198ffb815b81ab0f6d39d132bc7068af5fee12b292adc49098cdb90100000000000000000000000000000000000000000000000000000000000000000000000000000000000000000000000000000000000000000000000000000000000000000000000000000000000000000000000000000000000000000000000000000000000000000000000000000000000000000000000000000000000000000000000000000000000000000000000000000000000000000000000000000000000000000000000000000000000000000000000000000000000000000000000000000000000000000000000000000000000000000000000000000000000000000000000000000000000000000000000000000000000000000000000000000000008302000001830f424083016a488203e880a0ac4d3291cf24bbe3b0002a3aa6f559a4d7efadf0c2277ddc9149d45f694e4a9e886fbb81f374f79775f862f860800183016b8094100000000000000000000000000000000000000180801ca048fcbe6740dbb3ae8557dd1370ebd60e8fad8925522eeb2689984ef8241ae4d8a008f0cf92d81454dab493ab6b0cb3b69aec915cf8ab06bdeac36f617094f9c8d3c0",
                "transactions" : [
                    {
                        "data" : "",
                        "gasLimit" : "0x016b80",
                        "gasPrice" : "0x01",
                        "nonce" : "0x00",
                        "r" : "0x48fcbe6740dbb3ae8557dd1370ebd60e8fad8925522eeb2689984ef8241ae4d8",
                        "s" : "0x08f0cf92d81454dab493ab6b0cb3b69aec915cf8ab06bdeac36f617094f9c8d3",
                        "to" : "0x1000000000000000000000000000000000000001",
                        "v" : "0x1c",
                        "value" : "0x00"
                    }
                ],
                "uncleHeaders" : [
                ]
            }
        ],
        "genesisBlockHeader" : {
            "bloom" : "0x00000000000000000000000000000000000000000000000000000000000000000000000000000000000000000000000000000000000000000000000000000000000000000000000000000000000000000000000000000000000000000000000000000000000000000000000000000000000000000000000000000000000000000000000000000000000000000000000000000000000000000000000000000000000000000000000000000000000000000000000000000000000000000000000000000000000000000000000000000000000000000000000000000000000000000000000000000000000000000000000000000000000000000000000000000000",
            "coinbase" : "0x2adc25665018aa1fe0e6bc666dac8fc2697ff9ba",
            "difficulty" : "0x020000",
            "extraData" : "0x42",
            "gasLimit" : "0x0f4240",
            "gasUsed" : "0x00",
            "hash" : "0xc197dd8d242ed404c45ba3296a0a3e60664a00eb52be61c81a750eb1f128ecde",
            "mixHash" : "0x56e81f171bcc55a6ff8345e692c0f86e5b48e01b996cadc001622fb5e363b421",
            "nonce" : "0x0102030405060708",
            "number" : "0x00",
            "parentHash" : "0x0000000000000000000000000000000000000000000000000000000000000000",
            "receiptTrie" : "0x56e81f171bcc55a6ff8345e692c0f86e5b48e01b996cadc001622fb5e363b421",
            "stateRoot" : "0x21e213bbb6a6590941ab30ef7e13e57dcd51e8619ed98ad82cb2aa6996327482",
            "timestamp" : "0x03b6",
            "transactionsTrie" : "0x56e81f171bcc55a6ff8345e692c0f86e5b48e01b996cadc001622fb5e363b421",
            "uncleHash" : "0x1dcc4de8dec75d7aab85b567b6ccd41ad312451b948a7413f0a142fd40d49347"
        },
        "genesisRLP" : "0xf901faf901f5a00000000000000000000000000000000000000000000000000000000000000000a01dcc4de8dec75d7aab85b567b6ccd41ad312451b948a7413f0a142fd40d49347942adc25665018aa1fe0e6bc666dac8fc2697ff9baa021e213bbb6a6590941ab30ef7e13e57dcd51e8619ed98ad82cb2aa6996327482a056e81f171bcc55a6ff8345e692c0f86e5b48e01b996cadc001622fb5e363b421a056e81f171bcc55a6ff8345e692c0f86e5b48e01b996cadc001622fb5e363b421b90100000000000000000000000000000000000000000000000000000000000000000000000000000000000000000000000000000000000000000000000000000000000000000000000000000000000000000000000000000000000000000000000000000000000000000000000000000000000000000000000000000000000000000000000000000000000000000000000000000000000000000000000000000000000000000000000000000000000000000000000000000000000000000000000000000000000000000000000000000000000000000000000000000000000000000000000000000000000000000000000000000000000000000000000000000000008302000080830f4240808203b642a056e81f171bcc55a6ff8345e692c0f86e5b48e01b996cadc001622fb5e363b421880102030405060708c0c0",
        "lastblockhash" : "0xae0a2860f0199df2771de72bb13d5f68f5f33680ed5883b70a69089b9568cb68",
        "network" : "Byzantium",
        "postState" : {
            "0x1000000000000000000000000000000000000001" : {
                "balance" : "0x00",
                "code" : "0x60106001557f6001600155601080600c6000396000f3006000355415600957005b6020356000600052602060006000f0",
                "nonce" : "0x01",
                "storage" : {
                    "0x01" : "0x10"
                }
            },
            "0x2adc25665018aa1fe0e6bc666dac8fc2697ff9ba" : {
                "balance" : "0x29a2241af62d6a48",
                "code" : "",
                "nonce" : "0x00",
                "storage" : {
                }
            },
            "0xa94f5374fce5edbc8e2a8697c15331677e6ebf0b" : {
                "balance" : "0x1c58",
                "code" : "",
                "nonce" : "0x01",
                "storage" : {
                }
            }
        },
        "pre" : {
            "0x1000000000000000000000000000000000000001" : {
                "balance" : "0x00",
                "code" : "0x60106001557f6001600155601080600c6000396000f3006000355415600957005b6020356000600052602060006000f0",
                "nonce" : "0x00",
                "storage" : {
                }
            },
            "0xa94f5374fce5edbc8e2a8697c15331677e6ebf0b" : {
                "balance" : "0x0186a0",
                "code" : "",
                "nonce" : "0x00",
                "storage" : {
                }
            }
        }
    },
    "contractCreationOOGdontLeaveEmptyContract_d0g0v0_EIP150" : {
        "_info" : {
            "comment" : "",
            "filledwith" : "cpp-1.3.0+commit.6e0ce939.Linux.g++",
            "lllcversion" : "Version: 0.4.18-develop.2017.9.25+commit.a72237f2.Linux.g++",
            "source" : "src/BlockchainTestsFiller/GeneralStateTests/stHomesteadSpecific/contractCreationOOGdontLeaveEmptyContract_d0g0v0Filler.json",
            "sourceHash" : "4e8ccf278c1c92a487a8872b6b7dc32d48c270c56f2b9e56074ee617b8765d0f"
        },
        "blocks" : [
            {
                "blockHeader" : {
                    "bloom" : "0x00000000000000000000000000000000000000000000000000000000000000000000000000000000000000000000000000000000000000000000000000000000000000000000000000000000000000000000000000000000000000000000000000000000000000000000000000000000000000000000000000000000000000000000000000000000000000000000000000000000000000000000000000000000000000000000000000000000000000000000000000000000000000000000000000000000000000000000000000000000000000000000000000000000000000000000000000000000000000000000000000000000000000000000000000000000",
                    "coinbase" : "0x2adc25665018aa1fe0e6bc666dac8fc2697ff9ba",
                    "difficulty" : "0x020000",
                    "extraData" : "",
                    "gasLimit" : "0x0f4240",
                    "gasUsed" : "0x016a48",
                    "hash" : "0xd7ad5365556c650bdc0078eecb496c932d8b181e9a1e3cdb3a854f3d6cc4424a",
                    "mixHash" : "0xba6c677a6e00ae06a44847f87ad4c486c5853a9ae1af43c6e6f49edef4ff67e3",
                    "nonce" : "0x63106ccdbcc7bb72",
                    "number" : "0x01",
                    "parentHash" : "0xc197dd8d242ed404c45ba3296a0a3e60664a00eb52be61c81a750eb1f128ecde",
                    "receiptTrie" : "0xed4572e94671ef02cc28c296afb667fbd0caa8f195443db78053d7293f2d815a",
                    "stateRoot" : "0x6d62c8781dbe8448076e10b6f083cd2b2b418c22639d6831ad776de2e031d110",
                    "timestamp" : "0x03e8",
                    "transactionsTrie" : "0x5886f6d8c18d2ab5f33bb64a328d6eb09255443e2775248b610adabff31e790a",
                    "uncleHash" : "0x1dcc4de8dec75d7aab85b567b6ccd41ad312451b948a7413f0a142fd40d49347"
                },
                "rlp" : "0xf90260f901f8a0c197dd8d242ed404c45ba3296a0a3e60664a00eb52be61c81a750eb1f128ecdea01dcc4de8dec75d7aab85b567b6ccd41ad312451b948a7413f0a142fd40d49347942adc25665018aa1fe0e6bc666dac8fc2697ff9baa06d62c8781dbe8448076e10b6f083cd2b2b418c22639d6831ad776de2e031d110a05886f6d8c18d2ab5f33bb64a328d6eb09255443e2775248b610adabff31e790aa0ed4572e94671ef02cc28c296afb667fbd0caa8f195443db78053d7293f2d815ab90100000000000000000000000000000000000000000000000000000000000000000000000000000000000000000000000000000000000000000000000000000000000000000000000000000000000000000000000000000000000000000000000000000000000000000000000000000000000000000000000000000000000000000000000000000000000000000000000000000000000000000000000000000000000000000000000000000000000000000000000000000000000000000000000000000000000000000000000000000000000000000000000000000000000000000000000000000000000000000000000000000000000000000000000000000000008302000001830f424083016a488203e880a0ba6c677a6e00ae06a44847f87ad4c486c5853a9ae1af43c6e6f49edef4ff67e38863106ccdbcc7bb72f862f860800183016b8094100000000000000000000000000000000000000180801ca048fcbe6740dbb3ae8557dd1370ebd60e8fad8925522eeb2689984ef8241ae4d8a008f0cf92d81454dab493ab6b0cb3b69aec915cf8ab06bdeac36f617094f9c8d3c0",
                "transactions" : [
                    {
                        "data" : "",
                        "gasLimit" : "0x016b80",
                        "gasPrice" : "0x01",
                        "nonce" : "0x00",
                        "r" : "0x48fcbe6740dbb3ae8557dd1370ebd60e8fad8925522eeb2689984ef8241ae4d8",
                        "s" : "0x08f0cf92d81454dab493ab6b0cb3b69aec915cf8ab06bdeac36f617094f9c8d3",
                        "to" : "0x1000000000000000000000000000000000000001",
                        "v" : "0x1c",
                        "value" : "0x00"
                    }
                ],
                "uncleHeaders" : [
                ]
            }
        ],
        "genesisBlockHeader" : {
            "bloom" : "0x00000000000000000000000000000000000000000000000000000000000000000000000000000000000000000000000000000000000000000000000000000000000000000000000000000000000000000000000000000000000000000000000000000000000000000000000000000000000000000000000000000000000000000000000000000000000000000000000000000000000000000000000000000000000000000000000000000000000000000000000000000000000000000000000000000000000000000000000000000000000000000000000000000000000000000000000000000000000000000000000000000000000000000000000000000000",
            "coinbase" : "0x2adc25665018aa1fe0e6bc666dac8fc2697ff9ba",
            "difficulty" : "0x020000",
            "extraData" : "0x42",
            "gasLimit" : "0x0f4240",
            "gasUsed" : "0x00",
            "hash" : "0xc197dd8d242ed404c45ba3296a0a3e60664a00eb52be61c81a750eb1f128ecde",
            "mixHash" : "0x56e81f171bcc55a6ff8345e692c0f86e5b48e01b996cadc001622fb5e363b421",
            "nonce" : "0x0102030405060708",
            "number" : "0x00",
            "parentHash" : "0x0000000000000000000000000000000000000000000000000000000000000000",
            "receiptTrie" : "0x56e81f171bcc55a6ff8345e692c0f86e5b48e01b996cadc001622fb5e363b421",
            "stateRoot" : "0x21e213bbb6a6590941ab30ef7e13e57dcd51e8619ed98ad82cb2aa6996327482",
            "timestamp" : "0x03b6",
            "transactionsTrie" : "0x56e81f171bcc55a6ff8345e692c0f86e5b48e01b996cadc001622fb5e363b421",
            "uncleHash" : "0x1dcc4de8dec75d7aab85b567b6ccd41ad312451b948a7413f0a142fd40d49347"
        },
        "genesisRLP" : "0xf901faf901f5a00000000000000000000000000000000000000000000000000000000000000000a01dcc4de8dec75d7aab85b567b6ccd41ad312451b948a7413f0a142fd40d49347942adc25665018aa1fe0e6bc666dac8fc2697ff9baa021e213bbb6a6590941ab30ef7e13e57dcd51e8619ed98ad82cb2aa6996327482a056e81f171bcc55a6ff8345e692c0f86e5b48e01b996cadc001622fb5e363b421a056e81f171bcc55a6ff8345e692c0f86e5b48e01b996cadc001622fb5e363b421b90100000000000000000000000000000000000000000000000000000000000000000000000000000000000000000000000000000000000000000000000000000000000000000000000000000000000000000000000000000000000000000000000000000000000000000000000000000000000000000000000000000000000000000000000000000000000000000000000000000000000000000000000000000000000000000000000000000000000000000000000000000000000000000000000000000000000000000000000000000000000000000000000000000000000000000000000000000000000000000000000000000000000000000000000000000000008302000080830f4240808203b642a056e81f171bcc55a6ff8345e692c0f86e5b48e01b996cadc001622fb5e363b421880102030405060708c0c0",
        "lastblockhash" : "0xd7ad5365556c650bdc0078eecb496c932d8b181e9a1e3cdb3a854f3d6cc4424a",
        "network" : "EIP150",
        "postState" : {
            "0x1000000000000000000000000000000000000001" : {
                "balance" : "0x00",
                "code" : "0x60106001557f6001600155601080600c6000396000f3006000355415600957005b6020356000600052602060006000f0",
                "nonce" : "0x01",
                "storage" : {
                    "0x01" : "0x10"
                }
            },
            "0x2adc25665018aa1fe0e6bc666dac8fc2697ff9ba" : {
                "balance" : "0x4563918244f56a48",
                "code" : "",
                "nonce" : "0x00",
                "storage" : {
                }
            },
            "0xa94f5374fce5edbc8e2a8697c15331677e6ebf0b" : {
                "balance" : "0x1c58",
                "code" : "",
                "nonce" : "0x01",
                "storage" : {
                }
            }
        },
        "pre" : {
            "0x1000000000000000000000000000000000000001" : {
                "balance" : "0x00",
                "code" : "0x60106001557f6001600155601080600c6000396000f3006000355415600957005b6020356000600052602060006000f0",
                "nonce" : "0x00",
                "storage" : {
                }
            },
            "0xa94f5374fce5edbc8e2a8697c15331677e6ebf0b" : {
                "balance" : "0x0186a0",
                "code" : "",
                "nonce" : "0x00",
                "storage" : {
                }
            }
        }
    },
    "contractCreationOOGdontLeaveEmptyContract_d0g0v0_EIP158" : {
        "_info" : {
            "comment" : "",
            "filledwith" : "cpp-1.3.0+commit.6e0ce939.Linux.g++",
            "lllcversion" : "Version: 0.4.18-develop.2017.9.25+commit.a72237f2.Linux.g++",
            "source" : "src/BlockchainTestsFiller/GeneralStateTests/stHomesteadSpecific/contractCreationOOGdontLeaveEmptyContract_d0g0v0Filler.json",
            "sourceHash" : "4e8ccf278c1c92a487a8872b6b7dc32d48c270c56f2b9e56074ee617b8765d0f"
        },
        "blocks" : [
            {
                "blockHeader" : {
                    "bloom" : "0x00000000000000000000000000000000000000000000000000000000000000000000000000000000000000000000000000000000000000000000000000000000000000000000000000000000000000000000000000000000000000000000000000000000000000000000000000000000000000000000000000000000000000000000000000000000000000000000000000000000000000000000000000000000000000000000000000000000000000000000000000000000000000000000000000000000000000000000000000000000000000000000000000000000000000000000000000000000000000000000000000000000000000000000000000000000",
                    "coinbase" : "0x2adc25665018aa1fe0e6bc666dac8fc2697ff9ba",
                    "difficulty" : "0x020000",
                    "extraData" : "",
                    "gasLimit" : "0x0f4240",
                    "gasUsed" : "0x016a48",
                    "hash" : "0x8acb53ab0d9f78d1cb94a3407952fd509c5ada78311fd7effc06338a4a83145e",
                    "mixHash" : "0x340764c9f00b899a0345870b0373a8eec269216003a686b42d52c16dea23afe4",
                    "nonce" : "0xf4dc734751ba6146",
                    "number" : "0x01",
                    "parentHash" : "0xc197dd8d242ed404c45ba3296a0a3e60664a00eb52be61c81a750eb1f128ecde",
                    "receiptTrie" : "0xed4572e94671ef02cc28c296afb667fbd0caa8f195443db78053d7293f2d815a",
                    "stateRoot" : "0x6d62c8781dbe8448076e10b6f083cd2b2b418c22639d6831ad776de2e031d110",
                    "timestamp" : "0x03e8",
                    "transactionsTrie" : "0x5886f6d8c18d2ab5f33bb64a328d6eb09255443e2775248b610adabff31e790a",
                    "uncleHash" : "0x1dcc4de8dec75d7aab85b567b6ccd41ad312451b948a7413f0a142fd40d49347"
                },
                "rlp" : "0xf90260f901f8a0c197dd8d242ed404c45ba3296a0a3e60664a00eb52be61c81a750eb1f128ecdea01dcc4de8dec75d7aab85b567b6ccd41ad312451b948a7413f0a142fd40d49347942adc25665018aa1fe0e6bc666dac8fc2697ff9baa06d62c8781dbe8448076e10b6f083cd2b2b418c22639d6831ad776de2e031d110a05886f6d8c18d2ab5f33bb64a328d6eb09255443e2775248b610adabff31e790aa0ed4572e94671ef02cc28c296afb667fbd0caa8f195443db78053d7293f2d815ab90100000000000000000000000000000000000000000000000000000000000000000000000000000000000000000000000000000000000000000000000000000000000000000000000000000000000000000000000000000000000000000000000000000000000000000000000000000000000000000000000000000000000000000000000000000000000000000000000000000000000000000000000000000000000000000000000000000000000000000000000000000000000000000000000000000000000000000000000000000000000000000000000000000000000000000000000000000000000000000000000000000000000000000000000000000000008302000001830f424083016a488203e880a0340764c9f00b899a0345870b0373a8eec269216003a686b42d52c16dea23afe488f4dc734751ba6146f862f860800183016b8094100000000000000000000000000000000000000180801ca048fcbe6740dbb3ae8557dd1370ebd60e8fad8925522eeb2689984ef8241ae4d8a008f0cf92d81454dab493ab6b0cb3b69aec915cf8ab06bdeac36f617094f9c8d3c0",
                "transactions" : [
                    {
                        "data" : "",
                        "gasLimit" : "0x016b80",
                        "gasPrice" : "0x01",
                        "nonce" : "0x00",
                        "r" : "0x48fcbe6740dbb3ae8557dd1370ebd60e8fad8925522eeb2689984ef8241ae4d8",
                        "s" : "0x08f0cf92d81454dab493ab6b0cb3b69aec915cf8ab06bdeac36f617094f9c8d3",
                        "to" : "0x1000000000000000000000000000000000000001",
                        "v" : "0x1c",
                        "value" : "0x00"
                    }
                ],
                "uncleHeaders" : [
                ]
            }
        ],
        "genesisBlockHeader" : {
            "bloom" : "0x00000000000000000000000000000000000000000000000000000000000000000000000000000000000000000000000000000000000000000000000000000000000000000000000000000000000000000000000000000000000000000000000000000000000000000000000000000000000000000000000000000000000000000000000000000000000000000000000000000000000000000000000000000000000000000000000000000000000000000000000000000000000000000000000000000000000000000000000000000000000000000000000000000000000000000000000000000000000000000000000000000000000000000000000000000000",
            "coinbase" : "0x2adc25665018aa1fe0e6bc666dac8fc2697ff9ba",
            "difficulty" : "0x020000",
            "extraData" : "0x42",
            "gasLimit" : "0x0f4240",
            "gasUsed" : "0x00",
            "hash" : "0xc197dd8d242ed404c45ba3296a0a3e60664a00eb52be61c81a750eb1f128ecde",
            "mixHash" : "0x56e81f171bcc55a6ff8345e692c0f86e5b48e01b996cadc001622fb5e363b421",
            "nonce" : "0x0102030405060708",
            "number" : "0x00",
            "parentHash" : "0x0000000000000000000000000000000000000000000000000000000000000000",
            "receiptTrie" : "0x56e81f171bcc55a6ff8345e692c0f86e5b48e01b996cadc001622fb5e363b421",
            "stateRoot" : "0x21e213bbb6a6590941ab30ef7e13e57dcd51e8619ed98ad82cb2aa6996327482",
            "timestamp" : "0x03b6",
            "transactionsTrie" : "0x56e81f171bcc55a6ff8345e692c0f86e5b48e01b996cadc001622fb5e363b421",
            "uncleHash" : "0x1dcc4de8dec75d7aab85b567b6ccd41ad312451b948a7413f0a142fd40d49347"
        },
        "genesisRLP" : "0xf901faf901f5a00000000000000000000000000000000000000000000000000000000000000000a01dcc4de8dec75d7aab85b567b6ccd41ad312451b948a7413f0a142fd40d49347942adc25665018aa1fe0e6bc666dac8fc2697ff9baa021e213bbb6a6590941ab30ef7e13e57dcd51e8619ed98ad82cb2aa6996327482a056e81f171bcc55a6ff8345e692c0f86e5b48e01b996cadc001622fb5e363b421a056e81f171bcc55a6ff8345e692c0f86e5b48e01b996cadc001622fb5e363b421b90100000000000000000000000000000000000000000000000000000000000000000000000000000000000000000000000000000000000000000000000000000000000000000000000000000000000000000000000000000000000000000000000000000000000000000000000000000000000000000000000000000000000000000000000000000000000000000000000000000000000000000000000000000000000000000000000000000000000000000000000000000000000000000000000000000000000000000000000000000000000000000000000000000000000000000000000000000000000000000000000000000000000000000000000000000000008302000080830f4240808203b642a056e81f171bcc55a6ff8345e692c0f86e5b48e01b996cadc001622fb5e363b421880102030405060708c0c0",
        "lastblockhash" : "0x8acb53ab0d9f78d1cb94a3407952fd509c5ada78311fd7effc06338a4a83145e",
        "network" : "EIP158",
        "postState" : {
            "0x1000000000000000000000000000000000000001" : {
                "balance" : "0x00",
                "code" : "0x60106001557f6001600155601080600c6000396000f3006000355415600957005b6020356000600052602060006000f0",
                "nonce" : "0x01",
                "storage" : {
                    "0x01" : "0x10"
                }
            },
            "0x2adc25665018aa1fe0e6bc666dac8fc2697ff9ba" : {
                "balance" : "0x4563918244f56a48",
                "code" : "",
                "nonce" : "0x00",
                "storage" : {
                }
            },
            "0xa94f5374fce5edbc8e2a8697c15331677e6ebf0b" : {
                "balance" : "0x1c58",
                "code" : "",
                "nonce" : "0x01",
                "storage" : {
                }
            }
        },
        "pre" : {
            "0x1000000000000000000000000000000000000001" : {
                "balance" : "0x00",
                "code" : "0x60106001557f6001600155601080600c6000396000f3006000355415600957005b6020356000600052602060006000f0",
                "nonce" : "0x00",
                "storage" : {
                }
            },
            "0xa94f5374fce5edbc8e2a8697c15331677e6ebf0b" : {
                "balance" : "0x0186a0",
                "code" : "",
                "nonce" : "0x00",
                "storage" : {
                }
            }
        }
    },
    "contractCreationOOGdontLeaveEmptyContract_d0g0v0_Frontier" : {
        "_info" : {
            "comment" : "",
            "filledwith" : "cpp-1.3.0+commit.6e0ce939.Linux.g++",
            "lllcversion" : "Version: 0.4.18-develop.2017.9.25+commit.a72237f2.Linux.g++",
            "source" : "src/BlockchainTestsFiller/GeneralStateTests/stHomesteadSpecific/contractCreationOOGdontLeaveEmptyContract_d0g0v0Filler.json",
            "sourceHash" : "4e8ccf278c1c92a487a8872b6b7dc32d48c270c56f2b9e56074ee617b8765d0f"
        },
        "blocks" : [
            {
                "blockHeader" : {
                    "bloom" : "0x00000000000000000000000000000000000000000000000000000000000000000000000000000000000000000000000000000000000000000000000000000000000000000000000000000000000000000000000000000000000000000000000000000000000000000000000000000000000000000000000000000000000000000000000000000000000000000000000000000000000000000000000000000000000000000000000000000000000000000000000000000000000000000000000000000000000000000000000000000000000000000000000000000000000000000000000000000000000000000000000000000000000000000000000000000000",
                    "coinbase" : "0x2adc25665018aa1fe0e6bc666dac8fc2697ff9ba",
                    "difficulty" : "0x020000",
                    "extraData" : "",
                    "gasLimit" : "0x0f4240",
                    "gasUsed" : "0x016b80",
                    "hash" : "0x0eb7fd5d6a32f3428c7c64563c61b0e1609a1335d32972b4e9994b88849eab4d",
                    "mixHash" : "0x2999eedc5cb7cb0f2812bd70dcb07aa61ff3f2c2c5640bc9656b23181ee371bc",
                    "nonce" : "0xa7d26184c0e0d9ce",
                    "number" : "0x01",
                    "parentHash" : "0xc197dd8d242ed404c45ba3296a0a3e60664a00eb52be61c81a750eb1f128ecde",
                    "receiptTrie" : "0x8e820dd78fbefd430c1cb18dbf61d0ebe8236278b33ea764deee3734f8d33d8c",
                    "stateRoot" : "0xf18826e3108e8b891a4eac830fe4b9115cf1b44035c67da8436526feee90f8a0",
                    "timestamp" : "0x03e8",
                    "transactionsTrie" : "0x5886f6d8c18d2ab5f33bb64a328d6eb09255443e2775248b610adabff31e790a",
                    "uncleHash" : "0x1dcc4de8dec75d7aab85b567b6ccd41ad312451b948a7413f0a142fd40d49347"
                },
                "rlp" : "0xf90260f901f8a0c197dd8d242ed404c45ba3296a0a3e60664a00eb52be61c81a750eb1f128ecdea01dcc4de8dec75d7aab85b567b6ccd41ad312451b948a7413f0a142fd40d49347942adc25665018aa1fe0e6bc666dac8fc2697ff9baa0f18826e3108e8b891a4eac830fe4b9115cf1b44035c67da8436526feee90f8a0a05886f6d8c18d2ab5f33bb64a328d6eb09255443e2775248b610adabff31e790aa08e820dd78fbefd430c1cb18dbf61d0ebe8236278b33ea764deee3734f8d33d8cb90100000000000000000000000000000000000000000000000000000000000000000000000000000000000000000000000000000000000000000000000000000000000000000000000000000000000000000000000000000000000000000000000000000000000000000000000000000000000000000000000000000000000000000000000000000000000000000000000000000000000000000000000000000000000000000000000000000000000000000000000000000000000000000000000000000000000000000000000000000000000000000000000000000000000000000000000000000000000000000000000000000000000000000000000000000000008302000001830f424083016b808203e880a02999eedc5cb7cb0f2812bd70dcb07aa61ff3f2c2c5640bc9656b23181ee371bc88a7d26184c0e0d9cef862f860800183016b8094100000000000000000000000000000000000000180801ca048fcbe6740dbb3ae8557dd1370ebd60e8fad8925522eeb2689984ef8241ae4d8a008f0cf92d81454dab493ab6b0cb3b69aec915cf8ab06bdeac36f617094f9c8d3c0",
                "transactions" : [
                    {
                        "data" : "",
                        "gasLimit" : "0x016b80",
                        "gasPrice" : "0x01",
                        "nonce" : "0x00",
                        "r" : "0x48fcbe6740dbb3ae8557dd1370ebd60e8fad8925522eeb2689984ef8241ae4d8",
                        "s" : "0x08f0cf92d81454dab493ab6b0cb3b69aec915cf8ab06bdeac36f617094f9c8d3",
                        "to" : "0x1000000000000000000000000000000000000001",
                        "v" : "0x1c",
                        "value" : "0x00"
                    }
                ],
                "uncleHeaders" : [
                ]
            }
        ],
        "genesisBlockHeader" : {
            "bloom" : "0x00000000000000000000000000000000000000000000000000000000000000000000000000000000000000000000000000000000000000000000000000000000000000000000000000000000000000000000000000000000000000000000000000000000000000000000000000000000000000000000000000000000000000000000000000000000000000000000000000000000000000000000000000000000000000000000000000000000000000000000000000000000000000000000000000000000000000000000000000000000000000000000000000000000000000000000000000000000000000000000000000000000000000000000000000000000",
            "coinbase" : "0x2adc25665018aa1fe0e6bc666dac8fc2697ff9ba",
            "difficulty" : "0x020000",
            "extraData" : "0x42",
            "gasLimit" : "0x0f4240",
            "gasUsed" : "0x00",
            "hash" : "0xc197dd8d242ed404c45ba3296a0a3e60664a00eb52be61c81a750eb1f128ecde",
            "mixHash" : "0x56e81f171bcc55a6ff8345e692c0f86e5b48e01b996cadc001622fb5e363b421",
            "nonce" : "0x0102030405060708",
            "number" : "0x00",
            "parentHash" : "0x0000000000000000000000000000000000000000000000000000000000000000",
            "receiptTrie" : "0x56e81f171bcc55a6ff8345e692c0f86e5b48e01b996cadc001622fb5e363b421",
            "stateRoot" : "0x21e213bbb6a6590941ab30ef7e13e57dcd51e8619ed98ad82cb2aa6996327482",
            "timestamp" : "0x03b6",
            "transactionsTrie" : "0x56e81f171bcc55a6ff8345e692c0f86e5b48e01b996cadc001622fb5e363b421",
            "uncleHash" : "0x1dcc4de8dec75d7aab85b567b6ccd41ad312451b948a7413f0a142fd40d49347"
        },
        "genesisRLP" : "0xf901faf901f5a00000000000000000000000000000000000000000000000000000000000000000a01dcc4de8dec75d7aab85b567b6ccd41ad312451b948a7413f0a142fd40d49347942adc25665018aa1fe0e6bc666dac8fc2697ff9baa021e213bbb6a6590941ab30ef7e13e57dcd51e8619ed98ad82cb2aa6996327482a056e81f171bcc55a6ff8345e692c0f86e5b48e01b996cadc001622fb5e363b421a056e81f171bcc55a6ff8345e692c0f86e5b48e01b996cadc001622fb5e363b421b90100000000000000000000000000000000000000000000000000000000000000000000000000000000000000000000000000000000000000000000000000000000000000000000000000000000000000000000000000000000000000000000000000000000000000000000000000000000000000000000000000000000000000000000000000000000000000000000000000000000000000000000000000000000000000000000000000000000000000000000000000000000000000000000000000000000000000000000000000000000000000000000000000000000000000000000000000000000000000000000000000000000000000000000000000000000008302000080830f4240808203b642a056e81f171bcc55a6ff8345e692c0f86e5b48e01b996cadc001622fb5e363b421880102030405060708c0c0",
        "lastblockhash" : "0x0eb7fd5d6a32f3428c7c64563c61b0e1609a1335d32972b4e9994b88849eab4d",
        "network" : "Frontier",
        "postState" : {
            "0x1000000000000000000000000000000000000001" : {
                "balance" : "0x00",
                "code" : "0x60106001557f6001600155601080600c6000396000f3006000355415600957005b6020356000600052602060006000f0",
                "nonce" : "0x01",
                "storage" : {
                    "0x01" : "0x10"
                }
            },
            "0x2adc25665018aa1fe0e6bc666dac8fc2697ff9ba" : {
                "balance" : "0x4563918244f56b80",
                "code" : "",
                "nonce" : "0x00",
                "storage" : {
                }
            },
            "0xa94f5374fce5edbc8e2a8697c15331677e6ebf0b" : {
                "balance" : "0x1b20",
                "code" : "",
                "nonce" : "0x01",
                "storage" : {
                }
            }
        },
        "pre" : {
            "0x1000000000000000000000000000000000000001" : {
                "balance" : "0x00",
                "code" : "0x60106001557f6001600155601080600c6000396000f3006000355415600957005b6020356000600052602060006000f0",
                "nonce" : "0x00",
                "storage" : {
                }
            },
            "0xa94f5374fce5edbc8e2a8697c15331677e6ebf0b" : {
                "balance" : "0x0186a0",
                "code" : "",
                "nonce" : "0x00",
                "storage" : {
                }
            }
        }
    },
    "contractCreationOOGdontLeaveEmptyContract_d0g0v0_Homestead" : {
        "_info" : {
            "comment" : "",
            "filledwith" : "cpp-1.3.0+commit.6e0ce939.Linux.g++",
            "lllcversion" : "Version: 0.4.18-develop.2017.9.25+commit.a72237f2.Linux.g++",
            "source" : "src/BlockchainTestsFiller/GeneralStateTests/stHomesteadSpecific/contractCreationOOGdontLeaveEmptyContract_d0g0v0Filler.json",
            "sourceHash" : "4e8ccf278c1c92a487a8872b6b7dc32d48c270c56f2b9e56074ee617b8765d0f"
        },
        "blocks" : [
            {
                "blockHeader" : {
                    "bloom" : "0x00000000000000000000000000000000000000000000000000000000000000000000000000000000000000000000000000000000000000000000000000000000000000000000000000000000000000000000000000000000000000000000000000000000000000000000000000000000000000000000000000000000000000000000000000000000000000000000000000000000000000000000000000000000000000000000000000000000000000000000000000000000000000000000000000000000000000000000000000000000000000000000000000000000000000000000000000000000000000000000000000000000000000000000000000000000",
                    "coinbase" : "0x2adc25665018aa1fe0e6bc666dac8fc2697ff9ba",
                    "difficulty" : "0x020000",
                    "extraData" : "",
                    "gasLimit" : "0x0f4240",
                    "gasUsed" : "0x016b80",
                    "hash" : "0xfc038fccc34b5be0ba0a711fc8114edef37694aff3676338f63fb307b374c424",
                    "mixHash" : "0xe4da740dacfe97254ee35ba9619d00922dbcd6fc0ef587d723259fa786b9f6d0",
                    "nonce" : "0x60b63fcfa0709ed2",
                    "number" : "0x01",
                    "parentHash" : "0xc197dd8d242ed404c45ba3296a0a3e60664a00eb52be61c81a750eb1f128ecde",
                    "receiptTrie" : "0x8e820dd78fbefd430c1cb18dbf61d0ebe8236278b33ea764deee3734f8d33d8c",
                    "stateRoot" : "0xf18826e3108e8b891a4eac830fe4b9115cf1b44035c67da8436526feee90f8a0",
                    "timestamp" : "0x03e8",
                    "transactionsTrie" : "0x5886f6d8c18d2ab5f33bb64a328d6eb09255443e2775248b610adabff31e790a",
                    "uncleHash" : "0x1dcc4de8dec75d7aab85b567b6ccd41ad312451b948a7413f0a142fd40d49347"
                },
                "rlp" : "0xf90260f901f8a0c197dd8d242ed404c45ba3296a0a3e60664a00eb52be61c81a750eb1f128ecdea01dcc4de8dec75d7aab85b567b6ccd41ad312451b948a7413f0a142fd40d49347942adc25665018aa1fe0e6bc666dac8fc2697ff9baa0f18826e3108e8b891a4eac830fe4b9115cf1b44035c67da8436526feee90f8a0a05886f6d8c18d2ab5f33bb64a328d6eb09255443e2775248b610adabff31e790aa08e820dd78fbefd430c1cb18dbf61d0ebe8236278b33ea764deee3734f8d33d8cb90100000000000000000000000000000000000000000000000000000000000000000000000000000000000000000000000000000000000000000000000000000000000000000000000000000000000000000000000000000000000000000000000000000000000000000000000000000000000000000000000000000000000000000000000000000000000000000000000000000000000000000000000000000000000000000000000000000000000000000000000000000000000000000000000000000000000000000000000000000000000000000000000000000000000000000000000000000000000000000000000000000000000000000000000000000000008302000001830f424083016b808203e880a0e4da740dacfe97254ee35ba9619d00922dbcd6fc0ef587d723259fa786b9f6d08860b63fcfa0709ed2f862f860800183016b8094100000000000000000000000000000000000000180801ca048fcbe6740dbb3ae8557dd1370ebd60e8fad8925522eeb2689984ef8241ae4d8a008f0cf92d81454dab493ab6b0cb3b69aec915cf8ab06bdeac36f617094f9c8d3c0",
                "transactions" : [
                    {
                        "data" : "",
                        "gasLimit" : "0x016b80",
                        "gasPrice" : "0x01",
                        "nonce" : "0x00",
                        "r" : "0x48fcbe6740dbb3ae8557dd1370ebd60e8fad8925522eeb2689984ef8241ae4d8",
                        "s" : "0x08f0cf92d81454dab493ab6b0cb3b69aec915cf8ab06bdeac36f617094f9c8d3",
                        "to" : "0x1000000000000000000000000000000000000001",
                        "v" : "0x1c",
                        "value" : "0x00"
                    }
                ],
                "uncleHeaders" : [
                ]
            }
        ],
        "genesisBlockHeader" : {
            "bloom" : "0x00000000000000000000000000000000000000000000000000000000000000000000000000000000000000000000000000000000000000000000000000000000000000000000000000000000000000000000000000000000000000000000000000000000000000000000000000000000000000000000000000000000000000000000000000000000000000000000000000000000000000000000000000000000000000000000000000000000000000000000000000000000000000000000000000000000000000000000000000000000000000000000000000000000000000000000000000000000000000000000000000000000000000000000000000000000",
            "coinbase" : "0x2adc25665018aa1fe0e6bc666dac8fc2697ff9ba",
            "difficulty" : "0x020000",
            "extraData" : "0x42",
            "gasLimit" : "0x0f4240",
            "gasUsed" : "0x00",
            "hash" : "0xc197dd8d242ed404c45ba3296a0a3e60664a00eb52be61c81a750eb1f128ecde",
            "mixHash" : "0x56e81f171bcc55a6ff8345e692c0f86e5b48e01b996cadc001622fb5e363b421",
            "nonce" : "0x0102030405060708",
            "number" : "0x00",
            "parentHash" : "0x0000000000000000000000000000000000000000000000000000000000000000",
            "receiptTrie" : "0x56e81f171bcc55a6ff8345e692c0f86e5b48e01b996cadc001622fb5e363b421",
            "stateRoot" : "0x21e213bbb6a6590941ab30ef7e13e57dcd51e8619ed98ad82cb2aa6996327482",
            "timestamp" : "0x03b6",
            "transactionsTrie" : "0x56e81f171bcc55a6ff8345e692c0f86e5b48e01b996cadc001622fb5e363b421",
            "uncleHash" : "0x1dcc4de8dec75d7aab85b567b6ccd41ad312451b948a7413f0a142fd40d49347"
        },
        "genesisRLP" : "0xf901faf901f5a00000000000000000000000000000000000000000000000000000000000000000a01dcc4de8dec75d7aab85b567b6ccd41ad312451b948a7413f0a142fd40d49347942adc25665018aa1fe0e6bc666dac8fc2697ff9baa021e213bbb6a6590941ab30ef7e13e57dcd51e8619ed98ad82cb2aa6996327482a056e81f171bcc55a6ff8345e692c0f86e5b48e01b996cadc001622fb5e363b421a056e81f171bcc55a6ff8345e692c0f86e5b48e01b996cadc001622fb5e363b421b90100000000000000000000000000000000000000000000000000000000000000000000000000000000000000000000000000000000000000000000000000000000000000000000000000000000000000000000000000000000000000000000000000000000000000000000000000000000000000000000000000000000000000000000000000000000000000000000000000000000000000000000000000000000000000000000000000000000000000000000000000000000000000000000000000000000000000000000000000000000000000000000000000000000000000000000000000000000000000000000000000000000000000000000000000000000008302000080830f4240808203b642a056e81f171bcc55a6ff8345e692c0f86e5b48e01b996cadc001622fb5e363b421880102030405060708c0c0",
        "lastblockhash" : "0xfc038fccc34b5be0ba0a711fc8114edef37694aff3676338f63fb307b374c424",
        "network" : "Homestead",
        "postState" : {
            "0x1000000000000000000000000000000000000001" : {
                "balance" : "0x00",
                "code" : "0x60106001557f6001600155601080600c6000396000f3006000355415600957005b6020356000600052602060006000f0",
                "nonce" : "0x01",
                "storage" : {
                    "0x01" : "0x10"
                }
            },
            "0x2adc25665018aa1fe0e6bc666dac8fc2697ff9ba" : {
                "balance" : "0x4563918244f56b80",
                "code" : "",
                "nonce" : "0x00",
                "storage" : {
                }
            },
            "0xa94f5374fce5edbc8e2a8697c15331677e6ebf0b" : {
                "balance" : "0x1b20",
                "code" : "",
                "nonce" : "0x01",
                "storage" : {
                }
            }
        },
        "pre" : {
            "0x1000000000000000000000000000000000000001" : {
                "balance" : "0x00",
                "code" : "0x60106001557f6001600155601080600c6000396000f3006000355415600957005b6020356000600052602060006000f0",
                "nonce" : "0x00",
                "storage" : {
                }
            },
            "0xa94f5374fce5edbc8e2a8697c15331677e6ebf0b" : {
                "balance" : "0x0186a0",
                "code" : "",
                "nonce" : "0x00",
                "storage" : {
                }
            }
        }
    }
}