{
    "createContractViaContractOOGInitCode_d0g0v0_Byzantium" : {
        "_info" : {
            "comment" : "",
            "filledwith" : "cpp-1.3.0+commit.6e0ce939.Linux.g++",
            "lllcversion" : "Version: 0.4.18-develop.2017.9.25+commit.a72237f2.Linux.g++",
            "source" : "src/BlockchainTestsFiller/GeneralStateTests/stHomesteadSpecific/createContractViaContractOOGInitCode_d0g0v0Filler.json",
            "sourceHash" : "90df8a6397f6e4f8e1d437383d7d3fb967c8f3c0842b593a3ddf7934e2e54f40"
        },
        "blocks" : [
            {
                "blockHeader" : {
                    "bloom" : "0x00000000000000000000000000000000000000000000000000000000000000000000000000000000000000000000000000000000000000000000000000000000000000000000000000000000000000000000000000000000000000000000000000000000000000000000000000000000000000000000000000000000000000000000000000000000000000000000000000000000000000000000000000000000000000000000000000000000000000000000000000000000000000000000000000000000000000000000000000000000000000000000000000000000000000000000000000000000000000000000000000000000000000000000000000000000",
                    "coinbase" : "0x2adc25665018aa1fe0e6bc666dac8fc2697ff9ba",
                    "difficulty" : "0x020000",
                    "extraData" : "",
                    "gasLimit" : "0x0f4240",
                    "gasUsed" : "0x019728",
                    "hash" : "0x0645f094c390e622abea83daf37701edfd235148bd68b8e37e38e65b99bf1109",
                    "mixHash" : "0x2804936e3b8f074da52939a2a306050711afb68781a41bdd81d23c8e4f6037b9",
                    "nonce" : "0x8c88e920cb200ae4",
                    "number" : "0x01",
                    "parentHash" : "0x84858096dacf3f08c193542fdfa8332d9c69edec41cd15ee7b6d2c0ce5bff3df",
                    "receiptTrie" : "0xfded99637e1176544b2a6a1be76fe92d78913b98f8f987b6a5c9f1ebaaafedc2",
                    "stateRoot" : "0xe4c4f1be4161fb22f6201e38888baf7da8cca7746de01eb4cf16025a1d6bffa6",
                    "timestamp" : "0x03e8",
                    "transactionsTrie" : "0x2ef413a3884522e5edd82fec3baba532a6e487e70280c171dec16ca031e85000",
                    "uncleHash" : "0x1dcc4de8dec75d7aab85b567b6ccd41ad312451b948a7413f0a142fd40d49347"
                },
                "rlp" : "0xf90260f901f8a084858096dacf3f08c193542fdfa8332d9c69edec41cd15ee7b6d2c0ce5bff3dfa01dcc4de8dec75d7aab85b567b6ccd41ad312451b948a7413f0a142fd40d49347942adc25665018aa1fe0e6bc666dac8fc2697ff9baa0e4c4f1be4161fb22f6201e38888baf7da8cca7746de01eb4cf16025a1d6bffa6a02ef413a3884522e5edd82fec3baba532a6e487e70280c171dec16ca031e85000a0fded99637e1176544b2a6a1be76fe92d78913b98f8f987b6a5c9f1ebaaafedc2b90100000000000000000000000000000000000000000000000000000000000000000000000000000000000000000000000000000000000000000000000000000000000000000000000000000000000000000000000000000000000000000000000000000000000000000000000000000000000000000000000000000000000000000000000000000000000000000000000000000000000000000000000000000000000000000000000000000000000000000000000000000000000000000000000000000000000000000000000000000000000000000000000000000000000000000000000000000000000000000000000000000000000000000000000000000000008302000001830f4240830197288203e880a02804936e3b8f074da52939a2a306050711afb68781a41bdd81d23c8e4f6037b9888c88e920cb200ae4f862f860800183019a5494100000000000000000000000000000000000000180801ba0cd466f67e97e11063177e79318e9a31fbcfc92fdb0ae08cb3f9d7437b17a7685a075539ac6ee73217d208c523f5cf2500318e2c6caa60e1932dd524945d33287d6c0",
                "transactions" : [
                    {
                        "data" : "",
                        "gasLimit" : "0x019a54",
                        "gasPrice" : "0x01",
                        "nonce" : "0x00",
                        "r" : "0xcd466f67e97e11063177e79318e9a31fbcfc92fdb0ae08cb3f9d7437b17a7685",
                        "s" : "0x75539ac6ee73217d208c523f5cf2500318e2c6caa60e1932dd524945d33287d6",
                        "to" : "0x1000000000000000000000000000000000000001",
                        "v" : "0x1b",
                        "value" : "0x00"
                    }
                ],
                "uncleHeaders" : [
                ]
            }
        ],
        "genesisBlockHeader" : {
            "bloom" : "0x00000000000000000000000000000000000000000000000000000000000000000000000000000000000000000000000000000000000000000000000000000000000000000000000000000000000000000000000000000000000000000000000000000000000000000000000000000000000000000000000000000000000000000000000000000000000000000000000000000000000000000000000000000000000000000000000000000000000000000000000000000000000000000000000000000000000000000000000000000000000000000000000000000000000000000000000000000000000000000000000000000000000000000000000000000000",
            "coinbase" : "0x2adc25665018aa1fe0e6bc666dac8fc2697ff9ba",
            "difficulty" : "0x020000",
            "extraData" : "0x42",
            "gasLimit" : "0x0f4240",
            "gasUsed" : "0x00",
            "hash" : "0x84858096dacf3f08c193542fdfa8332d9c69edec41cd15ee7b6d2c0ce5bff3df",
            "mixHash" : "0x56e81f171bcc55a6ff8345e692c0f86e5b48e01b996cadc001622fb5e363b421",
            "nonce" : "0x0102030405060708",
            "number" : "0x00",
            "parentHash" : "0x0000000000000000000000000000000000000000000000000000000000000000",
            "receiptTrie" : "0x56e81f171bcc55a6ff8345e692c0f86e5b48e01b996cadc001622fb5e363b421",
            "stateRoot" : "0x67c3d4a79a007dc99753c58af276899cf3ec223a3ee761e439fdacfa2b8a5a0f",
            "timestamp" : "0x03b6",
            "transactionsTrie" : "0x56e81f171bcc55a6ff8345e692c0f86e5b48e01b996cadc001622fb5e363b421",
            "uncleHash" : "0x1dcc4de8dec75d7aab85b567b6ccd41ad312451b948a7413f0a142fd40d49347"
        },
        "genesisRLP" : "0xf901faf901f5a00000000000000000000000000000000000000000000000000000000000000000a01dcc4de8dec75d7aab85b567b6ccd41ad312451b948a7413f0a142fd40d49347942adc25665018aa1fe0e6bc666dac8fc2697ff9baa067c3d4a79a007dc99753c58af276899cf3ec223a3ee761e439fdacfa2b8a5a0fa056e81f171bcc55a6ff8345e692c0f86e5b48e01b996cadc001622fb5e363b421a056e81f171bcc55a6ff8345e692c0f86e5b48e01b996cadc001622fb5e363b421b90100000000000000000000000000000000000000000000000000000000000000000000000000000000000000000000000000000000000000000000000000000000000000000000000000000000000000000000000000000000000000000000000000000000000000000000000000000000000000000000000000000000000000000000000000000000000000000000000000000000000000000000000000000000000000000000000000000000000000000000000000000000000000000000000000000000000000000000000000000000000000000000000000000000000000000000000000000000000000000000000000000000000000000000000000000000008302000080830f4240808203b642a056e81f171bcc55a6ff8345e692c0f86e5b48e01b996cadc001622fb5e363b421880102030405060708c0c0",
        "lastblockhash" : "0x0645f094c390e622abea83daf37701edfd235148bd68b8e37e38e65b99bf1109",
        "network" : "Byzantium",
        "postState" : {
            "0x1000000000000000000000000000000000000001" : {
                "balance" : "0x00",
                "code" : "0x6b602060406000f0600c600055600052600c60146000f0",
                "nonce" : "0x01",
                "storage" : {
                }
            },
            "0x2adc25665018aa1fe0e6bc666dac8fc2697ff9ba" : {
                "balance" : "0x29a2241af62d9728",
                "code" : "",
                "nonce" : "0x00",
                "storage" : {
                }
            },
            "0xa94f5374fce5edbc8e2a8697c15331677e6ebf0b" : {
                "balance" : "0x0f31b8",
                "code" : "",
                "nonce" : "0x01",
                "storage" : {
                }
            }
        },
        "pre" : {
            "0x1000000000000000000000000000000000000001" : {
                "balance" : "0x00",
                "code" : "0x6b602060406000f0600c600055600052600c60146000f0",
                "nonce" : "0x00",
                "storage" : {
                }
            },
            "0xa94f5374fce5edbc8e2a8697c15331677e6ebf0b" : {
                "balance" : "0x10c8e0",
                "code" : "",
                "nonce" : "0x00",
                "storage" : {
                }
            }
        }
    },
    "createContractViaContractOOGInitCode_d0g0v0_EIP150" : {
        "_info" : {
            "comment" : "",
            "filledwith" : "cpp-1.3.0+commit.6e0ce939.Linux.g++",
            "lllcversion" : "Version: 0.4.18-develop.2017.9.25+commit.a72237f2.Linux.g++",
            "source" : "src/BlockchainTestsFiller/GeneralStateTests/stHomesteadSpecific/createContractViaContractOOGInitCode_d0g0v0Filler.json",
            "sourceHash" : "90df8a6397f6e4f8e1d437383d7d3fb967c8f3c0842b593a3ddf7934e2e54f40"
        },
        "blocks" : [
            {
                "blockHeader" : {
                    "bloom" : "0x00000000000000000000000000000000000000000000000000000000000000000000000000000000000000000000000000000000000000000000000000000000000000000000000000000000000000000000000000000000000000000000000000000000000000000000000000000000000000000000000000000000000000000000000000000000000000000000000000000000000000000000000000000000000000000000000000000000000000000000000000000000000000000000000000000000000000000000000000000000000000000000000000000000000000000000000000000000000000000000000000000000000000000000000000000000",
                    "coinbase" : "0x2adc25665018aa1fe0e6bc666dac8fc2697ff9ba",
                    "difficulty" : "0x020000",
                    "extraData" : "",
                    "gasLimit" : "0x0f4240",
                    "gasUsed" : "0x019728",
                    "hash" : "0x4894e718f547afb14f9bdcc1138a2fc1bbef0e4310a039e4fd3fb331e35ea4d7",
                    "mixHash" : "0x40a119985cf9f584fcdfbecef6def923dfb2b7bc0b7f537e1cd718ec5ede3db4",
                    "nonce" : "0xc74e1b92b7f2aa47",
                    "number" : "0x01",
                    "parentHash" : "0x84858096dacf3f08c193542fdfa8332d9c69edec41cd15ee7b6d2c0ce5bff3df",
                    "receiptTrie" : "0x89c91cb9203b8d091c3a63518b82b6cd18d6f329ebd4b13b178217b635aa8673",
                    "stateRoot" : "0xe48e2813591196b43d564d7eeb63ec90ae1339d83e2ea7b27768d51ca9e59c26",
                    "timestamp" : "0x03e8",
                    "transactionsTrie" : "0x2ef413a3884522e5edd82fec3baba532a6e487e70280c171dec16ca031e85000",
                    "uncleHash" : "0x1dcc4de8dec75d7aab85b567b6ccd41ad312451b948a7413f0a142fd40d49347"
                },
                "rlp" : "0xf90260f901f8a084858096dacf3f08c193542fdfa8332d9c69edec41cd15ee7b6d2c0ce5bff3dfa01dcc4de8dec75d7aab85b567b6ccd41ad312451b948a7413f0a142fd40d49347942adc25665018aa1fe0e6bc666dac8fc2697ff9baa0e48e2813591196b43d564d7eeb63ec90ae1339d83e2ea7b27768d51ca9e59c26a02ef413a3884522e5edd82fec3baba532a6e487e70280c171dec16ca031e85000a089c91cb9203b8d091c3a63518b82b6cd18d6f329ebd4b13b178217b635aa8673b90100000000000000000000000000000000000000000000000000000000000000000000000000000000000000000000000000000000000000000000000000000000000000000000000000000000000000000000000000000000000000000000000000000000000000000000000000000000000000000000000000000000000000000000000000000000000000000000000000000000000000000000000000000000000000000000000000000000000000000000000000000000000000000000000000000000000000000000000000000000000000000000000000000000000000000000000000000000000000000000000000000000000000000000000000000000008302000001830f4240830197288203e880a040a119985cf9f584fcdfbecef6def923dfb2b7bc0b7f537e1cd718ec5ede3db488c74e1b92b7f2aa47f862f860800183019a5494100000000000000000000000000000000000000180801ba0cd466f67e97e11063177e79318e9a31fbcfc92fdb0ae08cb3f9d7437b17a7685a075539ac6ee73217d208c523f5cf2500318e2c6caa60e1932dd524945d33287d6c0",
                "transactions" : [
                    {
                        "data" : "",
                        "gasLimit" : "0x019a54",
                        "gasPrice" : "0x01",
                        "nonce" : "0x00",
                        "r" : "0xcd466f67e97e11063177e79318e9a31fbcfc92fdb0ae08cb3f9d7437b17a7685",
                        "s" : "0x75539ac6ee73217d208c523f5cf2500318e2c6caa60e1932dd524945d33287d6",
                        "to" : "0x1000000000000000000000000000000000000001",
                        "v" : "0x1b",
                        "value" : "0x00"
                    }
                ],
                "uncleHeaders" : [
                ]
            }
        ],
        "genesisBlockHeader" : {
            "bloom" : "0x00000000000000000000000000000000000000000000000000000000000000000000000000000000000000000000000000000000000000000000000000000000000000000000000000000000000000000000000000000000000000000000000000000000000000000000000000000000000000000000000000000000000000000000000000000000000000000000000000000000000000000000000000000000000000000000000000000000000000000000000000000000000000000000000000000000000000000000000000000000000000000000000000000000000000000000000000000000000000000000000000000000000000000000000000000000",
            "coinbase" : "0x2adc25665018aa1fe0e6bc666dac8fc2697ff9ba",
            "difficulty" : "0x020000",
            "extraData" : "0x42",
            "gasLimit" : "0x0f4240",
            "gasUsed" : "0x00",
            "hash" : "0x84858096dacf3f08c193542fdfa8332d9c69edec41cd15ee7b6d2c0ce5bff3df",
            "mixHash" : "0x56e81f171bcc55a6ff8345e692c0f86e5b48e01b996cadc001622fb5e363b421",
            "nonce" : "0x0102030405060708",
            "number" : "0x00",
            "parentHash" : "0x0000000000000000000000000000000000000000000000000000000000000000",
            "receiptTrie" : "0x56e81f171bcc55a6ff8345e692c0f86e5b48e01b996cadc001622fb5e363b421",
            "stateRoot" : "0x67c3d4a79a007dc99753c58af276899cf3ec223a3ee761e439fdacfa2b8a5a0f",
            "timestamp" : "0x03b6",
            "transactionsTrie" : "0x56e81f171bcc55a6ff8345e692c0f86e5b48e01b996cadc001622fb5e363b421",
            "uncleHash" : "0x1dcc4de8dec75d7aab85b567b6ccd41ad312451b948a7413f0a142fd40d49347"
        },
        "genesisRLP" : "0xf901faf901f5a00000000000000000000000000000000000000000000000000000000000000000a01dcc4de8dec75d7aab85b567b6ccd41ad312451b948a7413f0a142fd40d49347942adc25665018aa1fe0e6bc666dac8fc2697ff9baa067c3d4a79a007dc99753c58af276899cf3ec223a3ee761e439fdacfa2b8a5a0fa056e81f171bcc55a6ff8345e692c0f86e5b48e01b996cadc001622fb5e363b421a056e81f171bcc55a6ff8345e692c0f86e5b48e01b996cadc001622fb5e363b421b90100000000000000000000000000000000000000000000000000000000000000000000000000000000000000000000000000000000000000000000000000000000000000000000000000000000000000000000000000000000000000000000000000000000000000000000000000000000000000000000000000000000000000000000000000000000000000000000000000000000000000000000000000000000000000000000000000000000000000000000000000000000000000000000000000000000000000000000000000000000000000000000000000000000000000000000000000000000000000000000000000000000000000000000000000000000008302000080830f4240808203b642a056e81f171bcc55a6ff8345e692c0f86e5b48e01b996cadc001622fb5e363b421880102030405060708c0c0",
        "lastblockhash" : "0x4894e718f547afb14f9bdcc1138a2fc1bbef0e4310a039e4fd3fb331e35ea4d7",
        "network" : "EIP150",
        "postState" : {
            "0x1000000000000000000000000000000000000001" : {
                "balance" : "0x00",
                "code" : "0x6b602060406000f0600c600055600052600c60146000f0",
                "nonce" : "0x01",
                "storage" : {
                }
            },
            "0x2adc25665018aa1fe0e6bc666dac8fc2697ff9ba" : {
                "balance" : "0x4563918244f59728",
                "code" : "",
                "nonce" : "0x00",
                "storage" : {
                }
            },
            "0xa94f5374fce5edbc8e2a8697c15331677e6ebf0b" : {
                "balance" : "0x0f31b8",
                "code" : "",
                "nonce" : "0x01",
                "storage" : {
                }
            }
        },
        "pre" : {
            "0x1000000000000000000000000000000000000001" : {
                "balance" : "0x00",
                "code" : "0x6b602060406000f0600c600055600052600c60146000f0",
                "nonce" : "0x00",
                "storage" : {
                }
            },
            "0xa94f5374fce5edbc8e2a8697c15331677e6ebf0b" : {
                "balance" : "0x10c8e0",
                "code" : "",
                "nonce" : "0x00",
                "storage" : {
                }
            }
        }
    },
    "createContractViaContractOOGInitCode_d0g0v0_EIP158" : {
        "_info" : {
            "comment" : "",
            "filledwith" : "cpp-1.3.0+commit.6e0ce939.Linux.g++",
            "lllcversion" : "Version: 0.4.18-develop.2017.9.25+commit.a72237f2.Linux.g++",
            "source" : "src/BlockchainTestsFiller/GeneralStateTests/stHomesteadSpecific/createContractViaContractOOGInitCode_d0g0v0Filler.json",
            "sourceHash" : "90df8a6397f6e4f8e1d437383d7d3fb967c8f3c0842b593a3ddf7934e2e54f40"
        },
        "blocks" : [
            {
                "blockHeader" : {
                    "bloom" : "0x00000000000000000000000000000000000000000000000000000000000000000000000000000000000000000000000000000000000000000000000000000000000000000000000000000000000000000000000000000000000000000000000000000000000000000000000000000000000000000000000000000000000000000000000000000000000000000000000000000000000000000000000000000000000000000000000000000000000000000000000000000000000000000000000000000000000000000000000000000000000000000000000000000000000000000000000000000000000000000000000000000000000000000000000000000000",
                    "coinbase" : "0x2adc25665018aa1fe0e6bc666dac8fc2697ff9ba",
                    "difficulty" : "0x020000",
                    "extraData" : "",
                    "gasLimit" : "0x0f4240",
                    "gasUsed" : "0x019728",
                    "hash" : "0x32a127245ff20b384067ff8b1f7057b7f0e4415ff80b3367e626093040ee3940",
                    "mixHash" : "0xadb30a2bbde450ec68675c0cba510d970ce7125f3e62a03799d7cfe9113d2c52",
                    "nonce" : "0x45fa839f709938eb",
                    "number" : "0x01",
                    "parentHash" : "0x84858096dacf3f08c193542fdfa8332d9c69edec41cd15ee7b6d2c0ce5bff3df",
                    "receiptTrie" : "0x89c91cb9203b8d091c3a63518b82b6cd18d6f329ebd4b13b178217b635aa8673",
                    "stateRoot" : "0xe48e2813591196b43d564d7eeb63ec90ae1339d83e2ea7b27768d51ca9e59c26",
                    "timestamp" : "0x03e8",
                    "transactionsTrie" : "0x2ef413a3884522e5edd82fec3baba532a6e487e70280c171dec16ca031e85000",
                    "uncleHash" : "0x1dcc4de8dec75d7aab85b567b6ccd41ad312451b948a7413f0a142fd40d49347"
                },
                "rlp" : "0xf90260f901f8a084858096dacf3f08c193542fdfa8332d9c69edec41cd15ee7b6d2c0ce5bff3dfa01dcc4de8dec75d7aab85b567b6ccd41ad312451b948a7413f0a142fd40d49347942adc25665018aa1fe0e6bc666dac8fc2697ff9baa0e48e2813591196b43d564d7eeb63ec90ae1339d83e2ea7b27768d51ca9e59c26a02ef413a3884522e5edd82fec3baba532a6e487e70280c171dec16ca031e85000a089c91cb9203b8d091c3a63518b82b6cd18d6f329ebd4b13b178217b635aa8673b90100000000000000000000000000000000000000000000000000000000000000000000000000000000000000000000000000000000000000000000000000000000000000000000000000000000000000000000000000000000000000000000000000000000000000000000000000000000000000000000000000000000000000000000000000000000000000000000000000000000000000000000000000000000000000000000000000000000000000000000000000000000000000000000000000000000000000000000000000000000000000000000000000000000000000000000000000000000000000000000000000000000000000000000000000000000008302000001830f4240830197288203e880a0adb30a2bbde450ec68675c0cba510d970ce7125f3e62a03799d7cfe9113d2c528845fa839f709938ebf862f860800183019a5494100000000000000000000000000000000000000180801ba0cd466f67e97e11063177e79318e9a31fbcfc92fdb0ae08cb3f9d7437b17a7685a075539ac6ee73217d208c523f5cf2500318e2c6caa60e1932dd524945d33287d6c0",
                "transactions" : [
                    {
                        "data" : "",
                        "gasLimit" : "0x019a54",
                        "gasPrice" : "0x01",
                        "nonce" : "0x00",
                        "r" : "0xcd466f67e97e11063177e79318e9a31fbcfc92fdb0ae08cb3f9d7437b17a7685",
                        "s" : "0x75539ac6ee73217d208c523f5cf2500318e2c6caa60e1932dd524945d33287d6",
                        "to" : "0x1000000000000000000000000000000000000001",
                        "v" : "0x1b",
                        "value" : "0x00"
                    }
                ],
                "uncleHeaders" : [
                ]
            }
        ],
        "genesisBlockHeader" : {
            "bloom" : "0x00000000000000000000000000000000000000000000000000000000000000000000000000000000000000000000000000000000000000000000000000000000000000000000000000000000000000000000000000000000000000000000000000000000000000000000000000000000000000000000000000000000000000000000000000000000000000000000000000000000000000000000000000000000000000000000000000000000000000000000000000000000000000000000000000000000000000000000000000000000000000000000000000000000000000000000000000000000000000000000000000000000000000000000000000000000",
            "coinbase" : "0x2adc25665018aa1fe0e6bc666dac8fc2697ff9ba",
            "difficulty" : "0x020000",
            "extraData" : "0x42",
            "gasLimit" : "0x0f4240",
            "gasUsed" : "0x00",
            "hash" : "0x84858096dacf3f08c193542fdfa8332d9c69edec41cd15ee7b6d2c0ce5bff3df",
            "mixHash" : "0x56e81f171bcc55a6ff8345e692c0f86e5b48e01b996cadc001622fb5e363b421",
            "nonce" : "0x0102030405060708",
            "number" : "0x00",
            "parentHash" : "0x0000000000000000000000000000000000000000000000000000000000000000",
            "receiptTrie" : "0x56e81f171bcc55a6ff8345e692c0f86e5b48e01b996cadc001622fb5e363b421",
            "stateRoot" : "0x67c3d4a79a007dc99753c58af276899cf3ec223a3ee761e439fdacfa2b8a5a0f",
            "timestamp" : "0x03b6",
            "transactionsTrie" : "0x56e81f171bcc55a6ff8345e692c0f86e5b48e01b996cadc001622fb5e363b421",
            "uncleHash" : "0x1dcc4de8dec75d7aab85b567b6ccd41ad312451b948a7413f0a142fd40d49347"
        },
        "genesisRLP" : "0xf901faf901f5a00000000000000000000000000000000000000000000000000000000000000000a01dcc4de8dec75d7aab85b567b6ccd41ad312451b948a7413f0a142fd40d49347942adc25665018aa1fe0e6bc666dac8fc2697ff9baa067c3d4a79a007dc99753c58af276899cf3ec223a3ee761e439fdacfa2b8a5a0fa056e81f171bcc55a6ff8345e692c0f86e5b48e01b996cadc001622fb5e363b421a056e81f171bcc55a6ff8345e692c0f86e5b48e01b996cadc001622fb5e363b421b90100000000000000000000000000000000000000000000000000000000000000000000000000000000000000000000000000000000000000000000000000000000000000000000000000000000000000000000000000000000000000000000000000000000000000000000000000000000000000000000000000000000000000000000000000000000000000000000000000000000000000000000000000000000000000000000000000000000000000000000000000000000000000000000000000000000000000000000000000000000000000000000000000000000000000000000000000000000000000000000000000000000000000000000000000000000008302000080830f4240808203b642a056e81f171bcc55a6ff8345e692c0f86e5b48e01b996cadc001622fb5e363b421880102030405060708c0c0",
        "lastblockhash" : "0x32a127245ff20b384067ff8b1f7057b7f0e4415ff80b3367e626093040ee3940",
        "network" : "EIP158",
        "postState" : {
            "0x1000000000000000000000000000000000000001" : {
                "balance" : "0x00",
                "code" : "0x6b602060406000f0600c600055600052600c60146000f0",
                "nonce" : "0x01",
                "storage" : {
                }
            },
            "0x2adc25665018aa1fe0e6bc666dac8fc2697ff9ba" : {
                "balance" : "0x4563918244f59728",
                "code" : "",
                "nonce" : "0x00",
                "storage" : {
                }
            },
            "0xa94f5374fce5edbc8e2a8697c15331677e6ebf0b" : {
                "balance" : "0x0f31b8",
                "code" : "",
                "nonce" : "0x01",
                "storage" : {
                }
            }
        },
        "pre" : {
            "0x1000000000000000000000000000000000000001" : {
                "balance" : "0x00",
                "code" : "0x6b602060406000f0600c600055600052600c60146000f0",
                "nonce" : "0x00",
                "storage" : {
                }
            },
            "0xa94f5374fce5edbc8e2a8697c15331677e6ebf0b" : {
                "balance" : "0x10c8e0",
                "code" : "",
                "nonce" : "0x00",
                "storage" : {
                }
            }
        }
    },
    "createContractViaContractOOGInitCode_d0g0v0_Frontier" : {
        "_info" : {
            "comment" : "",
            "filledwith" : "cpp-1.3.0+commit.6e0ce939.Linux.g++",
            "lllcversion" : "Version: 0.4.18-develop.2017.9.25+commit.a72237f2.Linux.g++",
            "source" : "src/BlockchainTestsFiller/GeneralStateTests/stHomesteadSpecific/createContractViaContractOOGInitCode_d0g0v0Filler.json",
            "sourceHash" : "90df8a6397f6e4f8e1d437383d7d3fb967c8f3c0842b593a3ddf7934e2e54f40"
        },
        "blocks" : [
            {
                "blockHeader" : {
                    "bloom" : "0x00000000000000000000000000000000000000000000000000000000000000000000000000000000000000000000000000000000000000000000000000000000000000000000000000000000000000000000000000000000000000000000000000000000000000000000000000000000000000000000000000000000000000000000000000000000000000000000000000000000000000000000000000000000000000000000000000000000000000000000000000000000000000000000000000000000000000000000000000000000000000000000000000000000000000000000000000000000000000000000000000000000000000000000000000000000",
                    "coinbase" : "0x2adc25665018aa1fe0e6bc666dac8fc2697ff9ba",
                    "difficulty" : "0x020000",
                    "extraData" : "",
                    "gasLimit" : "0x0f4240",
                    "gasUsed" : "0x019a54",
                    "hash" : "0x45a7882ea2873a90c34eeca253b2cea134c8c782090cc26ffd245dd6c6541a09",
                    "mixHash" : "0xae96c1986c7da2b2e80eac88163a61228b5b9eaa24f5a5962c3726c7e8faefb3",
                    "nonce" : "0xdd6f394288b3756b",
                    "number" : "0x01",
                    "parentHash" : "0x84858096dacf3f08c193542fdfa8332d9c69edec41cd15ee7b6d2c0ce5bff3df",
                    "receiptTrie" : "0x692d66896520bc5b07ef022bb68ac28e3af8e6954b112f1793e148f580ca0366",
                    "stateRoot" : "0x1b8d2c9c3d0f55e4650243ace4c294af7dd0e2dfe7adaf89a9b8688924960317",
                    "timestamp" : "0x03e8",
                    "transactionsTrie" : "0x2ef413a3884522e5edd82fec3baba532a6e487e70280c171dec16ca031e85000",
                    "uncleHash" : "0x1dcc4de8dec75d7aab85b567b6ccd41ad312451b948a7413f0a142fd40d49347"
                },
                "rlp" : "0xf90260f901f8a084858096dacf3f08c193542fdfa8332d9c69edec41cd15ee7b6d2c0ce5bff3dfa01dcc4de8dec75d7aab85b567b6ccd41ad312451b948a7413f0a142fd40d49347942adc25665018aa1fe0e6bc666dac8fc2697ff9baa01b8d2c9c3d0f55e4650243ace4c294af7dd0e2dfe7adaf89a9b8688924960317a02ef413a3884522e5edd82fec3baba532a6e487e70280c171dec16ca031e85000a0692d66896520bc5b07ef022bb68ac28e3af8e6954b112f1793e148f580ca0366b90100000000000000000000000000000000000000000000000000000000000000000000000000000000000000000000000000000000000000000000000000000000000000000000000000000000000000000000000000000000000000000000000000000000000000000000000000000000000000000000000000000000000000000000000000000000000000000000000000000000000000000000000000000000000000000000000000000000000000000000000000000000000000000000000000000000000000000000000000000000000000000000000000000000000000000000000000000000000000000000000000000000000000000000000000000000008302000001830f424083019a548203e880a0ae96c1986c7da2b2e80eac88163a61228b5b9eaa24f5a5962c3726c7e8faefb388dd6f394288b3756bf862f860800183019a5494100000000000000000000000000000000000000180801ba0cd466f67e97e11063177e79318e9a31fbcfc92fdb0ae08cb3f9d7437b17a7685a075539ac6ee73217d208c523f5cf2500318e2c6caa60e1932dd524945d33287d6c0",
                "transactions" : [
                    {
                        "data" : "",
                        "gasLimit" : "0x019a54",
                        "gasPrice" : "0x01",
                        "nonce" : "0x00",
                        "r" : "0xcd466f67e97e11063177e79318e9a31fbcfc92fdb0ae08cb3f9d7437b17a7685",
                        "s" : "0x75539ac6ee73217d208c523f5cf2500318e2c6caa60e1932dd524945d33287d6",
                        "to" : "0x1000000000000000000000000000000000000001",
                        "v" : "0x1b",
                        "value" : "0x00"
                    }
                ],
                "uncleHeaders" : [
                ]
            }
        ],
        "genesisBlockHeader" : {
            "bloom" : "0x00000000000000000000000000000000000000000000000000000000000000000000000000000000000000000000000000000000000000000000000000000000000000000000000000000000000000000000000000000000000000000000000000000000000000000000000000000000000000000000000000000000000000000000000000000000000000000000000000000000000000000000000000000000000000000000000000000000000000000000000000000000000000000000000000000000000000000000000000000000000000000000000000000000000000000000000000000000000000000000000000000000000000000000000000000000",
            "coinbase" : "0x2adc25665018aa1fe0e6bc666dac8fc2697ff9ba",
            "difficulty" : "0x020000",
            "extraData" : "0x42",
            "gasLimit" : "0x0f4240",
            "gasUsed" : "0x00",
            "hash" : "0x84858096dacf3f08c193542fdfa8332d9c69edec41cd15ee7b6d2c0ce5bff3df",
            "mixHash" : "0x56e81f171bcc55a6ff8345e692c0f86e5b48e01b996cadc001622fb5e363b421",
            "nonce" : "0x0102030405060708",
            "number" : "0x00",
            "parentHash" : "0x0000000000000000000000000000000000000000000000000000000000000000",
            "receiptTrie" : "0x56e81f171bcc55a6ff8345e692c0f86e5b48e01b996cadc001622fb5e363b421",
            "stateRoot" : "0x67c3d4a79a007dc99753c58af276899cf3ec223a3ee761e439fdacfa2b8a5a0f",
            "timestamp" : "0x03b6",
            "transactionsTrie" : "0x56e81f171bcc55a6ff8345e692c0f86e5b48e01b996cadc001622fb5e363b421",
            "uncleHash" : "0x1dcc4de8dec75d7aab85b567b6ccd41ad312451b948a7413f0a142fd40d49347"
        },
        "genesisRLP" : "0xf901faf901f5a00000000000000000000000000000000000000000000000000000000000000000a01dcc4de8dec75d7aab85b567b6ccd41ad312451b948a7413f0a142fd40d49347942adc25665018aa1fe0e6bc666dac8fc2697ff9baa067c3d4a79a007dc99753c58af276899cf3ec223a3ee761e439fdacfa2b8a5a0fa056e81f171bcc55a6ff8345e692c0f86e5b48e01b996cadc001622fb5e363b421a056e81f171bcc55a6ff8345e692c0f86e5b48e01b996cadc001622fb5e363b421b90100000000000000000000000000000000000000000000000000000000000000000000000000000000000000000000000000000000000000000000000000000000000000000000000000000000000000000000000000000000000000000000000000000000000000000000000000000000000000000000000000000000000000000000000000000000000000000000000000000000000000000000000000000000000000000000000000000000000000000000000000000000000000000000000000000000000000000000000000000000000000000000000000000000000000000000000000000000000000000000000000000000000000000000000000000000008302000080830f4240808203b642a056e81f171bcc55a6ff8345e692c0f86e5b48e01b996cadc001622fb5e363b421880102030405060708c0c0",
        "lastblockhash" : "0x45a7882ea2873a90c34eeca253b2cea134c8c782090cc26ffd245dd6c6541a09",
        "network" : "Frontier",
        "postState" : {
            "0x1000000000000000000000000000000000000001" : {
                "balance" : "0x00",
                "code" : "0x6b602060406000f0600c600055600052600c60146000f0",
                "nonce" : "0x01",
                "storage" : {
                }
            },
            "0x2adc25665018aa1fe0e6bc666dac8fc2697ff9ba" : {
                "balance" : "0x4563918244f59a54",
                "code" : "",
                "nonce" : "0x00",
                "storage" : {
                }
            },
            "0xa94f5374fce5edbc8e2a8697c15331677e6ebf0b" : {
                "balance" : "0x0f2e8c",
                "code" : "",
                "nonce" : "0x01",
                "storage" : {
                }
            }
        },
        "pre" : {
            "0x1000000000000000000000000000000000000001" : {
                "balance" : "0x00",
                "code" : "0x6b602060406000f0600c600055600052600c60146000f0",
                "nonce" : "0x00",
                "storage" : {
                }
            },
            "0xa94f5374fce5edbc8e2a8697c15331677e6ebf0b" : {
                "balance" : "0x10c8e0",
                "code" : "",
                "nonce" : "0x00",
                "storage" : {
                }
            }
        }
    },
    "createContractViaContractOOGInitCode_d0g0v0_Homestead" : {
        "_info" : {
            "comment" : "",
            "filledwith" : "cpp-1.3.0+commit.6e0ce939.Linux.g++",
            "lllcversion" : "Version: 0.4.18-develop.2017.9.25+commit.a72237f2.Linux.g++",
            "source" : "src/BlockchainTestsFiller/GeneralStateTests/stHomesteadSpecific/createContractViaContractOOGInitCode_d0g0v0Filler.json",
            "sourceHash" : "90df8a6397f6e4f8e1d437383d7d3fb967c8f3c0842b593a3ddf7934e2e54f40"
        },
        "blocks" : [
            {
                "blockHeader" : {
                    "bloom" : "0x00000000000000000000000000000000000000000000000000000000000000000000000000000000000000000000000000000000000000000000000000000000000000000000000000000000000000000000000000000000000000000000000000000000000000000000000000000000000000000000000000000000000000000000000000000000000000000000000000000000000000000000000000000000000000000000000000000000000000000000000000000000000000000000000000000000000000000000000000000000000000000000000000000000000000000000000000000000000000000000000000000000000000000000000000000000",
                    "coinbase" : "0x2adc25665018aa1fe0e6bc666dac8fc2697ff9ba",
                    "difficulty" : "0x020000",
                    "extraData" : "",
                    "gasLimit" : "0x0f4240",
                    "gasUsed" : "0x019a54",
                    "hash" : "0x6b901a835c9532e5b6d6cc5f197e2c4f512e50ed98529557b0d82888bc3453ed",
                    "mixHash" : "0x3acad9ca949a5743940f14035b823677300429c6469c78d1a64a6c5e14f2da0f",
                    "nonce" : "0x91969bd54a7deaa9",
                    "number" : "0x01",
                    "parentHash" : "0x84858096dacf3f08c193542fdfa8332d9c69edec41cd15ee7b6d2c0ce5bff3df",
                    "receiptTrie" : "0x692d66896520bc5b07ef022bb68ac28e3af8e6954b112f1793e148f580ca0366",
                    "stateRoot" : "0x1b8d2c9c3d0f55e4650243ace4c294af7dd0e2dfe7adaf89a9b8688924960317",
                    "timestamp" : "0x03e8",
                    "transactionsTrie" : "0x2ef413a3884522e5edd82fec3baba532a6e487e70280c171dec16ca031e85000",
                    "uncleHash" : "0x1dcc4de8dec75d7aab85b567b6ccd41ad312451b948a7413f0a142fd40d49347"
                },
                "rlp" : "0xf90260f901f8a084858096dacf3f08c193542fdfa8332d9c69edec41cd15ee7b6d2c0ce5bff3dfa01dcc4de8dec75d7aab85b567b6ccd41ad312451b948a7413f0a142fd40d49347942adc25665018aa1fe0e6bc666dac8fc2697ff9baa01b8d2c9c3d0f55e4650243ace4c294af7dd0e2dfe7adaf89a9b8688924960317a02ef413a3884522e5edd82fec3baba532a6e487e70280c171dec16ca031e85000a0692d66896520bc5b07ef022bb68ac28e3af8e6954b112f1793e148f580ca0366b90100000000000000000000000000000000000000000000000000000000000000000000000000000000000000000000000000000000000000000000000000000000000000000000000000000000000000000000000000000000000000000000000000000000000000000000000000000000000000000000000000000000000000000000000000000000000000000000000000000000000000000000000000000000000000000000000000000000000000000000000000000000000000000000000000000000000000000000000000000000000000000000000000000000000000000000000000000000000000000000000000000000000000000000000000000000008302000001830f424083019a548203e880a03acad9ca949a5743940f14035b823677300429c6469c78d1a64a6c5e14f2da0f8891969bd54a7deaa9f862f860800183019a5494100000000000000000000000000000000000000180801ba0cd466f67e97e11063177e79318e9a31fbcfc92fdb0ae08cb3f9d7437b17a7685a075539ac6ee73217d208c523f5cf2500318e2c6caa60e1932dd524945d33287d6c0",
                "transactions" : [
                    {
                        "data" : "",
                        "gasLimit" : "0x019a54",
                        "gasPrice" : "0x01",
                        "nonce" : "0x00",
                        "r" : "0xcd466f67e97e11063177e79318e9a31fbcfc92fdb0ae08cb3f9d7437b17a7685",
                        "s" : "0x75539ac6ee73217d208c523f5cf2500318e2c6caa60e1932dd524945d33287d6",
                        "to" : "0x1000000000000000000000000000000000000001",
                        "v" : "0x1b",
                        "value" : "0x00"
                    }
                ],
                "uncleHeaders" : [
                ]
            }
        ],
        "genesisBlockHeader" : {
            "bloom" : "0x00000000000000000000000000000000000000000000000000000000000000000000000000000000000000000000000000000000000000000000000000000000000000000000000000000000000000000000000000000000000000000000000000000000000000000000000000000000000000000000000000000000000000000000000000000000000000000000000000000000000000000000000000000000000000000000000000000000000000000000000000000000000000000000000000000000000000000000000000000000000000000000000000000000000000000000000000000000000000000000000000000000000000000000000000000000",
            "coinbase" : "0x2adc25665018aa1fe0e6bc666dac8fc2697ff9ba",
            "difficulty" : "0x020000",
            "extraData" : "0x42",
            "gasLimit" : "0x0f4240",
            "gasUsed" : "0x00",
            "hash" : "0x84858096dacf3f08c193542fdfa8332d9c69edec41cd15ee7b6d2c0ce5bff3df",
            "mixHash" : "0x56e81f171bcc55a6ff8345e692c0f86e5b48e01b996cadc001622fb5e363b421",
            "nonce" : "0x0102030405060708",
            "number" : "0x00",
            "parentHash" : "0x0000000000000000000000000000000000000000000000000000000000000000",
            "receiptTrie" : "0x56e81f171bcc55a6ff8345e692c0f86e5b48e01b996cadc001622fb5e363b421",
            "stateRoot" : "0x67c3d4a79a007dc99753c58af276899cf3ec223a3ee761e439fdacfa2b8a5a0f",
            "timestamp" : "0x03b6",
            "transactionsTrie" : "0x56e81f171bcc55a6ff8345e692c0f86e5b48e01b996cadc001622fb5e363b421",
            "uncleHash" : "0x1dcc4de8dec75d7aab85b567b6ccd41ad312451b948a7413f0a142fd40d49347"
        },
        "genesisRLP" : "0xf901faf901f5a00000000000000000000000000000000000000000000000000000000000000000a01dcc4de8dec75d7aab85b567b6ccd41ad312451b948a7413f0a142fd40d49347942adc25665018aa1fe0e6bc666dac8fc2697ff9baa067c3d4a79a007dc99753c58af276899cf3ec223a3ee761e439fdacfa2b8a5a0fa056e81f171bcc55a6ff8345e692c0f86e5b48e01b996cadc001622fb5e363b421a056e81f171bcc55a6ff8345e692c0f86e5b48e01b996cadc001622fb5e363b421b90100000000000000000000000000000000000000000000000000000000000000000000000000000000000000000000000000000000000000000000000000000000000000000000000000000000000000000000000000000000000000000000000000000000000000000000000000000000000000000000000000000000000000000000000000000000000000000000000000000000000000000000000000000000000000000000000000000000000000000000000000000000000000000000000000000000000000000000000000000000000000000000000000000000000000000000000000000000000000000000000000000000000000000000000000000000008302000080830f4240808203b642a056e81f171bcc55a6ff8345e692c0f86e5b48e01b996cadc001622fb5e363b421880102030405060708c0c0",
        "lastblockhash" : "0x6b901a835c9532e5b6d6cc5f197e2c4f512e50ed98529557b0d82888bc3453ed",
        "network" : "Homestead",
        "postState" : {
            "0x1000000000000000000000000000000000000001" : {
                "balance" : "0x00",
                "code" : "0x6b602060406000f0600c600055600052600c60146000f0",
                "nonce" : "0x01",
                "storage" : {
                }
            },
            "0x2adc25665018aa1fe0e6bc666dac8fc2697ff9ba" : {
                "balance" : "0x4563918244f59a54",
                "code" : "",
                "nonce" : "0x00",
                "storage" : {
                }
            },
            "0xa94f5374fce5edbc8e2a8697c15331677e6ebf0b" : {
                "balance" : "0x0f2e8c",
                "code" : "",
                "nonce" : "0x01",
                "storage" : {
                }
            }
        },
        "pre" : {
            "0x1000000000000000000000000000000000000001" : {
                "balance" : "0x00",
                "code" : "0x6b602060406000f0600c600055600052600c60146000f0",
                "nonce" : "0x00",
                "storage" : {
                }
            },
            "0xa94f5374fce5edbc8e2a8697c15331677e6ebf0b" : {
                "balance" : "0x10c8e0",
                "code" : "",
                "nonce" : "0x00",
                "storage" : {
                }
            }
        }
    }
}