{
    "shallowStack_d18g0v0_Byzantium" : {
        "_info" : {
            "comment" : "",
            "filledwith" : "cpp-1.3.0+commit.6e0ce939.Linux.g++",
            "lllcversion" : "Version: 0.4.18-develop.2017.9.25+commit.a72237f2.Linux.g++",
            "source" : "src/BlockchainTestsFiller/GeneralStateTests/stStackTests/shallowStack_d18g0v0Filler.json",
            "sourceHash" : "1746e13f3fd0f357a67a77932cdb54ee4eae8546cf50ce9aaa710e9b81840914"
        },
        "blocks" : [
            {
                "blockHeader" : {
                    "bloom" : "0x00000000000000000000000000000000000000000000000000000000000000000000000000000000000000000000000000000000000000000000000000000000000000000000000000000000000000000000000000000000000000000000000000000000000000000000000000000000000000000000000000000000000000000000000000000000000000000000000000000000000000000000000000000000000000000000000000000000000000000000000000000000000000000000000000000000000000000000000000000000000000000000000000000000000000000000000000000000000000000000000000000000000000000000000000000000",
                    "coinbase" : "0x2adc25665018aa1fe0e6bc666dac8fc2697ff9ba",
                    "difficulty" : "0x020000",
                    "extraData" : "",
                    "gasLimit" : "0x0a00000000",
                    "gasUsed" : "0x0493e0",
                    "hash" : "0xe1f08e7e533ce501e9a951347d26f6b850cee216947baf401be8deb48b079948",
                    "mixHash" : "0xb6971baf00c098a2c9c563c60cc5891fcab45932e0e90a56227ad3b7094ea55f",
                    "nonce" : "0x034200af0986e1e8",
                    "number" : "0x01",
                    "parentHash" : "0xbf82cec88667ba7112d825fdde9b12f69a584c0d88a818f72cf533860eef9d12",
                    "receiptTrie" : "0xe2a8b0fa171b989aab37eee4a349917e9c93607fc5c7b07513cf8997ec83e8bf",
                    "stateRoot" : "0x6e6a1754fef6fb7a69dc5973eb616dc6b7a2e6ccef04a3bc3e9f3a0f37a65d30",
                    "timestamp" : "0x03e8",
                    "transactionsTrie" : "0x395ab5665ee18b2015d14b6eb5f0a17f61e16ea19551d79fbb15391bd9fa0246",
                    "uncleHash" : "0x1dcc4de8dec75d7aab85b567b6ccd41ad312451b948a7413f0a142fd40d49347"
                },
                "rlp" : "0xf90254f901faa0bf82cec88667ba7112d825fdde9b12f69a584c0d88a818f72cf533860eef9d12a01dcc4de8dec75d7aab85b567b6ccd41ad312451b948a7413f0a142fd40d49347942adc25665018aa1fe0e6bc666dac8fc2697ff9baa06e6a1754fef6fb7a69dc5973eb616dc6b7a2e6ccef04a3bc3e9f3a0f37a65d30a0395ab5665ee18b2015d14b6eb5f0a17f61e16ea19551d79fbb15391bd9fa0246a0e2a8b0fa171b989aab37eee4a349917e9c93607fc5c7b07513cf8997ec83e8bfb90100000000000000000000000000000000000000000000000000000000000000000000000000000000000000000000000000000000000000000000000000000000000000000000000000000000000000000000000000000000000000000000000000000000000000000000000000000000000000000000000000000000000000000000000000000000000000000000000000000000000000000000000000000000000000000000000000000000000000000000000000000000000000000000000000000000000000000000000000000000000000000000000000000000000000000000000000000000000000000000000000000000000000000000000000000000008302000001850a00000000830493e08203e880a0b6971baf00c098a2c9c563c60cc5891fcab45932e0e90a56227ad3b7094ea55f88034200af0986e1e8f854f8528001830493e08080866001176000551ba0356e87624266823146444c61a25f686f0d9e6b3eb715c10389b677ddb4625c0da050e15d68ead7549ebd777dd446c0c3f92c75b055b034e80fa242a11e05bd0df2c0",
                "transactions" : [
                    {
                        "data" : "0x600117600055",
                        "gasLimit" : "0x0493e0",
                        "gasPrice" : "0x01",
                        "nonce" : "0x00",
                        "r" : "0x356e87624266823146444c61a25f686f0d9e6b3eb715c10389b677ddb4625c0d",
                        "s" : "0x50e15d68ead7549ebd777dd446c0c3f92c75b055b034e80fa242a11e05bd0df2",
                        "to" : "",
                        "v" : "0x1b",
                        "value" : "0x00"
                    }
                ],
                "uncleHeaders" : [
                ]
            }
        ],
        "genesisBlockHeader" : {
            "bloom" : "0x00000000000000000000000000000000000000000000000000000000000000000000000000000000000000000000000000000000000000000000000000000000000000000000000000000000000000000000000000000000000000000000000000000000000000000000000000000000000000000000000000000000000000000000000000000000000000000000000000000000000000000000000000000000000000000000000000000000000000000000000000000000000000000000000000000000000000000000000000000000000000000000000000000000000000000000000000000000000000000000000000000000000000000000000000000000",
            "coinbase" : "0x2adc25665018aa1fe0e6bc666dac8fc2697ff9ba",
            "difficulty" : "0x020000",
            "extraData" : "0x42",
            "gasLimit" : "0x0a00000000",
            "gasUsed" : "0x00",
            "hash" : "0xbf82cec88667ba7112d825fdde9b12f69a584c0d88a818f72cf533860eef9d12",
            "mixHash" : "0x56e81f171bcc55a6ff8345e692c0f86e5b48e01b996cadc001622fb5e363b421",
            "nonce" : "0x0102030405060708",
            "number" : "0x00",
            "parentHash" : "0x0000000000000000000000000000000000000000000000000000000000000000",
            "receiptTrie" : "0x56e81f171bcc55a6ff8345e692c0f86e5b48e01b996cadc001622fb5e363b421",
            "stateRoot" : "0x008ee04e394b2d73709f97316aceb055e1ef425cf2cc18511254b3b024842b89",
            "timestamp" : "0x03b6",
            "transactionsTrie" : "0x56e81f171bcc55a6ff8345e692c0f86e5b48e01b996cadc001622fb5e363b421",
            "uncleHash" : "0x1dcc4de8dec75d7aab85b567b6ccd41ad312451b948a7413f0a142fd40d49347"
        },
        "genesisRLP" : "0xf901fcf901f7a00000000000000000000000000000000000000000000000000000000000000000a01dcc4de8dec75d7aab85b567b6ccd41ad312451b948a7413f0a142fd40d49347942adc25665018aa1fe0e6bc666dac8fc2697ff9baa0008ee04e394b2d73709f97316aceb055e1ef425cf2cc18511254b3b024842b89a056e81f171bcc55a6ff8345e692c0f86e5b48e01b996cadc001622fb5e363b421a056e81f171bcc55a6ff8345e692c0f86e5b48e01b996cadc001622fb5e363b421b90100000000000000000000000000000000000000000000000000000000000000000000000000000000000000000000000000000000000000000000000000000000000000000000000000000000000000000000000000000000000000000000000000000000000000000000000000000000000000000000000000000000000000000000000000000000000000000000000000000000000000000000000000000000000000000000000000000000000000000000000000000000000000000000000000000000000000000000000000000000000000000000000000000000000000000000000000000000000000000000000000000000000000000000000000000000008302000080850a00000000808203b642a056e81f171bcc55a6ff8345e692c0f86e5b48e01b996cadc001622fb5e363b421880102030405060708c0c0",
        "lastblockhash" : "0xe1f08e7e533ce501e9a951347d26f6b850cee216947baf401be8deb48b079948",
        "network" : "Byzantium",
        "postState" : {
            "0x2adc25665018aa1fe0e6bc666dac8fc2697ff9ba" : {
                "balance" : "0x29a2241af63093e0",
                "code" : "",
                "nonce" : "0x00",
                "storage" : {
                }
            },
            "0xa94f5374fce5edbc8e2a8697c15331677e6ebf0b" : {
                "balance" : "0x270ffffb6c20",
                "code" : "",
                "nonce" : "0x01",
                "storage" : {
                }
            }
        },
        "pre" : {
            "0xa94f5374fce5edbc8e2a8697c15331677e6ebf0b" : {
                "balance" : "0x271000000000",
                "code" : "",
                "nonce" : "0x00",
                "storage" : {
                }
            }
        }
    },
    "shallowStack_d18g0v0_EIP150" : {
        "_info" : {
            "comment" : "",
            "filledwith" : "cpp-1.3.0+commit.6e0ce939.Linux.g++",
            "lllcversion" : "Version: 0.4.18-develop.2017.9.25+commit.a72237f2.Linux.g++",
            "source" : "src/BlockchainTestsFiller/GeneralStateTests/stStackTests/shallowStack_d18g0v0Filler.json",
            "sourceHash" : "1746e13f3fd0f357a67a77932cdb54ee4eae8546cf50ce9aaa710e9b81840914"
        },
        "blocks" : [
            {
                "blockHeader" : {
                    "bloom" : "0x00000000000000000000000000000000000000000000000000000000000000000000000000000000000000000000000000000000000000000000000000000000000000000000000000000000000000000000000000000000000000000000000000000000000000000000000000000000000000000000000000000000000000000000000000000000000000000000000000000000000000000000000000000000000000000000000000000000000000000000000000000000000000000000000000000000000000000000000000000000000000000000000000000000000000000000000000000000000000000000000000000000000000000000000000000000",
                    "coinbase" : "0x2adc25665018aa1fe0e6bc666dac8fc2697ff9ba",
                    "difficulty" : "0x020000",
                    "extraData" : "",
                    "gasLimit" : "0x0a00000000",
                    "gasUsed" : "0x0493e0",
                    "hash" : "0x5e9d91b7fd7bd0f6a9f79cfaa28a7a510eebd340104a7f02eaeb7b233016c1b8",
                    "mixHash" : "0x842c3d6e9e42cfffe349ed7bbc7e7c296b577bbf2d5cd8d6c14b841a02b1d309",
                    "nonce" : "0x5e9e10610432b5f4",
                    "number" : "0x01",
                    "parentHash" : "0xbf82cec88667ba7112d825fdde9b12f69a584c0d88a818f72cf533860eef9d12",
                    "receiptTrie" : "0x043709099859f0100751918acbcc9a5d8231156ae96e39144d1253a5fd44b7a4",
                    "stateRoot" : "0xb8c610ebc6de2fcc601a8bc7d2740481b7b09ad220228036b2b0ed0255ed04a6",
                    "timestamp" : "0x03e8",
                    "transactionsTrie" : "0x395ab5665ee18b2015d14b6eb5f0a17f61e16ea19551d79fbb15391bd9fa0246",
                    "uncleHash" : "0x1dcc4de8dec75d7aab85b567b6ccd41ad312451b948a7413f0a142fd40d49347"
                },
                "rlp" : "0xf90254f901faa0bf82cec88667ba7112d825fdde9b12f69a584c0d88a818f72cf533860eef9d12a01dcc4de8dec75d7aab85b567b6ccd41ad312451b948a7413f0a142fd40d49347942adc25665018aa1fe0e6bc666dac8fc2697ff9baa0b8c610ebc6de2fcc601a8bc7d2740481b7b09ad220228036b2b0ed0255ed04a6a0395ab5665ee18b2015d14b6eb5f0a17f61e16ea19551d79fbb15391bd9fa0246a0043709099859f0100751918acbcc9a5d8231156ae96e39144d1253a5fd44b7a4b90100000000000000000000000000000000000000000000000000000000000000000000000000000000000000000000000000000000000000000000000000000000000000000000000000000000000000000000000000000000000000000000000000000000000000000000000000000000000000000000000000000000000000000000000000000000000000000000000000000000000000000000000000000000000000000000000000000000000000000000000000000000000000000000000000000000000000000000000000000000000000000000000000000000000000000000000000000000000000000000000000000000000000000000000000000000008302000001850a00000000830493e08203e880a0842c3d6e9e42cfffe349ed7bbc7e7c296b577bbf2d5cd8d6c14b841a02b1d309885e9e10610432b5f4f854f8528001830493e08080866001176000551ba0356e87624266823146444c61a25f686f0d9e6b3eb715c10389b677ddb4625c0da050e15d68ead7549ebd777dd446c0c3f92c75b055b034e80fa242a11e05bd0df2c0",
                "transactions" : [
                    {
                        "data" : "0x600117600055",
                        "gasLimit" : "0x0493e0",
                        "gasPrice" : "0x01",
                        "nonce" : "0x00",
                        "r" : "0x356e87624266823146444c61a25f686f0d9e6b3eb715c10389b677ddb4625c0d",
                        "s" : "0x50e15d68ead7549ebd777dd446c0c3f92c75b055b034e80fa242a11e05bd0df2",
                        "to" : "",
                        "v" : "0x1b",
                        "value" : "0x00"
                    }
                ],
                "uncleHeaders" : [
                ]
            }
        ],
        "genesisBlockHeader" : {
            "bloom" : "0x00000000000000000000000000000000000000000000000000000000000000000000000000000000000000000000000000000000000000000000000000000000000000000000000000000000000000000000000000000000000000000000000000000000000000000000000000000000000000000000000000000000000000000000000000000000000000000000000000000000000000000000000000000000000000000000000000000000000000000000000000000000000000000000000000000000000000000000000000000000000000000000000000000000000000000000000000000000000000000000000000000000000000000000000000000000",
            "coinbase" : "0x2adc25665018aa1fe0e6bc666dac8fc2697ff9ba",
            "difficulty" : "0x020000",
            "extraData" : "0x42",
            "gasLimit" : "0x0a00000000",
            "gasUsed" : "0x00",
            "hash" : "0xbf82cec88667ba7112d825fdde9b12f69a584c0d88a818f72cf533860eef9d12",
            "mixHash" : "0x56e81f171bcc55a6ff8345e692c0f86e5b48e01b996cadc001622fb5e363b421",
            "nonce" : "0x0102030405060708",
            "number" : "0x00",
            "parentHash" : "0x0000000000000000000000000000000000000000000000000000000000000000",
            "receiptTrie" : "0x56e81f171bcc55a6ff8345e692c0f86e5b48e01b996cadc001622fb5e363b421",
            "stateRoot" : "0x008ee04e394b2d73709f97316aceb055e1ef425cf2cc18511254b3b024842b89",
            "timestamp" : "0x03b6",
            "transactionsTrie" : "0x56e81f171bcc55a6ff8345e692c0f86e5b48e01b996cadc001622fb5e363b421",
            "uncleHash" : "0x1dcc4de8dec75d7aab85b567b6ccd41ad312451b948a7413f0a142fd40d49347"
        },
        "genesisRLP" : "0xf901fcf901f7a00000000000000000000000000000000000000000000000000000000000000000a01dcc4de8dec75d7aab85b567b6ccd41ad312451b948a7413f0a142fd40d49347942adc25665018aa1fe0e6bc666dac8fc2697ff9baa0008ee04e394b2d73709f97316aceb055e1ef425cf2cc18511254b3b024842b89a056e81f171bcc55a6ff8345e692c0f86e5b48e01b996cadc001622fb5e363b421a056e81f171bcc55a6ff8345e692c0f86e5b48e01b996cadc001622fb5e363b421b90100000000000000000000000000000000000000000000000000000000000000000000000000000000000000000000000000000000000000000000000000000000000000000000000000000000000000000000000000000000000000000000000000000000000000000000000000000000000000000000000000000000000000000000000000000000000000000000000000000000000000000000000000000000000000000000000000000000000000000000000000000000000000000000000000000000000000000000000000000000000000000000000000000000000000000000000000000000000000000000000000000000000000000000000000000000008302000080850a00000000808203b642a056e81f171bcc55a6ff8345e692c0f86e5b48e01b996cadc001622fb5e363b421880102030405060708c0c0",
        "lastblockhash" : "0x5e9d91b7fd7bd0f6a9f79cfaa28a7a510eebd340104a7f02eaeb7b233016c1b8",
        "network" : "EIP150",
        "postState" : {
            "0x2adc25665018aa1fe0e6bc666dac8fc2697ff9ba" : {
                "balance" : "0x4563918244f893e0",
                "code" : "",
                "nonce" : "0x00",
                "storage" : {
                }
            },
            "0xa94f5374fce5edbc8e2a8697c15331677e6ebf0b" : {
                "balance" : "0x270ffffb6c20",
                "code" : "",
                "nonce" : "0x01",
                "storage" : {
                }
            }
        },
        "pre" : {
            "0xa94f5374fce5edbc8e2a8697c15331677e6ebf0b" : {
                "balance" : "0x271000000000",
                "code" : "",
                "nonce" : "0x00",
                "storage" : {
                }
            }
        }
    },
    "shallowStack_d18g0v0_EIP158" : {
        "_info" : {
            "comment" : "",
            "filledwith" : "cpp-1.3.0+commit.6e0ce939.Linux.g++",
            "lllcversion" : "Version: 0.4.18-develop.2017.9.25+commit.a72237f2.Linux.g++",
            "source" : "src/BlockchainTestsFiller/GeneralStateTests/stStackTests/shallowStack_d18g0v0Filler.json",
            "sourceHash" : "1746e13f3fd0f357a67a77932cdb54ee4eae8546cf50ce9aaa710e9b81840914"
        },
        "blocks" : [
            {
                "blockHeader" : {
                    "bloom" : "0x00000000000000000000000000000000000000000000000000000000000000000000000000000000000000000000000000000000000000000000000000000000000000000000000000000000000000000000000000000000000000000000000000000000000000000000000000000000000000000000000000000000000000000000000000000000000000000000000000000000000000000000000000000000000000000000000000000000000000000000000000000000000000000000000000000000000000000000000000000000000000000000000000000000000000000000000000000000000000000000000000000000000000000000000000000000",
                    "coinbase" : "0x2adc25665018aa1fe0e6bc666dac8fc2697ff9ba",
                    "difficulty" : "0x020000",
                    "extraData" : "",
                    "gasLimit" : "0x0a00000000",
                    "gasUsed" : "0x0493e0",
                    "hash" : "0xc6be968887591e6a175c20129f898e5e518263314b4092717827a0a8be73aa3f",
                    "mixHash" : "0x03b84ed53f23e131af447de4ad7ce7682acf21d62dcc6c740802db955aa9c6ba",
                    "nonce" : "0x06122c328cde5e2d",
                    "number" : "0x01",
                    "parentHash" : "0xbf82cec88667ba7112d825fdde9b12f69a584c0d88a818f72cf533860eef9d12",
                    "receiptTrie" : "0x043709099859f0100751918acbcc9a5d8231156ae96e39144d1253a5fd44b7a4",
                    "stateRoot" : "0xb8c610ebc6de2fcc601a8bc7d2740481b7b09ad220228036b2b0ed0255ed04a6",
                    "timestamp" : "0x03e8",
                    "transactionsTrie" : "0x395ab5665ee18b2015d14b6eb5f0a17f61e16ea19551d79fbb15391bd9fa0246",
                    "uncleHash" : "0x1dcc4de8dec75d7aab85b567b6ccd41ad312451b948a7413f0a142fd40d49347"
                },
                "rlp" : "0xf90254f901faa0bf82cec88667ba7112d825fdde9b12f69a584c0d88a818f72cf533860eef9d12a01dcc4de8dec75d7aab85b567b6ccd41ad312451b948a7413f0a142fd40d49347942adc25665018aa1fe0e6bc666dac8fc2697ff9baa0b8c610ebc6de2fcc601a8bc7d2740481b7b09ad220228036b2b0ed0255ed04a6a0395ab5665ee18b2015d14b6eb5f0a17f61e16ea19551d79fbb15391bd9fa0246a0043709099859f0100751918acbcc9a5d8231156ae96e39144d1253a5fd44b7a4b90100000000000000000000000000000000000000000000000000000000000000000000000000000000000000000000000000000000000000000000000000000000000000000000000000000000000000000000000000000000000000000000000000000000000000000000000000000000000000000000000000000000000000000000000000000000000000000000000000000000000000000000000000000000000000000000000000000000000000000000000000000000000000000000000000000000000000000000000000000000000000000000000000000000000000000000000000000000000000000000000000000000000000000000000000000000008302000001850a00000000830493e08203e880a003b84ed53f23e131af447de4ad7ce7682acf21d62dcc6c740802db955aa9c6ba8806122c328cde5e2df854f8528001830493e08080866001176000551ba0356e87624266823146444c61a25f686f0d9e6b3eb715c10389b677ddb4625c0da050e15d68ead7549ebd777dd446c0c3f92c75b055b034e80fa242a11e05bd0df2c0",
                "transactions" : [
                    {
                        "data" : "0x600117600055",
                        "gasLimit" : "0x0493e0",
                        "gasPrice" : "0x01",
                        "nonce" : "0x00",
                        "r" : "0x356e87624266823146444c61a25f686f0d9e6b3eb715c10389b677ddb4625c0d",
                        "s" : "0x50e15d68ead7549ebd777dd446c0c3f92c75b055b034e80fa242a11e05bd0df2",
                        "to" : "",
                        "v" : "0x1b",
                        "value" : "0x00"
                    }
                ],
                "uncleHeaders" : [
                ]
            }
        ],
        "genesisBlockHeader" : {
            "bloom" : "0x00000000000000000000000000000000000000000000000000000000000000000000000000000000000000000000000000000000000000000000000000000000000000000000000000000000000000000000000000000000000000000000000000000000000000000000000000000000000000000000000000000000000000000000000000000000000000000000000000000000000000000000000000000000000000000000000000000000000000000000000000000000000000000000000000000000000000000000000000000000000000000000000000000000000000000000000000000000000000000000000000000000000000000000000000000000",
            "coinbase" : "0x2adc25665018aa1fe0e6bc666dac8fc2697ff9ba",
            "difficulty" : "0x020000",
            "extraData" : "0x42",
            "gasLimit" : "0x0a00000000",
            "gasUsed" : "0x00",
            "hash" : "0xbf82cec88667ba7112d825fdde9b12f69a584c0d88a818f72cf533860eef9d12",
            "mixHash" : "0x56e81f171bcc55a6ff8345e692c0f86e5b48e01b996cadc001622fb5e363b421",
            "nonce" : "0x0102030405060708",
            "number" : "0x00",
            "parentHash" : "0x0000000000000000000000000000000000000000000000000000000000000000",
            "receiptTrie" : "0x56e81f171bcc55a6ff8345e692c0f86e5b48e01b996cadc001622fb5e363b421",
            "stateRoot" : "0x008ee04e394b2d73709f97316aceb055e1ef425cf2cc18511254b3b024842b89",
            "timestamp" : "0x03b6",
            "transactionsTrie" : "0x56e81f171bcc55a6ff8345e692c0f86e5b48e01b996cadc001622fb5e363b421",
            "uncleHash" : "0x1dcc4de8dec75d7aab85b567b6ccd41ad312451b948a7413f0a142fd40d49347"
        },
        "genesisRLP" : "0xf901fcf901f7a00000000000000000000000000000000000000000000000000000000000000000a01dcc4de8dec75d7aab85b567b6ccd41ad312451b948a7413f0a142fd40d49347942adc25665018aa1fe0e6bc666dac8fc2697ff9baa0008ee04e394b2d73709f97316aceb055e1ef425cf2cc18511254b3b024842b89a056e81f171bcc55a6ff8345e692c0f86e5b48e01b996cadc001622fb5e363b421a056e81f171bcc55a6ff8345e692c0f86e5b48e01b996cadc001622fb5e363b421b90100000000000000000000000000000000000000000000000000000000000000000000000000000000000000000000000000000000000000000000000000000000000000000000000000000000000000000000000000000000000000000000000000000000000000000000000000000000000000000000000000000000000000000000000000000000000000000000000000000000000000000000000000000000000000000000000000000000000000000000000000000000000000000000000000000000000000000000000000000000000000000000000000000000000000000000000000000000000000000000000000000000000000000000000000000000008302000080850a00000000808203b642a056e81f171bcc55a6ff8345e692c0f86e5b48e01b996cadc001622fb5e363b421880102030405060708c0c0",
        "lastblockhash" : "0xc6be968887591e6a175c20129f898e5e518263314b4092717827a0a8be73aa3f",
        "network" : "EIP158",
        "postState" : {
            "0x2adc25665018aa1fe0e6bc666dac8fc2697ff9ba" : {
                "balance" : "0x4563918244f893e0",
                "code" : "",
                "nonce" : "0x00",
                "storage" : {
                }
            },
            "0xa94f5374fce5edbc8e2a8697c15331677e6ebf0b" : {
                "balance" : "0x270ffffb6c20",
                "code" : "",
                "nonce" : "0x01",
                "storage" : {
                }
            }
        },
        "pre" : {
            "0xa94f5374fce5edbc8e2a8697c15331677e6ebf0b" : {
                "balance" : "0x271000000000",
                "code" : "",
                "nonce" : "0x00",
                "storage" : {
                }
            }
        }
    },
    "shallowStack_d18g0v0_Frontier" : {
        "_info" : {
            "comment" : "",
            "filledwith" : "cpp-1.3.0+commit.6e0ce939.Linux.g++",
            "lllcversion" : "Version: 0.4.18-develop.2017.9.25+commit.a72237f2.Linux.g++",
            "source" : "src/BlockchainTestsFiller/GeneralStateTests/stStackTests/shallowStack_d18g0v0Filler.json",
            "sourceHash" : "1746e13f3fd0f357a67a77932cdb54ee4eae8546cf50ce9aaa710e9b81840914"
        },
        "blocks" : [
            {
                "blockHeader" : {
                    "bloom" : "0x00000000000000000000000000000000000000000000000000000000000000000000000000000000000000000000000000000000000000000000000000000000000000000000000000000000000000000000000000000000000000000000000000000000000000000000000000000000000000000000000000000000000000000000000000000000000000000000000000000000000000000000000000000000000000000000000000000000000000000000000000000000000000000000000000000000000000000000000000000000000000000000000000000000000000000000000000000000000000000000000000000000000000000000000000000000",
                    "coinbase" : "0x2adc25665018aa1fe0e6bc666dac8fc2697ff9ba",
                    "difficulty" : "0x020000",
                    "extraData" : "",
                    "gasLimit" : "0x0a00000000",
                    "gasUsed" : "0x0493e0",
                    "hash" : "0x41677e850ff15ef21dec1e31c9a0ab3960b8d39535a9528ca418441fd7b87b01",
                    "mixHash" : "0x83e99ebdb816f71d47d2223989e095cf450a54f5bdc9c8423df7292a15730731",
                    "nonce" : "0x57567e1d3c60e835",
                    "number" : "0x01",
                    "parentHash" : "0xbf82cec88667ba7112d825fdde9b12f69a584c0d88a818f72cf533860eef9d12",
                    "receiptTrie" : "0x043709099859f0100751918acbcc9a5d8231156ae96e39144d1253a5fd44b7a4",
                    "stateRoot" : "0xb8c610ebc6de2fcc601a8bc7d2740481b7b09ad220228036b2b0ed0255ed04a6",
                    "timestamp" : "0x03e8",
                    "transactionsTrie" : "0x395ab5665ee18b2015d14b6eb5f0a17f61e16ea19551d79fbb15391bd9fa0246",
                    "uncleHash" : "0x1dcc4de8dec75d7aab85b567b6ccd41ad312451b948a7413f0a142fd40d49347"
                },
                "rlp" : "0xf90254f901faa0bf82cec88667ba7112d825fdde9b12f69a584c0d88a818f72cf533860eef9d12a01dcc4de8dec75d7aab85b567b6ccd41ad312451b948a7413f0a142fd40d49347942adc25665018aa1fe0e6bc666dac8fc2697ff9baa0b8c610ebc6de2fcc601a8bc7d2740481b7b09ad220228036b2b0ed0255ed04a6a0395ab5665ee18b2015d14b6eb5f0a17f61e16ea19551d79fbb15391bd9fa0246a0043709099859f0100751918acbcc9a5d8231156ae96e39144d1253a5fd44b7a4b90100000000000000000000000000000000000000000000000000000000000000000000000000000000000000000000000000000000000000000000000000000000000000000000000000000000000000000000000000000000000000000000000000000000000000000000000000000000000000000000000000000000000000000000000000000000000000000000000000000000000000000000000000000000000000000000000000000000000000000000000000000000000000000000000000000000000000000000000000000000000000000000000000000000000000000000000000000000000000000000000000000000000000000000000000000000008302000001850a00000000830493e08203e880a083e99ebdb816f71d47d2223989e095cf450a54f5bdc9c8423df7292a157307318857567e1d3c60e835f854f8528001830493e08080866001176000551ba0356e87624266823146444c61a25f686f0d9e6b3eb715c10389b677ddb4625c0da050e15d68ead7549ebd777dd446c0c3f92c75b055b034e80fa242a11e05bd0df2c0",
                "transactions" : [
                    {
                        "data" : "0x600117600055",
                        "gasLimit" : "0x0493e0",
                        "gasPrice" : "0x01",
                        "nonce" : "0x00",
                        "r" : "0x356e87624266823146444c61a25f686f0d9e6b3eb715c10389b677ddb4625c0d",
                        "s" : "0x50e15d68ead7549ebd777dd446c0c3f92c75b055b034e80fa242a11e05bd0df2",
                        "to" : "",
                        "v" : "0x1b",
                        "value" : "0x00"
                    }
                ],
                "uncleHeaders" : [
                ]
            }
        ],
        "genesisBlockHeader" : {
            "bloom" : "0x00000000000000000000000000000000000000000000000000000000000000000000000000000000000000000000000000000000000000000000000000000000000000000000000000000000000000000000000000000000000000000000000000000000000000000000000000000000000000000000000000000000000000000000000000000000000000000000000000000000000000000000000000000000000000000000000000000000000000000000000000000000000000000000000000000000000000000000000000000000000000000000000000000000000000000000000000000000000000000000000000000000000000000000000000000000",
            "coinbase" : "0x2adc25665018aa1fe0e6bc666dac8fc2697ff9ba",
            "difficulty" : "0x020000",
            "extraData" : "0x42",
            "gasLimit" : "0x0a00000000",
            "gasUsed" : "0x00",
            "hash" : "0xbf82cec88667ba7112d825fdde9b12f69a584c0d88a818f72cf533860eef9d12",
            "mixHash" : "0x56e81f171bcc55a6ff8345e692c0f86e5b48e01b996cadc001622fb5e363b421",
            "nonce" : "0x0102030405060708",
            "number" : "0x00",
            "parentHash" : "0x0000000000000000000000000000000000000000000000000000000000000000",
            "receiptTrie" : "0x56e81f171bcc55a6ff8345e692c0f86e5b48e01b996cadc001622fb5e363b421",
            "stateRoot" : "0x008ee04e394b2d73709f97316aceb055e1ef425cf2cc18511254b3b024842b89",
            "timestamp" : "0x03b6",
            "transactionsTrie" : "0x56e81f171bcc55a6ff8345e692c0f86e5b48e01b996cadc001622fb5e363b421",
            "uncleHash" : "0x1dcc4de8dec75d7aab85b567b6ccd41ad312451b948a7413f0a142fd40d49347"
        },
        "genesisRLP" : "0xf901fcf901f7a00000000000000000000000000000000000000000000000000000000000000000a01dcc4de8dec75d7aab85b567b6ccd41ad312451b948a7413f0a142fd40d49347942adc25665018aa1fe0e6bc666dac8fc2697ff9baa0008ee04e394b2d73709f97316aceb055e1ef425cf2cc18511254b3b024842b89a056e81f171bcc55a6ff8345e692c0f86e5b48e01b996cadc001622fb5e363b421a056e81f171bcc55a6ff8345e692c0f86e5b48e01b996cadc001622fb5e363b421b90100000000000000000000000000000000000000000000000000000000000000000000000000000000000000000000000000000000000000000000000000000000000000000000000000000000000000000000000000000000000000000000000000000000000000000000000000000000000000000000000000000000000000000000000000000000000000000000000000000000000000000000000000000000000000000000000000000000000000000000000000000000000000000000000000000000000000000000000000000000000000000000000000000000000000000000000000000000000000000000000000000000000000000000000000000000008302000080850a00000000808203b642a056e81f171bcc55a6ff8345e692c0f86e5b48e01b996cadc001622fb5e363b421880102030405060708c0c0",
        "lastblockhash" : "0x41677e850ff15ef21dec1e31c9a0ab3960b8d39535a9528ca418441fd7b87b01",
        "network" : "Frontier",
        "postState" : {
            "0x2adc25665018aa1fe0e6bc666dac8fc2697ff9ba" : {
                "balance" : "0x4563918244f893e0",
                "code" : "",
                "nonce" : "0x00",
                "storage" : {
                }
            },
            "0xa94f5374fce5edbc8e2a8697c15331677e6ebf0b" : {
                "balance" : "0x270ffffb6c20",
                "code" : "",
                "nonce" : "0x01",
                "storage" : {
                }
            }
        },
        "pre" : {
            "0xa94f5374fce5edbc8e2a8697c15331677e6ebf0b" : {
                "balance" : "0x271000000000",
                "code" : "",
                "nonce" : "0x00",
                "storage" : {
                }
            }
        }
    },
    "shallowStack_d18g0v0_Homestead" : {
        "_info" : {
            "comment" : "",
            "filledwith" : "cpp-1.3.0+commit.6e0ce939.Linux.g++",
            "lllcversion" : "Version: 0.4.18-develop.2017.9.25+commit.a72237f2.Linux.g++",
            "source" : "src/BlockchainTestsFiller/GeneralStateTests/stStackTests/shallowStack_d18g0v0Filler.json",
            "sourceHash" : "1746e13f3fd0f357a67a77932cdb54ee4eae8546cf50ce9aaa710e9b81840914"
        },
        "blocks" : [
            {
                "blockHeader" : {
                    "bloom" : "0x00000000000000000000000000000000000000000000000000000000000000000000000000000000000000000000000000000000000000000000000000000000000000000000000000000000000000000000000000000000000000000000000000000000000000000000000000000000000000000000000000000000000000000000000000000000000000000000000000000000000000000000000000000000000000000000000000000000000000000000000000000000000000000000000000000000000000000000000000000000000000000000000000000000000000000000000000000000000000000000000000000000000000000000000000000000",
                    "coinbase" : "0x2adc25665018aa1fe0e6bc666dac8fc2697ff9ba",
                    "difficulty" : "0x020000",
                    "extraData" : "",
                    "gasLimit" : "0x0a00000000",
                    "gasUsed" : "0x0493e0",
                    "hash" : "0x87843940e5ef7be7b9125184b176c72f56feeede0aa74febe4d44c34318bfa1c",
                    "mixHash" : "0x31e548053bcf96b37657ebf63b4b8d8fd4d8b3ae621bdf810d4ce752d7a0a5f0",
                    "nonce" : "0x11b5a74fc3c48ae9",
                    "number" : "0x01",
                    "parentHash" : "0xbf82cec88667ba7112d825fdde9b12f69a584c0d88a818f72cf533860eef9d12",
                    "receiptTrie" : "0x043709099859f0100751918acbcc9a5d8231156ae96e39144d1253a5fd44b7a4",
                    "stateRoot" : "0xb8c610ebc6de2fcc601a8bc7d2740481b7b09ad220228036b2b0ed0255ed04a6",
                    "timestamp" : "0x03e8",
                    "transactionsTrie" : "0x395ab5665ee18b2015d14b6eb5f0a17f61e16ea19551d79fbb15391bd9fa0246",
                    "uncleHash" : "0x1dcc4de8dec75d7aab85b567b6ccd41ad312451b948a7413f0a142fd40d49347"
                },
                "rlp" : "0xf90254f901faa0bf82cec88667ba7112d825fdde9b12f69a584c0d88a818f72cf533860eef9d12a01dcc4de8dec75d7aab85b567b6ccd41ad312451b948a7413f0a142fd40d49347942adc25665018aa1fe0e6bc666dac8fc2697ff9baa0b8c610ebc6de2fcc601a8bc7d2740481b7b09ad220228036b2b0ed0255ed04a6a0395ab5665ee18b2015d14b6eb5f0a17f61e16ea19551d79fbb15391bd9fa0246a0043709099859f0100751918acbcc9a5d8231156ae96e39144d1253a5fd44b7a4b90100000000000000000000000000000000000000000000000000000000000000000000000000000000000000000000000000000000000000000000000000000000000000000000000000000000000000000000000000000000000000000000000000000000000000000000000000000000000000000000000000000000000000000000000000000000000000000000000000000000000000000000000000000000000000000000000000000000000000000000000000000000000000000000000000000000000000000000000000000000000000000000000000000000000000000000000000000000000000000000000000000000000000000000000000000000008302000001850a00000000830493e08203e880a031e548053bcf96b37657ebf63b4b8d8fd4d8b3ae621bdf810d4ce752d7a0a5f08811b5a74fc3c48ae9f854f8528001830493e08080866001176000551ba0356e87624266823146444c61a25f686f0d9e6b3eb715c10389b677ddb4625c0da050e15d68ead7549ebd777dd446c0c3f92c75b055b034e80fa242a11e05bd0df2c0",
                "transactions" : [
                    {
                        "data" : "0x600117600055",
                        "gasLimit" : "0x0493e0",
                        "gasPrice" : "0x01",
                        "nonce" : "0x00",
                        "r" : "0x356e87624266823146444c61a25f686f0d9e6b3eb715c10389b677ddb4625c0d",
                        "s" : "0x50e15d68ead7549ebd777dd446c0c3f92c75b055b034e80fa242a11e05bd0df2",
                        "to" : "",
                        "v" : "0x1b",
                        "value" : "0x00"
                    }
                ],
                "uncleHeaders" : [
                ]
            }
        ],
        "genesisBlockHeader" : {
            "bloom" : "0x00000000000000000000000000000000000000000000000000000000000000000000000000000000000000000000000000000000000000000000000000000000000000000000000000000000000000000000000000000000000000000000000000000000000000000000000000000000000000000000000000000000000000000000000000000000000000000000000000000000000000000000000000000000000000000000000000000000000000000000000000000000000000000000000000000000000000000000000000000000000000000000000000000000000000000000000000000000000000000000000000000000000000000000000000000000",
            "coinbase" : "0x2adc25665018aa1fe0e6bc666dac8fc2697ff9ba",
            "difficulty" : "0x020000",
            "extraData" : "0x42",
            "gasLimit" : "0x0a00000000",
            "gasUsed" : "0x00",
            "hash" : "0xbf82cec88667ba7112d825fdde9b12f69a584c0d88a818f72cf533860eef9d12",
            "mixHash" : "0x56e81f171bcc55a6ff8345e692c0f86e5b48e01b996cadc001622fb5e363b421",
            "nonce" : "0x0102030405060708",
            "number" : "0x00",
            "parentHash" : "0x0000000000000000000000000000000000000000000000000000000000000000",
            "receiptTrie" : "0x56e81f171bcc55a6ff8345e692c0f86e5b48e01b996cadc001622fb5e363b421",
            "stateRoot" : "0x008ee04e394b2d73709f97316aceb055e1ef425cf2cc18511254b3b024842b89",
            "timestamp" : "0x03b6",
            "transactionsTrie" : "0x56e81f171bcc55a6ff8345e692c0f86e5b48e01b996cadc001622fb5e363b421",
            "uncleHash" : "0x1dcc4de8dec75d7aab85b567b6ccd41ad312451b948a7413f0a142fd40d49347"
        },
        "genesisRLP" : "0xf901fcf901f7a00000000000000000000000000000000000000000000000000000000000000000a01dcc4de8dec75d7aab85b567b6ccd41ad312451b948a7413f0a142fd40d49347942adc25665018aa1fe0e6bc666dac8fc2697ff9baa0008ee04e394b2d73709f97316aceb055e1ef425cf2cc18511254b3b024842b89a056e81f171bcc55a6ff8345e692c0f86e5b48e01b996cadc001622fb5e363b421a056e81f171bcc55a6ff8345e692c0f86e5b48e01b996cadc001622fb5e363b421b90100000000000000000000000000000000000000000000000000000000000000000000000000000000000000000000000000000000000000000000000000000000000000000000000000000000000000000000000000000000000000000000000000000000000000000000000000000000000000000000000000000000000000000000000000000000000000000000000000000000000000000000000000000000000000000000000000000000000000000000000000000000000000000000000000000000000000000000000000000000000000000000000000000000000000000000000000000000000000000000000000000000000000000000000000000000008302000080850a00000000808203b642a056e81f171bcc55a6ff8345e692c0f86e5b48e01b996cadc001622fb5e363b421880102030405060708c0c0",
        "lastblockhash" : "0x87843940e5ef7be7b9125184b176c72f56feeede0aa74febe4d44c34318bfa1c",
        "network" : "Homestead",
        "postState" : {
            "0x2adc25665018aa1fe0e6bc666dac8fc2697ff9ba" : {
                "balance" : "0x4563918244f893e0",
                "code" : "",
                "nonce" : "0x00",
                "storage" : {
                }
            },
            "0xa94f5374fce5edbc8e2a8697c15331677e6ebf0b" : {
                "balance" : "0x270ffffb6c20",
                "code" : "",
                "nonce" : "0x01",
                "storage" : {
                }
            }
        },
        "pre" : {
            "0xa94f5374fce5edbc8e2a8697c15331677e6ebf0b" : {
                "balance" : "0x271000000000",
                "code" : "",
                "nonce" : "0x00",
                "storage" : {
                }
            }
        }
    }
}