{
    "shallowStack_d80g0v0_Byzantium" : {
        "_info" : {
            "comment" : "",
            "filledwith" : "cpp-1.3.0+commit.6e0ce939.Linux.g++",
            "lllcversion" : "Version: 0.4.18-develop.2017.9.25+commit.a72237f2.Linux.g++",
            "source" : "src/BlockchainTestsFiller/GeneralStateTests/stStackTests/shallowStack_d80g0v0Filler.json",
            "sourceHash" : "5798456afe31e29ae780c7f745f353797b933890b81b997223b460f88087dcbc"
        },
        "blocks" : [
            {
                "blockHeader" : {
                    "bloom" : "0x00000000000000000000000000000000000000000000000000000000000000000000000000000000000000000000000000000000000000000000000000000000000000000000000000000000000000000000000000000000000000000000000000000000000000000000000000000000000000000000000000000000000000000000000000000000000000000000000000000000000000000000000000000000000000000000000000000000000000000000000000000000000000000000000000000000000000000000000000000000000000000000000000000000000000000000000000000000000000000000000000000000000000000000000000000000",
                    "coinbase" : "0x2adc25665018aa1fe0e6bc666dac8fc2697ff9ba",
                    "difficulty" : "0x020000",
                    "extraData" : "",
                    "gasLimit" : "0x0a00000000",
                    "gasUsed" : "0x0493e0",
                    "hash" : "0xd3c59ec56d35152121aa925e0d70e2c4f9ad9f525d1ae52c6cc30bb34f2930c6",
                    "mixHash" : "0x8ee83a77a0119f485f3d70ca28c49fb31e24b1b38e550b2ab170c9085f3b0ea5",
                    "nonce" : "0x2b7c0192c3bda691",
                    "number" : "0x01",
                    "parentHash" : "0xbf82cec88667ba7112d825fdde9b12f69a584c0d88a818f72cf533860eef9d12",
                    "receiptTrie" : "0xe2a8b0fa171b989aab37eee4a349917e9c93607fc5c7b07513cf8997ec83e8bf",
                    "stateRoot" : "0x6e6a1754fef6fb7a69dc5973eb616dc6b7a2e6ccef04a3bc3e9f3a0f37a65d30",
                    "timestamp" : "0x03e8",
                    "transactionsTrie" : "0xbbcf2682eb70cdd94f9148d6085467c72f576238dc8f97be789befa2e6d421fe",
                    "uncleHash" : "0x1dcc4de8dec75d7aab85b567b6ccd41ad312451b948a7413f0a142fd40d49347"
                },
                "rlp" : "0xf90252f901faa0bf82cec88667ba7112d825fdde9b12f69a584c0d88a818f72cf533860eef9d12a01dcc4de8dec75d7aab85b567b6ccd41ad312451b948a7413f0a142fd40d49347942adc25665018aa1fe0e6bc666dac8fc2697ff9baa06e6a1754fef6fb7a69dc5973eb616dc6b7a2e6ccef04a3bc3e9f3a0f37a65d30a0bbcf2682eb70cdd94f9148d6085467c72f576238dc8f97be789befa2e6d421fea0e2a8b0fa171b989aab37eee4a349917e9c93607fc5c7b07513cf8997ec83e8bfb90100000000000000000000000000000000000000000000000000000000000000000000000000000000000000000000000000000000000000000000000000000000000000000000000000000000000000000000000000000000000000000000000000000000000000000000000000000000000000000000000000000000000000000000000000000000000000000000000000000000000000000000000000000000000000000000000000000000000000000000000000000000000000000000000000000000000000000000000000000000000000000000000000000000000000000000000000000000000000000000000000000000000000000000000000000000008302000001850a00000000830493e08203e880a08ee83a77a0119f485f3d70ca28c49fb31e24b1b38e550b2ab170c9085f3b0ea5882b7c0192c3bda691f852f8508001830493e0808084ff6000551ba06b871e8be65ff7c041df6c5b84101aaddb28bf196d5515fd25be926d7c2b76a6a02a117e1a9b4ad9be190f9f4554d2a6b37de530bc689216864f09d260a4bc5370c0",
                "transactions" : [
                    {
                        "data" : "0xff600055",
                        "gasLimit" : "0x0493e0",
                        "gasPrice" : "0x01",
                        "nonce" : "0x00",
                        "r" : "0x6b871e8be65ff7c041df6c5b84101aaddb28bf196d5515fd25be926d7c2b76a6",
                        "s" : "0x2a117e1a9b4ad9be190f9f4554d2a6b37de530bc689216864f09d260a4bc5370",
                        "to" : "",
                        "v" : "0x1b",
                        "value" : "0x00"
                    }
                ],
                "uncleHeaders" : [
                ]
            }
        ],
        "genesisBlockHeader" : {
            "bloom" : "0x00000000000000000000000000000000000000000000000000000000000000000000000000000000000000000000000000000000000000000000000000000000000000000000000000000000000000000000000000000000000000000000000000000000000000000000000000000000000000000000000000000000000000000000000000000000000000000000000000000000000000000000000000000000000000000000000000000000000000000000000000000000000000000000000000000000000000000000000000000000000000000000000000000000000000000000000000000000000000000000000000000000000000000000000000000000",
            "coinbase" : "0x2adc25665018aa1fe0e6bc666dac8fc2697ff9ba",
            "difficulty" : "0x020000",
            "extraData" : "0x42",
            "gasLimit" : "0x0a00000000",
            "gasUsed" : "0x00",
            "hash" : "0xbf82cec88667ba7112d825fdde9b12f69a584c0d88a818f72cf533860eef9d12",
            "mixHash" : "0x56e81f171bcc55a6ff8345e692c0f86e5b48e01b996cadc001622fb5e363b421",
            "nonce" : "0x0102030405060708",
            "number" : "0x00",
            "parentHash" : "0x0000000000000000000000000000000000000000000000000000000000000000",
            "receiptTrie" : "0x56e81f171bcc55a6ff8345e692c0f86e5b48e01b996cadc001622fb5e363b421",
            "stateRoot" : "0x008ee04e394b2d73709f97316aceb055e1ef425cf2cc18511254b3b024842b89",
            "timestamp" : "0x03b6",
            "transactionsTrie" : "0x56e81f171bcc55a6ff8345e692c0f86e5b48e01b996cadc001622fb5e363b421",
            "uncleHash" : "0x1dcc4de8dec75d7aab85b567b6ccd41ad312451b948a7413f0a142fd40d49347"
        },
        "genesisRLP" : "0xf901fcf901f7a00000000000000000000000000000000000000000000000000000000000000000a01dcc4de8dec75d7aab85b567b6ccd41ad312451b948a7413f0a142fd40d49347942adc25665018aa1fe0e6bc666dac8fc2697ff9baa0008ee04e394b2d73709f97316aceb055e1ef425cf2cc18511254b3b024842b89a056e81f171bcc55a6ff8345e692c0f86e5b48e01b996cadc001622fb5e363b421a056e81f171bcc55a6ff8345e692c0f86e5b48e01b996cadc001622fb5e363b421b90100000000000000000000000000000000000000000000000000000000000000000000000000000000000000000000000000000000000000000000000000000000000000000000000000000000000000000000000000000000000000000000000000000000000000000000000000000000000000000000000000000000000000000000000000000000000000000000000000000000000000000000000000000000000000000000000000000000000000000000000000000000000000000000000000000000000000000000000000000000000000000000000000000000000000000000000000000000000000000000000000000000000000000000000000000000008302000080850a00000000808203b642a056e81f171bcc55a6ff8345e692c0f86e5b48e01b996cadc001622fb5e363b421880102030405060708c0c0",
        "lastblockhash" : "0xd3c59ec56d35152121aa925e0d70e2c4f9ad9f525d1ae52c6cc30bb34f2930c6",
        "network" : "Byzantium",
        "postState" : {
            "0x2adc25665018aa1fe0e6bc666dac8fc2697ff9ba" : {
                "balance" : "0x29a2241af63093e0",
                "code" : "",
                "nonce" : "0x00",
                "storage" : {
                }
            },
            "0xa94f5374fce5edbc8e2a8697c15331677e6ebf0b" : {
                "balance" : "0x270ffffb6c20",
                "code" : "",
                "nonce" : "0x01",
                "storage" : {
                }
            }
        },
        "pre" : {
            "0xa94f5374fce5edbc8e2a8697c15331677e6ebf0b" : {
                "balance" : "0x271000000000",
                "code" : "",
                "nonce" : "0x00",
                "storage" : {
                }
            }
        }
    },
    "shallowStack_d80g0v0_EIP150" : {
        "_info" : {
            "comment" : "",
            "filledwith" : "cpp-1.3.0+commit.6e0ce939.Linux.g++",
            "lllcversion" : "Version: 0.4.18-develop.2017.9.25+commit.a72237f2.Linux.g++",
            "source" : "src/BlockchainTestsFiller/GeneralStateTests/stStackTests/shallowStack_d80g0v0Filler.json",
            "sourceHash" : "5798456afe31e29ae780c7f745f353797b933890b81b997223b460f88087dcbc"
        },
        "blocks" : [
            {
                "blockHeader" : {
                    "bloom" : "0x00000000000000000000000000000000000000000000000000000000000000000000000000000000000000000000000000000000000000000000000000000000000000000000000000000000000000000000000000000000000000000000000000000000000000000000000000000000000000000000000000000000000000000000000000000000000000000000000000000000000000000000000000000000000000000000000000000000000000000000000000000000000000000000000000000000000000000000000000000000000000000000000000000000000000000000000000000000000000000000000000000000000000000000000000000000",
                    "coinbase" : "0x2adc25665018aa1fe0e6bc666dac8fc2697ff9ba",
                    "difficulty" : "0x020000",
                    "extraData" : "",
                    "gasLimit" : "0x0a00000000",
                    "gasUsed" : "0x0493e0",
                    "hash" : "0xc4b2528e28d67e7c733ccbe392be4e3518b47b24e9597515b5d849d2dd0d91ed",
                    "mixHash" : "0xc55434f92778869227e77ee26c9e2785b279cf825893aabc3fbb3db7e6030486",
                    "nonce" : "0x62c74c93e88041ee",
                    "number" : "0x01",
                    "parentHash" : "0xbf82cec88667ba7112d825fdde9b12f69a584c0d88a818f72cf533860eef9d12",
                    "receiptTrie" : "0x043709099859f0100751918acbcc9a5d8231156ae96e39144d1253a5fd44b7a4",
                    "stateRoot" : "0xb8c610ebc6de2fcc601a8bc7d2740481b7b09ad220228036b2b0ed0255ed04a6",
                    "timestamp" : "0x03e8",
                    "transactionsTrie" : "0xbbcf2682eb70cdd94f9148d6085467c72f576238dc8f97be789befa2e6d421fe",
                    "uncleHash" : "0x1dcc4de8dec75d7aab85b567b6ccd41ad312451b948a7413f0a142fd40d49347"
                },
                "rlp" : "0xf90252f901faa0bf82cec88667ba7112d825fdde9b12f69a584c0d88a818f72cf533860eef9d12a01dcc4de8dec75d7aab85b567b6ccd41ad312451b948a7413f0a142fd40d49347942adc25665018aa1fe0e6bc666dac8fc2697ff9baa0b8c610ebc6de2fcc601a8bc7d2740481b7b09ad220228036b2b0ed0255ed04a6a0bbcf2682eb70cdd94f9148d6085467c72f576238dc8f97be789befa2e6d421fea0043709099859f0100751918acbcc9a5d8231156ae96e39144d1253a5fd44b7a4b90100000000000000000000000000000000000000000000000000000000000000000000000000000000000000000000000000000000000000000000000000000000000000000000000000000000000000000000000000000000000000000000000000000000000000000000000000000000000000000000000000000000000000000000000000000000000000000000000000000000000000000000000000000000000000000000000000000000000000000000000000000000000000000000000000000000000000000000000000000000000000000000000000000000000000000000000000000000000000000000000000000000000000000000000000000000008302000001850a00000000830493e08203e880a0c55434f92778869227e77ee26c9e2785b279cf825893aabc3fbb3db7e60304868862c74c93e88041eef852f8508001830493e0808084ff6000551ba06b871e8be65ff7c041df6c5b84101aaddb28bf196d5515fd25be926d7c2b76a6a02a117e1a9b4ad9be190f9f4554d2a6b37de530bc689216864f09d260a4bc5370c0",
                "transactions" : [
                    {
                        "data" : "0xff600055",
                        "gasLimit" : "0x0493e0",
                        "gasPrice" : "0x01",
                        "nonce" : "0x00",
                        "r" : "0x6b871e8be65ff7c041df6c5b84101aaddb28bf196d5515fd25be926d7c2b76a6",
                        "s" : "0x2a117e1a9b4ad9be190f9f4554d2a6b37de530bc689216864f09d260a4bc5370",
                        "to" : "",
                        "v" : "0x1b",
                        "value" : "0x00"
                    }
                ],
                "uncleHeaders" : [
                ]
            }
        ],
        "genesisBlockHeader" : {
            "bloom" : "0x00000000000000000000000000000000000000000000000000000000000000000000000000000000000000000000000000000000000000000000000000000000000000000000000000000000000000000000000000000000000000000000000000000000000000000000000000000000000000000000000000000000000000000000000000000000000000000000000000000000000000000000000000000000000000000000000000000000000000000000000000000000000000000000000000000000000000000000000000000000000000000000000000000000000000000000000000000000000000000000000000000000000000000000000000000000",
            "coinbase" : "0x2adc25665018aa1fe0e6bc666dac8fc2697ff9ba",
            "difficulty" : "0x020000",
            "extraData" : "0x42",
            "gasLimit" : "0x0a00000000",
            "gasUsed" : "0x00",
            "hash" : "0xbf82cec88667ba7112d825fdde9b12f69a584c0d88a818f72cf533860eef9d12",
            "mixHash" : "0x56e81f171bcc55a6ff8345e692c0f86e5b48e01b996cadc001622fb5e363b421",
            "nonce" : "0x0102030405060708",
            "number" : "0x00",
            "parentHash" : "0x0000000000000000000000000000000000000000000000000000000000000000",
            "receiptTrie" : "0x56e81f171bcc55a6ff8345e692c0f86e5b48e01b996cadc001622fb5e363b421",
            "stateRoot" : "0x008ee04e394b2d73709f97316aceb055e1ef425cf2cc18511254b3b024842b89",
            "timestamp" : "0x03b6",
            "transactionsTrie" : "0x56e81f171bcc55a6ff8345e692c0f86e5b48e01b996cadc001622fb5e363b421",
            "uncleHash" : "0x1dcc4de8dec75d7aab85b567b6ccd41ad312451b948a7413f0a142fd40d49347"
        },
        "genesisRLP" : "0xf901fcf901f7a00000000000000000000000000000000000000000000000000000000000000000a01dcc4de8dec75d7aab85b567b6ccd41ad312451b948a7413f0a142fd40d49347942adc25665018aa1fe0e6bc666dac8fc2697ff9baa0008ee04e394b2d73709f97316aceb055e1ef425cf2cc18511254b3b024842b89a056e81f171bcc55a6ff8345e692c0f86e5b48e01b996cadc001622fb5e363b421a056e81f171bcc55a6ff8345e692c0f86e5b48e01b996cadc001622fb5e363b421b90100000000000000000000000000000000000000000000000000000000000000000000000000000000000000000000000000000000000000000000000000000000000000000000000000000000000000000000000000000000000000000000000000000000000000000000000000000000000000000000000000000000000000000000000000000000000000000000000000000000000000000000000000000000000000000000000000000000000000000000000000000000000000000000000000000000000000000000000000000000000000000000000000000000000000000000000000000000000000000000000000000000000000000000000000000000008302000080850a00000000808203b642a056e81f171bcc55a6ff8345e692c0f86e5b48e01b996cadc001622fb5e363b421880102030405060708c0c0",
        "lastblockhash" : "0xc4b2528e28d67e7c733ccbe392be4e3518b47b24e9597515b5d849d2dd0d91ed",
        "network" : "EIP150",
        "postState" : {
            "0x2adc25665018aa1fe0e6bc666dac8fc2697ff9ba" : {
                "balance" : "0x4563918244f893e0",
                "code" : "",
                "nonce" : "0x00",
                "storage" : {
                }
            },
            "0xa94f5374fce5edbc8e2a8697c15331677e6ebf0b" : {
                "balance" : "0x270ffffb6c20",
                "code" : "",
                "nonce" : "0x01",
                "storage" : {
                }
            }
        },
        "pre" : {
            "0xa94f5374fce5edbc8e2a8697c15331677e6ebf0b" : {
                "balance" : "0x271000000000",
                "code" : "",
                "nonce" : "0x00",
                "storage" : {
                }
            }
        }
    },
    "shallowStack_d80g0v0_EIP158" : {
        "_info" : {
            "comment" : "",
            "filledwith" : "cpp-1.3.0+commit.6e0ce939.Linux.g++",
            "lllcversion" : "Version: 0.4.18-develop.2017.9.25+commit.a72237f2.Linux.g++",
            "source" : "src/BlockchainTestsFiller/GeneralStateTests/stStackTests/shallowStack_d80g0v0Filler.json",
            "sourceHash" : "5798456afe31e29ae780c7f745f353797b933890b81b997223b460f88087dcbc"
        },
        "blocks" : [
            {
                "blockHeader" : {
                    "bloom" : "0x00000000000000000000000000000000000000000000000000000000000000000000000000000000000000000000000000000000000000000000000000000000000000000000000000000000000000000000000000000000000000000000000000000000000000000000000000000000000000000000000000000000000000000000000000000000000000000000000000000000000000000000000000000000000000000000000000000000000000000000000000000000000000000000000000000000000000000000000000000000000000000000000000000000000000000000000000000000000000000000000000000000000000000000000000000000",
                    "coinbase" : "0x2adc25665018aa1fe0e6bc666dac8fc2697ff9ba",
                    "difficulty" : "0x020000",
                    "extraData" : "",
                    "gasLimit" : "0x0a00000000",
                    "gasUsed" : "0x0493e0",
                    "hash" : "0x33596995fbd551ce67534aec9354d4435e6e05a90e37f58143abb1ad73fa9976",
                    "mixHash" : "0xbaf2c22b44579082f4cb152ffcda4561b5e3f96b401ee52568026baba494121d",
                    "nonce" : "0x3c6d4fbb3729588b",
                    "number" : "0x01",
                    "parentHash" : "0xbf82cec88667ba7112d825fdde9b12f69a584c0d88a818f72cf533860eef9d12",
                    "receiptTrie" : "0x043709099859f0100751918acbcc9a5d8231156ae96e39144d1253a5fd44b7a4",
                    "stateRoot" : "0xb8c610ebc6de2fcc601a8bc7d2740481b7b09ad220228036b2b0ed0255ed04a6",
                    "timestamp" : "0x03e8",
                    "transactionsTrie" : "0xbbcf2682eb70cdd94f9148d6085467c72f576238dc8f97be789befa2e6d421fe",
                    "uncleHash" : "0x1dcc4de8dec75d7aab85b567b6ccd41ad312451b948a7413f0a142fd40d49347"
                },
                "rlp" : "0xf90252f901faa0bf82cec88667ba7112d825fdde9b12f69a584c0d88a818f72cf533860eef9d12a01dcc4de8dec75d7aab85b567b6ccd41ad312451b948a7413f0a142fd40d49347942adc25665018aa1fe0e6bc666dac8fc2697ff9baa0b8c610ebc6de2fcc601a8bc7d2740481b7b09ad220228036b2b0ed0255ed04a6a0bbcf2682eb70cdd94f9148d6085467c72f576238dc8f97be789befa2e6d421fea0043709099859f0100751918acbcc9a5d8231156ae96e39144d1253a5fd44b7a4b90100000000000000000000000000000000000000000000000000000000000000000000000000000000000000000000000000000000000000000000000000000000000000000000000000000000000000000000000000000000000000000000000000000000000000000000000000000000000000000000000000000000000000000000000000000000000000000000000000000000000000000000000000000000000000000000000000000000000000000000000000000000000000000000000000000000000000000000000000000000000000000000000000000000000000000000000000000000000000000000000000000000000000000000000000000000008302000001850a00000000830493e08203e880a0baf2c22b44579082f4cb152ffcda4561b5e3f96b401ee52568026baba494121d883c6d4fbb3729588bf852f8508001830493e0808084ff6000551ba06b871e8be65ff7c041df6c5b84101aaddb28bf196d5515fd25be926d7c2b76a6a02a117e1a9b4ad9be190f9f4554d2a6b37de530bc689216864f09d260a4bc5370c0",
                "transactions" : [
                    {
                        "data" : "0xff600055",
                        "gasLimit" : "0x0493e0",
                        "gasPrice" : "0x01",
                        "nonce" : "0x00",
                        "r" : "0x6b871e8be65ff7c041df6c5b84101aaddb28bf196d5515fd25be926d7c2b76a6",
                        "s" : "0x2a117e1a9b4ad9be190f9f4554d2a6b37de530bc689216864f09d260a4bc5370",
                        "to" : "",
                        "v" : "0x1b",
                        "value" : "0x00"
                    }
                ],
                "uncleHeaders" : [
                ]
            }
        ],
        "genesisBlockHeader" : {
            "bloom" : "0x00000000000000000000000000000000000000000000000000000000000000000000000000000000000000000000000000000000000000000000000000000000000000000000000000000000000000000000000000000000000000000000000000000000000000000000000000000000000000000000000000000000000000000000000000000000000000000000000000000000000000000000000000000000000000000000000000000000000000000000000000000000000000000000000000000000000000000000000000000000000000000000000000000000000000000000000000000000000000000000000000000000000000000000000000000000",
            "coinbase" : "0x2adc25665018aa1fe0e6bc666dac8fc2697ff9ba",
            "difficulty" : "0x020000",
            "extraData" : "0x42",
            "gasLimit" : "0x0a00000000",
            "gasUsed" : "0x00",
            "hash" : "0xbf82cec88667ba7112d825fdde9b12f69a584c0d88a818f72cf533860eef9d12",
            "mixHash" : "0x56e81f171bcc55a6ff8345e692c0f86e5b48e01b996cadc001622fb5e363b421",
            "nonce" : "0x0102030405060708",
            "number" : "0x00",
            "parentHash" : "0x0000000000000000000000000000000000000000000000000000000000000000",
            "receiptTrie" : "0x56e81f171bcc55a6ff8345e692c0f86e5b48e01b996cadc001622fb5e363b421",
            "stateRoot" : "0x008ee04e394b2d73709f97316aceb055e1ef425cf2cc18511254b3b024842b89",
            "timestamp" : "0x03b6",
            "transactionsTrie" : "0x56e81f171bcc55a6ff8345e692c0f86e5b48e01b996cadc001622fb5e363b421",
            "uncleHash" : "0x1dcc4de8dec75d7aab85b567b6ccd41ad312451b948a7413f0a142fd40d49347"
        },
        "genesisRLP" : "0xf901fcf901f7a00000000000000000000000000000000000000000000000000000000000000000a01dcc4de8dec75d7aab85b567b6ccd41ad312451b948a7413f0a142fd40d49347942adc25665018aa1fe0e6bc666dac8fc2697ff9baa0008ee04e394b2d73709f97316aceb055e1ef425cf2cc18511254b3b024842b89a056e81f171bcc55a6ff8345e692c0f86e5b48e01b996cadc001622fb5e363b421a056e81f171bcc55a6ff8345e692c0f86e5b48e01b996cadc001622fb5e363b421b90100000000000000000000000000000000000000000000000000000000000000000000000000000000000000000000000000000000000000000000000000000000000000000000000000000000000000000000000000000000000000000000000000000000000000000000000000000000000000000000000000000000000000000000000000000000000000000000000000000000000000000000000000000000000000000000000000000000000000000000000000000000000000000000000000000000000000000000000000000000000000000000000000000000000000000000000000000000000000000000000000000000000000000000000000000000008302000080850a00000000808203b642a056e81f171bcc55a6ff8345e692c0f86e5b48e01b996cadc001622fb5e363b421880102030405060708c0c0",
        "lastblockhash" : "0x33596995fbd551ce67534aec9354d4435e6e05a90e37f58143abb1ad73fa9976",
        "network" : "EIP158",
        "postState" : {
            "0x2adc25665018aa1fe0e6bc666dac8fc2697ff9ba" : {
                "balance" : "0x4563918244f893e0",
                "code" : "",
                "nonce" : "0x00",
                "storage" : {
                }
            },
            "0xa94f5374fce5edbc8e2a8697c15331677e6ebf0b" : {
                "balance" : "0x270ffffb6c20",
                "code" : "",
                "nonce" : "0x01",
                "storage" : {
                }
            }
        },
        "pre" : {
            "0xa94f5374fce5edbc8e2a8697c15331677e6ebf0b" : {
                "balance" : "0x271000000000",
                "code" : "",
                "nonce" : "0x00",
                "storage" : {
                }
            }
        }
    },
    "shallowStack_d80g0v0_Frontier" : {
        "_info" : {
            "comment" : "",
            "filledwith" : "cpp-1.3.0+commit.6e0ce939.Linux.g++",
            "lllcversion" : "Version: 0.4.18-develop.2017.9.25+commit.a72237f2.Linux.g++",
            "source" : "src/BlockchainTestsFiller/GeneralStateTests/stStackTests/shallowStack_d80g0v0Filler.json",
            "sourceHash" : "5798456afe31e29ae780c7f745f353797b933890b81b997223b460f88087dcbc"
        },
        "blocks" : [
            {
                "blockHeader" : {
                    "bloom" : "0x00000000000000000000000000000000000000000000000000000000000000000000000000000000000000000000000000000000000000000000000000000000000000000000000000000000000000000000000000000000000000000000000000000000000000000000000000000000000000000000000000000000000000000000000000000000000000000000000000000000000000000000000000000000000000000000000000000000000000000000000000000000000000000000000000000000000000000000000000000000000000000000000000000000000000000000000000000000000000000000000000000000000000000000000000000000",
                    "coinbase" : "0x2adc25665018aa1fe0e6bc666dac8fc2697ff9ba",
                    "difficulty" : "0x020000",
                    "extraData" : "",
                    "gasLimit" : "0x0a00000000",
                    "gasUsed" : "0x0493e0",
                    "hash" : "0x6ab3d5255da83c3ac979d150ffd7d7ffff08a91bdd35f9487f9af0ef23ff0a83",
                    "mixHash" : "0xe10fc41b4052f3f68229d9ad73847175582d366c41cc3dba1f20aeaf2b273b27",
                    "nonce" : "0x612dbaf0a6f5ac90",
                    "number" : "0x01",
                    "parentHash" : "0xbf82cec88667ba7112d825fdde9b12f69a584c0d88a818f72cf533860eef9d12",
                    "receiptTrie" : "0x043709099859f0100751918acbcc9a5d8231156ae96e39144d1253a5fd44b7a4",
                    "stateRoot" : "0xb8c610ebc6de2fcc601a8bc7d2740481b7b09ad220228036b2b0ed0255ed04a6",
                    "timestamp" : "0x03e8",
                    "transactionsTrie" : "0xbbcf2682eb70cdd94f9148d6085467c72f576238dc8f97be789befa2e6d421fe",
                    "uncleHash" : "0x1dcc4de8dec75d7aab85b567b6ccd41ad312451b948a7413f0a142fd40d49347"
                },
                "rlp" : "0xf90252f901faa0bf82cec88667ba7112d825fdde9b12f69a584c0d88a818f72cf533860eef9d12a01dcc4de8dec75d7aab85b567b6ccd41ad312451b948a7413f0a142fd40d49347942adc25665018aa1fe0e6bc666dac8fc2697ff9baa0b8c610ebc6de2fcc601a8bc7d2740481b7b09ad220228036b2b0ed0255ed04a6a0bbcf2682eb70cdd94f9148d6085467c72f576238dc8f97be789befa2e6d421fea0043709099859f0100751918acbcc9a5d8231156ae96e39144d1253a5fd44b7a4b90100000000000000000000000000000000000000000000000000000000000000000000000000000000000000000000000000000000000000000000000000000000000000000000000000000000000000000000000000000000000000000000000000000000000000000000000000000000000000000000000000000000000000000000000000000000000000000000000000000000000000000000000000000000000000000000000000000000000000000000000000000000000000000000000000000000000000000000000000000000000000000000000000000000000000000000000000000000000000000000000000000000000000000000000000000000008302000001850a00000000830493e08203e880a0e10fc41b4052f3f68229d9ad73847175582d366c41cc3dba1f20aeaf2b273b2788612dbaf0a6f5ac90f852f8508001830493e0808084ff6000551ba06b871e8be65ff7c041df6c5b84101aaddb28bf196d5515fd25be926d7c2b76a6a02a117e1a9b4ad9be190f9f4554d2a6b37de530bc689216864f09d260a4bc5370c0",
                "transactions" : [
                    {
                        "data" : "0xff600055",
                        "gasLimit" : "0x0493e0",
                        "gasPrice" : "0x01",
                        "nonce" : "0x00",
                        "r" : "0x6b871e8be65ff7c041df6c5b84101aaddb28bf196d5515fd25be926d7c2b76a6",
                        "s" : "0x2a117e1a9b4ad9be190f9f4554d2a6b37de530bc689216864f09d260a4bc5370",
                        "to" : "",
                        "v" : "0x1b",
                        "value" : "0x00"
                    }
                ],
                "uncleHeaders" : [
                ]
            }
        ],
        "genesisBlockHeader" : {
            "bloom" : "0x00000000000000000000000000000000000000000000000000000000000000000000000000000000000000000000000000000000000000000000000000000000000000000000000000000000000000000000000000000000000000000000000000000000000000000000000000000000000000000000000000000000000000000000000000000000000000000000000000000000000000000000000000000000000000000000000000000000000000000000000000000000000000000000000000000000000000000000000000000000000000000000000000000000000000000000000000000000000000000000000000000000000000000000000000000000",
            "coinbase" : "0x2adc25665018aa1fe0e6bc666dac8fc2697ff9ba",
            "difficulty" : "0x020000",
            "extraData" : "0x42",
            "gasLimit" : "0x0a00000000",
            "gasUsed" : "0x00",
            "hash" : "0xbf82cec88667ba7112d825fdde9b12f69a584c0d88a818f72cf533860eef9d12",
            "mixHash" : "0x56e81f171bcc55a6ff8345e692c0f86e5b48e01b996cadc001622fb5e363b421",
            "nonce" : "0x0102030405060708",
            "number" : "0x00",
            "parentHash" : "0x0000000000000000000000000000000000000000000000000000000000000000",
            "receiptTrie" : "0x56e81f171bcc55a6ff8345e692c0f86e5b48e01b996cadc001622fb5e363b421",
            "stateRoot" : "0x008ee04e394b2d73709f97316aceb055e1ef425cf2cc18511254b3b024842b89",
            "timestamp" : "0x03b6",
            "transactionsTrie" : "0x56e81f171bcc55a6ff8345e692c0f86e5b48e01b996cadc001622fb5e363b421",
            "uncleHash" : "0x1dcc4de8dec75d7aab85b567b6ccd41ad312451b948a7413f0a142fd40d49347"
        },
        "genesisRLP" : "0xf901fcf901f7a00000000000000000000000000000000000000000000000000000000000000000a01dcc4de8dec75d7aab85b567b6ccd41ad312451b948a7413f0a142fd40d49347942adc25665018aa1fe0e6bc666dac8fc2697ff9baa0008ee04e394b2d73709f97316aceb055e1ef425cf2cc18511254b3b024842b89a056e81f171bcc55a6ff8345e692c0f86e5b48e01b996cadc001622fb5e363b421a056e81f171bcc55a6ff8345e692c0f86e5b48e01b996cadc001622fb5e363b421b90100000000000000000000000000000000000000000000000000000000000000000000000000000000000000000000000000000000000000000000000000000000000000000000000000000000000000000000000000000000000000000000000000000000000000000000000000000000000000000000000000000000000000000000000000000000000000000000000000000000000000000000000000000000000000000000000000000000000000000000000000000000000000000000000000000000000000000000000000000000000000000000000000000000000000000000000000000000000000000000000000000000000000000000000000000000008302000080850a00000000808203b642a056e81f171bcc55a6ff8345e692c0f86e5b48e01b996cadc001622fb5e363b421880102030405060708c0c0",
        "lastblockhash" : "0x6ab3d5255da83c3ac979d150ffd7d7ffff08a91bdd35f9487f9af0ef23ff0a83",
        "network" : "Frontier",
        "postState" : {
            "0x2adc25665018aa1fe0e6bc666dac8fc2697ff9ba" : {
                "balance" : "0x4563918244f893e0",
                "code" : "",
                "nonce" : "0x00",
                "storage" : {
                }
            },
            "0xa94f5374fce5edbc8e2a8697c15331677e6ebf0b" : {
                "balance" : "0x270ffffb6c20",
                "code" : "",
                "nonce" : "0x01",
                "storage" : {
                }
            }
        },
        "pre" : {
            "0xa94f5374fce5edbc8e2a8697c15331677e6ebf0b" : {
                "balance" : "0x271000000000",
                "code" : "",
                "nonce" : "0x00",
                "storage" : {
                }
            }
        }
    },
    "shallowStack_d80g0v0_Homestead" : {
        "_info" : {
            "comment" : "",
            "filledwith" : "cpp-1.3.0+commit.6e0ce939.Linux.g++",
            "lllcversion" : "Version: 0.4.18-develop.2017.9.25+commit.a72237f2.Linux.g++",
            "source" : "src/BlockchainTestsFiller/GeneralStateTests/stStackTests/shallowStack_d80g0v0Filler.json",
            "sourceHash" : "5798456afe31e29ae780c7f745f353797b933890b81b997223b460f88087dcbc"
        },
        "blocks" : [
            {
                "blockHeader" : {
                    "bloom" : "0x00000000000000000000000000000000000000000000000000000000000000000000000000000000000000000000000000000000000000000000000000000000000000000000000000000000000000000000000000000000000000000000000000000000000000000000000000000000000000000000000000000000000000000000000000000000000000000000000000000000000000000000000000000000000000000000000000000000000000000000000000000000000000000000000000000000000000000000000000000000000000000000000000000000000000000000000000000000000000000000000000000000000000000000000000000000",
                    "coinbase" : "0x2adc25665018aa1fe0e6bc666dac8fc2697ff9ba",
                    "difficulty" : "0x020000",
                    "extraData" : "",
                    "gasLimit" : "0x0a00000000",
                    "gasUsed" : "0x0493e0",
                    "hash" : "0xa97a040f2bc8d2de443ee5df17eb2f7820cb010704e92dfe8741fbefddf43721",
                    "mixHash" : "0x6f91db3b3e165aa1b0a69db952c84a10885524d2c4d1912e3e33968df4d7b79f",
                    "nonce" : "0xd2b7146aefcd218e",
                    "number" : "0x01",
                    "parentHash" : "0xbf82cec88667ba7112d825fdde9b12f69a584c0d88a818f72cf533860eef9d12",
                    "receiptTrie" : "0x043709099859f0100751918acbcc9a5d8231156ae96e39144d1253a5fd44b7a4",
                    "stateRoot" : "0xb8c610ebc6de2fcc601a8bc7d2740481b7b09ad220228036b2b0ed0255ed04a6",
                    "timestamp" : "0x03e8",
                    "transactionsTrie" : "0xbbcf2682eb70cdd94f9148d6085467c72f576238dc8f97be789befa2e6d421fe",
                    "uncleHash" : "0x1dcc4de8dec75d7aab85b567b6ccd41ad312451b948a7413f0a142fd40d49347"
                },
                "rlp" : "0xf90252f901faa0bf82cec88667ba7112d825fdde9b12f69a584c0d88a818f72cf533860eef9d12a01dcc4de8dec75d7aab85b567b6ccd41ad312451b948a7413f0a142fd40d49347942adc25665018aa1fe0e6bc666dac8fc2697ff9baa0b8c610ebc6de2fcc601a8bc7d2740481b7b09ad220228036b2b0ed0255ed04a6a0bbcf2682eb70cdd94f9148d6085467c72f576238dc8f97be789befa2e6d421fea0043709099859f0100751918acbcc9a5d8231156ae96e39144d1253a5fd44b7a4b90100000000000000000000000000000000000000000000000000000000000000000000000000000000000000000000000000000000000000000000000000000000000000000000000000000000000000000000000000000000000000000000000000000000000000000000000000000000000000000000000000000000000000000000000000000000000000000000000000000000000000000000000000000000000000000000000000000000000000000000000000000000000000000000000000000000000000000000000000000000000000000000000000000000000000000000000000000000000000000000000000000000000000000000000000000000008302000001850a00000000830493e08203e880a06f91db3b3e165aa1b0a69db952c84a10885524d2c4d1912e3e33968df4d7b79f88d2b7146aefcd218ef852f8508001830493e0808084ff6000551ba06b871e8be65ff7c041df6c5b84101aaddb28bf196d5515fd25be926d7c2b76a6a02a117e1a9b4ad9be190f9f4554d2a6b37de530bc689216864f09d260a4bc5370c0",
                "transactions" : [
                    {
                        "data" : "0xff600055",
                        "gasLimit" : "0x0493e0",
                        "gasPrice" : "0x01",
                        "nonce" : "0x00",
                        "r" : "0x6b871e8be65ff7c041df6c5b84101aaddb28bf196d5515fd25be926d7c2b76a6",
                        "s" : "0x2a117e1a9b4ad9be190f9f4554d2a6b37de530bc689216864f09d260a4bc5370",
                        "to" : "",
                        "v" : "0x1b",
                        "value" : "0x00"
                    }
                ],
                "uncleHeaders" : [
                ]
            }
        ],
        "genesisBlockHeader" : {
            "bloom" : "0x00000000000000000000000000000000000000000000000000000000000000000000000000000000000000000000000000000000000000000000000000000000000000000000000000000000000000000000000000000000000000000000000000000000000000000000000000000000000000000000000000000000000000000000000000000000000000000000000000000000000000000000000000000000000000000000000000000000000000000000000000000000000000000000000000000000000000000000000000000000000000000000000000000000000000000000000000000000000000000000000000000000000000000000000000000000",
            "coinbase" : "0x2adc25665018aa1fe0e6bc666dac8fc2697ff9ba",
            "difficulty" : "0x020000",
            "extraData" : "0x42",
            "gasLimit" : "0x0a00000000",
            "gasUsed" : "0x00",
            "hash" : "0xbf82cec88667ba7112d825fdde9b12f69a584c0d88a818f72cf533860eef9d12",
            "mixHash" : "0x56e81f171bcc55a6ff8345e692c0f86e5b48e01b996cadc001622fb5e363b421",
            "nonce" : "0x0102030405060708",
            "number" : "0x00",
            "parentHash" : "0x0000000000000000000000000000000000000000000000000000000000000000",
            "receiptTrie" : "0x56e81f171bcc55a6ff8345e692c0f86e5b48e01b996cadc001622fb5e363b421",
            "stateRoot" : "0x008ee04e394b2d73709f97316aceb055e1ef425cf2cc18511254b3b024842b89",
            "timestamp" : "0x03b6",
            "transactionsTrie" : "0x56e81f171bcc55a6ff8345e692c0f86e5b48e01b996cadc001622fb5e363b421",
            "uncleHash" : "0x1dcc4de8dec75d7aab85b567b6ccd41ad312451b948a7413f0a142fd40d49347"
        },
        "genesisRLP" : "0xf901fcf901f7a00000000000000000000000000000000000000000000000000000000000000000a01dcc4de8dec75d7aab85b567b6ccd41ad312451b948a7413f0a142fd40d49347942adc25665018aa1fe0e6bc666dac8fc2697ff9baa0008ee04e394b2d73709f97316aceb055e1ef425cf2cc18511254b3b024842b89a056e81f171bcc55a6ff8345e692c0f86e5b48e01b996cadc001622fb5e363b421a056e81f171bcc55a6ff8345e692c0f86e5b48e01b996cadc001622fb5e363b421b90100000000000000000000000000000000000000000000000000000000000000000000000000000000000000000000000000000000000000000000000000000000000000000000000000000000000000000000000000000000000000000000000000000000000000000000000000000000000000000000000000000000000000000000000000000000000000000000000000000000000000000000000000000000000000000000000000000000000000000000000000000000000000000000000000000000000000000000000000000000000000000000000000000000000000000000000000000000000000000000000000000000000000000000000000000000008302000080850a00000000808203b642a056e81f171bcc55a6ff8345e692c0f86e5b48e01b996cadc001622fb5e363b421880102030405060708c0c0",
        "lastblockhash" : "0xa97a040f2bc8d2de443ee5df17eb2f7820cb010704e92dfe8741fbefddf43721",
        "network" : "Homestead",
        "postState" : {
            "0x2adc25665018aa1fe0e6bc666dac8fc2697ff9ba" : {
                "balance" : "0x4563918244f893e0",
                "code" : "",
                "nonce" : "0x00",
                "storage" : {
                }
            },
            "0xa94f5374fce5edbc8e2a8697c15331677e6ebf0b" : {
                "balance" : "0x270ffffb6c20",
                "code" : "",
                "nonce" : "0x01",
                "storage" : {
                }
            }
        },
        "pre" : {
            "0xa94f5374fce5edbc8e2a8697c15331677e6ebf0b" : {
                "balance" : "0x271000000000",
                "code" : "",
                "nonce" : "0x00",
                "storage" : {
                }
            }
        }
    }
}