{
    "NonZeroValue_CALLCODE_d0g0v0_Byzantium" : {
        "_info" : {
            "comment" : "",
            "filledwith" : "cpp-1.3.0+commit.6e0ce939.Linux.g++",
            "lllcversion" : "Version: 0.4.18-develop.2017.9.25+commit.a72237f2.Linux.g++",
            "source" : "src/BlockchainTestsFiller/GeneralStateTests/stNonZeroCallsTest/NonZeroValue_CALLCODE_d0g0v0Filler.json",
            "sourceHash" : "c3aa73a5f3866a810d4d18fb9ef6f884097f05585dafbeb1ae7300ae7774f434"
        },
        "blocks" : [
            {
                "blockHeader" : {
                    "bloom" : "0x00000000000000000000000000000000000000000000000000000000000000000000000000000000000000000000000000000000000000000000000000000000000000000000000000000000000000000000000000000000000000000000000000000000000000000000000000000000000000000000000000000000000000000000000000000000000000000000000000000000000000000000000000000000000000000000000000000000000000000000000000000000000000000000000000000000000000000000000000000000000000000000000000000000000000000000000000000000000000000000000000000000000000000000000000000000",
                    "coinbase" : "0x2adc25665018aa1fe0e6bc666dac8fc2697ff9ba",
                    "difficulty" : "0x020000",
                    "extraData" : "",
                    "gasLimit" : "0x989680",
                    "gasUsed" : "0x015972",
                    "hash" : "0xde01c0857e56760e4aed251f003572259f7729b3c911eb817b531175b55e46ee",
                    "mixHash" : "0xee52c35c4540865c7b46cc5564f5a5ee96af87ee15cf320ed5c8d9cfd6601ede",
                    "nonce" : "0xb07b610eeba7c9ee",
                    "number" : "0x01",
                    "parentHash" : "0x0f0bfbedafb1a54f74c847571b77dc12f3a26384e149d28aeecc8c0b06651037",
                    "receiptTrie" : "0x540ef40122c0819161100cb02570d8bacc522b2db8c86e328ed93907dfc77546",
                    "stateRoot" : "0x6981f9f68286b5a857f6d83008ce409dcf41a6a2c51d18f03d04ae0bf4bf654e",
                    "timestamp" : "0x03e8",
                    "transactionsTrie" : "0x59652e5662eb625efd106d67b9b25d3c12a15e69494d1d24f59d867c211f6761",
                    "uncleHash" : "0x1dcc4de8dec75d7aab85b567b6ccd41ad312451b948a7413f0a142fd40d49347"
                },
                "rlp" : "0xf90260f901f8a00f0bfbedafb1a54f74c847571b77dc12f3a26384e149d28aeecc8c0b06651037a01dcc4de8dec75d7aab85b567b6ccd41ad312451b948a7413f0a142fd40d49347942adc25665018aa1fe0e6bc666dac8fc2697ff9baa06981f9f68286b5a857f6d83008ce409dcf41a6a2c51d18f03d04ae0bf4bf654ea059652e5662eb625efd106d67b9b25d3c12a15e69494d1d24f59d867c211f6761a0540ef40122c0819161100cb02570d8bacc522b2db8c86e328ed93907dfc77546b9010000000000000000000000000000000000000000000000000000000000000000000000000000000000000000000000000000000000000000000000000000000000000000000000000000000000000000000000000000000000000000000000000000000000000000000000000000000000000000000000000000000000000000000000000000000000000000000000000000000000000000000000000000000000000000000000000000000000000000000000000000000000000000000000000000000000000000000000000000000000000000000000000000000000000000000000000000000000000000000000000000000000000000000000000000000000830200000183989680830159728203e880a0ee52c35c4540865c7b46cc5564f5a5ee96af87ee15cf320ed5c8d9cfd6601ede88b07b610eeba7c9eef862f8608001830927c094b94f5374fce5edbc8e2a8697c15331677e6ebf0b80801ba08d0699f23d032b86db35ed7bb39c2357bec870fbfbe7db30b1795d320d8965c6a002f578fd949e84f0dc1307f5dd714c9a7158b31891d43f45459edcb52e345f7cc0",
                "transactions" : [
                    {
                        "data" : "",
                        "gasLimit" : "0x0927c0",
                        "gasPrice" : "0x01",
                        "nonce" : "0x00",
                        "r" : "0x8d0699f23d032b86db35ed7bb39c2357bec870fbfbe7db30b1795d320d8965c6",
                        "s" : "0x02f578fd949e84f0dc1307f5dd714c9a7158b31891d43f45459edcb52e345f7c",
                        "to" : "0xb94f5374fce5edbc8e2a8697c15331677e6ebf0b",
                        "v" : "0x1b",
                        "value" : "0x00"
                    }
                ],
                "uncleHeaders" : [
                ]
            }
        ],
        "genesisBlockHeader" : {
            "bloom" : "0x00000000000000000000000000000000000000000000000000000000000000000000000000000000000000000000000000000000000000000000000000000000000000000000000000000000000000000000000000000000000000000000000000000000000000000000000000000000000000000000000000000000000000000000000000000000000000000000000000000000000000000000000000000000000000000000000000000000000000000000000000000000000000000000000000000000000000000000000000000000000000000000000000000000000000000000000000000000000000000000000000000000000000000000000000000000",
            "coinbase" : "0x2adc25665018aa1fe0e6bc666dac8fc2697ff9ba",
            "difficulty" : "0x020000",
            "extraData" : "0x42",
            "gasLimit" : "0x989680",
            "gasUsed" : "0x00",
            "hash" : "0x0f0bfbedafb1a54f74c847571b77dc12f3a26384e149d28aeecc8c0b06651037",
            "mixHash" : "0x56e81f171bcc55a6ff8345e692c0f86e5b48e01b996cadc001622fb5e363b421",
            "nonce" : "0x0102030405060708",
            "number" : "0x00",
            "parentHash" : "0x0000000000000000000000000000000000000000000000000000000000000000",
            "receiptTrie" : "0x56e81f171bcc55a6ff8345e692c0f86e5b48e01b996cadc001622fb5e363b421",
            "stateRoot" : "0x3c895eeb38fa8601258132246d152654a654dea4bf4f681d3b11fb31db1f63bd",
            "timestamp" : "0x03b6",
            "transactionsTrie" : "0x56e81f171bcc55a6ff8345e692c0f86e5b48e01b996cadc001622fb5e363b421",
            "uncleHash" : "0x1dcc4de8dec75d7aab85b567b6ccd41ad312451b948a7413f0a142fd40d49347"
        },
        "genesisRLP" : "0xf901faf901f5a00000000000000000000000000000000000000000000000000000000000000000a01dcc4de8dec75d7aab85b567b6ccd41ad312451b948a7413f0a142fd40d49347942adc25665018aa1fe0e6bc666dac8fc2697ff9baa03c895eeb38fa8601258132246d152654a654dea4bf4f681d3b11fb31db1f63bda056e81f171bcc55a6ff8345e692c0f86e5b48e01b996cadc001622fb5e363b421a056e81f171bcc55a6ff8345e692c0f86e5b48e01b996cadc001622fb5e363b421b9010000000000000000000000000000000000000000000000000000000000000000000000000000000000000000000000000000000000000000000000000000000000000000000000000000000000000000000000000000000000000000000000000000000000000000000000000000000000000000000000000000000000000000000000000000000000000000000000000000000000000000000000000000000000000000000000000000000000000000000000000000000000000000000000000000000000000000000000000000000000000000000000000000000000000000000000000000000000000000000000000000000000000000000000000000000000830200008083989680808203b642a056e81f171bcc55a6ff8345e692c0f86e5b48e01b996cadc001622fb5e363b421880102030405060708c0c0",
        "lastblockhash" : "0xde01c0857e56760e4aed251f003572259f7729b3c911eb817b531175b55e46ee",
        "network" : "Byzantium",
        "postState" : {
            "0x2adc25665018aa1fe0e6bc666dac8fc2697ff9ba" : {
                "balance" : "0x29a2241af62d5972",
                "code" : "",
                "nonce" : "0x00",
                "storage" : {
                }
            },
            "0xa94f5374fce5edbc8e2a8697c15331677e6ebf0b" : {
                "balance" : "0xe8d4a3b68e",
                "code" : "",
                "nonce" : "0x01",
                "storage" : {
                }
            },
            "0xb94f5374fce5edbc8e2a8697c15331677e6ebf0b" : {
                "balance" : "0x64",
                "code" : "0x5a6000556000600060006000600173c94f5374fce5edbc8e2a8697c15331677e6ebf0b61ea60f26001555a606455",
                "nonce" : "0x00",
                "storage" : {
                    "0x00" : "0x08d5b6",
                    "0x01" : "0x01",
                    "0x64" : "0x081c71"
                }
            }
        },
        "pre" : {
            "0xa94f5374fce5edbc8e2a8697c15331677e6ebf0b" : {
                "balance" : "0xe8d4a51000",
                "code" : "",
                "nonce" : "0x00",
                "storage" : {
                }
            },
            "0xb94f5374fce5edbc8e2a8697c15331677e6ebf0b" : {
                "balance" : "0x64",
                "code" : "0x5a6000556000600060006000600173c94f5374fce5edbc8e2a8697c15331677e6ebf0b61ea60f26001555a606455",
                "nonce" : "0x00",
                "storage" : {
                }
            }
        }
    },
    "NonZeroValue_CALLCODE_d0g0v0_EIP150" : {
        "_info" : {
            "comment" : "",
            "filledwith" : "cpp-1.3.0+commit.6e0ce939.Linux.g++",
            "lllcversion" : "Version: 0.4.18-develop.2017.9.25+commit.a72237f2.Linux.g++",
            "source" : "src/BlockchainTestsFiller/GeneralStateTests/stNonZeroCallsTest/NonZeroValue_CALLCODE_d0g0v0Filler.json",
            "sourceHash" : "c3aa73a5f3866a810d4d18fb9ef6f884097f05585dafbeb1ae7300ae7774f434"
        },
        "blocks" : [
            {
                "blockHeader" : {
                    "bloom" : "0x00000000000000000000000000000000000000000000000000000000000000000000000000000000000000000000000000000000000000000000000000000000000000000000000000000000000000000000000000000000000000000000000000000000000000000000000000000000000000000000000000000000000000000000000000000000000000000000000000000000000000000000000000000000000000000000000000000000000000000000000000000000000000000000000000000000000000000000000000000000000000000000000000000000000000000000000000000000000000000000000000000000000000000000000000000000",
                    "coinbase" : "0x2adc25665018aa1fe0e6bc666dac8fc2697ff9ba",
                    "difficulty" : "0x020000",
                    "extraData" : "",
                    "gasLimit" : "0x989680",
                    "gasUsed" : "0x015972",
                    "hash" : "0xe7482ffbf70e4ed815a12fdbc6a77cc9f5d610522bd650544ddc8ae31dc3b5cb",
                    "mixHash" : "0x22153f7d3ad6979ce3754cbd0a56a51bfbbef71b5dc14f0b41ac333035ebcf14",
                    "nonce" : "0xfb5bc85ca97e76b1",
                    "number" : "0x01",
                    "parentHash" : "0x0f0bfbedafb1a54f74c847571b77dc12f3a26384e149d28aeecc8c0b06651037",
                    "receiptTrie" : "0x6e589aa3d3c6f1e92d01f0827e130a69461ab987b07d8a1a02f105e9df0dd9b5",
                    "stateRoot" : "0x84d3d54cd426f6d38d193549a3e87863411e6ed48e03d27b496926ca3164d838",
                    "timestamp" : "0x03e8",
                    "transactionsTrie" : "0x59652e5662eb625efd106d67b9b25d3c12a15e69494d1d24f59d867c211f6761",
                    "uncleHash" : "0x1dcc4de8dec75d7aab85b567b6ccd41ad312451b948a7413f0a142fd40d49347"
                },
                "rlp" : "0xf90260f901f8a00f0bfbedafb1a54f74c847571b77dc12f3a26384e149d28aeecc8c0b06651037a01dcc4de8dec75d7aab85b567b6ccd41ad312451b948a7413f0a142fd40d49347942adc25665018aa1fe0e6bc666dac8fc2697ff9baa084d3d54cd426f6d38d193549a3e87863411e6ed48e03d27b496926ca3164d838a059652e5662eb625efd106d67b9b25d3c12a15e69494d1d24f59d867c211f6761a06e589aa3d3c6f1e92d01f0827e130a69461ab987b07d8a1a02f105e9df0dd9b5b9010000000000000000000000000000000000000000000000000000000000000000000000000000000000000000000000000000000000000000000000000000000000000000000000000000000000000000000000000000000000000000000000000000000000000000000000000000000000000000000000000000000000000000000000000000000000000000000000000000000000000000000000000000000000000000000000000000000000000000000000000000000000000000000000000000000000000000000000000000000000000000000000000000000000000000000000000000000000000000000000000000000000000000000000000000000000830200000183989680830159728203e880a022153f7d3ad6979ce3754cbd0a56a51bfbbef71b5dc14f0b41ac333035ebcf1488fb5bc85ca97e76b1f862f8608001830927c094b94f5374fce5edbc8e2a8697c15331677e6ebf0b80801ba08d0699f23d032b86db35ed7bb39c2357bec870fbfbe7db30b1795d320d8965c6a002f578fd949e84f0dc1307f5dd714c9a7158b31891d43f45459edcb52e345f7cc0",
                "transactions" : [
                    {
                        "data" : "",
                        "gasLimit" : "0x0927c0",
                        "gasPrice" : "0x01",
                        "nonce" : "0x00",
                        "r" : "0x8d0699f23d032b86db35ed7bb39c2357bec870fbfbe7db30b1795d320d8965c6",
                        "s" : "0x02f578fd949e84f0dc1307f5dd714c9a7158b31891d43f45459edcb52e345f7c",
                        "to" : "0xb94f5374fce5edbc8e2a8697c15331677e6ebf0b",
                        "v" : "0x1b",
                        "value" : "0x00"
                    }
                ],
                "uncleHeaders" : [
                ]
            }
        ],
        "genesisBlockHeader" : {
            "bloom" : "0x00000000000000000000000000000000000000000000000000000000000000000000000000000000000000000000000000000000000000000000000000000000000000000000000000000000000000000000000000000000000000000000000000000000000000000000000000000000000000000000000000000000000000000000000000000000000000000000000000000000000000000000000000000000000000000000000000000000000000000000000000000000000000000000000000000000000000000000000000000000000000000000000000000000000000000000000000000000000000000000000000000000000000000000000000000000",
            "coinbase" : "0x2adc25665018aa1fe0e6bc666dac8fc2697ff9ba",
            "difficulty" : "0x020000",
            "extraData" : "0x42",
            "gasLimit" : "0x989680",
            "gasUsed" : "0x00",
            "hash" : "0x0f0bfbedafb1a54f74c847571b77dc12f3a26384e149d28aeecc8c0b06651037",
            "mixHash" : "0x56e81f171bcc55a6ff8345e692c0f86e5b48e01b996cadc001622fb5e363b421",
            "nonce" : "0x0102030405060708",
            "number" : "0x00",
            "parentHash" : "0x0000000000000000000000000000000000000000000000000000000000000000",
            "receiptTrie" : "0x56e81f171bcc55a6ff8345e692c0f86e5b48e01b996cadc001622fb5e363b421",
            "stateRoot" : "0x3c895eeb38fa8601258132246d152654a654dea4bf4f681d3b11fb31db1f63bd",
            "timestamp" : "0x03b6",
            "transactionsTrie" : "0x56e81f171bcc55a6ff8345e692c0f86e5b48e01b996cadc001622fb5e363b421",
            "uncleHash" : "0x1dcc4de8dec75d7aab85b567b6ccd41ad312451b948a7413f0a142fd40d49347"
        },
        "genesisRLP" : "0xf901faf901f5a00000000000000000000000000000000000000000000000000000000000000000a01dcc4de8dec75d7aab85b567b6ccd41ad312451b948a7413f0a142fd40d49347942adc25665018aa1fe0e6bc666dac8fc2697ff9baa03c895eeb38fa8601258132246d152654a654dea4bf4f681d3b11fb31db1f63bda056e81f171bcc55a6ff8345e692c0f86e5b48e01b996cadc001622fb5e363b421a056e81f171bcc55a6ff8345e692c0f86e5b48e01b996cadc001622fb5e363b421b9010000000000000000000000000000000000000000000000000000000000000000000000000000000000000000000000000000000000000000000000000000000000000000000000000000000000000000000000000000000000000000000000000000000000000000000000000000000000000000000000000000000000000000000000000000000000000000000000000000000000000000000000000000000000000000000000000000000000000000000000000000000000000000000000000000000000000000000000000000000000000000000000000000000000000000000000000000000000000000000000000000000000000000000000000000000000830200008083989680808203b642a056e81f171bcc55a6ff8345e692c0f86e5b48e01b996cadc001622fb5e363b421880102030405060708c0c0",
        "lastblockhash" : "0xe7482ffbf70e4ed815a12fdbc6a77cc9f5d610522bd650544ddc8ae31dc3b5cb",
        "network" : "EIP150",
        "postState" : {
            "0x2adc25665018aa1fe0e6bc666dac8fc2697ff9ba" : {
                "balance" : "0x4563918244f55972",
                "code" : "",
                "nonce" : "0x00",
                "storage" : {
                }
            },
            "0xa94f5374fce5edbc8e2a8697c15331677e6ebf0b" : {
                "balance" : "0xe8d4a3b68e",
                "code" : "",
                "nonce" : "0x01",
                "storage" : {
                }
            },
            "0xb94f5374fce5edbc8e2a8697c15331677e6ebf0b" : {
                "balance" : "0x64",
                "code" : "0x5a6000556000600060006000600173c94f5374fce5edbc8e2a8697c15331677e6ebf0b61ea60f26001555a606455",
                "nonce" : "0x00",
                "storage" : {
                    "0x00" : "0x08d5b6",
                    "0x01" : "0x01",
                    "0x64" : "0x081c71"
                }
            }
        },
        "pre" : {
            "0xa94f5374fce5edbc8e2a8697c15331677e6ebf0b" : {
                "balance" : "0xe8d4a51000",
                "code" : "",
                "nonce" : "0x00",
                "storage" : {
                }
            },
            "0xb94f5374fce5edbc8e2a8697c15331677e6ebf0b" : {
                "balance" : "0x64",
                "code" : "0x5a6000556000600060006000600173c94f5374fce5edbc8e2a8697c15331677e6ebf0b61ea60f26001555a606455",
                "nonce" : "0x00",
                "storage" : {
                }
            }
        }
    },
    "NonZeroValue_CALLCODE_d0g0v0_EIP158" : {
        "_info" : {
            "comment" : "",
            "filledwith" : "cpp-1.3.0+commit.6e0ce939.Linux.g++",
            "lllcversion" : "Version: 0.4.18-develop.2017.9.25+commit.a72237f2.Linux.g++",
            "source" : "src/BlockchainTestsFiller/GeneralStateTests/stNonZeroCallsTest/NonZeroValue_CALLCODE_d0g0v0Filler.json",
            "sourceHash" : "c3aa73a5f3866a810d4d18fb9ef6f884097f05585dafbeb1ae7300ae7774f434"
        },
        "blocks" : [
            {
                "blockHeader" : {
                    "bloom" : "0x00000000000000000000000000000000000000000000000000000000000000000000000000000000000000000000000000000000000000000000000000000000000000000000000000000000000000000000000000000000000000000000000000000000000000000000000000000000000000000000000000000000000000000000000000000000000000000000000000000000000000000000000000000000000000000000000000000000000000000000000000000000000000000000000000000000000000000000000000000000000000000000000000000000000000000000000000000000000000000000000000000000000000000000000000000000",
                    "coinbase" : "0x2adc25665018aa1fe0e6bc666dac8fc2697ff9ba",
                    "difficulty" : "0x020000",
                    "extraData" : "",
                    "gasLimit" : "0x989680",
                    "gasUsed" : "0x015972",
                    "hash" : "0x105b76271be57ef0f38bec4a2f15d47dbd088d51669ed9f832a91c3d62301121",
                    "mixHash" : "0xc0335820faa1e9c622807b6dcf78bb3c6c252b096b071c90c39a0a4b060fbe56",
                    "nonce" : "0xcc42c9085162466f",
                    "number" : "0x01",
                    "parentHash" : "0x0f0bfbedafb1a54f74c847571b77dc12f3a26384e149d28aeecc8c0b06651037",
                    "receiptTrie" : "0x6e589aa3d3c6f1e92d01f0827e130a69461ab987b07d8a1a02f105e9df0dd9b5",
                    "stateRoot" : "0x84d3d54cd426f6d38d193549a3e87863411e6ed48e03d27b496926ca3164d838",
                    "timestamp" : "0x03e8",
                    "transactionsTrie" : "0x59652e5662eb625efd106d67b9b25d3c12a15e69494d1d24f59d867c211f6761",
                    "uncleHash" : "0x1dcc4de8dec75d7aab85b567b6ccd41ad312451b948a7413f0a142fd40d49347"
                },
                "rlp" : "0xf90260f901f8a00f0bfbedafb1a54f74c847571b77dc12f3a26384e149d28aeecc8c0b06651037a01dcc4de8dec75d7aab85b567b6ccd41ad312451b948a7413f0a142fd40d49347942adc25665018aa1fe0e6bc666dac8fc2697ff9baa084d3d54cd426f6d38d193549a3e87863411e6ed48e03d27b496926ca3164d838a059652e5662eb625efd106d67b9b25d3c12a15e69494d1d24f59d867c211f6761a06e589aa3d3c6f1e92d01f0827e130a69461ab987b07d8a1a02f105e9df0dd9b5b9010000000000000000000000000000000000000000000000000000000000000000000000000000000000000000000000000000000000000000000000000000000000000000000000000000000000000000000000000000000000000000000000000000000000000000000000000000000000000000000000000000000000000000000000000000000000000000000000000000000000000000000000000000000000000000000000000000000000000000000000000000000000000000000000000000000000000000000000000000000000000000000000000000000000000000000000000000000000000000000000000000000000000000000000000000000000830200000183989680830159728203e880a0c0335820faa1e9c622807b6dcf78bb3c6c252b096b071c90c39a0a4b060fbe5688cc42c9085162466ff862f8608001830927c094b94f5374fce5edbc8e2a8697c15331677e6ebf0b80801ba08d0699f23d032b86db35ed7bb39c2357bec870fbfbe7db30b1795d320d8965c6a002f578fd949e84f0dc1307f5dd714c9a7158b31891d43f45459edcb52e345f7cc0",
                "transactions" : [
                    {
                        "data" : "",
                        "gasLimit" : "0x0927c0",
                        "gasPrice" : "0x01",
                        "nonce" : "0x00",
                        "r" : "0x8d0699f23d032b86db35ed7bb39c2357bec870fbfbe7db30b1795d320d8965c6",
                        "s" : "0x02f578fd949e84f0dc1307f5dd714c9a7158b31891d43f45459edcb52e345f7c",
                        "to" : "0xb94f5374fce5edbc8e2a8697c15331677e6ebf0b",
                        "v" : "0x1b",
                        "value" : "0x00"
                    }
                ],
                "uncleHeaders" : [
                ]
            }
        ],
        "genesisBlockHeader" : {
            "bloom" : "0x00000000000000000000000000000000000000000000000000000000000000000000000000000000000000000000000000000000000000000000000000000000000000000000000000000000000000000000000000000000000000000000000000000000000000000000000000000000000000000000000000000000000000000000000000000000000000000000000000000000000000000000000000000000000000000000000000000000000000000000000000000000000000000000000000000000000000000000000000000000000000000000000000000000000000000000000000000000000000000000000000000000000000000000000000000000",
            "coinbase" : "0x2adc25665018aa1fe0e6bc666dac8fc2697ff9ba",
            "difficulty" : "0x020000",
            "extraData" : "0x42",
            "gasLimit" : "0x989680",
            "gasUsed" : "0x00",
            "hash" : "0x0f0bfbedafb1a54f74c847571b77dc12f3a26384e149d28aeecc8c0b06651037",
            "mixHash" : "0x56e81f171bcc55a6ff8345e692c0f86e5b48e01b996cadc001622fb5e363b421",
            "nonce" : "0x0102030405060708",
            "number" : "0x00",
            "parentHash" : "0x0000000000000000000000000000000000000000000000000000000000000000",
            "receiptTrie" : "0x56e81f171bcc55a6ff8345e692c0f86e5b48e01b996cadc001622fb5e363b421",
            "stateRoot" : "0x3c895eeb38fa8601258132246d152654a654dea4bf4f681d3b11fb31db1f63bd",
            "timestamp" : "0x03b6",
            "transactionsTrie" : "0x56e81f171bcc55a6ff8345e692c0f86e5b48e01b996cadc001622fb5e363b421",
            "uncleHash" : "0x1dcc4de8dec75d7aab85b567b6ccd41ad312451b948a7413f0a142fd40d49347"
        },
        "genesisRLP" : "0xf901faf901f5a00000000000000000000000000000000000000000000000000000000000000000a01dcc4de8dec75d7aab85b567b6ccd41ad312451b948a7413f0a142fd40d49347942adc25665018aa1fe0e6bc666dac8fc2697ff9baa03c895eeb38fa8601258132246d152654a654dea4bf4f681d3b11fb31db1f63bda056e81f171bcc55a6ff8345e692c0f86e5b48e01b996cadc001622fb5e363b421a056e81f171bcc55a6ff8345e692c0f86e5b48e01b996cadc001622fb5e363b421b9010000000000000000000000000000000000000000000000000000000000000000000000000000000000000000000000000000000000000000000000000000000000000000000000000000000000000000000000000000000000000000000000000000000000000000000000000000000000000000000000000000000000000000000000000000000000000000000000000000000000000000000000000000000000000000000000000000000000000000000000000000000000000000000000000000000000000000000000000000000000000000000000000000000000000000000000000000000000000000000000000000000000000000000000000000000000830200008083989680808203b642a056e81f171bcc55a6ff8345e692c0f86e5b48e01b996cadc001622fb5e363b421880102030405060708c0c0",
        "lastblockhash" : "0x105b76271be57ef0f38bec4a2f15d47dbd088d51669ed9f832a91c3d62301121",
        "network" : "EIP158",
        "postState" : {
            "0x2adc25665018aa1fe0e6bc666dac8fc2697ff9ba" : {
                "balance" : "0x4563918244f55972",
                "code" : "",
                "nonce" : "0x00",
                "storage" : {
                }
            },
            "0xa94f5374fce5edbc8e2a8697c15331677e6ebf0b" : {
                "balance" : "0xe8d4a3b68e",
                "code" : "",
                "nonce" : "0x01",
                "storage" : {
                }
            },
            "0xb94f5374fce5edbc8e2a8697c15331677e6ebf0b" : {
                "balance" : "0x64",
                "code" : "0x5a6000556000600060006000600173c94f5374fce5edbc8e2a8697c15331677e6ebf0b61ea60f26001555a606455",
                "nonce" : "0x00",
                "storage" : {
                    "0x00" : "0x08d5b6",
                    "0x01" : "0x01",
                    "0x64" : "0x081c71"
                }
            }
        },
        "pre" : {
            "0xa94f5374fce5edbc8e2a8697c15331677e6ebf0b" : {
                "balance" : "0xe8d4a51000",
                "code" : "",
                "nonce" : "0x00",
                "storage" : {
                }
            },
            "0xb94f5374fce5edbc8e2a8697c15331677e6ebf0b" : {
                "balance" : "0x64",
                "code" : "0x5a6000556000600060006000600173c94f5374fce5edbc8e2a8697c15331677e6ebf0b61ea60f26001555a606455",
                "nonce" : "0x00",
                "storage" : {
                }
            }
        }
    },
    "NonZeroValue_CALLCODE_d0g0v0_Frontier" : {
        "_info" : {
            "comment" : "",
            "filledwith" : "cpp-1.3.0+commit.6e0ce939.Linux.g++",
            "lllcversion" : "Version: 0.4.18-develop.2017.9.25+commit.a72237f2.Linux.g++",
            "source" : "src/BlockchainTestsFiller/GeneralStateTests/stNonZeroCallsTest/NonZeroValue_CALLCODE_d0g0v0Filler.json",
            "sourceHash" : "c3aa73a5f3866a810d4d18fb9ef6f884097f05585dafbeb1ae7300ae7774f434"
        },
        "blocks" : [
            {
                "blockHeader" : {
                    "bloom" : "0x00000000000000000000000000000000000000000000000000000000000000000000000000000000000000000000000000000000000000000000000000000000000000000000000000000000000000000000000000000000000000000000000000000000000000000000000000000000000000000000000000000000000000000000000000000000000000000000000000000000000000000000000000000000000000000000000000000000000000000000000000000000000000000000000000000000000000000000000000000000000000000000000000000000000000000000000000000000000000000000000000000000000000000000000000000000",
                    "coinbase" : "0x2adc25665018aa1fe0e6bc666dac8fc2697ff9ba",
                    "difficulty" : "0x020000",
                    "extraData" : "",
                    "gasLimit" : "0x989680",
                    "gasUsed" : "0x0156de",
                    "hash" : "0x54498870184825683317853259642f4fa0e86b4c5e7d2fdd440e549cede0502e",
                    "mixHash" : "0xf074cb1f08084d36a068ee4a9d06ab3b8fbd5b518c255168e2aa1320b175018c",
                    "nonce" : "0x9fb0fd46b8f7a332",
                    "number" : "0x01",
                    "parentHash" : "0x0f0bfbedafb1a54f74c847571b77dc12f3a26384e149d28aeecc8c0b06651037",
                    "receiptTrie" : "0x0f35941aff0bf43d184c8b43135c83e1dc1fed3ec3c98327b7b48dc0b45b43c4",
                    "stateRoot" : "0xbcdfd44814da5f27dde588b34ccdd997caa1770ec1ba81361bbca4351f316fe8",
                    "timestamp" : "0x03e8",
                    "transactionsTrie" : "0x59652e5662eb625efd106d67b9b25d3c12a15e69494d1d24f59d867c211f6761",
                    "uncleHash" : "0x1dcc4de8dec75d7aab85b567b6ccd41ad312451b948a7413f0a142fd40d49347"
                },
                "rlp" : "0xf90260f901f8a00f0bfbedafb1a54f74c847571b77dc12f3a26384e149d28aeecc8c0b06651037a01dcc4de8dec75d7aab85b567b6ccd41ad312451b948a7413f0a142fd40d49347942adc25665018aa1fe0e6bc666dac8fc2697ff9baa0bcdfd44814da5f27dde588b34ccdd997caa1770ec1ba81361bbca4351f316fe8a059652e5662eb625efd106d67b9b25d3c12a15e69494d1d24f59d867c211f6761a00f35941aff0bf43d184c8b43135c83e1dc1fed3ec3c98327b7b48dc0b45b43c4b9010000000000000000000000000000000000000000000000000000000000000000000000000000000000000000000000000000000000000000000000000000000000000000000000000000000000000000000000000000000000000000000000000000000000000000000000000000000000000000000000000000000000000000000000000000000000000000000000000000000000000000000000000000000000000000000000000000000000000000000000000000000000000000000000000000000000000000000000000000000000000000000000000000000000000000000000000000000000000000000000000000000000000000000000000000000000830200000183989680830156de8203e880a0f074cb1f08084d36a068ee4a9d06ab3b8fbd5b518c255168e2aa1320b175018c889fb0fd46b8f7a332f862f8608001830927c094b94f5374fce5edbc8e2a8697c15331677e6ebf0b80801ba08d0699f23d032b86db35ed7bb39c2357bec870fbfbe7db30b1795d320d8965c6a002f578fd949e84f0dc1307f5dd714c9a7158b31891d43f45459edcb52e345f7cc0",
                "transactions" : [
                    {
                        "data" : "",
                        "gasLimit" : "0x0927c0",
                        "gasPrice" : "0x01",
                        "nonce" : "0x00",
                        "r" : "0x8d0699f23d032b86db35ed7bb39c2357bec870fbfbe7db30b1795d320d8965c6",
                        "s" : "0x02f578fd949e84f0dc1307f5dd714c9a7158b31891d43f45459edcb52e345f7c",
                        "to" : "0xb94f5374fce5edbc8e2a8697c15331677e6ebf0b",
                        "v" : "0x1b",
                        "value" : "0x00"
                    }
                ],
                "uncleHeaders" : [
                ]
            }
        ],
        "genesisBlockHeader" : {
            "bloom" : "0x00000000000000000000000000000000000000000000000000000000000000000000000000000000000000000000000000000000000000000000000000000000000000000000000000000000000000000000000000000000000000000000000000000000000000000000000000000000000000000000000000000000000000000000000000000000000000000000000000000000000000000000000000000000000000000000000000000000000000000000000000000000000000000000000000000000000000000000000000000000000000000000000000000000000000000000000000000000000000000000000000000000000000000000000000000000",
            "coinbase" : "0x2adc25665018aa1fe0e6bc666dac8fc2697ff9ba",
            "difficulty" : "0x020000",
            "extraData" : "0x42",
            "gasLimit" : "0x989680",
            "gasUsed" : "0x00",
            "hash" : "0x0f0bfbedafb1a54f74c847571b77dc12f3a26384e149d28aeecc8c0b06651037",
            "mixHash" : "0x56e81f171bcc55a6ff8345e692c0f86e5b48e01b996cadc001622fb5e363b421",
            "nonce" : "0x0102030405060708",
            "number" : "0x00",
            "parentHash" : "0x0000000000000000000000000000000000000000000000000000000000000000",
            "receiptTrie" : "0x56e81f171bcc55a6ff8345e692c0f86e5b48e01b996cadc001622fb5e363b421",
            "stateRoot" : "0x3c895eeb38fa8601258132246d152654a654dea4bf4f681d3b11fb31db1f63bd",
            "timestamp" : "0x03b6",
            "transactionsTrie" : "0x56e81f171bcc55a6ff8345e692c0f86e5b48e01b996cadc001622fb5e363b421",
            "uncleHash" : "0x1dcc4de8dec75d7aab85b567b6ccd41ad312451b948a7413f0a142fd40d49347"
        },
        "genesisRLP" : "0xf901faf901f5a00000000000000000000000000000000000000000000000000000000000000000a01dcc4de8dec75d7aab85b567b6ccd41ad312451b948a7413f0a142fd40d49347942adc25665018aa1fe0e6bc666dac8fc2697ff9baa03c895eeb38fa8601258132246d152654a654dea4bf4f681d3b11fb31db1f63bda056e81f171bcc55a6ff8345e692c0f86e5b48e01b996cadc001622fb5e363b421a056e81f171bcc55a6ff8345e692c0f86e5b48e01b996cadc001622fb5e363b421b9010000000000000000000000000000000000000000000000000000000000000000000000000000000000000000000000000000000000000000000000000000000000000000000000000000000000000000000000000000000000000000000000000000000000000000000000000000000000000000000000000000000000000000000000000000000000000000000000000000000000000000000000000000000000000000000000000000000000000000000000000000000000000000000000000000000000000000000000000000000000000000000000000000000000000000000000000000000000000000000000000000000000000000000000000000000000830200008083989680808203b642a056e81f171bcc55a6ff8345e692c0f86e5b48e01b996cadc001622fb5e363b421880102030405060708c0c0",
        "lastblockhash" : "0x54498870184825683317853259642f4fa0e86b4c5e7d2fdd440e549cede0502e",
        "network" : "Frontier",
        "postState" : {
            "0x2adc25665018aa1fe0e6bc666dac8fc2697ff9ba" : {
                "balance" : "0x4563918244f556de",
                "code" : "",
                "nonce" : "0x00",
                "storage" : {
                }
            },
            "0xa94f5374fce5edbc8e2a8697c15331677e6ebf0b" : {
                "balance" : "0xe8d4a3b922",
                "code" : "",
                "nonce" : "0x01",
                "storage" : {
                }
            },
            "0xb94f5374fce5edbc8e2a8697c15331677e6ebf0b" : {
                "balance" : "0x64",
                "code" : "0x5a6000556000600060006000600173c94f5374fce5edbc8e2a8697c15331677e6ebf0b61ea60f26001555a606455",
                "nonce" : "0x00",
                "storage" : {
                    "0x00" : "0x08d5b6",
                    "0x01" : "0x01",
                    "0x64" : "0x081f05"
                }
            }
        },
        "pre" : {
            "0xa94f5374fce5edbc8e2a8697c15331677e6ebf0b" : {
                "balance" : "0xe8d4a51000",
                "code" : "",
                "nonce" : "0x00",
                "storage" : {
                }
            },
            "0xb94f5374fce5edbc8e2a8697c15331677e6ebf0b" : {
                "balance" : "0x64",
                "code" : "0x5a6000556000600060006000600173c94f5374fce5edbc8e2a8697c15331677e6ebf0b61ea60f26001555a606455",
                "nonce" : "0x00",
                "storage" : {
                }
            }
        }
    },
    "NonZeroValue_CALLCODE_d0g0v0_Homestead" : {
        "_info" : {
            "comment" : "",
            "filledwith" : "cpp-1.3.0+commit.6e0ce939.Linux.g++",
            "lllcversion" : "Version: 0.4.18-develop.2017.9.25+commit.a72237f2.Linux.g++",
            "source" : "src/BlockchainTestsFiller/GeneralStateTests/stNonZeroCallsTest/NonZeroValue_CALLCODE_d0g0v0Filler.json",
            "sourceHash" : "c3aa73a5f3866a810d4d18fb9ef6f884097f05585dafbeb1ae7300ae7774f434"
        },
        "blocks" : [
            {
                "blockHeader" : {
                    "bloom" : "0x00000000000000000000000000000000000000000000000000000000000000000000000000000000000000000000000000000000000000000000000000000000000000000000000000000000000000000000000000000000000000000000000000000000000000000000000000000000000000000000000000000000000000000000000000000000000000000000000000000000000000000000000000000000000000000000000000000000000000000000000000000000000000000000000000000000000000000000000000000000000000000000000000000000000000000000000000000000000000000000000000000000000000000000000000000000",
                    "coinbase" : "0x2adc25665018aa1fe0e6bc666dac8fc2697ff9ba",
                    "difficulty" : "0x020000",
                    "extraData" : "",
                    "gasLimit" : "0x989680",
                    "gasUsed" : "0x0156de",
                    "hash" : "0x7744017d2d6dfaa757e5286c81a091ef4bf6c153e26203aae55a8851c83dcc9c",
                    "mixHash" : "0x7b54ed5f271967ce39feeac3c441ac541ed83eee548b28b606e578b791a0a5cf",
                    "nonce" : "0x8a34c7e872a6ca01",
                    "number" : "0x01",
                    "parentHash" : "0x0f0bfbedafb1a54f74c847571b77dc12f3a26384e149d28aeecc8c0b06651037",
                    "receiptTrie" : "0x0f35941aff0bf43d184c8b43135c83e1dc1fed3ec3c98327b7b48dc0b45b43c4",
                    "stateRoot" : "0xbcdfd44814da5f27dde588b34ccdd997caa1770ec1ba81361bbca4351f316fe8",
                    "timestamp" : "0x03e8",
                    "transactionsTrie" : "0x59652e5662eb625efd106d67b9b25d3c12a15e69494d1d24f59d867c211f6761",
                    "uncleHash" : "0x1dcc4de8dec75d7aab85b567b6ccd41ad312451b948a7413f0a142fd40d49347"
                },
                "rlp" : "0xf90260f901f8a00f0bfbedafb1a54f74c847571b77dc12f3a26384e149d28aeecc8c0b06651037a01dcc4de8dec75d7aab85b567b6ccd41ad312451b948a7413f0a142fd40d49347942adc25665018aa1fe0e6bc666dac8fc2697ff9baa0bcdfd44814da5f27dde588b34ccdd997caa1770ec1ba81361bbca4351f316fe8a059652e5662eb625efd106d67b9b25d3c12a15e69494d1d24f59d867c211f6761a00f35941aff0bf43d184c8b43135c83e1dc1fed3ec3c98327b7b48dc0b45b43c4b9010000000000000000000000000000000000000000000000000000000000000000000000000000000000000000000000000000000000000000000000000000000000000000000000000000000000000000000000000000000000000000000000000000000000000000000000000000000000000000000000000000000000000000000000000000000000000000000000000000000000000000000000000000000000000000000000000000000000000000000000000000000000000000000000000000000000000000000000000000000000000000000000000000000000000000000000000000000000000000000000000000000000000000000000000000000000830200000183989680830156de8203e880a07b54ed5f271967ce39feeac3c441ac541ed83eee548b28b606e578b791a0a5cf888a34c7e872a6ca01f862f8608001830927c094b94f5374fce5edbc8e2a8697c15331677e6ebf0b80801ba08d0699f23d032b86db35ed7bb39c2357bec870fbfbe7db30b1795d320d8965c6a002f578fd949e84f0dc1307f5dd714c9a7158b31891d43f45459edcb52e345f7cc0",
                "transactions" : [
                    {
                        "data" : "",
                        "gasLimit" : "0x0927c0",
                        "gasPrice" : "0x01",
                        "nonce" : "0x00",
                        "r" : "0x8d0699f23d032b86db35ed7bb39c2357bec870fbfbe7db30b1795d320d8965c6",
                        "s" : "0x02f578fd949e84f0dc1307f5dd714c9a7158b31891d43f45459edcb52e345f7c",
                        "to" : "0xb94f5374fce5edbc8e2a8697c15331677e6ebf0b",
                        "v" : "0x1b",
                        "value" : "0x00"
                    }
                ],
                "uncleHeaders" : [
                ]
            }
        ],
        "genesisBlockHeader" : {
            "bloom" : "0x00000000000000000000000000000000000000000000000000000000000000000000000000000000000000000000000000000000000000000000000000000000000000000000000000000000000000000000000000000000000000000000000000000000000000000000000000000000000000000000000000000000000000000000000000000000000000000000000000000000000000000000000000000000000000000000000000000000000000000000000000000000000000000000000000000000000000000000000000000000000000000000000000000000000000000000000000000000000000000000000000000000000000000000000000000000",
            "coinbase" : "0x2adc25665018aa1fe0e6bc666dac8fc2697ff9ba",
            "difficulty" : "0x020000",
            "extraData" : "0x42",
            "gasLimit" : "0x989680",
            "gasUsed" : "0x00",
            "hash" : "0x0f0bfbedafb1a54f74c847571b77dc12f3a26384e149d28aeecc8c0b06651037",
            "mixHash" : "0x56e81f171bcc55a6ff8345e692c0f86e5b48e01b996cadc001622fb5e363b421",
            "nonce" : "0x0102030405060708",
            "number" : "0x00",
            "parentHash" : "0x0000000000000000000000000000000000000000000000000000000000000000",
            "receiptTrie" : "0x56e81f171bcc55a6ff8345e692c0f86e5b48e01b996cadc001622fb5e363b421",
            "stateRoot" : "0x3c895eeb38fa8601258132246d152654a654dea4bf4f681d3b11fb31db1f63bd",
            "timestamp" : "0x03b6",
            "transactionsTrie" : "0x56e81f171bcc55a6ff8345e692c0f86e5b48e01b996cadc001622fb5e363b421",
            "uncleHash" : "0x1dcc4de8dec75d7aab85b567b6ccd41ad312451b948a7413f0a142fd40d49347"
        },
        "genesisRLP" : "0xf901faf901f5a00000000000000000000000000000000000000000000000000000000000000000a01dcc4de8dec75d7aab85b567b6ccd41ad312451b948a7413f0a142fd40d49347942adc25665018aa1fe0e6bc666dac8fc2697ff9baa03c895eeb38fa8601258132246d152654a654dea4bf4f681d3b11fb31db1f63bda056e81f171bcc55a6ff8345e692c0f86e5b48e01b996cadc001622fb5e363b421a056e81f171bcc55a6ff8345e692c0f86e5b48e01b996cadc001622fb5e363b421b9010000000000000000000000000000000000000000000000000000000000000000000000000000000000000000000000000000000000000000000000000000000000000000000000000000000000000000000000000000000000000000000000000000000000000000000000000000000000000000000000000000000000000000000000000000000000000000000000000000000000000000000000000000000000000000000000000000000000000000000000000000000000000000000000000000000000000000000000000000000000000000000000000000000000000000000000000000000000000000000000000000000000000000000000000000000000830200008083989680808203b642a056e81f171bcc55a6ff8345e692c0f86e5b48e01b996cadc001622fb5e363b421880102030405060708c0c0",
        "lastblockhash" : "0x7744017d2d6dfaa757e5286c81a091ef4bf6c153e26203aae55a8851c83dcc9c",
        "network" : "Homestead",
        "postState" : {
            "0x2adc25665018aa1fe0e6bc666dac8fc2697ff9ba" : {
                "balance" : "0x4563918244f556de",
                "code" : "",
                "nonce" : "0x00",
                "storage" : {
                }
            },
            "0xa94f5374fce5edbc8e2a8697c15331677e6ebf0b" : {
                "balance" : "0xe8d4a3b922",
                "code" : "",
                "nonce" : "0x01",
                "storage" : {
                }
            },
            "0xb94f5374fce5edbc8e2a8697c15331677e6ebf0b" : {
                "balance" : "0x64",
                "code" : "0x5a6000556000600060006000600173c94f5374fce5edbc8e2a8697c15331677e6ebf0b61ea60f26001555a606455",
                "nonce" : "0x00",
                "storage" : {
                    "0x00" : "0x08d5b6",
                    "0x01" : "0x01",
                    "0x64" : "0x081f05"
                }
            }
        },
        "pre" : {
            "0xa94f5374fce5edbc8e2a8697c15331677e6ebf0b" : {
                "balance" : "0xe8d4a51000",
                "code" : "",
                "nonce" : "0x00",
                "storage" : {
                }
            },
            "0xb94f5374fce5edbc8e2a8697c15331677e6ebf0b" : {
                "balance" : "0x64",
                "code" : "0x5a6000556000600060006000600173c94f5374fce5edbc8e2a8697c15331677e6ebf0b61ea60f26001555a606455",
                "nonce" : "0x00",
                "storage" : {
                }
            }
        }
    }
}