{
    "NonZeroValue_TransactionCALL_d0g0v0_Byzantium" : {
        "_info" : {
            "comment" : "",
            "filledwith" : "cpp-1.3.0+commit.6e0ce939.Linux.g++",
            "lllcversion" : "Version: 0.4.18-develop.2017.9.25+commit.a72237f2.Linux.g++",
            "source" : "src/BlockchainTestsFiller/GeneralStateTests/stNonZeroCallsTest/NonZeroValue_TransactionCALL_d0g0v0Filler.json",
            "sourceHash" : "eeba1ec927ff69787fd107681eb4c07786ba5e62a22bc5426a280c2736680649"
        },
        "blocks" : [
            {
                "blockHeader" : {
                    "bloom" : "0x00000000000000000000000000000000000000000000000000000000000000000000000000000000000000000000000000000000000000000000000000000000000000000000000000000000000000000000000000000000000000000000000000000000000000000000000000000000000000000000000000000000000000000000000000000000000000000000000000000000000000000000000000000000000000000000000000000000000000000000000000000000000000000000000000000000000000000000000000000000000000000000000000000000000000000000000000000000000000000000000000000000000000000000000000000000",
                    "coinbase" : "0x2adc25665018aa1fe0e6bc666dac8fc2697ff9ba",
                    "difficulty" : "0x020000",
                    "extraData" : "",
                    "gasLimit" : "0x989680",
                    "gasUsed" : "0x5208",
                    "hash" : "0xf249fa00d44b2555364c3ed207835bd41b41a8a39fded95a463afdb9a78487d3",
                    "mixHash" : "0x75259e692c3ded0c3699ce55286828994895ab0df8fac1bd184a0a38015cb0ea",
                    "nonce" : "0xf106128b00615217",
                    "number" : "0x01",
                    "parentHash" : "0x35095b1590cfa9eed610b5b60904000ac9a8448da13600b40cc80c26458e7326",
                    "receiptTrie" : "0x056b23fbba480696b65fe5a59b8f2148a1299103c4f57df839233af2cf4ca2d2",
                    "stateRoot" : "0x7ba710432922e37aaffcc3ee3e533c6d111f7a4f53e8aa0746669778dfa6c3ea",
                    "timestamp" : "0x03e8",
                    "transactionsTrie" : "0xf24a60f7d08c1650470929f7541bbcab99de0cefd0c662a8f1e0d6e8e05f1042",
                    "uncleHash" : "0x1dcc4de8dec75d7aab85b567b6ccd41ad312451b948a7413f0a142fd40d49347"
                },
                "rlp" : "0xf9025ff901f7a035095b1590cfa9eed610b5b60904000ac9a8448da13600b40cc80c26458e7326a01dcc4de8dec75d7aab85b567b6ccd41ad312451b948a7413f0a142fd40d49347942adc25665018aa1fe0e6bc666dac8fc2697ff9baa07ba710432922e37aaffcc3ee3e533c6d111f7a4f53e8aa0746669778dfa6c3eaa0f24a60f7d08c1650470929f7541bbcab99de0cefd0c662a8f1e0d6e8e05f1042a0056b23fbba480696b65fe5a59b8f2148a1299103c4f57df839233af2cf4ca2d2b90100000000000000000000000000000000000000000000000000000000000000000000000000000000000000000000000000000000000000000000000000000000000000000000000000000000000000000000000000000000000000000000000000000000000000000000000000000000000000000000000000000000000000000000000000000000000000000000000000000000000000000000000000000000000000000000000000000000000000000000000000000000000000000000000000000000000000000000000000000000000000000000000000000000000000000000000000000000000000000000000000000000000000000000000000000000008302000001839896808252088203e880a075259e692c3ded0c3699ce55286828994895ab0df8fac1bd184a0a38015cb0ea88f106128b00615217f862f8608001830927c094b94f5374fce5edbc8e2a8697c15331677e6ebf0b01801ba06ebb662fa6b0332ead22704d6d7b4f11f8a5e2678071327035f090a40e0ef6cea018d73c5557e1936001ce1a61a79707d317ae8da3819e34667cffb326207c7757c0",
                "transactions" : [
                    {
                        "data" : "",
                        "gasLimit" : "0x0927c0",
                        "gasPrice" : "0x01",
                        "nonce" : "0x00",
                        "r" : "0x6ebb662fa6b0332ead22704d6d7b4f11f8a5e2678071327035f090a40e0ef6ce",
                        "s" : "0x18d73c5557e1936001ce1a61a79707d317ae8da3819e34667cffb326207c7757",
                        "to" : "0xb94f5374fce5edbc8e2a8697c15331677e6ebf0b",
                        "v" : "0x1b",
                        "value" : "0x01"
                    }
                ],
                "uncleHeaders" : [
                ]
            }
        ],
        "genesisBlockHeader" : {
            "bloom" : "0x00000000000000000000000000000000000000000000000000000000000000000000000000000000000000000000000000000000000000000000000000000000000000000000000000000000000000000000000000000000000000000000000000000000000000000000000000000000000000000000000000000000000000000000000000000000000000000000000000000000000000000000000000000000000000000000000000000000000000000000000000000000000000000000000000000000000000000000000000000000000000000000000000000000000000000000000000000000000000000000000000000000000000000000000000000000",
            "coinbase" : "0x2adc25665018aa1fe0e6bc666dac8fc2697ff9ba",
            "difficulty" : "0x020000",
            "extraData" : "0x42",
            "gasLimit" : "0x989680",
            "gasUsed" : "0x00",
            "hash" : "0x35095b1590cfa9eed610b5b60904000ac9a8448da13600b40cc80c26458e7326",
            "mixHash" : "0x56e81f171bcc55a6ff8345e692c0f86e5b48e01b996cadc001622fb5e363b421",
            "nonce" : "0x0102030405060708",
            "number" : "0x00",
            "parentHash" : "0x0000000000000000000000000000000000000000000000000000000000000000",
            "receiptTrie" : "0x56e81f171bcc55a6ff8345e692c0f86e5b48e01b996cadc001622fb5e363b421",
            "stateRoot" : "0x17ca3d673553cbfcf5de4a99ea08088763bbf64aa67ae17a485f585bcc01d3f2",
            "timestamp" : "0x03b6",
            "transactionsTrie" : "0x56e81f171bcc55a6ff8345e692c0f86e5b48e01b996cadc001622fb5e363b421",
            "uncleHash" : "0x1dcc4de8dec75d7aab85b567b6ccd41ad312451b948a7413f0a142fd40d49347"
        },
        "genesisRLP" : "0xf901faf901f5a00000000000000000000000000000000000000000000000000000000000000000a01dcc4de8dec75d7aab85b567b6ccd41ad312451b948a7413f0a142fd40d49347942adc25665018aa1fe0e6bc666dac8fc2697ff9baa017ca3d673553cbfcf5de4a99ea08088763bbf64aa67ae17a485f585bcc01d3f2a056e81f171bcc55a6ff8345e692c0f86e5b48e01b996cadc001622fb5e363b421a056e81f171bcc55a6ff8345e692c0f86e5b48e01b996cadc001622fb5e363b421b9010000000000000000000000000000000000000000000000000000000000000000000000000000000000000000000000000000000000000000000000000000000000000000000000000000000000000000000000000000000000000000000000000000000000000000000000000000000000000000000000000000000000000000000000000000000000000000000000000000000000000000000000000000000000000000000000000000000000000000000000000000000000000000000000000000000000000000000000000000000000000000000000000000000000000000000000000000000000000000000000000000000000000000000000000000000000830200008083989680808203b642a056e81f171bcc55a6ff8345e692c0f86e5b48e01b996cadc001622fb5e363b421880102030405060708c0c0",
        "lastblockhash" : "0xf249fa00d44b2555364c3ed207835bd41b41a8a39fded95a463afdb9a78487d3",
        "network" : "Byzantium",
        "postState" : {
            "0x2adc25665018aa1fe0e6bc666dac8fc2697ff9ba" : {
                "balance" : "0x29a2241af62c5208",
                "code" : "",
                "nonce" : "0x00",
                "storage" : {
                }
            },
            "0xa94f5374fce5edbc8e2a8697c15331677e6ebf0b" : {
                "balance" : "0xe8d4a4bdf7",
                "code" : "",
                "nonce" : "0x01",
                "storage" : {
                }
            },
            "0xb94f5374fce5edbc8e2a8697c15331677e6ebf0b" : {
                "balance" : "0x01",
                "code" : "",
                "nonce" : "0x00",
                "storage" : {
                }
            }
        },
        "pre" : {
            "0xa94f5374fce5edbc8e2a8697c15331677e6ebf0b" : {
                "balance" : "0xe8d4a51000",
                "code" : "",
                "nonce" : "0x00",
                "storage" : {
                }
            }
        }
    },
    "NonZeroValue_TransactionCALL_d0g0v0_EIP150" : {
        "_info" : {
            "comment" : "",
            "filledwith" : "cpp-1.3.0+commit.6e0ce939.Linux.g++",
            "lllcversion" : "Version: 0.4.18-develop.2017.9.25+commit.a72237f2.Linux.g++",
            "source" : "src/BlockchainTestsFiller/GeneralStateTests/stNonZeroCallsTest/NonZeroValue_TransactionCALL_d0g0v0Filler.json",
            "sourceHash" : "eeba1ec927ff69787fd107681eb4c07786ba5e62a22bc5426a280c2736680649"
        },
        "blocks" : [
            {
                "blockHeader" : {
                    "bloom" : "0x00000000000000000000000000000000000000000000000000000000000000000000000000000000000000000000000000000000000000000000000000000000000000000000000000000000000000000000000000000000000000000000000000000000000000000000000000000000000000000000000000000000000000000000000000000000000000000000000000000000000000000000000000000000000000000000000000000000000000000000000000000000000000000000000000000000000000000000000000000000000000000000000000000000000000000000000000000000000000000000000000000000000000000000000000000000",
                    "coinbase" : "0x2adc25665018aa1fe0e6bc666dac8fc2697ff9ba",
                    "difficulty" : "0x020000",
                    "extraData" : "",
                    "gasLimit" : "0x989680",
                    "gasUsed" : "0x5208",
                    "hash" : "0xfea5f0acd0b56ed7139f03e3944fe7ff45ba75bc091445292162020208753813",
                    "mixHash" : "0x523b9f56708a3bcc846d7c291a74c9268a8d93bf7ec956185c5c5bb1e409ed19",
                    "nonce" : "0xae28841c4251ea83",
                    "number" : "0x01",
                    "parentHash" : "0x35095b1590cfa9eed610b5b60904000ac9a8448da13600b40cc80c26458e7326",
                    "receiptTrie" : "0x87e1d226d356161259d800e82b94c09ead7ec9bf4050b4421d99e6e193377cb8",
                    "stateRoot" : "0x80f52fda7831aee0a2093998bca186fd1544872a9b9476c8f21bc9b865e1fcc2",
                    "timestamp" : "0x03e8",
                    "transactionsTrie" : "0xf24a60f7d08c1650470929f7541bbcab99de0cefd0c662a8f1e0d6e8e05f1042",
                    "uncleHash" : "0x1dcc4de8dec75d7aab85b567b6ccd41ad312451b948a7413f0a142fd40d49347"
                },
                "rlp" : "0xf9025ff901f7a035095b1590cfa9eed610b5b60904000ac9a8448da13600b40cc80c26458e7326a01dcc4de8dec75d7aab85b567b6ccd41ad312451b948a7413f0a142fd40d49347942adc25665018aa1fe0e6bc666dac8fc2697ff9baa080f52fda7831aee0a2093998bca186fd1544872a9b9476c8f21bc9b865e1fcc2a0f24a60f7d08c1650470929f7541bbcab99de0cefd0c662a8f1e0d6e8e05f1042a087e1d226d356161259d800e82b94c09ead7ec9bf4050b4421d99e6e193377cb8b90100000000000000000000000000000000000000000000000000000000000000000000000000000000000000000000000000000000000000000000000000000000000000000000000000000000000000000000000000000000000000000000000000000000000000000000000000000000000000000000000000000000000000000000000000000000000000000000000000000000000000000000000000000000000000000000000000000000000000000000000000000000000000000000000000000000000000000000000000000000000000000000000000000000000000000000000000000000000000000000000000000000000000000000000000000000008302000001839896808252088203e880a0523b9f56708a3bcc846d7c291a74c9268a8d93bf7ec956185c5c5bb1e409ed1988ae28841c4251ea83f862f8608001830927c094b94f5374fce5edbc8e2a8697c15331677e6ebf0b01801ba06ebb662fa6b0332ead22704d6d7b4f11f8a5e2678071327035f090a40e0ef6cea018d73c5557e1936001ce1a61a79707d317ae8da3819e34667cffb326207c7757c0",
                "transactions" : [
                    {
                        "data" : "",
                        "gasLimit" : "0x0927c0",
                        "gasPrice" : "0x01",
                        "nonce" : "0x00",
                        "r" : "0x6ebb662fa6b0332ead22704d6d7b4f11f8a5e2678071327035f090a40e0ef6ce",
                        "s" : "0x18d73c5557e1936001ce1a61a79707d317ae8da3819e34667cffb326207c7757",
                        "to" : "0xb94f5374fce5edbc8e2a8697c15331677e6ebf0b",
                        "v" : "0x1b",
                        "value" : "0x01"
                    }
                ],
                "uncleHeaders" : [
                ]
            }
        ],
        "genesisBlockHeader" : {
            "bloom" : "0x00000000000000000000000000000000000000000000000000000000000000000000000000000000000000000000000000000000000000000000000000000000000000000000000000000000000000000000000000000000000000000000000000000000000000000000000000000000000000000000000000000000000000000000000000000000000000000000000000000000000000000000000000000000000000000000000000000000000000000000000000000000000000000000000000000000000000000000000000000000000000000000000000000000000000000000000000000000000000000000000000000000000000000000000000000000",
            "coinbase" : "0x2adc25665018aa1fe0e6bc666dac8fc2697ff9ba",
            "difficulty" : "0x020000",
            "extraData" : "0x42",
            "gasLimit" : "0x989680",
            "gasUsed" : "0x00",
            "hash" : "0x35095b1590cfa9eed610b5b60904000ac9a8448da13600b40cc80c26458e7326",
            "mixHash" : "0x56e81f171bcc55a6ff8345e692c0f86e5b48e01b996cadc001622fb5e363b421",
            "nonce" : "0x0102030405060708",
            "number" : "0x00",
            "parentHash" : "0x0000000000000000000000000000000000000000000000000000000000000000",
            "receiptTrie" : "0x56e81f171bcc55a6ff8345e692c0f86e5b48e01b996cadc001622fb5e363b421",
            "stateRoot" : "0x17ca3d673553cbfcf5de4a99ea08088763bbf64aa67ae17a485f585bcc01d3f2",
            "timestamp" : "0x03b6",
            "transactionsTrie" : "0x56e81f171bcc55a6ff8345e692c0f86e5b48e01b996cadc001622fb5e363b421",
            "uncleHash" : "0x1dcc4de8dec75d7aab85b567b6ccd41ad312451b948a7413f0a142fd40d49347"
        },
        "genesisRLP" : "0xf901faf901f5a00000000000000000000000000000000000000000000000000000000000000000a01dcc4de8dec75d7aab85b567b6ccd41ad312451b948a7413f0a142fd40d49347942adc25665018aa1fe0e6bc666dac8fc2697ff9baa017ca3d673553cbfcf5de4a99ea08088763bbf64aa67ae17a485f585bcc01d3f2a056e81f171bcc55a6ff8345e692c0f86e5b48e01b996cadc001622fb5e363b421a056e81f171bcc55a6ff8345e692c0f86e5b48e01b996cadc001622fb5e363b421b9010000000000000000000000000000000000000000000000000000000000000000000000000000000000000000000000000000000000000000000000000000000000000000000000000000000000000000000000000000000000000000000000000000000000000000000000000000000000000000000000000000000000000000000000000000000000000000000000000000000000000000000000000000000000000000000000000000000000000000000000000000000000000000000000000000000000000000000000000000000000000000000000000000000000000000000000000000000000000000000000000000000000000000000000000000000000830200008083989680808203b642a056e81f171bcc55a6ff8345e692c0f86e5b48e01b996cadc001622fb5e363b421880102030405060708c0c0",
        "lastblockhash" : "0xfea5f0acd0b56ed7139f03e3944fe7ff45ba75bc091445292162020208753813",
        "network" : "EIP150",
        "postState" : {
            "0x2adc25665018aa1fe0e6bc666dac8fc2697ff9ba" : {
                "balance" : "0x4563918244f45208",
                "code" : "",
                "nonce" : "0x00",
                "storage" : {
                }
            },
            "0xa94f5374fce5edbc8e2a8697c15331677e6ebf0b" : {
                "balance" : "0xe8d4a4bdf7",
                "code" : "",
                "nonce" : "0x01",
                "storage" : {
                }
            },
            "0xb94f5374fce5edbc8e2a8697c15331677e6ebf0b" : {
                "balance" : "0x01",
                "code" : "",
                "nonce" : "0x00",
                "storage" : {
                }
            }
        },
        "pre" : {
            "0xa94f5374fce5edbc8e2a8697c15331677e6ebf0b" : {
                "balance" : "0xe8d4a51000",
                "code" : "",
                "nonce" : "0x00",
                "storage" : {
                }
            }
        }
    },
    "NonZeroValue_TransactionCALL_d0g0v0_EIP158" : {
        "_info" : {
            "comment" : "",
            "filledwith" : "cpp-1.3.0+commit.6e0ce939.Linux.g++",
            "lllcversion" : "Version: 0.4.18-develop.2017.9.25+commit.a72237f2.Linux.g++",
            "source" : "src/BlockchainTestsFiller/GeneralStateTests/stNonZeroCallsTest/NonZeroValue_TransactionCALL_d0g0v0Filler.json",
            "sourceHash" : "eeba1ec927ff69787fd107681eb4c07786ba5e62a22bc5426a280c2736680649"
        },
        "blocks" : [
            {
                "blockHeader" : {
                    "bloom" : "0x00000000000000000000000000000000000000000000000000000000000000000000000000000000000000000000000000000000000000000000000000000000000000000000000000000000000000000000000000000000000000000000000000000000000000000000000000000000000000000000000000000000000000000000000000000000000000000000000000000000000000000000000000000000000000000000000000000000000000000000000000000000000000000000000000000000000000000000000000000000000000000000000000000000000000000000000000000000000000000000000000000000000000000000000000000000",
                    "coinbase" : "0x2adc25665018aa1fe0e6bc666dac8fc2697ff9ba",
                    "difficulty" : "0x020000",
                    "extraData" : "",
                    "gasLimit" : "0x989680",
                    "gasUsed" : "0x5208",
                    "hash" : "0xf5230d99aa69a1251fc4e638f6481bfdb12cec559eef41bcf41eea9ad2eeff7d",
                    "mixHash" : "0x9ab308bad199be5f85918738b99344af9a34e4d1e6aae8e5423bbf18925bc510",
                    "nonce" : "0x3fa454e50ec0d600",
                    "number" : "0x01",
                    "parentHash" : "0x35095b1590cfa9eed610b5b60904000ac9a8448da13600b40cc80c26458e7326",
                    "receiptTrie" : "0x87e1d226d356161259d800e82b94c09ead7ec9bf4050b4421d99e6e193377cb8",
                    "stateRoot" : "0x80f52fda7831aee0a2093998bca186fd1544872a9b9476c8f21bc9b865e1fcc2",
                    "timestamp" : "0x03e8",
                    "transactionsTrie" : "0xf24a60f7d08c1650470929f7541bbcab99de0cefd0c662a8f1e0d6e8e05f1042",
                    "uncleHash" : "0x1dcc4de8dec75d7aab85b567b6ccd41ad312451b948a7413f0a142fd40d49347"
                },
                "rlp" : "0xf9025ff901f7a035095b1590cfa9eed610b5b60904000ac9a8448da13600b40cc80c26458e7326a01dcc4de8dec75d7aab85b567b6ccd41ad312451b948a7413f0a142fd40d49347942adc25665018aa1fe0e6bc666dac8fc2697ff9baa080f52fda7831aee0a2093998bca186fd1544872a9b9476c8f21bc9b865e1fcc2a0f24a60f7d08c1650470929f7541bbcab99de0cefd0c662a8f1e0d6e8e05f1042a087e1d226d356161259d800e82b94c09ead7ec9bf4050b4421d99e6e193377cb8b90100000000000000000000000000000000000000000000000000000000000000000000000000000000000000000000000000000000000000000000000000000000000000000000000000000000000000000000000000000000000000000000000000000000000000000000000000000000000000000000000000000000000000000000000000000000000000000000000000000000000000000000000000000000000000000000000000000000000000000000000000000000000000000000000000000000000000000000000000000000000000000000000000000000000000000000000000000000000000000000000000000000000000000000000000000000008302000001839896808252088203e880a09ab308bad199be5f85918738b99344af9a34e4d1e6aae8e5423bbf18925bc510883fa454e50ec0d600f862f8608001830927c094b94f5374fce5edbc8e2a8697c15331677e6ebf0b01801ba06ebb662fa6b0332ead22704d6d7b4f11f8a5e2678071327035f090a40e0ef6cea018d73c5557e1936001ce1a61a79707d317ae8da3819e34667cffb326207c7757c0",
                "transactions" : [
                    {
                        "data" : "",
                        "gasLimit" : "0x0927c0",
                        "gasPrice" : "0x01",
                        "nonce" : "0x00",
                        "r" : "0x6ebb662fa6b0332ead22704d6d7b4f11f8a5e2678071327035f090a40e0ef6ce",
                        "s" : "0x18d73c5557e1936001ce1a61a79707d317ae8da3819e34667cffb326207c7757",
                        "to" : "0xb94f5374fce5edbc8e2a8697c15331677e6ebf0b",
                        "v" : "0x1b",
                        "value" : "0x01"
                    }
                ],
                "uncleHeaders" : [
                ]
            }
        ],
        "genesisBlockHeader" : {
            "bloom" : "0x00000000000000000000000000000000000000000000000000000000000000000000000000000000000000000000000000000000000000000000000000000000000000000000000000000000000000000000000000000000000000000000000000000000000000000000000000000000000000000000000000000000000000000000000000000000000000000000000000000000000000000000000000000000000000000000000000000000000000000000000000000000000000000000000000000000000000000000000000000000000000000000000000000000000000000000000000000000000000000000000000000000000000000000000000000000",
            "coinbase" : "0x2adc25665018aa1fe0e6bc666dac8fc2697ff9ba",
            "difficulty" : "0x020000",
            "extraData" : "0x42",
            "gasLimit" : "0x989680",
            "gasUsed" : "0x00",
            "hash" : "0x35095b1590cfa9eed610b5b60904000ac9a8448da13600b40cc80c26458e7326",
            "mixHash" : "0x56e81f171bcc55a6ff8345e692c0f86e5b48e01b996cadc001622fb5e363b421",
            "nonce" : "0x0102030405060708",
            "number" : "0x00",
            "parentHash" : "0x0000000000000000000000000000000000000000000000000000000000000000",
            "receiptTrie" : "0x56e81f171bcc55a6ff8345e692c0f86e5b48e01b996cadc001622fb5e363b421",
            "stateRoot" : "0x17ca3d673553cbfcf5de4a99ea08088763bbf64aa67ae17a485f585bcc01d3f2",
            "timestamp" : "0x03b6",
            "transactionsTrie" : "0x56e81f171bcc55a6ff8345e692c0f86e5b48e01b996cadc001622fb5e363b421",
            "uncleHash" : "0x1dcc4de8dec75d7aab85b567b6ccd41ad312451b948a7413f0a142fd40d49347"
        },
        "genesisRLP" : "0xf901faf901f5a00000000000000000000000000000000000000000000000000000000000000000a01dcc4de8dec75d7aab85b567b6ccd41ad312451b948a7413f0a142fd40d49347942adc25665018aa1fe0e6bc666dac8fc2697ff9baa017ca3d673553cbfcf5de4a99ea08088763bbf64aa67ae17a485f585bcc01d3f2a056e81f171bcc55a6ff8345e692c0f86e5b48e01b996cadc001622fb5e363b421a056e81f171bcc55a6ff8345e692c0f86e5b48e01b996cadc001622fb5e363b421b9010000000000000000000000000000000000000000000000000000000000000000000000000000000000000000000000000000000000000000000000000000000000000000000000000000000000000000000000000000000000000000000000000000000000000000000000000000000000000000000000000000000000000000000000000000000000000000000000000000000000000000000000000000000000000000000000000000000000000000000000000000000000000000000000000000000000000000000000000000000000000000000000000000000000000000000000000000000000000000000000000000000000000000000000000000000000830200008083989680808203b642a056e81f171bcc55a6ff8345e692c0f86e5b48e01b996cadc001622fb5e363b421880102030405060708c0c0",
        "lastblockhash" : "0xf5230d99aa69a1251fc4e638f6481bfdb12cec559eef41bcf41eea9ad2eeff7d",
        "network" : "EIP158",
        "postState" : {
            "0x2adc25665018aa1fe0e6bc666dac8fc2697ff9ba" : {
                "balance" : "0x4563918244f45208",
                "code" : "",
                "nonce" : "0x00",
                "storage" : {
                }
            },
            "0xa94f5374fce5edbc8e2a8697c15331677e6ebf0b" : {
                "balance" : "0xe8d4a4bdf7",
                "code" : "",
                "nonce" : "0x01",
                "storage" : {
                }
            },
            "0xb94f5374fce5edbc8e2a8697c15331677e6ebf0b" : {
                "balance" : "0x01",
                "code" : "",
                "nonce" : "0x00",
                "storage" : {
                }
            }
        },
        "pre" : {
            "0xa94f5374fce5edbc8e2a8697c15331677e6ebf0b" : {
                "balance" : "0xe8d4a51000",
                "code" : "",
                "nonce" : "0x00",
                "storage" : {
                }
            }
        }
    },
    "NonZeroValue_TransactionCALL_d0g0v0_Frontier" : {
        "_info" : {
            "comment" : "",
            "filledwith" : "cpp-1.3.0+commit.6e0ce939.Linux.g++",
            "lllcversion" : "Version: 0.4.18-develop.2017.9.25+commit.a72237f2.Linux.g++",
            "source" : "src/BlockchainTestsFiller/GeneralStateTests/stNonZeroCallsTest/NonZeroValue_TransactionCALL_d0g0v0Filler.json",
            "sourceHash" : "eeba1ec927ff69787fd107681eb4c07786ba5e62a22bc5426a280c2736680649"
        },
        "blocks" : [
            {
                "blockHeader" : {
                    "bloom" : "0x00000000000000000000000000000000000000000000000000000000000000000000000000000000000000000000000000000000000000000000000000000000000000000000000000000000000000000000000000000000000000000000000000000000000000000000000000000000000000000000000000000000000000000000000000000000000000000000000000000000000000000000000000000000000000000000000000000000000000000000000000000000000000000000000000000000000000000000000000000000000000000000000000000000000000000000000000000000000000000000000000000000000000000000000000000000",
                    "coinbase" : "0x2adc25665018aa1fe0e6bc666dac8fc2697ff9ba",
                    "difficulty" : "0x020000",
                    "extraData" : "",
                    "gasLimit" : "0x989680",
                    "gasUsed" : "0x5208",
                    "hash" : "0x217957e6960e3d0b62118955f3ca2108254eaa45a3b87a03d23c897a7feb0523",
                    "mixHash" : "0x74ff92ee3bbf58a3cd9a8e0a2779d41e986e55621d39633edfdf6646526a6bfc",
                    "nonce" : "0xcb17ab218696c5bf",
                    "number" : "0x01",
                    "parentHash" : "0x35095b1590cfa9eed610b5b60904000ac9a8448da13600b40cc80c26458e7326",
                    "receiptTrie" : "0x87e1d226d356161259d800e82b94c09ead7ec9bf4050b4421d99e6e193377cb8",
                    "stateRoot" : "0x80f52fda7831aee0a2093998bca186fd1544872a9b9476c8f21bc9b865e1fcc2",
                    "timestamp" : "0x03e8",
                    "transactionsTrie" : "0xf24a60f7d08c1650470929f7541bbcab99de0cefd0c662a8f1e0d6e8e05f1042",
                    "uncleHash" : "0x1dcc4de8dec75d7aab85b567b6ccd41ad312451b948a7413f0a142fd40d49347"
                },
                "rlp" : "0xf9025ff901f7a035095b1590cfa9eed610b5b60904000ac9a8448da13600b40cc80c26458e7326a01dcc4de8dec75d7aab85b567b6ccd41ad312451b948a7413f0a142fd40d49347942adc25665018aa1fe0e6bc666dac8fc2697ff9baa080f52fda7831aee0a2093998bca186fd1544872a9b9476c8f21bc9b865e1fcc2a0f24a60f7d08c1650470929f7541bbcab99de0cefd0c662a8f1e0d6e8e05f1042a087e1d226d356161259d800e82b94c09ead7ec9bf4050b4421d99e6e193377cb8b90100000000000000000000000000000000000000000000000000000000000000000000000000000000000000000000000000000000000000000000000000000000000000000000000000000000000000000000000000000000000000000000000000000000000000000000000000000000000000000000000000000000000000000000000000000000000000000000000000000000000000000000000000000000000000000000000000000000000000000000000000000000000000000000000000000000000000000000000000000000000000000000000000000000000000000000000000000000000000000000000000000000000000000000000000000000008302000001839896808252088203e880a074ff92ee3bbf58a3cd9a8e0a2779d41e986e55621d39633edfdf6646526a6bfc88cb17ab218696c5bff862f8608001830927c094b94f5374fce5edbc8e2a8697c15331677e6ebf0b01801ba06ebb662fa6b0332ead22704d6d7b4f11f8a5e2678071327035f090a40e0ef6cea018d73c5557e1936001ce1a61a79707d317ae8da3819e34667cffb326207c7757c0",
                "transactions" : [
                    {
                        "data" : "",
                        "gasLimit" : "0x0927c0",
                        "gasPrice" : "0x01",
                        "nonce" : "0x00",
                        "r" : "0x6ebb662fa6b0332ead22704d6d7b4f11f8a5e2678071327035f090a40e0ef6ce",
                        "s" : "0x18d73c5557e1936001ce1a61a79707d317ae8da3819e34667cffb326207c7757",
                        "to" : "0xb94f5374fce5edbc8e2a8697c15331677e6ebf0b",
                        "v" : "0x1b",
                        "value" : "0x01"
                    }
                ],
                "uncleHeaders" : [
                ]
            }
        ],
        "genesisBlockHeader" : {
            "bloom" : "0x00000000000000000000000000000000000000000000000000000000000000000000000000000000000000000000000000000000000000000000000000000000000000000000000000000000000000000000000000000000000000000000000000000000000000000000000000000000000000000000000000000000000000000000000000000000000000000000000000000000000000000000000000000000000000000000000000000000000000000000000000000000000000000000000000000000000000000000000000000000000000000000000000000000000000000000000000000000000000000000000000000000000000000000000000000000",
            "coinbase" : "0x2adc25665018aa1fe0e6bc666dac8fc2697ff9ba",
            "difficulty" : "0x020000",
            "extraData" : "0x42",
            "gasLimit" : "0x989680",
            "gasUsed" : "0x00",
            "hash" : "0x35095b1590cfa9eed610b5b60904000ac9a8448da13600b40cc80c26458e7326",
            "mixHash" : "0x56e81f171bcc55a6ff8345e692c0f86e5b48e01b996cadc001622fb5e363b421",
            "nonce" : "0x0102030405060708",
            "number" : "0x00",
            "parentHash" : "0x0000000000000000000000000000000000000000000000000000000000000000",
            "receiptTrie" : "0x56e81f171bcc55a6ff8345e692c0f86e5b48e01b996cadc001622fb5e363b421",
            "stateRoot" : "0x17ca3d673553cbfcf5de4a99ea08088763bbf64aa67ae17a485f585bcc01d3f2",
            "timestamp" : "0x03b6",
            "transactionsTrie" : "0x56e81f171bcc55a6ff8345e692c0f86e5b48e01b996cadc001622fb5e363b421",
            "uncleHash" : "0x1dcc4de8dec75d7aab85b567b6ccd41ad312451b948a7413f0a142fd40d49347"
        },
        "genesisRLP" : "0xf901faf901f5a00000000000000000000000000000000000000000000000000000000000000000a01dcc4de8dec75d7aab85b567b6ccd41ad312451b948a7413f0a142fd40d49347942adc25665018aa1fe0e6bc666dac8fc2697ff9baa017ca3d673553cbfcf5de4a99ea08088763bbf64aa67ae17a485f585bcc01d3f2a056e81f171bcc55a6ff8345e692c0f86e5b48e01b996cadc001622fb5e363b421a056e81f171bcc55a6ff8345e692c0f86e5b48e01b996cadc001622fb5e363b421b9010000000000000000000000000000000000000000000000000000000000000000000000000000000000000000000000000000000000000000000000000000000000000000000000000000000000000000000000000000000000000000000000000000000000000000000000000000000000000000000000000000000000000000000000000000000000000000000000000000000000000000000000000000000000000000000000000000000000000000000000000000000000000000000000000000000000000000000000000000000000000000000000000000000000000000000000000000000000000000000000000000000000000000000000000000000000830200008083989680808203b642a056e81f171bcc55a6ff8345e692c0f86e5b48e01b996cadc001622fb5e363b421880102030405060708c0c0",
        "lastblockhash" : "0x217957e6960e3d0b62118955f3ca2108254eaa45a3b87a03d23c897a7feb0523",
        "network" : "Frontier",
        "postState" : {
            "0x2adc25665018aa1fe0e6bc666dac8fc2697ff9ba" : {
                "balance" : "0x4563918244f45208",
                "code" : "",
                "nonce" : "0x00",
                "storage" : {
                }
            },
            "0xa94f5374fce5edbc8e2a8697c15331677e6ebf0b" : {
                "balance" : "0xe8d4a4bdf7",
                "code" : "",
                "nonce" : "0x01",
                "storage" : {
                }
            },
            "0xb94f5374fce5edbc8e2a8697c15331677e6ebf0b" : {
                "balance" : "0x01",
                "code" : "",
                "nonce" : "0x00",
                "storage" : {
                }
            }
        },
        "pre" : {
            "0xa94f5374fce5edbc8e2a8697c15331677e6ebf0b" : {
                "balance" : "0xe8d4a51000",
                "code" : "",
                "nonce" : "0x00",
                "storage" : {
                }
            }
        }
    },
    "NonZeroValue_TransactionCALL_d0g0v0_Homestead" : {
        "_info" : {
            "comment" : "",
            "filledwith" : "cpp-1.3.0+commit.6e0ce939.Linux.g++",
            "lllcversion" : "Version: 0.4.18-develop.2017.9.25+commit.a72237f2.Linux.g++",
            "source" : "src/BlockchainTestsFiller/GeneralStateTests/stNonZeroCallsTest/NonZeroValue_TransactionCALL_d0g0v0Filler.json",
            "sourceHash" : "eeba1ec927ff69787fd107681eb4c07786ba5e62a22bc5426a280c2736680649"
        },
        "blocks" : [
            {
                "blockHeader" : {
                    "bloom" : "0x00000000000000000000000000000000000000000000000000000000000000000000000000000000000000000000000000000000000000000000000000000000000000000000000000000000000000000000000000000000000000000000000000000000000000000000000000000000000000000000000000000000000000000000000000000000000000000000000000000000000000000000000000000000000000000000000000000000000000000000000000000000000000000000000000000000000000000000000000000000000000000000000000000000000000000000000000000000000000000000000000000000000000000000000000000000",
                    "coinbase" : "0x2adc25665018aa1fe0e6bc666dac8fc2697ff9ba",
                    "difficulty" : "0x020000",
                    "extraData" : "",
                    "gasLimit" : "0x989680",
                    "gasUsed" : "0x5208",
                    "hash" : "0xe1662a80c1a0c27e926e98534d645e3acf3c4f396c1901334ef61c1ab19b1d4c",
                    "mixHash" : "0x16777a41ffce637ba37ba243318b034fc8f4a80d91e7d03fad48bd75bef42761",
                    "nonce" : "0xf7b0ffa28e135964",
                    "number" : "0x01",
                    "parentHash" : "0x35095b1590cfa9eed610b5b60904000ac9a8448da13600b40cc80c26458e7326",
                    "receiptTrie" : "0x87e1d226d356161259d800e82b94c09ead7ec9bf4050b4421d99e6e193377cb8",
                    "stateRoot" : "0x80f52fda7831aee0a2093998bca186fd1544872a9b9476c8f21bc9b865e1fcc2",
                    "timestamp" : "0x03e8",
                    "transactionsTrie" : "0xf24a60f7d08c1650470929f7541bbcab99de0cefd0c662a8f1e0d6e8e05f1042",
                    "uncleHash" : "0x1dcc4de8dec75d7aab85b567b6ccd41ad312451b948a7413f0a142fd40d49347"
                },
                "rlp" : "0xf9025ff901f7a035095b1590cfa9eed610b5b60904000ac9a8448da13600b40cc80c26458e7326a01dcc4de8dec75d7aab85b567b6ccd41ad312451b948a7413f0a142fd40d49347942adc25665018aa1fe0e6bc666dac8fc2697ff9baa080f52fda7831aee0a2093998bca186fd1544872a9b9476c8f21bc9b865e1fcc2a0f24a60f7d08c1650470929f7541bbcab99de0cefd0c662a8f1e0d6e8e05f1042a087e1d226d356161259d800e82b94c09ead7ec9bf4050b4421d99e6e193377cb8b90100000000000000000000000000000000000000000000000000000000000000000000000000000000000000000000000000000000000000000000000000000000000000000000000000000000000000000000000000000000000000000000000000000000000000000000000000000000000000000000000000000000000000000000000000000000000000000000000000000000000000000000000000000000000000000000000000000000000000000000000000000000000000000000000000000000000000000000000000000000000000000000000000000000000000000000000000000000000000000000000000000000000000000000000000000000008302000001839896808252088203e880a016777a41ffce637ba37ba243318b034fc8f4a80d91e7d03fad48bd75bef4276188f7b0ffa28e135964f862f8608001830927c094b94f5374fce5edbc8e2a8697c15331677e6ebf0b01801ba06ebb662fa6b0332ead22704d6d7b4f11f8a5e2678071327035f090a40e0ef6cea018d73c5557e1936001ce1a61a79707d317ae8da3819e34667cffb326207c7757c0",
                "transactions" : [
                    {
                        "data" : "",
                        "gasLimit" : "0x0927c0",
                        "gasPrice" : "0x01",
                        "nonce" : "0x00",
                        "r" : "0x6ebb662fa6b0332ead22704d6d7b4f11f8a5e2678071327035f090a40e0ef6ce",
                        "s" : "0x18d73c5557e1936001ce1a61a79707d317ae8da3819e34667cffb326207c7757",
                        "to" : "0xb94f5374fce5edbc8e2a8697c15331677e6ebf0b",
                        "v" : "0x1b",
                        "value" : "0x01"
                    }
                ],
                "uncleHeaders" : [
                ]
            }
        ],
        "genesisBlockHeader" : {
            "bloom" : "0x00000000000000000000000000000000000000000000000000000000000000000000000000000000000000000000000000000000000000000000000000000000000000000000000000000000000000000000000000000000000000000000000000000000000000000000000000000000000000000000000000000000000000000000000000000000000000000000000000000000000000000000000000000000000000000000000000000000000000000000000000000000000000000000000000000000000000000000000000000000000000000000000000000000000000000000000000000000000000000000000000000000000000000000000000000000",
            "coinbase" : "0x2adc25665018aa1fe0e6bc666dac8fc2697ff9ba",
            "difficulty" : "0x020000",
            "extraData" : "0x42",
            "gasLimit" : "0x989680",
            "gasUsed" : "0x00",
            "hash" : "0x35095b1590cfa9eed610b5b60904000ac9a8448da13600b40cc80c26458e7326",
            "mixHash" : "0x56e81f171bcc55a6ff8345e692c0f86e5b48e01b996cadc001622fb5e363b421",
            "nonce" : "0x0102030405060708",
            "number" : "0x00",
            "parentHash" : "0x0000000000000000000000000000000000000000000000000000000000000000",
            "receiptTrie" : "0x56e81f171bcc55a6ff8345e692c0f86e5b48e01b996cadc001622fb5e363b421",
            "stateRoot" : "0x17ca3d673553cbfcf5de4a99ea08088763bbf64aa67ae17a485f585bcc01d3f2",
            "timestamp" : "0x03b6",
            "transactionsTrie" : "0x56e81f171bcc55a6ff8345e692c0f86e5b48e01b996cadc001622fb5e363b421",
            "uncleHash" : "0x1dcc4de8dec75d7aab85b567b6ccd41ad312451b948a7413f0a142fd40d49347"
        },
        "genesisRLP" : "0xf901faf901f5a00000000000000000000000000000000000000000000000000000000000000000a01dcc4de8dec75d7aab85b567b6ccd41ad312451b948a7413f0a142fd40d49347942adc25665018aa1fe0e6bc666dac8fc2697ff9baa017ca3d673553cbfcf5de4a99ea08088763bbf64aa67ae17a485f585bcc01d3f2a056e81f171bcc55a6ff8345e692c0f86e5b48e01b996cadc001622fb5e363b421a056e81f171bcc55a6ff8345e692c0f86e5b48e01b996cadc001622fb5e363b421b9010000000000000000000000000000000000000000000000000000000000000000000000000000000000000000000000000000000000000000000000000000000000000000000000000000000000000000000000000000000000000000000000000000000000000000000000000000000000000000000000000000000000000000000000000000000000000000000000000000000000000000000000000000000000000000000000000000000000000000000000000000000000000000000000000000000000000000000000000000000000000000000000000000000000000000000000000000000000000000000000000000000000000000000000000000000000830200008083989680808203b642a056e81f171bcc55a6ff8345e692c0f86e5b48e01b996cadc001622fb5e363b421880102030405060708c0c0",
        "lastblockhash" : "0xe1662a80c1a0c27e926e98534d645e3acf3c4f396c1901334ef61c1ab19b1d4c",
        "network" : "Homestead",
        "postState" : {
            "0x2adc25665018aa1fe0e6bc666dac8fc2697ff9ba" : {
                "balance" : "0x4563918244f45208",
                "code" : "",
                "nonce" : "0x00",
                "storage" : {
                }
            },
            "0xa94f5374fce5edbc8e2a8697c15331677e6ebf0b" : {
                "balance" : "0xe8d4a4bdf7",
                "code" : "",
                "nonce" : "0x01",
                "storage" : {
                }
            },
            "0xb94f5374fce5edbc8e2a8697c15331677e6ebf0b" : {
                "balance" : "0x01",
                "code" : "",
                "nonce" : "0x00",
                "storage" : {
                }
            }
        },
        "pre" : {
            "0xa94f5374fce5edbc8e2a8697c15331677e6ebf0b" : {
                "balance" : "0xe8d4a51000",
                "code" : "",
                "nonce" : "0x00",
                "storage" : {
                }
            }
        }
    }
}