{
    "callOutput3partialFail_d0g1v0_Byzantium" : {
        "_info" : {
            "comment" : "",
            "filledwith" : "cpp-1.3.0+commit.6e0ce939.Linux.g++",
            "lllcversion" : "Version: 0.4.18-develop.2017.9.25+commit.a72237f2.Linux.g++",
            "source" : "src/BlockchainTestsFiller/GeneralStateTests/stDelegatecallTestHomestead/callOutput3partialFail_d0g1v0Filler.json",
            "sourceHash" : "3f5291829e642152732381f70001f1d8674c648d941f7861e489e65eb283c4bc"
        },
        "blocks" : [
            {
                "blockHeader" : {
                    "bloom" : "0x00000000000000000000000000000000000000000000000000000000000000000000000000000000000000000000000000000000000000000000000000000000000000000000000000000000000000000000000000000000000000000000000000000000000000000000000000000000000000000000000000000000000000000000000000000000000000000000000000000000000000000000000000000000000000000000000000000000000000000000000000000000000000000000000000000000000000000000000000000000000000000000000000000000000000000000000000000000000000000000000000000000000000000000000000000000",
                    "coinbase" : "0x2adc25665018aa1fe0e6bc666dac8fc2697ff9ba",
                    "difficulty" : "0x020000",
                    "extraData" : "",
                    "gasLimit" : "0x0f4240",
                    "gasUsed" : "0x01665d",
                    "hash" : "0x4ad8102e8904e11dd5657f97f3d9109678673df4a0d2b6d669d264194627e969",
                    "mixHash" : "0xcd43438527657802ce76cd83e5536c91eba8843808c7d9c81737c9d2f6c5b147",
                    "nonce" : "0x9d7e8abdfc609977",
                    "number" : "0x01",
                    "parentHash" : "0x8a2b03034de510dfa237c7742088f5c07ddf4ded38a7f54f49e62cf780400f59",
                    "receiptTrie" : "0x835e171b6c8add0df6184b14ee2e55bba46f28763729bfcdf37e6119e584a834",
                    "stateRoot" : "0x64f6c7dc5dc0bbe41900673e806843a37451e8ac0e022903511f8f467733579a",
                    "timestamp" : "0x03e8",
                    "transactionsTrie" : "0xafadb40fdc167bd49a94e105dec7cc27af9ddfbc855affa7d15072d7c93d89a2",
                    "uncleHash" : "0x1dcc4de8dec75d7aab85b567b6ccd41ad312451b948a7413f0a142fd40d49347"
                },
                "rlp" : "0xf90263f901f8a08a2b03034de510dfa237c7742088f5c07ddf4ded38a7f54f49e62cf780400f59a01dcc4de8dec75d7aab85b567b6ccd41ad312451b948a7413f0a142fd40d49347942adc25665018aa1fe0e6bc666dac8fc2697ff9baa064f6c7dc5dc0bbe41900673e806843a37451e8ac0e022903511f8f467733579aa0afadb40fdc167bd49a94e105dec7cc27af9ddfbc855affa7d15072d7c93d89a2a0835e171b6c8add0df6184b14ee2e55bba46f28763729bfcdf37e6119e584a834b90100000000000000000000000000000000000000000000000000000000000000000000000000000000000000000000000000000000000000000000000000000000000000000000000000000000000000000000000000000000000000000000000000000000000000000000000000000000000000000000000000000000000000000000000000000000000000000000000000000000000000000000000000000000000000000000000000000000000000000000000000000000000000000000000000000000000000000000000000000000000000000000000000000000000000000000000000000000000000000000000000000000000000000000000000000000008302000001830f42408301665d8203e880a0cd43438527657802ce76cd83e5536c91eba8843808c7d9c81737c9d2f6c5b147889d7e8abdfc609977f865f8638080830dbba094095e7baea6a6c7c4c2dfeb977efac326af552d87830186a0801ba0a454127f0a7efbc07c27b65a9bd76ebf8189d032a43b7a8f81327c2371ad79f1a055bd50638e18dafa3a23707e89dbe830f00f109e771774bb5db2c7b44be2277ec0",
                "transactions" : [
                    {
                        "data" : "",
                        "gasLimit" : "0x0dbba0",
                        "gasPrice" : "0x00",
                        "nonce" : "0x00",
                        "r" : "0xa454127f0a7efbc07c27b65a9bd76ebf8189d032a43b7a8f81327c2371ad79f1",
                        "s" : "0x55bd50638e18dafa3a23707e89dbe830f00f109e771774bb5db2c7b44be2277e",
                        "to" : "0x095e7baea6a6c7c4c2dfeb977efac326af552d87",
                        "v" : "0x1b",
                        "value" : "0x0186a0"
                    }
                ],
                "uncleHeaders" : [
                ]
            }
        ],
        "genesisBlockHeader" : {
            "bloom" : "0x00000000000000000000000000000000000000000000000000000000000000000000000000000000000000000000000000000000000000000000000000000000000000000000000000000000000000000000000000000000000000000000000000000000000000000000000000000000000000000000000000000000000000000000000000000000000000000000000000000000000000000000000000000000000000000000000000000000000000000000000000000000000000000000000000000000000000000000000000000000000000000000000000000000000000000000000000000000000000000000000000000000000000000000000000000000",
            "coinbase" : "0x2adc25665018aa1fe0e6bc666dac8fc2697ff9ba",
            "difficulty" : "0x020000",
            "extraData" : "0x42",
            "gasLimit" : "0x0f4240",
            "gasUsed" : "0x00",
            "hash" : "0x8a2b03034de510dfa237c7742088f5c07ddf4ded38a7f54f49e62cf780400f59",
            "mixHash" : "0x56e81f171bcc55a6ff8345e692c0f86e5b48e01b996cadc001622fb5e363b421",
            "nonce" : "0x0102030405060708",
            "number" : "0x00",
            "parentHash" : "0x0000000000000000000000000000000000000000000000000000000000000000",
            "receiptTrie" : "0x56e81f171bcc55a6ff8345e692c0f86e5b48e01b996cadc001622fb5e363b421",
            "stateRoot" : "0xc02b6bdc3bd48cd6a29272b00bfc73a63aeba61bb3096360c716987ee9e8cb19",
            "timestamp" : "0x03b6",
            "transactionsTrie" : "0x56e81f171bcc55a6ff8345e692c0f86e5b48e01b996cadc001622fb5e363b421",
            "uncleHash" : "0x1dcc4de8dec75d7aab85b567b6ccd41ad312451b948a7413f0a142fd40d49347"
        },
        "genesisRLP" : "0xf901faf901f5a00000000000000000000000000000000000000000000000000000000000000000a01dcc4de8dec75d7aab85b567b6ccd41ad312451b948a7413f0a142fd40d49347942adc25665018aa1fe0e6bc666dac8fc2697ff9baa0c02b6bdc3bd48cd6a29272b00bfc73a63aeba61bb3096360c716987ee9e8cb19a056e81f171bcc55a6ff8345e692c0f86e5b48e01b996cadc001622fb5e363b421a056e81f171bcc55a6ff8345e692c0f86e5b48e01b996cadc001622fb5e363b421b90100000000000000000000000000000000000000000000000000000000000000000000000000000000000000000000000000000000000000000000000000000000000000000000000000000000000000000000000000000000000000000000000000000000000000000000000000000000000000000000000000000000000000000000000000000000000000000000000000000000000000000000000000000000000000000000000000000000000000000000000000000000000000000000000000000000000000000000000000000000000000000000000000000000000000000000000000000000000000000000000000000000000000000000000000000000008302000080830f4240808203b642a056e81f171bcc55a6ff8345e692c0f86e5b48e01b996cadc001622fb5e363b421880102030405060708c0c0",
        "lastblockhash" : "0x4ad8102e8904e11dd5657f97f3d9109678673df4a0d2b6d669d264194627e969",
        "network" : "Byzantium",
        "postState" : {
            "0x095e7baea6a6c7c4c2dfeb977efac326af552d87" : {
                "balance" : "0x0de0b6b3a76586a0",
                "code" : "0x7f5e20a0453cecd065ea59c37ac63e079ee08998b6045136a8ce6635c7912ec0b6600052600a60006000600073aaae7baea6a6c7c4c2dfeb977efac326af552d8761c350f450600051600055",
                "nonce" : "0x00",
                "storage" : {
                    "0x00" : "0x5e20a0453cecd065ea59c37ac63e079ee08998b6045136a8ce6635c7912ec0b6"
                }
            },
            "0x2adc25665018aa1fe0e6bc666dac8fc2697ff9ba" : {
                "balance" : "0x29a2241af62c0000",
                "code" : "",
                "nonce" : "0x00",
                "storage" : {
                }
            },
            "0xa94f5374fce5edbc8e2a8697c15331677e6ebf0b" : {
                "balance" : "0x0de0b6b3a7627960",
                "code" : "",
                "nonce" : "0x01",
                "storage" : {
                }
            },
            "0xaaae7baea6a6c7c4c2dfeb977efac326af552d87" : {
                "balance" : "0x0de0b6b3a7640000",
                "code" : "0x016001600101600055",
                "nonce" : "0x00",
                "storage" : {
                }
            }
        },
        "pre" : {
            "0x095e7baea6a6c7c4c2dfeb977efac326af552d87" : {
                "balance" : "0x0de0b6b3a7640000",
                "code" : "0x7f5e20a0453cecd065ea59c37ac63e079ee08998b6045136a8ce6635c7912ec0b6600052600a60006000600073aaae7baea6a6c7c4c2dfeb977efac326af552d8761c350f450600051600055",
                "nonce" : "0x00",
                "storage" : {
                }
            },
            "0xa94f5374fce5edbc8e2a8697c15331677e6ebf0b" : {
                "balance" : "0x0de0b6b3a7640000",
                "code" : "",
                "nonce" : "0x00",
                "storage" : {
                }
            },
            "0xaaae7baea6a6c7c4c2dfeb977efac326af552d87" : {
                "balance" : "0x0de0b6b3a7640000",
                "code" : "0x016001600101600055",
                "nonce" : "0x00",
                "storage" : {
                }
            }
        }
    },
    "callOutput3partialFail_d0g1v0_EIP150" : {
        "_info" : {
            "comment" : "",
            "filledwith" : "cpp-1.3.0+commit.6e0ce939.Linux.g++",
            "lllcversion" : "Version: 0.4.18-develop.2017.9.25+commit.a72237f2.Linux.g++",
            "source" : "src/BlockchainTestsFiller/GeneralStateTests/stDelegatecallTestHomestead/callOutput3partialFail_d0g1v0Filler.json",
            "sourceHash" : "3f5291829e642152732381f70001f1d8674c648d941f7861e489e65eb283c4bc"
        },
        "blocks" : [
            {
                "blockHeader" : {
                    "bloom" : "0x00000000000000000000000000000000000000000000000000000000000000000000000000000000000000000000000000000000000000000000000000000000000000000000000000000000000000000000000000000000000000000000000000000000000000000000000000000000000000000000000000000000000000000000000000000000000000000000000000000000000000000000000000000000000000000000000000000000000000000000000000000000000000000000000000000000000000000000000000000000000000000000000000000000000000000000000000000000000000000000000000000000000000000000000000000000",
                    "coinbase" : "0x2adc25665018aa1fe0e6bc666dac8fc2697ff9ba",
                    "difficulty" : "0x020000",
                    "extraData" : "",
                    "gasLimit" : "0x0f4240",
                    "gasUsed" : "0x01665d",
                    "hash" : "0x4ac555427daf537b98c253aedf5598aa301f3073833c40c5d2e89ee1977e4731",
                    "mixHash" : "0x2408b7241b76c0f976edc724197f685cf0addb71463969d05daa091c1ef8284c",
                    "nonce" : "0x077df9e76f3a8d68",
                    "number" : "0x01",
                    "parentHash" : "0x8a2b03034de510dfa237c7742088f5c07ddf4ded38a7f54f49e62cf780400f59",
                    "receiptTrie" : "0x7e6328289be6e600d9730650482352fe9c48b0bc504d0bd7332a3d1bd8198d92",
                    "stateRoot" : "0x470e2d70220b848914748f3fed21434129cec6f3c19c17e32927bc609d3fa290",
                    "timestamp" : "0x03e8",
                    "transactionsTrie" : "0xafadb40fdc167bd49a94e105dec7cc27af9ddfbc855affa7d15072d7c93d89a2",
                    "uncleHash" : "0x1dcc4de8dec75d7aab85b567b6ccd41ad312451b948a7413f0a142fd40d49347"
                },
                "rlp" : "0xf90263f901f8a08a2b03034de510dfa237c7742088f5c07ddf4ded38a7f54f49e62cf780400f59a01dcc4de8dec75d7aab85b567b6ccd41ad312451b948a7413f0a142fd40d49347942adc25665018aa1fe0e6bc666dac8fc2697ff9baa0470e2d70220b848914748f3fed21434129cec6f3c19c17e32927bc609d3fa290a0afadb40fdc167bd49a94e105dec7cc27af9ddfbc855affa7d15072d7c93d89a2a07e6328289be6e600d9730650482352fe9c48b0bc504d0bd7332a3d1bd8198d92b90100000000000000000000000000000000000000000000000000000000000000000000000000000000000000000000000000000000000000000000000000000000000000000000000000000000000000000000000000000000000000000000000000000000000000000000000000000000000000000000000000000000000000000000000000000000000000000000000000000000000000000000000000000000000000000000000000000000000000000000000000000000000000000000000000000000000000000000000000000000000000000000000000000000000000000000000000000000000000000000000000000000000000000000000000000000008302000001830f42408301665d8203e880a02408b7241b76c0f976edc724197f685cf0addb71463969d05daa091c1ef8284c88077df9e76f3a8d68f865f8638080830dbba094095e7baea6a6c7c4c2dfeb977efac326af552d87830186a0801ba0a454127f0a7efbc07c27b65a9bd76ebf8189d032a43b7a8f81327c2371ad79f1a055bd50638e18dafa3a23707e89dbe830f00f109e771774bb5db2c7b44be2277ec0",
                "transactions" : [
                    {
                        "data" : "",
                        "gasLimit" : "0x0dbba0",
                        "gasPrice" : "0x00",
                        "nonce" : "0x00",
                        "r" : "0xa454127f0a7efbc07c27b65a9bd76ebf8189d032a43b7a8f81327c2371ad79f1",
                        "s" : "0x55bd50638e18dafa3a23707e89dbe830f00f109e771774bb5db2c7b44be2277e",
                        "to" : "0x095e7baea6a6c7c4c2dfeb977efac326af552d87",
                        "v" : "0x1b",
                        "value" : "0x0186a0"
                    }
                ],
                "uncleHeaders" : [
                ]
            }
        ],
        "genesisBlockHeader" : {
            "bloom" : "0x00000000000000000000000000000000000000000000000000000000000000000000000000000000000000000000000000000000000000000000000000000000000000000000000000000000000000000000000000000000000000000000000000000000000000000000000000000000000000000000000000000000000000000000000000000000000000000000000000000000000000000000000000000000000000000000000000000000000000000000000000000000000000000000000000000000000000000000000000000000000000000000000000000000000000000000000000000000000000000000000000000000000000000000000000000000",
            "coinbase" : "0x2adc25665018aa1fe0e6bc666dac8fc2697ff9ba",
            "difficulty" : "0x020000",
            "extraData" : "0x42",
            "gasLimit" : "0x0f4240",
            "gasUsed" : "0x00",
            "hash" : "0x8a2b03034de510dfa237c7742088f5c07ddf4ded38a7f54f49e62cf780400f59",
            "mixHash" : "0x56e81f171bcc55a6ff8345e692c0f86e5b48e01b996cadc001622fb5e363b421",
            "nonce" : "0x0102030405060708",
            "number" : "0x00",
            "parentHash" : "0x0000000000000000000000000000000000000000000000000000000000000000",
            "receiptTrie" : "0x56e81f171bcc55a6ff8345e692c0f86e5b48e01b996cadc001622fb5e363b421",
            "stateRoot" : "0xc02b6bdc3bd48cd6a29272b00bfc73a63aeba61bb3096360c716987ee9e8cb19",
            "timestamp" : "0x03b6",
            "transactionsTrie" : "0x56e81f171bcc55a6ff8345e692c0f86e5b48e01b996cadc001622fb5e363b421",
            "uncleHash" : "0x1dcc4de8dec75d7aab85b567b6ccd41ad312451b948a7413f0a142fd40d49347"
        },
        "genesisRLP" : "0xf901faf901f5a00000000000000000000000000000000000000000000000000000000000000000a01dcc4de8dec75d7aab85b567b6ccd41ad312451b948a7413f0a142fd40d49347942adc25665018aa1fe0e6bc666dac8fc2697ff9baa0c02b6bdc3bd48cd6a29272b00bfc73a63aeba61bb3096360c716987ee9e8cb19a056e81f171bcc55a6ff8345e692c0f86e5b48e01b996cadc001622fb5e363b421a056e81f171bcc55a6ff8345e692c0f86e5b48e01b996cadc001622fb5e363b421b90100000000000000000000000000000000000000000000000000000000000000000000000000000000000000000000000000000000000000000000000000000000000000000000000000000000000000000000000000000000000000000000000000000000000000000000000000000000000000000000000000000000000000000000000000000000000000000000000000000000000000000000000000000000000000000000000000000000000000000000000000000000000000000000000000000000000000000000000000000000000000000000000000000000000000000000000000000000000000000000000000000000000000000000000000000000008302000080830f4240808203b642a056e81f171bcc55a6ff8345e692c0f86e5b48e01b996cadc001622fb5e363b421880102030405060708c0c0",
        "lastblockhash" : "0x4ac555427daf537b98c253aedf5598aa301f3073833c40c5d2e89ee1977e4731",
        "network" : "EIP150",
        "postState" : {
            "0x095e7baea6a6c7c4c2dfeb977efac326af552d87" : {
                "balance" : "0x0de0b6b3a76586a0",
                "code" : "0x7f5e20a0453cecd065ea59c37ac63e079ee08998b6045136a8ce6635c7912ec0b6600052600a60006000600073aaae7baea6a6c7c4c2dfeb977efac326af552d8761c350f450600051600055",
                "nonce" : "0x00",
                "storage" : {
                    "0x00" : "0x5e20a0453cecd065ea59c37ac63e079ee08998b6045136a8ce6635c7912ec0b6"
                }
            },
            "0x2adc25665018aa1fe0e6bc666dac8fc2697ff9ba" : {
                "balance" : "0x4563918244f40000",
                "code" : "",
                "nonce" : "0x00",
                "storage" : {
                }
            },
            "0xa94f5374fce5edbc8e2a8697c15331677e6ebf0b" : {
                "balance" : "0x0de0b6b3a7627960",
                "code" : "",
                "nonce" : "0x01",
                "storage" : {
                }
            },
            "0xaaae7baea6a6c7c4c2dfeb977efac326af552d87" : {
                "balance" : "0x0de0b6b3a7640000",
                "code" : "0x016001600101600055",
                "nonce" : "0x00",
                "storage" : {
                }
            }
        },
        "pre" : {
            "0x095e7baea6a6c7c4c2dfeb977efac326af552d87" : {
                "balance" : "0x0de0b6b3a7640000",
                "code" : "0x7f5e20a0453cecd065ea59c37ac63e079ee08998b6045136a8ce6635c7912ec0b6600052600a60006000600073aaae7baea6a6c7c4c2dfeb977efac326af552d8761c350f450600051600055",
                "nonce" : "0x00",
                "storage" : {
                }
            },
            "0xa94f5374fce5edbc8e2a8697c15331677e6ebf0b" : {
                "balance" : "0x0de0b6b3a7640000",
                "code" : "",
                "nonce" : "0x00",
                "storage" : {
                }
            },
            "0xaaae7baea6a6c7c4c2dfeb977efac326af552d87" : {
                "balance" : "0x0de0b6b3a7640000",
                "code" : "0x016001600101600055",
                "nonce" : "0x00",
                "storage" : {
                }
            }
        }
    },
    "callOutput3partialFail_d0g1v0_EIP158" : {
        "_info" : {
            "comment" : "",
            "filledwith" : "cpp-1.3.0+commit.6e0ce939.Linux.g++",
            "lllcversion" : "Version: 0.4.18-develop.2017.9.25+commit.a72237f2.Linux.g++",
            "source" : "src/BlockchainTestsFiller/GeneralStateTests/stDelegatecallTestHomestead/callOutput3partialFail_d0g1v0Filler.json",
            "sourceHash" : "3f5291829e642152732381f70001f1d8674c648d941f7861e489e65eb283c4bc"
        },
        "blocks" : [
            {
                "blockHeader" : {
                    "bloom" : "0x00000000000000000000000000000000000000000000000000000000000000000000000000000000000000000000000000000000000000000000000000000000000000000000000000000000000000000000000000000000000000000000000000000000000000000000000000000000000000000000000000000000000000000000000000000000000000000000000000000000000000000000000000000000000000000000000000000000000000000000000000000000000000000000000000000000000000000000000000000000000000000000000000000000000000000000000000000000000000000000000000000000000000000000000000000000",
                    "coinbase" : "0x2adc25665018aa1fe0e6bc666dac8fc2697ff9ba",
                    "difficulty" : "0x020000",
                    "extraData" : "",
                    "gasLimit" : "0x0f4240",
                    "gasUsed" : "0x01665d",
                    "hash" : "0x65e4e52cd95c9cc008e8f1c1d3aedc3816d453f95552dc386eec08f02d58281d",
                    "mixHash" : "0xeab88fbc23018ee72dff27132dba701e6bf98847d25c23b96e4b2249c6b2e5a8",
                    "nonce" : "0x2494373907d64a62",
                    "number" : "0x01",
                    "parentHash" : "0x8a2b03034de510dfa237c7742088f5c07ddf4ded38a7f54f49e62cf780400f59",
                    "receiptTrie" : "0x36fe85837ed3a4b5654a17745d99463d7c27c94a1a6e7f51e4abcd3d3e0eec7b",
                    "stateRoot" : "0x470e2d70220b848914748f3fed21434129cec6f3c19c17e32927bc609d3fa290",
                    "timestamp" : "0x03e8",
                    "transactionsTrie" : "0xafadb40fdc167bd49a94e105dec7cc27af9ddfbc855affa7d15072d7c93d89a2",
                    "uncleHash" : "0x1dcc4de8dec75d7aab85b567b6ccd41ad312451b948a7413f0a142fd40d49347"
                },
                "rlp" : "0xf90263f901f8a08a2b03034de510dfa237c7742088f5c07ddf4ded38a7f54f49e62cf780400f59a01dcc4de8dec75d7aab85b567b6ccd41ad312451b948a7413f0a142fd40d49347942adc25665018aa1fe0e6bc666dac8fc2697ff9baa0470e2d70220b848914748f3fed21434129cec6f3c19c17e32927bc609d3fa290a0afadb40fdc167bd49a94e105dec7cc27af9ddfbc855affa7d15072d7c93d89a2a036fe85837ed3a4b5654a17745d99463d7c27c94a1a6e7f51e4abcd3d3e0eec7bb90100000000000000000000000000000000000000000000000000000000000000000000000000000000000000000000000000000000000000000000000000000000000000000000000000000000000000000000000000000000000000000000000000000000000000000000000000000000000000000000000000000000000000000000000000000000000000000000000000000000000000000000000000000000000000000000000000000000000000000000000000000000000000000000000000000000000000000000000000000000000000000000000000000000000000000000000000000000000000000000000000000000000000000000000000000000008302000001830f42408301665d8203e880a0eab88fbc23018ee72dff27132dba701e6bf98847d25c23b96e4b2249c6b2e5a8882494373907d64a62f865f8638080830dbba094095e7baea6a6c7c4c2dfeb977efac326af552d87830186a0801ba0a454127f0a7efbc07c27b65a9bd76ebf8189d032a43b7a8f81327c2371ad79f1a055bd50638e18dafa3a23707e89dbe830f00f109e771774bb5db2c7b44be2277ec0",
                "transactions" : [
                    {
                        "data" : "",
                        "gasLimit" : "0x0dbba0",
                        "gasPrice" : "0x00",
                        "nonce" : "0x00",
                        "r" : "0xa454127f0a7efbc07c27b65a9bd76ebf8189d032a43b7a8f81327c2371ad79f1",
                        "s" : "0x55bd50638e18dafa3a23707e89dbe830f00f109e771774bb5db2c7b44be2277e",
                        "to" : "0x095e7baea6a6c7c4c2dfeb977efac326af552d87",
                        "v" : "0x1b",
                        "value" : "0x0186a0"
                    }
                ],
                "uncleHeaders" : [
                ]
            }
        ],
        "genesisBlockHeader" : {
            "bloom" : "0x00000000000000000000000000000000000000000000000000000000000000000000000000000000000000000000000000000000000000000000000000000000000000000000000000000000000000000000000000000000000000000000000000000000000000000000000000000000000000000000000000000000000000000000000000000000000000000000000000000000000000000000000000000000000000000000000000000000000000000000000000000000000000000000000000000000000000000000000000000000000000000000000000000000000000000000000000000000000000000000000000000000000000000000000000000000",
            "coinbase" : "0x2adc25665018aa1fe0e6bc666dac8fc2697ff9ba",
            "difficulty" : "0x020000",
            "extraData" : "0x42",
            "gasLimit" : "0x0f4240",
            "gasUsed" : "0x00",
            "hash" : "0x8a2b03034de510dfa237c7742088f5c07ddf4ded38a7f54f49e62cf780400f59",
            "mixHash" : "0x56e81f171bcc55a6ff8345e692c0f86e5b48e01b996cadc001622fb5e363b421",
            "nonce" : "0x0102030405060708",
            "number" : "0x00",
            "parentHash" : "0x0000000000000000000000000000000000000000000000000000000000000000",
            "receiptTrie" : "0x56e81f171bcc55a6ff8345e692c0f86e5b48e01b996cadc001622fb5e363b421",
            "stateRoot" : "0xc02b6bdc3bd48cd6a29272b00bfc73a63aeba61bb3096360c716987ee9e8cb19",
            "timestamp" : "0x03b6",
            "transactionsTrie" : "0x56e81f171bcc55a6ff8345e692c0f86e5b48e01b996cadc001622fb5e363b421",
            "uncleHash" : "0x1dcc4de8dec75d7aab85b567b6ccd41ad312451b948a7413f0a142fd40d49347"
        },
        "genesisRLP" : "0xf901faf901f5a00000000000000000000000000000000000000000000000000000000000000000a01dcc4de8dec75d7aab85b567b6ccd41ad312451b948a7413f0a142fd40d49347942adc25665018aa1fe0e6bc666dac8fc2697ff9baa0c02b6bdc3bd48cd6a29272b00bfc73a63aeba61bb3096360c716987ee9e8cb19a056e81f171bcc55a6ff8345e692c0f86e5b48e01b996cadc001622fb5e363b421a056e81f171bcc55a6ff8345e692c0f86e5b48e01b996cadc001622fb5e363b421b90100000000000000000000000000000000000000000000000000000000000000000000000000000000000000000000000000000000000000000000000000000000000000000000000000000000000000000000000000000000000000000000000000000000000000000000000000000000000000000000000000000000000000000000000000000000000000000000000000000000000000000000000000000000000000000000000000000000000000000000000000000000000000000000000000000000000000000000000000000000000000000000000000000000000000000000000000000000000000000000000000000000000000000000000000000000008302000080830f4240808203b642a056e81f171bcc55a6ff8345e692c0f86e5b48e01b996cadc001622fb5e363b421880102030405060708c0c0",
        "lastblockhash" : "0x65e4e52cd95c9cc008e8f1c1d3aedc3816d453f95552dc386eec08f02d58281d",
        "network" : "EIP158",
        "postState" : {
            "0x095e7baea6a6c7c4c2dfeb977efac326af552d87" : {
                "balance" : "0x0de0b6b3a76586a0",
                "code" : "0x7f5e20a0453cecd065ea59c37ac63e079ee08998b6045136a8ce6635c7912ec0b6600052600a60006000600073aaae7baea6a6c7c4c2dfeb977efac326af552d8761c350f450600051600055",
                "nonce" : "0x00",
                "storage" : {
                    "0x00" : "0x5e20a0453cecd065ea59c37ac63e079ee08998b6045136a8ce6635c7912ec0b6"
                }
            },
            "0x2adc25665018aa1fe0e6bc666dac8fc2697ff9ba" : {
                "balance" : "0x4563918244f40000",
                "code" : "",
                "nonce" : "0x00",
                "storage" : {
                }
            },
            "0xa94f5374fce5edbc8e2a8697c15331677e6ebf0b" : {
                "balance" : "0x0de0b6b3a7627960",
                "code" : "",
                "nonce" : "0x01",
                "storage" : {
                }
            },
            "0xaaae7baea6a6c7c4c2dfeb977efac326af552d87" : {
                "balance" : "0x0de0b6b3a7640000",
                "code" : "0x016001600101600055",
                "nonce" : "0x00",
                "storage" : {
                }
            }
        },
        "pre" : {
            "0x095e7baea6a6c7c4c2dfeb977efac326af552d87" : {
                "balance" : "0x0de0b6b3a7640000",
                "code" : "0x7f5e20a0453cecd065ea59c37ac63e079ee08998b6045136a8ce6635c7912ec0b6600052600a60006000600073aaae7baea6a6c7c4c2dfeb977efac326af552d8761c350f450600051600055",
                "nonce" : "0x00",
                "storage" : {
                }
            },
            "0xa94f5374fce5edbc8e2a8697c15331677e6ebf0b" : {
                "balance" : "0x0de0b6b3a7640000",
                "code" : "",
                "nonce" : "0x00",
                "storage" : {
                }
            },
            "0xaaae7baea6a6c7c4c2dfeb977efac326af552d87" : {
                "balance" : "0x0de0b6b3a7640000",
                "code" : "0x016001600101600055",
                "nonce" : "0x00",
                "storage" : {
                }
            }
        }
    },
    "callOutput3partialFail_d0g1v0_Frontier" : {
        "_info" : {
            "comment" : "",
            "filledwith" : "cpp-1.3.0+commit.6e0ce939.Linux.g++",
            "lllcversion" : "Version: 0.4.18-develop.2017.9.25+commit.a72237f2.Linux.g++",
            "source" : "src/BlockchainTestsFiller/GeneralStateTests/stDelegatecallTestHomestead/callOutput3partialFail_d0g1v0Filler.json",
            "sourceHash" : "3f5291829e642152732381f70001f1d8674c648d941f7861e489e65eb283c4bc"
        },
        "blocks" : [
            {
                "blockHeader" : {
                    "bloom" : "0x00000000000000000000000000000000000000000000000000000000000000000000000000000000000000000000000000000000000000000000000000000000000000000000000000000000000000000000000000000000000000000000000000000000000000000000000000000000000000000000000000000000000000000000000000000000000000000000000000000000000000000000000000000000000000000000000000000000000000000000000000000000000000000000000000000000000000000000000000000000000000000000000000000000000000000000000000000000000000000000000000000000000000000000000000000000",
                    "coinbase" : "0x2adc25665018aa1fe0e6bc666dac8fc2697ff9ba",
                    "difficulty" : "0x020000",
                    "extraData" : "",
                    "gasLimit" : "0x0f4240",
                    "gasUsed" : "0x0dbba0",
                    "hash" : "0x4df11645edb7b78f766bc951e4ee2408366470e8053b73b05e0366816fc51bda",
                    "mixHash" : "0x2845ee2535e27e957bc020a688923f5d2931fb5a05b5ec4935bddb5b92366e0f",
                    "nonce" : "0xa00c2597d842ce2c",
                    "number" : "0x01",
                    "parentHash" : "0x8a2b03034de510dfa237c7742088f5c07ddf4ded38a7f54f49e62cf780400f59",
                    "receiptTrie" : "0x7693cb5d09cbcd5596e3dfc3cca7c62c8c5b6aefb20c3007811eab600f7471ff",
                    "stateRoot" : "0xf28b5fbd9331c485dc469c58d550dd0c7ada6468594e7aa47b35b9ab8127c382",
                    "timestamp" : "0x03e8",
                    "transactionsTrie" : "0xafadb40fdc167bd49a94e105dec7cc27af9ddfbc855affa7d15072d7c93d89a2",
                    "uncleHash" : "0x1dcc4de8dec75d7aab85b567b6ccd41ad312451b948a7413f0a142fd40d49347"
                },
                "rlp" : "0xf90263f901f8a08a2b03034de510dfa237c7742088f5c07ddf4ded38a7f54f49e62cf780400f59a01dcc4de8dec75d7aab85b567b6ccd41ad312451b948a7413f0a142fd40d49347942adc25665018aa1fe0e6bc666dac8fc2697ff9baa0f28b5fbd9331c485dc469c58d550dd0c7ada6468594e7aa47b35b9ab8127c382a0afadb40fdc167bd49a94e105dec7cc27af9ddfbc855affa7d15072d7c93d89a2a07693cb5d09cbcd5596e3dfc3cca7c62c8c5b6aefb20c3007811eab600f7471ffb90100000000000000000000000000000000000000000000000000000000000000000000000000000000000000000000000000000000000000000000000000000000000000000000000000000000000000000000000000000000000000000000000000000000000000000000000000000000000000000000000000000000000000000000000000000000000000000000000000000000000000000000000000000000000000000000000000000000000000000000000000000000000000000000000000000000000000000000000000000000000000000000000000000000000000000000000000000000000000000000000000000000000000000000000000000000008302000001830f4240830dbba08203e880a02845ee2535e27e957bc020a688923f5d2931fb5a05b5ec4935bddb5b92366e0f88a00c2597d842ce2cf865f8638080830dbba094095e7baea6a6c7c4c2dfeb977efac326af552d87830186a0801ba0a454127f0a7efbc07c27b65a9bd76ebf8189d032a43b7a8f81327c2371ad79f1a055bd50638e18dafa3a23707e89dbe830f00f109e771774bb5db2c7b44be2277ec0",
                "transactions" : [
                    {
                        "data" : "",
                        "gasLimit" : "0x0dbba0",
                        "gasPrice" : "0x00",
                        "nonce" : "0x00",
                        "r" : "0xa454127f0a7efbc07c27b65a9bd76ebf8189d032a43b7a8f81327c2371ad79f1",
                        "s" : "0x55bd50638e18dafa3a23707e89dbe830f00f109e771774bb5db2c7b44be2277e",
                        "to" : "0x095e7baea6a6c7c4c2dfeb977efac326af552d87",
                        "v" : "0x1b",
                        "value" : "0x0186a0"
                    }
                ],
                "uncleHeaders" : [
                ]
            }
        ],
        "genesisBlockHeader" : {
            "bloom" : "0x00000000000000000000000000000000000000000000000000000000000000000000000000000000000000000000000000000000000000000000000000000000000000000000000000000000000000000000000000000000000000000000000000000000000000000000000000000000000000000000000000000000000000000000000000000000000000000000000000000000000000000000000000000000000000000000000000000000000000000000000000000000000000000000000000000000000000000000000000000000000000000000000000000000000000000000000000000000000000000000000000000000000000000000000000000000",
            "coinbase" : "0x2adc25665018aa1fe0e6bc666dac8fc2697ff9ba",
            "difficulty" : "0x020000",
            "extraData" : "0x42",
            "gasLimit" : "0x0f4240",
            "gasUsed" : "0x00",
            "hash" : "0x8a2b03034de510dfa237c7742088f5c07ddf4ded38a7f54f49e62cf780400f59",
            "mixHash" : "0x56e81f171bcc55a6ff8345e692c0f86e5b48e01b996cadc001622fb5e363b421",
            "nonce" : "0x0102030405060708",
            "number" : "0x00",
            "parentHash" : "0x0000000000000000000000000000000000000000000000000000000000000000",
            "receiptTrie" : "0x56e81f171bcc55a6ff8345e692c0f86e5b48e01b996cadc001622fb5e363b421",
            "stateRoot" : "0xc02b6bdc3bd48cd6a29272b00bfc73a63aeba61bb3096360c716987ee9e8cb19",
            "timestamp" : "0x03b6",
            "transactionsTrie" : "0x56e81f171bcc55a6ff8345e692c0f86e5b48e01b996cadc001622fb5e363b421",
            "uncleHash" : "0x1dcc4de8dec75d7aab85b567b6ccd41ad312451b948a7413f0a142fd40d49347"
        },
        "genesisRLP" : "0xf901faf901f5a00000000000000000000000000000000000000000000000000000000000000000a01dcc4de8dec75d7aab85b567b6ccd41ad312451b948a7413f0a142fd40d49347942adc25665018aa1fe0e6bc666dac8fc2697ff9baa0c02b6bdc3bd48cd6a29272b00bfc73a63aeba61bb3096360c716987ee9e8cb19a056e81f171bcc55a6ff8345e692c0f86e5b48e01b996cadc001622fb5e363b421a056e81f171bcc55a6ff8345e692c0f86e5b48e01b996cadc001622fb5e363b421b90100000000000000000000000000000000000000000000000000000000000000000000000000000000000000000000000000000000000000000000000000000000000000000000000000000000000000000000000000000000000000000000000000000000000000000000000000000000000000000000000000000000000000000000000000000000000000000000000000000000000000000000000000000000000000000000000000000000000000000000000000000000000000000000000000000000000000000000000000000000000000000000000000000000000000000000000000000000000000000000000000000000000000000000000000000000008302000080830f4240808203b642a056e81f171bcc55a6ff8345e692c0f86e5b48e01b996cadc001622fb5e363b421880102030405060708c0c0",
        "lastblockhash" : "0x4df11645edb7b78f766bc951e4ee2408366470e8053b73b05e0366816fc51bda",
        "network" : "Frontier",
        "postState" : {
            "0x095e7baea6a6c7c4c2dfeb977efac326af552d87" : {
                "balance" : "0x0de0b6b3a7640000",
                "code" : "0x7f5e20a0453cecd065ea59c37ac63e079ee08998b6045136a8ce6635c7912ec0b6600052600a60006000600073aaae7baea6a6c7c4c2dfeb977efac326af552d8761c350f450600051600055",
                "nonce" : "0x00",
                "storage" : {
                }
            },
            "0x2adc25665018aa1fe0e6bc666dac8fc2697ff9ba" : {
                "balance" : "0x4563918244f40000",
                "code" : "",
                "nonce" : "0x00",
                "storage" : {
                }
            },
            "0xa94f5374fce5edbc8e2a8697c15331677e6ebf0b" : {
                "balance" : "0x0de0b6b3a7640000",
                "code" : "",
                "nonce" : "0x01",
                "storage" : {
                }
            },
            "0xaaae7baea6a6c7c4c2dfeb977efac326af552d87" : {
                "balance" : "0x0de0b6b3a7640000",
                "code" : "0x016001600101600055",
                "nonce" : "0x00",
                "storage" : {
                }
            }
        },
        "pre" : {
            "0x095e7baea6a6c7c4c2dfeb977efac326af552d87" : {
                "balance" : "0x0de0b6b3a7640000",
                "code" : "0x7f5e20a0453cecd065ea59c37ac63e079ee08998b6045136a8ce6635c7912ec0b6600052600a60006000600073aaae7baea6a6c7c4c2dfeb977efac326af552d8761c350f450600051600055",
                "nonce" : "0x00",
                "storage" : {
                }
            },
            "0xa94f5374fce5edbc8e2a8697c15331677e6ebf0b" : {
                "balance" : "0x0de0b6b3a7640000",
                "code" : "",
                "nonce" : "0x00",
                "storage" : {
                }
            },
            "0xaaae7baea6a6c7c4c2dfeb977efac326af552d87" : {
                "balance" : "0x0de0b6b3a7640000",
                "code" : "0x016001600101600055",
                "nonce" : "0x00",
                "storage" : {
                }
            }
        }
    },
    "callOutput3partialFail_d0g1v0_Homestead" : {
        "_info" : {
            "comment" : "",
            "filledwith" : "cpp-1.3.0+commit.6e0ce939.Linux.g++",
            "lllcversion" : "Version: 0.4.18-develop.2017.9.25+commit.a72237f2.Linux.g++",
            "source" : "src/BlockchainTestsFiller/GeneralStateTests/stDelegatecallTestHomestead/callOutput3partialFail_d0g1v0Filler.json",
            "sourceHash" : "3f5291829e642152732381f70001f1d8674c648d941f7861e489e65eb283c4bc"
        },
        "blocks" : [
            {
                "blockHeader" : {
                    "bloom" : "0x00000000000000000000000000000000000000000000000000000000000000000000000000000000000000000000000000000000000000000000000000000000000000000000000000000000000000000000000000000000000000000000000000000000000000000000000000000000000000000000000000000000000000000000000000000000000000000000000000000000000000000000000000000000000000000000000000000000000000000000000000000000000000000000000000000000000000000000000000000000000000000000000000000000000000000000000000000000000000000000000000000000000000000000000000000000",
                    "coinbase" : "0x2adc25665018aa1fe0e6bc666dac8fc2697ff9ba",
                    "difficulty" : "0x020000",
                    "extraData" : "",
                    "gasLimit" : "0x0f4240",
                    "gasUsed" : "0x0163c9",
                    "hash" : "0xfcee9c72ef83966383ea80d3efb68bfc94caad05980071ebecf2e34a32347c41",
                    "mixHash" : "0x01d6130c9732931f870e9d2967910959922986e370ccd409d9f998fc6748b214",
                    "nonce" : "0x3cd711c459ef0c76",
                    "number" : "0x01",
                    "parentHash" : "0x8a2b03034de510dfa237c7742088f5c07ddf4ded38a7f54f49e62cf780400f59",
                    "receiptTrie" : "0x747aa3169dc0aae44a6acd721ec67c9d66866d215818c91953393b518899f4f4",
                    "stateRoot" : "0x470e2d70220b848914748f3fed21434129cec6f3c19c17e32927bc609d3fa290",
                    "timestamp" : "0x03e8",
                    "transactionsTrie" : "0xafadb40fdc167bd49a94e105dec7cc27af9ddfbc855affa7d15072d7c93d89a2",
                    "uncleHash" : "0x1dcc4de8dec75d7aab85b567b6ccd41ad312451b948a7413f0a142fd40d49347"
                },
                "rlp" : "0xf90263f901f8a08a2b03034de510dfa237c7742088f5c07ddf4ded38a7f54f49e62cf780400f59a01dcc4de8dec75d7aab85b567b6ccd41ad312451b948a7413f0a142fd40d49347942adc25665018aa1fe0e6bc666dac8fc2697ff9baa0470e2d70220b848914748f3fed21434129cec6f3c19c17e32927bc609d3fa290a0afadb40fdc167bd49a94e105dec7cc27af9ddfbc855affa7d15072d7c93d89a2a0747aa3169dc0aae44a6acd721ec67c9d66866d215818c91953393b518899f4f4b90100000000000000000000000000000000000000000000000000000000000000000000000000000000000000000000000000000000000000000000000000000000000000000000000000000000000000000000000000000000000000000000000000000000000000000000000000000000000000000000000000000000000000000000000000000000000000000000000000000000000000000000000000000000000000000000000000000000000000000000000000000000000000000000000000000000000000000000000000000000000000000000000000000000000000000000000000000000000000000000000000000000000000000000000000000000008302000001830f4240830163c98203e880a001d6130c9732931f870e9d2967910959922986e370ccd409d9f998fc6748b214883cd711c459ef0c76f865f8638080830dbba094095e7baea6a6c7c4c2dfeb977efac326af552d87830186a0801ba0a454127f0a7efbc07c27b65a9bd76ebf8189d032a43b7a8f81327c2371ad79f1a055bd50638e18dafa3a23707e89dbe830f00f109e771774bb5db2c7b44be2277ec0",
                "transactions" : [
                    {
                        "data" : "",
                        "gasLimit" : "0x0dbba0",
                        "gasPrice" : "0x00",
                        "nonce" : "0x00",
                        "r" : "0xa454127f0a7efbc07c27b65a9bd76ebf8189d032a43b7a8f81327c2371ad79f1",
                        "s" : "0x55bd50638e18dafa3a23707e89dbe830f00f109e771774bb5db2c7b44be2277e",
                        "to" : "0x095e7baea6a6c7c4c2dfeb977efac326af552d87",
                        "v" : "0x1b",
                        "value" : "0x0186a0"
                    }
                ],
                "uncleHeaders" : [
                ]
            }
        ],
        "genesisBlockHeader" : {
            "bloom" : "0x00000000000000000000000000000000000000000000000000000000000000000000000000000000000000000000000000000000000000000000000000000000000000000000000000000000000000000000000000000000000000000000000000000000000000000000000000000000000000000000000000000000000000000000000000000000000000000000000000000000000000000000000000000000000000000000000000000000000000000000000000000000000000000000000000000000000000000000000000000000000000000000000000000000000000000000000000000000000000000000000000000000000000000000000000000000",
            "coinbase" : "0x2adc25665018aa1fe0e6bc666dac8fc2697ff9ba",
            "difficulty" : "0x020000",
            "extraData" : "0x42",
            "gasLimit" : "0x0f4240",
            "gasUsed" : "0x00",
            "hash" : "0x8a2b03034de510dfa237c7742088f5c07ddf4ded38a7f54f49e62cf780400f59",
            "mixHash" : "0x56e81f171bcc55a6ff8345e692c0f86e5b48e01b996cadc001622fb5e363b421",
            "nonce" : "0x0102030405060708",
            "number" : "0x00",
            "parentHash" : "0x0000000000000000000000000000000000000000000000000000000000000000",
            "receiptTrie" : "0x56e81f171bcc55a6ff8345e692c0f86e5b48e01b996cadc001622fb5e363b421",
            "stateRoot" : "0xc02b6bdc3bd48cd6a29272b00bfc73a63aeba61bb3096360c716987ee9e8cb19",
            "timestamp" : "0x03b6",
            "transactionsTrie" : "0x56e81f171bcc55a6ff8345e692c0f86e5b48e01b996cadc001622fb5e363b421",
            "uncleHash" : "0x1dcc4de8dec75d7aab85b567b6ccd41ad312451b948a7413f0a142fd40d49347"
        },
        "genesisRLP" : "0xf901faf901f5a00000000000000000000000000000000000000000000000000000000000000000a01dcc4de8dec75d7aab85b567b6ccd41ad312451b948a7413f0a142fd40d49347942adc25665018aa1fe0e6bc666dac8fc2697ff9baa0c02b6bdc3bd48cd6a29272b00bfc73a63aeba61bb3096360c716987ee9e8cb19a056e81f171bcc55a6ff8345e692c0f86e5b48e01b996cadc001622fb5e363b421a056e81f171bcc55a6ff8345e692c0f86e5b48e01b996cadc001622fb5e363b421b90100000000000000000000000000000000000000000000000000000000000000000000000000000000000000000000000000000000000000000000000000000000000000000000000000000000000000000000000000000000000000000000000000000000000000000000000000000000000000000000000000000000000000000000000000000000000000000000000000000000000000000000000000000000000000000000000000000000000000000000000000000000000000000000000000000000000000000000000000000000000000000000000000000000000000000000000000000000000000000000000000000000000000000000000000000000008302000080830f4240808203b642a056e81f171bcc55a6ff8345e692c0f86e5b48e01b996cadc001622fb5e363b421880102030405060708c0c0",
        "lastblockhash" : "0xfcee9c72ef83966383ea80d3efb68bfc94caad05980071ebecf2e34a32347c41",
        "network" : "Homestead",
        "postState" : {
            "0x095e7baea6a6c7c4c2dfeb977efac326af552d87" : {
                "balance" : "0x0de0b6b3a76586a0",
                "code" : "0x7f5e20a0453cecd065ea59c37ac63e079ee08998b6045136a8ce6635c7912ec0b6600052600a60006000600073aaae7baea6a6c7c4c2dfeb977efac326af552d8761c350f450600051600055",
                "nonce" : "0x00",
                "storage" : {
                    "0x00" : "0x5e20a0453cecd065ea59c37ac63e079ee08998b6045136a8ce6635c7912ec0b6"
                }
            },
            "0x2adc25665018aa1fe0e6bc666dac8fc2697ff9ba" : {
                "balance" : "0x4563918244f40000",
                "code" : "",
                "nonce" : "0x00",
                "storage" : {
                }
            },
            "0xa94f5374fce5edbc8e2a8697c15331677e6ebf0b" : {
                "balance" : "0x0de0b6b3a7627960",
                "code" : "",
                "nonce" : "0x01",
                "storage" : {
                }
            },
            "0xaaae7baea6a6c7c4c2dfeb977efac326af552d87" : {
                "balance" : "0x0de0b6b3a7640000",
                "code" : "0x016001600101600055",
                "nonce" : "0x00",
                "storage" : {
                }
            }
        },
        "pre" : {
            "0x095e7baea6a6c7c4c2dfeb977efac326af552d87" : {
                "balance" : "0x0de0b6b3a7640000",
                "code" : "0x7f5e20a0453cecd065ea59c37ac63e079ee08998b6045136a8ce6635c7912ec0b6600052600a60006000600073aaae7baea6a6c7c4c2dfeb977efac326af552d8761c350f450600051600055",
                "nonce" : "0x00",
                "storage" : {
                }
            },
            "0xa94f5374fce5edbc8e2a8697c15331677e6ebf0b" : {
                "balance" : "0x0de0b6b3a7640000",
                "code" : "",
                "nonce" : "0x00",
                "storage" : {
                }
            },
            "0xaaae7baea6a6c7c4c2dfeb977efac326af552d87" : {
                "balance" : "0x0de0b6b3a7640000",
                "code" : "0x016001600101600055",
                "nonce" : "0x00",
                "storage" : {
                }
            }
        }
    }
}