{
    "CallcodeLoseGasOOG_d0g0v0_Byzantium" : {
        "_info" : {
            "comment" : "",
            "filledwith" : "cpp-1.3.0+commit.6e0ce939.Linux.g++",
            "lllcversion" : "Version: 0.4.18-develop.2017.9.25+commit.a72237f2.Linux.g++",
            "source" : "src/BlockchainTestsFiller/GeneralStateTests/stDelegatecallTestHomestead/CallcodeLoseGasOOG_d0g0v0Filler.json",
            "sourceHash" : "42ef77087af7612e9934e59aa083440a6d5dec3ced0511df0de051cc740f76ca"
        },
        "blocks" : [
            {
                "blockHeader" : {
                    "bloom" : "0x00000000000000000000000000000000000000000000000000000000000000000000000000000000000000000000000000000000000000000000000000000000000000000000000000000000000000000000000000000000000000000000000000000000000000000000000000000000000000000000000000000000000000000000000000000000000000000000000000000000000000000000000000000000000000000000000000000000000000000000000000000000000000000000000000000000000000000000000000000000000000000000000000000000000000000000000000000000000000000000000000000000000000000000000000000000",
                    "coinbase" : "0xb94f5374fce5edbc8e2a8697c15331677e6ebf0b",
                    "difficulty" : "0x020000",
                    "extraData" : "",
                    "gasLimit" : "0x7fffffffffffffff",
                    "gasUsed" : "0x028976",
                    "hash" : "0x71e3dbb2943cb304e063ef34f316c9238e8358d723e2c8b0f27c55ad264a529d",
                    "mixHash" : "0xcf4f36447d1b11869a6247ab8c25b3bb38f5312a6ab0db5d02481bb9623f9a9a",
                    "nonce" : "0x95b74c1eadfdcb57",
                    "number" : "0x01",
                    "parentHash" : "0x291344a889111a114e7b95c072b4d01e0d5dc97ca34f1799f1b76a2428915134",
                    "receiptTrie" : "0x714b0110d8b76b59fb269d77acb37c1ed6943cca7b0dab5f8576ffc1d1ac61ab",
                    "stateRoot" : "0xfd07983948c9ace7e88a6a4a7ec903763627a879638c1578a16e2afa37a87e57",
                    "timestamp" : "0x03e8",
                    "transactionsTrie" : "0x930b96e51a2ecd5435a7297b94143f9d14526ce3aac5667bb06c29b263b34511",
                    "uncleHash" : "0x1dcc4de8dec75d7aab85b567b6ccd41ad312451b948a7413f0a142fd40d49347"
                },
                "rlp" : "0xf90265f901fda0291344a889111a114e7b95c072b4d01e0d5dc97ca34f1799f1b76a2428915134a01dcc4de8dec75d7aab85b567b6ccd41ad312451b948a7413f0a142fd40d4934794b94f5374fce5edbc8e2a8697c15331677e6ebf0ba0fd07983948c9ace7e88a6a4a7ec903763627a879638c1578a16e2afa37a87e57a0930b96e51a2ecd5435a7297b94143f9d14526ce3aac5667bb06c29b263b34511a0714b0110d8b76b59fb269d77acb37c1ed6943cca7b0dab5f8576ffc1d1ac61abb90100000000000000000000000000000000000000000000000000000000000000000000000000000000000000000000000000000000000000000000000000000000000000000000000000000000000000000000000000000000000000000000000000000000000000000000000000000000000000000000000000000000000000000000000000000000000000000000000000000000000000000000000000000000000000000000000000000000000000000000000000000000000000000000000000000000000000000000000000000000000000000000000000000000000000000000000000000000000000000000000000000000000000000000000000000000008302000001887fffffffffffffff830289768203e880a0cf4f36447d1b11869a6247ab8c25b3bb38f5312a6ab0db5d02481bb9623f9a9a8895b74c1eadfdcb57f862f86080018302897694bbbf5374fce5edbc8e2a8697c15331677e6ebf0b0a801ba0cd600f2ae2ff3787336c74911d1d25e053b81ae72dd849703c712558be496f7fa006d28736b0f78feb5c662d1fd09efcda95a090c2df24897cbbecd3c993bbf316c0",
                "transactions" : [
                    {
                        "data" : "",
                        "gasLimit" : "0x028976",
                        "gasPrice" : "0x01",
                        "nonce" : "0x00",
                        "r" : "0xcd600f2ae2ff3787336c74911d1d25e053b81ae72dd849703c712558be496f7f",
                        "s" : "0x06d28736b0f78feb5c662d1fd09efcda95a090c2df24897cbbecd3c993bbf316",
                        "to" : "0xbbbf5374fce5edbc8e2a8697c15331677e6ebf0b",
                        "v" : "0x1b",
                        "value" : "0x0a"
                    }
                ],
                "uncleHeaders" : [
                ]
            }
        ],
        "genesisBlockHeader" : {
            "bloom" : "0x00000000000000000000000000000000000000000000000000000000000000000000000000000000000000000000000000000000000000000000000000000000000000000000000000000000000000000000000000000000000000000000000000000000000000000000000000000000000000000000000000000000000000000000000000000000000000000000000000000000000000000000000000000000000000000000000000000000000000000000000000000000000000000000000000000000000000000000000000000000000000000000000000000000000000000000000000000000000000000000000000000000000000000000000000000000",
            "coinbase" : "0xb94f5374fce5edbc8e2a8697c15331677e6ebf0b",
            "difficulty" : "0x020000",
            "extraData" : "0x42",
            "gasLimit" : "0x7fffffffffffffff",
            "gasUsed" : "0x00",
            "hash" : "0x291344a889111a114e7b95c072b4d01e0d5dc97ca34f1799f1b76a2428915134",
            "mixHash" : "0x56e81f171bcc55a6ff8345e692c0f86e5b48e01b996cadc001622fb5e363b421",
            "nonce" : "0x0102030405060708",
            "number" : "0x00",
            "parentHash" : "0x0000000000000000000000000000000000000000000000000000000000000000",
            "receiptTrie" : "0x56e81f171bcc55a6ff8345e692c0f86e5b48e01b996cadc001622fb5e363b421",
            "stateRoot" : "0x433bc29f28e2e14afe21908debf417812fe2d4a2708e644c651b3c0ce7f5c06c",
            "timestamp" : "0x03b6",
            "transactionsTrie" : "0x56e81f171bcc55a6ff8345e692c0f86e5b48e01b996cadc001622fb5e363b421",
            "uncleHash" : "0x1dcc4de8dec75d7aab85b567b6ccd41ad312451b948a7413f0a142fd40d49347"
        },
        "genesisRLP" : "0xf901fff901faa00000000000000000000000000000000000000000000000000000000000000000a01dcc4de8dec75d7aab85b567b6ccd41ad312451b948a7413f0a142fd40d4934794b94f5374fce5edbc8e2a8697c15331677e6ebf0ba0433bc29f28e2e14afe21908debf417812fe2d4a2708e644c651b3c0ce7f5c06ca056e81f171bcc55a6ff8345e692c0f86e5b48e01b996cadc001622fb5e363b421a056e81f171bcc55a6ff8345e692c0f86e5b48e01b996cadc001622fb5e363b421b90100000000000000000000000000000000000000000000000000000000000000000000000000000000000000000000000000000000000000000000000000000000000000000000000000000000000000000000000000000000000000000000000000000000000000000000000000000000000000000000000000000000000000000000000000000000000000000000000000000000000000000000000000000000000000000000000000000000000000000000000000000000000000000000000000000000000000000000000000000000000000000000000000000000000000000000000000000000000000000000000000000000000000000000000000000000008302000080887fffffffffffffff808203b642a056e81f171bcc55a6ff8345e692c0f86e5b48e01b996cadc001622fb5e363b421880102030405060708c0c0",
        "lastblockhash" : "0x71e3dbb2943cb304e063ef34f316c9238e8358d723e2c8b0f27c55ad264a529d",
        "network" : "Byzantium",
        "postState" : {
            "0xa94f5374fce5edbc8e2a8697c15331677e6ebf0b" : {
                "balance" : "0xfffffffffffffffffffffffffffd7689",
                "code" : "",
                "nonce" : "0x01",
                "storage" : {
                }
            },
            "0xaaaf5374fce5edbc8e2a8697c15331677e6ebf0b" : {
                "balance" : "0x1b58",
                "code" : "",
                "nonce" : "0x00",
                "storage" : {
                }
            },
            "0xb94f5374fce5edbc8e2a8697c15331677e6ebf0b" : {
                "balance" : "0x29a2241af62e8976",
                "code" : "",
                "nonce" : "0x00",
                "storage" : {
                }
            },
            "0xbbbf5374fce5edbc8e2a8697c15331677e6ebf0b" : {
                "balance" : "0x0400",
                "code" : "0x600160005401600055600060006000600073bbbf5374fce5edbc8e2a8697c15331677e6ebf0b620186a060005402600101f46001556103e860005402600101600255",
                "nonce" : "0x00",
                "storage" : {
                }
            }
        },
        "pre" : {
            "0xa94f5374fce5edbc8e2a8697c15331677e6ebf0b" : {
                "balance" : "0xffffffffffffffffffffffffffffffff",
                "code" : "",
                "nonce" : "0x00",
                "storage" : {
                }
            },
            "0xaaaf5374fce5edbc8e2a8697c15331677e6ebf0b" : {
                "balance" : "0x1b58",
                "code" : "",
                "nonce" : "0x00",
                "storage" : {
                }
            },
            "0xbbbf5374fce5edbc8e2a8697c15331677e6ebf0b" : {
                "balance" : "0x0400",
                "code" : "0x600160005401600055600060006000600073bbbf5374fce5edbc8e2a8697c15331677e6ebf0b620186a060005402600101f46001556103e860005402600101600255",
                "nonce" : "0x00",
                "storage" : {
                }
            }
        }
    },
    "CallcodeLoseGasOOG_d0g0v0_EIP150" : {
        "_info" : {
            "comment" : "",
            "filledwith" : "cpp-1.3.0+commit.6e0ce939.Linux.g++",
            "lllcversion" : "Version: 0.4.18-develop.2017.9.25+commit.a72237f2.Linux.g++",
            "source" : "src/BlockchainTestsFiller/GeneralStateTests/stDelegatecallTestHomestead/CallcodeLoseGasOOG_d0g0v0Filler.json",
            "sourceHash" : "42ef77087af7612e9934e59aa083440a6d5dec3ced0511df0de051cc740f76ca"
        },
        "blocks" : [
            {
                "blockHeader" : {
                    "bloom" : "0x00000000000000000000000000000000000000000000000000000000000000000000000000000000000000000000000000000000000000000000000000000000000000000000000000000000000000000000000000000000000000000000000000000000000000000000000000000000000000000000000000000000000000000000000000000000000000000000000000000000000000000000000000000000000000000000000000000000000000000000000000000000000000000000000000000000000000000000000000000000000000000000000000000000000000000000000000000000000000000000000000000000000000000000000000000000",
                    "coinbase" : "0xb94f5374fce5edbc8e2a8697c15331677e6ebf0b",
                    "difficulty" : "0x020000",
                    "extraData" : "",
                    "gasLimit" : "0x7fffffffffffffff",
                    "gasUsed" : "0x028976",
                    "hash" : "0x31952804e5873420555f8cde15672016497a098f580aa942d9b2cbad2f0e0139",
                    "mixHash" : "0xaec90d4d2bca244b7c8aca3603d25f53e642f06f4bb9e9dfddc4e7dfc698d08c",
                    "nonce" : "0xde22fdf20a2a00f0",
                    "number" : "0x01",
                    "parentHash" : "0x291344a889111a114e7b95c072b4d01e0d5dc97ca34f1799f1b76a2428915134",
                    "receiptTrie" : "0x9fbfb95c6a9978d5b1037e5494736fed43f00f104824c015bb32830bace351aa",
                    "stateRoot" : "0x367f3a9d591b08a1112a739fa0d6c1d9b572980064ba431cce467f85e80e1dfa",
                    "timestamp" : "0x03e8",
                    "transactionsTrie" : "0x930b96e51a2ecd5435a7297b94143f9d14526ce3aac5667bb06c29b263b34511",
                    "uncleHash" : "0x1dcc4de8dec75d7aab85b567b6ccd41ad312451b948a7413f0a142fd40d49347"
                },
                "rlp" : "0xf90265f901fda0291344a889111a114e7b95c072b4d01e0d5dc97ca34f1799f1b76a2428915134a01dcc4de8dec75d7aab85b567b6ccd41ad312451b948a7413f0a142fd40d4934794b94f5374fce5edbc8e2a8697c15331677e6ebf0ba0367f3a9d591b08a1112a739fa0d6c1d9b572980064ba431cce467f85e80e1dfaa0930b96e51a2ecd5435a7297b94143f9d14526ce3aac5667bb06c29b263b34511a09fbfb95c6a9978d5b1037e5494736fed43f00f104824c015bb32830bace351aab90100000000000000000000000000000000000000000000000000000000000000000000000000000000000000000000000000000000000000000000000000000000000000000000000000000000000000000000000000000000000000000000000000000000000000000000000000000000000000000000000000000000000000000000000000000000000000000000000000000000000000000000000000000000000000000000000000000000000000000000000000000000000000000000000000000000000000000000000000000000000000000000000000000000000000000000000000000000000000000000000000000000000000000000000000000000008302000001887fffffffffffffff830289768203e880a0aec90d4d2bca244b7c8aca3603d25f53e642f06f4bb9e9dfddc4e7dfc698d08c88de22fdf20a2a00f0f862f86080018302897694bbbf5374fce5edbc8e2a8697c15331677e6ebf0b0a801ba0cd600f2ae2ff3787336c74911d1d25e053b81ae72dd849703c712558be496f7fa006d28736b0f78feb5c662d1fd09efcda95a090c2df24897cbbecd3c993bbf316c0",
                "transactions" : [
                    {
                        "data" : "",
                        "gasLimit" : "0x028976",
                        "gasPrice" : "0x01",
                        "nonce" : "0x00",
                        "r" : "0xcd600f2ae2ff3787336c74911d1d25e053b81ae72dd849703c712558be496f7f",
                        "s" : "0x06d28736b0f78feb5c662d1fd09efcda95a090c2df24897cbbecd3c993bbf316",
                        "to" : "0xbbbf5374fce5edbc8e2a8697c15331677e6ebf0b",
                        "v" : "0x1b",
                        "value" : "0x0a"
                    }
                ],
                "uncleHeaders" : [
                ]
            }
        ],
        "genesisBlockHeader" : {
            "bloom" : "0x00000000000000000000000000000000000000000000000000000000000000000000000000000000000000000000000000000000000000000000000000000000000000000000000000000000000000000000000000000000000000000000000000000000000000000000000000000000000000000000000000000000000000000000000000000000000000000000000000000000000000000000000000000000000000000000000000000000000000000000000000000000000000000000000000000000000000000000000000000000000000000000000000000000000000000000000000000000000000000000000000000000000000000000000000000000",
            "coinbase" : "0xb94f5374fce5edbc8e2a8697c15331677e6ebf0b",
            "difficulty" : "0x020000",
            "extraData" : "0x42",
            "gasLimit" : "0x7fffffffffffffff",
            "gasUsed" : "0x00",
            "hash" : "0x291344a889111a114e7b95c072b4d01e0d5dc97ca34f1799f1b76a2428915134",
            "mixHash" : "0x56e81f171bcc55a6ff8345e692c0f86e5b48e01b996cadc001622fb5e363b421",
            "nonce" : "0x0102030405060708",
            "number" : "0x00",
            "parentHash" : "0x0000000000000000000000000000000000000000000000000000000000000000",
            "receiptTrie" : "0x56e81f171bcc55a6ff8345e692c0f86e5b48e01b996cadc001622fb5e363b421",
            "stateRoot" : "0x433bc29f28e2e14afe21908debf417812fe2d4a2708e644c651b3c0ce7f5c06c",
            "timestamp" : "0x03b6",
            "transactionsTrie" : "0x56e81f171bcc55a6ff8345e692c0f86e5b48e01b996cadc001622fb5e363b421",
            "uncleHash" : "0x1dcc4de8dec75d7aab85b567b6ccd41ad312451b948a7413f0a142fd40d49347"
        },
        "genesisRLP" : "0xf901fff901faa00000000000000000000000000000000000000000000000000000000000000000a01dcc4de8dec75d7aab85b567b6ccd41ad312451b948a7413f0a142fd40d4934794b94f5374fce5edbc8e2a8697c15331677e6ebf0ba0433bc29f28e2e14afe21908debf417812fe2d4a2708e644c651b3c0ce7f5c06ca056e81f171bcc55a6ff8345e692c0f86e5b48e01b996cadc001622fb5e363b421a056e81f171bcc55a6ff8345e692c0f86e5b48e01b996cadc001622fb5e363b421b90100000000000000000000000000000000000000000000000000000000000000000000000000000000000000000000000000000000000000000000000000000000000000000000000000000000000000000000000000000000000000000000000000000000000000000000000000000000000000000000000000000000000000000000000000000000000000000000000000000000000000000000000000000000000000000000000000000000000000000000000000000000000000000000000000000000000000000000000000000000000000000000000000000000000000000000000000000000000000000000000000000000000000000000000000000000008302000080887fffffffffffffff808203b642a056e81f171bcc55a6ff8345e692c0f86e5b48e01b996cadc001622fb5e363b421880102030405060708c0c0",
        "lastblockhash" : "0x31952804e5873420555f8cde15672016497a098f580aa942d9b2cbad2f0e0139",
        "network" : "EIP150",
        "postState" : {
            "0xa94f5374fce5edbc8e2a8697c15331677e6ebf0b" : {
                "balance" : "0xfffffffffffffffffffffffffffd7689",
                "code" : "",
                "nonce" : "0x01",
                "storage" : {
                }
            },
            "0xaaaf5374fce5edbc8e2a8697c15331677e6ebf0b" : {
                "balance" : "0x1b58",
                "code" : "",
                "nonce" : "0x00",
                "storage" : {
                }
            },
            "0xb94f5374fce5edbc8e2a8697c15331677e6ebf0b" : {
                "balance" : "0x4563918244f68976",
                "code" : "",
                "nonce" : "0x00",
                "storage" : {
                }
            },
            "0xbbbf5374fce5edbc8e2a8697c15331677e6ebf0b" : {
                "balance" : "0x0400",
                "code" : "0x600160005401600055600060006000600073bbbf5374fce5edbc8e2a8697c15331677e6ebf0b620186a060005402600101f46001556103e860005402600101600255",
                "nonce" : "0x00",
                "storage" : {
                }
            }
        },
        "pre" : {
            "0xa94f5374fce5edbc8e2a8697c15331677e6ebf0b" : {
                "balance" : "0xffffffffffffffffffffffffffffffff",
                "code" : "",
                "nonce" : "0x00",
                "storage" : {
                }
            },
            "0xaaaf5374fce5edbc8e2a8697c15331677e6ebf0b" : {
                "balance" : "0x1b58",
                "code" : "",
                "nonce" : "0x00",
                "storage" : {
                }
            },
            "0xbbbf5374fce5edbc8e2a8697c15331677e6ebf0b" : {
                "balance" : "0x0400",
                "code" : "0x600160005401600055600060006000600073bbbf5374fce5edbc8e2a8697c15331677e6ebf0b620186a060005402600101f46001556103e860005402600101600255",
                "nonce" : "0x00",
                "storage" : {
                }
            }
        }
    },
    "CallcodeLoseGasOOG_d0g0v0_EIP158" : {
        "_info" : {
            "comment" : "",
            "filledwith" : "cpp-1.3.0+commit.6e0ce939.Linux.g++",
            "lllcversion" : "Version: 0.4.18-develop.2017.9.25+commit.a72237f2.Linux.g++",
            "source" : "src/BlockchainTestsFiller/GeneralStateTests/stDelegatecallTestHomestead/CallcodeLoseGasOOG_d0g0v0Filler.json",
            "sourceHash" : "42ef77087af7612e9934e59aa083440a6d5dec3ced0511df0de051cc740f76ca"
        },
        "blocks" : [
            {
                "blockHeader" : {
                    "bloom" : "0x00000000000000000000000000000000000000000000000000000000000000000000000000000000000000000000000000000000000000000000000000000000000000000000000000000000000000000000000000000000000000000000000000000000000000000000000000000000000000000000000000000000000000000000000000000000000000000000000000000000000000000000000000000000000000000000000000000000000000000000000000000000000000000000000000000000000000000000000000000000000000000000000000000000000000000000000000000000000000000000000000000000000000000000000000000000",
                    "coinbase" : "0xb94f5374fce5edbc8e2a8697c15331677e6ebf0b",
                    "difficulty" : "0x020000",
                    "extraData" : "",
                    "gasLimit" : "0x7fffffffffffffff",
                    "gasUsed" : "0x028976",
                    "hash" : "0x6f8a5a95ba2576def6efd72506610bc1c2d7bab5f655557c862a2d0e4fa364e0",
                    "mixHash" : "0xa7e0f9421dbf65d391e241dab7160c6589ed5849e35f86c4c644a1c33a06bc3f",
                    "nonce" : "0x1df752d26dfcfdc4",
                    "number" : "0x01",
                    "parentHash" : "0x291344a889111a114e7b95c072b4d01e0d5dc97ca34f1799f1b76a2428915134",
                    "receiptTrie" : "0x9fbfb95c6a9978d5b1037e5494736fed43f00f104824c015bb32830bace351aa",
                    "stateRoot" : "0x367f3a9d591b08a1112a739fa0d6c1d9b572980064ba431cce467f85e80e1dfa",
                    "timestamp" : "0x03e8",
                    "transactionsTrie" : "0x930b96e51a2ecd5435a7297b94143f9d14526ce3aac5667bb06c29b263b34511",
                    "uncleHash" : "0x1dcc4de8dec75d7aab85b567b6ccd41ad312451b948a7413f0a142fd40d49347"
                },
                "rlp" : "0xf90265f901fda0291344a889111a114e7b95c072b4d01e0d5dc97ca34f1799f1b76a2428915134a01dcc4de8dec75d7aab85b567b6ccd41ad312451b948a7413f0a142fd40d4934794b94f5374fce5edbc8e2a8697c15331677e6ebf0ba0367f3a9d591b08a1112a739fa0d6c1d9b572980064ba431cce467f85e80e1dfaa0930b96e51a2ecd5435a7297b94143f9d14526ce3aac5667bb06c29b263b34511a09fbfb95c6a9978d5b1037e5494736fed43f00f104824c015bb32830bace351aab90100000000000000000000000000000000000000000000000000000000000000000000000000000000000000000000000000000000000000000000000000000000000000000000000000000000000000000000000000000000000000000000000000000000000000000000000000000000000000000000000000000000000000000000000000000000000000000000000000000000000000000000000000000000000000000000000000000000000000000000000000000000000000000000000000000000000000000000000000000000000000000000000000000000000000000000000000000000000000000000000000000000000000000000000000000000008302000001887fffffffffffffff830289768203e880a0a7e0f9421dbf65d391e241dab7160c6589ed5849e35f86c4c644a1c33a06bc3f881df752d26dfcfdc4f862f86080018302897694bbbf5374fce5edbc8e2a8697c15331677e6ebf0b0a801ba0cd600f2ae2ff3787336c74911d1d25e053b81ae72dd849703c712558be496f7fa006d28736b0f78feb5c662d1fd09efcda95a090c2df24897cbbecd3c993bbf316c0",
                "transactions" : [
                    {
                        "data" : "",
                        "gasLimit" : "0x028976",
                        "gasPrice" : "0x01",
                        "nonce" : "0x00",
                        "r" : "0xcd600f2ae2ff3787336c74911d1d25e053b81ae72dd849703c712558be496f7f",
                        "s" : "0x06d28736b0f78feb5c662d1fd09efcda95a090c2df24897cbbecd3c993bbf316",
                        "to" : "0xbbbf5374fce5edbc8e2a8697c15331677e6ebf0b",
                        "v" : "0x1b",
                        "value" : "0x0a"
                    }
                ],
                "uncleHeaders" : [
                ]
            }
        ],
        "genesisBlockHeader" : {
            "bloom" : "0x00000000000000000000000000000000000000000000000000000000000000000000000000000000000000000000000000000000000000000000000000000000000000000000000000000000000000000000000000000000000000000000000000000000000000000000000000000000000000000000000000000000000000000000000000000000000000000000000000000000000000000000000000000000000000000000000000000000000000000000000000000000000000000000000000000000000000000000000000000000000000000000000000000000000000000000000000000000000000000000000000000000000000000000000000000000",
            "coinbase" : "0xb94f5374fce5edbc8e2a8697c15331677e6ebf0b",
            "difficulty" : "0x020000",
            "extraData" : "0x42",
            "gasLimit" : "0x7fffffffffffffff",
            "gasUsed" : "0x00",
            "hash" : "0x291344a889111a114e7b95c072b4d01e0d5dc97ca34f1799f1b76a2428915134",
            "mixHash" : "0x56e81f171bcc55a6ff8345e692c0f86e5b48e01b996cadc001622fb5e363b421",
            "nonce" : "0x0102030405060708",
            "number" : "0x00",
            "parentHash" : "0x0000000000000000000000000000000000000000000000000000000000000000",
            "receiptTrie" : "0x56e81f171bcc55a6ff8345e692c0f86e5b48e01b996cadc001622fb5e363b421",
            "stateRoot" : "0x433bc29f28e2e14afe21908debf417812fe2d4a2708e644c651b3c0ce7f5c06c",
            "timestamp" : "0x03b6",
            "transactionsTrie" : "0x56e81f171bcc55a6ff8345e692c0f86e5b48e01b996cadc001622fb5e363b421",
            "uncleHash" : "0x1dcc4de8dec75d7aab85b567b6ccd41ad312451b948a7413f0a142fd40d49347"
        },
        "genesisRLP" : "0xf901fff901faa00000000000000000000000000000000000000000000000000000000000000000a01dcc4de8dec75d7aab85b567b6ccd41ad312451b948a7413f0a142fd40d4934794b94f5374fce5edbc8e2a8697c15331677e6ebf0ba0433bc29f28e2e14afe21908debf417812fe2d4a2708e644c651b3c0ce7f5c06ca056e81f171bcc55a6ff8345e692c0f86e5b48e01b996cadc001622fb5e363b421a056e81f171bcc55a6ff8345e692c0f86e5b48e01b996cadc001622fb5e363b421b90100000000000000000000000000000000000000000000000000000000000000000000000000000000000000000000000000000000000000000000000000000000000000000000000000000000000000000000000000000000000000000000000000000000000000000000000000000000000000000000000000000000000000000000000000000000000000000000000000000000000000000000000000000000000000000000000000000000000000000000000000000000000000000000000000000000000000000000000000000000000000000000000000000000000000000000000000000000000000000000000000000000000000000000000000000000008302000080887fffffffffffffff808203b642a056e81f171bcc55a6ff8345e692c0f86e5b48e01b996cadc001622fb5e363b421880102030405060708c0c0",
        "lastblockhash" : "0x6f8a5a95ba2576def6efd72506610bc1c2d7bab5f655557c862a2d0e4fa364e0",
        "network" : "EIP158",
        "postState" : {
            "0xa94f5374fce5edbc8e2a8697c15331677e6ebf0b" : {
                "balance" : "0xfffffffffffffffffffffffffffd7689",
                "code" : "",
                "nonce" : "0x01",
                "storage" : {
                }
            },
            "0xaaaf5374fce5edbc8e2a8697c15331677e6ebf0b" : {
                "balance" : "0x1b58",
                "code" : "",
                "nonce" : "0x00",
                "storage" : {
                }
            },
            "0xb94f5374fce5edbc8e2a8697c15331677e6ebf0b" : {
                "balance" : "0x4563918244f68976",
                "code" : "",
                "nonce" : "0x00",
                "storage" : {
                }
            },
            "0xbbbf5374fce5edbc8e2a8697c15331677e6ebf0b" : {
                "balance" : "0x0400",
                "code" : "0x600160005401600055600060006000600073bbbf5374fce5edbc8e2a8697c15331677e6ebf0b620186a060005402600101f46001556103e860005402600101600255",
                "nonce" : "0x00",
                "storage" : {
                }
            }
        },
        "pre" : {
            "0xa94f5374fce5edbc8e2a8697c15331677e6ebf0b" : {
                "balance" : "0xffffffffffffffffffffffffffffffff",
                "code" : "",
                "nonce" : "0x00",
                "storage" : {
                }
            },
            "0xaaaf5374fce5edbc8e2a8697c15331677e6ebf0b" : {
                "balance" : "0x1b58",
                "code" : "",
                "nonce" : "0x00",
                "storage" : {
                }
            },
            "0xbbbf5374fce5edbc8e2a8697c15331677e6ebf0b" : {
                "balance" : "0x0400",
                "code" : "0x600160005401600055600060006000600073bbbf5374fce5edbc8e2a8697c15331677e6ebf0b620186a060005402600101f46001556103e860005402600101600255",
                "nonce" : "0x00",
                "storage" : {
                }
            }
        }
    },
    "CallcodeLoseGasOOG_d0g0v0_Frontier" : {
        "_info" : {
            "comment" : "",
            "filledwith" : "cpp-1.3.0+commit.6e0ce939.Linux.g++",
            "lllcversion" : "Version: 0.4.18-develop.2017.9.25+commit.a72237f2.Linux.g++",
            "source" : "src/BlockchainTestsFiller/GeneralStateTests/stDelegatecallTestHomestead/CallcodeLoseGasOOG_d0g0v0Filler.json",
            "sourceHash" : "42ef77087af7612e9934e59aa083440a6d5dec3ced0511df0de051cc740f76ca"
        },
        "blocks" : [
            {
                "blockHeader" : {
                    "bloom" : "0x00000000000000000000000000000000000000000000000000000000000000000000000000000000000000000000000000000000000000000000000000000000000000000000000000000000000000000000000000000000000000000000000000000000000000000000000000000000000000000000000000000000000000000000000000000000000000000000000000000000000000000000000000000000000000000000000000000000000000000000000000000000000000000000000000000000000000000000000000000000000000000000000000000000000000000000000000000000000000000000000000000000000000000000000000000000",
                    "coinbase" : "0xb94f5374fce5edbc8e2a8697c15331677e6ebf0b",
                    "difficulty" : "0x020000",
                    "extraData" : "",
                    "gasLimit" : "0x7fffffffffffffff",
                    "gasUsed" : "0x028976",
                    "hash" : "0x063890c2ca79acdc940e73c1cfbd59c05fdf01cdb83611fa31603e8c186f3646",
                    "mixHash" : "0x04076f57cca6069697b89a09f496c74505edfa2a45b960316d5435cd309773e1",
                    "nonce" : "0x298bd6d66d9503f6",
                    "number" : "0x01",
                    "parentHash" : "0x291344a889111a114e7b95c072b4d01e0d5dc97ca34f1799f1b76a2428915134",
                    "receiptTrie" : "0x9fbfb95c6a9978d5b1037e5494736fed43f00f104824c015bb32830bace351aa",
                    "stateRoot" : "0x367f3a9d591b08a1112a739fa0d6c1d9b572980064ba431cce467f85e80e1dfa",
                    "timestamp" : "0x03e8",
                    "transactionsTrie" : "0x930b96e51a2ecd5435a7297b94143f9d14526ce3aac5667bb06c29b263b34511",
                    "uncleHash" : "0x1dcc4de8dec75d7aab85b567b6ccd41ad312451b948a7413f0a142fd40d49347"
                },
                "rlp" : "0xf90265f901fda0291344a889111a114e7b95c072b4d01e0d5dc97ca34f1799f1b76a2428915134a01dcc4de8dec75d7aab85b567b6ccd41ad312451b948a7413f0a142fd40d4934794b94f5374fce5edbc8e2a8697c15331677e6ebf0ba0367f3a9d591b08a1112a739fa0d6c1d9b572980064ba431cce467f85e80e1dfaa0930b96e51a2ecd5435a7297b94143f9d14526ce3aac5667bb06c29b263b34511a09fbfb95c6a9978d5b1037e5494736fed43f00f104824c015bb32830bace351aab90100000000000000000000000000000000000000000000000000000000000000000000000000000000000000000000000000000000000000000000000000000000000000000000000000000000000000000000000000000000000000000000000000000000000000000000000000000000000000000000000000000000000000000000000000000000000000000000000000000000000000000000000000000000000000000000000000000000000000000000000000000000000000000000000000000000000000000000000000000000000000000000000000000000000000000000000000000000000000000000000000000000000000000000000000000000008302000001887fffffffffffffff830289768203e880a004076f57cca6069697b89a09f496c74505edfa2a45b960316d5435cd309773e188298bd6d66d9503f6f862f86080018302897694bbbf5374fce5edbc8e2a8697c15331677e6ebf0b0a801ba0cd600f2ae2ff3787336c74911d1d25e053b81ae72dd849703c712558be496f7fa006d28736b0f78feb5c662d1fd09efcda95a090c2df24897cbbecd3c993bbf316c0",
                "transactions" : [
                    {
                        "data" : "",
                        "gasLimit" : "0x028976",
                        "gasPrice" : "0x01",
                        "nonce" : "0x00",
                        "r" : "0xcd600f2ae2ff3787336c74911d1d25e053b81ae72dd849703c712558be496f7f",
                        "s" : "0x06d28736b0f78feb5c662d1fd09efcda95a090c2df24897cbbecd3c993bbf316",
                        "to" : "0xbbbf5374fce5edbc8e2a8697c15331677e6ebf0b",
                        "v" : "0x1b",
                        "value" : "0x0a"
                    }
                ],
                "uncleHeaders" : [
                ]
            }
        ],
        "genesisBlockHeader" : {
            "bloom" : "0x00000000000000000000000000000000000000000000000000000000000000000000000000000000000000000000000000000000000000000000000000000000000000000000000000000000000000000000000000000000000000000000000000000000000000000000000000000000000000000000000000000000000000000000000000000000000000000000000000000000000000000000000000000000000000000000000000000000000000000000000000000000000000000000000000000000000000000000000000000000000000000000000000000000000000000000000000000000000000000000000000000000000000000000000000000000",
            "coinbase" : "0xb94f5374fce5edbc8e2a8697c15331677e6ebf0b",
            "difficulty" : "0x020000",
            "extraData" : "0x42",
            "gasLimit" : "0x7fffffffffffffff",
            "gasUsed" : "0x00",
            "hash" : "0x291344a889111a114e7b95c072b4d01e0d5dc97ca34f1799f1b76a2428915134",
            "mixHash" : "0x56e81f171bcc55a6ff8345e692c0f86e5b48e01b996cadc001622fb5e363b421",
            "nonce" : "0x0102030405060708",
            "number" : "0x00",
            "parentHash" : "0x0000000000000000000000000000000000000000000000000000000000000000",
            "receiptTrie" : "0x56e81f171bcc55a6ff8345e692c0f86e5b48e01b996cadc001622fb5e363b421",
            "stateRoot" : "0x433bc29f28e2e14afe21908debf417812fe2d4a2708e644c651b3c0ce7f5c06c",
            "timestamp" : "0x03b6",
            "transactionsTrie" : "0x56e81f171bcc55a6ff8345e692c0f86e5b48e01b996cadc001622fb5e363b421",
            "uncleHash" : "0x1dcc4de8dec75d7aab85b567b6ccd41ad312451b948a7413f0a142fd40d49347"
        },
        "genesisRLP" : "0xf901fff901faa00000000000000000000000000000000000000000000000000000000000000000a01dcc4de8dec75d7aab85b567b6ccd41ad312451b948a7413f0a142fd40d4934794b94f5374fce5edbc8e2a8697c15331677e6ebf0ba0433bc29f28e2e14afe21908debf417812fe2d4a2708e644c651b3c0ce7f5c06ca056e81f171bcc55a6ff8345e692c0f86e5b48e01b996cadc001622fb5e363b421a056e81f171bcc55a6ff8345e692c0f86e5b48e01b996cadc001622fb5e363b421b90100000000000000000000000000000000000000000000000000000000000000000000000000000000000000000000000000000000000000000000000000000000000000000000000000000000000000000000000000000000000000000000000000000000000000000000000000000000000000000000000000000000000000000000000000000000000000000000000000000000000000000000000000000000000000000000000000000000000000000000000000000000000000000000000000000000000000000000000000000000000000000000000000000000000000000000000000000000000000000000000000000000000000000000000000000000008302000080887fffffffffffffff808203b642a056e81f171bcc55a6ff8345e692c0f86e5b48e01b996cadc001622fb5e363b421880102030405060708c0c0",
        "lastblockhash" : "0x063890c2ca79acdc940e73c1cfbd59c05fdf01cdb83611fa31603e8c186f3646",
        "network" : "Frontier",
        "postState" : {
            "0xa94f5374fce5edbc8e2a8697c15331677e6ebf0b" : {
                "balance" : "0xfffffffffffffffffffffffffffd7689",
                "code" : "",
                "nonce" : "0x01",
                "storage" : {
                }
            },
            "0xaaaf5374fce5edbc8e2a8697c15331677e6ebf0b" : {
                "balance" : "0x1b58",
                "code" : "",
                "nonce" : "0x00",
                "storage" : {
                }
            },
            "0xb94f5374fce5edbc8e2a8697c15331677e6ebf0b" : {
                "balance" : "0x4563918244f68976",
                "code" : "",
                "nonce" : "0x00",
                "storage" : {
                }
            },
            "0xbbbf5374fce5edbc8e2a8697c15331677e6ebf0b" : {
                "balance" : "0x0400",
                "code" : "0x600160005401600055600060006000600073bbbf5374fce5edbc8e2a8697c15331677e6ebf0b620186a060005402600101f46001556103e860005402600101600255",
                "nonce" : "0x00",
                "storage" : {
                }
            }
        },
        "pre" : {
            "0xa94f5374fce5edbc8e2a8697c15331677e6ebf0b" : {
                "balance" : "0xffffffffffffffffffffffffffffffff",
                "code" : "",
                "nonce" : "0x00",
                "storage" : {
                }
            },
            "0xaaaf5374fce5edbc8e2a8697c15331677e6ebf0b" : {
                "balance" : "0x1b58",
                "code" : "",
                "nonce" : "0x00",
                "storage" : {
                }
            },
            "0xbbbf5374fce5edbc8e2a8697c15331677e6ebf0b" : {
                "balance" : "0x0400",
                "code" : "0x600160005401600055600060006000600073bbbf5374fce5edbc8e2a8697c15331677e6ebf0b620186a060005402600101f46001556103e860005402600101600255",
                "nonce" : "0x00",
                "storage" : {
                }
            }
        }
    },
    "CallcodeLoseGasOOG_d0g0v0_Homestead" : {
        "_info" : {
            "comment" : "",
            "filledwith" : "cpp-1.3.0+commit.6e0ce939.Linux.g++",
            "lllcversion" : "Version: 0.4.18-develop.2017.9.25+commit.a72237f2.Linux.g++",
            "source" : "src/BlockchainTestsFiller/GeneralStateTests/stDelegatecallTestHomestead/CallcodeLoseGasOOG_d0g0v0Filler.json",
            "sourceHash" : "42ef77087af7612e9934e59aa083440a6d5dec3ced0511df0de051cc740f76ca"
        },
        "blocks" : [
            {
                "blockHeader" : {
                    "bloom" : "0x00000000000000000000000000000000000000000000000000000000000000000000000000000000000000000000000000000000000000000000000000000000000000000000000000000000000000000000000000000000000000000000000000000000000000000000000000000000000000000000000000000000000000000000000000000000000000000000000000000000000000000000000000000000000000000000000000000000000000000000000000000000000000000000000000000000000000000000000000000000000000000000000000000000000000000000000000000000000000000000000000000000000000000000000000000000",
                    "coinbase" : "0xb94f5374fce5edbc8e2a8697c15331677e6ebf0b",
                    "difficulty" : "0x020000",
                    "extraData" : "",
                    "gasLimit" : "0x7fffffffffffffff",
                    "gasUsed" : "0x028972",
                    "hash" : "0x59dad72c8bef27d087650f8e1cd1a8ef24da9004d73cb40e626224aeb54e0493",
                    "mixHash" : "0x485353dea6d1c17b9560e2a0301ca4daad151d2b32f78b4c865b304f7b3e2ff5",
                    "nonce" : "0xcdb49861e991a921",
                    "number" : "0x01",
                    "parentHash" : "0x291344a889111a114e7b95c072b4d01e0d5dc97ca34f1799f1b76a2428915134",
                    "receiptTrie" : "0x55ae93aff0c2fb0d83c3dba3b7bd94ba3c2af35ab1068eb522758444395c055e",
                    "stateRoot" : "0xf3dc0ac9e459b1710f520f0437e96baf2f705fc361308178309fa76d1ed83b7f",
                    "timestamp" : "0x03e8",
                    "transactionsTrie" : "0x930b96e51a2ecd5435a7297b94143f9d14526ce3aac5667bb06c29b263b34511",
                    "uncleHash" : "0x1dcc4de8dec75d7aab85b567b6ccd41ad312451b948a7413f0a142fd40d49347"
                },
                "rlp" : "0xf90265f901fda0291344a889111a114e7b95c072b4d01e0d5dc97ca34f1799f1b76a2428915134a01dcc4de8dec75d7aab85b567b6ccd41ad312451b948a7413f0a142fd40d4934794b94f5374fce5edbc8e2a8697c15331677e6ebf0ba0f3dc0ac9e459b1710f520f0437e96baf2f705fc361308178309fa76d1ed83b7fa0930b96e51a2ecd5435a7297b94143f9d14526ce3aac5667bb06c29b263b34511a055ae93aff0c2fb0d83c3dba3b7bd94ba3c2af35ab1068eb522758444395c055eb90100000000000000000000000000000000000000000000000000000000000000000000000000000000000000000000000000000000000000000000000000000000000000000000000000000000000000000000000000000000000000000000000000000000000000000000000000000000000000000000000000000000000000000000000000000000000000000000000000000000000000000000000000000000000000000000000000000000000000000000000000000000000000000000000000000000000000000000000000000000000000000000000000000000000000000000000000000000000000000000000000000000000000000000000000000000008302000001887fffffffffffffff830289728203e880a0485353dea6d1c17b9560e2a0301ca4daad151d2b32f78b4c865b304f7b3e2ff588cdb49861e991a921f862f86080018302897694bbbf5374fce5edbc8e2a8697c15331677e6ebf0b0a801ba0cd600f2ae2ff3787336c74911d1d25e053b81ae72dd849703c712558be496f7fa006d28736b0f78feb5c662d1fd09efcda95a090c2df24897cbbecd3c993bbf316c0",
                "transactions" : [
                    {
                        "data" : "",
                        "gasLimit" : "0x028976",
                        "gasPrice" : "0x01",
                        "nonce" : "0x00",
                        "r" : "0xcd600f2ae2ff3787336c74911d1d25e053b81ae72dd849703c712558be496f7f",
                        "s" : "0x06d28736b0f78feb5c662d1fd09efcda95a090c2df24897cbbecd3c993bbf316",
                        "to" : "0xbbbf5374fce5edbc8e2a8697c15331677e6ebf0b",
                        "v" : "0x1b",
                        "value" : "0x0a"
                    }
                ],
                "uncleHeaders" : [
                ]
            }
        ],
        "genesisBlockHeader" : {
            "bloom" : "0x00000000000000000000000000000000000000000000000000000000000000000000000000000000000000000000000000000000000000000000000000000000000000000000000000000000000000000000000000000000000000000000000000000000000000000000000000000000000000000000000000000000000000000000000000000000000000000000000000000000000000000000000000000000000000000000000000000000000000000000000000000000000000000000000000000000000000000000000000000000000000000000000000000000000000000000000000000000000000000000000000000000000000000000000000000000",
            "coinbase" : "0xb94f5374fce5edbc8e2a8697c15331677e6ebf0b",
            "difficulty" : "0x020000",
            "extraData" : "0x42",
            "gasLimit" : "0x7fffffffffffffff",
            "gasUsed" : "0x00",
            "hash" : "0x291344a889111a114e7b95c072b4d01e0d5dc97ca34f1799f1b76a2428915134",
            "mixHash" : "0x56e81f171bcc55a6ff8345e692c0f86e5b48e01b996cadc001622fb5e363b421",
            "nonce" : "0x0102030405060708",
            "number" : "0x00",
            "parentHash" : "0x0000000000000000000000000000000000000000000000000000000000000000",
            "receiptTrie" : "0x56e81f171bcc55a6ff8345e692c0f86e5b48e01b996cadc001622fb5e363b421",
            "stateRoot" : "0x433bc29f28e2e14afe21908debf417812fe2d4a2708e644c651b3c0ce7f5c06c",
            "timestamp" : "0x03b6",
            "transactionsTrie" : "0x56e81f171bcc55a6ff8345e692c0f86e5b48e01b996cadc001622fb5e363b421",
            "uncleHash" : "0x1dcc4de8dec75d7aab85b567b6ccd41ad312451b948a7413f0a142fd40d49347"
        },
        "genesisRLP" : "0xf901fff901faa00000000000000000000000000000000000000000000000000000000000000000a01dcc4de8dec75d7aab85b567b6ccd41ad312451b948a7413f0a142fd40d4934794b94f5374fce5edbc8e2a8697c15331677e6ebf0ba0433bc29f28e2e14afe21908debf417812fe2d4a2708e644c651b3c0ce7f5c06ca056e81f171bcc55a6ff8345e692c0f86e5b48e01b996cadc001622fb5e363b421a056e81f171bcc55a6ff8345e692c0f86e5b48e01b996cadc001622fb5e363b421b90100000000000000000000000000000000000000000000000000000000000000000000000000000000000000000000000000000000000000000000000000000000000000000000000000000000000000000000000000000000000000000000000000000000000000000000000000000000000000000000000000000000000000000000000000000000000000000000000000000000000000000000000000000000000000000000000000000000000000000000000000000000000000000000000000000000000000000000000000000000000000000000000000000000000000000000000000000000000000000000000000000000000000000000000000000000008302000080887fffffffffffffff808203b642a056e81f171bcc55a6ff8345e692c0f86e5b48e01b996cadc001622fb5e363b421880102030405060708c0c0",
        "lastblockhash" : "0x59dad72c8bef27d087650f8e1cd1a8ef24da9004d73cb40e626224aeb54e0493",
        "network" : "Homestead",
        "postState" : {
            "0xa94f5374fce5edbc8e2a8697c15331677e6ebf0b" : {
                "balance" : "0xfffffffffffffffffffffffffffd7683",
                "code" : "",
                "nonce" : "0x01",
                "storage" : {
                }
            },
            "0xaaaf5374fce5edbc8e2a8697c15331677e6ebf0b" : {
                "balance" : "0x1b58",
                "code" : "",
                "nonce" : "0x00",
                "storage" : {
                }
            },
            "0xb94f5374fce5edbc8e2a8697c15331677e6ebf0b" : {
                "balance" : "0x4563918244f68972",
                "code" : "",
                "nonce" : "0x00",
                "storage" : {
                }
            },
            "0xbbbf5374fce5edbc8e2a8697c15331677e6ebf0b" : {
                "balance" : "0x040a",
                "code" : "0x600160005401600055600060006000600073bbbf5374fce5edbc8e2a8697c15331677e6ebf0b620186a060005402600101f46001556103e860005402600101600255",
                "nonce" : "0x00",
                "storage" : {
                    "0x00" : "0x01",
                    "0x02" : "0x03e9"
                }
            }
        },
        "pre" : {
            "0xa94f5374fce5edbc8e2a8697c15331677e6ebf0b" : {
                "balance" : "0xffffffffffffffffffffffffffffffff",
                "code" : "",
                "nonce" : "0x00",
                "storage" : {
                }
            },
            "0xaaaf5374fce5edbc8e2a8697c15331677e6ebf0b" : {
                "balance" : "0x1b58",
                "code" : "",
                "nonce" : "0x00",
                "storage" : {
                }
            },
            "0xbbbf5374fce5edbc8e2a8697c15331677e6ebf0b" : {
                "balance" : "0x0400",
                "code" : "0x600160005401600055600060006000600073bbbf5374fce5edbc8e2a8697c15331677e6ebf0b620186a060005402600101f46001556103e860005402600101600255",
                "nonce" : "0x00",
                "storage" : {
                }
            }
        }
    }
}