{
    "delegatecodeDynamicCode2SelfCall_d0g0v0_Byzantium" : {
        "_info" : {
            "comment" : "",
            "filledwith" : "cpp-1.3.0+commit.6e0ce939.Linux.g++",
            "lllcversion" : "Version: 0.4.18-develop.2017.9.25+commit.a72237f2.Linux.g++",
            "source" : "src/BlockchainTestsFiller/GeneralStateTests/stDelegatecallTestHomestead/delegatecodeDynamicCode2SelfCall_d0g0v0Filler.json",
            "sourceHash" : "9df18344e40a92305408fe58c4edbb6a99cdf0edad7d1a9cf330bb6793d3df82"
        },
        "blocks" : [
            {
                "blockHeader" : {
                    "bloom" : "0x00000000000000000000000000000000000000000000000000000000000000000000000000000000000000000000000000000000000000000000000000000000000000000000000000000000000000000000000000000000000000000000000000000000000000000000000000000000000000000000000000000000000000000000000000000000000000000000000000000000000000000000000000000000000000000000000000000000000000000000000000000000000000000000000000000000000000000000000000000000000000000000000000000000000000000000000000000000000000000000000000000000000000000000000000000000",
                    "coinbase" : "0x2adc25665018aa1fe0e6bc666dac8fc2697ff9ba",
                    "difficulty" : "0x020000",
                    "extraData" : "",
                    "gasLimit" : "0x0f4240",
                    "gasUsed" : "0x016e45",
                    "hash" : "0x946f5d14ce38125c632ac62d6924de9be16396de888a61bd44fcc5c0f769d91b",
                    "mixHash" : "0xf77332bf378748727253e2cf097ac5990d211dee21fe806b33dd122b0cf4b1ef",
                    "nonce" : "0xb16f61b62b8fb64a",
                    "number" : "0x01",
                    "parentHash" : "0x7544ecde610c9f1e5904ab3ef9c973d1c89ca37ac007e27bb983ea3473f8ab91",
                    "receiptTrie" : "0x063791b5d34ea9fb2a657951cd59015baafdbb42b6cecddca08c921da9d49087",
                    "stateRoot" : "0x0c72c6904e01f772f1aad7b8a125047c95a4c2eaff4fa4cdabcb8bf8d34172cb",
                    "timestamp" : "0x03e8",
                    "transactionsTrie" : "0x74b39e73f0c67b78fff4eb82226142222765b09c97c66d83d2aa030ec81c4f68",
                    "uncleHash" : "0x1dcc4de8dec75d7aab85b567b6ccd41ad312451b948a7413f0a142fd40d49347"
                },
                "rlp" : "0xf90260f901f8a07544ecde610c9f1e5904ab3ef9c973d1c89ca37ac007e27bb983ea3473f8ab91a01dcc4de8dec75d7aab85b567b6ccd41ad312451b948a7413f0a142fd40d49347942adc25665018aa1fe0e6bc666dac8fc2697ff9baa00c72c6904e01f772f1aad7b8a125047c95a4c2eaff4fa4cdabcb8bf8d34172cba074b39e73f0c67b78fff4eb82226142222765b09c97c66d83d2aa030ec81c4f68a0063791b5d34ea9fb2a657951cd59015baafdbb42b6cecddca08c921da9d49087b90100000000000000000000000000000000000000000000000000000000000000000000000000000000000000000000000000000000000000000000000000000000000000000000000000000000000000000000000000000000000000000000000000000000000000000000000000000000000000000000000000000000000000000000000000000000000000000000000000000000000000000000000000000000000000000000000000000000000000000000000000000000000000000000000000000000000000000000000000000000000000000000000000000000000000000000000000000000000000000000000000000000000000000000000000000000008302000001830f424083016e458203e880a0f77332bf378748727253e2cf097ac5990d211dee21fe806b33dd122b0cf4b1ef88b16f61b62b8fb64af862f86080018306e9d994100000000000000000000000000000000000000080801ba0f3800914fa5a27a13dc5a4119f11c1ae1c6874ad1e299f13e9f43e96c8bdaa0ea0332b1e65d433906232fbb38ec187498f66c29f6127864d94788d7de5bc1d4d32c0",
                "transactions" : [
                    {
                        "data" : "",
                        "gasLimit" : "0x06e9d9",
                        "gasPrice" : "0x01",
                        "nonce" : "0x00",
                        "r" : "0xf3800914fa5a27a13dc5a4119f11c1ae1c6874ad1e299f13e9f43e96c8bdaa0e",
                        "s" : "0x332b1e65d433906232fbb38ec187498f66c29f6127864d94788d7de5bc1d4d32",
                        "to" : "0x1000000000000000000000000000000000000000",
                        "v" : "0x1b",
                        "value" : "0x00"
                    }
                ],
                "uncleHeaders" : [
                ]
            }
        ],
        "genesisBlockHeader" : {
            "bloom" : "0x00000000000000000000000000000000000000000000000000000000000000000000000000000000000000000000000000000000000000000000000000000000000000000000000000000000000000000000000000000000000000000000000000000000000000000000000000000000000000000000000000000000000000000000000000000000000000000000000000000000000000000000000000000000000000000000000000000000000000000000000000000000000000000000000000000000000000000000000000000000000000000000000000000000000000000000000000000000000000000000000000000000000000000000000000000000",
            "coinbase" : "0x2adc25665018aa1fe0e6bc666dac8fc2697ff9ba",
            "difficulty" : "0x020000",
            "extraData" : "0x42",
            "gasLimit" : "0x0f4240",
            "gasUsed" : "0x00",
            "hash" : "0x7544ecde610c9f1e5904ab3ef9c973d1c89ca37ac007e27bb983ea3473f8ab91",
            "mixHash" : "0x56e81f171bcc55a6ff8345e692c0f86e5b48e01b996cadc001622fb5e363b421",
            "nonce" : "0x0102030405060708",
            "number" : "0x00",
            "parentHash" : "0x0000000000000000000000000000000000000000000000000000000000000000",
            "receiptTrie" : "0x56e81f171bcc55a6ff8345e692c0f86e5b48e01b996cadc001622fb5e363b421",
            "stateRoot" : "0x5e7a60ce17417b67ff95745eb0f5eba4022784771cfbe9a6607ce1c422acadfa",
            "timestamp" : "0x03b6",
            "transactionsTrie" : "0x56e81f171bcc55a6ff8345e692c0f86e5b48e01b996cadc001622fb5e363b421",
            "uncleHash" : "0x1dcc4de8dec75d7aab85b567b6ccd41ad312451b948a7413f0a142fd40d49347"
        },
        "genesisRLP" : "0xf901faf901f5a00000000000000000000000000000000000000000000000000000000000000000a01dcc4de8dec75d7aab85b567b6ccd41ad312451b948a7413f0a142fd40d49347942adc25665018aa1fe0e6bc666dac8fc2697ff9baa05e7a60ce17417b67ff95745eb0f5eba4022784771cfbe9a6607ce1c422acadfaa056e81f171bcc55a6ff8345e692c0f86e5b48e01b996cadc001622fb5e363b421a056e81f171bcc55a6ff8345e692c0f86e5b48e01b996cadc001622fb5e363b421b90100000000000000000000000000000000000000000000000000000000000000000000000000000000000000000000000000000000000000000000000000000000000000000000000000000000000000000000000000000000000000000000000000000000000000000000000000000000000000000000000000000000000000000000000000000000000000000000000000000000000000000000000000000000000000000000000000000000000000000000000000000000000000000000000000000000000000000000000000000000000000000000000000000000000000000000000000000000000000000000000000000000000000000000000000000000008302000080830f4240808203b642a056e81f171bcc55a6ff8345e692c0f86e5b48e01b996cadc001622fb5e363b421880102030405060708c0c0",
        "lastblockhash" : "0x946f5d14ce38125c632ac62d6924de9be16396de888a61bd44fcc5c0f769d91b",
        "network" : "Byzantium",
        "postState" : {
            "0x1000000000000000000000000000000000000000" : {
                "balance" : "0x10c8df",
                "code" : "0x7f60406000604060007313136008b64ff592819b2fa6d43f2835c452020e6201866000527fa0f4600b5533600c550000000000000000000000000000000000000000000000602052604060006001f0",
                "nonce" : "0x01",
                "storage" : {
                }
            },
            "0x13136008b64ff592819b2fa6d43f2835c452020e" : {
                "balance" : "0x01",
                "code" : "",
                "nonce" : "0x01",
                "storage" : {
                    "0x0b" : "0x01",
                    "0x0c" : "0x1000000000000000000000000000000000000000"
                }
            },
            "0x2adc25665018aa1fe0e6bc666dac8fc2697ff9ba" : {
                "balance" : "0x29a2241af62d6e45",
                "code" : "",
                "nonce" : "0x00",
                "storage" : {
                }
            },
            "0xa94f5374fce5edbc8e2a8697c15331677e6ebf0b" : {
                "balance" : "0x2386f26fbf91bb",
                "code" : "",
                "nonce" : "0x01",
                "storage" : {
                }
            }
        },
        "pre" : {
            "0x1000000000000000000000000000000000000000" : {
                "balance" : "0x10c8e0",
                "code" : "0x7f60406000604060007313136008b64ff592819b2fa6d43f2835c452020e6201866000527fa0f4600b5533600c550000000000000000000000000000000000000000000000602052604060006001f0",
                "nonce" : "0x00",
                "storage" : {
                }
            },
            "0xa94f5374fce5edbc8e2a8697c15331677e6ebf0b" : {
                "balance" : "0x2386f26fc10000",
                "code" : "",
                "nonce" : "0x00",
                "storage" : {
                }
            }
        }
    },
    "delegatecodeDynamicCode2SelfCall_d0g0v0_EIP150" : {
        "_info" : {
            "comment" : "",
            "filledwith" : "cpp-1.3.0+commit.6e0ce939.Linux.g++",
            "lllcversion" : "Version: 0.4.18-develop.2017.9.25+commit.a72237f2.Linux.g++",
            "source" : "src/BlockchainTestsFiller/GeneralStateTests/stDelegatecallTestHomestead/delegatecodeDynamicCode2SelfCall_d0g0v0Filler.json",
            "sourceHash" : "9df18344e40a92305408fe58c4edbb6a99cdf0edad7d1a9cf330bb6793d3df82"
        },
        "blocks" : [
            {
                "blockHeader" : {
                    "bloom" : "0x00000000000000000000000000000000000000000000000000000000000000000000000000000000000000000000000000000000000000000000000000000000000000000000000000000000000000000000000000000000000000000000000000000000000000000000000000000000000000000000000000000000000000000000000000000000000000000000000000000000000000000000000000000000000000000000000000000000000000000000000000000000000000000000000000000000000000000000000000000000000000000000000000000000000000000000000000000000000000000000000000000000000000000000000000000000",
                    "coinbase" : "0x2adc25665018aa1fe0e6bc666dac8fc2697ff9ba",
                    "difficulty" : "0x020000",
                    "extraData" : "",
                    "gasLimit" : "0x0f4240",
                    "gasUsed" : "0x016e45",
                    "hash" : "0xcf89a7ec64d39fa371e090cc59f5379750b2fff32d15ea1e1c93bbe63227b7dc",
                    "mixHash" : "0x3ce9c7f1379df3e77d724f28cdf2eb37de0615a92cc58b116c2d3eadeac720cc",
                    "nonce" : "0xf35b24d4a3be1daf",
                    "number" : "0x01",
                    "parentHash" : "0x7544ecde610c9f1e5904ab3ef9c973d1c89ca37ac007e27bb983ea3473f8ab91",
                    "receiptTrie" : "0x6c40781d4b933d619eb8fff4a3f9ae86722df3a38b389b0e685d8fa501523304",
                    "stateRoot" : "0x21d8692072d6c0224c66eaee4e3658bba2c06a769a2e6f2f96151b1879fe145e",
                    "timestamp" : "0x03e8",
                    "transactionsTrie" : "0x74b39e73f0c67b78fff4eb82226142222765b09c97c66d83d2aa030ec81c4f68",
                    "uncleHash" : "0x1dcc4de8dec75d7aab85b567b6ccd41ad312451b948a7413f0a142fd40d49347"
                },
                "rlp" : "0xf90260f901f8a07544ecde610c9f1e5904ab3ef9c973d1c89ca37ac007e27bb983ea3473f8ab91a01dcc4de8dec75d7aab85b567b6ccd41ad312451b948a7413f0a142fd40d49347942adc25665018aa1fe0e6bc666dac8fc2697ff9baa021d8692072d6c0224c66eaee4e3658bba2c06a769a2e6f2f96151b1879fe145ea074b39e73f0c67b78fff4eb82226142222765b09c97c66d83d2aa030ec81c4f68a06c40781d4b933d619eb8fff4a3f9ae86722df3a38b389b0e685d8fa501523304b90100000000000000000000000000000000000000000000000000000000000000000000000000000000000000000000000000000000000000000000000000000000000000000000000000000000000000000000000000000000000000000000000000000000000000000000000000000000000000000000000000000000000000000000000000000000000000000000000000000000000000000000000000000000000000000000000000000000000000000000000000000000000000000000000000000000000000000000000000000000000000000000000000000000000000000000000000000000000000000000000000000000000000000000000000000000008302000001830f424083016e458203e880a03ce9c7f1379df3e77d724f28cdf2eb37de0615a92cc58b116c2d3eadeac720cc88f35b24d4a3be1daff862f86080018306e9d994100000000000000000000000000000000000000080801ba0f3800914fa5a27a13dc5a4119f11c1ae1c6874ad1e299f13e9f43e96c8bdaa0ea0332b1e65d433906232fbb38ec187498f66c29f6127864d94788d7de5bc1d4d32c0",
                "transactions" : [
                    {
                        "data" : "",
                        "gasLimit" : "0x06e9d9",
                        "gasPrice" : "0x01",
                        "nonce" : "0x00",
                        "r" : "0xf3800914fa5a27a13dc5a4119f11c1ae1c6874ad1e299f13e9f43e96c8bdaa0e",
                        "s" : "0x332b1e65d433906232fbb38ec187498f66c29f6127864d94788d7de5bc1d4d32",
                        "to" : "0x1000000000000000000000000000000000000000",
                        "v" : "0x1b",
                        "value" : "0x00"
                    }
                ],
                "uncleHeaders" : [
                ]
            }
        ],
        "genesisBlockHeader" : {
            "bloom" : "0x00000000000000000000000000000000000000000000000000000000000000000000000000000000000000000000000000000000000000000000000000000000000000000000000000000000000000000000000000000000000000000000000000000000000000000000000000000000000000000000000000000000000000000000000000000000000000000000000000000000000000000000000000000000000000000000000000000000000000000000000000000000000000000000000000000000000000000000000000000000000000000000000000000000000000000000000000000000000000000000000000000000000000000000000000000000",
            "coinbase" : "0x2adc25665018aa1fe0e6bc666dac8fc2697ff9ba",
            "difficulty" : "0x020000",
            "extraData" : "0x42",
            "gasLimit" : "0x0f4240",
            "gasUsed" : "0x00",
            "hash" : "0x7544ecde610c9f1e5904ab3ef9c973d1c89ca37ac007e27bb983ea3473f8ab91",
            "mixHash" : "0x56e81f171bcc55a6ff8345e692c0f86e5b48e01b996cadc001622fb5e363b421",
            "nonce" : "0x0102030405060708",
            "number" : "0x00",
            "parentHash" : "0x0000000000000000000000000000000000000000000000000000000000000000",
            "receiptTrie" : "0x56e81f171bcc55a6ff8345e692c0f86e5b48e01b996cadc001622fb5e363b421",
            "stateRoot" : "0x5e7a60ce17417b67ff95745eb0f5eba4022784771cfbe9a6607ce1c422acadfa",
            "timestamp" : "0x03b6",
            "transactionsTrie" : "0x56e81f171bcc55a6ff8345e692c0f86e5b48e01b996cadc001622fb5e363b421",
            "uncleHash" : "0x1dcc4de8dec75d7aab85b567b6ccd41ad312451b948a7413f0a142fd40d49347"
        },
        "genesisRLP" : "0xf901faf901f5a00000000000000000000000000000000000000000000000000000000000000000a01dcc4de8dec75d7aab85b567b6ccd41ad312451b948a7413f0a142fd40d49347942adc25665018aa1fe0e6bc666dac8fc2697ff9baa05e7a60ce17417b67ff95745eb0f5eba4022784771cfbe9a6607ce1c422acadfaa056e81f171bcc55a6ff8345e692c0f86e5b48e01b996cadc001622fb5e363b421a056e81f171bcc55a6ff8345e692c0f86e5b48e01b996cadc001622fb5e363b421b90100000000000000000000000000000000000000000000000000000000000000000000000000000000000000000000000000000000000000000000000000000000000000000000000000000000000000000000000000000000000000000000000000000000000000000000000000000000000000000000000000000000000000000000000000000000000000000000000000000000000000000000000000000000000000000000000000000000000000000000000000000000000000000000000000000000000000000000000000000000000000000000000000000000000000000000000000000000000000000000000000000000000000000000000000000000008302000080830f4240808203b642a056e81f171bcc55a6ff8345e692c0f86e5b48e01b996cadc001622fb5e363b421880102030405060708c0c0",
        "lastblockhash" : "0xcf89a7ec64d39fa371e090cc59f5379750b2fff32d15ea1e1c93bbe63227b7dc",
        "network" : "EIP150",
        "postState" : {
            "0x1000000000000000000000000000000000000000" : {
                "balance" : "0x10c8df",
                "code" : "0x7f60406000604060007313136008b64ff592819b2fa6d43f2835c452020e6201866000527fa0f4600b5533600c550000000000000000000000000000000000000000000000602052604060006001f0",
                "nonce" : "0x01",
                "storage" : {
                }
            },
            "0x13136008b64ff592819b2fa6d43f2835c452020e" : {
                "balance" : "0x01",
                "code" : "",
                "nonce" : "0x00",
                "storage" : {
                    "0x0b" : "0x01",
                    "0x0c" : "0x1000000000000000000000000000000000000000"
                }
            },
            "0x2adc25665018aa1fe0e6bc666dac8fc2697ff9ba" : {
                "balance" : "0x4563918244f56e45",
                "code" : "",
                "nonce" : "0x00",
                "storage" : {
                }
            },
            "0xa94f5374fce5edbc8e2a8697c15331677e6ebf0b" : {
                "balance" : "0x2386f26fbf91bb",
                "code" : "",
                "nonce" : "0x01",
                "storage" : {
                }
            }
        },
        "pre" : {
            "0x1000000000000000000000000000000000000000" : {
                "balance" : "0x10c8e0",
                "code" : "0x7f60406000604060007313136008b64ff592819b2fa6d43f2835c452020e6201866000527fa0f4600b5533600c550000000000000000000000000000000000000000000000602052604060006001f0",
                "nonce" : "0x00",
                "storage" : {
                }
            },
            "0xa94f5374fce5edbc8e2a8697c15331677e6ebf0b" : {
                "balance" : "0x2386f26fc10000",
                "code" : "",
                "nonce" : "0x00",
                "storage" : {
                }
            }
        }
    },
    "delegatecodeDynamicCode2SelfCall_d0g0v0_EIP158" : {
        "_info" : {
            "comment" : "",
            "filledwith" : "cpp-1.3.0+commit.6e0ce939.Linux.g++",
            "lllcversion" : "Version: 0.4.18-develop.2017.9.25+commit.a72237f2.Linux.g++",
            "source" : "src/BlockchainTestsFiller/GeneralStateTests/stDelegatecallTestHomestead/delegatecodeDynamicCode2SelfCall_d0g0v0Filler.json",
            "sourceHash" : "9df18344e40a92305408fe58c4edbb6a99cdf0edad7d1a9cf330bb6793d3df82"
        },
        "blocks" : [
            {
                "blockHeader" : {
                    "bloom" : "0x00000000000000000000000000000000000000000000000000000000000000000000000000000000000000000000000000000000000000000000000000000000000000000000000000000000000000000000000000000000000000000000000000000000000000000000000000000000000000000000000000000000000000000000000000000000000000000000000000000000000000000000000000000000000000000000000000000000000000000000000000000000000000000000000000000000000000000000000000000000000000000000000000000000000000000000000000000000000000000000000000000000000000000000000000000000",
                    "coinbase" : "0x2adc25665018aa1fe0e6bc666dac8fc2697ff9ba",
                    "difficulty" : "0x020000",
                    "extraData" : "",
                    "gasLimit" : "0x0f4240",
                    "gasUsed" : "0x016e45",
                    "hash" : "0x79060d7f1f1342e77276d6d45d54309ee7ddfad62e7c1bc518f87ac9f976ca11",
                    "mixHash" : "0xe4bf23b6eea98c06deb24aaadd32800462c641e609ed03c32c4de81047981de0",
                    "nonce" : "0xfe7b0377e44f7922",
                    "number" : "0x01",
                    "parentHash" : "0x7544ecde610c9f1e5904ab3ef9c973d1c89ca37ac007e27bb983ea3473f8ab91",
                    "receiptTrie" : "0x03a137694bd472d52b0cb297a2ca36b74c33e5e8293d49ebc64b3c260c9835dc",
                    "stateRoot" : "0xcf36a358606afc23acfbef699fa4ee058e28278b04bebceba1c53dabbf900e81",
                    "timestamp" : "0x03e8",
                    "transactionsTrie" : "0x74b39e73f0c67b78fff4eb82226142222765b09c97c66d83d2aa030ec81c4f68",
                    "uncleHash" : "0x1dcc4de8dec75d7aab85b567b6ccd41ad312451b948a7413f0a142fd40d49347"
                },
                "rlp" : "0xf90260f901f8a07544ecde610c9f1e5904ab3ef9c973d1c89ca37ac007e27bb983ea3473f8ab91a01dcc4de8dec75d7aab85b567b6ccd41ad312451b948a7413f0a142fd40d49347942adc25665018aa1fe0e6bc666dac8fc2697ff9baa0cf36a358606afc23acfbef699fa4ee058e28278b04bebceba1c53dabbf900e81a074b39e73f0c67b78fff4eb82226142222765b09c97c66d83d2aa030ec81c4f68a003a137694bd472d52b0cb297a2ca36b74c33e5e8293d49ebc64b3c260c9835dcb90100000000000000000000000000000000000000000000000000000000000000000000000000000000000000000000000000000000000000000000000000000000000000000000000000000000000000000000000000000000000000000000000000000000000000000000000000000000000000000000000000000000000000000000000000000000000000000000000000000000000000000000000000000000000000000000000000000000000000000000000000000000000000000000000000000000000000000000000000000000000000000000000000000000000000000000000000000000000000000000000000000000000000000000000000000000008302000001830f424083016e458203e880a0e4bf23b6eea98c06deb24aaadd32800462c641e609ed03c32c4de81047981de088fe7b0377e44f7922f862f86080018306e9d994100000000000000000000000000000000000000080801ba0f3800914fa5a27a13dc5a4119f11c1ae1c6874ad1e299f13e9f43e96c8bdaa0ea0332b1e65d433906232fbb38ec187498f66c29f6127864d94788d7de5bc1d4d32c0",
                "transactions" : [
                    {
                        "data" : "",
                        "gasLimit" : "0x06e9d9",
                        "gasPrice" : "0x01",
                        "nonce" : "0x00",
                        "r" : "0xf3800914fa5a27a13dc5a4119f11c1ae1c6874ad1e299f13e9f43e96c8bdaa0e",
                        "s" : "0x332b1e65d433906232fbb38ec187498f66c29f6127864d94788d7de5bc1d4d32",
                        "to" : "0x1000000000000000000000000000000000000000",
                        "v" : "0x1b",
                        "value" : "0x00"
                    }
                ],
                "uncleHeaders" : [
                ]
            }
        ],
        "genesisBlockHeader" : {
            "bloom" : "0x00000000000000000000000000000000000000000000000000000000000000000000000000000000000000000000000000000000000000000000000000000000000000000000000000000000000000000000000000000000000000000000000000000000000000000000000000000000000000000000000000000000000000000000000000000000000000000000000000000000000000000000000000000000000000000000000000000000000000000000000000000000000000000000000000000000000000000000000000000000000000000000000000000000000000000000000000000000000000000000000000000000000000000000000000000000",
            "coinbase" : "0x2adc25665018aa1fe0e6bc666dac8fc2697ff9ba",
            "difficulty" : "0x020000",
            "extraData" : "0x42",
            "gasLimit" : "0x0f4240",
            "gasUsed" : "0x00",
            "hash" : "0x7544ecde610c9f1e5904ab3ef9c973d1c89ca37ac007e27bb983ea3473f8ab91",
            "mixHash" : "0x56e81f171bcc55a6ff8345e692c0f86e5b48e01b996cadc001622fb5e363b421",
            "nonce" : "0x0102030405060708",
            "number" : "0x00",
            "parentHash" : "0x0000000000000000000000000000000000000000000000000000000000000000",
            "receiptTrie" : "0x56e81f171bcc55a6ff8345e692c0f86e5b48e01b996cadc001622fb5e363b421",
            "stateRoot" : "0x5e7a60ce17417b67ff95745eb0f5eba4022784771cfbe9a6607ce1c422acadfa",
            "timestamp" : "0x03b6",
            "transactionsTrie" : "0x56e81f171bcc55a6ff8345e692c0f86e5b48e01b996cadc001622fb5e363b421",
            "uncleHash" : "0x1dcc4de8dec75d7aab85b567b6ccd41ad312451b948a7413f0a142fd40d49347"
        },
        "genesisRLP" : "0xf901faf901f5a00000000000000000000000000000000000000000000000000000000000000000a01dcc4de8dec75d7aab85b567b6ccd41ad312451b948a7413f0a142fd40d49347942adc25665018aa1fe0e6bc666dac8fc2697ff9baa05e7a60ce17417b67ff95745eb0f5eba4022784771cfbe9a6607ce1c422acadfaa056e81f171bcc55a6ff8345e692c0f86e5b48e01b996cadc001622fb5e363b421a056e81f171bcc55a6ff8345e692c0f86e5b48e01b996cadc001622fb5e363b421b90100000000000000000000000000000000000000000000000000000000000000000000000000000000000000000000000000000000000000000000000000000000000000000000000000000000000000000000000000000000000000000000000000000000000000000000000000000000000000000000000000000000000000000000000000000000000000000000000000000000000000000000000000000000000000000000000000000000000000000000000000000000000000000000000000000000000000000000000000000000000000000000000000000000000000000000000000000000000000000000000000000000000000000000000000000000008302000080830f4240808203b642a056e81f171bcc55a6ff8345e692c0f86e5b48e01b996cadc001622fb5e363b421880102030405060708c0c0",
        "lastblockhash" : "0x79060d7f1f1342e77276d6d45d54309ee7ddfad62e7c1bc518f87ac9f976ca11",
        "network" : "EIP158",
        "postState" : {
            "0x1000000000000000000000000000000000000000" : {
                "balance" : "0x10c8df",
                "code" : "0x7f60406000604060007313136008b64ff592819b2fa6d43f2835c452020e6201866000527fa0f4600b5533600c550000000000000000000000000000000000000000000000602052604060006001f0",
                "nonce" : "0x01",
                "storage" : {
                }
            },
            "0x13136008b64ff592819b2fa6d43f2835c452020e" : {
                "balance" : "0x01",
                "code" : "",
                "nonce" : "0x01",
                "storage" : {
                    "0x0b" : "0x01",
                    "0x0c" : "0x1000000000000000000000000000000000000000"
                }
            },
            "0x2adc25665018aa1fe0e6bc666dac8fc2697ff9ba" : {
                "balance" : "0x4563918244f56e45",
                "code" : "",
                "nonce" : "0x00",
                "storage" : {
                }
            },
            "0xa94f5374fce5edbc8e2a8697c15331677e6ebf0b" : {
                "balance" : "0x2386f26fbf91bb",
                "code" : "",
                "nonce" : "0x01",
                "storage" : {
                }
            }
        },
        "pre" : {
            "0x1000000000000000000000000000000000000000" : {
                "balance" : "0x10c8e0",
                "code" : "0x7f60406000604060007313136008b64ff592819b2fa6d43f2835c452020e6201866000527fa0f4600b5533600c550000000000000000000000000000000000000000000000602052604060006001f0",
                "nonce" : "0x00",
                "storage" : {
                }
            },
            "0xa94f5374fce5edbc8e2a8697c15331677e6ebf0b" : {
                "balance" : "0x2386f26fc10000",
                "code" : "",
                "nonce" : "0x00",
                "storage" : {
                }
            }
        }
    },
    "delegatecodeDynamicCode2SelfCall_d0g0v0_Frontier" : {
        "_info" : {
            "comment" : "",
            "filledwith" : "cpp-1.3.0+commit.6e0ce939.Linux.g++",
            "lllcversion" : "Version: 0.4.18-develop.2017.9.25+commit.a72237f2.Linux.g++",
            "source" : "src/BlockchainTestsFiller/GeneralStateTests/stDelegatecallTestHomestead/delegatecodeDynamicCode2SelfCall_d0g0v0Filler.json",
            "sourceHash" : "9df18344e40a92305408fe58c4edbb6a99cdf0edad7d1a9cf330bb6793d3df82"
        },
        "blocks" : [
            {
                "blockHeader" : {
                    "bloom" : "0x00000000000000000000000000000000000000000000000000000000000000000000000000000000000000000000000000000000000000000000000000000000000000000000000000000000000000000000000000000000000000000000000000000000000000000000000000000000000000000000000000000000000000000000000000000000000000000000000000000000000000000000000000000000000000000000000000000000000000000000000000000000000000000000000000000000000000000000000000000000000000000000000000000000000000000000000000000000000000000000000000000000000000000000000000000000",
                    "coinbase" : "0x2adc25665018aa1fe0e6bc666dac8fc2697ff9ba",
                    "difficulty" : "0x020000",
                    "extraData" : "",
                    "gasLimit" : "0x0f4240",
                    "gasUsed" : "0x06e9d9",
                    "hash" : "0x2ffe95317a76f16a206f964b1a9ef2971f47df028c1d006bc86ee074111180c2",
                    "mixHash" : "0xdbb41959253e4947e885a9bfd267a4b6231fee08188eadc4d10951466eefa087",
                    "nonce" : "0xba48daba28f51acf",
                    "number" : "0x01",
                    "parentHash" : "0x7544ecde610c9f1e5904ab3ef9c973d1c89ca37ac007e27bb983ea3473f8ab91",
                    "receiptTrie" : "0xef0548b634b0b4cd3bd5d2f6b470e47e2236f9784a5b975bdf9d327914a97c65",
                    "stateRoot" : "0x17c579eef72be6b71d95e31b73fccfa95c138f56bcaecd161190e8c41f805084",
                    "timestamp" : "0x03e8",
                    "transactionsTrie" : "0x74b39e73f0c67b78fff4eb82226142222765b09c97c66d83d2aa030ec81c4f68",
                    "uncleHash" : "0x1dcc4de8dec75d7aab85b567b6ccd41ad312451b948a7413f0a142fd40d49347"
                },
                "rlp" : "0xf90260f901f8a07544ecde610c9f1e5904ab3ef9c973d1c89ca37ac007e27bb983ea3473f8ab91a01dcc4de8dec75d7aab85b567b6ccd41ad312451b948a7413f0a142fd40d49347942adc25665018aa1fe0e6bc666dac8fc2697ff9baa017c579eef72be6b71d95e31b73fccfa95c138f56bcaecd161190e8c41f805084a074b39e73f0c67b78fff4eb82226142222765b09c97c66d83d2aa030ec81c4f68a0ef0548b634b0b4cd3bd5d2f6b470e47e2236f9784a5b975bdf9d327914a97c65b90100000000000000000000000000000000000000000000000000000000000000000000000000000000000000000000000000000000000000000000000000000000000000000000000000000000000000000000000000000000000000000000000000000000000000000000000000000000000000000000000000000000000000000000000000000000000000000000000000000000000000000000000000000000000000000000000000000000000000000000000000000000000000000000000000000000000000000000000000000000000000000000000000000000000000000000000000000000000000000000000000000000000000000000000000000000008302000001830f42408306e9d98203e880a0dbb41959253e4947e885a9bfd267a4b6231fee08188eadc4d10951466eefa08788ba48daba28f51acff862f86080018306e9d994100000000000000000000000000000000000000080801ba0f3800914fa5a27a13dc5a4119f11c1ae1c6874ad1e299f13e9f43e96c8bdaa0ea0332b1e65d433906232fbb38ec187498f66c29f6127864d94788d7de5bc1d4d32c0",
                "transactions" : [
                    {
                        "data" : "",
                        "gasLimit" : "0x06e9d9",
                        "gasPrice" : "0x01",
                        "nonce" : "0x00",
                        "r" : "0xf3800914fa5a27a13dc5a4119f11c1ae1c6874ad1e299f13e9f43e96c8bdaa0e",
                        "s" : "0x332b1e65d433906232fbb38ec187498f66c29f6127864d94788d7de5bc1d4d32",
                        "to" : "0x1000000000000000000000000000000000000000",
                        "v" : "0x1b",
                        "value" : "0x00"
                    }
                ],
                "uncleHeaders" : [
                ]
            }
        ],
        "genesisBlockHeader" : {
            "bloom" : "0x00000000000000000000000000000000000000000000000000000000000000000000000000000000000000000000000000000000000000000000000000000000000000000000000000000000000000000000000000000000000000000000000000000000000000000000000000000000000000000000000000000000000000000000000000000000000000000000000000000000000000000000000000000000000000000000000000000000000000000000000000000000000000000000000000000000000000000000000000000000000000000000000000000000000000000000000000000000000000000000000000000000000000000000000000000000",
            "coinbase" : "0x2adc25665018aa1fe0e6bc666dac8fc2697ff9ba",
            "difficulty" : "0x020000",
            "extraData" : "0x42",
            "gasLimit" : "0x0f4240",
            "gasUsed" : "0x00",
            "hash" : "0x7544ecde610c9f1e5904ab3ef9c973d1c89ca37ac007e27bb983ea3473f8ab91",
            "mixHash" : "0x56e81f171bcc55a6ff8345e692c0f86e5b48e01b996cadc001622fb5e363b421",
            "nonce" : "0x0102030405060708",
            "number" : "0x00",
            "parentHash" : "0x0000000000000000000000000000000000000000000000000000000000000000",
            "receiptTrie" : "0x56e81f171bcc55a6ff8345e692c0f86e5b48e01b996cadc001622fb5e363b421",
            "stateRoot" : "0x5e7a60ce17417b67ff95745eb0f5eba4022784771cfbe9a6607ce1c422acadfa",
            "timestamp" : "0x03b6",
            "transactionsTrie" : "0x56e81f171bcc55a6ff8345e692c0f86e5b48e01b996cadc001622fb5e363b421",
            "uncleHash" : "0x1dcc4de8dec75d7aab85b567b6ccd41ad312451b948a7413f0a142fd40d49347"
        },
        "genesisRLP" : "0xf901faf901f5a00000000000000000000000000000000000000000000000000000000000000000a01dcc4de8dec75d7aab85b567b6ccd41ad312451b948a7413f0a142fd40d49347942adc25665018aa1fe0e6bc666dac8fc2697ff9baa05e7a60ce17417b67ff95745eb0f5eba4022784771cfbe9a6607ce1c422acadfaa056e81f171bcc55a6ff8345e692c0f86e5b48e01b996cadc001622fb5e363b421a056e81f171bcc55a6ff8345e692c0f86e5b48e01b996cadc001622fb5e363b421b90100000000000000000000000000000000000000000000000000000000000000000000000000000000000000000000000000000000000000000000000000000000000000000000000000000000000000000000000000000000000000000000000000000000000000000000000000000000000000000000000000000000000000000000000000000000000000000000000000000000000000000000000000000000000000000000000000000000000000000000000000000000000000000000000000000000000000000000000000000000000000000000000000000000000000000000000000000000000000000000000000000000000000000000000000000000008302000080830f4240808203b642a056e81f171bcc55a6ff8345e692c0f86e5b48e01b996cadc001622fb5e363b421880102030405060708c0c0",
        "lastblockhash" : "0x2ffe95317a76f16a206f964b1a9ef2971f47df028c1d006bc86ee074111180c2",
        "network" : "Frontier",
        "postState" : {
            "0x1000000000000000000000000000000000000000" : {
                "balance" : "0x10c8e0",
                "code" : "0x7f60406000604060007313136008b64ff592819b2fa6d43f2835c452020e6201866000527fa0f4600b5533600c550000000000000000000000000000000000000000000000602052604060006001f0",
                "nonce" : "0x01",
                "storage" : {
                }
            },
            "0x2adc25665018aa1fe0e6bc666dac8fc2697ff9ba" : {
                "balance" : "0x4563918244fae9d9",
                "code" : "",
                "nonce" : "0x00",
                "storage" : {
                }
            },
            "0xa94f5374fce5edbc8e2a8697c15331677e6ebf0b" : {
                "balance" : "0x2386f26fba1627",
                "code" : "",
                "nonce" : "0x01",
                "storage" : {
                }
            }
        },
        "pre" : {
            "0x1000000000000000000000000000000000000000" : {
                "balance" : "0x10c8e0",
                "code" : "0x7f60406000604060007313136008b64ff592819b2fa6d43f2835c452020e6201866000527fa0f4600b5533600c550000000000000000000000000000000000000000000000602052604060006001f0",
                "nonce" : "0x00",
                "storage" : {
                }
            },
            "0xa94f5374fce5edbc8e2a8697c15331677e6ebf0b" : {
                "balance" : "0x2386f26fc10000",
                "code" : "",
                "nonce" : "0x00",
                "storage" : {
                }
            }
        }
    },
    "delegatecodeDynamicCode2SelfCall_d0g0v0_Homestead" : {
        "_info" : {
            "comment" : "",
            "filledwith" : "cpp-1.3.0+commit.6e0ce939.Linux.g++",
            "lllcversion" : "Version: 0.4.18-develop.2017.9.25+commit.a72237f2.Linux.g++",
            "source" : "src/BlockchainTestsFiller/GeneralStateTests/stDelegatecallTestHomestead/delegatecodeDynamicCode2SelfCall_d0g0v0Filler.json",
            "sourceHash" : "9df18344e40a92305408fe58c4edbb6a99cdf0edad7d1a9cf330bb6793d3df82"
        },
        "blocks" : [
            {
                "blockHeader" : {
                    "bloom" : "0x00000000000000000000000000000000000000000000000000000000000000000000000000000000000000000000000000000000000000000000000000000000000000000000000000000000000000000000000000000000000000000000000000000000000000000000000000000000000000000000000000000000000000000000000000000000000000000000000000000000000000000000000000000000000000000000000000000000000000000000000000000000000000000000000000000000000000000000000000000000000000000000000000000000000000000000000000000000000000000000000000000000000000000000000000000000",
                    "coinbase" : "0x2adc25665018aa1fe0e6bc666dac8fc2697ff9ba",
                    "difficulty" : "0x020000",
                    "extraData" : "",
                    "gasLimit" : "0x0f4240",
                    "gasUsed" : "0x016bb1",
                    "hash" : "0x7920b2101866e704dbfe33cf8d7e34192089361a567e6b05891185f68b1b5e03",
                    "mixHash" : "0xfe20db8f490fc9200e2d4a0eed269901a1254e5c998566b2c6634c6bf217657f",
                    "nonce" : "0x37a743dda2666f47",
                    "number" : "0x01",
                    "parentHash" : "0x7544ecde610c9f1e5904ab3ef9c973d1c89ca37ac007e27bb983ea3473f8ab91",
                    "receiptTrie" : "0xdb63a9ae01c688446fa1af88371b8007d79e73837c319a97ae7c98c265e1b0e9",
                    "stateRoot" : "0xa11582ae902477ac92ab4c9fe9c9b4724a69b26a8cf5f2432a591b29578a75b0",
                    "timestamp" : "0x03e8",
                    "transactionsTrie" : "0x74b39e73f0c67b78fff4eb82226142222765b09c97c66d83d2aa030ec81c4f68",
                    "uncleHash" : "0x1dcc4de8dec75d7aab85b567b6ccd41ad312451b948a7413f0a142fd40d49347"
                },
                "rlp" : "0xf90260f901f8a07544ecde610c9f1e5904ab3ef9c973d1c89ca37ac007e27bb983ea3473f8ab91a01dcc4de8dec75d7aab85b567b6ccd41ad312451b948a7413f0a142fd40d49347942adc25665018aa1fe0e6bc666dac8fc2697ff9baa0a11582ae902477ac92ab4c9fe9c9b4724a69b26a8cf5f2432a591b29578a75b0a074b39e73f0c67b78fff4eb82226142222765b09c97c66d83d2aa030ec81c4f68a0db63a9ae01c688446fa1af88371b8007d79e73837c319a97ae7c98c265e1b0e9b90100000000000000000000000000000000000000000000000000000000000000000000000000000000000000000000000000000000000000000000000000000000000000000000000000000000000000000000000000000000000000000000000000000000000000000000000000000000000000000000000000000000000000000000000000000000000000000000000000000000000000000000000000000000000000000000000000000000000000000000000000000000000000000000000000000000000000000000000000000000000000000000000000000000000000000000000000000000000000000000000000000000000000000000000000000000008302000001830f424083016bb18203e880a0fe20db8f490fc9200e2d4a0eed269901a1254e5c998566b2c6634c6bf217657f8837a743dda2666f47f862f86080018306e9d994100000000000000000000000000000000000000080801ba0f3800914fa5a27a13dc5a4119f11c1ae1c6874ad1e299f13e9f43e96c8bdaa0ea0332b1e65d433906232fbb38ec187498f66c29f6127864d94788d7de5bc1d4d32c0",
                "transactions" : [
                    {
                        "data" : "",
                        "gasLimit" : "0x06e9d9",
                        "gasPrice" : "0x01",
                        "nonce" : "0x00",
                        "r" : "0xf3800914fa5a27a13dc5a4119f11c1ae1c6874ad1e299f13e9f43e96c8bdaa0e",
                        "s" : "0x332b1e65d433906232fbb38ec187498f66c29f6127864d94788d7de5bc1d4d32",
                        "to" : "0x1000000000000000000000000000000000000000",
                        "v" : "0x1b",
                        "value" : "0x00"
                    }
                ],
                "uncleHeaders" : [
                ]
            }
        ],
        "genesisBlockHeader" : {
            "bloom" : "0x00000000000000000000000000000000000000000000000000000000000000000000000000000000000000000000000000000000000000000000000000000000000000000000000000000000000000000000000000000000000000000000000000000000000000000000000000000000000000000000000000000000000000000000000000000000000000000000000000000000000000000000000000000000000000000000000000000000000000000000000000000000000000000000000000000000000000000000000000000000000000000000000000000000000000000000000000000000000000000000000000000000000000000000000000000000",
            "coinbase" : "0x2adc25665018aa1fe0e6bc666dac8fc2697ff9ba",
            "difficulty" : "0x020000",
            "extraData" : "0x42",
            "gasLimit" : "0x0f4240",
            "gasUsed" : "0x00",
            "hash" : "0x7544ecde610c9f1e5904ab3ef9c973d1c89ca37ac007e27bb983ea3473f8ab91",
            "mixHash" : "0x56e81f171bcc55a6ff8345e692c0f86e5b48e01b996cadc001622fb5e363b421",
            "nonce" : "0x0102030405060708",
            "number" : "0x00",
            "parentHash" : "0x0000000000000000000000000000000000000000000000000000000000000000",
            "receiptTrie" : "0x56e81f171bcc55a6ff8345e692c0f86e5b48e01b996cadc001622fb5e363b421",
            "stateRoot" : "0x5e7a60ce17417b67ff95745eb0f5eba4022784771cfbe9a6607ce1c422acadfa",
            "timestamp" : "0x03b6",
            "transactionsTrie" : "0x56e81f171bcc55a6ff8345e692c0f86e5b48e01b996cadc001622fb5e363b421",
            "uncleHash" : "0x1dcc4de8dec75d7aab85b567b6ccd41ad312451b948a7413f0a142fd40d49347"
        },
        "genesisRLP" : "0xf901faf901f5a00000000000000000000000000000000000000000000000000000000000000000a01dcc4de8dec75d7aab85b567b6ccd41ad312451b948a7413f0a142fd40d49347942adc25665018aa1fe0e6bc666dac8fc2697ff9baa05e7a60ce17417b67ff95745eb0f5eba4022784771cfbe9a6607ce1c422acadfaa056e81f171bcc55a6ff8345e692c0f86e5b48e01b996cadc001622fb5e363b421a056e81f171bcc55a6ff8345e692c0f86e5b48e01b996cadc001622fb5e363b421b90100000000000000000000000000000000000000000000000000000000000000000000000000000000000000000000000000000000000000000000000000000000000000000000000000000000000000000000000000000000000000000000000000000000000000000000000000000000000000000000000000000000000000000000000000000000000000000000000000000000000000000000000000000000000000000000000000000000000000000000000000000000000000000000000000000000000000000000000000000000000000000000000000000000000000000000000000000000000000000000000000000000000000000000000000000000008302000080830f4240808203b642a056e81f171bcc55a6ff8345e692c0f86e5b48e01b996cadc001622fb5e363b421880102030405060708c0c0",
        "lastblockhash" : "0x7920b2101866e704dbfe33cf8d7e34192089361a567e6b05891185f68b1b5e03",
        "network" : "Homestead",
        "postState" : {
            "0x1000000000000000000000000000000000000000" : {
                "balance" : "0x10c8df",
                "code" : "0x7f60406000604060007313136008b64ff592819b2fa6d43f2835c452020e6201866000527fa0f4600b5533600c550000000000000000000000000000000000000000000000602052604060006001f0",
                "nonce" : "0x01",
                "storage" : {
                }
            },
            "0x13136008b64ff592819b2fa6d43f2835c452020e" : {
                "balance" : "0x01",
                "code" : "",
                "nonce" : "0x00",
                "storage" : {
                    "0x0b" : "0x01",
                    "0x0c" : "0x1000000000000000000000000000000000000000"
                }
            },
            "0x2adc25665018aa1fe0e6bc666dac8fc2697ff9ba" : {
                "balance" : "0x4563918244f56bb1",
                "code" : "",
                "nonce" : "0x00",
                "storage" : {
                }
            },
            "0xa94f5374fce5edbc8e2a8697c15331677e6ebf0b" : {
                "balance" : "0x2386f26fbf944f",
                "code" : "",
                "nonce" : "0x01",
                "storage" : {
                }
            }
        },
        "pre" : {
            "0x1000000000000000000000000000000000000000" : {
                "balance" : "0x10c8e0",
                "code" : "0x7f60406000604060007313136008b64ff592819b2fa6d43f2835c452020e6201866000527fa0f4600b5533600c550000000000000000000000000000000000000000000000602052604060006001f0",
                "nonce" : "0x00",
                "storage" : {
                }
            },
            "0xa94f5374fce5edbc8e2a8697c15331677e6ebf0b" : {
                "balance" : "0x2386f26fc10000",
                "code" : "",
                "nonce" : "0x00",
                "storage" : {
                }
            }
        }
    }
}