{
    "delegatecallBasic_d0g0v0_Byzantium" : {
        "_info" : {
            "comment" : "",
            "filledwith" : "cpp-1.3.0+commit.6e0ce939.Linux.g++",
            "lllcversion" : "Version: 0.4.18-develop.2017.9.25+commit.a72237f2.Linux.g++",
            "source" : "src/BlockchainTestsFiller/GeneralStateTests/stDelegatecallTestHomestead/delegatecallBasic_d0g0v0Filler.json",
            "sourceHash" : "59109c4d30dc9a295ec17b56e0e5d2977349c5a3f5058d0199ff3dd0bd82d605"
        },
        "blocks" : [
            {
                "blockHeader" : {
                    "bloom" : "0x00000000000000000000000000000000000000000000000000000000000000000000000000000000000000000000000000000000000000000000000000000000000000000000000000000000000000000000000000000000000000000000000000000000000000000000000000000000000000000000000000000000000000000000000000000000000000000000000000000000000000000000000000000000000000000000000000000000000000000000000000000000000000000000000000000000000000000000000000000000000000000000000000000000000000000000000000000000000000000000000000000000000000000000000000000000",
                    "coinbase" : "0x2adc25665018aa1fe0e6bc666dac8fc2697ff9ba",
                    "difficulty" : "0x020000",
                    "extraData" : "",
                    "gasLimit" : "0x01c9c380",
                    "gasUsed" : "0xf137",
                    "hash" : "0x51bd0915eb1896a3990d7af7fd53a97f1a3630ff4f2ad2e5a4867d773d056897",
                    "mixHash" : "0x2fb37b7d4e3b26f36b4932f7d51417502391d40634a35b6c597c1f966d0dc091",
                    "nonce" : "0x30eb955435cd45e5",
                    "number" : "0x01",
                    "parentHash" : "0xa72151156db5c0e2921059c490a1476feed22319c1a4be27f24a16a52b0345fe",
                    "receiptTrie" : "0x92b4fe77720e0ce1e248b133d68abc4bb2fa148f7504552029c02ff9b5c4aef3",
                    "stateRoot" : "0x829694e8e4cea18c523674f37505ba0941abc855006879cc2148d5793fc183d5",
                    "timestamp" : "0x03e8",
                    "transactionsTrie" : "0x3c263f26889a2249612b8057a77007a00ad873cbf85ba2aced30b5c7feb1c8c8",
                    "uncleHash" : "0x1dcc4de8dec75d7aab85b567b6ccd41ad312451b948a7413f0a142fd40d49347"
                },
                "rlp" : "0xf90260f901f8a0a72151156db5c0e2921059c490a1476feed22319c1a4be27f24a16a52b0345fea01dcc4de8dec75d7aab85b567b6ccd41ad312451b948a7413f0a142fd40d49347942adc25665018aa1fe0e6bc666dac8fc2697ff9baa0829694e8e4cea18c523674f37505ba0941abc855006879cc2148d5793fc183d5a03c263f26889a2249612b8057a77007a00ad873cbf85ba2aced30b5c7feb1c8c8a092b4fe77720e0ce1e248b133d68abc4bb2fa148f7504552029c02ff9b5c4aef3b901000000000000000000000000000000000000000000000000000000000000000000000000000000000000000000000000000000000000000000000000000000000000000000000000000000000000000000000000000000000000000000000000000000000000000000000000000000000000000000000000000000000000000000000000000000000000000000000000000000000000000000000000000000000000000000000000000000000000000000000000000000000000000000000000000000000000000000000000000000000000000000000000000000000000000000000000000000000000000000000000000000000000000000000000000000000083020000018401c9c38082f1378203e880a02fb37b7d4e3b26f36b4932f7d51417502391d40634a35b6c597c1f966d0dc0918830eb955435cd45e5f862f8608001832dc6c094095e7baea6a6c7c4c2dfeb977efac326af552d8780801ba0c980cc618a5b9cb1ac487e6f794c548f104b18a5987b531cdf3f90d85b4d1557a05113d252a095f1b8a80121f08956f3af1d2ac155ea11d6ed81e1038166096668c0",
                "transactions" : [
                    {
                        "data" : "",
                        "gasLimit" : "0x2dc6c0",
                        "gasPrice" : "0x01",
                        "nonce" : "0x00",
                        "r" : "0xc980cc618a5b9cb1ac487e6f794c548f104b18a5987b531cdf3f90d85b4d1557",
                        "s" : "0x5113d252a095f1b8a80121f08956f3af1d2ac155ea11d6ed81e1038166096668",
                        "to" : "0x095e7baea6a6c7c4c2dfeb977efac326af552d87",
                        "v" : "0x1b",
                        "value" : "0x00"
                    }
                ],
                "uncleHeaders" : [
                ]
            }
        ],
        "genesisBlockHeader" : {
            "bloom" : "0x00000000000000000000000000000000000000000000000000000000000000000000000000000000000000000000000000000000000000000000000000000000000000000000000000000000000000000000000000000000000000000000000000000000000000000000000000000000000000000000000000000000000000000000000000000000000000000000000000000000000000000000000000000000000000000000000000000000000000000000000000000000000000000000000000000000000000000000000000000000000000000000000000000000000000000000000000000000000000000000000000000000000000000000000000000000",
            "coinbase" : "0x2adc25665018aa1fe0e6bc666dac8fc2697ff9ba",
            "difficulty" : "0x020000",
            "extraData" : "0x42",
            "gasLimit" : "0x01c9c380",
            "gasUsed" : "0x00",
            "hash" : "0xa72151156db5c0e2921059c490a1476feed22319c1a4be27f24a16a52b0345fe",
            "mixHash" : "0x56e81f171bcc55a6ff8345e692c0f86e5b48e01b996cadc001622fb5e363b421",
            "nonce" : "0x0102030405060708",
            "number" : "0x00",
            "parentHash" : "0x0000000000000000000000000000000000000000000000000000000000000000",
            "receiptTrie" : "0x56e81f171bcc55a6ff8345e692c0f86e5b48e01b996cadc001622fb5e363b421",
            "stateRoot" : "0x1b5519bf3432dabca8a840dfcffa11d2ace5e72c253f807d3c18fda89b181ead",
            "timestamp" : "0x03b6",
            "transactionsTrie" : "0x56e81f171bcc55a6ff8345e692c0f86e5b48e01b996cadc001622fb5e363b421",
            "uncleHash" : "0x1dcc4de8dec75d7aab85b567b6ccd41ad312451b948a7413f0a142fd40d49347"
        },
        "genesisRLP" : "0xf901fbf901f6a00000000000000000000000000000000000000000000000000000000000000000a01dcc4de8dec75d7aab85b567b6ccd41ad312451b948a7413f0a142fd40d49347942adc25665018aa1fe0e6bc666dac8fc2697ff9baa01b5519bf3432dabca8a840dfcffa11d2ace5e72c253f807d3c18fda89b181eada056e81f171bcc55a6ff8345e692c0f86e5b48e01b996cadc001622fb5e363b421a056e81f171bcc55a6ff8345e692c0f86e5b48e01b996cadc001622fb5e363b421b901000000000000000000000000000000000000000000000000000000000000000000000000000000000000000000000000000000000000000000000000000000000000000000000000000000000000000000000000000000000000000000000000000000000000000000000000000000000000000000000000000000000000000000000000000000000000000000000000000000000000000000000000000000000000000000000000000000000000000000000000000000000000000000000000000000000000000000000000000000000000000000000000000000000000000000000000000000000000000000000000000000000000000000000000000000000083020000808401c9c380808203b642a056e81f171bcc55a6ff8345e692c0f86e5b48e01b996cadc001622fb5e363b421880102030405060708c0c0",
        "lastblockhash" : "0x51bd0915eb1896a3990d7af7fd53a97f1a3630ff4f2ad2e5a4867d773d056897",
        "network" : "Byzantium",
        "postState" : {
            "0x095e7baea6a6c7c4c2dfeb977efac326af552d87" : {
                "balance" : "0x0de0b6b3a7640000",
                "code" : "0x600260006040600073945304eb96065b2a98b57a48a06ae28d285a71b56207a120f4600055",
                "nonce" : "0x00",
                "storage" : {
                    "0x00" : "0x01",
                    "0x01" : "0x01"
                }
            },
            "0x2adc25665018aa1fe0e6bc666dac8fc2697ff9ba" : {
                "balance" : "0x29a2241af62cf137",
                "code" : "",
                "nonce" : "0x00",
                "storage" : {
                }
            },
            "0x945304eb96065b2a98b57a48a06ae28d285a71b5" : {
                "balance" : "0x17",
                "code" : "0x6001600155603760005360026000f3",
                "nonce" : "0x00",
                "storage" : {
                }
            },
            "0xa94f5374fce5edbc8e2a8697c15331677e6ebf0b" : {
                "balance" : "0x0de0b6b3a7630ec9",
                "code" : "",
                "nonce" : "0x01",
                "storage" : {
                }
            }
        },
        "pre" : {
            "0x095e7baea6a6c7c4c2dfeb977efac326af552d87" : {
                "balance" : "0x0de0b6b3a7640000",
                "code" : "0x600260006040600073945304eb96065b2a98b57a48a06ae28d285a71b56207a120f4600055",
                "nonce" : "0x00",
                "storage" : {
                }
            },
            "0x945304eb96065b2a98b57a48a06ae28d285a71b5" : {
                "balance" : "0x17",
                "code" : "0x6001600155603760005360026000f3",
                "nonce" : "0x00",
                "storage" : {
                }
            },
            "0xa94f5374fce5edbc8e2a8697c15331677e6ebf0b" : {
                "balance" : "0x0de0b6b3a7640000",
                "code" : "",
                "nonce" : "0x00",
                "storage" : {
                }
            }
        }
    },
    "delegatecallBasic_d0g0v0_EIP150" : {
        "_info" : {
            "comment" : "",
            "filledwith" : "cpp-1.3.0+commit.6e0ce939.Linux.g++",
            "lllcversion" : "Version: 0.4.18-develop.2017.9.25+commit.a72237f2.Linux.g++",
            "source" : "src/BlockchainTestsFiller/GeneralStateTests/stDelegatecallTestHomestead/delegatecallBasic_d0g0v0Filler.json",
            "sourceHash" : "59109c4d30dc9a295ec17b56e0e5d2977349c5a3f5058d0199ff3dd0bd82d605"
        },
        "blocks" : [
            {
                "blockHeader" : {
                    "bloom" : "0x00000000000000000000000000000000000000000000000000000000000000000000000000000000000000000000000000000000000000000000000000000000000000000000000000000000000000000000000000000000000000000000000000000000000000000000000000000000000000000000000000000000000000000000000000000000000000000000000000000000000000000000000000000000000000000000000000000000000000000000000000000000000000000000000000000000000000000000000000000000000000000000000000000000000000000000000000000000000000000000000000000000000000000000000000000000",
                    "coinbase" : "0x2adc25665018aa1fe0e6bc666dac8fc2697ff9ba",
                    "difficulty" : "0x020000",
                    "extraData" : "",
                    "gasLimit" : "0x01c9c380",
                    "gasUsed" : "0xf137",
                    "hash" : "0x859af26250b232992fe42ccbc376b31c4acc2ab6b112d16436c9bccde36b59a8",
                    "mixHash" : "0x9a296cfe8da3f47200b2a84a78b40e86308c60b2cff5674c2c8cc09a0cde7e09",
                    "nonce" : "0xfc06e82838e3db2a",
                    "number" : "0x01",
                    "parentHash" : "0xa72151156db5c0e2921059c490a1476feed22319c1a4be27f24a16a52b0345fe",
                    "receiptTrie" : "0xba32c52d3dc735892adcef99d22e36b65789d8031a9ce408edae83d221492b86",
                    "stateRoot" : "0x3cc6ab363c89bca96c0f8036572d30f27d44e305f00eef0e5c538d7e97f12c29",
                    "timestamp" : "0x03e8",
                    "transactionsTrie" : "0x3c263f26889a2249612b8057a77007a00ad873cbf85ba2aced30b5c7feb1c8c8",
                    "uncleHash" : "0x1dcc4de8dec75d7aab85b567b6ccd41ad312451b948a7413f0a142fd40d49347"
                },
                "rlp" : "0xf90260f901f8a0a72151156db5c0e2921059c490a1476feed22319c1a4be27f24a16a52b0345fea01dcc4de8dec75d7aab85b567b6ccd41ad312451b948a7413f0a142fd40d49347942adc25665018aa1fe0e6bc666dac8fc2697ff9baa03cc6ab363c89bca96c0f8036572d30f27d44e305f00eef0e5c538d7e97f12c29a03c263f26889a2249612b8057a77007a00ad873cbf85ba2aced30b5c7feb1c8c8a0ba32c52d3dc735892adcef99d22e36b65789d8031a9ce408edae83d221492b86b901000000000000000000000000000000000000000000000000000000000000000000000000000000000000000000000000000000000000000000000000000000000000000000000000000000000000000000000000000000000000000000000000000000000000000000000000000000000000000000000000000000000000000000000000000000000000000000000000000000000000000000000000000000000000000000000000000000000000000000000000000000000000000000000000000000000000000000000000000000000000000000000000000000000000000000000000000000000000000000000000000000000000000000000000000000000083020000018401c9c38082f1378203e880a09a296cfe8da3f47200b2a84a78b40e86308c60b2cff5674c2c8cc09a0cde7e0988fc06e82838e3db2af862f8608001832dc6c094095e7baea6a6c7c4c2dfeb977efac326af552d8780801ba0c980cc618a5b9cb1ac487e6f794c548f104b18a5987b531cdf3f90d85b4d1557a05113d252a095f1b8a80121f08956f3af1d2ac155ea11d6ed81e1038166096668c0",
                "transactions" : [
                    {
                        "data" : "",
                        "gasLimit" : "0x2dc6c0",
                        "gasPrice" : "0x01",
                        "nonce" : "0x00",
                        "r" : "0xc980cc618a5b9cb1ac487e6f794c548f104b18a5987b531cdf3f90d85b4d1557",
                        "s" : "0x5113d252a095f1b8a80121f08956f3af1d2ac155ea11d6ed81e1038166096668",
                        "to" : "0x095e7baea6a6c7c4c2dfeb977efac326af552d87",
                        "v" : "0x1b",
                        "value" : "0x00"
                    }
                ],
                "uncleHeaders" : [
                ]
            }
        ],
        "genesisBlockHeader" : {
            "bloom" : "0x00000000000000000000000000000000000000000000000000000000000000000000000000000000000000000000000000000000000000000000000000000000000000000000000000000000000000000000000000000000000000000000000000000000000000000000000000000000000000000000000000000000000000000000000000000000000000000000000000000000000000000000000000000000000000000000000000000000000000000000000000000000000000000000000000000000000000000000000000000000000000000000000000000000000000000000000000000000000000000000000000000000000000000000000000000000",
            "coinbase" : "0x2adc25665018aa1fe0e6bc666dac8fc2697ff9ba",
            "difficulty" : "0x020000",
            "extraData" : "0x42",
            "gasLimit" : "0x01c9c380",
            "gasUsed" : "0x00",
            "hash" : "0xa72151156db5c0e2921059c490a1476feed22319c1a4be27f24a16a52b0345fe",
            "mixHash" : "0x56e81f171bcc55a6ff8345e692c0f86e5b48e01b996cadc001622fb5e363b421",
            "nonce" : "0x0102030405060708",
            "number" : "0x00",
            "parentHash" : "0x0000000000000000000000000000000000000000000000000000000000000000",
            "receiptTrie" : "0x56e81f171bcc55a6ff8345e692c0f86e5b48e01b996cadc001622fb5e363b421",
            "stateRoot" : "0x1b5519bf3432dabca8a840dfcffa11d2ace5e72c253f807d3c18fda89b181ead",
            "timestamp" : "0x03b6",
            "transactionsTrie" : "0x56e81f171bcc55a6ff8345e692c0f86e5b48e01b996cadc001622fb5e363b421",
            "uncleHash" : "0x1dcc4de8dec75d7aab85b567b6ccd41ad312451b948a7413f0a142fd40d49347"
        },
        "genesisRLP" : "0xf901fbf901f6a00000000000000000000000000000000000000000000000000000000000000000a01dcc4de8dec75d7aab85b567b6ccd41ad312451b948a7413f0a142fd40d49347942adc25665018aa1fe0e6bc666dac8fc2697ff9baa01b5519bf3432dabca8a840dfcffa11d2ace5e72c253f807d3c18fda89b181eada056e81f171bcc55a6ff8345e692c0f86e5b48e01b996cadc001622fb5e363b421a056e81f171bcc55a6ff8345e692c0f86e5b48e01b996cadc001622fb5e363b421b901000000000000000000000000000000000000000000000000000000000000000000000000000000000000000000000000000000000000000000000000000000000000000000000000000000000000000000000000000000000000000000000000000000000000000000000000000000000000000000000000000000000000000000000000000000000000000000000000000000000000000000000000000000000000000000000000000000000000000000000000000000000000000000000000000000000000000000000000000000000000000000000000000000000000000000000000000000000000000000000000000000000000000000000000000000000083020000808401c9c380808203b642a056e81f171bcc55a6ff8345e692c0f86e5b48e01b996cadc001622fb5e363b421880102030405060708c0c0",
        "lastblockhash" : "0x859af26250b232992fe42ccbc376b31c4acc2ab6b112d16436c9bccde36b59a8",
        "network" : "EIP150",
        "postState" : {
            "0x095e7baea6a6c7c4c2dfeb977efac326af552d87" : {
                "balance" : "0x0de0b6b3a7640000",
                "code" : "0x600260006040600073945304eb96065b2a98b57a48a06ae28d285a71b56207a120f4600055",
                "nonce" : "0x00",
                "storage" : {
                    "0x00" : "0x01",
                    "0x01" : "0x01"
                }
            },
            "0x2adc25665018aa1fe0e6bc666dac8fc2697ff9ba" : {
                "balance" : "0x4563918244f4f137",
                "code" : "",
                "nonce" : "0x00",
                "storage" : {
                }
            },
            "0x945304eb96065b2a98b57a48a06ae28d285a71b5" : {
                "balance" : "0x17",
                "code" : "0x6001600155603760005360026000f3",
                "nonce" : "0x00",
                "storage" : {
                }
            },
            "0xa94f5374fce5edbc8e2a8697c15331677e6ebf0b" : {
                "balance" : "0x0de0b6b3a7630ec9",
                "code" : "",
                "nonce" : "0x01",
                "storage" : {
                }
            }
        },
        "pre" : {
            "0x095e7baea6a6c7c4c2dfeb977efac326af552d87" : {
                "balance" : "0x0de0b6b3a7640000",
                "code" : "0x600260006040600073945304eb96065b2a98b57a48a06ae28d285a71b56207a120f4600055",
                "nonce" : "0x00",
                "storage" : {
                }
            },
            "0x945304eb96065b2a98b57a48a06ae28d285a71b5" : {
                "balance" : "0x17",
                "code" : "0x6001600155603760005360026000f3",
                "nonce" : "0x00",
                "storage" : {
                }
            },
            "0xa94f5374fce5edbc8e2a8697c15331677e6ebf0b" : {
                "balance" : "0x0de0b6b3a7640000",
                "code" : "",
                "nonce" : "0x00",
                "storage" : {
                }
            }
        }
    },
    "delegatecallBasic_d0g0v0_EIP158" : {
        "_info" : {
            "comment" : "",
            "filledwith" : "cpp-1.3.0+commit.6e0ce939.Linux.g++",
            "lllcversion" : "Version: 0.4.18-develop.2017.9.25+commit.a72237f2.Linux.g++",
            "source" : "src/BlockchainTestsFiller/GeneralStateTests/stDelegatecallTestHomestead/delegatecallBasic_d0g0v0Filler.json",
            "sourceHash" : "59109c4d30dc9a295ec17b56e0e5d2977349c5a3f5058d0199ff3dd0bd82d605"
        },
        "blocks" : [
            {
                "blockHeader" : {
                    "bloom" : "0x00000000000000000000000000000000000000000000000000000000000000000000000000000000000000000000000000000000000000000000000000000000000000000000000000000000000000000000000000000000000000000000000000000000000000000000000000000000000000000000000000000000000000000000000000000000000000000000000000000000000000000000000000000000000000000000000000000000000000000000000000000000000000000000000000000000000000000000000000000000000000000000000000000000000000000000000000000000000000000000000000000000000000000000000000000000",
                    "coinbase" : "0x2adc25665018aa1fe0e6bc666dac8fc2697ff9ba",
                    "difficulty" : "0x020000",
                    "extraData" : "",
                    "gasLimit" : "0x01c9c380",
                    "gasUsed" : "0xf137",
                    "hash" : "0x8a68d0965fb291651adf080e1d4cb74aac2a063cb48d4787fe42654aab567e9e",
                    "mixHash" : "0x54dc7cae9e22993b5f35b472e781631e131a37f1d340645e26bcebe61bfa9ffc",
                    "nonce" : "0x765a6bbadf629ac1",
                    "number" : "0x01",
                    "parentHash" : "0xa72151156db5c0e2921059c490a1476feed22319c1a4be27f24a16a52b0345fe",
                    "receiptTrie" : "0xba32c52d3dc735892adcef99d22e36b65789d8031a9ce408edae83d221492b86",
                    "stateRoot" : "0x3cc6ab363c89bca96c0f8036572d30f27d44e305f00eef0e5c538d7e97f12c29",
                    "timestamp" : "0x03e8",
                    "transactionsTrie" : "0x3c263f26889a2249612b8057a77007a00ad873cbf85ba2aced30b5c7feb1c8c8",
                    "uncleHash" : "0x1dcc4de8dec75d7aab85b567b6ccd41ad312451b948a7413f0a142fd40d49347"
                },
                "rlp" : "0xf90260f901f8a0a72151156db5c0e2921059c490a1476feed22319c1a4be27f24a16a52b0345fea01dcc4de8dec75d7aab85b567b6ccd41ad312451b948a7413f0a142fd40d49347942adc25665018aa1fe0e6bc666dac8fc2697ff9baa03cc6ab363c89bca96c0f8036572d30f27d44e305f00eef0e5c538d7e97f12c29a03c263f26889a2249612b8057a77007a00ad873cbf85ba2aced30b5c7feb1c8c8a0ba32c52d3dc735892adcef99d22e36b65789d8031a9ce408edae83d221492b86b901000000000000000000000000000000000000000000000000000000000000000000000000000000000000000000000000000000000000000000000000000000000000000000000000000000000000000000000000000000000000000000000000000000000000000000000000000000000000000000000000000000000000000000000000000000000000000000000000000000000000000000000000000000000000000000000000000000000000000000000000000000000000000000000000000000000000000000000000000000000000000000000000000000000000000000000000000000000000000000000000000000000000000000000000000000000083020000018401c9c38082f1378203e880a054dc7cae9e22993b5f35b472e781631e131a37f1d340645e26bcebe61bfa9ffc88765a6bbadf629ac1f862f8608001832dc6c094095e7baea6a6c7c4c2dfeb977efac326af552d8780801ba0c980cc618a5b9cb1ac487e6f794c548f104b18a5987b531cdf3f90d85b4d1557a05113d252a095f1b8a80121f08956f3af1d2ac155ea11d6ed81e1038166096668c0",
                "transactions" : [
                    {
                        "data" : "",
                        "gasLimit" : "0x2dc6c0",
                        "gasPrice" : "0x01",
                        "nonce" : "0x00",
                        "r" : "0xc980cc618a5b9cb1ac487e6f794c548f104b18a5987b531cdf3f90d85b4d1557",
                        "s" : "0x5113d252a095f1b8a80121f08956f3af1d2ac155ea11d6ed81e1038166096668",
                        "to" : "0x095e7baea6a6c7c4c2dfeb977efac326af552d87",
                        "v" : "0x1b",
                        "value" : "0x00"
                    }
                ],
                "uncleHeaders" : [
                ]
            }
        ],
        "genesisBlockHeader" : {
            "bloom" : "0x00000000000000000000000000000000000000000000000000000000000000000000000000000000000000000000000000000000000000000000000000000000000000000000000000000000000000000000000000000000000000000000000000000000000000000000000000000000000000000000000000000000000000000000000000000000000000000000000000000000000000000000000000000000000000000000000000000000000000000000000000000000000000000000000000000000000000000000000000000000000000000000000000000000000000000000000000000000000000000000000000000000000000000000000000000000",
            "coinbase" : "0x2adc25665018aa1fe0e6bc666dac8fc2697ff9ba",
            "difficulty" : "0x020000",
            "extraData" : "0x42",
            "gasLimit" : "0x01c9c380",
            "gasUsed" : "0x00",
            "hash" : "0xa72151156db5c0e2921059c490a1476feed22319c1a4be27f24a16a52b0345fe",
            "mixHash" : "0x56e81f171bcc55a6ff8345e692c0f86e5b48e01b996cadc001622fb5e363b421",
            "nonce" : "0x0102030405060708",
            "number" : "0x00",
            "parentHash" : "0x0000000000000000000000000000000000000000000000000000000000000000",
            "receiptTrie" : "0x56e81f171bcc55a6ff8345e692c0f86e5b48e01b996cadc001622fb5e363b421",
            "stateRoot" : "0x1b5519bf3432dabca8a840dfcffa11d2ace5e72c253f807d3c18fda89b181ead",
            "timestamp" : "0x03b6",
            "transactionsTrie" : "0x56e81f171bcc55a6ff8345e692c0f86e5b48e01b996cadc001622fb5e363b421",
            "uncleHash" : "0x1dcc4de8dec75d7aab85b567b6ccd41ad312451b948a7413f0a142fd40d49347"
        },
        "genesisRLP" : "0xf901fbf901f6a00000000000000000000000000000000000000000000000000000000000000000a01dcc4de8dec75d7aab85b567b6ccd41ad312451b948a7413f0a142fd40d49347942adc25665018aa1fe0e6bc666dac8fc2697ff9baa01b5519bf3432dabca8a840dfcffa11d2ace5e72c253f807d3c18fda89b181eada056e81f171bcc55a6ff8345e692c0f86e5b48e01b996cadc001622fb5e363b421a056e81f171bcc55a6ff8345e692c0f86e5b48e01b996cadc001622fb5e363b421b901000000000000000000000000000000000000000000000000000000000000000000000000000000000000000000000000000000000000000000000000000000000000000000000000000000000000000000000000000000000000000000000000000000000000000000000000000000000000000000000000000000000000000000000000000000000000000000000000000000000000000000000000000000000000000000000000000000000000000000000000000000000000000000000000000000000000000000000000000000000000000000000000000000000000000000000000000000000000000000000000000000000000000000000000000000000083020000808401c9c380808203b642a056e81f171bcc55a6ff8345e692c0f86e5b48e01b996cadc001622fb5e363b421880102030405060708c0c0",
        "lastblockhash" : "0x8a68d0965fb291651adf080e1d4cb74aac2a063cb48d4787fe42654aab567e9e",
        "network" : "EIP158",
        "postState" : {
            "0x095e7baea6a6c7c4c2dfeb977efac326af552d87" : {
                "balance" : "0x0de0b6b3a7640000",
                "code" : "0x600260006040600073945304eb96065b2a98b57a48a06ae28d285a71b56207a120f4600055",
                "nonce" : "0x00",
                "storage" : {
                    "0x00" : "0x01",
                    "0x01" : "0x01"
                }
            },
            "0x2adc25665018aa1fe0e6bc666dac8fc2697ff9ba" : {
                "balance" : "0x4563918244f4f137",
                "code" : "",
                "nonce" : "0x00",
                "storage" : {
                }
            },
            "0x945304eb96065b2a98b57a48a06ae28d285a71b5" : {
                "balance" : "0x17",
                "code" : "0x6001600155603760005360026000f3",
                "nonce" : "0x00",
                "storage" : {
                }
            },
            "0xa94f5374fce5edbc8e2a8697c15331677e6ebf0b" : {
                "balance" : "0x0de0b6b3a7630ec9",
                "code" : "",
                "nonce" : "0x01",
                "storage" : {
                }
            }
        },
        "pre" : {
            "0x095e7baea6a6c7c4c2dfeb977efac326af552d87" : {
                "balance" : "0x0de0b6b3a7640000",
                "code" : "0x600260006040600073945304eb96065b2a98b57a48a06ae28d285a71b56207a120f4600055",
                "nonce" : "0x00",
                "storage" : {
                }
            },
            "0x945304eb96065b2a98b57a48a06ae28d285a71b5" : {
                "balance" : "0x17",
                "code" : "0x6001600155603760005360026000f3",
                "nonce" : "0x00",
                "storage" : {
                }
            },
            "0xa94f5374fce5edbc8e2a8697c15331677e6ebf0b" : {
                "balance" : "0x0de0b6b3a7640000",
                "code" : "",
                "nonce" : "0x00",
                "storage" : {
                }
            }
        }
    },
    "delegatecallBasic_d0g0v0_Frontier" : {
        "_info" : {
            "comment" : "",
            "filledwith" : "cpp-1.3.0+commit.6e0ce939.Linux.g++",
            "lllcversion" : "Version: 0.4.18-develop.2017.9.25+commit.a72237f2.Linux.g++",
            "source" : "src/BlockchainTestsFiller/GeneralStateTests/stDelegatecallTestHomestead/delegatecallBasic_d0g0v0Filler.json",
            "sourceHash" : "59109c4d30dc9a295ec17b56e0e5d2977349c5a3f5058d0199ff3dd0bd82d605"
        },
        "blocks" : [
            {
                "blockHeader" : {
                    "bloom" : "0x00000000000000000000000000000000000000000000000000000000000000000000000000000000000000000000000000000000000000000000000000000000000000000000000000000000000000000000000000000000000000000000000000000000000000000000000000000000000000000000000000000000000000000000000000000000000000000000000000000000000000000000000000000000000000000000000000000000000000000000000000000000000000000000000000000000000000000000000000000000000000000000000000000000000000000000000000000000000000000000000000000000000000000000000000000000",
                    "coinbase" : "0x2adc25665018aa1fe0e6bc666dac8fc2697ff9ba",
                    "difficulty" : "0x020000",
                    "extraData" : "",
                    "gasLimit" : "0x01c9c380",
                    "gasUsed" : "0x2dc6c0",
                    "hash" : "0x92624494859d3aad7e1f1eb3fd2e9ca4ae6dcf9fb2404d3ac780a444d51ace13",
                    "mixHash" : "0x0ffeebac1eeb88a8c4e9a194b552a1850125f030a47fc136488badd7dda5bab9",
                    "nonce" : "0x2ff3ef9270bbdf2c",
                    "number" : "0x01",
                    "parentHash" : "0xa72151156db5c0e2921059c490a1476feed22319c1a4be27f24a16a52b0345fe",
                    "receiptTrie" : "0x5743212fc2964fd6c561bec95eaad52e720ab13e578d3e22cbdce65a465943fd",
                    "stateRoot" : "0x7940c56e4b021c8123223655b97efb3d91361c0cc839d926a667e75f9682df85",
                    "timestamp" : "0x03e8",
                    "transactionsTrie" : "0x3c263f26889a2249612b8057a77007a00ad873cbf85ba2aced30b5c7feb1c8c8",
                    "uncleHash" : "0x1dcc4de8dec75d7aab85b567b6ccd41ad312451b948a7413f0a142fd40d49347"
                },
                "rlp" : "0xf90261f901f9a0a72151156db5c0e2921059c490a1476feed22319c1a4be27f24a16a52b0345fea01dcc4de8dec75d7aab85b567b6ccd41ad312451b948a7413f0a142fd40d49347942adc25665018aa1fe0e6bc666dac8fc2697ff9baa07940c56e4b021c8123223655b97efb3d91361c0cc839d926a667e75f9682df85a03c263f26889a2249612b8057a77007a00ad873cbf85ba2aced30b5c7feb1c8c8a05743212fc2964fd6c561bec95eaad52e720ab13e578d3e22cbdce65a465943fdb901000000000000000000000000000000000000000000000000000000000000000000000000000000000000000000000000000000000000000000000000000000000000000000000000000000000000000000000000000000000000000000000000000000000000000000000000000000000000000000000000000000000000000000000000000000000000000000000000000000000000000000000000000000000000000000000000000000000000000000000000000000000000000000000000000000000000000000000000000000000000000000000000000000000000000000000000000000000000000000000000000000000000000000000000000000000083020000018401c9c380832dc6c08203e880a00ffeebac1eeb88a8c4e9a194b552a1850125f030a47fc136488badd7dda5bab9882ff3ef9270bbdf2cf862f8608001832dc6c094095e7baea6a6c7c4c2dfeb977efac326af552d8780801ba0c980cc618a5b9cb1ac487e6f794c548f104b18a5987b531cdf3f90d85b4d1557a05113d252a095f1b8a80121f08956f3af1d2ac155ea11d6ed81e1038166096668c0",
                "transactions" : [
                    {
                        "data" : "",
                        "gasLimit" : "0x2dc6c0",
                        "gasPrice" : "0x01",
                        "nonce" : "0x00",
                        "r" : "0xc980cc618a5b9cb1ac487e6f794c548f104b18a5987b531cdf3f90d85b4d1557",
                        "s" : "0x5113d252a095f1b8a80121f08956f3af1d2ac155ea11d6ed81e1038166096668",
                        "to" : "0x095e7baea6a6c7c4c2dfeb977efac326af552d87",
                        "v" : "0x1b",
                        "value" : "0x00"
                    }
                ],
                "uncleHeaders" : [
                ]
            }
        ],
        "genesisBlockHeader" : {
            "bloom" : "0x00000000000000000000000000000000000000000000000000000000000000000000000000000000000000000000000000000000000000000000000000000000000000000000000000000000000000000000000000000000000000000000000000000000000000000000000000000000000000000000000000000000000000000000000000000000000000000000000000000000000000000000000000000000000000000000000000000000000000000000000000000000000000000000000000000000000000000000000000000000000000000000000000000000000000000000000000000000000000000000000000000000000000000000000000000000",
            "coinbase" : "0x2adc25665018aa1fe0e6bc666dac8fc2697ff9ba",
            "difficulty" : "0x020000",
            "extraData" : "0x42",
            "gasLimit" : "0x01c9c380",
            "gasUsed" : "0x00",
            "hash" : "0xa72151156db5c0e2921059c490a1476feed22319c1a4be27f24a16a52b0345fe",
            "mixHash" : "0x56e81f171bcc55a6ff8345e692c0f86e5b48e01b996cadc001622fb5e363b421",
            "nonce" : "0x0102030405060708",
            "number" : "0x00",
            "parentHash" : "0x0000000000000000000000000000000000000000000000000000000000000000",
            "receiptTrie" : "0x56e81f171bcc55a6ff8345e692c0f86e5b48e01b996cadc001622fb5e363b421",
            "stateRoot" : "0x1b5519bf3432dabca8a840dfcffa11d2ace5e72c253f807d3c18fda89b181ead",
            "timestamp" : "0x03b6",
            "transactionsTrie" : "0x56e81f171bcc55a6ff8345e692c0f86e5b48e01b996cadc001622fb5e363b421",
            "uncleHash" : "0x1dcc4de8dec75d7aab85b567b6ccd41ad312451b948a7413f0a142fd40d49347"
        },
        "genesisRLP" : "0xf901fbf901f6a00000000000000000000000000000000000000000000000000000000000000000a01dcc4de8dec75d7aab85b567b6ccd41ad312451b948a7413f0a142fd40d49347942adc25665018aa1fe0e6bc666dac8fc2697ff9baa01b5519bf3432dabca8a840dfcffa11d2ace5e72c253f807d3c18fda89b181eada056e81f171bcc55a6ff8345e692c0f86e5b48e01b996cadc001622fb5e363b421a056e81f171bcc55a6ff8345e692c0f86e5b48e01b996cadc001622fb5e363b421b901000000000000000000000000000000000000000000000000000000000000000000000000000000000000000000000000000000000000000000000000000000000000000000000000000000000000000000000000000000000000000000000000000000000000000000000000000000000000000000000000000000000000000000000000000000000000000000000000000000000000000000000000000000000000000000000000000000000000000000000000000000000000000000000000000000000000000000000000000000000000000000000000000000000000000000000000000000000000000000000000000000000000000000000000000000000083020000808401c9c380808203b642a056e81f171bcc55a6ff8345e692c0f86e5b48e01b996cadc001622fb5e363b421880102030405060708c0c0",
        "lastblockhash" : "0x92624494859d3aad7e1f1eb3fd2e9ca4ae6dcf9fb2404d3ac780a444d51ace13",
        "network" : "Frontier",
        "postState" : {
            "0x095e7baea6a6c7c4c2dfeb977efac326af552d87" : {
                "balance" : "0x0de0b6b3a7640000",
                "code" : "0x600260006040600073945304eb96065b2a98b57a48a06ae28d285a71b56207a120f4600055",
                "nonce" : "0x00",
                "storage" : {
                }
            },
            "0x2adc25665018aa1fe0e6bc666dac8fc2697ff9ba" : {
                "balance" : "0x456391824521c6c0",
                "code" : "",
                "nonce" : "0x00",
                "storage" : {
                }
            },
            "0x945304eb96065b2a98b57a48a06ae28d285a71b5" : {
                "balance" : "0x17",
                "code" : "0x6001600155603760005360026000f3",
                "nonce" : "0x00",
                "storage" : {
                }
            },
            "0xa94f5374fce5edbc8e2a8697c15331677e6ebf0b" : {
                "balance" : "0x0de0b6b3a7363940",
                "code" : "",
                "nonce" : "0x01",
                "storage" : {
                }
            }
        },
        "pre" : {
            "0x095e7baea6a6c7c4c2dfeb977efac326af552d87" : {
                "balance" : "0x0de0b6b3a7640000",
                "code" : "0x600260006040600073945304eb96065b2a98b57a48a06ae28d285a71b56207a120f4600055",
                "nonce" : "0x00",
                "storage" : {
                }
            },
            "0x945304eb96065b2a98b57a48a06ae28d285a71b5" : {
                "balance" : "0x17",
                "code" : "0x6001600155603760005360026000f3",
                "nonce" : "0x00",
                "storage" : {
                }
            },
            "0xa94f5374fce5edbc8e2a8697c15331677e6ebf0b" : {
                "balance" : "0x0de0b6b3a7640000",
                "code" : "",
                "nonce" : "0x00",
                "storage" : {
                }
            }
        }
    },
    "delegatecallBasic_d0g0v0_Homestead" : {
        "_info" : {
            "comment" : "",
            "filledwith" : "cpp-1.3.0+commit.6e0ce939.Linux.g++",
            "lllcversion" : "Version: 0.4.18-develop.2017.9.25+commit.a72237f2.Linux.g++",
            "source" : "src/BlockchainTestsFiller/GeneralStateTests/stDelegatecallTestHomestead/delegatecallBasic_d0g0v0Filler.json",
            "sourceHash" : "59109c4d30dc9a295ec17b56e0e5d2977349c5a3f5058d0199ff3dd0bd82d605"
        },
        "blocks" : [
            {
                "blockHeader" : {
                    "bloom" : "0x00000000000000000000000000000000000000000000000000000000000000000000000000000000000000000000000000000000000000000000000000000000000000000000000000000000000000000000000000000000000000000000000000000000000000000000000000000000000000000000000000000000000000000000000000000000000000000000000000000000000000000000000000000000000000000000000000000000000000000000000000000000000000000000000000000000000000000000000000000000000000000000000000000000000000000000000000000000000000000000000000000000000000000000000000000000",
                    "coinbase" : "0x2adc25665018aa1fe0e6bc666dac8fc2697ff9ba",
                    "difficulty" : "0x020000",
                    "extraData" : "",
                    "gasLimit" : "0x01c9c380",
                    "gasUsed" : "0xeea3",
                    "hash" : "0x0137d76b148a1a3ff9374ae179130ef6eeec2968aa74676906790d128a7807dc",
                    "mixHash" : "0xa717e222b9c80d2ed166f61a49ec2f54d1249901cb7cfad569023ff0caba60ad",
                    "nonce" : "0xda5bd9cba5797511",
                    "number" : "0x01",
                    "parentHash" : "0xa72151156db5c0e2921059c490a1476feed22319c1a4be27f24a16a52b0345fe",
                    "receiptTrie" : "0x356066076b765649670d45b17afe0247a5ab02ec67d162f0ca09df1c994b3a4f",
                    "stateRoot" : "0xae4644c48e66ba15ce510c11eb52226d0fe56aeee15bc5f0b24937df3f691936",
                    "timestamp" : "0x03e8",
                    "transactionsTrie" : "0x3c263f26889a2249612b8057a77007a00ad873cbf85ba2aced30b5c7feb1c8c8",
                    "uncleHash" : "0x1dcc4de8dec75d7aab85b567b6ccd41ad312451b948a7413f0a142fd40d49347"
                },
                "rlp" : "0xf90260f901f8a0a72151156db5c0e2921059c490a1476feed22319c1a4be27f24a16a52b0345fea01dcc4de8dec75d7aab85b567b6ccd41ad312451b948a7413f0a142fd40d49347942adc25665018aa1fe0e6bc666dac8fc2697ff9baa0ae4644c48e66ba15ce510c11eb52226d0fe56aeee15bc5f0b24937df3f691936a03c263f26889a2249612b8057a77007a00ad873cbf85ba2aced30b5c7feb1c8c8a0356066076b765649670d45b17afe0247a5ab02ec67d162f0ca09df1c994b3a4fb901000000000000000000000000000000000000000000000000000000000000000000000000000000000000000000000000000000000000000000000000000000000000000000000000000000000000000000000000000000000000000000000000000000000000000000000000000000000000000000000000000000000000000000000000000000000000000000000000000000000000000000000000000000000000000000000000000000000000000000000000000000000000000000000000000000000000000000000000000000000000000000000000000000000000000000000000000000000000000000000000000000000000000000000000000000000083020000018401c9c38082eea38203e880a0a717e222b9c80d2ed166f61a49ec2f54d1249901cb7cfad569023ff0caba60ad88da5bd9cba5797511f862f8608001832dc6c094095e7baea6a6c7c4c2dfeb977efac326af552d8780801ba0c980cc618a5b9cb1ac487e6f794c548f104b18a5987b531cdf3f90d85b4d1557a05113d252a095f1b8a80121f08956f3af1d2ac155ea11d6ed81e1038166096668c0",
                "transactions" : [
                    {
                        "data" : "",
                        "gasLimit" : "0x2dc6c0",
                        "gasPrice" : "0x01",
                        "nonce" : "0x00",
                        "r" : "0xc980cc618a5b9cb1ac487e6f794c548f104b18a5987b531cdf3f90d85b4d1557",
                        "s" : "0x5113d252a095f1b8a80121f08956f3af1d2ac155ea11d6ed81e1038166096668",
                        "to" : "0x095e7baea6a6c7c4c2dfeb977efac326af552d87",
                        "v" : "0x1b",
                        "value" : "0x00"
                    }
                ],
                "uncleHeaders" : [
                ]
            }
        ],
        "genesisBlockHeader" : {
            "bloom" : "0x00000000000000000000000000000000000000000000000000000000000000000000000000000000000000000000000000000000000000000000000000000000000000000000000000000000000000000000000000000000000000000000000000000000000000000000000000000000000000000000000000000000000000000000000000000000000000000000000000000000000000000000000000000000000000000000000000000000000000000000000000000000000000000000000000000000000000000000000000000000000000000000000000000000000000000000000000000000000000000000000000000000000000000000000000000000",
            "coinbase" : "0x2adc25665018aa1fe0e6bc666dac8fc2697ff9ba",
            "difficulty" : "0x020000",
            "extraData" : "0x42",
            "gasLimit" : "0x01c9c380",
            "gasUsed" : "0x00",
            "hash" : "0xa72151156db5c0e2921059c490a1476feed22319c1a4be27f24a16a52b0345fe",
            "mixHash" : "0x56e81f171bcc55a6ff8345e692c0f86e5b48e01b996cadc001622fb5e363b421",
            "nonce" : "0x0102030405060708",
            "number" : "0x00",
            "parentHash" : "0x0000000000000000000000000000000000000000000000000000000000000000",
            "receiptTrie" : "0x56e81f171bcc55a6ff8345e692c0f86e5b48e01b996cadc001622fb5e363b421",
            "stateRoot" : "0x1b5519bf3432dabca8a840dfcffa11d2ace5e72c253f807d3c18fda89b181ead",
            "timestamp" : "0x03b6",
            "transactionsTrie" : "0x56e81f171bcc55a6ff8345e692c0f86e5b48e01b996cadc001622fb5e363b421",
            "uncleHash" : "0x1dcc4de8dec75d7aab85b567b6ccd41ad312451b948a7413f0a142fd40d49347"
        },
        "genesisRLP" : "0xf901fbf901f6a00000000000000000000000000000000000000000000000000000000000000000a01dcc4de8dec75d7aab85b567b6ccd41ad312451b948a7413f0a142fd40d49347942adc25665018aa1fe0e6bc666dac8fc2697ff9baa01b5519bf3432dabca8a840dfcffa11d2ace5e72c253f807d3c18fda89b181eada056e81f171bcc55a6ff8345e692c0f86e5b48e01b996cadc001622fb5e363b421a056e81f171bcc55a6ff8345e692c0f86e5b48e01b996cadc001622fb5e363b421b901000000000000000000000000000000000000000000000000000000000000000000000000000000000000000000000000000000000000000000000000000000000000000000000000000000000000000000000000000000000000000000000000000000000000000000000000000000000000000000000000000000000000000000000000000000000000000000000000000000000000000000000000000000000000000000000000000000000000000000000000000000000000000000000000000000000000000000000000000000000000000000000000000000000000000000000000000000000000000000000000000000000000000000000000000000000083020000808401c9c380808203b642a056e81f171bcc55a6ff8345e692c0f86e5b48e01b996cadc001622fb5e363b421880102030405060708c0c0",
        "lastblockhash" : "0x0137d76b148a1a3ff9374ae179130ef6eeec2968aa74676906790d128a7807dc",
        "network" : "Homestead",
        "postState" : {
            "0x095e7baea6a6c7c4c2dfeb977efac326af552d87" : {
                "balance" : "0x0de0b6b3a7640000",
                "code" : "0x600260006040600073945304eb96065b2a98b57a48a06ae28d285a71b56207a120f4600055",
                "nonce" : "0x00",
                "storage" : {
                    "0x00" : "0x01",
                    "0x01" : "0x01"
                }
            },
            "0x2adc25665018aa1fe0e6bc666dac8fc2697ff9ba" : {
                "balance" : "0x4563918244f4eea3",
                "code" : "",
                "nonce" : "0x00",
                "storage" : {
                }
            },
            "0x945304eb96065b2a98b57a48a06ae28d285a71b5" : {
                "balance" : "0x17",
                "code" : "0x6001600155603760005360026000f3",
                "nonce" : "0x00",
                "storage" : {
                }
            },
            "0xa94f5374fce5edbc8e2a8697c15331677e6ebf0b" : {
                "balance" : "0x0de0b6b3a763115d",
                "code" : "",
                "nonce" : "0x01",
                "storage" : {
                }
            }
        },
        "pre" : {
            "0x095e7baea6a6c7c4c2dfeb977efac326af552d87" : {
                "balance" : "0x0de0b6b3a7640000",
                "code" : "0x600260006040600073945304eb96065b2a98b57a48a06ae28d285a71b56207a120f4600055",
                "nonce" : "0x00",
                "storage" : {
                }
            },
            "0x945304eb96065b2a98b57a48a06ae28d285a71b5" : {
                "balance" : "0x17",
                "code" : "0x6001600155603760005360026000f3",
                "nonce" : "0x00",
                "storage" : {
                }
            },
            "0xa94f5374fce5edbc8e2a8697c15331677e6ebf0b" : {
                "balance" : "0x0de0b6b3a7640000",
                "code" : "",
                "nonce" : "0x00",
                "storage" : {
                }
            }
        }
    }
}