{
    "delegatecallInInitcodeToExistingContractOOG_d0g0v0_Byzantium" : {
        "_info" : {
            "comment" : "",
            "filledwith" : "cpp-1.3.0+commit.6e0ce939.Linux.g++",
            "lllcversion" : "Version: 0.4.18-develop.2017.9.25+commit.a72237f2.Linux.g++",
            "source" : "src/BlockchainTestsFiller/GeneralStateTests/stDelegatecallTestHomestead/delegatecallInInitcodeToExistingContractOOG_d0g0v0Filler.json",
            "sourceHash" : "7086283a6350857d1648bbca12a7ced680d8bf49c0776c54c65f52850aab6892"
        },
        "blocks" : [
            {
                "blockHeader" : {
                    "bloom" : "0x00000000000000000000000000000000000000000000000000000000000000000000000000000000000000000000000000000000000000000000000000000000000000000000000000000000000000000000000000000000000000000000000000000000000000000000000000000000000000000000000000000000000000000000000000000000000000000000000000000000000000000000000000000000000000000000000000000000000000000000000000000000000000000000000000000000000000000000000000000000000000000000000000000000000000000000000000000000000000000000000000000000000000000000000000000000",
                    "coinbase" : "0x2adc25665018aa1fe0e6bc666dac8fc2697ff9ba",
                    "difficulty" : "0x020000",
                    "extraData" : "",
                    "gasLimit" : "0x0f4240",
                    "gasUsed" : "0x01bc6b",
                    "hash" : "0x9725e10c5b5108b96266ba64af406ce2a411f4d6407c10d6a1a995c365af99bb",
                    "mixHash" : "0x434fa76e1a63c29e8033a4177f41388f526a35cc260ca0643bbc5a896b727128",
                    "nonce" : "0xf3ee26c7d4e75f2f",
                    "number" : "0x01",
                    "parentHash" : "0xbf8a4b6286cf8e8cb15eb31bae6e2da8b9c6042b2168e5c5882bb1b2e2686a9a",
                    "receiptTrie" : "0x0e3128f93c22ee7acc57ea8aa384a07fe0df6e0d62d74bf7f94bf2ab2ac7efb6",
                    "stateRoot" : "0xb91fe7501f4c0c837cfd69c2ad2efd207a6a460e3a68fd18d6afad3451376ed1",
                    "timestamp" : "0x03e8",
                    "transactionsTrie" : "0xbe9e029ed654b35b64030ce3878b3c599673652b7e5043daf31c8e30a41849ca",
                    "uncleHash" : "0x1dcc4de8dec75d7aab85b567b6ccd41ad312451b948a7413f0a142fd40d49347"
                },
                "rlp" : "0xf90260f901f8a0bf8a4b6286cf8e8cb15eb31bae6e2da8b9c6042b2168e5c5882bb1b2e2686a9aa01dcc4de8dec75d7aab85b567b6ccd41ad312451b948a7413f0a142fd40d49347942adc25665018aa1fe0e6bc666dac8fc2697ff9baa0b91fe7501f4c0c837cfd69c2ad2efd207a6a460e3a68fd18d6afad3451376ed1a0be9e029ed654b35b64030ce3878b3c599673652b7e5043daf31c8e30a41849caa00e3128f93c22ee7acc57ea8aa384a07fe0df6e0d62d74bf7f94bf2ab2ac7efb6b90100000000000000000000000000000000000000000000000000000000000000000000000000000000000000000000000000000000000000000000000000000000000000000000000000000000000000000000000000000000000000000000000000000000000000000000000000000000000000000000000000000000000000000000000000000000000000000000000000000000000000000000000000000000000000000000000000000000000000000000000000000000000000000000000000000000000000000000000000000000000000000000000000000000000000000000000000000000000000000000000000000000000000000000000000000000008302000001830f42408301bc6b8203e880a0434fa76e1a63c29e8033a4177f41388f526a35cc260ca0643bbc5a896b72712888f3ee26c7d4e75f2ff862f86080018302560894100000000000000000000000000000000000000080801ba0be5b659530ef080039d678223a4bc55918ea6c1b60812e8a7e5efdd16e46f1aea06565c897f85a3acfbfbee16dc465d991d817592d398db21f41b585be898c265cc0",
                "transactions" : [
                    {
                        "data" : "",
                        "gasLimit" : "0x025608",
                        "gasPrice" : "0x01",
                        "nonce" : "0x00",
                        "r" : "0xbe5b659530ef080039d678223a4bc55918ea6c1b60812e8a7e5efdd16e46f1ae",
                        "s" : "0x6565c897f85a3acfbfbee16dc465d991d817592d398db21f41b585be898c265c",
                        "to" : "0x1000000000000000000000000000000000000000",
                        "v" : "0x1b",
                        "value" : "0x00"
                    }
                ],
                "uncleHeaders" : [
                ]
            }
        ],
        "genesisBlockHeader" : {
            "bloom" : "0x00000000000000000000000000000000000000000000000000000000000000000000000000000000000000000000000000000000000000000000000000000000000000000000000000000000000000000000000000000000000000000000000000000000000000000000000000000000000000000000000000000000000000000000000000000000000000000000000000000000000000000000000000000000000000000000000000000000000000000000000000000000000000000000000000000000000000000000000000000000000000000000000000000000000000000000000000000000000000000000000000000000000000000000000000000000",
            "coinbase" : "0x2adc25665018aa1fe0e6bc666dac8fc2697ff9ba",
            "difficulty" : "0x020000",
            "extraData" : "0x42",
            "gasLimit" : "0x0f4240",
            "gasUsed" : "0x00",
            "hash" : "0xbf8a4b6286cf8e8cb15eb31bae6e2da8b9c6042b2168e5c5882bb1b2e2686a9a",
            "mixHash" : "0x56e81f171bcc55a6ff8345e692c0f86e5b48e01b996cadc001622fb5e363b421",
            "nonce" : "0x0102030405060708",
            "number" : "0x00",
            "parentHash" : "0x0000000000000000000000000000000000000000000000000000000000000000",
            "receiptTrie" : "0x56e81f171bcc55a6ff8345e692c0f86e5b48e01b996cadc001622fb5e363b421",
            "stateRoot" : "0xe385a9523c74cf8f4811a380c272e4b534bfe7f8084a22d1944fea197ab6e700",
            "timestamp" : "0x03b6",
            "transactionsTrie" : "0x56e81f171bcc55a6ff8345e692c0f86e5b48e01b996cadc001622fb5e363b421",
            "uncleHash" : "0x1dcc4de8dec75d7aab85b567b6ccd41ad312451b948a7413f0a142fd40d49347"
        },
        "genesisRLP" : "0xf901faf901f5a00000000000000000000000000000000000000000000000000000000000000000a01dcc4de8dec75d7aab85b567b6ccd41ad312451b948a7413f0a142fd40d49347942adc25665018aa1fe0e6bc666dac8fc2697ff9baa0e385a9523c74cf8f4811a380c272e4b534bfe7f8084a22d1944fea197ab6e700a056e81f171bcc55a6ff8345e692c0f86e5b48e01b996cadc001622fb5e363b421a056e81f171bcc55a6ff8345e692c0f86e5b48e01b996cadc001622fb5e363b421b90100000000000000000000000000000000000000000000000000000000000000000000000000000000000000000000000000000000000000000000000000000000000000000000000000000000000000000000000000000000000000000000000000000000000000000000000000000000000000000000000000000000000000000000000000000000000000000000000000000000000000000000000000000000000000000000000000000000000000000000000000000000000000000000000000000000000000000000000000000000000000000000000000000000000000000000000000000000000000000000000000000000000000000000000000000000008302000080830f4240808203b642a056e81f171bcc55a6ff8345e692c0f86e5b48e01b996cadc001622fb5e363b421880102030405060708c0c0",
        "lastblockhash" : "0x9725e10c5b5108b96266ba64af406ce2a411f4d6407c10d6a1a995c365af99bb",
        "network" : "Byzantium",
        "postState" : {
            "0x1000000000000000000000000000000000000000" : {
                "balance" : "0x270b",
                "code" : "0x7f604060006040600073945304eb96065b2a98b57a48a06ae28d285a71b56201866000527fa0f4600a5533600b550000000000000000000000000000000000000000000000602052604060006005f0",
                "nonce" : "0x01",
                "storage" : {
                }
            },
            "0x13136008b64ff592819b2fa6d43f2835c452020e" : {
                "balance" : "0x05",
                "code" : "",
                "nonce" : "0x01",
                "storage" : {
                    "0x02" : "0x01",
                    "0x0a" : "0x01",
                    "0x0b" : "0x1000000000000000000000000000000000000000"
                }
            },
            "0x2adc25665018aa1fe0e6bc666dac8fc2697ff9ba" : {
                "balance" : "0x29a2241af62dbc6b",
                "code" : "",
                "nonce" : "0x00",
                "storage" : {
                }
            },
            "0x945304eb96065b2a98b57a48a06ae28d285a71b5" : {
                "balance" : "0x00",
                "code" : "0x6001600255",
                "nonce" : "0x00",
                "storage" : {
                }
            },
            "0xa94f5374fce5edbc8e2a8697c15331677e6ebf0b" : {
                "balance" : "0x2386f26fbf4395",
                "code" : "",
                "nonce" : "0x01",
                "storage" : {
                }
            }
        },
        "pre" : {
            "0x1000000000000000000000000000000000000000" : {
                "balance" : "0x2710",
                "code" : "0x7f604060006040600073945304eb96065b2a98b57a48a06ae28d285a71b56201866000527fa0f4600a5533600b550000000000000000000000000000000000000000000000602052604060006005f0",
                "nonce" : "0x00",
                "storage" : {
                }
            },
            "0x945304eb96065b2a98b57a48a06ae28d285a71b5" : {
                "balance" : "0x00",
                "code" : "0x6001600255",
                "nonce" : "0x00",
                "storage" : {
                }
            },
            "0xa94f5374fce5edbc8e2a8697c15331677e6ebf0b" : {
                "balance" : "0x2386f26fc10000",
                "code" : "",
                "nonce" : "0x00",
                "storage" : {
                }
            }
        }
    },
    "delegatecallInInitcodeToExistingContractOOG_d0g0v0_EIP150" : {
        "_info" : {
            "comment" : "",
            "filledwith" : "cpp-1.3.0+commit.6e0ce939.Linux.g++",
            "lllcversion" : "Version: 0.4.18-develop.2017.9.25+commit.a72237f2.Linux.g++",
            "source" : "src/BlockchainTestsFiller/GeneralStateTests/stDelegatecallTestHomestead/delegatecallInInitcodeToExistingContractOOG_d0g0v0Filler.json",
            "sourceHash" : "7086283a6350857d1648bbca12a7ced680d8bf49c0776c54c65f52850aab6892"
        },
        "blocks" : [
            {
                "blockHeader" : {
                    "bloom" : "0x00000000000000000000000000000000000000000000000000000000000000000000000000000000000000000000000000000000000000000000000000000000000000000000000000000000000000000000000000000000000000000000000000000000000000000000000000000000000000000000000000000000000000000000000000000000000000000000000000000000000000000000000000000000000000000000000000000000000000000000000000000000000000000000000000000000000000000000000000000000000000000000000000000000000000000000000000000000000000000000000000000000000000000000000000000000",
                    "coinbase" : "0x2adc25665018aa1fe0e6bc666dac8fc2697ff9ba",
                    "difficulty" : "0x020000",
                    "extraData" : "",
                    "gasLimit" : "0x0f4240",
                    "gasUsed" : "0x01bc6b",
                    "hash" : "0x18650b7fb1d298a50d9a25b009e3da4e9fb7c113ec30dc7be4d757d430263e59",
                    "mixHash" : "0x7ea718160b99c9aabb7c46d61e9e9c27f89009b1ad813d593891bc1ec0674bc5",
                    "nonce" : "0xf88be0c0e54c391a",
                    "number" : "0x01",
                    "parentHash" : "0xbf8a4b6286cf8e8cb15eb31bae6e2da8b9c6042b2168e5c5882bb1b2e2686a9a",
                    "receiptTrie" : "0xd8941509fc4e7d535a756a15b8ff70c5959d18153672fea15d76386a821e7b80",
                    "stateRoot" : "0xacf851a4e013be253da41511af9a82427a2d73f06b327456a13d114ad1b301b9",
                    "timestamp" : "0x03e8",
                    "transactionsTrie" : "0xbe9e029ed654b35b64030ce3878b3c599673652b7e5043daf31c8e30a41849ca",
                    "uncleHash" : "0x1dcc4de8dec75d7aab85b567b6ccd41ad312451b948a7413f0a142fd40d49347"
                },
                "rlp" : "0xf90260f901f8a0bf8a4b6286cf8e8cb15eb31bae6e2da8b9c6042b2168e5c5882bb1b2e2686a9aa01dcc4de8dec75d7aab85b567b6ccd41ad312451b948a7413f0a142fd40d49347942adc25665018aa1fe0e6bc666dac8fc2697ff9baa0acf851a4e013be253da41511af9a82427a2d73f06b327456a13d114ad1b301b9a0be9e029ed654b35b64030ce3878b3c599673652b7e5043daf31c8e30a41849caa0d8941509fc4e7d535a756a15b8ff70c5959d18153672fea15d76386a821e7b80b90100000000000000000000000000000000000000000000000000000000000000000000000000000000000000000000000000000000000000000000000000000000000000000000000000000000000000000000000000000000000000000000000000000000000000000000000000000000000000000000000000000000000000000000000000000000000000000000000000000000000000000000000000000000000000000000000000000000000000000000000000000000000000000000000000000000000000000000000000000000000000000000000000000000000000000000000000000000000000000000000000000000000000000000000000000000008302000001830f42408301bc6b8203e880a07ea718160b99c9aabb7c46d61e9e9c27f89009b1ad813d593891bc1ec0674bc588f88be0c0e54c391af862f86080018302560894100000000000000000000000000000000000000080801ba0be5b659530ef080039d678223a4bc55918ea6c1b60812e8a7e5efdd16e46f1aea06565c897f85a3acfbfbee16dc465d991d817592d398db21f41b585be898c265cc0",
                "transactions" : [
                    {
                        "data" : "",
                        "gasLimit" : "0x025608",
                        "gasPrice" : "0x01",
                        "nonce" : "0x00",
                        "r" : "0xbe5b659530ef080039d678223a4bc55918ea6c1b60812e8a7e5efdd16e46f1ae",
                        "s" : "0x6565c897f85a3acfbfbee16dc465d991d817592d398db21f41b585be898c265c",
                        "to" : "0x1000000000000000000000000000000000000000",
                        "v" : "0x1b",
                        "value" : "0x00"
                    }
                ],
                "uncleHeaders" : [
                ]
            }
        ],
        "genesisBlockHeader" : {
            "bloom" : "0x00000000000000000000000000000000000000000000000000000000000000000000000000000000000000000000000000000000000000000000000000000000000000000000000000000000000000000000000000000000000000000000000000000000000000000000000000000000000000000000000000000000000000000000000000000000000000000000000000000000000000000000000000000000000000000000000000000000000000000000000000000000000000000000000000000000000000000000000000000000000000000000000000000000000000000000000000000000000000000000000000000000000000000000000000000000",
            "coinbase" : "0x2adc25665018aa1fe0e6bc666dac8fc2697ff9ba",
            "difficulty" : "0x020000",
            "extraData" : "0x42",
            "gasLimit" : "0x0f4240",
            "gasUsed" : "0x00",
            "hash" : "0xbf8a4b6286cf8e8cb15eb31bae6e2da8b9c6042b2168e5c5882bb1b2e2686a9a",
            "mixHash" : "0x56e81f171bcc55a6ff8345e692c0f86e5b48e01b996cadc001622fb5e363b421",
            "nonce" : "0x0102030405060708",
            "number" : "0x00",
            "parentHash" : "0x0000000000000000000000000000000000000000000000000000000000000000",
            "receiptTrie" : "0x56e81f171bcc55a6ff8345e692c0f86e5b48e01b996cadc001622fb5e363b421",
            "stateRoot" : "0xe385a9523c74cf8f4811a380c272e4b534bfe7f8084a22d1944fea197ab6e700",
            "timestamp" : "0x03b6",
            "transactionsTrie" : "0x56e81f171bcc55a6ff8345e692c0f86e5b48e01b996cadc001622fb5e363b421",
            "uncleHash" : "0x1dcc4de8dec75d7aab85b567b6ccd41ad312451b948a7413f0a142fd40d49347"
        },
        "genesisRLP" : "0xf901faf901f5a00000000000000000000000000000000000000000000000000000000000000000a01dcc4de8dec75d7aab85b567b6ccd41ad312451b948a7413f0a142fd40d49347942adc25665018aa1fe0e6bc666dac8fc2697ff9baa0e385a9523c74cf8f4811a380c272e4b534bfe7f8084a22d1944fea197ab6e700a056e81f171bcc55a6ff8345e692c0f86e5b48e01b996cadc001622fb5e363b421a056e81f171bcc55a6ff8345e692c0f86e5b48e01b996cadc001622fb5e363b421b90100000000000000000000000000000000000000000000000000000000000000000000000000000000000000000000000000000000000000000000000000000000000000000000000000000000000000000000000000000000000000000000000000000000000000000000000000000000000000000000000000000000000000000000000000000000000000000000000000000000000000000000000000000000000000000000000000000000000000000000000000000000000000000000000000000000000000000000000000000000000000000000000000000000000000000000000000000000000000000000000000000000000000000000000000000000008302000080830f4240808203b642a056e81f171bcc55a6ff8345e692c0f86e5b48e01b996cadc001622fb5e363b421880102030405060708c0c0",
        "lastblockhash" : "0x18650b7fb1d298a50d9a25b009e3da4e9fb7c113ec30dc7be4d757d430263e59",
        "network" : "EIP150",
        "postState" : {
            "0x1000000000000000000000000000000000000000" : {
                "balance" : "0x270b",
                "code" : "0x7f604060006040600073945304eb96065b2a98b57a48a06ae28d285a71b56201866000527fa0f4600a5533600b550000000000000000000000000000000000000000000000602052604060006005f0",
                "nonce" : "0x01",
                "storage" : {
                }
            },
            "0x13136008b64ff592819b2fa6d43f2835c452020e" : {
                "balance" : "0x05",
                "code" : "",
                "nonce" : "0x00",
                "storage" : {
                    "0x02" : "0x01",
                    "0x0a" : "0x01",
                    "0x0b" : "0x1000000000000000000000000000000000000000"
                }
            },
            "0x2adc25665018aa1fe0e6bc666dac8fc2697ff9ba" : {
                "balance" : "0x4563918244f5bc6b",
                "code" : "",
                "nonce" : "0x00",
                "storage" : {
                }
            },
            "0x945304eb96065b2a98b57a48a06ae28d285a71b5" : {
                "balance" : "0x00",
                "code" : "0x6001600255",
                "nonce" : "0x00",
                "storage" : {
                }
            },
            "0xa94f5374fce5edbc8e2a8697c15331677e6ebf0b" : {
                "balance" : "0x2386f26fbf4395",
                "code" : "",
                "nonce" : "0x01",
                "storage" : {
                }
            }
        },
        "pre" : {
            "0x1000000000000000000000000000000000000000" : {
                "balance" : "0x2710",
                "code" : "0x7f604060006040600073945304eb96065b2a98b57a48a06ae28d285a71b56201866000527fa0f4600a5533600b550000000000000000000000000000000000000000000000602052604060006005f0",
                "nonce" : "0x00",
                "storage" : {
                }
            },
            "0x945304eb96065b2a98b57a48a06ae28d285a71b5" : {
                "balance" : "0x00",
                "code" : "0x6001600255",
                "nonce" : "0x00",
                "storage" : {
                }
            },
            "0xa94f5374fce5edbc8e2a8697c15331677e6ebf0b" : {
                "balance" : "0x2386f26fc10000",
                "code" : "",
                "nonce" : "0x00",
                "storage" : {
                }
            }
        }
    },
    "delegatecallInInitcodeToExistingContractOOG_d0g0v0_EIP158" : {
        "_info" : {
            "comment" : "",
            "filledwith" : "cpp-1.3.0+commit.6e0ce939.Linux.g++",
            "lllcversion" : "Version: 0.4.18-develop.2017.9.25+commit.a72237f2.Linux.g++",
            "source" : "src/BlockchainTestsFiller/GeneralStateTests/stDelegatecallTestHomestead/delegatecallInInitcodeToExistingContractOOG_d0g0v0Filler.json",
            "sourceHash" : "7086283a6350857d1648bbca12a7ced680d8bf49c0776c54c65f52850aab6892"
        },
        "blocks" : [
            {
                "blockHeader" : {
                    "bloom" : "0x00000000000000000000000000000000000000000000000000000000000000000000000000000000000000000000000000000000000000000000000000000000000000000000000000000000000000000000000000000000000000000000000000000000000000000000000000000000000000000000000000000000000000000000000000000000000000000000000000000000000000000000000000000000000000000000000000000000000000000000000000000000000000000000000000000000000000000000000000000000000000000000000000000000000000000000000000000000000000000000000000000000000000000000000000000000",
                    "coinbase" : "0x2adc25665018aa1fe0e6bc666dac8fc2697ff9ba",
                    "difficulty" : "0x020000",
                    "extraData" : "",
                    "gasLimit" : "0x0f4240",
                    "gasUsed" : "0x01bc6b",
                    "hash" : "0xc348bd5a9d31ea5ec6ff07a585db711c40f8f70f1ced716e009decd0f437891e",
                    "mixHash" : "0xd3d3c90199b0a7ac245c6d2a0fc90670b2ac63572b1500154b26bcc9fc0766a5",
                    "nonce" : "0xe2e4906f65a62a6a",
                    "number" : "0x01",
                    "parentHash" : "0xbf8a4b6286cf8e8cb15eb31bae6e2da8b9c6042b2168e5c5882bb1b2e2686a9a",
                    "receiptTrie" : "0x9e324b941558bd5016bf074d54e4e332afb2353ef628ac8cc744e17f11a44bf6",
                    "stateRoot" : "0xecb4c9c8bc797e1dd17a8d213cc08efee28c776e0ae26f2058f363d932c7eaa3",
                    "timestamp" : "0x03e8",
                    "transactionsTrie" : "0xbe9e029ed654b35b64030ce3878b3c599673652b7e5043daf31c8e30a41849ca",
                    "uncleHash" : "0x1dcc4de8dec75d7aab85b567b6ccd41ad312451b948a7413f0a142fd40d49347"
                },
                "rlp" : "0xf90260f901f8a0bf8a4b6286cf8e8cb15eb31bae6e2da8b9c6042b2168e5c5882bb1b2e2686a9aa01dcc4de8dec75d7aab85b567b6ccd41ad312451b948a7413f0a142fd40d49347942adc25665018aa1fe0e6bc666dac8fc2697ff9baa0ecb4c9c8bc797e1dd17a8d213cc08efee28c776e0ae26f2058f363d932c7eaa3a0be9e029ed654b35b64030ce3878b3c599673652b7e5043daf31c8e30a41849caa09e324b941558bd5016bf074d54e4e332afb2353ef628ac8cc744e17f11a44bf6b90100000000000000000000000000000000000000000000000000000000000000000000000000000000000000000000000000000000000000000000000000000000000000000000000000000000000000000000000000000000000000000000000000000000000000000000000000000000000000000000000000000000000000000000000000000000000000000000000000000000000000000000000000000000000000000000000000000000000000000000000000000000000000000000000000000000000000000000000000000000000000000000000000000000000000000000000000000000000000000000000000000000000000000000000000000000008302000001830f42408301bc6b8203e880a0d3d3c90199b0a7ac245c6d2a0fc90670b2ac63572b1500154b26bcc9fc0766a588e2e4906f65a62a6af862f86080018302560894100000000000000000000000000000000000000080801ba0be5b659530ef080039d678223a4bc55918ea6c1b60812e8a7e5efdd16e46f1aea06565c897f85a3acfbfbee16dc465d991d817592d398db21f41b585be898c265cc0",
                "transactions" : [
                    {
                        "data" : "",
                        "gasLimit" : "0x025608",
                        "gasPrice" : "0x01",
                        "nonce" : "0x00",
                        "r" : "0xbe5b659530ef080039d678223a4bc55918ea6c1b60812e8a7e5efdd16e46f1ae",
                        "s" : "0x6565c897f85a3acfbfbee16dc465d991d817592d398db21f41b585be898c265c",
                        "to" : "0x1000000000000000000000000000000000000000",
                        "v" : "0x1b",
                        "value" : "0x00"
                    }
                ],
                "uncleHeaders" : [
                ]
            }
        ],
        "genesisBlockHeader" : {
            "bloom" : "0x00000000000000000000000000000000000000000000000000000000000000000000000000000000000000000000000000000000000000000000000000000000000000000000000000000000000000000000000000000000000000000000000000000000000000000000000000000000000000000000000000000000000000000000000000000000000000000000000000000000000000000000000000000000000000000000000000000000000000000000000000000000000000000000000000000000000000000000000000000000000000000000000000000000000000000000000000000000000000000000000000000000000000000000000000000000",
            "coinbase" : "0x2adc25665018aa1fe0e6bc666dac8fc2697ff9ba",
            "difficulty" : "0x020000",
            "extraData" : "0x42",
            "gasLimit" : "0x0f4240",
            "gasUsed" : "0x00",
            "hash" : "0xbf8a4b6286cf8e8cb15eb31bae6e2da8b9c6042b2168e5c5882bb1b2e2686a9a",
            "mixHash" : "0x56e81f171bcc55a6ff8345e692c0f86e5b48e01b996cadc001622fb5e363b421",
            "nonce" : "0x0102030405060708",
            "number" : "0x00",
            "parentHash" : "0x0000000000000000000000000000000000000000000000000000000000000000",
            "receiptTrie" : "0x56e81f171bcc55a6ff8345e692c0f86e5b48e01b996cadc001622fb5e363b421",
            "stateRoot" : "0xe385a9523c74cf8f4811a380c272e4b534bfe7f8084a22d1944fea197ab6e700",
            "timestamp" : "0x03b6",
            "transactionsTrie" : "0x56e81f171bcc55a6ff8345e692c0f86e5b48e01b996cadc001622fb5e363b421",
            "uncleHash" : "0x1dcc4de8dec75d7aab85b567b6ccd41ad312451b948a7413f0a142fd40d49347"
        },
        "genesisRLP" : "0xf901faf901f5a00000000000000000000000000000000000000000000000000000000000000000a01dcc4de8dec75d7aab85b567b6ccd41ad312451b948a7413f0a142fd40d49347942adc25665018aa1fe0e6bc666dac8fc2697ff9baa0e385a9523c74cf8f4811a380c272e4b534bfe7f8084a22d1944fea197ab6e700a056e81f171bcc55a6ff8345e692c0f86e5b48e01b996cadc001622fb5e363b421a056e81f171bcc55a6ff8345e692c0f86e5b48e01b996cadc001622fb5e363b421b90100000000000000000000000000000000000000000000000000000000000000000000000000000000000000000000000000000000000000000000000000000000000000000000000000000000000000000000000000000000000000000000000000000000000000000000000000000000000000000000000000000000000000000000000000000000000000000000000000000000000000000000000000000000000000000000000000000000000000000000000000000000000000000000000000000000000000000000000000000000000000000000000000000000000000000000000000000000000000000000000000000000000000000000000000000000008302000080830f4240808203b642a056e81f171bcc55a6ff8345e692c0f86e5b48e01b996cadc001622fb5e363b421880102030405060708c0c0",
        "lastblockhash" : "0xc348bd5a9d31ea5ec6ff07a585db711c40f8f70f1ced716e009decd0f437891e",
        "network" : "EIP158",
        "postState" : {
            "0x1000000000000000000000000000000000000000" : {
                "balance" : "0x270b",
                "code" : "0x7f604060006040600073945304eb96065b2a98b57a48a06ae28d285a71b56201866000527fa0f4600a5533600b550000000000000000000000000000000000000000000000602052604060006005f0",
                "nonce" : "0x01",
                "storage" : {
                }
            },
            "0x13136008b64ff592819b2fa6d43f2835c452020e" : {
                "balance" : "0x05",
                "code" : "",
                "nonce" : "0x01",
                "storage" : {
                    "0x02" : "0x01",
                    "0x0a" : "0x01",
                    "0x0b" : "0x1000000000000000000000000000000000000000"
                }
            },
            "0x2adc25665018aa1fe0e6bc666dac8fc2697ff9ba" : {
                "balance" : "0x4563918244f5bc6b",
                "code" : "",
                "nonce" : "0x00",
                "storage" : {
                }
            },
            "0x945304eb96065b2a98b57a48a06ae28d285a71b5" : {
                "balance" : "0x00",
                "code" : "0x6001600255",
                "nonce" : "0x00",
                "storage" : {
                }
            },
            "0xa94f5374fce5edbc8e2a8697c15331677e6ebf0b" : {
                "balance" : "0x2386f26fbf4395",
                "code" : "",
                "nonce" : "0x01",
                "storage" : {
                }
            }
        },
        "pre" : {
            "0x1000000000000000000000000000000000000000" : {
                "balance" : "0x2710",
                "code" : "0x7f604060006040600073945304eb96065b2a98b57a48a06ae28d285a71b56201866000527fa0f4600a5533600b550000000000000000000000000000000000000000000000602052604060006005f0",
                "nonce" : "0x00",
                "storage" : {
                }
            },
            "0x945304eb96065b2a98b57a48a06ae28d285a71b5" : {
                "balance" : "0x00",
                "code" : "0x6001600255",
                "nonce" : "0x00",
                "storage" : {
                }
            },
            "0xa94f5374fce5edbc8e2a8697c15331677e6ebf0b" : {
                "balance" : "0x2386f26fc10000",
                "code" : "",
                "nonce" : "0x00",
                "storage" : {
                }
            }
        }
    },
    "delegatecallInInitcodeToExistingContractOOG_d0g0v0_Frontier" : {
        "_info" : {
            "comment" : "",
            "filledwith" : "cpp-1.3.0+commit.6e0ce939.Linux.g++",
            "lllcversion" : "Version: 0.4.18-develop.2017.9.25+commit.a72237f2.Linux.g++",
            "source" : "src/BlockchainTestsFiller/GeneralStateTests/stDelegatecallTestHomestead/delegatecallInInitcodeToExistingContractOOG_d0g0v0Filler.json",
            "sourceHash" : "7086283a6350857d1648bbca12a7ced680d8bf49c0776c54c65f52850aab6892"
        },
        "blocks" : [
            {
                "blockHeader" : {
                    "bloom" : "0x00000000000000000000000000000000000000000000000000000000000000000000000000000000000000000000000000000000000000000000000000000000000000000000000000000000000000000000000000000000000000000000000000000000000000000000000000000000000000000000000000000000000000000000000000000000000000000000000000000000000000000000000000000000000000000000000000000000000000000000000000000000000000000000000000000000000000000000000000000000000000000000000000000000000000000000000000000000000000000000000000000000000000000000000000000000",
                    "coinbase" : "0x2adc25665018aa1fe0e6bc666dac8fc2697ff9ba",
                    "difficulty" : "0x020000",
                    "extraData" : "",
                    "gasLimit" : "0x0f4240",
                    "gasUsed" : "0x025608",
                    "hash" : "0x15f63a86143fb6bab619c215f4a2e9caee9ce42e07120993ff675f6f060d1dba",
                    "mixHash" : "0xf6b5a2f159223a61787ab4d5e422d9faa96b7681d7ad1d4fd3b8331b45b6b4ba",
                    "nonce" : "0x7e91dee7465877fe",
                    "number" : "0x01",
                    "parentHash" : "0xbf8a4b6286cf8e8cb15eb31bae6e2da8b9c6042b2168e5c5882bb1b2e2686a9a",
                    "receiptTrie" : "0xefda08f24a21de0d501b050e60750ffe279268722a91cd9237024dd279f6b642",
                    "stateRoot" : "0xcf5ff363f86acfae0657488260fcfca782d31e88b6f7c80fd6ca2c58d247f2c9",
                    "timestamp" : "0x03e8",
                    "transactionsTrie" : "0xbe9e029ed654b35b64030ce3878b3c599673652b7e5043daf31c8e30a41849ca",
                    "uncleHash" : "0x1dcc4de8dec75d7aab85b567b6ccd41ad312451b948a7413f0a142fd40d49347"
                },
                "rlp" : "0xf90260f901f8a0bf8a4b6286cf8e8cb15eb31bae6e2da8b9c6042b2168e5c5882bb1b2e2686a9aa01dcc4de8dec75d7aab85b567b6ccd41ad312451b948a7413f0a142fd40d49347942adc25665018aa1fe0e6bc666dac8fc2697ff9baa0cf5ff363f86acfae0657488260fcfca782d31e88b6f7c80fd6ca2c58d247f2c9a0be9e029ed654b35b64030ce3878b3c599673652b7e5043daf31c8e30a41849caa0efda08f24a21de0d501b050e60750ffe279268722a91cd9237024dd279f6b642b90100000000000000000000000000000000000000000000000000000000000000000000000000000000000000000000000000000000000000000000000000000000000000000000000000000000000000000000000000000000000000000000000000000000000000000000000000000000000000000000000000000000000000000000000000000000000000000000000000000000000000000000000000000000000000000000000000000000000000000000000000000000000000000000000000000000000000000000000000000000000000000000000000000000000000000000000000000000000000000000000000000000000000000000000000000000008302000001830f4240830256088203e880a0f6b5a2f159223a61787ab4d5e422d9faa96b7681d7ad1d4fd3b8331b45b6b4ba887e91dee7465877fef862f86080018302560894100000000000000000000000000000000000000080801ba0be5b659530ef080039d678223a4bc55918ea6c1b60812e8a7e5efdd16e46f1aea06565c897f85a3acfbfbee16dc465d991d817592d398db21f41b585be898c265cc0",
                "transactions" : [
                    {
                        "data" : "",
                        "gasLimit" : "0x025608",
                        "gasPrice" : "0x01",
                        "nonce" : "0x00",
                        "r" : "0xbe5b659530ef080039d678223a4bc55918ea6c1b60812e8a7e5efdd16e46f1ae",
                        "s" : "0x6565c897f85a3acfbfbee16dc465d991d817592d398db21f41b585be898c265c",
                        "to" : "0x1000000000000000000000000000000000000000",
                        "v" : "0x1b",
                        "value" : "0x00"
                    }
                ],
                "uncleHeaders" : [
                ]
            }
        ],
        "genesisBlockHeader" : {
            "bloom" : "0x00000000000000000000000000000000000000000000000000000000000000000000000000000000000000000000000000000000000000000000000000000000000000000000000000000000000000000000000000000000000000000000000000000000000000000000000000000000000000000000000000000000000000000000000000000000000000000000000000000000000000000000000000000000000000000000000000000000000000000000000000000000000000000000000000000000000000000000000000000000000000000000000000000000000000000000000000000000000000000000000000000000000000000000000000000000",
            "coinbase" : "0x2adc25665018aa1fe0e6bc666dac8fc2697ff9ba",
            "difficulty" : "0x020000",
            "extraData" : "0x42",
            "gasLimit" : "0x0f4240",
            "gasUsed" : "0x00",
            "hash" : "0xbf8a4b6286cf8e8cb15eb31bae6e2da8b9c6042b2168e5c5882bb1b2e2686a9a",
            "mixHash" : "0x56e81f171bcc55a6ff8345e692c0f86e5b48e01b996cadc001622fb5e363b421",
            "nonce" : "0x0102030405060708",
            "number" : "0x00",
            "parentHash" : "0x0000000000000000000000000000000000000000000000000000000000000000",
            "receiptTrie" : "0x56e81f171bcc55a6ff8345e692c0f86e5b48e01b996cadc001622fb5e363b421",
            "stateRoot" : "0xe385a9523c74cf8f4811a380c272e4b534bfe7f8084a22d1944fea197ab6e700",
            "timestamp" : "0x03b6",
            "transactionsTrie" : "0x56e81f171bcc55a6ff8345e692c0f86e5b48e01b996cadc001622fb5e363b421",
            "uncleHash" : "0x1dcc4de8dec75d7aab85b567b6ccd41ad312451b948a7413f0a142fd40d49347"
        },
        "genesisRLP" : "0xf901faf901f5a00000000000000000000000000000000000000000000000000000000000000000a01dcc4de8dec75d7aab85b567b6ccd41ad312451b948a7413f0a142fd40d49347942adc25665018aa1fe0e6bc666dac8fc2697ff9baa0e385a9523c74cf8f4811a380c272e4b534bfe7f8084a22d1944fea197ab6e700a056e81f171bcc55a6ff8345e692c0f86e5b48e01b996cadc001622fb5e363b421a056e81f171bcc55a6ff8345e692c0f86e5b48e01b996cadc001622fb5e363b421b90100000000000000000000000000000000000000000000000000000000000000000000000000000000000000000000000000000000000000000000000000000000000000000000000000000000000000000000000000000000000000000000000000000000000000000000000000000000000000000000000000000000000000000000000000000000000000000000000000000000000000000000000000000000000000000000000000000000000000000000000000000000000000000000000000000000000000000000000000000000000000000000000000000000000000000000000000000000000000000000000000000000000000000000000000000000008302000080830f4240808203b642a056e81f171bcc55a6ff8345e692c0f86e5b48e01b996cadc001622fb5e363b421880102030405060708c0c0",
        "lastblockhash" : "0x15f63a86143fb6bab619c215f4a2e9caee9ce42e07120993ff675f6f060d1dba",
        "network" : "Frontier",
        "postState" : {
            "0x1000000000000000000000000000000000000000" : {
                "balance" : "0x2710",
                "code" : "0x7f604060006040600073945304eb96065b2a98b57a48a06ae28d285a71b56201866000527fa0f4600a5533600b550000000000000000000000000000000000000000000000602052604060006005f0",
                "nonce" : "0x01",
                "storage" : {
                }
            },
            "0x2adc25665018aa1fe0e6bc666dac8fc2697ff9ba" : {
                "balance" : "0x4563918244f65608",
                "code" : "",
                "nonce" : "0x00",
                "storage" : {
                }
            },
            "0x945304eb96065b2a98b57a48a06ae28d285a71b5" : {
                "balance" : "0x00",
                "code" : "0x6001600255",
                "nonce" : "0x00",
                "storage" : {
                }
            },
            "0xa94f5374fce5edbc8e2a8697c15331677e6ebf0b" : {
                "balance" : "0x2386f26fbea9f8",
                "code" : "",
                "nonce" : "0x01",
                "storage" : {
                }
            }
        },
        "pre" : {
            "0x1000000000000000000000000000000000000000" : {
                "balance" : "0x2710",
                "code" : "0x7f604060006040600073945304eb96065b2a98b57a48a06ae28d285a71b56201866000527fa0f4600a5533600b550000000000000000000000000000000000000000000000602052604060006005f0",
                "nonce" : "0x00",
                "storage" : {
                }
            },
            "0x945304eb96065b2a98b57a48a06ae28d285a71b5" : {
                "balance" : "0x00",
                "code" : "0x6001600255",
                "nonce" : "0x00",
                "storage" : {
                }
            },
            "0xa94f5374fce5edbc8e2a8697c15331677e6ebf0b" : {
                "balance" : "0x2386f26fc10000",
                "code" : "",
                "nonce" : "0x00",
                "storage" : {
                }
            }
        }
    },
    "delegatecallInInitcodeToExistingContractOOG_d0g0v0_Homestead" : {
        "_info" : {
            "comment" : "",
            "filledwith" : "cpp-1.3.0+commit.6e0ce939.Linux.g++",
            "lllcversion" : "Version: 0.4.18-develop.2017.9.25+commit.a72237f2.Linux.g++",
            "source" : "src/BlockchainTestsFiller/GeneralStateTests/stDelegatecallTestHomestead/delegatecallInInitcodeToExistingContractOOG_d0g0v0Filler.json",
            "sourceHash" : "7086283a6350857d1648bbca12a7ced680d8bf49c0776c54c65f52850aab6892"
        },
        "blocks" : [
            {
                "blockHeader" : {
                    "bloom" : "0x00000000000000000000000000000000000000000000000000000000000000000000000000000000000000000000000000000000000000000000000000000000000000000000000000000000000000000000000000000000000000000000000000000000000000000000000000000000000000000000000000000000000000000000000000000000000000000000000000000000000000000000000000000000000000000000000000000000000000000000000000000000000000000000000000000000000000000000000000000000000000000000000000000000000000000000000000000000000000000000000000000000000000000000000000000000",
                    "coinbase" : "0x2adc25665018aa1fe0e6bc666dac8fc2697ff9ba",
                    "difficulty" : "0x020000",
                    "extraData" : "",
                    "gasLimit" : "0x0f4240",
                    "gasUsed" : "0x025608",
                    "hash" : "0x6f8baca385e0dc6c6eeac673a6b813fdeff2df44d52359d4aa0457f538fd6d6c",
                    "mixHash" : "0xbcf9291dd1ca153a250e1ef0370e5eca69ad941a0893fb5e4f5208043c9b88f8",
                    "nonce" : "0xe91026f87c7d1d3b",
                    "number" : "0x01",
                    "parentHash" : "0xbf8a4b6286cf8e8cb15eb31bae6e2da8b9c6042b2168e5c5882bb1b2e2686a9a",
                    "receiptTrie" : "0xefda08f24a21de0d501b050e60750ffe279268722a91cd9237024dd279f6b642",
                    "stateRoot" : "0xcf5ff363f86acfae0657488260fcfca782d31e88b6f7c80fd6ca2c58d247f2c9",
                    "timestamp" : "0x03e8",
                    "transactionsTrie" : "0xbe9e029ed654b35b64030ce3878b3c599673652b7e5043daf31c8e30a41849ca",
                    "uncleHash" : "0x1dcc4de8dec75d7aab85b567b6ccd41ad312451b948a7413f0a142fd40d49347"
                },
                "rlp" : "0xf90260f901f8a0bf8a4b6286cf8e8cb15eb31bae6e2da8b9c6042b2168e5c5882bb1b2e2686a9aa01dcc4de8dec75d7aab85b567b6ccd41ad312451b948a7413f0a142fd40d49347942adc25665018aa1fe0e6bc666dac8fc2697ff9baa0cf5ff363f86acfae0657488260fcfca782d31e88b6f7c80fd6ca2c58d247f2c9a0be9e029ed654b35b64030ce3878b3c599673652b7e5043daf31c8e30a41849caa0efda08f24a21de0d501b050e60750ffe279268722a91cd9237024dd279f6b642b90100000000000000000000000000000000000000000000000000000000000000000000000000000000000000000000000000000000000000000000000000000000000000000000000000000000000000000000000000000000000000000000000000000000000000000000000000000000000000000000000000000000000000000000000000000000000000000000000000000000000000000000000000000000000000000000000000000000000000000000000000000000000000000000000000000000000000000000000000000000000000000000000000000000000000000000000000000000000000000000000000000000000000000000000000000000008302000001830f4240830256088203e880a0bcf9291dd1ca153a250e1ef0370e5eca69ad941a0893fb5e4f5208043c9b88f888e91026f87c7d1d3bf862f86080018302560894100000000000000000000000000000000000000080801ba0be5b659530ef080039d678223a4bc55918ea6c1b60812e8a7e5efdd16e46f1aea06565c897f85a3acfbfbee16dc465d991d817592d398db21f41b585be898c265cc0",
                "transactions" : [
                    {
                        "data" : "",
                        "gasLimit" : "0x025608",
                        "gasPrice" : "0x01",
                        "nonce" : "0x00",
                        "r" : "0xbe5b659530ef080039d678223a4bc55918ea6c1b60812e8a7e5efdd16e46f1ae",
                        "s" : "0x6565c897f85a3acfbfbee16dc465d991d817592d398db21f41b585be898c265c",
                        "to" : "0x1000000000000000000000000000000000000000",
                        "v" : "0x1b",
                        "value" : "0x00"
                    }
                ],
                "uncleHeaders" : [
                ]
            }
        ],
        "genesisBlockHeader" : {
            "bloom" : "0x00000000000000000000000000000000000000000000000000000000000000000000000000000000000000000000000000000000000000000000000000000000000000000000000000000000000000000000000000000000000000000000000000000000000000000000000000000000000000000000000000000000000000000000000000000000000000000000000000000000000000000000000000000000000000000000000000000000000000000000000000000000000000000000000000000000000000000000000000000000000000000000000000000000000000000000000000000000000000000000000000000000000000000000000000000000",
            "coinbase" : "0x2adc25665018aa1fe0e6bc666dac8fc2697ff9ba",
            "difficulty" : "0x020000",
            "extraData" : "0x42",
            "gasLimit" : "0x0f4240",
            "gasUsed" : "0x00",
            "hash" : "0xbf8a4b6286cf8e8cb15eb31bae6e2da8b9c6042b2168e5c5882bb1b2e2686a9a",
            "mixHash" : "0x56e81f171bcc55a6ff8345e692c0f86e5b48e01b996cadc001622fb5e363b421",
            "nonce" : "0x0102030405060708",
            "number" : "0x00",
            "parentHash" : "0x0000000000000000000000000000000000000000000000000000000000000000",
            "receiptTrie" : "0x56e81f171bcc55a6ff8345e692c0f86e5b48e01b996cadc001622fb5e363b421",
            "stateRoot" : "0xe385a9523c74cf8f4811a380c272e4b534bfe7f8084a22d1944fea197ab6e700",
            "timestamp" : "0x03b6",
            "transactionsTrie" : "0x56e81f171bcc55a6ff8345e692c0f86e5b48e01b996cadc001622fb5e363b421",
            "uncleHash" : "0x1dcc4de8dec75d7aab85b567b6ccd41ad312451b948a7413f0a142fd40d49347"
        },
        "genesisRLP" : "0xf901faf901f5a00000000000000000000000000000000000000000000000000000000000000000a01dcc4de8dec75d7aab85b567b6ccd41ad312451b948a7413f0a142fd40d49347942adc25665018aa1fe0e6bc666dac8fc2697ff9baa0e385a9523c74cf8f4811a380c272e4b534bfe7f8084a22d1944fea197ab6e700a056e81f171bcc55a6ff8345e692c0f86e5b48e01b996cadc001622fb5e363b421a056e81f171bcc55a6ff8345e692c0f86e5b48e01b996cadc001622fb5e363b421b90100000000000000000000000000000000000000000000000000000000000000000000000000000000000000000000000000000000000000000000000000000000000000000000000000000000000000000000000000000000000000000000000000000000000000000000000000000000000000000000000000000000000000000000000000000000000000000000000000000000000000000000000000000000000000000000000000000000000000000000000000000000000000000000000000000000000000000000000000000000000000000000000000000000000000000000000000000000000000000000000000000000000000000000000000000000008302000080830f4240808203b642a056e81f171bcc55a6ff8345e692c0f86e5b48e01b996cadc001622fb5e363b421880102030405060708c0c0",
        "lastblockhash" : "0x6f8baca385e0dc6c6eeac673a6b813fdeff2df44d52359d4aa0457f538fd6d6c",
        "network" : "Homestead",
        "postState" : {
            "0x1000000000000000000000000000000000000000" : {
                "balance" : "0x2710",
                "code" : "0x7f604060006040600073945304eb96065b2a98b57a48a06ae28d285a71b56201866000527fa0f4600a5533600b550000000000000000000000000000000000000000000000602052604060006005f0",
                "nonce" : "0x01",
                "storage" : {
                }
            },
            "0x2adc25665018aa1fe0e6bc666dac8fc2697ff9ba" : {
                "balance" : "0x4563918244f65608",
                "code" : "",
                "nonce" : "0x00",
                "storage" : {
                }
            },
            "0x945304eb96065b2a98b57a48a06ae28d285a71b5" : {
                "balance" : "0x00",
                "code" : "0x6001600255",
                "nonce" : "0x00",
                "storage" : {
                }
            },
            "0xa94f5374fce5edbc8e2a8697c15331677e6ebf0b" : {
                "balance" : "0x2386f26fbea9f8",
                "code" : "",
                "nonce" : "0x01",
                "storage" : {
                }
            }
        },
        "pre" : {
            "0x1000000000000000000000000000000000000000" : {
                "balance" : "0x2710",
                "code" : "0x7f604060006040600073945304eb96065b2a98b57a48a06ae28d285a71b56201866000527fa0f4600a5533600b550000000000000000000000000000000000000000000000602052604060006005f0",
                "nonce" : "0x00",
                "storage" : {
                }
            },
            "0x945304eb96065b2a98b57a48a06ae28d285a71b5" : {
                "balance" : "0x00",
                "code" : "0x6001600255",
                "nonce" : "0x00",
                "storage" : {
                }
            },
            "0xa94f5374fce5edbc8e2a8697c15331677e6ebf0b" : {
                "balance" : "0x2386f26fc10000",
                "code" : "",
                "nonce" : "0x00",
                "storage" : {
                }
            }
        }
    }
}