{
    "calldatacopy_dejavu2_d0g0v0_Byzantium" : {
        "_info" : {
            "comment" : "",
            "filledwith" : "cpp-1.3.0+commit.6e0ce939.Linux.g++",
            "lllcversion" : "Version: 0.4.18-develop.2017.9.25+commit.a72237f2.Linux.g++",
            "source" : "src/BlockchainTestsFiller/GeneralStateTests/stMemoryTest/calldatacopy_dejavu2_d0g0v0Filler.json",
            "sourceHash" : "cca864794fa536b2c1a108fa7983fa6e4ff2953c4c9aacec50b4c3325ce7aaf2"
        },
        "blocks" : [
            {
                "blockHeader" : {
                    "bloom" : "0x00000000000000000000000000000000000000000000000000000000000000000000000000000000000000000000000000000000000000000000000000000000000000000000000000000000000000000000000000000000000000000000000000000000000000000000000000000000000000000000000000000000000000000000000000000000000000000000000000000000000000000000000000000000000000000000000000000000000000000000000000000000000000000000000000000000000000000000000000000000000000000000000000000000000000000000000000000000000000000000000000000000000000000000000000000000",
                    "coinbase" : "0x2adc25665018aa1fe0e6bc666dac8fc2697ff9ba",
                    "difficulty" : "0x020000",
                    "extraData" : "",
                    "gasLimit" : "0x0a00000000",
                    "gasUsed" : "0xa0a4",
                    "hash" : "0xa182b5d862eb85c8833ca354642ce20e6057f523b1491cf787e9c5a29ca2c847",
                    "mixHash" : "0x2b4b247b0ba360b81fe73bb77d32d3c511ddb35a7dc30be84d484fc3db7b8d90",
                    "nonce" : "0x1237fd01ebd5bf7e",
                    "number" : "0x01",
                    "parentHash" : "0x2640bcd03db26ad209f24c4508c34ddfb74660e734cd3468f86d85e5ce0a7723",
                    "receiptTrie" : "0x27ab6b7ebb11802145c0e41204bf1109f3d01142f9f68a14a13dc45f3bbf876e",
                    "stateRoot" : "0x97b3e118829dee170d66ee387c828339306971512b61b5042dcea02dc582a43c",
                    "timestamp" : "0x03e8",
                    "transactionsTrie" : "0x6d9ef624c6e7dca5878fa00c4d8228e90e5203cdc467f05a9fe6bcda153b4b51",
                    "uncleHash" : "0x1dcc4de8dec75d7aab85b567b6ccd41ad312451b948a7413f0a142fd40d49347"
                },
                "rlp" : "0xf90263f901f9a02640bcd03db26ad209f24c4508c34ddfb74660e734cd3468f86d85e5ce0a7723a01dcc4de8dec75d7aab85b567b6ccd41ad312451b948a7413f0a142fd40d49347942adc25665018aa1fe0e6bc666dac8fc2697ff9baa097b3e118829dee170d66ee387c828339306971512b61b5042dcea02dc582a43ca06d9ef624c6e7dca5878fa00c4d8228e90e5203cdc467f05a9fe6bcda153b4b51a027ab6b7ebb11802145c0e41204bf1109f3d01142f9f68a14a13dc45f3bbf876eb90100000000000000000000000000000000000000000000000000000000000000000000000000000000000000000000000000000000000000000000000000000000000000000000000000000000000000000000000000000000000000000000000000000000000000000000000000000000000000000000000000000000000000000000000000000000000000000000000000000000000000000000000000000000000000000000000000000000000000000000000000000000000000000000000000000000000000000000000000000000000000000000000000000000000000000000000000000000000000000000000000000000000000000000000000000000008302000001850a0000000082a0a48203e880a02b4b247b0ba360b81fe73bb77d32d3c511ddb35a7dc30be84d484fc3db7b8d90881237fd01ebd5bf7ef864f8628001850a00000000940f572e5295c57f15886f9b263e2f6d2d6c7b5ec60a801ca08d6dc99b0a23e8dce308654ebdeec71e7611a35631fecb8d8dc8fcf7ea728507a01a8e552ea161ed12512983bbb20aeb975a70b5eb23792fc30d1f6aab4b92b326c0",
                "transactions" : [
                    {
                        "data" : "",
                        "gasLimit" : "0x0a00000000",
                        "gasPrice" : "0x01",
                        "nonce" : "0x00",
                        "r" : "0x8d6dc99b0a23e8dce308654ebdeec71e7611a35631fecb8d8dc8fcf7ea728507",
                        "s" : "0x1a8e552ea161ed12512983bbb20aeb975a70b5eb23792fc30d1f6aab4b92b326",
                        "to" : "0x0f572e5295c57f15886f9b263e2f6d2d6c7b5ec6",
                        "v" : "0x1c",
                        "value" : "0x0a"
                    }
                ],
                "uncleHeaders" : [
                ]
            }
        ],
        "genesisBlockHeader" : {
            "bloom" : "0x00000000000000000000000000000000000000000000000000000000000000000000000000000000000000000000000000000000000000000000000000000000000000000000000000000000000000000000000000000000000000000000000000000000000000000000000000000000000000000000000000000000000000000000000000000000000000000000000000000000000000000000000000000000000000000000000000000000000000000000000000000000000000000000000000000000000000000000000000000000000000000000000000000000000000000000000000000000000000000000000000000000000000000000000000000000",
            "coinbase" : "0x2adc25665018aa1fe0e6bc666dac8fc2697ff9ba",
            "difficulty" : "0x020000",
            "extraData" : "0x42",
            "gasLimit" : "0x0a00000000",
            "gasUsed" : "0x00",
            "hash" : "0x2640bcd03db26ad209f24c4508c34ddfb74660e734cd3468f86d85e5ce0a7723",
            "mixHash" : "0x56e81f171bcc55a6ff8345e692c0f86e5b48e01b996cadc001622fb5e363b421",
            "nonce" : "0x0102030405060708",
            "number" : "0x00",
            "parentHash" : "0x0000000000000000000000000000000000000000000000000000000000000000",
            "receiptTrie" : "0x56e81f171bcc55a6ff8345e692c0f86e5b48e01b996cadc001622fb5e363b421",
            "stateRoot" : "0x0c8f25f83945e923239909b99ad69a253d0f5761a4aabfcbd00ecc137ca1ce2f",
            "timestamp" : "0x03b6",
            "transactionsTrie" : "0x56e81f171bcc55a6ff8345e692c0f86e5b48e01b996cadc001622fb5e363b421",
            "uncleHash" : "0x1dcc4de8dec75d7aab85b567b6ccd41ad312451b948a7413f0a142fd40d49347"
        },
        "genesisRLP" : "0xf901fcf901f7a00000000000000000000000000000000000000000000000000000000000000000a01dcc4de8dec75d7aab85b567b6ccd41ad312451b948a7413f0a142fd40d49347942adc25665018aa1fe0e6bc666dac8fc2697ff9baa00c8f25f83945e923239909b99ad69a253d0f5761a4aabfcbd00ecc137ca1ce2fa056e81f171bcc55a6ff8345e692c0f86e5b48e01b996cadc001622fb5e363b421a056e81f171bcc55a6ff8345e692c0f86e5b48e01b996cadc001622fb5e363b421b90100000000000000000000000000000000000000000000000000000000000000000000000000000000000000000000000000000000000000000000000000000000000000000000000000000000000000000000000000000000000000000000000000000000000000000000000000000000000000000000000000000000000000000000000000000000000000000000000000000000000000000000000000000000000000000000000000000000000000000000000000000000000000000000000000000000000000000000000000000000000000000000000000000000000000000000000000000000000000000000000000000000000000000000000000000000008302000080850a00000000808203b642a056e81f171bcc55a6ff8345e692c0f86e5b48e01b996cadc001622fb5e363b421880102030405060708c0c0",
        "lastblockhash" : "0xa182b5d862eb85c8833ca354642ce20e6057f523b1491cf787e9c5a29ca2c847",
        "network" : "Byzantium",
        "postState" : {
            "0x0f572e5295c57f15886f9b263e2f6d2d6c7b5ec6" : {
                "balance" : "0x0de0b6b3a764000a",
                "code" : "0x6005565b005b6042601f536101036000601f3760005180606014600357640badc0ffee60ff55",
                "nonce" : "0x00",
                "storage" : {
                    "0xff" : "0x0badc0ffee"
                }
            },
            "0x2adc25665018aa1fe0e6bc666dac8fc2697ff9ba" : {
                "balance" : "0x29a2241af62ca0a4",
                "code" : "",
                "nonce" : "0x00",
                "storage" : {
                }
            },
            "0xa94f5374fce5edbc8e2a8697c15331677e6ebf0b" : {
                "balance" : "0x63ffff5f52",
                "code" : "",
                "nonce" : "0x01",
                "storage" : {
                }
            }
        },
        "pre" : {
            "0x0f572e5295c57f15886f9b263e2f6d2d6c7b5ec6" : {
                "balance" : "0x0de0b6b3a7640000",
                "code" : "0x6005565b005b6042601f536101036000601f3760005180606014600357640badc0ffee60ff55",
                "nonce" : "0x00",
                "storage" : {
                }
            },
            "0xa94f5374fce5edbc8e2a8697c15331677e6ebf0b" : {
                "balance" : "0x6400000000",
                "code" : "",
                "nonce" : "0x00",
                "storage" : {
                }
            }
        }
    },
    "calldatacopy_dejavu2_d0g0v0_EIP150" : {
        "_info" : {
            "comment" : "",
            "filledwith" : "cpp-1.3.0+commit.6e0ce939.Linux.g++",
            "lllcversion" : "Version: 0.4.18-develop.2017.9.25+commit.a72237f2.Linux.g++",
            "source" : "src/BlockchainTestsFiller/GeneralStateTests/stMemoryTest/calldatacopy_dejavu2_d0g0v0Filler.json",
            "sourceHash" : "cca864794fa536b2c1a108fa7983fa6e4ff2953c4c9aacec50b4c3325ce7aaf2"
        },
        "blocks" : [
            {
                "blockHeader" : {
                    "bloom" : "0x00000000000000000000000000000000000000000000000000000000000000000000000000000000000000000000000000000000000000000000000000000000000000000000000000000000000000000000000000000000000000000000000000000000000000000000000000000000000000000000000000000000000000000000000000000000000000000000000000000000000000000000000000000000000000000000000000000000000000000000000000000000000000000000000000000000000000000000000000000000000000000000000000000000000000000000000000000000000000000000000000000000000000000000000000000000",
                    "coinbase" : "0x2adc25665018aa1fe0e6bc666dac8fc2697ff9ba",
                    "difficulty" : "0x020000",
                    "extraData" : "",
                    "gasLimit" : "0x0a00000000",
                    "gasUsed" : "0xa0a4",
                    "hash" : "0x9910d2e2e3fe146515738a0ba804764b617b275055f89e79560207c5e87b7c9b",
                    "mixHash" : "0x9e75bbc2cb0bda649af635f21ee7a33da81c73752c2b89da45ce487e23bc2327",
                    "nonce" : "0x0a1eecf6e2fe6269",
                    "number" : "0x01",
                    "parentHash" : "0x2640bcd03db26ad209f24c4508c34ddfb74660e734cd3468f86d85e5ce0a7723",
                    "receiptTrie" : "0x95ecfcbdbfc56d8f633e2a18be31e93406cfd37b10728ae538451c4e063aa61e",
                    "stateRoot" : "0xca48b1bd07db008d4ba6904ad0fb9d1769909783513657ed1d7db04f053d734f",
                    "timestamp" : "0x03e8",
                    "transactionsTrie" : "0x6d9ef624c6e7dca5878fa00c4d8228e90e5203cdc467f05a9fe6bcda153b4b51",
                    "uncleHash" : "0x1dcc4de8dec75d7aab85b567b6ccd41ad312451b948a7413f0a142fd40d49347"
                },
                "rlp" : "0xf90263f901f9a02640bcd03db26ad209f24c4508c34ddfb74660e734cd3468f86d85e5ce0a7723a01dcc4de8dec75d7aab85b567b6ccd41ad312451b948a7413f0a142fd40d49347942adc25665018aa1fe0e6bc666dac8fc2697ff9baa0ca48b1bd07db008d4ba6904ad0fb9d1769909783513657ed1d7db04f053d734fa06d9ef624c6e7dca5878fa00c4d8228e90e5203cdc467f05a9fe6bcda153b4b51a095ecfcbdbfc56d8f633e2a18be31e93406cfd37b10728ae538451c4e063aa61eb90100000000000000000000000000000000000000000000000000000000000000000000000000000000000000000000000000000000000000000000000000000000000000000000000000000000000000000000000000000000000000000000000000000000000000000000000000000000000000000000000000000000000000000000000000000000000000000000000000000000000000000000000000000000000000000000000000000000000000000000000000000000000000000000000000000000000000000000000000000000000000000000000000000000000000000000000000000000000000000000000000000000000000000000000000000000008302000001850a0000000082a0a48203e880a09e75bbc2cb0bda649af635f21ee7a33da81c73752c2b89da45ce487e23bc2327880a1eecf6e2fe6269f864f8628001850a00000000940f572e5295c57f15886f9b263e2f6d2d6c7b5ec60a801ca08d6dc99b0a23e8dce308654ebdeec71e7611a35631fecb8d8dc8fcf7ea728507a01a8e552ea161ed12512983bbb20aeb975a70b5eb23792fc30d1f6aab4b92b326c0",
                "transactions" : [
                    {
                        "data" : "",
                        "gasLimit" : "0x0a00000000",
                        "gasPrice" : "0x01",
                        "nonce" : "0x00",
                        "r" : "0x8d6dc99b0a23e8dce308654ebdeec71e7611a35631fecb8d8dc8fcf7ea728507",
                        "s" : "0x1a8e552ea161ed12512983bbb20aeb975a70b5eb23792fc30d1f6aab4b92b326",
                        "to" : "0x0f572e5295c57f15886f9b263e2f6d2d6c7b5ec6",
                        "v" : "0x1c",
                        "value" : "0x0a"
                    }
                ],
                "uncleHeaders" : [
                ]
            }
        ],
        "genesisBlockHeader" : {
            "bloom" : "0x00000000000000000000000000000000000000000000000000000000000000000000000000000000000000000000000000000000000000000000000000000000000000000000000000000000000000000000000000000000000000000000000000000000000000000000000000000000000000000000000000000000000000000000000000000000000000000000000000000000000000000000000000000000000000000000000000000000000000000000000000000000000000000000000000000000000000000000000000000000000000000000000000000000000000000000000000000000000000000000000000000000000000000000000000000000",
            "coinbase" : "0x2adc25665018aa1fe0e6bc666dac8fc2697ff9ba",
            "difficulty" : "0x020000",
            "extraData" : "0x42",
            "gasLimit" : "0x0a00000000",
            "gasUsed" : "0x00",
            "hash" : "0x2640bcd03db26ad209f24c4508c34ddfb74660e734cd3468f86d85e5ce0a7723",
            "mixHash" : "0x56e81f171bcc55a6ff8345e692c0f86e5b48e01b996cadc001622fb5e363b421",
            "nonce" : "0x0102030405060708",
            "number" : "0x00",
            "parentHash" : "0x0000000000000000000000000000000000000000000000000000000000000000",
            "receiptTrie" : "0x56e81f171bcc55a6ff8345e692c0f86e5b48e01b996cadc001622fb5e363b421",
            "stateRoot" : "0x0c8f25f83945e923239909b99ad69a253d0f5761a4aabfcbd00ecc137ca1ce2f",
            "timestamp" : "0x03b6",
            "transactionsTrie" : "0x56e81f171bcc55a6ff8345e692c0f86e5b48e01b996cadc001622fb5e363b421",
            "uncleHash" : "0x1dcc4de8dec75d7aab85b567b6ccd41ad312451b948a7413f0a142fd40d49347"
        },
        "genesisRLP" : "0xf901fcf901f7a00000000000000000000000000000000000000000000000000000000000000000a01dcc4de8dec75d7aab85b567b6ccd41ad312451b948a7413f0a142fd40d49347942adc25665018aa1fe0e6bc666dac8fc2697ff9baa00c8f25f83945e923239909b99ad69a253d0f5761a4aabfcbd00ecc137ca1ce2fa056e81f171bcc55a6ff8345e692c0f86e5b48e01b996cadc001622fb5e363b421a056e81f171bcc55a6ff8345e692c0f86e5b48e01b996cadc001622fb5e363b421b90100000000000000000000000000000000000000000000000000000000000000000000000000000000000000000000000000000000000000000000000000000000000000000000000000000000000000000000000000000000000000000000000000000000000000000000000000000000000000000000000000000000000000000000000000000000000000000000000000000000000000000000000000000000000000000000000000000000000000000000000000000000000000000000000000000000000000000000000000000000000000000000000000000000000000000000000000000000000000000000000000000000000000000000000000000000008302000080850a00000000808203b642a056e81f171bcc55a6ff8345e692c0f86e5b48e01b996cadc001622fb5e363b421880102030405060708c0c0",
        "lastblockhash" : "0x9910d2e2e3fe146515738a0ba804764b617b275055f89e79560207c5e87b7c9b",
        "network" : "EIP150",
        "postState" : {
            "0x0f572e5295c57f15886f9b263e2f6d2d6c7b5ec6" : {
                "balance" : "0x0de0b6b3a764000a",
                "code" : "0x6005565b005b6042601f536101036000601f3760005180606014600357640badc0ffee60ff55",
                "nonce" : "0x00",
                "storage" : {
                    "0xff" : "0x0badc0ffee"
                }
            },
            "0x2adc25665018aa1fe0e6bc666dac8fc2697ff9ba" : {
                "balance" : "0x4563918244f4a0a4",
                "code" : "",
                "nonce" : "0x00",
                "storage" : {
                }
            },
            "0xa94f5374fce5edbc8e2a8697c15331677e6ebf0b" : {
                "balance" : "0x63ffff5f52",
                "code" : "",
                "nonce" : "0x01",
                "storage" : {
                }
            }
        },
        "pre" : {
            "0x0f572e5295c57f15886f9b263e2f6d2d6c7b5ec6" : {
                "balance" : "0x0de0b6b3a7640000",
                "code" : "0x6005565b005b6042601f536101036000601f3760005180606014600357640badc0ffee60ff55",
                "nonce" : "0x00",
                "storage" : {
                }
            },
            "0xa94f5374fce5edbc8e2a8697c15331677e6ebf0b" : {
                "balance" : "0x6400000000",
                "code" : "",
                "nonce" : "0x00",
                "storage" : {
                }
            }
        }
    },
    "calldatacopy_dejavu2_d0g0v0_EIP158" : {
        "_info" : {
            "comment" : "",
            "filledwith" : "cpp-1.3.0+commit.6e0ce939.Linux.g++",
            "lllcversion" : "Version: 0.4.18-develop.2017.9.25+commit.a72237f2.Linux.g++",
            "source" : "src/BlockchainTestsFiller/GeneralStateTests/stMemoryTest/calldatacopy_dejavu2_d0g0v0Filler.json",
            "sourceHash" : "cca864794fa536b2c1a108fa7983fa6e4ff2953c4c9aacec50b4c3325ce7aaf2"
        },
        "blocks" : [
            {
                "blockHeader" : {
                    "bloom" : "0x00000000000000000000000000000000000000000000000000000000000000000000000000000000000000000000000000000000000000000000000000000000000000000000000000000000000000000000000000000000000000000000000000000000000000000000000000000000000000000000000000000000000000000000000000000000000000000000000000000000000000000000000000000000000000000000000000000000000000000000000000000000000000000000000000000000000000000000000000000000000000000000000000000000000000000000000000000000000000000000000000000000000000000000000000000000",
                    "coinbase" : "0x2adc25665018aa1fe0e6bc666dac8fc2697ff9ba",
                    "difficulty" : "0x020000",
                    "extraData" : "",
                    "gasLimit" : "0x0a00000000",
                    "gasUsed" : "0xa0a4",
                    "hash" : "0x4e6f1243193d5450f3c53a5ffff4ef12c87078722af6c0a918890a91950af243",
                    "mixHash" : "0xcf6a747949a6bfd0b2d6a90aec72a08c95e588337bb64c2f1266c5bb5cb17754",
                    "nonce" : "0xcfb75822f90af780",
                    "number" : "0x01",
                    "parentHash" : "0x2640bcd03db26ad209f24c4508c34ddfb74660e734cd3468f86d85e5ce0a7723",
                    "receiptTrie" : "0x95ecfcbdbfc56d8f633e2a18be31e93406cfd37b10728ae538451c4e063aa61e",
                    "stateRoot" : "0xca48b1bd07db008d4ba6904ad0fb9d1769909783513657ed1d7db04f053d734f",
                    "timestamp" : "0x03e8",
                    "transactionsTrie" : "0x6d9ef624c6e7dca5878fa00c4d8228e90e5203cdc467f05a9fe6bcda153b4b51",
                    "uncleHash" : "0x1dcc4de8dec75d7aab85b567b6ccd41ad312451b948a7413f0a142fd40d49347"
                },
                "rlp" : "0xf90263f901f9a02640bcd03db26ad209f24c4508c34ddfb74660e734cd3468f86d85e5ce0a7723a01dcc4de8dec75d7aab85b567b6ccd41ad312451b948a7413f0a142fd40d49347942adc25665018aa1fe0e6bc666dac8fc2697ff9baa0ca48b1bd07db008d4ba6904ad0fb9d1769909783513657ed1d7db04f053d734fa06d9ef624c6e7dca5878fa00c4d8228e90e5203cdc467f05a9fe6bcda153b4b51a095ecfcbdbfc56d8f633e2a18be31e93406cfd37b10728ae538451c4e063aa61eb90100000000000000000000000000000000000000000000000000000000000000000000000000000000000000000000000000000000000000000000000000000000000000000000000000000000000000000000000000000000000000000000000000000000000000000000000000000000000000000000000000000000000000000000000000000000000000000000000000000000000000000000000000000000000000000000000000000000000000000000000000000000000000000000000000000000000000000000000000000000000000000000000000000000000000000000000000000000000000000000000000000000000000000000000000000000008302000001850a0000000082a0a48203e880a0cf6a747949a6bfd0b2d6a90aec72a08c95e588337bb64c2f1266c5bb5cb1775488cfb75822f90af780f864f8628001850a00000000940f572e5295c57f15886f9b263e2f6d2d6c7b5ec60a801ca08d6dc99b0a23e8dce308654ebdeec71e7611a35631fecb8d8dc8fcf7ea728507a01a8e552ea161ed12512983bbb20aeb975a70b5eb23792fc30d1f6aab4b92b326c0",
                "transactions" : [
                    {
                        "data" : "",
                        "gasLimit" : "0x0a00000000",
                        "gasPrice" : "0x01",
                        "nonce" : "0x00",
                        "r" : "0x8d6dc99b0a23e8dce308654ebdeec71e7611a35631fecb8d8dc8fcf7ea728507",
                        "s" : "0x1a8e552ea161ed12512983bbb20aeb975a70b5eb23792fc30d1f6aab4b92b326",
                        "to" : "0x0f572e5295c57f15886f9b263e2f6d2d6c7b5ec6",
                        "v" : "0x1c",
                        "value" : "0x0a"
                    }
                ],
                "uncleHeaders" : [
                ]
            }
        ],
        "genesisBlockHeader" : {
            "bloom" : "0x00000000000000000000000000000000000000000000000000000000000000000000000000000000000000000000000000000000000000000000000000000000000000000000000000000000000000000000000000000000000000000000000000000000000000000000000000000000000000000000000000000000000000000000000000000000000000000000000000000000000000000000000000000000000000000000000000000000000000000000000000000000000000000000000000000000000000000000000000000000000000000000000000000000000000000000000000000000000000000000000000000000000000000000000000000000",
            "coinbase" : "0x2adc25665018aa1fe0e6bc666dac8fc2697ff9ba",
            "difficulty" : "0x020000",
            "extraData" : "0x42",
            "gasLimit" : "0x0a00000000",
            "gasUsed" : "0x00",
            "hash" : "0x2640bcd03db26ad209f24c4508c34ddfb74660e734cd3468f86d85e5ce0a7723",
            "mixHash" : "0x56e81f171bcc55a6ff8345e692c0f86e5b48e01b996cadc001622fb5e363b421",
            "nonce" : "0x0102030405060708",
            "number" : "0x00",
            "parentHash" : "0x0000000000000000000000000000000000000000000000000000000000000000",
            "receiptTrie" : "0x56e81f171bcc55a6ff8345e692c0f86e5b48e01b996cadc001622fb5e363b421",
            "stateRoot" : "0x0c8f25f83945e923239909b99ad69a253d0f5761a4aabfcbd00ecc137ca1ce2f",
            "timestamp" : "0x03b6",
            "transactionsTrie" : "0x56e81f171bcc55a6ff8345e692c0f86e5b48e01b996cadc001622fb5e363b421",
            "uncleHash" : "0x1dcc4de8dec75d7aab85b567b6ccd41ad312451b948a7413f0a142fd40d49347"
        },
        "genesisRLP" : "0xf901fcf901f7a00000000000000000000000000000000000000000000000000000000000000000a01dcc4de8dec75d7aab85b567b6ccd41ad312451b948a7413f0a142fd40d49347942adc25665018aa1fe0e6bc666dac8fc2697ff9baa00c8f25f83945e923239909b99ad69a253d0f5761a4aabfcbd00ecc137ca1ce2fa056e81f171bcc55a6ff8345e692c0f86e5b48e01b996cadc001622fb5e363b421a056e81f171bcc55a6ff8345e692c0f86e5b48e01b996cadc001622fb5e363b421b90100000000000000000000000000000000000000000000000000000000000000000000000000000000000000000000000000000000000000000000000000000000000000000000000000000000000000000000000000000000000000000000000000000000000000000000000000000000000000000000000000000000000000000000000000000000000000000000000000000000000000000000000000000000000000000000000000000000000000000000000000000000000000000000000000000000000000000000000000000000000000000000000000000000000000000000000000000000000000000000000000000000000000000000000000000000008302000080850a00000000808203b642a056e81f171bcc55a6ff8345e692c0f86e5b48e01b996cadc001622fb5e363b421880102030405060708c0c0",
        "lastblockhash" : "0x4e6f1243193d5450f3c53a5ffff4ef12c87078722af6c0a918890a91950af243",
        "network" : "EIP158",
        "postState" : {
            "0x0f572e5295c57f15886f9b263e2f6d2d6c7b5ec6" : {
                "balance" : "0x0de0b6b3a764000a",
                "code" : "0x6005565b005b6042601f536101036000601f3760005180606014600357640badc0ffee60ff55",
                "nonce" : "0x00",
                "storage" : {
                    "0xff" : "0x0badc0ffee"
                }
            },
            "0x2adc25665018aa1fe0e6bc666dac8fc2697ff9ba" : {
                "balance" : "0x4563918244f4a0a4",
                "code" : "",
                "nonce" : "0x00",
                "storage" : {
                }
            },
            "0xa94f5374fce5edbc8e2a8697c15331677e6ebf0b" : {
                "balance" : "0x63ffff5f52",
                "code" : "",
                "nonce" : "0x01",
                "storage" : {
                }
            }
        },
        "pre" : {
            "0x0f572e5295c57f15886f9b263e2f6d2d6c7b5ec6" : {
                "balance" : "0x0de0b6b3a7640000",
                "code" : "0x6005565b005b6042601f536101036000601f3760005180606014600357640badc0ffee60ff55",
                "nonce" : "0x00",
                "storage" : {
                }
            },
            "0xa94f5374fce5edbc8e2a8697c15331677e6ebf0b" : {
                "balance" : "0x6400000000",
                "code" : "",
                "nonce" : "0x00",
                "storage" : {
                }
            }
        }
    },
    "calldatacopy_dejavu2_d0g0v0_Frontier" : {
        "_info" : {
            "comment" : "",
            "filledwith" : "cpp-1.3.0+commit.6e0ce939.Linux.g++",
            "lllcversion" : "Version: 0.4.18-develop.2017.9.25+commit.a72237f2.Linux.g++",
            "source" : "src/BlockchainTestsFiller/GeneralStateTests/stMemoryTest/calldatacopy_dejavu2_d0g0v0Filler.json",
            "sourceHash" : "cca864794fa536b2c1a108fa7983fa6e4ff2953c4c9aacec50b4c3325ce7aaf2"
        },
        "blocks" : [
            {
                "blockHeader" : {
                    "bloom" : "0x00000000000000000000000000000000000000000000000000000000000000000000000000000000000000000000000000000000000000000000000000000000000000000000000000000000000000000000000000000000000000000000000000000000000000000000000000000000000000000000000000000000000000000000000000000000000000000000000000000000000000000000000000000000000000000000000000000000000000000000000000000000000000000000000000000000000000000000000000000000000000000000000000000000000000000000000000000000000000000000000000000000000000000000000000000000",
                    "coinbase" : "0x2adc25665018aa1fe0e6bc666dac8fc2697ff9ba",
                    "difficulty" : "0x020000",
                    "extraData" : "",
                    "gasLimit" : "0x0a00000000",
                    "gasUsed" : "0xa0a4",
                    "hash" : "0x07d5041e7f149b1785e99ce9ed8cf91464c34ece43a8f51132db5a7f1ce79411",
                    "mixHash" : "0x960542f7f6998b2b8798a818c648b395c5d926861a5a1541d2450f3f608ddd59",
                    "nonce" : "0x034f84983ee4c194",
                    "number" : "0x01",
                    "parentHash" : "0x2640bcd03db26ad209f24c4508c34ddfb74660e734cd3468f86d85e5ce0a7723",
                    "receiptTrie" : "0x95ecfcbdbfc56d8f633e2a18be31e93406cfd37b10728ae538451c4e063aa61e",
                    "stateRoot" : "0xca48b1bd07db008d4ba6904ad0fb9d1769909783513657ed1d7db04f053d734f",
                    "timestamp" : "0x03e8",
                    "transactionsTrie" : "0x6d9ef624c6e7dca5878fa00c4d8228e90e5203cdc467f05a9fe6bcda153b4b51",
                    "uncleHash" : "0x1dcc4de8dec75d7aab85b567b6ccd41ad312451b948a7413f0a142fd40d49347"
                },
                "rlp" : "0xf90263f901f9a02640bcd03db26ad209f24c4508c34ddfb74660e734cd3468f86d85e5ce0a7723a01dcc4de8dec75d7aab85b567b6ccd41ad312451b948a7413f0a142fd40d49347942adc25665018aa1fe0e6bc666dac8fc2697ff9baa0ca48b1bd07db008d4ba6904ad0fb9d1769909783513657ed1d7db04f053d734fa06d9ef624c6e7dca5878fa00c4d8228e90e5203cdc467f05a9fe6bcda153b4b51a095ecfcbdbfc56d8f633e2a18be31e93406cfd37b10728ae538451c4e063aa61eb90100000000000000000000000000000000000000000000000000000000000000000000000000000000000000000000000000000000000000000000000000000000000000000000000000000000000000000000000000000000000000000000000000000000000000000000000000000000000000000000000000000000000000000000000000000000000000000000000000000000000000000000000000000000000000000000000000000000000000000000000000000000000000000000000000000000000000000000000000000000000000000000000000000000000000000000000000000000000000000000000000000000000000000000000000000000008302000001850a0000000082a0a48203e880a0960542f7f6998b2b8798a818c648b395c5d926861a5a1541d2450f3f608ddd5988034f84983ee4c194f864f8628001850a00000000940f572e5295c57f15886f9b263e2f6d2d6c7b5ec60a801ca08d6dc99b0a23e8dce308654ebdeec71e7611a35631fecb8d8dc8fcf7ea728507a01a8e552ea161ed12512983bbb20aeb975a70b5eb23792fc30d1f6aab4b92b326c0",
                "transactions" : [
                    {
                        "data" : "",
                        "gasLimit" : "0x0a00000000",
                        "gasPrice" : "0x01",
                        "nonce" : "0x00",
                        "r" : "0x8d6dc99b0a23e8dce308654ebdeec71e7611a35631fecb8d8dc8fcf7ea728507",
                        "s" : "0x1a8e552ea161ed12512983bbb20aeb975a70b5eb23792fc30d1f6aab4b92b326",
                        "to" : "0x0f572e5295c57f15886f9b263e2f6d2d6c7b5ec6",
                        "v" : "0x1c",
                        "value" : "0x0a"
                    }
                ],
                "uncleHeaders" : [
                ]
            }
        ],
        "genesisBlockHeader" : {
            "bloom" : "0x00000000000000000000000000000000000000000000000000000000000000000000000000000000000000000000000000000000000000000000000000000000000000000000000000000000000000000000000000000000000000000000000000000000000000000000000000000000000000000000000000000000000000000000000000000000000000000000000000000000000000000000000000000000000000000000000000000000000000000000000000000000000000000000000000000000000000000000000000000000000000000000000000000000000000000000000000000000000000000000000000000000000000000000000000000000",
            "coinbase" : "0x2adc25665018aa1fe0e6bc666dac8fc2697ff9ba",
            "difficulty" : "0x020000",
            "extraData" : "0x42",
            "gasLimit" : "0x0a00000000",
            "gasUsed" : "0x00",
            "hash" : "0x2640bcd03db26ad209f24c4508c34ddfb74660e734cd3468f86d85e5ce0a7723",
            "mixHash" : "0x56e81f171bcc55a6ff8345e692c0f86e5b48e01b996cadc001622fb5e363b421",
            "nonce" : "0x0102030405060708",
            "number" : "0x00",
            "parentHash" : "0x0000000000000000000000000000000000000000000000000000000000000000",
            "receiptTrie" : "0x56e81f171bcc55a6ff8345e692c0f86e5b48e01b996cadc001622fb5e363b421",
            "stateRoot" : "0x0c8f25f83945e923239909b99ad69a253d0f5761a4aabfcbd00ecc137ca1ce2f",
            "timestamp" : "0x03b6",
            "transactionsTrie" : "0x56e81f171bcc55a6ff8345e692c0f86e5b48e01b996cadc001622fb5e363b421",
            "uncleHash" : "0x1dcc4de8dec75d7aab85b567b6ccd41ad312451b948a7413f0a142fd40d49347"
        },
        "genesisRLP" : "0xf901fcf901f7a00000000000000000000000000000000000000000000000000000000000000000a01dcc4de8dec75d7aab85b567b6ccd41ad312451b948a7413f0a142fd40d49347942adc25665018aa1fe0e6bc666dac8fc2697ff9baa00c8f25f83945e923239909b99ad69a253d0f5761a4aabfcbd00ecc137ca1ce2fa056e81f171bcc55a6ff8345e692c0f86e5b48e01b996cadc001622fb5e363b421a056e81f171bcc55a6ff8345e692c0f86e5b48e01b996cadc001622fb5e363b421b90100000000000000000000000000000000000000000000000000000000000000000000000000000000000000000000000000000000000000000000000000000000000000000000000000000000000000000000000000000000000000000000000000000000000000000000000000000000000000000000000000000000000000000000000000000000000000000000000000000000000000000000000000000000000000000000000000000000000000000000000000000000000000000000000000000000000000000000000000000000000000000000000000000000000000000000000000000000000000000000000000000000000000000000000000000000008302000080850a00000000808203b642a056e81f171bcc55a6ff8345e692c0f86e5b48e01b996cadc001622fb5e363b421880102030405060708c0c0",
        "lastblockhash" : "0x07d5041e7f149b1785e99ce9ed8cf91464c34ece43a8f51132db5a7f1ce79411",
        "network" : "Frontier",
        "postState" : {
            "0x0f572e5295c57f15886f9b263e2f6d2d6c7b5ec6" : {
                "balance" : "0x0de0b6b3a764000a",
                "code" : "0x6005565b005b6042601f536101036000601f3760005180606014600357640badc0ffee60ff55",
                "nonce" : "0x00",
                "storage" : {
                    "0xff" : "0x0badc0ffee"
                }
            },
            "0x2adc25665018aa1fe0e6bc666dac8fc2697ff9ba" : {
                "balance" : "0x4563918244f4a0a4",
                "code" : "",
                "nonce" : "0x00",
                "storage" : {
                }
            },
            "0xa94f5374fce5edbc8e2a8697c15331677e6ebf0b" : {
                "balance" : "0x63ffff5f52",
                "code" : "",
                "nonce" : "0x01",
                "storage" : {
                }
            }
        },
        "pre" : {
            "0x0f572e5295c57f15886f9b263e2f6d2d6c7b5ec6" : {
                "balance" : "0x0de0b6b3a7640000",
                "code" : "0x6005565b005b6042601f536101036000601f3760005180606014600357640badc0ffee60ff55",
                "nonce" : "0x00",
                "storage" : {
                }
            },
            "0xa94f5374fce5edbc8e2a8697c15331677e6ebf0b" : {
                "balance" : "0x6400000000",
                "code" : "",
                "nonce" : "0x00",
                "storage" : {
                }
            }
        }
    },
    "calldatacopy_dejavu2_d0g0v0_Homestead" : {
        "_info" : {
            "comment" : "",
            "filledwith" : "cpp-1.3.0+commit.6e0ce939.Linux.g++",
            "lllcversion" : "Version: 0.4.18-develop.2017.9.25+commit.a72237f2.Linux.g++",
            "source" : "src/BlockchainTestsFiller/GeneralStateTests/stMemoryTest/calldatacopy_dejavu2_d0g0v0Filler.json",
            "sourceHash" : "cca864794fa536b2c1a108fa7983fa6e4ff2953c4c9aacec50b4c3325ce7aaf2"
        },
        "blocks" : [
            {
                "blockHeader" : {
                    "bloom" : "0x00000000000000000000000000000000000000000000000000000000000000000000000000000000000000000000000000000000000000000000000000000000000000000000000000000000000000000000000000000000000000000000000000000000000000000000000000000000000000000000000000000000000000000000000000000000000000000000000000000000000000000000000000000000000000000000000000000000000000000000000000000000000000000000000000000000000000000000000000000000000000000000000000000000000000000000000000000000000000000000000000000000000000000000000000000000",
                    "coinbase" : "0x2adc25665018aa1fe0e6bc666dac8fc2697ff9ba",
                    "difficulty" : "0x020000",
                    "extraData" : "",
                    "gasLimit" : "0x0a00000000",
                    "gasUsed" : "0xa0a4",
                    "hash" : "0x6dbade62fe7e05e2fef92d957502f3b848f6f5b2cce8c348bf87fd3d8d4b27da",
                    "mixHash" : "0xdf205eb22661f08b13721d1bbf8950529901bc08e2cdf5a0d8c7f71e0ce73941",
                    "nonce" : "0x22fb8c1fcb84772b",
                    "number" : "0x01",
                    "parentHash" : "0x2640bcd03db26ad209f24c4508c34ddfb74660e734cd3468f86d85e5ce0a7723",
                    "receiptTrie" : "0x95ecfcbdbfc56d8f633e2a18be31e93406cfd37b10728ae538451c4e063aa61e",
                    "stateRoot" : "0xca48b1bd07db008d4ba6904ad0fb9d1769909783513657ed1d7db04f053d734f",
                    "timestamp" : "0x03e8",
                    "transactionsTrie" : "0x6d9ef624c6e7dca5878fa00c4d8228e90e5203cdc467f05a9fe6bcda153b4b51",
                    "uncleHash" : "0x1dcc4de8dec75d7aab85b567b6ccd41ad312451b948a7413f0a142fd40d49347"
                },
                "rlp" : "0xf90263f901f9a02640bcd03db26ad209f24c4508c34ddfb74660e734cd3468f86d85e5ce0a7723a01dcc4de8dec75d7aab85b567b6ccd41ad312451b948a7413f0a142fd40d49347942adc25665018aa1fe0e6bc666dac8fc2697ff9baa0ca48b1bd07db008d4ba6904ad0fb9d1769909783513657ed1d7db04f053d734fa06d9ef624c6e7dca5878fa00c4d8228e90e5203cdc467f05a9fe6bcda153b4b51a095ecfcbdbfc56d8f633e2a18be31e93406cfd37b10728ae538451c4e063aa61eb90100000000000000000000000000000000000000000000000000000000000000000000000000000000000000000000000000000000000000000000000000000000000000000000000000000000000000000000000000000000000000000000000000000000000000000000000000000000000000000000000000000000000000000000000000000000000000000000000000000000000000000000000000000000000000000000000000000000000000000000000000000000000000000000000000000000000000000000000000000000000000000000000000000000000000000000000000000000000000000000000000000000000000000000000000000000008302000001850a0000000082a0a48203e880a0df205eb22661f08b13721d1bbf8950529901bc08e2cdf5a0d8c7f71e0ce739418822fb8c1fcb84772bf864f8628001850a00000000940f572e5295c57f15886f9b263e2f6d2d6c7b5ec60a801ca08d6dc99b0a23e8dce308654ebdeec71e7611a35631fecb8d8dc8fcf7ea728507a01a8e552ea161ed12512983bbb20aeb975a70b5eb23792fc30d1f6aab4b92b326c0",
                "transactions" : [
                    {
                        "data" : "",
                        "gasLimit" : "0x0a00000000",
                        "gasPrice" : "0x01",
                        "nonce" : "0x00",
                        "r" : "0x8d6dc99b0a23e8dce308654ebdeec71e7611a35631fecb8d8dc8fcf7ea728507",
                        "s" : "0x1a8e552ea161ed12512983bbb20aeb975a70b5eb23792fc30d1f6aab4b92b326",
                        "to" : "0x0f572e5295c57f15886f9b263e2f6d2d6c7b5ec6",
                        "v" : "0x1c",
                        "value" : "0x0a"
                    }
                ],
                "uncleHeaders" : [
                ]
            }
        ],
        "genesisBlockHeader" : {
            "bloom" : "0x00000000000000000000000000000000000000000000000000000000000000000000000000000000000000000000000000000000000000000000000000000000000000000000000000000000000000000000000000000000000000000000000000000000000000000000000000000000000000000000000000000000000000000000000000000000000000000000000000000000000000000000000000000000000000000000000000000000000000000000000000000000000000000000000000000000000000000000000000000000000000000000000000000000000000000000000000000000000000000000000000000000000000000000000000000000",
            "coinbase" : "0x2adc25665018aa1fe0e6bc666dac8fc2697ff9ba",
            "difficulty" : "0x020000",
            "extraData" : "0x42",
            "gasLimit" : "0x0a00000000",
            "gasUsed" : "0x00",
            "hash" : "0x2640bcd03db26ad209f24c4508c34ddfb74660e734cd3468f86d85e5ce0a7723",
            "mixHash" : "0x56e81f171bcc55a6ff8345e692c0f86e5b48e01b996cadc001622fb5e363b421",
            "nonce" : "0x0102030405060708",
            "number" : "0x00",
            "parentHash" : "0x0000000000000000000000000000000000000000000000000000000000000000",
            "receiptTrie" : "0x56e81f171bcc55a6ff8345e692c0f86e5b48e01b996cadc001622fb5e363b421",
            "stateRoot" : "0x0c8f25f83945e923239909b99ad69a253d0f5761a4aabfcbd00ecc137ca1ce2f",
            "timestamp" : "0x03b6",
            "transactionsTrie" : "0x56e81f171bcc55a6ff8345e692c0f86e5b48e01b996cadc001622fb5e363b421",
            "uncleHash" : "0x1dcc4de8dec75d7aab85b567b6ccd41ad312451b948a7413f0a142fd40d49347"
        },
        "genesisRLP" : "0xf901fcf901f7a00000000000000000000000000000000000000000000000000000000000000000a01dcc4de8dec75d7aab85b567b6ccd41ad312451b948a7413f0a142fd40d49347942adc25665018aa1fe0e6bc666dac8fc2697ff9baa00c8f25f83945e923239909b99ad69a253d0f5761a4aabfcbd00ecc137ca1ce2fa056e81f171bcc55a6ff8345e692c0f86e5b48e01b996cadc001622fb5e363b421a056e81f171bcc55a6ff8345e692c0f86e5b48e01b996cadc001622fb5e363b421b90100000000000000000000000000000000000000000000000000000000000000000000000000000000000000000000000000000000000000000000000000000000000000000000000000000000000000000000000000000000000000000000000000000000000000000000000000000000000000000000000000000000000000000000000000000000000000000000000000000000000000000000000000000000000000000000000000000000000000000000000000000000000000000000000000000000000000000000000000000000000000000000000000000000000000000000000000000000000000000000000000000000000000000000000000000000008302000080850a00000000808203b642a056e81f171bcc55a6ff8345e692c0f86e5b48e01b996cadc001622fb5e363b421880102030405060708c0c0",
        "lastblockhash" : "0x6dbade62fe7e05e2fef92d957502f3b848f6f5b2cce8c348bf87fd3d8d4b27da",
        "network" : "Homestead",
        "postState" : {
            "0x0f572e5295c57f15886f9b263e2f6d2d6c7b5ec6" : {
                "balance" : "0x0de0b6b3a764000a",
                "code" : "0x6005565b005b6042601f536101036000601f3760005180606014600357640badc0ffee60ff55",
                "nonce" : "0x00",
                "storage" : {
                    "0xff" : "0x0badc0ffee"
                }
            },
            "0x2adc25665018aa1fe0e6bc666dac8fc2697ff9ba" : {
                "balance" : "0x4563918244f4a0a4",
                "code" : "",
                "nonce" : "0x00",
                "storage" : {
                }
            },
            "0xa94f5374fce5edbc8e2a8697c15331677e6ebf0b" : {
                "balance" : "0x63ffff5f52",
                "code" : "",
                "nonce" : "0x01",
                "storage" : {
                }
            }
        },
        "pre" : {
            "0x0f572e5295c57f15886f9b263e2f6d2d6c7b5ec6" : {
                "balance" : "0x0de0b6b3a7640000",
                "code" : "0x6005565b005b6042601f536101036000601f3760005180606014600357640badc0ffee60ff55",
                "nonce" : "0x00",
                "storage" : {
                }
            },
            "0xa94f5374fce5edbc8e2a8697c15331677e6ebf0b" : {
                "balance" : "0x6400000000",
                "code" : "",
                "nonce" : "0x00",
                "storage" : {
                }
            }
        }
    }
}