{
    "mem64kb_singleByte+33_d0g0v0_Byzantium" : {
        "_info" : {
            "comment" : "",
            "filledwith" : "cpp-1.3.0+commit.6e0ce939.Linux.g++",
            "lllcversion" : "Version: 0.4.18-develop.2017.9.25+commit.a72237f2.Linux.g++",
            "source" : "src/BlockchainTestsFiller/GeneralStateTests/stMemoryTest/mem64kb_singleByte+33_d0g0v0Filler.json",
            "sourceHash" : "eaeadf23c8139238408da43d27a24a5750437973c57ad0b89dfcacb204741c53"
        },
        "blocks" : [
            {
                "blockHeader" : {
                    "bloom" : "0x00000000000000000000000000000000000000000000000000000000000000000000000000000000000000000000000000000000000000000000000000000000000000000000000000000000000000000000000000000000000000000000000000000000000000000000000000000000000000000000000000000000000000000000000000000000000000000000000000000000000000000000000000000000000000000000000000000000000000000000000000000000000000000000000000000000000000000000000000000000000000000000000000000000000000000000000000000000000000000000000000000000000000000000000000000000",
                    "coinbase" : "0x2adc25665018aa1fe0e6bc666dac8fc2697ff9ba",
                    "difficulty" : "0x020000",
                    "extraData" : "",
                    "gasLimit" : "0x0a00000000",
                    "gasUsed" : "0xd640",
                    "hash" : "0x3b0b6c23e35c319b7cbd2ebe8116c918c22ac7334d5c8ae32f9c7ebb487d794a",
                    "mixHash" : "0x2c50207d5b3cdd8bc791ab260988c242623a12188ea42060608de10f3140c65a",
                    "nonce" : "0x9ba6504144e6ad68",
                    "number" : "0x01",
                    "parentHash" : "0xf54d61372cf9167cb52a4231584dd786a0cdee6a425db4535f5d8d9a3c1a4152",
                    "receiptTrie" : "0xe69c5869cdd6104108392827d0107e390cb3b6d7ef3af9541024b09e6c0dfa2e",
                    "stateRoot" : "0xd76e1c60f46151e08d54c0f15992bf64b9f0d9b3ea316ecc5dbad4832cfc7c9f",
                    "timestamp" : "0x03e8",
                    "transactionsTrie" : "0x579a1a7e0077c790d96eb12a938445003a0f26110320cb2527921bad5605561a",
                    "uncleHash" : "0x1dcc4de8dec75d7aab85b567b6ccd41ad312451b948a7413f0a142fd40d49347"
                },
                "rlp" : "0xf90262f901f9a0f54d61372cf9167cb52a4231584dd786a0cdee6a425db4535f5d8d9a3c1a4152a01dcc4de8dec75d7aab85b567b6ccd41ad312451b948a7413f0a142fd40d49347942adc25665018aa1fe0e6bc666dac8fc2697ff9baa0d76e1c60f46151e08d54c0f15992bf64b9f0d9b3ea316ecc5dbad4832cfc7c9fa0579a1a7e0077c790d96eb12a938445003a0f26110320cb2527921bad5605561aa0e69c5869cdd6104108392827d0107e390cb3b6d7ef3af9541024b09e6c0dfa2eb90100000000000000000000000000000000000000000000000000000000000000000000000000000000000000000000000000000000000000000000000000000000000000000000000000000000000000000000000000000000000000000000000000000000000000000000000000000000000000000000000000000000000000000000000000000000000000000000000000000000000000000000000000000000000000000000000000000000000000000000000000000000000000000000000000000000000000000000000000000000000000000000000000000000000000000000000000000000000000000000000000000000000000000000000000000000008302000001850a0000000082d6408203e880a02c50207d5b3cdd8bc791ab260988c242623a12188ea42060608de10f3140c65a889ba6504144e6ad68f863f86180018450001798940f572e5295c57f15886f9b263e2f6d2d6c7b5ec60a801ba0c368a240875530dbea24d5f971b4ade577a1702ed44b66a0ca6c592986d3d1a7a00534768d31a4befd7cee3b7a73775e16bb1d9aca9ef2e8828286a408a0115978c0",
                "transactions" : [
                    {
                        "data" : "",
                        "gasLimit" : "0x50001798",
                        "gasPrice" : "0x01",
                        "nonce" : "0x00",
                        "r" : "0xc368a240875530dbea24d5f971b4ade577a1702ed44b66a0ca6c592986d3d1a7",
                        "s" : "0x0534768d31a4befd7cee3b7a73775e16bb1d9aca9ef2e8828286a408a0115978",
                        "to" : "0x0f572e5295c57f15886f9b263e2f6d2d6c7b5ec6",
                        "v" : "0x1b",
                        "value" : "0x0a"
                    }
                ],
                "uncleHeaders" : [
                ]
            }
        ],
        "genesisBlockHeader" : {
            "bloom" : "0x00000000000000000000000000000000000000000000000000000000000000000000000000000000000000000000000000000000000000000000000000000000000000000000000000000000000000000000000000000000000000000000000000000000000000000000000000000000000000000000000000000000000000000000000000000000000000000000000000000000000000000000000000000000000000000000000000000000000000000000000000000000000000000000000000000000000000000000000000000000000000000000000000000000000000000000000000000000000000000000000000000000000000000000000000000000",
            "coinbase" : "0x2adc25665018aa1fe0e6bc666dac8fc2697ff9ba",
            "difficulty" : "0x020000",
            "extraData" : "0x42",
            "gasLimit" : "0x0a00000000",
            "gasUsed" : "0x00",
            "hash" : "0xf54d61372cf9167cb52a4231584dd786a0cdee6a425db4535f5d8d9a3c1a4152",
            "mixHash" : "0x56e81f171bcc55a6ff8345e692c0f86e5b48e01b996cadc001622fb5e363b421",
            "nonce" : "0x0102030405060708",
            "number" : "0x00",
            "parentHash" : "0x0000000000000000000000000000000000000000000000000000000000000000",
            "receiptTrie" : "0x56e81f171bcc55a6ff8345e692c0f86e5b48e01b996cadc001622fb5e363b421",
            "stateRoot" : "0xf351e67fc6a52c223012a152c1e2853487bebe7de578320ae4143817406ee5c3",
            "timestamp" : "0x03b6",
            "transactionsTrie" : "0x56e81f171bcc55a6ff8345e692c0f86e5b48e01b996cadc001622fb5e363b421",
            "uncleHash" : "0x1dcc4de8dec75d7aab85b567b6ccd41ad312451b948a7413f0a142fd40d49347"
        },
        "genesisRLP" : "0xf901fcf901f7a00000000000000000000000000000000000000000000000000000000000000000a01dcc4de8dec75d7aab85b567b6ccd41ad312451b948a7413f0a142fd40d49347942adc25665018aa1fe0e6bc666dac8fc2697ff9baa0f351e67fc6a52c223012a152c1e2853487bebe7de578320ae4143817406ee5c3a056e81f171bcc55a6ff8345e692c0f86e5b48e01b996cadc001622fb5e363b421a056e81f171bcc55a6ff8345e692c0f86e5b48e01b996cadc001622fb5e363b421b90100000000000000000000000000000000000000000000000000000000000000000000000000000000000000000000000000000000000000000000000000000000000000000000000000000000000000000000000000000000000000000000000000000000000000000000000000000000000000000000000000000000000000000000000000000000000000000000000000000000000000000000000000000000000000000000000000000000000000000000000000000000000000000000000000000000000000000000000000000000000000000000000000000000000000000000000000000000000000000000000000000000000000000000000000000000008302000080850a00000000808203b642a056e81f171bcc55a6ff8345e692c0f86e5b48e01b996cadc001622fb5e363b421880102030405060708c0c0",
        "lastblockhash" : "0x3b0b6c23e35c319b7cbd2ebe8116c918c22ac7334d5c8ae32f9c7ebb487d794a",
        "network" : "Byzantium",
        "postState" : {
            "0x0f572e5295c57f15886f9b263e2f6d2d6c7b5ec6" : {
                "balance" : "0x0de0b6b3a764000a",
                "code" : "0x602a61fa205359600055",
                "nonce" : "0x00",
                "storage" : {
                    "0x00" : "0xfa40"
                }
            },
            "0x2adc25665018aa1fe0e6bc666dac8fc2697ff9ba" : {
                "balance" : "0x29a2241af62cd640",
                "code" : "",
                "nonce" : "0x00",
                "storage" : {
                }
            },
            "0xa94f5374fce5edbc8e2a8697c15331677e6ebf0b" : {
                "balance" : "0x63ffff29b6",
                "code" : "",
                "nonce" : "0x01",
                "storage" : {
                }
            }
        },
        "pre" : {
            "0x0f572e5295c57f15886f9b263e2f6d2d6c7b5ec6" : {
                "balance" : "0x0de0b6b3a7640000",
                "code" : "0x602a61fa205359600055",
                "nonce" : "0x00",
                "storage" : {
                }
            },
            "0xa94f5374fce5edbc8e2a8697c15331677e6ebf0b" : {
                "balance" : "0x6400000000",
                "code" : "",
                "nonce" : "0x00",
                "storage" : {
                }
            }
        }
    },
    "mem64kb_singleByte+33_d0g0v0_EIP150" : {
        "_info" : {
            "comment" : "",
            "filledwith" : "cpp-1.3.0+commit.6e0ce939.Linux.g++",
            "lllcversion" : "Version: 0.4.18-develop.2017.9.25+commit.a72237f2.Linux.g++",
            "source" : "src/BlockchainTestsFiller/GeneralStateTests/stMemoryTest/mem64kb_singleByte+33_d0g0v0Filler.json",
            "sourceHash" : "eaeadf23c8139238408da43d27a24a5750437973c57ad0b89dfcacb204741c53"
        },
        "blocks" : [
            {
                "blockHeader" : {
                    "bloom" : "0x00000000000000000000000000000000000000000000000000000000000000000000000000000000000000000000000000000000000000000000000000000000000000000000000000000000000000000000000000000000000000000000000000000000000000000000000000000000000000000000000000000000000000000000000000000000000000000000000000000000000000000000000000000000000000000000000000000000000000000000000000000000000000000000000000000000000000000000000000000000000000000000000000000000000000000000000000000000000000000000000000000000000000000000000000000000",
                    "coinbase" : "0x2adc25665018aa1fe0e6bc666dac8fc2697ff9ba",
                    "difficulty" : "0x020000",
                    "extraData" : "",
                    "gasLimit" : "0x0a00000000",
                    "gasUsed" : "0xd640",
                    "hash" : "0x51f4712d993d866f94567cb0be598e6efc99b94a31a9ce67b09a05f562e7d43b",
                    "mixHash" : "0x8a98fd49024929e2368b9c0c8f4e7b5be2d133f3af54130e9dbaaebe7a169ba8",
                    "nonce" : "0xefe7abd3a539f65c",
                    "number" : "0x01",
                    "parentHash" : "0xf54d61372cf9167cb52a4231584dd786a0cdee6a425db4535f5d8d9a3c1a4152",
                    "receiptTrie" : "0xdfb5b5d0b3a452158402053e0c1d44fee2c69d1899caf74b731047945ccb2d06",
                    "stateRoot" : "0x12742fa6810dcef509032e3531a47061ff6d475d16025d4ae54807be8b68c317",
                    "timestamp" : "0x03e8",
                    "transactionsTrie" : "0x579a1a7e0077c790d96eb12a938445003a0f26110320cb2527921bad5605561a",
                    "uncleHash" : "0x1dcc4de8dec75d7aab85b567b6ccd41ad312451b948a7413f0a142fd40d49347"
                },
                "rlp" : "0xf90262f901f9a0f54d61372cf9167cb52a4231584dd786a0cdee6a425db4535f5d8d9a3c1a4152a01dcc4de8dec75d7aab85b567b6ccd41ad312451b948a7413f0a142fd40d49347942adc25665018aa1fe0e6bc666dac8fc2697ff9baa012742fa6810dcef509032e3531a47061ff6d475d16025d4ae54807be8b68c317a0579a1a7e0077c790d96eb12a938445003a0f26110320cb2527921bad5605561aa0dfb5b5d0b3a452158402053e0c1d44fee2c69d1899caf74b731047945ccb2d06b90100000000000000000000000000000000000000000000000000000000000000000000000000000000000000000000000000000000000000000000000000000000000000000000000000000000000000000000000000000000000000000000000000000000000000000000000000000000000000000000000000000000000000000000000000000000000000000000000000000000000000000000000000000000000000000000000000000000000000000000000000000000000000000000000000000000000000000000000000000000000000000000000000000000000000000000000000000000000000000000000000000000000000000000000000000000008302000001850a0000000082d6408203e880a08a98fd49024929e2368b9c0c8f4e7b5be2d133f3af54130e9dbaaebe7a169ba888efe7abd3a539f65cf863f86180018450001798940f572e5295c57f15886f9b263e2f6d2d6c7b5ec60a801ba0c368a240875530dbea24d5f971b4ade577a1702ed44b66a0ca6c592986d3d1a7a00534768d31a4befd7cee3b7a73775e16bb1d9aca9ef2e8828286a408a0115978c0",
                "transactions" : [
                    {
                        "data" : "",
                        "gasLimit" : "0x50001798",
                        "gasPrice" : "0x01",
                        "nonce" : "0x00",
                        "r" : "0xc368a240875530dbea24d5f971b4ade577a1702ed44b66a0ca6c592986d3d1a7",
                        "s" : "0x0534768d31a4befd7cee3b7a73775e16bb1d9aca9ef2e8828286a408a0115978",
                        "to" : "0x0f572e5295c57f15886f9b263e2f6d2d6c7b5ec6",
                        "v" : "0x1b",
                        "value" : "0x0a"
                    }
                ],
                "uncleHeaders" : [
                ]
            }
        ],
        "genesisBlockHeader" : {
            "bloom" : "0x00000000000000000000000000000000000000000000000000000000000000000000000000000000000000000000000000000000000000000000000000000000000000000000000000000000000000000000000000000000000000000000000000000000000000000000000000000000000000000000000000000000000000000000000000000000000000000000000000000000000000000000000000000000000000000000000000000000000000000000000000000000000000000000000000000000000000000000000000000000000000000000000000000000000000000000000000000000000000000000000000000000000000000000000000000000",
            "coinbase" : "0x2adc25665018aa1fe0e6bc666dac8fc2697ff9ba",
            "difficulty" : "0x020000",
            "extraData" : "0x42",
            "gasLimit" : "0x0a00000000",
            "gasUsed" : "0x00",
            "hash" : "0xf54d61372cf9167cb52a4231584dd786a0cdee6a425db4535f5d8d9a3c1a4152",
            "mixHash" : "0x56e81f171bcc55a6ff8345e692c0f86e5b48e01b996cadc001622fb5e363b421",
            "nonce" : "0x0102030405060708",
            "number" : "0x00",
            "parentHash" : "0x0000000000000000000000000000000000000000000000000000000000000000",
            "receiptTrie" : "0x56e81f171bcc55a6ff8345e692c0f86e5b48e01b996cadc001622fb5e363b421",
            "stateRoot" : "0xf351e67fc6a52c223012a152c1e2853487bebe7de578320ae4143817406ee5c3",
            "timestamp" : "0x03b6",
            "transactionsTrie" : "0x56e81f171bcc55a6ff8345e692c0f86e5b48e01b996cadc001622fb5e363b421",
            "uncleHash" : "0x1dcc4de8dec75d7aab85b567b6ccd41ad312451b948a7413f0a142fd40d49347"
        },
        "genesisRLP" : "0xf901fcf901f7a00000000000000000000000000000000000000000000000000000000000000000a01dcc4de8dec75d7aab85b567b6ccd41ad312451b948a7413f0a142fd40d49347942adc25665018aa1fe0e6bc666dac8fc2697ff9baa0f351e67fc6a52c223012a152c1e2853487bebe7de578320ae4143817406ee5c3a056e81f171bcc55a6ff8345e692c0f86e5b48e01b996cadc001622fb5e363b421a056e81f171bcc55a6ff8345e692c0f86e5b48e01b996cadc001622fb5e363b421b90100000000000000000000000000000000000000000000000000000000000000000000000000000000000000000000000000000000000000000000000000000000000000000000000000000000000000000000000000000000000000000000000000000000000000000000000000000000000000000000000000000000000000000000000000000000000000000000000000000000000000000000000000000000000000000000000000000000000000000000000000000000000000000000000000000000000000000000000000000000000000000000000000000000000000000000000000000000000000000000000000000000000000000000000000000000008302000080850a00000000808203b642a056e81f171bcc55a6ff8345e692c0f86e5b48e01b996cadc001622fb5e363b421880102030405060708c0c0",
        "lastblockhash" : "0x51f4712d993d866f94567cb0be598e6efc99b94a31a9ce67b09a05f562e7d43b",
        "network" : "EIP150",
        "postState" : {
            "0x0f572e5295c57f15886f9b263e2f6d2d6c7b5ec6" : {
                "balance" : "0x0de0b6b3a764000a",
                "code" : "0x602a61fa205359600055",
                "nonce" : "0x00",
                "storage" : {
                    "0x00" : "0xfa40"
                }
            },
            "0x2adc25665018aa1fe0e6bc666dac8fc2697ff9ba" : {
                "balance" : "0x4563918244f4d640",
                "code" : "",
                "nonce" : "0x00",
                "storage" : {
                }
            },
            "0xa94f5374fce5edbc8e2a8697c15331677e6ebf0b" : {
                "balance" : "0x63ffff29b6",
                "code" : "",
                "nonce" : "0x01",
                "storage" : {
                }
            }
        },
        "pre" : {
            "0x0f572e5295c57f15886f9b263e2f6d2d6c7b5ec6" : {
                "balance" : "0x0de0b6b3a7640000",
                "code" : "0x602a61fa205359600055",
                "nonce" : "0x00",
                "storage" : {
                }
            },
            "0xa94f5374fce5edbc8e2a8697c15331677e6ebf0b" : {
                "balance" : "0x6400000000",
                "code" : "",
                "nonce" : "0x00",
                "storage" : {
                }
            }
        }
    },
    "mem64kb_singleByte+33_d0g0v0_EIP158" : {
        "_info" : {
            "comment" : "",
            "filledwith" : "cpp-1.3.0+commit.6e0ce939.Linux.g++",
            "lllcversion" : "Version: 0.4.18-develop.2017.9.25+commit.a72237f2.Linux.g++",
            "source" : "src/BlockchainTestsFiller/GeneralStateTests/stMemoryTest/mem64kb_singleByte+33_d0g0v0Filler.json",
            "sourceHash" : "eaeadf23c8139238408da43d27a24a5750437973c57ad0b89dfcacb204741c53"
        },
        "blocks" : [
            {
                "blockHeader" : {
                    "bloom" : "0x00000000000000000000000000000000000000000000000000000000000000000000000000000000000000000000000000000000000000000000000000000000000000000000000000000000000000000000000000000000000000000000000000000000000000000000000000000000000000000000000000000000000000000000000000000000000000000000000000000000000000000000000000000000000000000000000000000000000000000000000000000000000000000000000000000000000000000000000000000000000000000000000000000000000000000000000000000000000000000000000000000000000000000000000000000000",
                    "coinbase" : "0x2adc25665018aa1fe0e6bc666dac8fc2697ff9ba",
                    "difficulty" : "0x020000",
                    "extraData" : "",
                    "gasLimit" : "0x0a00000000",
                    "gasUsed" : "0xd640",
                    "hash" : "0xcb632c01954503b081608910c1bcdefdcaceab5104761420132feed679467641",
                    "mixHash" : "0x9a2490746bcf0bfc14d7130a92b508dbef43084ac465193489e9276a9449dcbc",
                    "nonce" : "0xab91d57b458b401d",
                    "number" : "0x01",
                    "parentHash" : "0xf54d61372cf9167cb52a4231584dd786a0cdee6a425db4535f5d8d9a3c1a4152",
                    "receiptTrie" : "0xdfb5b5d0b3a452158402053e0c1d44fee2c69d1899caf74b731047945ccb2d06",
                    "stateRoot" : "0x12742fa6810dcef509032e3531a47061ff6d475d16025d4ae54807be8b68c317",
                    "timestamp" : "0x03e8",
                    "transactionsTrie" : "0x579a1a7e0077c790d96eb12a938445003a0f26110320cb2527921bad5605561a",
                    "uncleHash" : "0x1dcc4de8dec75d7aab85b567b6ccd41ad312451b948a7413f0a142fd40d49347"
                },
                "rlp" : "0xf90262f901f9a0f54d61372cf9167cb52a4231584dd786a0cdee6a425db4535f5d8d9a3c1a4152a01dcc4de8dec75d7aab85b567b6ccd41ad312451b948a7413f0a142fd40d49347942adc25665018aa1fe0e6bc666dac8fc2697ff9baa012742fa6810dcef509032e3531a47061ff6d475d16025d4ae54807be8b68c317a0579a1a7e0077c790d96eb12a938445003a0f26110320cb2527921bad5605561aa0dfb5b5d0b3a452158402053e0c1d44fee2c69d1899caf74b731047945ccb2d06b90100000000000000000000000000000000000000000000000000000000000000000000000000000000000000000000000000000000000000000000000000000000000000000000000000000000000000000000000000000000000000000000000000000000000000000000000000000000000000000000000000000000000000000000000000000000000000000000000000000000000000000000000000000000000000000000000000000000000000000000000000000000000000000000000000000000000000000000000000000000000000000000000000000000000000000000000000000000000000000000000000000000000000000000000000000000008302000001850a0000000082d6408203e880a09a2490746bcf0bfc14d7130a92b508dbef43084ac465193489e9276a9449dcbc88ab91d57b458b401df863f86180018450001798940f572e5295c57f15886f9b263e2f6d2d6c7b5ec60a801ba0c368a240875530dbea24d5f971b4ade577a1702ed44b66a0ca6c592986d3d1a7a00534768d31a4befd7cee3b7a73775e16bb1d9aca9ef2e8828286a408a0115978c0",
                "transactions" : [
                    {
                        "data" : "",
                        "gasLimit" : "0x50001798",
                        "gasPrice" : "0x01",
                        "nonce" : "0x00",
                        "r" : "0xc368a240875530dbea24d5f971b4ade577a1702ed44b66a0ca6c592986d3d1a7",
                        "s" : "0x0534768d31a4befd7cee3b7a73775e16bb1d9aca9ef2e8828286a408a0115978",
                        "to" : "0x0f572e5295c57f15886f9b263e2f6d2d6c7b5ec6",
                        "v" : "0x1b",
                        "value" : "0x0a"
                    }
                ],
                "uncleHeaders" : [
                ]
            }
        ],
        "genesisBlockHeader" : {
            "bloom" : "0x00000000000000000000000000000000000000000000000000000000000000000000000000000000000000000000000000000000000000000000000000000000000000000000000000000000000000000000000000000000000000000000000000000000000000000000000000000000000000000000000000000000000000000000000000000000000000000000000000000000000000000000000000000000000000000000000000000000000000000000000000000000000000000000000000000000000000000000000000000000000000000000000000000000000000000000000000000000000000000000000000000000000000000000000000000000",
            "coinbase" : "0x2adc25665018aa1fe0e6bc666dac8fc2697ff9ba",
            "difficulty" : "0x020000",
            "extraData" : "0x42",
            "gasLimit" : "0x0a00000000",
            "gasUsed" : "0x00",
            "hash" : "0xf54d61372cf9167cb52a4231584dd786a0cdee6a425db4535f5d8d9a3c1a4152",
            "mixHash" : "0x56e81f171bcc55a6ff8345e692c0f86e5b48e01b996cadc001622fb5e363b421",
            "nonce" : "0x0102030405060708",
            "number" : "0x00",
            "parentHash" : "0x0000000000000000000000000000000000000000000000000000000000000000",
            "receiptTrie" : "0x56e81f171bcc55a6ff8345e692c0f86e5b48e01b996cadc001622fb5e363b421",
            "stateRoot" : "0xf351e67fc6a52c223012a152c1e2853487bebe7de578320ae4143817406ee5c3",
            "timestamp" : "0x03b6",
            "transactionsTrie" : "0x56e81f171bcc55a6ff8345e692c0f86e5b48e01b996cadc001622fb5e363b421",
            "uncleHash" : "0x1dcc4de8dec75d7aab85b567b6ccd41ad312451b948a7413f0a142fd40d49347"
        },
        "genesisRLP" : "0xf901fcf901f7a00000000000000000000000000000000000000000000000000000000000000000a01dcc4de8dec75d7aab85b567b6ccd41ad312451b948a7413f0a142fd40d49347942adc25665018aa1fe0e6bc666dac8fc2697ff9baa0f351e67fc6a52c223012a152c1e2853487bebe7de578320ae4143817406ee5c3a056e81f171bcc55a6ff8345e692c0f86e5b48e01b996cadc001622fb5e363b421a056e81f171bcc55a6ff8345e692c0f86e5b48e01b996cadc001622fb5e363b421b90100000000000000000000000000000000000000000000000000000000000000000000000000000000000000000000000000000000000000000000000000000000000000000000000000000000000000000000000000000000000000000000000000000000000000000000000000000000000000000000000000000000000000000000000000000000000000000000000000000000000000000000000000000000000000000000000000000000000000000000000000000000000000000000000000000000000000000000000000000000000000000000000000000000000000000000000000000000000000000000000000000000000000000000000000000000008302000080850a00000000808203b642a056e81f171bcc55a6ff8345e692c0f86e5b48e01b996cadc001622fb5e363b421880102030405060708c0c0",
        "lastblockhash" : "0xcb632c01954503b081608910c1bcdefdcaceab5104761420132feed679467641",
        "network" : "EIP158",
        "postState" : {
            "0x0f572e5295c57f15886f9b263e2f6d2d6c7b5ec6" : {
                "balance" : "0x0de0b6b3a764000a",
                "code" : "0x602a61fa205359600055",
                "nonce" : "0x00",
                "storage" : {
                    "0x00" : "0xfa40"
                }
            },
            "0x2adc25665018aa1fe0e6bc666dac8fc2697ff9ba" : {
                "balance" : "0x4563918244f4d640",
                "code" : "",
                "nonce" : "0x00",
                "storage" : {
                }
            },
            "0xa94f5374fce5edbc8e2a8697c15331677e6ebf0b" : {
                "balance" : "0x63ffff29b6",
                "code" : "",
                "nonce" : "0x01",
                "storage" : {
                }
            }
        },
        "pre" : {
            "0x0f572e5295c57f15886f9b263e2f6d2d6c7b5ec6" : {
                "balance" : "0x0de0b6b3a7640000",
                "code" : "0x602a61fa205359600055",
                "nonce" : "0x00",
                "storage" : {
                }
            },
            "0xa94f5374fce5edbc8e2a8697c15331677e6ebf0b" : {
                "balance" : "0x6400000000",
                "code" : "",
                "nonce" : "0x00",
                "storage" : {
                }
            }
        }
    },
    "mem64kb_singleByte+33_d0g0v0_Frontier" : {
        "_info" : {
            "comment" : "",
            "filledwith" : "cpp-1.3.0+commit.6e0ce939.Linux.g++",
            "lllcversion" : "Version: 0.4.18-develop.2017.9.25+commit.a72237f2.Linux.g++",
            "source" : "src/BlockchainTestsFiller/GeneralStateTests/stMemoryTest/mem64kb_singleByte+33_d0g0v0Filler.json",
            "sourceHash" : "eaeadf23c8139238408da43d27a24a5750437973c57ad0b89dfcacb204741c53"
        },
        "blocks" : [
            {
                "blockHeader" : {
                    "bloom" : "0x00000000000000000000000000000000000000000000000000000000000000000000000000000000000000000000000000000000000000000000000000000000000000000000000000000000000000000000000000000000000000000000000000000000000000000000000000000000000000000000000000000000000000000000000000000000000000000000000000000000000000000000000000000000000000000000000000000000000000000000000000000000000000000000000000000000000000000000000000000000000000000000000000000000000000000000000000000000000000000000000000000000000000000000000000000000",
                    "coinbase" : "0x2adc25665018aa1fe0e6bc666dac8fc2697ff9ba",
                    "difficulty" : "0x020000",
                    "extraData" : "",
                    "gasLimit" : "0x0a00000000",
                    "gasUsed" : "0xd640",
                    "hash" : "0x5fdbfdbeeae5a40f933d440f25d919c76a74b83a8d911a04c766fb08745fcd4d",
                    "mixHash" : "0xdac11c3b084e36a900b1168fff41458098cbaab3fceb72a3ed0d67c079e9d39a",
                    "nonce" : "0xb511e9613a380ee9",
                    "number" : "0x01",
                    "parentHash" : "0xf54d61372cf9167cb52a4231584dd786a0cdee6a425db4535f5d8d9a3c1a4152",
                    "receiptTrie" : "0xdfb5b5d0b3a452158402053e0c1d44fee2c69d1899caf74b731047945ccb2d06",
                    "stateRoot" : "0x12742fa6810dcef509032e3531a47061ff6d475d16025d4ae54807be8b68c317",
                    "timestamp" : "0x03e8",
                    "transactionsTrie" : "0x579a1a7e0077c790d96eb12a938445003a0f26110320cb2527921bad5605561a",
                    "uncleHash" : "0x1dcc4de8dec75d7aab85b567b6ccd41ad312451b948a7413f0a142fd40d49347"
                },
                "rlp" : "0xf90262f901f9a0f54d61372cf9167cb52a4231584dd786a0cdee6a425db4535f5d8d9a3c1a4152a01dcc4de8dec75d7aab85b567b6ccd41ad312451b948a7413f0a142fd40d49347942adc25665018aa1fe0e6bc666dac8fc2697ff9baa012742fa6810dcef509032e3531a47061ff6d475d16025d4ae54807be8b68c317a0579a1a7e0077c790d96eb12a938445003a0f26110320cb2527921bad5605561aa0dfb5b5d0b3a452158402053e0c1d44fee2c69d1899caf74b731047945ccb2d06b90100000000000000000000000000000000000000000000000000000000000000000000000000000000000000000000000000000000000000000000000000000000000000000000000000000000000000000000000000000000000000000000000000000000000000000000000000000000000000000000000000000000000000000000000000000000000000000000000000000000000000000000000000000000000000000000000000000000000000000000000000000000000000000000000000000000000000000000000000000000000000000000000000000000000000000000000000000000000000000000000000000000000000000000000000000000008302000001850a0000000082d6408203e880a0dac11c3b084e36a900b1168fff41458098cbaab3fceb72a3ed0d67c079e9d39a88b511e9613a380ee9f863f86180018450001798940f572e5295c57f15886f9b263e2f6d2d6c7b5ec60a801ba0c368a240875530dbea24d5f971b4ade577a1702ed44b66a0ca6c592986d3d1a7a00534768d31a4befd7cee3b7a73775e16bb1d9aca9ef2e8828286a408a0115978c0",
                "transactions" : [
                    {
                        "data" : "",
                        "gasLimit" : "0x50001798",
                        "gasPrice" : "0x01",
                        "nonce" : "0x00",
                        "r" : "0xc368a240875530dbea24d5f971b4ade577a1702ed44b66a0ca6c592986d3d1a7",
                        "s" : "0x0534768d31a4befd7cee3b7a73775e16bb1d9aca9ef2e8828286a408a0115978",
                        "to" : "0x0f572e5295c57f15886f9b263e2f6d2d6c7b5ec6",
                        "v" : "0x1b",
                        "value" : "0x0a"
                    }
                ],
                "uncleHeaders" : [
                ]
            }
        ],
        "genesisBlockHeader" : {
            "bloom" : "0x00000000000000000000000000000000000000000000000000000000000000000000000000000000000000000000000000000000000000000000000000000000000000000000000000000000000000000000000000000000000000000000000000000000000000000000000000000000000000000000000000000000000000000000000000000000000000000000000000000000000000000000000000000000000000000000000000000000000000000000000000000000000000000000000000000000000000000000000000000000000000000000000000000000000000000000000000000000000000000000000000000000000000000000000000000000",
            "coinbase" : "0x2adc25665018aa1fe0e6bc666dac8fc2697ff9ba",
            "difficulty" : "0x020000",
            "extraData" : "0x42",
            "gasLimit" : "0x0a00000000",
            "gasUsed" : "0x00",
            "hash" : "0xf54d61372cf9167cb52a4231584dd786a0cdee6a425db4535f5d8d9a3c1a4152",
            "mixHash" : "0x56e81f171bcc55a6ff8345e692c0f86e5b48e01b996cadc001622fb5e363b421",
            "nonce" : "0x0102030405060708",
            "number" : "0x00",
            "parentHash" : "0x0000000000000000000000000000000000000000000000000000000000000000",
            "receiptTrie" : "0x56e81f171bcc55a6ff8345e692c0f86e5b48e01b996cadc001622fb5e363b421",
            "stateRoot" : "0xf351e67fc6a52c223012a152c1e2853487bebe7de578320ae4143817406ee5c3",
            "timestamp" : "0x03b6",
            "transactionsTrie" : "0x56e81f171bcc55a6ff8345e692c0f86e5b48e01b996cadc001622fb5e363b421",
            "uncleHash" : "0x1dcc4de8dec75d7aab85b567b6ccd41ad312451b948a7413f0a142fd40d49347"
        },
        "genesisRLP" : "0xf901fcf901f7a00000000000000000000000000000000000000000000000000000000000000000a01dcc4de8dec75d7aab85b567b6ccd41ad312451b948a7413f0a142fd40d49347942adc25665018aa1fe0e6bc666dac8fc2697ff9baa0f351e67fc6a52c223012a152c1e2853487bebe7de578320ae4143817406ee5c3a056e81f171bcc55a6ff8345e692c0f86e5b48e01b996cadc001622fb5e363b421a056e81f171bcc55a6ff8345e692c0f86e5b48e01b996cadc001622fb5e363b421b90100000000000000000000000000000000000000000000000000000000000000000000000000000000000000000000000000000000000000000000000000000000000000000000000000000000000000000000000000000000000000000000000000000000000000000000000000000000000000000000000000000000000000000000000000000000000000000000000000000000000000000000000000000000000000000000000000000000000000000000000000000000000000000000000000000000000000000000000000000000000000000000000000000000000000000000000000000000000000000000000000000000000000000000000000000000008302000080850a00000000808203b642a056e81f171bcc55a6ff8345e692c0f86e5b48e01b996cadc001622fb5e363b421880102030405060708c0c0",
        "lastblockhash" : "0x5fdbfdbeeae5a40f933d440f25d919c76a74b83a8d911a04c766fb08745fcd4d",
        "network" : "Frontier",
        "postState" : {
            "0x0f572e5295c57f15886f9b263e2f6d2d6c7b5ec6" : {
                "balance" : "0x0de0b6b3a764000a",
                "code" : "0x602a61fa205359600055",
                "nonce" : "0x00",
                "storage" : {
                    "0x00" : "0xfa40"
                }
            },
            "0x2adc25665018aa1fe0e6bc666dac8fc2697ff9ba" : {
                "balance" : "0x4563918244f4d640",
                "code" : "",
                "nonce" : "0x00",
                "storage" : {
                }
            },
            "0xa94f5374fce5edbc8e2a8697c15331677e6ebf0b" : {
                "balance" : "0x63ffff29b6",
                "code" : "",
                "nonce" : "0x01",
                "storage" : {
                }
            }
        },
        "pre" : {
            "0x0f572e5295c57f15886f9b263e2f6d2d6c7b5ec6" : {
                "balance" : "0x0de0b6b3a7640000",
                "code" : "0x602a61fa205359600055",
                "nonce" : "0x00",
                "storage" : {
                }
            },
            "0xa94f5374fce5edbc8e2a8697c15331677e6ebf0b" : {
                "balance" : "0x6400000000",
                "code" : "",
                "nonce" : "0x00",
                "storage" : {
                }
            }
        }
    },
    "mem64kb_singleByte+33_d0g0v0_Homestead" : {
        "_info" : {
            "comment" : "",
            "filledwith" : "cpp-1.3.0+commit.6e0ce939.Linux.g++",
            "lllcversion" : "Version: 0.4.18-develop.2017.9.25+commit.a72237f2.Linux.g++",
            "source" : "src/BlockchainTestsFiller/GeneralStateTests/stMemoryTest/mem64kb_singleByte+33_d0g0v0Filler.json",
            "sourceHash" : "eaeadf23c8139238408da43d27a24a5750437973c57ad0b89dfcacb204741c53"
        },
        "blocks" : [
            {
                "blockHeader" : {
                    "bloom" : "0x00000000000000000000000000000000000000000000000000000000000000000000000000000000000000000000000000000000000000000000000000000000000000000000000000000000000000000000000000000000000000000000000000000000000000000000000000000000000000000000000000000000000000000000000000000000000000000000000000000000000000000000000000000000000000000000000000000000000000000000000000000000000000000000000000000000000000000000000000000000000000000000000000000000000000000000000000000000000000000000000000000000000000000000000000000000",
                    "coinbase" : "0x2adc25665018aa1fe0e6bc666dac8fc2697ff9ba",
                    "difficulty" : "0x020000",
                    "extraData" : "",
                    "gasLimit" : "0x0a00000000",
                    "gasUsed" : "0xd640",
                    "hash" : "0xdb5587a12b49a1358aeebf390147359f624c133e0a3f97d740f1c7d6154e0d2a",
                    "mixHash" : "0xc2cfbd14c82e4d2aee0fda52163eeb8fedad33f4cc1d946b25190030d8e6acb8",
                    "nonce" : "0x208e48402767526f",
                    "number" : "0x01",
                    "parentHash" : "0xf54d61372cf9167cb52a4231584dd786a0cdee6a425db4535f5d8d9a3c1a4152",
                    "receiptTrie" : "0xdfb5b5d0b3a452158402053e0c1d44fee2c69d1899caf74b731047945ccb2d06",
                    "stateRoot" : "0x12742fa6810dcef509032e3531a47061ff6d475d16025d4ae54807be8b68c317",
                    "timestamp" : "0x03e8",
                    "transactionsTrie" : "0x579a1a7e0077c790d96eb12a938445003a0f26110320cb2527921bad5605561a",
                    "uncleHash" : "0x1dcc4de8dec75d7aab85b567b6ccd41ad312451b948a7413f0a142fd40d49347"
                },
                "rlp" : "0xf90262f901f9a0f54d61372cf9167cb52a4231584dd786a0cdee6a425db4535f5d8d9a3c1a4152a01dcc4de8dec75d7aab85b567b6ccd41ad312451b948a7413f0a142fd40d49347942adc25665018aa1fe0e6bc666dac8fc2697ff9baa012742fa6810dcef509032e3531a47061ff6d475d16025d4ae54807be8b68c317a0579a1a7e0077c790d96eb12a938445003a0f26110320cb2527921bad5605561aa0dfb5b5d0b3a452158402053e0c1d44fee2c69d1899caf74b731047945ccb2d06b90100000000000000000000000000000000000000000000000000000000000000000000000000000000000000000000000000000000000000000000000000000000000000000000000000000000000000000000000000000000000000000000000000000000000000000000000000000000000000000000000000000000000000000000000000000000000000000000000000000000000000000000000000000000000000000000000000000000000000000000000000000000000000000000000000000000000000000000000000000000000000000000000000000000000000000000000000000000000000000000000000000000000000000000000000000000008302000001850a0000000082d6408203e880a0c2cfbd14c82e4d2aee0fda52163eeb8fedad33f4cc1d946b25190030d8e6acb888208e48402767526ff863f86180018450001798940f572e5295c57f15886f9b263e2f6d2d6c7b5ec60a801ba0c368a240875530dbea24d5f971b4ade577a1702ed44b66a0ca6c592986d3d1a7a00534768d31a4befd7cee3b7a73775e16bb1d9aca9ef2e8828286a408a0115978c0",
                "transactions" : [
                    {
                        "data" : "",
                        "gasLimit" : "0x50001798",
                        "gasPrice" : "0x01",
                        "nonce" : "0x00",
                        "r" : "0xc368a240875530dbea24d5f971b4ade577a1702ed44b66a0ca6c592986d3d1a7",
                        "s" : "0x0534768d31a4befd7cee3b7a73775e16bb1d9aca9ef2e8828286a408a0115978",
                        "to" : "0x0f572e5295c57f15886f9b263e2f6d2d6c7b5ec6",
                        "v" : "0x1b",
                        "value" : "0x0a"
                    }
                ],
                "uncleHeaders" : [
                ]
            }
        ],
        "genesisBlockHeader" : {
            "bloom" : "0x00000000000000000000000000000000000000000000000000000000000000000000000000000000000000000000000000000000000000000000000000000000000000000000000000000000000000000000000000000000000000000000000000000000000000000000000000000000000000000000000000000000000000000000000000000000000000000000000000000000000000000000000000000000000000000000000000000000000000000000000000000000000000000000000000000000000000000000000000000000000000000000000000000000000000000000000000000000000000000000000000000000000000000000000000000000",
            "coinbase" : "0x2adc25665018aa1fe0e6bc666dac8fc2697ff9ba",
            "difficulty" : "0x020000",
            "extraData" : "0x42",
            "gasLimit" : "0x0a00000000",
            "gasUsed" : "0x00",
            "hash" : "0xf54d61372cf9167cb52a4231584dd786a0cdee6a425db4535f5d8d9a3c1a4152",
            "mixHash" : "0x56e81f171bcc55a6ff8345e692c0f86e5b48e01b996cadc001622fb5e363b421",
            "nonce" : "0x0102030405060708",
            "number" : "0x00",
            "parentHash" : "0x0000000000000000000000000000000000000000000000000000000000000000",
            "receiptTrie" : "0x56e81f171bcc55a6ff8345e692c0f86e5b48e01b996cadc001622fb5e363b421",
            "stateRoot" : "0xf351e67fc6a52c223012a152c1e2853487bebe7de578320ae4143817406ee5c3",
            "timestamp" : "0x03b6",
            "transactionsTrie" : "0x56e81f171bcc55a6ff8345e692c0f86e5b48e01b996cadc001622fb5e363b421",
            "uncleHash" : "0x1dcc4de8dec75d7aab85b567b6ccd41ad312451b948a7413f0a142fd40d49347"
        },
        "genesisRLP" : "0xf901fcf901f7a00000000000000000000000000000000000000000000000000000000000000000a01dcc4de8dec75d7aab85b567b6ccd41ad312451b948a7413f0a142fd40d49347942adc25665018aa1fe0e6bc666dac8fc2697ff9baa0f351e67fc6a52c223012a152c1e2853487bebe7de578320ae4143817406ee5c3a056e81f171bcc55a6ff8345e692c0f86e5b48e01b996cadc001622fb5e363b421a056e81f171bcc55a6ff8345e692c0f86e5b48e01b996cadc001622fb5e363b421b90100000000000000000000000000000000000000000000000000000000000000000000000000000000000000000000000000000000000000000000000000000000000000000000000000000000000000000000000000000000000000000000000000000000000000000000000000000000000000000000000000000000000000000000000000000000000000000000000000000000000000000000000000000000000000000000000000000000000000000000000000000000000000000000000000000000000000000000000000000000000000000000000000000000000000000000000000000000000000000000000000000000000000000000000000000000008302000080850a00000000808203b642a056e81f171bcc55a6ff8345e692c0f86e5b48e01b996cadc001622fb5e363b421880102030405060708c0c0",
        "lastblockhash" : "0xdb5587a12b49a1358aeebf390147359f624c133e0a3f97d740f1c7d6154e0d2a",
        "network" : "Homestead",
        "postState" : {
            "0x0f572e5295c57f15886f9b263e2f6d2d6c7b5ec6" : {
                "balance" : "0x0de0b6b3a764000a",
                "code" : "0x602a61fa205359600055",
                "nonce" : "0x00",
                "storage" : {
                    "0x00" : "0xfa40"
                }
            },
            "0x2adc25665018aa1fe0e6bc666dac8fc2697ff9ba" : {
                "balance" : "0x4563918244f4d640",
                "code" : "",
                "nonce" : "0x00",
                "storage" : {
                }
            },
            "0xa94f5374fce5edbc8e2a8697c15331677e6ebf0b" : {
                "balance" : "0x63ffff29b6",
                "code" : "",
                "nonce" : "0x01",
                "storage" : {
                }
            }
        },
        "pre" : {
            "0x0f572e5295c57f15886f9b263e2f6d2d6c7b5ec6" : {
                "balance" : "0x0de0b6b3a7640000",
                "code" : "0x602a61fa205359600055",
                "nonce" : "0x00",
                "storage" : {
                }
            },
            "0xa94f5374fce5edbc8e2a8697c15331677e6ebf0b" : {
                "balance" : "0x6400000000",
                "code" : "",
                "nonce" : "0x00",
                "storage" : {
                }
            }
        }
    }
}