{
    "mem64kb_singleByte-33_d0g0v0_Byzantium" : {
        "_info" : {
            "comment" : "",
            "filledwith" : "cpp-1.3.0+commit.6e0ce939.Linux.g++",
            "lllcversion" : "Version: 0.4.18-develop.2017.9.25+commit.a72237f2.Linux.g++",
            "source" : "src/BlockchainTestsFiller/GeneralStateTests/stMemoryTest/mem64kb_singleByte-33_d0g0v0Filler.json",
            "sourceHash" : "5f2426a1769d15fcf1a8d0da01994713f4bfd917e428a0ed0929d19af8ecd452"
        },
        "blocks" : [
            {
                "blockHeader" : {
                    "bloom" : "0x00000000000000000000000000000000000000000000000000000000000000000000000000000000000000000000000000000000000000000000000000000000000000000000000000000000000000000000000000000000000000000000000000000000000000000000000000000000000000000000000000000000000000000000000000000000000000000000000000000000000000000000000000000000000000000000000000000000000000000000000000000000000000000000000000000000000000000000000000000000000000000000000000000000000000000000000000000000000000000000000000000000000000000000000000000000",
                    "coinbase" : "0x2adc25665018aa1fe0e6bc666dac8fc2697ff9ba",
                    "difficulty" : "0x020000",
                    "extraData" : "",
                    "gasLimit" : "0x0a00000000",
                    "gasUsed" : "0xd61f",
                    "hash" : "0x6d34d9e5edc025bae3ad4d7cba9dc65f59421bef9276f1d7b2f05288bb81d0ae",
                    "mixHash" : "0xb08cdd663d5c449505916a48afd40813c79aec4499ad5383274c38b766f3641d",
                    "nonce" : "0x803da4b553afaa95",
                    "number" : "0x01",
                    "parentHash" : "0x676e13181ac562daff3e165b96db6ef762296ca7f253c9ba76e865c75a022d00",
                    "receiptTrie" : "0x77a8ffb2f51941dbec220f4db612d9a0fde13f37207f9c09eb755c1dcedafbe6",
                    "stateRoot" : "0xea46a0bf534852b0764084b35ff389ef67c06f789395d9af45783c08e274102f",
                    "timestamp" : "0x03e8",
                    "transactionsTrie" : "0x579a1a7e0077c790d96eb12a938445003a0f26110320cb2527921bad5605561a",
                    "uncleHash" : "0x1dcc4de8dec75d7aab85b567b6ccd41ad312451b948a7413f0a142fd40d49347"
                },
                "rlp" : "0xf90262f901f9a0676e13181ac562daff3e165b96db6ef762296ca7f253c9ba76e865c75a022d00a01dcc4de8dec75d7aab85b567b6ccd41ad312451b948a7413f0a142fd40d49347942adc25665018aa1fe0e6bc666dac8fc2697ff9baa0ea46a0bf534852b0764084b35ff389ef67c06f789395d9af45783c08e274102fa0579a1a7e0077c790d96eb12a938445003a0f26110320cb2527921bad5605561aa077a8ffb2f51941dbec220f4db612d9a0fde13f37207f9c09eb755c1dcedafbe6b90100000000000000000000000000000000000000000000000000000000000000000000000000000000000000000000000000000000000000000000000000000000000000000000000000000000000000000000000000000000000000000000000000000000000000000000000000000000000000000000000000000000000000000000000000000000000000000000000000000000000000000000000000000000000000000000000000000000000000000000000000000000000000000000000000000000000000000000000000000000000000000000000000000000000000000000000000000000000000000000000000000000000000000000000000000000008302000001850a0000000082d61f8203e880a0b08cdd663d5c449505916a48afd40813c79aec4499ad5383274c38b766f3641d88803da4b553afaa95f863f86180018450001798940f572e5295c57f15886f9b263e2f6d2d6c7b5ec60a801ba0c368a240875530dbea24d5f971b4ade577a1702ed44b66a0ca6c592986d3d1a7a00534768d31a4befd7cee3b7a73775e16bb1d9aca9ef2e8828286a408a0115978c0",
                "transactions" : [
                    {
                        "data" : "",
                        "gasLimit" : "0x50001798",
                        "gasPrice" : "0x01",
                        "nonce" : "0x00",
                        "r" : "0xc368a240875530dbea24d5f971b4ade577a1702ed44b66a0ca6c592986d3d1a7",
                        "s" : "0x0534768d31a4befd7cee3b7a73775e16bb1d9aca9ef2e8828286a408a0115978",
                        "to" : "0x0f572e5295c57f15886f9b263e2f6d2d6c7b5ec6",
                        "v" : "0x1b",
                        "value" : "0x0a"
                    }
                ],
                "uncleHeaders" : [
                ]
            }
        ],
        "genesisBlockHeader" : {
            "bloom" : "0x00000000000000000000000000000000000000000000000000000000000000000000000000000000000000000000000000000000000000000000000000000000000000000000000000000000000000000000000000000000000000000000000000000000000000000000000000000000000000000000000000000000000000000000000000000000000000000000000000000000000000000000000000000000000000000000000000000000000000000000000000000000000000000000000000000000000000000000000000000000000000000000000000000000000000000000000000000000000000000000000000000000000000000000000000000000",
            "coinbase" : "0x2adc25665018aa1fe0e6bc666dac8fc2697ff9ba",
            "difficulty" : "0x020000",
            "extraData" : "0x42",
            "gasLimit" : "0x0a00000000",
            "gasUsed" : "0x00",
            "hash" : "0x676e13181ac562daff3e165b96db6ef762296ca7f253c9ba76e865c75a022d00",
            "mixHash" : "0x56e81f171bcc55a6ff8345e692c0f86e5b48e01b996cadc001622fb5e363b421",
            "nonce" : "0x0102030405060708",
            "number" : "0x00",
            "parentHash" : "0x0000000000000000000000000000000000000000000000000000000000000000",
            "receiptTrie" : "0x56e81f171bcc55a6ff8345e692c0f86e5b48e01b996cadc001622fb5e363b421",
            "stateRoot" : "0x4fef96ce86f5f67d00fc0261fb5f56d01ab8c9fe110ec8719c35b1e7b5838a69",
            "timestamp" : "0x03b6",
            "transactionsTrie" : "0x56e81f171bcc55a6ff8345e692c0f86e5b48e01b996cadc001622fb5e363b421",
            "uncleHash" : "0x1dcc4de8dec75d7aab85b567b6ccd41ad312451b948a7413f0a142fd40d49347"
        },
        "genesisRLP" : "0xf901fcf901f7a00000000000000000000000000000000000000000000000000000000000000000a01dcc4de8dec75d7aab85b567b6ccd41ad312451b948a7413f0a142fd40d49347942adc25665018aa1fe0e6bc666dac8fc2697ff9baa04fef96ce86f5f67d00fc0261fb5f56d01ab8c9fe110ec8719c35b1e7b5838a69a056e81f171bcc55a6ff8345e692c0f86e5b48e01b996cadc001622fb5e363b421a056e81f171bcc55a6ff8345e692c0f86e5b48e01b996cadc001622fb5e363b421b90100000000000000000000000000000000000000000000000000000000000000000000000000000000000000000000000000000000000000000000000000000000000000000000000000000000000000000000000000000000000000000000000000000000000000000000000000000000000000000000000000000000000000000000000000000000000000000000000000000000000000000000000000000000000000000000000000000000000000000000000000000000000000000000000000000000000000000000000000000000000000000000000000000000000000000000000000000000000000000000000000000000000000000000000000000000008302000080850a00000000808203b642a056e81f171bcc55a6ff8345e692c0f86e5b48e01b996cadc001622fb5e363b421880102030405060708c0c0",
        "lastblockhash" : "0x6d34d9e5edc025bae3ad4d7cba9dc65f59421bef9276f1d7b2f05288bb81d0ae",
        "network" : "Byzantium",
        "postState" : {
            "0x0f572e5295c57f15886f9b263e2f6d2d6c7b5ec6" : {
                "balance" : "0x0de0b6b3a764000a",
                "code" : "0x602a61f9de5359600055",
                "nonce" : "0x00",
                "storage" : {
                    "0x00" : "0xf9e0"
                }
            },
            "0x2adc25665018aa1fe0e6bc666dac8fc2697ff9ba" : {
                "balance" : "0x29a2241af62cd61f",
                "code" : "",
                "nonce" : "0x00",
                "storage" : {
                }
            },
            "0xa94f5374fce5edbc8e2a8697c15331677e6ebf0b" : {
                "balance" : "0x63ffff29d7",
                "code" : "",
                "nonce" : "0x01",
                "storage" : {
                }
            }
        },
        "pre" : {
            "0x0f572e5295c57f15886f9b263e2f6d2d6c7b5ec6" : {
                "balance" : "0x0de0b6b3a7640000",
                "code" : "0x602a61f9de5359600055",
                "nonce" : "0x00",
                "storage" : {
                }
            },
            "0xa94f5374fce5edbc8e2a8697c15331677e6ebf0b" : {
                "balance" : "0x6400000000",
                "code" : "",
                "nonce" : "0x00",
                "storage" : {
                }
            }
        }
    },
    "mem64kb_singleByte-33_d0g0v0_EIP150" : {
        "_info" : {
            "comment" : "",
            "filledwith" : "cpp-1.3.0+commit.6e0ce939.Linux.g++",
            "lllcversion" : "Version: 0.4.18-develop.2017.9.25+commit.a72237f2.Linux.g++",
            "source" : "src/BlockchainTestsFiller/GeneralStateTests/stMemoryTest/mem64kb_singleByte-33_d0g0v0Filler.json",
            "sourceHash" : "5f2426a1769d15fcf1a8d0da01994713f4bfd917e428a0ed0929d19af8ecd452"
        },
        "blocks" : [
            {
                "blockHeader" : {
                    "bloom" : "0x00000000000000000000000000000000000000000000000000000000000000000000000000000000000000000000000000000000000000000000000000000000000000000000000000000000000000000000000000000000000000000000000000000000000000000000000000000000000000000000000000000000000000000000000000000000000000000000000000000000000000000000000000000000000000000000000000000000000000000000000000000000000000000000000000000000000000000000000000000000000000000000000000000000000000000000000000000000000000000000000000000000000000000000000000000000",
                    "coinbase" : "0x2adc25665018aa1fe0e6bc666dac8fc2697ff9ba",
                    "difficulty" : "0x020000",
                    "extraData" : "",
                    "gasLimit" : "0x0a00000000",
                    "gasUsed" : "0xd61f",
                    "hash" : "0xd45fdcfe44aeab9c87a580ebdaa4c7ddccea29db802e2c6fc77d0aa786f5950c",
                    "mixHash" : "0x926f520892a9f097fe1f8456f8e7b5455e374aeb19c91831640e1642ab6c8ff0",
                    "nonce" : "0x98067b65efb33746",
                    "number" : "0x01",
                    "parentHash" : "0x676e13181ac562daff3e165b96db6ef762296ca7f253c9ba76e865c75a022d00",
                    "receiptTrie" : "0xb05d66d9ad4ed8a9910ab5150341ed45e083688aec1cbcf1e25ce69d661ba404",
                    "stateRoot" : "0x6ce4e1df43467d063adf3957edc0b76070630b496602608a6ba35b7e89e2afbc",
                    "timestamp" : "0x03e8",
                    "transactionsTrie" : "0x579a1a7e0077c790d96eb12a938445003a0f26110320cb2527921bad5605561a",
                    "uncleHash" : "0x1dcc4de8dec75d7aab85b567b6ccd41ad312451b948a7413f0a142fd40d49347"
                },
                "rlp" : "0xf90262f901f9a0676e13181ac562daff3e165b96db6ef762296ca7f253c9ba76e865c75a022d00a01dcc4de8dec75d7aab85b567b6ccd41ad312451b948a7413f0a142fd40d49347942adc25665018aa1fe0e6bc666dac8fc2697ff9baa06ce4e1df43467d063adf3957edc0b76070630b496602608a6ba35b7e89e2afbca0579a1a7e0077c790d96eb12a938445003a0f26110320cb2527921bad5605561aa0b05d66d9ad4ed8a9910ab5150341ed45e083688aec1cbcf1e25ce69d661ba404b90100000000000000000000000000000000000000000000000000000000000000000000000000000000000000000000000000000000000000000000000000000000000000000000000000000000000000000000000000000000000000000000000000000000000000000000000000000000000000000000000000000000000000000000000000000000000000000000000000000000000000000000000000000000000000000000000000000000000000000000000000000000000000000000000000000000000000000000000000000000000000000000000000000000000000000000000000000000000000000000000000000000000000000000000000000000008302000001850a0000000082d61f8203e880a0926f520892a9f097fe1f8456f8e7b5455e374aeb19c91831640e1642ab6c8ff08898067b65efb33746f863f86180018450001798940f572e5295c57f15886f9b263e2f6d2d6c7b5ec60a801ba0c368a240875530dbea24d5f971b4ade577a1702ed44b66a0ca6c592986d3d1a7a00534768d31a4befd7cee3b7a73775e16bb1d9aca9ef2e8828286a408a0115978c0",
                "transactions" : [
                    {
                        "data" : "",
                        "gasLimit" : "0x50001798",
                        "gasPrice" : "0x01",
                        "nonce" : "0x00",
                        "r" : "0xc368a240875530dbea24d5f971b4ade577a1702ed44b66a0ca6c592986d3d1a7",
                        "s" : "0x0534768d31a4befd7cee3b7a73775e16bb1d9aca9ef2e8828286a408a0115978",
                        "to" : "0x0f572e5295c57f15886f9b263e2f6d2d6c7b5ec6",
                        "v" : "0x1b",
                        "value" : "0x0a"
                    }
                ],
                "uncleHeaders" : [
                ]
            }
        ],
        "genesisBlockHeader" : {
            "bloom" : "0x00000000000000000000000000000000000000000000000000000000000000000000000000000000000000000000000000000000000000000000000000000000000000000000000000000000000000000000000000000000000000000000000000000000000000000000000000000000000000000000000000000000000000000000000000000000000000000000000000000000000000000000000000000000000000000000000000000000000000000000000000000000000000000000000000000000000000000000000000000000000000000000000000000000000000000000000000000000000000000000000000000000000000000000000000000000",
            "coinbase" : "0x2adc25665018aa1fe0e6bc666dac8fc2697ff9ba",
            "difficulty" : "0x020000",
            "extraData" : "0x42",
            "gasLimit" : "0x0a00000000",
            "gasUsed" : "0x00",
            "hash" : "0x676e13181ac562daff3e165b96db6ef762296ca7f253c9ba76e865c75a022d00",
            "mixHash" : "0x56e81f171bcc55a6ff8345e692c0f86e5b48e01b996cadc001622fb5e363b421",
            "nonce" : "0x0102030405060708",
            "number" : "0x00",
            "parentHash" : "0x0000000000000000000000000000000000000000000000000000000000000000",
            "receiptTrie" : "0x56e81f171bcc55a6ff8345e692c0f86e5b48e01b996cadc001622fb5e363b421",
            "stateRoot" : "0x4fef96ce86f5f67d00fc0261fb5f56d01ab8c9fe110ec8719c35b1e7b5838a69",
            "timestamp" : "0x03b6",
            "transactionsTrie" : "0x56e81f171bcc55a6ff8345e692c0f86e5b48e01b996cadc001622fb5e363b421",
            "uncleHash" : "0x1dcc4de8dec75d7aab85b567b6ccd41ad312451b948a7413f0a142fd40d49347"
        },
        "genesisRLP" : "0xf901fcf901f7a00000000000000000000000000000000000000000000000000000000000000000a01dcc4de8dec75d7aab85b567b6ccd41ad312451b948a7413f0a142fd40d49347942adc25665018aa1fe0e6bc666dac8fc2697ff9baa04fef96ce86f5f67d00fc0261fb5f56d01ab8c9fe110ec8719c35b1e7b5838a69a056e81f171bcc55a6ff8345e692c0f86e5b48e01b996cadc001622fb5e363b421a056e81f171bcc55a6ff8345e692c0f86e5b48e01b996cadc001622fb5e363b421b90100000000000000000000000000000000000000000000000000000000000000000000000000000000000000000000000000000000000000000000000000000000000000000000000000000000000000000000000000000000000000000000000000000000000000000000000000000000000000000000000000000000000000000000000000000000000000000000000000000000000000000000000000000000000000000000000000000000000000000000000000000000000000000000000000000000000000000000000000000000000000000000000000000000000000000000000000000000000000000000000000000000000000000000000000000000008302000080850a00000000808203b642a056e81f171bcc55a6ff8345e692c0f86e5b48e01b996cadc001622fb5e363b421880102030405060708c0c0",
        "lastblockhash" : "0xd45fdcfe44aeab9c87a580ebdaa4c7ddccea29db802e2c6fc77d0aa786f5950c",
        "network" : "EIP150",
        "postState" : {
            "0x0f572e5295c57f15886f9b263e2f6d2d6c7b5ec6" : {
                "balance" : "0x0de0b6b3a764000a",
                "code" : "0x602a61f9de5359600055",
                "nonce" : "0x00",
                "storage" : {
                    "0x00" : "0xf9e0"
                }
            },
            "0x2adc25665018aa1fe0e6bc666dac8fc2697ff9ba" : {
                "balance" : "0x4563918244f4d61f",
                "code" : "",
                "nonce" : "0x00",
                "storage" : {
                }
            },
            "0xa94f5374fce5edbc8e2a8697c15331677e6ebf0b" : {
                "balance" : "0x63ffff29d7",
                "code" : "",
                "nonce" : "0x01",
                "storage" : {
                }
            }
        },
        "pre" : {
            "0x0f572e5295c57f15886f9b263e2f6d2d6c7b5ec6" : {
                "balance" : "0x0de0b6b3a7640000",
                "code" : "0x602a61f9de5359600055",
                "nonce" : "0x00",
                "storage" : {
                }
            },
            "0xa94f5374fce5edbc8e2a8697c15331677e6ebf0b" : {
                "balance" : "0x6400000000",
                "code" : "",
                "nonce" : "0x00",
                "storage" : {
                }
            }
        }
    },
    "mem64kb_singleByte-33_d0g0v0_EIP158" : {
        "_info" : {
            "comment" : "",
            "filledwith" : "cpp-1.3.0+commit.6e0ce939.Linux.g++",
            "lllcversion" : "Version: 0.4.18-develop.2017.9.25+commit.a72237f2.Linux.g++",
            "source" : "src/BlockchainTestsFiller/GeneralStateTests/stMemoryTest/mem64kb_singleByte-33_d0g0v0Filler.json",
            "sourceHash" : "5f2426a1769d15fcf1a8d0da01994713f4bfd917e428a0ed0929d19af8ecd452"
        },
        "blocks" : [
            {
                "blockHeader" : {
                    "bloom" : "0x00000000000000000000000000000000000000000000000000000000000000000000000000000000000000000000000000000000000000000000000000000000000000000000000000000000000000000000000000000000000000000000000000000000000000000000000000000000000000000000000000000000000000000000000000000000000000000000000000000000000000000000000000000000000000000000000000000000000000000000000000000000000000000000000000000000000000000000000000000000000000000000000000000000000000000000000000000000000000000000000000000000000000000000000000000000",
                    "coinbase" : "0x2adc25665018aa1fe0e6bc666dac8fc2697ff9ba",
                    "difficulty" : "0x020000",
                    "extraData" : "",
                    "gasLimit" : "0x0a00000000",
                    "gasUsed" : "0xd61f",
                    "hash" : "0x51ac9a540ae6d0391a9ddbfc5b023991d867c230a6f2a8ae50dfe99451698db9",
                    "mixHash" : "0x24581a0d79e251ac136b47a84e86e12cbc0650d61deb7899d54795c2da6e509a",
                    "nonce" : "0x50ba55d6f2240fad",
                    "number" : "0x01",
                    "parentHash" : "0x676e13181ac562daff3e165b96db6ef762296ca7f253c9ba76e865c75a022d00",
                    "receiptTrie" : "0xb05d66d9ad4ed8a9910ab5150341ed45e083688aec1cbcf1e25ce69d661ba404",
                    "stateRoot" : "0x6ce4e1df43467d063adf3957edc0b76070630b496602608a6ba35b7e89e2afbc",
                    "timestamp" : "0x03e8",
                    "transactionsTrie" : "0x579a1a7e0077c790d96eb12a938445003a0f26110320cb2527921bad5605561a",
                    "uncleHash" : "0x1dcc4de8dec75d7aab85b567b6ccd41ad312451b948a7413f0a142fd40d49347"
                },
                "rlp" : "0xf90262f901f9a0676e13181ac562daff3e165b96db6ef762296ca7f253c9ba76e865c75a022d00a01dcc4de8dec75d7aab85b567b6ccd41ad312451b948a7413f0a142fd40d49347942adc25665018aa1fe0e6bc666dac8fc2697ff9baa06ce4e1df43467d063adf3957edc0b76070630b496602608a6ba35b7e89e2afbca0579a1a7e0077c790d96eb12a938445003a0f26110320cb2527921bad5605561aa0b05d66d9ad4ed8a9910ab5150341ed45e083688aec1cbcf1e25ce69d661ba404b90100000000000000000000000000000000000000000000000000000000000000000000000000000000000000000000000000000000000000000000000000000000000000000000000000000000000000000000000000000000000000000000000000000000000000000000000000000000000000000000000000000000000000000000000000000000000000000000000000000000000000000000000000000000000000000000000000000000000000000000000000000000000000000000000000000000000000000000000000000000000000000000000000000000000000000000000000000000000000000000000000000000000000000000000000000000008302000001850a0000000082d61f8203e880a024581a0d79e251ac136b47a84e86e12cbc0650d61deb7899d54795c2da6e509a8850ba55d6f2240fadf863f86180018450001798940f572e5295c57f15886f9b263e2f6d2d6c7b5ec60a801ba0c368a240875530dbea24d5f971b4ade577a1702ed44b66a0ca6c592986d3d1a7a00534768d31a4befd7cee3b7a73775e16bb1d9aca9ef2e8828286a408a0115978c0",
                "transactions" : [
                    {
                        "data" : "",
                        "gasLimit" : "0x50001798",
                        "gasPrice" : "0x01",
                        "nonce" : "0x00",
                        "r" : "0xc368a240875530dbea24d5f971b4ade577a1702ed44b66a0ca6c592986d3d1a7",
                        "s" : "0x0534768d31a4befd7cee3b7a73775e16bb1d9aca9ef2e8828286a408a0115978",
                        "to" : "0x0f572e5295c57f15886f9b263e2f6d2d6c7b5ec6",
                        "v" : "0x1b",
                        "value" : "0x0a"
                    }
                ],
                "uncleHeaders" : [
                ]
            }
        ],
        "genesisBlockHeader" : {
            "bloom" : "0x00000000000000000000000000000000000000000000000000000000000000000000000000000000000000000000000000000000000000000000000000000000000000000000000000000000000000000000000000000000000000000000000000000000000000000000000000000000000000000000000000000000000000000000000000000000000000000000000000000000000000000000000000000000000000000000000000000000000000000000000000000000000000000000000000000000000000000000000000000000000000000000000000000000000000000000000000000000000000000000000000000000000000000000000000000000",
            "coinbase" : "0x2adc25665018aa1fe0e6bc666dac8fc2697ff9ba",
            "difficulty" : "0x020000",
            "extraData" : "0x42",
            "gasLimit" : "0x0a00000000",
            "gasUsed" : "0x00",
            "hash" : "0x676e13181ac562daff3e165b96db6ef762296ca7f253c9ba76e865c75a022d00",
            "mixHash" : "0x56e81f171bcc55a6ff8345e692c0f86e5b48e01b996cadc001622fb5e363b421",
            "nonce" : "0x0102030405060708",
            "number" : "0x00",
            "parentHash" : "0x0000000000000000000000000000000000000000000000000000000000000000",
            "receiptTrie" : "0x56e81f171bcc55a6ff8345e692c0f86e5b48e01b996cadc001622fb5e363b421",
            "stateRoot" : "0x4fef96ce86f5f67d00fc0261fb5f56d01ab8c9fe110ec8719c35b1e7b5838a69",
            "timestamp" : "0x03b6",
            "transactionsTrie" : "0x56e81f171bcc55a6ff8345e692c0f86e5b48e01b996cadc001622fb5e363b421",
            "uncleHash" : "0x1dcc4de8dec75d7aab85b567b6ccd41ad312451b948a7413f0a142fd40d49347"
        },
        "genesisRLP" : "0xf901fcf901f7a00000000000000000000000000000000000000000000000000000000000000000a01dcc4de8dec75d7aab85b567b6ccd41ad312451b948a7413f0a142fd40d49347942adc25665018aa1fe0e6bc666dac8fc2697ff9baa04fef96ce86f5f67d00fc0261fb5f56d01ab8c9fe110ec8719c35b1e7b5838a69a056e81f171bcc55a6ff8345e692c0f86e5b48e01b996cadc001622fb5e363b421a056e81f171bcc55a6ff8345e692c0f86e5b48e01b996cadc001622fb5e363b421b90100000000000000000000000000000000000000000000000000000000000000000000000000000000000000000000000000000000000000000000000000000000000000000000000000000000000000000000000000000000000000000000000000000000000000000000000000000000000000000000000000000000000000000000000000000000000000000000000000000000000000000000000000000000000000000000000000000000000000000000000000000000000000000000000000000000000000000000000000000000000000000000000000000000000000000000000000000000000000000000000000000000000000000000000000000000008302000080850a00000000808203b642a056e81f171bcc55a6ff8345e692c0f86e5b48e01b996cadc001622fb5e363b421880102030405060708c0c0",
        "lastblockhash" : "0x51ac9a540ae6d0391a9ddbfc5b023991d867c230a6f2a8ae50dfe99451698db9",
        "network" : "EIP158",
        "postState" : {
            "0x0f572e5295c57f15886f9b263e2f6d2d6c7b5ec6" : {
                "balance" : "0x0de0b6b3a764000a",
                "code" : "0x602a61f9de5359600055",
                "nonce" : "0x00",
                "storage" : {
                    "0x00" : "0xf9e0"
                }
            },
            "0x2adc25665018aa1fe0e6bc666dac8fc2697ff9ba" : {
                "balance" : "0x4563918244f4d61f",
                "code" : "",
                "nonce" : "0x00",
                "storage" : {
                }
            },
            "0xa94f5374fce5edbc8e2a8697c15331677e6ebf0b" : {
                "balance" : "0x63ffff29d7",
                "code" : "",
                "nonce" : "0x01",
                "storage" : {
                }
            }
        },
        "pre" : {
            "0x0f572e5295c57f15886f9b263e2f6d2d6c7b5ec6" : {
                "balance" : "0x0de0b6b3a7640000",
                "code" : "0x602a61f9de5359600055",
                "nonce" : "0x00",
                "storage" : {
                }
            },
            "0xa94f5374fce5edbc8e2a8697c15331677e6ebf0b" : {
                "balance" : "0x6400000000",
                "code" : "",
                "nonce" : "0x00",
                "storage" : {
                }
            }
        }
    },
    "mem64kb_singleByte-33_d0g0v0_Frontier" : {
        "_info" : {
            "comment" : "",
            "filledwith" : "cpp-1.3.0+commit.6e0ce939.Linux.g++",
            "lllcversion" : "Version: 0.4.18-develop.2017.9.25+commit.a72237f2.Linux.g++",
            "source" : "src/BlockchainTestsFiller/GeneralStateTests/stMemoryTest/mem64kb_singleByte-33_d0g0v0Filler.json",
            "sourceHash" : "5f2426a1769d15fcf1a8d0da01994713f4bfd917e428a0ed0929d19af8ecd452"
        },
        "blocks" : [
            {
                "blockHeader" : {
                    "bloom" : "0x00000000000000000000000000000000000000000000000000000000000000000000000000000000000000000000000000000000000000000000000000000000000000000000000000000000000000000000000000000000000000000000000000000000000000000000000000000000000000000000000000000000000000000000000000000000000000000000000000000000000000000000000000000000000000000000000000000000000000000000000000000000000000000000000000000000000000000000000000000000000000000000000000000000000000000000000000000000000000000000000000000000000000000000000000000000",
                    "coinbase" : "0x2adc25665018aa1fe0e6bc666dac8fc2697ff9ba",
                    "difficulty" : "0x020000",
                    "extraData" : "",
                    "gasLimit" : "0x0a00000000",
                    "gasUsed" : "0xd61f",
                    "hash" : "0x048e2ffd0806e1f01a59c374cfaf8c1cef63810faad7b64f35aabbedf34b18c5",
                    "mixHash" : "0xc93d79d3984953dff04d38ea6daea611a772c0de95e6548ff220e4c946412106",
                    "nonce" : "0x531369cb2a543892",
                    "number" : "0x01",
                    "parentHash" : "0x676e13181ac562daff3e165b96db6ef762296ca7f253c9ba76e865c75a022d00",
                    "receiptTrie" : "0xb05d66d9ad4ed8a9910ab5150341ed45e083688aec1cbcf1e25ce69d661ba404",
                    "stateRoot" : "0x6ce4e1df43467d063adf3957edc0b76070630b496602608a6ba35b7e89e2afbc",
                    "timestamp" : "0x03e8",
                    "transactionsTrie" : "0x579a1a7e0077c790d96eb12a938445003a0f26110320cb2527921bad5605561a",
                    "uncleHash" : "0x1dcc4de8dec75d7aab85b567b6ccd41ad312451b948a7413f0a142fd40d49347"
                },
                "rlp" : "0xf90262f901f9a0676e13181ac562daff3e165b96db6ef762296ca7f253c9ba76e865c75a022d00a01dcc4de8dec75d7aab85b567b6ccd41ad312451b948a7413f0a142fd40d49347942adc25665018aa1fe0e6bc666dac8fc2697ff9baa06ce4e1df43467d063adf3957edc0b76070630b496602608a6ba35b7e89e2afbca0579a1a7e0077c790d96eb12a938445003a0f26110320cb2527921bad5605561aa0b05d66d9ad4ed8a9910ab5150341ed45e083688aec1cbcf1e25ce69d661ba404b90100000000000000000000000000000000000000000000000000000000000000000000000000000000000000000000000000000000000000000000000000000000000000000000000000000000000000000000000000000000000000000000000000000000000000000000000000000000000000000000000000000000000000000000000000000000000000000000000000000000000000000000000000000000000000000000000000000000000000000000000000000000000000000000000000000000000000000000000000000000000000000000000000000000000000000000000000000000000000000000000000000000000000000000000000000000008302000001850a0000000082d61f8203e880a0c93d79d3984953dff04d38ea6daea611a772c0de95e6548ff220e4c94641210688531369cb2a543892f863f86180018450001798940f572e5295c57f15886f9b263e2f6d2d6c7b5ec60a801ba0c368a240875530dbea24d5f971b4ade577a1702ed44b66a0ca6c592986d3d1a7a00534768d31a4befd7cee3b7a73775e16bb1d9aca9ef2e8828286a408a0115978c0",
                "transactions" : [
                    {
                        "data" : "",
                        "gasLimit" : "0x50001798",
                        "gasPrice" : "0x01",
                        "nonce" : "0x00",
                        "r" : "0xc368a240875530dbea24d5f971b4ade577a1702ed44b66a0ca6c592986d3d1a7",
                        "s" : "0x0534768d31a4befd7cee3b7a73775e16bb1d9aca9ef2e8828286a408a0115978",
                        "to" : "0x0f572e5295c57f15886f9b263e2f6d2d6c7b5ec6",
                        "v" : "0x1b",
                        "value" : "0x0a"
                    }
                ],
                "uncleHeaders" : [
                ]
            }
        ],
        "genesisBlockHeader" : {
            "bloom" : "0x00000000000000000000000000000000000000000000000000000000000000000000000000000000000000000000000000000000000000000000000000000000000000000000000000000000000000000000000000000000000000000000000000000000000000000000000000000000000000000000000000000000000000000000000000000000000000000000000000000000000000000000000000000000000000000000000000000000000000000000000000000000000000000000000000000000000000000000000000000000000000000000000000000000000000000000000000000000000000000000000000000000000000000000000000000000",
            "coinbase" : "0x2adc25665018aa1fe0e6bc666dac8fc2697ff9ba",
            "difficulty" : "0x020000",
            "extraData" : "0x42",
            "gasLimit" : "0x0a00000000",
            "gasUsed" : "0x00",
            "hash" : "0x676e13181ac562daff3e165b96db6ef762296ca7f253c9ba76e865c75a022d00",
            "mixHash" : "0x56e81f171bcc55a6ff8345e692c0f86e5b48e01b996cadc001622fb5e363b421",
            "nonce" : "0x0102030405060708",
            "number" : "0x00",
            "parentHash" : "0x0000000000000000000000000000000000000000000000000000000000000000",
            "receiptTrie" : "0x56e81f171bcc55a6ff8345e692c0f86e5b48e01b996cadc001622fb5e363b421",
            "stateRoot" : "0x4fef96ce86f5f67d00fc0261fb5f56d01ab8c9fe110ec8719c35b1e7b5838a69",
            "timestamp" : "0x03b6",
            "transactionsTrie" : "0x56e81f171bcc55a6ff8345e692c0f86e5b48e01b996cadc001622fb5e363b421",
            "uncleHash" : "0x1dcc4de8dec75d7aab85b567b6ccd41ad312451b948a7413f0a142fd40d49347"
        },
        "genesisRLP" : "0xf901fcf901f7a00000000000000000000000000000000000000000000000000000000000000000a01dcc4de8dec75d7aab85b567b6ccd41ad312451b948a7413f0a142fd40d49347942adc25665018aa1fe0e6bc666dac8fc2697ff9baa04fef96ce86f5f67d00fc0261fb5f56d01ab8c9fe110ec8719c35b1e7b5838a69a056e81f171bcc55a6ff8345e692c0f86e5b48e01b996cadc001622fb5e363b421a056e81f171bcc55a6ff8345e692c0f86e5b48e01b996cadc001622fb5e363b421b90100000000000000000000000000000000000000000000000000000000000000000000000000000000000000000000000000000000000000000000000000000000000000000000000000000000000000000000000000000000000000000000000000000000000000000000000000000000000000000000000000000000000000000000000000000000000000000000000000000000000000000000000000000000000000000000000000000000000000000000000000000000000000000000000000000000000000000000000000000000000000000000000000000000000000000000000000000000000000000000000000000000000000000000000000000000008302000080850a00000000808203b642a056e81f171bcc55a6ff8345e692c0f86e5b48e01b996cadc001622fb5e363b421880102030405060708c0c0",
        "lastblockhash" : "0x048e2ffd0806e1f01a59c374cfaf8c1cef63810faad7b64f35aabbedf34b18c5",
        "network" : "Frontier",
        "postState" : {
            "0x0f572e5295c57f15886f9b263e2f6d2d6c7b5ec6" : {
                "balance" : "0x0de0b6b3a764000a",
                "code" : "0x602a61f9de5359600055",
                "nonce" : "0x00",
                "storage" : {
                    "0x00" : "0xf9e0"
                }
            },
            "0x2adc25665018aa1fe0e6bc666dac8fc2697ff9ba" : {
                "balance" : "0x4563918244f4d61f",
                "code" : "",
                "nonce" : "0x00",
                "storage" : {
                }
            },
            "0xa94f5374fce5edbc8e2a8697c15331677e6ebf0b" : {
                "balance" : "0x63ffff29d7",
                "code" : "",
                "nonce" : "0x01",
                "storage" : {
                }
            }
        },
        "pre" : {
            "0x0f572e5295c57f15886f9b263e2f6d2d6c7b5ec6" : {
                "balance" : "0x0de0b6b3a7640000",
                "code" : "0x602a61f9de5359600055",
                "nonce" : "0x00",
                "storage" : {
                }
            },
            "0xa94f5374fce5edbc8e2a8697c15331677e6ebf0b" : {
                "balance" : "0x6400000000",
                "code" : "",
                "nonce" : "0x00",
                "storage" : {
                }
            }
        }
    },
    "mem64kb_singleByte-33_d0g0v0_Homestead" : {
        "_info" : {
            "comment" : "",
            "filledwith" : "cpp-1.3.0+commit.6e0ce939.Linux.g++",
            "lllcversion" : "Version: 0.4.18-develop.2017.9.25+commit.a72237f2.Linux.g++",
            "source" : "src/BlockchainTestsFiller/GeneralStateTests/stMemoryTest/mem64kb_singleByte-33_d0g0v0Filler.json",
            "sourceHash" : "5f2426a1769d15fcf1a8d0da01994713f4bfd917e428a0ed0929d19af8ecd452"
        },
        "blocks" : [
            {
                "blockHeader" : {
                    "bloom" : "0x00000000000000000000000000000000000000000000000000000000000000000000000000000000000000000000000000000000000000000000000000000000000000000000000000000000000000000000000000000000000000000000000000000000000000000000000000000000000000000000000000000000000000000000000000000000000000000000000000000000000000000000000000000000000000000000000000000000000000000000000000000000000000000000000000000000000000000000000000000000000000000000000000000000000000000000000000000000000000000000000000000000000000000000000000000000",
                    "coinbase" : "0x2adc25665018aa1fe0e6bc666dac8fc2697ff9ba",
                    "difficulty" : "0x020000",
                    "extraData" : "",
                    "gasLimit" : "0x0a00000000",
                    "gasUsed" : "0xd61f",
                    "hash" : "0x39320fed68ce7c1c60025067ae8d9a80fef2ed8e64f8bd19ad73ba310a4616e6",
                    "mixHash" : "0xb0abf74abfdb1c14c5c9e8d11493ae285fd5291761e565e904b8161f0d745d71",
                    "nonce" : "0xb59d61c69eae3c83",
                    "number" : "0x01",
                    "parentHash" : "0x676e13181ac562daff3e165b96db6ef762296ca7f253c9ba76e865c75a022d00",
                    "receiptTrie" : "0xb05d66d9ad4ed8a9910ab5150341ed45e083688aec1cbcf1e25ce69d661ba404",
                    "stateRoot" : "0x6ce4e1df43467d063adf3957edc0b76070630b496602608a6ba35b7e89e2afbc",
                    "timestamp" : "0x03e8",
                    "transactionsTrie" : "0x579a1a7e0077c790d96eb12a938445003a0f26110320cb2527921bad5605561a",
                    "uncleHash" : "0x1dcc4de8dec75d7aab85b567b6ccd41ad312451b948a7413f0a142fd40d49347"
                },
                "rlp" : "0xf90262f901f9a0676e13181ac562daff3e165b96db6ef762296ca7f253c9ba76e865c75a022d00a01dcc4de8dec75d7aab85b567b6ccd41ad312451b948a7413f0a142fd40d49347942adc25665018aa1fe0e6bc666dac8fc2697ff9baa06ce4e1df43467d063adf3957edc0b76070630b496602608a6ba35b7e89e2afbca0579a1a7e0077c790d96eb12a938445003a0f26110320cb2527921bad5605561aa0b05d66d9ad4ed8a9910ab5150341ed45e083688aec1cbcf1e25ce69d661ba404b90100000000000000000000000000000000000000000000000000000000000000000000000000000000000000000000000000000000000000000000000000000000000000000000000000000000000000000000000000000000000000000000000000000000000000000000000000000000000000000000000000000000000000000000000000000000000000000000000000000000000000000000000000000000000000000000000000000000000000000000000000000000000000000000000000000000000000000000000000000000000000000000000000000000000000000000000000000000000000000000000000000000000000000000000000000000008302000001850a0000000082d61f8203e880a0b0abf74abfdb1c14c5c9e8d11493ae285fd5291761e565e904b8161f0d745d7188b59d61c69eae3c83f863f86180018450001798940f572e5295c57f15886f9b263e2f6d2d6c7b5ec60a801ba0c368a240875530dbea24d5f971b4ade577a1702ed44b66a0ca6c592986d3d1a7a00534768d31a4befd7cee3b7a73775e16bb1d9aca9ef2e8828286a408a0115978c0",
                "transactions" : [
                    {
                        "data" : "",
                        "gasLimit" : "0x50001798",
                        "gasPrice" : "0x01",
                        "nonce" : "0x00",
                        "r" : "0xc368a240875530dbea24d5f971b4ade577a1702ed44b66a0ca6c592986d3d1a7",
                        "s" : "0x0534768d31a4befd7cee3b7a73775e16bb1d9aca9ef2e8828286a408a0115978",
                        "to" : "0x0f572e5295c57f15886f9b263e2f6d2d6c7b5ec6",
                        "v" : "0x1b",
                        "value" : "0x0a"
                    }
                ],
                "uncleHeaders" : [
                ]
            }
        ],
        "genesisBlockHeader" : {
            "bloom" : "0x00000000000000000000000000000000000000000000000000000000000000000000000000000000000000000000000000000000000000000000000000000000000000000000000000000000000000000000000000000000000000000000000000000000000000000000000000000000000000000000000000000000000000000000000000000000000000000000000000000000000000000000000000000000000000000000000000000000000000000000000000000000000000000000000000000000000000000000000000000000000000000000000000000000000000000000000000000000000000000000000000000000000000000000000000000000",
            "coinbase" : "0x2adc25665018aa1fe0e6bc666dac8fc2697ff9ba",
            "difficulty" : "0x020000",
            "extraData" : "0x42",
            "gasLimit" : "0x0a00000000",
            "gasUsed" : "0x00",
            "hash" : "0x676e13181ac562daff3e165b96db6ef762296ca7f253c9ba76e865c75a022d00",
            "mixHash" : "0x56e81f171bcc55a6ff8345e692c0f86e5b48e01b996cadc001622fb5e363b421",
            "nonce" : "0x0102030405060708",
            "number" : "0x00",
            "parentHash" : "0x0000000000000000000000000000000000000000000000000000000000000000",
            "receiptTrie" : "0x56e81f171bcc55a6ff8345e692c0f86e5b48e01b996cadc001622fb5e363b421",
            "stateRoot" : "0x4fef96ce86f5f67d00fc0261fb5f56d01ab8c9fe110ec8719c35b1e7b5838a69",
            "timestamp" : "0x03b6",
            "transactionsTrie" : "0x56e81f171bcc55a6ff8345e692c0f86e5b48e01b996cadc001622fb5e363b421",
            "uncleHash" : "0x1dcc4de8dec75d7aab85b567b6ccd41ad312451b948a7413f0a142fd40d49347"
        },
        "genesisRLP" : "0xf901fcf901f7a00000000000000000000000000000000000000000000000000000000000000000a01dcc4de8dec75d7aab85b567b6ccd41ad312451b948a7413f0a142fd40d49347942adc25665018aa1fe0e6bc666dac8fc2697ff9baa04fef96ce86f5f67d00fc0261fb5f56d01ab8c9fe110ec8719c35b1e7b5838a69a056e81f171bcc55a6ff8345e692c0f86e5b48e01b996cadc001622fb5e363b421a056e81f171bcc55a6ff8345e692c0f86e5b48e01b996cadc001622fb5e363b421b90100000000000000000000000000000000000000000000000000000000000000000000000000000000000000000000000000000000000000000000000000000000000000000000000000000000000000000000000000000000000000000000000000000000000000000000000000000000000000000000000000000000000000000000000000000000000000000000000000000000000000000000000000000000000000000000000000000000000000000000000000000000000000000000000000000000000000000000000000000000000000000000000000000000000000000000000000000000000000000000000000000000000000000000000000000000008302000080850a00000000808203b642a056e81f171bcc55a6ff8345e692c0f86e5b48e01b996cadc001622fb5e363b421880102030405060708c0c0",
        "lastblockhash" : "0x39320fed68ce7c1c60025067ae8d9a80fef2ed8e64f8bd19ad73ba310a4616e6",
        "network" : "Homestead",
        "postState" : {
            "0x0f572e5295c57f15886f9b263e2f6d2d6c7b5ec6" : {
                "balance" : "0x0de0b6b3a764000a",
                "code" : "0x602a61f9de5359600055",
                "nonce" : "0x00",
                "storage" : {
                    "0x00" : "0xf9e0"
                }
            },
            "0x2adc25665018aa1fe0e6bc666dac8fc2697ff9ba" : {
                "balance" : "0x4563918244f4d61f",
                "code" : "",
                "nonce" : "0x00",
                "storage" : {
                }
            },
            "0xa94f5374fce5edbc8e2a8697c15331677e6ebf0b" : {
                "balance" : "0x63ffff29d7",
                "code" : "",
                "nonce" : "0x01",
                "storage" : {
                }
            }
        },
        "pre" : {
            "0x0f572e5295c57f15886f9b263e2f6d2d6c7b5ec6" : {
                "balance" : "0x0de0b6b3a7640000",
                "code" : "0x602a61f9de5359600055",
                "nonce" : "0x00",
                "storage" : {
                }
            },
            "0xa94f5374fce5edbc8e2a8697c15331677e6ebf0b" : {
                "balance" : "0x6400000000",
                "code" : "",
                "nonce" : "0x00",
                "storage" : {
                }
            }
        }
    }
}