{
    "mem64kb-32_d0g0v0_Byzantium" : {
        "_info" : {
            "comment" : "",
            "filledwith" : "cpp-1.3.0+commit.6e0ce939.Linux.g++",
            "lllcversion" : "Version: 0.4.18-develop.2017.9.25+commit.a72237f2.Linux.g++",
            "source" : "src/BlockchainTestsFiller/GeneralStateTests/stMemoryTest/mem64kb-32_d0g0v0Filler.json",
            "sourceHash" : "0147e77e9787680d33538224a985fc7247396dd08b079e8523b5d3e101f322d3"
        },
        "blocks" : [
            {
                "blockHeader" : {
                    "bloom" : "0x00000000000000000000000000000000000000000000000000000000000000000000000000000000000000000000000000000000000000000000000000000000000000000000000000000000000000000000000000000000000000000000000000000000000000000000000000000000000000000000000000000000000000000000000000000000000000000000000000000000000000000000000000000000000000000000000000000000000000000000000000000000000000000000000000000000000000000000000000000000000000000000000000000000000000000000000000000000000000000000000000000000000000000000000000000000",
                    "coinbase" : "0x2adc25665018aa1fe0e6bc666dac8fc2697ff9ba",
                    "difficulty" : "0x020000",
                    "extraData" : "",
                    "gasLimit" : "0x0a00000000",
                    "gasUsed" : "0x012448",
                    "hash" : "0x1eb26d64f3e18cd6a9517aed7cdf5adc14c316433d65d0289390e73ed9b661ea",
                    "mixHash" : "0x649743e1dcd44ef816e755a55b0197eadac384a7b1688149f332193e6b99ee82",
                    "nonce" : "0xb49ed45a6ecad956",
                    "number" : "0x01",
                    "parentHash" : "0x9f3f22e84a2049d5d79675328c645280fda98c6ca4eb3c7014db28fcfb039c68",
                    "receiptTrie" : "0xec59aa15ffb2c0934e699d37b4feaf3d36db7c272d9017780562473b38c978bd",
                    "stateRoot" : "0x4ce5caa624e627410f4e8ff4d35195a3d391411f4aa6e922780b393be50c3ebf",
                    "timestamp" : "0x03e8",
                    "transactionsTrie" : "0x81fcf490a12db64308a606cefa3e261e0854f8da7873d95e3ba2b97106d08e03",
                    "uncleHash" : "0x1dcc4de8dec75d7aab85b567b6ccd41ad312451b948a7413f0a142fd40d49347"
                },
                "rlp" : "0xf90263f901faa09f3f22e84a2049d5d79675328c645280fda98c6ca4eb3c7014db28fcfb039c68a01dcc4de8dec75d7aab85b567b6ccd41ad312451b948a7413f0a142fd40d49347942adc25665018aa1fe0e6bc666dac8fc2697ff9baa04ce5caa624e627410f4e8ff4d35195a3d391411f4aa6e922780b393be50c3ebfa081fcf490a12db64308a606cefa3e261e0854f8da7873d95e3ba2b97106d08e03a0ec59aa15ffb2c0934e699d37b4feaf3d36db7c272d9017780562473b38c978bdb90100000000000000000000000000000000000000000000000000000000000000000000000000000000000000000000000000000000000000000000000000000000000000000000000000000000000000000000000000000000000000000000000000000000000000000000000000000000000000000000000000000000000000000000000000000000000000000000000000000000000000000000000000000000000000000000000000000000000000000000000000000000000000000000000000000000000000000000000000000000000000000000000000000000000000000000000000000000000000000000000000000000000000000000000000000000008302000001850a00000000830124488203e880a0649743e1dcd44ef816e755a55b0197eadac384a7b1688149f332193e6b99ee8288b49ed45a6ecad956f863f861800184500018d8940f572e5295c57f15886f9b263e2f6d2d6c7b5ec60a801ba0a273bb9d7691b348937e6cc7b3d9c883f49c558ebf1962950ed380bfce169699a051e8cbfad048e722025f7b223eb5400ba6f5df788691add661a5ab8d6cdb2bffc0",
                "transactions" : [
                    {
                        "data" : "",
                        "gasLimit" : "0x500018d8",
                        "gasPrice" : "0x01",
                        "nonce" : "0x00",
                        "r" : "0xa273bb9d7691b348937e6cc7b3d9c883f49c558ebf1962950ed380bfce169699",
                        "s" : "0x51e8cbfad048e722025f7b223eb5400ba6f5df788691add661a5ab8d6cdb2bff",
                        "to" : "0x0f572e5295c57f15886f9b263e2f6d2d6c7b5ec6",
                        "v" : "0x1b",
                        "value" : "0x0a"
                    }
                ],
                "uncleHeaders" : [
                ]
            }
        ],
        "genesisBlockHeader" : {
            "bloom" : "0x00000000000000000000000000000000000000000000000000000000000000000000000000000000000000000000000000000000000000000000000000000000000000000000000000000000000000000000000000000000000000000000000000000000000000000000000000000000000000000000000000000000000000000000000000000000000000000000000000000000000000000000000000000000000000000000000000000000000000000000000000000000000000000000000000000000000000000000000000000000000000000000000000000000000000000000000000000000000000000000000000000000000000000000000000000000",
            "coinbase" : "0x2adc25665018aa1fe0e6bc666dac8fc2697ff9ba",
            "difficulty" : "0x020000",
            "extraData" : "0x42",
            "gasLimit" : "0x0a00000000",
            "gasUsed" : "0x00",
            "hash" : "0x9f3f22e84a2049d5d79675328c645280fda98c6ca4eb3c7014db28fcfb039c68",
            "mixHash" : "0x56e81f171bcc55a6ff8345e692c0f86e5b48e01b996cadc001622fb5e363b421",
            "nonce" : "0x0102030405060708",
            "number" : "0x00",
            "parentHash" : "0x0000000000000000000000000000000000000000000000000000000000000000",
            "receiptTrie" : "0x56e81f171bcc55a6ff8345e692c0f86e5b48e01b996cadc001622fb5e363b421",
            "stateRoot" : "0xea1623f7420c02b9df05a18ba5cd61ccbbf988f9ba226801ac049db6a663c9ea",
            "timestamp" : "0x03b6",
            "transactionsTrie" : "0x56e81f171bcc55a6ff8345e692c0f86e5b48e01b996cadc001622fb5e363b421",
            "uncleHash" : "0x1dcc4de8dec75d7aab85b567b6ccd41ad312451b948a7413f0a142fd40d49347"
        },
        "genesisRLP" : "0xf901fcf901f7a00000000000000000000000000000000000000000000000000000000000000000a01dcc4de8dec75d7aab85b567b6ccd41ad312451b948a7413f0a142fd40d49347942adc25665018aa1fe0e6bc666dac8fc2697ff9baa0ea1623f7420c02b9df05a18ba5cd61ccbbf988f9ba226801ac049db6a663c9eaa056e81f171bcc55a6ff8345e692c0f86e5b48e01b996cadc001622fb5e363b421a056e81f171bcc55a6ff8345e692c0f86e5b48e01b996cadc001622fb5e363b421b90100000000000000000000000000000000000000000000000000000000000000000000000000000000000000000000000000000000000000000000000000000000000000000000000000000000000000000000000000000000000000000000000000000000000000000000000000000000000000000000000000000000000000000000000000000000000000000000000000000000000000000000000000000000000000000000000000000000000000000000000000000000000000000000000000000000000000000000000000000000000000000000000000000000000000000000000000000000000000000000000000000000000000000000000000000000008302000080850a00000000808203b642a056e81f171bcc55a6ff8345e692c0f86e5b48e01b996cadc001622fb5e363b421880102030405060708c0c0",
        "lastblockhash" : "0x1eb26d64f3e18cd6a9517aed7cdf5adc14c316433d65d0289390e73ed9b661ea",
        "network" : "Byzantium",
        "postState" : {
            "0x0f572e5295c57f15886f9b263e2f6d2d6c7b5ec6" : {
                "balance" : "0x0de0b6b3a764000a",
                "code" : "0x602a61f9c05261f9c05160015559600055",
                "nonce" : "0x00",
                "storage" : {
                    "0x00" : "0xf9e0",
                    "0x01" : "0x2a"
                }
            },
            "0x2adc25665018aa1fe0e6bc666dac8fc2697ff9ba" : {
                "balance" : "0x29a2241af62d2448",
                "code" : "",
                "nonce" : "0x00",
                "storage" : {
                }
            },
            "0xa94f5374fce5edbc8e2a8697c15331677e6ebf0b" : {
                "balance" : "0x63fffedbae",
                "code" : "",
                "nonce" : "0x01",
                "storage" : {
                }
            }
        },
        "pre" : {
            "0x0f572e5295c57f15886f9b263e2f6d2d6c7b5ec6" : {
                "balance" : "0x0de0b6b3a7640000",
                "code" : "0x602a61f9c05261f9c05160015559600055",
                "nonce" : "0x00",
                "storage" : {
                }
            },
            "0xa94f5374fce5edbc8e2a8697c15331677e6ebf0b" : {
                "balance" : "0x6400000000",
                "code" : "",
                "nonce" : "0x00",
                "storage" : {
                }
            }
        }
    },
    "mem64kb-32_d0g0v0_EIP150" : {
        "_info" : {
            "comment" : "",
            "filledwith" : "cpp-1.3.0+commit.6e0ce939.Linux.g++",
            "lllcversion" : "Version: 0.4.18-develop.2017.9.25+commit.a72237f2.Linux.g++",
            "source" : "src/BlockchainTestsFiller/GeneralStateTests/stMemoryTest/mem64kb-32_d0g0v0Filler.json",
            "sourceHash" : "0147e77e9787680d33538224a985fc7247396dd08b079e8523b5d3e101f322d3"
        },
        "blocks" : [
            {
                "blockHeader" : {
                    "bloom" : "0x00000000000000000000000000000000000000000000000000000000000000000000000000000000000000000000000000000000000000000000000000000000000000000000000000000000000000000000000000000000000000000000000000000000000000000000000000000000000000000000000000000000000000000000000000000000000000000000000000000000000000000000000000000000000000000000000000000000000000000000000000000000000000000000000000000000000000000000000000000000000000000000000000000000000000000000000000000000000000000000000000000000000000000000000000000000",
                    "coinbase" : "0x2adc25665018aa1fe0e6bc666dac8fc2697ff9ba",
                    "difficulty" : "0x020000",
                    "extraData" : "",
                    "gasLimit" : "0x0a00000000",
                    "gasUsed" : "0x012448",
                    "hash" : "0xcbf5317d2f720539724aada53fd58c55d0617d767b32fd3515c00d4108073512",
                    "mixHash" : "0x653e151cf2ad4b3c72e77af06268de22cde00b26e9dc99413bdec9f628d21879",
                    "nonce" : "0xf5ec131834e261a4",
                    "number" : "0x01",
                    "parentHash" : "0x9f3f22e84a2049d5d79675328c645280fda98c6ca4eb3c7014db28fcfb039c68",
                    "receiptTrie" : "0xbf5c2b5116225c50d43b69c5f14f8ea902512d3b55fe05b4f54f876364880096",
                    "stateRoot" : "0x1216ea76b8911ba7cfffdea0a6b5a9de397ca4a6aa9a0ae4da41a60ee8029ae2",
                    "timestamp" : "0x03e8",
                    "transactionsTrie" : "0x81fcf490a12db64308a606cefa3e261e0854f8da7873d95e3ba2b97106d08e03",
                    "uncleHash" : "0x1dcc4de8dec75d7aab85b567b6ccd41ad312451b948a7413f0a142fd40d49347"
                },
                "rlp" : "0xf90263f901faa09f3f22e84a2049d5d79675328c645280fda98c6ca4eb3c7014db28fcfb039c68a01dcc4de8dec75d7aab85b567b6ccd41ad312451b948a7413f0a142fd40d49347942adc25665018aa1fe0e6bc666dac8fc2697ff9baa01216ea76b8911ba7cfffdea0a6b5a9de397ca4a6aa9a0ae4da41a60ee8029ae2a081fcf490a12db64308a606cefa3e261e0854f8da7873d95e3ba2b97106d08e03a0bf5c2b5116225c50d43b69c5f14f8ea902512d3b55fe05b4f54f876364880096b90100000000000000000000000000000000000000000000000000000000000000000000000000000000000000000000000000000000000000000000000000000000000000000000000000000000000000000000000000000000000000000000000000000000000000000000000000000000000000000000000000000000000000000000000000000000000000000000000000000000000000000000000000000000000000000000000000000000000000000000000000000000000000000000000000000000000000000000000000000000000000000000000000000000000000000000000000000000000000000000000000000000000000000000000000000000008302000001850a00000000830124488203e880a0653e151cf2ad4b3c72e77af06268de22cde00b26e9dc99413bdec9f628d2187988f5ec131834e261a4f863f861800184500018d8940f572e5295c57f15886f9b263e2f6d2d6c7b5ec60a801ba0a273bb9d7691b348937e6cc7b3d9c883f49c558ebf1962950ed380bfce169699a051e8cbfad048e722025f7b223eb5400ba6f5df788691add661a5ab8d6cdb2bffc0",
                "transactions" : [
                    {
                        "data" : "",
                        "gasLimit" : "0x500018d8",
                        "gasPrice" : "0x01",
                        "nonce" : "0x00",
                        "r" : "0xa273bb9d7691b348937e6cc7b3d9c883f49c558ebf1962950ed380bfce169699",
                        "s" : "0x51e8cbfad048e722025f7b223eb5400ba6f5df788691add661a5ab8d6cdb2bff",
                        "to" : "0x0f572e5295c57f15886f9b263e2f6d2d6c7b5ec6",
                        "v" : "0x1b",
                        "value" : "0x0a"
                    }
                ],
                "uncleHeaders" : [
                ]
            }
        ],
        "genesisBlockHeader" : {
            "bloom" : "0x00000000000000000000000000000000000000000000000000000000000000000000000000000000000000000000000000000000000000000000000000000000000000000000000000000000000000000000000000000000000000000000000000000000000000000000000000000000000000000000000000000000000000000000000000000000000000000000000000000000000000000000000000000000000000000000000000000000000000000000000000000000000000000000000000000000000000000000000000000000000000000000000000000000000000000000000000000000000000000000000000000000000000000000000000000000",
            "coinbase" : "0x2adc25665018aa1fe0e6bc666dac8fc2697ff9ba",
            "difficulty" : "0x020000",
            "extraData" : "0x42",
            "gasLimit" : "0x0a00000000",
            "gasUsed" : "0x00",
            "hash" : "0x9f3f22e84a2049d5d79675328c645280fda98c6ca4eb3c7014db28fcfb039c68",
            "mixHash" : "0x56e81f171bcc55a6ff8345e692c0f86e5b48e01b996cadc001622fb5e363b421",
            "nonce" : "0x0102030405060708",
            "number" : "0x00",
            "parentHash" : "0x0000000000000000000000000000000000000000000000000000000000000000",
            "receiptTrie" : "0x56e81f171bcc55a6ff8345e692c0f86e5b48e01b996cadc001622fb5e363b421",
            "stateRoot" : "0xea1623f7420c02b9df05a18ba5cd61ccbbf988f9ba226801ac049db6a663c9ea",
            "timestamp" : "0x03b6",
            "transactionsTrie" : "0x56e81f171bcc55a6ff8345e692c0f86e5b48e01b996cadc001622fb5e363b421",
            "uncleHash" : "0x1dcc4de8dec75d7aab85b567b6ccd41ad312451b948a7413f0a142fd40d49347"
        },
        "genesisRLP" : "0xf901fcf901f7a00000000000000000000000000000000000000000000000000000000000000000a01dcc4de8dec75d7aab85b567b6ccd41ad312451b948a7413f0a142fd40d49347942adc25665018aa1fe0e6bc666dac8fc2697ff9baa0ea1623f7420c02b9df05a18ba5cd61ccbbf988f9ba226801ac049db6a663c9eaa056e81f171bcc55a6ff8345e692c0f86e5b48e01b996cadc001622fb5e363b421a056e81f171bcc55a6ff8345e692c0f86e5b48e01b996cadc001622fb5e363b421b90100000000000000000000000000000000000000000000000000000000000000000000000000000000000000000000000000000000000000000000000000000000000000000000000000000000000000000000000000000000000000000000000000000000000000000000000000000000000000000000000000000000000000000000000000000000000000000000000000000000000000000000000000000000000000000000000000000000000000000000000000000000000000000000000000000000000000000000000000000000000000000000000000000000000000000000000000000000000000000000000000000000000000000000000000000000008302000080850a00000000808203b642a056e81f171bcc55a6ff8345e692c0f86e5b48e01b996cadc001622fb5e363b421880102030405060708c0c0",
        "lastblockhash" : "0xcbf5317d2f720539724aada53fd58c55d0617d767b32fd3515c00d4108073512",
        "network" : "EIP150",
        "postState" : {
            "0x0f572e5295c57f15886f9b263e2f6d2d6c7b5ec6" : {
                "balance" : "0x0de0b6b3a764000a",
                "code" : "0x602a61f9c05261f9c05160015559600055",
                "nonce" : "0x00",
                "storage" : {
                    "0x00" : "0xf9e0",
                    "0x01" : "0x2a"
                }
            },
            "0x2adc25665018aa1fe0e6bc666dac8fc2697ff9ba" : {
                "balance" : "0x4563918244f52448",
                "code" : "",
                "nonce" : "0x00",
                "storage" : {
                }
            },
            "0xa94f5374fce5edbc8e2a8697c15331677e6ebf0b" : {
                "balance" : "0x63fffedbae",
                "code" : "",
                "nonce" : "0x01",
                "storage" : {
                }
            }
        },
        "pre" : {
            "0x0f572e5295c57f15886f9b263e2f6d2d6c7b5ec6" : {
                "balance" : "0x0de0b6b3a7640000",
                "code" : "0x602a61f9c05261f9c05160015559600055",
                "nonce" : "0x00",
                "storage" : {
                }
            },
            "0xa94f5374fce5edbc8e2a8697c15331677e6ebf0b" : {
                "balance" : "0x6400000000",
                "code" : "",
                "nonce" : "0x00",
                "storage" : {
                }
            }
        }
    },
    "mem64kb-32_d0g0v0_EIP158" : {
        "_info" : {
            "comment" : "",
            "filledwith" : "cpp-1.3.0+commit.6e0ce939.Linux.g++",
            "lllcversion" : "Version: 0.4.18-develop.2017.9.25+commit.a72237f2.Linux.g++",
            "source" : "src/BlockchainTestsFiller/GeneralStateTests/stMemoryTest/mem64kb-32_d0g0v0Filler.json",
            "sourceHash" : "0147e77e9787680d33538224a985fc7247396dd08b079e8523b5d3e101f322d3"
        },
        "blocks" : [
            {
                "blockHeader" : {
                    "bloom" : "0x00000000000000000000000000000000000000000000000000000000000000000000000000000000000000000000000000000000000000000000000000000000000000000000000000000000000000000000000000000000000000000000000000000000000000000000000000000000000000000000000000000000000000000000000000000000000000000000000000000000000000000000000000000000000000000000000000000000000000000000000000000000000000000000000000000000000000000000000000000000000000000000000000000000000000000000000000000000000000000000000000000000000000000000000000000000",
                    "coinbase" : "0x2adc25665018aa1fe0e6bc666dac8fc2697ff9ba",
                    "difficulty" : "0x020000",
                    "extraData" : "",
                    "gasLimit" : "0x0a00000000",
                    "gasUsed" : "0x012448",
                    "hash" : "0xbd6d59f13655eace7293b3ee359579b141b83f2c8af2d6247409594485c4e633",
                    "mixHash" : "0xe4e79a0356eb299cdb2a11b28750fb7a5a46c1b356266618cb2b5d52bf852cbc",
                    "nonce" : "0xcceca979bbf79f1e",
                    "number" : "0x01",
                    "parentHash" : "0x9f3f22e84a2049d5d79675328c645280fda98c6ca4eb3c7014db28fcfb039c68",
                    "receiptTrie" : "0xbf5c2b5116225c50d43b69c5f14f8ea902512d3b55fe05b4f54f876364880096",
                    "stateRoot" : "0x1216ea76b8911ba7cfffdea0a6b5a9de397ca4a6aa9a0ae4da41a60ee8029ae2",
                    "timestamp" : "0x03e8",
                    "transactionsTrie" : "0x81fcf490a12db64308a606cefa3e261e0854f8da7873d95e3ba2b97106d08e03",
                    "uncleHash" : "0x1dcc4de8dec75d7aab85b567b6ccd41ad312451b948a7413f0a142fd40d49347"
                },
                "rlp" : "0xf90263f901faa09f3f22e84a2049d5d79675328c645280fda98c6ca4eb3c7014db28fcfb039c68a01dcc4de8dec75d7aab85b567b6ccd41ad312451b948a7413f0a142fd40d49347942adc25665018aa1fe0e6bc666dac8fc2697ff9baa01216ea76b8911ba7cfffdea0a6b5a9de397ca4a6aa9a0ae4da41a60ee8029ae2a081fcf490a12db64308a606cefa3e261e0854f8da7873d95e3ba2b97106d08e03a0bf5c2b5116225c50d43b69c5f14f8ea902512d3b55fe05b4f54f876364880096b90100000000000000000000000000000000000000000000000000000000000000000000000000000000000000000000000000000000000000000000000000000000000000000000000000000000000000000000000000000000000000000000000000000000000000000000000000000000000000000000000000000000000000000000000000000000000000000000000000000000000000000000000000000000000000000000000000000000000000000000000000000000000000000000000000000000000000000000000000000000000000000000000000000000000000000000000000000000000000000000000000000000000000000000000000000000008302000001850a00000000830124488203e880a0e4e79a0356eb299cdb2a11b28750fb7a5a46c1b356266618cb2b5d52bf852cbc88cceca979bbf79f1ef863f861800184500018d8940f572e5295c57f15886f9b263e2f6d2d6c7b5ec60a801ba0a273bb9d7691b348937e6cc7b3d9c883f49c558ebf1962950ed380bfce169699a051e8cbfad048e722025f7b223eb5400ba6f5df788691add661a5ab8d6cdb2bffc0",
                "transactions" : [
                    {
                        "data" : "",
                        "gasLimit" : "0x500018d8",
                        "gasPrice" : "0x01",
                        "nonce" : "0x00",
                        "r" : "0xa273bb9d7691b348937e6cc7b3d9c883f49c558ebf1962950ed380bfce169699",
                        "s" : "0x51e8cbfad048e722025f7b223eb5400ba6f5df788691add661a5ab8d6cdb2bff",
                        "to" : "0x0f572e5295c57f15886f9b263e2f6d2d6c7b5ec6",
                        "v" : "0x1b",
                        "value" : "0x0a"
                    }
                ],
                "uncleHeaders" : [
                ]
            }
        ],
        "genesisBlockHeader" : {
            "bloom" : "0x00000000000000000000000000000000000000000000000000000000000000000000000000000000000000000000000000000000000000000000000000000000000000000000000000000000000000000000000000000000000000000000000000000000000000000000000000000000000000000000000000000000000000000000000000000000000000000000000000000000000000000000000000000000000000000000000000000000000000000000000000000000000000000000000000000000000000000000000000000000000000000000000000000000000000000000000000000000000000000000000000000000000000000000000000000000",
            "coinbase" : "0x2adc25665018aa1fe0e6bc666dac8fc2697ff9ba",
            "difficulty" : "0x020000",
            "extraData" : "0x42",
            "gasLimit" : "0x0a00000000",
            "gasUsed" : "0x00",
            "hash" : "0x9f3f22e84a2049d5d79675328c645280fda98c6ca4eb3c7014db28fcfb039c68",
            "mixHash" : "0x56e81f171bcc55a6ff8345e692c0f86e5b48e01b996cadc001622fb5e363b421",
            "nonce" : "0x0102030405060708",
            "number" : "0x00",
            "parentHash" : "0x0000000000000000000000000000000000000000000000000000000000000000",
            "receiptTrie" : "0x56e81f171bcc55a6ff8345e692c0f86e5b48e01b996cadc001622fb5e363b421",
            "stateRoot" : "0xea1623f7420c02b9df05a18ba5cd61ccbbf988f9ba226801ac049db6a663c9ea",
            "timestamp" : "0x03b6",
            "transactionsTrie" : "0x56e81f171bcc55a6ff8345e692c0f86e5b48e01b996cadc001622fb5e363b421",
            "uncleHash" : "0x1dcc4de8dec75d7aab85b567b6ccd41ad312451b948a7413f0a142fd40d49347"
        },
        "genesisRLP" : "0xf901fcf901f7a00000000000000000000000000000000000000000000000000000000000000000a01dcc4de8dec75d7aab85b567b6ccd41ad312451b948a7413f0a142fd40d49347942adc25665018aa1fe0e6bc666dac8fc2697ff9baa0ea1623f7420c02b9df05a18ba5cd61ccbbf988f9ba226801ac049db6a663c9eaa056e81f171bcc55a6ff8345e692c0f86e5b48e01b996cadc001622fb5e363b421a056e81f171bcc55a6ff8345e692c0f86e5b48e01b996cadc001622fb5e363b421b90100000000000000000000000000000000000000000000000000000000000000000000000000000000000000000000000000000000000000000000000000000000000000000000000000000000000000000000000000000000000000000000000000000000000000000000000000000000000000000000000000000000000000000000000000000000000000000000000000000000000000000000000000000000000000000000000000000000000000000000000000000000000000000000000000000000000000000000000000000000000000000000000000000000000000000000000000000000000000000000000000000000000000000000000000000000008302000080850a00000000808203b642a056e81f171bcc55a6ff8345e692c0f86e5b48e01b996cadc001622fb5e363b421880102030405060708c0c0",
        "lastblockhash" : "0xbd6d59f13655eace7293b3ee359579b141b83f2c8af2d6247409594485c4e633",
        "network" : "EIP158",
        "postState" : {
            "0x0f572e5295c57f15886f9b263e2f6d2d6c7b5ec6" : {
                "balance" : "0x0de0b6b3a764000a",
                "code" : "0x602a61f9c05261f9c05160015559600055",
                "nonce" : "0x00",
                "storage" : {
                    "0x00" : "0xf9e0",
                    "0x01" : "0x2a"
                }
            },
            "0x2adc25665018aa1fe0e6bc666dac8fc2697ff9ba" : {
                "balance" : "0x4563918244f52448",
                "code" : "",
                "nonce" : "0x00",
                "storage" : {
                }
            },
            "0xa94f5374fce5edbc8e2a8697c15331677e6ebf0b" : {
                "balance" : "0x63fffedbae",
                "code" : "",
                "nonce" : "0x01",
                "storage" : {
                }
            }
        },
        "pre" : {
            "0x0f572e5295c57f15886f9b263e2f6d2d6c7b5ec6" : {
                "balance" : "0x0de0b6b3a7640000",
                "code" : "0x602a61f9c05261f9c05160015559600055",
                "nonce" : "0x00",
                "storage" : {
                }
            },
            "0xa94f5374fce5edbc8e2a8697c15331677e6ebf0b" : {
                "balance" : "0x6400000000",
                "code" : "",
                "nonce" : "0x00",
                "storage" : {
                }
            }
        }
    },
    "mem64kb-32_d0g0v0_Frontier" : {
        "_info" : {
            "comment" : "",
            "filledwith" : "cpp-1.3.0+commit.6e0ce939.Linux.g++",
            "lllcversion" : "Version: 0.4.18-develop.2017.9.25+commit.a72237f2.Linux.g++",
            "source" : "src/BlockchainTestsFiller/GeneralStateTests/stMemoryTest/mem64kb-32_d0g0v0Filler.json",
            "sourceHash" : "0147e77e9787680d33538224a985fc7247396dd08b079e8523b5d3e101f322d3"
        },
        "blocks" : [
            {
                "blockHeader" : {
                    "bloom" : "0x00000000000000000000000000000000000000000000000000000000000000000000000000000000000000000000000000000000000000000000000000000000000000000000000000000000000000000000000000000000000000000000000000000000000000000000000000000000000000000000000000000000000000000000000000000000000000000000000000000000000000000000000000000000000000000000000000000000000000000000000000000000000000000000000000000000000000000000000000000000000000000000000000000000000000000000000000000000000000000000000000000000000000000000000000000000",
                    "coinbase" : "0x2adc25665018aa1fe0e6bc666dac8fc2697ff9ba",
                    "difficulty" : "0x020000",
                    "extraData" : "",
                    "gasLimit" : "0x0a00000000",
                    "gasUsed" : "0x012448",
                    "hash" : "0x7a1e2b82f42d5d235e28d3aec2fc423ab38d5fdd93e676668f46d68c6973c8b0",
                    "mixHash" : "0x51b29711e58d6612eece0716c45e4ff063e928d1c98e3d519629c68e5345d94b",
                    "nonce" : "0x71e07f403631b994",
                    "number" : "0x01",
                    "parentHash" : "0x9f3f22e84a2049d5d79675328c645280fda98c6ca4eb3c7014db28fcfb039c68",
                    "receiptTrie" : "0xbf5c2b5116225c50d43b69c5f14f8ea902512d3b55fe05b4f54f876364880096",
                    "stateRoot" : "0x1216ea76b8911ba7cfffdea0a6b5a9de397ca4a6aa9a0ae4da41a60ee8029ae2",
                    "timestamp" : "0x03e8",
                    "transactionsTrie" : "0x81fcf490a12db64308a606cefa3e261e0854f8da7873d95e3ba2b97106d08e03",
                    "uncleHash" : "0x1dcc4de8dec75d7aab85b567b6ccd41ad312451b948a7413f0a142fd40d49347"
                },
                "rlp" : "0xf90263f901faa09f3f22e84a2049d5d79675328c645280fda98c6ca4eb3c7014db28fcfb039c68a01dcc4de8dec75d7aab85b567b6ccd41ad312451b948a7413f0a142fd40d49347942adc25665018aa1fe0e6bc666dac8fc2697ff9baa01216ea76b8911ba7cfffdea0a6b5a9de397ca4a6aa9a0ae4da41a60ee8029ae2a081fcf490a12db64308a606cefa3e261e0854f8da7873d95e3ba2b97106d08e03a0bf5c2b5116225c50d43b69c5f14f8ea902512d3b55fe05b4f54f876364880096b90100000000000000000000000000000000000000000000000000000000000000000000000000000000000000000000000000000000000000000000000000000000000000000000000000000000000000000000000000000000000000000000000000000000000000000000000000000000000000000000000000000000000000000000000000000000000000000000000000000000000000000000000000000000000000000000000000000000000000000000000000000000000000000000000000000000000000000000000000000000000000000000000000000000000000000000000000000000000000000000000000000000000000000000000000000000008302000001850a00000000830124488203e880a051b29711e58d6612eece0716c45e4ff063e928d1c98e3d519629c68e5345d94b8871e07f403631b994f863f861800184500018d8940f572e5295c57f15886f9b263e2f6d2d6c7b5ec60a801ba0a273bb9d7691b348937e6cc7b3d9c883f49c558ebf1962950ed380bfce169699a051e8cbfad048e722025f7b223eb5400ba6f5df788691add661a5ab8d6cdb2bffc0",
                "transactions" : [
                    {
                        "data" : "",
                        "gasLimit" : "0x500018d8",
                        "gasPrice" : "0x01",
                        "nonce" : "0x00",
                        "r" : "0xa273bb9d7691b348937e6cc7b3d9c883f49c558ebf1962950ed380bfce169699",
                        "s" : "0x51e8cbfad048e722025f7b223eb5400ba6f5df788691add661a5ab8d6cdb2bff",
                        "to" : "0x0f572e5295c57f15886f9b263e2f6d2d6c7b5ec6",
                        "v" : "0x1b",
                        "value" : "0x0a"
                    }
                ],
                "uncleHeaders" : [
                ]
            }
        ],
        "genesisBlockHeader" : {
            "bloom" : "0x00000000000000000000000000000000000000000000000000000000000000000000000000000000000000000000000000000000000000000000000000000000000000000000000000000000000000000000000000000000000000000000000000000000000000000000000000000000000000000000000000000000000000000000000000000000000000000000000000000000000000000000000000000000000000000000000000000000000000000000000000000000000000000000000000000000000000000000000000000000000000000000000000000000000000000000000000000000000000000000000000000000000000000000000000000000",
            "coinbase" : "0x2adc25665018aa1fe0e6bc666dac8fc2697ff9ba",
            "difficulty" : "0x020000",
            "extraData" : "0x42",
            "gasLimit" : "0x0a00000000",
            "gasUsed" : "0x00",
            "hash" : "0x9f3f22e84a2049d5d79675328c645280fda98c6ca4eb3c7014db28fcfb039c68",
            "mixHash" : "0x56e81f171bcc55a6ff8345e692c0f86e5b48e01b996cadc001622fb5e363b421",
            "nonce" : "0x0102030405060708",
            "number" : "0x00",
            "parentHash" : "0x0000000000000000000000000000000000000000000000000000000000000000",
            "receiptTrie" : "0x56e81f171bcc55a6ff8345e692c0f86e5b48e01b996cadc001622fb5e363b421",
            "stateRoot" : "0xea1623f7420c02b9df05a18ba5cd61ccbbf988f9ba226801ac049db6a663c9ea",
            "timestamp" : "0x03b6",
            "transactionsTrie" : "0x56e81f171bcc55a6ff8345e692c0f86e5b48e01b996cadc001622fb5e363b421",
            "uncleHash" : "0x1dcc4de8dec75d7aab85b567b6ccd41ad312451b948a7413f0a142fd40d49347"
        },
        "genesisRLP" : "0xf901fcf901f7a00000000000000000000000000000000000000000000000000000000000000000a01dcc4de8dec75d7aab85b567b6ccd41ad312451b948a7413f0a142fd40d49347942adc25665018aa1fe0e6bc666dac8fc2697ff9baa0ea1623f7420c02b9df05a18ba5cd61ccbbf988f9ba226801ac049db6a663c9eaa056e81f171bcc55a6ff8345e692c0f86e5b48e01b996cadc001622fb5e363b421a056e81f171bcc55a6ff8345e692c0f86e5b48e01b996cadc001622fb5e363b421b90100000000000000000000000000000000000000000000000000000000000000000000000000000000000000000000000000000000000000000000000000000000000000000000000000000000000000000000000000000000000000000000000000000000000000000000000000000000000000000000000000000000000000000000000000000000000000000000000000000000000000000000000000000000000000000000000000000000000000000000000000000000000000000000000000000000000000000000000000000000000000000000000000000000000000000000000000000000000000000000000000000000000000000000000000000000008302000080850a00000000808203b642a056e81f171bcc55a6ff8345e692c0f86e5b48e01b996cadc001622fb5e363b421880102030405060708c0c0",
        "lastblockhash" : "0x7a1e2b82f42d5d235e28d3aec2fc423ab38d5fdd93e676668f46d68c6973c8b0",
        "network" : "Frontier",
        "postState" : {
            "0x0f572e5295c57f15886f9b263e2f6d2d6c7b5ec6" : {
                "balance" : "0x0de0b6b3a764000a",
                "code" : "0x602a61f9c05261f9c05160015559600055",
                "nonce" : "0x00",
                "storage" : {
                    "0x00" : "0xf9e0",
                    "0x01" : "0x2a"
                }
            },
            "0x2adc25665018aa1fe0e6bc666dac8fc2697ff9ba" : {
                "balance" : "0x4563918244f52448",
                "code" : "",
                "nonce" : "0x00",
                "storage" : {
                }
            },
            "0xa94f5374fce5edbc8e2a8697c15331677e6ebf0b" : {
                "balance" : "0x63fffedbae",
                "code" : "",
                "nonce" : "0x01",
                "storage" : {
                }
            }
        },
        "pre" : {
            "0x0f572e5295c57f15886f9b263e2f6d2d6c7b5ec6" : {
                "balance" : "0x0de0b6b3a7640000",
                "code" : "0x602a61f9c05261f9c05160015559600055",
                "nonce" : "0x00",
                "storage" : {
                }
            },
            "0xa94f5374fce5edbc8e2a8697c15331677e6ebf0b" : {
                "balance" : "0x6400000000",
                "code" : "",
                "nonce" : "0x00",
                "storage" : {
                }
            }
        }
    },
    "mem64kb-32_d0g0v0_Homestead" : {
        "_info" : {
            "comment" : "",
            "filledwith" : "cpp-1.3.0+commit.6e0ce939.Linux.g++",
            "lllcversion" : "Version: 0.4.18-develop.2017.9.25+commit.a72237f2.Linux.g++",
            "source" : "src/BlockchainTestsFiller/GeneralStateTests/stMemoryTest/mem64kb-32_d0g0v0Filler.json",
            "sourceHash" : "0147e77e9787680d33538224a985fc7247396dd08b079e8523b5d3e101f322d3"
        },
        "blocks" : [
            {
                "blockHeader" : {
                    "bloom" : "0x00000000000000000000000000000000000000000000000000000000000000000000000000000000000000000000000000000000000000000000000000000000000000000000000000000000000000000000000000000000000000000000000000000000000000000000000000000000000000000000000000000000000000000000000000000000000000000000000000000000000000000000000000000000000000000000000000000000000000000000000000000000000000000000000000000000000000000000000000000000000000000000000000000000000000000000000000000000000000000000000000000000000000000000000000000000",
                    "coinbase" : "0x2adc25665018aa1fe0e6bc666dac8fc2697ff9ba",
                    "difficulty" : "0x020000",
                    "extraData" : "",
                    "gasLimit" : "0x0a00000000",
                    "gasUsed" : "0x012448",
                    "hash" : "0x52675c504dfa8fd0a5327e746d596e1220be188f5c6f237ce423b543d85d5ff7",
                    "mixHash" : "0x8e8c32c4ca039d604eb9a11ebc58095c621cf19bb2ea977932349dc561fee9c9",
                    "nonce" : "0x67d46cb72eda07dc",
                    "number" : "0x01",
                    "parentHash" : "0x9f3f22e84a2049d5d79675328c645280fda98c6ca4eb3c7014db28fcfb039c68",
                    "receiptTrie" : "0xbf5c2b5116225c50d43b69c5f14f8ea902512d3b55fe05b4f54f876364880096",
                    "stateRoot" : "0x1216ea76b8911ba7cfffdea0a6b5a9de397ca4a6aa9a0ae4da41a60ee8029ae2",
                    "timestamp" : "0x03e8",
                    "transactionsTrie" : "0x81fcf490a12db64308a606cefa3e261e0854f8da7873d95e3ba2b97106d08e03",
                    "uncleHash" : "0x1dcc4de8dec75d7aab85b567b6ccd41ad312451b948a7413f0a142fd40d49347"
                },
                "rlp" : "0xf90263f901faa09f3f22e84a2049d5d79675328c645280fda98c6ca4eb3c7014db28fcfb039c68a01dcc4de8dec75d7aab85b567b6ccd41ad312451b948a7413f0a142fd40d49347942adc25665018aa1fe0e6bc666dac8fc2697ff9baa01216ea76b8911ba7cfffdea0a6b5a9de397ca4a6aa9a0ae4da41a60ee8029ae2a081fcf490a12db64308a606cefa3e261e0854f8da7873d95e3ba2b97106d08e03a0bf5c2b5116225c50d43b69c5f14f8ea902512d3b55fe05b4f54f876364880096b90100000000000000000000000000000000000000000000000000000000000000000000000000000000000000000000000000000000000000000000000000000000000000000000000000000000000000000000000000000000000000000000000000000000000000000000000000000000000000000000000000000000000000000000000000000000000000000000000000000000000000000000000000000000000000000000000000000000000000000000000000000000000000000000000000000000000000000000000000000000000000000000000000000000000000000000000000000000000000000000000000000000000000000000000000000000008302000001850a00000000830124488203e880a08e8c32c4ca039d604eb9a11ebc58095c621cf19bb2ea977932349dc561fee9c98867d46cb72eda07dcf863f861800184500018d8940f572e5295c57f15886f9b263e2f6d2d6c7b5ec60a801ba0a273bb9d7691b348937e6cc7b3d9c883f49c558ebf1962950ed380bfce169699a051e8cbfad048e722025f7b223eb5400ba6f5df788691add661a5ab8d6cdb2bffc0",
                "transactions" : [
                    {
                        "data" : "",
                        "gasLimit" : "0x500018d8",
                        "gasPrice" : "0x01",
                        "nonce" : "0x00",
                        "r" : "0xa273bb9d7691b348937e6cc7b3d9c883f49c558ebf1962950ed380bfce169699",
                        "s" : "0x51e8cbfad048e722025f7b223eb5400ba6f5df788691add661a5ab8d6cdb2bff",
                        "to" : "0x0f572e5295c57f15886f9b263e2f6d2d6c7b5ec6",
                        "v" : "0x1b",
                        "value" : "0x0a"
                    }
                ],
                "uncleHeaders" : [
                ]
            }
        ],
        "genesisBlockHeader" : {
            "bloom" : "0x00000000000000000000000000000000000000000000000000000000000000000000000000000000000000000000000000000000000000000000000000000000000000000000000000000000000000000000000000000000000000000000000000000000000000000000000000000000000000000000000000000000000000000000000000000000000000000000000000000000000000000000000000000000000000000000000000000000000000000000000000000000000000000000000000000000000000000000000000000000000000000000000000000000000000000000000000000000000000000000000000000000000000000000000000000000",
            "coinbase" : "0x2adc25665018aa1fe0e6bc666dac8fc2697ff9ba",
            "difficulty" : "0x020000",
            "extraData" : "0x42",
            "gasLimit" : "0x0a00000000",
            "gasUsed" : "0x00",
            "hash" : "0x9f3f22e84a2049d5d79675328c645280fda98c6ca4eb3c7014db28fcfb039c68",
            "mixHash" : "0x56e81f171bcc55a6ff8345e692c0f86e5b48e01b996cadc001622fb5e363b421",
            "nonce" : "0x0102030405060708",
            "number" : "0x00",
            "parentHash" : "0x0000000000000000000000000000000000000000000000000000000000000000",
            "receiptTrie" : "0x56e81f171bcc55a6ff8345e692c0f86e5b48e01b996cadc001622fb5e363b421",
            "stateRoot" : "0xea1623f7420c02b9df05a18ba5cd61ccbbf988f9ba226801ac049db6a663c9ea",
            "timestamp" : "0x03b6",
            "transactionsTrie" : "0x56e81f171bcc55a6ff8345e692c0f86e5b48e01b996cadc001622fb5e363b421",
            "uncleHash" : "0x1dcc4de8dec75d7aab85b567b6ccd41ad312451b948a7413f0a142fd40d49347"
        },
        "genesisRLP" : "0xf901fcf901f7a00000000000000000000000000000000000000000000000000000000000000000a01dcc4de8dec75d7aab85b567b6ccd41ad312451b948a7413f0a142fd40d49347942adc25665018aa1fe0e6bc666dac8fc2697ff9baa0ea1623f7420c02b9df05a18ba5cd61ccbbf988f9ba226801ac049db6a663c9eaa056e81f171bcc55a6ff8345e692c0f86e5b48e01b996cadc001622fb5e363b421a056e81f171bcc55a6ff8345e692c0f86e5b48e01b996cadc001622fb5e363b421b90100000000000000000000000000000000000000000000000000000000000000000000000000000000000000000000000000000000000000000000000000000000000000000000000000000000000000000000000000000000000000000000000000000000000000000000000000000000000000000000000000000000000000000000000000000000000000000000000000000000000000000000000000000000000000000000000000000000000000000000000000000000000000000000000000000000000000000000000000000000000000000000000000000000000000000000000000000000000000000000000000000000000000000000000000000000008302000080850a00000000808203b642a056e81f171bcc55a6ff8345e692c0f86e5b48e01b996cadc001622fb5e363b421880102030405060708c0c0",
        "lastblockhash" : "0x52675c504dfa8fd0a5327e746d596e1220be188f5c6f237ce423b543d85d5ff7",
        "network" : "Homestead",
        "postState" : {
            "0x0f572e5295c57f15886f9b263e2f6d2d6c7b5ec6" : {
                "balance" : "0x0de0b6b3a764000a",
                "code" : "0x602a61f9c05261f9c05160015559600055",
                "nonce" : "0x00",
                "storage" : {
                    "0x00" : "0xf9e0",
                    "0x01" : "0x2a"
                }
            },
            "0x2adc25665018aa1fe0e6bc666dac8fc2697ff9ba" : {
                "balance" : "0x4563918244f52448",
                "code" : "",
                "nonce" : "0x00",
                "storage" : {
                }
            },
            "0xa94f5374fce5edbc8e2a8697c15331677e6ebf0b" : {
                "balance" : "0x63fffedbae",
                "code" : "",
                "nonce" : "0x01",
                "storage" : {
                }
            }
        },
        "pre" : {
            "0x0f572e5295c57f15886f9b263e2f6d2d6c7b5ec6" : {
                "balance" : "0x0de0b6b3a7640000",
                "code" : "0x602a61f9c05261f9c05160015559600055",
                "nonce" : "0x00",
                "storage" : {
                }
            },
            "0xa94f5374fce5edbc8e2a8697c15331677e6ebf0b" : {
                "balance" : "0x6400000000",
                "code" : "",
                "nonce" : "0x00",
                "storage" : {
                }
            }
        }
    }
}