{
    "mload16bitBound_d0g0v0_Byzantium" : {
        "_info" : {
            "comment" : "",
            "filledwith" : "cpp-1.3.0+commit.6e0ce939.Linux.g++",
            "lllcversion" : "Version: 0.4.18-develop.2017.9.25+commit.a72237f2.Linux.g++",
            "source" : "src/BlockchainTestsFiller/GeneralStateTests/stMemoryTest/mload16bitBound_d0g0v0Filler.json",
            "sourceHash" : "573454e754e0802786b307eb4cf3728c51a28b83ff9fbb0f5efe35dc9198db8b"
        },
        "blocks" : [
            {
                "blockHeader" : {
                    "bloom" : "0x00000000000000000000000000000000000000000000000000000000000000000000000000000000000000000000000000000000000000000000000000000000000000000000000000000000000000000000000000000000000000000000000000000000000000000000000000000000000000000000000000000000000000000000000000000000000000000000000000000000000000000000000000000000000000000000000000000000000000000000000000000000000000000000000000000000000000000000000000000000000000000000000000000000000000000000000000000000000000000000000000000000000000000000000000000000",
                    "coinbase" : "0x2adc25665018aa1fe0e6bc666dac8fc2697ff9ba",
                    "difficulty" : "0x020000",
                    "extraData" : "",
                    "gasLimit" : "0x10000804025c",
                    "gasUsed" : "0x9da4",
                    "hash" : "0x6424d03ca46da1ee5efadee772fd6e71090b16c55cca5a6ae996f4b6616ef347",
                    "mixHash" : "0x44a143f8c9b3a6603e63878dc6fadf7f928316c4b52bb4f4b615af7a070ccfcb",
                    "nonce" : "0x2fbe6cb3a483f8f5",
                    "number" : "0x01",
                    "parentHash" : "0x01db3e48429024a3b1bc933060013fbf25856beffa1f442a4b84da518e01a0ab",
                    "receiptTrie" : "0xe0e174e59e593ffbe91307b938845623a33ee7d73fe81ef3d32fc773265def0d",
                    "stateRoot" : "0xe268dafb1b4011471a055cc48df4a021a3d955d5b8e2d6b01b65928ffe23b839",
                    "timestamp" : "0x03e8",
                    "transactionsTrie" : "0x88d6ef5af056f0601897b4e7cc21208055807b114910925d4b48c7b484727400",
                    "uncleHash" : "0x1dcc4de8dec75d7aab85b567b6ccd41ad312451b948a7413f0a142fd40d49347"
                },
                "rlp" : "0xf90265f901faa001db3e48429024a3b1bc933060013fbf25856beffa1f442a4b84da518e01a0aba01dcc4de8dec75d7aab85b567b6ccd41ad312451b948a7413f0a142fd40d49347942adc25665018aa1fe0e6bc666dac8fc2697ff9baa0e268dafb1b4011471a055cc48df4a021a3d955d5b8e2d6b01b65928ffe23b839a088d6ef5af056f0601897b4e7cc21208055807b114910925d4b48c7b484727400a0e0e174e59e593ffbe91307b938845623a33ee7d73fe81ef3d32fc773265def0db901000000000000000000000000000000000000000000000000000000000000000000000000000000000000000000000000000000000000000000000000000000000000000000000000000000000000000000000000000000000000000000000000000000000000000000000000000000000000000000000000000000000000000000000000000000000000000000000000000000000000000000000000000000000000000000000000000000000000000000000000000000000000000000000000000000000000000000000000000000000000000000000000000000000000000000000000000000000000000000000000000000000000000000000000000000000083020000018610000804025c829da48203e880a044a143f8c9b3a6603e63878dc6fadf7f928316c4b52bb4f4b615af7a070ccfcb882fbe6cb3a483f8f5f865f86380018610000804025c940f572e5295c57f15886f9b263e2f6d2d6c7b5ec60a801ba072be3b0b917e373137dcaefae958cf33926e924c57f8d4d323b09e0bfc5d5c0ea01fcee44156d51a5b28c2e3d17286ccf57344915b401f914c1a53eab24e815e1cc0",
                "transactions" : [
                    {
                        "data" : "",
                        "gasLimit" : "0x10000804025c",
                        "gasPrice" : "0x01",
                        "nonce" : "0x00",
                        "r" : "0x72be3b0b917e373137dcaefae958cf33926e924c57f8d4d323b09e0bfc5d5c0e",
                        "s" : "0x1fcee44156d51a5b28c2e3d17286ccf57344915b401f914c1a53eab24e815e1c",
                        "to" : "0x0f572e5295c57f15886f9b263e2f6d2d6c7b5ec6",
                        "v" : "0x1b",
                        "value" : "0x0a"
                    }
                ],
                "uncleHeaders" : [
                ]
            }
        ],
        "genesisBlockHeader" : {
            "bloom" : "0x00000000000000000000000000000000000000000000000000000000000000000000000000000000000000000000000000000000000000000000000000000000000000000000000000000000000000000000000000000000000000000000000000000000000000000000000000000000000000000000000000000000000000000000000000000000000000000000000000000000000000000000000000000000000000000000000000000000000000000000000000000000000000000000000000000000000000000000000000000000000000000000000000000000000000000000000000000000000000000000000000000000000000000000000000000000",
            "coinbase" : "0x2adc25665018aa1fe0e6bc666dac8fc2697ff9ba",
            "difficulty" : "0x020000",
            "extraData" : "0x42",
            "gasLimit" : "0x10000804025c",
            "gasUsed" : "0x00",
            "hash" : "0x01db3e48429024a3b1bc933060013fbf25856beffa1f442a4b84da518e01a0ab",
            "mixHash" : "0x56e81f171bcc55a6ff8345e692c0f86e5b48e01b996cadc001622fb5e363b421",
            "nonce" : "0x0102030405060708",
            "number" : "0x00",
            "parentHash" : "0x0000000000000000000000000000000000000000000000000000000000000000",
            "receiptTrie" : "0x56e81f171bcc55a6ff8345e692c0f86e5b48e01b996cadc001622fb5e363b421",
            "stateRoot" : "0x6c92f23f39edd92600b5713930185a6bb453646f8d282cca90df433bd7fca8cf",
            "timestamp" : "0x03b6",
            "transactionsTrie" : "0x56e81f171bcc55a6ff8345e692c0f86e5b48e01b996cadc001622fb5e363b421",
            "uncleHash" : "0x1dcc4de8dec75d7aab85b567b6ccd41ad312451b948a7413f0a142fd40d49347"
        },
        "genesisRLP" : "0xf901fdf901f8a00000000000000000000000000000000000000000000000000000000000000000a01dcc4de8dec75d7aab85b567b6ccd41ad312451b948a7413f0a142fd40d49347942adc25665018aa1fe0e6bc666dac8fc2697ff9baa06c92f23f39edd92600b5713930185a6bb453646f8d282cca90df433bd7fca8cfa056e81f171bcc55a6ff8345e692c0f86e5b48e01b996cadc001622fb5e363b421a056e81f171bcc55a6ff8345e692c0f86e5b48e01b996cadc001622fb5e363b421b901000000000000000000000000000000000000000000000000000000000000000000000000000000000000000000000000000000000000000000000000000000000000000000000000000000000000000000000000000000000000000000000000000000000000000000000000000000000000000000000000000000000000000000000000000000000000000000000000000000000000000000000000000000000000000000000000000000000000000000000000000000000000000000000000000000000000000000000000000000000000000000000000000000000000000000000000000000000000000000000000000000000000000000000000000000000083020000808610000804025c808203b642a056e81f171bcc55a6ff8345e692c0f86e5b48e01b996cadc001622fb5e363b421880102030405060708c0c0",
        "lastblockhash" : "0x6424d03ca46da1ee5efadee772fd6e71090b16c55cca5a6ae996f4b6616ef347",
        "network" : "Byzantium",
        "postState" : {
            "0x0f572e5295c57f15886f9b263e2f6d2d6c7b5ec6" : {
                "balance" : "0x0de0b6b3a764000a",
                "code" : "0x6201000051600155",
                "nonce" : "0x00",
                "storage" : {
                }
            },
            "0x2adc25665018aa1fe0e6bc666dac8fc2697ff9ba" : {
                "balance" : "0x29a2241af62c9da4",
                "code" : "",
                "nonce" : "0x00",
                "storage" : {
                }
            },
            "0xa94f5374fce5edbc8e2a8697c15331677e6ebf0b" : {
                "balance" : "0xa000502779ea",
                "code" : "",
                "nonce" : "0x01",
                "storage" : {
                }
            }
        },
        "pre" : {
            "0x0f572e5295c57f15886f9b263e2f6d2d6c7b5ec6" : {
                "balance" : "0x0de0b6b3a7640000",
                "code" : "0x6201000051600155",
                "nonce" : "0x00",
                "storage" : {
                }
            },
            "0xa94f5374fce5edbc8e2a8697c15331677e6ebf0b" : {
                "balance" : "0xa00050281798",
                "code" : "",
                "nonce" : "0x00",
                "storage" : {
                }
            }
        }
    },
    "mload16bitBound_d0g0v0_EIP150" : {
        "_info" : {
            "comment" : "",
            "filledwith" : "cpp-1.3.0+commit.6e0ce939.Linux.g++",
            "lllcversion" : "Version: 0.4.18-develop.2017.9.25+commit.a72237f2.Linux.g++",
            "source" : "src/BlockchainTestsFiller/GeneralStateTests/stMemoryTest/mload16bitBound_d0g0v0Filler.json",
            "sourceHash" : "573454e754e0802786b307eb4cf3728c51a28b83ff9fbb0f5efe35dc9198db8b"
        },
        "blocks" : [
            {
                "blockHeader" : {
                    "bloom" : "0x00000000000000000000000000000000000000000000000000000000000000000000000000000000000000000000000000000000000000000000000000000000000000000000000000000000000000000000000000000000000000000000000000000000000000000000000000000000000000000000000000000000000000000000000000000000000000000000000000000000000000000000000000000000000000000000000000000000000000000000000000000000000000000000000000000000000000000000000000000000000000000000000000000000000000000000000000000000000000000000000000000000000000000000000000000000",
                    "coinbase" : "0x2adc25665018aa1fe0e6bc666dac8fc2697ff9ba",
                    "difficulty" : "0x020000",
                    "extraData" : "",
                    "gasLimit" : "0x10000804025c",
                    "gasUsed" : "0x9da4",
                    "hash" : "0x83d2667479ea85140a303c810ad135f5733a3ceac40886292925421d03c43a23",
                    "mixHash" : "0xac3934b79ca248acdfef74e31d8d98f9872802a56a1cc5ab2711148d1276779a",
                    "nonce" : "0xe46f557dff6465e0",
                    "number" : "0x01",
                    "parentHash" : "0x01db3e48429024a3b1bc933060013fbf25856beffa1f442a4b84da518e01a0ab",
                    "receiptTrie" : "0xa51ae302d83c38e547c132b5ad8541bc3261ed442d9919152bd5eb1b03a3dccf",
                    "stateRoot" : "0x580c635d0b7f317d133f14f77e0f039e116ad48408c069e9d4f68b10471187a3",
                    "timestamp" : "0x03e8",
                    "transactionsTrie" : "0x88d6ef5af056f0601897b4e7cc21208055807b114910925d4b48c7b484727400",
                    "uncleHash" : "0x1dcc4de8dec75d7aab85b567b6ccd41ad312451b948a7413f0a142fd40d49347"
                },
                "rlp" : "0xf90265f901faa001db3e48429024a3b1bc933060013fbf25856beffa1f442a4b84da518e01a0aba01dcc4de8dec75d7aab85b567b6ccd41ad312451b948a7413f0a142fd40d49347942adc25665018aa1fe0e6bc666dac8fc2697ff9baa0580c635d0b7f317d133f14f77e0f039e116ad48408c069e9d4f68b10471187a3a088d6ef5af056f0601897b4e7cc21208055807b114910925d4b48c7b484727400a0a51ae302d83c38e547c132b5ad8541bc3261ed442d9919152bd5eb1b03a3dccfb901000000000000000000000000000000000000000000000000000000000000000000000000000000000000000000000000000000000000000000000000000000000000000000000000000000000000000000000000000000000000000000000000000000000000000000000000000000000000000000000000000000000000000000000000000000000000000000000000000000000000000000000000000000000000000000000000000000000000000000000000000000000000000000000000000000000000000000000000000000000000000000000000000000000000000000000000000000000000000000000000000000000000000000000000000000000083020000018610000804025c829da48203e880a0ac3934b79ca248acdfef74e31d8d98f9872802a56a1cc5ab2711148d1276779a88e46f557dff6465e0f865f86380018610000804025c940f572e5295c57f15886f9b263e2f6d2d6c7b5ec60a801ba072be3b0b917e373137dcaefae958cf33926e924c57f8d4d323b09e0bfc5d5c0ea01fcee44156d51a5b28c2e3d17286ccf57344915b401f914c1a53eab24e815e1cc0",
                "transactions" : [
                    {
                        "data" : "",
                        "gasLimit" : "0x10000804025c",
                        "gasPrice" : "0x01",
                        "nonce" : "0x00",
                        "r" : "0x72be3b0b917e373137dcaefae958cf33926e924c57f8d4d323b09e0bfc5d5c0e",
                        "s" : "0x1fcee44156d51a5b28c2e3d17286ccf57344915b401f914c1a53eab24e815e1c",
                        "to" : "0x0f572e5295c57f15886f9b263e2f6d2d6c7b5ec6",
                        "v" : "0x1b",
                        "value" : "0x0a"
                    }
                ],
                "uncleHeaders" : [
                ]
            }
        ],
        "genesisBlockHeader" : {
            "bloom" : "0x00000000000000000000000000000000000000000000000000000000000000000000000000000000000000000000000000000000000000000000000000000000000000000000000000000000000000000000000000000000000000000000000000000000000000000000000000000000000000000000000000000000000000000000000000000000000000000000000000000000000000000000000000000000000000000000000000000000000000000000000000000000000000000000000000000000000000000000000000000000000000000000000000000000000000000000000000000000000000000000000000000000000000000000000000000000",
            "coinbase" : "0x2adc25665018aa1fe0e6bc666dac8fc2697ff9ba",
            "difficulty" : "0x020000",
            "extraData" : "0x42",
            "gasLimit" : "0x10000804025c",
            "gasUsed" : "0x00",
            "hash" : "0x01db3e48429024a3b1bc933060013fbf25856beffa1f442a4b84da518e01a0ab",
            "mixHash" : "0x56e81f171bcc55a6ff8345e692c0f86e5b48e01b996cadc001622fb5e363b421",
            "nonce" : "0x0102030405060708",
            "number" : "0x00",
            "parentHash" : "0x0000000000000000000000000000000000000000000000000000000000000000",
            "receiptTrie" : "0x56e81f171bcc55a6ff8345e692c0f86e5b48e01b996cadc001622fb5e363b421",
            "stateRoot" : "0x6c92f23f39edd92600b5713930185a6bb453646f8d282cca90df433bd7fca8cf",
            "timestamp" : "0x03b6",
            "transactionsTrie" : "0x56e81f171bcc55a6ff8345e692c0f86e5b48e01b996cadc001622fb5e363b421",
            "uncleHash" : "0x1dcc4de8dec75d7aab85b567b6ccd41ad312451b948a7413f0a142fd40d49347"
        },
        "genesisRLP" : "0xf901fdf901f8a00000000000000000000000000000000000000000000000000000000000000000a01dcc4de8dec75d7aab85b567b6ccd41ad312451b948a7413f0a142fd40d49347942adc25665018aa1fe0e6bc666dac8fc2697ff9baa06c92f23f39edd92600b5713930185a6bb453646f8d282cca90df433bd7fca8cfa056e81f171bcc55a6ff8345e692c0f86e5b48e01b996cadc001622fb5e363b421a056e81f171bcc55a6ff8345e692c0f86e5b48e01b996cadc001622fb5e363b421b901000000000000000000000000000000000000000000000000000000000000000000000000000000000000000000000000000000000000000000000000000000000000000000000000000000000000000000000000000000000000000000000000000000000000000000000000000000000000000000000000000000000000000000000000000000000000000000000000000000000000000000000000000000000000000000000000000000000000000000000000000000000000000000000000000000000000000000000000000000000000000000000000000000000000000000000000000000000000000000000000000000000000000000000000000000000083020000808610000804025c808203b642a056e81f171bcc55a6ff8345e692c0f86e5b48e01b996cadc001622fb5e363b421880102030405060708c0c0",
        "lastblockhash" : "0x83d2667479ea85140a303c810ad135f5733a3ceac40886292925421d03c43a23",
        "network" : "EIP150",
        "postState" : {
            "0x0f572e5295c57f15886f9b263e2f6d2d6c7b5ec6" : {
                "balance" : "0x0de0b6b3a764000a",
                "code" : "0x6201000051600155",
                "nonce" : "0x00",
                "storage" : {
                }
            },
            "0x2adc25665018aa1fe0e6bc666dac8fc2697ff9ba" : {
                "balance" : "0x4563918244f49da4",
                "code" : "",
                "nonce" : "0x00",
                "storage" : {
                }
            },
            "0xa94f5374fce5edbc8e2a8697c15331677e6ebf0b" : {
                "balance" : "0xa000502779ea",
                "code" : "",
                "nonce" : "0x01",
                "storage" : {
                }
            }
        },
        "pre" : {
            "0x0f572e5295c57f15886f9b263e2f6d2d6c7b5ec6" : {
                "balance" : "0x0de0b6b3a7640000",
                "code" : "0x6201000051600155",
                "nonce" : "0x00",
                "storage" : {
                }
            },
            "0xa94f5374fce5edbc8e2a8697c15331677e6ebf0b" : {
                "balance" : "0xa00050281798",
                "code" : "",
                "nonce" : "0x00",
                "storage" : {
                }
            }
        }
    },
    "mload16bitBound_d0g0v0_EIP158" : {
        "_info" : {
            "comment" : "",
            "filledwith" : "cpp-1.3.0+commit.6e0ce939.Linux.g++",
            "lllcversion" : "Version: 0.4.18-develop.2017.9.25+commit.a72237f2.Linux.g++",
            "source" : "src/BlockchainTestsFiller/GeneralStateTests/stMemoryTest/mload16bitBound_d0g0v0Filler.json",
            "sourceHash" : "573454e754e0802786b307eb4cf3728c51a28b83ff9fbb0f5efe35dc9198db8b"
        },
        "blocks" : [
            {
                "blockHeader" : {
                    "bloom" : "0x00000000000000000000000000000000000000000000000000000000000000000000000000000000000000000000000000000000000000000000000000000000000000000000000000000000000000000000000000000000000000000000000000000000000000000000000000000000000000000000000000000000000000000000000000000000000000000000000000000000000000000000000000000000000000000000000000000000000000000000000000000000000000000000000000000000000000000000000000000000000000000000000000000000000000000000000000000000000000000000000000000000000000000000000000000000",
                    "coinbase" : "0x2adc25665018aa1fe0e6bc666dac8fc2697ff9ba",
                    "difficulty" : "0x020000",
                    "extraData" : "",
                    "gasLimit" : "0x10000804025c",
                    "gasUsed" : "0x9da4",
                    "hash" : "0xa4437425425f560c09ddcdc9cd512e20d5502306bd6d00c61af14093bab6cb86",
                    "mixHash" : "0x96fc7bc9adbd3bc04d94749e3c902587b230e72c04009db1e5c40ee0d71153ad",
                    "nonce" : "0xa79d7abe0119ceef",
                    "number" : "0x01",
                    "parentHash" : "0x01db3e48429024a3b1bc933060013fbf25856beffa1f442a4b84da518e01a0ab",
                    "receiptTrie" : "0xa51ae302d83c38e547c132b5ad8541bc3261ed442d9919152bd5eb1b03a3dccf",
                    "stateRoot" : "0x580c635d0b7f317d133f14f77e0f039e116ad48408c069e9d4f68b10471187a3",
                    "timestamp" : "0x03e8",
                    "transactionsTrie" : "0x88d6ef5af056f0601897b4e7cc21208055807b114910925d4b48c7b484727400",
                    "uncleHash" : "0x1dcc4de8dec75d7aab85b567b6ccd41ad312451b948a7413f0a142fd40d49347"
                },
                "rlp" : "0xf90265f901faa001db3e48429024a3b1bc933060013fbf25856beffa1f442a4b84da518e01a0aba01dcc4de8dec75d7aab85b567b6ccd41ad312451b948a7413f0a142fd40d49347942adc25665018aa1fe0e6bc666dac8fc2697ff9baa0580c635d0b7f317d133f14f77e0f039e116ad48408c069e9d4f68b10471187a3a088d6ef5af056f0601897b4e7cc21208055807b114910925d4b48c7b484727400a0a51ae302d83c38e547c132b5ad8541bc3261ed442d9919152bd5eb1b03a3dccfb901000000000000000000000000000000000000000000000000000000000000000000000000000000000000000000000000000000000000000000000000000000000000000000000000000000000000000000000000000000000000000000000000000000000000000000000000000000000000000000000000000000000000000000000000000000000000000000000000000000000000000000000000000000000000000000000000000000000000000000000000000000000000000000000000000000000000000000000000000000000000000000000000000000000000000000000000000000000000000000000000000000000000000000000000000000000083020000018610000804025c829da48203e880a096fc7bc9adbd3bc04d94749e3c902587b230e72c04009db1e5c40ee0d71153ad88a79d7abe0119ceeff865f86380018610000804025c940f572e5295c57f15886f9b263e2f6d2d6c7b5ec60a801ba072be3b0b917e373137dcaefae958cf33926e924c57f8d4d323b09e0bfc5d5c0ea01fcee44156d51a5b28c2e3d17286ccf57344915b401f914c1a53eab24e815e1cc0",
                "transactions" : [
                    {
                        "data" : "",
                        "gasLimit" : "0x10000804025c",
                        "gasPrice" : "0x01",
                        "nonce" : "0x00",
                        "r" : "0x72be3b0b917e373137dcaefae958cf33926e924c57f8d4d323b09e0bfc5d5c0e",
                        "s" : "0x1fcee44156d51a5b28c2e3d17286ccf57344915b401f914c1a53eab24e815e1c",
                        "to" : "0x0f572e5295c57f15886f9b263e2f6d2d6c7b5ec6",
                        "v" : "0x1b",
                        "value" : "0x0a"
                    }
                ],
                "uncleHeaders" : [
                ]
            }
        ],
        "genesisBlockHeader" : {
            "bloom" : "0x00000000000000000000000000000000000000000000000000000000000000000000000000000000000000000000000000000000000000000000000000000000000000000000000000000000000000000000000000000000000000000000000000000000000000000000000000000000000000000000000000000000000000000000000000000000000000000000000000000000000000000000000000000000000000000000000000000000000000000000000000000000000000000000000000000000000000000000000000000000000000000000000000000000000000000000000000000000000000000000000000000000000000000000000000000000",
            "coinbase" : "0x2adc25665018aa1fe0e6bc666dac8fc2697ff9ba",
            "difficulty" : "0x020000",
            "extraData" : "0x42",
            "gasLimit" : "0x10000804025c",
            "gasUsed" : "0x00",
            "hash" : "0x01db3e48429024a3b1bc933060013fbf25856beffa1f442a4b84da518e01a0ab",
            "mixHash" : "0x56e81f171bcc55a6ff8345e692c0f86e5b48e01b996cadc001622fb5e363b421",
            "nonce" : "0x0102030405060708",
            "number" : "0x00",
            "parentHash" : "0x0000000000000000000000000000000000000000000000000000000000000000",
            "receiptTrie" : "0x56e81f171bcc55a6ff8345e692c0f86e5b48e01b996cadc001622fb5e363b421",
            "stateRoot" : "0x6c92f23f39edd92600b5713930185a6bb453646f8d282cca90df433bd7fca8cf",
            "timestamp" : "0x03b6",
            "transactionsTrie" : "0x56e81f171bcc55a6ff8345e692c0f86e5b48e01b996cadc001622fb5e363b421",
            "uncleHash" : "0x1dcc4de8dec75d7aab85b567b6ccd41ad312451b948a7413f0a142fd40d49347"
        },
        "genesisRLP" : "0xf901fdf901f8a00000000000000000000000000000000000000000000000000000000000000000a01dcc4de8dec75d7aab85b567b6ccd41ad312451b948a7413f0a142fd40d49347942adc25665018aa1fe0e6bc666dac8fc2697ff9baa06c92f23f39edd92600b5713930185a6bb453646f8d282cca90df433bd7fca8cfa056e81f171bcc55a6ff8345e692c0f86e5b48e01b996cadc001622fb5e363b421a056e81f171bcc55a6ff8345e692c0f86e5b48e01b996cadc001622fb5e363b421b901000000000000000000000000000000000000000000000000000000000000000000000000000000000000000000000000000000000000000000000000000000000000000000000000000000000000000000000000000000000000000000000000000000000000000000000000000000000000000000000000000000000000000000000000000000000000000000000000000000000000000000000000000000000000000000000000000000000000000000000000000000000000000000000000000000000000000000000000000000000000000000000000000000000000000000000000000000000000000000000000000000000000000000000000000000000083020000808610000804025c808203b642a056e81f171bcc55a6ff8345e692c0f86e5b48e01b996cadc001622fb5e363b421880102030405060708c0c0",
        "lastblockhash" : "0xa4437425425f560c09ddcdc9cd512e20d5502306bd6d00c61af14093bab6cb86",
        "network" : "EIP158",
        "postState" : {
            "0x0f572e5295c57f15886f9b263e2f6d2d6c7b5ec6" : {
                "balance" : "0x0de0b6b3a764000a",
                "code" : "0x6201000051600155",
                "nonce" : "0x00",
                "storage" : {
                }
            },
            "0x2adc25665018aa1fe0e6bc666dac8fc2697ff9ba" : {
                "balance" : "0x4563918244f49da4",
                "code" : "",
                "nonce" : "0x00",
                "storage" : {
                }
            },
            "0xa94f5374fce5edbc8e2a8697c15331677e6ebf0b" : {
                "balance" : "0xa000502779ea",
                "code" : "",
                "nonce" : "0x01",
                "storage" : {
                }
            }
        },
        "pre" : {
            "0x0f572e5295c57f15886f9b263e2f6d2d6c7b5ec6" : {
                "balance" : "0x0de0b6b3a7640000",
                "code" : "0x6201000051600155",
                "nonce" : "0x00",
                "storage" : {
                }
            },
            "0xa94f5374fce5edbc8e2a8697c15331677e6ebf0b" : {
                "balance" : "0xa00050281798",
                "code" : "",
                "nonce" : "0x00",
                "storage" : {
                }
            }
        }
    },
    "mload16bitBound_d0g0v0_Frontier" : {
        "_info" : {
            "comment" : "",
            "filledwith" : "cpp-1.3.0+commit.6e0ce939.Linux.g++",
            "lllcversion" : "Version: 0.4.18-develop.2017.9.25+commit.a72237f2.Linux.g++",
            "source" : "src/BlockchainTestsFiller/GeneralStateTests/stMemoryTest/mload16bitBound_d0g0v0Filler.json",
            "sourceHash" : "573454e754e0802786b307eb4cf3728c51a28b83ff9fbb0f5efe35dc9198db8b"
        },
        "blocks" : [
            {
                "blockHeader" : {
                    "bloom" : "0x00000000000000000000000000000000000000000000000000000000000000000000000000000000000000000000000000000000000000000000000000000000000000000000000000000000000000000000000000000000000000000000000000000000000000000000000000000000000000000000000000000000000000000000000000000000000000000000000000000000000000000000000000000000000000000000000000000000000000000000000000000000000000000000000000000000000000000000000000000000000000000000000000000000000000000000000000000000000000000000000000000000000000000000000000000000",
                    "coinbase" : "0x2adc25665018aa1fe0e6bc666dac8fc2697ff9ba",
                    "difficulty" : "0x020000",
                    "extraData" : "",
                    "gasLimit" : "0x10000804025c",
                    "gasUsed" : "0x9da4",
                    "hash" : "0xaeea3f03b6c1cb5244702b7967cbca74b29ee4284d51848e49cca128f8ab9096",
                    "mixHash" : "0x60571fb3c8eaf692c6a5c5f032d932c5edcad0f9633b6bc93320cd7a0cd13708",
                    "nonce" : "0x4fc3876a117237f4",
                    "number" : "0x01",
                    "parentHash" : "0x01db3e48429024a3b1bc933060013fbf25856beffa1f442a4b84da518e01a0ab",
                    "receiptTrie" : "0xa51ae302d83c38e547c132b5ad8541bc3261ed442d9919152bd5eb1b03a3dccf",
                    "stateRoot" : "0x580c635d0b7f317d133f14f77e0f039e116ad48408c069e9d4f68b10471187a3",
                    "timestamp" : "0x03e8",
                    "transactionsTrie" : "0x88d6ef5af056f0601897b4e7cc21208055807b114910925d4b48c7b484727400",
                    "uncleHash" : "0x1dcc4de8dec75d7aab85b567b6ccd41ad312451b948a7413f0a142fd40d49347"
                },
                "rlp" : "0xf90265f901faa001db3e48429024a3b1bc933060013fbf25856beffa1f442a4b84da518e01a0aba01dcc4de8dec75d7aab85b567b6ccd41ad312451b948a7413f0a142fd40d49347942adc25665018aa1fe0e6bc666dac8fc2697ff9baa0580c635d0b7f317d133f14f77e0f039e116ad48408c069e9d4f68b10471187a3a088d6ef5af056f0601897b4e7cc21208055807b114910925d4b48c7b484727400a0a51ae302d83c38e547c132b5ad8541bc3261ed442d9919152bd5eb1b03a3dccfb901000000000000000000000000000000000000000000000000000000000000000000000000000000000000000000000000000000000000000000000000000000000000000000000000000000000000000000000000000000000000000000000000000000000000000000000000000000000000000000000000000000000000000000000000000000000000000000000000000000000000000000000000000000000000000000000000000000000000000000000000000000000000000000000000000000000000000000000000000000000000000000000000000000000000000000000000000000000000000000000000000000000000000000000000000000000083020000018610000804025c829da48203e880a060571fb3c8eaf692c6a5c5f032d932c5edcad0f9633b6bc93320cd7a0cd13708884fc3876a117237f4f865f86380018610000804025c940f572e5295c57f15886f9b263e2f6d2d6c7b5ec60a801ba072be3b0b917e373137dcaefae958cf33926e924c57f8d4d323b09e0bfc5d5c0ea01fcee44156d51a5b28c2e3d17286ccf57344915b401f914c1a53eab24e815e1cc0",
                "transactions" : [
                    {
                        "data" : "",
                        "gasLimit" : "0x10000804025c",
                        "gasPrice" : "0x01",
                        "nonce" : "0x00",
                        "r" : "0x72be3b0b917e373137dcaefae958cf33926e924c57f8d4d323b09e0bfc5d5c0e",
                        "s" : "0x1fcee44156d51a5b28c2e3d17286ccf57344915b401f914c1a53eab24e815e1c",
                        "to" : "0x0f572e5295c57f15886f9b263e2f6d2d6c7b5ec6",
                        "v" : "0x1b",
                        "value" : "0x0a"
                    }
                ],
                "uncleHeaders" : [
                ]
            }
        ],
        "genesisBlockHeader" : {
            "bloom" : "0x00000000000000000000000000000000000000000000000000000000000000000000000000000000000000000000000000000000000000000000000000000000000000000000000000000000000000000000000000000000000000000000000000000000000000000000000000000000000000000000000000000000000000000000000000000000000000000000000000000000000000000000000000000000000000000000000000000000000000000000000000000000000000000000000000000000000000000000000000000000000000000000000000000000000000000000000000000000000000000000000000000000000000000000000000000000",
            "coinbase" : "0x2adc25665018aa1fe0e6bc666dac8fc2697ff9ba",
            "difficulty" : "0x020000",
            "extraData" : "0x42",
            "gasLimit" : "0x10000804025c",
            "gasUsed" : "0x00",
            "hash" : "0x01db3e48429024a3b1bc933060013fbf25856beffa1f442a4b84da518e01a0ab",
            "mixHash" : "0x56e81f171bcc55a6ff8345e692c0f86e5b48e01b996cadc001622fb5e363b421",
            "nonce" : "0x0102030405060708",
            "number" : "0x00",
            "parentHash" : "0x0000000000000000000000000000000000000000000000000000000000000000",
            "receiptTrie" : "0x56e81f171bcc55a6ff8345e692c0f86e5b48e01b996cadc001622fb5e363b421",
            "stateRoot" : "0x6c92f23f39edd92600b5713930185a6bb453646f8d282cca90df433bd7fca8cf",
            "timestamp" : "0x03b6",
            "transactionsTrie" : "0x56e81f171bcc55a6ff8345e692c0f86e5b48e01b996cadc001622fb5e363b421",
            "uncleHash" : "0x1dcc4de8dec75d7aab85b567b6ccd41ad312451b948a7413f0a142fd40d49347"
        },
        "genesisRLP" : "0xf901fdf901f8a00000000000000000000000000000000000000000000000000000000000000000a01dcc4de8dec75d7aab85b567b6ccd41ad312451b948a7413f0a142fd40d49347942adc25665018aa1fe0e6bc666dac8fc2697ff9baa06c92f23f39edd92600b5713930185a6bb453646f8d282cca90df433bd7fca8cfa056e81f171bcc55a6ff8345e692c0f86e5b48e01b996cadc001622fb5e363b421a056e81f171bcc55a6ff8345e692c0f86e5b48e01b996cadc001622fb5e363b421b901000000000000000000000000000000000000000000000000000000000000000000000000000000000000000000000000000000000000000000000000000000000000000000000000000000000000000000000000000000000000000000000000000000000000000000000000000000000000000000000000000000000000000000000000000000000000000000000000000000000000000000000000000000000000000000000000000000000000000000000000000000000000000000000000000000000000000000000000000000000000000000000000000000000000000000000000000000000000000000000000000000000000000000000000000000000083020000808610000804025c808203b642a056e81f171bcc55a6ff8345e692c0f86e5b48e01b996cadc001622fb5e363b421880102030405060708c0c0",
        "lastblockhash" : "0xaeea3f03b6c1cb5244702b7967cbca74b29ee4284d51848e49cca128f8ab9096",
        "network" : "Frontier",
        "postState" : {
            "0x0f572e5295c57f15886f9b263e2f6d2d6c7b5ec6" : {
                "balance" : "0x0de0b6b3a764000a",
                "code" : "0x6201000051600155",
                "nonce" : "0x00",
                "storage" : {
                }
            },
            "0x2adc25665018aa1fe0e6bc666dac8fc2697ff9ba" : {
                "balance" : "0x4563918244f49da4",
                "code" : "",
                "nonce" : "0x00",
                "storage" : {
                }
            },
            "0xa94f5374fce5edbc8e2a8697c15331677e6ebf0b" : {
                "balance" : "0xa000502779ea",
                "code" : "",
                "nonce" : "0x01",
                "storage" : {
                }
            }
        },
        "pre" : {
            "0x0f572e5295c57f15886f9b263e2f6d2d6c7b5ec6" : {
                "balance" : "0x0de0b6b3a7640000",
                "code" : "0x6201000051600155",
                "nonce" : "0x00",
                "storage" : {
                }
            },
            "0xa94f5374fce5edbc8e2a8697c15331677e6ebf0b" : {
                "balance" : "0xa00050281798",
                "code" : "",
                "nonce" : "0x00",
                "storage" : {
                }
            }
        }
    },
    "mload16bitBound_d0g0v0_Homestead" : {
        "_info" : {
            "comment" : "",
            "filledwith" : "cpp-1.3.0+commit.6e0ce939.Linux.g++",
            "lllcversion" : "Version: 0.4.18-develop.2017.9.25+commit.a72237f2.Linux.g++",
            "source" : "src/BlockchainTestsFiller/GeneralStateTests/stMemoryTest/mload16bitBound_d0g0v0Filler.json",
            "sourceHash" : "573454e754e0802786b307eb4cf3728c51a28b83ff9fbb0f5efe35dc9198db8b"
        },
        "blocks" : [
            {
                "blockHeader" : {
                    "bloom" : "0x00000000000000000000000000000000000000000000000000000000000000000000000000000000000000000000000000000000000000000000000000000000000000000000000000000000000000000000000000000000000000000000000000000000000000000000000000000000000000000000000000000000000000000000000000000000000000000000000000000000000000000000000000000000000000000000000000000000000000000000000000000000000000000000000000000000000000000000000000000000000000000000000000000000000000000000000000000000000000000000000000000000000000000000000000000000",
                    "coinbase" : "0x2adc25665018aa1fe0e6bc666dac8fc2697ff9ba",
                    "difficulty" : "0x020000",
                    "extraData" : "",
                    "gasLimit" : "0x10000804025c",
                    "gasUsed" : "0x9da4",
                    "hash" : "0x7289d29f55cd057f583d3705e442a3e61314908e5ef690039e2a02a47f12fd26",
                    "mixHash" : "0x776037f9cf7e01ccb47b44465882211096b29c5860494d6f2d73db55f26157cf",
                    "nonce" : "0x9fe27ca85e7dd637",
                    "number" : "0x01",
                    "parentHash" : "0x01db3e48429024a3b1bc933060013fbf25856beffa1f442a4b84da518e01a0ab",
                    "receiptTrie" : "0xa51ae302d83c38e547c132b5ad8541bc3261ed442d9919152bd5eb1b03a3dccf",
                    "stateRoot" : "0x580c635d0b7f317d133f14f77e0f039e116ad48408c069e9d4f68b10471187a3",
                    "timestamp" : "0x03e8",
                    "transactionsTrie" : "0x88d6ef5af056f0601897b4e7cc21208055807b114910925d4b48c7b484727400",
                    "uncleHash" : "0x1dcc4de8dec75d7aab85b567b6ccd41ad312451b948a7413f0a142fd40d49347"
                },
                "rlp" : "0xf90265f901faa001db3e48429024a3b1bc933060013fbf25856beffa1f442a4b84da518e01a0aba01dcc4de8dec75d7aab85b567b6ccd41ad312451b948a7413f0a142fd40d49347942adc25665018aa1fe0e6bc666dac8fc2697ff9baa0580c635d0b7f317d133f14f77e0f039e116ad48408c069e9d4f68b10471187a3a088d6ef5af056f0601897b4e7cc21208055807b114910925d4b48c7b484727400a0a51ae302d83c38e547c132b5ad8541bc3261ed442d9919152bd5eb1b03a3dccfb901000000000000000000000000000000000000000000000000000000000000000000000000000000000000000000000000000000000000000000000000000000000000000000000000000000000000000000000000000000000000000000000000000000000000000000000000000000000000000000000000000000000000000000000000000000000000000000000000000000000000000000000000000000000000000000000000000000000000000000000000000000000000000000000000000000000000000000000000000000000000000000000000000000000000000000000000000000000000000000000000000000000000000000000000000000000083020000018610000804025c829da48203e880a0776037f9cf7e01ccb47b44465882211096b29c5860494d6f2d73db55f26157cf889fe27ca85e7dd637f865f86380018610000804025c940f572e5295c57f15886f9b263e2f6d2d6c7b5ec60a801ba072be3b0b917e373137dcaefae958cf33926e924c57f8d4d323b09e0bfc5d5c0ea01fcee44156d51a5b28c2e3d17286ccf57344915b401f914c1a53eab24e815e1cc0",
                "transactions" : [
                    {
                        "data" : "",
                        "gasLimit" : "0x10000804025c",
                        "gasPrice" : "0x01",
                        "nonce" : "0x00",
                        "r" : "0x72be3b0b917e373137dcaefae958cf33926e924c57f8d4d323b09e0bfc5d5c0e",
                        "s" : "0x1fcee44156d51a5b28c2e3d17286ccf57344915b401f914c1a53eab24e815e1c",
                        "to" : "0x0f572e5295c57f15886f9b263e2f6d2d6c7b5ec6",
                        "v" : "0x1b",
                        "value" : "0x0a"
                    }
                ],
                "uncleHeaders" : [
                ]
            }
        ],
        "genesisBlockHeader" : {
            "bloom" : "0x00000000000000000000000000000000000000000000000000000000000000000000000000000000000000000000000000000000000000000000000000000000000000000000000000000000000000000000000000000000000000000000000000000000000000000000000000000000000000000000000000000000000000000000000000000000000000000000000000000000000000000000000000000000000000000000000000000000000000000000000000000000000000000000000000000000000000000000000000000000000000000000000000000000000000000000000000000000000000000000000000000000000000000000000000000000",
            "coinbase" : "0x2adc25665018aa1fe0e6bc666dac8fc2697ff9ba",
            "difficulty" : "0x020000",
            "extraData" : "0x42",
            "gasLimit" : "0x10000804025c",
            "gasUsed" : "0x00",
            "hash" : "0x01db3e48429024a3b1bc933060013fbf25856beffa1f442a4b84da518e01a0ab",
            "mixHash" : "0x56e81f171bcc55a6ff8345e692c0f86e5b48e01b996cadc001622fb5e363b421",
            "nonce" : "0x0102030405060708",
            "number" : "0x00",
            "parentHash" : "0x0000000000000000000000000000000000000000000000000000000000000000",
            "receiptTrie" : "0x56e81f171bcc55a6ff8345e692c0f86e5b48e01b996cadc001622fb5e363b421",
            "stateRoot" : "0x6c92f23f39edd92600b5713930185a6bb453646f8d282cca90df433bd7fca8cf",
            "timestamp" : "0x03b6",
            "transactionsTrie" : "0x56e81f171bcc55a6ff8345e692c0f86e5b48e01b996cadc001622fb5e363b421",
            "uncleHash" : "0x1dcc4de8dec75d7aab85b567b6ccd41ad312451b948a7413f0a142fd40d49347"
        },
        "genesisRLP" : "0xf901fdf901f8a00000000000000000000000000000000000000000000000000000000000000000a01dcc4de8dec75d7aab85b567b6ccd41ad312451b948a7413f0a142fd40d49347942adc25665018aa1fe0e6bc666dac8fc2697ff9baa06c92f23f39edd92600b5713930185a6bb453646f8d282cca90df433bd7fca8cfa056e81f171bcc55a6ff8345e692c0f86e5b48e01b996cadc001622fb5e363b421a056e81f171bcc55a6ff8345e692c0f86e5b48e01b996cadc001622fb5e363b421b901000000000000000000000000000000000000000000000000000000000000000000000000000000000000000000000000000000000000000000000000000000000000000000000000000000000000000000000000000000000000000000000000000000000000000000000000000000000000000000000000000000000000000000000000000000000000000000000000000000000000000000000000000000000000000000000000000000000000000000000000000000000000000000000000000000000000000000000000000000000000000000000000000000000000000000000000000000000000000000000000000000000000000000000000000000000083020000808610000804025c808203b642a056e81f171bcc55a6ff8345e692c0f86e5b48e01b996cadc001622fb5e363b421880102030405060708c0c0",
        "lastblockhash" : "0x7289d29f55cd057f583d3705e442a3e61314908e5ef690039e2a02a47f12fd26",
        "network" : "Homestead",
        "postState" : {
            "0x0f572e5295c57f15886f9b263e2f6d2d6c7b5ec6" : {
                "balance" : "0x0de0b6b3a764000a",
                "code" : "0x6201000051600155",
                "nonce" : "0x00",
                "storage" : {
                }
            },
            "0x2adc25665018aa1fe0e6bc666dac8fc2697ff9ba" : {
                "balance" : "0x4563918244f49da4",
                "code" : "",
                "nonce" : "0x00",
                "storage" : {
                }
            },
            "0xa94f5374fce5edbc8e2a8697c15331677e6ebf0b" : {
                "balance" : "0xa000502779ea",
                "code" : "",
                "nonce" : "0x01",
                "storage" : {
                }
            }
        },
        "pre" : {
            "0x0f572e5295c57f15886f9b263e2f6d2d6c7b5ec6" : {
                "balance" : "0x0de0b6b3a7640000",
                "code" : "0x6201000051600155",
                "nonce" : "0x00",
                "storage" : {
                }
            },
            "0xa94f5374fce5edbc8e2a8697c15331677e6ebf0b" : {
                "balance" : "0xa00050281798",
                "code" : "",
                "nonce" : "0x00",
                "storage" : {
                }
            }
        }
    }
}