{
    "stackLimitPush31_1024_d0g0v0_Byzantium" : {
        "_info" : {
            "comment" : "",
            "filledwith" : "cpp-1.3.0+commit.6e0ce939.Linux.g++",
            "lllcversion" : "Version: 0.4.18-develop.2017.9.25+commit.a72237f2.Linux.g++",
            "source" : "src/BlockchainTestsFiller/GeneralStateTests/stMemoryTest/stackLimitPush31_1024_d0g0v0Filler.json",
            "sourceHash" : "2c20b56ac4c11f648f903ca0724c8cb954c8ff32d19b9ffd1db8c06152eef3ab"
        },
        "blocks" : [
            {
                "blockHeader" : {
                    "bloom" : "0x00000000000000000000000000000000000000000000000000000000000000000000000000000000000000000000000000000000000000000000000000000000000000000000000000000000000000000000000000000000000000000000000000000000000000000000000000000000000000000000000000000000000000000000000000000000000000000000000000000000000000000000000000000000000000000000000000000000000000000000000000000000000000000000000000000000000000000000000000000000000000000000000000000000000000000000000000000000000000000000000000000000000000000000000000000000",
                    "coinbase" : "0x2adc25665018aa1fe0e6bc666dac8fc2697ff9ba",
                    "difficulty" : "0x020000",
                    "extraData" : "",
                    "gasLimit" : "0x0a00000000",
                    "gasUsed" : "0xf5c2",
                    "hash" : "0x739868b708a776cb3ae6aeedd683063002f08a612a338f5627e5cf944a1db9d5",
                    "mixHash" : "0xe498ff3c4a2f0c7c1279c33a43f78b8d279b0055f2cf1beef9a171dffa4b6297",
                    "nonce" : "0x80403f4ce8f5a8df",
                    "number" : "0x01",
                    "parentHash" : "0x459a07859844e1e1f5759449c5caad39dcc9f8ef796e63e79254ecae5c611846",
                    "receiptTrie" : "0x07d40fa4ca040182b2a60b84ca44f15e440203bad66bb2d0b732098b8ad27479",
                    "stateRoot" : "0xe3995ba4a0c0c1e8bb49a46ba1ec47ab23082901a34a0501c58a76f42576a49d",
                    "timestamp" : "0x03e8",
                    "transactionsTrie" : "0xddb8defea6c1610afd06dda64253cb99ad91fcdbcd096618c99bbf1d4b43e7ce",
                    "uncleHash" : "0x1dcc4de8dec75d7aab85b567b6ccd41ad312451b948a7413f0a142fd40d49347"
                },
                "rlp" : "0xf90261f901f9a0459a07859844e1e1f5759449c5caad39dcc9f8ef796e63e79254ecae5c611846a01dcc4de8dec75d7aab85b567b6ccd41ad312451b948a7413f0a142fd40d49347942adc25665018aa1fe0e6bc666dac8fc2697ff9baa0e3995ba4a0c0c1e8bb49a46ba1ec47ab23082901a34a0501c58a76f42576a49da0ddb8defea6c1610afd06dda64253cb99ad91fcdbcd096618c99bbf1d4b43e7cea007d40fa4ca040182b2a60b84ca44f15e440203bad66bb2d0b732098b8ad27479b90100000000000000000000000000000000000000000000000000000000000000000000000000000000000000000000000000000000000000000000000000000000000000000000000000000000000000000000000000000000000000000000000000000000000000000000000000000000000000000000000000000000000000000000000000000000000000000000000000000000000000000000000000000000000000000000000000000000000000000000000000000000000000000000000000000000000000000000000000000000000000000000000000000000000000000000000000000000000000000000000000000000000000000000000000000000008302000001850a0000000082f5c28203e880a0e498ff3c4a2f0c7c1279c33a43f78b8d279b0055f2cf1beef9a171dffa4b62978880403f4ce8f5a8dff862f8608001830186a0940f572e5295c57f15886f9b263e2f6d2d6c7b5ec60a801ba0b054e6af901451cf834679b4c625bc4453057b43c728b7632a5ec533ed1f205ba05a8090300acb5cae0f1c1f1208e60b0b6aad49e2951d0725e65cc3663bd6811cc0",
                "transactions" : [
                    {
                        "data" : "",
                        "gasLimit" : "0x0186a0",
                        "gasPrice" : "0x01",
                        "nonce" : "0x00",
                        "r" : "0xb054e6af901451cf834679b4c625bc4453057b43c728b7632a5ec533ed1f205b",
                        "s" : "0x5a8090300acb5cae0f1c1f1208e60b0b6aad49e2951d0725e65cc3663bd6811c",
                        "to" : "0x0f572e5295c57f15886f9b263e2f6d2d6c7b5ec6",
                        "v" : "0x1b",
                        "value" : "0x0a"
                    }
                ],
                "uncleHeaders" : [
                ]
            }
        ],
        "genesisBlockHeader" : {
            "bloom" : "0x00000000000000000000000000000000000000000000000000000000000000000000000000000000000000000000000000000000000000000000000000000000000000000000000000000000000000000000000000000000000000000000000000000000000000000000000000000000000000000000000000000000000000000000000000000000000000000000000000000000000000000000000000000000000000000000000000000000000000000000000000000000000000000000000000000000000000000000000000000000000000000000000000000000000000000000000000000000000000000000000000000000000000000000000000000000",
            "coinbase" : "0x2adc25665018aa1fe0e6bc666dac8fc2697ff9ba",
            "difficulty" : "0x020000",
            "extraData" : "0x42",
            "gasLimit" : "0x0a00000000",
            "gasUsed" : "0x00",
            "hash" : "0x459a07859844e1e1f5759449c5caad39dcc9f8ef796e63e79254ecae5c611846",
            "mixHash" : "0x56e81f171bcc55a6ff8345e692c0f86e5b48e01b996cadc001622fb5e363b421",
            "nonce" : "0x0102030405060708",
            "number" : "0x00",
            "parentHash" : "0x0000000000000000000000000000000000000000000000000000000000000000",
            "receiptTrie" : "0x56e81f171bcc55a6ff8345e692c0f86e5b48e01b996cadc001622fb5e363b421",
            "stateRoot" : "0x654c6ee8a92aa72ee8112aa9c8387b367b94a0c5af80a9cbe8d0803bc6867eef",
            "timestamp" : "0x03b6",
            "transactionsTrie" : "0x56e81f171bcc55a6ff8345e692c0f86e5b48e01b996cadc001622fb5e363b421",
            "uncleHash" : "0x1dcc4de8dec75d7aab85b567b6ccd41ad312451b948a7413f0a142fd40d49347"
        },
        "genesisRLP" : "0xf901fcf901f7a00000000000000000000000000000000000000000000000000000000000000000a01dcc4de8dec75d7aab85b567b6ccd41ad312451b948a7413f0a142fd40d49347942adc25665018aa1fe0e6bc666dac8fc2697ff9baa0654c6ee8a92aa72ee8112aa9c8387b367b94a0c5af80a9cbe8d0803bc6867eefa056e81f171bcc55a6ff8345e692c0f86e5b48e01b996cadc001622fb5e363b421a056e81f171bcc55a6ff8345e692c0f86e5b48e01b996cadc001622fb5e363b421b90100000000000000000000000000000000000000000000000000000000000000000000000000000000000000000000000000000000000000000000000000000000000000000000000000000000000000000000000000000000000000000000000000000000000000000000000000000000000000000000000000000000000000000000000000000000000000000000000000000000000000000000000000000000000000000000000000000000000000000000000000000000000000000000000000000000000000000000000000000000000000000000000000000000000000000000000000000000000000000000000000000000000000000000000000000000008302000080850a00000000808203b642a056e81f171bcc55a6ff8345e692c0f86e5b48e01b996cadc001622fb5e363b421880102030405060708c0c0",
        "lastblockhash" : "0x739868b708a776cb3ae6aeedd683063002f08a612a338f5627e5cf944a1db9d5",
        "network" : "Byzantium",
        "postState" : {
            "0x0f572e5295c57f15886f9b263e2f6d2d6c7b5ec6" : {
                "balance" : "0x0de0b6b3a764000a",
                "code" : "0x6103fe6000525b7e0102030405060708090a0102030405060708090a0102030405060708090a0160016000510360005260005160065700",
                "nonce" : "0x00",
                "storage" : {
                }
            },
            "0x2adc25665018aa1fe0e6bc666dac8fc2697ff9ba" : {
                "balance" : "0x29a2241af62cf5c2",
                "code" : "",
                "nonce" : "0x00",
                "storage" : {
                }
            },
            "0xa94f5374fce5edbc8e2a8697c15331677e6ebf0b" : {
                "balance" : "0x63ffff0a34",
                "code" : "",
                "nonce" : "0x01",
                "storage" : {
                }
            }
        },
        "pre" : {
            "0x0f572e5295c57f15886f9b263e2f6d2d6c7b5ec6" : {
                "balance" : "0x0de0b6b3a7640000",
                "code" : "0x6103fe6000525b7e0102030405060708090a0102030405060708090a0102030405060708090a0160016000510360005260005160065700",
                "nonce" : "0x00",
                "storage" : {
                }
            },
            "0xa94f5374fce5edbc8e2a8697c15331677e6ebf0b" : {
                "balance" : "0x6400000000",
                "code" : "",
                "nonce" : "0x00",
                "storage" : {
                }
            }
        }
    },
    "stackLimitPush31_1024_d0g0v0_EIP150" : {
        "_info" : {
            "comment" : "",
            "filledwith" : "cpp-1.3.0+commit.6e0ce939.Linux.g++",
            "lllcversion" : "Version: 0.4.18-develop.2017.9.25+commit.a72237f2.Linux.g++",
            "source" : "src/BlockchainTestsFiller/GeneralStateTests/stMemoryTest/stackLimitPush31_1024_d0g0v0Filler.json",
            "sourceHash" : "2c20b56ac4c11f648f903ca0724c8cb954c8ff32d19b9ffd1db8c06152eef3ab"
        },
        "blocks" : [
            {
                "blockHeader" : {
                    "bloom" : "0x00000000000000000000000000000000000000000000000000000000000000000000000000000000000000000000000000000000000000000000000000000000000000000000000000000000000000000000000000000000000000000000000000000000000000000000000000000000000000000000000000000000000000000000000000000000000000000000000000000000000000000000000000000000000000000000000000000000000000000000000000000000000000000000000000000000000000000000000000000000000000000000000000000000000000000000000000000000000000000000000000000000000000000000000000000000",
                    "coinbase" : "0x2adc25665018aa1fe0e6bc666dac8fc2697ff9ba",
                    "difficulty" : "0x020000",
                    "extraData" : "",
                    "gasLimit" : "0x0a00000000",
                    "gasUsed" : "0xf5c2",
                    "hash" : "0x4a019b8192d47c190b670008f0139b8ff440da9136654fb7a6aae477c15fbe9f",
                    "mixHash" : "0xa5e631f7aa88560408c97e884815312b7fc3d2e0c39a6502066d2b0eec7a6b12",
                    "nonce" : "0xc4bbe236e4ae493d",
                    "number" : "0x01",
                    "parentHash" : "0x459a07859844e1e1f5759449c5caad39dcc9f8ef796e63e79254ecae5c611846",
                    "receiptTrie" : "0x9109d888f9ddef66a59f549bd7ceecfb65c56ffdc5b24ae8bc2c3c050afae0fa",
                    "stateRoot" : "0x801190cc0324a89bd7ed1ca453282d463f19346585c31634d38f43294bff135d",
                    "timestamp" : "0x03e8",
                    "transactionsTrie" : "0xddb8defea6c1610afd06dda64253cb99ad91fcdbcd096618c99bbf1d4b43e7ce",
                    "uncleHash" : "0x1dcc4de8dec75d7aab85b567b6ccd41ad312451b948a7413f0a142fd40d49347"
                },
                "rlp" : "0xf90261f901f9a0459a07859844e1e1f5759449c5caad39dcc9f8ef796e63e79254ecae5c611846a01dcc4de8dec75d7aab85b567b6ccd41ad312451b948a7413f0a142fd40d49347942adc25665018aa1fe0e6bc666dac8fc2697ff9baa0801190cc0324a89bd7ed1ca453282d463f19346585c31634d38f43294bff135da0ddb8defea6c1610afd06dda64253cb99ad91fcdbcd096618c99bbf1d4b43e7cea09109d888f9ddef66a59f549bd7ceecfb65c56ffdc5b24ae8bc2c3c050afae0fab90100000000000000000000000000000000000000000000000000000000000000000000000000000000000000000000000000000000000000000000000000000000000000000000000000000000000000000000000000000000000000000000000000000000000000000000000000000000000000000000000000000000000000000000000000000000000000000000000000000000000000000000000000000000000000000000000000000000000000000000000000000000000000000000000000000000000000000000000000000000000000000000000000000000000000000000000000000000000000000000000000000000000000000000000000000000008302000001850a0000000082f5c28203e880a0a5e631f7aa88560408c97e884815312b7fc3d2e0c39a6502066d2b0eec7a6b1288c4bbe236e4ae493df862f8608001830186a0940f572e5295c57f15886f9b263e2f6d2d6c7b5ec60a801ba0b054e6af901451cf834679b4c625bc4453057b43c728b7632a5ec533ed1f205ba05a8090300acb5cae0f1c1f1208e60b0b6aad49e2951d0725e65cc3663bd6811cc0",
                "transactions" : [
                    {
                        "data" : "",
                        "gasLimit" : "0x0186a0",
                        "gasPrice" : "0x01",
                        "nonce" : "0x00",
                        "r" : "0xb054e6af901451cf834679b4c625bc4453057b43c728b7632a5ec533ed1f205b",
                        "s" : "0x5a8090300acb5cae0f1c1f1208e60b0b6aad49e2951d0725e65cc3663bd6811c",
                        "to" : "0x0f572e5295c57f15886f9b263e2f6d2d6c7b5ec6",
                        "v" : "0x1b",
                        "value" : "0x0a"
                    }
                ],
                "uncleHeaders" : [
                ]
            }
        ],
        "genesisBlockHeader" : {
            "bloom" : "0x00000000000000000000000000000000000000000000000000000000000000000000000000000000000000000000000000000000000000000000000000000000000000000000000000000000000000000000000000000000000000000000000000000000000000000000000000000000000000000000000000000000000000000000000000000000000000000000000000000000000000000000000000000000000000000000000000000000000000000000000000000000000000000000000000000000000000000000000000000000000000000000000000000000000000000000000000000000000000000000000000000000000000000000000000000000",
            "coinbase" : "0x2adc25665018aa1fe0e6bc666dac8fc2697ff9ba",
            "difficulty" : "0x020000",
            "extraData" : "0x42",
            "gasLimit" : "0x0a00000000",
            "gasUsed" : "0x00",
            "hash" : "0x459a07859844e1e1f5759449c5caad39dcc9f8ef796e63e79254ecae5c611846",
            "mixHash" : "0x56e81f171bcc55a6ff8345e692c0f86e5b48e01b996cadc001622fb5e363b421",
            "nonce" : "0x0102030405060708",
            "number" : "0x00",
            "parentHash" : "0x0000000000000000000000000000000000000000000000000000000000000000",
            "receiptTrie" : "0x56e81f171bcc55a6ff8345e692c0f86e5b48e01b996cadc001622fb5e363b421",
            "stateRoot" : "0x654c6ee8a92aa72ee8112aa9c8387b367b94a0c5af80a9cbe8d0803bc6867eef",
            "timestamp" : "0x03b6",
            "transactionsTrie" : "0x56e81f171bcc55a6ff8345e692c0f86e5b48e01b996cadc001622fb5e363b421",
            "uncleHash" : "0x1dcc4de8dec75d7aab85b567b6ccd41ad312451b948a7413f0a142fd40d49347"
        },
        "genesisRLP" : "0xf901fcf901f7a00000000000000000000000000000000000000000000000000000000000000000a01dcc4de8dec75d7aab85b567b6ccd41ad312451b948a7413f0a142fd40d49347942adc25665018aa1fe0e6bc666dac8fc2697ff9baa0654c6ee8a92aa72ee8112aa9c8387b367b94a0c5af80a9cbe8d0803bc6867eefa056e81f171bcc55a6ff8345e692c0f86e5b48e01b996cadc001622fb5e363b421a056e81f171bcc55a6ff8345e692c0f86e5b48e01b996cadc001622fb5e363b421b90100000000000000000000000000000000000000000000000000000000000000000000000000000000000000000000000000000000000000000000000000000000000000000000000000000000000000000000000000000000000000000000000000000000000000000000000000000000000000000000000000000000000000000000000000000000000000000000000000000000000000000000000000000000000000000000000000000000000000000000000000000000000000000000000000000000000000000000000000000000000000000000000000000000000000000000000000000000000000000000000000000000000000000000000000000000008302000080850a00000000808203b642a056e81f171bcc55a6ff8345e692c0f86e5b48e01b996cadc001622fb5e363b421880102030405060708c0c0",
        "lastblockhash" : "0x4a019b8192d47c190b670008f0139b8ff440da9136654fb7a6aae477c15fbe9f",
        "network" : "EIP150",
        "postState" : {
            "0x0f572e5295c57f15886f9b263e2f6d2d6c7b5ec6" : {
                "balance" : "0x0de0b6b3a764000a",
                "code" : "0x6103fe6000525b7e0102030405060708090a0102030405060708090a0102030405060708090a0160016000510360005260005160065700",
                "nonce" : "0x00",
                "storage" : {
                }
            },
            "0x2adc25665018aa1fe0e6bc666dac8fc2697ff9ba" : {
                "balance" : "0x4563918244f4f5c2",
                "code" : "",
                "nonce" : "0x00",
                "storage" : {
                }
            },
            "0xa94f5374fce5edbc8e2a8697c15331677e6ebf0b" : {
                "balance" : "0x63ffff0a34",
                "code" : "",
                "nonce" : "0x01",
                "storage" : {
                }
            }
        },
        "pre" : {
            "0x0f572e5295c57f15886f9b263e2f6d2d6c7b5ec6" : {
                "balance" : "0x0de0b6b3a7640000",
                "code" : "0x6103fe6000525b7e0102030405060708090a0102030405060708090a0102030405060708090a0160016000510360005260005160065700",
                "nonce" : "0x00",
                "storage" : {
                }
            },
            "0xa94f5374fce5edbc8e2a8697c15331677e6ebf0b" : {
                "balance" : "0x6400000000",
                "code" : "",
                "nonce" : "0x00",
                "storage" : {
                }
            }
        }
    },
    "stackLimitPush31_1024_d0g0v0_EIP158" : {
        "_info" : {
            "comment" : "",
            "filledwith" : "cpp-1.3.0+commit.6e0ce939.Linux.g++",
            "lllcversion" : "Version: 0.4.18-develop.2017.9.25+commit.a72237f2.Linux.g++",
            "source" : "src/BlockchainTestsFiller/GeneralStateTests/stMemoryTest/stackLimitPush31_1024_d0g0v0Filler.json",
            "sourceHash" : "2c20b56ac4c11f648f903ca0724c8cb954c8ff32d19b9ffd1db8c06152eef3ab"
        },
        "blocks" : [
            {
                "blockHeader" : {
                    "bloom" : "0x00000000000000000000000000000000000000000000000000000000000000000000000000000000000000000000000000000000000000000000000000000000000000000000000000000000000000000000000000000000000000000000000000000000000000000000000000000000000000000000000000000000000000000000000000000000000000000000000000000000000000000000000000000000000000000000000000000000000000000000000000000000000000000000000000000000000000000000000000000000000000000000000000000000000000000000000000000000000000000000000000000000000000000000000000000000",
                    "coinbase" : "0x2adc25665018aa1fe0e6bc666dac8fc2697ff9ba",
                    "difficulty" : "0x020000",
                    "extraData" : "",
                    "gasLimit" : "0x0a00000000",
                    "gasUsed" : "0xf5c2",
                    "hash" : "0xa66b04488bbe1cfcc8412dd00569f5bf7a514d2908d27d19bfc7ec4f33b67091",
                    "mixHash" : "0xe892f07ddd937c546afd93b520130b4ab6f06a9ad1dfc25ed676b64eddaec622",
                    "nonce" : "0xb2da3a7dd60b9645",
                    "number" : "0x01",
                    "parentHash" : "0x459a07859844e1e1f5759449c5caad39dcc9f8ef796e63e79254ecae5c611846",
                    "receiptTrie" : "0x9109d888f9ddef66a59f549bd7ceecfb65c56ffdc5b24ae8bc2c3c050afae0fa",
                    "stateRoot" : "0x801190cc0324a89bd7ed1ca453282d463f19346585c31634d38f43294bff135d",
                    "timestamp" : "0x03e8",
                    "transactionsTrie" : "0xddb8defea6c1610afd06dda64253cb99ad91fcdbcd096618c99bbf1d4b43e7ce",
                    "uncleHash" : "0x1dcc4de8dec75d7aab85b567b6ccd41ad312451b948a7413f0a142fd40d49347"
                },
                "rlp" : "0xf90261f901f9a0459a07859844e1e1f5759449c5caad39dcc9f8ef796e63e79254ecae5c611846a01dcc4de8dec75d7aab85b567b6ccd41ad312451b948a7413f0a142fd40d49347942adc25665018aa1fe0e6bc666dac8fc2697ff9baa0801190cc0324a89bd7ed1ca453282d463f19346585c31634d38f43294bff135da0ddb8defea6c1610afd06dda64253cb99ad91fcdbcd096618c99bbf1d4b43e7cea09109d888f9ddef66a59f549bd7ceecfb65c56ffdc5b24ae8bc2c3c050afae0fab90100000000000000000000000000000000000000000000000000000000000000000000000000000000000000000000000000000000000000000000000000000000000000000000000000000000000000000000000000000000000000000000000000000000000000000000000000000000000000000000000000000000000000000000000000000000000000000000000000000000000000000000000000000000000000000000000000000000000000000000000000000000000000000000000000000000000000000000000000000000000000000000000000000000000000000000000000000000000000000000000000000000000000000000000000000000008302000001850a0000000082f5c28203e880a0e892f07ddd937c546afd93b520130b4ab6f06a9ad1dfc25ed676b64eddaec62288b2da3a7dd60b9645f862f8608001830186a0940f572e5295c57f15886f9b263e2f6d2d6c7b5ec60a801ba0b054e6af901451cf834679b4c625bc4453057b43c728b7632a5ec533ed1f205ba05a8090300acb5cae0f1c1f1208e60b0b6aad49e2951d0725e65cc3663bd6811cc0",
                "transactions" : [
                    {
                        "data" : "",
                        "gasLimit" : "0x0186a0",
                        "gasPrice" : "0x01",
                        "nonce" : "0x00",
                        "r" : "0xb054e6af901451cf834679b4c625bc4453057b43c728b7632a5ec533ed1f205b",
                        "s" : "0x5a8090300acb5cae0f1c1f1208e60b0b6aad49e2951d0725e65cc3663bd6811c",
                        "to" : "0x0f572e5295c57f15886f9b263e2f6d2d6c7b5ec6",
                        "v" : "0x1b",
                        "value" : "0x0a"
                    }
                ],
                "uncleHeaders" : [
                ]
            }
        ],
        "genesisBlockHeader" : {
            "bloom" : "0x00000000000000000000000000000000000000000000000000000000000000000000000000000000000000000000000000000000000000000000000000000000000000000000000000000000000000000000000000000000000000000000000000000000000000000000000000000000000000000000000000000000000000000000000000000000000000000000000000000000000000000000000000000000000000000000000000000000000000000000000000000000000000000000000000000000000000000000000000000000000000000000000000000000000000000000000000000000000000000000000000000000000000000000000000000000",
            "coinbase" : "0x2adc25665018aa1fe0e6bc666dac8fc2697ff9ba",
            "difficulty" : "0x020000",
            "extraData" : "0x42",
            "gasLimit" : "0x0a00000000",
            "gasUsed" : "0x00",
            "hash" : "0x459a07859844e1e1f5759449c5caad39dcc9f8ef796e63e79254ecae5c611846",
            "mixHash" : "0x56e81f171bcc55a6ff8345e692c0f86e5b48e01b996cadc001622fb5e363b421",
            "nonce" : "0x0102030405060708",
            "number" : "0x00",
            "parentHash" : "0x0000000000000000000000000000000000000000000000000000000000000000",
            "receiptTrie" : "0x56e81f171bcc55a6ff8345e692c0f86e5b48e01b996cadc001622fb5e363b421",
            "stateRoot" : "0x654c6ee8a92aa72ee8112aa9c8387b367b94a0c5af80a9cbe8d0803bc6867eef",
            "timestamp" : "0x03b6",
            "transactionsTrie" : "0x56e81f171bcc55a6ff8345e692c0f86e5b48e01b996cadc001622fb5e363b421",
            "uncleHash" : "0x1dcc4de8dec75d7aab85b567b6ccd41ad312451b948a7413f0a142fd40d49347"
        },
        "genesisRLP" : "0xf901fcf901f7a00000000000000000000000000000000000000000000000000000000000000000a01dcc4de8dec75d7aab85b567b6ccd41ad312451b948a7413f0a142fd40d49347942adc25665018aa1fe0e6bc666dac8fc2697ff9baa0654c6ee8a92aa72ee8112aa9c8387b367b94a0c5af80a9cbe8d0803bc6867eefa056e81f171bcc55a6ff8345e692c0f86e5b48e01b996cadc001622fb5e363b421a056e81f171bcc55a6ff8345e692c0f86e5b48e01b996cadc001622fb5e363b421b90100000000000000000000000000000000000000000000000000000000000000000000000000000000000000000000000000000000000000000000000000000000000000000000000000000000000000000000000000000000000000000000000000000000000000000000000000000000000000000000000000000000000000000000000000000000000000000000000000000000000000000000000000000000000000000000000000000000000000000000000000000000000000000000000000000000000000000000000000000000000000000000000000000000000000000000000000000000000000000000000000000000000000000000000000000000008302000080850a00000000808203b642a056e81f171bcc55a6ff8345e692c0f86e5b48e01b996cadc001622fb5e363b421880102030405060708c0c0",
        "lastblockhash" : "0xa66b04488bbe1cfcc8412dd00569f5bf7a514d2908d27d19bfc7ec4f33b67091",
        "network" : "EIP158",
        "postState" : {
            "0x0f572e5295c57f15886f9b263e2f6d2d6c7b5ec6" : {
                "balance" : "0x0de0b6b3a764000a",
                "code" : "0x6103fe6000525b7e0102030405060708090a0102030405060708090a0102030405060708090a0160016000510360005260005160065700",
                "nonce" : "0x00",
                "storage" : {
                }
            },
            "0x2adc25665018aa1fe0e6bc666dac8fc2697ff9ba" : {
                "balance" : "0x4563918244f4f5c2",
                "code" : "",
                "nonce" : "0x00",
                "storage" : {
                }
            },
            "0xa94f5374fce5edbc8e2a8697c15331677e6ebf0b" : {
                "balance" : "0x63ffff0a34",
                "code" : "",
                "nonce" : "0x01",
                "storage" : {
                }
            }
        },
        "pre" : {
            "0x0f572e5295c57f15886f9b263e2f6d2d6c7b5ec6" : {
                "balance" : "0x0de0b6b3a7640000",
                "code" : "0x6103fe6000525b7e0102030405060708090a0102030405060708090a0102030405060708090a0160016000510360005260005160065700",
                "nonce" : "0x00",
                "storage" : {
                }
            },
            "0xa94f5374fce5edbc8e2a8697c15331677e6ebf0b" : {
                "balance" : "0x6400000000",
                "code" : "",
                "nonce" : "0x00",
                "storage" : {
                }
            }
        }
    },
    "stackLimitPush31_1024_d0g0v0_Frontier" : {
        "_info" : {
            "comment" : "",
            "filledwith" : "cpp-1.3.0+commit.6e0ce939.Linux.g++",
            "lllcversion" : "Version: 0.4.18-develop.2017.9.25+commit.a72237f2.Linux.g++",
            "source" : "src/BlockchainTestsFiller/GeneralStateTests/stMemoryTest/stackLimitPush31_1024_d0g0v0Filler.json",
            "sourceHash" : "2c20b56ac4c11f648f903ca0724c8cb954c8ff32d19b9ffd1db8c06152eef3ab"
        },
        "blocks" : [
            {
                "blockHeader" : {
                    "bloom" : "0x00000000000000000000000000000000000000000000000000000000000000000000000000000000000000000000000000000000000000000000000000000000000000000000000000000000000000000000000000000000000000000000000000000000000000000000000000000000000000000000000000000000000000000000000000000000000000000000000000000000000000000000000000000000000000000000000000000000000000000000000000000000000000000000000000000000000000000000000000000000000000000000000000000000000000000000000000000000000000000000000000000000000000000000000000000000",
                    "coinbase" : "0x2adc25665018aa1fe0e6bc666dac8fc2697ff9ba",
                    "difficulty" : "0x020000",
                    "extraData" : "",
                    "gasLimit" : "0x0a00000000",
                    "gasUsed" : "0xf5c2",
                    "hash" : "0x3eda8029311b5cb9b6c3937a17c3205a9707a6fe6a73d20c508ca57721874295",
                    "mixHash" : "0xbad831507942bd26124f3c1d727bbcbd528f12f822892521177a58e855d91839",
                    "nonce" : "0x28c25c7b6f68abbc",
                    "number" : "0x01",
                    "parentHash" : "0x459a07859844e1e1f5759449c5caad39dcc9f8ef796e63e79254ecae5c611846",
                    "receiptTrie" : "0x9109d888f9ddef66a59f549bd7ceecfb65c56ffdc5b24ae8bc2c3c050afae0fa",
                    "stateRoot" : "0x801190cc0324a89bd7ed1ca453282d463f19346585c31634d38f43294bff135d",
                    "timestamp" : "0x03e8",
                    "transactionsTrie" : "0xddb8defea6c1610afd06dda64253cb99ad91fcdbcd096618c99bbf1d4b43e7ce",
                    "uncleHash" : "0x1dcc4de8dec75d7aab85b567b6ccd41ad312451b948a7413f0a142fd40d49347"
                },
                "rlp" : "0xf90261f901f9a0459a07859844e1e1f5759449c5caad39dcc9f8ef796e63e79254ecae5c611846a01dcc4de8dec75d7aab85b567b6ccd41ad312451b948a7413f0a142fd40d49347942adc25665018aa1fe0e6bc666dac8fc2697ff9baa0801190cc0324a89bd7ed1ca453282d463f19346585c31634d38f43294bff135da0ddb8defea6c1610afd06dda64253cb99ad91fcdbcd096618c99bbf1d4b43e7cea09109d888f9ddef66a59f549bd7ceecfb65c56ffdc5b24ae8bc2c3c050afae0fab90100000000000000000000000000000000000000000000000000000000000000000000000000000000000000000000000000000000000000000000000000000000000000000000000000000000000000000000000000000000000000000000000000000000000000000000000000000000000000000000000000000000000000000000000000000000000000000000000000000000000000000000000000000000000000000000000000000000000000000000000000000000000000000000000000000000000000000000000000000000000000000000000000000000000000000000000000000000000000000000000000000000000000000000000000000000008302000001850a0000000082f5c28203e880a0bad831507942bd26124f3c1d727bbcbd528f12f822892521177a58e855d918398828c25c7b6f68abbcf862f8608001830186a0940f572e5295c57f15886f9b263e2f6d2d6c7b5ec60a801ba0b054e6af901451cf834679b4c625bc4453057b43c728b7632a5ec533ed1f205ba05a8090300acb5cae0f1c1f1208e60b0b6aad49e2951d0725e65cc3663bd6811cc0",
                "transactions" : [
                    {
                        "data" : "",
                        "gasLimit" : "0x0186a0",
                        "gasPrice" : "0x01",
                        "nonce" : "0x00",
                        "r" : "0xb054e6af901451cf834679b4c625bc4453057b43c728b7632a5ec533ed1f205b",
                        "s" : "0x5a8090300acb5cae0f1c1f1208e60b0b6aad49e2951d0725e65cc3663bd6811c",
                        "to" : "0x0f572e5295c57f15886f9b263e2f6d2d6c7b5ec6",
                        "v" : "0x1b",
                        "value" : "0x0a"
                    }
                ],
                "uncleHeaders" : [
                ]
            }
        ],
        "genesisBlockHeader" : {
            "bloom" : "0x00000000000000000000000000000000000000000000000000000000000000000000000000000000000000000000000000000000000000000000000000000000000000000000000000000000000000000000000000000000000000000000000000000000000000000000000000000000000000000000000000000000000000000000000000000000000000000000000000000000000000000000000000000000000000000000000000000000000000000000000000000000000000000000000000000000000000000000000000000000000000000000000000000000000000000000000000000000000000000000000000000000000000000000000000000000",
            "coinbase" : "0x2adc25665018aa1fe0e6bc666dac8fc2697ff9ba",
            "difficulty" : "0x020000",
            "extraData" : "0x42",
            "gasLimit" : "0x0a00000000",
            "gasUsed" : "0x00",
            "hash" : "0x459a07859844e1e1f5759449c5caad39dcc9f8ef796e63e79254ecae5c611846",
            "mixHash" : "0x56e81f171bcc55a6ff8345e692c0f86e5b48e01b996cadc001622fb5e363b421",
            "nonce" : "0x0102030405060708",
            "number" : "0x00",
            "parentHash" : "0x0000000000000000000000000000000000000000000000000000000000000000",
            "receiptTrie" : "0x56e81f171bcc55a6ff8345e692c0f86e5b48e01b996cadc001622fb5e363b421",
            "stateRoot" : "0x654c6ee8a92aa72ee8112aa9c8387b367b94a0c5af80a9cbe8d0803bc6867eef",
            "timestamp" : "0x03b6",
            "transactionsTrie" : "0x56e81f171bcc55a6ff8345e692c0f86e5b48e01b996cadc001622fb5e363b421",
            "uncleHash" : "0x1dcc4de8dec75d7aab85b567b6ccd41ad312451b948a7413f0a142fd40d49347"
        },
        "genesisRLP" : "0xf901fcf901f7a00000000000000000000000000000000000000000000000000000000000000000a01dcc4de8dec75d7aab85b567b6ccd41ad312451b948a7413f0a142fd40d49347942adc25665018aa1fe0e6bc666dac8fc2697ff9baa0654c6ee8a92aa72ee8112aa9c8387b367b94a0c5af80a9cbe8d0803bc6867eefa056e81f171bcc55a6ff8345e692c0f86e5b48e01b996cadc001622fb5e363b421a056e81f171bcc55a6ff8345e692c0f86e5b48e01b996cadc001622fb5e363b421b90100000000000000000000000000000000000000000000000000000000000000000000000000000000000000000000000000000000000000000000000000000000000000000000000000000000000000000000000000000000000000000000000000000000000000000000000000000000000000000000000000000000000000000000000000000000000000000000000000000000000000000000000000000000000000000000000000000000000000000000000000000000000000000000000000000000000000000000000000000000000000000000000000000000000000000000000000000000000000000000000000000000000000000000000000000000008302000080850a00000000808203b642a056e81f171bcc55a6ff8345e692c0f86e5b48e01b996cadc001622fb5e363b421880102030405060708c0c0",
        "lastblockhash" : "0x3eda8029311b5cb9b6c3937a17c3205a9707a6fe6a73d20c508ca57721874295",
        "network" : "Frontier",
        "postState" : {
            "0x0f572e5295c57f15886f9b263e2f6d2d6c7b5ec6" : {
                "balance" : "0x0de0b6b3a764000a",
                "code" : "0x6103fe6000525b7e0102030405060708090a0102030405060708090a0102030405060708090a0160016000510360005260005160065700",
                "nonce" : "0x00",
                "storage" : {
                }
            },
            "0x2adc25665018aa1fe0e6bc666dac8fc2697ff9ba" : {
                "balance" : "0x4563918244f4f5c2",
                "code" : "",
                "nonce" : "0x00",
                "storage" : {
                }
            },
            "0xa94f5374fce5edbc8e2a8697c15331677e6ebf0b" : {
                "balance" : "0x63ffff0a34",
                "code" : "",
                "nonce" : "0x01",
                "storage" : {
                }
            }
        },
        "pre" : {
            "0x0f572e5295c57f15886f9b263e2f6d2d6c7b5ec6" : {
                "balance" : "0x0de0b6b3a7640000",
                "code" : "0x6103fe6000525b7e0102030405060708090a0102030405060708090a0102030405060708090a0160016000510360005260005160065700",
                "nonce" : "0x00",
                "storage" : {
                }
            },
            "0xa94f5374fce5edbc8e2a8697c15331677e6ebf0b" : {
                "balance" : "0x6400000000",
                "code" : "",
                "nonce" : "0x00",
                "storage" : {
                }
            }
        }
    },
    "stackLimitPush31_1024_d0g0v0_Homestead" : {
        "_info" : {
            "comment" : "",
            "filledwith" : "cpp-1.3.0+commit.6e0ce939.Linux.g++",
            "lllcversion" : "Version: 0.4.18-develop.2017.9.25+commit.a72237f2.Linux.g++",
            "source" : "src/BlockchainTestsFiller/GeneralStateTests/stMemoryTest/stackLimitPush31_1024_d0g0v0Filler.json",
            "sourceHash" : "2c20b56ac4c11f648f903ca0724c8cb954c8ff32d19b9ffd1db8c06152eef3ab"
        },
        "blocks" : [
            {
                "blockHeader" : {
                    "bloom" : "0x00000000000000000000000000000000000000000000000000000000000000000000000000000000000000000000000000000000000000000000000000000000000000000000000000000000000000000000000000000000000000000000000000000000000000000000000000000000000000000000000000000000000000000000000000000000000000000000000000000000000000000000000000000000000000000000000000000000000000000000000000000000000000000000000000000000000000000000000000000000000000000000000000000000000000000000000000000000000000000000000000000000000000000000000000000000",
                    "coinbase" : "0x2adc25665018aa1fe0e6bc666dac8fc2697ff9ba",
                    "difficulty" : "0x020000",
                    "extraData" : "",
                    "gasLimit" : "0x0a00000000",
                    "gasUsed" : "0xf5c2",
                    "hash" : "0xd107b838e5d7b5a2595ca88a6f9059dc8c664c1c0f169bbc9a2915c461267107",
                    "mixHash" : "0xb2f116bc99f8db76ed7a5d271b3016b742582806010801fd354aa27ade344b69",
                    "nonce" : "0xa15167440e19a389",
                    "number" : "0x01",
                    "parentHash" : "0x459a07859844e1e1f5759449c5caad39dcc9f8ef796e63e79254ecae5c611846",
                    "receiptTrie" : "0x9109d888f9ddef66a59f549bd7ceecfb65c56ffdc5b24ae8bc2c3c050afae0fa",
                    "stateRoot" : "0x801190cc0324a89bd7ed1ca453282d463f19346585c31634d38f43294bff135d",
                    "timestamp" : "0x03e8",
                    "transactionsTrie" : "0xddb8defea6c1610afd06dda64253cb99ad91fcdbcd096618c99bbf1d4b43e7ce",
                    "uncleHash" : "0x1dcc4de8dec75d7aab85b567b6ccd41ad312451b948a7413f0a142fd40d49347"
                },
                "rlp" : "0xf90261f901f9a0459a07859844e1e1f5759449c5caad39dcc9f8ef796e63e79254ecae5c611846a01dcc4de8dec75d7aab85b567b6ccd41ad312451b948a7413f0a142fd40d49347942adc25665018aa1fe0e6bc666dac8fc2697ff9baa0801190cc0324a89bd7ed1ca453282d463f19346585c31634d38f43294bff135da0ddb8defea6c1610afd06dda64253cb99ad91fcdbcd096618c99bbf1d4b43e7cea09109d888f9ddef66a59f549bd7ceecfb65c56ffdc5b24ae8bc2c3c050afae0fab90100000000000000000000000000000000000000000000000000000000000000000000000000000000000000000000000000000000000000000000000000000000000000000000000000000000000000000000000000000000000000000000000000000000000000000000000000000000000000000000000000000000000000000000000000000000000000000000000000000000000000000000000000000000000000000000000000000000000000000000000000000000000000000000000000000000000000000000000000000000000000000000000000000000000000000000000000000000000000000000000000000000000000000000000000000000008302000001850a0000000082f5c28203e880a0b2f116bc99f8db76ed7a5d271b3016b742582806010801fd354aa27ade344b6988a15167440e19a389f862f8608001830186a0940f572e5295c57f15886f9b263e2f6d2d6c7b5ec60a801ba0b054e6af901451cf834679b4c625bc4453057b43c728b7632a5ec533ed1f205ba05a8090300acb5cae0f1c1f1208e60b0b6aad49e2951d0725e65cc3663bd6811cc0",
                "transactions" : [
                    {
                        "data" : "",
                        "gasLimit" : "0x0186a0",
                        "gasPrice" : "0x01",
                        "nonce" : "0x00",
                        "r" : "0xb054e6af901451cf834679b4c625bc4453057b43c728b7632a5ec533ed1f205b",
                        "s" : "0x5a8090300acb5cae0f1c1f1208e60b0b6aad49e2951d0725e65cc3663bd6811c",
                        "to" : "0x0f572e5295c57f15886f9b263e2f6d2d6c7b5ec6",
                        "v" : "0x1b",
                        "value" : "0x0a"
                    }
                ],
                "uncleHeaders" : [
                ]
            }
        ],
        "genesisBlockHeader" : {
            "bloom" : "0x00000000000000000000000000000000000000000000000000000000000000000000000000000000000000000000000000000000000000000000000000000000000000000000000000000000000000000000000000000000000000000000000000000000000000000000000000000000000000000000000000000000000000000000000000000000000000000000000000000000000000000000000000000000000000000000000000000000000000000000000000000000000000000000000000000000000000000000000000000000000000000000000000000000000000000000000000000000000000000000000000000000000000000000000000000000",
            "coinbase" : "0x2adc25665018aa1fe0e6bc666dac8fc2697ff9ba",
            "difficulty" : "0x020000",
            "extraData" : "0x42",
            "gasLimit" : "0x0a00000000",
            "gasUsed" : "0x00",
            "hash" : "0x459a07859844e1e1f5759449c5caad39dcc9f8ef796e63e79254ecae5c611846",
            "mixHash" : "0x56e81f171bcc55a6ff8345e692c0f86e5b48e01b996cadc001622fb5e363b421",
            "nonce" : "0x0102030405060708",
            "number" : "0x00",
            "parentHash" : "0x0000000000000000000000000000000000000000000000000000000000000000",
            "receiptTrie" : "0x56e81f171bcc55a6ff8345e692c0f86e5b48e01b996cadc001622fb5e363b421",
            "stateRoot" : "0x654c6ee8a92aa72ee8112aa9c8387b367b94a0c5af80a9cbe8d0803bc6867eef",
            "timestamp" : "0x03b6",
            "transactionsTrie" : "0x56e81f171bcc55a6ff8345e692c0f86e5b48e01b996cadc001622fb5e363b421",
            "uncleHash" : "0x1dcc4de8dec75d7aab85b567b6ccd41ad312451b948a7413f0a142fd40d49347"
        },
        "genesisRLP" : "0xf901fcf901f7a00000000000000000000000000000000000000000000000000000000000000000a01dcc4de8dec75d7aab85b567b6ccd41ad312451b948a7413f0a142fd40d49347942adc25665018aa1fe0e6bc666dac8fc2697ff9baa0654c6ee8a92aa72ee8112aa9c8387b367b94a0c5af80a9cbe8d0803bc6867eefa056e81f171bcc55a6ff8345e692c0f86e5b48e01b996cadc001622fb5e363b421a056e81f171bcc55a6ff8345e692c0f86e5b48e01b996cadc001622fb5e363b421b90100000000000000000000000000000000000000000000000000000000000000000000000000000000000000000000000000000000000000000000000000000000000000000000000000000000000000000000000000000000000000000000000000000000000000000000000000000000000000000000000000000000000000000000000000000000000000000000000000000000000000000000000000000000000000000000000000000000000000000000000000000000000000000000000000000000000000000000000000000000000000000000000000000000000000000000000000000000000000000000000000000000000000000000000000000000008302000080850a00000000808203b642a056e81f171bcc55a6ff8345e692c0f86e5b48e01b996cadc001622fb5e363b421880102030405060708c0c0",
        "lastblockhash" : "0xd107b838e5d7b5a2595ca88a6f9059dc8c664c1c0f169bbc9a2915c461267107",
        "network" : "Homestead",
        "postState" : {
            "0x0f572e5295c57f15886f9b263e2f6d2d6c7b5ec6" : {
                "balance" : "0x0de0b6b3a764000a",
                "code" : "0x6103fe6000525b7e0102030405060708090a0102030405060708090a0102030405060708090a0160016000510360005260005160065700",
                "nonce" : "0x00",
                "storage" : {
                }
            },
            "0x2adc25665018aa1fe0e6bc666dac8fc2697ff9ba" : {
                "balance" : "0x4563918244f4f5c2",
                "code" : "",
                "nonce" : "0x00",
                "storage" : {
                }
            },
            "0xa94f5374fce5edbc8e2a8697c15331677e6ebf0b" : {
                "balance" : "0x63ffff0a34",
                "code" : "",
                "nonce" : "0x01",
                "storage" : {
                }
            }
        },
        "pre" : {
            "0x0f572e5295c57f15886f9b263e2f6d2d6c7b5ec6" : {
                "balance" : "0x0de0b6b3a7640000",
                "code" : "0x6103fe6000525b7e0102030405060708090a0102030405060708090a0102030405060708090a0160016000510360005260005160065700",
                "nonce" : "0x00",
                "storage" : {
                }
            },
            "0xa94f5374fce5edbc8e2a8697c15331677e6ebf0b" : {
                "balance" : "0x6400000000",
                "code" : "",
                "nonce" : "0x00",
                "storage" : {
                }
            }
        }
    }
}