{
    "Transaction64Rule_d64p1_d0g0v0_Byzantium" : {
        "_info" : {
            "comment" : "",
            "filledwith" : "cpp-1.3.0+commit.6e0ce939.Linux.g++",
            "lllcversion" : "Version: 0.4.18-develop.2017.9.25+commit.a72237f2.Linux.g++",
            "source" : "src/BlockchainTestsFiller/GeneralStateTests/stEIP150Specific/Transaction64Rule_d64p1_d0g0v0Filler.json",
            "sourceHash" : "3ecd48df02af37bb2e5f57c736d6a90449a994a4121dffdc975da03ecfe7eecf"
        },
        "blocks" : [
            {
                "blockHeader" : {
                    "bloom" : "0x00000000000000000000000000000000000000000000000000000000000000000000000000000000000000000000000000000000000000000000000000000000000000000000000000000000000000000000000000000000000000000000000000000000000000000000000000000000000000000000000000000000000000000000000000000000000000000000000000000000000000000000000000000000000000000000000000000000000000000000000000000000000000000000000000000000000000000000000000000000000000000000000000000000000000000000000000000000000000000000000000000000000000000000000000000000",
                    "coinbase" : "0x2adc25665018aa1fe0e6bc666dac8fc2697ff9ba",
                    "difficulty" : "0x020000",
                    "extraData" : "",
                    "gasLimit" : "0x989680",
                    "gasUsed" : "0x013f4b",
                    "hash" : "0x2ba7d3a0b67ce0a569161f6e8c1d3496558b471de4c431c04e594d624dfd19bf",
                    "mixHash" : "0xff3d2e8cd7754b943e7ee57d5f3a11ecc553cfd009cb11ee0ce161a2fc4e409e",
                    "nonce" : "0x0e7e22de4968f977",
                    "number" : "0x01",
                    "parentHash" : "0xbef829a9162ec28c4fd407f96b8b2eb2998beca8df7fcc55f197a98dc49cb47d",
                    "receiptTrie" : "0xe06889af26825b4219a6478341e56fd66b386896b598507bfa6e446266239093",
                    "stateRoot" : "0x135516d2e23ada5f1eac64c3d1d00687472f79bc5fbe9e9b925394a12bc84968",
                    "timestamp" : "0x03e8",
                    "transactionsTrie" : "0x415ac69f8993d917d723ca293bafbb107969699af624a34c3a133b35ca2c9be8",
                    "uncleHash" : "0x1dcc4de8dec75d7aab85b567b6ccd41ad312451b948a7413f0a142fd40d49347"
                },
                "rlp" : "0xf90260f901f8a0bef829a9162ec28c4fd407f96b8b2eb2998beca8df7fcc55f197a98dc49cb47da01dcc4de8dec75d7aab85b567b6ccd41ad312451b948a7413f0a142fd40d49347942adc25665018aa1fe0e6bc666dac8fc2697ff9baa0135516d2e23ada5f1eac64c3d1d00687472f79bc5fbe9e9b925394a12bc84968a0415ac69f8993d917d723ca293bafbb107969699af624a34c3a133b35ca2c9be8a0e06889af26825b4219a6478341e56fd66b386896b598507bfa6e446266239093b901000000000000000000000000000000000000000000000000000000000000000000000000000000000000000000000000000000000000000000000000000000000000000000000000000000000000000000000000000000000000000000000000000000000000000000000000000000000000000000000000000000000000000000000000000000000000000000000000000000000000000000000000000000000000000000000000000000000000000000000000000000000000000000000000000000000000000000000000000000000000000000000000000000000000000000000000000000000000000000000000000000000000000000000000000000000083020000018398968083013f4b8203e880a0ff3d2e8cd7754b943e7ee57d5f3a11ecc553cfd009cb11ee0ce161a2fc4e409e880e7e22de4968f977f862f86080018302713f94b94f5374fce5edbc8e2a8697c15331677e6ebf0b80801ca003801ca92a7f88e14cf564051509b3c7a4ac99ba41f13242bcc46e1ad1cc2f7da066b36454017419ca463c95640ec12eb32097dc24e7f4edd8491c9aaaf7d120a9c0",
                "transactions" : [
                    {
                        "data" : "",
                        "gasLimit" : "0x02713f",
                        "gasPrice" : "0x01",
                        "nonce" : "0x00",
                        "r" : "0x03801ca92a7f88e14cf564051509b3c7a4ac99ba41f13242bcc46e1ad1cc2f7d",
                        "s" : "0x66b36454017419ca463c95640ec12eb32097dc24e7f4edd8491c9aaaf7d120a9",
                        "to" : "0xb94f5374fce5edbc8e2a8697c15331677e6ebf0b",
                        "v" : "0x1c",
                        "value" : "0x00"
                    }
                ],
                "uncleHeaders" : [
                ]
            }
        ],
        "genesisBlockHeader" : {
            "bloom" : "0x00000000000000000000000000000000000000000000000000000000000000000000000000000000000000000000000000000000000000000000000000000000000000000000000000000000000000000000000000000000000000000000000000000000000000000000000000000000000000000000000000000000000000000000000000000000000000000000000000000000000000000000000000000000000000000000000000000000000000000000000000000000000000000000000000000000000000000000000000000000000000000000000000000000000000000000000000000000000000000000000000000000000000000000000000000000",
            "coinbase" : "0x2adc25665018aa1fe0e6bc666dac8fc2697ff9ba",
            "difficulty" : "0x020000",
            "extraData" : "0x42",
            "gasLimit" : "0x989680",
            "gasUsed" : "0x00",
            "hash" : "0xbef829a9162ec28c4fd407f96b8b2eb2998beca8df7fcc55f197a98dc49cb47d",
            "mixHash" : "0x56e81f171bcc55a6ff8345e692c0f86e5b48e01b996cadc001622fb5e363b421",
            "nonce" : "0x0102030405060708",
            "number" : "0x00",
            "parentHash" : "0x0000000000000000000000000000000000000000000000000000000000000000",
            "receiptTrie" : "0x56e81f171bcc55a6ff8345e692c0f86e5b48e01b996cadc001622fb5e363b421",
            "stateRoot" : "0x12e10185d929ed9a4f2bf673105d9e1de287a641c59bbf43399740fc05e8156b",
            "timestamp" : "0x03b6",
            "transactionsTrie" : "0x56e81f171bcc55a6ff8345e692c0f86e5b48e01b996cadc001622fb5e363b421",
            "uncleHash" : "0x1dcc4de8dec75d7aab85b567b6ccd41ad312451b948a7413f0a142fd40d49347"
        },
        "genesisRLP" : "0xf901faf901f5a00000000000000000000000000000000000000000000000000000000000000000a01dcc4de8dec75d7aab85b567b6ccd41ad312451b948a7413f0a142fd40d49347942adc25665018aa1fe0e6bc666dac8fc2697ff9baa012e10185d929ed9a4f2bf673105d9e1de287a641c59bbf43399740fc05e8156ba056e81f171bcc55a6ff8345e692c0f86e5b48e01b996cadc001622fb5e363b421a056e81f171bcc55a6ff8345e692c0f86e5b48e01b996cadc001622fb5e363b421b9010000000000000000000000000000000000000000000000000000000000000000000000000000000000000000000000000000000000000000000000000000000000000000000000000000000000000000000000000000000000000000000000000000000000000000000000000000000000000000000000000000000000000000000000000000000000000000000000000000000000000000000000000000000000000000000000000000000000000000000000000000000000000000000000000000000000000000000000000000000000000000000000000000000000000000000000000000000000000000000000000000000000000000000000000000000000830200008083989680808203b642a056e81f171bcc55a6ff8345e692c0f86e5b48e01b996cadc001622fb5e363b421880102030405060708c0c0",
        "lastblockhash" : "0x2ba7d3a0b67ce0a569161f6e8c1d3496558b471de4c431c04e594d624dfd19bf",
        "network" : "Byzantium",
        "postState" : {
            "0x1000000000000000000000000000000000000118" : {
                "balance" : "0x00",
                "code" : "0x600c600155",
                "nonce" : "0x00",
                "storage" : {
                    "0x01" : "0x0c"
                }
            },
            "0x2adc25665018aa1fe0e6bc666dac8fc2697ff9ba" : {
                "balance" : "0x29a2241af62d3f4b",
                "code" : "",
                "nonce" : "0x00",
                "storage" : {
                }
            },
            "0xa94f5374fce5edbc8e2a8697c15331677e6ebf0b" : {
                "balance" : "0xe8d4a3d0b5",
                "code" : "",
                "nonce" : "0x01",
                "storage" : {
                }
            },
            "0xb94f5374fce5edbc8e2a8697c15331677e6ebf0b" : {
                "balance" : "0x00",
                "code" : "0x5a6000556000600060006000600073100000000000000000000000000000000000011862027100f1505a600255",
                "nonce" : "0x00",
                "storage" : {
                    "0x00" : "0x021f35",
                    "0x02" : "0x018017"
                }
            }
        },
        "pre" : {
            "0x1000000000000000000000000000000000000118" : {
                "balance" : "0x00",
                "code" : "0x600c600155",
                "nonce" : "0x00",
                "storage" : {
                }
            },
            "0xa94f5374fce5edbc8e2a8697c15331677e6ebf0b" : {
                "balance" : "0xe8d4a51000",
                "code" : "",
                "nonce" : "0x00",
                "storage" : {
                }
            },
            "0xb94f5374fce5edbc8e2a8697c15331677e6ebf0b" : {
                "balance" : "0x00",
                "code" : "0x5a6000556000600060006000600073100000000000000000000000000000000000011862027100f1505a600255",
                "nonce" : "0x00",
                "storage" : {
                }
            }
        }
    },
    "Transaction64Rule_d64p1_d0g0v0_EIP150" : {
        "_info" : {
            "comment" : "",
            "filledwith" : "cpp-1.3.0+commit.6e0ce939.Linux.g++",
            "lllcversion" : "Version: 0.4.18-develop.2017.9.25+commit.a72237f2.Linux.g++",
            "source" : "src/BlockchainTestsFiller/GeneralStateTests/stEIP150Specific/Transaction64Rule_d64p1_d0g0v0Filler.json",
            "sourceHash" : "3ecd48df02af37bb2e5f57c736d6a90449a994a4121dffdc975da03ecfe7eecf"
        },
        "blocks" : [
            {
                "blockHeader" : {
                    "bloom" : "0x00000000000000000000000000000000000000000000000000000000000000000000000000000000000000000000000000000000000000000000000000000000000000000000000000000000000000000000000000000000000000000000000000000000000000000000000000000000000000000000000000000000000000000000000000000000000000000000000000000000000000000000000000000000000000000000000000000000000000000000000000000000000000000000000000000000000000000000000000000000000000000000000000000000000000000000000000000000000000000000000000000000000000000000000000000000",
                    "coinbase" : "0x2adc25665018aa1fe0e6bc666dac8fc2697ff9ba",
                    "difficulty" : "0x020000",
                    "extraData" : "",
                    "gasLimit" : "0x989680",
                    "gasUsed" : "0x013f4b",
                    "hash" : "0x134f7fa0eb3b308486f19f1227106a5f3ab4770ed8b52f923e126fa2d7dac80f",
                    "mixHash" : "0x30c443b80bfb0c5788385751a161061d832b46b624a799e7f664ceb67f10e494",
                    "nonce" : "0x02fd12acae835331",
                    "number" : "0x01",
                    "parentHash" : "0xbef829a9162ec28c4fd407f96b8b2eb2998beca8df7fcc55f197a98dc49cb47d",
                    "receiptTrie" : "0x520758d78d440c9c75750d9c85d61ebc90b0dd85a8e246e2a5bf642e653fc98c",
                    "stateRoot" : "0x284df7057bca369dfa7c4a85f5d0ab4011ff40951587d73264c7e46eb83fd729",
                    "timestamp" : "0x03e8",
                    "transactionsTrie" : "0x415ac69f8993d917d723ca293bafbb107969699af624a34c3a133b35ca2c9be8",
                    "uncleHash" : "0x1dcc4de8dec75d7aab85b567b6ccd41ad312451b948a7413f0a142fd40d49347"
                },
                "rlp" : "0xf90260f901f8a0bef829a9162ec28c4fd407f96b8b2eb2998beca8df7fcc55f197a98dc49cb47da01dcc4de8dec75d7aab85b567b6ccd41ad312451b948a7413f0a142fd40d49347942adc25665018aa1fe0e6bc666dac8fc2697ff9baa0284df7057bca369dfa7c4a85f5d0ab4011ff40951587d73264c7e46eb83fd729a0415ac69f8993d917d723ca293bafbb107969699af624a34c3a133b35ca2c9be8a0520758d78d440c9c75750d9c85d61ebc90b0dd85a8e246e2a5bf642e653fc98cb901000000000000000000000000000000000000000000000000000000000000000000000000000000000000000000000000000000000000000000000000000000000000000000000000000000000000000000000000000000000000000000000000000000000000000000000000000000000000000000000000000000000000000000000000000000000000000000000000000000000000000000000000000000000000000000000000000000000000000000000000000000000000000000000000000000000000000000000000000000000000000000000000000000000000000000000000000000000000000000000000000000000000000000000000000000000083020000018398968083013f4b8203e880a030c443b80bfb0c5788385751a161061d832b46b624a799e7f664ceb67f10e4948802fd12acae835331f862f86080018302713f94b94f5374fce5edbc8e2a8697c15331677e6ebf0b80801ca003801ca92a7f88e14cf564051509b3c7a4ac99ba41f13242bcc46e1ad1cc2f7da066b36454017419ca463c95640ec12eb32097dc24e7f4edd8491c9aaaf7d120a9c0",
                "transactions" : [
                    {
                        "data" : "",
                        "gasLimit" : "0x02713f",
                        "gasPrice" : "0x01",
                        "nonce" : "0x00",
                        "r" : "0x03801ca92a7f88e14cf564051509b3c7a4ac99ba41f13242bcc46e1ad1cc2f7d",
                        "s" : "0x66b36454017419ca463c95640ec12eb32097dc24e7f4edd8491c9aaaf7d120a9",
                        "to" : "0xb94f5374fce5edbc8e2a8697c15331677e6ebf0b",
                        "v" : "0x1c",
                        "value" : "0x00"
                    }
                ],
                "uncleHeaders" : [
                ]
            }
        ],
        "genesisBlockHeader" : {
            "bloom" : "0x00000000000000000000000000000000000000000000000000000000000000000000000000000000000000000000000000000000000000000000000000000000000000000000000000000000000000000000000000000000000000000000000000000000000000000000000000000000000000000000000000000000000000000000000000000000000000000000000000000000000000000000000000000000000000000000000000000000000000000000000000000000000000000000000000000000000000000000000000000000000000000000000000000000000000000000000000000000000000000000000000000000000000000000000000000000",
            "coinbase" : "0x2adc25665018aa1fe0e6bc666dac8fc2697ff9ba",
            "difficulty" : "0x020000",
            "extraData" : "0x42",
            "gasLimit" : "0x989680",
            "gasUsed" : "0x00",
            "hash" : "0xbef829a9162ec28c4fd407f96b8b2eb2998beca8df7fcc55f197a98dc49cb47d",
            "mixHash" : "0x56e81f171bcc55a6ff8345e692c0f86e5b48e01b996cadc001622fb5e363b421",
            "nonce" : "0x0102030405060708",
            "number" : "0x00",
            "parentHash" : "0x0000000000000000000000000000000000000000000000000000000000000000",
            "receiptTrie" : "0x56e81f171bcc55a6ff8345e692c0f86e5b48e01b996cadc001622fb5e363b421",
            "stateRoot" : "0x12e10185d929ed9a4f2bf673105d9e1de287a641c59bbf43399740fc05e8156b",
            "timestamp" : "0x03b6",
            "transactionsTrie" : "0x56e81f171bcc55a6ff8345e692c0f86e5b48e01b996cadc001622fb5e363b421",
            "uncleHash" : "0x1dcc4de8dec75d7aab85b567b6ccd41ad312451b948a7413f0a142fd40d49347"
        },
        "genesisRLP" : "0xf901faf901f5a00000000000000000000000000000000000000000000000000000000000000000a01dcc4de8dec75d7aab85b567b6ccd41ad312451b948a7413f0a142fd40d49347942adc25665018aa1fe0e6bc666dac8fc2697ff9baa012e10185d929ed9a4f2bf673105d9e1de287a641c59bbf43399740fc05e8156ba056e81f171bcc55a6ff8345e692c0f86e5b48e01b996cadc001622fb5e363b421a056e81f171bcc55a6ff8345e692c0f86e5b48e01b996cadc001622fb5e363b421b9010000000000000000000000000000000000000000000000000000000000000000000000000000000000000000000000000000000000000000000000000000000000000000000000000000000000000000000000000000000000000000000000000000000000000000000000000000000000000000000000000000000000000000000000000000000000000000000000000000000000000000000000000000000000000000000000000000000000000000000000000000000000000000000000000000000000000000000000000000000000000000000000000000000000000000000000000000000000000000000000000000000000000000000000000000000000830200008083989680808203b642a056e81f171bcc55a6ff8345e692c0f86e5b48e01b996cadc001622fb5e363b421880102030405060708c0c0",
        "lastblockhash" : "0x134f7fa0eb3b308486f19f1227106a5f3ab4770ed8b52f923e126fa2d7dac80f",
        "network" : "EIP150",
        "postState" : {
            "0x1000000000000000000000000000000000000118" : {
                "balance" : "0x00",
                "code" : "0x600c600155",
                "nonce" : "0x00",
                "storage" : {
                    "0x01" : "0x0c"
                }
            },
            "0x2adc25665018aa1fe0e6bc666dac8fc2697ff9ba" : {
                "balance" : "0x4563918244f53f4b",
                "code" : "",
                "nonce" : "0x00",
                "storage" : {
                }
            },
            "0xa94f5374fce5edbc8e2a8697c15331677e6ebf0b" : {
                "balance" : "0xe8d4a3d0b5",
                "code" : "",
                "nonce" : "0x01",
                "storage" : {
                }
            },
            "0xb94f5374fce5edbc8e2a8697c15331677e6ebf0b" : {
                "balance" : "0x00",
                "code" : "0x5a6000556000600060006000600073100000000000000000000000000000000000011862027100f1505a600255",
                "nonce" : "0x00",
                "storage" : {
                    "0x00" : "0x021f35",
                    "0x02" : "0x018017"
                }
            }
        },
        "pre" : {
            "0x1000000000000000000000000000000000000118" : {
                "balance" : "0x00",
                "code" : "0x600c600155",
                "nonce" : "0x00",
                "storage" : {
                }
            },
            "0xa94f5374fce5edbc8e2a8697c15331677e6ebf0b" : {
                "balance" : "0xe8d4a51000",
                "code" : "",
                "nonce" : "0x00",
                "storage" : {
                }
            },
            "0xb94f5374fce5edbc8e2a8697c15331677e6ebf0b" : {
                "balance" : "0x00",
                "code" : "0x5a6000556000600060006000600073100000000000000000000000000000000000011862027100f1505a600255",
                "nonce" : "0x00",
                "storage" : {
                }
            }
        }
    },
    "Transaction64Rule_d64p1_d0g0v0_EIP158" : {
        "_info" : {
            "comment" : "",
            "filledwith" : "cpp-1.3.0+commit.6e0ce939.Linux.g++",
            "lllcversion" : "Version: 0.4.18-develop.2017.9.25+commit.a72237f2.Linux.g++",
            "source" : "src/BlockchainTestsFiller/GeneralStateTests/stEIP150Specific/Transaction64Rule_d64p1_d0g0v0Filler.json",
            "sourceHash" : "3ecd48df02af37bb2e5f57c736d6a90449a994a4121dffdc975da03ecfe7eecf"
        },
        "blocks" : [
            {
                "blockHeader" : {
                    "bloom" : "0x00000000000000000000000000000000000000000000000000000000000000000000000000000000000000000000000000000000000000000000000000000000000000000000000000000000000000000000000000000000000000000000000000000000000000000000000000000000000000000000000000000000000000000000000000000000000000000000000000000000000000000000000000000000000000000000000000000000000000000000000000000000000000000000000000000000000000000000000000000000000000000000000000000000000000000000000000000000000000000000000000000000000000000000000000000000",
                    "coinbase" : "0x2adc25665018aa1fe0e6bc666dac8fc2697ff9ba",
                    "difficulty" : "0x020000",
                    "extraData" : "",
                    "gasLimit" : "0x989680",
                    "gasUsed" : "0x013f4b",
                    "hash" : "0x564d48f592b5548709c998a313035ba505e820c26b3077a2ac21b4d09f0e9377",
                    "mixHash" : "0x5d472bfff6dd715cc950e8b82937b80d0472da4aa0408e5f9a18c218fcf17b9e",
                    "nonce" : "0xdb11951cdc60f009",
                    "number" : "0x01",
                    "parentHash" : "0xbef829a9162ec28c4fd407f96b8b2eb2998beca8df7fcc55f197a98dc49cb47d",
                    "receiptTrie" : "0x520758d78d440c9c75750d9c85d61ebc90b0dd85a8e246e2a5bf642e653fc98c",
                    "stateRoot" : "0x284df7057bca369dfa7c4a85f5d0ab4011ff40951587d73264c7e46eb83fd729",
                    "timestamp" : "0x03e8",
                    "transactionsTrie" : "0x415ac69f8993d917d723ca293bafbb107969699af624a34c3a133b35ca2c9be8",
                    "uncleHash" : "0x1dcc4de8dec75d7aab85b567b6ccd41ad312451b948a7413f0a142fd40d49347"
                },
                "rlp" : "0xf90260f901f8a0bef829a9162ec28c4fd407f96b8b2eb2998beca8df7fcc55f197a98dc49cb47da01dcc4de8dec75d7aab85b567b6ccd41ad312451b948a7413f0a142fd40d49347942adc25665018aa1fe0e6bc666dac8fc2697ff9baa0284df7057bca369dfa7c4a85f5d0ab4011ff40951587d73264c7e46eb83fd729a0415ac69f8993d917d723ca293bafbb107969699af624a34c3a133b35ca2c9be8a0520758d78d440c9c75750d9c85d61ebc90b0dd85a8e246e2a5bf642e653fc98cb901000000000000000000000000000000000000000000000000000000000000000000000000000000000000000000000000000000000000000000000000000000000000000000000000000000000000000000000000000000000000000000000000000000000000000000000000000000000000000000000000000000000000000000000000000000000000000000000000000000000000000000000000000000000000000000000000000000000000000000000000000000000000000000000000000000000000000000000000000000000000000000000000000000000000000000000000000000000000000000000000000000000000000000000000000000000083020000018398968083013f4b8203e880a05d472bfff6dd715cc950e8b82937b80d0472da4aa0408e5f9a18c218fcf17b9e88db11951cdc60f009f862f86080018302713f94b94f5374fce5edbc8e2a8697c15331677e6ebf0b80801ca003801ca92a7f88e14cf564051509b3c7a4ac99ba41f13242bcc46e1ad1cc2f7da066b36454017419ca463c95640ec12eb32097dc24e7f4edd8491c9aaaf7d120a9c0",
                "transactions" : [
                    {
                        "data" : "",
                        "gasLimit" : "0x02713f",
                        "gasPrice" : "0x01",
                        "nonce" : "0x00",
                        "r" : "0x03801ca92a7f88e14cf564051509b3c7a4ac99ba41f13242bcc46e1ad1cc2f7d",
                        "s" : "0x66b36454017419ca463c95640ec12eb32097dc24e7f4edd8491c9aaaf7d120a9",
                        "to" : "0xb94f5374fce5edbc8e2a8697c15331677e6ebf0b",
                        "v" : "0x1c",
                        "value" : "0x00"
                    }
                ],
                "uncleHeaders" : [
                ]
            }
        ],
        "genesisBlockHeader" : {
            "bloom" : "0x00000000000000000000000000000000000000000000000000000000000000000000000000000000000000000000000000000000000000000000000000000000000000000000000000000000000000000000000000000000000000000000000000000000000000000000000000000000000000000000000000000000000000000000000000000000000000000000000000000000000000000000000000000000000000000000000000000000000000000000000000000000000000000000000000000000000000000000000000000000000000000000000000000000000000000000000000000000000000000000000000000000000000000000000000000000",
            "coinbase" : "0x2adc25665018aa1fe0e6bc666dac8fc2697ff9ba",
            "difficulty" : "0x020000",
            "extraData" : "0x42",
            "gasLimit" : "0x989680",
            "gasUsed" : "0x00",
            "hash" : "0xbef829a9162ec28c4fd407f96b8b2eb2998beca8df7fcc55f197a98dc49cb47d",
            "mixHash" : "0x56e81f171bcc55a6ff8345e692c0f86e5b48e01b996cadc001622fb5e363b421",
            "nonce" : "0x0102030405060708",
            "number" : "0x00",
            "parentHash" : "0x0000000000000000000000000000000000000000000000000000000000000000",
            "receiptTrie" : "0x56e81f171bcc55a6ff8345e692c0f86e5b48e01b996cadc001622fb5e363b421",
            "stateRoot" : "0x12e10185d929ed9a4f2bf673105d9e1de287a641c59bbf43399740fc05e8156b",
            "timestamp" : "0x03b6",
            "transactionsTrie" : "0x56e81f171bcc55a6ff8345e692c0f86e5b48e01b996cadc001622fb5e363b421",
            "uncleHash" : "0x1dcc4de8dec75d7aab85b567b6ccd41ad312451b948a7413f0a142fd40d49347"
        },
        "genesisRLP" : "0xf901faf901f5a00000000000000000000000000000000000000000000000000000000000000000a01dcc4de8dec75d7aab85b567b6ccd41ad312451b948a7413f0a142fd40d49347942adc25665018aa1fe0e6bc666dac8fc2697ff9baa012e10185d929ed9a4f2bf673105d9e1de287a641c59bbf43399740fc05e8156ba056e81f171bcc55a6ff8345e692c0f86e5b48e01b996cadc001622fb5e363b421a056e81f171bcc55a6ff8345e692c0f86e5b48e01b996cadc001622fb5e363b421b9010000000000000000000000000000000000000000000000000000000000000000000000000000000000000000000000000000000000000000000000000000000000000000000000000000000000000000000000000000000000000000000000000000000000000000000000000000000000000000000000000000000000000000000000000000000000000000000000000000000000000000000000000000000000000000000000000000000000000000000000000000000000000000000000000000000000000000000000000000000000000000000000000000000000000000000000000000000000000000000000000000000000000000000000000000000000830200008083989680808203b642a056e81f171bcc55a6ff8345e692c0f86e5b48e01b996cadc001622fb5e363b421880102030405060708c0c0",
        "lastblockhash" : "0x564d48f592b5548709c998a313035ba505e820c26b3077a2ac21b4d09f0e9377",
        "network" : "EIP158",
        "postState" : {
            "0x1000000000000000000000000000000000000118" : {
                "balance" : "0x00",
                "code" : "0x600c600155",
                "nonce" : "0x00",
                "storage" : {
                    "0x01" : "0x0c"
                }
            },
            "0x2adc25665018aa1fe0e6bc666dac8fc2697ff9ba" : {
                "balance" : "0x4563918244f53f4b",
                "code" : "",
                "nonce" : "0x00",
                "storage" : {
                }
            },
            "0xa94f5374fce5edbc8e2a8697c15331677e6ebf0b" : {
                "balance" : "0xe8d4a3d0b5",
                "code" : "",
                "nonce" : "0x01",
                "storage" : {
                }
            },
            "0xb94f5374fce5edbc8e2a8697c15331677e6ebf0b" : {
                "balance" : "0x00",
                "code" : "0x5a6000556000600060006000600073100000000000000000000000000000000000011862027100f1505a600255",
                "nonce" : "0x00",
                "storage" : {
                    "0x00" : "0x021f35",
                    "0x02" : "0x018017"
                }
            }
        },
        "pre" : {
            "0x1000000000000000000000000000000000000118" : {
                "balance" : "0x00",
                "code" : "0x600c600155",
                "nonce" : "0x00",
                "storage" : {
                }
            },
            "0xa94f5374fce5edbc8e2a8697c15331677e6ebf0b" : {
                "balance" : "0xe8d4a51000",
                "code" : "",
                "nonce" : "0x00",
                "storage" : {
                }
            },
            "0xb94f5374fce5edbc8e2a8697c15331677e6ebf0b" : {
                "balance" : "0x00",
                "code" : "0x5a6000556000600060006000600073100000000000000000000000000000000000011862027100f1505a600255",
                "nonce" : "0x00",
                "storage" : {
                }
            }
        }
    },
    "Transaction64Rule_d64p1_d0g0v0_Frontier" : {
        "_info" : {
            "comment" : "",
            "filledwith" : "cpp-1.3.0+commit.6e0ce939.Linux.g++",
            "lllcversion" : "Version: 0.4.18-develop.2017.9.25+commit.a72237f2.Linux.g++",
            "source" : "src/BlockchainTestsFiller/GeneralStateTests/stEIP150Specific/Transaction64Rule_d64p1_d0g0v0Filler.json",
            "sourceHash" : "3ecd48df02af37bb2e5f57c736d6a90449a994a4121dffdc975da03ecfe7eecf"
        },
        "blocks" : [
            {
                "blockHeader" : {
                    "bloom" : "0x00000000000000000000000000000000000000000000000000000000000000000000000000000000000000000000000000000000000000000000000000000000000000000000000000000000000000000000000000000000000000000000000000000000000000000000000000000000000000000000000000000000000000000000000000000000000000000000000000000000000000000000000000000000000000000000000000000000000000000000000000000000000000000000000000000000000000000000000000000000000000000000000000000000000000000000000000000000000000000000000000000000000000000000000000000000",
                    "coinbase" : "0x2adc25665018aa1fe0e6bc666dac8fc2697ff9ba",
                    "difficulty" : "0x020000",
                    "extraData" : "",
                    "gasLimit" : "0x989680",
                    "gasUsed" : "0x02713f",
                    "hash" : "0x460d5e50eb211e11d394a1afd626a262747986258b7597bf8012dd7d7b0ba85a",
                    "mixHash" : "0x107dac5beeb2e9e2926b00f32b11e4d46a126c58eacf89a0807a7fa2e6c3affc",
                    "nonce" : "0xf8c26ee3c4005371",
                    "number" : "0x01",
                    "parentHash" : "0xbef829a9162ec28c4fd407f96b8b2eb2998beca8df7fcc55f197a98dc49cb47d",
                    "receiptTrie" : "0x1039f008631839f0b6c174492b9efbdb49032a069c2b0edc914a62bf0b7082b7",
                    "stateRoot" : "0x1242ca26464292bd435707675ba47f46b6b0856431f722ef163967d8a56ff85b",
                    "timestamp" : "0x03e8",
                    "transactionsTrie" : "0x415ac69f8993d917d723ca293bafbb107969699af624a34c3a133b35ca2c9be8",
                    "uncleHash" : "0x1dcc4de8dec75d7aab85b567b6ccd41ad312451b948a7413f0a142fd40d49347"
                },
                "rlp" : "0xf90260f901f8a0bef829a9162ec28c4fd407f96b8b2eb2998beca8df7fcc55f197a98dc49cb47da01dcc4de8dec75d7aab85b567b6ccd41ad312451b948a7413f0a142fd40d49347942adc25665018aa1fe0e6bc666dac8fc2697ff9baa01242ca26464292bd435707675ba47f46b6b0856431f722ef163967d8a56ff85ba0415ac69f8993d917d723ca293bafbb107969699af624a34c3a133b35ca2c9be8a01039f008631839f0b6c174492b9efbdb49032a069c2b0edc914a62bf0b7082b7b90100000000000000000000000000000000000000000000000000000000000000000000000000000000000000000000000000000000000000000000000000000000000000000000000000000000000000000000000000000000000000000000000000000000000000000000000000000000000000000000000000000000000000000000000000000000000000000000000000000000000000000000000000000000000000000000000000000000000000000000000000000000000000000000000000000000000000000000000000000000000000000000000000000000000000000000000000000000000000000000000000000000000000000000000000000000008302000001839896808302713f8203e880a0107dac5beeb2e9e2926b00f32b11e4d46a126c58eacf89a0807a7fa2e6c3affc88f8c26ee3c4005371f862f86080018302713f94b94f5374fce5edbc8e2a8697c15331677e6ebf0b80801ca003801ca92a7f88e14cf564051509b3c7a4ac99ba41f13242bcc46e1ad1cc2f7da066b36454017419ca463c95640ec12eb32097dc24e7f4edd8491c9aaaf7d120a9c0",
                "transactions" : [
                    {
                        "data" : "",
                        "gasLimit" : "0x02713f",
                        "gasPrice" : "0x01",
                        "nonce" : "0x00",
                        "r" : "0x03801ca92a7f88e14cf564051509b3c7a4ac99ba41f13242bcc46e1ad1cc2f7d",
                        "s" : "0x66b36454017419ca463c95640ec12eb32097dc24e7f4edd8491c9aaaf7d120a9",
                        "to" : "0xb94f5374fce5edbc8e2a8697c15331677e6ebf0b",
                        "v" : "0x1c",
                        "value" : "0x00"
                    }
                ],
                "uncleHeaders" : [
                ]
            }
        ],
        "genesisBlockHeader" : {
            "bloom" : "0x00000000000000000000000000000000000000000000000000000000000000000000000000000000000000000000000000000000000000000000000000000000000000000000000000000000000000000000000000000000000000000000000000000000000000000000000000000000000000000000000000000000000000000000000000000000000000000000000000000000000000000000000000000000000000000000000000000000000000000000000000000000000000000000000000000000000000000000000000000000000000000000000000000000000000000000000000000000000000000000000000000000000000000000000000000000",
            "coinbase" : "0x2adc25665018aa1fe0e6bc666dac8fc2697ff9ba",
            "difficulty" : "0x020000",
            "extraData" : "0x42",
            "gasLimit" : "0x989680",
            "gasUsed" : "0x00",
            "hash" : "0xbef829a9162ec28c4fd407f96b8b2eb2998beca8df7fcc55f197a98dc49cb47d",
            "mixHash" : "0x56e81f171bcc55a6ff8345e692c0f86e5b48e01b996cadc001622fb5e363b421",
            "nonce" : "0x0102030405060708",
            "number" : "0x00",
            "parentHash" : "0x0000000000000000000000000000000000000000000000000000000000000000",
            "receiptTrie" : "0x56e81f171bcc55a6ff8345e692c0f86e5b48e01b996cadc001622fb5e363b421",
            "stateRoot" : "0x12e10185d929ed9a4f2bf673105d9e1de287a641c59bbf43399740fc05e8156b",
            "timestamp" : "0x03b6",
            "transactionsTrie" : "0x56e81f171bcc55a6ff8345e692c0f86e5b48e01b996cadc001622fb5e363b421",
            "uncleHash" : "0x1dcc4de8dec75d7aab85b567b6ccd41ad312451b948a7413f0a142fd40d49347"
        },
        "genesisRLP" : "0xf901faf901f5a00000000000000000000000000000000000000000000000000000000000000000a01dcc4de8dec75d7aab85b567b6ccd41ad312451b948a7413f0a142fd40d49347942adc25665018aa1fe0e6bc666dac8fc2697ff9baa012e10185d929ed9a4f2bf673105d9e1de287a641c59bbf43399740fc05e8156ba056e81f171bcc55a6ff8345e692c0f86e5b48e01b996cadc001622fb5e363b421a056e81f171bcc55a6ff8345e692c0f86e5b48e01b996cadc001622fb5e363b421b9010000000000000000000000000000000000000000000000000000000000000000000000000000000000000000000000000000000000000000000000000000000000000000000000000000000000000000000000000000000000000000000000000000000000000000000000000000000000000000000000000000000000000000000000000000000000000000000000000000000000000000000000000000000000000000000000000000000000000000000000000000000000000000000000000000000000000000000000000000000000000000000000000000000000000000000000000000000000000000000000000000000000000000000000000000000000830200008083989680808203b642a056e81f171bcc55a6ff8345e692c0f86e5b48e01b996cadc001622fb5e363b421880102030405060708c0c0",
        "lastblockhash" : "0x460d5e50eb211e11d394a1afd626a262747986258b7597bf8012dd7d7b0ba85a",
        "network" : "Frontier",
        "postState" : {
            "0x1000000000000000000000000000000000000118" : {
                "balance" : "0x00",
                "code" : "0x600c600155",
                "nonce" : "0x00",
                "storage" : {
                }
            },
            "0x2adc25665018aa1fe0e6bc666dac8fc2697ff9ba" : {
                "balance" : "0x4563918244f6713f",
                "code" : "",
                "nonce" : "0x00",
                "storage" : {
                }
            },
            "0xa94f5374fce5edbc8e2a8697c15331677e6ebf0b" : {
                "balance" : "0xe8d4a29ec1",
                "code" : "",
                "nonce" : "0x01",
                "storage" : {
                }
            },
            "0xb94f5374fce5edbc8e2a8697c15331677e6ebf0b" : {
                "balance" : "0x00",
                "code" : "0x5a6000556000600060006000600073100000000000000000000000000000000000011862027100f1505a600255",
                "nonce" : "0x00",
                "storage" : {
                }
            }
        },
        "pre" : {
            "0x1000000000000000000000000000000000000118" : {
                "balance" : "0x00",
                "code" : "0x600c600155",
                "nonce" : "0x00",
                "storage" : {
                }
            },
            "0xa94f5374fce5edbc8e2a8697c15331677e6ebf0b" : {
                "balance" : "0xe8d4a51000",
                "code" : "",
                "nonce" : "0x00",
                "storage" : {
                }
            },
            "0xb94f5374fce5edbc8e2a8697c15331677e6ebf0b" : {
                "balance" : "0x00",
                "code" : "0x5a6000556000600060006000600073100000000000000000000000000000000000011862027100f1505a600255",
                "nonce" : "0x00",
                "storage" : {
                }
            }
        }
    },
    "Transaction64Rule_d64p1_d0g0v0_Homestead" : {
        "_info" : {
            "comment" : "",
            "filledwith" : "cpp-1.3.0+commit.6e0ce939.Linux.g++",
            "lllcversion" : "Version: 0.4.18-develop.2017.9.25+commit.a72237f2.Linux.g++",
            "source" : "src/BlockchainTestsFiller/GeneralStateTests/stEIP150Specific/Transaction64Rule_d64p1_d0g0v0Filler.json",
            "sourceHash" : "3ecd48df02af37bb2e5f57c736d6a90449a994a4121dffdc975da03ecfe7eecf"
        },
        "blocks" : [
            {
                "blockHeader" : {
                    "bloom" : "0x00000000000000000000000000000000000000000000000000000000000000000000000000000000000000000000000000000000000000000000000000000000000000000000000000000000000000000000000000000000000000000000000000000000000000000000000000000000000000000000000000000000000000000000000000000000000000000000000000000000000000000000000000000000000000000000000000000000000000000000000000000000000000000000000000000000000000000000000000000000000000000000000000000000000000000000000000000000000000000000000000000000000000000000000000000000",
                    "coinbase" : "0x2adc25665018aa1fe0e6bc666dac8fc2697ff9ba",
                    "difficulty" : "0x020000",
                    "extraData" : "",
                    "gasLimit" : "0x989680",
                    "gasUsed" : "0x02713f",
                    "hash" : "0x3d07f2781f008b29ae7d49cc6cd0c45565edfb2d5a8ac15b39a2c19e1b9babb0",
                    "mixHash" : "0x197c71445c6e62683f925a148acb9ace87b753913dc052623981ba173b6332e4",
                    "nonce" : "0xbd09572c8033285c",
                    "number" : "0x01",
                    "parentHash" : "0xbef829a9162ec28c4fd407f96b8b2eb2998beca8df7fcc55f197a98dc49cb47d",
                    "receiptTrie" : "0x1039f008631839f0b6c174492b9efbdb49032a069c2b0edc914a62bf0b7082b7",
                    "stateRoot" : "0x1242ca26464292bd435707675ba47f46b6b0856431f722ef163967d8a56ff85b",
                    "timestamp" : "0x03e8",
                    "transactionsTrie" : "0x415ac69f8993d917d723ca293bafbb107969699af624a34c3a133b35ca2c9be8",
                    "uncleHash" : "0x1dcc4de8dec75d7aab85b567b6ccd41ad312451b948a7413f0a142fd40d49347"
                },
                "rlp" : "0xf90260f901f8a0bef829a9162ec28c4fd407f96b8b2eb2998beca8df7fcc55f197a98dc49cb47da01dcc4de8dec75d7aab85b567b6ccd41ad312451b948a7413f0a142fd40d49347942adc25665018aa1fe0e6bc666dac8fc2697ff9baa01242ca26464292bd435707675ba47f46b6b0856431f722ef163967d8a56ff85ba0415ac69f8993d917d723ca293bafbb107969699af624a34c3a133b35ca2c9be8a01039f008631839f0b6c174492b9efbdb49032a069c2b0edc914a62bf0b7082b7b90100000000000000000000000000000000000000000000000000000000000000000000000000000000000000000000000000000000000000000000000000000000000000000000000000000000000000000000000000000000000000000000000000000000000000000000000000000000000000000000000000000000000000000000000000000000000000000000000000000000000000000000000000000000000000000000000000000000000000000000000000000000000000000000000000000000000000000000000000000000000000000000000000000000000000000000000000000000000000000000000000000000000000000000000000000000008302000001839896808302713f8203e880a0197c71445c6e62683f925a148acb9ace87b753913dc052623981ba173b6332e488bd09572c8033285cf862f86080018302713f94b94f5374fce5edbc8e2a8697c15331677e6ebf0b80801ca003801ca92a7f88e14cf564051509b3c7a4ac99ba41f13242bcc46e1ad1cc2f7da066b36454017419ca463c95640ec12eb32097dc24e7f4edd8491c9aaaf7d120a9c0",
                "transactions" : [
                    {
                        "data" : "",
                        "gasLimit" : "0x02713f",
                        "gasPrice" : "0x01",
                        "nonce" : "0x00",
                        "r" : "0x03801ca92a7f88e14cf564051509b3c7a4ac99ba41f13242bcc46e1ad1cc2f7d",
                        "s" : "0x66b36454017419ca463c95640ec12eb32097dc24e7f4edd8491c9aaaf7d120a9",
                        "to" : "0xb94f5374fce5edbc8e2a8697c15331677e6ebf0b",
                        "v" : "0x1c",
                        "value" : "0x00"
                    }
                ],
                "uncleHeaders" : [
                ]
            }
        ],
        "genesisBlockHeader" : {
            "bloom" : "0x00000000000000000000000000000000000000000000000000000000000000000000000000000000000000000000000000000000000000000000000000000000000000000000000000000000000000000000000000000000000000000000000000000000000000000000000000000000000000000000000000000000000000000000000000000000000000000000000000000000000000000000000000000000000000000000000000000000000000000000000000000000000000000000000000000000000000000000000000000000000000000000000000000000000000000000000000000000000000000000000000000000000000000000000000000000",
            "coinbase" : "0x2adc25665018aa1fe0e6bc666dac8fc2697ff9ba",
            "difficulty" : "0x020000",
            "extraData" : "0x42",
            "gasLimit" : "0x989680",
            "gasUsed" : "0x00",
            "hash" : "0xbef829a9162ec28c4fd407f96b8b2eb2998beca8df7fcc55f197a98dc49cb47d",
            "mixHash" : "0x56e81f171bcc55a6ff8345e692c0f86e5b48e01b996cadc001622fb5e363b421",
            "nonce" : "0x0102030405060708",
            "number" : "0x00",
            "parentHash" : "0x0000000000000000000000000000000000000000000000000000000000000000",
            "receiptTrie" : "0x56e81f171bcc55a6ff8345e692c0f86e5b48e01b996cadc001622fb5e363b421",
            "stateRoot" : "0x12e10185d929ed9a4f2bf673105d9e1de287a641c59bbf43399740fc05e8156b",
            "timestamp" : "0x03b6",
            "transactionsTrie" : "0x56e81f171bcc55a6ff8345e692c0f86e5b48e01b996cadc001622fb5e363b421",
            "uncleHash" : "0x1dcc4de8dec75d7aab85b567b6ccd41ad312451b948a7413f0a142fd40d49347"
        },
        "genesisRLP" : "0xf901faf901f5a00000000000000000000000000000000000000000000000000000000000000000a01dcc4de8dec75d7aab85b567b6ccd41ad312451b948a7413f0a142fd40d49347942adc25665018aa1fe0e6bc666dac8fc2697ff9baa012e10185d929ed9a4f2bf673105d9e1de287a641c59bbf43399740fc05e8156ba056e81f171bcc55a6ff8345e692c0f86e5b48e01b996cadc001622fb5e363b421a056e81f171bcc55a6ff8345e692c0f86e5b48e01b996cadc001622fb5e363b421b9010000000000000000000000000000000000000000000000000000000000000000000000000000000000000000000000000000000000000000000000000000000000000000000000000000000000000000000000000000000000000000000000000000000000000000000000000000000000000000000000000000000000000000000000000000000000000000000000000000000000000000000000000000000000000000000000000000000000000000000000000000000000000000000000000000000000000000000000000000000000000000000000000000000000000000000000000000000000000000000000000000000000000000000000000000000000830200008083989680808203b642a056e81f171bcc55a6ff8345e692c0f86e5b48e01b996cadc001622fb5e363b421880102030405060708c0c0",
        "lastblockhash" : "0x3d07f2781f008b29ae7d49cc6cd0c45565edfb2d5a8ac15b39a2c19e1b9babb0",
        "network" : "Homestead",
        "postState" : {
            "0x1000000000000000000000000000000000000118" : {
                "balance" : "0x00",
                "code" : "0x600c600155",
                "nonce" : "0x00",
                "storage" : {
                }
            },
            "0x2adc25665018aa1fe0e6bc666dac8fc2697ff9ba" : {
                "balance" : "0x4563918244f6713f",
                "code" : "",
                "nonce" : "0x00",
                "storage" : {
                }
            },
            "0xa94f5374fce5edbc8e2a8697c15331677e6ebf0b" : {
                "balance" : "0xe8d4a29ec1",
                "code" : "",
                "nonce" : "0x01",
                "storage" : {
                }
            },
            "0xb94f5374fce5edbc8e2a8697c15331677e6ebf0b" : {
                "balance" : "0x00",
                "code" : "0x5a6000556000600060006000600073100000000000000000000000000000000000011862027100f1505a600255",
                "nonce" : "0x00",
                "storage" : {
                }
            }
        },
        "pre" : {
            "0x1000000000000000000000000000000000000118" : {
                "balance" : "0x00",
                "code" : "0x600c600155",
                "nonce" : "0x00",
                "storage" : {
                }
            },
            "0xa94f5374fce5edbc8e2a8697c15331677e6ebf0b" : {
                "balance" : "0xe8d4a51000",
                "code" : "",
                "nonce" : "0x00",
                "storage" : {
                }
            },
            "0xb94f5374fce5edbc8e2a8697c15331677e6ebf0b" : {
                "balance" : "0x00",
                "code" : "0x5a6000556000600060006000600073100000000000000000000000000000000000011862027100f1505a600255",
                "nonce" : "0x00",
                "storage" : {
                }
            }
        }
    }
}