{
    "Transaction64Rule_d64e0_d0g0v0_Byzantium" : {
        "_info" : {
            "comment" : "",
            "filledwith" : "cpp-1.3.0+commit.6e0ce939.Linux.g++",
            "lllcversion" : "Version: 0.4.18-develop.2017.9.25+commit.a72237f2.Linux.g++",
            "source" : "src/BlockchainTestsFiller/GeneralStateTests/stEIP150Specific/Transaction64Rule_d64e0_d0g0v0Filler.json",
            "sourceHash" : "b053efd479f4e07c707d18157b21561198e708f54cadef2d0e483a1727905343"
        },
        "blocks" : [
            {
                "blockHeader" : {
                    "bloom" : "0x00000000000000000000000000000000000000000000000000000000000000000000000000000000000000000000000000000000000000000000000000000000000000000000000000000000000000000000000000000000000000000000000000000000000000000000000000000000000000000000000000000000000000000000000000000000000000000000000000000000000000000000000000000000000000000000000000000000000000000000000000000000000000000000000000000000000000000000000000000000000000000000000000000000000000000000000000000000000000000000000000000000000000000000000000000000",
                    "coinbase" : "0x2adc25665018aa1fe0e6bc666dac8fc2697ff9ba",
                    "difficulty" : "0x020000",
                    "extraData" : "",
                    "gasLimit" : "0x989680",
                    "gasUsed" : "0x013f4b",
                    "hash" : "0xb214b29fad6b802f4b55d8f38cdab655b8e4d9d4966127bdd28d1029f9718984",
                    "mixHash" : "0x0f05d9dfc0af32ca53d7dcdeed8f3e506ec1d15a7537d539d98fd45b419fa0ff",
                    "nonce" : "0x30f04b0b112dd5c8",
                    "number" : "0x01",
                    "parentHash" : "0xbef829a9162ec28c4fd407f96b8b2eb2998beca8df7fcc55f197a98dc49cb47d",
                    "receiptTrie" : "0xe06889af26825b4219a6478341e56fd66b386896b598507bfa6e446266239093",
                    "stateRoot" : "0x33151b30158ee672692a5a506febf228413b63010a771a85a0804c869d1f2346",
                    "timestamp" : "0x03e8",
                    "transactionsTrie" : "0xd02fc60ef394b0f4d36b7daf6b0d6acfe3fd0256d7872ad93116eb514929f59e",
                    "uncleHash" : "0x1dcc4de8dec75d7aab85b567b6ccd41ad312451b948a7413f0a142fd40d49347"
                },
                "rlp" : "0xf90260f901f8a0bef829a9162ec28c4fd407f96b8b2eb2998beca8df7fcc55f197a98dc49cb47da01dcc4de8dec75d7aab85b567b6ccd41ad312451b948a7413f0a142fd40d49347942adc25665018aa1fe0e6bc666dac8fc2697ff9baa033151b30158ee672692a5a506febf228413b63010a771a85a0804c869d1f2346a0d02fc60ef394b0f4d36b7daf6b0d6acfe3fd0256d7872ad93116eb514929f59ea0e06889af26825b4219a6478341e56fd66b386896b598507bfa6e446266239093b901000000000000000000000000000000000000000000000000000000000000000000000000000000000000000000000000000000000000000000000000000000000000000000000000000000000000000000000000000000000000000000000000000000000000000000000000000000000000000000000000000000000000000000000000000000000000000000000000000000000000000000000000000000000000000000000000000000000000000000000000000000000000000000000000000000000000000000000000000000000000000000000000000000000000000000000000000000000000000000000000000000000000000000000000000000000083020000018398968083013f4b8203e880a00f05d9dfc0af32ca53d7dcdeed8f3e506ec1d15a7537d539d98fd45b419fa0ff8830f04b0b112dd5c8f862f86080018302713e94b94f5374fce5edbc8e2a8697c15331677e6ebf0b80801ba05d708778ba066e19336af45ad9148bd0cfce2499c1296faa3ee9335fb85a68c5a0093c5b2906d9a5bf87d9b9c43b2bee75eaa2f9237c3a49cad1a171f11ed69f6dc0",
                "transactions" : [
                    {
                        "data" : "",
                        "gasLimit" : "0x02713e",
                        "gasPrice" : "0x01",
                        "nonce" : "0x00",
                        "r" : "0x5d708778ba066e19336af45ad9148bd0cfce2499c1296faa3ee9335fb85a68c5",
                        "s" : "0x093c5b2906d9a5bf87d9b9c43b2bee75eaa2f9237c3a49cad1a171f11ed69f6d",
                        "to" : "0xb94f5374fce5edbc8e2a8697c15331677e6ebf0b",
                        "v" : "0x1b",
                        "value" : "0x00"
                    }
                ],
                "uncleHeaders" : [
                ]
            }
        ],
        "genesisBlockHeader" : {
            "bloom" : "0x00000000000000000000000000000000000000000000000000000000000000000000000000000000000000000000000000000000000000000000000000000000000000000000000000000000000000000000000000000000000000000000000000000000000000000000000000000000000000000000000000000000000000000000000000000000000000000000000000000000000000000000000000000000000000000000000000000000000000000000000000000000000000000000000000000000000000000000000000000000000000000000000000000000000000000000000000000000000000000000000000000000000000000000000000000000",
            "coinbase" : "0x2adc25665018aa1fe0e6bc666dac8fc2697ff9ba",
            "difficulty" : "0x020000",
            "extraData" : "0x42",
            "gasLimit" : "0x989680",
            "gasUsed" : "0x00",
            "hash" : "0xbef829a9162ec28c4fd407f96b8b2eb2998beca8df7fcc55f197a98dc49cb47d",
            "mixHash" : "0x56e81f171bcc55a6ff8345e692c0f86e5b48e01b996cadc001622fb5e363b421",
            "nonce" : "0x0102030405060708",
            "number" : "0x00",
            "parentHash" : "0x0000000000000000000000000000000000000000000000000000000000000000",
            "receiptTrie" : "0x56e81f171bcc55a6ff8345e692c0f86e5b48e01b996cadc001622fb5e363b421",
            "stateRoot" : "0x12e10185d929ed9a4f2bf673105d9e1de287a641c59bbf43399740fc05e8156b",
            "timestamp" : "0x03b6",
            "transactionsTrie" : "0x56e81f171bcc55a6ff8345e692c0f86e5b48e01b996cadc001622fb5e363b421",
            "uncleHash" : "0x1dcc4de8dec75d7aab85b567b6ccd41ad312451b948a7413f0a142fd40d49347"
        },
        "genesisRLP" : "0xf901faf901f5a00000000000000000000000000000000000000000000000000000000000000000a01dcc4de8dec75d7aab85b567b6ccd41ad312451b948a7413f0a142fd40d49347942adc25665018aa1fe0e6bc666dac8fc2697ff9baa012e10185d929ed9a4f2bf673105d9e1de287a641c59bbf43399740fc05e8156ba056e81f171bcc55a6ff8345e692c0f86e5b48e01b996cadc001622fb5e363b421a056e81f171bcc55a6ff8345e692c0f86e5b48e01b996cadc001622fb5e363b421b9010000000000000000000000000000000000000000000000000000000000000000000000000000000000000000000000000000000000000000000000000000000000000000000000000000000000000000000000000000000000000000000000000000000000000000000000000000000000000000000000000000000000000000000000000000000000000000000000000000000000000000000000000000000000000000000000000000000000000000000000000000000000000000000000000000000000000000000000000000000000000000000000000000000000000000000000000000000000000000000000000000000000000000000000000000000000830200008083989680808203b642a056e81f171bcc55a6ff8345e692c0f86e5b48e01b996cadc001622fb5e363b421880102030405060708c0c0",
        "lastblockhash" : "0xb214b29fad6b802f4b55d8f38cdab655b8e4d9d4966127bdd28d1029f9718984",
        "network" : "Byzantium",
        "postState" : {
            "0x1000000000000000000000000000000000000118" : {
                "balance" : "0x00",
                "code" : "0x600c600155",
                "nonce" : "0x00",
                "storage" : {
                    "0x01" : "0x0c"
                }
            },
            "0x2adc25665018aa1fe0e6bc666dac8fc2697ff9ba" : {
                "balance" : "0x29a2241af62d3f4b",
                "code" : "",
                "nonce" : "0x00",
                "storage" : {
                }
            },
            "0xa94f5374fce5edbc8e2a8697c15331677e6ebf0b" : {
                "balance" : "0xe8d4a3d0b5",
                "code" : "",
                "nonce" : "0x01",
                "storage" : {
                }
            },
            "0xb94f5374fce5edbc8e2a8697c15331677e6ebf0b" : {
                "balance" : "0x00",
                "code" : "0x5a6000556000600060006000600073100000000000000000000000000000000000011862027100f1505a600255",
                "nonce" : "0x00",
                "storage" : {
                    "0x00" : "0x021f34",
                    "0x02" : "0x018016"
                }
            }
        },
        "pre" : {
            "0x1000000000000000000000000000000000000118" : {
                "balance" : "0x00",
                "code" : "0x600c600155",
                "nonce" : "0x00",
                "storage" : {
                }
            },
            "0xa94f5374fce5edbc8e2a8697c15331677e6ebf0b" : {
                "balance" : "0xe8d4a51000",
                "code" : "",
                "nonce" : "0x00",
                "storage" : {
                }
            },
            "0xb94f5374fce5edbc8e2a8697c15331677e6ebf0b" : {
                "balance" : "0x00",
                "code" : "0x5a6000556000600060006000600073100000000000000000000000000000000000011862027100f1505a600255",
                "nonce" : "0x00",
                "storage" : {
                }
            }
        }
    },
    "Transaction64Rule_d64e0_d0g0v0_EIP150" : {
        "_info" : {
            "comment" : "",
            "filledwith" : "cpp-1.3.0+commit.6e0ce939.Linux.g++",
            "lllcversion" : "Version: 0.4.18-develop.2017.9.25+commit.a72237f2.Linux.g++",
            "source" : "src/BlockchainTestsFiller/GeneralStateTests/stEIP150Specific/Transaction64Rule_d64e0_d0g0v0Filler.json",
            "sourceHash" : "b053efd479f4e07c707d18157b21561198e708f54cadef2d0e483a1727905343"
        },
        "blocks" : [
            {
                "blockHeader" : {
                    "bloom" : "0x00000000000000000000000000000000000000000000000000000000000000000000000000000000000000000000000000000000000000000000000000000000000000000000000000000000000000000000000000000000000000000000000000000000000000000000000000000000000000000000000000000000000000000000000000000000000000000000000000000000000000000000000000000000000000000000000000000000000000000000000000000000000000000000000000000000000000000000000000000000000000000000000000000000000000000000000000000000000000000000000000000000000000000000000000000000",
                    "coinbase" : "0x2adc25665018aa1fe0e6bc666dac8fc2697ff9ba",
                    "difficulty" : "0x020000",
                    "extraData" : "",
                    "gasLimit" : "0x989680",
                    "gasUsed" : "0x013f4b",
                    "hash" : "0x51c69823e438fd3ee778cfc8d92a4ce042b07909b17a0da8428a63fe1779dbf6",
                    "mixHash" : "0x96b7cb5f994c7e8ca7b8f9c37f3d3b26450fd6d5d77d6d7e21472580585d6209",
                    "nonce" : "0xf53dd9ce5707308a",
                    "number" : "0x01",
                    "parentHash" : "0xbef829a9162ec28c4fd407f96b8b2eb2998beca8df7fcc55f197a98dc49cb47d",
                    "receiptTrie" : "0x50cb4e8c663cc5b7a9f284093379d1deebe9efc983ae38355913c504d384fb0a",
                    "stateRoot" : "0x2232cda49c3379d95ba7032a2cd51f6bd4698c8b0ee09bfdc899c4c767c3ce3f",
                    "timestamp" : "0x03e8",
                    "transactionsTrie" : "0xd02fc60ef394b0f4d36b7daf6b0d6acfe3fd0256d7872ad93116eb514929f59e",
                    "uncleHash" : "0x1dcc4de8dec75d7aab85b567b6ccd41ad312451b948a7413f0a142fd40d49347"
                },
                "rlp" : "0xf90260f901f8a0bef829a9162ec28c4fd407f96b8b2eb2998beca8df7fcc55f197a98dc49cb47da01dcc4de8dec75d7aab85b567b6ccd41ad312451b948a7413f0a142fd40d49347942adc25665018aa1fe0e6bc666dac8fc2697ff9baa02232cda49c3379d95ba7032a2cd51f6bd4698c8b0ee09bfdc899c4c767c3ce3fa0d02fc60ef394b0f4d36b7daf6b0d6acfe3fd0256d7872ad93116eb514929f59ea050cb4e8c663cc5b7a9f284093379d1deebe9efc983ae38355913c504d384fb0ab901000000000000000000000000000000000000000000000000000000000000000000000000000000000000000000000000000000000000000000000000000000000000000000000000000000000000000000000000000000000000000000000000000000000000000000000000000000000000000000000000000000000000000000000000000000000000000000000000000000000000000000000000000000000000000000000000000000000000000000000000000000000000000000000000000000000000000000000000000000000000000000000000000000000000000000000000000000000000000000000000000000000000000000000000000000000083020000018398968083013f4b8203e880a096b7cb5f994c7e8ca7b8f9c37f3d3b26450fd6d5d77d6d7e21472580585d620988f53dd9ce5707308af862f86080018302713e94b94f5374fce5edbc8e2a8697c15331677e6ebf0b80801ba05d708778ba066e19336af45ad9148bd0cfce2499c1296faa3ee9335fb85a68c5a0093c5b2906d9a5bf87d9b9c43b2bee75eaa2f9237c3a49cad1a171f11ed69f6dc0",
                "transactions" : [
                    {
                        "data" : "",
                        "gasLimit" : "0x02713e",
                        "gasPrice" : "0x01",
                        "nonce" : "0x00",
                        "r" : "0x5d708778ba066e19336af45ad9148bd0cfce2499c1296faa3ee9335fb85a68c5",
                        "s" : "0x093c5b2906d9a5bf87d9b9c43b2bee75eaa2f9237c3a49cad1a171f11ed69f6d",
                        "to" : "0xb94f5374fce5edbc8e2a8697c15331677e6ebf0b",
                        "v" : "0x1b",
                        "value" : "0x00"
                    }
                ],
                "uncleHeaders" : [
                ]
            }
        ],
        "genesisBlockHeader" : {
            "bloom" : "0x00000000000000000000000000000000000000000000000000000000000000000000000000000000000000000000000000000000000000000000000000000000000000000000000000000000000000000000000000000000000000000000000000000000000000000000000000000000000000000000000000000000000000000000000000000000000000000000000000000000000000000000000000000000000000000000000000000000000000000000000000000000000000000000000000000000000000000000000000000000000000000000000000000000000000000000000000000000000000000000000000000000000000000000000000000000",
            "coinbase" : "0x2adc25665018aa1fe0e6bc666dac8fc2697ff9ba",
            "difficulty" : "0x020000",
            "extraData" : "0x42",
            "gasLimit" : "0x989680",
            "gasUsed" : "0x00",
            "hash" : "0xbef829a9162ec28c4fd407f96b8b2eb2998beca8df7fcc55f197a98dc49cb47d",
            "mixHash" : "0x56e81f171bcc55a6ff8345e692c0f86e5b48e01b996cadc001622fb5e363b421",
            "nonce" : "0x0102030405060708",
            "number" : "0x00",
            "parentHash" : "0x0000000000000000000000000000000000000000000000000000000000000000",
            "receiptTrie" : "0x56e81f171bcc55a6ff8345e692c0f86e5b48e01b996cadc001622fb5e363b421",
            "stateRoot" : "0x12e10185d929ed9a4f2bf673105d9e1de287a641c59bbf43399740fc05e8156b",
            "timestamp" : "0x03b6",
            "transactionsTrie" : "0x56e81f171bcc55a6ff8345e692c0f86e5b48e01b996cadc001622fb5e363b421",
            "uncleHash" : "0x1dcc4de8dec75d7aab85b567b6ccd41ad312451b948a7413f0a142fd40d49347"
        },
        "genesisRLP" : "0xf901faf901f5a00000000000000000000000000000000000000000000000000000000000000000a01dcc4de8dec75d7aab85b567b6ccd41ad312451b948a7413f0a142fd40d49347942adc25665018aa1fe0e6bc666dac8fc2697ff9baa012e10185d929ed9a4f2bf673105d9e1de287a641c59bbf43399740fc05e8156ba056e81f171bcc55a6ff8345e692c0f86e5b48e01b996cadc001622fb5e363b421a056e81f171bcc55a6ff8345e692c0f86e5b48e01b996cadc001622fb5e363b421b9010000000000000000000000000000000000000000000000000000000000000000000000000000000000000000000000000000000000000000000000000000000000000000000000000000000000000000000000000000000000000000000000000000000000000000000000000000000000000000000000000000000000000000000000000000000000000000000000000000000000000000000000000000000000000000000000000000000000000000000000000000000000000000000000000000000000000000000000000000000000000000000000000000000000000000000000000000000000000000000000000000000000000000000000000000000000830200008083989680808203b642a056e81f171bcc55a6ff8345e692c0f86e5b48e01b996cadc001622fb5e363b421880102030405060708c0c0",
        "lastblockhash" : "0x51c69823e438fd3ee778cfc8d92a4ce042b07909b17a0da8428a63fe1779dbf6",
        "network" : "EIP150",
        "postState" : {
            "0x1000000000000000000000000000000000000118" : {
                "balance" : "0x00",
                "code" : "0x600c600155",
                "nonce" : "0x00",
                "storage" : {
                    "0x01" : "0x0c"
                }
            },
            "0x2adc25665018aa1fe0e6bc666dac8fc2697ff9ba" : {
                "balance" : "0x4563918244f53f4b",
                "code" : "",
                "nonce" : "0x00",
                "storage" : {
                }
            },
            "0xa94f5374fce5edbc8e2a8697c15331677e6ebf0b" : {
                "balance" : "0xe8d4a3d0b5",
                "code" : "",
                "nonce" : "0x01",
                "storage" : {
                }
            },
            "0xb94f5374fce5edbc8e2a8697c15331677e6ebf0b" : {
                "balance" : "0x00",
                "code" : "0x5a6000556000600060006000600073100000000000000000000000000000000000011862027100f1505a600255",
                "nonce" : "0x00",
                "storage" : {
                    "0x00" : "0x021f34",
                    "0x02" : "0x018016"
                }
            }
        },
        "pre" : {
            "0x1000000000000000000000000000000000000118" : {
                "balance" : "0x00",
                "code" : "0x600c600155",
                "nonce" : "0x00",
                "storage" : {
                }
            },
            "0xa94f5374fce5edbc8e2a8697c15331677e6ebf0b" : {
                "balance" : "0xe8d4a51000",
                "code" : "",
                "nonce" : "0x00",
                "storage" : {
                }
            },
            "0xb94f5374fce5edbc8e2a8697c15331677e6ebf0b" : {
                "balance" : "0x00",
                "code" : "0x5a6000556000600060006000600073100000000000000000000000000000000000011862027100f1505a600255",
                "nonce" : "0x00",
                "storage" : {
                }
            }
        }
    },
    "Transaction64Rule_d64e0_d0g0v0_EIP158" : {
        "_info" : {
            "comment" : "",
            "filledwith" : "cpp-1.3.0+commit.6e0ce939.Linux.g++",
            "lllcversion" : "Version: 0.4.18-develop.2017.9.25+commit.a72237f2.Linux.g++",
            "source" : "src/BlockchainTestsFiller/GeneralStateTests/stEIP150Specific/Transaction64Rule_d64e0_d0g0v0Filler.json",
            "sourceHash" : "b053efd479f4e07c707d18157b21561198e708f54cadef2d0e483a1727905343"
        },
        "blocks" : [
            {
                "blockHeader" : {
                    "bloom" : "0x00000000000000000000000000000000000000000000000000000000000000000000000000000000000000000000000000000000000000000000000000000000000000000000000000000000000000000000000000000000000000000000000000000000000000000000000000000000000000000000000000000000000000000000000000000000000000000000000000000000000000000000000000000000000000000000000000000000000000000000000000000000000000000000000000000000000000000000000000000000000000000000000000000000000000000000000000000000000000000000000000000000000000000000000000000000",
                    "coinbase" : "0x2adc25665018aa1fe0e6bc666dac8fc2697ff9ba",
                    "difficulty" : "0x020000",
                    "extraData" : "",
                    "gasLimit" : "0x989680",
                    "gasUsed" : "0x013f4b",
                    "hash" : "0x5107b752fbc7d15199aa00c948d95eb81031c1b866e0fea2f7cd9c569df4637c",
                    "mixHash" : "0x710e66a1d7eb3a6f62c2cb25d20ba7d48d7c9476f2d74474917b41e329e4ced7",
                    "nonce" : "0xc627c21dd223a864",
                    "number" : "0x01",
                    "parentHash" : "0xbef829a9162ec28c4fd407f96b8b2eb2998beca8df7fcc55f197a98dc49cb47d",
                    "receiptTrie" : "0x50cb4e8c663cc5b7a9f284093379d1deebe9efc983ae38355913c504d384fb0a",
                    "stateRoot" : "0x2232cda49c3379d95ba7032a2cd51f6bd4698c8b0ee09bfdc899c4c767c3ce3f",
                    "timestamp" : "0x03e8",
                    "transactionsTrie" : "0xd02fc60ef394b0f4d36b7daf6b0d6acfe3fd0256d7872ad93116eb514929f59e",
                    "uncleHash" : "0x1dcc4de8dec75d7aab85b567b6ccd41ad312451b948a7413f0a142fd40d49347"
                },
                "rlp" : "0xf90260f901f8a0bef829a9162ec28c4fd407f96b8b2eb2998beca8df7fcc55f197a98dc49cb47da01dcc4de8dec75d7aab85b567b6ccd41ad312451b948a7413f0a142fd40d49347942adc25665018aa1fe0e6bc666dac8fc2697ff9baa02232cda49c3379d95ba7032a2cd51f6bd4698c8b0ee09bfdc899c4c767c3ce3fa0d02fc60ef394b0f4d36b7daf6b0d6acfe3fd0256d7872ad93116eb514929f59ea050cb4e8c663cc5b7a9f284093379d1deebe9efc983ae38355913c504d384fb0ab901000000000000000000000000000000000000000000000000000000000000000000000000000000000000000000000000000000000000000000000000000000000000000000000000000000000000000000000000000000000000000000000000000000000000000000000000000000000000000000000000000000000000000000000000000000000000000000000000000000000000000000000000000000000000000000000000000000000000000000000000000000000000000000000000000000000000000000000000000000000000000000000000000000000000000000000000000000000000000000000000000000000000000000000000000000000083020000018398968083013f4b8203e880a0710e66a1d7eb3a6f62c2cb25d20ba7d48d7c9476f2d74474917b41e329e4ced788c627c21dd223a864f862f86080018302713e94b94f5374fce5edbc8e2a8697c15331677e6ebf0b80801ba05d708778ba066e19336af45ad9148bd0cfce2499c1296faa3ee9335fb85a68c5a0093c5b2906d9a5bf87d9b9c43b2bee75eaa2f9237c3a49cad1a171f11ed69f6dc0",
                "transactions" : [
                    {
                        "data" : "",
                        "gasLimit" : "0x02713e",
                        "gasPrice" : "0x01",
                        "nonce" : "0x00",
                        "r" : "0x5d708778ba066e19336af45ad9148bd0cfce2499c1296faa3ee9335fb85a68c5",
                        "s" : "0x093c5b2906d9a5bf87d9b9c43b2bee75eaa2f9237c3a49cad1a171f11ed69f6d",
                        "to" : "0xb94f5374fce5edbc8e2a8697c15331677e6ebf0b",
                        "v" : "0x1b",
                        "value" : "0x00"
                    }
                ],
                "uncleHeaders" : [
                ]
            }
        ],
        "genesisBlockHeader" : {
            "bloom" : "0x00000000000000000000000000000000000000000000000000000000000000000000000000000000000000000000000000000000000000000000000000000000000000000000000000000000000000000000000000000000000000000000000000000000000000000000000000000000000000000000000000000000000000000000000000000000000000000000000000000000000000000000000000000000000000000000000000000000000000000000000000000000000000000000000000000000000000000000000000000000000000000000000000000000000000000000000000000000000000000000000000000000000000000000000000000000",
            "coinbase" : "0x2adc25665018aa1fe0e6bc666dac8fc2697ff9ba",
            "difficulty" : "0x020000",
            "extraData" : "0x42",
            "gasLimit" : "0x989680",
            "gasUsed" : "0x00",
            "hash" : "0xbef829a9162ec28c4fd407f96b8b2eb2998beca8df7fcc55f197a98dc49cb47d",
            "mixHash" : "0x56e81f171bcc55a6ff8345e692c0f86e5b48e01b996cadc001622fb5e363b421",
            "nonce" : "0x0102030405060708",
            "number" : "0x00",
            "parentHash" : "0x0000000000000000000000000000000000000000000000000000000000000000",
            "receiptTrie" : "0x56e81f171bcc55a6ff8345e692c0f86e5b48e01b996cadc001622fb5e363b421",
            "stateRoot" : "0x12e10185d929ed9a4f2bf673105d9e1de287a641c59bbf43399740fc05e8156b",
            "timestamp" : "0x03b6",
            "transactionsTrie" : "0x56e81f171bcc55a6ff8345e692c0f86e5b48e01b996cadc001622fb5e363b421",
            "uncleHash" : "0x1dcc4de8dec75d7aab85b567b6ccd41ad312451b948a7413f0a142fd40d49347"
        },
        "genesisRLP" : "0xf901faf901f5a00000000000000000000000000000000000000000000000000000000000000000a01dcc4de8dec75d7aab85b567b6ccd41ad312451b948a7413f0a142fd40d49347942adc25665018aa1fe0e6bc666dac8fc2697ff9baa012e10185d929ed9a4f2bf673105d9e1de287a641c59bbf43399740fc05e8156ba056e81f171bcc55a6ff8345e692c0f86e5b48e01b996cadc001622fb5e363b421a056e81f171bcc55a6ff8345e692c0f86e5b48e01b996cadc001622fb5e363b421b9010000000000000000000000000000000000000000000000000000000000000000000000000000000000000000000000000000000000000000000000000000000000000000000000000000000000000000000000000000000000000000000000000000000000000000000000000000000000000000000000000000000000000000000000000000000000000000000000000000000000000000000000000000000000000000000000000000000000000000000000000000000000000000000000000000000000000000000000000000000000000000000000000000000000000000000000000000000000000000000000000000000000000000000000000000000000830200008083989680808203b642a056e81f171bcc55a6ff8345e692c0f86e5b48e01b996cadc001622fb5e363b421880102030405060708c0c0",
        "lastblockhash" : "0x5107b752fbc7d15199aa00c948d95eb81031c1b866e0fea2f7cd9c569df4637c",
        "network" : "EIP158",
        "postState" : {
            "0x1000000000000000000000000000000000000118" : {
                "balance" : "0x00",
                "code" : "0x600c600155",
                "nonce" : "0x00",
                "storage" : {
                    "0x01" : "0x0c"
                }
            },
            "0x2adc25665018aa1fe0e6bc666dac8fc2697ff9ba" : {
                "balance" : "0x4563918244f53f4b",
                "code" : "",
                "nonce" : "0x00",
                "storage" : {
                }
            },
            "0xa94f5374fce5edbc8e2a8697c15331677e6ebf0b" : {
                "balance" : "0xe8d4a3d0b5",
                "code" : "",
                "nonce" : "0x01",
                "storage" : {
                }
            },
            "0xb94f5374fce5edbc8e2a8697c15331677e6ebf0b" : {
                "balance" : "0x00",
                "code" : "0x5a6000556000600060006000600073100000000000000000000000000000000000011862027100f1505a600255",
                "nonce" : "0x00",
                "storage" : {
                    "0x00" : "0x021f34",
                    "0x02" : "0x018016"
                }
            }
        },
        "pre" : {
            "0x1000000000000000000000000000000000000118" : {
                "balance" : "0x00",
                "code" : "0x600c600155",
                "nonce" : "0x00",
                "storage" : {
                }
            },
            "0xa94f5374fce5edbc8e2a8697c15331677e6ebf0b" : {
                "balance" : "0xe8d4a51000",
                "code" : "",
                "nonce" : "0x00",
                "storage" : {
                }
            },
            "0xb94f5374fce5edbc8e2a8697c15331677e6ebf0b" : {
                "balance" : "0x00",
                "code" : "0x5a6000556000600060006000600073100000000000000000000000000000000000011862027100f1505a600255",
                "nonce" : "0x00",
                "storage" : {
                }
            }
        }
    },
    "Transaction64Rule_d64e0_d0g0v0_Frontier" : {
        "_info" : {
            "comment" : "",
            "filledwith" : "cpp-1.3.0+commit.6e0ce939.Linux.g++",
            "lllcversion" : "Version: 0.4.18-develop.2017.9.25+commit.a72237f2.Linux.g++",
            "source" : "src/BlockchainTestsFiller/GeneralStateTests/stEIP150Specific/Transaction64Rule_d64e0_d0g0v0Filler.json",
            "sourceHash" : "b053efd479f4e07c707d18157b21561198e708f54cadef2d0e483a1727905343"
        },
        "blocks" : [
            {
                "blockHeader" : {
                    "bloom" : "0x00000000000000000000000000000000000000000000000000000000000000000000000000000000000000000000000000000000000000000000000000000000000000000000000000000000000000000000000000000000000000000000000000000000000000000000000000000000000000000000000000000000000000000000000000000000000000000000000000000000000000000000000000000000000000000000000000000000000000000000000000000000000000000000000000000000000000000000000000000000000000000000000000000000000000000000000000000000000000000000000000000000000000000000000000000000",
                    "coinbase" : "0x2adc25665018aa1fe0e6bc666dac8fc2697ff9ba",
                    "difficulty" : "0x020000",
                    "extraData" : "",
                    "gasLimit" : "0x989680",
                    "gasUsed" : "0x02713e",
                    "hash" : "0x92bfee8dcbc00566c6a01212f65628032f604d2100783cd70a97b0c6b8e0850d",
                    "mixHash" : "0x3495060600ef88531959cf6678d8c2967dceafa7086ab5089fecee1247496eb7",
                    "nonce" : "0x66993ed07aca6beb",
                    "number" : "0x01",
                    "parentHash" : "0xbef829a9162ec28c4fd407f96b8b2eb2998beca8df7fcc55f197a98dc49cb47d",
                    "receiptTrie" : "0xd92c0de66506fa0341096870b851800b22115abe1e6ced11db9fbe121cab1f28",
                    "stateRoot" : "0xb5e567d6ab119f56104e0e3d4609b07268a8f801af7aae133267963dc2431955",
                    "timestamp" : "0x03e8",
                    "transactionsTrie" : "0xd02fc60ef394b0f4d36b7daf6b0d6acfe3fd0256d7872ad93116eb514929f59e",
                    "uncleHash" : "0x1dcc4de8dec75d7aab85b567b6ccd41ad312451b948a7413f0a142fd40d49347"
                },
                "rlp" : "0xf90260f901f8a0bef829a9162ec28c4fd407f96b8b2eb2998beca8df7fcc55f197a98dc49cb47da01dcc4de8dec75d7aab85b567b6ccd41ad312451b948a7413f0a142fd40d49347942adc25665018aa1fe0e6bc666dac8fc2697ff9baa0b5e567d6ab119f56104e0e3d4609b07268a8f801af7aae133267963dc2431955a0d02fc60ef394b0f4d36b7daf6b0d6acfe3fd0256d7872ad93116eb514929f59ea0d92c0de66506fa0341096870b851800b22115abe1e6ced11db9fbe121cab1f28b90100000000000000000000000000000000000000000000000000000000000000000000000000000000000000000000000000000000000000000000000000000000000000000000000000000000000000000000000000000000000000000000000000000000000000000000000000000000000000000000000000000000000000000000000000000000000000000000000000000000000000000000000000000000000000000000000000000000000000000000000000000000000000000000000000000000000000000000000000000000000000000000000000000000000000000000000000000000000000000000000000000000000000000000000000000000008302000001839896808302713e8203e880a03495060600ef88531959cf6678d8c2967dceafa7086ab5089fecee1247496eb78866993ed07aca6bebf862f86080018302713e94b94f5374fce5edbc8e2a8697c15331677e6ebf0b80801ba05d708778ba066e19336af45ad9148bd0cfce2499c1296faa3ee9335fb85a68c5a0093c5b2906d9a5bf87d9b9c43b2bee75eaa2f9237c3a49cad1a171f11ed69f6dc0",
                "transactions" : [
                    {
                        "data" : "",
                        "gasLimit" : "0x02713e",
                        "gasPrice" : "0x01",
                        "nonce" : "0x00",
                        "r" : "0x5d708778ba066e19336af45ad9148bd0cfce2499c1296faa3ee9335fb85a68c5",
                        "s" : "0x093c5b2906d9a5bf87d9b9c43b2bee75eaa2f9237c3a49cad1a171f11ed69f6d",
                        "to" : "0xb94f5374fce5edbc8e2a8697c15331677e6ebf0b",
                        "v" : "0x1b",
                        "value" : "0x00"
                    }
                ],
                "uncleHeaders" : [
                ]
            }
        ],
        "genesisBlockHeader" : {
            "bloom" : "0x00000000000000000000000000000000000000000000000000000000000000000000000000000000000000000000000000000000000000000000000000000000000000000000000000000000000000000000000000000000000000000000000000000000000000000000000000000000000000000000000000000000000000000000000000000000000000000000000000000000000000000000000000000000000000000000000000000000000000000000000000000000000000000000000000000000000000000000000000000000000000000000000000000000000000000000000000000000000000000000000000000000000000000000000000000000",
            "coinbase" : "0x2adc25665018aa1fe0e6bc666dac8fc2697ff9ba",
            "difficulty" : "0x020000",
            "extraData" : "0x42",
            "gasLimit" : "0x989680",
            "gasUsed" : "0x00",
            "hash" : "0xbef829a9162ec28c4fd407f96b8b2eb2998beca8df7fcc55f197a98dc49cb47d",
            "mixHash" : "0x56e81f171bcc55a6ff8345e692c0f86e5b48e01b996cadc001622fb5e363b421",
            "nonce" : "0x0102030405060708",
            "number" : "0x00",
            "parentHash" : "0x0000000000000000000000000000000000000000000000000000000000000000",
            "receiptTrie" : "0x56e81f171bcc55a6ff8345e692c0f86e5b48e01b996cadc001622fb5e363b421",
            "stateRoot" : "0x12e10185d929ed9a4f2bf673105d9e1de287a641c59bbf43399740fc05e8156b",
            "timestamp" : "0x03b6",
            "transactionsTrie" : "0x56e81f171bcc55a6ff8345e692c0f86e5b48e01b996cadc001622fb5e363b421",
            "uncleHash" : "0x1dcc4de8dec75d7aab85b567b6ccd41ad312451b948a7413f0a142fd40d49347"
        },
        "genesisRLP" : "0xf901faf901f5a00000000000000000000000000000000000000000000000000000000000000000a01dcc4de8dec75d7aab85b567b6ccd41ad312451b948a7413f0a142fd40d49347942adc25665018aa1fe0e6bc666dac8fc2697ff9baa012e10185d929ed9a4f2bf673105d9e1de287a641c59bbf43399740fc05e8156ba056e81f171bcc55a6ff8345e692c0f86e5b48e01b996cadc001622fb5e363b421a056e81f171bcc55a6ff8345e692c0f86e5b48e01b996cadc001622fb5e363b421b9010000000000000000000000000000000000000000000000000000000000000000000000000000000000000000000000000000000000000000000000000000000000000000000000000000000000000000000000000000000000000000000000000000000000000000000000000000000000000000000000000000000000000000000000000000000000000000000000000000000000000000000000000000000000000000000000000000000000000000000000000000000000000000000000000000000000000000000000000000000000000000000000000000000000000000000000000000000000000000000000000000000000000000000000000000000000830200008083989680808203b642a056e81f171bcc55a6ff8345e692c0f86e5b48e01b996cadc001622fb5e363b421880102030405060708c0c0",
        "lastblockhash" : "0x92bfee8dcbc00566c6a01212f65628032f604d2100783cd70a97b0c6b8e0850d",
        "network" : "Frontier",
        "postState" : {
            "0x1000000000000000000000000000000000000118" : {
                "balance" : "0x00",
                "code" : "0x600c600155",
                "nonce" : "0x00",
                "storage" : {
                }
            },
            "0x2adc25665018aa1fe0e6bc666dac8fc2697ff9ba" : {
                "balance" : "0x4563918244f6713e",
                "code" : "",
                "nonce" : "0x00",
                "storage" : {
                }
            },
            "0xa94f5374fce5edbc8e2a8697c15331677e6ebf0b" : {
                "balance" : "0xe8d4a29ec2",
                "code" : "",
                "nonce" : "0x01",
                "storage" : {
                }
            },
            "0xb94f5374fce5edbc8e2a8697c15331677e6ebf0b" : {
                "balance" : "0x00",
                "code" : "0x5a6000556000600060006000600073100000000000000000000000000000000000011862027100f1505a600255",
                "nonce" : "0x00",
                "storage" : {
                }
            }
        },
        "pre" : {
            "0x1000000000000000000000000000000000000118" : {
                "balance" : "0x00",
                "code" : "0x600c600155",
                "nonce" : "0x00",
                "storage" : {
                }
            },
            "0xa94f5374fce5edbc8e2a8697c15331677e6ebf0b" : {
                "balance" : "0xe8d4a51000",
                "code" : "",
                "nonce" : "0x00",
                "storage" : {
                }
            },
            "0xb94f5374fce5edbc8e2a8697c15331677e6ebf0b" : {
                "balance" : "0x00",
                "code" : "0x5a6000556000600060006000600073100000000000000000000000000000000000011862027100f1505a600255",
                "nonce" : "0x00",
                "storage" : {
                }
            }
        }
    },
    "Transaction64Rule_d64e0_d0g0v0_Homestead" : {
        "_info" : {
            "comment" : "",
            "filledwith" : "cpp-1.3.0+commit.6e0ce939.Linux.g++",
            "lllcversion" : "Version: 0.4.18-develop.2017.9.25+commit.a72237f2.Linux.g++",
            "source" : "src/BlockchainTestsFiller/GeneralStateTests/stEIP150Specific/Transaction64Rule_d64e0_d0g0v0Filler.json",
            "sourceHash" : "b053efd479f4e07c707d18157b21561198e708f54cadef2d0e483a1727905343"
        },
        "blocks" : [
            {
                "blockHeader" : {
                    "bloom" : "0x00000000000000000000000000000000000000000000000000000000000000000000000000000000000000000000000000000000000000000000000000000000000000000000000000000000000000000000000000000000000000000000000000000000000000000000000000000000000000000000000000000000000000000000000000000000000000000000000000000000000000000000000000000000000000000000000000000000000000000000000000000000000000000000000000000000000000000000000000000000000000000000000000000000000000000000000000000000000000000000000000000000000000000000000000000000",
                    "coinbase" : "0x2adc25665018aa1fe0e6bc666dac8fc2697ff9ba",
                    "difficulty" : "0x020000",
                    "extraData" : "",
                    "gasLimit" : "0x989680",
                    "gasUsed" : "0x02713e",
                    "hash" : "0x186a4550a248a84659b940e53ed752625e0d63f35390afcbfffa01f7f023e657",
                    "mixHash" : "0xf82b1467f8d959b89deecdea9f921d17d38ecd10702ed013f04ba2cefa1cf759",
                    "nonce" : "0x3d199793ed125d5b",
                    "number" : "0x01",
                    "parentHash" : "0xbef829a9162ec28c4fd407f96b8b2eb2998beca8df7fcc55f197a98dc49cb47d",
                    "receiptTrie" : "0xd92c0de66506fa0341096870b851800b22115abe1e6ced11db9fbe121cab1f28",
                    "stateRoot" : "0xb5e567d6ab119f56104e0e3d4609b07268a8f801af7aae133267963dc2431955",
                    "timestamp" : "0x03e8",
                    "transactionsTrie" : "0xd02fc60ef394b0f4d36b7daf6b0d6acfe3fd0256d7872ad93116eb514929f59e",
                    "uncleHash" : "0x1dcc4de8dec75d7aab85b567b6ccd41ad312451b948a7413f0a142fd40d49347"
                },
                "rlp" : "0xf90260f901f8a0bef829a9162ec28c4fd407f96b8b2eb2998beca8df7fcc55f197a98dc49cb47da01dcc4de8dec75d7aab85b567b6ccd41ad312451b948a7413f0a142fd40d49347942adc25665018aa1fe0e6bc666dac8fc2697ff9baa0b5e567d6ab119f56104e0e3d4609b07268a8f801af7aae133267963dc2431955a0d02fc60ef394b0f4d36b7daf6b0d6acfe3fd0256d7872ad93116eb514929f59ea0d92c0de66506fa0341096870b851800b22115abe1e6ced11db9fbe121cab1f28b90100000000000000000000000000000000000000000000000000000000000000000000000000000000000000000000000000000000000000000000000000000000000000000000000000000000000000000000000000000000000000000000000000000000000000000000000000000000000000000000000000000000000000000000000000000000000000000000000000000000000000000000000000000000000000000000000000000000000000000000000000000000000000000000000000000000000000000000000000000000000000000000000000000000000000000000000000000000000000000000000000000000000000000000000000000000008302000001839896808302713e8203e880a0f82b1467f8d959b89deecdea9f921d17d38ecd10702ed013f04ba2cefa1cf759883d199793ed125d5bf862f86080018302713e94b94f5374fce5edbc8e2a8697c15331677e6ebf0b80801ba05d708778ba066e19336af45ad9148bd0cfce2499c1296faa3ee9335fb85a68c5a0093c5b2906d9a5bf87d9b9c43b2bee75eaa2f9237c3a49cad1a171f11ed69f6dc0",
                "transactions" : [
                    {
                        "data" : "",
                        "gasLimit" : "0x02713e",
                        "gasPrice" : "0x01",
                        "nonce" : "0x00",
                        "r" : "0x5d708778ba066e19336af45ad9148bd0cfce2499c1296faa3ee9335fb85a68c5",
                        "s" : "0x093c5b2906d9a5bf87d9b9c43b2bee75eaa2f9237c3a49cad1a171f11ed69f6d",
                        "to" : "0xb94f5374fce5edbc8e2a8697c15331677e6ebf0b",
                        "v" : "0x1b",
                        "value" : "0x00"
                    }
                ],
                "uncleHeaders" : [
                ]
            }
        ],
        "genesisBlockHeader" : {
            "bloom" : "0x00000000000000000000000000000000000000000000000000000000000000000000000000000000000000000000000000000000000000000000000000000000000000000000000000000000000000000000000000000000000000000000000000000000000000000000000000000000000000000000000000000000000000000000000000000000000000000000000000000000000000000000000000000000000000000000000000000000000000000000000000000000000000000000000000000000000000000000000000000000000000000000000000000000000000000000000000000000000000000000000000000000000000000000000000000000",
            "coinbase" : "0x2adc25665018aa1fe0e6bc666dac8fc2697ff9ba",
            "difficulty" : "0x020000",
            "extraData" : "0x42",
            "gasLimit" : "0x989680",
            "gasUsed" : "0x00",
            "hash" : "0xbef829a9162ec28c4fd407f96b8b2eb2998beca8df7fcc55f197a98dc49cb47d",
            "mixHash" : "0x56e81f171bcc55a6ff8345e692c0f86e5b48e01b996cadc001622fb5e363b421",
            "nonce" : "0x0102030405060708",
            "number" : "0x00",
            "parentHash" : "0x0000000000000000000000000000000000000000000000000000000000000000",
            "receiptTrie" : "0x56e81f171bcc55a6ff8345e692c0f86e5b48e01b996cadc001622fb5e363b421",
            "stateRoot" : "0x12e10185d929ed9a4f2bf673105d9e1de287a641c59bbf43399740fc05e8156b",
            "timestamp" : "0x03b6",
            "transactionsTrie" : "0x56e81f171bcc55a6ff8345e692c0f86e5b48e01b996cadc001622fb5e363b421",
            "uncleHash" : "0x1dcc4de8dec75d7aab85b567b6ccd41ad312451b948a7413f0a142fd40d49347"
        },
        "genesisRLP" : "0xf901faf901f5a00000000000000000000000000000000000000000000000000000000000000000a01dcc4de8dec75d7aab85b567b6ccd41ad312451b948a7413f0a142fd40d49347942adc25665018aa1fe0e6bc666dac8fc2697ff9baa012e10185d929ed9a4f2bf673105d9e1de287a641c59bbf43399740fc05e8156ba056e81f171bcc55a6ff8345e692c0f86e5b48e01b996cadc001622fb5e363b421a056e81f171bcc55a6ff8345e692c0f86e5b48e01b996cadc001622fb5e363b421b9010000000000000000000000000000000000000000000000000000000000000000000000000000000000000000000000000000000000000000000000000000000000000000000000000000000000000000000000000000000000000000000000000000000000000000000000000000000000000000000000000000000000000000000000000000000000000000000000000000000000000000000000000000000000000000000000000000000000000000000000000000000000000000000000000000000000000000000000000000000000000000000000000000000000000000000000000000000000000000000000000000000000000000000000000000000000830200008083989680808203b642a056e81f171bcc55a6ff8345e692c0f86e5b48e01b996cadc001622fb5e363b421880102030405060708c0c0",
        "lastblockhash" : "0x186a4550a248a84659b940e53ed752625e0d63f35390afcbfffa01f7f023e657",
        "network" : "Homestead",
        "postState" : {
            "0x1000000000000000000000000000000000000118" : {
                "balance" : "0x00",
                "code" : "0x600c600155",
                "nonce" : "0x00",
                "storage" : {
                }
            },
            "0x2adc25665018aa1fe0e6bc666dac8fc2697ff9ba" : {
                "balance" : "0x4563918244f6713e",
                "code" : "",
                "nonce" : "0x00",
                "storage" : {
                }
            },
            "0xa94f5374fce5edbc8e2a8697c15331677e6ebf0b" : {
                "balance" : "0xe8d4a29ec2",
                "code" : "",
                "nonce" : "0x01",
                "storage" : {
                }
            },
            "0xb94f5374fce5edbc8e2a8697c15331677e6ebf0b" : {
                "balance" : "0x00",
                "code" : "0x5a6000556000600060006000600073100000000000000000000000000000000000011862027100f1505a600255",
                "nonce" : "0x00",
                "storage" : {
                }
            }
        },
        "pre" : {
            "0x1000000000000000000000000000000000000118" : {
                "balance" : "0x00",
                "code" : "0x600c600155",
                "nonce" : "0x00",
                "storage" : {
                }
            },
            "0xa94f5374fce5edbc8e2a8697c15331677e6ebf0b" : {
                "balance" : "0xe8d4a51000",
                "code" : "",
                "nonce" : "0x00",
                "storage" : {
                }
            },
            "0xb94f5374fce5edbc8e2a8697c15331677e6ebf0b" : {
                "balance" : "0x00",
                "code" : "0x5a6000556000600060006000600073100000000000000000000000000000000000011862027100f1505a600255",
                "nonce" : "0x00",
                "storage" : {
                }
            }
        }
    }
}