{
    "Transaction64Rule_d64m1_d0g0v0_Byzantium" : {
        "_info" : {
            "comment" : "",
            "filledwith" : "cpp-1.3.0+commit.6e0ce939.Linux.g++",
            "lllcversion" : "Version: 0.4.18-develop.2017.9.25+commit.a72237f2.Linux.g++",
            "source" : "src/BlockchainTestsFiller/GeneralStateTests/stEIP150Specific/Transaction64Rule_d64m1_d0g0v0Filler.json",
            "sourceHash" : "e6dcb140f3dc5aa798a37b072a27c5ad2ea509b1cfdb0f267b924c1e0e524034"
        },
        "blocks" : [
            {
                "blockHeader" : {
                    "bloom" : "0x00000000000000000000000000000000000000000000000000000000000000000000000000000000000000000000000000000000000000000000000000000000000000000000000000000000000000000000000000000000000000000000000000000000000000000000000000000000000000000000000000000000000000000000000000000000000000000000000000000000000000000000000000000000000000000000000000000000000000000000000000000000000000000000000000000000000000000000000000000000000000000000000000000000000000000000000000000000000000000000000000000000000000000000000000000000",
                    "coinbase" : "0x2adc25665018aa1fe0e6bc666dac8fc2697ff9ba",
                    "difficulty" : "0x020000",
                    "extraData" : "",
                    "gasLimit" : "0x989680",
                    "gasUsed" : "0x013f4b",
                    "hash" : "0x9e278e0661e5ea39f9126b17a1e6114478e09709a19aad8d0c1d6affe994911f",
                    "mixHash" : "0xddd995a5f1a5d6d14b1525f7531b1e1922e4bd541e0e0d49be166be6a96f1514",
                    "nonce" : "0xb0646d9ad78145ba",
                    "number" : "0x01",
                    "parentHash" : "0xbef829a9162ec28c4fd407f96b8b2eb2998beca8df7fcc55f197a98dc49cb47d",
                    "receiptTrie" : "0xe06889af26825b4219a6478341e56fd66b386896b598507bfa6e446266239093",
                    "stateRoot" : "0x99d1c2d04fe5683110600340cf498cbd00a45f4d610f373805eda6410a250888",
                    "timestamp" : "0x03e8",
                    "transactionsTrie" : "0x23305d028abfa2fd78e5cb7c1a3e05fa03c388346c4890bd61d7f7c880218e46",
                    "uncleHash" : "0x1dcc4de8dec75d7aab85b567b6ccd41ad312451b948a7413f0a142fd40d49347"
                },
                "rlp" : "0xf90260f901f8a0bef829a9162ec28c4fd407f96b8b2eb2998beca8df7fcc55f197a98dc49cb47da01dcc4de8dec75d7aab85b567b6ccd41ad312451b948a7413f0a142fd40d49347942adc25665018aa1fe0e6bc666dac8fc2697ff9baa099d1c2d04fe5683110600340cf498cbd00a45f4d610f373805eda6410a250888a023305d028abfa2fd78e5cb7c1a3e05fa03c388346c4890bd61d7f7c880218e46a0e06889af26825b4219a6478341e56fd66b386896b598507bfa6e446266239093b901000000000000000000000000000000000000000000000000000000000000000000000000000000000000000000000000000000000000000000000000000000000000000000000000000000000000000000000000000000000000000000000000000000000000000000000000000000000000000000000000000000000000000000000000000000000000000000000000000000000000000000000000000000000000000000000000000000000000000000000000000000000000000000000000000000000000000000000000000000000000000000000000000000000000000000000000000000000000000000000000000000000000000000000000000000000083020000018398968083013f4b8203e880a0ddd995a5f1a5d6d14b1525f7531b1e1922e4bd541e0e0d49be166be6a96f151488b0646d9ad78145baf862f86080018302713d94b94f5374fce5edbc8e2a8697c15331677e6ebf0b80801ba0c304ee60f8728f457882d945d0765f4e2879eb9ed3472129d8a319851d56be31a06140428f68d4d2716aaaf9efeb7822b3193afa58587f5df256e4b0c7e29ef8f5c0",
                "transactions" : [
                    {
                        "data" : "",
                        "gasLimit" : "0x02713d",
                        "gasPrice" : "0x01",
                        "nonce" : "0x00",
                        "r" : "0xc304ee60f8728f457882d945d0765f4e2879eb9ed3472129d8a319851d56be31",
                        "s" : "0x6140428f68d4d2716aaaf9efeb7822b3193afa58587f5df256e4b0c7e29ef8f5",
                        "to" : "0xb94f5374fce5edbc8e2a8697c15331677e6ebf0b",
                        "v" : "0x1b",
                        "value" : "0x00"
                    }
                ],
                "uncleHeaders" : [
                ]
            }
        ],
        "genesisBlockHeader" : {
            "bloom" : "0x00000000000000000000000000000000000000000000000000000000000000000000000000000000000000000000000000000000000000000000000000000000000000000000000000000000000000000000000000000000000000000000000000000000000000000000000000000000000000000000000000000000000000000000000000000000000000000000000000000000000000000000000000000000000000000000000000000000000000000000000000000000000000000000000000000000000000000000000000000000000000000000000000000000000000000000000000000000000000000000000000000000000000000000000000000000",
            "coinbase" : "0x2adc25665018aa1fe0e6bc666dac8fc2697ff9ba",
            "difficulty" : "0x020000",
            "extraData" : "0x42",
            "gasLimit" : "0x989680",
            "gasUsed" : "0x00",
            "hash" : "0xbef829a9162ec28c4fd407f96b8b2eb2998beca8df7fcc55f197a98dc49cb47d",
            "mixHash" : "0x56e81f171bcc55a6ff8345e692c0f86e5b48e01b996cadc001622fb5e363b421",
            "nonce" : "0x0102030405060708",
            "number" : "0x00",
            "parentHash" : "0x0000000000000000000000000000000000000000000000000000000000000000",
            "receiptTrie" : "0x56e81f171bcc55a6ff8345e692c0f86e5b48e01b996cadc001622fb5e363b421",
            "stateRoot" : "0x12e10185d929ed9a4f2bf673105d9e1de287a641c59bbf43399740fc05e8156b",
            "timestamp" : "0x03b6",
            "transactionsTrie" : "0x56e81f171bcc55a6ff8345e692c0f86e5b48e01b996cadc001622fb5e363b421",
            "uncleHash" : "0x1dcc4de8dec75d7aab85b567b6ccd41ad312451b948a7413f0a142fd40d49347"
        },
        "genesisRLP" : "0xf901faf901f5a00000000000000000000000000000000000000000000000000000000000000000a01dcc4de8dec75d7aab85b567b6ccd41ad312451b948a7413f0a142fd40d49347942adc25665018aa1fe0e6bc666dac8fc2697ff9baa012e10185d929ed9a4f2bf673105d9e1de287a641c59bbf43399740fc05e8156ba056e81f171bcc55a6ff8345e692c0f86e5b48e01b996cadc001622fb5e363b421a056e81f171bcc55a6ff8345e692c0f86e5b48e01b996cadc001622fb5e363b421b9010000000000000000000000000000000000000000000000000000000000000000000000000000000000000000000000000000000000000000000000000000000000000000000000000000000000000000000000000000000000000000000000000000000000000000000000000000000000000000000000000000000000000000000000000000000000000000000000000000000000000000000000000000000000000000000000000000000000000000000000000000000000000000000000000000000000000000000000000000000000000000000000000000000000000000000000000000000000000000000000000000000000000000000000000000000000830200008083989680808203b642a056e81f171bcc55a6ff8345e692c0f86e5b48e01b996cadc001622fb5e363b421880102030405060708c0c0",
        "lastblockhash" : "0x9e278e0661e5ea39f9126b17a1e6114478e09709a19aad8d0c1d6affe994911f",
        "network" : "Byzantium",
        "postState" : {
            "0x1000000000000000000000000000000000000118" : {
                "balance" : "0x00",
                "code" : "0x600c600155",
                "nonce" : "0x00",
                "storage" : {
                    "0x01" : "0x0c"
                }
            },
            "0x2adc25665018aa1fe0e6bc666dac8fc2697ff9ba" : {
                "balance" : "0x29a2241af62d3f4b",
                "code" : "",
                "nonce" : "0x00",
                "storage" : {
                }
            },
            "0xa94f5374fce5edbc8e2a8697c15331677e6ebf0b" : {
                "balance" : "0xe8d4a3d0b5",
                "code" : "",
                "nonce" : "0x01",
                "storage" : {
                }
            },
            "0xb94f5374fce5edbc8e2a8697c15331677e6ebf0b" : {
                "balance" : "0x00",
                "code" : "0x5a6000556000600060006000600073100000000000000000000000000000000000011862027100f1505a600255",
                "nonce" : "0x00",
                "storage" : {
                    "0x00" : "0x021f33",
                    "0x02" : "0x018015"
                }
            }
        },
        "pre" : {
            "0x1000000000000000000000000000000000000118" : {
                "balance" : "0x00",
                "code" : "0x600c600155",
                "nonce" : "0x00",
                "storage" : {
                }
            },
            "0xa94f5374fce5edbc8e2a8697c15331677e6ebf0b" : {
                "balance" : "0xe8d4a51000",
                "code" : "",
                "nonce" : "0x00",
                "storage" : {
                }
            },
            "0xb94f5374fce5edbc8e2a8697c15331677e6ebf0b" : {
                "balance" : "0x00",
                "code" : "0x5a6000556000600060006000600073100000000000000000000000000000000000011862027100f1505a600255",
                "nonce" : "0x00",
                "storage" : {
                }
            }
        }
    },
    "Transaction64Rule_d64m1_d0g0v0_EIP150" : {
        "_info" : {
            "comment" : "",
            "filledwith" : "cpp-1.3.0+commit.6e0ce939.Linux.g++",
            "lllcversion" : "Version: 0.4.18-develop.2017.9.25+commit.a72237f2.Linux.g++",
            "source" : "src/BlockchainTestsFiller/GeneralStateTests/stEIP150Specific/Transaction64Rule_d64m1_d0g0v0Filler.json",
            "sourceHash" : "e6dcb140f3dc5aa798a37b072a27c5ad2ea509b1cfdb0f267b924c1e0e524034"
        },
        "blocks" : [
            {
                "blockHeader" : {
                    "bloom" : "0x00000000000000000000000000000000000000000000000000000000000000000000000000000000000000000000000000000000000000000000000000000000000000000000000000000000000000000000000000000000000000000000000000000000000000000000000000000000000000000000000000000000000000000000000000000000000000000000000000000000000000000000000000000000000000000000000000000000000000000000000000000000000000000000000000000000000000000000000000000000000000000000000000000000000000000000000000000000000000000000000000000000000000000000000000000000",
                    "coinbase" : "0x2adc25665018aa1fe0e6bc666dac8fc2697ff9ba",
                    "difficulty" : "0x020000",
                    "extraData" : "",
                    "gasLimit" : "0x989680",
                    "gasUsed" : "0x013f4b",
                    "hash" : "0xa2cd9e2a4a01051cb033b09534bf77fa955fac9be6b1a0b2db075fd19a91682e",
                    "mixHash" : "0x026c3e62ddbe12ecec8b1377fcc7967298d5a7badcdf2b4ffc89bd4919384d3b",
                    "nonce" : "0x22a6301d4679b219",
                    "number" : "0x01",
                    "parentHash" : "0xbef829a9162ec28c4fd407f96b8b2eb2998beca8df7fcc55f197a98dc49cb47d",
                    "receiptTrie" : "0xfe89335c9939e04ddd6fd5508f818f5c6a9a50b52ba4624fef904c7275cb1727",
                    "stateRoot" : "0xf6cfa3b16b6584ad4f500d0346611615ef79016cf8a62c8c265f4c70197c0ccf",
                    "timestamp" : "0x03e8",
                    "transactionsTrie" : "0x23305d028abfa2fd78e5cb7c1a3e05fa03c388346c4890bd61d7f7c880218e46",
                    "uncleHash" : "0x1dcc4de8dec75d7aab85b567b6ccd41ad312451b948a7413f0a142fd40d49347"
                },
                "rlp" : "0xf90260f901f8a0bef829a9162ec28c4fd407f96b8b2eb2998beca8df7fcc55f197a98dc49cb47da01dcc4de8dec75d7aab85b567b6ccd41ad312451b948a7413f0a142fd40d49347942adc25665018aa1fe0e6bc666dac8fc2697ff9baa0f6cfa3b16b6584ad4f500d0346611615ef79016cf8a62c8c265f4c70197c0ccfa023305d028abfa2fd78e5cb7c1a3e05fa03c388346c4890bd61d7f7c880218e46a0fe89335c9939e04ddd6fd5508f818f5c6a9a50b52ba4624fef904c7275cb1727b901000000000000000000000000000000000000000000000000000000000000000000000000000000000000000000000000000000000000000000000000000000000000000000000000000000000000000000000000000000000000000000000000000000000000000000000000000000000000000000000000000000000000000000000000000000000000000000000000000000000000000000000000000000000000000000000000000000000000000000000000000000000000000000000000000000000000000000000000000000000000000000000000000000000000000000000000000000000000000000000000000000000000000000000000000000000083020000018398968083013f4b8203e880a0026c3e62ddbe12ecec8b1377fcc7967298d5a7badcdf2b4ffc89bd4919384d3b8822a6301d4679b219f862f86080018302713d94b94f5374fce5edbc8e2a8697c15331677e6ebf0b80801ba0c304ee60f8728f457882d945d0765f4e2879eb9ed3472129d8a319851d56be31a06140428f68d4d2716aaaf9efeb7822b3193afa58587f5df256e4b0c7e29ef8f5c0",
                "transactions" : [
                    {
                        "data" : "",
                        "gasLimit" : "0x02713d",
                        "gasPrice" : "0x01",
                        "nonce" : "0x00",
                        "r" : "0xc304ee60f8728f457882d945d0765f4e2879eb9ed3472129d8a319851d56be31",
                        "s" : "0x6140428f68d4d2716aaaf9efeb7822b3193afa58587f5df256e4b0c7e29ef8f5",
                        "to" : "0xb94f5374fce5edbc8e2a8697c15331677e6ebf0b",
                        "v" : "0x1b",
                        "value" : "0x00"
                    }
                ],
                "uncleHeaders" : [
                ]
            }
        ],
        "genesisBlockHeader" : {
            "bloom" : "0x00000000000000000000000000000000000000000000000000000000000000000000000000000000000000000000000000000000000000000000000000000000000000000000000000000000000000000000000000000000000000000000000000000000000000000000000000000000000000000000000000000000000000000000000000000000000000000000000000000000000000000000000000000000000000000000000000000000000000000000000000000000000000000000000000000000000000000000000000000000000000000000000000000000000000000000000000000000000000000000000000000000000000000000000000000000",
            "coinbase" : "0x2adc25665018aa1fe0e6bc666dac8fc2697ff9ba",
            "difficulty" : "0x020000",
            "extraData" : "0x42",
            "gasLimit" : "0x989680",
            "gasUsed" : "0x00",
            "hash" : "0xbef829a9162ec28c4fd407f96b8b2eb2998beca8df7fcc55f197a98dc49cb47d",
            "mixHash" : "0x56e81f171bcc55a6ff8345e692c0f86e5b48e01b996cadc001622fb5e363b421",
            "nonce" : "0x0102030405060708",
            "number" : "0x00",
            "parentHash" : "0x0000000000000000000000000000000000000000000000000000000000000000",
            "receiptTrie" : "0x56e81f171bcc55a6ff8345e692c0f86e5b48e01b996cadc001622fb5e363b421",
            "stateRoot" : "0x12e10185d929ed9a4f2bf673105d9e1de287a641c59bbf43399740fc05e8156b",
            "timestamp" : "0x03b6",
            "transactionsTrie" : "0x56e81f171bcc55a6ff8345e692c0f86e5b48e01b996cadc001622fb5e363b421",
            "uncleHash" : "0x1dcc4de8dec75d7aab85b567b6ccd41ad312451b948a7413f0a142fd40d49347"
        },
        "genesisRLP" : "0xf901faf901f5a00000000000000000000000000000000000000000000000000000000000000000a01dcc4de8dec75d7aab85b567b6ccd41ad312451b948a7413f0a142fd40d49347942adc25665018aa1fe0e6bc666dac8fc2697ff9baa012e10185d929ed9a4f2bf673105d9e1de287a641c59bbf43399740fc05e8156ba056e81f171bcc55a6ff8345e692c0f86e5b48e01b996cadc001622fb5e363b421a056e81f171bcc55a6ff8345e692c0f86e5b48e01b996cadc001622fb5e363b421b9010000000000000000000000000000000000000000000000000000000000000000000000000000000000000000000000000000000000000000000000000000000000000000000000000000000000000000000000000000000000000000000000000000000000000000000000000000000000000000000000000000000000000000000000000000000000000000000000000000000000000000000000000000000000000000000000000000000000000000000000000000000000000000000000000000000000000000000000000000000000000000000000000000000000000000000000000000000000000000000000000000000000000000000000000000000000830200008083989680808203b642a056e81f171bcc55a6ff8345e692c0f86e5b48e01b996cadc001622fb5e363b421880102030405060708c0c0",
        "lastblockhash" : "0xa2cd9e2a4a01051cb033b09534bf77fa955fac9be6b1a0b2db075fd19a91682e",
        "network" : "EIP150",
        "postState" : {
            "0x1000000000000000000000000000000000000118" : {
                "balance" : "0x00",
                "code" : "0x600c600155",
                "nonce" : "0x00",
                "storage" : {
                    "0x01" : "0x0c"
                }
            },
            "0x2adc25665018aa1fe0e6bc666dac8fc2697ff9ba" : {
                "balance" : "0x4563918244f53f4b",
                "code" : "",
                "nonce" : "0x00",
                "storage" : {
                }
            },
            "0xa94f5374fce5edbc8e2a8697c15331677e6ebf0b" : {
                "balance" : "0xe8d4a3d0b5",
                "code" : "",
                "nonce" : "0x01",
                "storage" : {
                }
            },
            "0xb94f5374fce5edbc8e2a8697c15331677e6ebf0b" : {
                "balance" : "0x00",
                "code" : "0x5a6000556000600060006000600073100000000000000000000000000000000000011862027100f1505a600255",
                "nonce" : "0x00",
                "storage" : {
                    "0x00" : "0x021f33",
                    "0x02" : "0x018015"
                }
            }
        },
        "pre" : {
            "0x1000000000000000000000000000000000000118" : {
                "balance" : "0x00",
                "code" : "0x600c600155",
                "nonce" : "0x00",
                "storage" : {
                }
            },
            "0xa94f5374fce5edbc8e2a8697c15331677e6ebf0b" : {
                "balance" : "0xe8d4a51000",
                "code" : "",
                "nonce" : "0x00",
                "storage" : {
                }
            },
            "0xb94f5374fce5edbc8e2a8697c15331677e6ebf0b" : {
                "balance" : "0x00",
                "code" : "0x5a6000556000600060006000600073100000000000000000000000000000000000011862027100f1505a600255",
                "nonce" : "0x00",
                "storage" : {
                }
            }
        }
    },
    "Transaction64Rule_d64m1_d0g0v0_EIP158" : {
        "_info" : {
            "comment" : "",
            "filledwith" : "cpp-1.3.0+commit.6e0ce939.Linux.g++",
            "lllcversion" : "Version: 0.4.18-develop.2017.9.25+commit.a72237f2.Linux.g++",
            "source" : "src/BlockchainTestsFiller/GeneralStateTests/stEIP150Specific/Transaction64Rule_d64m1_d0g0v0Filler.json",
            "sourceHash" : "e6dcb140f3dc5aa798a37b072a27c5ad2ea509b1cfdb0f267b924c1e0e524034"
        },
        "blocks" : [
            {
                "blockHeader" : {
                    "bloom" : "0x00000000000000000000000000000000000000000000000000000000000000000000000000000000000000000000000000000000000000000000000000000000000000000000000000000000000000000000000000000000000000000000000000000000000000000000000000000000000000000000000000000000000000000000000000000000000000000000000000000000000000000000000000000000000000000000000000000000000000000000000000000000000000000000000000000000000000000000000000000000000000000000000000000000000000000000000000000000000000000000000000000000000000000000000000000000",
                    "coinbase" : "0x2adc25665018aa1fe0e6bc666dac8fc2697ff9ba",
                    "difficulty" : "0x020000",
                    "extraData" : "",
                    "gasLimit" : "0x989680",
                    "gasUsed" : "0x013f4b",
                    "hash" : "0x51b81ebf05aab7d73d3b630745b49fb65781e36acd5d4b53745868260c380ce4",
                    "mixHash" : "0x756728aada3d4b4ad6464d1603cbffff6568fccd6ab04f8b8e66bee8d7a7d690",
                    "nonce" : "0x1d4f3e8d1a4f329f",
                    "number" : "0x01",
                    "parentHash" : "0xbef829a9162ec28c4fd407f96b8b2eb2998beca8df7fcc55f197a98dc49cb47d",
                    "receiptTrie" : "0xfe89335c9939e04ddd6fd5508f818f5c6a9a50b52ba4624fef904c7275cb1727",
                    "stateRoot" : "0xf6cfa3b16b6584ad4f500d0346611615ef79016cf8a62c8c265f4c70197c0ccf",
                    "timestamp" : "0x03e8",
                    "transactionsTrie" : "0x23305d028abfa2fd78e5cb7c1a3e05fa03c388346c4890bd61d7f7c880218e46",
                    "uncleHash" : "0x1dcc4de8dec75d7aab85b567b6ccd41ad312451b948a7413f0a142fd40d49347"
                },
                "rlp" : "0xf90260f901f8a0bef829a9162ec28c4fd407f96b8b2eb2998beca8df7fcc55f197a98dc49cb47da01dcc4de8dec75d7aab85b567b6ccd41ad312451b948a7413f0a142fd40d49347942adc25665018aa1fe0e6bc666dac8fc2697ff9baa0f6cfa3b16b6584ad4f500d0346611615ef79016cf8a62c8c265f4c70197c0ccfa023305d028abfa2fd78e5cb7c1a3e05fa03c388346c4890bd61d7f7c880218e46a0fe89335c9939e04ddd6fd5508f818f5c6a9a50b52ba4624fef904c7275cb1727b901000000000000000000000000000000000000000000000000000000000000000000000000000000000000000000000000000000000000000000000000000000000000000000000000000000000000000000000000000000000000000000000000000000000000000000000000000000000000000000000000000000000000000000000000000000000000000000000000000000000000000000000000000000000000000000000000000000000000000000000000000000000000000000000000000000000000000000000000000000000000000000000000000000000000000000000000000000000000000000000000000000000000000000000000000000000083020000018398968083013f4b8203e880a0756728aada3d4b4ad6464d1603cbffff6568fccd6ab04f8b8e66bee8d7a7d690881d4f3e8d1a4f329ff862f86080018302713d94b94f5374fce5edbc8e2a8697c15331677e6ebf0b80801ba0c304ee60f8728f457882d945d0765f4e2879eb9ed3472129d8a319851d56be31a06140428f68d4d2716aaaf9efeb7822b3193afa58587f5df256e4b0c7e29ef8f5c0",
                "transactions" : [
                    {
                        "data" : "",
                        "gasLimit" : "0x02713d",
                        "gasPrice" : "0x01",
                        "nonce" : "0x00",
                        "r" : "0xc304ee60f8728f457882d945d0765f4e2879eb9ed3472129d8a319851d56be31",
                        "s" : "0x6140428f68d4d2716aaaf9efeb7822b3193afa58587f5df256e4b0c7e29ef8f5",
                        "to" : "0xb94f5374fce5edbc8e2a8697c15331677e6ebf0b",
                        "v" : "0x1b",
                        "value" : "0x00"
                    }
                ],
                "uncleHeaders" : [
                ]
            }
        ],
        "genesisBlockHeader" : {
            "bloom" : "0x00000000000000000000000000000000000000000000000000000000000000000000000000000000000000000000000000000000000000000000000000000000000000000000000000000000000000000000000000000000000000000000000000000000000000000000000000000000000000000000000000000000000000000000000000000000000000000000000000000000000000000000000000000000000000000000000000000000000000000000000000000000000000000000000000000000000000000000000000000000000000000000000000000000000000000000000000000000000000000000000000000000000000000000000000000000",
            "coinbase" : "0x2adc25665018aa1fe0e6bc666dac8fc2697ff9ba",
            "difficulty" : "0x020000",
            "extraData" : "0x42",
            "gasLimit" : "0x989680",
            "gasUsed" : "0x00",
            "hash" : "0xbef829a9162ec28c4fd407f96b8b2eb2998beca8df7fcc55f197a98dc49cb47d",
            "mixHash" : "0x56e81f171bcc55a6ff8345e692c0f86e5b48e01b996cadc001622fb5e363b421",
            "nonce" : "0x0102030405060708",
            "number" : "0x00",
            "parentHash" : "0x0000000000000000000000000000000000000000000000000000000000000000",
            "receiptTrie" : "0x56e81f171bcc55a6ff8345e692c0f86e5b48e01b996cadc001622fb5e363b421",
            "stateRoot" : "0x12e10185d929ed9a4f2bf673105d9e1de287a641c59bbf43399740fc05e8156b",
            "timestamp" : "0x03b6",
            "transactionsTrie" : "0x56e81f171bcc55a6ff8345e692c0f86e5b48e01b996cadc001622fb5e363b421",
            "uncleHash" : "0x1dcc4de8dec75d7aab85b567b6ccd41ad312451b948a7413f0a142fd40d49347"
        },
        "genesisRLP" : "0xf901faf901f5a00000000000000000000000000000000000000000000000000000000000000000a01dcc4de8dec75d7aab85b567b6ccd41ad312451b948a7413f0a142fd40d49347942adc25665018aa1fe0e6bc666dac8fc2697ff9baa012e10185d929ed9a4f2bf673105d9e1de287a641c59bbf43399740fc05e8156ba056e81f171bcc55a6ff8345e692c0f86e5b48e01b996cadc001622fb5e363b421a056e81f171bcc55a6ff8345e692c0f86e5b48e01b996cadc001622fb5e363b421b9010000000000000000000000000000000000000000000000000000000000000000000000000000000000000000000000000000000000000000000000000000000000000000000000000000000000000000000000000000000000000000000000000000000000000000000000000000000000000000000000000000000000000000000000000000000000000000000000000000000000000000000000000000000000000000000000000000000000000000000000000000000000000000000000000000000000000000000000000000000000000000000000000000000000000000000000000000000000000000000000000000000000000000000000000000000000830200008083989680808203b642a056e81f171bcc55a6ff8345e692c0f86e5b48e01b996cadc001622fb5e363b421880102030405060708c0c0",
        "lastblockhash" : "0x51b81ebf05aab7d73d3b630745b49fb65781e36acd5d4b53745868260c380ce4",
        "network" : "EIP158",
        "postState" : {
            "0x1000000000000000000000000000000000000118" : {
                "balance" : "0x00",
                "code" : "0x600c600155",
                "nonce" : "0x00",
                "storage" : {
                    "0x01" : "0x0c"
                }
            },
            "0x2adc25665018aa1fe0e6bc666dac8fc2697ff9ba" : {
                "balance" : "0x4563918244f53f4b",
                "code" : "",
                "nonce" : "0x00",
                "storage" : {
                }
            },
            "0xa94f5374fce5edbc8e2a8697c15331677e6ebf0b" : {
                "balance" : "0xe8d4a3d0b5",
                "code" : "",
                "nonce" : "0x01",
                "storage" : {
                }
            },
            "0xb94f5374fce5edbc8e2a8697c15331677e6ebf0b" : {
                "balance" : "0x00",
                "code" : "0x5a6000556000600060006000600073100000000000000000000000000000000000011862027100f1505a600255",
                "nonce" : "0x00",
                "storage" : {
                    "0x00" : "0x021f33",
                    "0x02" : "0x018015"
                }
            }
        },
        "pre" : {
            "0x1000000000000000000000000000000000000118" : {
                "balance" : "0x00",
                "code" : "0x600c600155",
                "nonce" : "0x00",
                "storage" : {
                }
            },
            "0xa94f5374fce5edbc8e2a8697c15331677e6ebf0b" : {
                "balance" : "0xe8d4a51000",
                "code" : "",
                "nonce" : "0x00",
                "storage" : {
                }
            },
            "0xb94f5374fce5edbc8e2a8697c15331677e6ebf0b" : {
                "balance" : "0x00",
                "code" : "0x5a6000556000600060006000600073100000000000000000000000000000000000011862027100f1505a600255",
                "nonce" : "0x00",
                "storage" : {
                }
            }
        }
    },
    "Transaction64Rule_d64m1_d0g0v0_Frontier" : {
        "_info" : {
            "comment" : "",
            "filledwith" : "cpp-1.3.0+commit.6e0ce939.Linux.g++",
            "lllcversion" : "Version: 0.4.18-develop.2017.9.25+commit.a72237f2.Linux.g++",
            "source" : "src/BlockchainTestsFiller/GeneralStateTests/stEIP150Specific/Transaction64Rule_d64m1_d0g0v0Filler.json",
            "sourceHash" : "e6dcb140f3dc5aa798a37b072a27c5ad2ea509b1cfdb0f267b924c1e0e524034"
        },
        "blocks" : [
            {
                "blockHeader" : {
                    "bloom" : "0x00000000000000000000000000000000000000000000000000000000000000000000000000000000000000000000000000000000000000000000000000000000000000000000000000000000000000000000000000000000000000000000000000000000000000000000000000000000000000000000000000000000000000000000000000000000000000000000000000000000000000000000000000000000000000000000000000000000000000000000000000000000000000000000000000000000000000000000000000000000000000000000000000000000000000000000000000000000000000000000000000000000000000000000000000000000",
                    "coinbase" : "0x2adc25665018aa1fe0e6bc666dac8fc2697ff9ba",
                    "difficulty" : "0x020000",
                    "extraData" : "",
                    "gasLimit" : "0x989680",
                    "gasUsed" : "0x02713d",
                    "hash" : "0x3af097b8972dd5f501b41b031030c7b408dc6b05320191ba7a3bebc8e1973333",
                    "mixHash" : "0x1ad826ddb544d36c401854584b67dbcc5b1659dbaca9b53e1fa272506fe81fc6",
                    "nonce" : "0xbecb2f24c686b861",
                    "number" : "0x01",
                    "parentHash" : "0xbef829a9162ec28c4fd407f96b8b2eb2998beca8df7fcc55f197a98dc49cb47d",
                    "receiptTrie" : "0x21a14fb00ede8f40747bb5660948ba0fff7109bfb8c75af0687035e10167605f",
                    "stateRoot" : "0xffe7c3a0ff7c8f057fb744a46656712272135cda8cfeee46b0c46087a032292c",
                    "timestamp" : "0x03e8",
                    "transactionsTrie" : "0x23305d028abfa2fd78e5cb7c1a3e05fa03c388346c4890bd61d7f7c880218e46",
                    "uncleHash" : "0x1dcc4de8dec75d7aab85b567b6ccd41ad312451b948a7413f0a142fd40d49347"
                },
                "rlp" : "0xf90260f901f8a0bef829a9162ec28c4fd407f96b8b2eb2998beca8df7fcc55f197a98dc49cb47da01dcc4de8dec75d7aab85b567b6ccd41ad312451b948a7413f0a142fd40d49347942adc25665018aa1fe0e6bc666dac8fc2697ff9baa0ffe7c3a0ff7c8f057fb744a46656712272135cda8cfeee46b0c46087a032292ca023305d028abfa2fd78e5cb7c1a3e05fa03c388346c4890bd61d7f7c880218e46a021a14fb00ede8f40747bb5660948ba0fff7109bfb8c75af0687035e10167605fb90100000000000000000000000000000000000000000000000000000000000000000000000000000000000000000000000000000000000000000000000000000000000000000000000000000000000000000000000000000000000000000000000000000000000000000000000000000000000000000000000000000000000000000000000000000000000000000000000000000000000000000000000000000000000000000000000000000000000000000000000000000000000000000000000000000000000000000000000000000000000000000000000000000000000000000000000000000000000000000000000000000000000000000000000000000000008302000001839896808302713d8203e880a01ad826ddb544d36c401854584b67dbcc5b1659dbaca9b53e1fa272506fe81fc688becb2f24c686b861f862f86080018302713d94b94f5374fce5edbc8e2a8697c15331677e6ebf0b80801ba0c304ee60f8728f457882d945d0765f4e2879eb9ed3472129d8a319851d56be31a06140428f68d4d2716aaaf9efeb7822b3193afa58587f5df256e4b0c7e29ef8f5c0",
                "transactions" : [
                    {
                        "data" : "",
                        "gasLimit" : "0x02713d",
                        "gasPrice" : "0x01",
                        "nonce" : "0x00",
                        "r" : "0xc304ee60f8728f457882d945d0765f4e2879eb9ed3472129d8a319851d56be31",
                        "s" : "0x6140428f68d4d2716aaaf9efeb7822b3193afa58587f5df256e4b0c7e29ef8f5",
                        "to" : "0xb94f5374fce5edbc8e2a8697c15331677e6ebf0b",
                        "v" : "0x1b",
                        "value" : "0x00"
                    }
                ],
                "uncleHeaders" : [
                ]
            }
        ],
        "genesisBlockHeader" : {
            "bloom" : "0x00000000000000000000000000000000000000000000000000000000000000000000000000000000000000000000000000000000000000000000000000000000000000000000000000000000000000000000000000000000000000000000000000000000000000000000000000000000000000000000000000000000000000000000000000000000000000000000000000000000000000000000000000000000000000000000000000000000000000000000000000000000000000000000000000000000000000000000000000000000000000000000000000000000000000000000000000000000000000000000000000000000000000000000000000000000",
            "coinbase" : "0x2adc25665018aa1fe0e6bc666dac8fc2697ff9ba",
            "difficulty" : "0x020000",
            "extraData" : "0x42",
            "gasLimit" : "0x989680",
            "gasUsed" : "0x00",
            "hash" : "0xbef829a9162ec28c4fd407f96b8b2eb2998beca8df7fcc55f197a98dc49cb47d",
            "mixHash" : "0x56e81f171bcc55a6ff8345e692c0f86e5b48e01b996cadc001622fb5e363b421",
            "nonce" : "0x0102030405060708",
            "number" : "0x00",
            "parentHash" : "0x0000000000000000000000000000000000000000000000000000000000000000",
            "receiptTrie" : "0x56e81f171bcc55a6ff8345e692c0f86e5b48e01b996cadc001622fb5e363b421",
            "stateRoot" : "0x12e10185d929ed9a4f2bf673105d9e1de287a641c59bbf43399740fc05e8156b",
            "timestamp" : "0x03b6",
            "transactionsTrie" : "0x56e81f171bcc55a6ff8345e692c0f86e5b48e01b996cadc001622fb5e363b421",
            "uncleHash" : "0x1dcc4de8dec75d7aab85b567b6ccd41ad312451b948a7413f0a142fd40d49347"
        },
        "genesisRLP" : "0xf901faf901f5a00000000000000000000000000000000000000000000000000000000000000000a01dcc4de8dec75d7aab85b567b6ccd41ad312451b948a7413f0a142fd40d49347942adc25665018aa1fe0e6bc666dac8fc2697ff9baa012e10185d929ed9a4f2bf673105d9e1de287a641c59bbf43399740fc05e8156ba056e81f171bcc55a6ff8345e692c0f86e5b48e01b996cadc001622fb5e363b421a056e81f171bcc55a6ff8345e692c0f86e5b48e01b996cadc001622fb5e363b421b9010000000000000000000000000000000000000000000000000000000000000000000000000000000000000000000000000000000000000000000000000000000000000000000000000000000000000000000000000000000000000000000000000000000000000000000000000000000000000000000000000000000000000000000000000000000000000000000000000000000000000000000000000000000000000000000000000000000000000000000000000000000000000000000000000000000000000000000000000000000000000000000000000000000000000000000000000000000000000000000000000000000000000000000000000000000000830200008083989680808203b642a056e81f171bcc55a6ff8345e692c0f86e5b48e01b996cadc001622fb5e363b421880102030405060708c0c0",
        "lastblockhash" : "0x3af097b8972dd5f501b41b031030c7b408dc6b05320191ba7a3bebc8e1973333",
        "network" : "Frontier",
        "postState" : {
            "0x1000000000000000000000000000000000000118" : {
                "balance" : "0x00",
                "code" : "0x600c600155",
                "nonce" : "0x00",
                "storage" : {
                }
            },
            "0x2adc25665018aa1fe0e6bc666dac8fc2697ff9ba" : {
                "balance" : "0x4563918244f6713d",
                "code" : "",
                "nonce" : "0x00",
                "storage" : {
                }
            },
            "0xa94f5374fce5edbc8e2a8697c15331677e6ebf0b" : {
                "balance" : "0xe8d4a29ec3",
                "code" : "",
                "nonce" : "0x01",
                "storage" : {
                }
            },
            "0xb94f5374fce5edbc8e2a8697c15331677e6ebf0b" : {
                "balance" : "0x00",
                "code" : "0x5a6000556000600060006000600073100000000000000000000000000000000000011862027100f1505a600255",
                "nonce" : "0x00",
                "storage" : {
                }
            }
        },
        "pre" : {
            "0x1000000000000000000000000000000000000118" : {
                "balance" : "0x00",
                "code" : "0x600c600155",
                "nonce" : "0x00",
                "storage" : {
                }
            },
            "0xa94f5374fce5edbc8e2a8697c15331677e6ebf0b" : {
                "balance" : "0xe8d4a51000",
                "code" : "",
                "nonce" : "0x00",
                "storage" : {
                }
            },
            "0xb94f5374fce5edbc8e2a8697c15331677e6ebf0b" : {
                "balance" : "0x00",
                "code" : "0x5a6000556000600060006000600073100000000000000000000000000000000000011862027100f1505a600255",
                "nonce" : "0x00",
                "storage" : {
                }
            }
        }
    },
    "Transaction64Rule_d64m1_d0g0v0_Homestead" : {
        "_info" : {
            "comment" : "",
            "filledwith" : "cpp-1.3.0+commit.6e0ce939.Linux.g++",
            "lllcversion" : "Version: 0.4.18-develop.2017.9.25+commit.a72237f2.Linux.g++",
            "source" : "src/BlockchainTestsFiller/GeneralStateTests/stEIP150Specific/Transaction64Rule_d64m1_d0g0v0Filler.json",
            "sourceHash" : "e6dcb140f3dc5aa798a37b072a27c5ad2ea509b1cfdb0f267b924c1e0e524034"
        },
        "blocks" : [
            {
                "blockHeader" : {
                    "bloom" : "0x00000000000000000000000000000000000000000000000000000000000000000000000000000000000000000000000000000000000000000000000000000000000000000000000000000000000000000000000000000000000000000000000000000000000000000000000000000000000000000000000000000000000000000000000000000000000000000000000000000000000000000000000000000000000000000000000000000000000000000000000000000000000000000000000000000000000000000000000000000000000000000000000000000000000000000000000000000000000000000000000000000000000000000000000000000000",
                    "coinbase" : "0x2adc25665018aa1fe0e6bc666dac8fc2697ff9ba",
                    "difficulty" : "0x020000",
                    "extraData" : "",
                    "gasLimit" : "0x989680",
                    "gasUsed" : "0x02713d",
                    "hash" : "0x4514d428d4554827101f0c434a8895a0b2ffb409013e185bc048d7d92f7d92da",
                    "mixHash" : "0x283789fbfe64dbbc77cd32728141d6c86b03a2548abaecc331c53ae413537f2d",
                    "nonce" : "0x88ad2d90b716f85e",
                    "number" : "0x01",
                    "parentHash" : "0xbef829a9162ec28c4fd407f96b8b2eb2998beca8df7fcc55f197a98dc49cb47d",
                    "receiptTrie" : "0x21a14fb00ede8f40747bb5660948ba0fff7109bfb8c75af0687035e10167605f",
                    "stateRoot" : "0xffe7c3a0ff7c8f057fb744a46656712272135cda8cfeee46b0c46087a032292c",
                    "timestamp" : "0x03e8",
                    "transactionsTrie" : "0x23305d028abfa2fd78e5cb7c1a3e05fa03c388346c4890bd61d7f7c880218e46",
                    "uncleHash" : "0x1dcc4de8dec75d7aab85b567b6ccd41ad312451b948a7413f0a142fd40d49347"
                },
                "rlp" : "0xf90260f901f8a0bef829a9162ec28c4fd407f96b8b2eb2998beca8df7fcc55f197a98dc49cb47da01dcc4de8dec75d7aab85b567b6ccd41ad312451b948a7413f0a142fd40d49347942adc25665018aa1fe0e6bc666dac8fc2697ff9baa0ffe7c3a0ff7c8f057fb744a46656712272135cda8cfeee46b0c46087a032292ca023305d028abfa2fd78e5cb7c1a3e05fa03c388346c4890bd61d7f7c880218e46a021a14fb00ede8f40747bb5660948ba0fff7109bfb8c75af0687035e10167605fb90100000000000000000000000000000000000000000000000000000000000000000000000000000000000000000000000000000000000000000000000000000000000000000000000000000000000000000000000000000000000000000000000000000000000000000000000000000000000000000000000000000000000000000000000000000000000000000000000000000000000000000000000000000000000000000000000000000000000000000000000000000000000000000000000000000000000000000000000000000000000000000000000000000000000000000000000000000000000000000000000000000000000000000000000000000000008302000001839896808302713d8203e880a0283789fbfe64dbbc77cd32728141d6c86b03a2548abaecc331c53ae413537f2d8888ad2d90b716f85ef862f86080018302713d94b94f5374fce5edbc8e2a8697c15331677e6ebf0b80801ba0c304ee60f8728f457882d945d0765f4e2879eb9ed3472129d8a319851d56be31a06140428f68d4d2716aaaf9efeb7822b3193afa58587f5df256e4b0c7e29ef8f5c0",
                "transactions" : [
                    {
                        "data" : "",
                        "gasLimit" : "0x02713d",
                        "gasPrice" : "0x01",
                        "nonce" : "0x00",
                        "r" : "0xc304ee60f8728f457882d945d0765f4e2879eb9ed3472129d8a319851d56be31",
                        "s" : "0x6140428f68d4d2716aaaf9efeb7822b3193afa58587f5df256e4b0c7e29ef8f5",
                        "to" : "0xb94f5374fce5edbc8e2a8697c15331677e6ebf0b",
                        "v" : "0x1b",
                        "value" : "0x00"
                    }
                ],
                "uncleHeaders" : [
                ]
            }
        ],
        "genesisBlockHeader" : {
            "bloom" : "0x00000000000000000000000000000000000000000000000000000000000000000000000000000000000000000000000000000000000000000000000000000000000000000000000000000000000000000000000000000000000000000000000000000000000000000000000000000000000000000000000000000000000000000000000000000000000000000000000000000000000000000000000000000000000000000000000000000000000000000000000000000000000000000000000000000000000000000000000000000000000000000000000000000000000000000000000000000000000000000000000000000000000000000000000000000000",
            "coinbase" : "0x2adc25665018aa1fe0e6bc666dac8fc2697ff9ba",
            "difficulty" : "0x020000",
            "extraData" : "0x42",
            "gasLimit" : "0x989680",
            "gasUsed" : "0x00",
            "hash" : "0xbef829a9162ec28c4fd407f96b8b2eb2998beca8df7fcc55f197a98dc49cb47d",
            "mixHash" : "0x56e81f171bcc55a6ff8345e692c0f86e5b48e01b996cadc001622fb5e363b421",
            "nonce" : "0x0102030405060708",
            "number" : "0x00",
            "parentHash" : "0x0000000000000000000000000000000000000000000000000000000000000000",
            "receiptTrie" : "0x56e81f171bcc55a6ff8345e692c0f86e5b48e01b996cadc001622fb5e363b421",
            "stateRoot" : "0x12e10185d929ed9a4f2bf673105d9e1de287a641c59bbf43399740fc05e8156b",
            "timestamp" : "0x03b6",
            "transactionsTrie" : "0x56e81f171bcc55a6ff8345e692c0f86e5b48e01b996cadc001622fb5e363b421",
            "uncleHash" : "0x1dcc4de8dec75d7aab85b567b6ccd41ad312451b948a7413f0a142fd40d49347"
        },
        "genesisRLP" : "0xf901faf901f5a00000000000000000000000000000000000000000000000000000000000000000a01dcc4de8dec75d7aab85b567b6ccd41ad312451b948a7413f0a142fd40d49347942adc25665018aa1fe0e6bc666dac8fc2697ff9baa012e10185d929ed9a4f2bf673105d9e1de287a641c59bbf43399740fc05e8156ba056e81f171bcc55a6ff8345e692c0f86e5b48e01b996cadc001622fb5e363b421a056e81f171bcc55a6ff8345e692c0f86e5b48e01b996cadc001622fb5e363b421b9010000000000000000000000000000000000000000000000000000000000000000000000000000000000000000000000000000000000000000000000000000000000000000000000000000000000000000000000000000000000000000000000000000000000000000000000000000000000000000000000000000000000000000000000000000000000000000000000000000000000000000000000000000000000000000000000000000000000000000000000000000000000000000000000000000000000000000000000000000000000000000000000000000000000000000000000000000000000000000000000000000000000000000000000000000000000830200008083989680808203b642a056e81f171bcc55a6ff8345e692c0f86e5b48e01b996cadc001622fb5e363b421880102030405060708c0c0",
        "lastblockhash" : "0x4514d428d4554827101f0c434a8895a0b2ffb409013e185bc048d7d92f7d92da",
        "network" : "Homestead",
        "postState" : {
            "0x1000000000000000000000000000000000000118" : {
                "balance" : "0x00",
                "code" : "0x600c600155",
                "nonce" : "0x00",
                "storage" : {
                }
            },
            "0x2adc25665018aa1fe0e6bc666dac8fc2697ff9ba" : {
                "balance" : "0x4563918244f6713d",
                "code" : "",
                "nonce" : "0x00",
                "storage" : {
                }
            },
            "0xa94f5374fce5edbc8e2a8697c15331677e6ebf0b" : {
                "balance" : "0xe8d4a29ec3",
                "code" : "",
                "nonce" : "0x01",
                "storage" : {
                }
            },
            "0xb94f5374fce5edbc8e2a8697c15331677e6ebf0b" : {
                "balance" : "0x00",
                "code" : "0x5a6000556000600060006000600073100000000000000000000000000000000000011862027100f1505a600255",
                "nonce" : "0x00",
                "storage" : {
                }
            }
        },
        "pre" : {
            "0x1000000000000000000000000000000000000118" : {
                "balance" : "0x00",
                "code" : "0x600c600155",
                "nonce" : "0x00",
                "storage" : {
                }
            },
            "0xa94f5374fce5edbc8e2a8697c15331677e6ebf0b" : {
                "balance" : "0xe8d4a51000",
                "code" : "",
                "nonce" : "0x00",
                "storage" : {
                }
            },
            "0xb94f5374fce5edbc8e2a8697c15331677e6ebf0b" : {
                "balance" : "0x00",
                "code" : "0x5a6000556000600060006000600073100000000000000000000000000000000000011862027100f1505a600255",
                "nonce" : "0x00",
                "storage" : {
                }
            }
        }
    }
}