{
    "DifferentExtraData1025_Byzantium" : {
        "_info" : {
            "comment" : "",
            "filledwith" : "cpp-1.3.0+commit.6e0ce939.Linux.g++",
            "lllcversion" : "Version: 0.4.18-develop.2017.9.25+commit.a72237f2.Linux.g++",
            "source" : "src/BlockchainTestsFiller/bcInvalidHeaderTest/DifferentExtraData1025Filler.json",
            "sourceHash" : "7ec91abf25b00171cf94f249b94b7ccd76ef705f3e395575bafc18bf64a96adc"
        },
        "blocks" : [
            {
                "expectExceptionALL" : "ExtraDataTooBig",
                "rlp" : "0xf90665f905fca0ea4ecb53f6feb3ac3dad717297718406d40e5e21d1c8a1cf0db64087cacf2bd5a01dcc4de8dec75d7aab85b567b6ccd41ad312451b948a7413f0a142fd40d49347948888f1f195afa192cfee860698584c030f4c9db1a03a764379c6d6441923aad8d1a8795f3a1585a80fb18927704ffd78d81a6c91d6a0c590d5598e571c0acebad12175f241738803400f57cfb272e595999dbbfd08d7a021f4ebc5b0fb1ad80a00f78d04e67d1b30af68cecb3a8a2bf55247f11df1e3edb90100000000000000000010000000000000000000000000000000000000000000000000000000000000000000000000000000000000000000000000000000000000000000000000000000000000000000000000000000000000000000000000000000000000000200000000000000000008000000000000000000000000000000000000000000000000000000000000000000000000000000000000000000000000000000000000000000040000000000000000000000000000000000000000000000000000000000000000000000000000000000000000000000000000000000200000000000400000000000000000000000000000000000000000000000000000008302000001832fefba82560b8459d6634fb904010101020304050607080910111213141516171819202122232410000000000000000000200000000000000000003000000000000000000040000000000000000000500000000000000000006000000000000000000070000000000000000000800000000000000000009000000000000000000010000000000000000000100000000000000000002000000000000000000030000000000000000000400000000000000000005000000000000000000060000000000000000000700000000000000000008000000000000000000090000000000000000000100000000000000000001000000000000000000020000000000000000000300000000000000000004000000000000000000050000000000000000000600000000000000000007000000000000000000080000000000000000000900000000000000000001000000000000000000010000000000000000000200000000000000000003000000000000000000040000000000000000000500000000000000000006000000000000000000070000000000000000000800000000000000000009000000000000000000010000000000000000000100000000000000000002000000000000000000030000000000000000000400000000000000000005000000000000000000060000000000000000000700000000000000000008000000000000000000090000000000000000000100000000000000000001000000000000000000020000000000000000000300000000000000000004000000000000000000050000000000000000000600000000000000000007000000000000000000080000000000000000000900000000000000000001000000000000000000010000000000000000000200000000000000000003000000000000000000040000000000000000000500000000000000000006000000000000000000070000000000000000000800000000000000000009000000000000000000010000000000000000000100000000000000000002000000000000000000030000000000000000000400000000000000000005000000000000000000060000000000000000000700000000000000000008000000000000000000090000000000000000000100000000000000000001000000000000000000020000000000000000000300000000000000000004000000000000000000050000000000000000000600000000000000000007000000000000000000080000000000000000000900000000000000000001000000000000000000010000000000000000000200000000000000000003000000000000000000040000000000000000000500000000000000000006000000000000000000070000000000000000000800000000000000000009000000000000000000010000000000000000000a084607e0f6493eaa540bf899dab6c5e70b9cb955ffa427b9e79128989cb579f8288cb969c9604a4373bf863f861800a82c35094095e7baea6a6c7c4c2dfeb977efac326af552d87821388801ba0149dedccf5d524176aa17525074acf56f17cd7b472a9860c9d3ec4d87a6d0393a03cf6326d11c57d8b558c21c63fc848f8d0b76582060044e8e48d9d0d29054a36c0"
            }
        ],
        "genesisBlockHeader" : {
            "bloom" : "0x00000000000000000000000000000000000000000000000000000000000000000000000000000000000000000000000000000000000000000000000000000000000000000000000000000000000000000000000000000000000000000000000000000000000000000000000000000000000000000000000000000000000000000000000000000000000000000000000000000000000000000000000000000000000000000000000000000000000000000000000000000000000000000000000000000000000000000000000000000000000000000000000000000000000000000000000000000000000000000000000000000000000000000000000000000000",
            "coinbase" : "0x8888f1f195afa192cfee860698584c030f4c9db1",
            "difficulty" : "0x020000",
            "extraData" : "0x42",
            "gasLimit" : "0x2fefd8",
            "gasUsed" : "0x00",
            "hash" : "0xea4ecb53f6feb3ac3dad717297718406d40e5e21d1c8a1cf0db64087cacf2bd5",
            "mixHash" : "0x56e81f171bcc55a6ff8345e692c0f86e5b48e01b996cadc001622fb5e363b421",
            "nonce" : "0x0102030405060708",
            "number" : "0x00",
            "parentHash" : "0x0000000000000000000000000000000000000000000000000000000000000000",
            "receiptTrie" : "0x56e81f171bcc55a6ff8345e692c0f86e5b48e01b996cadc001622fb5e363b421",
            "stateRoot" : "0xb7829295a16db7cae65a071afbb272390f893dc1b0d3f098504148a7056f8056",
            "timestamp" : "0x54c98c81",
            "transactionsTrie" : "0x56e81f171bcc55a6ff8345e692c0f86e5b48e01b996cadc001622fb5e363b421",
            "uncleHash" : "0x1dcc4de8dec75d7aab85b567b6ccd41ad312451b948a7413f0a142fd40d49347"
        },
        "genesisRLP" : "0xf901fcf901f7a00000000000000000000000000000000000000000000000000000000000000000a01dcc4de8dec75d7aab85b567b6ccd41ad312451b948a7413f0a142fd40d49347948888f1f195afa192cfee860698584c030f4c9db1a0b7829295a16db7cae65a071afbb272390f893dc1b0d3f098504148a7056f8056a056e81f171bcc55a6ff8345e692c0f86e5b48e01b996cadc001622fb5e363b421a056e81f171bcc55a6ff8345e692c0f86e5b48e01b996cadc001622fb5e363b421b90100000000000000000000000000000000000000000000000000000000000000000000000000000000000000000000000000000000000000000000000000000000000000000000000000000000000000000000000000000000000000000000000000000000000000000000000000000000000000000000000000000000000000000000000000000000000000000000000000000000000000000000000000000000000000000000000000000000000000000000000000000000000000000000000000000000000000000000000000000000000000000000000000000000000000000000000000000000000000000000000000000000000000000000000000000000008302000080832fefd8808454c98c8142a056e81f171bcc55a6ff8345e692c0f86e5b48e01b996cadc001622fb5e363b421880102030405060708c0c0",
        "lastblockhash" : "0xea4ecb53f6feb3ac3dad717297718406d40e5e21d1c8a1cf0db64087cacf2bd5",
        "network" : "Byzantium",
        "postState" : {
            "0x095e7baea6a6c7c4c2dfeb977efac326af552d87" : {
                "balance" : "0x64",
                "code" : "0x7fffffffffffffffffffffffffffffffffffffffffffffffffffffffffffffffff600052600060206000a1",
                "nonce" : "0x00",
                "storage" : {
                }
            },
            "0xa94f5374fce5edbc8e2a8697c15331677e6ebf0b" : {
                "balance" : "0x174876e800",
                "code" : "",
                "nonce" : "0x00",
                "storage" : {
                }
            }
        },
        "pre" : {
            "0x095e7baea6a6c7c4c2dfeb977efac326af552d87" : {
                "balance" : "0x64",
                "code" : "0x7fffffffffffffffffffffffffffffffffffffffffffffffffffffffffffffffff600052600060206000a1",
                "nonce" : "0x00",
                "storage" : {
                }
            },
            "0xa94f5374fce5edbc8e2a8697c15331677e6ebf0b" : {
                "balance" : "0x174876e800",
                "code" : "",
                "nonce" : "0x00",
                "storage" : {
                }
            }
        }
    },
    "DifferentExtraData1025_EIP150" : {
        "_info" : {
            "comment" : "",
            "filledwith" : "cpp-1.3.0+commit.6e0ce939.Linux.g++",
            "lllcversion" : "Version: 0.4.18-develop.2017.9.25+commit.a72237f2.Linux.g++",
            "source" : "src/BlockchainTestsFiller/bcInvalidHeaderTest/DifferentExtraData1025Filler.json",
            "sourceHash" : "7ec91abf25b00171cf94f249b94b7ccd76ef705f3e395575bafc18bf64a96adc"
        },
        "blocks" : [
            {
                "expectExceptionALL" : "ExtraDataTooBig",
                "rlp" : "0xf90665f905fca0ea4ecb53f6feb3ac3dad717297718406d40e5e21d1c8a1cf0db64087cacf2bd5a01dcc4de8dec75d7aab85b567b6ccd41ad312451b948a7413f0a142fd40d49347948888f1f195afa192cfee860698584c030f4c9db1a0201eacb02252d150f7f1a1dc2440f7fab2f468329953051836f81bae65e26914a0c590d5598e571c0acebad12175f241738803400f57cfb272e595999dbbfd08d7a05e7d8bf8bc817405813b0866e3bfa1ad048f982be5b81ab17b4db03266b24b26b90100000000000000000010000000000000000000000000000000000000000000000000000000000000000000000000000000000000000000000000000000000000000000000000000000000000000000000000000000000000000000000000000000000000000200000000000000000008000000000000000000000000000000000000000000000000000000000000000000000000000000000000000000000000000000000000000000040000000000000000000000000000000000000000000000000000000000000000000000000000000000000000000000000000000000200000000000400000000000000000000000000000000000000000000000000000008302000001832fefba82560b8459d66347b904010101020304050607080910111213141516171819202122232410000000000000000000200000000000000000003000000000000000000040000000000000000000500000000000000000006000000000000000000070000000000000000000800000000000000000009000000000000000000010000000000000000000100000000000000000002000000000000000000030000000000000000000400000000000000000005000000000000000000060000000000000000000700000000000000000008000000000000000000090000000000000000000100000000000000000001000000000000000000020000000000000000000300000000000000000004000000000000000000050000000000000000000600000000000000000007000000000000000000080000000000000000000900000000000000000001000000000000000000010000000000000000000200000000000000000003000000000000000000040000000000000000000500000000000000000006000000000000000000070000000000000000000800000000000000000009000000000000000000010000000000000000000100000000000000000002000000000000000000030000000000000000000400000000000000000005000000000000000000060000000000000000000700000000000000000008000000000000000000090000000000000000000100000000000000000001000000000000000000020000000000000000000300000000000000000004000000000000000000050000000000000000000600000000000000000007000000000000000000080000000000000000000900000000000000000001000000000000000000010000000000000000000200000000000000000003000000000000000000040000000000000000000500000000000000000006000000000000000000070000000000000000000800000000000000000009000000000000000000010000000000000000000100000000000000000002000000000000000000030000000000000000000400000000000000000005000000000000000000060000000000000000000700000000000000000008000000000000000000090000000000000000000100000000000000000001000000000000000000020000000000000000000300000000000000000004000000000000000000050000000000000000000600000000000000000007000000000000000000080000000000000000000900000000000000000001000000000000000000010000000000000000000200000000000000000003000000000000000000040000000000000000000500000000000000000006000000000000000000070000000000000000000800000000000000000009000000000000000000010000000000000000000a0782e4d8266d7c87a7214922e18622a5dfdaf50b67c6c00e28c1394817e5ef6cb88714dfb5aab58eae7f863f861800a82c35094095e7baea6a6c7c4c2dfeb977efac326af552d87821388801ba0149dedccf5d524176aa17525074acf56f17cd7b472a9860c9d3ec4d87a6d0393a03cf6326d11c57d8b558c21c63fc848f8d0b76582060044e8e48d9d0d29054a36c0"
            }
        ],
        "genesisBlockHeader" : {
            "bloom" : "0x00000000000000000000000000000000000000000000000000000000000000000000000000000000000000000000000000000000000000000000000000000000000000000000000000000000000000000000000000000000000000000000000000000000000000000000000000000000000000000000000000000000000000000000000000000000000000000000000000000000000000000000000000000000000000000000000000000000000000000000000000000000000000000000000000000000000000000000000000000000000000000000000000000000000000000000000000000000000000000000000000000000000000000000000000000000",
            "coinbase" : "0x8888f1f195afa192cfee860698584c030f4c9db1",
            "difficulty" : "0x020000",
            "extraData" : "0x42",
            "gasLimit" : "0x2fefd8",
            "gasUsed" : "0x00",
            "hash" : "0xea4ecb53f6feb3ac3dad717297718406d40e5e21d1c8a1cf0db64087cacf2bd5",
            "mixHash" : "0x56e81f171bcc55a6ff8345e692c0f86e5b48e01b996cadc001622fb5e363b421",
            "nonce" : "0x0102030405060708",
            "number" : "0x00",
            "parentHash" : "0x0000000000000000000000000000000000000000000000000000000000000000",
            "receiptTrie" : "0x56e81f171bcc55a6ff8345e692c0f86e5b48e01b996cadc001622fb5e363b421",
            "stateRoot" : "0xb7829295a16db7cae65a071afbb272390f893dc1b0d3f098504148a7056f8056",
            "timestamp" : "0x54c98c81",
            "transactionsTrie" : "0x56e81f171bcc55a6ff8345e692c0f86e5b48e01b996cadc001622fb5e363b421",
            "uncleHash" : "0x1dcc4de8dec75d7aab85b567b6ccd41ad312451b948a7413f0a142fd40d49347"
        },
        "genesisRLP" : "0xf901fcf901f7a00000000000000000000000000000000000000000000000000000000000000000a01dcc4de8dec75d7aab85b567b6ccd41ad312451b948a7413f0a142fd40d49347948888f1f195afa192cfee860698584c030f4c9db1a0b7829295a16db7cae65a071afbb272390f893dc1b0d3f098504148a7056f8056a056e81f171bcc55a6ff8345e692c0f86e5b48e01b996cadc001622fb5e363b421a056e81f171bcc55a6ff8345e692c0f86e5b48e01b996cadc001622fb5e363b421b90100000000000000000000000000000000000000000000000000000000000000000000000000000000000000000000000000000000000000000000000000000000000000000000000000000000000000000000000000000000000000000000000000000000000000000000000000000000000000000000000000000000000000000000000000000000000000000000000000000000000000000000000000000000000000000000000000000000000000000000000000000000000000000000000000000000000000000000000000000000000000000000000000000000000000000000000000000000000000000000000000000000000000000000000000000000008302000080832fefd8808454c98c8142a056e81f171bcc55a6ff8345e692c0f86e5b48e01b996cadc001622fb5e363b421880102030405060708c0c0",
        "lastblockhash" : "0xea4ecb53f6feb3ac3dad717297718406d40e5e21d1c8a1cf0db64087cacf2bd5",
        "network" : "EIP150",
        "postState" : {
            "0x095e7baea6a6c7c4c2dfeb977efac326af552d87" : {
                "balance" : "0x64",
                "code" : "0x7fffffffffffffffffffffffffffffffffffffffffffffffffffffffffffffffff600052600060206000a1",
                "nonce" : "0x00",
                "storage" : {
                }
            },
            "0xa94f5374fce5edbc8e2a8697c15331677e6ebf0b" : {
                "balance" : "0x174876e800",
                "code" : "",
                "nonce" : "0x00",
                "storage" : {
                }
            }
        },
        "pre" : {
            "0x095e7baea6a6c7c4c2dfeb977efac326af552d87" : {
                "balance" : "0x64",
                "code" : "0x7fffffffffffffffffffffffffffffffffffffffffffffffffffffffffffffffff600052600060206000a1",
                "nonce" : "0x00",
                "storage" : {
                }
            },
            "0xa94f5374fce5edbc8e2a8697c15331677e6ebf0b" : {
                "balance" : "0x174876e800",
                "code" : "",
                "nonce" : "0x00",
                "storage" : {
                }
            }
        }
    },
    "DifferentExtraData1025_EIP158" : {
        "_info" : {
            "comment" : "",
            "filledwith" : "cpp-1.3.0+commit.6e0ce939.Linux.g++",
            "lllcversion" : "Version: 0.4.18-develop.2017.9.25+commit.a72237f2.Linux.g++",
            "source" : "src/BlockchainTestsFiller/bcInvalidHeaderTest/DifferentExtraData1025Filler.json",
            "sourceHash" : "7ec91abf25b00171cf94f249b94b7ccd76ef705f3e395575bafc18bf64a96adc"
        },
        "blocks" : [
            {
                "expectExceptionALL" : "ExtraDataTooBig",
                "rlp" : "0xf90665f905fca0ea4ecb53f6feb3ac3dad717297718406d40e5e21d1c8a1cf0db64087cacf2bd5a01dcc4de8dec75d7aab85b567b6ccd41ad312451b948a7413f0a142fd40d49347948888f1f195afa192cfee860698584c030f4c9db1a0201eacb02252d150f7f1a1dc2440f7fab2f468329953051836f81bae65e26914a0c590d5598e571c0acebad12175f241738803400f57cfb272e595999dbbfd08d7a05e7d8bf8bc817405813b0866e3bfa1ad048f982be5b81ab17b4db03266b24b26b90100000000000000000010000000000000000000000000000000000000000000000000000000000000000000000000000000000000000000000000000000000000000000000000000000000000000000000000000000000000000000000000000000000000000200000000000000000008000000000000000000000000000000000000000000000000000000000000000000000000000000000000000000000000000000000000000000040000000000000000000000000000000000000000000000000000000000000000000000000000000000000000000000000000000000200000000000400000000000000000000000000000000000000000000000000000008302000001832fefba82560b8459d6634db904010101020304050607080910111213141516171819202122232410000000000000000000200000000000000000003000000000000000000040000000000000000000500000000000000000006000000000000000000070000000000000000000800000000000000000009000000000000000000010000000000000000000100000000000000000002000000000000000000030000000000000000000400000000000000000005000000000000000000060000000000000000000700000000000000000008000000000000000000090000000000000000000100000000000000000001000000000000000000020000000000000000000300000000000000000004000000000000000000050000000000000000000600000000000000000007000000000000000000080000000000000000000900000000000000000001000000000000000000010000000000000000000200000000000000000003000000000000000000040000000000000000000500000000000000000006000000000000000000070000000000000000000800000000000000000009000000000000000000010000000000000000000100000000000000000002000000000000000000030000000000000000000400000000000000000005000000000000000000060000000000000000000700000000000000000008000000000000000000090000000000000000000100000000000000000001000000000000000000020000000000000000000300000000000000000004000000000000000000050000000000000000000600000000000000000007000000000000000000080000000000000000000900000000000000000001000000000000000000010000000000000000000200000000000000000003000000000000000000040000000000000000000500000000000000000006000000000000000000070000000000000000000800000000000000000009000000000000000000010000000000000000000100000000000000000002000000000000000000030000000000000000000400000000000000000005000000000000000000060000000000000000000700000000000000000008000000000000000000090000000000000000000100000000000000000001000000000000000000020000000000000000000300000000000000000004000000000000000000050000000000000000000600000000000000000007000000000000000000080000000000000000000900000000000000000001000000000000000000010000000000000000000200000000000000000003000000000000000000040000000000000000000500000000000000000006000000000000000000070000000000000000000800000000000000000009000000000000000000010000000000000000000a04e105382a493433f2aa0f632a8f6e40e05fa888b0f4a25b3d942d865e19e1393887b50dc2fa6d04ceef863f861800a82c35094095e7baea6a6c7c4c2dfeb977efac326af552d87821388801ba0149dedccf5d524176aa17525074acf56f17cd7b472a9860c9d3ec4d87a6d0393a03cf6326d11c57d8b558c21c63fc848f8d0b76582060044e8e48d9d0d29054a36c0"
            }
        ],
        "genesisBlockHeader" : {
            "bloom" : "0x00000000000000000000000000000000000000000000000000000000000000000000000000000000000000000000000000000000000000000000000000000000000000000000000000000000000000000000000000000000000000000000000000000000000000000000000000000000000000000000000000000000000000000000000000000000000000000000000000000000000000000000000000000000000000000000000000000000000000000000000000000000000000000000000000000000000000000000000000000000000000000000000000000000000000000000000000000000000000000000000000000000000000000000000000000000",
            "coinbase" : "0x8888f1f195afa192cfee860698584c030f4c9db1",
            "difficulty" : "0x020000",
            "extraData" : "0x42",
            "gasLimit" : "0x2fefd8",
            "gasUsed" : "0x00",
            "hash" : "0xea4ecb53f6feb3ac3dad717297718406d40e5e21d1c8a1cf0db64087cacf2bd5",
            "mixHash" : "0x56e81f171bcc55a6ff8345e692c0f86e5b48e01b996cadc001622fb5e363b421",
            "nonce" : "0x0102030405060708",
            "number" : "0x00",
            "parentHash" : "0x0000000000000000000000000000000000000000000000000000000000000000",
            "receiptTrie" : "0x56e81f171bcc55a6ff8345e692c0f86e5b48e01b996cadc001622fb5e363b421",
            "stateRoot" : "0xb7829295a16db7cae65a071afbb272390f893dc1b0d3f098504148a7056f8056",
            "timestamp" : "0x54c98c81",
            "transactionsTrie" : "0x56e81f171bcc55a6ff8345e692c0f86e5b48e01b996cadc001622fb5e363b421",
            "uncleHash" : "0x1dcc4de8dec75d7aab85b567b6ccd41ad312451b948a7413f0a142fd40d49347"
        },
        "genesisRLP" : "0xf901fcf901f7a00000000000000000000000000000000000000000000000000000000000000000a01dcc4de8dec75d7aab85b567b6ccd41ad312451b948a7413f0a142fd40d49347948888f1f195afa192cfee860698584c030f4c9db1a0b7829295a16db7cae65a071afbb272390f893dc1b0d3f098504148a7056f8056a056e81f171bcc55a6ff8345e692c0f86e5b48e01b996cadc001622fb5e363b421a056e81f171bcc55a6ff8345e692c0f86e5b48e01b996cadc001622fb5e363b421b90100000000000000000000000000000000000000000000000000000000000000000000000000000000000000000000000000000000000000000000000000000000000000000000000000000000000000000000000000000000000000000000000000000000000000000000000000000000000000000000000000000000000000000000000000000000000000000000000000000000000000000000000000000000000000000000000000000000000000000000000000000000000000000000000000000000000000000000000000000000000000000000000000000000000000000000000000000000000000000000000000000000000000000000000000000000008302000080832fefd8808454c98c8142a056e81f171bcc55a6ff8345e692c0f86e5b48e01b996cadc001622fb5e363b421880102030405060708c0c0",
        "lastblockhash" : "0xea4ecb53f6feb3ac3dad717297718406d40e5e21d1c8a1cf0db64087cacf2bd5",
        "network" : "EIP158",
        "postState" : {
            "0x095e7baea6a6c7c4c2dfeb977efac326af552d87" : {
                "balance" : "0x64",
                "code" : "0x7fffffffffffffffffffffffffffffffffffffffffffffffffffffffffffffffff600052600060206000a1",
                "nonce" : "0x00",
                "storage" : {
                }
            },
            "0xa94f5374fce5edbc8e2a8697c15331677e6ebf0b" : {
                "balance" : "0x174876e800",
                "code" : "",
                "nonce" : "0x00",
                "storage" : {
                }
            }
        },
        "pre" : {
            "0x095e7baea6a6c7c4c2dfeb977efac326af552d87" : {
                "balance" : "0x64",
                "code" : "0x7fffffffffffffffffffffffffffffffffffffffffffffffffffffffffffffffff600052600060206000a1",
                "nonce" : "0x00",
                "storage" : {
                }
            },
            "0xa94f5374fce5edbc8e2a8697c15331677e6ebf0b" : {
                "balance" : "0x174876e800",
                "code" : "",
                "nonce" : "0x00",
                "storage" : {
                }
            }
        }
    },
    "DifferentExtraData1025_Frontier" : {
        "_info" : {
            "comment" : "",
            "filledwith" : "cpp-1.3.0+commit.6e0ce939.Linux.g++",
            "lllcversion" : "Version: 0.4.18-develop.2017.9.25+commit.a72237f2.Linux.g++",
            "source" : "src/BlockchainTestsFiller/bcInvalidHeaderTest/DifferentExtraData1025Filler.json",
            "sourceHash" : "7ec91abf25b00171cf94f249b94b7ccd76ef705f3e395575bafc18bf64a96adc"
        },
        "blocks" : [
            {
                "expectExceptionALL" : "ExtraDataTooBig",
                "rlp" : "0xf90665f905fca0ea4ecb53f6feb3ac3dad717297718406d40e5e21d1c8a1cf0db64087cacf2bd5a01dcc4de8dec75d7aab85b567b6ccd41ad312451b948a7413f0a142fd40d49347948888f1f195afa192cfee860698584c030f4c9db1a0201eacb02252d150f7f1a1dc2440f7fab2f468329953051836f81bae65e26914a0c590d5598e571c0acebad12175f241738803400f57cfb272e595999dbbfd08d7a05e7d8bf8bc817405813b0866e3bfa1ad048f982be5b81ab17b4db03266b24b26b90100000000000000000010000000000000000000000000000000000000000000000000000000000000000000000000000000000000000000000000000000000000000000000000000000000000000000000000000000000000000000000000000000000000000200000000000000000008000000000000000000000000000000000000000000000000000000000000000000000000000000000000000000000000000000000000000000040000000000000000000000000000000000000000000000000000000000000000000000000000000000000000000000000000000000200000000000400000000000000000000000000000000000000000000000000000008302000001832fefba82560b8459d6633bb904010101020304050607080910111213141516171819202122232410000000000000000000200000000000000000003000000000000000000040000000000000000000500000000000000000006000000000000000000070000000000000000000800000000000000000009000000000000000000010000000000000000000100000000000000000002000000000000000000030000000000000000000400000000000000000005000000000000000000060000000000000000000700000000000000000008000000000000000000090000000000000000000100000000000000000001000000000000000000020000000000000000000300000000000000000004000000000000000000050000000000000000000600000000000000000007000000000000000000080000000000000000000900000000000000000001000000000000000000010000000000000000000200000000000000000003000000000000000000040000000000000000000500000000000000000006000000000000000000070000000000000000000800000000000000000009000000000000000000010000000000000000000100000000000000000002000000000000000000030000000000000000000400000000000000000005000000000000000000060000000000000000000700000000000000000008000000000000000000090000000000000000000100000000000000000001000000000000000000020000000000000000000300000000000000000004000000000000000000050000000000000000000600000000000000000007000000000000000000080000000000000000000900000000000000000001000000000000000000010000000000000000000200000000000000000003000000000000000000040000000000000000000500000000000000000006000000000000000000070000000000000000000800000000000000000009000000000000000000010000000000000000000100000000000000000002000000000000000000030000000000000000000400000000000000000005000000000000000000060000000000000000000700000000000000000008000000000000000000090000000000000000000100000000000000000001000000000000000000020000000000000000000300000000000000000004000000000000000000050000000000000000000600000000000000000007000000000000000000080000000000000000000900000000000000000001000000000000000000010000000000000000000200000000000000000003000000000000000000040000000000000000000500000000000000000006000000000000000000070000000000000000000800000000000000000009000000000000000000010000000000000000000a0f16cf4c0bff22bc7eec70ba084048156ea0ac62c18ffe751207dea8955f618cc883b920dd71b8120d0f863f861800a82c35094095e7baea6a6c7c4c2dfeb977efac326af552d87821388801ba0149dedccf5d524176aa17525074acf56f17cd7b472a9860c9d3ec4d87a6d0393a03cf6326d11c57d8b558c21c63fc848f8d0b76582060044e8e48d9d0d29054a36c0"
            }
        ],
        "genesisBlockHeader" : {
            "bloom" : "0x00000000000000000000000000000000000000000000000000000000000000000000000000000000000000000000000000000000000000000000000000000000000000000000000000000000000000000000000000000000000000000000000000000000000000000000000000000000000000000000000000000000000000000000000000000000000000000000000000000000000000000000000000000000000000000000000000000000000000000000000000000000000000000000000000000000000000000000000000000000000000000000000000000000000000000000000000000000000000000000000000000000000000000000000000000000",
            "coinbase" : "0x8888f1f195afa192cfee860698584c030f4c9db1",
            "difficulty" : "0x020000",
            "extraData" : "0x42",
            "gasLimit" : "0x2fefd8",
            "gasUsed" : "0x00",
            "hash" : "0xea4ecb53f6feb3ac3dad717297718406d40e5e21d1c8a1cf0db64087cacf2bd5",
            "mixHash" : "0x56e81f171bcc55a6ff8345e692c0f86e5b48e01b996cadc001622fb5e363b421",
            "nonce" : "0x0102030405060708",
            "number" : "0x00",
            "parentHash" : "0x0000000000000000000000000000000000000000000000000000000000000000",
            "receiptTrie" : "0x56e81f171bcc55a6ff8345e692c0f86e5b48e01b996cadc001622fb5e363b421",
            "stateRoot" : "0xb7829295a16db7cae65a071afbb272390f893dc1b0d3f098504148a7056f8056",
            "timestamp" : "0x54c98c81",
            "transactionsTrie" : "0x56e81f171bcc55a6ff8345e692c0f86e5b48e01b996cadc001622fb5e363b421",
            "uncleHash" : "0x1dcc4de8dec75d7aab85b567b6ccd41ad312451b948a7413f0a142fd40d49347"
        },
        "genesisRLP" : "0xf901fcf901f7a00000000000000000000000000000000000000000000000000000000000000000a01dcc4de8dec75d7aab85b567b6ccd41ad312451b948a7413f0a142fd40d49347948888f1f195afa192cfee860698584c030f4c9db1a0b7829295a16db7cae65a071afbb272390f893dc1b0d3f098504148a7056f8056a056e81f171bcc55a6ff8345e692c0f86e5b48e01b996cadc001622fb5e363b421a056e81f171bcc55a6ff8345e692c0f86e5b48e01b996cadc001622fb5e363b421b90100000000000000000000000000000000000000000000000000000000000000000000000000000000000000000000000000000000000000000000000000000000000000000000000000000000000000000000000000000000000000000000000000000000000000000000000000000000000000000000000000000000000000000000000000000000000000000000000000000000000000000000000000000000000000000000000000000000000000000000000000000000000000000000000000000000000000000000000000000000000000000000000000000000000000000000000000000000000000000000000000000000000000000000000000000000008302000080832fefd8808454c98c8142a056e81f171bcc55a6ff8345e692c0f86e5b48e01b996cadc001622fb5e363b421880102030405060708c0c0",
        "lastblockhash" : "0xea4ecb53f6feb3ac3dad717297718406d40e5e21d1c8a1cf0db64087cacf2bd5",
        "network" : "Frontier",
        "postState" : {
            "0x095e7baea6a6c7c4c2dfeb977efac326af552d87" : {
                "balance" : "0x64",
                "code" : "0x7fffffffffffffffffffffffffffffffffffffffffffffffffffffffffffffffff600052600060206000a1",
                "nonce" : "0x00",
                "storage" : {
                }
            },
            "0xa94f5374fce5edbc8e2a8697c15331677e6ebf0b" : {
                "balance" : "0x174876e800",
                "code" : "",
                "nonce" : "0x00",
                "storage" : {
                }
            }
        },
        "pre" : {
            "0x095e7baea6a6c7c4c2dfeb977efac326af552d87" : {
                "balance" : "0x64",
                "code" : "0x7fffffffffffffffffffffffffffffffffffffffffffffffffffffffffffffffff600052600060206000a1",
                "nonce" : "0x00",
                "storage" : {
                }
            },
            "0xa94f5374fce5edbc8e2a8697c15331677e6ebf0b" : {
                "balance" : "0x174876e800",
                "code" : "",
                "nonce" : "0x00",
                "storage" : {
                }
            }
        }
    },
    "DifferentExtraData1025_Homestead" : {
        "_info" : {
            "comment" : "",
            "filledwith" : "cpp-1.3.0+commit.6e0ce939.Linux.g++",
            "lllcversion" : "Version: 0.4.18-develop.2017.9.25+commit.a72237f2.Linux.g++",
            "source" : "src/BlockchainTestsFiller/bcInvalidHeaderTest/DifferentExtraData1025Filler.json",
            "sourceHash" : "7ec91abf25b00171cf94f249b94b7ccd76ef705f3e395575bafc18bf64a96adc"
        },
        "blocks" : [
            {
                "expectExceptionALL" : "ExtraDataTooBig",
                "rlp" : "0xf90665f905fca0ea4ecb53f6feb3ac3dad717297718406d40e5e21d1c8a1cf0db64087cacf2bd5a01dcc4de8dec75d7aab85b567b6ccd41ad312451b948a7413f0a142fd40d49347948888f1f195afa192cfee860698584c030f4c9db1a0201eacb02252d150f7f1a1dc2440f7fab2f468329953051836f81bae65e26914a0c590d5598e571c0acebad12175f241738803400f57cfb272e595999dbbfd08d7a05e7d8bf8bc817405813b0866e3bfa1ad048f982be5b81ab17b4db03266b24b26b90100000000000000000010000000000000000000000000000000000000000000000000000000000000000000000000000000000000000000000000000000000000000000000000000000000000000000000000000000000000000000000000000000000000000200000000000000000008000000000000000000000000000000000000000000000000000000000000000000000000000000000000000000000000000000000000000000040000000000000000000000000000000000000000000000000000000000000000000000000000000000000000000000000000000000200000000000400000000000000000000000000000000000000000000000000000008302000001832fefba82560b8459d66341b904010101020304050607080910111213141516171819202122232410000000000000000000200000000000000000003000000000000000000040000000000000000000500000000000000000006000000000000000000070000000000000000000800000000000000000009000000000000000000010000000000000000000100000000000000000002000000000000000000030000000000000000000400000000000000000005000000000000000000060000000000000000000700000000000000000008000000000000000000090000000000000000000100000000000000000001000000000000000000020000000000000000000300000000000000000004000000000000000000050000000000000000000600000000000000000007000000000000000000080000000000000000000900000000000000000001000000000000000000010000000000000000000200000000000000000003000000000000000000040000000000000000000500000000000000000006000000000000000000070000000000000000000800000000000000000009000000000000000000010000000000000000000100000000000000000002000000000000000000030000000000000000000400000000000000000005000000000000000000060000000000000000000700000000000000000008000000000000000000090000000000000000000100000000000000000001000000000000000000020000000000000000000300000000000000000004000000000000000000050000000000000000000600000000000000000007000000000000000000080000000000000000000900000000000000000001000000000000000000010000000000000000000200000000000000000003000000000000000000040000000000000000000500000000000000000006000000000000000000070000000000000000000800000000000000000009000000000000000000010000000000000000000100000000000000000002000000000000000000030000000000000000000400000000000000000005000000000000000000060000000000000000000700000000000000000008000000000000000000090000000000000000000100000000000000000001000000000000000000020000000000000000000300000000000000000004000000000000000000050000000000000000000600000000000000000007000000000000000000080000000000000000000900000000000000000001000000000000000000010000000000000000000200000000000000000003000000000000000000040000000000000000000500000000000000000006000000000000000000070000000000000000000800000000000000000009000000000000000000010000000000000000000a06f45f182e21fa400c2e1cdc7dfd1eef1d9f89f3bc22d955497ee7a47867a49258881a820e492d0b650f863f861800a82c35094095e7baea6a6c7c4c2dfeb977efac326af552d87821388801ba0149dedccf5d524176aa17525074acf56f17cd7b472a9860c9d3ec4d87a6d0393a03cf6326d11c57d8b558c21c63fc848f8d0b76582060044e8e48d9d0d29054a36c0"
            }
        ],
        "genesisBlockHeader" : {
            "bloom" : "0x00000000000000000000000000000000000000000000000000000000000000000000000000000000000000000000000000000000000000000000000000000000000000000000000000000000000000000000000000000000000000000000000000000000000000000000000000000000000000000000000000000000000000000000000000000000000000000000000000000000000000000000000000000000000000000000000000000000000000000000000000000000000000000000000000000000000000000000000000000000000000000000000000000000000000000000000000000000000000000000000000000000000000000000000000000000",
            "coinbase" : "0x8888f1f195afa192cfee860698584c030f4c9db1",
            "difficulty" : "0x020000",
            "extraData" : "0x42",
            "gasLimit" : "0x2fefd8",
            "gasUsed" : "0x00",
            "hash" : "0xea4ecb53f6feb3ac3dad717297718406d40e5e21d1c8a1cf0db64087cacf2bd5",
            "mixHash" : "0x56e81f171bcc55a6ff8345e692c0f86e5b48e01b996cadc001622fb5e363b421",
            "nonce" : "0x0102030405060708",
            "number" : "0x00",
            "parentHash" : "0x0000000000000000000000000000000000000000000000000000000000000000",
            "receiptTrie" : "0x56e81f171bcc55a6ff8345e692c0f86e5b48e01b996cadc001622fb5e363b421",
            "stateRoot" : "0xb7829295a16db7cae65a071afbb272390f893dc1b0d3f098504148a7056f8056",
            "timestamp" : "0x54c98c81",
            "transactionsTrie" : "0x56e81f171bcc55a6ff8345e692c0f86e5b48e01b996cadc001622fb5e363b421",
            "uncleHash" : "0x1dcc4de8dec75d7aab85b567b6ccd41ad312451b948a7413f0a142fd40d49347"
        },
        "genesisRLP" : "0xf901fcf901f7a00000000000000000000000000000000000000000000000000000000000000000a01dcc4de8dec75d7aab85b567b6ccd41ad312451b948a7413f0a142fd40d49347948888f1f195afa192cfee860698584c030f4c9db1a0b7829295a16db7cae65a071afbb272390f893dc1b0d3f098504148a7056f8056a056e81f171bcc55a6ff8345e692c0f86e5b48e01b996cadc001622fb5e363b421a056e81f171bcc55a6ff8345e692c0f86e5b48e01b996cadc001622fb5e363b421b90100000000000000000000000000000000000000000000000000000000000000000000000000000000000000000000000000000000000000000000000000000000000000000000000000000000000000000000000000000000000000000000000000000000000000000000000000000000000000000000000000000000000000000000000000000000000000000000000000000000000000000000000000000000000000000000000000000000000000000000000000000000000000000000000000000000000000000000000000000000000000000000000000000000000000000000000000000000000000000000000000000000000000000000000000000000008302000080832fefd8808454c98c8142a056e81f171bcc55a6ff8345e692c0f86e5b48e01b996cadc001622fb5e363b421880102030405060708c0c0",
        "lastblockhash" : "0xea4ecb53f6feb3ac3dad717297718406d40e5e21d1c8a1cf0db64087cacf2bd5",
        "network" : "Homestead",
        "postState" : {
            "0x095e7baea6a6c7c4c2dfeb977efac326af552d87" : {
                "balance" : "0x64",
                "code" : "0x7fffffffffffffffffffffffffffffffffffffffffffffffffffffffffffffffff600052600060206000a1",
                "nonce" : "0x00",
                "storage" : {
                }
            },
            "0xa94f5374fce5edbc8e2a8697c15331677e6ebf0b" : {
                "balance" : "0x174876e800",
                "code" : "",
                "nonce" : "0x00",
                "storage" : {
                }
            }
        },
        "pre" : {
            "0x095e7baea6a6c7c4c2dfeb977efac326af552d87" : {
                "balance" : "0x64",
                "code" : "0x7fffffffffffffffffffffffffffffffffffffffffffffffffffffffffffffffff600052600060206000a1",
                "nonce" : "0x00",
                "storage" : {
                }
            },
            "0xa94f5374fce5edbc8e2a8697c15331677e6ebf0b" : {
                "balance" : "0x174876e800",
                "code" : "",
                "nonce" : "0x00",
                "storage" : {
                }
            }
        }
    }
}