{
    "wrongGasLimit_Byzantium" : {
        "_info" : {
            "comment" : "",
            "filledwith" : "cpp-1.3.0+commit.6e0ce939.Linux.g++",
            "lllcversion" : "Version: 0.4.18-develop.2017.9.25+commit.a72237f2.Linux.g++",
            "source" : "src/BlockchainTestsFiller/bcInvalidHeaderTest/wrongGasLimitFiller.json",
            "sourceHash" : "f596d800ca01b7513e5f5bbc8a1783a8f60f3d172e467dee32293427e7b54a18"
        },
        "blocks" : [
            {
                "expectExceptionALL" : "InvalidGasLimit",
                "rlp" : "0xf90262f901f9a0ea4ecb53f6feb3ac3dad717297718406d40e5e21d1c8a1cf0db64087cacf2bd5a01dcc4de8dec75d7aab85b567b6ccd41ad312451b948a7413f0a142fd40d49347948888f1f195afa192cfee860698584c030f4c9db1a03a764379c6d6441923aad8d1a8795f3a1585a80fb18927704ffd78d81a6c91d6a0c590d5598e571c0acebad12175f241738803400f57cfb272e595999dbbfd08d7a021f4ebc5b0fb1ad80a00f78d04e67d1b30af68cecb3a8a2bf55247f11df1e3edb90100000000000000000010000000000000000000000000000000000000000000000000000000000000000000000000000000000000000000000000000000000000000000000000000000000000000000000000000000000000000000000000000000000000000200000000000000000008000000000000000000000000000000000000000000000000000000000000000000000000000000000000000000000000000000000000000000040000000000000000000000000000000000000000000000000000000000000000000000000000000000000000000000000000000000200000000000400000000000000000000000000000000000000000000000000000008302000001830186a082560b8459d6631080a03558612efd94f2cf5280bc018109d79cac4257c26dd1aa90e0f59ca9579e5a5d882a3fd2f09695df86f863f861800a82c35094095e7baea6a6c7c4c2dfeb977efac326af552d87821388801ba0149dedccf5d524176aa17525074acf56f17cd7b472a9860c9d3ec4d87a6d0393a03cf6326d11c57d8b558c21c63fc848f8d0b76582060044e8e48d9d0d29054a36c0"
            }
        ],
        "genesisBlockHeader" : {
            "bloom" : "0x00000000000000000000000000000000000000000000000000000000000000000000000000000000000000000000000000000000000000000000000000000000000000000000000000000000000000000000000000000000000000000000000000000000000000000000000000000000000000000000000000000000000000000000000000000000000000000000000000000000000000000000000000000000000000000000000000000000000000000000000000000000000000000000000000000000000000000000000000000000000000000000000000000000000000000000000000000000000000000000000000000000000000000000000000000000",
            "coinbase" : "0x8888f1f195afa192cfee860698584c030f4c9db1",
            "difficulty" : "0x020000",
            "extraData" : "0x42",
            "gasLimit" : "0x2fefd8",
            "gasUsed" : "0x00",
            "hash" : "0xea4ecb53f6feb3ac3dad717297718406d40e5e21d1c8a1cf0db64087cacf2bd5",
            "mixHash" : "0x56e81f171bcc55a6ff8345e692c0f86e5b48e01b996cadc001622fb5e363b421",
            "nonce" : "0x0102030405060708",
            "number" : "0x00",
            "parentHash" : "0x0000000000000000000000000000000000000000000000000000000000000000",
            "receiptTrie" : "0x56e81f171bcc55a6ff8345e692c0f86e5b48e01b996cadc001622fb5e363b421",
            "stateRoot" : "0xb7829295a16db7cae65a071afbb272390f893dc1b0d3f098504148a7056f8056",
            "timestamp" : "0x54c98c81",
            "transactionsTrie" : "0x56e81f171bcc55a6ff8345e692c0f86e5b48e01b996cadc001622fb5e363b421",
            "uncleHash" : "0x1dcc4de8dec75d7aab85b567b6ccd41ad312451b948a7413f0a142fd40d49347"
        },
        "genesisRLP" : "0xf901fcf901f7a00000000000000000000000000000000000000000000000000000000000000000a01dcc4de8dec75d7aab85b567b6ccd41ad312451b948a7413f0a142fd40d49347948888f1f195afa192cfee860698584c030f4c9db1a0b7829295a16db7cae65a071afbb272390f893dc1b0d3f098504148a7056f8056a056e81f171bcc55a6ff8345e692c0f86e5b48e01b996cadc001622fb5e363b421a056e81f171bcc55a6ff8345e692c0f86e5b48e01b996cadc001622fb5e363b421b90100000000000000000000000000000000000000000000000000000000000000000000000000000000000000000000000000000000000000000000000000000000000000000000000000000000000000000000000000000000000000000000000000000000000000000000000000000000000000000000000000000000000000000000000000000000000000000000000000000000000000000000000000000000000000000000000000000000000000000000000000000000000000000000000000000000000000000000000000000000000000000000000000000000000000000000000000000000000000000000000000000000000000000000000000000000008302000080832fefd8808454c98c8142a056e81f171bcc55a6ff8345e692c0f86e5b48e01b996cadc001622fb5e363b421880102030405060708c0c0",
        "lastblockhash" : "0xea4ecb53f6feb3ac3dad717297718406d40e5e21d1c8a1cf0db64087cacf2bd5",
        "network" : "Byzantium",
        "postState" : {
            "0x095e7baea6a6c7c4c2dfeb977efac326af552d87" : {
                "balance" : "0x64",
                "code" : "0x7fffffffffffffffffffffffffffffffffffffffffffffffffffffffffffffffff600052600060206000a1",
                "nonce" : "0x00",
                "storage" : {
                }
            },
            "0xa94f5374fce5edbc8e2a8697c15331677e6ebf0b" : {
                "balance" : "0x174876e800",
                "code" : "",
                "nonce" : "0x00",
                "storage" : {
                }
            }
        },
        "pre" : {
            "0x095e7baea6a6c7c4c2dfeb977efac326af552d87" : {
                "balance" : "0x64",
                "code" : "0x7fffffffffffffffffffffffffffffffffffffffffffffffffffffffffffffffff600052600060206000a1",
                "nonce" : "0x00",
                "storage" : {
                }
            },
            "0xa94f5374fce5edbc8e2a8697c15331677e6ebf0b" : {
                "balance" : "0x174876e800",
                "code" : "",
                "nonce" : "0x00",
                "storage" : {
                }
            }
        }
    },
    "wrongGasLimit_EIP150" : {
        "_info" : {
            "comment" : "",
            "filledwith" : "cpp-1.3.0+commit.6e0ce939.Linux.g++",
            "lllcversion" : "Version: 0.4.18-develop.2017.9.25+commit.a72237f2.Linux.g++",
            "source" : "src/BlockchainTestsFiller/bcInvalidHeaderTest/wrongGasLimitFiller.json",
            "sourceHash" : "f596d800ca01b7513e5f5bbc8a1783a8f60f3d172e467dee32293427e7b54a18"
        },
        "blocks" : [
            {
                "expectExceptionALL" : "InvalidGasLimit",
                "rlp" : "0xf90262f901f9a0ea4ecb53f6feb3ac3dad717297718406d40e5e21d1c8a1cf0db64087cacf2bd5a01dcc4de8dec75d7aab85b567b6ccd41ad312451b948a7413f0a142fd40d49347948888f1f195afa192cfee860698584c030f4c9db1a0201eacb02252d150f7f1a1dc2440f7fab2f468329953051836f81bae65e26914a0c590d5598e571c0acebad12175f241738803400f57cfb272e595999dbbfd08d7a05e7d8bf8bc817405813b0866e3bfa1ad048f982be5b81ab17b4db03266b24b26b90100000000000000000010000000000000000000000000000000000000000000000000000000000000000000000000000000000000000000000000000000000000000000000000000000000000000000000000000000000000000000000000000000000000000200000000000000000008000000000000000000000000000000000000000000000000000000000000000000000000000000000000000000000000000000000000000000040000000000000000000000000000000000000000000000000000000000000000000000000000000000000000000000000000000000200000000000400000000000000000000000000000000000000000000000000000008302000001830186a082560b8459d6630b80a06eedb94ff47259e4ebf18a6cd28b53455853319f41e11a0558d67bf7220ab0c988607e4c310b899ebdf863f861800a82c35094095e7baea6a6c7c4c2dfeb977efac326af552d87821388801ba0149dedccf5d524176aa17525074acf56f17cd7b472a9860c9d3ec4d87a6d0393a03cf6326d11c57d8b558c21c63fc848f8d0b76582060044e8e48d9d0d29054a36c0"
            }
        ],
        "genesisBlockHeader" : {
            "bloom" : "0x00000000000000000000000000000000000000000000000000000000000000000000000000000000000000000000000000000000000000000000000000000000000000000000000000000000000000000000000000000000000000000000000000000000000000000000000000000000000000000000000000000000000000000000000000000000000000000000000000000000000000000000000000000000000000000000000000000000000000000000000000000000000000000000000000000000000000000000000000000000000000000000000000000000000000000000000000000000000000000000000000000000000000000000000000000000",
            "coinbase" : "0x8888f1f195afa192cfee860698584c030f4c9db1",
            "difficulty" : "0x020000",
            "extraData" : "0x42",
            "gasLimit" : "0x2fefd8",
            "gasUsed" : "0x00",
            "hash" : "0xea4ecb53f6feb3ac3dad717297718406d40e5e21d1c8a1cf0db64087cacf2bd5",
            "mixHash" : "0x56e81f171bcc55a6ff8345e692c0f86e5b48e01b996cadc001622fb5e363b421",
            "nonce" : "0x0102030405060708",
            "number" : "0x00",
            "parentHash" : "0x0000000000000000000000000000000000000000000000000000000000000000",
            "receiptTrie" : "0x56e81f171bcc55a6ff8345e692c0f86e5b48e01b996cadc001622fb5e363b421",
            "stateRoot" : "0xb7829295a16db7cae65a071afbb272390f893dc1b0d3f098504148a7056f8056",
            "timestamp" : "0x54c98c81",
            "transactionsTrie" : "0x56e81f171bcc55a6ff8345e692c0f86e5b48e01b996cadc001622fb5e363b421",
            "uncleHash" : "0x1dcc4de8dec75d7aab85b567b6ccd41ad312451b948a7413f0a142fd40d49347"
        },
        "genesisRLP" : "0xf901fcf901f7a00000000000000000000000000000000000000000000000000000000000000000a01dcc4de8dec75d7aab85b567b6ccd41ad312451b948a7413f0a142fd40d49347948888f1f195afa192cfee860698584c030f4c9db1a0b7829295a16db7cae65a071afbb272390f893dc1b0d3f098504148a7056f8056a056e81f171bcc55a6ff8345e692c0f86e5b48e01b996cadc001622fb5e363b421a056e81f171bcc55a6ff8345e692c0f86e5b48e01b996cadc001622fb5e363b421b90100000000000000000000000000000000000000000000000000000000000000000000000000000000000000000000000000000000000000000000000000000000000000000000000000000000000000000000000000000000000000000000000000000000000000000000000000000000000000000000000000000000000000000000000000000000000000000000000000000000000000000000000000000000000000000000000000000000000000000000000000000000000000000000000000000000000000000000000000000000000000000000000000000000000000000000000000000000000000000000000000000000000000000000000000000000008302000080832fefd8808454c98c8142a056e81f171bcc55a6ff8345e692c0f86e5b48e01b996cadc001622fb5e363b421880102030405060708c0c0",
        "lastblockhash" : "0xea4ecb53f6feb3ac3dad717297718406d40e5e21d1c8a1cf0db64087cacf2bd5",
        "network" : "EIP150",
        "postState" : {
            "0x095e7baea6a6c7c4c2dfeb977efac326af552d87" : {
                "balance" : "0x64",
                "code" : "0x7fffffffffffffffffffffffffffffffffffffffffffffffffffffffffffffffff600052600060206000a1",
                "nonce" : "0x00",
                "storage" : {
                }
            },
            "0xa94f5374fce5edbc8e2a8697c15331677e6ebf0b" : {
                "balance" : "0x174876e800",
                "code" : "",
                "nonce" : "0x00",
                "storage" : {
                }
            }
        },
        "pre" : {
            "0x095e7baea6a6c7c4c2dfeb977efac326af552d87" : {
                "balance" : "0x64",
                "code" : "0x7fffffffffffffffffffffffffffffffffffffffffffffffffffffffffffffffff600052600060206000a1",
                "nonce" : "0x00",
                "storage" : {
                }
            },
            "0xa94f5374fce5edbc8e2a8697c15331677e6ebf0b" : {
                "balance" : "0x174876e800",
                "code" : "",
                "nonce" : "0x00",
                "storage" : {
                }
            }
        }
    },
    "wrongGasLimit_EIP158" : {
        "_info" : {
            "comment" : "",
            "filledwith" : "cpp-1.3.0+commit.6e0ce939.Linux.g++",
            "lllcversion" : "Version: 0.4.18-develop.2017.9.25+commit.a72237f2.Linux.g++",
            "source" : "src/BlockchainTestsFiller/bcInvalidHeaderTest/wrongGasLimitFiller.json",
            "sourceHash" : "f596d800ca01b7513e5f5bbc8a1783a8f60f3d172e467dee32293427e7b54a18"
        },
        "blocks" : [
            {
                "expectExceptionALL" : "InvalidGasLimit",
                "rlp" : "0xf90262f901f9a0ea4ecb53f6feb3ac3dad717297718406d40e5e21d1c8a1cf0db64087cacf2bd5a01dcc4de8dec75d7aab85b567b6ccd41ad312451b948a7413f0a142fd40d49347948888f1f195afa192cfee860698584c030f4c9db1a0201eacb02252d150f7f1a1dc2440f7fab2f468329953051836f81bae65e26914a0c590d5598e571c0acebad12175f241738803400f57cfb272e595999dbbfd08d7a05e7d8bf8bc817405813b0866e3bfa1ad048f982be5b81ab17b4db03266b24b26b90100000000000000000010000000000000000000000000000000000000000000000000000000000000000000000000000000000000000000000000000000000000000000000000000000000000000000000000000000000000000000000000000000000000000200000000000000000008000000000000000000000000000000000000000000000000000000000000000000000000000000000000000000000000000000000000000000040000000000000000000000000000000000000000000000000000000000000000000000000000000000000000000000000000000000200000000000400000000000000000000000000000000000000000000000000000008302000001830186a082560b8459d6630e80a057000df3a9334650e3436b60f83e08bb6a551fce86ea37c0937f1ad38eec5acb881346e710f8076b7ff863f861800a82c35094095e7baea6a6c7c4c2dfeb977efac326af552d87821388801ba0149dedccf5d524176aa17525074acf56f17cd7b472a9860c9d3ec4d87a6d0393a03cf6326d11c57d8b558c21c63fc848f8d0b76582060044e8e48d9d0d29054a36c0"
            }
        ],
        "genesisBlockHeader" : {
            "bloom" : "0x00000000000000000000000000000000000000000000000000000000000000000000000000000000000000000000000000000000000000000000000000000000000000000000000000000000000000000000000000000000000000000000000000000000000000000000000000000000000000000000000000000000000000000000000000000000000000000000000000000000000000000000000000000000000000000000000000000000000000000000000000000000000000000000000000000000000000000000000000000000000000000000000000000000000000000000000000000000000000000000000000000000000000000000000000000000",
            "coinbase" : "0x8888f1f195afa192cfee860698584c030f4c9db1",
            "difficulty" : "0x020000",
            "extraData" : "0x42",
            "gasLimit" : "0x2fefd8",
            "gasUsed" : "0x00",
            "hash" : "0xea4ecb53f6feb3ac3dad717297718406d40e5e21d1c8a1cf0db64087cacf2bd5",
            "mixHash" : "0x56e81f171bcc55a6ff8345e692c0f86e5b48e01b996cadc001622fb5e363b421",
            "nonce" : "0x0102030405060708",
            "number" : "0x00",
            "parentHash" : "0x0000000000000000000000000000000000000000000000000000000000000000",
            "receiptTrie" : "0x56e81f171bcc55a6ff8345e692c0f86e5b48e01b996cadc001622fb5e363b421",
            "stateRoot" : "0xb7829295a16db7cae65a071afbb272390f893dc1b0d3f098504148a7056f8056",
            "timestamp" : "0x54c98c81",
            "transactionsTrie" : "0x56e81f171bcc55a6ff8345e692c0f86e5b48e01b996cadc001622fb5e363b421",
            "uncleHash" : "0x1dcc4de8dec75d7aab85b567b6ccd41ad312451b948a7413f0a142fd40d49347"
        },
        "genesisRLP" : "0xf901fcf901f7a00000000000000000000000000000000000000000000000000000000000000000a01dcc4de8dec75d7aab85b567b6ccd41ad312451b948a7413f0a142fd40d49347948888f1f195afa192cfee860698584c030f4c9db1a0b7829295a16db7cae65a071afbb272390f893dc1b0d3f098504148a7056f8056a056e81f171bcc55a6ff8345e692c0f86e5b48e01b996cadc001622fb5e363b421a056e81f171bcc55a6ff8345e692c0f86e5b48e01b996cadc001622fb5e363b421b90100000000000000000000000000000000000000000000000000000000000000000000000000000000000000000000000000000000000000000000000000000000000000000000000000000000000000000000000000000000000000000000000000000000000000000000000000000000000000000000000000000000000000000000000000000000000000000000000000000000000000000000000000000000000000000000000000000000000000000000000000000000000000000000000000000000000000000000000000000000000000000000000000000000000000000000000000000000000000000000000000000000000000000000000000000000008302000080832fefd8808454c98c8142a056e81f171bcc55a6ff8345e692c0f86e5b48e01b996cadc001622fb5e363b421880102030405060708c0c0",
        "lastblockhash" : "0xea4ecb53f6feb3ac3dad717297718406d40e5e21d1c8a1cf0db64087cacf2bd5",
        "network" : "EIP158",
        "postState" : {
            "0x095e7baea6a6c7c4c2dfeb977efac326af552d87" : {
                "balance" : "0x64",
                "code" : "0x7fffffffffffffffffffffffffffffffffffffffffffffffffffffffffffffffff600052600060206000a1",
                "nonce" : "0x00",
                "storage" : {
                }
            },
            "0xa94f5374fce5edbc8e2a8697c15331677e6ebf0b" : {
                "balance" : "0x174876e800",
                "code" : "",
                "nonce" : "0x00",
                "storage" : {
                }
            }
        },
        "pre" : {
            "0x095e7baea6a6c7c4c2dfeb977efac326af552d87" : {
                "balance" : "0x64",
                "code" : "0x7fffffffffffffffffffffffffffffffffffffffffffffffffffffffffffffffff600052600060206000a1",
                "nonce" : "0x00",
                "storage" : {
                }
            },
            "0xa94f5374fce5edbc8e2a8697c15331677e6ebf0b" : {
                "balance" : "0x174876e800",
                "code" : "",
                "nonce" : "0x00",
                "storage" : {
                }
            }
        }
    },
    "wrongGasLimit_Frontier" : {
        "_info" : {
            "comment" : "",
            "filledwith" : "cpp-1.3.0+commit.6e0ce939.Linux.g++",
            "lllcversion" : "Version: 0.4.18-develop.2017.9.25+commit.a72237f2.Linux.g++",
            "source" : "src/BlockchainTestsFiller/bcInvalidHeaderTest/wrongGasLimitFiller.json",
            "sourceHash" : "f596d800ca01b7513e5f5bbc8a1783a8f60f3d172e467dee32293427e7b54a18"
        },
        "blocks" : [
            {
                "expectExceptionALL" : "InvalidGasLimit",
                "rlp" : "0xf90262f901f9a0ea4ecb53f6feb3ac3dad717297718406d40e5e21d1c8a1cf0db64087cacf2bd5a01dcc4de8dec75d7aab85b567b6ccd41ad312451b948a7413f0a142fd40d49347948888f1f195afa192cfee860698584c030f4c9db1a0201eacb02252d150f7f1a1dc2440f7fab2f468329953051836f81bae65e26914a0c590d5598e571c0acebad12175f241738803400f57cfb272e595999dbbfd08d7a05e7d8bf8bc817405813b0866e3bfa1ad048f982be5b81ab17b4db03266b24b26b90100000000000000000010000000000000000000000000000000000000000000000000000000000000000000000000000000000000000000000000000000000000000000000000000000000000000000000000000000000000000000000000000000000000000200000000000000000008000000000000000000000000000000000000000000000000000000000000000000000000000000000000000000000000000000000000000000040000000000000000000000000000000000000000000000000000000000000000000000000000000000000000000000000000000000200000000000400000000000000000000000000000000000000000000000000000008302000001830186a082560b8459d6630780a0d835f147910ab5201a5e74671781e0e3bfcf77cd716c18ee8a8499622fc56b28888dfdbb05bcda4172f863f861800a82c35094095e7baea6a6c7c4c2dfeb977efac326af552d87821388801ba0149dedccf5d524176aa17525074acf56f17cd7b472a9860c9d3ec4d87a6d0393a03cf6326d11c57d8b558c21c63fc848f8d0b76582060044e8e48d9d0d29054a36c0"
            }
        ],
        "genesisBlockHeader" : {
            "bloom" : "0x00000000000000000000000000000000000000000000000000000000000000000000000000000000000000000000000000000000000000000000000000000000000000000000000000000000000000000000000000000000000000000000000000000000000000000000000000000000000000000000000000000000000000000000000000000000000000000000000000000000000000000000000000000000000000000000000000000000000000000000000000000000000000000000000000000000000000000000000000000000000000000000000000000000000000000000000000000000000000000000000000000000000000000000000000000000",
            "coinbase" : "0x8888f1f195afa192cfee860698584c030f4c9db1",
            "difficulty" : "0x020000",
            "extraData" : "0x42",
            "gasLimit" : "0x2fefd8",
            "gasUsed" : "0x00",
            "hash" : "0xea4ecb53f6feb3ac3dad717297718406d40e5e21d1c8a1cf0db64087cacf2bd5",
            "mixHash" : "0x56e81f171bcc55a6ff8345e692c0f86e5b48e01b996cadc001622fb5e363b421",
            "nonce" : "0x0102030405060708",
            "number" : "0x00",
            "parentHash" : "0x0000000000000000000000000000000000000000000000000000000000000000",
            "receiptTrie" : "0x56e81f171bcc55a6ff8345e692c0f86e5b48e01b996cadc001622fb5e363b421",
            "stateRoot" : "0xb7829295a16db7cae65a071afbb272390f893dc1b0d3f098504148a7056f8056",
            "timestamp" : "0x54c98c81",
            "transactionsTrie" : "0x56e81f171bcc55a6ff8345e692c0f86e5b48e01b996cadc001622fb5e363b421",
            "uncleHash" : "0x1dcc4de8dec75d7aab85b567b6ccd41ad312451b948a7413f0a142fd40d49347"
        },
        "genesisRLP" : "0xf901fcf901f7a00000000000000000000000000000000000000000000000000000000000000000a01dcc4de8dec75d7aab85b567b6ccd41ad312451b948a7413f0a142fd40d49347948888f1f195afa192cfee860698584c030f4c9db1a0b7829295a16db7cae65a071afbb272390f893dc1b0d3f098504148a7056f8056a056e81f171bcc55a6ff8345e692c0f86e5b48e01b996cadc001622fb5e363b421a056e81f171bcc55a6ff8345e692c0f86e5b48e01b996cadc001622fb5e363b421b90100000000000000000000000000000000000000000000000000000000000000000000000000000000000000000000000000000000000000000000000000000000000000000000000000000000000000000000000000000000000000000000000000000000000000000000000000000000000000000000000000000000000000000000000000000000000000000000000000000000000000000000000000000000000000000000000000000000000000000000000000000000000000000000000000000000000000000000000000000000000000000000000000000000000000000000000000000000000000000000000000000000000000000000000000000000008302000080832fefd8808454c98c8142a056e81f171bcc55a6ff8345e692c0f86e5b48e01b996cadc001622fb5e363b421880102030405060708c0c0",
        "lastblockhash" : "0xea4ecb53f6feb3ac3dad717297718406d40e5e21d1c8a1cf0db64087cacf2bd5",
        "network" : "Frontier",
        "postState" : {
            "0x095e7baea6a6c7c4c2dfeb977efac326af552d87" : {
                "balance" : "0x64",
                "code" : "0x7fffffffffffffffffffffffffffffffffffffffffffffffffffffffffffffffff600052600060206000a1",
                "nonce" : "0x00",
                "storage" : {
                }
            },
            "0xa94f5374fce5edbc8e2a8697c15331677e6ebf0b" : {
                "balance" : "0x174876e800",
                "code" : "",
                "nonce" : "0x00",
                "storage" : {
                }
            }
        },
        "pre" : {
            "0x095e7baea6a6c7c4c2dfeb977efac326af552d87" : {
                "balance" : "0x64",
                "code" : "0x7fffffffffffffffffffffffffffffffffffffffffffffffffffffffffffffffff600052600060206000a1",
                "nonce" : "0x00",
                "storage" : {
                }
            },
            "0xa94f5374fce5edbc8e2a8697c15331677e6ebf0b" : {
                "balance" : "0x174876e800",
                "code" : "",
                "nonce" : "0x00",
                "storage" : {
                }
            }
        }
    },
    "wrongGasLimit_Homestead" : {
        "_info" : {
            "comment" : "",
            "filledwith" : "cpp-1.3.0+commit.6e0ce939.Linux.g++",
            "lllcversion" : "Version: 0.4.18-develop.2017.9.25+commit.a72237f2.Linux.g++",
            "source" : "src/BlockchainTestsFiller/bcInvalidHeaderTest/wrongGasLimitFiller.json",
            "sourceHash" : "f596d800ca01b7513e5f5bbc8a1783a8f60f3d172e467dee32293427e7b54a18"
        },
        "blocks" : [
            {
                "expectExceptionALL" : "InvalidGasLimit",
                "rlp" : "0xf90262f901f9a0ea4ecb53f6feb3ac3dad717297718406d40e5e21d1c8a1cf0db64087cacf2bd5a01dcc4de8dec75d7aab85b567b6ccd41ad312451b948a7413f0a142fd40d49347948888f1f195afa192cfee860698584c030f4c9db1a0201eacb02252d150f7f1a1dc2440f7fab2f468329953051836f81bae65e26914a0c590d5598e571c0acebad12175f241738803400f57cfb272e595999dbbfd08d7a05e7d8bf8bc817405813b0866e3bfa1ad048f982be5b81ab17b4db03266b24b26b90100000000000000000010000000000000000000000000000000000000000000000000000000000000000000000000000000000000000000000000000000000000000000000000000000000000000000000000000000000000000000000000000000000000000200000000000000000008000000000000000000000000000000000000000000000000000000000000000000000000000000000000000000000000000000000000000000040000000000000000000000000000000000000000000000000000000000000000000000000000000000000000000000000000000000200000000000400000000000000000000000000000000000000000000000000000008302000001830186a082560b8459d6630980a04d8989e9d03a07b5829d7746a551d44a74712b08b2aba683a56345a6ba50533a888eec43a8e20dfd90f863f861800a82c35094095e7baea6a6c7c4c2dfeb977efac326af552d87821388801ba0149dedccf5d524176aa17525074acf56f17cd7b472a9860c9d3ec4d87a6d0393a03cf6326d11c57d8b558c21c63fc848f8d0b76582060044e8e48d9d0d29054a36c0"
            }
        ],
        "genesisBlockHeader" : {
            "bloom" : "0x00000000000000000000000000000000000000000000000000000000000000000000000000000000000000000000000000000000000000000000000000000000000000000000000000000000000000000000000000000000000000000000000000000000000000000000000000000000000000000000000000000000000000000000000000000000000000000000000000000000000000000000000000000000000000000000000000000000000000000000000000000000000000000000000000000000000000000000000000000000000000000000000000000000000000000000000000000000000000000000000000000000000000000000000000000000",
            "coinbase" : "0x8888f1f195afa192cfee860698584c030f4c9db1",
            "difficulty" : "0x020000",
            "extraData" : "0x42",
            "gasLimit" : "0x2fefd8",
            "gasUsed" : "0x00",
            "hash" : "0xea4ecb53f6feb3ac3dad717297718406d40e5e21d1c8a1cf0db64087cacf2bd5",
            "mixHash" : "0x56e81f171bcc55a6ff8345e692c0f86e5b48e01b996cadc001622fb5e363b421",
            "nonce" : "0x0102030405060708",
            "number" : "0x00",
            "parentHash" : "0x0000000000000000000000000000000000000000000000000000000000000000",
            "receiptTrie" : "0x56e81f171bcc55a6ff8345e692c0f86e5b48e01b996cadc001622fb5e363b421",
            "stateRoot" : "0xb7829295a16db7cae65a071afbb272390f893dc1b0d3f098504148a7056f8056",
            "timestamp" : "0x54c98c81",
            "transactionsTrie" : "0x56e81f171bcc55a6ff8345e692c0f86e5b48e01b996cadc001622fb5e363b421",
            "uncleHash" : "0x1dcc4de8dec75d7aab85b567b6ccd41ad312451b948a7413f0a142fd40d49347"
        },
        "genesisRLP" : "0xf901fcf901f7a00000000000000000000000000000000000000000000000000000000000000000a01dcc4de8dec75d7aab85b567b6ccd41ad312451b948a7413f0a142fd40d49347948888f1f195afa192cfee860698584c030f4c9db1a0b7829295a16db7cae65a071afbb272390f893dc1b0d3f098504148a7056f8056a056e81f171bcc55a6ff8345e692c0f86e5b48e01b996cadc001622fb5e363b421a056e81f171bcc55a6ff8345e692c0f86e5b48e01b996cadc001622fb5e363b421b90100000000000000000000000000000000000000000000000000000000000000000000000000000000000000000000000000000000000000000000000000000000000000000000000000000000000000000000000000000000000000000000000000000000000000000000000000000000000000000000000000000000000000000000000000000000000000000000000000000000000000000000000000000000000000000000000000000000000000000000000000000000000000000000000000000000000000000000000000000000000000000000000000000000000000000000000000000000000000000000000000000000000000000000000000000000008302000080832fefd8808454c98c8142a056e81f171bcc55a6ff8345e692c0f86e5b48e01b996cadc001622fb5e363b421880102030405060708c0c0",
        "lastblockhash" : "0xea4ecb53f6feb3ac3dad717297718406d40e5e21d1c8a1cf0db64087cacf2bd5",
        "network" : "Homestead",
        "postState" : {
            "0x095e7baea6a6c7c4c2dfeb977efac326af552d87" : {
                "balance" : "0x64",
                "code" : "0x7fffffffffffffffffffffffffffffffffffffffffffffffffffffffffffffffff600052600060206000a1",
                "nonce" : "0x00",
                "storage" : {
                }
            },
            "0xa94f5374fce5edbc8e2a8697c15331677e6ebf0b" : {
                "balance" : "0x174876e800",
                "code" : "",
                "nonce" : "0x00",
                "storage" : {
                }
            }
        },
        "pre" : {
            "0x095e7baea6a6c7c4c2dfeb977efac326af552d87" : {
                "balance" : "0x64",
                "code" : "0x7fffffffffffffffffffffffffffffffffffffffffffffffffffffffffffffffff600052600060206000a1",
                "nonce" : "0x00",
                "storage" : {
                }
            },
            "0xa94f5374fce5edbc8e2a8697c15331677e6ebf0b" : {
                "balance" : "0x174876e800",
                "code" : "",
                "nonce" : "0x00",
                "storage" : {
                }
            }
        }
    }
}