{
    "CREATE_ContractSuicideDuringInit_ThenStoreThenReturn_d0g0v0_Byzantium" : {
        "_info" : {
            "comment" : "",
            "filledwith" : "cpp-1.3.0+commit.6e0ce939.Linux.g++",
            "lllcversion" : "Version: 0.4.18-develop.2017.9.25+commit.a72237f2.Linux.g++",
            "source" : "src/BlockchainTestsFiller/GeneralStateTests/stCreateTest/CREATE_ContractSuicideDuringInit_ThenStoreThenReturn_d0g0v0Filler.json",
            "sourceHash" : "55d22e2e3272e56f9f51fc7b348fdbe02e29f2577f71d9bc99592cb7343a9048"
        },
        "blocks" : [
            {
                "blockHeader" : {
                    "bloom" : "0x00000000000000000000000000000000000000000000000000000000000000000000000000000000000000000000000000000000000000000000000000000000000000000000000000000000000000000000000000000000000000000000000000000000000000000000000000000000000000000000000000000000000000000000000000000000000000000000000000000000000000000000000000000000000000000000000000000000000000000000000000000000000000000000000000000000000000000000000000000000000000000000000000000000000000000000000000000000000000000000000000000000000000000000000000000000",
                    "coinbase" : "0x2adc25665018aa1fe0e6bc666dac8fc2697ff9ba",
                    "difficulty" : "0x020000",
                    "extraData" : "",
                    "gasLimit" : "0x989680",
                    "gasUsed" : "0xf2c0",
                    "hash" : "0x6d812b188145cdb2796c4e159843984b70bee846e2a9e841a2ac58c99e5addc1",
                    "mixHash" : "0x1ed49510c0e9547cb2a8af02fb40a9b0cc15dae6ad0a85f334f2830012b6f977",
                    "nonce" : "0xd5953146b1c9ed0e",
                    "number" : "0x01",
                    "parentHash" : "0x22a3b256c62ab978461b83e260348b98dd19879f5943cd14956b0198a6f929c4",
                    "receiptTrie" : "0x1b7a216a3e9b38288148393e072c976dc0dc1b5f68b1506e592e5fa99a7d2b47",
                    "stateRoot" : "0xa7da48e7ecddf789ea3a25227bcd22ee6c4b5838dd2e8a8c80b2607018b7b411",
                    "timestamp" : "0x03e8",
                    "transactionsTrie" : "0x0c2861c7c773367058155fd48db84f221aa6019726912e2cf21d2958bd6636be",
                    "uncleHash" : "0x1dcc4de8dec75d7aab85b567b6ccd41ad312451b948a7413f0a142fd40d49347"
                },
                "rlp" : "0xf902c6f901f7a022a3b256c62ab978461b83e260348b98dd19879f5943cd14956b0198a6f929c4a01dcc4de8dec75d7aab85b567b6ccd41ad312451b948a7413f0a142fd40d49347942adc25665018aa1fe0e6bc666dac8fc2697ff9baa0a7da48e7ecddf789ea3a25227bcd22ee6c4b5838dd2e8a8c80b2607018b7b411a00c2861c7c773367058155fd48db84f221aa6019726912e2cf21d2958bd6636bea01b7a216a3e9b38288148393e072c976dc0dc1b5f68b1506e592e5fa99a7d2b47b901000000000000000000000000000000000000000000000000000000000000000000000000000000000000000000000000000000000000000000000000000000000000000000000000000000000000000000000000000000000000000000000000000000000000000000000000000000000000000000000000000000000000000000000000000000000000000000000000000000000000000000000000000000000000000000000000000000000000000000000000000000000000000000000000000000000000000000000000000000000000000000000000000000000000000000000000000000000000000000000000000000000000000000000000000000000083020000018398968082f2c08203e880a01ed49510c0e9547cb2a8af02fb40a9b0cc15dae6ad0a85f334f2830012b6f97788d5953146b1c9ed0ef8c9f8c78001830927c0800ab87a6000600060006000600073c94f5374fce5edbc8e2a8697c15331677e6ebf0b61ea60f1506d64600c6000556000526005601bf360005273d94f5374fce5edbc8e2a8697c15331677e6ebf0bff6000600060006000600073d94f5374fce5edbc8e2a8697c15331677e6ebf0b61ea60f150600b600055600e6012f31ca054ca77a931f3b3592a33cc63442109a96241e2800362bd35628bd33e8442616fa0097b0eb289b78a9e8f96cc29ec18e79785f4ba70c62b2443208714429d5bba9bc0",
                "transactions" : [
                    {
                        "data" : "0x6000600060006000600073c94f5374fce5edbc8e2a8697c15331677e6ebf0b61ea60f1506d64600c6000556000526005601bf360005273d94f5374fce5edbc8e2a8697c15331677e6ebf0bff6000600060006000600073d94f5374fce5edbc8e2a8697c15331677e6ebf0b61ea60f150600b600055600e6012f3",
                        "gasLimit" : "0x0927c0",
                        "gasPrice" : "0x01",
                        "nonce" : "0x00",
                        "r" : "0x54ca77a931f3b3592a33cc63442109a96241e2800362bd35628bd33e8442616f",
                        "s" : "0x097b0eb289b78a9e8f96cc29ec18e79785f4ba70c62b2443208714429d5bba9b",
                        "to" : "",
                        "v" : "0x1c",
                        "value" : "0x0a"
                    }
                ],
                "uncleHeaders" : [
                ]
            }
        ],
        "genesisBlockHeader" : {
            "bloom" : "0x00000000000000000000000000000000000000000000000000000000000000000000000000000000000000000000000000000000000000000000000000000000000000000000000000000000000000000000000000000000000000000000000000000000000000000000000000000000000000000000000000000000000000000000000000000000000000000000000000000000000000000000000000000000000000000000000000000000000000000000000000000000000000000000000000000000000000000000000000000000000000000000000000000000000000000000000000000000000000000000000000000000000000000000000000000000",
            "coinbase" : "0x2adc25665018aa1fe0e6bc666dac8fc2697ff9ba",
            "difficulty" : "0x020000",
            "extraData" : "0x42",
            "gasLimit" : "0x989680",
            "gasUsed" : "0x00",
            "hash" : "0x22a3b256c62ab978461b83e260348b98dd19879f5943cd14956b0198a6f929c4",
            "mixHash" : "0x56e81f171bcc55a6ff8345e692c0f86e5b48e01b996cadc001622fb5e363b421",
            "nonce" : "0x0102030405060708",
            "number" : "0x00",
            "parentHash" : "0x0000000000000000000000000000000000000000000000000000000000000000",
            "receiptTrie" : "0x56e81f171bcc55a6ff8345e692c0f86e5b48e01b996cadc001622fb5e363b421",
            "stateRoot" : "0xa05d4be4210f29ee0297a4efe2428d8453ab907d765aea475519e92aec33a073",
            "timestamp" : "0x03b6",
            "transactionsTrie" : "0x56e81f171bcc55a6ff8345e692c0f86e5b48e01b996cadc001622fb5e363b421",
            "uncleHash" : "0x1dcc4de8dec75d7aab85b567b6ccd41ad312451b948a7413f0a142fd40d49347"
        },
        "genesisRLP" : "0xf901faf901f5a00000000000000000000000000000000000000000000000000000000000000000a01dcc4de8dec75d7aab85b567b6ccd41ad312451b948a7413f0a142fd40d49347942adc25665018aa1fe0e6bc666dac8fc2697ff9baa0a05d4be4210f29ee0297a4efe2428d8453ab907d765aea475519e92aec33a073a056e81f171bcc55a6ff8345e692c0f86e5b48e01b996cadc001622fb5e363b421a056e81f171bcc55a6ff8345e692c0f86e5b48e01b996cadc001622fb5e363b421b9010000000000000000000000000000000000000000000000000000000000000000000000000000000000000000000000000000000000000000000000000000000000000000000000000000000000000000000000000000000000000000000000000000000000000000000000000000000000000000000000000000000000000000000000000000000000000000000000000000000000000000000000000000000000000000000000000000000000000000000000000000000000000000000000000000000000000000000000000000000000000000000000000000000000000000000000000000000000000000000000000000000000000000000000000000000000830200008083989680808203b642a056e81f171bcc55a6ff8345e692c0f86e5b48e01b996cadc001622fb5e363b421880102030405060708c0c0",
        "lastblockhash" : "0x6d812b188145cdb2796c4e159843984b70bee846e2a9e841a2ac58c99e5addc1",
        "network" : "Byzantium",
        "postState" : {
            "0x2adc25665018aa1fe0e6bc666dac8fc2697ff9ba" : {
                "balance" : "0x29a2241af62cf2c0",
                "code" : "",
                "nonce" : "0x00",
                "storage" : {
                }
            },
            "0xa94f5374fce5edbc8e2a8697c15331677e6ebf0b" : {
                "balance" : "0xe8d4a41d36",
                "code" : "",
                "nonce" : "0x01",
                "storage" : {
                }
            },
            "0xc94f5374fce5edbc8e2a8697c15331677e6ebf0b" : {
                "balance" : "0x00",
                "code" : "0x600c600155",
                "nonce" : "0x00",
                "storage" : {
                    "0x01" : "0x0c"
                }
            },
            "0xd94f5374fce5edbc8e2a8697c15331677e6ebf0b" : {
                "balance" : "0x0a",
                "code" : "0x600c600155",
                "nonce" : "0x00",
                "storage" : {
                }
            }
        },
        "pre" : {
            "0xa94f5374fce5edbc8e2a8697c15331677e6ebf0b" : {
                "balance" : "0xe8d4a51000",
                "code" : "",
                "nonce" : "0x00",
                "storage" : {
                }
            },
            "0xc94f5374fce5edbc8e2a8697c15331677e6ebf0b" : {
                "balance" : "0x00",
                "code" : "0x600c600155",
                "nonce" : "0x00",
                "storage" : {
                }
            },
            "0xd94f5374fce5edbc8e2a8697c15331677e6ebf0b" : {
                "balance" : "0x00",
                "code" : "0x600c600155",
                "nonce" : "0x00",
                "storage" : {
                }
            }
        }
    },
    "CREATE_ContractSuicideDuringInit_ThenStoreThenReturn_d0g0v0_EIP150" : {
        "_info" : {
            "comment" : "",
            "filledwith" : "cpp-1.3.0+commit.6e0ce939.Linux.g++",
            "lllcversion" : "Version: 0.4.18-develop.2017.9.25+commit.a72237f2.Linux.g++",
            "source" : "src/BlockchainTestsFiller/GeneralStateTests/stCreateTest/CREATE_ContractSuicideDuringInit_ThenStoreThenReturn_d0g0v0Filler.json",
            "sourceHash" : "55d22e2e3272e56f9f51fc7b348fdbe02e29f2577f71d9bc99592cb7343a9048"
        },
        "blocks" : [
            {
                "blockHeader" : {
                    "bloom" : "0x00000000000000000000000000000000000000000000000000000000000000000000000000000000000000000000000000000000000000000000000000000000000000000000000000000000000000000000000000000000000000000000000000000000000000000000000000000000000000000000000000000000000000000000000000000000000000000000000000000000000000000000000000000000000000000000000000000000000000000000000000000000000000000000000000000000000000000000000000000000000000000000000000000000000000000000000000000000000000000000000000000000000000000000000000000000",
                    "coinbase" : "0x2adc25665018aa1fe0e6bc666dac8fc2697ff9ba",
                    "difficulty" : "0x020000",
                    "extraData" : "",
                    "gasLimit" : "0x989680",
                    "gasUsed" : "0xf2c0",
                    "hash" : "0xedba23f4ae5224764b2c4c23924307c78a607b493a938e72c745edc87e09b0ec",
                    "mixHash" : "0x44516fb0fc660cf61681957a2031e9048f658e1e6ea44169fa81209badc08571",
                    "nonce" : "0xe0a4fccf7dbde788",
                    "number" : "0x01",
                    "parentHash" : "0x22a3b256c62ab978461b83e260348b98dd19879f5943cd14956b0198a6f929c4",
                    "receiptTrie" : "0xe13bd551335498aa111c004c80fbb7daf43e61e740075aada5378e56a0adb566",
                    "stateRoot" : "0x5a74fa6a8da96af64847dbd1282e785be69c95191c9c15df7a98fd1c61fd1c7f",
                    "timestamp" : "0x03e8",
                    "transactionsTrie" : "0x0c2861c7c773367058155fd48db84f221aa6019726912e2cf21d2958bd6636be",
                    "uncleHash" : "0x1dcc4de8dec75d7aab85b567b6ccd41ad312451b948a7413f0a142fd40d49347"
                },
                "rlp" : "0xf902c6f901f7a022a3b256c62ab978461b83e260348b98dd19879f5943cd14956b0198a6f929c4a01dcc4de8dec75d7aab85b567b6ccd41ad312451b948a7413f0a142fd40d49347942adc25665018aa1fe0e6bc666dac8fc2697ff9baa05a74fa6a8da96af64847dbd1282e785be69c95191c9c15df7a98fd1c61fd1c7fa00c2861c7c773367058155fd48db84f221aa6019726912e2cf21d2958bd6636bea0e13bd551335498aa111c004c80fbb7daf43e61e740075aada5378e56a0adb566b901000000000000000000000000000000000000000000000000000000000000000000000000000000000000000000000000000000000000000000000000000000000000000000000000000000000000000000000000000000000000000000000000000000000000000000000000000000000000000000000000000000000000000000000000000000000000000000000000000000000000000000000000000000000000000000000000000000000000000000000000000000000000000000000000000000000000000000000000000000000000000000000000000000000000000000000000000000000000000000000000000000000000000000000000000000000083020000018398968082f2c08203e880a044516fb0fc660cf61681957a2031e9048f658e1e6ea44169fa81209badc0857188e0a4fccf7dbde788f8c9f8c78001830927c0800ab87a6000600060006000600073c94f5374fce5edbc8e2a8697c15331677e6ebf0b61ea60f1506d64600c6000556000526005601bf360005273d94f5374fce5edbc8e2a8697c15331677e6ebf0bff6000600060006000600073d94f5374fce5edbc8e2a8697c15331677e6ebf0b61ea60f150600b600055600e6012f31ca054ca77a931f3b3592a33cc63442109a96241e2800362bd35628bd33e8442616fa0097b0eb289b78a9e8f96cc29ec18e79785f4ba70c62b2443208714429d5bba9bc0",
                "transactions" : [
                    {
                        "data" : "0x6000600060006000600073c94f5374fce5edbc8e2a8697c15331677e6ebf0b61ea60f1506d64600c6000556000526005601bf360005273d94f5374fce5edbc8e2a8697c15331677e6ebf0bff6000600060006000600073d94f5374fce5edbc8e2a8697c15331677e6ebf0b61ea60f150600b600055600e6012f3",
                        "gasLimit" : "0x0927c0",
                        "gasPrice" : "0x01",
                        "nonce" : "0x00",
                        "r" : "0x54ca77a931f3b3592a33cc63442109a96241e2800362bd35628bd33e8442616f",
                        "s" : "0x097b0eb289b78a9e8f96cc29ec18e79785f4ba70c62b2443208714429d5bba9b",
                        "to" : "",
                        "v" : "0x1c",
                        "value" : "0x0a"
                    }
                ],
                "uncleHeaders" : [
                ]
            }
        ],
        "genesisBlockHeader" : {
            "bloom" : "0x00000000000000000000000000000000000000000000000000000000000000000000000000000000000000000000000000000000000000000000000000000000000000000000000000000000000000000000000000000000000000000000000000000000000000000000000000000000000000000000000000000000000000000000000000000000000000000000000000000000000000000000000000000000000000000000000000000000000000000000000000000000000000000000000000000000000000000000000000000000000000000000000000000000000000000000000000000000000000000000000000000000000000000000000000000000",
            "coinbase" : "0x2adc25665018aa1fe0e6bc666dac8fc2697ff9ba",
            "difficulty" : "0x020000",
            "extraData" : "0x42",
            "gasLimit" : "0x989680",
            "gasUsed" : "0x00",
            "hash" : "0x22a3b256c62ab978461b83e260348b98dd19879f5943cd14956b0198a6f929c4",
            "mixHash" : "0x56e81f171bcc55a6ff8345e692c0f86e5b48e01b996cadc001622fb5e363b421",
            "nonce" : "0x0102030405060708",
            "number" : "0x00",
            "parentHash" : "0x0000000000000000000000000000000000000000000000000000000000000000",
            "receiptTrie" : "0x56e81f171bcc55a6ff8345e692c0f86e5b48e01b996cadc001622fb5e363b421",
            "stateRoot" : "0xa05d4be4210f29ee0297a4efe2428d8453ab907d765aea475519e92aec33a073",
            "timestamp" : "0x03b6",
            "transactionsTrie" : "0x56e81f171bcc55a6ff8345e692c0f86e5b48e01b996cadc001622fb5e363b421",
            "uncleHash" : "0x1dcc4de8dec75d7aab85b567b6ccd41ad312451b948a7413f0a142fd40d49347"
        },
        "genesisRLP" : "0xf901faf901f5a00000000000000000000000000000000000000000000000000000000000000000a01dcc4de8dec75d7aab85b567b6ccd41ad312451b948a7413f0a142fd40d49347942adc25665018aa1fe0e6bc666dac8fc2697ff9baa0a05d4be4210f29ee0297a4efe2428d8453ab907d765aea475519e92aec33a073a056e81f171bcc55a6ff8345e692c0f86e5b48e01b996cadc001622fb5e363b421a056e81f171bcc55a6ff8345e692c0f86e5b48e01b996cadc001622fb5e363b421b9010000000000000000000000000000000000000000000000000000000000000000000000000000000000000000000000000000000000000000000000000000000000000000000000000000000000000000000000000000000000000000000000000000000000000000000000000000000000000000000000000000000000000000000000000000000000000000000000000000000000000000000000000000000000000000000000000000000000000000000000000000000000000000000000000000000000000000000000000000000000000000000000000000000000000000000000000000000000000000000000000000000000000000000000000000000000830200008083989680808203b642a056e81f171bcc55a6ff8345e692c0f86e5b48e01b996cadc001622fb5e363b421880102030405060708c0c0",
        "lastblockhash" : "0xedba23f4ae5224764b2c4c23924307c78a607b493a938e72c745edc87e09b0ec",
        "network" : "EIP150",
        "postState" : {
            "0x2adc25665018aa1fe0e6bc666dac8fc2697ff9ba" : {
                "balance" : "0x4563918244f4f2c0",
                "code" : "",
                "nonce" : "0x00",
                "storage" : {
                }
            },
            "0xa94f5374fce5edbc8e2a8697c15331677e6ebf0b" : {
                "balance" : "0xe8d4a41d36",
                "code" : "",
                "nonce" : "0x01",
                "storage" : {
                }
            },
            "0xc94f5374fce5edbc8e2a8697c15331677e6ebf0b" : {
                "balance" : "0x00",
                "code" : "0x600c600155",
                "nonce" : "0x00",
                "storage" : {
                    "0x01" : "0x0c"
                }
            },
            "0xd94f5374fce5edbc8e2a8697c15331677e6ebf0b" : {
                "balance" : "0x0a",
                "code" : "0x600c600155",
                "nonce" : "0x00",
                "storage" : {
                }
            }
        },
        "pre" : {
            "0xa94f5374fce5edbc8e2a8697c15331677e6ebf0b" : {
                "balance" : "0xe8d4a51000",
                "code" : "",
                "nonce" : "0x00",
                "storage" : {
                }
            },
            "0xc94f5374fce5edbc8e2a8697c15331677e6ebf0b" : {
                "balance" : "0x00",
                "code" : "0x600c600155",
                "nonce" : "0x00",
                "storage" : {
                }
            },
            "0xd94f5374fce5edbc8e2a8697c15331677e6ebf0b" : {
                "balance" : "0x00",
                "code" : "0x600c600155",
                "nonce" : "0x00",
                "storage" : {
                }
            }
        }
    },
    "CREATE_ContractSuicideDuringInit_ThenStoreThenReturn_d0g0v0_EIP158" : {
        "_info" : {
            "comment" : "",
            "filledwith" : "cpp-1.3.0+commit.6e0ce939.Linux.g++",
            "lllcversion" : "Version: 0.4.18-develop.2017.9.25+commit.a72237f2.Linux.g++",
            "source" : "src/BlockchainTestsFiller/GeneralStateTests/stCreateTest/CREATE_ContractSuicideDuringInit_ThenStoreThenReturn_d0g0v0Filler.json",
            "sourceHash" : "55d22e2e3272e56f9f51fc7b348fdbe02e29f2577f71d9bc99592cb7343a9048"
        },
        "blocks" : [
            {
                "blockHeader" : {
                    "bloom" : "0x00000000000000000000000000000000000000000000000000000000000000000000000000000000000000000000000000000000000000000000000000000000000000000000000000000000000000000000000000000000000000000000000000000000000000000000000000000000000000000000000000000000000000000000000000000000000000000000000000000000000000000000000000000000000000000000000000000000000000000000000000000000000000000000000000000000000000000000000000000000000000000000000000000000000000000000000000000000000000000000000000000000000000000000000000000000",
                    "coinbase" : "0x2adc25665018aa1fe0e6bc666dac8fc2697ff9ba",
                    "difficulty" : "0x020000",
                    "extraData" : "",
                    "gasLimit" : "0x989680",
                    "gasUsed" : "0xf2c0",
                    "hash" : "0x8f98d1557a6b4da780d5e7ddffcd2aadd0ec00cd395252729b62fb9ed750a78e",
                    "mixHash" : "0x545743f23d97ba9e02fa401ea6a8b65ee633a40cb0fc586db86be73a20a5d082",
                    "nonce" : "0x1d83cb59f12ef086",
                    "number" : "0x01",
                    "parentHash" : "0x22a3b256c62ab978461b83e260348b98dd19879f5943cd14956b0198a6f929c4",
                    "receiptTrie" : "0xe13bd551335498aa111c004c80fbb7daf43e61e740075aada5378e56a0adb566",
                    "stateRoot" : "0x5a74fa6a8da96af64847dbd1282e785be69c95191c9c15df7a98fd1c61fd1c7f",
                    "timestamp" : "0x03e8",
                    "transactionsTrie" : "0x0c2861c7c773367058155fd48db84f221aa6019726912e2cf21d2958bd6636be",
                    "uncleHash" : "0x1dcc4de8dec75d7aab85b567b6ccd41ad312451b948a7413f0a142fd40d49347"
                },
                "rlp" : "0xf902c6f901f7a022a3b256c62ab978461b83e260348b98dd19879f5943cd14956b0198a6f929c4a01dcc4de8dec75d7aab85b567b6ccd41ad312451b948a7413f0a142fd40d49347942adc25665018aa1fe0e6bc666dac8fc2697ff9baa05a74fa6a8da96af64847dbd1282e785be69c95191c9c15df7a98fd1c61fd1c7fa00c2861c7c773367058155fd48db84f221aa6019726912e2cf21d2958bd6636bea0e13bd551335498aa111c004c80fbb7daf43e61e740075aada5378e56a0adb566b901000000000000000000000000000000000000000000000000000000000000000000000000000000000000000000000000000000000000000000000000000000000000000000000000000000000000000000000000000000000000000000000000000000000000000000000000000000000000000000000000000000000000000000000000000000000000000000000000000000000000000000000000000000000000000000000000000000000000000000000000000000000000000000000000000000000000000000000000000000000000000000000000000000000000000000000000000000000000000000000000000000000000000000000000000000000083020000018398968082f2c08203e880a0545743f23d97ba9e02fa401ea6a8b65ee633a40cb0fc586db86be73a20a5d082881d83cb59f12ef086f8c9f8c78001830927c0800ab87a6000600060006000600073c94f5374fce5edbc8e2a8697c15331677e6ebf0b61ea60f1506d64600c6000556000526005601bf360005273d94f5374fce5edbc8e2a8697c15331677e6ebf0bff6000600060006000600073d94f5374fce5edbc8e2a8697c15331677e6ebf0b61ea60f150600b600055600e6012f31ca054ca77a931f3b3592a33cc63442109a96241e2800362bd35628bd33e8442616fa0097b0eb289b78a9e8f96cc29ec18e79785f4ba70c62b2443208714429d5bba9bc0",
                "transactions" : [
                    {
                        "data" : "0x6000600060006000600073c94f5374fce5edbc8e2a8697c15331677e6ebf0b61ea60f1506d64600c6000556000526005601bf360005273d94f5374fce5edbc8e2a8697c15331677e6ebf0bff6000600060006000600073d94f5374fce5edbc8e2a8697c15331677e6ebf0b61ea60f150600b600055600e6012f3",
                        "gasLimit" : "0x0927c0",
                        "gasPrice" : "0x01",
                        "nonce" : "0x00",
                        "r" : "0x54ca77a931f3b3592a33cc63442109a96241e2800362bd35628bd33e8442616f",
                        "s" : "0x097b0eb289b78a9e8f96cc29ec18e79785f4ba70c62b2443208714429d5bba9b",
                        "to" : "",
                        "v" : "0x1c",
                        "value" : "0x0a"
                    }
                ],
                "uncleHeaders" : [
                ]
            }
        ],
        "genesisBlockHeader" : {
            "bloom" : "0x00000000000000000000000000000000000000000000000000000000000000000000000000000000000000000000000000000000000000000000000000000000000000000000000000000000000000000000000000000000000000000000000000000000000000000000000000000000000000000000000000000000000000000000000000000000000000000000000000000000000000000000000000000000000000000000000000000000000000000000000000000000000000000000000000000000000000000000000000000000000000000000000000000000000000000000000000000000000000000000000000000000000000000000000000000000",
            "coinbase" : "0x2adc25665018aa1fe0e6bc666dac8fc2697ff9ba",
            "difficulty" : "0x020000",
            "extraData" : "0x42",
            "gasLimit" : "0x989680",
            "gasUsed" : "0x00",
            "hash" : "0x22a3b256c62ab978461b83e260348b98dd19879f5943cd14956b0198a6f929c4",
            "mixHash" : "0x56e81f171bcc55a6ff8345e692c0f86e5b48e01b996cadc001622fb5e363b421",
            "nonce" : "0x0102030405060708",
            "number" : "0x00",
            "parentHash" : "0x0000000000000000000000000000000000000000000000000000000000000000",
            "receiptTrie" : "0x56e81f171bcc55a6ff8345e692c0f86e5b48e01b996cadc001622fb5e363b421",
            "stateRoot" : "0xa05d4be4210f29ee0297a4efe2428d8453ab907d765aea475519e92aec33a073",
            "timestamp" : "0x03b6",
            "transactionsTrie" : "0x56e81f171bcc55a6ff8345e692c0f86e5b48e01b996cadc001622fb5e363b421",
            "uncleHash" : "0x1dcc4de8dec75d7aab85b567b6ccd41ad312451b948a7413f0a142fd40d49347"
        },
        "genesisRLP" : "0xf901faf901f5a00000000000000000000000000000000000000000000000000000000000000000a01dcc4de8dec75d7aab85b567b6ccd41ad312451b948a7413f0a142fd40d49347942adc25665018aa1fe0e6bc666dac8fc2697ff9baa0a05d4be4210f29ee0297a4efe2428d8453ab907d765aea475519e92aec33a073a056e81f171bcc55a6ff8345e692c0f86e5b48e01b996cadc001622fb5e363b421a056e81f171bcc55a6ff8345e692c0f86e5b48e01b996cadc001622fb5e363b421b9010000000000000000000000000000000000000000000000000000000000000000000000000000000000000000000000000000000000000000000000000000000000000000000000000000000000000000000000000000000000000000000000000000000000000000000000000000000000000000000000000000000000000000000000000000000000000000000000000000000000000000000000000000000000000000000000000000000000000000000000000000000000000000000000000000000000000000000000000000000000000000000000000000000000000000000000000000000000000000000000000000000000000000000000000000000000830200008083989680808203b642a056e81f171bcc55a6ff8345e692c0f86e5b48e01b996cadc001622fb5e363b421880102030405060708c0c0",
        "lastblockhash" : "0x8f98d1557a6b4da780d5e7ddffcd2aadd0ec00cd395252729b62fb9ed750a78e",
        "network" : "EIP158",
        "postState" : {
            "0x2adc25665018aa1fe0e6bc666dac8fc2697ff9ba" : {
                "balance" : "0x4563918244f4f2c0",
                "code" : "",
                "nonce" : "0x00",
                "storage" : {
                }
            },
            "0xa94f5374fce5edbc8e2a8697c15331677e6ebf0b" : {
                "balance" : "0xe8d4a41d36",
                "code" : "",
                "nonce" : "0x01",
                "storage" : {
                }
            },
            "0xc94f5374fce5edbc8e2a8697c15331677e6ebf0b" : {
                "balance" : "0x00",
                "code" : "0x600c600155",
                "nonce" : "0x00",
                "storage" : {
                    "0x01" : "0x0c"
                }
            },
            "0xd94f5374fce5edbc8e2a8697c15331677e6ebf0b" : {
                "balance" : "0x0a",
                "code" : "0x600c600155",
                "nonce" : "0x00",
                "storage" : {
                }
            }
        },
        "pre" : {
            "0xa94f5374fce5edbc8e2a8697c15331677e6ebf0b" : {
                "balance" : "0xe8d4a51000",
                "code" : "",
                "nonce" : "0x00",
                "storage" : {
                }
            },
            "0xc94f5374fce5edbc8e2a8697c15331677e6ebf0b" : {
                "balance" : "0x00",
                "code" : "0x600c600155",
                "nonce" : "0x00",
                "storage" : {
                }
            },
            "0xd94f5374fce5edbc8e2a8697c15331677e6ebf0b" : {
                "balance" : "0x00",
                "code" : "0x600c600155",
                "nonce" : "0x00",
                "storage" : {
                }
            }
        }
    },
    "CREATE_ContractSuicideDuringInit_ThenStoreThenReturn_d0g0v0_Frontier" : {
        "_info" : {
            "comment" : "",
            "filledwith" : "cpp-1.3.0+commit.6e0ce939.Linux.g++",
            "lllcversion" : "Version: 0.4.18-develop.2017.9.25+commit.a72237f2.Linux.g++",
            "source" : "src/BlockchainTestsFiller/GeneralStateTests/stCreateTest/CREATE_ContractSuicideDuringInit_ThenStoreThenReturn_d0g0v0Filler.json",
            "sourceHash" : "55d22e2e3272e56f9f51fc7b348fdbe02e29f2577f71d9bc99592cb7343a9048"
        },
        "blocks" : [
            {
                "blockHeader" : {
                    "bloom" : "0x00000000000000000000000000000000000000000000000000000000000000000000000000000000000000000000000000000000000000000000000000000000000000000000000000000000000000000000000000000000000000000000000000000000000000000000000000000000000000000000000000000000000000000000000000000000000000000000000000000000000000000000000000000000000000000000000000000000000000000000000000000000000000000000000000000000000000000000000000000000000000000000000000000000000000000000000000000000000000000000000000000000000000000000000000000000",
                    "coinbase" : "0x2adc25665018aa1fe0e6bc666dac8fc2697ff9ba",
                    "difficulty" : "0x020000",
                    "extraData" : "",
                    "gasLimit" : "0x989680",
                    "gasUsed" : "0x5fa4",
                    "hash" : "0x04c26215b2677dad6e0299182fb85c1a4b60c9654b67b8dc29b4302e1b4c8ff8",
                    "mixHash" : "0x1b81556b8549cc9833e1689de8fe1048c8becfcdf93153e5755ab008dc83e20d",
                    "nonce" : "0x1a37a1e4e54630a4",
                    "number" : "0x01",
                    "parentHash" : "0x22a3b256c62ab978461b83e260348b98dd19879f5943cd14956b0198a6f929c4",
                    "receiptTrie" : "0xd32d41f1428f891d96ea22c79572146bbf774c64659929087ab48e4c6220b75c",
                    "stateRoot" : "0xef01c7cb9e4e3e4cadd383267d352d6dfcd6136e367076d7a59a10e5ca81ea61",
                    "timestamp" : "0x03e8",
                    "transactionsTrie" : "0x0c2861c7c773367058155fd48db84f221aa6019726912e2cf21d2958bd6636be",
                    "uncleHash" : "0x1dcc4de8dec75d7aab85b567b6ccd41ad312451b948a7413f0a142fd40d49347"
                },
                "rlp" : "0xf902c6f901f7a022a3b256c62ab978461b83e260348b98dd19879f5943cd14956b0198a6f929c4a01dcc4de8dec75d7aab85b567b6ccd41ad312451b948a7413f0a142fd40d49347942adc25665018aa1fe0e6bc666dac8fc2697ff9baa0ef01c7cb9e4e3e4cadd383267d352d6dfcd6136e367076d7a59a10e5ca81ea61a00c2861c7c773367058155fd48db84f221aa6019726912e2cf21d2958bd6636bea0d32d41f1428f891d96ea22c79572146bbf774c64659929087ab48e4c6220b75cb9010000000000000000000000000000000000000000000000000000000000000000000000000000000000000000000000000000000000000000000000000000000000000000000000000000000000000000000000000000000000000000000000000000000000000000000000000000000000000000000000000000000000000000000000000000000000000000000000000000000000000000000000000000000000000000000000000000000000000000000000000000000000000000000000000000000000000000000000000000000000000000000000000000000000000000000000000000000000000000000000000000000000000000000000000000000000830200000183989680825fa48203e880a01b81556b8549cc9833e1689de8fe1048c8becfcdf93153e5755ab008dc83e20d881a37a1e4e54630a4f8c9f8c78001830927c0800ab87a6000600060006000600073c94f5374fce5edbc8e2a8697c15331677e6ebf0b61ea60f1506d64600c6000556000526005601bf360005273d94f5374fce5edbc8e2a8697c15331677e6ebf0bff6000600060006000600073d94f5374fce5edbc8e2a8697c15331677e6ebf0b61ea60f150600b600055600e6012f31ca054ca77a931f3b3592a33cc63442109a96241e2800362bd35628bd33e8442616fa0097b0eb289b78a9e8f96cc29ec18e79785f4ba70c62b2443208714429d5bba9bc0",
                "transactions" : [
                    {
                        "data" : "0x6000600060006000600073c94f5374fce5edbc8e2a8697c15331677e6ebf0b61ea60f1506d64600c6000556000526005601bf360005273d94f5374fce5edbc8e2a8697c15331677e6ebf0bff6000600060006000600073d94f5374fce5edbc8e2a8697c15331677e6ebf0b61ea60f150600b600055600e6012f3",
                        "gasLimit" : "0x0927c0",
                        "gasPrice" : "0x01",
                        "nonce" : "0x00",
                        "r" : "0x54ca77a931f3b3592a33cc63442109a96241e2800362bd35628bd33e8442616f",
                        "s" : "0x097b0eb289b78a9e8f96cc29ec18e79785f4ba70c62b2443208714429d5bba9b",
                        "to" : "",
                        "v" : "0x1c",
                        "value" : "0x0a"
                    }
                ],
                "uncleHeaders" : [
                ]
            }
        ],
        "genesisBlockHeader" : {
            "bloom" : "0x00000000000000000000000000000000000000000000000000000000000000000000000000000000000000000000000000000000000000000000000000000000000000000000000000000000000000000000000000000000000000000000000000000000000000000000000000000000000000000000000000000000000000000000000000000000000000000000000000000000000000000000000000000000000000000000000000000000000000000000000000000000000000000000000000000000000000000000000000000000000000000000000000000000000000000000000000000000000000000000000000000000000000000000000000000000",
            "coinbase" : "0x2adc25665018aa1fe0e6bc666dac8fc2697ff9ba",
            "difficulty" : "0x020000",
            "extraData" : "0x42",
            "gasLimit" : "0x989680",
            "gasUsed" : "0x00",
            "hash" : "0x22a3b256c62ab978461b83e260348b98dd19879f5943cd14956b0198a6f929c4",
            "mixHash" : "0x56e81f171bcc55a6ff8345e692c0f86e5b48e01b996cadc001622fb5e363b421",
            "nonce" : "0x0102030405060708",
            "number" : "0x00",
            "parentHash" : "0x0000000000000000000000000000000000000000000000000000000000000000",
            "receiptTrie" : "0x56e81f171bcc55a6ff8345e692c0f86e5b48e01b996cadc001622fb5e363b421",
            "stateRoot" : "0xa05d4be4210f29ee0297a4efe2428d8453ab907d765aea475519e92aec33a073",
            "timestamp" : "0x03b6",
            "transactionsTrie" : "0x56e81f171bcc55a6ff8345e692c0f86e5b48e01b996cadc001622fb5e363b421",
            "uncleHash" : "0x1dcc4de8dec75d7aab85b567b6ccd41ad312451b948a7413f0a142fd40d49347"
        },
        "genesisRLP" : "0xf901faf901f5a00000000000000000000000000000000000000000000000000000000000000000a01dcc4de8dec75d7aab85b567b6ccd41ad312451b948a7413f0a142fd40d49347942adc25665018aa1fe0e6bc666dac8fc2697ff9baa0a05d4be4210f29ee0297a4efe2428d8453ab907d765aea475519e92aec33a073a056e81f171bcc55a6ff8345e692c0f86e5b48e01b996cadc001622fb5e363b421a056e81f171bcc55a6ff8345e692c0f86e5b48e01b996cadc001622fb5e363b421b9010000000000000000000000000000000000000000000000000000000000000000000000000000000000000000000000000000000000000000000000000000000000000000000000000000000000000000000000000000000000000000000000000000000000000000000000000000000000000000000000000000000000000000000000000000000000000000000000000000000000000000000000000000000000000000000000000000000000000000000000000000000000000000000000000000000000000000000000000000000000000000000000000000000000000000000000000000000000000000000000000000000000000000000000000000000000830200008083989680808203b642a056e81f171bcc55a6ff8345e692c0f86e5b48e01b996cadc001622fb5e363b421880102030405060708c0c0",
        "lastblockhash" : "0x04c26215b2677dad6e0299182fb85c1a4b60c9654b67b8dc29b4302e1b4c8ff8",
        "network" : "Frontier",
        "postState" : {
            "0x2adc25665018aa1fe0e6bc666dac8fc2697ff9ba" : {
                "balance" : "0x4563918244f45fa4",
                "code" : "",
                "nonce" : "0x00",
                "storage" : {
                }
            },
            "0xa94f5374fce5edbc8e2a8697c15331677e6ebf0b" : {
                "balance" : "0xe8d4a4b052",
                "code" : "",
                "nonce" : "0x01",
                "storage" : {
                }
            },
            "0xc94f5374fce5edbc8e2a8697c15331677e6ebf0b" : {
                "balance" : "0x00",
                "code" : "0x600c600155",
                "nonce" : "0x00",
                "storage" : {
                    "0x01" : "0x0c"
                }
            },
            "0xd94f5374fce5edbc8e2a8697c15331677e6ebf0b" : {
                "balance" : "0x0a",
                "code" : "0x600c600155",
                "nonce" : "0x00",
                "storage" : {
                }
            }
        },
        "pre" : {
            "0xa94f5374fce5edbc8e2a8697c15331677e6ebf0b" : {
                "balance" : "0xe8d4a51000",
                "code" : "",
                "nonce" : "0x00",
                "storage" : {
                }
            },
            "0xc94f5374fce5edbc8e2a8697c15331677e6ebf0b" : {
                "balance" : "0x00",
                "code" : "0x600c600155",
                "nonce" : "0x00",
                "storage" : {
                }
            },
            "0xd94f5374fce5edbc8e2a8697c15331677e6ebf0b" : {
                "balance" : "0x00",
                "code" : "0x600c600155",
                "nonce" : "0x00",
                "storage" : {
                }
            }
        }
    },
    "CREATE_ContractSuicideDuringInit_ThenStoreThenReturn_d0g0v0_Homestead" : {
        "_info" : {
            "comment" : "",
            "filledwith" : "cpp-1.3.0+commit.6e0ce939.Linux.g++",
            "lllcversion" : "Version: 0.4.18-develop.2017.9.25+commit.a72237f2.Linux.g++",
            "source" : "src/BlockchainTestsFiller/GeneralStateTests/stCreateTest/CREATE_ContractSuicideDuringInit_ThenStoreThenReturn_d0g0v0Filler.json",
            "sourceHash" : "55d22e2e3272e56f9f51fc7b348fdbe02e29f2577f71d9bc99592cb7343a9048"
        },
        "blocks" : [
            {
                "blockHeader" : {
                    "bloom" : "0x00000000000000000000000000000000000000000000000000000000000000000000000000000000000000000000000000000000000000000000000000000000000000000000000000000000000000000000000000000000000000000000000000000000000000000000000000000000000000000000000000000000000000000000000000000000000000000000000000000000000000000000000000000000000000000000000000000000000000000000000000000000000000000000000000000000000000000000000000000000000000000000000000000000000000000000000000000000000000000000000000000000000000000000000000000000",
                    "coinbase" : "0x2adc25665018aa1fe0e6bc666dac8fc2697ff9ba",
                    "difficulty" : "0x020000",
                    "extraData" : "",
                    "gasLimit" : "0x989680",
                    "gasUsed" : "0xdca4",
                    "hash" : "0xcc638c9239ad7ca4b75bf2fd1421f8ef249b1342963fd98dc689407cfb55d1fc",
                    "mixHash" : "0x231489eec464956e06a925289e04a92596e928e0b1e9c5ab3ab04cbda8482438",
                    "nonce" : "0x90a4d3a7917147ce",
                    "number" : "0x01",
                    "parentHash" : "0x22a3b256c62ab978461b83e260348b98dd19879f5943cd14956b0198a6f929c4",
                    "receiptTrie" : "0x39dc9e13cb6dc1cc5ef43b3ca06339d20a7e3588198f5810d2027c0f7d3ccb68",
                    "stateRoot" : "0x287ba24ca840fc1b041f51d6e5da7e8bd98c5ae007ee2871dc16fea155964ec6",
                    "timestamp" : "0x03e8",
                    "transactionsTrie" : "0x0c2861c7c773367058155fd48db84f221aa6019726912e2cf21d2958bd6636be",
                    "uncleHash" : "0x1dcc4de8dec75d7aab85b567b6ccd41ad312451b948a7413f0a142fd40d49347"
                },
                "rlp" : "0xf902c6f901f7a022a3b256c62ab978461b83e260348b98dd19879f5943cd14956b0198a6f929c4a01dcc4de8dec75d7aab85b567b6ccd41ad312451b948a7413f0a142fd40d49347942adc25665018aa1fe0e6bc666dac8fc2697ff9baa0287ba24ca840fc1b041f51d6e5da7e8bd98c5ae007ee2871dc16fea155964ec6a00c2861c7c773367058155fd48db84f221aa6019726912e2cf21d2958bd6636bea039dc9e13cb6dc1cc5ef43b3ca06339d20a7e3588198f5810d2027c0f7d3ccb68b901000000000000000000000000000000000000000000000000000000000000000000000000000000000000000000000000000000000000000000000000000000000000000000000000000000000000000000000000000000000000000000000000000000000000000000000000000000000000000000000000000000000000000000000000000000000000000000000000000000000000000000000000000000000000000000000000000000000000000000000000000000000000000000000000000000000000000000000000000000000000000000000000000000000000000000000000000000000000000000000000000000000000000000000000000000000083020000018398968082dca48203e880a0231489eec464956e06a925289e04a92596e928e0b1e9c5ab3ab04cbda84824388890a4d3a7917147cef8c9f8c78001830927c0800ab87a6000600060006000600073c94f5374fce5edbc8e2a8697c15331677e6ebf0b61ea60f1506d64600c6000556000526005601bf360005273d94f5374fce5edbc8e2a8697c15331677e6ebf0bff6000600060006000600073d94f5374fce5edbc8e2a8697c15331677e6ebf0b61ea60f150600b600055600e6012f31ca054ca77a931f3b3592a33cc63442109a96241e2800362bd35628bd33e8442616fa0097b0eb289b78a9e8f96cc29ec18e79785f4ba70c62b2443208714429d5bba9bc0",
                "transactions" : [
                    {
                        "data" : "0x6000600060006000600073c94f5374fce5edbc8e2a8697c15331677e6ebf0b61ea60f1506d64600c6000556000526005601bf360005273d94f5374fce5edbc8e2a8697c15331677e6ebf0bff6000600060006000600073d94f5374fce5edbc8e2a8697c15331677e6ebf0b61ea60f150600b600055600e6012f3",
                        "gasLimit" : "0x0927c0",
                        "gasPrice" : "0x01",
                        "nonce" : "0x00",
                        "r" : "0x54ca77a931f3b3592a33cc63442109a96241e2800362bd35628bd33e8442616f",
                        "s" : "0x097b0eb289b78a9e8f96cc29ec18e79785f4ba70c62b2443208714429d5bba9b",
                        "to" : "",
                        "v" : "0x1c",
                        "value" : "0x0a"
                    }
                ],
                "uncleHeaders" : [
                ]
            }
        ],
        "genesisBlockHeader" : {
            "bloom" : "0x00000000000000000000000000000000000000000000000000000000000000000000000000000000000000000000000000000000000000000000000000000000000000000000000000000000000000000000000000000000000000000000000000000000000000000000000000000000000000000000000000000000000000000000000000000000000000000000000000000000000000000000000000000000000000000000000000000000000000000000000000000000000000000000000000000000000000000000000000000000000000000000000000000000000000000000000000000000000000000000000000000000000000000000000000000000",
            "coinbase" : "0x2adc25665018aa1fe0e6bc666dac8fc2697ff9ba",
            "difficulty" : "0x020000",
            "extraData" : "0x42",
            "gasLimit" : "0x989680",
            "gasUsed" : "0x00",
            "hash" : "0x22a3b256c62ab978461b83e260348b98dd19879f5943cd14956b0198a6f929c4",
            "mixHash" : "0x56e81f171bcc55a6ff8345e692c0f86e5b48e01b996cadc001622fb5e363b421",
            "nonce" : "0x0102030405060708",
            "number" : "0x00",
            "parentHash" : "0x0000000000000000000000000000000000000000000000000000000000000000",
            "receiptTrie" : "0x56e81f171bcc55a6ff8345e692c0f86e5b48e01b996cadc001622fb5e363b421",
            "stateRoot" : "0xa05d4be4210f29ee0297a4efe2428d8453ab907d765aea475519e92aec33a073",
            "timestamp" : "0x03b6",
            "transactionsTrie" : "0x56e81f171bcc55a6ff8345e692c0f86e5b48e01b996cadc001622fb5e363b421",
            "uncleHash" : "0x1dcc4de8dec75d7aab85b567b6ccd41ad312451b948a7413f0a142fd40d49347"
        },
        "genesisRLP" : "0xf901faf901f5a00000000000000000000000000000000000000000000000000000000000000000a01dcc4de8dec75d7aab85b567b6ccd41ad312451b948a7413f0a142fd40d49347942adc25665018aa1fe0e6bc666dac8fc2697ff9baa0a05d4be4210f29ee0297a4efe2428d8453ab907d765aea475519e92aec33a073a056e81f171bcc55a6ff8345e692c0f86e5b48e01b996cadc001622fb5e363b421a056e81f171bcc55a6ff8345e692c0f86e5b48e01b996cadc001622fb5e363b421b9010000000000000000000000000000000000000000000000000000000000000000000000000000000000000000000000000000000000000000000000000000000000000000000000000000000000000000000000000000000000000000000000000000000000000000000000000000000000000000000000000000000000000000000000000000000000000000000000000000000000000000000000000000000000000000000000000000000000000000000000000000000000000000000000000000000000000000000000000000000000000000000000000000000000000000000000000000000000000000000000000000000000000000000000000000000000830200008083989680808203b642a056e81f171bcc55a6ff8345e692c0f86e5b48e01b996cadc001622fb5e363b421880102030405060708c0c0",
        "lastblockhash" : "0xcc638c9239ad7ca4b75bf2fd1421f8ef249b1342963fd98dc689407cfb55d1fc",
        "network" : "Homestead",
        "postState" : {
            "0x2adc25665018aa1fe0e6bc666dac8fc2697ff9ba" : {
                "balance" : "0x4563918244f4dca4",
                "code" : "",
                "nonce" : "0x00",
                "storage" : {
                }
            },
            "0xa94f5374fce5edbc8e2a8697c15331677e6ebf0b" : {
                "balance" : "0xe8d4a43352",
                "code" : "",
                "nonce" : "0x01",
                "storage" : {
                }
            },
            "0xc94f5374fce5edbc8e2a8697c15331677e6ebf0b" : {
                "balance" : "0x00",
                "code" : "0x600c600155",
                "nonce" : "0x00",
                "storage" : {
                    "0x01" : "0x0c"
                }
            },
            "0xd94f5374fce5edbc8e2a8697c15331677e6ebf0b" : {
                "balance" : "0x0a",
                "code" : "0x600c600155",
                "nonce" : "0x00",
                "storage" : {
                }
            }
        },
        "pre" : {
            "0xa94f5374fce5edbc8e2a8697c15331677e6ebf0b" : {
                "balance" : "0xe8d4a51000",
                "code" : "",
                "nonce" : "0x00",
                "storage" : {
                }
            },
            "0xc94f5374fce5edbc8e2a8697c15331677e6ebf0b" : {
                "balance" : "0x00",
                "code" : "0x600c600155",
                "nonce" : "0x00",
                "storage" : {
                }
            },
            "0xd94f5374fce5edbc8e2a8697c15331677e6ebf0b" : {
                "balance" : "0x00",
                "code" : "0x600c600155",
                "nonce" : "0x00",
                "storage" : {
                }
            }
        }
    }
}