{
    "CREATE_ContractSuicideDuringInit_d0g0v0_Byzantium" : {
        "_info" : {
            "comment" : "",
            "filledwith" : "cpp-1.3.0+commit.6e0ce939.Linux.g++",
            "lllcversion" : "Version: 0.4.18-develop.2017.9.25+commit.a72237f2.Linux.g++",
            "source" : "src/BlockchainTestsFiller/GeneralStateTests/stCreateTest/CREATE_ContractSuicideDuringInit_d0g0v0Filler.json",
            "sourceHash" : "fea8aecb54abc15412afa6bdb5028d5fa498cae83bec87dd6ef9cfd99913e796"
        },
        "blocks" : [
            {
                "blockHeader" : {
                    "bloom" : "0x00000000000000000000000000000000000000000000000000000000000000000000000000000000000000000000000000000000000000000000000000000000000000000000000000000000000000000000000000000000000000000000000000000000000000000000000000000000000000000000000000000000000000000000000000000000000000000000000000000000000000000000000000000000000000000000000000000000000000000000000000000000000000000000000000000000000000000000000000000000000000000000000000000000000000000000000000000000000000000000000000000000000000000000000000000000",
                    "coinbase" : "0x2adc25665018aa1fe0e6bc666dac8fc2697ff9ba",
                    "difficulty" : "0x020000",
                    "extraData" : "",
                    "gasLimit" : "0x989680",
                    "gasUsed" : "0xe808",
                    "hash" : "0xb29125a08e74d0ea18c4304b689f739b753ab869ea4aea01d7d0fe6933e69043",
                    "mixHash" : "0x60f0c0c50c19de680be7e900beb57d8d29dc57825862f4f229db09e3f4f3e6b5",
                    "nonce" : "0x3e884f99ea8c9b84",
                    "number" : "0x01",
                    "parentHash" : "0x4d83dc015e592897771bad172517ba37205f05fb9de40b9a5aa7433e18f05af3",
                    "receiptTrie" : "0xf7d701300b4131d61524274eeb05e20f58235c7289cedd0e89330e9a54675e39",
                    "stateRoot" : "0x1bc40567254a4c449df54ad43fc78d2e296d97001c5497b426fc2e98fdb661d6",
                    "timestamp" : "0x03e8",
                    "transactionsTrie" : "0x30ff81e54324ce771265cf38d5fc3421d2d990613e4f69a4d566b345051e6beb",
                    "uncleHash" : "0x1dcc4de8dec75d7aab85b567b6ccd41ad312451b948a7413f0a142fd40d49347"
                },
                "rlp" : "0xf90297f901f7a04d83dc015e592897771bad172517ba37205f05fb9de40b9a5aa7433e18f05af3a01dcc4de8dec75d7aab85b567b6ccd41ad312451b948a7413f0a142fd40d49347942adc25665018aa1fe0e6bc666dac8fc2697ff9baa01bc40567254a4c449df54ad43fc78d2e296d97001c5497b426fc2e98fdb661d6a030ff81e54324ce771265cf38d5fc3421d2d990613e4f69a4d566b345051e6beba0f7d701300b4131d61524274eeb05e20f58235c7289cedd0e89330e9a54675e39b901000000000000000000000000000000000000000000000000000000000000000000000000000000000000000000000000000000000000000000000000000000000000000000000000000000000000000000000000000000000000000000000000000000000000000000000000000000000000000000000000000000000000000000000000000000000000000000000000000000000000000000000000000000000000000000000000000000000000000000000000000000000000000000000000000000000000000000000000000000000000000000000000000000000000000000000000000000000000000000000000000000000000000000000000000000000083020000018398968082e8088203e880a060f0c0c50c19de680be7e900beb57d8d29dc57825862f4f229db09e3f4f3e6b5883e884f99ea8c9b84f89af8988001830249f08080b84c6000600060006000600073c94f5374fce5edbc8e2a8697c15331677e6ebf0b61ea60f1506d64600c6000556000526005601bf360005273c94f5374fce5edbc8e2a8697c15331677e6ebf0bff1c9f98d0ca334067d304753b0b0878fcb6ad6645b920ec3a7917b00873ddc41b78a02c1af56035a8cebff67a179f68ecc296bd767edfd4bae89d624fdf79bfcf8a6cc0",
                "transactions" : [
                    {
                        "data" : "0x6000600060006000600073c94f5374fce5edbc8e2a8697c15331677e6ebf0b61ea60f1506d64600c6000556000526005601bf360005273c94f5374fce5edbc8e2a8697c15331677e6ebf0bff",
                        "gasLimit" : "0x0249f0",
                        "gasPrice" : "0x01",
                        "nonce" : "0x00",
                        "r" : "0x98d0ca334067d304753b0b0878fcb6ad6645b920ec3a7917b00873ddc41b78",
                        "s" : "0x2c1af56035a8cebff67a179f68ecc296bd767edfd4bae89d624fdf79bfcf8a6c",
                        "to" : "",
                        "v" : "0x1c",
                        "value" : "0x00"
                    }
                ],
                "uncleHeaders" : [
                ]
            }
        ],
        "genesisBlockHeader" : {
            "bloom" : "0x00000000000000000000000000000000000000000000000000000000000000000000000000000000000000000000000000000000000000000000000000000000000000000000000000000000000000000000000000000000000000000000000000000000000000000000000000000000000000000000000000000000000000000000000000000000000000000000000000000000000000000000000000000000000000000000000000000000000000000000000000000000000000000000000000000000000000000000000000000000000000000000000000000000000000000000000000000000000000000000000000000000000000000000000000000000",
            "coinbase" : "0x2adc25665018aa1fe0e6bc666dac8fc2697ff9ba",
            "difficulty" : "0x020000",
            "extraData" : "0x42",
            "gasLimit" : "0x989680",
            "gasUsed" : "0x00",
            "hash" : "0x4d83dc015e592897771bad172517ba37205f05fb9de40b9a5aa7433e18f05af3",
            "mixHash" : "0x56e81f171bcc55a6ff8345e692c0f86e5b48e01b996cadc001622fb5e363b421",
            "nonce" : "0x0102030405060708",
            "number" : "0x00",
            "parentHash" : "0x0000000000000000000000000000000000000000000000000000000000000000",
            "receiptTrie" : "0x56e81f171bcc55a6ff8345e692c0f86e5b48e01b996cadc001622fb5e363b421",
            "stateRoot" : "0x6d439e7238f7fd21e5b18582274817aa1fb3ecafc1654f4e729f59307b9f49d0",
            "timestamp" : "0x03b6",
            "transactionsTrie" : "0x56e81f171bcc55a6ff8345e692c0f86e5b48e01b996cadc001622fb5e363b421",
            "uncleHash" : "0x1dcc4de8dec75d7aab85b567b6ccd41ad312451b948a7413f0a142fd40d49347"
        },
        "genesisRLP" : "0xf901faf901f5a00000000000000000000000000000000000000000000000000000000000000000a01dcc4de8dec75d7aab85b567b6ccd41ad312451b948a7413f0a142fd40d49347942adc25665018aa1fe0e6bc666dac8fc2697ff9baa06d439e7238f7fd21e5b18582274817aa1fb3ecafc1654f4e729f59307b9f49d0a056e81f171bcc55a6ff8345e692c0f86e5b48e01b996cadc001622fb5e363b421a056e81f171bcc55a6ff8345e692c0f86e5b48e01b996cadc001622fb5e363b421b9010000000000000000000000000000000000000000000000000000000000000000000000000000000000000000000000000000000000000000000000000000000000000000000000000000000000000000000000000000000000000000000000000000000000000000000000000000000000000000000000000000000000000000000000000000000000000000000000000000000000000000000000000000000000000000000000000000000000000000000000000000000000000000000000000000000000000000000000000000000000000000000000000000000000000000000000000000000000000000000000000000000000000000000000000000000000830200008083989680808203b642a056e81f171bcc55a6ff8345e692c0f86e5b48e01b996cadc001622fb5e363b421880102030405060708c0c0",
        "lastblockhash" : "0xb29125a08e74d0ea18c4304b689f739b753ab869ea4aea01d7d0fe6933e69043",
        "network" : "Byzantium",
        "postState" : {
            "0x2adc25665018aa1fe0e6bc666dac8fc2697ff9ba" : {
                "balance" : "0x29a2241af62ce808",
                "code" : "",
                "nonce" : "0x00",
                "storage" : {
                }
            },
            "0xa94f5374fce5edbc8e2a8697c15331677e6ebf0b" : {
                "balance" : "0xe8d4a427f8",
                "code" : "",
                "nonce" : "0x01",
                "storage" : {
                }
            },
            "0xc94f5374fce5edbc8e2a8697c15331677e6ebf0b" : {
                "balance" : "0x00",
                "code" : "0x600c600155",
                "nonce" : "0x00",
                "storage" : {
                    "0x01" : "0x0c"
                }
            }
        },
        "pre" : {
            "0xa94f5374fce5edbc8e2a8697c15331677e6ebf0b" : {
                "balance" : "0xe8d4a51000",
                "code" : "",
                "nonce" : "0x00",
                "storage" : {
                }
            },
            "0xc94f5374fce5edbc8e2a8697c15331677e6ebf0b" : {
                "balance" : "0x00",
                "code" : "0x600c600155",
                "nonce" : "0x00",
                "storage" : {
                }
            }
        }
    },
    "CREATE_ContractSuicideDuringInit_d0g0v0_EIP150" : {
        "_info" : {
            "comment" : "",
            "filledwith" : "cpp-1.3.0+commit.6e0ce939.Linux.g++",
            "lllcversion" : "Version: 0.4.18-develop.2017.9.25+commit.a72237f2.Linux.g++",
            "source" : "src/BlockchainTestsFiller/GeneralStateTests/stCreateTest/CREATE_ContractSuicideDuringInit_d0g0v0Filler.json",
            "sourceHash" : "fea8aecb54abc15412afa6bdb5028d5fa498cae83bec87dd6ef9cfd99913e796"
        },
        "blocks" : [
            {
                "blockHeader" : {
                    "bloom" : "0x00000000000000000000000000000000000000000000000000000000000000000000000000000000000000000000000000000000000000000000000000000000000000000000000000000000000000000000000000000000000000000000000000000000000000000000000000000000000000000000000000000000000000000000000000000000000000000000000000000000000000000000000000000000000000000000000000000000000000000000000000000000000000000000000000000000000000000000000000000000000000000000000000000000000000000000000000000000000000000000000000000000000000000000000000000000",
                    "coinbase" : "0x2adc25665018aa1fe0e6bc666dac8fc2697ff9ba",
                    "difficulty" : "0x020000",
                    "extraData" : "",
                    "gasLimit" : "0x989680",
                    "gasUsed" : "0xe808",
                    "hash" : "0x2ac3d912fecee6a277ae0003fd639d744180589c4246d39852ace1e8fa645ae5",
                    "mixHash" : "0x86088f5446f1750bfb1f66a2895c64c7377a12ab94a15fbaa99d2a54bf53cb0f",
                    "nonce" : "0x3543b31301a0222d",
                    "number" : "0x01",
                    "parentHash" : "0x4d83dc015e592897771bad172517ba37205f05fb9de40b9a5aa7433e18f05af3",
                    "receiptTrie" : "0x5d54d07fc62b70335c6a2c709bd11de3870b5c3d851b290ee3bedb0e51cd2117",
                    "stateRoot" : "0x9c9e78c4e50201e53f4be415682635248a6bd4c8a79e8a10719561a9a16302b3",
                    "timestamp" : "0x03e8",
                    "transactionsTrie" : "0x30ff81e54324ce771265cf38d5fc3421d2d990613e4f69a4d566b345051e6beb",
                    "uncleHash" : "0x1dcc4de8dec75d7aab85b567b6ccd41ad312451b948a7413f0a142fd40d49347"
                },
                "rlp" : "0xf90297f901f7a04d83dc015e592897771bad172517ba37205f05fb9de40b9a5aa7433e18f05af3a01dcc4de8dec75d7aab85b567b6ccd41ad312451b948a7413f0a142fd40d49347942adc25665018aa1fe0e6bc666dac8fc2697ff9baa09c9e78c4e50201e53f4be415682635248a6bd4c8a79e8a10719561a9a16302b3a030ff81e54324ce771265cf38d5fc3421d2d990613e4f69a4d566b345051e6beba05d54d07fc62b70335c6a2c709bd11de3870b5c3d851b290ee3bedb0e51cd2117b901000000000000000000000000000000000000000000000000000000000000000000000000000000000000000000000000000000000000000000000000000000000000000000000000000000000000000000000000000000000000000000000000000000000000000000000000000000000000000000000000000000000000000000000000000000000000000000000000000000000000000000000000000000000000000000000000000000000000000000000000000000000000000000000000000000000000000000000000000000000000000000000000000000000000000000000000000000000000000000000000000000000000000000000000000000000083020000018398968082e8088203e880a086088f5446f1750bfb1f66a2895c64c7377a12ab94a15fbaa99d2a54bf53cb0f883543b31301a0222df89af8988001830249f08080b84c6000600060006000600073c94f5374fce5edbc8e2a8697c15331677e6ebf0b61ea60f1506d64600c6000556000526005601bf360005273c94f5374fce5edbc8e2a8697c15331677e6ebf0bff1c9f98d0ca334067d304753b0b0878fcb6ad6645b920ec3a7917b00873ddc41b78a02c1af56035a8cebff67a179f68ecc296bd767edfd4bae89d624fdf79bfcf8a6cc0",
                "transactions" : [
                    {
                        "data" : "0x6000600060006000600073c94f5374fce5edbc8e2a8697c15331677e6ebf0b61ea60f1506d64600c6000556000526005601bf360005273c94f5374fce5edbc8e2a8697c15331677e6ebf0bff",
                        "gasLimit" : "0x0249f0",
                        "gasPrice" : "0x01",
                        "nonce" : "0x00",
                        "r" : "0x98d0ca334067d304753b0b0878fcb6ad6645b920ec3a7917b00873ddc41b78",
                        "s" : "0x2c1af56035a8cebff67a179f68ecc296bd767edfd4bae89d624fdf79bfcf8a6c",
                        "to" : "",
                        "v" : "0x1c",
                        "value" : "0x00"
                    }
                ],
                "uncleHeaders" : [
                ]
            }
        ],
        "genesisBlockHeader" : {
            "bloom" : "0x00000000000000000000000000000000000000000000000000000000000000000000000000000000000000000000000000000000000000000000000000000000000000000000000000000000000000000000000000000000000000000000000000000000000000000000000000000000000000000000000000000000000000000000000000000000000000000000000000000000000000000000000000000000000000000000000000000000000000000000000000000000000000000000000000000000000000000000000000000000000000000000000000000000000000000000000000000000000000000000000000000000000000000000000000000000",
            "coinbase" : "0x2adc25665018aa1fe0e6bc666dac8fc2697ff9ba",
            "difficulty" : "0x020000",
            "extraData" : "0x42",
            "gasLimit" : "0x989680",
            "gasUsed" : "0x00",
            "hash" : "0x4d83dc015e592897771bad172517ba37205f05fb9de40b9a5aa7433e18f05af3",
            "mixHash" : "0x56e81f171bcc55a6ff8345e692c0f86e5b48e01b996cadc001622fb5e363b421",
            "nonce" : "0x0102030405060708",
            "number" : "0x00",
            "parentHash" : "0x0000000000000000000000000000000000000000000000000000000000000000",
            "receiptTrie" : "0x56e81f171bcc55a6ff8345e692c0f86e5b48e01b996cadc001622fb5e363b421",
            "stateRoot" : "0x6d439e7238f7fd21e5b18582274817aa1fb3ecafc1654f4e729f59307b9f49d0",
            "timestamp" : "0x03b6",
            "transactionsTrie" : "0x56e81f171bcc55a6ff8345e692c0f86e5b48e01b996cadc001622fb5e363b421",
            "uncleHash" : "0x1dcc4de8dec75d7aab85b567b6ccd41ad312451b948a7413f0a142fd40d49347"
        },
        "genesisRLP" : "0xf901faf901f5a00000000000000000000000000000000000000000000000000000000000000000a01dcc4de8dec75d7aab85b567b6ccd41ad312451b948a7413f0a142fd40d49347942adc25665018aa1fe0e6bc666dac8fc2697ff9baa06d439e7238f7fd21e5b18582274817aa1fb3ecafc1654f4e729f59307b9f49d0a056e81f171bcc55a6ff8345e692c0f86e5b48e01b996cadc001622fb5e363b421a056e81f171bcc55a6ff8345e692c0f86e5b48e01b996cadc001622fb5e363b421b9010000000000000000000000000000000000000000000000000000000000000000000000000000000000000000000000000000000000000000000000000000000000000000000000000000000000000000000000000000000000000000000000000000000000000000000000000000000000000000000000000000000000000000000000000000000000000000000000000000000000000000000000000000000000000000000000000000000000000000000000000000000000000000000000000000000000000000000000000000000000000000000000000000000000000000000000000000000000000000000000000000000000000000000000000000000000830200008083989680808203b642a056e81f171bcc55a6ff8345e692c0f86e5b48e01b996cadc001622fb5e363b421880102030405060708c0c0",
        "lastblockhash" : "0x2ac3d912fecee6a277ae0003fd639d744180589c4246d39852ace1e8fa645ae5",
        "network" : "EIP150",
        "postState" : {
            "0x2adc25665018aa1fe0e6bc666dac8fc2697ff9ba" : {
                "balance" : "0x4563918244f4e808",
                "code" : "",
                "nonce" : "0x00",
                "storage" : {
                }
            },
            "0xa94f5374fce5edbc8e2a8697c15331677e6ebf0b" : {
                "balance" : "0xe8d4a427f8",
                "code" : "",
                "nonce" : "0x01",
                "storage" : {
                }
            },
            "0xc94f5374fce5edbc8e2a8697c15331677e6ebf0b" : {
                "balance" : "0x00",
                "code" : "0x600c600155",
                "nonce" : "0x00",
                "storage" : {
                    "0x01" : "0x0c"
                }
            }
        },
        "pre" : {
            "0xa94f5374fce5edbc8e2a8697c15331677e6ebf0b" : {
                "balance" : "0xe8d4a51000",
                "code" : "",
                "nonce" : "0x00",
                "storage" : {
                }
            },
            "0xc94f5374fce5edbc8e2a8697c15331677e6ebf0b" : {
                "balance" : "0x00",
                "code" : "0x600c600155",
                "nonce" : "0x00",
                "storage" : {
                }
            }
        }
    },
    "CREATE_ContractSuicideDuringInit_d0g0v0_EIP158" : {
        "_info" : {
            "comment" : "",
            "filledwith" : "cpp-1.3.0+commit.6e0ce939.Linux.g++",
            "lllcversion" : "Version: 0.4.18-develop.2017.9.25+commit.a72237f2.Linux.g++",
            "source" : "src/BlockchainTestsFiller/GeneralStateTests/stCreateTest/CREATE_ContractSuicideDuringInit_d0g0v0Filler.json",
            "sourceHash" : "fea8aecb54abc15412afa6bdb5028d5fa498cae83bec87dd6ef9cfd99913e796"
        },
        "blocks" : [
            {
                "blockHeader" : {
                    "bloom" : "0x00000000000000000000000000000000000000000000000000000000000000000000000000000000000000000000000000000000000000000000000000000000000000000000000000000000000000000000000000000000000000000000000000000000000000000000000000000000000000000000000000000000000000000000000000000000000000000000000000000000000000000000000000000000000000000000000000000000000000000000000000000000000000000000000000000000000000000000000000000000000000000000000000000000000000000000000000000000000000000000000000000000000000000000000000000000",
                    "coinbase" : "0x2adc25665018aa1fe0e6bc666dac8fc2697ff9ba",
                    "difficulty" : "0x020000",
                    "extraData" : "",
                    "gasLimit" : "0x989680",
                    "gasUsed" : "0xe808",
                    "hash" : "0xbd414ff1e51394458d35d5328abb72dcc18654005c900b6eeb55f99fd97a5b6f",
                    "mixHash" : "0x9f5ea05c679fd4b07ebae26bc3037bc17febfbe4e4a64785f3501fcd0b19b96f",
                    "nonce" : "0x19c4337b4a4ce6da",
                    "number" : "0x01",
                    "parentHash" : "0x4d83dc015e592897771bad172517ba37205f05fb9de40b9a5aa7433e18f05af3",
                    "receiptTrie" : "0x5d54d07fc62b70335c6a2c709bd11de3870b5c3d851b290ee3bedb0e51cd2117",
                    "stateRoot" : "0x9c9e78c4e50201e53f4be415682635248a6bd4c8a79e8a10719561a9a16302b3",
                    "timestamp" : "0x03e8",
                    "transactionsTrie" : "0x30ff81e54324ce771265cf38d5fc3421d2d990613e4f69a4d566b345051e6beb",
                    "uncleHash" : "0x1dcc4de8dec75d7aab85b567b6ccd41ad312451b948a7413f0a142fd40d49347"
                },
                "rlp" : "0xf90297f901f7a04d83dc015e592897771bad172517ba37205f05fb9de40b9a5aa7433e18f05af3a01dcc4de8dec75d7aab85b567b6ccd41ad312451b948a7413f0a142fd40d49347942adc25665018aa1fe0e6bc666dac8fc2697ff9baa09c9e78c4e50201e53f4be415682635248a6bd4c8a79e8a10719561a9a16302b3a030ff81e54324ce771265cf38d5fc3421d2d990613e4f69a4d566b345051e6beba05d54d07fc62b70335c6a2c709bd11de3870b5c3d851b290ee3bedb0e51cd2117b901000000000000000000000000000000000000000000000000000000000000000000000000000000000000000000000000000000000000000000000000000000000000000000000000000000000000000000000000000000000000000000000000000000000000000000000000000000000000000000000000000000000000000000000000000000000000000000000000000000000000000000000000000000000000000000000000000000000000000000000000000000000000000000000000000000000000000000000000000000000000000000000000000000000000000000000000000000000000000000000000000000000000000000000000000000000083020000018398968082e8088203e880a09f5ea05c679fd4b07ebae26bc3037bc17febfbe4e4a64785f3501fcd0b19b96f8819c4337b4a4ce6daf89af8988001830249f08080b84c6000600060006000600073c94f5374fce5edbc8e2a8697c15331677e6ebf0b61ea60f1506d64600c6000556000526005601bf360005273c94f5374fce5edbc8e2a8697c15331677e6ebf0bff1c9f98d0ca334067d304753b0b0878fcb6ad6645b920ec3a7917b00873ddc41b78a02c1af56035a8cebff67a179f68ecc296bd767edfd4bae89d624fdf79bfcf8a6cc0",
                "transactions" : [
                    {
                        "data" : "0x6000600060006000600073c94f5374fce5edbc8e2a8697c15331677e6ebf0b61ea60f1506d64600c6000556000526005601bf360005273c94f5374fce5edbc8e2a8697c15331677e6ebf0bff",
                        "gasLimit" : "0x0249f0",
                        "gasPrice" : "0x01",
                        "nonce" : "0x00",
                        "r" : "0x98d0ca334067d304753b0b0878fcb6ad6645b920ec3a7917b00873ddc41b78",
                        "s" : "0x2c1af56035a8cebff67a179f68ecc296bd767edfd4bae89d624fdf79bfcf8a6c",
                        "to" : "",
                        "v" : "0x1c",
                        "value" : "0x00"
                    }
                ],
                "uncleHeaders" : [
                ]
            }
        ],
        "genesisBlockHeader" : {
            "bloom" : "0x00000000000000000000000000000000000000000000000000000000000000000000000000000000000000000000000000000000000000000000000000000000000000000000000000000000000000000000000000000000000000000000000000000000000000000000000000000000000000000000000000000000000000000000000000000000000000000000000000000000000000000000000000000000000000000000000000000000000000000000000000000000000000000000000000000000000000000000000000000000000000000000000000000000000000000000000000000000000000000000000000000000000000000000000000000000",
            "coinbase" : "0x2adc25665018aa1fe0e6bc666dac8fc2697ff9ba",
            "difficulty" : "0x020000",
            "extraData" : "0x42",
            "gasLimit" : "0x989680",
            "gasUsed" : "0x00",
            "hash" : "0x4d83dc015e592897771bad172517ba37205f05fb9de40b9a5aa7433e18f05af3",
            "mixHash" : "0x56e81f171bcc55a6ff8345e692c0f86e5b48e01b996cadc001622fb5e363b421",
            "nonce" : "0x0102030405060708",
            "number" : "0x00",
            "parentHash" : "0x0000000000000000000000000000000000000000000000000000000000000000",
            "receiptTrie" : "0x56e81f171bcc55a6ff8345e692c0f86e5b48e01b996cadc001622fb5e363b421",
            "stateRoot" : "0x6d439e7238f7fd21e5b18582274817aa1fb3ecafc1654f4e729f59307b9f49d0",
            "timestamp" : "0x03b6",
            "transactionsTrie" : "0x56e81f171bcc55a6ff8345e692c0f86e5b48e01b996cadc001622fb5e363b421",
            "uncleHash" : "0x1dcc4de8dec75d7aab85b567b6ccd41ad312451b948a7413f0a142fd40d49347"
        },
        "genesisRLP" : "0xf901faf901f5a00000000000000000000000000000000000000000000000000000000000000000a01dcc4de8dec75d7aab85b567b6ccd41ad312451b948a7413f0a142fd40d49347942adc25665018aa1fe0e6bc666dac8fc2697ff9baa06d439e7238f7fd21e5b18582274817aa1fb3ecafc1654f4e729f59307b9f49d0a056e81f171bcc55a6ff8345e692c0f86e5b48e01b996cadc001622fb5e363b421a056e81f171bcc55a6ff8345e692c0f86e5b48e01b996cadc001622fb5e363b421b9010000000000000000000000000000000000000000000000000000000000000000000000000000000000000000000000000000000000000000000000000000000000000000000000000000000000000000000000000000000000000000000000000000000000000000000000000000000000000000000000000000000000000000000000000000000000000000000000000000000000000000000000000000000000000000000000000000000000000000000000000000000000000000000000000000000000000000000000000000000000000000000000000000000000000000000000000000000000000000000000000000000000000000000000000000000000830200008083989680808203b642a056e81f171bcc55a6ff8345e692c0f86e5b48e01b996cadc001622fb5e363b421880102030405060708c0c0",
        "lastblockhash" : "0xbd414ff1e51394458d35d5328abb72dcc18654005c900b6eeb55f99fd97a5b6f",
        "network" : "EIP158",
        "postState" : {
            "0x2adc25665018aa1fe0e6bc666dac8fc2697ff9ba" : {
                "balance" : "0x4563918244f4e808",
                "code" : "",
                "nonce" : "0x00",
                "storage" : {
                }
            },
            "0xa94f5374fce5edbc8e2a8697c15331677e6ebf0b" : {
                "balance" : "0xe8d4a427f8",
                "code" : "",
                "nonce" : "0x01",
                "storage" : {
                }
            },
            "0xc94f5374fce5edbc8e2a8697c15331677e6ebf0b" : {
                "balance" : "0x00",
                "code" : "0x600c600155",
                "nonce" : "0x00",
                "storage" : {
                    "0x01" : "0x0c"
                }
            }
        },
        "pre" : {
            "0xa94f5374fce5edbc8e2a8697c15331677e6ebf0b" : {
                "balance" : "0xe8d4a51000",
                "code" : "",
                "nonce" : "0x00",
                "storage" : {
                }
            },
            "0xc94f5374fce5edbc8e2a8697c15331677e6ebf0b" : {
                "balance" : "0x00",
                "code" : "0x600c600155",
                "nonce" : "0x00",
                "storage" : {
                }
            }
        }
    },
    "CREATE_ContractSuicideDuringInit_d0g0v0_Frontier" : {
        "_info" : {
            "comment" : "",
            "filledwith" : "cpp-1.3.0+commit.6e0ce939.Linux.g++",
            "lllcversion" : "Version: 0.4.18-develop.2017.9.25+commit.a72237f2.Linux.g++",
            "source" : "src/BlockchainTestsFiller/GeneralStateTests/stCreateTest/CREATE_ContractSuicideDuringInit_d0g0v0Filler.json",
            "sourceHash" : "fea8aecb54abc15412afa6bdb5028d5fa498cae83bec87dd6ef9cfd99913e796"
        },
        "blocks" : [
            {
                "blockHeader" : {
                    "bloom" : "0x00000000000000000000000000000000000000000000000000000000000000000000000000000000000000000000000000000000000000000000000000000000000000000000000000000000000000000000000000000000000000000000000000000000000000000000000000000000000000000000000000000000000000000000000000000000000000000000000000000000000000000000000000000000000000000000000000000000000000000000000000000000000000000000000000000000000000000000000000000000000000000000000000000000000000000000000000000000000000000000000000000000000000000000000000000000",
                    "coinbase" : "0x2adc25665018aa1fe0e6bc666dac8fc2697ff9ba",
                    "difficulty" : "0x020000",
                    "extraData" : "",
                    "gasLimit" : "0x989680",
                    "gasUsed" : "0x5956",
                    "hash" : "0xd54ba0c45b39011aeeaa3808092734709fadec240be1c6cfa54fbe6912acc9a2",
                    "mixHash" : "0xc1734ea8f6374ce33786471cb8a9c301e2e009958625ee376e70b5203d5decbd",
                    "nonce" : "0xe1df86bf18f50ab4",
                    "number" : "0x01",
                    "parentHash" : "0x4d83dc015e592897771bad172517ba37205f05fb9de40b9a5aa7433e18f05af3",
                    "receiptTrie" : "0x0d5a23ef00eaff40d5be47d87c914d8afc8ba5605f66804120e2e1d2aeb81ab2",
                    "stateRoot" : "0x3fc1846c324dc0c46c4a104f55030f8199aff5631c1b907a6da71bee818df5c5",
                    "timestamp" : "0x03e8",
                    "transactionsTrie" : "0x30ff81e54324ce771265cf38d5fc3421d2d990613e4f69a4d566b345051e6beb",
                    "uncleHash" : "0x1dcc4de8dec75d7aab85b567b6ccd41ad312451b948a7413f0a142fd40d49347"
                },
                "rlp" : "0xf90297f901f7a04d83dc015e592897771bad172517ba37205f05fb9de40b9a5aa7433e18f05af3a01dcc4de8dec75d7aab85b567b6ccd41ad312451b948a7413f0a142fd40d49347942adc25665018aa1fe0e6bc666dac8fc2697ff9baa03fc1846c324dc0c46c4a104f55030f8199aff5631c1b907a6da71bee818df5c5a030ff81e54324ce771265cf38d5fc3421d2d990613e4f69a4d566b345051e6beba00d5a23ef00eaff40d5be47d87c914d8afc8ba5605f66804120e2e1d2aeb81ab2b90100000000000000000000000000000000000000000000000000000000000000000000000000000000000000000000000000000000000000000000000000000000000000000000000000000000000000000000000000000000000000000000000000000000000000000000000000000000000000000000000000000000000000000000000000000000000000000000000000000000000000000000000000000000000000000000000000000000000000000000000000000000000000000000000000000000000000000000000000000000000000000000000000000000000000000000000000000000000000000000000000000000000000000000000000000000008302000001839896808259568203e880a0c1734ea8f6374ce33786471cb8a9c301e2e009958625ee376e70b5203d5decbd88e1df86bf18f50ab4f89af8988001830249f08080b84c6000600060006000600073c94f5374fce5edbc8e2a8697c15331677e6ebf0b61ea60f1506d64600c6000556000526005601bf360005273c94f5374fce5edbc8e2a8697c15331677e6ebf0bff1c9f98d0ca334067d304753b0b0878fcb6ad6645b920ec3a7917b00873ddc41b78a02c1af56035a8cebff67a179f68ecc296bd767edfd4bae89d624fdf79bfcf8a6cc0",
                "transactions" : [
                    {
                        "data" : "0x6000600060006000600073c94f5374fce5edbc8e2a8697c15331677e6ebf0b61ea60f1506d64600c6000556000526005601bf360005273c94f5374fce5edbc8e2a8697c15331677e6ebf0bff",
                        "gasLimit" : "0x0249f0",
                        "gasPrice" : "0x01",
                        "nonce" : "0x00",
                        "r" : "0x98d0ca334067d304753b0b0878fcb6ad6645b920ec3a7917b00873ddc41b78",
                        "s" : "0x2c1af56035a8cebff67a179f68ecc296bd767edfd4bae89d624fdf79bfcf8a6c",
                        "to" : "",
                        "v" : "0x1c",
                        "value" : "0x00"
                    }
                ],
                "uncleHeaders" : [
                ]
            }
        ],
        "genesisBlockHeader" : {
            "bloom" : "0x00000000000000000000000000000000000000000000000000000000000000000000000000000000000000000000000000000000000000000000000000000000000000000000000000000000000000000000000000000000000000000000000000000000000000000000000000000000000000000000000000000000000000000000000000000000000000000000000000000000000000000000000000000000000000000000000000000000000000000000000000000000000000000000000000000000000000000000000000000000000000000000000000000000000000000000000000000000000000000000000000000000000000000000000000000000",
            "coinbase" : "0x2adc25665018aa1fe0e6bc666dac8fc2697ff9ba",
            "difficulty" : "0x020000",
            "extraData" : "0x42",
            "gasLimit" : "0x989680",
            "gasUsed" : "0x00",
            "hash" : "0x4d83dc015e592897771bad172517ba37205f05fb9de40b9a5aa7433e18f05af3",
            "mixHash" : "0x56e81f171bcc55a6ff8345e692c0f86e5b48e01b996cadc001622fb5e363b421",
            "nonce" : "0x0102030405060708",
            "number" : "0x00",
            "parentHash" : "0x0000000000000000000000000000000000000000000000000000000000000000",
            "receiptTrie" : "0x56e81f171bcc55a6ff8345e692c0f86e5b48e01b996cadc001622fb5e363b421",
            "stateRoot" : "0x6d439e7238f7fd21e5b18582274817aa1fb3ecafc1654f4e729f59307b9f49d0",
            "timestamp" : "0x03b6",
            "transactionsTrie" : "0x56e81f171bcc55a6ff8345e692c0f86e5b48e01b996cadc001622fb5e363b421",
            "uncleHash" : "0x1dcc4de8dec75d7aab85b567b6ccd41ad312451b948a7413f0a142fd40d49347"
        },
        "genesisRLP" : "0xf901faf901f5a00000000000000000000000000000000000000000000000000000000000000000a01dcc4de8dec75d7aab85b567b6ccd41ad312451b948a7413f0a142fd40d49347942adc25665018aa1fe0e6bc666dac8fc2697ff9baa06d439e7238f7fd21e5b18582274817aa1fb3ecafc1654f4e729f59307b9f49d0a056e81f171bcc55a6ff8345e692c0f86e5b48e01b996cadc001622fb5e363b421a056e81f171bcc55a6ff8345e692c0f86e5b48e01b996cadc001622fb5e363b421b9010000000000000000000000000000000000000000000000000000000000000000000000000000000000000000000000000000000000000000000000000000000000000000000000000000000000000000000000000000000000000000000000000000000000000000000000000000000000000000000000000000000000000000000000000000000000000000000000000000000000000000000000000000000000000000000000000000000000000000000000000000000000000000000000000000000000000000000000000000000000000000000000000000000000000000000000000000000000000000000000000000000000000000000000000000000000830200008083989680808203b642a056e81f171bcc55a6ff8345e692c0f86e5b48e01b996cadc001622fb5e363b421880102030405060708c0c0",
        "lastblockhash" : "0xd54ba0c45b39011aeeaa3808092734709fadec240be1c6cfa54fbe6912acc9a2",
        "network" : "Frontier",
        "postState" : {
            "0x2adc25665018aa1fe0e6bc666dac8fc2697ff9ba" : {
                "balance" : "0x4563918244f45956",
                "code" : "",
                "nonce" : "0x00",
                "storage" : {
                }
            },
            "0xa94f5374fce5edbc8e2a8697c15331677e6ebf0b" : {
                "balance" : "0xe8d4a4b6aa",
                "code" : "",
                "nonce" : "0x01",
                "storage" : {
                }
            },
            "0xc94f5374fce5edbc8e2a8697c15331677e6ebf0b" : {
                "balance" : "0x00",
                "code" : "0x600c600155",
                "nonce" : "0x00",
                "storage" : {
                    "0x01" : "0x0c"
                }
            }
        },
        "pre" : {
            "0xa94f5374fce5edbc8e2a8697c15331677e6ebf0b" : {
                "balance" : "0xe8d4a51000",
                "code" : "",
                "nonce" : "0x00",
                "storage" : {
                }
            },
            "0xc94f5374fce5edbc8e2a8697c15331677e6ebf0b" : {
                "balance" : "0x00",
                "code" : "0x600c600155",
                "nonce" : "0x00",
                "storage" : {
                }
            }
        }
    },
    "CREATE_ContractSuicideDuringInit_d0g0v0_Homestead" : {
        "_info" : {
            "comment" : "",
            "filledwith" : "cpp-1.3.0+commit.6e0ce939.Linux.g++",
            "lllcversion" : "Version: 0.4.18-develop.2017.9.25+commit.a72237f2.Linux.g++",
            "source" : "src/BlockchainTestsFiller/GeneralStateTests/stCreateTest/CREATE_ContractSuicideDuringInit_d0g0v0Filler.json",
            "sourceHash" : "fea8aecb54abc15412afa6bdb5028d5fa498cae83bec87dd6ef9cfd99913e796"
        },
        "blocks" : [
            {
                "blockHeader" : {
                    "bloom" : "0x00000000000000000000000000000000000000000000000000000000000000000000000000000000000000000000000000000000000000000000000000000000000000000000000000000000000000000000000000000000000000000000000000000000000000000000000000000000000000000000000000000000000000000000000000000000000000000000000000000000000000000000000000000000000000000000000000000000000000000000000000000000000000000000000000000000000000000000000000000000000000000000000000000000000000000000000000000000000000000000000000000000000000000000000000000000",
                    "coinbase" : "0x2adc25665018aa1fe0e6bc666dac8fc2697ff9ba",
                    "difficulty" : "0x020000",
                    "extraData" : "",
                    "gasLimit" : "0x989680",
                    "gasUsed" : "0xd1ec",
                    "hash" : "0x47eb9a33a21489acf849819bd9d0e33e675ba3e1ea309e466824b086e2485cd2",
                    "mixHash" : "0x8742d92a462d9541d0902358435c6e87c6350d5c52b2a0bfc985af94687066f5",
                    "nonce" : "0x1f9021a0ac57a2ba",
                    "number" : "0x01",
                    "parentHash" : "0x4d83dc015e592897771bad172517ba37205f05fb9de40b9a5aa7433e18f05af3",
                    "receiptTrie" : "0x8a2664658de7cbc43ae3bc1d3beb86ebea18ae9eeae1aebe0fe5eac37506f19f",
                    "stateRoot" : "0x38688d1cdf23352aca07da019cd8ede3a51f12e4231d3688a247a78736e85ced",
                    "timestamp" : "0x03e8",
                    "transactionsTrie" : "0x30ff81e54324ce771265cf38d5fc3421d2d990613e4f69a4d566b345051e6beb",
                    "uncleHash" : "0x1dcc4de8dec75d7aab85b567b6ccd41ad312451b948a7413f0a142fd40d49347"
                },
                "rlp" : "0xf90297f901f7a04d83dc015e592897771bad172517ba37205f05fb9de40b9a5aa7433e18f05af3a01dcc4de8dec75d7aab85b567b6ccd41ad312451b948a7413f0a142fd40d49347942adc25665018aa1fe0e6bc666dac8fc2697ff9baa038688d1cdf23352aca07da019cd8ede3a51f12e4231d3688a247a78736e85ceda030ff81e54324ce771265cf38d5fc3421d2d990613e4f69a4d566b345051e6beba08a2664658de7cbc43ae3bc1d3beb86ebea18ae9eeae1aebe0fe5eac37506f19fb901000000000000000000000000000000000000000000000000000000000000000000000000000000000000000000000000000000000000000000000000000000000000000000000000000000000000000000000000000000000000000000000000000000000000000000000000000000000000000000000000000000000000000000000000000000000000000000000000000000000000000000000000000000000000000000000000000000000000000000000000000000000000000000000000000000000000000000000000000000000000000000000000000000000000000000000000000000000000000000000000000000000000000000000000000000000083020000018398968082d1ec8203e880a08742d92a462d9541d0902358435c6e87c6350d5c52b2a0bfc985af94687066f5881f9021a0ac57a2baf89af8988001830249f08080b84c6000600060006000600073c94f5374fce5edbc8e2a8697c15331677e6ebf0b61ea60f1506d64600c6000556000526005601bf360005273c94f5374fce5edbc8e2a8697c15331677e6ebf0bff1c9f98d0ca334067d304753b0b0878fcb6ad6645b920ec3a7917b00873ddc41b78a02c1af56035a8cebff67a179f68ecc296bd767edfd4bae89d624fdf79bfcf8a6cc0",
                "transactions" : [
                    {
                        "data" : "0x6000600060006000600073c94f5374fce5edbc8e2a8697c15331677e6ebf0b61ea60f1506d64600c6000556000526005601bf360005273c94f5374fce5edbc8e2a8697c15331677e6ebf0bff",
                        "gasLimit" : "0x0249f0",
                        "gasPrice" : "0x01",
                        "nonce" : "0x00",
                        "r" : "0x98d0ca334067d304753b0b0878fcb6ad6645b920ec3a7917b00873ddc41b78",
                        "s" : "0x2c1af56035a8cebff67a179f68ecc296bd767edfd4bae89d624fdf79bfcf8a6c",
                        "to" : "",
                        "v" : "0x1c",
                        "value" : "0x00"
                    }
                ],
                "uncleHeaders" : [
                ]
            }
        ],
        "genesisBlockHeader" : {
            "bloom" : "0x00000000000000000000000000000000000000000000000000000000000000000000000000000000000000000000000000000000000000000000000000000000000000000000000000000000000000000000000000000000000000000000000000000000000000000000000000000000000000000000000000000000000000000000000000000000000000000000000000000000000000000000000000000000000000000000000000000000000000000000000000000000000000000000000000000000000000000000000000000000000000000000000000000000000000000000000000000000000000000000000000000000000000000000000000000000",
            "coinbase" : "0x2adc25665018aa1fe0e6bc666dac8fc2697ff9ba",
            "difficulty" : "0x020000",
            "extraData" : "0x42",
            "gasLimit" : "0x989680",
            "gasUsed" : "0x00",
            "hash" : "0x4d83dc015e592897771bad172517ba37205f05fb9de40b9a5aa7433e18f05af3",
            "mixHash" : "0x56e81f171bcc55a6ff8345e692c0f86e5b48e01b996cadc001622fb5e363b421",
            "nonce" : "0x0102030405060708",
            "number" : "0x00",
            "parentHash" : "0x0000000000000000000000000000000000000000000000000000000000000000",
            "receiptTrie" : "0x56e81f171bcc55a6ff8345e692c0f86e5b48e01b996cadc001622fb5e363b421",
            "stateRoot" : "0x6d439e7238f7fd21e5b18582274817aa1fb3ecafc1654f4e729f59307b9f49d0",
            "timestamp" : "0x03b6",
            "transactionsTrie" : "0x56e81f171bcc55a6ff8345e692c0f86e5b48e01b996cadc001622fb5e363b421",
            "uncleHash" : "0x1dcc4de8dec75d7aab85b567b6ccd41ad312451b948a7413f0a142fd40d49347"
        },
        "genesisRLP" : "0xf901faf901f5a00000000000000000000000000000000000000000000000000000000000000000a01dcc4de8dec75d7aab85b567b6ccd41ad312451b948a7413f0a142fd40d49347942adc25665018aa1fe0e6bc666dac8fc2697ff9baa06d439e7238f7fd21e5b18582274817aa1fb3ecafc1654f4e729f59307b9f49d0a056e81f171bcc55a6ff8345e692c0f86e5b48e01b996cadc001622fb5e363b421a056e81f171bcc55a6ff8345e692c0f86e5b48e01b996cadc001622fb5e363b421b9010000000000000000000000000000000000000000000000000000000000000000000000000000000000000000000000000000000000000000000000000000000000000000000000000000000000000000000000000000000000000000000000000000000000000000000000000000000000000000000000000000000000000000000000000000000000000000000000000000000000000000000000000000000000000000000000000000000000000000000000000000000000000000000000000000000000000000000000000000000000000000000000000000000000000000000000000000000000000000000000000000000000000000000000000000000000830200008083989680808203b642a056e81f171bcc55a6ff8345e692c0f86e5b48e01b996cadc001622fb5e363b421880102030405060708c0c0",
        "lastblockhash" : "0x47eb9a33a21489acf849819bd9d0e33e675ba3e1ea309e466824b086e2485cd2",
        "network" : "Homestead",
        "postState" : {
            "0x2adc25665018aa1fe0e6bc666dac8fc2697ff9ba" : {
                "balance" : "0x4563918244f4d1ec",
                "code" : "",
                "nonce" : "0x00",
                "storage" : {
                }
            },
            "0xa94f5374fce5edbc8e2a8697c15331677e6ebf0b" : {
                "balance" : "0xe8d4a43e14",
                "code" : "",
                "nonce" : "0x01",
                "storage" : {
                }
            },
            "0xc94f5374fce5edbc8e2a8697c15331677e6ebf0b" : {
                "balance" : "0x00",
                "code" : "0x600c600155",
                "nonce" : "0x00",
                "storage" : {
                    "0x01" : "0x0c"
                }
            }
        },
        "pre" : {
            "0xa94f5374fce5edbc8e2a8697c15331677e6ebf0b" : {
                "balance" : "0xe8d4a51000",
                "code" : "",
                "nonce" : "0x00",
                "storage" : {
                }
            },
            "0xc94f5374fce5edbc8e2a8697c15331677e6ebf0b" : {
                "balance" : "0x00",
                "code" : "0x600c600155",
                "nonce" : "0x00",
                "storage" : {
                }
            }
        }
    }
}