{
    "TransactionCollisionToEmptyButCode_d0g1v0_Byzantium" : {
        "_info" : {
            "comment" : "",
            "filledwith" : "cpp-1.3.0+commit.6e0ce939.Linux.g++",
            "lllcversion" : "Version: 0.4.18-develop.2017.9.25+commit.a72237f2.Linux.g++",
            "source" : "src/BlockchainTestsFiller/GeneralStateTests/stCreateTest/TransactionCollisionToEmptyButCode_d0g1v0Filler.json",
            "sourceHash" : "c2c527887895350a04ce008a02a8c04ea60cef2c76050302c772e4c5f69a9f62"
        },
        "blocks" : [
            {
                "blockHeader" : {
                    "bloom" : "0x00000000000000000000000000000000000000000000000000000000000000000000000000000000000000000000000000000000000000000000000000000000000000000000000000000000000000000000000000000000000000000000000000000000000000000000000000000000000000000000000000000000000000000000000000000000000000000000000000000000000000000000000000000000000000000000000000000000000000000000000000000000000000000000000000000000000000000000000000000000000000000000000000000000000000000000000000000000000000000000000000000000000000000000000000000000",
                    "coinbase" : "0x2adc25665018aa1fe0e6bc666dac8fc2697ff9ba",
                    "difficulty" : "0x020000",
                    "extraData" : "",
                    "gasLimit" : "0x989680",
                    "gasUsed" : "0xd2f0",
                    "hash" : "0x30a1153acde0c108902b57a9b00e34b12de1762f28c199135b530b478799b324",
                    "mixHash" : "0xc8324bec671e4bb54500d6cf74759c76e6d04a3ac3d6239403409d0864d81886",
                    "nonce" : "0xb3981ca36500b0ff",
                    "number" : "0x01",
                    "parentHash" : "0x85fb093090e83a4e9a429b3e3c7cea40e0c67d789bcc427481b7119719ecddd9",
                    "receiptTrie" : "0xa0012fbba7ac8349cb3a08fc9718afc72efcd07c28df76cdc294f15c233f5003",
                    "stateRoot" : "0x4095a9bec80c109d3a8d3e716ee48f95b17db420b3fd1801308334bd27983e20",
                    "timestamp" : "0x03e8",
                    "transactionsTrie" : "0x58412d03f479bf14e44f8d19febf755c585e8d8a149dd02852a15b140ad86cf7",
                    "uncleHash" : "0x1dcc4de8dec75d7aab85b567b6ccd41ad312451b948a7413f0a142fd40d49347"
                },
                "rlp" : "0xf9024ff901f7a085fb093090e83a4e9a429b3e3c7cea40e0c67d789bcc427481b7119719ecddd9a01dcc4de8dec75d7aab85b567b6ccd41ad312451b948a7413f0a142fd40d49347942adc25665018aa1fe0e6bc666dac8fc2697ff9baa04095a9bec80c109d3a8d3e716ee48f95b17db420b3fd1801308334bd27983e20a058412d03f479bf14e44f8d19febf755c585e8d8a149dd02852a15b140ad86cf7a0a0012fbba7ac8349cb3a08fc9718afc72efcd07c28df76cdc294f15c233f5003b901000000000000000000000000000000000000000000000000000000000000000000000000000000000000000000000000000000000000000000000000000000000000000000000000000000000000000000000000000000000000000000000000000000000000000000000000000000000000000000000000000000000000000000000000000000000000000000000000000000000000000000000000000000000000000000000000000000000000000000000000000000000000000000000000000000000000000000000000000000000000000000000000000000000000000000000000000000000000000000000000000000000000000000000000000000000083020000018398968082d2f08203e880a0c8324bec671e4bb54500d6cf74759c76e6d04a3ac3d6239403409d0864d8188688b3981ca36500b0fff852f850800182d2f080808560016001551ba0da9449f0116eaad1f78dba5ca2039e6cafd3cfb1e0e0c8989c0a999305370a34a06f9355c76e5c365608f50f79a8cf9c8a454cec44a2a7631556aa23a45c4532ccc0",
                "transactions" : [
                    {
                        "data" : "0x6001600155",
                        "gasLimit" : "0xd2f0",
                        "gasPrice" : "0x01",
                        "nonce" : "0x00",
                        "r" : "0xda9449f0116eaad1f78dba5ca2039e6cafd3cfb1e0e0c8989c0a999305370a34",
                        "s" : "0x6f9355c76e5c365608f50f79a8cf9c8a454cec44a2a7631556aa23a45c4532cc",
                        "to" : "",
                        "v" : "0x1b",
                        "value" : "0x00"
                    }
                ],
                "uncleHeaders" : [
                ]
            }
        ],
        "genesisBlockHeader" : {
            "bloom" : "0x00000000000000000000000000000000000000000000000000000000000000000000000000000000000000000000000000000000000000000000000000000000000000000000000000000000000000000000000000000000000000000000000000000000000000000000000000000000000000000000000000000000000000000000000000000000000000000000000000000000000000000000000000000000000000000000000000000000000000000000000000000000000000000000000000000000000000000000000000000000000000000000000000000000000000000000000000000000000000000000000000000000000000000000000000000000",
            "coinbase" : "0x2adc25665018aa1fe0e6bc666dac8fc2697ff9ba",
            "difficulty" : "0x020000",
            "extraData" : "0x42",
            "gasLimit" : "0x989680",
            "gasUsed" : "0x00",
            "hash" : "0x85fb093090e83a4e9a429b3e3c7cea40e0c67d789bcc427481b7119719ecddd9",
            "mixHash" : "0x56e81f171bcc55a6ff8345e692c0f86e5b48e01b996cadc001622fb5e363b421",
            "nonce" : "0x0102030405060708",
            "number" : "0x00",
            "parentHash" : "0x0000000000000000000000000000000000000000000000000000000000000000",
            "receiptTrie" : "0x56e81f171bcc55a6ff8345e692c0f86e5b48e01b996cadc001622fb5e363b421",
            "stateRoot" : "0x1ef57185ddecdc043508eaf666da0b9d9451d184b4c9e384646caa4b6762fb73",
            "timestamp" : "0x03b6",
            "transactionsTrie" : "0x56e81f171bcc55a6ff8345e692c0f86e5b48e01b996cadc001622fb5e363b421",
            "uncleHash" : "0x1dcc4de8dec75d7aab85b567b6ccd41ad312451b948a7413f0a142fd40d49347"
        },
        "genesisRLP" : "0xf901faf901f5a00000000000000000000000000000000000000000000000000000000000000000a01dcc4de8dec75d7aab85b567b6ccd41ad312451b948a7413f0a142fd40d49347942adc25665018aa1fe0e6bc666dac8fc2697ff9baa01ef57185ddecdc043508eaf666da0b9d9451d184b4c9e384646caa4b6762fb73a056e81f171bcc55a6ff8345e692c0f86e5b48e01b996cadc001622fb5e363b421a056e81f171bcc55a6ff8345e692c0f86e5b48e01b996cadc001622fb5e363b421b9010000000000000000000000000000000000000000000000000000000000000000000000000000000000000000000000000000000000000000000000000000000000000000000000000000000000000000000000000000000000000000000000000000000000000000000000000000000000000000000000000000000000000000000000000000000000000000000000000000000000000000000000000000000000000000000000000000000000000000000000000000000000000000000000000000000000000000000000000000000000000000000000000000000000000000000000000000000000000000000000000000000000000000000000000000000000830200008083989680808203b642a056e81f171bcc55a6ff8345e692c0f86e5b48e01b996cadc001622fb5e363b421880102030405060708c0c0",
        "lastblockhash" : "0x30a1153acde0c108902b57a9b00e34b12de1762f28c199135b530b478799b324",
        "network" : "Byzantium",
        "postState" : {
            "0x2adc25665018aa1fe0e6bc666dac8fc2697ff9ba" : {
                "balance" : "0x29a2241af62cd2f0",
                "code" : "",
                "nonce" : "0x00",
                "storage" : {
                }
            },
            "0x6295ee1b4f6dd65047762f924ecd367c17eabf8f" : {
                "balance" : "0x00",
                "code" : "0x1122334455",
                "nonce" : "0x00",
                "storage" : {
                }
            },
            "0xa94f5374fce5edbc8e2a8697c15331677e6ebf0b" : {
                "balance" : "0xe8d4a43d10",
                "code" : "",
                "nonce" : "0x01",
                "storage" : {
                }
            }
        },
        "pre" : {
            "0x6295ee1b4f6dd65047762f924ecd367c17eabf8f" : {
                "balance" : "0x00",
                "code" : "0x1122334455",
                "nonce" : "0x00",
                "storage" : {
                }
            },
            "0xa94f5374fce5edbc8e2a8697c15331677e6ebf0b" : {
                "balance" : "0xe8d4a51000",
                "code" : "",
                "nonce" : "0x00",
                "storage" : {
                }
            }
        }
    },
    "TransactionCollisionToEmptyButCode_d0g1v0_EIP150" : {
        "_info" : {
            "comment" : "",
            "filledwith" : "cpp-1.3.0+commit.6e0ce939.Linux.g++",
            "lllcversion" : "Version: 0.4.18-develop.2017.9.25+commit.a72237f2.Linux.g++",
            "source" : "src/BlockchainTestsFiller/GeneralStateTests/stCreateTest/TransactionCollisionToEmptyButCode_d0g1v0Filler.json",
            "sourceHash" : "c2c527887895350a04ce008a02a8c04ea60cef2c76050302c772e4c5f69a9f62"
        },
        "blocks" : [
            {
                "blockHeader" : {
                    "bloom" : "0x00000000000000000000000000000000000000000000000000000000000000000000000000000000000000000000000000000000000000000000000000000000000000000000000000000000000000000000000000000000000000000000000000000000000000000000000000000000000000000000000000000000000000000000000000000000000000000000000000000000000000000000000000000000000000000000000000000000000000000000000000000000000000000000000000000000000000000000000000000000000000000000000000000000000000000000000000000000000000000000000000000000000000000000000000000000",
                    "coinbase" : "0x2adc25665018aa1fe0e6bc666dac8fc2697ff9ba",
                    "difficulty" : "0x020000",
                    "extraData" : "",
                    "gasLimit" : "0x989680",
                    "gasUsed" : "0xd2f0",
                    "hash" : "0x468bcf41dbef8083c4608db8e68a8100950b9835015d55295a834ddd16b157ed",
                    "mixHash" : "0x5510ff691e3e6d90716976b3ec18f08898790b4f91997b2a42da0d5e8e7074fb",
                    "nonce" : "0x8d6b3a42280dd5bf",
                    "number" : "0x01",
                    "parentHash" : "0x85fb093090e83a4e9a429b3e3c7cea40e0c67d789bcc427481b7119719ecddd9",
                    "receiptTrie" : "0x7a2e81b56b9c2110621bd12f7ff9393410cd861fcee3cd69888d4372cf53ce15",
                    "stateRoot" : "0xda5f4d881297eb23b716dd480451b8e69450dd8820c3a3825924ef3ccc6b2818",
                    "timestamp" : "0x03e8",
                    "transactionsTrie" : "0x58412d03f479bf14e44f8d19febf755c585e8d8a149dd02852a15b140ad86cf7",
                    "uncleHash" : "0x1dcc4de8dec75d7aab85b567b6ccd41ad312451b948a7413f0a142fd40d49347"
                },
                "rlp" : "0xf9024ff901f7a085fb093090e83a4e9a429b3e3c7cea40e0c67d789bcc427481b7119719ecddd9a01dcc4de8dec75d7aab85b567b6ccd41ad312451b948a7413f0a142fd40d49347942adc25665018aa1fe0e6bc666dac8fc2697ff9baa0da5f4d881297eb23b716dd480451b8e69450dd8820c3a3825924ef3ccc6b2818a058412d03f479bf14e44f8d19febf755c585e8d8a149dd02852a15b140ad86cf7a07a2e81b56b9c2110621bd12f7ff9393410cd861fcee3cd69888d4372cf53ce15b901000000000000000000000000000000000000000000000000000000000000000000000000000000000000000000000000000000000000000000000000000000000000000000000000000000000000000000000000000000000000000000000000000000000000000000000000000000000000000000000000000000000000000000000000000000000000000000000000000000000000000000000000000000000000000000000000000000000000000000000000000000000000000000000000000000000000000000000000000000000000000000000000000000000000000000000000000000000000000000000000000000000000000000000000000000000083020000018398968082d2f08203e880a05510ff691e3e6d90716976b3ec18f08898790b4f91997b2a42da0d5e8e7074fb888d6b3a42280dd5bff852f850800182d2f080808560016001551ba0da9449f0116eaad1f78dba5ca2039e6cafd3cfb1e0e0c8989c0a999305370a34a06f9355c76e5c365608f50f79a8cf9c8a454cec44a2a7631556aa23a45c4532ccc0",
                "transactions" : [
                    {
                        "data" : "0x6001600155",
                        "gasLimit" : "0xd2f0",
                        "gasPrice" : "0x01",
                        "nonce" : "0x00",
                        "r" : "0xda9449f0116eaad1f78dba5ca2039e6cafd3cfb1e0e0c8989c0a999305370a34",
                        "s" : "0x6f9355c76e5c365608f50f79a8cf9c8a454cec44a2a7631556aa23a45c4532cc",
                        "to" : "",
                        "v" : "0x1b",
                        "value" : "0x00"
                    }
                ],
                "uncleHeaders" : [
                ]
            }
        ],
        "genesisBlockHeader" : {
            "bloom" : "0x00000000000000000000000000000000000000000000000000000000000000000000000000000000000000000000000000000000000000000000000000000000000000000000000000000000000000000000000000000000000000000000000000000000000000000000000000000000000000000000000000000000000000000000000000000000000000000000000000000000000000000000000000000000000000000000000000000000000000000000000000000000000000000000000000000000000000000000000000000000000000000000000000000000000000000000000000000000000000000000000000000000000000000000000000000000",
            "coinbase" : "0x2adc25665018aa1fe0e6bc666dac8fc2697ff9ba",
            "difficulty" : "0x020000",
            "extraData" : "0x42",
            "gasLimit" : "0x989680",
            "gasUsed" : "0x00",
            "hash" : "0x85fb093090e83a4e9a429b3e3c7cea40e0c67d789bcc427481b7119719ecddd9",
            "mixHash" : "0x56e81f171bcc55a6ff8345e692c0f86e5b48e01b996cadc001622fb5e363b421",
            "nonce" : "0x0102030405060708",
            "number" : "0x00",
            "parentHash" : "0x0000000000000000000000000000000000000000000000000000000000000000",
            "receiptTrie" : "0x56e81f171bcc55a6ff8345e692c0f86e5b48e01b996cadc001622fb5e363b421",
            "stateRoot" : "0x1ef57185ddecdc043508eaf666da0b9d9451d184b4c9e384646caa4b6762fb73",
            "timestamp" : "0x03b6",
            "transactionsTrie" : "0x56e81f171bcc55a6ff8345e692c0f86e5b48e01b996cadc001622fb5e363b421",
            "uncleHash" : "0x1dcc4de8dec75d7aab85b567b6ccd41ad312451b948a7413f0a142fd40d49347"
        },
        "genesisRLP" : "0xf901faf901f5a00000000000000000000000000000000000000000000000000000000000000000a01dcc4de8dec75d7aab85b567b6ccd41ad312451b948a7413f0a142fd40d49347942adc25665018aa1fe0e6bc666dac8fc2697ff9baa01ef57185ddecdc043508eaf666da0b9d9451d184b4c9e384646caa4b6762fb73a056e81f171bcc55a6ff8345e692c0f86e5b48e01b996cadc001622fb5e363b421a056e81f171bcc55a6ff8345e692c0f86e5b48e01b996cadc001622fb5e363b421b9010000000000000000000000000000000000000000000000000000000000000000000000000000000000000000000000000000000000000000000000000000000000000000000000000000000000000000000000000000000000000000000000000000000000000000000000000000000000000000000000000000000000000000000000000000000000000000000000000000000000000000000000000000000000000000000000000000000000000000000000000000000000000000000000000000000000000000000000000000000000000000000000000000000000000000000000000000000000000000000000000000000000000000000000000000000000830200008083989680808203b642a056e81f171bcc55a6ff8345e692c0f86e5b48e01b996cadc001622fb5e363b421880102030405060708c0c0",
        "lastblockhash" : "0x468bcf41dbef8083c4608db8e68a8100950b9835015d55295a834ddd16b157ed",
        "network" : "EIP150",
        "postState" : {
            "0x2adc25665018aa1fe0e6bc666dac8fc2697ff9ba" : {
                "balance" : "0x4563918244f4d2f0",
                "code" : "",
                "nonce" : "0x00",
                "storage" : {
                }
            },
            "0x6295ee1b4f6dd65047762f924ecd367c17eabf8f" : {
                "balance" : "0x00",
                "code" : "0x1122334455",
                "nonce" : "0x00",
                "storage" : {
                }
            },
            "0xa94f5374fce5edbc8e2a8697c15331677e6ebf0b" : {
                "balance" : "0xe8d4a43d10",
                "code" : "",
                "nonce" : "0x01",
                "storage" : {
                }
            }
        },
        "pre" : {
            "0x6295ee1b4f6dd65047762f924ecd367c17eabf8f" : {
                "balance" : "0x00",
                "code" : "0x1122334455",
                "nonce" : "0x00",
                "storage" : {
                }
            },
            "0xa94f5374fce5edbc8e2a8697c15331677e6ebf0b" : {
                "balance" : "0xe8d4a51000",
                "code" : "",
                "nonce" : "0x00",
                "storage" : {
                }
            }
        }
    },
    "TransactionCollisionToEmptyButCode_d0g1v0_EIP158" : {
        "_info" : {
            "comment" : "",
            "filledwith" : "cpp-1.3.0+commit.6e0ce939.Linux.g++",
            "lllcversion" : "Version: 0.4.18-develop.2017.9.25+commit.a72237f2.Linux.g++",
            "source" : "src/BlockchainTestsFiller/GeneralStateTests/stCreateTest/TransactionCollisionToEmptyButCode_d0g1v0Filler.json",
            "sourceHash" : "c2c527887895350a04ce008a02a8c04ea60cef2c76050302c772e4c5f69a9f62"
        },
        "blocks" : [
            {
                "blockHeader" : {
                    "bloom" : "0x00000000000000000000000000000000000000000000000000000000000000000000000000000000000000000000000000000000000000000000000000000000000000000000000000000000000000000000000000000000000000000000000000000000000000000000000000000000000000000000000000000000000000000000000000000000000000000000000000000000000000000000000000000000000000000000000000000000000000000000000000000000000000000000000000000000000000000000000000000000000000000000000000000000000000000000000000000000000000000000000000000000000000000000000000000000",
                    "coinbase" : "0x2adc25665018aa1fe0e6bc666dac8fc2697ff9ba",
                    "difficulty" : "0x020000",
                    "extraData" : "",
                    "gasLimit" : "0x989680",
                    "gasUsed" : "0xd2f0",
                    "hash" : "0x5780e0731c441d61f38905b7c6851b2ebc56e82e2817f2a8749f4cfaa7d24dd9",
                    "mixHash" : "0xdc3d04875e74c77f3e8ed8d6e8b7f4a65274f83cf499680f94881e5f874c890c",
                    "nonce" : "0x82658f7e02e4a699",
                    "number" : "0x01",
                    "parentHash" : "0x85fb093090e83a4e9a429b3e3c7cea40e0c67d789bcc427481b7119719ecddd9",
                    "receiptTrie" : "0x7a2e81b56b9c2110621bd12f7ff9393410cd861fcee3cd69888d4372cf53ce15",
                    "stateRoot" : "0xda5f4d881297eb23b716dd480451b8e69450dd8820c3a3825924ef3ccc6b2818",
                    "timestamp" : "0x03e8",
                    "transactionsTrie" : "0x58412d03f479bf14e44f8d19febf755c585e8d8a149dd02852a15b140ad86cf7",
                    "uncleHash" : "0x1dcc4de8dec75d7aab85b567b6ccd41ad312451b948a7413f0a142fd40d49347"
                },
                "rlp" : "0xf9024ff901f7a085fb093090e83a4e9a429b3e3c7cea40e0c67d789bcc427481b7119719ecddd9a01dcc4de8dec75d7aab85b567b6ccd41ad312451b948a7413f0a142fd40d49347942adc25665018aa1fe0e6bc666dac8fc2697ff9baa0da5f4d881297eb23b716dd480451b8e69450dd8820c3a3825924ef3ccc6b2818a058412d03f479bf14e44f8d19febf755c585e8d8a149dd02852a15b140ad86cf7a07a2e81b56b9c2110621bd12f7ff9393410cd861fcee3cd69888d4372cf53ce15b901000000000000000000000000000000000000000000000000000000000000000000000000000000000000000000000000000000000000000000000000000000000000000000000000000000000000000000000000000000000000000000000000000000000000000000000000000000000000000000000000000000000000000000000000000000000000000000000000000000000000000000000000000000000000000000000000000000000000000000000000000000000000000000000000000000000000000000000000000000000000000000000000000000000000000000000000000000000000000000000000000000000000000000000000000000000083020000018398968082d2f08203e880a0dc3d04875e74c77f3e8ed8d6e8b7f4a65274f83cf499680f94881e5f874c890c8882658f7e02e4a699f852f850800182d2f080808560016001551ba0da9449f0116eaad1f78dba5ca2039e6cafd3cfb1e0e0c8989c0a999305370a34a06f9355c76e5c365608f50f79a8cf9c8a454cec44a2a7631556aa23a45c4532ccc0",
                "transactions" : [
                    {
                        "data" : "0x6001600155",
                        "gasLimit" : "0xd2f0",
                        "gasPrice" : "0x01",
                        "nonce" : "0x00",
                        "r" : "0xda9449f0116eaad1f78dba5ca2039e6cafd3cfb1e0e0c8989c0a999305370a34",
                        "s" : "0x6f9355c76e5c365608f50f79a8cf9c8a454cec44a2a7631556aa23a45c4532cc",
                        "to" : "",
                        "v" : "0x1b",
                        "value" : "0x00"
                    }
                ],
                "uncleHeaders" : [
                ]
            }
        ],
        "genesisBlockHeader" : {
            "bloom" : "0x00000000000000000000000000000000000000000000000000000000000000000000000000000000000000000000000000000000000000000000000000000000000000000000000000000000000000000000000000000000000000000000000000000000000000000000000000000000000000000000000000000000000000000000000000000000000000000000000000000000000000000000000000000000000000000000000000000000000000000000000000000000000000000000000000000000000000000000000000000000000000000000000000000000000000000000000000000000000000000000000000000000000000000000000000000000",
            "coinbase" : "0x2adc25665018aa1fe0e6bc666dac8fc2697ff9ba",
            "difficulty" : "0x020000",
            "extraData" : "0x42",
            "gasLimit" : "0x989680",
            "gasUsed" : "0x00",
            "hash" : "0x85fb093090e83a4e9a429b3e3c7cea40e0c67d789bcc427481b7119719ecddd9",
            "mixHash" : "0x56e81f171bcc55a6ff8345e692c0f86e5b48e01b996cadc001622fb5e363b421",
            "nonce" : "0x0102030405060708",
            "number" : "0x00",
            "parentHash" : "0x0000000000000000000000000000000000000000000000000000000000000000",
            "receiptTrie" : "0x56e81f171bcc55a6ff8345e692c0f86e5b48e01b996cadc001622fb5e363b421",
            "stateRoot" : "0x1ef57185ddecdc043508eaf666da0b9d9451d184b4c9e384646caa4b6762fb73",
            "timestamp" : "0x03b6",
            "transactionsTrie" : "0x56e81f171bcc55a6ff8345e692c0f86e5b48e01b996cadc001622fb5e363b421",
            "uncleHash" : "0x1dcc4de8dec75d7aab85b567b6ccd41ad312451b948a7413f0a142fd40d49347"
        },
        "genesisRLP" : "0xf901faf901f5a00000000000000000000000000000000000000000000000000000000000000000a01dcc4de8dec75d7aab85b567b6ccd41ad312451b948a7413f0a142fd40d49347942adc25665018aa1fe0e6bc666dac8fc2697ff9baa01ef57185ddecdc043508eaf666da0b9d9451d184b4c9e384646caa4b6762fb73a056e81f171bcc55a6ff8345e692c0f86e5b48e01b996cadc001622fb5e363b421a056e81f171bcc55a6ff8345e692c0f86e5b48e01b996cadc001622fb5e363b421b9010000000000000000000000000000000000000000000000000000000000000000000000000000000000000000000000000000000000000000000000000000000000000000000000000000000000000000000000000000000000000000000000000000000000000000000000000000000000000000000000000000000000000000000000000000000000000000000000000000000000000000000000000000000000000000000000000000000000000000000000000000000000000000000000000000000000000000000000000000000000000000000000000000000000000000000000000000000000000000000000000000000000000000000000000000000000830200008083989680808203b642a056e81f171bcc55a6ff8345e692c0f86e5b48e01b996cadc001622fb5e363b421880102030405060708c0c0",
        "lastblockhash" : "0x5780e0731c441d61f38905b7c6851b2ebc56e82e2817f2a8749f4cfaa7d24dd9",
        "network" : "EIP158",
        "postState" : {
            "0x2adc25665018aa1fe0e6bc666dac8fc2697ff9ba" : {
                "balance" : "0x4563918244f4d2f0",
                "code" : "",
                "nonce" : "0x00",
                "storage" : {
                }
            },
            "0x6295ee1b4f6dd65047762f924ecd367c17eabf8f" : {
                "balance" : "0x00",
                "code" : "0x1122334455",
                "nonce" : "0x00",
                "storage" : {
                }
            },
            "0xa94f5374fce5edbc8e2a8697c15331677e6ebf0b" : {
                "balance" : "0xe8d4a43d10",
                "code" : "",
                "nonce" : "0x01",
                "storage" : {
                }
            }
        },
        "pre" : {
            "0x6295ee1b4f6dd65047762f924ecd367c17eabf8f" : {
                "balance" : "0x00",
                "code" : "0x1122334455",
                "nonce" : "0x00",
                "storage" : {
                }
            },
            "0xa94f5374fce5edbc8e2a8697c15331677e6ebf0b" : {
                "balance" : "0xe8d4a51000",
                "code" : "",
                "nonce" : "0x00",
                "storage" : {
                }
            }
        }
    },
    "TransactionCollisionToEmptyButCode_d0g1v0_Frontier" : {
        "_info" : {
            "comment" : "",
            "filledwith" : "cpp-1.3.0+commit.6e0ce939.Linux.g++",
            "lllcversion" : "Version: 0.4.18-develop.2017.9.25+commit.a72237f2.Linux.g++",
            "source" : "src/BlockchainTestsFiller/GeneralStateTests/stCreateTest/TransactionCollisionToEmptyButCode_d0g1v0Filler.json",
            "sourceHash" : "c2c527887895350a04ce008a02a8c04ea60cef2c76050302c772e4c5f69a9f62"
        },
        "blocks" : [
            {
                "blockHeader" : {
                    "bloom" : "0x00000000000000000000000000000000000000000000000000000000000000000000000000000000000000000000000000000000000000000000000000000000000000000000000000000000000000000000000000000000000000000000000000000000000000000000000000000000000000000000000000000000000000000000000000000000000000000000000000000000000000000000000000000000000000000000000000000000000000000000000000000000000000000000000000000000000000000000000000000000000000000000000000000000000000000000000000000000000000000000000000000000000000000000000000000000",
                    "coinbase" : "0x2adc25665018aa1fe0e6bc666dac8fc2697ff9ba",
                    "difficulty" : "0x020000",
                    "extraData" : "",
                    "gasLimit" : "0x989680",
                    "gasUsed" : "0xd2f0",
                    "hash" : "0x04faeb7651fcbe8a0f95ec3cf3d9480c8ae7a5551f95a5650c6da59891a88918",
                    "mixHash" : "0x7023dbe10abb71c5f649fbed185579495c3ecb9af09b5e8b91c97b77f80448f1",
                    "nonce" : "0x091c21205dfa5d2d",
                    "number" : "0x01",
                    "parentHash" : "0x85fb093090e83a4e9a429b3e3c7cea40e0c67d789bcc427481b7119719ecddd9",
                    "receiptTrie" : "0x7a2e81b56b9c2110621bd12f7ff9393410cd861fcee3cd69888d4372cf53ce15",
                    "stateRoot" : "0xda5f4d881297eb23b716dd480451b8e69450dd8820c3a3825924ef3ccc6b2818",
                    "timestamp" : "0x03e8",
                    "transactionsTrie" : "0x58412d03f479bf14e44f8d19febf755c585e8d8a149dd02852a15b140ad86cf7",
                    "uncleHash" : "0x1dcc4de8dec75d7aab85b567b6ccd41ad312451b948a7413f0a142fd40d49347"
                },
                "rlp" : "0xf9024ff901f7a085fb093090e83a4e9a429b3e3c7cea40e0c67d789bcc427481b7119719ecddd9a01dcc4de8dec75d7aab85b567b6ccd41ad312451b948a7413f0a142fd40d49347942adc25665018aa1fe0e6bc666dac8fc2697ff9baa0da5f4d881297eb23b716dd480451b8e69450dd8820c3a3825924ef3ccc6b2818a058412d03f479bf14e44f8d19febf755c585e8d8a149dd02852a15b140ad86cf7a07a2e81b56b9c2110621bd12f7ff9393410cd861fcee3cd69888d4372cf53ce15b901000000000000000000000000000000000000000000000000000000000000000000000000000000000000000000000000000000000000000000000000000000000000000000000000000000000000000000000000000000000000000000000000000000000000000000000000000000000000000000000000000000000000000000000000000000000000000000000000000000000000000000000000000000000000000000000000000000000000000000000000000000000000000000000000000000000000000000000000000000000000000000000000000000000000000000000000000000000000000000000000000000000000000000000000000000000083020000018398968082d2f08203e880a07023dbe10abb71c5f649fbed185579495c3ecb9af09b5e8b91c97b77f80448f188091c21205dfa5d2df852f850800182d2f080808560016001551ba0da9449f0116eaad1f78dba5ca2039e6cafd3cfb1e0e0c8989c0a999305370a34a06f9355c76e5c365608f50f79a8cf9c8a454cec44a2a7631556aa23a45c4532ccc0",
                "transactions" : [
                    {
                        "data" : "0x6001600155",
                        "gasLimit" : "0xd2f0",
                        "gasPrice" : "0x01",
                        "nonce" : "0x00",
                        "r" : "0xda9449f0116eaad1f78dba5ca2039e6cafd3cfb1e0e0c8989c0a999305370a34",
                        "s" : "0x6f9355c76e5c365608f50f79a8cf9c8a454cec44a2a7631556aa23a45c4532cc",
                        "to" : "",
                        "v" : "0x1b",
                        "value" : "0x00"
                    }
                ],
                "uncleHeaders" : [
                ]
            }
        ],
        "genesisBlockHeader" : {
            "bloom" : "0x00000000000000000000000000000000000000000000000000000000000000000000000000000000000000000000000000000000000000000000000000000000000000000000000000000000000000000000000000000000000000000000000000000000000000000000000000000000000000000000000000000000000000000000000000000000000000000000000000000000000000000000000000000000000000000000000000000000000000000000000000000000000000000000000000000000000000000000000000000000000000000000000000000000000000000000000000000000000000000000000000000000000000000000000000000000",
            "coinbase" : "0x2adc25665018aa1fe0e6bc666dac8fc2697ff9ba",
            "difficulty" : "0x020000",
            "extraData" : "0x42",
            "gasLimit" : "0x989680",
            "gasUsed" : "0x00",
            "hash" : "0x85fb093090e83a4e9a429b3e3c7cea40e0c67d789bcc427481b7119719ecddd9",
            "mixHash" : "0x56e81f171bcc55a6ff8345e692c0f86e5b48e01b996cadc001622fb5e363b421",
            "nonce" : "0x0102030405060708",
            "number" : "0x00",
            "parentHash" : "0x0000000000000000000000000000000000000000000000000000000000000000",
            "receiptTrie" : "0x56e81f171bcc55a6ff8345e692c0f86e5b48e01b996cadc001622fb5e363b421",
            "stateRoot" : "0x1ef57185ddecdc043508eaf666da0b9d9451d184b4c9e384646caa4b6762fb73",
            "timestamp" : "0x03b6",
            "transactionsTrie" : "0x56e81f171bcc55a6ff8345e692c0f86e5b48e01b996cadc001622fb5e363b421",
            "uncleHash" : "0x1dcc4de8dec75d7aab85b567b6ccd41ad312451b948a7413f0a142fd40d49347"
        },
        "genesisRLP" : "0xf901faf901f5a00000000000000000000000000000000000000000000000000000000000000000a01dcc4de8dec75d7aab85b567b6ccd41ad312451b948a7413f0a142fd40d49347942adc25665018aa1fe0e6bc666dac8fc2697ff9baa01ef57185ddecdc043508eaf666da0b9d9451d184b4c9e384646caa4b6762fb73a056e81f171bcc55a6ff8345e692c0f86e5b48e01b996cadc001622fb5e363b421a056e81f171bcc55a6ff8345e692c0f86e5b48e01b996cadc001622fb5e363b421b9010000000000000000000000000000000000000000000000000000000000000000000000000000000000000000000000000000000000000000000000000000000000000000000000000000000000000000000000000000000000000000000000000000000000000000000000000000000000000000000000000000000000000000000000000000000000000000000000000000000000000000000000000000000000000000000000000000000000000000000000000000000000000000000000000000000000000000000000000000000000000000000000000000000000000000000000000000000000000000000000000000000000000000000000000000000000830200008083989680808203b642a056e81f171bcc55a6ff8345e692c0f86e5b48e01b996cadc001622fb5e363b421880102030405060708c0c0",
        "lastblockhash" : "0x04faeb7651fcbe8a0f95ec3cf3d9480c8ae7a5551f95a5650c6da59891a88918",
        "network" : "Frontier",
        "postState" : {
            "0x2adc25665018aa1fe0e6bc666dac8fc2697ff9ba" : {
                "balance" : "0x4563918244f4d2f0",
                "code" : "",
                "nonce" : "0x00",
                "storage" : {
                }
            },
            "0x6295ee1b4f6dd65047762f924ecd367c17eabf8f" : {
                "balance" : "0x00",
                "code" : "0x1122334455",
                "nonce" : "0x00",
                "storage" : {
                }
            },
            "0xa94f5374fce5edbc8e2a8697c15331677e6ebf0b" : {
                "balance" : "0xe8d4a43d10",
                "code" : "",
                "nonce" : "0x01",
                "storage" : {
                }
            }
        },
        "pre" : {
            "0x6295ee1b4f6dd65047762f924ecd367c17eabf8f" : {
                "balance" : "0x00",
                "code" : "0x1122334455",
                "nonce" : "0x00",
                "storage" : {
                }
            },
            "0xa94f5374fce5edbc8e2a8697c15331677e6ebf0b" : {
                "balance" : "0xe8d4a51000",
                "code" : "",
                "nonce" : "0x00",
                "storage" : {
                }
            }
        }
    },
    "TransactionCollisionToEmptyButCode_d0g1v0_Homestead" : {
        "_info" : {
            "comment" : "",
            "filledwith" : "cpp-1.3.0+commit.6e0ce939.Linux.g++",
            "lllcversion" : "Version: 0.4.18-develop.2017.9.25+commit.a72237f2.Linux.g++",
            "source" : "src/BlockchainTestsFiller/GeneralStateTests/stCreateTest/TransactionCollisionToEmptyButCode_d0g1v0Filler.json",
            "sourceHash" : "c2c527887895350a04ce008a02a8c04ea60cef2c76050302c772e4c5f69a9f62"
        },
        "blocks" : [
            {
                "blockHeader" : {
                    "bloom" : "0x00000000000000000000000000000000000000000000000000000000000000000000000000000000000000000000000000000000000000000000000000000000000000000000000000000000000000000000000000000000000000000000000000000000000000000000000000000000000000000000000000000000000000000000000000000000000000000000000000000000000000000000000000000000000000000000000000000000000000000000000000000000000000000000000000000000000000000000000000000000000000000000000000000000000000000000000000000000000000000000000000000000000000000000000000000000",
                    "coinbase" : "0x2adc25665018aa1fe0e6bc666dac8fc2697ff9ba",
                    "difficulty" : "0x020000",
                    "extraData" : "",
                    "gasLimit" : "0x989680",
                    "gasUsed" : "0xd2f0",
                    "hash" : "0xf74a9396d6a9176b77dd728b00fc358d2a4f1298c3856ef57ba31672aaf44a00",
                    "mixHash" : "0xcce267c536831df9f66955e3eb4fbedb28bfb1b27647fd58361eddef5c582a10",
                    "nonce" : "0xe03aa4af3d0b3943",
                    "number" : "0x01",
                    "parentHash" : "0x85fb093090e83a4e9a429b3e3c7cea40e0c67d789bcc427481b7119719ecddd9",
                    "receiptTrie" : "0x7a2e81b56b9c2110621bd12f7ff9393410cd861fcee3cd69888d4372cf53ce15",
                    "stateRoot" : "0xda5f4d881297eb23b716dd480451b8e69450dd8820c3a3825924ef3ccc6b2818",
                    "timestamp" : "0x03e8",
                    "transactionsTrie" : "0x58412d03f479bf14e44f8d19febf755c585e8d8a149dd02852a15b140ad86cf7",
                    "uncleHash" : "0x1dcc4de8dec75d7aab85b567b6ccd41ad312451b948a7413f0a142fd40d49347"
                },
                "rlp" : "0xf9024ff901f7a085fb093090e83a4e9a429b3e3c7cea40e0c67d789bcc427481b7119719ecddd9a01dcc4de8dec75d7aab85b567b6ccd41ad312451b948a7413f0a142fd40d49347942adc25665018aa1fe0e6bc666dac8fc2697ff9baa0da5f4d881297eb23b716dd480451b8e69450dd8820c3a3825924ef3ccc6b2818a058412d03f479bf14e44f8d19febf755c585e8d8a149dd02852a15b140ad86cf7a07a2e81b56b9c2110621bd12f7ff9393410cd861fcee3cd69888d4372cf53ce15b901000000000000000000000000000000000000000000000000000000000000000000000000000000000000000000000000000000000000000000000000000000000000000000000000000000000000000000000000000000000000000000000000000000000000000000000000000000000000000000000000000000000000000000000000000000000000000000000000000000000000000000000000000000000000000000000000000000000000000000000000000000000000000000000000000000000000000000000000000000000000000000000000000000000000000000000000000000000000000000000000000000000000000000000000000000000083020000018398968082d2f08203e880a0cce267c536831df9f66955e3eb4fbedb28bfb1b27647fd58361eddef5c582a1088e03aa4af3d0b3943f852f850800182d2f080808560016001551ba0da9449f0116eaad1f78dba5ca2039e6cafd3cfb1e0e0c8989c0a999305370a34a06f9355c76e5c365608f50f79a8cf9c8a454cec44a2a7631556aa23a45c4532ccc0",
                "transactions" : [
                    {
                        "data" : "0x6001600155",
                        "gasLimit" : "0xd2f0",
                        "gasPrice" : "0x01",
                        "nonce" : "0x00",
                        "r" : "0xda9449f0116eaad1f78dba5ca2039e6cafd3cfb1e0e0c8989c0a999305370a34",
                        "s" : "0x6f9355c76e5c365608f50f79a8cf9c8a454cec44a2a7631556aa23a45c4532cc",
                        "to" : "",
                        "v" : "0x1b",
                        "value" : "0x00"
                    }
                ],
                "uncleHeaders" : [
                ]
            }
        ],
        "genesisBlockHeader" : {
            "bloom" : "0x00000000000000000000000000000000000000000000000000000000000000000000000000000000000000000000000000000000000000000000000000000000000000000000000000000000000000000000000000000000000000000000000000000000000000000000000000000000000000000000000000000000000000000000000000000000000000000000000000000000000000000000000000000000000000000000000000000000000000000000000000000000000000000000000000000000000000000000000000000000000000000000000000000000000000000000000000000000000000000000000000000000000000000000000000000000",
            "coinbase" : "0x2adc25665018aa1fe0e6bc666dac8fc2697ff9ba",
            "difficulty" : "0x020000",
            "extraData" : "0x42",
            "gasLimit" : "0x989680",
            "gasUsed" : "0x00",
            "hash" : "0x85fb093090e83a4e9a429b3e3c7cea40e0c67d789bcc427481b7119719ecddd9",
            "mixHash" : "0x56e81f171bcc55a6ff8345e692c0f86e5b48e01b996cadc001622fb5e363b421",
            "nonce" : "0x0102030405060708",
            "number" : "0x00",
            "parentHash" : "0x0000000000000000000000000000000000000000000000000000000000000000",
            "receiptTrie" : "0x56e81f171bcc55a6ff8345e692c0f86e5b48e01b996cadc001622fb5e363b421",
            "stateRoot" : "0x1ef57185ddecdc043508eaf666da0b9d9451d184b4c9e384646caa4b6762fb73",
            "timestamp" : "0x03b6",
            "transactionsTrie" : "0x56e81f171bcc55a6ff8345e692c0f86e5b48e01b996cadc001622fb5e363b421",
            "uncleHash" : "0x1dcc4de8dec75d7aab85b567b6ccd41ad312451b948a7413f0a142fd40d49347"
        },
        "genesisRLP" : "0xf901faf901f5a00000000000000000000000000000000000000000000000000000000000000000a01dcc4de8dec75d7aab85b567b6ccd41ad312451b948a7413f0a142fd40d49347942adc25665018aa1fe0e6bc666dac8fc2697ff9baa01ef57185ddecdc043508eaf666da0b9d9451d184b4c9e384646caa4b6762fb73a056e81f171bcc55a6ff8345e692c0f86e5b48e01b996cadc001622fb5e363b421a056e81f171bcc55a6ff8345e692c0f86e5b48e01b996cadc001622fb5e363b421b9010000000000000000000000000000000000000000000000000000000000000000000000000000000000000000000000000000000000000000000000000000000000000000000000000000000000000000000000000000000000000000000000000000000000000000000000000000000000000000000000000000000000000000000000000000000000000000000000000000000000000000000000000000000000000000000000000000000000000000000000000000000000000000000000000000000000000000000000000000000000000000000000000000000000000000000000000000000000000000000000000000000000000000000000000000000000830200008083989680808203b642a056e81f171bcc55a6ff8345e692c0f86e5b48e01b996cadc001622fb5e363b421880102030405060708c0c0",
        "lastblockhash" : "0xf74a9396d6a9176b77dd728b00fc358d2a4f1298c3856ef57ba31672aaf44a00",
        "network" : "Homestead",
        "postState" : {
            "0x2adc25665018aa1fe0e6bc666dac8fc2697ff9ba" : {
                "balance" : "0x4563918244f4d2f0",
                "code" : "",
                "nonce" : "0x00",
                "storage" : {
                }
            },
            "0x6295ee1b4f6dd65047762f924ecd367c17eabf8f" : {
                "balance" : "0x00",
                "code" : "0x1122334455",
                "nonce" : "0x00",
                "storage" : {
                }
            },
            "0xa94f5374fce5edbc8e2a8697c15331677e6ebf0b" : {
                "balance" : "0xe8d4a43d10",
                "code" : "",
                "nonce" : "0x01",
                "storage" : {
                }
            }
        },
        "pre" : {
            "0x6295ee1b4f6dd65047762f924ecd367c17eabf8f" : {
                "balance" : "0x00",
                "code" : "0x1122334455",
                "nonce" : "0x00",
                "storage" : {
                }
            },
            "0xa94f5374fce5edbc8e2a8697c15331677e6ebf0b" : {
                "balance" : "0xe8d4a51000",
                "code" : "",
                "nonce" : "0x00",
                "storage" : {
                }
            }
        }
    }
}