{
    "TransactionCollisionToEmptyButNonce_d0g1v0_Byzantium" : {
        "_info" : {
            "comment" : "",
            "filledwith" : "cpp-1.3.0+commit.6e0ce939.Linux.g++",
            "lllcversion" : "Version: 0.4.18-develop.2017.9.25+commit.a72237f2.Linux.g++",
            "source" : "src/BlockchainTestsFiller/GeneralStateTests/stCreateTest/TransactionCollisionToEmptyButNonce_d0g1v0Filler.json",
            "sourceHash" : "a4cefce182adb3cb3387ec704e66fbb61e19d74416d006ce017d6c5f872207c5"
        },
        "blocks" : [
            {
                "blockHeader" : {
                    "bloom" : "0x00000000000000000000000000000000000000000000000000000000000000000000000000000000000000000000000000000000000000000000000000000000000000000000000000000000000000000000000000000000000000000000000000000000000000000000000000000000000000000000000000000000000000000000000000000000000000000000000000000000000000000000000000000000000000000000000000000000000000000000000000000000000000000000000000000000000000000000000000000000000000000000000000000000000000000000000000000000000000000000000000000000000000000000000000000000",
                    "coinbase" : "0x2adc25665018aa1fe0e6bc666dac8fc2697ff9ba",
                    "difficulty" : "0x020000",
                    "extraData" : "",
                    "gasLimit" : "0x989680",
                    "gasUsed" : "0xd2f0",
                    "hash" : "0xef79e1f59b81fc6ef406c1e68f3d89386ab514b7d5b3fb240459ab2cb934310a",
                    "mixHash" : "0x4971cb4dc47c155e8246d4bdfa1e1d7855e19d7def166683e91241eb4f3a7460",
                    "nonce" : "0x38f0b33c3316b20b",
                    "number" : "0x01",
                    "parentHash" : "0x956926515400edf7d589e37a9ad23e428626f9573f1ff4e6bf20ccb3b7712604",
                    "receiptTrie" : "0xa0012fbba7ac8349cb3a08fc9718afc72efcd07c28df76cdc294f15c233f5003",
                    "stateRoot" : "0xa481bb8c3dcbca5cb644a0f8154308913f94e0f33de316e1cd1f82925e700922",
                    "timestamp" : "0x03e8",
                    "transactionsTrie" : "0x58412d03f479bf14e44f8d19febf755c585e8d8a149dd02852a15b140ad86cf7",
                    "uncleHash" : "0x1dcc4de8dec75d7aab85b567b6ccd41ad312451b948a7413f0a142fd40d49347"
                },
                "rlp" : "0xf9024ff901f7a0956926515400edf7d589e37a9ad23e428626f9573f1ff4e6bf20ccb3b7712604a01dcc4de8dec75d7aab85b567b6ccd41ad312451b948a7413f0a142fd40d49347942adc25665018aa1fe0e6bc666dac8fc2697ff9baa0a481bb8c3dcbca5cb644a0f8154308913f94e0f33de316e1cd1f82925e700922a058412d03f479bf14e44f8d19febf755c585e8d8a149dd02852a15b140ad86cf7a0a0012fbba7ac8349cb3a08fc9718afc72efcd07c28df76cdc294f15c233f5003b901000000000000000000000000000000000000000000000000000000000000000000000000000000000000000000000000000000000000000000000000000000000000000000000000000000000000000000000000000000000000000000000000000000000000000000000000000000000000000000000000000000000000000000000000000000000000000000000000000000000000000000000000000000000000000000000000000000000000000000000000000000000000000000000000000000000000000000000000000000000000000000000000000000000000000000000000000000000000000000000000000000000000000000000000000000000083020000018398968082d2f08203e880a04971cb4dc47c155e8246d4bdfa1e1d7855e19d7def166683e91241eb4f3a74608838f0b33c3316b20bf852f850800182d2f080808560016001551ba0da9449f0116eaad1f78dba5ca2039e6cafd3cfb1e0e0c8989c0a999305370a34a06f9355c76e5c365608f50f79a8cf9c8a454cec44a2a7631556aa23a45c4532ccc0",
                "transactions" : [
                    {
                        "data" : "0x6001600155",
                        "gasLimit" : "0xd2f0",
                        "gasPrice" : "0x01",
                        "nonce" : "0x00",
                        "r" : "0xda9449f0116eaad1f78dba5ca2039e6cafd3cfb1e0e0c8989c0a999305370a34",
                        "s" : "0x6f9355c76e5c365608f50f79a8cf9c8a454cec44a2a7631556aa23a45c4532cc",
                        "to" : "",
                        "v" : "0x1b",
                        "value" : "0x00"
                    }
                ],
                "uncleHeaders" : [
                ]
            }
        ],
        "genesisBlockHeader" : {
            "bloom" : "0x00000000000000000000000000000000000000000000000000000000000000000000000000000000000000000000000000000000000000000000000000000000000000000000000000000000000000000000000000000000000000000000000000000000000000000000000000000000000000000000000000000000000000000000000000000000000000000000000000000000000000000000000000000000000000000000000000000000000000000000000000000000000000000000000000000000000000000000000000000000000000000000000000000000000000000000000000000000000000000000000000000000000000000000000000000000",
            "coinbase" : "0x2adc25665018aa1fe0e6bc666dac8fc2697ff9ba",
            "difficulty" : "0x020000",
            "extraData" : "0x42",
            "gasLimit" : "0x989680",
            "gasUsed" : "0x00",
            "hash" : "0x956926515400edf7d589e37a9ad23e428626f9573f1ff4e6bf20ccb3b7712604",
            "mixHash" : "0x56e81f171bcc55a6ff8345e692c0f86e5b48e01b996cadc001622fb5e363b421",
            "nonce" : "0x0102030405060708",
            "number" : "0x00",
            "parentHash" : "0x0000000000000000000000000000000000000000000000000000000000000000",
            "receiptTrie" : "0x56e81f171bcc55a6ff8345e692c0f86e5b48e01b996cadc001622fb5e363b421",
            "stateRoot" : "0x2ba54e1f096f181cbd01a69dc23f4b60c53d41838ed962a5bacd1e9f0a8522b8",
            "timestamp" : "0x03b6",
            "transactionsTrie" : "0x56e81f171bcc55a6ff8345e692c0f86e5b48e01b996cadc001622fb5e363b421",
            "uncleHash" : "0x1dcc4de8dec75d7aab85b567b6ccd41ad312451b948a7413f0a142fd40d49347"
        },
        "genesisRLP" : "0xf901faf901f5a00000000000000000000000000000000000000000000000000000000000000000a01dcc4de8dec75d7aab85b567b6ccd41ad312451b948a7413f0a142fd40d49347942adc25665018aa1fe0e6bc666dac8fc2697ff9baa02ba54e1f096f181cbd01a69dc23f4b60c53d41838ed962a5bacd1e9f0a8522b8a056e81f171bcc55a6ff8345e692c0f86e5b48e01b996cadc001622fb5e363b421a056e81f171bcc55a6ff8345e692c0f86e5b48e01b996cadc001622fb5e363b421b9010000000000000000000000000000000000000000000000000000000000000000000000000000000000000000000000000000000000000000000000000000000000000000000000000000000000000000000000000000000000000000000000000000000000000000000000000000000000000000000000000000000000000000000000000000000000000000000000000000000000000000000000000000000000000000000000000000000000000000000000000000000000000000000000000000000000000000000000000000000000000000000000000000000000000000000000000000000000000000000000000000000000000000000000000000000000830200008083989680808203b642a056e81f171bcc55a6ff8345e692c0f86e5b48e01b996cadc001622fb5e363b421880102030405060708c0c0",
        "lastblockhash" : "0xef79e1f59b81fc6ef406c1e68f3d89386ab514b7d5b3fb240459ab2cb934310a",
        "network" : "Byzantium",
        "postState" : {
            "0x2adc25665018aa1fe0e6bc666dac8fc2697ff9ba" : {
                "balance" : "0x29a2241af62cd2f0",
                "code" : "",
                "nonce" : "0x00",
                "storage" : {
                }
            },
            "0x6295ee1b4f6dd65047762f924ecd367c17eabf8f" : {
                "balance" : "0x00",
                "code" : "",
                "nonce" : "0x01",
                "storage" : {
                }
            },
            "0xa94f5374fce5edbc8e2a8697c15331677e6ebf0b" : {
                "balance" : "0xe8d4a43d10",
                "code" : "",
                "nonce" : "0x01",
                "storage" : {
                }
            }
        },
        "pre" : {
            "0x6295ee1b4f6dd65047762f924ecd367c17eabf8f" : {
                "balance" : "0x00",
                "code" : "",
                "nonce" : "0x01",
                "storage" : {
                }
            },
            "0xa94f5374fce5edbc8e2a8697c15331677e6ebf0b" : {
                "balance" : "0xe8d4a51000",
                "code" : "",
                "nonce" : "0x00",
                "storage" : {
                }
            }
        }
    },
    "TransactionCollisionToEmptyButNonce_d0g1v0_EIP150" : {
        "_info" : {
            "comment" : "",
            "filledwith" : "cpp-1.3.0+commit.6e0ce939.Linux.g++",
            "lllcversion" : "Version: 0.4.18-develop.2017.9.25+commit.a72237f2.Linux.g++",
            "source" : "src/BlockchainTestsFiller/GeneralStateTests/stCreateTest/TransactionCollisionToEmptyButNonce_d0g1v0Filler.json",
            "sourceHash" : "a4cefce182adb3cb3387ec704e66fbb61e19d74416d006ce017d6c5f872207c5"
        },
        "blocks" : [
            {
                "blockHeader" : {
                    "bloom" : "0x00000000000000000000000000000000000000000000000000000000000000000000000000000000000000000000000000000000000000000000000000000000000000000000000000000000000000000000000000000000000000000000000000000000000000000000000000000000000000000000000000000000000000000000000000000000000000000000000000000000000000000000000000000000000000000000000000000000000000000000000000000000000000000000000000000000000000000000000000000000000000000000000000000000000000000000000000000000000000000000000000000000000000000000000000000000",
                    "coinbase" : "0x2adc25665018aa1fe0e6bc666dac8fc2697ff9ba",
                    "difficulty" : "0x020000",
                    "extraData" : "",
                    "gasLimit" : "0x989680",
                    "gasUsed" : "0xd2f0",
                    "hash" : "0x711c217eb688b205443012d93ebb9ee7fc06b5be9d21289f98e3631775b0cb0a",
                    "mixHash" : "0xe496fd843f42ee4646ee7d5cfc16dc1bf82e0b0d960982c2f16149d27be38020",
                    "nonce" : "0xac39716fdd1773e3",
                    "number" : "0x01",
                    "parentHash" : "0x956926515400edf7d589e37a9ad23e428626f9573f1ff4e6bf20ccb3b7712604",
                    "receiptTrie" : "0x173e9a2412bd28923a38ead449656929e5c89ce2b2cee7b69ee2662b9f657936",
                    "stateRoot" : "0x330525cc0013cd6c1c687783cc6c80cb1d2eb9ab24f16c26346435e7638efd9a",
                    "timestamp" : "0x03e8",
                    "transactionsTrie" : "0x58412d03f479bf14e44f8d19febf755c585e8d8a149dd02852a15b140ad86cf7",
                    "uncleHash" : "0x1dcc4de8dec75d7aab85b567b6ccd41ad312451b948a7413f0a142fd40d49347"
                },
                "rlp" : "0xf9024ff901f7a0956926515400edf7d589e37a9ad23e428626f9573f1ff4e6bf20ccb3b7712604a01dcc4de8dec75d7aab85b567b6ccd41ad312451b948a7413f0a142fd40d49347942adc25665018aa1fe0e6bc666dac8fc2697ff9baa0330525cc0013cd6c1c687783cc6c80cb1d2eb9ab24f16c26346435e7638efd9aa058412d03f479bf14e44f8d19febf755c585e8d8a149dd02852a15b140ad86cf7a0173e9a2412bd28923a38ead449656929e5c89ce2b2cee7b69ee2662b9f657936b901000000000000000000000000000000000000000000000000000000000000000000000000000000000000000000000000000000000000000000000000000000000000000000000000000000000000000000000000000000000000000000000000000000000000000000000000000000000000000000000000000000000000000000000000000000000000000000000000000000000000000000000000000000000000000000000000000000000000000000000000000000000000000000000000000000000000000000000000000000000000000000000000000000000000000000000000000000000000000000000000000000000000000000000000000000000083020000018398968082d2f08203e880a0e496fd843f42ee4646ee7d5cfc16dc1bf82e0b0d960982c2f16149d27be3802088ac39716fdd1773e3f852f850800182d2f080808560016001551ba0da9449f0116eaad1f78dba5ca2039e6cafd3cfb1e0e0c8989c0a999305370a34a06f9355c76e5c365608f50f79a8cf9c8a454cec44a2a7631556aa23a45c4532ccc0",
                "transactions" : [
                    {
                        "data" : "0x6001600155",
                        "gasLimit" : "0xd2f0",
                        "gasPrice" : "0x01",
                        "nonce" : "0x00",
                        "r" : "0xda9449f0116eaad1f78dba5ca2039e6cafd3cfb1e0e0c8989c0a999305370a34",
                        "s" : "0x6f9355c76e5c365608f50f79a8cf9c8a454cec44a2a7631556aa23a45c4532cc",
                        "to" : "",
                        "v" : "0x1b",
                        "value" : "0x00"
                    }
                ],
                "uncleHeaders" : [
                ]
            }
        ],
        "genesisBlockHeader" : {
            "bloom" : "0x00000000000000000000000000000000000000000000000000000000000000000000000000000000000000000000000000000000000000000000000000000000000000000000000000000000000000000000000000000000000000000000000000000000000000000000000000000000000000000000000000000000000000000000000000000000000000000000000000000000000000000000000000000000000000000000000000000000000000000000000000000000000000000000000000000000000000000000000000000000000000000000000000000000000000000000000000000000000000000000000000000000000000000000000000000000",
            "coinbase" : "0x2adc25665018aa1fe0e6bc666dac8fc2697ff9ba",
            "difficulty" : "0x020000",
            "extraData" : "0x42",
            "gasLimit" : "0x989680",
            "gasUsed" : "0x00",
            "hash" : "0x956926515400edf7d589e37a9ad23e428626f9573f1ff4e6bf20ccb3b7712604",
            "mixHash" : "0x56e81f171bcc55a6ff8345e692c0f86e5b48e01b996cadc001622fb5e363b421",
            "nonce" : "0x0102030405060708",
            "number" : "0x00",
            "parentHash" : "0x0000000000000000000000000000000000000000000000000000000000000000",
            "receiptTrie" : "0x56e81f171bcc55a6ff8345e692c0f86e5b48e01b996cadc001622fb5e363b421",
            "stateRoot" : "0x2ba54e1f096f181cbd01a69dc23f4b60c53d41838ed962a5bacd1e9f0a8522b8",
            "timestamp" : "0x03b6",
            "transactionsTrie" : "0x56e81f171bcc55a6ff8345e692c0f86e5b48e01b996cadc001622fb5e363b421",
            "uncleHash" : "0x1dcc4de8dec75d7aab85b567b6ccd41ad312451b948a7413f0a142fd40d49347"
        },
        "genesisRLP" : "0xf901faf901f5a00000000000000000000000000000000000000000000000000000000000000000a01dcc4de8dec75d7aab85b567b6ccd41ad312451b948a7413f0a142fd40d49347942adc25665018aa1fe0e6bc666dac8fc2697ff9baa02ba54e1f096f181cbd01a69dc23f4b60c53d41838ed962a5bacd1e9f0a8522b8a056e81f171bcc55a6ff8345e692c0f86e5b48e01b996cadc001622fb5e363b421a056e81f171bcc55a6ff8345e692c0f86e5b48e01b996cadc001622fb5e363b421b9010000000000000000000000000000000000000000000000000000000000000000000000000000000000000000000000000000000000000000000000000000000000000000000000000000000000000000000000000000000000000000000000000000000000000000000000000000000000000000000000000000000000000000000000000000000000000000000000000000000000000000000000000000000000000000000000000000000000000000000000000000000000000000000000000000000000000000000000000000000000000000000000000000000000000000000000000000000000000000000000000000000000000000000000000000000000830200008083989680808203b642a056e81f171bcc55a6ff8345e692c0f86e5b48e01b996cadc001622fb5e363b421880102030405060708c0c0",
        "lastblockhash" : "0x711c217eb688b205443012d93ebb9ee7fc06b5be9d21289f98e3631775b0cb0a",
        "network" : "EIP150",
        "postState" : {
            "0x2adc25665018aa1fe0e6bc666dac8fc2697ff9ba" : {
                "balance" : "0x4563918244f4d2f0",
                "code" : "",
                "nonce" : "0x00",
                "storage" : {
                }
            },
            "0x6295ee1b4f6dd65047762f924ecd367c17eabf8f" : {
                "balance" : "0x00",
                "code" : "",
                "nonce" : "0x01",
                "storage" : {
                }
            },
            "0xa94f5374fce5edbc8e2a8697c15331677e6ebf0b" : {
                "balance" : "0xe8d4a43d10",
                "code" : "",
                "nonce" : "0x01",
                "storage" : {
                }
            }
        },
        "pre" : {
            "0x6295ee1b4f6dd65047762f924ecd367c17eabf8f" : {
                "balance" : "0x00",
                "code" : "",
                "nonce" : "0x01",
                "storage" : {
                }
            },
            "0xa94f5374fce5edbc8e2a8697c15331677e6ebf0b" : {
                "balance" : "0xe8d4a51000",
                "code" : "",
                "nonce" : "0x00",
                "storage" : {
                }
            }
        }
    },
    "TransactionCollisionToEmptyButNonce_d0g1v0_EIP158" : {
        "_info" : {
            "comment" : "",
            "filledwith" : "cpp-1.3.0+commit.6e0ce939.Linux.g++",
            "lllcversion" : "Version: 0.4.18-develop.2017.9.25+commit.a72237f2.Linux.g++",
            "source" : "src/BlockchainTestsFiller/GeneralStateTests/stCreateTest/TransactionCollisionToEmptyButNonce_d0g1v0Filler.json",
            "sourceHash" : "a4cefce182adb3cb3387ec704e66fbb61e19d74416d006ce017d6c5f872207c5"
        },
        "blocks" : [
            {
                "blockHeader" : {
                    "bloom" : "0x00000000000000000000000000000000000000000000000000000000000000000000000000000000000000000000000000000000000000000000000000000000000000000000000000000000000000000000000000000000000000000000000000000000000000000000000000000000000000000000000000000000000000000000000000000000000000000000000000000000000000000000000000000000000000000000000000000000000000000000000000000000000000000000000000000000000000000000000000000000000000000000000000000000000000000000000000000000000000000000000000000000000000000000000000000000",
                    "coinbase" : "0x2adc25665018aa1fe0e6bc666dac8fc2697ff9ba",
                    "difficulty" : "0x020000",
                    "extraData" : "",
                    "gasLimit" : "0x989680",
                    "gasUsed" : "0xd2f0",
                    "hash" : "0x4bfcec560fb7eb085b6dc989da3ddb3cd87e396fd38dcc1d2d69bc00c988fa9f",
                    "mixHash" : "0xa086ad082513ca5742650ac5e62f9d9e3bffbbc8dc9423281b0e00602f2c1b1c",
                    "nonce" : "0x3cae4efc1eba3a8e",
                    "number" : "0x01",
                    "parentHash" : "0x956926515400edf7d589e37a9ad23e428626f9573f1ff4e6bf20ccb3b7712604",
                    "receiptTrie" : "0x173e9a2412bd28923a38ead449656929e5c89ce2b2cee7b69ee2662b9f657936",
                    "stateRoot" : "0x330525cc0013cd6c1c687783cc6c80cb1d2eb9ab24f16c26346435e7638efd9a",
                    "timestamp" : "0x03e8",
                    "transactionsTrie" : "0x58412d03f479bf14e44f8d19febf755c585e8d8a149dd02852a15b140ad86cf7",
                    "uncleHash" : "0x1dcc4de8dec75d7aab85b567b6ccd41ad312451b948a7413f0a142fd40d49347"
                },
                "rlp" : "0xf9024ff901f7a0956926515400edf7d589e37a9ad23e428626f9573f1ff4e6bf20ccb3b7712604a01dcc4de8dec75d7aab85b567b6ccd41ad312451b948a7413f0a142fd40d49347942adc25665018aa1fe0e6bc666dac8fc2697ff9baa0330525cc0013cd6c1c687783cc6c80cb1d2eb9ab24f16c26346435e7638efd9aa058412d03f479bf14e44f8d19febf755c585e8d8a149dd02852a15b140ad86cf7a0173e9a2412bd28923a38ead449656929e5c89ce2b2cee7b69ee2662b9f657936b901000000000000000000000000000000000000000000000000000000000000000000000000000000000000000000000000000000000000000000000000000000000000000000000000000000000000000000000000000000000000000000000000000000000000000000000000000000000000000000000000000000000000000000000000000000000000000000000000000000000000000000000000000000000000000000000000000000000000000000000000000000000000000000000000000000000000000000000000000000000000000000000000000000000000000000000000000000000000000000000000000000000000000000000000000000000083020000018398968082d2f08203e880a0a086ad082513ca5742650ac5e62f9d9e3bffbbc8dc9423281b0e00602f2c1b1c883cae4efc1eba3a8ef852f850800182d2f080808560016001551ba0da9449f0116eaad1f78dba5ca2039e6cafd3cfb1e0e0c8989c0a999305370a34a06f9355c76e5c365608f50f79a8cf9c8a454cec44a2a7631556aa23a45c4532ccc0",
                "transactions" : [
                    {
                        "data" : "0x6001600155",
                        "gasLimit" : "0xd2f0",
                        "gasPrice" : "0x01",
                        "nonce" : "0x00",
                        "r" : "0xda9449f0116eaad1f78dba5ca2039e6cafd3cfb1e0e0c8989c0a999305370a34",
                        "s" : "0x6f9355c76e5c365608f50f79a8cf9c8a454cec44a2a7631556aa23a45c4532cc",
                        "to" : "",
                        "v" : "0x1b",
                        "value" : "0x00"
                    }
                ],
                "uncleHeaders" : [
                ]
            }
        ],
        "genesisBlockHeader" : {
            "bloom" : "0x00000000000000000000000000000000000000000000000000000000000000000000000000000000000000000000000000000000000000000000000000000000000000000000000000000000000000000000000000000000000000000000000000000000000000000000000000000000000000000000000000000000000000000000000000000000000000000000000000000000000000000000000000000000000000000000000000000000000000000000000000000000000000000000000000000000000000000000000000000000000000000000000000000000000000000000000000000000000000000000000000000000000000000000000000000000",
            "coinbase" : "0x2adc25665018aa1fe0e6bc666dac8fc2697ff9ba",
            "difficulty" : "0x020000",
            "extraData" : "0x42",
            "gasLimit" : "0x989680",
            "gasUsed" : "0x00",
            "hash" : "0x956926515400edf7d589e37a9ad23e428626f9573f1ff4e6bf20ccb3b7712604",
            "mixHash" : "0x56e81f171bcc55a6ff8345e692c0f86e5b48e01b996cadc001622fb5e363b421",
            "nonce" : "0x0102030405060708",
            "number" : "0x00",
            "parentHash" : "0x0000000000000000000000000000000000000000000000000000000000000000",
            "receiptTrie" : "0x56e81f171bcc55a6ff8345e692c0f86e5b48e01b996cadc001622fb5e363b421",
            "stateRoot" : "0x2ba54e1f096f181cbd01a69dc23f4b60c53d41838ed962a5bacd1e9f0a8522b8",
            "timestamp" : "0x03b6",
            "transactionsTrie" : "0x56e81f171bcc55a6ff8345e692c0f86e5b48e01b996cadc001622fb5e363b421",
            "uncleHash" : "0x1dcc4de8dec75d7aab85b567b6ccd41ad312451b948a7413f0a142fd40d49347"
        },
        "genesisRLP" : "0xf901faf901f5a00000000000000000000000000000000000000000000000000000000000000000a01dcc4de8dec75d7aab85b567b6ccd41ad312451b948a7413f0a142fd40d49347942adc25665018aa1fe0e6bc666dac8fc2697ff9baa02ba54e1f096f181cbd01a69dc23f4b60c53d41838ed962a5bacd1e9f0a8522b8a056e81f171bcc55a6ff8345e692c0f86e5b48e01b996cadc001622fb5e363b421a056e81f171bcc55a6ff8345e692c0f86e5b48e01b996cadc001622fb5e363b421b9010000000000000000000000000000000000000000000000000000000000000000000000000000000000000000000000000000000000000000000000000000000000000000000000000000000000000000000000000000000000000000000000000000000000000000000000000000000000000000000000000000000000000000000000000000000000000000000000000000000000000000000000000000000000000000000000000000000000000000000000000000000000000000000000000000000000000000000000000000000000000000000000000000000000000000000000000000000000000000000000000000000000000000000000000000000000830200008083989680808203b642a056e81f171bcc55a6ff8345e692c0f86e5b48e01b996cadc001622fb5e363b421880102030405060708c0c0",
        "lastblockhash" : "0x4bfcec560fb7eb085b6dc989da3ddb3cd87e396fd38dcc1d2d69bc00c988fa9f",
        "network" : "EIP158",
        "postState" : {
            "0x2adc25665018aa1fe0e6bc666dac8fc2697ff9ba" : {
                "balance" : "0x4563918244f4d2f0",
                "code" : "",
                "nonce" : "0x00",
                "storage" : {
                }
            },
            "0x6295ee1b4f6dd65047762f924ecd367c17eabf8f" : {
                "balance" : "0x00",
                "code" : "",
                "nonce" : "0x01",
                "storage" : {
                }
            },
            "0xa94f5374fce5edbc8e2a8697c15331677e6ebf0b" : {
                "balance" : "0xe8d4a43d10",
                "code" : "",
                "nonce" : "0x01",
                "storage" : {
                }
            }
        },
        "pre" : {
            "0x6295ee1b4f6dd65047762f924ecd367c17eabf8f" : {
                "balance" : "0x00",
                "code" : "",
                "nonce" : "0x01",
                "storage" : {
                }
            },
            "0xa94f5374fce5edbc8e2a8697c15331677e6ebf0b" : {
                "balance" : "0xe8d4a51000",
                "code" : "",
                "nonce" : "0x00",
                "storage" : {
                }
            }
        }
    },
    "TransactionCollisionToEmptyButNonce_d0g1v0_Frontier" : {
        "_info" : {
            "comment" : "",
            "filledwith" : "cpp-1.3.0+commit.6e0ce939.Linux.g++",
            "lllcversion" : "Version: 0.4.18-develop.2017.9.25+commit.a72237f2.Linux.g++",
            "source" : "src/BlockchainTestsFiller/GeneralStateTests/stCreateTest/TransactionCollisionToEmptyButNonce_d0g1v0Filler.json",
            "sourceHash" : "a4cefce182adb3cb3387ec704e66fbb61e19d74416d006ce017d6c5f872207c5"
        },
        "blocks" : [
            {
                "blockHeader" : {
                    "bloom" : "0x00000000000000000000000000000000000000000000000000000000000000000000000000000000000000000000000000000000000000000000000000000000000000000000000000000000000000000000000000000000000000000000000000000000000000000000000000000000000000000000000000000000000000000000000000000000000000000000000000000000000000000000000000000000000000000000000000000000000000000000000000000000000000000000000000000000000000000000000000000000000000000000000000000000000000000000000000000000000000000000000000000000000000000000000000000000",
                    "coinbase" : "0x2adc25665018aa1fe0e6bc666dac8fc2697ff9ba",
                    "difficulty" : "0x020000",
                    "extraData" : "",
                    "gasLimit" : "0x989680",
                    "gasUsed" : "0xd2f0",
                    "hash" : "0x5a2c096537795446d2171022de46d30785b73932858ccc09753001e19be2c985",
                    "mixHash" : "0xa86482c6b89e5ea603b0dfa74eefa3833c6771150289c67ab1a92e4a12e5467a",
                    "nonce" : "0x6c4a2b24d3665b0e",
                    "number" : "0x01",
                    "parentHash" : "0x956926515400edf7d589e37a9ad23e428626f9573f1ff4e6bf20ccb3b7712604",
                    "receiptTrie" : "0x173e9a2412bd28923a38ead449656929e5c89ce2b2cee7b69ee2662b9f657936",
                    "stateRoot" : "0x330525cc0013cd6c1c687783cc6c80cb1d2eb9ab24f16c26346435e7638efd9a",
                    "timestamp" : "0x03e8",
                    "transactionsTrie" : "0x58412d03f479bf14e44f8d19febf755c585e8d8a149dd02852a15b140ad86cf7",
                    "uncleHash" : "0x1dcc4de8dec75d7aab85b567b6ccd41ad312451b948a7413f0a142fd40d49347"
                },
                "rlp" : "0xf9024ff901f7a0956926515400edf7d589e37a9ad23e428626f9573f1ff4e6bf20ccb3b7712604a01dcc4de8dec75d7aab85b567b6ccd41ad312451b948a7413f0a142fd40d49347942adc25665018aa1fe0e6bc666dac8fc2697ff9baa0330525cc0013cd6c1c687783cc6c80cb1d2eb9ab24f16c26346435e7638efd9aa058412d03f479bf14e44f8d19febf755c585e8d8a149dd02852a15b140ad86cf7a0173e9a2412bd28923a38ead449656929e5c89ce2b2cee7b69ee2662b9f657936b901000000000000000000000000000000000000000000000000000000000000000000000000000000000000000000000000000000000000000000000000000000000000000000000000000000000000000000000000000000000000000000000000000000000000000000000000000000000000000000000000000000000000000000000000000000000000000000000000000000000000000000000000000000000000000000000000000000000000000000000000000000000000000000000000000000000000000000000000000000000000000000000000000000000000000000000000000000000000000000000000000000000000000000000000000000000083020000018398968082d2f08203e880a0a86482c6b89e5ea603b0dfa74eefa3833c6771150289c67ab1a92e4a12e5467a886c4a2b24d3665b0ef852f850800182d2f080808560016001551ba0da9449f0116eaad1f78dba5ca2039e6cafd3cfb1e0e0c8989c0a999305370a34a06f9355c76e5c365608f50f79a8cf9c8a454cec44a2a7631556aa23a45c4532ccc0",
                "transactions" : [
                    {
                        "data" : "0x6001600155",
                        "gasLimit" : "0xd2f0",
                        "gasPrice" : "0x01",
                        "nonce" : "0x00",
                        "r" : "0xda9449f0116eaad1f78dba5ca2039e6cafd3cfb1e0e0c8989c0a999305370a34",
                        "s" : "0x6f9355c76e5c365608f50f79a8cf9c8a454cec44a2a7631556aa23a45c4532cc",
                        "to" : "",
                        "v" : "0x1b",
                        "value" : "0x00"
                    }
                ],
                "uncleHeaders" : [
                ]
            }
        ],
        "genesisBlockHeader" : {
            "bloom" : "0x00000000000000000000000000000000000000000000000000000000000000000000000000000000000000000000000000000000000000000000000000000000000000000000000000000000000000000000000000000000000000000000000000000000000000000000000000000000000000000000000000000000000000000000000000000000000000000000000000000000000000000000000000000000000000000000000000000000000000000000000000000000000000000000000000000000000000000000000000000000000000000000000000000000000000000000000000000000000000000000000000000000000000000000000000000000",
            "coinbase" : "0x2adc25665018aa1fe0e6bc666dac8fc2697ff9ba",
            "difficulty" : "0x020000",
            "extraData" : "0x42",
            "gasLimit" : "0x989680",
            "gasUsed" : "0x00",
            "hash" : "0x956926515400edf7d589e37a9ad23e428626f9573f1ff4e6bf20ccb3b7712604",
            "mixHash" : "0x56e81f171bcc55a6ff8345e692c0f86e5b48e01b996cadc001622fb5e363b421",
            "nonce" : "0x0102030405060708",
            "number" : "0x00",
            "parentHash" : "0x0000000000000000000000000000000000000000000000000000000000000000",
            "receiptTrie" : "0x56e81f171bcc55a6ff8345e692c0f86e5b48e01b996cadc001622fb5e363b421",
            "stateRoot" : "0x2ba54e1f096f181cbd01a69dc23f4b60c53d41838ed962a5bacd1e9f0a8522b8",
            "timestamp" : "0x03b6",
            "transactionsTrie" : "0x56e81f171bcc55a6ff8345e692c0f86e5b48e01b996cadc001622fb5e363b421",
            "uncleHash" : "0x1dcc4de8dec75d7aab85b567b6ccd41ad312451b948a7413f0a142fd40d49347"
        },
        "genesisRLP" : "0xf901faf901f5a00000000000000000000000000000000000000000000000000000000000000000a01dcc4de8dec75d7aab85b567b6ccd41ad312451b948a7413f0a142fd40d49347942adc25665018aa1fe0e6bc666dac8fc2697ff9baa02ba54e1f096f181cbd01a69dc23f4b60c53d41838ed962a5bacd1e9f0a8522b8a056e81f171bcc55a6ff8345e692c0f86e5b48e01b996cadc001622fb5e363b421a056e81f171bcc55a6ff8345e692c0f86e5b48e01b996cadc001622fb5e363b421b9010000000000000000000000000000000000000000000000000000000000000000000000000000000000000000000000000000000000000000000000000000000000000000000000000000000000000000000000000000000000000000000000000000000000000000000000000000000000000000000000000000000000000000000000000000000000000000000000000000000000000000000000000000000000000000000000000000000000000000000000000000000000000000000000000000000000000000000000000000000000000000000000000000000000000000000000000000000000000000000000000000000000000000000000000000000000830200008083989680808203b642a056e81f171bcc55a6ff8345e692c0f86e5b48e01b996cadc001622fb5e363b421880102030405060708c0c0",
        "lastblockhash" : "0x5a2c096537795446d2171022de46d30785b73932858ccc09753001e19be2c985",
        "network" : "Frontier",
        "postState" : {
            "0x2adc25665018aa1fe0e6bc666dac8fc2697ff9ba" : {
                "balance" : "0x4563918244f4d2f0",
                "code" : "",
                "nonce" : "0x00",
                "storage" : {
                }
            },
            "0x6295ee1b4f6dd65047762f924ecd367c17eabf8f" : {
                "balance" : "0x00",
                "code" : "",
                "nonce" : "0x01",
                "storage" : {
                }
            },
            "0xa94f5374fce5edbc8e2a8697c15331677e6ebf0b" : {
                "balance" : "0xe8d4a43d10",
                "code" : "",
                "nonce" : "0x01",
                "storage" : {
                }
            }
        },
        "pre" : {
            "0x6295ee1b4f6dd65047762f924ecd367c17eabf8f" : {
                "balance" : "0x00",
                "code" : "",
                "nonce" : "0x01",
                "storage" : {
                }
            },
            "0xa94f5374fce5edbc8e2a8697c15331677e6ebf0b" : {
                "balance" : "0xe8d4a51000",
                "code" : "",
                "nonce" : "0x00",
                "storage" : {
                }
            }
        }
    },
    "TransactionCollisionToEmptyButNonce_d0g1v0_Homestead" : {
        "_info" : {
            "comment" : "",
            "filledwith" : "cpp-1.3.0+commit.6e0ce939.Linux.g++",
            "lllcversion" : "Version: 0.4.18-develop.2017.9.25+commit.a72237f2.Linux.g++",
            "source" : "src/BlockchainTestsFiller/GeneralStateTests/stCreateTest/TransactionCollisionToEmptyButNonce_d0g1v0Filler.json",
            "sourceHash" : "a4cefce182adb3cb3387ec704e66fbb61e19d74416d006ce017d6c5f872207c5"
        },
        "blocks" : [
            {
                "blockHeader" : {
                    "bloom" : "0x00000000000000000000000000000000000000000000000000000000000000000000000000000000000000000000000000000000000000000000000000000000000000000000000000000000000000000000000000000000000000000000000000000000000000000000000000000000000000000000000000000000000000000000000000000000000000000000000000000000000000000000000000000000000000000000000000000000000000000000000000000000000000000000000000000000000000000000000000000000000000000000000000000000000000000000000000000000000000000000000000000000000000000000000000000000",
                    "coinbase" : "0x2adc25665018aa1fe0e6bc666dac8fc2697ff9ba",
                    "difficulty" : "0x020000",
                    "extraData" : "",
                    "gasLimit" : "0x989680",
                    "gasUsed" : "0xd2f0",
                    "hash" : "0x43ef8e9e6b2aad1696f34fc68ec3aab6ca69130af089620d5d21a8cbf2e17198",
                    "mixHash" : "0xb2631f8072298fc9f5972d1379a556c6bb33046c51b720c63e6a2378a52755c0",
                    "nonce" : "0x8f63a753f21060e1",
                    "number" : "0x01",
                    "parentHash" : "0x956926515400edf7d589e37a9ad23e428626f9573f1ff4e6bf20ccb3b7712604",
                    "receiptTrie" : "0x173e9a2412bd28923a38ead449656929e5c89ce2b2cee7b69ee2662b9f657936",
                    "stateRoot" : "0x330525cc0013cd6c1c687783cc6c80cb1d2eb9ab24f16c26346435e7638efd9a",
                    "timestamp" : "0x03e8",
                    "transactionsTrie" : "0x58412d03f479bf14e44f8d19febf755c585e8d8a149dd02852a15b140ad86cf7",
                    "uncleHash" : "0x1dcc4de8dec75d7aab85b567b6ccd41ad312451b948a7413f0a142fd40d49347"
                },
                "rlp" : "0xf9024ff901f7a0956926515400edf7d589e37a9ad23e428626f9573f1ff4e6bf20ccb3b7712604a01dcc4de8dec75d7aab85b567b6ccd41ad312451b948a7413f0a142fd40d49347942adc25665018aa1fe0e6bc666dac8fc2697ff9baa0330525cc0013cd6c1c687783cc6c80cb1d2eb9ab24f16c26346435e7638efd9aa058412d03f479bf14e44f8d19febf755c585e8d8a149dd02852a15b140ad86cf7a0173e9a2412bd28923a38ead449656929e5c89ce2b2cee7b69ee2662b9f657936b901000000000000000000000000000000000000000000000000000000000000000000000000000000000000000000000000000000000000000000000000000000000000000000000000000000000000000000000000000000000000000000000000000000000000000000000000000000000000000000000000000000000000000000000000000000000000000000000000000000000000000000000000000000000000000000000000000000000000000000000000000000000000000000000000000000000000000000000000000000000000000000000000000000000000000000000000000000000000000000000000000000000000000000000000000000000083020000018398968082d2f08203e880a0b2631f8072298fc9f5972d1379a556c6bb33046c51b720c63e6a2378a52755c0888f63a753f21060e1f852f850800182d2f080808560016001551ba0da9449f0116eaad1f78dba5ca2039e6cafd3cfb1e0e0c8989c0a999305370a34a06f9355c76e5c365608f50f79a8cf9c8a454cec44a2a7631556aa23a45c4532ccc0",
                "transactions" : [
                    {
                        "data" : "0x6001600155",
                        "gasLimit" : "0xd2f0",
                        "gasPrice" : "0x01",
                        "nonce" : "0x00",
                        "r" : "0xda9449f0116eaad1f78dba5ca2039e6cafd3cfb1e0e0c8989c0a999305370a34",
                        "s" : "0x6f9355c76e5c365608f50f79a8cf9c8a454cec44a2a7631556aa23a45c4532cc",
                        "to" : "",
                        "v" : "0x1b",
                        "value" : "0x00"
                    }
                ],
                "uncleHeaders" : [
                ]
            }
        ],
        "genesisBlockHeader" : {
            "bloom" : "0x00000000000000000000000000000000000000000000000000000000000000000000000000000000000000000000000000000000000000000000000000000000000000000000000000000000000000000000000000000000000000000000000000000000000000000000000000000000000000000000000000000000000000000000000000000000000000000000000000000000000000000000000000000000000000000000000000000000000000000000000000000000000000000000000000000000000000000000000000000000000000000000000000000000000000000000000000000000000000000000000000000000000000000000000000000000",
            "coinbase" : "0x2adc25665018aa1fe0e6bc666dac8fc2697ff9ba",
            "difficulty" : "0x020000",
            "extraData" : "0x42",
            "gasLimit" : "0x989680",
            "gasUsed" : "0x00",
            "hash" : "0x956926515400edf7d589e37a9ad23e428626f9573f1ff4e6bf20ccb3b7712604",
            "mixHash" : "0x56e81f171bcc55a6ff8345e692c0f86e5b48e01b996cadc001622fb5e363b421",
            "nonce" : "0x0102030405060708",
            "number" : "0x00",
            "parentHash" : "0x0000000000000000000000000000000000000000000000000000000000000000",
            "receiptTrie" : "0x56e81f171bcc55a6ff8345e692c0f86e5b48e01b996cadc001622fb5e363b421",
            "stateRoot" : "0x2ba54e1f096f181cbd01a69dc23f4b60c53d41838ed962a5bacd1e9f0a8522b8",
            "timestamp" : "0x03b6",
            "transactionsTrie" : "0x56e81f171bcc55a6ff8345e692c0f86e5b48e01b996cadc001622fb5e363b421",
            "uncleHash" : "0x1dcc4de8dec75d7aab85b567b6ccd41ad312451b948a7413f0a142fd40d49347"
        },
        "genesisRLP" : "0xf901faf901f5a00000000000000000000000000000000000000000000000000000000000000000a01dcc4de8dec75d7aab85b567b6ccd41ad312451b948a7413f0a142fd40d49347942adc25665018aa1fe0e6bc666dac8fc2697ff9baa02ba54e1f096f181cbd01a69dc23f4b60c53d41838ed962a5bacd1e9f0a8522b8a056e81f171bcc55a6ff8345e692c0f86e5b48e01b996cadc001622fb5e363b421a056e81f171bcc55a6ff8345e692c0f86e5b48e01b996cadc001622fb5e363b421b9010000000000000000000000000000000000000000000000000000000000000000000000000000000000000000000000000000000000000000000000000000000000000000000000000000000000000000000000000000000000000000000000000000000000000000000000000000000000000000000000000000000000000000000000000000000000000000000000000000000000000000000000000000000000000000000000000000000000000000000000000000000000000000000000000000000000000000000000000000000000000000000000000000000000000000000000000000000000000000000000000000000000000000000000000000000000830200008083989680808203b642a056e81f171bcc55a6ff8345e692c0f86e5b48e01b996cadc001622fb5e363b421880102030405060708c0c0",
        "lastblockhash" : "0x43ef8e9e6b2aad1696f34fc68ec3aab6ca69130af089620d5d21a8cbf2e17198",
        "network" : "Homestead",
        "postState" : {
            "0x2adc25665018aa1fe0e6bc666dac8fc2697ff9ba" : {
                "balance" : "0x4563918244f4d2f0",
                "code" : "",
                "nonce" : "0x00",
                "storage" : {
                }
            },
            "0x6295ee1b4f6dd65047762f924ecd367c17eabf8f" : {
                "balance" : "0x00",
                "code" : "",
                "nonce" : "0x01",
                "storage" : {
                }
            },
            "0xa94f5374fce5edbc8e2a8697c15331677e6ebf0b" : {
                "balance" : "0xe8d4a43d10",
                "code" : "",
                "nonce" : "0x01",
                "storage" : {
                }
            }
        },
        "pre" : {
            "0x6295ee1b4f6dd65047762f924ecd367c17eabf8f" : {
                "balance" : "0x00",
                "code" : "",
                "nonce" : "0x01",
                "storage" : {
                }
            },
            "0xa94f5374fce5edbc8e2a8697c15331677e6ebf0b" : {
                "balance" : "0xe8d4a51000",
                "code" : "",
                "nonce" : "0x00",
                "storage" : {
                }
            }
        }
    }
}