{
    "TransactionCollisionToEmptyButCode_d0g0v1_Byzantium" : {
        "_info" : {
            "comment" : "",
            "filledwith" : "cpp-1.3.0+commit.6e0ce939.Linux.g++",
            "lllcversion" : "Version: 0.4.18-develop.2017.9.25+commit.a72237f2.Linux.g++",
            "source" : "src/BlockchainTestsFiller/GeneralStateTests/stCreateTest/TransactionCollisionToEmptyButCode_d0g0v1Filler.json",
            "sourceHash" : "eb0ad439e10e4a452d7015ab50a2781ae2e7a81cb0d037c9c4abc7043a2e99c0"
        },
        "blocks" : [
            {
                "blockHeader" : {
                    "bloom" : "0x00000000000000000000000000000000000000000000000000000000000000000000000000000000000000000000000000000000000000000000000000000000000000000000000000000000000000000000000000000000000000000000000000000000000000000000000000000000000000000000000000000000000000000000000000000000000000000000000000000000000000000000000000000000000000000000000000000000000000000000000000000000000000000000000000000000000000000000000000000000000000000000000000000000000000000000000000000000000000000000000000000000000000000000000000000000",
                    "coinbase" : "0x2adc25665018aa1fe0e6bc666dac8fc2697ff9ba",
                    "difficulty" : "0x020000",
                    "extraData" : "",
                    "gasLimit" : "0x989680",
                    "gasUsed" : "0x0927c0",
                    "hash" : "0x3f474d2c5457e41975f5c27e53f68fd55aecb535559ec471bffe23270fd3809e",
                    "mixHash" : "0xa9574859e66958796bb4e80449c47293fae2346a642629b91909b89ff2ae123c",
                    "nonce" : "0x9a8c69f3fe684be1",
                    "number" : "0x01",
                    "parentHash" : "0x85fb093090e83a4e9a429b3e3c7cea40e0c67d789bcc427481b7119719ecddd9",
                    "receiptTrie" : "0x498b3877860df644cfd4fcc2e12bc89f717e8618d276fe033ca9152312997215",
                    "stateRoot" : "0xf1dcc5ff5a997011b04ea9400f71772066883f26797a2dc5aa430974d9f2b542",
                    "timestamp" : "0x03e8",
                    "transactionsTrie" : "0x301d47c121a1aa010b52e8bc365101e2ff381ace8d24e528e6463ce3a16e35f5",
                    "uncleHash" : "0x1dcc4de8dec75d7aab85b567b6ccd41ad312451b948a7413f0a142fd40d49347"
                },
                "rlp" : "0xf90251f901f8a085fb093090e83a4e9a429b3e3c7cea40e0c67d789bcc427481b7119719ecddd9a01dcc4de8dec75d7aab85b567b6ccd41ad312451b948a7413f0a142fd40d49347942adc25665018aa1fe0e6bc666dac8fc2697ff9baa0f1dcc5ff5a997011b04ea9400f71772066883f26797a2dc5aa430974d9f2b542a0301d47c121a1aa010b52e8bc365101e2ff381ace8d24e528e6463ce3a16e35f5a0498b3877860df644cfd4fcc2e12bc89f717e8618d276fe033ca9152312997215b9010000000000000000000000000000000000000000000000000000000000000000000000000000000000000000000000000000000000000000000000000000000000000000000000000000000000000000000000000000000000000000000000000000000000000000000000000000000000000000000000000000000000000000000000000000000000000000000000000000000000000000000000000000000000000000000000000000000000000000000000000000000000000000000000000000000000000000000000000000000000000000000000000000000000000000000000000000000000000000000000000000000000000000000000000000000000830200000183989680830927c08203e880a0a9574859e66958796bb4e80449c47293fae2346a642629b91909b89ff2ae123c889a8c69f3fe684be1f853f8518001830927c080018560016001551ba0669bf7108a35b2babdd8d02a2203a0d25bd67f1b8c7c19d5c3ab8eef82b8d8caa0720ffffc96a534ba62bde72c067225ebf8b31fa4ca557feaa557c7d689113a20c0",
                "transactions" : [
                    {
                        "data" : "0x6001600155",
                        "gasLimit" : "0x0927c0",
                        "gasPrice" : "0x01",
                        "nonce" : "0x00",
                        "r" : "0x669bf7108a35b2babdd8d02a2203a0d25bd67f1b8c7c19d5c3ab8eef82b8d8ca",
                        "s" : "0x720ffffc96a534ba62bde72c067225ebf8b31fa4ca557feaa557c7d689113a20",
                        "to" : "",
                        "v" : "0x1b",
                        "value" : "0x01"
                    }
                ],
                "uncleHeaders" : [
                ]
            }
        ],
        "genesisBlockHeader" : {
            "bloom" : "0x00000000000000000000000000000000000000000000000000000000000000000000000000000000000000000000000000000000000000000000000000000000000000000000000000000000000000000000000000000000000000000000000000000000000000000000000000000000000000000000000000000000000000000000000000000000000000000000000000000000000000000000000000000000000000000000000000000000000000000000000000000000000000000000000000000000000000000000000000000000000000000000000000000000000000000000000000000000000000000000000000000000000000000000000000000000",
            "coinbase" : "0x2adc25665018aa1fe0e6bc666dac8fc2697ff9ba",
            "difficulty" : "0x020000",
            "extraData" : "0x42",
            "gasLimit" : "0x989680",
            "gasUsed" : "0x00",
            "hash" : "0x85fb093090e83a4e9a429b3e3c7cea40e0c67d789bcc427481b7119719ecddd9",
            "mixHash" : "0x56e81f171bcc55a6ff8345e692c0f86e5b48e01b996cadc001622fb5e363b421",
            "nonce" : "0x0102030405060708",
            "number" : "0x00",
            "parentHash" : "0x0000000000000000000000000000000000000000000000000000000000000000",
            "receiptTrie" : "0x56e81f171bcc55a6ff8345e692c0f86e5b48e01b996cadc001622fb5e363b421",
            "stateRoot" : "0x1ef57185ddecdc043508eaf666da0b9d9451d184b4c9e384646caa4b6762fb73",
            "timestamp" : "0x03b6",
            "transactionsTrie" : "0x56e81f171bcc55a6ff8345e692c0f86e5b48e01b996cadc001622fb5e363b421",
            "uncleHash" : "0x1dcc4de8dec75d7aab85b567b6ccd41ad312451b948a7413f0a142fd40d49347"
        },
        "genesisRLP" : "0xf901faf901f5a00000000000000000000000000000000000000000000000000000000000000000a01dcc4de8dec75d7aab85b567b6ccd41ad312451b948a7413f0a142fd40d49347942adc25665018aa1fe0e6bc666dac8fc2697ff9baa01ef57185ddecdc043508eaf666da0b9d9451d184b4c9e384646caa4b6762fb73a056e81f171bcc55a6ff8345e692c0f86e5b48e01b996cadc001622fb5e363b421a056e81f171bcc55a6ff8345e692c0f86e5b48e01b996cadc001622fb5e363b421b9010000000000000000000000000000000000000000000000000000000000000000000000000000000000000000000000000000000000000000000000000000000000000000000000000000000000000000000000000000000000000000000000000000000000000000000000000000000000000000000000000000000000000000000000000000000000000000000000000000000000000000000000000000000000000000000000000000000000000000000000000000000000000000000000000000000000000000000000000000000000000000000000000000000000000000000000000000000000000000000000000000000000000000000000000000000000830200008083989680808203b642a056e81f171bcc55a6ff8345e692c0f86e5b48e01b996cadc001622fb5e363b421880102030405060708c0c0",
        "lastblockhash" : "0x3f474d2c5457e41975f5c27e53f68fd55aecb535559ec471bffe23270fd3809e",
        "network" : "Byzantium",
        "postState" : {
            "0x2adc25665018aa1fe0e6bc666dac8fc2697ff9ba" : {
                "balance" : "0x29a2241af63527c0",
                "code" : "",
                "nonce" : "0x00",
                "storage" : {
                }
            },
            "0x6295ee1b4f6dd65047762f924ecd367c17eabf8f" : {
                "balance" : "0x00",
                "code" : "0x1122334455",
                "nonce" : "0x00",
                "storage" : {
                }
            },
            "0xa94f5374fce5edbc8e2a8697c15331677e6ebf0b" : {
                "balance" : "0xe8d49be840",
                "code" : "",
                "nonce" : "0x01",
                "storage" : {
                }
            }
        },
        "pre" : {
            "0x6295ee1b4f6dd65047762f924ecd367c17eabf8f" : {
                "balance" : "0x00",
                "code" : "0x1122334455",
                "nonce" : "0x00",
                "storage" : {
                }
            },
            "0xa94f5374fce5edbc8e2a8697c15331677e6ebf0b" : {
                "balance" : "0xe8d4a51000",
                "code" : "",
                "nonce" : "0x00",
                "storage" : {
                }
            }
        }
    },
    "TransactionCollisionToEmptyButCode_d0g0v1_EIP150" : {
        "_info" : {
            "comment" : "",
            "filledwith" : "cpp-1.3.0+commit.6e0ce939.Linux.g++",
            "lllcversion" : "Version: 0.4.18-develop.2017.9.25+commit.a72237f2.Linux.g++",
            "source" : "src/BlockchainTestsFiller/GeneralStateTests/stCreateTest/TransactionCollisionToEmptyButCode_d0g0v1Filler.json",
            "sourceHash" : "eb0ad439e10e4a452d7015ab50a2781ae2e7a81cb0d037c9c4abc7043a2e99c0"
        },
        "blocks" : [
            {
                "blockHeader" : {
                    "bloom" : "0x00000000000000000000000000000000000000000000000000000000000000000000000000000000000000000000000000000000000000000000000000000000000000000000000000000000000000000000000000000000000000000000000000000000000000000000000000000000000000000000000000000000000000000000000000000000000000000000000000000000000000000000000000000000000000000000000000000000000000000000000000000000000000000000000000000000000000000000000000000000000000000000000000000000000000000000000000000000000000000000000000000000000000000000000000000000",
                    "coinbase" : "0x2adc25665018aa1fe0e6bc666dac8fc2697ff9ba",
                    "difficulty" : "0x020000",
                    "extraData" : "",
                    "gasLimit" : "0x989680",
                    "gasUsed" : "0x0927c0",
                    "hash" : "0xb9ac10da363b495c58a86162fb261aeaa2f7dba269c62a0c8281d41eb9e93abb",
                    "mixHash" : "0x334f21af8f3a9b73b55f8413e6d3f7d5b05d4fa0f6d4b48daa8ec3f35253e279",
                    "nonce" : "0x4be20cef0b51b14e",
                    "number" : "0x01",
                    "parentHash" : "0x85fb093090e83a4e9a429b3e3c7cea40e0c67d789bcc427481b7119719ecddd9",
                    "receiptTrie" : "0x6baf5caf5563950ce3247bd48ccee58d1e44bfd2e1cc09f616ce103f51a5747c",
                    "stateRoot" : "0x6d721e8bc4f0c200340d494b23e80dd7ade439c7b5e8d04b7c8ba2d718c09f7c",
                    "timestamp" : "0x03e8",
                    "transactionsTrie" : "0x301d47c121a1aa010b52e8bc365101e2ff381ace8d24e528e6463ce3a16e35f5",
                    "uncleHash" : "0x1dcc4de8dec75d7aab85b567b6ccd41ad312451b948a7413f0a142fd40d49347"
                },
                "rlp" : "0xf90251f901f8a085fb093090e83a4e9a429b3e3c7cea40e0c67d789bcc427481b7119719ecddd9a01dcc4de8dec75d7aab85b567b6ccd41ad312451b948a7413f0a142fd40d49347942adc25665018aa1fe0e6bc666dac8fc2697ff9baa06d721e8bc4f0c200340d494b23e80dd7ade439c7b5e8d04b7c8ba2d718c09f7ca0301d47c121a1aa010b52e8bc365101e2ff381ace8d24e528e6463ce3a16e35f5a06baf5caf5563950ce3247bd48ccee58d1e44bfd2e1cc09f616ce103f51a5747cb9010000000000000000000000000000000000000000000000000000000000000000000000000000000000000000000000000000000000000000000000000000000000000000000000000000000000000000000000000000000000000000000000000000000000000000000000000000000000000000000000000000000000000000000000000000000000000000000000000000000000000000000000000000000000000000000000000000000000000000000000000000000000000000000000000000000000000000000000000000000000000000000000000000000000000000000000000000000000000000000000000000000000000000000000000000000000830200000183989680830927c08203e880a0334f21af8f3a9b73b55f8413e6d3f7d5b05d4fa0f6d4b48daa8ec3f35253e279884be20cef0b51b14ef853f8518001830927c080018560016001551ba0669bf7108a35b2babdd8d02a2203a0d25bd67f1b8c7c19d5c3ab8eef82b8d8caa0720ffffc96a534ba62bde72c067225ebf8b31fa4ca557feaa557c7d689113a20c0",
                "transactions" : [
                    {
                        "data" : "0x6001600155",
                        "gasLimit" : "0x0927c0",
                        "gasPrice" : "0x01",
                        "nonce" : "0x00",
                        "r" : "0x669bf7108a35b2babdd8d02a2203a0d25bd67f1b8c7c19d5c3ab8eef82b8d8ca",
                        "s" : "0x720ffffc96a534ba62bde72c067225ebf8b31fa4ca557feaa557c7d689113a20",
                        "to" : "",
                        "v" : "0x1b",
                        "value" : "0x01"
                    }
                ],
                "uncleHeaders" : [
                ]
            }
        ],
        "genesisBlockHeader" : {
            "bloom" : "0x00000000000000000000000000000000000000000000000000000000000000000000000000000000000000000000000000000000000000000000000000000000000000000000000000000000000000000000000000000000000000000000000000000000000000000000000000000000000000000000000000000000000000000000000000000000000000000000000000000000000000000000000000000000000000000000000000000000000000000000000000000000000000000000000000000000000000000000000000000000000000000000000000000000000000000000000000000000000000000000000000000000000000000000000000000000",
            "coinbase" : "0x2adc25665018aa1fe0e6bc666dac8fc2697ff9ba",
            "difficulty" : "0x020000",
            "extraData" : "0x42",
            "gasLimit" : "0x989680",
            "gasUsed" : "0x00",
            "hash" : "0x85fb093090e83a4e9a429b3e3c7cea40e0c67d789bcc427481b7119719ecddd9",
            "mixHash" : "0x56e81f171bcc55a6ff8345e692c0f86e5b48e01b996cadc001622fb5e363b421",
            "nonce" : "0x0102030405060708",
            "number" : "0x00",
            "parentHash" : "0x0000000000000000000000000000000000000000000000000000000000000000",
            "receiptTrie" : "0x56e81f171bcc55a6ff8345e692c0f86e5b48e01b996cadc001622fb5e363b421",
            "stateRoot" : "0x1ef57185ddecdc043508eaf666da0b9d9451d184b4c9e384646caa4b6762fb73",
            "timestamp" : "0x03b6",
            "transactionsTrie" : "0x56e81f171bcc55a6ff8345e692c0f86e5b48e01b996cadc001622fb5e363b421",
            "uncleHash" : "0x1dcc4de8dec75d7aab85b567b6ccd41ad312451b948a7413f0a142fd40d49347"
        },
        "genesisRLP" : "0xf901faf901f5a00000000000000000000000000000000000000000000000000000000000000000a01dcc4de8dec75d7aab85b567b6ccd41ad312451b948a7413f0a142fd40d49347942adc25665018aa1fe0e6bc666dac8fc2697ff9baa01ef57185ddecdc043508eaf666da0b9d9451d184b4c9e384646caa4b6762fb73a056e81f171bcc55a6ff8345e692c0f86e5b48e01b996cadc001622fb5e363b421a056e81f171bcc55a6ff8345e692c0f86e5b48e01b996cadc001622fb5e363b421b9010000000000000000000000000000000000000000000000000000000000000000000000000000000000000000000000000000000000000000000000000000000000000000000000000000000000000000000000000000000000000000000000000000000000000000000000000000000000000000000000000000000000000000000000000000000000000000000000000000000000000000000000000000000000000000000000000000000000000000000000000000000000000000000000000000000000000000000000000000000000000000000000000000000000000000000000000000000000000000000000000000000000000000000000000000000000830200008083989680808203b642a056e81f171bcc55a6ff8345e692c0f86e5b48e01b996cadc001622fb5e363b421880102030405060708c0c0",
        "lastblockhash" : "0xb9ac10da363b495c58a86162fb261aeaa2f7dba269c62a0c8281d41eb9e93abb",
        "network" : "EIP150",
        "postState" : {
            "0x2adc25665018aa1fe0e6bc666dac8fc2697ff9ba" : {
                "balance" : "0x4563918244fd27c0",
                "code" : "",
                "nonce" : "0x00",
                "storage" : {
                }
            },
            "0x6295ee1b4f6dd65047762f924ecd367c17eabf8f" : {
                "balance" : "0x00",
                "code" : "0x1122334455",
                "nonce" : "0x00",
                "storage" : {
                }
            },
            "0xa94f5374fce5edbc8e2a8697c15331677e6ebf0b" : {
                "balance" : "0xe8d49be840",
                "code" : "",
                "nonce" : "0x01",
                "storage" : {
                }
            }
        },
        "pre" : {
            "0x6295ee1b4f6dd65047762f924ecd367c17eabf8f" : {
                "balance" : "0x00",
                "code" : "0x1122334455",
                "nonce" : "0x00",
                "storage" : {
                }
            },
            "0xa94f5374fce5edbc8e2a8697c15331677e6ebf0b" : {
                "balance" : "0xe8d4a51000",
                "code" : "",
                "nonce" : "0x00",
                "storage" : {
                }
            }
        }
    },
    "TransactionCollisionToEmptyButCode_d0g0v1_EIP158" : {
        "_info" : {
            "comment" : "",
            "filledwith" : "cpp-1.3.0+commit.6e0ce939.Linux.g++",
            "lllcversion" : "Version: 0.4.18-develop.2017.9.25+commit.a72237f2.Linux.g++",
            "source" : "src/BlockchainTestsFiller/GeneralStateTests/stCreateTest/TransactionCollisionToEmptyButCode_d0g0v1Filler.json",
            "sourceHash" : "eb0ad439e10e4a452d7015ab50a2781ae2e7a81cb0d037c9c4abc7043a2e99c0"
        },
        "blocks" : [
            {
                "blockHeader" : {
                    "bloom" : "0x00000000000000000000000000000000000000000000000000000000000000000000000000000000000000000000000000000000000000000000000000000000000000000000000000000000000000000000000000000000000000000000000000000000000000000000000000000000000000000000000000000000000000000000000000000000000000000000000000000000000000000000000000000000000000000000000000000000000000000000000000000000000000000000000000000000000000000000000000000000000000000000000000000000000000000000000000000000000000000000000000000000000000000000000000000000",
                    "coinbase" : "0x2adc25665018aa1fe0e6bc666dac8fc2697ff9ba",
                    "difficulty" : "0x020000",
                    "extraData" : "",
                    "gasLimit" : "0x989680",
                    "gasUsed" : "0x0927c0",
                    "hash" : "0xc3253533dbecea1fe11cf7d704594c3bfd8819e9ad5b8797b7c71945d96ec686",
                    "mixHash" : "0x9026c443b4dff186f204f358e7ab07677f948dba64eb06fcb058edfc6103c989",
                    "nonce" : "0xc15afdf89445f50a",
                    "number" : "0x01",
                    "parentHash" : "0x85fb093090e83a4e9a429b3e3c7cea40e0c67d789bcc427481b7119719ecddd9",
                    "receiptTrie" : "0x6baf5caf5563950ce3247bd48ccee58d1e44bfd2e1cc09f616ce103f51a5747c",
                    "stateRoot" : "0x6d721e8bc4f0c200340d494b23e80dd7ade439c7b5e8d04b7c8ba2d718c09f7c",
                    "timestamp" : "0x03e8",
                    "transactionsTrie" : "0x301d47c121a1aa010b52e8bc365101e2ff381ace8d24e528e6463ce3a16e35f5",
                    "uncleHash" : "0x1dcc4de8dec75d7aab85b567b6ccd41ad312451b948a7413f0a142fd40d49347"
                },
                "rlp" : "0xf90251f901f8a085fb093090e83a4e9a429b3e3c7cea40e0c67d789bcc427481b7119719ecddd9a01dcc4de8dec75d7aab85b567b6ccd41ad312451b948a7413f0a142fd40d49347942adc25665018aa1fe0e6bc666dac8fc2697ff9baa06d721e8bc4f0c200340d494b23e80dd7ade439c7b5e8d04b7c8ba2d718c09f7ca0301d47c121a1aa010b52e8bc365101e2ff381ace8d24e528e6463ce3a16e35f5a06baf5caf5563950ce3247bd48ccee58d1e44bfd2e1cc09f616ce103f51a5747cb9010000000000000000000000000000000000000000000000000000000000000000000000000000000000000000000000000000000000000000000000000000000000000000000000000000000000000000000000000000000000000000000000000000000000000000000000000000000000000000000000000000000000000000000000000000000000000000000000000000000000000000000000000000000000000000000000000000000000000000000000000000000000000000000000000000000000000000000000000000000000000000000000000000000000000000000000000000000000000000000000000000000000000000000000000000000000830200000183989680830927c08203e880a09026c443b4dff186f204f358e7ab07677f948dba64eb06fcb058edfc6103c98988c15afdf89445f50af853f8518001830927c080018560016001551ba0669bf7108a35b2babdd8d02a2203a0d25bd67f1b8c7c19d5c3ab8eef82b8d8caa0720ffffc96a534ba62bde72c067225ebf8b31fa4ca557feaa557c7d689113a20c0",
                "transactions" : [
                    {
                        "data" : "0x6001600155",
                        "gasLimit" : "0x0927c0",
                        "gasPrice" : "0x01",
                        "nonce" : "0x00",
                        "r" : "0x669bf7108a35b2babdd8d02a2203a0d25bd67f1b8c7c19d5c3ab8eef82b8d8ca",
                        "s" : "0x720ffffc96a534ba62bde72c067225ebf8b31fa4ca557feaa557c7d689113a20",
                        "to" : "",
                        "v" : "0x1b",
                        "value" : "0x01"
                    }
                ],
                "uncleHeaders" : [
                ]
            }
        ],
        "genesisBlockHeader" : {
            "bloom" : "0x00000000000000000000000000000000000000000000000000000000000000000000000000000000000000000000000000000000000000000000000000000000000000000000000000000000000000000000000000000000000000000000000000000000000000000000000000000000000000000000000000000000000000000000000000000000000000000000000000000000000000000000000000000000000000000000000000000000000000000000000000000000000000000000000000000000000000000000000000000000000000000000000000000000000000000000000000000000000000000000000000000000000000000000000000000000",
            "coinbase" : "0x2adc25665018aa1fe0e6bc666dac8fc2697ff9ba",
            "difficulty" : "0x020000",
            "extraData" : "0x42",
            "gasLimit" : "0x989680",
            "gasUsed" : "0x00",
            "hash" : "0x85fb093090e83a4e9a429b3e3c7cea40e0c67d789bcc427481b7119719ecddd9",
            "mixHash" : "0x56e81f171bcc55a6ff8345e692c0f86e5b48e01b996cadc001622fb5e363b421",
            "nonce" : "0x0102030405060708",
            "number" : "0x00",
            "parentHash" : "0x0000000000000000000000000000000000000000000000000000000000000000",
            "receiptTrie" : "0x56e81f171bcc55a6ff8345e692c0f86e5b48e01b996cadc001622fb5e363b421",
            "stateRoot" : "0x1ef57185ddecdc043508eaf666da0b9d9451d184b4c9e384646caa4b6762fb73",
            "timestamp" : "0x03b6",
            "transactionsTrie" : "0x56e81f171bcc55a6ff8345e692c0f86e5b48e01b996cadc001622fb5e363b421",
            "uncleHash" : "0x1dcc4de8dec75d7aab85b567b6ccd41ad312451b948a7413f0a142fd40d49347"
        },
        "genesisRLP" : "0xf901faf901f5a00000000000000000000000000000000000000000000000000000000000000000a01dcc4de8dec75d7aab85b567b6ccd41ad312451b948a7413f0a142fd40d49347942adc25665018aa1fe0e6bc666dac8fc2697ff9baa01ef57185ddecdc043508eaf666da0b9d9451d184b4c9e384646caa4b6762fb73a056e81f171bcc55a6ff8345e692c0f86e5b48e01b996cadc001622fb5e363b421a056e81f171bcc55a6ff8345e692c0f86e5b48e01b996cadc001622fb5e363b421b9010000000000000000000000000000000000000000000000000000000000000000000000000000000000000000000000000000000000000000000000000000000000000000000000000000000000000000000000000000000000000000000000000000000000000000000000000000000000000000000000000000000000000000000000000000000000000000000000000000000000000000000000000000000000000000000000000000000000000000000000000000000000000000000000000000000000000000000000000000000000000000000000000000000000000000000000000000000000000000000000000000000000000000000000000000000000830200008083989680808203b642a056e81f171bcc55a6ff8345e692c0f86e5b48e01b996cadc001622fb5e363b421880102030405060708c0c0",
        "lastblockhash" : "0xc3253533dbecea1fe11cf7d704594c3bfd8819e9ad5b8797b7c71945d96ec686",
        "network" : "EIP158",
        "postState" : {
            "0x2adc25665018aa1fe0e6bc666dac8fc2697ff9ba" : {
                "balance" : "0x4563918244fd27c0",
                "code" : "",
                "nonce" : "0x00",
                "storage" : {
                }
            },
            "0x6295ee1b4f6dd65047762f924ecd367c17eabf8f" : {
                "balance" : "0x00",
                "code" : "0x1122334455",
                "nonce" : "0x00",
                "storage" : {
                }
            },
            "0xa94f5374fce5edbc8e2a8697c15331677e6ebf0b" : {
                "balance" : "0xe8d49be840",
                "code" : "",
                "nonce" : "0x01",
                "storage" : {
                }
            }
        },
        "pre" : {
            "0x6295ee1b4f6dd65047762f924ecd367c17eabf8f" : {
                "balance" : "0x00",
                "code" : "0x1122334455",
                "nonce" : "0x00",
                "storage" : {
                }
            },
            "0xa94f5374fce5edbc8e2a8697c15331677e6ebf0b" : {
                "balance" : "0xe8d4a51000",
                "code" : "",
                "nonce" : "0x00",
                "storage" : {
                }
            }
        }
    },
    "TransactionCollisionToEmptyButCode_d0g0v1_Frontier" : {
        "_info" : {
            "comment" : "",
            "filledwith" : "cpp-1.3.0+commit.6e0ce939.Linux.g++",
            "lllcversion" : "Version: 0.4.18-develop.2017.9.25+commit.a72237f2.Linux.g++",
            "source" : "src/BlockchainTestsFiller/GeneralStateTests/stCreateTest/TransactionCollisionToEmptyButCode_d0g0v1Filler.json",
            "sourceHash" : "eb0ad439e10e4a452d7015ab50a2781ae2e7a81cb0d037c9c4abc7043a2e99c0"
        },
        "blocks" : [
            {
                "blockHeader" : {
                    "bloom" : "0x00000000000000000000000000000000000000000000000000000000000000000000000000000000000000000000000000000000000000000000000000000000000000000000000000000000000000000000000000000000000000000000000000000000000000000000000000000000000000000000000000000000000000000000000000000000000000000000000000000000000000000000000000000000000000000000000000000000000000000000000000000000000000000000000000000000000000000000000000000000000000000000000000000000000000000000000000000000000000000000000000000000000000000000000000000000",
                    "coinbase" : "0x2adc25665018aa1fe0e6bc666dac8fc2697ff9ba",
                    "difficulty" : "0x020000",
                    "extraData" : "",
                    "gasLimit" : "0x989680",
                    "gasUsed" : "0x0927c0",
                    "hash" : "0x48b004f6b8dc61cc2958503abceea4497b9cb212639fd5fa711bf659fa1eb87c",
                    "mixHash" : "0x2d8f6ea12855d9ac2011dc800b835dcebe1c793388feb02198038ab203561941",
                    "nonce" : "0x18d0132d40dc8358",
                    "number" : "0x01",
                    "parentHash" : "0x85fb093090e83a4e9a429b3e3c7cea40e0c67d789bcc427481b7119719ecddd9",
                    "receiptTrie" : "0x6baf5caf5563950ce3247bd48ccee58d1e44bfd2e1cc09f616ce103f51a5747c",
                    "stateRoot" : "0x6d721e8bc4f0c200340d494b23e80dd7ade439c7b5e8d04b7c8ba2d718c09f7c",
                    "timestamp" : "0x03e8",
                    "transactionsTrie" : "0x301d47c121a1aa010b52e8bc365101e2ff381ace8d24e528e6463ce3a16e35f5",
                    "uncleHash" : "0x1dcc4de8dec75d7aab85b567b6ccd41ad312451b948a7413f0a142fd40d49347"
                },
                "rlp" : "0xf90251f901f8a085fb093090e83a4e9a429b3e3c7cea40e0c67d789bcc427481b7119719ecddd9a01dcc4de8dec75d7aab85b567b6ccd41ad312451b948a7413f0a142fd40d49347942adc25665018aa1fe0e6bc666dac8fc2697ff9baa06d721e8bc4f0c200340d494b23e80dd7ade439c7b5e8d04b7c8ba2d718c09f7ca0301d47c121a1aa010b52e8bc365101e2ff381ace8d24e528e6463ce3a16e35f5a06baf5caf5563950ce3247bd48ccee58d1e44bfd2e1cc09f616ce103f51a5747cb9010000000000000000000000000000000000000000000000000000000000000000000000000000000000000000000000000000000000000000000000000000000000000000000000000000000000000000000000000000000000000000000000000000000000000000000000000000000000000000000000000000000000000000000000000000000000000000000000000000000000000000000000000000000000000000000000000000000000000000000000000000000000000000000000000000000000000000000000000000000000000000000000000000000000000000000000000000000000000000000000000000000000000000000000000000000000830200000183989680830927c08203e880a02d8f6ea12855d9ac2011dc800b835dcebe1c793388feb02198038ab2035619418818d0132d40dc8358f853f8518001830927c080018560016001551ba0669bf7108a35b2babdd8d02a2203a0d25bd67f1b8c7c19d5c3ab8eef82b8d8caa0720ffffc96a534ba62bde72c067225ebf8b31fa4ca557feaa557c7d689113a20c0",
                "transactions" : [
                    {
                        "data" : "0x6001600155",
                        "gasLimit" : "0x0927c0",
                        "gasPrice" : "0x01",
                        "nonce" : "0x00",
                        "r" : "0x669bf7108a35b2babdd8d02a2203a0d25bd67f1b8c7c19d5c3ab8eef82b8d8ca",
                        "s" : "0x720ffffc96a534ba62bde72c067225ebf8b31fa4ca557feaa557c7d689113a20",
                        "to" : "",
                        "v" : "0x1b",
                        "value" : "0x01"
                    }
                ],
                "uncleHeaders" : [
                ]
            }
        ],
        "genesisBlockHeader" : {
            "bloom" : "0x00000000000000000000000000000000000000000000000000000000000000000000000000000000000000000000000000000000000000000000000000000000000000000000000000000000000000000000000000000000000000000000000000000000000000000000000000000000000000000000000000000000000000000000000000000000000000000000000000000000000000000000000000000000000000000000000000000000000000000000000000000000000000000000000000000000000000000000000000000000000000000000000000000000000000000000000000000000000000000000000000000000000000000000000000000000",
            "coinbase" : "0x2adc25665018aa1fe0e6bc666dac8fc2697ff9ba",
            "difficulty" : "0x020000",
            "extraData" : "0x42",
            "gasLimit" : "0x989680",
            "gasUsed" : "0x00",
            "hash" : "0x85fb093090e83a4e9a429b3e3c7cea40e0c67d789bcc427481b7119719ecddd9",
            "mixHash" : "0x56e81f171bcc55a6ff8345e692c0f86e5b48e01b996cadc001622fb5e363b421",
            "nonce" : "0x0102030405060708",
            "number" : "0x00",
            "parentHash" : "0x0000000000000000000000000000000000000000000000000000000000000000",
            "receiptTrie" : "0x56e81f171bcc55a6ff8345e692c0f86e5b48e01b996cadc001622fb5e363b421",
            "stateRoot" : "0x1ef57185ddecdc043508eaf666da0b9d9451d184b4c9e384646caa4b6762fb73",
            "timestamp" : "0x03b6",
            "transactionsTrie" : "0x56e81f171bcc55a6ff8345e692c0f86e5b48e01b996cadc001622fb5e363b421",
            "uncleHash" : "0x1dcc4de8dec75d7aab85b567b6ccd41ad312451b948a7413f0a142fd40d49347"
        },
        "genesisRLP" : "0xf901faf901f5a00000000000000000000000000000000000000000000000000000000000000000a01dcc4de8dec75d7aab85b567b6ccd41ad312451b948a7413f0a142fd40d49347942adc25665018aa1fe0e6bc666dac8fc2697ff9baa01ef57185ddecdc043508eaf666da0b9d9451d184b4c9e384646caa4b6762fb73a056e81f171bcc55a6ff8345e692c0f86e5b48e01b996cadc001622fb5e363b421a056e81f171bcc55a6ff8345e692c0f86e5b48e01b996cadc001622fb5e363b421b9010000000000000000000000000000000000000000000000000000000000000000000000000000000000000000000000000000000000000000000000000000000000000000000000000000000000000000000000000000000000000000000000000000000000000000000000000000000000000000000000000000000000000000000000000000000000000000000000000000000000000000000000000000000000000000000000000000000000000000000000000000000000000000000000000000000000000000000000000000000000000000000000000000000000000000000000000000000000000000000000000000000000000000000000000000000000830200008083989680808203b642a056e81f171bcc55a6ff8345e692c0f86e5b48e01b996cadc001622fb5e363b421880102030405060708c0c0",
        "lastblockhash" : "0x48b004f6b8dc61cc2958503abceea4497b9cb212639fd5fa711bf659fa1eb87c",
        "network" : "Frontier",
        "postState" : {
            "0x2adc25665018aa1fe0e6bc666dac8fc2697ff9ba" : {
                "balance" : "0x4563918244fd27c0",
                "code" : "",
                "nonce" : "0x00",
                "storage" : {
                }
            },
            "0x6295ee1b4f6dd65047762f924ecd367c17eabf8f" : {
                "balance" : "0x00",
                "code" : "0x1122334455",
                "nonce" : "0x00",
                "storage" : {
                }
            },
            "0xa94f5374fce5edbc8e2a8697c15331677e6ebf0b" : {
                "balance" : "0xe8d49be840",
                "code" : "",
                "nonce" : "0x01",
                "storage" : {
                }
            }
        },
        "pre" : {
            "0x6295ee1b4f6dd65047762f924ecd367c17eabf8f" : {
                "balance" : "0x00",
                "code" : "0x1122334455",
                "nonce" : "0x00",
                "storage" : {
                }
            },
            "0xa94f5374fce5edbc8e2a8697c15331677e6ebf0b" : {
                "balance" : "0xe8d4a51000",
                "code" : "",
                "nonce" : "0x00",
                "storage" : {
                }
            }
        }
    },
    "TransactionCollisionToEmptyButCode_d0g0v1_Homestead" : {
        "_info" : {
            "comment" : "",
            "filledwith" : "cpp-1.3.0+commit.6e0ce939.Linux.g++",
            "lllcversion" : "Version: 0.4.18-develop.2017.9.25+commit.a72237f2.Linux.g++",
            "source" : "src/BlockchainTestsFiller/GeneralStateTests/stCreateTest/TransactionCollisionToEmptyButCode_d0g0v1Filler.json",
            "sourceHash" : "eb0ad439e10e4a452d7015ab50a2781ae2e7a81cb0d037c9c4abc7043a2e99c0"
        },
        "blocks" : [
            {
                "blockHeader" : {
                    "bloom" : "0x00000000000000000000000000000000000000000000000000000000000000000000000000000000000000000000000000000000000000000000000000000000000000000000000000000000000000000000000000000000000000000000000000000000000000000000000000000000000000000000000000000000000000000000000000000000000000000000000000000000000000000000000000000000000000000000000000000000000000000000000000000000000000000000000000000000000000000000000000000000000000000000000000000000000000000000000000000000000000000000000000000000000000000000000000000000",
                    "coinbase" : "0x2adc25665018aa1fe0e6bc666dac8fc2697ff9ba",
                    "difficulty" : "0x020000",
                    "extraData" : "",
                    "gasLimit" : "0x989680",
                    "gasUsed" : "0x0927c0",
                    "hash" : "0x35b373667c3266038c0d7ee249c36ecd4f0f77e6480449db0693ff94c604e2a4",
                    "mixHash" : "0xf8ea85e2d45120c5449ad40b01743e98ca71bf50c7bf24743411b8938472c647",
                    "nonce" : "0x4e73072ec00377e6",
                    "number" : "0x01",
                    "parentHash" : "0x85fb093090e83a4e9a429b3e3c7cea40e0c67d789bcc427481b7119719ecddd9",
                    "receiptTrie" : "0x6baf5caf5563950ce3247bd48ccee58d1e44bfd2e1cc09f616ce103f51a5747c",
                    "stateRoot" : "0x6d721e8bc4f0c200340d494b23e80dd7ade439c7b5e8d04b7c8ba2d718c09f7c",
                    "timestamp" : "0x03e8",
                    "transactionsTrie" : "0x301d47c121a1aa010b52e8bc365101e2ff381ace8d24e528e6463ce3a16e35f5",
                    "uncleHash" : "0x1dcc4de8dec75d7aab85b567b6ccd41ad312451b948a7413f0a142fd40d49347"
                },
                "rlp" : "0xf90251f901f8a085fb093090e83a4e9a429b3e3c7cea40e0c67d789bcc427481b7119719ecddd9a01dcc4de8dec75d7aab85b567b6ccd41ad312451b948a7413f0a142fd40d49347942adc25665018aa1fe0e6bc666dac8fc2697ff9baa06d721e8bc4f0c200340d494b23e80dd7ade439c7b5e8d04b7c8ba2d718c09f7ca0301d47c121a1aa010b52e8bc365101e2ff381ace8d24e528e6463ce3a16e35f5a06baf5caf5563950ce3247bd48ccee58d1e44bfd2e1cc09f616ce103f51a5747cb9010000000000000000000000000000000000000000000000000000000000000000000000000000000000000000000000000000000000000000000000000000000000000000000000000000000000000000000000000000000000000000000000000000000000000000000000000000000000000000000000000000000000000000000000000000000000000000000000000000000000000000000000000000000000000000000000000000000000000000000000000000000000000000000000000000000000000000000000000000000000000000000000000000000000000000000000000000000000000000000000000000000000000000000000000000000000830200000183989680830927c08203e880a0f8ea85e2d45120c5449ad40b01743e98ca71bf50c7bf24743411b8938472c647884e73072ec00377e6f853f8518001830927c080018560016001551ba0669bf7108a35b2babdd8d02a2203a0d25bd67f1b8c7c19d5c3ab8eef82b8d8caa0720ffffc96a534ba62bde72c067225ebf8b31fa4ca557feaa557c7d689113a20c0",
                "transactions" : [
                    {
                        "data" : "0x6001600155",
                        "gasLimit" : "0x0927c0",
                        "gasPrice" : "0x01",
                        "nonce" : "0x00",
                        "r" : "0x669bf7108a35b2babdd8d02a2203a0d25bd67f1b8c7c19d5c3ab8eef82b8d8ca",
                        "s" : "0x720ffffc96a534ba62bde72c067225ebf8b31fa4ca557feaa557c7d689113a20",
                        "to" : "",
                        "v" : "0x1b",
                        "value" : "0x01"
                    }
                ],
                "uncleHeaders" : [
                ]
            }
        ],
        "genesisBlockHeader" : {
            "bloom" : "0x00000000000000000000000000000000000000000000000000000000000000000000000000000000000000000000000000000000000000000000000000000000000000000000000000000000000000000000000000000000000000000000000000000000000000000000000000000000000000000000000000000000000000000000000000000000000000000000000000000000000000000000000000000000000000000000000000000000000000000000000000000000000000000000000000000000000000000000000000000000000000000000000000000000000000000000000000000000000000000000000000000000000000000000000000000000",
            "coinbase" : "0x2adc25665018aa1fe0e6bc666dac8fc2697ff9ba",
            "difficulty" : "0x020000",
            "extraData" : "0x42",
            "gasLimit" : "0x989680",
            "gasUsed" : "0x00",
            "hash" : "0x85fb093090e83a4e9a429b3e3c7cea40e0c67d789bcc427481b7119719ecddd9",
            "mixHash" : "0x56e81f171bcc55a6ff8345e692c0f86e5b48e01b996cadc001622fb5e363b421",
            "nonce" : "0x0102030405060708",
            "number" : "0x00",
            "parentHash" : "0x0000000000000000000000000000000000000000000000000000000000000000",
            "receiptTrie" : "0x56e81f171bcc55a6ff8345e692c0f86e5b48e01b996cadc001622fb5e363b421",
            "stateRoot" : "0x1ef57185ddecdc043508eaf666da0b9d9451d184b4c9e384646caa4b6762fb73",
            "timestamp" : "0x03b6",
            "transactionsTrie" : "0x56e81f171bcc55a6ff8345e692c0f86e5b48e01b996cadc001622fb5e363b421",
            "uncleHash" : "0x1dcc4de8dec75d7aab85b567b6ccd41ad312451b948a7413f0a142fd40d49347"
        },
        "genesisRLP" : "0xf901faf901f5a00000000000000000000000000000000000000000000000000000000000000000a01dcc4de8dec75d7aab85b567b6ccd41ad312451b948a7413f0a142fd40d49347942adc25665018aa1fe0e6bc666dac8fc2697ff9baa01ef57185ddecdc043508eaf666da0b9d9451d184b4c9e384646caa4b6762fb73a056e81f171bcc55a6ff8345e692c0f86e5b48e01b996cadc001622fb5e363b421a056e81f171bcc55a6ff8345e692c0f86e5b48e01b996cadc001622fb5e363b421b9010000000000000000000000000000000000000000000000000000000000000000000000000000000000000000000000000000000000000000000000000000000000000000000000000000000000000000000000000000000000000000000000000000000000000000000000000000000000000000000000000000000000000000000000000000000000000000000000000000000000000000000000000000000000000000000000000000000000000000000000000000000000000000000000000000000000000000000000000000000000000000000000000000000000000000000000000000000000000000000000000000000000000000000000000000000000830200008083989680808203b642a056e81f171bcc55a6ff8345e692c0f86e5b48e01b996cadc001622fb5e363b421880102030405060708c0c0",
        "lastblockhash" : "0x35b373667c3266038c0d7ee249c36ecd4f0f77e6480449db0693ff94c604e2a4",
        "network" : "Homestead",
        "postState" : {
            "0x2adc25665018aa1fe0e6bc666dac8fc2697ff9ba" : {
                "balance" : "0x4563918244fd27c0",
                "code" : "",
                "nonce" : "0x00",
                "storage" : {
                }
            },
            "0x6295ee1b4f6dd65047762f924ecd367c17eabf8f" : {
                "balance" : "0x00",
                "code" : "0x1122334455",
                "nonce" : "0x00",
                "storage" : {
                }
            },
            "0xa94f5374fce5edbc8e2a8697c15331677e6ebf0b" : {
                "balance" : "0xe8d49be840",
                "code" : "",
                "nonce" : "0x01",
                "storage" : {
                }
            }
        },
        "pre" : {
            "0x6295ee1b4f6dd65047762f924ecd367c17eabf8f" : {
                "balance" : "0x00",
                "code" : "0x1122334455",
                "nonce" : "0x00",
                "storage" : {
                }
            },
            "0xa94f5374fce5edbc8e2a8697c15331677e6ebf0b" : {
                "balance" : "0xe8d4a51000",
                "code" : "",
                "nonce" : "0x00",
                "storage" : {
                }
            }
        }
    }
}