{
    "TransactionCollisionToEmptyButNonce_d0g0v0_Byzantium" : {
        "_info" : {
            "comment" : "",
            "filledwith" : "cpp-1.3.0+commit.6e0ce939.Linux.g++",
            "lllcversion" : "Version: 0.4.18-develop.2017.9.25+commit.a72237f2.Linux.g++",
            "source" : "src/BlockchainTestsFiller/GeneralStateTests/stCreateTest/TransactionCollisionToEmptyButNonce_d0g0v0Filler.json",
            "sourceHash" : "787a3441a2bcbd1107e5a449f3f02c28b049a5dc4c62d26d0a702c6de7b80a91"
        },
        "blocks" : [
            {
                "blockHeader" : {
                    "bloom" : "0x00000000000000000000000000000000000000000000000000000000000000000000000000000000000000000000000000000000000000000000000000000000000000000000000000000000000000000000000000000000000000000000000000000000000000000000000000000000000000000000000000000000000000000000000000000000000000000000000000000000000000000000000000000000000000000000000000000000000000000000000000000000000000000000000000000000000000000000000000000000000000000000000000000000000000000000000000000000000000000000000000000000000000000000000000000000",
                    "coinbase" : "0x2adc25665018aa1fe0e6bc666dac8fc2697ff9ba",
                    "difficulty" : "0x020000",
                    "extraData" : "",
                    "gasLimit" : "0x989680",
                    "gasUsed" : "0x0927c0",
                    "hash" : "0xfc4573706b22168e2e84b259278f741aed59199750d60243b6b07910d4adadb3",
                    "mixHash" : "0xf5c826d6d3b4f33588e092ec76e69241c5b28ea5368f7671e94655280c090755",
                    "nonce" : "0xbcb6a0b884a6a281",
                    "number" : "0x01",
                    "parentHash" : "0x956926515400edf7d589e37a9ad23e428626f9573f1ff4e6bf20ccb3b7712604",
                    "receiptTrie" : "0x498b3877860df644cfd4fcc2e12bc89f717e8618d276fe033ca9152312997215",
                    "stateRoot" : "0x010e36ab1f41decd7d79f63fdce732b84c6cb774bbd024be0febd8e2e2832ae9",
                    "timestamp" : "0x03e8",
                    "transactionsTrie" : "0x3b328f7eb9a1f7faa08eccd3af56e9789b313cd193868ba0fa8dcb4c9487f4a9",
                    "uncleHash" : "0x1dcc4de8dec75d7aab85b567b6ccd41ad312451b948a7413f0a142fd40d49347"
                },
                "rlp" : "0xf90251f901f8a0956926515400edf7d589e37a9ad23e428626f9573f1ff4e6bf20ccb3b7712604a01dcc4de8dec75d7aab85b567b6ccd41ad312451b948a7413f0a142fd40d49347942adc25665018aa1fe0e6bc666dac8fc2697ff9baa0010e36ab1f41decd7d79f63fdce732b84c6cb774bbd024be0febd8e2e2832ae9a03b328f7eb9a1f7faa08eccd3af56e9789b313cd193868ba0fa8dcb4c9487f4a9a0498b3877860df644cfd4fcc2e12bc89f717e8618d276fe033ca9152312997215b9010000000000000000000000000000000000000000000000000000000000000000000000000000000000000000000000000000000000000000000000000000000000000000000000000000000000000000000000000000000000000000000000000000000000000000000000000000000000000000000000000000000000000000000000000000000000000000000000000000000000000000000000000000000000000000000000000000000000000000000000000000000000000000000000000000000000000000000000000000000000000000000000000000000000000000000000000000000000000000000000000000000000000000000000000000000000830200000183989680830927c08203e880a0f5c826d6d3b4f33588e092ec76e69241c5b28ea5368f7671e94655280c09075588bcb6a0b884a6a281f853f8518001830927c080808560016001551ca0f23fc10ff1db01127538caf3cc1b62a01c74c00598c0bf07a8b6f297f0a478d7a0099a225dd4d9eabb96da774027484fee40d3a054d37ec760c1a9a2131bc9395bc0",
                "transactions" : [
                    {
                        "data" : "0x6001600155",
                        "gasLimit" : "0x0927c0",
                        "gasPrice" : "0x01",
                        "nonce" : "0x00",
                        "r" : "0xf23fc10ff1db01127538caf3cc1b62a01c74c00598c0bf07a8b6f297f0a478d7",
                        "s" : "0x099a225dd4d9eabb96da774027484fee40d3a054d37ec760c1a9a2131bc9395b",
                        "to" : "",
                        "v" : "0x1c",
                        "value" : "0x00"
                    }
                ],
                "uncleHeaders" : [
                ]
            }
        ],
        "genesisBlockHeader" : {
            "bloom" : "0x00000000000000000000000000000000000000000000000000000000000000000000000000000000000000000000000000000000000000000000000000000000000000000000000000000000000000000000000000000000000000000000000000000000000000000000000000000000000000000000000000000000000000000000000000000000000000000000000000000000000000000000000000000000000000000000000000000000000000000000000000000000000000000000000000000000000000000000000000000000000000000000000000000000000000000000000000000000000000000000000000000000000000000000000000000000",
            "coinbase" : "0x2adc25665018aa1fe0e6bc666dac8fc2697ff9ba",
            "difficulty" : "0x020000",
            "extraData" : "0x42",
            "gasLimit" : "0x989680",
            "gasUsed" : "0x00",
            "hash" : "0x956926515400edf7d589e37a9ad23e428626f9573f1ff4e6bf20ccb3b7712604",
            "mixHash" : "0x56e81f171bcc55a6ff8345e692c0f86e5b48e01b996cadc001622fb5e363b421",
            "nonce" : "0x0102030405060708",
            "number" : "0x00",
            "parentHash" : "0x0000000000000000000000000000000000000000000000000000000000000000",
            "receiptTrie" : "0x56e81f171bcc55a6ff8345e692c0f86e5b48e01b996cadc001622fb5e363b421",
            "stateRoot" : "0x2ba54e1f096f181cbd01a69dc23f4b60c53d41838ed962a5bacd1e9f0a8522b8",
            "timestamp" : "0x03b6",
            "transactionsTrie" : "0x56e81f171bcc55a6ff8345e692c0f86e5b48e01b996cadc001622fb5e363b421",
            "uncleHash" : "0x1dcc4de8dec75d7aab85b567b6ccd41ad312451b948a7413f0a142fd40d49347"
        },
        "genesisRLP" : "0xf901faf901f5a00000000000000000000000000000000000000000000000000000000000000000a01dcc4de8dec75d7aab85b567b6ccd41ad312451b948a7413f0a142fd40d49347942adc25665018aa1fe0e6bc666dac8fc2697ff9baa02ba54e1f096f181cbd01a69dc23f4b60c53d41838ed962a5bacd1e9f0a8522b8a056e81f171bcc55a6ff8345e692c0f86e5b48e01b996cadc001622fb5e363b421a056e81f171bcc55a6ff8345e692c0f86e5b48e01b996cadc001622fb5e363b421b9010000000000000000000000000000000000000000000000000000000000000000000000000000000000000000000000000000000000000000000000000000000000000000000000000000000000000000000000000000000000000000000000000000000000000000000000000000000000000000000000000000000000000000000000000000000000000000000000000000000000000000000000000000000000000000000000000000000000000000000000000000000000000000000000000000000000000000000000000000000000000000000000000000000000000000000000000000000000000000000000000000000000000000000000000000000000830200008083989680808203b642a056e81f171bcc55a6ff8345e692c0f86e5b48e01b996cadc001622fb5e363b421880102030405060708c0c0",
        "lastblockhash" : "0xfc4573706b22168e2e84b259278f741aed59199750d60243b6b07910d4adadb3",
        "network" : "Byzantium",
        "postState" : {
            "0x2adc25665018aa1fe0e6bc666dac8fc2697ff9ba" : {
                "balance" : "0x29a2241af63527c0",
                "code" : "",
                "nonce" : "0x00",
                "storage" : {
                }
            },
            "0x6295ee1b4f6dd65047762f924ecd367c17eabf8f" : {
                "balance" : "0x00",
                "code" : "",
                "nonce" : "0x01",
                "storage" : {
                }
            },
            "0xa94f5374fce5edbc8e2a8697c15331677e6ebf0b" : {
                "balance" : "0xe8d49be840",
                "code" : "",
                "nonce" : "0x01",
                "storage" : {
                }
            }
        },
        "pre" : {
            "0x6295ee1b4f6dd65047762f924ecd367c17eabf8f" : {
                "balance" : "0x00",
                "code" : "",
                "nonce" : "0x01",
                "storage" : {
                }
            },
            "0xa94f5374fce5edbc8e2a8697c15331677e6ebf0b" : {
                "balance" : "0xe8d4a51000",
                "code" : "",
                "nonce" : "0x00",
                "storage" : {
                }
            }
        }
    },
    "TransactionCollisionToEmptyButNonce_d0g0v0_EIP150" : {
        "_info" : {
            "comment" : "",
            "filledwith" : "cpp-1.3.0+commit.6e0ce939.Linux.g++",
            "lllcversion" : "Version: 0.4.18-develop.2017.9.25+commit.a72237f2.Linux.g++",
            "source" : "src/BlockchainTestsFiller/GeneralStateTests/stCreateTest/TransactionCollisionToEmptyButNonce_d0g0v0Filler.json",
            "sourceHash" : "787a3441a2bcbd1107e5a449f3f02c28b049a5dc4c62d26d0a702c6de7b80a91"
        },
        "blocks" : [
            {
                "blockHeader" : {
                    "bloom" : "0x00000000000000000000000000000000000000000000000000000000000000000000000000000000000000000000000000000000000000000000000000000000000000000000000000000000000000000000000000000000000000000000000000000000000000000000000000000000000000000000000000000000000000000000000000000000000000000000000000000000000000000000000000000000000000000000000000000000000000000000000000000000000000000000000000000000000000000000000000000000000000000000000000000000000000000000000000000000000000000000000000000000000000000000000000000000",
                    "coinbase" : "0x2adc25665018aa1fe0e6bc666dac8fc2697ff9ba",
                    "difficulty" : "0x020000",
                    "extraData" : "",
                    "gasLimit" : "0x989680",
                    "gasUsed" : "0x0927c0",
                    "hash" : "0xb77a66ef30ad15d7d6d7198a4c1ea8559cc6ab1a2d30d6d3ecc38385607e5475",
                    "mixHash" : "0x69907198881090652b8bc476ac3bc8d9d347bd381be51356ef5e6f9ad49a6e5e",
                    "nonce" : "0x8f15a8f3766b42f6",
                    "number" : "0x01",
                    "parentHash" : "0x956926515400edf7d589e37a9ad23e428626f9573f1ff4e6bf20ccb3b7712604",
                    "receiptTrie" : "0x4602c8c524f3e9d7bc5127c07e40fc1e21e349a8420b4c02bd5087bd3be1964f",
                    "stateRoot" : "0x19adf6136adcba1005dcbdb24f6e6db2fbb4f1ec9a0979d1a381b6d89768025c",
                    "timestamp" : "0x03e8",
                    "transactionsTrie" : "0x3b328f7eb9a1f7faa08eccd3af56e9789b313cd193868ba0fa8dcb4c9487f4a9",
                    "uncleHash" : "0x1dcc4de8dec75d7aab85b567b6ccd41ad312451b948a7413f0a142fd40d49347"
                },
                "rlp" : "0xf90251f901f8a0956926515400edf7d589e37a9ad23e428626f9573f1ff4e6bf20ccb3b7712604a01dcc4de8dec75d7aab85b567b6ccd41ad312451b948a7413f0a142fd40d49347942adc25665018aa1fe0e6bc666dac8fc2697ff9baa019adf6136adcba1005dcbdb24f6e6db2fbb4f1ec9a0979d1a381b6d89768025ca03b328f7eb9a1f7faa08eccd3af56e9789b313cd193868ba0fa8dcb4c9487f4a9a04602c8c524f3e9d7bc5127c07e40fc1e21e349a8420b4c02bd5087bd3be1964fb9010000000000000000000000000000000000000000000000000000000000000000000000000000000000000000000000000000000000000000000000000000000000000000000000000000000000000000000000000000000000000000000000000000000000000000000000000000000000000000000000000000000000000000000000000000000000000000000000000000000000000000000000000000000000000000000000000000000000000000000000000000000000000000000000000000000000000000000000000000000000000000000000000000000000000000000000000000000000000000000000000000000000000000000000000000000000830200000183989680830927c08203e880a069907198881090652b8bc476ac3bc8d9d347bd381be51356ef5e6f9ad49a6e5e888f15a8f3766b42f6f853f8518001830927c080808560016001551ca0f23fc10ff1db01127538caf3cc1b62a01c74c00598c0bf07a8b6f297f0a478d7a0099a225dd4d9eabb96da774027484fee40d3a054d37ec760c1a9a2131bc9395bc0",
                "transactions" : [
                    {
                        "data" : "0x6001600155",
                        "gasLimit" : "0x0927c0",
                        "gasPrice" : "0x01",
                        "nonce" : "0x00",
                        "r" : "0xf23fc10ff1db01127538caf3cc1b62a01c74c00598c0bf07a8b6f297f0a478d7",
                        "s" : "0x099a225dd4d9eabb96da774027484fee40d3a054d37ec760c1a9a2131bc9395b",
                        "to" : "",
                        "v" : "0x1c",
                        "value" : "0x00"
                    }
                ],
                "uncleHeaders" : [
                ]
            }
        ],
        "genesisBlockHeader" : {
            "bloom" : "0x00000000000000000000000000000000000000000000000000000000000000000000000000000000000000000000000000000000000000000000000000000000000000000000000000000000000000000000000000000000000000000000000000000000000000000000000000000000000000000000000000000000000000000000000000000000000000000000000000000000000000000000000000000000000000000000000000000000000000000000000000000000000000000000000000000000000000000000000000000000000000000000000000000000000000000000000000000000000000000000000000000000000000000000000000000000",
            "coinbase" : "0x2adc25665018aa1fe0e6bc666dac8fc2697ff9ba",
            "difficulty" : "0x020000",
            "extraData" : "0x42",
            "gasLimit" : "0x989680",
            "gasUsed" : "0x00",
            "hash" : "0x956926515400edf7d589e37a9ad23e428626f9573f1ff4e6bf20ccb3b7712604",
            "mixHash" : "0x56e81f171bcc55a6ff8345e692c0f86e5b48e01b996cadc001622fb5e363b421",
            "nonce" : "0x0102030405060708",
            "number" : "0x00",
            "parentHash" : "0x0000000000000000000000000000000000000000000000000000000000000000",
            "receiptTrie" : "0x56e81f171bcc55a6ff8345e692c0f86e5b48e01b996cadc001622fb5e363b421",
            "stateRoot" : "0x2ba54e1f096f181cbd01a69dc23f4b60c53d41838ed962a5bacd1e9f0a8522b8",
            "timestamp" : "0x03b6",
            "transactionsTrie" : "0x56e81f171bcc55a6ff8345e692c0f86e5b48e01b996cadc001622fb5e363b421",
            "uncleHash" : "0x1dcc4de8dec75d7aab85b567b6ccd41ad312451b948a7413f0a142fd40d49347"
        },
        "genesisRLP" : "0xf901faf901f5a00000000000000000000000000000000000000000000000000000000000000000a01dcc4de8dec75d7aab85b567b6ccd41ad312451b948a7413f0a142fd40d49347942adc25665018aa1fe0e6bc666dac8fc2697ff9baa02ba54e1f096f181cbd01a69dc23f4b60c53d41838ed962a5bacd1e9f0a8522b8a056e81f171bcc55a6ff8345e692c0f86e5b48e01b996cadc001622fb5e363b421a056e81f171bcc55a6ff8345e692c0f86e5b48e01b996cadc001622fb5e363b421b9010000000000000000000000000000000000000000000000000000000000000000000000000000000000000000000000000000000000000000000000000000000000000000000000000000000000000000000000000000000000000000000000000000000000000000000000000000000000000000000000000000000000000000000000000000000000000000000000000000000000000000000000000000000000000000000000000000000000000000000000000000000000000000000000000000000000000000000000000000000000000000000000000000000000000000000000000000000000000000000000000000000000000000000000000000000000830200008083989680808203b642a056e81f171bcc55a6ff8345e692c0f86e5b48e01b996cadc001622fb5e363b421880102030405060708c0c0",
        "lastblockhash" : "0xb77a66ef30ad15d7d6d7198a4c1ea8559cc6ab1a2d30d6d3ecc38385607e5475",
        "network" : "EIP150",
        "postState" : {
            "0x2adc25665018aa1fe0e6bc666dac8fc2697ff9ba" : {
                "balance" : "0x4563918244fd27c0",
                "code" : "",
                "nonce" : "0x00",
                "storage" : {
                }
            },
            "0x6295ee1b4f6dd65047762f924ecd367c17eabf8f" : {
                "balance" : "0x00",
                "code" : "",
                "nonce" : "0x01",
                "storage" : {
                }
            },
            "0xa94f5374fce5edbc8e2a8697c15331677e6ebf0b" : {
                "balance" : "0xe8d49be840",
                "code" : "",
                "nonce" : "0x01",
                "storage" : {
                }
            }
        },
        "pre" : {
            "0x6295ee1b4f6dd65047762f924ecd367c17eabf8f" : {
                "balance" : "0x00",
                "code" : "",
                "nonce" : "0x01",
                "storage" : {
                }
            },
            "0xa94f5374fce5edbc8e2a8697c15331677e6ebf0b" : {
                "balance" : "0xe8d4a51000",
                "code" : "",
                "nonce" : "0x00",
                "storage" : {
                }
            }
        }
    },
    "TransactionCollisionToEmptyButNonce_d0g0v0_EIP158" : {
        "_info" : {
            "comment" : "",
            "filledwith" : "cpp-1.3.0+commit.6e0ce939.Linux.g++",
            "lllcversion" : "Version: 0.4.18-develop.2017.9.25+commit.a72237f2.Linux.g++",
            "source" : "src/BlockchainTestsFiller/GeneralStateTests/stCreateTest/TransactionCollisionToEmptyButNonce_d0g0v0Filler.json",
            "sourceHash" : "787a3441a2bcbd1107e5a449f3f02c28b049a5dc4c62d26d0a702c6de7b80a91"
        },
        "blocks" : [
            {
                "blockHeader" : {
                    "bloom" : "0x00000000000000000000000000000000000000000000000000000000000000000000000000000000000000000000000000000000000000000000000000000000000000000000000000000000000000000000000000000000000000000000000000000000000000000000000000000000000000000000000000000000000000000000000000000000000000000000000000000000000000000000000000000000000000000000000000000000000000000000000000000000000000000000000000000000000000000000000000000000000000000000000000000000000000000000000000000000000000000000000000000000000000000000000000000000",
                    "coinbase" : "0x2adc25665018aa1fe0e6bc666dac8fc2697ff9ba",
                    "difficulty" : "0x020000",
                    "extraData" : "",
                    "gasLimit" : "0x989680",
                    "gasUsed" : "0x0927c0",
                    "hash" : "0x66794fadcaeb3714504e39183737def1e51077f7fa1ab40e3637874f882f7b34",
                    "mixHash" : "0x2dbb86beb913669010e3c1a64daa26f2933943816e6cdcc48d9510c041499972",
                    "nonce" : "0x22e930661673ca04",
                    "number" : "0x01",
                    "parentHash" : "0x956926515400edf7d589e37a9ad23e428626f9573f1ff4e6bf20ccb3b7712604",
                    "receiptTrie" : "0x4602c8c524f3e9d7bc5127c07e40fc1e21e349a8420b4c02bd5087bd3be1964f",
                    "stateRoot" : "0x19adf6136adcba1005dcbdb24f6e6db2fbb4f1ec9a0979d1a381b6d89768025c",
                    "timestamp" : "0x03e8",
                    "transactionsTrie" : "0x3b328f7eb9a1f7faa08eccd3af56e9789b313cd193868ba0fa8dcb4c9487f4a9",
                    "uncleHash" : "0x1dcc4de8dec75d7aab85b567b6ccd41ad312451b948a7413f0a142fd40d49347"
                },
                "rlp" : "0xf90251f901f8a0956926515400edf7d589e37a9ad23e428626f9573f1ff4e6bf20ccb3b7712604a01dcc4de8dec75d7aab85b567b6ccd41ad312451b948a7413f0a142fd40d49347942adc25665018aa1fe0e6bc666dac8fc2697ff9baa019adf6136adcba1005dcbdb24f6e6db2fbb4f1ec9a0979d1a381b6d89768025ca03b328f7eb9a1f7faa08eccd3af56e9789b313cd193868ba0fa8dcb4c9487f4a9a04602c8c524f3e9d7bc5127c07e40fc1e21e349a8420b4c02bd5087bd3be1964fb9010000000000000000000000000000000000000000000000000000000000000000000000000000000000000000000000000000000000000000000000000000000000000000000000000000000000000000000000000000000000000000000000000000000000000000000000000000000000000000000000000000000000000000000000000000000000000000000000000000000000000000000000000000000000000000000000000000000000000000000000000000000000000000000000000000000000000000000000000000000000000000000000000000000000000000000000000000000000000000000000000000000000000000000000000000000000830200000183989680830927c08203e880a02dbb86beb913669010e3c1a64daa26f2933943816e6cdcc48d9510c0414999728822e930661673ca04f853f8518001830927c080808560016001551ca0f23fc10ff1db01127538caf3cc1b62a01c74c00598c0bf07a8b6f297f0a478d7a0099a225dd4d9eabb96da774027484fee40d3a054d37ec760c1a9a2131bc9395bc0",
                "transactions" : [
                    {
                        "data" : "0x6001600155",
                        "gasLimit" : "0x0927c0",
                        "gasPrice" : "0x01",
                        "nonce" : "0x00",
                        "r" : "0xf23fc10ff1db01127538caf3cc1b62a01c74c00598c0bf07a8b6f297f0a478d7",
                        "s" : "0x099a225dd4d9eabb96da774027484fee40d3a054d37ec760c1a9a2131bc9395b",
                        "to" : "",
                        "v" : "0x1c",
                        "value" : "0x00"
                    }
                ],
                "uncleHeaders" : [
                ]
            }
        ],
        "genesisBlockHeader" : {
            "bloom" : "0x00000000000000000000000000000000000000000000000000000000000000000000000000000000000000000000000000000000000000000000000000000000000000000000000000000000000000000000000000000000000000000000000000000000000000000000000000000000000000000000000000000000000000000000000000000000000000000000000000000000000000000000000000000000000000000000000000000000000000000000000000000000000000000000000000000000000000000000000000000000000000000000000000000000000000000000000000000000000000000000000000000000000000000000000000000000",
            "coinbase" : "0x2adc25665018aa1fe0e6bc666dac8fc2697ff9ba",
            "difficulty" : "0x020000",
            "extraData" : "0x42",
            "gasLimit" : "0x989680",
            "gasUsed" : "0x00",
            "hash" : "0x956926515400edf7d589e37a9ad23e428626f9573f1ff4e6bf20ccb3b7712604",
            "mixHash" : "0x56e81f171bcc55a6ff8345e692c0f86e5b48e01b996cadc001622fb5e363b421",
            "nonce" : "0x0102030405060708",
            "number" : "0x00",
            "parentHash" : "0x0000000000000000000000000000000000000000000000000000000000000000",
            "receiptTrie" : "0x56e81f171bcc55a6ff8345e692c0f86e5b48e01b996cadc001622fb5e363b421",
            "stateRoot" : "0x2ba54e1f096f181cbd01a69dc23f4b60c53d41838ed962a5bacd1e9f0a8522b8",
            "timestamp" : "0x03b6",
            "transactionsTrie" : "0x56e81f171bcc55a6ff8345e692c0f86e5b48e01b996cadc001622fb5e363b421",
            "uncleHash" : "0x1dcc4de8dec75d7aab85b567b6ccd41ad312451b948a7413f0a142fd40d49347"
        },
        "genesisRLP" : "0xf901faf901f5a00000000000000000000000000000000000000000000000000000000000000000a01dcc4de8dec75d7aab85b567b6ccd41ad312451b948a7413f0a142fd40d49347942adc25665018aa1fe0e6bc666dac8fc2697ff9baa02ba54e1f096f181cbd01a69dc23f4b60c53d41838ed962a5bacd1e9f0a8522b8a056e81f171bcc55a6ff8345e692c0f86e5b48e01b996cadc001622fb5e363b421a056e81f171bcc55a6ff8345e692c0f86e5b48e01b996cadc001622fb5e363b421b9010000000000000000000000000000000000000000000000000000000000000000000000000000000000000000000000000000000000000000000000000000000000000000000000000000000000000000000000000000000000000000000000000000000000000000000000000000000000000000000000000000000000000000000000000000000000000000000000000000000000000000000000000000000000000000000000000000000000000000000000000000000000000000000000000000000000000000000000000000000000000000000000000000000000000000000000000000000000000000000000000000000000000000000000000000000000830200008083989680808203b642a056e81f171bcc55a6ff8345e692c0f86e5b48e01b996cadc001622fb5e363b421880102030405060708c0c0",
        "lastblockhash" : "0x66794fadcaeb3714504e39183737def1e51077f7fa1ab40e3637874f882f7b34",
        "network" : "EIP158",
        "postState" : {
            "0x2adc25665018aa1fe0e6bc666dac8fc2697ff9ba" : {
                "balance" : "0x4563918244fd27c0",
                "code" : "",
                "nonce" : "0x00",
                "storage" : {
                }
            },
            "0x6295ee1b4f6dd65047762f924ecd367c17eabf8f" : {
                "balance" : "0x00",
                "code" : "",
                "nonce" : "0x01",
                "storage" : {
                }
            },
            "0xa94f5374fce5edbc8e2a8697c15331677e6ebf0b" : {
                "balance" : "0xe8d49be840",
                "code" : "",
                "nonce" : "0x01",
                "storage" : {
                }
            }
        },
        "pre" : {
            "0x6295ee1b4f6dd65047762f924ecd367c17eabf8f" : {
                "balance" : "0x00",
                "code" : "",
                "nonce" : "0x01",
                "storage" : {
                }
            },
            "0xa94f5374fce5edbc8e2a8697c15331677e6ebf0b" : {
                "balance" : "0xe8d4a51000",
                "code" : "",
                "nonce" : "0x00",
                "storage" : {
                }
            }
        }
    },
    "TransactionCollisionToEmptyButNonce_d0g0v0_Frontier" : {
        "_info" : {
            "comment" : "",
            "filledwith" : "cpp-1.3.0+commit.6e0ce939.Linux.g++",
            "lllcversion" : "Version: 0.4.18-develop.2017.9.25+commit.a72237f2.Linux.g++",
            "source" : "src/BlockchainTestsFiller/GeneralStateTests/stCreateTest/TransactionCollisionToEmptyButNonce_d0g0v0Filler.json",
            "sourceHash" : "787a3441a2bcbd1107e5a449f3f02c28b049a5dc4c62d26d0a702c6de7b80a91"
        },
        "blocks" : [
            {
                "blockHeader" : {
                    "bloom" : "0x00000000000000000000000000000000000000000000000000000000000000000000000000000000000000000000000000000000000000000000000000000000000000000000000000000000000000000000000000000000000000000000000000000000000000000000000000000000000000000000000000000000000000000000000000000000000000000000000000000000000000000000000000000000000000000000000000000000000000000000000000000000000000000000000000000000000000000000000000000000000000000000000000000000000000000000000000000000000000000000000000000000000000000000000000000000",
                    "coinbase" : "0x2adc25665018aa1fe0e6bc666dac8fc2697ff9ba",
                    "difficulty" : "0x020000",
                    "extraData" : "",
                    "gasLimit" : "0x989680",
                    "gasUsed" : "0x0927c0",
                    "hash" : "0xcc9f880d22a237ab5fdf7d6cd4bf64eb39852035d6e14913f37126038f8f6344",
                    "mixHash" : "0x1df661210f7f1e4e2d5bb2dee649ff0aec276fe6aa68375698ad06e861f6ebc4",
                    "nonce" : "0x302cb843d4c38bf2",
                    "number" : "0x01",
                    "parentHash" : "0x956926515400edf7d589e37a9ad23e428626f9573f1ff4e6bf20ccb3b7712604",
                    "receiptTrie" : "0x4602c8c524f3e9d7bc5127c07e40fc1e21e349a8420b4c02bd5087bd3be1964f",
                    "stateRoot" : "0x19adf6136adcba1005dcbdb24f6e6db2fbb4f1ec9a0979d1a381b6d89768025c",
                    "timestamp" : "0x03e8",
                    "transactionsTrie" : "0x3b328f7eb9a1f7faa08eccd3af56e9789b313cd193868ba0fa8dcb4c9487f4a9",
                    "uncleHash" : "0x1dcc4de8dec75d7aab85b567b6ccd41ad312451b948a7413f0a142fd40d49347"
                },
                "rlp" : "0xf90251f901f8a0956926515400edf7d589e37a9ad23e428626f9573f1ff4e6bf20ccb3b7712604a01dcc4de8dec75d7aab85b567b6ccd41ad312451b948a7413f0a142fd40d49347942adc25665018aa1fe0e6bc666dac8fc2697ff9baa019adf6136adcba1005dcbdb24f6e6db2fbb4f1ec9a0979d1a381b6d89768025ca03b328f7eb9a1f7faa08eccd3af56e9789b313cd193868ba0fa8dcb4c9487f4a9a04602c8c524f3e9d7bc5127c07e40fc1e21e349a8420b4c02bd5087bd3be1964fb9010000000000000000000000000000000000000000000000000000000000000000000000000000000000000000000000000000000000000000000000000000000000000000000000000000000000000000000000000000000000000000000000000000000000000000000000000000000000000000000000000000000000000000000000000000000000000000000000000000000000000000000000000000000000000000000000000000000000000000000000000000000000000000000000000000000000000000000000000000000000000000000000000000000000000000000000000000000000000000000000000000000000000000000000000000000000830200000183989680830927c08203e880a01df661210f7f1e4e2d5bb2dee649ff0aec276fe6aa68375698ad06e861f6ebc488302cb843d4c38bf2f853f8518001830927c080808560016001551ca0f23fc10ff1db01127538caf3cc1b62a01c74c00598c0bf07a8b6f297f0a478d7a0099a225dd4d9eabb96da774027484fee40d3a054d37ec760c1a9a2131bc9395bc0",
                "transactions" : [
                    {
                        "data" : "0x6001600155",
                        "gasLimit" : "0x0927c0",
                        "gasPrice" : "0x01",
                        "nonce" : "0x00",
                        "r" : "0xf23fc10ff1db01127538caf3cc1b62a01c74c00598c0bf07a8b6f297f0a478d7",
                        "s" : "0x099a225dd4d9eabb96da774027484fee40d3a054d37ec760c1a9a2131bc9395b",
                        "to" : "",
                        "v" : "0x1c",
                        "value" : "0x00"
                    }
                ],
                "uncleHeaders" : [
                ]
            }
        ],
        "genesisBlockHeader" : {
            "bloom" : "0x00000000000000000000000000000000000000000000000000000000000000000000000000000000000000000000000000000000000000000000000000000000000000000000000000000000000000000000000000000000000000000000000000000000000000000000000000000000000000000000000000000000000000000000000000000000000000000000000000000000000000000000000000000000000000000000000000000000000000000000000000000000000000000000000000000000000000000000000000000000000000000000000000000000000000000000000000000000000000000000000000000000000000000000000000000000",
            "coinbase" : "0x2adc25665018aa1fe0e6bc666dac8fc2697ff9ba",
            "difficulty" : "0x020000",
            "extraData" : "0x42",
            "gasLimit" : "0x989680",
            "gasUsed" : "0x00",
            "hash" : "0x956926515400edf7d589e37a9ad23e428626f9573f1ff4e6bf20ccb3b7712604",
            "mixHash" : "0x56e81f171bcc55a6ff8345e692c0f86e5b48e01b996cadc001622fb5e363b421",
            "nonce" : "0x0102030405060708",
            "number" : "0x00",
            "parentHash" : "0x0000000000000000000000000000000000000000000000000000000000000000",
            "receiptTrie" : "0x56e81f171bcc55a6ff8345e692c0f86e5b48e01b996cadc001622fb5e363b421",
            "stateRoot" : "0x2ba54e1f096f181cbd01a69dc23f4b60c53d41838ed962a5bacd1e9f0a8522b8",
            "timestamp" : "0x03b6",
            "transactionsTrie" : "0x56e81f171bcc55a6ff8345e692c0f86e5b48e01b996cadc001622fb5e363b421",
            "uncleHash" : "0x1dcc4de8dec75d7aab85b567b6ccd41ad312451b948a7413f0a142fd40d49347"
        },
        "genesisRLP" : "0xf901faf901f5a00000000000000000000000000000000000000000000000000000000000000000a01dcc4de8dec75d7aab85b567b6ccd41ad312451b948a7413f0a142fd40d49347942adc25665018aa1fe0e6bc666dac8fc2697ff9baa02ba54e1f096f181cbd01a69dc23f4b60c53d41838ed962a5bacd1e9f0a8522b8a056e81f171bcc55a6ff8345e692c0f86e5b48e01b996cadc001622fb5e363b421a056e81f171bcc55a6ff8345e692c0f86e5b48e01b996cadc001622fb5e363b421b9010000000000000000000000000000000000000000000000000000000000000000000000000000000000000000000000000000000000000000000000000000000000000000000000000000000000000000000000000000000000000000000000000000000000000000000000000000000000000000000000000000000000000000000000000000000000000000000000000000000000000000000000000000000000000000000000000000000000000000000000000000000000000000000000000000000000000000000000000000000000000000000000000000000000000000000000000000000000000000000000000000000000000000000000000000000000830200008083989680808203b642a056e81f171bcc55a6ff8345e692c0f86e5b48e01b996cadc001622fb5e363b421880102030405060708c0c0",
        "lastblockhash" : "0xcc9f880d22a237ab5fdf7d6cd4bf64eb39852035d6e14913f37126038f8f6344",
        "network" : "Frontier",
        "postState" : {
            "0x2adc25665018aa1fe0e6bc666dac8fc2697ff9ba" : {
                "balance" : "0x4563918244fd27c0",
                "code" : "",
                "nonce" : "0x00",
                "storage" : {
                }
            },
            "0x6295ee1b4f6dd65047762f924ecd367c17eabf8f" : {
                "balance" : "0x00",
                "code" : "",
                "nonce" : "0x01",
                "storage" : {
                }
            },
            "0xa94f5374fce5edbc8e2a8697c15331677e6ebf0b" : {
                "balance" : "0xe8d49be840",
                "code" : "",
                "nonce" : "0x01",
                "storage" : {
                }
            }
        },
        "pre" : {
            "0x6295ee1b4f6dd65047762f924ecd367c17eabf8f" : {
                "balance" : "0x00",
                "code" : "",
                "nonce" : "0x01",
                "storage" : {
                }
            },
            "0xa94f5374fce5edbc8e2a8697c15331677e6ebf0b" : {
                "balance" : "0xe8d4a51000",
                "code" : "",
                "nonce" : "0x00",
                "storage" : {
                }
            }
        }
    },
    "TransactionCollisionToEmptyButNonce_d0g0v0_Homestead" : {
        "_info" : {
            "comment" : "",
            "filledwith" : "cpp-1.3.0+commit.6e0ce939.Linux.g++",
            "lllcversion" : "Version: 0.4.18-develop.2017.9.25+commit.a72237f2.Linux.g++",
            "source" : "src/BlockchainTestsFiller/GeneralStateTests/stCreateTest/TransactionCollisionToEmptyButNonce_d0g0v0Filler.json",
            "sourceHash" : "787a3441a2bcbd1107e5a449f3f02c28b049a5dc4c62d26d0a702c6de7b80a91"
        },
        "blocks" : [
            {
                "blockHeader" : {
                    "bloom" : "0x00000000000000000000000000000000000000000000000000000000000000000000000000000000000000000000000000000000000000000000000000000000000000000000000000000000000000000000000000000000000000000000000000000000000000000000000000000000000000000000000000000000000000000000000000000000000000000000000000000000000000000000000000000000000000000000000000000000000000000000000000000000000000000000000000000000000000000000000000000000000000000000000000000000000000000000000000000000000000000000000000000000000000000000000000000000",
                    "coinbase" : "0x2adc25665018aa1fe0e6bc666dac8fc2697ff9ba",
                    "difficulty" : "0x020000",
                    "extraData" : "",
                    "gasLimit" : "0x989680",
                    "gasUsed" : "0x0927c0",
                    "hash" : "0xeee70a4a6869700805626c7bd2cc2acf8ba80c6a985de37b19511292587b4e71",
                    "mixHash" : "0xfa51dbb9374b6a139f755e972a2d12a716d127f9b34ebc7f1aade382e29692f7",
                    "nonce" : "0x33a2d086769b8dbf",
                    "number" : "0x01",
                    "parentHash" : "0x956926515400edf7d589e37a9ad23e428626f9573f1ff4e6bf20ccb3b7712604",
                    "receiptTrie" : "0x4602c8c524f3e9d7bc5127c07e40fc1e21e349a8420b4c02bd5087bd3be1964f",
                    "stateRoot" : "0x19adf6136adcba1005dcbdb24f6e6db2fbb4f1ec9a0979d1a381b6d89768025c",
                    "timestamp" : "0x03e8",
                    "transactionsTrie" : "0x3b328f7eb9a1f7faa08eccd3af56e9789b313cd193868ba0fa8dcb4c9487f4a9",
                    "uncleHash" : "0x1dcc4de8dec75d7aab85b567b6ccd41ad312451b948a7413f0a142fd40d49347"
                },
                "rlp" : "0xf90251f901f8a0956926515400edf7d589e37a9ad23e428626f9573f1ff4e6bf20ccb3b7712604a01dcc4de8dec75d7aab85b567b6ccd41ad312451b948a7413f0a142fd40d49347942adc25665018aa1fe0e6bc666dac8fc2697ff9baa019adf6136adcba1005dcbdb24f6e6db2fbb4f1ec9a0979d1a381b6d89768025ca03b328f7eb9a1f7faa08eccd3af56e9789b313cd193868ba0fa8dcb4c9487f4a9a04602c8c524f3e9d7bc5127c07e40fc1e21e349a8420b4c02bd5087bd3be1964fb9010000000000000000000000000000000000000000000000000000000000000000000000000000000000000000000000000000000000000000000000000000000000000000000000000000000000000000000000000000000000000000000000000000000000000000000000000000000000000000000000000000000000000000000000000000000000000000000000000000000000000000000000000000000000000000000000000000000000000000000000000000000000000000000000000000000000000000000000000000000000000000000000000000000000000000000000000000000000000000000000000000000000000000000000000000000000830200000183989680830927c08203e880a0fa51dbb9374b6a139f755e972a2d12a716d127f9b34ebc7f1aade382e29692f78833a2d086769b8dbff853f8518001830927c080808560016001551ca0f23fc10ff1db01127538caf3cc1b62a01c74c00598c0bf07a8b6f297f0a478d7a0099a225dd4d9eabb96da774027484fee40d3a054d37ec760c1a9a2131bc9395bc0",
                "transactions" : [
                    {
                        "data" : "0x6001600155",
                        "gasLimit" : "0x0927c0",
                        "gasPrice" : "0x01",
                        "nonce" : "0x00",
                        "r" : "0xf23fc10ff1db01127538caf3cc1b62a01c74c00598c0bf07a8b6f297f0a478d7",
                        "s" : "0x099a225dd4d9eabb96da774027484fee40d3a054d37ec760c1a9a2131bc9395b",
                        "to" : "",
                        "v" : "0x1c",
                        "value" : "0x00"
                    }
                ],
                "uncleHeaders" : [
                ]
            }
        ],
        "genesisBlockHeader" : {
            "bloom" : "0x00000000000000000000000000000000000000000000000000000000000000000000000000000000000000000000000000000000000000000000000000000000000000000000000000000000000000000000000000000000000000000000000000000000000000000000000000000000000000000000000000000000000000000000000000000000000000000000000000000000000000000000000000000000000000000000000000000000000000000000000000000000000000000000000000000000000000000000000000000000000000000000000000000000000000000000000000000000000000000000000000000000000000000000000000000000",
            "coinbase" : "0x2adc25665018aa1fe0e6bc666dac8fc2697ff9ba",
            "difficulty" : "0x020000",
            "extraData" : "0x42",
            "gasLimit" : "0x989680",
            "gasUsed" : "0x00",
            "hash" : "0x956926515400edf7d589e37a9ad23e428626f9573f1ff4e6bf20ccb3b7712604",
            "mixHash" : "0x56e81f171bcc55a6ff8345e692c0f86e5b48e01b996cadc001622fb5e363b421",
            "nonce" : "0x0102030405060708",
            "number" : "0x00",
            "parentHash" : "0x0000000000000000000000000000000000000000000000000000000000000000",
            "receiptTrie" : "0x56e81f171bcc55a6ff8345e692c0f86e5b48e01b996cadc001622fb5e363b421",
            "stateRoot" : "0x2ba54e1f096f181cbd01a69dc23f4b60c53d41838ed962a5bacd1e9f0a8522b8",
            "timestamp" : "0x03b6",
            "transactionsTrie" : "0x56e81f171bcc55a6ff8345e692c0f86e5b48e01b996cadc001622fb5e363b421",
            "uncleHash" : "0x1dcc4de8dec75d7aab85b567b6ccd41ad312451b948a7413f0a142fd40d49347"
        },
        "genesisRLP" : "0xf901faf901f5a00000000000000000000000000000000000000000000000000000000000000000a01dcc4de8dec75d7aab85b567b6ccd41ad312451b948a7413f0a142fd40d49347942adc25665018aa1fe0e6bc666dac8fc2697ff9baa02ba54e1f096f181cbd01a69dc23f4b60c53d41838ed962a5bacd1e9f0a8522b8a056e81f171bcc55a6ff8345e692c0f86e5b48e01b996cadc001622fb5e363b421a056e81f171bcc55a6ff8345e692c0f86e5b48e01b996cadc001622fb5e363b421b9010000000000000000000000000000000000000000000000000000000000000000000000000000000000000000000000000000000000000000000000000000000000000000000000000000000000000000000000000000000000000000000000000000000000000000000000000000000000000000000000000000000000000000000000000000000000000000000000000000000000000000000000000000000000000000000000000000000000000000000000000000000000000000000000000000000000000000000000000000000000000000000000000000000000000000000000000000000000000000000000000000000000000000000000000000000000830200008083989680808203b642a056e81f171bcc55a6ff8345e692c0f86e5b48e01b996cadc001622fb5e363b421880102030405060708c0c0",
        "lastblockhash" : "0xeee70a4a6869700805626c7bd2cc2acf8ba80c6a985de37b19511292587b4e71",
        "network" : "Homestead",
        "postState" : {
            "0x2adc25665018aa1fe0e6bc666dac8fc2697ff9ba" : {
                "balance" : "0x4563918244fd27c0",
                "code" : "",
                "nonce" : "0x00",
                "storage" : {
                }
            },
            "0x6295ee1b4f6dd65047762f924ecd367c17eabf8f" : {
                "balance" : "0x00",
                "code" : "",
                "nonce" : "0x01",
                "storage" : {
                }
            },
            "0xa94f5374fce5edbc8e2a8697c15331677e6ebf0b" : {
                "balance" : "0xe8d49be840",
                "code" : "",
                "nonce" : "0x01",
                "storage" : {
                }
            }
        },
        "pre" : {
            "0x6295ee1b4f6dd65047762f924ecd367c17eabf8f" : {
                "balance" : "0x00",
                "code" : "",
                "nonce" : "0x01",
                "storage" : {
                }
            },
            "0xa94f5374fce5edbc8e2a8697c15331677e6ebf0b" : {
                "balance" : "0xe8d4a51000",
                "code" : "",
                "nonce" : "0x00",
                "storage" : {
                }
            }
        }
    }
}