{
  "genesis_alloc_grayGlacier": {
    "blocks": [
      {
        "BlockHeader": {
          "BaseFeePerGas": "0x342770c0",
          "BlobGasUsed": null,
          "Bloom": "0x00000000000000000000000000000000000000000000000000000000000000000000000000000000000000000000000000000000000000000000000000000000000000000000000000000000000000000000000000000000000000000000000000000000000000000000000000000000000000000000000000000000000000000000000000000000000000000000000000000000000000000000000000000000000000000000000000000000000000000000000000000000000000000000000000000000000000000000000000000000000000000000000000000000000000000000000000000000000000000000000000000000000000000000000000000000",
          "Coinbase": "0x0100000000000000000000000000000000000000",
          "Difficulty": "0x20000",
          "ExcessBlobGas": null,
          "ExtraData": "0x",
          "GasLimit": "0x47e7c4",
          "GasUsed": "0x0",
          "Hash": "0x37bb7e9b45f4fb7b311abb5f815e3e00d3382d83a2c39b9b0bd22b717566cd04",
          "MixHash": "0x0000000000000000000000000000000000000000000000000000000000000000",
          "Nonce": "0x0000000000000000",
          "Number": "0x1",
          "ParentBeaconBlockRoot": null,
          "ParentHash": "0xbcc9466e9fc6a8b56f4b29ca353a421ff8b51a0c1a58ca4743b427605b08f2ca",
          "ReceiptTrie": "0x56e81f171bcc55a6ff8345e692c0f86e5b48e01b996cadc001622fb5e363b421",
          "StateRoot": "0x98d03dd72cdfee5c55acc619a1f1bcb1be6d1a10b25b512e7c4e4c4413357940",
          "Timestamp": "0xa",
          "TransactionsTrie": "0x56e81f171bcc55a6ff8345e692c0f86e5b48e01b996cadc001622fb5e363b421",
          "UncleHash": "0x1dcc4de8dec75d7aab85b567b6ccd41ad312451b948a7413f0a142fd40d49347",
          "WithdrawalsRoot": null
        },
        "ExpectException": "",
        "Rlp": "0xf901fdf901f8a0bcc9466e9fc6a8b56f4b29ca353a421ff8b51a0c1a58ca4743b427605b08f2caa01dcc4de8dec75d7aab85b567b6ccd41ad312451b948a7413f0a142fd40d49347940100000000000000000000000000000000000000a098d03dd72cdfee5c55acc619a1f1bcb1be6d1a10b25b512e7c4e4c4413357940a056e81f171bcc55a6ff8345e692c0f86e5b48e01b996cadc001622fb5e363b421a056e81f171bcc55a6ff8345e692c0f86e5b48e01b996cadc001622fb5e363b421b901000000000000000000000000000000000000000000000000000000000000000000000000000000000000000000000000000000000000000000000000000000000000000000000000000000000000000000000000000000000000000000000000000000000000000000000000000000000000000000000000000000000000000000000000000000000000000000000000000000000000000000000000000000000000000000000000000000000000000000000000000000000000000000000000000000000000000000000000000000000000000000000000000000000000000000000000000000000000000000000000000000000000000000000000000000000083020000018347e7c4800a80a0000000000000000000000000000000000000000000000000000000000000000088000000000000000084342770c0c0c0",
        "UncleHeaders": null
      }
    ],
    "expected": [
      {
        "issuance": {
          "genesisAlloc": "0x1bc16d674ec80000"
        },
        "blockNumber": 0,
        "hash": "0xbcc9466e9fc6a8b56f4b29ca353a421ff8b51a0c1a58ca4743b427605b08f2ca",
        "parentHash": "0x0000000000000000000000000000000000000000000000000000000000000000"
      },
      {
        "issuance": {
          "reward": "0x1bc16d674ec80000"
        },
        "blockNumber": 1,
        "hash": "0x37bb7e9b45f4fb7b311abb5f815e3e00d3382d83a2c39b9b0bd22b717566cd04",
        "parentHash": "0xbcc9466e9fc6a8b56f4b29ca353a421ff8b51a0c1a58ca4743b427605b08f2ca"
      }
    ],
    "genesisBlockHeader": {
      "BaseFeePerGas": "0x3b9aca00",
      "BlobGasUsed": null,
      "Bloom": "0x00000000000000000000000000000000000000000000000000000000000000000000000000000000000000000000000000000000000000000000000000000000000000000000000000000000000000000000000000000000000000000000000000000000000000000000000000000000000000000000000000000000000000000000000000000000000000000000000000000000000000000000000000000000000000000000000000000000000000000000000000000000000000000000000000000000000000000000000000000000000000000000000000000000000000000000000000000000000000000000000000000000000000000000000000000000",
      "Coinbase": "0x0000000000000000000000000000000000000000",
      "Difficulty": "0x20000",
      "ExcessBlobGas": null,
      "ExtraData": "0x",
      "GasLimit": "0x47e7c4",
      "GasUsed": "0x0",
      "Hash": "0xbcc9466e9fc6a8b56f4b29ca353a421ff8b51a0c1a58ca4743b427605b08f2ca",
      "MixHash": "0x0000000000000000000000000000000000000000000000000000000000000000",
      "Nonce": "0x0000000000000000",
      "Number": "0x0",
      "ParentBeaconBlockRoot": null,
      "ParentHash": "0x0000000000000000000000000000000000000000000000000000000000000000",
      "ReceiptTrie": "0x56e81f171bcc55a6ff8345e692c0f86e5b48e01b996cadc001622fb5e363b421",
      "StateRoot": "0x4eaed1ec95373a6cad785d6b2506606a2c19e2e7c6d7faf4bab3472c21861b27",
      "Timestamp": "0x0",
      "TransactionsTrie": "0x56e81f171bcc55a6ff8345e692c0f86e5b48e01b996cadc001622fb5e363b421",
      "UncleHash": "0x1dcc4de8dec75d7aab85b567b6ccd41ad312451b948a7413f0a142fd40d49347",
      "WithdrawalsRoot": null
    },
    "lastblockhash": "37bb7e9b45f4fb7b311abb5f815e3e00d3382d83a2c39b9b0bd22b717566cd04",
    "network": "GrayGlacier",
    "postState": {},
    "pre": {
      "0x703c4b2bd70c169f5717101caee543299fc946c7": {
        "balance": "0xde0b6b3a7640000"
      },
      "0x71562b71999873db5b286df957af199ec94617f7": {
        "balance": "0xde0b6b3a7640000"
      }
    },
    "sealEngine": ""
  }
}